{
  "_format": "hh-sol-artifact-1",
  "contractName": "Market",
  "sourceName": "contracts/NewMarket.sol",
  "abi": [
    {
      "inputs": [],
      "stateMutability": "nonpayable",
      "type": "constructor"
    },
    {
      "anonymous": false,
      "inputs": [
        {
          "components": [
            {
              "internalType": "uint256",
              "name": "frameKey",
              "type": "uint256"
            },
            {
              "internalType": "uint256",
              "name": "rate",
              "type": "uint256"
            },
            {
              "internalType": "uint256[]",
              "name": "lotKeys",
              "type": "uint256[]"
            },
            {
              "internalType": "address",
              "name": "rewardClaimedBy",
              "type": "address"
            },
            {
              "internalType": "bool",
              "name": "noLotWon",
              "type": "bool"
            }
          ],
          "indexed": false,
          "internalType": "struct Market.Frame",
          "name": "frame",
          "type": "tuple"
        }
      ],
      "name": "FrameUpdate",
      "type": "event"
    },
    {
      "anonymous": false,
      "inputs": [
        {
          "components": [
            {
              "internalType": "uint256",
              "name": "frameKey",
              "type": "uint256"
            },
            {
              "internalType": "uint256",
              "name": "lotKey",
              "type": "uint256"
            },
            {
              "components": [
                {
                  "internalType": "uint256",
                  "name": "timestamp",
                  "type": "uint256"
                },
                {
                  "internalType": "address",
                  "name": "owner",
                  "type": "address"
                },
                {
                  "internalType": "uint256",
                  "name": "acquisitionPrice",
                  "type": "uint256"
                },
                {
                  "internalType": "uint256",
                  "name": "taxCharged",
                  "type": "uint256"
                },
                {
                  "internalType": "uint256",
                  "name": "taxRefunded",
                  "type": "uint256"
                }
              ],
              "internalType": "struct Market.LotState[]",
              "name": "states",
              "type": "tuple[]"
            }
          ],
          "indexed": false,
          "internalType": "struct Market.Lot",
          "name": "lot",
          "type": "tuple"
        }
      ],
      "name": "LotUpdate",
      "type": "event"
    },
    {
      "inputs": [],
      "name": "accountingToken",
      "outputs": [
        {
          "internalType": "contract IERC20",
          "name": "",
          "type": "address"
        }
      ],
      "stateMutability": "view",
      "type": "function"
    },
    {
      "inputs": [
        {
          "internalType": "uint256",
          "name": "frameKey",
          "type": "uint256"
        },
        {
          "internalType": "uint256",
          "name": "acquisitionPrice",
          "type": "uint256"
        }
      ],
      "name": "clcFee",
      "outputs": [
        {
          "internalType": "uint256",
          "name": "fee",
          "type": "uint256"
        }
      ],
      "stateMutability": "view",
      "type": "function"
    },
    {
      "inputs": [
        {
          "internalType": "uint256",
          "name": "timestamp",
          "type": "uint256"
        }
      ],
      "name": "clcFrameKey",
      "outputs": [
        {
          "internalType": "uint256",
          "name": "",
          "type": "uint256"
        }
      ],
      "stateMutability": "view",
      "type": "function"
    },
    {
      "inputs": [
        {
          "internalType": "uint256",
          "name": "value",
          "type": "uint256"
        }
      ],
      "name": "clcLotKey",
      "outputs": [
        {
          "internalType": "uint256",
          "name": "",
          "type": "uint256"
        }
      ],
      "stateMutability": "view",
      "type": "function"
    },
    {
      "inputs": [
        {
          "internalType": "uint256",
          "name": "timestamp",
          "type": "uint256"
        }
      ],
      "name": "clcRateAvg",
      "outputs": [
        {
          "internalType": "uint256",
          "name": "",
          "type": "uint256"
        }
      ],
      "stateMutability": "view",
      "type": "function"
    },
    {
      "inputs": [
        {
          "components": [
            {
              "internalType": "uint256",
              "name": "frameKey",
              "type": "uint256"
            },
            {
              "internalType": "uint256",
              "name": "rate",
              "type": "uint256"
            },
            {
              "internalType": "uint256[]",
              "name": "lotKeys",
              "type": "uint256[]"
            },
            {
              "internalType": "address",
              "name": "rewardClaimedBy",
              "type": "address"
            },
            {
              "internalType": "bool",
              "name": "noLotWon",
              "type": "bool"
            }
          ],
          "internalType": "struct Market.Frame",
          "name": "frame",
          "type": "tuple"
        }
      ],
      "name": "clcRewardFund",
      "outputs": [
        {
          "internalType": "uint256",
          "name": "",
          "type": "uint256"
        }
      ],
      "stateMutability": "view",
      "type": "function"
    },
    {
      "inputs": [
        {
          "internalType": "uint256",
          "name": "frameKey",
          "type": "uint256"
        },
        {
          "internalType": "uint256",
          "name": "acquisitionPrice",
          "type": "uint256"
        }
      ],
      "name": "clcTax",
      "outputs": [
        {
          "internalType": "uint256",
          "name": "tax",
          "type": "uint256"
        }
      ],
      "stateMutability": "view",
      "type": "function"
    },
    {
      "inputs": [],
      "name": "dPrice",
      "outputs": [
        {
          "internalType": "uint256",
          "name": "",
          "type": "uint256"
        }
      ],
      "stateMutability": "view",
      "type": "function"
    },
    {
      "inputs": [],
      "name": "feeProtocol",
      "outputs": [
        {
          "internalType": "uint256",
          "name": "",
          "type": "uint256"
        }
      ],
      "stateMutability": "view",
      "type": "function"
    },
    {
      "inputs": [
        {
          "internalType": "uint256",
          "name": "",
          "type": "uint256"
        }
      ],
      "name": "frames",
      "outputs": [
        {
          "internalType": "uint256",
          "name": "frameKey",
          "type": "uint256"
        },
        {
          "internalType": "uint256",
          "name": "rate",
          "type": "uint256"
        },
        {
          "internalType": "address",
          "name": "rewardClaimedBy",
          "type": "address"
        },
        {
          "internalType": "bool",
          "name": "noLotWon",
          "type": "bool"
        }
      ],
      "stateMutability": "view",
      "type": "function"
    },
    {
      "inputs": [
        {
          "internalType": "uint256",
          "name": "",
          "type": "uint256"
        }
      ],
      "name": "framesKeys",
      "outputs": [
        {
          "internalType": "uint256",
          "name": "",
          "type": "uint256"
        }
      ],
      "stateMutability": "view",
      "type": "function"
    },
    {
      "inputs": [
        {
          "internalType": "uint256",
          "name": "frameKey",
          "type": "uint256"
        }
      ],
      "name": "getFrame",
      "outputs": [
        {
          "components": [
            {
              "internalType": "uint256",
              "name": "frameKey",
              "type": "uint256"
            },
            {
              "internalType": "uint256",
              "name": "rate",
              "type": "uint256"
            },
            {
              "internalType": "uint256[]",
              "name": "lotKeys",
              "type": "uint256[]"
            },
            {
              "internalType": "address",
              "name": "rewardClaimedBy",
              "type": "address"
            },
            {
              "internalType": "bool",
              "name": "noLotWon",
              "type": "bool"
            }
          ],
          "internalType": "struct Market.Frame",
          "name": "",
          "type": "tuple"
        }
      ],
      "stateMutability": "view",
      "type": "function"
    },
    {
      "inputs": [
        {
          "internalType": "uint256",
          "name": "frameKey",
          "type": "uint256"
        },
        {
          "internalType": "uint256",
          "name": "lotKey",
          "type": "uint256"
        }
      ],
      "name": "getLot",
      "outputs": [
        {
          "components": [
            {
              "internalType": "uint256",
              "name": "frameKey",
              "type": "uint256"
            },
            {
              "internalType": "uint256",
              "name": "lotKey",
              "type": "uint256"
            },
            {
              "components": [
                {
                  "internalType": "uint256",
                  "name": "timestamp",
                  "type": "uint256"
                },
                {
                  "internalType": "address",
                  "name": "owner",
                  "type": "address"
                },
                {
                  "internalType": "uint256",
                  "name": "acquisitionPrice",
                  "type": "uint256"
                },
                {
                  "internalType": "uint256",
                  "name": "taxCharged",
                  "type": "uint256"
                },
                {
                  "internalType": "uint256",
                  "name": "taxRefunded",
                  "type": "uint256"
                }
              ],
              "internalType": "struct Market.LotState[]",
              "name": "states",
              "type": "tuple[]"
            }
          ],
          "internalType": "struct Market.Lot",
          "name": "",
          "type": "tuple"
        }
      ],
      "stateMutability": "view",
      "type": "function"
    },
    {
      "inputs": [
        {
          "internalType": "uint256",
          "name": "frameKey",
          "type": "uint256"
        }
      ],
      "name": "getLotsKeysInFrame",
      "outputs": [
        {
          "internalType": "uint256[]",
          "name": "",
          "type": "uint256[]"
        }
      ],
      "stateMutability": "view",
      "type": "function"
    },
    {
      "inputs": [
        {
          "components": [
            {
              "internalType": "uint256",
              "name": "frameKey",
              "type": "uint256"
            },
            {
              "internalType": "uint256",
              "name": "rate",
              "type": "uint256"
            },
            {
              "internalType": "uint256[]",
              "name": "lotKeys",
              "type": "uint256[]"
            },
            {
              "internalType": "address",
              "name": "rewardClaimedBy",
              "type": "address"
            },
            {
              "internalType": "bool",
              "name": "noLotWon",
              "type": "bool"
            }
          ],
          "internalType": "struct Market.Frame",
          "name": "frame",
          "type": "tuple"
        }
      ],
      "name": "getStateFrame",
      "outputs": [
        {
          "internalType": "enum Market.SFrame",
          "name": "",
          "type": "uint8"
        }
      ],
      "stateMutability": "view",
      "type": "function"
    },
    {
      "inputs": [
        {
          "components": [
            {
              "internalType": "uint256",
              "name": "frameKey",
              "type": "uint256"
            },
            {
              "internalType": "uint256",
              "name": "lotKey",
              "type": "uint256"
            },
            {
              "components": [
                {
                  "internalType": "uint256",
                  "name": "timestamp",
                  "type": "uint256"
                },
                {
                  "internalType": "address",
                  "name": "owner",
                  "type": "address"
                },
                {
                  "internalType": "uint256",
                  "name": "acquisitionPrice",
                  "type": "uint256"
                },
                {
                  "internalType": "uint256",
                  "name": "taxCharged",
                  "type": "uint256"
                },
                {
                  "internalType": "uint256",
                  "name": "taxRefunded",
                  "type": "uint256"
                }
              ],
              "internalType": "struct Market.LotState[]",
              "name": "states",
              "type": "tuple[]"
            }
          ],
          "internalType": "struct Market.Lot",
          "name": "lot",
          "type": "tuple"
        }
      ],
      "name": "getStateLot",
      "outputs": [
        {
          "internalType": "enum Market.SLot",
          "name": "",
          "type": "uint8"
        }
      ],
      "stateMutability": "view",
      "type": "function"
    },
    {
      "inputs": [],
      "name": "initTimestamp",
      "outputs": [
        {
          "internalType": "uint256",
          "name": "",
          "type": "uint256"
        }
      ],
      "stateMutability": "view",
      "type": "function"
    },
    {
      "inputs": [
        {
          "internalType": "uint256",
          "name": "",
          "type": "uint256"
        },
        {
          "internalType": "uint256",
          "name": "",
          "type": "uint256"
        }
      ],
      "name": "lots",
      "outputs": [
        {
          "internalType": "uint256",
          "name": "frameKey",
          "type": "uint256"
        },
        {
          "internalType": "uint256",
          "name": "lotKey",
          "type": "uint256"
        }
      ],
      "stateMutability": "view",
      "type": "function"
    },
    {
      "inputs": [
        {
          "components": [
            {
              "internalType": "uint256",
              "name": "frameKey",
              "type": "uint256"
            },
            {
              "internalType": "uint256",
              "name": "rate",
              "type": "uint256"
            },
            {
              "internalType": "uint256[]",
              "name": "lotKeys",
              "type": "uint256[]"
            },
            {
              "internalType": "address",
              "name": "rewardClaimedBy",
              "type": "address"
            },
            {
              "internalType": "bool",
              "name": "noLotWon",
              "type": "bool"
            }
          ],
          "internalType": "struct Market.Frame",
          "name": "frame",
          "type": "tuple"
        },
        {
          "internalType": "uint256",
          "name": "avgPrice",
          "type": "uint256"
        }
      ],
      "name": "overrideFrameRate",
      "outputs": [],
      "stateMutability": "nonpayable",
      "type": "function"
    },
    {
      "inputs": [],
      "name": "owner",
      "outputs": [
        {
          "internalType": "address",
          "name": "",
          "type": "address"
        }
      ],
      "stateMutability": "view",
      "type": "function"
    },
    {
      "inputs": [],
      "name": "period",
      "outputs": [
        {
          "internalType": "uint256",
          "name": "",
          "type": "uint256"
        }
      ],
      "stateMutability": "view",
      "type": "function"
    },
    {
      "inputs": [
        {
          "internalType": "uint256",
          "name": "timestamp",
          "type": "uint256"
        },
        {
          "internalType": "uint256",
          "name": "rate",
          "type": "uint256"
        },
        {
          "internalType": "uint256",
          "name": "acquisitionPrice",
          "type": "uint256"
        }
      ],
      "name": "purchaseLot",
      "outputs": [
        {
          "components": [
            {
              "internalType": "uint256",
              "name": "frameKey",
              "type": "uint256"
            },
            {
              "internalType": "uint256",
              "name": "lotKey",
              "type": "uint256"
            },
            {
              "components": [
                {
                  "internalType": "uint256",
                  "name": "timestamp",
                  "type": "uint256"
                },
                {
                  "internalType": "address",
                  "name": "owner",
                  "type": "address"
                },
                {
                  "internalType": "uint256",
                  "name": "acquisitionPrice",
                  "type": "uint256"
                },
                {
                  "internalType": "uint256",
                  "name": "taxCharged",
                  "type": "uint256"
                },
                {
                  "internalType": "uint256",
                  "name": "taxRefunded",
                  "type": "uint256"
                }
              ],
              "internalType": "struct Market.LotState[]",
              "name": "states",
              "type": "tuple[]"
            }
          ],
          "internalType": "struct Market.Lot",
          "name": "",
          "type": "tuple"
        }
      ],
      "stateMutability": "nonpayable",
      "type": "function"
    },
    {
      "inputs": [
        {
          "internalType": "uint256",
          "name": "frameKey",
          "type": "uint256"
        }
      ],
      "name": "setFrameRate",
      "outputs": [],
      "stateMutability": "nonpayable",
      "type": "function"
    },
    {
      "inputs": [],
      "name": "tReporting",
      "outputs": [
        {
          "internalType": "uint256",
          "name": "",
          "type": "uint256"
        }
      ],
      "stateMutability": "view",
      "type": "function"
    },
    {
      "inputs": [],
      "name": "taxMarket",
      "outputs": [
        {
          "internalType": "uint256",
          "name": "",
          "type": "uint256"
        }
      ],
      "stateMutability": "view",
      "type": "function"
    },
    {
      "inputs": [],
      "name": "uniswapPool",
      "outputs": [
        {
          "internalType": "contract IUniswapV3Pool",
          "name": "",
          "type": "address"
        }
      ],
      "stateMutability": "view",
      "type": "function"
    },
    {
      "inputs": [
        {
          "internalType": "uint256",
          "name": "amount",
          "type": "uint256"
        }
      ],
      "name": "withdrawAccountingToken",
      "outputs": [],
      "stateMutability": "nonpayable",
      "type": "function"
    }
  ],
  "bytecode": "0x608060405262015180600055636592e18060015566b1a2bc2ec500006002556102586003557367a9fe12fa6082d9d0203c84c6c56d3c4b269f28600460006101000a81548173ffffffffffffffffffffffffffffffffffffffff021916908373ffffffffffffffffffffffffffffffffffffffff16021790555068056bc75e2d631000006005556706f05b59d3b20000600655738f3cf7ad23cd3cadbd9735aff958023239c6a063600760006101000a81548173ffffffffffffffffffffffffffffffffffffffff021916908373ffffffffffffffffffffffffffffffffffffffff1602179055503480156100f357600080fd5b5033600860006101000a81548173ffffffffffffffffffffffffffffffffffffffff021916908373ffffffffffffffffffffffffffffffffffffffff1602179055506146fe806101446000396000f3fe608060405234801561001057600080fd5b50600436106101a95760003560e01c8063a10340bc116100f9578063e107fb4f11610097578063f553642e11610071578063f553642e14610536578063fe997d8814610566578063ff5c86b014610596578063ffdabe2d146105b4576101a9565b8063e107fb4f146104b8578063e8e279db146104e8578063ef78d4fd14610518576101a9565b8063b93dafa9116100d3578063b93dafa91461042f578063bdd3d82514610460578063d18743dd1461047e578063da68cf8b1461049a576101a9565b8063a10340bc146103b0578063a9b2ca17146103e3578063b51754e014610413576101a9565b806361eee2cb11610166578063773d51eb11610140578063773d51eb146103145780637e996639146103445780638da5cb5b146103625780639592de1814610380576101a9565b806361eee2cb146102965780636f1aefc3146102c65780637358c57a146102f6576101a9565b8063050e8840146101ae5780630d0a1c1a146101de5780633a9b68501461020e5780633baf15871461023e578063499a0fc41461025a578063527eb4bc14610278575b600080fd5b6101c860048036038101906101c391906133c5565b6105e4565b6040516101d5919061420c565b60405180910390f35b6101f860048036038101906101f391906133c5565b610605565b6040516102059190613ef6565b60405180910390f35b610228600480360381019061022391906132ef565b610673565b604051610235919061420c565b60405180910390f35b610258600480360381019061025391906133c5565b610845565b005b610262610914565b60405161026f919061420c565b60405180910390f35b61028061091a565b60405161028d919061420c565b60405180910390f35b6102b060048036038101906102ab91906133c5565b610920565b6040516102bd919061420c565b60405180910390f35b6102e060048036038101906102db9190613417565b61094f565b6040516102ed91906141ea565b60405180910390f35b6102fe610aea565b60405161030b919061420c565b60405180910390f35b61032e600480360381019061032991906133c5565b610af0565b60405161033b91906141a6565b60405180910390f35b61034c610c54565b604051610359919061420c565b60405180910390f35b61036a610c5a565b6040516103779190613e29565b60405180910390f35b61039a600480360381019061039591906133c5565b610c80565b6040516103a7919061420c565b60405180910390f35b6103ca60048036038101906103c591906133c5565b610cae565b6040516103da9493929190614250565b60405180910390f35b6103fd60048036038101906103f891906132ef565b610d0b565b60405161040a9190613f70565b60405180910390f35b61042d60048036038101906104289190613330565b610daf565b005b61044960048036038101906104449190613417565b610f1d565b604051610457929190614227565b60405180910390f35b610468610f4e565b6040516104759190613f55565b60405180910390f35b610498600480360381019061049391906133c5565b610f74565b005b6104a26110d9565b6040516104af9190613f3a565b60405180910390f35b6104d260048036038101906104cd9190613417565b6110ff565b6040516104df919061420c565b60405180910390f35b61050260048036038101906104fd9190613453565b611126565b60405161050f91906141ea565b60405180910390f35b61052061133f565b60405161052d919061420c565b60405180910390f35b610550600480360381019061054b9190613417565b611345565b60405161055d919061420c565b60405180910390f35b610580600480360381019061057b9190613384565b61136c565b60405161058d9190613f8b565b60405180910390f35b61059e61176d565b6040516105ab919061420c565b60405180910390f35b6105ce60048036038101906105c991906133c5565b611773565b6040516105db919061420c565b60405180910390f35b600a81815481106105f157fe5b906000526020600020016000915090505481565b60606009600083815260200190815260200160002060020180548060200260200160405190810160405280929190818152602001828054801561066757602002820191906000526020600020905b815481526020019060010190808311610653575b50505050509050919050565b6000806000905060005b83604001515181101561083b57610692612d6e565b600b6000866000015181526020019081526020016000206000866040015184815181106106bb57fe5b60200260200101518152602001908152602001600020604051806060016040529081600082015481526020016001820154815260200160028201805480602002602001604051908101604052809291908181526020016000905b828210156107c557838290600052602060002090600502016040518060a0016040529081600082015481526020016001820160009054906101000a900473ffffffffffffffffffffffffffffffffffffffff1673ffffffffffffffffffffffffffffffffffffffff1673ffffffffffffffffffffffffffffffffffffffff168152602001600282015481526020016003820154815260200160048201548152505081526020019060010190610715565b5050505081525050905060005b81604001515181101561082c57816040015181815181106107ef57fe5b602002602001015160600151840193508160400151818151811061080f57fe5b6020026020010151608001518403935080806001019150506107d2565b5050808060010191505061067d565b5080915050919050565b600061085082611773565b90506000600960008481526020019081526020016000206000015414156108ac576040517f08c379a00000000000000000000000000000000000000000000000000000000081526004016108a390614166565b60405180910390fd5b8060096000848152602001908152602001600020600101819055507f17b451d09df31861d89a8afe1d24374f8508bf09c26dd49036bc9a7591ca1c656009600084815260200190815260200160002060405161090891906141c8565b60405180910390a15050565b60055481565b60025481565b6000600154821161093557600154905061094a565b60005460015483038161094457fe5b06820390505b919050565b610957612d6e565b6000600b600085815260200190815260200160002060008481526020019081526020016000206001015414156109c2576040517f08c379a00000000000000000000000000000000000000000000000000000000081526004016109b990614186565b60405180910390fd5b600b60008481526020019081526020016000206000838152602001908152602001600020604051806060016040529081600082015481526020016001820154815260200160028201805480602002602001604051908101604052809291908181526020016000905b82821015610ada57838290600052602060002090600502016040518060a0016040529081600082015481526020016001820160009054906101000a900473ffffffffffffffffffffffffffffffffffffffff1673ffffffffffffffffffffffffffffffffffffffff1673ffffffffffffffffffffffffffffffffffffffff168152602001600282015481526020016003820154815260200160048201548152505081526020019060010190610a2a565b5050505081525050905092915050565b60015481565b610af8612d8f565b600060096000848152602001908152602001600020600001541415610b52576040517f08c379a0000000000000000000000000000000000000000000000000000000008152600401610b4990614166565b60405180910390fd5b600960008381526020019081526020016000206040518060a0016040529081600082015481526020016001820154815260200160028201805480602002602001604051908101604052809291908181526020018280548015610bd357602002820191906000526020600020905b815481526020019060010190808311610bbf575b505050505081526020016003820160009054906101000a900473ffffffffffffffffffffffffffffffffffffffff1673ffffffffffffffffffffffffffffffffffffffff1673ffffffffffffffffffffffffffffffffffffffff1681526020016003820160149054906101000a900460ff1615151515815250509050919050565b60065481565b600860009054906101000a900473ffffffffffffffffffffffffffffffffffffffff1681565b6000600554821015610c96576005549050610ca9565b6005546005548381610ca457fe5b040290505b919050565b60096020528060005260406000206000915090508060000154908060010154908060030160009054906101000a900473ffffffffffffffffffffffffffffffffffffffff16908060030160149054906101000a900460ff16905084565b60008082600001511415610d225760009050610daa565b600073ffffffffffffffffffffffffffffffffffffffff16826060015173ffffffffffffffffffffffffffffffffffffffff1614610d635760049050610daa565b816080015115610d765760059050610daa565b600054826000015101421015610d8f5760019050610daa565b600082602001511115610da55760039050610daa565b600290505b919050565b600860009054906101000a900473ffffffffffffffffffffffffffffffffffffffff1673ffffffffffffffffffffffffffffffffffffffff163373ffffffffffffffffffffffffffffffffffffffff1614610e3f576040517f08c379a0000000000000000000000000000000000000000000000000000000008152600401610e3690614106565b60405180910390fd5b600082600001511415610e87576040517f08c379a0000000000000000000000000000000000000000000000000000000008152600401610e7e90614166565b60405180910390fd5b600073ffffffffffffffffffffffffffffffffffffffff16826060015173ffffffffffffffffffffffffffffffffffffffff1614610efa576040517f08c379a0000000000000000000000000000000000000000000000000000000008152600401610ef190614126565b60405180910390fd5b806009600084600001518152602001908152602001600020600101819055505050565b600b602052816000526040600020602052806000526040600020600091509150508060000154908060010154905082565b600460009054906101000a900473ffffffffffffffffffffffffffffffffffffffff1681565b600860009054906101000a900473ffffffffffffffffffffffffffffffffffffffff1673ffffffffffffffffffffffffffffffffffffffff163373ffffffffffffffffffffffffffffffffffffffff1614611004576040517f08c379a0000000000000000000000000000000000000000000000000000000008152600401610ffb90613fa6565b60405180910390fd5b600760009054906101000a900473ffffffffffffffffffffffffffffffffffffffff1673ffffffffffffffffffffffffffffffffffffffff1663a9059cbb600860009054906101000a900473ffffffffffffffffffffffffffffffffffffffff16836040518363ffffffff1660e01b8152600401611083929190613ecd565b602060405180830381600087803b15801561109d57600080fd5b505af11580156110b1573d6000803e3d6000fd5b505050506040513d601f19601f820116820180604052508101906110d591906132c6565b5050565b600760009054906101000a900473ffffffffffffffffffffffffffffffffffffffff1681565b60008060005483600654028161111157fe5b04905080426000548601030291505092915050565b61112e612d6e565b600061113985610920565b9050611143612d8f565b61114c82610af0565b90506000816000015114156111bd57611164866119df565b905061116e612d6e565b611179828787611bdb565b90507ff290c7849378e29657229676eda2d2ff37194a381945ba71a65dff9000b76c65816040516111aa91906141ea565b60405180910390a1809350505050611338565b60008160000151146113355760006111d486610c80565b90506111de612d6e565b6111ec83600001518361094f565b90506111f6612dd6565b81604001516001836040015151038151811061120e57fe5b60200260200101519050806020015173ffffffffffffffffffffffffffffffffffffffff163373ffffffffffffffffffffffffffffffffffffffff1614156112a05761125a8288611df0565b91507ff290c7849378e29657229676eda2d2ff37194a381945ba71a65dff9000b76c658260405161128b91906141ea565b60405180910390a18195505050505050611338565b806020015173ffffffffffffffffffffffffffffffffffffffff163373ffffffffffffffffffffffffffffffffffffffff1614611328576112e2823389612166565b91507ff290c7849378e29657229676eda2d2ff37194a381945ba71a65dff9000b76c658260405161131391906141ea565b60405180910390a18195505050505050611338565b8195505050505050611338565b50505b9392505050565b60005481565b60008060005483600254028161135757fe5b04905080426000548601030291505092915050565b600080826020015114156113835760009050611768565b6000600581111561139057fe5b61149760096000856000015181526020019081526020016000206040518060a001604052908160008201548152602001600182015481526020016002820180548060200260200160405190810160405280929190818152602001828054801561141857602002820191906000526020600020905b815481526020019060010190808311611404575b505050505081526020016003820160009054906101000a900473ffffffffffffffffffffffffffffffffffffffff1673ffffffffffffffffffffffffffffffffffffffff1673ffffffffffffffffffffffffffffffffffffffff1681526020016003820160149054906101000a900460ff161515151581525050610d0b565b60058111156114a257fe5b14156114b15760009050611768565b600160058111156114be57fe5b6115c560096000856000015181526020019081526020016000206040518060a001604052908160008201548152602001600182015481526020016002820180548060200260200160405190810160405280929190818152602001828054801561154657602002820191906000526020600020905b815481526020019060010190808311611532575b505050505081526020016003820160009054906101000a900473ffffffffffffffffffffffffffffffffffffffff1673ffffffffffffffffffffffffffffffffffffffff1673ffffffffffffffffffffffffffffffffffffffff1681526020016003820160149054906101000a900460ff161515151581525050610d0b565b60058111156115d057fe5b14806116f85750600260058111156115e457fe5b6116eb60096000856000015181526020019081526020016000206040518060a001604052908160008201548152602001600182015481526020016002820180548060200260200160405190810160405280929190818152602001828054801561166c57602002820191906000526020600020905b815481526020019060010190808311611658575b505050505081526020016003820160009054906101000a900473ffffffffffffffffffffffffffffffffffffffff1673ffffffffffffffffffffffffffffffffffffffff1673ffffffffffffffffffffffffffffffffffffffff1681526020016003820160149054906101000a900460ff161515151581525050610d0b565b60058111156116f657fe5b145b156117065760019050611768565b8160200151600960008460000151815260200190815260200160002060010154101580156117555750600554826020015101600960008460000151815260200190815260200160002060010154105b156117635760029050611768565b600390505b919050565b60035481565b600080600354834203019050600083420390506060600267ffffffffffffffff811180156117a057600080fd5b506040519080825280602002602001820160405280156117cf5781602001602082028036833780820191505090505b50905082816000815181106117e057fe5b602002602001019063ffffffff16908163ffffffff1681525050818160018151811061180857fe5b602002602001019063ffffffff16908163ffffffff16815250506060600460009054906101000a900473ffffffffffffffffffffffffffffffffffffffff1673ffffffffffffffffffffffffffffffffffffffff1663883bdbfd836040518263ffffffff1660e01b815260040161187f9190613f18565b60006040518083038186803b15801561189757600080fd5b505afa1580156118ab573d6000803e3d6000fd5b505050506040513d6000823e3d601f19601f820116820180604052508101906118d4919061325a565b5090506000816000815181106118e657fe5b602002602001015160060b826001815181106118fe57fe5b602002602001015160060b03905060008463ffffffff168663ffffffff16039050600061193482846124b090919063ffffffff16565b9050600061194182612506565b9050600061197566010000000000008373ffffffffffffffffffffffffffffffffffffffff166124b090919063ffffffff16565b9050600061198c828361290e90919063ffffffff16565b905060006119ca6c010000000000000000000000006119bc670de0b6b3a76400008561290e90919063ffffffff16565b6124b090919063ffffffff16565b9050809b505050505050505050505050919050565b6119e7612d8f565b60006119f283610920565b90506000600960008381526020019081526020016000206000015414611a4d576040517f08c379a0000000000000000000000000000000000000000000000000000000008152600401611a4490613fc6565b60405180910390fd5b6000544201811015611a94576040517f08c379a0000000000000000000000000000000000000000000000000000000008152600401611a8b90614046565b60405180910390fd5b806009600083815260200190815260200160002060000181905550600a819080600181540180825580915050600190039060005260206000200160009091909190915055600960008281526020019081526020016000206040518060a0016040529081600082015481526020016001820154815260200160028201805480602002602001604051908101604052809291908181526020018280548015611b5957602002820191906000526020600020905b815481526020019060010190808311611b45575b505050505081526020016003820160009054906101000a900473ffffffffffffffffffffffffffffffffffffffff1673ffffffffffffffffffffffffffffffffffffffff1673ffffffffffffffffffffffffffffffffffffffff1681526020016003820160149054906101000a900460ff161515151581525050915050919050565b611be3612d6e565b6000611bf38560000151846110ff565b905060008111611c38576040517f08c379a0000000000000000000000000000000000000000000000000000000008152600401611c2f90614146565b60405180910390fd5b80600760009054906101000a900473ffffffffffffffffffffffffffffffffffffffff1673ffffffffffffffffffffffffffffffffffffffff1663dd62ed3e33306040518363ffffffff1660e01b8152600401611c96929190613e44565b60206040518083038186803b158015611cae57600080fd5b505afa158015611cc2573d6000803e3d6000fd5b505050506040513d601f19601f82011682018060405250810190611ce691906133ee565b1015611d27576040517f08c379a0000000000000000000000000000000000000000000000000000000008152600401611d1e906140e6565b60405180910390fd5b600760009054906101000a900473ffffffffffffffffffffffffffffffffffffffff1673ffffffffffffffffffffffffffffffffffffffff166323b872dd3330846040518463ffffffff1660e01b8152600401611d8693929190613e6d565b602060405180830381600087803b158015611da057600080fd5b505af1158015611db4573d6000803e3d6000fd5b505050506040513d601f19601f82011682018060405250810190611dd891906132c6565b50611de6858533868561297e565b9150509392505050565b611df8612d6e565b826040015160018460400151510381518110611e1057fe5b602002602001015160400151821415611e5e576040517f08c379a0000000000000000000000000000000000000000000000000000000008152600401611e5590613fe6565b60405180910390fd5b6000611e6e8460000151846110ff565b90506000611ea38560000151866040015160018860400151510381518110611e9257fe5b6020026020010151604001516110ff565b905060008211611ee8576040517f08c379a0000000000000000000000000000000000000000000000000000000008152600401611edf90614146565b60405180910390fd5b8082111561209a57808203600760009054906101000a900473ffffffffffffffffffffffffffffffffffffffff1673ffffffffffffffffffffffffffffffffffffffff1663dd62ed3e33306040518363ffffffff1660e01b8152600401611f50929190613e44565b60206040518083038186803b158015611f6857600080fd5b505afa158015611f7c573d6000803e3d6000fd5b505050506040513d601f19601f82011682018060405250810190611fa091906133ee565b1015611fe1576040517f08c379a0000000000000000000000000000000000000000000000000000000008152600401611fd8906140e6565b60405180910390fd5b600760009054906101000a900473ffffffffffffffffffffffffffffffffffffffff1673ffffffffffffffffffffffffffffffffffffffff166323b872dd33308486036040518463ffffffff1660e01b815260040161204293929190613e6d565b602060405180830381600087803b15801561205c57600080fd5b505af1158015612070573d6000803e3d6000fd5b505050506040513d601f19601f8201168201806040525081019061209491906132c6565b5061214d565b600760009054906101000a900473ffffffffffffffffffffffffffffffffffffffff1673ffffffffffffffffffffffffffffffffffffffff1663a9059cbb338484036040518363ffffffff1660e01b81526004016120f9929190613ea4565b602060405180830381600087803b15801561211357600080fd5b505af1158015612127573d6000803e3d6000fd5b505050506040513d601f19601f8201168201806040525081019061214b91906132c6565b505b61215c85338685868603612bbd565b9250505092915050565b61216e612d6e565b600061217e8560000151846110ff565b9050600081116121c3576040517f08c379a00000000000000000000000000000000000000000000000000000000081526004016121ba90614146565b60405180910390fd5b828101600760009054906101000a900473ffffffffffffffffffffffffffffffffffffffff1673ffffffffffffffffffffffffffffffffffffffff1663dd62ed3e33306040518363ffffffff1660e01b8152600401612223929190613e44565b60206040518083038186803b15801561223b57600080fd5b505afa15801561224f573d6000803e3d6000fd5b505050506040513d601f19601f8201168201806040525081019061227391906133ee565b10156122b4576040517f08c379a00000000000000000000000000000000000000000000000000000000081526004016122ab906140e6565b60405180910390fd5b600760009054906101000a900473ffffffffffffffffffffffffffffffffffffffff1673ffffffffffffffffffffffffffffffffffffffff166323b872dd33308685016040518463ffffffff1660e01b815260040161231593929190613e6d565b602060405180830381600087803b15801561232f57600080fd5b505af1158015612343573d6000803e3d6000fd5b505050506040513d601f19601f8201168201806040525081019061236791906132c6565b50600061239b866000015187604001516001896040015151038151811061238a57fe5b6020026020010151604001516110ff565b9050600760009054906101000a900473ffffffffffffffffffffffffffffffffffffffff1673ffffffffffffffffffffffffffffffffffffffff1663a9059cbb8760400151600189604001515103815181106123f357fe5b60200260200101516020015184848a6040015160018c6040015151038151811061241957fe5b60200260200101516040015101036040518363ffffffff1660e01b8152600401612444929190613ecd565b602060405180830381600087803b15801561245e57600080fd5b505af1158015612472573d6000803e3d6000fd5b505050506040513d601f19601f8201168201806040525081019061249691906132c6565b506124a5868686856000612bbd565b925050509392505050565b60008082116124f4576040517f08c379a00000000000000000000000000000000000000000000000000000000081526004016124eb90614066565b60405180910390fd5b8183816124fd57fe5b04905092915050565b60008060008360020b1261251d578260020b612525565b8260020b6000035b90507ffffffffffffffffffffffffffffffffffffffffffffffffffffffffffff2761860000360020b811115612590576040517f08c379a0000000000000000000000000000000000000000000000000000000008152600401612587906140a6565b60405180910390fd5b6000806001831614156125b4577001000000000000000000000000000000006125c6565b6ffffcb933bd6fad37aa2d162d1a5940015b70ffffffffffffffffffffffffffffffffff169050600060028316146126005760806ffff97272373d413259a46990580e213a8202901c90505b600060048316146126255760806ffff2e50f5f656932ef12357cf3c7fdcc8202901c90505b6000600883161461264a5760806fffe5caca7e10e4e61c3624eaa0941cd08202901c90505b6000601083161461266f5760806fffcb9843d60f6159c9db58835c9266448202901c90505b600060208316146126945760806fff973b41fa98c081472e6896dfb254c08202901c90505b600060408316146126b95760806fff2ea16466c96a3843ec78b326b528618202901c90505b600060808316146126de5760806ffe5dee046a99a2a811c461f1969c30538202901c90505b60006101008316146127045760806ffcbe86c7900a88aedcffc83b479aa3a48202901c90505b600061020083161461272a5760806ff987a7253ac413176f2b074cf7815e548202901c90505b60006104008316146127505760806ff3392b0822b70005940c7a398e4b70f38202901c90505b60006108008316146127765760806fe7159475a2c29b7443b29c7fa6e889d98202901c90505b600061100083161461279c5760806fd097f3bdfd2022b8845ad8f792aa58258202901c90505b60006120008316146127c25760806fa9f746462d870fdf8a65dc1f90e061e58202901c90505b60006140008316146127e85760806f70d869a156d2a1b890bb3df62baf32f78202901c90505b600061800083161461280e5760806f31be135f97d08fd981231505542fcfa68202901c90505b6000620100008316146128355760806f09aa508b5b7a84e1c677de54f3e99bc98202901c90505b60006202000083161461285b5760806e5d6af8dedb81196699c329225ee6048202901c90505b6000620400008316146128805760806d2216e584f5fa1ea926041bedfe988202901c90505b6000620800008316146128a35760806b048a170391f7dc42444e8fa28202901c90505b60008460020b13156128dc57807fffffffffffffffffffffffffffffffffffffffffffffffffffffffffffffffff816128d857fe5b0490505b600064010000000082816128ec57fe5b06146128f95760016128fc565b60005b60ff16602082901c0192505050919050565b6000808314156129215760009050612978565b600082840290508284828161293257fe5b0414612973576040517f08c379a000000000000000000000000000000000000000000000000000000000815260040161296a906140c6565b60405180910390fd5b809150505b92915050565b612986612d6e565b600061299186610c80565b90506000600b60008960000151815260200190815260200160002060008381526020019081526020016000206001015414612a01576040517f08c379a00000000000000000000000000000000000000000000000000000000081526004016129f890614006565b60405180910390fd5b60008411612a44576040517f08c379a0000000000000000000000000000000000000000000000000000000008152600401612a3b90614026565b60405180910390fd5b60008311612a87576040517f08c379a0000000000000000000000000000000000000000000000000000000008152600401612a7e90614086565b60405180910390fd5b612a8f612dd6565b6040518060a001604052804281526020018773ffffffffffffffffffffffffffffffffffffffff168152602001868152602001858152602001600081525090506060600167ffffffffffffffff81118015612ae957600080fd5b50604051908082528060200260200182016040528015612b2357816020015b612b10612dd6565b815260200190600190039081612b085790505b5090508181600081518110612b3457fe5b6020026020010181905250612b47612d6e565b60405180606001604052808b600001518152602001858152602001838152509050600960008b600001518152602001908152602001600020600201816020015190806001815401808255809150506001900390600052602060002001600090919091909150558094505050505095945050505050565b612bc5612d6e565b600086602001511415612c0d576040517f08c379a0000000000000000000000000000000000000000000000000000000008152600401612c0490614186565b60405180910390fd5b60008411612c50576040517f08c379a0000000000000000000000000000000000000000000000000000000008152600401612c4790614026565b60405180910390fd5b612c58612dd6565b6040518060a001604052804281526020018773ffffffffffffffffffffffffffffffffffffffff168152602001868152602001858152602001848152509050600b6000886000015181526020019081526020016000206000886020015181526020019081526020016000206002018190806001815401808255809150506001900390600052602060002090600502016000909190919091506000820151816000015560208201518160010160006101000a81548173ffffffffffffffffffffffffffffffffffffffff021916908373ffffffffffffffffffffffffffffffffffffffff16021790555060408201518160020155606082015181600301556080820151816004015550508691505095945050505050565b60405180606001604052806000815260200160008152602001606081525090565b6040518060a00160405280600081526020016000815260200160608152602001600073ffffffffffffffffffffffffffffffffffffffff1681526020016000151581525090565b6040518060a0016040528060008152602001600073ffffffffffffffffffffffffffffffffffffffff1681526020016000815260200160008152602001600081525090565b600081359050612e2a81614655565b92915050565b600082601f830112612e4157600080fd5b8151612e54612e4f826142c2565b614295565b91508181835260208401935060208101905083856020840282011115612e7957600080fd5b60005b83811015612ea95781612e8f8882613066565b845260208401935060208301925050600181019050612e7c565b5050505092915050565b600082601f830112612ec457600080fd5b8135612ed7612ed2826142ea565b614295565b915081818352602084019350602081019050838560a0840282011115612efc57600080fd5b60005b83811015612f2c5781612f12888261311b565b845260208401935060a08301925050600181019050612eff565b5050505092915050565b600082601f830112612f4757600080fd5b8151612f5a612f5582614312565b614295565b91508181835260208401935060208101905083856020840282011115612f7f57600080fd5b60005b83811015612faf5781612f95888261321b565b845260208401935060208301925050600181019050612f82565b5050505092915050565b600082601f830112612fca57600080fd5b8135612fdd612fd88261433a565b614295565b9150818183526020840193506020810190508385602084028201111561300257600080fd5b60005b8381101561303257816130188882613230565b845260208401935060208301925050600181019050613005565b5050505092915050565b60008135905061304b8161466c565b92915050565b6000815190506130608161466c565b92915050565b60008151905061307581614683565b92915050565b600060a0828403121561308d57600080fd5b61309760a0614295565b905060006130a784828501613230565b60008301525060206130bb84828501613230565b602083015250604082013567ffffffffffffffff8111156130db57600080fd5b6130e784828501612fb9565b60408301525060606130fb84828501612e1b565b606083015250608061310f8482850161303c565b60808301525092915050565b600060a0828403121561312d57600080fd5b61313760a0614295565b9050600061314784828501613230565b600083015250602061315b84828501612e1b565b602083015250604061316f84828501613230565b604083015250606061318384828501613230565b606083015250608061319784828501613230565b60808301525092915050565b6000606082840312156131b557600080fd5b6131bf6060614295565b905060006131cf84828501613230565b60008301525060206131e384828501613230565b602083015250604082013567ffffffffffffffff81111561320357600080fd5b61320f84828501612eb3565b60408301525092915050565b60008151905061322a8161469a565b92915050565b60008135905061323f816146b1565b92915050565b600081519050613254816146b1565b92915050565b6000806040838503121561326d57600080fd5b600083015167ffffffffffffffff81111561328757600080fd5b61329385828601612e30565b925050602083015167ffffffffffffffff8111156132b057600080fd5b6132bc85828601612f36565b9150509250929050565b6000602082840312156132d857600080fd5b60006132e684828501613051565b91505092915050565b60006020828403121561330157600080fd5b600082013567ffffffffffffffff81111561331b57600080fd5b6133278482850161307b565b91505092915050565b6000806040838503121561334357600080fd5b600083013567ffffffffffffffff81111561335d57600080fd5b6133698582860161307b565b925050602061337a85828601613230565b9150509250929050565b60006020828403121561339657600080fd5b600082013567ffffffffffffffff8111156133b057600080fd5b6133bc848285016131a3565b91505092915050565b6000602082840312156133d757600080fd5b60006133e584828501613230565b91505092915050565b60006020828403121561340057600080fd5b600061340e84828501613245565b91505092915050565b6000806040838503121561342a57600080fd5b600061343885828601613230565b925050602061344985828601613230565b9150509250929050565b60008060006060848603121561346857600080fd5b600061347686828701613230565b935050602061348786828701613230565b925050604061349886828701613230565b9150509250925092565b60006134ae8383613d44565b60a08301905092915050565b60006134c68383613dfc565b60208301905092915050565b60006134de8383613e1a565b60208301905092915050565b6134f38161451e565b82525050565b61350281614493565b82525050565b61351181614493565b82525050565b6000613522826143a7565b61352c8185614407565b935061353783614362565b8060005b8381101561356857815161354f88826134a2565b975061355a836143d3565b92505060018101905061353b565b5085935050505092915050565b6000613580826143b2565b61358a8185614418565b935061359583614372565b8060005b838110156135c65781516135ad88826134ba565b97506135b8836143e0565b925050600181019050613599565b5085935050505092915050565b60006135de826143b2565b6135e88185614429565b93506135f383614372565b8060005b8381101561362457815161360b88826134ba565b9750613616836143e0565b9250506001810190506135f7565b5085935050505092915050565b600061363c826143bd565b6136468185614418565b935061365183614382565b8060005b83811015613689576136668261460e565b61367088826134ba565b975061367b836143ed565b925050600181019050613655565b5085935050505092915050565b60006136a1826143c8565b6136ab818561443a565b93506136b683614397565b8060005b838110156136e75781516136ce88826134d2565b97506136d9836143fa565b9250506001810190506136ba565b5085935050505092915050565b6136fd816144a5565b82525050565b61370c816144a5565b82525050565b61371b81614530565b82525050565b61372a81614554565b82525050565b61373981614578565b82525050565b6137488161458a565b82525050565b600061375b60288361444b565b91507f4f6e6c79206f776e65722063616e207769746864726177206163636f756e746960008301527f6e6720746f6b656e0000000000000000000000000000000000000000000000006020830152604082019050919050565b60006137c160148361444b565b91507f4672616d6520616c7265616479206578697374730000000000000000000000006000830152602082019050919050565b600061380160198361444b565b91507f50726963652068617320746f20626520646966666572656e74000000000000006000830152602082019050919050565b600061384160128361444b565b91507f4c6f7420616c72656164792065786973747300000000000000000000000000006000830152602082019050919050565b6000613881602a8361444b565b91507f4163717569736974696f6e2070726963652068617320746f206265206772656160008301527f746572207468616e2030000000000000000000000000000000000000000000006020830152604082019050919050565b60006138e7601e8361444b565b91507f43616e277420637265617465206672616d6520696e20746865207061737400006000830152602082019050919050565b6000613927601a8361444b565b91507f536166654d6174683a206469766973696f6e206279207a65726f0000000000006000830152602082019050919050565b600061396760248361444b565b91507f54617820636861726765642068617320746f206265206772656174657220746860008301527f616e2030000000000000000000000000000000000000000000000000000000006020830152604082019050919050565b60006139cd60018361444b565b91507f54000000000000000000000000000000000000000000000000000000000000006000830152602082019050919050565b6000613a0d60218361444b565b91507f536166654d6174683a206d756c7469706c69636174696f6e206f766572666c6f60008301527f77000000000000000000000000000000000000000000000000000000000000006020830152604082019050919050565b6000613a73601e8361444b565b91507f416c6c6f77616e636520746f207370656e642073657420746f6f206c6f7700006000830152602082019050919050565b6000613ab360278361444b565b91507f4f6e6c79206f776e65722063616e20757064617465206672616d6520636c6f7360008301527f65207072696365000000000000000000000000000000000000000000000000006020830152604082019050919050565b6000613b1960208361444b565b91507f4672616d65207265776172642077617320616c726561647920636c61696d65646000830152602082019050919050565b6000613b59603c8361444b565b91507f5461782068617320746f2062652067726561746572207468616e20302e20496e60008301527f63726561736520746865206163717569736974696f6e207072696365000000006020830152604082019050919050565b6000613bbf60138361444b565b91507f4672616d6520646f65736e2774206578697374000000000000000000000000006000830152602082019050919050565b6000613bff60118361444b565b91507f4c6f7420646f65736e27742065786973740000000000000000000000000000006000830152602082019050919050565b600060a083016000830151613c4a6000860182613dfc565b506020830151613c5d6020860182613dfc565b5060408301518482036040860152613c758282613575565b9150506060830151613c8a60608601826134f9565b506080830151613c9d60808601826136f4565b508091505092915050565b600060a083016000808401549050613cbf816145da565b613ccc6000870182613dfc565b5060018401549050613cdd816145da565b613cea6020870182613dfc565b50600284018583036040870152613d018382613631565b92505060038401549050613d14816145c0565b613d2160608701826134f9565b50613d2b816145f4565b613d3860808701826136f4565b50819250505092915050565b60a082016000820151613d5a6000850182613dfc565b506020820151613d6d60208501826134f9565b506040820151613d806040850182613dfc565b506060820151613d936060850182613dfc565b506080820151613da66080850182613dfc565b50505050565b6000606083016000830151613dc46000860182613dfc565b506020830151613dd76020860182613dfc565b5060408301518482036040860152613def8282613517565b9150508091505092915050565b613e0581614504565b82525050565b613e1481614504565b82525050565b613e238161450e565b82525050565b6000602082019050613e3e6000830184613508565b92915050565b6000604082019050613e5960008301856134ea565b613e666020830184613508565b9392505050565b6000606082019050613e8260008301866134ea565b613e8f6020830185613508565b613e9c6040830184613e0b565b949350505050565b6000604082019050613eb960008301856134ea565b613ec66020830184613e0b565b9392505050565b6000604082019050613ee26000830185613508565b613eef6020830184613e0b565b9392505050565b60006020820190508181036000830152613f1081846135d3565b905092915050565b60006020820190508181036000830152613f328184613696565b905092915050565b6000602082019050613f4f6000830184613712565b92915050565b6000602082019050613f6a6000830184613721565b92915050565b6000602082019050613f856000830184613730565b92915050565b6000602082019050613fa0600083018461373f565b92915050565b60006020820190508181036000830152613fbf8161374e565b9050919050565b60006020820190508181036000830152613fdf816137b4565b9050919050565b60006020820190508181036000830152613fff816137f4565b9050919050565b6000602082019050818103600083015261401f81613834565b9050919050565b6000602082019050818103600083015261403f81613874565b9050919050565b6000602082019050818103600083015261405f816138da565b9050919050565b6000602082019050818103600083015261407f8161391a565b9050919050565b6000602082019050818103600083015261409f8161395a565b9050919050565b600060208201905081810360008301526140bf816139c0565b9050919050565b600060208201905081810360008301526140df81613a00565b9050919050565b600060208201905081810360008301526140ff81613a66565b9050919050565b6000602082019050818103600083015261411f81613aa6565b9050919050565b6000602082019050818103600083015261413f81613b0c565b9050919050565b6000602082019050818103600083015261415f81613b4c565b9050919050565b6000602082019050818103600083015261417f81613bb2565b9050919050565b6000602082019050818103600083015261419f81613bf2565b9050919050565b600060208201905081810360008301526141c08184613c32565b905092915050565b600060208201905081810360008301526141e28184613ca8565b905092915050565b600060208201905081810360008301526142048184613dac565b905092915050565b60006020820190506142216000830184613e0b565b92915050565b600060408201905061423c6000830185613e0b565b6142496020830184613e0b565b9392505050565b60006080820190506142656000830187613e0b565b6142726020830186613e0b565b61427f6040830185613508565b61428c6060830184613703565b95945050505050565b6000604051905081810181811067ffffffffffffffff821117156142b857600080fd5b8060405250919050565b600067ffffffffffffffff8211156142d957600080fd5b602082029050602081019050919050565b600067ffffffffffffffff82111561430157600080fd5b602082029050602081019050919050565b600067ffffffffffffffff82111561432957600080fd5b602082029050602081019050919050565b600067ffffffffffffffff82111561435157600080fd5b602082029050602081019050919050565b6000819050602082019050919050565b6000819050602082019050919050565b60008190508160005260206000209050919050565b6000819050602082019050919050565b600081519050919050565b600081519050919050565b600081549050919050565b600081519050919050565b6000602082019050919050565b6000602082019050919050565b6000600182019050919050565b6000602082019050919050565b600082825260208201905092915050565b600082825260208201905092915050565b600082825260208201905092915050565b600082825260208201905092915050565b600082825260208201905092915050565b600073ffffffffffffffffffffffffffffffffffffffff82169050919050565b600060ff82169050919050565b6000819050919050565b600061449e826144e4565b9050919050565b60008115159050919050565b60008190506144bf8261463b565b919050565b60008190506144d282614648565b919050565b60008160060b9050919050565b600073ffffffffffffffffffffffffffffffffffffffff82169050919050565b6000819050919050565b600063ffffffff82169050919050565b60006145298261459c565b9050919050565b600061453b82614542565b9050919050565b600061454d826144e4565b9050919050565b600061455f82614566565b9050919050565b6000614571826144e4565b9050919050565b6000614583826144b1565b9050919050565b6000614595826144c4565b9050919050565b60006145a7826145ae565b9050919050565b60006145b9826144e4565b9050919050565b60006145d36145ce83614621565b61445c565b9050919050565b60006145ed6145e883614621565b614489565b9050919050565b60006146076146028361462e565b61447c565b9050919050565b600061461a82546145da565b9050919050565b60008160001c9050919050565b60008160a01c9050919050565b6006811061464557fe5b50565b6004811061465257fe5b50565b61465e81614493565b811461466957600080fd5b50565b614675816144a5565b811461468057600080fd5b50565b61468c816144d7565b811461469757600080fd5b50565b6146a3816144e4565b81146146ae57600080fd5b50565b6146ba81614504565b81146146c557600080fd5b5056fea26469706673582212201f768e7ded16c352b115cabcb330dc1d1c8afbd5e20cb21c5c9e6bbfa8d6229d64736f6c63430007000033",
  "linkReferences": {},
  "deployedLinkReferences": {}
}