{
  "_format": "hh-sol-artifact-1",
  "contractName": "Market",
  "sourceName": "contracts/NewMarket.sol",
  "abi": [
    {
      "inputs": [],
      "stateMutability": "nonpayable",
      "type": "constructor"
    },
    {
      "anonymous": false,
      "inputs": [
        {
          "components": [
            {
              "internalType": "uint256",
              "name": "frameKey",
              "type": "uint256"
            },
            {
              "internalType": "uint256",
              "name": "rate",
              "type": "uint256"
            },
            {
              "internalType": "uint256[]",
              "name": "lotKeys",
              "type": "uint256[]"
            },
            {
              "internalType": "address",
              "name": "rewardClaimedBy",
              "type": "address"
            }
          ],
          "indexed": false,
          "internalType": "struct Market.Frame",
          "name": "frame",
          "type": "tuple"
        }
      ],
      "name": "FrameUpdate",
      "type": "event"
    },
    {
      "anonymous": false,
      "inputs": [
        {
          "components": [
            {
              "internalType": "uint256",
              "name": "frameKey",
              "type": "uint256"
            },
            {
              "internalType": "uint256",
              "name": "lotKey",
              "type": "uint256"
            },
            {
              "components": [
                {
                  "internalType": "uint256",
                  "name": "timestamp",
                  "type": "uint256"
                },
                {
                  "internalType": "address",
                  "name": "owner",
                  "type": "address"
                },
                {
                  "internalType": "uint256",
                  "name": "acquisitionPrice",
                  "type": "uint256"
                },
                {
                  "internalType": "uint256",
                  "name": "feeCharged",
                  "type": "uint256"
                },
                {
                  "internalType": "uint256",
                  "name": "taxCharged",
                  "type": "uint256"
                },
                {
                  "internalType": "uint256",
                  "name": "taxRefunded",
                  "type": "uint256"
                }
              ],
              "internalType": "struct Market.LotState[]",
              "name": "states",
              "type": "tuple[]"
            }
          ],
          "indexed": false,
          "internalType": "struct Market.Lot",
          "name": "lot",
          "type": "tuple"
        }
      ],
      "name": "LotUpdate",
      "type": "event"
    },
    {
      "inputs": [],
      "name": "accountingToken",
      "outputs": [
        {
          "internalType": "contract IERC20",
          "name": "",
          "type": "address"
        }
      ],
      "stateMutability": "view",
      "type": "function"
    },
    {
      "inputs": [
        {
          "internalType": "uint256",
          "name": "frameKey",
          "type": "uint256"
        },
        {
          "internalType": "uint256",
          "name": "acquisitionPrice",
          "type": "uint256"
        }
      ],
      "name": "clcFee",
      "outputs": [
        {
          "internalType": "uint256",
          "name": "fee",
          "type": "uint256"
        }
      ],
      "stateMutability": "view",
      "type": "function"
    },
    {
      "inputs": [
        {
          "internalType": "uint256",
          "name": "timestamp",
          "type": "uint256"
        }
      ],
      "name": "clcFrameKey",
      "outputs": [
        {
          "internalType": "uint256",
          "name": "",
          "type": "uint256"
        }
      ],
      "stateMutability": "view",
      "type": "function"
    },
    {
      "inputs": [
        {
          "internalType": "uint256",
          "name": "value",
          "type": "uint256"
        }
      ],
      "name": "clcLotKey",
      "outputs": [
        {
          "internalType": "uint256",
          "name": "",
          "type": "uint256"
        }
      ],
      "stateMutability": "view",
      "type": "function"
    },
    {
      "inputs": [
        {
          "internalType": "uint256",
          "name": "timestamp",
          "type": "uint256"
        }
      ],
      "name": "clcRateAvg",
      "outputs": [
        {
          "internalType": "uint256",
          "name": "",
          "type": "uint256"
        }
      ],
      "stateMutability": "view",
      "type": "function"
    },
    {
      "inputs": [
        {
          "components": [
            {
              "internalType": "uint256",
              "name": "frameKey",
              "type": "uint256"
            },
            {
              "internalType": "uint256",
              "name": "rate",
              "type": "uint256"
            },
            {
              "internalType": "uint256[]",
              "name": "lotKeys",
              "type": "uint256[]"
            },
            {
              "internalType": "address",
              "name": "rewardClaimedBy",
              "type": "address"
            }
          ],
          "internalType": "struct Market.Frame",
          "name": "frame",
          "type": "tuple"
        }
      ],
      "name": "clcRewardFund",
      "outputs": [
        {
          "internalType": "uint256",
          "name": "",
          "type": "uint256"
        }
      ],
      "stateMutability": "view",
      "type": "function"
    },
    {
      "inputs": [
        {
          "internalType": "uint256",
          "name": "frameKey",
          "type": "uint256"
        },
        {
          "internalType": "uint256",
          "name": "acquisitionPrice",
          "type": "uint256"
        }
      ],
      "name": "clcTax",
      "outputs": [
        {
          "internalType": "uint256",
          "name": "tax",
          "type": "uint256"
        }
      ],
      "stateMutability": "view",
      "type": "function"
    },
    {
      "inputs": [],
      "name": "dPrice",
      "outputs": [
        {
          "internalType": "uint256",
          "name": "",
          "type": "uint256"
        }
      ],
      "stateMutability": "view",
      "type": "function"
    },
    {
      "inputs": [],
      "name": "feeProtocol",
      "outputs": [
        {
          "internalType": "uint256",
          "name": "",
          "type": "uint256"
        }
      ],
      "stateMutability": "view",
      "type": "function"
    },
    {
      "inputs": [
        {
          "internalType": "uint256",
          "name": "",
          "type": "uint256"
        }
      ],
      "name": "frames",
      "outputs": [
        {
          "internalType": "uint256",
          "name": "frameKey",
          "type": "uint256"
        },
        {
          "internalType": "uint256",
          "name": "rate",
          "type": "uint256"
        },
        {
          "internalType": "address",
          "name": "rewardClaimedBy",
          "type": "address"
        }
      ],
      "stateMutability": "view",
      "type": "function"
    },
    {
      "inputs": [
        {
          "internalType": "uint256",
          "name": "",
          "type": "uint256"
        }
      ],
      "name": "framesKeys",
      "outputs": [
        {
          "internalType": "uint256",
          "name": "",
          "type": "uint256"
        }
      ],
      "stateMutability": "view",
      "type": "function"
    },
    {
      "inputs": [
        {
          "internalType": "uint256",
          "name": "frameKey",
          "type": "uint256"
        }
      ],
      "name": "getFrame",
      "outputs": [
        {
          "components": [
            {
              "internalType": "uint256",
              "name": "frameKey",
              "type": "uint256"
            },
            {
              "internalType": "uint256",
              "name": "rate",
              "type": "uint256"
            },
            {
              "internalType": "uint256[]",
              "name": "lotKeys",
              "type": "uint256[]"
            },
            {
              "internalType": "address",
              "name": "rewardClaimedBy",
              "type": "address"
            }
          ],
          "internalType": "struct Market.Frame",
          "name": "",
          "type": "tuple"
        }
      ],
      "stateMutability": "view",
      "type": "function"
    },
    {
      "inputs": [
        {
          "internalType": "uint256",
          "name": "frameKey",
          "type": "uint256"
        },
        {
          "internalType": "uint256",
          "name": "lotKey",
          "type": "uint256"
        }
      ],
      "name": "getLot",
      "outputs": [
        {
          "components": [
            {
              "internalType": "uint256",
              "name": "frameKey",
              "type": "uint256"
            },
            {
              "internalType": "uint256",
              "name": "lotKey",
              "type": "uint256"
            },
            {
              "components": [
                {
                  "internalType": "uint256",
                  "name": "timestamp",
                  "type": "uint256"
                },
                {
                  "internalType": "address",
                  "name": "owner",
                  "type": "address"
                },
                {
                  "internalType": "uint256",
                  "name": "acquisitionPrice",
                  "type": "uint256"
                },
                {
                  "internalType": "uint256",
                  "name": "feeCharged",
                  "type": "uint256"
                },
                {
                  "internalType": "uint256",
                  "name": "taxCharged",
                  "type": "uint256"
                },
                {
                  "internalType": "uint256",
                  "name": "taxRefunded",
                  "type": "uint256"
                }
              ],
              "internalType": "struct Market.LotState[]",
              "name": "states",
              "type": "tuple[]"
            }
          ],
          "internalType": "struct Market.Lot",
          "name": "",
          "type": "tuple"
        }
      ],
      "stateMutability": "view",
      "type": "function"
    },
    {
      "inputs": [
        {
          "internalType": "uint256",
          "name": "frameKey",
          "type": "uint256"
        }
      ],
      "name": "getLotsKeysInFrame",
      "outputs": [
        {
          "internalType": "uint256[]",
          "name": "",
          "type": "uint256[]"
        }
      ],
      "stateMutability": "view",
      "type": "function"
    },
    {
      "inputs": [
        {
          "components": [
            {
              "internalType": "uint256",
              "name": "frameKey",
              "type": "uint256"
            },
            {
              "internalType": "uint256",
              "name": "rate",
              "type": "uint256"
            },
            {
              "internalType": "uint256[]",
              "name": "lotKeys",
              "type": "uint256[]"
            },
            {
              "internalType": "address",
              "name": "rewardClaimedBy",
              "type": "address"
            }
          ],
          "internalType": "struct Market.Frame",
          "name": "frame",
          "type": "tuple"
        }
      ],
      "name": "getStateFrame",
      "outputs": [
        {
          "internalType": "enum Market.SFrame",
          "name": "",
          "type": "uint8"
        }
      ],
      "stateMutability": "view",
      "type": "function"
    },
    {
      "inputs": [
        {
          "components": [
            {
              "internalType": "uint256",
              "name": "frameKey",
              "type": "uint256"
            },
            {
              "internalType": "uint256",
              "name": "lotKey",
              "type": "uint256"
            },
            {
              "components": [
                {
                  "internalType": "uint256",
                  "name": "timestamp",
                  "type": "uint256"
                },
                {
                  "internalType": "address",
                  "name": "owner",
                  "type": "address"
                },
                {
                  "internalType": "uint256",
                  "name": "acquisitionPrice",
                  "type": "uint256"
                },
                {
                  "internalType": "uint256",
                  "name": "feeCharged",
                  "type": "uint256"
                },
                {
                  "internalType": "uint256",
                  "name": "taxCharged",
                  "type": "uint256"
                },
                {
                  "internalType": "uint256",
                  "name": "taxRefunded",
                  "type": "uint256"
                }
              ],
              "internalType": "struct Market.LotState[]",
              "name": "states",
              "type": "tuple[]"
            }
          ],
          "internalType": "struct Market.Lot",
          "name": "lot",
          "type": "tuple"
        }
      ],
      "name": "getStateLot",
      "outputs": [
        {
          "internalType": "enum Market.SLot",
          "name": "",
          "type": "uint8"
        }
      ],
      "stateMutability": "view",
      "type": "function"
    },
    {
      "inputs": [],
      "name": "initTimestamp",
      "outputs": [
        {
          "internalType": "uint256",
          "name": "",
          "type": "uint256"
        }
      ],
      "stateMutability": "view",
      "type": "function"
    },
    {
      "inputs": [
        {
          "internalType": "uint256",
          "name": "",
          "type": "uint256"
        },
        {
          "internalType": "uint256",
          "name": "",
          "type": "uint256"
        }
      ],
      "name": "lots",
      "outputs": [
        {
          "internalType": "uint256",
          "name": "frameKey",
          "type": "uint256"
        },
        {
          "internalType": "uint256",
          "name": "lotKey",
          "type": "uint256"
        }
      ],
      "stateMutability": "view",
      "type": "function"
    },
    {
      "inputs": [
        {
          "components": [
            {
              "internalType": "uint256",
              "name": "frameKey",
              "type": "uint256"
            },
            {
              "internalType": "uint256",
              "name": "rate",
              "type": "uint256"
            },
            {
              "internalType": "uint256[]",
              "name": "lotKeys",
              "type": "uint256[]"
            },
            {
              "internalType": "address",
              "name": "rewardClaimedBy",
              "type": "address"
            }
          ],
          "internalType": "struct Market.Frame",
          "name": "frame",
          "type": "tuple"
        },
        {
          "internalType": "uint256",
          "name": "avgPrice",
          "type": "uint256"
        }
      ],
      "name": "overrideFrameRate",
      "outputs": [],
      "stateMutability": "nonpayable",
      "type": "function"
    },
    {
      "inputs": [],
      "name": "owner",
      "outputs": [
        {
          "internalType": "address",
          "name": "",
          "type": "address"
        }
      ],
      "stateMutability": "view",
      "type": "function"
    },
    {
      "inputs": [],
      "name": "period",
      "outputs": [
        {
          "internalType": "uint256",
          "name": "",
          "type": "uint256"
        }
      ],
      "stateMutability": "view",
      "type": "function"
    },
    {
      "inputs": [
        {
          "internalType": "uint256",
          "name": "timestamp",
          "type": "uint256"
        },
        {
          "internalType": "uint256",
          "name": "rate",
          "type": "uint256"
        },
        {
          "internalType": "uint256",
          "name": "acquisitionPrice",
          "type": "uint256"
        }
      ],
      "name": "purchaseLot",
      "outputs": [
        {
          "components": [
            {
              "internalType": "uint256",
              "name": "frameKey",
              "type": "uint256"
            },
            {
              "internalType": "uint256",
              "name": "lotKey",
              "type": "uint256"
            },
            {
              "components": [
                {
                  "internalType": "uint256",
                  "name": "timestamp",
                  "type": "uint256"
                },
                {
                  "internalType": "address",
                  "name": "owner",
                  "type": "address"
                },
                {
                  "internalType": "uint256",
                  "name": "acquisitionPrice",
                  "type": "uint256"
                },
                {
                  "internalType": "uint256",
                  "name": "feeCharged",
                  "type": "uint256"
                },
                {
                  "internalType": "uint256",
                  "name": "taxCharged",
                  "type": "uint256"
                },
                {
                  "internalType": "uint256",
                  "name": "taxRefunded",
                  "type": "uint256"
                }
              ],
              "internalType": "struct Market.LotState[]",
              "name": "states",
              "type": "tuple[]"
            }
          ],
          "internalType": "struct Market.Lot",
          "name": "",
          "type": "tuple"
        }
      ],
      "stateMutability": "nonpayable",
      "type": "function"
    },
    {
      "inputs": [
        {
          "internalType": "uint256",
          "name": "frameKey",
          "type": "uint256"
        }
      ],
      "name": "setFrameRate",
      "outputs": [],
      "stateMutability": "nonpayable",
      "type": "function"
    },
    {
      "inputs": [],
      "name": "tReporting",
      "outputs": [
        {
          "internalType": "uint256",
          "name": "",
          "type": "uint256"
        }
      ],
      "stateMutability": "view",
      "type": "function"
    },
    {
      "inputs": [],
      "name": "taxMarket",
      "outputs": [
        {
          "internalType": "uint256",
          "name": "",
          "type": "uint256"
        }
      ],
      "stateMutability": "view",
      "type": "function"
    },
    {
      "inputs": [],
      "name": "uniswapPool",
      "outputs": [
        {
          "internalType": "contract IUniswapV3Pool",
          "name": "",
          "type": "address"
        }
      ],
      "stateMutability": "view",
      "type": "function"
    },
    {
      "inputs": [
        {
          "internalType": "uint256",
          "name": "amount",
          "type": "uint256"
        }
      ],
      "name": "withdrawAccountingToken",
      "outputs": [],
      "stateMutability": "nonpayable",
      "type": "function"
    }
  ],
  "bytecode": "0x608060405262015180600055636592e18060015566b1a2bc2ec500006002556102586003557367a9fe12fa6082d9d0203c84c6c56d3c4b269f28600460006101000a81548173ffffffffffffffffffffffffffffffffffffffff021916908373ffffffffffffffffffffffffffffffffffffffff16021790555068056bc75e2d631000006005556706f05b59d3b20000600655738f3cf7ad23cd3cadbd9735aff958023239c6a063600760006101000a81548173ffffffffffffffffffffffffffffffffffffffff021916908373ffffffffffffffffffffffffffffffffffffffff1602179055503480156100f357600080fd5b5033600860006101000a81548173ffffffffffffffffffffffffffffffffffffffff021916908373ffffffffffffffffffffffffffffffffffffffff16021790555061446d806101446000396000f3fe608060405234801561001057600080fd5b50600436106101a95760003560e01c80638da5cb5b116100f9578063e107fb4f11610097578063ef78d4fd11610071578063ef78d4fd14610547578063f553642e14610565578063ff5c86b014610595578063ffdabe2d146105b3576101a9565b8063e107fb4f146104cb578063e2c226d3146104fb578063e8e279db14610517576101a9565b8063b93dafa9116100d3578063b93dafa914610442578063bdd3d82514610473578063d18743dd14610491578063da68cf8b146104ad576101a9565b80638da5cb5b146103c25780639592de18146103e0578063a10340bc14610410576101a9565b806361eee2cb116101665780637358c57a116101405780637358c57a14610326578063773d51eb146103445780637e996639146103745780638aaf94be14610392576101a9565b806361eee2cb146102965780636a2727da146102c65780636f1aefc3146102f6576101a9565b8063050e8840146101ae5780630d0a1c1a146101de578063283010d21461020e5780633baf15871461023e578063499a0fc41461025a578063527eb4bc14610278575b600080fd5b6101c860048036038101906101c39190613125565b6105e3565b6040516101d59190613fbd565b60405180910390f35b6101f860048036038101906101f39190613125565b610604565b6040516102059190613c87565b60405180910390f35b6102286004803603810190610223919061304f565b610672565b6040516102359190613d01565b60405180910390f35b61025860048036038101906102539190613125565b610703565b005b6102626107d2565b60405161026f9190613fbd565b60405180910390f35b6102806107d8565b60405161028d9190613fbd565b60405180910390f35b6102b060048036038101906102ab9190613125565b6107de565b6040516102bd9190613fbd565b60405180910390f35b6102e060048036038101906102db919061304f565b61080d565b6040516102ed9190613fbd565b60405180910390f35b610310600480360381019061030b9190613177565b6109e9565b60405161031d9190613f9b565b60405180910390f35b61032e610b8e565b60405161033b9190613fbd565b60405180910390f35b61035e60048036038101906103599190613125565b610b94565b60405161036b9190613f57565b60405180910390f35b61037c610cdd565b6040516103899190613fbd565b60405180910390f35b6103ac60048036038101906103a791906130e4565b610ce3565b6040516103b99190613d1c565b60405180910390f35b6103ca611093565b6040516103d79190613bba565b60405180910390f35b6103fa60048036038101906103f59190613125565b6110b9565b6040516104079190613fbd565b60405180910390f35b61042a60048036038101906104259190613125565b6110e7565b60405161043993929190614001565b60405180910390f35b61045c60048036038101906104579190613177565b611131565b60405161046a929190613fd8565b60405180910390f35b61047b611162565b6040516104889190613ce6565b60405180910390f35b6104ab60048036038101906104a69190613125565b611188565b005b6104b56112ed565b6040516104c29190613ccb565b60405180910390f35b6104e560048036038101906104e09190613177565b611313565b6040516104f29190613fbd565b60405180910390f35b61051560048036038101906105109190613090565b61133a565b005b610531600480360381019061052c91906131b3565b6114a8565b60405161053e9190613f9b565b60405180910390f35b61054f611640565b60405161055c9190613fbd565b60405180910390f35b61057f600480360381019061057a9190613177565b611646565b60405161058c9190613fbd565b60405180910390f35b61059d61166d565b6040516105aa9190613fbd565b60405180910390f35b6105cd60048036038101906105c89190613125565b611673565b6040516105da9190613fbd565b60405180910390f35b600a81815481106105f057fe5b906000526020600020016000915090505481565b60606009600083815260200190815260200160002060020180548060200260200160405190810160405280929190818152602001828054801561066657602002820191906000526020600020905b815481526020019060010190808311610652575b50505050509050919050565b6000808260000151141561068957600090506106fe565b600073ffffffffffffffffffffffffffffffffffffffff16826060015173ffffffffffffffffffffffffffffffffffffffff16146106ca57600490506106fe565b6000548260000151014210156106e357600190506106fe565b6000826020015111156106f957600390506106fe565b600290505b919050565b600061070e82611673565b905060006009600084815260200190815260200160002060000154141561076a576040517f08c379a000000000000000000000000000000000000000000000000000000000815260040161076190613ef7565b60405180910390fd5b8060096000848152602001908152602001600020600101819055507fae3553295305bae4d9b98418434116d0d1c145f5fcad4aa68ea936b3651b6a44600960008481526020019081526020016000206040516107c69190613f79565b60405180910390a15050565b60055481565b60025481565b600060015482116107f3576001549050610808565b60005460015483038161080257fe5b06820390505b919050565b6000806000905060005b8360400151518110156109df5761082c612ae5565b600b60008660000151815260200190815260200160002060008660400151848151811061085557fe5b60200260200101518152602001908152602001600020604051806060016040529081600082015481526020016001820154815260200160028201805480602002602001604051908101604052809291908181526020016000905b8282101561096957838290600052602060002090600602016040518060c0016040529081600082015481526020016001820160009054906101000a900473ffffffffffffffffffffffffffffffffffffffff1673ffffffffffffffffffffffffffffffffffffffff1673ffffffffffffffffffffffffffffffffffffffff168152602001600282015481526020016003820154815260200160048201548152602001600582015481525050815260200190600101906108af565b5050505081525050905060005b8160400151518110156109d0578160400151818151811061099357fe5b60200260200101516080015184019350816040015181815181106109b357fe5b602002602001015160a00151840393508080600101915050610976565b50508080600101915050610817565b5080915050919050565b6109f1612ae5565b6000600b60008581526020019081526020016000206000848152602001908152602001600020600101541415610a5c576040517f08c379a0000000000000000000000000000000000000000000000000000000008152600401610a5390613f37565b60405180910390fd5b600b60008481526020019081526020016000206000838152602001908152602001600020604051806060016040529081600082015481526020016001820154815260200160028201805480602002602001604051908101604052809291908181526020016000905b82821015610b7e57838290600052602060002090600602016040518060c0016040529081600082015481526020016001820160009054906101000a900473ffffffffffffffffffffffffffffffffffffffff1673ffffffffffffffffffffffffffffffffffffffff1673ffffffffffffffffffffffffffffffffffffffff16815260200160028201548152602001600382015481526020016004820154815260200160058201548152505081526020019060010190610ac4565b5050505081525050905092915050565b60015481565b610b9c612b06565b600060096000848152602001908152602001600020600001541415610bf6576040517f08c379a0000000000000000000000000000000000000000000000000000000008152600401610bed90613ef7565b60405180910390fd5b60096000838152602001908152602001600020604051806080016040529081600082015481526020016001820154815260200160028201805480602002602001604051908101604052809291908181526020018280548015610c7757602002820191906000526020600020905b815481526020019060010190808311610c63575b505050505081526020016003820160009054906101000a900473ffffffffffffffffffffffffffffffffffffffff1673ffffffffffffffffffffffffffffffffffffffff1673ffffffffffffffffffffffffffffffffffffffff16815250509050919050565b60065481565b60008082602001511415610cfa576000905061108e565b60006004811115610d0757fe5b610df36009600085600001518152602001908152602001600020604051806080016040529081600082015481526020016001820154815260200160028201805480602002602001604051908101604052809291908181526020018280548015610d8f57602002820191906000526020600020905b815481526020019060010190808311610d7b575b505050505081526020016003820160009054906101000a900473ffffffffffffffffffffffffffffffffffffffff1673ffffffffffffffffffffffffffffffffffffffff1673ffffffffffffffffffffffffffffffffffffffff1681525050610672565b6004811115610dfe57fe5b1415610e0d576000905061108e565b60016004811115610e1a57fe5b610f066009600085600001518152602001908152602001600020604051806080016040529081600082015481526020016001820154815260200160028201805480602002602001604051908101604052809291908181526020018280548015610ea257602002820191906000526020600020905b815481526020019060010190808311610e8e575b505050505081526020016003820160009054906101000a900473ffffffffffffffffffffffffffffffffffffffff1673ffffffffffffffffffffffffffffffffffffffff1673ffffffffffffffffffffffffffffffffffffffff1681525050610672565b6004811115610f1157fe5b148061101e575060026004811115610f2557fe5b6110116009600085600001518152602001908152602001600020604051806080016040529081600082015481526020016001820154815260200160028201805480602002602001604051908101604052809291908181526020018280548015610fad57602002820191906000526020600020905b815481526020019060010190808311610f99575b505050505081526020016003820160009054906101000a900473ffffffffffffffffffffffffffffffffffffffff1673ffffffffffffffffffffffffffffffffffffffff1673ffffffffffffffffffffffffffffffffffffffff1681525050610672565b600481111561101c57fe5b145b1561102c576001905061108e565b81602001516009600084600001518152602001908152602001600020600101541015801561107b5750600554826020015101600960008460000151815260200190815260200160002060010154105b15611089576002905061108e565b600390505b919050565b600860009054906101000a900473ffffffffffffffffffffffffffffffffffffffff1681565b60006005548210156110cf5760055490506110e2565b60055460055483816110dd57fe5b040290505b919050565b60096020528060005260406000206000915090508060000154908060010154908060030160009054906101000a900473ffffffffffffffffffffffffffffffffffffffff16905083565b600b602052816000526040600020602052806000526040600020600091509150508060000154908060010154905082565b600460009054906101000a900473ffffffffffffffffffffffffffffffffffffffff1681565b600860009054906101000a900473ffffffffffffffffffffffffffffffffffffffff1673ffffffffffffffffffffffffffffffffffffffff163373ffffffffffffffffffffffffffffffffffffffff1614611218576040517f08c379a000000000000000000000000000000000000000000000000000000000815260040161120f90613d37565b60405180910390fd5b600760009054906101000a900473ffffffffffffffffffffffffffffffffffffffff1673ffffffffffffffffffffffffffffffffffffffff1663a9059cbb600860009054906101000a900473ffffffffffffffffffffffffffffffffffffffff16836040518363ffffffff1660e01b8152600401611297929190613c5e565b602060405180830381600087803b1580156112b157600080fd5b505af11580156112c5573d6000803e3d6000fd5b505050506040513d601f19601f820116820180604052508101906112e99190613026565b5050565b600760009054906101000a900473ffffffffffffffffffffffffffffffffffffffff1681565b60008060005483600654028161132557fe5b04905080426000548601030291505092915050565b600860009054906101000a900473ffffffffffffffffffffffffffffffffffffffff1673ffffffffffffffffffffffffffffffffffffffff163373ffffffffffffffffffffffffffffffffffffffff16146113ca576040517f08c379a00000000000000000000000000000000000000000000000000000000081526004016113c190613e97565b60405180910390fd5b600082600001511415611412576040517f08c379a000000000000000000000000000000000000000000000000000000000815260040161140990613ef7565b60405180910390fd5b600073ffffffffffffffffffffffffffffffffffffffff16826060015173ffffffffffffffffffffffffffffffffffffffff1614611485576040517f08c379a000000000000000000000000000000000000000000000000000000000815260040161147c90613eb7565b60405180910390fd5b806009600084600001518152602001908152602001600020600101819055505050565b6114b0612ae5565b60006114bb856107de565b90506114c5612b06565b6114ce82610b94565b905060008160000151141561153f576114e6866118df565b90506114f0612ae5565b6114fb828787611ac0565b90507f50aa7e9a015f26b07212a112633ce97b2359b12362f425f9bcef305fed145a2b8160405161152c9190613f9b565b60405180910390a1809350505050611639565b600081600001511461162d576000611556866110b9565b9050611560612ae5565b61156e8360000151836109e9565b9050611578612b44565b81604001516001836040015151038151811061159057fe5b60200260200101519050806020015173ffffffffffffffffffffffffffffffffffffffff163373ffffffffffffffffffffffffffffffffffffffff1614156115dd576115dc8288611d30565b5b806020015173ffffffffffffffffffffffffffffffffffffffff163373ffffffffffffffffffffffffffffffffffffffff16146116205761161f82338961220a565b5b8195505050505050611639565b60008160000151505050505b9392505050565b60005481565b60008060005483600254028161165857fe5b04905080426000548601030291505092915050565b60035481565b600080600354834203019050600083420390506060600267ffffffffffffffff811180156116a057600080fd5b506040519080825280602002602001820160405280156116cf5781602001602082028036833780820191505090505b50905082816000815181106116e057fe5b602002602001019063ffffffff16908163ffffffff1681525050818160018151811061170857fe5b602002602001019063ffffffff16908163ffffffff16815250506060600460009054906101000a900473ffffffffffffffffffffffffffffffffffffffff1673ffffffffffffffffffffffffffffffffffffffff1663883bdbfd836040518263ffffffff1660e01b815260040161177f9190613ca9565b60006040518083038186803b15801561179757600080fd5b505afa1580156117ab573d6000803e3d6000fd5b505050506040513d6000823e3d601f19601f820116820180604052508101906117d49190612fba565b5090506000816000815181106117e657fe5b602002602001015160060b826001815181106117fe57fe5b602002602001015160060b03905060008463ffffffff168663ffffffff160390506000611834828461220f90919063ffffffff16565b9050600061184182612265565b9050600061187566010000000000008373ffffffffffffffffffffffffffffffffffffffff1661220f90919063ffffffff16565b9050600061188c828361266d90919063ffffffff16565b905060006118ca6c010000000000000000000000006118bc670de0b6b3a76400008561266d90919063ffffffff16565b61220f90919063ffffffff16565b9050809b505050505050505050505050919050565b6118e7612b06565b60006118f2836107de565b9050600060096000838152602001908152602001600020600001541461194d576040517f08c379a000000000000000000000000000000000000000000000000000000000815260040161194490613d57565b60405180910390fd5b6000544201811015611994576040517f08c379a000000000000000000000000000000000000000000000000000000000815260040161198b90613dd7565b60405180910390fd5b806009600083815260200190815260200160002060000181905550600a81908060018154018082558091505060019003906000526020600020016000909190919091505560096000828152602001908152602001600020604051806080016040529081600082015481526020016001820154815260200160028201805480602002602001604051908101604052809291908181526020018280548015611a5957602002820191906000526020600020905b815481526020019060010190808311611a45575b505050505081526020016003820160009054906101000a900473ffffffffffffffffffffffffffffffffffffffff1673ffffffffffffffffffffffffffffffffffffffff1673ffffffffffffffffffffffffffffffffffffffff1681525050915050919050565b611ac8612ae5565b6000611ad8856000015184611313565b905060008111611b1d576040517f08c379a0000000000000000000000000000000000000000000000000000000008152600401611b1490613ed7565b60405180910390fd5b6000611b2d866000015185611646565b905060008111611b72576040517f08c379a0000000000000000000000000000000000000000000000000000000008152600401611b6990613f17565b60405180910390fd5b808201600760009054906101000a900473ffffffffffffffffffffffffffffffffffffffff1673ffffffffffffffffffffffffffffffffffffffff1663dd62ed3e33306040518363ffffffff1660e01b8152600401611bd2929190613bd5565b60206040518083038186803b158015611bea57600080fd5b505afa158015611bfe573d6000803e3d6000fd5b505050506040513d601f19601f82011682018060405250810190611c22919061314e565b1015611c63576040517f08c379a0000000000000000000000000000000000000000000000000000000008152600401611c5a90613e77565b60405180910390fd5b600760009054906101000a900473ffffffffffffffffffffffffffffffffffffffff1673ffffffffffffffffffffffffffffffffffffffff166323b872dd33308486016040518463ffffffff1660e01b8152600401611cc493929190613bfe565b602060405180830381600087803b158015611cde57600080fd5b505af1158015611cf2573d6000803e3d6000fd5b505050506040513d601f19601f82011682018060405250810190611d169190613026565b50611d258686338785876126dd565b925050509392505050565b816040015160018360400151510381518110611d4857fe5b602002602001015160400151811415611d96576040517f08c379a0000000000000000000000000000000000000000000000000000000008152600401611d8d90613d77565b60405180910390fd5b6000611da6836000015183611313565b90506000611ddb8460000151856040015160018760400151510381518110611dca57fe5b602002602001015160400151611313565b905060008211611e20576040517f08c379a0000000000000000000000000000000000000000000000000000000008152600401611e1790613ed7565b60405180910390fd5b6000611e30856000015185611646565b905060008111611e75576040517f08c379a0000000000000000000000000000000000000000000000000000000008152600401611e6c90613f17565b60405180910390fd5b81831115612038578082840301600760009054906101000a900473ffffffffffffffffffffffffffffffffffffffff1673ffffffffffffffffffffffffffffffffffffffff1663dd62ed3e33306040518363ffffffff1660e01b8152600401611edf929190613bd5565b60206040518083038186803b158015611ef757600080fd5b505afa158015611f0b573d6000803e3d6000fd5b505050506040513d601f19601f82011682018060405250810190611f2f919061314e565b1015611f70576040517f08c379a0000000000000000000000000000000000000000000000000000000008152600401611f6790613e77565b60405180910390fd5b600760009054906101000a900473ffffffffffffffffffffffffffffffffffffffff1673ffffffffffffffffffffffffffffffffffffffff166323b872dd333084868803016040518463ffffffff1660e01b8152600401611fd393929190613bfe565b602060405180830381600087803b158015611fed57600080fd5b505af1158015612001573d6000803e3d6000fd5b505050506040513d601f19601f820116820180604052508101906120259190613026565b506120368533868487888803612923565b505b8183116122035782820381111561213d578282038103600760009054906101000a900473ffffffffffffffffffffffffffffffffffffffff1673ffffffffffffffffffffffffffffffffffffffff1663dd62ed3e33306040518363ffffffff1660e01b81526004016120ab929190613bd5565b60206040518083038186803b1580156120c357600080fd5b505afa1580156120d7573d6000803e3d6000fd5b505050506040513d601f19601f820116820180604052508101906120fb919061314e565b101561213c576040517f08c379a000000000000000000000000000000000000000000000000000000000815260040161213390613e77565b60405180910390fd5b5b600760009054906101000a900473ffffffffffffffffffffffffffffffffffffffff1673ffffffffffffffffffffffffffffffffffffffff1663a9059cbb3383868603036040518363ffffffff1660e01b815260040161219e929190613c35565b602060405180830381600087803b1580156121b857600080fd5b505af11580156121cc573d6000803e3d6000fd5b505050506040513d601f19601f820116820180604052508101906121f09190613026565b506122018533868487888803612923565b505b5050505050565b505050565b6000808211612253576040517f08c379a000000000000000000000000000000000000000000000000000000000815260040161224a90613df7565b60405180910390fd5b81838161225c57fe5b04905092915050565b60008060008360020b1261227c578260020b612284565b8260020b6000035b90507ffffffffffffffffffffffffffffffffffffffffffffffffffffffffffff2761860000360020b8111156122ef576040517f08c379a00000000000000000000000000000000000000000000000000000000081526004016122e690613e37565b60405180910390fd5b60008060018316141561231357700100000000000000000000000000000000612325565b6ffffcb933bd6fad37aa2d162d1a5940015b70ffffffffffffffffffffffffffffffffff1690506000600283161461235f5760806ffff97272373d413259a46990580e213a8202901c90505b600060048316146123845760806ffff2e50f5f656932ef12357cf3c7fdcc8202901c90505b600060088316146123a95760806fffe5caca7e10e4e61c3624eaa0941cd08202901c90505b600060108316146123ce5760806fffcb9843d60f6159c9db58835c9266448202901c90505b600060208316146123f35760806fff973b41fa98c081472e6896dfb254c08202901c90505b600060408316146124185760806fff2ea16466c96a3843ec78b326b528618202901c90505b6000608083161461243d5760806ffe5dee046a99a2a811c461f1969c30538202901c90505b60006101008316146124635760806ffcbe86c7900a88aedcffc83b479aa3a48202901c90505b60006102008316146124895760806ff987a7253ac413176f2b074cf7815e548202901c90505b60006104008316146124af5760806ff3392b0822b70005940c7a398e4b70f38202901c90505b60006108008316146124d55760806fe7159475a2c29b7443b29c7fa6e889d98202901c90505b60006110008316146124fb5760806fd097f3bdfd2022b8845ad8f792aa58258202901c90505b60006120008316146125215760806fa9f746462d870fdf8a65dc1f90e061e58202901c90505b60006140008316146125475760806f70d869a156d2a1b890bb3df62baf32f78202901c90505b600061800083161461256d5760806f31be135f97d08fd981231505542fcfa68202901c90505b6000620100008316146125945760806f09aa508b5b7a84e1c677de54f3e99bc98202901c90505b6000620200008316146125ba5760806e5d6af8dedb81196699c329225ee6048202901c90505b6000620400008316146125df5760806d2216e584f5fa1ea926041bedfe988202901c90505b6000620800008316146126025760806b048a170391f7dc42444e8fa28202901c90505b60008460020b131561263b57807fffffffffffffffffffffffffffffffffffffffffffffffffffffffffffffffff8161263757fe5b0490505b6000640100000000828161264b57fe5b061461265857600161265b565b60005b60ff16602082901c0192505050919050565b60008083141561268057600090506126d7565b600082840290508284828161269157fe5b04146126d2576040517f08c379a00000000000000000000000000000000000000000000000000000000081526004016126c990613e57565b60405180910390fd5b809150505b92915050565b6126e5612ae5565b60006126f0876110b9565b90506000600b60008a60000151815260200190815260200160002060008381526020019081526020016000206001015414612760576040517f08c379a000000000000000000000000000000000000000000000000000000000815260040161275790613d97565b60405180910390fd5b600085116127a3576040517f08c379a000000000000000000000000000000000000000000000000000000000815260040161279a90613db7565b60405180910390fd5b600083116127e6576040517f08c379a00000000000000000000000000000000000000000000000000000000081526004016127dd90613e17565b60405180910390fd5b6127ee612b44565b6040518060c001604052804281526020018873ffffffffffffffffffffffffffffffffffffffff168152602001878152602001868152602001858152602001600081525090506060600167ffffffffffffffff8111801561284e57600080fd5b5060405190808252806020026020018201604052801561288857816020015b612875612b44565b81526020019060019003908161286d5790505b509050818160008151811061289957fe5b60200260200101819052506128ac612ae5565b60405180606001604052808c600001518152602001858152602001838152509050600960008c60000151815260200190815260200160002060020181602001519080600181540180825580915050600190039060005260206000200160009091909190915055809450505050509695505050505050565b61292b612ae5565b600087602001511415612973576040517f08c379a000000000000000000000000000000000000000000000000000000000815260040161296a90613f37565b60405180910390fd5b600085116129b6576040517f08c379a00000000000000000000000000000000000000000000000000000000081526004016129ad90613db7565b60405180910390fd5b6129be612b44565b6040518060c001604052804281526020018873ffffffffffffffffffffffffffffffffffffffff168152602001878152602001868152602001858152602001848152509050600b6000896000015181526020019081526020016000206000896020015181526020019081526020016000206002018190806001815401808255809150506001900390600052602060002090600602016000909190919091506000820151816000015560208201518160010160006101000a81548173ffffffffffffffffffffffffffffffffffffffff021916908373ffffffffffffffffffffffffffffffffffffffff16021790555060408201518160020155606082015181600301556080820151816004015560a082015181600501555050879150509695505050505050565b60405180606001604052806000815260200160008152602001606081525090565b6040518060800160405280600081526020016000815260200160608152602001600073ffffffffffffffffffffffffffffffffffffffff1681525090565b6040518060c0016040528060008152602001600073ffffffffffffffffffffffffffffffffffffffff168152602001600081526020016000815260200160008152602001600081525090565b600081359050612b9f816143c4565b92915050565b600082601f830112612bb657600080fd5b8151612bc9612bc482614065565b614038565b91508181835260208401935060208101905083856020840282011115612bee57600080fd5b60005b83811015612c1e5781612c048882612dc6565b845260208401935060208301925050600181019050612bf1565b5050505092915050565b600082601f830112612c3957600080fd5b8135612c4c612c478261408d565b614038565b915081818352602084019350602081019050838560c0840282011115612c7157600080fd5b60005b83811015612ca15781612c878882612e67565b845260208401935060c08301925050600181019050612c74565b5050505092915050565b600082601f830112612cbc57600080fd5b8151612ccf612cca826140b5565b614038565b91508181835260208401935060208101905083856020840282011115612cf457600080fd5b60005b83811015612d245781612d0a8882612f7b565b845260208401935060208301925050600181019050612cf7565b5050505092915050565b600082601f830112612d3f57600080fd5b8135612d52612d4d826140dd565b614038565b91508181835260208401935060208101905083856020840282011115612d7757600080fd5b60005b83811015612da75781612d8d8882612f90565b845260208401935060208301925050600181019050612d7a565b5050505092915050565b600081519050612dc0816143db565b92915050565b600081519050612dd5816143f2565b92915050565b600060808284031215612ded57600080fd5b612df76080614038565b90506000612e0784828501612f90565b6000830152506020612e1b84828501612f90565b602083015250604082013567ffffffffffffffff811115612e3b57600080fd5b612e4784828501612d2e565b6040830152506060612e5b84828501612b90565b60608301525092915050565b600060c08284031215612e7957600080fd5b612e8360c0614038565b90506000612e9384828501612f90565b6000830152506020612ea784828501612b90565b6020830152506040612ebb84828501612f90565b6040830152506060612ecf84828501612f90565b6060830152506080612ee384828501612f90565b60808301525060a0612ef784828501612f90565b60a08301525092915050565b600060608284031215612f1557600080fd5b612f1f6060614038565b90506000612f2f84828501612f90565b6000830152506020612f4384828501612f90565b602083015250604082013567ffffffffffffffff811115612f6357600080fd5b612f6f84828501612c28565b60408301525092915050565b600081519050612f8a81614409565b92915050565b600081359050612f9f81614420565b92915050565b600081519050612fb481614420565b92915050565b60008060408385031215612fcd57600080fd5b600083015167ffffffffffffffff811115612fe757600080fd5b612ff385828601612ba5565b925050602083015167ffffffffffffffff81111561301057600080fd5b61301c85828601612cab565b9150509250929050565b60006020828403121561303857600080fd5b600061304684828501612db1565b91505092915050565b60006020828403121561306157600080fd5b600082013567ffffffffffffffff81111561307b57600080fd5b61308784828501612ddb565b91505092915050565b600080604083850312156130a357600080fd5b600083013567ffffffffffffffff8111156130bd57600080fd5b6130c985828601612ddb565b92505060206130da85828601612f90565b9150509250929050565b6000602082840312156130f657600080fd5b600082013567ffffffffffffffff81111561311057600080fd5b61311c84828501612f03565b91505092915050565b60006020828403121561313757600080fd5b600061314584828501612f90565b91505092915050565b60006020828403121561316057600080fd5b600061316e84828501612fa5565b91505092915050565b6000806040838503121561318a57600080fd5b600061319885828601612f90565b92505060206131a985828601612f90565b9150509250929050565b6000806000606084860312156131c857600080fd5b60006131d686828701612f90565b93505060206131e786828701612f90565b92505060406131f886828701612f90565b9150509250925092565b600061320e8383613ac2565b60c08301905092915050565b60006132268383613b8d565b60208301905092915050565b600061323e8383613bab565b60208301905092915050565b613253816142b4565b82525050565b61326281614229565b82525050565b61327181614229565b82525050565b60006132828261414a565b61328c81856141aa565b935061329783614105565b8060005b838110156132c85781516132af8882613202565b97506132ba83614176565b92505060018101905061329b565b5085935050505092915050565b60006132e082614155565b6132ea81856141bb565b93506132f583614115565b8060005b8381101561332657815161330d888261321a565b975061331883614183565b9250506001810190506132f9565b5085935050505092915050565b600061333e82614155565b61334881856141cc565b935061335383614115565b8060005b8381101561338457815161336b888261321a565b975061337683614183565b925050600181019050613357565b5085935050505092915050565b600061339c82614160565b6133a681856141bb565b93506133b183614125565b8060005b838110156133e9576133c68261438a565b6133d0888261321a565b97506133db83614190565b9250506001810190506133b5565b5085935050505092915050565b60006134018261416b565b61340b81856141dd565b93506134168361413a565b8060005b8381101561344757815161342e8882613232565b97506134398361419d565b92505060018101905061341a565b5085935050505092915050565b61345d816142c6565b82525050565b61346c816142ea565b82525050565b61347b8161430e565b82525050565b61348a81614320565b82525050565b600061349d6028836141ee565b91507f4f6e6c79206f776e65722063616e207769746864726177206163636f756e746960008301527f6e6720746f6b656e0000000000000000000000000000000000000000000000006020830152604082019050919050565b60006135036014836141ee565b91507f4672616d6520616c7265616479206578697374730000000000000000000000006000830152602082019050919050565b60006135436019836141ee565b91507f50726963652068617320746f20626520646966666572656e74000000000000006000830152602082019050919050565b60006135836012836141ee565b91507f4c6f7420616c72656164792065786973747300000000000000000000000000006000830152602082019050919050565b60006135c3602a836141ee565b91507f4163717569736974696f6e2070726963652068617320746f206265206772656160008301527f746572207468616e2030000000000000000000000000000000000000000000006020830152604082019050919050565b6000613629601e836141ee565b91507f43616e277420637265617465206672616d6520696e20746865207061737400006000830152602082019050919050565b6000613669601a836141ee565b91507f536166654d6174683a206469766973696f6e206279207a65726f0000000000006000830152602082019050919050565b60006136a96024836141ee565b91507f54617820636861726765642068617320746f206265206772656174657220746860008301527f616e2030000000000000000000000000000000000000000000000000000000006020830152604082019050919050565b600061370f6001836141ee565b91507f54000000000000000000000000000000000000000000000000000000000000006000830152602082019050919050565b600061374f6021836141ee565b91507f536166654d6174683a206d756c7469706c69636174696f6e206f766572666c6f60008301527f77000000000000000000000000000000000000000000000000000000000000006020830152604082019050919050565b60006137b5601e836141ee565b91507f416c6c6f77616e636520746f207370656e642073657420746f6f206c6f7700006000830152602082019050919050565b60006137f56027836141ee565b91507f4f6e6c79206f776e65722063616e20757064617465206672616d6520636c6f7360008301527f65207072696365000000000000000000000000000000000000000000000000006020830152604082019050919050565b600061385b6020836141ee565b91507f4672616d65207265776172642077617320616c726561647920636c61696d65646000830152602082019050919050565b600061389b603c836141ee565b91507f5461782068617320746f2062652067726561746572207468616e20302e20496e60008301527f63726561736520746865206163717569736974696f6e207072696365000000006020830152604082019050919050565b60006139016013836141ee565b91507f4672616d6520646f65736e2774206578697374000000000000000000000000006000830152602082019050919050565b6000613941603c836141ee565b91507f4665652068617320746f2062652067726561746572207468616e20302e20496e60008301527f63726561736520746865206163717569736974696f6e207072696365000000006020830152604082019050919050565b60006139a76011836141ee565b91507f4c6f7420646f65736e27742065786973740000000000000000000000000000006000830152602082019050919050565b60006080830160008301516139f26000860182613b8d565b506020830151613a056020860182613b8d565b5060408301518482036040860152613a1d82826132d5565b9150506060830151613a326060860182613259565b508091505092915050565b6000608083016000808401549050613a5481614370565b613a616000870182613b8d565b5060018401549050613a7281614370565b613a7f6020870182613b8d565b50600284018583036040870152613a968382613391565b92505060038401549050613aa981614356565b613ab66060870182613259565b50819250505092915050565b60c082016000820151613ad86000850182613b8d565b506020820151613aeb6020850182613259565b506040820151613afe6040850182613b8d565b506060820151613b116060850182613b8d565b506080820151613b246080850182613b8d565b5060a0820151613b3760a0850182613b8d565b50505050565b6000606083016000830151613b556000860182613b8d565b506020830151613b686020860182613b8d565b5060408301518482036040860152613b808282613277565b9150508091505092915050565b613b968161429a565b82525050565b613ba58161429a565b82525050565b613bb4816142a4565b82525050565b6000602082019050613bcf6000830184613268565b92915050565b6000604082019050613bea600083018561324a565b613bf76020830184613268565b9392505050565b6000606082019050613c13600083018661324a565b613c206020830185613268565b613c2d6040830184613b9c565b949350505050565b6000604082019050613c4a600083018561324a565b613c576020830184613b9c565b9392505050565b6000604082019050613c736000830185613268565b613c806020830184613b9c565b9392505050565b60006020820190508181036000830152613ca18184613333565b905092915050565b60006020820190508181036000830152613cc381846133f6565b905092915050565b6000602082019050613ce06000830184613454565b92915050565b6000602082019050613cfb6000830184613463565b92915050565b6000602082019050613d166000830184613472565b92915050565b6000602082019050613d316000830184613481565b92915050565b60006020820190508181036000830152613d5081613490565b9050919050565b60006020820190508181036000830152613d70816134f6565b9050919050565b60006020820190508181036000830152613d9081613536565b9050919050565b60006020820190508181036000830152613db081613576565b9050919050565b60006020820190508181036000830152613dd0816135b6565b9050919050565b60006020820190508181036000830152613df08161361c565b9050919050565b60006020820190508181036000830152613e108161365c565b9050919050565b60006020820190508181036000830152613e308161369c565b9050919050565b60006020820190508181036000830152613e5081613702565b9050919050565b60006020820190508181036000830152613e7081613742565b9050919050565b60006020820190508181036000830152613e90816137a8565b9050919050565b60006020820190508181036000830152613eb0816137e8565b9050919050565b60006020820190508181036000830152613ed08161384e565b9050919050565b60006020820190508181036000830152613ef08161388e565b9050919050565b60006020820190508181036000830152613f10816138f4565b9050919050565b60006020820190508181036000830152613f3081613934565b9050919050565b60006020820190508181036000830152613f508161399a565b9050919050565b60006020820190508181036000830152613f7181846139da565b905092915050565b60006020820190508181036000830152613f938184613a3d565b905092915050565b60006020820190508181036000830152613fb58184613b3d565b905092915050565b6000602082019050613fd26000830184613b9c565b92915050565b6000604082019050613fed6000830185613b9c565b613ffa6020830184613b9c565b9392505050565b60006060820190506140166000830186613b9c565b6140236020830185613b9c565b6140306040830184613268565b949350505050565b6000604051905081810181811067ffffffffffffffff8211171561405b57600080fd5b8060405250919050565b600067ffffffffffffffff82111561407c57600080fd5b602082029050602081019050919050565b600067ffffffffffffffff8211156140a457600080fd5b602082029050602081019050919050565b600067ffffffffffffffff8211156140cc57600080fd5b602082029050602081019050919050565b600067ffffffffffffffff8211156140f457600080fd5b602082029050602081019050919050565b6000819050602082019050919050565b6000819050602082019050919050565b60008190508160005260206000209050919050565b6000819050602082019050919050565b600081519050919050565b600081519050919050565b600081549050919050565b600081519050919050565b6000602082019050919050565b6000602082019050919050565b6000600182019050919050565b6000602082019050919050565b600082825260208201905092915050565b600082825260208201905092915050565b600082825260208201905092915050565b600082825260208201905092915050565b600082825260208201905092915050565b600073ffffffffffffffffffffffffffffffffffffffff82169050919050565b6000819050919050565b60006142348261427a565b9050919050565b60008115159050919050565b6000819050614255826143aa565b919050565b6000819050614268826143b7565b919050565b60008160060b9050919050565b600073ffffffffffffffffffffffffffffffffffffffff82169050919050565b6000819050919050565b600063ffffffff82169050919050565b60006142bf82614332565b9050919050565b60006142d1826142d8565b9050919050565b60006142e38261427a565b9050919050565b60006142f5826142fc565b9050919050565b60006143078261427a565b9050919050565b600061431982614247565b9050919050565b600061432b8261425a565b9050919050565b600061433d82614344565b9050919050565b600061434f8261427a565b9050919050565b60006143696143648361439d565b6141ff565b9050919050565b600061438361437e8361439d565b61421f565b9050919050565b60006143968254614370565b9050919050565b60008160001c9050919050565b600581106143b457fe5b50565b600481106143c157fe5b50565b6143cd81614229565b81146143d857600080fd5b50565b6143e48161423b565b81146143ef57600080fd5b50565b6143fb8161426d565b811461440657600080fd5b50565b6144128161427a565b811461441d57600080fd5b50565b6144298161429a565b811461443457600080fd5b5056fea264697066735822122056bb162da4db4d7ace394046bb87442139c7a584c1f9d2d6236bf60371d1323064736f6c63430007000033",
  "linkReferences": {},
  "deployedLinkReferences": {}
}