{
  "contracts/Market.sol": {
    "Market": {
      "abi": [
        {
          "inputs": [
            {
              "internalType": "contract MarketFactory",
              "name": "_factory",
              "type": "address"
            },
            {
              "internalType": "contract IERC20",
              "name": "_token",
              "type": "address"
            },
            {
              "internalType": "contract IUniswapV2Pair",
              "name": "_uniswapPair",
              "type": "address"
            },
            {
              "internalType": "uint256",
              "name": "_period",
              "type": "uint256"
            },
            {
              "internalType": "uint256",
              "name": "_initTimestamp",
              "type": "uint256"
            },
            {
              "internalType": "uint256",
              "name": "_taxMarket",
              "type": "uint256"
            },
            {
              "internalType": "uint256",
              "name": "_feeMarket",
              "type": "uint256"
            },
            {
              "internalType": "uint256",
              "name": "_dPrice",
              "type": "uint256"
            },
            {
              "internalType": "uint256",
              "name": "_tReporting",
              "type": "uint256"
            },
            {
              "internalType": "uint256",
              "name": "_minTax",
              "type": "uint256"
            },
            {
              "internalType": "bool",
              "name": "_avgPriceSwitch",
              "type": "bool"
            }
          ],
          "stateMutability": "nonpayable",
          "type": "constructor"
        },
        {
          "anonymous": false,
          "inputs": [
            {
              "indexed": false,
              "internalType": "uint256",
              "name": "frameKey",
              "type": "uint256"
            },
            {
              "indexed": false,
              "internalType": "uint256",
              "name": "oracleTimestampStart",
              "type": "uint256"
            },
            {
              "indexed": false,
              "internalType": "uint256",
              "name": "oracleTimestampEnd",
              "type": "uint256"
            },
            {
              "indexed": false,
              "internalType": "uint256",
              "name": "oraclePrice0CumulativeStart",
              "type": "uint256"
            },
            {
              "indexed": false,
              "internalType": "uint256",
              "name": "oraclePrice0CumulativeEnd",
              "type": "uint256"
            },
            {
              "indexed": false,
              "internalType": "uint256",
              "name": "oraclePrice1CumulativeStart",
              "type": "uint256"
            },
            {
              "indexed": false,
              "internalType": "uint256",
              "name": "oraclePrice1CumulativeEnd",
              "type": "uint256"
            },
            {
              "indexed": false,
              "internalType": "uint256",
              "name": "rewardFund",
              "type": "uint256"
            }
          ],
          "name": "FrameUpdate",
          "type": "event"
        },
        {
          "anonymous": false,
          "inputs": [
            {
              "indexed": false,
              "internalType": "uint256",
              "name": "frameKey",
              "type": "uint256"
            },
            {
              "components": [
                {
                  "internalType": "uint256",
                  "name": "frameKey",
                  "type": "uint256"
                },
                {
                  "internalType": "uint256",
                  "name": "lotKey",
                  "type": "uint256"
                },
                {
                  "internalType": "address",
                  "name": "lotOwner",
                  "type": "address"
                },
                {
                  "internalType": "uint256",
                  "name": "acquisitionPrice",
                  "type": "uint256"
                },
                {
                  "internalType": "enum Market.SLot",
                  "name": "state",
                  "type": "uint8"
                }
              ],
              "indexed": false,
              "internalType": "struct Market.Lot",
              "name": "lotStruct",
              "type": "tuple"
            }
          ],
          "name": "LotUpdate",
          "type": "event"
        },
        {
          "inputs": [],
          "name": "accountingToken",
          "outputs": [
            {
              "internalType": "contract IERC20",
              "name": "",
              "type": "address"
            }
          ],
          "stateMutability": "view",
          "type": "function"
        },
        {
          "inputs": [],
          "name": "avgPriceSwitch",
          "outputs": [
            {
              "internalType": "bool",
              "name": "",
              "type": "bool"
            }
          ],
          "stateMutability": "view",
          "type": "function"
        },
        {
          "inputs": [
            {
              "internalType": "uint256",
              "name": "timestamp",
              "type": "uint256"
            },
            {
              "internalType": "uint256",
              "name": "pairPrice",
              "type": "uint256"
            },
            {
              "internalType": "uint256",
              "name": "acqPrice",
              "type": "uint256"
            }
          ],
          "name": "buyLot",
          "outputs": [],
          "stateMutability": "nonpayable",
          "type": "function"
        },
        {
          "inputs": [
            {
              "internalType": "uint256",
              "name": "frameKey",
              "type": "uint256"
            }
          ],
          "name": "claimReward",
          "outputs": [],
          "stateMutability": "nonpayable",
          "type": "function"
        },
        {
          "inputs": [
            {
              "internalType": "uint256",
              "name": "timestamp",
              "type": "uint256"
            },
            {
              "internalType": "uint256",
              "name": "pairPrice",
              "type": "uint256"
            },
            {
              "internalType": "uint256",
              "name": "acqPrice",
              "type": "uint256"
            }
          ],
          "name": "clcAmountToApprove",
          "outputs": [
            {
              "internalType": "uint256",
              "name": "cmpltAmnt",
              "type": "uint256"
            }
          ],
          "stateMutability": "view",
          "type": "function"
        },
        {
          "inputs": [
            {
              "internalType": "uint256",
              "name": "timestamp",
              "type": "uint256"
            },
            {
              "internalType": "uint256",
              "name": "pairPrice",
              "type": "uint256"
            },
            {
              "internalType": "uint256",
              "name": "acqPrice",
              "type": "uint256"
            }
          ],
          "name": "clcAmountToApproveForUpdate",
          "outputs": [
            {
              "internalType": "uint256",
              "name": "amnt",
              "type": "uint256"
            }
          ],
          "stateMutability": "view",
          "type": "function"
        },
        {
          "inputs": [
            {
              "internalType": "uint256",
              "name": "timestamp",
              "type": "uint256"
            }
          ],
          "name": "clcFrameTimestamp",
          "outputs": [
            {
              "internalType": "uint256",
              "name": "",
              "type": "uint256"
            }
          ],
          "stateMutability": "view",
          "type": "function"
        },
        {
          "inputs": [
            {
              "internalType": "uint256",
              "name": "value",
              "type": "uint256"
            }
          ],
          "name": "clcLotKey",
          "outputs": [
            {
              "internalType": "uint256",
              "name": "",
              "type": "uint256"
            }
          ],
          "stateMutability": "view",
          "type": "function"
        },
        {
          "inputs": [
            {
              "internalType": "uint256",
              "name": "frameKey",
              "type": "uint256"
            }
          ],
          "name": "clcPrice",
          "outputs": [
            {
              "internalType": "uint256",
              "name": "avgPrice",
              "type": "uint256"
            }
          ],
          "stateMutability": "view",
          "type": "function"
        },
        {
          "inputs": [],
          "name": "dPrice",
          "outputs": [
            {
              "internalType": "uint256",
              "name": "",
              "type": "uint256"
            }
          ],
          "stateMutability": "view",
          "type": "function"
        },
        {
          "inputs": [],
          "name": "factory",
          "outputs": [
            {
              "internalType": "contract MarketFactory",
              "name": "",
              "type": "address"
            }
          ],
          "stateMutability": "view",
          "type": "function"
        },
        {
          "inputs": [],
          "name": "feeMarket",
          "outputs": [
            {
              "internalType": "uint256",
              "name": "",
              "type": "uint256"
            }
          ],
          "stateMutability": "view",
          "type": "function"
        },
        {
          "inputs": [],
          "name": "feeProtocol",
          "outputs": [
            {
              "internalType": "uint256",
              "name": "",
              "type": "uint256"
            }
          ],
          "stateMutability": "view",
          "type": "function"
        },
        {
          "inputs": [
            {
              "internalType": "uint256",
              "name": "",
              "type": "uint256"
            }
          ],
          "name": "frames",
          "outputs": [
            {
              "internalType": "uint256",
              "name": "frameKey",
              "type": "uint256"
            },
            {
              "internalType": "uint256",
              "name": "oracleTimestampStart",
              "type": "uint256"
            },
            {
              "internalType": "uint256",
              "name": "oracleTimestampEnd",
              "type": "uint256"
            },
            {
              "internalType": "uint256",
              "name": "rewardFund",
              "type": "uint256"
            },
            {
              "internalType": "uint256",
              "name": "priceAverage",
              "type": "uint256"
            },
            {
              "internalType": "uint256",
              "name": "oraclePrice0CumulativeStart",
              "type": "uint256"
            },
            {
              "internalType": "uint256",
              "name": "oraclePrice0CumulativeEnd",
              "type": "uint256"
            },
            {
              "internalType": "uint256",
              "name": "oraclePrice1CumulativeStart",
              "type": "uint256"
            },
            {
              "internalType": "uint256",
              "name": "oraclePrice1CumulativeEnd",
              "type": "uint256"
            },
            {
              "internalType": "enum Market.SFrame",
              "name": "state",
              "type": "uint8"
            }
          ],
          "stateMutability": "view",
          "type": "function"
        },
        {
          "inputs": [
            {
              "internalType": "uint256",
              "name": "",
              "type": "uint256"
            }
          ],
          "name": "framesKeys",
          "outputs": [
            {
              "internalType": "uint256",
              "name": "",
              "type": "uint256"
            }
          ],
          "stateMutability": "view",
          "type": "function"
        },
        {
          "inputs": [
            {
              "internalType": "uint256",
              "name": "frameKey",
              "type": "uint256"
            },
            {
              "internalType": "uint256",
              "name": "lotKey",
              "type": "uint256"
            }
          ],
          "name": "getLot",
          "outputs": [
            {
              "components": [
                {
                  "internalType": "uint256",
                  "name": "frameKey",
                  "type": "uint256"
                },
                {
                  "internalType": "uint256",
                  "name": "lotKey",
                  "type": "uint256"
                },
                {
                  "internalType": "address",
                  "name": "lotOwner",
                  "type": "address"
                },
                {
                  "internalType": "uint256",
                  "name": "acquisitionPrice",
                  "type": "uint256"
                },
                {
                  "internalType": "enum Market.SLot",
                  "name": "state",
                  "type": "uint8"
                }
              ],
              "internalType": "struct Market.Lot",
              "name": "",
              "type": "tuple"
            }
          ],
          "stateMutability": "view",
          "type": "function"
        },
        {
          "inputs": [
            {
              "internalType": "uint256",
              "name": "frameKey",
              "type": "uint256"
            },
            {
              "internalType": "uint256",
              "name": "index",
              "type": "uint256"
            }
          ],
          "name": "getLotKey",
          "outputs": [
            {
              "internalType": "uint256",
              "name": "",
              "type": "uint256"
            }
          ],
          "stateMutability": "view",
          "type": "function"
        },
        {
          "inputs": [
            {
              "internalType": "uint256",
              "name": "frameKey",
              "type": "uint256"
            }
          ],
          "name": "getLotsCount",
          "outputs": [
            {
              "internalType": "uint256",
              "name": "",
              "type": "uint256"
            }
          ],
          "stateMutability": "view",
          "type": "function"
        },
        {
          "inputs": [
            {
              "internalType": "address",
              "name": "user",
              "type": "address"
            }
          ],
          "name": "getNumOfUserFrames",
          "outputs": [
            {
              "internalType": "uint256",
              "name": "",
              "type": "uint256"
            }
          ],
          "stateMutability": "view",
          "type": "function"
        },
        {
          "inputs": [],
          "name": "getNumberOfFrameKeys",
          "outputs": [
            {
              "internalType": "uint256",
              "name": "",
              "type": "uint256"
            }
          ],
          "stateMutability": "view",
          "type": "function"
        },
        {
          "inputs": [
            {
              "internalType": "uint256",
              "name": "startFrame",
              "type": "uint256"
            },
            {
              "internalType": "uint256",
              "name": "numOfFrames",
              "type": "uint256"
            }
          ],
          "name": "getOpenFrameKeys",
          "outputs": [
            {
              "internalType": "uint256[]",
              "name": "openFrames",
              "type": "uint256[]"
            }
          ],
          "stateMutability": "view",
          "type": "function"
        },
        {
          "inputs": [
            {
              "internalType": "uint256",
              "name": "frameKey",
              "type": "uint256"
            }
          ],
          "name": "getRewardAmount",
          "outputs": [
            {
              "internalType": "uint256",
              "name": "",
              "type": "uint256"
            }
          ],
          "stateMutability": "view",
          "type": "function"
        },
        {
          "inputs": [
            {
              "internalType": "address",
              "name": "user",
              "type": "address"
            }
          ],
          "name": "getUserFrames",
          "outputs": [
            {
              "internalType": "uint256[]",
              "name": "",
              "type": "uint256[]"
            }
          ],
          "stateMutability": "view",
          "type": "function"
        },
        {
          "inputs": [
            {
              "internalType": "address",
              "name": "user",
              "type": "address"
            }
          ],
          "name": "getUserLots",
          "outputs": [
            {
              "components": [
                {
                  "internalType": "uint256",
                  "name": "frameKey",
                  "type": "uint256"
                },
                {
                  "internalType": "uint256",
                  "name": "lotKey",
                  "type": "uint256"
                },
                {
                  "internalType": "address",
                  "name": "lotOwner",
                  "type": "address"
                },
                {
                  "internalType": "uint256",
                  "name": "acquisitionPrice",
                  "type": "uint256"
                },
                {
                  "internalType": "enum Market.SLot",
                  "name": "state",
                  "type": "uint8"
                }
              ],
              "internalType": "struct Market.Lot[]",
              "name": "userLots",
              "type": "tuple[]"
            }
          ],
          "stateMutability": "view",
          "type": "function"
        },
        {
          "inputs": [],
          "name": "initTimestamp",
          "outputs": [
            {
              "internalType": "uint256",
              "name": "",
              "type": "uint256"
            }
          ],
          "stateMutability": "view",
          "type": "function"
        },
        {
          "inputs": [
            {
              "internalType": "uint256",
              "name": "frameKey",
              "type": "uint256"
            },
            {
              "internalType": "uint256",
              "name": "avgPrice",
              "type": "uint256"
            }
          ],
          "name": "manualyUpdateAvgPrice",
          "outputs": [],
          "stateMutability": "nonpayable",
          "type": "function"
        },
        {
          "inputs": [],
          "name": "minTax",
          "outputs": [
            {
              "internalType": "uint256",
              "name": "",
              "type": "uint256"
            }
          ],
          "stateMutability": "view",
          "type": "function"
        },
        {
          "inputs": [],
          "name": "ownerMarket",
          "outputs": [
            {
              "internalType": "address",
              "name": "",
              "type": "address"
            }
          ],
          "stateMutability": "view",
          "type": "function"
        },
        {
          "inputs": [],
          "name": "period",
          "outputs": [
            {
              "internalType": "uint256",
              "name": "",
              "type": "uint256"
            }
          ],
          "stateMutability": "view",
          "type": "function"
        },
        {
          "inputs": [],
          "name": "tReporting",
          "outputs": [
            {
              "internalType": "uint256",
              "name": "",
              "type": "uint256"
            }
          ],
          "stateMutability": "view",
          "type": "function"
        },
        {
          "inputs": [],
          "name": "taxMarket",
          "outputs": [
            {
              "internalType": "uint256",
              "name": "",
              "type": "uint256"
            }
          ],
          "stateMutability": "view",
          "type": "function"
        },
        {
          "inputs": [],
          "name": "uniswapPair",
          "outputs": [
            {
              "internalType": "contract IUniswapV2Pair",
              "name": "",
              "type": "address"
            }
          ],
          "stateMutability": "view",
          "type": "function"
        },
        {
          "inputs": [],
          "name": "updateFramePrices",
          "outputs": [],
          "stateMutability": "nonpayable",
          "type": "function"
        },
        {
          "inputs": [
            {
              "internalType": "uint256",
              "name": "timestamp",
              "type": "uint256"
            },
            {
              "internalType": "uint256",
              "name": "pairPrice",
              "type": "uint256"
            },
            {
              "internalType": "uint256",
              "name": "acqPrice",
              "type": "uint256"
            }
          ],
          "name": "updateLotPrice",
          "outputs": [],
          "stateMutability": "nonpayable",
          "type": "function"
        },
        {
          "inputs": [
            {
              "internalType": "address",
              "name": "",
              "type": "address"
            },
            {
              "internalType": "uint256",
              "name": "",
              "type": "uint256"
            }
          ],
          "name": "userFrames",
          "outputs": [
            {
              "internalType": "uint256",
              "name": "",
              "type": "uint256"
            }
          ],
          "stateMutability": "view",
          "type": "function"
        }
      ],
      "evm": {
        "bytecode": {
          "linkReferences": {},
          "object": "608060405260646002556000600c60006101000a81548160ff02191690831515021790555069d3c21bcecceda1000000600d553480156200003f57600080fd5b506040516200557838038062005578833981810160405281019062000065919062000238565b89600960006101000a81548173ffffffffffffffffffffffffffffffffffffffff021916908373ffffffffffffffffffffffffffffffffffffffff16021790555033600a60006101000a81548173ffffffffffffffffffffffffffffffffffffffff021916908373ffffffffffffffffffffffffffffffffffffffff1602179055508760008190555086600181905550856007819055508460068190555088600460006101000a81548173ffffffffffffffffffffffffffffffffffffffff021916908373ffffffffffffffffffffffffffffffffffffffff160217905550836005819055508a600860006101000a81548173ffffffffffffffffffffffffffffffffffffffff021916908373ffffffffffffffffffffffffffffffffffffffff1602179055508260038190555081600b8190555080600c60006101000a81548160ff021916908315150217905550505050505050505050505062000447565b600081519050620001d681620003c5565b92915050565b600081519050620001ed81620003df565b92915050565b6000815190506200020481620003f9565b92915050565b6000815190506200021b8162000413565b92915050565b60008151905062000232816200042d565b92915050565b60008060008060008060008060008060006101608c8e0312156200025b57600080fd5b60006200026b8e828f016200020a565b9b505060206200027e8e828f01620001dc565b9a50506040620002918e828f01620001f3565b9950506060620002a48e828f0162000221565b9850506080620002b78e828f0162000221565b97505060a0620002ca8e828f0162000221565b96505060c0620002dd8e828f0162000221565b95505060e0620002f08e828f0162000221565b945050610100620003048e828f0162000221565b935050610120620003188e828f0162000221565b9250506101406200032c8e828f01620001c5565b9150509295989b509295989b9093969950565b60006200034c826200039b565b9050919050565b60008115159050919050565b60006200036c826200033f565b9050919050565b600062000380826200033f565b9050919050565b600062000394826200033f565b9050919050565b600073ffffffffffffffffffffffffffffffffffffffff82169050919050565b6000819050919050565b620003d08162000353565b8114620003dc57600080fd5b50565b620003ea816200035f565b8114620003f657600080fd5b50565b620004048162000373565b81146200041057600080fd5b50565b6200041e8162000387565b81146200042a57600080fd5b50565b6200043881620003bb565b81146200044457600080fd5b50565b61512180620004576000396000f3fe608060405234801561001057600080fd5b50600436106102115760003560e01c80637e99663911610125578063a4d246ff116100ad578063c816841b1161007c578063c816841b14610695578063c84993af146106b3578063da68cf8b146106e3578063ef78d4fd14610701578063ff5c86b01461071f57610211565b8063a4d246ff1461060f578063ae169a501461063f578063bb15d2dd1461065b578063c45a01551461067757610211565b80638f9eca82116100f45780638f9eca821461054e5780639495833c1461056c5780639592de181461059c57806396b2c6f3146105cc578063a10340bc146105d657610211565b80637e996639146104c657806381da5700146104e4578063830ab1191461050057806389da88a31461053057610211565b806341a8b6f8116101a85780635b3ad63e116101775780635b3ad63e146103e857806360f65c6014610418578063659d0ca0146104485780636f1aefc3146104785780637358c57a146104a857610211565b806341a8b6f81461035e578063450847751461038e578063499a0fc4146103ac578063527eb4bc146103ca57610211565b80633c80d8ea116101e45780633c80d8ea146102d65780633d09a82a146102f25780633e16bc2014610310578063410f07101461034057610211565b8063050e8840146102165780630ef192731461024657806314aa5a99146102765780633656d5ee146102a6575b600080fd5b610230600480360381019061022b9190613ee5565b61073d565b60405161023d91906147ce565b60405180910390f35b610260600480360381019061025b9190613ddf565b610761565b60405161026d91906147ce565b60405180910390f35b610290600480360381019061028b9190613f37565b6107ad565b60405161029d9190614565565b60405180910390f35b6102c060048036038101906102bb9190613f73565b610944565b6040516102cd91906147ce565b60405180910390f35b6102f060048036038101906102eb9190613f73565b6109c9565b005b6102fa611266565b60405161030791906147ce565b60405180910390f35b61032a60048036038101906103259190613f37565b61126c565b60405161033791906147ce565b60405180910390f35b6103486112cf565b60405161035591906147ce565b60405180910390f35b61037860048036038101906103739190613ee5565b6112d5565b60405161038591906147ce565b60405180910390f35b61039661145f565b6040516103a3919061449f565b60405180910390f35b6103b4611485565b6040516103c191906147ce565b60405180910390f35b6103d261148b565b6040516103df91906147ce565b60405180910390f35b61040260048036038101906103fd9190613ee5565b611491565b60405161040f91906147ce565b60405180910390f35b610432600480360381019061042d9190613e31565b6114d4565b60405161043f91906147ce565b60405180910390f35b610462600480360381019061045d9190613ddf565b611505565b60405161046f9190614543565b60405180910390f35b610492600480360381019061048d9190613f37565b611c41565b60405161049f91906147b3565b60405180910390f35b6104b0611d7e565b6040516104bd91906147ce565b60405180910390f35b6104ce611d84565b6040516104db91906147ce565b60405180910390f35b6104fe60048036038101906104f99190613f37565b611d8a565b005b61051a60048036038101906105159190613ee5565b611e0e565b60405161052791906147ce565b60405180910390f35b610538611e31565b60405161054591906147ce565b60405180910390f35b610556611e3e565b6040516105639190614587565b60405180910390f35b61058660048036038101906105819190613ddf565b611e51565b6040516105939190614565565b60405180910390f35b6105b660048036038101906105b19190613ee5565b611ee8565b6040516105c391906147ce565b60405180910390f35b6105d4611f1e565b005b6105f060048036038101906105eb9190613ee5565b612212565b6040516106069a99989796959493929190614890565b60405180910390f35b61062960048036038101906106249190613f73565b612273565b60405161063691906147ce565b60405180910390f35b61065960048036038101906106549190613ee5565b612329565b005b61067560048036038101906106709190613f73565b61233e565b005b61067f612862565b60405161068c91906145d8565b60405180910390f35b61069d612888565b6040516106aa91906145bd565b60405180910390f35b6106cd60048036038101906106c89190613ee5565b6128ae565b6040516106da91906147ce565b60405180910390f35b6106eb6128ce565b6040516106f891906145a2565b60405180910390f35b6107096128f4565b60405161071691906147ce565b60405180910390f35b6107276128fa565b60405161073491906147ce565b60405180910390f35b6010818154811061074d57600080fd5b906000526020600020016000915090505481565b6000600f60008373ffffffffffffffffffffffffffffffffffffffff1673ffffffffffffffffffffffffffffffffffffffff168152602001908152602001600020805490509050919050565b60608167ffffffffffffffff8111156107ef577f4e487b7100000000000000000000000000000000000000000000000000000000600052604160045260246000fd5b60405190808252806020026020018201604052801561081d5781602001602082028036833780820191505090505b50905060005b82811161093d5760008160005461083a9190614a67565b8561084591906149af565b905060006002811115610881577f4e487b7100000000000000000000000000000000000000000000000000000000600052602160045260246000fd5b600e600083815260200190815260200160002060090160009054906101000a900460ff1660028111156108dd577f4e487b7100000000000000000000000000000000000000000000000000000000600052602160045260246000fd5b14610929578083838151811061091c577f4e487b7100000000000000000000000000000000000000000000000000000000600052603260045260246000fd5b6020026020010181815250505b50808061093590614cfe565b915050610823565b5092915050565b60008061095085611491565b9050600061099082600e6000858152602001908152602001600020600b01600061097989611ee8565b815260200190815260200160002060030154612900565b9050600061099e8386612900565b90508082106109b057600093506109bf565b81816109bc9190614ac1565b93505b5050509392505050565b60006109d4846129a3565b90506109e08183612b53565b60006109ec8285612bab565b90506109f742611491565b821015610a39576040517f08c379a0000000000000000000000000000000000000000000000000000000008152600401610a3090614613565b60405180910390fd5b600e6000838152602001908152602001600020600b01600082815260200190815260200160002060020160009054906101000a900473ffffffffffffffffffffffffffffffffffffffff1673ffffffffffffffffffffffffffffffffffffffff163373ffffffffffffffffffffffffffffffffffffffff161415610af2576040517f08c379a0000000000000000000000000000000000000000000000000000000008152600401610ae9906146f3565b60405180910390fd5b6000610afe8385612900565b905080600e6000858152602001908152602001600020600b01600084815260200190815260200160002060030154610b3691906149af565b600960009054906101000a900473ffffffffffffffffffffffffffffffffffffffff1673ffffffffffffffffffffffffffffffffffffffff1663dd62ed3e33306040518363ffffffff1660e01b8152600401610b939291906144ba565b60206040518083038186803b158015610bab57600080fd5b505afa158015610bbf573d6000803e3d6000fd5b505050506040513d601f19601f82011682018060405250810190610be39190613f0e565b1015610c24576040517f08c379a0000000000000000000000000000000000000000000000000000000008152600401610c1b90614713565b60405180910390fd5b600960009054906101000a900473ffffffffffffffffffffffffffffffffffffffff1673ffffffffffffffffffffffffffffffffffffffff166323b872dd333084600e6000898152602001908152602001600020600b01600088815260200190815260200160002060030154610c9a91906149af565b6040518463ffffffff1660e01b8152600401610cb8939291906144e3565b602060405180830381600087803b158015610cd257600080fd5b505af1158015610ce6573d6000803e3d6000fd5b505050506040513d601f19601f82011682018060405250810190610d0a9190613e6d565b5080600e600085815260200190815260200160002060030154610d2d91906149af565b600e60008581526020019081526020016000206003018190555060016002811115610d81577f4e487b7100000000000000000000000000000000000000000000000000000000600052602160045260246000fd5b600e6000858152602001908152602001600020600b01600084815260200190815260200160002060040160009054906101000a900460ff166002811115610df1577f4e487b7100000000000000000000000000000000000000000000000000000000600052602160045260246000fd5b1415610fa0576000610e2d84600e6000878152602001908152602001600020600b01600086815260200190815260200160002060030154612900565b9050600960009054906101000a900473ffffffffffffffffffffffffffffffffffffffff1673ffffffffffffffffffffffffffffffffffffffff1663a9059cbb600e6000878152602001908152602001600020600b01600086815260200190815260200160002060020160009054906101000a900473ffffffffffffffffffffffffffffffffffffffff16600e6000888152602001908152602001600020600b0160008781526020019081526020016000206003015484610eee91906149af565b6040518363ffffffff1660e01b8152600401610f0b92919061451a565b602060405180830381600087803b158015610f2557600080fd5b505af1158015610f39573d6000803e3d6000fd5b505050506040513d601f19601f82011682018060405250810190610f5d9190613e6d565b5080600e600086815260200190815260200160002060030154610f809190614ac1565b600e6000868152602001908152602001600020600301819055505061101a565b6001600e6000858152602001908152602001600020600b01600084815260200190815260200160002060040160006101000a81548160ff02191690836002811115611014577f4e487b7100000000000000000000000000000000000000000000000000000000600052602160045260246000fd5b02179055505b33600e6000858152602001908152602001600020600b01600084815260200190815260200160002060020160006101000a81548173ffffffffffffffffffffffffffffffffffffffff021916908373ffffffffffffffffffffffffffffffffffffffff16021790555083600e6000858152602001908152602001600020600b01600084815260200190815260200160002060030181905550600f60003373ffffffffffffffffffffffffffffffffffffffff1673ffffffffffffffffffffffffffffffffffffffff168152602001908152602001600020839080600181540180825580915050600190039060005260206000200160009091909190915055611120611f1e565b7ff733bd7f4402cb7d331b34d5cd22f432b9bf71a833f786974545860d74976af283600e600086815260200190815260200160002060010154600e600087815260200190815260200160002060020154600e600088815260200190815260200160002060050154600e600089815260200190815260200160002060060154600e60008a815260200190815260200160002060070154600e60008b815260200190815260200160002060080154600e60008c8152602001908152602001600020600301546040516111f7989796959493929190614812565b60405180910390a17f74c5c6f5cd4370cc0ab554a1afdb2b24b051b40c99102354ef424aed5cd6409d83600e6000868152602001908152602001600020600b0160008581526020019081526020016000206040516112569291906147e9565b60405180910390a1505050505050565b600b5481565b6000600e6000848152602001908152602001600020600a0182815481106112bc577f4e487b7100000000000000000000000000000000000000000000000000000000600052603260045260246000fd5b9060005260206000200154905092915050565b60065481565b60006112e082612d17565b6000600e600084815260200190815260200160002060010154600e60008581526020019081526020016000206002015461131a9190614ac1565b9050600c60009054906101000a900460ff16156113bf576113a8604051806020016040528083600e600088815260200190815260200160002060050154600e6000898152602001908152602001600020600601546113789190614ac1565b6113829190614a36565b7bffffffffffffffffffffffffffffffffffffffffffffffffffffffff16815250612e06565b6dffffffffffffffffffffffffffff169150611449565b611436604051806020016040528083600e600088815260200190815260200160002060070154600e6000898152602001908152602001600020600801546114069190614ac1565b6114109190614a36565b7bffffffffffffffffffffffffffffffffffffffffffffffffffffffff16815250612e06565b6dffffffffffffffffffffffffffff1691505b600d54826114579190614a67565b915050919050565b600a60009054906101000a900473ffffffffffffffffffffffffffffffffffffffff1681565b60055481565b60025481565b600060015482116114a65760015490506114cf565b600054600154836114b79190614ac1565b6114c19190614d47565b826114cc9190614ac1565b90505b919050565b600f60205281600052604060002081815481106114f057600080fd5b90600052602060002001600091509150505481565b6060600061151242611491565b90506107d067ffffffffffffffff811115611556577f4e487b7100000000000000000000000000000000000000000000000000000000600052604160045260246000fd5b60405190808252806020026020018201604052801561158f57816020015b61157c613c9e565b8152602001906001900390816115745790505b50915061159a613c9e565b60008080600190505b6064811161190457603281106115df576032816115c09190614ac1565b6000546115cd9190614a67565b856115d891906149af565b91506115fb565b806000546115ed9190614a67565b856115f89190614ac1565b91505b60016002811115611635577f4e487b7100000000000000000000000000000000000000000000000000000000600052602160045260246000fd5b600e600084815260200190815260200160002060090160009054906101000a900460ff166002811115611691577f4e487b7100000000000000000000000000000000000000000000000000000000600052602160045260246000fd5b14156118f15760005b600e6000848152602001908152602001600020600a01805490508110156118ef57600e6000848152602001908152602001600020600b016000600e6000868152602001908152602001600020600a018381548110611721577f4e487b7100000000000000000000000000000000000000000000000000000000600052603260045260246000fd5b906000526020600020015481526020019081526020016000206040518060a001604052908160008201548152602001600182015481526020016002820160009054906101000a900473ffffffffffffffffffffffffffffffffffffffff1673ffffffffffffffffffffffffffffffffffffffff1673ffffffffffffffffffffffffffffffffffffffff168152602001600382015481526020016004820160009054906101000a900460ff166002811115611804577f4e487b7100000000000000000000000000000000000000000000000000000000600052602160045260246000fd5b600281111561183c577f4e487b7100000000000000000000000000000000000000000000000000000000600052602160045260246000fd5b8152505094508773ffffffffffffffffffffffffffffffffffffffff16856040015173ffffffffffffffffffffffffffffffffffffffff1614156118dc57848785815181106118b4577f4e487b7100000000000000000000000000000000000000000000000000000000600052603260045260246000fd5b602002602001018190525083806118ca90614cfe565b9450506107d084106118db576118ef565b5b80806118e790614cfe565b91505061169a565b505b80806118fc90614cfe565b9150506115a3565b506000600190505b60318111611c3757806000546119229190614a67565b8561192d9190614ac1565b9150600280811115611968577f4e487b7100000000000000000000000000000000000000000000000000000000600052602160045260246000fd5b600e600084815260200190815260200160002060090160009054906101000a900460ff1660028111156119c4577f4e487b7100000000000000000000000000000000000000000000000000000000600052602160045260246000fd5b1415611c245760005b600e6000848152602001908152602001600020600a0180549050811015611c2257600e6000848152602001908152602001600020600b016000600e6000868152602001908152602001600020600a018381548110611a54577f4e487b7100000000000000000000000000000000000000000000000000000000600052603260045260246000fd5b906000526020600020015481526020019081526020016000206040518060a001604052908160008201548152602001600182015481526020016002820160009054906101000a900473ffffffffffffffffffffffffffffffffffffffff1673ffffffffffffffffffffffffffffffffffffffff1673ffffffffffffffffffffffffffffffffffffffff168152602001600382015481526020016004820160009054906101000a900460ff166002811115611b37577f4e487b7100000000000000000000000000000000000000000000000000000000600052602160045260246000fd5b6002811115611b6f577f4e487b7100000000000000000000000000000000000000000000000000000000600052602160045260246000fd5b8152505094508773ffffffffffffffffffffffffffffffffffffffff16856040015173ffffffffffffffffffffffffffffffffffffffff161415611c0f576107d08410611bbb57611c22565b84878581518110611bf5577f4e487b7100000000000000000000000000000000000000000000000000000000600052603260045260246000fd5b60200260200101819052508380611c0b90614cfe565b9450505b8080611c1a90614cfe565b9150506119cd565b505b8080611c2f90614cfe565b91505061190c565b5050505050919050565b611c49613c9e565b600e6000848152602001908152602001600020600b0160008381526020019081526020016000206040518060a001604052908160008201548152602001600182015481526020016002820160009054906101000a900473ffffffffffffffffffffffffffffffffffffffff1673ffffffffffffffffffffffffffffffffffffffff1673ffffffffffffffffffffffffffffffffffffffff168152602001600382015481526020016004820160009054906101000a900460ff166002811115611d3a577f4e487b7100000000000000000000000000000000000000000000000000000000600052602160045260246000fd5b6002811115611d72577f4e487b7100000000000000000000000000000000000000000000000000000000600052602160045260246000fd5b81525050905092915050565b60015481565b60075481565b6001600e600084815260200190815260200160002060090160006101000a81548160ff02191690836002811115611dea577f4e487b7100000000000000000000000000000000000000000000000000000000600052602160045260246000fd5b021790555080600e6000848152602001908152602001600020600401819055505050565b6000600e6000838152602001908152602001600020600a01805490509050919050565b6000601080549050905090565b600c60009054906101000a900460ff1681565b6060600f60008373ffffffffffffffffffffffffffffffffffffffff1673ffffffffffffffffffffffffffffffffffffffff168152602001908152602001600020805480602002602001604051908101604052809291908181526020018280548015611edc57602002820191906000526020600020905b815481526020019060010190808311611ec8575b50505050509050919050565b6000808211611efb576005549050611f19565b60055460055483611f0c9190614a36565b611f169190614a67565b90505b919050565b6000611f2942611491565b905060035460005482611f3c91906149af565b611f469190614ac1565b42101561207f57611f78600460009054906101000a900473ffffffffffffffffffffffffffffffffffffffff16612e39565b8063ffffffff169050600e60008581526020019081526020016000206005016000600e60008781526020019081526020016000206007016000600e60008981526020019081526020016000206001016000869190505585919050558491905055505050600e600082815260200190815260200160002060050154600e600083815260200190815260200160002060070154600e600084815260200190815260200160002060010154600e60008581526020019081526020016000206006016000600e60008781526020019081526020016000206008016000600e60008981526020019081526020016000206002016000869190505585919050558491905055505050612130565b6003546000548261209091906149af565b61209a9190614ac1565b421061212f576120cb600460009054906101000a900473ffffffffffffffffffffffffffffffffffffffff16612e39565b8063ffffffff169050600e60008581526020019081526020016000206006016000600e60008781526020019081526020016000206008016000600e600089815260200190815260200160002060020160008691905055859190505584919050555050505b5b7ff733bd7f4402cb7d331b34d5cd22f432b9bf71a833f786974545860d74976af281600e600084815260200190815260200160002060010154600e600085815260200190815260200160002060020154600e600086815260200190815260200160002060050154600e600087815260200190815260200160002060060154600e600088815260200190815260200160002060070154600e600089815260200190815260200160002060080154600e60008a815260200190815260200160002060030154604051612207989796959493929190614812565b60405180910390a150565b600e6020528060005260406000206000915090508060000154908060010154908060020154908060030154908060040154908060050154908060060154908060070154908060080154908060090160009054906101000a900460ff1690508a565b60008061227f85611491565b905061228a42611491565b8110156122cc576040517f08c379a00000000000000000000000000000000000000000000000000000000081526004016122c3906146d3565b60405180910390fd5b60006122d785611ee8565b905060006122e58386612900565b905080600e6000858152602001908152602001600020600b0160008481526020019081526020016000206003015461231d91906149af565b93505050509392505050565b61233281613094565b61233b816136e2565b50565b6000612349846129a3565b90506123558183612b53565b60006123618285612bab565b90503373ffffffffffffffffffffffffffffffffffffffff16600e6000848152602001908152602001600020600b01600083815260200190815260200160002060020160009054906101000a900473ffffffffffffffffffffffffffffffffffffffff1673ffffffffffffffffffffffffffffffffffffffff161461241b576040517f08c379a000000000000000000000000000000000000000000000000000000000815260040161241290614633565b60405180910390fd5b61242442611491565b821015612466576040517f08c379a000000000000000000000000000000000000000000000000000000000815260040161245d90614773565b60405180910390fd5b60006124728385612900565b905060006124aa84600e6000878152602001908152602001600020600b01600086815260200190815260200160002060030154612900565b9050808211156126b75780826124c09190614ac1565b600960009054906101000a900473ffffffffffffffffffffffffffffffffffffffff1673ffffffffffffffffffffffffffffffffffffffff1663dd62ed3e33306040518363ffffffff1660e01b815260040161251d9291906144ba565b60206040518083038186803b15801561253557600080fd5b505afa158015612549573d6000803e3d6000fd5b505050506040513d601f19601f8201168201806040525081019061256d9190613f0e565b10156125ae576040517f08c379a00000000000000000000000000000000000000000000000000000000081526004016125a590614713565b60405180910390fd5b600960009054906101000a900473ffffffffffffffffffffffffffffffffffffffff1673ffffffffffffffffffffffffffffffffffffffff166323b872dd333084866125fa9190614ac1565b6040518463ffffffff1660e01b8152600401612618939291906144e3565b602060405180830381600087803b15801561263257600080fd5b505af1158015612646573d6000803e3d6000fd5b505050506040513d601f19601f8201168201806040525081019061266a9190613e6d565b5080826126779190614ac1565b600e60008681526020019081526020016000206003015461269891906149af565b600e6000868152602001908152602001600020600301819055506127c3565b808210156127c257600960009054906101000a900473ffffffffffffffffffffffffffffffffffffffff1673ffffffffffffffffffffffffffffffffffffffff1663a9059cbb33848461270a9190614ac1565b6040518363ffffffff1660e01b815260040161272792919061451a565b602060405180830381600087803b15801561274157600080fd5b505af1158015612755573d6000803e3d6000fd5b505050506040513d601f19601f820116820180604052508101906127799190613e6d565b5081816127869190614ac1565b600e6000868152602001908152602001600020600301546127a79190614ac1565b600e6000868152602001908152602001600020600301819055505b5b84600e6000868152602001908152602001600020600b016000858152602001908152602001600020600301819055506127fa611f1e565b7f74c5c6f5cd4370cc0ab554a1afdb2b24b051b40c99102354ef424aed5cd6409d84600e6000878152602001908152602001600020600b0160008681526020019081526020016000206040516128519291906147e9565b60405180910390a150505050505050565b600860009054906101000a900473ffffffffffffffffffffffffffffffffffffffff1681565b600460009054906101000a900473ffffffffffffffffffffffffffffffffffffffff1681565b6000600e6000838152602001908152602001600020600301549050919050565b600960009054906101000a900473ffffffffffffffffffffffffffffffffffffffff1681565b60005481565b60035481565b6000804260005461291042611491565b61291a91906149af565b6129249190614ac1565b90506000805482600d546129389190614a67565b6129429190614a36565b9050620186a0600754856129569190614a67565b6129609190614a36565b9250600d5481846129719190614a67565b61297b9190614a36565b61298486613b6a565b8461298f9190614a67565b61299991906149af565b9250505092915050565b6000806129af83611491565b9050600060028111156129eb577f4e487b7100000000000000000000000000000000000000000000000000000000600052602160045260246000fd5b600e600083815260200190815260200160002060090160009054906101000a900460ff166002811115612a47577f4e487b7100000000000000000000000000000000000000000000000000000000600052602160045260246000fd5b14612a555780915050612b4e565b612a5e42611491565b811015612aa0576040517f08c379a0000000000000000000000000000000000000000000000000000000008152600401612a9790614753565b60405180910390fd5b80600e6000838152602001908152602001600020600001819055506001600e600083815260200190815260200160002060090160006101000a81548160ff02191690836002811115612b1b577f4e487b7100000000000000000000000000000000000000000000000000000000600052602160045260246000fd5b02179055506010819080600181540180825580915050600190039060005260206000200160009091909190915055809150505b919050565b6000612b5f8383612900565b9050600b54811015612ba6576040517f08c379a0000000000000000000000000000000000000000000000000000000008152600401612b9d906146b3565b60405180910390fd5b505050565b600080612bb783611ee8565b905060006002811115612bf3577f4e487b7100000000000000000000000000000000000000000000000000000000600052602160045260246000fd5b600e6000868152602001908152602001600020600b01600083815260200190815260200160002060040160009054906101000a900460ff166002811115612c63577f4e487b7100000000000000000000000000000000000000000000000000000000600052602160045260246000fd5b14612c715780915050612d11565b83600e6000868152602001908152602001600020600b0160008381526020019081526020016000206000018190555080600e6000868152602001908152602001600020600b01600083815260200190815260200160002060010181905550600e6000858152602001908152602001600020600a01819080600181540180825580915050600190039060005260206000200160009091909190915055809150505b92915050565b6000600e600083815260200190815260200160002060050154111580612d5457506000600e60008381526020019081526020016000206006015411155b15612d94576040517f08c379a0000000000000000000000000000000000000000000000000000000008152600401612d8b90614673565b60405180910390fd5b600e600082815260200190815260200160002060060154600e6000838152602001908152602001600020600501541415612e03576040517f08c379a0000000000000000000000000000000000000000000000000000000008152600401612dfa90614673565b60405180910390fd5b50565b6000607060ff1682600001517bffffffffffffffffffffffffffffffffffffffffffffffffffffffff16901c9050919050565b6000806000612e46613ba6565b90508373ffffffffffffffffffffffffffffffffffffffff16635909c0d56040518163ffffffff1660e01b815260040160206040518083038186803b158015612e8e57600080fd5b505afa158015612ea2573d6000803e3d6000fd5b505050506040513d601f19601f82011682018060405250810190612ec69190613f0e565b92508373ffffffffffffffffffffffffffffffffffffffff16635a3d54936040518163ffffffff1660e01b815260040160206040518083038186803b158015612f0e57600080fd5b505afa158015612f22573d6000803e3d6000fd5b505050506040513d601f19601f82011682018060405250810190612f469190613f0e565b915060008060008673ffffffffffffffffffffffffffffffffffffffff16630902f1ac6040518163ffffffff1660e01b815260040160606040518083038186803b158015612f9357600080fd5b505afa158015612fa7573d6000803e3d6000fd5b505050506040513d601f19601f82011682018060405250810190612fcb9190613e96565b9250925092508363ffffffff168163ffffffff161461308a5760008185612ff29190614af5565b90508063ffffffff166130058486613bbe565b600001517bffffffffffffffffffffffffffffffffffffffffffffffffffffffff166130319190614a67565b8761303c91906149af565b96508063ffffffff1661304f8585613bbe565b600001517bffffffffffffffffffffffffffffffffffffffffffffffffffffffff1661307b9190614a67565b8661308691906149af565b9550505b5050509193909250565b61309d81612d17565b42600054826130ac91906149af565b11156130ed576040517f08c379a00000000000000000000000000000000000000000000000000000000081526004016130e4906145f3565b60405180910390fd5b6002600e600083815260200190815260200160002060090160006101000a81548160ff0219169083600281111561314d577f4e487b7100000000000000000000000000000000000000000000000000000000600052602160045260246000fd5b02179055506000600e600083815260200190815260200160002060010154600e60008481526020019081526020016000206002015461318c9190614ac1565b9050600c60009054906101000a900460ff16156132495761321a604051806020016040528083600e600087815260200190815260200160002060050154600e6000888152602001908152602001600020600601546131ea9190614ac1565b6131f49190614a36565b7bffffffffffffffffffffffffffffffffffffffffffffffffffffffff16815250612e06565b6dffffffffffffffffffffffffffff16600e6000848152602001908152602001600020600401819055506132eb565b6132c0604051806020016040528083600e600087815260200190815260200160002060070154600e6000888152602001908152602001600020600801546132909190614ac1565b61329a9190614a36565b7bffffffffffffffffffffffffffffffffffffffffffffffffffffffff16815250612e06565b6dffffffffffffffffffffffffffff16600e6000848152602001908152602001600020600401819055505b600d54600e60008481526020019081526020016000206004015461330f9190614a67565b600e6000848152602001908152602001600020600401819055506000620186a0600654600e6000868152602001908152602001600020600301546133539190614a67565b61335d9190614a36565b90506000620186a0600254600e6000878152602001908152602001600020600301546133899190614a67565b6133939190614a36565b90508082600e6000878152602001908152602001600020600301546133b89190614ac1565b6133c29190614ac1565b600e600086815260200190815260200160002060030181905550600960009054906101000a900473ffffffffffffffffffffffffffffffffffffffff1673ffffffffffffffffffffffffffffffffffffffff1663a9059cbb600a60009054906101000a900473ffffffffffffffffffffffffffffffffffffffff16846040518363ffffffff1660e01b815260040161345b92919061451a565b602060405180830381600087803b15801561347557600080fd5b505af1158015613489573d6000803e3d6000fd5b505050506040513d601f19601f820116820180604052508101906134ad9190613e6d565b50600960009054906101000a900473ffffffffffffffffffffffffffffffffffffffff1673ffffffffffffffffffffffffffffffffffffffff1663a9059cbb600860009054906101000a900473ffffffffffffffffffffffffffffffffffffffff1673ffffffffffffffffffffffffffffffffffffffff16638da5cb5b6040518163ffffffff1660e01b815260040160206040518083038186803b15801561355457600080fd5b505afa158015613568573d6000803e3d6000fd5b505050506040513d601f19601f8201168201806040525081019061358c9190613e08565b836040518363ffffffff1660e01b81526004016135aa92919061451a565b602060405180830381600087803b1580156135c457600080fd5b505af11580156135d8573d6000803e3d6000fd5b505050506040513d601f19601f820116820180604052508101906135fc9190613e6d565b507ff733bd7f4402cb7d331b34d5cd22f432b9bf71a833f786974545860d74976af284600e600087815260200190815260200160002060010154600e600088815260200190815260200160002060020154600e600089815260200190815260200160002060050154600e60008a815260200190815260200160002060060154600e60008b815260200190815260200160002060070154600e60008c815260200190815260200160002060080154600e60008d8152602001908152602001600020600301546040516136d4989796959493929190614812565b60405180910390a150505050565b60028081111561371b577f4e487b7100000000000000000000000000000000000000000000000000000000600052602160045260246000fd5b600e600083815260200190815260200160002060090160009054906101000a900460ff166002811115613777577f4e487b7100000000000000000000000000000000000000000000000000000000600052602160045260246000fd5b146137b7576040517f08c379a00000000000000000000000000000000000000000000000000000000081526004016137ae90614733565b60405180910390fd5b60006137d8600e600084815260200190815260200160002060040154611ee8565b9050600280811115613813577f4e487b7100000000000000000000000000000000000000000000000000000000600052602160045260246000fd5b600e6000848152602001908152602001600020600b01600083815260200190815260200160002060040160009054906101000a900460ff166002811115613883577f4e487b7100000000000000000000000000000000000000000000000000000000600052602160045260246000fd5b14156138c4576040517f08c379a00000000000000000000000000000000000000000000000000000000081526004016138bb90614693565b60405180910390fd5b600073ffffffffffffffffffffffffffffffffffffffff16600e6000848152602001908152602001600020600b01600083815260200190815260200160002060020160009054906101000a900473ffffffffffffffffffffffffffffffffffffffff1673ffffffffffffffffffffffffffffffffffffffff16141561397e576040517f08c379a000000000000000000000000000000000000000000000000000000000815260040161397590614653565b60405180910390fd5b600960009054906101000a900473ffffffffffffffffffffffffffffffffffffffff1673ffffffffffffffffffffffffffffffffffffffff1663a9059cbb600e6000858152602001908152602001600020600b01600084815260200190815260200160002060020160009054906101000a900473ffffffffffffffffffffffffffffffffffffffff16600e6000868152602001908152602001600020600301546040518363ffffffff1660e01b8152600401613a3b92919061451a565b602060405180830381600087803b158015613a5557600080fd5b505af1158015613a69573d6000803e3d6000fd5b505050506040513d601f19601f82011682018060405250810190613a8d9190613e6d565b506002600e6000848152602001908152602001600020600b01600083815260200190815260200160002060040160006101000a81548160ff02191690836002811115613b02577f4e487b7100000000000000000000000000000000000000000000000000000000600052602160045260246000fd5b02179055507f74c5c6f5cd4370cc0ab554a1afdb2b24b051b40c99102354ef424aed5cd6409d82600e6000858152602001908152602001600020600b016000848152602001908152602001600020604051613b5e9291906147e9565b60405180910390a15050565b6000613b7542611491565b821415613b855760009050613ba1565b6000544283613b949190614ac1565b613b9e9190614a36565b90505b919050565b600064010000000042613bb99190614d47565b905090565b613bc6613d1b565b6000826dffffffffffffffffffffffffffff1611613c19576040517f08c379a0000000000000000000000000000000000000000000000000000000008152600401613c1090614793565b60405180910390fd5b6040518060200160405280836dffffffffffffffffffffffffffff16607060ff16866dffffffffffffffffffffffffffff167bffffffffffffffffffffffffffffffffffffffffffffffffffffffff16901b613c759190614a05565b7bffffffffffffffffffffffffffffffffffffffffffffffffffffffff16815250905092915050565b6040518060a001604052806000815260200160008152602001600073ffffffffffffffffffffffffffffffffffffffff1681526020016000815260200160006002811115613d15577f4e487b7100000000000000000000000000000000000000000000000000000000600052602160045260246000fd5b81525090565b604051806020016040528060007bffffffffffffffffffffffffffffffffffffffffffffffffffffffff1681525090565b600081359050613d5b81615078565b92915050565b600081519050613d7081615078565b92915050565b600081519050613d858161508f565b92915050565b600081519050613d9a816150a6565b92915050565b600081359050613daf816150bd565b92915050565b600081519050613dc4816150bd565b92915050565b600081519050613dd9816150d4565b92915050565b600060208284031215613df157600080fd5b6000613dff84828501613d4c565b91505092915050565b600060208284031215613e1a57600080fd5b6000613e2884828501613d61565b91505092915050565b60008060408385031215613e4457600080fd5b6000613e5285828601613d4c565b9250506020613e6385828601613da0565b9150509250929050565b600060208284031215613e7f57600080fd5b6000613e8d84828501613d76565b91505092915050565b600080600060608486031215613eab57600080fd5b6000613eb986828701613d8b565b9350506020613eca86828701613d8b565b9250506040613edb86828701613dca565b9150509250925092565b600060208284031215613ef757600080fd5b6000613f0584828501613da0565b91505092915050565b600060208284031215613f2057600080fd5b6000613f2e84828501613db5565b91505092915050565b60008060408385031215613f4a57600080fd5b6000613f5885828601613da0565b9250506020613f6985828601613da0565b9150509250929050565b600080600060608486031215613f8857600080fd5b6000613f9686828701613da0565b9350506020613fa786828701613da0565b9250506040613fb886828701613da0565b9150509250925092565b6000613fce8383614310565b60a08301905092915050565b6000613fe68383614481565b60208301905092915050565b613ffb81614b60565b82525050565b61400a81614b60565b82525050565b600061401b8261494c565b614025818561497c565b93506140308361492c565b8060005b838110156140615781516140488882613fc2565b975061405383614962565b925050600181019050614034565b5085935050505092915050565b600061407982614957565b614083818561498d565b935061408e8361493c565b8060005b838110156140bf5781516140a68882613fda565b97506140b18361496f565b925050600181019050614092565b5085935050505092915050565b6140d581614b72565b82525050565b6140e481614c20565b82525050565b6140f381614c44565b82525050565b61410281614c68565b82525050565b61411181614c8c565b82525050565b61412081614c9e565b82525050565b6000614133601a8361499e565b915061413e82614e12565b602082019050919050565b6000614156600b8361499e565b915061416182614e3b565b602082019050919050565b6000614179600d8361499e565b915061418482614e64565b602082019050919050565b600061419c60088361499e565b91506141a782614e8d565b602082019050919050565b60006141bf60138361499e565b91506141ca82614eb6565b602082019050919050565b60006141e260138361499e565b91506141ed82614edf565b602082019050919050565b600061420560108361499e565b915061421082614f08565b602082019050919050565b6000614228601b8361499e565b915061423382614f31565b602082019050919050565b600061424b600d8361499e565b915061425682614f5a565b602082019050919050565b600061426e60198361499e565b915061427982614f83565b602082019050919050565b600061429160108361499e565b915061429c82614fac565b602082019050919050565b60006142b4600d8361499e565b91506142bf82614fd5565b602082019050919050565b60006142d760118361499e565b91506142e282614ffe565b602082019050919050565b60006142fa60178361499e565b915061430582615027565b602082019050919050565b60a0820160008201516143266000850182614481565b5060208201516143396020850182614481565b50604082015161434c6040850182613ff2565b50606082015161435f6060850182614481565b5060808201516143726080850182614117565b50505050565b60a08201600082015161438e6000850182614481565b5060208201516143a16020850182614481565b5060408201516143b46040850182613ff2565b5060608201516143c76060850182614481565b5060808201516143da6080850182614117565b50505050565b60a0820160008083015490506143f581614ce4565b6144026000860182614481565b506001830154905061441381614ce4565b6144206020860182614481565b506002830154905061443181614cb0565b61443e6040860182613ff2565b506003830154905061444f81614ce4565b61445c6060860182614481565b506004830154905061446d81614cca565b61447a6080860182614117565b5050505050565b61448a81614c06565b82525050565b61449981614c06565b82525050565b60006020820190506144b46000830184614001565b92915050565b60006040820190506144cf6000830185614001565b6144dc6020830184614001565b9392505050565b60006060820190506144f86000830186614001565b6145056020830185614001565b6145126040830184614490565b949350505050565b600060408201905061452f6000830185614001565b61453c6020830184614490565b9392505050565b6000602082019050818103600083015261455d8184614010565b905092915050565b6000602082019050818103600083015261457f818461406e565b905092915050565b600060208201905061459c60008301846140cc565b92915050565b60006020820190506145b760008301846140db565b92915050565b60006020820190506145d260008301846140ea565b92915050565b60006020820190506145ed60008301846140f9565b92915050565b6000602082019050818103600083015261460c81614126565b9050919050565b6000602082019050818103600083015261462c81614149565b9050919050565b6000602082019050818103600083015261464c8161416c565b9050919050565b6000602082019050818103600083015261466c8161418f565b9050919050565b6000602082019050818103600083015261468c816141b2565b9050919050565b600060208201905081810360008301526146ac816141d5565b9050919050565b600060208201905081810360008301526146cc816141f8565b9050919050565b600060208201905081810360008301526146ec8161421b565b9050919050565b6000602082019050818103600083015261470c8161423e565b9050919050565b6000602082019050818103600083015261472c81614261565b9050919050565b6000602082019050818103600083015261474c81614284565b9050919050565b6000602082019050818103600083015261476c816142a7565b9050919050565b6000602082019050818103600083015261478c816142ca565b9050919050565b600060208201905081810360008301526147ac816142ed565b9050919050565b600060a0820190506147c86000830184614378565b92915050565b60006020820190506147e36000830184614490565b92915050565b600060c0820190506147fe6000830185614490565b61480b60208301846143e0565b9392505050565b600061010082019050614828600083018b614490565b614835602083018a614490565b6148426040830189614490565b61484f6060830188614490565b61485c6080830187614490565b61486960a0830186614490565b61487660c0830185614490565b61488360e0830184614490565b9998505050505050505050565b6000610140820190506148a6600083018d614490565b6148b3602083018c614490565b6148c0604083018b614490565b6148cd606083018a614490565b6148da6080830189614490565b6148e760a0830188614490565b6148f460c0830187614490565b61490160e0830186614490565b61490f610100830185614490565b61491d610120830184614108565b9b9a5050505050505050505050565b6000819050602082019050919050565b6000819050602082019050919050565b600081519050919050565b600081519050919050565b6000602082019050919050565b6000602082019050919050565b600082825260208201905092915050565b600082825260208201905092915050565b600082825260208201905092915050565b60006149ba82614c06565b91506149c583614c06565b9250827fffffffffffffffffffffffffffffffffffffffffffffffffffffffffffffffff038211156149fa576149f9614d78565b5b828201905092915050565b6000614a1082614bde565b9150614a1b83614bde565b925082614a2b57614a2a614da7565b5b828204905092915050565b6000614a4182614c06565b9150614a4c83614c06565b925082614a5c57614a5b614da7565b5b828204905092915050565b6000614a7282614c06565b9150614a7d83614c06565b9250817fffffffffffffffffffffffffffffffffffffffffffffffffffffffffffffffff0483118215151615614ab657614ab5614d78565b5b828202905092915050565b6000614acc82614c06565b9150614ad783614c06565b925082821015614aea57614ae9614d78565b5b828203905092915050565b6000614b0082614c10565b9150614b0b83614c10565b925082821015614b1e57614b1d614d78565b5b828203905092915050565b600073ffffffffffffffffffffffffffffffffffffffff82169050919050565b600060ff82169050919050565b6000819050919050565b6000614b6b82614bbe565b9050919050565b60008115159050919050565b6000819050614b8c82615050565b919050565b6000819050614b9f82615064565b919050565b60006dffffffffffffffffffffffffffff82169050919050565b600073ffffffffffffffffffffffffffffffffffffffff82169050919050565b60007bffffffffffffffffffffffffffffffffffffffffffffffffffffffff82169050919050565b6000819050919050565b600063ffffffff82169050919050565b6000614c2b82614c32565b9050919050565b6000614c3d82614bbe565b9050919050565b6000614c4f82614c56565b9050919050565b6000614c6182614bbe565b9050919050565b6000614c7382614c7a565b9050919050565b6000614c8582614bbe565b9050919050565b6000614c9782614b7e565b9050919050565b6000614ca982614b91565b9050919050565b6000614cc3614cbe83614e05565b614b29565b9050919050565b6000614cdd614cd883614e05565b614b49565b9050919050565b6000614cf7614cf283614e05565b614b56565b9050919050565b6000614d0982614c06565b91507fffffffffffffffffffffffffffffffffffffffffffffffffffffffffffffffff821415614d3c57614d3b614d78565b5b600182019050919050565b6000614d5282614c06565b9150614d5d83614c06565b925082614d6d57614d6c614da7565b5b828206905092915050565b7f4e487b7100000000000000000000000000000000000000000000000000000000600052601160045260246000fd5b7f4e487b7100000000000000000000000000000000000000000000000000000000600052601260045260246000fd5b7f4e487b7100000000000000000000000000000000000000000000000000000000600052602160045260246000fd5b60008160001c9050919050565b7f4652414d4520454e442054494d45204e4f542052454143484544000000000000600082015250565b7f4c4f5420494e2050415354000000000000000000000000000000000000000000600082015250565b7f4e4f54204c4f54204f574e455200000000000000000000000000000000000000600082015250565b7f4e4f204f574e4552000000000000000000000000000000000000000000000000600082015250565b7f494e56414c4944204652414d4520505249434500000000000000000000000000600082015250565b7f4c4f5420414c524541445920534554544c454400000000000000000000000000600082015250565b7f505249434520495320544f4f204c4f5700000000000000000000000000000000600082015250565b7f54484953204c4f5420495320494e20412050415354204652414d450000000000600082015250565b7f414c5245414459204f574e455200000000000000000000000000000000000000600082015250565b7f415050524f56454420414d4f554e5420544f4f20534d414c4c00000000000000600082015250565b7f4652414d45204e4f5420434c4f53454400000000000000000000000000000000600082015250565b7f4652414d4520494e205041535400000000000000000000000000000000000000600082015250565b7f4c4f5420494e2050415354204652414d45000000000000000000000000000000600082015250565b7f4669786564506f696e743a204449565f42595f5a45524f000000000000000000600082015250565b6003811061506157615060614dd6565b5b50565b6003811061507557615074614dd6565b5b50565b61508181614b60565b811461508c57600080fd5b50565b61509881614b72565b81146150a357600080fd5b50565b6150af81614ba4565b81146150ba57600080fd5b50565b6150c681614c06565b81146150d157600080fd5b50565b6150dd81614c10565b81146150e857600080fd5b5056fea264697066735822122074ac20a7dca515a5d53c29441cb66e30d651ed7f67a15f1837e25396659b9de264736f6c63430008040033",
          "opcodes": "PUSH1 0x80 PUSH1 0x40 MSTORE PUSH1 0x64 PUSH1 0x2 SSTORE PUSH1 0x0 PUSH1 0xC PUSH1 0x0 PUSH2 0x100 EXP DUP2 SLOAD DUP2 PUSH1 0xFF MUL NOT AND SWAP1 DUP4 ISZERO ISZERO MUL OR SWAP1 SSTORE POP PUSH10 0xD3C21BCECCEDA1000000 PUSH1 0xD SSTORE CALLVALUE DUP1 ISZERO PUSH3 0x3F JUMPI PUSH1 0x0 DUP1 REVERT JUMPDEST POP PUSH1 0x40 MLOAD PUSH3 0x5578 CODESIZE SUB DUP1 PUSH3 0x5578 DUP4 CODECOPY DUP2 DUP2 ADD PUSH1 0x40 MSTORE DUP2 ADD SWAP1 PUSH3 0x65 SWAP2 SWAP1 PUSH3 0x238 JUMP JUMPDEST DUP10 PUSH1 0x9 PUSH1 0x0 PUSH2 0x100 EXP DUP2 SLOAD DUP2 PUSH20 0xFFFFFFFFFFFFFFFFFFFFFFFFFFFFFFFFFFFFFFFF MUL NOT AND SWAP1 DUP4 PUSH20 0xFFFFFFFFFFFFFFFFFFFFFFFFFFFFFFFFFFFFFFFF AND MUL OR SWAP1 SSTORE POP CALLER PUSH1 0xA PUSH1 0x0 PUSH2 0x100 EXP DUP2 SLOAD DUP2 PUSH20 0xFFFFFFFFFFFFFFFFFFFFFFFFFFFFFFFFFFFFFFFF MUL NOT AND SWAP1 DUP4 PUSH20 0xFFFFFFFFFFFFFFFFFFFFFFFFFFFFFFFFFFFFFFFF AND MUL OR SWAP1 SSTORE POP DUP8 PUSH1 0x0 DUP2 SWAP1 SSTORE POP DUP7 PUSH1 0x1 DUP2 SWAP1 SSTORE POP DUP6 PUSH1 0x7 DUP2 SWAP1 SSTORE POP DUP5 PUSH1 0x6 DUP2 SWAP1 SSTORE POP DUP9 PUSH1 0x4 PUSH1 0x0 PUSH2 0x100 EXP DUP2 SLOAD DUP2 PUSH20 0xFFFFFFFFFFFFFFFFFFFFFFFFFFFFFFFFFFFFFFFF MUL NOT AND SWAP1 DUP4 PUSH20 0xFFFFFFFFFFFFFFFFFFFFFFFFFFFFFFFFFFFFFFFF AND MUL OR SWAP1 SSTORE POP DUP4 PUSH1 0x5 DUP2 SWAP1 SSTORE POP DUP11 PUSH1 0x8 PUSH1 0x0 PUSH2 0x100 EXP DUP2 SLOAD DUP2 PUSH20 0xFFFFFFFFFFFFFFFFFFFFFFFFFFFFFFFFFFFFFFFF MUL NOT AND SWAP1 DUP4 PUSH20 0xFFFFFFFFFFFFFFFFFFFFFFFFFFFFFFFFFFFFFFFF AND MUL OR SWAP1 SSTORE POP DUP3 PUSH1 0x3 DUP2 SWAP1 SSTORE POP DUP2 PUSH1 0xB DUP2 SWAP1 SSTORE POP DUP1 PUSH1 0xC PUSH1 0x0 PUSH2 0x100 EXP DUP2 SLOAD DUP2 PUSH1 0xFF MUL NOT AND SWAP1 DUP4 ISZERO ISZERO MUL OR SWAP1 SSTORE POP POP POP POP POP POP POP POP POP POP POP POP PUSH3 0x447 JUMP JUMPDEST PUSH1 0x0 DUP2 MLOAD SWAP1 POP PUSH3 0x1D6 DUP2 PUSH3 0x3C5 JUMP JUMPDEST SWAP3 SWAP2 POP POP JUMP JUMPDEST PUSH1 0x0 DUP2 MLOAD SWAP1 POP PUSH3 0x1ED DUP2 PUSH3 0x3DF JUMP JUMPDEST SWAP3 SWAP2 POP POP JUMP JUMPDEST PUSH1 0x0 DUP2 MLOAD SWAP1 POP PUSH3 0x204 DUP2 PUSH3 0x3F9 JUMP JUMPDEST SWAP3 SWAP2 POP POP JUMP JUMPDEST PUSH1 0x0 DUP2 MLOAD SWAP1 POP PUSH3 0x21B DUP2 PUSH3 0x413 JUMP JUMPDEST SWAP3 SWAP2 POP POP JUMP JUMPDEST PUSH1 0x0 DUP2 MLOAD SWAP1 POP PUSH3 0x232 DUP2 PUSH3 0x42D JUMP JUMPDEST SWAP3 SWAP2 POP POP JUMP JUMPDEST PUSH1 0x0 DUP1 PUSH1 0x0 DUP1 PUSH1 0x0 DUP1 PUSH1 0x0 DUP1 PUSH1 0x0 DUP1 PUSH1 0x0 PUSH2 0x160 DUP13 DUP15 SUB SLT ISZERO PUSH3 0x25B JUMPI PUSH1 0x0 DUP1 REVERT JUMPDEST PUSH1 0x0 PUSH3 0x26B DUP15 DUP3 DUP16 ADD PUSH3 0x20A JUMP JUMPDEST SWAP12 POP POP PUSH1 0x20 PUSH3 0x27E DUP15 DUP3 DUP16 ADD PUSH3 0x1DC JUMP JUMPDEST SWAP11 POP POP PUSH1 0x40 PUSH3 0x291 DUP15 DUP3 DUP16 ADD PUSH3 0x1F3 JUMP JUMPDEST SWAP10 POP POP PUSH1 0x60 PUSH3 0x2A4 DUP15 DUP3 DUP16 ADD PUSH3 0x221 JUMP JUMPDEST SWAP9 POP POP PUSH1 0x80 PUSH3 0x2B7 DUP15 DUP3 DUP16 ADD PUSH3 0x221 JUMP JUMPDEST SWAP8 POP POP PUSH1 0xA0 PUSH3 0x2CA DUP15 DUP3 DUP16 ADD PUSH3 0x221 JUMP JUMPDEST SWAP7 POP POP PUSH1 0xC0 PUSH3 0x2DD DUP15 DUP3 DUP16 ADD PUSH3 0x221 JUMP JUMPDEST SWAP6 POP POP PUSH1 0xE0 PUSH3 0x2F0 DUP15 DUP3 DUP16 ADD PUSH3 0x221 JUMP JUMPDEST SWAP5 POP POP PUSH2 0x100 PUSH3 0x304 DUP15 DUP3 DUP16 ADD PUSH3 0x221 JUMP JUMPDEST SWAP4 POP POP PUSH2 0x120 PUSH3 0x318 DUP15 DUP3 DUP16 ADD PUSH3 0x221 JUMP JUMPDEST SWAP3 POP POP PUSH2 0x140 PUSH3 0x32C DUP15 DUP3 DUP16 ADD PUSH3 0x1C5 JUMP JUMPDEST SWAP2 POP POP SWAP3 SWAP6 SWAP9 SWAP12 POP SWAP3 SWAP6 SWAP9 SWAP12 SWAP1 SWAP4 SWAP7 SWAP10 POP JUMP JUMPDEST PUSH1 0x0 PUSH3 0x34C DUP3 PUSH3 0x39B JUMP JUMPDEST SWAP1 POP SWAP2 SWAP1 POP JUMP JUMPDEST PUSH1 0x0 DUP2 ISZERO ISZERO SWAP1 POP SWAP2 SWAP1 POP JUMP JUMPDEST PUSH1 0x0 PUSH3 0x36C DUP3 PUSH3 0x33F JUMP JUMPDEST SWAP1 POP SWAP2 SWAP1 POP JUMP JUMPDEST PUSH1 0x0 PUSH3 0x380 DUP3 PUSH3 0x33F JUMP JUMPDEST SWAP1 POP SWAP2 SWAP1 POP JUMP JUMPDEST PUSH1 0x0 PUSH3 0x394 DUP3 PUSH3 0x33F JUMP JUMPDEST SWAP1 POP SWAP2 SWAP1 POP JUMP JUMPDEST PUSH1 0x0 PUSH20 0xFFFFFFFFFFFFFFFFFFFFFFFFFFFFFFFFFFFFFFFF DUP3 AND SWAP1 POP SWAP2 SWAP1 POP JUMP JUMPDEST PUSH1 0x0 DUP2 SWAP1 POP SWAP2 SWAP1 POP JUMP JUMPDEST PUSH3 0x3D0 DUP2 PUSH3 0x353 JUMP JUMPDEST DUP2 EQ PUSH3 0x3DC JUMPI PUSH1 0x0 DUP1 REVERT JUMPDEST POP JUMP JUMPDEST PUSH3 0x3EA DUP2 PUSH3 0x35F JUMP JUMPDEST DUP2 EQ PUSH3 0x3F6 JUMPI PUSH1 0x0 DUP1 REVERT JUMPDEST POP JUMP JUMPDEST PUSH3 0x404 DUP2 PUSH3 0x373 JUMP JUMPDEST DUP2 EQ PUSH3 0x410 JUMPI PUSH1 0x0 DUP1 REVERT JUMPDEST POP JUMP JUMPDEST PUSH3 0x41E DUP2 PUSH3 0x387 JUMP JUMPDEST DUP2 EQ PUSH3 0x42A JUMPI PUSH1 0x0 DUP1 REVERT JUMPDEST POP JUMP JUMPDEST PUSH3 0x438 DUP2 PUSH3 0x3BB JUMP JUMPDEST DUP2 EQ PUSH3 0x444 JUMPI PUSH1 0x0 DUP1 REVERT JUMPDEST POP JUMP JUMPDEST PUSH2 0x5121 DUP1 PUSH3 0x457 PUSH1 0x0 CODECOPY PUSH1 0x0 RETURN INVALID PUSH1 0x80 PUSH1 0x40 MSTORE CALLVALUE DUP1 ISZERO PUSH2 0x10 JUMPI PUSH1 0x0 DUP1 REVERT JUMPDEST POP PUSH1 0x4 CALLDATASIZE LT PUSH2 0x211 JUMPI PUSH1 0x0 CALLDATALOAD PUSH1 0xE0 SHR DUP1 PUSH4 0x7E996639 GT PUSH2 0x125 JUMPI DUP1 PUSH4 0xA4D246FF GT PUSH2 0xAD JUMPI DUP1 PUSH4 0xC816841B GT PUSH2 0x7C JUMPI DUP1 PUSH4 0xC816841B EQ PUSH2 0x695 JUMPI DUP1 PUSH4 0xC84993AF EQ PUSH2 0x6B3 JUMPI DUP1 PUSH4 0xDA68CF8B EQ PUSH2 0x6E3 JUMPI DUP1 PUSH4 0xEF78D4FD EQ PUSH2 0x701 JUMPI DUP1 PUSH4 0xFF5C86B0 EQ PUSH2 0x71F JUMPI PUSH2 0x211 JUMP JUMPDEST DUP1 PUSH4 0xA4D246FF EQ PUSH2 0x60F JUMPI DUP1 PUSH4 0xAE169A50 EQ PUSH2 0x63F JUMPI DUP1 PUSH4 0xBB15D2DD EQ PUSH2 0x65B JUMPI DUP1 PUSH4 0xC45A0155 EQ PUSH2 0x677 JUMPI PUSH2 0x211 JUMP JUMPDEST DUP1 PUSH4 0x8F9ECA82 GT PUSH2 0xF4 JUMPI DUP1 PUSH4 0x8F9ECA82 EQ PUSH2 0x54E JUMPI DUP1 PUSH4 0x9495833C EQ PUSH2 0x56C JUMPI DUP1 PUSH4 0x9592DE18 EQ PUSH2 0x59C JUMPI DUP1 PUSH4 0x96B2C6F3 EQ PUSH2 0x5CC JUMPI DUP1 PUSH4 0xA10340BC EQ PUSH2 0x5D6 JUMPI PUSH2 0x211 JUMP JUMPDEST DUP1 PUSH4 0x7E996639 EQ PUSH2 0x4C6 JUMPI DUP1 PUSH4 0x81DA5700 EQ PUSH2 0x4E4 JUMPI DUP1 PUSH4 0x830AB119 EQ PUSH2 0x500 JUMPI DUP1 PUSH4 0x89DA88A3 EQ PUSH2 0x530 JUMPI PUSH2 0x211 JUMP JUMPDEST DUP1 PUSH4 0x41A8B6F8 GT PUSH2 0x1A8 JUMPI DUP1 PUSH4 0x5B3AD63E GT PUSH2 0x177 JUMPI DUP1 PUSH4 0x5B3AD63E EQ PUSH2 0x3E8 JUMPI DUP1 PUSH4 0x60F65C60 EQ PUSH2 0x418 JUMPI DUP1 PUSH4 0x659D0CA0 EQ PUSH2 0x448 JUMPI DUP1 PUSH4 0x6F1AEFC3 EQ PUSH2 0x478 JUMPI DUP1 PUSH4 0x7358C57A EQ PUSH2 0x4A8 JUMPI PUSH2 0x211 JUMP JUMPDEST DUP1 PUSH4 0x41A8B6F8 EQ PUSH2 0x35E JUMPI DUP1 PUSH4 0x45084775 EQ PUSH2 0x38E JUMPI DUP1 PUSH4 0x499A0FC4 EQ PUSH2 0x3AC JUMPI DUP1 PUSH4 0x527EB4BC EQ PUSH2 0x3CA JUMPI PUSH2 0x211 JUMP JUMPDEST DUP1 PUSH4 0x3C80D8EA GT PUSH2 0x1E4 JUMPI DUP1 PUSH4 0x3C80D8EA EQ PUSH2 0x2D6 JUMPI DUP1 PUSH4 0x3D09A82A EQ PUSH2 0x2F2 JUMPI DUP1 PUSH4 0x3E16BC20 EQ PUSH2 0x310 JUMPI DUP1 PUSH4 0x410F0710 EQ PUSH2 0x340 JUMPI PUSH2 0x211 JUMP JUMPDEST DUP1 PUSH4 0x50E8840 EQ PUSH2 0x216 JUMPI DUP1 PUSH4 0xEF19273 EQ PUSH2 0x246 JUMPI DUP1 PUSH4 0x14AA5A99 EQ PUSH2 0x276 JUMPI DUP1 PUSH4 0x3656D5EE EQ PUSH2 0x2A6 JUMPI JUMPDEST PUSH1 0x0 DUP1 REVERT JUMPDEST PUSH2 0x230 PUSH1 0x4 DUP1 CALLDATASIZE SUB DUP2 ADD SWAP1 PUSH2 0x22B SWAP2 SWAP1 PUSH2 0x3EE5 JUMP JUMPDEST PUSH2 0x73D JUMP JUMPDEST PUSH1 0x40 MLOAD PUSH2 0x23D SWAP2 SWAP1 PUSH2 0x47CE JUMP JUMPDEST PUSH1 0x40 MLOAD DUP1 SWAP2 SUB SWAP1 RETURN JUMPDEST PUSH2 0x260 PUSH1 0x4 DUP1 CALLDATASIZE SUB DUP2 ADD SWAP1 PUSH2 0x25B SWAP2 SWAP1 PUSH2 0x3DDF JUMP JUMPDEST PUSH2 0x761 JUMP JUMPDEST PUSH1 0x40 MLOAD PUSH2 0x26D SWAP2 SWAP1 PUSH2 0x47CE JUMP JUMPDEST PUSH1 0x40 MLOAD DUP1 SWAP2 SUB SWAP1 RETURN JUMPDEST PUSH2 0x290 PUSH1 0x4 DUP1 CALLDATASIZE SUB DUP2 ADD SWAP1 PUSH2 0x28B SWAP2 SWAP1 PUSH2 0x3F37 JUMP JUMPDEST PUSH2 0x7AD JUMP JUMPDEST PUSH1 0x40 MLOAD PUSH2 0x29D SWAP2 SWAP1 PUSH2 0x4565 JUMP JUMPDEST PUSH1 0x40 MLOAD DUP1 SWAP2 SUB SWAP1 RETURN JUMPDEST PUSH2 0x2C0 PUSH1 0x4 DUP1 CALLDATASIZE SUB DUP2 ADD SWAP1 PUSH2 0x2BB SWAP2 SWAP1 PUSH2 0x3F73 JUMP JUMPDEST PUSH2 0x944 JUMP JUMPDEST PUSH1 0x40 MLOAD PUSH2 0x2CD SWAP2 SWAP1 PUSH2 0x47CE JUMP JUMPDEST PUSH1 0x40 MLOAD DUP1 SWAP2 SUB SWAP1 RETURN JUMPDEST PUSH2 0x2F0 PUSH1 0x4 DUP1 CALLDATASIZE SUB DUP2 ADD SWAP1 PUSH2 0x2EB SWAP2 SWAP1 PUSH2 0x3F73 JUMP JUMPDEST PUSH2 0x9C9 JUMP JUMPDEST STOP JUMPDEST PUSH2 0x2FA PUSH2 0x1266 JUMP JUMPDEST PUSH1 0x40 MLOAD PUSH2 0x307 SWAP2 SWAP1 PUSH2 0x47CE JUMP JUMPDEST PUSH1 0x40 MLOAD DUP1 SWAP2 SUB SWAP1 RETURN JUMPDEST PUSH2 0x32A PUSH1 0x4 DUP1 CALLDATASIZE SUB DUP2 ADD SWAP1 PUSH2 0x325 SWAP2 SWAP1 PUSH2 0x3F37 JUMP JUMPDEST PUSH2 0x126C JUMP JUMPDEST PUSH1 0x40 MLOAD PUSH2 0x337 SWAP2 SWAP1 PUSH2 0x47CE JUMP JUMPDEST PUSH1 0x40 MLOAD DUP1 SWAP2 SUB SWAP1 RETURN JUMPDEST PUSH2 0x348 PUSH2 0x12CF JUMP JUMPDEST PUSH1 0x40 MLOAD PUSH2 0x355 SWAP2 SWAP1 PUSH2 0x47CE JUMP JUMPDEST PUSH1 0x40 MLOAD DUP1 SWAP2 SUB SWAP1 RETURN JUMPDEST PUSH2 0x378 PUSH1 0x4 DUP1 CALLDATASIZE SUB DUP2 ADD SWAP1 PUSH2 0x373 SWAP2 SWAP1 PUSH2 0x3EE5 JUMP JUMPDEST PUSH2 0x12D5 JUMP JUMPDEST PUSH1 0x40 MLOAD PUSH2 0x385 SWAP2 SWAP1 PUSH2 0x47CE JUMP JUMPDEST PUSH1 0x40 MLOAD DUP1 SWAP2 SUB SWAP1 RETURN JUMPDEST PUSH2 0x396 PUSH2 0x145F JUMP JUMPDEST PUSH1 0x40 MLOAD PUSH2 0x3A3 SWAP2 SWAP1 PUSH2 0x449F JUMP JUMPDEST PUSH1 0x40 MLOAD DUP1 SWAP2 SUB SWAP1 RETURN JUMPDEST PUSH2 0x3B4 PUSH2 0x1485 JUMP JUMPDEST PUSH1 0x40 MLOAD PUSH2 0x3C1 SWAP2 SWAP1 PUSH2 0x47CE JUMP JUMPDEST PUSH1 0x40 MLOAD DUP1 SWAP2 SUB SWAP1 RETURN JUMPDEST PUSH2 0x3D2 PUSH2 0x148B JUMP JUMPDEST PUSH1 0x40 MLOAD PUSH2 0x3DF SWAP2 SWAP1 PUSH2 0x47CE JUMP JUMPDEST PUSH1 0x40 MLOAD DUP1 SWAP2 SUB SWAP1 RETURN JUMPDEST PUSH2 0x402 PUSH1 0x4 DUP1 CALLDATASIZE SUB DUP2 ADD SWAP1 PUSH2 0x3FD SWAP2 SWAP1 PUSH2 0x3EE5 JUMP JUMPDEST PUSH2 0x1491 JUMP JUMPDEST PUSH1 0x40 MLOAD PUSH2 0x40F SWAP2 SWAP1 PUSH2 0x47CE JUMP JUMPDEST PUSH1 0x40 MLOAD DUP1 SWAP2 SUB SWAP1 RETURN JUMPDEST PUSH2 0x432 PUSH1 0x4 DUP1 CALLDATASIZE SUB DUP2 ADD SWAP1 PUSH2 0x42D SWAP2 SWAP1 PUSH2 0x3E31 JUMP JUMPDEST PUSH2 0x14D4 JUMP JUMPDEST PUSH1 0x40 MLOAD PUSH2 0x43F SWAP2 SWAP1 PUSH2 0x47CE JUMP JUMPDEST PUSH1 0x40 MLOAD DUP1 SWAP2 SUB SWAP1 RETURN JUMPDEST PUSH2 0x462 PUSH1 0x4 DUP1 CALLDATASIZE SUB DUP2 ADD SWAP1 PUSH2 0x45D SWAP2 SWAP1 PUSH2 0x3DDF JUMP JUMPDEST PUSH2 0x1505 JUMP JUMPDEST PUSH1 0x40 MLOAD PUSH2 0x46F SWAP2 SWAP1 PUSH2 0x4543 JUMP JUMPDEST PUSH1 0x40 MLOAD DUP1 SWAP2 SUB SWAP1 RETURN JUMPDEST PUSH2 0x492 PUSH1 0x4 DUP1 CALLDATASIZE SUB DUP2 ADD SWAP1 PUSH2 0x48D SWAP2 SWAP1 PUSH2 0x3F37 JUMP JUMPDEST PUSH2 0x1C41 JUMP JUMPDEST PUSH1 0x40 MLOAD PUSH2 0x49F SWAP2 SWAP1 PUSH2 0x47B3 JUMP JUMPDEST PUSH1 0x40 MLOAD DUP1 SWAP2 SUB SWAP1 RETURN JUMPDEST PUSH2 0x4B0 PUSH2 0x1D7E JUMP JUMPDEST PUSH1 0x40 MLOAD PUSH2 0x4BD SWAP2 SWAP1 PUSH2 0x47CE JUMP JUMPDEST PUSH1 0x40 MLOAD DUP1 SWAP2 SUB SWAP1 RETURN JUMPDEST PUSH2 0x4CE PUSH2 0x1D84 JUMP JUMPDEST PUSH1 0x40 MLOAD PUSH2 0x4DB SWAP2 SWAP1 PUSH2 0x47CE JUMP JUMPDEST PUSH1 0x40 MLOAD DUP1 SWAP2 SUB SWAP1 RETURN JUMPDEST PUSH2 0x4FE PUSH1 0x4 DUP1 CALLDATASIZE SUB DUP2 ADD SWAP1 PUSH2 0x4F9 SWAP2 SWAP1 PUSH2 0x3F37 JUMP JUMPDEST PUSH2 0x1D8A JUMP JUMPDEST STOP JUMPDEST PUSH2 0x51A PUSH1 0x4 DUP1 CALLDATASIZE SUB DUP2 ADD SWAP1 PUSH2 0x515 SWAP2 SWAP1 PUSH2 0x3EE5 JUMP JUMPDEST PUSH2 0x1E0E JUMP JUMPDEST PUSH1 0x40 MLOAD PUSH2 0x527 SWAP2 SWAP1 PUSH2 0x47CE JUMP JUMPDEST PUSH1 0x40 MLOAD DUP1 SWAP2 SUB SWAP1 RETURN JUMPDEST PUSH2 0x538 PUSH2 0x1E31 JUMP JUMPDEST PUSH1 0x40 MLOAD PUSH2 0x545 SWAP2 SWAP1 PUSH2 0x47CE JUMP JUMPDEST PUSH1 0x40 MLOAD DUP1 SWAP2 SUB SWAP1 RETURN JUMPDEST PUSH2 0x556 PUSH2 0x1E3E JUMP JUMPDEST PUSH1 0x40 MLOAD PUSH2 0x563 SWAP2 SWAP1 PUSH2 0x4587 JUMP JUMPDEST PUSH1 0x40 MLOAD DUP1 SWAP2 SUB SWAP1 RETURN JUMPDEST PUSH2 0x586 PUSH1 0x4 DUP1 CALLDATASIZE SUB DUP2 ADD SWAP1 PUSH2 0x581 SWAP2 SWAP1 PUSH2 0x3DDF JUMP JUMPDEST PUSH2 0x1E51 JUMP JUMPDEST PUSH1 0x40 MLOAD PUSH2 0x593 SWAP2 SWAP1 PUSH2 0x4565 JUMP JUMPDEST PUSH1 0x40 MLOAD DUP1 SWAP2 SUB SWAP1 RETURN JUMPDEST PUSH2 0x5B6 PUSH1 0x4 DUP1 CALLDATASIZE SUB DUP2 ADD SWAP1 PUSH2 0x5B1 SWAP2 SWAP1 PUSH2 0x3EE5 JUMP JUMPDEST PUSH2 0x1EE8 JUMP JUMPDEST PUSH1 0x40 MLOAD PUSH2 0x5C3 SWAP2 SWAP1 PUSH2 0x47CE JUMP JUMPDEST PUSH1 0x40 MLOAD DUP1 SWAP2 SUB SWAP1 RETURN JUMPDEST PUSH2 0x5D4 PUSH2 0x1F1E JUMP JUMPDEST STOP JUMPDEST PUSH2 0x5F0 PUSH1 0x4 DUP1 CALLDATASIZE SUB DUP2 ADD SWAP1 PUSH2 0x5EB SWAP2 SWAP1 PUSH2 0x3EE5 JUMP JUMPDEST PUSH2 0x2212 JUMP JUMPDEST PUSH1 0x40 MLOAD PUSH2 0x606 SWAP11 SWAP10 SWAP9 SWAP8 SWAP7 SWAP6 SWAP5 SWAP4 SWAP3 SWAP2 SWAP1 PUSH2 0x4890 JUMP JUMPDEST PUSH1 0x40 MLOAD DUP1 SWAP2 SUB SWAP1 RETURN JUMPDEST PUSH2 0x629 PUSH1 0x4 DUP1 CALLDATASIZE SUB DUP2 ADD SWAP1 PUSH2 0x624 SWAP2 SWAP1 PUSH2 0x3F73 JUMP JUMPDEST PUSH2 0x2273 JUMP JUMPDEST PUSH1 0x40 MLOAD PUSH2 0x636 SWAP2 SWAP1 PUSH2 0x47CE JUMP JUMPDEST PUSH1 0x40 MLOAD DUP1 SWAP2 SUB SWAP1 RETURN JUMPDEST PUSH2 0x659 PUSH1 0x4 DUP1 CALLDATASIZE SUB DUP2 ADD SWAP1 PUSH2 0x654 SWAP2 SWAP1 PUSH2 0x3EE5 JUMP JUMPDEST PUSH2 0x2329 JUMP JUMPDEST STOP JUMPDEST PUSH2 0x675 PUSH1 0x4 DUP1 CALLDATASIZE SUB DUP2 ADD SWAP1 PUSH2 0x670 SWAP2 SWAP1 PUSH2 0x3F73 JUMP JUMPDEST PUSH2 0x233E JUMP JUMPDEST STOP JUMPDEST PUSH2 0x67F PUSH2 0x2862 JUMP JUMPDEST PUSH1 0x40 MLOAD PUSH2 0x68C SWAP2 SWAP1 PUSH2 0x45D8 JUMP JUMPDEST PUSH1 0x40 MLOAD DUP1 SWAP2 SUB SWAP1 RETURN JUMPDEST PUSH2 0x69D PUSH2 0x2888 JUMP JUMPDEST PUSH1 0x40 MLOAD PUSH2 0x6AA SWAP2 SWAP1 PUSH2 0x45BD JUMP JUMPDEST PUSH1 0x40 MLOAD DUP1 SWAP2 SUB SWAP1 RETURN JUMPDEST PUSH2 0x6CD PUSH1 0x4 DUP1 CALLDATASIZE SUB DUP2 ADD SWAP1 PUSH2 0x6C8 SWAP2 SWAP1 PUSH2 0x3EE5 JUMP JUMPDEST PUSH2 0x28AE JUMP JUMPDEST PUSH1 0x40 MLOAD PUSH2 0x6DA SWAP2 SWAP1 PUSH2 0x47CE JUMP JUMPDEST PUSH1 0x40 MLOAD DUP1 SWAP2 SUB SWAP1 RETURN JUMPDEST PUSH2 0x6EB PUSH2 0x28CE JUMP JUMPDEST PUSH1 0x40 MLOAD PUSH2 0x6F8 SWAP2 SWAP1 PUSH2 0x45A2 JUMP JUMPDEST PUSH1 0x40 MLOAD DUP1 SWAP2 SUB SWAP1 RETURN JUMPDEST PUSH2 0x709 PUSH2 0x28F4 JUMP JUMPDEST PUSH1 0x40 MLOAD PUSH2 0x716 SWAP2 SWAP1 PUSH2 0x47CE JUMP JUMPDEST PUSH1 0x40 MLOAD DUP1 SWAP2 SUB SWAP1 RETURN JUMPDEST PUSH2 0x727 PUSH2 0x28FA JUMP JUMPDEST PUSH1 0x40 MLOAD PUSH2 0x734 SWAP2 SWAP1 PUSH2 0x47CE JUMP JUMPDEST PUSH1 0x40 MLOAD DUP1 SWAP2 SUB SWAP1 RETURN JUMPDEST PUSH1 0x10 DUP2 DUP2 SLOAD DUP2 LT PUSH2 0x74D JUMPI PUSH1 0x0 DUP1 REVERT JUMPDEST SWAP1 PUSH1 0x0 MSTORE PUSH1 0x20 PUSH1 0x0 KECCAK256 ADD PUSH1 0x0 SWAP2 POP SWAP1 POP SLOAD DUP2 JUMP JUMPDEST PUSH1 0x0 PUSH1 0xF PUSH1 0x0 DUP4 PUSH20 0xFFFFFFFFFFFFFFFFFFFFFFFFFFFFFFFFFFFFFFFF AND PUSH20 0xFFFFFFFFFFFFFFFFFFFFFFFFFFFFFFFFFFFFFFFF AND DUP2 MSTORE PUSH1 0x20 ADD SWAP1 DUP2 MSTORE PUSH1 0x20 ADD PUSH1 0x0 KECCAK256 DUP1 SLOAD SWAP1 POP SWAP1 POP SWAP2 SWAP1 POP JUMP JUMPDEST PUSH1 0x60 DUP2 PUSH8 0xFFFFFFFFFFFFFFFF DUP2 GT ISZERO PUSH2 0x7EF JUMPI PUSH32 0x4E487B7100000000000000000000000000000000000000000000000000000000 PUSH1 0x0 MSTORE PUSH1 0x41 PUSH1 0x4 MSTORE PUSH1 0x24 PUSH1 0x0 REVERT JUMPDEST PUSH1 0x40 MLOAD SWAP1 DUP1 DUP3 MSTORE DUP1 PUSH1 0x20 MUL PUSH1 0x20 ADD DUP3 ADD PUSH1 0x40 MSTORE DUP1 ISZERO PUSH2 0x81D JUMPI DUP2 PUSH1 0x20 ADD PUSH1 0x20 DUP3 MUL DUP1 CALLDATASIZE DUP4 CALLDATACOPY DUP1 DUP3 ADD SWAP2 POP POP SWAP1 POP JUMPDEST POP SWAP1 POP PUSH1 0x0 JUMPDEST DUP3 DUP2 GT PUSH2 0x93D JUMPI PUSH1 0x0 DUP2 PUSH1 0x0 SLOAD PUSH2 0x83A SWAP2 SWAP1 PUSH2 0x4A67 JUMP JUMPDEST DUP6 PUSH2 0x845 SWAP2 SWAP1 PUSH2 0x49AF JUMP JUMPDEST SWAP1 POP PUSH1 0x0 PUSH1 0x2 DUP2 GT ISZERO PUSH2 0x881 JUMPI PUSH32 0x4E487B7100000000000000000000000000000000000000000000000000000000 PUSH1 0x0 MSTORE PUSH1 0x21 PUSH1 0x4 MSTORE PUSH1 0x24 PUSH1 0x0 REVERT JUMPDEST PUSH1 0xE PUSH1 0x0 DUP4 DUP2 MSTORE PUSH1 0x20 ADD SWAP1 DUP2 MSTORE PUSH1 0x20 ADD PUSH1 0x0 KECCAK256 PUSH1 0x9 ADD PUSH1 0x0 SWAP1 SLOAD SWAP1 PUSH2 0x100 EXP SWAP1 DIV PUSH1 0xFF AND PUSH1 0x2 DUP2 GT ISZERO PUSH2 0x8DD JUMPI PUSH32 0x4E487B7100000000000000000000000000000000000000000000000000000000 PUSH1 0x0 MSTORE PUSH1 0x21 PUSH1 0x4 MSTORE PUSH1 0x24 PUSH1 0x0 REVERT JUMPDEST EQ PUSH2 0x929 JUMPI DUP1 DUP4 DUP4 DUP2 MLOAD DUP2 LT PUSH2 0x91C JUMPI PUSH32 0x4E487B7100000000000000000000000000000000000000000000000000000000 PUSH1 0x0 MSTORE PUSH1 0x32 PUSH1 0x4 MSTORE PUSH1 0x24 PUSH1 0x0 REVERT JUMPDEST PUSH1 0x20 MUL PUSH1 0x20 ADD ADD DUP2 DUP2 MSTORE POP POP JUMPDEST POP DUP1 DUP1 PUSH2 0x935 SWAP1 PUSH2 0x4CFE JUMP JUMPDEST SWAP2 POP POP PUSH2 0x823 JUMP JUMPDEST POP SWAP3 SWAP2 POP POP JUMP JUMPDEST PUSH1 0x0 DUP1 PUSH2 0x950 DUP6 PUSH2 0x1491 JUMP JUMPDEST SWAP1 POP PUSH1 0x0 PUSH2 0x990 DUP3 PUSH1 0xE PUSH1 0x0 DUP6 DUP2 MSTORE PUSH1 0x20 ADD SWAP1 DUP2 MSTORE PUSH1 0x20 ADD PUSH1 0x0 KECCAK256 PUSH1 0xB ADD PUSH1 0x0 PUSH2 0x979 DUP10 PUSH2 0x1EE8 JUMP JUMPDEST DUP2 MSTORE PUSH1 0x20 ADD SWAP1 DUP2 MSTORE PUSH1 0x20 ADD PUSH1 0x0 KECCAK256 PUSH1 0x3 ADD SLOAD PUSH2 0x2900 JUMP JUMPDEST SWAP1 POP PUSH1 0x0 PUSH2 0x99E DUP4 DUP7 PUSH2 0x2900 JUMP JUMPDEST SWAP1 POP DUP1 DUP3 LT PUSH2 0x9B0 JUMPI PUSH1 0x0 SWAP4 POP PUSH2 0x9BF JUMP JUMPDEST DUP2 DUP2 PUSH2 0x9BC SWAP2 SWAP1 PUSH2 0x4AC1 JUMP JUMPDEST SWAP4 POP JUMPDEST POP POP POP SWAP4 SWAP3 POP POP POP JUMP JUMPDEST PUSH1 0x0 PUSH2 0x9D4 DUP5 PUSH2 0x29A3 JUMP JUMPDEST SWAP1 POP PUSH2 0x9E0 DUP2 DUP4 PUSH2 0x2B53 JUMP JUMPDEST PUSH1 0x0 PUSH2 0x9EC DUP3 DUP6 PUSH2 0x2BAB JUMP JUMPDEST SWAP1 POP PUSH2 0x9F7 TIMESTAMP PUSH2 0x1491 JUMP JUMPDEST DUP3 LT ISZERO PUSH2 0xA39 JUMPI PUSH1 0x40 MLOAD PUSH32 0x8C379A000000000000000000000000000000000000000000000000000000000 DUP2 MSTORE PUSH1 0x4 ADD PUSH2 0xA30 SWAP1 PUSH2 0x4613 JUMP JUMPDEST PUSH1 0x40 MLOAD DUP1 SWAP2 SUB SWAP1 REVERT JUMPDEST PUSH1 0xE PUSH1 0x0 DUP4 DUP2 MSTORE PUSH1 0x20 ADD SWAP1 DUP2 MSTORE PUSH1 0x20 ADD PUSH1 0x0 KECCAK256 PUSH1 0xB ADD PUSH1 0x0 DUP3 DUP2 MSTORE PUSH1 0x20 ADD SWAP1 DUP2 MSTORE PUSH1 0x20 ADD PUSH1 0x0 KECCAK256 PUSH1 0x2 ADD PUSH1 0x0 SWAP1 SLOAD SWAP1 PUSH2 0x100 EXP SWAP1 DIV PUSH20 0xFFFFFFFFFFFFFFFFFFFFFFFFFFFFFFFFFFFFFFFF AND PUSH20 0xFFFFFFFFFFFFFFFFFFFFFFFFFFFFFFFFFFFFFFFF AND CALLER PUSH20 0xFFFFFFFFFFFFFFFFFFFFFFFFFFFFFFFFFFFFFFFF AND EQ ISZERO PUSH2 0xAF2 JUMPI PUSH1 0x40 MLOAD PUSH32 0x8C379A000000000000000000000000000000000000000000000000000000000 DUP2 MSTORE PUSH1 0x4 ADD PUSH2 0xAE9 SWAP1 PUSH2 0x46F3 JUMP JUMPDEST PUSH1 0x40 MLOAD DUP1 SWAP2 SUB SWAP1 REVERT JUMPDEST PUSH1 0x0 PUSH2 0xAFE DUP4 DUP6 PUSH2 0x2900 JUMP JUMPDEST SWAP1 POP DUP1 PUSH1 0xE PUSH1 0x0 DUP6 DUP2 MSTORE PUSH1 0x20 ADD SWAP1 DUP2 MSTORE PUSH1 0x20 ADD PUSH1 0x0 KECCAK256 PUSH1 0xB ADD PUSH1 0x0 DUP5 DUP2 MSTORE PUSH1 0x20 ADD SWAP1 DUP2 MSTORE PUSH1 0x20 ADD PUSH1 0x0 KECCAK256 PUSH1 0x3 ADD SLOAD PUSH2 0xB36 SWAP2 SWAP1 PUSH2 0x49AF JUMP JUMPDEST PUSH1 0x9 PUSH1 0x0 SWAP1 SLOAD SWAP1 PUSH2 0x100 EXP SWAP1 DIV PUSH20 0xFFFFFFFFFFFFFFFFFFFFFFFFFFFFFFFFFFFFFFFF AND PUSH20 0xFFFFFFFFFFFFFFFFFFFFFFFFFFFFFFFFFFFFFFFF AND PUSH4 0xDD62ED3E CALLER ADDRESS PUSH1 0x40 MLOAD DUP4 PUSH4 0xFFFFFFFF AND PUSH1 0xE0 SHL DUP2 MSTORE PUSH1 0x4 ADD PUSH2 0xB93 SWAP3 SWAP2 SWAP1 PUSH2 0x44BA JUMP JUMPDEST PUSH1 0x20 PUSH1 0x40 MLOAD DUP1 DUP4 SUB DUP2 DUP7 DUP1 EXTCODESIZE ISZERO DUP1 ISZERO PUSH2 0xBAB JUMPI PUSH1 0x0 DUP1 REVERT JUMPDEST POP GAS STATICCALL ISZERO DUP1 ISZERO PUSH2 0xBBF JUMPI RETURNDATASIZE PUSH1 0x0 DUP1 RETURNDATACOPY RETURNDATASIZE PUSH1 0x0 REVERT JUMPDEST POP POP POP POP PUSH1 0x40 MLOAD RETURNDATASIZE PUSH1 0x1F NOT PUSH1 0x1F DUP3 ADD AND DUP3 ADD DUP1 PUSH1 0x40 MSTORE POP DUP2 ADD SWAP1 PUSH2 0xBE3 SWAP2 SWAP1 PUSH2 0x3F0E JUMP JUMPDEST LT ISZERO PUSH2 0xC24 JUMPI PUSH1 0x40 MLOAD PUSH32 0x8C379A000000000000000000000000000000000000000000000000000000000 DUP2 MSTORE PUSH1 0x4 ADD PUSH2 0xC1B SWAP1 PUSH2 0x4713 JUMP JUMPDEST PUSH1 0x40 MLOAD DUP1 SWAP2 SUB SWAP1 REVERT JUMPDEST PUSH1 0x9 PUSH1 0x0 SWAP1 SLOAD SWAP1 PUSH2 0x100 EXP SWAP1 DIV PUSH20 0xFFFFFFFFFFFFFFFFFFFFFFFFFFFFFFFFFFFFFFFF AND PUSH20 0xFFFFFFFFFFFFFFFFFFFFFFFFFFFFFFFFFFFFFFFF AND PUSH4 0x23B872DD CALLER ADDRESS DUP5 PUSH1 0xE PUSH1 0x0 DUP10 DUP2 MSTORE PUSH1 0x20 ADD SWAP1 DUP2 MSTORE PUSH1 0x20 ADD PUSH1 0x0 KECCAK256 PUSH1 0xB ADD PUSH1 0x0 DUP9 DUP2 MSTORE PUSH1 0x20 ADD SWAP1 DUP2 MSTORE PUSH1 0x20 ADD PUSH1 0x0 KECCAK256 PUSH1 0x3 ADD SLOAD PUSH2 0xC9A SWAP2 SWAP1 PUSH2 0x49AF JUMP JUMPDEST PUSH1 0x40 MLOAD DUP5 PUSH4 0xFFFFFFFF AND PUSH1 0xE0 SHL DUP2 MSTORE PUSH1 0x4 ADD PUSH2 0xCB8 SWAP4 SWAP3 SWAP2 SWAP1 PUSH2 0x44E3 JUMP JUMPDEST PUSH1 0x20 PUSH1 0x40 MLOAD DUP1 DUP4 SUB DUP2 PUSH1 0x0 DUP8 DUP1 EXTCODESIZE ISZERO DUP1 ISZERO PUSH2 0xCD2 JUMPI PUSH1 0x0 DUP1 REVERT JUMPDEST POP GAS CALL ISZERO DUP1 ISZERO PUSH2 0xCE6 JUMPI RETURNDATASIZE PUSH1 0x0 DUP1 RETURNDATACOPY RETURNDATASIZE PUSH1 0x0 REVERT JUMPDEST POP POP POP POP PUSH1 0x40 MLOAD RETURNDATASIZE PUSH1 0x1F NOT PUSH1 0x1F DUP3 ADD AND DUP3 ADD DUP1 PUSH1 0x40 MSTORE POP DUP2 ADD SWAP1 PUSH2 0xD0A SWAP2 SWAP1 PUSH2 0x3E6D JUMP JUMPDEST POP DUP1 PUSH1 0xE PUSH1 0x0 DUP6 DUP2 MSTORE PUSH1 0x20 ADD SWAP1 DUP2 MSTORE PUSH1 0x20 ADD PUSH1 0x0 KECCAK256 PUSH1 0x3 ADD SLOAD PUSH2 0xD2D SWAP2 SWAP1 PUSH2 0x49AF JUMP JUMPDEST PUSH1 0xE PUSH1 0x0 DUP6 DUP2 MSTORE PUSH1 0x20 ADD SWAP1 DUP2 MSTORE PUSH1 0x20 ADD PUSH1 0x0 KECCAK256 PUSH1 0x3 ADD DUP2 SWAP1 SSTORE POP PUSH1 0x1 PUSH1 0x2 DUP2 GT ISZERO PUSH2 0xD81 JUMPI PUSH32 0x4E487B7100000000000000000000000000000000000000000000000000000000 PUSH1 0x0 MSTORE PUSH1 0x21 PUSH1 0x4 MSTORE PUSH1 0x24 PUSH1 0x0 REVERT JUMPDEST PUSH1 0xE PUSH1 0x0 DUP6 DUP2 MSTORE PUSH1 0x20 ADD SWAP1 DUP2 MSTORE PUSH1 0x20 ADD PUSH1 0x0 KECCAK256 PUSH1 0xB ADD PUSH1 0x0 DUP5 DUP2 MSTORE PUSH1 0x20 ADD SWAP1 DUP2 MSTORE PUSH1 0x20 ADD PUSH1 0x0 KECCAK256 PUSH1 0x4 ADD PUSH1 0x0 SWAP1 SLOAD SWAP1 PUSH2 0x100 EXP SWAP1 DIV PUSH1 0xFF AND PUSH1 0x2 DUP2 GT ISZERO PUSH2 0xDF1 JUMPI PUSH32 0x4E487B7100000000000000000000000000000000000000000000000000000000 PUSH1 0x0 MSTORE PUSH1 0x21 PUSH1 0x4 MSTORE PUSH1 0x24 PUSH1 0x0 REVERT JUMPDEST EQ ISZERO PUSH2 0xFA0 JUMPI PUSH1 0x0 PUSH2 0xE2D DUP5 PUSH1 0xE PUSH1 0x0 DUP8 DUP2 MSTORE PUSH1 0x20 ADD SWAP1 DUP2 MSTORE PUSH1 0x20 ADD PUSH1 0x0 KECCAK256 PUSH1 0xB ADD PUSH1 0x0 DUP7 DUP2 MSTORE PUSH1 0x20 ADD SWAP1 DUP2 MSTORE PUSH1 0x20 ADD PUSH1 0x0 KECCAK256 PUSH1 0x3 ADD SLOAD PUSH2 0x2900 JUMP JUMPDEST SWAP1 POP PUSH1 0x9 PUSH1 0x0 SWAP1 SLOAD SWAP1 PUSH2 0x100 EXP SWAP1 DIV PUSH20 0xFFFFFFFFFFFFFFFFFFFFFFFFFFFFFFFFFFFFFFFF AND PUSH20 0xFFFFFFFFFFFFFFFFFFFFFFFFFFFFFFFFFFFFFFFF AND PUSH4 0xA9059CBB PUSH1 0xE PUSH1 0x0 DUP8 DUP2 MSTORE PUSH1 0x20 ADD SWAP1 DUP2 MSTORE PUSH1 0x20 ADD PUSH1 0x0 KECCAK256 PUSH1 0xB ADD PUSH1 0x0 DUP7 DUP2 MSTORE PUSH1 0x20 ADD SWAP1 DUP2 MSTORE PUSH1 0x20 ADD PUSH1 0x0 KECCAK256 PUSH1 0x2 ADD PUSH1 0x0 SWAP1 SLOAD SWAP1 PUSH2 0x100 EXP SWAP1 DIV PUSH20 0xFFFFFFFFFFFFFFFFFFFFFFFFFFFFFFFFFFFFFFFF AND PUSH1 0xE PUSH1 0x0 DUP9 DUP2 MSTORE PUSH1 0x20 ADD SWAP1 DUP2 MSTORE PUSH1 0x20 ADD PUSH1 0x0 KECCAK256 PUSH1 0xB ADD PUSH1 0x0 DUP8 DUP2 MSTORE PUSH1 0x20 ADD SWAP1 DUP2 MSTORE PUSH1 0x20 ADD PUSH1 0x0 KECCAK256 PUSH1 0x3 ADD SLOAD DUP5 PUSH2 0xEEE SWAP2 SWAP1 PUSH2 0x49AF JUMP JUMPDEST PUSH1 0x40 MLOAD DUP4 PUSH4 0xFFFFFFFF AND PUSH1 0xE0 SHL DUP2 MSTORE PUSH1 0x4 ADD PUSH2 0xF0B SWAP3 SWAP2 SWAP1 PUSH2 0x451A JUMP JUMPDEST PUSH1 0x20 PUSH1 0x40 MLOAD DUP1 DUP4 SUB DUP2 PUSH1 0x0 DUP8 DUP1 EXTCODESIZE ISZERO DUP1 ISZERO PUSH2 0xF25 JUMPI PUSH1 0x0 DUP1 REVERT JUMPDEST POP GAS CALL ISZERO DUP1 ISZERO PUSH2 0xF39 JUMPI RETURNDATASIZE PUSH1 0x0 DUP1 RETURNDATACOPY RETURNDATASIZE PUSH1 0x0 REVERT JUMPDEST POP POP POP POP PUSH1 0x40 MLOAD RETURNDATASIZE PUSH1 0x1F NOT PUSH1 0x1F DUP3 ADD AND DUP3 ADD DUP1 PUSH1 0x40 MSTORE POP DUP2 ADD SWAP1 PUSH2 0xF5D SWAP2 SWAP1 PUSH2 0x3E6D JUMP JUMPDEST POP DUP1 PUSH1 0xE PUSH1 0x0 DUP7 DUP2 MSTORE PUSH1 0x20 ADD SWAP1 DUP2 MSTORE PUSH1 0x20 ADD PUSH1 0x0 KECCAK256 PUSH1 0x3 ADD SLOAD PUSH2 0xF80 SWAP2 SWAP1 PUSH2 0x4AC1 JUMP JUMPDEST PUSH1 0xE PUSH1 0x0 DUP7 DUP2 MSTORE PUSH1 0x20 ADD SWAP1 DUP2 MSTORE PUSH1 0x20 ADD PUSH1 0x0 KECCAK256 PUSH1 0x3 ADD DUP2 SWAP1 SSTORE POP POP PUSH2 0x101A JUMP JUMPDEST PUSH1 0x1 PUSH1 0xE PUSH1 0x0 DUP6 DUP2 MSTORE PUSH1 0x20 ADD SWAP1 DUP2 MSTORE PUSH1 0x20 ADD PUSH1 0x0 KECCAK256 PUSH1 0xB ADD PUSH1 0x0 DUP5 DUP2 MSTORE PUSH1 0x20 ADD SWAP1 DUP2 MSTORE PUSH1 0x20 ADD PUSH1 0x0 KECCAK256 PUSH1 0x4 ADD PUSH1 0x0 PUSH2 0x100 EXP DUP2 SLOAD DUP2 PUSH1 0xFF MUL NOT AND SWAP1 DUP4 PUSH1 0x2 DUP2 GT ISZERO PUSH2 0x1014 JUMPI PUSH32 0x4E487B7100000000000000000000000000000000000000000000000000000000 PUSH1 0x0 MSTORE PUSH1 0x21 PUSH1 0x4 MSTORE PUSH1 0x24 PUSH1 0x0 REVERT JUMPDEST MUL OR SWAP1 SSTORE POP JUMPDEST CALLER PUSH1 0xE PUSH1 0x0 DUP6 DUP2 MSTORE PUSH1 0x20 ADD SWAP1 DUP2 MSTORE PUSH1 0x20 ADD PUSH1 0x0 KECCAK256 PUSH1 0xB ADD PUSH1 0x0 DUP5 DUP2 MSTORE PUSH1 0x20 ADD SWAP1 DUP2 MSTORE PUSH1 0x20 ADD PUSH1 0x0 KECCAK256 PUSH1 0x2 ADD PUSH1 0x0 PUSH2 0x100 EXP DUP2 SLOAD DUP2 PUSH20 0xFFFFFFFFFFFFFFFFFFFFFFFFFFFFFFFFFFFFFFFF MUL NOT AND SWAP1 DUP4 PUSH20 0xFFFFFFFFFFFFFFFFFFFFFFFFFFFFFFFFFFFFFFFF AND MUL OR SWAP1 SSTORE POP DUP4 PUSH1 0xE PUSH1 0x0 DUP6 DUP2 MSTORE PUSH1 0x20 ADD SWAP1 DUP2 MSTORE PUSH1 0x20 ADD PUSH1 0x0 KECCAK256 PUSH1 0xB ADD PUSH1 0x0 DUP5 DUP2 MSTORE PUSH1 0x20 ADD SWAP1 DUP2 MSTORE PUSH1 0x20 ADD PUSH1 0x0 KECCAK256 PUSH1 0x3 ADD DUP2 SWAP1 SSTORE POP PUSH1 0xF PUSH1 0x0 CALLER PUSH20 0xFFFFFFFFFFFFFFFFFFFFFFFFFFFFFFFFFFFFFFFF AND PUSH20 0xFFFFFFFFFFFFFFFFFFFFFFFFFFFFFFFFFFFFFFFF AND DUP2 MSTORE PUSH1 0x20 ADD SWAP1 DUP2 MSTORE PUSH1 0x20 ADD PUSH1 0x0 KECCAK256 DUP4 SWAP1 DUP1 PUSH1 0x1 DUP2 SLOAD ADD DUP1 DUP3 SSTORE DUP1 SWAP2 POP POP PUSH1 0x1 SWAP1 SUB SWAP1 PUSH1 0x0 MSTORE PUSH1 0x20 PUSH1 0x0 KECCAK256 ADD PUSH1 0x0 SWAP1 SWAP2 SWAP1 SWAP2 SWAP1 SWAP2 POP SSTORE PUSH2 0x1120 PUSH2 0x1F1E JUMP JUMPDEST PUSH32 0xF733BD7F4402CB7D331B34D5CD22F432B9BF71A833F786974545860D74976AF2 DUP4 PUSH1 0xE PUSH1 0x0 DUP7 DUP2 MSTORE PUSH1 0x20 ADD SWAP1 DUP2 MSTORE PUSH1 0x20 ADD PUSH1 0x0 KECCAK256 PUSH1 0x1 ADD SLOAD PUSH1 0xE PUSH1 0x0 DUP8 DUP2 MSTORE PUSH1 0x20 ADD SWAP1 DUP2 MSTORE PUSH1 0x20 ADD PUSH1 0x0 KECCAK256 PUSH1 0x2 ADD SLOAD PUSH1 0xE PUSH1 0x0 DUP9 DUP2 MSTORE PUSH1 0x20 ADD SWAP1 DUP2 MSTORE PUSH1 0x20 ADD PUSH1 0x0 KECCAK256 PUSH1 0x5 ADD SLOAD PUSH1 0xE PUSH1 0x0 DUP10 DUP2 MSTORE PUSH1 0x20 ADD SWAP1 DUP2 MSTORE PUSH1 0x20 ADD PUSH1 0x0 KECCAK256 PUSH1 0x6 ADD SLOAD PUSH1 0xE PUSH1 0x0 DUP11 DUP2 MSTORE PUSH1 0x20 ADD SWAP1 DUP2 MSTORE PUSH1 0x20 ADD PUSH1 0x0 KECCAK256 PUSH1 0x7 ADD SLOAD PUSH1 0xE PUSH1 0x0 DUP12 DUP2 MSTORE PUSH1 0x20 ADD SWAP1 DUP2 MSTORE PUSH1 0x20 ADD PUSH1 0x0 KECCAK256 PUSH1 0x8 ADD SLOAD PUSH1 0xE PUSH1 0x0 DUP13 DUP2 MSTORE PUSH1 0x20 ADD SWAP1 DUP2 MSTORE PUSH1 0x20 ADD PUSH1 0x0 KECCAK256 PUSH1 0x3 ADD SLOAD PUSH1 0x40 MLOAD PUSH2 0x11F7 SWAP9 SWAP8 SWAP7 SWAP6 SWAP5 SWAP4 SWAP3 SWAP2 SWAP1 PUSH2 0x4812 JUMP JUMPDEST PUSH1 0x40 MLOAD DUP1 SWAP2 SUB SWAP1 LOG1 PUSH32 0x74C5C6F5CD4370CC0AB554A1AFDB2B24B051B40C99102354EF424AED5CD6409D DUP4 PUSH1 0xE PUSH1 0x0 DUP7 DUP2 MSTORE PUSH1 0x20 ADD SWAP1 DUP2 MSTORE PUSH1 0x20 ADD PUSH1 0x0 KECCAK256 PUSH1 0xB ADD PUSH1 0x0 DUP6 DUP2 MSTORE PUSH1 0x20 ADD SWAP1 DUP2 MSTORE PUSH1 0x20 ADD PUSH1 0x0 KECCAK256 PUSH1 0x40 MLOAD PUSH2 0x1256 SWAP3 SWAP2 SWAP1 PUSH2 0x47E9 JUMP JUMPDEST PUSH1 0x40 MLOAD DUP1 SWAP2 SUB SWAP1 LOG1 POP POP POP POP POP POP JUMP JUMPDEST PUSH1 0xB SLOAD DUP2 JUMP JUMPDEST PUSH1 0x0 PUSH1 0xE PUSH1 0x0 DUP5 DUP2 MSTORE PUSH1 0x20 ADD SWAP1 DUP2 MSTORE PUSH1 0x20 ADD PUSH1 0x0 KECCAK256 PUSH1 0xA ADD DUP3 DUP2 SLOAD DUP2 LT PUSH2 0x12BC JUMPI PUSH32 0x4E487B7100000000000000000000000000000000000000000000000000000000 PUSH1 0x0 MSTORE PUSH1 0x32 PUSH1 0x4 MSTORE PUSH1 0x24 PUSH1 0x0 REVERT JUMPDEST SWAP1 PUSH1 0x0 MSTORE PUSH1 0x20 PUSH1 0x0 KECCAK256 ADD SLOAD SWAP1 POP SWAP3 SWAP2 POP POP JUMP JUMPDEST PUSH1 0x6 SLOAD DUP2 JUMP JUMPDEST PUSH1 0x0 PUSH2 0x12E0 DUP3 PUSH2 0x2D17 JUMP JUMPDEST PUSH1 0x0 PUSH1 0xE PUSH1 0x0 DUP5 DUP2 MSTORE PUSH1 0x20 ADD SWAP1 DUP2 MSTORE PUSH1 0x20 ADD PUSH1 0x0 KECCAK256 PUSH1 0x1 ADD SLOAD PUSH1 0xE PUSH1 0x0 DUP6 DUP2 MSTORE PUSH1 0x20 ADD SWAP1 DUP2 MSTORE PUSH1 0x20 ADD PUSH1 0x0 KECCAK256 PUSH1 0x2 ADD SLOAD PUSH2 0x131A SWAP2 SWAP1 PUSH2 0x4AC1 JUMP JUMPDEST SWAP1 POP PUSH1 0xC PUSH1 0x0 SWAP1 SLOAD SWAP1 PUSH2 0x100 EXP SWAP1 DIV PUSH1 0xFF AND ISZERO PUSH2 0x13BF JUMPI PUSH2 0x13A8 PUSH1 0x40 MLOAD DUP1 PUSH1 0x20 ADD PUSH1 0x40 MSTORE DUP1 DUP4 PUSH1 0xE PUSH1 0x0 DUP9 DUP2 MSTORE PUSH1 0x20 ADD SWAP1 DUP2 MSTORE PUSH1 0x20 ADD PUSH1 0x0 KECCAK256 PUSH1 0x5 ADD SLOAD PUSH1 0xE PUSH1 0x0 DUP10 DUP2 MSTORE PUSH1 0x20 ADD SWAP1 DUP2 MSTORE PUSH1 0x20 ADD PUSH1 0x0 KECCAK256 PUSH1 0x6 ADD SLOAD PUSH2 0x1378 SWAP2 SWAP1 PUSH2 0x4AC1 JUMP JUMPDEST PUSH2 0x1382 SWAP2 SWAP1 PUSH2 0x4A36 JUMP JUMPDEST PUSH28 0xFFFFFFFFFFFFFFFFFFFFFFFFFFFFFFFFFFFFFFFFFFFFFFFFFFFFFFFF AND DUP2 MSTORE POP PUSH2 0x2E06 JUMP JUMPDEST PUSH14 0xFFFFFFFFFFFFFFFFFFFFFFFFFFFF AND SWAP2 POP PUSH2 0x1449 JUMP JUMPDEST PUSH2 0x1436 PUSH1 0x40 MLOAD DUP1 PUSH1 0x20 ADD PUSH1 0x40 MSTORE DUP1 DUP4 PUSH1 0xE PUSH1 0x0 DUP9 DUP2 MSTORE PUSH1 0x20 ADD SWAP1 DUP2 MSTORE PUSH1 0x20 ADD PUSH1 0x0 KECCAK256 PUSH1 0x7 ADD SLOAD PUSH1 0xE PUSH1 0x0 DUP10 DUP2 MSTORE PUSH1 0x20 ADD SWAP1 DUP2 MSTORE PUSH1 0x20 ADD PUSH1 0x0 KECCAK256 PUSH1 0x8 ADD SLOAD PUSH2 0x1406 SWAP2 SWAP1 PUSH2 0x4AC1 JUMP JUMPDEST PUSH2 0x1410 SWAP2 SWAP1 PUSH2 0x4A36 JUMP JUMPDEST PUSH28 0xFFFFFFFFFFFFFFFFFFFFFFFFFFFFFFFFFFFFFFFFFFFFFFFFFFFFFFFF AND DUP2 MSTORE POP PUSH2 0x2E06 JUMP JUMPDEST PUSH14 0xFFFFFFFFFFFFFFFFFFFFFFFFFFFF AND SWAP2 POP JUMPDEST PUSH1 0xD SLOAD DUP3 PUSH2 0x1457 SWAP2 SWAP1 PUSH2 0x4A67 JUMP JUMPDEST SWAP2 POP POP SWAP2 SWAP1 POP JUMP JUMPDEST PUSH1 0xA PUSH1 0x0 SWAP1 SLOAD SWAP1 PUSH2 0x100 EXP SWAP1 DIV PUSH20 0xFFFFFFFFFFFFFFFFFFFFFFFFFFFFFFFFFFFFFFFF AND DUP2 JUMP JUMPDEST PUSH1 0x5 SLOAD DUP2 JUMP JUMPDEST PUSH1 0x2 SLOAD DUP2 JUMP JUMPDEST PUSH1 0x0 PUSH1 0x1 SLOAD DUP3 GT PUSH2 0x14A6 JUMPI PUSH1 0x1 SLOAD SWAP1 POP PUSH2 0x14CF JUMP JUMPDEST PUSH1 0x0 SLOAD PUSH1 0x1 SLOAD DUP4 PUSH2 0x14B7 SWAP2 SWAP1 PUSH2 0x4AC1 JUMP JUMPDEST PUSH2 0x14C1 SWAP2 SWAP1 PUSH2 0x4D47 JUMP JUMPDEST DUP3 PUSH2 0x14CC SWAP2 SWAP1 PUSH2 0x4AC1 JUMP JUMPDEST SWAP1 POP JUMPDEST SWAP2 SWAP1 POP JUMP JUMPDEST PUSH1 0xF PUSH1 0x20 MSTORE DUP2 PUSH1 0x0 MSTORE PUSH1 0x40 PUSH1 0x0 KECCAK256 DUP2 DUP2 SLOAD DUP2 LT PUSH2 0x14F0 JUMPI PUSH1 0x0 DUP1 REVERT JUMPDEST SWAP1 PUSH1 0x0 MSTORE PUSH1 0x20 PUSH1 0x0 KECCAK256 ADD PUSH1 0x0 SWAP2 POP SWAP2 POP POP SLOAD DUP2 JUMP JUMPDEST PUSH1 0x60 PUSH1 0x0 PUSH2 0x1512 TIMESTAMP PUSH2 0x1491 JUMP JUMPDEST SWAP1 POP PUSH2 0x7D0 PUSH8 0xFFFFFFFFFFFFFFFF DUP2 GT ISZERO PUSH2 0x1556 JUMPI PUSH32 0x4E487B7100000000000000000000000000000000000000000000000000000000 PUSH1 0x0 MSTORE PUSH1 0x41 PUSH1 0x4 MSTORE PUSH1 0x24 PUSH1 0x0 REVERT JUMPDEST PUSH1 0x40 MLOAD SWAP1 DUP1 DUP3 MSTORE DUP1 PUSH1 0x20 MUL PUSH1 0x20 ADD DUP3 ADD PUSH1 0x40 MSTORE DUP1 ISZERO PUSH2 0x158F JUMPI DUP2 PUSH1 0x20 ADD JUMPDEST PUSH2 0x157C PUSH2 0x3C9E JUMP JUMPDEST DUP2 MSTORE PUSH1 0x20 ADD SWAP1 PUSH1 0x1 SWAP1 SUB SWAP1 DUP2 PUSH2 0x1574 JUMPI SWAP1 POP JUMPDEST POP SWAP2 POP PUSH2 0x159A PUSH2 0x3C9E JUMP JUMPDEST PUSH1 0x0 DUP1 DUP1 PUSH1 0x1 SWAP1 POP JUMPDEST PUSH1 0x64 DUP2 GT PUSH2 0x1904 JUMPI PUSH1 0x32 DUP2 LT PUSH2 0x15DF JUMPI PUSH1 0x32 DUP2 PUSH2 0x15C0 SWAP2 SWAP1 PUSH2 0x4AC1 JUMP JUMPDEST PUSH1 0x0 SLOAD PUSH2 0x15CD SWAP2 SWAP1 PUSH2 0x4A67 JUMP JUMPDEST DUP6 PUSH2 0x15D8 SWAP2 SWAP1 PUSH2 0x49AF JUMP JUMPDEST SWAP2 POP PUSH2 0x15FB JUMP JUMPDEST DUP1 PUSH1 0x0 SLOAD PUSH2 0x15ED SWAP2 SWAP1 PUSH2 0x4A67 JUMP JUMPDEST DUP6 PUSH2 0x15F8 SWAP2 SWAP1 PUSH2 0x4AC1 JUMP JUMPDEST SWAP2 POP JUMPDEST PUSH1 0x1 PUSH1 0x2 DUP2 GT ISZERO PUSH2 0x1635 JUMPI PUSH32 0x4E487B7100000000000000000000000000000000000000000000000000000000 PUSH1 0x0 MSTORE PUSH1 0x21 PUSH1 0x4 MSTORE PUSH1 0x24 PUSH1 0x0 REVERT JUMPDEST PUSH1 0xE PUSH1 0x0 DUP5 DUP2 MSTORE PUSH1 0x20 ADD SWAP1 DUP2 MSTORE PUSH1 0x20 ADD PUSH1 0x0 KECCAK256 PUSH1 0x9 ADD PUSH1 0x0 SWAP1 SLOAD SWAP1 PUSH2 0x100 EXP SWAP1 DIV PUSH1 0xFF AND PUSH1 0x2 DUP2 GT ISZERO PUSH2 0x1691 JUMPI PUSH32 0x4E487B7100000000000000000000000000000000000000000000000000000000 PUSH1 0x0 MSTORE PUSH1 0x21 PUSH1 0x4 MSTORE PUSH1 0x24 PUSH1 0x0 REVERT JUMPDEST EQ ISZERO PUSH2 0x18F1 JUMPI PUSH1 0x0 JUMPDEST PUSH1 0xE PUSH1 0x0 DUP5 DUP2 MSTORE PUSH1 0x20 ADD SWAP1 DUP2 MSTORE PUSH1 0x20 ADD PUSH1 0x0 KECCAK256 PUSH1 0xA ADD DUP1 SLOAD SWAP1 POP DUP2 LT ISZERO PUSH2 0x18EF JUMPI PUSH1 0xE PUSH1 0x0 DUP5 DUP2 MSTORE PUSH1 0x20 ADD SWAP1 DUP2 MSTORE PUSH1 0x20 ADD PUSH1 0x0 KECCAK256 PUSH1 0xB ADD PUSH1 0x0 PUSH1 0xE PUSH1 0x0 DUP7 DUP2 MSTORE PUSH1 0x20 ADD SWAP1 DUP2 MSTORE PUSH1 0x20 ADD PUSH1 0x0 KECCAK256 PUSH1 0xA ADD DUP4 DUP2 SLOAD DUP2 LT PUSH2 0x1721 JUMPI PUSH32 0x4E487B7100000000000000000000000000000000000000000000000000000000 PUSH1 0x0 MSTORE PUSH1 0x32 PUSH1 0x4 MSTORE PUSH1 0x24 PUSH1 0x0 REVERT JUMPDEST SWAP1 PUSH1 0x0 MSTORE PUSH1 0x20 PUSH1 0x0 KECCAK256 ADD SLOAD DUP2 MSTORE PUSH1 0x20 ADD SWAP1 DUP2 MSTORE PUSH1 0x20 ADD PUSH1 0x0 KECCAK256 PUSH1 0x40 MLOAD DUP1 PUSH1 0xA0 ADD PUSH1 0x40 MSTORE SWAP1 DUP2 PUSH1 0x0 DUP3 ADD SLOAD DUP2 MSTORE PUSH1 0x20 ADD PUSH1 0x1 DUP3 ADD SLOAD DUP2 MSTORE PUSH1 0x20 ADD PUSH1 0x2 DUP3 ADD PUSH1 0x0 SWAP1 SLOAD SWAP1 PUSH2 0x100 EXP SWAP1 DIV PUSH20 0xFFFFFFFFFFFFFFFFFFFFFFFFFFFFFFFFFFFFFFFF AND PUSH20 0xFFFFFFFFFFFFFFFFFFFFFFFFFFFFFFFFFFFFFFFF AND PUSH20 0xFFFFFFFFFFFFFFFFFFFFFFFFFFFFFFFFFFFFFFFF AND DUP2 MSTORE PUSH1 0x20 ADD PUSH1 0x3 DUP3 ADD SLOAD DUP2 MSTORE PUSH1 0x20 ADD PUSH1 0x4 DUP3 ADD PUSH1 0x0 SWAP1 SLOAD SWAP1 PUSH2 0x100 EXP SWAP1 DIV PUSH1 0xFF AND PUSH1 0x2 DUP2 GT ISZERO PUSH2 0x1804 JUMPI PUSH32 0x4E487B7100000000000000000000000000000000000000000000000000000000 PUSH1 0x0 MSTORE PUSH1 0x21 PUSH1 0x4 MSTORE PUSH1 0x24 PUSH1 0x0 REVERT JUMPDEST PUSH1 0x2 DUP2 GT ISZERO PUSH2 0x183C JUMPI PUSH32 0x4E487B7100000000000000000000000000000000000000000000000000000000 PUSH1 0x0 MSTORE PUSH1 0x21 PUSH1 0x4 MSTORE PUSH1 0x24 PUSH1 0x0 REVERT JUMPDEST DUP2 MSTORE POP POP SWAP5 POP DUP8 PUSH20 0xFFFFFFFFFFFFFFFFFFFFFFFFFFFFFFFFFFFFFFFF AND DUP6 PUSH1 0x40 ADD MLOAD PUSH20 0xFFFFFFFFFFFFFFFFFFFFFFFFFFFFFFFFFFFFFFFF AND EQ ISZERO PUSH2 0x18DC JUMPI DUP5 DUP8 DUP6 DUP2 MLOAD DUP2 LT PUSH2 0x18B4 JUMPI PUSH32 0x4E487B7100000000000000000000000000000000000000000000000000000000 PUSH1 0x0 MSTORE PUSH1 0x32 PUSH1 0x4 MSTORE PUSH1 0x24 PUSH1 0x0 REVERT JUMPDEST PUSH1 0x20 MUL PUSH1 0x20 ADD ADD DUP2 SWAP1 MSTORE POP DUP4 DUP1 PUSH2 0x18CA SWAP1 PUSH2 0x4CFE JUMP JUMPDEST SWAP5 POP POP PUSH2 0x7D0 DUP5 LT PUSH2 0x18DB JUMPI PUSH2 0x18EF JUMP JUMPDEST JUMPDEST DUP1 DUP1 PUSH2 0x18E7 SWAP1 PUSH2 0x4CFE JUMP JUMPDEST SWAP2 POP POP PUSH2 0x169A JUMP JUMPDEST POP JUMPDEST DUP1 DUP1 PUSH2 0x18FC SWAP1 PUSH2 0x4CFE JUMP JUMPDEST SWAP2 POP POP PUSH2 0x15A3 JUMP JUMPDEST POP PUSH1 0x0 PUSH1 0x1 SWAP1 POP JUMPDEST PUSH1 0x31 DUP2 GT PUSH2 0x1C37 JUMPI DUP1 PUSH1 0x0 SLOAD PUSH2 0x1922 SWAP2 SWAP1 PUSH2 0x4A67 JUMP JUMPDEST DUP6 PUSH2 0x192D SWAP2 SWAP1 PUSH2 0x4AC1 JUMP JUMPDEST SWAP2 POP PUSH1 0x2 DUP1 DUP2 GT ISZERO PUSH2 0x1968 JUMPI PUSH32 0x4E487B7100000000000000000000000000000000000000000000000000000000 PUSH1 0x0 MSTORE PUSH1 0x21 PUSH1 0x4 MSTORE PUSH1 0x24 PUSH1 0x0 REVERT JUMPDEST PUSH1 0xE PUSH1 0x0 DUP5 DUP2 MSTORE PUSH1 0x20 ADD SWAP1 DUP2 MSTORE PUSH1 0x20 ADD PUSH1 0x0 KECCAK256 PUSH1 0x9 ADD PUSH1 0x0 SWAP1 SLOAD SWAP1 PUSH2 0x100 EXP SWAP1 DIV PUSH1 0xFF AND PUSH1 0x2 DUP2 GT ISZERO PUSH2 0x19C4 JUMPI PUSH32 0x4E487B7100000000000000000000000000000000000000000000000000000000 PUSH1 0x0 MSTORE PUSH1 0x21 PUSH1 0x4 MSTORE PUSH1 0x24 PUSH1 0x0 REVERT JUMPDEST EQ ISZERO PUSH2 0x1C24 JUMPI PUSH1 0x0 JUMPDEST PUSH1 0xE PUSH1 0x0 DUP5 DUP2 MSTORE PUSH1 0x20 ADD SWAP1 DUP2 MSTORE PUSH1 0x20 ADD PUSH1 0x0 KECCAK256 PUSH1 0xA ADD DUP1 SLOAD SWAP1 POP DUP2 LT ISZERO PUSH2 0x1C22 JUMPI PUSH1 0xE PUSH1 0x0 DUP5 DUP2 MSTORE PUSH1 0x20 ADD SWAP1 DUP2 MSTORE PUSH1 0x20 ADD PUSH1 0x0 KECCAK256 PUSH1 0xB ADD PUSH1 0x0 PUSH1 0xE PUSH1 0x0 DUP7 DUP2 MSTORE PUSH1 0x20 ADD SWAP1 DUP2 MSTORE PUSH1 0x20 ADD PUSH1 0x0 KECCAK256 PUSH1 0xA ADD DUP4 DUP2 SLOAD DUP2 LT PUSH2 0x1A54 JUMPI PUSH32 0x4E487B7100000000000000000000000000000000000000000000000000000000 PUSH1 0x0 MSTORE PUSH1 0x32 PUSH1 0x4 MSTORE PUSH1 0x24 PUSH1 0x0 REVERT JUMPDEST SWAP1 PUSH1 0x0 MSTORE PUSH1 0x20 PUSH1 0x0 KECCAK256 ADD SLOAD DUP2 MSTORE PUSH1 0x20 ADD SWAP1 DUP2 MSTORE PUSH1 0x20 ADD PUSH1 0x0 KECCAK256 PUSH1 0x40 MLOAD DUP1 PUSH1 0xA0 ADD PUSH1 0x40 MSTORE SWAP1 DUP2 PUSH1 0x0 DUP3 ADD SLOAD DUP2 MSTORE PUSH1 0x20 ADD PUSH1 0x1 DUP3 ADD SLOAD DUP2 MSTORE PUSH1 0x20 ADD PUSH1 0x2 DUP3 ADD PUSH1 0x0 SWAP1 SLOAD SWAP1 PUSH2 0x100 EXP SWAP1 DIV PUSH20 0xFFFFFFFFFFFFFFFFFFFFFFFFFFFFFFFFFFFFFFFF AND PUSH20 0xFFFFFFFFFFFFFFFFFFFFFFFFFFFFFFFFFFFFFFFF AND PUSH20 0xFFFFFFFFFFFFFFFFFFFFFFFFFFFFFFFFFFFFFFFF AND DUP2 MSTORE PUSH1 0x20 ADD PUSH1 0x3 DUP3 ADD SLOAD DUP2 MSTORE PUSH1 0x20 ADD PUSH1 0x4 DUP3 ADD PUSH1 0x0 SWAP1 SLOAD SWAP1 PUSH2 0x100 EXP SWAP1 DIV PUSH1 0xFF AND PUSH1 0x2 DUP2 GT ISZERO PUSH2 0x1B37 JUMPI PUSH32 0x4E487B7100000000000000000000000000000000000000000000000000000000 PUSH1 0x0 MSTORE PUSH1 0x21 PUSH1 0x4 MSTORE PUSH1 0x24 PUSH1 0x0 REVERT JUMPDEST PUSH1 0x2 DUP2 GT ISZERO PUSH2 0x1B6F JUMPI PUSH32 0x4E487B7100000000000000000000000000000000000000000000000000000000 PUSH1 0x0 MSTORE PUSH1 0x21 PUSH1 0x4 MSTORE PUSH1 0x24 PUSH1 0x0 REVERT JUMPDEST DUP2 MSTORE POP POP SWAP5 POP DUP8 PUSH20 0xFFFFFFFFFFFFFFFFFFFFFFFFFFFFFFFFFFFFFFFF AND DUP6 PUSH1 0x40 ADD MLOAD PUSH20 0xFFFFFFFFFFFFFFFFFFFFFFFFFFFFFFFFFFFFFFFF AND EQ ISZERO PUSH2 0x1C0F JUMPI PUSH2 0x7D0 DUP5 LT PUSH2 0x1BBB JUMPI PUSH2 0x1C22 JUMP JUMPDEST DUP5 DUP8 DUP6 DUP2 MLOAD DUP2 LT PUSH2 0x1BF5 JUMPI PUSH32 0x4E487B7100000000000000000000000000000000000000000000000000000000 PUSH1 0x0 MSTORE PUSH1 0x32 PUSH1 0x4 MSTORE PUSH1 0x24 PUSH1 0x0 REVERT JUMPDEST PUSH1 0x20 MUL PUSH1 0x20 ADD ADD DUP2 SWAP1 MSTORE POP DUP4 DUP1 PUSH2 0x1C0B SWAP1 PUSH2 0x4CFE JUMP JUMPDEST SWAP5 POP POP JUMPDEST DUP1 DUP1 PUSH2 0x1C1A SWAP1 PUSH2 0x4CFE JUMP JUMPDEST SWAP2 POP POP PUSH2 0x19CD JUMP JUMPDEST POP JUMPDEST DUP1 DUP1 PUSH2 0x1C2F SWAP1 PUSH2 0x4CFE JUMP JUMPDEST SWAP2 POP POP PUSH2 0x190C JUMP JUMPDEST POP POP POP POP POP SWAP2 SWAP1 POP JUMP JUMPDEST PUSH2 0x1C49 PUSH2 0x3C9E JUMP JUMPDEST PUSH1 0xE PUSH1 0x0 DUP5 DUP2 MSTORE PUSH1 0x20 ADD SWAP1 DUP2 MSTORE PUSH1 0x20 ADD PUSH1 0x0 KECCAK256 PUSH1 0xB ADD PUSH1 0x0 DUP4 DUP2 MSTORE PUSH1 0x20 ADD SWAP1 DUP2 MSTORE PUSH1 0x20 ADD PUSH1 0x0 KECCAK256 PUSH1 0x40 MLOAD DUP1 PUSH1 0xA0 ADD PUSH1 0x40 MSTORE SWAP1 DUP2 PUSH1 0x0 DUP3 ADD SLOAD DUP2 MSTORE PUSH1 0x20 ADD PUSH1 0x1 DUP3 ADD SLOAD DUP2 MSTORE PUSH1 0x20 ADD PUSH1 0x2 DUP3 ADD PUSH1 0x0 SWAP1 SLOAD SWAP1 PUSH2 0x100 EXP SWAP1 DIV PUSH20 0xFFFFFFFFFFFFFFFFFFFFFFFFFFFFFFFFFFFFFFFF AND PUSH20 0xFFFFFFFFFFFFFFFFFFFFFFFFFFFFFFFFFFFFFFFF AND PUSH20 0xFFFFFFFFFFFFFFFFFFFFFFFFFFFFFFFFFFFFFFFF AND DUP2 MSTORE PUSH1 0x20 ADD PUSH1 0x3 DUP3 ADD SLOAD DUP2 MSTORE PUSH1 0x20 ADD PUSH1 0x4 DUP3 ADD PUSH1 0x0 SWAP1 SLOAD SWAP1 PUSH2 0x100 EXP SWAP1 DIV PUSH1 0xFF AND PUSH1 0x2 DUP2 GT ISZERO PUSH2 0x1D3A JUMPI PUSH32 0x4E487B7100000000000000000000000000000000000000000000000000000000 PUSH1 0x0 MSTORE PUSH1 0x21 PUSH1 0x4 MSTORE PUSH1 0x24 PUSH1 0x0 REVERT JUMPDEST PUSH1 0x2 DUP2 GT ISZERO PUSH2 0x1D72 JUMPI PUSH32 0x4E487B7100000000000000000000000000000000000000000000000000000000 PUSH1 0x0 MSTORE PUSH1 0x21 PUSH1 0x4 MSTORE PUSH1 0x24 PUSH1 0x0 REVERT JUMPDEST DUP2 MSTORE POP POP SWAP1 POP SWAP3 SWAP2 POP POP JUMP JUMPDEST PUSH1 0x1 SLOAD DUP2 JUMP JUMPDEST PUSH1 0x7 SLOAD DUP2 JUMP JUMPDEST PUSH1 0x1 PUSH1 0xE PUSH1 0x0 DUP5 DUP2 MSTORE PUSH1 0x20 ADD SWAP1 DUP2 MSTORE PUSH1 0x20 ADD PUSH1 0x0 KECCAK256 PUSH1 0x9 ADD PUSH1 0x0 PUSH2 0x100 EXP DUP2 SLOAD DUP2 PUSH1 0xFF MUL NOT AND SWAP1 DUP4 PUSH1 0x2 DUP2 GT ISZERO PUSH2 0x1DEA JUMPI PUSH32 0x4E487B7100000000000000000000000000000000000000000000000000000000 PUSH1 0x0 MSTORE PUSH1 0x21 PUSH1 0x4 MSTORE PUSH1 0x24 PUSH1 0x0 REVERT JUMPDEST MUL OR SWAP1 SSTORE POP DUP1 PUSH1 0xE PUSH1 0x0 DUP5 DUP2 MSTORE PUSH1 0x20 ADD SWAP1 DUP2 MSTORE PUSH1 0x20 ADD PUSH1 0x0 KECCAK256 PUSH1 0x4 ADD DUP2 SWAP1 SSTORE POP POP POP JUMP JUMPDEST PUSH1 0x0 PUSH1 0xE PUSH1 0x0 DUP4 DUP2 MSTORE PUSH1 0x20 ADD SWAP1 DUP2 MSTORE PUSH1 0x20 ADD PUSH1 0x0 KECCAK256 PUSH1 0xA ADD DUP1 SLOAD SWAP1 POP SWAP1 POP SWAP2 SWAP1 POP JUMP JUMPDEST PUSH1 0x0 PUSH1 0x10 DUP1 SLOAD SWAP1 POP SWAP1 POP SWAP1 JUMP JUMPDEST PUSH1 0xC PUSH1 0x0 SWAP1 SLOAD SWAP1 PUSH2 0x100 EXP SWAP1 DIV PUSH1 0xFF AND DUP2 JUMP JUMPDEST PUSH1 0x60 PUSH1 0xF PUSH1 0x0 DUP4 PUSH20 0xFFFFFFFFFFFFFFFFFFFFFFFFFFFFFFFFFFFFFFFF AND PUSH20 0xFFFFFFFFFFFFFFFFFFFFFFFFFFFFFFFFFFFFFFFF AND DUP2 MSTORE PUSH1 0x20 ADD SWAP1 DUP2 MSTORE PUSH1 0x20 ADD PUSH1 0x0 KECCAK256 DUP1 SLOAD DUP1 PUSH1 0x20 MUL PUSH1 0x20 ADD PUSH1 0x40 MLOAD SWAP1 DUP2 ADD PUSH1 0x40 MSTORE DUP1 SWAP3 SWAP2 SWAP1 DUP2 DUP2 MSTORE PUSH1 0x20 ADD DUP3 DUP1 SLOAD DUP1 ISZERO PUSH2 0x1EDC JUMPI PUSH1 0x20 MUL DUP3 ADD SWAP2 SWAP1 PUSH1 0x0 MSTORE PUSH1 0x20 PUSH1 0x0 KECCAK256 SWAP1 JUMPDEST DUP2 SLOAD DUP2 MSTORE PUSH1 0x20 ADD SWAP1 PUSH1 0x1 ADD SWAP1 DUP1 DUP4 GT PUSH2 0x1EC8 JUMPI JUMPDEST POP POP POP POP POP SWAP1 POP SWAP2 SWAP1 POP JUMP JUMPDEST PUSH1 0x0 DUP1 DUP3 GT PUSH2 0x1EFB JUMPI PUSH1 0x5 SLOAD SWAP1 POP PUSH2 0x1F19 JUMP JUMPDEST PUSH1 0x5 SLOAD PUSH1 0x5 SLOAD DUP4 PUSH2 0x1F0C SWAP2 SWAP1 PUSH2 0x4A36 JUMP JUMPDEST PUSH2 0x1F16 SWAP2 SWAP1 PUSH2 0x4A67 JUMP JUMPDEST SWAP1 POP JUMPDEST SWAP2 SWAP1 POP JUMP JUMPDEST PUSH1 0x0 PUSH2 0x1F29 TIMESTAMP PUSH2 0x1491 JUMP JUMPDEST SWAP1 POP PUSH1 0x3 SLOAD PUSH1 0x0 SLOAD DUP3 PUSH2 0x1F3C SWAP2 SWAP1 PUSH2 0x49AF JUMP JUMPDEST PUSH2 0x1F46 SWAP2 SWAP1 PUSH2 0x4AC1 JUMP JUMPDEST TIMESTAMP LT ISZERO PUSH2 0x207F JUMPI PUSH2 0x1F78 PUSH1 0x4 PUSH1 0x0 SWAP1 SLOAD SWAP1 PUSH2 0x100 EXP SWAP1 DIV PUSH20 0xFFFFFFFFFFFFFFFFFFFFFFFFFFFFFFFFFFFFFFFF AND PUSH2 0x2E39 JUMP JUMPDEST DUP1 PUSH4 0xFFFFFFFF AND SWAP1 POP PUSH1 0xE PUSH1 0x0 DUP6 DUP2 MSTORE PUSH1 0x20 ADD SWAP1 DUP2 MSTORE PUSH1 0x20 ADD PUSH1 0x0 KECCAK256 PUSH1 0x5 ADD PUSH1 0x0 PUSH1 0xE PUSH1 0x0 DUP8 DUP2 MSTORE PUSH1 0x20 ADD SWAP1 DUP2 MSTORE PUSH1 0x20 ADD PUSH1 0x0 KECCAK256 PUSH1 0x7 ADD PUSH1 0x0 PUSH1 0xE PUSH1 0x0 DUP10 DUP2 MSTORE PUSH1 0x20 ADD SWAP1 DUP2 MSTORE PUSH1 0x20 ADD PUSH1 0x0 KECCAK256 PUSH1 0x1 ADD PUSH1 0x0 DUP7 SWAP2 SWAP1 POP SSTORE DUP6 SWAP2 SWAP1 POP SSTORE DUP5 SWAP2 SWAP1 POP SSTORE POP POP POP PUSH1 0xE PUSH1 0x0 DUP3 DUP2 MSTORE PUSH1 0x20 ADD SWAP1 DUP2 MSTORE PUSH1 0x20 ADD PUSH1 0x0 KECCAK256 PUSH1 0x5 ADD SLOAD PUSH1 0xE PUSH1 0x0 DUP4 DUP2 MSTORE PUSH1 0x20 ADD SWAP1 DUP2 MSTORE PUSH1 0x20 ADD PUSH1 0x0 KECCAK256 PUSH1 0x7 ADD SLOAD PUSH1 0xE PUSH1 0x0 DUP5 DUP2 MSTORE PUSH1 0x20 ADD SWAP1 DUP2 MSTORE PUSH1 0x20 ADD PUSH1 0x0 KECCAK256 PUSH1 0x1 ADD SLOAD PUSH1 0xE PUSH1 0x0 DUP6 DUP2 MSTORE PUSH1 0x20 ADD SWAP1 DUP2 MSTORE PUSH1 0x20 ADD PUSH1 0x0 KECCAK256 PUSH1 0x6 ADD PUSH1 0x0 PUSH1 0xE PUSH1 0x0 DUP8 DUP2 MSTORE PUSH1 0x20 ADD SWAP1 DUP2 MSTORE PUSH1 0x20 ADD PUSH1 0x0 KECCAK256 PUSH1 0x8 ADD PUSH1 0x0 PUSH1 0xE PUSH1 0x0 DUP10 DUP2 MSTORE PUSH1 0x20 ADD SWAP1 DUP2 MSTORE PUSH1 0x20 ADD PUSH1 0x0 KECCAK256 PUSH1 0x2 ADD PUSH1 0x0 DUP7 SWAP2 SWAP1 POP SSTORE DUP6 SWAP2 SWAP1 POP SSTORE DUP5 SWAP2 SWAP1 POP SSTORE POP POP POP PUSH2 0x2130 JUMP JUMPDEST PUSH1 0x3 SLOAD PUSH1 0x0 SLOAD DUP3 PUSH2 0x2090 SWAP2 SWAP1 PUSH2 0x49AF JUMP JUMPDEST PUSH2 0x209A SWAP2 SWAP1 PUSH2 0x4AC1 JUMP JUMPDEST TIMESTAMP LT PUSH2 0x212F JUMPI PUSH2 0x20CB PUSH1 0x4 PUSH1 0x0 SWAP1 SLOAD SWAP1 PUSH2 0x100 EXP SWAP1 DIV PUSH20 0xFFFFFFFFFFFFFFFFFFFFFFFFFFFFFFFFFFFFFFFF AND PUSH2 0x2E39 JUMP JUMPDEST DUP1 PUSH4 0xFFFFFFFF AND SWAP1 POP PUSH1 0xE PUSH1 0x0 DUP6 DUP2 MSTORE PUSH1 0x20 ADD SWAP1 DUP2 MSTORE PUSH1 0x20 ADD PUSH1 0x0 KECCAK256 PUSH1 0x6 ADD PUSH1 0x0 PUSH1 0xE PUSH1 0x0 DUP8 DUP2 MSTORE PUSH1 0x20 ADD SWAP1 DUP2 MSTORE PUSH1 0x20 ADD PUSH1 0x0 KECCAK256 PUSH1 0x8 ADD PUSH1 0x0 PUSH1 0xE PUSH1 0x0 DUP10 DUP2 MSTORE PUSH1 0x20 ADD SWAP1 DUP2 MSTORE PUSH1 0x20 ADD PUSH1 0x0 KECCAK256 PUSH1 0x2 ADD PUSH1 0x0 DUP7 SWAP2 SWAP1 POP SSTORE DUP6 SWAP2 SWAP1 POP SSTORE DUP5 SWAP2 SWAP1 POP SSTORE POP POP POP JUMPDEST JUMPDEST PUSH32 0xF733BD7F4402CB7D331B34D5CD22F432B9BF71A833F786974545860D74976AF2 DUP2 PUSH1 0xE PUSH1 0x0 DUP5 DUP2 MSTORE PUSH1 0x20 ADD SWAP1 DUP2 MSTORE PUSH1 0x20 ADD PUSH1 0x0 KECCAK256 PUSH1 0x1 ADD SLOAD PUSH1 0xE PUSH1 0x0 DUP6 DUP2 MSTORE PUSH1 0x20 ADD SWAP1 DUP2 MSTORE PUSH1 0x20 ADD PUSH1 0x0 KECCAK256 PUSH1 0x2 ADD SLOAD PUSH1 0xE PUSH1 0x0 DUP7 DUP2 MSTORE PUSH1 0x20 ADD SWAP1 DUP2 MSTORE PUSH1 0x20 ADD PUSH1 0x0 KECCAK256 PUSH1 0x5 ADD SLOAD PUSH1 0xE PUSH1 0x0 DUP8 DUP2 MSTORE PUSH1 0x20 ADD SWAP1 DUP2 MSTORE PUSH1 0x20 ADD PUSH1 0x0 KECCAK256 PUSH1 0x6 ADD SLOAD PUSH1 0xE PUSH1 0x0 DUP9 DUP2 MSTORE PUSH1 0x20 ADD SWAP1 DUP2 MSTORE PUSH1 0x20 ADD PUSH1 0x0 KECCAK256 PUSH1 0x7 ADD SLOAD PUSH1 0xE PUSH1 0x0 DUP10 DUP2 MSTORE PUSH1 0x20 ADD SWAP1 DUP2 MSTORE PUSH1 0x20 ADD PUSH1 0x0 KECCAK256 PUSH1 0x8 ADD SLOAD PUSH1 0xE PUSH1 0x0 DUP11 DUP2 MSTORE PUSH1 0x20 ADD SWAP1 DUP2 MSTORE PUSH1 0x20 ADD PUSH1 0x0 KECCAK256 PUSH1 0x3 ADD SLOAD PUSH1 0x40 MLOAD PUSH2 0x2207 SWAP9 SWAP8 SWAP7 SWAP6 SWAP5 SWAP4 SWAP3 SWAP2 SWAP1 PUSH2 0x4812 JUMP JUMPDEST PUSH1 0x40 MLOAD DUP1 SWAP2 SUB SWAP1 LOG1 POP JUMP JUMPDEST PUSH1 0xE PUSH1 0x20 MSTORE DUP1 PUSH1 0x0 MSTORE PUSH1 0x40 PUSH1 0x0 KECCAK256 PUSH1 0x0 SWAP2 POP SWAP1 POP DUP1 PUSH1 0x0 ADD SLOAD SWAP1 DUP1 PUSH1 0x1 ADD SLOAD SWAP1 DUP1 PUSH1 0x2 ADD SLOAD SWAP1 DUP1 PUSH1 0x3 ADD SLOAD SWAP1 DUP1 PUSH1 0x4 ADD SLOAD SWAP1 DUP1 PUSH1 0x5 ADD SLOAD SWAP1 DUP1 PUSH1 0x6 ADD SLOAD SWAP1 DUP1 PUSH1 0x7 ADD SLOAD SWAP1 DUP1 PUSH1 0x8 ADD SLOAD SWAP1 DUP1 PUSH1 0x9 ADD PUSH1 0x0 SWAP1 SLOAD SWAP1 PUSH2 0x100 EXP SWAP1 DIV PUSH1 0xFF AND SWAP1 POP DUP11 JUMP JUMPDEST PUSH1 0x0 DUP1 PUSH2 0x227F DUP6 PUSH2 0x1491 JUMP JUMPDEST SWAP1 POP PUSH2 0x228A TIMESTAMP PUSH2 0x1491 JUMP JUMPDEST DUP2 LT ISZERO PUSH2 0x22CC JUMPI PUSH1 0x40 MLOAD PUSH32 0x8C379A000000000000000000000000000000000000000000000000000000000 DUP2 MSTORE PUSH1 0x4 ADD PUSH2 0x22C3 SWAP1 PUSH2 0x46D3 JUMP JUMPDEST PUSH1 0x40 MLOAD DUP1 SWAP2 SUB SWAP1 REVERT JUMPDEST PUSH1 0x0 PUSH2 0x22D7 DUP6 PUSH2 0x1EE8 JUMP JUMPDEST SWAP1 POP PUSH1 0x0 PUSH2 0x22E5 DUP4 DUP7 PUSH2 0x2900 JUMP JUMPDEST SWAP1 POP DUP1 PUSH1 0xE PUSH1 0x0 DUP6 DUP2 MSTORE PUSH1 0x20 ADD SWAP1 DUP2 MSTORE PUSH1 0x20 ADD PUSH1 0x0 KECCAK256 PUSH1 0xB ADD PUSH1 0x0 DUP5 DUP2 MSTORE PUSH1 0x20 ADD SWAP1 DUP2 MSTORE PUSH1 0x20 ADD PUSH1 0x0 KECCAK256 PUSH1 0x3 ADD SLOAD PUSH2 0x231D SWAP2 SWAP1 PUSH2 0x49AF JUMP JUMPDEST SWAP4 POP POP POP POP SWAP4 SWAP3 POP POP POP JUMP JUMPDEST PUSH2 0x2332 DUP2 PUSH2 0x3094 JUMP JUMPDEST PUSH2 0x233B DUP2 PUSH2 0x36E2 JUMP JUMPDEST POP JUMP JUMPDEST PUSH1 0x0 PUSH2 0x2349 DUP5 PUSH2 0x29A3 JUMP JUMPDEST SWAP1 POP PUSH2 0x2355 DUP2 DUP4 PUSH2 0x2B53 JUMP JUMPDEST PUSH1 0x0 PUSH2 0x2361 DUP3 DUP6 PUSH2 0x2BAB JUMP JUMPDEST SWAP1 POP CALLER PUSH20 0xFFFFFFFFFFFFFFFFFFFFFFFFFFFFFFFFFFFFFFFF AND PUSH1 0xE PUSH1 0x0 DUP5 DUP2 MSTORE PUSH1 0x20 ADD SWAP1 DUP2 MSTORE PUSH1 0x20 ADD PUSH1 0x0 KECCAK256 PUSH1 0xB ADD PUSH1 0x0 DUP4 DUP2 MSTORE PUSH1 0x20 ADD SWAP1 DUP2 MSTORE PUSH1 0x20 ADD PUSH1 0x0 KECCAK256 PUSH1 0x2 ADD PUSH1 0x0 SWAP1 SLOAD SWAP1 PUSH2 0x100 EXP SWAP1 DIV PUSH20 0xFFFFFFFFFFFFFFFFFFFFFFFFFFFFFFFFFFFFFFFF AND PUSH20 0xFFFFFFFFFFFFFFFFFFFFFFFFFFFFFFFFFFFFFFFF AND EQ PUSH2 0x241B JUMPI PUSH1 0x40 MLOAD PUSH32 0x8C379A000000000000000000000000000000000000000000000000000000000 DUP2 MSTORE PUSH1 0x4 ADD PUSH2 0x2412 SWAP1 PUSH2 0x4633 JUMP JUMPDEST PUSH1 0x40 MLOAD DUP1 SWAP2 SUB SWAP1 REVERT JUMPDEST PUSH2 0x2424 TIMESTAMP PUSH2 0x1491 JUMP JUMPDEST DUP3 LT ISZERO PUSH2 0x2466 JUMPI PUSH1 0x40 MLOAD PUSH32 0x8C379A000000000000000000000000000000000000000000000000000000000 DUP2 MSTORE PUSH1 0x4 ADD PUSH2 0x245D SWAP1 PUSH2 0x4773 JUMP JUMPDEST PUSH1 0x40 MLOAD DUP1 SWAP2 SUB SWAP1 REVERT JUMPDEST PUSH1 0x0 PUSH2 0x2472 DUP4 DUP6 PUSH2 0x2900 JUMP JUMPDEST SWAP1 POP PUSH1 0x0 PUSH2 0x24AA DUP5 PUSH1 0xE PUSH1 0x0 DUP8 DUP2 MSTORE PUSH1 0x20 ADD SWAP1 DUP2 MSTORE PUSH1 0x20 ADD PUSH1 0x0 KECCAK256 PUSH1 0xB ADD PUSH1 0x0 DUP7 DUP2 MSTORE PUSH1 0x20 ADD SWAP1 DUP2 MSTORE PUSH1 0x20 ADD PUSH1 0x0 KECCAK256 PUSH1 0x3 ADD SLOAD PUSH2 0x2900 JUMP JUMPDEST SWAP1 POP DUP1 DUP3 GT ISZERO PUSH2 0x26B7 JUMPI DUP1 DUP3 PUSH2 0x24C0 SWAP2 SWAP1 PUSH2 0x4AC1 JUMP JUMPDEST PUSH1 0x9 PUSH1 0x0 SWAP1 SLOAD SWAP1 PUSH2 0x100 EXP SWAP1 DIV PUSH20 0xFFFFFFFFFFFFFFFFFFFFFFFFFFFFFFFFFFFFFFFF AND PUSH20 0xFFFFFFFFFFFFFFFFFFFFFFFFFFFFFFFFFFFFFFFF AND PUSH4 0xDD62ED3E CALLER ADDRESS PUSH1 0x40 MLOAD DUP4 PUSH4 0xFFFFFFFF AND PUSH1 0xE0 SHL DUP2 MSTORE PUSH1 0x4 ADD PUSH2 0x251D SWAP3 SWAP2 SWAP1 PUSH2 0x44BA JUMP JUMPDEST PUSH1 0x20 PUSH1 0x40 MLOAD DUP1 DUP4 SUB DUP2 DUP7 DUP1 EXTCODESIZE ISZERO DUP1 ISZERO PUSH2 0x2535 JUMPI PUSH1 0x0 DUP1 REVERT JUMPDEST POP GAS STATICCALL ISZERO DUP1 ISZERO PUSH2 0x2549 JUMPI RETURNDATASIZE PUSH1 0x0 DUP1 RETURNDATACOPY RETURNDATASIZE PUSH1 0x0 REVERT JUMPDEST POP POP POP POP PUSH1 0x40 MLOAD RETURNDATASIZE PUSH1 0x1F NOT PUSH1 0x1F DUP3 ADD AND DUP3 ADD DUP1 PUSH1 0x40 MSTORE POP DUP2 ADD SWAP1 PUSH2 0x256D SWAP2 SWAP1 PUSH2 0x3F0E JUMP JUMPDEST LT ISZERO PUSH2 0x25AE JUMPI PUSH1 0x40 MLOAD PUSH32 0x8C379A000000000000000000000000000000000000000000000000000000000 DUP2 MSTORE PUSH1 0x4 ADD PUSH2 0x25A5 SWAP1 PUSH2 0x4713 JUMP JUMPDEST PUSH1 0x40 MLOAD DUP1 SWAP2 SUB SWAP1 REVERT JUMPDEST PUSH1 0x9 PUSH1 0x0 SWAP1 SLOAD SWAP1 PUSH2 0x100 EXP SWAP1 DIV PUSH20 0xFFFFFFFFFFFFFFFFFFFFFFFFFFFFFFFFFFFFFFFF AND PUSH20 0xFFFFFFFFFFFFFFFFFFFFFFFFFFFFFFFFFFFFFFFF AND PUSH4 0x23B872DD CALLER ADDRESS DUP5 DUP7 PUSH2 0x25FA SWAP2 SWAP1 PUSH2 0x4AC1 JUMP JUMPDEST PUSH1 0x40 MLOAD DUP5 PUSH4 0xFFFFFFFF AND PUSH1 0xE0 SHL DUP2 MSTORE PUSH1 0x4 ADD PUSH2 0x2618 SWAP4 SWAP3 SWAP2 SWAP1 PUSH2 0x44E3 JUMP JUMPDEST PUSH1 0x20 PUSH1 0x40 MLOAD DUP1 DUP4 SUB DUP2 PUSH1 0x0 DUP8 DUP1 EXTCODESIZE ISZERO DUP1 ISZERO PUSH2 0x2632 JUMPI PUSH1 0x0 DUP1 REVERT JUMPDEST POP GAS CALL ISZERO DUP1 ISZERO PUSH2 0x2646 JUMPI RETURNDATASIZE PUSH1 0x0 DUP1 RETURNDATACOPY RETURNDATASIZE PUSH1 0x0 REVERT JUMPDEST POP POP POP POP PUSH1 0x40 MLOAD RETURNDATASIZE PUSH1 0x1F NOT PUSH1 0x1F DUP3 ADD AND DUP3 ADD DUP1 PUSH1 0x40 MSTORE POP DUP2 ADD SWAP1 PUSH2 0x266A SWAP2 SWAP1 PUSH2 0x3E6D JUMP JUMPDEST POP DUP1 DUP3 PUSH2 0x2677 SWAP2 SWAP1 PUSH2 0x4AC1 JUMP JUMPDEST PUSH1 0xE PUSH1 0x0 DUP7 DUP2 MSTORE PUSH1 0x20 ADD SWAP1 DUP2 MSTORE PUSH1 0x20 ADD PUSH1 0x0 KECCAK256 PUSH1 0x3 ADD SLOAD PUSH2 0x2698 SWAP2 SWAP1 PUSH2 0x49AF JUMP JUMPDEST PUSH1 0xE PUSH1 0x0 DUP7 DUP2 MSTORE PUSH1 0x20 ADD SWAP1 DUP2 MSTORE PUSH1 0x20 ADD PUSH1 0x0 KECCAK256 PUSH1 0x3 ADD DUP2 SWAP1 SSTORE POP PUSH2 0x27C3 JUMP JUMPDEST DUP1 DUP3 LT ISZERO PUSH2 0x27C2 JUMPI PUSH1 0x9 PUSH1 0x0 SWAP1 SLOAD SWAP1 PUSH2 0x100 EXP SWAP1 DIV PUSH20 0xFFFFFFFFFFFFFFFFFFFFFFFFFFFFFFFFFFFFFFFF AND PUSH20 0xFFFFFFFFFFFFFFFFFFFFFFFFFFFFFFFFFFFFFFFF AND PUSH4 0xA9059CBB CALLER DUP5 DUP5 PUSH2 0x270A SWAP2 SWAP1 PUSH2 0x4AC1 JUMP JUMPDEST PUSH1 0x40 MLOAD DUP4 PUSH4 0xFFFFFFFF AND PUSH1 0xE0 SHL DUP2 MSTORE PUSH1 0x4 ADD PUSH2 0x2727 SWAP3 SWAP2 SWAP1 PUSH2 0x451A JUMP JUMPDEST PUSH1 0x20 PUSH1 0x40 MLOAD DUP1 DUP4 SUB DUP2 PUSH1 0x0 DUP8 DUP1 EXTCODESIZE ISZERO DUP1 ISZERO PUSH2 0x2741 JUMPI PUSH1 0x0 DUP1 REVERT JUMPDEST POP GAS CALL ISZERO DUP1 ISZERO PUSH2 0x2755 JUMPI RETURNDATASIZE PUSH1 0x0 DUP1 RETURNDATACOPY RETURNDATASIZE PUSH1 0x0 REVERT JUMPDEST POP POP POP POP PUSH1 0x40 MLOAD RETURNDATASIZE PUSH1 0x1F NOT PUSH1 0x1F DUP3 ADD AND DUP3 ADD DUP1 PUSH1 0x40 MSTORE POP DUP2 ADD SWAP1 PUSH2 0x2779 SWAP2 SWAP1 PUSH2 0x3E6D JUMP JUMPDEST POP DUP2 DUP2 PUSH2 0x2786 SWAP2 SWAP1 PUSH2 0x4AC1 JUMP JUMPDEST PUSH1 0xE PUSH1 0x0 DUP7 DUP2 MSTORE PUSH1 0x20 ADD SWAP1 DUP2 MSTORE PUSH1 0x20 ADD PUSH1 0x0 KECCAK256 PUSH1 0x3 ADD SLOAD PUSH2 0x27A7 SWAP2 SWAP1 PUSH2 0x4AC1 JUMP JUMPDEST PUSH1 0xE PUSH1 0x0 DUP7 DUP2 MSTORE PUSH1 0x20 ADD SWAP1 DUP2 MSTORE PUSH1 0x20 ADD PUSH1 0x0 KECCAK256 PUSH1 0x3 ADD DUP2 SWAP1 SSTORE POP JUMPDEST JUMPDEST DUP5 PUSH1 0xE PUSH1 0x0 DUP7 DUP2 MSTORE PUSH1 0x20 ADD SWAP1 DUP2 MSTORE PUSH1 0x20 ADD PUSH1 0x0 KECCAK256 PUSH1 0xB ADD PUSH1 0x0 DUP6 DUP2 MSTORE PUSH1 0x20 ADD SWAP1 DUP2 MSTORE PUSH1 0x20 ADD PUSH1 0x0 KECCAK256 PUSH1 0x3 ADD DUP2 SWAP1 SSTORE POP PUSH2 0x27FA PUSH2 0x1F1E JUMP JUMPDEST PUSH32 0x74C5C6F5CD4370CC0AB554A1AFDB2B24B051B40C99102354EF424AED5CD6409D DUP5 PUSH1 0xE PUSH1 0x0 DUP8 DUP2 MSTORE PUSH1 0x20 ADD SWAP1 DUP2 MSTORE PUSH1 0x20 ADD PUSH1 0x0 KECCAK256 PUSH1 0xB ADD PUSH1 0x0 DUP7 DUP2 MSTORE PUSH1 0x20 ADD SWAP1 DUP2 MSTORE PUSH1 0x20 ADD PUSH1 0x0 KECCAK256 PUSH1 0x40 MLOAD PUSH2 0x2851 SWAP3 SWAP2 SWAP1 PUSH2 0x47E9 JUMP JUMPDEST PUSH1 0x40 MLOAD DUP1 SWAP2 SUB SWAP1 LOG1 POP POP POP POP POP POP POP JUMP JUMPDEST PUSH1 0x8 PUSH1 0x0 SWAP1 SLOAD SWAP1 PUSH2 0x100 EXP SWAP1 DIV PUSH20 0xFFFFFFFFFFFFFFFFFFFFFFFFFFFFFFFFFFFFFFFF AND DUP2 JUMP JUMPDEST PUSH1 0x4 PUSH1 0x0 SWAP1 SLOAD SWAP1 PUSH2 0x100 EXP SWAP1 DIV PUSH20 0xFFFFFFFFFFFFFFFFFFFFFFFFFFFFFFFFFFFFFFFF AND DUP2 JUMP JUMPDEST PUSH1 0x0 PUSH1 0xE PUSH1 0x0 DUP4 DUP2 MSTORE PUSH1 0x20 ADD SWAP1 DUP2 MSTORE PUSH1 0x20 ADD PUSH1 0x0 KECCAK256 PUSH1 0x3 ADD SLOAD SWAP1 POP SWAP2 SWAP1 POP JUMP JUMPDEST PUSH1 0x9 PUSH1 0x0 SWAP1 SLOAD SWAP1 PUSH2 0x100 EXP SWAP1 DIV PUSH20 0xFFFFFFFFFFFFFFFFFFFFFFFFFFFFFFFFFFFFFFFF AND DUP2 JUMP JUMPDEST PUSH1 0x0 SLOAD DUP2 JUMP JUMPDEST PUSH1 0x3 SLOAD DUP2 JUMP JUMPDEST PUSH1 0x0 DUP1 TIMESTAMP PUSH1 0x0 SLOAD PUSH2 0x2910 TIMESTAMP PUSH2 0x1491 JUMP JUMPDEST PUSH2 0x291A SWAP2 SWAP1 PUSH2 0x49AF JUMP JUMPDEST PUSH2 0x2924 SWAP2 SWAP1 PUSH2 0x4AC1 JUMP JUMPDEST SWAP1 POP PUSH1 0x0 DUP1 SLOAD DUP3 PUSH1 0xD SLOAD PUSH2 0x2938 SWAP2 SWAP1 PUSH2 0x4A67 JUMP JUMPDEST PUSH2 0x2942 SWAP2 SWAP1 PUSH2 0x4A36 JUMP JUMPDEST SWAP1 POP PUSH3 0x186A0 PUSH1 0x7 SLOAD DUP6 PUSH2 0x2956 SWAP2 SWAP1 PUSH2 0x4A67 JUMP JUMPDEST PUSH2 0x2960 SWAP2 SWAP1 PUSH2 0x4A36 JUMP JUMPDEST SWAP3 POP PUSH1 0xD SLOAD DUP2 DUP5 PUSH2 0x2971 SWAP2 SWAP1 PUSH2 0x4A67 JUMP JUMPDEST PUSH2 0x297B SWAP2 SWAP1 PUSH2 0x4A36 JUMP JUMPDEST PUSH2 0x2984 DUP7 PUSH2 0x3B6A JUMP JUMPDEST DUP5 PUSH2 0x298F SWAP2 SWAP1 PUSH2 0x4A67 JUMP JUMPDEST PUSH2 0x2999 SWAP2 SWAP1 PUSH2 0x49AF JUMP JUMPDEST SWAP3 POP POP POP SWAP3 SWAP2 POP POP JUMP JUMPDEST PUSH1 0x0 DUP1 PUSH2 0x29AF DUP4 PUSH2 0x1491 JUMP JUMPDEST SWAP1 POP PUSH1 0x0 PUSH1 0x2 DUP2 GT ISZERO PUSH2 0x29EB JUMPI PUSH32 0x4E487B7100000000000000000000000000000000000000000000000000000000 PUSH1 0x0 MSTORE PUSH1 0x21 PUSH1 0x4 MSTORE PUSH1 0x24 PUSH1 0x0 REVERT JUMPDEST PUSH1 0xE PUSH1 0x0 DUP4 DUP2 MSTORE PUSH1 0x20 ADD SWAP1 DUP2 MSTORE PUSH1 0x20 ADD PUSH1 0x0 KECCAK256 PUSH1 0x9 ADD PUSH1 0x0 SWAP1 SLOAD SWAP1 PUSH2 0x100 EXP SWAP1 DIV PUSH1 0xFF AND PUSH1 0x2 DUP2 GT ISZERO PUSH2 0x2A47 JUMPI PUSH32 0x4E487B7100000000000000000000000000000000000000000000000000000000 PUSH1 0x0 MSTORE PUSH1 0x21 PUSH1 0x4 MSTORE PUSH1 0x24 PUSH1 0x0 REVERT JUMPDEST EQ PUSH2 0x2A55 JUMPI DUP1 SWAP2 POP POP PUSH2 0x2B4E JUMP JUMPDEST PUSH2 0x2A5E TIMESTAMP PUSH2 0x1491 JUMP JUMPDEST DUP2 LT ISZERO PUSH2 0x2AA0 JUMPI PUSH1 0x40 MLOAD PUSH32 0x8C379A000000000000000000000000000000000000000000000000000000000 DUP2 MSTORE PUSH1 0x4 ADD PUSH2 0x2A97 SWAP1 PUSH2 0x4753 JUMP JUMPDEST PUSH1 0x40 MLOAD DUP1 SWAP2 SUB SWAP1 REVERT JUMPDEST DUP1 PUSH1 0xE PUSH1 0x0 DUP4 DUP2 MSTORE PUSH1 0x20 ADD SWAP1 DUP2 MSTORE PUSH1 0x20 ADD PUSH1 0x0 KECCAK256 PUSH1 0x0 ADD DUP2 SWAP1 SSTORE POP PUSH1 0x1 PUSH1 0xE PUSH1 0x0 DUP4 DUP2 MSTORE PUSH1 0x20 ADD SWAP1 DUP2 MSTORE PUSH1 0x20 ADD PUSH1 0x0 KECCAK256 PUSH1 0x9 ADD PUSH1 0x0 PUSH2 0x100 EXP DUP2 SLOAD DUP2 PUSH1 0xFF MUL NOT AND SWAP1 DUP4 PUSH1 0x2 DUP2 GT ISZERO PUSH2 0x2B1B JUMPI PUSH32 0x4E487B7100000000000000000000000000000000000000000000000000000000 PUSH1 0x0 MSTORE PUSH1 0x21 PUSH1 0x4 MSTORE PUSH1 0x24 PUSH1 0x0 REVERT JUMPDEST MUL OR SWAP1 SSTORE POP PUSH1 0x10 DUP2 SWAP1 DUP1 PUSH1 0x1 DUP2 SLOAD ADD DUP1 DUP3 SSTORE DUP1 SWAP2 POP POP PUSH1 0x1 SWAP1 SUB SWAP1 PUSH1 0x0 MSTORE PUSH1 0x20 PUSH1 0x0 KECCAK256 ADD PUSH1 0x0 SWAP1 SWAP2 SWAP1 SWAP2 SWAP1 SWAP2 POP SSTORE DUP1 SWAP2 POP POP JUMPDEST SWAP2 SWAP1 POP JUMP JUMPDEST PUSH1 0x0 PUSH2 0x2B5F DUP4 DUP4 PUSH2 0x2900 JUMP JUMPDEST SWAP1 POP PUSH1 0xB SLOAD DUP2 LT ISZERO PUSH2 0x2BA6 JUMPI PUSH1 0x40 MLOAD PUSH32 0x8C379A000000000000000000000000000000000000000000000000000000000 DUP2 MSTORE PUSH1 0x4 ADD PUSH2 0x2B9D SWAP1 PUSH2 0x46B3 JUMP JUMPDEST PUSH1 0x40 MLOAD DUP1 SWAP2 SUB SWAP1 REVERT JUMPDEST POP POP POP JUMP JUMPDEST PUSH1 0x0 DUP1 PUSH2 0x2BB7 DUP4 PUSH2 0x1EE8 JUMP JUMPDEST SWAP1 POP PUSH1 0x0 PUSH1 0x2 DUP2 GT ISZERO PUSH2 0x2BF3 JUMPI PUSH32 0x4E487B7100000000000000000000000000000000000000000000000000000000 PUSH1 0x0 MSTORE PUSH1 0x21 PUSH1 0x4 MSTORE PUSH1 0x24 PUSH1 0x0 REVERT JUMPDEST PUSH1 0xE PUSH1 0x0 DUP7 DUP2 MSTORE PUSH1 0x20 ADD SWAP1 DUP2 MSTORE PUSH1 0x20 ADD PUSH1 0x0 KECCAK256 PUSH1 0xB ADD PUSH1 0x0 DUP4 DUP2 MSTORE PUSH1 0x20 ADD SWAP1 DUP2 MSTORE PUSH1 0x20 ADD PUSH1 0x0 KECCAK256 PUSH1 0x4 ADD PUSH1 0x0 SWAP1 SLOAD SWAP1 PUSH2 0x100 EXP SWAP1 DIV PUSH1 0xFF AND PUSH1 0x2 DUP2 GT ISZERO PUSH2 0x2C63 JUMPI PUSH32 0x4E487B7100000000000000000000000000000000000000000000000000000000 PUSH1 0x0 MSTORE PUSH1 0x21 PUSH1 0x4 MSTORE PUSH1 0x24 PUSH1 0x0 REVERT JUMPDEST EQ PUSH2 0x2C71 JUMPI DUP1 SWAP2 POP POP PUSH2 0x2D11 JUMP JUMPDEST DUP4 PUSH1 0xE PUSH1 0x0 DUP7 DUP2 MSTORE PUSH1 0x20 ADD SWAP1 DUP2 MSTORE PUSH1 0x20 ADD PUSH1 0x0 KECCAK256 PUSH1 0xB ADD PUSH1 0x0 DUP4 DUP2 MSTORE PUSH1 0x20 ADD SWAP1 DUP2 MSTORE PUSH1 0x20 ADD PUSH1 0x0 KECCAK256 PUSH1 0x0 ADD DUP2 SWAP1 SSTORE POP DUP1 PUSH1 0xE PUSH1 0x0 DUP7 DUP2 MSTORE PUSH1 0x20 ADD SWAP1 DUP2 MSTORE PUSH1 0x20 ADD PUSH1 0x0 KECCAK256 PUSH1 0xB ADD PUSH1 0x0 DUP4 DUP2 MSTORE PUSH1 0x20 ADD SWAP1 DUP2 MSTORE PUSH1 0x20 ADD PUSH1 0x0 KECCAK256 PUSH1 0x1 ADD DUP2 SWAP1 SSTORE POP PUSH1 0xE PUSH1 0x0 DUP6 DUP2 MSTORE PUSH1 0x20 ADD SWAP1 DUP2 MSTORE PUSH1 0x20 ADD PUSH1 0x0 KECCAK256 PUSH1 0xA ADD DUP2 SWAP1 DUP1 PUSH1 0x1 DUP2 SLOAD ADD DUP1 DUP3 SSTORE DUP1 SWAP2 POP POP PUSH1 0x1 SWAP1 SUB SWAP1 PUSH1 0x0 MSTORE PUSH1 0x20 PUSH1 0x0 KECCAK256 ADD PUSH1 0x0 SWAP1 SWAP2 SWAP1 SWAP2 SWAP1 SWAP2 POP SSTORE DUP1 SWAP2 POP POP JUMPDEST SWAP3 SWAP2 POP POP JUMP JUMPDEST PUSH1 0x0 PUSH1 0xE PUSH1 0x0 DUP4 DUP2 MSTORE PUSH1 0x20 ADD SWAP1 DUP2 MSTORE PUSH1 0x20 ADD PUSH1 0x0 KECCAK256 PUSH1 0x5 ADD SLOAD GT ISZERO DUP1 PUSH2 0x2D54 JUMPI POP PUSH1 0x0 PUSH1 0xE PUSH1 0x0 DUP4 DUP2 MSTORE PUSH1 0x20 ADD SWAP1 DUP2 MSTORE PUSH1 0x20 ADD PUSH1 0x0 KECCAK256 PUSH1 0x6 ADD SLOAD GT ISZERO JUMPDEST ISZERO PUSH2 0x2D94 JUMPI PUSH1 0x40 MLOAD PUSH32 0x8C379A000000000000000000000000000000000000000000000000000000000 DUP2 MSTORE PUSH1 0x4 ADD PUSH2 0x2D8B SWAP1 PUSH2 0x4673 JUMP JUMPDEST PUSH1 0x40 MLOAD DUP1 SWAP2 SUB SWAP1 REVERT JUMPDEST PUSH1 0xE PUSH1 0x0 DUP3 DUP2 MSTORE PUSH1 0x20 ADD SWAP1 DUP2 MSTORE PUSH1 0x20 ADD PUSH1 0x0 KECCAK256 PUSH1 0x6 ADD SLOAD PUSH1 0xE PUSH1 0x0 DUP4 DUP2 MSTORE PUSH1 0x20 ADD SWAP1 DUP2 MSTORE PUSH1 0x20 ADD PUSH1 0x0 KECCAK256 PUSH1 0x5 ADD SLOAD EQ ISZERO PUSH2 0x2E03 JUMPI PUSH1 0x40 MLOAD PUSH32 0x8C379A000000000000000000000000000000000000000000000000000000000 DUP2 MSTORE PUSH1 0x4 ADD PUSH2 0x2DFA SWAP1 PUSH2 0x4673 JUMP JUMPDEST PUSH1 0x40 MLOAD DUP1 SWAP2 SUB SWAP1 REVERT JUMPDEST POP JUMP JUMPDEST PUSH1 0x0 PUSH1 0x70 PUSH1 0xFF AND DUP3 PUSH1 0x0 ADD MLOAD PUSH28 0xFFFFFFFFFFFFFFFFFFFFFFFFFFFFFFFFFFFFFFFFFFFFFFFFFFFFFFFF AND SWAP1 SHR SWAP1 POP SWAP2 SWAP1 POP JUMP JUMPDEST PUSH1 0x0 DUP1 PUSH1 0x0 PUSH2 0x2E46 PUSH2 0x3BA6 JUMP JUMPDEST SWAP1 POP DUP4 PUSH20 0xFFFFFFFFFFFFFFFFFFFFFFFFFFFFFFFFFFFFFFFF AND PUSH4 0x5909C0D5 PUSH1 0x40 MLOAD DUP2 PUSH4 0xFFFFFFFF AND PUSH1 0xE0 SHL DUP2 MSTORE PUSH1 0x4 ADD PUSH1 0x20 PUSH1 0x40 MLOAD DUP1 DUP4 SUB DUP2 DUP7 DUP1 EXTCODESIZE ISZERO DUP1 ISZERO PUSH2 0x2E8E JUMPI PUSH1 0x0 DUP1 REVERT JUMPDEST POP GAS STATICCALL ISZERO DUP1 ISZERO PUSH2 0x2EA2 JUMPI RETURNDATASIZE PUSH1 0x0 DUP1 RETURNDATACOPY RETURNDATASIZE PUSH1 0x0 REVERT JUMPDEST POP POP POP POP PUSH1 0x40 MLOAD RETURNDATASIZE PUSH1 0x1F NOT PUSH1 0x1F DUP3 ADD AND DUP3 ADD DUP1 PUSH1 0x40 MSTORE POP DUP2 ADD SWAP1 PUSH2 0x2EC6 SWAP2 SWAP1 PUSH2 0x3F0E JUMP JUMPDEST SWAP3 POP DUP4 PUSH20 0xFFFFFFFFFFFFFFFFFFFFFFFFFFFFFFFFFFFFFFFF AND PUSH4 0x5A3D5493 PUSH1 0x40 MLOAD DUP2 PUSH4 0xFFFFFFFF AND PUSH1 0xE0 SHL DUP2 MSTORE PUSH1 0x4 ADD PUSH1 0x20 PUSH1 0x40 MLOAD DUP1 DUP4 SUB DUP2 DUP7 DUP1 EXTCODESIZE ISZERO DUP1 ISZERO PUSH2 0x2F0E JUMPI PUSH1 0x0 DUP1 REVERT JUMPDEST POP GAS STATICCALL ISZERO DUP1 ISZERO PUSH2 0x2F22 JUMPI RETURNDATASIZE PUSH1 0x0 DUP1 RETURNDATACOPY RETURNDATASIZE PUSH1 0x0 REVERT JUMPDEST POP POP POP POP PUSH1 0x40 MLOAD RETURNDATASIZE PUSH1 0x1F NOT PUSH1 0x1F DUP3 ADD AND DUP3 ADD DUP1 PUSH1 0x40 MSTORE POP DUP2 ADD SWAP1 PUSH2 0x2F46 SWAP2 SWAP1 PUSH2 0x3F0E JUMP JUMPDEST SWAP2 POP PUSH1 0x0 DUP1 PUSH1 0x0 DUP7 PUSH20 0xFFFFFFFFFFFFFFFFFFFFFFFFFFFFFFFFFFFFFFFF AND PUSH4 0x902F1AC PUSH1 0x40 MLOAD DUP2 PUSH4 0xFFFFFFFF AND PUSH1 0xE0 SHL DUP2 MSTORE PUSH1 0x4 ADD PUSH1 0x60 PUSH1 0x40 MLOAD DUP1 DUP4 SUB DUP2 DUP7 DUP1 EXTCODESIZE ISZERO DUP1 ISZERO PUSH2 0x2F93 JUMPI PUSH1 0x0 DUP1 REVERT JUMPDEST POP GAS STATICCALL ISZERO DUP1 ISZERO PUSH2 0x2FA7 JUMPI RETURNDATASIZE PUSH1 0x0 DUP1 RETURNDATACOPY RETURNDATASIZE PUSH1 0x0 REVERT JUMPDEST POP POP POP POP PUSH1 0x40 MLOAD RETURNDATASIZE PUSH1 0x1F NOT PUSH1 0x1F DUP3 ADD AND DUP3 ADD DUP1 PUSH1 0x40 MSTORE POP DUP2 ADD SWAP1 PUSH2 0x2FCB SWAP2 SWAP1 PUSH2 0x3E96 JUMP JUMPDEST SWAP3 POP SWAP3 POP SWAP3 POP DUP4 PUSH4 0xFFFFFFFF AND DUP2 PUSH4 0xFFFFFFFF AND EQ PUSH2 0x308A JUMPI PUSH1 0x0 DUP2 DUP6 PUSH2 0x2FF2 SWAP2 SWAP1 PUSH2 0x4AF5 JUMP JUMPDEST SWAP1 POP DUP1 PUSH4 0xFFFFFFFF AND PUSH2 0x3005 DUP5 DUP7 PUSH2 0x3BBE JUMP JUMPDEST PUSH1 0x0 ADD MLOAD PUSH28 0xFFFFFFFFFFFFFFFFFFFFFFFFFFFFFFFFFFFFFFFFFFFFFFFFFFFFFFFF AND PUSH2 0x3031 SWAP2 SWAP1 PUSH2 0x4A67 JUMP JUMPDEST DUP8 PUSH2 0x303C SWAP2 SWAP1 PUSH2 0x49AF JUMP JUMPDEST SWAP7 POP DUP1 PUSH4 0xFFFFFFFF AND PUSH2 0x304F DUP6 DUP6 PUSH2 0x3BBE JUMP JUMPDEST PUSH1 0x0 ADD MLOAD PUSH28 0xFFFFFFFFFFFFFFFFFFFFFFFFFFFFFFFFFFFFFFFFFFFFFFFFFFFFFFFF AND PUSH2 0x307B SWAP2 SWAP1 PUSH2 0x4A67 JUMP JUMPDEST DUP7 PUSH2 0x3086 SWAP2 SWAP1 PUSH2 0x49AF JUMP JUMPDEST SWAP6 POP POP JUMPDEST POP POP POP SWAP2 SWAP4 SWAP1 SWAP3 POP JUMP JUMPDEST PUSH2 0x309D DUP2 PUSH2 0x2D17 JUMP JUMPDEST TIMESTAMP PUSH1 0x0 SLOAD DUP3 PUSH2 0x30AC SWAP2 SWAP1 PUSH2 0x49AF JUMP JUMPDEST GT ISZERO PUSH2 0x30ED JUMPI PUSH1 0x40 MLOAD PUSH32 0x8C379A000000000000000000000000000000000000000000000000000000000 DUP2 MSTORE PUSH1 0x4 ADD PUSH2 0x30E4 SWAP1 PUSH2 0x45F3 JUMP JUMPDEST PUSH1 0x40 MLOAD DUP1 SWAP2 SUB SWAP1 REVERT JUMPDEST PUSH1 0x2 PUSH1 0xE PUSH1 0x0 DUP4 DUP2 MSTORE PUSH1 0x20 ADD SWAP1 DUP2 MSTORE PUSH1 0x20 ADD PUSH1 0x0 KECCAK256 PUSH1 0x9 ADD PUSH1 0x0 PUSH2 0x100 EXP DUP2 SLOAD DUP2 PUSH1 0xFF MUL NOT AND SWAP1 DUP4 PUSH1 0x2 DUP2 GT ISZERO PUSH2 0x314D JUMPI PUSH32 0x4E487B7100000000000000000000000000000000000000000000000000000000 PUSH1 0x0 MSTORE PUSH1 0x21 PUSH1 0x4 MSTORE PUSH1 0x24 PUSH1 0x0 REVERT JUMPDEST MUL OR SWAP1 SSTORE POP PUSH1 0x0 PUSH1 0xE PUSH1 0x0 DUP4 DUP2 MSTORE PUSH1 0x20 ADD SWAP1 DUP2 MSTORE PUSH1 0x20 ADD PUSH1 0x0 KECCAK256 PUSH1 0x1 ADD SLOAD PUSH1 0xE PUSH1 0x0 DUP5 DUP2 MSTORE PUSH1 0x20 ADD SWAP1 DUP2 MSTORE PUSH1 0x20 ADD PUSH1 0x0 KECCAK256 PUSH1 0x2 ADD SLOAD PUSH2 0x318C SWAP2 SWAP1 PUSH2 0x4AC1 JUMP JUMPDEST SWAP1 POP PUSH1 0xC PUSH1 0x0 SWAP1 SLOAD SWAP1 PUSH2 0x100 EXP SWAP1 DIV PUSH1 0xFF AND ISZERO PUSH2 0x3249 JUMPI PUSH2 0x321A PUSH1 0x40 MLOAD DUP1 PUSH1 0x20 ADD PUSH1 0x40 MSTORE DUP1 DUP4 PUSH1 0xE PUSH1 0x0 DUP8 DUP2 MSTORE PUSH1 0x20 ADD SWAP1 DUP2 MSTORE PUSH1 0x20 ADD PUSH1 0x0 KECCAK256 PUSH1 0x5 ADD SLOAD PUSH1 0xE PUSH1 0x0 DUP9 DUP2 MSTORE PUSH1 0x20 ADD SWAP1 DUP2 MSTORE PUSH1 0x20 ADD PUSH1 0x0 KECCAK256 PUSH1 0x6 ADD SLOAD PUSH2 0x31EA SWAP2 SWAP1 PUSH2 0x4AC1 JUMP JUMPDEST PUSH2 0x31F4 SWAP2 SWAP1 PUSH2 0x4A36 JUMP JUMPDEST PUSH28 0xFFFFFFFFFFFFFFFFFFFFFFFFFFFFFFFFFFFFFFFFFFFFFFFFFFFFFFFF AND DUP2 MSTORE POP PUSH2 0x2E06 JUMP JUMPDEST PUSH14 0xFFFFFFFFFFFFFFFFFFFFFFFFFFFF AND PUSH1 0xE PUSH1 0x0 DUP5 DUP2 MSTORE PUSH1 0x20 ADD SWAP1 DUP2 MSTORE PUSH1 0x20 ADD PUSH1 0x0 KECCAK256 PUSH1 0x4 ADD DUP2 SWAP1 SSTORE POP PUSH2 0x32EB JUMP JUMPDEST PUSH2 0x32C0 PUSH1 0x40 MLOAD DUP1 PUSH1 0x20 ADD PUSH1 0x40 MSTORE DUP1 DUP4 PUSH1 0xE PUSH1 0x0 DUP8 DUP2 MSTORE PUSH1 0x20 ADD SWAP1 DUP2 MSTORE PUSH1 0x20 ADD PUSH1 0x0 KECCAK256 PUSH1 0x7 ADD SLOAD PUSH1 0xE PUSH1 0x0 DUP9 DUP2 MSTORE PUSH1 0x20 ADD SWAP1 DUP2 MSTORE PUSH1 0x20 ADD PUSH1 0x0 KECCAK256 PUSH1 0x8 ADD SLOAD PUSH2 0x3290 SWAP2 SWAP1 PUSH2 0x4AC1 JUMP JUMPDEST PUSH2 0x329A SWAP2 SWAP1 PUSH2 0x4A36 JUMP JUMPDEST PUSH28 0xFFFFFFFFFFFFFFFFFFFFFFFFFFFFFFFFFFFFFFFFFFFFFFFFFFFFFFFF AND DUP2 MSTORE POP PUSH2 0x2E06 JUMP JUMPDEST PUSH14 0xFFFFFFFFFFFFFFFFFFFFFFFFFFFF AND PUSH1 0xE PUSH1 0x0 DUP5 DUP2 MSTORE PUSH1 0x20 ADD SWAP1 DUP2 MSTORE PUSH1 0x20 ADD PUSH1 0x0 KECCAK256 PUSH1 0x4 ADD DUP2 SWAP1 SSTORE POP JUMPDEST PUSH1 0xD SLOAD PUSH1 0xE PUSH1 0x0 DUP5 DUP2 MSTORE PUSH1 0x20 ADD SWAP1 DUP2 MSTORE PUSH1 0x20 ADD PUSH1 0x0 KECCAK256 PUSH1 0x4 ADD SLOAD PUSH2 0x330F SWAP2 SWAP1 PUSH2 0x4A67 JUMP JUMPDEST PUSH1 0xE PUSH1 0x0 DUP5 DUP2 MSTORE PUSH1 0x20 ADD SWAP1 DUP2 MSTORE PUSH1 0x20 ADD PUSH1 0x0 KECCAK256 PUSH1 0x4 ADD DUP2 SWAP1 SSTORE POP PUSH1 0x0 PUSH3 0x186A0 PUSH1 0x6 SLOAD PUSH1 0xE PUSH1 0x0 DUP7 DUP2 MSTORE PUSH1 0x20 ADD SWAP1 DUP2 MSTORE PUSH1 0x20 ADD PUSH1 0x0 KECCAK256 PUSH1 0x3 ADD SLOAD PUSH2 0x3353 SWAP2 SWAP1 PUSH2 0x4A67 JUMP JUMPDEST PUSH2 0x335D SWAP2 SWAP1 PUSH2 0x4A36 JUMP JUMPDEST SWAP1 POP PUSH1 0x0 PUSH3 0x186A0 PUSH1 0x2 SLOAD PUSH1 0xE PUSH1 0x0 DUP8 DUP2 MSTORE PUSH1 0x20 ADD SWAP1 DUP2 MSTORE PUSH1 0x20 ADD PUSH1 0x0 KECCAK256 PUSH1 0x3 ADD SLOAD PUSH2 0x3389 SWAP2 SWAP1 PUSH2 0x4A67 JUMP JUMPDEST PUSH2 0x3393 SWAP2 SWAP1 PUSH2 0x4A36 JUMP JUMPDEST SWAP1 POP DUP1 DUP3 PUSH1 0xE PUSH1 0x0 DUP8 DUP2 MSTORE PUSH1 0x20 ADD SWAP1 DUP2 MSTORE PUSH1 0x20 ADD PUSH1 0x0 KECCAK256 PUSH1 0x3 ADD SLOAD PUSH2 0x33B8 SWAP2 SWAP1 PUSH2 0x4AC1 JUMP JUMPDEST PUSH2 0x33C2 SWAP2 SWAP1 PUSH2 0x4AC1 JUMP JUMPDEST PUSH1 0xE PUSH1 0x0 DUP7 DUP2 MSTORE PUSH1 0x20 ADD SWAP1 DUP2 MSTORE PUSH1 0x20 ADD PUSH1 0x0 KECCAK256 PUSH1 0x3 ADD DUP2 SWAP1 SSTORE POP PUSH1 0x9 PUSH1 0x0 SWAP1 SLOAD SWAP1 PUSH2 0x100 EXP SWAP1 DIV PUSH20 0xFFFFFFFFFFFFFFFFFFFFFFFFFFFFFFFFFFFFFFFF AND PUSH20 0xFFFFFFFFFFFFFFFFFFFFFFFFFFFFFFFFFFFFFFFF AND PUSH4 0xA9059CBB PUSH1 0xA PUSH1 0x0 SWAP1 SLOAD SWAP1 PUSH2 0x100 EXP SWAP1 DIV PUSH20 0xFFFFFFFFFFFFFFFFFFFFFFFFFFFFFFFFFFFFFFFF AND DUP5 PUSH1 0x40 MLOAD DUP4 PUSH4 0xFFFFFFFF AND PUSH1 0xE0 SHL DUP2 MSTORE PUSH1 0x4 ADD PUSH2 0x345B SWAP3 SWAP2 SWAP1 PUSH2 0x451A JUMP JUMPDEST PUSH1 0x20 PUSH1 0x40 MLOAD DUP1 DUP4 SUB DUP2 PUSH1 0x0 DUP8 DUP1 EXTCODESIZE ISZERO DUP1 ISZERO PUSH2 0x3475 JUMPI PUSH1 0x0 DUP1 REVERT JUMPDEST POP GAS CALL ISZERO DUP1 ISZERO PUSH2 0x3489 JUMPI RETURNDATASIZE PUSH1 0x0 DUP1 RETURNDATACOPY RETURNDATASIZE PUSH1 0x0 REVERT JUMPDEST POP POP POP POP PUSH1 0x40 MLOAD RETURNDATASIZE PUSH1 0x1F NOT PUSH1 0x1F DUP3 ADD AND DUP3 ADD DUP1 PUSH1 0x40 MSTORE POP DUP2 ADD SWAP1 PUSH2 0x34AD SWAP2 SWAP1 PUSH2 0x3E6D JUMP JUMPDEST POP PUSH1 0x9 PUSH1 0x0 SWAP1 SLOAD SWAP1 PUSH2 0x100 EXP SWAP1 DIV PUSH20 0xFFFFFFFFFFFFFFFFFFFFFFFFFFFFFFFFFFFFFFFF AND PUSH20 0xFFFFFFFFFFFFFFFFFFFFFFFFFFFFFFFFFFFFFFFF AND PUSH4 0xA9059CBB PUSH1 0x8 PUSH1 0x0 SWAP1 SLOAD SWAP1 PUSH2 0x100 EXP SWAP1 DIV PUSH20 0xFFFFFFFFFFFFFFFFFFFFFFFFFFFFFFFFFFFFFFFF AND PUSH20 0xFFFFFFFFFFFFFFFFFFFFFFFFFFFFFFFFFFFFFFFF AND PUSH4 0x8DA5CB5B PUSH1 0x40 MLOAD DUP2 PUSH4 0xFFFFFFFF AND PUSH1 0xE0 SHL DUP2 MSTORE PUSH1 0x4 ADD PUSH1 0x20 PUSH1 0x40 MLOAD DUP1 DUP4 SUB DUP2 DUP7 DUP1 EXTCODESIZE ISZERO DUP1 ISZERO PUSH2 0x3554 JUMPI PUSH1 0x0 DUP1 REVERT JUMPDEST POP GAS STATICCALL ISZERO DUP1 ISZERO PUSH2 0x3568 JUMPI RETURNDATASIZE PUSH1 0x0 DUP1 RETURNDATACOPY RETURNDATASIZE PUSH1 0x0 REVERT JUMPDEST POP POP POP POP PUSH1 0x40 MLOAD RETURNDATASIZE PUSH1 0x1F NOT PUSH1 0x1F DUP3 ADD AND DUP3 ADD DUP1 PUSH1 0x40 MSTORE POP DUP2 ADD SWAP1 PUSH2 0x358C SWAP2 SWAP1 PUSH2 0x3E08 JUMP JUMPDEST DUP4 PUSH1 0x40 MLOAD DUP4 PUSH4 0xFFFFFFFF AND PUSH1 0xE0 SHL DUP2 MSTORE PUSH1 0x4 ADD PUSH2 0x35AA SWAP3 SWAP2 SWAP1 PUSH2 0x451A JUMP JUMPDEST PUSH1 0x20 PUSH1 0x40 MLOAD DUP1 DUP4 SUB DUP2 PUSH1 0x0 DUP8 DUP1 EXTCODESIZE ISZERO DUP1 ISZERO PUSH2 0x35C4 JUMPI PUSH1 0x0 DUP1 REVERT JUMPDEST POP GAS CALL ISZERO DUP1 ISZERO PUSH2 0x35D8 JUMPI RETURNDATASIZE PUSH1 0x0 DUP1 RETURNDATACOPY RETURNDATASIZE PUSH1 0x0 REVERT JUMPDEST POP POP POP POP PUSH1 0x40 MLOAD RETURNDATASIZE PUSH1 0x1F NOT PUSH1 0x1F DUP3 ADD AND DUP3 ADD DUP1 PUSH1 0x40 MSTORE POP DUP2 ADD SWAP1 PUSH2 0x35FC SWAP2 SWAP1 PUSH2 0x3E6D JUMP JUMPDEST POP PUSH32 0xF733BD7F4402CB7D331B34D5CD22F432B9BF71A833F786974545860D74976AF2 DUP5 PUSH1 0xE PUSH1 0x0 DUP8 DUP2 MSTORE PUSH1 0x20 ADD SWAP1 DUP2 MSTORE PUSH1 0x20 ADD PUSH1 0x0 KECCAK256 PUSH1 0x1 ADD SLOAD PUSH1 0xE PUSH1 0x0 DUP9 DUP2 MSTORE PUSH1 0x20 ADD SWAP1 DUP2 MSTORE PUSH1 0x20 ADD PUSH1 0x0 KECCAK256 PUSH1 0x2 ADD SLOAD PUSH1 0xE PUSH1 0x0 DUP10 DUP2 MSTORE PUSH1 0x20 ADD SWAP1 DUP2 MSTORE PUSH1 0x20 ADD PUSH1 0x0 KECCAK256 PUSH1 0x5 ADD SLOAD PUSH1 0xE PUSH1 0x0 DUP11 DUP2 MSTORE PUSH1 0x20 ADD SWAP1 DUP2 MSTORE PUSH1 0x20 ADD PUSH1 0x0 KECCAK256 PUSH1 0x6 ADD SLOAD PUSH1 0xE PUSH1 0x0 DUP12 DUP2 MSTORE PUSH1 0x20 ADD SWAP1 DUP2 MSTORE PUSH1 0x20 ADD PUSH1 0x0 KECCAK256 PUSH1 0x7 ADD SLOAD PUSH1 0xE PUSH1 0x0 DUP13 DUP2 MSTORE PUSH1 0x20 ADD SWAP1 DUP2 MSTORE PUSH1 0x20 ADD PUSH1 0x0 KECCAK256 PUSH1 0x8 ADD SLOAD PUSH1 0xE PUSH1 0x0 DUP14 DUP2 MSTORE PUSH1 0x20 ADD SWAP1 DUP2 MSTORE PUSH1 0x20 ADD PUSH1 0x0 KECCAK256 PUSH1 0x3 ADD SLOAD PUSH1 0x40 MLOAD PUSH2 0x36D4 SWAP9 SWAP8 SWAP7 SWAP6 SWAP5 SWAP4 SWAP3 SWAP2 SWAP1 PUSH2 0x4812 JUMP JUMPDEST PUSH1 0x40 MLOAD DUP1 SWAP2 SUB SWAP1 LOG1 POP POP POP POP JUMP JUMPDEST PUSH1 0x2 DUP1 DUP2 GT ISZERO PUSH2 0x371B JUMPI PUSH32 0x4E487B7100000000000000000000000000000000000000000000000000000000 PUSH1 0x0 MSTORE PUSH1 0x21 PUSH1 0x4 MSTORE PUSH1 0x24 PUSH1 0x0 REVERT JUMPDEST PUSH1 0xE PUSH1 0x0 DUP4 DUP2 MSTORE PUSH1 0x20 ADD SWAP1 DUP2 MSTORE PUSH1 0x20 ADD PUSH1 0x0 KECCAK256 PUSH1 0x9 ADD PUSH1 0x0 SWAP1 SLOAD SWAP1 PUSH2 0x100 EXP SWAP1 DIV PUSH1 0xFF AND PUSH1 0x2 DUP2 GT ISZERO PUSH2 0x3777 JUMPI PUSH32 0x4E487B7100000000000000000000000000000000000000000000000000000000 PUSH1 0x0 MSTORE PUSH1 0x21 PUSH1 0x4 MSTORE PUSH1 0x24 PUSH1 0x0 REVERT JUMPDEST EQ PUSH2 0x37B7 JUMPI PUSH1 0x40 MLOAD PUSH32 0x8C379A000000000000000000000000000000000000000000000000000000000 DUP2 MSTORE PUSH1 0x4 ADD PUSH2 0x37AE SWAP1 PUSH2 0x4733 JUMP JUMPDEST PUSH1 0x40 MLOAD DUP1 SWAP2 SUB SWAP1 REVERT JUMPDEST PUSH1 0x0 PUSH2 0x37D8 PUSH1 0xE PUSH1 0x0 DUP5 DUP2 MSTORE PUSH1 0x20 ADD SWAP1 DUP2 MSTORE PUSH1 0x20 ADD PUSH1 0x0 KECCAK256 PUSH1 0x4 ADD SLOAD PUSH2 0x1EE8 JUMP JUMPDEST SWAP1 POP PUSH1 0x2 DUP1 DUP2 GT ISZERO PUSH2 0x3813 JUMPI PUSH32 0x4E487B7100000000000000000000000000000000000000000000000000000000 PUSH1 0x0 MSTORE PUSH1 0x21 PUSH1 0x4 MSTORE PUSH1 0x24 PUSH1 0x0 REVERT JUMPDEST PUSH1 0xE PUSH1 0x0 DUP5 DUP2 MSTORE PUSH1 0x20 ADD SWAP1 DUP2 MSTORE PUSH1 0x20 ADD PUSH1 0x0 KECCAK256 PUSH1 0xB ADD PUSH1 0x0 DUP4 DUP2 MSTORE PUSH1 0x20 ADD SWAP1 DUP2 MSTORE PUSH1 0x20 ADD PUSH1 0x0 KECCAK256 PUSH1 0x4 ADD PUSH1 0x0 SWAP1 SLOAD SWAP1 PUSH2 0x100 EXP SWAP1 DIV PUSH1 0xFF AND PUSH1 0x2 DUP2 GT ISZERO PUSH2 0x3883 JUMPI PUSH32 0x4E487B7100000000000000000000000000000000000000000000000000000000 PUSH1 0x0 MSTORE PUSH1 0x21 PUSH1 0x4 MSTORE PUSH1 0x24 PUSH1 0x0 REVERT JUMPDEST EQ ISZERO PUSH2 0x38C4 JUMPI PUSH1 0x40 MLOAD PUSH32 0x8C379A000000000000000000000000000000000000000000000000000000000 DUP2 MSTORE PUSH1 0x4 ADD PUSH2 0x38BB SWAP1 PUSH2 0x4693 JUMP JUMPDEST PUSH1 0x40 MLOAD DUP1 SWAP2 SUB SWAP1 REVERT JUMPDEST PUSH1 0x0 PUSH20 0xFFFFFFFFFFFFFFFFFFFFFFFFFFFFFFFFFFFFFFFF AND PUSH1 0xE PUSH1 0x0 DUP5 DUP2 MSTORE PUSH1 0x20 ADD SWAP1 DUP2 MSTORE PUSH1 0x20 ADD PUSH1 0x0 KECCAK256 PUSH1 0xB ADD PUSH1 0x0 DUP4 DUP2 MSTORE PUSH1 0x20 ADD SWAP1 DUP2 MSTORE PUSH1 0x20 ADD PUSH1 0x0 KECCAK256 PUSH1 0x2 ADD PUSH1 0x0 SWAP1 SLOAD SWAP1 PUSH2 0x100 EXP SWAP1 DIV PUSH20 0xFFFFFFFFFFFFFFFFFFFFFFFFFFFFFFFFFFFFFFFF AND PUSH20 0xFFFFFFFFFFFFFFFFFFFFFFFFFFFFFFFFFFFFFFFF AND EQ ISZERO PUSH2 0x397E JUMPI PUSH1 0x40 MLOAD PUSH32 0x8C379A000000000000000000000000000000000000000000000000000000000 DUP2 MSTORE PUSH1 0x4 ADD PUSH2 0x3975 SWAP1 PUSH2 0x4653 JUMP JUMPDEST PUSH1 0x40 MLOAD DUP1 SWAP2 SUB SWAP1 REVERT JUMPDEST PUSH1 0x9 PUSH1 0x0 SWAP1 SLOAD SWAP1 PUSH2 0x100 EXP SWAP1 DIV PUSH20 0xFFFFFFFFFFFFFFFFFFFFFFFFFFFFFFFFFFFFFFFF AND PUSH20 0xFFFFFFFFFFFFFFFFFFFFFFFFFFFFFFFFFFFFFFFF AND PUSH4 0xA9059CBB PUSH1 0xE PUSH1 0x0 DUP6 DUP2 MSTORE PUSH1 0x20 ADD SWAP1 DUP2 MSTORE PUSH1 0x20 ADD PUSH1 0x0 KECCAK256 PUSH1 0xB ADD PUSH1 0x0 DUP5 DUP2 MSTORE PUSH1 0x20 ADD SWAP1 DUP2 MSTORE PUSH1 0x20 ADD PUSH1 0x0 KECCAK256 PUSH1 0x2 ADD PUSH1 0x0 SWAP1 SLOAD SWAP1 PUSH2 0x100 EXP SWAP1 DIV PUSH20 0xFFFFFFFFFFFFFFFFFFFFFFFFFFFFFFFFFFFFFFFF AND PUSH1 0xE PUSH1 0x0 DUP7 DUP2 MSTORE PUSH1 0x20 ADD SWAP1 DUP2 MSTORE PUSH1 0x20 ADD PUSH1 0x0 KECCAK256 PUSH1 0x3 ADD SLOAD PUSH1 0x40 MLOAD DUP4 PUSH4 0xFFFFFFFF AND PUSH1 0xE0 SHL DUP2 MSTORE PUSH1 0x4 ADD PUSH2 0x3A3B SWAP3 SWAP2 SWAP1 PUSH2 0x451A JUMP JUMPDEST PUSH1 0x20 PUSH1 0x40 MLOAD DUP1 DUP4 SUB DUP2 PUSH1 0x0 DUP8 DUP1 EXTCODESIZE ISZERO DUP1 ISZERO PUSH2 0x3A55 JUMPI PUSH1 0x0 DUP1 REVERT JUMPDEST POP GAS CALL ISZERO DUP1 ISZERO PUSH2 0x3A69 JUMPI RETURNDATASIZE PUSH1 0x0 DUP1 RETURNDATACOPY RETURNDATASIZE PUSH1 0x0 REVERT JUMPDEST POP POP POP POP PUSH1 0x40 MLOAD RETURNDATASIZE PUSH1 0x1F NOT PUSH1 0x1F DUP3 ADD AND DUP3 ADD DUP1 PUSH1 0x40 MSTORE POP DUP2 ADD SWAP1 PUSH2 0x3A8D SWAP2 SWAP1 PUSH2 0x3E6D JUMP JUMPDEST POP PUSH1 0x2 PUSH1 0xE PUSH1 0x0 DUP5 DUP2 MSTORE PUSH1 0x20 ADD SWAP1 DUP2 MSTORE PUSH1 0x20 ADD PUSH1 0x0 KECCAK256 PUSH1 0xB ADD PUSH1 0x0 DUP4 DUP2 MSTORE PUSH1 0x20 ADD SWAP1 DUP2 MSTORE PUSH1 0x20 ADD PUSH1 0x0 KECCAK256 PUSH1 0x4 ADD PUSH1 0x0 PUSH2 0x100 EXP DUP2 SLOAD DUP2 PUSH1 0xFF MUL NOT AND SWAP1 DUP4 PUSH1 0x2 DUP2 GT ISZERO PUSH2 0x3B02 JUMPI PUSH32 0x4E487B7100000000000000000000000000000000000000000000000000000000 PUSH1 0x0 MSTORE PUSH1 0x21 PUSH1 0x4 MSTORE PUSH1 0x24 PUSH1 0x0 REVERT JUMPDEST MUL OR SWAP1 SSTORE POP PUSH32 0x74C5C6F5CD4370CC0AB554A1AFDB2B24B051B40C99102354EF424AED5CD6409D DUP3 PUSH1 0xE PUSH1 0x0 DUP6 DUP2 MSTORE PUSH1 0x20 ADD SWAP1 DUP2 MSTORE PUSH1 0x20 ADD PUSH1 0x0 KECCAK256 PUSH1 0xB ADD PUSH1 0x0 DUP5 DUP2 MSTORE PUSH1 0x20 ADD SWAP1 DUP2 MSTORE PUSH1 0x20 ADD PUSH1 0x0 KECCAK256 PUSH1 0x40 MLOAD PUSH2 0x3B5E SWAP3 SWAP2 SWAP1 PUSH2 0x47E9 JUMP JUMPDEST PUSH1 0x40 MLOAD DUP1 SWAP2 SUB SWAP1 LOG1 POP POP JUMP JUMPDEST PUSH1 0x0 PUSH2 0x3B75 TIMESTAMP PUSH2 0x1491 JUMP JUMPDEST DUP3 EQ ISZERO PUSH2 0x3B85 JUMPI PUSH1 0x0 SWAP1 POP PUSH2 0x3BA1 JUMP JUMPDEST PUSH1 0x0 SLOAD TIMESTAMP DUP4 PUSH2 0x3B94 SWAP2 SWAP1 PUSH2 0x4AC1 JUMP JUMPDEST PUSH2 0x3B9E SWAP2 SWAP1 PUSH2 0x4A36 JUMP JUMPDEST SWAP1 POP JUMPDEST SWAP2 SWAP1 POP JUMP JUMPDEST PUSH1 0x0 PUSH5 0x100000000 TIMESTAMP PUSH2 0x3BB9 SWAP2 SWAP1 PUSH2 0x4D47 JUMP JUMPDEST SWAP1 POP SWAP1 JUMP JUMPDEST PUSH2 0x3BC6 PUSH2 0x3D1B JUMP JUMPDEST PUSH1 0x0 DUP3 PUSH14 0xFFFFFFFFFFFFFFFFFFFFFFFFFFFF AND GT PUSH2 0x3C19 JUMPI PUSH1 0x40 MLOAD PUSH32 0x8C379A000000000000000000000000000000000000000000000000000000000 DUP2 MSTORE PUSH1 0x4 ADD PUSH2 0x3C10 SWAP1 PUSH2 0x4793 JUMP JUMPDEST PUSH1 0x40 MLOAD DUP1 SWAP2 SUB SWAP1 REVERT JUMPDEST PUSH1 0x40 MLOAD DUP1 PUSH1 0x20 ADD PUSH1 0x40 MSTORE DUP1 DUP4 PUSH14 0xFFFFFFFFFFFFFFFFFFFFFFFFFFFF AND PUSH1 0x70 PUSH1 0xFF AND DUP7 PUSH14 0xFFFFFFFFFFFFFFFFFFFFFFFFFFFF AND PUSH28 0xFFFFFFFFFFFFFFFFFFFFFFFFFFFFFFFFFFFFFFFFFFFFFFFFFFFFFFFF AND SWAP1 SHL PUSH2 0x3C75 SWAP2 SWAP1 PUSH2 0x4A05 JUMP JUMPDEST PUSH28 0xFFFFFFFFFFFFFFFFFFFFFFFFFFFFFFFFFFFFFFFFFFFFFFFFFFFFFFFF AND DUP2 MSTORE POP SWAP1 POP SWAP3 SWAP2 POP POP JUMP JUMPDEST PUSH1 0x40 MLOAD DUP1 PUSH1 0xA0 ADD PUSH1 0x40 MSTORE DUP1 PUSH1 0x0 DUP2 MSTORE PUSH1 0x20 ADD PUSH1 0x0 DUP2 MSTORE PUSH1 0x20 ADD PUSH1 0x0 PUSH20 0xFFFFFFFFFFFFFFFFFFFFFFFFFFFFFFFFFFFFFFFF AND DUP2 MSTORE PUSH1 0x20 ADD PUSH1 0x0 DUP2 MSTORE PUSH1 0x20 ADD PUSH1 0x0 PUSH1 0x2 DUP2 GT ISZERO PUSH2 0x3D15 JUMPI PUSH32 0x4E487B7100000000000000000000000000000000000000000000000000000000 PUSH1 0x0 MSTORE PUSH1 0x21 PUSH1 0x4 MSTORE PUSH1 0x24 PUSH1 0x0 REVERT JUMPDEST DUP2 MSTORE POP SWAP1 JUMP JUMPDEST PUSH1 0x40 MLOAD DUP1 PUSH1 0x20 ADD PUSH1 0x40 MSTORE DUP1 PUSH1 0x0 PUSH28 0xFFFFFFFFFFFFFFFFFFFFFFFFFFFFFFFFFFFFFFFFFFFFFFFFFFFFFFFF AND DUP2 MSTORE POP SWAP1 JUMP JUMPDEST PUSH1 0x0 DUP2 CALLDATALOAD SWAP1 POP PUSH2 0x3D5B DUP2 PUSH2 0x5078 JUMP JUMPDEST SWAP3 SWAP2 POP POP JUMP JUMPDEST PUSH1 0x0 DUP2 MLOAD SWAP1 POP PUSH2 0x3D70 DUP2 PUSH2 0x5078 JUMP JUMPDEST SWAP3 SWAP2 POP POP JUMP JUMPDEST PUSH1 0x0 DUP2 MLOAD SWAP1 POP PUSH2 0x3D85 DUP2 PUSH2 0x508F JUMP JUMPDEST SWAP3 SWAP2 POP POP JUMP JUMPDEST PUSH1 0x0 DUP2 MLOAD SWAP1 POP PUSH2 0x3D9A DUP2 PUSH2 0x50A6 JUMP JUMPDEST SWAP3 SWAP2 POP POP JUMP JUMPDEST PUSH1 0x0 DUP2 CALLDATALOAD SWAP1 POP PUSH2 0x3DAF DUP2 PUSH2 0x50BD JUMP JUMPDEST SWAP3 SWAP2 POP POP JUMP JUMPDEST PUSH1 0x0 DUP2 MLOAD SWAP1 POP PUSH2 0x3DC4 DUP2 PUSH2 0x50BD JUMP JUMPDEST SWAP3 SWAP2 POP POP JUMP JUMPDEST PUSH1 0x0 DUP2 MLOAD SWAP1 POP PUSH2 0x3DD9 DUP2 PUSH2 0x50D4 JUMP JUMPDEST SWAP3 SWAP2 POP POP JUMP JUMPDEST PUSH1 0x0 PUSH1 0x20 DUP3 DUP5 SUB SLT ISZERO PUSH2 0x3DF1 JUMPI PUSH1 0x0 DUP1 REVERT JUMPDEST PUSH1 0x0 PUSH2 0x3DFF DUP5 DUP3 DUP6 ADD PUSH2 0x3D4C JUMP JUMPDEST SWAP2 POP POP SWAP3 SWAP2 POP POP JUMP JUMPDEST PUSH1 0x0 PUSH1 0x20 DUP3 DUP5 SUB SLT ISZERO PUSH2 0x3E1A JUMPI PUSH1 0x0 DUP1 REVERT JUMPDEST PUSH1 0x0 PUSH2 0x3E28 DUP5 DUP3 DUP6 ADD PUSH2 0x3D61 JUMP JUMPDEST SWAP2 POP POP SWAP3 SWAP2 POP POP JUMP JUMPDEST PUSH1 0x0 DUP1 PUSH1 0x40 DUP4 DUP6 SUB SLT ISZERO PUSH2 0x3E44 JUMPI PUSH1 0x0 DUP1 REVERT JUMPDEST PUSH1 0x0 PUSH2 0x3E52 DUP6 DUP3 DUP7 ADD PUSH2 0x3D4C JUMP JUMPDEST SWAP3 POP POP PUSH1 0x20 PUSH2 0x3E63 DUP6 DUP3 DUP7 ADD PUSH2 0x3DA0 JUMP JUMPDEST SWAP2 POP POP SWAP3 POP SWAP3 SWAP1 POP JUMP JUMPDEST PUSH1 0x0 PUSH1 0x20 DUP3 DUP5 SUB SLT ISZERO PUSH2 0x3E7F JUMPI PUSH1 0x0 DUP1 REVERT JUMPDEST PUSH1 0x0 PUSH2 0x3E8D DUP5 DUP3 DUP6 ADD PUSH2 0x3D76 JUMP JUMPDEST SWAP2 POP POP SWAP3 SWAP2 POP POP JUMP JUMPDEST PUSH1 0x0 DUP1 PUSH1 0x0 PUSH1 0x60 DUP5 DUP7 SUB SLT ISZERO PUSH2 0x3EAB JUMPI PUSH1 0x0 DUP1 REVERT JUMPDEST PUSH1 0x0 PUSH2 0x3EB9 DUP7 DUP3 DUP8 ADD PUSH2 0x3D8B JUMP JUMPDEST SWAP4 POP POP PUSH1 0x20 PUSH2 0x3ECA DUP7 DUP3 DUP8 ADD PUSH2 0x3D8B JUMP JUMPDEST SWAP3 POP POP PUSH1 0x40 PUSH2 0x3EDB DUP7 DUP3 DUP8 ADD PUSH2 0x3DCA JUMP JUMPDEST SWAP2 POP POP SWAP3 POP SWAP3 POP SWAP3 JUMP JUMPDEST PUSH1 0x0 PUSH1 0x20 DUP3 DUP5 SUB SLT ISZERO PUSH2 0x3EF7 JUMPI PUSH1 0x0 DUP1 REVERT JUMPDEST PUSH1 0x0 PUSH2 0x3F05 DUP5 DUP3 DUP6 ADD PUSH2 0x3DA0 JUMP JUMPDEST SWAP2 POP POP SWAP3 SWAP2 POP POP JUMP JUMPDEST PUSH1 0x0 PUSH1 0x20 DUP3 DUP5 SUB SLT ISZERO PUSH2 0x3F20 JUMPI PUSH1 0x0 DUP1 REVERT JUMPDEST PUSH1 0x0 PUSH2 0x3F2E DUP5 DUP3 DUP6 ADD PUSH2 0x3DB5 JUMP JUMPDEST SWAP2 POP POP SWAP3 SWAP2 POP POP JUMP JUMPDEST PUSH1 0x0 DUP1 PUSH1 0x40 DUP4 DUP6 SUB SLT ISZERO PUSH2 0x3F4A JUMPI PUSH1 0x0 DUP1 REVERT JUMPDEST PUSH1 0x0 PUSH2 0x3F58 DUP6 DUP3 DUP7 ADD PUSH2 0x3DA0 JUMP JUMPDEST SWAP3 POP POP PUSH1 0x20 PUSH2 0x3F69 DUP6 DUP3 DUP7 ADD PUSH2 0x3DA0 JUMP JUMPDEST SWAP2 POP POP SWAP3 POP SWAP3 SWAP1 POP JUMP JUMPDEST PUSH1 0x0 DUP1 PUSH1 0x0 PUSH1 0x60 DUP5 DUP7 SUB SLT ISZERO PUSH2 0x3F88 JUMPI PUSH1 0x0 DUP1 REVERT JUMPDEST PUSH1 0x0 PUSH2 0x3F96 DUP7 DUP3 DUP8 ADD PUSH2 0x3DA0 JUMP JUMPDEST SWAP4 POP POP PUSH1 0x20 PUSH2 0x3FA7 DUP7 DUP3 DUP8 ADD PUSH2 0x3DA0 JUMP JUMPDEST SWAP3 POP POP PUSH1 0x40 PUSH2 0x3FB8 DUP7 DUP3 DUP8 ADD PUSH2 0x3DA0 JUMP JUMPDEST SWAP2 POP POP SWAP3 POP SWAP3 POP SWAP3 JUMP JUMPDEST PUSH1 0x0 PUSH2 0x3FCE DUP4 DUP4 PUSH2 0x4310 JUMP JUMPDEST PUSH1 0xA0 DUP4 ADD SWAP1 POP SWAP3 SWAP2 POP POP JUMP JUMPDEST PUSH1 0x0 PUSH2 0x3FE6 DUP4 DUP4 PUSH2 0x4481 JUMP JUMPDEST PUSH1 0x20 DUP4 ADD SWAP1 POP SWAP3 SWAP2 POP POP JUMP JUMPDEST PUSH2 0x3FFB DUP2 PUSH2 0x4B60 JUMP JUMPDEST DUP3 MSTORE POP POP JUMP JUMPDEST PUSH2 0x400A DUP2 PUSH2 0x4B60 JUMP JUMPDEST DUP3 MSTORE POP POP JUMP JUMPDEST PUSH1 0x0 PUSH2 0x401B DUP3 PUSH2 0x494C JUMP JUMPDEST PUSH2 0x4025 DUP2 DUP6 PUSH2 0x497C JUMP JUMPDEST SWAP4 POP PUSH2 0x4030 DUP4 PUSH2 0x492C JUMP JUMPDEST DUP1 PUSH1 0x0 JUMPDEST DUP4 DUP2 LT ISZERO PUSH2 0x4061 JUMPI DUP2 MLOAD PUSH2 0x4048 DUP9 DUP3 PUSH2 0x3FC2 JUMP JUMPDEST SWAP8 POP PUSH2 0x4053 DUP4 PUSH2 0x4962 JUMP JUMPDEST SWAP3 POP POP PUSH1 0x1 DUP2 ADD SWAP1 POP PUSH2 0x4034 JUMP JUMPDEST POP DUP6 SWAP4 POP POP POP POP SWAP3 SWAP2 POP POP JUMP JUMPDEST PUSH1 0x0 PUSH2 0x4079 DUP3 PUSH2 0x4957 JUMP JUMPDEST PUSH2 0x4083 DUP2 DUP6 PUSH2 0x498D JUMP JUMPDEST SWAP4 POP PUSH2 0x408E DUP4 PUSH2 0x493C JUMP JUMPDEST DUP1 PUSH1 0x0 JUMPDEST DUP4 DUP2 LT ISZERO PUSH2 0x40BF JUMPI DUP2 MLOAD PUSH2 0x40A6 DUP9 DUP3 PUSH2 0x3FDA JUMP JUMPDEST SWAP8 POP PUSH2 0x40B1 DUP4 PUSH2 0x496F JUMP JUMPDEST SWAP3 POP POP PUSH1 0x1 DUP2 ADD SWAP1 POP PUSH2 0x4092 JUMP JUMPDEST POP DUP6 SWAP4 POP POP POP POP SWAP3 SWAP2 POP POP JUMP JUMPDEST PUSH2 0x40D5 DUP2 PUSH2 0x4B72 JUMP JUMPDEST DUP3 MSTORE POP POP JUMP JUMPDEST PUSH2 0x40E4 DUP2 PUSH2 0x4C20 JUMP JUMPDEST DUP3 MSTORE POP POP JUMP JUMPDEST PUSH2 0x40F3 DUP2 PUSH2 0x4C44 JUMP JUMPDEST DUP3 MSTORE POP POP JUMP JUMPDEST PUSH2 0x4102 DUP2 PUSH2 0x4C68 JUMP JUMPDEST DUP3 MSTORE POP POP JUMP JUMPDEST PUSH2 0x4111 DUP2 PUSH2 0x4C8C JUMP JUMPDEST DUP3 MSTORE POP POP JUMP JUMPDEST PUSH2 0x4120 DUP2 PUSH2 0x4C9E JUMP JUMPDEST DUP3 MSTORE POP POP JUMP JUMPDEST PUSH1 0x0 PUSH2 0x4133 PUSH1 0x1A DUP4 PUSH2 0x499E JUMP JUMPDEST SWAP2 POP PUSH2 0x413E DUP3 PUSH2 0x4E12 JUMP JUMPDEST PUSH1 0x20 DUP3 ADD SWAP1 POP SWAP2 SWAP1 POP JUMP JUMPDEST PUSH1 0x0 PUSH2 0x4156 PUSH1 0xB DUP4 PUSH2 0x499E JUMP JUMPDEST SWAP2 POP PUSH2 0x4161 DUP3 PUSH2 0x4E3B JUMP JUMPDEST PUSH1 0x20 DUP3 ADD SWAP1 POP SWAP2 SWAP1 POP JUMP JUMPDEST PUSH1 0x0 PUSH2 0x4179 PUSH1 0xD DUP4 PUSH2 0x499E JUMP JUMPDEST SWAP2 POP PUSH2 0x4184 DUP3 PUSH2 0x4E64 JUMP JUMPDEST PUSH1 0x20 DUP3 ADD SWAP1 POP SWAP2 SWAP1 POP JUMP JUMPDEST PUSH1 0x0 PUSH2 0x419C PUSH1 0x8 DUP4 PUSH2 0x499E JUMP JUMPDEST SWAP2 POP PUSH2 0x41A7 DUP3 PUSH2 0x4E8D JUMP JUMPDEST PUSH1 0x20 DUP3 ADD SWAP1 POP SWAP2 SWAP1 POP JUMP JUMPDEST PUSH1 0x0 PUSH2 0x41BF PUSH1 0x13 DUP4 PUSH2 0x499E JUMP JUMPDEST SWAP2 POP PUSH2 0x41CA DUP3 PUSH2 0x4EB6 JUMP JUMPDEST PUSH1 0x20 DUP3 ADD SWAP1 POP SWAP2 SWAP1 POP JUMP JUMPDEST PUSH1 0x0 PUSH2 0x41E2 PUSH1 0x13 DUP4 PUSH2 0x499E JUMP JUMPDEST SWAP2 POP PUSH2 0x41ED DUP3 PUSH2 0x4EDF JUMP JUMPDEST PUSH1 0x20 DUP3 ADD SWAP1 POP SWAP2 SWAP1 POP JUMP JUMPDEST PUSH1 0x0 PUSH2 0x4205 PUSH1 0x10 DUP4 PUSH2 0x499E JUMP JUMPDEST SWAP2 POP PUSH2 0x4210 DUP3 PUSH2 0x4F08 JUMP JUMPDEST PUSH1 0x20 DUP3 ADD SWAP1 POP SWAP2 SWAP1 POP JUMP JUMPDEST PUSH1 0x0 PUSH2 0x4228 PUSH1 0x1B DUP4 PUSH2 0x499E JUMP JUMPDEST SWAP2 POP PUSH2 0x4233 DUP3 PUSH2 0x4F31 JUMP JUMPDEST PUSH1 0x20 DUP3 ADD SWAP1 POP SWAP2 SWAP1 POP JUMP JUMPDEST PUSH1 0x0 PUSH2 0x424B PUSH1 0xD DUP4 PUSH2 0x499E JUMP JUMPDEST SWAP2 POP PUSH2 0x4256 DUP3 PUSH2 0x4F5A JUMP JUMPDEST PUSH1 0x20 DUP3 ADD SWAP1 POP SWAP2 SWAP1 POP JUMP JUMPDEST PUSH1 0x0 PUSH2 0x426E PUSH1 0x19 DUP4 PUSH2 0x499E JUMP JUMPDEST SWAP2 POP PUSH2 0x4279 DUP3 PUSH2 0x4F83 JUMP JUMPDEST PUSH1 0x20 DUP3 ADD SWAP1 POP SWAP2 SWAP1 POP JUMP JUMPDEST PUSH1 0x0 PUSH2 0x4291 PUSH1 0x10 DUP4 PUSH2 0x499E JUMP JUMPDEST SWAP2 POP PUSH2 0x429C DUP3 PUSH2 0x4FAC JUMP JUMPDEST PUSH1 0x20 DUP3 ADD SWAP1 POP SWAP2 SWAP1 POP JUMP JUMPDEST PUSH1 0x0 PUSH2 0x42B4 PUSH1 0xD DUP4 PUSH2 0x499E JUMP JUMPDEST SWAP2 POP PUSH2 0x42BF DUP3 PUSH2 0x4FD5 JUMP JUMPDEST PUSH1 0x20 DUP3 ADD SWAP1 POP SWAP2 SWAP1 POP JUMP JUMPDEST PUSH1 0x0 PUSH2 0x42D7 PUSH1 0x11 DUP4 PUSH2 0x499E JUMP JUMPDEST SWAP2 POP PUSH2 0x42E2 DUP3 PUSH2 0x4FFE JUMP JUMPDEST PUSH1 0x20 DUP3 ADD SWAP1 POP SWAP2 SWAP1 POP JUMP JUMPDEST PUSH1 0x0 PUSH2 0x42FA PUSH1 0x17 DUP4 PUSH2 0x499E JUMP JUMPDEST SWAP2 POP PUSH2 0x4305 DUP3 PUSH2 0x5027 JUMP JUMPDEST PUSH1 0x20 DUP3 ADD SWAP1 POP SWAP2 SWAP1 POP JUMP JUMPDEST PUSH1 0xA0 DUP3 ADD PUSH1 0x0 DUP3 ADD MLOAD PUSH2 0x4326 PUSH1 0x0 DUP6 ADD DUP3 PUSH2 0x4481 JUMP JUMPDEST POP PUSH1 0x20 DUP3 ADD MLOAD PUSH2 0x4339 PUSH1 0x20 DUP6 ADD DUP3 PUSH2 0x4481 JUMP JUMPDEST POP PUSH1 0x40 DUP3 ADD MLOAD PUSH2 0x434C PUSH1 0x40 DUP6 ADD DUP3 PUSH2 0x3FF2 JUMP JUMPDEST POP PUSH1 0x60 DUP3 ADD MLOAD PUSH2 0x435F PUSH1 0x60 DUP6 ADD DUP3 PUSH2 0x4481 JUMP JUMPDEST POP PUSH1 0x80 DUP3 ADD MLOAD PUSH2 0x4372 PUSH1 0x80 DUP6 ADD DUP3 PUSH2 0x4117 JUMP JUMPDEST POP POP POP POP JUMP JUMPDEST PUSH1 0xA0 DUP3 ADD PUSH1 0x0 DUP3 ADD MLOAD PUSH2 0x438E PUSH1 0x0 DUP6 ADD DUP3 PUSH2 0x4481 JUMP JUMPDEST POP PUSH1 0x20 DUP3 ADD MLOAD PUSH2 0x43A1 PUSH1 0x20 DUP6 ADD DUP3 PUSH2 0x4481 JUMP JUMPDEST POP PUSH1 0x40 DUP3 ADD MLOAD PUSH2 0x43B4 PUSH1 0x40 DUP6 ADD DUP3 PUSH2 0x3FF2 JUMP JUMPDEST POP PUSH1 0x60 DUP3 ADD MLOAD PUSH2 0x43C7 PUSH1 0x60 DUP6 ADD DUP3 PUSH2 0x4481 JUMP JUMPDEST POP PUSH1 0x80 DUP3 ADD MLOAD PUSH2 0x43DA PUSH1 0x80 DUP6 ADD DUP3 PUSH2 0x4117 JUMP JUMPDEST POP POP POP POP JUMP JUMPDEST PUSH1 0xA0 DUP3 ADD PUSH1 0x0 DUP1 DUP4 ADD SLOAD SWAP1 POP PUSH2 0x43F5 DUP2 PUSH2 0x4CE4 JUMP JUMPDEST PUSH2 0x4402 PUSH1 0x0 DUP7 ADD DUP3 PUSH2 0x4481 JUMP JUMPDEST POP PUSH1 0x1 DUP4 ADD SLOAD SWAP1 POP PUSH2 0x4413 DUP2 PUSH2 0x4CE4 JUMP JUMPDEST PUSH2 0x4420 PUSH1 0x20 DUP7 ADD DUP3 PUSH2 0x4481 JUMP JUMPDEST POP PUSH1 0x2 DUP4 ADD SLOAD SWAP1 POP PUSH2 0x4431 DUP2 PUSH2 0x4CB0 JUMP JUMPDEST PUSH2 0x443E PUSH1 0x40 DUP7 ADD DUP3 PUSH2 0x3FF2 JUMP JUMPDEST POP PUSH1 0x3 DUP4 ADD SLOAD SWAP1 POP PUSH2 0x444F DUP2 PUSH2 0x4CE4 JUMP JUMPDEST PUSH2 0x445C PUSH1 0x60 DUP7 ADD DUP3 PUSH2 0x4481 JUMP JUMPDEST POP PUSH1 0x4 DUP4 ADD SLOAD SWAP1 POP PUSH2 0x446D DUP2 PUSH2 0x4CCA JUMP JUMPDEST PUSH2 0x447A PUSH1 0x80 DUP7 ADD DUP3 PUSH2 0x4117 JUMP JUMPDEST POP POP POP POP POP JUMP JUMPDEST PUSH2 0x448A DUP2 PUSH2 0x4C06 JUMP JUMPDEST DUP3 MSTORE POP POP JUMP JUMPDEST PUSH2 0x4499 DUP2 PUSH2 0x4C06 JUMP JUMPDEST DUP3 MSTORE POP POP JUMP JUMPDEST PUSH1 0x0 PUSH1 0x20 DUP3 ADD SWAP1 POP PUSH2 0x44B4 PUSH1 0x0 DUP4 ADD DUP5 PUSH2 0x4001 JUMP JUMPDEST SWAP3 SWAP2 POP POP JUMP JUMPDEST PUSH1 0x0 PUSH1 0x40 DUP3 ADD SWAP1 POP PUSH2 0x44CF PUSH1 0x0 DUP4 ADD DUP6 PUSH2 0x4001 JUMP JUMPDEST PUSH2 0x44DC PUSH1 0x20 DUP4 ADD DUP5 PUSH2 0x4001 JUMP JUMPDEST SWAP4 SWAP3 POP POP POP JUMP JUMPDEST PUSH1 0x0 PUSH1 0x60 DUP3 ADD SWAP1 POP PUSH2 0x44F8 PUSH1 0x0 DUP4 ADD DUP7 PUSH2 0x4001 JUMP JUMPDEST PUSH2 0x4505 PUSH1 0x20 DUP4 ADD DUP6 PUSH2 0x4001 JUMP JUMPDEST PUSH2 0x4512 PUSH1 0x40 DUP4 ADD DUP5 PUSH2 0x4490 JUMP JUMPDEST SWAP5 SWAP4 POP POP POP POP JUMP JUMPDEST PUSH1 0x0 PUSH1 0x40 DUP3 ADD SWAP1 POP PUSH2 0x452F PUSH1 0x0 DUP4 ADD DUP6 PUSH2 0x4001 JUMP JUMPDEST PUSH2 0x453C PUSH1 0x20 DUP4 ADD DUP5 PUSH2 0x4490 JUMP JUMPDEST SWAP4 SWAP3 POP POP POP JUMP JUMPDEST PUSH1 0x0 PUSH1 0x20 DUP3 ADD SWAP1 POP DUP2 DUP2 SUB PUSH1 0x0 DUP4 ADD MSTORE PUSH2 0x455D DUP2 DUP5 PUSH2 0x4010 JUMP JUMPDEST SWAP1 POP SWAP3 SWAP2 POP POP JUMP JUMPDEST PUSH1 0x0 PUSH1 0x20 DUP3 ADD SWAP1 POP DUP2 DUP2 SUB PUSH1 0x0 DUP4 ADD MSTORE PUSH2 0x457F DUP2 DUP5 PUSH2 0x406E JUMP JUMPDEST SWAP1 POP SWAP3 SWAP2 POP POP JUMP JUMPDEST PUSH1 0x0 PUSH1 0x20 DUP3 ADD SWAP1 POP PUSH2 0x459C PUSH1 0x0 DUP4 ADD DUP5 PUSH2 0x40CC JUMP JUMPDEST SWAP3 SWAP2 POP POP JUMP JUMPDEST PUSH1 0x0 PUSH1 0x20 DUP3 ADD SWAP1 POP PUSH2 0x45B7 PUSH1 0x0 DUP4 ADD DUP5 PUSH2 0x40DB JUMP JUMPDEST SWAP3 SWAP2 POP POP JUMP JUMPDEST PUSH1 0x0 PUSH1 0x20 DUP3 ADD SWAP1 POP PUSH2 0x45D2 PUSH1 0x0 DUP4 ADD DUP5 PUSH2 0x40EA JUMP JUMPDEST SWAP3 SWAP2 POP POP JUMP JUMPDEST PUSH1 0x0 PUSH1 0x20 DUP3 ADD SWAP1 POP PUSH2 0x45ED PUSH1 0x0 DUP4 ADD DUP5 PUSH2 0x40F9 JUMP JUMPDEST SWAP3 SWAP2 POP POP JUMP JUMPDEST PUSH1 0x0 PUSH1 0x20 DUP3 ADD SWAP1 POP DUP2 DUP2 SUB PUSH1 0x0 DUP4 ADD MSTORE PUSH2 0x460C DUP2 PUSH2 0x4126 JUMP JUMPDEST SWAP1 POP SWAP2 SWAP1 POP JUMP JUMPDEST PUSH1 0x0 PUSH1 0x20 DUP3 ADD SWAP1 POP DUP2 DUP2 SUB PUSH1 0x0 DUP4 ADD MSTORE PUSH2 0x462C DUP2 PUSH2 0x4149 JUMP JUMPDEST SWAP1 POP SWAP2 SWAP1 POP JUMP JUMPDEST PUSH1 0x0 PUSH1 0x20 DUP3 ADD SWAP1 POP DUP2 DUP2 SUB PUSH1 0x0 DUP4 ADD MSTORE PUSH2 0x464C DUP2 PUSH2 0x416C JUMP JUMPDEST SWAP1 POP SWAP2 SWAP1 POP JUMP JUMPDEST PUSH1 0x0 PUSH1 0x20 DUP3 ADD SWAP1 POP DUP2 DUP2 SUB PUSH1 0x0 DUP4 ADD MSTORE PUSH2 0x466C DUP2 PUSH2 0x418F JUMP JUMPDEST SWAP1 POP SWAP2 SWAP1 POP JUMP JUMPDEST PUSH1 0x0 PUSH1 0x20 DUP3 ADD SWAP1 POP DUP2 DUP2 SUB PUSH1 0x0 DUP4 ADD MSTORE PUSH2 0x468C DUP2 PUSH2 0x41B2 JUMP JUMPDEST SWAP1 POP SWAP2 SWAP1 POP JUMP JUMPDEST PUSH1 0x0 PUSH1 0x20 DUP3 ADD SWAP1 POP DUP2 DUP2 SUB PUSH1 0x0 DUP4 ADD MSTORE PUSH2 0x46AC DUP2 PUSH2 0x41D5 JUMP JUMPDEST SWAP1 POP SWAP2 SWAP1 POP JUMP JUMPDEST PUSH1 0x0 PUSH1 0x20 DUP3 ADD SWAP1 POP DUP2 DUP2 SUB PUSH1 0x0 DUP4 ADD MSTORE PUSH2 0x46CC DUP2 PUSH2 0x41F8 JUMP JUMPDEST SWAP1 POP SWAP2 SWAP1 POP JUMP JUMPDEST PUSH1 0x0 PUSH1 0x20 DUP3 ADD SWAP1 POP DUP2 DUP2 SUB PUSH1 0x0 DUP4 ADD MSTORE PUSH2 0x46EC DUP2 PUSH2 0x421B JUMP JUMPDEST SWAP1 POP SWAP2 SWAP1 POP JUMP JUMPDEST PUSH1 0x0 PUSH1 0x20 DUP3 ADD SWAP1 POP DUP2 DUP2 SUB PUSH1 0x0 DUP4 ADD MSTORE PUSH2 0x470C DUP2 PUSH2 0x423E JUMP JUMPDEST SWAP1 POP SWAP2 SWAP1 POP JUMP JUMPDEST PUSH1 0x0 PUSH1 0x20 DUP3 ADD SWAP1 POP DUP2 DUP2 SUB PUSH1 0x0 DUP4 ADD MSTORE PUSH2 0x472C DUP2 PUSH2 0x4261 JUMP JUMPDEST SWAP1 POP SWAP2 SWAP1 POP JUMP JUMPDEST PUSH1 0x0 PUSH1 0x20 DUP3 ADD SWAP1 POP DUP2 DUP2 SUB PUSH1 0x0 DUP4 ADD MSTORE PUSH2 0x474C DUP2 PUSH2 0x4284 JUMP JUMPDEST SWAP1 POP SWAP2 SWAP1 POP JUMP JUMPDEST PUSH1 0x0 PUSH1 0x20 DUP3 ADD SWAP1 POP DUP2 DUP2 SUB PUSH1 0x0 DUP4 ADD MSTORE PUSH2 0x476C DUP2 PUSH2 0x42A7 JUMP JUMPDEST SWAP1 POP SWAP2 SWAP1 POP JUMP JUMPDEST PUSH1 0x0 PUSH1 0x20 DUP3 ADD SWAP1 POP DUP2 DUP2 SUB PUSH1 0x0 DUP4 ADD MSTORE PUSH2 0x478C DUP2 PUSH2 0x42CA JUMP JUMPDEST SWAP1 POP SWAP2 SWAP1 POP JUMP JUMPDEST PUSH1 0x0 PUSH1 0x20 DUP3 ADD SWAP1 POP DUP2 DUP2 SUB PUSH1 0x0 DUP4 ADD MSTORE PUSH2 0x47AC DUP2 PUSH2 0x42ED JUMP JUMPDEST SWAP1 POP SWAP2 SWAP1 POP JUMP JUMPDEST PUSH1 0x0 PUSH1 0xA0 DUP3 ADD SWAP1 POP PUSH2 0x47C8 PUSH1 0x0 DUP4 ADD DUP5 PUSH2 0x4378 JUMP JUMPDEST SWAP3 SWAP2 POP POP JUMP JUMPDEST PUSH1 0x0 PUSH1 0x20 DUP3 ADD SWAP1 POP PUSH2 0x47E3 PUSH1 0x0 DUP4 ADD DUP5 PUSH2 0x4490 JUMP JUMPDEST SWAP3 SWAP2 POP POP JUMP JUMPDEST PUSH1 0x0 PUSH1 0xC0 DUP3 ADD SWAP1 POP PUSH2 0x47FE PUSH1 0x0 DUP4 ADD DUP6 PUSH2 0x4490 JUMP JUMPDEST PUSH2 0x480B PUSH1 0x20 DUP4 ADD DUP5 PUSH2 0x43E0 JUMP JUMPDEST SWAP4 SWAP3 POP POP POP JUMP JUMPDEST PUSH1 0x0 PUSH2 0x100 DUP3 ADD SWAP1 POP PUSH2 0x4828 PUSH1 0x0 DUP4 ADD DUP12 PUSH2 0x4490 JUMP JUMPDEST PUSH2 0x4835 PUSH1 0x20 DUP4 ADD DUP11 PUSH2 0x4490 JUMP JUMPDEST PUSH2 0x4842 PUSH1 0x40 DUP4 ADD DUP10 PUSH2 0x4490 JUMP JUMPDEST PUSH2 0x484F PUSH1 0x60 DUP4 ADD DUP9 PUSH2 0x4490 JUMP JUMPDEST PUSH2 0x485C PUSH1 0x80 DUP4 ADD DUP8 PUSH2 0x4490 JUMP JUMPDEST PUSH2 0x4869 PUSH1 0xA0 DUP4 ADD DUP7 PUSH2 0x4490 JUMP JUMPDEST PUSH2 0x4876 PUSH1 0xC0 DUP4 ADD DUP6 PUSH2 0x4490 JUMP JUMPDEST PUSH2 0x4883 PUSH1 0xE0 DUP4 ADD DUP5 PUSH2 0x4490 JUMP JUMPDEST SWAP10 SWAP9 POP POP POP POP POP POP POP POP POP JUMP JUMPDEST PUSH1 0x0 PUSH2 0x140 DUP3 ADD SWAP1 POP PUSH2 0x48A6 PUSH1 0x0 DUP4 ADD DUP14 PUSH2 0x4490 JUMP JUMPDEST PUSH2 0x48B3 PUSH1 0x20 DUP4 ADD DUP13 PUSH2 0x4490 JUMP JUMPDEST PUSH2 0x48C0 PUSH1 0x40 DUP4 ADD DUP12 PUSH2 0x4490 JUMP JUMPDEST PUSH2 0x48CD PUSH1 0x60 DUP4 ADD DUP11 PUSH2 0x4490 JUMP JUMPDEST PUSH2 0x48DA PUSH1 0x80 DUP4 ADD DUP10 PUSH2 0x4490 JUMP JUMPDEST PUSH2 0x48E7 PUSH1 0xA0 DUP4 ADD DUP9 PUSH2 0x4490 JUMP JUMPDEST PUSH2 0x48F4 PUSH1 0xC0 DUP4 ADD DUP8 PUSH2 0x4490 JUMP JUMPDEST PUSH2 0x4901 PUSH1 0xE0 DUP4 ADD DUP7 PUSH2 0x4490 JUMP JUMPDEST PUSH2 0x490F PUSH2 0x100 DUP4 ADD DUP6 PUSH2 0x4490 JUMP JUMPDEST PUSH2 0x491D PUSH2 0x120 DUP4 ADD DUP5 PUSH2 0x4108 JUMP JUMPDEST SWAP12 SWAP11 POP POP POP POP POP POP POP POP POP POP POP JUMP JUMPDEST PUSH1 0x0 DUP2 SWAP1 POP PUSH1 0x20 DUP3 ADD SWAP1 POP SWAP2 SWAP1 POP JUMP JUMPDEST PUSH1 0x0 DUP2 SWAP1 POP PUSH1 0x20 DUP3 ADD SWAP1 POP SWAP2 SWAP1 POP JUMP JUMPDEST PUSH1 0x0 DUP2 MLOAD SWAP1 POP SWAP2 SWAP1 POP JUMP JUMPDEST PUSH1 0x0 DUP2 MLOAD SWAP1 POP SWAP2 SWAP1 POP JUMP JUMPDEST PUSH1 0x0 PUSH1 0x20 DUP3 ADD SWAP1 POP SWAP2 SWAP1 POP JUMP JUMPDEST PUSH1 0x0 PUSH1 0x20 DUP3 ADD SWAP1 POP SWAP2 SWAP1 POP JUMP JUMPDEST PUSH1 0x0 DUP3 DUP3 MSTORE PUSH1 0x20 DUP3 ADD SWAP1 POP SWAP3 SWAP2 POP POP JUMP JUMPDEST PUSH1 0x0 DUP3 DUP3 MSTORE PUSH1 0x20 DUP3 ADD SWAP1 POP SWAP3 SWAP2 POP POP JUMP JUMPDEST PUSH1 0x0 DUP3 DUP3 MSTORE PUSH1 0x20 DUP3 ADD SWAP1 POP SWAP3 SWAP2 POP POP JUMP JUMPDEST PUSH1 0x0 PUSH2 0x49BA DUP3 PUSH2 0x4C06 JUMP JUMPDEST SWAP2 POP PUSH2 0x49C5 DUP4 PUSH2 0x4C06 JUMP JUMPDEST SWAP3 POP DUP3 PUSH32 0xFFFFFFFFFFFFFFFFFFFFFFFFFFFFFFFFFFFFFFFFFFFFFFFFFFFFFFFFFFFFFFFF SUB DUP3 GT ISZERO PUSH2 0x49FA JUMPI PUSH2 0x49F9 PUSH2 0x4D78 JUMP JUMPDEST JUMPDEST DUP3 DUP3 ADD SWAP1 POP SWAP3 SWAP2 POP POP JUMP JUMPDEST PUSH1 0x0 PUSH2 0x4A10 DUP3 PUSH2 0x4BDE JUMP JUMPDEST SWAP2 POP PUSH2 0x4A1B DUP4 PUSH2 0x4BDE JUMP JUMPDEST SWAP3 POP DUP3 PUSH2 0x4A2B JUMPI PUSH2 0x4A2A PUSH2 0x4DA7 JUMP JUMPDEST JUMPDEST DUP3 DUP3 DIV SWAP1 POP SWAP3 SWAP2 POP POP JUMP JUMPDEST PUSH1 0x0 PUSH2 0x4A41 DUP3 PUSH2 0x4C06 JUMP JUMPDEST SWAP2 POP PUSH2 0x4A4C DUP4 PUSH2 0x4C06 JUMP JUMPDEST SWAP3 POP DUP3 PUSH2 0x4A5C JUMPI PUSH2 0x4A5B PUSH2 0x4DA7 JUMP JUMPDEST JUMPDEST DUP3 DUP3 DIV SWAP1 POP SWAP3 SWAP2 POP POP JUMP JUMPDEST PUSH1 0x0 PUSH2 0x4A72 DUP3 PUSH2 0x4C06 JUMP JUMPDEST SWAP2 POP PUSH2 0x4A7D DUP4 PUSH2 0x4C06 JUMP JUMPDEST SWAP3 POP DUP2 PUSH32 0xFFFFFFFFFFFFFFFFFFFFFFFFFFFFFFFFFFFFFFFFFFFFFFFFFFFFFFFFFFFFFFFF DIV DUP4 GT DUP3 ISZERO ISZERO AND ISZERO PUSH2 0x4AB6 JUMPI PUSH2 0x4AB5 PUSH2 0x4D78 JUMP JUMPDEST JUMPDEST DUP3 DUP3 MUL SWAP1 POP SWAP3 SWAP2 POP POP JUMP JUMPDEST PUSH1 0x0 PUSH2 0x4ACC DUP3 PUSH2 0x4C06 JUMP JUMPDEST SWAP2 POP PUSH2 0x4AD7 DUP4 PUSH2 0x4C06 JUMP JUMPDEST SWAP3 POP DUP3 DUP3 LT ISZERO PUSH2 0x4AEA JUMPI PUSH2 0x4AE9 PUSH2 0x4D78 JUMP JUMPDEST JUMPDEST DUP3 DUP3 SUB SWAP1 POP SWAP3 SWAP2 POP POP JUMP JUMPDEST PUSH1 0x0 PUSH2 0x4B00 DUP3 PUSH2 0x4C10 JUMP JUMPDEST SWAP2 POP PUSH2 0x4B0B DUP4 PUSH2 0x4C10 JUMP JUMPDEST SWAP3 POP DUP3 DUP3 LT ISZERO PUSH2 0x4B1E JUMPI PUSH2 0x4B1D PUSH2 0x4D78 JUMP JUMPDEST JUMPDEST DUP3 DUP3 SUB SWAP1 POP SWAP3 SWAP2 POP POP JUMP JUMPDEST PUSH1 0x0 PUSH20 0xFFFFFFFFFFFFFFFFFFFFFFFFFFFFFFFFFFFFFFFF DUP3 AND SWAP1 POP SWAP2 SWAP1 POP JUMP JUMPDEST PUSH1 0x0 PUSH1 0xFF DUP3 AND SWAP1 POP SWAP2 SWAP1 POP JUMP JUMPDEST PUSH1 0x0 DUP2 SWAP1 POP SWAP2 SWAP1 POP JUMP JUMPDEST PUSH1 0x0 PUSH2 0x4B6B DUP3 PUSH2 0x4BBE JUMP JUMPDEST SWAP1 POP SWAP2 SWAP1 POP JUMP JUMPDEST PUSH1 0x0 DUP2 ISZERO ISZERO SWAP1 POP SWAP2 SWAP1 POP JUMP JUMPDEST PUSH1 0x0 DUP2 SWAP1 POP PUSH2 0x4B8C DUP3 PUSH2 0x5050 JUMP JUMPDEST SWAP2 SWAP1 POP JUMP JUMPDEST PUSH1 0x0 DUP2 SWAP1 POP PUSH2 0x4B9F DUP3 PUSH2 0x5064 JUMP JUMPDEST SWAP2 SWAP1 POP JUMP JUMPDEST PUSH1 0x0 PUSH14 0xFFFFFFFFFFFFFFFFFFFFFFFFFFFF DUP3 AND SWAP1 POP SWAP2 SWAP1 POP JUMP JUMPDEST PUSH1 0x0 PUSH20 0xFFFFFFFFFFFFFFFFFFFFFFFFFFFFFFFFFFFFFFFF DUP3 AND SWAP1 POP SWAP2 SWAP1 POP JUMP JUMPDEST PUSH1 0x0 PUSH28 0xFFFFFFFFFFFFFFFFFFFFFFFFFFFFFFFFFFFFFFFFFFFFFFFFFFFFFFFF DUP3 AND SWAP1 POP SWAP2 SWAP1 POP JUMP JUMPDEST PUSH1 0x0 DUP2 SWAP1 POP SWAP2 SWAP1 POP JUMP JUMPDEST PUSH1 0x0 PUSH4 0xFFFFFFFF DUP3 AND SWAP1 POP SWAP2 SWAP1 POP JUMP JUMPDEST PUSH1 0x0 PUSH2 0x4C2B DUP3 PUSH2 0x4C32 JUMP JUMPDEST SWAP1 POP SWAP2 SWAP1 POP JUMP JUMPDEST PUSH1 0x0 PUSH2 0x4C3D DUP3 PUSH2 0x4BBE JUMP JUMPDEST SWAP1 POP SWAP2 SWAP1 POP JUMP JUMPDEST PUSH1 0x0 PUSH2 0x4C4F DUP3 PUSH2 0x4C56 JUMP JUMPDEST SWAP1 POP SWAP2 SWAP1 POP JUMP JUMPDEST PUSH1 0x0 PUSH2 0x4C61 DUP3 PUSH2 0x4BBE JUMP JUMPDEST SWAP1 POP SWAP2 SWAP1 POP JUMP JUMPDEST PUSH1 0x0 PUSH2 0x4C73 DUP3 PUSH2 0x4C7A JUMP JUMPDEST SWAP1 POP SWAP2 SWAP1 POP JUMP JUMPDEST PUSH1 0x0 PUSH2 0x4C85 DUP3 PUSH2 0x4BBE JUMP JUMPDEST SWAP1 POP SWAP2 SWAP1 POP JUMP JUMPDEST PUSH1 0x0 PUSH2 0x4C97 DUP3 PUSH2 0x4B7E JUMP JUMPDEST SWAP1 POP SWAP2 SWAP1 POP JUMP JUMPDEST PUSH1 0x0 PUSH2 0x4CA9 DUP3 PUSH2 0x4B91 JUMP JUMPDEST SWAP1 POP SWAP2 SWAP1 POP JUMP JUMPDEST PUSH1 0x0 PUSH2 0x4CC3 PUSH2 0x4CBE DUP4 PUSH2 0x4E05 JUMP JUMPDEST PUSH2 0x4B29 JUMP JUMPDEST SWAP1 POP SWAP2 SWAP1 POP JUMP JUMPDEST PUSH1 0x0 PUSH2 0x4CDD PUSH2 0x4CD8 DUP4 PUSH2 0x4E05 JUMP JUMPDEST PUSH2 0x4B49 JUMP JUMPDEST SWAP1 POP SWAP2 SWAP1 POP JUMP JUMPDEST PUSH1 0x0 PUSH2 0x4CF7 PUSH2 0x4CF2 DUP4 PUSH2 0x4E05 JUMP JUMPDEST PUSH2 0x4B56 JUMP JUMPDEST SWAP1 POP SWAP2 SWAP1 POP JUMP JUMPDEST PUSH1 0x0 PUSH2 0x4D09 DUP3 PUSH2 0x4C06 JUMP JUMPDEST SWAP2 POP PUSH32 0xFFFFFFFFFFFFFFFFFFFFFFFFFFFFFFFFFFFFFFFFFFFFFFFFFFFFFFFFFFFFFFFF DUP3 EQ ISZERO PUSH2 0x4D3C JUMPI PUSH2 0x4D3B PUSH2 0x4D78 JUMP JUMPDEST JUMPDEST PUSH1 0x1 DUP3 ADD SWAP1 POP SWAP2 SWAP1 POP JUMP JUMPDEST PUSH1 0x0 PUSH2 0x4D52 DUP3 PUSH2 0x4C06 JUMP JUMPDEST SWAP2 POP PUSH2 0x4D5D DUP4 PUSH2 0x4C06 JUMP JUMPDEST SWAP3 POP DUP3 PUSH2 0x4D6D JUMPI PUSH2 0x4D6C PUSH2 0x4DA7 JUMP JUMPDEST JUMPDEST DUP3 DUP3 MOD SWAP1 POP SWAP3 SWAP2 POP POP JUMP JUMPDEST PUSH32 0x4E487B7100000000000000000000000000000000000000000000000000000000 PUSH1 0x0 MSTORE PUSH1 0x11 PUSH1 0x4 MSTORE PUSH1 0x24 PUSH1 0x0 REVERT JUMPDEST PUSH32 0x4E487B7100000000000000000000000000000000000000000000000000000000 PUSH1 0x0 MSTORE PUSH1 0x12 PUSH1 0x4 MSTORE PUSH1 0x24 PUSH1 0x0 REVERT JUMPDEST PUSH32 0x4E487B7100000000000000000000000000000000000000000000000000000000 PUSH1 0x0 MSTORE PUSH1 0x21 PUSH1 0x4 MSTORE PUSH1 0x24 PUSH1 0x0 REVERT JUMPDEST PUSH1 0x0 DUP2 PUSH1 0x0 SHR SWAP1 POP SWAP2 SWAP1 POP JUMP JUMPDEST PUSH32 0x4652414D4520454E442054494D45204E4F542052454143484544000000000000 PUSH1 0x0 DUP3 ADD MSTORE POP JUMP JUMPDEST PUSH32 0x4C4F5420494E2050415354000000000000000000000000000000000000000000 PUSH1 0x0 DUP3 ADD MSTORE POP JUMP JUMPDEST PUSH32 0x4E4F54204C4F54204F574E455200000000000000000000000000000000000000 PUSH1 0x0 DUP3 ADD MSTORE POP JUMP JUMPDEST PUSH32 0x4E4F204F574E4552000000000000000000000000000000000000000000000000 PUSH1 0x0 DUP3 ADD MSTORE POP JUMP JUMPDEST PUSH32 0x494E56414C4944204652414D4520505249434500000000000000000000000000 PUSH1 0x0 DUP3 ADD MSTORE POP JUMP JUMPDEST PUSH32 0x4C4F5420414C524541445920534554544C454400000000000000000000000000 PUSH1 0x0 DUP3 ADD MSTORE POP JUMP JUMPDEST PUSH32 0x505249434520495320544F4F204C4F5700000000000000000000000000000000 PUSH1 0x0 DUP3 ADD MSTORE POP JUMP JUMPDEST PUSH32 0x54484953204C4F5420495320494E20412050415354204652414D450000000000 PUSH1 0x0 DUP3 ADD MSTORE POP JUMP JUMPDEST PUSH32 0x414C5245414459204F574E455200000000000000000000000000000000000000 PUSH1 0x0 DUP3 ADD MSTORE POP JUMP JUMPDEST PUSH32 0x415050524F56454420414D4F554E5420544F4F20534D414C4C00000000000000 PUSH1 0x0 DUP3 ADD MSTORE POP JUMP JUMPDEST PUSH32 0x4652414D45204E4F5420434C4F53454400000000000000000000000000000000 PUSH1 0x0 DUP3 ADD MSTORE POP JUMP JUMPDEST PUSH32 0x4652414D4520494E205041535400000000000000000000000000000000000000 PUSH1 0x0 DUP3 ADD MSTORE POP JUMP JUMPDEST PUSH32 0x4C4F5420494E2050415354204652414D45000000000000000000000000000000 PUSH1 0x0 DUP3 ADD MSTORE POP JUMP JUMPDEST PUSH32 0x4669786564506F696E743A204449565F42595F5A45524F000000000000000000 PUSH1 0x0 DUP3 ADD MSTORE POP JUMP JUMPDEST PUSH1 0x3 DUP2 LT PUSH2 0x5061 JUMPI PUSH2 0x5060 PUSH2 0x4DD6 JUMP JUMPDEST JUMPDEST POP JUMP JUMPDEST PUSH1 0x3 DUP2 LT PUSH2 0x5075 JUMPI PUSH2 0x5074 PUSH2 0x4DD6 JUMP JUMPDEST JUMPDEST POP JUMP JUMPDEST PUSH2 0x5081 DUP2 PUSH2 0x4B60 JUMP JUMPDEST DUP2 EQ PUSH2 0x508C JUMPI PUSH1 0x0 DUP1 REVERT JUMPDEST POP JUMP JUMPDEST PUSH2 0x5098 DUP2 PUSH2 0x4B72 JUMP JUMPDEST DUP2 EQ PUSH2 0x50A3 JUMPI PUSH1 0x0 DUP1 REVERT JUMPDEST POP JUMP JUMPDEST PUSH2 0x50AF DUP2 PUSH2 0x4BA4 JUMP JUMPDEST DUP2 EQ PUSH2 0x50BA JUMPI PUSH1 0x0 DUP1 REVERT JUMPDEST POP JUMP JUMPDEST PUSH2 0x50C6 DUP2 PUSH2 0x4C06 JUMP JUMPDEST DUP2 EQ PUSH2 0x50D1 JUMPI PUSH1 0x0 DUP1 REVERT JUMPDEST POP JUMP JUMPDEST PUSH2 0x50DD DUP2 PUSH2 0x4C10 JUMP JUMPDEST DUP2 EQ PUSH2 0x50E8 JUMPI PUSH1 0x0 DUP1 REVERT JUMPDEST POP JUMP INVALID LOG2 PUSH5 0x6970667358 0x22 SLT KECCAK256 PUSH21 0xAC20A7DCA515A5D53C29441CB66E30D651ED7F67A1 0x5F XOR CALLDATACOPY 0xE2 MSTORE8 SWAP7 PUSH6 0x9B9DE264736F PUSH13 0x63430008040033000000000000 "
        },
        "methodIdentifiers": {
          "accountingToken()": "da68cf8b",
          "avgPriceSwitch()": "8f9eca82",
          "buyLot(uint256,uint256,uint256)": "3c80d8ea",
          "claimReward(uint256)": "ae169a50",
          "clcAmountToApprove(uint256,uint256,uint256)": "a4d246ff",
          "clcAmountToApproveForUpdate(uint256,uint256,uint256)": "3656d5ee",
          "clcFrameTimestamp(uint256)": "5b3ad63e",
          "clcLotKey(uint256)": "9592de18",
          "clcPrice(uint256)": "41a8b6f8",
          "dPrice()": "499a0fc4",
          "factory()": "c45a0155",
          "feeMarket()": "410f0710",
          "feeProtocol()": "527eb4bc",
          "frames(uint256)": "a10340bc",
          "framesKeys(uint256)": "050e8840",
          "getLot(uint256,uint256)": "6f1aefc3",
          "getLotKey(uint256,uint256)": "3e16bc20",
          "getLotsCount(uint256)": "830ab119",
          "getNumOfUserFrames(address)": "0ef19273",
          "getNumberOfFrameKeys()": "89da88a3",
          "getOpenFrameKeys(uint256,uint256)": "14aa5a99",
          "getRewardAmount(uint256)": "c84993af",
          "getUserFrames(address)": "9495833c",
          "getUserLots(address)": "659d0ca0",
          "initTimestamp()": "7358c57a",
          "manualyUpdateAvgPrice(uint256,uint256)": "81da5700",
          "minTax()": "3d09a82a",
          "ownerMarket()": "45084775",
          "period()": "ef78d4fd",
          "tReporting()": "ff5c86b0",
          "taxMarket()": "7e996639",
          "uniswapPair()": "c816841b",
          "updateFramePrices()": "96b2c6f3",
          "updateLotPrice(uint256,uint256,uint256)": "bb15d2dd",
          "userFrames(address,uint256)": "60f65c60"
        }
      }
    }
  }
}