{
  "contracts/Market.sol": {
    "Market": {
      "abi": [
        {
          "inputs": [
            {
              "internalType": "contract MarketFactory",
              "name": "_factory",
              "type": "address"
            },
            {
              "internalType": "contract IERC20",
              "name": "_token",
              "type": "address"
            },
            {
              "internalType": "contract IUniswapV2Pair",
              "name": "_uniswapPair",
              "type": "address"
            },
            {
              "internalType": "uint256",
              "name": "_period",
              "type": "uint256"
            },
            {
              "internalType": "uint256",
              "name": "_initTimestamp",
              "type": "uint256"
            },
            {
              "internalType": "uint256",
              "name": "_taxMarket",
              "type": "uint256"
            },
            {
              "internalType": "uint256",
              "name": "_feeMarket",
              "type": "uint256"
            },
            {
              "internalType": "uint256",
              "name": "_dPrice",
              "type": "uint256"
            },
            {
              "internalType": "uint256",
              "name": "_tReporting",
              "type": "uint256"
            },
            {
              "internalType": "uint256",
              "name": "_minTax",
              "type": "uint256"
            }
          ],
          "stateMutability": "nonpayable",
          "type": "constructor"
        },
        {
          "anonymous": false,
          "inputs": [
            {
              "indexed": false,
              "internalType": "uint256",
              "name": "frameKey",
              "type": "uint256"
            },
            {
              "indexed": false,
              "internalType": "uint256",
              "name": "oracleTimestampStart",
              "type": "uint256"
            },
            {
              "indexed": false,
              "internalType": "uint256",
              "name": "oracleTimestampEnd",
              "type": "uint256"
            },
            {
              "indexed": false,
              "internalType": "uint256",
              "name": "oraclePrice0CumulativeStart",
              "type": "uint256"
            },
            {
              "indexed": false,
              "internalType": "uint256",
              "name": "oraclePrice0CumulativeEnd",
              "type": "uint256"
            },
            {
              "indexed": false,
              "internalType": "uint256",
              "name": "rewardFund",
              "type": "uint256"
            }
          ],
          "name": "FrameUpdate",
          "type": "event"
        },
        {
          "anonymous": false,
          "inputs": [
            {
              "indexed": false,
              "internalType": "uint256",
              "name": "frameKey",
              "type": "uint256"
            },
            {
              "components": [
                {
                  "internalType": "uint256",
                  "name": "lotKey",
                  "type": "uint256"
                },
                {
                  "internalType": "address",
                  "name": "lotOwner",
                  "type": "address"
                },
                {
                  "internalType": "uint256",
                  "name": "acquisitionPrice",
                  "type": "uint256"
                },
                {
                  "internalType": "enum Market.SLot",
                  "name": "state",
                  "type": "uint8"
                }
              ],
              "indexed": false,
              "internalType": "struct Market.Lot",
              "name": "lotStruct",
              "type": "tuple"
            }
          ],
          "name": "LotUpdate",
          "type": "event"
        },
        {
          "inputs": [],
          "name": "accountingToken",
          "outputs": [
            {
              "internalType": "contract IERC20",
              "name": "",
              "type": "address"
            }
          ],
          "stateMutability": "view",
          "type": "function"
        },
        {
          "inputs": [
            {
              "internalType": "uint256",
              "name": "timestamp",
              "type": "uint256"
            },
            {
              "internalType": "uint256",
              "name": "pairPrice",
              "type": "uint256"
            },
            {
              "internalType": "uint256",
              "name": "acqPrice",
              "type": "uint256"
            }
          ],
          "name": "buyLot",
          "outputs": [],
          "stateMutability": "nonpayable",
          "type": "function"
        },
        {
          "inputs": [
            {
              "internalType": "uint256",
              "name": "frameKey",
              "type": "uint256"
            }
          ],
          "name": "claimReward",
          "outputs": [],
          "stateMutability": "nonpayable",
          "type": "function"
        },
        {
          "inputs": [
            {
              "internalType": "uint256",
              "name": "timestamp",
              "type": "uint256"
            },
            {
              "internalType": "uint256",
              "name": "pairPrice",
              "type": "uint256"
            },
            {
              "internalType": "uint256",
              "name": "acqPrice",
              "type": "uint256"
            }
          ],
          "name": "clcAmountToApprove",
          "outputs": [
            {
              "internalType": "uint256",
              "name": "cmpltAmnt",
              "type": "uint256"
            }
          ],
          "stateMutability": "view",
          "type": "function"
        },
        {
          "inputs": [
            {
              "internalType": "uint256",
              "name": "timestamp",
              "type": "uint256"
            },
            {
              "internalType": "uint256",
              "name": "pairPrice",
              "type": "uint256"
            },
            {
              "internalType": "uint256",
              "name": "acqPrice",
              "type": "uint256"
            }
          ],
          "name": "clcAmountToApproveForUpdate",
          "outputs": [
            {
              "internalType": "uint256",
              "name": "amnt",
              "type": "uint256"
            }
          ],
          "stateMutability": "view",
          "type": "function"
        },
        {
          "inputs": [
            {
              "internalType": "uint256",
              "name": "timestamp",
              "type": "uint256"
            }
          ],
          "name": "clcFrameTimestamp",
          "outputs": [
            {
              "internalType": "uint256",
              "name": "",
              "type": "uint256"
            }
          ],
          "stateMutability": "view",
          "type": "function"
        },
        {
          "inputs": [
            {
              "internalType": "uint256",
              "name": "value",
              "type": "uint256"
            }
          ],
          "name": "clcLotInterval",
          "outputs": [
            {
              "internalType": "uint256",
              "name": "",
              "type": "uint256"
            }
          ],
          "stateMutability": "view",
          "type": "function"
        },
        {
          "inputs": [
            {
              "internalType": "uint256",
              "name": "frameKey",
              "type": "uint256"
            }
          ],
          "name": "clcPrice",
          "outputs": [
            {
              "internalType": "uint256",
              "name": "avgPrice",
              "type": "uint256"
            }
          ],
          "stateMutability": "view",
          "type": "function"
        },
        {
          "inputs": [
            {
              "internalType": "uint256",
              "name": "frameKey",
              "type": "uint256"
            },
            {
              "internalType": "uint256",
              "name": "acquisitionPrice",
              "type": "uint256"
            }
          ],
          "name": "clcTax",
          "outputs": [
            {
              "internalType": "uint256",
              "name": "tax",
              "type": "uint256"
            }
          ],
          "stateMutability": "view",
          "type": "function"
        },
        {
          "inputs": [
            {
              "internalType": "uint256",
              "name": "frameKey",
              "type": "uint256"
            }
          ],
          "name": "closeFrame",
          "outputs": [],
          "stateMutability": "nonpayable",
          "type": "function"
        },
        {
          "inputs": [],
          "name": "dPrice",
          "outputs": [
            {
              "internalType": "uint256",
              "name": "",
              "type": "uint256"
            }
          ],
          "stateMutability": "view",
          "type": "function"
        },
        {
          "inputs": [
            {
              "internalType": "uint256",
              "name": "amount",
              "type": "uint256"
            }
          ],
          "name": "emptyFunds",
          "outputs": [],
          "stateMutability": "nonpayable",
          "type": "function"
        },
        {
          "inputs": [],
          "name": "factory",
          "outputs": [
            {
              "internalType": "contract MarketFactory",
              "name": "",
              "type": "address"
            }
          ],
          "stateMutability": "view",
          "type": "function"
        },
        {
          "inputs": [],
          "name": "feeMarket",
          "outputs": [
            {
              "internalType": "uint256",
              "name": "",
              "type": "uint256"
            }
          ],
          "stateMutability": "view",
          "type": "function"
        },
        {
          "inputs": [],
          "name": "feeProtocol",
          "outputs": [
            {
              "internalType": "uint256",
              "name": "",
              "type": "uint256"
            }
          ],
          "stateMutability": "view",
          "type": "function"
        },
        {
          "inputs": [
            {
              "internalType": "uint256",
              "name": "",
              "type": "uint256"
            }
          ],
          "name": "frames",
          "outputs": [
            {
              "internalType": "uint256",
              "name": "frameKey",
              "type": "uint256"
            },
            {
              "internalType": "uint256",
              "name": "oracleTimestampStart",
              "type": "uint256"
            },
            {
              "internalType": "uint256",
              "name": "oracleTimestampEnd",
              "type": "uint256"
            },
            {
              "internalType": "uint256",
              "name": "priceAverage",
              "type": "uint256"
            },
            {
              "internalType": "uint256",
              "name": "rewardFund",
              "type": "uint256"
            },
            {
              "internalType": "uint256",
              "name": "oraclePrice0CumulativeStart",
              "type": "uint256"
            },
            {
              "internalType": "uint256",
              "name": "oraclePrice0CumulativeEnd",
              "type": "uint256"
            },
            {
              "internalType": "enum Market.SFrame",
              "name": "state",
              "type": "uint8"
            }
          ],
          "stateMutability": "view",
          "type": "function"
        },
        {
          "inputs": [
            {
              "internalType": "uint256",
              "name": "",
              "type": "uint256"
            }
          ],
          "name": "framesKeys",
          "outputs": [
            {
              "internalType": "uint256",
              "name": "",
              "type": "uint256"
            }
          ],
          "stateMutability": "view",
          "type": "function"
        },
        {
          "inputs": [
            {
              "internalType": "uint256",
              "name": "frameKey",
              "type": "uint256"
            },
            {
              "internalType": "uint256",
              "name": "lotKey",
              "type": "uint256"
            }
          ],
          "name": "getLot",
          "outputs": [
            {
              "components": [
                {
                  "internalType": "uint256",
                  "name": "lotKey",
                  "type": "uint256"
                },
                {
                  "internalType": "address",
                  "name": "lotOwner",
                  "type": "address"
                },
                {
                  "internalType": "uint256",
                  "name": "acquisitionPrice",
                  "type": "uint256"
                },
                {
                  "internalType": "enum Market.SLot",
                  "name": "state",
                  "type": "uint8"
                }
              ],
              "internalType": "struct Market.Lot",
              "name": "",
              "type": "tuple"
            }
          ],
          "stateMutability": "view",
          "type": "function"
        },
        {
          "inputs": [
            {
              "internalType": "uint256",
              "name": "frameKey",
              "type": "uint256"
            },
            {
              "internalType": "uint256",
              "name": "index",
              "type": "uint256"
            }
          ],
          "name": "getLotKey",
          "outputs": [
            {
              "internalType": "uint256",
              "name": "",
              "type": "uint256"
            }
          ],
          "stateMutability": "view",
          "type": "function"
        },
        {
          "inputs": [
            {
              "internalType": "uint256",
              "name": "frameKey",
              "type": "uint256"
            }
          ],
          "name": "getLotsCount",
          "outputs": [
            {
              "internalType": "uint256",
              "name": "",
              "type": "uint256"
            }
          ],
          "stateMutability": "view",
          "type": "function"
        },
        {
          "inputs": [
            {
              "internalType": "address",
              "name": "user",
              "type": "address"
            }
          ],
          "name": "getNumOfUserFrames",
          "outputs": [
            {
              "internalType": "uint256",
              "name": "",
              "type": "uint256"
            }
          ],
          "stateMutability": "view",
          "type": "function"
        },
        {
          "inputs": [],
          "name": "getNumberOfFrameKeys",
          "outputs": [
            {
              "internalType": "uint256",
              "name": "",
              "type": "uint256"
            }
          ],
          "stateMutability": "view",
          "type": "function"
        },
        {
          "inputs": [
            {
              "internalType": "uint256",
              "name": "startFrame",
              "type": "uint256"
            },
            {
              "internalType": "uint256",
              "name": "numOfFrames",
              "type": "uint256"
            }
          ],
          "name": "getOpenFrameKeys",
          "outputs": [
            {
              "internalType": "uint256[]",
              "name": "",
              "type": "uint256[]"
            }
          ],
          "stateMutability": "view",
          "type": "function"
        },
        {
          "inputs": [
            {
              "internalType": "uint256",
              "name": "timestamp",
              "type": "uint256"
            }
          ],
          "name": "getOrCreateFrame",
          "outputs": [
            {
              "internalType": "uint256",
              "name": "",
              "type": "uint256"
            }
          ],
          "stateMutability": "nonpayable",
          "type": "function"
        },
        {
          "inputs": [
            {
              "internalType": "uint256",
              "name": "frameKey",
              "type": "uint256"
            }
          ],
          "name": "getRewardAmount",
          "outputs": [
            {
              "internalType": "uint256",
              "name": "",
              "type": "uint256"
            }
          ],
          "stateMutability": "view",
          "type": "function"
        },
        {
          "inputs": [
            {
              "internalType": "address",
              "name": "user",
              "type": "address"
            }
          ],
          "name": "getUserFrames",
          "outputs": [
            {
              "internalType": "uint256[]",
              "name": "",
              "type": "uint256[]"
            }
          ],
          "stateMutability": "view",
          "type": "function"
        },
        {
          "inputs": [],
          "name": "initTimestamp",
          "outputs": [
            {
              "internalType": "uint256",
              "name": "",
              "type": "uint256"
            }
          ],
          "stateMutability": "view",
          "type": "function"
        },
        {
          "inputs": [],
          "name": "minTax",
          "outputs": [
            {
              "internalType": "uint256",
              "name": "",
              "type": "uint256"
            }
          ],
          "stateMutability": "view",
          "type": "function"
        },
        {
          "inputs": [],
          "name": "ownerMarket",
          "outputs": [
            {
              "internalType": "address",
              "name": "",
              "type": "address"
            }
          ],
          "stateMutability": "view",
          "type": "function"
        },
        {
          "inputs": [],
          "name": "period",
          "outputs": [
            {
              "internalType": "uint256",
              "name": "",
              "type": "uint256"
            }
          ],
          "stateMutability": "view",
          "type": "function"
        },
        {
          "inputs": [
            {
              "internalType": "uint256",
              "name": "frameKey",
              "type": "uint256"
            }
          ],
          "name": "settleLot",
          "outputs": [],
          "stateMutability": "nonpayable",
          "type": "function"
        },
        {
          "inputs": [],
          "name": "tReporting",
          "outputs": [
            {
              "internalType": "uint256",
              "name": "",
              "type": "uint256"
            }
          ],
          "stateMutability": "view",
          "type": "function"
        },
        {
          "inputs": [],
          "name": "taxMarket",
          "outputs": [
            {
              "internalType": "uint256",
              "name": "",
              "type": "uint256"
            }
          ],
          "stateMutability": "view",
          "type": "function"
        },
        {
          "inputs": [],
          "name": "uniswapPair",
          "outputs": [
            {
              "internalType": "contract IUniswapV2Pair",
              "name": "",
              "type": "address"
            }
          ],
          "stateMutability": "view",
          "type": "function"
        },
        {
          "inputs": [],
          "name": "updateFramePrices",
          "outputs": [],
          "stateMutability": "nonpayable",
          "type": "function"
        },
        {
          "inputs": [
            {
              "internalType": "uint256",
              "name": "timestamp",
              "type": "uint256"
            },
            {
              "internalType": "uint256",
              "name": "pairPrice",
              "type": "uint256"
            },
            {
              "internalType": "uint256",
              "name": "acqPrice",
              "type": "uint256"
            }
          ],
          "name": "updateLotPrice",
          "outputs": [],
          "stateMutability": "nonpayable",
          "type": "function"
        },
        {
          "inputs": [
            {
              "internalType": "address",
              "name": "",
              "type": "address"
            },
            {
              "internalType": "uint256",
              "name": "",
              "type": "uint256"
            }
          ],
          "name": "userFrames",
          "outputs": [
            {
              "internalType": "uint256",
              "name": "",
              "type": "uint256"
            }
          ],
          "stateMutability": "view",
          "type": "function"
        }
      ],
      "evm": {
        "bytecode": {
          "linkReferences": {},
          "object": "6080604052606460025569d3c21bcecceda1000000600c553480156200002457600080fd5b50604051620050573803806200505783398181016040528101906200004a9190620001eb565b88600960006101000a81548173ffffffffffffffffffffffffffffffffffffffff021916908373ffffffffffffffffffffffffffffffffffffffff16021790555033600a60006101000a81548173ffffffffffffffffffffffffffffffffffffffff021916908373ffffffffffffffffffffffffffffffffffffffff1602179055508660008190555085600181905550846007819055508360068190555087600460006101000a81548173ffffffffffffffffffffffffffffffffffffffff021916908373ffffffffffffffffffffffffffffffffffffffff1602179055508260058190555089600860006101000a81548173ffffffffffffffffffffffffffffffffffffffff021916908373ffffffffffffffffffffffffffffffffffffffff1602179055508160038190555080600b8190555050505050505050505050620003bd565b600081519050620001a08162000355565b92915050565b600081519050620001b7816200036f565b92915050565b600081519050620001ce8162000389565b92915050565b600081519050620001e581620003a3565b92915050565b6000806000806000806000806000806101408b8d0312156200020c57600080fd5b60006200021c8d828e01620001bd565b9a505060206200022f8d828e016200018f565b9950506040620002428d828e01620001a6565b9850506060620002558d828e01620001d4565b9750506080620002688d828e01620001d4565b96505060a06200027b8d828e01620001d4565b95505060c06200028e8d828e01620001d4565b94505060e0620002a18d828e01620001d4565b935050610100620002b58d828e01620001d4565b925050610120620002c98d828e01620001d4565b9150509295989b9194979a5092959850565b6000620002e8826200032b565b9050919050565b6000620002fc82620002db565b9050919050565b60006200031082620002db565b9050919050565b60006200032482620002db565b9050919050565b600073ffffffffffffffffffffffffffffffffffffffff82169050919050565b6000819050919050565b6200036081620002ef565b81146200036c57600080fd5b50565b6200037a8162000303565b81146200038657600080fd5b50565b620003948162000317565b8114620003a057600080fd5b50565b620003ae816200034b565b8114620003ba57600080fd5b50565b614c8a80620003cd6000396000f3fe608060405234801561001057600080fd5b50600436106102275760003560e01c80637358c57a11610130578063ae169a50116100b8578063da68cf8b1161007c578063da68cf8b146106f5578063e107fb4f14610713578063ef78d4fd14610743578063fc95070214610761578063ff5c86b01461077d57610227565b8063ae169a5014610651578063bb15d2dd1461066d578063c45a015514610689578063c816841b146106a7578063c84993af146106c557610227565b806389da88a3116100ff57806389da88a3146105925780639495833c146105b057806396b2c6f3146105e0578063a10340bc146105ea578063a4d246ff1461062157610227565b80637358c57a146104f65780637e99663914610514578063830ab11914610532578063888bdbcd1461056257610227565b806341a8b6f8116101b3578063527eb4bc11610182578063527eb4bc1461042c5780635b3ad63e1461044a57806360f65c601461047a5780636f1aefc3146104aa5780636f7cb60b146104da57610227565b806341a8b6f8146103a457806345084775146103d4578063499a0fc4146103f25780634d3ee2dc1461041057610227565b80633656d5ee116101fa5780633656d5ee146102ec5780633c80d8ea1461031c5780633d09a82a146103385780633e16bc2014610356578063410f07101461038657610227565b8063050e88401461022c5780630cbcff8f1461025c5780630ef192731461028c57806314aa5a99146102bc575b600080fd5b61024660048036038101906102419190613b8b565b61079b565b604051610253919061435c565b60405180910390f35b61027660048036038101906102719190613b8b565b6107bf565b604051610283919061435c565b60405180910390f35b6102a660048036038101906102a19190613a85565b610a1e565b6040516102b3919061435c565b60405180910390f35b6102d660048036038101906102d19190613bdd565b610a6a565b6040516102e391906140ee565b60405180910390f35b61030660048036038101906103019190613c19565b610c17565b604051610313919061435c565b60405180910390f35b61033660048036038101906103319190613c19565b610ca2565b005b61034061156d565b60405161034d919061435c565b60405180910390f35b610370600480360381019061036b9190613bdd565b611573565b60405161037d919061435c565b60405180910390f35b61038e6115d6565b60405161039b919061435c565b60405180910390f35b6103be60048036038101906103b99190613b8b565b6115dc565b6040516103cb919061435c565b60405180910390f35b6103dc6117e8565b6040516103e9919061404a565b60405180910390f35b6103fa61180e565b604051610407919061435c565b60405180910390f35b61042a60048036038101906104259190613b8b565b611814565b005b610434611c9a565b604051610441919061435c565b60405180910390f35b610464600480360381019061045f9190613b8b565b611ca0565b604051610471919061435c565b60405180910390f35b610494600480360381019061048f9190613ad7565b611ce3565b6040516104a1919061435c565b60405180910390f35b6104c460048036038101906104bf9190613bdd565b611d14565b6040516104d19190614341565b60405180910390f35b6104f460048036038101906104ef9190613b8b565b611e47565b005b6104fe6120a6565b60405161050b919061435c565b60405180910390f35b61051c6120ac565b604051610529919061435c565b60405180910390f35b61054c60048036038101906105479190613b8b565b6120b2565b604051610559919061435c565b60405180910390f35b61057c60048036038101906105779190613b8b565b6120d5565b604051610589919061435c565b60405180910390f35b61059a61210b565b6040516105a7919061435c565b60405180910390f35b6105ca60048036038101906105c59190613a85565b612118565b6040516105d791906140ee565b60405180910390f35b6105e86121af565b005b61060460048036038101906105ff9190613b8b565b6124c5565b604051610618989796959493929190614401565b60405180910390f35b61063b60048036038101906106369190613c19565b61251a565b604051610648919061435c565b60405180910390f35b61066b60048036038101906106669190613b8b565b6125d0565b005b61068760048036038101906106829190613c19565b6125e5565b005b610691612b67565b60405161069e9190614146565b60405180910390f35b6106af612b8d565b6040516106bc919061412b565b60405180910390f35b6106df60048036038101906106da9190613b8b565b612bb3565b6040516106ec919061435c565b60405180910390f35b6106fd612bd3565b60405161070a9190614110565b60405180910390f35b61072d60048036038101906107289190613bdd565b612bf9565b60405161073a919061435c565b60405180910390f35b61074b612cc6565b604051610758919061435c565b60405180910390f35b61077b60048036038101906107769190613b8b565b612ccc565b005b61078561336a565b604051610792919061435c565b60405180910390f35b600f81815481106107ab57600080fd5b906000526020600020016000915090505481565b6000806107cb83611ca0565b905060006002811115610807577f4e487b7100000000000000000000000000000000000000000000000000000000600052602160045260246000fd5b600d600083815260200190815260200160002060070160009054906101000a900460ff166002811115610863577f4e487b7100000000000000000000000000000000000000000000000000000000600052602160045260246000fd5b146108715780915050610a19565b61087a42611ca0565b8110156108bc576040517f08c379a00000000000000000000000000000000000000000000000000000000081526004016108b3906142e1565b60405180910390fd5b80600d6000838152602001908152602001600020600001819055506001600d600083815260200190815260200160002060070160006101000a81548160ff02191690836002811115610937577f4e487b7100000000000000000000000000000000000000000000000000000000600052602160045260246000fd5b0217905550600f8190806001815401808255809150506001900390600052602060002001600090919091909150557f0e6a0e14a3e5e37f98ac3964d96ce45521656b05ddf148d5eebd48c38675d6d781600d600084815260200190815260200160002060010154600d600085815260200190815260200160002060020154600d600086815260200190815260200160002060050154600d600087815260200190815260200160002060060154600d600088815260200190815260200160002060040154604051610a0c969594939291906143a0565b60405180910390a1809150505b919050565b6000600e60008373ffffffffffffffffffffffffffffffffffffffff1673ffffffffffffffffffffffffffffffffffffffff168152602001908152602001600020805490509050919050565b606060008267ffffffffffffffff811115610aae577f4e487b7100000000000000000000000000000000000000000000000000000000600052604160045260246000fd5b604051908082528060200260200182016040528015610adc5781602001602082028036833780820191505090505b5090506000600190505b838111610c0c57600081600054610afd9190614581565b86610b0891906144c9565b905060006002811115610b44577f4e487b7100000000000000000000000000000000000000000000000000000000600052602160045260246000fd5b600d600083815260200190815260200160002060070160009054906101000a900460ff166002811115610ba0577f4e487b7100000000000000000000000000000000000000000000000000000000600052602160045260246000fd5b14610bf8578083600184610bb491906145db565b81518110610beb577f4e487b7100000000000000000000000000000000000000000000000000000000600052603260045260246000fd5b6020026020010181815250505b508080610c0490614818565b915050610ae6565b508091505092915050565b600080610c2385611ca0565b90506000610c30856120d5565b90506000610c6883600d6000868152602001908152602001600020600901600085815260200190815260200160002060020154612bf9565b90506000610c768487612bf9565b9050808210610c885760009450610c97565b8181610c9491906145db565b94505b505050509392505050565b806000620186a060075483610cb79190614581565b610cc19190614550565b9050600b54811015610d08576040517f08c379a0000000000000000000000000000000000000000000000000000000008152600401610cff90614201565b60405180910390fd5b6000610d13866107bf565b90506000610d218287613370565b9050610d2c42611ca0565b821015610d6e576040517f08c379a0000000000000000000000000000000000000000000000000000000008152600401610d6590614301565b60405180910390fd5b600d6000838152602001908152602001600020600901600082815260200190815260200160002060010160009054906101000a900473ffffffffffffffffffffffffffffffffffffffff1673ffffffffffffffffffffffffffffffffffffffff163373ffffffffffffffffffffffffffffffffffffffff161415610e27576040517f08c379a0000000000000000000000000000000000000000000000000000000008152600401610e1e906142a1565b60405180910390fd5b6000610e338387612bf9565b905080600d6000858152602001908152602001600020600901600084815260200190815260200160002060020154610e6b91906144c9565b600960009054906101000a900473ffffffffffffffffffffffffffffffffffffffff1673ffffffffffffffffffffffffffffffffffffffff1663dd62ed3e33306040518363ffffffff1660e01b8152600401610ec8929190614065565b60206040518083038186803b158015610ee057600080fd5b505afa158015610ef4573d6000803e3d6000fd5b505050506040513d601f19601f82011682018060405250810190610f189190613bb4565b1015610f59576040517f08c379a0000000000000000000000000000000000000000000000000000000008152600401610f50906142c1565b60405180910390fd5b600960009054906101000a900473ffffffffffffffffffffffffffffffffffffffff1673ffffffffffffffffffffffffffffffffffffffff166323b872dd333084600d6000898152602001908152602001600020600901600088815260200190815260200160002060020154610fcf91906144c9565b6040518463ffffffff1660e01b8152600401610fed9392919061408e565b602060405180830381600087803b15801561100757600080fd5b505af115801561101b573d6000803e3d6000fd5b505050506040513d601f19601f8201168201806040525081019061103f9190613b13565b5080600d60008581526020019081526020016000206004015461106291906144c9565b600d600085815260200190815260200160002060040181905550600160028111156110b6577f4e487b7100000000000000000000000000000000000000000000000000000000600052602160045260246000fd5b600d6000858152602001908152602001600020600901600084815260200190815260200160002060030160009054906101000a900460ff166002811115611126577f4e487b7100000000000000000000000000000000000000000000000000000000600052602160045260246000fd5b14156112d557600061116284600d6000878152602001908152602001600020600901600086815260200190815260200160002060020154612bf9565b9050600960009054906101000a900473ffffffffffffffffffffffffffffffffffffffff1673ffffffffffffffffffffffffffffffffffffffff1663a9059cbb600d6000878152602001908152602001600020600901600086815260200190815260200160002060010160009054906101000a900473ffffffffffffffffffffffffffffffffffffffff16600d60008881526020019081526020016000206009016000878152602001908152602001600020600201548461122391906144c9565b6040518363ffffffff1660e01b81526004016112409291906140c5565b602060405180830381600087803b15801561125a57600080fd5b505af115801561126e573d6000803e3d6000fd5b505050506040513d601f19601f820116820180604052508101906112929190613b13565b5080600d6000868152602001908152602001600020600401546112b591906145db565b600d6000868152602001908152602001600020600401819055505061134f565b6001600d6000858152602001908152602001600020600901600084815260200190815260200160002060030160006101000a81548160ff02191690836002811115611349577f4e487b7100000000000000000000000000000000000000000000000000000000600052602160045260246000fd5b02179055505b33600d6000858152602001908152602001600020600901600084815260200190815260200160002060010160006101000a81548173ffffffffffffffffffffffffffffffffffffffff021916908373ffffffffffffffffffffffffffffffffffffffff16021790555085600d6000858152602001908152602001600020600901600084815260200190815260200160002060020181905550600e60003373ffffffffffffffffffffffffffffffffffffffff1673ffffffffffffffffffffffffffffffffffffffff1681526020019081526020016000208390806001815401808255809150506001900390600052602060002001600090919091909150556114556121af565b7f0e6a0e14a3e5e37f98ac3964d96ce45521656b05ddf148d5eebd48c38675d6d783600d600086815260200190815260200160002060010154600d600087815260200190815260200160002060020154600d600088815260200190815260200160002060050154600d600089815260200190815260200160002060060154600d60008a8152602001908152602001600020600401546040516114fc969594939291906143a0565b60405180910390a17f683745e9c845f93f11479c3bd6b4e976ac10ac0801152f8286c1cfbaed7a6b4083600d6000868152602001908152602001600020600901600085815260200190815260200160002060405161155b929190614377565b60405180910390a15050505050505050565b600b5481565b6000600d600084815260200190815260200160002060080182815481106115c3577f4e487b7100000000000000000000000000000000000000000000000000000000600052603260045260246000fd5b9060005260206000200154905092915050565b60065481565b6000816000600d60008381526020019081526020016000206005015411158061161c57506000600d60008381526020019081526020016000206006015411155b1561165c576040517f08c379a0000000000000000000000000000000000000000000000000000000008152600401611653906141c1565b60405180910390fd5b600d600082815260200190815260200160002060060154600d60008381526020019081526020016000206005015414156116cb576040517f08c379a00000000000000000000000000000000000000000000000000000000081526004016116c2906141c1565b60405180910390fd5b6000600d600085815260200190815260200160002060050154600d60008681526020019081526020016000206006015461170591906145db565b90506000600d600086815260200190815260200160002060010154600d60008781526020019081526020016000206002015461174191906145db565b90506117796040518060200160405280847bffffffffffffffffffffffffffffffffffffffffffffffffffffffff168152508261350c565b600001517bffffffffffffffffffffffffffffffffffffffffffffffffffffffff1693507406d79f82328ea3da61e066ebb2f88a000000000000607085901b6117c29190614550565b600c54607086901c6117d49190614581565b6117de91906144c9565b9350505050919050565b600a60009054906101000a900473ffffffffffffffffffffffffffffffffffffffff1681565b60055481565b60028081111561184d577f4e487b7100000000000000000000000000000000000000000000000000000000600052602160045260246000fd5b600d600083815260200190815260200160002060070160009054906101000a900460ff1660028111156118a9577f4e487b7100000000000000000000000000000000000000000000000000000000600052602160045260246000fd5b146118e9576040517f08c379a00000000000000000000000000000000000000000000000000000000081526004016118e090614261565b60405180910390fd5b600061190a600d6000848152602001908152602001600020600301546120d5565b9050600280811115611945577f4e487b7100000000000000000000000000000000000000000000000000000000600052602160045260246000fd5b600d6000848152602001908152602001600020600901600083815260200190815260200160002060030160009054906101000a900460ff1660028111156119b5577f4e487b7100000000000000000000000000000000000000000000000000000000600052602160045260246000fd5b14156119f6576040517f08c379a00000000000000000000000000000000000000000000000000000000081526004016119ed906141e1565b60405180910390fd5b3373ffffffffffffffffffffffffffffffffffffffff16600d6000848152602001908152602001600020600901600083815260200190815260200160002060010160009054906101000a900473ffffffffffffffffffffffffffffffffffffffff1673ffffffffffffffffffffffffffffffffffffffff1614611aae576040517f08c379a0000000000000000000000000000000000000000000000000000000008152600401611aa5906141a1565b60405180910390fd5b600960009054906101000a900473ffffffffffffffffffffffffffffffffffffffff1673ffffffffffffffffffffffffffffffffffffffff1663a9059cbb600d6000858152602001908152602001600020600901600084815260200190815260200160002060010160009054906101000a900473ffffffffffffffffffffffffffffffffffffffff16600d6000868152602001908152602001600020600401546040518363ffffffff1660e01b8152600401611b6b9291906140c5565b602060405180830381600087803b158015611b8557600080fd5b505af1158015611b99573d6000803e3d6000fd5b505050506040513d601f19601f82011682018060405250810190611bbd9190613b13565b506002600d6000848152602001908152602001600020600901600083815260200190815260200160002060030160006101000a81548160ff02191690836002811115611c32577f4e487b7100000000000000000000000000000000000000000000000000000000600052602160045260246000fd5b02179055507f683745e9c845f93f11479c3bd6b4e976ac10ac0801152f8286c1cfbaed7a6b4082600d60008581526020019081526020016000206009016000848152602001908152602001600020604051611c8e929190614377565b60405180910390a15050565b60025481565b60006001548211611cb5576001549050611cde565b60005460015483611cc691906145db565b611cd09190614861565b82611cdb91906145db565b90505b919050565b600e6020528160005260406000208181548110611cff57600080fd5b90600052602060002001600091509150505481565b611d1c61394b565b600d60008481526020019081526020016000206009016000838152602001908152602001600020604051806080016040529081600082015481526020016001820160009054906101000a900473ffffffffffffffffffffffffffffffffffffffff1673ffffffffffffffffffffffffffffffffffffffff1673ffffffffffffffffffffffffffffffffffffffff168152602001600282015481526020016003820160009054906101000a900460ff166002811115611e03577f4e487b7100000000000000000000000000000000000000000000000000000000600052602160045260246000fd5b6002811115611e3b577f4e487b7100000000000000000000000000000000000000000000000000000000600052602160045260246000fd5b81525050905092915050565b600860009054906101000a900473ffffffffffffffffffffffffffffffffffffffff1673ffffffffffffffffffffffffffffffffffffffff16638da5cb5b6040518163ffffffff1660e01b815260040160206040518083038186803b158015611eaf57600080fd5b505afa158015611ec3573d6000803e3d6000fd5b505050506040513d601f19601f82011682018060405250810190611ee79190613aae565b73ffffffffffffffffffffffffffffffffffffffff163373ffffffffffffffffffffffffffffffffffffffff1614611f54576040517f08c379a0000000000000000000000000000000000000000000000000000000008152600401611f4b90614181565b60405180910390fd5b600960009054906101000a900473ffffffffffffffffffffffffffffffffffffffff1673ffffffffffffffffffffffffffffffffffffffff1663a9059cbb600860009054906101000a900473ffffffffffffffffffffffffffffffffffffffff1673ffffffffffffffffffffffffffffffffffffffff16638da5cb5b6040518163ffffffff1660e01b815260040160206040518083038186803b158015611ffa57600080fd5b505afa15801561200e573d6000803e3d6000fd5b505050506040513d601f19601f820116820180604052508101906120329190613aae565b836040518363ffffffff1660e01b81526004016120509291906140c5565b602060405180830381600087803b15801561206a57600080fd5b505af115801561207e573d6000803e3d6000fd5b505050506040513d601f19601f820116820180604052508101906120a29190613b13565b5050565b60015481565b60075481565b6000600d6000838152602001908152602001600020600801805490509050919050565b60008082116120e8576005549050612106565b600554600554836120f99190614550565b6121039190614581565b90505b919050565b6000600f80549050905090565b6060600e60008373ffffffffffffffffffffffffffffffffffffffff1673ffffffffffffffffffffffffffffffffffffffff1681526020019081526020016000208054806020026020016040519081016040528092919081815260200182805480156121a357602002820191906000526020600020905b81548152602001906001019080831161218f575b50505050509050919050565b6000806121bb42611ca0565b9050600354600054826121ce91906144c9565b6121d891906145db565b42101561237b5761220a600460009054906101000a900473ffffffffffffffffffffffffffffffffffffffff166135bc565b8063ffffffff169050600d60008581526020019081526020016000206005016000600d600087815260200190815260200160002060010160008491905055839650849190505550505061227e600460009054906101000a900473ffffffffffffffffffffffffffffffffffffffff166135bc565b8063ffffffff169050600d60008581526020019081526020016000206006016000600d60008781526020019081526020016000206002016000849190505583965084919050555050507f0e6a0e14a3e5e37f98ac3964d96ce45521656b05ddf148d5eebd48c38675d6d781600d600084815260200190815260200160002060010154600d600085815260200190815260200160002060020154600d600086815260200190815260200160002060050154600d600087815260200190815260200160002060060154600d60008881526020019081526020016000206004015460405161236e969594939291906143a0565b60405180910390a16124c1565b6003546000548261238c91906144c9565b61239691906145db565b42106124c0576123c7600460009054906101000a900473ffffffffffffffffffffffffffffffffffffffff166135bc565b8063ffffffff169050600d60008581526020019081526020016000206006016000600d60008781526020019081526020016000206002016000849190505583965084919050555050507f0e6a0e14a3e5e37f98ac3964d96ce45521656b05ddf148d5eebd48c38675d6d781600d600084815260200190815260200160002060010154600d600085815260200190815260200160002060020154600d600086815260200190815260200160002060050154600d600087815260200190815260200160002060060154600d6000888152602001908152602001600020600401546040516124b7969594939291906143a0565b60405180910390a15b5b5050565b600d6020528060005260406000206000915090508060000154908060010154908060020154908060030154908060040154908060050154908060060154908060070160009054906101000a900460ff16905088565b60008061252685611ca0565b905061253142611ca0565b811015612573576040517f08c379a000000000000000000000000000000000000000000000000000000000815260040161256a90614221565b60405180910390fd5b600061257e856120d5565b9050600061258c8386612bf9565b905080600d60008581526020019081526020016000206009016000848152602001908152602001600020600201546125c491906144c9565b93505050509392505050565b6125d981612ccc565b6125e281611814565b50565b806000620186a0600754836125fa9190614581565b6126049190614550565b9050600b5481101561264b576040517f08c379a000000000000000000000000000000000000000000000000000000000815260040161264290614201565b60405180910390fd5b6000612656866107bf565b905060006126648287613370565b90503373ffffffffffffffffffffffffffffffffffffffff16600d6000848152602001908152602001600020600901600083815260200190815260200160002060010160009054906101000a900473ffffffffffffffffffffffffffffffffffffffff1673ffffffffffffffffffffffffffffffffffffffff161461271e576040517f08c379a000000000000000000000000000000000000000000000000000000000815260040161271590614241565b60405180910390fd5b61272742611ca0565b821015612769576040517f08c379a000000000000000000000000000000000000000000000000000000000815260040161276090614281565b60405180910390fd5b60006127758387612bf9565b905060006127ad84600d6000878152602001908152602001600020600901600086815260200190815260200160002060020154612bf9565b9050808211156129ba5780826127c391906145db565b600960009054906101000a900473ffffffffffffffffffffffffffffffffffffffff1673ffffffffffffffffffffffffffffffffffffffff1663dd62ed3e33306040518363ffffffff1660e01b8152600401612820929190614065565b60206040518083038186803b15801561283857600080fd5b505afa15801561284c573d6000803e3d6000fd5b505050506040513d601f19601f820116820180604052508101906128709190613bb4565b10156128b1576040517f08c379a00000000000000000000000000000000000000000000000000000000081526004016128a8906142c1565b60405180910390fd5b600960009054906101000a900473ffffffffffffffffffffffffffffffffffffffff1673ffffffffffffffffffffffffffffffffffffffff166323b872dd333084866128fd91906145db565b6040518463ffffffff1660e01b815260040161291b9392919061408e565b602060405180830381600087803b15801561293557600080fd5b505af1158015612949573d6000803e3d6000fd5b505050506040513d601f19601f8201168201806040525081019061296d9190613b13565b50808261297a91906145db565b600d60008681526020019081526020016000206004015461299b91906144c9565b600d600086815260200190815260200160002060040181905550612ac6565b80821015612ac557600960009054906101000a900473ffffffffffffffffffffffffffffffffffffffff1673ffffffffffffffffffffffffffffffffffffffff1663a9059cbb338484612a0d91906145db565b6040518363ffffffff1660e01b8152600401612a2a9291906140c5565b602060405180830381600087803b158015612a4457600080fd5b505af1158015612a58573d6000803e3d6000fd5b505050506040513d601f19601f82011682018060405250810190612a7c9190613b13565b508181612a8991906145db565b600d600086815260200190815260200160002060040154612aaa91906145db565b600d6000868152602001908152602001600020600401819055505b5b86600d6000868152602001908152602001600020600901600085815260200190815260200160002060020181905550612afd6121af565b7f683745e9c845f93f11479c3bd6b4e976ac10ac0801152f8286c1cfbaed7a6b4084600d60008781526020019081526020016000206009016000868152602001908152602001600020604051612b54929190614377565b60405180910390a1505050505050505050565b600860009054906101000a900473ffffffffffffffffffffffffffffffffffffffff1681565b600460009054906101000a900473ffffffffffffffffffffffffffffffffffffffff1681565b6000600d6000838152602001908152602001600020600401549050919050565b600960009054906101000a900473ffffffffffffffffffffffffffffffffffffffff1681565b60008042600054612c0942611ca0565b612c1391906144c9565b612c1d91906145db565b90506000805482600c54612c319190614581565b612c3b9190614550565b90506000612c4886613817565b905080620186a060075487612c5d9190614581565b612c679190614550565b612c719190614581565b93506000620186a060075487612c879190614581565b612c919190614550565b9050600c548382612ca29190614581565b612cac9190614550565b90508085612cba91906144c9565b94505050505092915050565b60005481565b806000600d600083815260200190815260200160002060050154111580612d0a57506000600d60008381526020019081526020016000206006015411155b15612d4a576040517f08c379a0000000000000000000000000000000000000000000000000000000008152600401612d41906141c1565b60405180910390fd5b600d600082815260200190815260200160002060060154600d6000838152602001908152602001600020600501541415612db9576040517f08c379a0000000000000000000000000000000000000000000000000000000008152600401612db0906141c1565b60405180910390fd5b4260005483612dc891906144c9565b1115612e09576040517f08c379a0000000000000000000000000000000000000000000000000000000008152600401612e0090614161565b60405180910390fd5b6002600d600084815260200190815260200160002060070160006101000a81548160ff02191690836002811115612e69577f4e487b7100000000000000000000000000000000000000000000000000000000600052602160045260246000fd5b02179055506000600d600084815260200190815260200160002060050154600d600085815260200190815260200160002060060154612ea891906145db565b90506000600d600085815260200190815260200160002060010154600d600086815260200190815260200160002060020154612ee491906145db565b9050612f1c6040518060200160405280847bffffffffffffffffffffffffffffffffffffffffffffffffffffffff168152508261350c565b600001517bffffffffffffffffffffffffffffffffffffffffffffffffffffffff16600d6000868152602001908152602001600020600301819055507406d79f82328ea3da61e066ebb2f88a0000000000006070600d600087815260200190815260200160002060030154901b612f939190614550565b600c546070600d600088815260200190815260200160002060030154901c612fbb9190614581565b612fc591906144c9565b600d6000868152602001908152602001600020600301819055506000620186a0600654600d6000888152602001908152602001600020600401546130099190614581565b6130139190614550565b90506000620186a0600254600d60008981526020019081526020016000206004015461303f9190614581565b6130499190614550565b90508082600d60008981526020019081526020016000206004015461306e91906145db565b61307891906145db565b600d600088815260200190815260200160002060040181905550600960009054906101000a900473ffffffffffffffffffffffffffffffffffffffff1673ffffffffffffffffffffffffffffffffffffffff1663a9059cbb600a60009054906101000a900473ffffffffffffffffffffffffffffffffffffffff16846040518363ffffffff1660e01b81526004016131119291906140c5565b602060405180830381600087803b15801561312b57600080fd5b505af115801561313f573d6000803e3d6000fd5b505050506040513d601f19601f820116820180604052508101906131639190613b13565b50600960009054906101000a900473ffffffffffffffffffffffffffffffffffffffff1673ffffffffffffffffffffffffffffffffffffffff1663a9059cbb600860009054906101000a900473ffffffffffffffffffffffffffffffffffffffff1673ffffffffffffffffffffffffffffffffffffffff16638da5cb5b6040518163ffffffff1660e01b815260040160206040518083038186803b15801561320a57600080fd5b505afa15801561321e573d6000803e3d6000fd5b505050506040513d601f19601f820116820180604052508101906132429190613aae565b836040518363ffffffff1660e01b81526004016132609291906140c5565b602060405180830381600087803b15801561327a57600080fd5b505af115801561328e573d6000803e3d6000fd5b505050506040513d601f19601f820116820180604052508101906132b29190613b13565b507f0e6a0e14a3e5e37f98ac3964d96ce45521656b05ddf148d5eebd48c38675d6d786600d600089815260200190815260200160002060010154600d60008a815260200190815260200160002060020154600d60008b815260200190815260200160002060050154600d60008c815260200190815260200160002060060154600d60008d81526020019081526020016000206004015460405161335a969594939291906143a0565b60405180910390a1505050505050565b60035481565b60008061337c836120d5565b9050600060028111156133b8577f4e487b7100000000000000000000000000000000000000000000000000000000600052602160045260246000fd5b600d6000868152602001908152602001600020600901600083815260200190815260200160002060030160009054906101000a900460ff166002811115613428577f4e487b7100000000000000000000000000000000000000000000000000000000600052602160045260246000fd5b146134365780915050613506565b80600d6000868152602001908152602001600020600901600083815260200190815260200160002060000181905550600d60008581526020019081526020016000206008018190806001815401808255809150506001900390600052602060002001600090919091909150557f683745e9c845f93f11479c3bd6b4e976ac10ac0801152f8286c1cfbaed7a6b4084600d600087815260200190815260200160002060090160008481526020019081526020016000206040516134f9929190614377565b60405180910390a1809150505b92915050565b6135146139c1565b6000826dffffffffffffffffffffffffffff161415613568576040517f08c379a000000000000000000000000000000000000000000000000000000000815260040161355f90614321565b60405180910390fd5b6040518060200160405280836dffffffffffffffffffffffffffff168560000151613593919061451f565b7bffffffffffffffffffffffffffffffffffffffffffffffffffffffff16815250905092915050565b60008060006135c9613853565b90508373ffffffffffffffffffffffffffffffffffffffff16635909c0d56040518163ffffffff1660e01b815260040160206040518083038186803b15801561361157600080fd5b505afa158015613625573d6000803e3d6000fd5b505050506040513d601f19601f820116820180604052508101906136499190613bb4565b92508373ffffffffffffffffffffffffffffffffffffffff16635a3d54936040518163ffffffff1660e01b815260040160206040518083038186803b15801561369157600080fd5b505afa1580156136a5573d6000803e3d6000fd5b505050506040513d601f19601f820116820180604052508101906136c99190613bb4565b915060008060008673ffffffffffffffffffffffffffffffffffffffff16630902f1ac6040518163ffffffff1660e01b815260040160606040518083038186803b15801561371657600080fd5b505afa15801561372a573d6000803e3d6000fd5b505050506040513d601f19601f8201168201806040525081019061374e9190613b3c565b9250925092508363ffffffff168163ffffffff161461380d5760008185613775919061460f565b90508063ffffffff16613788848661386b565b600001517bffffffffffffffffffffffffffffffffffffffffffffffffffffffff166137b49190614581565b876137bf91906144c9565b96508063ffffffff166137d2858561386b565b600001517bffffffffffffffffffffffffffffffffffffffffffffffffffffffff166137fe9190614581565b8661380991906144c9565b9550505b5050509193909250565b600061382242611ca0565b821415613832576000905061384e565b600054428361384191906145db565b61384b9190614550565b90505b919050565b6000640100000000426138669190614861565b905090565b6138736139c1565b6000826dffffffffffffffffffffffffffff16116138c6576040517f08c379a00000000000000000000000000000000000000000000000000000000081526004016138bd90614321565b60405180910390fd5b6040518060200160405280836dffffffffffffffffffffffffffff16607060ff16866dffffffffffffffffffffffffffff167bffffffffffffffffffffffffffffffffffffffffffffffffffffffff16901b613922919061451f565b7bffffffffffffffffffffffffffffffffffffffffffffffffffffffff16815250905092915050565b604051806080016040528060008152602001600073ffffffffffffffffffffffffffffffffffffffff16815260200160008152602001600060028111156139bb577f4e487b7100000000000000000000000000000000000000000000000000000000600052602160045260246000fd5b81525090565b604051806020016040528060007bffffffffffffffffffffffffffffffffffffffffffffffffffffffff1681525090565b600081359050613a0181614be1565b92915050565b600081519050613a1681614be1565b92915050565b600081519050613a2b81614bf8565b92915050565b600081519050613a4081614c0f565b92915050565b600081359050613a5581614c26565b92915050565b600081519050613a6a81614c26565b92915050565b600081519050613a7f81614c3d565b92915050565b600060208284031215613a9757600080fd5b6000613aa5848285016139f2565b91505092915050565b600060208284031215613ac057600080fd5b6000613ace84828501613a07565b91505092915050565b60008060408385031215613aea57600080fd5b6000613af8858286016139f2565b9250506020613b0985828601613a46565b9150509250929050565b600060208284031215613b2557600080fd5b6000613b3384828501613a1c565b91505092915050565b600080600060608486031215613b5157600080fd5b6000613b5f86828701613a31565b9350506020613b7086828701613a31565b9250506040613b8186828701613a70565b9150509250925092565b600060208284031215613b9d57600080fd5b6000613bab84828501613a46565b91505092915050565b600060208284031215613bc657600080fd5b6000613bd484828501613a5b565b91505092915050565b60008060408385031215613bf057600080fd5b6000613bfe85828601613a46565b9250506020613c0f85828601613a46565b9150509250929050565b600080600060608486031215613c2e57600080fd5b6000613c3c86828701613a46565b9350506020613c4d86828701613a46565b9250506040613c5e86828701613a46565b9150509250925092565b6000613c74838361402c565b60208301905092915050565b613c898161467a565b82525050565b613c988161467a565b82525050565b6000613ca98261448f565b613cb381856144a7565b9350613cbe8361447f565b8060005b83811015613cef578151613cd68882613c68565b9750613ce18361449a565b925050600181019050613cc2565b5085935050505092915050565b613d058161473a565b82525050565b613d148161475e565b82525050565b613d2381614782565b82525050565b613d32816147a6565b82525050565b613d41816147b8565b82525050565b6000613d54601a836144b8565b9150613d5f8261492c565b602082019050919050565b6000613d776015836144b8565b9150613d8282614955565b602082019050919050565b6000613d9a601f836144b8565b9150613da58261497e565b602082019050919050565b6000613dbd6013836144b8565b9150613dc8826149a7565b602082019050919050565b6000613de06013836144b8565b9150613deb826149d0565b602082019050919050565b6000613e036010836144b8565b9150613e0e826149f9565b602082019050919050565b6000613e26601b836144b8565b9150613e3182614a22565b602082019050919050565b6000613e496011836144b8565b9150613e5482614a4b565b602082019050919050565b6000613e6c6010836144b8565b9150613e7782614a74565b602082019050919050565b6000613e8f6029836144b8565b9150613e9a82614a9d565b604082019050919050565b6000613eb2601f836144b8565b9150613ebd82614aec565b602082019050919050565b6000613ed5601c836144b8565b9150613ee082614b15565b602082019050919050565b6000613ef86019836144b8565b9150613f0382614b3e565b602082019050919050565b6000613f1b601d836144b8565b9150613f2682614b67565b602082019050919050565b6000613f3e6017836144b8565b9150613f4982614b90565b602082019050919050565b608082016000820151613f6a600085018261402c565b506020820151613f7d6020850182613c80565b506040820151613f90604085018261402c565b506060820151613fa36060850182613d38565b50505050565b608082016000808301549050613fbe816147fe565b613fcb600086018261402c565b5060018301549050613fdc816147ca565b613fe96020860182613c80565b5060028301549050613ffa816147fe565b614007604086018261402c565b5060038301549050614018816147e4565b6140256060860182613d38565b5050505050565b61403581614720565b82525050565b61404481614720565b82525050565b600060208201905061405f6000830184613c8f565b92915050565b600060408201905061407a6000830185613c8f565b6140876020830184613c8f565b9392505050565b60006060820190506140a36000830186613c8f565b6140b06020830185613c8f565b6140bd604083018461403b565b949350505050565b60006040820190506140da6000830185613c8f565b6140e7602083018461403b565b9392505050565b600060208201905081810360008301526141088184613c9e565b905092915050565b60006020820190506141256000830184613cfc565b92915050565b60006020820190506141406000830184613d0b565b92915050565b600060208201905061415b6000830184613d1a565b92915050565b6000602082019050818103600083015261417a81613d47565b9050919050565b6000602082019050818103600083015261419a81613d6a565b9050919050565b600060208201905081810360008301526141ba81613d8d565b9050919050565b600060208201905081810360008301526141da81613db0565b9050919050565b600060208201905081810360008301526141fa81613dd3565b9050919050565b6000602082019050818103600083015261421a81613df6565b9050919050565b6000602082019050818103600083015261423a81613e19565b9050919050565b6000602082019050818103600083015261425a81613e3c565b9050919050565b6000602082019050818103600083015261427a81613e5f565b9050919050565b6000602082019050818103600083015261429a81613e82565b9050919050565b600060208201905081810360008301526142ba81613ea5565b9050919050565b600060208201905081810360008301526142da81613ec8565b9050919050565b600060208201905081810360008301526142fa81613eeb565b9050919050565b6000602082019050818103600083015261431a81613f0e565b9050919050565b6000602082019050818103600083015261433a81613f31565b9050919050565b60006080820190506143566000830184613f54565b92915050565b6000602082019050614371600083018461403b565b92915050565b600060a08201905061438c600083018561403b565b6143996020830184613fa9565b9392505050565b600060c0820190506143b5600083018961403b565b6143c2602083018861403b565b6143cf604083018761403b565b6143dc606083018661403b565b6143e9608083018561403b565b6143f660a083018461403b565b979650505050505050565b600061010082019050614417600083018b61403b565b614424602083018a61403b565b614431604083018961403b565b61443e606083018861403b565b61444b608083018761403b565b61445860a083018661403b565b61446560c083018561403b565b61447260e0830184613d29565b9998505050505050505050565b6000819050602082019050919050565b600081519050919050565b6000602082019050919050565b600082825260208201905092915050565b600082825260208201905092915050565b60006144d482614720565b91506144df83614720565b9250827fffffffffffffffffffffffffffffffffffffffffffffffffffffffffffffffff0382111561451457614513614892565b5b828201905092915050565b600061452a826146f8565b9150614535836146f8565b925082614545576145446148c1565b5b828204905092915050565b600061455b82614720565b915061456683614720565b925082614576576145756148c1565b5b828204905092915050565b600061458c82614720565b915061459783614720565b9250817fffffffffffffffffffffffffffffffffffffffffffffffffffffffffffffffff04831182151516156145d0576145cf614892565b5b828202905092915050565b60006145e682614720565b91506145f183614720565b92508282101561460457614603614892565b5b828203905092915050565b600061461a8261472a565b91506146258361472a565b92508282101561463857614637614892565b5b828203905092915050565b600073ffffffffffffffffffffffffffffffffffffffff82169050919050565b600060ff82169050919050565b6000819050919050565b6000614685826146d8565b9050919050565b60008115159050919050565b60008190506146a682614bb9565b919050565b60008190506146b982614bcd565b919050565b60006dffffffffffffffffffffffffffff82169050919050565b600073ffffffffffffffffffffffffffffffffffffffff82169050919050565b60007bffffffffffffffffffffffffffffffffffffffffffffffffffffffff82169050919050565b6000819050919050565b600063ffffffff82169050919050565b60006147458261474c565b9050919050565b6000614757826146d8565b9050919050565b600061476982614770565b9050919050565b600061477b826146d8565b9050919050565b600061478d82614794565b9050919050565b600061479f826146d8565b9050919050565b60006147b182614698565b9050919050565b60006147c3826146ab565b9050919050565b60006147dd6147d88361491f565b614643565b9050919050565b60006147f76147f28361491f565b614663565b9050919050565b600061481161480c8361491f565b614670565b9050919050565b600061482382614720565b91507fffffffffffffffffffffffffffffffffffffffffffffffffffffffffffffffff82141561485657614855614892565b5b600182019050919050565b600061486c82614720565b915061487783614720565b925082614887576148866148c1565b5b828206905092915050565b7f4e487b7100000000000000000000000000000000000000000000000000000000600052601160045260246000fd5b7f4e487b7100000000000000000000000000000000000000000000000000000000600052601260045260246000fd5b7f4e487b7100000000000000000000000000000000000000000000000000000000600052602160045260246000fd5b60008160001c9050919050565b7f4652414d4520454e442054494d45204e4f542052454143484544000000000000600082015250565b7f4e4f542054484520464143544f5259204f574e45520000000000000000000000600082015250565b7f594f5520444f204e4f54204f574e205448452057494e4e494e47204c4f542100600082015250565b7f494e56414c4944204652414d4520505249434500000000000000000000000000600082015250565b7f4c4f5420414c524541445920534554544c454400000000000000000000000000600082015250565b7f505249434520495320544f4f204c4f5700000000000000000000000000000000600082015250565b7f54484953204c4f5420495320494e20412050415354204652414d450000000000600082015250565b7f4d555354204245204c4f54204f574e4552000000000000000000000000000000600082015250565b7f4652414d45204e4f5420434c4f53454400000000000000000000000000000000600082015250565b7f54484953204c4f5420495320494e20412054494d45204652414d452046524f4d60008201527f2054484520504153540000000000000000000000000000000000000000000000602082015250565b7f4144445245535320414c5245414459204f574e53205448452050415243454c00600082015250565b7f415050524f56454420414d4f554e5420495320544f4f20534d414c4c00000000600082015250565b7f43414e5420435245415445204652414d4520494e205041535400000000000000600082015250565b7f43414e2754204255592041204c4f542046524f4d205448452050415354000000600082015250565b7f4669786564506f696e743a204449565f42595f5a45524f000000000000000000600082015250565b60038110614bca57614bc96148f0565b5b50565b60038110614bde57614bdd6148f0565b5b50565b614bea8161467a565b8114614bf557600080fd5b50565b614c018161468c565b8114614c0c57600080fd5b50565b614c18816146be565b8114614c2357600080fd5b50565b614c2f81614720565b8114614c3a57600080fd5b50565b614c468161472a565b8114614c5157600080fd5b5056fea2646970667358221220322fcbc62c6d71e9717089b06b7fa747e806000a23230726449d34f377c8f50064736f6c63430008040033",
          "opcodes": "PUSH1 0x80 PUSH1 0x40 MSTORE PUSH1 0x64 PUSH1 0x2 SSTORE PUSH10 0xD3C21BCECCEDA1000000 PUSH1 0xC SSTORE CALLVALUE DUP1 ISZERO PUSH3 0x24 JUMPI PUSH1 0x0 DUP1 REVERT JUMPDEST POP PUSH1 0x40 MLOAD PUSH3 0x5057 CODESIZE SUB DUP1 PUSH3 0x5057 DUP4 CODECOPY DUP2 DUP2 ADD PUSH1 0x40 MSTORE DUP2 ADD SWAP1 PUSH3 0x4A SWAP2 SWAP1 PUSH3 0x1EB JUMP JUMPDEST DUP9 PUSH1 0x9 PUSH1 0x0 PUSH2 0x100 EXP DUP2 SLOAD DUP2 PUSH20 0xFFFFFFFFFFFFFFFFFFFFFFFFFFFFFFFFFFFFFFFF MUL NOT AND SWAP1 DUP4 PUSH20 0xFFFFFFFFFFFFFFFFFFFFFFFFFFFFFFFFFFFFFFFF AND MUL OR SWAP1 SSTORE POP CALLER PUSH1 0xA PUSH1 0x0 PUSH2 0x100 EXP DUP2 SLOAD DUP2 PUSH20 0xFFFFFFFFFFFFFFFFFFFFFFFFFFFFFFFFFFFFFFFF MUL NOT AND SWAP1 DUP4 PUSH20 0xFFFFFFFFFFFFFFFFFFFFFFFFFFFFFFFFFFFFFFFF AND MUL OR SWAP1 SSTORE POP DUP7 PUSH1 0x0 DUP2 SWAP1 SSTORE POP DUP6 PUSH1 0x1 DUP2 SWAP1 SSTORE POP DUP5 PUSH1 0x7 DUP2 SWAP1 SSTORE POP DUP4 PUSH1 0x6 DUP2 SWAP1 SSTORE POP DUP8 PUSH1 0x4 PUSH1 0x0 PUSH2 0x100 EXP DUP2 SLOAD DUP2 PUSH20 0xFFFFFFFFFFFFFFFFFFFFFFFFFFFFFFFFFFFFFFFF MUL NOT AND SWAP1 DUP4 PUSH20 0xFFFFFFFFFFFFFFFFFFFFFFFFFFFFFFFFFFFFFFFF AND MUL OR SWAP1 SSTORE POP DUP3 PUSH1 0x5 DUP2 SWAP1 SSTORE POP DUP10 PUSH1 0x8 PUSH1 0x0 PUSH2 0x100 EXP DUP2 SLOAD DUP2 PUSH20 0xFFFFFFFFFFFFFFFFFFFFFFFFFFFFFFFFFFFFFFFF MUL NOT AND SWAP1 DUP4 PUSH20 0xFFFFFFFFFFFFFFFFFFFFFFFFFFFFFFFFFFFFFFFF AND MUL OR SWAP1 SSTORE POP DUP2 PUSH1 0x3 DUP2 SWAP1 SSTORE POP DUP1 PUSH1 0xB DUP2 SWAP1 SSTORE POP POP POP POP POP POP POP POP POP POP POP PUSH3 0x3BD JUMP JUMPDEST PUSH1 0x0 DUP2 MLOAD SWAP1 POP PUSH3 0x1A0 DUP2 PUSH3 0x355 JUMP JUMPDEST SWAP3 SWAP2 POP POP JUMP JUMPDEST PUSH1 0x0 DUP2 MLOAD SWAP1 POP PUSH3 0x1B7 DUP2 PUSH3 0x36F JUMP JUMPDEST SWAP3 SWAP2 POP POP JUMP JUMPDEST PUSH1 0x0 DUP2 MLOAD SWAP1 POP PUSH3 0x1CE DUP2 PUSH3 0x389 JUMP JUMPDEST SWAP3 SWAP2 POP POP JUMP JUMPDEST PUSH1 0x0 DUP2 MLOAD SWAP1 POP PUSH3 0x1E5 DUP2 PUSH3 0x3A3 JUMP JUMPDEST SWAP3 SWAP2 POP POP JUMP JUMPDEST PUSH1 0x0 DUP1 PUSH1 0x0 DUP1 PUSH1 0x0 DUP1 PUSH1 0x0 DUP1 PUSH1 0x0 DUP1 PUSH2 0x140 DUP12 DUP14 SUB SLT ISZERO PUSH3 0x20C JUMPI PUSH1 0x0 DUP1 REVERT JUMPDEST PUSH1 0x0 PUSH3 0x21C DUP14 DUP3 DUP15 ADD PUSH3 0x1BD JUMP JUMPDEST SWAP11 POP POP PUSH1 0x20 PUSH3 0x22F DUP14 DUP3 DUP15 ADD PUSH3 0x18F JUMP JUMPDEST SWAP10 POP POP PUSH1 0x40 PUSH3 0x242 DUP14 DUP3 DUP15 ADD PUSH3 0x1A6 JUMP JUMPDEST SWAP9 POP POP PUSH1 0x60 PUSH3 0x255 DUP14 DUP3 DUP15 ADD PUSH3 0x1D4 JUMP JUMPDEST SWAP8 POP POP PUSH1 0x80 PUSH3 0x268 DUP14 DUP3 DUP15 ADD PUSH3 0x1D4 JUMP JUMPDEST SWAP7 POP POP PUSH1 0xA0 PUSH3 0x27B DUP14 DUP3 DUP15 ADD PUSH3 0x1D4 JUMP JUMPDEST SWAP6 POP POP PUSH1 0xC0 PUSH3 0x28E DUP14 DUP3 DUP15 ADD PUSH3 0x1D4 JUMP JUMPDEST SWAP5 POP POP PUSH1 0xE0 PUSH3 0x2A1 DUP14 DUP3 DUP15 ADD PUSH3 0x1D4 JUMP JUMPDEST SWAP4 POP POP PUSH2 0x100 PUSH3 0x2B5 DUP14 DUP3 DUP15 ADD PUSH3 0x1D4 JUMP JUMPDEST SWAP3 POP POP PUSH2 0x120 PUSH3 0x2C9 DUP14 DUP3 DUP15 ADD PUSH3 0x1D4 JUMP JUMPDEST SWAP2 POP POP SWAP3 SWAP6 SWAP9 SWAP12 SWAP2 SWAP5 SWAP8 SWAP11 POP SWAP3 SWAP6 SWAP9 POP JUMP JUMPDEST PUSH1 0x0 PUSH3 0x2E8 DUP3 PUSH3 0x32B JUMP JUMPDEST SWAP1 POP SWAP2 SWAP1 POP JUMP JUMPDEST PUSH1 0x0 PUSH3 0x2FC DUP3 PUSH3 0x2DB JUMP JUMPDEST SWAP1 POP SWAP2 SWAP1 POP JUMP JUMPDEST PUSH1 0x0 PUSH3 0x310 DUP3 PUSH3 0x2DB JUMP JUMPDEST SWAP1 POP SWAP2 SWAP1 POP JUMP JUMPDEST PUSH1 0x0 PUSH3 0x324 DUP3 PUSH3 0x2DB JUMP JUMPDEST SWAP1 POP SWAP2 SWAP1 POP JUMP JUMPDEST PUSH1 0x0 PUSH20 0xFFFFFFFFFFFFFFFFFFFFFFFFFFFFFFFFFFFFFFFF DUP3 AND SWAP1 POP SWAP2 SWAP1 POP JUMP JUMPDEST PUSH1 0x0 DUP2 SWAP1 POP SWAP2 SWAP1 POP JUMP JUMPDEST PUSH3 0x360 DUP2 PUSH3 0x2EF JUMP JUMPDEST DUP2 EQ PUSH3 0x36C JUMPI PUSH1 0x0 DUP1 REVERT JUMPDEST POP JUMP JUMPDEST PUSH3 0x37A DUP2 PUSH3 0x303 JUMP JUMPDEST DUP2 EQ PUSH3 0x386 JUMPI PUSH1 0x0 DUP1 REVERT JUMPDEST POP JUMP JUMPDEST PUSH3 0x394 DUP2 PUSH3 0x317 JUMP JUMPDEST DUP2 EQ PUSH3 0x3A0 JUMPI PUSH1 0x0 DUP1 REVERT JUMPDEST POP JUMP JUMPDEST PUSH3 0x3AE DUP2 PUSH3 0x34B JUMP JUMPDEST DUP2 EQ PUSH3 0x3BA JUMPI PUSH1 0x0 DUP1 REVERT JUMPDEST POP JUMP JUMPDEST PUSH2 0x4C8A DUP1 PUSH3 0x3CD PUSH1 0x0 CODECOPY PUSH1 0x0 RETURN INVALID PUSH1 0x80 PUSH1 0x40 MSTORE CALLVALUE DUP1 ISZERO PUSH2 0x10 JUMPI PUSH1 0x0 DUP1 REVERT JUMPDEST POP PUSH1 0x4 CALLDATASIZE LT PUSH2 0x227 JUMPI PUSH1 0x0 CALLDATALOAD PUSH1 0xE0 SHR DUP1 PUSH4 0x7358C57A GT PUSH2 0x130 JUMPI DUP1 PUSH4 0xAE169A50 GT PUSH2 0xB8 JUMPI DUP1 PUSH4 0xDA68CF8B GT PUSH2 0x7C JUMPI DUP1 PUSH4 0xDA68CF8B EQ PUSH2 0x6F5 JUMPI DUP1 PUSH4 0xE107FB4F EQ PUSH2 0x713 JUMPI DUP1 PUSH4 0xEF78D4FD EQ PUSH2 0x743 JUMPI DUP1 PUSH4 0xFC950702 EQ PUSH2 0x761 JUMPI DUP1 PUSH4 0xFF5C86B0 EQ PUSH2 0x77D JUMPI PUSH2 0x227 JUMP JUMPDEST DUP1 PUSH4 0xAE169A50 EQ PUSH2 0x651 JUMPI DUP1 PUSH4 0xBB15D2DD EQ PUSH2 0x66D JUMPI DUP1 PUSH4 0xC45A0155 EQ PUSH2 0x689 JUMPI DUP1 PUSH4 0xC816841B EQ PUSH2 0x6A7 JUMPI DUP1 PUSH4 0xC84993AF EQ PUSH2 0x6C5 JUMPI PUSH2 0x227 JUMP JUMPDEST DUP1 PUSH4 0x89DA88A3 GT PUSH2 0xFF JUMPI DUP1 PUSH4 0x89DA88A3 EQ PUSH2 0x592 JUMPI DUP1 PUSH4 0x9495833C EQ PUSH2 0x5B0 JUMPI DUP1 PUSH4 0x96B2C6F3 EQ PUSH2 0x5E0 JUMPI DUP1 PUSH4 0xA10340BC EQ PUSH2 0x5EA JUMPI DUP1 PUSH4 0xA4D246FF EQ PUSH2 0x621 JUMPI PUSH2 0x227 JUMP JUMPDEST DUP1 PUSH4 0x7358C57A EQ PUSH2 0x4F6 JUMPI DUP1 PUSH4 0x7E996639 EQ PUSH2 0x514 JUMPI DUP1 PUSH4 0x830AB119 EQ PUSH2 0x532 JUMPI DUP1 PUSH4 0x888BDBCD EQ PUSH2 0x562 JUMPI PUSH2 0x227 JUMP JUMPDEST DUP1 PUSH4 0x41A8B6F8 GT PUSH2 0x1B3 JUMPI DUP1 PUSH4 0x527EB4BC GT PUSH2 0x182 JUMPI DUP1 PUSH4 0x527EB4BC EQ PUSH2 0x42C JUMPI DUP1 PUSH4 0x5B3AD63E EQ PUSH2 0x44A JUMPI DUP1 PUSH4 0x60F65C60 EQ PUSH2 0x47A JUMPI DUP1 PUSH4 0x6F1AEFC3 EQ PUSH2 0x4AA JUMPI DUP1 PUSH4 0x6F7CB60B EQ PUSH2 0x4DA JUMPI PUSH2 0x227 JUMP JUMPDEST DUP1 PUSH4 0x41A8B6F8 EQ PUSH2 0x3A4 JUMPI DUP1 PUSH4 0x45084775 EQ PUSH2 0x3D4 JUMPI DUP1 PUSH4 0x499A0FC4 EQ PUSH2 0x3F2 JUMPI DUP1 PUSH4 0x4D3EE2DC EQ PUSH2 0x410 JUMPI PUSH2 0x227 JUMP JUMPDEST DUP1 PUSH4 0x3656D5EE GT PUSH2 0x1FA JUMPI DUP1 PUSH4 0x3656D5EE EQ PUSH2 0x2EC JUMPI DUP1 PUSH4 0x3C80D8EA EQ PUSH2 0x31C JUMPI DUP1 PUSH4 0x3D09A82A EQ PUSH2 0x338 JUMPI DUP1 PUSH4 0x3E16BC20 EQ PUSH2 0x356 JUMPI DUP1 PUSH4 0x410F0710 EQ PUSH2 0x386 JUMPI PUSH2 0x227 JUMP JUMPDEST DUP1 PUSH4 0x50E8840 EQ PUSH2 0x22C JUMPI DUP1 PUSH4 0xCBCFF8F EQ PUSH2 0x25C JUMPI DUP1 PUSH4 0xEF19273 EQ PUSH2 0x28C JUMPI DUP1 PUSH4 0x14AA5A99 EQ PUSH2 0x2BC JUMPI JUMPDEST PUSH1 0x0 DUP1 REVERT JUMPDEST PUSH2 0x246 PUSH1 0x4 DUP1 CALLDATASIZE SUB DUP2 ADD SWAP1 PUSH2 0x241 SWAP2 SWAP1 PUSH2 0x3B8B JUMP JUMPDEST PUSH2 0x79B JUMP JUMPDEST PUSH1 0x40 MLOAD PUSH2 0x253 SWAP2 SWAP1 PUSH2 0x435C JUMP JUMPDEST PUSH1 0x40 MLOAD DUP1 SWAP2 SUB SWAP1 RETURN JUMPDEST PUSH2 0x276 PUSH1 0x4 DUP1 CALLDATASIZE SUB DUP2 ADD SWAP1 PUSH2 0x271 SWAP2 SWAP1 PUSH2 0x3B8B JUMP JUMPDEST PUSH2 0x7BF JUMP JUMPDEST PUSH1 0x40 MLOAD PUSH2 0x283 SWAP2 SWAP1 PUSH2 0x435C JUMP JUMPDEST PUSH1 0x40 MLOAD DUP1 SWAP2 SUB SWAP1 RETURN JUMPDEST PUSH2 0x2A6 PUSH1 0x4 DUP1 CALLDATASIZE SUB DUP2 ADD SWAP1 PUSH2 0x2A1 SWAP2 SWAP1 PUSH2 0x3A85 JUMP JUMPDEST PUSH2 0xA1E JUMP JUMPDEST PUSH1 0x40 MLOAD PUSH2 0x2B3 SWAP2 SWAP1 PUSH2 0x435C JUMP JUMPDEST PUSH1 0x40 MLOAD DUP1 SWAP2 SUB SWAP1 RETURN JUMPDEST PUSH2 0x2D6 PUSH1 0x4 DUP1 CALLDATASIZE SUB DUP2 ADD SWAP1 PUSH2 0x2D1 SWAP2 SWAP1 PUSH2 0x3BDD JUMP JUMPDEST PUSH2 0xA6A JUMP JUMPDEST PUSH1 0x40 MLOAD PUSH2 0x2E3 SWAP2 SWAP1 PUSH2 0x40EE JUMP JUMPDEST PUSH1 0x40 MLOAD DUP1 SWAP2 SUB SWAP1 RETURN JUMPDEST PUSH2 0x306 PUSH1 0x4 DUP1 CALLDATASIZE SUB DUP2 ADD SWAP1 PUSH2 0x301 SWAP2 SWAP1 PUSH2 0x3C19 JUMP JUMPDEST PUSH2 0xC17 JUMP JUMPDEST PUSH1 0x40 MLOAD PUSH2 0x313 SWAP2 SWAP1 PUSH2 0x435C JUMP JUMPDEST PUSH1 0x40 MLOAD DUP1 SWAP2 SUB SWAP1 RETURN JUMPDEST PUSH2 0x336 PUSH1 0x4 DUP1 CALLDATASIZE SUB DUP2 ADD SWAP1 PUSH2 0x331 SWAP2 SWAP1 PUSH2 0x3C19 JUMP JUMPDEST PUSH2 0xCA2 JUMP JUMPDEST STOP JUMPDEST PUSH2 0x340 PUSH2 0x156D JUMP JUMPDEST PUSH1 0x40 MLOAD PUSH2 0x34D SWAP2 SWAP1 PUSH2 0x435C JUMP JUMPDEST PUSH1 0x40 MLOAD DUP1 SWAP2 SUB SWAP1 RETURN JUMPDEST PUSH2 0x370 PUSH1 0x4 DUP1 CALLDATASIZE SUB DUP2 ADD SWAP1 PUSH2 0x36B SWAP2 SWAP1 PUSH2 0x3BDD JUMP JUMPDEST PUSH2 0x1573 JUMP JUMPDEST PUSH1 0x40 MLOAD PUSH2 0x37D SWAP2 SWAP1 PUSH2 0x435C JUMP JUMPDEST PUSH1 0x40 MLOAD DUP1 SWAP2 SUB SWAP1 RETURN JUMPDEST PUSH2 0x38E PUSH2 0x15D6 JUMP JUMPDEST PUSH1 0x40 MLOAD PUSH2 0x39B SWAP2 SWAP1 PUSH2 0x435C JUMP JUMPDEST PUSH1 0x40 MLOAD DUP1 SWAP2 SUB SWAP1 RETURN JUMPDEST PUSH2 0x3BE PUSH1 0x4 DUP1 CALLDATASIZE SUB DUP2 ADD SWAP1 PUSH2 0x3B9 SWAP2 SWAP1 PUSH2 0x3B8B JUMP JUMPDEST PUSH2 0x15DC JUMP JUMPDEST PUSH1 0x40 MLOAD PUSH2 0x3CB SWAP2 SWAP1 PUSH2 0x435C JUMP JUMPDEST PUSH1 0x40 MLOAD DUP1 SWAP2 SUB SWAP1 RETURN JUMPDEST PUSH2 0x3DC PUSH2 0x17E8 JUMP JUMPDEST PUSH1 0x40 MLOAD PUSH2 0x3E9 SWAP2 SWAP1 PUSH2 0x404A JUMP JUMPDEST PUSH1 0x40 MLOAD DUP1 SWAP2 SUB SWAP1 RETURN JUMPDEST PUSH2 0x3FA PUSH2 0x180E JUMP JUMPDEST PUSH1 0x40 MLOAD PUSH2 0x407 SWAP2 SWAP1 PUSH2 0x435C JUMP JUMPDEST PUSH1 0x40 MLOAD DUP1 SWAP2 SUB SWAP1 RETURN JUMPDEST PUSH2 0x42A PUSH1 0x4 DUP1 CALLDATASIZE SUB DUP2 ADD SWAP1 PUSH2 0x425 SWAP2 SWAP1 PUSH2 0x3B8B JUMP JUMPDEST PUSH2 0x1814 JUMP JUMPDEST STOP JUMPDEST PUSH2 0x434 PUSH2 0x1C9A JUMP JUMPDEST PUSH1 0x40 MLOAD PUSH2 0x441 SWAP2 SWAP1 PUSH2 0x435C JUMP JUMPDEST PUSH1 0x40 MLOAD DUP1 SWAP2 SUB SWAP1 RETURN JUMPDEST PUSH2 0x464 PUSH1 0x4 DUP1 CALLDATASIZE SUB DUP2 ADD SWAP1 PUSH2 0x45F SWAP2 SWAP1 PUSH2 0x3B8B JUMP JUMPDEST PUSH2 0x1CA0 JUMP JUMPDEST PUSH1 0x40 MLOAD PUSH2 0x471 SWAP2 SWAP1 PUSH2 0x435C JUMP JUMPDEST PUSH1 0x40 MLOAD DUP1 SWAP2 SUB SWAP1 RETURN JUMPDEST PUSH2 0x494 PUSH1 0x4 DUP1 CALLDATASIZE SUB DUP2 ADD SWAP1 PUSH2 0x48F SWAP2 SWAP1 PUSH2 0x3AD7 JUMP JUMPDEST PUSH2 0x1CE3 JUMP JUMPDEST PUSH1 0x40 MLOAD PUSH2 0x4A1 SWAP2 SWAP1 PUSH2 0x435C JUMP JUMPDEST PUSH1 0x40 MLOAD DUP1 SWAP2 SUB SWAP1 RETURN JUMPDEST PUSH2 0x4C4 PUSH1 0x4 DUP1 CALLDATASIZE SUB DUP2 ADD SWAP1 PUSH2 0x4BF SWAP2 SWAP1 PUSH2 0x3BDD JUMP JUMPDEST PUSH2 0x1D14 JUMP JUMPDEST PUSH1 0x40 MLOAD PUSH2 0x4D1 SWAP2 SWAP1 PUSH2 0x4341 JUMP JUMPDEST PUSH1 0x40 MLOAD DUP1 SWAP2 SUB SWAP1 RETURN JUMPDEST PUSH2 0x4F4 PUSH1 0x4 DUP1 CALLDATASIZE SUB DUP2 ADD SWAP1 PUSH2 0x4EF SWAP2 SWAP1 PUSH2 0x3B8B JUMP JUMPDEST PUSH2 0x1E47 JUMP JUMPDEST STOP JUMPDEST PUSH2 0x4FE PUSH2 0x20A6 JUMP JUMPDEST PUSH1 0x40 MLOAD PUSH2 0x50B SWAP2 SWAP1 PUSH2 0x435C JUMP JUMPDEST PUSH1 0x40 MLOAD DUP1 SWAP2 SUB SWAP1 RETURN JUMPDEST PUSH2 0x51C PUSH2 0x20AC JUMP JUMPDEST PUSH1 0x40 MLOAD PUSH2 0x529 SWAP2 SWAP1 PUSH2 0x435C JUMP JUMPDEST PUSH1 0x40 MLOAD DUP1 SWAP2 SUB SWAP1 RETURN JUMPDEST PUSH2 0x54C PUSH1 0x4 DUP1 CALLDATASIZE SUB DUP2 ADD SWAP1 PUSH2 0x547 SWAP2 SWAP1 PUSH2 0x3B8B JUMP JUMPDEST PUSH2 0x20B2 JUMP JUMPDEST PUSH1 0x40 MLOAD PUSH2 0x559 SWAP2 SWAP1 PUSH2 0x435C JUMP JUMPDEST PUSH1 0x40 MLOAD DUP1 SWAP2 SUB SWAP1 RETURN JUMPDEST PUSH2 0x57C PUSH1 0x4 DUP1 CALLDATASIZE SUB DUP2 ADD SWAP1 PUSH2 0x577 SWAP2 SWAP1 PUSH2 0x3B8B JUMP JUMPDEST PUSH2 0x20D5 JUMP JUMPDEST PUSH1 0x40 MLOAD PUSH2 0x589 SWAP2 SWAP1 PUSH2 0x435C JUMP JUMPDEST PUSH1 0x40 MLOAD DUP1 SWAP2 SUB SWAP1 RETURN JUMPDEST PUSH2 0x59A PUSH2 0x210B JUMP JUMPDEST PUSH1 0x40 MLOAD PUSH2 0x5A7 SWAP2 SWAP1 PUSH2 0x435C JUMP JUMPDEST PUSH1 0x40 MLOAD DUP1 SWAP2 SUB SWAP1 RETURN JUMPDEST PUSH2 0x5CA PUSH1 0x4 DUP1 CALLDATASIZE SUB DUP2 ADD SWAP1 PUSH2 0x5C5 SWAP2 SWAP1 PUSH2 0x3A85 JUMP JUMPDEST PUSH2 0x2118 JUMP JUMPDEST PUSH1 0x40 MLOAD PUSH2 0x5D7 SWAP2 SWAP1 PUSH2 0x40EE JUMP JUMPDEST PUSH1 0x40 MLOAD DUP1 SWAP2 SUB SWAP1 RETURN JUMPDEST PUSH2 0x5E8 PUSH2 0x21AF JUMP JUMPDEST STOP JUMPDEST PUSH2 0x604 PUSH1 0x4 DUP1 CALLDATASIZE SUB DUP2 ADD SWAP1 PUSH2 0x5FF SWAP2 SWAP1 PUSH2 0x3B8B JUMP JUMPDEST PUSH2 0x24C5 JUMP JUMPDEST PUSH1 0x40 MLOAD PUSH2 0x618 SWAP9 SWAP8 SWAP7 SWAP6 SWAP5 SWAP4 SWAP3 SWAP2 SWAP1 PUSH2 0x4401 JUMP JUMPDEST PUSH1 0x40 MLOAD DUP1 SWAP2 SUB SWAP1 RETURN JUMPDEST PUSH2 0x63B PUSH1 0x4 DUP1 CALLDATASIZE SUB DUP2 ADD SWAP1 PUSH2 0x636 SWAP2 SWAP1 PUSH2 0x3C19 JUMP JUMPDEST PUSH2 0x251A JUMP JUMPDEST PUSH1 0x40 MLOAD PUSH2 0x648 SWAP2 SWAP1 PUSH2 0x435C JUMP JUMPDEST PUSH1 0x40 MLOAD DUP1 SWAP2 SUB SWAP1 RETURN JUMPDEST PUSH2 0x66B PUSH1 0x4 DUP1 CALLDATASIZE SUB DUP2 ADD SWAP1 PUSH2 0x666 SWAP2 SWAP1 PUSH2 0x3B8B JUMP JUMPDEST PUSH2 0x25D0 JUMP JUMPDEST STOP JUMPDEST PUSH2 0x687 PUSH1 0x4 DUP1 CALLDATASIZE SUB DUP2 ADD SWAP1 PUSH2 0x682 SWAP2 SWAP1 PUSH2 0x3C19 JUMP JUMPDEST PUSH2 0x25E5 JUMP JUMPDEST STOP JUMPDEST PUSH2 0x691 PUSH2 0x2B67 JUMP JUMPDEST PUSH1 0x40 MLOAD PUSH2 0x69E SWAP2 SWAP1 PUSH2 0x4146 JUMP JUMPDEST PUSH1 0x40 MLOAD DUP1 SWAP2 SUB SWAP1 RETURN JUMPDEST PUSH2 0x6AF PUSH2 0x2B8D JUMP JUMPDEST PUSH1 0x40 MLOAD PUSH2 0x6BC SWAP2 SWAP1 PUSH2 0x412B JUMP JUMPDEST PUSH1 0x40 MLOAD DUP1 SWAP2 SUB SWAP1 RETURN JUMPDEST PUSH2 0x6DF PUSH1 0x4 DUP1 CALLDATASIZE SUB DUP2 ADD SWAP1 PUSH2 0x6DA SWAP2 SWAP1 PUSH2 0x3B8B JUMP JUMPDEST PUSH2 0x2BB3 JUMP JUMPDEST PUSH1 0x40 MLOAD PUSH2 0x6EC SWAP2 SWAP1 PUSH2 0x435C JUMP JUMPDEST PUSH1 0x40 MLOAD DUP1 SWAP2 SUB SWAP1 RETURN JUMPDEST PUSH2 0x6FD PUSH2 0x2BD3 JUMP JUMPDEST PUSH1 0x40 MLOAD PUSH2 0x70A SWAP2 SWAP1 PUSH2 0x4110 JUMP JUMPDEST PUSH1 0x40 MLOAD DUP1 SWAP2 SUB SWAP1 RETURN JUMPDEST PUSH2 0x72D PUSH1 0x4 DUP1 CALLDATASIZE SUB DUP2 ADD SWAP1 PUSH2 0x728 SWAP2 SWAP1 PUSH2 0x3BDD JUMP JUMPDEST PUSH2 0x2BF9 JUMP JUMPDEST PUSH1 0x40 MLOAD PUSH2 0x73A SWAP2 SWAP1 PUSH2 0x435C JUMP JUMPDEST PUSH1 0x40 MLOAD DUP1 SWAP2 SUB SWAP1 RETURN JUMPDEST PUSH2 0x74B PUSH2 0x2CC6 JUMP JUMPDEST PUSH1 0x40 MLOAD PUSH2 0x758 SWAP2 SWAP1 PUSH2 0x435C JUMP JUMPDEST PUSH1 0x40 MLOAD DUP1 SWAP2 SUB SWAP1 RETURN JUMPDEST PUSH2 0x77B PUSH1 0x4 DUP1 CALLDATASIZE SUB DUP2 ADD SWAP1 PUSH2 0x776 SWAP2 SWAP1 PUSH2 0x3B8B JUMP JUMPDEST PUSH2 0x2CCC JUMP JUMPDEST STOP JUMPDEST PUSH2 0x785 PUSH2 0x336A JUMP JUMPDEST PUSH1 0x40 MLOAD PUSH2 0x792 SWAP2 SWAP1 PUSH2 0x435C JUMP JUMPDEST PUSH1 0x40 MLOAD DUP1 SWAP2 SUB SWAP1 RETURN JUMPDEST PUSH1 0xF DUP2 DUP2 SLOAD DUP2 LT PUSH2 0x7AB JUMPI PUSH1 0x0 DUP1 REVERT JUMPDEST SWAP1 PUSH1 0x0 MSTORE PUSH1 0x20 PUSH1 0x0 KECCAK256 ADD PUSH1 0x0 SWAP2 POP SWAP1 POP SLOAD DUP2 JUMP JUMPDEST PUSH1 0x0 DUP1 PUSH2 0x7CB DUP4 PUSH2 0x1CA0 JUMP JUMPDEST SWAP1 POP PUSH1 0x0 PUSH1 0x2 DUP2 GT ISZERO PUSH2 0x807 JUMPI PUSH32 0x4E487B7100000000000000000000000000000000000000000000000000000000 PUSH1 0x0 MSTORE PUSH1 0x21 PUSH1 0x4 MSTORE PUSH1 0x24 PUSH1 0x0 REVERT JUMPDEST PUSH1 0xD PUSH1 0x0 DUP4 DUP2 MSTORE PUSH1 0x20 ADD SWAP1 DUP2 MSTORE PUSH1 0x20 ADD PUSH1 0x0 KECCAK256 PUSH1 0x7 ADD PUSH1 0x0 SWAP1 SLOAD SWAP1 PUSH2 0x100 EXP SWAP1 DIV PUSH1 0xFF AND PUSH1 0x2 DUP2 GT ISZERO PUSH2 0x863 JUMPI PUSH32 0x4E487B7100000000000000000000000000000000000000000000000000000000 PUSH1 0x0 MSTORE PUSH1 0x21 PUSH1 0x4 MSTORE PUSH1 0x24 PUSH1 0x0 REVERT JUMPDEST EQ PUSH2 0x871 JUMPI DUP1 SWAP2 POP POP PUSH2 0xA19 JUMP JUMPDEST PUSH2 0x87A TIMESTAMP PUSH2 0x1CA0 JUMP JUMPDEST DUP2 LT ISZERO PUSH2 0x8BC JUMPI PUSH1 0x40 MLOAD PUSH32 0x8C379A000000000000000000000000000000000000000000000000000000000 DUP2 MSTORE PUSH1 0x4 ADD PUSH2 0x8B3 SWAP1 PUSH2 0x42E1 JUMP JUMPDEST PUSH1 0x40 MLOAD DUP1 SWAP2 SUB SWAP1 REVERT JUMPDEST DUP1 PUSH1 0xD PUSH1 0x0 DUP4 DUP2 MSTORE PUSH1 0x20 ADD SWAP1 DUP2 MSTORE PUSH1 0x20 ADD PUSH1 0x0 KECCAK256 PUSH1 0x0 ADD DUP2 SWAP1 SSTORE POP PUSH1 0x1 PUSH1 0xD PUSH1 0x0 DUP4 DUP2 MSTORE PUSH1 0x20 ADD SWAP1 DUP2 MSTORE PUSH1 0x20 ADD PUSH1 0x0 KECCAK256 PUSH1 0x7 ADD PUSH1 0x0 PUSH2 0x100 EXP DUP2 SLOAD DUP2 PUSH1 0xFF MUL NOT AND SWAP1 DUP4 PUSH1 0x2 DUP2 GT ISZERO PUSH2 0x937 JUMPI PUSH32 0x4E487B7100000000000000000000000000000000000000000000000000000000 PUSH1 0x0 MSTORE PUSH1 0x21 PUSH1 0x4 MSTORE PUSH1 0x24 PUSH1 0x0 REVERT JUMPDEST MUL OR SWAP1 SSTORE POP PUSH1 0xF DUP2 SWAP1 DUP1 PUSH1 0x1 DUP2 SLOAD ADD DUP1 DUP3 SSTORE DUP1 SWAP2 POP POP PUSH1 0x1 SWAP1 SUB SWAP1 PUSH1 0x0 MSTORE PUSH1 0x20 PUSH1 0x0 KECCAK256 ADD PUSH1 0x0 SWAP1 SWAP2 SWAP1 SWAP2 SWAP1 SWAP2 POP SSTORE PUSH32 0xE6A0E14A3E5E37F98AC3964D96CE45521656B05DDF148D5EEBD48C38675D6D7 DUP2 PUSH1 0xD PUSH1 0x0 DUP5 DUP2 MSTORE PUSH1 0x20 ADD SWAP1 DUP2 MSTORE PUSH1 0x20 ADD PUSH1 0x0 KECCAK256 PUSH1 0x1 ADD SLOAD PUSH1 0xD PUSH1 0x0 DUP6 DUP2 MSTORE PUSH1 0x20 ADD SWAP1 DUP2 MSTORE PUSH1 0x20 ADD PUSH1 0x0 KECCAK256 PUSH1 0x2 ADD SLOAD PUSH1 0xD PUSH1 0x0 DUP7 DUP2 MSTORE PUSH1 0x20 ADD SWAP1 DUP2 MSTORE PUSH1 0x20 ADD PUSH1 0x0 KECCAK256 PUSH1 0x5 ADD SLOAD PUSH1 0xD PUSH1 0x0 DUP8 DUP2 MSTORE PUSH1 0x20 ADD SWAP1 DUP2 MSTORE PUSH1 0x20 ADD PUSH1 0x0 KECCAK256 PUSH1 0x6 ADD SLOAD PUSH1 0xD PUSH1 0x0 DUP9 DUP2 MSTORE PUSH1 0x20 ADD SWAP1 DUP2 MSTORE PUSH1 0x20 ADD PUSH1 0x0 KECCAK256 PUSH1 0x4 ADD SLOAD PUSH1 0x40 MLOAD PUSH2 0xA0C SWAP7 SWAP6 SWAP5 SWAP4 SWAP3 SWAP2 SWAP1 PUSH2 0x43A0 JUMP JUMPDEST PUSH1 0x40 MLOAD DUP1 SWAP2 SUB SWAP1 LOG1 DUP1 SWAP2 POP POP JUMPDEST SWAP2 SWAP1 POP JUMP JUMPDEST PUSH1 0x0 PUSH1 0xE PUSH1 0x0 DUP4 PUSH20 0xFFFFFFFFFFFFFFFFFFFFFFFFFFFFFFFFFFFFFFFF AND PUSH20 0xFFFFFFFFFFFFFFFFFFFFFFFFFFFFFFFFFFFFFFFF AND DUP2 MSTORE PUSH1 0x20 ADD SWAP1 DUP2 MSTORE PUSH1 0x20 ADD PUSH1 0x0 KECCAK256 DUP1 SLOAD SWAP1 POP SWAP1 POP SWAP2 SWAP1 POP JUMP JUMPDEST PUSH1 0x60 PUSH1 0x0 DUP3 PUSH8 0xFFFFFFFFFFFFFFFF DUP2 GT ISZERO PUSH2 0xAAE JUMPI PUSH32 0x4E487B7100000000000000000000000000000000000000000000000000000000 PUSH1 0x0 MSTORE PUSH1 0x41 PUSH1 0x4 MSTORE PUSH1 0x24 PUSH1 0x0 REVERT JUMPDEST PUSH1 0x40 MLOAD SWAP1 DUP1 DUP3 MSTORE DUP1 PUSH1 0x20 MUL PUSH1 0x20 ADD DUP3 ADD PUSH1 0x40 MSTORE DUP1 ISZERO PUSH2 0xADC JUMPI DUP2 PUSH1 0x20 ADD PUSH1 0x20 DUP3 MUL DUP1 CALLDATASIZE DUP4 CALLDATACOPY DUP1 DUP3 ADD SWAP2 POP POP SWAP1 POP JUMPDEST POP SWAP1 POP PUSH1 0x0 PUSH1 0x1 SWAP1 POP JUMPDEST DUP4 DUP2 GT PUSH2 0xC0C JUMPI PUSH1 0x0 DUP2 PUSH1 0x0 SLOAD PUSH2 0xAFD SWAP2 SWAP1 PUSH2 0x4581 JUMP JUMPDEST DUP7 PUSH2 0xB08 SWAP2 SWAP1 PUSH2 0x44C9 JUMP JUMPDEST SWAP1 POP PUSH1 0x0 PUSH1 0x2 DUP2 GT ISZERO PUSH2 0xB44 JUMPI PUSH32 0x4E487B7100000000000000000000000000000000000000000000000000000000 PUSH1 0x0 MSTORE PUSH1 0x21 PUSH1 0x4 MSTORE PUSH1 0x24 PUSH1 0x0 REVERT JUMPDEST PUSH1 0xD PUSH1 0x0 DUP4 DUP2 MSTORE PUSH1 0x20 ADD SWAP1 DUP2 MSTORE PUSH1 0x20 ADD PUSH1 0x0 KECCAK256 PUSH1 0x7 ADD PUSH1 0x0 SWAP1 SLOAD SWAP1 PUSH2 0x100 EXP SWAP1 DIV PUSH1 0xFF AND PUSH1 0x2 DUP2 GT ISZERO PUSH2 0xBA0 JUMPI PUSH32 0x4E487B7100000000000000000000000000000000000000000000000000000000 PUSH1 0x0 MSTORE PUSH1 0x21 PUSH1 0x4 MSTORE PUSH1 0x24 PUSH1 0x0 REVERT JUMPDEST EQ PUSH2 0xBF8 JUMPI DUP1 DUP4 PUSH1 0x1 DUP5 PUSH2 0xBB4 SWAP2 SWAP1 PUSH2 0x45DB JUMP JUMPDEST DUP2 MLOAD DUP2 LT PUSH2 0xBEB JUMPI PUSH32 0x4E487B7100000000000000000000000000000000000000000000000000000000 PUSH1 0x0 MSTORE PUSH1 0x32 PUSH1 0x4 MSTORE PUSH1 0x24 PUSH1 0x0 REVERT JUMPDEST PUSH1 0x20 MUL PUSH1 0x20 ADD ADD DUP2 DUP2 MSTORE POP POP JUMPDEST POP DUP1 DUP1 PUSH2 0xC04 SWAP1 PUSH2 0x4818 JUMP JUMPDEST SWAP2 POP POP PUSH2 0xAE6 JUMP JUMPDEST POP DUP1 SWAP2 POP POP SWAP3 SWAP2 POP POP JUMP JUMPDEST PUSH1 0x0 DUP1 PUSH2 0xC23 DUP6 PUSH2 0x1CA0 JUMP JUMPDEST SWAP1 POP PUSH1 0x0 PUSH2 0xC30 DUP6 PUSH2 0x20D5 JUMP JUMPDEST SWAP1 POP PUSH1 0x0 PUSH2 0xC68 DUP4 PUSH1 0xD PUSH1 0x0 DUP7 DUP2 MSTORE PUSH1 0x20 ADD SWAP1 DUP2 MSTORE PUSH1 0x20 ADD PUSH1 0x0 KECCAK256 PUSH1 0x9 ADD PUSH1 0x0 DUP6 DUP2 MSTORE PUSH1 0x20 ADD SWAP1 DUP2 MSTORE PUSH1 0x20 ADD PUSH1 0x0 KECCAK256 PUSH1 0x2 ADD SLOAD PUSH2 0x2BF9 JUMP JUMPDEST SWAP1 POP PUSH1 0x0 PUSH2 0xC76 DUP5 DUP8 PUSH2 0x2BF9 JUMP JUMPDEST SWAP1 POP DUP1 DUP3 LT PUSH2 0xC88 JUMPI PUSH1 0x0 SWAP5 POP PUSH2 0xC97 JUMP JUMPDEST DUP2 DUP2 PUSH2 0xC94 SWAP2 SWAP1 PUSH2 0x45DB JUMP JUMPDEST SWAP5 POP JUMPDEST POP POP POP POP SWAP4 SWAP3 POP POP POP JUMP JUMPDEST DUP1 PUSH1 0x0 PUSH3 0x186A0 PUSH1 0x7 SLOAD DUP4 PUSH2 0xCB7 SWAP2 SWAP1 PUSH2 0x4581 JUMP JUMPDEST PUSH2 0xCC1 SWAP2 SWAP1 PUSH2 0x4550 JUMP JUMPDEST SWAP1 POP PUSH1 0xB SLOAD DUP2 LT ISZERO PUSH2 0xD08 JUMPI PUSH1 0x40 MLOAD PUSH32 0x8C379A000000000000000000000000000000000000000000000000000000000 DUP2 MSTORE PUSH1 0x4 ADD PUSH2 0xCFF SWAP1 PUSH2 0x4201 JUMP JUMPDEST PUSH1 0x40 MLOAD DUP1 SWAP2 SUB SWAP1 REVERT JUMPDEST PUSH1 0x0 PUSH2 0xD13 DUP7 PUSH2 0x7BF JUMP JUMPDEST SWAP1 POP PUSH1 0x0 PUSH2 0xD21 DUP3 DUP8 PUSH2 0x3370 JUMP JUMPDEST SWAP1 POP PUSH2 0xD2C TIMESTAMP PUSH2 0x1CA0 JUMP JUMPDEST DUP3 LT ISZERO PUSH2 0xD6E JUMPI PUSH1 0x40 MLOAD PUSH32 0x8C379A000000000000000000000000000000000000000000000000000000000 DUP2 MSTORE PUSH1 0x4 ADD PUSH2 0xD65 SWAP1 PUSH2 0x4301 JUMP JUMPDEST PUSH1 0x40 MLOAD DUP1 SWAP2 SUB SWAP1 REVERT JUMPDEST PUSH1 0xD PUSH1 0x0 DUP4 DUP2 MSTORE PUSH1 0x20 ADD SWAP1 DUP2 MSTORE PUSH1 0x20 ADD PUSH1 0x0 KECCAK256 PUSH1 0x9 ADD PUSH1 0x0 DUP3 DUP2 MSTORE PUSH1 0x20 ADD SWAP1 DUP2 MSTORE PUSH1 0x20 ADD PUSH1 0x0 KECCAK256 PUSH1 0x1 ADD PUSH1 0x0 SWAP1 SLOAD SWAP1 PUSH2 0x100 EXP SWAP1 DIV PUSH20 0xFFFFFFFFFFFFFFFFFFFFFFFFFFFFFFFFFFFFFFFF AND PUSH20 0xFFFFFFFFFFFFFFFFFFFFFFFFFFFFFFFFFFFFFFFF AND CALLER PUSH20 0xFFFFFFFFFFFFFFFFFFFFFFFFFFFFFFFFFFFFFFFF AND EQ ISZERO PUSH2 0xE27 JUMPI PUSH1 0x40 MLOAD PUSH32 0x8C379A000000000000000000000000000000000000000000000000000000000 DUP2 MSTORE PUSH1 0x4 ADD PUSH2 0xE1E SWAP1 PUSH2 0x42A1 JUMP JUMPDEST PUSH1 0x40 MLOAD DUP1 SWAP2 SUB SWAP1 REVERT JUMPDEST PUSH1 0x0 PUSH2 0xE33 DUP4 DUP8 PUSH2 0x2BF9 JUMP JUMPDEST SWAP1 POP DUP1 PUSH1 0xD PUSH1 0x0 DUP6 DUP2 MSTORE PUSH1 0x20 ADD SWAP1 DUP2 MSTORE PUSH1 0x20 ADD PUSH1 0x0 KECCAK256 PUSH1 0x9 ADD PUSH1 0x0 DUP5 DUP2 MSTORE PUSH1 0x20 ADD SWAP1 DUP2 MSTORE PUSH1 0x20 ADD PUSH1 0x0 KECCAK256 PUSH1 0x2 ADD SLOAD PUSH2 0xE6B SWAP2 SWAP1 PUSH2 0x44C9 JUMP JUMPDEST PUSH1 0x9 PUSH1 0x0 SWAP1 SLOAD SWAP1 PUSH2 0x100 EXP SWAP1 DIV PUSH20 0xFFFFFFFFFFFFFFFFFFFFFFFFFFFFFFFFFFFFFFFF AND PUSH20 0xFFFFFFFFFFFFFFFFFFFFFFFFFFFFFFFFFFFFFFFF AND PUSH4 0xDD62ED3E CALLER ADDRESS PUSH1 0x40 MLOAD DUP4 PUSH4 0xFFFFFFFF AND PUSH1 0xE0 SHL DUP2 MSTORE PUSH1 0x4 ADD PUSH2 0xEC8 SWAP3 SWAP2 SWAP1 PUSH2 0x4065 JUMP JUMPDEST PUSH1 0x20 PUSH1 0x40 MLOAD DUP1 DUP4 SUB DUP2 DUP7 DUP1 EXTCODESIZE ISZERO DUP1 ISZERO PUSH2 0xEE0 JUMPI PUSH1 0x0 DUP1 REVERT JUMPDEST POP GAS STATICCALL ISZERO DUP1 ISZERO PUSH2 0xEF4 JUMPI RETURNDATASIZE PUSH1 0x0 DUP1 RETURNDATACOPY RETURNDATASIZE PUSH1 0x0 REVERT JUMPDEST POP POP POP POP PUSH1 0x40 MLOAD RETURNDATASIZE PUSH1 0x1F NOT PUSH1 0x1F DUP3 ADD AND DUP3 ADD DUP1 PUSH1 0x40 MSTORE POP DUP2 ADD SWAP1 PUSH2 0xF18 SWAP2 SWAP1 PUSH2 0x3BB4 JUMP JUMPDEST LT ISZERO PUSH2 0xF59 JUMPI PUSH1 0x40 MLOAD PUSH32 0x8C379A000000000000000000000000000000000000000000000000000000000 DUP2 MSTORE PUSH1 0x4 ADD PUSH2 0xF50 SWAP1 PUSH2 0x42C1 JUMP JUMPDEST PUSH1 0x40 MLOAD DUP1 SWAP2 SUB SWAP1 REVERT JUMPDEST PUSH1 0x9 PUSH1 0x0 SWAP1 SLOAD SWAP1 PUSH2 0x100 EXP SWAP1 DIV PUSH20 0xFFFFFFFFFFFFFFFFFFFFFFFFFFFFFFFFFFFFFFFF AND PUSH20 0xFFFFFFFFFFFFFFFFFFFFFFFFFFFFFFFFFFFFFFFF AND PUSH4 0x23B872DD CALLER ADDRESS DUP5 PUSH1 0xD PUSH1 0x0 DUP10 DUP2 MSTORE PUSH1 0x20 ADD SWAP1 DUP2 MSTORE PUSH1 0x20 ADD PUSH1 0x0 KECCAK256 PUSH1 0x9 ADD PUSH1 0x0 DUP9 DUP2 MSTORE PUSH1 0x20 ADD SWAP1 DUP2 MSTORE PUSH1 0x20 ADD PUSH1 0x0 KECCAK256 PUSH1 0x2 ADD SLOAD PUSH2 0xFCF SWAP2 SWAP1 PUSH2 0x44C9 JUMP JUMPDEST PUSH1 0x40 MLOAD DUP5 PUSH4 0xFFFFFFFF AND PUSH1 0xE0 SHL DUP2 MSTORE PUSH1 0x4 ADD PUSH2 0xFED SWAP4 SWAP3 SWAP2 SWAP1 PUSH2 0x408E JUMP JUMPDEST PUSH1 0x20 PUSH1 0x40 MLOAD DUP1 DUP4 SUB DUP2 PUSH1 0x0 DUP8 DUP1 EXTCODESIZE ISZERO DUP1 ISZERO PUSH2 0x1007 JUMPI PUSH1 0x0 DUP1 REVERT JUMPDEST POP GAS CALL ISZERO DUP1 ISZERO PUSH2 0x101B JUMPI RETURNDATASIZE PUSH1 0x0 DUP1 RETURNDATACOPY RETURNDATASIZE PUSH1 0x0 REVERT JUMPDEST POP POP POP POP PUSH1 0x40 MLOAD RETURNDATASIZE PUSH1 0x1F NOT PUSH1 0x1F DUP3 ADD AND DUP3 ADD DUP1 PUSH1 0x40 MSTORE POP DUP2 ADD SWAP1 PUSH2 0x103F SWAP2 SWAP1 PUSH2 0x3B13 JUMP JUMPDEST POP DUP1 PUSH1 0xD PUSH1 0x0 DUP6 DUP2 MSTORE PUSH1 0x20 ADD SWAP1 DUP2 MSTORE PUSH1 0x20 ADD PUSH1 0x0 KECCAK256 PUSH1 0x4 ADD SLOAD PUSH2 0x1062 SWAP2 SWAP1 PUSH2 0x44C9 JUMP JUMPDEST PUSH1 0xD PUSH1 0x0 DUP6 DUP2 MSTORE PUSH1 0x20 ADD SWAP1 DUP2 MSTORE PUSH1 0x20 ADD PUSH1 0x0 KECCAK256 PUSH1 0x4 ADD DUP2 SWAP1 SSTORE POP PUSH1 0x1 PUSH1 0x2 DUP2 GT ISZERO PUSH2 0x10B6 JUMPI PUSH32 0x4E487B7100000000000000000000000000000000000000000000000000000000 PUSH1 0x0 MSTORE PUSH1 0x21 PUSH1 0x4 MSTORE PUSH1 0x24 PUSH1 0x0 REVERT JUMPDEST PUSH1 0xD PUSH1 0x0 DUP6 DUP2 MSTORE PUSH1 0x20 ADD SWAP1 DUP2 MSTORE PUSH1 0x20 ADD PUSH1 0x0 KECCAK256 PUSH1 0x9 ADD PUSH1 0x0 DUP5 DUP2 MSTORE PUSH1 0x20 ADD SWAP1 DUP2 MSTORE PUSH1 0x20 ADD PUSH1 0x0 KECCAK256 PUSH1 0x3 ADD PUSH1 0x0 SWAP1 SLOAD SWAP1 PUSH2 0x100 EXP SWAP1 DIV PUSH1 0xFF AND PUSH1 0x2 DUP2 GT ISZERO PUSH2 0x1126 JUMPI PUSH32 0x4E487B7100000000000000000000000000000000000000000000000000000000 PUSH1 0x0 MSTORE PUSH1 0x21 PUSH1 0x4 MSTORE PUSH1 0x24 PUSH1 0x0 REVERT JUMPDEST EQ ISZERO PUSH2 0x12D5 JUMPI PUSH1 0x0 PUSH2 0x1162 DUP5 PUSH1 0xD PUSH1 0x0 DUP8 DUP2 MSTORE PUSH1 0x20 ADD SWAP1 DUP2 MSTORE PUSH1 0x20 ADD PUSH1 0x0 KECCAK256 PUSH1 0x9 ADD PUSH1 0x0 DUP7 DUP2 MSTORE PUSH1 0x20 ADD SWAP1 DUP2 MSTORE PUSH1 0x20 ADD PUSH1 0x0 KECCAK256 PUSH1 0x2 ADD SLOAD PUSH2 0x2BF9 JUMP JUMPDEST SWAP1 POP PUSH1 0x9 PUSH1 0x0 SWAP1 SLOAD SWAP1 PUSH2 0x100 EXP SWAP1 DIV PUSH20 0xFFFFFFFFFFFFFFFFFFFFFFFFFFFFFFFFFFFFFFFF AND PUSH20 0xFFFFFFFFFFFFFFFFFFFFFFFFFFFFFFFFFFFFFFFF AND PUSH4 0xA9059CBB PUSH1 0xD PUSH1 0x0 DUP8 DUP2 MSTORE PUSH1 0x20 ADD SWAP1 DUP2 MSTORE PUSH1 0x20 ADD PUSH1 0x0 KECCAK256 PUSH1 0x9 ADD PUSH1 0x0 DUP7 DUP2 MSTORE PUSH1 0x20 ADD SWAP1 DUP2 MSTORE PUSH1 0x20 ADD PUSH1 0x0 KECCAK256 PUSH1 0x1 ADD PUSH1 0x0 SWAP1 SLOAD SWAP1 PUSH2 0x100 EXP SWAP1 DIV PUSH20 0xFFFFFFFFFFFFFFFFFFFFFFFFFFFFFFFFFFFFFFFF AND PUSH1 0xD PUSH1 0x0 DUP9 DUP2 MSTORE PUSH1 0x20 ADD SWAP1 DUP2 MSTORE PUSH1 0x20 ADD PUSH1 0x0 KECCAK256 PUSH1 0x9 ADD PUSH1 0x0 DUP8 DUP2 MSTORE PUSH1 0x20 ADD SWAP1 DUP2 MSTORE PUSH1 0x20 ADD PUSH1 0x0 KECCAK256 PUSH1 0x2 ADD SLOAD DUP5 PUSH2 0x1223 SWAP2 SWAP1 PUSH2 0x44C9 JUMP JUMPDEST PUSH1 0x40 MLOAD DUP4 PUSH4 0xFFFFFFFF AND PUSH1 0xE0 SHL DUP2 MSTORE PUSH1 0x4 ADD PUSH2 0x1240 SWAP3 SWAP2 SWAP1 PUSH2 0x40C5 JUMP JUMPDEST PUSH1 0x20 PUSH1 0x40 MLOAD DUP1 DUP4 SUB DUP2 PUSH1 0x0 DUP8 DUP1 EXTCODESIZE ISZERO DUP1 ISZERO PUSH2 0x125A JUMPI PUSH1 0x0 DUP1 REVERT JUMPDEST POP GAS CALL ISZERO DUP1 ISZERO PUSH2 0x126E JUMPI RETURNDATASIZE PUSH1 0x0 DUP1 RETURNDATACOPY RETURNDATASIZE PUSH1 0x0 REVERT JUMPDEST POP POP POP POP PUSH1 0x40 MLOAD RETURNDATASIZE PUSH1 0x1F NOT PUSH1 0x1F DUP3 ADD AND DUP3 ADD DUP1 PUSH1 0x40 MSTORE POP DUP2 ADD SWAP1 PUSH2 0x1292 SWAP2 SWAP1 PUSH2 0x3B13 JUMP JUMPDEST POP DUP1 PUSH1 0xD PUSH1 0x0 DUP7 DUP2 MSTORE PUSH1 0x20 ADD SWAP1 DUP2 MSTORE PUSH1 0x20 ADD PUSH1 0x0 KECCAK256 PUSH1 0x4 ADD SLOAD PUSH2 0x12B5 SWAP2 SWAP1 PUSH2 0x45DB JUMP JUMPDEST PUSH1 0xD PUSH1 0x0 DUP7 DUP2 MSTORE PUSH1 0x20 ADD SWAP1 DUP2 MSTORE PUSH1 0x20 ADD PUSH1 0x0 KECCAK256 PUSH1 0x4 ADD DUP2 SWAP1 SSTORE POP POP PUSH2 0x134F JUMP JUMPDEST PUSH1 0x1 PUSH1 0xD PUSH1 0x0 DUP6 DUP2 MSTORE PUSH1 0x20 ADD SWAP1 DUP2 MSTORE PUSH1 0x20 ADD PUSH1 0x0 KECCAK256 PUSH1 0x9 ADD PUSH1 0x0 DUP5 DUP2 MSTORE PUSH1 0x20 ADD SWAP1 DUP2 MSTORE PUSH1 0x20 ADD PUSH1 0x0 KECCAK256 PUSH1 0x3 ADD PUSH1 0x0 PUSH2 0x100 EXP DUP2 SLOAD DUP2 PUSH1 0xFF MUL NOT AND SWAP1 DUP4 PUSH1 0x2 DUP2 GT ISZERO PUSH2 0x1349 JUMPI PUSH32 0x4E487B7100000000000000000000000000000000000000000000000000000000 PUSH1 0x0 MSTORE PUSH1 0x21 PUSH1 0x4 MSTORE PUSH1 0x24 PUSH1 0x0 REVERT JUMPDEST MUL OR SWAP1 SSTORE POP JUMPDEST CALLER PUSH1 0xD PUSH1 0x0 DUP6 DUP2 MSTORE PUSH1 0x20 ADD SWAP1 DUP2 MSTORE PUSH1 0x20 ADD PUSH1 0x0 KECCAK256 PUSH1 0x9 ADD PUSH1 0x0 DUP5 DUP2 MSTORE PUSH1 0x20 ADD SWAP1 DUP2 MSTORE PUSH1 0x20 ADD PUSH1 0x0 KECCAK256 PUSH1 0x1 ADD PUSH1 0x0 PUSH2 0x100 EXP DUP2 SLOAD DUP2 PUSH20 0xFFFFFFFFFFFFFFFFFFFFFFFFFFFFFFFFFFFFFFFF MUL NOT AND SWAP1 DUP4 PUSH20 0xFFFFFFFFFFFFFFFFFFFFFFFFFFFFFFFFFFFFFFFF AND MUL OR SWAP1 SSTORE POP DUP6 PUSH1 0xD PUSH1 0x0 DUP6 DUP2 MSTORE PUSH1 0x20 ADD SWAP1 DUP2 MSTORE PUSH1 0x20 ADD PUSH1 0x0 KECCAK256 PUSH1 0x9 ADD PUSH1 0x0 DUP5 DUP2 MSTORE PUSH1 0x20 ADD SWAP1 DUP2 MSTORE PUSH1 0x20 ADD PUSH1 0x0 KECCAK256 PUSH1 0x2 ADD DUP2 SWAP1 SSTORE POP PUSH1 0xE PUSH1 0x0 CALLER PUSH20 0xFFFFFFFFFFFFFFFFFFFFFFFFFFFFFFFFFFFFFFFF AND PUSH20 0xFFFFFFFFFFFFFFFFFFFFFFFFFFFFFFFFFFFFFFFF AND DUP2 MSTORE PUSH1 0x20 ADD SWAP1 DUP2 MSTORE PUSH1 0x20 ADD PUSH1 0x0 KECCAK256 DUP4 SWAP1 DUP1 PUSH1 0x1 DUP2 SLOAD ADD DUP1 DUP3 SSTORE DUP1 SWAP2 POP POP PUSH1 0x1 SWAP1 SUB SWAP1 PUSH1 0x0 MSTORE PUSH1 0x20 PUSH1 0x0 KECCAK256 ADD PUSH1 0x0 SWAP1 SWAP2 SWAP1 SWAP2 SWAP1 SWAP2 POP SSTORE PUSH2 0x1455 PUSH2 0x21AF JUMP JUMPDEST PUSH32 0xE6A0E14A3E5E37F98AC3964D96CE45521656B05DDF148D5EEBD48C38675D6D7 DUP4 PUSH1 0xD PUSH1 0x0 DUP7 DUP2 MSTORE PUSH1 0x20 ADD SWAP1 DUP2 MSTORE PUSH1 0x20 ADD PUSH1 0x0 KECCAK256 PUSH1 0x1 ADD SLOAD PUSH1 0xD PUSH1 0x0 DUP8 DUP2 MSTORE PUSH1 0x20 ADD SWAP1 DUP2 MSTORE PUSH1 0x20 ADD PUSH1 0x0 KECCAK256 PUSH1 0x2 ADD SLOAD PUSH1 0xD PUSH1 0x0 DUP9 DUP2 MSTORE PUSH1 0x20 ADD SWAP1 DUP2 MSTORE PUSH1 0x20 ADD PUSH1 0x0 KECCAK256 PUSH1 0x5 ADD SLOAD PUSH1 0xD PUSH1 0x0 DUP10 DUP2 MSTORE PUSH1 0x20 ADD SWAP1 DUP2 MSTORE PUSH1 0x20 ADD PUSH1 0x0 KECCAK256 PUSH1 0x6 ADD SLOAD PUSH1 0xD PUSH1 0x0 DUP11 DUP2 MSTORE PUSH1 0x20 ADD SWAP1 DUP2 MSTORE PUSH1 0x20 ADD PUSH1 0x0 KECCAK256 PUSH1 0x4 ADD SLOAD PUSH1 0x40 MLOAD PUSH2 0x14FC SWAP7 SWAP6 SWAP5 SWAP4 SWAP3 SWAP2 SWAP1 PUSH2 0x43A0 JUMP JUMPDEST PUSH1 0x40 MLOAD DUP1 SWAP2 SUB SWAP1 LOG1 PUSH32 0x683745E9C845F93F11479C3BD6B4E976AC10AC0801152F8286C1CFBAED7A6B40 DUP4 PUSH1 0xD PUSH1 0x0 DUP7 DUP2 MSTORE PUSH1 0x20 ADD SWAP1 DUP2 MSTORE PUSH1 0x20 ADD PUSH1 0x0 KECCAK256 PUSH1 0x9 ADD PUSH1 0x0 DUP6 DUP2 MSTORE PUSH1 0x20 ADD SWAP1 DUP2 MSTORE PUSH1 0x20 ADD PUSH1 0x0 KECCAK256 PUSH1 0x40 MLOAD PUSH2 0x155B SWAP3 SWAP2 SWAP1 PUSH2 0x4377 JUMP JUMPDEST PUSH1 0x40 MLOAD DUP1 SWAP2 SUB SWAP1 LOG1 POP POP POP POP POP POP POP POP JUMP JUMPDEST PUSH1 0xB SLOAD DUP2 JUMP JUMPDEST PUSH1 0x0 PUSH1 0xD PUSH1 0x0 DUP5 DUP2 MSTORE PUSH1 0x20 ADD SWAP1 DUP2 MSTORE PUSH1 0x20 ADD PUSH1 0x0 KECCAK256 PUSH1 0x8 ADD DUP3 DUP2 SLOAD DUP2 LT PUSH2 0x15C3 JUMPI PUSH32 0x4E487B7100000000000000000000000000000000000000000000000000000000 PUSH1 0x0 MSTORE PUSH1 0x32 PUSH1 0x4 MSTORE PUSH1 0x24 PUSH1 0x0 REVERT JUMPDEST SWAP1 PUSH1 0x0 MSTORE PUSH1 0x20 PUSH1 0x0 KECCAK256 ADD SLOAD SWAP1 POP SWAP3 SWAP2 POP POP JUMP JUMPDEST PUSH1 0x6 SLOAD DUP2 JUMP JUMPDEST PUSH1 0x0 DUP2 PUSH1 0x0 PUSH1 0xD PUSH1 0x0 DUP4 DUP2 MSTORE PUSH1 0x20 ADD SWAP1 DUP2 MSTORE PUSH1 0x20 ADD PUSH1 0x0 KECCAK256 PUSH1 0x5 ADD SLOAD GT ISZERO DUP1 PUSH2 0x161C JUMPI POP PUSH1 0x0 PUSH1 0xD PUSH1 0x0 DUP4 DUP2 MSTORE PUSH1 0x20 ADD SWAP1 DUP2 MSTORE PUSH1 0x20 ADD PUSH1 0x0 KECCAK256 PUSH1 0x6 ADD SLOAD GT ISZERO JUMPDEST ISZERO PUSH2 0x165C JUMPI PUSH1 0x40 MLOAD PUSH32 0x8C379A000000000000000000000000000000000000000000000000000000000 DUP2 MSTORE PUSH1 0x4 ADD PUSH2 0x1653 SWAP1 PUSH2 0x41C1 JUMP JUMPDEST PUSH1 0x40 MLOAD DUP1 SWAP2 SUB SWAP1 REVERT JUMPDEST PUSH1 0xD PUSH1 0x0 DUP3 DUP2 MSTORE PUSH1 0x20 ADD SWAP1 DUP2 MSTORE PUSH1 0x20 ADD PUSH1 0x0 KECCAK256 PUSH1 0x6 ADD SLOAD PUSH1 0xD PUSH1 0x0 DUP4 DUP2 MSTORE PUSH1 0x20 ADD SWAP1 DUP2 MSTORE PUSH1 0x20 ADD PUSH1 0x0 KECCAK256 PUSH1 0x5 ADD SLOAD EQ ISZERO PUSH2 0x16CB JUMPI PUSH1 0x40 MLOAD PUSH32 0x8C379A000000000000000000000000000000000000000000000000000000000 DUP2 MSTORE PUSH1 0x4 ADD PUSH2 0x16C2 SWAP1 PUSH2 0x41C1 JUMP JUMPDEST PUSH1 0x40 MLOAD DUP1 SWAP2 SUB SWAP1 REVERT JUMPDEST PUSH1 0x0 PUSH1 0xD PUSH1 0x0 DUP6 DUP2 MSTORE PUSH1 0x20 ADD SWAP1 DUP2 MSTORE PUSH1 0x20 ADD PUSH1 0x0 KECCAK256 PUSH1 0x5 ADD SLOAD PUSH1 0xD PUSH1 0x0 DUP7 DUP2 MSTORE PUSH1 0x20 ADD SWAP1 DUP2 MSTORE PUSH1 0x20 ADD PUSH1 0x0 KECCAK256 PUSH1 0x6 ADD SLOAD PUSH2 0x1705 SWAP2 SWAP1 PUSH2 0x45DB JUMP JUMPDEST SWAP1 POP PUSH1 0x0 PUSH1 0xD PUSH1 0x0 DUP7 DUP2 MSTORE PUSH1 0x20 ADD SWAP1 DUP2 MSTORE PUSH1 0x20 ADD PUSH1 0x0 KECCAK256 PUSH1 0x1 ADD SLOAD PUSH1 0xD PUSH1 0x0 DUP8 DUP2 MSTORE PUSH1 0x20 ADD SWAP1 DUP2 MSTORE PUSH1 0x20 ADD PUSH1 0x0 KECCAK256 PUSH1 0x2 ADD SLOAD PUSH2 0x1741 SWAP2 SWAP1 PUSH2 0x45DB JUMP JUMPDEST SWAP1 POP PUSH2 0x1779 PUSH1 0x40 MLOAD DUP1 PUSH1 0x20 ADD PUSH1 0x40 MSTORE DUP1 DUP5 PUSH28 0xFFFFFFFFFFFFFFFFFFFFFFFFFFFFFFFFFFFFFFFFFFFFFFFFFFFFFFFF AND DUP2 MSTORE POP DUP3 PUSH2 0x350C JUMP JUMPDEST PUSH1 0x0 ADD MLOAD PUSH28 0xFFFFFFFFFFFFFFFFFFFFFFFFFFFFFFFFFFFFFFFFFFFFFFFFFFFFFFFF AND SWAP4 POP PUSH21 0x6D79F82328EA3DA61E066EBB2F88A000000000000 PUSH1 0x70 DUP6 SWAP1 SHL PUSH2 0x17C2 SWAP2 SWAP1 PUSH2 0x4550 JUMP JUMPDEST PUSH1 0xC SLOAD PUSH1 0x70 DUP7 SWAP1 SHR PUSH2 0x17D4 SWAP2 SWAP1 PUSH2 0x4581 JUMP JUMPDEST PUSH2 0x17DE SWAP2 SWAP1 PUSH2 0x44C9 JUMP JUMPDEST SWAP4 POP POP POP POP SWAP2 SWAP1 POP JUMP JUMPDEST PUSH1 0xA PUSH1 0x0 SWAP1 SLOAD SWAP1 PUSH2 0x100 EXP SWAP1 DIV PUSH20 0xFFFFFFFFFFFFFFFFFFFFFFFFFFFFFFFFFFFFFFFF AND DUP2 JUMP JUMPDEST PUSH1 0x5 SLOAD DUP2 JUMP JUMPDEST PUSH1 0x2 DUP1 DUP2 GT ISZERO PUSH2 0x184D JUMPI PUSH32 0x4E487B7100000000000000000000000000000000000000000000000000000000 PUSH1 0x0 MSTORE PUSH1 0x21 PUSH1 0x4 MSTORE PUSH1 0x24 PUSH1 0x0 REVERT JUMPDEST PUSH1 0xD PUSH1 0x0 DUP4 DUP2 MSTORE PUSH1 0x20 ADD SWAP1 DUP2 MSTORE PUSH1 0x20 ADD PUSH1 0x0 KECCAK256 PUSH1 0x7 ADD PUSH1 0x0 SWAP1 SLOAD SWAP1 PUSH2 0x100 EXP SWAP1 DIV PUSH1 0xFF AND PUSH1 0x2 DUP2 GT ISZERO PUSH2 0x18A9 JUMPI PUSH32 0x4E487B7100000000000000000000000000000000000000000000000000000000 PUSH1 0x0 MSTORE PUSH1 0x21 PUSH1 0x4 MSTORE PUSH1 0x24 PUSH1 0x0 REVERT JUMPDEST EQ PUSH2 0x18E9 JUMPI PUSH1 0x40 MLOAD PUSH32 0x8C379A000000000000000000000000000000000000000000000000000000000 DUP2 MSTORE PUSH1 0x4 ADD PUSH2 0x18E0 SWAP1 PUSH2 0x4261 JUMP JUMPDEST PUSH1 0x40 MLOAD DUP1 SWAP2 SUB SWAP1 REVERT JUMPDEST PUSH1 0x0 PUSH2 0x190A PUSH1 0xD PUSH1 0x0 DUP5 DUP2 MSTORE PUSH1 0x20 ADD SWAP1 DUP2 MSTORE PUSH1 0x20 ADD PUSH1 0x0 KECCAK256 PUSH1 0x3 ADD SLOAD PUSH2 0x20D5 JUMP JUMPDEST SWAP1 POP PUSH1 0x2 DUP1 DUP2 GT ISZERO PUSH2 0x1945 JUMPI PUSH32 0x4E487B7100000000000000000000000000000000000000000000000000000000 PUSH1 0x0 MSTORE PUSH1 0x21 PUSH1 0x4 MSTORE PUSH1 0x24 PUSH1 0x0 REVERT JUMPDEST PUSH1 0xD PUSH1 0x0 DUP5 DUP2 MSTORE PUSH1 0x20 ADD SWAP1 DUP2 MSTORE PUSH1 0x20 ADD PUSH1 0x0 KECCAK256 PUSH1 0x9 ADD PUSH1 0x0 DUP4 DUP2 MSTORE PUSH1 0x20 ADD SWAP1 DUP2 MSTORE PUSH1 0x20 ADD PUSH1 0x0 KECCAK256 PUSH1 0x3 ADD PUSH1 0x0 SWAP1 SLOAD SWAP1 PUSH2 0x100 EXP SWAP1 DIV PUSH1 0xFF AND PUSH1 0x2 DUP2 GT ISZERO PUSH2 0x19B5 JUMPI PUSH32 0x4E487B7100000000000000000000000000000000000000000000000000000000 PUSH1 0x0 MSTORE PUSH1 0x21 PUSH1 0x4 MSTORE PUSH1 0x24 PUSH1 0x0 REVERT JUMPDEST EQ ISZERO PUSH2 0x19F6 JUMPI PUSH1 0x40 MLOAD PUSH32 0x8C379A000000000000000000000000000000000000000000000000000000000 DUP2 MSTORE PUSH1 0x4 ADD PUSH2 0x19ED SWAP1 PUSH2 0x41E1 JUMP JUMPDEST PUSH1 0x40 MLOAD DUP1 SWAP2 SUB SWAP1 REVERT JUMPDEST CALLER PUSH20 0xFFFFFFFFFFFFFFFFFFFFFFFFFFFFFFFFFFFFFFFF AND PUSH1 0xD PUSH1 0x0 DUP5 DUP2 MSTORE PUSH1 0x20 ADD SWAP1 DUP2 MSTORE PUSH1 0x20 ADD PUSH1 0x0 KECCAK256 PUSH1 0x9 ADD PUSH1 0x0 DUP4 DUP2 MSTORE PUSH1 0x20 ADD SWAP1 DUP2 MSTORE PUSH1 0x20 ADD PUSH1 0x0 KECCAK256 PUSH1 0x1 ADD PUSH1 0x0 SWAP1 SLOAD SWAP1 PUSH2 0x100 EXP SWAP1 DIV PUSH20 0xFFFFFFFFFFFFFFFFFFFFFFFFFFFFFFFFFFFFFFFF AND PUSH20 0xFFFFFFFFFFFFFFFFFFFFFFFFFFFFFFFFFFFFFFFF AND EQ PUSH2 0x1AAE JUMPI PUSH1 0x40 MLOAD PUSH32 0x8C379A000000000000000000000000000000000000000000000000000000000 DUP2 MSTORE PUSH1 0x4 ADD PUSH2 0x1AA5 SWAP1 PUSH2 0x41A1 JUMP JUMPDEST PUSH1 0x40 MLOAD DUP1 SWAP2 SUB SWAP1 REVERT JUMPDEST PUSH1 0x9 PUSH1 0x0 SWAP1 SLOAD SWAP1 PUSH2 0x100 EXP SWAP1 DIV PUSH20 0xFFFFFFFFFFFFFFFFFFFFFFFFFFFFFFFFFFFFFFFF AND PUSH20 0xFFFFFFFFFFFFFFFFFFFFFFFFFFFFFFFFFFFFFFFF AND PUSH4 0xA9059CBB PUSH1 0xD PUSH1 0x0 DUP6 DUP2 MSTORE PUSH1 0x20 ADD SWAP1 DUP2 MSTORE PUSH1 0x20 ADD PUSH1 0x0 KECCAK256 PUSH1 0x9 ADD PUSH1 0x0 DUP5 DUP2 MSTORE PUSH1 0x20 ADD SWAP1 DUP2 MSTORE PUSH1 0x20 ADD PUSH1 0x0 KECCAK256 PUSH1 0x1 ADD PUSH1 0x0 SWAP1 SLOAD SWAP1 PUSH2 0x100 EXP SWAP1 DIV PUSH20 0xFFFFFFFFFFFFFFFFFFFFFFFFFFFFFFFFFFFFFFFF AND PUSH1 0xD PUSH1 0x0 DUP7 DUP2 MSTORE PUSH1 0x20 ADD SWAP1 DUP2 MSTORE PUSH1 0x20 ADD PUSH1 0x0 KECCAK256 PUSH1 0x4 ADD SLOAD PUSH1 0x40 MLOAD DUP4 PUSH4 0xFFFFFFFF AND PUSH1 0xE0 SHL DUP2 MSTORE PUSH1 0x4 ADD PUSH2 0x1B6B SWAP3 SWAP2 SWAP1 PUSH2 0x40C5 JUMP JUMPDEST PUSH1 0x20 PUSH1 0x40 MLOAD DUP1 DUP4 SUB DUP2 PUSH1 0x0 DUP8 DUP1 EXTCODESIZE ISZERO DUP1 ISZERO PUSH2 0x1B85 JUMPI PUSH1 0x0 DUP1 REVERT JUMPDEST POP GAS CALL ISZERO DUP1 ISZERO PUSH2 0x1B99 JUMPI RETURNDATASIZE PUSH1 0x0 DUP1 RETURNDATACOPY RETURNDATASIZE PUSH1 0x0 REVERT JUMPDEST POP POP POP POP PUSH1 0x40 MLOAD RETURNDATASIZE PUSH1 0x1F NOT PUSH1 0x1F DUP3 ADD AND DUP3 ADD DUP1 PUSH1 0x40 MSTORE POP DUP2 ADD SWAP1 PUSH2 0x1BBD SWAP2 SWAP1 PUSH2 0x3B13 JUMP JUMPDEST POP PUSH1 0x2 PUSH1 0xD PUSH1 0x0 DUP5 DUP2 MSTORE PUSH1 0x20 ADD SWAP1 DUP2 MSTORE PUSH1 0x20 ADD PUSH1 0x0 KECCAK256 PUSH1 0x9 ADD PUSH1 0x0 DUP4 DUP2 MSTORE PUSH1 0x20 ADD SWAP1 DUP2 MSTORE PUSH1 0x20 ADD PUSH1 0x0 KECCAK256 PUSH1 0x3 ADD PUSH1 0x0 PUSH2 0x100 EXP DUP2 SLOAD DUP2 PUSH1 0xFF MUL NOT AND SWAP1 DUP4 PUSH1 0x2 DUP2 GT ISZERO PUSH2 0x1C32 JUMPI PUSH32 0x4E487B7100000000000000000000000000000000000000000000000000000000 PUSH1 0x0 MSTORE PUSH1 0x21 PUSH1 0x4 MSTORE PUSH1 0x24 PUSH1 0x0 REVERT JUMPDEST MUL OR SWAP1 SSTORE POP PUSH32 0x683745E9C845F93F11479C3BD6B4E976AC10AC0801152F8286C1CFBAED7A6B40 DUP3 PUSH1 0xD PUSH1 0x0 DUP6 DUP2 MSTORE PUSH1 0x20 ADD SWAP1 DUP2 MSTORE PUSH1 0x20 ADD PUSH1 0x0 KECCAK256 PUSH1 0x9 ADD PUSH1 0x0 DUP5 DUP2 MSTORE PUSH1 0x20 ADD SWAP1 DUP2 MSTORE PUSH1 0x20 ADD PUSH1 0x0 KECCAK256 PUSH1 0x40 MLOAD PUSH2 0x1C8E SWAP3 SWAP2 SWAP1 PUSH2 0x4377 JUMP JUMPDEST PUSH1 0x40 MLOAD DUP1 SWAP2 SUB SWAP1 LOG1 POP POP JUMP JUMPDEST PUSH1 0x2 SLOAD DUP2 JUMP JUMPDEST PUSH1 0x0 PUSH1 0x1 SLOAD DUP3 GT PUSH2 0x1CB5 JUMPI PUSH1 0x1 SLOAD SWAP1 POP PUSH2 0x1CDE JUMP JUMPDEST PUSH1 0x0 SLOAD PUSH1 0x1 SLOAD DUP4 PUSH2 0x1CC6 SWAP2 SWAP1 PUSH2 0x45DB JUMP JUMPDEST PUSH2 0x1CD0 SWAP2 SWAP1 PUSH2 0x4861 JUMP JUMPDEST DUP3 PUSH2 0x1CDB SWAP2 SWAP1 PUSH2 0x45DB JUMP JUMPDEST SWAP1 POP JUMPDEST SWAP2 SWAP1 POP JUMP JUMPDEST PUSH1 0xE PUSH1 0x20 MSTORE DUP2 PUSH1 0x0 MSTORE PUSH1 0x40 PUSH1 0x0 KECCAK256 DUP2 DUP2 SLOAD DUP2 LT PUSH2 0x1CFF JUMPI PUSH1 0x0 DUP1 REVERT JUMPDEST SWAP1 PUSH1 0x0 MSTORE PUSH1 0x20 PUSH1 0x0 KECCAK256 ADD PUSH1 0x0 SWAP2 POP SWAP2 POP POP SLOAD DUP2 JUMP JUMPDEST PUSH2 0x1D1C PUSH2 0x394B JUMP JUMPDEST PUSH1 0xD PUSH1 0x0 DUP5 DUP2 MSTORE PUSH1 0x20 ADD SWAP1 DUP2 MSTORE PUSH1 0x20 ADD PUSH1 0x0 KECCAK256 PUSH1 0x9 ADD PUSH1 0x0 DUP4 DUP2 MSTORE PUSH1 0x20 ADD SWAP1 DUP2 MSTORE PUSH1 0x20 ADD PUSH1 0x0 KECCAK256 PUSH1 0x40 MLOAD DUP1 PUSH1 0x80 ADD PUSH1 0x40 MSTORE SWAP1 DUP2 PUSH1 0x0 DUP3 ADD SLOAD DUP2 MSTORE PUSH1 0x20 ADD PUSH1 0x1 DUP3 ADD PUSH1 0x0 SWAP1 SLOAD SWAP1 PUSH2 0x100 EXP SWAP1 DIV PUSH20 0xFFFFFFFFFFFFFFFFFFFFFFFFFFFFFFFFFFFFFFFF AND PUSH20 0xFFFFFFFFFFFFFFFFFFFFFFFFFFFFFFFFFFFFFFFF AND PUSH20 0xFFFFFFFFFFFFFFFFFFFFFFFFFFFFFFFFFFFFFFFF AND DUP2 MSTORE PUSH1 0x20 ADD PUSH1 0x2 DUP3 ADD SLOAD DUP2 MSTORE PUSH1 0x20 ADD PUSH1 0x3 DUP3 ADD PUSH1 0x0 SWAP1 SLOAD SWAP1 PUSH2 0x100 EXP SWAP1 DIV PUSH1 0xFF AND PUSH1 0x2 DUP2 GT ISZERO PUSH2 0x1E03 JUMPI PUSH32 0x4E487B7100000000000000000000000000000000000000000000000000000000 PUSH1 0x0 MSTORE PUSH1 0x21 PUSH1 0x4 MSTORE PUSH1 0x24 PUSH1 0x0 REVERT JUMPDEST PUSH1 0x2 DUP2 GT ISZERO PUSH2 0x1E3B JUMPI PUSH32 0x4E487B7100000000000000000000000000000000000000000000000000000000 PUSH1 0x0 MSTORE PUSH1 0x21 PUSH1 0x4 MSTORE PUSH1 0x24 PUSH1 0x0 REVERT JUMPDEST DUP2 MSTORE POP POP SWAP1 POP SWAP3 SWAP2 POP POP JUMP JUMPDEST PUSH1 0x8 PUSH1 0x0 SWAP1 SLOAD SWAP1 PUSH2 0x100 EXP SWAP1 DIV PUSH20 0xFFFFFFFFFFFFFFFFFFFFFFFFFFFFFFFFFFFFFFFF AND PUSH20 0xFFFFFFFFFFFFFFFFFFFFFFFFFFFFFFFFFFFFFFFF AND PUSH4 0x8DA5CB5B PUSH1 0x40 MLOAD DUP2 PUSH4 0xFFFFFFFF AND PUSH1 0xE0 SHL DUP2 MSTORE PUSH1 0x4 ADD PUSH1 0x20 PUSH1 0x40 MLOAD DUP1 DUP4 SUB DUP2 DUP7 DUP1 EXTCODESIZE ISZERO DUP1 ISZERO PUSH2 0x1EAF JUMPI PUSH1 0x0 DUP1 REVERT JUMPDEST POP GAS STATICCALL ISZERO DUP1 ISZERO PUSH2 0x1EC3 JUMPI RETURNDATASIZE PUSH1 0x0 DUP1 RETURNDATACOPY RETURNDATASIZE PUSH1 0x0 REVERT JUMPDEST POP POP POP POP PUSH1 0x40 MLOAD RETURNDATASIZE PUSH1 0x1F NOT PUSH1 0x1F DUP3 ADD AND DUP3 ADD DUP1 PUSH1 0x40 MSTORE POP DUP2 ADD SWAP1 PUSH2 0x1EE7 SWAP2 SWAP1 PUSH2 0x3AAE JUMP JUMPDEST PUSH20 0xFFFFFFFFFFFFFFFFFFFFFFFFFFFFFFFFFFFFFFFF AND CALLER PUSH20 0xFFFFFFFFFFFFFFFFFFFFFFFFFFFFFFFFFFFFFFFF AND EQ PUSH2 0x1F54 JUMPI PUSH1 0x40 MLOAD PUSH32 0x8C379A000000000000000000000000000000000000000000000000000000000 DUP2 MSTORE PUSH1 0x4 ADD PUSH2 0x1F4B SWAP1 PUSH2 0x4181 JUMP JUMPDEST PUSH1 0x40 MLOAD DUP1 SWAP2 SUB SWAP1 REVERT JUMPDEST PUSH1 0x9 PUSH1 0x0 SWAP1 SLOAD SWAP1 PUSH2 0x100 EXP SWAP1 DIV PUSH20 0xFFFFFFFFFFFFFFFFFFFFFFFFFFFFFFFFFFFFFFFF AND PUSH20 0xFFFFFFFFFFFFFFFFFFFFFFFFFFFFFFFFFFFFFFFF AND PUSH4 0xA9059CBB PUSH1 0x8 PUSH1 0x0 SWAP1 SLOAD SWAP1 PUSH2 0x100 EXP SWAP1 DIV PUSH20 0xFFFFFFFFFFFFFFFFFFFFFFFFFFFFFFFFFFFFFFFF AND PUSH20 0xFFFFFFFFFFFFFFFFFFFFFFFFFFFFFFFFFFFFFFFF AND PUSH4 0x8DA5CB5B PUSH1 0x40 MLOAD DUP2 PUSH4 0xFFFFFFFF AND PUSH1 0xE0 SHL DUP2 MSTORE PUSH1 0x4 ADD PUSH1 0x20 PUSH1 0x40 MLOAD DUP1 DUP4 SUB DUP2 DUP7 DUP1 EXTCODESIZE ISZERO DUP1 ISZERO PUSH2 0x1FFA JUMPI PUSH1 0x0 DUP1 REVERT JUMPDEST POP GAS STATICCALL ISZERO DUP1 ISZERO PUSH2 0x200E JUMPI RETURNDATASIZE PUSH1 0x0 DUP1 RETURNDATACOPY RETURNDATASIZE PUSH1 0x0 REVERT JUMPDEST POP POP POP POP PUSH1 0x40 MLOAD RETURNDATASIZE PUSH1 0x1F NOT PUSH1 0x1F DUP3 ADD AND DUP3 ADD DUP1 PUSH1 0x40 MSTORE POP DUP2 ADD SWAP1 PUSH2 0x2032 SWAP2 SWAP1 PUSH2 0x3AAE JUMP JUMPDEST DUP4 PUSH1 0x40 MLOAD DUP4 PUSH4 0xFFFFFFFF AND PUSH1 0xE0 SHL DUP2 MSTORE PUSH1 0x4 ADD PUSH2 0x2050 SWAP3 SWAP2 SWAP1 PUSH2 0x40C5 JUMP JUMPDEST PUSH1 0x20 PUSH1 0x40 MLOAD DUP1 DUP4 SUB DUP2 PUSH1 0x0 DUP8 DUP1 EXTCODESIZE ISZERO DUP1 ISZERO PUSH2 0x206A JUMPI PUSH1 0x0 DUP1 REVERT JUMPDEST POP GAS CALL ISZERO DUP1 ISZERO PUSH2 0x207E JUMPI RETURNDATASIZE PUSH1 0x0 DUP1 RETURNDATACOPY RETURNDATASIZE PUSH1 0x0 REVERT JUMPDEST POP POP POP POP PUSH1 0x40 MLOAD RETURNDATASIZE PUSH1 0x1F NOT PUSH1 0x1F DUP3 ADD AND DUP3 ADD DUP1 PUSH1 0x40 MSTORE POP DUP2 ADD SWAP1 PUSH2 0x20A2 SWAP2 SWAP1 PUSH2 0x3B13 JUMP JUMPDEST POP POP JUMP JUMPDEST PUSH1 0x1 SLOAD DUP2 JUMP JUMPDEST PUSH1 0x7 SLOAD DUP2 JUMP JUMPDEST PUSH1 0x0 PUSH1 0xD PUSH1 0x0 DUP4 DUP2 MSTORE PUSH1 0x20 ADD SWAP1 DUP2 MSTORE PUSH1 0x20 ADD PUSH1 0x0 KECCAK256 PUSH1 0x8 ADD DUP1 SLOAD SWAP1 POP SWAP1 POP SWAP2 SWAP1 POP JUMP JUMPDEST PUSH1 0x0 DUP1 DUP3 GT PUSH2 0x20E8 JUMPI PUSH1 0x5 SLOAD SWAP1 POP PUSH2 0x2106 JUMP JUMPDEST PUSH1 0x5 SLOAD PUSH1 0x5 SLOAD DUP4 PUSH2 0x20F9 SWAP2 SWAP1 PUSH2 0x4550 JUMP JUMPDEST PUSH2 0x2103 SWAP2 SWAP1 PUSH2 0x4581 JUMP JUMPDEST SWAP1 POP JUMPDEST SWAP2 SWAP1 POP JUMP JUMPDEST PUSH1 0x0 PUSH1 0xF DUP1 SLOAD SWAP1 POP SWAP1 POP SWAP1 JUMP JUMPDEST PUSH1 0x60 PUSH1 0xE PUSH1 0x0 DUP4 PUSH20 0xFFFFFFFFFFFFFFFFFFFFFFFFFFFFFFFFFFFFFFFF AND PUSH20 0xFFFFFFFFFFFFFFFFFFFFFFFFFFFFFFFFFFFFFFFF AND DUP2 MSTORE PUSH1 0x20 ADD SWAP1 DUP2 MSTORE PUSH1 0x20 ADD PUSH1 0x0 KECCAK256 DUP1 SLOAD DUP1 PUSH1 0x20 MUL PUSH1 0x20 ADD PUSH1 0x40 MLOAD SWAP1 DUP2 ADD PUSH1 0x40 MSTORE DUP1 SWAP3 SWAP2 SWAP1 DUP2 DUP2 MSTORE PUSH1 0x20 ADD DUP3 DUP1 SLOAD DUP1 ISZERO PUSH2 0x21A3 JUMPI PUSH1 0x20 MUL DUP3 ADD SWAP2 SWAP1 PUSH1 0x0 MSTORE PUSH1 0x20 PUSH1 0x0 KECCAK256 SWAP1 JUMPDEST DUP2 SLOAD DUP2 MSTORE PUSH1 0x20 ADD SWAP1 PUSH1 0x1 ADD SWAP1 DUP1 DUP4 GT PUSH2 0x218F JUMPI JUMPDEST POP POP POP POP POP SWAP1 POP SWAP2 SWAP1 POP JUMP JUMPDEST PUSH1 0x0 DUP1 PUSH2 0x21BB TIMESTAMP PUSH2 0x1CA0 JUMP JUMPDEST SWAP1 POP PUSH1 0x3 SLOAD PUSH1 0x0 SLOAD DUP3 PUSH2 0x21CE SWAP2 SWAP1 PUSH2 0x44C9 JUMP JUMPDEST PUSH2 0x21D8 SWAP2 SWAP1 PUSH2 0x45DB JUMP JUMPDEST TIMESTAMP LT ISZERO PUSH2 0x237B JUMPI PUSH2 0x220A PUSH1 0x4 PUSH1 0x0 SWAP1 SLOAD SWAP1 PUSH2 0x100 EXP SWAP1 DIV PUSH20 0xFFFFFFFFFFFFFFFFFFFFFFFFFFFFFFFFFFFFFFFF AND PUSH2 0x35BC JUMP JUMPDEST DUP1 PUSH4 0xFFFFFFFF AND SWAP1 POP PUSH1 0xD PUSH1 0x0 DUP6 DUP2 MSTORE PUSH1 0x20 ADD SWAP1 DUP2 MSTORE PUSH1 0x20 ADD PUSH1 0x0 KECCAK256 PUSH1 0x5 ADD PUSH1 0x0 PUSH1 0xD PUSH1 0x0 DUP8 DUP2 MSTORE PUSH1 0x20 ADD SWAP1 DUP2 MSTORE PUSH1 0x20 ADD PUSH1 0x0 KECCAK256 PUSH1 0x1 ADD PUSH1 0x0 DUP5 SWAP2 SWAP1 POP SSTORE DUP4 SWAP7 POP DUP5 SWAP2 SWAP1 POP SSTORE POP POP POP PUSH2 0x227E PUSH1 0x4 PUSH1 0x0 SWAP1 SLOAD SWAP1 PUSH2 0x100 EXP SWAP1 DIV PUSH20 0xFFFFFFFFFFFFFFFFFFFFFFFFFFFFFFFFFFFFFFFF AND PUSH2 0x35BC JUMP JUMPDEST DUP1 PUSH4 0xFFFFFFFF AND SWAP1 POP PUSH1 0xD PUSH1 0x0 DUP6 DUP2 MSTORE PUSH1 0x20 ADD SWAP1 DUP2 MSTORE PUSH1 0x20 ADD PUSH1 0x0 KECCAK256 PUSH1 0x6 ADD PUSH1 0x0 PUSH1 0xD PUSH1 0x0 DUP8 DUP2 MSTORE PUSH1 0x20 ADD SWAP1 DUP2 MSTORE PUSH1 0x20 ADD PUSH1 0x0 KECCAK256 PUSH1 0x2 ADD PUSH1 0x0 DUP5 SWAP2 SWAP1 POP SSTORE DUP4 SWAP7 POP DUP5 SWAP2 SWAP1 POP SSTORE POP POP POP PUSH32 0xE6A0E14A3E5E37F98AC3964D96CE45521656B05DDF148D5EEBD48C38675D6D7 DUP2 PUSH1 0xD PUSH1 0x0 DUP5 DUP2 MSTORE PUSH1 0x20 ADD SWAP1 DUP2 MSTORE PUSH1 0x20 ADD PUSH1 0x0 KECCAK256 PUSH1 0x1 ADD SLOAD PUSH1 0xD PUSH1 0x0 DUP6 DUP2 MSTORE PUSH1 0x20 ADD SWAP1 DUP2 MSTORE PUSH1 0x20 ADD PUSH1 0x0 KECCAK256 PUSH1 0x2 ADD SLOAD PUSH1 0xD PUSH1 0x0 DUP7 DUP2 MSTORE PUSH1 0x20 ADD SWAP1 DUP2 MSTORE PUSH1 0x20 ADD PUSH1 0x0 KECCAK256 PUSH1 0x5 ADD SLOAD PUSH1 0xD PUSH1 0x0 DUP8 DUP2 MSTORE PUSH1 0x20 ADD SWAP1 DUP2 MSTORE PUSH1 0x20 ADD PUSH1 0x0 KECCAK256 PUSH1 0x6 ADD SLOAD PUSH1 0xD PUSH1 0x0 DUP9 DUP2 MSTORE PUSH1 0x20 ADD SWAP1 DUP2 MSTORE PUSH1 0x20 ADD PUSH1 0x0 KECCAK256 PUSH1 0x4 ADD SLOAD PUSH1 0x40 MLOAD PUSH2 0x236E SWAP7 SWAP6 SWAP5 SWAP4 SWAP3 SWAP2 SWAP1 PUSH2 0x43A0 JUMP JUMPDEST PUSH1 0x40 MLOAD DUP1 SWAP2 SUB SWAP1 LOG1 PUSH2 0x24C1 JUMP JUMPDEST PUSH1 0x3 SLOAD PUSH1 0x0 SLOAD DUP3 PUSH2 0x238C SWAP2 SWAP1 PUSH2 0x44C9 JUMP JUMPDEST PUSH2 0x2396 SWAP2 SWAP1 PUSH2 0x45DB JUMP JUMPDEST TIMESTAMP LT PUSH2 0x24C0 JUMPI PUSH2 0x23C7 PUSH1 0x4 PUSH1 0x0 SWAP1 SLOAD SWAP1 PUSH2 0x100 EXP SWAP1 DIV PUSH20 0xFFFFFFFFFFFFFFFFFFFFFFFFFFFFFFFFFFFFFFFF AND PUSH2 0x35BC JUMP JUMPDEST DUP1 PUSH4 0xFFFFFFFF AND SWAP1 POP PUSH1 0xD PUSH1 0x0 DUP6 DUP2 MSTORE PUSH1 0x20 ADD SWAP1 DUP2 MSTORE PUSH1 0x20 ADD PUSH1 0x0 KECCAK256 PUSH1 0x6 ADD PUSH1 0x0 PUSH1 0xD PUSH1 0x0 DUP8 DUP2 MSTORE PUSH1 0x20 ADD SWAP1 DUP2 MSTORE PUSH1 0x20 ADD PUSH1 0x0 KECCAK256 PUSH1 0x2 ADD PUSH1 0x0 DUP5 SWAP2 SWAP1 POP SSTORE DUP4 SWAP7 POP DUP5 SWAP2 SWAP1 POP SSTORE POP POP POP PUSH32 0xE6A0E14A3E5E37F98AC3964D96CE45521656B05DDF148D5EEBD48C38675D6D7 DUP2 PUSH1 0xD PUSH1 0x0 DUP5 DUP2 MSTORE PUSH1 0x20 ADD SWAP1 DUP2 MSTORE PUSH1 0x20 ADD PUSH1 0x0 KECCAK256 PUSH1 0x1 ADD SLOAD PUSH1 0xD PUSH1 0x0 DUP6 DUP2 MSTORE PUSH1 0x20 ADD SWAP1 DUP2 MSTORE PUSH1 0x20 ADD PUSH1 0x0 KECCAK256 PUSH1 0x2 ADD SLOAD PUSH1 0xD PUSH1 0x0 DUP7 DUP2 MSTORE PUSH1 0x20 ADD SWAP1 DUP2 MSTORE PUSH1 0x20 ADD PUSH1 0x0 KECCAK256 PUSH1 0x5 ADD SLOAD PUSH1 0xD PUSH1 0x0 DUP8 DUP2 MSTORE PUSH1 0x20 ADD SWAP1 DUP2 MSTORE PUSH1 0x20 ADD PUSH1 0x0 KECCAK256 PUSH1 0x6 ADD SLOAD PUSH1 0xD PUSH1 0x0 DUP9 DUP2 MSTORE PUSH1 0x20 ADD SWAP1 DUP2 MSTORE PUSH1 0x20 ADD PUSH1 0x0 KECCAK256 PUSH1 0x4 ADD SLOAD PUSH1 0x40 MLOAD PUSH2 0x24B7 SWAP7 SWAP6 SWAP5 SWAP4 SWAP3 SWAP2 SWAP1 PUSH2 0x43A0 JUMP JUMPDEST PUSH1 0x40 MLOAD DUP1 SWAP2 SUB SWAP1 LOG1 JUMPDEST JUMPDEST POP POP JUMP JUMPDEST PUSH1 0xD PUSH1 0x20 MSTORE DUP1 PUSH1 0x0 MSTORE PUSH1 0x40 PUSH1 0x0 KECCAK256 PUSH1 0x0 SWAP2 POP SWAP1 POP DUP1 PUSH1 0x0 ADD SLOAD SWAP1 DUP1 PUSH1 0x1 ADD SLOAD SWAP1 DUP1 PUSH1 0x2 ADD SLOAD SWAP1 DUP1 PUSH1 0x3 ADD SLOAD SWAP1 DUP1 PUSH1 0x4 ADD SLOAD SWAP1 DUP1 PUSH1 0x5 ADD SLOAD SWAP1 DUP1 PUSH1 0x6 ADD SLOAD SWAP1 DUP1 PUSH1 0x7 ADD PUSH1 0x0 SWAP1 SLOAD SWAP1 PUSH2 0x100 EXP SWAP1 DIV PUSH1 0xFF AND SWAP1 POP DUP9 JUMP JUMPDEST PUSH1 0x0 DUP1 PUSH2 0x2526 DUP6 PUSH2 0x1CA0 JUMP JUMPDEST SWAP1 POP PUSH2 0x2531 TIMESTAMP PUSH2 0x1CA0 JUMP JUMPDEST DUP2 LT ISZERO PUSH2 0x2573 JUMPI PUSH1 0x40 MLOAD PUSH32 0x8C379A000000000000000000000000000000000000000000000000000000000 DUP2 MSTORE PUSH1 0x4 ADD PUSH2 0x256A SWAP1 PUSH2 0x4221 JUMP JUMPDEST PUSH1 0x40 MLOAD DUP1 SWAP2 SUB SWAP1 REVERT JUMPDEST PUSH1 0x0 PUSH2 0x257E DUP6 PUSH2 0x20D5 JUMP JUMPDEST SWAP1 POP PUSH1 0x0 PUSH2 0x258C DUP4 DUP7 PUSH2 0x2BF9 JUMP JUMPDEST SWAP1 POP DUP1 PUSH1 0xD PUSH1 0x0 DUP6 DUP2 MSTORE PUSH1 0x20 ADD SWAP1 DUP2 MSTORE PUSH1 0x20 ADD PUSH1 0x0 KECCAK256 PUSH1 0x9 ADD PUSH1 0x0 DUP5 DUP2 MSTORE PUSH1 0x20 ADD SWAP1 DUP2 MSTORE PUSH1 0x20 ADD PUSH1 0x0 KECCAK256 PUSH1 0x2 ADD SLOAD PUSH2 0x25C4 SWAP2 SWAP1 PUSH2 0x44C9 JUMP JUMPDEST SWAP4 POP POP POP POP SWAP4 SWAP3 POP POP POP JUMP JUMPDEST PUSH2 0x25D9 DUP2 PUSH2 0x2CCC JUMP JUMPDEST PUSH2 0x25E2 DUP2 PUSH2 0x1814 JUMP JUMPDEST POP JUMP JUMPDEST DUP1 PUSH1 0x0 PUSH3 0x186A0 PUSH1 0x7 SLOAD DUP4 PUSH2 0x25FA SWAP2 SWAP1 PUSH2 0x4581 JUMP JUMPDEST PUSH2 0x2604 SWAP2 SWAP1 PUSH2 0x4550 JUMP JUMPDEST SWAP1 POP PUSH1 0xB SLOAD DUP2 LT ISZERO PUSH2 0x264B JUMPI PUSH1 0x40 MLOAD PUSH32 0x8C379A000000000000000000000000000000000000000000000000000000000 DUP2 MSTORE PUSH1 0x4 ADD PUSH2 0x2642 SWAP1 PUSH2 0x4201 JUMP JUMPDEST PUSH1 0x40 MLOAD DUP1 SWAP2 SUB SWAP1 REVERT JUMPDEST PUSH1 0x0 PUSH2 0x2656 DUP7 PUSH2 0x7BF JUMP JUMPDEST SWAP1 POP PUSH1 0x0 PUSH2 0x2664 DUP3 DUP8 PUSH2 0x3370 JUMP JUMPDEST SWAP1 POP CALLER PUSH20 0xFFFFFFFFFFFFFFFFFFFFFFFFFFFFFFFFFFFFFFFF AND PUSH1 0xD PUSH1 0x0 DUP5 DUP2 MSTORE PUSH1 0x20 ADD SWAP1 DUP2 MSTORE PUSH1 0x20 ADD PUSH1 0x0 KECCAK256 PUSH1 0x9 ADD PUSH1 0x0 DUP4 DUP2 MSTORE PUSH1 0x20 ADD SWAP1 DUP2 MSTORE PUSH1 0x20 ADD PUSH1 0x0 KECCAK256 PUSH1 0x1 ADD PUSH1 0x0 SWAP1 SLOAD SWAP1 PUSH2 0x100 EXP SWAP1 DIV PUSH20 0xFFFFFFFFFFFFFFFFFFFFFFFFFFFFFFFFFFFFFFFF AND PUSH20 0xFFFFFFFFFFFFFFFFFFFFFFFFFFFFFFFFFFFFFFFF AND EQ PUSH2 0x271E JUMPI PUSH1 0x40 MLOAD PUSH32 0x8C379A000000000000000000000000000000000000000000000000000000000 DUP2 MSTORE PUSH1 0x4 ADD PUSH2 0x2715 SWAP1 PUSH2 0x4241 JUMP JUMPDEST PUSH1 0x40 MLOAD DUP1 SWAP2 SUB SWAP1 REVERT JUMPDEST PUSH2 0x2727 TIMESTAMP PUSH2 0x1CA0 JUMP JUMPDEST DUP3 LT ISZERO PUSH2 0x2769 JUMPI PUSH1 0x40 MLOAD PUSH32 0x8C379A000000000000000000000000000000000000000000000000000000000 DUP2 MSTORE PUSH1 0x4 ADD PUSH2 0x2760 SWAP1 PUSH2 0x4281 JUMP JUMPDEST PUSH1 0x40 MLOAD DUP1 SWAP2 SUB SWAP1 REVERT JUMPDEST PUSH1 0x0 PUSH2 0x2775 DUP4 DUP8 PUSH2 0x2BF9 JUMP JUMPDEST SWAP1 POP PUSH1 0x0 PUSH2 0x27AD DUP5 PUSH1 0xD PUSH1 0x0 DUP8 DUP2 MSTORE PUSH1 0x20 ADD SWAP1 DUP2 MSTORE PUSH1 0x20 ADD PUSH1 0x0 KECCAK256 PUSH1 0x9 ADD PUSH1 0x0 DUP7 DUP2 MSTORE PUSH1 0x20 ADD SWAP1 DUP2 MSTORE PUSH1 0x20 ADD PUSH1 0x0 KECCAK256 PUSH1 0x2 ADD SLOAD PUSH2 0x2BF9 JUMP JUMPDEST SWAP1 POP DUP1 DUP3 GT ISZERO PUSH2 0x29BA JUMPI DUP1 DUP3 PUSH2 0x27C3 SWAP2 SWAP1 PUSH2 0x45DB JUMP JUMPDEST PUSH1 0x9 PUSH1 0x0 SWAP1 SLOAD SWAP1 PUSH2 0x100 EXP SWAP1 DIV PUSH20 0xFFFFFFFFFFFFFFFFFFFFFFFFFFFFFFFFFFFFFFFF AND PUSH20 0xFFFFFFFFFFFFFFFFFFFFFFFFFFFFFFFFFFFFFFFF AND PUSH4 0xDD62ED3E CALLER ADDRESS PUSH1 0x40 MLOAD DUP4 PUSH4 0xFFFFFFFF AND PUSH1 0xE0 SHL DUP2 MSTORE PUSH1 0x4 ADD PUSH2 0x2820 SWAP3 SWAP2 SWAP1 PUSH2 0x4065 JUMP JUMPDEST PUSH1 0x20 PUSH1 0x40 MLOAD DUP1 DUP4 SUB DUP2 DUP7 DUP1 EXTCODESIZE ISZERO DUP1 ISZERO PUSH2 0x2838 JUMPI PUSH1 0x0 DUP1 REVERT JUMPDEST POP GAS STATICCALL ISZERO DUP1 ISZERO PUSH2 0x284C JUMPI RETURNDATASIZE PUSH1 0x0 DUP1 RETURNDATACOPY RETURNDATASIZE PUSH1 0x0 REVERT JUMPDEST POP POP POP POP PUSH1 0x40 MLOAD RETURNDATASIZE PUSH1 0x1F NOT PUSH1 0x1F DUP3 ADD AND DUP3 ADD DUP1 PUSH1 0x40 MSTORE POP DUP2 ADD SWAP1 PUSH2 0x2870 SWAP2 SWAP1 PUSH2 0x3BB4 JUMP JUMPDEST LT ISZERO PUSH2 0x28B1 JUMPI PUSH1 0x40 MLOAD PUSH32 0x8C379A000000000000000000000000000000000000000000000000000000000 DUP2 MSTORE PUSH1 0x4 ADD PUSH2 0x28A8 SWAP1 PUSH2 0x42C1 JUMP JUMPDEST PUSH1 0x40 MLOAD DUP1 SWAP2 SUB SWAP1 REVERT JUMPDEST PUSH1 0x9 PUSH1 0x0 SWAP1 SLOAD SWAP1 PUSH2 0x100 EXP SWAP1 DIV PUSH20 0xFFFFFFFFFFFFFFFFFFFFFFFFFFFFFFFFFFFFFFFF AND PUSH20 0xFFFFFFFFFFFFFFFFFFFFFFFFFFFFFFFFFFFFFFFF AND PUSH4 0x23B872DD CALLER ADDRESS DUP5 DUP7 PUSH2 0x28FD SWAP2 SWAP1 PUSH2 0x45DB JUMP JUMPDEST PUSH1 0x40 MLOAD DUP5 PUSH4 0xFFFFFFFF AND PUSH1 0xE0 SHL DUP2 MSTORE PUSH1 0x4 ADD PUSH2 0x291B SWAP4 SWAP3 SWAP2 SWAP1 PUSH2 0x408E JUMP JUMPDEST PUSH1 0x20 PUSH1 0x40 MLOAD DUP1 DUP4 SUB DUP2 PUSH1 0x0 DUP8 DUP1 EXTCODESIZE ISZERO DUP1 ISZERO PUSH2 0x2935 JUMPI PUSH1 0x0 DUP1 REVERT JUMPDEST POP GAS CALL ISZERO DUP1 ISZERO PUSH2 0x2949 JUMPI RETURNDATASIZE PUSH1 0x0 DUP1 RETURNDATACOPY RETURNDATASIZE PUSH1 0x0 REVERT JUMPDEST POP POP POP POP PUSH1 0x40 MLOAD RETURNDATASIZE PUSH1 0x1F NOT PUSH1 0x1F DUP3 ADD AND DUP3 ADD DUP1 PUSH1 0x40 MSTORE POP DUP2 ADD SWAP1 PUSH2 0x296D SWAP2 SWAP1 PUSH2 0x3B13 JUMP JUMPDEST POP DUP1 DUP3 PUSH2 0x297A SWAP2 SWAP1 PUSH2 0x45DB JUMP JUMPDEST PUSH1 0xD PUSH1 0x0 DUP7 DUP2 MSTORE PUSH1 0x20 ADD SWAP1 DUP2 MSTORE PUSH1 0x20 ADD PUSH1 0x0 KECCAK256 PUSH1 0x4 ADD SLOAD PUSH2 0x299B SWAP2 SWAP1 PUSH2 0x44C9 JUMP JUMPDEST PUSH1 0xD PUSH1 0x0 DUP7 DUP2 MSTORE PUSH1 0x20 ADD SWAP1 DUP2 MSTORE PUSH1 0x20 ADD PUSH1 0x0 KECCAK256 PUSH1 0x4 ADD DUP2 SWAP1 SSTORE POP PUSH2 0x2AC6 JUMP JUMPDEST DUP1 DUP3 LT ISZERO PUSH2 0x2AC5 JUMPI PUSH1 0x9 PUSH1 0x0 SWAP1 SLOAD SWAP1 PUSH2 0x100 EXP SWAP1 DIV PUSH20 0xFFFFFFFFFFFFFFFFFFFFFFFFFFFFFFFFFFFFFFFF AND PUSH20 0xFFFFFFFFFFFFFFFFFFFFFFFFFFFFFFFFFFFFFFFF AND PUSH4 0xA9059CBB CALLER DUP5 DUP5 PUSH2 0x2A0D SWAP2 SWAP1 PUSH2 0x45DB JUMP JUMPDEST PUSH1 0x40 MLOAD DUP4 PUSH4 0xFFFFFFFF AND PUSH1 0xE0 SHL DUP2 MSTORE PUSH1 0x4 ADD PUSH2 0x2A2A SWAP3 SWAP2 SWAP1 PUSH2 0x40C5 JUMP JUMPDEST PUSH1 0x20 PUSH1 0x40 MLOAD DUP1 DUP4 SUB DUP2 PUSH1 0x0 DUP8 DUP1 EXTCODESIZE ISZERO DUP1 ISZERO PUSH2 0x2A44 JUMPI PUSH1 0x0 DUP1 REVERT JUMPDEST POP GAS CALL ISZERO DUP1 ISZERO PUSH2 0x2A58 JUMPI RETURNDATASIZE PUSH1 0x0 DUP1 RETURNDATACOPY RETURNDATASIZE PUSH1 0x0 REVERT JUMPDEST POP POP POP POP PUSH1 0x40 MLOAD RETURNDATASIZE PUSH1 0x1F NOT PUSH1 0x1F DUP3 ADD AND DUP3 ADD DUP1 PUSH1 0x40 MSTORE POP DUP2 ADD SWAP1 PUSH2 0x2A7C SWAP2 SWAP1 PUSH2 0x3B13 JUMP JUMPDEST POP DUP2 DUP2 PUSH2 0x2A89 SWAP2 SWAP1 PUSH2 0x45DB JUMP JUMPDEST PUSH1 0xD PUSH1 0x0 DUP7 DUP2 MSTORE PUSH1 0x20 ADD SWAP1 DUP2 MSTORE PUSH1 0x20 ADD PUSH1 0x0 KECCAK256 PUSH1 0x4 ADD SLOAD PUSH2 0x2AAA SWAP2 SWAP1 PUSH2 0x45DB JUMP JUMPDEST PUSH1 0xD PUSH1 0x0 DUP7 DUP2 MSTORE PUSH1 0x20 ADD SWAP1 DUP2 MSTORE PUSH1 0x20 ADD PUSH1 0x0 KECCAK256 PUSH1 0x4 ADD DUP2 SWAP1 SSTORE POP JUMPDEST JUMPDEST DUP7 PUSH1 0xD PUSH1 0x0 DUP7 DUP2 MSTORE PUSH1 0x20 ADD SWAP1 DUP2 MSTORE PUSH1 0x20 ADD PUSH1 0x0 KECCAK256 PUSH1 0x9 ADD PUSH1 0x0 DUP6 DUP2 MSTORE PUSH1 0x20 ADD SWAP1 DUP2 MSTORE PUSH1 0x20 ADD PUSH1 0x0 KECCAK256 PUSH1 0x2 ADD DUP2 SWAP1 SSTORE POP PUSH2 0x2AFD PUSH2 0x21AF JUMP JUMPDEST PUSH32 0x683745E9C845F93F11479C3BD6B4E976AC10AC0801152F8286C1CFBAED7A6B40 DUP5 PUSH1 0xD PUSH1 0x0 DUP8 DUP2 MSTORE PUSH1 0x20 ADD SWAP1 DUP2 MSTORE PUSH1 0x20 ADD PUSH1 0x0 KECCAK256 PUSH1 0x9 ADD PUSH1 0x0 DUP7 DUP2 MSTORE PUSH1 0x20 ADD SWAP1 DUP2 MSTORE PUSH1 0x20 ADD PUSH1 0x0 KECCAK256 PUSH1 0x40 MLOAD PUSH2 0x2B54 SWAP3 SWAP2 SWAP1 PUSH2 0x4377 JUMP JUMPDEST PUSH1 0x40 MLOAD DUP1 SWAP2 SUB SWAP1 LOG1 POP POP POP POP POP POP POP POP POP JUMP JUMPDEST PUSH1 0x8 PUSH1 0x0 SWAP1 SLOAD SWAP1 PUSH2 0x100 EXP SWAP1 DIV PUSH20 0xFFFFFFFFFFFFFFFFFFFFFFFFFFFFFFFFFFFFFFFF AND DUP2 JUMP JUMPDEST PUSH1 0x4 PUSH1 0x0 SWAP1 SLOAD SWAP1 PUSH2 0x100 EXP SWAP1 DIV PUSH20 0xFFFFFFFFFFFFFFFFFFFFFFFFFFFFFFFFFFFFFFFF AND DUP2 JUMP JUMPDEST PUSH1 0x0 PUSH1 0xD PUSH1 0x0 DUP4 DUP2 MSTORE PUSH1 0x20 ADD SWAP1 DUP2 MSTORE PUSH1 0x20 ADD PUSH1 0x0 KECCAK256 PUSH1 0x4 ADD SLOAD SWAP1 POP SWAP2 SWAP1 POP JUMP JUMPDEST PUSH1 0x9 PUSH1 0x0 SWAP1 SLOAD SWAP1 PUSH2 0x100 EXP SWAP1 DIV PUSH20 0xFFFFFFFFFFFFFFFFFFFFFFFFFFFFFFFFFFFFFFFF AND DUP2 JUMP JUMPDEST PUSH1 0x0 DUP1 TIMESTAMP PUSH1 0x0 SLOAD PUSH2 0x2C09 TIMESTAMP PUSH2 0x1CA0 JUMP JUMPDEST PUSH2 0x2C13 SWAP2 SWAP1 PUSH2 0x44C9 JUMP JUMPDEST PUSH2 0x2C1D SWAP2 SWAP1 PUSH2 0x45DB JUMP JUMPDEST SWAP1 POP PUSH1 0x0 DUP1 SLOAD DUP3 PUSH1 0xC SLOAD PUSH2 0x2C31 SWAP2 SWAP1 PUSH2 0x4581 JUMP JUMPDEST PUSH2 0x2C3B SWAP2 SWAP1 PUSH2 0x4550 JUMP JUMPDEST SWAP1 POP PUSH1 0x0 PUSH2 0x2C48 DUP7 PUSH2 0x3817 JUMP JUMPDEST SWAP1 POP DUP1 PUSH3 0x186A0 PUSH1 0x7 SLOAD DUP8 PUSH2 0x2C5D SWAP2 SWAP1 PUSH2 0x4581 JUMP JUMPDEST PUSH2 0x2C67 SWAP2 SWAP1 PUSH2 0x4550 JUMP JUMPDEST PUSH2 0x2C71 SWAP2 SWAP1 PUSH2 0x4581 JUMP JUMPDEST SWAP4 POP PUSH1 0x0 PUSH3 0x186A0 PUSH1 0x7 SLOAD DUP8 PUSH2 0x2C87 SWAP2 SWAP1 PUSH2 0x4581 JUMP JUMPDEST PUSH2 0x2C91 SWAP2 SWAP1 PUSH2 0x4550 JUMP JUMPDEST SWAP1 POP PUSH1 0xC SLOAD DUP4 DUP3 PUSH2 0x2CA2 SWAP2 SWAP1 PUSH2 0x4581 JUMP JUMPDEST PUSH2 0x2CAC SWAP2 SWAP1 PUSH2 0x4550 JUMP JUMPDEST SWAP1 POP DUP1 DUP6 PUSH2 0x2CBA SWAP2 SWAP1 PUSH2 0x44C9 JUMP JUMPDEST SWAP5 POP POP POP POP POP SWAP3 SWAP2 POP POP JUMP JUMPDEST PUSH1 0x0 SLOAD DUP2 JUMP JUMPDEST DUP1 PUSH1 0x0 PUSH1 0xD PUSH1 0x0 DUP4 DUP2 MSTORE PUSH1 0x20 ADD SWAP1 DUP2 MSTORE PUSH1 0x20 ADD PUSH1 0x0 KECCAK256 PUSH1 0x5 ADD SLOAD GT ISZERO DUP1 PUSH2 0x2D0A JUMPI POP PUSH1 0x0 PUSH1 0xD PUSH1 0x0 DUP4 DUP2 MSTORE PUSH1 0x20 ADD SWAP1 DUP2 MSTORE PUSH1 0x20 ADD PUSH1 0x0 KECCAK256 PUSH1 0x6 ADD SLOAD GT ISZERO JUMPDEST ISZERO PUSH2 0x2D4A JUMPI PUSH1 0x40 MLOAD PUSH32 0x8C379A000000000000000000000000000000000000000000000000000000000 DUP2 MSTORE PUSH1 0x4 ADD PUSH2 0x2D41 SWAP1 PUSH2 0x41C1 JUMP JUMPDEST PUSH1 0x40 MLOAD DUP1 SWAP2 SUB SWAP1 REVERT JUMPDEST PUSH1 0xD PUSH1 0x0 DUP3 DUP2 MSTORE PUSH1 0x20 ADD SWAP1 DUP2 MSTORE PUSH1 0x20 ADD PUSH1 0x0 KECCAK256 PUSH1 0x6 ADD SLOAD PUSH1 0xD PUSH1 0x0 DUP4 DUP2 MSTORE PUSH1 0x20 ADD SWAP1 DUP2 MSTORE PUSH1 0x20 ADD PUSH1 0x0 KECCAK256 PUSH1 0x5 ADD SLOAD EQ ISZERO PUSH2 0x2DB9 JUMPI PUSH1 0x40 MLOAD PUSH32 0x8C379A000000000000000000000000000000000000000000000000000000000 DUP2 MSTORE PUSH1 0x4 ADD PUSH2 0x2DB0 SWAP1 PUSH2 0x41C1 JUMP JUMPDEST PUSH1 0x40 MLOAD DUP1 SWAP2 SUB SWAP1 REVERT JUMPDEST TIMESTAMP PUSH1 0x0 SLOAD DUP4 PUSH2 0x2DC8 SWAP2 SWAP1 PUSH2 0x44C9 JUMP JUMPDEST GT ISZERO PUSH2 0x2E09 JUMPI PUSH1 0x40 MLOAD PUSH32 0x8C379A000000000000000000000000000000000000000000000000000000000 DUP2 MSTORE PUSH1 0x4 ADD PUSH2 0x2E00 SWAP1 PUSH2 0x4161 JUMP JUMPDEST PUSH1 0x40 MLOAD DUP1 SWAP2 SUB SWAP1 REVERT JUMPDEST PUSH1 0x2 PUSH1 0xD PUSH1 0x0 DUP5 DUP2 MSTORE PUSH1 0x20 ADD SWAP1 DUP2 MSTORE PUSH1 0x20 ADD PUSH1 0x0 KECCAK256 PUSH1 0x7 ADD PUSH1 0x0 PUSH2 0x100 EXP DUP2 SLOAD DUP2 PUSH1 0xFF MUL NOT AND SWAP1 DUP4 PUSH1 0x2 DUP2 GT ISZERO PUSH2 0x2E69 JUMPI PUSH32 0x4E487B7100000000000000000000000000000000000000000000000000000000 PUSH1 0x0 MSTORE PUSH1 0x21 PUSH1 0x4 MSTORE PUSH1 0x24 PUSH1 0x0 REVERT JUMPDEST MUL OR SWAP1 SSTORE POP PUSH1 0x0 PUSH1 0xD PUSH1 0x0 DUP5 DUP2 MSTORE PUSH1 0x20 ADD SWAP1 DUP2 MSTORE PUSH1 0x20 ADD PUSH1 0x0 KECCAK256 PUSH1 0x5 ADD SLOAD PUSH1 0xD PUSH1 0x0 DUP6 DUP2 MSTORE PUSH1 0x20 ADD SWAP1 DUP2 MSTORE PUSH1 0x20 ADD PUSH1 0x0 KECCAK256 PUSH1 0x6 ADD SLOAD PUSH2 0x2EA8 SWAP2 SWAP1 PUSH2 0x45DB JUMP JUMPDEST SWAP1 POP PUSH1 0x0 PUSH1 0xD PUSH1 0x0 DUP6 DUP2 MSTORE PUSH1 0x20 ADD SWAP1 DUP2 MSTORE PUSH1 0x20 ADD PUSH1 0x0 KECCAK256 PUSH1 0x1 ADD SLOAD PUSH1 0xD PUSH1 0x0 DUP7 DUP2 MSTORE PUSH1 0x20 ADD SWAP1 DUP2 MSTORE PUSH1 0x20 ADD PUSH1 0x0 KECCAK256 PUSH1 0x2 ADD SLOAD PUSH2 0x2EE4 SWAP2 SWAP1 PUSH2 0x45DB JUMP JUMPDEST SWAP1 POP PUSH2 0x2F1C PUSH1 0x40 MLOAD DUP1 PUSH1 0x20 ADD PUSH1 0x40 MSTORE DUP1 DUP5 PUSH28 0xFFFFFFFFFFFFFFFFFFFFFFFFFFFFFFFFFFFFFFFFFFFFFFFFFFFFFFFF AND DUP2 MSTORE POP DUP3 PUSH2 0x350C JUMP JUMPDEST PUSH1 0x0 ADD MLOAD PUSH28 0xFFFFFFFFFFFFFFFFFFFFFFFFFFFFFFFFFFFFFFFFFFFFFFFFFFFFFFFF AND PUSH1 0xD PUSH1 0x0 DUP7 DUP2 MSTORE PUSH1 0x20 ADD SWAP1 DUP2 MSTORE PUSH1 0x20 ADD PUSH1 0x0 KECCAK256 PUSH1 0x3 ADD DUP2 SWAP1 SSTORE POP PUSH21 0x6D79F82328EA3DA61E066EBB2F88A000000000000 PUSH1 0x70 PUSH1 0xD PUSH1 0x0 DUP8 DUP2 MSTORE PUSH1 0x20 ADD SWAP1 DUP2 MSTORE PUSH1 0x20 ADD PUSH1 0x0 KECCAK256 PUSH1 0x3 ADD SLOAD SWAP1 SHL PUSH2 0x2F93 SWAP2 SWAP1 PUSH2 0x4550 JUMP JUMPDEST PUSH1 0xC SLOAD PUSH1 0x70 PUSH1 0xD PUSH1 0x0 DUP9 DUP2 MSTORE PUSH1 0x20 ADD SWAP1 DUP2 MSTORE PUSH1 0x20 ADD PUSH1 0x0 KECCAK256 PUSH1 0x3 ADD SLOAD SWAP1 SHR PUSH2 0x2FBB SWAP2 SWAP1 PUSH2 0x4581 JUMP JUMPDEST PUSH2 0x2FC5 SWAP2 SWAP1 PUSH2 0x44C9 JUMP JUMPDEST PUSH1 0xD PUSH1 0x0 DUP7 DUP2 MSTORE PUSH1 0x20 ADD SWAP1 DUP2 MSTORE PUSH1 0x20 ADD PUSH1 0x0 KECCAK256 PUSH1 0x3 ADD DUP2 SWAP1 SSTORE POP PUSH1 0x0 PUSH3 0x186A0 PUSH1 0x6 SLOAD PUSH1 0xD PUSH1 0x0 DUP9 DUP2 MSTORE PUSH1 0x20 ADD SWAP1 DUP2 MSTORE PUSH1 0x20 ADD PUSH1 0x0 KECCAK256 PUSH1 0x4 ADD SLOAD PUSH2 0x3009 SWAP2 SWAP1 PUSH2 0x4581 JUMP JUMPDEST PUSH2 0x3013 SWAP2 SWAP1 PUSH2 0x4550 JUMP JUMPDEST SWAP1 POP PUSH1 0x0 PUSH3 0x186A0 PUSH1 0x2 SLOAD PUSH1 0xD PUSH1 0x0 DUP10 DUP2 MSTORE PUSH1 0x20 ADD SWAP1 DUP2 MSTORE PUSH1 0x20 ADD PUSH1 0x0 KECCAK256 PUSH1 0x4 ADD SLOAD PUSH2 0x303F SWAP2 SWAP1 PUSH2 0x4581 JUMP JUMPDEST PUSH2 0x3049 SWAP2 SWAP1 PUSH2 0x4550 JUMP JUMPDEST SWAP1 POP DUP1 DUP3 PUSH1 0xD PUSH1 0x0 DUP10 DUP2 MSTORE PUSH1 0x20 ADD SWAP1 DUP2 MSTORE PUSH1 0x20 ADD PUSH1 0x0 KECCAK256 PUSH1 0x4 ADD SLOAD PUSH2 0x306E SWAP2 SWAP1 PUSH2 0x45DB JUMP JUMPDEST PUSH2 0x3078 SWAP2 SWAP1 PUSH2 0x45DB JUMP JUMPDEST PUSH1 0xD PUSH1 0x0 DUP9 DUP2 MSTORE PUSH1 0x20 ADD SWAP1 DUP2 MSTORE PUSH1 0x20 ADD PUSH1 0x0 KECCAK256 PUSH1 0x4 ADD DUP2 SWAP1 SSTORE POP PUSH1 0x9 PUSH1 0x0 SWAP1 SLOAD SWAP1 PUSH2 0x100 EXP SWAP1 DIV PUSH20 0xFFFFFFFFFFFFFFFFFFFFFFFFFFFFFFFFFFFFFFFF AND PUSH20 0xFFFFFFFFFFFFFFFFFFFFFFFFFFFFFFFFFFFFFFFF AND PUSH4 0xA9059CBB PUSH1 0xA PUSH1 0x0 SWAP1 SLOAD SWAP1 PUSH2 0x100 EXP SWAP1 DIV PUSH20 0xFFFFFFFFFFFFFFFFFFFFFFFFFFFFFFFFFFFFFFFF AND DUP5 PUSH1 0x40 MLOAD DUP4 PUSH4 0xFFFFFFFF AND PUSH1 0xE0 SHL DUP2 MSTORE PUSH1 0x4 ADD PUSH2 0x3111 SWAP3 SWAP2 SWAP1 PUSH2 0x40C5 JUMP JUMPDEST PUSH1 0x20 PUSH1 0x40 MLOAD DUP1 DUP4 SUB DUP2 PUSH1 0x0 DUP8 DUP1 EXTCODESIZE ISZERO DUP1 ISZERO PUSH2 0x312B JUMPI PUSH1 0x0 DUP1 REVERT JUMPDEST POP GAS CALL ISZERO DUP1 ISZERO PUSH2 0x313F JUMPI RETURNDATASIZE PUSH1 0x0 DUP1 RETURNDATACOPY RETURNDATASIZE PUSH1 0x0 REVERT JUMPDEST POP POP POP POP PUSH1 0x40 MLOAD RETURNDATASIZE PUSH1 0x1F NOT PUSH1 0x1F DUP3 ADD AND DUP3 ADD DUP1 PUSH1 0x40 MSTORE POP DUP2 ADD SWAP1 PUSH2 0x3163 SWAP2 SWAP1 PUSH2 0x3B13 JUMP JUMPDEST POP PUSH1 0x9 PUSH1 0x0 SWAP1 SLOAD SWAP1 PUSH2 0x100 EXP SWAP1 DIV PUSH20 0xFFFFFFFFFFFFFFFFFFFFFFFFFFFFFFFFFFFFFFFF AND PUSH20 0xFFFFFFFFFFFFFFFFFFFFFFFFFFFFFFFFFFFFFFFF AND PUSH4 0xA9059CBB PUSH1 0x8 PUSH1 0x0 SWAP1 SLOAD SWAP1 PUSH2 0x100 EXP SWAP1 DIV PUSH20 0xFFFFFFFFFFFFFFFFFFFFFFFFFFFFFFFFFFFFFFFF AND PUSH20 0xFFFFFFFFFFFFFFFFFFFFFFFFFFFFFFFFFFFFFFFF AND PUSH4 0x8DA5CB5B PUSH1 0x40 MLOAD DUP2 PUSH4 0xFFFFFFFF AND PUSH1 0xE0 SHL DUP2 MSTORE PUSH1 0x4 ADD PUSH1 0x20 PUSH1 0x40 MLOAD DUP1 DUP4 SUB DUP2 DUP7 DUP1 EXTCODESIZE ISZERO DUP1 ISZERO PUSH2 0x320A JUMPI PUSH1 0x0 DUP1 REVERT JUMPDEST POP GAS STATICCALL ISZERO DUP1 ISZERO PUSH2 0x321E JUMPI RETURNDATASIZE PUSH1 0x0 DUP1 RETURNDATACOPY RETURNDATASIZE PUSH1 0x0 REVERT JUMPDEST POP POP POP POP PUSH1 0x40 MLOAD RETURNDATASIZE PUSH1 0x1F NOT PUSH1 0x1F DUP3 ADD AND DUP3 ADD DUP1 PUSH1 0x40 MSTORE POP DUP2 ADD SWAP1 PUSH2 0x3242 SWAP2 SWAP1 PUSH2 0x3AAE JUMP JUMPDEST DUP4 PUSH1 0x40 MLOAD DUP4 PUSH4 0xFFFFFFFF AND PUSH1 0xE0 SHL DUP2 MSTORE PUSH1 0x4 ADD PUSH2 0x3260 SWAP3 SWAP2 SWAP1 PUSH2 0x40C5 JUMP JUMPDEST PUSH1 0x20 PUSH1 0x40 MLOAD DUP1 DUP4 SUB DUP2 PUSH1 0x0 DUP8 DUP1 EXTCODESIZE ISZERO DUP1 ISZERO PUSH2 0x327A JUMPI PUSH1 0x0 DUP1 REVERT JUMPDEST POP GAS CALL ISZERO DUP1 ISZERO PUSH2 0x328E JUMPI RETURNDATASIZE PUSH1 0x0 DUP1 RETURNDATACOPY RETURNDATASIZE PUSH1 0x0 REVERT JUMPDEST POP POP POP POP PUSH1 0x40 MLOAD RETURNDATASIZE PUSH1 0x1F NOT PUSH1 0x1F DUP3 ADD AND DUP3 ADD DUP1 PUSH1 0x40 MSTORE POP DUP2 ADD SWAP1 PUSH2 0x32B2 SWAP2 SWAP1 PUSH2 0x3B13 JUMP JUMPDEST POP PUSH32 0xE6A0E14A3E5E37F98AC3964D96CE45521656B05DDF148D5EEBD48C38675D6D7 DUP7 PUSH1 0xD PUSH1 0x0 DUP10 DUP2 MSTORE PUSH1 0x20 ADD SWAP1 DUP2 MSTORE PUSH1 0x20 ADD PUSH1 0x0 KECCAK256 PUSH1 0x1 ADD SLOAD PUSH1 0xD PUSH1 0x0 DUP11 DUP2 MSTORE PUSH1 0x20 ADD SWAP1 DUP2 MSTORE PUSH1 0x20 ADD PUSH1 0x0 KECCAK256 PUSH1 0x2 ADD SLOAD PUSH1 0xD PUSH1 0x0 DUP12 DUP2 MSTORE PUSH1 0x20 ADD SWAP1 DUP2 MSTORE PUSH1 0x20 ADD PUSH1 0x0 KECCAK256 PUSH1 0x5 ADD SLOAD PUSH1 0xD PUSH1 0x0 DUP13 DUP2 MSTORE PUSH1 0x20 ADD SWAP1 DUP2 MSTORE PUSH1 0x20 ADD PUSH1 0x0 KECCAK256 PUSH1 0x6 ADD SLOAD PUSH1 0xD PUSH1 0x0 DUP14 DUP2 MSTORE PUSH1 0x20 ADD SWAP1 DUP2 MSTORE PUSH1 0x20 ADD PUSH1 0x0 KECCAK256 PUSH1 0x4 ADD SLOAD PUSH1 0x40 MLOAD PUSH2 0x335A SWAP7 SWAP6 SWAP5 SWAP4 SWAP3 SWAP2 SWAP1 PUSH2 0x43A0 JUMP JUMPDEST PUSH1 0x40 MLOAD DUP1 SWAP2 SUB SWAP1 LOG1 POP POP POP POP POP POP JUMP JUMPDEST PUSH1 0x3 SLOAD DUP2 JUMP JUMPDEST PUSH1 0x0 DUP1 PUSH2 0x337C DUP4 PUSH2 0x20D5 JUMP JUMPDEST SWAP1 POP PUSH1 0x0 PUSH1 0x2 DUP2 GT ISZERO PUSH2 0x33B8 JUMPI PUSH32 0x4E487B7100000000000000000000000000000000000000000000000000000000 PUSH1 0x0 MSTORE PUSH1 0x21 PUSH1 0x4 MSTORE PUSH1 0x24 PUSH1 0x0 REVERT JUMPDEST PUSH1 0xD PUSH1 0x0 DUP7 DUP2 MSTORE PUSH1 0x20 ADD SWAP1 DUP2 MSTORE PUSH1 0x20 ADD PUSH1 0x0 KECCAK256 PUSH1 0x9 ADD PUSH1 0x0 DUP4 DUP2 MSTORE PUSH1 0x20 ADD SWAP1 DUP2 MSTORE PUSH1 0x20 ADD PUSH1 0x0 KECCAK256 PUSH1 0x3 ADD PUSH1 0x0 SWAP1 SLOAD SWAP1 PUSH2 0x100 EXP SWAP1 DIV PUSH1 0xFF AND PUSH1 0x2 DUP2 GT ISZERO PUSH2 0x3428 JUMPI PUSH32 0x4E487B7100000000000000000000000000000000000000000000000000000000 PUSH1 0x0 MSTORE PUSH1 0x21 PUSH1 0x4 MSTORE PUSH1 0x24 PUSH1 0x0 REVERT JUMPDEST EQ PUSH2 0x3436 JUMPI DUP1 SWAP2 POP POP PUSH2 0x3506 JUMP JUMPDEST DUP1 PUSH1 0xD PUSH1 0x0 DUP7 DUP2 MSTORE PUSH1 0x20 ADD SWAP1 DUP2 MSTORE PUSH1 0x20 ADD PUSH1 0x0 KECCAK256 PUSH1 0x9 ADD PUSH1 0x0 DUP4 DUP2 MSTORE PUSH1 0x20 ADD SWAP1 DUP2 MSTORE PUSH1 0x20 ADD PUSH1 0x0 KECCAK256 PUSH1 0x0 ADD DUP2 SWAP1 SSTORE POP PUSH1 0xD PUSH1 0x0 DUP6 DUP2 MSTORE PUSH1 0x20 ADD SWAP1 DUP2 MSTORE PUSH1 0x20 ADD PUSH1 0x0 KECCAK256 PUSH1 0x8 ADD DUP2 SWAP1 DUP1 PUSH1 0x1 DUP2 SLOAD ADD DUP1 DUP3 SSTORE DUP1 SWAP2 POP POP PUSH1 0x1 SWAP1 SUB SWAP1 PUSH1 0x0 MSTORE PUSH1 0x20 PUSH1 0x0 KECCAK256 ADD PUSH1 0x0 SWAP1 SWAP2 SWAP1 SWAP2 SWAP1 SWAP2 POP SSTORE PUSH32 0x683745E9C845F93F11479C3BD6B4E976AC10AC0801152F8286C1CFBAED7A6B40 DUP5 PUSH1 0xD PUSH1 0x0 DUP8 DUP2 MSTORE PUSH1 0x20 ADD SWAP1 DUP2 MSTORE PUSH1 0x20 ADD PUSH1 0x0 KECCAK256 PUSH1 0x9 ADD PUSH1 0x0 DUP5 DUP2 MSTORE PUSH1 0x20 ADD SWAP1 DUP2 MSTORE PUSH1 0x20 ADD PUSH1 0x0 KECCAK256 PUSH1 0x40 MLOAD PUSH2 0x34F9 SWAP3 SWAP2 SWAP1 PUSH2 0x4377 JUMP JUMPDEST PUSH1 0x40 MLOAD DUP1 SWAP2 SUB SWAP1 LOG1 DUP1 SWAP2 POP POP JUMPDEST SWAP3 SWAP2 POP POP JUMP JUMPDEST PUSH2 0x3514 PUSH2 0x39C1 JUMP JUMPDEST PUSH1 0x0 DUP3 PUSH14 0xFFFFFFFFFFFFFFFFFFFFFFFFFFFF AND EQ ISZERO PUSH2 0x3568 JUMPI PUSH1 0x40 MLOAD PUSH32 0x8C379A000000000000000000000000000000000000000000000000000000000 DUP2 MSTORE PUSH1 0x4 ADD PUSH2 0x355F SWAP1 PUSH2 0x4321 JUMP JUMPDEST PUSH1 0x40 MLOAD DUP1 SWAP2 SUB SWAP1 REVERT JUMPDEST PUSH1 0x40 MLOAD DUP1 PUSH1 0x20 ADD PUSH1 0x40 MSTORE DUP1 DUP4 PUSH14 0xFFFFFFFFFFFFFFFFFFFFFFFFFFFF AND DUP6 PUSH1 0x0 ADD MLOAD PUSH2 0x3593 SWAP2 SWAP1 PUSH2 0x451F JUMP JUMPDEST PUSH28 0xFFFFFFFFFFFFFFFFFFFFFFFFFFFFFFFFFFFFFFFFFFFFFFFFFFFFFFFF AND DUP2 MSTORE POP SWAP1 POP SWAP3 SWAP2 POP POP JUMP JUMPDEST PUSH1 0x0 DUP1 PUSH1 0x0 PUSH2 0x35C9 PUSH2 0x3853 JUMP JUMPDEST SWAP1 POP DUP4 PUSH20 0xFFFFFFFFFFFFFFFFFFFFFFFFFFFFFFFFFFFFFFFF AND PUSH4 0x5909C0D5 PUSH1 0x40 MLOAD DUP2 PUSH4 0xFFFFFFFF AND PUSH1 0xE0 SHL DUP2 MSTORE PUSH1 0x4 ADD PUSH1 0x20 PUSH1 0x40 MLOAD DUP1 DUP4 SUB DUP2 DUP7 DUP1 EXTCODESIZE ISZERO DUP1 ISZERO PUSH2 0x3611 JUMPI PUSH1 0x0 DUP1 REVERT JUMPDEST POP GAS STATICCALL ISZERO DUP1 ISZERO PUSH2 0x3625 JUMPI RETURNDATASIZE PUSH1 0x0 DUP1 RETURNDATACOPY RETURNDATASIZE PUSH1 0x0 REVERT JUMPDEST POP POP POP POP PUSH1 0x40 MLOAD RETURNDATASIZE PUSH1 0x1F NOT PUSH1 0x1F DUP3 ADD AND DUP3 ADD DUP1 PUSH1 0x40 MSTORE POP DUP2 ADD SWAP1 PUSH2 0x3649 SWAP2 SWAP1 PUSH2 0x3BB4 JUMP JUMPDEST SWAP3 POP DUP4 PUSH20 0xFFFFFFFFFFFFFFFFFFFFFFFFFFFFFFFFFFFFFFFF AND PUSH4 0x5A3D5493 PUSH1 0x40 MLOAD DUP2 PUSH4 0xFFFFFFFF AND PUSH1 0xE0 SHL DUP2 MSTORE PUSH1 0x4 ADD PUSH1 0x20 PUSH1 0x40 MLOAD DUP1 DUP4 SUB DUP2 DUP7 DUP1 EXTCODESIZE ISZERO DUP1 ISZERO PUSH2 0x3691 JUMPI PUSH1 0x0 DUP1 REVERT JUMPDEST POP GAS STATICCALL ISZERO DUP1 ISZERO PUSH2 0x36A5 JUMPI RETURNDATASIZE PUSH1 0x0 DUP1 RETURNDATACOPY RETURNDATASIZE PUSH1 0x0 REVERT JUMPDEST POP POP POP POP PUSH1 0x40 MLOAD RETURNDATASIZE PUSH1 0x1F NOT PUSH1 0x1F DUP3 ADD AND DUP3 ADD DUP1 PUSH1 0x40 MSTORE POP DUP2 ADD SWAP1 PUSH2 0x36C9 SWAP2 SWAP1 PUSH2 0x3BB4 JUMP JUMPDEST SWAP2 POP PUSH1 0x0 DUP1 PUSH1 0x0 DUP7 PUSH20 0xFFFFFFFFFFFFFFFFFFFFFFFFFFFFFFFFFFFFFFFF AND PUSH4 0x902F1AC PUSH1 0x40 MLOAD DUP2 PUSH4 0xFFFFFFFF AND PUSH1 0xE0 SHL DUP2 MSTORE PUSH1 0x4 ADD PUSH1 0x60 PUSH1 0x40 MLOAD DUP1 DUP4 SUB DUP2 DUP7 DUP1 EXTCODESIZE ISZERO DUP1 ISZERO PUSH2 0x3716 JUMPI PUSH1 0x0 DUP1 REVERT JUMPDEST POP GAS STATICCALL ISZERO DUP1 ISZERO PUSH2 0x372A JUMPI RETURNDATASIZE PUSH1 0x0 DUP1 RETURNDATACOPY RETURNDATASIZE PUSH1 0x0 REVERT JUMPDEST POP POP POP POP PUSH1 0x40 MLOAD RETURNDATASIZE PUSH1 0x1F NOT PUSH1 0x1F DUP3 ADD AND DUP3 ADD DUP1 PUSH1 0x40 MSTORE POP DUP2 ADD SWAP1 PUSH2 0x374E SWAP2 SWAP1 PUSH2 0x3B3C JUMP JUMPDEST SWAP3 POP SWAP3 POP SWAP3 POP DUP4 PUSH4 0xFFFFFFFF AND DUP2 PUSH4 0xFFFFFFFF AND EQ PUSH2 0x380D JUMPI PUSH1 0x0 DUP2 DUP6 PUSH2 0x3775 SWAP2 SWAP1 PUSH2 0x460F JUMP JUMPDEST SWAP1 POP DUP1 PUSH4 0xFFFFFFFF AND PUSH2 0x3788 DUP5 DUP7 PUSH2 0x386B JUMP JUMPDEST PUSH1 0x0 ADD MLOAD PUSH28 0xFFFFFFFFFFFFFFFFFFFFFFFFFFFFFFFFFFFFFFFFFFFFFFFFFFFFFFFF AND PUSH2 0x37B4 SWAP2 SWAP1 PUSH2 0x4581 JUMP JUMPDEST DUP8 PUSH2 0x37BF SWAP2 SWAP1 PUSH2 0x44C9 JUMP JUMPDEST SWAP7 POP DUP1 PUSH4 0xFFFFFFFF AND PUSH2 0x37D2 DUP6 DUP6 PUSH2 0x386B JUMP JUMPDEST PUSH1 0x0 ADD MLOAD PUSH28 0xFFFFFFFFFFFFFFFFFFFFFFFFFFFFFFFFFFFFFFFFFFFFFFFFFFFFFFFF AND PUSH2 0x37FE SWAP2 SWAP1 PUSH2 0x4581 JUMP JUMPDEST DUP7 PUSH2 0x3809 SWAP2 SWAP1 PUSH2 0x44C9 JUMP JUMPDEST SWAP6 POP POP JUMPDEST POP POP POP SWAP2 SWAP4 SWAP1 SWAP3 POP JUMP JUMPDEST PUSH1 0x0 PUSH2 0x3822 TIMESTAMP PUSH2 0x1CA0 JUMP JUMPDEST DUP3 EQ ISZERO PUSH2 0x3832 JUMPI PUSH1 0x0 SWAP1 POP PUSH2 0x384E JUMP JUMPDEST PUSH1 0x0 SLOAD TIMESTAMP DUP4 PUSH2 0x3841 SWAP2 SWAP1 PUSH2 0x45DB JUMP JUMPDEST PUSH2 0x384B SWAP2 SWAP1 PUSH2 0x4550 JUMP JUMPDEST SWAP1 POP JUMPDEST SWAP2 SWAP1 POP JUMP JUMPDEST PUSH1 0x0 PUSH5 0x100000000 TIMESTAMP PUSH2 0x3866 SWAP2 SWAP1 PUSH2 0x4861 JUMP JUMPDEST SWAP1 POP SWAP1 JUMP JUMPDEST PUSH2 0x3873 PUSH2 0x39C1 JUMP JUMPDEST PUSH1 0x0 DUP3 PUSH14 0xFFFFFFFFFFFFFFFFFFFFFFFFFFFF AND GT PUSH2 0x38C6 JUMPI PUSH1 0x40 MLOAD PUSH32 0x8C379A000000000000000000000000000000000000000000000000000000000 DUP2 MSTORE PUSH1 0x4 ADD PUSH2 0x38BD SWAP1 PUSH2 0x4321 JUMP JUMPDEST PUSH1 0x40 MLOAD DUP1 SWAP2 SUB SWAP1 REVERT JUMPDEST PUSH1 0x40 MLOAD DUP1 PUSH1 0x20 ADD PUSH1 0x40 MSTORE DUP1 DUP4 PUSH14 0xFFFFFFFFFFFFFFFFFFFFFFFFFFFF AND PUSH1 0x70 PUSH1 0xFF AND DUP7 PUSH14 0xFFFFFFFFFFFFFFFFFFFFFFFFFFFF AND PUSH28 0xFFFFFFFFFFFFFFFFFFFFFFFFFFFFFFFFFFFFFFFFFFFFFFFFFFFFFFFF AND SWAP1 SHL PUSH2 0x3922 SWAP2 SWAP1 PUSH2 0x451F JUMP JUMPDEST PUSH28 0xFFFFFFFFFFFFFFFFFFFFFFFFFFFFFFFFFFFFFFFFFFFFFFFFFFFFFFFF AND DUP2 MSTORE POP SWAP1 POP SWAP3 SWAP2 POP POP JUMP JUMPDEST PUSH1 0x40 MLOAD DUP1 PUSH1 0x80 ADD PUSH1 0x40 MSTORE DUP1 PUSH1 0x0 DUP2 MSTORE PUSH1 0x20 ADD PUSH1 0x0 PUSH20 0xFFFFFFFFFFFFFFFFFFFFFFFFFFFFFFFFFFFFFFFF AND DUP2 MSTORE PUSH1 0x20 ADD PUSH1 0x0 DUP2 MSTORE PUSH1 0x20 ADD PUSH1 0x0 PUSH1 0x2 DUP2 GT ISZERO PUSH2 0x39BB JUMPI PUSH32 0x4E487B7100000000000000000000000000000000000000000000000000000000 PUSH1 0x0 MSTORE PUSH1 0x21 PUSH1 0x4 MSTORE PUSH1 0x24 PUSH1 0x0 REVERT JUMPDEST DUP2 MSTORE POP SWAP1 JUMP JUMPDEST PUSH1 0x40 MLOAD DUP1 PUSH1 0x20 ADD PUSH1 0x40 MSTORE DUP1 PUSH1 0x0 PUSH28 0xFFFFFFFFFFFFFFFFFFFFFFFFFFFFFFFFFFFFFFFFFFFFFFFFFFFFFFFF AND DUP2 MSTORE POP SWAP1 JUMP JUMPDEST PUSH1 0x0 DUP2 CALLDATALOAD SWAP1 POP PUSH2 0x3A01 DUP2 PUSH2 0x4BE1 JUMP JUMPDEST SWAP3 SWAP2 POP POP JUMP JUMPDEST PUSH1 0x0 DUP2 MLOAD SWAP1 POP PUSH2 0x3A16 DUP2 PUSH2 0x4BE1 JUMP JUMPDEST SWAP3 SWAP2 POP POP JUMP JUMPDEST PUSH1 0x0 DUP2 MLOAD SWAP1 POP PUSH2 0x3A2B DUP2 PUSH2 0x4BF8 JUMP JUMPDEST SWAP3 SWAP2 POP POP JUMP JUMPDEST PUSH1 0x0 DUP2 MLOAD SWAP1 POP PUSH2 0x3A40 DUP2 PUSH2 0x4C0F JUMP JUMPDEST SWAP3 SWAP2 POP POP JUMP JUMPDEST PUSH1 0x0 DUP2 CALLDATALOAD SWAP1 POP PUSH2 0x3A55 DUP2 PUSH2 0x4C26 JUMP JUMPDEST SWAP3 SWAP2 POP POP JUMP JUMPDEST PUSH1 0x0 DUP2 MLOAD SWAP1 POP PUSH2 0x3A6A DUP2 PUSH2 0x4C26 JUMP JUMPDEST SWAP3 SWAP2 POP POP JUMP JUMPDEST PUSH1 0x0 DUP2 MLOAD SWAP1 POP PUSH2 0x3A7F DUP2 PUSH2 0x4C3D JUMP JUMPDEST SWAP3 SWAP2 POP POP JUMP JUMPDEST PUSH1 0x0 PUSH1 0x20 DUP3 DUP5 SUB SLT ISZERO PUSH2 0x3A97 JUMPI PUSH1 0x0 DUP1 REVERT JUMPDEST PUSH1 0x0 PUSH2 0x3AA5 DUP5 DUP3 DUP6 ADD PUSH2 0x39F2 JUMP JUMPDEST SWAP2 POP POP SWAP3 SWAP2 POP POP JUMP JUMPDEST PUSH1 0x0 PUSH1 0x20 DUP3 DUP5 SUB SLT ISZERO PUSH2 0x3AC0 JUMPI PUSH1 0x0 DUP1 REVERT JUMPDEST PUSH1 0x0 PUSH2 0x3ACE DUP5 DUP3 DUP6 ADD PUSH2 0x3A07 JUMP JUMPDEST SWAP2 POP POP SWAP3 SWAP2 POP POP JUMP JUMPDEST PUSH1 0x0 DUP1 PUSH1 0x40 DUP4 DUP6 SUB SLT ISZERO PUSH2 0x3AEA JUMPI PUSH1 0x0 DUP1 REVERT JUMPDEST PUSH1 0x0 PUSH2 0x3AF8 DUP6 DUP3 DUP7 ADD PUSH2 0x39F2 JUMP JUMPDEST SWAP3 POP POP PUSH1 0x20 PUSH2 0x3B09 DUP6 DUP3 DUP7 ADD PUSH2 0x3A46 JUMP JUMPDEST SWAP2 POP POP SWAP3 POP SWAP3 SWAP1 POP JUMP JUMPDEST PUSH1 0x0 PUSH1 0x20 DUP3 DUP5 SUB SLT ISZERO PUSH2 0x3B25 JUMPI PUSH1 0x0 DUP1 REVERT JUMPDEST PUSH1 0x0 PUSH2 0x3B33 DUP5 DUP3 DUP6 ADD PUSH2 0x3A1C JUMP JUMPDEST SWAP2 POP POP SWAP3 SWAP2 POP POP JUMP JUMPDEST PUSH1 0x0 DUP1 PUSH1 0x0 PUSH1 0x60 DUP5 DUP7 SUB SLT ISZERO PUSH2 0x3B51 JUMPI PUSH1 0x0 DUP1 REVERT JUMPDEST PUSH1 0x0 PUSH2 0x3B5F DUP7 DUP3 DUP8 ADD PUSH2 0x3A31 JUMP JUMPDEST SWAP4 POP POP PUSH1 0x20 PUSH2 0x3B70 DUP7 DUP3 DUP8 ADD PUSH2 0x3A31 JUMP JUMPDEST SWAP3 POP POP PUSH1 0x40 PUSH2 0x3B81 DUP7 DUP3 DUP8 ADD PUSH2 0x3A70 JUMP JUMPDEST SWAP2 POP POP SWAP3 POP SWAP3 POP SWAP3 JUMP JUMPDEST PUSH1 0x0 PUSH1 0x20 DUP3 DUP5 SUB SLT ISZERO PUSH2 0x3B9D JUMPI PUSH1 0x0 DUP1 REVERT JUMPDEST PUSH1 0x0 PUSH2 0x3BAB DUP5 DUP3 DUP6 ADD PUSH2 0x3A46 JUMP JUMPDEST SWAP2 POP POP SWAP3 SWAP2 POP POP JUMP JUMPDEST PUSH1 0x0 PUSH1 0x20 DUP3 DUP5 SUB SLT ISZERO PUSH2 0x3BC6 JUMPI PUSH1 0x0 DUP1 REVERT JUMPDEST PUSH1 0x0 PUSH2 0x3BD4 DUP5 DUP3 DUP6 ADD PUSH2 0x3A5B JUMP JUMPDEST SWAP2 POP POP SWAP3 SWAP2 POP POP JUMP JUMPDEST PUSH1 0x0 DUP1 PUSH1 0x40 DUP4 DUP6 SUB SLT ISZERO PUSH2 0x3BF0 JUMPI PUSH1 0x0 DUP1 REVERT JUMPDEST PUSH1 0x0 PUSH2 0x3BFE DUP6 DUP3 DUP7 ADD PUSH2 0x3A46 JUMP JUMPDEST SWAP3 POP POP PUSH1 0x20 PUSH2 0x3C0F DUP6 DUP3 DUP7 ADD PUSH2 0x3A46 JUMP JUMPDEST SWAP2 POP POP SWAP3 POP SWAP3 SWAP1 POP JUMP JUMPDEST PUSH1 0x0 DUP1 PUSH1 0x0 PUSH1 0x60 DUP5 DUP7 SUB SLT ISZERO PUSH2 0x3C2E JUMPI PUSH1 0x0 DUP1 REVERT JUMPDEST PUSH1 0x0 PUSH2 0x3C3C DUP7 DUP3 DUP8 ADD PUSH2 0x3A46 JUMP JUMPDEST SWAP4 POP POP PUSH1 0x20 PUSH2 0x3C4D DUP7 DUP3 DUP8 ADD PUSH2 0x3A46 JUMP JUMPDEST SWAP3 POP POP PUSH1 0x40 PUSH2 0x3C5E DUP7 DUP3 DUP8 ADD PUSH2 0x3A46 JUMP JUMPDEST SWAP2 POP POP SWAP3 POP SWAP3 POP SWAP3 JUMP JUMPDEST PUSH1 0x0 PUSH2 0x3C74 DUP4 DUP4 PUSH2 0x402C JUMP JUMPDEST PUSH1 0x20 DUP4 ADD SWAP1 POP SWAP3 SWAP2 POP POP JUMP JUMPDEST PUSH2 0x3C89 DUP2 PUSH2 0x467A JUMP JUMPDEST DUP3 MSTORE POP POP JUMP JUMPDEST PUSH2 0x3C98 DUP2 PUSH2 0x467A JUMP JUMPDEST DUP3 MSTORE POP POP JUMP JUMPDEST PUSH1 0x0 PUSH2 0x3CA9 DUP3 PUSH2 0x448F JUMP JUMPDEST PUSH2 0x3CB3 DUP2 DUP6 PUSH2 0x44A7 JUMP JUMPDEST SWAP4 POP PUSH2 0x3CBE DUP4 PUSH2 0x447F JUMP JUMPDEST DUP1 PUSH1 0x0 JUMPDEST DUP4 DUP2 LT ISZERO PUSH2 0x3CEF JUMPI DUP2 MLOAD PUSH2 0x3CD6 DUP9 DUP3 PUSH2 0x3C68 JUMP JUMPDEST SWAP8 POP PUSH2 0x3CE1 DUP4 PUSH2 0x449A JUMP JUMPDEST SWAP3 POP POP PUSH1 0x1 DUP2 ADD SWAP1 POP PUSH2 0x3CC2 JUMP JUMPDEST POP DUP6 SWAP4 POP POP POP POP SWAP3 SWAP2 POP POP JUMP JUMPDEST PUSH2 0x3D05 DUP2 PUSH2 0x473A JUMP JUMPDEST DUP3 MSTORE POP POP JUMP JUMPDEST PUSH2 0x3D14 DUP2 PUSH2 0x475E JUMP JUMPDEST DUP3 MSTORE POP POP JUMP JUMPDEST PUSH2 0x3D23 DUP2 PUSH2 0x4782 JUMP JUMPDEST DUP3 MSTORE POP POP JUMP JUMPDEST PUSH2 0x3D32 DUP2 PUSH2 0x47A6 JUMP JUMPDEST DUP3 MSTORE POP POP JUMP JUMPDEST PUSH2 0x3D41 DUP2 PUSH2 0x47B8 JUMP JUMPDEST DUP3 MSTORE POP POP JUMP JUMPDEST PUSH1 0x0 PUSH2 0x3D54 PUSH1 0x1A DUP4 PUSH2 0x44B8 JUMP JUMPDEST SWAP2 POP PUSH2 0x3D5F DUP3 PUSH2 0x492C JUMP JUMPDEST PUSH1 0x20 DUP3 ADD SWAP1 POP SWAP2 SWAP1 POP JUMP JUMPDEST PUSH1 0x0 PUSH2 0x3D77 PUSH1 0x15 DUP4 PUSH2 0x44B8 JUMP JUMPDEST SWAP2 POP PUSH2 0x3D82 DUP3 PUSH2 0x4955 JUMP JUMPDEST PUSH1 0x20 DUP3 ADD SWAP1 POP SWAP2 SWAP1 POP JUMP JUMPDEST PUSH1 0x0 PUSH2 0x3D9A PUSH1 0x1F DUP4 PUSH2 0x44B8 JUMP JUMPDEST SWAP2 POP PUSH2 0x3DA5 DUP3 PUSH2 0x497E JUMP JUMPDEST PUSH1 0x20 DUP3 ADD SWAP1 POP SWAP2 SWAP1 POP JUMP JUMPDEST PUSH1 0x0 PUSH2 0x3DBD PUSH1 0x13 DUP4 PUSH2 0x44B8 JUMP JUMPDEST SWAP2 POP PUSH2 0x3DC8 DUP3 PUSH2 0x49A7 JUMP JUMPDEST PUSH1 0x20 DUP3 ADD SWAP1 POP SWAP2 SWAP1 POP JUMP JUMPDEST PUSH1 0x0 PUSH2 0x3DE0 PUSH1 0x13 DUP4 PUSH2 0x44B8 JUMP JUMPDEST SWAP2 POP PUSH2 0x3DEB DUP3 PUSH2 0x49D0 JUMP JUMPDEST PUSH1 0x20 DUP3 ADD SWAP1 POP SWAP2 SWAP1 POP JUMP JUMPDEST PUSH1 0x0 PUSH2 0x3E03 PUSH1 0x10 DUP4 PUSH2 0x44B8 JUMP JUMPDEST SWAP2 POP PUSH2 0x3E0E DUP3 PUSH2 0x49F9 JUMP JUMPDEST PUSH1 0x20 DUP3 ADD SWAP1 POP SWAP2 SWAP1 POP JUMP JUMPDEST PUSH1 0x0 PUSH2 0x3E26 PUSH1 0x1B DUP4 PUSH2 0x44B8 JUMP JUMPDEST SWAP2 POP PUSH2 0x3E31 DUP3 PUSH2 0x4A22 JUMP JUMPDEST PUSH1 0x20 DUP3 ADD SWAP1 POP SWAP2 SWAP1 POP JUMP JUMPDEST PUSH1 0x0 PUSH2 0x3E49 PUSH1 0x11 DUP4 PUSH2 0x44B8 JUMP JUMPDEST SWAP2 POP PUSH2 0x3E54 DUP3 PUSH2 0x4A4B JUMP JUMPDEST PUSH1 0x20 DUP3 ADD SWAP1 POP SWAP2 SWAP1 POP JUMP JUMPDEST PUSH1 0x0 PUSH2 0x3E6C PUSH1 0x10 DUP4 PUSH2 0x44B8 JUMP JUMPDEST SWAP2 POP PUSH2 0x3E77 DUP3 PUSH2 0x4A74 JUMP JUMPDEST PUSH1 0x20 DUP3 ADD SWAP1 POP SWAP2 SWAP1 POP JUMP JUMPDEST PUSH1 0x0 PUSH2 0x3E8F PUSH1 0x29 DUP4 PUSH2 0x44B8 JUMP JUMPDEST SWAP2 POP PUSH2 0x3E9A DUP3 PUSH2 0x4A9D JUMP JUMPDEST PUSH1 0x40 DUP3 ADD SWAP1 POP SWAP2 SWAP1 POP JUMP JUMPDEST PUSH1 0x0 PUSH2 0x3EB2 PUSH1 0x1F DUP4 PUSH2 0x44B8 JUMP JUMPDEST SWAP2 POP PUSH2 0x3EBD DUP3 PUSH2 0x4AEC JUMP JUMPDEST PUSH1 0x20 DUP3 ADD SWAP1 POP SWAP2 SWAP1 POP JUMP JUMPDEST PUSH1 0x0 PUSH2 0x3ED5 PUSH1 0x1C DUP4 PUSH2 0x44B8 JUMP JUMPDEST SWAP2 POP PUSH2 0x3EE0 DUP3 PUSH2 0x4B15 JUMP JUMPDEST PUSH1 0x20 DUP3 ADD SWAP1 POP SWAP2 SWAP1 POP JUMP JUMPDEST PUSH1 0x0 PUSH2 0x3EF8 PUSH1 0x19 DUP4 PUSH2 0x44B8 JUMP JUMPDEST SWAP2 POP PUSH2 0x3F03 DUP3 PUSH2 0x4B3E JUMP JUMPDEST PUSH1 0x20 DUP3 ADD SWAP1 POP SWAP2 SWAP1 POP JUMP JUMPDEST PUSH1 0x0 PUSH2 0x3F1B PUSH1 0x1D DUP4 PUSH2 0x44B8 JUMP JUMPDEST SWAP2 POP PUSH2 0x3F26 DUP3 PUSH2 0x4B67 JUMP JUMPDEST PUSH1 0x20 DUP3 ADD SWAP1 POP SWAP2 SWAP1 POP JUMP JUMPDEST PUSH1 0x0 PUSH2 0x3F3E PUSH1 0x17 DUP4 PUSH2 0x44B8 JUMP JUMPDEST SWAP2 POP PUSH2 0x3F49 DUP3 PUSH2 0x4B90 JUMP JUMPDEST PUSH1 0x20 DUP3 ADD SWAP1 POP SWAP2 SWAP1 POP JUMP JUMPDEST PUSH1 0x80 DUP3 ADD PUSH1 0x0 DUP3 ADD MLOAD PUSH2 0x3F6A PUSH1 0x0 DUP6 ADD DUP3 PUSH2 0x402C JUMP JUMPDEST POP PUSH1 0x20 DUP3 ADD MLOAD PUSH2 0x3F7D PUSH1 0x20 DUP6 ADD DUP3 PUSH2 0x3C80 JUMP JUMPDEST POP PUSH1 0x40 DUP3 ADD MLOAD PUSH2 0x3F90 PUSH1 0x40 DUP6 ADD DUP3 PUSH2 0x402C JUMP JUMPDEST POP PUSH1 0x60 DUP3 ADD MLOAD PUSH2 0x3FA3 PUSH1 0x60 DUP6 ADD DUP3 PUSH2 0x3D38 JUMP JUMPDEST POP POP POP POP JUMP JUMPDEST PUSH1 0x80 DUP3 ADD PUSH1 0x0 DUP1 DUP4 ADD SLOAD SWAP1 POP PUSH2 0x3FBE DUP2 PUSH2 0x47FE JUMP JUMPDEST PUSH2 0x3FCB PUSH1 0x0 DUP7 ADD DUP3 PUSH2 0x402C JUMP JUMPDEST POP PUSH1 0x1 DUP4 ADD SLOAD SWAP1 POP PUSH2 0x3FDC DUP2 PUSH2 0x47CA JUMP JUMPDEST PUSH2 0x3FE9 PUSH1 0x20 DUP7 ADD DUP3 PUSH2 0x3C80 JUMP JUMPDEST POP PUSH1 0x2 DUP4 ADD SLOAD SWAP1 POP PUSH2 0x3FFA DUP2 PUSH2 0x47FE JUMP JUMPDEST PUSH2 0x4007 PUSH1 0x40 DUP7 ADD DUP3 PUSH2 0x402C JUMP JUMPDEST POP PUSH1 0x3 DUP4 ADD SLOAD SWAP1 POP PUSH2 0x4018 DUP2 PUSH2 0x47E4 JUMP JUMPDEST PUSH2 0x4025 PUSH1 0x60 DUP7 ADD DUP3 PUSH2 0x3D38 JUMP JUMPDEST POP POP POP POP POP JUMP JUMPDEST PUSH2 0x4035 DUP2 PUSH2 0x4720 JUMP JUMPDEST DUP3 MSTORE POP POP JUMP JUMPDEST PUSH2 0x4044 DUP2 PUSH2 0x4720 JUMP JUMPDEST DUP3 MSTORE POP POP JUMP JUMPDEST PUSH1 0x0 PUSH1 0x20 DUP3 ADD SWAP1 POP PUSH2 0x405F PUSH1 0x0 DUP4 ADD DUP5 PUSH2 0x3C8F JUMP JUMPDEST SWAP3 SWAP2 POP POP JUMP JUMPDEST PUSH1 0x0 PUSH1 0x40 DUP3 ADD SWAP1 POP PUSH2 0x407A PUSH1 0x0 DUP4 ADD DUP6 PUSH2 0x3C8F JUMP JUMPDEST PUSH2 0x4087 PUSH1 0x20 DUP4 ADD DUP5 PUSH2 0x3C8F JUMP JUMPDEST SWAP4 SWAP3 POP POP POP JUMP JUMPDEST PUSH1 0x0 PUSH1 0x60 DUP3 ADD SWAP1 POP PUSH2 0x40A3 PUSH1 0x0 DUP4 ADD DUP7 PUSH2 0x3C8F JUMP JUMPDEST PUSH2 0x40B0 PUSH1 0x20 DUP4 ADD DUP6 PUSH2 0x3C8F JUMP JUMPDEST PUSH2 0x40BD PUSH1 0x40 DUP4 ADD DUP5 PUSH2 0x403B JUMP JUMPDEST SWAP5 SWAP4 POP POP POP POP JUMP JUMPDEST PUSH1 0x0 PUSH1 0x40 DUP3 ADD SWAP1 POP PUSH2 0x40DA PUSH1 0x0 DUP4 ADD DUP6 PUSH2 0x3C8F JUMP JUMPDEST PUSH2 0x40E7 PUSH1 0x20 DUP4 ADD DUP5 PUSH2 0x403B JUMP JUMPDEST SWAP4 SWAP3 POP POP POP JUMP JUMPDEST PUSH1 0x0 PUSH1 0x20 DUP3 ADD SWAP1 POP DUP2 DUP2 SUB PUSH1 0x0 DUP4 ADD MSTORE PUSH2 0x4108 DUP2 DUP5 PUSH2 0x3C9E JUMP JUMPDEST SWAP1 POP SWAP3 SWAP2 POP POP JUMP JUMPDEST PUSH1 0x0 PUSH1 0x20 DUP3 ADD SWAP1 POP PUSH2 0x4125 PUSH1 0x0 DUP4 ADD DUP5 PUSH2 0x3CFC JUMP JUMPDEST SWAP3 SWAP2 POP POP JUMP JUMPDEST PUSH1 0x0 PUSH1 0x20 DUP3 ADD SWAP1 POP PUSH2 0x4140 PUSH1 0x0 DUP4 ADD DUP5 PUSH2 0x3D0B JUMP JUMPDEST SWAP3 SWAP2 POP POP JUMP JUMPDEST PUSH1 0x0 PUSH1 0x20 DUP3 ADD SWAP1 POP PUSH2 0x415B PUSH1 0x0 DUP4 ADD DUP5 PUSH2 0x3D1A JUMP JUMPDEST SWAP3 SWAP2 POP POP JUMP JUMPDEST PUSH1 0x0 PUSH1 0x20 DUP3 ADD SWAP1 POP DUP2 DUP2 SUB PUSH1 0x0 DUP4 ADD MSTORE PUSH2 0x417A DUP2 PUSH2 0x3D47 JUMP JUMPDEST SWAP1 POP SWAP2 SWAP1 POP JUMP JUMPDEST PUSH1 0x0 PUSH1 0x20 DUP3 ADD SWAP1 POP DUP2 DUP2 SUB PUSH1 0x0 DUP4 ADD MSTORE PUSH2 0x419A DUP2 PUSH2 0x3D6A JUMP JUMPDEST SWAP1 POP SWAP2 SWAP1 POP JUMP JUMPDEST PUSH1 0x0 PUSH1 0x20 DUP3 ADD SWAP1 POP DUP2 DUP2 SUB PUSH1 0x0 DUP4 ADD MSTORE PUSH2 0x41BA DUP2 PUSH2 0x3D8D JUMP JUMPDEST SWAP1 POP SWAP2 SWAP1 POP JUMP JUMPDEST PUSH1 0x0 PUSH1 0x20 DUP3 ADD SWAP1 POP DUP2 DUP2 SUB PUSH1 0x0 DUP4 ADD MSTORE PUSH2 0x41DA DUP2 PUSH2 0x3DB0 JUMP JUMPDEST SWAP1 POP SWAP2 SWAP1 POP JUMP JUMPDEST PUSH1 0x0 PUSH1 0x20 DUP3 ADD SWAP1 POP DUP2 DUP2 SUB PUSH1 0x0 DUP4 ADD MSTORE PUSH2 0x41FA DUP2 PUSH2 0x3DD3 JUMP JUMPDEST SWAP1 POP SWAP2 SWAP1 POP JUMP JUMPDEST PUSH1 0x0 PUSH1 0x20 DUP3 ADD SWAP1 POP DUP2 DUP2 SUB PUSH1 0x0 DUP4 ADD MSTORE PUSH2 0x421A DUP2 PUSH2 0x3DF6 JUMP JUMPDEST SWAP1 POP SWAP2 SWAP1 POP JUMP JUMPDEST PUSH1 0x0 PUSH1 0x20 DUP3 ADD SWAP1 POP DUP2 DUP2 SUB PUSH1 0x0 DUP4 ADD MSTORE PUSH2 0x423A DUP2 PUSH2 0x3E19 JUMP JUMPDEST SWAP1 POP SWAP2 SWAP1 POP JUMP JUMPDEST PUSH1 0x0 PUSH1 0x20 DUP3 ADD SWAP1 POP DUP2 DUP2 SUB PUSH1 0x0 DUP4 ADD MSTORE PUSH2 0x425A DUP2 PUSH2 0x3E3C JUMP JUMPDEST SWAP1 POP SWAP2 SWAP1 POP JUMP JUMPDEST PUSH1 0x0 PUSH1 0x20 DUP3 ADD SWAP1 POP DUP2 DUP2 SUB PUSH1 0x0 DUP4 ADD MSTORE PUSH2 0x427A DUP2 PUSH2 0x3E5F JUMP JUMPDEST SWAP1 POP SWAP2 SWAP1 POP JUMP JUMPDEST PUSH1 0x0 PUSH1 0x20 DUP3 ADD SWAP1 POP DUP2 DUP2 SUB PUSH1 0x0 DUP4 ADD MSTORE PUSH2 0x429A DUP2 PUSH2 0x3E82 JUMP JUMPDEST SWAP1 POP SWAP2 SWAP1 POP JUMP JUMPDEST PUSH1 0x0 PUSH1 0x20 DUP3 ADD SWAP1 POP DUP2 DUP2 SUB PUSH1 0x0 DUP4 ADD MSTORE PUSH2 0x42BA DUP2 PUSH2 0x3EA5 JUMP JUMPDEST SWAP1 POP SWAP2 SWAP1 POP JUMP JUMPDEST PUSH1 0x0 PUSH1 0x20 DUP3 ADD SWAP1 POP DUP2 DUP2 SUB PUSH1 0x0 DUP4 ADD MSTORE PUSH2 0x42DA DUP2 PUSH2 0x3EC8 JUMP JUMPDEST SWAP1 POP SWAP2 SWAP1 POP JUMP JUMPDEST PUSH1 0x0 PUSH1 0x20 DUP3 ADD SWAP1 POP DUP2 DUP2 SUB PUSH1 0x0 DUP4 ADD MSTORE PUSH2 0x42FA DUP2 PUSH2 0x3EEB JUMP JUMPDEST SWAP1 POP SWAP2 SWAP1 POP JUMP JUMPDEST PUSH1 0x0 PUSH1 0x20 DUP3 ADD SWAP1 POP DUP2 DUP2 SUB PUSH1 0x0 DUP4 ADD MSTORE PUSH2 0x431A DUP2 PUSH2 0x3F0E JUMP JUMPDEST SWAP1 POP SWAP2 SWAP1 POP JUMP JUMPDEST PUSH1 0x0 PUSH1 0x20 DUP3 ADD SWAP1 POP DUP2 DUP2 SUB PUSH1 0x0 DUP4 ADD MSTORE PUSH2 0x433A DUP2 PUSH2 0x3F31 JUMP JUMPDEST SWAP1 POP SWAP2 SWAP1 POP JUMP JUMPDEST PUSH1 0x0 PUSH1 0x80 DUP3 ADD SWAP1 POP PUSH2 0x4356 PUSH1 0x0 DUP4 ADD DUP5 PUSH2 0x3F54 JUMP JUMPDEST SWAP3 SWAP2 POP POP JUMP JUMPDEST PUSH1 0x0 PUSH1 0x20 DUP3 ADD SWAP1 POP PUSH2 0x4371 PUSH1 0x0 DUP4 ADD DUP5 PUSH2 0x403B JUMP JUMPDEST SWAP3 SWAP2 POP POP JUMP JUMPDEST PUSH1 0x0 PUSH1 0xA0 DUP3 ADD SWAP1 POP PUSH2 0x438C PUSH1 0x0 DUP4 ADD DUP6 PUSH2 0x403B JUMP JUMPDEST PUSH2 0x4399 PUSH1 0x20 DUP4 ADD DUP5 PUSH2 0x3FA9 JUMP JUMPDEST SWAP4 SWAP3 POP POP POP JUMP JUMPDEST PUSH1 0x0 PUSH1 0xC0 DUP3 ADD SWAP1 POP PUSH2 0x43B5 PUSH1 0x0 DUP4 ADD DUP10 PUSH2 0x403B JUMP JUMPDEST PUSH2 0x43C2 PUSH1 0x20 DUP4 ADD DUP9 PUSH2 0x403B JUMP JUMPDEST PUSH2 0x43CF PUSH1 0x40 DUP4 ADD DUP8 PUSH2 0x403B JUMP JUMPDEST PUSH2 0x43DC PUSH1 0x60 DUP4 ADD DUP7 PUSH2 0x403B JUMP JUMPDEST PUSH2 0x43E9 PUSH1 0x80 DUP4 ADD DUP6 PUSH2 0x403B JUMP JUMPDEST PUSH2 0x43F6 PUSH1 0xA0 DUP4 ADD DUP5 PUSH2 0x403B JUMP JUMPDEST SWAP8 SWAP7 POP POP POP POP POP POP POP JUMP JUMPDEST PUSH1 0x0 PUSH2 0x100 DUP3 ADD SWAP1 POP PUSH2 0x4417 PUSH1 0x0 DUP4 ADD DUP12 PUSH2 0x403B JUMP JUMPDEST PUSH2 0x4424 PUSH1 0x20 DUP4 ADD DUP11 PUSH2 0x403B JUMP JUMPDEST PUSH2 0x4431 PUSH1 0x40 DUP4 ADD DUP10 PUSH2 0x403B JUMP JUMPDEST PUSH2 0x443E PUSH1 0x60 DUP4 ADD DUP9 PUSH2 0x403B JUMP JUMPDEST PUSH2 0x444B PUSH1 0x80 DUP4 ADD DUP8 PUSH2 0x403B JUMP JUMPDEST PUSH2 0x4458 PUSH1 0xA0 DUP4 ADD DUP7 PUSH2 0x403B JUMP JUMPDEST PUSH2 0x4465 PUSH1 0xC0 DUP4 ADD DUP6 PUSH2 0x403B JUMP JUMPDEST PUSH2 0x4472 PUSH1 0xE0 DUP4 ADD DUP5 PUSH2 0x3D29 JUMP JUMPDEST SWAP10 SWAP9 POP POP POP POP POP POP POP POP POP JUMP JUMPDEST PUSH1 0x0 DUP2 SWAP1 POP PUSH1 0x20 DUP3 ADD SWAP1 POP SWAP2 SWAP1 POP JUMP JUMPDEST PUSH1 0x0 DUP2 MLOAD SWAP1 POP SWAP2 SWAP1 POP JUMP JUMPDEST PUSH1 0x0 PUSH1 0x20 DUP3 ADD SWAP1 POP SWAP2 SWAP1 POP JUMP JUMPDEST PUSH1 0x0 DUP3 DUP3 MSTORE PUSH1 0x20 DUP3 ADD SWAP1 POP SWAP3 SWAP2 POP POP JUMP JUMPDEST PUSH1 0x0 DUP3 DUP3 MSTORE PUSH1 0x20 DUP3 ADD SWAP1 POP SWAP3 SWAP2 POP POP JUMP JUMPDEST PUSH1 0x0 PUSH2 0x44D4 DUP3 PUSH2 0x4720 JUMP JUMPDEST SWAP2 POP PUSH2 0x44DF DUP4 PUSH2 0x4720 JUMP JUMPDEST SWAP3 POP DUP3 PUSH32 0xFFFFFFFFFFFFFFFFFFFFFFFFFFFFFFFFFFFFFFFFFFFFFFFFFFFFFFFFFFFFFFFF SUB DUP3 GT ISZERO PUSH2 0x4514 JUMPI PUSH2 0x4513 PUSH2 0x4892 JUMP JUMPDEST JUMPDEST DUP3 DUP3 ADD SWAP1 POP SWAP3 SWAP2 POP POP JUMP JUMPDEST PUSH1 0x0 PUSH2 0x452A DUP3 PUSH2 0x46F8 JUMP JUMPDEST SWAP2 POP PUSH2 0x4535 DUP4 PUSH2 0x46F8 JUMP JUMPDEST SWAP3 POP DUP3 PUSH2 0x4545 JUMPI PUSH2 0x4544 PUSH2 0x48C1 JUMP JUMPDEST JUMPDEST DUP3 DUP3 DIV SWAP1 POP SWAP3 SWAP2 POP POP JUMP JUMPDEST PUSH1 0x0 PUSH2 0x455B DUP3 PUSH2 0x4720 JUMP JUMPDEST SWAP2 POP PUSH2 0x4566 DUP4 PUSH2 0x4720 JUMP JUMPDEST SWAP3 POP DUP3 PUSH2 0x4576 JUMPI PUSH2 0x4575 PUSH2 0x48C1 JUMP JUMPDEST JUMPDEST DUP3 DUP3 DIV SWAP1 POP SWAP3 SWAP2 POP POP JUMP JUMPDEST PUSH1 0x0 PUSH2 0x458C DUP3 PUSH2 0x4720 JUMP JUMPDEST SWAP2 POP PUSH2 0x4597 DUP4 PUSH2 0x4720 JUMP JUMPDEST SWAP3 POP DUP2 PUSH32 0xFFFFFFFFFFFFFFFFFFFFFFFFFFFFFFFFFFFFFFFFFFFFFFFFFFFFFFFFFFFFFFFF DIV DUP4 GT DUP3 ISZERO ISZERO AND ISZERO PUSH2 0x45D0 JUMPI PUSH2 0x45CF PUSH2 0x4892 JUMP JUMPDEST JUMPDEST DUP3 DUP3 MUL SWAP1 POP SWAP3 SWAP2 POP POP JUMP JUMPDEST PUSH1 0x0 PUSH2 0x45E6 DUP3 PUSH2 0x4720 JUMP JUMPDEST SWAP2 POP PUSH2 0x45F1 DUP4 PUSH2 0x4720 JUMP JUMPDEST SWAP3 POP DUP3 DUP3 LT ISZERO PUSH2 0x4604 JUMPI PUSH2 0x4603 PUSH2 0x4892 JUMP JUMPDEST JUMPDEST DUP3 DUP3 SUB SWAP1 POP SWAP3 SWAP2 POP POP JUMP JUMPDEST PUSH1 0x0 PUSH2 0x461A DUP3 PUSH2 0x472A JUMP JUMPDEST SWAP2 POP PUSH2 0x4625 DUP4 PUSH2 0x472A JUMP JUMPDEST SWAP3 POP DUP3 DUP3 LT ISZERO PUSH2 0x4638 JUMPI PUSH2 0x4637 PUSH2 0x4892 JUMP JUMPDEST JUMPDEST DUP3 DUP3 SUB SWAP1 POP SWAP3 SWAP2 POP POP JUMP JUMPDEST PUSH1 0x0 PUSH20 0xFFFFFFFFFFFFFFFFFFFFFFFFFFFFFFFFFFFFFFFF DUP3 AND SWAP1 POP SWAP2 SWAP1 POP JUMP JUMPDEST PUSH1 0x0 PUSH1 0xFF DUP3 AND SWAP1 POP SWAP2 SWAP1 POP JUMP JUMPDEST PUSH1 0x0 DUP2 SWAP1 POP SWAP2 SWAP1 POP JUMP JUMPDEST PUSH1 0x0 PUSH2 0x4685 DUP3 PUSH2 0x46D8 JUMP JUMPDEST SWAP1 POP SWAP2 SWAP1 POP JUMP JUMPDEST PUSH1 0x0 DUP2 ISZERO ISZERO SWAP1 POP SWAP2 SWAP1 POP JUMP JUMPDEST PUSH1 0x0 DUP2 SWAP1 POP PUSH2 0x46A6 DUP3 PUSH2 0x4BB9 JUMP JUMPDEST SWAP2 SWAP1 POP JUMP JUMPDEST PUSH1 0x0 DUP2 SWAP1 POP PUSH2 0x46B9 DUP3 PUSH2 0x4BCD JUMP JUMPDEST SWAP2 SWAP1 POP JUMP JUMPDEST PUSH1 0x0 PUSH14 0xFFFFFFFFFFFFFFFFFFFFFFFFFFFF DUP3 AND SWAP1 POP SWAP2 SWAP1 POP JUMP JUMPDEST PUSH1 0x0 PUSH20 0xFFFFFFFFFFFFFFFFFFFFFFFFFFFFFFFFFFFFFFFF DUP3 AND SWAP1 POP SWAP2 SWAP1 POP JUMP JUMPDEST PUSH1 0x0 PUSH28 0xFFFFFFFFFFFFFFFFFFFFFFFFFFFFFFFFFFFFFFFFFFFFFFFFFFFFFFFF DUP3 AND SWAP1 POP SWAP2 SWAP1 POP JUMP JUMPDEST PUSH1 0x0 DUP2 SWAP1 POP SWAP2 SWAP1 POP JUMP JUMPDEST PUSH1 0x0 PUSH4 0xFFFFFFFF DUP3 AND SWAP1 POP SWAP2 SWAP1 POP JUMP JUMPDEST PUSH1 0x0 PUSH2 0x4745 DUP3 PUSH2 0x474C JUMP JUMPDEST SWAP1 POP SWAP2 SWAP1 POP JUMP JUMPDEST PUSH1 0x0 PUSH2 0x4757 DUP3 PUSH2 0x46D8 JUMP JUMPDEST SWAP1 POP SWAP2 SWAP1 POP JUMP JUMPDEST PUSH1 0x0 PUSH2 0x4769 DUP3 PUSH2 0x4770 JUMP JUMPDEST SWAP1 POP SWAP2 SWAP1 POP JUMP JUMPDEST PUSH1 0x0 PUSH2 0x477B DUP3 PUSH2 0x46D8 JUMP JUMPDEST SWAP1 POP SWAP2 SWAP1 POP JUMP JUMPDEST PUSH1 0x0 PUSH2 0x478D DUP3 PUSH2 0x4794 JUMP JUMPDEST SWAP1 POP SWAP2 SWAP1 POP JUMP JUMPDEST PUSH1 0x0 PUSH2 0x479F DUP3 PUSH2 0x46D8 JUMP JUMPDEST SWAP1 POP SWAP2 SWAP1 POP JUMP JUMPDEST PUSH1 0x0 PUSH2 0x47B1 DUP3 PUSH2 0x4698 JUMP JUMPDEST SWAP1 POP SWAP2 SWAP1 POP JUMP JUMPDEST PUSH1 0x0 PUSH2 0x47C3 DUP3 PUSH2 0x46AB JUMP JUMPDEST SWAP1 POP SWAP2 SWAP1 POP JUMP JUMPDEST PUSH1 0x0 PUSH2 0x47DD PUSH2 0x47D8 DUP4 PUSH2 0x491F JUMP JUMPDEST PUSH2 0x4643 JUMP JUMPDEST SWAP1 POP SWAP2 SWAP1 POP JUMP JUMPDEST PUSH1 0x0 PUSH2 0x47F7 PUSH2 0x47F2 DUP4 PUSH2 0x491F JUMP JUMPDEST PUSH2 0x4663 JUMP JUMPDEST SWAP1 POP SWAP2 SWAP1 POP JUMP JUMPDEST PUSH1 0x0 PUSH2 0x4811 PUSH2 0x480C DUP4 PUSH2 0x491F JUMP JUMPDEST PUSH2 0x4670 JUMP JUMPDEST SWAP1 POP SWAP2 SWAP1 POP JUMP JUMPDEST PUSH1 0x0 PUSH2 0x4823 DUP3 PUSH2 0x4720 JUMP JUMPDEST SWAP2 POP PUSH32 0xFFFFFFFFFFFFFFFFFFFFFFFFFFFFFFFFFFFFFFFFFFFFFFFFFFFFFFFFFFFFFFFF DUP3 EQ ISZERO PUSH2 0x4856 JUMPI PUSH2 0x4855 PUSH2 0x4892 JUMP JUMPDEST JUMPDEST PUSH1 0x1 DUP3 ADD SWAP1 POP SWAP2 SWAP1 POP JUMP JUMPDEST PUSH1 0x0 PUSH2 0x486C DUP3 PUSH2 0x4720 JUMP JUMPDEST SWAP2 POP PUSH2 0x4877 DUP4 PUSH2 0x4720 JUMP JUMPDEST SWAP3 POP DUP3 PUSH2 0x4887 JUMPI PUSH2 0x4886 PUSH2 0x48C1 JUMP JUMPDEST JUMPDEST DUP3 DUP3 MOD SWAP1 POP SWAP3 SWAP2 POP POP JUMP JUMPDEST PUSH32 0x4E487B7100000000000000000000000000000000000000000000000000000000 PUSH1 0x0 MSTORE PUSH1 0x11 PUSH1 0x4 MSTORE PUSH1 0x24 PUSH1 0x0 REVERT JUMPDEST PUSH32 0x4E487B7100000000000000000000000000000000000000000000000000000000 PUSH1 0x0 MSTORE PUSH1 0x12 PUSH1 0x4 MSTORE PUSH1 0x24 PUSH1 0x0 REVERT JUMPDEST PUSH32 0x4E487B7100000000000000000000000000000000000000000000000000000000 PUSH1 0x0 MSTORE PUSH1 0x21 PUSH1 0x4 MSTORE PUSH1 0x24 PUSH1 0x0 REVERT JUMPDEST PUSH1 0x0 DUP2 PUSH1 0x0 SHR SWAP1 POP SWAP2 SWAP1 POP JUMP JUMPDEST PUSH32 0x4652414D4520454E442054494D45204E4F542052454143484544000000000000 PUSH1 0x0 DUP3 ADD MSTORE POP JUMP JUMPDEST PUSH32 0x4E4F542054484520464143544F5259204F574E45520000000000000000000000 PUSH1 0x0 DUP3 ADD MSTORE POP JUMP JUMPDEST PUSH32 0x594F5520444F204E4F54204F574E205448452057494E4E494E47204C4F542100 PUSH1 0x0 DUP3 ADD MSTORE POP JUMP JUMPDEST PUSH32 0x494E56414C4944204652414D4520505249434500000000000000000000000000 PUSH1 0x0 DUP3 ADD MSTORE POP JUMP JUMPDEST PUSH32 0x4C4F5420414C524541445920534554544C454400000000000000000000000000 PUSH1 0x0 DUP3 ADD MSTORE POP JUMP JUMPDEST PUSH32 0x505249434520495320544F4F204C4F5700000000000000000000000000000000 PUSH1 0x0 DUP3 ADD MSTORE POP JUMP JUMPDEST PUSH32 0x54484953204C4F5420495320494E20412050415354204652414D450000000000 PUSH1 0x0 DUP3 ADD MSTORE POP JUMP JUMPDEST PUSH32 0x4D555354204245204C4F54204F574E4552000000000000000000000000000000 PUSH1 0x0 DUP3 ADD MSTORE POP JUMP JUMPDEST PUSH32 0x4652414D45204E4F5420434C4F53454400000000000000000000000000000000 PUSH1 0x0 DUP3 ADD MSTORE POP JUMP JUMPDEST PUSH32 0x54484953204C4F5420495320494E20412054494D45204652414D452046524F4D PUSH1 0x0 DUP3 ADD MSTORE PUSH32 0x2054484520504153540000000000000000000000000000000000000000000000 PUSH1 0x20 DUP3 ADD MSTORE POP JUMP JUMPDEST PUSH32 0x4144445245535320414C5245414459204F574E53205448452050415243454C00 PUSH1 0x0 DUP3 ADD MSTORE POP JUMP JUMPDEST PUSH32 0x415050524F56454420414D4F554E5420495320544F4F20534D414C4C00000000 PUSH1 0x0 DUP3 ADD MSTORE POP JUMP JUMPDEST PUSH32 0x43414E5420435245415445204652414D4520494E205041535400000000000000 PUSH1 0x0 DUP3 ADD MSTORE POP JUMP JUMPDEST PUSH32 0x43414E2754204255592041204C4F542046524F4D205448452050415354000000 PUSH1 0x0 DUP3 ADD MSTORE POP JUMP JUMPDEST PUSH32 0x4669786564506F696E743A204449565F42595F5A45524F000000000000000000 PUSH1 0x0 DUP3 ADD MSTORE POP JUMP JUMPDEST PUSH1 0x3 DUP2 LT PUSH2 0x4BCA JUMPI PUSH2 0x4BC9 PUSH2 0x48F0 JUMP JUMPDEST JUMPDEST POP JUMP JUMPDEST PUSH1 0x3 DUP2 LT PUSH2 0x4BDE JUMPI PUSH2 0x4BDD PUSH2 0x48F0 JUMP JUMPDEST JUMPDEST POP JUMP JUMPDEST PUSH2 0x4BEA DUP2 PUSH2 0x467A JUMP JUMPDEST DUP2 EQ PUSH2 0x4BF5 JUMPI PUSH1 0x0 DUP1 REVERT JUMPDEST POP JUMP JUMPDEST PUSH2 0x4C01 DUP2 PUSH2 0x468C JUMP JUMPDEST DUP2 EQ PUSH2 0x4C0C JUMPI PUSH1 0x0 DUP1 REVERT JUMPDEST POP JUMP JUMPDEST PUSH2 0x4C18 DUP2 PUSH2 0x46BE JUMP JUMPDEST DUP2 EQ PUSH2 0x4C23 JUMPI PUSH1 0x0 DUP1 REVERT JUMPDEST POP JUMP JUMPDEST PUSH2 0x4C2F DUP2 PUSH2 0x4720 JUMP JUMPDEST DUP2 EQ PUSH2 0x4C3A JUMPI PUSH1 0x0 DUP1 REVERT JUMPDEST POP JUMP JUMPDEST PUSH2 0x4C46 DUP2 PUSH2 0x472A JUMP JUMPDEST DUP2 EQ PUSH2 0x4C51 JUMPI PUSH1 0x0 DUP1 REVERT JUMPDEST POP JUMP INVALID LOG2 PUSH5 0x6970667358 0x22 SLT KECCAK256 ORIGIN 0x2F 0xCB 0xC6 0x2C PUSH14 0x71E9717089B06B7FA747E806000A 0x23 0x23 SMOD 0x26 DIFFICULTY SWAP14 CALLVALUE RETURN PUSH24 0xC8F50064736F6C6343000804003300000000000000000000 "
        },
        "methodIdentifiers": {
          "accountingToken()": "da68cf8b",
          "buyLot(uint256,uint256,uint256)": "3c80d8ea",
          "claimReward(uint256)": "ae169a50",
          "clcAmountToApprove(uint256,uint256,uint256)": "a4d246ff",
          "clcAmountToApproveForUpdate(uint256,uint256,uint256)": "3656d5ee",
          "clcFrameTimestamp(uint256)": "5b3ad63e",
          "clcLotInterval(uint256)": "888bdbcd",
          "clcPrice(uint256)": "41a8b6f8",
          "clcTax(uint256,uint256)": "e107fb4f",
          "closeFrame(uint256)": "fc950702",
          "dPrice()": "499a0fc4",
          "emptyFunds(uint256)": "6f7cb60b",
          "factory()": "c45a0155",
          "feeMarket()": "410f0710",
          "feeProtocol()": "527eb4bc",
          "frames(uint256)": "a10340bc",
          "framesKeys(uint256)": "050e8840",
          "getLot(uint256,uint256)": "6f1aefc3",
          "getLotKey(uint256,uint256)": "3e16bc20",
          "getLotsCount(uint256)": "830ab119",
          "getNumOfUserFrames(address)": "0ef19273",
          "getNumberOfFrameKeys()": "89da88a3",
          "getOpenFrameKeys(uint256,uint256)": "14aa5a99",
          "getOrCreateFrame(uint256)": "0cbcff8f",
          "getRewardAmount(uint256)": "c84993af",
          "getUserFrames(address)": "9495833c",
          "initTimestamp()": "7358c57a",
          "minTax()": "3d09a82a",
          "ownerMarket()": "45084775",
          "period()": "ef78d4fd",
          "settleLot(uint256)": "4d3ee2dc",
          "tReporting()": "ff5c86b0",
          "taxMarket()": "7e996639",
          "uniswapPair()": "c816841b",
          "updateFramePrices()": "96b2c6f3",
          "updateLotPrice(uint256,uint256,uint256)": "bb15d2dd",
          "userFrames(address,uint256)": "60f65c60"
        }
      }
    }
  }
}