{
  "_format": "hh-sol-artifact-1",
  "contractName": "ClaimVerifier",
  "sourceName": "contracts/ClaimVerifier.sol",
  "abi": [
    {
      "inputs": [
        {
          "internalType": "address",
          "name": "_marketContract",
          "type": "address"
        }
      ],
      "stateMutability": "nonpayable",
      "type": "constructor"
    },
    {
      "inputs": [
        {
          "internalType": "uint256",
          "name": "frameKey",
          "type": "uint256"
        }
      ],
      "name": "claim",
      "outputs": [],
      "stateMutability": "nonpayable",
      "type": "function"
    },
    {
      "inputs": [
        {
          "internalType": "address",
          "name": "",
          "type": "address"
        },
        {
          "internalType": "uint256",
          "name": "",
          "type": "uint256"
        }
      ],
      "name": "hasClaimed",
      "outputs": [
        {
          "internalType": "bool",
          "name": "",
          "type": "bool"
        }
      ],
      "stateMutability": "view",
      "type": "function"
    },
    {
      "inputs": [],
      "name": "marketContract",
      "outputs": [
        {
          "internalType": "contract IMarketContract",
          "name": "",
          "type": "address"
        }
      ],
      "stateMutability": "view",
      "type": "function"
    }
  ],
  "bytecode": "0x608060405234801561001057600080fd5b506040516104d93803806104d983398101604081905261002f91610054565b600080546001600160a01b0319166001600160a01b0392909216919091179055610084565b60006020828403121561006657600080fd5b81516001600160a01b038116811461007d57600080fd5b9392505050565b610446806100936000396000f3fe608060405234801561001057600080fd5b50600436106100415760003560e01c8063379607f514610046578063a1794bcd1461005b578063b29310961461008b575b600080fd5b610059610054366004610216565b6100c9565b005b60005461006e906001600160a01b031681565b6040516001600160a01b0390911681526020015b60405180910390f35b6100b9610099366004610247565b600160209081526000928352604080842090915290825290205460ff1681565b6040519015158152602001610082565b33600090815260016020908152604080832084845290915290205460ff161561012b5760405162461bcd60e51b815260206004820152600f60248201526e105b1c9958591e4818db185a5b5959608a1b60448201526064015b60405180910390fd5b6000805460405163773d51eb60e01b8152600481018490526001600160a01b039091169063773d51eb90602401600060405180830381865afa158015610175573d6000803e3d6000fd5b505050506040513d6000823e601f3d908101601f1916820160405261019d919081019061035d565b60608101519091506001600160a01b031633146101ed5760405162461bcd60e51b815260206004820152600e60248201526d2737ba103a3432903bb4b73732b960911b6044820152606401610122565b50336000908152600160208181526040808420948452939052919020805460ff19169091179055565b60006020828403121561022857600080fd5b5035919050565b6001600160a01b038116811461024457600080fd5b50565b6000806040838503121561025a57600080fd5b82356102658161022f565b946020939093013593505050565b634e487b7160e01b600052604160045260246000fd5b60405160e0810167ffffffffffffffff811182821017156102ac576102ac610273565b60405290565b600082601f8301126102c357600080fd5b8151602067ffffffffffffffff808311156102e0576102e0610273565b8260051b604051601f19603f8301168101818110848211171561030557610305610273565b60405293845285810183019383810192508785111561032357600080fd5b83870191505b8482101561034257815183529183019190830190610329565b979650505050505050565b80516103588161022f565b919050565b60006020828403121561036f57600080fd5b815167ffffffffffffffff8082111561038757600080fd5b9083019060e0828603121561039b57600080fd5b6103a3610289565b82518152602083015160208201526040830151828111156103c357600080fd5b6103cf878286016102b2565b6040830152506103e16060840161034d565b60608201526080830151608082015260a083015160a082015260c083015160c08201528093505050509291505056fea264697066735822122092bbfc7956e17dcf95ac572f2a11e39e0da6b231f39e134badafa619612afc4964736f6c63430008140033",
  "linkReferences": {},
  "deployedLinkReferences": {}
}