{
  "_format": "hh-sol-artifact-1",
  "contractName": "FixedPoint",
  "sourceName": "@uniswap/lib/contracts/libraries/FixedPoint.sol",
  "abi": [
    {
      "inputs": [],
      "name": "Q112",
      "outputs": [
        {
          "internalType": "uint256",
          "name": "",
          "type": "uint256"
        }
      ],
      "stateMutability": "view",
      "type": "function"
    },
    {
      "inputs": [],
      "name": "RESOLUTION",
      "outputs": [
        {
          "internalType": "uint8",
          "name": "",
          "type": "uint8"
        }
      ],
      "stateMutability": "view",
      "type": "function"
    }
  ],
  "bytecode": "0x610127610053600b82828239805160001a607314610046577f4e487b7100000000000000000000000000000000000000000000000000000000600052600060045260246000fd5b30600052607381538281f3fe7300000000000000000000000000000000000000003014608060405260043610603d5760003560e01c80633bf7a83e146042578063552f888a14605c575b600080fd5b60486076565b6040516053919060a8565b60405180910390f35b60626089565b604051606d919060c1565b60405180910390f35b6e01000000000000000000000000000081565b607081565b60958160da565b82525050565b60a28160e4565b82525050565b600060208201905060bb6000830184608e565b92915050565b600060208201905060d46000830184609b565b92915050565b6000819050919050565b600060ff8216905091905056fea2646970667358221220efa8e310c3a8aec57825812ba4d0bf28bdb8215fe26fc02480bc0d694d96eabf64736f6c63430008000033",
  "linkReferences": {},
  "deployedLinkReferences": {}
}