{
  "_format": "hh3-artifact-1",
  "contractName": "Market",
  "sourceName": "contracts/Market.sol",
  "abi": [
    {
      "inputs": [
        {
          "internalType": "address",
          "name": "_acct",
          "type": "address"
        },
        {
          "internalType": "address",
          "name": "_uniswapPool",
          "type": "address"
        },
        {
          "internalType": "uint256",
          "name": "_lotStepInTokenUnits",
          "type": "uint256"
        },
        {
          "internalType": "uint256",
          "name": "_feeProtocolPct1e6",
          "type": "uint256"
        },
        {
          "internalType": "uint256",
          "name": "_dischargePct1e6",
          "type": "uint256"
        },
        {
          "internalType": "uint256",
          "name": "_period",
          "type": "uint256"
        },
        {
          "internalType": "uint256",
          "name": "_initTimestamp",
          "type": "uint256"
        },
        {
          "internalType": "uint256",
          "name": "_tSettle",
          "type": "uint256"
        },
        {
          "internalType": "uint256",
          "name": "_taxAnchorSeconds",
          "type": "uint256"
        }
      ],
      "stateMutability": "nonpayable",
      "type": "constructor"
    },
    {
      "anonymous": false,
      "inputs": [
        {
          "components": [
            {
              "internalType": "uint256",
              "name": "frameKey",
              "type": "uint256"
            },
            {
              "internalType": "uint256[]",
              "name": "trades",
              "type": "uint256[]"
            },
            {
              "components": [
                {
                  "internalType": "uint256",
                  "name": "timestamp",
                  "type": "uint256"
                },
                {
                  "internalType": "uint256",
                  "name": "blockNumber",
                  "type": "uint256"
                },
                {
                  "internalType": "address",
                  "name": "winner",
                  "type": "address"
                },
                {
                  "internalType": "uint256",
                  "name": "rateQ96",
                  "type": "uint256"
                },
                {
                  "internalType": "uint256",
                  "name": "rewardFundQ96",
                  "type": "uint256"
                },
                {
                  "internalType": "uint256",
                  "name": "rewardFeeQ96",
                  "type": "uint256"
                },
                {
                  "internalType": "uint256",
                  "name": "rewardClaimed",
                  "type": "uint256"
                }
              ],
              "internalType": "struct Market.Settlement",
              "name": "settlement",
              "type": "tuple"
            }
          ],
          "indexed": false,
          "internalType": "struct Market.Frame",
          "name": "frame",
          "type": "tuple"
        }
      ],
      "name": "FrameUpdate",
      "type": "event"
    },
    {
      "anonymous": false,
      "inputs": [
        {
          "components": [
            {
              "internalType": "uint256",
              "name": "lotId",
              "type": "uint256"
            },
            {
              "internalType": "uint256[]",
              "name": "trades",
              "type": "uint256[]"
            }
          ],
          "indexed": false,
          "internalType": "struct Market.Lot",
          "name": "lot",
          "type": "tuple"
        }
      ],
      "name": "LotUpdate",
      "type": "event"
    },
    {
      "inputs": [],
      "name": "DEFAULT_ACCOUNTING_TOKEN",
      "outputs": [
        {
          "internalType": "address",
          "name": "",
          "type": "address"
        }
      ],
      "stateMutability": "view",
      "type": "function"
    },
    {
      "inputs": [],
      "name": "DEFAULT_UNISWAP_POOL",
      "outputs": [
        {
          "internalType": "address",
          "name": "",
          "type": "address"
        }
      ],
      "stateMutability": "view",
      "type": "function"
    },
    {
      "inputs": [],
      "name": "accountingToken",
      "outputs": [
        {
          "internalType": "contract IERC20Metadata",
          "name": "",
          "type": "address"
        }
      ],
      "stateMutability": "view",
      "type": "function"
    },
    {
      "inputs": [],
      "name": "baseUnit",
      "outputs": [
        {
          "internalType": "uint256",
          "name": "",
          "type": "uint256"
        }
      ],
      "stateMutability": "view",
      "type": "function"
    },
    {
      "inputs": [
        {
          "internalType": "uint256",
          "name": "timestamp",
          "type": "uint256"
        }
      ],
      "name": "clcFrameKey",
      "outputs": [
        {
          "internalType": "uint256",
          "name": "",
          "type": "uint256"
        }
      ],
      "stateMutability": "view",
      "type": "function"
    },
    {
      "inputs": [
        {
          "internalType": "uint256",
          "name": "valueQ96",
          "type": "uint256"
        }
      ],
      "name": "clcLotKey",
      "outputs": [
        {
          "internalType": "uint256",
          "name": "",
          "type": "uint256"
        }
      ],
      "stateMutability": "view",
      "type": "function"
    },
    {
      "inputs": [],
      "name": "clcRate",
      "outputs": [
        {
          "internalType": "uint256",
          "name": "",
          "type": "uint256"
        }
      ],
      "stateMutability": "view",
      "type": "function"
    },
    {
      "inputs": [
        {
          "internalType": "uint256",
          "name": "timestamp",
          "type": "uint256"
        }
      ],
      "name": "clcRateAvg",
      "outputs": [
        {
          "internalType": "uint256",
          "name": "",
          "type": "uint256"
        }
      ],
      "stateMutability": "view",
      "type": "function"
    },
    {
      "inputs": [
        {
          "internalType": "uint256",
          "name": "frameKey",
          "type": "uint256"
        },
        {
          "internalType": "uint256",
          "name": "acquisitionPriceQ96",
          "type": "uint256"
        }
      ],
      "name": "clcTax",
      "outputs": [
        {
          "internalType": "uint256",
          "name": "",
          "type": "uint256"
        }
      ],
      "stateMutability": "view",
      "type": "function"
    },
    {
      "inputs": [],
      "name": "dischargeRateQ96",
      "outputs": [
        {
          "internalType": "uint256",
          "name": "",
          "type": "uint256"
        }
      ],
      "stateMutability": "view",
      "type": "function"
    },
    {
      "inputs": [],
      "name": "feeProtocolQ96",
      "outputs": [
        {
          "internalType": "uint256",
          "name": "",
          "type": "uint256"
        }
      ],
      "stateMutability": "view",
      "type": "function"
    },
    {
      "inputs": [
        {
          "internalType": "uint256",
          "name": "",
          "type": "uint256"
        }
      ],
      "name": "frames",
      "outputs": [
        {
          "internalType": "uint256",
          "name": "frameKey",
          "type": "uint256"
        },
        {
          "components": [
            {
              "internalType": "uint256",
              "name": "timestamp",
              "type": "uint256"
            },
            {
              "internalType": "uint256",
              "name": "blockNumber",
              "type": "uint256"
            },
            {
              "internalType": "address",
              "name": "winner",
              "type": "address"
            },
            {
              "internalType": "uint256",
              "name": "rateQ96",
              "type": "uint256"
            },
            {
              "internalType": "uint256",
              "name": "rewardFundQ96",
              "type": "uint256"
            },
            {
              "internalType": "uint256",
              "name": "rewardFeeQ96",
              "type": "uint256"
            },
            {
              "internalType": "uint256",
              "name": "rewardClaimed",
              "type": "uint256"
            }
          ],
          "internalType": "struct Market.Settlement",
          "name": "settlement",
          "type": "tuple"
        }
      ],
      "stateMutability": "view",
      "type": "function"
    },
    {
      "inputs": [
        {
          "internalType": "uint256",
          "name": "",
          "type": "uint256"
        }
      ],
      "name": "framesKeys",
      "outputs": [
        {
          "internalType": "uint256",
          "name": "",
          "type": "uint256"
        }
      ],
      "stateMutability": "view",
      "type": "function"
    },
    {
      "inputs": [
        {
          "internalType": "uint256",
          "name": "x96",
          "type": "uint256"
        }
      ],
      "name": "fromQ96",
      "outputs": [
        {
          "internalType": "uint256",
          "name": "",
          "type": "uint256"
        }
      ],
      "stateMutability": "view",
      "type": "function"
    },
    {
      "inputs": [
        {
          "internalType": "uint256",
          "name": "frameKey",
          "type": "uint256"
        }
      ],
      "name": "getFrame",
      "outputs": [
        {
          "components": [
            {
              "internalType": "uint256",
              "name": "frameKey",
              "type": "uint256"
            },
            {
              "internalType": "uint256[]",
              "name": "trades",
              "type": "uint256[]"
            },
            {
              "components": [
                {
                  "internalType": "uint256",
                  "name": "timestamp",
                  "type": "uint256"
                },
                {
                  "internalType": "uint256",
                  "name": "blockNumber",
                  "type": "uint256"
                },
                {
                  "internalType": "address",
                  "name": "winner",
                  "type": "address"
                },
                {
                  "internalType": "uint256",
                  "name": "rateQ96",
                  "type": "uint256"
                },
                {
                  "internalType": "uint256",
                  "name": "rewardFundQ96",
                  "type": "uint256"
                },
                {
                  "internalType": "uint256",
                  "name": "rewardFeeQ96",
                  "type": "uint256"
                },
                {
                  "internalType": "uint256",
                  "name": "rewardClaimed",
                  "type": "uint256"
                }
              ],
              "internalType": "struct Market.Settlement",
              "name": "settlement",
              "type": "tuple"
            }
          ],
          "internalType": "struct Market.Frame",
          "name": "",
          "type": "tuple"
        }
      ],
      "stateMutability": "view",
      "type": "function"
    },
    {
      "inputs": [
        {
          "internalType": "uint256",
          "name": "frameKey",
          "type": "uint256"
        }
      ],
      "name": "getFrameState",
      "outputs": [
        {
          "internalType": "enum Market.SFrame",
          "name": "",
          "type": "uint8"
        }
      ],
      "stateMutability": "view",
      "type": "function"
    },
    {
      "inputs": [],
      "name": "getFramesCount",
      "outputs": [
        {
          "internalType": "uint256",
          "name": "",
          "type": "uint256"
        }
      ],
      "stateMutability": "view",
      "type": "function"
    },
    {
      "inputs": [
        {
          "internalType": "uint256",
          "name": "frameKey",
          "type": "uint256"
        }
      ],
      "name": "getHorizon",
      "outputs": [
        {
          "internalType": "uint256",
          "name": "",
          "type": "uint256"
        }
      ],
      "stateMutability": "view",
      "type": "function"
    },
    {
      "inputs": [
        {
          "internalType": "uint256",
          "name": "lotId",
          "type": "uint256"
        }
      ],
      "name": "getLot",
      "outputs": [
        {
          "components": [
            {
              "internalType": "uint256",
              "name": "lotId",
              "type": "uint256"
            },
            {
              "internalType": "uint256[]",
              "name": "trades",
              "type": "uint256[]"
            }
          ],
          "internalType": "struct Market.Lot",
          "name": "",
          "type": "tuple"
        }
      ],
      "stateMutability": "view",
      "type": "function"
    },
    {
      "inputs": [
        {
          "internalType": "uint256",
          "name": "lotId",
          "type": "uint256"
        }
      ],
      "name": "getLotState",
      "outputs": [
        {
          "internalType": "enum Market.SLot",
          "name": "",
          "type": "uint8"
        }
      ],
      "stateMutability": "view",
      "type": "function"
    },
    {
      "inputs": [],
      "name": "getLotsCount",
      "outputs": [
        {
          "internalType": "uint256",
          "name": "",
          "type": "uint256"
        }
      ],
      "stateMutability": "view",
      "type": "function"
    },
    {
      "inputs": [
        {
          "internalType": "uint256",
          "name": "frameKey",
          "type": "uint256"
        }
      ],
      "name": "getTaxRateQ96",
      "outputs": [
        {
          "internalType": "uint256",
          "name": "",
          "type": "uint256"
        }
      ],
      "stateMutability": "view",
      "type": "function"
    },
    {
      "inputs": [
        {
          "internalType": "uint256",
          "name": "index",
          "type": "uint256"
        }
      ],
      "name": "getTrade",
      "outputs": [
        {
          "components": [
            {
              "internalType": "uint64",
              "name": "timestamp",
              "type": "uint64"
            },
            {
              "internalType": "uint64",
              "name": "blockNumber",
              "type": "uint64"
            },
            {
              "internalType": "uint256",
              "name": "lotID",
              "type": "uint256"
            },
            {
              "internalType": "address",
              "name": "owner",
              "type": "address"
            },
            {
              "internalType": "uint256",
              "name": "acquisitionPriceQ96",
              "type": "uint256"
            },
            {
              "internalType": "uint256",
              "name": "taxQ96",
              "type": "uint256"
            },
            {
              "internalType": "uint256",
              "name": "horizon",
              "type": "uint256"
            },
            {
              "internalType": "enum Market.STrade",
              "name": "mode",
              "type": "uint8"
            }
          ],
          "internalType": "struct Market.Trade",
          "name": "",
          "type": "tuple"
        }
      ],
      "stateMutability": "view",
      "type": "function"
    },
    {
      "inputs": [],
      "name": "getTradesCount",
      "outputs": [
        {
          "internalType": "uint256",
          "name": "count",
          "type": "uint256"
        }
      ],
      "stateMutability": "view",
      "type": "function"
    },
    {
      "inputs": [],
      "name": "initTimestamp",
      "outputs": [
        {
          "internalType": "uint256",
          "name": "",
          "type": "uint256"
        }
      ],
      "stateMutability": "view",
      "type": "function"
    },
    {
      "inputs": [],
      "name": "lotRateStepQ96",
      "outputs": [
        {
          "internalType": "uint256",
          "name": "",
          "type": "uint256"
        }
      ],
      "stateMutability": "view",
      "type": "function"
    },
    {
      "inputs": [
        {
          "internalType": "uint256",
          "name": "",
          "type": "uint256"
        }
      ],
      "name": "lots",
      "outputs": [
        {
          "internalType": "uint256",
          "name": "lotId",
          "type": "uint256"
        }
      ],
      "stateMutability": "view",
      "type": "function"
    },
    {
      "inputs": [
        {
          "internalType": "uint256",
          "name": "",
          "type": "uint256"
        }
      ],
      "name": "lotsIds",
      "outputs": [
        {
          "internalType": "uint256",
          "name": "",
          "type": "uint256"
        }
      ],
      "stateMutability": "view",
      "type": "function"
    },
    {
      "inputs": [
        {
          "internalType": "uint256",
          "name": "frameKey",
          "type": "uint256"
        },
        {
          "internalType": "uint256",
          "name": "rateQ96",
          "type": "uint256"
        }
      ],
      "name": "overrideFrameRate",
      "outputs": [],
      "stateMutability": "nonpayable",
      "type": "function"
    },
    {
      "inputs": [],
      "name": "owner",
      "outputs": [
        {
          "internalType": "address",
          "name": "",
          "type": "address"
        }
      ],
      "stateMutability": "view",
      "type": "function"
    },
    {
      "inputs": [],
      "name": "period",
      "outputs": [
        {
          "internalType": "uint256",
          "name": "",
          "type": "uint256"
        }
      ],
      "stateMutability": "view",
      "type": "function"
    },
    {
      "inputs": [
        {
          "internalType": "uint256",
          "name": "frameKey",
          "type": "uint256"
        }
      ],
      "name": "previewFrameReward",
      "outputs": [
        {
          "internalType": "uint256",
          "name": "poolQ96",
          "type": "uint256"
        },
        {
          "internalType": "uint256",
          "name": "settlementGrossQ96",
          "type": "uint256"
        },
        {
          "internalType": "uint256",
          "name": "feeQ96",
          "type": "uint256"
        },
        {
          "internalType": "uint256",
          "name": "netPayoutQ96",
          "type": "uint256"
        },
        {
          "internalType": "address",
          "name": "winner",
          "type": "address"
        }
      ],
      "stateMutability": "view",
      "type": "function"
    },
    {
      "inputs": [
        {
          "internalType": "uint256",
          "name": "frameKey",
          "type": "uint256"
        }
      ],
      "name": "setFrameRate",
      "outputs": [],
      "stateMutability": "nonpayable",
      "type": "function"
    },
    {
      "inputs": [
        {
          "internalType": "uint256",
          "name": "frameKey",
          "type": "uint256"
        }
      ],
      "name": "settleFrame",
      "outputs": [
        {
          "internalType": "uint256",
          "name": "netPayoutQ96",
          "type": "uint256"
        }
      ],
      "stateMutability": "nonpayable",
      "type": "function"
    },
    {
      "inputs": [],
      "name": "tSettle",
      "outputs": [
        {
          "internalType": "uint256",
          "name": "",
          "type": "uint256"
        }
      ],
      "stateMutability": "view",
      "type": "function"
    },
    {
      "inputs": [],
      "name": "taxAnchorSeconds",
      "outputs": [
        {
          "internalType": "uint256",
          "name": "",
          "type": "uint256"
        }
      ],
      "stateMutability": "view",
      "type": "function"
    },
    {
      "inputs": [
        {
          "internalType": "uint256",
          "name": "amount",
          "type": "uint256"
        }
      ],
      "name": "toQ96",
      "outputs": [
        {
          "internalType": "uint256",
          "name": "",
          "type": "uint256"
        }
      ],
      "stateMutability": "view",
      "type": "function"
    },
    {
      "inputs": [
        {
          "internalType": "uint256",
          "name": "timestamp",
          "type": "uint256"
        },
        {
          "internalType": "uint256",
          "name": "rateQ96",
          "type": "uint256"
        },
        {
          "internalType": "uint256",
          "name": "acquisitionPriceQ96",
          "type": "uint256"
        }
      ],
      "name": "tradeLot",
      "outputs": [],
      "stateMutability": "nonpayable",
      "type": "function"
    },
    {
      "inputs": [
        {
          "internalType": "uint256",
          "name": "",
          "type": "uint256"
        }
      ],
      "name": "trades",
      "outputs": [
        {
          "internalType": "uint64",
          "name": "timestamp",
          "type": "uint64"
        },
        {
          "internalType": "uint64",
          "name": "blockNumber",
          "type": "uint64"
        },
        {
          "internalType": "uint256",
          "name": "lotID",
          "type": "uint256"
        },
        {
          "internalType": "address",
          "name": "owner",
          "type": "address"
        },
        {
          "internalType": "uint256",
          "name": "acquisitionPriceQ96",
          "type": "uint256"
        },
        {
          "internalType": "uint256",
          "name": "taxQ96",
          "type": "uint256"
        },
        {
          "internalType": "uint256",
          "name": "horizon",
          "type": "uint256"
        },
        {
          "internalType": "enum Market.STrade",
          "name": "mode",
          "type": "uint8"
        }
      ],
      "stateMutability": "view",
      "type": "function"
    },
    {
      "inputs": [],
      "name": "uniswapPool",
      "outputs": [
        {
          "internalType": "contract IUniswapV3Pool",
          "name": "",
          "type": "address"
        }
      ],
      "stateMutability": "view",
      "type": "function"
    },
    {
      "inputs": [
        {
          "internalType": "uint256",
          "name": "amount",
          "type": "uint256"
        }
      ],
      "name": "withdrawAccountingToken",
      "outputs": [],
      "stateMutability": "nonpayable",
      "type": "function"
    }
  ],
  "bytecode": "0x60a060405234801561000f575f5ffd5b5060405161466838038061466883398101604081905261002e916103c7565b600780546001600160a01b031916331790555f6001600160a01b038a1661006957733c499c542cef5e3811e1192ce70d8cc03d5c335961006b565b895b90505f6001600160a01b038a16610096577345dda9cb7c25131df268515131f647d726f50608610098565b895b600680546001600160a01b038086166001600160a01b0319928316811790935560048054918516919092161781556040805163313ce56760e01b81529051939450919263313ce5679280830192602092918290030181865afa158015610100573d5f5f3e3d5ffd5b505050506040513d601f19601f82011682018060405250810190610124919061045b565b6101329060ff16600a610574565b6080525f8981036101505760805161014b90606461057f565b610152565b895b9050610174816c010000000000000000000000006080516102ce60201b60201c565b6005555f89810361018757617530610189565b895b9050620f42408111156101ce5760405162461bcd60e51b81526020600482015260086024820152676665653e3130302560c01b60448201526064015b60405180910390fd5b6101e9816c01000000000000000000000000620f42406102ce565b6002555f8981036101fd57620186a06101ff565b895b9050620f42408111156102455760405162461bcd60e51b815260206004820152600e60248201526d6469736368617267653e3130302560901b60448201526064016101c5565b610260816c01000000000000000000000000620f42406102ce565b6008555f8990036102745762015180610276565b885b5f90815588900361028b576368b5c30061028d565b875b6001555f8790036102a0576102586102a2565b865b6003555f8690036102b5576116806102b7565b855b600955506105aa9c50505050505050505050505050565b5f80806102db868661037f565b91509150815f036102ff578381816102f5576102f5610596565b0492505050610378565b81841161031657610316600385150260111861039b565b5f848688095f868103871696879004966002600389028118808a02820302808a02820302808a02820302808a02820302808a02820302808a02909103029181900381900460010185841190960395909502919093039390930492909217029150505b9392505050565b5f805f1983850993909202808410938190039390930393915050565b634e487b715f52806020526024601cfd5b80516001600160a01b03811681146103c2575f5ffd5b919050565b5f5f5f5f5f5f5f5f5f6101208a8c0312156103e0575f5ffd5b6103e98a6103ac565b98506103f760208b016103ac565b97505f60408b01519050809750505f60608b01519050809650505f60808b01519050809550505f60a08b01519050809450505f60c08b01519050809350505f60e08b01519050809250505f6101008b01519050809150509295985092959850929598565b5f6020828403121561046b575f5ffd5b815160ff81168114610378575f5ffd5b634e487b7160e01b5f52601160045260245ffd5b6001815b60018411156104ca578085048111156104ae576104ae61047b565b60018416156104bc57908102905b60019390931c928002610493565b935093915050565b5f826104e05750600161056e565b816104ec57505f61056e565b8160018114610502576002811461050c57610528565b600191505061056e565b60ff84111561051d5761051d61047b565b50506001821b61056e565b5060208310610133831016604e8410600b841016171561054b575081810a61056e565b6105575f19848461048f565b805f190482111561056a5761056a61047b565b0290505b92915050565b5f61037883836104d2565b808202811582820484141761056e5761056e61047b565b634e487b7160e01b5f52601260045260245ffd5b6080516140986105d05f395f8181610535015281816108f90152610ee501526140985ff3fe608060405234801561000f575f5ffd5b506004361061024a575f3560e01c80639592de1811610140578063c2930f91116100bf578063e107fb4f11610084578063e107fb4f146105c9578063e258f4cb146105dc578063ef78d4fd146105e5578063f109db84146105ed578063f1648e841461060d578063ffdabe2d1461062c575f5ffd5b8063c2930f9114610530578063d18743dd14610557578063d70fea211461056a578063da68cf8b146105ae578063de98c735146105c1575f5ffd5b8063b254eb1711610105578063b254eb17146104dc578063b866debb146104ef578063ba331a8c14610502578063ba4e137f14610515578063bdd3d8251461051d575f5ffd5b80639592de18146103fa5780639fdd19381461040d578063a10340bc14610420578063ab995d12146104a9578063af9e2b0d146104c9575f5ffd5b8063438e359b116101cc5780637358c57a116101915780637358c57a146103ad578063773d51eb146103b657806381151b1f146103d65780638a5779c8146103de5780638da5cb5b146103e7575f5ffd5b8063438e359b1461035a578063548f7510146103635780635cbaa9011461036c57806361eee2cb1461038757806364772f211461039a575f5ffd5b80632c438717116102125780632c438717146102d95780632db25e05146102ec5780633aaa18a41461030c5780633baf15871461031457806340f71ed714610327575f5ffd5b8063050e88401461024e57806308a91d251461027457806314e9ae271461029457806318d13d871461029d5780631e6c598e146102b2575b5f5ffd5b61026161025c3660046136b3565b61063f565b6040519081526020015b60405180910390f35b6102876102823660046136b3565b61065e565b60405161026b91906136de565b61026160085481565b6102b06102ab3660046136f8565b610752565b005b6102c56102c03660046136b3565b610881565b60405161026b98979695949392919061372c565b6102616102e73660046136b3565b6108f2565b6102ff6102fa3660046136b3565b610928565b60405161026b919061378a565b600a54610261565b6102b06103223660046136b3565b6109f6565b610342733c499c542cef5e3811e1192ce70d8cc03d5c335981565b6040516001600160a01b03909116815260200161026b565b61026160055481565b61026160025481565b6103427345dda9cb7c25131df268515131f647d726f5060881565b6102616103953660046136b3565b610aec565b6102b06103a8366004613805565b610b21565b61026160015481565b6103c96103c43660046136b3565b610c91565b60405161026b91906138b2565b600e54610261565b61026160035481565b600754610342906001600160a01b031681565b6102616104083660046136b3565b610d9b565b61026161041b3660046136b3565b610de5565b61049b61042e3660046136b3565b600b60209081525f9182526040918290208054835160e0810185526002830154815260038301549381019390935260048201546001600160a01b0316938301939093526005810154606083015260068101546080830152600781015460a08301526008015460c082015282565b60405161026b9291906138f5565b6104bc6104b73660046136b3565b610e3e565b60405161026b919061390a565b6102616104d73660046136b3565b610eca565b6102616104ea3660046136b3565b610ed9565b6102616104fd3660046136b3565b610f09565b6102616105103660046136b3565b6113fd565b61026161145d565b600454610342906001600160a01b031681565b6102617f000000000000000000000000000000000000000000000000000000000000000081565b6102b06105653660046136b3565b611723565b61057d6105783660046136b3565b611808565b6040805195865260208601949094529284019190915260608301526001600160a01b0316608082015260a00161026b565b600654610342906001600160a01b031681565b600c54610261565b6102616105d73660046136f8565b611af5565b61026160095481565b6102615f5481565b6106006105fb3660046136b3565b611b19565b60405161026b919061392e565b61026161061b3660046136b3565b600d6020525f908152604090205481565b61026161063a3660046136b3565b611bab565b600c818154811061064e575f80fd5b5f91825260209091200154905081565b5f818152600d602052604081208054820361067b57505f92915050565b5f5f61068685611fb5565b915091505f61069483611b19565b90505f8160048111156106a9576106a96136ca565b036106b957505f95945050505050565b60018160048111156106cd576106cd6136ca565b14806106ea575060028160048111156106e8576106e86136ca565b145b156106fb5750600195945050505050565b5f838152600b6020526040812060059081015490549091849161071e9083613956565b905081831015801561072f57508083105b156107435750600298975050505050505050565b50600398975050505050505050565b6007546001600160a01b0316331461079e5760405162461bcd60e51b815260206004820152600a60248201526927b7363c9037bbb732b960b11b60448201526064015b60405180910390fd5b5f828152600b602052604081205490036107ca5760405162461bcd60e51b815260040161079590613969565b5f8054838252600b60205260409091205442916107e691613956565b11156108045760405162461bcd60e51b815260040161079590613996565b5f828152600b6020526040902060020154156108325760405162461bcd60e51b8152600401610795906139c0565b5f828152600b6020526040908190206005810183905590517fd8e44fe705548a50abe0a4e2a5d183ba3d00bd50b2f2c8b1f5e1b7427596d23c91610875916139e9565b60405180910390a15050565b600a8181548110610890575f80fd5b5f91825260209091206007909102018054600182015460028301546003840154600485015460058601546006909601546001600160401b038087169850600160401b9096049095169593946001600160a01b0390931693919290919060ff1688565b5f610922827f0000000000000000000000000000000000000000000000000000000000000000600160601b611fd5565b92915050565b610930613615565b600a828154811061094357610943613a9e565b5f9182526020918290206040805161010081018252600790930290910180546001600160401b038082168552600160401b90910416938301939093526001830154908201526002808301546001600160a01b0316606083015260038301546080830152600483015460a0830152600583015460c0830152600683015491929160e084019160ff909116908111156109dc576109dc6136ca565b60028111156109ed576109ed6136ca565b90525092915050565b5f818152600b60205260408120549003610a225760405162461bcd60e51b815260040161079590613969565b5f8054828252600b602052604090912054610a3d9190613956565b421015610a5c5760405162461bcd60e51b815260040161079590613996565b5f818152600b602052604090206002015415610a8a5760405162461bcd60e51b8152600401610795906139c0565b5f818152600b602052604090206005015415610adb5760405162461bcd60e51b815260206004820152601060248201526f14985d1948185b1c9958591e481cd95d60821b6044820152606401610795565b5f610ae582611bab565b9050610832565b5f6001548211610afe57505060015490565b5f54600154610b0d9084613ab2565b610b179190613ad9565b6109229083613ab2565b5f610b2b84610aec565b90505f5481610b3a9190613956565b4210610b795760405162461bcd60e51b815260206004820152600e60248201526d233930b6b2903737ba1037b832b760911b6044820152606401610795565b5f610b8384610d9b565b90505f610b908383612085565b5f848152600b602052604081205491925003610bb157610baf866120e2565b505b5f610bbb42610aec565b5f818152600b602052604081205491925003610bdc57610bda426120e2565b505b5f828152600d602052604081208054909103610c0257610bfd83878461221b565b610c87565b600180820180545f92610c1491613ab2565b81548110610c2457610c24613a9e565b905f5260205f20015490505f600a8281548110610c4357610c43613a9e565b5f9182526020909120600260079092020101546001600160a01b03169050338103610c7857610c73858986612618565b610c84565b610c84858986846129e3565b50505b5050505050505050565b610c99613659565b5f828152600b60205260408120549003610cc55760405162461bcd60e51b815260040161079590613969565b5f828152600b602090815260409182902082516060810184528154815260018201805485518186028101860190965280865291949293858101939290830182828015610d2e57602002820191905f5260205f20905b815481526020019060010190808311610d1a575b50505091835250506040805160e08101825260028401548152600384015460208281019190915260048501546001600160a01b0316928201929092526005840154606082015260068401546080820152600784015460a082015260089093015460c0840152015292915050565b5f5f610da6836108f2565b90505f610db46005546108f2565b905080821015610dc5579392505050565b5f610dd08284613aec565b9050610ddc8282613aff565b95945050505050565b5f5f610df0836113fd565b90505f610e0482600160601b600954611fd5565b610e1290600160601b613956565b90505f610e22606083901b612f11565b90505f610e34600160601b8084611fd5565b9695505050505050565b604080518082019091525f8152606060208201525f828152600d6020908152604091829020825180840184528154815260018201805485518186028101860190965280865291949293858101939290830182828015610eba57602002820191905f5260205f20905b815481526020019060010190808311610ea6575b5050505050815250509050919050565b600e818154811061064e575f80fd5b5f61092282600160601b7f0000000000000000000000000000000000000000000000000000000000000000611fd5565b5f600154821015610f4a5760405162461bcd60e51b815260206004820152600b60248201526a1099599bdc99481a5b9a5d60aa1b6044820152606401610795565b5f828152600b60205260408120549003610f765760405162461bcd60e51b815260040161079590613969565b5f54610f829083613956565b421015610fa15760405162461bcd60e51b815260040161079590613996565b5f828152600b602052604090206002015415610fcf5760405162461bcd60e51b8152600401610795906139c0565b5f828152600b602052604090206005015461101b5760405162461bcd60e51b815260206004820152600c60248201526b14985d19481b9bdd081cd95d60a21b6044820152606401610795565b6001545f908311156110f5575f80546110349085613ab2565b905060015481106110f3575f818152600b60205260409020541580159061106957505f818152600b6020526040902060020154155b156110b7575f61107882613064565b6040516020016110889190613b16565b604051602081830303815290604052906110b55760405162461bcd60e51b81526004016107959190613b55565b505b5f818152600b6020526040902054158015906110e257505f818152600b602052604090206002015415155b156110f3576110f081613160565b91505b505b5f6110ff84613196565b90505f61110c8383613956565b90505f61112082600854600160601b611fd5565b90505f61113482600254600160601b611fd5565b90505f6111418284613ab2565b5f898152600b602052604081206005015491925061115e82610d9b565b90505f61116b8b83612085565b5f818152600d6020526040812080549293509091158015906111905750600181015415155b156111f05760018082018054600a926111a891613ab2565b815481106111b8576111b8613a9e565b905f5260205f200154815481106111d1576111d1613a9e565b5f9182526020909120600260079092020101546001600160a01b031691505b508515611287576006546007546001600160a01b039182169163a9059cbb9116611219896108f2565b6040516001600160e01b031960e085901b1681526001600160a01b03909216600483015260248201526044016020604051808303815f875af1158015611261573d5f5f3e3d5ffd5b505050506040513d601f19601f820116820180604052508101906112859190613b9e565b505b6001600160a01b0381161580159061129e57505f85115b15611365576006546001600160a01b031663a9059cbb826112be886108f2565b6040516001600160e01b031960e085901b1681526001600160a01b03909216600483015260248201526044016020604051808303815f875af1158015611306573d5f5f3e3d5ffd5b505050506040513d601f19601f8201168201806040525081019061132a9190613b9e565b505f8c8152600b602052604090206004810180546001600160a01b0319166001600160a01b0384161790556008018590559399508993611390565b5f8c8152600b602052604081206004810180546001600160a01b03191660011790556008018190559a505b5f8c8152600b602052604090819020600681018a90556007810188905542600282015543600382015590517fd8e44fe705548a50abe0a4e2a5d183ba3d00bd50b2f2c8b1f5e1b7427596d23c916113e6916139e9565b60405180910390a150505050505050505050919050565b5f5f5f548361140c9190613956565b905042811161144c5760405162461bcd60e51b815260206004820152600c60248201526b119c985b594818db1bdcd95960a21b6044820152606401610795565b6114564282613ab2565b9392505050565b6004805460408051633850c7bd60e01b815290515f9384936001600160a01b031692633850c7bd928183019260e0928290030181865afa1580156114a3573d5f5f3e3d5ffd5b505050506040513d601f19601f820116820180604052508101906114c79190613bef565b50505050505090505f816001600160a01b0316826001600160a01b03166114ee9190613aff565b6004805460408051630dfe168160e01b81529051939450606085901c935f936001600160a01b0390931692630dfe1681928082019260209290918290030181865afa15801561153f573d5f5f3e3d5ffd5b505050506040513d601f19601f820116820180604052508101906115639190613c7b565b90505f60045f9054906101000a90046001600160a01b03166001600160a01b031663d21220a76040518163ffffffff1660e01b8152600401602060405180830381865afa1580156115b6573d5f5f3e3d5ffd5b505050506040513d601f19601f820116820180604052508101906115da9190613c7b565b90505f826001600160a01b031663313ce5676040518163ffffffff1660e01b8152600401602060405180830381865afa158015611619573d5f5f3e3d5ffd5b505050506040513d601f19601f8201168201806040525081019061163d9190613c96565b90505f826001600160a01b031663313ce5676040518163ffffffff1660e01b8152600401602060405180830381865afa15801561167c573d5f5f3e3d5ffd5b505050506040513d601f19601f820116820180604052508101906116a09190613c96565b90508060ff168260ff1611156116d7576116d0856116be8385613caf565b6116c990600a613dab565b6001611fd5565b9450611708565b8160ff168160ff161115611708576117058560016116f58585613caf565b61170090600a613dab565b611fd5565b94505b611717600160601b8087611fd5565b98975050505050505050565b6007546001600160a01b0316331461178e5760405162461bcd60e51b815260206004820152602860248201527f4f6e6c79206f776e65722063616e207769746864726177206163636f756e74696044820152673733903a37b5b2b760c11b6064820152608401610795565b60065460075460405163a9059cbb60e01b81526001600160a01b0391821660048201526024810184905291169063a9059cbb906044016020604051808303815f875af11580156117e0573d5f5f3e3d5ffd5b505050506040513d601f19601f820116820180604052508101906118049190613b9e565b5050565b5f5f5f5f5f60015486101561184d5760405162461bcd60e51b815260206004820152600b60248201526a1099599bdc99481a5b9a5d60aa1b6044820152606401610795565b5f868152600b602052604081205490036118795760405162461bcd60e51b815260040161079590613969565b5f546118859087613956565b4210156118a45760405162461bcd60e51b815260040161079590613996565b5f868152600b6020526040902060020154156118d25760405162461bcd60e51b8152600401610795906139c0565b5f868152600b602052604090206005015461191e5760405162461bcd60e51b815260206004820152600c60248201526b14985d19481b9bdd081cd95d60a21b6044820152606401610795565b6001545f908711156119ee575f80546119379089613ab2565b905060015481106119ec575f818152600b60205260409020541580159061196c57505f818152600b6020526040902060020154155b156119b05761197a81613064565b60405160200161198a9190613b16565b60408051601f198184030181529082905262461bcd60e51b825261079591600401613b55565b5f818152600b6020526040902054158015906119db57505f818152600b602052604090206002015415155b156119ec576119e981613160565b91505b505b5f6119f888613196565b9050611a048282613956565b9650611a1787600854600160601b611fd5565b9550611a2a86600254600160601b611fd5565b9450611a368587613ab2565b5f898152600b6020526040812060050154919550611a5382610d9b565b90505f611a608b83612085565b5f818152600d60205260408120805491985091925015801590611a865750600181015415155b15611ae65760018082018054600a92611a9e91613ab2565b81548110611aae57611aae613a9e565b905f5260205f20015481548110611ac757611ac7613a9e565b5f9182526020909120600260079092020101546001600160a01b031696505b50505050505091939590929450565b5f5f611b0084610de5565b9050611b118184600160601b611fd5565b949350505050565b5f818152600b60205260408120548103611b3457505f919050565b5f828152600b60205260409020600401546001600160a01b031615611b5b57506004919050565b5f8054838252600b602052604090912054611b769190613956565b421015611b8557506001919050565b5f828152600b602052604090206005015415611ba357506003919050565b506002919050565b5f5f6003548342611bbc9190613ab2565b611bc69190613956565b90505f611bd38442613ab2565b6040805160028082526060820183529293505f92909160208301908036833701905050905082815f81518110611c0b57611c0b613a9e565b602002602001019063ffffffff16908163ffffffff16815250508181600181518110611c3957611c39613a9e565b63ffffffff909216602092830291909101909101526004805460405163883bdbfd60e01b81525f926001600160a01b039092169163883bdbfd91611c7f91869101613dcd565b5f60405180830381865afa158015611c99573d5f5f3e3d5ffd5b505050506040513d5f823e601f3d908101601f19168201604052611cc09190810190613eda565b5090505f815f81518110611cd657611cd6613a9e565b602002602001015160060b82600181518110611cf457611cf4613a9e565b602002602001015160060b611d099190613fa4565b90505f811215611d515760405162461bcd60e51b81526020600482015260136024820152724e65676174697665207469636b2064656c746160681b6044820152606401610795565b805f611d6663ffffffff808816908916613ab2565b90505f611d738284613aec565b90505f611d7f8261320a565b90505f611d956001600160a01b03831680613aff565b6004805460408051630dfe168160e01b81529051939450606085901c935f936001600160a01b0390931692630dfe1681928082019260209290918290030181865afa158015611de6573d5f5f3e3d5ffd5b505050506040513d601f19601f82011682018060405250810190611e0a9190613c7b565b90505f60045f9054906101000a90046001600160a01b03166001600160a01b031663d21220a76040518163ffffffff1660e01b8152600401602060405180830381865afa158015611e5d573d5f5f3e3d5ffd5b505050506040513d601f19601f82011682018060405250810190611e819190613c7b565b90505f826001600160a01b031663313ce5676040518163ffffffff1660e01b8152600401602060405180830381865afa158015611ec0573d5f5f3e3d5ffd5b505050506040513d601f19601f82011682018060405250810190611ee49190613c96565b90505f826001600160a01b031663313ce5676040518163ffffffff1660e01b8152600401602060405180830381865afa158015611f23573d5f5f3e3d5ffd5b505050506040513d601f19601f82011682018060405250810190611f479190613c96565b90508060ff168260ff161115611f6c57611f65856116be8385613caf565b9450611f8d565b8160ff168160ff161115611f8d57611f8a8560016116f58585613caf565b94505b611f9c600160601b8087611fd5565b9450849f50505050505050505050505050505050919050565b5f80611fc66001600160401b613ab2565b83169360409390931c92915050565b5f5f5f611fe286866135e8565b91509150815f0361200657838181611ffc57611ffc613ac5565b0492505050611456565b81841161201d5761201d6003851502601118613604565b5f848688095f868103871696879004966002600389028118808a02820302808a02820302808a02820302808a02820302808a02820302808a02909103029181900381900460010185841190960395909502919093039390930492909217029150509392505050565b5f6120956001600160401b613ab2565b198316156120da5760405162461bcd60e51b81526020600482015260126024820152716672616d654b657920746f6f206c6172676560701b6044820152606401610795565b5060401b1790565b5f5f6120ed83610aec565b5f818152600b6020526040902054909150156121425760405162461bcd60e51b81526020600482015260146024820152734672616d6520616c72656164792065786973747360601b6044820152606401610795565b425f54826121509190613956565b101561219e5760405162461bcd60e51b815260206004820152601d60248201527f4672616d652068617320746f20626520696e20746865206675747572650000006044820152606401610795565b5f818152600b602052604090819020828155600c8054600181019091557fdf6966c971051c3d54ec59162606531493a51404a002842f56009d7e5cf4a8c70183905590517fd8e44fe705548a50abe0a4e2a5d183ba3d00bd50b2f2c8b1f5e1b7427596d23c9161220d916139e9565b60405180910390a192915050565b5f61222584611fb5565b5090505f612232826113fd565b90505f61223f8386611af5565b90505f61224b826108f2565b90505f811161226c5760405162461bcd60e51b815260040161079590613fc3565b600654604051636eb1769f60e11b815233600482015230602482015282916001600160a01b03169063dd62ed3e90604401602060405180830381865afa1580156122b8573d5f5f3e3d5ffd5b505050506040513d601f19601f820116820180604052508101906122dc9190613fec565b10156122fa5760405162461bcd60e51b815260040161079590614003565b6006546040516323b872dd60e01b81526001600160a01b03909116906323b872dd9061232e90339030908690600401614026565b6020604051808303815f875af115801561234a573d5f5f3e3d5ffd5b505050506040513d601f19601f8201168201806040525081019061236e9190613b9e565b505f878152600d6020526040902054156123b75760405162461bcd60e51b815260206004820152600a6024820152694c6f742065786973747360b01b6044820152606401610795565b5f878152600d602090815260408083208a8155600e805460018082019092557fbb7b4a454dc3493923482f07822329ed19e8244eff582cc204f8554c3620c3fd018c90558251610100810184526001600160401b0342811682524381169582019586529381018d81523360608301908152608083018e815260a084018b815260c085018d815260e086018b8152600a8054808a0182559c5286517fc65a7bb8d6351c1cf70c95a316cc6a92839c986682d98bc35f958f4883f9d2a86007909d029c8d0180549c518c16600160401b026001600160801b0319909d1691909b16179a909a17895593517fc65a7bb8d6351c1cf70c95a316cc6a92839c986682d98bc35f958f4883f9d2a98b015591517fc65a7bb8d6351c1cf70c95a316cc6a92839c986682d98bc35f958f4883f9d2aa8a0180546001600160a01b039092166001600160a01b0319909216919091179055517fc65a7bb8d6351c1cf70c95a316cc6a92839c986682d98bc35f958f4883f9d2ab890155517fc65a7bb8d6351c1cf70c95a316cc6a92839c986682d98bc35f958f4883f9d2ac880155517fc65a7bb8d6351c1cf70c95a316cc6a92839c986682d98bc35f958f4883f9d2ad87015593517fc65a7bb8d6351c1cf70c95a316cc6a92839c986682d98bc35f958f4883f9d2ae9095018054929592909160ff19909116908360028111156125bc576125bc6136ca565b021790555050600a545f91506125d490600190613ab2565b5f978852600b602090815260408920600190810180548083018255908b52828b20018390559384018054948501815589529097209091019590955550505050505050565b5f61262284611fb5565b505f858152600d6020526040812080549293509190036126715760405162461bcd60e51b815260206004820152600a602482015269131bdd0808595e1a5cdd60b21b6044820152606401610795565b600180820180545f9261268391613ab2565b8154811061269357612693613a9e565b905f5260205f2001549050336001600160a01b0316600a82815481106126bb576126bb613a9e565b5f9182526020909120600260079092020101546001600160a01b0316146127115760405162461bcd60e51b815260206004820152600a60248201526927b7363c9037bbb732b960b11b6044820152606401610795565b505f61271c836113fd565b90505f6127298487611af5565b90505f612735826108f2565b90505f81116127565760405162461bcd60e51b815260040161079590613fc3565b600654604051636eb1769f60e11b815233600482015230602482015282916001600160a01b03169063dd62ed3e90604401602060405180830381865afa1580156127a2573d5f5f3e3d5ffd5b505050506040513d601f19601f820116820180604052508101906127c69190613fec565b10156127e45760405162461bcd60e51b815260040161079590614003565b6006546040516323b872dd60e01b81526001600160a01b03909116906323b872dd9061281890339030908690600401614026565b6020604051808303815f875af1158015612834573d5f5f3e3d5ffd5b505050506040513d601f19601f820116820180604052508101906128589190613b9e565b50600a604051806101000160405280426001600160401b03168152602001436001600160401b031681526020018a8152602001336001600160a01b03168152602001898152602001848152602001858152602001600160028111156128bf576128bf6136ca565b90528154600181810184555f93845260209384902083516007909302018054948401516001600160401b03908116600160401b026001600160801b03199096169316929092179390931781556040820151818401556060820151600280830180546001600160a01b039093166001600160a01b0319909316929092179091556080830151600383015560a0830151600483015560c0830151600583015560e0830151600683018054949593949193909260ff19909216918490811115612987576129876136ca565b021790555050600a545f915061299f90600190613ab2565b5f978852600b602090815260408920600190810180548083018255908b52828b20018390559687018054978801815589529097209094019590955550505050505050565b5f6129ed85611fb5565b505f868152600d602052604081208054929350919003612a3c5760405162461bcd60e51b815260206004820152600a602482015269131bdd0808595e1a5cdd60b21b6044820152606401610795565b600180820180545f92612a4e91613ab2565b81548110612a5e57612a5e613a9e565b905f5260205f2001549050836001600160a01b0316600a8281548110612a8657612a86613a9e565b5f9182526020909120600260079092020101546001600160a01b031614612ae55760405162461bcd60e51b81526020600482015260136024820152720a0e4caec40deeedccae440dad2e6dac2e8c6d606b1b6044820152606401610795565b336001600160a01b03851603612b2b5760405162461bcd60e51b815260206004820152600b60248201526a55736520726576616c756560a81b6044820152606401610795565b505f612b36836113fd565b90505f612b438488611af5565b90505f8111612b645760405162461bcd60e51b815260040161079590613fc3565b5f612b6e826108f2565b600180860180549293505f929091612b8591613ab2565b81548110612b9557612b95613a9e565b905f5260205f20015490505f600a8281548110612bb457612bb4613a9e565b905f5260205f2090600702016003015490505f612bd0826108f2565b90505f612bdd8286613956565b600654604051636eb1769f60e11b815233600482015230602482015291925082916001600160a01b039091169063dd62ed3e90604401602060405180830381865afa158015612c2e573d5f5f3e3d5ffd5b505050506040513d601f19601f82011682018060405250810190612c529190613fec565b1015612c705760405162461bcd60e51b815260040161079590614003565b6006546040516323b872dd60e01b81526001600160a01b03909116906323b872dd90612ca490339030908a90600401614026565b6020604051808303815f875af1158015612cc0573d5f5f3e3d5ffd5b505050506040513d601f19601f82011682018060405250810190612ce49190613b9e565b506006546040516323b872dd60e01b81526001600160a01b03909116906323b872dd90612d199033908e908790600401614026565b6020604051808303815f875af1158015612d35573d5f5f3e3d5ffd5b505050506040513d601f19601f82011682018060405250810190612d599190613b9e565b50600a604051806101000160405280426001600160401b03168152602001436001600160401b031681526020018f8152602001336001600160a01b031681526020018e8152602001888152602001898152602001600280811115612dbf57612dbf6136ca565b90528154600181810184555f93845260209384902083516007909302018054948401516001600160401b03908116600160401b026001600160801b03199096169316929092179390931781556040820151818401556060820151600280830180546001600160a01b039093166001600160a01b0319909316929092179091556080830151600383015560a0830151600483015560c0830151600583015560e0830151600683018054949593949193909260ff19909216918490811115612e8757612e876136ca565b021790555050600a545f9150612e9f90600190613ab2565b9050600b5f8d81526020019081526020015f2060010181908060018154018082558091505060019003905f5260205f20015f90919091909150558860010181908060018154018082558091505060019003905f5260205f20015f90919091909150555050505050505050505050505050565b5f60018211612f1e575090565b816001600160801b8210612f375760809190911c9060401b5b600160401b8210612f4d5760409190911c9060201b5b6401000000008210612f645760209190911c9060101b5b620100008210612f795760109190911c9060081b5b6101008210612f8d5760089190911c9060041b5b60108210612fa05760049190911c9060021b5b60048210612fac5760011b5b600302600190811c90818581612fc457612fc4613ac5565b048201901c90506001818581612fdc57612fdc613ac5565b048201901c90506001818581612ff457612ff4613ac5565b048201901c9050600181858161300c5761300c613ac5565b048201901c9050600181858161302457613024613ac5565b048201901c9050600181858161303c5761303c613ac5565b048201901c905061305b81858161305557613055613ac5565b04821190565b90039392505050565b6060815f0361308a5750506040805180820190915260018152600360fc1b602082015290565b815f5b81156130b3578061309d8161404a565b91506130ac9050600a83613aec565b915061308d565b5f816001600160401b038111156130cc576130cc613db9565b6040519080825280601f01601f1916602001820160405280156130f6576020820181803683370190505b5090505b8415611b115761310b600183613ab2565b9150613118600a86613ad9565b613123906030613956565b60f81b81838151811061313857613138613a9e565b60200101906001600160f81b03191690815f1a905350613159600a86613aec565b94506130fa565b5f818152600b60205260408120600781015460088201546002909201916131879190613956565b81600401546114569190613ab2565b5f818152600b60205260408120600101815b815481101561320357600a8282815481106131c5576131c5613a9e565b905f5260205f200154815481106131de576131de613a9e565b905f5260205f20906007020160040154836131f99190613956565b92506001016131a8565b5050919050565b5f81620d89e88111156132435760405162461bcd60e51b81526020600482015260016024820152601560fa1b6044820152606401610795565b5f816001165f0361325857600160801b61326a565b6ffffcb933bd6fad37aa2d162d1a5940015b70ffffffffffffffffffffffffffffffffff16905060028216156132a95760806132a4826ffff97272373d413259a46990580e213a613aff565b901c90505b60048216156132d35760806132ce826ffff2e50f5f656932ef12357cf3c7fdcc613aff565b901c90505b60088216156132fd5760806132f8826fffe5caca7e10e4e61c3624eaa0941cd0613aff565b901c90505b6010821615613327576080613322826fffcb9843d60f6159c9db58835c926644613aff565b901c90505b602082161561335157608061334c826fff973b41fa98c081472e6896dfb254c0613aff565b901c90505b604082161561337b576080613376826fff2ea16466c96a3843ec78b326b52861613aff565b901c90505b60808216156133a55760806133a0826ffe5dee046a99a2a811c461f1969c3053613aff565b901c90505b6101008216156133d05760806133cb826ffcbe86c7900a88aedcffc83b479aa3a4613aff565b901c90505b6102008216156133fb5760806133f6826ff987a7253ac413176f2b074cf7815e54613aff565b901c90505b610400821615613426576080613421826ff3392b0822b70005940c7a398e4b70f3613aff565b901c90505b61080082161561345157608061344c826fe7159475a2c29b7443b29c7fa6e889d9613aff565b901c90505b61100082161561347c576080613477826fd097f3bdfd2022b8845ad8f792aa5825613aff565b901c90505b6120008216156134a75760806134a2826fa9f746462d870fdf8a65dc1f90e061e5613aff565b901c90505b6140008216156134d25760806134cd826f70d869a156d2a1b890bb3df62baf32f7613aff565b901c90505b6180008216156134fd5760806134f8826f31be135f97d08fd981231505542fcfa6613aff565b901c90505b62010000821615613529576080613524826f09aa508b5b7a84e1c677de54f3e99bc9613aff565b901c90505b6202000082161561355457608061354f826e5d6af8dedb81196699c329225ee604613aff565b901c90505b6204000082161561357e576080613579826d2216e584f5fa1ea926041bedfe98613aff565b901c90505b620800008216156135a65760806135a1826b048a170391f7dc42444e8fa2613aff565b901c90505b83156135ba576135b7815f19613aec565b90505b6135c964010000000082613ad9565b156135d55760016135d7565b5f5b611b119060ff16602083901c613956565b5f805f1983850993909202808410938190039390930393915050565b634e487b715f52806020526024601cfd5b60408051610100810182525f80825260208201819052918101829052606081018290526080810182905260a0810182905260c081018290529060e08201905b905290565b60405180606001604052805f8152602001606081526020016136546040518060e001604052805f81526020015f81526020015f6001600160a01b031681526020015f81526020015f81526020015f81526020015f81525090565b5f602082840312156136c3575f5ffd5b5035919050565b634e487b7160e01b5f52602160045260245ffd5b60208101600483106136f2576136f26136ca565b91905290565b5f5f60408385031215613709575f5ffd5b50508035926020909101359150565b60038110613728576137286136ca565b9052565b6001600160401b03898116825288166020820152604081018790526001600160a01b03861660608201526080810185905260a0810184905260c08101839052610100810161377d60e0830184613718565b9998505050505050505050565b5f610100820190506001600160401b0383511682526001600160401b0360208401511660208301526040830151604083015260018060a01b0360608401511660608301526080830151608083015260a083015160a083015260c083015160c083015260e08301516137fe60e0840182613718565b5092915050565b5f5f5f60608486031215613817575f5ffd5b505081359360208301359350604090920135919050565b5f8151808452602084019350602083015f5b8281101561385e578151865260209586019590910190600101613840565b5093949350505050565b80518252602080820151908301526040808201516001600160a01b031690830152606080820151908301526080808201519083015260a0808201519083015260c090810151910152565b60208152815160208201525f602083015161012060408401526138d961014084018261382e565b905060408401516138ed6060850182613868565b509392505050565b82815261010081016114566020830184613868565b60208152815160208201525f6020830151604080840152611b11606084018261382e565b60208101600583106136f2576136f26136ca565b634e487b7160e01b5f52601160045260245ffd5b8082018082111561092257610922613942565b602080825260139082015272119c985b5948191bd95cdb89dd08195e1a5cdd606a1b604082015260600190565b60208082526010908201526f119c985b59481b9bdd0818db1bdcd95960821b604082015260600190565b6020808252600f908201526e105b1c9958591e481cd95d1d1b1959608a1b604082015260600190565b6020808252825482820152610120604083015260018301805461014084018190525f918252918120909182906101608501905b80831015613a3f5783548252602082019150600184019350600183019250613a1c565b50600286015460608601526003860154608086015260048601546001600160a01b031660a0860152600586015460c0860152600686015460e0860152600786015461010086015260089095015461012090940193909352509192915050565b634e487b7160e01b5f52603260045260245ffd5b8181038181111561092257610922613942565b634e487b7160e01b5f52601260045260245ffd5b5f82613ae757613ae7613ac5565b500690565b5f82613afa57613afa613ac5565b500490565b808202811582820484141761092257610922613942565b7f50726576696f7573206672616d65206e6f7420736574746c65643a200000000081525f82518060208501601c85015e5f9201601c0191825250919050565b602081525f82518060208401528060208501604085015e5f604082850101526040601f19601f83011684010191505092915050565b80518015158114613b99575f5ffd5b919050565b5f60208284031215613bae575f5ffd5b61145682613b8a565b6001600160a01b0381168114613bcb575f5ffd5b50565b805161ffff81168114613b99575f5ffd5b805160ff81168114613b99575f5ffd5b5f5f5f5f5f5f5f60e0888a031215613c05575f5ffd5b8751613c1081613bb7565b8097505060208801518060020b8114613c27575f5ffd5b9550613c3560408901613bce565b9450613c4360608901613bce565b9350613c5160808901613bce565b9250613c5f60a08901613bdf565b9150613c6d60c08901613b8a565b905092959891949750929550565b5f60208284031215613c8b575f5ffd5b815161145681613bb7565b5f60208284031215613ca6575f5ffd5b61145682613bdf565b60ff828116828216039081111561092257610922613942565b6001815b6001841115613d0357808504811115613ce757613ce7613942565b6001841615613cf557908102905b60019390931c928002613ccc565b935093915050565b5f82613d1957506001610922565b81613d2557505f610922565b8160018114613d3b5760028114613d4557613d61565b6001915050610922565b60ff841115613d5657613d56613942565b50506001821b610922565b5060208310610133831016604e8410600b8410161715613d84575081810a610922565b613d905f198484613cc8565b805f1904821115613da357613da3613942565b029392505050565b5f61145660ff841683613d0b565b634e487b7160e01b5f52604160045260245ffd5b602080825282518282018190525f918401906040840190835b81811015613e0a57835163ffffffff16835260209384019390920191600101613de6565b509095945050505050565b604051601f8201601f191681016001600160401b0381118282101715613e3d57613e3d613db9565b604052919050565b5f6001600160401b03821115613e5d57613e5d613db9565b5060051b60200190565b5f82601f830112613e76575f5ffd5b8151613e89613e8482613e45565b613e15565b8082825260208201915060208360051b860101925085831115613eaa575f5ffd5b602085015b83811015613ed0578051613ec281613bb7565b835260209283019201613eaf565b5095945050505050565b5f5f60408385031215613eeb575f5ffd5b82516001600160401b03811115613f00575f5ffd5b8301601f81018513613f10575f5ffd5b8051613f1e613e8482613e45565b8082825260208201915060208360051b850101925087831115613f3f575f5ffd5b6020840193505b82841015613f6f5783518060060b8114613f5e575f5ffd5b825260209384019390910190613f46565b8095505050505060208301516001600160401b03811115613f8e575f5ffd5b613f9a85828601613e67565b9150509250929050565b8181035f8312801583831316838312821617156137fe576137fe613942565b6020808252600f908201526e0546178206d757374206265203e203608c1b604082015260600190565b5f60208284031215613ffc575f5ffd5b5051919050565b602080825260099082015268416c6c6f77616e636560b81b604082015260600190565b6001600160a01b039384168152919092166020820152604081019190915260600190565b5f6001820161405b5761405b613942565b506001019056fea2646970667358221220f2793509dd9d025fd41fb14079f489786483bd14ac64ce42f72ab7a7e7d2e54664736f6c634300081c0033",
  "linkReferences": {},
  "deployedLinkReferences": {},
  "immutableReferences": {
    "4049": [
      {
        "length": 32,
        "start": 1333
      },
      {
        "length": 32,
        "start": 2297
      },
      {
        "length": 32,
        "start": 3813
      }
    ]
  },
  "inputSourceName": "project/contracts/Market.sol",
  "buildInfoId": "solc-0_8_28-f27f1f304567d2f2c99548499279834fef58f35d"
}