{
  "_format": "hh3-artifact-1",
  "contractName": "MarketGetter",
  "sourceName": "contracts/MarketGetter.sol",
  "abi": [
    {
      "inputs": [
        {
          "internalType": "contract Market",
          "name": "market",
          "type": "address"
        },
        {
          "internalType": "uint256",
          "name": "timestamp",
          "type": "uint256"
        },
        {
          "internalType": "uint256",
          "name": "rateQ96",
          "type": "uint256"
        },
        {
          "internalType": "uint256",
          "name": "acqPriceQ96",
          "type": "uint256"
        }
      ],
      "name": "clcAmountToApprove",
      "outputs": [
        {
          "internalType": "uint256",
          "name": "approvalAmount",
          "type": "uint256"
        }
      ],
      "stateMutability": "view",
      "type": "function"
    },
    {
      "inputs": [
        {
          "internalType": "contract Market",
          "name": "market",
          "type": "address"
        },
        {
          "internalType": "uint256",
          "name": "frameKey",
          "type": "uint256"
        }
      ],
      "name": "getFrame",
      "outputs": [
        {
          "components": [
            {
              "internalType": "uint256",
              "name": "frameKey",
              "type": "uint256"
            },
            {
              "internalType": "uint256[]",
              "name": "trades",
              "type": "uint256[]"
            },
            {
              "components": [
                {
                  "internalType": "uint256",
                  "name": "timestamp",
                  "type": "uint256"
                },
                {
                  "internalType": "uint256",
                  "name": "blockNumber",
                  "type": "uint256"
                },
                {
                  "internalType": "address",
                  "name": "winner",
                  "type": "address"
                },
                {
                  "internalType": "uint256",
                  "name": "rateQ96",
                  "type": "uint256"
                },
                {
                  "internalType": "uint256",
                  "name": "rewardFundQ96",
                  "type": "uint256"
                },
                {
                  "internalType": "uint256",
                  "name": "rewardFeeQ96",
                  "type": "uint256"
                },
                {
                  "internalType": "uint256",
                  "name": "rewardClaimed",
                  "type": "uint256"
                }
              ],
              "internalType": "struct Market.Settlement",
              "name": "settlement",
              "type": "tuple"
            }
          ],
          "internalType": "struct Market.Frame",
          "name": "frame",
          "type": "tuple"
        }
      ],
      "stateMutability": "view",
      "type": "function"
    },
    {
      "inputs": [
        {
          "internalType": "contract Market",
          "name": "market",
          "type": "address"
        },
        {
          "internalType": "uint256",
          "name": "startIndex",
          "type": "uint256"
        },
        {
          "internalType": "uint256",
          "name": "endIndex",
          "type": "uint256"
        }
      ],
      "name": "getFramesByIndex",
      "outputs": [
        {
          "components": [
            {
              "internalType": "uint256",
              "name": "frameKey",
              "type": "uint256"
            },
            {
              "internalType": "uint256[]",
              "name": "trades",
              "type": "uint256[]"
            },
            {
              "components": [
                {
                  "internalType": "uint256",
                  "name": "timestamp",
                  "type": "uint256"
                },
                {
                  "internalType": "uint256",
                  "name": "blockNumber",
                  "type": "uint256"
                },
                {
                  "internalType": "address",
                  "name": "winner",
                  "type": "address"
                },
                {
                  "internalType": "uint256",
                  "name": "rateQ96",
                  "type": "uint256"
                },
                {
                  "internalType": "uint256",
                  "name": "rewardFundQ96",
                  "type": "uint256"
                },
                {
                  "internalType": "uint256",
                  "name": "rewardFeeQ96",
                  "type": "uint256"
                },
                {
                  "internalType": "uint256",
                  "name": "rewardClaimed",
                  "type": "uint256"
                }
              ],
              "internalType": "struct Market.Settlement",
              "name": "settlement",
              "type": "tuple"
            }
          ],
          "internalType": "struct Market.Frame[]",
          "name": "frames",
          "type": "tuple[]"
        }
      ],
      "stateMutability": "view",
      "type": "function"
    },
    {
      "inputs": [
        {
          "internalType": "contract Market",
          "name": "market",
          "type": "address"
        },
        {
          "internalType": "uint256",
          "name": "lotId",
          "type": "uint256"
        }
      ],
      "name": "getLot",
      "outputs": [
        {
          "components": [
            {
              "internalType": "uint256",
              "name": "lotId",
              "type": "uint256"
            },
            {
              "internalType": "uint256[]",
              "name": "trades",
              "type": "uint256[]"
            }
          ],
          "internalType": "struct Market.Lot",
          "name": "lot",
          "type": "tuple"
        }
      ],
      "stateMutability": "view",
      "type": "function"
    },
    {
      "inputs": [
        {
          "internalType": "contract Market",
          "name": "market",
          "type": "address"
        },
        {
          "internalType": "uint256",
          "name": "startIndex",
          "type": "uint256"
        },
        {
          "internalType": "uint256",
          "name": "endIndex",
          "type": "uint256"
        }
      ],
      "name": "getLotsByIndex",
      "outputs": [
        {
          "components": [
            {
              "internalType": "uint256",
              "name": "lotId",
              "type": "uint256"
            },
            {
              "internalType": "uint256[]",
              "name": "trades",
              "type": "uint256[]"
            }
          ],
          "internalType": "struct Market.Lot[]",
          "name": "lots",
          "type": "tuple[]"
        }
      ],
      "stateMutability": "view",
      "type": "function"
    },
    {
      "inputs": [
        {
          "internalType": "contract Market",
          "name": "market",
          "type": "address"
        },
        {
          "internalType": "uint256",
          "name": "index",
          "type": "uint256"
        }
      ],
      "name": "getTrade",
      "outputs": [
        {
          "components": [
            {
              "internalType": "uint64",
              "name": "timestamp",
              "type": "uint64"
            },
            {
              "internalType": "uint64",
              "name": "blockNumber",
              "type": "uint64"
            },
            {
              "internalType": "uint256",
              "name": "lotID",
              "type": "uint256"
            },
            {
              "internalType": "address",
              "name": "owner",
              "type": "address"
            },
            {
              "internalType": "uint256",
              "name": "acquisitionPriceQ96",
              "type": "uint256"
            },
            {
              "internalType": "uint256",
              "name": "taxQ96",
              "type": "uint256"
            },
            {
              "internalType": "uint256",
              "name": "horizon",
              "type": "uint256"
            },
            {
              "internalType": "enum Market.STrade",
              "name": "mode",
              "type": "uint8"
            }
          ],
          "internalType": "struct Market.Trade",
          "name": "trade",
          "type": "tuple"
        }
      ],
      "stateMutability": "view",
      "type": "function"
    },
    {
      "inputs": [
        {
          "internalType": "contract Market",
          "name": "market",
          "type": "address"
        },
        {
          "internalType": "uint256",
          "name": "startIndex",
          "type": "uint256"
        },
        {
          "internalType": "uint256",
          "name": "endIndex",
          "type": "uint256"
        }
      ],
      "name": "getTradesByIndex",
      "outputs": [
        {
          "components": [
            {
              "internalType": "uint64",
              "name": "timestamp",
              "type": "uint64"
            },
            {
              "internalType": "uint64",
              "name": "blockNumber",
              "type": "uint64"
            },
            {
              "internalType": "uint256",
              "name": "lotID",
              "type": "uint256"
            },
            {
              "internalType": "address",
              "name": "owner",
              "type": "address"
            },
            {
              "internalType": "uint256",
              "name": "acquisitionPriceQ96",
              "type": "uint256"
            },
            {
              "internalType": "uint256",
              "name": "taxQ96",
              "type": "uint256"
            },
            {
              "internalType": "uint256",
              "name": "horizon",
              "type": "uint256"
            },
            {
              "internalType": "enum Market.STrade",
              "name": "mode",
              "type": "uint8"
            }
          ],
          "internalType": "struct Market.Trade[]",
          "name": "trades",
          "type": "tuple[]"
        }
      ],
      "stateMutability": "view",
      "type": "function"
    },
    {
      "inputs": [
        {
          "internalType": "uint256",
          "name": "frameKey",
          "type": "uint256"
        },
        {
          "internalType": "uint256",
          "name": "lotKey",
          "type": "uint256"
        }
      ],
      "name": "packLotId",
      "outputs": [
        {
          "internalType": "uint256",
          "name": "lotId",
          "type": "uint256"
        }
      ],
      "stateMutability": "pure",
      "type": "function"
    },
    {
      "inputs": [
        {
          "internalType": "uint256",
          "name": "lotId",
          "type": "uint256"
        }
      ],
      "name": "unpackLotId",
      "outputs": [
        {
          "internalType": "uint256",
          "name": "frameKey",
          "type": "uint256"
        },
        {
          "internalType": "uint256",
          "name": "lotKey",
          "type": "uint256"
        }
      ],
      "stateMutability": "pure",
      "type": "function"
    }
  ],
  "bytecode": "0x6080604052348015600e575f5ffd5b506115ea8061001c5f395ff3fe608060405234801561000f575f5ffd5b5060043610610090575f3560e01c8063add46d9311610063578063add46d931461011d578063ca142f7514610154578063d00d7b1914610174578063de73259514610194578063e43d33e9146101b5575f5ffd5b80630d504b5b146100945780631da0244e146100bd5780631e46fc03146100dd5780633191b50e146100fd575b5f5ffd5b6100a76100a2366004610e12565b6101c8565b6040516100b49190610e9c565b60405180910390f35b6100d06100cb366004610e12565b61024c565b6040516100b49190610f2c565b6100f06100eb366004610f3e565b6102bd565b6040516100b49190611001565b61011061010b366004610f3e565b6104ad565b6040516100b4919061104f565b61013f61012b3660046110b2565b6001600160401b0381169160409190911c90565b604080519283526020830191909152016100b4565b610167610162366004610e12565b6106f4565b6040516100b491906110c9565b610187610182366004610f3e565b610764565b6040516100b491906110d8565b6101a76101a236600461112f565b6109b3565b6040519081526020016100b4565b6101a76101c3366004611167565b610d06565b6040805180820182525f81526060602082015290516355ccae8960e11b8152600481018390526001600160a01b0384169063ab995d12906024015f60405180830381865afa15801561021c573d5f5f3e3d5ffd5b505050506040513d5f823e601f3d908101601f1916820160405261024391908101906112b7565b90505b92915050565b610254610d5b565b60405163773d51eb60e01b8152600481018390526001600160a01b0384169063773d51eb906024015f60405180830381865afa158015610296573d5f5f3e3d5ffd5b505050506040513d5f823e601f3d908101601f191682016040526102439190810190611348565b6060818311156102e85760405162461bcd60e51b81526004016102df90611435565b60405180910390fd5b5f846001600160a01b0316633aaa18a46040518163ffffffff1660e01b8152600401602060405180830381865afa158015610325573d5f5f3e3d5ffd5b505050506040513d601f19601f820116820180604052508101906103499190611484565b90505f811161039a5760405162461bcd60e51b815260206004820152601760248201527f4e6f2074726164657320696e20746865206d61726b657400000000000000000060448201526064016102df565b8084106103da57604080515f80825260208201909252906103d1565b6103be610dba565b8152602001906001900390816103b65790505b509150506104a6565b8083106103ef576103ec6001826114af565b92505b6103f984846114af565b6104049060016114c2565b6001600160401b0381111561041b5761041b611187565b60405190808252806020026020018201604052801561045457816020015b610441610dba565b8152602001906001900390816104395790505b509150835b8381116104a35761046a86826106f4565b8361047587846114af565b81518110610485576104856114d5565b6020026020010181905250808061049b906114e9565b915050610459565b50505b9392505050565b6060818311156104cf5760405162461bcd60e51b81526004016102df90611435565b5f846001600160a01b031663de98c7356040518163ffffffff1660e01b8152600401602060405180830381865afa15801561050c573d5f5f3e3d5ffd5b505050506040513d601f19601f820116820180604052508101906105309190611484565b90505f81116105815760405162461bcd60e51b815260206004820152601760248201527f4e6f206672616d657320696e20746865206d61726b657400000000000000000060448201526064016102df565b8084106105c057604080515f80825260208201909252906103d1565b6105a5610d5b565b81526020019060019003908161059d579050509150506104a6565b8083106105d5576105d26001826114af565b92505b6105df84846114af565b6105ea9060016114c2565b6001600160401b0381111561060157610601611187565b60405190808252806020026020018201604052801561063a57816020015b610627610d5b565b81526020019060019003908161061f5790505b509150835b8381116104a35760405162143a2160e61b8152600481018290525f906001600160a01b0388169063050e884090602401602060405180830381865afa15801561068a573d5f5f3e3d5ffd5b505050506040513d601f19601f820116820180604052508101906106ae9190611484565b90506106ba878261024c565b846106c588856114af565b815181106106d5576106d56114d5565b60200260200101819052505080806106ec906114e9565b91505061063f565b6106fc610dba565b604051632db25e0560e01b8152600481018390526001600160a01b03841690632db25e059060240161010060405180830381865afa158015610740573d5f5f3e3d5ffd5b505050506040513d601f19601f82011682018060405250810190610243919061152a565b6060818311156107865760405162461bcd60e51b81526004016102df90611435565b5f846001600160a01b03166381151b1f6040518163ffffffff1660e01b8152600401602060405180830381865afa1580156107c3573d5f5f3e3d5ffd5b505050506040513d601f19601f820116820180604052508101906107e79190611484565b90505f81116108305760405162461bcd60e51b8152602060048201526015602482015274139bc81b1bdd1cc81a5b881d1a19481b585c9ad95d605a1b60448201526064016102df565b80841061087b57604080515f80825260208201909252906103d1565b604080518082019091525f81526060602082015281526020019060019003908161084c579050509150506104a6565b8083106108905761088d6001826114af565b92505b61089a84846114af565b6108a59060016114c2565b6001600160401b038111156108bc576108bc611187565b60405190808252806020026020018201604052801561090157816020015b604080518082019091525f8152606060208201528152602001906001900390816108da5790505b509150835b8381116104a35760405163af9e2b0d60e01b81526004810182905261097a9087906001600160a01b0382169063af9e2b0d90602401602060405180830381865afa158015610956573d5f5f3e3d5ffd5b505050506040513d601f19601f820116820180604052508101906100a29190611484565b8361098587846114af565b81518110610995576109956114d5565b602002602001018190525080806109ab906114e9565b915050610906565b6040516361eee2cb60e01b8152600481018490525f9081906001600160a01b038716906361eee2cb90602401602060405180830381865afa1580156109fa573d5f5f3e3d5ffd5b505050506040513d601f19601f82011682018060405250810190610a1e9190611484565b905042866001600160a01b031663ef78d4fd6040518163ffffffff1660e01b8152600401602060405180830381865afa158015610a5d573d5f5f3e3d5ffd5b505050506040513d601f19601f82011682018060405250810190610a819190611484565b610a8b90836114c2565b1015610ad95760405162461bcd60e51b815260206004820152601d60248201527f4672616d652068617320746f20626520696e207468652066757475726500000060448201526064016102df565b6040516312b25bc360e31b8152600481018590525f906001600160a01b03881690639592de1890602401602060405180830381865afa158015610b1e573d5f5f3e3d5ffd5b505050506040513d601f19601f82011682018060405250810190610b429190611484565b90505f610b4f8383610d06565b90505f610b5c89836101c8565b60405163e107fb4f60e01b815260048101869052602481018890529091505f906001600160a01b038b169063e107fb4f90604401602060405180830381865afa158015610bab573d5f5f3e3d5ffd5b505050506040513d601f19601f82011682018060405250810190610bcf9190611484565b82519091505f9015610c8157602083015180515f9190610bf1906001906114af565b81518110610c0157610c016114d5565b602002602001015190508b6001600160a01b0316632db25e05826040518263ffffffff1660e01b8152600401610c3991815260200190565b61010060405180830381865afa158015610c55573d5f5f3e3d5ffd5b505050506040513d601f19601f82011682018060405250810190610c79919061152a565b608001519150505b6001600160a01b038b16632c438717610c9a84846114c2565b6040518263ffffffff1660e01b8152600401610cb891815260200190565b602060405180830381865afa158015610cd3573d5f5f3e3d5ffd5b505050506040513d601f19601f82011682018060405250810190610cf79190611484565b9b9a5050505050505050505050565b5f6001600160401b03831115610d535760405162461bcd60e51b81526020600482015260126024820152716672616d654b657920746f6f206c6172676560701b60448201526064016102df565b5060401b1790565b60405180606001604052805f815260200160608152602001610db56040518060e001604052805f81526020015f81526020015f6001600160a01b031681526020015f81526020015f81526020015f81526020015f81525090565b905290565b60408051610100810182525f80825260208201819052918101829052606081018290526080810182905260a0810182905260c081018290529060e082015290565b6001600160a01b0381168114610e0f575f5ffd5b50565b5f5f60408385031215610e23575f5ffd5b8235610e2e81610dfb565b946020939093013593505050565b5f8151808452602084019350602083015f5b82811015610e6c578151865260209586019590910190600101610e4e565b5093949350505050565b805182525f602082015160406020850152610e946040850182610e3c565b949350505050565b602081525f6102436020830184610e76565b805182525f60208201516101206020850152610ece610120850182610e3c565b90506040830151805160408601526020810151606086015260018060a01b036040820151166080860152606081015160a0860152608081015160c086015260a081015160e086015260c0810151610100860152508091505092915050565b602081525f6102436020830184610eae565b5f5f5f60608486031215610f50575f5ffd5b8335610f5b81610dfb565b95602085013595506040909401359392505050565b60038110610f8c57634e487b7160e01b5f52602160045260245ffd5b9052565b6001600160401b0381511682526001600160401b0360208201511660208301526040810151604083015260018060a01b0360608201511660608301526080810151608083015260a081015160a083015260c081015160c083015260e0810151610ffc60e0840182610f70565b505050565b602080825282518282018190525f918401906040840190835b818110156110445761102d838551610f90565b60209390930192610100929092019160010161101a565b509095945050505050565b5f602082016020835280845180835260408501915060408160051b8601019250602086015f5b828110156110a657603f19878603018452611091858351610eae565b94506020938401939190910190600101611075565b50929695505050505050565b5f602082840312156110c2575f5ffd5b5035919050565b61010081016102468284610f90565b5f602082016020835280845180835260408501915060408160051b8601019250602086015f5b828110156110a657603f1987860301845261111a858351610e76565b945060209384019391909101906001016110fe565b5f5f5f5f60808587031215611142575f5ffd5b843561114d81610dfb565b966020860135965060408601359560600135945092505050565b5f5f60408385031215611178575f5ffd5b50508035926020909101359150565b634e487b7160e01b5f52604160045260245ffd5b604051606081016001600160401b03811182821017156111bd576111bd611187565b60405290565b60405160e081016001600160401b03811182821017156111bd576111bd611187565b60405161010081016001600160401b03811182821017156111bd576111bd611187565b604051601f8201601f191681016001600160401b038111828210171561123057611230611187565b604052919050565b5f82601f830112611247575f5ffd5b81516001600160401b0381111561126057611260611187565b8060051b61127060208201611208565b9182526020818501810192908101908684111561128b575f5ffd5b6020860192505b838310156112ad578251825260209283019290910190611292565b9695505050505050565b5f602082840312156112c7575f5ffd5b81516001600160401b038111156112dc575f5ffd5b8201604081850312156112ed575f5ffd5b604080519081016001600160401b038111828210171561130f5761130f611187565b6040528151815260208201516001600160401b0381111561132e575f5ffd5b61133a86828501611238565b602083015250949350505050565b5f60208284031215611358575f5ffd5b81516001600160401b0381111561136d575f5ffd5b8201808403610120811215611380575f5ffd5b61138861119b565b8251815260208301516001600160401b038111156113a4575f5ffd5b6113b087828601611238565b60208301525060e0603f19830112156113c7575f5ffd5b6113cf6111c3565b604084015181526060840151602082015260808401519092506113f181610dfb565b60408381019190915260a084810151606085015260c080860151608086015260e0860151918501919091526101009094015193830193909352918201529392505050565b6020808252602f908201527f7374617274496e646578206d75737420626520736d616c6c6572206f7220657160408201526e0eac2d840e8de40cadcc892dcc8caf608b1b606082015260800190565b5f60208284031215611494575f5ffd5b5051919050565b634e487b7160e01b5f52601160045260245ffd5b818103818111156102465761024661149b565b808201808211156102465761024661149b565b634e487b7160e01b5f52603260045260245ffd5b5f600182016114fa576114fa61149b565b5060010190565b80516001600160401b0381168114611517575f5ffd5b919050565b805160038110611517575f5ffd5b5f61010082840312801561153c575f5ffd5b506115456111e5565b61154e83611501565b815261155c60208401611501565b602082015260408381015190820152606083015161157981610dfb565b60608201526080838101519082015260a0808401519082015260c080840151908201526115a860e0840161151c565b60e0820152939250505056fea264697066735822122011a63a6adea1a3e257d630218e5b2b41b53273d902b15c73394aa075dc0655f764736f6c634300081c0033",
  "linkReferences": {},
  "deployedLinkReferences": {},
  "immutableReferences": {},
  "inputSourceName": "project/contracts/MarketGetter.sol",
  "buildInfoId": "solc-0_8_28-7cd98bf65a348428e3c8caee3ccbc09cb8b474de"
}