{
  "_format": "hh-sol-artifact-1",
  "contractName": "Market",
  "sourceName": "contracts/Market.sol",
  "abi": [
    {
      "inputs": [],
      "stateMutability": "nonpayable",
      "type": "constructor"
    },
    {
      "anonymous": false,
      "inputs": [
        {
          "components": [
            {
              "internalType": "uint256",
              "name": "frameKey",
              "type": "uint256"
            },
            {
              "internalType": "uint256",
              "name": "rate",
              "type": "uint256"
            },
            {
              "internalType": "uint256[]",
              "name": "lotKeys",
              "type": "uint256[]"
            },
            {
              "internalType": "address",
              "name": "claimedBy",
              "type": "address"
            },
            {
              "internalType": "uint256",
              "name": "rateSettle",
              "type": "uint256"
            },
            {
              "internalType": "uint256",
              "name": "feeSettle",
              "type": "uint256"
            },
            {
              "internalType": "uint256",
              "name": "rewardSettle",
              "type": "uint256"
            },
            {
              "internalType": "uint256",
              "name": "feeReferral",
              "type": "uint256"
            }
          ],
          "indexed": false,
          "internalType": "struct Market.Frame",
          "name": "frame",
          "type": "tuple"
        }
      ],
      "name": "FrameUpdate",
      "type": "event"
    },
    {
      "anonymous": false,
      "inputs": [
        {
          "components": [
            {
              "internalType": "uint256",
              "name": "frameKey",
              "type": "uint256"
            },
            {
              "internalType": "uint256",
              "name": "lotKey",
              "type": "uint256"
            },
            {
              "components": [
                {
                  "internalType": "uint256",
                  "name": "blockNumber",
                  "type": "uint256"
                },
                {
                  "internalType": "uint256",
                  "name": "blockTimestamp",
                  "type": "uint256"
                },
                {
                  "internalType": "address",
                  "name": "owner",
                  "type": "address"
                },
                {
                  "internalType": "uint256",
                  "name": "acquisitionPrice",
                  "type": "uint256"
                },
                {
                  "internalType": "uint256",
                  "name": "taxCharged",
                  "type": "uint256"
                },
                {
                  "internalType": "uint256",
                  "name": "taxRefunded",
                  "type": "uint256"
                }
              ],
              "internalType": "struct Market.LotState[]",
              "name": "states",
              "type": "tuple[]"
            }
          ],
          "indexed": false,
          "internalType": "struct Market.Lot",
          "name": "lot",
          "type": "tuple"
        }
      ],
      "name": "LotUpdate",
      "type": "event"
    },
    {
      "inputs": [],
      "name": "accountingToken",
      "outputs": [
        {
          "internalType": "contract IERC20",
          "name": "",
          "type": "address"
        }
      ],
      "stateMutability": "view",
      "type": "function"
    },
    {
      "inputs": [],
      "name": "claimReferralRewards",
      "outputs": [],
      "stateMutability": "nonpayable",
      "type": "function"
    },
    {
      "inputs": [
        {
          "internalType": "uint256",
          "name": "timestamp",
          "type": "uint256"
        }
      ],
      "name": "clcFrameKey",
      "outputs": [
        {
          "internalType": "uint256",
          "name": "",
          "type": "uint256"
        }
      ],
      "stateMutability": "view",
      "type": "function"
    },
    {
      "inputs": [
        {
          "internalType": "uint256",
          "name": "value",
          "type": "uint256"
        }
      ],
      "name": "clcLotKey",
      "outputs": [
        {
          "internalType": "uint256",
          "name": "",
          "type": "uint256"
        }
      ],
      "stateMutability": "view",
      "type": "function"
    },
    {
      "inputs": [],
      "name": "clcRate",
      "outputs": [
        {
          "internalType": "uint256",
          "name": "",
          "type": "uint256"
        }
      ],
      "stateMutability": "view",
      "type": "function"
    },
    {
      "inputs": [
        {
          "internalType": "uint256",
          "name": "timestamp",
          "type": "uint256"
        }
      ],
      "name": "clcRateAvg",
      "outputs": [
        {
          "internalType": "uint256",
          "name": "",
          "type": "uint256"
        }
      ],
      "stateMutability": "view",
      "type": "function"
    },
    {
      "inputs": [
        {
          "internalType": "uint256",
          "name": "frameKey",
          "type": "uint256"
        }
      ],
      "name": "clcRewardFund",
      "outputs": [
        {
          "internalType": "uint256",
          "name": "",
          "type": "uint256"
        }
      ],
      "stateMutability": "view",
      "type": "function"
    },
    {
      "inputs": [
        {
          "internalType": "uint256",
          "name": "frameKey",
          "type": "uint256"
        },
        {
          "internalType": "uint256",
          "name": "acquisitionPrice",
          "type": "uint256"
        }
      ],
      "name": "clcTax",
      "outputs": [
        {
          "internalType": "uint256",
          "name": "",
          "type": "uint256"
        }
      ],
      "stateMutability": "view",
      "type": "function"
    },
    {
      "inputs": [],
      "name": "dPrice",
      "outputs": [
        {
          "internalType": "uint256",
          "name": "",
          "type": "uint256"
        }
      ],
      "stateMutability": "view",
      "type": "function"
    },
    {
      "inputs": [],
      "name": "feeProtocol",
      "outputs": [
        {
          "internalType": "uint256",
          "name": "",
          "type": "uint256"
        }
      ],
      "stateMutability": "view",
      "type": "function"
    },
    {
      "inputs": [
        {
          "internalType": "uint256",
          "name": "",
          "type": "uint256"
        }
      ],
      "name": "frames",
      "outputs": [
        {
          "internalType": "uint256",
          "name": "frameKey",
          "type": "uint256"
        },
        {
          "internalType": "uint256",
          "name": "rate",
          "type": "uint256"
        },
        {
          "internalType": "address",
          "name": "claimedBy",
          "type": "address"
        },
        {
          "internalType": "uint256",
          "name": "rateSettle",
          "type": "uint256"
        },
        {
          "internalType": "uint256",
          "name": "feeSettle",
          "type": "uint256"
        },
        {
          "internalType": "uint256",
          "name": "rewardSettle",
          "type": "uint256"
        },
        {
          "internalType": "uint256",
          "name": "feeReferral",
          "type": "uint256"
        }
      ],
      "stateMutability": "view",
      "type": "function"
    },
    {
      "inputs": [
        {
          "internalType": "uint256",
          "name": "",
          "type": "uint256"
        }
      ],
      "name": "framesKeys",
      "outputs": [
        {
          "internalType": "uint256",
          "name": "",
          "type": "uint256"
        }
      ],
      "stateMutability": "view",
      "type": "function"
    },
    {
      "inputs": [
        {
          "internalType": "uint256",
          "name": "frameKey",
          "type": "uint256"
        }
      ],
      "name": "getFrame",
      "outputs": [
        {
          "components": [
            {
              "internalType": "uint256",
              "name": "frameKey",
              "type": "uint256"
            },
            {
              "internalType": "uint256",
              "name": "rate",
              "type": "uint256"
            },
            {
              "internalType": "uint256[]",
              "name": "lotKeys",
              "type": "uint256[]"
            },
            {
              "internalType": "address",
              "name": "claimedBy",
              "type": "address"
            },
            {
              "internalType": "uint256",
              "name": "rateSettle",
              "type": "uint256"
            },
            {
              "internalType": "uint256",
              "name": "feeSettle",
              "type": "uint256"
            },
            {
              "internalType": "uint256",
              "name": "rewardSettle",
              "type": "uint256"
            },
            {
              "internalType": "uint256",
              "name": "feeReferral",
              "type": "uint256"
            }
          ],
          "internalType": "struct Market.Frame",
          "name": "",
          "type": "tuple"
        }
      ],
      "stateMutability": "view",
      "type": "function"
    },
    {
      "inputs": [
        {
          "internalType": "uint256",
          "name": "frameKey",
          "type": "uint256"
        }
      ],
      "name": "getFrameLotKeys",
      "outputs": [
        {
          "internalType": "uint256[]",
          "name": "",
          "type": "uint256[]"
        }
      ],
      "stateMutability": "view",
      "type": "function"
    },
    {
      "inputs": [],
      "name": "getFramesLength",
      "outputs": [
        {
          "internalType": "uint256",
          "name": "",
          "type": "uint256"
        }
      ],
      "stateMutability": "view",
      "type": "function"
    },
    {
      "inputs": [
        {
          "internalType": "uint256",
          "name": "frameKey",
          "type": "uint256"
        },
        {
          "internalType": "uint256",
          "name": "lotKey",
          "type": "uint256"
        }
      ],
      "name": "getLot",
      "outputs": [
        {
          "components": [
            {
              "internalType": "uint256",
              "name": "frameKey",
              "type": "uint256"
            },
            {
              "internalType": "uint256",
              "name": "lotKey",
              "type": "uint256"
            },
            {
              "components": [
                {
                  "internalType": "uint256",
                  "name": "blockNumber",
                  "type": "uint256"
                },
                {
                  "internalType": "uint256",
                  "name": "blockTimestamp",
                  "type": "uint256"
                },
                {
                  "internalType": "address",
                  "name": "owner",
                  "type": "address"
                },
                {
                  "internalType": "uint256",
                  "name": "acquisitionPrice",
                  "type": "uint256"
                },
                {
                  "internalType": "uint256",
                  "name": "taxCharged",
                  "type": "uint256"
                },
                {
                  "internalType": "uint256",
                  "name": "taxRefunded",
                  "type": "uint256"
                }
              ],
              "internalType": "struct Market.LotState[]",
              "name": "states",
              "type": "tuple[]"
            }
          ],
          "internalType": "struct Market.Lot",
          "name": "",
          "type": "tuple"
        }
      ],
      "stateMutability": "view",
      "type": "function"
    },
    {
      "inputs": [
        {
          "internalType": "uint256",
          "name": "frameKey",
          "type": "uint256"
        },
        {
          "internalType": "uint256",
          "name": "lotKey",
          "type": "uint256"
        }
      ],
      "name": "getLotStates",
      "outputs": [
        {
          "components": [
            {
              "internalType": "uint256",
              "name": "blockNumber",
              "type": "uint256"
            },
            {
              "internalType": "uint256",
              "name": "blockTimestamp",
              "type": "uint256"
            },
            {
              "internalType": "address",
              "name": "owner",
              "type": "address"
            },
            {
              "internalType": "uint256",
              "name": "acquisitionPrice",
              "type": "uint256"
            },
            {
              "internalType": "uint256",
              "name": "taxCharged",
              "type": "uint256"
            },
            {
              "internalType": "uint256",
              "name": "taxRefunded",
              "type": "uint256"
            }
          ],
          "internalType": "struct Market.LotState[]",
          "name": "",
          "type": "tuple[]"
        }
      ],
      "stateMutability": "view",
      "type": "function"
    },
    {
      "inputs": [
        {
          "internalType": "uint256",
          "name": "frameKey",
          "type": "uint256"
        }
      ],
      "name": "getLotsKeysInFrame",
      "outputs": [
        {
          "internalType": "uint256[]",
          "name": "",
          "type": "uint256[]"
        }
      ],
      "stateMutability": "view",
      "type": "function"
    },
    {
      "inputs": [
        {
          "internalType": "uint256",
          "name": "frameKey",
          "type": "uint256"
        }
      ],
      "name": "getLotsLength",
      "outputs": [
        {
          "internalType": "uint256",
          "name": "",
          "type": "uint256"
        }
      ],
      "stateMutability": "view",
      "type": "function"
    },
    {
      "inputs": [
        {
          "internalType": "uint256",
          "name": "frameKey",
          "type": "uint256"
        }
      ],
      "name": "getStateFrame",
      "outputs": [
        {
          "internalType": "enum Market.SFrame",
          "name": "",
          "type": "uint8"
        }
      ],
      "stateMutability": "view",
      "type": "function"
    },
    {
      "inputs": [
        {
          "internalType": "uint256",
          "name": "frameKey",
          "type": "uint256"
        },
        {
          "internalType": "uint256",
          "name": "lotKey",
          "type": "uint256"
        }
      ],
      "name": "getStateLot",
      "outputs": [
        {
          "internalType": "enum Market.SLot",
          "name": "",
          "type": "uint8"
        }
      ],
      "stateMutability": "view",
      "type": "function"
    },
    {
      "inputs": [],
      "name": "getUncollectedRewards",
      "outputs": [
        {
          "internalType": "uint256",
          "name": "",
          "type": "uint256"
        }
      ],
      "stateMutability": "view",
      "type": "function"
    },
    {
      "inputs": [
        {
          "internalType": "address",
          "name": "user",
          "type": "address"
        },
        {
          "internalType": "uint256",
          "name": "frameKey",
          "type": "uint256"
        }
      ],
      "name": "getUserReward",
      "outputs": [
        {
          "internalType": "uint256",
          "name": "",
          "type": "uint256"
        }
      ],
      "stateMutability": "view",
      "type": "function"
    },
    {
      "inputs": [],
      "name": "getUsersArrayLength",
      "outputs": [
        {
          "internalType": "uint256",
          "name": "",
          "type": "uint256"
        }
      ],
      "stateMutability": "view",
      "type": "function"
    },
    {
      "inputs": [],
      "name": "initTimestamp",
      "outputs": [
        {
          "internalType": "uint256",
          "name": "",
          "type": "uint256"
        }
      ],
      "stateMutability": "view",
      "type": "function"
    },
    {
      "inputs": [
        {
          "internalType": "uint256",
          "name": "",
          "type": "uint256"
        },
        {
          "internalType": "uint256",
          "name": "",
          "type": "uint256"
        }
      ],
      "name": "lots",
      "outputs": [
        {
          "internalType": "uint256",
          "name": "frameKey",
          "type": "uint256"
        },
        {
          "internalType": "uint256",
          "name": "lotKey",
          "type": "uint256"
        }
      ],
      "stateMutability": "view",
      "type": "function"
    },
    {
      "inputs": [
        {
          "components": [
            {
              "internalType": "uint256",
              "name": "frameKey",
              "type": "uint256"
            },
            {
              "internalType": "uint256",
              "name": "rate",
              "type": "uint256"
            },
            {
              "internalType": "uint256[]",
              "name": "lotKeys",
              "type": "uint256[]"
            },
            {
              "internalType": "address",
              "name": "claimedBy",
              "type": "address"
            },
            {
              "internalType": "uint256",
              "name": "rateSettle",
              "type": "uint256"
            },
            {
              "internalType": "uint256",
              "name": "feeSettle",
              "type": "uint256"
            },
            {
              "internalType": "uint256",
              "name": "rewardSettle",
              "type": "uint256"
            },
            {
              "internalType": "uint256",
              "name": "feeReferral",
              "type": "uint256"
            }
          ],
          "internalType": "struct Market.Frame",
          "name": "frame",
          "type": "tuple"
        },
        {
          "internalType": "uint256",
          "name": "avgPrice",
          "type": "uint256"
        }
      ],
      "name": "overrideFrameRate",
      "outputs": [],
      "stateMutability": "nonpayable",
      "type": "function"
    },
    {
      "inputs": [],
      "name": "owner",
      "outputs": [
        {
          "internalType": "address",
          "name": "",
          "type": "address"
        }
      ],
      "stateMutability": "view",
      "type": "function"
    },
    {
      "inputs": [],
      "name": "period",
      "outputs": [
        {
          "internalType": "uint256",
          "name": "",
          "type": "uint256"
        }
      ],
      "stateMutability": "view",
      "type": "function"
    },
    {
      "inputs": [],
      "name": "referralPct",
      "outputs": [
        {
          "internalType": "uint256",
          "name": "",
          "type": "uint256"
        }
      ],
      "stateMutability": "view",
      "type": "function"
    },
    {
      "inputs": [
        {
          "internalType": "address",
          "name": "user",
          "type": "address"
        }
      ],
      "name": "referredBy",
      "outputs": [
        {
          "internalType": "address",
          "name": "",
          "type": "address"
        }
      ],
      "stateMutability": "view",
      "type": "function"
    },
    {
      "inputs": [
        {
          "internalType": "uint256",
          "name": "frameKey",
          "type": "uint256"
        }
      ],
      "name": "setFrameRate",
      "outputs": [],
      "stateMutability": "nonpayable",
      "type": "function"
    },
    {
      "inputs": [
        {
          "internalType": "uint256",
          "name": "frameKey",
          "type": "uint256"
        }
      ],
      "name": "settleFrame",
      "outputs": [
        {
          "internalType": "uint256",
          "name": "",
          "type": "uint256"
        }
      ],
      "stateMutability": "nonpayable",
      "type": "function"
    },
    {
      "inputs": [],
      "name": "tSettle",
      "outputs": [
        {
          "internalType": "uint256",
          "name": "",
          "type": "uint256"
        }
      ],
      "stateMutability": "view",
      "type": "function"
    },
    {
      "inputs": [],
      "name": "taxMarket",
      "outputs": [
        {
          "internalType": "uint256",
          "name": "",
          "type": "uint256"
        }
      ],
      "stateMutability": "view",
      "type": "function"
    },
    {
      "inputs": [
        {
          "internalType": "uint256",
          "name": "timestamp",
          "type": "uint256"
        },
        {
          "internalType": "uint256",
          "name": "rate",
          "type": "uint256"
        },
        {
          "internalType": "uint256",
          "name": "acquisitionPrice",
          "type": "uint256"
        },
        {
          "internalType": "address",
          "name": "referrer",
          "type": "address"
        }
      ],
      "name": "tradeLot",
      "outputs": [],
      "stateMutability": "nonpayable",
      "type": "function"
    },
    {
      "inputs": [],
      "name": "uniswapPool",
      "outputs": [
        {
          "internalType": "contract IUniswapV3Pool",
          "name": "",
          "type": "address"
        }
      ],
      "stateMutability": "view",
      "type": "function"
    },
    {
      "inputs": [
        {
          "internalType": "address",
          "name": "user",
          "type": "address"
        }
      ],
      "name": "userExists",
      "outputs": [
        {
          "internalType": "bool",
          "name": "",
          "type": "bool"
        }
      ],
      "stateMutability": "view",
      "type": "function"
    },
    {
      "inputs": [
        {
          "internalType": "address",
          "name": "",
          "type": "address"
        }
      ],
      "name": "users",
      "outputs": [
        {
          "internalType": "bool",
          "name": "exists",
          "type": "bool"
        },
        {
          "internalType": "address",
          "name": "referredBy",
          "type": "address"
        }
      ],
      "stateMutability": "view",
      "type": "function"
    },
    {
      "inputs": [
        {
          "internalType": "uint256",
          "name": "",
          "type": "uint256"
        }
      ],
      "name": "usersArray",
      "outputs": [
        {
          "internalType": "address",
          "name": "",
          "type": "address"
        }
      ],
      "stateMutability": "view",
      "type": "function"
    },
    {
      "inputs": [
        {
          "internalType": "uint256",
          "name": "amount",
          "type": "uint256"
        }
      ],
      "name": "withdrawAccountingToken",
      "outputs": [],
      "stateMutability": "nonpayable",
      "type": "function"
    }
  ],
  "bytecode": "0x608060405262015180600055636592e180600155666a94d74f430000600255610258600355600480546001600160a01b03199081167367a9fe12fa6082d9d0203c84c6c56d3c4b269f281790915568056bc75e2d63100000600555662386f26fc1000060065560078054909116738f3cf7ad23cd3cadbd9735aff958023239c6a0631790556611c37937e0800060095534801561009b57600080fd5b50600880546001600160a01b03191633179055614393806100bd6000396000f3fe608060405234801561001057600080fd5b50600436106102535760003560e01c80638edc6a2c11610146578063bad12653116100c3578063e107fb4f11610087578063e107fb4f1461063e578063ed320aa814610651578063ef78d4fd14610659578063fb0d5e0914610662578063ffdabe2d14610682578063ffde58621461069557600080fd5b8063bad12653146105d2578063bdd3d825146105f2578063d18743dd14610605578063d8d5000814610618578063da68cf8b1461062b57600080fd5b8063a87430ba1161010a578063a87430ba146104ed578063a90f8e9a1461053f578063b866debb14610570578063b93dafa914610583578063ba4e137f146105ca57600080fd5b80638edc6a2c1461040357806391a0846d146104265780639592de18146104395780639e9c4f081461044c578063a10340bc1461045557600080fd5b80634c73884f116101d45780637358c57a116101985780637358c57a146103b5578063773d51eb146103be5780637e996639146103de5780638a5779c8146103e75780638da5cb5b146103f057600080fd5b80634c73884f14610346578063527eb4bc1461036657806361eee2cb1461036f57806369ca9e05146103825780636f1aefc31461039557600080fd5b80632457e6201161021b5780632457e620146102885780632fae35c0146102ec57806339a6a489146103175780633baf15871461032a578063499a0fc41461033d57600080fd5b8063050e88401461025857806305eaab4b1461027e5780630d0a1c1a146102885780630e666e49146102a857806311235818146102e4575b600080fd5b61026b6102663660046138bd565b61069d565b6040519081526020015b60405180910390f35b6102866106be565b005b61029b6102963660046138bd565b610a18565b60405161027591906138d6565b6102d46102b636600461393f565b6001600160a01b03166000908152600c602052604090205460ff1690565b6040519015158152602001610275565b61026b610a7d565b6102ff6102fa3660046138bd565b610c99565b6040516001600160a01b039091168152602001610275565b61026b6103253660046138bd565b610cc3565b6102866103383660046138bd565b610e90565b61026b60055481565b610359610354366004613963565b610fcd565b604051610275919061399b565b61026b60025481565b61026b61037d3660046138bd565b6110fa565b610286610390366004613ab5565b611131565b6103a86103a3366004613963565b61122d565b6040516102759190613bf4565b61026b60015481565b6103d16103cc3660046138bd565b611384565b6040516102759190613c23565b61026b60065481565b61026b60035481565b6008546102ff906001600160a01b031681565b61026b6104113660046138bd565b6000908152600a602052604090206002015490565b61026b610434366004613ccf565b6114c0565b61026b6104473660046138bd565b611525565b61026b60095481565b6104aa6104633660046138bd565b600a602052600090815260409020805460018201546003830154600484015460058501546006860154600790960154949593946001600160a01b0390931693919290919087565b6040805197885260208801969096526001600160a01b03909416948601949094526060850191909152608084015260a083019190915260c082015260e001610275565b6105206104fb36600461393f565b600c6020526000908152604090205460ff81169061010090046001600160a01b031682565b6040805192151583526001600160a01b03909116602083015201610275565b6102ff61054d36600461393f565b6001600160a01b039081166000908152600c602052604090205461010090041690565b61026b61057e3660046138bd565b611550565b6105b5610591366004613963565b600e6020908152600092835260408084209091529082529020805460019091015482565b60408051928352602083019190915201610275565b61026b611a9d565b6105e56105e03660046138bd565b611b6c565b6040516102759190613cfb565b6004546102ff906001600160a01b031681565b6102866106133660046138bd565b611c03565b610286610626366004613d0f565b611ceb565b6007546102ff906001600160a01b031681565b61026b61064c366004613963565b611e29565b600b5461026b565b61026b60005481565b610675610670366004613963565b611eeb565b6040516102759190613d50565b61026b6106903660046138bd565b611fa1565b600d5461026b565b600b81815481106106ad57600080fd5b600091825260209091200154905081565b336000908152600c602052604090205460ff166106f65760405162461bcd60e51b81526004016106ed90613d63565b60405180910390fd5b600b5460009067ffffffffffffffff811115610714576107146139b5565b60405190808252806020026020018201604052801561073d578160200160208202803683370190505b5090506000805b600b548110156107e7576004610776600b838154811061076657610766613d90565b9060005260206000200154611b6c565b600481111561078757610787613985565b036107d557600b818154811061079f5761079f613d90565b90600052602060002001548383815181106107bc576107bc613d90565b6020908102919091010152816107d181613dbc565b9250505b806107df81613dbc565b915050610744565b506000811161082c5760405162461bcd60e51b81526020600482015260116024820152704e6f20736574746c6564206672616d657360781b60448201526064016106ed565b6000805b8281101561095657336000908152600c6020526040812085516002909101919086908490811061086257610862613d90565b602090810291909101810151825281019190915260400160009081205460ff161515900361094457336000908152600c602052604081208551600190910191908690849081106108b4576108b4613d90565b6020026020010151815260200190815260200160002054826108d69190613dd5565b91506001600c6000336001600160a01b03166001600160a01b03168152602001908152602001600020600201600086848151811061091657610916613d90565b6020026020010151815260200190815260200160002060006101000a81548160ff0219169083151502179055505b8061094e81613dbc565b915050610830565b506000811161099d5760405162461bcd60e51b81526020600482015260136024820152724e6f207265776172647320746f20636c61696d60681b60448201526064016106ed565b60075460405163a9059cbb60e01b8152336004820152602481018390526001600160a01b039091169063a9059cbb906044016020604051808303816000875af11580156109ee573d6000803e3d6000fd5b505050506040513d601f19601f82011682018060405250810190610a129190613df8565b50505050565b6000818152600a6020908152604091829020600201805483518184028101840190945280845260609392830182828015610a7157602002820191906000526020600020905b815481526020019060010190808311610a5d575b50505050509050919050565b336000908152600c602052604081205460ff16610aac5760405162461bcd60e51b81526004016106ed90613d63565b600b5460009067ffffffffffffffff811115610aca57610aca6139b5565b604051908082528060200260200182016040528015610af3578160200160208202803683370190505b5090506000805b600b54811015610b8d576004610b1c600b838154811061076657610766613d90565b6004811115610b2d57610b2d613985565b03610b7b57600b8181548110610b4557610b45613d90565b9060005260206000200154838381518110610b6257610b62613d90565b602090810291909101015281610b7781613dbc565b9250505b80610b8581613dbc565b915050610afa565b5060008111610bd25760405162461bcd60e51b81526020600482015260116024820152704e6f20736574746c6564206672616d657360781b60448201526064016106ed565b6000805b82811015610c9157336000908152600c60205260408120855160029091019190869084908110610c0857610c08613d90565b602090810291909101810151825281019190915260400160009081205460ff1615159003610c7f57336000908152600c60205260408120855160019091019190869084908110610c5a57610c5a613d90565b602002602001015181526020019081526020016000205482610c7c9190613dd5565b91505b80610c8981613dbc565b915050610bd6565b509392505050565b600d8181548110610ca957600080fd5b6000918252602090912001546001600160a01b0316905081565b600080805b6000848152600a6020526040902060020154811015610e89576000848152600a6020818152604080842080548552600e835290842088855292909152600201805483919085908110610d1c57610d1c613d90565b90600052602060002001548152602001908152602001600020604051806060016040529081600082015481526020016001820154815260200160028201805480602002602001604051908101604052809291908181526020016000905b82821015610dea5760008481526020908190206040805160c08101825260068602909201805483526001808201548486015260028201546001600160a01b03169284019290925260038101546060840152600481015460808401526005015460a08301529083529092019101610d79565b5050505081525050905060005b816040015151811015610e745781604001518181518110610e1a57610e1a613d90565b60200260200101516080015184610e319190613dd5565b935081604001518181518110610e4957610e49613d90565b602002602001015160a0015184610e609190613e13565b935080610e6c81613dbc565b915050610df7565b50508080610e8190613dbc565b915050610cc8565b5092915050565b610ed160405180604001604052806012815260200171333930b6b2a5b2bc9015903832b934b7b21d60711b81525060005483610ecc9190613dd5565b6121e7565b610f036040518060400160405280601081526020016f313637b1b5973a34b6b2b9ba30b6b81d60811b815250426121e7565b60008054828252600a6020526040909120544291610f2091613dd5565b1115610f6e5760405162461bcd60e51b815260206004820152601b60248201527f4672616d652068617320746f20626520696e207468652070617374000000000060448201526064016106ed565b6000610f7982611fa1565b6000838152600a6020526040908190206001810183905590519192507f929af310c689982c60d4ec73c6e4b602e89c6f6a31da7c2df4888fb0627cb2b191610fc19190613e5b565b60405180910390a15050565b6000828152600e602090815260408083208484529091528120600101548103610ff8575060006110f4565b600061100384611b6c565b600481111561101457611014613985565b03611021575060006110f4565b600161102c84611b6c565b600481111561103d5761103d613985565b14806110625750600261104f84611b6c565b600481111561106057611060613985565b145b1561106f575060016110f4565b6000838152600e602090815260408083208584528252808320600190810154878552600a909352922090910154108015906110e357506005546000848152600e602090815260408083208684529091529020600101546110cf9190613dd5565b6000848152600a6020526040902060010154105b156110f0575060026110f4565b5060035b92915050565b6000600154821161110d57505060015490565b60005460015461111d9084613e13565b6111279190613ee3565b6110f49083613e13565b6008546001600160a01b0316331461119b5760405162461bcd60e51b815260206004820152602760248201527f4f6e6c79206f776e65722063616e20757064617465206672616d6520636c6f736044820152666520707269636560c81b60648201526084016106ed565b81516000036111bc5760405162461bcd60e51b81526004016106ed90613ef7565b60608201516001600160a01b0316156112175760405162461bcd60e51b815260206004820181905260248201527f4672616d65207265776172642077617320616c726561647920636c61696d656460448201526064016106ed565b90516000908152600a6020526040902060010155565b61125160405180606001604052806000815260200160008152602001606081525090565b6000838152600e6020908152604080832085845290915281206001015490036112b05760405162461bcd60e51b8152602060048201526011602482015270131bdd08191bd95cdb89dd08195e1a5cdd607a1b60448201526064016106ed565b6000838152600e602090815260408083208584528252808320815160608101835281548152600182015481850152600282018054845181870281018701865281815292969395948701949293919290919084015b828210156113755760008481526020908190206040805160c08101825260068602909201805483526001808201548486015260028201546001600160a01b03169284019290925260038101546060840152600481015460808401526005015460a08301529083529092019101611304565b50505091525090949350505050565b6113d560405180610100016040528060008152602001600081526020016060815260200160006001600160a01b03168152602001600081526020016000815260200160008152602001600081525090565b6000828152600a602052604081205490036114025760405162461bcd60e51b81526004016106ed90613ef7565b6000828152600a6020908152604091829020825161010081018452815481526001820154818401526002820180548551818602810186018752818152929593949386019383018282801561147557602002820191906000526020600020905b815481526020019060010190808311611461575b505050918352505060038201546001600160a01b0316602082015260048201546040820152600582015460608201526006820154608082015260079091015460a09091015292915050565b6001600160a01b0382166000908152600c602052604081205460ff166114f85760405162461bcd60e51b81526004016106ed90613d63565b506001600160a01b03919091166000908152600c6020908152604080832093835260019093019052205490565b600060055482101561153957505060055490565b6005546115468184613f24565b6110f49190613f38565b6000818152600a6020526040812054810361157d5760405162461bcd60e51b81526004016106ed90613ef7565b600361158883611b6c565b600481111561159957611599613985565b146115f25760405162461bcd60e51b8152602060048201526024808201527f4672616d6520646f6573206e6f742068617665206120636c6f73652072617465604482015263081cd95d60e21b60648201526084016106ed565b6000828152600a602052604081206001015461160d90611525565b6000848152600e60209081526040808320848452825280832081516060810183528154815260018201548185015260028201805484518187028101870186528181529798509596919592949386019391929091879084015b828210156116d65760008481526020908190206040805160c08101825260068602909201805483526001808201548486015260028201546001600160a01b03169284019290925260038101546060840152600481015460808401526005015460a08301529083529092019101611665565b5050505081525050905060006116eb85610cc3565b90506000670de0b6b3a7640000600254836117069190613f38565b6117109190613f24565b6000878152600a6020526040902060058101829055600701549091506117368284613e13565b6117409190613e13565b6000878152600a60205260409081902060060191909155830151511561190f57600754604084015180516001600160a01b039092169163a9059cbb919061178990600190613e13565b8151811061179957611799613d90565b602002602001015160400151600a60008a8152602001908152602001600020600601546040518363ffffffff1660e01b81526004016117ed9291906001600160a01b03929092168252602082015260400190565b6020604051808303816000875af115801561180c573d6000803e3d6000fd5b505050506040513d601f19601f820116820180604052508101906118309190613df8565b506040830151805161184490600190613e13565b8151811061185457611854613d90565b6020908102919091018101516040908101516000898152600a909352918190206003810180546001600160a01b0319166001600160a01b03948516179055600754600854600590920154925163a9059cbb60e01b81529184166004830152602482019290925291169063a9059cbb906044016020604051808303816000875af11580156118e5573d6000803e3d6000fd5b505050506040513d601f19601f820116820180604052508101906119099190613df8565b506119ed565b6007546008546000888152600a6020526040902060058101546006909101546001600160a01b039384169363a9059cbb93169161194b91613dd5565b6040516001600160e01b031960e085901b1681526001600160a01b03909216600483015260248201526044016020604051808303816000875af1158015611996573d6000803e3d6000fd5b505050506040513d601f19601f820116820180604052508101906119ba9190613df8565b506008546000878152600a6020526040902060030180546001600160a01b0319166001600160a01b039092169190911790555b6000868152600a6020526040908190206001810154600490910155517f906ff162b3f2709ab28fb678d43913964434148dd206e9b17adb3c1255090cb190611a36908590613bf4565b60405180910390a16000868152600a60205260409081902090517f929af310c689982c60d4ec73c6e4b602e89c6f6a31da7c2df4888fb0627cb2b191611a7b91613e5b565b60405180910390a150505060009283525050600a602052604090206006015490565b6004805460408051633850c7bd60e01b8152905160009384936001600160a01b031692633850c7bd928183019260e0928290030181865afa158015611ae6573d6000803e3d6000fd5b505050506040513d601f19601f82011682018060405250810190611b0a9190613f61565b50505050505090506000816001600160a01b031690506000600160601b82670de0b6b3a7640000611b3b9190613f38565b611b459190613f24565b9050670de0b6b3a7640000611b5a8280613f38565b611b649190613f24565b949350505050565b6000818152600a60205260408120548103611b8957506000919050565b6000828152600a60205260409020600301546001600160a01b031615611bb157506004919050565b60008054838252600a602052604090912054611bcd9190613dd5565b421015611bdc57506001919050565b6000828152600a602052604090206001015415611bfb57506003919050565b506002919050565b6008546001600160a01b03163314611c6e5760405162461bcd60e51b815260206004820152602860248201527f4f6e6c79206f776e65722063616e207769746864726177206163636f756e74696044820152673733903a37b5b2b760c11b60648201526084016106ed565b60075460085460405163a9059cbb60e01b81526001600160a01b0391821660048201526024810184905291169063a9059cbb906044016020604051808303816000875af1158015611cc3573d6000803e3d6000fd5b505050506040513d601f19601f82011682018060405250810190611ce79190613df8565b5050565b6000611cf6856110fa565b90506000611d0385611525565b6000838152600e6020908152604080832084845290915281206001015491925003611d5b576000828152600a60205260408120549003611d4857611d468661222c565b505b611d5482828686612369565b5050610a12565b6000828152600e6020908152604080832084845290915290206002018054339190611d8890600190613e13565b81548110611d9857611d98613d90565b60009182526020909120600260069092020101546001600160a01b031603611dc557611d54828286612679565b611dd182828686612ad5565b6000828152600e602090815260408083208484529091529081902090517f906ff162b3f2709ab28fb678d43913964434148dd206e9b17adb3c1255090cb191611e1991613ffb565b60405180910390a1505050505050565b60004260005484611e3a9190613dd5565b11611e875760405162461bcd60e51b815260206004820152601d60248201527f4672616d652068617320746f20626520696e207468652066757475726500000060448201526064016106ed565b60008054600654611e989190613f24565b905060004260005486611eab9190613dd5565b611eb59190613e13565b90506000670de0b6b3a764000085611ecd8585613f38565b611ed79190613f38565b611ee19190613f24565b9695505050505050565b6000828152600e602090815260408083208484528252808320600201805482518185028101850190935280835260609492939192909184015b82821015611f955760008481526020908190206040805160c08101825260068602909201805483526001808201548486015260028201546001600160a01b03169284019290925260038101546060840152600481015460808401526005015460a08301529083529092019101611f24565b50505050905092915050565b6000806003548342611fb39190613e13565b611fbd9190613dd5565b90506000611fcb8442613e13565b6040805160028082526060820183529293506000929091602083019080368337019050509050828160008151811061200557612005613d90565b602002602001019063ffffffff16908163ffffffff1681525050818160018151811061203357612033613d90565b63ffffffff909216602092830291909101909101526004805460405163883bdbfd60e01b81526000926001600160a01b039092169163883bdbfd9161207a918691016140a9565b600060405180830381865afa158015612097573d6000803e3d6000fd5b505050506040513d6000823e601f3d908101601f191682016040526120bf919081019061414b565b5090506000816000815181106120d7576120d7613d90565b602002602001015160060b826001815181106120f5576120f5613d90565b602002602001015160060b61210a9190614217565b905060008112156121535760405162461bcd60e51b81526020600482015260136024820152724e65676174697665207469636b2064656c746160681b60448201526064016106ed565b80600061216963ffffffff808816908916613e13565b905060006121778284613f24565b9050600061218482613087565b905060006121a266010000000000006001600160a01b038416613f24565b905060006121b08280613f38565b90506000600160601b6121cb83670de0b6b3a7640000613f38565b6121d59190613f24565b9e9d5050505050505050505050505050565b611ce782826040516024016121fd929190614237565b60408051601f198184030181529190526020810180516001600160e01b0316632d839cb360e21b17905261346a565b600080612238836110fa565b6000818152600a60205260409020549091501561228e5760405162461bcd60e51b81526020600482015260146024820152734672616d6520616c72656164792065786973747360601b60448201526064016106ed565b426000548261229d9190613dd5565b10156122eb5760405162461bcd60e51b815260206004820152601d60248201527f4672616d652068617320746f20626520696e207468652066757475726500000060448201526064016106ed565b6000818152600a602052604090819020828155600b8054600181019091557f0175b7a638427703f0dbe7bb9bbf987a2551717b34e79f33b5b1008d1fa01db90183905590517f929af310c689982c60d4ec73c6e4b602e89c6f6a31da7c2df4888fb0627cb2b19161235b91613e5b565b60405180910390a192915050565b60006123758584611e29565b9050600081116123975760405162461bcd60e51b81526004016106ed9061428c565b600754604051636eb1769f60e11b815233600482015230602482015282916001600160a01b03169063dd62ed3e90604401602060405180830381865afa1580156123e5573d6000803e3d6000fd5b505050506040513d601f19601f8201168201806040525081019061240991906142e9565b10156124275760405162461bcd60e51b81526004016106ed90614302565b6000858152600e60209081526040808320878452909152902060010154156124865760405162461bcd60e51b81526020600482015260126024820152714c6f7420616c72656164792065786973747360701b60448201526064016106ed565b6040805160c081018252438152426020808301918252338385019081526060840188815260808501878152600060a087018181528d8252600e86528882208d835286529781208d815560018082018e90556002808301805480840182558186529885208b516006909a0201988955985191880191909155945194860180546001600160a01b0319166001600160a01b039096169590951790945591516003850155516004840155945160059092019190915592879052805491929182918291612551919081906137d7565b5050506000878152600a602090815260408083206001808601546002909201805491820181558552929093209091019190915560075490516323b872dd60e01b81526001600160a01b03909116906323b872dd906125b790339030908890600401614339565b6020604051808303816000875af11580156125d6573d6000803e3d6000fd5b505050506040513d601f19601f820116820180604052508101906125fa9190613df8565b50336000908152600c602052604090205460ff1661261b5761261b84613476565b336000908152600c60205260408082205461010090046001600160a01b0316825290205460ff161561267057336000908152600c60205260409020546126709061010090046001600160a01b03168489613633565b50505050505050565b6000838152600e60209081526040808320858452909152812060020180546126d09186916126a990600190613e13565b815481106126b9576126b9613d90565b906000526020600020906006020160030154611e29565b905060006126de8584611e29565b9050808211156128c35760006126f48284613e13565b6007546000888152600e602090815260408083208a8452909152902060020180549293506001600160a01b039091169163a9059cbb919061273790600190613e13565b8154811061274757612747613d90565b600091825260209091206006909102016002015460405160e083901b6001600160e01b03191681526001600160a01b039091166004820152602481018490526044016020604051808303816000875af11580156127a8573d6000803e3d6000fd5b505050506040513d601f19601f820116820180604052508101906127cc9190613df8565b506000868152600e602090815260408083208884528252808320815160c0810183524381524281850190815233828501818152606084018c81526080850189815260a086018b81526002978801805460018082018355918d528b8d2098516006909102909801978855955195870195909555915195850180546001600160a01b0319166001600160a01b0397881617905551600385015551600484015590516005909201919091558452600c909252808320546101009004909116825290205460ff16156128bd57336000908152600c60205260409020546128bd9061010090046001600160a01b031682886136fa565b50612ace565b60006128cf8383613e13565b600754604051636eb1769f60e11b815233600482015230602482015291925082916001600160a01b039091169063dd62ed3e90604401602060405180830381865afa158015612922573d6000803e3d6000fd5b505050506040513d601f19601f8201168201806040525081019061294691906142e9565b10156129645760405162461bcd60e51b81526004016106ed90614302565b6007546040516323b872dd60e01b81526001600160a01b03909116906323b872dd9061299890339030908690600401614339565b6020604051808303816000875af11580156129b7573d6000803e3d6000fd5b505050506040513d601f19601f820116820180604052508101906129db9190613df8565b506000868152600e602090815260408083208884528252808320815160c0810183524381524281850190815233828501818152606084018c8152608085018a815260a086018a81526002978801805460018082018355918d528b8d2098516006909102909801978855955195870195909555915195850180546001600160a01b0319166001600160a01b0397881617905551600385015551600484015590516005909201919091558452600c909252808320546101009004909116825290205460ff1615612acc57336000908152600c6020526040902054612acc9061010090046001600160a01b03168288613633565b505b5050505050565b6000848152600e6020908152604080832086845290915281206002018054612aff90600190613e13565b81548110612b0f57612b0f613d90565b600091825260208220600260069092020101546001600160a01b03169150612b378685611e29565b905060008111612b595760405162461bcd60e51b81526004016106ed9061428c565b6000868152600e6020908152604080832088845290915281206002018054612b8390600190613e13565b81548110612b9357612b93613d90565b90600052602060002090600602016003015490508082612bb39190613dd5565b600754604051636eb1769f60e11b81523360048201523060248201526001600160a01b039091169063dd62ed3e90604401602060405180830381865afa158015612c01573d6000803e3d6000fd5b505050506040513d601f19601f82011682018060405250810190612c2591906142e9565b1015612c435760405162461bcd60e51b81526004016106ed90614302565b6007546040516323b872dd60e01b81526001600160a01b03909116906323b872dd90612c7790339030908790600401614339565b6020604051808303816000875af1158015612c96573d6000803e3d6000fd5b505050506040513d601f19601f82011682018060405250810190612cba9190613df8565b506007546040516323b872dd60e01b81526001600160a01b03909116906323b872dd90612cef90339087908690600401614339565b6020604051808303816000875af1158015612d0e573d6000803e3d6000fd5b505050506040513d601f19601f82011682018060405250810190612d329190613df8565b506000878152600e6020908152604080832089845290915281206002018054612d63918a916126a990600190613e13565b60075460405163a9059cbb60e01b81526001600160a01b0387811660048301526024820184905292935091169063a9059cbb906044016020604051808303816000875af1158015612db8573d6000803e3d6000fd5b505050506040513d601f19601f82011682018060405250810190612ddc9190613df8565b50336000908152600c602052604090205460ff16612dfd57612dfd85613476565b336000908152600c60205260408082205461010090046001600160a01b0316825290205460ff1615612e5257336000908152600c6020526040902054612e529061010090046001600160a01b0316848a613633565b6001600160a01b038085166000908152600c60205260408082205461010090049092168152205460ff1615612ead576001600160a01b038085166000908152600c6020526040902054612ead9161010090910416828a6136fa565b600e600089815260200190815260200160002060008881526020019081526020016000206002016040518060c00160405280438152602001428152602001866001600160a01b0316815260200184815260200160008152602001838152509080600181540180825580915050600190039060005260206000209060060201600090919091909150600082015181600001556020820151816001015560408201518160020160006101000a8154816001600160a01b0302191690836001600160a01b03160217905550606082015181600301556080820151816004015560a082015181600501555050600e600089815260200190815260200160002060008881526020019081526020016000206002016040518060c00160405280438152602001428152602001336001600160a01b0316815260200188815260200185815260200160008152509080600181540180825580915050600190039060005260206000209060060201600090919091909150600082015181600001556020820151816001015560408201518160020160006101000a8154816001600160a01b0302191690836001600160a01b03160217905550606082015181600301556080820151816004015560a0820151816005015550505050505050505050565b600081620d89e88111156130c15760405162461bcd60e51b81526020600482015260016024820152601560fa1b60448201526064016106ed565b6000816001166000036130d857600160801b6130ea565b6ffffcb933bd6fad37aa2d162d1a5940015b70ffffffffffffffffffffffffffffffffff1690506002821615613129576080613124826ffff97272373d413259a46990580e213a613f38565b901c90505b600482161561315357608061314e826ffff2e50f5f656932ef12357cf3c7fdcc613f38565b901c90505b600882161561317d576080613178826fffe5caca7e10e4e61c3624eaa0941cd0613f38565b901c90505b60108216156131a75760806131a2826fffcb9843d60f6159c9db58835c926644613f38565b901c90505b60208216156131d15760806131cc826fff973b41fa98c081472e6896dfb254c0613f38565b901c90505b60408216156131fb5760806131f6826fff2ea16466c96a3843ec78b326b52861613f38565b901c90505b6080821615613225576080613220826ffe5dee046a99a2a811c461f1969c3053613f38565b901c90505b61010082161561325057608061324b826ffcbe86c7900a88aedcffc83b479aa3a4613f38565b901c90505b61020082161561327b576080613276826ff987a7253ac413176f2b074cf7815e54613f38565b901c90505b6104008216156132a65760806132a1826ff3392b0822b70005940c7a398e4b70f3613f38565b901c90505b6108008216156132d15760806132cc826fe7159475a2c29b7443b29c7fa6e889d9613f38565b901c90505b6110008216156132fc5760806132f7826fd097f3bdfd2022b8845ad8f792aa5825613f38565b901c90505b612000821615613327576080613322826fa9f746462d870fdf8a65dc1f90e061e5613f38565b901c90505b61400082161561335257608061334d826f70d869a156d2a1b890bb3df62baf32f7613f38565b901c90505b61800082161561337d576080613378826f31be135f97d08fd981231505542fcfa6613f38565b901c90505b620100008216156133a95760806133a4826f09aa508b5b7a84e1c677de54f3e99bc9613f38565b901c90505b620200008216156133d45760806133cf826e5d6af8dedb81196699c329225ee604613f38565b901c90505b620400008216156133fe5760806133f9826d2216e584f5fa1ea926041bedfe98613f38565b901c90505b62080000821615613426576080613421826b048a170391f7dc42444e8fa2613f38565b901c90505b831561343b5761343881600019613f24565b90505b61344a64010000000082613ee3565b15613456576001613459565b60005b611b649060ff16602083901c613dd5565b613473816137b6565b50565b336000908152600c602052604090205460ff16156134cc5760405162461bcd60e51b81526020600482015260136024820152725573657220616c72656164792065786973747360681b60448201526064016106ed565b6001600160a01b03811661355557336000818152600c6020526040812080546001600160a01b0394909416610100026001600160a81b0319909416939093176001908117909355600d8054938401815590527fd7b6990105719101dabeb77144f2a3385c8033acd3af97e9423a695e81ad1eb590910180546001600160a01b0319169091179055565b6001600160a01b0381166000908152600c602052604090205460ff166135bd5760405162461bcd60e51b815260206004820152601760248201527f526566657272657220646f6573206e6f7420657869737400000000000000000060448201526064016106ed565b600d805460018181019092557fd7b6990105719101dabeb77144f2a3385c8033acd3af97e9423a695e81ad1eb50180546001600160a01b031916339081179091556000908152600c6020526040902080546001600160a01b0393909316610100026001600160a81b031990931692909217179055565b6001600160a01b0383166000908152600c602052604090205460ff1661366b5760405162461bcd60e51b81526004016106ed90613d63565b6000670de0b6b3a7640000600954846136849190613f38565b61368e9190613f24565b6001600160a01b0385166000908152600c602090815260408083208684526001019091528120805492935083929091906136c9908490613dd5565b90915550506000828152600a6020526040812060070180548392906136ef908490613dd5565b909155505050505050565b6001600160a01b0383166000908152600c602052604090205460ff166137325760405162461bcd60e51b81526004016106ed90613d63565b6000670de0b6b3a76400006009548461374b9190613f38565b6137559190613f24565b6001600160a01b0385166000908152600c60209081526040808320868452600101909152812080549293508392909190613790908490613e13565b90915550506000828152600a6020526040812060070180548392906136ef908490613e13565b60006a636f6e736f6c652e6c6f679050600080835160208501845afa505050565b82805482825590600052602060002090600602810192821561386b5760005260206000209160060282015b8281111561386b57825482556001808401549083015560028084015490830180546001600160a01b0319166001600160a01b0390921691909117905560038084015490830155600480840154908301556005808401549083015560069283019290910190613802565b5061387792915061387b565b5090565b5b80821115613877576000808255600182018190556002820180546001600160a01b03191690556003820181905560048201819055600582015560060161387c565b6000602082840312156138cf57600080fd5b5035919050565b6020808252825182820181905260009190848201906040850190845b8181101561390e578351835292840192918401916001016138f2565b50909695505050505050565b6001600160a01b038116811461347357600080fd5b803561393a8161391a565b919050565b60006020828403121561395157600080fd5b813561395c8161391a565b9392505050565b6000806040838503121561397657600080fd5b50508035926020909101359150565b634e487b7160e01b600052602160045260246000fd5b60208101600483106139af576139af613985565b91905290565b634e487b7160e01b600052604160045260246000fd5b604051610100810167ffffffffffffffff811182821017156139ef576139ef6139b5565b60405290565b604051601f8201601f1916810167ffffffffffffffff81118282101715613a1e57613a1e6139b5565b604052919050565b600067ffffffffffffffff821115613a4057613a406139b5565b5060051b60200190565b600082601f830112613a5b57600080fd5b81356020613a70613a6b83613a26565b6139f5565b82815260059290921b84018101918181019086841115613a8f57600080fd5b8286015b84811015613aaa5780358352918301918301613a93565b509695505050505050565b60008060408385031215613ac857600080fd5b823567ffffffffffffffff80821115613ae057600080fd5b908401906101008287031215613af557600080fd5b613afd6139cb565b8235815260208301356020820152604083013582811115613b1d57600080fd5b613b2988828601613a4a565b604083015250613b3b6060840161392f565b60608201526080830135608082015260a083013560a082015260c083013560c082015260e083013560e0820152809450505050602083013590509250929050565b600081518084526020808501945080840160005b83811015613be95781518051885283810151848901526040808201516001600160a01b031690890152606080820151908901526080808201519089015260a0908101519088015260c09096019590820190600101613b90565b509495945050505050565b60208152815160208201526020820151604082015260006040830151606080840152611b646080840182613b7c565b6000602080835261012083018451828501528185015160408501526040850151610100806060870152828251808552610140880191508584019450600093505b80841015613c835784518252938501936001939093019290850190613c63565b5060608801516001600160a01b03811660808901529450608088015160a088015260a088015160c088015260c088015160e088015260e088015182880152809550505050505092915050565b60008060408385031215613ce257600080fd5b8235613ced8161391a565b946020939093013593505050565b60208101600583106139af576139af613985565b60008060008060808587031215613d2557600080fd5b8435935060208501359250604085013591506060850135613d458161391a565b939692955090935050565b60208152600061395c6020830184613b7c565b602080825260139082015272155cd95c88191bd95cc81b9bdd08195e1a5cdd606a1b604082015260600190565b634e487b7160e01b600052603260045260246000fd5b634e487b7160e01b600052601160045260246000fd5b600060018201613dce57613dce613da6565b5060010190565b808201808211156110f4576110f4613da6565b8051801515811461393a57600080fd5b600060208284031215613e0a57600080fd5b61395c82613de8565b818103818111156110f4576110f4613da6565b6000815480845260208085019450836000528060002060005b83811015613be957815487529582019560019182019101613e3f565b6020815281546020820152600182015460408201526000610100806060840152613e8c610120840160028601613e26565b60038501546001600160a01b03166080850152600485015460a0850152600585015460c0850152600685015460e08501526007909401549201919091525090565b634e487b7160e01b600052601260045260246000fd5b600082613ef257613ef2613ecd565b500690565b602080825260139082015272119c985b5948191bd95cdb89dd08195e1a5cdd606a1b604082015260600190565b600082613f3357613f33613ecd565b500490565b80820281158282048414176110f4576110f4613da6565b805161ffff8116811461393a57600080fd5b600080600080600080600060e0888a031215613f7c57600080fd5b8751613f878161391a565b8097505060208801518060020b8114613f9f57600080fd5b9550613fad60408901613f4f565b9450613fbb60608901613f4f565b9350613fc960808901613f4f565b925060a088015160ff81168114613fdf57600080fd5b9150613fed60c08901613de8565b905092959891949750929550565b6000602080835260808084018554838601526001808701546040818189015260029150818901606080818b015285825480885260a09750878c0191508360005289600020935060005b818110156140975784548352878501548b840152868501546001600160a01b03168684015260038501548484015260048501548a84015260058501548984015260069094019360c0909201918701614044565b50909c9b505050505050505050505050565b6020808252825182820181905260009190848201906040850190845b8181101561390e57835163ffffffff16835292840192918401916001016140c5565b600082601f8301126140f857600080fd5b81516020614108613a6b83613a26565b82815260059290921b8401810191818101908684111561412757600080fd5b8286015b84811015613aaa57805161413e8161391a565b835291830191830161412b565b6000806040838503121561415e57600080fd5b825167ffffffffffffffff8082111561417657600080fd5b818501915085601f83011261418a57600080fd5b8151602061419a613a6b83613a26565b82815260059290921b840181019181810190898411156141b957600080fd5b948201945b838610156141e75785518060060b81146141d85760008081fd5b825294820194908201906141be565b9188015191965090935050508082111561420057600080fd5b5061420d858286016140e7565b9150509250929050565b8181036000831280158383131683831282161715610e8957610e89613da6565b604081526000835180604084015260005b818110156142655760208187018101516060868401015201614248565b506000606082850101526060601f19601f8301168401019150508260208301529392505050565b6020808252603c908201527f5461782068617320746f2062652067726561746572207468616e20302e20496e60408201527f63726561736520746865206163717569736974696f6e20707269636500000000606082015260800190565b6000602082840312156142fb57600080fd5b5051919050565b6020808252601e908201527f416c6c6f77616e636520746f207370656e642073657420746f6f206c6f770000604082015260600190565b6001600160a01b03938416815291909216602082015260408101919091526060019056fea26469706673582212203b972ce20706aaa1123bc2e5bdd5fa8b4066ab65ffe8f7c90cbabe854e2a186064736f6c63430008140033",
  "linkReferences": {},
  "deployedLinkReferences": {}
}