{
  "_format": "hh-sol-artifact-1",
  "contractName": "Market",
  "sourceName": "contracts/Market.sol",
  "abi": [
    {
      "inputs": [],
      "stateMutability": "nonpayable",
      "type": "constructor"
    },
    {
      "anonymous": false,
      "inputs": [
        {
          "components": [
            {
              "internalType": "uint256",
              "name": "frameKey",
              "type": "uint256"
            },
            {
              "internalType": "uint256",
              "name": "rate",
              "type": "uint256"
            },
            {
              "internalType": "uint256[]",
              "name": "lotKeys",
              "type": "uint256[]"
            },
            {
              "internalType": "address",
              "name": "claimedBy",
              "type": "address"
            },
            {
              "internalType": "uint256",
              "name": "rateSettle",
              "type": "uint256"
            },
            {
              "internalType": "uint256",
              "name": "feeSettle",
              "type": "uint256"
            },
            {
              "internalType": "uint256",
              "name": "rewardSettle",
              "type": "uint256"
            },
            {
              "internalType": "uint256",
              "name": "feeReferral",
              "type": "uint256"
            }
          ],
          "indexed": false,
          "internalType": "struct Market.Frame",
          "name": "frame",
          "type": "tuple"
        }
      ],
      "name": "FrameUpdate",
      "type": "event"
    },
    {
      "anonymous": false,
      "inputs": [
        {
          "components": [
            {
              "internalType": "uint256",
              "name": "frameKey",
              "type": "uint256"
            },
            {
              "internalType": "uint256",
              "name": "lotKey",
              "type": "uint256"
            },
            {
              "components": [
                {
                  "internalType": "uint256",
                  "name": "blockNumber",
                  "type": "uint256"
                },
                {
                  "internalType": "uint256",
                  "name": "blockTimestamp",
                  "type": "uint256"
                },
                {
                  "internalType": "address",
                  "name": "owner",
                  "type": "address"
                },
                {
                  "internalType": "uint256",
                  "name": "acquisitionPrice",
                  "type": "uint256"
                },
                {
                  "internalType": "uint256",
                  "name": "taxCharged",
                  "type": "uint256"
                },
                {
                  "internalType": "uint256",
                  "name": "taxRefunded",
                  "type": "uint256"
                }
              ],
              "internalType": "struct Market.LotState[]",
              "name": "states",
              "type": "tuple[]"
            }
          ],
          "indexed": false,
          "internalType": "struct Market.Lot",
          "name": "lot",
          "type": "tuple"
        }
      ],
      "name": "LotUpdate",
      "type": "event"
    },
    {
      "inputs": [],
      "name": "accountingToken",
      "outputs": [
        {
          "internalType": "contract IERC20",
          "name": "",
          "type": "address"
        }
      ],
      "stateMutability": "view",
      "type": "function"
    },
    {
      "inputs": [],
      "name": "claimReferralRewards",
      "outputs": [],
      "stateMutability": "nonpayable",
      "type": "function"
    },
    {
      "inputs": [
        {
          "internalType": "uint256",
          "name": "timestamp",
          "type": "uint256"
        }
      ],
      "name": "clcFrameKey",
      "outputs": [
        {
          "internalType": "uint256",
          "name": "",
          "type": "uint256"
        }
      ],
      "stateMutability": "view",
      "type": "function"
    },
    {
      "inputs": [
        {
          "internalType": "uint256",
          "name": "value",
          "type": "uint256"
        }
      ],
      "name": "clcLotKey",
      "outputs": [
        {
          "internalType": "uint256",
          "name": "",
          "type": "uint256"
        }
      ],
      "stateMutability": "view",
      "type": "function"
    },
    {
      "inputs": [],
      "name": "clcRate",
      "outputs": [
        {
          "internalType": "uint256",
          "name": "",
          "type": "uint256"
        }
      ],
      "stateMutability": "view",
      "type": "function"
    },
    {
      "inputs": [
        {
          "internalType": "uint256",
          "name": "timestamp",
          "type": "uint256"
        }
      ],
      "name": "clcRateAvg",
      "outputs": [
        {
          "internalType": "uint256",
          "name": "",
          "type": "uint256"
        }
      ],
      "stateMutability": "view",
      "type": "function"
    },
    {
      "inputs": [
        {
          "internalType": "uint256",
          "name": "tax",
          "type": "uint256"
        }
      ],
      "name": "clcReferralReward",
      "outputs": [
        {
          "internalType": "uint256",
          "name": "",
          "type": "uint256"
        }
      ],
      "stateMutability": "view",
      "type": "function"
    },
    {
      "inputs": [
        {
          "internalType": "uint256",
          "name": "frameKey",
          "type": "uint256"
        }
      ],
      "name": "clcRewardFund",
      "outputs": [
        {
          "internalType": "uint256",
          "name": "",
          "type": "uint256"
        }
      ],
      "stateMutability": "view",
      "type": "function"
    },
    {
      "inputs": [
        {
          "internalType": "uint256",
          "name": "frameKey",
          "type": "uint256"
        }
      ],
      "name": "clcRewardFundMin",
      "outputs": [
        {
          "internalType": "uint256",
          "name": "",
          "type": "uint256"
        }
      ],
      "stateMutability": "view",
      "type": "function"
    },
    {
      "inputs": [
        {
          "internalType": "uint256",
          "name": "frameKey",
          "type": "uint256"
        },
        {
          "internalType": "uint256",
          "name": "acquisitionPrice",
          "type": "uint256"
        }
      ],
      "name": "clcTax",
      "outputs": [
        {
          "internalType": "uint256",
          "name": "",
          "type": "uint256"
        }
      ],
      "stateMutability": "view",
      "type": "function"
    },
    {
      "inputs": [],
      "name": "dPrice",
      "outputs": [
        {
          "internalType": "uint256",
          "name": "",
          "type": "uint256"
        }
      ],
      "stateMutability": "view",
      "type": "function"
    },
    {
      "inputs": [],
      "name": "feeProtocol",
      "outputs": [
        {
          "internalType": "uint256",
          "name": "",
          "type": "uint256"
        }
      ],
      "stateMutability": "view",
      "type": "function"
    },
    {
      "inputs": [
        {
          "internalType": "uint256",
          "name": "",
          "type": "uint256"
        }
      ],
      "name": "frames",
      "outputs": [
        {
          "internalType": "uint256",
          "name": "frameKey",
          "type": "uint256"
        },
        {
          "internalType": "uint256",
          "name": "rate",
          "type": "uint256"
        },
        {
          "internalType": "address",
          "name": "claimedBy",
          "type": "address"
        },
        {
          "internalType": "uint256",
          "name": "rateSettle",
          "type": "uint256"
        },
        {
          "internalType": "uint256",
          "name": "feeSettle",
          "type": "uint256"
        },
        {
          "internalType": "uint256",
          "name": "rewardSettle",
          "type": "uint256"
        },
        {
          "internalType": "uint256",
          "name": "feeReferral",
          "type": "uint256"
        }
      ],
      "stateMutability": "view",
      "type": "function"
    },
    {
      "inputs": [
        {
          "internalType": "uint256",
          "name": "",
          "type": "uint256"
        }
      ],
      "name": "framesKeys",
      "outputs": [
        {
          "internalType": "uint256",
          "name": "",
          "type": "uint256"
        }
      ],
      "stateMutability": "view",
      "type": "function"
    },
    {
      "inputs": [
        {
          "internalType": "uint256",
          "name": "frameKey",
          "type": "uint256"
        }
      ],
      "name": "getFrame",
      "outputs": [
        {
          "components": [
            {
              "internalType": "uint256",
              "name": "frameKey",
              "type": "uint256"
            },
            {
              "internalType": "uint256",
              "name": "rate",
              "type": "uint256"
            },
            {
              "internalType": "uint256[]",
              "name": "lotKeys",
              "type": "uint256[]"
            },
            {
              "internalType": "address",
              "name": "claimedBy",
              "type": "address"
            },
            {
              "internalType": "uint256",
              "name": "rateSettle",
              "type": "uint256"
            },
            {
              "internalType": "uint256",
              "name": "feeSettle",
              "type": "uint256"
            },
            {
              "internalType": "uint256",
              "name": "rewardSettle",
              "type": "uint256"
            },
            {
              "internalType": "uint256",
              "name": "feeReferral",
              "type": "uint256"
            }
          ],
          "internalType": "struct Market.Frame",
          "name": "",
          "type": "tuple"
        }
      ],
      "stateMutability": "view",
      "type": "function"
    },
    {
      "inputs": [
        {
          "internalType": "uint256",
          "name": "frameKey",
          "type": "uint256"
        }
      ],
      "name": "getFrameLotKeys",
      "outputs": [
        {
          "internalType": "uint256[]",
          "name": "",
          "type": "uint256[]"
        }
      ],
      "stateMutability": "view",
      "type": "function"
    },
    {
      "inputs": [
        {
          "internalType": "uint256",
          "name": "frameKey",
          "type": "uint256"
        },
        {
          "internalType": "uint256",
          "name": "lotKey",
          "type": "uint256"
        }
      ],
      "name": "getLot",
      "outputs": [
        {
          "components": [
            {
              "internalType": "uint256",
              "name": "frameKey",
              "type": "uint256"
            },
            {
              "internalType": "uint256",
              "name": "lotKey",
              "type": "uint256"
            },
            {
              "components": [
                {
                  "internalType": "uint256",
                  "name": "blockNumber",
                  "type": "uint256"
                },
                {
                  "internalType": "uint256",
                  "name": "blockTimestamp",
                  "type": "uint256"
                },
                {
                  "internalType": "address",
                  "name": "owner",
                  "type": "address"
                },
                {
                  "internalType": "uint256",
                  "name": "acquisitionPrice",
                  "type": "uint256"
                },
                {
                  "internalType": "uint256",
                  "name": "taxCharged",
                  "type": "uint256"
                },
                {
                  "internalType": "uint256",
                  "name": "taxRefunded",
                  "type": "uint256"
                }
              ],
              "internalType": "struct Market.LotState[]",
              "name": "states",
              "type": "tuple[]"
            }
          ],
          "internalType": "struct Market.Lot",
          "name": "",
          "type": "tuple"
        }
      ],
      "stateMutability": "view",
      "type": "function"
    },
    {
      "inputs": [
        {
          "internalType": "uint256",
          "name": "frameKey",
          "type": "uint256"
        },
        {
          "internalType": "uint256",
          "name": "lotKey",
          "type": "uint256"
        }
      ],
      "name": "getLotStates",
      "outputs": [
        {
          "components": [
            {
              "internalType": "uint256",
              "name": "blockNumber",
              "type": "uint256"
            },
            {
              "internalType": "uint256",
              "name": "blockTimestamp",
              "type": "uint256"
            },
            {
              "internalType": "address",
              "name": "owner",
              "type": "address"
            },
            {
              "internalType": "uint256",
              "name": "acquisitionPrice",
              "type": "uint256"
            },
            {
              "internalType": "uint256",
              "name": "taxCharged",
              "type": "uint256"
            },
            {
              "internalType": "uint256",
              "name": "taxRefunded",
              "type": "uint256"
            }
          ],
          "internalType": "struct Market.LotState[]",
          "name": "",
          "type": "tuple[]"
        }
      ],
      "stateMutability": "view",
      "type": "function"
    },
    {
      "inputs": [
        {
          "internalType": "uint256",
          "name": "frameKey",
          "type": "uint256"
        }
      ],
      "name": "getLotsKeysInFrame",
      "outputs": [
        {
          "internalType": "uint256[]",
          "name": "",
          "type": "uint256[]"
        }
      ],
      "stateMutability": "view",
      "type": "function"
    },
    {
      "inputs": [
        {
          "internalType": "uint256",
          "name": "frameKey",
          "type": "uint256"
        }
      ],
      "name": "getStateFrame",
      "outputs": [
        {
          "internalType": "enum Market.SFrame",
          "name": "",
          "type": "uint8"
        }
      ],
      "stateMutability": "view",
      "type": "function"
    },
    {
      "inputs": [
        {
          "internalType": "uint256",
          "name": "frameKey",
          "type": "uint256"
        },
        {
          "internalType": "uint256",
          "name": "lotKey",
          "type": "uint256"
        }
      ],
      "name": "getStateLot",
      "outputs": [
        {
          "internalType": "enum Market.SLot",
          "name": "",
          "type": "uint8"
        }
      ],
      "stateMutability": "view",
      "type": "function"
    },
    {
      "inputs": [],
      "name": "getUncollectedRewards",
      "outputs": [
        {
          "internalType": "uint256",
          "name": "",
          "type": "uint256"
        }
      ],
      "stateMutability": "view",
      "type": "function"
    },
    {
      "inputs": [
        {
          "internalType": "address",
          "name": "user",
          "type": "address"
        },
        {
          "internalType": "uint256",
          "name": "frameKey",
          "type": "uint256"
        }
      ],
      "name": "getUserReward",
      "outputs": [
        {
          "internalType": "uint256",
          "name": "",
          "type": "uint256"
        }
      ],
      "stateMutability": "view",
      "type": "function"
    },
    {
      "inputs": [],
      "name": "initTimestamp",
      "outputs": [
        {
          "internalType": "uint256",
          "name": "",
          "type": "uint256"
        }
      ],
      "stateMutability": "view",
      "type": "function"
    },
    {
      "inputs": [
        {
          "internalType": "uint256",
          "name": "",
          "type": "uint256"
        },
        {
          "internalType": "uint256",
          "name": "",
          "type": "uint256"
        }
      ],
      "name": "lots",
      "outputs": [
        {
          "internalType": "uint256",
          "name": "frameKey",
          "type": "uint256"
        },
        {
          "internalType": "uint256",
          "name": "lotKey",
          "type": "uint256"
        }
      ],
      "stateMutability": "view",
      "type": "function"
    },
    {
      "inputs": [
        {
          "components": [
            {
              "internalType": "uint256",
              "name": "frameKey",
              "type": "uint256"
            },
            {
              "internalType": "uint256",
              "name": "rate",
              "type": "uint256"
            },
            {
              "internalType": "uint256[]",
              "name": "lotKeys",
              "type": "uint256[]"
            },
            {
              "internalType": "address",
              "name": "claimedBy",
              "type": "address"
            },
            {
              "internalType": "uint256",
              "name": "rateSettle",
              "type": "uint256"
            },
            {
              "internalType": "uint256",
              "name": "feeSettle",
              "type": "uint256"
            },
            {
              "internalType": "uint256",
              "name": "rewardSettle",
              "type": "uint256"
            },
            {
              "internalType": "uint256",
              "name": "feeReferral",
              "type": "uint256"
            }
          ],
          "internalType": "struct Market.Frame",
          "name": "frame",
          "type": "tuple"
        },
        {
          "internalType": "uint256",
          "name": "avgPrice",
          "type": "uint256"
        }
      ],
      "name": "overrideFrameRate",
      "outputs": [],
      "stateMutability": "nonpayable",
      "type": "function"
    },
    {
      "inputs": [],
      "name": "owner",
      "outputs": [
        {
          "internalType": "address",
          "name": "",
          "type": "address"
        }
      ],
      "stateMutability": "view",
      "type": "function"
    },
    {
      "inputs": [],
      "name": "period",
      "outputs": [
        {
          "internalType": "uint256",
          "name": "",
          "type": "uint256"
        }
      ],
      "stateMutability": "view",
      "type": "function"
    },
    {
      "inputs": [],
      "name": "referralPct",
      "outputs": [
        {
          "internalType": "uint256",
          "name": "",
          "type": "uint256"
        }
      ],
      "stateMutability": "view",
      "type": "function"
    },
    {
      "inputs": [
        {
          "internalType": "address",
          "name": "user",
          "type": "address"
        }
      ],
      "name": "referredBy",
      "outputs": [
        {
          "internalType": "address",
          "name": "",
          "type": "address"
        }
      ],
      "stateMutability": "view",
      "type": "function"
    },
    {
      "inputs": [
        {
          "internalType": "uint256",
          "name": "frameKey",
          "type": "uint256"
        }
      ],
      "name": "setFrameRate",
      "outputs": [],
      "stateMutability": "nonpayable",
      "type": "function"
    },
    {
      "inputs": [
        {
          "internalType": "uint256",
          "name": "frameKey",
          "type": "uint256"
        }
      ],
      "name": "settleFrame",
      "outputs": [
        {
          "internalType": "uint256",
          "name": "",
          "type": "uint256"
        }
      ],
      "stateMutability": "nonpayable",
      "type": "function"
    },
    {
      "inputs": [],
      "name": "tSettle",
      "outputs": [
        {
          "internalType": "uint256",
          "name": "",
          "type": "uint256"
        }
      ],
      "stateMutability": "view",
      "type": "function"
    },
    {
      "inputs": [],
      "name": "taxMarket",
      "outputs": [
        {
          "internalType": "uint256",
          "name": "",
          "type": "uint256"
        }
      ],
      "stateMutability": "view",
      "type": "function"
    },
    {
      "inputs": [
        {
          "internalType": "uint256",
          "name": "timestamp",
          "type": "uint256"
        },
        {
          "internalType": "uint256",
          "name": "rate",
          "type": "uint256"
        },
        {
          "internalType": "uint256",
          "name": "acquisitionPrice",
          "type": "uint256"
        },
        {
          "internalType": "address",
          "name": "referrer",
          "type": "address"
        }
      ],
      "name": "tradeLot",
      "outputs": [],
      "stateMutability": "nonpayable",
      "type": "function"
    },
    {
      "inputs": [],
      "name": "uniswapPool",
      "outputs": [
        {
          "internalType": "contract IUniswapV3Pool",
          "name": "",
          "type": "address"
        }
      ],
      "stateMutability": "view",
      "type": "function"
    },
    {
      "inputs": [
        {
          "internalType": "address",
          "name": "user",
          "type": "address"
        }
      ],
      "name": "userExists",
      "outputs": [
        {
          "internalType": "bool",
          "name": "",
          "type": "bool"
        }
      ],
      "stateMutability": "view",
      "type": "function"
    },
    {
      "inputs": [
        {
          "internalType": "address",
          "name": "",
          "type": "address"
        }
      ],
      "name": "users",
      "outputs": [
        {
          "internalType": "bool",
          "name": "exists",
          "type": "bool"
        },
        {
          "internalType": "address",
          "name": "referredBy",
          "type": "address"
        }
      ],
      "stateMutability": "view",
      "type": "function"
    },
    {
      "inputs": [
        {
          "internalType": "uint256",
          "name": "amount",
          "type": "uint256"
        }
      ],
      "name": "withdrawAccountingToken",
      "outputs": [],
      "stateMutability": "nonpayable",
      "type": "function"
    }
  ],
  "bytecode": "0x608060405262015180600055636592e180600155666a94d74f430000600255610258600355600480546001600160a01b03199081167367a9fe12fa6082d9d0203c84c6c56d3c4b269f281790915568056bc75e2d63100000600555662386f26fc1000060065560078054909116738f3cf7ad23cd3cadbd9735aff958023239c6a0631790556611c37937e0800060095534801561009b57600080fd5b50600880546001600160a01b031916331790556147a7806100bd6000396000f3fe608060405234801561001057600080fd5b506004361061023d5760003560e01c80638da5cb5b1161013b578063bad12653116100b8578063da68cf8b1161007c578063da68cf8b14610605578063e107fb4f14610618578063ef78d4fd1461062b578063fb0d5e0914610634578063ffdabe2d1461065457600080fd5b8063bad1265314610599578063bdd3d825146105b9578063d154ab24146105cc578063d18743dd146105df578063d8d50008146105f257600080fd5b8063a87430ba116100ff578063a87430ba146104b4578063a90f8e9a14610506578063b866debb14610537578063b93dafa91461054a578063ba4e137f1461059157600080fd5b80638da5cb5b146103c257806391a0846d146103ed5780639592de18146104005780639e9c4f0814610413578063a10340bc1461041c57600080fd5b8063499a0fc4116101c95780636f1aefc31161018d5780636f1aefc3146103675780637358c57a14610387578063773d51eb146103905780637e996639146103b05780638a5779c8146103b957600080fd5b8063499a0fc41461030f5780634c73884f14610318578063527eb4bc1461033857806361eee2cb1461034157806369ca9e051461035457600080fd5b8063112358181161021057806311235818146102ce5780632457e620146102725780632fd4d773146102d657806339a6a489146102e95780633baf1587146102fc57600080fd5b8063050e88401461024257806305eaab4b146102685780630d0a1c1a146102725780630e666e4914610292575b600080fd5b610255610250366004613cd1565b610667565b6040519081526020015b60405180910390f35b610270610688565b005b610285610280366004613cd1565b6109e2565b60405161025f9190613cea565b6102be6102a0366004613d53565b6001600160a01b03166000908152600c602052604090205460ff1690565b604051901515815260200161025f565b610255610a47565b6102556102e4366004613cd1565b610c63565b6102556102f7366004613cd1565b610c8c565b61027061030a366004613cd1565b610e59565b61025560055481565b61032b610326366004613d77565b610f96565b60405161025f9190613daf565b61025560025481565b61025561034f366004613cd1565b6110c2565b610270610362366004613ec9565b6110f9565b61037a610375366004613d77565b6111f5565b60405161025f9190614008565b61025560015481565b6103a361039e366004613cd1565b61134c565b60405161025f9190614037565b61025560065481565b61025560035481565b6008546103d5906001600160a01b031681565b6040516001600160a01b03909116815260200161025f565b6102556103fb3660046140e3565b611488565b61025561040e366004613cd1565b6114ed565b61025560095481565b61047161042a366004613cd1565b600a602052600090815260409020805460018201546003830154600484015460058501546006860154600790960154949593946001600160a01b0390931693919290919087565b6040805197885260208801969096526001600160a01b03909416948601949094526060850191909152608084015260a083019190915260c082015260e00161025f565b6104e76104c2366004613d53565b600c6020526000908152604090205460ff81169061010090046001600160a01b031682565b6040805192151583526001600160a01b0390911660208301520161025f565b6103d5610514366004613d53565b6001600160a01b039081166000908152600c602052604090205461010090041690565b610255610545366004613cd1565b611518565b61057c610558366004613d77565b600d6020908152600092835260408084209091529082529020805460019091015482565b6040805192835260208301919091520161025f565b610255611a65565b6105ac6105a7366004613cd1565b611b34565b60405161025f919061410f565b6004546103d5906001600160a01b031681565b6102556105da366004613cd1565b611bcb565b6102706105ed366004613cd1565b6120c8565b610270610600366004614123565b6121b0565b6007546103d5906001600160a01b031681565b610255610626366004613d77565b6122ee565b61025560005481565b610647610642366004613d77565b6123b0565b60405161025f9190614164565b610255610662366004613cd1565b612466565b600b818154811061067757600080fd5b600091825260209091200154905081565b336000908152600c602052604090205460ff166106c05760405162461bcd60e51b81526004016106b790614177565b60405180910390fd5b600b5460009067ffffffffffffffff8111156106de576106de613dc9565b604051908082528060200260200182016040528015610707578160200160208202803683370190505b5090506000805b600b548110156107b1576004610740600b8381548110610730576107306141a4565b9060005260206000200154611b34565b600481111561075157610751613d99565b0361079f57600b8181548110610769576107696141a4565b9060005260206000200154838381518110610786576107866141a4565b60209081029190910101528161079b816141d0565b9250505b806107a9816141d0565b91505061070e565b50600081116107f65760405162461bcd60e51b81526020600482015260116024820152704e6f20736574746c6564206672616d657360781b60448201526064016106b7565b6000805b8281101561092057336000908152600c6020526040812085516002909101919086908490811061082c5761082c6141a4565b602090810291909101810151825281019190915260400160009081205460ff161515900361090e57336000908152600c6020526040812085516001909101919086908490811061087e5761087e6141a4565b6020026020010151815260200190815260200160002054826108a091906141e9565b91506001600c6000336001600160a01b03166001600160a01b0316815260200190815260200160002060020160008684815181106108e0576108e06141a4565b6020026020010151815260200190815260200160002060006101000a81548160ff0219169083151502179055505b80610918816141d0565b9150506107fa565b50600081116109675760405162461bcd60e51b81526020600482015260136024820152724e6f207265776172647320746f20636c61696d60681b60448201526064016106b7565b60075460405163a9059cbb60e01b8152336004820152602481018390526001600160a01b039091169063a9059cbb906044016020604051808303816000875af11580156109b8573d6000803e3d6000fd5b505050506040513d601f19601f820116820180604052508101906109dc919061420c565b50505050565b6000818152600a6020908152604091829020600201805483518184028101840190945280845260609392830182828015610a3b57602002820191906000526020600020905b815481526020019060010190808311610a27575b50505050509050919050565b336000908152600c602052604081205460ff16610a765760405162461bcd60e51b81526004016106b790614177565b600b5460009067ffffffffffffffff811115610a9457610a94613dc9565b604051908082528060200260200182016040528015610abd578160200160208202803683370190505b5090506000805b600b54811015610b57576004610ae6600b8381548110610730576107306141a4565b6004811115610af757610af7613d99565b03610b4557600b8181548110610b0f57610b0f6141a4565b9060005260206000200154838381518110610b2c57610b2c6141a4565b602090810291909101015281610b41816141d0565b9250505b80610b4f816141d0565b915050610ac4565b5060008111610b9c5760405162461bcd60e51b81526020600482015260116024820152704e6f20736574746c6564206672616d657360781b60448201526064016106b7565b6000805b82811015610c5b57336000908152600c60205260408120855160029091019190869084908110610bd257610bd26141a4565b602090810291909101810151825281019190915260400160009081205460ff1615159003610c4957336000908152600c60205260408120855160019091019190869084908110610c2457610c246141a4565b602002602001015181526020019081526020016000205482610c4691906141e9565b91505b80610c53816141d0565b915050610ba0565b509392505050565b6000670de0b6b3a764000060095483610c7c9190614227565b610c869190614254565b92915050565b600080805b6000848152600a6020526040902060020154811015610e52576000848152600a6020818152604080842080548552600d835290842088855292909152600201805483919085908110610ce557610ce56141a4565b90600052602060002001548152602001908152602001600020604051806060016040529081600082015481526020016001820154815260200160028201805480602002602001604051908101604052809291908181526020016000905b82821015610db35760008481526020908190206040805160c08101825260068602909201805483526001808201548486015260028201546001600160a01b03169284019290925260038101546060840152600481015460808401526005015460a08301529083529092019101610d42565b5050505081525050905060005b816040015151811015610e3d5781604001518181518110610de357610de36141a4565b60200260200101516080015184610dfa91906141e9565b935081604001518181518110610e1257610e126141a4565b602002602001015160a0015184610e299190614268565b935080610e35816141d0565b915050610dc0565b50508080610e4a906141d0565b915050610c91565b5092915050565b610e9a60405180604001604052806012815260200171333930b6b2a5b2bc9015903832b934b7b21d60711b81525060005483610e9591906141e9565b6126ac565b610ecc6040518060400160405280601081526020016f313637b1b5973a34b6b2b9ba30b6b81d60811b815250426126ac565b60008054828252600a6020526040909120544291610ee9916141e9565b1115610f375760405162461bcd60e51b815260206004820152601b60248201527f4672616d652068617320746f20626520696e207468652070617374000000000060448201526064016106b7565b6000610f4282612466565b6000838152600a6020526040908190206001810183905590519192507f929af310c689982c60d4ec73c6e4b602e89c6f6a31da7c2df4888fb0627cb2b191610f8a91906142b0565b60405180910390a15050565b6000828152600d602090815260408083208484529091528120600101548103610fc157506000610c86565b6000610fcc84611b34565b6004811115610fdd57610fdd613d99565b03610fea57506000610c86565b6001610ff584611b34565b600481111561100657611006613d99565b148061102b5750600261101884611b34565b600481111561102957611029613d99565b145b1561103857506001610c86565b6000838152600d602090815260408083208584528252808320600190810154878552600a909352922090910154108015906110ac57506005546000848152600d6020908152604080832086845290915290206001015461109891906141e9565b6000848152600a6020526040902060010154105b156110b957506002610c86565b50600392915050565b600060015482116110d557505060015490565b6000546001546110e59084614268565b6110ef9190614322565b610c869083614268565b6008546001600160a01b031633146111635760405162461bcd60e51b815260206004820152602760248201527f4f6e6c79206f776e65722063616e20757064617465206672616d6520636c6f736044820152666520707269636560c81b60648201526084016106b7565b81516000036111845760405162461bcd60e51b81526004016106b790614336565b60608201516001600160a01b0316156111df5760405162461bcd60e51b815260206004820181905260248201527f4672616d65207265776172642077617320616c726561647920636c61696d656460448201526064016106b7565b90516000908152600a6020526040902060010155565b61121960405180606001604052806000815260200160008152602001606081525090565b6000838152600d6020908152604080832085845290915281206001015490036112785760405162461bcd60e51b8152602060048201526011602482015270131bdd08191bd95cdb89dd08195e1a5cdd607a1b60448201526064016106b7565b6000838152600d602090815260408083208584528252808320815160608101835281548152600182015481850152600282018054845181870281018701865281815292969395948701949293919290919084015b8282101561133d5760008481526020908190206040805160c08101825260068602909201805483526001808201548486015260028201546001600160a01b03169284019290925260038101546060840152600481015460808401526005015460a083015290835290920191016112cc565b50505091525090949350505050565b61139d60405180610100016040528060008152602001600081526020016060815260200160006001600160a01b03168152602001600081526020016000815260200160008152602001600081525090565b6000828152600a602052604081205490036113ca5760405162461bcd60e51b81526004016106b790614336565b6000828152600a6020908152604091829020825161010081018452815481526001820154818401526002820180548551818602810186018752818152929593949386019383018282801561143d57602002820191906000526020600020905b815481526020019060010190808311611429575b505050918352505060038201546001600160a01b0316602082015260048201546040820152600582015460608201526006820154608082015260079091015460a09091015292915050565b6001600160a01b0382166000908152600c602052604081205460ff166114c05760405162461bcd60e51b81526004016106b790614177565b506001600160a01b03919091166000908152600c6020908152604080832093835260019093019052205490565b600060055482101561150157505060055490565b60055461150e8184614254565b610c869190614227565b6000818152600a602052604081205481036115455760405162461bcd60e51b81526004016106b790614336565b600361155083611b34565b600481111561156157611561613d99565b146115ba5760405162461bcd60e51b8152602060048201526024808201527f4672616d6520646f6573206e6f742068617665206120636c6f73652072617465604482015263081cd95d60e21b60648201526084016106b7565b6000828152600a60205260408120600101546115d5906114ed565b6000848152600d60209081526040808320848452825280832081516060810183528154815260018201548185015260028201805484518187028101870186528181529798509596919592949386019391929091879084015b8282101561169e5760008481526020908190206040805160c08101825260068602909201805483526001808201548486015260028201546001600160a01b03169284019290925260038101546060840152600481015460808401526005015460a0830152908352909201910161162d565b5050505081525050905060006116b385610c8c565b90506000670de0b6b3a7640000600254836116ce9190614227565b6116d89190614254565b6000878152600a6020526040902060058101829055600701549091506116fe8284614268565b6117089190614268565b6000878152600a6020526040908190206006019190915583015151156118d757600754604084015180516001600160a01b039092169163a9059cbb919061175190600190614268565b81518110611761576117616141a4565b602002602001015160400151600a60008a8152602001908152602001600020600601546040518363ffffffff1660e01b81526004016117b59291906001600160a01b03929092168252602082015260400190565b6020604051808303816000875af11580156117d4573d6000803e3d6000fd5b505050506040513d601f19601f820116820180604052508101906117f8919061420c565b506040830151805161180c90600190614268565b8151811061181c5761181c6141a4565b6020908102919091018101516040908101516000898152600a909352918190206003810180546001600160a01b0319166001600160a01b03948516179055600754600854600590920154925163a9059cbb60e01b81529184166004830152602482019290925291169063a9059cbb906044016020604051808303816000875af11580156118ad573d6000803e3d6000fd5b505050506040513d601f19601f820116820180604052508101906118d1919061420c565b506119b5565b6007546008546000888152600a6020526040902060058101546006909101546001600160a01b039384169363a9059cbb931691611913916141e9565b6040516001600160e01b031960e085901b1681526001600160a01b03909216600483015260248201526044016020604051808303816000875af115801561195e573d6000803e3d6000fd5b505050506040513d601f19601f82011682018060405250810190611982919061420c565b506008546000878152600a6020526040902060030180546001600160a01b0319166001600160a01b039092169190911790555b6000868152600a6020526040908190206001810154600490910155517f906ff162b3f2709ab28fb678d43913964434148dd206e9b17adb3c1255090cb1906119fe908590614008565b60405180910390a16000868152600a60205260409081902090517f929af310c689982c60d4ec73c6e4b602e89c6f6a31da7c2df4888fb0627cb2b191611a43916142b0565b60405180910390a150505060009283525050600a602052604090206006015490565b6004805460408051633850c7bd60e01b8152905160009384936001600160a01b031692633850c7bd928183019260e0928290030181865afa158015611aae573d6000803e3d6000fd5b505050506040513d601f19601f82011682018060405250810190611ad29190614375565b50505050505090506000816001600160a01b031690506000600160601b82670de0b6b3a7640000611b039190614227565b611b0d9190614254565b9050670de0b6b3a7640000611b228280614227565b611b2c9190614254565b949350505050565b6000818152600a60205260408120548103611b5157506000919050565b6000828152600a60205260409020600301546001600160a01b031615611b7957506004919050565b60008054838252600a602052604090912054611b9591906141e9565b421015611ba457506001919050565b6000828152600a602052604090206001015415611bc357506003919050565b506002919050565b60008060009050611c026040518060400160405280600e81526020016d29a7a61d10333930b6b2a5b2bc9d60911b815250846126ac565b6000600a6000858152602001908152602001600020600701549050611c506040518060400160405280601181526020017029a7a61d103332b2a932b332b93930b61d60791b815250826126ac565b60005b6000858152600a6020526040902060020154811015612089576000858152600a6020818152604080842080548552600d835290842089855292909152600201805483919085908110611ca757611ca76141a4565b90600052602060002001548152602001908152602001600020604051806060016040529081600082015481526020016001820154815260200160028201805480602002602001604051908101604052809291908181526020016000905b82821015611d755760008481526020908190206040805160c08101825260068602909201805483526001808201548486015260028201546001600160a01b03169284019290925260038101546060840152600481015460808401526005015460a08301529083529092019101611d04565b50505050815250509050611ddf6040518060400160405280600d81526020016c29a7a61d103637ba1035b2bc9d60991b815250600a60008981526020019081526020016000206002018481548110611dcf57611dcf6141a4565b90600052602060002001546126ac565b60005b81604001515181101561207457611e246040518060400160405280601381526020017229a7a61d103637ba1039ba30ba3290373ab69d60691b815250826126ac565b81604001518181518110611e3a57611e3a6141a4565b60200260200101516080015185611e5191906141e9565b9450611ea66040518060400160405280601081526020016f29a7a61d103a30bc21b430b933b2b21d60811b81525083604001518381518110611e9557611e956141a4565b6020026020010151608001516126ac565b81604001518181518110611ebc57611ebc6141a4565b602002602001015160a0015185611ed39190614268565b9450611f296040518060400160405280601181526020017029a7a61d103a30bc2932b33ab73232b21d60791b81525083604001518381518110611f1857611f186141a4565b602002602001015160a001516126ac565b6001826040015151611f3b9190614268565b8103612062576000611f6e8884604001518481518110611f5d57611f5d6141a4565b6020026020010151606001516122ee565b9050611f7a8187614268565b9550611fae6040518060400160405280601081526020016f29a7a61d103a30bc21bab93932b73a1d60811b815250826126ac565b6000600c600085604001518581518110611fca57611fca6141a4565b6020908102919091018101516040908101516001600160a01b039081168452838301949094529182016000908120546101009004909316808452600c90915291205490915060ff161561205f5761202082610c63565b61202a9087614268565b955061205f6040518060400160405280601181526020017029a7a61d103332b2a932b332b93930b61d60791b815250876126ac565b50505b8061206c816141d0565b915050611de2565b50508080612081906141d0565b915050611c53565b506120948183614268565b9150610e526040518060400160405280601081526020016f29a7a61d103932bbb0b932233ab7321d60811b815250836126ac565b6008546001600160a01b031633146121335760405162461bcd60e51b815260206004820152602860248201527f4f6e6c79206f776e65722063616e207769746864726177206163636f756e74696044820152673733903a37b5b2b760c11b60648201526084016106b7565b60075460085460405163a9059cbb60e01b81526001600160a01b0391821660048201526024810184905291169063a9059cbb906044016020604051808303816000875af1158015612188573d6000803e3d6000fd5b505050506040513d601f19601f820116820180604052508101906121ac919061420c565b5050565b60006121bb856110c2565b905060006121c8856114ed565b6000838152600d6020908152604080832084845290915281206001015491925003612220576000828152600a6020526040812054900361220d5761220b866126f1565b505b6122198282868661282e565b50506109dc565b6000828152600d602090815260408083208484529091529020600201805433919061224d90600190614268565b8154811061225d5761225d6141a4565b60009182526020909120600260069092020101546001600160a01b03160361228a57612219828286612b3e565b61229682828686612f9a565b6000828152600d602090815260408083208484529091529081902090517f906ff162b3f2709ab28fb678d43913964434148dd206e9b17adb3c1255090cb1916122de9161440f565b60405180910390a1505050505050565b600042600054846122ff91906141e9565b1161234c5760405162461bcd60e51b815260206004820152601d60248201527f4672616d652068617320746f20626520696e207468652066757475726500000060448201526064016106b7565b6000805460065461235d9190614254565b90506000426000548661237091906141e9565b61237a9190614268565b90506000670de0b6b3a7640000856123928585614227565b61239c9190614227565b6123a69190614254565b9695505050505050565b6000828152600d602090815260408083208484528252808320600201805482518185028101850190935280835260609492939192909184015b8282101561245a5760008481526020908190206040805160c08101825260068602909201805483526001808201548486015260028201546001600160a01b03169284019290925260038101546060840152600481015460808401526005015460a083015290835290920191016123e9565b50505050905092915050565b60008060035483426124789190614268565b61248291906141e9565b905060006124908442614268565b604080516002808252606082018352929350600092909160208301908036833701905050905082816000815181106124ca576124ca6141a4565b602002602001019063ffffffff16908163ffffffff168152505081816001815181106124f8576124f86141a4565b63ffffffff909216602092830291909101909101526004805460405163883bdbfd60e01b81526000926001600160a01b039092169163883bdbfd9161253f918691016144bd565b600060405180830381865afa15801561255c573d6000803e3d6000fd5b505050506040513d6000823e601f3d908101601f19168201604052612584919081019061455f565b50905060008160008151811061259c5761259c6141a4565b602002602001015160060b826001815181106125ba576125ba6141a4565b602002602001015160060b6125cf919061462b565b905060008112156126185760405162461bcd60e51b81526020600482015260136024820152724e65676174697665207469636b2064656c746160681b60448201526064016106b7565b80600061262e63ffffffff808816908916614268565b9050600061263c8284614254565b905060006126498261354c565b9050600061266766010000000000006001600160a01b038416614254565b905060006126758280614227565b90506000600160601b61269083670de0b6b3a7640000614227565b61269a9190614254565b9e9d5050505050505050505050505050565b6121ac82826040516024016126c292919061464b565b60408051601f198184030181529190526020810180516001600160e01b0316632d839cb360e21b17905261392f565b6000806126fd836110c2565b6000818152600a6020526040902054909150156127535760405162461bcd60e51b81526020600482015260146024820152734672616d6520616c72656164792065786973747360601b60448201526064016106b7565b426000548261276291906141e9565b10156127b05760405162461bcd60e51b815260206004820152601d60248201527f4672616d652068617320746f20626520696e207468652066757475726500000060448201526064016106b7565b6000818152600a602052604090819020828155600b8054600181019091557f0175b7a638427703f0dbe7bb9bbf987a2551717b34e79f33b5b1008d1fa01db90183905590517f929af310c689982c60d4ec73c6e4b602e89c6f6a31da7c2df4888fb0627cb2b191612820916142b0565b60405180910390a192915050565b600061283a85846122ee565b90506000811161285c5760405162461bcd60e51b81526004016106b7906146a0565b600754604051636eb1769f60e11b815233600482015230602482015282916001600160a01b03169063dd62ed3e90604401602060405180830381865afa1580156128aa573d6000803e3d6000fd5b505050506040513d601f19601f820116820180604052508101906128ce91906146fd565b10156128ec5760405162461bcd60e51b81526004016106b790614716565b6000858152600d602090815260408083208784529091529020600101541561294b5760405162461bcd60e51b81526020600482015260126024820152714c6f7420616c72656164792065786973747360701b60448201526064016106b7565b6040805160c081018252438152426020808301918252338385019081526060840188815260808501878152600060a087018181528d8252600d86528882208d835286529781208d815560018082018e90556002808301805480840182558186529885208b516006909a0201988955985191880191909155945194860180546001600160a01b0319166001600160a01b039096169590951790945591516003850155516004840155945160059092019190915592879052805491929182918291612a1691908190613beb565b5050506000878152600a602090815260408083206001808601546002909201805491820181558552929093209091019190915560075490516323b872dd60e01b81526001600160a01b03909116906323b872dd90612a7c9033903090889060040161474d565b6020604051808303816000875af1158015612a9b573d6000803e3d6000fd5b505050506040513d601f19601f82011682018060405250810190612abf919061420c565b50336000908152600c602052604090205460ff16612ae057612ae08461393b565b336000908152600c60205260408082205461010090046001600160a01b0316825290205460ff1615612b3557336000908152600c6020526040902054612b359061010090046001600160a01b03168489613a77565b50505050505050565b6000838152600d6020908152604080832085845290915281206002018054612b95918691612b6e90600190614268565b81548110612b7e57612b7e6141a4565b9060005260206000209060060201600301546122ee565b90506000612ba385846122ee565b905080821115612d88576000612bb98284614268565b6007546000888152600d602090815260408083208a8452909152902060020180549293506001600160a01b039091169163a9059cbb9190612bfc90600190614268565b81548110612c0c57612c0c6141a4565b600091825260209091206006909102016002015460405160e083901b6001600160e01b03191681526001600160a01b039091166004820152602481018490526044016020604051808303816000875af1158015612c6d573d6000803e3d6000fd5b505050506040513d601f19601f82011682018060405250810190612c91919061420c565b506000868152600d602090815260408083208884528252808320815160c0810183524381524281850190815233828501818152606084018c81526080850189815260a086018b81526002978801805460018082018355918d528b8d2098516006909102909801978855955195870195909555915195850180546001600160a01b0319166001600160a01b0397881617905551600385015551600484015590516005909201919091558452600c909252808320546101009004909116825290205460ff1615612d8257336000908152600c6020526040902054612d829061010090046001600160a01b03168288613b26565b50612f93565b6000612d948383614268565b600754604051636eb1769f60e11b815233600482015230602482015291925082916001600160a01b039091169063dd62ed3e90604401602060405180830381865afa158015612de7573d6000803e3d6000fd5b505050506040513d601f19601f82011682018060405250810190612e0b91906146fd565b1015612e295760405162461bcd60e51b81526004016106b790614716565b6007546040516323b872dd60e01b81526001600160a01b03909116906323b872dd90612e5d9033903090869060040161474d565b6020604051808303816000875af1158015612e7c573d6000803e3d6000fd5b505050506040513d601f19601f82011682018060405250810190612ea0919061420c565b506000868152600d602090815260408083208884528252808320815160c0810183524381524281850190815233828501818152606084018c8152608085018a815260a086018a81526002978801805460018082018355918d528b8d2098516006909102909801978855955195870195909555915195850180546001600160a01b0319166001600160a01b0397881617905551600385015551600484015590516005909201919091558452600c909252808320546101009004909116825290205460ff1615612f9157336000908152600c6020526040902054612f919061010090046001600160a01b03168288613a77565b505b5050505050565b6000848152600d6020908152604080832086845290915281206002018054612fc490600190614268565b81548110612fd457612fd46141a4565b600091825260208220600260069092020101546001600160a01b03169150612ffc86856122ee565b90506000811161301e5760405162461bcd60e51b81526004016106b7906146a0565b6000868152600d602090815260408083208884529091528120600201805461304890600190614268565b81548110613058576130586141a4565b9060005260206000209060060201600301549050808261307891906141e9565b600754604051636eb1769f60e11b81523360048201523060248201526001600160a01b039091169063dd62ed3e90604401602060405180830381865afa1580156130c6573d6000803e3d6000fd5b505050506040513d601f19601f820116820180604052508101906130ea91906146fd565b10156131085760405162461bcd60e51b81526004016106b790614716565b6007546040516323b872dd60e01b81526001600160a01b03909116906323b872dd9061313c9033903090879060040161474d565b6020604051808303816000875af115801561315b573d6000803e3d6000fd5b505050506040513d601f19601f8201168201806040525081019061317f919061420c565b506007546040516323b872dd60e01b81526001600160a01b03909116906323b872dd906131b49033908790869060040161474d565b6020604051808303816000875af11580156131d3573d6000803e3d6000fd5b505050506040513d601f19601f820116820180604052508101906131f7919061420c565b506000878152600d6020908152604080832089845290915281206002018054613228918a91612b6e90600190614268565b60075460405163a9059cbb60e01b81526001600160a01b0387811660048301526024820184905292935091169063a9059cbb906044016020604051808303816000875af115801561327d573d6000803e3d6000fd5b505050506040513d601f19601f820116820180604052508101906132a1919061420c565b50336000908152600c602052604090205460ff166132c2576132c28561393b565b336000908152600c60205260408082205461010090046001600160a01b0316825290205460ff161561331757336000908152600c60205260409020546133179061010090046001600160a01b0316848a613a77565b6001600160a01b038085166000908152600c60205260408082205461010090049092168152205460ff1615613372576001600160a01b038085166000908152600c60205260409020546133729161010090910416828a613b26565b600d600089815260200190815260200160002060008881526020019081526020016000206002016040518060c00160405280438152602001428152602001866001600160a01b0316815260200184815260200160008152602001838152509080600181540180825580915050600190039060005260206000209060060201600090919091909150600082015181600001556020820151816001015560408201518160020160006101000a8154816001600160a01b0302191690836001600160a01b03160217905550606082015181600301556080820151816004015560a082015181600501555050600d600089815260200190815260200160002060008881526020019081526020016000206002016040518060c00160405280438152602001428152602001336001600160a01b0316815260200188815260200185815260200160008152509080600181540180825580915050600190039060005260206000209060060201600090919091909150600082015181600001556020820151816001015560408201518160020160006101000a8154816001600160a01b0302191690836001600160a01b03160217905550606082015181600301556080820151816004015560a0820151816005015550505050505050505050565b600081620d89e88111156135865760405162461bcd60e51b81526020600482015260016024820152601560fa1b60448201526064016106b7565b60008160011660000361359d57600160801b6135af565b6ffffcb933bd6fad37aa2d162d1a5940015b70ffffffffffffffffffffffffffffffffff16905060028216156135ee5760806135e9826ffff97272373d413259a46990580e213a614227565b901c90505b6004821615613618576080613613826ffff2e50f5f656932ef12357cf3c7fdcc614227565b901c90505b600882161561364257608061363d826fffe5caca7e10e4e61c3624eaa0941cd0614227565b901c90505b601082161561366c576080613667826fffcb9843d60f6159c9db58835c926644614227565b901c90505b6020821615613696576080613691826fff973b41fa98c081472e6896dfb254c0614227565b901c90505b60408216156136c05760806136bb826fff2ea16466c96a3843ec78b326b52861614227565b901c90505b60808216156136ea5760806136e5826ffe5dee046a99a2a811c461f1969c3053614227565b901c90505b610100821615613715576080613710826ffcbe86c7900a88aedcffc83b479aa3a4614227565b901c90505b61020082161561374057608061373b826ff987a7253ac413176f2b074cf7815e54614227565b901c90505b61040082161561376b576080613766826ff3392b0822b70005940c7a398e4b70f3614227565b901c90505b610800821615613796576080613791826fe7159475a2c29b7443b29c7fa6e889d9614227565b901c90505b6110008216156137c15760806137bc826fd097f3bdfd2022b8845ad8f792aa5825614227565b901c90505b6120008216156137ec5760806137e7826fa9f746462d870fdf8a65dc1f90e061e5614227565b901c90505b614000821615613817576080613812826f70d869a156d2a1b890bb3df62baf32f7614227565b901c90505b61800082161561384257608061383d826f31be135f97d08fd981231505542fcfa6614227565b901c90505b6201000082161561386e576080613869826f09aa508b5b7a84e1c677de54f3e99bc9614227565b901c90505b62020000821615613899576080613894826e5d6af8dedb81196699c329225ee604614227565b901c90505b620400008216156138c35760806138be826d2216e584f5fa1ea926041bedfe98614227565b901c90505b620800008216156138eb5760806138e6826b048a170391f7dc42444e8fa2614227565b901c90505b8315613900576138fd81600019614254565b90505b61390f64010000000082614322565b1561391b57600161391e565b60005b611b2c9060ff16602083901c6141e9565b61393881613bca565b50565b336000908152600c602052604090205460ff16156139915760405162461bcd60e51b81526020600482015260136024820152725573657220616c72656164792065786973747360681b60448201526064016106b7565b6001600160a01b0381166139d757336000908152600c6020526040902080546001600160a01b0392909216610100026001600160a81b0319909216919091176001179055565b6001600160a01b0381166000908152600c602052604090205460ff16613a3f5760405162461bcd60e51b815260206004820152601760248201527f526566657272657220646f6573206e6f7420657869737400000000000000000060448201526064016106b7565b336000908152600c6020526040902080546001600160a01b0392909216610100026001600160a81b0319909216919091176001179055565b6001600160a01b0383166000908152600c602052604090205460ff16613aaf5760405162461bcd60e51b81526004016106b790614177565b6000613aba83610c63565b6001600160a01b0385166000908152600c60209081526040808320868452600101909152812080549293508392909190613af59084906141e9565b90915550506000828152600a602052604081206007018054839290613b1b9084906141e9565b909155505050505050565b6001600160a01b0383166000908152600c602052604090205460ff16613b5e5760405162461bcd60e51b81526004016106b790614177565b6000613b6983610c63565b6001600160a01b0385166000908152600c60209081526040808320868452600101909152812080549293508392909190613ba4908490614268565b90915550506000828152600a602052604081206007018054839290613b1b908490614268565b60006a636f6e736f6c652e6c6f679050600080835160208501845afa505050565b828054828255906000526020600020906006028101928215613c7f5760005260206000209160060282015b82811115613c7f57825482556001808401549083015560028084015490830180546001600160a01b0319166001600160a01b0390921691909117905560038084015490830155600480840154908301556005808401549083015560069283019290910190613c16565b50613c8b929150613c8f565b5090565b5b80821115613c8b576000808255600182018190556002820180546001600160a01b031916905560038201819055600482018190556005820155600601613c90565b600060208284031215613ce357600080fd5b5035919050565b6020808252825182820181905260009190848201906040850190845b81811015613d2257835183529284019291840191600101613d06565b50909695505050505050565b6001600160a01b038116811461393857600080fd5b8035613d4e81613d2e565b919050565b600060208284031215613d6557600080fd5b8135613d7081613d2e565b9392505050565b60008060408385031215613d8a57600080fd5b50508035926020909101359150565b634e487b7160e01b600052602160045260246000fd5b6020810160048310613dc357613dc3613d99565b91905290565b634e487b7160e01b600052604160045260246000fd5b604051610100810167ffffffffffffffff81118282101715613e0357613e03613dc9565b60405290565b604051601f8201601f1916810167ffffffffffffffff81118282101715613e3257613e32613dc9565b604052919050565b600067ffffffffffffffff821115613e5457613e54613dc9565b5060051b60200190565b600082601f830112613e6f57600080fd5b81356020613e84613e7f83613e3a565b613e09565b82815260059290921b84018101918181019086841115613ea357600080fd5b8286015b84811015613ebe5780358352918301918301613ea7565b509695505050505050565b60008060408385031215613edc57600080fd5b823567ffffffffffffffff80821115613ef457600080fd5b908401906101008287031215613f0957600080fd5b613f11613ddf565b8235815260208301356020820152604083013582811115613f3157600080fd5b613f3d88828601613e5e565b604083015250613f4f60608401613d43565b60608201526080830135608082015260a083013560a082015260c083013560c082015260e083013560e0820152809450505050602083013590509250929050565b600081518084526020808501945080840160005b83811015613ffd5781518051885283810151848901526040808201516001600160a01b031690890152606080820151908901526080808201519089015260a0908101519088015260c09096019590820190600101613fa4565b509495945050505050565b60208152815160208201526020820151604082015260006040830151606080840152611b2c6080840182613f90565b6000602080835261012083018451828501528185015160408501526040850151610100806060870152828251808552610140880191508584019450600093505b808410156140975784518252938501936001939093019290850190614077565b5060608801516001600160a01b03811660808901529450608088015160a088015260a088015160c088015260c088015160e088015260e088015182880152809550505050505092915050565b600080604083850312156140f657600080fd5b823561410181613d2e565b946020939093013593505050565b6020810160058310613dc357613dc3613d99565b6000806000806080858703121561413957600080fd5b843593506020850135925060408501359150606085013561415981613d2e565b939692955090935050565b602081526000613d706020830184613f90565b602080825260139082015272155cd95c88191bd95cc81b9bdd08195e1a5cdd606a1b604082015260600190565b634e487b7160e01b600052603260045260246000fd5b634e487b7160e01b600052601160045260246000fd5b6000600182016141e2576141e26141ba565b5060010190565b80820180821115610c8657610c866141ba565b80518015158114613d4e57600080fd5b60006020828403121561421e57600080fd5b613d70826141fc565b8082028115828204841417610c8657610c866141ba565b634e487b7160e01b600052601260045260246000fd5b6000826142635761426361423e565b500490565b81810381811115610c8657610c866141ba565b6000815480845260208085019450836000528060002060005b83811015613ffd57815487529582019560019182019101614294565b60208152815460208201526001820154604082015260006101008060608401526142e161012084016002860161427b565b60038501546001600160a01b03166080850152600485015460a0850152600585015460c0850152600685015460e08501526007909401549201919091525090565b6000826143315761433161423e565b500690565b602080825260139082015272119c985b5948191bd95cdb89dd08195e1a5cdd606a1b604082015260600190565b805161ffff81168114613d4e57600080fd5b600080600080600080600060e0888a03121561439057600080fd5b875161439b81613d2e565b8097505060208801518060020b81146143b357600080fd5b95506143c160408901614363565b94506143cf60608901614363565b93506143dd60808901614363565b925060a088015160ff811681146143f357600080fd5b915061440160c089016141fc565b905092959891949750929550565b6000602080835260808084018554838601526001808701546040818189015260029150818901606080818b015285825480885260a09750878c0191508360005289600020935060005b818110156144ab5784548352878501548b840152868501546001600160a01b03168684015260038501548484015260048501548a84015260058501548984015260069094019360c0909201918701614458565b50909c9b505050505050505050505050565b6020808252825182820181905260009190848201906040850190845b81811015613d2257835163ffffffff16835292840192918401916001016144d9565b600082601f83011261450c57600080fd5b8151602061451c613e7f83613e3a565b82815260059290921b8401810191818101908684111561453b57600080fd5b8286015b84811015613ebe57805161455281613d2e565b835291830191830161453f565b6000806040838503121561457257600080fd5b825167ffffffffffffffff8082111561458a57600080fd5b818501915085601f83011261459e57600080fd5b815160206145ae613e7f83613e3a565b82815260059290921b840181019181810190898411156145cd57600080fd5b948201945b838610156145fb5785518060060b81146145ec5760008081fd5b825294820194908201906145d2565b9188015191965090935050508082111561461457600080fd5b50614621858286016144fb565b9150509250929050565b8181036000831280158383131683831282161715610e5257610e526141ba565b604081526000835180604084015260005b81811015614679576020818701810151606086840101520161465c565b506000606082850101526060601f19601f8301168401019150508260208301529392505050565b6020808252603c908201527f5461782068617320746f2062652067726561746572207468616e20302e20496e60408201527f63726561736520746865206163717569736974696f6e20707269636500000000606082015260800190565b60006020828403121561470f57600080fd5b5051919050565b6020808252601e908201527f416c6c6f77616e636520746f207370656e642073657420746f6f206c6f770000604082015260600190565b6001600160a01b03938416815291909216602082015260408101919091526060019056fea2646970667358221220028d8d4cac18d2fec3b13e33a6f83f394d91b54a2893417a20c9a27e843d2e8864736f6c63430008140033",
  "linkReferences": {},
  "deployedLinkReferences": {}
}