{
  "_format": "hh-sol-artifact-1",
  "contractName": "Market",
  "sourceName": "contracts/Market.sol",
  "abi": [
    {
      "inputs": [
        {
          "internalType": "contract MarketFactory",
          "name": "_factory",
          "type": "address"
        },
        {
          "internalType": "contract IERC20",
          "name": "_token",
          "type": "address"
        },
        {
          "internalType": "contract IUniswapV2Pair",
          "name": "_uniswapPair",
          "type": "address"
        },
        {
          "internalType": "uint256",
          "name": "_period",
          "type": "uint256"
        },
        {
          "internalType": "uint256",
          "name": "_initTimestamp",
          "type": "uint256"
        },
        {
          "internalType": "uint256",
          "name": "_taxMarket",
          "type": "uint256"
        },
        {
          "internalType": "uint256",
          "name": "_feeMarket",
          "type": "uint256"
        },
        {
          "internalType": "uint256",
          "name": "_dPrice",
          "type": "uint256"
        },
        {
          "internalType": "uint256",
          "name": "_tReporting",
          "type": "uint256"
        },
        {
          "internalType": "uint256",
          "name": "_minTax",
          "type": "uint256"
        },
        {
          "internalType": "bool",
          "name": "_avgPriceSwitch",
          "type": "bool"
        }
      ],
      "stateMutability": "nonpayable",
      "type": "constructor"
    },
    {
      "anonymous": false,
      "inputs": [
        {
          "indexed": false,
          "internalType": "uint256",
          "name": "frameKey",
          "type": "uint256"
        },
        {
          "indexed": false,
          "internalType": "uint256",
          "name": "oracleTimestampStart",
          "type": "uint256"
        },
        {
          "indexed": false,
          "internalType": "uint256",
          "name": "oracleTimestampEnd",
          "type": "uint256"
        },
        {
          "indexed": false,
          "internalType": "uint256",
          "name": "oraclePrice0CumulativeStart",
          "type": "uint256"
        },
        {
          "indexed": false,
          "internalType": "uint256",
          "name": "oraclePrice0CumulativeEnd",
          "type": "uint256"
        },
        {
          "indexed": false,
          "internalType": "uint256",
          "name": "oraclePrice1CumulativeStart",
          "type": "uint256"
        },
        {
          "indexed": false,
          "internalType": "uint256",
          "name": "oraclePrice1CumulativeEnd",
          "type": "uint256"
        },
        {
          "indexed": false,
          "internalType": "uint256",
          "name": "rewardFund",
          "type": "uint256"
        }
      ],
      "name": "FrameUpdate",
      "type": "event"
    },
    {
      "anonymous": false,
      "inputs": [
        {
          "indexed": false,
          "internalType": "uint256",
          "name": "frameKey",
          "type": "uint256"
        },
        {
          "components": [
            {
              "internalType": "uint256",
              "name": "frameKey",
              "type": "uint256"
            },
            {
              "internalType": "uint256",
              "name": "lotKey",
              "type": "uint256"
            },
            {
              "internalType": "address",
              "name": "lotOwner",
              "type": "address"
            },
            {
              "internalType": "uint256",
              "name": "acquisitionPrice",
              "type": "uint256"
            },
            {
              "internalType": "uint256",
              "name": "taxPaid",
              "type": "uint256"
            },
            {
              "internalType": "enum MLib.SLot",
              "name": "state",
              "type": "uint8"
            }
          ],
          "indexed": false,
          "internalType": "struct MLib.Lot",
          "name": "lotStruct",
          "type": "tuple"
        }
      ],
      "name": "LotUpdate",
      "type": "event"
    },
    {
      "inputs": [
        {
          "internalType": "uint256",
          "name": "frameKey",
          "type": "uint256"
        },
        {
          "internalType": "uint256",
          "name": "avgPrice",
          "type": "uint256"
        }
      ],
      "name": "UpdatePairPrice",
      "outputs": [],
      "stateMutability": "nonpayable",
      "type": "function"
    },
    {
      "inputs": [],
      "name": "accountingToken",
      "outputs": [
        {
          "internalType": "contract IERC20",
          "name": "",
          "type": "address"
        }
      ],
      "stateMutability": "view",
      "type": "function"
    },
    {
      "inputs": [],
      "name": "avgPriceSwitch",
      "outputs": [
        {
          "internalType": "bool",
          "name": "",
          "type": "bool"
        }
      ],
      "stateMutability": "view",
      "type": "function"
    },
    {
      "inputs": [
        {
          "internalType": "uint256",
          "name": "timestamp",
          "type": "uint256"
        },
        {
          "internalType": "uint256",
          "name": "pairPrice",
          "type": "uint256"
        },
        {
          "internalType": "uint256",
          "name": "acqPrice",
          "type": "uint256"
        },
        {
          "internalType": "address",
          "name": "referralPublicKey",
          "type": "address"
        }
      ],
      "name": "buyLot",
      "outputs": [],
      "stateMutability": "nonpayable",
      "type": "function"
    },
    {
      "inputs": [
        {
          "internalType": "uint256",
          "name": "timestamp",
          "type": "uint256"
        }
      ],
      "name": "clcFrameTimestamp",
      "outputs": [
        {
          "internalType": "uint256",
          "name": "",
          "type": "uint256"
        }
      ],
      "stateMutability": "view",
      "type": "function"
    },
    {
      "inputs": [
        {
          "internalType": "uint256",
          "name": "value",
          "type": "uint256"
        }
      ],
      "name": "clcLotKey",
      "outputs": [
        {
          "internalType": "uint256",
          "name": "",
          "type": "uint256"
        }
      ],
      "stateMutability": "view",
      "type": "function"
    },
    {
      "inputs": [
        {
          "internalType": "uint256",
          "name": "frameKey",
          "type": "uint256"
        },
        {
          "internalType": "uint256",
          "name": "acquisitionPrice",
          "type": "uint256"
        }
      ],
      "name": "clcTax",
      "outputs": [
        {
          "internalType": "uint256",
          "name": "tax",
          "type": "uint256"
        }
      ],
      "stateMutability": "view",
      "type": "function"
    },
    {
      "inputs": [],
      "name": "dPrice",
      "outputs": [
        {
          "internalType": "uint256",
          "name": "",
          "type": "uint256"
        }
      ],
      "stateMutability": "view",
      "type": "function"
    },
    {
      "inputs": [
        {
          "internalType": "uint256",
          "name": "amount",
          "type": "uint256"
        }
      ],
      "name": "emptyFunds",
      "outputs": [],
      "stateMutability": "nonpayable",
      "type": "function"
    },
    {
      "inputs": [],
      "name": "factory",
      "outputs": [
        {
          "internalType": "contract MarketFactory",
          "name": "",
          "type": "address"
        }
      ],
      "stateMutability": "view",
      "type": "function"
    },
    {
      "inputs": [],
      "name": "feeMarket",
      "outputs": [
        {
          "internalType": "uint256",
          "name": "",
          "type": "uint256"
        }
      ],
      "stateMutability": "view",
      "type": "function"
    },
    {
      "inputs": [],
      "name": "feeProtocol",
      "outputs": [
        {
          "internalType": "uint256",
          "name": "",
          "type": "uint256"
        }
      ],
      "stateMutability": "view",
      "type": "function"
    },
    {
      "inputs": [
        {
          "internalType": "uint256",
          "name": "",
          "type": "uint256"
        }
      ],
      "name": "frames",
      "outputs": [
        {
          "internalType": "uint256",
          "name": "frameKey",
          "type": "uint256"
        },
        {
          "internalType": "uint256",
          "name": "oracleTimestampStart",
          "type": "uint256"
        },
        {
          "internalType": "uint256",
          "name": "oracleTimestampEnd",
          "type": "uint256"
        },
        {
          "internalType": "uint256",
          "name": "rewardFund",
          "type": "uint256"
        },
        {
          "internalType": "uint256",
          "name": "priceAverage",
          "type": "uint256"
        },
        {
          "internalType": "uint256",
          "name": "oraclePrice0CumulativeStart",
          "type": "uint256"
        },
        {
          "internalType": "uint256",
          "name": "oraclePrice0CumulativeEnd",
          "type": "uint256"
        },
        {
          "internalType": "uint256",
          "name": "oraclePrice1CumulativeStart",
          "type": "uint256"
        },
        {
          "internalType": "uint256",
          "name": "oraclePrice1CumulativeEnd",
          "type": "uint256"
        },
        {
          "internalType": "enum MLib.SFrame",
          "name": "state",
          "type": "uint8"
        }
      ],
      "stateMutability": "view",
      "type": "function"
    },
    {
      "inputs": [
        {
          "internalType": "uint256",
          "name": "",
          "type": "uint256"
        }
      ],
      "name": "framesKeys",
      "outputs": [
        {
          "internalType": "uint256",
          "name": "",
          "type": "uint256"
        }
      ],
      "stateMutability": "view",
      "type": "function"
    },
    {
      "inputs": [
        {
          "internalType": "uint256",
          "name": "frameKey",
          "type": "uint256"
        }
      ],
      "name": "getFrame",
      "outputs": [
        {
          "components": [
            {
              "internalType": "uint256",
              "name": "frameKey",
              "type": "uint256"
            },
            {
              "internalType": "uint256",
              "name": "oracleTimestampStart",
              "type": "uint256"
            },
            {
              "internalType": "uint256",
              "name": "oracleTimestampEnd",
              "type": "uint256"
            },
            {
              "internalType": "uint256",
              "name": "rewardFund",
              "type": "uint256"
            },
            {
              "internalType": "uint256",
              "name": "priceAverage",
              "type": "uint256"
            },
            {
              "internalType": "uint256",
              "name": "oraclePrice0CumulativeStart",
              "type": "uint256"
            },
            {
              "internalType": "uint256",
              "name": "oraclePrice0CumulativeEnd",
              "type": "uint256"
            },
            {
              "internalType": "uint256",
              "name": "oraclePrice1CumulativeStart",
              "type": "uint256"
            },
            {
              "internalType": "uint256",
              "name": "oraclePrice1CumulativeEnd",
              "type": "uint256"
            },
            {
              "internalType": "enum MLib.SFrame",
              "name": "state",
              "type": "uint8"
            },
            {
              "internalType": "uint256[]",
              "name": "lotKeys",
              "type": "uint256[]"
            }
          ],
          "internalType": "struct MLib.Frame",
          "name": "",
          "type": "tuple"
        }
      ],
      "stateMutability": "view",
      "type": "function"
    },
    {
      "inputs": [
        {
          "internalType": "uint256",
          "name": "frameKey",
          "type": "uint256"
        }
      ],
      "name": "getLotKeys",
      "outputs": [
        {
          "internalType": "uint256[]",
          "name": "",
          "type": "uint256[]"
        }
      ],
      "stateMutability": "view",
      "type": "function"
    },
    {
      "inputs": [],
      "name": "getNumberOfFrameKeys",
      "outputs": [
        {
          "internalType": "uint256",
          "name": "",
          "type": "uint256"
        }
      ],
      "stateMutability": "view",
      "type": "function"
    },
    {
      "inputs": [],
      "name": "getUserAddresses",
      "outputs": [
        {
          "internalType": "address[]",
          "name": "",
          "type": "address[]"
        }
      ],
      "stateMutability": "view",
      "type": "function"
    },
    {
      "inputs": [
        {
          "internalType": "address",
          "name": "userAddress",
          "type": "address"
        }
      ],
      "name": "getUserReferrals",
      "outputs": [
        {
          "internalType": "address[]",
          "name": "",
          "type": "address[]"
        }
      ],
      "stateMutability": "view",
      "type": "function"
    },
    {
      "inputs": [
        {
          "internalType": "uint256",
          "name": "frameKey",
          "type": "uint256"
        }
      ],
      "name": "hasValidPrices",
      "outputs": [],
      "stateMutability": "view",
      "type": "function"
    },
    {
      "inputs": [],
      "name": "initTimestamp",
      "outputs": [
        {
          "internalType": "uint256",
          "name": "",
          "type": "uint256"
        }
      ],
      "stateMutability": "view",
      "type": "function"
    },
    {
      "inputs": [
        {
          "internalType": "uint256",
          "name": "",
          "type": "uint256"
        },
        {
          "internalType": "uint256",
          "name": "",
          "type": "uint256"
        },
        {
          "internalType": "uint256",
          "name": "",
          "type": "uint256"
        }
      ],
      "name": "lots",
      "outputs": [
        {
          "internalType": "uint256",
          "name": "frameKey",
          "type": "uint256"
        },
        {
          "internalType": "uint256",
          "name": "lotKey",
          "type": "uint256"
        },
        {
          "internalType": "address",
          "name": "lotOwner",
          "type": "address"
        },
        {
          "internalType": "uint256",
          "name": "acquisitionPrice",
          "type": "uint256"
        },
        {
          "internalType": "uint256",
          "name": "taxPaid",
          "type": "uint256"
        },
        {
          "internalType": "enum MLib.SLot",
          "name": "state",
          "type": "uint8"
        }
      ],
      "stateMutability": "view",
      "type": "function"
    },
    {
      "inputs": [],
      "name": "minTax",
      "outputs": [
        {
          "internalType": "uint256",
          "name": "",
          "type": "uint256"
        }
      ],
      "stateMutability": "view",
      "type": "function"
    },
    {
      "inputs": [],
      "name": "ownerMarket",
      "outputs": [
        {
          "internalType": "address",
          "name": "",
          "type": "address"
        }
      ],
      "stateMutability": "view",
      "type": "function"
    },
    {
      "inputs": [],
      "name": "period",
      "outputs": [
        {
          "internalType": "uint256",
          "name": "",
          "type": "uint256"
        }
      ],
      "stateMutability": "view",
      "type": "function"
    },
    {
      "inputs": [],
      "name": "scalar",
      "outputs": [
        {
          "internalType": "uint256",
          "name": "",
          "type": "uint256"
        }
      ],
      "stateMutability": "view",
      "type": "function"
    },
    {
      "inputs": [],
      "name": "tReporting",
      "outputs": [
        {
          "internalType": "uint256",
          "name": "",
          "type": "uint256"
        }
      ],
      "stateMutability": "view",
      "type": "function"
    },
    {
      "inputs": [],
      "name": "taxMarket",
      "outputs": [
        {
          "internalType": "uint256",
          "name": "",
          "type": "uint256"
        }
      ],
      "stateMutability": "view",
      "type": "function"
    },
    {
      "inputs": [],
      "name": "uniswapPair",
      "outputs": [
        {
          "internalType": "contract IUniswapV2Pair",
          "name": "",
          "type": "address"
        }
      ],
      "stateMutability": "view",
      "type": "function"
    },
    {
      "inputs": [],
      "name": "updateFramePrices",
      "outputs": [],
      "stateMutability": "nonpayable",
      "type": "function"
    },
    {
      "inputs": [
        {
          "internalType": "uint256",
          "name": "timestamp",
          "type": "uint256"
        },
        {
          "internalType": "uint256",
          "name": "pairPrice",
          "type": "uint256"
        },
        {
          "internalType": "uint256",
          "name": "acqPrice",
          "type": "uint256"
        }
      ],
      "name": "updateLotPrice",
      "outputs": [],
      "stateMutability": "nonpayable",
      "type": "function"
    },
    {
      "inputs": [
        {
          "internalType": "uint256",
          "name": "",
          "type": "uint256"
        }
      ],
      "name": "userAddresses",
      "outputs": [
        {
          "internalType": "address",
          "name": "",
          "type": "address"
        }
      ],
      "stateMutability": "view",
      "type": "function"
    },
    {
      "inputs": [
        {
          "internalType": "address",
          "name": "",
          "type": "address"
        },
        {
          "internalType": "uint256",
          "name": "",
          "type": "uint256"
        }
      ],
      "name": "userFrames",
      "outputs": [
        {
          "internalType": "uint256",
          "name": "",
          "type": "uint256"
        }
      ],
      "stateMutability": "view",
      "type": "function"
    },
    {
      "inputs": [
        {
          "internalType": "address",
          "name": "",
          "type": "address"
        }
      ],
      "name": "users",
      "outputs": [
        {
          "internalType": "address",
          "name": "userPublicKey",
          "type": "address"
        },
        {
          "internalType": "uint256",
          "name": "commulativeTax",
          "type": "uint256"
        },
        {
          "internalType": "address",
          "name": "referredBy",
          "type": "address"
        }
      ],
      "stateMutability": "view",
      "type": "function"
    }
  ],
  "bytecode": "0x608060405260646002556000600c60006101000a81548160ff02191690831515021790555069d3c21bcecceda1000000600d553480156200003f57600080fd5b506040516200525138038062005251833981810160405281019062000065919062000238565b89600960006101000a81548173ffffffffffffffffffffffffffffffffffffffff021916908373ffffffffffffffffffffffffffffffffffffffff16021790555032600a60006101000a81548173ffffffffffffffffffffffffffffffffffffffff021916908373ffffffffffffffffffffffffffffffffffffffff1602179055508760008190555086600181905550856007819055508460068190555088600460006101000a81548173ffffffffffffffffffffffffffffffffffffffff021916908373ffffffffffffffffffffffffffffffffffffffff160217905550836005819055508a600860006101000a81548173ffffffffffffffffffffffffffffffffffffffff021916908373ffffffffffffffffffffffffffffffffffffffff1602179055508260038190555081600b8190555080600c60006101000a81548160ff021916908315150217905550505050505050505050505062000447565b600081519050620001d681620003c5565b92915050565b600081519050620001ed81620003df565b92915050565b6000815190506200020481620003f9565b92915050565b6000815190506200021b8162000413565b92915050565b60008151905062000232816200042d565b92915050565b60008060008060008060008060008060006101608c8e0312156200025b57600080fd5b60006200026b8e828f016200020a565b9b505060206200027e8e828f01620001dc565b9a50506040620002918e828f01620001f3565b9950506060620002a48e828f0162000221565b9850506080620002b78e828f0162000221565b97505060a0620002ca8e828f0162000221565b96505060c0620002dd8e828f0162000221565b95505060e0620002f08e828f0162000221565b945050610100620003048e828f0162000221565b935050610120620003188e828f0162000221565b9250506101406200032c8e828f01620001c5565b9150509295989b509295989b9093969950565b60006200034c826200039b565b9050919050565b60008115159050919050565b60006200036c826200033f565b9050919050565b600062000380826200033f565b9050919050565b600062000394826200033f565b9050919050565b600073ffffffffffffffffffffffffffffffffffffffff82169050919050565b6000819050919050565b620003d08162000353565b8114620003dc57600080fd5b50565b620003ea816200035f565b8114620003f657600080fd5b50565b620004048162000373565b81146200041057600080fd5b50565b6200041e8162000387565b81146200042a57600080fd5b50565b6200043881620003bb565b81146200044457600080fd5b50565b614dfa80620004576000396000f3fe608060405234801561001057600080fd5b50600436106102065760003560e01c80638f9eca821161011a578063c106c1f6116100ad578063da68cf8b1161007c578063da68cf8b14610629578063e107fb4f14610647578063ef78d4fd14610677578063f45e65d814610695578063ff5c86b0146106b357610206565b8063c106c1f61461059c578063c346eef8146105d1578063c45a0155146105ed578063c816841b1461060b57610206565b8063a591efde116100e9578063a591efde14610500578063a87430ba1461051e578063ab02f2a914610550578063bb15d2dd1461058057610206565b80638f9eca821461046f5780639592de181461048d57806396b2c6f3146104bd578063a10340bc146104c757610206565b8063575cea6b1161019d5780636f7cb60b1161016c5780636f7cb60b146103c95780637358c57a146103e5578063773d51eb146104035780637e9966391461043357806389da88a31461045157610206565b8063575cea6b1461031d5780635b3ad63e1461034d57806360f65c601461037d578063652c8ded146103ad57610206565b806345084775116101d95780634508477514610293578063499a0fc4146102b1578063502c9bd5146102cf578063527eb4bc146102ff57610206565b8063050e88401461020b57806315f206851461023b5780633d09a82a14610257578063410f071014610275575b600080fd5b61022560048036038101906102209190613f36565b6106d1565b6040516102329190614715565b60405180910390f35b61025560048036038101906102509190613f88565b6106f5565b005b61025f610850565b60405161026c9190614715565b60405180910390f35b61027d610856565b60405161028a9190614715565b60405180910390f35b61029b61085c565b6040516102a89190614508565b60405180910390f35b6102b9610882565b6040516102c69190614715565b60405180910390f35b6102e960048036038101906102e49190613f36565b610888565b6040516102f69190614508565b60405180910390f35b6103076108c7565b6040516103149190614715565b60405180910390f35b61033760048036038101906103329190613e30565b6108cd565b60405161034491906145e3565b60405180910390f35b61036760048036038101906103629190613f36565b61099d565b6040516103749190614715565b60405180910390f35b61039760048036038101906103929190613e82565b6109e0565b6040516103a49190614715565b60405180910390f35b6103c760048036038101906103c29190613f36565b610a11565b005b6103e360048036038101906103de9190613f36565b610b0e565b005b6103ed610d37565b6040516103fa9190614715565b60405180910390f35b61041d60048036038101906104189190613f36565b610d3d565b60405161042a91906146f3565b60405180910390f35b61043b610ea4565b6040516104489190614715565b60405180910390f35b610459610eaa565b6040516104669190614715565b60405180910390f35b610477610eb7565b6040516104849190614627565b60405180910390f35b6104a760048036038101906104a29190613f36565b610eca565b6040516104b49190614715565b60405180910390f35b6104c5610f00565b005b6104e160048036038101906104dc9190613f36565b6111f4565b6040516104f79a99989796959493929190614838565b60405180910390f35b610508611255565b60405161051591906145e3565b60405180910390f35b61053860048036038101906105339190613e30565b6112e3565b604051610547939291906145ac565b60405180910390f35b61056a60048036038101906105659190613f36565b61134d565b6040516105779190614605565b60405180910390f35b61059a60048036038101906105959190613fc4565b6113bb565b005b6105b660048036038101906105b19190613fc4565b611b53565b6040516105c896959493929190614759565b60405180910390f35b6105eb60048036038101906105e69190614013565b611be6565b005b6105f5612cb0565b6040516106029190614678565b60405180910390f35b610613612cd6565b604051610620919061465d565b60405180910390f35b610631612cfc565b60405161063e9190614642565b60405180910390f35b610661600480360381019061065c9190613f88565b612d22565b60405161066e9190614715565b60405180910390f35b61067f612d97565b60405161068c9190614715565b60405180910390f35b61069d612d9d565b6040516106aa9190614715565b60405180910390f35b6106bb612da3565b6040516106c89190614715565b60405180910390f35b601381815481106106e157600080fd5b906000526020600020016000915090505481565b600860009054906101000a900473ffffffffffffffffffffffffffffffffffffffff1673ffffffffffffffffffffffffffffffffffffffff16638da5cb5b6040518163ffffffff1660e01b815260040160206040518083038186803b15801561075d57600080fd5b505afa158015610771573d6000803e3d6000fd5b505050506040513d601f19601f820116820180604052508101906107959190613e59565b73ffffffffffffffffffffffffffffffffffffffff163373ffffffffffffffffffffffffffffffffffffffff16146107cc57600080fd5b6001600f600084815260200190815260200160002060090160006101000a81548160ff0219169083600281111561082c577f4e487b7100000000000000000000000000000000000000000000000000000000600052602160045260246000fd5b021790555080600f6000848152602001908152602001600020600401819055505050565b600b5481565b60065481565b600a60009054906101000a900473ffffffffffffffffffffffffffffffffffffffff1681565b60055481565b6012818154811061089857600080fd5b906000526020600020016000915054906101000a900473ffffffffffffffffffffffffffffffffffffffff1681565b60025481565b6060601160008373ffffffffffffffffffffffffffffffffffffffff1673ffffffffffffffffffffffffffffffffffffffff16815260200190815260200160002060020180548060200260200160405190810160405280929190818152602001828054801561099157602002820191906000526020600020905b8160009054906101000a900473ffffffffffffffffffffffffffffffffffffffff1673ffffffffffffffffffffffffffffffffffffffff1681526020019060010190808311610947575b50505050509050919050565b600060015482116109b25760015490506109db565b600054600154836109c39190614a49565b6109cd9190614c5e565b826109d89190614a49565b90505b919050565b601060205281600052604060002081815481106109fc57600080fd5b90600052602060002001600091509150505481565b6000600f600083815260200190815260200160002060050154111580610a4e57506000600f60008381526020019081526020016000206006015411155b80610a7057506000600f60008381526020019081526020016000206007015411155b80610a9257506000600f60008381526020019081526020016000206008015411155b15610a9c57600080fd5b600f600082815260200190815260200160002060060154600f6000838152602001908152602001600020600501541480610b015750600f600082815260200190815260200160002060080154600f600083815260200190815260200160002060070154145b15610b0b57600080fd5b50565b600860009054906101000a900473ffffffffffffffffffffffffffffffffffffffff1673ffffffffffffffffffffffffffffffffffffffff16638da5cb5b6040518163ffffffff1660e01b815260040160206040518083038186803b158015610b7657600080fd5b505afa158015610b8a573d6000803e3d6000fd5b505050506040513d601f19601f82011682018060405250810190610bae9190613e59565b73ffffffffffffffffffffffffffffffffffffffff163373ffffffffffffffffffffffffffffffffffffffff1614610be557600080fd5b600960009054906101000a900473ffffffffffffffffffffffffffffffffffffffff1673ffffffffffffffffffffffffffffffffffffffff1663a9059cbb600860009054906101000a900473ffffffffffffffffffffffffffffffffffffffff1673ffffffffffffffffffffffffffffffffffffffff16638da5cb5b6040518163ffffffff1660e01b815260040160206040518083038186803b158015610c8b57600080fd5b505afa158015610c9f573d6000803e3d6000fd5b505050506040513d601f19601f82011682018060405250810190610cc39190613e59565b836040518363ffffffff1660e01b8152600401610ce1929190614583565b602060405180830381600087803b158015610cfb57600080fd5b505af1158015610d0f573d6000803e3d6000fd5b505050506040513d601f19601f82011682018060405250810190610d339190613ebe565b5050565b60015481565b610d45613cda565b600f6000838152602001908152602001600020604051806101600160405290816000820154815260200160018201548152602001600282015481526020016003820154815260200160048201548152602001600582015481526020016006820154815260200160078201548152602001600882015481526020016009820160009054906101000a900460ff166002811115610e09577f4e487b7100000000000000000000000000000000000000000000000000000000600052602160045260246000fd5b6002811115610e41577f4e487b7100000000000000000000000000000000000000000000000000000000600052602160045260246000fd5b8152602001600a8201805480602002602001604051908101604052809291908181526020018280548015610e9457602002820191906000526020600020905b815481526020019060010190808311610e80575b5050505050815250509050919050565b60075481565b6000601380549050905090565b600c60009054906101000a900460ff1681565b6000808211610edd576005549050610efb565b60055460055483610eee91906149be565b610ef891906149ef565b90505b919050565b6000610f0b4261099d565b905060035460005482610f1e9190614968565b610f289190614a49565b42101561106157610f5a600460009054906101000a900473ffffffffffffffffffffffffffffffffffffffff16612da9565b8063ffffffff169050600f60008581526020019081526020016000206005016000600f60008781526020019081526020016000206007016000600f60008981526020019081526020016000206001016000869190505585919050558491905055505050600f600082815260200190815260200160002060050154600f600083815260200190815260200160002060070154600f600084815260200190815260200160002060010154600f60008581526020019081526020016000206006016000600f60008781526020019081526020016000206008016000600f60008981526020019081526020016000206002016000869190505585919050558491905055505050611112565b600354600054826110729190614968565b61107c9190614a49565b4210611111576110ad600460009054906101000a900473ffffffffffffffffffffffffffffffffffffffff16612da9565b8063ffffffff169050600f60008581526020019081526020016000206006016000600f60008781526020019081526020016000206008016000600f600089815260200190815260200160002060020160008691905055859190505584919050555050505b5b7ff733bd7f4402cb7d331b34d5cd22f432b9bf71a833f786974545860d74976af281600f600084815260200190815260200160002060010154600f600085815260200190815260200160002060020154600f600086815260200190815260200160002060050154600f600087815260200190815260200160002060060154600f600088815260200190815260200160002060070154600f600089815260200190815260200160002060080154600f60008a8152602001908152602001600020600301546040516111e99897969594939291906147ba565b60405180910390a150565b600f6020528060005260406000206000915090508060000154908060010154908060020154908060030154908060040154908060050154908060060154908060070154908060080154908060090160009054906101000a900460ff1690508a565b606060128054806020026020016040519081016040528092919081815260200182805480156112d957602002820191906000526020600020905b8160009054906101000a900473ffffffffffffffffffffffffffffffffffffffff1673ffffffffffffffffffffffffffffffffffffffff168152602001906001019080831161128f575b5050505050905090565b60116020528060005260406000206000915090508060000160009054906101000a900473ffffffffffffffffffffffffffffffffffffffff16908060010154908060030160009054906101000a900473ffffffffffffffffffffffffffffffffffffffff16905083565b6060600f6000838152602001908152602001600020600a018054806020026020016040519081016040528092919081815260200182805480156113af57602002820191906000526020600020905b81548152602001906001019080831161139b575b50505050509050919050565b60006113c684613044565b90506113d281836131be565b60006113de82856131e0565b90503373ffffffffffffffffffffffffffffffffffffffff16600e600084815260200190815260200160002060008381526020019081526020016000206001600e600086815260200190815260200160002060008581526020019081526020016000208054905061144f9190614a49565b81548110611486577f4e487b7100000000000000000000000000000000000000000000000000000000600052603260045260246000fd5b906000526020600020906006020160020160009054906101000a900473ffffffffffffffffffffffffffffffffffffffff1673ffffffffffffffffffffffffffffffffffffffff16146114d857600080fd5b6114e14261099d565b8210156114ed57600080fd5b60006114f98385612d22565b905060006115a784600e600087815260200190815260200160002060008681526020019081526020016000206001600e60008981526020019081526020016000206000888152602001908152602001600020805490506115599190614a49565b81548110611590577f4e487b7100000000000000000000000000000000000000000000000000000000600052603260045260246000fd5b906000526020600020906006020160030154612d22565b90508082111561181d5780826115bd9190614a49565b600960009054906101000a900473ffffffffffffffffffffffffffffffffffffffff1673ffffffffffffffffffffffffffffffffffffffff1663dd62ed3e33306040518363ffffffff1660e01b815260040161161a929190614523565b60206040518083038186803b15801561163257600080fd5b505afa158015611646573d6000803e3d6000fd5b505050506040513d601f19601f8201168201806040525081019061166a9190613f5f565b101561167557600080fd5b600960009054906101000a900473ffffffffffffffffffffffffffffffffffffffff1673ffffffffffffffffffffffffffffffffffffffff166323b872dd333084866116c19190614a49565b6040518463ffffffff1660e01b81526004016116df9392919061454c565b602060405180830381600087803b1580156116f957600080fd5b505af115801561170d573d6000803e3d6000fd5b505050506040513d601f19601f820116820180604052508101906117319190613ebe565b50808261173e9190614a49565b600f60008681526020019081526020016000206003015461175f9190614968565b600f60008681526020019081526020016000206003018190555080826117859190614a49565b601160003373ffffffffffffffffffffffffffffffffffffffff1673ffffffffffffffffffffffffffffffffffffffff168152602001908152602001600020600101546117d29190614968565b601160003373ffffffffffffffffffffffffffffffffffffffff1673ffffffffffffffffffffffffffffffffffffffff168152602001908152602001600020600101819055506119c8565b808210156119c757600960009054906101000a900473ffffffffffffffffffffffffffffffffffffffff1673ffffffffffffffffffffffffffffffffffffffff1663a9059cbb3384846118709190614a49565b6040518363ffffffff1660e01b815260040161188d929190614583565b602060405180830381600087803b1580156118a757600080fd5b505af11580156118bb573d6000803e3d6000fd5b505050506040513d601f19601f820116820180604052508101906118df9190613ebe565b5081816118ec9190614a49565b600f60008681526020019081526020016000206003015461190d9190614a49565b600f60008681526020019081526020016000206003018190555081816119339190614a49565b601160003373ffffffffffffffffffffffffffffffffffffffff1673ffffffffffffffffffffffffffffffffffffffff168152602001908152602001600020600101546119809190614a49565b601160003373ffffffffffffffffffffffffffffffffffffffff1673ffffffffffffffffffffffffffffffffffffffff168152602001908152602001600020600101819055505b5b84600e600086815260200190815260200160002060008581526020019081526020016000206001600e6000888152602001908152602001600020600087815260200190815260200160002080549050611a219190614a49565b81548110611a58577f4e487b7100000000000000000000000000000000000000000000000000000000600052603260045260246000fd5b906000526020600020906006020160030181905550611a75610f00565b7fa7e9df3f1b011be840ae16e140ea6d91da05a8e21427454370b906cc4a49ad6684600e600087815260200190815260200160002060008681526020019081526020016000206001600e6000898152602001908152602001600020600088815260200190815260200160002080549050611aef9190614a49565b81548110611b26577f4e487b7100000000000000000000000000000000000000000000000000000000600052603260045260246000fd5b9060005260206000209060060201604051611b42929190614730565b60405180910390a150505050505050565b600e6020528260005260406000206020528160005260406000208181548110611b7b57600080fd5b906000526020600020906006020160009250925050508060000154908060010154908060020160009054906101000a900473ffffffffffffffffffffffffffffffffffffffff16908060030154908060040154908060050160009054906101000a900460ff16905086565b6000601160008373ffffffffffffffffffffffffffffffffffffffff1673ffffffffffffffffffffffffffffffffffffffff16815260200190815260200160002060010154118015611c6457503373ffffffffffffffffffffffffffffffffffffffff168173ffffffffffffffffffffffffffffffffffffffff1614155b80611c9b5750600073ffffffffffffffffffffffffffffffffffffffff168173ffffffffffffffffffffffffffffffffffffffff16145b611ca457600080fd5b6000601160003373ffffffffffffffffffffffffffffffffffffffff1673ffffffffffffffffffffffffffffffffffffffff168152602001908152602001600020600101541415611cfa57611cf933826134ae565b5b6000611d0585613044565b9050611d1181846131be565b6000611d1d82866131e0565b9050611d284261099d565b821015611d3457600080fd5b600e600083815260200190815260200160002060008281526020019081526020016000206001600e6000858152602001908152602001600020600084815260200190815260200160002080549050611d8c9190614a49565b81548110611dc3577f4e487b7100000000000000000000000000000000000000000000000000000000600052603260045260246000fd5b906000526020600020906006020160020160009054906101000a900473ffffffffffffffffffffffffffffffffffffffff1673ffffffffffffffffffffffffffffffffffffffff163373ffffffffffffffffffffffffffffffffffffffff161415611e2d57600080fd5b6000611e398386612d22565b905080600e600085815260200190815260200160002060008481526020019081526020016000206001600e6000878152602001908152602001600020600086815260200190815260200160002080549050611e949190614a49565b81548110611ecb577f4e487b7100000000000000000000000000000000000000000000000000000000600052603260045260246000fd5b906000526020600020906006020160030154611ee79190614968565b600960009054906101000a900473ffffffffffffffffffffffffffffffffffffffff1673ffffffffffffffffffffffffffffffffffffffff1663dd62ed3e33306040518363ffffffff1660e01b8152600401611f44929190614523565b60206040518083038186803b158015611f5c57600080fd5b505afa158015611f70573d6000803e3d6000fd5b505050506040513d601f19601f82011682018060405250810190611f949190613f5f565b1015611f9f57600080fd5b600960009054906101000a900473ffffffffffffffffffffffffffffffffffffffff1673ffffffffffffffffffffffffffffffffffffffff166323b872dd333084600e600089815260200190815260200160002060008881526020019081526020016000206001600e60008b815260200190815260200160002060008a8152602001908152602001600020805490506120389190614a49565b8154811061206f577f4e487b7100000000000000000000000000000000000000000000000000000000600052603260045260246000fd5b90600052602060002090600602016003015461208b9190614968565b6040518463ffffffff1660e01b81526004016120a99392919061454c565b602060405180830381600087803b1580156120c357600080fd5b505af11580156120d7573d6000803e3d6000fd5b505050506040513d601f19601f820116820180604052508101906120fb9190613ebe565b5080600f60008581526020019081526020016000206003015461211e9190614968565b600f60008581526020019081526020016000206003018190555080601160003373ffffffffffffffffffffffffffffffffffffffff1673ffffffffffffffffffffffffffffffffffffffff168152602001908152602001600020600101546121869190614968565b601160003373ffffffffffffffffffffffffffffffffffffffff1673ffffffffffffffffffffffffffffffffffffffff1681526020019081526020016000206001018190555060016002811115612206577f4e487b7100000000000000000000000000000000000000000000000000000000600052602160045260246000fd5b600e600085815260200190815260200160002060008481526020019081526020016000206001600e600087815260200190815260200160002060008681526020019081526020016000208054905061225e9190614a49565b81548110612295577f4e487b7100000000000000000000000000000000000000000000000000000000600052603260045260246000fd5b906000526020600020906006020160050160009054906101000a900460ff1660028111156122ec577f4e487b7100000000000000000000000000000000000000000000000000000000600052602160045260246000fd5b141561281157600061239e84600e600087815260200190815260200160002060008681526020019081526020016000206001600e60008981526020019081526020016000206000888152602001908152602001600020805490506123509190614a49565b81548110612387577f4e487b7100000000000000000000000000000000000000000000000000000000600052603260045260246000fd5b906000526020600020906006020160030154612d22565b9050600960009054906101000a900473ffffffffffffffffffffffffffffffffffffffff1673ffffffffffffffffffffffffffffffffffffffff1663a9059cbb600e600087815260200190815260200160002060008681526020019081526020016000206001600e60008981526020019081526020016000206000888152602001908152602001600020805490506124369190614a49565b8154811061246d577f4e487b7100000000000000000000000000000000000000000000000000000000600052603260045260246000fd5b906000526020600020906006020160020160009054906101000a900473ffffffffffffffffffffffffffffffffffffffff16600e600088815260200190815260200160002060008781526020019081526020016000206001600e60008a81526020019081526020016000206000898152602001908152602001600020805490506124f79190614a49565b8154811061252e577f4e487b7100000000000000000000000000000000000000000000000000000000600052603260045260246000fd5b9060005260206000209060060201600301548461254b9190614968565b6040518363ffffffff1660e01b8152600401612568929190614583565b602060405180830381600087803b15801561258257600080fd5b505af1158015612596573d6000803e3d6000fd5b505050506040513d601f19601f820116820180604052508101906125ba9190613ebe565b5080600f6000868152602001908152602001600020600301546125dd9190614a49565b600f6000868152602001908152602001600020600301819055508060116000600e600088815260200190815260200160002060008781526020019081526020016000206001600e60008a81526020019081526020016000206000898152602001908152602001600020805490506126549190614a49565b8154811061268b577f4e487b7100000000000000000000000000000000000000000000000000000000600052603260045260246000fd5b906000526020600020906006020160020160009054906101000a900473ffffffffffffffffffffffffffffffffffffffff1673ffffffffffffffffffffffffffffffffffffffff1673ffffffffffffffffffffffffffffffffffffffff168152602001908152602001600020600101546127059190614a49565b60116000600e600088815260200190815260200160002060008781526020019081526020016000206001600e60008a81526020019081526020016000206000898152602001908152602001600020805490506127619190614a49565b81548110612798577f4e487b7100000000000000000000000000000000000000000000000000000000600052603260045260246000fd5b906000526020600020906006020160020160009054906101000a900473ffffffffffffffffffffffffffffffffffffffff1673ffffffffffffffffffffffffffffffffffffffff1673ffffffffffffffffffffffffffffffffffffffff1681526020019081526020016000206001018190555050612901565b6001600e600085815260200190815260200160002060008481526020019081526020016000206001600e600087815260200190815260200160002060008681526020019081526020016000208054905061286b9190614a49565b815481106128a2577f4e487b7100000000000000000000000000000000000000000000000000000000600052603260045260246000fd5b906000526020600020906006020160050160006101000a81548160ff021916908360028111156128fb577f4e487b7100000000000000000000000000000000000000000000000000000000600052602160045260246000fd5b02179055505b33600e600085815260200190815260200160002060008481526020019081526020016000206001600e600087815260200190815260200160002060008681526020019081526020016000208054905061295a9190614a49565b81548110612991577f4e487b7100000000000000000000000000000000000000000000000000000000600052603260045260246000fd5b906000526020600020906006020160020160006101000a81548173ffffffffffffffffffffffffffffffffffffffff021916908373ffffffffffffffffffffffffffffffffffffffff16021790555084600e600085815260200190815260200160002060008481526020019081526020016000206001600e6000878152602001908152602001600020600086815260200190815260200160002080549050612a399190614a49565b81548110612a70577f4e487b7100000000000000000000000000000000000000000000000000000000600052603260045260246000fd5b906000526020600020906006020160030181905550601060003373ffffffffffffffffffffffffffffffffffffffff1673ffffffffffffffffffffffffffffffffffffffff168152602001908152602001600020839080600181540180825580915050600190039060005260206000200160009091909190915055612af3610f00565b7ff733bd7f4402cb7d331b34d5cd22f432b9bf71a833f786974545860d74976af283600f600086815260200190815260200160002060010154600f600087815260200190815260200160002060020154600f600088815260200190815260200160002060050154600f600089815260200190815260200160002060060154600f60008a815260200190815260200160002060070154600f60008b815260200190815260200160002060080154600f60008c815260200190815260200160002060030154604051612bca9897969594939291906147ba565b60405180910390a17fa7e9df3f1b011be840ae16e140ea6d91da05a8e21427454370b906cc4a49ad6683600e600086815260200190815260200160002060008581526020019081526020016000206001600e6000888152602001908152602001600020600087815260200190815260200160002080549050612c4c9190614a49565b81548110612c83577f4e487b7100000000000000000000000000000000000000000000000000000000600052603260045260246000fd5b9060005260206000209060060201604051612c9f929190614730565b60405180910390a150505050505050565b600860009054906101000a900473ffffffffffffffffffffffffffffffffffffffff1681565b600460009054906101000a900473ffffffffffffffffffffffffffffffffffffffff1681565b600960009054906101000a900473ffffffffffffffffffffffffffffffffffffffff1681565b600080600054620186a060075485600d54612d3d91906149ef565b612d4791906149ef565b612d5191906149be565b612d5b91906149be565b9050600d54814260005487612d709190614968565b612d7a9190614a49565b612d8491906149ef565b612d8e91906149be565b91505092915050565b60005481565b600d5481565b60035481565b6000806000612db6613737565b90508373ffffffffffffffffffffffffffffffffffffffff16635909c0d56040518163ffffffff1660e01b815260040160206040518083038186803b158015612dfe57600080fd5b505afa158015612e12573d6000803e3d6000fd5b505050506040513d601f19601f82011682018060405250810190612e369190613f5f565b92508373ffffffffffffffffffffffffffffffffffffffff16635a3d54936040518163ffffffff1660e01b815260040160206040518083038186803b158015612e7e57600080fd5b505afa158015612e92573d6000803e3d6000fd5b505050506040513d601f19601f82011682018060405250810190612eb69190613f5f565b915060008060008673ffffffffffffffffffffffffffffffffffffffff16630902f1ac6040518163ffffffff1660e01b815260040160606040518083038186803b158015612f0357600080fd5b505afa158015612f17573d6000803e3d6000fd5b505050506040513d601f19601f82011682018060405250810190612f3b9190613ee7565b9250925092508363ffffffff168163ffffffff161461303a5760008185612f629190614a7d565b90508063ffffffff16612f95846dffffffffffffffffffffffffffff16866dffffffffffffffffffffffffffff1661374f565b600001517bffffffffffffffffffffffffffffffffffffffffffffffffffffffff16612fc191906149ef565b87612fcc9190614968565b96508063ffffffff16612fff856dffffffffffffffffffffffffffff16856dffffffffffffffffffffffffffff1661374f565b600001517bffffffffffffffffffffffffffffffffffffffffffffffffffffffff1661302b91906149ef565b866130369190614968565b9550505b5050509193909250565b6000806130508361099d565b90506000600281111561308c577f4e487b7100000000000000000000000000000000000000000000000000000000600052602160045260246000fd5b600f600083815260200190815260200160002060090160009054906101000a900460ff1660028111156130e8577f4e487b7100000000000000000000000000000000000000000000000000000000600052602160045260246000fd5b146130f657809150506131b9565b6130ff4261099d565b81101561310b57600080fd5b80600f6000838152602001908152602001600020600001819055506001600f600083815260200190815260200160002060090160006101000a81548160ff02191690836002811115613186577f4e487b7100000000000000000000000000000000000000000000000000000000600052602160045260246000fd5b02179055506013819080600181540180825580915050600190039060005260206000200160009091909190915055809150505b919050565b60006131ca8383612d22565b9050600b548110156131db57600080fd5b505050565b6000806131ec83610eca565b905060006002811115613228577f4e487b7100000000000000000000000000000000000000000000000000000000600052602160045260246000fd5b600e600086815260200190815260200160002060008381526020019081526020016000206001600e60008881526020019081526020016000206000858152602001908152602001600020805490506132809190614a49565b815481106132b7577f4e487b7100000000000000000000000000000000000000000000000000000000600052603260045260246000fd5b906000526020600020906006020160050160009054906101000a900460ff16600281111561330e577f4e487b7100000000000000000000000000000000000000000000000000000000600052602160045260246000fd5b1461331c57809150506134a8565b83600e600086815260200190815260200160002060008381526020019081526020016000206001600e60008881526020019081526020016000206000858152602001908152602001600020805490506133759190614a49565b815481106133ac577f4e487b7100000000000000000000000000000000000000000000000000000000600052603260045260246000fd5b90600052602060002090600602016000018190555080600e600086815260200190815260200160002060008381526020019081526020016000206001600e600088815260200190815260200160002060008581526020019081526020016000208054905061341a9190614a49565b81548110613451577f4e487b7100000000000000000000000000000000000000000000000000000000600052603260045260246000fd5b906000526020600020906006020160010181905550600f6000858152602001908152602001600020600a01819080600181540180825580915050600190039060005260206000200160009091909190915055809150505b92915050565b81601160008473ffffffffffffffffffffffffffffffffffffffff1673ffffffffffffffffffffffffffffffffffffffff16815260200190815260200160002060000160006101000a81548173ffffffffffffffffffffffffffffffffffffffff021916908373ffffffffffffffffffffffffffffffffffffffff1602179055506000601160008473ffffffffffffffffffffffffffffffffffffffff1673ffffffffffffffffffffffffffffffffffffffff1681526020019081526020016000206001018190555080601160008473ffffffffffffffffffffffffffffffffffffffff1673ffffffffffffffffffffffffffffffffffffffff16815260200190815260200160002060030160006101000a81548173ffffffffffffffffffffffffffffffffffffffff021916908373ffffffffffffffffffffffffffffffffffffffff1602179055506012829080600181540180825580915050600190039060005260206000200160009091909190916101000a81548173ffffffffffffffffffffffffffffffffffffffff021916908373ffffffffffffffffffffffffffffffffffffffff160217905550600073ffffffffffffffffffffffffffffffffffffffff168173ffffffffffffffffffffffffffffffffffffffff161461373357601160008273ffffffffffffffffffffffffffffffffffffffff1673ffffffffffffffffffffffffffffffffffffffff168152602001908152602001600020600201829080600181540180825580915050600190039060005260206000200160009091909190916101000a81548173ffffffffffffffffffffffffffffffffffffffff021916908373ffffffffffffffffffffffffffffffffffffffff1602179055505b5050565b60006401000000004261374a9190614c5e565b905090565b613757613d6c565b6000821161379a576040517f08c379a000000000000000000000000000000000000000000000000000000000815260040161379190614693565b60405180910390fd5b60008314156137d857604051806020016040528060007bffffffffffffffffffffffffffffffffffffffffffffffffffffffff168152509050613950565b71ffffffffffffffffffffffffffffffffffff801683116138a057600082607060ff1685901b61380891906149be565b90507bffffffffffffffffffffffffffffffffffffffffffffffffffffffff801681111561386b576040517f08c379a0000000000000000000000000000000000000000000000000000000008152600401613862906146d3565b60405180910390fd5b6040518060200160405280827bffffffffffffffffffffffffffffffffffffffffffffffffffffffff16815250915050613950565b60006138bc846e01000000000000000000000000000085613956565b90507bffffffffffffffffffffffffffffffffffffffffffffffffffffffff801681111561391f576040517f08c379a0000000000000000000000000000000000000000000000000000000008152600401613916906146d3565b60405180910390fd5b6040518060200160405280827bffffffffffffffffffffffffffffffffffffffffffffffffffffffff168152509150505b92915050565b60008060006139658686613a44565b91509150600084806139a0577f4e487b7100000000000000000000000000000000000000000000000000000000600052601260045260246000fd5b8688099050828111156139bd576001826139ba9190614a49565b91505b80836139c99190614a49565b925060008214156139ea5784836139e091906149be565b9350505050613a3d565b848210613a2c576040517f08c379a0000000000000000000000000000000000000000000000000000000008152600401613a23906146b3565b60405180910390fd5b613a37838387613adf565b93505050505b9392505050565b60008060007fffffffffffffffffffffffffffffffffffffffffffffffffffffffffffffffff80613a9e577f4e487b7100000000000000000000000000000000000000000000000000000000600052601260045260246000fd5b84860990508385613aaf91906149ef565b92508281613abd9190614a49565b915082811015613ad757600182613ad49190614a49565b91505b509250929050565b6000806001837fffffffffffffffffffffffffffffffffffffffffffffffffffffffffffffffff613b109190614a49565b613b1a9190614968565b831690508083613b2a91906149be565b92508085613b3891906149be565b9450600181827fffffffffffffffffffffffffffffffffffffffffffffffffffffffffffffffff613b699190614a49565b613b7391906149be565b613b7d9190614968565b84613b8891906149ef565b85613b939190614968565b94506000600190508084613ba791906149ef565b6002613bb39190614a49565b81613bbe91906149ef565b90508084613bcc91906149ef565b6002613bd89190614a49565b81613be391906149ef565b90508084613bf191906149ef565b6002613bfd9190614a49565b81613c0891906149ef565b90508084613c1691906149ef565b6002613c229190614a49565b81613c2d91906149ef565b90508084613c3b91906149ef565b6002613c479190614a49565b81613c5291906149ef565b90508084613c6091906149ef565b6002613c6c9190614a49565b81613c7791906149ef565b90508084613c8591906149ef565b6002613c919190614a49565b81613c9c91906149ef565b90508084613caa91906149ef565b6002613cb69190614a49565b81613cc191906149ef565b90508086613ccf91906149ef565b925050509392505050565b60405180610160016040528060008152602001600081526020016000815260200160008152602001600081526020016000815260200160008152602001600081526020016000815260200160006002811115613d5f577f4e487b7100000000000000000000000000000000000000000000000000000000600052602160045260246000fd5b8152602001606081525090565b604051806020016040528060007bffffffffffffffffffffffffffffffffffffffffffffffffffffffff1681525090565b600081359050613dac81614d51565b92915050565b600081519050613dc181614d51565b92915050565b600081519050613dd681614d68565b92915050565b600081519050613deb81614d7f565b92915050565b600081359050613e0081614d96565b92915050565b600081519050613e1581614d96565b92915050565b600081519050613e2a81614dad565b92915050565b600060208284031215613e4257600080fd5b6000613e5084828501613d9d565b91505092915050565b600060208284031215613e6b57600080fd5b6000613e7984828501613db2565b91505092915050565b60008060408385031215613e9557600080fd5b6000613ea385828601613d9d565b9250506020613eb485828601613df1565b9150509250929050565b600060208284031215613ed057600080fd5b6000613ede84828501613dc7565b91505092915050565b600080600060608486031215613efc57600080fd5b6000613f0a86828701613ddc565b9350506020613f1b86828701613ddc565b9250506040613f2c86828701613e1b565b9150509250925092565b600060208284031215613f4857600080fd5b6000613f5684828501613df1565b91505092915050565b600060208284031215613f7157600080fd5b6000613f7f84828501613e06565b91505092915050565b60008060408385031215613f9b57600080fd5b6000613fa985828601613df1565b9250506020613fba85828601613df1565b9150509250929050565b600080600060608486031215613fd957600080fd5b6000613fe786828701613df1565b9350506020613ff886828701613df1565b925050604061400986828701613df1565b9150509250925092565b6000806000806080858703121561402957600080fd5b600061403787828801613df1565b945050602061404887828801613df1565b935050604061405987828801613df1565b925050606061406a87828801613d9d565b91505092959194509250565b600061408283836140a6565b60208301905092915050565b600061409a83836144ea565b60208301905092915050565b6140af81614ae8565b82525050565b6140be81614ae8565b82525050565b60006140cf826148f4565b6140d98185614924565b93506140e4836148d4565b8060005b838110156141155781516140fc8882614076565b97506141078361490a565b9250506001810190506140e8565b5085935050505092915050565b600061412d826148ff565b6141378185614935565b9350614142836148e4565b8060005b8381101561417357815161415a888261408e565b975061416583614917565b925050600181019050614146565b5085935050505092915050565b600061418b826148ff565b6141958185614946565b93506141a0836148e4565b8060005b838110156141d15781516141b8888261408e565b97506141c383614917565b9250506001810190506141a4565b5085935050505092915050565b6141e781614afa565b82525050565b6141f681614b80565b82525050565b61420581614ba4565b82525050565b61421481614bc8565b82525050565b61422381614bec565b82525050565b61423281614bec565b82525050565b61424181614bfe565b82525050565b61425081614bfe565b82525050565b6000614263602683614957565b91507f4669786564506f696e743a3a6672616374696f6e3a206469766973696f6e206260008301527f79207a65726f00000000000000000000000000000000000000000000000000006020830152604082019050919050565b60006142c9601a83614957565b91507f46756c6c4d6174683a2046554c4c4449565f4f564552464c4f570000000000006000830152602082019050919050565b6000614309601e83614957565b91507f4669786564506f696e743a3a6672616374696f6e3a206f766572666c6f7700006000830152602082019050919050565b60006101608301600083015161435560008601826144ea565b50602083015161436860208601826144ea565b50604083015161437b60408601826144ea565b50606083015161438e60608601826144ea565b5060808301516143a160808601826144ea565b5060a08301516143b460a08601826144ea565b5060c08301516143c760c08601826144ea565b5060e08301516143da60e08601826144ea565b506101008301516143ef6101008601826144ea565b5061012083015161440461012086018261421a565b5061014083015184820361014086015261441e8282614122565b9150508091505092915050565b60c08201600080830154905061444081614c44565b61444d60008601826144ea565b506001830154905061445e81614c44565b61446b60208601826144ea565b506002830154905061447c81614c10565b61448960408601826140a6565b506003830154905061449a81614c44565b6144a760608601826144ea565b50600483015490506144b881614c44565b6144c560808601826144ea565b50600583015490506144d681614c2a565b6144e360a0860182614238565b5050505050565b6144f381614b66565b82525050565b61450281614b66565b82525050565b600060208201905061451d60008301846140b5565b92915050565b600060408201905061453860008301856140b5565b61454560208301846140b5565b9392505050565b600060608201905061456160008301866140b5565b61456e60208301856140b5565b61457b60408301846144f9565b949350505050565b600060408201905061459860008301856140b5565b6145a560208301846144f9565b9392505050565b60006060820190506145c160008301866140b5565b6145ce60208301856144f9565b6145db60408301846140b5565b949350505050565b600060208201905081810360008301526145fd81846140c4565b905092915050565b6000602082019050818103600083015261461f8184614180565b905092915050565b600060208201905061463c60008301846141de565b92915050565b600060208201905061465760008301846141ed565b92915050565b600060208201905061467260008301846141fc565b92915050565b600060208201905061468d600083018461420b565b92915050565b600060208201905081810360008301526146ac81614256565b9050919050565b600060208201905081810360008301526146cc816142bc565b9050919050565b600060208201905081810360008301526146ec816142fc565b9050919050565b6000602082019050818103600083015261470d818461433c565b905092915050565b600060208201905061472a60008301846144f9565b92915050565b600060e08201905061474560008301856144f9565b614752602083018461442b565b9392505050565b600060c08201905061476e60008301896144f9565b61477b60208301886144f9565b61478860408301876140b5565b61479560608301866144f9565b6147a260808301856144f9565b6147af60a0830184614247565b979650505050505050565b6000610100820190506147d0600083018b6144f9565b6147dd602083018a6144f9565b6147ea60408301896144f9565b6147f760608301886144f9565b61480460808301876144f9565b61481160a08301866144f9565b61481e60c08301856144f9565b61482b60e08301846144f9565b9998505050505050505050565b60006101408201905061484e600083018d6144f9565b61485b602083018c6144f9565b614868604083018b6144f9565b614875606083018a6144f9565b61488260808301896144f9565b61488f60a08301886144f9565b61489c60c08301876144f9565b6148a960e08301866144f9565b6148b76101008301856144f9565b6148c5610120830184614229565b9b9a5050505050505050505050565b6000819050602082019050919050565b6000819050602082019050919050565b600081519050919050565b600081519050919050565b6000602082019050919050565b6000602082019050919050565b600082825260208201905092915050565b600082825260208201905092915050565b600082825260208201905092915050565b600082825260208201905092915050565b600061497382614b66565b915061497e83614b66565b9250827fffffffffffffffffffffffffffffffffffffffffffffffffffffffffffffffff038211156149b3576149b2614c8f565b5b828201905092915050565b60006149c982614b66565b91506149d483614b66565b9250826149e4576149e3614cbe565b5b828204905092915050565b60006149fa82614b66565b9150614a0583614b66565b9250817fffffffffffffffffffffffffffffffffffffffffffffffffffffffffffffffff0483118215151615614a3e57614a3d614c8f565b5b828202905092915050565b6000614a5482614b66565b9150614a5f83614b66565b925082821015614a7257614a71614c8f565b5b828203905092915050565b6000614a8882614b70565b9150614a9383614b70565b925082821015614aa657614aa5614c8f565b5b828203905092915050565b600073ffffffffffffffffffffffffffffffffffffffff82169050919050565b600060ff82169050919050565b6000819050919050565b6000614af382614b46565b9050919050565b60008115159050919050565b6000819050614b1482614d29565b919050565b6000819050614b2782614d3d565b919050565b60006dffffffffffffffffffffffffffff82169050919050565b600073ffffffffffffffffffffffffffffffffffffffff82169050919050565b6000819050919050565b600063ffffffff82169050919050565b6000614b8b82614b92565b9050919050565b6000614b9d82614b46565b9050919050565b6000614baf82614bb6565b9050919050565b6000614bc182614b46565b9050919050565b6000614bd382614bda565b9050919050565b6000614be582614b46565b9050919050565b6000614bf782614b06565b9050919050565b6000614c0982614b19565b9050919050565b6000614c23614c1e83614d1c565b614ab1565b9050919050565b6000614c3d614c3883614d1c565b614ad1565b9050919050565b6000614c57614c5283614d1c565b614ade565b9050919050565b6000614c6982614b66565b9150614c7483614b66565b925082614c8457614c83614cbe565b5b828206905092915050565b7f4e487b7100000000000000000000000000000000000000000000000000000000600052601160045260246000fd5b7f4e487b7100000000000000000000000000000000000000000000000000000000600052601260045260246000fd5b7f4e487b7100000000000000000000000000000000000000000000000000000000600052602160045260246000fd5b60008160001c9050919050565b60038110614d3a57614d39614ced565b5b50565b60038110614d4e57614d4d614ced565b5b50565b614d5a81614ae8565b8114614d6557600080fd5b50565b614d7181614afa565b8114614d7c57600080fd5b50565b614d8881614b2c565b8114614d9357600080fd5b50565b614d9f81614b66565b8114614daa57600080fd5b50565b614db681614b70565b8114614dc157600080fd5b5056fea2646970667358221220976fc117ef1b56b86b718d2f8d8e51595ac1c15914da7b883f4429e0a47f815164736f6c63430008000033",
  "linkReferences": {},
  "deployedLinkReferences": {}
}