{
  "_format": "hh-sol-artifact-1",
  "contractName": "Market",
  "sourceName": "contracts/Market.sol",
  "abi": [
    {
      "inputs": [
        {
          "internalType": "address",
          "name": "_acct",
          "type": "address"
        },
        {
          "internalType": "uint256",
          "name": "_feeProtocol",
          "type": "uint256"
        },
        {
          "internalType": "uint256",
          "name": "_taxMarket",
          "type": "uint256"
        },
        {
          "internalType": "uint256",
          "name": "_dPrice",
          "type": "uint256"
        },
        {
          "internalType": "address",
          "name": "_uniswapPool",
          "type": "address"
        }
      ],
      "stateMutability": "nonpayable",
      "type": "constructor"
    },
    {
      "anonymous": false,
      "inputs": [
        {
          "components": [
            {
              "internalType": "uint256",
              "name": "frameKey",
              "type": "uint256"
            },
            {
              "internalType": "uint256",
              "name": "rate",
              "type": "uint256"
            },
            {
              "internalType": "uint256[]",
              "name": "lotKeys",
              "type": "uint256[]"
            },
            {
              "internalType": "address",
              "name": "claimedBy",
              "type": "address"
            },
            {
              "internalType": "uint256",
              "name": "rateSettle",
              "type": "uint256"
            },
            {
              "internalType": "uint256",
              "name": "feeSettle",
              "type": "uint256"
            },
            {
              "internalType": "uint256",
              "name": "rewardSettle",
              "type": "uint256"
            }
          ],
          "indexed": false,
          "internalType": "struct Market.Frame",
          "name": "frame",
          "type": "tuple"
        }
      ],
      "name": "FrameUpdate",
      "type": "event"
    },
    {
      "anonymous": false,
      "inputs": [
        {
          "components": [
            {
              "internalType": "uint256",
              "name": "frameKey",
              "type": "uint256"
            },
            {
              "internalType": "uint256",
              "name": "lotKey",
              "type": "uint256"
            },
            {
              "components": [
                {
                  "internalType": "uint256",
                  "name": "blockNumber",
                  "type": "uint256"
                },
                {
                  "internalType": "uint256",
                  "name": "blockTimestamp",
                  "type": "uint256"
                },
                {
                  "internalType": "address",
                  "name": "owner",
                  "type": "address"
                },
                {
                  "internalType": "uint256",
                  "name": "acquisitionPrice",
                  "type": "uint256"
                },
                {
                  "internalType": "uint256",
                  "name": "taxCharged",
                  "type": "uint256"
                },
                {
                  "internalType": "uint256",
                  "name": "taxRefunded",
                  "type": "uint256"
                }
              ],
              "internalType": "struct Market.LotState[]",
              "name": "states",
              "type": "tuple[]"
            }
          ],
          "indexed": false,
          "internalType": "struct Market.Lot",
          "name": "lot",
          "type": "tuple"
        }
      ],
      "name": "LotUpdate",
      "type": "event"
    },
    {
      "inputs": [],
      "name": "accountingToken",
      "outputs": [
        {
          "internalType": "contract IERC20Metadata",
          "name": "",
          "type": "address"
        }
      ],
      "stateMutability": "view",
      "type": "function"
    },
    {
      "inputs": [],
      "name": "accountingTokenDecimals",
      "outputs": [
        {
          "internalType": "uint8",
          "name": "",
          "type": "uint8"
        }
      ],
      "stateMutability": "view",
      "type": "function"
    },
    {
      "inputs": [],
      "name": "baseUnit",
      "outputs": [
        {
          "internalType": "uint256",
          "name": "",
          "type": "uint256"
        }
      ],
      "stateMutability": "view",
      "type": "function"
    },
    {
      "inputs": [
        {
          "internalType": "uint256",
          "name": "newFee",
          "type": "uint256"
        }
      ],
      "name": "changeProtocolFee",
      "outputs": [],
      "stateMutability": "nonpayable",
      "type": "function"
    },
    {
      "inputs": [
        {
          "internalType": "uint256",
          "name": "newTax",
          "type": "uint256"
        }
      ],
      "name": "changeTaxPercentage",
      "outputs": [],
      "stateMutability": "nonpayable",
      "type": "function"
    },
    {
      "inputs": [
        {
          "internalType": "uint256",
          "name": "timestamp",
          "type": "uint256"
        }
      ],
      "name": "clcFrameKey",
      "outputs": [
        {
          "internalType": "uint256",
          "name": "",
          "type": "uint256"
        }
      ],
      "stateMutability": "view",
      "type": "function"
    },
    {
      "inputs": [
        {
          "internalType": "uint256",
          "name": "valueQ96",
          "type": "uint256"
        }
      ],
      "name": "clcLotKey",
      "outputs": [
        {
          "internalType": "uint256",
          "name": "",
          "type": "uint256"
        }
      ],
      "stateMutability": "view",
      "type": "function"
    },
    {
      "inputs": [],
      "name": "clcRate",
      "outputs": [
        {
          "internalType": "uint256",
          "name": "",
          "type": "uint256"
        }
      ],
      "stateMutability": "view",
      "type": "function"
    },
    {
      "inputs": [
        {
          "internalType": "uint256",
          "name": "timestamp",
          "type": "uint256"
        }
      ],
      "name": "clcRateAvg",
      "outputs": [
        {
          "internalType": "uint256",
          "name": "",
          "type": "uint256"
        }
      ],
      "stateMutability": "view",
      "type": "function"
    },
    {
      "inputs": [
        {
          "internalType": "uint256",
          "name": "frameKey",
          "type": "uint256"
        }
      ],
      "name": "clcRewardFund",
      "outputs": [
        {
          "internalType": "uint256",
          "name": "",
          "type": "uint256"
        }
      ],
      "stateMutability": "view",
      "type": "function"
    },
    {
      "inputs": [
        {
          "internalType": "uint256",
          "name": "frameKey",
          "type": "uint256"
        },
        {
          "internalType": "uint256",
          "name": "acquisitionPriceQ96",
          "type": "uint256"
        }
      ],
      "name": "clcTax",
      "outputs": [
        {
          "internalType": "uint256",
          "name": "",
          "type": "uint256"
        }
      ],
      "stateMutability": "view",
      "type": "function"
    },
    {
      "inputs": [
        {
          "internalType": "uint256",
          "name": "frameKey",
          "type": "uint256"
        },
        {
          "internalType": "uint256",
          "name": "lotKey",
          "type": "uint256"
        }
      ],
      "name": "concatenate",
      "outputs": [
        {
          "internalType": "uint256",
          "name": "concatenated",
          "type": "uint256"
        }
      ],
      "stateMutability": "pure",
      "type": "function"
    },
    {
      "inputs": [
        {
          "internalType": "uint256",
          "name": "amount18Dec",
          "type": "uint256"
        },
        {
          "internalType": "bool",
          "name": "round",
          "type": "bool"
        }
      ],
      "name": "convertToTokenDecimals",
      "outputs": [
        {
          "internalType": "uint256",
          "name": "",
          "type": "uint256"
        }
      ],
      "stateMutability": "view",
      "type": "function"
    },
    {
      "inputs": [],
      "name": "dPrice",
      "outputs": [
        {
          "internalType": "uint256",
          "name": "",
          "type": "uint256"
        }
      ],
      "stateMutability": "view",
      "type": "function"
    },
    {
      "inputs": [],
      "name": "feeProtocol",
      "outputs": [
        {
          "internalType": "uint256",
          "name": "",
          "type": "uint256"
        }
      ],
      "stateMutability": "view",
      "type": "function"
    },
    {
      "inputs": [
        {
          "internalType": "uint256",
          "name": "",
          "type": "uint256"
        }
      ],
      "name": "frames",
      "outputs": [
        {
          "internalType": "uint256",
          "name": "frameKey",
          "type": "uint256"
        },
        {
          "internalType": "uint256",
          "name": "rate",
          "type": "uint256"
        },
        {
          "internalType": "address",
          "name": "claimedBy",
          "type": "address"
        },
        {
          "internalType": "uint256",
          "name": "rateSettle",
          "type": "uint256"
        },
        {
          "internalType": "uint256",
          "name": "feeSettle",
          "type": "uint256"
        },
        {
          "internalType": "uint256",
          "name": "rewardSettle",
          "type": "uint256"
        }
      ],
      "stateMutability": "view",
      "type": "function"
    },
    {
      "inputs": [
        {
          "internalType": "uint256",
          "name": "",
          "type": "uint256"
        }
      ],
      "name": "framesKeys",
      "outputs": [
        {
          "internalType": "uint256",
          "name": "",
          "type": "uint256"
        }
      ],
      "stateMutability": "view",
      "type": "function"
    },
    {
      "inputs": [
        {
          "internalType": "uint256",
          "name": "x96",
          "type": "uint256"
        }
      ],
      "name": "fromQ96",
      "outputs": [
        {
          "internalType": "uint256",
          "name": "",
          "type": "uint256"
        }
      ],
      "stateMutability": "view",
      "type": "function"
    },
    {
      "inputs": [
        {
          "internalType": "uint256",
          "name": "frameKey",
          "type": "uint256"
        }
      ],
      "name": "getFrame",
      "outputs": [
        {
          "components": [
            {
              "internalType": "uint256",
              "name": "frameKey",
              "type": "uint256"
            },
            {
              "internalType": "uint256",
              "name": "rate",
              "type": "uint256"
            },
            {
              "internalType": "uint256[]",
              "name": "lotKeys",
              "type": "uint256[]"
            },
            {
              "internalType": "address",
              "name": "claimedBy",
              "type": "address"
            },
            {
              "internalType": "uint256",
              "name": "rateSettle",
              "type": "uint256"
            },
            {
              "internalType": "uint256",
              "name": "feeSettle",
              "type": "uint256"
            },
            {
              "internalType": "uint256",
              "name": "rewardSettle",
              "type": "uint256"
            }
          ],
          "internalType": "struct Market.Frame",
          "name": "",
          "type": "tuple"
        }
      ],
      "stateMutability": "view",
      "type": "function"
    },
    {
      "inputs": [
        {
          "internalType": "uint256",
          "name": "frameKey",
          "type": "uint256"
        }
      ],
      "name": "getFrameLotKeys",
      "outputs": [
        {
          "internalType": "uint256[]",
          "name": "",
          "type": "uint256[]"
        }
      ],
      "stateMutability": "view",
      "type": "function"
    },
    {
      "inputs": [],
      "name": "getFramesLength",
      "outputs": [
        {
          "internalType": "uint256",
          "name": "",
          "type": "uint256"
        }
      ],
      "stateMutability": "view",
      "type": "function"
    },
    {
      "inputs": [
        {
          "internalType": "uint256",
          "name": "frameKey",
          "type": "uint256"
        },
        {
          "internalType": "uint256",
          "name": "lotKey",
          "type": "uint256"
        }
      ],
      "name": "getLot",
      "outputs": [
        {
          "components": [
            {
              "internalType": "uint256",
              "name": "frameKey",
              "type": "uint256"
            },
            {
              "internalType": "uint256",
              "name": "lotKey",
              "type": "uint256"
            },
            {
              "components": [
                {
                  "internalType": "uint256",
                  "name": "blockNumber",
                  "type": "uint256"
                },
                {
                  "internalType": "uint256",
                  "name": "blockTimestamp",
                  "type": "uint256"
                },
                {
                  "internalType": "address",
                  "name": "owner",
                  "type": "address"
                },
                {
                  "internalType": "uint256",
                  "name": "acquisitionPrice",
                  "type": "uint256"
                },
                {
                  "internalType": "uint256",
                  "name": "taxCharged",
                  "type": "uint256"
                },
                {
                  "internalType": "uint256",
                  "name": "taxRefunded",
                  "type": "uint256"
                }
              ],
              "internalType": "struct Market.LotState[]",
              "name": "states",
              "type": "tuple[]"
            }
          ],
          "internalType": "struct Market.Lot",
          "name": "",
          "type": "tuple"
        }
      ],
      "stateMutability": "view",
      "type": "function"
    },
    {
      "inputs": [
        {
          "internalType": "uint256",
          "name": "frameKey",
          "type": "uint256"
        },
        {
          "internalType": "uint256",
          "name": "lotKey",
          "type": "uint256"
        }
      ],
      "name": "getLotStates",
      "outputs": [
        {
          "components": [
            {
              "internalType": "uint256",
              "name": "blockNumber",
              "type": "uint256"
            },
            {
              "internalType": "uint256",
              "name": "blockTimestamp",
              "type": "uint256"
            },
            {
              "internalType": "address",
              "name": "owner",
              "type": "address"
            },
            {
              "internalType": "uint256",
              "name": "acquisitionPrice",
              "type": "uint256"
            },
            {
              "internalType": "uint256",
              "name": "taxCharged",
              "type": "uint256"
            },
            {
              "internalType": "uint256",
              "name": "taxRefunded",
              "type": "uint256"
            }
          ],
          "internalType": "struct Market.LotState[]",
          "name": "",
          "type": "tuple[]"
        }
      ],
      "stateMutability": "view",
      "type": "function"
    },
    {
      "inputs": [],
      "name": "getLotsArray",
      "outputs": [
        {
          "internalType": "uint256[]",
          "name": "",
          "type": "uint256[]"
        }
      ],
      "stateMutability": "view",
      "type": "function"
    },
    {
      "inputs": [],
      "name": "getLotsArrayLength",
      "outputs": [
        {
          "internalType": "uint256",
          "name": "",
          "type": "uint256"
        }
      ],
      "stateMutability": "view",
      "type": "function"
    },
    {
      "inputs": [
        {
          "internalType": "uint256",
          "name": "frameKey",
          "type": "uint256"
        }
      ],
      "name": "getLotsKeysInFrame",
      "outputs": [
        {
          "internalType": "uint256[]",
          "name": "",
          "type": "uint256[]"
        }
      ],
      "stateMutability": "view",
      "type": "function"
    },
    {
      "inputs": [
        {
          "internalType": "uint256",
          "name": "frameKey",
          "type": "uint256"
        }
      ],
      "name": "getLotsLength",
      "outputs": [
        {
          "internalType": "uint256",
          "name": "",
          "type": "uint256"
        }
      ],
      "stateMutability": "view",
      "type": "function"
    },
    {
      "inputs": [
        {
          "internalType": "uint256",
          "name": "frameKey",
          "type": "uint256"
        }
      ],
      "name": "getStateFrame",
      "outputs": [
        {
          "internalType": "enum Market.SFrame",
          "name": "",
          "type": "uint8"
        }
      ],
      "stateMutability": "view",
      "type": "function"
    },
    {
      "inputs": [
        {
          "internalType": "uint256",
          "name": "frameKey",
          "type": "uint256"
        },
        {
          "internalType": "uint256",
          "name": "lotKey",
          "type": "uint256"
        }
      ],
      "name": "getStateLot",
      "outputs": [
        {
          "internalType": "enum Market.SLot",
          "name": "",
          "type": "uint8"
        }
      ],
      "stateMutability": "view",
      "type": "function"
    },
    {
      "inputs": [],
      "name": "initTimestamp",
      "outputs": [
        {
          "internalType": "uint256",
          "name": "",
          "type": "uint256"
        }
      ],
      "stateMutability": "view",
      "type": "function"
    },
    {
      "inputs": [
        {
          "internalType": "uint256",
          "name": "",
          "type": "uint256"
        },
        {
          "internalType": "uint256",
          "name": "",
          "type": "uint256"
        }
      ],
      "name": "lots",
      "outputs": [
        {
          "internalType": "uint256",
          "name": "frameKey",
          "type": "uint256"
        },
        {
          "internalType": "uint256",
          "name": "lotKey",
          "type": "uint256"
        }
      ],
      "stateMutability": "view",
      "type": "function"
    },
    {
      "inputs": [
        {
          "internalType": "uint256",
          "name": "",
          "type": "uint256"
        }
      ],
      "name": "lotsArray",
      "outputs": [
        {
          "internalType": "uint256",
          "name": "",
          "type": "uint256"
        }
      ],
      "stateMutability": "view",
      "type": "function"
    },
    {
      "inputs": [
        {
          "internalType": "uint256",
          "name": "frameKey",
          "type": "uint256"
        },
        {
          "internalType": "uint256",
          "name": "avgPrice",
          "type": "uint256"
        }
      ],
      "name": "overrideFrameRate",
      "outputs": [],
      "stateMutability": "nonpayable",
      "type": "function"
    },
    {
      "inputs": [],
      "name": "owner",
      "outputs": [
        {
          "internalType": "address",
          "name": "",
          "type": "address"
        }
      ],
      "stateMutability": "view",
      "type": "function"
    },
    {
      "inputs": [],
      "name": "period",
      "outputs": [
        {
          "internalType": "uint256",
          "name": "",
          "type": "uint256"
        }
      ],
      "stateMutability": "view",
      "type": "function"
    },
    {
      "inputs": [
        {
          "internalType": "uint256",
          "name": "frameKey",
          "type": "uint256"
        }
      ],
      "name": "setFrameRate",
      "outputs": [],
      "stateMutability": "nonpayable",
      "type": "function"
    },
    {
      "inputs": [
        {
          "internalType": "uint256",
          "name": "frameKey",
          "type": "uint256"
        }
      ],
      "name": "settleFrame",
      "outputs": [
        {
          "internalType": "uint256",
          "name": "",
          "type": "uint256"
        }
      ],
      "stateMutability": "nonpayable",
      "type": "function"
    },
    {
      "inputs": [],
      "name": "tSettle",
      "outputs": [
        {
          "internalType": "uint256",
          "name": "",
          "type": "uint256"
        }
      ],
      "stateMutability": "view",
      "type": "function"
    },
    {
      "inputs": [],
      "name": "taxMarket",
      "outputs": [
        {
          "internalType": "uint256",
          "name": "",
          "type": "uint256"
        }
      ],
      "stateMutability": "view",
      "type": "function"
    },
    {
      "inputs": [
        {
          "internalType": "uint256",
          "name": "amount",
          "type": "uint256"
        }
      ],
      "name": "toQ96",
      "outputs": [
        {
          "internalType": "uint256",
          "name": "",
          "type": "uint256"
        }
      ],
      "stateMutability": "view",
      "type": "function"
    },
    {
      "inputs": [
        {
          "internalType": "uint256",
          "name": "timestamp",
          "type": "uint256"
        },
        {
          "internalType": "uint256",
          "name": "rate",
          "type": "uint256"
        },
        {
          "internalType": "uint256",
          "name": "acquisitionPrice",
          "type": "uint256"
        }
      ],
      "name": "tradeLot",
      "outputs": [],
      "stateMutability": "nonpayable",
      "type": "function"
    },
    {
      "inputs": [],
      "name": "uniswapPool",
      "outputs": [
        {
          "internalType": "contract IUniswapV3Pool",
          "name": "",
          "type": "address"
        }
      ],
      "stateMutability": "view",
      "type": "function"
    },
    {
      "inputs": [
        {
          "internalType": "uint256",
          "name": "amount",
          "type": "uint256"
        }
      ],
      "name": "withdrawAccountingToken",
      "outputs": [],
      "stateMutability": "nonpayable",
      "type": "function"
    }
  ],
  "bytecode": "0x60a060405262015180600055636592e1806001556000600255610258600355600060055560006006553480156200003557600080fd5b50604051620044c7380380620044c7833981016040819052620000589162000382565b60088054336001600160a01b0319918216179091556004805482166001600160a01b03848116919091178255600780549093169088169081179092556040805163313ce56760e01b8152905163313ce567928281019260209291908290030181865afa158015620000cd573d6000803e3d6000fd5b505050506040513d601f19601f82011682018060405250810190620000f39190620003d7565b6007805460ff60a01b1916600160a01b60ff938416810291909117918290556200012292910416600a6200050f565b60808190526200014e906064906200013c9087906200051d565b62000148919062000537565b62000190565b60025560805162000169906064906200013c9086906200051d565b6006556080516200018190620001489084906200051d565b60055550620005869350505050565b6000620001b4826c01000000000000000000000000608051620001ba60201b60201c565b92915050565b6000808060001985870985870292508281108382030391505080600003620001f65760008411620001ea57600080fd5b5082900490506200035e565b8084116200020357600080fd5b60008486880980840393811190920391905060008562000226811960016200055a565b169586900495938490049360008190030460010190506200024881846200051d565b9093179260006200025b8760036200051d565b60021890506200026c81886200051d565b6200027990600262000570565b6200028590826200051d565b90506200029381886200051d565b620002a090600262000570565b620002ac90826200051d565b9050620002ba81886200051d565b620002c790600262000570565b620002d390826200051d565b9050620002e181886200051d565b620002ee90600262000570565b620002fa90826200051d565b90506200030881886200051d565b6200031590600262000570565b6200032190826200051d565b90506200032f81886200051d565b6200033c90600262000570565b6200034890826200051d565b90506200035681866200051d565b955050505050505b9392505050565b80516001600160a01b03811681146200037d57600080fd5b919050565b600080600080600060a086880312156200039b57600080fd5b620003a68662000365565b9450602086015193506040860151925060608601519150620003cb6080870162000365565b90509295509295909350565b600060208284031215620003ea57600080fd5b815160ff811681146200035e57600080fd5b634e487b7160e01b600052601160045260246000fd5b600181815b8085111562000453578160001904821115620004375762000437620003fc565b808516156200044557918102915b93841c939080029062000417565b509250929050565b6000826200046c57506001620001b4565b816200047b57506000620001b4565b81600181146200049457600281146200049f57620004bf565b6001915050620001b4565b60ff841115620004b357620004b3620003fc565b50506001821b620001b4565b5060208310610133831016604e8410600b8410161715620004e4575081810a620001b4565b620004f0838362000412565b8060001904821115620005075762000507620003fc565b029392505050565b60006200035e83836200045b565b8082028115828204841417620001b457620001b4620003fc565b6000826200055557634e487b7160e01b600052601260045260246000fd5b500490565b80820180821115620001b457620001b4620003fc565b81810381811115620001b457620001b4620003fc565b608051613f17620005b0600039600081816105a70152818161082c015261116d0152613f176000f3fe608060405234801561001057600080fd5b50600436106102695760003560e01c80638edc6a2c11610151578063c0423f2e116100c3578063ed320aa811610087578063ed320aa814610602578063ef78d4fd1461060a578063f601d51014610613578063fb0d5e0914610639578063fe68747514610659578063ffdabe2d1461066c57600080fd5b8063c0423f2e1461059a578063c2930f91146105a2578063d18743dd146105c9578063da68cf8b146105dc578063e107fb4f146105ef57600080fd5b8063b866debb11610115578063b866debb146104f2578063b93dafa914610505578063ba4e137f1461054c578063ba52f34214610554578063bad1265314610567578063bdd3d8251461058757600080fd5b80638edc6a2c1461040e5780639592de1814610431578063a10340bc14610444578063a73482f6146104cc578063b254eb17146104df57600080fd5b8063527eb4bc116101ea578063773d51eb116101ae578063773d51eb1461038b57806378328a17146103ab5780637e996639146103be57806386e670cb146103c75780638a5779c8146103da5780638da5cb5b146103e357600080fd5b8063527eb4bc1461033357806361eee2cb1461033c57806364772f211461034f5780636f1aefc3146103625780637358c57a1461038257600080fd5b80632c438717116102315780632c438717146102d157806339a6a489146102e45780633baf1587146102f7578063499a0fc41461030a5780634c73884f1461031357600080fd5b8063050e88401461026e5780630d0a1c1a1461029457806318d13d87146102b4578063197c4e78146102c95780632457e62014610294575b600080fd5b61028161027c36600461347f565b61067f565b6040519081526020015b60405180910390f35b6102a76102a236600461347f565b6106a0565b60405161028b9190613498565b6102c76102c23660046134dc565b610705565b005b600c54610281565b6102816102df36600461347f565b610824565b6102816102f236600461347f565b61085b565b6102c761030536600461347f565b610a28565b61028160055481565b6103266103213660046134dc565b610b1f565b60405161028b9190613514565b61028160025481565b61028161034a36600461347f565b610c4b565b6102c761035d36600461352e565b610c82565b6103756103703660046134dc565b610dbb565b60405161028b919061359f565b61028160015481565b61039e61039936600461347f565b610f12565b60405161028b919061360a565b6102816103b93660046136b8565b61103b565b61028160065481565b6102c76103d536600461347f565b61109d565b61028160035481565b6008546103f6906001600160a01b031681565b6040516001600160a01b03909116815260200161028b565b61028161041c36600461347f565b60009081526009602052604090206002015490565b61028161043f36600461347f565b611108565b61049161045236600461347f565b600960205260009081526040902080546001820154600383015460048401546005850154600690950154939492936001600160a01b0390921692909186565b6040805196875260208701959095526001600160a01b03909316938501939093526060840152608083019190915260a082015260c00161028b565b6102816104da3660046134dc565b611143565b6102816104ed36600461347f565b611160565b61028161050036600461347f565b611191565b6105376105133660046134dc565b600b6020908152600092835260408084209091529082529020805460019091015482565b6040805192835260208301919091520161028b565b610281611658565b61028161056236600461347f565b61192f565b61057a61057536600461347f565b61193f565b60405161028b91906136e8565b6004546103f6906001600160a01b031681565b6102a76119d6565b6102817f000000000000000000000000000000000000000000000000000000000000000081565b6102c76105d736600461347f565b611a2e565b6007546103f6906001600160a01b031681565b6102816105fd3660046134dc565b611b16565b600a54610281565b61028160005481565b60075461062790600160a01b900460ff1681565b60405160ff909116815260200161028b565b61064c6106473660046134dc565b611bce565b60405161028b91906136fc565b6102c761066736600461347f565b611c84565b61028161067a36600461347f565b611cee565b600a818154811061068f57600080fd5b600091825260209091200154905081565b6000818152600960209081526040918290206002018054835181840281018401909452808452606093928301828280156106f957602002820191906000526020600020905b8154815260200190600101908083116106e5575b50505050509050919050565b6008546001600160a01b031633146107745760405162461bcd60e51b815260206004820152602760248201527f4f6e6c79206f776e65722063616e20757064617465206672616d6520636c6f736044820152666520707269636560c81b60648201526084015b60405180910390fd5b60008281526009602052604081205490036107a15760405162461bcd60e51b815260040161076b90613739565b6000828152600960205260409020600301546001600160a01b0316156108095760405162461bcd60e51b815260206004820181905260248201527f4672616d65207265776172642077617320616c726561647920636c61696d6564604482015260640161076b565b60009182526009602052604080832054835290912060010155565b6000610855827f0000000000000000000000000000000000000000000000000000000000000000600160601b612115565b92915050565b600080805b600084815260096020526040902060020154811015610a2157600084815260096020818152604080842080548552600b8352908420888552929091526002018054839190859081106108b4576108b4613766565b90600052602060002001548152602001908152602001600020604051806060016040529081600082015481526020016001820154815260200160028201805480602002602001604051908101604052809291908181526020016000905b828210156109825760008481526020908190206040805160c08101825260068602909201805483526001808201548486015260028201546001600160a01b03169284019290925260038101546060840152600481015460808401526005015460a08301529083529092019101610911565b5050505081525050905060005b816040015151811015610a0c57816040015181815181106109b2576109b2613766565b602002602001015160800151846109c99190613792565b9350816040015181815181106109e1576109e1613766565b602002602001015160a00151846109f891906137a5565b935080610a04816137b8565b91505061098f565b50508080610a19906137b8565b915050610860565b5092915050565b6000818152600960205260408120549003610a555760405162461bcd60e51b815260040161076b90613739565b6000805482825260096020526040909120544291610a7291613792565b1115610ac05760405162461bcd60e51b815260206004820152601b60248201527f4672616d652068617320746f20626520696e2074686520706173740000000000604482015260640161076b565b6000610acb82611cee565b600083815260096020526040908190206001810183905590519192507f861dcb88c2eea524dd3c4d2026fc29c39249f4d090843bcc78037879d296c45291610b1391906137d1565b60405180910390a15050565b6000828152600b602090815260408083208484529091528120600101548103610b4a57506000610855565b6000610b558461193f565b6004811115610b6657610b666134fe565b03610b7357506000610855565b6001610b7e8461193f565b6004811115610b8f57610b8f6134fe565b1480610bb457506002610ba18461193f565b6004811115610bb257610bb26134fe565b145b15610bc157506001610855565b6000838152600b602090815260408083208584528252808320600190810154878552600990935292209091015410801590610c3557506005546000848152600b60209081526040808320868452909152902060010154610c219190613792565b600084815260096020526040902060010154105b15610c4257506002610855565b50600392915050565b60006001548211610c5e57505060015490565b600054600154610c6e90846137a5565b610c789190613885565b61085590836137a5565b6000610c8d84610c4b565b90506000610c9a84611108565b6000838152600b6020908152604080832084845290915281206001015491925003610cef576000828152600960205260408120549003610cdf57610cdd8561228e565b505b610cea8282856123cb565b610d64565b6000828152600b6020908152604080832084845290915290206002018054339190610d1c906001906137a5565b81548110610d2c57610d2c613766565b60009182526020909120600260069092020101546001600160a01b031603610d5957610cea828285612716565b610d64828285612b54565b6000828152600b602090815260408083208484529091529081902090517f906ff162b3f2709ab28fb678d43913964434148dd206e9b17adb3c1255090cb191610dac91613940565b60405180910390a15050505050565b610ddf60405180606001604052806000815260200160008152602001606081525090565b6000838152600b602090815260408083208584529091528120600101549003610e3e5760405162461bcd60e51b8152602060048201526011602482015270131bdd08191bd95cdb89dd08195e1a5cdd607a1b604482015260640161076b565b6000838152600b602090815260408083208584528252808320815160608101835281548152600182015481850152600282018054845181870281018701865281815292969395948701949293919290919084015b82821015610f035760008481526020908190206040805160c08101825260068602909201805483526001808201548486015260028201546001600160a01b03169284019290925260038101546060840152600481015460808401526005015460a08301529083529092019101610e92565b50505091525090949350505050565b610f5b6040518060e0016040528060008152602001600081526020016060815260200160006001600160a01b031681526020016000815260200160008152602001600081525090565b6000828152600960205260408120549003610f885760405162461bcd60e51b815260040161076b90613739565b600082815260096020908152604091829020825160e0810184528154815260018201548184015260028201805485518186028101860187528181529295939493860193830182828015610ffa57602002820191906000526020600020905b815481526020019060010190808311610fe6575b505050918352505060038201546001600160a01b03166020820152600482015460408201526005820154606082015260069091015460809091015292915050565b600754600090819061105890600160a01b900460ff166012613953565b61106390600a613a50565b905082156110935780611077600282613a5f565b6110819086613792565b61108b9190613a5f565b915050610855565b61108b8185613a5f565b6008546001600160a01b031633146111035760405162461bcd60e51b8152602060048201526024808201527f4f6e6c79206f776e65722063616e206368616e6765207461782070657263656e6044820152637461676560e01b606482015260840161076b565b600655565b600060055482101561111c57505060055490565b60006005548361112c9190613a5f565b905061113c816005546001612115565b9392505050565b6000611154826402540be400613a73565b915061113c8383613792565b600061085582600160601b7f0000000000000000000000000000000000000000000000000000000000000000612115565b60008181526009602052604081205481036111be5760405162461bcd60e51b815260040161076b90613739565b60036111c98361193f565b60048111156111da576111da6134fe565b146112275760405162461bcd60e51b815260206004820152601b60248201527f4672616d65206973206e6f7420696e2052415445442073746174650000000000604482015260640161076b565b60008281526009602052604081206001015461124290611108565b6000848152600b6020908152604080832084845290915281209192506112678561085b565b9050600061127c82600254600160601b612115565b9050600061128a82846137a5565b6000888152600960205260409020600581018490556006018190556002850154909150156114e35760408051808201909152601081526f2637ba103430b99030b71037bbb732b960811b60208201526002850180546113239291906112f1906001906137a5565b8154811061130157611301613766565b60009182526020909120600260069092020101546001600160a01b0316613022565b6007546002850180546001600160a01b039092169163a9059cbb919061134b906001906137a5565b8154811061135b5761135b613766565b60009182526020909120600260069092020101546001600160a01b031661138184610824565b6040516001600160e01b031960e085901b1681526001600160a01b03909216600483015260248201526044016020604051808303816000875af11580156113cc573d6000803e3d6000fd5b505050506040513d601f19601f820116820180604052508101906113f09190613a8a565b50600284018054611403906001906137a5565b8154811061141357611413613766565b60009182526020808320600260069093020191909101548983526009909152604090912060030180546001600160a01b0319166001600160a01b039283161790556007546008549082169163a9059cbb911661146e85610824565b6040516001600160e01b031960e085901b1681526001600160a01b03909216600483015260248201526044016020604051808303816000875af11580156114b9573d6000803e3d6000fd5b505050506040513d601f19601f820116820180604052508101906114dd9190613a8a565b506115a7565b6007546008546001600160a01b039182169163a9059cbb911661150586610824565b6040516001600160e01b031960e085901b1681526001600160a01b03909216600483015260248201526044016020604051808303816000875af1158015611550573d6000803e3d6000fd5b505050506040513d601f19601f820116820180604052508101906115749190613a8a565b50600854600088815260096020526040902060030180546001600160a01b0319166001600160a01b039092169190911790555b600087815260096020526040908190206001810154600490910155517f906ff162b3f2709ab28fb678d43913964434148dd206e9b17adb3c1255090cb1906115f0908690613940565b60405180910390a16000878152600960205260409081902090517f861dcb88c2eea524dd3c4d2026fc29c39249f4d090843bcc78037879d296c45291611635916137d1565b60405180910390a150505060009384525050600960205250604090206006015490565b6004805460408051633850c7bd60e01b8152905160009384936001600160a01b031692633850c7bd928183019260e0928290030181865afa1580156116a1573d6000803e3d6000fd5b505050506040513d601f19601f820116820180604052508101906116c59190613ae4565b50505050505090506000816001600160a01b0316826001600160a01b03166116ed9190613a73565b6004805460408051630dfe168160e01b81529051939450606085901c936000936001600160a01b0390931692630dfe1681928082019260209290918290030181865afa158015611741573d6000803e3d6000fd5b505050506040513d601f19601f820116820180604052508101906117659190613b7a565b90506000600460009054906101000a90046001600160a01b03166001600160a01b031663d21220a76040518163ffffffff1660e01b8152600401602060405180830381865afa1580156117bc573d6000803e3d6000fd5b505050506040513d601f19601f820116820180604052508101906117e09190613b7a565b90506000826001600160a01b031663313ce5676040518163ffffffff1660e01b8152600401602060405180830381865afa158015611822573d6000803e3d6000fd5b505050506040513d601f19601f820116820180604052508101906118469190613b97565b90506000826001600160a01b031663313ce5676040518163ffffffff1660e01b8152600401602060405180830381865afa158015611888573d6000803e3d6000fd5b505050506040513d601f19601f820116820180604052508101906118ac9190613b97565b90508060ff168260ff1611156118e3576118dc856118ca8385613953565b6118d590600a613a50565b6001612115565b9450611914565b8160ff168160ff161115611914576119118560016119018585613953565b61190c90600a613a50565b612115565b94505b611923600160601b8087612115565b98975050505050505050565b600c818154811061068f57600080fd5b600081815260096020526040812054810361195c57506000919050565b6000828152600960205260409020600301546001600160a01b03161561198457506004919050565b6000805483825260096020526040909120546119a09190613792565b4210156119af57506001919050565b600082815260096020526040902060010154156119ce57506003919050565b506002919050565b6060600c805480602002602001604051908101604052809291908181526020018280548015611a2457602002820191906000526020600020905b815481526020019060010190808311611a10575b5050505050905090565b6008546001600160a01b03163314611a995760405162461bcd60e51b815260206004820152602860248201527f4f6e6c79206f776e65722063616e207769746864726177206163636f756e74696044820152673733903a37b5b2b760c11b606482015260840161076b565b60075460085460405163a9059cbb60e01b81526001600160a01b0391821660048201526024810184905291169063a9059cbb906044016020604051808303816000875af1158015611aee573d6000803e3d6000fd5b505050506040513d601f19601f82011682018060405250810190611b129190613a8a565b5050565b60004260005484611b279190613792565b11611b745760405162461bcd60e51b815260206004820152601d60248201527f4672616d652068617320746f20626520696e2074686520667574757265000000604482015260640161076b565b60004260005485611b859190613792565b611b8f91906137a5565b905060008054600654611ba29190613a5f565b90506000611bb08383613a73565b90506000611bc38287600160601b612115565b979650505050505050565b6000828152600b602090815260408083208484528252808320600201805482518185028101850190935280835260609492939192909184015b82821015611c785760008481526020908190206040805160c08101825260068602909201805483526001808201548486015260028201546001600160a01b03169284019290925260038101546060840152600481015460808401526005015460a08301529083529092019101611c07565b50505050905092915050565b6008546001600160a01b03163314611ce95760405162461bcd60e51b815260206004820152602260248201527f4f6e6c79206f776e65722063616e206368616e67652070726f746f636f6c2066604482015261656560f01b606482015260840161076b565b600255565b6000806003548342611d0091906137a5565b611d0a9190613792565b90506000611d1884426137a5565b60408051600280825260608201835292935060009290916020830190803683370190505090508281600081518110611d5257611d52613766565b602002602001019063ffffffff16908163ffffffff16815250508181600181518110611d8057611d80613766565b63ffffffff909216602092830291909101909101526004805460405163883bdbfd60e01b81526000926001600160a01b039092169163883bdbfd91611dc791869101613bc8565b600060405180830381865afa158015611de4573d6000803e3d6000fd5b505050506040513d6000823e601f3d908101601f19168201604052611e0c9190810190613cc4565b509050600081600081518110611e2457611e24613766565b602002602001015160060b82600181518110611e4257611e42613766565b602002602001015160060b611e579190613d90565b90506000811215611ea05760405162461bcd60e51b81526020600482015260136024820152724e65676174697665207469636b2064656c746160681b604482015260640161076b565b806000611eb663ffffffff8088169089166137a5565b90506000611ec48284613a5f565b90506000611ed182613067565b90506000611ee86001600160a01b03831680613a73565b6004805460408051630dfe168160e01b81529051939450606085901c936000936001600160a01b0390931692630dfe1681928082019260209290918290030181865afa158015611f3c573d6000803e3d6000fd5b505050506040513d601f19601f82011682018060405250810190611f609190613b7a565b90506000600460009054906101000a90046001600160a01b03166001600160a01b031663d21220a76040518163ffffffff1660e01b8152600401602060405180830381865afa158015611fb7573d6000803e3d6000fd5b505050506040513d601f19601f82011682018060405250810190611fdb9190613b7a565b90506000826001600160a01b031663313ce5676040518163ffffffff1660e01b8152600401602060405180830381865afa15801561201d573d6000803e3d6000fd5b505050506040513d601f19601f820116820180604052508101906120419190613b97565b90506000826001600160a01b031663313ce5676040518163ffffffff1660e01b8152600401602060405180830381865afa158015612083573d6000803e3d6000fd5b505050506040513d601f19601f820116820180604052508101906120a79190613b97565b90508060ff168260ff1611156120cc576120c5856118ca8385613953565b94506120ed565b8160ff168160ff1611156120ed576120ea8560016119018585613953565b94505b6120fc600160601b8087612115565b9450849f50505050505050505050505050505050919050565b600080806000198587098587029250828110838203039150508060000361214e576000841161214357600080fd5b50829004905061113c565b80841161215a57600080fd5b60008486880980840393811190920391905060008561217b81196001613792565b1695869004959384900493600081900304600101905061219b8184613a73565b9093179260006121ac876003613a73565b60021890506121bb8188613a73565b6121c69060026137a5565b6121d09082613a73565b90506121dc8188613a73565b6121e79060026137a5565b6121f19082613a73565b90506121fd8188613a73565b6122089060026137a5565b6122129082613a73565b905061221e8188613a73565b6122299060026137a5565b6122339082613a73565b905061223f8188613a73565b61224a9060026137a5565b6122549082613a73565b90506122608188613a73565b61226b9060026137a5565b6122759082613a73565b90506122818186613a73565b9998505050505050505050565b60008061229a83610c4b565b600081815260096020526040902054909150156122f05760405162461bcd60e51b81526020600482015260146024820152734672616d6520616c72656164792065786973747360601b604482015260640161076b565b42600054826122ff9190613792565b101561234d5760405162461bcd60e51b815260206004820152601d60248201527f4672616d652068617320746f20626520696e2074686520667574757265000000604482015260640161076b565b60008181526009602052604090819020828155600a8054600181019091557fc65a7bb8d6351c1cf70c95a316cc6a92839c986682d98bc35f958f4883f9d2a80183905590517f861dcb88c2eea524dd3c4d2026fc29c39249f4d090843bcc78037879d296c452916123bd916137d1565b60405180910390a192915050565b60006123d78483611b16565b905060006123e482610824565b9050600081116124065760405162461bcd60e51b815260040161076b90613db0565b600754604051636eb1769f60e11b815233600482015230602482015282916001600160a01b03169063dd62ed3e90604401602060405180830381865afa158015612454573d6000803e3d6000fd5b505050506040513d601f19601f820116820180604052508101906124789190613e0d565b10156124965760405162461bcd60e51b815260040161076b90613e26565b7f161bcca7119915b50764b4abe86529797775a5f171951000000000000000000084106124f75760405162461bcd60e51b815260206004820152600f60248201526e4c6f74206b657920746f6f2062696760881b604482015260640161076b565b6000858152600b60209081526040808320878452909152902060010154156125565760405162461bcd60e51b81526020600482015260126024820152714c6f7420616c72656164792065786973747360701b604482015260640161076b565b60006040518060c00160405280438152602001428152602001336001600160a01b0316815260200185815260200161258d84611160565b815260006020918201819052888152600b8252604080822089835283528082208a815560018082018b9055600280830180548084018255908652868620885160069092020190815595870151918601919091559185015191840180546001600160a01b0319166001600160a01b0390931692909217909155606084015160038401556080840151600484015560a0840151600590930192909255919250906126358888611143565b600c805460018181019092557fdf6966c971051c3d54ec59162606531493a51404a002842f56009d7e5cf4a8c70182905560008a8152600960209081526040808320878501546002909101805495860181558452919092209092019190915560075490516323b872dd60e01b81529192506001600160a01b0316906323b872dd906126c890339030908990600401613e5d565b6020604051808303816000875af11580156126e7573d6000803e3d6000fd5b505050506040513d601f19601f8201168201806040525081019061270b9190613a8a565b505050505050505050565b6000838152600b602090815260408083208584529091528120600201805461276d918691612746906001906137a5565b8154811061275657612756613766565b906000526020600020906006020160030154611b16565b9050600061277b8584611b16565b90508082111561295257600061279182846137a5565b9050600061279e82610824565b6007546000898152600b602090815260408083208b8452909152902060020180549293506001600160a01b039091169163a9059cbb91906127e1906001906137a5565b815481106127f1576127f1613766565b600091825260209091206006909102016002015460405160e083901b6001600160e01b03191681526001600160a01b039091166004820152602481018490526044016020604051808303816000875af1158015612852573d6000803e3d6000fd5b505050506040513d601f19601f820116820180604052508101906128769190613a8a565b50600b600088815260200190815260200160002060008781526020019081526020016000206002016040518060c00160405280438152602001428152602001336001600160a01b03168152602001878152602001600081526020016128da84611160565b905281546001808201845560009384526020938490208351600690930201918255928201519281019290925560408101516002830180546001600160a01b0319166001600160a01b03909216919091179055606081015160038301556080810151600483015560a0015160059091015550612b4d9050565b600061295e83836137a5565b9050600061296b82610824565b600754604051636eb1769f60e11b815233600482015230602482015291925082916001600160a01b039091169063dd62ed3e90604401602060405180830381865afa1580156129be573d6000803e3d6000fd5b505050506040513d601f19601f820116820180604052508101906129e29190613e0d565b1015612a005760405162461bcd60e51b815260040161076b90613e26565b6007546040516323b872dd60e01b81526001600160a01b03909116906323b872dd90612a3490339030908690600401613e5d565b6020604051808303816000875af1158015612a53573d6000803e3d6000fd5b505050506040513d601f19601f82011682018060405250810190612a779190613a8a565b50600b600088815260200190815260200160002060008781526020019081526020016000206002016040518060c00160405280438152602001428152602001336001600160a01b03168152602001878152602001612ad484611160565b815260006020918201819052835460018082018655948252908290208351600690920201908155908201519281019290925560408101516002830180546001600160a01b0319166001600160a01b03909216919091179055606081015160038301556080810151600483015560a0015160059091015550505b5050505050565b6000838152600b6020908152604080832085845290915281206002018054612b7e906001906137a5565b81548110612b8e57612b8e613766565b600091825260208220600260069092020101546001600160a01b03169150612bb68584611b16565b905060008111612bd85760405162461bcd60e51b815260040161076b90613db0565b6000858152600b6020908152604080832087845290915281206002018054612c02906001906137a5565b81548110612c1257612c12613766565b90600052602060002090600602016003015490506000612c3182610824565b90506000612c3e84610824565b9050612c4a8282613792565b600754604051636eb1769f60e11b81523360048201523060248201526001600160a01b039091169063dd62ed3e90604401602060405180830381865afa158015612c98573d6000803e3d6000fd5b505050506040513d601f19601f82011682018060405250810190612cbc9190613e0d565b1015612cda5760405162461bcd60e51b815260040161076b90613e26565b6007546040516323b872dd60e01b81526001600160a01b03909116906323b872dd90612d0e90339030908690600401613e5d565b6020604051808303816000875af1158015612d2d573d6000803e3d6000fd5b505050506040513d601f19601f82011682018060405250810190612d519190613a8a565b506007546040516323b872dd60e01b81526001600160a01b03909116906323b872dd90612d8690339089908790600401613e5d565b6020604051808303816000875af1158015612da5573d6000803e3d6000fd5b505050506040513d601f19601f82011682018060405250810190612dc99190613a8a565b506000888152600b602090815260408083208a845290915281206002018054612dfa918b91612746906001906137a5565b90506000612e0782610824565b60075460405163a9059cbb60e01b81526001600160a01b038a811660048301526024820184905292935091169063a9059cbb906044016020604051808303816000875af1158015612e5c573d6000803e3d6000fd5b505050506040513d601f19601f82011682018060405250810190612e809190613a8a565b50600b60008b815260200190815260200160002060008a81526020019081526020016000206002016040518060c00160405280438152602001428152602001896001600160a01b0316815260200187815260200160008152602001612ee484611160565b90528154600180820184556000938452602080852084516006909402019283558381015191830191909155604080840151600280850180546001600160a01b0319166001600160a01b03909316929092179091556060808601516003860155608080870151600487015560a0909601516005909501949094558f8652600b83528186208f8752835294819020815160c081018352438152429381019390935233918301919091529181018c9052920191908101612fa086611160565b815260006020918201819052835460018082018655948252908290208351600690920201908155908201519281019290925560408101516002830180546001600160a01b0319166001600160a01b03909216919091179055606081015160038301556080810151600483015560a0015160059091015550505050505050505050565b611b128282604051602401613038929190613e81565b60408051601f198184030181529190526020810180516001600160e01b031663319af33360e01b179052613452565b600081620d89e88111156130a15760405162461bcd60e51b81526020600482015260016024820152601560fa1b604482015260640161076b565b6000816001166000036130b857600160801b6130ca565b6ffffcb933bd6fad37aa2d162d1a5940015b70ffffffffffffffffffffffffffffffffff1690506002821615613109576080613104826ffff97272373d413259a46990580e213a613a73565b901c90505b600482161561313357608061312e826ffff2e50f5f656932ef12357cf3c7fdcc613a73565b901c90505b600882161561315d576080613158826fffe5caca7e10e4e61c3624eaa0941cd0613a73565b901c90505b6010821615613187576080613182826fffcb9843d60f6159c9db58835c926644613a73565b901c90505b60208216156131b15760806131ac826fff973b41fa98c081472e6896dfb254c0613a73565b901c90505b60408216156131db5760806131d6826fff2ea16466c96a3843ec78b326b52861613a73565b901c90505b6080821615613205576080613200826ffe5dee046a99a2a811c461f1969c3053613a73565b901c90505b61010082161561323057608061322b826ffcbe86c7900a88aedcffc83b479aa3a4613a73565b901c90505b61020082161561325b576080613256826ff987a7253ac413176f2b074cf7815e54613a73565b901c90505b610400821615613286576080613281826ff3392b0822b70005940c7a398e4b70f3613a73565b901c90505b6108008216156132b15760806132ac826fe7159475a2c29b7443b29c7fa6e889d9613a73565b901c90505b6110008216156132dc5760806132d7826fd097f3bdfd2022b8845ad8f792aa5825613a73565b901c90505b612000821615613307576080613302826fa9f746462d870fdf8a65dc1f90e061e5613a73565b901c90505b61400082161561333257608061332d826f70d869a156d2a1b890bb3df62baf32f7613a73565b901c90505b61800082161561335d576080613358826f31be135f97d08fd981231505542fcfa6613a73565b901c90505b62010000821615613389576080613384826f09aa508b5b7a84e1c677de54f3e99bc9613a73565b901c90505b620200008216156133b45760806133af826e5d6af8dedb81196699c329225ee604613a73565b901c90505b620400008216156133de5760806133d9826d2216e584f5fa1ea926041bedfe98613a73565b901c90505b62080000821615613406576080613401826b048a170391f7dc42444e8fa2613a73565b901c90505b831561341b5761341881600019613a5f565b90505b61342a64010000000082613885565b15613436576001613439565b60005b61344a9060ff16602083901c613792565b949350505050565b61345b8161345e565b50565b60006a636f6e736f6c652e6c6f679050600080835160208501845afa505050565b60006020828403121561349157600080fd5b5035919050565b6020808252825182820181905260009190848201906040850190845b818110156134d0578351835292840192918401916001016134b4565b50909695505050505050565b600080604083850312156134ef57600080fd5b50508035926020909101359150565b634e487b7160e01b600052602160045260246000fd5b6020810160048310613528576135286134fe565b91905290565b60008060006060848603121561354357600080fd5b505081359360208301359350604090920135919050565b80518252602080820151908301526040808201516001600160a01b031690830152606080820151908301526080808201519083015260a0908101519082015260c00190565b6000602080835260808301845182850152818501516040850152604085015160608086015281815180845260a0870191508483019350600092505b808310156135ff576135ed82855161355a565b915084840193506001830192506135da565b509695505050505050565b600060208083526101008301845182850152818501516040850152604085015160e06060860152818151808452610120870191508483019350600092505b808310156136685783518252928401926001929092019190840190613648565b5060608701516001600160a01b03811660808801529350608087015160a087015260a087015160c087015260c087015160e08701528094505050505092915050565b801515811461345b57600080fd5b600080604083850312156136cb57600080fd5b8235915060208301356136dd816136aa565b809150509250929050565b6020810160058310613528576135286134fe565b6020808252825182820181905260009190848201906040850190845b818110156134d05761372b83855161355a565b938501939250600101613718565b602080825260139082015272119c985b5948191bd95cdb89dd08195e1a5cdd606a1b604082015260600190565b634e487b7160e01b600052603260045260246000fd5b634e487b7160e01b600052601160045260246000fd5b808201808211156108555761085561377c565b818103818111156108555761085561377c565b6000600182016137ca576137ca61377c565b5060010190565b6020808252825482820152600180840154604084015260e06060840152600284018054610100850181905260009182528382209193929084906101208701905b8083101561382e5784548252938301939183019190850190613811565b5060038801546001600160a01b03166080880152600488015460a0880152600588015460c088015260069097015460e0909601959095525093949350505050565b634e487b7160e01b600052601260045260246000fd5b6000826138945761389461386f565b500690565b60006060808401835485526001808501546020818189015260029150818701604086818b015285825480885260809750878c0191508360005284600020935060005b8181101561392f57845483528785015486840152868501546001600160a01b03168484015260038501548a840152600485015489840152600585015460a084015260069094019360c09092019187016138db565b50909b9a5050505050505050505050565b60208152600061113c6020830184613899565b60ff82811682821603908111156108555761085561377c565b600181815b808511156139a757816000190482111561398d5761398d61377c565b8085161561399a57918102915b93841c9390800290613971565b509250929050565b6000826139be57506001610855565b816139cb57506000610855565b81600181146139e157600281146139eb57613a07565b6001915050610855565b60ff8411156139fc576139fc61377c565b50506001821b610855565b5060208310610133831016604e8410600b8410161715613a2a575081810a610855565b613a34838361396c565b8060001904821115613a4857613a4861377c565b029392505050565b600061113c60ff8416836139af565b600082613a6e57613a6e61386f565b500490565b80820281158282048414176108555761085561377c565b600060208284031215613a9c57600080fd5b815161113c816136aa565b6001600160a01b038116811461345b57600080fd5b805161ffff81168114613ace57600080fd5b919050565b805160ff81168114613ace57600080fd5b600080600080600080600060e0888a031215613aff57600080fd5b8751613b0a81613aa7565b8097505060208801518060020b8114613b2257600080fd5b9550613b3060408901613abc565b9450613b3e60608901613abc565b9350613b4c60808901613abc565b9250613b5a60a08901613ad3565b915060c0880151613b6a816136aa565b8091505092959891949750929550565b600060208284031215613b8c57600080fd5b815161113c81613aa7565b600060208284031215613ba957600080fd5b61113c82613ad3565b634e487b7160e01b600052604160045260246000fd5b6020808252825182820181905260009190848201906040850190845b818110156134d057835163ffffffff1683529284019291840191600101613be4565b604051601f8201601f1916810167ffffffffffffffff81118282101715613c2f57613c2f613bb2565b604052919050565b600067ffffffffffffffff821115613c5157613c51613bb2565b5060051b60200190565b600082601f830112613c6c57600080fd5b81516020613c81613c7c83613c37565b613c06565b82815260059290921b84018101918181019086841115613ca057600080fd5b8286015b848110156135ff578051613cb781613aa7565b8352918301918301613ca4565b60008060408385031215613cd757600080fd5b825167ffffffffffffffff80821115613cef57600080fd5b818501915085601f830112613d0357600080fd5b81516020613d13613c7c83613c37565b82815260059290921b84018101918181019089841115613d3257600080fd5b948201945b83861015613d605785518060060b8114613d515760008081fd5b82529482019490820190613d37565b91880151919650909350505080821115613d7957600080fd5b50613d8685828601613c5b565b9150509250929050565b8181036000831280158383131683831282161715610a2157610a2161377c565b6020808252603c908201527f5461782068617320746f2062652067726561746572207468616e20302e20496e60408201527f63726561736520746865206163717569736974696f6e20707269636500000000606082015260800190565b600060208284031215613e1f57600080fd5b5051919050565b6020808252601e908201527f416c6c6f77616e636520746f207370656e642073657420746f6f206c6f770000604082015260600190565b6001600160a01b039384168152919092166020820152604081019190915260600190565b604081526000835180604084015260005b81811015613eaf5760208187018101516060868401015201613e92565b50600060608285018101919091526001600160a01b03949094166020840152601f01601f19169091019091019291505056fea264697066735822122090f52a7bafd85ba422a335b3b924f9641cf497e36f6f31f092c284bd5a15d9c464736f6c63430008140033",
  "linkReferences": {},
  "deployedLinkReferences": {}
}