{
  "_format": "hh-sol-artifact-1",
  "contractName": "Market",
  "sourceName": "contracts/Market.sol",
  "abi": [
    {
      "inputs": [
        {
          "internalType": "address",
          "name": "_acct",
          "type": "address"
        },
        {
          "internalType": "uint256",
          "name": "_feeProtocol",
          "type": "uint256"
        },
        {
          "internalType": "uint256",
          "name": "_taxMarket",
          "type": "uint256"
        },
        {
          "internalType": "uint256",
          "name": "_dPrice",
          "type": "uint256"
        },
        {
          "internalType": "address",
          "name": "_uniswapPool",
          "type": "address"
        }
      ],
      "stateMutability": "nonpayable",
      "type": "constructor"
    },
    {
      "anonymous": false,
      "inputs": [
        {
          "indexed": false,
          "internalType": "uint256",
          "name": "fromFrame",
          "type": "uint256"
        },
        {
          "indexed": false,
          "internalType": "uint256",
          "name": "toFrame",
          "type": "uint256"
        },
        {
          "indexed": false,
          "internalType": "uint256",
          "name": "amount",
          "type": "uint256"
        }
      ],
      "name": "FrameRollover",
      "type": "event"
    },
    {
      "anonymous": false,
      "inputs": [
        {
          "components": [
            {
              "internalType": "uint256",
              "name": "frameKey",
              "type": "uint256"
            },
            {
              "internalType": "uint256",
              "name": "rate",
              "type": "uint256"
            },
            {
              "internalType": "uint256[]",
              "name": "lotKeys",
              "type": "uint256[]"
            },
            {
              "internalType": "address",
              "name": "claimedBy",
              "type": "address"
            },
            {
              "internalType": "uint256",
              "name": "rateSettle",
              "type": "uint256"
            },
            {
              "internalType": "uint256",
              "name": "feeSettle",
              "type": "uint256"
            },
            {
              "internalType": "uint256",
              "name": "rewardSettle",
              "type": "uint256"
            },
            {
              "internalType": "uint256",
              "name": "rewardPool",
              "type": "uint256"
            }
          ],
          "indexed": false,
          "internalType": "struct Market.Frame",
          "name": "frame",
          "type": "tuple"
        }
      ],
      "name": "FrameUpdate",
      "type": "event"
    },
    {
      "anonymous": false,
      "inputs": [
        {
          "components": [
            {
              "internalType": "uint256",
              "name": "frameKey",
              "type": "uint256"
            },
            {
              "internalType": "uint256",
              "name": "lotKey",
              "type": "uint256"
            },
            {
              "components": [
                {
                  "internalType": "uint256",
                  "name": "blockNumber",
                  "type": "uint256"
                },
                {
                  "internalType": "uint256",
                  "name": "blockTimestamp",
                  "type": "uint256"
                },
                {
                  "internalType": "address",
                  "name": "owner",
                  "type": "address"
                },
                {
                  "internalType": "uint256",
                  "name": "acquisitionPrice",
                  "type": "uint256"
                },
                {
                  "internalType": "uint256",
                  "name": "taxCharged",
                  "type": "uint256"
                }
              ],
              "internalType": "struct Market.LotState[]",
              "name": "states",
              "type": "tuple[]"
            }
          ],
          "indexed": false,
          "internalType": "struct Market.Lot",
          "name": "lot",
          "type": "tuple"
        }
      ],
      "name": "LotUpdate",
      "type": "event"
    },
    {
      "anonymous": false,
      "inputs": [
        {
          "indexed": true,
          "internalType": "address",
          "name": "winner",
          "type": "address"
        },
        {
          "indexed": false,
          "internalType": "uint256",
          "name": "amount",
          "type": "uint256"
        },
        {
          "indexed": false,
          "internalType": "uint256",
          "name": "frameKey",
          "type": "uint256"
        }
      ],
      "name": "RewardDistributed",
      "type": "event"
    },
    {
      "anonymous": false,
      "inputs": [
        {
          "indexed": true,
          "internalType": "address",
          "name": "user",
          "type": "address"
        },
        {
          "indexed": false,
          "internalType": "uint256",
          "name": "amount",
          "type": "uint256"
        },
        {
          "indexed": false,
          "internalType": "uint256",
          "name": "frameKey",
          "type": "uint256"
        }
      ],
      "name": "TaxCollected",
      "type": "event"
    },
    {
      "inputs": [],
      "name": "accountingToken",
      "outputs": [
        {
          "internalType": "contract IERC20Metadata",
          "name": "",
          "type": "address"
        }
      ],
      "stateMutability": "view",
      "type": "function"
    },
    {
      "inputs": [],
      "name": "accountingTokenDecimals",
      "outputs": [
        {
          "internalType": "uint8",
          "name": "",
          "type": "uint8"
        }
      ],
      "stateMutability": "view",
      "type": "function"
    },
    {
      "inputs": [],
      "name": "baseUnit",
      "outputs": [
        {
          "internalType": "uint256",
          "name": "",
          "type": "uint256"
        }
      ],
      "stateMutability": "view",
      "type": "function"
    },
    {
      "inputs": [
        {
          "internalType": "uint256",
          "name": "newFee",
          "type": "uint256"
        }
      ],
      "name": "changeProtocolFee",
      "outputs": [],
      "stateMutability": "nonpayable",
      "type": "function"
    },
    {
      "inputs": [
        {
          "internalType": "uint256",
          "name": "newTax",
          "type": "uint256"
        }
      ],
      "name": "changeTaxPercentage",
      "outputs": [],
      "stateMutability": "nonpayable",
      "type": "function"
    },
    {
      "inputs": [
        {
          "internalType": "uint256",
          "name": "timestamp",
          "type": "uint256"
        }
      ],
      "name": "clcFrameKey",
      "outputs": [
        {
          "internalType": "uint256",
          "name": "",
          "type": "uint256"
        }
      ],
      "stateMutability": "view",
      "type": "function"
    },
    {
      "inputs": [
        {
          "internalType": "uint256",
          "name": "valueQ96",
          "type": "uint256"
        }
      ],
      "name": "clcLotKey",
      "outputs": [
        {
          "internalType": "uint256",
          "name": "",
          "type": "uint256"
        }
      ],
      "stateMutability": "view",
      "type": "function"
    },
    {
      "inputs": [],
      "name": "clcRate",
      "outputs": [
        {
          "internalType": "uint256",
          "name": "",
          "type": "uint256"
        }
      ],
      "stateMutability": "view",
      "type": "function"
    },
    {
      "inputs": [
        {
          "internalType": "uint256",
          "name": "timestamp",
          "type": "uint256"
        }
      ],
      "name": "clcRateAvg",
      "outputs": [
        {
          "internalType": "uint256",
          "name": "",
          "type": "uint256"
        }
      ],
      "stateMutability": "view",
      "type": "function"
    },
    {
      "inputs": [
        {
          "internalType": "uint256",
          "name": "frameKey",
          "type": "uint256"
        },
        {
          "internalType": "uint256",
          "name": "acquisitionPriceQ96",
          "type": "uint256"
        }
      ],
      "name": "clcTax",
      "outputs": [
        {
          "internalType": "uint256",
          "name": "",
          "type": "uint256"
        }
      ],
      "stateMutability": "view",
      "type": "function"
    },
    {
      "inputs": [
        {
          "internalType": "uint256",
          "name": "frameKey",
          "type": "uint256"
        },
        {
          "internalType": "uint256",
          "name": "lotKey",
          "type": "uint256"
        }
      ],
      "name": "concatenate",
      "outputs": [
        {
          "internalType": "uint256",
          "name": "concatenated",
          "type": "uint256"
        }
      ],
      "stateMutability": "pure",
      "type": "function"
    },
    {
      "inputs": [
        {
          "internalType": "uint256",
          "name": "amount18Dec",
          "type": "uint256"
        },
        {
          "internalType": "bool",
          "name": "round",
          "type": "bool"
        }
      ],
      "name": "convertToTokenDecimals",
      "outputs": [
        {
          "internalType": "uint256",
          "name": "",
          "type": "uint256"
        }
      ],
      "stateMutability": "view",
      "type": "function"
    },
    {
      "inputs": [],
      "name": "dPrice",
      "outputs": [
        {
          "internalType": "uint256",
          "name": "",
          "type": "uint256"
        }
      ],
      "stateMutability": "view",
      "type": "function"
    },
    {
      "inputs": [],
      "name": "feeProtocol",
      "outputs": [
        {
          "internalType": "uint256",
          "name": "",
          "type": "uint256"
        }
      ],
      "stateMutability": "view",
      "type": "function"
    },
    {
      "inputs": [
        {
          "internalType": "uint256",
          "name": "",
          "type": "uint256"
        }
      ],
      "name": "frameKeyToIndex",
      "outputs": [
        {
          "internalType": "uint256",
          "name": "",
          "type": "uint256"
        }
      ],
      "stateMutability": "view",
      "type": "function"
    },
    {
      "inputs": [
        {
          "internalType": "uint256",
          "name": "",
          "type": "uint256"
        }
      ],
      "name": "frames",
      "outputs": [
        {
          "internalType": "uint256",
          "name": "frameKey",
          "type": "uint256"
        },
        {
          "internalType": "uint256",
          "name": "rate",
          "type": "uint256"
        },
        {
          "internalType": "address",
          "name": "claimedBy",
          "type": "address"
        },
        {
          "internalType": "uint256",
          "name": "rateSettle",
          "type": "uint256"
        },
        {
          "internalType": "uint256",
          "name": "feeSettle",
          "type": "uint256"
        },
        {
          "internalType": "uint256",
          "name": "rewardSettle",
          "type": "uint256"
        },
        {
          "internalType": "uint256",
          "name": "rewardPool",
          "type": "uint256"
        }
      ],
      "stateMutability": "view",
      "type": "function"
    },
    {
      "inputs": [
        {
          "internalType": "uint256",
          "name": "",
          "type": "uint256"
        }
      ],
      "name": "framesKeys",
      "outputs": [
        {
          "internalType": "uint256",
          "name": "",
          "type": "uint256"
        }
      ],
      "stateMutability": "view",
      "type": "function"
    },
    {
      "inputs": [
        {
          "internalType": "uint256",
          "name": "x96",
          "type": "uint256"
        }
      ],
      "name": "fromQ96",
      "outputs": [
        {
          "internalType": "uint256",
          "name": "",
          "type": "uint256"
        }
      ],
      "stateMutability": "view",
      "type": "function"
    },
    {
      "inputs": [
        {
          "internalType": "uint256",
          "name": "frameKey",
          "type": "uint256"
        }
      ],
      "name": "getFrame",
      "outputs": [
        {
          "components": [
            {
              "internalType": "uint256",
              "name": "frameKey",
              "type": "uint256"
            },
            {
              "internalType": "uint256",
              "name": "rate",
              "type": "uint256"
            },
            {
              "internalType": "uint256[]",
              "name": "lotKeys",
              "type": "uint256[]"
            },
            {
              "internalType": "address",
              "name": "claimedBy",
              "type": "address"
            },
            {
              "internalType": "uint256",
              "name": "rateSettle",
              "type": "uint256"
            },
            {
              "internalType": "uint256",
              "name": "feeSettle",
              "type": "uint256"
            },
            {
              "internalType": "uint256",
              "name": "rewardSettle",
              "type": "uint256"
            },
            {
              "internalType": "uint256",
              "name": "rewardPool",
              "type": "uint256"
            }
          ],
          "internalType": "struct Market.Frame",
          "name": "",
          "type": "tuple"
        }
      ],
      "stateMutability": "view",
      "type": "function"
    },
    {
      "inputs": [
        {
          "internalType": "uint256",
          "name": "frameKey",
          "type": "uint256"
        }
      ],
      "name": "getFrameIndex",
      "outputs": [
        {
          "internalType": "uint256",
          "name": "",
          "type": "uint256"
        }
      ],
      "stateMutability": "view",
      "type": "function"
    },
    {
      "inputs": [
        {
          "internalType": "uint256",
          "name": "frameKey",
          "type": "uint256"
        }
      ],
      "name": "getFrameLotKeys",
      "outputs": [
        {
          "internalType": "uint256[]",
          "name": "",
          "type": "uint256[]"
        }
      ],
      "stateMutability": "view",
      "type": "function"
    },
    {
      "inputs": [],
      "name": "getFramesLength",
      "outputs": [
        {
          "internalType": "uint256",
          "name": "",
          "type": "uint256"
        }
      ],
      "stateMutability": "view",
      "type": "function"
    },
    {
      "inputs": [],
      "name": "getGlobalRewardPool",
      "outputs": [
        {
          "internalType": "uint256",
          "name": "",
          "type": "uint256"
        }
      ],
      "stateMutability": "view",
      "type": "function"
    },
    {
      "inputs": [
        {
          "internalType": "uint256",
          "name": "frameKey",
          "type": "uint256"
        },
        {
          "internalType": "uint256",
          "name": "lotKey",
          "type": "uint256"
        }
      ],
      "name": "getLot",
      "outputs": [
        {
          "components": [
            {
              "internalType": "uint256",
              "name": "frameKey",
              "type": "uint256"
            },
            {
              "internalType": "uint256",
              "name": "lotKey",
              "type": "uint256"
            },
            {
              "components": [
                {
                  "internalType": "uint256",
                  "name": "blockNumber",
                  "type": "uint256"
                },
                {
                  "internalType": "uint256",
                  "name": "blockTimestamp",
                  "type": "uint256"
                },
                {
                  "internalType": "address",
                  "name": "owner",
                  "type": "address"
                },
                {
                  "internalType": "uint256",
                  "name": "acquisitionPrice",
                  "type": "uint256"
                },
                {
                  "internalType": "uint256",
                  "name": "taxCharged",
                  "type": "uint256"
                }
              ],
              "internalType": "struct Market.LotState[]",
              "name": "states",
              "type": "tuple[]"
            }
          ],
          "internalType": "struct Market.Lot",
          "name": "",
          "type": "tuple"
        }
      ],
      "stateMutability": "view",
      "type": "function"
    },
    {
      "inputs": [
        {
          "internalType": "uint256",
          "name": "frameKey",
          "type": "uint256"
        },
        {
          "internalType": "uint256",
          "name": "lotKey",
          "type": "uint256"
        }
      ],
      "name": "getLotStates",
      "outputs": [
        {
          "components": [
            {
              "internalType": "uint256",
              "name": "blockNumber",
              "type": "uint256"
            },
            {
              "internalType": "uint256",
              "name": "blockTimestamp",
              "type": "uint256"
            },
            {
              "internalType": "address",
              "name": "owner",
              "type": "address"
            },
            {
              "internalType": "uint256",
              "name": "acquisitionPrice",
              "type": "uint256"
            },
            {
              "internalType": "uint256",
              "name": "taxCharged",
              "type": "uint256"
            }
          ],
          "internalType": "struct Market.LotState[]",
          "name": "",
          "type": "tuple[]"
        }
      ],
      "stateMutability": "view",
      "type": "function"
    },
    {
      "inputs": [],
      "name": "getLotsArray",
      "outputs": [
        {
          "internalType": "uint256[]",
          "name": "",
          "type": "uint256[]"
        }
      ],
      "stateMutability": "view",
      "type": "function"
    },
    {
      "inputs": [],
      "name": "getLotsArrayLength",
      "outputs": [
        {
          "internalType": "uint256",
          "name": "",
          "type": "uint256"
        }
      ],
      "stateMutability": "view",
      "type": "function"
    },
    {
      "inputs": [
        {
          "internalType": "uint256",
          "name": "frameKey",
          "type": "uint256"
        }
      ],
      "name": "getLotsKeysInFrame",
      "outputs": [
        {
          "internalType": "uint256[]",
          "name": "",
          "type": "uint256[]"
        }
      ],
      "stateMutability": "view",
      "type": "function"
    },
    {
      "inputs": [
        {
          "internalType": "uint256",
          "name": "frameKey",
          "type": "uint256"
        }
      ],
      "name": "getLotsLength",
      "outputs": [
        {
          "internalType": "uint256",
          "name": "",
          "type": "uint256"
        }
      ],
      "stateMutability": "view",
      "type": "function"
    },
    {
      "inputs": [],
      "name": "getPendingRewardForNextSettlement",
      "outputs": [
        {
          "internalType": "uint256",
          "name": "",
          "type": "uint256"
        }
      ],
      "stateMutability": "view",
      "type": "function"
    },
    {
      "inputs": [
        {
          "internalType": "uint256",
          "name": "frameKey",
          "type": "uint256"
        }
      ],
      "name": "getStateFrame",
      "outputs": [
        {
          "internalType": "enum Market.SFrame",
          "name": "",
          "type": "uint8"
        }
      ],
      "stateMutability": "view",
      "type": "function"
    },
    {
      "inputs": [
        {
          "internalType": "uint256",
          "name": "frameKey",
          "type": "uint256"
        },
        {
          "internalType": "uint256",
          "name": "lotKey",
          "type": "uint256"
        }
      ],
      "name": "getStateLot",
      "outputs": [
        {
          "internalType": "enum Market.SLot",
          "name": "",
          "type": "uint8"
        }
      ],
      "stateMutability": "view",
      "type": "function"
    },
    {
      "inputs": [
        {
          "internalType": "address",
          "name": "user",
          "type": "address"
        }
      ],
      "name": "getUserStats",
      "outputs": [
        {
          "internalType": "uint256",
          "name": "totalTaxPaid",
          "type": "uint256"
        },
        {
          "internalType": "uint256",
          "name": "totalWinnings",
          "type": "uint256"
        },
        {
          "internalType": "uint256",
          "name": "netPosition",
          "type": "uint256"
        }
      ],
      "stateMutability": "view",
      "type": "function"
    },
    {
      "inputs": [],
      "name": "initTimestamp",
      "outputs": [
        {
          "internalType": "uint256",
          "name": "",
          "type": "uint256"
        }
      ],
      "stateMutability": "view",
      "type": "function"
    },
    {
      "inputs": [],
      "name": "lastActiveFrameKey",
      "outputs": [
        {
          "internalType": "uint256",
          "name": "",
          "type": "uint256"
        }
      ],
      "stateMutability": "view",
      "type": "function"
    },
    {
      "inputs": [],
      "name": "lastSettledFrameIndex",
      "outputs": [
        {
          "internalType": "uint256",
          "name": "",
          "type": "uint256"
        }
      ],
      "stateMutability": "view",
      "type": "function"
    },
    {
      "inputs": [
        {
          "internalType": "uint256",
          "name": "",
          "type": "uint256"
        },
        {
          "internalType": "uint256",
          "name": "",
          "type": "uint256"
        }
      ],
      "name": "lots",
      "outputs": [
        {
          "internalType": "uint256",
          "name": "frameKey",
          "type": "uint256"
        },
        {
          "internalType": "uint256",
          "name": "lotKey",
          "type": "uint256"
        }
      ],
      "stateMutability": "view",
      "type": "function"
    },
    {
      "inputs": [
        {
          "internalType": "uint256",
          "name": "",
          "type": "uint256"
        }
      ],
      "name": "lotsArray",
      "outputs": [
        {
          "internalType": "uint256",
          "name": "",
          "type": "uint256"
        }
      ],
      "stateMutability": "view",
      "type": "function"
    },
    {
      "inputs": [
        {
          "internalType": "uint256",
          "name": "frameKey",
          "type": "uint256"
        },
        {
          "internalType": "uint256",
          "name": "avgPrice",
          "type": "uint256"
        }
      ],
      "name": "overrideFrameRate",
      "outputs": [],
      "stateMutability": "nonpayable",
      "type": "function"
    },
    {
      "inputs": [],
      "name": "owner",
      "outputs": [
        {
          "internalType": "address",
          "name": "",
          "type": "address"
        }
      ],
      "stateMutability": "view",
      "type": "function"
    },
    {
      "inputs": [],
      "name": "period",
      "outputs": [
        {
          "internalType": "uint256",
          "name": "",
          "type": "uint256"
        }
      ],
      "stateMutability": "view",
      "type": "function"
    },
    {
      "inputs": [],
      "name": "rewardPool",
      "outputs": [
        {
          "internalType": "uint256",
          "name": "",
          "type": "uint256"
        }
      ],
      "stateMutability": "view",
      "type": "function"
    },
    {
      "inputs": [],
      "name": "rolloverPercentage",
      "outputs": [
        {
          "internalType": "uint256",
          "name": "",
          "type": "uint256"
        }
      ],
      "stateMutability": "view",
      "type": "function"
    },
    {
      "inputs": [
        {
          "internalType": "uint256",
          "name": "amount",
          "type": "uint256"
        }
      ],
      "name": "seedRewardPool",
      "outputs": [],
      "stateMutability": "nonpayable",
      "type": "function"
    },
    {
      "inputs": [
        {
          "internalType": "uint256",
          "name": "frameKey",
          "type": "uint256"
        }
      ],
      "name": "setFrameRate",
      "outputs": [],
      "stateMutability": "nonpayable",
      "type": "function"
    },
    {
      "inputs": [
        {
          "internalType": "uint256",
          "name": "newRolloverPercentage",
          "type": "uint256"
        }
      ],
      "name": "setRolloverPercentage",
      "outputs": [],
      "stateMutability": "nonpayable",
      "type": "function"
    },
    {
      "inputs": [],
      "name": "settleFrame",
      "outputs": [
        {
          "internalType": "uint256",
          "name": "",
          "type": "uint256"
        }
      ],
      "stateMutability": "nonpayable",
      "type": "function"
    },
    {
      "inputs": [],
      "name": "tSettle",
      "outputs": [
        {
          "internalType": "uint256",
          "name": "",
          "type": "uint256"
        }
      ],
      "stateMutability": "view",
      "type": "function"
    },
    {
      "inputs": [],
      "name": "taxMarket",
      "outputs": [
        {
          "internalType": "uint256",
          "name": "",
          "type": "uint256"
        }
      ],
      "stateMutability": "view",
      "type": "function"
    },
    {
      "inputs": [
        {
          "internalType": "uint256",
          "name": "",
          "type": "uint256"
        }
      ],
      "name": "taxesCollectedInFrame",
      "outputs": [
        {
          "internalType": "uint256",
          "name": "",
          "type": "uint256"
        }
      ],
      "stateMutability": "view",
      "type": "function"
    },
    {
      "inputs": [
        {
          "internalType": "uint256",
          "name": "amount",
          "type": "uint256"
        }
      ],
      "name": "toQ96",
      "outputs": [
        {
          "internalType": "uint256",
          "name": "",
          "type": "uint256"
        }
      ],
      "stateMutability": "view",
      "type": "function"
    },
    {
      "inputs": [],
      "name": "totalRewardsDistributed",
      "outputs": [
        {
          "internalType": "uint256",
          "name": "",
          "type": "uint256"
        }
      ],
      "stateMutability": "view",
      "type": "function"
    },
    {
      "inputs": [],
      "name": "totalTaxesCollected",
      "outputs": [
        {
          "internalType": "uint256",
          "name": "",
          "type": "uint256"
        }
      ],
      "stateMutability": "view",
      "type": "function"
    },
    {
      "inputs": [
        {
          "internalType": "uint256",
          "name": "timestamp",
          "type": "uint256"
        },
        {
          "internalType": "uint256",
          "name": "rate",
          "type": "uint256"
        },
        {
          "internalType": "uint256",
          "name": "acquisitionPrice",
          "type": "uint256"
        }
      ],
      "name": "tradeLot",
      "outputs": [],
      "stateMutability": "nonpayable",
      "type": "function"
    },
    {
      "inputs": [],
      "name": "uniswapPool",
      "outputs": [
        {
          "internalType": "contract IUniswapV3Pool",
          "name": "",
          "type": "address"
        }
      ],
      "stateMutability": "view",
      "type": "function"
    },
    {
      "inputs": [
        {
          "internalType": "address",
          "name": "",
          "type": "address"
        }
      ],
      "name": "userTotalTaxPaid",
      "outputs": [
        {
          "internalType": "uint256",
          "name": "",
          "type": "uint256"
        }
      ],
      "stateMutability": "view",
      "type": "function"
    },
    {
      "inputs": [
        {
          "internalType": "address",
          "name": "",
          "type": "address"
        }
      ],
      "name": "userTotalWinnings",
      "outputs": [
        {
          "internalType": "uint256",
          "name": "",
          "type": "uint256"
        }
      ],
      "stateMutability": "view",
      "type": "function"
    },
    {
      "inputs": [
        {
          "internalType": "uint256",
          "name": "amount",
          "type": "uint256"
        }
      ],
      "name": "withdrawAccountingToken",
      "outputs": [],
      "stateMutability": "nonpayable",
      "type": "function"
    }
  ],
  "bytecode": "0x60a060405262015180600055636592e180600155600060025561025860035560006005556000600655612328600e553480156200003b57600080fd5b5060405162004f2838038062004f288339810160408190526200005e9162000384565b600a80546101003302610100600160a81b0319909116179055600480546001600160a01b038381166001600160a01b0319928316178355600780549189169190921681179091556040805163313ce56760e01b81529051919263313ce5679282820192602092908290030181865afa158015620000df573d6000803e3d6000fd5b505050506040513d601f19601f82011682018060405250810190620001059190620003d9565b600a805460ff191660ff92909216918217815562000124919062000511565b608081905262000150906064906200013e9087906200051f565b6200014a919062000539565b62000192565b6002556080516200016b906064906200013e9086906200051f565b60065560805162000183906200014a9084906200051f565b60055550620005889350505050565b6000620001b6826c01000000000000000000000000608051620001bc60201b60201c565b92915050565b6000808060001985870985870292508281108382030391505080600003620001f85760008411620001ec57600080fd5b50829004905062000360565b8084116200020557600080fd5b60008486880980840393811190920391905060008562000228811960016200055c565b169586900495938490049360008190030460010190506200024a81846200051f565b9093179260006200025d8760036200051f565b60021890506200026e81886200051f565b6200027b90600262000572565b6200028790826200051f565b90506200029581886200051f565b620002a290600262000572565b620002ae90826200051f565b9050620002bc81886200051f565b620002c990600262000572565b620002d590826200051f565b9050620002e381886200051f565b620002f090600262000572565b620002fc90826200051f565b90506200030a81886200051f565b6200031790600262000572565b6200032390826200051f565b90506200033181886200051f565b6200033e90600262000572565b6200034a90826200051f565b90506200035881866200051f565b955050505050505b9392505050565b80516001600160a01b03811681146200037f57600080fd5b919050565b600080600080600060a086880312156200039d57600080fd5b620003a88662000367565b9450602086015193506040860151925060608601519150620003cd6080870162000367565b90509295509295909350565b600060208284031215620003ec57600080fd5b815160ff811681146200036057600080fd5b634e487b7160e01b600052601160045260246000fd5b600181815b8085111562000455578160001904821115620004395762000439620003fe565b808516156200044757918102915b93841c939080029062000419565b509250929050565b6000826200046e57506001620001b6565b816200047d57506000620001b6565b8160018114620004965760028114620004a157620004c1565b6001915050620001b6565b60ff841115620004b557620004b5620003fe565b50506001821b620001b6565b5060208310610133831016604e8410600b8410161715620004e6575081810a620001b6565b620004f2838362000414565b8060001904821115620005095762000509620003fe565b029392505050565b60006200036083836200045d565b8082028115828204841417620001b657620001b6620003fe565b6000826200055757634e487b7160e01b600052601260045260246000fd5b500490565b80820180821115620001b657620001b6620003fe565b81810381811115620001b657620001b6620003fe565b608051614976620005b2600039600081816107c401528181610b6001526115a701526149766000f3fe608060405234801561001057600080fd5b506004361061038e5760003560e01c80638a5779c8116101de578063c0423f2e1161010f578063ee172546116100ad578063f601d5101161007c578063f601d5101461085c578063fb0d5e091461087b578063fe6874751461089b578063ffdabe2d146108ae57600080fd5b8063ee1725461461082f578063ef78d4fd14610838578063f0bdaf5814610841578063f3517fef1461085457600080fd5b8063d18743dd116100e9578063d18743dd146107ee578063da68cf8b14610801578063e107fb4f14610814578063ed320aa81461082757600080fd5b8063c0423f2e146107b7578063c2930f91146107bf578063ca7d5dce146107e657600080fd5b8063b067f42d1161017c578063ba4e137f11610156578063ba4e137f14610769578063ba52f34214610771578063bad1265314610784578063bdd3d825146107a457600080fd5b8063b067f42d14610706578063b254eb171461070f578063b93dafa91461072257600080fd5b80639592de18116101b85780639592de1814610635578063997d459414610648578063a10340bc1461065b578063a73482f6146106f357600080fd5b80638a5779c8146105d95780638da5cb5b146105e25780638edc6a2c1461061257600080fd5b80634e43603a116102c35780636fcc0c97116102615780637beffb82116102305780637beffb82146105ab5780637e996639146105b457806386e670cb146105bd578063884133e6146105d057600080fd5b80636fcc0c971461054f5780637358c57a1461056f578063773d51eb1461057857806378328a171461059857600080fd5b806361eee2cb1161029d57806361eee2cb1461050057806364772f211461051357806366666aa9146105265780636f1aefc31461052f57600080fd5b80634e43603a146104c05780634ef9d585146104ee578063527eb4bc146104f757600080fd5b80632457e620116103305780633baf15871161030a5780633baf158714610471578063499a0fc4146104845780634a00521f1461048d5780634c73884f146104a057600080fd5b80632457e620146103d95780632c4387171461043e578063301f7ac81461045157600080fd5b806317e9b6d51161036c57806317e9b6d5146103f957806318d13d8714610401578063197c4e78146104165780631b7be2121461041e57600080fd5b8063050e88401461039357806308857442146103b95780630d0a1c1a146103d9575b600080fd5b6103a66103a1366004613e9a565b6108c1565b6040519081526020015b60405180910390f35b6103a66103c7366004613ec8565b60166020526000908152604090205481565b6103ec6103e7366004613e9a565b6108e2565b6040516103b09190613ee5565b6103a6610947565b61041461040f366004613f29565b610a34565b005b6014546103a6565b6103a661042c366004613e9a565b600f6020526000908152604090205481565b6103a661044c366004613e9a565b610b58565b6103a661045f366004613e9a565b60126020526000908152604090205481565b61041461047f366004613e9a565b610b8f565b6103a660055481565b6103a661049b366004613e9a565b610c86565b6104b36104ae366004613f29565b610cc6565b6040516103b09190613f61565b6104d36104ce366004613ec8565b610df2565b604080519384526020840192909252908201526060016103b0565b6103a6600e5481565b6103a660025481565b6103a661050e366004613e9a565b610e38565b610414610521366004613f7b565b610e6f565b6103a660085481565b61054261053d366004613f29565b611043565b6040516103b09190613fe2565b6103a661055d366004613ec8565b60156020526000908152604090205481565b6103a660015481565b61058b610586366004613e9a565b611190565b6040516103b0919061404d565b6103a66105a6366004614107565b6112cc565b6103a6600d5481565b6103a660065481565b6104146105cb366004613e9a565b61132e565b6103a6600b5481565b6103a660035481565b600a546105fa9061010090046001600160a01b031681565b6040516001600160a01b0390911681526020016103b0565b6103a6610620366004613e9a565b60009081526010602052604090206002015490565b6103a6610643366004613e9a565b61139e565b610414610656366004613e9a565b6113d9565b6106b0610669366004613e9a565b6010602052600090815260409020805460018201546003830154600484015460058501546006860154600790960154949593946001600160a01b0390931693919290919087565b6040805197885260208801969096526001600160a01b03909416948601949094526060850191909152608084015260a083019190915260c082015260e0016103b0565b6103a6610701366004613f29565b61157d565b6103a660095481565b6103a661071d366004613e9a565b61159a565b610754610730366004613f29565b60136020908152600092835260408084209091529082529020805460019091015482565b604080519283526020830191909152016103b0565b6103a66115cb565b6103a661077f366004613e9a565b6118a2565b610797610792366004613e9a565b6118b2565b6040516103b09190614137565b6004546105fa906001600160a01b031681565b6103ec611949565b6103a67f000000000000000000000000000000000000000000000000000000000000000081565b6103a66119a1565b6104146107fc366004613e9a565b611aae565b6007546105fa906001600160a01b031681565b6103a6610822366004613f29565b611ba0565b6011546103a6565b6103a6600c5481565b6103a660005481565b61041461084f366004613e9a565b611eb2565b6103a6611f88565b600a546108699060ff1681565b60405160ff90911681526020016103b0565b61088e610889366004613f29565b612546565b6040516103b0919061414b565b6104146108a9366004613e9a565b6125f2565b6103a66108bc366004613e9a565b612661565b601181815481106108d157600080fd5b600091825260209091200154905081565b60008181526010602090815260409182902060020180548351818402810184019094528084526060939283018282801561093b57602002820191906000526020600020905b815481526020019060010190808311610927575b50505050509050919050565b600954600090819015801590610961575060115460095411155b156109c957600060116001600954610979919061419e565b81548110610989576109896141b1565b906000526020600020015490506109bb6010600083815260200190815260200160002060070154600e54612710612a88565b6109c590836141c7565b9150505b6009545b601154811015610a2e576000601182815481106109ec576109ec6141b1565b90600052602060002001549050600f60008281526020019081526020016000205483610a1891906141c7565b9250508080610a26906141da565b9150506109cd565b50919050565b600a5461010090046001600160a01b03163314610aa85760405162461bcd60e51b815260206004820152602760248201527f4f6e6c79206f776e65722063616e20757064617465206672616d6520636c6f736044820152666520707269636560c81b60648201526084015b60405180910390fd5b6000828152601060205260408120549003610ad55760405162461bcd60e51b8152600401610a9f906141f3565b6000828152601060205260409020600301546001600160a01b031615610b3d5760405162461bcd60e51b815260206004820181905260248201527f4672616d65207265776172642077617320616c726561647920636c61696d65646044820152606401610a9f565b60009182526010602052604080832054835290912060010155565b6000610b89827f0000000000000000000000000000000000000000000000000000000000000000600160601b612a88565b92915050565b6000818152601060205260408120549003610bbc5760405162461bcd60e51b8152600401610a9f906141f3565b6000805482825260106020526040909120544291610bd9916141c7565b1115610c275760405162461bcd60e51b815260206004820152601b60248201527f4672616d652068617320746f20626520696e20746865207061737400000000006044820152606401610a9f565b6000610c3282612661565b600083815260106020526040908190206001810183905590519192507f929af310c689982c60d4ec73c6e4b602e89c6f6a31da7c2df4888fb0627cb2b191610c7a9190614260565b60405180910390a15050565b6000818152601060205260408120548103610cb35760405162461bcd60e51b8152600401610a9f906141f3565b5060009081526012602052604090205490565b60008281526013602090815260408083208484529091528120600101548103610cf157506000610b89565b6000610cfc846118b2565b6004811115610d0d57610d0d613f4b565b03610d1a57506000610b89565b6001610d25846118b2565b6004811115610d3657610d36613f4b565b1480610d5b57506002610d48846118b2565b6004811115610d5957610d59613f4b565b145b15610d6857506001610b89565b60008381526013602090815260408083208584528252808320600190810154878552601090935292209091015410801590610ddc57506005546000848152601360209081526040808320868452909152902060010154610dc891906141c7565b600084815260106020526040902060010154105b15610de957506002610b89565b50600392915050565b6001600160a01b03811660009081526015602090815260408083205460169092528220549091828211610e26576000610e30565b610e30838361419e565b929491935050565b60006001548211610e4b57505060015490565b600054600154610e5b908461419e565b610e6591906142e8565b610b89908361419e565b6000610e7a84610e38565b905060005481610e8a91906141c7565b4210610ed85760405162461bcd60e51b815260206004820152601d60248201527f4672616d65206973206e6f74206f70656e20666f722074726164696e670000006044820152606401610a9f565b6000610ee38461139e565b90506000610ef042610e38565b9050600d548114610f2057600d8190556000818152601060205260408120549003610f2057610f1e42612c01565b505b60008381526013602090815260408083208584529091528120600101549003610f74576000838152601060205260408120549003610f6357610f6186612c01565b505b610f6f83838684612d4f565b610feb565b600083815260136020908152604080832085845290915290206002018054339190610fa19060019061419e565b81548110610fb157610fb16141b1565b60009182526020909120600260059092020101546001600160a01b031603610fdf57610f6f83838684613217565b610feb838386846134bc565b60008381526013602090815260408083208584529091529081902090517f782b1e1b5d0c69f9f4c1e43a846c9ce710491a77f5adb86c3fe465f2cc9bfab99161103391614399565b60405180910390a1505050505050565b61106760405180606001604052806000815260200160008152602001606081525090565b600083815260136020908152604080832085845290915281206001015490036110c65760405162461bcd60e51b8152602060048201526011602482015270131bdd08191bd95cdb89dd08195e1a5cdd607a1b6044820152606401610a9f565b60008381526013602090815260408083208584528252808320815160608101835281548152600182015481850152600282018054845181870281018701865281815292969395948701949293919290919084015b828210156111815760008481526020908190206040805160a08101825260058602909201805483526001808201548486015260028201546001600160a01b03169284019290925260038101546060840152600401546080830152908352909201910161111a565b50505091525090949350505050565b6111e160405180610100016040528060008152602001600081526020016060815260200160006001600160a01b03168152602001600081526020016000815260200160008152602001600081525090565b600082815260106020526040812054900361120e5760405162461bcd60e51b8152600401610a9f906141f3565b600082815260106020908152604091829020825161010081018452815481526001820154818401526002820180548551818602810186018752818152929593949386019383018282801561128157602002820191906000526020600020905b81548152602001906001019080831161126d575b505050918352505060038201546001600160a01b0316602082015260048201546040820152600582015460608201526006820154608082015260079091015460a09091015292915050565b600a5460009081906112e29060ff1660126143ac565b6112ed90600a6144a9565b9050821561131d57806113016002826144b8565b61130b90866141c7565b61131591906144b8565b915050610b89565b61131581856144b8565b5092915050565b600a5461010090046001600160a01b031633146113995760405162461bcd60e51b8152602060048201526024808201527f4f6e6c79206f776e65722063616e206368616e6765207461782070657263656e6044820152637461676560e01b6064820152608401610a9f565b600655565b60006005548210156113b257505060055490565b6000600554836113c291906144b8565b90506113d2816005546001612a88565b9392505050565b600a5461010090046001600160a01b031633146114385760405162461bcd60e51b815260206004820152601f60248201527f4f6e6c79206f776e65722063616e20736565642072657761726420706f6f6c006044820152606401610a9f565b600081116114885760405162461bcd60e51b815260206004820152601d60248201527f416d6f756e74206d7573742062652067726561746572207468616e20300000006044820152606401610a9f565b6007546040516323b872dd60e01b81526001600160a01b03909116906323b872dd906114bc903390309086906004016144cc565b6020604051808303816000875af11580156114db573d6000803e3d6000fd5b505050506040513d601f19601f820116820180604052508101906114ff91906144f0565b50600061150b42610e38565b6000818152601060205260408120549192500361152d5761152b42612c01565b505b6115368261159a565b6000828152600f6020526040812080549091906115549084906141c7565b9091555061156390508261159a565b600b600082825461157491906141c7565b90915550505050565b600061158e826402540be40061450d565b91506113d283836141c7565b6000610b8982600160601b7f0000000000000000000000000000000000000000000000000000000000000000612a88565b6004805460408051633850c7bd60e01b8152905160009384936001600160a01b031692633850c7bd928183019260e0928290030181865afa158015611614573d6000803e3d6000fd5b505050506040513d601f19601f82011682018060405250810190611638919061454c565b50505050505090506000816001600160a01b0316826001600160a01b0316611660919061450d565b6004805460408051630dfe168160e01b81529051939450606085901c936000936001600160a01b0390931692630dfe1681928082019260209290918290030181865afa1580156116b4573d6000803e3d6000fd5b505050506040513d601f19601f820116820180604052508101906116d891906145e2565b90506000600460009054906101000a90046001600160a01b03166001600160a01b031663d21220a76040518163ffffffff1660e01b8152600401602060405180830381865afa15801561172f573d6000803e3d6000fd5b505050506040513d601f19601f8201168201806040525081019061175391906145e2565b90506000826001600160a01b031663313ce5676040518163ffffffff1660e01b8152600401602060405180830381865afa158015611795573d6000803e3d6000fd5b505050506040513d601f19601f820116820180604052508101906117b991906145ff565b90506000826001600160a01b031663313ce5676040518163ffffffff1660e01b8152600401602060405180830381865afa1580156117fb573d6000803e3d6000fd5b505050506040513d601f19601f8201168201806040525081019061181f91906145ff565b90508060ff168260ff1611156118565761184f8561183d83856143ac565b61184890600a6144a9565b6001612a88565b9450611887565b8160ff168160ff1611156118875761188485600161187485856143ac565b61187f90600a6144a9565b612a88565b94505b611896600160601b8087612a88565b98975050505050505050565b601481815481106108d157600080fd5b60008181526010602052604081205481036118cf57506000919050565b6000828152601060205260409020600301546001600160a01b0316156118f757506004919050565b60008054838252601060205260409091205461191391906141c7565b42101561192257506001919050565b6000828152601060205260409020600101541561194157506003919050565b506002919050565b6060601480548060200260200160405190810160405280929190818152602001828054801561199757602002820191906000526020600020905b815481526020019060010190808311611983575b5050505050905090565b601154600954600091116119b55750600090565b60006011600954815481106119cc576119cc6141b1565b600091825260209091200154905060036119e5826118b2565b60048111156119f6576119f6613f4b565b03611aa6576000818152600f6020526040902054600954819015611a8257600060116001600954611a27919061419e565b81548110611a3757611a376141b1565b906000526020600020015490506000601060008381526020019081526020016000206007015490506000611a7082600e54612710612a88565b9050611a7c81856141c7565b93505050505b611a9e81600e54612710611a96919061419e565b612710612a88565b935050505090565b600091505090565b600a5461010090046001600160a01b03163314611b1e5760405162461bcd60e51b815260206004820152602860248201527f4f6e6c79206f776e65722063616e207769746864726177206163636f756e74696044820152673733903a37b5b2b760c11b6064820152608401610a9f565b600754600a5460405163a9059cbb60e01b81526001600160a01b03610100909204821660048201526024810184905291169063a9059cbb906044016020604051808303816000875af1158015611b78573d6000803e3d6000fd5b505050506040513d601f19601f82011682018060405250810190611b9c91906144f0565b5050565b60008060005484611bb191906141c7565b9050428111611c025760405162461bcd60e51b815260206004820152601d60248201527f4672616d652068617320746f20626520696e20746865206675747572650000006044820152606401610a9f565b611c406040518060400160405280601d81526020017f3d3d3d205441582043414c43554c4154494f4e204445425547203d3d3d0000008152506138a6565b611c6c6040518060400160405280600a815260200169233930b6b29035b2bc9d60b11b815250856138ec565b611c97604051806040016040528060078152602001662832b934b7b21d60c91b8152506000546138ec565b611cce6040518060400160405280601581526020017429b2ba3a3632b6b2b73a103a34b6b2b9ba30b6b81d60591b815250826138ec565b611d026040518060400160405280601281526020017121bab93932b73a103a34b6b2b9ba30b6b81d60711b815250426138ec565b6040805180820190915260118152702930bb9039b2b1b7b73239903632b33a1d60791b6020820152611d3d90611d38428461419e565b6138ec565b60408051808201909152601a81527f536574746c656d656e7420646179732072656d61696e696e673a0000000000006020820152611d8d9062015180611d83428561419e565b611d3891906144b8565b6000611d99428361419e565b90506000611daa62015180836144b8565b90506000611db98260016141c7565b9050611dec6040518060400160405280600f81526020016e2230bcb9903932b6b0b4b734b7339d60891b815250836138ec565b611e16604051806040016040528060088152602001672437b934bd37b71d60c11b815250826138ec565b611e48604051806040016040528060118152602001703d3d3d20454e44204445425547203d3d3d60781b8152506138a6565b64e8d4a510006000611e5a828461450d565b90506000611e6782613931565b90506000611e7a6004600160601b6144b8565b9050620f42406000611e8d838386612a88565b90506000611ea0828e600160601b612a88565b9e9d5050505050505050505050505050565b600a5461010090046001600160a01b03163314611f235760405162461bcd60e51b815260206004820152602960248201527f4f6e6c79206f776e65722063616e206368616e676520726f6c6c6f7665722070604482015268657263656e7461676560b81b6064820152608401610a9f565b612328811115611f835760405162461bcd60e51b815260206004820152602560248201527f526f6c6c6f7665722070657263656e746167652063616e6e6f74206578636565604482015264642039302560d81b6064820152608401610a9f565b600e55565b60115460095460009111611fd35760405162461bcd60e51b81526020600482015260126024820152714e6f206672616d6520746f20736574746c6560701b6044820152606401610a9f565b6000601160095481548110611fea57611fea6141b1565b60009182526020808320909101548083526010909152604082205490925090036120265760405162461bcd60e51b8152600401610a9f906141f3565b6003612031826118b2565b600481111561204257612042613f4b565b1461208f5760405162461bcd60e51b815260206004820152601b60248201527f4672616d65206973206e6f7420696e20524154454420737461746500000000006044820152606401610a9f565b6000818152600f6020526040902054600954819015612116576000601160016009546120bb919061419e565b815481106120cb576120cb6141b1565b90600052602060002001549050600060106000838152602001908152602001600020600701549050600061210482600e54612710612a88565b905061211081856141c7565b93505050505b6000838152601060205260408120600701829055600e5461213f908390611a969061271061419e565b9050600061215482600254600160601b612a88565b90506000612162828461419e565b60008781526010602052604081206005810185905560068101839055600101549192509061218f9061139e565b600088815260136020908152604080832084845290915290206002810154919250901561235157600281018054600091906121cc9060019061419e565b815481106121dc576121dc6141b1565b60009182526020909120600260059092020101546007546001600160a01b0391821692501663a9059cbb8261221087610b58565b6040516001600160e01b031960e085901b1681526001600160a01b03909216600483015260248201526044016020604051808303816000875af115801561225b573d6000803e3d6000fd5b505050506040513d601f19601f8201168201806040525081019061227f91906144f0565b50600089815260106020526040902060030180546001600160a01b0319166001600160a01b0383161790556122b384610b58565b600c60008282546122c491906141c7565b909155506122d3905084610b58565b6001600160a01b038216600090815260166020526040812080549091906122fb9084906141c7565b90915550506001600160a01b0381167f53118bff2fb56701752f5bf54053d24fb83cec92f9f6ce664b90c38a2991caa461233486610b58565b60408051918252602082018d90520160405180910390a2506123d8565b600088815260106020526040812060030180546001600160a01b031916600117905561237d858861419e565b90507f0496d42696345a1fb843aab6a5a68c62c8a5d3dbcf758a40953e662be46a2bb4896000548b6123af91906141c7565b6123b884610b58565b6040805193845260208401929092529082015260600160405180910390a1505b600754600a546001600160a01b039182169163a9059cbb916101009004166123ff87610b58565b6040516001600160e01b031960e085901b1681526001600160a01b03909216600483015260248201526044016020604051808303816000875af115801561244a573d6000803e3d6000fd5b505050506040513d601f19601f8201168201806040525081019061246e91906144f0565b50600088815260106020526040902060018101546004909101556002810154156124ca577f782b1e1b5d0c69f9f4c1e43a846c9ce710491a77f5adb86c3fe465f2cc9bfab9816040516124c19190614399565b60405180910390a15b6000888152601060205260409081902090517f929af310c689982c60d4ec73c6e4b602e89c6f6a31da7c2df4888fb0627cb2b19161250791614260565b60405180910390a160016009600082825461252291906141c7565b90915550505060009687525050601060205250506040909220600601549392505050565b60008281526013602090815260408083208484528252808320600201805482518185028101850190935280835260609492939192909184015b828210156125e65760008481526020908190206040805160a08101825260058602909201805483526001808201548486015260028201546001600160a01b03169284019290925260038101546060840152600401546080830152908352909201910161257f565b50505050905092915050565b600a5461010090046001600160a01b0316331461265c5760405162461bcd60e51b815260206004820152602260248201527f4f6e6c79206f776e65722063616e206368616e67652070726f746f636f6c2066604482015261656560f01b6064820152608401610a9f565b600255565b6000806003548342612673919061419e565b61267d91906141c7565b9050600061268b844261419e565b604080516002808252606082018352929350600092909160208301908036833701905050905082816000815181106126c5576126c56141b1565b602002602001019063ffffffff16908163ffffffff168152505081816001815181106126f3576126f36141b1565b63ffffffff909216602092830291909101909101526004805460405163883bdbfd60e01b81526000926001600160a01b039092169163883bdbfd9161273a91869101614630565b600060405180830381865afa158015612757573d6000803e3d6000fd5b505050506040513d6000823e601f3d908101601f1916820160405261277f919081019061472c565b509050600081600081518110612797576127976141b1565b602002602001015160060b826001815181106127b5576127b56141b1565b602002602001015160060b6127ca91906147f8565b905060008112156128135760405162461bcd60e51b81526020600482015260136024820152724e65676174697665207469636b2064656c746160681b6044820152606401610a9f565b80600061282963ffffffff80881690891661419e565b9050600061283782846144b8565b9050600061284482613a8a565b9050600061285b6001600160a01b0383168061450d565b6004805460408051630dfe168160e01b81529051939450606085901c936000936001600160a01b0390931692630dfe1681928082019260209290918290030181865afa1580156128af573d6000803e3d6000fd5b505050506040513d601f19601f820116820180604052508101906128d391906145e2565b90506000600460009054906101000a90046001600160a01b03166001600160a01b031663d21220a76040518163ffffffff1660e01b8152600401602060405180830381865afa15801561292a573d6000803e3d6000fd5b505050506040513d601f19601f8201168201806040525081019061294e91906145e2565b90506000826001600160a01b031663313ce5676040518163ffffffff1660e01b8152600401602060405180830381865afa158015612990573d6000803e3d6000fd5b505050506040513d601f19601f820116820180604052508101906129b491906145ff565b90506000826001600160a01b031663313ce5676040518163ffffffff1660e01b8152600401602060405180830381865afa1580156129f6573d6000803e3d6000fd5b505050506040513d601f19601f82011682018060405250810190612a1a91906145ff565b90508060ff168260ff161115612a3f57612a388561183d83856143ac565b9450612a60565b8160ff168160ff161115612a6057612a5d85600161187485856143ac565b94505b612a6f600160601b8087612a88565b9450849f50505050505050505050505050505050919050565b6000808060001985870985870292508281108382030391505080600003612ac15760008411612ab657600080fd5b5082900490506113d2565b808411612acd57600080fd5b600084868809808403938111909203919050600085612aee811960016141c7565b16958690049593849004936000819003046001019050612b0e818461450d565b909317926000612b1f87600361450d565b6002189050612b2e818861450d565b612b3990600261419e565b612b43908261450d565b9050612b4f818861450d565b612b5a90600261419e565b612b64908261450d565b9050612b70818861450d565b612b7b90600261419e565b612b85908261450d565b9050612b91818861450d565b612b9c90600261419e565b612ba6908261450d565b9050612bb2818861450d565b612bbd90600261419e565b612bc7908261450d565b9050612bd3818861450d565b612bde90600261419e565b612be8908261450d565b9050612bf4818661450d565b9998505050505050505050565b600080612c0d83610e38565b60008181526010602052604090205490915015612c635760405162461bcd60e51b81526020600482015260146024820152734672616d6520616c72656164792065786973747360601b6044820152606401610a9f565b4260005482612c7291906141c7565b1015612cc05760405162461bcd60e51b815260206004820152601d60248201527f4672616d652068617320746f20626520696e20746865206675747572650000006044820152606401610a9f565b600081815260106020818152604080842085815560118054600181019091557f31ecc21a745e3968a04e9570e4425bc18fa8019c68028196b546d1669c200c688101879055601284529482902085905592909152517f929af310c689982c60d4ec73c6e4b602e89c6f6a31da7c2df4888fb0627cb2b191612d4091614260565b60405180910390a15092915050565b6000612d5b8584611ba0565b90506000612d6882610b58565b9050612da96040518060400160405280601c81526020017f54617820616d6f756e7420696e20746f6b656e20646563696d616c7300000000815250826138ec565b60008111612dc95760405162461bcd60e51b8152600401610a9f90614818565b6040805180820182526012815271105b1b1bddd85b98d9481d1bc81cdc195b9960721b60208201526007549151636eb1769f60e11b8152336004820152306024820152612e64926001600160a01b03169063dd62ed3e90604401602060405180830381865afa158015612e40573d6000803e3d6000fd5b505050506040513d601f19601f82011682018060405250810190611d389190614875565b600754604051636eb1769f60e11b815233600482015230602482015282916001600160a01b03169063dd62ed3e90604401602060405180830381865afa158015612eb2573d6000803e3d6000fd5b505050506040513d601f19601f82011682018060405250810190612ed69190614875565b1015612ef45760405162461bcd60e51b8152600401610a9f9061488e565b7f161bcca7119915b50764b4abe86529797775a5f17195100000000000000000008510612f555760405162461bcd60e51b815260206004820152600f60248201526e4c6f74206b657920746f6f2062696760881b6044820152606401610a9f565b600086815260136020908152604080832088845290915290206001015415612fb45760405162461bcd60e51b81526020600482015260126024820152714c6f7420616c72656164792065786973747360701b6044820152606401610a9f565b60006040518060a00160405280438152602001428152602001336001600160a01b03168152602001868152602001612feb8461159a565b905260008881526013602090815260408083208a845282528083208b815560018082018c9055600280830180548084018255908752858720885160059092020190815594870151918501919091559185015191830180546001600160a01b0319166001600160a01b0390931692909217909155606084015160038301556080840151600490920191909155919250613083898961157d565b6014805460018181019092557fce6d7b5282bd9a3661ae061feed1dbda4e52ab073b1f9285be6e155d9c38d4ec0182905560008b8152601060209081526040822086840154600290910180549485018155835291209091015590506130e78461159a565b6000878152600f6020526040812080549091906131059084906141c7565b9091555061311490508461159a565b600b600082825461312591906141c7565b9091555061313490508461159a565b33600090815260156020526040812080549091906131539084906141c7565b90915550506007546040516323b872dd60e01b81526001600160a01b03909116906323b872dd9061318c903390309089906004016144cc565b6020604051808303816000875af11580156131ab573d6000803e3d6000fd5b505050506040513d601f19601f820116820180604052508101906131cf91906144f0565b50604080518581526020810188905233917f1137290ec9b1f9c41fb72a212c58301a6eda3b23bc43c0e528f6d21216d593b891015b60405180910390a2505050505050505050565b60006132238584611ba0565b9050600061323082610b58565b600754604051636eb1769f60e11b815233600482015230602482015291925082916001600160a01b039091169063dd62ed3e90604401602060405180830381865afa158015613283573d6000803e3d6000fd5b505050506040513d601f19601f820116820180604052508101906132a79190614875565b10156132c55760405162461bcd60e51b8152600401610a9f9061488e565b6007546040516323b872dd60e01b81526001600160a01b03909116906323b872dd906132f9903390309086906004016144cc565b6020604051808303816000875af1158015613318573d6000803e3d6000fd5b505050506040513d601f19601f8201168201806040525081019061333c91906144f0565b506013600087815260200190815260200160002060008681526020019081526020016000206002016040518060a00160405280438152602001428152602001336001600160a01b031681526020018681526020016133998461159a565b905281546001808201845560009384526020938490208351600590930201918255928201519281019290925560408101516002830180546001600160a01b0319166001600160a01b0390921691909117905560608101516003830155608001516004909101556134088161159a565b6000848152600f6020526040812080549091906134269084906141c7565b9091555061343590508161159a565b600b600082825461344691906141c7565b9091555061345590508161159a565b33600090815260156020526040812080549091906134749084906141c7565b9091555050604080518281526020810185905233917f1137290ec9b1f9c41fb72a212c58301a6eda3b23bc43c0e528f6d21216d593b8910160405180910390a2505050505050565b6000848152601360209081526040808320868452909152812060020180546134e69060019061419e565b815481106134f6576134f66141b1565b600091825260208220600260059092020101546001600160a01b0316915061351e8685611ba0565b9050600081116135405760405162461bcd60e51b8152600401610a9f90614818565b60008681526013602090815260408083208884529091528120600201805461356a9060019061419e565b8154811061357a5761357a6141b1565b9060005260206000209060050201600301549050600061359982610b58565b905060006135a684610b58565b90506135b282826141c7565b600754604051636eb1769f60e11b81523360048201523060248201526001600160a01b039091169063dd62ed3e90604401602060405180830381865afa158015613600573d6000803e3d6000fd5b505050506040513d601f19601f820116820180604052508101906136249190614875565b10156136425760405162461bcd60e51b8152600401610a9f9061488e565b6007546040516323b872dd60e01b81526001600160a01b03909116906323b872dd90613676903390309086906004016144cc565b6020604051808303816000875af1158015613695573d6000803e3d6000fd5b505050506040513d601f19601f820116820180604052508101906136b991906144f0565b506007546040516323b872dd60e01b81526001600160a01b03909116906323b872dd906136ee903390899087906004016144cc565b6020604051808303816000875af115801561370d573d6000803e3d6000fd5b505050506040513d601f19601f8201168201806040525081019061373191906144f0565b50601360008a815260200190815260200160002060008981526020019081526020016000206002016040518060a00160405280438152602001428152602001336001600160a01b0316815260200189815260200161378e8461159a565b905281546001808201845560009384526020938490208351600590930201918255928201519281019290925560408101516002830180546001600160a01b0319166001600160a01b0390921691909117905560608101516003830155608001516004909101556137fd8161159a565b6000878152600f60205260408120805490919061381b9084906141c7565b9091555061382a90508161159a565b600b600082825461383b91906141c7565b9091555061384a90508161159a565b33600090815260156020526040812080549091906138699084906141c7565b9091555050604080518281526020810188905233917f1137290ec9b1f9c41fb72a212c58301a6eda3b23bc43c0e528f6d21216d593b89101613204565b6138e9816040516024016138ba919061490b565b60408051601f198184030181529190526020810180516001600160e01b031663104c13eb60e21b179052613e75565b50565b611b9c828260405160240161390292919061491e565b60408051601f198184030181529190526020810180516001600160e01b0316632d839cb360e21b179052613e75565b60006001821161393f575090565b816001600160801b82106139585760809190911c9060401b5b6801000000000000000082106139735760409190911c9060201b5b640100000000821061398a5760209190911c9060101b5b62010000821061399f5760109190911c9060081b5b61010082106139b35760089190911c9060041b5b601082106139c65760049190911c9060021b5b600482106139d25760011b5b600302600190811c908185816139ea576139ea6142d2565b048201901c90506001818581613a0257613a026142d2565b048201901c90506001818581613a1a57613a1a6142d2565b048201901c90506001818581613a3257613a326142d2565b048201901c90506001818581613a4a57613a4a6142d2565b048201901c90506001818581613a6257613a626142d2565b048201901c9050613a81818581613a7b57613a7b6142d2565b04821190565b90039392505050565b600081620d89e8811115613ac45760405162461bcd60e51b81526020600482015260016024820152601560fa1b6044820152606401610a9f565b600081600116600003613adb57600160801b613aed565b6ffffcb933bd6fad37aa2d162d1a5940015b70ffffffffffffffffffffffffffffffffff1690506002821615613b2c576080613b27826ffff97272373d413259a46990580e213a61450d565b901c90505b6004821615613b56576080613b51826ffff2e50f5f656932ef12357cf3c7fdcc61450d565b901c90505b6008821615613b80576080613b7b826fffe5caca7e10e4e61c3624eaa0941cd061450d565b901c90505b6010821615613baa576080613ba5826fffcb9843d60f6159c9db58835c92664461450d565b901c90505b6020821615613bd4576080613bcf826fff973b41fa98c081472e6896dfb254c061450d565b901c90505b6040821615613bfe576080613bf9826fff2ea16466c96a3843ec78b326b5286161450d565b901c90505b6080821615613c28576080613c23826ffe5dee046a99a2a811c461f1969c305361450d565b901c90505b610100821615613c53576080613c4e826ffcbe86c7900a88aedcffc83b479aa3a461450d565b901c90505b610200821615613c7e576080613c79826ff987a7253ac413176f2b074cf7815e5461450d565b901c90505b610400821615613ca9576080613ca4826ff3392b0822b70005940c7a398e4b70f361450d565b901c90505b610800821615613cd4576080613ccf826fe7159475a2c29b7443b29c7fa6e889d961450d565b901c90505b611000821615613cff576080613cfa826fd097f3bdfd2022b8845ad8f792aa582561450d565b901c90505b612000821615613d2a576080613d25826fa9f746462d870fdf8a65dc1f90e061e561450d565b901c90505b614000821615613d55576080613d50826f70d869a156d2a1b890bb3df62baf32f761450d565b901c90505b618000821615613d80576080613d7b826f31be135f97d08fd981231505542fcfa661450d565b901c90505b62010000821615613dac576080613da7826f09aa508b5b7a84e1c677de54f3e99bc961450d565b901c90505b62020000821615613dd7576080613dd2826e5d6af8dedb81196699c329225ee60461450d565b901c90505b62040000821615613e01576080613dfc826d2216e584f5fa1ea926041bedfe9861450d565b901c90505b62080000821615613e29576080613e24826b048a170391f7dc42444e8fa261450d565b901c90505b8315613e3e57613e3b816000196144b8565b90505b613e4d640100000000826142e8565b15613e59576001613e5c565b60005b613e6d9060ff16602083901c6141c7565b949350505050565b6138e98160006a636f6e736f6c652e6c6f679050600080835160208501845afa505050565b600060208284031215613eac57600080fd5b5035919050565b6001600160a01b03811681146138e957600080fd5b600060208284031215613eda57600080fd5b81356113d281613eb3565b6020808252825182820181905260009190848201906040850190845b81811015613f1d57835183529284019291840191600101613f01565b50909695505050505050565b60008060408385031215613f3c57600080fd5b50508035926020909101359150565b634e487b7160e01b600052602160045260246000fd5b6020810160048310613f7557613f75613f4b565b91905290565b600080600060608486031215613f9057600080fd5b505081359360208301359350604090920135919050565b80518252602080820151908301526040808201516001600160a01b031690830152606080820151908301526080908101519082015260a00190565b6000602080835260808301845182850152818501516040850152604085015160608086015281815180845260a0870191508483019350600092505b8083101561404257614030828551613fa7565b9150848401935060018301925061401d565b509695505050505050565b6000602080835261012083018451828501528185015160408501526040850151610100806060870152828251808552610140880191508584019450600093505b808410156140ad578451825293850193600193909301929085019061408d565b5060608801516001600160a01b03811660808901529450608088015160a088015260a088015160c088015260c088015160e088015260e088015182880152809550505050505092915050565b80151581146138e957600080fd5b6000806040838503121561411a57600080fd5b82359150602083013561412c816140f9565b809150509250929050565b6020810160058310613f7557613f75613f4b565b6020808252825182820181905260009190848201906040850190845b81811015613f1d5761417a838551613fa7565b938501939250600101614167565b634e487b7160e01b600052601160045260246000fd5b81810381811115610b8957610b89614188565b634e487b7160e01b600052603260045260246000fd5b80820180821115610b8957610b89614188565b6000600182016141ec576141ec614188565b5060010190565b602080825260139082015272119c985b5948191bd95cdb89dd08195e1a5cdd606a1b604082015260600190565b6000815480845260208085019450836000528060002060005b8381101561425557815487529582019560019182019101614239565b509495945050505050565b6020815281546020820152600182015460408201526000610100806060840152614291610120840160028601614220565b60038501546001600160a01b03166080850152600485015460a0850152600585015460c0850152600685015460e08501526007909401549201919091525090565b634e487b7160e01b600052601260045260246000fd5b6000826142f7576142f76142d2565b500690565b60006060808401835485526001808501546020818189015260029150818701604086818b015285825480885260809750878c0191508360005284600020935060005b8181101561438857845483528785015486840152868501546001600160a01b03168484015260038501548a84015260048501548984015260059094019360a090920191870161433e565b50909b9a5050505050505050505050565b6020815260006113d260208301846142fc565b60ff8281168282160390811115610b8957610b89614188565b600181815b808511156144005781600019048211156143e6576143e6614188565b808516156143f357918102915b93841c93908002906143ca565b509250929050565b60008261441757506001610b89565b8161442457506000610b89565b816001811461443a576002811461444457614460565b6001915050610b89565b60ff84111561445557614455614188565b50506001821b610b89565b5060208310610133831016604e8410600b8410161715614483575081810a610b89565b61448d83836143c5565b80600019048211156144a1576144a1614188565b029392505050565b60006113d260ff841683614408565b6000826144c7576144c76142d2565b500490565b6001600160a01b039384168152919092166020820152604081019190915260600190565b60006020828403121561450257600080fd5b81516113d2816140f9565b8082028115828204841417610b8957610b89614188565b805161ffff8116811461453657600080fd5b919050565b805160ff8116811461453657600080fd5b600080600080600080600060e0888a03121561456757600080fd5b875161457281613eb3565b8097505060208801518060020b811461458a57600080fd5b955061459860408901614524565b94506145a660608901614524565b93506145b460808901614524565b92506145c260a0890161453b565b915060c08801516145d2816140f9565b8091505092959891949750929550565b6000602082840312156145f457600080fd5b81516113d281613eb3565b60006020828403121561461157600080fd5b6113d28261453b565b634e487b7160e01b600052604160045260246000fd5b6020808252825182820181905260009190848201906040850190845b81811015613f1d57835163ffffffff168352928401929184019160010161464c565b604051601f8201601f1916810167ffffffffffffffff811182821017156146975761469761461a565b604052919050565b600067ffffffffffffffff8211156146b9576146b961461a565b5060051b60200190565b600082601f8301126146d457600080fd5b815160206146e96146e48361469f565b61466e565b82815260059290921b8401810191818101908684111561470857600080fd5b8286015b8481101561404257805161471f81613eb3565b835291830191830161470c565b6000806040838503121561473f57600080fd5b825167ffffffffffffffff8082111561475757600080fd5b818501915085601f83011261476b57600080fd5b8151602061477b6146e48361469f565b82815260059290921b8401810191818101908984111561479a57600080fd5b948201945b838610156147c85785518060060b81146147b95760008081fd5b8252948201949082019061479f565b918801519196509093505050808211156147e157600080fd5b506147ee858286016146c3565b9150509250929050565b818103600083128015838313168383128216171561132757611327614188565b6020808252603c908201527f5461782068617320746f2062652067726561746572207468616e20302e20496e60408201527f63726561736520746865206163717569736974696f6e20707269636500000000606082015260800190565b60006020828403121561488757600080fd5b5051919050565b6020808252601e908201527f416c6c6f77616e636520746f207370656e642073657420746f6f206c6f770000604082015260600190565b6000815180845260005b818110156148eb576020818501810151868301820152016148cf565b506000602082860101526020601f19601f83011685010191505092915050565b6020815260006113d260208301846148c5565b60408152600061493160408301856148c5565b9050826020830152939250505056fea2646970667358221220065b94eca8abe1295923d933677ba00ceb92badfb8118faa57f6c2b9764de21e64736f6c63430008140033",
  "linkReferences": {},
  "deployedLinkReferences": {}
}