{
  "_format": "hh-sol-artifact-1",
  "contractName": "Market",
  "sourceName": "contracts/Market.sol",
  "abi": [
    {
      "inputs": [],
      "stateMutability": "nonpayable",
      "type": "constructor"
    },
    {
      "anonymous": false,
      "inputs": [
        {
          "components": [
            {
              "internalType": "uint256",
              "name": "frameKey",
              "type": "uint256"
            },
            {
              "internalType": "uint256",
              "name": "rate",
              "type": "uint256"
            },
            {
              "internalType": "uint256[]",
              "name": "lotKeys",
              "type": "uint256[]"
            },
            {
              "internalType": "address",
              "name": "claimedBy",
              "type": "address"
            },
            {
              "internalType": "uint256",
              "name": "rateSettle",
              "type": "uint256"
            },
            {
              "internalType": "uint256",
              "name": "feeSettle",
              "type": "uint256"
            },
            {
              "internalType": "uint256",
              "name": "rewardSettle",
              "type": "uint256"
            },
            {
              "internalType": "uint256",
              "name": "feeReferral",
              "type": "uint256"
            }
          ],
          "indexed": false,
          "internalType": "struct Market.Frame",
          "name": "frame",
          "type": "tuple"
        }
      ],
      "name": "FrameUpdate",
      "type": "event"
    },
    {
      "anonymous": false,
      "inputs": [
        {
          "components": [
            {
              "internalType": "uint256",
              "name": "frameKey",
              "type": "uint256"
            },
            {
              "internalType": "uint256",
              "name": "lotKey",
              "type": "uint256"
            },
            {
              "components": [
                {
                  "internalType": "uint256",
                  "name": "blockNumber",
                  "type": "uint256"
                },
                {
                  "internalType": "uint256",
                  "name": "blockTimestamp",
                  "type": "uint256"
                },
                {
                  "internalType": "address",
                  "name": "owner",
                  "type": "address"
                },
                {
                  "internalType": "uint256",
                  "name": "acquisitionPrice",
                  "type": "uint256"
                },
                {
                  "internalType": "uint256",
                  "name": "taxCharged",
                  "type": "uint256"
                },
                {
                  "internalType": "uint256",
                  "name": "taxRefunded",
                  "type": "uint256"
                }
              ],
              "internalType": "struct Market.LotState[]",
              "name": "states",
              "type": "tuple[]"
            }
          ],
          "indexed": false,
          "internalType": "struct Market.Lot",
          "name": "lot",
          "type": "tuple"
        }
      ],
      "name": "LotUpdate",
      "type": "event"
    },
    {
      "inputs": [],
      "name": "accountingToken",
      "outputs": [
        {
          "internalType": "contract IERC20",
          "name": "",
          "type": "address"
        }
      ],
      "stateMutability": "view",
      "type": "function"
    },
    {
      "inputs": [],
      "name": "claimReferralRewards",
      "outputs": [],
      "stateMutability": "nonpayable",
      "type": "function"
    },
    {
      "inputs": [
        {
          "internalType": "uint256",
          "name": "timestamp",
          "type": "uint256"
        }
      ],
      "name": "clcFrameKey",
      "outputs": [
        {
          "internalType": "uint256",
          "name": "",
          "type": "uint256"
        }
      ],
      "stateMutability": "view",
      "type": "function"
    },
    {
      "inputs": [
        {
          "internalType": "uint256",
          "name": "value",
          "type": "uint256"
        }
      ],
      "name": "clcLotKey",
      "outputs": [
        {
          "internalType": "uint256",
          "name": "",
          "type": "uint256"
        }
      ],
      "stateMutability": "view",
      "type": "function"
    },
    {
      "inputs": [],
      "name": "clcRate",
      "outputs": [
        {
          "internalType": "uint256",
          "name": "",
          "type": "uint256"
        }
      ],
      "stateMutability": "view",
      "type": "function"
    },
    {
      "inputs": [
        {
          "internalType": "uint256",
          "name": "timestamp",
          "type": "uint256"
        }
      ],
      "name": "clcRateAvg",
      "outputs": [
        {
          "internalType": "uint256",
          "name": "",
          "type": "uint256"
        }
      ],
      "stateMutability": "view",
      "type": "function"
    },
    {
      "inputs": [
        {
          "internalType": "uint256",
          "name": "frameKey",
          "type": "uint256"
        }
      ],
      "name": "clcRewardFund",
      "outputs": [
        {
          "internalType": "uint256",
          "name": "",
          "type": "uint256"
        }
      ],
      "stateMutability": "view",
      "type": "function"
    },
    {
      "inputs": [
        {
          "internalType": "uint256",
          "name": "frameKey",
          "type": "uint256"
        },
        {
          "internalType": "uint256",
          "name": "acquisitionPrice",
          "type": "uint256"
        }
      ],
      "name": "clcTax",
      "outputs": [
        {
          "internalType": "uint256",
          "name": "",
          "type": "uint256"
        }
      ],
      "stateMutability": "view",
      "type": "function"
    },
    {
      "inputs": [],
      "name": "dPrice",
      "outputs": [
        {
          "internalType": "uint256",
          "name": "",
          "type": "uint256"
        }
      ],
      "stateMutability": "view",
      "type": "function"
    },
    {
      "inputs": [],
      "name": "feeProtocol",
      "outputs": [
        {
          "internalType": "uint256",
          "name": "",
          "type": "uint256"
        }
      ],
      "stateMutability": "view",
      "type": "function"
    },
    {
      "inputs": [
        {
          "internalType": "uint256",
          "name": "",
          "type": "uint256"
        }
      ],
      "name": "frames",
      "outputs": [
        {
          "internalType": "uint256",
          "name": "frameKey",
          "type": "uint256"
        },
        {
          "internalType": "uint256",
          "name": "rate",
          "type": "uint256"
        },
        {
          "internalType": "address",
          "name": "claimedBy",
          "type": "address"
        },
        {
          "internalType": "uint256",
          "name": "rateSettle",
          "type": "uint256"
        },
        {
          "internalType": "uint256",
          "name": "feeSettle",
          "type": "uint256"
        },
        {
          "internalType": "uint256",
          "name": "rewardSettle",
          "type": "uint256"
        },
        {
          "internalType": "uint256",
          "name": "feeReferral",
          "type": "uint256"
        }
      ],
      "stateMutability": "view",
      "type": "function"
    },
    {
      "inputs": [
        {
          "internalType": "uint256",
          "name": "",
          "type": "uint256"
        }
      ],
      "name": "framesKeys",
      "outputs": [
        {
          "internalType": "uint256",
          "name": "",
          "type": "uint256"
        }
      ],
      "stateMutability": "view",
      "type": "function"
    },
    {
      "inputs": [
        {
          "internalType": "uint256",
          "name": "frameKey",
          "type": "uint256"
        }
      ],
      "name": "getFrame",
      "outputs": [
        {
          "components": [
            {
              "internalType": "uint256",
              "name": "frameKey",
              "type": "uint256"
            },
            {
              "internalType": "uint256",
              "name": "rate",
              "type": "uint256"
            },
            {
              "internalType": "uint256[]",
              "name": "lotKeys",
              "type": "uint256[]"
            },
            {
              "internalType": "address",
              "name": "claimedBy",
              "type": "address"
            },
            {
              "internalType": "uint256",
              "name": "rateSettle",
              "type": "uint256"
            },
            {
              "internalType": "uint256",
              "name": "feeSettle",
              "type": "uint256"
            },
            {
              "internalType": "uint256",
              "name": "rewardSettle",
              "type": "uint256"
            },
            {
              "internalType": "uint256",
              "name": "feeReferral",
              "type": "uint256"
            }
          ],
          "internalType": "struct Market.Frame",
          "name": "",
          "type": "tuple"
        }
      ],
      "stateMutability": "view",
      "type": "function"
    },
    {
      "inputs": [
        {
          "internalType": "uint256",
          "name": "frameKey",
          "type": "uint256"
        }
      ],
      "name": "getFrameLotKeys",
      "outputs": [
        {
          "internalType": "uint256[]",
          "name": "",
          "type": "uint256[]"
        }
      ],
      "stateMutability": "view",
      "type": "function"
    },
    {
      "inputs": [],
      "name": "getFramesLength",
      "outputs": [
        {
          "internalType": "uint256",
          "name": "",
          "type": "uint256"
        }
      ],
      "stateMutability": "view",
      "type": "function"
    },
    {
      "inputs": [
        {
          "internalType": "uint256",
          "name": "frameKey",
          "type": "uint256"
        },
        {
          "internalType": "uint256",
          "name": "lotKey",
          "type": "uint256"
        }
      ],
      "name": "getLot",
      "outputs": [
        {
          "components": [
            {
              "internalType": "uint256",
              "name": "frameKey",
              "type": "uint256"
            },
            {
              "internalType": "uint256",
              "name": "lotKey",
              "type": "uint256"
            },
            {
              "components": [
                {
                  "internalType": "uint256",
                  "name": "blockNumber",
                  "type": "uint256"
                },
                {
                  "internalType": "uint256",
                  "name": "blockTimestamp",
                  "type": "uint256"
                },
                {
                  "internalType": "address",
                  "name": "owner",
                  "type": "address"
                },
                {
                  "internalType": "uint256",
                  "name": "acquisitionPrice",
                  "type": "uint256"
                },
                {
                  "internalType": "uint256",
                  "name": "taxCharged",
                  "type": "uint256"
                },
                {
                  "internalType": "uint256",
                  "name": "taxRefunded",
                  "type": "uint256"
                }
              ],
              "internalType": "struct Market.LotState[]",
              "name": "states",
              "type": "tuple[]"
            }
          ],
          "internalType": "struct Market.Lot",
          "name": "",
          "type": "tuple"
        }
      ],
      "stateMutability": "view",
      "type": "function"
    },
    {
      "inputs": [
        {
          "internalType": "uint256",
          "name": "frameKey",
          "type": "uint256"
        },
        {
          "internalType": "uint256",
          "name": "lotKey",
          "type": "uint256"
        }
      ],
      "name": "getLotStates",
      "outputs": [
        {
          "components": [
            {
              "internalType": "uint256",
              "name": "blockNumber",
              "type": "uint256"
            },
            {
              "internalType": "uint256",
              "name": "blockTimestamp",
              "type": "uint256"
            },
            {
              "internalType": "address",
              "name": "owner",
              "type": "address"
            },
            {
              "internalType": "uint256",
              "name": "acquisitionPrice",
              "type": "uint256"
            },
            {
              "internalType": "uint256",
              "name": "taxCharged",
              "type": "uint256"
            },
            {
              "internalType": "uint256",
              "name": "taxRefunded",
              "type": "uint256"
            }
          ],
          "internalType": "struct Market.LotState[]",
          "name": "",
          "type": "tuple[]"
        }
      ],
      "stateMutability": "view",
      "type": "function"
    },
    {
      "inputs": [],
      "name": "getLotsArray",
      "outputs": [
        {
          "components": [
            {
              "internalType": "uint256",
              "name": "frameKey",
              "type": "uint256"
            },
            {
              "internalType": "uint256",
              "name": "lotKey",
              "type": "uint256"
            },
            {
              "components": [
                {
                  "internalType": "uint256",
                  "name": "blockNumber",
                  "type": "uint256"
                },
                {
                  "internalType": "uint256",
                  "name": "blockTimestamp",
                  "type": "uint256"
                },
                {
                  "internalType": "address",
                  "name": "owner",
                  "type": "address"
                },
                {
                  "internalType": "uint256",
                  "name": "acquisitionPrice",
                  "type": "uint256"
                },
                {
                  "internalType": "uint256",
                  "name": "taxCharged",
                  "type": "uint256"
                },
                {
                  "internalType": "uint256",
                  "name": "taxRefunded",
                  "type": "uint256"
                }
              ],
              "internalType": "struct Market.LotState[]",
              "name": "states",
              "type": "tuple[]"
            }
          ],
          "internalType": "struct Market.Lot[]",
          "name": "",
          "type": "tuple[]"
        }
      ],
      "stateMutability": "view",
      "type": "function"
    },
    {
      "inputs": [
        {
          "internalType": "uint256",
          "name": "frameKey",
          "type": "uint256"
        }
      ],
      "name": "getLotsKeysInFrame",
      "outputs": [
        {
          "internalType": "uint256[]",
          "name": "",
          "type": "uint256[]"
        }
      ],
      "stateMutability": "view",
      "type": "function"
    },
    {
      "inputs": [
        {
          "internalType": "uint256",
          "name": "frameKey",
          "type": "uint256"
        }
      ],
      "name": "getLotsLength",
      "outputs": [
        {
          "internalType": "uint256",
          "name": "",
          "type": "uint256"
        }
      ],
      "stateMutability": "view",
      "type": "function"
    },
    {
      "inputs": [
        {
          "internalType": "uint256",
          "name": "frameKey",
          "type": "uint256"
        }
      ],
      "name": "getStateFrame",
      "outputs": [
        {
          "internalType": "enum Market.SFrame",
          "name": "",
          "type": "uint8"
        }
      ],
      "stateMutability": "view",
      "type": "function"
    },
    {
      "inputs": [
        {
          "internalType": "uint256",
          "name": "frameKey",
          "type": "uint256"
        },
        {
          "internalType": "uint256",
          "name": "lotKey",
          "type": "uint256"
        }
      ],
      "name": "getStateLot",
      "outputs": [
        {
          "internalType": "enum Market.SLot",
          "name": "",
          "type": "uint8"
        }
      ],
      "stateMutability": "view",
      "type": "function"
    },
    {
      "inputs": [],
      "name": "getUncollectedRewards",
      "outputs": [
        {
          "internalType": "uint256",
          "name": "",
          "type": "uint256"
        }
      ],
      "stateMutability": "view",
      "type": "function"
    },
    {
      "inputs": [
        {
          "internalType": "address",
          "name": "user",
          "type": "address"
        },
        {
          "internalType": "uint256",
          "name": "frameKey",
          "type": "uint256"
        }
      ],
      "name": "getUserReward",
      "outputs": [
        {
          "internalType": "uint256",
          "name": "",
          "type": "uint256"
        }
      ],
      "stateMutability": "view",
      "type": "function"
    },
    {
      "inputs": [],
      "name": "getUsersArrayLength",
      "outputs": [
        {
          "internalType": "uint256",
          "name": "",
          "type": "uint256"
        }
      ],
      "stateMutability": "view",
      "type": "function"
    },
    {
      "inputs": [],
      "name": "initTimestamp",
      "outputs": [
        {
          "internalType": "uint256",
          "name": "",
          "type": "uint256"
        }
      ],
      "stateMutability": "view",
      "type": "function"
    },
    {
      "inputs": [
        {
          "internalType": "uint256",
          "name": "",
          "type": "uint256"
        },
        {
          "internalType": "uint256",
          "name": "",
          "type": "uint256"
        }
      ],
      "name": "lots",
      "outputs": [
        {
          "internalType": "uint256",
          "name": "frameKey",
          "type": "uint256"
        },
        {
          "internalType": "uint256",
          "name": "lotKey",
          "type": "uint256"
        }
      ],
      "stateMutability": "view",
      "type": "function"
    },
    {
      "inputs": [
        {
          "internalType": "uint256",
          "name": "",
          "type": "uint256"
        }
      ],
      "name": "lotsArray",
      "outputs": [
        {
          "internalType": "uint256",
          "name": "frameKey",
          "type": "uint256"
        },
        {
          "internalType": "uint256",
          "name": "lotKey",
          "type": "uint256"
        }
      ],
      "stateMutability": "view",
      "type": "function"
    },
    {
      "inputs": [
        {
          "components": [
            {
              "internalType": "uint256",
              "name": "frameKey",
              "type": "uint256"
            },
            {
              "internalType": "uint256",
              "name": "rate",
              "type": "uint256"
            },
            {
              "internalType": "uint256[]",
              "name": "lotKeys",
              "type": "uint256[]"
            },
            {
              "internalType": "address",
              "name": "claimedBy",
              "type": "address"
            },
            {
              "internalType": "uint256",
              "name": "rateSettle",
              "type": "uint256"
            },
            {
              "internalType": "uint256",
              "name": "feeSettle",
              "type": "uint256"
            },
            {
              "internalType": "uint256",
              "name": "rewardSettle",
              "type": "uint256"
            },
            {
              "internalType": "uint256",
              "name": "feeReferral",
              "type": "uint256"
            }
          ],
          "internalType": "struct Market.Frame",
          "name": "frame",
          "type": "tuple"
        },
        {
          "internalType": "uint256",
          "name": "avgPrice",
          "type": "uint256"
        }
      ],
      "name": "overrideFrameRate",
      "outputs": [],
      "stateMutability": "nonpayable",
      "type": "function"
    },
    {
      "inputs": [],
      "name": "owner",
      "outputs": [
        {
          "internalType": "address",
          "name": "",
          "type": "address"
        }
      ],
      "stateMutability": "view",
      "type": "function"
    },
    {
      "inputs": [],
      "name": "period",
      "outputs": [
        {
          "internalType": "uint256",
          "name": "",
          "type": "uint256"
        }
      ],
      "stateMutability": "view",
      "type": "function"
    },
    {
      "inputs": [],
      "name": "referralPct",
      "outputs": [
        {
          "internalType": "uint256",
          "name": "",
          "type": "uint256"
        }
      ],
      "stateMutability": "view",
      "type": "function"
    },
    {
      "inputs": [
        {
          "internalType": "address",
          "name": "user",
          "type": "address"
        }
      ],
      "name": "referredBy",
      "outputs": [
        {
          "internalType": "address",
          "name": "",
          "type": "address"
        }
      ],
      "stateMutability": "view",
      "type": "function"
    },
    {
      "inputs": [
        {
          "internalType": "uint256",
          "name": "frameKey",
          "type": "uint256"
        }
      ],
      "name": "setFrameRate",
      "outputs": [],
      "stateMutability": "nonpayable",
      "type": "function"
    },
    {
      "inputs": [
        {
          "internalType": "uint256",
          "name": "frameKey",
          "type": "uint256"
        }
      ],
      "name": "settleFrame",
      "outputs": [
        {
          "internalType": "uint256",
          "name": "",
          "type": "uint256"
        }
      ],
      "stateMutability": "nonpayable",
      "type": "function"
    },
    {
      "inputs": [],
      "name": "tSettle",
      "outputs": [
        {
          "internalType": "uint256",
          "name": "",
          "type": "uint256"
        }
      ],
      "stateMutability": "view",
      "type": "function"
    },
    {
      "inputs": [],
      "name": "taxMarket",
      "outputs": [
        {
          "internalType": "uint256",
          "name": "",
          "type": "uint256"
        }
      ],
      "stateMutability": "view",
      "type": "function"
    },
    {
      "inputs": [
        {
          "internalType": "uint256",
          "name": "timestamp",
          "type": "uint256"
        },
        {
          "internalType": "uint256",
          "name": "rate",
          "type": "uint256"
        },
        {
          "internalType": "uint256",
          "name": "acquisitionPrice",
          "type": "uint256"
        },
        {
          "internalType": "address",
          "name": "referrer",
          "type": "address"
        }
      ],
      "name": "tradeLot",
      "outputs": [],
      "stateMutability": "nonpayable",
      "type": "function"
    },
    {
      "inputs": [],
      "name": "uniswapPool",
      "outputs": [
        {
          "internalType": "contract IUniswapV3Pool",
          "name": "",
          "type": "address"
        }
      ],
      "stateMutability": "view",
      "type": "function"
    },
    {
      "inputs": [
        {
          "internalType": "address",
          "name": "user",
          "type": "address"
        }
      ],
      "name": "userExists",
      "outputs": [
        {
          "internalType": "bool",
          "name": "",
          "type": "bool"
        }
      ],
      "stateMutability": "view",
      "type": "function"
    },
    {
      "inputs": [
        {
          "internalType": "address",
          "name": "",
          "type": "address"
        }
      ],
      "name": "users",
      "outputs": [
        {
          "internalType": "bool",
          "name": "exists",
          "type": "bool"
        },
        {
          "internalType": "address",
          "name": "referredBy",
          "type": "address"
        }
      ],
      "stateMutability": "view",
      "type": "function"
    },
    {
      "inputs": [
        {
          "internalType": "uint256",
          "name": "",
          "type": "uint256"
        }
      ],
      "name": "usersArray",
      "outputs": [
        {
          "internalType": "address",
          "name": "",
          "type": "address"
        }
      ],
      "stateMutability": "view",
      "type": "function"
    },
    {
      "inputs": [
        {
          "internalType": "uint256",
          "name": "amount",
          "type": "uint256"
        }
      ],
      "name": "withdrawAccountingToken",
      "outputs": [],
      "stateMutability": "nonpayable",
      "type": "function"
    }
  ],
  "bytecode": "0x608060405262015180600055636592e180600155666a94d74f430000600255610258600355600480546001600160a01b03199081167367a9fe12fa6082d9d0203c84c6c56d3c4b269f281790915568056bc75e2d63100000600555662386f26fc1000060065560078054909116738f3cf7ad23cd3cadbd9735aff958023239c6a0631790556611c37937e0800060095534801561009b57600080fd5b50600880546001600160a01b0319163317905561461e806100bd6000396000f3fe608060405234801561001057600080fd5b50600436106102695760003560e01c806391a0846d11610151578063bdd3d825116100c3578063e107fb4f11610087578063e107fb4f1461067c578063ed320aa81461068f578063ef78d4fd14610697578063fb0d5e09146106a0578063ffdabe2d146106c0578063ffde5862146106d357600080fd5b8063bdd3d8251461061b578063c0423f2e1461062e578063d18743dd14610643578063d8d5000814610656578063da68cf8b1461066957600080fd5b8063a90f8e9a11610115578063a90f8e9a14610555578063b866debb14610586578063b93dafa914610599578063ba4e137f146105e0578063ba52f342146105e8578063bad12653146105fb57600080fd5b806391a0846d1461043c5780639592de181461044f5780639e9c4f0814610462578063a10340bc1461046b578063a87430ba1461050357600080fd5b80634c73884f116101ea5780637358c57a116101ae5780637358c57a146103cb578063773d51eb146103d45780637e996639146103f45780638a5779c8146103fd5780638da5cb5b146104065780638edc6a2c1461041957600080fd5b80634c73884f1461035c578063527eb4bc1461037c57806361eee2cb1461038557806369ca9e05146103985780636f1aefc3146103ab57600080fd5b80632457e620116102315780632457e6201461029e5780632fae35c01461030257806339a6a4891461032d5780633baf158714610340578063499a0fc41461035357600080fd5b8063050e88401461026e57806305eaab4b146102945780630d0a1c1a1461029e5780630e666e49146102be57806311235818146102fa575b600080fd5b61028161027c366004613ad9565b6106db565b6040519081526020015b60405180910390f35b61029c6106fc565b005b6102b16102ac366004613ad9565b610a56565b60405161028b9190613af2565b6102ea6102cc366004613b5b565b6001600160a01b03166000908152600c602052604090205460ff1690565b604051901515815260200161028b565b610281610abb565b610315610310366004613ad9565b610cd7565b6040516001600160a01b03909116815260200161028b565b61028161033b366004613ad9565b610d01565b61029c61034e366004613ad9565b610ece565b61028160055481565b61036f61036a366004613b7f565b61100b565b60405161028b9190613bb7565b61028160025481565b610281610393366004613ad9565b611138565b61029c6103a6366004613cd1565b61116f565b6103be6103b9366004613b7f565b61126b565b60405161028b9190613e39565b61028160015481565b6103e76103e2366004613ad9565b6113c2565b60405161028b9190613e4c565b61028160065481565b61028160035481565b600854610315906001600160a01b031681565b610281610427366004613ad9565b6000908152600a602052604090206002015490565b61028161044a366004613ef8565b6114fe565b61028161045d366004613ad9565b611563565b61028160095481565b6104c0610479366004613ad9565b600a602052600090815260409020805460018201546003830154600484015460058501546006860154600790960154949593946001600160a01b0390931693919290919087565b6040805197885260208801969096526001600160a01b03909416948601949094526060850191909152608084015260a083019190915260c082015260e00161028b565b610536610511366004613b5b565b600c6020526000908152604090205460ff81169061010090046001600160a01b031682565b6040805192151583526001600160a01b0390911660208301520161028b565b610315610563366004613b5b565b6001600160a01b039081166000908152600c602052604090205461010090041690565b610281610594366004613ad9565b61158e565b6105cb6105a7366004613b7f565b600e6020908152600092835260408084209091529082529020805460019091015482565b6040805192835260208301919091520161028b565b610281611adb565b6105cb6105f6366004613ad9565b611baa565b61060e610609366004613ad9565b611bd8565b60405161028b9190613f24565b600454610315906001600160a01b031681565b610636611c6f565b60405161028b9190613f38565b61029c610651366004613ad9565b611d80565b61029c610664366004613f9a565b611e68565b600754610315906001600160a01b031681565b61028161068a366004613b7f565b611fa6565b600b54610281565b61028160005481565b6106b36106ae366004613b7f565b612068565b60405161028b9190613fdb565b6102816106ce366004613ad9565b61211e565b600d54610281565b600b81815481106106eb57600080fd5b600091825260209091200154905081565b336000908152600c602052604090205460ff166107345760405162461bcd60e51b815260040161072b90613fee565b60405180910390fd5b600b5460009067ffffffffffffffff81111561075257610752613bd1565b60405190808252806020026020018201604052801561077b578160200160208202803683370190505b5090506000805b600b548110156108255760046107b4600b83815481106107a4576107a461401b565b9060005260206000200154611bd8565b60048111156107c5576107c5613ba1565b0361081357600b81815481106107dd576107dd61401b565b90600052602060002001548383815181106107fa576107fa61401b565b60209081029190910101528161080f81614047565b9250505b8061081d81614047565b915050610782565b506000811161086a5760405162461bcd60e51b81526020600482015260116024820152704e6f20736574746c6564206672616d657360781b604482015260640161072b565b6000805b8281101561099457336000908152600c602052604081208551600290910191908690849081106108a0576108a061401b565b602090810291909101810151825281019190915260400160009081205460ff161515900361098257336000908152600c602052604081208551600190910191908690849081106108f2576108f261401b565b6020026020010151815260200190815260200160002054826109149190614060565b91506001600c6000336001600160a01b03166001600160a01b0316815260200190815260200160002060020160008684815181106109545761095461401b565b6020026020010151815260200190815260200160002060006101000a81548160ff0219169083151502179055505b8061098c81614047565b91505061086e565b50600081116109db5760405162461bcd60e51b81526020600482015260136024820152724e6f207265776172647320746f20636c61696d60681b604482015260640161072b565b60075460405163a9059cbb60e01b8152336004820152602481018390526001600160a01b039091169063a9059cbb906044016020604051808303816000875af1158015610a2c573d6000803e3d6000fd5b505050506040513d601f19601f82011682018060405250810190610a509190614083565b50505050565b6000818152600a6020908152604091829020600201805483518184028101840190945280845260609392830182828015610aaf57602002820191906000526020600020905b815481526020019060010190808311610a9b575b50505050509050919050565b336000908152600c602052604081205460ff16610aea5760405162461bcd60e51b815260040161072b90613fee565b600b5460009067ffffffffffffffff811115610b0857610b08613bd1565b604051908082528060200260200182016040528015610b31578160200160208202803683370190505b5090506000805b600b54811015610bcb576004610b5a600b83815481106107a4576107a461401b565b6004811115610b6b57610b6b613ba1565b03610bb957600b8181548110610b8357610b8361401b565b9060005260206000200154838381518110610ba057610ba061401b565b602090810291909101015281610bb581614047565b9250505b80610bc381614047565b915050610b38565b5060008111610c105760405162461bcd60e51b81526020600482015260116024820152704e6f20736574746c6564206672616d657360781b604482015260640161072b565b6000805b82811015610ccf57336000908152600c60205260408120855160029091019190869084908110610c4657610c4661401b565b602090810291909101810151825281019190915260400160009081205460ff1615159003610cbd57336000908152600c60205260408120855160019091019190869084908110610c9857610c9861401b565b602002602001015181526020019081526020016000205482610cba9190614060565b91505b80610cc781614047565b915050610c14565b509392505050565b600d8181548110610ce757600080fd5b6000918252602090912001546001600160a01b0316905081565b600080805b6000848152600a6020526040902060020154811015610ec7576000848152600a6020818152604080842080548552600e835290842088855292909152600201805483919085908110610d5a57610d5a61401b565b90600052602060002001548152602001908152602001600020604051806060016040529081600082015481526020016001820154815260200160028201805480602002602001604051908101604052809291908181526020016000905b82821015610e285760008481526020908190206040805160c08101825260068602909201805483526001808201548486015260028201546001600160a01b03169284019290925260038101546060840152600481015460808401526005015460a08301529083529092019101610db7565b5050505081525050905060005b816040015151811015610eb25781604001518181518110610e5857610e5861401b565b60200260200101516080015184610e6f9190614060565b935081604001518181518110610e8757610e8761401b565b602002602001015160a0015184610e9e919061409e565b935080610eaa81614047565b915050610e35565b50508080610ebf90614047565b915050610d06565b5092915050565b610f0f60405180604001604052806012815260200171333930b6b2a5b2bc9015903832b934b7b21d60711b81525060005483610f0a9190614060565b612364565b610f416040518060400160405280601081526020016f313637b1b5973a34b6b2b9ba30b6b81d60811b81525042612364565b60008054828252600a6020526040909120544291610f5e91614060565b1115610fac5760405162461bcd60e51b815260206004820152601b60248201527f4672616d652068617320746f20626520696e2074686520706173740000000000604482015260640161072b565b6000610fb78261211e565b6000838152600a6020526040908190206001810183905590519192507f929af310c689982c60d4ec73c6e4b602e89c6f6a31da7c2df4888fb0627cb2b191610fff91906140e6565b60405180910390a15050565b6000828152600e60209081526040808320848452909152812060010154810361103657506000611132565b600061104184611bd8565b600481111561105257611052613ba1565b0361105f57506000611132565b600161106a84611bd8565b600481111561107b5761107b613ba1565b14806110a05750600261108d84611bd8565b600481111561109e5761109e613ba1565b145b156110ad57506001611132565b6000838152600e602090815260408083208584528252808320600190810154878552600a9093529220909101541080159061112157506005546000848152600e6020908152604080832086845290915290206001015461110d9190614060565b6000848152600a6020526040902060010154105b1561112e57506002611132565b5060035b92915050565b6000600154821161114b57505060015490565b60005460015461115b908461409e565b611165919061416e565b611132908361409e565b6008546001600160a01b031633146111d95760405162461bcd60e51b815260206004820152602760248201527f4f6e6c79206f776e65722063616e20757064617465206672616d6520636c6f736044820152666520707269636560c81b606482015260840161072b565b81516000036111fa5760405162461bcd60e51b815260040161072b90614182565b60608201516001600160a01b0316156112555760405162461bcd60e51b815260206004820181905260248201527f4672616d65207265776172642077617320616c726561647920636c61696d6564604482015260640161072b565b90516000908152600a6020526040902060010155565b61128f60405180606001604052806000815260200160008152602001606081525090565b6000838152600e6020908152604080832085845290915281206001015490036112ee5760405162461bcd60e51b8152602060048201526011602482015270131bdd08191bd95cdb89dd08195e1a5cdd607a1b604482015260640161072b565b6000838152600e602090815260408083208584528252808320815160608101835281548152600182015481850152600282018054845181870281018701865281815292969395948701949293919290919084015b828210156113b35760008481526020908190206040805160c08101825260068602909201805483526001808201548486015260028201546001600160a01b03169284019290925260038101546060840152600481015460808401526005015460a08301529083529092019101611342565b50505091525090949350505050565b61141360405180610100016040528060008152602001600081526020016060815260200160006001600160a01b03168152602001600081526020016000815260200160008152602001600081525090565b6000828152600a602052604081205490036114405760405162461bcd60e51b815260040161072b90614182565b6000828152600a602090815260409182902082516101008101845281548152600182015481840152600282018054855181860281018601875281815292959394938601938301828280156114b357602002820191906000526020600020905b81548152602001906001019080831161149f575b505050918352505060038201546001600160a01b0316602082015260048201546040820152600582015460608201526006820154608082015260079091015460a09091015292915050565b6001600160a01b0382166000908152600c602052604081205460ff166115365760405162461bcd60e51b815260040161072b90613fee565b506001600160a01b03919091166000908152600c6020908152604080832093835260019093019052205490565b600060055482101561157757505060055490565b60055461158481846141af565b61113291906141c3565b6000818152600a602052604081205481036115bb5760405162461bcd60e51b815260040161072b90614182565b60036115c683611bd8565b60048111156115d7576115d7613ba1565b146116305760405162461bcd60e51b8152602060048201526024808201527f4672616d6520646f6573206e6f742068617665206120636c6f73652072617465604482015263081cd95d60e21b606482015260840161072b565b6000828152600a602052604081206001015461164b90611563565b6000848152600e60209081526040808320848452825280832081516060810183528154815260018201548185015260028201805484518187028101870186528181529798509596919592949386019391929091879084015b828210156117145760008481526020908190206040805160c08101825260068602909201805483526001808201548486015260028201546001600160a01b03169284019290925260038101546060840152600481015460808401526005015460a083015290835290920191016116a3565b50505050815250509050600061172985610d01565b90506000670de0b6b3a76400006002548361174491906141c3565b61174e91906141af565b6000878152600a602052604090206005810182905560070154909150611774828461409e565b61177e919061409e565b6000878152600a60205260409081902060060191909155830151511561194d57600754604084015180516001600160a01b039092169163a9059cbb91906117c79060019061409e565b815181106117d7576117d761401b565b602002602001015160400151600a60008a8152602001908152602001600020600601546040518363ffffffff1660e01b815260040161182b9291906001600160a01b03929092168252602082015260400190565b6020604051808303816000875af115801561184a573d6000803e3d6000fd5b505050506040513d601f19601f8201168201806040525081019061186e9190614083565b50604083015180516118829060019061409e565b815181106118925761189261401b565b6020908102919091018101516040908101516000898152600a909352918190206003810180546001600160a01b0319166001600160a01b03948516179055600754600854600590920154925163a9059cbb60e01b81529184166004830152602482019290925291169063a9059cbb906044016020604051808303816000875af1158015611923573d6000803e3d6000fd5b505050506040513d601f19601f820116820180604052508101906119479190614083565b50611a2b565b6007546008546000888152600a6020526040902060058101546006909101546001600160a01b039384169363a9059cbb93169161198991614060565b6040516001600160e01b031960e085901b1681526001600160a01b03909216600483015260248201526044016020604051808303816000875af11580156119d4573d6000803e3d6000fd5b505050506040513d601f19601f820116820180604052508101906119f89190614083565b506008546000878152600a6020526040902060030180546001600160a01b0319166001600160a01b039092169190911790555b6000868152600a6020526040908190206001810154600490910155517f906ff162b3f2709ab28fb678d43913964434148dd206e9b17adb3c1255090cb190611a74908590613e39565b60405180910390a16000868152600a60205260409081902090517f929af310c689982c60d4ec73c6e4b602e89c6f6a31da7c2df4888fb0627cb2b191611ab9916140e6565b60405180910390a150505060009283525050600a602052604090206006015490565b6004805460408051633850c7bd60e01b8152905160009384936001600160a01b031692633850c7bd928183019260e0928290030181865afa158015611b24573d6000803e3d6000fd5b505050506040513d601f19601f82011682018060405250810190611b4891906141ec565b50505050505090506000816001600160a01b031690506000600160601b82670de0b6b3a7640000611b7991906141c3565b611b8391906141af565b9050670de0b6b3a7640000611b9882806141c3565b611ba291906141af565b949350505050565b600f8181548110611bba57600080fd5b60009182526020909120600390910201805460019091015490915082565b6000818152600a60205260408120548103611bf557506000919050565b6000828152600a60205260409020600301546001600160a01b031615611c1d57506004919050565b60008054838252600a602052604090912054611c399190614060565b421015611c4857506001919050565b6000828152600a602052604090206001015415611c6757506003919050565b506002919050565b6060600f805480602002602001604051908101604052809291908181526020016000905b82821015611d775783829060005260206000209060030201604051806060016040529081600082015481526020016001820154815260200160028201805480602002602001604051908101604052809291908181526020016000905b82821015611d605760008481526020908190206040805160c08101825260068602909201805483526001808201548486015260028201546001600160a01b03169284019290925260038101546060840152600481015460808401526005015460a08301529083529092019101611cef565b505050508152505081526020019060010190611c93565b50505050905090565b6008546001600160a01b03163314611deb5760405162461bcd60e51b815260206004820152602860248201527f4f6e6c79206f776e65722063616e207769746864726177206163636f756e74696044820152673733903a37b5b2b760c11b606482015260840161072b565b60075460085460405163a9059cbb60e01b81526001600160a01b0391821660048201526024810184905291169063a9059cbb906044016020604051808303816000875af1158015611e40573d6000803e3d6000fd5b505050506040513d601f19601f82011682018060405250810190611e649190614083565b5050565b6000611e7385611138565b90506000611e8085611563565b6000838152600e6020908152604080832084845290915281206001015491925003611ed8576000828152600a60205260408120549003611ec557611ec3866123a9565b505b611ed1828286866124e6565b5050610a50565b6000828152600e6020908152604080832084845290915290206002018054339190611f059060019061409e565b81548110611f1557611f1561401b565b60009182526020909120600260069092020101546001600160a01b031603611f4257611ed1828286612895565b611f4e82828686612cf1565b6000828152600e602090815260408083208484529091529081902090517f906ff162b3f2709ab28fb678d43913964434148dd206e9b17adb3c1255090cb191611f9691614286565b60405180910390a1505050505050565b60004260005484611fb79190614060565b116120045760405162461bcd60e51b815260206004820152601d60248201527f4672616d652068617320746f20626520696e2074686520667574757265000000604482015260640161072b565b6000805460065461201591906141af565b9050600042600054866120289190614060565b612032919061409e565b90506000670de0b6b3a76400008561204a85856141c3565b61205491906141c3565b61205e91906141af565b9695505050505050565b6000828152600e602090815260408083208484528252808320600201805482518185028101850190935280835260609492939192909184015b828210156121125760008481526020908190206040805160c08101825260068602909201805483526001808201548486015260028201546001600160a01b03169284019290925260038101546060840152600481015460808401526005015460a083015290835290920191016120a1565b50505050905092915050565b6000806003548342612130919061409e565b61213a9190614060565b90506000612148844261409e565b604080516002808252606082018352929350600092909160208301908036833701905050905082816000815181106121825761218261401b565b602002602001019063ffffffff16908163ffffffff168152505081816001815181106121b0576121b061401b565b63ffffffff909216602092830291909101909101526004805460405163883bdbfd60e01b81526000926001600160a01b039092169163883bdbfd916121f791869101614334565b600060405180830381865afa158015612214573d6000803e3d6000fd5b505050506040513d6000823e601f3d908101601f1916820160405261223c91908101906143d6565b5090506000816000815181106122545761225461401b565b602002602001015160060b826001815181106122725761227261401b565b602002602001015160060b61228791906144a2565b905060008112156122d05760405162461bcd60e51b81526020600482015260136024820152724e65676174697665207469636b2064656c746160681b604482015260640161072b565b8060006122e663ffffffff80881690891661409e565b905060006122f482846141af565b90506000612301826132a3565b9050600061231f66010000000000006001600160a01b0384166141af565b9050600061232d82806141c3565b90506000600160601b61234883670de0b6b3a76400006141c3565b61235291906141af565b9e9d5050505050505050505050505050565b611e64828260405160240161237a9291906144c2565b60408051601f198184030181529190526020810180516001600160e01b0316632d839cb360e21b179052613686565b6000806123b583611138565b6000818152600a60205260409020549091501561240b5760405162461bcd60e51b81526020600482015260146024820152734672616d6520616c72656164792065786973747360601b604482015260640161072b565b426000548261241a9190614060565b10156124685760405162461bcd60e51b815260206004820152601d60248201527f4672616d652068617320746f20626520696e2074686520667574757265000000604482015260640161072b565b6000818152600a602052604090819020828155600b8054600181019091557f0175b7a638427703f0dbe7bb9bbf987a2551717b34e79f33b5b1008d1fa01db90183905590517f929af310c689982c60d4ec73c6e4b602e89c6f6a31da7c2df4888fb0627cb2b1916124d8916140e6565b60405180910390a192915050565b60006124f28584611fa6565b9050600081116125145760405162461bcd60e51b815260040161072b90614517565b600754604051636eb1769f60e11b815233600482015230602482015282916001600160a01b03169063dd62ed3e90604401602060405180830381865afa158015612562573d6000803e3d6000fd5b505050506040513d601f19601f820116820180604052508101906125869190614574565b10156125a45760405162461bcd60e51b815260040161072b9061458d565b6000858152600e60209081526040808320878452909152902060010154156126035760405162461bcd60e51b81526020600482015260126024820152714c6f7420616c72656164792065786973747360701b604482015260640161072b565b6040805160c081018252438152426020808301918252338385019081526060840188815260808501878152600060a087018181528d8252600e86528882208d835286529781208d815560018082018e90556002808301805480840182558186529885208b516006909a0201988955985191880191909155945194860180546001600160a01b0319166001600160a01b0390961695909517909455915160038501555160048401559451600590920191909155928790528054919291829182916126ce919081906139f3565b5050600f80546001808201835560009290925283547f8d1108e10bcb7c27dddfc02ed9d693a074039d026cf4ea4240b40f7d581ac8026003909202918201908155918401547f8d1108e10bcb7c27dddfc02ed9d693a074039d026cf4ea4240b40f7d581ac80382015560028401805485945061276d927f8d1108e10bcb7c27dddfc02ed9d693a074039d026cf4ea4240b40f7d581ac8040191906139f3565b5050506000878152600a602090815260408083206001808601546002909201805491820181558552929093209091019190915560075490516323b872dd60e01b81526001600160a01b03909116906323b872dd906127d3903390309088906004016145c4565b6020604051808303816000875af11580156127f2573d6000803e3d6000fd5b505050506040513d601f19601f820116820180604052508101906128169190614083565b50336000908152600c602052604090205460ff166128375761283784613692565b336000908152600c60205260408082205461010090046001600160a01b0316825290205460ff161561288c57336000908152600c602052604090205461288c9061010090046001600160a01b0316848961384f565b50505050505050565b6000838152600e60209081526040808320858452909152812060020180546128ec9186916128c59060019061409e565b815481106128d5576128d561401b565b906000526020600020906006020160030154611fa6565b905060006128fa8584611fa6565b905080821115612adf576000612910828461409e565b6007546000888152600e602090815260408083208a8452909152902060020180549293506001600160a01b039091169163a9059cbb91906129539060019061409e565b815481106129635761296361401b565b600091825260209091206006909102016002015460405160e083901b6001600160e01b03191681526001600160a01b039091166004820152602481018490526044016020604051808303816000875af11580156129c4573d6000803e3d6000fd5b505050506040513d601f19601f820116820180604052508101906129e89190614083565b506000868152600e602090815260408083208884528252808320815160c0810183524381524281850190815233828501818152606084018c81526080850189815260a086018b81526002978801805460018082018355918d528b8d2098516006909102909801978855955195870195909555915195850180546001600160a01b0319166001600160a01b0397881617905551600385015551600484015590516005909201919091558452600c909252808320546101009004909116825290205460ff1615612ad957336000908152600c6020526040902054612ad99061010090046001600160a01b03168288613916565b50612cea565b6000612aeb838361409e565b600754604051636eb1769f60e11b815233600482015230602482015291925082916001600160a01b039091169063dd62ed3e90604401602060405180830381865afa158015612b3e573d6000803e3d6000fd5b505050506040513d601f19601f82011682018060405250810190612b629190614574565b1015612b805760405162461bcd60e51b815260040161072b9061458d565b6007546040516323b872dd60e01b81526001600160a01b03909116906323b872dd90612bb4903390309086906004016145c4565b6020604051808303816000875af1158015612bd3573d6000803e3d6000fd5b505050506040513d601f19601f82011682018060405250810190612bf79190614083565b506000868152600e602090815260408083208884528252808320815160c0810183524381524281850190815233828501818152606084018c8152608085018a815260a086018a81526002978801805460018082018355918d528b8d2098516006909102909801978855955195870195909555915195850180546001600160a01b0319166001600160a01b0397881617905551600385015551600484015590516005909201919091558452600c909252808320546101009004909116825290205460ff1615612ce857336000908152600c6020526040902054612ce89061010090046001600160a01b0316828861384f565b505b5050505050565b6000848152600e6020908152604080832086845290915281206002018054612d1b9060019061409e565b81548110612d2b57612d2b61401b565b600091825260208220600260069092020101546001600160a01b03169150612d538685611fa6565b905060008111612d755760405162461bcd60e51b815260040161072b90614517565b6000868152600e6020908152604080832088845290915281206002018054612d9f9060019061409e565b81548110612daf57612daf61401b565b90600052602060002090600602016003015490508082612dcf9190614060565b600754604051636eb1769f60e11b81523360048201523060248201526001600160a01b039091169063dd62ed3e90604401602060405180830381865afa158015612e1d573d6000803e3d6000fd5b505050506040513d601f19601f82011682018060405250810190612e419190614574565b1015612e5f5760405162461bcd60e51b815260040161072b9061458d565b6007546040516323b872dd60e01b81526001600160a01b03909116906323b872dd90612e93903390309087906004016145c4565b6020604051808303816000875af1158015612eb2573d6000803e3d6000fd5b505050506040513d601f19601f82011682018060405250810190612ed69190614083565b506007546040516323b872dd60e01b81526001600160a01b03909116906323b872dd90612f0b903390879086906004016145c4565b6020604051808303816000875af1158015612f2a573d6000803e3d6000fd5b505050506040513d601f19601f82011682018060405250810190612f4e9190614083565b506000878152600e6020908152604080832089845290915281206002018054612f7f918a916128c59060019061409e565b60075460405163a9059cbb60e01b81526001600160a01b0387811660048301526024820184905292935091169063a9059cbb906044016020604051808303816000875af1158015612fd4573d6000803e3d6000fd5b505050506040513d601f19601f82011682018060405250810190612ff89190614083565b50336000908152600c602052604090205460ff166130195761301985613692565b336000908152600c60205260408082205461010090046001600160a01b0316825290205460ff161561306e57336000908152600c602052604090205461306e9061010090046001600160a01b0316848a61384f565b6001600160a01b038085166000908152600c60205260408082205461010090049092168152205460ff16156130c9576001600160a01b038085166000908152600c60205260409020546130c99161010090910416828a613916565b600e600089815260200190815260200160002060008881526020019081526020016000206002016040518060c00160405280438152602001428152602001866001600160a01b0316815260200184815260200160008152602001838152509080600181540180825580915050600190039060005260206000209060060201600090919091909150600082015181600001556020820151816001015560408201518160020160006101000a8154816001600160a01b0302191690836001600160a01b03160217905550606082015181600301556080820151816004015560a082015181600501555050600e600089815260200190815260200160002060008881526020019081526020016000206002016040518060c00160405280438152602001428152602001336001600160a01b0316815260200188815260200185815260200160008152509080600181540180825580915050600190039060005260206000209060060201600090919091909150600082015181600001556020820151816001015560408201518160020160006101000a8154816001600160a01b0302191690836001600160a01b03160217905550606082015181600301556080820151816004015560a0820151816005015550505050505050505050565b600081620d89e88111156132dd5760405162461bcd60e51b81526020600482015260016024820152601560fa1b604482015260640161072b565b6000816001166000036132f457600160801b613306565b6ffffcb933bd6fad37aa2d162d1a5940015b70ffffffffffffffffffffffffffffffffff1690506002821615613345576080613340826ffff97272373d413259a46990580e213a6141c3565b901c90505b600482161561336f57608061336a826ffff2e50f5f656932ef12357cf3c7fdcc6141c3565b901c90505b6008821615613399576080613394826fffe5caca7e10e4e61c3624eaa0941cd06141c3565b901c90505b60108216156133c35760806133be826fffcb9843d60f6159c9db58835c9266446141c3565b901c90505b60208216156133ed5760806133e8826fff973b41fa98c081472e6896dfb254c06141c3565b901c90505b6040821615613417576080613412826fff2ea16466c96a3843ec78b326b528616141c3565b901c90505b608082161561344157608061343c826ffe5dee046a99a2a811c461f1969c30536141c3565b901c90505b61010082161561346c576080613467826ffcbe86c7900a88aedcffc83b479aa3a46141c3565b901c90505b610200821615613497576080613492826ff987a7253ac413176f2b074cf7815e546141c3565b901c90505b6104008216156134c25760806134bd826ff3392b0822b70005940c7a398e4b70f36141c3565b901c90505b6108008216156134ed5760806134e8826fe7159475a2c29b7443b29c7fa6e889d96141c3565b901c90505b611000821615613518576080613513826fd097f3bdfd2022b8845ad8f792aa58256141c3565b901c90505b61200082161561354357608061353e826fa9f746462d870fdf8a65dc1f90e061e56141c3565b901c90505b61400082161561356e576080613569826f70d869a156d2a1b890bb3df62baf32f76141c3565b901c90505b618000821615613599576080613594826f31be135f97d08fd981231505542fcfa66141c3565b901c90505b620100008216156135c55760806135c0826f09aa508b5b7a84e1c677de54f3e99bc96141c3565b901c90505b620200008216156135f05760806135eb826e5d6af8dedb81196699c329225ee6046141c3565b901c90505b6204000082161561361a576080613615826d2216e584f5fa1ea926041bedfe986141c3565b901c90505b6208000082161561364257608061363d826b048a170391f7dc42444e8fa26141c3565b901c90505b831561365757613654816000196141af565b90505b6136666401000000008261416e565b15613672576001613675565b60005b611ba29060ff16602083901c614060565b61368f816139d2565b50565b336000908152600c602052604090205460ff16156136e85760405162461bcd60e51b81526020600482015260136024820152725573657220616c72656164792065786973747360681b604482015260640161072b565b6001600160a01b03811661377157336000818152600c6020526040812080546001600160a01b0394909416610100026001600160a81b0319909416939093176001908117909355600d8054938401815590527fd7b6990105719101dabeb77144f2a3385c8033acd3af97e9423a695e81ad1eb590910180546001600160a01b0319169091179055565b6001600160a01b0381166000908152600c602052604090205460ff166137d95760405162461bcd60e51b815260206004820152601760248201527f526566657272657220646f6573206e6f74206578697374000000000000000000604482015260640161072b565b600d805460018181019092557fd7b6990105719101dabeb77144f2a3385c8033acd3af97e9423a695e81ad1eb50180546001600160a01b031916339081179091556000908152600c6020526040902080546001600160a01b0393909316610100026001600160a81b031990931692909217179055565b6001600160a01b0383166000908152600c602052604090205460ff166138875760405162461bcd60e51b815260040161072b90613fee565b6000670de0b6b3a7640000600954846138a091906141c3565b6138aa91906141af565b6001600160a01b0385166000908152600c602090815260408083208684526001019091528120805492935083929091906138e5908490614060565b90915550506000828152600a60205260408120600701805483929061390b908490614060565b909155505050505050565b6001600160a01b0383166000908152600c602052604090205460ff1661394e5760405162461bcd60e51b815260040161072b90613fee565b6000670de0b6b3a76400006009548461396791906141c3565b61397191906141af565b6001600160a01b0385166000908152600c602090815260408083208684526001019091528120805492935083929091906139ac90849061409e565b90915550506000828152600a60205260408120600701805483929061390b90849061409e565b60006a636f6e736f6c652e6c6f679050600080835160208501845afa505050565b828054828255906000526020600020906006028101928215613a875760005260206000209160060282015b82811115613a8757825482556001808401549083015560028084015490830180546001600160a01b0319166001600160a01b0390921691909117905560038084015490830155600480840154908301556005808401549083015560069283019290910190613a1e565b50613a93929150613a97565b5090565b5b80821115613a93576000808255600182018190556002820180546001600160a01b031916905560038201819055600482018190556005820155600601613a98565b600060208284031215613aeb57600080fd5b5035919050565b6020808252825182820181905260009190848201906040850190845b81811015613b2a57835183529284019291840191600101613b0e565b50909695505050505050565b6001600160a01b038116811461368f57600080fd5b8035613b5681613b36565b919050565b600060208284031215613b6d57600080fd5b8135613b7881613b36565b9392505050565b60008060408385031215613b9257600080fd5b50508035926020909101359150565b634e487b7160e01b600052602160045260246000fd5b6020810160048310613bcb57613bcb613ba1565b91905290565b634e487b7160e01b600052604160045260246000fd5b604051610100810167ffffffffffffffff81118282101715613c0b57613c0b613bd1565b60405290565b604051601f8201601f1916810167ffffffffffffffff81118282101715613c3a57613c3a613bd1565b604052919050565b600067ffffffffffffffff821115613c5c57613c5c613bd1565b5060051b60200190565b600082601f830112613c7757600080fd5b81356020613c8c613c8783613c42565b613c11565b82815260059290921b84018101918181019086841115613cab57600080fd5b8286015b84811015613cc65780358352918301918301613caf565b509695505050505050565b60008060408385031215613ce457600080fd5b823567ffffffffffffffff80821115613cfc57600080fd5b908401906101008287031215613d1157600080fd5b613d19613be7565b8235815260208301356020820152604083013582811115613d3957600080fd5b613d4588828601613c66565b604083015250613d5760608401613b4b565b60608201526080830135608082015260a083013560a082015260c083013560c082015260e083013560e0820152809450505050602083013590509250929050565b600081518084526020808501945080840160005b83811015613e055781518051885283810151848901526040808201516001600160a01b031690890152606080820151908901526080808201519089015260a0908101519088015260c09096019590820190600101613dac565b509495945050505050565b80518252602081015160208301526000604082015160606040850152611ba26060850182613d98565b602081526000613b786020830184613e10565b6000602080835261012083018451828501528185015160408501526040850151610100806060870152828251808552610140880191508584019450600093505b80841015613eac5784518252938501936001939093019290850190613e8c565b5060608801516001600160a01b03811660808901529450608088015160a088015260a088015160c088015260c088015160e088015260e088015182880152809550505050505092915050565b60008060408385031215613f0b57600080fd5b8235613f1681613b36565b946020939093013593505050565b6020810160058310613bcb57613bcb613ba1565b6000602080830181845280855180835260408601915060408160051b870101925083870160005b82811015613f8d57603f19888603018452613f7b858351613e10565b94509285019290850190600101613f5f565b5092979650505050505050565b60008060008060808587031215613fb057600080fd5b8435935060208501359250604085013591506060850135613fd081613b36565b939692955090935050565b602081526000613b786020830184613d98565b602080825260139082015272155cd95c88191bd95cc81b9bdd08195e1a5cdd606a1b604082015260600190565b634e487b7160e01b600052603260045260246000fd5b634e487b7160e01b600052601160045260246000fd5b60006001820161405957614059614031565b5060010190565b8082018082111561113257611132614031565b80518015158114613b5657600080fd5b60006020828403121561409557600080fd5b613b7882614073565b8181038181111561113257611132614031565b6000815480845260208085019450836000528060002060005b83811015613e05578154875295820195600191820191016140ca565b60208152815460208201526001820154604082015260006101008060608401526141176101208401600286016140b1565b60038501546001600160a01b03166080850152600485015460a0850152600585015460c0850152600685015460e08501526007909401549201919091525090565b634e487b7160e01b600052601260045260246000fd5b60008261417d5761417d614158565b500690565b602080825260139082015272119c985b5948191bd95cdb89dd08195e1a5cdd606a1b604082015260600190565b6000826141be576141be614158565b500490565b808202811582820484141761113257611132614031565b805161ffff81168114613b5657600080fd5b600080600080600080600060e0888a03121561420757600080fd5b875161421281613b36565b8097505060208801518060020b811461422a57600080fd5b9550614238604089016141da565b9450614246606089016141da565b9350614254608089016141da565b925060a088015160ff8116811461426a57600080fd5b915061427860c08901614073565b905092959891949750929550565b6000602080835260808084018554838601526001808701546040818189015260029150818901606080818b015285825480885260a09750878c0191508360005289600020935060005b818110156143225784548352878501548b840152868501546001600160a01b03168684015260038501548484015260048501548a84015260058501548984015260069094019360c09092019187016142cf565b50909c9b505050505050505050505050565b6020808252825182820181905260009190848201906040850190845b81811015613b2a57835163ffffffff1683529284019291840191600101614350565b600082601f83011261438357600080fd5b81516020614393613c8783613c42565b82815260059290921b840181019181810190868411156143b257600080fd5b8286015b84811015613cc65780516143c981613b36565b83529183019183016143b6565b600080604083850312156143e957600080fd5b825167ffffffffffffffff8082111561440157600080fd5b818501915085601f83011261441557600080fd5b81516020614425613c8783613c42565b82815260059290921b8401810191818101908984111561444457600080fd5b948201945b838610156144725785518060060b81146144635760008081fd5b82529482019490820190614449565b9188015191965090935050508082111561448b57600080fd5b5061449885828601614372565b9150509250929050565b8181036000831280158383131683831282161715610ec757610ec7614031565b604081526000835180604084015260005b818110156144f057602081870181015160608684010152016144d3565b506000606082850101526060601f19601f8301168401019150508260208301529392505050565b6020808252603c908201527f5461782068617320746f2062652067726561746572207468616e20302e20496e60408201527f63726561736520746865206163717569736974696f6e20707269636500000000606082015260800190565b60006020828403121561458657600080fd5b5051919050565b6020808252601e908201527f416c6c6f77616e636520746f207370656e642073657420746f6f206c6f770000604082015260600190565b6001600160a01b03938416815291909216602082015260408101919091526060019056fea26469706673582212208656c639896fcf84c4261977023b34716d154bf621ffed4605a84d9a6b98b85e64736f6c63430008140033",
  "linkReferences": {},
  "deployedLinkReferences": {}
}