{
  "_format": "hh-sol-artifact-1",
  "contractName": "Market",
  "sourceName": "contracts/Market.sol",
  "abi": [
    {
      "inputs": [
        {
          "internalType": "contract MarketFactory",
          "name": "_factory",
          "type": "address"
        },
        {
          "internalType": "contract IERC20",
          "name": "_token",
          "type": "address"
        },
        {
          "internalType": "contract IUniswapV2Pair",
          "name": "_uniswapPair",
          "type": "address"
        },
        {
          "internalType": "uint256",
          "name": "_period",
          "type": "uint256"
        },
        {
          "internalType": "uint256",
          "name": "_initTimestamp",
          "type": "uint256"
        },
        {
          "internalType": "uint256",
          "name": "_taxMarket",
          "type": "uint256"
        },
        {
          "internalType": "uint256",
          "name": "_feeMarket",
          "type": "uint256"
        },
        {
          "internalType": "uint256",
          "name": "_dPrice",
          "type": "uint256"
        },
        {
          "internalType": "uint256",
          "name": "_tReporting",
          "type": "uint256"
        },
        {
          "internalType": "uint256",
          "name": "_minTax",
          "type": "uint256"
        },
        {
          "internalType": "bool",
          "name": "_avgPriceSwitch",
          "type": "bool"
        }
      ],
      "stateMutability": "nonpayable",
      "type": "constructor"
    },
    {
      "anonymous": false,
      "inputs": [
        {
          "indexed": false,
          "internalType": "uint256",
          "name": "frameKey",
          "type": "uint256"
        },
        {
          "indexed": false,
          "internalType": "uint256",
          "name": "oracleTimestampStart",
          "type": "uint256"
        },
        {
          "indexed": false,
          "internalType": "uint256",
          "name": "oracleTimestampEnd",
          "type": "uint256"
        },
        {
          "indexed": false,
          "internalType": "uint256",
          "name": "oraclePrice0CumulativeStart",
          "type": "uint256"
        },
        {
          "indexed": false,
          "internalType": "uint256",
          "name": "oraclePrice0CumulativeEnd",
          "type": "uint256"
        },
        {
          "indexed": false,
          "internalType": "uint256",
          "name": "oraclePrice1CumulativeStart",
          "type": "uint256"
        },
        {
          "indexed": false,
          "internalType": "uint256",
          "name": "oraclePrice1CumulativeEnd",
          "type": "uint256"
        },
        {
          "indexed": false,
          "internalType": "uint256",
          "name": "rewardFund",
          "type": "uint256"
        }
      ],
      "name": "FrameUpdate",
      "type": "event"
    },
    {
      "anonymous": false,
      "inputs": [
        {
          "indexed": false,
          "internalType": "uint256",
          "name": "frameKey",
          "type": "uint256"
        },
        {
          "components": [
            {
              "internalType": "uint256",
              "name": "frameKey",
              "type": "uint256"
            },
            {
              "internalType": "uint256",
              "name": "lotKey",
              "type": "uint256"
            },
            {
              "internalType": "address",
              "name": "lotOwner",
              "type": "address"
            },
            {
              "internalType": "uint256",
              "name": "acquisitionPrice",
              "type": "uint256"
            },
            {
              "internalType": "enum MLib.SLot",
              "name": "state",
              "type": "uint8"
            }
          ],
          "indexed": false,
          "internalType": "struct MLib.Lot",
          "name": "lotStruct",
          "type": "tuple"
        }
      ],
      "name": "LotUpdate",
      "type": "event"
    },
    {
      "inputs": [
        {
          "internalType": "uint256",
          "name": "frameKey",
          "type": "uint256"
        },
        {
          "internalType": "uint256",
          "name": "avgPrice",
          "type": "uint256"
        }
      ],
      "name": "UpdateAvgPrice",
      "outputs": [],
      "stateMutability": "nonpayable",
      "type": "function"
    },
    {
      "inputs": [],
      "name": "accountingToken",
      "outputs": [
        {
          "internalType": "contract IERC20",
          "name": "",
          "type": "address"
        }
      ],
      "stateMutability": "view",
      "type": "function"
    },
    {
      "inputs": [],
      "name": "avgPriceSwitch",
      "outputs": [
        {
          "internalType": "bool",
          "name": "",
          "type": "bool"
        }
      ],
      "stateMutability": "view",
      "type": "function"
    },
    {
      "inputs": [
        {
          "internalType": "uint256",
          "name": "timestamp",
          "type": "uint256"
        },
        {
          "internalType": "uint256",
          "name": "pairPrice",
          "type": "uint256"
        },
        {
          "internalType": "uint256",
          "name": "acqPrice",
          "type": "uint256"
        }
      ],
      "name": "buyLot",
      "outputs": [],
      "stateMutability": "nonpayable",
      "type": "function"
    },
    {
      "inputs": [
        {
          "internalType": "uint256",
          "name": "frameKey",
          "type": "uint256"
        }
      ],
      "name": "claimReward",
      "outputs": [],
      "stateMutability": "nonpayable",
      "type": "function"
    },
    {
      "inputs": [
        {
          "internalType": "uint256",
          "name": "timestamp",
          "type": "uint256"
        }
      ],
      "name": "clcFrameTimestamp",
      "outputs": [
        {
          "internalType": "uint256",
          "name": "",
          "type": "uint256"
        }
      ],
      "stateMutability": "view",
      "type": "function"
    },
    {
      "inputs": [
        {
          "internalType": "uint256",
          "name": "value",
          "type": "uint256"
        }
      ],
      "name": "clcLotKey",
      "outputs": [
        {
          "internalType": "uint256",
          "name": "",
          "type": "uint256"
        }
      ],
      "stateMutability": "view",
      "type": "function"
    },
    {
      "inputs": [
        {
          "internalType": "uint256",
          "name": "frameKey",
          "type": "uint256"
        },
        {
          "internalType": "uint256",
          "name": "acquisitionPrice",
          "type": "uint256"
        }
      ],
      "name": "clcTax",
      "outputs": [
        {
          "internalType": "uint256",
          "name": "tax",
          "type": "uint256"
        }
      ],
      "stateMutability": "view",
      "type": "function"
    },
    {
      "inputs": [],
      "name": "dPrice",
      "outputs": [
        {
          "internalType": "uint256",
          "name": "",
          "type": "uint256"
        }
      ],
      "stateMutability": "view",
      "type": "function"
    },
    {
      "inputs": [
        {
          "internalType": "uint256",
          "name": "amount",
          "type": "uint256"
        }
      ],
      "name": "emptyFunds",
      "outputs": [],
      "stateMutability": "nonpayable",
      "type": "function"
    },
    {
      "inputs": [],
      "name": "factory",
      "outputs": [
        {
          "internalType": "contract MarketFactory",
          "name": "",
          "type": "address"
        }
      ],
      "stateMutability": "view",
      "type": "function"
    },
    {
      "inputs": [],
      "name": "feeMarket",
      "outputs": [
        {
          "internalType": "uint256",
          "name": "",
          "type": "uint256"
        }
      ],
      "stateMutability": "view",
      "type": "function"
    },
    {
      "inputs": [],
      "name": "feeProtocol",
      "outputs": [
        {
          "internalType": "uint256",
          "name": "",
          "type": "uint256"
        }
      ],
      "stateMutability": "view",
      "type": "function"
    },
    {
      "inputs": [
        {
          "internalType": "uint256",
          "name": "",
          "type": "uint256"
        }
      ],
      "name": "frames",
      "outputs": [
        {
          "internalType": "uint256",
          "name": "frameKey",
          "type": "uint256"
        },
        {
          "internalType": "uint256",
          "name": "oracleTimestampStart",
          "type": "uint256"
        },
        {
          "internalType": "uint256",
          "name": "oracleTimestampEnd",
          "type": "uint256"
        },
        {
          "internalType": "uint256",
          "name": "rewardFund",
          "type": "uint256"
        },
        {
          "internalType": "uint256",
          "name": "priceAverage",
          "type": "uint256"
        },
        {
          "internalType": "uint256",
          "name": "oraclePrice0CumulativeStart",
          "type": "uint256"
        },
        {
          "internalType": "uint256",
          "name": "oraclePrice0CumulativeEnd",
          "type": "uint256"
        },
        {
          "internalType": "uint256",
          "name": "oraclePrice1CumulativeStart",
          "type": "uint256"
        },
        {
          "internalType": "uint256",
          "name": "oraclePrice1CumulativeEnd",
          "type": "uint256"
        },
        {
          "internalType": "enum MLib.SFrame",
          "name": "state",
          "type": "uint8"
        }
      ],
      "stateMutability": "view",
      "type": "function"
    },
    {
      "inputs": [
        {
          "internalType": "uint256",
          "name": "",
          "type": "uint256"
        }
      ],
      "name": "framesKeys",
      "outputs": [
        {
          "internalType": "uint256",
          "name": "",
          "type": "uint256"
        }
      ],
      "stateMutability": "view",
      "type": "function"
    },
    {
      "inputs": [
        {
          "internalType": "uint256",
          "name": "frameKey",
          "type": "uint256"
        }
      ],
      "name": "getFrame",
      "outputs": [
        {
          "components": [
            {
              "internalType": "uint256",
              "name": "frameKey",
              "type": "uint256"
            },
            {
              "internalType": "uint256",
              "name": "oracleTimestampStart",
              "type": "uint256"
            },
            {
              "internalType": "uint256",
              "name": "oracleTimestampEnd",
              "type": "uint256"
            },
            {
              "internalType": "uint256",
              "name": "rewardFund",
              "type": "uint256"
            },
            {
              "internalType": "uint256",
              "name": "priceAverage",
              "type": "uint256"
            },
            {
              "internalType": "uint256",
              "name": "oraclePrice0CumulativeStart",
              "type": "uint256"
            },
            {
              "internalType": "uint256",
              "name": "oraclePrice0CumulativeEnd",
              "type": "uint256"
            },
            {
              "internalType": "uint256",
              "name": "oraclePrice1CumulativeStart",
              "type": "uint256"
            },
            {
              "internalType": "uint256",
              "name": "oraclePrice1CumulativeEnd",
              "type": "uint256"
            },
            {
              "internalType": "enum MLib.SFrame",
              "name": "state",
              "type": "uint8"
            },
            {
              "internalType": "uint256[]",
              "name": "lotKeys",
              "type": "uint256[]"
            }
          ],
          "internalType": "struct MLib.Frame",
          "name": "",
          "type": "tuple"
        }
      ],
      "stateMutability": "view",
      "type": "function"
    },
    {
      "inputs": [
        {
          "internalType": "uint256",
          "name": "frameKey",
          "type": "uint256"
        },
        {
          "internalType": "uint256",
          "name": "lotKey",
          "type": "uint256"
        }
      ],
      "name": "getLot",
      "outputs": [
        {
          "components": [
            {
              "internalType": "uint256",
              "name": "frameKey",
              "type": "uint256"
            },
            {
              "internalType": "uint256",
              "name": "lotKey",
              "type": "uint256"
            },
            {
              "internalType": "address",
              "name": "lotOwner",
              "type": "address"
            },
            {
              "internalType": "uint256",
              "name": "acquisitionPrice",
              "type": "uint256"
            },
            {
              "internalType": "enum MLib.SLot",
              "name": "state",
              "type": "uint8"
            }
          ],
          "internalType": "struct MLib.Lot",
          "name": "",
          "type": "tuple"
        }
      ],
      "stateMutability": "view",
      "type": "function"
    },
    {
      "inputs": [
        {
          "internalType": "uint256",
          "name": "frameKey",
          "type": "uint256"
        }
      ],
      "name": "getLotKeys",
      "outputs": [
        {
          "internalType": "uint256[]",
          "name": "",
          "type": "uint256[]"
        }
      ],
      "stateMutability": "view",
      "type": "function"
    },
    {
      "inputs": [],
      "name": "getNumberOfFrameKeys",
      "outputs": [
        {
          "internalType": "uint256",
          "name": "",
          "type": "uint256"
        }
      ],
      "stateMutability": "view",
      "type": "function"
    },
    {
      "inputs": [
        {
          "internalType": "uint256",
          "name": "frameKey",
          "type": "uint256"
        }
      ],
      "name": "getRewardAmount",
      "outputs": [
        {
          "internalType": "uint256",
          "name": "",
          "type": "uint256"
        }
      ],
      "stateMutability": "view",
      "type": "function"
    },
    {
      "inputs": [
        {
          "internalType": "address",
          "name": "user",
          "type": "address"
        }
      ],
      "name": "getUserFrames",
      "outputs": [
        {
          "internalType": "uint256[]",
          "name": "",
          "type": "uint256[]"
        }
      ],
      "stateMutability": "view",
      "type": "function"
    },
    {
      "inputs": [
        {
          "internalType": "uint256",
          "name": "frameKey",
          "type": "uint256"
        }
      ],
      "name": "hasValidPrices",
      "outputs": [],
      "stateMutability": "view",
      "type": "function"
    },
    {
      "inputs": [],
      "name": "initTimestamp",
      "outputs": [
        {
          "internalType": "uint256",
          "name": "",
          "type": "uint256"
        }
      ],
      "stateMutability": "view",
      "type": "function"
    },
    {
      "inputs": [
        {
          "internalType": "uint256",
          "name": "",
          "type": "uint256"
        },
        {
          "internalType": "uint256",
          "name": "",
          "type": "uint256"
        }
      ],
      "name": "lots",
      "outputs": [
        {
          "internalType": "uint256",
          "name": "frameKey",
          "type": "uint256"
        },
        {
          "internalType": "uint256",
          "name": "lotKey",
          "type": "uint256"
        },
        {
          "internalType": "address",
          "name": "lotOwner",
          "type": "address"
        },
        {
          "internalType": "uint256",
          "name": "acquisitionPrice",
          "type": "uint256"
        },
        {
          "internalType": "enum MLib.SLot",
          "name": "state",
          "type": "uint8"
        }
      ],
      "stateMutability": "view",
      "type": "function"
    },
    {
      "inputs": [],
      "name": "minTax",
      "outputs": [
        {
          "internalType": "uint256",
          "name": "",
          "type": "uint256"
        }
      ],
      "stateMutability": "view",
      "type": "function"
    },
    {
      "inputs": [],
      "name": "ownerMarket",
      "outputs": [
        {
          "internalType": "address",
          "name": "",
          "type": "address"
        }
      ],
      "stateMutability": "view",
      "type": "function"
    },
    {
      "inputs": [],
      "name": "period",
      "outputs": [
        {
          "internalType": "uint256",
          "name": "",
          "type": "uint256"
        }
      ],
      "stateMutability": "view",
      "type": "function"
    },
    {
      "inputs": [],
      "name": "scalar",
      "outputs": [
        {
          "internalType": "uint256",
          "name": "",
          "type": "uint256"
        }
      ],
      "stateMutability": "view",
      "type": "function"
    },
    {
      "inputs": [],
      "name": "tReporting",
      "outputs": [
        {
          "internalType": "uint256",
          "name": "",
          "type": "uint256"
        }
      ],
      "stateMutability": "view",
      "type": "function"
    },
    {
      "inputs": [],
      "name": "taxMarket",
      "outputs": [
        {
          "internalType": "uint256",
          "name": "",
          "type": "uint256"
        }
      ],
      "stateMutability": "view",
      "type": "function"
    },
    {
      "inputs": [],
      "name": "uniswapPair",
      "outputs": [
        {
          "internalType": "contract IUniswapV2Pair",
          "name": "",
          "type": "address"
        }
      ],
      "stateMutability": "view",
      "type": "function"
    },
    {
      "inputs": [],
      "name": "updateFramePrices",
      "outputs": [],
      "stateMutability": "nonpayable",
      "type": "function"
    },
    {
      "inputs": [
        {
          "internalType": "uint256",
          "name": "timestamp",
          "type": "uint256"
        },
        {
          "internalType": "uint256",
          "name": "pairPrice",
          "type": "uint256"
        },
        {
          "internalType": "uint256",
          "name": "acqPrice",
          "type": "uint256"
        }
      ],
      "name": "updateLotPrice",
      "outputs": [],
      "stateMutability": "nonpayable",
      "type": "function"
    },
    {
      "inputs": [
        {
          "internalType": "address",
          "name": "",
          "type": "address"
        },
        {
          "internalType": "uint256",
          "name": "",
          "type": "uint256"
        }
      ],
      "name": "userFrames",
      "outputs": [
        {
          "internalType": "uint256",
          "name": "",
          "type": "uint256"
        }
      ],
      "stateMutability": "view",
      "type": "function"
    }
  ],
  "bytecode": "0x608060405260646002556000600c60006101000a81548160ff02191690831515021790555069d3c21bcecceda1000000600d553480156200003f57600080fd5b5060405162004e0038038062004e00833981810160405281019062000065919062000238565b89600960006101000a81548173ffffffffffffffffffffffffffffffffffffffff021916908373ffffffffffffffffffffffffffffffffffffffff16021790555033600a60006101000a81548173ffffffffffffffffffffffffffffffffffffffff021916908373ffffffffffffffffffffffffffffffffffffffff1602179055508760008190555086600181905550856007819055508460068190555088600460006101000a81548173ffffffffffffffffffffffffffffffffffffffff021916908373ffffffffffffffffffffffffffffffffffffffff160217905550836005819055508a600860006101000a81548173ffffffffffffffffffffffffffffffffffffffff021916908373ffffffffffffffffffffffffffffffffffffffff1602179055508260038190555081600b8190555080600c60006101000a81548160ff021916908315150217905550505050505050505050505062000447565b600081519050620001d681620003c5565b92915050565b600081519050620001ed81620003df565b92915050565b6000815190506200020481620003f9565b92915050565b6000815190506200021b8162000413565b92915050565b60008151905062000232816200042d565b92915050565b60008060008060008060008060008060006101608c8e0312156200025b57600080fd5b60006200026b8e828f016200020a565b9b505060206200027e8e828f01620001dc565b9a50506040620002918e828f01620001f3565b9950506060620002a48e828f0162000221565b9850506080620002b78e828f0162000221565b97505060a0620002ca8e828f0162000221565b96505060c0620002dd8e828f0162000221565b95505060e0620002f08e828f0162000221565b945050610100620003048e828f0162000221565b935050610120620003188e828f0162000221565b9250506101406200032c8e828f01620001c5565b9150509295989b509295989b9093969950565b60006200034c826200039b565b9050919050565b60008115159050919050565b60006200036c826200033f565b9050919050565b600062000380826200033f565b9050919050565b600062000394826200033f565b9050919050565b600073ffffffffffffffffffffffffffffffffffffffff82169050919050565b6000819050919050565b620003d08162000353565b8114620003dc57600080fd5b50565b620003ea816200035f565b8114620003f657600080fd5b50565b620004048162000373565b81146200041057600080fd5b50565b6200041e8162000387565b81146200042a57600080fd5b50565b6200043881620003bb565b81146200044457600080fd5b50565b6149a980620004576000396000f3fe608060405234801561001057600080fd5b50600436106102065760003560e01c80639495833c1161011a578063c45a0155116100ad578063da68cf8b1161007c578063da68cf8b14610624578063e107fb4f14610642578063ef78d4fd14610672578063f45e65d814610690578063ff5c86b0146106ae57610206565b8063c45a01551461059c578063c816841b146105ba578063c84993af146105d8578063d529a3961461060857610206565b8063ab02f2a9116100e9578063ab02f2a914610500578063ae169a5014610530578063b93dafa91461054c578063bb15d2dd1461058057610206565b80639495833c1461045d5780639592de181461048d57806396b2c6f3146104bd578063a10340bc146104c757610206565b806360f65c601161019d5780637358c57a1161016c5780637358c57a146103b5578063773d51eb146103d35780637e9966391461040357806389da88a3146104215780638f9eca821461043f57610206565b806360f65c601461031d578063652c8ded1461034d5780636f1aefc3146103695780636f7cb60b1461039957610206565b806345084775116101d95780634508477514610293578063499a0fc4146102b1578063527eb4bc146102cf5780635b3ad63e146102ed57610206565b8063050e88401461020b5780633c80d8ea1461023b5780633d09a82a14610257578063410f071014610275575b600080fd5b610225600480360381019061022091906136fe565b6106cc565b6040516102329190614074565b60405180910390f35b6102556004803603810190610250919061378c565b6106f0565b005b61025f610f6c565b60405161026c9190614074565b60405180910390f35b61027d610f72565b60405161028a9190614074565b60405180910390f35b61029b610f78565b6040516102a89190613d45565b60405180910390f35b6102b9610f9e565b6040516102c69190614074565b60405180910390f35b6102d7610fa4565b6040516102e49190614074565b60405180910390f35b610307600480360381019061030291906136fe565b610faa565b6040516103149190614074565b60405180910390f35b6103376004803603810190610332919061364a565b610fed565b6040516103449190614074565b60405180910390f35b610367600480360381019061036291906136fe565b61101e565b005b610383600480360381019061037e9190613750565b61110d565b6040516103909190614059565b60405180910390f35b6103b360048036038101906103ae91906136fe565b611247565b005b6103bd6114a6565b6040516103ca9190614074565b60405180910390f35b6103ed60048036038101906103e891906136fe565b6114ac565b6040516103fa9190614037565b60405180910390f35b61040b611613565b6040516104189190614074565b60405180910390f35b610429611619565b6040516104369190614074565b60405180910390f35b610447611626565b6040516104549190613e0b565b60405180910390f35b610477600480360381019061047291906135f8565b611639565b6040516104849190613de9565b60405180910390f35b6104a760048036038101906104a291906136fe565b6116d0565b6040516104b49190614074565b60405180910390f35b6104c5611706565b005b6104e160048036038101906104dc91906136fe565b6119fa565b6040516104f79a99989796959493929190614189565b60405180910390f35b61051a600480360381019061051591906136fe565b611a5b565b6040516105279190613de9565b60405180910390f35b61054a600480360381019061054591906136fe565b611ac9565b005b61056660048036038101906105619190613750565b611ade565b6040516105779594939291906140b8565b60405180910390f35b61059a6004803603810190610595919061378c565b611b4e565b005b6105a4612066565b6040516105b19190613e5c565b60405180910390f35b6105c261208c565b6040516105cf9190613e41565b60405180910390f35b6105f260048036038101906105ed91906136fe565b6120b2565b6040516105ff9190614074565b60405180910390f35b610622600480360381019061061d9190613750565b6120d2565b005b61062c612156565b6040516106399190613e26565b60405180910390f35b61065c60048036038101906106579190613750565b61217c565b6040516106699190614074565b60405180910390f35b61067a61221f565b6040516106879190614074565b60405180910390f35b610698612225565b6040516106a59190614074565b60405180910390f35b6106b661222b565b6040516106c39190614074565b60405180910390f35b601181815481106106dc57600080fd5b906000526020600020016000915090505481565b60006106fb84612231565b905061070781836123e1565b60006107138285612439565b905061071e42610faa565b821015610760576040517f08c379a000000000000000000000000000000000000000000000000000000000815260040161075790613eb7565b60405180910390fd5b600e6000838152602001908152602001600020600082815260200190815260200160002060020160009054906101000a900473ffffffffffffffffffffffffffffffffffffffff1673ffffffffffffffffffffffffffffffffffffffff163373ffffffffffffffffffffffffffffffffffffffff161415610816576040517f08c379a000000000000000000000000000000000000000000000000000000000815260040161080d90613f77565b60405180910390fd5b6000610822838561217c565b905080600e60008581526020019081526020016000206000848152602001908152602001600020600301546108579190614280565b600960009054906101000a900473ffffffffffffffffffffffffffffffffffffffff1673ffffffffffffffffffffffffffffffffffffffff1663dd62ed3e33306040518363ffffffff1660e01b81526004016108b4929190613d60565b60206040518083038186803b1580156108cc57600080fd5b505afa1580156108e0573d6000803e3d6000fd5b505050506040513d601f19601f820116820180604052508101906109049190613727565b1015610945576040517f08c379a000000000000000000000000000000000000000000000000000000000815260040161093c90613f97565b60405180910390fd5b600960009054906101000a900473ffffffffffffffffffffffffffffffffffffffff1673ffffffffffffffffffffffffffffffffffffffff166323b872dd333084600e60008981526020019081526020016000206000888152602001908152602001600020600301546109b89190614280565b6040518463ffffffff1660e01b81526004016109d693929190613d89565b602060405180830381600087803b1580156109f057600080fd5b505af1158015610a04573d6000803e3d6000fd5b505050506040513d601f19601f82011682018060405250810190610a289190613686565b5080600f600085815260200190815260200160002060030154610a4b9190614280565b600f60008581526020019081526020016000206003018190555060016002811115610a9f577f4e487b7100000000000000000000000000000000000000000000000000000000600052602160045260246000fd5b600e6000858152602001908152602001600020600084815260200190815260200160002060040160009054906101000a900460ff166002811115610b0c577f4e487b7100000000000000000000000000000000000000000000000000000000600052602160045260246000fd5b1415610cb2576000610b4584600e600087815260200190815260200160002060008681526020019081526020016000206003015461217c565b9050600960009054906101000a900473ffffffffffffffffffffffffffffffffffffffff1673ffffffffffffffffffffffffffffffffffffffff1663a9059cbb600e6000878152602001908152602001600020600086815260200190815260200160002060020160009054906101000a900473ffffffffffffffffffffffffffffffffffffffff16600e600088815260200190815260200160002060008781526020019081526020016000206003015484610c009190614280565b6040518363ffffffff1660e01b8152600401610c1d929190613dc0565b602060405180830381600087803b158015610c3757600080fd5b505af1158015610c4b573d6000803e3d6000fd5b505050506040513d601f19601f82011682018060405250810190610c6f9190613686565b5080600f600086815260200190815260200160002060030154610c929190614392565b600f60008681526020019081526020016000206003018190555050610d29565b6001600e6000858152602001908152602001600020600084815260200190815260200160002060040160006101000a81548160ff02191690836002811115610d23577f4e487b7100000000000000000000000000000000000000000000000000000000600052602160045260246000fd5b02179055505b33600e6000858152602001908152602001600020600084815260200190815260200160002060020160006101000a81548173ffffffffffffffffffffffffffffffffffffffff021916908373ffffffffffffffffffffffffffffffffffffffff16021790555083600e6000858152602001908152602001600020600084815260200190815260200160002060030181905550601060003373ffffffffffffffffffffffffffffffffffffffff1673ffffffffffffffffffffffffffffffffffffffff168152602001908152602001600020839080600181540180825580915050600190039060005260206000200160009091909190915055610e29611706565b7ff733bd7f4402cb7d331b34d5cd22f432b9bf71a833f786974545860d74976af283600f600086815260200190815260200160002060010154600f600087815260200190815260200160002060020154600f600088815260200190815260200160002060050154600f600089815260200190815260200160002060060154600f60008a815260200190815260200160002060070154600f60008b815260200190815260200160002060080154600f60008c815260200190815260200160002060030154604051610f0098979695949392919061410b565b60405180910390a17f74c5c6f5cd4370cc0ab554a1afdb2b24b051b40c99102354ef424aed5cd6409d83600e60008681526020019081526020016000206000858152602001908152602001600020604051610f5c92919061408f565b60405180910390a1505050505050565b600b5481565b60065481565b600a60009054906101000a900473ffffffffffffffffffffffffffffffffffffffff1681565b60055481565b60025481565b60006001548211610fbf576001549050610fe8565b60005460015483610fd09190614392565b610fda91906145cf565b82610fe59190614392565b90505b919050565b6010602052816000526040600020818154811061100957600080fd5b90600052602060002001600091509150505481565b6000600f60008381526020019081526020016000206005015411158061105b57506000600f60008381526020019081526020016000206006015411155b1561109b576040517f08c379a000000000000000000000000000000000000000000000000000000000815260040161109290613f17565b60405180910390fd5b600f600082815260200190815260200160002060060154600f600083815260200190815260200160002060050154141561110a576040517f08c379a000000000000000000000000000000000000000000000000000000000815260040161110190613f17565b60405180910390fd5b50565b611115613425565b600e600084815260200190815260200160002060008381526020019081526020016000206040518060a001604052908160008201548152602001600182015481526020016002820160009054906101000a900473ffffffffffffffffffffffffffffffffffffffff1673ffffffffffffffffffffffffffffffffffffffff1673ffffffffffffffffffffffffffffffffffffffff168152602001600382015481526020016004820160009054906101000a900460ff166002811115611203577f4e487b7100000000000000000000000000000000000000000000000000000000600052602160045260246000fd5b600281111561123b577f4e487b7100000000000000000000000000000000000000000000000000000000600052602160045260246000fd5b81525050905092915050565b600860009054906101000a900473ffffffffffffffffffffffffffffffffffffffff1673ffffffffffffffffffffffffffffffffffffffff16638da5cb5b6040518163ffffffff1660e01b815260040160206040518083038186803b1580156112af57600080fd5b505afa1580156112c3573d6000803e3d6000fd5b505050506040513d601f19601f820116820180604052508101906112e79190613621565b73ffffffffffffffffffffffffffffffffffffffff163373ffffffffffffffffffffffffffffffffffffffff1614611354576040517f08c379a000000000000000000000000000000000000000000000000000000000815260040161134b90613e97565b60405180910390fd5b600960009054906101000a900473ffffffffffffffffffffffffffffffffffffffff1673ffffffffffffffffffffffffffffffffffffffff1663a9059cbb600860009054906101000a900473ffffffffffffffffffffffffffffffffffffffff1673ffffffffffffffffffffffffffffffffffffffff16638da5cb5b6040518163ffffffff1660e01b815260040160206040518083038186803b1580156113fa57600080fd5b505afa15801561140e573d6000803e3d6000fd5b505050506040513d601f19601f820116820180604052508101906114329190613621565b836040518363ffffffff1660e01b8152600401611450929190613dc0565b602060405180830381600087803b15801561146a57600080fd5b505af115801561147e573d6000803e3d6000fd5b505050506040513d601f19601f820116820180604052508101906114a29190613686565b5050565b60015481565b6114b46134a2565b600f6000838152602001908152602001600020604051806101600160405290816000820154815260200160018201548152602001600282015481526020016003820154815260200160048201548152602001600582015481526020016006820154815260200160078201548152602001600882015481526020016009820160009054906101000a900460ff166002811115611578577f4e487b7100000000000000000000000000000000000000000000000000000000600052602160045260246000fd5b60028111156115b0577f4e487b7100000000000000000000000000000000000000000000000000000000600052602160045260246000fd5b8152602001600a820180548060200260200160405190810160405280929190818152602001828054801561160357602002820191906000526020600020905b8154815260200190600101908083116115ef575b5050505050815250509050919050565b60075481565b6000601180549050905090565b600c60009054906101000a900460ff1681565b6060601060008373ffffffffffffffffffffffffffffffffffffffff1673ffffffffffffffffffffffffffffffffffffffff1681526020019081526020016000208054806020026020016040519081016040528092919081815260200182805480156116c457602002820191906000526020600020905b8154815260200190600101908083116116b0575b50505050509050919050565b60008082116116e3576005549050611701565b600554600554836116f49190614307565b6116fe9190614338565b90505b919050565b600061171142610faa565b9050600354600054826117249190614280565b61172e9190614392565b42101561186757611760600460009054906101000a900473ffffffffffffffffffffffffffffffffffffffff1661259c565b8063ffffffff169050600f60008581526020019081526020016000206005016000600f60008781526020019081526020016000206007016000600f60008981526020019081526020016000206001016000869190505585919050558491905055505050600f600082815260200190815260200160002060050154600f600083815260200190815260200160002060070154600f600084815260200190815260200160002060010154600f60008581526020019081526020016000206006016000600f60008781526020019081526020016000206008016000600f60008981526020019081526020016000206002016000869190505585919050558491905055505050611918565b600354600054826118789190614280565b6118829190614392565b4210611917576118b3600460009054906101000a900473ffffffffffffffffffffffffffffffffffffffff1661259c565b8063ffffffff169050600f60008581526020019081526020016000206006016000600f60008781526020019081526020016000206008016000600f600089815260200190815260200160002060020160008691905055859190505584919050555050505b5b7ff733bd7f4402cb7d331b34d5cd22f432b9bf71a833f786974545860d74976af281600f600084815260200190815260200160002060010154600f600085815260200190815260200160002060020154600f600086815260200190815260200160002060050154600f600087815260200190815260200160002060060154600f600088815260200190815260200160002060070154600f600089815260200190815260200160002060080154600f60008a8152602001908152602001600020600301546040516119ef98979695949392919061410b565b60405180910390a150565b600f6020528060005260406000206000915090508060000154908060010154908060020154908060030154908060040154908060050154908060060154908060070154908060080154908060090160009054906101000a900460ff1690508a565b6060600f6000838152602001908152602001600020600a01805480602002602001604051908101604052809291908181526020018280548015611abd57602002820191906000526020600020905b815481526020019060010190808311611aa9575b50505050509050919050565b611ad2816127f7565b611adb81612e45565b50565b600e602052816000526040600020602052806000526040600020600091509150508060000154908060010154908060020160009054906101000a900473ffffffffffffffffffffffffffffffffffffffff16908060030154908060040160009054906101000a900460ff16905085565b6000611b5984612231565b9050611b6581836123e1565b6000611b718285612439565b90503373ffffffffffffffffffffffffffffffffffffffff16600e6000848152602001908152602001600020600083815260200190815260200160002060020160009054906101000a900473ffffffffffffffffffffffffffffffffffffffff1673ffffffffffffffffffffffffffffffffffffffff1614611c28576040517f08c379a0000000000000000000000000000000000000000000000000000000008152600401611c1f90613ed7565b60405180910390fd5b611c3142610faa565b821015611c73576040517f08c379a0000000000000000000000000000000000000000000000000000000008152600401611c6a90613ff7565b60405180910390fd5b6000611c7f838561217c565b90506000611cb484600e600087815260200190815260200160002060008681526020019081526020016000206003015461217c565b905080821115611ec1578082611cca9190614392565b600960009054906101000a900473ffffffffffffffffffffffffffffffffffffffff1673ffffffffffffffffffffffffffffffffffffffff1663dd62ed3e33306040518363ffffffff1660e01b8152600401611d27929190613d60565b60206040518083038186803b158015611d3f57600080fd5b505afa158015611d53573d6000803e3d6000fd5b505050506040513d601f19601f82011682018060405250810190611d779190613727565b1015611db8576040517f08c379a0000000000000000000000000000000000000000000000000000000008152600401611daf90613f97565b60405180910390fd5b600960009054906101000a900473ffffffffffffffffffffffffffffffffffffffff1673ffffffffffffffffffffffffffffffffffffffff166323b872dd33308486611e049190614392565b6040518463ffffffff1660e01b8152600401611e2293929190613d89565b602060405180830381600087803b158015611e3c57600080fd5b505af1158015611e50573d6000803e3d6000fd5b505050506040513d601f19601f82011682018060405250810190611e749190613686565b508082611e819190614392565b600f600086815260200190815260200160002060030154611ea29190614280565b600f600086815260200190815260200160002060030181905550611fcd565b80821015611fcc57600960009054906101000a900473ffffffffffffffffffffffffffffffffffffffff1673ffffffffffffffffffffffffffffffffffffffff1663a9059cbb338484611f149190614392565b6040518363ffffffff1660e01b8152600401611f31929190613dc0565b602060405180830381600087803b158015611f4b57600080fd5b505af1158015611f5f573d6000803e3d6000fd5b505050506040513d601f19601f82011682018060405250810190611f839190613686565b508181611f909190614392565b600f600086815260200190815260200160002060030154611fb19190614392565b600f6000868152602001908152602001600020600301819055505b5b84600e6000868152602001908152602001600020600085815260200190815260200160002060030181905550612001611706565b7f74c5c6f5cd4370cc0ab554a1afdb2b24b051b40c99102354ef424aed5cd6409d84600e6000878152602001908152602001600020600086815260200190815260200160002060405161205592919061408f565b60405180910390a150505050505050565b600860009054906101000a900473ffffffffffffffffffffffffffffffffffffffff1681565b600460009054906101000a900473ffffffffffffffffffffffffffffffffffffffff1681565b6000600f6000838152602001908152602001600020600301549050919050565b6001600f600084815260200190815260200160002060090160006101000a81548160ff02191690836002811115612132577f4e487b7100000000000000000000000000000000000000000000000000000000600052602160045260246000fd5b021790555080600f6000848152602001908152602001600020600401819055505050565b600960009054906101000a900473ffffffffffffffffffffffffffffffffffffffff1681565b6000804260005461218c42610faa565b6121969190614280565b6121a09190614392565b90506000805482600d546121b49190614338565b6121be9190614307565b9050620186a0600754856121d29190614338565b6121dc9190614307565b9250600d5481846121ed9190614338565b6121f79190614307565b612200866132be565b8461220b9190614338565b6122159190614280565b9250505092915050565b60005481565b600d5481565b60035481565b60008061223d83610faa565b905060006002811115612279577f4e487b7100000000000000000000000000000000000000000000000000000000600052602160045260246000fd5b600f600083815260200190815260200160002060090160009054906101000a900460ff1660028111156122d5577f4e487b7100000000000000000000000000000000000000000000000000000000600052602160045260246000fd5b146122e357809150506123dc565b6122ec42610faa565b81101561232e576040517f08c379a000000000000000000000000000000000000000000000000000000000815260040161232590613fd7565b60405180910390fd5b80600f6000838152602001908152602001600020600001819055506001600f600083815260200190815260200160002060090160006101000a81548160ff021916908360028111156123a9577f4e487b7100000000000000000000000000000000000000000000000000000000600052602160045260246000fd5b02179055506011819080600181540180825580915050600190039060005260206000200160009091909190915055809150505b919050565b60006123ed838361217c565b9050600b54811015612434576040517f08c379a000000000000000000000000000000000000000000000000000000000815260040161242b90613f57565b60405180910390fd5b505050565b600080612445836116d0565b905060006002811115612481577f4e487b7100000000000000000000000000000000000000000000000000000000600052602160045260246000fd5b600e6000868152602001908152602001600020600083815260200190815260200160002060040160009054906101000a900460ff1660028111156124ee577f4e487b7100000000000000000000000000000000000000000000000000000000600052602160045260246000fd5b146124fc5780915050612596565b83600e600086815260200190815260200160002060008381526020019081526020016000206000018190555080600e6000868152602001908152602001600020600083815260200190815260200160002060010181905550600f6000858152602001908152602001600020600a01819080600181540180825580915050600190039060005260206000200160009091909190915055809150505b92915050565b60008060006125a96132fa565b90508373ffffffffffffffffffffffffffffffffffffffff16635909c0d56040518163ffffffff1660e01b815260040160206040518083038186803b1580156125f157600080fd5b505afa158015612605573d6000803e3d6000fd5b505050506040513d601f19601f820116820180604052508101906126299190613727565b92508373ffffffffffffffffffffffffffffffffffffffff16635a3d54936040518163ffffffff1660e01b815260040160206040518083038186803b15801561267157600080fd5b505afa158015612685573d6000803e3d6000fd5b505050506040513d601f19601f820116820180604052508101906126a99190613727565b915060008060008673ffffffffffffffffffffffffffffffffffffffff16630902f1ac6040518163ffffffff1660e01b815260040160606040518083038186803b1580156126f657600080fd5b505afa15801561270a573d6000803e3d6000fd5b505050506040513d601f19601f8201168201806040525081019061272e91906136af565b9250925092508363ffffffff168163ffffffff16146127ed576000818561275591906143c6565b90508063ffffffff166127688486613312565b600001517bffffffffffffffffffffffffffffffffffffffffffffffffffffffff166127949190614338565b8761279f9190614280565b96508063ffffffff166127b28585613312565b600001517bffffffffffffffffffffffffffffffffffffffffffffffffffffffff166127de9190614338565b866127e99190614280565b9550505b5050509193909250565b6128008161101e565b426000548261280f9190614280565b1115612850576040517f08c379a000000000000000000000000000000000000000000000000000000000815260040161284790613e77565b60405180910390fd5b6002600f600083815260200190815260200160002060090160006101000a81548160ff021916908360028111156128b0577f4e487b7100000000000000000000000000000000000000000000000000000000600052602160045260246000fd5b02179055506000600f600083815260200190815260200160002060010154600f6000848152602001908152602001600020600201546128ef9190614392565b9050600c60009054906101000a900460ff16156129ac5761297d604051806020016040528083600f600087815260200190815260200160002060050154600f60008881526020019081526020016000206006015461294d9190614392565b6129579190614307565b7bffffffffffffffffffffffffffffffffffffffffffffffffffffffff168152506133f2565b6dffffffffffffffffffffffffffff16600f600084815260200190815260200160002060040181905550612a4e565b612a23604051806020016040528083600f600087815260200190815260200160002060070154600f6000888152602001908152602001600020600801546129f39190614392565b6129fd9190614307565b7bffffffffffffffffffffffffffffffffffffffffffffffffffffffff168152506133f2565b6dffffffffffffffffffffffffffff16600f6000848152602001908152602001600020600401819055505b600d54600f600084815260200190815260200160002060040154612a729190614338565b600f6000848152602001908152602001600020600401819055506000620186a0600654600f600086815260200190815260200160002060030154612ab69190614338565b612ac09190614307565b90506000620186a0600254600f600087815260200190815260200160002060030154612aec9190614338565b612af69190614307565b90508082600f600087815260200190815260200160002060030154612b1b9190614392565b612b259190614392565b600f600086815260200190815260200160002060030181905550600960009054906101000a900473ffffffffffffffffffffffffffffffffffffffff1673ffffffffffffffffffffffffffffffffffffffff1663a9059cbb600a60009054906101000a900473ffffffffffffffffffffffffffffffffffffffff16846040518363ffffffff1660e01b8152600401612bbe929190613dc0565b602060405180830381600087803b158015612bd857600080fd5b505af1158015612bec573d6000803e3d6000fd5b505050506040513d601f19601f82011682018060405250810190612c109190613686565b50600960009054906101000a900473ffffffffffffffffffffffffffffffffffffffff1673ffffffffffffffffffffffffffffffffffffffff1663a9059cbb600860009054906101000a900473ffffffffffffffffffffffffffffffffffffffff1673ffffffffffffffffffffffffffffffffffffffff16638da5cb5b6040518163ffffffff1660e01b815260040160206040518083038186803b158015612cb757600080fd5b505afa158015612ccb573d6000803e3d6000fd5b505050506040513d601f19601f82011682018060405250810190612cef9190613621565b836040518363ffffffff1660e01b8152600401612d0d929190613dc0565b602060405180830381600087803b158015612d2757600080fd5b505af1158015612d3b573d6000803e3d6000fd5b505050506040513d601f19601f82011682018060405250810190612d5f9190613686565b507ff733bd7f4402cb7d331b34d5cd22f432b9bf71a833f786974545860d74976af284600f600087815260200190815260200160002060010154600f600088815260200190815260200160002060020154600f600089815260200190815260200160002060050154600f60008a815260200190815260200160002060060154600f60008b815260200190815260200160002060070154600f60008c815260200190815260200160002060080154600f60008d815260200190815260200160002060030154604051612e3798979695949392919061410b565b60405180910390a150505050565b600280811115612e7e577f4e487b7100000000000000000000000000000000000000000000000000000000600052602160045260246000fd5b600f600083815260200190815260200160002060090160009054906101000a900460ff166002811115612eda577f4e487b7100000000000000000000000000000000000000000000000000000000600052602160045260246000fd5b14612f1a576040517f08c379a0000000000000000000000000000000000000000000000000000000008152600401612f1190613fb7565b60405180910390fd5b6000612f3b600f6000848152602001908152602001600020600401546116d0565b9050600280811115612f76577f4e487b7100000000000000000000000000000000000000000000000000000000600052602160045260246000fd5b600e6000848152602001908152602001600020600083815260200190815260200160002060040160009054906101000a900460ff166002811115612fe3577f4e487b7100000000000000000000000000000000000000000000000000000000600052602160045260246000fd5b1415613024576040517f08c379a000000000000000000000000000000000000000000000000000000000815260040161301b90613f37565b60405180910390fd5b600073ffffffffffffffffffffffffffffffffffffffff16600e6000848152602001908152602001600020600083815260200190815260200160002060020160009054906101000a900473ffffffffffffffffffffffffffffffffffffffff1673ffffffffffffffffffffffffffffffffffffffff1614156130db576040517f08c379a00000000000000000000000000000000000000000000000000000000081526004016130d290613ef7565b60405180910390fd5b600960009054906101000a900473ffffffffffffffffffffffffffffffffffffffff1673ffffffffffffffffffffffffffffffffffffffff1663a9059cbb600e6000858152602001908152602001600020600084815260200190815260200160002060020160009054906101000a900473ffffffffffffffffffffffffffffffffffffffff16600f6000868152602001908152602001600020600301546040518363ffffffff1660e01b8152600401613195929190613dc0565b602060405180830381600087803b1580156131af57600080fd5b505af11580156131c3573d6000803e3d6000fd5b505050506040513d601f19601f820116820180604052508101906131e79190613686565b506002600e6000848152602001908152602001600020600083815260200190815260200160002060040160006101000a81548160ff02191690836002811115613259577f4e487b7100000000000000000000000000000000000000000000000000000000600052602160045260246000fd5b02179055507f74c5c6f5cd4370cc0ab554a1afdb2b24b051b40c99102354ef424aed5cd6409d82600e600085815260200190815260200160002060008481526020019081526020016000206040516132b292919061408f565b60405180910390a15050565b60006132c942610faa565b8214156132d957600090506132f5565b60005442836132e89190614392565b6132f29190614307565b90505b919050565b60006401000000004261330d91906145cf565b905090565b61331a613534565b6000826dffffffffffffffffffffffffffff161161336d576040517f08c379a000000000000000000000000000000000000000000000000000000000815260040161336490614017565b60405180910390fd5b6040518060200160405280836dffffffffffffffffffffffffffff16607060ff16866dffffffffffffffffffffffffffff167bffffffffffffffffffffffffffffffffffffffffffffffffffffffff16901b6133c991906142d6565b7bffffffffffffffffffffffffffffffffffffffffffffffffffffffff16815250905092915050565b6000607060ff1682600001517bffffffffffffffffffffffffffffffffffffffffffffffffffffffff16901c9050919050565b6040518060a001604052806000815260200160008152602001600073ffffffffffffffffffffffffffffffffffffffff168152602001600081526020016000600281111561349c577f4e487b7100000000000000000000000000000000000000000000000000000000600052602160045260246000fd5b81525090565b60405180610160016040528060008152602001600081526020016000815260200160008152602001600081526020016000815260200160008152602001600081526020016000815260200160006002811115613527577f4e487b7100000000000000000000000000000000000000000000000000000000600052602160045260246000fd5b8152602001606081525090565b604051806020016040528060007bffffffffffffffffffffffffffffffffffffffffffffffffffffffff1681525090565b60008135905061357481614900565b92915050565b60008151905061358981614900565b92915050565b60008151905061359e81614917565b92915050565b6000815190506135b38161492e565b92915050565b6000813590506135c881614945565b92915050565b6000815190506135dd81614945565b92915050565b6000815190506135f28161495c565b92915050565b60006020828403121561360a57600080fd5b600061361884828501613565565b91505092915050565b60006020828403121561363357600080fd5b60006136418482850161357a565b91505092915050565b6000806040838503121561365d57600080fd5b600061366b85828601613565565b925050602061367c858286016135b9565b9150509250929050565b60006020828403121561369857600080fd5b60006136a68482850161358f565b91505092915050565b6000806000606084860312156136c457600080fd5b60006136d2868287016135a4565b93505060206136e3868287016135a4565b92505060406136f4868287016135e3565b9150509250925092565b60006020828403121561371057600080fd5b600061371e848285016135b9565b91505092915050565b60006020828403121561373957600080fd5b6000613747848285016135ce565b91505092915050565b6000806040838503121561376357600080fd5b6000613771858286016135b9565b9250506020613782858286016135b9565b9150509250929050565b6000806000606084860312156137a157600080fd5b60006137af868287016135b9565b93505060206137c0868287016135b9565b92505060406137d1868287016135b9565b9150509250925092565b60006137e78383613d27565b60208301905092915050565b6137fc81614431565b82525050565b61380b81614431565b82525050565b600061381c82614235565b613826818561424d565b935061383183614225565b8060005b8381101561386257815161384988826137db565b975061385483614240565b925050600181019050613835565b5085935050505092915050565b600061387a82614235565b613884818561425e565b935061388f83614225565b8060005b838110156138c05781516138a788826137db565b97506138b283614240565b925050600181019050613893565b5085935050505092915050565b6138d681614443565b82525050565b6138e5816144f1565b82525050565b6138f481614515565b82525050565b61390381614539565b82525050565b6139128161455d565b82525050565b6139218161455d565b82525050565b6139308161456f565b82525050565b61393f8161456f565b82525050565b6000613952601a8361426f565b915061395d8261469a565b602082019050919050565b600061397560158361426f565b9150613980826146c3565b602082019050919050565b6000613998600b8361426f565b91506139a3826146ec565b602082019050919050565b60006139bb600d8361426f565b91506139c682614715565b602082019050919050565b60006139de60088361426f565b91506139e98261473e565b602082019050919050565b6000613a0160138361426f565b9150613a0c82614767565b602082019050919050565b6000613a2460138361426f565b9150613a2f82614790565b602082019050919050565b6000613a4760108361426f565b9150613a52826147b9565b602082019050919050565b6000613a6a600d8361426f565b9150613a75826147e2565b602082019050919050565b6000613a8d60198361426f565b9150613a988261480b565b602082019050919050565b6000613ab060108361426f565b9150613abb82614834565b602082019050919050565b6000613ad3600d8361426f565b9150613ade8261485d565b602082019050919050565b6000613af660118361426f565b9150613b0182614886565b602082019050919050565b6000613b1960178361426f565b9150613b24826148af565b602082019050919050565b600061016083016000830151613b486000860182613d27565b506020830151613b5b6020860182613d27565b506040830151613b6e6040860182613d27565b506060830151613b816060860182613d27565b506080830151613b946080860182613d27565b5060a0830151613ba760a0860182613d27565b5060c0830151613bba60c0860182613d27565b5060e0830151613bcd60e0860182613d27565b50610100830151613be2610100860182613d27565b50610120830151613bf7610120860182613909565b50610140830151848203610140860152613c118282613811565b9150508091505092915050565b60a082016000820151613c346000850182613d27565b506020820151613c476020850182613d27565b506040820151613c5a60408501826137f3565b506060820151613c6d6060850182613d27565b506080820151613c806080850182613927565b50505050565b60a082016000808301549050613c9b816145b5565b613ca86000860182613d27565b5060018301549050613cb9816145b5565b613cc66020860182613d27565b5060028301549050613cd781614581565b613ce460408601826137f3565b5060038301549050613cf5816145b5565b613d026060860182613d27565b5060048301549050613d138161459b565b613d206080860182613927565b5050505050565b613d30816144d7565b82525050565b613d3f816144d7565b82525050565b6000602082019050613d5a6000830184613802565b92915050565b6000604082019050613d756000830185613802565b613d826020830184613802565b9392505050565b6000606082019050613d9e6000830186613802565b613dab6020830185613802565b613db86040830184613d36565b949350505050565b6000604082019050613dd56000830185613802565b613de26020830184613d36565b9392505050565b60006020820190508181036000830152613e03818461386f565b905092915050565b6000602082019050613e2060008301846138cd565b92915050565b6000602082019050613e3b60008301846138dc565b92915050565b6000602082019050613e5660008301846138eb565b92915050565b6000602082019050613e7160008301846138fa565b92915050565b60006020820190508181036000830152613e9081613945565b9050919050565b60006020820190508181036000830152613eb081613968565b9050919050565b60006020820190508181036000830152613ed08161398b565b9050919050565b60006020820190508181036000830152613ef0816139ae565b9050919050565b60006020820190508181036000830152613f10816139d1565b9050919050565b60006020820190508181036000830152613f30816139f4565b9050919050565b60006020820190508181036000830152613f5081613a17565b9050919050565b60006020820190508181036000830152613f7081613a3a565b9050919050565b60006020820190508181036000830152613f9081613a5d565b9050919050565b60006020820190508181036000830152613fb081613a80565b9050919050565b60006020820190508181036000830152613fd081613aa3565b9050919050565b60006020820190508181036000830152613ff081613ac6565b9050919050565b6000602082019050818103600083015261401081613ae9565b9050919050565b6000602082019050818103600083015261403081613b0c565b9050919050565b600060208201905081810360008301526140518184613b2f565b905092915050565b600060a08201905061406e6000830184613c1e565b92915050565b60006020820190506140896000830184613d36565b92915050565b600060c0820190506140a46000830185613d36565b6140b16020830184613c86565b9392505050565b600060a0820190506140cd6000830188613d36565b6140da6020830187613d36565b6140e76040830186613802565b6140f46060830185613d36565b6141016080830184613936565b9695505050505050565b600061010082019050614121600083018b613d36565b61412e602083018a613d36565b61413b6040830189613d36565b6141486060830188613d36565b6141556080830187613d36565b61416260a0830186613d36565b61416f60c0830185613d36565b61417c60e0830184613d36565b9998505050505050505050565b60006101408201905061419f600083018d613d36565b6141ac602083018c613d36565b6141b9604083018b613d36565b6141c6606083018a613d36565b6141d36080830189613d36565b6141e060a0830188613d36565b6141ed60c0830187613d36565b6141fa60e0830186613d36565b614208610100830185613d36565b614216610120830184613918565b9b9a5050505050505050505050565b6000819050602082019050919050565b600081519050919050565b6000602082019050919050565b600082825260208201905092915050565b600082825260208201905092915050565b600082825260208201905092915050565b600061428b826144d7565b9150614296836144d7565b9250827fffffffffffffffffffffffffffffffffffffffffffffffffffffffffffffffff038211156142cb576142ca614600565b5b828201905092915050565b60006142e1826144af565b91506142ec836144af565b9250826142fc576142fb61462f565b5b828204905092915050565b6000614312826144d7565b915061431d836144d7565b92508261432d5761432c61462f565b5b828204905092915050565b6000614343826144d7565b915061434e836144d7565b9250817fffffffffffffffffffffffffffffffffffffffffffffffffffffffffffffffff048311821515161561438757614386614600565b5b828202905092915050565b600061439d826144d7565b91506143a8836144d7565b9250828210156143bb576143ba614600565b5b828203905092915050565b60006143d1826144e1565b91506143dc836144e1565b9250828210156143ef576143ee614600565b5b828203905092915050565b600073ffffffffffffffffffffffffffffffffffffffff82169050919050565b600060ff82169050919050565b6000819050919050565b600061443c8261448f565b9050919050565b60008115159050919050565b600081905061445d826148d8565b919050565b6000819050614470826148ec565b919050565b60006dffffffffffffffffffffffffffff82169050919050565b600073ffffffffffffffffffffffffffffffffffffffff82169050919050565b60007bffffffffffffffffffffffffffffffffffffffffffffffffffffffff82169050919050565b6000819050919050565b600063ffffffff82169050919050565b60006144fc82614503565b9050919050565b600061450e8261448f565b9050919050565b600061452082614527565b9050919050565b60006145328261448f565b9050919050565b60006145448261454b565b9050919050565b60006145568261448f565b9050919050565b60006145688261444f565b9050919050565b600061457a82614462565b9050919050565b600061459461458f8361468d565b6143fa565b9050919050565b60006145ae6145a98361468d565b61441a565b9050919050565b60006145c86145c38361468d565b614427565b9050919050565b60006145da826144d7565b91506145e5836144d7565b9250826145f5576145f461462f565b5b828206905092915050565b7f4e487b7100000000000000000000000000000000000000000000000000000000600052601160045260246000fd5b7f4e487b7100000000000000000000000000000000000000000000000000000000600052601260045260246000fd5b7f4e487b7100000000000000000000000000000000000000000000000000000000600052602160045260246000fd5b60008160001c9050919050565b7f4652414d4520454e442054494d45204e4f542052454143484544000000000000600082015250565b7f4e4f542054484520464143544f5259204f574e45520000000000000000000000600082015250565b7f4c4f5420494e2050415354000000000000000000000000000000000000000000600082015250565b7f4e4f54204c4f54204f574e455200000000000000000000000000000000000000600082015250565b7f4e4f204f574e4552000000000000000000000000000000000000000000000000600082015250565b7f494e56414c4944204652414d4520505249434500000000000000000000000000600082015250565b7f4c4f5420414c524541445920534554544c454400000000000000000000000000600082015250565b7f505249434520495320544f4f204c4f5700000000000000000000000000000000600082015250565b7f414c5245414459204f574e455200000000000000000000000000000000000000600082015250565b7f415050524f56454420414d4f554e5420544f4f20534d414c4c00000000000000600082015250565b7f4652414d45204e4f5420434c4f53454400000000000000000000000000000000600082015250565b7f4652414d4520494e205041535400000000000000000000000000000000000000600082015250565b7f4c4f5420494e2050415354204652414d45000000000000000000000000000000600082015250565b7f4669786564506f696e743a204449565f42595f5a45524f000000000000000000600082015250565b600381106148e9576148e861465e565b5b50565b600381106148fd576148fc61465e565b5b50565b61490981614431565b811461491457600080fd5b50565b61492081614443565b811461492b57600080fd5b50565b61493781614475565b811461494257600080fd5b50565b61494e816144d7565b811461495957600080fd5b50565b614965816144e1565b811461497057600080fd5b5056fea26469706673582212205c7f9521a8735708269c69008cfdcb8c8128a5fbdf5b24d3758a4dd38a78e11064736f6c63430008040033",
  "linkReferences": {},
  "deployedLinkReferences": {}
}