{
  "_format": "hh-sol-artifact-1",
  "contractName": "Market",
  "sourceName": "contracts/Market.sol",
  "abi": [
    {
      "inputs": [
        {
          "internalType": "contract MarketFactory",
          "name": "_factory",
          "type": "address"
        },
        {
          "internalType": "contract IERC20",
          "name": "_token",
          "type": "address"
        },
        {
          "internalType": "contract IUniswapV2Pair",
          "name": "_uniswapPair",
          "type": "address"
        },
        {
          "internalType": "uint256",
          "name": "_period",
          "type": "uint256"
        },
        {
          "internalType": "uint256",
          "name": "_initTimestamp",
          "type": "uint256"
        },
        {
          "internalType": "uint256",
          "name": "_taxMarket",
          "type": "uint256"
        },
        {
          "internalType": "uint256",
          "name": "_feeMarket",
          "type": "uint256"
        },
        {
          "internalType": "uint256",
          "name": "_dPrice",
          "type": "uint256"
        },
        {
          "internalType": "uint256",
          "name": "_tReporting",
          "type": "uint256"
        },
        {
          "internalType": "uint256",
          "name": "_minTax",
          "type": "uint256"
        }
      ],
      "stateMutability": "nonpayable",
      "type": "constructor"
    },
    {
      "anonymous": false,
      "inputs": [
        {
          "indexed": false,
          "internalType": "uint256",
          "name": "frameKey",
          "type": "uint256"
        }
      ],
      "name": "FrameUpdate",
      "type": "event"
    },
    {
      "anonymous": false,
      "inputs": [
        {
          "indexed": false,
          "internalType": "uint256",
          "name": "frameKey",
          "type": "uint256"
        },
        {
          "indexed": false,
          "internalType": "uint256",
          "name": "lotKey",
          "type": "uint256"
        }
      ],
      "name": "LotUpdate",
      "type": "event"
    },
    {
      "inputs": [],
      "name": "accountingToken",
      "outputs": [
        {
          "internalType": "contract IERC20",
          "name": "",
          "type": "address"
        }
      ],
      "stateMutability": "view",
      "type": "function"
    },
    {
      "inputs": [
        {
          "internalType": "uint256",
          "name": "timestamp",
          "type": "uint256"
        },
        {
          "internalType": "uint256",
          "name": "pairPrice",
          "type": "uint256"
        },
        {
          "internalType": "uint256",
          "name": "acqPrice",
          "type": "uint256"
        }
      ],
      "name": "buyLot",
      "outputs": [],
      "stateMutability": "nonpayable",
      "type": "function"
    },
    {
      "inputs": [
        {
          "internalType": "uint256",
          "name": "timestamp",
          "type": "uint256"
        },
        {
          "internalType": "uint256",
          "name": "pairPrice",
          "type": "uint256"
        },
        {
          "internalType": "uint256",
          "name": "acqPrice",
          "type": "uint256"
        }
      ],
      "name": "clcAmountToApprove",
      "outputs": [
        {
          "internalType": "uint256",
          "name": "cmpltAmnt",
          "type": "uint256"
        }
      ],
      "stateMutability": "view",
      "type": "function"
    },
    {
      "inputs": [
        {
          "internalType": "uint256",
          "name": "timestamp",
          "type": "uint256"
        }
      ],
      "name": "clcFrameTimestamp",
      "outputs": [
        {
          "internalType": "uint256",
          "name": "",
          "type": "uint256"
        }
      ],
      "stateMutability": "view",
      "type": "function"
    },
    {
      "inputs": [
        {
          "internalType": "uint256",
          "name": "frameKey",
          "type": "uint256"
        }
      ],
      "name": "clcFramesLeft",
      "outputs": [
        {
          "internalType": "uint256",
          "name": "",
          "type": "uint256"
        }
      ],
      "stateMutability": "view",
      "type": "function"
    },
    {
      "inputs": [
        {
          "internalType": "uint256",
          "name": "value",
          "type": "uint256"
        }
      ],
      "name": "clcLotInterval",
      "outputs": [
        {
          "internalType": "uint256",
          "name": "",
          "type": "uint256"
        }
      ],
      "stateMutability": "view",
      "type": "function"
    },
    {
      "inputs": [
        {
          "internalType": "uint256",
          "name": "frameKey",
          "type": "uint256"
        },
        {
          "internalType": "uint256",
          "name": "acquisitionPrice",
          "type": "uint256"
        }
      ],
      "name": "clcTax",
      "outputs": [
        {
          "internalType": "uint256",
          "name": "tax",
          "type": "uint256"
        }
      ],
      "stateMutability": "view",
      "type": "function"
    },
    {
      "inputs": [
        {
          "internalType": "uint256",
          "name": "frameKey",
          "type": "uint256"
        }
      ],
      "name": "closeFrame",
      "outputs": [],
      "stateMutability": "nonpayable",
      "type": "function"
    },
    {
      "inputs": [],
      "name": "dPrice",
      "outputs": [
        {
          "internalType": "uint256",
          "name": "",
          "type": "uint256"
        }
      ],
      "stateMutability": "view",
      "type": "function"
    },
    {
      "inputs": [
        {
          "internalType": "uint256",
          "name": "amount",
          "type": "uint256"
        }
      ],
      "name": "emptyFunds",
      "outputs": [],
      "stateMutability": "nonpayable",
      "type": "function"
    },
    {
      "inputs": [],
      "name": "factory",
      "outputs": [
        {
          "internalType": "contract MarketFactory",
          "name": "",
          "type": "address"
        }
      ],
      "stateMutability": "view",
      "type": "function"
    },
    {
      "inputs": [],
      "name": "feeMarket",
      "outputs": [
        {
          "internalType": "uint256",
          "name": "",
          "type": "uint256"
        }
      ],
      "stateMutability": "view",
      "type": "function"
    },
    {
      "inputs": [],
      "name": "feeProtocol",
      "outputs": [
        {
          "internalType": "uint256",
          "name": "",
          "type": "uint256"
        }
      ],
      "stateMutability": "view",
      "type": "function"
    },
    {
      "inputs": [
        {
          "internalType": "uint256",
          "name": "",
          "type": "uint256"
        }
      ],
      "name": "frames",
      "outputs": [
        {
          "internalType": "uint256",
          "name": "frameKey",
          "type": "uint256"
        },
        {
          "internalType": "enum Market.SFrame",
          "name": "state",
          "type": "uint8"
        },
        {
          "internalType": "uint256",
          "name": "priceAverage",
          "type": "uint256"
        },
        {
          "internalType": "uint256",
          "name": "rewardFund",
          "type": "uint256"
        },
        {
          "internalType": "uint256",
          "name": "oraclePrice0CumulativeStart",
          "type": "uint256"
        },
        {
          "internalType": "uint256",
          "name": "oraclePrice0CumulativeEnd",
          "type": "uint256"
        },
        {
          "internalType": "uint256",
          "name": "oracleTimestampStart",
          "type": "uint256"
        },
        {
          "internalType": "uint256",
          "name": "oracleTimestampEnd",
          "type": "uint256"
        },
        {
          "internalType": "uint256",
          "name": "lastBlockNum",
          "type": "uint256"
        }
      ],
      "stateMutability": "view",
      "type": "function"
    },
    {
      "inputs": [
        {
          "internalType": "uint256",
          "name": "",
          "type": "uint256"
        }
      ],
      "name": "framesKeys",
      "outputs": [
        {
          "internalType": "uint256",
          "name": "",
          "type": "uint256"
        }
      ],
      "stateMutability": "view",
      "type": "function"
    },
    {
      "inputs": [
        {
          "internalType": "uint256",
          "name": "frameKey",
          "type": "uint256"
        },
        {
          "internalType": "uint256",
          "name": "lotKey",
          "type": "uint256"
        }
      ],
      "name": "getLot",
      "outputs": [
        {
          "components": [
            {
              "internalType": "uint256",
              "name": "lotKey",
              "type": "uint256"
            },
            {
              "internalType": "address",
              "name": "lotOwner",
              "type": "address"
            },
            {
              "internalType": "uint256",
              "name": "acquisitionPrice",
              "type": "uint256"
            },
            {
              "internalType": "enum Market.SLot",
              "name": "state",
              "type": "uint8"
            }
          ],
          "internalType": "struct Market.Lot",
          "name": "",
          "type": "tuple"
        }
      ],
      "stateMutability": "view",
      "type": "function"
    },
    {
      "inputs": [
        {
          "internalType": "uint256",
          "name": "frameKey",
          "type": "uint256"
        },
        {
          "internalType": "uint256",
          "name": "index",
          "type": "uint256"
        }
      ],
      "name": "getLotKey",
      "outputs": [
        {
          "internalType": "uint256",
          "name": "",
          "type": "uint256"
        }
      ],
      "stateMutability": "view",
      "type": "function"
    },
    {
      "inputs": [
        {
          "internalType": "uint256",
          "name": "frameKey",
          "type": "uint256"
        }
      ],
      "name": "getLotsCount",
      "outputs": [
        {
          "internalType": "uint256",
          "name": "",
          "type": "uint256"
        }
      ],
      "stateMutability": "view",
      "type": "function"
    },
    {
      "inputs": [],
      "name": "getNumberOfFrameKeys",
      "outputs": [
        {
          "internalType": "uint256",
          "name": "",
          "type": "uint256"
        }
      ],
      "stateMutability": "view",
      "type": "function"
    },
    {
      "inputs": [
        {
          "internalType": "uint256",
          "name": "timestamp",
          "type": "uint256"
        }
      ],
      "name": "getOrCreateFrame",
      "outputs": [
        {
          "internalType": "uint256",
          "name": "",
          "type": "uint256"
        }
      ],
      "stateMutability": "nonpayable",
      "type": "function"
    },
    {
      "inputs": [
        {
          "internalType": "uint256",
          "name": "frameKey",
          "type": "uint256"
        }
      ],
      "name": "getRewardAmount",
      "outputs": [
        {
          "internalType": "uint256",
          "name": "",
          "type": "uint256"
        }
      ],
      "stateMutability": "view",
      "type": "function"
    },
    {
      "inputs": [],
      "name": "initTimestamp",
      "outputs": [
        {
          "internalType": "uint256",
          "name": "",
          "type": "uint256"
        }
      ],
      "stateMutability": "view",
      "type": "function"
    },
    {
      "inputs": [],
      "name": "minTax",
      "outputs": [
        {
          "internalType": "uint256",
          "name": "",
          "type": "uint256"
        }
      ],
      "stateMutability": "view",
      "type": "function"
    },
    {
      "inputs": [],
      "name": "ownerMarket",
      "outputs": [
        {
          "internalType": "address payable",
          "name": "",
          "type": "address"
        }
      ],
      "stateMutability": "view",
      "type": "function"
    },
    {
      "inputs": [],
      "name": "period",
      "outputs": [
        {
          "internalType": "uint256",
          "name": "",
          "type": "uint256"
        }
      ],
      "stateMutability": "view",
      "type": "function"
    },
    {
      "inputs": [
        {
          "internalType": "uint256",
          "name": "frameKey",
          "type": "uint256"
        }
      ],
      "name": "settleLot",
      "outputs": [],
      "stateMutability": "nonpayable",
      "type": "function"
    },
    {
      "inputs": [],
      "name": "tReporting",
      "outputs": [
        {
          "internalType": "uint256",
          "name": "",
          "type": "uint256"
        }
      ],
      "stateMutability": "view",
      "type": "function"
    },
    {
      "inputs": [],
      "name": "taxMarket",
      "outputs": [
        {
          "internalType": "uint256",
          "name": "",
          "type": "uint256"
        }
      ],
      "stateMutability": "view",
      "type": "function"
    },
    {
      "inputs": [],
      "name": "uniswapPair",
      "outputs": [
        {
          "internalType": "contract IUniswapV2Pair",
          "name": "",
          "type": "address"
        }
      ],
      "stateMutability": "view",
      "type": "function"
    },
    {
      "inputs": [
        {
          "internalType": "uint256",
          "name": "PriceCumulative",
          "type": "uint256"
        }
      ],
      "name": "updateFramePrices",
      "outputs": [],
      "stateMutability": "nonpayable",
      "type": "function"
    },
    {
      "inputs": [
        {
          "internalType": "uint256",
          "name": "timestamp",
          "type": "uint256"
        },
        {
          "internalType": "uint256",
          "name": "pairPrice",
          "type": "uint256"
        },
        {
          "internalType": "uint256",
          "name": "acqPrice",
          "type": "uint256"
        }
      ],
      "name": "updateLotPrice",
      "outputs": [],
      "stateMutability": "nonpayable",
      "type": "function"
    }
  ],
  "bytecode": "0x6080604052606460095569d3c21bcecceda1000000600c553480156200002457600080fd5b5060405162003d3738038062003d3783398181016040528101906200004a9190620001ea565b88600160006101000a81548173ffffffffffffffffffffffffffffffffffffffff021916908373ffffffffffffffffffffffffffffffffffffffff16021790555033600260006101000a81548173ffffffffffffffffffffffffffffffffffffffff021916908373ffffffffffffffffffffffffffffffffffffffff1602179055508660038190555085600481905550846008819055508360078190555087600560006101000a81548173ffffffffffffffffffffffffffffffffffffffff021916908373ffffffffffffffffffffffffffffffffffffffff16021790555082600681905550896000806101000a81548173ffffffffffffffffffffffffffffffffffffffff021916908373ffffffffffffffffffffffffffffffffffffffff16021790555081600a8190555080600b8190555050505050505050505050620003bc565b6000815190506200019f8162000354565b92915050565b600081519050620001b6816200036e565b92915050565b600081519050620001cd8162000388565b92915050565b600081519050620001e481620003a2565b92915050565b6000806000806000806000806000806101408b8d0312156200020b57600080fd5b60006200021b8d828e01620001bc565b9a505060206200022e8d828e016200018e565b9950506040620002418d828e01620001a5565b9850506060620002548d828e01620001d3565b9750506080620002678d828e01620001d3565b96505060a06200027a8d828e01620001d3565b95505060c06200028d8d828e01620001d3565b94505060e0620002a08d828e01620001d3565b935050610100620002b48d828e01620001d3565b925050610120620002c88d828e01620001d3565b9150509295989b9194979a5092959850565b6000620002e7826200032a565b9050919050565b6000620002fb82620002da565b9050919050565b60006200030f82620002da565b9050919050565b60006200032382620002da565b9050919050565b600073ffffffffffffffffffffffffffffffffffffffff82169050919050565b6000819050919050565b6200035f81620002ee565b81146200036b57600080fd5b50565b620003798162000302565b81146200038557600080fd5b50565b620003938162000316565b81146200039f57600080fd5b50565b620003ad816200034a565b8114620003b957600080fd5b50565b61396b80620003cc6000396000f3fe608060405234801561001057600080fd5b50600436106101e55760003560e01c80637d6ae6a01161010f578063c45a0155116100a2578063e107fb4f11610071578063e107fb4f146105d8578063ef78d4fd14610608578063fc95070214610626578063ff5c86b014610642576101e5565b8063c45a01551461054e578063c816841b1461056c578063c84993af1461058a578063da68cf8b146105ba576101e5565b806389da88a3116100de57806389da88a3146104ac578063a10340bc146104ca578063a4d246ff14610502578063bb15d2dd14610532576101e5565b80637d6ae6a0146103fe5780637e9966391461042e578063830ab1191461044c578063888bdbcd1461047c576101e5565b806345084775116101875780635b3ad63e116101565780635b3ad63e146103645780636f1aefc3146103945780636f7cb60b146103c45780637358c57a146103e0576101e5565b806345084775146102ee578063499a0fc41461030c5780634d3ee2dc1461032a578063527eb4bc14610346576101e5565b80633c80d8ea116101c35780633c80d8ea146102665780633d09a82a146102825780633e16bc20146102a0578063410f0710146102d0576101e5565b8063050e8840146101ea5780630cbcff8f1461021a5780632a0efd441461024a575b600080fd5b61020460048036038101906101ff9190612c54565b610660565b6040516102119190613288565b60405180910390f35b610234600480360381019061022f9190612c54565b610684565b6040516102419190613288565b60405180910390f35b610264600480360381019061025f9190612c54565b61086b565b005b610280600480360381019061027b9190612ce2565b6109de565b005b61028a61111b565b6040516102979190613288565b60405180910390f35b6102ba60048036038101906102b59190612ca6565b611121565b6040516102c79190613288565b60405180910390f35b6102d8611184565b6040516102e59190613288565b60405180910390f35b6102f661118a565b6040516103039190612fcf565b60405180910390f35b6103146111b0565b6040516103219190613288565b60405180910390f35b610344600480360381019061033f9190612c54565b6111b6565b005b61034e61155f565b60405161035b9190613288565b60405180910390f35b61037e60048036038101906103799190612c54565b611565565b60405161038b9190613288565b60405180910390f35b6103ae60048036038101906103a99190612ca6565b6115a8565b6040516103bb919061326d565b60405180910390f35b6103de60048036038101906103d99190612c54565b6116db565b005b6103e8611936565b6040516103f59190613288565b60405180910390f35b61041860048036038101906104139190612c54565b61193c565b6040516104259190613288565b60405180910390f35b61043661196a565b6040516104439190613288565b60405180910390f35b61046660048036038101906104619190612c54565b611970565b6040516104739190613288565b60405180910390f35b61049660048036038101906104919190612c54565b611993565b6040516104a39190613288565b60405180910390f35b6104b46119d6565b6040516104c19190613288565b60405180910390f35b6104e460048036038101906104df9190612c54565b6119e3565b6040516104f9999897969594939291906132a3565b60405180910390f35b61051c60048036038101906105179190612ce2565b611a3e565b6040516105299190613288565b60405180910390f35b61054c60048036038101906105479190612ce2565b611aa9565b005b610556611fb2565b60405161056391906130d2565b60405180910390f35b610574611fd6565b60405161058191906130b7565b60405180910390f35b6105a4600480360381019061059f9190612c54565b611ffc565b6040516105b19190613288565b60405180910390f35b6105c261201c565b6040516105cf919061309c565b60405180910390f35b6105f260048036038101906105ed9190612ca6565b612042565b6040516105ff9190613288565b60405180910390f35b61061061211e565b60405161061d9190613288565b60405180910390f35b610640600480360381019061063b9190612c54565b612124565b005b61064a6128e8565b6040516106579190613288565b60405180910390f35b600e818154811061067057600080fd5b906000526020600020016000915090505481565b60008061069083611565565b9050600060038111156106cc577f4e487b7100000000000000000000000000000000000000000000000000000000600052602160045260246000fd5b600d600083815260200190815260200160002060010160009054906101000a900460ff166003811115610728577f4e487b7100000000000000000000000000000000000000000000000000000000600052602160045260246000fd5b146107365780915050610866565b61073f42611565565b811015610781576040517f08c379a00000000000000000000000000000000000000000000000000000000081526004016107789061314d565b60405180910390fd5b80600d6000838152602001908152602001600020600001819055506001600d600083815260200190815260200160002060010160006101000a81548160ff021916908360038111156107fc577f4e487b7100000000000000000000000000000000000000000000000000000000600052602160045260246000fd5b0217905550600e8190806001815401808255809150506001900390600052602060002001600090919091909150557f163614e6e9ce9df7687928015fd2c748b69c5136db886e57f09170b251b58e87816040516108599190613288565b60405180910390a1809150505b919050565b600061087642611565565b905043600d600083815260200190815260200160002060080181905550600a54600354826108a4919061336a565b6108ae919061347c565b42101580156108d357506000600d600083815260200190815260200160002060040154145b1561094a5781600d60008381526020019081526020016000206004018190555042600d6000838152602001908152602001600020600601819055507f163614e6e9ce9df7687928015fd2c748b69c5136db886e57f09170b251b58e878160405161093d9190613288565b60405180910390a16109da565b600a546003548261095b919061336a565b610965919061347c565b42106109d95781600d60008381526020019081526020016000206005018190555042600d6000838152602001908152602001600020600701819055507f163614e6e9ce9df7687928015fd2c748b69c5136db886e57f09170b251b58e87816040516109d09190613288565b60405180910390a15b5b5050565b806000620186a0600854836109f39190613422565b6109fd91906133f1565b9050600b54811015610a44576040517f08c379a0000000000000000000000000000000000000000000000000000000008152600401610a3b906131ad565b60405180910390fd5b6000610a4f86610684565b90506000610a5d82876128ee565b9050600d6000838152602001908152602001600020600901600082815260200190815260200160002060010160009054906101000a900473ffffffffffffffffffffffffffffffffffffffff1673ffffffffffffffffffffffffffffffffffffffff163373ffffffffffffffffffffffffffffffffffffffff161415610b18576040517f08c379a0000000000000000000000000000000000000000000000000000000008152600401610b0f9061320d565b60405180910390fd5b6000610b248387612042565b905080600d6000858152602001908152602001600020600901600084815260200190815260200160002060020154610b5c919061336a565b600160009054906101000a900473ffffffffffffffffffffffffffffffffffffffff1673ffffffffffffffffffffffffffffffffffffffff1663dd62ed3e33306040518363ffffffff1660e01b8152600401610bb9929190613013565b60206040518083038186803b158015610bd157600080fd5b505afa158015610be5573d6000803e3d6000fd5b505050506040513d601f19601f82011682018060405250810190610c099190612c7d565b1015610c4a576040517f08c379a0000000000000000000000000000000000000000000000000000000008152600401610c419061322d565b60405180910390fd5b600160009054906101000a900473ffffffffffffffffffffffffffffffffffffffff1673ffffffffffffffffffffffffffffffffffffffff166323b872dd333084600d6000898152602001908152602001600020600901600088815260200190815260200160002060020154610cc0919061336a565b6040518463ffffffff1660e01b8152600401610cde9392919061303c565b602060405180830381600087803b158015610cf857600080fd5b505af1158015610d0c573d6000803e3d6000fd5b505050506040513d601f19601f82011682018060405250810190610d309190612c2b565b5080600d600085815260200190815260200160002060030154610d53919061336a565b600d60008581526020019081526020016000206003018190555060016002811115610da7577f4e487b7100000000000000000000000000000000000000000000000000000000600052602160045260246000fd5b600d6000858152602001908152602001600020600901600084815260200190815260200160002060030160009054906101000a900460ff166002811115610e17577f4e487b7100000000000000000000000000000000000000000000000000000000600052602160045260246000fd5b1415610fc6576000610e5384600d6000878152602001908152602001600020600901600086815260200190815260200160002060020154612042565b9050600160009054906101000a900473ffffffffffffffffffffffffffffffffffffffff1673ffffffffffffffffffffffffffffffffffffffff1663a9059cbb600d6000878152602001908152602001600020600901600086815260200190815260200160002060010160009054906101000a900473ffffffffffffffffffffffffffffffffffffffff16600d600088815260200190815260200160002060090160008781526020019081526020016000206002015484610f14919061336a565b6040518363ffffffff1660e01b8152600401610f31929190613073565b602060405180830381600087803b158015610f4b57600080fd5b505af1158015610f5f573d6000803e3d6000fd5b505050506040513d601f19601f82011682018060405250810190610f839190612c2b565b5080600d600086815260200190815260200160002060030154610fa6919061347c565b600d60008681526020019081526020016000206003018190555050611040565b6001600d6000858152602001908152602001600020600901600084815260200190815260200160002060030160006101000a81548160ff0219169083600281111561103a577f4e487b7100000000000000000000000000000000000000000000000000000000600052602160045260246000fd5b02179055505b33600d6000858152602001908152602001600020600901600084815260200190815260200160002060010160006101000a81548173ffffffffffffffffffffffffffffffffffffffff021916908373ffffffffffffffffffffffffffffffffffffffff16021790555085600d60008581526020019081526020016000206009016000848152602001908152602001600020600201819055507fd0d6f900b5096e8e38e0b13b83d7ac826d0c461a139f26a9bfbee4b4d3d1e9198383604051611109929190613330565b60405180910390a15050505050505050565b600b5481565b6000600d6000848152602001908152602001600020600a018281548110611171577f4e487b7100000000000000000000000000000000000000000000000000000000600052603260045260246000fd5b9060005260206000200154905092915050565b60075481565b600260009054906101000a900473ffffffffffffffffffffffffffffffffffffffff1681565b60065481565b600260038111156111f0577f4e487b7100000000000000000000000000000000000000000000000000000000600052602160045260246000fd5b600d600083815260200190815260200160002060010160009054906101000a900460ff16600381111561124c577f4e487b7100000000000000000000000000000000000000000000000000000000600052602160045260246000fd5b1461128c576040517f08c379a0000000000000000000000000000000000000000000000000000000008152600401611283906131ed565b60405180910390fd5b60006112ad600d600084815260200190815260200160002060020154611993565b90506002808111156112e8577f4e487b7100000000000000000000000000000000000000000000000000000000600052602160045260246000fd5b600d6000848152602001908152602001600020600901600083815260200190815260200160002060030160009054906101000a900460ff166002811115611358577f4e487b7100000000000000000000000000000000000000000000000000000000600052602160045260246000fd5b1415611399576040517f08c379a00000000000000000000000000000000000000000000000000000000081526004016113909061318d565b60405180910390fd5b600160009054906101000a900473ffffffffffffffffffffffffffffffffffffffff1673ffffffffffffffffffffffffffffffffffffffff1663a9059cbb600d6000858152602001908152602001600020600901600084815260200190815260200160002060010160009054906101000a900473ffffffffffffffffffffffffffffffffffffffff16600d6000868152602001908152602001600020600301546040518363ffffffff1660e01b8152600401611456929190613073565b602060405180830381600087803b15801561147057600080fd5b505af1158015611484573d6000803e3d6000fd5b505050506040513d601f19601f820116820180604052508101906114a89190612c2b565b506002600d6000848152602001908152602001600020600901600083815260200190815260200160002060030160006101000a81548160ff0219169083600281111561151d577f4e487b7100000000000000000000000000000000000000000000000000000000600052602160045260246000fd5b02179055507fd0d6f900b5096e8e38e0b13b83d7ac826d0c461a139f26a9bfbee4b4d3d1e9198282604051611553929190613330565b60405180910390a15050565b60095481565b6000600454821161157a5760045490506115a3565b6003546004548361158b919061347c565b611595919061361e565b826115a0919061347c565b90505b919050565b6115b0612b07565b600d60008481526020019081526020016000206009016000838152602001908152602001600020604051806080016040529081600082015481526020016001820160009054906101000a900473ffffffffffffffffffffffffffffffffffffffff1673ffffffffffffffffffffffffffffffffffffffff1673ffffffffffffffffffffffffffffffffffffffff168152602001600282015481526020016003820160009054906101000a900460ff166002811115611697577f4e487b7100000000000000000000000000000000000000000000000000000000600052602160045260246000fd5b60028111156116cf577f4e487b7100000000000000000000000000000000000000000000000000000000600052602160045260246000fd5b81525050905092915050565b60008054906101000a900473ffffffffffffffffffffffffffffffffffffffff1673ffffffffffffffffffffffffffffffffffffffff16638da5cb5b6040518163ffffffff1660e01b815260040160206040518083038186803b15801561174157600080fd5b505afa158015611755573d6000803e3d6000fd5b505050506040513d601f19601f820116820180604052508101906117799190612c02565b73ffffffffffffffffffffffffffffffffffffffff163373ffffffffffffffffffffffffffffffffffffffff16146117e6576040517f08c379a00000000000000000000000000000000000000000000000000000000081526004016117dd9061316d565b60405180910390fd5b600160009054906101000a900473ffffffffffffffffffffffffffffffffffffffff1673ffffffffffffffffffffffffffffffffffffffff1663a9059cbb60008054906101000a900473ffffffffffffffffffffffffffffffffffffffff1673ffffffffffffffffffffffffffffffffffffffff16638da5cb5b6040518163ffffffff1660e01b815260040160206040518083038186803b15801561188a57600080fd5b505afa15801561189e573d6000803e3d6000fd5b505050506040513d601f19601f820116820180604052508101906118c29190612c02565b836040518363ffffffff1660e01b81526004016118e0929190613073565b602060405180830381600087803b1580156118fa57600080fd5b505af115801561190e573d6000803e3d6000fd5b505050506040513d601f19601f820116820180604052508101906119329190612c2b565b5050565b60045481565b60006001600354428461194f919061347c565b61195991906133f1565b611963919061336a565b9050919050565b60085481565b6000600d6000838152602001908152602001600020600a01805490509050919050565b60008082116119a65760065490506119d1565b600654600654600654846119ba91906133f1565b6119c49190613422565b6119ce919061336a565b90505b919050565b6000600e80549050905090565b600d6020528060005260406000206000915090508060000154908060010160009054906101000a900460ff16908060020154908060030154908060040154908060050154908060060154908060070154908060080154905089565b600080611a4a85611565565b90506000611a5785611993565b90506000611a658386612042565b905080600d6000858152602001908152602001600020600901600084815260200190815260200160002060020154611a9d919061336a565b93505050509392505050565b806000620186a060085483611abe9190613422565b611ac891906133f1565b9050600b54811015611b0f576040517f08c379a0000000000000000000000000000000000000000000000000000000008152600401611b06906131ad565b60405180910390fd5b6000611b1a86610684565b90506000611b2882876128ee565b90503373ffffffffffffffffffffffffffffffffffffffff16600d6000848152602001908152602001600020600901600083815260200190815260200160002060010160009054906101000a900473ffffffffffffffffffffffffffffffffffffffff1673ffffffffffffffffffffffffffffffffffffffff1614611be2576040517f08c379a0000000000000000000000000000000000000000000000000000000008152600401611bd9906131cd565b60405180910390fd5b6000611bee8387612042565b90506000611c2684600d6000878152602001908152602001600020600901600086815260200190815260200160002060020154612042565b905080821115611e33578082611c3c919061347c565b600160009054906101000a900473ffffffffffffffffffffffffffffffffffffffff1673ffffffffffffffffffffffffffffffffffffffff1663dd62ed3e33306040518363ffffffff1660e01b8152600401611c99929190613013565b60206040518083038186803b158015611cb157600080fd5b505afa158015611cc5573d6000803e3d6000fd5b505050506040513d601f19601f82011682018060405250810190611ce99190612c7d565b1015611d2a576040517f08c379a0000000000000000000000000000000000000000000000000000000008152600401611d219061322d565b60405180910390fd5b600160009054906101000a900473ffffffffffffffffffffffffffffffffffffffff1673ffffffffffffffffffffffffffffffffffffffff166323b872dd33308486611d76919061347c565b6040518463ffffffff1660e01b8152600401611d949392919061303c565b602060405180830381600087803b158015611dae57600080fd5b505af1158015611dc2573d6000803e3d6000fd5b505050506040513d601f19601f82011682018060405250810190611de69190612c2b565b508082611df3919061347c565b600d600086815260200190815260200160002060030154611e14919061336a565b600d600086815260200190815260200160002060030181905550611f3f565b80821015611f3e57600160009054906101000a900473ffffffffffffffffffffffffffffffffffffffff1673ffffffffffffffffffffffffffffffffffffffff1663a9059cbb338484611e86919061347c565b6040518363ffffffff1660e01b8152600401611ea3929190613073565b602060405180830381600087803b158015611ebd57600080fd5b505af1158015611ed1573d6000803e3d6000fd5b505050506040513d601f19601f82011682018060405250810190611ef59190612c2b565b508181611f02919061347c565b600d600086815260200190815260200160002060030154611f23919061347c565b600d6000868152602001908152602001600020600301819055505b5b86600d60008681526020019081526020016000206009016000858152602001908152602001600020600201819055507fd0d6f900b5096e8e38e0b13b83d7ac826d0c461a139f26a9bfbee4b4d3d1e9198484604051611f9f929190613330565b60405180910390a1505050505050505050565b60008054906101000a900473ffffffffffffffffffffffffffffffffffffffff1681565b600560009054906101000a900473ffffffffffffffffffffffffffffffffffffffff1681565b6000600d6000838152602001908152602001600020600301549050919050565b600160009054906101000a900473ffffffffffffffffffffffffffffffffffffffff1681565b6000806120744261206661206160035442612a2b90919063ffffffff16565b611565565b612a4190919063ffffffff16565b9050600060035482600c546120899190613422565b61209391906133f1565b905060006120a08661193c565b905080620186a0600854876120b59190613422565b6120bf91906133f1565b6120c99190613422565b93506000620186a0600854876120df9190613422565b6120e991906133f1565b9050600c5483826120fa9190613422565b61210491906133f1565b90508085612112919061336a565b94505050505092915050565b60035481565b806000600d60008381526020019081526020016000206004015411158061216257506000600d60008381526020019081526020016000206005015411155b15612207576003600d600083815260200190815260200160002060010160006101000a81548160ff021916908360038111156121c7577f4e487b7100000000000000000000000000000000000000000000000000000000600052602160045260246000fd5b02179055506040517f08c379a00000000000000000000000000000000000000000000000000000000081526004016121fe906130ed565b60405180910390fd5b600d600082815260200190815260200160002060050154600d60008381526020019081526020016000206004015414156122db576003600d600083815260200190815260200160002060010160006101000a81548160ff0219169083600381111561229b577f4e487b7100000000000000000000000000000000000000000000000000000000600052602160045260246000fd5b02179055506040517f08c379a00000000000000000000000000000000000000000000000000000000081526004016122d2906130ed565b60405180910390fd5b60016003811115612315577f4e487b7100000000000000000000000000000000000000000000000000000000600052602160045260246000fd5b600d600084815260200190815260200160002060010160009054906101000a900460ff166003811115612371577f4e487b7100000000000000000000000000000000000000000000000000000000600052602160045260246000fd5b146123b1576040517f08c379a00000000000000000000000000000000000000000000000000000000081526004016123a89061312d565b60405180910390fd5b42600354836123c0919061336a565b1115612401576040517f08c379a00000000000000000000000000000000000000000000000000000000081526004016123f89061310d565b60405180910390fd5b6002600d600084815260200190815260200160002060010160006101000a81548160ff02191690836003811115612461577f4e487b7100000000000000000000000000000000000000000000000000000000600052602160045260246000fd5b02179055506000600d600084815260200190815260200160002060040154600d6000858152602001908152602001600020600501546124a0919061347c565b90506000600d600085815260200190815260200160002060060154600d6000868152602001908152602001600020600701546124dc919061347c565b90506125146040518060200160405280847bffffffffffffffffffffffffffffffffffffffffffffffffffffffff1681525082612a57565b600001517bffffffffffffffffffffffffffffffffffffffffffffffffffffffff16600d6000868152602001908152602001600020600201819055507406d79f82328ea3da61e066ebb2f88a0000000000006070600d600087815260200190815260200160002060020154901b61258b91906133f1565b600c546070600d600088815260200190815260200160002060020154901c6125b39190613422565b6125bd919061336a565b600d6000868152602001908152602001600020600201819055506000620186a0600754600d6000888152602001908152602001600020600301546126019190613422565b61260b91906133f1565b90506000620186a0600954600d6000898152602001908152602001600020600301546126379190613422565b61264191906133f1565b90508082600d600089815260200190815260200160002060030154612666919061347c565b612670919061347c565b600d600088815260200190815260200160002060030181905550600160009054906101000a900473ffffffffffffffffffffffffffffffffffffffff1673ffffffffffffffffffffffffffffffffffffffff1663a9059cbb600260009054906101000a900473ffffffffffffffffffffffffffffffffffffffff16846040518363ffffffff1660e01b8152600401612709929190612fea565b602060405180830381600087803b15801561272357600080fd5b505af1158015612737573d6000803e3d6000fd5b505050506040513d601f19601f8201168201806040525081019061275b9190612c2b565b50600160009054906101000a900473ffffffffffffffffffffffffffffffffffffffff1673ffffffffffffffffffffffffffffffffffffffff1663a9059cbb60008054906101000a900473ffffffffffffffffffffffffffffffffffffffff1673ffffffffffffffffffffffffffffffffffffffff16638da5cb5b6040518163ffffffff1660e01b815260040160206040518083038186803b15801561280057600080fd5b505afa158015612814573d6000803e3d6000fd5b505050506040513d601f19601f820116820180604052508101906128389190612c02565b836040518363ffffffff1660e01b8152600401612856929190613073565b602060405180830381600087803b15801561287057600080fd5b505af1158015612884573d6000803e3d6000fd5b505050506040513d601f19601f820116820180604052508101906128a89190612c2b565b507f163614e6e9ce9df7687928015fd2c748b69c5136db886e57f09170b251b58e87866040516128d89190613288565b60405180910390a1505050505050565b600a5481565b6000806128fa83611993565b905060006002811115612936577f4e487b7100000000000000000000000000000000000000000000000000000000600052602160045260246000fd5b600d6000868152602001908152602001600020600901600083815260200190815260200160002060030160009054906101000a900460ff1660028111156129a6577f4e487b7100000000000000000000000000000000000000000000000000000000600052602160045260246000fd5b146129b45780915050612a25565b80600d6000868152602001908152602001600020600901600083815260200190815260200160002060000181905550600d6000858152602001908152602001600020600a01819080600181540180825580915050600190039060005260206000200160009091909190915055809150505b92915050565b60008183612a39919061336a565b905092915050565b60008183612a4f919061347c565b905092915050565b612a5f612b7d565b6000826dffffffffffffffffffffffffffff161415612ab3576040517f08c379a0000000000000000000000000000000000000000000000000000000008152600401612aaa9061324d565b60405180910390fd5b6040518060200160405280836dffffffffffffffffffffffffffff168560000151612ade91906133c0565b7bffffffffffffffffffffffffffffffffffffffffffffffffffffffff16815250905092915050565b604051806080016040528060008152602001600073ffffffffffffffffffffffffffffffffffffffff1681526020016000815260200160006002811115612b77577f4e487b7100000000000000000000000000000000000000000000000000000000600052602160045260246000fd5b81525090565b604051806020016040528060007bffffffffffffffffffffffffffffffffffffffffffffffffffffffff1681525090565b600081519050612bbd816138f0565b92915050565b600081519050612bd281613907565b92915050565b600081359050612be78161391e565b92915050565b600081519050612bfc8161391e565b92915050565b600060208284031215612c1457600080fd5b6000612c2284828501612bae565b91505092915050565b600060208284031215612c3d57600080fd5b6000612c4b84828501612bc3565b91505092915050565b600060208284031215612c6657600080fd5b6000612c7484828501612bd8565b91505092915050565b600060208284031215612c8f57600080fd5b6000612c9d84828501612bed565b91505092915050565b60008060408385031215612cb957600080fd5b6000612cc785828601612bd8565b9250506020612cd885828601612bd8565b9150509250929050565b600080600060608486031215612cf757600080fd5b6000612d0586828701612bd8565b9350506020612d1686828701612bd8565b9250506040612d2786828701612bd8565b9150509250925092565b612d3a81613558565b82525050565b612d49816134c2565b82525050565b612d58816134b0565b82525050565b612d67816134b0565b82525050565b612d768161356a565b82525050565b612d858161358e565b82525050565b612d94816135b2565b82525050565b612da3816135d6565b82525050565b612db2816135e8565b82525050565b6000612dc5600e83613359565b9150612dd0826136dc565b602082019050919050565b6000612de8601a83613359565b9150612df382613705565b602082019050919050565b6000612e0b601083613359565b9150612e168261372e565b602082019050919050565b6000612e2e601a83613359565b9150612e3982613757565b602082019050919050565b6000612e51601d83613359565b9150612e5c82613780565b602082019050919050565b6000612e74601383613359565b9150612e7f826137a9565b602082019050919050565b6000612e97601083613359565b9150612ea2826137d2565b602082019050919050565b6000612eba601d83613359565b9150612ec5826137fb565b602082019050919050565b6000612edd601083613359565b9150612ee882613824565b602082019050919050565b6000612f00601f83613359565b9150612f0b8261384d565b602082019050919050565b6000612f23601c83613359565b9150612f2e82613876565b602082019050919050565b6000612f46601783613359565b9150612f518261389f565b602082019050919050565b608082016000820151612f726000850182612fb1565b506020820151612f856020850182612d4f565b506040820151612f986040850182612fb1565b506060820151612fab6060850182612da9565b50505050565b612fba8161354e565b82525050565b612fc98161354e565b82525050565b6000602082019050612fe46000830184612d40565b92915050565b6000604082019050612fff6000830185612d31565b61300c6020830184612fc0565b9392505050565b60006040820190506130286000830185612d5e565b6130356020830184612d5e565b9392505050565b60006060820190506130516000830186612d5e565b61305e6020830185612d5e565b61306b6040830184612fc0565b949350505050565b60006040820190506130886000830185612d5e565b6130956020830184612fc0565b9392505050565b60006020820190506130b16000830184612d6d565b92915050565b60006020820190506130cc6000830184612d7c565b92915050565b60006020820190506130e76000830184612d8b565b92915050565b6000602082019050818103600083015261310681612db8565b9050919050565b6000602082019050818103600083015261312681612ddb565b9050919050565b6000602082019050818103600083015261314681612dfe565b9050919050565b6000602082019050818103600083015261316681612e21565b9050919050565b6000602082019050818103600083015261318681612e44565b9050919050565b600060208201905081810360008301526131a681612e67565b9050919050565b600060208201905081810360008301526131c681612e8a565b9050919050565b600060208201905081810360008301526131e681612ead565b9050919050565b6000602082019050818103600083015261320681612ed0565b9050919050565b6000602082019050818103600083015261322681612ef3565b9050919050565b6000602082019050818103600083015261324681612f16565b9050919050565b6000602082019050818103600083015261326681612f39565b9050919050565b60006080820190506132826000830184612f5c565b92915050565b600060208201905061329d6000830184612fc0565b92915050565b6000610120820190506132b9600083018c612fc0565b6132c6602083018b612d9a565b6132d3604083018a612fc0565b6132e06060830189612fc0565b6132ed6080830188612fc0565b6132fa60a0830187612fc0565b61330760c0830186612fc0565b61331460e0830185612fc0565b613322610100830184612fc0565b9a9950505050505050505050565b60006040820190506133456000830185612fc0565b6133526020830184612fc0565b9392505050565b600082825260208201905092915050565b60006133758261354e565b91506133808361354e565b9250827fffffffffffffffffffffffffffffffffffffffffffffffffffffffffffffffff038211156133b5576133b461364f565b5b828201905092915050565b60006133cb82613526565b91506133d683613526565b9250826133e6576133e561367e565b5b828204905092915050565b60006133fc8261354e565b91506134078361354e565b9250826134175761341661367e565b5b828204905092915050565b600061342d8261354e565b91506134388361354e565b9250817fffffffffffffffffffffffffffffffffffffffffffffffffffffffffffffffff04831182151516156134715761347061364f565b5b828202905092915050565b60006134878261354e565b91506134928361354e565b9250828210156134a5576134a461364f565b5b828203905092915050565b60006134bb82613506565b9050919050565b60006134cd82613506565b9050919050565b60008115159050919050565b60008190506134ee826138c8565b919050565b6000819050613501826138dc565b919050565b600073ffffffffffffffffffffffffffffffffffffffff82169050919050565b60007bffffffffffffffffffffffffffffffffffffffffffffffffffffffff82169050919050565b6000819050919050565b6000613563826135fa565b9050919050565b60006135758261357c565b9050919050565b600061358782613506565b9050919050565b6000613599826135a0565b9050919050565b60006135ab82613506565b9050919050565b60006135bd826135c4565b9050919050565b60006135cf82613506565b9050919050565b60006135e1826134e0565b9050919050565b60006135f3826134f3565b9050919050565b60006136058261360c565b9050919050565b600061361782613506565b9050919050565b60006136298261354e565b91506136348361354e565b9250826136445761364361367e565b5b828206905092915050565b7f4e487b7100000000000000000000000000000000000000000000000000000000600052601160045260246000fd5b7f4e487b7100000000000000000000000000000000000000000000000000000000600052601260045260246000fd5b7f4e487b7100000000000000000000000000000000000000000000000000000000600052602160045260246000fd5b7f494e56414c494420505249434553000000000000000000000000000000000000600082015250565b7f4652414d4520454e442054494d45204e4f542052454143484544000000000000600082015250565b7f4652414d45204e4f54204f50454e454400000000000000000000000000000000600082015250565b7f43414e275420435245415445204652414d4520494e2050415354000000000000600082015250565b7f594f5520415245204e4f542054484520464143544f5259204f574e4552000000600082015250565b7f4c4f5420414c524541445920534554544c454400000000000000000000000000600082015250565b7f505249434520495320544f4f204c4f5700000000000000000000000000000000600082015250565b7f544849532041444452455353204953204e4f5420544845204f574e4552000000600082015250565b7f4652414d45204e4f5420434c4f53454400000000000000000000000000000000600082015250565b7f4144445245535320414c5245414459204f574e53205448452050415243454c00600082015250565b7f415050524f56454420414d4f554e5420495320544f4f20534d414c4c00000000600082015250565b7f4669786564506f696e743a204449565f42595f5a45524f000000000000000000600082015250565b600481106138d9576138d86136ad565b5b50565b600381106138ed576138ec6136ad565b5b50565b6138f9816134b0565b811461390457600080fd5b50565b613910816134d4565b811461391b57600080fd5b50565b6139278161354e565b811461393257600080fd5b5056fea264697066735822122064843c92ff2e48ad891ecd771d661bfb541308f49c73f90e23c7788910be97e364736f6c63430008040033",
  "linkReferences": {},
  "deployedLinkReferences": {}
}