{
  "_format": "hh-sol-artifact-1",
  "contractName": "Market",
  "sourceName": "contracts/Market.sol",
  "abi": [
    {
      "inputs": [],
      "stateMutability": "nonpayable",
      "type": "constructor"
    },
    {
      "anonymous": false,
      "inputs": [
        {
          "components": [
            {
              "internalType": "uint256",
              "name": "frameKey",
              "type": "uint256"
            },
            {
              "internalType": "uint256",
              "name": "rate",
              "type": "uint256"
            },
            {
              "internalType": "uint256[]",
              "name": "lotKeys",
              "type": "uint256[]"
            },
            {
              "internalType": "address",
              "name": "claimedBy",
              "type": "address"
            },
            {
              "internalType": "uint256",
              "name": "rateSettle",
              "type": "uint256"
            },
            {
              "internalType": "uint256",
              "name": "feeSettle",
              "type": "uint256"
            },
            {
              "internalType": "uint256",
              "name": "rewardSettle",
              "type": "uint256"
            },
            {
              "internalType": "uint256",
              "name": "feeReferral",
              "type": "uint256"
            }
          ],
          "indexed": false,
          "internalType": "struct Market.Frame",
          "name": "frame",
          "type": "tuple"
        }
      ],
      "name": "FrameUpdate",
      "type": "event"
    },
    {
      "anonymous": false,
      "inputs": [
        {
          "components": [
            {
              "internalType": "uint256",
              "name": "frameKey",
              "type": "uint256"
            },
            {
              "internalType": "uint256",
              "name": "lotKey",
              "type": "uint256"
            },
            {
              "components": [
                {
                  "internalType": "uint256",
                  "name": "blockNumber",
                  "type": "uint256"
                },
                {
                  "internalType": "uint256",
                  "name": "blockTimestamp",
                  "type": "uint256"
                },
                {
                  "internalType": "address",
                  "name": "owner",
                  "type": "address"
                },
                {
                  "internalType": "uint256",
                  "name": "acquisitionPrice",
                  "type": "uint256"
                },
                {
                  "internalType": "uint256",
                  "name": "taxCharged",
                  "type": "uint256"
                },
                {
                  "internalType": "uint256",
                  "name": "taxRefunded",
                  "type": "uint256"
                }
              ],
              "internalType": "struct Market.LotState[]",
              "name": "states",
              "type": "tuple[]"
            }
          ],
          "indexed": false,
          "internalType": "struct Market.Lot",
          "name": "lot",
          "type": "tuple"
        }
      ],
      "name": "LotUpdate",
      "type": "event"
    },
    {
      "inputs": [],
      "name": "accountingToken",
      "outputs": [
        {
          "internalType": "contract IERC20",
          "name": "",
          "type": "address"
        }
      ],
      "stateMutability": "view",
      "type": "function"
    },
    {
      "inputs": [],
      "name": "claimReferralRewards",
      "outputs": [],
      "stateMutability": "nonpayable",
      "type": "function"
    },
    {
      "inputs": [
        {
          "internalType": "uint256",
          "name": "timestamp",
          "type": "uint256"
        }
      ],
      "name": "clcFrameKey",
      "outputs": [
        {
          "internalType": "uint256",
          "name": "",
          "type": "uint256"
        }
      ],
      "stateMutability": "view",
      "type": "function"
    },
    {
      "inputs": [
        {
          "internalType": "uint256",
          "name": "value",
          "type": "uint256"
        }
      ],
      "name": "clcLotKey",
      "outputs": [
        {
          "internalType": "uint256",
          "name": "",
          "type": "uint256"
        }
      ],
      "stateMutability": "view",
      "type": "function"
    },
    {
      "inputs": [],
      "name": "clcRate",
      "outputs": [
        {
          "internalType": "uint256",
          "name": "",
          "type": "uint256"
        }
      ],
      "stateMutability": "view",
      "type": "function"
    },
    {
      "inputs": [
        {
          "internalType": "uint256",
          "name": "timestamp",
          "type": "uint256"
        }
      ],
      "name": "clcRateAvg",
      "outputs": [
        {
          "internalType": "uint256",
          "name": "",
          "type": "uint256"
        }
      ],
      "stateMutability": "view",
      "type": "function"
    },
    {
      "inputs": [
        {
          "internalType": "uint256",
          "name": "frameKey",
          "type": "uint256"
        }
      ],
      "name": "clcRewardFund",
      "outputs": [
        {
          "internalType": "uint256",
          "name": "",
          "type": "uint256"
        }
      ],
      "stateMutability": "view",
      "type": "function"
    },
    {
      "inputs": [
        {
          "internalType": "uint256",
          "name": "frameKey",
          "type": "uint256"
        },
        {
          "internalType": "uint256",
          "name": "acquisitionPrice",
          "type": "uint256"
        }
      ],
      "name": "clcTax",
      "outputs": [
        {
          "internalType": "uint256",
          "name": "",
          "type": "uint256"
        }
      ],
      "stateMutability": "view",
      "type": "function"
    },
    {
      "inputs": [
        {
          "internalType": "uint256",
          "name": "frameKey",
          "type": "uint256"
        },
        {
          "internalType": "uint256",
          "name": "lotKey",
          "type": "uint256"
        }
      ],
      "name": "concatenate",
      "outputs": [
        {
          "internalType": "uint256",
          "name": "concatenated",
          "type": "uint256"
        }
      ],
      "stateMutability": "pure",
      "type": "function"
    },
    {
      "inputs": [],
      "name": "dPrice",
      "outputs": [
        {
          "internalType": "uint256",
          "name": "",
          "type": "uint256"
        }
      ],
      "stateMutability": "view",
      "type": "function"
    },
    {
      "inputs": [],
      "name": "feeProtocol",
      "outputs": [
        {
          "internalType": "uint256",
          "name": "",
          "type": "uint256"
        }
      ],
      "stateMutability": "view",
      "type": "function"
    },
    {
      "inputs": [
        {
          "internalType": "uint256",
          "name": "",
          "type": "uint256"
        }
      ],
      "name": "frames",
      "outputs": [
        {
          "internalType": "uint256",
          "name": "frameKey",
          "type": "uint256"
        },
        {
          "internalType": "uint256",
          "name": "rate",
          "type": "uint256"
        },
        {
          "internalType": "address",
          "name": "claimedBy",
          "type": "address"
        },
        {
          "internalType": "uint256",
          "name": "rateSettle",
          "type": "uint256"
        },
        {
          "internalType": "uint256",
          "name": "feeSettle",
          "type": "uint256"
        },
        {
          "internalType": "uint256",
          "name": "rewardSettle",
          "type": "uint256"
        },
        {
          "internalType": "uint256",
          "name": "feeReferral",
          "type": "uint256"
        }
      ],
      "stateMutability": "view",
      "type": "function"
    },
    {
      "inputs": [
        {
          "internalType": "uint256",
          "name": "",
          "type": "uint256"
        }
      ],
      "name": "framesKeys",
      "outputs": [
        {
          "internalType": "uint256",
          "name": "",
          "type": "uint256"
        }
      ],
      "stateMutability": "view",
      "type": "function"
    },
    {
      "inputs": [
        {
          "internalType": "uint256",
          "name": "frameKey",
          "type": "uint256"
        }
      ],
      "name": "getFrame",
      "outputs": [
        {
          "components": [
            {
              "internalType": "uint256",
              "name": "frameKey",
              "type": "uint256"
            },
            {
              "internalType": "uint256",
              "name": "rate",
              "type": "uint256"
            },
            {
              "internalType": "uint256[]",
              "name": "lotKeys",
              "type": "uint256[]"
            },
            {
              "internalType": "address",
              "name": "claimedBy",
              "type": "address"
            },
            {
              "internalType": "uint256",
              "name": "rateSettle",
              "type": "uint256"
            },
            {
              "internalType": "uint256",
              "name": "feeSettle",
              "type": "uint256"
            },
            {
              "internalType": "uint256",
              "name": "rewardSettle",
              "type": "uint256"
            },
            {
              "internalType": "uint256",
              "name": "feeReferral",
              "type": "uint256"
            }
          ],
          "internalType": "struct Market.Frame",
          "name": "",
          "type": "tuple"
        }
      ],
      "stateMutability": "view",
      "type": "function"
    },
    {
      "inputs": [
        {
          "internalType": "uint256",
          "name": "frameKey",
          "type": "uint256"
        }
      ],
      "name": "getFrameLotKeys",
      "outputs": [
        {
          "internalType": "uint256[]",
          "name": "",
          "type": "uint256[]"
        }
      ],
      "stateMutability": "view",
      "type": "function"
    },
    {
      "inputs": [],
      "name": "getFramesLength",
      "outputs": [
        {
          "internalType": "uint256",
          "name": "",
          "type": "uint256"
        }
      ],
      "stateMutability": "view",
      "type": "function"
    },
    {
      "inputs": [
        {
          "internalType": "uint256",
          "name": "frameKey",
          "type": "uint256"
        },
        {
          "internalType": "uint256",
          "name": "lotKey",
          "type": "uint256"
        }
      ],
      "name": "getLot",
      "outputs": [
        {
          "components": [
            {
              "internalType": "uint256",
              "name": "frameKey",
              "type": "uint256"
            },
            {
              "internalType": "uint256",
              "name": "lotKey",
              "type": "uint256"
            },
            {
              "components": [
                {
                  "internalType": "uint256",
                  "name": "blockNumber",
                  "type": "uint256"
                },
                {
                  "internalType": "uint256",
                  "name": "blockTimestamp",
                  "type": "uint256"
                },
                {
                  "internalType": "address",
                  "name": "owner",
                  "type": "address"
                },
                {
                  "internalType": "uint256",
                  "name": "acquisitionPrice",
                  "type": "uint256"
                },
                {
                  "internalType": "uint256",
                  "name": "taxCharged",
                  "type": "uint256"
                },
                {
                  "internalType": "uint256",
                  "name": "taxRefunded",
                  "type": "uint256"
                }
              ],
              "internalType": "struct Market.LotState[]",
              "name": "states",
              "type": "tuple[]"
            }
          ],
          "internalType": "struct Market.Lot",
          "name": "",
          "type": "tuple"
        }
      ],
      "stateMutability": "view",
      "type": "function"
    },
    {
      "inputs": [
        {
          "internalType": "uint256",
          "name": "frameKey",
          "type": "uint256"
        },
        {
          "internalType": "uint256",
          "name": "lotKey",
          "type": "uint256"
        }
      ],
      "name": "getLotStates",
      "outputs": [
        {
          "components": [
            {
              "internalType": "uint256",
              "name": "blockNumber",
              "type": "uint256"
            },
            {
              "internalType": "uint256",
              "name": "blockTimestamp",
              "type": "uint256"
            },
            {
              "internalType": "address",
              "name": "owner",
              "type": "address"
            },
            {
              "internalType": "uint256",
              "name": "acquisitionPrice",
              "type": "uint256"
            },
            {
              "internalType": "uint256",
              "name": "taxCharged",
              "type": "uint256"
            },
            {
              "internalType": "uint256",
              "name": "taxRefunded",
              "type": "uint256"
            }
          ],
          "internalType": "struct Market.LotState[]",
          "name": "",
          "type": "tuple[]"
        }
      ],
      "stateMutability": "view",
      "type": "function"
    },
    {
      "inputs": [],
      "name": "getLotsArray",
      "outputs": [
        {
          "internalType": "uint256[]",
          "name": "",
          "type": "uint256[]"
        }
      ],
      "stateMutability": "view",
      "type": "function"
    },
    {
      "inputs": [],
      "name": "getLotsArrayLength",
      "outputs": [
        {
          "internalType": "uint256",
          "name": "",
          "type": "uint256"
        }
      ],
      "stateMutability": "view",
      "type": "function"
    },
    {
      "inputs": [
        {
          "internalType": "uint256",
          "name": "frameKey",
          "type": "uint256"
        }
      ],
      "name": "getLotsKeysInFrame",
      "outputs": [
        {
          "internalType": "uint256[]",
          "name": "",
          "type": "uint256[]"
        }
      ],
      "stateMutability": "view",
      "type": "function"
    },
    {
      "inputs": [
        {
          "internalType": "uint256",
          "name": "frameKey",
          "type": "uint256"
        }
      ],
      "name": "getLotsLength",
      "outputs": [
        {
          "internalType": "uint256",
          "name": "",
          "type": "uint256"
        }
      ],
      "stateMutability": "view",
      "type": "function"
    },
    {
      "inputs": [
        {
          "internalType": "uint256",
          "name": "frameKey",
          "type": "uint256"
        }
      ],
      "name": "getStateFrame",
      "outputs": [
        {
          "internalType": "enum Market.SFrame",
          "name": "",
          "type": "uint8"
        }
      ],
      "stateMutability": "view",
      "type": "function"
    },
    {
      "inputs": [
        {
          "internalType": "uint256",
          "name": "frameKey",
          "type": "uint256"
        },
        {
          "internalType": "uint256",
          "name": "lotKey",
          "type": "uint256"
        }
      ],
      "name": "getStateLot",
      "outputs": [
        {
          "internalType": "enum Market.SLot",
          "name": "",
          "type": "uint8"
        }
      ],
      "stateMutability": "view",
      "type": "function"
    },
    {
      "inputs": [
        {
          "internalType": "address",
          "name": "userAddr",
          "type": "address"
        }
      ],
      "name": "getUncollectedRewards",
      "outputs": [
        {
          "internalType": "uint256",
          "name": "",
          "type": "uint256"
        }
      ],
      "stateMutability": "view",
      "type": "function"
    },
    {
      "inputs": [
        {
          "internalType": "address",
          "name": "user",
          "type": "address"
        },
        {
          "internalType": "uint256",
          "name": "frameKey",
          "type": "uint256"
        }
      ],
      "name": "getUserReward",
      "outputs": [
        {
          "internalType": "uint256",
          "name": "",
          "type": "uint256"
        }
      ],
      "stateMutability": "view",
      "type": "function"
    },
    {
      "inputs": [],
      "name": "getUsersArray",
      "outputs": [
        {
          "internalType": "address[]",
          "name": "",
          "type": "address[]"
        }
      ],
      "stateMutability": "view",
      "type": "function"
    },
    {
      "inputs": [],
      "name": "getUsersArrayLength",
      "outputs": [
        {
          "internalType": "uint256",
          "name": "",
          "type": "uint256"
        }
      ],
      "stateMutability": "view",
      "type": "function"
    },
    {
      "inputs": [
        {
          "internalType": "address",
          "name": "user",
          "type": "address"
        }
      ],
      "name": "getUsersRewardArrays",
      "outputs": [
        {
          "internalType": "uint256[]",
          "name": "rewards",
          "type": "uint256[]"
        },
        {
          "internalType": "uint256[]",
          "name": "collected",
          "type": "uint256[]"
        }
      ],
      "stateMutability": "view",
      "type": "function"
    },
    {
      "inputs": [],
      "name": "initTimestamp",
      "outputs": [
        {
          "internalType": "uint256",
          "name": "",
          "type": "uint256"
        }
      ],
      "stateMutability": "view",
      "type": "function"
    },
    {
      "inputs": [
        {
          "internalType": "uint256",
          "name": "",
          "type": "uint256"
        },
        {
          "internalType": "uint256",
          "name": "",
          "type": "uint256"
        }
      ],
      "name": "lots",
      "outputs": [
        {
          "internalType": "uint256",
          "name": "frameKey",
          "type": "uint256"
        },
        {
          "internalType": "uint256",
          "name": "lotKey",
          "type": "uint256"
        }
      ],
      "stateMutability": "view",
      "type": "function"
    },
    {
      "inputs": [
        {
          "internalType": "uint256",
          "name": "",
          "type": "uint256"
        }
      ],
      "name": "lotsArray",
      "outputs": [
        {
          "internalType": "uint256",
          "name": "",
          "type": "uint256"
        }
      ],
      "stateMutability": "view",
      "type": "function"
    },
    {
      "inputs": [
        {
          "components": [
            {
              "internalType": "uint256",
              "name": "frameKey",
              "type": "uint256"
            },
            {
              "internalType": "uint256",
              "name": "rate",
              "type": "uint256"
            },
            {
              "internalType": "uint256[]",
              "name": "lotKeys",
              "type": "uint256[]"
            },
            {
              "internalType": "address",
              "name": "claimedBy",
              "type": "address"
            },
            {
              "internalType": "uint256",
              "name": "rateSettle",
              "type": "uint256"
            },
            {
              "internalType": "uint256",
              "name": "feeSettle",
              "type": "uint256"
            },
            {
              "internalType": "uint256",
              "name": "rewardSettle",
              "type": "uint256"
            },
            {
              "internalType": "uint256",
              "name": "feeReferral",
              "type": "uint256"
            }
          ],
          "internalType": "struct Market.Frame",
          "name": "frame",
          "type": "tuple"
        },
        {
          "internalType": "uint256",
          "name": "avgPrice",
          "type": "uint256"
        }
      ],
      "name": "overrideFrameRate",
      "outputs": [],
      "stateMutability": "nonpayable",
      "type": "function"
    },
    {
      "inputs": [],
      "name": "owner",
      "outputs": [
        {
          "internalType": "address",
          "name": "",
          "type": "address"
        }
      ],
      "stateMutability": "view",
      "type": "function"
    },
    {
      "inputs": [],
      "name": "period",
      "outputs": [
        {
          "internalType": "uint256",
          "name": "",
          "type": "uint256"
        }
      ],
      "stateMutability": "view",
      "type": "function"
    },
    {
      "inputs": [],
      "name": "referralPct",
      "outputs": [
        {
          "internalType": "uint256",
          "name": "",
          "type": "uint256"
        }
      ],
      "stateMutability": "view",
      "type": "function"
    },
    {
      "inputs": [
        {
          "internalType": "address",
          "name": "user",
          "type": "address"
        }
      ],
      "name": "referredBy",
      "outputs": [
        {
          "internalType": "address",
          "name": "",
          "type": "address"
        }
      ],
      "stateMutability": "view",
      "type": "function"
    },
    {
      "inputs": [
        {
          "internalType": "uint256",
          "name": "frameKey",
          "type": "uint256"
        }
      ],
      "name": "setFrameRate",
      "outputs": [],
      "stateMutability": "nonpayable",
      "type": "function"
    },
    {
      "inputs": [
        {
          "internalType": "uint256",
          "name": "frameKey",
          "type": "uint256"
        }
      ],
      "name": "settleFrame",
      "outputs": [
        {
          "internalType": "uint256",
          "name": "",
          "type": "uint256"
        }
      ],
      "stateMutability": "nonpayable",
      "type": "function"
    },
    {
      "inputs": [],
      "name": "tSettle",
      "outputs": [
        {
          "internalType": "uint256",
          "name": "",
          "type": "uint256"
        }
      ],
      "stateMutability": "view",
      "type": "function"
    },
    {
      "inputs": [],
      "name": "taxMarket",
      "outputs": [
        {
          "internalType": "uint256",
          "name": "",
          "type": "uint256"
        }
      ],
      "stateMutability": "view",
      "type": "function"
    },
    {
      "inputs": [
        {
          "internalType": "uint256",
          "name": "timestamp",
          "type": "uint256"
        },
        {
          "internalType": "uint256",
          "name": "rate",
          "type": "uint256"
        },
        {
          "internalType": "uint256",
          "name": "acquisitionPrice",
          "type": "uint256"
        },
        {
          "internalType": "address",
          "name": "referrer",
          "type": "address"
        }
      ],
      "name": "tradeLot",
      "outputs": [],
      "stateMutability": "nonpayable",
      "type": "function"
    },
    {
      "inputs": [],
      "name": "uniswapPool",
      "outputs": [
        {
          "internalType": "contract IUniswapV3Pool",
          "name": "",
          "type": "address"
        }
      ],
      "stateMutability": "view",
      "type": "function"
    },
    {
      "inputs": [
        {
          "internalType": "address",
          "name": "user",
          "type": "address"
        }
      ],
      "name": "userExists",
      "outputs": [
        {
          "internalType": "bool",
          "name": "",
          "type": "bool"
        }
      ],
      "stateMutability": "view",
      "type": "function"
    },
    {
      "inputs": [
        {
          "internalType": "address",
          "name": "",
          "type": "address"
        }
      ],
      "name": "users",
      "outputs": [
        {
          "internalType": "bool",
          "name": "exists",
          "type": "bool"
        },
        {
          "internalType": "address",
          "name": "referredBy",
          "type": "address"
        }
      ],
      "stateMutability": "view",
      "type": "function"
    },
    {
      "inputs": [
        {
          "internalType": "uint256",
          "name": "",
          "type": "uint256"
        }
      ],
      "name": "usersArray",
      "outputs": [
        {
          "internalType": "address",
          "name": "",
          "type": "address"
        }
      ],
      "stateMutability": "view",
      "type": "function"
    },
    {
      "inputs": [
        {
          "internalType": "uint256",
          "name": "amount",
          "type": "uint256"
        }
      ],
      "name": "withdrawAccountingToken",
      "outputs": [],
      "stateMutability": "nonpayable",
      "type": "function"
    }
  ],
  "bytecode": "0x608060405262015180600055636592e180600155666a94d74f430000600255610258600355600480546001600160a01b03199081167367a9fe12fa6082d9d0203c84c6c56d3c4b269f281790915568056bc75e2d63100000600555662386f26fc1000060065560078054909116738f3cf7ad23cd3cadbd9735aff958023239c6a0631790556611c37937e0800060095534801561009b57600080fd5b50600880546001600160a01b03191633179055614979806100bd6000396000f3fe608060405234801561001057600080fd5b50600436106102955760003560e01c80639592de1811610167578063bdd3d825116100ce578063e107fb4f11610087578063e107fb4f146106f7578063ed320aa81461070a578063ef78d4fd14610712578063fb0d5e091461071b578063ffdabe2d1461073b578063ffde58621461074e57600080fd5b8063bdd3d82514610690578063c0423f2e146106a3578063d18743dd146106ab578063d8d50008146106be578063d8ff2a8c146106d1578063da68cf8b146106e457600080fd5b8063a90f8e9a11610120578063a90f8e9a146105ca578063b866debb146105fb578063b93dafa91461060e578063ba4e137f14610655578063ba52f3421461065d578063bad126531461067057600080fd5b80639592de181461049c57806399fe71ef146104af5780639e9c4f08146104c4578063a10340bc146104cd578063a73482f614610565578063a87430ba1461057857600080fd5b8063527eb4bc1161020b5780637e996639116101c45780637e996639146104205780638a5779c8146104295780638da5cb5b146104325780638edc6a2c1461044557806391a0846d1461046857806391bb68651461047b57600080fd5b8063527eb4bc146103a857806361eee2cb146103b157806369ca9e05146103c45780636f1aefc3146103d75780637358c57a146103f7578063773d51eb1461040057600080fd5b80632457e6201161025d5780632457e620146102ca5780632fae35c01461032e57806339a6a489146103595780633baf15871461036c578063499a0fc41461037f5780634c73884f1461038857600080fd5b8063050e88401461029a57806305eaab4b146102c05780630d0a1c1a146102ca5780630e666e49146102ea578063197c4e7814610326575b600080fd5b6102ad6102a8366004613e29565b610756565b6040519081526020015b60405180910390f35b6102c8610777565b005b6102dd6102d8366004613e29565b610ad1565b6040516102b79190613e7d565b6103166102f8366004613ebc565b6001600160a01b03166000908152600c602052604090205460ff1690565b60405190151581526020016102b7565b600f546102ad565b61034161033c366004613e29565b610b36565b6040516001600160a01b0390911681526020016102b7565b6102ad610367366004613e29565b610b60565b6102c861037a366004613e29565b610d2d565b6102ad60055481565b61039b610396366004613ed9565b610e6a565b6040516102b79190613f11565b6102ad60025481565b6102ad6103bf366004613e29565b610f97565b6102c86103d236600461402b565b610fce565b6103ea6103e5366004613ed9565b6110ca565b6040516102b7919061415f565b6102ad60015481565b61041361040e366004613e29565b611221565b6040516102b7919061418e565b6102ad60065481565b6102ad60035481565b600854610341906001600160a01b031681565b6102ad610453366004613e29565b6000908152600a602052604090206002015490565b6102ad61047636600461423a565b61135d565b61048e610489366004613ebc565b6113c2565b6040516102b7929190614266565b6102ad6104aa366004613e29565b611582565b6104b76115ad565b6040516102b79190614294565b6102ad60095481565b6105226104db366004613e29565b600a602052600090815260409020805460018201546003830154600484015460058501546006860154600790960154949593946001600160a01b0390931693919290919087565b6040805197885260208801969096526001600160a01b03909416948601949094526060850191909152608084015260a083019190915260c082015260e0016102b7565b6102ad610573366004613ed9565b61160f565b6105ab610586366004613ebc565b600c6020526000908152604090205460ff81169061010090046001600160a01b031682565b6040805192151583526001600160a01b039091166020830152016102b7565b6103416105d8366004613ebc565b6001600160a01b039081166000908152600c602052604090205461010090041690565b6102ad610609366004613e29565b6116d9565b61064061061c366004613ed9565b600e6020908152600092835260408084209091529082529020805460019091015482565b604080519283526020830191909152016102b7565b6102ad611c26565b6102ad61066b366004613e29565b611cf5565b61068361067e366004613e29565b611d05565b6040516102b791906142e1565b600454610341906001600160a01b031681565b6102dd611d9c565b6102c86106b9366004613e29565b611df3565b6102c86106cc3660046142f5565b611edb565b6102ad6106df366004613ebc565b612019565b600754610341906001600160a01b031681565b6102ad610705366004613ed9565b612263565b600b546102ad565b6102ad60005481565b61072e610729366004613ed9565b612325565b6040516102b79190614336565b6102ad610749366004613e29565b6123db565b600d546102ad565b600b818154811061076657600080fd5b600091825260209091200154905081565b336000908152600c602052604090205460ff166107af5760405162461bcd60e51b81526004016107a690614349565b60405180910390fd5b600b5460009067ffffffffffffffff8111156107cd576107cd613f2b565b6040519080825280602002602001820160405280156107f6578160200160208202803683370190505b5090506000805b600b548110156108a057600461082f600b838154811061081f5761081f614376565b9060005260206000200154611d05565b600481111561084057610840613efb565b0361088e57600b818154811061085857610858614376565b906000526020600020015483838151811061087557610875614376565b60209081029190910101528161088a816143a2565b9250505b80610898816143a2565b9150506107fd565b50600081116108e55760405162461bcd60e51b81526020600482015260116024820152704e6f20736574746c6564206672616d657360781b60448201526064016107a6565b6000805b82811015610a0f57336000908152600c6020526040812085516002909101919086908490811061091b5761091b614376565b602090810291909101810151825281019190915260400160009081205460ff16151590036109fd57336000908152600c6020526040812085516001909101919086908490811061096d5761096d614376565b60200260200101518152602001908152602001600020548261098f91906143bb565b91506001600c6000336001600160a01b03166001600160a01b0316815260200190815260200160002060020160008684815181106109cf576109cf614376565b6020026020010151815260200190815260200160002060006101000a81548160ff0219169083151502179055505b80610a07816143a2565b9150506108e9565b5060008111610a565760405162461bcd60e51b81526020600482015260136024820152724e6f207265776172647320746f20636c61696d60681b60448201526064016107a6565b60075460405163a9059cbb60e01b8152336004820152602481018390526001600160a01b039091169063a9059cbb906044016020604051808303816000875af1158015610aa7573d6000803e3d6000fd5b505050506040513d601f19601f82011682018060405250810190610acb91906143de565b50505050565b6000818152600a6020908152604091829020600201805483518184028101840190945280845260609392830182828015610b2a57602002820191906000526020600020905b815481526020019060010190808311610b16575b50505050509050919050565b600d8181548110610b4657600080fd5b6000918252602090912001546001600160a01b0316905081565b600080805b6000848152600a6020526040902060020154811015610d26576000848152600a6020818152604080842080548552600e835290842088855292909152600201805483919085908110610bb957610bb9614376565b90600052602060002001548152602001908152602001600020604051806060016040529081600082015481526020016001820154815260200160028201805480602002602001604051908101604052809291908181526020016000905b82821015610c875760008481526020908190206040805160c08101825260068602909201805483526001808201548486015260028201546001600160a01b03169284019290925260038101546060840152600481015460808401526005015460a08301529083529092019101610c16565b5050505081525050905060005b816040015151811015610d115781604001518181518110610cb757610cb7614376565b60200260200101516080015184610cce91906143bb565b935081604001518181518110610ce657610ce6614376565b602002602001015160a0015184610cfd91906143f9565b935080610d09816143a2565b915050610c94565b50508080610d1e906143a2565b915050610b65565b5092915050565b610d6e60405180604001604052806012815260200171333930b6b2a5b2bc9015903832b934b7b21d60711b81525060005483610d6991906143bb565b612621565b610da06040518060400160405280601081526020016f313637b1b5973a34b6b2b9ba30b6b81d60811b81525042612621565b60008054828252600a6020526040909120544291610dbd916143bb565b1115610e0b5760405162461bcd60e51b815260206004820152601b60248201527f4672616d652068617320746f20626520696e207468652070617374000000000060448201526064016107a6565b6000610e16826123db565b6000838152600a6020526040908190206001810183905590519192507f929af310c689982c60d4ec73c6e4b602e89c6f6a31da7c2df4888fb0627cb2b191610e5e9190614441565b60405180910390a15050565b6000828152600e602090815260408083208484529091528120600101548103610e9557506000610f91565b6000610ea084611d05565b6004811115610eb157610eb1613efb565b03610ebe57506000610f91565b6001610ec984611d05565b6004811115610eda57610eda613efb565b1480610eff57506002610eec84611d05565b6004811115610efd57610efd613efb565b145b15610f0c57506001610f91565b6000838152600e602090815260408083208584528252808320600190810154878552600a90935292209091015410801590610f8057506005546000848152600e60209081526040808320868452909152902060010154610f6c91906143bb565b6000848152600a6020526040902060010154105b15610f8d57506002610f91565b5060035b92915050565b60006001548211610faa57505060015490565b600054600154610fba90846143f9565b610fc491906144c9565b610f9190836143f9565b6008546001600160a01b031633146110385760405162461bcd60e51b815260206004820152602760248201527f4f6e6c79206f776e65722063616e20757064617465206672616d6520636c6f736044820152666520707269636560c81b60648201526084016107a6565b81516000036110595760405162461bcd60e51b81526004016107a6906144dd565b60608201516001600160a01b0316156110b45760405162461bcd60e51b815260206004820181905260248201527f4672616d65207265776172642077617320616c726561647920636c61696d656460448201526064016107a6565b90516000908152600a6020526040902060010155565b6110ee60405180606001604052806000815260200160008152602001606081525090565b6000838152600e60209081526040808320858452909152812060010154900361114d5760405162461bcd60e51b8152602060048201526011602482015270131bdd08191bd95cdb89dd08195e1a5cdd607a1b60448201526064016107a6565b6000838152600e602090815260408083208584528252808320815160608101835281548152600182015481850152600282018054845181870281018701865281815292969395948701949293919290919084015b828210156112125760008481526020908190206040805160c08101825260068602909201805483526001808201548486015260028201546001600160a01b03169284019290925260038101546060840152600481015460808401526005015460a083015290835290920191016111a1565b50505091525090949350505050565b61127260405180610100016040528060008152602001600081526020016060815260200160006001600160a01b03168152602001600081526020016000815260200160008152602001600081525090565b6000828152600a6020526040812054900361129f5760405162461bcd60e51b81526004016107a6906144dd565b6000828152600a6020908152604091829020825161010081018452815481526001820154818401526002820180548551818602810186018752818152929593949386019383018282801561131257602002820191906000526020600020905b8154815260200190600101908083116112fe575b505050918352505060038201546001600160a01b0316602082015260048201546040820152600582015460608201526006820154608082015260079091015460a09091015292915050565b6001600160a01b0382166000908152600c602052604081205460ff166113955760405162461bcd60e51b81526004016107a690614349565b506001600160a01b03919091166000908152600c6020908152604080832093835260019093019052205490565b600b54606090819067ffffffffffffffff8111156113e2576113e2613f2b565b60405190808252806020026020018201604052801561140b578160200160208202803683370190505b50600b5490925067ffffffffffffffff81111561142a5761142a613f2b565b604051908082528060200260200182016040528015611453578160200160208202803683370190505b50600b5490915060005b8181101561157b576000600b828154811061147a5761147a614376565b60009182526020808320909101546001600160a01b0389168352600c8252604080842082855260010190925290822054909250908190036114bc575050611569565b808684815181106114cf576114cf614376565b602002602001018181525050600c6000886001600160a01b03166001600160a01b031681526020019081526020016000206002016000600b858154811061151857611518614376565b6000918252602080832090910154835282019290925260400190205460ff16611542576000611545565b60015b60ff1685848151811061155a5761155a614376565b60200260200101818152505050505b80611573816143a2565b91505061145d565b5050915091565b600060055482101561159657505060055490565b6005546115a3818461450a565b610f91919061451e565b6060600d80548060200260200160405190810160405280929190818152602001828054801561160557602002820191906000526020600020905b81546001600160a01b031681526001909101906020018083116115e7575b5050505050905090565b6000611620826402540be40061451e565b91506116596040518060400160405280601581526020017429a7a61021a7a721a0aa1d10333930b6b2a5b2bc9d60591b81525084612621565b61168e6040518060400160405280601381526020017229a7a61021a7a721a0aa1d103637ba25b2bc9d60691b81525083612621565b61169883836143bb565b9050610f916040518060400160405280601981526020017f534f4c20434f4e4341543a20636f6e636174656e617465643a0000000000000081525082612621565b6000818152600a602052604081205481036117065760405162461bcd60e51b81526004016107a6906144dd565b600361171183611d05565b600481111561172257611722613efb565b1461177b5760405162461bcd60e51b8152602060048201526024808201527f4672616d6520646f6573206e6f742068617665206120636c6f73652072617465604482015263081cd95d60e21b60648201526084016107a6565b6000828152600a602052604081206001015461179690611582565b6000848152600e60209081526040808320848452825280832081516060810183528154815260018201548185015260028201805484518187028101870186528181529798509596919592949386019391929091879084015b8282101561185f5760008481526020908190206040805160c08101825260068602909201805483526001808201548486015260028201546001600160a01b03169284019290925260038101546060840152600481015460808401526005015460a083015290835290920191016117ee565b50505050815250509050600061187485610b60565b90506000670de0b6b3a76400006002548361188f919061451e565b611899919061450a565b6000878152600a6020526040902060058101829055600701549091506118bf82846143f9565b6118c991906143f9565b6000878152600a602052604090819020600601919091558301515115611a9857600754604084015180516001600160a01b039092169163a9059cbb9190611912906001906143f9565b8151811061192257611922614376565b602002602001015160400151600a60008a8152602001908152602001600020600601546040518363ffffffff1660e01b81526004016119769291906001600160a01b03929092168252602082015260400190565b6020604051808303816000875af1158015611995573d6000803e3d6000fd5b505050506040513d601f19601f820116820180604052508101906119b991906143de565b50604083015180516119cd906001906143f9565b815181106119dd576119dd614376565b6020908102919091018101516040908101516000898152600a909352918190206003810180546001600160a01b0319166001600160a01b03948516179055600754600854600590920154925163a9059cbb60e01b81529184166004830152602482019290925291169063a9059cbb906044016020604051808303816000875af1158015611a6e573d6000803e3d6000fd5b505050506040513d601f19601f82011682018060405250810190611a9291906143de565b50611b76565b6007546008546000888152600a6020526040902060058101546006909101546001600160a01b039384169363a9059cbb931691611ad4916143bb565b6040516001600160e01b031960e085901b1681526001600160a01b03909216600483015260248201526044016020604051808303816000875af1158015611b1f573d6000803e3d6000fd5b505050506040513d601f19601f82011682018060405250810190611b4391906143de565b506008546000878152600a6020526040902060030180546001600160a01b0319166001600160a01b039092169190911790555b6000868152600a6020526040908190206001810154600490910155517f906ff162b3f2709ab28fb678d43913964434148dd206e9b17adb3c1255090cb190611bbf90859061415f565b60405180910390a16000868152600a60205260409081902090517f929af310c689982c60d4ec73c6e4b602e89c6f6a31da7c2df4888fb0627cb2b191611c0491614441565b60405180910390a150505060009283525050600a602052604090206006015490565b6004805460408051633850c7bd60e01b8152905160009384936001600160a01b031692633850c7bd928183019260e0928290030181865afa158015611c6f573d6000803e3d6000fd5b505050506040513d601f19601f82011682018060405250810190611c939190614547565b50505050505090506000816001600160a01b031690506000600160601b82670de0b6b3a7640000611cc4919061451e565b611cce919061450a565b9050670de0b6b3a7640000611ce3828061451e565b611ced919061450a565b949350505050565b600f818154811061076657600080fd5b6000818152600a60205260408120548103611d2257506000919050565b6000828152600a60205260409020600301546001600160a01b031615611d4a57506004919050565b60008054838252600a602052604090912054611d6691906143bb565b421015611d7557506001919050565b6000828152600a602052604090206001015415611d9457506003919050565b506002919050565b6060600f80548060200260200160405190810160405280929190818152602001828054801561160557602002820191906000526020600020905b815481526020019060010190808311611dd6575050505050905090565b6008546001600160a01b03163314611e5e5760405162461bcd60e51b815260206004820152602860248201527f4f6e6c79206f776e65722063616e207769746864726177206163636f756e74696044820152673733903a37b5b2b760c11b60648201526084016107a6565b60075460085460405163a9059cbb60e01b81526001600160a01b0391821660048201526024810184905291169063a9059cbb906044016020604051808303816000875af1158015611eb3573d6000803e3d6000fd5b505050506040513d601f19601f82011682018060405250810190611ed791906143de565b5050565b6000611ee685610f97565b90506000611ef385611582565b6000838152600e6020908152604080832084845290915281206001015491925003611f4b576000828152600a60205260408120549003611f3857611f3686612666565b505b611f44828286866127a3565b5050610acb565b6000828152600e6020908152604080832084845290915290206002018054339190611f78906001906143f9565b81548110611f8857611f88614376565b60009182526020909120600260069092020101546001600160a01b031603611fb557611f44828286612be5565b611fc182828686613041565b6000828152600e602090815260408083208484529091529081902090517f906ff162b3f2709ab28fb678d43913964434148dd206e9b17adb3c1255090cb191612009916145e1565b60405180910390a1505050505050565b6001600160a01b0381166000908152600c602052604081205460ff166120515760405162461bcd60e51b81526004016107a690614349565b600b5460009067ffffffffffffffff81111561206f5761206f613f2b565b604051908082528060200260200182016040528015612098578160200160208202803683370190505b5090506000805b600b548110156121325760046120c1600b838154811061081f5761081f614376565b60048111156120d2576120d2613efb565b0361212057600b81815481106120ea576120ea614376565b906000526020600020015483838151811061210757612107614376565b60209081029190910101528161211c816143a2565b9250505b8061212a816143a2565b91505061209f565b50600081116121775760405162461bcd60e51b81526020600482015260116024820152704e6f20736574746c6564206672616d657360781b60448201526064016107a6565b6000805b8281101561225a57600c6000876001600160a01b03166001600160a01b0316815260200190815260200160002060020160008583815181106121bf576121bf614376565b602090810291909101810151825281019190915260400160009081205460ff161515900361224857600c6000876001600160a01b03166001600160a01b03168152602001908152602001600020600101600085838151811061222357612223614376565b60200260200101518152602001908152602001600020548261224591906143bb565b91505b80612252816143a2565b91505061217b565b50949350505050565b6000426000548461227491906143bb565b116122c15760405162461bcd60e51b815260206004820152601d60248201527f4672616d652068617320746f20626520696e207468652066757475726500000060448201526064016107a6565b600080546006546122d2919061450a565b9050600042600054866122e591906143bb565b6122ef91906143f9565b90506000670de0b6b3a764000085612307858561451e565b612311919061451e565b61231b919061450a565b9695505050505050565b6000828152600e602090815260408083208484528252808320600201805482518185028101850190935280835260609492939192909184015b828210156123cf5760008481526020908190206040805160c08101825260068602909201805483526001808201548486015260028201546001600160a01b03169284019290925260038101546060840152600481015460808401526005015460a0830152908352909201910161235e565b50505050905092915050565b60008060035483426123ed91906143f9565b6123f791906143bb565b9050600061240584426143f9565b6040805160028082526060820183529293506000929091602083019080368337019050509050828160008151811061243f5761243f614376565b602002602001019063ffffffff16908163ffffffff1681525050818160018151811061246d5761246d614376565b63ffffffff909216602092830291909101909101526004805460405163883bdbfd60e01b81526000926001600160a01b039092169163883bdbfd916124b49186910161468f565b600060405180830381865afa1580156124d1573d6000803e3d6000fd5b505050506040513d6000823e601f3d908101601f191682016040526124f99190810190614731565b50905060008160008151811061251157612511614376565b602002602001015160060b8260018151811061252f5761252f614376565b602002602001015160060b61254491906147fd565b9050600081121561258d5760405162461bcd60e51b81526020600482015260136024820152724e65676174697665207469636b2064656c746160681b60448201526064016107a6565b8060006125a363ffffffff8088169089166143f9565b905060006125b1828461450a565b905060006125be826135f3565b905060006125dc66010000000000006001600160a01b03841661450a565b905060006125ea828061451e565b90506000600160601b61260583670de0b6b3a764000061451e565b61260f919061450a565b9e9d5050505050505050505050505050565b611ed7828260405160240161263792919061481d565b60408051601f198184030181529190526020810180516001600160e01b0316632d839cb360e21b1790526139d6565b60008061267283610f97565b6000818152600a6020526040902054909150156126c85760405162461bcd60e51b81526020600482015260146024820152734672616d6520616c72656164792065786973747360601b60448201526064016107a6565b42600054826126d791906143bb565b10156127255760405162461bcd60e51b815260206004820152601d60248201527f4672616d652068617320746f20626520696e207468652066757475726500000060448201526064016107a6565b6000818152600a602052604090819020828155600b8054600181019091557f0175b7a638427703f0dbe7bb9bbf987a2551717b34e79f33b5b1008d1fa01db90183905590517f929af310c689982c60d4ec73c6e4b602e89c6f6a31da7c2df4888fb0627cb2b19161279591614441565b60405180910390a192915050565b60006127af8584612263565b9050600081116127d15760405162461bcd60e51b81526004016107a690614872565b600754604051636eb1769f60e11b815233600482015230602482015282916001600160a01b03169063dd62ed3e90604401602060405180830381865afa15801561281f573d6000803e3d6000fd5b505050506040513d601f19601f8201168201806040525081019061284391906148cf565b10156128615760405162461bcd60e51b81526004016107a6906148e8565b7f161bcca7119915b50764b4abe86529797775a5f171951000000000000000000084106128c25760405162461bcd60e51b815260206004820152600f60248201526e4c6f74206b657920746f6f2062696760881b60448201526064016107a6565b6000858152600e60209081526040808320878452909152902060010154156129215760405162461bcd60e51b81526020600482015260126024820152714c6f7420616c72656164792065786973747360701b60448201526064016107a6565b6040805160c081018252438152426020808301918252338385019081526060840188815260808501878152600060a087018181528d8252600e86528882208d835286529781208d815560018082018e90556002808301805480840182558186529885208b516006909a0201988955985191880191909155945194860180546001600160a01b0319166001600160a01b0390961695909517909455915160038501555160048401559451600590920191909155928790528054919291829182916129ec91908190613d43565b50905050612a1e6040518060400160405280600c81526020016b29a7a61d103637ba35b2bc9d60a11b81525087612621565b612a4e6040518060400160405280600e81526020016d29a7a61d10333930b6b2a5b2bc9d60911b81525088612621565b6000612a5a888861160f565b9050612a906040518060400160405280601281526020017129a7a61d103637ba25b2bca1b7b731b0ba1d60711b81525082612621565b600f805460018181019092557f8d1108e10bcb7c27dddfc02ed9d693a074039d026cf4ea4240b40f7d581ac802018290556000898152600a60209081526040808320868501546002909101805495860181558452919092209092019190915560075490516323b872dd60e01b81526001600160a01b03909116906323b872dd90612b229033903090899060040161491f565b6020604051808303816000875af1158015612b41573d6000803e3d6000fd5b505050506040513d601f19601f82011682018060405250810190612b6591906143de565b50336000908152600c602052604090205460ff16612b8657612b86856139e2565b336000908152600c60205260408082205461010090046001600160a01b0316825290205460ff1615612bdb57336000908152600c6020526040902054612bdb9061010090046001600160a01b0316858a613b9f565b5050505050505050565b6000838152600e6020908152604080832085845290915281206002018054612c3c918691612c15906001906143f9565b81548110612c2557612c25614376565b906000526020600020906006020160030154612263565b90506000612c4a8584612263565b905080821115612e2f576000612c6082846143f9565b6007546000888152600e602090815260408083208a8452909152902060020180549293506001600160a01b039091169163a9059cbb9190612ca3906001906143f9565b81548110612cb357612cb3614376565b600091825260209091206006909102016002015460405160e083901b6001600160e01b03191681526001600160a01b039091166004820152602481018490526044016020604051808303816000875af1158015612d14573d6000803e3d6000fd5b505050506040513d601f19601f82011682018060405250810190612d3891906143de565b506000868152600e602090815260408083208884528252808320815160c0810183524381524281850190815233828501818152606084018c81526080850189815260a086018b81526002978801805460018082018355918d528b8d2098516006909102909801978855955195870195909555915195850180546001600160a01b0319166001600160a01b0397881617905551600385015551600484015590516005909201919091558452600c909252808320546101009004909116825290205460ff1615612e2957336000908152600c6020526040902054612e299061010090046001600160a01b03168288613c66565b5061303a565b6000612e3b83836143f9565b600754604051636eb1769f60e11b815233600482015230602482015291925082916001600160a01b039091169063dd62ed3e90604401602060405180830381865afa158015612e8e573d6000803e3d6000fd5b505050506040513d601f19601f82011682018060405250810190612eb291906148cf565b1015612ed05760405162461bcd60e51b81526004016107a6906148e8565b6007546040516323b872dd60e01b81526001600160a01b03909116906323b872dd90612f049033903090869060040161491f565b6020604051808303816000875af1158015612f23573d6000803e3d6000fd5b505050506040513d601f19601f82011682018060405250810190612f4791906143de565b506000868152600e602090815260408083208884528252808320815160c0810183524381524281850190815233828501818152606084018c8152608085018a815260a086018a81526002978801805460018082018355918d528b8d2098516006909102909801978855955195870195909555915195850180546001600160a01b0319166001600160a01b0397881617905551600385015551600484015590516005909201919091558452600c909252808320546101009004909116825290205460ff161561303857336000908152600c60205260409020546130389061010090046001600160a01b03168288613b9f565b505b5050505050565b6000848152600e602090815260408083208684529091528120600201805461306b906001906143f9565b8154811061307b5761307b614376565b600091825260208220600260069092020101546001600160a01b031691506130a38685612263565b9050600081116130c55760405162461bcd60e51b81526004016107a690614872565b6000868152600e60209081526040808320888452909152812060020180546130ef906001906143f9565b815481106130ff576130ff614376565b9060005260206000209060060201600301549050808261311f91906143bb565b600754604051636eb1769f60e11b81523360048201523060248201526001600160a01b039091169063dd62ed3e90604401602060405180830381865afa15801561316d573d6000803e3d6000fd5b505050506040513d601f19601f8201168201806040525081019061319191906148cf565b10156131af5760405162461bcd60e51b81526004016107a6906148e8565b6007546040516323b872dd60e01b81526001600160a01b03909116906323b872dd906131e39033903090879060040161491f565b6020604051808303816000875af1158015613202573d6000803e3d6000fd5b505050506040513d601f19601f8201168201806040525081019061322691906143de565b506007546040516323b872dd60e01b81526001600160a01b03909116906323b872dd9061325b9033908790869060040161491f565b6020604051808303816000875af115801561327a573d6000803e3d6000fd5b505050506040513d601f19601f8201168201806040525081019061329e91906143de565b506000878152600e60209081526040808320898452909152812060020180546132cf918a91612c15906001906143f9565b60075460405163a9059cbb60e01b81526001600160a01b0387811660048301526024820184905292935091169063a9059cbb906044016020604051808303816000875af1158015613324573d6000803e3d6000fd5b505050506040513d601f19601f8201168201806040525081019061334891906143de565b50336000908152600c602052604090205460ff1661336957613369856139e2565b336000908152600c60205260408082205461010090046001600160a01b0316825290205460ff16156133be57336000908152600c60205260409020546133be9061010090046001600160a01b0316848a613b9f565b6001600160a01b038085166000908152600c60205260408082205461010090049092168152205460ff1615613419576001600160a01b038085166000908152600c60205260409020546134199161010090910416828a613c66565b600e600089815260200190815260200160002060008881526020019081526020016000206002016040518060c00160405280438152602001428152602001866001600160a01b0316815260200184815260200160008152602001838152509080600181540180825580915050600190039060005260206000209060060201600090919091909150600082015181600001556020820151816001015560408201518160020160006101000a8154816001600160a01b0302191690836001600160a01b03160217905550606082015181600301556080820151816004015560a082015181600501555050600e600089815260200190815260200160002060008881526020019081526020016000206002016040518060c00160405280438152602001428152602001336001600160a01b0316815260200188815260200185815260200160008152509080600181540180825580915050600190039060005260206000209060060201600090919091909150600082015181600001556020820151816001015560408201518160020160006101000a8154816001600160a01b0302191690836001600160a01b03160217905550606082015181600301556080820151816004015560a0820151816005015550505050505050505050565b600081620d89e881111561362d5760405162461bcd60e51b81526020600482015260016024820152601560fa1b60448201526064016107a6565b60008160011660000361364457600160801b613656565b6ffffcb933bd6fad37aa2d162d1a5940015b70ffffffffffffffffffffffffffffffffff1690506002821615613695576080613690826ffff97272373d413259a46990580e213a61451e565b901c90505b60048216156136bf5760806136ba826ffff2e50f5f656932ef12357cf3c7fdcc61451e565b901c90505b60088216156136e95760806136e4826fffe5caca7e10e4e61c3624eaa0941cd061451e565b901c90505b601082161561371357608061370e826fffcb9843d60f6159c9db58835c92664461451e565b901c90505b602082161561373d576080613738826fff973b41fa98c081472e6896dfb254c061451e565b901c90505b6040821615613767576080613762826fff2ea16466c96a3843ec78b326b5286161451e565b901c90505b608082161561379157608061378c826ffe5dee046a99a2a811c461f1969c305361451e565b901c90505b6101008216156137bc5760806137b7826ffcbe86c7900a88aedcffc83b479aa3a461451e565b901c90505b6102008216156137e75760806137e2826ff987a7253ac413176f2b074cf7815e5461451e565b901c90505b61040082161561381257608061380d826ff3392b0822b70005940c7a398e4b70f361451e565b901c90505b61080082161561383d576080613838826fe7159475a2c29b7443b29c7fa6e889d961451e565b901c90505b611000821615613868576080613863826fd097f3bdfd2022b8845ad8f792aa582561451e565b901c90505b61200082161561389357608061388e826fa9f746462d870fdf8a65dc1f90e061e561451e565b901c90505b6140008216156138be5760806138b9826f70d869a156d2a1b890bb3df62baf32f761451e565b901c90505b6180008216156138e95760806138e4826f31be135f97d08fd981231505542fcfa661451e565b901c90505b62010000821615613915576080613910826f09aa508b5b7a84e1c677de54f3e99bc961451e565b901c90505b6202000082161561394057608061393b826e5d6af8dedb81196699c329225ee60461451e565b901c90505b6204000082161561396a576080613965826d2216e584f5fa1ea926041bedfe9861451e565b901c90505b6208000082161561399257608061398d826b048a170391f7dc42444e8fa261451e565b901c90505b83156139a7576139a48160001961450a565b90505b6139b6640100000000826144c9565b156139c25760016139c5565b60005b611ced9060ff16602083901c6143bb565b6139df81613d22565b50565b336000908152600c602052604090205460ff1615613a385760405162461bcd60e51b81526020600482015260136024820152725573657220616c72656164792065786973747360681b60448201526064016107a6565b6001600160a01b038116613ac157336000818152600c6020526040812080546001600160a01b0394909416610100026001600160a81b0319909416939093176001908117909355600d8054938401815590527fd7b6990105719101dabeb77144f2a3385c8033acd3af97e9423a695e81ad1eb590910180546001600160a01b0319169091179055565b6001600160a01b0381166000908152600c602052604090205460ff16613b295760405162461bcd60e51b815260206004820152601760248201527f526566657272657220646f6573206e6f7420657869737400000000000000000060448201526064016107a6565b600d805460018181019092557fd7b6990105719101dabeb77144f2a3385c8033acd3af97e9423a695e81ad1eb50180546001600160a01b031916339081179091556000908152600c6020526040902080546001600160a01b0393909316610100026001600160a81b031990931692909217179055565b6001600160a01b0383166000908152600c602052604090205460ff16613bd75760405162461bcd60e51b81526004016107a690614349565b6000670de0b6b3a764000060095484613bf0919061451e565b613bfa919061450a565b6001600160a01b0385166000908152600c60209081526040808320868452600101909152812080549293508392909190613c359084906143bb565b90915550506000828152600a602052604081206007018054839290613c5b9084906143bb565b909155505050505050565b6001600160a01b0383166000908152600c602052604090205460ff16613c9e5760405162461bcd60e51b81526004016107a690614349565b6000670de0b6b3a764000060095484613cb7919061451e565b613cc1919061450a565b6001600160a01b0385166000908152600c60209081526040808320868452600101909152812080549293508392909190613cfc9084906143f9565b90915550506000828152600a602052604081206007018054839290613c5b9084906143f9565b60006a636f6e736f6c652e6c6f679050600080835160208501845afa505050565b828054828255906000526020600020906006028101928215613dd75760005260206000209160060282015b82811115613dd757825482556001808401549083015560028084015490830180546001600160a01b0319166001600160a01b0390921691909117905560038084015490830155600480840154908301556005808401549083015560069283019290910190613d6e565b50613de3929150613de7565b5090565b5b80821115613de3576000808255600182018190556002820180546001600160a01b031916905560038201819055600482018190556005820155600601613de8565b600060208284031215613e3b57600080fd5b5035919050565b600081518084526020808501945080840160005b83811015613e7257815187529582019590820190600101613e56565b509495945050505050565b602081526000613e906020830184613e42565b9392505050565b6001600160a01b03811681146139df57600080fd5b8035613eb781613e97565b919050565b600060208284031215613ece57600080fd5b8135613e9081613e97565b60008060408385031215613eec57600080fd5b50508035926020909101359150565b634e487b7160e01b600052602160045260246000fd5b6020810160048310613f2557613f25613efb565b91905290565b634e487b7160e01b600052604160045260246000fd5b604051610100810167ffffffffffffffff81118282101715613f6557613f65613f2b565b60405290565b604051601f8201601f1916810167ffffffffffffffff81118282101715613f9457613f94613f2b565b604052919050565b600067ffffffffffffffff821115613fb657613fb6613f2b565b5060051b60200190565b600082601f830112613fd157600080fd5b81356020613fe6613fe183613f9c565b613f6b565b82815260059290921b8401810191818101908684111561400557600080fd5b8286015b848110156140205780358352918301918301614009565b509695505050505050565b6000806040838503121561403e57600080fd5b823567ffffffffffffffff8082111561405657600080fd5b90840190610100828703121561406b57600080fd5b614073613f41565b823581526020830135602082015260408301358281111561409357600080fd5b61409f88828601613fc0565b6040830152506140b160608401613eac565b60608201526080830135608082015260a083013560a082015260c083013560c082015260e083013560e0820152809450505050602083013590509250929050565b600081518084526020808501945080840160005b83811015613e725781518051885283810151848901526040808201516001600160a01b031690890152606080820151908901526080808201519089015260a0908101519088015260c09096019590820190600101614106565b60208152815160208201526020820151604082015260006040830151606080840152611ced60808401826140f2565b6000602080835261012083018451828501528185015160408501526040850151610100806060870152828251808552610140880191508584019450600093505b808410156141ee57845182529385019360019390930192908501906141ce565b5060608801516001600160a01b03811660808901529450608088015160a088015260a088015160c088015260c088015160e088015260e088015182880152809550505050505092915050565b6000806040838503121561424d57600080fd5b823561425881613e97565b946020939093013593505050565b6040815260006142796040830185613e42565b828103602084015261428b8185613e42565b95945050505050565b6020808252825182820181905260009190848201906040850190845b818110156142d55783516001600160a01b0316835292840192918401916001016142b0565b50909695505050505050565b6020810160058310613f2557613f25613efb565b6000806000806080858703121561430b57600080fd5b843593506020850135925060408501359150606085013561432b81613e97565b939692955090935050565b602081526000613e9060208301846140f2565b602080825260139082015272155cd95c88191bd95cc81b9bdd08195e1a5cdd606a1b604082015260600190565b634e487b7160e01b600052603260045260246000fd5b634e487b7160e01b600052601160045260246000fd5b6000600182016143b4576143b461438c565b5060010190565b80820180821115610f9157610f9161438c565b80518015158114613eb757600080fd5b6000602082840312156143f057600080fd5b613e90826143ce565b81810381811115610f9157610f9161438c565b6000815480845260208085019450836000528060002060005b83811015613e7257815487529582019560019182019101614425565b602081528154602082015260018201546040820152600061010080606084015261447261012084016002860161440c565b60038501546001600160a01b03166080850152600485015460a0850152600585015460c0850152600685015460e08501526007909401549201919091525090565b634e487b7160e01b600052601260045260246000fd5b6000826144d8576144d86144b3565b500690565b602080825260139082015272119c985b5948191bd95cdb89dd08195e1a5cdd606a1b604082015260600190565b600082614519576145196144b3565b500490565b8082028115828204841417610f9157610f9161438c565b805161ffff81168114613eb757600080fd5b600080600080600080600060e0888a03121561456257600080fd5b875161456d81613e97565b8097505060208801518060020b811461458557600080fd5b955061459360408901614535565b94506145a160608901614535565b93506145af60808901614535565b925060a088015160ff811681146145c557600080fd5b91506145d360c089016143ce565b905092959891949750929550565b6000602080835260808084018554838601526001808701546040818189015260029150818901606080818b015285825480885260a09750878c0191508360005289600020935060005b8181101561467d5784548352878501548b840152868501546001600160a01b03168684015260038501548484015260048501548a84015260058501548984015260069094019360c090920191870161462a565b50909c9b505050505050505050505050565b6020808252825182820181905260009190848201906040850190845b818110156142d557835163ffffffff16835292840192918401916001016146ab565b600082601f8301126146de57600080fd5b815160206146ee613fe183613f9c565b82815260059290921b8401810191818101908684111561470d57600080fd5b8286015b8481101561402057805161472481613e97565b8352918301918301614711565b6000806040838503121561474457600080fd5b825167ffffffffffffffff8082111561475c57600080fd5b818501915085601f83011261477057600080fd5b81516020614780613fe183613f9c565b82815260059290921b8401810191818101908984111561479f57600080fd5b948201945b838610156147cd5785518060060b81146147be5760008081fd5b825294820194908201906147a4565b918801519196509093505050808211156147e657600080fd5b506147f3858286016146cd565b9150509250929050565b8181036000831280158383131683831282161715610d2657610d2661438c565b604081526000835180604084015260005b8181101561484b576020818701810151606086840101520161482e565b506000606082850101526060601f19601f8301168401019150508260208301529392505050565b6020808252603c908201527f5461782068617320746f2062652067726561746572207468616e20302e20496e60408201527f63726561736520746865206163717569736974696f6e20707269636500000000606082015260800190565b6000602082840312156148e157600080fd5b5051919050565b6020808252601e908201527f416c6c6f77616e636520746f207370656e642073657420746f6f206c6f770000604082015260600190565b6001600160a01b03938416815291909216602082015260408101919091526060019056fea2646970667358221220353d1163542d3eab34f48d38cfb3a1ffb51dc63c0b41fc40742c10e6c2ed6ccd64736f6c63430008140033",
  "linkReferences": {},
  "deployedLinkReferences": {}
}