{
  "_format": "hh-sol-artifact-1",
  "contractName": "Market",
  "sourceName": "contracts/Market.sol",
  "abi": [
    {
      "inputs": [
        {
          "internalType": "address",
          "name": "_acct",
          "type": "address"
        },
        {
          "internalType": "uint256",
          "name": "_feeProtocol",
          "type": "uint256"
        },
        {
          "internalType": "uint256",
          "name": "_taxMarket",
          "type": "uint256"
        },
        {
          "internalType": "uint256",
          "name": "_dPrice",
          "type": "uint256"
        },
        {
          "internalType": "address",
          "name": "_uniswapPool",
          "type": "address"
        }
      ],
      "stateMutability": "nonpayable",
      "type": "constructor"
    },
    {
      "anonymous": false,
      "inputs": [
        {
          "components": [
            {
              "internalType": "uint256",
              "name": "frameKey",
              "type": "uint256"
            },
            {
              "internalType": "uint256",
              "name": "rate",
              "type": "uint256"
            },
            {
              "internalType": "uint256[]",
              "name": "lotKeys",
              "type": "uint256[]"
            },
            {
              "internalType": "address",
              "name": "claimedBy",
              "type": "address"
            },
            {
              "internalType": "uint256",
              "name": "rateSettle",
              "type": "uint256"
            },
            {
              "internalType": "uint256",
              "name": "feeSettle",
              "type": "uint256"
            },
            {
              "internalType": "uint256",
              "name": "rewardSettle",
              "type": "uint256"
            }
          ],
          "indexed": false,
          "internalType": "struct Market.Frame",
          "name": "frame",
          "type": "tuple"
        }
      ],
      "name": "FrameUpdate",
      "type": "event"
    },
    {
      "anonymous": false,
      "inputs": [
        {
          "components": [
            {
              "internalType": "uint256",
              "name": "frameKey",
              "type": "uint256"
            },
            {
              "internalType": "uint256",
              "name": "lotKey",
              "type": "uint256"
            },
            {
              "components": [
                {
                  "internalType": "uint256",
                  "name": "blockNumber",
                  "type": "uint256"
                },
                {
                  "internalType": "uint256",
                  "name": "blockTimestamp",
                  "type": "uint256"
                },
                {
                  "internalType": "address",
                  "name": "owner",
                  "type": "address"
                },
                {
                  "internalType": "uint256",
                  "name": "acquisitionPrice",
                  "type": "uint256"
                },
                {
                  "internalType": "uint256",
                  "name": "taxCharged",
                  "type": "uint256"
                },
                {
                  "internalType": "uint256",
                  "name": "taxRefunded",
                  "type": "uint256"
                }
              ],
              "internalType": "struct Market.LotState[]",
              "name": "states",
              "type": "tuple[]"
            }
          ],
          "indexed": false,
          "internalType": "struct Market.Lot",
          "name": "lot",
          "type": "tuple"
        }
      ],
      "name": "LotUpdate",
      "type": "event"
    },
    {
      "inputs": [],
      "name": "accountingToken",
      "outputs": [
        {
          "internalType": "contract IERC20Metadata",
          "name": "",
          "type": "address"
        }
      ],
      "stateMutability": "view",
      "type": "function"
    },
    {
      "inputs": [],
      "name": "accountingTokenDecimals",
      "outputs": [
        {
          "internalType": "uint8",
          "name": "",
          "type": "uint8"
        }
      ],
      "stateMutability": "view",
      "type": "function"
    },
    {
      "inputs": [],
      "name": "baseUnit",
      "outputs": [
        {
          "internalType": "uint256",
          "name": "",
          "type": "uint256"
        }
      ],
      "stateMutability": "view",
      "type": "function"
    },
    {
      "inputs": [
        {
          "internalType": "uint256",
          "name": "newFee",
          "type": "uint256"
        }
      ],
      "name": "changeProtocolFee",
      "outputs": [],
      "stateMutability": "nonpayable",
      "type": "function"
    },
    {
      "inputs": [
        {
          "internalType": "uint256",
          "name": "newTax",
          "type": "uint256"
        }
      ],
      "name": "changeTaxPercentage",
      "outputs": [],
      "stateMutability": "nonpayable",
      "type": "function"
    },
    {
      "inputs": [
        {
          "internalType": "uint256",
          "name": "timestamp",
          "type": "uint256"
        }
      ],
      "name": "clcFrameKey",
      "outputs": [
        {
          "internalType": "uint256",
          "name": "",
          "type": "uint256"
        }
      ],
      "stateMutability": "view",
      "type": "function"
    },
    {
      "inputs": [
        {
          "internalType": "uint256",
          "name": "valueQ96",
          "type": "uint256"
        }
      ],
      "name": "clcLotKey",
      "outputs": [
        {
          "internalType": "uint256",
          "name": "",
          "type": "uint256"
        }
      ],
      "stateMutability": "view",
      "type": "function"
    },
    {
      "inputs": [],
      "name": "clcRate",
      "outputs": [
        {
          "internalType": "uint256",
          "name": "",
          "type": "uint256"
        }
      ],
      "stateMutability": "view",
      "type": "function"
    },
    {
      "inputs": [
        {
          "internalType": "uint256",
          "name": "timestamp",
          "type": "uint256"
        }
      ],
      "name": "clcRateAvg",
      "outputs": [
        {
          "internalType": "uint256",
          "name": "",
          "type": "uint256"
        }
      ],
      "stateMutability": "view",
      "type": "function"
    },
    {
      "inputs": [
        {
          "internalType": "uint256",
          "name": "frameKey",
          "type": "uint256"
        }
      ],
      "name": "clcRewardFund",
      "outputs": [
        {
          "internalType": "uint256",
          "name": "",
          "type": "uint256"
        }
      ],
      "stateMutability": "view",
      "type": "function"
    },
    {
      "inputs": [
        {
          "internalType": "uint256",
          "name": "frameKey",
          "type": "uint256"
        },
        {
          "internalType": "uint256",
          "name": "acquisitionPriceQ96",
          "type": "uint256"
        }
      ],
      "name": "clcTax",
      "outputs": [
        {
          "internalType": "uint256",
          "name": "",
          "type": "uint256"
        }
      ],
      "stateMutability": "view",
      "type": "function"
    },
    {
      "inputs": [
        {
          "internalType": "uint256",
          "name": "frameKey",
          "type": "uint256"
        },
        {
          "internalType": "uint256",
          "name": "lotKey",
          "type": "uint256"
        }
      ],
      "name": "concatenate",
      "outputs": [
        {
          "internalType": "uint256",
          "name": "concatenated",
          "type": "uint256"
        }
      ],
      "stateMutability": "pure",
      "type": "function"
    },
    {
      "inputs": [
        {
          "internalType": "uint256",
          "name": "amount18Dec",
          "type": "uint256"
        },
        {
          "internalType": "bool",
          "name": "round",
          "type": "bool"
        }
      ],
      "name": "convertToTokenDecimals",
      "outputs": [
        {
          "internalType": "uint256",
          "name": "",
          "type": "uint256"
        }
      ],
      "stateMutability": "view",
      "type": "function"
    },
    {
      "inputs": [],
      "name": "dPrice",
      "outputs": [
        {
          "internalType": "uint256",
          "name": "",
          "type": "uint256"
        }
      ],
      "stateMutability": "view",
      "type": "function"
    },
    {
      "inputs": [],
      "name": "feeProtocol",
      "outputs": [
        {
          "internalType": "uint256",
          "name": "",
          "type": "uint256"
        }
      ],
      "stateMutability": "view",
      "type": "function"
    },
    {
      "inputs": [
        {
          "internalType": "uint256",
          "name": "",
          "type": "uint256"
        }
      ],
      "name": "frames",
      "outputs": [
        {
          "internalType": "uint256",
          "name": "frameKey",
          "type": "uint256"
        },
        {
          "internalType": "uint256",
          "name": "rate",
          "type": "uint256"
        },
        {
          "internalType": "address",
          "name": "claimedBy",
          "type": "address"
        },
        {
          "internalType": "uint256",
          "name": "rateSettle",
          "type": "uint256"
        },
        {
          "internalType": "uint256",
          "name": "feeSettle",
          "type": "uint256"
        },
        {
          "internalType": "uint256",
          "name": "rewardSettle",
          "type": "uint256"
        }
      ],
      "stateMutability": "view",
      "type": "function"
    },
    {
      "inputs": [
        {
          "internalType": "uint256",
          "name": "",
          "type": "uint256"
        }
      ],
      "name": "framesKeys",
      "outputs": [
        {
          "internalType": "uint256",
          "name": "",
          "type": "uint256"
        }
      ],
      "stateMutability": "view",
      "type": "function"
    },
    {
      "inputs": [
        {
          "internalType": "uint256",
          "name": "x96",
          "type": "uint256"
        }
      ],
      "name": "fromQ96",
      "outputs": [
        {
          "internalType": "uint256",
          "name": "",
          "type": "uint256"
        }
      ],
      "stateMutability": "view",
      "type": "function"
    },
    {
      "inputs": [
        {
          "internalType": "uint256",
          "name": "frameKey",
          "type": "uint256"
        }
      ],
      "name": "getFrame",
      "outputs": [
        {
          "components": [
            {
              "internalType": "uint256",
              "name": "frameKey",
              "type": "uint256"
            },
            {
              "internalType": "uint256",
              "name": "rate",
              "type": "uint256"
            },
            {
              "internalType": "uint256[]",
              "name": "lotKeys",
              "type": "uint256[]"
            },
            {
              "internalType": "address",
              "name": "claimedBy",
              "type": "address"
            },
            {
              "internalType": "uint256",
              "name": "rateSettle",
              "type": "uint256"
            },
            {
              "internalType": "uint256",
              "name": "feeSettle",
              "type": "uint256"
            },
            {
              "internalType": "uint256",
              "name": "rewardSettle",
              "type": "uint256"
            }
          ],
          "internalType": "struct Market.Frame",
          "name": "",
          "type": "tuple"
        }
      ],
      "stateMutability": "view",
      "type": "function"
    },
    {
      "inputs": [
        {
          "internalType": "uint256",
          "name": "frameKey",
          "type": "uint256"
        }
      ],
      "name": "getFrameLotKeys",
      "outputs": [
        {
          "internalType": "uint256[]",
          "name": "",
          "type": "uint256[]"
        }
      ],
      "stateMutability": "view",
      "type": "function"
    },
    {
      "inputs": [],
      "name": "getFramesLength",
      "outputs": [
        {
          "internalType": "uint256",
          "name": "",
          "type": "uint256"
        }
      ],
      "stateMutability": "view",
      "type": "function"
    },
    {
      "inputs": [
        {
          "internalType": "uint256",
          "name": "frameKey",
          "type": "uint256"
        },
        {
          "internalType": "uint256",
          "name": "lotKey",
          "type": "uint256"
        }
      ],
      "name": "getLot",
      "outputs": [
        {
          "components": [
            {
              "internalType": "uint256",
              "name": "frameKey",
              "type": "uint256"
            },
            {
              "internalType": "uint256",
              "name": "lotKey",
              "type": "uint256"
            },
            {
              "components": [
                {
                  "internalType": "uint256",
                  "name": "blockNumber",
                  "type": "uint256"
                },
                {
                  "internalType": "uint256",
                  "name": "blockTimestamp",
                  "type": "uint256"
                },
                {
                  "internalType": "address",
                  "name": "owner",
                  "type": "address"
                },
                {
                  "internalType": "uint256",
                  "name": "acquisitionPrice",
                  "type": "uint256"
                },
                {
                  "internalType": "uint256",
                  "name": "taxCharged",
                  "type": "uint256"
                },
                {
                  "internalType": "uint256",
                  "name": "taxRefunded",
                  "type": "uint256"
                }
              ],
              "internalType": "struct Market.LotState[]",
              "name": "states",
              "type": "tuple[]"
            }
          ],
          "internalType": "struct Market.Lot",
          "name": "",
          "type": "tuple"
        }
      ],
      "stateMutability": "view",
      "type": "function"
    },
    {
      "inputs": [
        {
          "internalType": "uint256",
          "name": "frameKey",
          "type": "uint256"
        },
        {
          "internalType": "uint256",
          "name": "lotKey",
          "type": "uint256"
        }
      ],
      "name": "getLotStates",
      "outputs": [
        {
          "components": [
            {
              "internalType": "uint256",
              "name": "blockNumber",
              "type": "uint256"
            },
            {
              "internalType": "uint256",
              "name": "blockTimestamp",
              "type": "uint256"
            },
            {
              "internalType": "address",
              "name": "owner",
              "type": "address"
            },
            {
              "internalType": "uint256",
              "name": "acquisitionPrice",
              "type": "uint256"
            },
            {
              "internalType": "uint256",
              "name": "taxCharged",
              "type": "uint256"
            },
            {
              "internalType": "uint256",
              "name": "taxRefunded",
              "type": "uint256"
            }
          ],
          "internalType": "struct Market.LotState[]",
          "name": "",
          "type": "tuple[]"
        }
      ],
      "stateMutability": "view",
      "type": "function"
    },
    {
      "inputs": [],
      "name": "getLotsArray",
      "outputs": [
        {
          "internalType": "uint256[]",
          "name": "",
          "type": "uint256[]"
        }
      ],
      "stateMutability": "view",
      "type": "function"
    },
    {
      "inputs": [],
      "name": "getLotsArrayLength",
      "outputs": [
        {
          "internalType": "uint256",
          "name": "",
          "type": "uint256"
        }
      ],
      "stateMutability": "view",
      "type": "function"
    },
    {
      "inputs": [
        {
          "internalType": "uint256",
          "name": "frameKey",
          "type": "uint256"
        }
      ],
      "name": "getLotsKeysInFrame",
      "outputs": [
        {
          "internalType": "uint256[]",
          "name": "",
          "type": "uint256[]"
        }
      ],
      "stateMutability": "view",
      "type": "function"
    },
    {
      "inputs": [
        {
          "internalType": "uint256",
          "name": "frameKey",
          "type": "uint256"
        }
      ],
      "name": "getLotsLength",
      "outputs": [
        {
          "internalType": "uint256",
          "name": "",
          "type": "uint256"
        }
      ],
      "stateMutability": "view",
      "type": "function"
    },
    {
      "inputs": [
        {
          "internalType": "uint256",
          "name": "frameKey",
          "type": "uint256"
        }
      ],
      "name": "getStateFrame",
      "outputs": [
        {
          "internalType": "enum Market.SFrame",
          "name": "",
          "type": "uint8"
        }
      ],
      "stateMutability": "view",
      "type": "function"
    },
    {
      "inputs": [
        {
          "internalType": "uint256",
          "name": "frameKey",
          "type": "uint256"
        },
        {
          "internalType": "uint256",
          "name": "lotKey",
          "type": "uint256"
        }
      ],
      "name": "getStateLot",
      "outputs": [
        {
          "internalType": "enum Market.SLot",
          "name": "",
          "type": "uint8"
        }
      ],
      "stateMutability": "view",
      "type": "function"
    },
    {
      "inputs": [],
      "name": "initTimestamp",
      "outputs": [
        {
          "internalType": "uint256",
          "name": "",
          "type": "uint256"
        }
      ],
      "stateMutability": "view",
      "type": "function"
    },
    {
      "inputs": [
        {
          "internalType": "uint256",
          "name": "",
          "type": "uint256"
        },
        {
          "internalType": "uint256",
          "name": "",
          "type": "uint256"
        }
      ],
      "name": "lots",
      "outputs": [
        {
          "internalType": "uint256",
          "name": "frameKey",
          "type": "uint256"
        },
        {
          "internalType": "uint256",
          "name": "lotKey",
          "type": "uint256"
        }
      ],
      "stateMutability": "view",
      "type": "function"
    },
    {
      "inputs": [
        {
          "internalType": "uint256",
          "name": "",
          "type": "uint256"
        }
      ],
      "name": "lotsArray",
      "outputs": [
        {
          "internalType": "uint256",
          "name": "",
          "type": "uint256"
        }
      ],
      "stateMutability": "view",
      "type": "function"
    },
    {
      "inputs": [
        {
          "internalType": "uint256",
          "name": "frameKey",
          "type": "uint256"
        },
        {
          "internalType": "uint256",
          "name": "avgPrice",
          "type": "uint256"
        }
      ],
      "name": "overrideFrameRate",
      "outputs": [],
      "stateMutability": "nonpayable",
      "type": "function"
    },
    {
      "inputs": [],
      "name": "owner",
      "outputs": [
        {
          "internalType": "address",
          "name": "",
          "type": "address"
        }
      ],
      "stateMutability": "view",
      "type": "function"
    },
    {
      "inputs": [],
      "name": "period",
      "outputs": [
        {
          "internalType": "uint256",
          "name": "",
          "type": "uint256"
        }
      ],
      "stateMutability": "view",
      "type": "function"
    },
    {
      "inputs": [
        {
          "internalType": "uint256",
          "name": "frameKey",
          "type": "uint256"
        }
      ],
      "name": "setFrameRate",
      "outputs": [],
      "stateMutability": "nonpayable",
      "type": "function"
    },
    {
      "inputs": [
        {
          "internalType": "uint256",
          "name": "frameKey",
          "type": "uint256"
        }
      ],
      "name": "settleFrame",
      "outputs": [
        {
          "internalType": "uint256",
          "name": "",
          "type": "uint256"
        }
      ],
      "stateMutability": "nonpayable",
      "type": "function"
    },
    {
      "inputs": [],
      "name": "tSettle",
      "outputs": [
        {
          "internalType": "uint256",
          "name": "",
          "type": "uint256"
        }
      ],
      "stateMutability": "view",
      "type": "function"
    },
    {
      "inputs": [],
      "name": "taxMarket",
      "outputs": [
        {
          "internalType": "uint256",
          "name": "",
          "type": "uint256"
        }
      ],
      "stateMutability": "view",
      "type": "function"
    },
    {
      "inputs": [
        {
          "internalType": "uint256",
          "name": "amount",
          "type": "uint256"
        }
      ],
      "name": "toQ96",
      "outputs": [
        {
          "internalType": "uint256",
          "name": "",
          "type": "uint256"
        }
      ],
      "stateMutability": "view",
      "type": "function"
    },
    {
      "inputs": [
        {
          "internalType": "uint256",
          "name": "timestamp",
          "type": "uint256"
        },
        {
          "internalType": "uint256",
          "name": "rate",
          "type": "uint256"
        },
        {
          "internalType": "uint256",
          "name": "acquisitionPrice",
          "type": "uint256"
        }
      ],
      "name": "tradeLot",
      "outputs": [],
      "stateMutability": "nonpayable",
      "type": "function"
    },
    {
      "inputs": [],
      "name": "uniswapPool",
      "outputs": [
        {
          "internalType": "contract IUniswapV3Pool",
          "name": "",
          "type": "address"
        }
      ],
      "stateMutability": "view",
      "type": "function"
    },
    {
      "inputs": [
        {
          "internalType": "uint256",
          "name": "amount",
          "type": "uint256"
        }
      ],
      "name": "withdrawAccountingToken",
      "outputs": [],
      "stateMutability": "nonpayable",
      "type": "function"
    }
  ],
  "bytecode": "0x60a060405262015180600055636592e1806001556000600255610258600355600060055560006006553480156200003557600080fd5b50604051620044d2380380620044d2833981016040819052620000589162000382565b60088054336001600160a01b0319918216179091556004805482166001600160a01b03848116919091178255600780549093169088169081179092556040805163313ce56760e01b8152905163313ce567928281019260209291908290030181865afa158015620000cd573d6000803e3d6000fd5b505050506040513d601f19601f82011682018060405250810190620000f39190620003d7565b6007805460ff60a01b1916600160a01b60ff938416810291909117918290556200012292910416600a6200050f565b60808190526200014e906064906200013c9087906200051d565b62000148919062000537565b62000190565b60025560805162000169906064906200013c9086906200051d565b6006556080516200018190620001489084906200051d565b60055550620005869350505050565b6000620001b4826c01000000000000000000000000608051620001ba60201b60201c565b92915050565b6000808060001985870985870292508281108382030391505080600003620001f65760008411620001ea57600080fd5b5082900490506200035e565b8084116200020357600080fd5b60008486880980840393811190920391905060008562000226811960016200055a565b169586900495938490049360008190030460010190506200024881846200051d565b9093179260006200025b8760036200051d565b60021890506200026c81886200051d565b6200027990600262000570565b6200028590826200051d565b90506200029381886200051d565b620002a090600262000570565b620002ac90826200051d565b9050620002ba81886200051d565b620002c790600262000570565b620002d390826200051d565b9050620002e181886200051d565b620002ee90600262000570565b620002fa90826200051d565b90506200030881886200051d565b6200031590600262000570565b6200032190826200051d565b90506200032f81886200051d565b6200033c90600262000570565b6200034890826200051d565b90506200035681866200051d565b955050505050505b9392505050565b80516001600160a01b03811681146200037d57600080fd5b919050565b600080600080600060a086880312156200039b57600080fd5b620003a68662000365565b9450602086015193506040860151925060608601519150620003cb6080870162000365565b90509295509295909350565b600060208284031215620003ea57600080fd5b815160ff811681146200035e57600080fd5b634e487b7160e01b600052601160045260246000fd5b600181815b8085111562000453578160001904821115620004375762000437620003fc565b808516156200044557918102915b93841c939080029062000417565b509250929050565b6000826200046c57506001620001b4565b816200047b57506000620001b4565b81600181146200049457600281146200049f57620004bf565b6001915050620001b4565b60ff841115620004b357620004b3620003fc565b50506001821b620001b4565b5060208310610133831016604e8410600b8410161715620004e4575081810a620001b4565b620004f0838362000412565b8060001904821115620005075762000507620003fc565b029392505050565b60006200035e83836200045b565b8082028115828204841417620001b457620001b4620003fc565b6000826200055557634e487b7160e01b600052601260045260246000fd5b500490565b80820180821115620001b457620001b4620003fc565b81810381811115620001b457620001b4620003fc565b608051613f22620005b0600039600081816105a70152818161082c01526111400152613f226000f3fe608060405234801561001057600080fd5b50600436106102695760003560e01c80638edc6a2c11610151578063c0423f2e116100c3578063ed320aa811610087578063ed320aa814610602578063ef78d4fd1461060a578063f601d51014610613578063fb0d5e0914610639578063fe68747514610659578063ffdabe2d1461066c57600080fd5b8063c0423f2e1461059a578063c2930f91146105a2578063d18743dd146105c9578063da68cf8b146105dc578063e107fb4f146105ef57600080fd5b8063b866debb11610115578063b866debb146104f2578063b93dafa914610505578063ba4e137f1461054c578063ba52f34214610554578063bad1265314610567578063bdd3d8251461058757600080fd5b80638edc6a2c1461040e5780639592de1814610431578063a10340bc14610444578063a73482f6146104cc578063b254eb17146104df57600080fd5b8063527eb4bc116101ea578063773d51eb116101ae578063773d51eb1461038b57806378328a17146103ab5780637e996639146103be57806386e670cb146103c75780638a5779c8146103da5780638da5cb5b146103e357600080fd5b8063527eb4bc1461033357806361eee2cb1461033c57806364772f211461034f5780636f1aefc3146103625780637358c57a1461038257600080fd5b80632c438717116102315780632c438717146102d157806339a6a489146102e45780633baf1587146102f7578063499a0fc41461030a5780634c73884f1461031357600080fd5b8063050e88401461026e5780630d0a1c1a1461029457806318d13d87146102b4578063197c4e78146102c95780632457e62014610294575b600080fd5b61028161027c36600461348a565b61067f565b6040519081526020015b60405180910390f35b6102a76102a236600461348a565b6106a0565b60405161028b91906134a3565b6102c76102c23660046134e7565b610705565b005b600c54610281565b6102816102df36600461348a565b610824565b6102816102f236600461348a565b61085b565b6102c761030536600461348a565b610a28565b61028160055481565b6103266103213660046134e7565b610af2565b60405161028b919061351f565b61028160025481565b61028161034a36600461348a565b610c1e565b6102c761035d366004613539565b610c55565b6103756103703660046134e7565b610d8e565b60405161028b91906135aa565b61028160015481565b61039e61039936600461348a565b610ee5565b60405161028b9190613615565b6102816103b93660046136c3565b61100e565b61028160065481565b6102c76103d536600461348a565b611070565b61028160035481565b6008546103f6906001600160a01b031681565b6040516001600160a01b03909116815260200161028b565b61028161041c36600461348a565b60009081526009602052604090206002015490565b61028161043f36600461348a565b6110db565b61049161045236600461348a565b600960205260009081526040902080546001820154600383015460048401546005850154600690950154939492936001600160a01b0390921692909186565b6040805196875260208701959095526001600160a01b03909316938501939093526060840152608083019190915260a082015260c00161028b565b6102816104da3660046134e7565b611116565b6102816104ed36600461348a565b611133565b61028161050036600461348a565b611164565b6105376105133660046134e7565b600b6020908152600092835260408084209091529082529020805460019091015482565b6040805192835260208301919091520161028b565b610281611637565b61028161056236600461348a565b611926565b61057a61057536600461348a565b611936565b60405161028b91906136f3565b6004546103f6906001600160a01b031681565b6102a76119cd565b6102817f000000000000000000000000000000000000000000000000000000000000000081565b6102c76105d736600461348a565b611a25565b6007546103f6906001600160a01b031681565b6102816105fd3660046134e7565b611b0d565b600a54610281565b61028160005481565b60075461062790600160a01b900460ff1681565b60405160ff909116815260200161028b565b61064c6106473660046134e7565b611bc5565b60405161028b9190613707565b6102c761066736600461348a565b611c7b565b61028161067a36600461348a565b611ce5565b600a818154811061068f57600080fd5b600091825260209091200154905081565b6000818152600960209081526040918290206002018054835181840281018401909452808452606093928301828280156106f957602002820191906000526020600020905b8154815260200190600101908083116106e5575b50505050509050919050565b6008546001600160a01b031633146107745760405162461bcd60e51b815260206004820152602760248201527f4f6e6c79206f776e65722063616e20757064617465206672616d6520636c6f736044820152666520707269636560c81b60648201526084015b60405180910390fd5b60008281526009602052604081205490036107a15760405162461bcd60e51b815260040161076b90613744565b6000828152600960205260409020600301546001600160a01b0316156108095760405162461bcd60e51b815260206004820181905260248201527f4672616d65207265776172642077617320616c726561647920636c61696d6564604482015260640161076b565b60009182526009602052604080832054835290912060010155565b6000610855827f0000000000000000000000000000000000000000000000000000000000000000600160601b612120565b92915050565b600080805b600084815260096020526040902060020154811015610a2157600084815260096020818152604080842080548552600b8352908420888552929091526002018054839190859081106108b4576108b4613771565b90600052602060002001548152602001908152602001600020604051806060016040529081600082015481526020016001820154815260200160028201805480602002602001604051908101604052809291908181526020016000905b828210156109825760008481526020908190206040805160c08101825260068602909201805483526001808201548486015260028201546001600160a01b03169284019290925260038101546060840152600481015460808401526005015460a08301529083529092019101610911565b5050505081525050905060005b816040015151811015610a0c57816040015181815181106109b2576109b2613771565b602002602001015160800151846109c9919061379d565b9350816040015181815181106109e1576109e1613771565b602002602001015160a00151846109f891906137b0565b935080610a04816137c3565b91505061098f565b50508080610a19906137c3565b915050610860565b5092915050565b6000805482825260096020526040909120544291610a459161379d565b1115610a935760405162461bcd60e51b815260206004820152601b60248201527f4672616d652068617320746f20626520696e2074686520706173740000000000604482015260640161076b565b6000610a9e82611ce5565b600083815260096020526040908190206001810183905590519192507f861dcb88c2eea524dd3c4d2026fc29c39249f4d090843bcc78037879d296c45291610ae691906137dc565b60405180910390a15050565b6000828152600b602090815260408083208484529091528120600101548103610b1d57506000610855565b6000610b2884611936565b6004811115610b3957610b39613509565b03610b4657506000610855565b6001610b5184611936565b6004811115610b6257610b62613509565b1480610b8757506002610b7484611936565b6004811115610b8557610b85613509565b145b15610b9457506001610855565b6000838152600b602090815260408083208584528252808320600190810154878552600990935292209091015410801590610c0857506005546000848152600b60209081526040808320868452909152902060010154610bf4919061379d565b600084815260096020526040902060010154105b15610c1557506002610855565b50600392915050565b60006001548211610c3157505060015490565b600054600154610c4190846137b0565b610c4b9190613890565b61085590836137b0565b6000610c6084610c1e565b90506000610c6d846110db565b6000838152600b6020908152604080832084845290915281206001015491925003610cc2576000828152600960205260408120549003610cb257610cb085612299565b505b610cbd8282856123d6565b610d37565b6000828152600b6020908152604080832084845290915290206002018054339190610cef906001906137b0565b81548110610cff57610cff613771565b60009182526020909120600260069092020101546001600160a01b031603610d2c57610cbd828285612721565b610d37828285612b5f565b6000828152600b602090815260408083208484529091529081902090517f906ff162b3f2709ab28fb678d43913964434148dd206e9b17adb3c1255090cb191610d7f9161394b565b60405180910390a15050505050565b610db260405180606001604052806000815260200160008152602001606081525090565b6000838152600b602090815260408083208584529091528120600101549003610e115760405162461bcd60e51b8152602060048201526011602482015270131bdd08191bd95cdb89dd08195e1a5cdd607a1b604482015260640161076b565b6000838152600b602090815260408083208584528252808320815160608101835281548152600182015481850152600282018054845181870281018701865281815292969395948701949293919290919084015b82821015610ed65760008481526020908190206040805160c08101825260068602909201805483526001808201548486015260028201546001600160a01b03169284019290925260038101546060840152600481015460808401526005015460a08301529083529092019101610e65565b50505091525090949350505050565b610f2e6040518060e0016040528060008152602001600081526020016060815260200160006001600160a01b031681526020016000815260200160008152602001600081525090565b6000828152600960205260408120549003610f5b5760405162461bcd60e51b815260040161076b90613744565b600082815260096020908152604091829020825160e0810184528154815260018201548184015260028201805485518186028101860187528181529295939493860193830182828015610fcd57602002820191906000526020600020905b815481526020019060010190808311610fb9575b505050918352505060038201546001600160a01b03166020820152600482015460408201526005820154606082015260069091015460809091015292915050565b600754600090819061102b90600160a01b900460ff16601261395e565b61103690600a613a5b565b90508215611066578061104a600282613a6a565b611054908661379d565b61105e9190613a6a565b915050610855565b61105e8185613a6a565b6008546001600160a01b031633146110d65760405162461bcd60e51b8152602060048201526024808201527f4f6e6c79206f776e65722063616e206368616e6765207461782070657263656e6044820152637461676560e01b606482015260840161076b565b600655565b60006005548210156110ef57505060055490565b6000600554836110ff9190613a6a565b905061110f816005546001612120565b9392505050565b6000611127826402540be400613a7e565b915061110f838361379d565b600061085582600160601b7f0000000000000000000000000000000000000000000000000000000000000000612120565b60008181526009602052604081205481036111915760405162461bcd60e51b815260040161076b90613744565b600361119c83611936565b60048111156111ad576111ad613509565b146112065760405162461bcd60e51b8152602060048201526024808201527f4672616d6520646f6573206e6f742068617665206120636c6f73652072617465604482015263081cd95d60e21b606482015260840161076b565b600082815260096020526040812060010154611221906110db565b6000848152600b6020908152604080832084845290915281209192506112468561085b565b9050600061125b82600254600160601b612120565b9050600061126982846137b0565b6000888152600960205260409020600581018490556006018190556002850154909150156114c25760408051808201909152601081526f2637ba103430b99030b71037bbb732b960811b60208201526002850180546113029291906112d0906001906137b0565b815481106112e0576112e0613771565b60009182526020909120600260069092020101546001600160a01b031661302d565b6007546002850180546001600160a01b039092169163a9059cbb919061132a906001906137b0565b8154811061133a5761133a613771565b60009182526020909120600260069092020101546001600160a01b031661136084610824565b6040516001600160e01b031960e085901b1681526001600160a01b03909216600483015260248201526044016020604051808303816000875af11580156113ab573d6000803e3d6000fd5b505050506040513d601f19601f820116820180604052508101906113cf9190613a95565b506002840180546113e2906001906137b0565b815481106113f2576113f2613771565b60009182526020808320600260069093020191909101548983526009909152604090912060030180546001600160a01b0319166001600160a01b039283161790556007546008549082169163a9059cbb911661144d85610824565b6040516001600160e01b031960e085901b1681526001600160a01b03909216600483015260248201526044016020604051808303816000875af1158015611498573d6000803e3d6000fd5b505050506040513d601f19601f820116820180604052508101906114bc9190613a95565b50611586565b6007546008546001600160a01b039182169163a9059cbb91166114e486610824565b6040516001600160e01b031960e085901b1681526001600160a01b03909216600483015260248201526044016020604051808303816000875af115801561152f573d6000803e3d6000fd5b505050506040513d601f19601f820116820180604052508101906115539190613a95565b50600854600088815260096020526040902060030180546001600160a01b0319166001600160a01b039092169190911790555b600087815260096020526040908190206001810154600490910155517f906ff162b3f2709ab28fb678d43913964434148dd206e9b17adb3c1255090cb1906115cf90869061394b565b60405180910390a16000878152600960205260409081902090517f861dcb88c2eea524dd3c4d2026fc29c39249f4d090843bcc78037879d296c45291611614916137dc565b60405180910390a150505060009384525050600960205250604090206006015490565b6004805460408051633850c7bd60e01b8152905160009384936001600160a01b031692633850c7bd928183019260e0928290030181865afa158015611680573d6000803e3d6000fd5b505050506040513d601f19601f820116820180604052508101906116a49190613aef565b50505050505090506000816001600160a01b0316826001600160a01b03166116cc9190613a7e565b6004805460408051630dfe168160e01b81529051939450606085901c936000936001600160a01b0390931692630dfe1681928082019260209290918290030181865afa158015611720573d6000803e3d6000fd5b505050506040513d601f19601f820116820180604052508101906117449190613b85565b90506000600460009054906101000a90046001600160a01b03166001600160a01b031663d21220a76040518163ffffffff1660e01b8152600401602060405180830381865afa15801561179b573d6000803e3d6000fd5b505050506040513d601f19601f820116820180604052508101906117bf9190613b85565b90506000826001600160a01b031663313ce5676040518163ffffffff1660e01b8152600401602060405180830381865afa158015611801573d6000803e3d6000fd5b505050506040513d601f19601f820116820180604052508101906118259190613ba2565b90506000826001600160a01b031663313ce5676040518163ffffffff1660e01b8152600401602060405180830381865afa158015611867573d6000803e3d6000fd5b505050506040513d601f19601f8201168201806040525081019061188b9190613ba2565b90508060ff168260ff1611156118c2576118bb856118a9838561395e565b6118b490600a613a5b565b6001612120565b94506118f3565b8160ff168160ff1611156118f3576118f08560016118e0858561395e565b6118eb90600a613a5b565b612120565b94505b6007546001600160a01b0380861691160361191a57611917600160601b8087612120565b94505b50929695505050505050565b600c818154811061068f57600080fd5b600081815260096020526040812054810361195357506000919050565b6000828152600960205260409020600301546001600160a01b03161561197b57506004919050565b600080548382526009602052604090912054611997919061379d565b4210156119a657506001919050565b600082815260096020526040902060010154156119c557506003919050565b506002919050565b6060600c805480602002602001604051908101604052809291908181526020018280548015611a1b57602002820191906000526020600020905b815481526020019060010190808311611a07575b5050505050905090565b6008546001600160a01b03163314611a905760405162461bcd60e51b815260206004820152602860248201527f4f6e6c79206f776e65722063616e207769746864726177206163636f756e74696044820152673733903a37b5b2b760c11b606482015260840161076b565b60075460085460405163a9059cbb60e01b81526001600160a01b0391821660048201526024810184905291169063a9059cbb906044016020604051808303816000875af1158015611ae5573d6000803e3d6000fd5b505050506040513d601f19601f82011682018060405250810190611b099190613a95565b5050565b60004260005484611b1e919061379d565b11611b6b5760405162461bcd60e51b815260206004820152601d60248201527f4672616d652068617320746f20626520696e2074686520667574757265000000604482015260640161076b565b60004260005485611b7c919061379d565b611b8691906137b0565b905060008054600654611b999190613a6a565b90506000611ba78383613a7e565b90506000611bba8287600160601b612120565b979650505050505050565b6000828152600b602090815260408083208484528252808320600201805482518185028101850190935280835260609492939192909184015b82821015611c6f5760008481526020908190206040805160c08101825260068602909201805483526001808201548486015260028201546001600160a01b03169284019290925260038101546060840152600481015460808401526005015460a08301529083529092019101611bfe565b50505050905092915050565b6008546001600160a01b03163314611ce05760405162461bcd60e51b815260206004820152602260248201527f4f6e6c79206f776e65722063616e206368616e67652070726f746f636f6c2066604482015261656560f01b606482015260840161076b565b600255565b6000806003548342611cf791906137b0565b611d01919061379d565b90506000611d0f84426137b0565b60408051600280825260608201835292935060009290916020830190803683370190505090508281600081518110611d4957611d49613771565b602002602001019063ffffffff16908163ffffffff16815250508181600181518110611d7757611d77613771565b63ffffffff909216602092830291909101909101526004805460405163883bdbfd60e01b81526000926001600160a01b039092169163883bdbfd91611dbe91869101613bd3565b600060405180830381865afa158015611ddb573d6000803e3d6000fd5b505050506040513d6000823e601f3d908101601f19168201604052611e039190810190613ccf565b509050600081600081518110611e1b57611e1b613771565b602002602001015160060b82600181518110611e3957611e39613771565b602002602001015160060b611e4e9190613d9b565b90506000811215611e975760405162461bcd60e51b81526020600482015260136024820152724e65676174697665207469636b2064656c746160681b604482015260640161076b565b806000611ead63ffffffff8088169089166137b0565b90506000611ebb8284613a6a565b90506000611ec882613072565b90506000611edf6001600160a01b03831680613a7e565b6004805460408051630dfe168160e01b81529051939450606085901c936000936001600160a01b0390931692630dfe1681928082019260209290918290030181865afa158015611f33573d6000803e3d6000fd5b505050506040513d601f19601f82011682018060405250810190611f579190613b85565b90506000600460009054906101000a90046001600160a01b03166001600160a01b031663d21220a76040518163ffffffff1660e01b8152600401602060405180830381865afa158015611fae573d6000803e3d6000fd5b505050506040513d601f19601f82011682018060405250810190611fd29190613b85565b90506000826001600160a01b031663313ce5676040518163ffffffff1660e01b8152600401602060405180830381865afa158015612014573d6000803e3d6000fd5b505050506040513d601f19601f820116820180604052508101906120389190613ba2565b90506000826001600160a01b031663313ce5676040518163ffffffff1660e01b8152600401602060405180830381865afa15801561207a573d6000803e3d6000fd5b505050506040513d601f19601f8201168201806040525081019061209e9190613ba2565b90508060ff168260ff1611156120c3576120bc856118a9838561395e565b94506120e4565b8160ff168160ff1611156120e4576120e18560016118e0858561395e565b94505b6007546001600160a01b0380861691160361210b57612108600160601b8087612120565b94505b50929f9e505050505050505050505050505050565b6000808060001985870985870292508281108382030391505080600003612159576000841161214e57600080fd5b50829004905061110f565b80841161216557600080fd5b6000848688098084039381119092039190506000856121868119600161379d565b169586900495938490049360008190030460010190506121a68184613a7e565b9093179260006121b7876003613a7e565b60021890506121c68188613a7e565b6121d19060026137b0565b6121db9082613a7e565b90506121e78188613a7e565b6121f29060026137b0565b6121fc9082613a7e565b90506122088188613a7e565b6122139060026137b0565b61221d9082613a7e565b90506122298188613a7e565b6122349060026137b0565b61223e9082613a7e565b905061224a8188613a7e565b6122559060026137b0565b61225f9082613a7e565b905061226b8188613a7e565b6122769060026137b0565b6122809082613a7e565b905061228c8186613a7e565b9998505050505050505050565b6000806122a583610c1e565b600081815260096020526040902054909150156122fb5760405162461bcd60e51b81526020600482015260146024820152734672616d6520616c72656164792065786973747360601b604482015260640161076b565b426000548261230a919061379d565b10156123585760405162461bcd60e51b815260206004820152601d60248201527f4672616d652068617320746f20626520696e2074686520667574757265000000604482015260640161076b565b60008181526009602052604090819020828155600a8054600181019091557fc65a7bb8d6351c1cf70c95a316cc6a92839c986682d98bc35f958f4883f9d2a80183905590517f861dcb88c2eea524dd3c4d2026fc29c39249f4d090843bcc78037879d296c452916123c8916137dc565b60405180910390a192915050565b60006123e28483611b0d565b905060006123ef82610824565b9050600081116124115760405162461bcd60e51b815260040161076b90613dbb565b600754604051636eb1769f60e11b815233600482015230602482015282916001600160a01b03169063dd62ed3e90604401602060405180830381865afa15801561245f573d6000803e3d6000fd5b505050506040513d601f19601f820116820180604052508101906124839190613e18565b10156124a15760405162461bcd60e51b815260040161076b90613e31565b7f161bcca7119915b50764b4abe86529797775a5f171951000000000000000000084106125025760405162461bcd60e51b815260206004820152600f60248201526e4c6f74206b657920746f6f2062696760881b604482015260640161076b565b6000858152600b60209081526040808320878452909152902060010154156125615760405162461bcd60e51b81526020600482015260126024820152714c6f7420616c72656164792065786973747360701b604482015260640161076b565b60006040518060c00160405280438152602001428152602001336001600160a01b0316815260200185815260200161259884611133565b815260006020918201819052888152600b8252604080822089835283528082208a815560018082018b9055600280830180548084018255908652868620885160069092020190815595870151918601919091559185015191840180546001600160a01b0319166001600160a01b0390931692909217909155606084015160038401556080840151600484015560a0840151600590930192909255919250906126408888611116565b600c805460018181019092557fdf6966c971051c3d54ec59162606531493a51404a002842f56009d7e5cf4a8c70182905560008a8152600960209081526040808320878501546002909101805495860181558452919092209092019190915560075490516323b872dd60e01b81529192506001600160a01b0316906323b872dd906126d390339030908990600401613e68565b6020604051808303816000875af11580156126f2573d6000803e3d6000fd5b505050506040513d601f19601f820116820180604052508101906127169190613a95565b505050505050505050565b6000838152600b6020908152604080832085845290915281206002018054612778918691612751906001906137b0565b8154811061276157612761613771565b906000526020600020906006020160030154611b0d565b905060006127868584611b0d565b90508082111561295d57600061279c82846137b0565b905060006127a982610824565b6007546000898152600b602090815260408083208b8452909152902060020180549293506001600160a01b039091169163a9059cbb91906127ec906001906137b0565b815481106127fc576127fc613771565b600091825260209091206006909102016002015460405160e083901b6001600160e01b03191681526001600160a01b039091166004820152602481018490526044016020604051808303816000875af115801561285d573d6000803e3d6000fd5b505050506040513d601f19601f820116820180604052508101906128819190613a95565b50600b600088815260200190815260200160002060008781526020019081526020016000206002016040518060c00160405280438152602001428152602001336001600160a01b03168152602001878152602001600081526020016128e584611133565b905281546001808201845560009384526020938490208351600690930201918255928201519281019290925560408101516002830180546001600160a01b0319166001600160a01b03909216919091179055606081015160038301556080810151600483015560a0015160059091015550612b589050565b600061296983836137b0565b9050600061297682610824565b600754604051636eb1769f60e11b815233600482015230602482015291925082916001600160a01b039091169063dd62ed3e90604401602060405180830381865afa1580156129c9573d6000803e3d6000fd5b505050506040513d601f19601f820116820180604052508101906129ed9190613e18565b1015612a0b5760405162461bcd60e51b815260040161076b90613e31565b6007546040516323b872dd60e01b81526001600160a01b03909116906323b872dd90612a3f90339030908690600401613e68565b6020604051808303816000875af1158015612a5e573d6000803e3d6000fd5b505050506040513d601f19601f82011682018060405250810190612a829190613a95565b50600b600088815260200190815260200160002060008781526020019081526020016000206002016040518060c00160405280438152602001428152602001336001600160a01b03168152602001878152602001612adf84611133565b815260006020918201819052835460018082018655948252908290208351600690920201908155908201519281019290925560408101516002830180546001600160a01b0319166001600160a01b03909216919091179055606081015160038301556080810151600483015560a0015160059091015550505b5050505050565b6000838152600b6020908152604080832085845290915281206002018054612b89906001906137b0565b81548110612b9957612b99613771565b600091825260208220600260069092020101546001600160a01b03169150612bc18584611b0d565b905060008111612be35760405162461bcd60e51b815260040161076b90613dbb565b6000858152600b6020908152604080832087845290915281206002018054612c0d906001906137b0565b81548110612c1d57612c1d613771565b90600052602060002090600602016003015490506000612c3c82610824565b90506000612c4984610824565b9050612c55828261379d565b600754604051636eb1769f60e11b81523360048201523060248201526001600160a01b039091169063dd62ed3e90604401602060405180830381865afa158015612ca3573d6000803e3d6000fd5b505050506040513d601f19601f82011682018060405250810190612cc79190613e18565b1015612ce55760405162461bcd60e51b815260040161076b90613e31565b6007546040516323b872dd60e01b81526001600160a01b03909116906323b872dd90612d1990339030908690600401613e68565b6020604051808303816000875af1158015612d38573d6000803e3d6000fd5b505050506040513d601f19601f82011682018060405250810190612d5c9190613a95565b506007546040516323b872dd60e01b81526001600160a01b03909116906323b872dd90612d9190339089908790600401613e68565b6020604051808303816000875af1158015612db0573d6000803e3d6000fd5b505050506040513d601f19601f82011682018060405250810190612dd49190613a95565b506000888152600b602090815260408083208a845290915281206002018054612e05918b91612751906001906137b0565b90506000612e1282610824565b60075460405163a9059cbb60e01b81526001600160a01b038a811660048301526024820184905292935091169063a9059cbb906044016020604051808303816000875af1158015612e67573d6000803e3d6000fd5b505050506040513d601f19601f82011682018060405250810190612e8b9190613a95565b50600b60008b815260200190815260200160002060008a81526020019081526020016000206002016040518060c00160405280438152602001428152602001896001600160a01b0316815260200187815260200160008152602001612eef84611133565b90528154600180820184556000938452602080852084516006909402019283558381015191830191909155604080840151600280850180546001600160a01b0319166001600160a01b03909316929092179091556060808601516003860155608080870151600487015560a0909601516005909501949094558f8652600b83528186208f8752835294819020815160c081018352438152429381019390935233918301919091529181018c9052920191908101612fab86611133565b815260006020918201819052835460018082018655948252908290208351600690920201908155908201519281019290925560408101516002830180546001600160a01b0319166001600160a01b03909216919091179055606081015160038301556080810151600483015560a0015160059091015550505050505050505050565b611b098282604051602401613043929190613e8c565b60408051601f198184030181529190526020810180516001600160e01b031663319af33360e01b17905261345d565b600081620d89e88111156130ac5760405162461bcd60e51b81526020600482015260016024820152601560fa1b604482015260640161076b565b6000816001166000036130c357600160801b6130d5565b6ffffcb933bd6fad37aa2d162d1a5940015b70ffffffffffffffffffffffffffffffffff169050600282161561311457608061310f826ffff97272373d413259a46990580e213a613a7e565b901c90505b600482161561313e576080613139826ffff2e50f5f656932ef12357cf3c7fdcc613a7e565b901c90505b6008821615613168576080613163826fffe5caca7e10e4e61c3624eaa0941cd0613a7e565b901c90505b601082161561319257608061318d826fffcb9843d60f6159c9db58835c926644613a7e565b901c90505b60208216156131bc5760806131b7826fff973b41fa98c081472e6896dfb254c0613a7e565b901c90505b60408216156131e65760806131e1826fff2ea16466c96a3843ec78b326b52861613a7e565b901c90505b608082161561321057608061320b826ffe5dee046a99a2a811c461f1969c3053613a7e565b901c90505b61010082161561323b576080613236826ffcbe86c7900a88aedcffc83b479aa3a4613a7e565b901c90505b610200821615613266576080613261826ff987a7253ac413176f2b074cf7815e54613a7e565b901c90505b61040082161561329157608061328c826ff3392b0822b70005940c7a398e4b70f3613a7e565b901c90505b6108008216156132bc5760806132b7826fe7159475a2c29b7443b29c7fa6e889d9613a7e565b901c90505b6110008216156132e75760806132e2826fd097f3bdfd2022b8845ad8f792aa5825613a7e565b901c90505b61200082161561331257608061330d826fa9f746462d870fdf8a65dc1f90e061e5613a7e565b901c90505b61400082161561333d576080613338826f70d869a156d2a1b890bb3df62baf32f7613a7e565b901c90505b618000821615613368576080613363826f31be135f97d08fd981231505542fcfa6613a7e565b901c90505b6201000082161561339457608061338f826f09aa508b5b7a84e1c677de54f3e99bc9613a7e565b901c90505b620200008216156133bf5760806133ba826e5d6af8dedb81196699c329225ee604613a7e565b901c90505b620400008216156133e95760806133e4826d2216e584f5fa1ea926041bedfe98613a7e565b901c90505b6208000082161561341157608061340c826b048a170391f7dc42444e8fa2613a7e565b901c90505b83156134265761342381600019613a6a565b90505b61343564010000000082613890565b15613441576001613444565b60005b6134559060ff16602083901c61379d565b949350505050565b61346681613469565b50565b60006a636f6e736f6c652e6c6f679050600080835160208501845afa505050565b60006020828403121561349c57600080fd5b5035919050565b6020808252825182820181905260009190848201906040850190845b818110156134db578351835292840192918401916001016134bf565b50909695505050505050565b600080604083850312156134fa57600080fd5b50508035926020909101359150565b634e487b7160e01b600052602160045260246000fd5b602081016004831061353357613533613509565b91905290565b60008060006060848603121561354e57600080fd5b505081359360208301359350604090920135919050565b80518252602080820151908301526040808201516001600160a01b031690830152606080820151908301526080808201519083015260a0908101519082015260c00190565b6000602080835260808301845182850152818501516040850152604085015160608086015281815180845260a0870191508483019350600092505b8083101561360a576135f8828551613565565b915084840193506001830192506135e5565b509695505050505050565b600060208083526101008301845182850152818501516040850152604085015160e06060860152818151808452610120870191508483019350600092505b808310156136735783518252928401926001929092019190840190613653565b5060608701516001600160a01b03811660808801529350608087015160a087015260a087015160c087015260c087015160e08701528094505050505092915050565b801515811461346657600080fd5b600080604083850312156136d657600080fd5b8235915060208301356136e8816136b5565b809150509250929050565b602081016005831061353357613533613509565b6020808252825182820181905260009190848201906040850190845b818110156134db57613736838551613565565b938501939250600101613723565b602080825260139082015272119c985b5948191bd95cdb89dd08195e1a5cdd606a1b604082015260600190565b634e487b7160e01b600052603260045260246000fd5b634e487b7160e01b600052601160045260246000fd5b8082018082111561085557610855613787565b8181038181111561085557610855613787565b6000600182016137d5576137d5613787565b5060010190565b6020808252825482820152600180840154604084015260e06060840152600284018054610100850181905260009182528382209193929084906101208701905b80831015613839578454825293830193918301919085019061381c565b5060038801546001600160a01b03166080880152600488015460a0880152600588015460c088015260069097015460e0909601959095525093949350505050565b634e487b7160e01b600052601260045260246000fd5b60008261389f5761389f61387a565b500690565b60006060808401835485526001808501546020818189015260029150818701604086818b015285825480885260809750878c0191508360005284600020935060005b8181101561393a57845483528785015486840152868501546001600160a01b03168484015260038501548a840152600485015489840152600585015460a084015260069094019360c09092019187016138e6565b50909b9a5050505050505050505050565b60208152600061110f60208301846138a4565b60ff828116828216039081111561085557610855613787565b600181815b808511156139b257816000190482111561399857613998613787565b808516156139a557918102915b93841c939080029061397c565b509250929050565b6000826139c957506001610855565b816139d657506000610855565b81600181146139ec57600281146139f657613a12565b6001915050610855565b60ff841115613a0757613a07613787565b50506001821b610855565b5060208310610133831016604e8410600b8410161715613a35575081810a610855565b613a3f8383613977565b8060001904821115613a5357613a53613787565b029392505050565b600061110f60ff8416836139ba565b600082613a7957613a7961387a565b500490565b808202811582820484141761085557610855613787565b600060208284031215613aa757600080fd5b815161110f816136b5565b6001600160a01b038116811461346657600080fd5b805161ffff81168114613ad957600080fd5b919050565b805160ff81168114613ad957600080fd5b600080600080600080600060e0888a031215613b0a57600080fd5b8751613b1581613ab2565b8097505060208801518060020b8114613b2d57600080fd5b9550613b3b60408901613ac7565b9450613b4960608901613ac7565b9350613b5760808901613ac7565b9250613b6560a08901613ade565b915060c0880151613b75816136b5565b8091505092959891949750929550565b600060208284031215613b9757600080fd5b815161110f81613ab2565b600060208284031215613bb457600080fd5b61110f82613ade565b634e487b7160e01b600052604160045260246000fd5b6020808252825182820181905260009190848201906040850190845b818110156134db57835163ffffffff1683529284019291840191600101613bef565b604051601f8201601f1916810167ffffffffffffffff81118282101715613c3a57613c3a613bbd565b604052919050565b600067ffffffffffffffff821115613c5c57613c5c613bbd565b5060051b60200190565b600082601f830112613c7757600080fd5b81516020613c8c613c8783613c42565b613c11565b82815260059290921b84018101918181019086841115613cab57600080fd5b8286015b8481101561360a578051613cc281613ab2565b8352918301918301613caf565b60008060408385031215613ce257600080fd5b825167ffffffffffffffff80821115613cfa57600080fd5b818501915085601f830112613d0e57600080fd5b81516020613d1e613c8783613c42565b82815260059290921b84018101918181019089841115613d3d57600080fd5b948201945b83861015613d6b5785518060060b8114613d5c5760008081fd5b82529482019490820190613d42565b91880151919650909350505080821115613d8457600080fd5b50613d9185828601613c66565b9150509250929050565b8181036000831280158383131683831282161715610a2157610a21613787565b6020808252603c908201527f5461782068617320746f2062652067726561746572207468616e20302e20496e60408201527f63726561736520746865206163717569736974696f6e20707269636500000000606082015260800190565b600060208284031215613e2a57600080fd5b5051919050565b6020808252601e908201527f416c6c6f77616e636520746f207370656e642073657420746f6f206c6f770000604082015260600190565b6001600160a01b039384168152919092166020820152604081019190915260600190565b604081526000835180604084015260005b81811015613eba5760208187018101516060868401015201613e9d565b50600060608285018101919091526001600160a01b03949094166020840152601f01601f19169091019091019291505056fea26469706673582212206f8de5e5a6d9ea42b55d8d228960886249b426398332fc163c6c6caf7ce9d60364736f6c63430008140033",
  "linkReferences": {},
  "deployedLinkReferences": {}
}