{
  "_format": "hh-sol-artifact-1",
  "contractName": "Market",
  "sourceName": "contracts/Market.sol",
  "abi": [
    {
      "inputs": [
        {
          "internalType": "contract MarketFactory",
          "name": "_factory",
          "type": "address"
        },
        {
          "internalType": "contract IERC20",
          "name": "_token",
          "type": "address"
        },
        {
          "internalType": "contract IUniswapV2Pair",
          "name": "_uniswapPair",
          "type": "address"
        },
        {
          "internalType": "uint256",
          "name": "_period",
          "type": "uint256"
        },
        {
          "internalType": "uint256",
          "name": "_initTimestamp",
          "type": "uint256"
        },
        {
          "internalType": "uint256",
          "name": "_taxMarket",
          "type": "uint256"
        },
        {
          "internalType": "uint256",
          "name": "_feeMarket",
          "type": "uint256"
        },
        {
          "internalType": "uint256",
          "name": "_dPrice",
          "type": "uint256"
        },
        {
          "internalType": "uint256",
          "name": "_tReporting",
          "type": "uint256"
        },
        {
          "internalType": "uint256",
          "name": "_minTax",
          "type": "uint256"
        },
        {
          "internalType": "bool",
          "name": "_avgPriceSwitch",
          "type": "bool"
        }
      ],
      "stateMutability": "nonpayable",
      "type": "constructor"
    },
    {
      "anonymous": false,
      "inputs": [
        {
          "indexed": false,
          "internalType": "uint256",
          "name": "frameKey",
          "type": "uint256"
        },
        {
          "indexed": false,
          "internalType": "uint256",
          "name": "oracleTimestampStart",
          "type": "uint256"
        },
        {
          "indexed": false,
          "internalType": "uint256",
          "name": "oracleTimestampEnd",
          "type": "uint256"
        },
        {
          "indexed": false,
          "internalType": "uint256",
          "name": "oraclePrice0CumulativeStart",
          "type": "uint256"
        },
        {
          "indexed": false,
          "internalType": "uint256",
          "name": "oraclePrice0CumulativeEnd",
          "type": "uint256"
        },
        {
          "indexed": false,
          "internalType": "uint256",
          "name": "oraclePrice1CumulativeStart",
          "type": "uint256"
        },
        {
          "indexed": false,
          "internalType": "uint256",
          "name": "oraclePrice1CumulativeEnd",
          "type": "uint256"
        },
        {
          "indexed": false,
          "internalType": "uint256",
          "name": "rewardFund",
          "type": "uint256"
        }
      ],
      "name": "FrameUpdate",
      "type": "event"
    },
    {
      "anonymous": false,
      "inputs": [
        {
          "indexed": false,
          "internalType": "uint256",
          "name": "frameKey",
          "type": "uint256"
        },
        {
          "components": [
            {
              "internalType": "uint256",
              "name": "frameKey",
              "type": "uint256"
            },
            {
              "internalType": "uint256",
              "name": "lotKey",
              "type": "uint256"
            },
            {
              "internalType": "address",
              "name": "lotOwner",
              "type": "address"
            },
            {
              "internalType": "uint256",
              "name": "acquisitionPrice",
              "type": "uint256"
            },
            {
              "internalType": "enum Market.SLot",
              "name": "state",
              "type": "uint8"
            }
          ],
          "indexed": false,
          "internalType": "struct Market.Lot",
          "name": "lotStruct",
          "type": "tuple"
        }
      ],
      "name": "LotUpdate",
      "type": "event"
    },
    {
      "inputs": [],
      "name": "accountingToken",
      "outputs": [
        {
          "internalType": "contract IERC20",
          "name": "",
          "type": "address"
        }
      ],
      "stateMutability": "view",
      "type": "function"
    },
    {
      "inputs": [],
      "name": "avgPriceSwitch",
      "outputs": [
        {
          "internalType": "bool",
          "name": "",
          "type": "bool"
        }
      ],
      "stateMutability": "view",
      "type": "function"
    },
    {
      "inputs": [
        {
          "internalType": "uint256",
          "name": "timestamp",
          "type": "uint256"
        },
        {
          "internalType": "uint256",
          "name": "pairPrice",
          "type": "uint256"
        },
        {
          "internalType": "uint256",
          "name": "acqPrice",
          "type": "uint256"
        }
      ],
      "name": "buyLot",
      "outputs": [],
      "stateMutability": "nonpayable",
      "type": "function"
    },
    {
      "inputs": [
        {
          "internalType": "uint256",
          "name": "frameKey",
          "type": "uint256"
        }
      ],
      "name": "claimReward",
      "outputs": [],
      "stateMutability": "nonpayable",
      "type": "function"
    },
    {
      "inputs": [
        {
          "internalType": "uint256",
          "name": "timestamp",
          "type": "uint256"
        },
        {
          "internalType": "uint256",
          "name": "pairPrice",
          "type": "uint256"
        },
        {
          "internalType": "uint256",
          "name": "acqPrice",
          "type": "uint256"
        }
      ],
      "name": "clcAmountToApprove",
      "outputs": [
        {
          "internalType": "uint256",
          "name": "cmpltAmnt",
          "type": "uint256"
        }
      ],
      "stateMutability": "view",
      "type": "function"
    },
    {
      "inputs": [
        {
          "internalType": "uint256",
          "name": "timestamp",
          "type": "uint256"
        },
        {
          "internalType": "uint256",
          "name": "pairPrice",
          "type": "uint256"
        },
        {
          "internalType": "uint256",
          "name": "acqPrice",
          "type": "uint256"
        }
      ],
      "name": "clcAmountToApproveForUpdate",
      "outputs": [
        {
          "internalType": "uint256",
          "name": "amnt",
          "type": "uint256"
        }
      ],
      "stateMutability": "view",
      "type": "function"
    },
    {
      "inputs": [
        {
          "internalType": "uint256",
          "name": "timestamp",
          "type": "uint256"
        }
      ],
      "name": "clcFrameTimestamp",
      "outputs": [
        {
          "internalType": "uint256",
          "name": "",
          "type": "uint256"
        }
      ],
      "stateMutability": "view",
      "type": "function"
    },
    {
      "inputs": [
        {
          "internalType": "uint256",
          "name": "value",
          "type": "uint256"
        }
      ],
      "name": "clcLotKey",
      "outputs": [
        {
          "internalType": "uint256",
          "name": "",
          "type": "uint256"
        }
      ],
      "stateMutability": "view",
      "type": "function"
    },
    {
      "inputs": [
        {
          "internalType": "uint256",
          "name": "frameKey",
          "type": "uint256"
        }
      ],
      "name": "clcPrice",
      "outputs": [
        {
          "internalType": "uint112",
          "name": "avgPrice",
          "type": "uint112"
        }
      ],
      "stateMutability": "view",
      "type": "function"
    },
    {
      "inputs": [],
      "name": "dPrice",
      "outputs": [
        {
          "internalType": "uint256",
          "name": "",
          "type": "uint256"
        }
      ],
      "stateMutability": "view",
      "type": "function"
    },
    {
      "inputs": [],
      "name": "factory",
      "outputs": [
        {
          "internalType": "contract MarketFactory",
          "name": "",
          "type": "address"
        }
      ],
      "stateMutability": "view",
      "type": "function"
    },
    {
      "inputs": [],
      "name": "feeMarket",
      "outputs": [
        {
          "internalType": "uint256",
          "name": "",
          "type": "uint256"
        }
      ],
      "stateMutability": "view",
      "type": "function"
    },
    {
      "inputs": [],
      "name": "feeProtocol",
      "outputs": [
        {
          "internalType": "uint256",
          "name": "",
          "type": "uint256"
        }
      ],
      "stateMutability": "view",
      "type": "function"
    },
    {
      "inputs": [
        {
          "internalType": "uint256",
          "name": "",
          "type": "uint256"
        }
      ],
      "name": "frames",
      "outputs": [
        {
          "internalType": "uint256",
          "name": "frameKey",
          "type": "uint256"
        },
        {
          "internalType": "uint256",
          "name": "oracleTimestampStart",
          "type": "uint256"
        },
        {
          "internalType": "uint256",
          "name": "oracleTimestampEnd",
          "type": "uint256"
        },
        {
          "internalType": "uint256",
          "name": "rewardFund",
          "type": "uint256"
        },
        {
          "internalType": "uint112",
          "name": "priceAverage",
          "type": "uint112"
        },
        {
          "internalType": "uint256",
          "name": "oraclePrice0CumulativeStart",
          "type": "uint256"
        },
        {
          "internalType": "uint256",
          "name": "oraclePrice0CumulativeEnd",
          "type": "uint256"
        },
        {
          "internalType": "uint256",
          "name": "oraclePrice1CumulativeStart",
          "type": "uint256"
        },
        {
          "internalType": "uint256",
          "name": "oraclePrice1CumulativeEnd",
          "type": "uint256"
        },
        {
          "internalType": "enum Market.SFrame",
          "name": "state",
          "type": "uint8"
        }
      ],
      "stateMutability": "view",
      "type": "function"
    },
    {
      "inputs": [
        {
          "internalType": "uint256",
          "name": "",
          "type": "uint256"
        }
      ],
      "name": "framesKeys",
      "outputs": [
        {
          "internalType": "uint256",
          "name": "",
          "type": "uint256"
        }
      ],
      "stateMutability": "view",
      "type": "function"
    },
    {
      "inputs": [
        {
          "internalType": "uint256",
          "name": "frameKey",
          "type": "uint256"
        },
        {
          "internalType": "uint256",
          "name": "lotKey",
          "type": "uint256"
        }
      ],
      "name": "getLot",
      "outputs": [
        {
          "components": [
            {
              "internalType": "uint256",
              "name": "frameKey",
              "type": "uint256"
            },
            {
              "internalType": "uint256",
              "name": "lotKey",
              "type": "uint256"
            },
            {
              "internalType": "address",
              "name": "lotOwner",
              "type": "address"
            },
            {
              "internalType": "uint256",
              "name": "acquisitionPrice",
              "type": "uint256"
            },
            {
              "internalType": "enum Market.SLot",
              "name": "state",
              "type": "uint8"
            }
          ],
          "internalType": "struct Market.Lot",
          "name": "",
          "type": "tuple"
        }
      ],
      "stateMutability": "view",
      "type": "function"
    },
    {
      "inputs": [
        {
          "internalType": "uint256",
          "name": "frameKey",
          "type": "uint256"
        },
        {
          "internalType": "uint256",
          "name": "index",
          "type": "uint256"
        }
      ],
      "name": "getLotKey",
      "outputs": [
        {
          "internalType": "uint256",
          "name": "",
          "type": "uint256"
        }
      ],
      "stateMutability": "view",
      "type": "function"
    },
    {
      "inputs": [
        {
          "internalType": "uint256",
          "name": "frameKey",
          "type": "uint256"
        }
      ],
      "name": "getLotsCount",
      "outputs": [
        {
          "internalType": "uint256",
          "name": "",
          "type": "uint256"
        }
      ],
      "stateMutability": "view",
      "type": "function"
    },
    {
      "inputs": [
        {
          "internalType": "address",
          "name": "user",
          "type": "address"
        }
      ],
      "name": "getNumOfUserFrames",
      "outputs": [
        {
          "internalType": "uint256",
          "name": "",
          "type": "uint256"
        }
      ],
      "stateMutability": "view",
      "type": "function"
    },
    {
      "inputs": [],
      "name": "getNumberOfFrameKeys",
      "outputs": [
        {
          "internalType": "uint256",
          "name": "",
          "type": "uint256"
        }
      ],
      "stateMutability": "view",
      "type": "function"
    },
    {
      "inputs": [
        {
          "internalType": "uint256",
          "name": "startFrame",
          "type": "uint256"
        },
        {
          "internalType": "uint256",
          "name": "numOfFrames",
          "type": "uint256"
        }
      ],
      "name": "getOpenFrameKeys",
      "outputs": [
        {
          "internalType": "uint256[]",
          "name": "openFrames",
          "type": "uint256[]"
        }
      ],
      "stateMutability": "view",
      "type": "function"
    },
    {
      "inputs": [
        {
          "internalType": "uint256",
          "name": "frameKey",
          "type": "uint256"
        }
      ],
      "name": "getRewardAmount",
      "outputs": [
        {
          "internalType": "uint256",
          "name": "",
          "type": "uint256"
        }
      ],
      "stateMutability": "view",
      "type": "function"
    },
    {
      "inputs": [
        {
          "internalType": "address",
          "name": "user",
          "type": "address"
        }
      ],
      "name": "getUserFrames",
      "outputs": [
        {
          "internalType": "uint256[]",
          "name": "",
          "type": "uint256[]"
        }
      ],
      "stateMutability": "view",
      "type": "function"
    },
    {
      "inputs": [
        {
          "internalType": "address",
          "name": "user",
          "type": "address"
        }
      ],
      "name": "getUserLots",
      "outputs": [
        {
          "components": [
            {
              "internalType": "uint256",
              "name": "frameKey",
              "type": "uint256"
            },
            {
              "internalType": "uint256",
              "name": "lotKey",
              "type": "uint256"
            },
            {
              "internalType": "address",
              "name": "lotOwner",
              "type": "address"
            },
            {
              "internalType": "uint256",
              "name": "acquisitionPrice",
              "type": "uint256"
            },
            {
              "internalType": "enum Market.SLot",
              "name": "state",
              "type": "uint8"
            }
          ],
          "internalType": "struct Market.Lot[]",
          "name": "userLots",
          "type": "tuple[]"
        }
      ],
      "stateMutability": "view",
      "type": "function"
    },
    {
      "inputs": [],
      "name": "initTimestamp",
      "outputs": [
        {
          "internalType": "uint256",
          "name": "",
          "type": "uint256"
        }
      ],
      "stateMutability": "view",
      "type": "function"
    },
    {
      "inputs": [],
      "name": "minTax",
      "outputs": [
        {
          "internalType": "uint256",
          "name": "",
          "type": "uint256"
        }
      ],
      "stateMutability": "view",
      "type": "function"
    },
    {
      "inputs": [],
      "name": "ownerMarket",
      "outputs": [
        {
          "internalType": "address",
          "name": "",
          "type": "address"
        }
      ],
      "stateMutability": "view",
      "type": "function"
    },
    {
      "inputs": [],
      "name": "period",
      "outputs": [
        {
          "internalType": "uint256",
          "name": "",
          "type": "uint256"
        }
      ],
      "stateMutability": "view",
      "type": "function"
    },
    {
      "inputs": [],
      "name": "tReporting",
      "outputs": [
        {
          "internalType": "uint256",
          "name": "",
          "type": "uint256"
        }
      ],
      "stateMutability": "view",
      "type": "function"
    },
    {
      "inputs": [],
      "name": "taxMarket",
      "outputs": [
        {
          "internalType": "uint256",
          "name": "",
          "type": "uint256"
        }
      ],
      "stateMutability": "view",
      "type": "function"
    },
    {
      "inputs": [],
      "name": "uniswapPair",
      "outputs": [
        {
          "internalType": "contract IUniswapV2Pair",
          "name": "",
          "type": "address"
        }
      ],
      "stateMutability": "view",
      "type": "function"
    },
    {
      "inputs": [],
      "name": "updateFramePrices",
      "outputs": [],
      "stateMutability": "nonpayable",
      "type": "function"
    },
    {
      "inputs": [
        {
          "internalType": "uint256",
          "name": "timestamp",
          "type": "uint256"
        },
        {
          "internalType": "uint256",
          "name": "pairPrice",
          "type": "uint256"
        },
        {
          "internalType": "uint256",
          "name": "acqPrice",
          "type": "uint256"
        }
      ],
      "name": "updateLotPrice",
      "outputs": [],
      "stateMutability": "nonpayable",
      "type": "function"
    },
    {
      "inputs": [
        {
          "internalType": "address",
          "name": "",
          "type": "address"
        },
        {
          "internalType": "uint256",
          "name": "",
          "type": "uint256"
        }
      ],
      "name": "userFrames",
      "outputs": [
        {
          "internalType": "uint256",
          "name": "",
          "type": "uint256"
        }
      ],
      "stateMutability": "view",
      "type": "function"
    }
  ],
  "bytecode": "0x608060405260646002556000600c60006101000a81548160ff02191690831515021790555069d3c21bcecceda1000000600d553480156200003f57600080fd5b506040516200550938038062005509833981810160405281019062000065919062000238565b89600960006101000a81548173ffffffffffffffffffffffffffffffffffffffff021916908373ffffffffffffffffffffffffffffffffffffffff16021790555033600a60006101000a81548173ffffffffffffffffffffffffffffffffffffffff021916908373ffffffffffffffffffffffffffffffffffffffff1602179055508760008190555086600181905550856007819055508460068190555088600460006101000a81548173ffffffffffffffffffffffffffffffffffffffff021916908373ffffffffffffffffffffffffffffffffffffffff160217905550836005819055508a600860006101000a81548173ffffffffffffffffffffffffffffffffffffffff021916908373ffffffffffffffffffffffffffffffffffffffff1602179055508260038190555081600b8190555080600c60006101000a81548160ff021916908315150217905550505050505050505050505062000447565b600081519050620001d681620003c5565b92915050565b600081519050620001ed81620003df565b92915050565b6000815190506200020481620003f9565b92915050565b6000815190506200021b8162000413565b92915050565b60008151905062000232816200042d565b92915050565b60008060008060008060008060008060006101608c8e0312156200025b57600080fd5b60006200026b8e828f016200020a565b9b505060206200027e8e828f01620001dc565b9a50506040620002918e828f01620001f3565b9950506060620002a48e828f0162000221565b9850506080620002b78e828f0162000221565b97505060a0620002ca8e828f0162000221565b96505060c0620002dd8e828f0162000221565b95505060e0620002f08e828f0162000221565b945050610100620003048e828f0162000221565b935050610120620003188e828f0162000221565b9250506101406200032c8e828f01620001c5565b9150509295989b509295989b9093969950565b60006200034c826200039b565b9050919050565b60008115159050919050565b60006200036c826200033f565b9050919050565b600062000380826200033f565b9050919050565b600062000394826200033f565b9050919050565b600073ffffffffffffffffffffffffffffffffffffffff82169050919050565b6000819050919050565b620003d08162000353565b8114620003dc57600080fd5b50565b620003ea816200035f565b8114620003f657600080fd5b50565b620004048162000373565b81146200041057600080fd5b50565b6200041e8162000387565b81146200042a57600080fd5b50565b6200043881620003bb565b81146200044457600080fd5b50565b6150b280620004576000396000f3fe608060405234801561001057600080fd5b50600436106102065760003560e01c80637e9966391161011a578063a4d246ff116100ad578063c816841b1161007c578063c816841b1461066e578063c84993af1461068c578063da68cf8b146106bc578063ef78d4fd146106da578063ff5c86b0146106f857610206565b8063a4d246ff146105e8578063ae169a5014610618578063bb15d2dd14610634578063c45a01551461065057610206565b80639495833c116100e95780639495833c146105455780639592de181461057557806396b2c6f3146105a5578063a10340bc146105af57610206565b80637e996639146104bb578063830ab119146104d957806389da88a3146105095780638f9eca821461052757610206565b806341a8b6f81161019d5780635b3ad63e1161016c5780635b3ad63e146103dd57806360f65c601461040d578063659d0ca01461043d5780636f1aefc31461046d5780637358c57a1461049d57610206565b806341a8b6f8146103535780634508477514610383578063499a0fc4146103a1578063527eb4bc146103bf57610206565b80633c80d8ea116101d95780633c80d8ea146102cb5780633d09a82a146102e75780633e16bc2014610305578063410f07101461033557610206565b8063050e88401461020b5780630ef192731461023b57806314aa5a991461026b5780633656d5ee1461029b575b600080fd5b61022560048036038101906102209190613e4c565b610716565b604051610232919061475f565b60405180910390f35b61025560048036038101906102509190613d46565b61073a565b604051610262919061475f565b60405180910390f35b61028560048036038101906102809190613e9e565b610786565b60405161029291906144db565b60405180910390f35b6102b560048036038101906102b09190613eda565b61091d565b6040516102c2919061475f565b60405180910390f35b6102e560048036038101906102e09190613eda565b6109a2565b005b6102ef61123f565b6040516102fc919061475f565b60405180910390f35b61031f600480360381019061031a9190613e9e565b611245565b60405161032c919061475f565b60405180910390f35b61033d6112a8565b60405161034a919061475f565b60405180910390f35b61036d60048036038101906103689190613e4c565b6112ae565b60405161037a9190614744565b60405180910390f35b61038b611408565b6040516103989190614415565b60405180910390f35b6103a961142e565b6040516103b6919061475f565b60405180910390f35b6103c7611434565b6040516103d4919061475f565b60405180910390f35b6103f760048036038101906103f29190613e4c565b61143a565b604051610404919061475f565b60405180910390f35b61042760048036038101906104229190613d98565b61147d565b604051610434919061475f565b60405180910390f35b61045760048036038101906104529190613d46565b6114ae565b60405161046491906144b9565b60405180910390f35b61048760048036038101906104829190613e9e565b611bea565b6040516104949190614729565b60405180910390f35b6104a5611d27565b6040516104b2919061475f565b60405180910390f35b6104c3611d2d565b6040516104d0919061475f565b60405180910390f35b6104f360048036038101906104ee9190613e4c565b611d33565b604051610500919061475f565b60405180910390f35b610511611d56565b60405161051e919061475f565b60405180910390f35b61052f611d63565b60405161053c91906144fd565b60405180910390f35b61055f600480360381019061055a9190613d46565b611d76565b60405161056c91906144db565b60405180910390f35b61058f600480360381019061058a9190613e4c565b611e0d565b60405161059c919061475f565b60405180910390f35b6105ad611e43565b005b6105c960048036038101906105c49190613e4c565b612137565b6040516105df9a999897969594939291906147a3565b60405180910390f35b61060260048036038101906105fd9190613eda565b6121b2565b60405161060f919061475f565b60405180910390f35b610632600480360381019061062d9190613e4c565b612268565b005b61064e60048036038101906106499190613eda565b61227d565b005b6106586127a1565b604051610665919061454e565b60405180910390f35b6106766127c7565b6040516106839190614533565b60405180910390f35b6106a660048036038101906106a19190613e4c565b6127ed565b6040516106b3919061475f565b60405180910390f35b6106c461280d565b6040516106d19190614518565b60405180910390f35b6106e2612833565b6040516106ef919061475f565b60405180910390f35b610700612839565b60405161070d919061475f565b60405180910390f35b6010818154811061072657600080fd5b906000526020600020016000915090505481565b6000600f60008373ffffffffffffffffffffffffffffffffffffffff1673ffffffffffffffffffffffffffffffffffffffff168152602001908152602001600020805490509050919050565b60608167ffffffffffffffff8111156107c8577f4e487b7100000000000000000000000000000000000000000000000000000000600052604160045260246000fd5b6040519080825280602002602001820160405280156107f65781602001602082028036833780820191505090505b50905060005b8281116109165760008160005461081391906149f8565b8561081e9190614940565b90506000600281111561085a577f4e487b7100000000000000000000000000000000000000000000000000000000600052602160045260246000fd5b600e600083815260200190815260200160002060090160009054906101000a900460ff1660028111156108b6577f4e487b7100000000000000000000000000000000000000000000000000000000600052602160045260246000fd5b1461090257808383815181106108f5577f4e487b7100000000000000000000000000000000000000000000000000000000600052603260045260246000fd5b6020026020010181815250505b50808061090e90614c8f565b9150506107fc565b5092915050565b6000806109298561143a565b9050600061096982600e6000858152602001908152602001600020600b01600061095289611e0d565b81526020019081526020016000206003015461283f565b90506000610977838661283f565b90508082106109895760009350610998565b81816109959190614a52565b93505b5050509392505050565b60006109ad846128e2565b90506109b98183612a92565b60006109c58285612aea565b90506109d04261143a565b821015610a12576040517f08c379a0000000000000000000000000000000000000000000000000000000008152600401610a0990614589565b60405180910390fd5b600e6000838152602001908152602001600020600b01600082815260200190815260200160002060020160009054906101000a900473ffffffffffffffffffffffffffffffffffffffff1673ffffffffffffffffffffffffffffffffffffffff163373ffffffffffffffffffffffffffffffffffffffff161415610acb576040517f08c379a0000000000000000000000000000000000000000000000000000000008152600401610ac290614669565b60405180910390fd5b6000610ad7838561283f565b905080600e6000858152602001908152602001600020600b01600084815260200190815260200160002060030154610b0f9190614940565b600960009054906101000a900473ffffffffffffffffffffffffffffffffffffffff1673ffffffffffffffffffffffffffffffffffffffff1663dd62ed3e33306040518363ffffffff1660e01b8152600401610b6c929190614430565b60206040518083038186803b158015610b8457600080fd5b505afa158015610b98573d6000803e3d6000fd5b505050506040513d601f19601f82011682018060405250810190610bbc9190613e75565b1015610bfd576040517f08c379a0000000000000000000000000000000000000000000000000000000008152600401610bf490614689565b60405180910390fd5b600960009054906101000a900473ffffffffffffffffffffffffffffffffffffffff1673ffffffffffffffffffffffffffffffffffffffff166323b872dd333084600e6000898152602001908152602001600020600b01600088815260200190815260200160002060030154610c739190614940565b6040518463ffffffff1660e01b8152600401610c9193929190614459565b602060405180830381600087803b158015610cab57600080fd5b505af1158015610cbf573d6000803e3d6000fd5b505050506040513d601f19601f82011682018060405250810190610ce39190613dd4565b5080600e600085815260200190815260200160002060030154610d069190614940565b600e60008581526020019081526020016000206003018190555060016002811115610d5a577f4e487b7100000000000000000000000000000000000000000000000000000000600052602160045260246000fd5b600e6000858152602001908152602001600020600b01600084815260200190815260200160002060040160009054906101000a900460ff166002811115610dca577f4e487b7100000000000000000000000000000000000000000000000000000000600052602160045260246000fd5b1415610f79576000610e0684600e6000878152602001908152602001600020600b0160008681526020019081526020016000206003015461283f565b9050600960009054906101000a900473ffffffffffffffffffffffffffffffffffffffff1673ffffffffffffffffffffffffffffffffffffffff1663a9059cbb600e6000878152602001908152602001600020600b01600086815260200190815260200160002060020160009054906101000a900473ffffffffffffffffffffffffffffffffffffffff16600e6000888152602001908152602001600020600b0160008781526020019081526020016000206003015484610ec79190614940565b6040518363ffffffff1660e01b8152600401610ee4929190614490565b602060405180830381600087803b158015610efe57600080fd5b505af1158015610f12573d6000803e3d6000fd5b505050506040513d601f19601f82011682018060405250810190610f369190613dd4565b5080600e600086815260200190815260200160002060030154610f599190614a52565b600e60008681526020019081526020016000206003018190555050610ff3565b6001600e6000858152602001908152602001600020600b01600084815260200190815260200160002060040160006101000a81548160ff02191690836002811115610fed577f4e487b7100000000000000000000000000000000000000000000000000000000600052602160045260246000fd5b02179055505b33600e6000858152602001908152602001600020600b01600084815260200190815260200160002060020160006101000a81548173ffffffffffffffffffffffffffffffffffffffff021916908373ffffffffffffffffffffffffffffffffffffffff16021790555083600e6000858152602001908152602001600020600b01600084815260200190815260200160002060030181905550600f60003373ffffffffffffffffffffffffffffffffffffffff1673ffffffffffffffffffffffffffffffffffffffff1681526020019081526020016000208390806001815401808255809150506001900390600052602060002001600090919091909150556110f9611e43565b7ff733bd7f4402cb7d331b34d5cd22f432b9bf71a833f786974545860d74976af283600e600086815260200190815260200160002060010154600e600087815260200190815260200160002060020154600e600088815260200190815260200160002060050154600e600089815260200190815260200160002060060154600e60008a815260200190815260200160002060070154600e60008b815260200190815260200160002060080154600e60008c8152602001908152602001600020600301546040516111d098979695949392919061483f565b60405180910390a17f74c5c6f5cd4370cc0ab554a1afdb2b24b051b40c99102354ef424aed5cd6409d83600e6000868152602001908152602001600020600b01600085815260200190815260200160002060405161122f92919061477a565b60405180910390a1505050505050565b600b5481565b6000600e6000848152602001908152602001600020600a018281548110611295577f4e487b7100000000000000000000000000000000000000000000000000000000600052603260045260246000fd5b9060005260206000200154905092915050565b60065481565b60006112b982612c56565b6000600e600084815260200190815260200160002060010154600e6000858152602001908152602001600020600201546112f39190614a52565b9050600c60009054906101000a900460ff161561138857611381604051806020016040528083600e600088815260200190815260200160002060050154600e6000898152602001908152602001600020600601546113519190614a52565b61135b91906149c7565b7bffffffffffffffffffffffffffffffffffffffffffffffffffffffff16815250612d45565b9150611402565b6113ff604051806020016040528083600e600088815260200190815260200160002060070154600e6000898152602001908152602001600020600801546113cf9190614a52565b6113d991906149c7565b7bffffffffffffffffffffffffffffffffffffffffffffffffffffffff16815250612d45565b91505b50919050565b600a60009054906101000a900473ffffffffffffffffffffffffffffffffffffffff1681565b60055481565b60025481565b6000600154821161144f576001549050611478565b600054600154836114609190614a52565b61146a9190614cd8565b826114759190614a52565b90505b919050565b600f602052816000526040600020818154811061149957600080fd5b90600052602060002001600091509150505481565b606060006114bb4261143a565b90506107d067ffffffffffffffff8111156114ff577f4e487b7100000000000000000000000000000000000000000000000000000000600052604160045260246000fd5b60405190808252806020026020018201604052801561153857816020015b611525613c05565b81526020019060019003908161151d5790505b509150611543613c05565b60008080600190505b606481116118ad5760328110611588576032816115699190614a52565b60005461157691906149f8565b856115819190614940565b91506115a4565b8060005461159691906149f8565b856115a19190614a52565b91505b600160028111156115de577f4e487b7100000000000000000000000000000000000000000000000000000000600052602160045260246000fd5b600e600084815260200190815260200160002060090160009054906101000a900460ff16600281111561163a577f4e487b7100000000000000000000000000000000000000000000000000000000600052602160045260246000fd5b141561189a5760005b600e6000848152602001908152602001600020600a018054905081101561189857600e6000848152602001908152602001600020600b016000600e6000868152602001908152602001600020600a0183815481106116ca577f4e487b7100000000000000000000000000000000000000000000000000000000600052603260045260246000fd5b906000526020600020015481526020019081526020016000206040518060a001604052908160008201548152602001600182015481526020016002820160009054906101000a900473ffffffffffffffffffffffffffffffffffffffff1673ffffffffffffffffffffffffffffffffffffffff1673ffffffffffffffffffffffffffffffffffffffff168152602001600382015481526020016004820160009054906101000a900460ff1660028111156117ad577f4e487b7100000000000000000000000000000000000000000000000000000000600052602160045260246000fd5b60028111156117e5577f4e487b7100000000000000000000000000000000000000000000000000000000600052602160045260246000fd5b8152505094508773ffffffffffffffffffffffffffffffffffffffff16856040015173ffffffffffffffffffffffffffffffffffffffff161415611885578487858151811061185d577f4e487b7100000000000000000000000000000000000000000000000000000000600052603260045260246000fd5b6020026020010181905250838061187390614c8f565b9450506107d0841061188457611898565b5b808061189090614c8f565b915050611643565b505b80806118a590614c8f565b91505061154c565b506000600190505b60318111611be057806000546118cb91906149f8565b856118d69190614a52565b9150600280811115611911577f4e487b7100000000000000000000000000000000000000000000000000000000600052602160045260246000fd5b600e600084815260200190815260200160002060090160009054906101000a900460ff16600281111561196d577f4e487b7100000000000000000000000000000000000000000000000000000000600052602160045260246000fd5b1415611bcd5760005b600e6000848152602001908152602001600020600a0180549050811015611bcb57600e6000848152602001908152602001600020600b016000600e6000868152602001908152602001600020600a0183815481106119fd577f4e487b7100000000000000000000000000000000000000000000000000000000600052603260045260246000fd5b906000526020600020015481526020019081526020016000206040518060a001604052908160008201548152602001600182015481526020016002820160009054906101000a900473ffffffffffffffffffffffffffffffffffffffff1673ffffffffffffffffffffffffffffffffffffffff1673ffffffffffffffffffffffffffffffffffffffff168152602001600382015481526020016004820160009054906101000a900460ff166002811115611ae0577f4e487b7100000000000000000000000000000000000000000000000000000000600052602160045260246000fd5b6002811115611b18577f4e487b7100000000000000000000000000000000000000000000000000000000600052602160045260246000fd5b8152505094508773ffffffffffffffffffffffffffffffffffffffff16856040015173ffffffffffffffffffffffffffffffffffffffff161415611bb8576107d08410611b6457611bcb565b84878581518110611b9e577f4e487b7100000000000000000000000000000000000000000000000000000000600052603260045260246000fd5b60200260200101819052508380611bb490614c8f565b9450505b8080611bc390614c8f565b915050611976565b505b8080611bd890614c8f565b9150506118b5565b5050505050919050565b611bf2613c05565b600e6000848152602001908152602001600020600b0160008381526020019081526020016000206040518060a001604052908160008201548152602001600182015481526020016002820160009054906101000a900473ffffffffffffffffffffffffffffffffffffffff1673ffffffffffffffffffffffffffffffffffffffff1673ffffffffffffffffffffffffffffffffffffffff168152602001600382015481526020016004820160009054906101000a900460ff166002811115611ce3577f4e487b7100000000000000000000000000000000000000000000000000000000600052602160045260246000fd5b6002811115611d1b577f4e487b7100000000000000000000000000000000000000000000000000000000600052602160045260246000fd5b81525050905092915050565b60015481565b60075481565b6000600e6000838152602001908152602001600020600a01805490509050919050565b6000601080549050905090565b600c60009054906101000a900460ff1681565b6060600f60008373ffffffffffffffffffffffffffffffffffffffff1673ffffffffffffffffffffffffffffffffffffffff168152602001908152602001600020805480602002602001604051908101604052809291908181526020018280548015611e0157602002820191906000526020600020905b815481526020019060010190808311611ded575b50505050509050919050565b6000808211611e20576005549050611e3e565b60055460055483611e3191906149c7565b611e3b91906149f8565b90505b919050565b6000611e4e4261143a565b905060035460005482611e619190614940565b611e6b9190614a52565b421015611fa457611e9d600460009054906101000a900473ffffffffffffffffffffffffffffffffffffffff16612d78565b8063ffffffff169050600e60008581526020019081526020016000206005016000600e60008781526020019081526020016000206007016000600e60008981526020019081526020016000206001016000869190505585919050558491905055505050600e600082815260200190815260200160002060050154600e600083815260200190815260200160002060070154600e600084815260200190815260200160002060010154600e60008581526020019081526020016000206006016000600e60008781526020019081526020016000206008016000600e60008981526020019081526020016000206002016000869190505585919050558491905055505050612055565b60035460005482611fb59190614940565b611fbf9190614a52565b421061205457611ff0600460009054906101000a900473ffffffffffffffffffffffffffffffffffffffff16612d78565b8063ffffffff169050600e60008581526020019081526020016000206006016000600e60008781526020019081526020016000206008016000600e600089815260200190815260200160002060020160008691905055859190505584919050555050505b5b7ff733bd7f4402cb7d331b34d5cd22f432b9bf71a833f786974545860d74976af281600e600084815260200190815260200160002060010154600e600085815260200190815260200160002060020154600e600086815260200190815260200160002060050154600e600087815260200190815260200160002060060154600e600088815260200190815260200160002060070154600e600089815260200190815260200160002060080154600e60008a81526020019081526020016000206003015460405161212c98979695949392919061483f565b60405180910390a150565b600e6020528060005260406000206000915090508060000154908060010154908060020154908060030154908060040160009054906101000a90046dffffffffffffffffffffffffffff16908060050154908060060154908060070154908060080154908060090160009054906101000a900460ff1690508a565b6000806121be8561143a565b90506121c94261143a565b81101561220b576040517f08c379a000000000000000000000000000000000000000000000000000000000815260040161220290614649565b60405180910390fd5b600061221685611e0d565b90506000612224838661283f565b905080600e6000858152602001908152602001600020600b0160008481526020019081526020016000206003015461225c9190614940565b93505050509392505050565b61227181612fd3565b61227a8161361f565b50565b6000612288846128e2565b90506122948183612a92565b60006122a08285612aea565b90503373ffffffffffffffffffffffffffffffffffffffff16600e6000848152602001908152602001600020600b01600083815260200190815260200160002060020160009054906101000a900473ffffffffffffffffffffffffffffffffffffffff1673ffffffffffffffffffffffffffffffffffffffff161461235a576040517f08c379a0000000000000000000000000000000000000000000000000000000008152600401612351906145a9565b60405180910390fd5b6123634261143a565b8210156123a5576040517f08c379a000000000000000000000000000000000000000000000000000000000815260040161239c906146e9565b60405180910390fd5b60006123b1838561283f565b905060006123e984600e6000878152602001908152602001600020600b0160008681526020019081526020016000206003015461283f565b9050808211156125f65780826123ff9190614a52565b600960009054906101000a900473ffffffffffffffffffffffffffffffffffffffff1673ffffffffffffffffffffffffffffffffffffffff1663dd62ed3e33306040518363ffffffff1660e01b815260040161245c929190614430565b60206040518083038186803b15801561247457600080fd5b505afa158015612488573d6000803e3d6000fd5b505050506040513d601f19601f820116820180604052508101906124ac9190613e75565b10156124ed576040517f08c379a00000000000000000000000000000000000000000000000000000000081526004016124e490614689565b60405180910390fd5b600960009054906101000a900473ffffffffffffffffffffffffffffffffffffffff1673ffffffffffffffffffffffffffffffffffffffff166323b872dd333084866125399190614a52565b6040518463ffffffff1660e01b815260040161255793929190614459565b602060405180830381600087803b15801561257157600080fd5b505af1158015612585573d6000803e3d6000fd5b505050506040513d601f19601f820116820180604052508101906125a99190613dd4565b5080826125b69190614a52565b600e6000868152602001908152602001600020600301546125d79190614940565b600e600086815260200190815260200160002060030181905550612702565b8082101561270157600960009054906101000a900473ffffffffffffffffffffffffffffffffffffffff1673ffffffffffffffffffffffffffffffffffffffff1663a9059cbb3384846126499190614a52565b6040518363ffffffff1660e01b8152600401612666929190614490565b602060405180830381600087803b15801561268057600080fd5b505af1158015612694573d6000803e3d6000fd5b505050506040513d601f19601f820116820180604052508101906126b89190613dd4565b5081816126c59190614a52565b600e6000868152602001908152602001600020600301546126e69190614a52565b600e6000868152602001908152602001600020600301819055505b5b84600e6000868152602001908152602001600020600b01600085815260200190815260200160002060030181905550612739611e43565b7f74c5c6f5cd4370cc0ab554a1afdb2b24b051b40c99102354ef424aed5cd6409d84600e6000878152602001908152602001600020600b01600086815260200190815260200160002060405161279092919061477a565b60405180910390a150505050505050565b600860009054906101000a900473ffffffffffffffffffffffffffffffffffffffff1681565b600460009054906101000a900473ffffffffffffffffffffffffffffffffffffffff1681565b6000600e6000838152602001908152602001600020600301549050919050565b600960009054906101000a900473ffffffffffffffffffffffffffffffffffffffff1681565b60005481565b60035481565b6000804260005461284f4261143a565b6128599190614940565b6128639190614a52565b90506000805482600d5461287791906149f8565b61288191906149c7565b9050620186a06007548561289591906149f8565b61289f91906149c7565b9250600d5481846128b091906149f8565b6128ba91906149c7565b6128c386613ad1565b846128ce91906149f8565b6128d89190614940565b9250505092915050565b6000806128ee8361143a565b90506000600281111561292a577f4e487b7100000000000000000000000000000000000000000000000000000000600052602160045260246000fd5b600e600083815260200190815260200160002060090160009054906101000a900460ff166002811115612986577f4e487b7100000000000000000000000000000000000000000000000000000000600052602160045260246000fd5b146129945780915050612a8d565b61299d4261143a565b8110156129df576040517f08c379a00000000000000000000000000000000000000000000000000000000081526004016129d6906146c9565b60405180910390fd5b80600e6000838152602001908152602001600020600001819055506001600e600083815260200190815260200160002060090160006101000a81548160ff02191690836002811115612a5a577f4e487b7100000000000000000000000000000000000000000000000000000000600052602160045260246000fd5b02179055506010819080600181540180825580915050600190039060005260206000200160009091909190915055809150505b919050565b6000612a9e838361283f565b9050600b54811015612ae5576040517f08c379a0000000000000000000000000000000000000000000000000000000008152600401612adc90614629565b60405180910390fd5b505050565b600080612af683611e0d565b905060006002811115612b32577f4e487b7100000000000000000000000000000000000000000000000000000000600052602160045260246000fd5b600e6000868152602001908152602001600020600b01600083815260200190815260200160002060040160009054906101000a900460ff166002811115612ba2577f4e487b7100000000000000000000000000000000000000000000000000000000600052602160045260246000fd5b14612bb05780915050612c50565b83600e6000868152602001908152602001600020600b0160008381526020019081526020016000206000018190555080600e6000868152602001908152602001600020600b01600083815260200190815260200160002060010181905550600e6000858152602001908152602001600020600a01819080600181540180825580915050600190039060005260206000200160009091909190915055809150505b92915050565b6000600e600083815260200190815260200160002060050154111580612c9357506000600e60008381526020019081526020016000206006015411155b15612cd3576040517f08c379a0000000000000000000000000000000000000000000000000000000008152600401612cca906145e9565b60405180910390fd5b600e600082815260200190815260200160002060060154600e6000838152602001908152602001600020600501541415612d42576040517f08c379a0000000000000000000000000000000000000000000000000000000008152600401612d39906145e9565b60405180910390fd5b50565b6000607060ff1682600001517bffffffffffffffffffffffffffffffffffffffffffffffffffffffff16901c9050919050565b6000806000612d85613b0d565b90508373ffffffffffffffffffffffffffffffffffffffff16635909c0d56040518163ffffffff1660e01b815260040160206040518083038186803b158015612dcd57600080fd5b505afa158015612de1573d6000803e3d6000fd5b505050506040513d601f19601f82011682018060405250810190612e059190613e75565b92508373ffffffffffffffffffffffffffffffffffffffff16635a3d54936040518163ffffffff1660e01b815260040160206040518083038186803b158015612e4d57600080fd5b505afa158015612e61573d6000803e3d6000fd5b505050506040513d601f19601f82011682018060405250810190612e859190613e75565b915060008060008673ffffffffffffffffffffffffffffffffffffffff16630902f1ac6040518163ffffffff1660e01b815260040160606040518083038186803b158015612ed257600080fd5b505afa158015612ee6573d6000803e3d6000fd5b505050506040513d601f19601f82011682018060405250810190612f0a9190613dfd565b9250925092508363ffffffff168163ffffffff1614612fc95760008185612f319190614a86565b90508063ffffffff16612f448486613b25565b600001517bffffffffffffffffffffffffffffffffffffffffffffffffffffffff16612f7091906149f8565b87612f7b9190614940565b96508063ffffffff16612f8e8585613b25565b600001517bffffffffffffffffffffffffffffffffffffffffffffffffffffffff16612fba91906149f8565b86612fc59190614940565b9550505b5050509193909250565b612fdc81612c56565b4260005482612feb9190614940565b111561302c576040517f08c379a000000000000000000000000000000000000000000000000000000000815260040161302390614569565b60405180910390fd5b6002600e600083815260200190815260200160002060090160006101000a81548160ff0219169083600281111561308c577f4e487b7100000000000000000000000000000000000000000000000000000000600052602160045260246000fd5b02179055506000600e600083815260200190815260200160002060010154600e6000848152602001908152602001600020600201546130cb9190614a52565b9050600c60009054906101000a900460ff16156131a657613159604051806020016040528083600e600087815260200190815260200160002060050154600e6000888152602001908152602001600020600601546131299190614a52565b61313391906149c7565b7bffffffffffffffffffffffffffffffffffffffffffffffffffffffff16815250612d45565b600e600084815260200190815260200160002060040160006101000a8154816dffffffffffffffffffffffffffff02191690836dffffffffffffffffffffffffffff160217905550613266565b61321d604051806020016040528083600e600087815260200190815260200160002060070154600e6000888152602001908152602001600020600801546131ed9190614a52565b6131f791906149c7565b7bffffffffffffffffffffffffffffffffffffffffffffffffffffffff16815250612d45565b600e600084815260200190815260200160002060040160006101000a8154816dffffffffffffffffffffffffffff02191690836dffffffffffffffffffffffffffff1602179055505b6000620186a0600654600e60008681526020019081526020016000206003015461329091906149f8565b61329a91906149c7565b90506000620186a0600254600e6000878152602001908152602001600020600301546132c691906149f8565b6132d091906149c7565b90508082600e6000878152602001908152602001600020600301546132f59190614a52565b6132ff9190614a52565b600e600086815260200190815260200160002060030181905550600960009054906101000a900473ffffffffffffffffffffffffffffffffffffffff1673ffffffffffffffffffffffffffffffffffffffff1663a9059cbb600a60009054906101000a900473ffffffffffffffffffffffffffffffffffffffff16846040518363ffffffff1660e01b8152600401613398929190614490565b602060405180830381600087803b1580156133b257600080fd5b505af11580156133c6573d6000803e3d6000fd5b505050506040513d601f19601f820116820180604052508101906133ea9190613dd4565b50600960009054906101000a900473ffffffffffffffffffffffffffffffffffffffff1673ffffffffffffffffffffffffffffffffffffffff1663a9059cbb600860009054906101000a900473ffffffffffffffffffffffffffffffffffffffff1673ffffffffffffffffffffffffffffffffffffffff16638da5cb5b6040518163ffffffff1660e01b815260040160206040518083038186803b15801561349157600080fd5b505afa1580156134a5573d6000803e3d6000fd5b505050506040513d601f19601f820116820180604052508101906134c99190613d6f565b836040518363ffffffff1660e01b81526004016134e7929190614490565b602060405180830381600087803b15801561350157600080fd5b505af1158015613515573d6000803e3d6000fd5b505050506040513d601f19601f820116820180604052508101906135399190613dd4565b507ff733bd7f4402cb7d331b34d5cd22f432b9bf71a833f786974545860d74976af284600e600087815260200190815260200160002060010154600e600088815260200190815260200160002060020154600e600089815260200190815260200160002060050154600e60008a815260200190815260200160002060060154600e60008b815260200190815260200160002060070154600e60008c815260200190815260200160002060080154600e60008d81526020019081526020016000206003015460405161361198979695949392919061483f565b60405180910390a150505050565b600280811115613658577f4e487b7100000000000000000000000000000000000000000000000000000000600052602160045260246000fd5b600e600083815260200190815260200160002060090160009054906101000a900460ff1660028111156136b4577f4e487b7100000000000000000000000000000000000000000000000000000000600052602160045260246000fd5b146136f4576040517f08c379a00000000000000000000000000000000000000000000000000000000081526004016136eb906146a9565b60405180910390fd5b600061373f600e600084815260200190815260200160002060040160009054906101000a90046dffffffffffffffffffffffffffff166dffffffffffffffffffffffffffff16611e0d565b905060028081111561377a577f4e487b7100000000000000000000000000000000000000000000000000000000600052602160045260246000fd5b600e6000848152602001908152602001600020600b01600083815260200190815260200160002060040160009054906101000a900460ff1660028111156137ea577f4e487b7100000000000000000000000000000000000000000000000000000000600052602160045260246000fd5b141561382b576040517f08c379a000000000000000000000000000000000000000000000000000000000815260040161382290614609565b60405180910390fd5b600073ffffffffffffffffffffffffffffffffffffffff16600e6000848152602001908152602001600020600b01600083815260200190815260200160002060020160009054906101000a900473ffffffffffffffffffffffffffffffffffffffff1673ffffffffffffffffffffffffffffffffffffffff1614156138e5576040517f08c379a00000000000000000000000000000000000000000000000000000000081526004016138dc906145c9565b60405180910390fd5b600960009054906101000a900473ffffffffffffffffffffffffffffffffffffffff1673ffffffffffffffffffffffffffffffffffffffff1663a9059cbb600e6000858152602001908152602001600020600b01600084815260200190815260200160002060020160009054906101000a900473ffffffffffffffffffffffffffffffffffffffff16600e6000868152602001908152602001600020600301546040518363ffffffff1660e01b81526004016139a2929190614490565b602060405180830381600087803b1580156139bc57600080fd5b505af11580156139d0573d6000803e3d6000fd5b505050506040513d601f19601f820116820180604052508101906139f49190613dd4565b506002600e6000848152602001908152602001600020600b01600083815260200190815260200160002060040160006101000a81548160ff02191690836002811115613a69577f4e487b7100000000000000000000000000000000000000000000000000000000600052602160045260246000fd5b02179055507f74c5c6f5cd4370cc0ab554a1afdb2b24b051b40c99102354ef424aed5cd6409d82600e6000858152602001908152602001600020600b016000848152602001908152602001600020604051613ac592919061477a565b60405180910390a15050565b6000613adc4261143a565b821415613aec5760009050613b08565b6000544283613afb9190614a52565b613b0591906149c7565b90505b919050565b600064010000000042613b209190614cd8565b905090565b613b2d613c82565b6000826dffffffffffffffffffffffffffff1611613b80576040517f08c379a0000000000000000000000000000000000000000000000000000000008152600401613b7790614709565b60405180910390fd5b6040518060200160405280836dffffffffffffffffffffffffffff16607060ff16866dffffffffffffffffffffffffffff167bffffffffffffffffffffffffffffffffffffffffffffffffffffffff16901b613bdc9190614996565b7bffffffffffffffffffffffffffffffffffffffffffffffffffffffff16815250905092915050565b6040518060a001604052806000815260200160008152602001600073ffffffffffffffffffffffffffffffffffffffff1681526020016000815260200160006002811115613c7c577f4e487b7100000000000000000000000000000000000000000000000000000000600052602160045260246000fd5b81525090565b604051806020016040528060007bffffffffffffffffffffffffffffffffffffffffffffffffffffffff1681525090565b600081359050613cc281615009565b92915050565b600081519050613cd781615009565b92915050565b600081519050613cec81615020565b92915050565b600081519050613d0181615037565b92915050565b600081359050613d168161504e565b92915050565b600081519050613d2b8161504e565b92915050565b600081519050613d4081615065565b92915050565b600060208284031215613d5857600080fd5b6000613d6684828501613cb3565b91505092915050565b600060208284031215613d8157600080fd5b6000613d8f84828501613cc8565b91505092915050565b60008060408385031215613dab57600080fd5b6000613db985828601613cb3565b9250506020613dca85828601613d07565b9150509250929050565b600060208284031215613de657600080fd5b6000613df484828501613cdd565b91505092915050565b600080600060608486031215613e1257600080fd5b6000613e2086828701613cf2565b9350506020613e3186828701613cf2565b9250506040613e4286828701613d31565b9150509250925092565b600060208284031215613e5e57600080fd5b6000613e6c84828501613d07565b91505092915050565b600060208284031215613e8757600080fd5b6000613e9584828501613d1c565b91505092915050565b60008060408385031215613eb157600080fd5b6000613ebf85828601613d07565b9250506020613ed085828601613d07565b9150509250929050565b600080600060608486031215613eef57600080fd5b6000613efd86828701613d07565b9350506020613f0e86828701613d07565b9250506040613f1f86828701613d07565b9150509250925092565b6000613f358383614277565b60a08301905092915050565b6000613f4d83836143f7565b60208301905092915050565b613f6281614af1565b82525050565b613f7181614af1565b82525050565b6000613f82826148dd565b613f8c818561490d565b9350613f97836148bd565b8060005b83811015613fc8578151613faf8882613f29565b9750613fba836148f3565b925050600181019050613f9b565b5085935050505092915050565b6000613fe0826148e8565b613fea818561491e565b9350613ff5836148cd565b8060005b8381101561402657815161400d8882613f41565b975061401883614900565b925050600181019050613ff9565b5085935050505092915050565b61403c81614b03565b82525050565b61404b81614bb1565b82525050565b61405a81614bd5565b82525050565b61406981614bf9565b82525050565b61407881614c1d565b82525050565b61408781614c2f565b82525050565b600061409a601a8361492f565b91506140a582614da3565b602082019050919050565b60006140bd600b8361492f565b91506140c882614dcc565b602082019050919050565b60006140e0600d8361492f565b91506140eb82614df5565b602082019050919050565b600061410360088361492f565b915061410e82614e1e565b602082019050919050565b600061412660138361492f565b915061413182614e47565b602082019050919050565b600061414960138361492f565b915061415482614e70565b602082019050919050565b600061416c60108361492f565b915061417782614e99565b602082019050919050565b600061418f601b8361492f565b915061419a82614ec2565b602082019050919050565b60006141b2600d8361492f565b91506141bd82614eeb565b602082019050919050565b60006141d560198361492f565b91506141e082614f14565b602082019050919050565b60006141f860108361492f565b915061420382614f3d565b602082019050919050565b600061421b600d8361492f565b915061422682614f66565b602082019050919050565b600061423e60118361492f565b915061424982614f8f565b602082019050919050565b600061426160178361492f565b915061426c82614fb8565b602082019050919050565b60a08201600082015161428d60008501826143f7565b5060208201516142a060208501826143f7565b5060408201516142b36040850182613f59565b5060608201516142c660608501826143f7565b5060808201516142d9608085018261407e565b50505050565b60a0820160008201516142f560008501826143f7565b50602082015161430860208501826143f7565b50604082015161431b6040850182613f59565b50606082015161432e60608501826143f7565b506080820151614341608085018261407e565b50505050565b60a08201600080830154905061435c81614c75565b61436960008601826143f7565b506001830154905061437a81614c75565b61438760208601826143f7565b506002830154905061439881614c41565b6143a56040860182613f59565b50600383015490506143b681614c75565b6143c360608601826143f7565b50600483015490506143d481614c5b565b6143e1608086018261407e565b5050505050565b6143f181614b35565b82525050565b61440081614b97565b82525050565b61440f81614b97565b82525050565b600060208201905061442a6000830184613f68565b92915050565b60006040820190506144456000830185613f68565b6144526020830184613f68565b9392505050565b600060608201905061446e6000830186613f68565b61447b6020830185613f68565b6144886040830184614406565b949350505050565b60006040820190506144a56000830185613f68565b6144b26020830184614406565b9392505050565b600060208201905081810360008301526144d38184613f77565b905092915050565b600060208201905081810360008301526144f58184613fd5565b905092915050565b60006020820190506145126000830184614033565b92915050565b600060208201905061452d6000830184614042565b92915050565b60006020820190506145486000830184614051565b92915050565b60006020820190506145636000830184614060565b92915050565b600060208201905081810360008301526145828161408d565b9050919050565b600060208201905081810360008301526145a2816140b0565b9050919050565b600060208201905081810360008301526145c2816140d3565b9050919050565b600060208201905081810360008301526145e2816140f6565b9050919050565b6000602082019050818103600083015261460281614119565b9050919050565b600060208201905081810360008301526146228161413c565b9050919050565b600060208201905081810360008301526146428161415f565b9050919050565b6000602082019050818103600083015261466281614182565b9050919050565b60006020820190508181036000830152614682816141a5565b9050919050565b600060208201905081810360008301526146a2816141c8565b9050919050565b600060208201905081810360008301526146c2816141eb565b9050919050565b600060208201905081810360008301526146e28161420e565b9050919050565b6000602082019050818103600083015261470281614231565b9050919050565b6000602082019050818103600083015261472281614254565b9050919050565b600060a08201905061473e60008301846142df565b92915050565b600060208201905061475960008301846143e8565b92915050565b60006020820190506147746000830184614406565b92915050565b600060c08201905061478f6000830185614406565b61479c6020830184614347565b9392505050565b6000610140820190506147b9600083018d614406565b6147c6602083018c614406565b6147d3604083018b614406565b6147e0606083018a614406565b6147ed60808301896143e8565b6147fa60a0830188614406565b61480760c0830187614406565b61481460e0830186614406565b614822610100830185614406565b61483061012083018461406f565b9b9a5050505050505050505050565b600061010082019050614855600083018b614406565b614862602083018a614406565b61486f6040830189614406565b61487c6060830188614406565b6148896080830187614406565b61489660a0830186614406565b6148a360c0830185614406565b6148b060e0830184614406565b9998505050505050505050565b6000819050602082019050919050565b6000819050602082019050919050565b600081519050919050565b600081519050919050565b6000602082019050919050565b6000602082019050919050565b600082825260208201905092915050565b600082825260208201905092915050565b600082825260208201905092915050565b600061494b82614b97565b915061495683614b97565b9250827fffffffffffffffffffffffffffffffffffffffffffffffffffffffffffffffff0382111561498b5761498a614d09565b5b828201905092915050565b60006149a182614b6f565b91506149ac83614b6f565b9250826149bc576149bb614d38565b5b828204905092915050565b60006149d282614b97565b91506149dd83614b97565b9250826149ed576149ec614d38565b5b828204905092915050565b6000614a0382614b97565b9150614a0e83614b97565b9250817fffffffffffffffffffffffffffffffffffffffffffffffffffffffffffffffff0483118215151615614a4757614a46614d09565b5b828202905092915050565b6000614a5d82614b97565b9150614a6883614b97565b925082821015614a7b57614a7a614d09565b5b828203905092915050565b6000614a9182614ba1565b9150614a9c83614ba1565b925082821015614aaf57614aae614d09565b5b828203905092915050565b600073ffffffffffffffffffffffffffffffffffffffff82169050919050565b600060ff82169050919050565b6000819050919050565b6000614afc82614b4f565b9050919050565b60008115159050919050565b6000819050614b1d82614fe1565b919050565b6000819050614b3082614ff5565b919050565b60006dffffffffffffffffffffffffffff82169050919050565b600073ffffffffffffffffffffffffffffffffffffffff82169050919050565b60007bffffffffffffffffffffffffffffffffffffffffffffffffffffffff82169050919050565b6000819050919050565b600063ffffffff82169050919050565b6000614bbc82614bc3565b9050919050565b6000614bce82614b4f565b9050919050565b6000614be082614be7565b9050919050565b6000614bf282614b4f565b9050919050565b6000614c0482614c0b565b9050919050565b6000614c1682614b4f565b9050919050565b6000614c2882614b0f565b9050919050565b6000614c3a82614b22565b9050919050565b6000614c54614c4f83614d96565b614aba565b9050919050565b6000614c6e614c6983614d96565b614ada565b9050919050565b6000614c88614c8383614d96565b614ae7565b9050919050565b6000614c9a82614b97565b91507fffffffffffffffffffffffffffffffffffffffffffffffffffffffffffffffff821415614ccd57614ccc614d09565b5b600182019050919050565b6000614ce382614b97565b9150614cee83614b97565b925082614cfe57614cfd614d38565b5b828206905092915050565b7f4e487b7100000000000000000000000000000000000000000000000000000000600052601160045260246000fd5b7f4e487b7100000000000000000000000000000000000000000000000000000000600052601260045260246000fd5b7f4e487b7100000000000000000000000000000000000000000000000000000000600052602160045260246000fd5b60008160001c9050919050565b7f4652414d4520454e442054494d45204e4f542052454143484544000000000000600082015250565b7f4c4f5420494e2050415354000000000000000000000000000000000000000000600082015250565b7f4e4f54204c4f54204f574e455200000000000000000000000000000000000000600082015250565b7f4e4f204f574e4552000000000000000000000000000000000000000000000000600082015250565b7f494e56414c4944204652414d4520505249434500000000000000000000000000600082015250565b7f4c4f5420414c524541445920534554544c454400000000000000000000000000600082015250565b7f505249434520495320544f4f204c4f5700000000000000000000000000000000600082015250565b7f54484953204c4f5420495320494e20412050415354204652414d450000000000600082015250565b7f414c5245414459204f574e455200000000000000000000000000000000000000600082015250565b7f415050524f56454420414d4f554e5420544f4f20534d414c4c00000000000000600082015250565b7f4652414d45204e4f5420434c4f53454400000000000000000000000000000000600082015250565b7f4652414d4520494e205041535400000000000000000000000000000000000000600082015250565b7f4c4f5420494e2050415354204652414d45000000000000000000000000000000600082015250565b7f4669786564506f696e743a204449565f42595f5a45524f000000000000000000600082015250565b60038110614ff257614ff1614d67565b5b50565b6003811061500657615005614d67565b5b50565b61501281614af1565b811461501d57600080fd5b50565b61502981614b03565b811461503457600080fd5b50565b61504081614b35565b811461504b57600080fd5b50565b61505781614b97565b811461506257600080fd5b50565b61506e81614ba1565b811461507957600080fd5b5056fea2646970667358221220c8810dd6b162be9de0866e07290b4869170525817595e538e79ae795045e0c5664736f6c63430008040033",
  "linkReferences": {},
  "deployedLinkReferences": {}
}