{
  "_format": "hh-sol-artifact-1",
  "contractName": "Market",
  "sourceName": "contracts/Market.sol",
  "abi": [
    {
      "inputs": [
        {
          "internalType": "address",
          "name": "_accountingToken",
          "type": "address"
        },
        {
          "internalType": "uint256",
          "name": "_feeProtocol",
          "type": "uint256"
        },
        {
          "internalType": "uint256",
          "name": "_taxMarket",
          "type": "uint256"
        },
        {
          "internalType": "uint256",
          "name": "_dPrice",
          "type": "uint256"
        },
        {
          "internalType": "address",
          "name": "_uniswapPool",
          "type": "address"
        }
      ],
      "stateMutability": "nonpayable",
      "type": "constructor"
    },
    {
      "anonymous": false,
      "inputs": [
        {
          "components": [
            {
              "internalType": "uint256",
              "name": "frameKey",
              "type": "uint256"
            },
            {
              "internalType": "uint256",
              "name": "rate",
              "type": "uint256"
            },
            {
              "internalType": "uint256[]",
              "name": "lotKeys",
              "type": "uint256[]"
            },
            {
              "internalType": "address",
              "name": "claimedBy",
              "type": "address"
            },
            {
              "internalType": "uint256",
              "name": "rateSettle",
              "type": "uint256"
            },
            {
              "internalType": "uint256",
              "name": "feeSettle",
              "type": "uint256"
            },
            {
              "internalType": "uint256",
              "name": "rewardSettle",
              "type": "uint256"
            }
          ],
          "indexed": false,
          "internalType": "struct Market.Frame",
          "name": "frame",
          "type": "tuple"
        }
      ],
      "name": "FrameUpdate",
      "type": "event"
    },
    {
      "anonymous": false,
      "inputs": [
        {
          "components": [
            {
              "internalType": "uint256",
              "name": "frameKey",
              "type": "uint256"
            },
            {
              "internalType": "uint256",
              "name": "lotKey",
              "type": "uint256"
            },
            {
              "components": [
                {
                  "internalType": "uint256",
                  "name": "blockNumber",
                  "type": "uint256"
                },
                {
                  "internalType": "uint256",
                  "name": "blockTimestamp",
                  "type": "uint256"
                },
                {
                  "internalType": "address",
                  "name": "owner",
                  "type": "address"
                },
                {
                  "internalType": "uint256",
                  "name": "acquisitionPrice",
                  "type": "uint256"
                },
                {
                  "internalType": "uint256",
                  "name": "taxCharged",
                  "type": "uint256"
                },
                {
                  "internalType": "uint256",
                  "name": "taxRefunded",
                  "type": "uint256"
                }
              ],
              "internalType": "struct Market.LotState[]",
              "name": "states",
              "type": "tuple[]"
            }
          ],
          "indexed": false,
          "internalType": "struct Market.Lot",
          "name": "lot",
          "type": "tuple"
        }
      ],
      "name": "LotUpdate",
      "type": "event"
    },
    {
      "inputs": [],
      "name": "accountingToken",
      "outputs": [
        {
          "internalType": "contract IERC20Metadata",
          "name": "",
          "type": "address"
        }
      ],
      "stateMutability": "view",
      "type": "function"
    },
    {
      "inputs": [],
      "name": "accountingTokenDecimals",
      "outputs": [
        {
          "internalType": "uint8",
          "name": "",
          "type": "uint8"
        }
      ],
      "stateMutability": "view",
      "type": "function"
    },
    {
      "inputs": [
        {
          "internalType": "uint256",
          "name": "newFee",
          "type": "uint256"
        }
      ],
      "name": "changeProtocolFee",
      "outputs": [],
      "stateMutability": "nonpayable",
      "type": "function"
    },
    {
      "inputs": [
        {
          "internalType": "uint256",
          "name": "newTax",
          "type": "uint256"
        }
      ],
      "name": "changeTaxPercentage",
      "outputs": [],
      "stateMutability": "nonpayable",
      "type": "function"
    },
    {
      "inputs": [
        {
          "internalType": "uint256",
          "name": "timestamp",
          "type": "uint256"
        }
      ],
      "name": "clcFrameKey",
      "outputs": [
        {
          "internalType": "uint256",
          "name": "",
          "type": "uint256"
        }
      ],
      "stateMutability": "view",
      "type": "function"
    },
    {
      "inputs": [
        {
          "internalType": "uint256",
          "name": "value",
          "type": "uint256"
        }
      ],
      "name": "clcLotKey",
      "outputs": [
        {
          "internalType": "uint256",
          "name": "",
          "type": "uint256"
        }
      ],
      "stateMutability": "view",
      "type": "function"
    },
    {
      "inputs": [],
      "name": "clcRate",
      "outputs": [
        {
          "internalType": "uint256",
          "name": "",
          "type": "uint256"
        }
      ],
      "stateMutability": "view",
      "type": "function"
    },
    {
      "inputs": [
        {
          "internalType": "uint256",
          "name": "timestamp",
          "type": "uint256"
        }
      ],
      "name": "clcRateAvg",
      "outputs": [
        {
          "internalType": "uint256",
          "name": "",
          "type": "uint256"
        }
      ],
      "stateMutability": "view",
      "type": "function"
    },
    {
      "inputs": [
        {
          "internalType": "uint256",
          "name": "frameKey",
          "type": "uint256"
        }
      ],
      "name": "clcRewardFund",
      "outputs": [
        {
          "internalType": "uint256",
          "name": "",
          "type": "uint256"
        }
      ],
      "stateMutability": "view",
      "type": "function"
    },
    {
      "inputs": [
        {
          "internalType": "uint256",
          "name": "frameKey",
          "type": "uint256"
        },
        {
          "internalType": "uint256",
          "name": "acquisitionPrice",
          "type": "uint256"
        }
      ],
      "name": "clcTax",
      "outputs": [
        {
          "internalType": "uint256",
          "name": "",
          "type": "uint256"
        }
      ],
      "stateMutability": "view",
      "type": "function"
    },
    {
      "inputs": [
        {
          "internalType": "uint256",
          "name": "frameKey",
          "type": "uint256"
        },
        {
          "internalType": "uint256",
          "name": "lotKey",
          "type": "uint256"
        }
      ],
      "name": "concatenate",
      "outputs": [
        {
          "internalType": "uint256",
          "name": "concatenated",
          "type": "uint256"
        }
      ],
      "stateMutability": "pure",
      "type": "function"
    },
    {
      "inputs": [
        {
          "internalType": "uint256",
          "name": "amount18Dec",
          "type": "uint256"
        },
        {
          "internalType": "bool",
          "name": "round",
          "type": "bool"
        }
      ],
      "name": "convertToTokenDecimals",
      "outputs": [
        {
          "internalType": "uint256",
          "name": "",
          "type": "uint256"
        }
      ],
      "stateMutability": "view",
      "type": "function"
    },
    {
      "inputs": [],
      "name": "dPrice",
      "outputs": [
        {
          "internalType": "uint256",
          "name": "",
          "type": "uint256"
        }
      ],
      "stateMutability": "view",
      "type": "function"
    },
    {
      "inputs": [],
      "name": "feeProtocol",
      "outputs": [
        {
          "internalType": "uint256",
          "name": "",
          "type": "uint256"
        }
      ],
      "stateMutability": "view",
      "type": "function"
    },
    {
      "inputs": [
        {
          "internalType": "uint256",
          "name": "",
          "type": "uint256"
        }
      ],
      "name": "frames",
      "outputs": [
        {
          "internalType": "uint256",
          "name": "frameKey",
          "type": "uint256"
        },
        {
          "internalType": "uint256",
          "name": "rate",
          "type": "uint256"
        },
        {
          "internalType": "address",
          "name": "claimedBy",
          "type": "address"
        },
        {
          "internalType": "uint256",
          "name": "rateSettle",
          "type": "uint256"
        },
        {
          "internalType": "uint256",
          "name": "feeSettle",
          "type": "uint256"
        },
        {
          "internalType": "uint256",
          "name": "rewardSettle",
          "type": "uint256"
        }
      ],
      "stateMutability": "view",
      "type": "function"
    },
    {
      "inputs": [
        {
          "internalType": "uint256",
          "name": "",
          "type": "uint256"
        }
      ],
      "name": "framesKeys",
      "outputs": [
        {
          "internalType": "uint256",
          "name": "",
          "type": "uint256"
        }
      ],
      "stateMutability": "view",
      "type": "function"
    },
    {
      "inputs": [
        {
          "internalType": "uint256",
          "name": "frameKey",
          "type": "uint256"
        }
      ],
      "name": "getFrame",
      "outputs": [
        {
          "components": [
            {
              "internalType": "uint256",
              "name": "frameKey",
              "type": "uint256"
            },
            {
              "internalType": "uint256",
              "name": "rate",
              "type": "uint256"
            },
            {
              "internalType": "uint256[]",
              "name": "lotKeys",
              "type": "uint256[]"
            },
            {
              "internalType": "address",
              "name": "claimedBy",
              "type": "address"
            },
            {
              "internalType": "uint256",
              "name": "rateSettle",
              "type": "uint256"
            },
            {
              "internalType": "uint256",
              "name": "feeSettle",
              "type": "uint256"
            },
            {
              "internalType": "uint256",
              "name": "rewardSettle",
              "type": "uint256"
            }
          ],
          "internalType": "struct Market.Frame",
          "name": "",
          "type": "tuple"
        }
      ],
      "stateMutability": "view",
      "type": "function"
    },
    {
      "inputs": [
        {
          "internalType": "uint256",
          "name": "frameKey",
          "type": "uint256"
        }
      ],
      "name": "getFrameLotKeys",
      "outputs": [
        {
          "internalType": "uint256[]",
          "name": "",
          "type": "uint256[]"
        }
      ],
      "stateMutability": "view",
      "type": "function"
    },
    {
      "inputs": [],
      "name": "getFramesLength",
      "outputs": [
        {
          "internalType": "uint256",
          "name": "",
          "type": "uint256"
        }
      ],
      "stateMutability": "view",
      "type": "function"
    },
    {
      "inputs": [
        {
          "internalType": "uint256",
          "name": "frameKey",
          "type": "uint256"
        },
        {
          "internalType": "uint256",
          "name": "lotKey",
          "type": "uint256"
        }
      ],
      "name": "getLot",
      "outputs": [
        {
          "components": [
            {
              "internalType": "uint256",
              "name": "frameKey",
              "type": "uint256"
            },
            {
              "internalType": "uint256",
              "name": "lotKey",
              "type": "uint256"
            },
            {
              "components": [
                {
                  "internalType": "uint256",
                  "name": "blockNumber",
                  "type": "uint256"
                },
                {
                  "internalType": "uint256",
                  "name": "blockTimestamp",
                  "type": "uint256"
                },
                {
                  "internalType": "address",
                  "name": "owner",
                  "type": "address"
                },
                {
                  "internalType": "uint256",
                  "name": "acquisitionPrice",
                  "type": "uint256"
                },
                {
                  "internalType": "uint256",
                  "name": "taxCharged",
                  "type": "uint256"
                },
                {
                  "internalType": "uint256",
                  "name": "taxRefunded",
                  "type": "uint256"
                }
              ],
              "internalType": "struct Market.LotState[]",
              "name": "states",
              "type": "tuple[]"
            }
          ],
          "internalType": "struct Market.Lot",
          "name": "",
          "type": "tuple"
        }
      ],
      "stateMutability": "view",
      "type": "function"
    },
    {
      "inputs": [
        {
          "internalType": "uint256",
          "name": "frameKey",
          "type": "uint256"
        },
        {
          "internalType": "uint256",
          "name": "lotKey",
          "type": "uint256"
        }
      ],
      "name": "getLotStates",
      "outputs": [
        {
          "components": [
            {
              "internalType": "uint256",
              "name": "blockNumber",
              "type": "uint256"
            },
            {
              "internalType": "uint256",
              "name": "blockTimestamp",
              "type": "uint256"
            },
            {
              "internalType": "address",
              "name": "owner",
              "type": "address"
            },
            {
              "internalType": "uint256",
              "name": "acquisitionPrice",
              "type": "uint256"
            },
            {
              "internalType": "uint256",
              "name": "taxCharged",
              "type": "uint256"
            },
            {
              "internalType": "uint256",
              "name": "taxRefunded",
              "type": "uint256"
            }
          ],
          "internalType": "struct Market.LotState[]",
          "name": "",
          "type": "tuple[]"
        }
      ],
      "stateMutability": "view",
      "type": "function"
    },
    {
      "inputs": [],
      "name": "getLotsArray",
      "outputs": [
        {
          "internalType": "uint256[]",
          "name": "",
          "type": "uint256[]"
        }
      ],
      "stateMutability": "view",
      "type": "function"
    },
    {
      "inputs": [],
      "name": "getLotsArrayLength",
      "outputs": [
        {
          "internalType": "uint256",
          "name": "",
          "type": "uint256"
        }
      ],
      "stateMutability": "view",
      "type": "function"
    },
    {
      "inputs": [
        {
          "internalType": "uint256",
          "name": "frameKey",
          "type": "uint256"
        }
      ],
      "name": "getLotsKeysInFrame",
      "outputs": [
        {
          "internalType": "uint256[]",
          "name": "",
          "type": "uint256[]"
        }
      ],
      "stateMutability": "view",
      "type": "function"
    },
    {
      "inputs": [
        {
          "internalType": "uint256",
          "name": "frameKey",
          "type": "uint256"
        }
      ],
      "name": "getLotsLength",
      "outputs": [
        {
          "internalType": "uint256",
          "name": "",
          "type": "uint256"
        }
      ],
      "stateMutability": "view",
      "type": "function"
    },
    {
      "inputs": [
        {
          "internalType": "uint256",
          "name": "frameKey",
          "type": "uint256"
        }
      ],
      "name": "getStateFrame",
      "outputs": [
        {
          "internalType": "enum Market.SFrame",
          "name": "",
          "type": "uint8"
        }
      ],
      "stateMutability": "view",
      "type": "function"
    },
    {
      "inputs": [
        {
          "internalType": "uint256",
          "name": "frameKey",
          "type": "uint256"
        },
        {
          "internalType": "uint256",
          "name": "lotKey",
          "type": "uint256"
        }
      ],
      "name": "getStateLot",
      "outputs": [
        {
          "internalType": "enum Market.SLot",
          "name": "",
          "type": "uint8"
        }
      ],
      "stateMutability": "view",
      "type": "function"
    },
    {
      "inputs": [],
      "name": "initTimestamp",
      "outputs": [
        {
          "internalType": "uint256",
          "name": "",
          "type": "uint256"
        }
      ],
      "stateMutability": "view",
      "type": "function"
    },
    {
      "inputs": [
        {
          "internalType": "uint256",
          "name": "",
          "type": "uint256"
        },
        {
          "internalType": "uint256",
          "name": "",
          "type": "uint256"
        }
      ],
      "name": "lots",
      "outputs": [
        {
          "internalType": "uint256",
          "name": "frameKey",
          "type": "uint256"
        },
        {
          "internalType": "uint256",
          "name": "lotKey",
          "type": "uint256"
        }
      ],
      "stateMutability": "view",
      "type": "function"
    },
    {
      "inputs": [
        {
          "internalType": "uint256",
          "name": "",
          "type": "uint256"
        }
      ],
      "name": "lotsArray",
      "outputs": [
        {
          "internalType": "uint256",
          "name": "",
          "type": "uint256"
        }
      ],
      "stateMutability": "view",
      "type": "function"
    },
    {
      "inputs": [
        {
          "internalType": "uint256",
          "name": "frameKey",
          "type": "uint256"
        },
        {
          "internalType": "uint256",
          "name": "avgPrice",
          "type": "uint256"
        }
      ],
      "name": "overrideFrameRate",
      "outputs": [],
      "stateMutability": "nonpayable",
      "type": "function"
    },
    {
      "inputs": [],
      "name": "owner",
      "outputs": [
        {
          "internalType": "address",
          "name": "",
          "type": "address"
        }
      ],
      "stateMutability": "view",
      "type": "function"
    },
    {
      "inputs": [],
      "name": "period",
      "outputs": [
        {
          "internalType": "uint256",
          "name": "",
          "type": "uint256"
        }
      ],
      "stateMutability": "view",
      "type": "function"
    },
    {
      "inputs": [
        {
          "internalType": "uint256",
          "name": "frameKey",
          "type": "uint256"
        }
      ],
      "name": "setFrameRate",
      "outputs": [],
      "stateMutability": "nonpayable",
      "type": "function"
    },
    {
      "inputs": [
        {
          "internalType": "uint256",
          "name": "frameKey",
          "type": "uint256"
        }
      ],
      "name": "settleFrame",
      "outputs": [
        {
          "internalType": "uint256",
          "name": "",
          "type": "uint256"
        }
      ],
      "stateMutability": "nonpayable",
      "type": "function"
    },
    {
      "inputs": [],
      "name": "tSettle",
      "outputs": [
        {
          "internalType": "uint256",
          "name": "",
          "type": "uint256"
        }
      ],
      "stateMutability": "view",
      "type": "function"
    },
    {
      "inputs": [],
      "name": "taxMarket",
      "outputs": [
        {
          "internalType": "uint256",
          "name": "",
          "type": "uint256"
        }
      ],
      "stateMutability": "view",
      "type": "function"
    },
    {
      "inputs": [
        {
          "internalType": "uint256",
          "name": "timestamp",
          "type": "uint256"
        },
        {
          "internalType": "uint256",
          "name": "rate",
          "type": "uint256"
        },
        {
          "internalType": "uint256",
          "name": "acquisitionPrice",
          "type": "uint256"
        }
      ],
      "name": "tradeLot",
      "outputs": [],
      "stateMutability": "nonpayable",
      "type": "function"
    },
    {
      "inputs": [],
      "name": "uniswapPool",
      "outputs": [
        {
          "internalType": "contract IUniswapV3Pool",
          "name": "",
          "type": "address"
        }
      ],
      "stateMutability": "view",
      "type": "function"
    },
    {
      "inputs": [
        {
          "internalType": "uint256",
          "name": "amount",
          "type": "uint256"
        }
      ],
      "name": "withdrawAccountingToken",
      "outputs": [],
      "stateMutability": "nonpayable",
      "type": "function"
    }
  ],
  "bytecode": "0x608060405262015180600055636592e1806001556000600255610258600355600060055560006006553480156200003557600080fd5b50604051620042be380380620042be833981016040819052620000589162000155565b600880546001600160a01b03199081163317909155600780546001600160a01b0388169216821790556040805163313ce56760e01b8152905163313ce567916004808201926020929091908290030181865afa158015620000bd573d6000803e3d6000fd5b505050506040513d601f19601f82011682018060405250810190620000e39190620001aa565b6007805460ff60a01b1916600160a01b60ff9390931692909202919091179055600293909355600691909155600555600480546001600160a01b0319166001600160a01b0390921691909117905550620001d6565b80516001600160a01b03811681146200015057600080fd5b919050565b600080600080600060a086880312156200016e57600080fd5b620001798662000138565b94506020860151935060408601519250606086015191506200019e6080870162000138565b90509295509295909350565b600060208284031215620001bd57600080fd5b815160ff81168114620001cf57600080fd5b9392505050565b6140d880620001e66000396000f3fe608060405234801561001057600080fd5b50600436106102485760003560e01c80638edc6a2c1161013b578063c0423f2e116100b8578063ef78d4fd1161007c578063ef78d4fd1461059c578063f601d510146105a5578063fb0d5e09146105cb578063fe687475146105eb578063ffdabe2d146105fe57600080fd5b8063c0423f2e14610553578063d18743dd1461055b578063da68cf8b1461056e578063e107fb4f14610581578063ed320aa81461059457600080fd5b8063b93dafa9116100ff578063b93dafa9146104be578063ba4e137f14610505578063ba52f3421461050d578063bad1265314610520578063bdd3d8251461054057600080fd5b80638edc6a2c146103da5780639592de18146103fd578063a10340bc14610410578063a73482f614610498578063b866debb146104ab57600080fd5b806361eee2cb116101c957806378328a171161018d57806378328a17146103775780637e9966391461038a57806386e670cb146103935780638a5779c8146103a65780638da5cb5b146103af57600080fd5b806361eee2cb1461030857806364772f211461031b5780636f1aefc31461032e5780637358c57a1461034e578063773d51eb1461035757600080fd5b806339a6a4891161021057806339a6a489146102b05780633baf1587146102c3578063499a0fc4146102d65780634c73884f146102df578063527eb4bc146102ff57600080fd5b8063050e88401461024d5780630d0a1c1a1461027357806318d13d8714610293578063197c4e78146102a85780632457e62014610273575b600080fd5b61026061025b366004613602565b610611565b6040519081526020015b60405180910390f35b610286610281366004613602565b610632565b60405161026a919061361b565b6102a66102a136600461365f565b610697565b005b600c54610260565b6102606102be366004613602565b6107b6565b6102a66102d1366004613602565b610983565b61026060055481565b6102f26102ed36600461365f565b610a73565b60405161026a9190613697565b61026060025481565b610260610316366004613602565b610ba0565b6102a66103293660046136b1565b610bd7565b61034161033c36600461365f565b610d10565b60405161026a9190613722565b61026060015481565b61036a610365366004613602565b610e67565b60405161026a919061378d565b61026061038536600461383b565b610f90565b61026060065481565b6102a66103a1366004613602565b610ff2565b61026060035481565b6008546103c2906001600160a01b031681565b6040516001600160a01b03909116815260200161026a565b6102606103e8366004613602565b60009081526009602052604090206002015490565b61026061040b366004613602565b61105d565b61045d61041e366004613602565b600960205260009081526040902080546001820154600383015460048401546005850154600690950154939492936001600160a01b0390921692909186565b6040805196875260208701959095526001600160a01b03909316938501939093526060840152608083019190915260a082015260c00161026a565b6102606104a636600461365f565b611088565b6102606104b9366004613602565b6110ac565b6104f06104cc36600461365f565b600b6020908152600092835260408084209091529082529020805460019091015482565b6040805192835260208301919091520161026a565b6102606118c5565b61026061051b366004613602565b611a39565b61053361052e366004613602565b611a49565b60405161026a919061386b565b6004546103c2906001600160a01b031681565b610286611ae0565b6102a6610569366004613602565b611b38565b6007546103c2906001600160a01b031681565b61026061058f36600461365f565b611c20565b600a54610260565b61026060005481565b6007546105b990600160a01b900460ff1681565b60405160ff909116815260200161026a565b6105de6105d936600461365f565b611ce2565b60405161026a919061387f565b6102a66105f9366004613602565b611d98565b61026061060c366004613602565b611e02565b600a818154811061062157600080fd5b600091825260209091200154905081565b60008181526009602090815260409182902060020180548351818402810184019094528084526060939283018282801561068b57602002820191906000526020600020905b815481526020019060010190808311610677575b50505050509050919050565b6008546001600160a01b031633146107065760405162461bcd60e51b815260206004820152602760248201527f4f6e6c79206f776e65722063616e20757064617465206672616d6520636c6f736044820152666520707269636560c81b60648201526084015b60405180910390fd5b60008281526009602052604081205490036107335760405162461bcd60e51b81526004016106fd906138bc565b6000828152600960205260409020600301546001600160a01b03161561079b5760405162461bcd60e51b815260206004820181905260248201527f4672616d65207265776172642077617320616c726561647920636c61696d656460448201526064016106fd565b60009182526009602052604080832054835290912060010155565b600080805b60008481526009602052604090206002015481101561097c57600084815260096020818152604080842080548552600b83529084208885529290915260020180548391908590811061080f5761080f6138e9565b90600052602060002001548152602001908152602001600020604051806060016040529081600082015481526020016001820154815260200160028201805480602002602001604051908101604052809291908181526020016000905b828210156108dd5760008481526020908190206040805160c08101825260068602909201805483526001808201548486015260028201546001600160a01b03169284019290925260038101546060840152600481015460808401526005015460a0830152908352909201910161086c565b5050505081525050905060005b816040015151811015610967578160400151818151811061090d5761090d6138e9565b602002602001015160800151846109249190613915565b93508160400151818151811061093c5761093c6138e9565b602002602001015160a00151846109539190613928565b93508061095f8161393b565b9150506108ea565b505080806109749061393b565b9150506107bb565b5092915050565b60008054828252600960205260409091205442916109a091613915565b11156109ee5760405162461bcd60e51b815260206004820152601b60248201527f4672616d652068617320746f20626520696e207468652070617374000000000060448201526064016106fd565b60006109f982611e02565b9050610a236040518060400160405280600681526020016502930ba329d160d51b815250826120ef565b600082815260096020526040908190206001810183905590517f861dcb88c2eea524dd3c4d2026fc29c39249f4d090843bcc78037879d296c45291610a6791613954565b60405180910390a15050565b6000828152600b602090815260408083208484529091528120600101548103610a9e57506000610b9a565b6000610aa984611a49565b6004811115610aba57610aba613681565b03610ac757506000610b9a565b6001610ad284611a49565b6004811115610ae357610ae3613681565b1480610b0857506002610af584611a49565b6004811115610b0657610b06613681565b145b15610b1557506001610b9a565b6000838152600b602090815260408083208584528252808320600190810154878552600990935292209091015410801590610b8957506005546000848152600b60209081526040808320868452909152902060010154610b759190613915565b600084815260096020526040902060010154105b15610b9657506002610b9a565b5060035b92915050565b60006001548211610bb357505060015490565b600054600154610bc39084613928565b610bcd9190613a08565b610b9a9083613928565b6000610be284610ba0565b90506000610bef8461105d565b6000838152600b6020908152604080832084845290915281206001015491925003610c44576000828152600960205260408120549003610c3457610c3285612134565b505b610c3f828285612271565b610cb9565b6000828152600b6020908152604080832084845290915290206002018054339190610c7190600190613928565b81548110610c8157610c816138e9565b60009182526020909120600260069092020101546001600160a01b031603610cae57610c3f828285612633565b610cb9828285612ac5565b6000828152600b602090815260408083208484529091529081902090517f906ff162b3f2709ab28fb678d43913964434148dd206e9b17adb3c1255090cb191610d0191613a1c565b60405180910390a15050505050565b610d3460405180606001604052806000815260200160008152602001606081525090565b6000838152600b602090815260408083208584529091528120600101549003610d935760405162461bcd60e51b8152602060048201526011602482015270131bdd08191bd95cdb89dd08195e1a5cdd607a1b60448201526064016106fd565b6000838152600b602090815260408083208584528252808320815160608101835281548152600182015481850152600282018054845181870281018701865281815292969395948701949293919290919084015b82821015610e585760008481526020908190206040805160c08101825260068602909201805483526001808201548486015260028201546001600160a01b03169284019290925260038101546060840152600481015460808401526005015460a08301529083529092019101610de7565b50505091525090949350505050565b610eb06040518060e0016040528060008152602001600081526020016060815260200160006001600160a01b031681526020016000815260200160008152602001600081525090565b6000828152600960205260408120549003610edd5760405162461bcd60e51b81526004016106fd906138bc565b600082815260096020908152604091829020825160e0810184528154815260018201548184015260028201805485518186028101860187528181529295939493860193830182828015610f4f57602002820191906000526020600020905b815481526020019060010190808311610f3b575b505050918352505060038201546001600160a01b03166020820152600482015460408201526005820154606082015260069091015460809091015292915050565b6007546000908190610fad90600160a01b900460ff166012613aca565b610fb890600a613bc7565b90508215610fe85780610fcc600282613bd6565b610fd69086613915565b610fe09190613bd6565b915050610b9a565b610fe08185613bd6565b6008546001600160a01b031633146110585760405162461bcd60e51b8152602060048201526024808201527f4f6e6c79206f776e65722063616e206368616e6765207461782070657263656e6044820152637461676560e01b60648201526084016106fd565b600655565b600060055482101561107157505060055490565b60055461107e8184613bd6565b610b9a9190613bea565b6000611099826402540be400613bea565b91506110a58383613915565b9392505050565b60008181526009602052604081205481036110d95760405162461bcd60e51b81526004016106fd906138bc565b60036110e483611a49565b60048111156110f5576110f5613681565b1461114e5760405162461bcd60e51b8152602060048201526024808201527f4672616d6520646f6573206e6f742068617665206120636c6f73652072617465604482015263081cd95d60e21b60648201526084016106fd565b6000828152600960205260408120600101546111699061105d565b6000848152600b60209081526040808320848452825280832081516060810183528154815260018201548185015260028201805484518187028101870186528181529798509596919592949386019391929091879084015b828210156112325760008481526020908190206040805160c08101825260068602909201805483526001808201548486015260028201546001600160a01b03169284019290925260038101546060840152600481015460808401526005015460a083015290835290920191016111c1565b50505050815250509050600061125161124a866107b6565b6000610f90565b60075490915060009061126f90600160a01b900460ff16600a613bc7565b60075461128790600160a01b900460ff166012613aca565b61129290600a613bc7565b60025461129f9190613bd6565b6112a99084613bea565b6112b39190613bd6565b905060006112c18284613928565b90506112f26040518060400160405280600d81526020016c02932bbb0b93210333ab7321d1609d1b815250846120ef565b6113196040518060400160405280600581526020016402332b29d160dd1b815250836120ef565b6113436040518060400160405280600881526020016702830bcb7baba1d160c51b815250826120ef565b60075461135b90600160a01b900460ff166012613aca565b61136690600a613bc7565b6113709083613bea565b60008881526009602052604090206005015560075461139a90600160a01b900460ff166012613aca565b6113a590600a613bc7565b6113af9082613bea565b60008881526009602052604090819020600601919091558401515115611724576007546040516370a0823160e01b81523060048201526000916001600160a01b0316906370a0823190602401602060405180830381865afa158015611418573d6000803e3d6000fd5b505050506040513d601f19601f8201168201806040525081019061143c9190613c01565b905061147260405180604001604052806012815260200171021b7b73a3930b1ba103130b630b731b29d160751b815250826120ef565b600754604086015180516001600160a01b039092169163a9059cbb919061149b90600190613928565b815181106114ab576114ab6138e9565b602002602001015160400151846040518363ffffffff1660e01b81526004016114e99291906001600160a01b03929092168252602082015260400190565b6020604051808303816000875af1158015611508573d6000803e3d6000fd5b505050506040513d601f19601f8201168201806040525081019061152c9190613c1a565b506040850151805161154090600190613928565b81518110611550576115506138e9565b602002602001015160400151600960008a815260200190815260200160002060030160006101000a8154816001600160a01b0302191690836001600160a01b031602179055506115d46040518060400160405280601e81526020017f5472616e7366657265642072657761726420746f206c6f74206f776e657200008152506130ce565b6007546040516370a0823160e01b81523060048201526000916001600160a01b0316906370a0823190602401602060405180830381865afa15801561161d573d6000803e3d6000fd5b505050506040513d601f19601f820116820180604052508101906116419190613c01565b905061166560405180606001604052806021815260200161408260219139826120ef565b60075460085460405163a9059cbb60e01b81526001600160a01b0391821660048201526024810187905291169063a9059cbb906044016020604051808303816000875af11580156116ba573d6000803e3d6000fd5b505050506040513d601f19601f820116820180604052508101906116de9190613c1a565b5061171d6040518060400160405280601781526020017f5472616e7366657265642066656520746f206f776e65720000000000000000008152506130ce565b5050611814565b6007546008546001600160a01b039182169163a9059cbb91166117478585613915565b6040516001600160e01b031960e085901b1681526001600160a01b03909216600483015260248201526044016020604051808303816000875af1158015611792573d6000803e3d6000fd5b505050506040513d601f19601f820116820180604052508101906117b69190613c1a565b506117e260405180606001604052806025815260200161403c602591396117dd8484613915565b6120ef565b600854600088815260096020526040902060030180546001600160a01b0319166001600160a01b039092169190911790555b600087815260096020526040908190206001810154600490910155517f906ff162b3f2709ab28fb678d43913964434148dd206e9b17adb3c1255090cb19061185d908690613722565b60405180910390a16000878152600960205260409081902090517f861dcb88c2eea524dd3c4d2026fc29c39249f4d090843bcc78037879d296c452916118a291613954565b60405180910390a150505060009384525050600960205250604090206006015490565b6004805460408051633850c7bd60e01b8152905160009384936001600160a01b031692633850c7bd928183019260e0928290030181865afa15801561190e573d6000803e3d6000fd5b505050506040513d601f19601f820116820180604052508101906119329190613c65565b50505050505090506000600760149054906101000a900460ff1660126119589190613aca565b60ff169050600061196a82600a613d00565b61197d906001600160a01b038516613bea565b905061198d600160601b82613bd6565b905061199a600282613bc7565b6007549091506119b590600160a01b900460ff16600a613bc7565b6119bf9082613bea565b9050806119cd836024613915565b6119d890600a613d00565b6119e3906001613bea565b6119ed9190613bd6565b600754909150600160a01b900460ff166012146110a557600754611a1c90600160a01b900460ff166012613aca565b611a2790600a613bc7565b611a319082613bea565b949350505050565b600c818154811061062157600080fd5b6000818152600960205260408120548103611a6657506000919050565b6000828152600960205260409020600301546001600160a01b031615611a8e57506004919050565b600080548382526009602052604090912054611aaa9190613915565b421015611ab957506001919050565b60008281526009602052604090206001015415611ad857506003919050565b506002919050565b6060600c805480602002602001604051908101604052809291908181526020018280548015611b2e57602002820191906000526020600020905b815481526020019060010190808311611b1a575b5050505050905090565b6008546001600160a01b03163314611ba35760405162461bcd60e51b815260206004820152602860248201527f4f6e6c79206f776e65722063616e207769746864726177206163636f756e74696044820152673733903a37b5b2b760c11b60648201526084016106fd565b60075460085460405163a9059cbb60e01b81526001600160a01b0391821660048201526024810184905291169063a9059cbb906044016020604051808303816000875af1158015611bf8573d6000803e3d6000fd5b505050506040513d601f19601f82011682018060405250810190611c1c9190613c1a565b5050565b60004260005484611c319190613915565b11611c7e5760405162461bcd60e51b815260206004820152601d60248201527f4672616d652068617320746f20626520696e207468652066757475726500000060448201526064016106fd565b60008054600654611c8f9190613bd6565b905060004260005486611ca29190613915565b611cac9190613928565b90506000670de0b6b3a764000085611cc48585613bea565b611cce9190613bea565b611cd89190613bd6565b9695505050505050565b6000828152600b602090815260408083208484528252808320600201805482518185028101850190935280835260609492939192909184015b82821015611d8c5760008481526020908190206040805160c08101825260068602909201805483526001808201548486015260028201546001600160a01b03169284019290925260038101546060840152600481015460808401526005015460a08301529083529092019101611d1b565b50505050905092915050565b6008546001600160a01b03163314611dfd5760405162461bcd60e51b815260206004820152602260248201527f4f6e6c79206f776e65722063616e206368616e67652070726f746f636f6c2066604482015261656560f01b60648201526084016106fd565b600255565b6000806003548342611e149190613928565b611e1e9190613915565b90506000611e2c8442613928565b60408051600280825260608201835292935060009290916020830190803683370190505090508281600081518110611e6657611e666138e9565b602002602001019063ffffffff16908163ffffffff16815250508181600181518110611e9457611e946138e9565b63ffffffff909216602092830291909101909101526004805460405163883bdbfd60e01b81526000926001600160a01b039092169163883bdbfd91611edb91869101613d22565b600060405180830381865afa158015611ef8573d6000803e3d6000fd5b505050506040513d6000823e601f3d908101601f19168201604052611f209190810190613e1c565b509050600081600081518110611f3857611f386138e9565b602002602001015160060b82600181518110611f5657611f566138e9565b602002602001015160060b611f6b9190613ee8565b90506000811215611fb45760405162461bcd60e51b81526020600482015260136024820152724e65676174697665207469636b2064656c746160681b60448201526064016106fd565b806000611fca63ffffffff808816908916613928565b90506000611fd88284613bd6565b600754909150600090611ff690600160a01b900460ff166012613aca565b60ff169050600061200683613114565b9050600061201583600a613d00565b612028906001600160a01b038416613bea565b9050612038600160601b82613bd6565b9050612045600282613bc7565b60075490915061206090600160a01b900460ff16600a613bc7565b61206a9082613bea565b905080612078846024613915565b61208390600a613d00565b61208e906001613bea565b6120989190613bd6565b600754909150600160a01b900460ff166012146120df576007546120c790600160a01b900460ff166012613aca565b6120d290600a613bc7565b6120dc9082613bea565b90505b9c9b505050505050505050505050565b611c1c8282604051602401612105929190613f4e565b60408051601f198184030181529190526020810180516001600160e01b0316632d839cb360e21b1790526134f7565b60008061214083610ba0565b600081815260096020526040902054909150156121965760405162461bcd60e51b81526020600482015260146024820152734672616d6520616c72656164792065786973747360601b60448201526064016106fd565b42600054826121a59190613915565b10156121f35760405162461bcd60e51b815260206004820152601d60248201527f4672616d652068617320746f20626520696e207468652066757475726500000060448201526064016106fd565b60008181526009602052604090819020828155600a8054600181019091557fc65a7bb8d6351c1cf70c95a316cc6a92839c986682d98bc35f958f4883f9d2a80183905590517f861dcb88c2eea524dd3c4d2026fc29c39249f4d090843bcc78037879d296c4529161226391613954565b60405180910390a192915050565b600061227d8483611c20565b9050600061228c826000610f90565b90506122be6040518060400160405280600e81526020016d02a30bc1034b7103a37b5b2b71d160951b815250826120ef565b600081116122de5760405162461bcd60e51b81526004016106fd90613f70565b600754604051636eb1769f60e11b815233600482015230602482015282916001600160a01b03169063dd62ed3e90604401602060405180830381865afa15801561232c573d6000803e3d6000fd5b505050506040513d601f19601f820116820180604052508101906123509190613c01565b101561236e5760405162461bcd60e51b81526004016106fd90613fcd565b7f161bcca7119915b50764b4abe86529797775a5f171951000000000000000000084106123cf5760405162461bcd60e51b815260206004820152600f60248201526e4c6f74206b657920746f6f2062696760881b60448201526064016106fd565b6000858152600b602090815260408083208784529091529020600101541561242e5760405162461bcd60e51b81526020600482015260126024820152714c6f7420616c72656164792065786973747360701b60448201526064016106fd565b60006040518060c00160405280438152602001428152602001336001600160a01b03168152602001858152602001600760149054906101000a900460ff1660126124789190613aca565b61248390600a613bc7565b61248d9085613bea565b815260006020918201819052888152600b8252604080822089835283528082208a815560018082018b9055600280830180548084018255818752878720895160069092020190815596880151928701929092559286015192850180546001600160a01b0319166001600160a01b0390941693909317909255606085015160038501556080850151600485015560a08501516005909401939093559088905280549293509091829182916125429190819061351c565b5090505060006125528888611088565b600c805460018181019092557fdf6966c971051c3d54ec59162606531493a51404a002842f56009d7e5cf4a8c70182905560008a8152600960209081526040808320878501546002909101805495860181558452919092209092019190915560075490516323b872dd60e01b81529192506001600160a01b0316906323b872dd906125e590339030908990600401614004565b6020604051808303816000875af1158015612604573d6000803e3d6000fd5b505050506040513d601f19601f820116820180604052508101906126289190613c1a565b505050505050505050565b6000838152600b602090815260408083208584529091528120600201805461268a91869161266390600190613928565b81548110612673576126736138e9565b906000526020600020906006020160030154611c20565b905060006126988584611c20565b9050808211156128995760006126ae8284613928565b905060006126bd826000610f90565b6007546000898152600b602090815260408083208b8452909152902060020180549293506001600160a01b039091169163a9059cbb919061270090600190613928565b81548110612710576127106138e9565b600091825260209091206006909102016002015460405160e083901b6001600160e01b03191681526001600160a01b039091166004820152602481018490526044016020604051808303816000875af1158015612771573d6000803e3d6000fd5b505050506040513d601f19601f820116820180604052508101906127959190613c1a565b50600b600088815260200190815260200160002060008781526020019081526020016000206002016040518060c00160405280438152602001428152602001336001600160a01b0316815260200187815260200160008152602001600760149054906101000a900460ff16601261280c9190613aca565b61281790600a613bc7565b6128219085613bea565b905281546001808201845560009384526020938490208351600690930201918255928201519281019290925560408101516002830180546001600160a01b0319166001600160a01b03909216919091179055606081015160038301556080810151600483015560a0015160059091015550612abe9050565b60006128a58383613928565b905060006128b4826000610f90565b600754604051636eb1769f60e11b815233600482015230602482015291925082916001600160a01b039091169063dd62ed3e90604401602060405180830381865afa158015612907573d6000803e3d6000fd5b505050506040513d601f19601f8201168201806040525081019061292b9190613c01565b10156129495760405162461bcd60e51b81526004016106fd90613fcd565b6007546040516323b872dd60e01b81526001600160a01b03909116906323b872dd9061297d90339030908690600401614004565b6020604051808303816000875af115801561299c573d6000803e3d6000fd5b505050506040513d601f19601f820116820180604052508101906129c09190613c1a565b50600b600088815260200190815260200160002060008781526020019081526020016000206002016040518060c00160405280438152602001428152602001336001600160a01b03168152602001878152602001600760149054906101000a900460ff166012612a309190613aca565b612a3b90600a613bc7565b612a459086613bea565b815260006020918201819052835460018082018655948252908290208351600690920201908155908201519281019290925560408101516002830180546001600160a01b0319166001600160a01b03909216919091179055606081015160038301556080810151600483015560a0015160059091015550505b5050505050565b6000838152600b6020908152604080832085845290915281206002018054612aef90600190613928565b81548110612aff57612aff6138e9565b600091825260208220600260069092020101546001600160a01b03169150612b278584611c20565b905060008111612b495760405162461bcd60e51b81526004016106fd90613f70565b6000858152600b6020908152604080832087845290915281206002018054612b7390600190613928565b81548110612b8357612b836138e9565b90600052602060002090600602016003015490506000612ba4826000610f90565b9050612bc860405180606001604052806021815260200161406160219139826120ef565b6000612bd5846000610f90565b9050612c076040518060400160405280600e81526020016d02a30bc1034b7103a37b5b2b71d160951b815250826120ef565b604080518082018252600b81526a020b63637bbb0b731b29d160ad1b60208201526007549151636eb1769f60e11b8152336004820152306024820152612c9b926001600160a01b03169063dd62ed3e90604401602060405180830381865afa158015612c77573d6000803e3d6000fd5b505050506040513d601f19601f820116820180604052508101906117dd9190613c01565b612ca58282613915565b600754604051636eb1769f60e11b81523360048201523060248201526001600160a01b039091169063dd62ed3e90604401602060405180830381865afa158015612cf3573d6000803e3d6000fd5b505050506040513d601f19601f82011682018060405250810190612d179190613c01565b1015612d355760405162461bcd60e51b81526004016106fd90613fcd565b6007546040516323b872dd60e01b81526001600160a01b03909116906323b872dd90612d6990339030908690600401614004565b6020604051808303816000875af1158015612d88573d6000803e3d6000fd5b505050506040513d601f19601f82011682018060405250810190612dac9190613c1a565b506007546040516323b872dd60e01b81526001600160a01b03909116906323b872dd90612de190339089908790600401614004565b6020604051808303816000875af1158015612e00573d6000803e3d6000fd5b505050506040513d601f19601f82011682018060405250810190612e249190613c1a565b506000888152600b602090815260408083208a845290915281206002018054612e55918b9161266390600190613928565b90506000612e64826000610f90565b60075460405163a9059cbb60e01b81526001600160a01b038a811660048301526024820184905292935091169063a9059cbb906044016020604051808303816000875af1158015612eb9573d6000803e3d6000fd5b505050506040513d601f19601f82011682018060405250810190612edd9190613c1a565b50600b60008b815260200190815260200160002060008a81526020019081526020016000206002016040518060c00160405280438152602001428152602001896001600160a01b0316815260200187815260200160008152602001600760149054906101000a900460ff166012612f549190613aca565b612f5f90600a613bc7565b612f699085613bea565b90528154600180820184556000938452602080852084516006909402019283558381015191830191909155604080840151600280850180546001600160a01b0319166001600160a01b03909316929092179091556060808601516003860155608080870151600487015560a0909601516005909501949094558f8652600b83528186208f8752835294819020815160c081018352438152429381019390935233918301919091529181018c905260075491909301929182019061303790600160a01b900460ff166012613aca565b61304290600a613bc7565b61304c908a613bea565b815260006020918201819052835460018082018655948252908290208351600690920201908155908201519281019290925560408101516002830180546001600160a01b0319166001600160a01b03909216919091179055606081015160038301556080810151600483015560a0015160059091015550505050505050505050565b613111816040516024016130e29190614028565b60408051601f198184030181529190526020810180516001600160e01b031663104c13eb60e21b1790526134f7565b50565b600081620d89e881111561314e5760405162461bcd60e51b81526020600482015260016024820152601560fa1b60448201526064016106fd565b60008160011660000361316557600160801b613177565b6ffffcb933bd6fad37aa2d162d1a5940015b70ffffffffffffffffffffffffffffffffff16905060028216156131b65760806131b1826ffff97272373d413259a46990580e213a613bea565b901c90505b60048216156131e05760806131db826ffff2e50f5f656932ef12357cf3c7fdcc613bea565b901c90505b600882161561320a576080613205826fffe5caca7e10e4e61c3624eaa0941cd0613bea565b901c90505b601082161561323457608061322f826fffcb9843d60f6159c9db58835c926644613bea565b901c90505b602082161561325e576080613259826fff973b41fa98c081472e6896dfb254c0613bea565b901c90505b6040821615613288576080613283826fff2ea16466c96a3843ec78b326b52861613bea565b901c90505b60808216156132b25760806132ad826ffe5dee046a99a2a811c461f1969c3053613bea565b901c90505b6101008216156132dd5760806132d8826ffcbe86c7900a88aedcffc83b479aa3a4613bea565b901c90505b610200821615613308576080613303826ff987a7253ac413176f2b074cf7815e54613bea565b901c90505b61040082161561333357608061332e826ff3392b0822b70005940c7a398e4b70f3613bea565b901c90505b61080082161561335e576080613359826fe7159475a2c29b7443b29c7fa6e889d9613bea565b901c90505b611000821615613389576080613384826fd097f3bdfd2022b8845ad8f792aa5825613bea565b901c90505b6120008216156133b45760806133af826fa9f746462d870fdf8a65dc1f90e061e5613bea565b901c90505b6140008216156133df5760806133da826f70d869a156d2a1b890bb3df62baf32f7613bea565b901c90505b61800082161561340a576080613405826f31be135f97d08fd981231505542fcfa6613bea565b901c90505b62010000821615613436576080613431826f09aa508b5b7a84e1c677de54f3e99bc9613bea565b901c90505b6202000082161561346157608061345c826e5d6af8dedb81196699c329225ee604613bea565b901c90505b6204000082161561348b576080613486826d2216e584f5fa1ea926041bedfe98613bea565b901c90505b620800008216156134b35760806134ae826b048a170391f7dc42444e8fa2613bea565b901c90505b83156134c8576134c581600019613bd6565b90505b6134d764010000000082613a08565b156134e35760016134e6565b60005b611a319060ff16602083901c613915565b6131118160006a636f6e736f6c652e6c6f679050600080835160208501845afa505050565b8280548282559060005260206000209060060281019282156135b05760005260206000209160060282015b828111156135b057825482556001808401549083015560028084015490830180546001600160a01b0319166001600160a01b0390921691909117905560038084015490830155600480840154908301556005808401549083015560069283019290910190613547565b506135bc9291506135c0565b5090565b5b808211156135bc576000808255600182018190556002820180546001600160a01b0319169055600382018190556004820181905560058201556006016135c1565b60006020828403121561361457600080fd5b5035919050565b6020808252825182820181905260009190848201906040850190845b8181101561365357835183529284019291840191600101613637565b50909695505050505050565b6000806040838503121561367257600080fd5b50508035926020909101359150565b634e487b7160e01b600052602160045260246000fd5b60208101600483106136ab576136ab613681565b91905290565b6000806000606084860312156136c657600080fd5b505081359360208301359350604090920135919050565b80518252602080820151908301526040808201516001600160a01b031690830152606080820151908301526080808201519083015260a0908101519082015260c00190565b6000602080835260808301845182850152818501516040850152604085015160608086015281815180845260a0870191508483019350600092505b80831015613782576137708285516136dd565b9150848401935060018301925061375d565b509695505050505050565b600060208083526101008301845182850152818501516040850152604085015160e06060860152818151808452610120870191508483019350600092505b808310156137eb57835182529284019260019290920191908401906137cb565b5060608701516001600160a01b03811660808801529350608087015160a087015260a087015160c087015260c087015160e08701528094505050505092915050565b801515811461311157600080fd5b6000806040838503121561384e57600080fd5b8235915060208301356138608161382d565b809150509250929050565b60208101600583106136ab576136ab613681565b6020808252825182820181905260009190848201906040850190845b81811015613653576138ae8385516136dd565b93850193925060010161389b565b602080825260139082015272119c985b5948191bd95cdb89dd08195e1a5cdd606a1b604082015260600190565b634e487b7160e01b600052603260045260246000fd5b634e487b7160e01b600052601160045260246000fd5b80820180821115610b9a57610b9a6138ff565b81810381811115610b9a57610b9a6138ff565b60006001820161394d5761394d6138ff565b5060010190565b6020808252825482820152600180840154604084015260e06060840152600284018054610100850181905260009182528382209193929084906101208701905b808310156139b15784548252938301939183019190850190613994565b5060038801546001600160a01b03166080880152600488015460a0880152600588015460c088015260069097015460e0909601959095525093949350505050565b634e487b7160e01b600052601260045260246000fd5b600082613a1757613a176139f2565b500690565b6000602080835260808084018554838601526001808701546040818189015260029150818901606080818b015285825480885260a09750878c0191508360005289600020935060005b81811015613ab85784548352878501548b840152868501546001600160a01b03168684015260038501548484015260048501548a84015260058501548984015260069094019360c0909201918701613a65565b50909c9b505050505050505050505050565b60ff8281168282160390811115610b9a57610b9a6138ff565b600181815b80851115613b1e578160001904821115613b0457613b046138ff565b80851615613b1157918102915b93841c9390800290613ae8565b509250929050565b600082613b3557506001610b9a565b81613b4257506000610b9a565b8160018114613b585760028114613b6257613b7e565b6001915050610b9a565b60ff841115613b7357613b736138ff565b50506001821b610b9a565b5060208310610133831016604e8410600b8410161715613ba1575081810a610b9a565b613bab8383613ae3565b8060001904821115613bbf57613bbf6138ff565b029392505050565b60006110a560ff841683613b26565b600082613be557613be56139f2565b500490565b8082028115828204841417610b9a57610b9a6138ff565b600060208284031215613c1357600080fd5b5051919050565b600060208284031215613c2c57600080fd5b81516110a58161382d565b80516001600160a01b0381168114613c4e57600080fd5b919050565b805161ffff81168114613c4e57600080fd5b600080600080600080600060e0888a031215613c8057600080fd5b613c8988613c37565b965060208801518060020b8114613c9f57600080fd5b9550613cad60408901613c53565b9450613cbb60608901613c53565b9350613cc960808901613c53565b925060a088015160ff81168114613cdf57600080fd5b60c0890151909250613cf08161382d565b8091505092959891949750929550565b60006110a58383613b26565b634e487b7160e01b600052604160045260246000fd5b6020808252825182820181905260009190848201906040850190845b8181101561365357835163ffffffff1683529284019291840191600101613d3e565b604051601f8201601f1916810167ffffffffffffffff81118282101715613d8957613d89613d0c565b604052919050565b600067ffffffffffffffff821115613dab57613dab613d0c565b5060051b60200190565b600082601f830112613dc657600080fd5b81516020613ddb613dd683613d91565b613d60565b82815260059290921b84018101918181019086841115613dfa57600080fd5b8286015b8481101561378257613e0f81613c37565b8352918301918301613dfe565b60008060408385031215613e2f57600080fd5b825167ffffffffffffffff80821115613e4757600080fd5b818501915085601f830112613e5b57600080fd5b81516020613e6b613dd683613d91565b82815260059290921b84018101918181019089841115613e8a57600080fd5b948201945b83861015613eb85785518060060b8114613ea95760008081fd5b82529482019490820190613e8f565b91880151919650909350505080821115613ed157600080fd5b50613ede85828601613db5565b9150509250929050565b818103600083128015838313168383128216171561097c5761097c6138ff565b6000815180845260005b81811015613f2e57602081850181015186830182015201613f12565b506000602082860101526020601f19601f83011685010191505092915050565b604081526000613f616040830185613f08565b90508260208301529392505050565b6020808252603c908201527f5461782068617320746f2062652067726561746572207468616e20302e20496e60408201527f63726561736520746865206163717569736974696f6e20707269636500000000606082015260800190565b6020808252601e908201527f416c6c6f77616e636520746f207370656e642073657420746f6f206c6f770000604082015260600190565b6001600160a01b039384168152919092166020820152604081019190915260600190565b6020815260006110a56020830184613f0856fe5265776172642066756e6420696e20746f6b656e202b2066656520696e20746f6b656e3a204c617374206163717569736974696f6e20707269636520696e20746f6b656e3a20436f6e74726163742062616c616e6365206166746572207472616e736665723a20a2646970667358221220c94aa25639452594985b83cffcef500784deb1dd7e4dfc54574a99b856d3e45e64736f6c63430008140033",
  "linkReferences": {},
  "deployedLinkReferences": {}
}