{
  "_format": "hh-sol-artifact-1",
  "contractName": "Market",
  "sourceName": "contracts/Market.sol",
  "abi": [
    {
      "inputs": [],
      "stateMutability": "nonpayable",
      "type": "constructor"
    },
    {
      "anonymous": false,
      "inputs": [
        {
          "components": [
            {
              "internalType": "uint256",
              "name": "frameKey",
              "type": "uint256"
            },
            {
              "internalType": "uint256",
              "name": "rate",
              "type": "uint256"
            },
            {
              "internalType": "uint256[]",
              "name": "lotKeys",
              "type": "uint256[]"
            },
            {
              "internalType": "address",
              "name": "claimedBy",
              "type": "address"
            },
            {
              "internalType": "uint256",
              "name": "rateSettle",
              "type": "uint256"
            },
            {
              "internalType": "uint256",
              "name": "feeSettle",
              "type": "uint256"
            },
            {
              "internalType": "uint256",
              "name": "rewardSettle",
              "type": "uint256"
            },
            {
              "internalType": "uint256",
              "name": "feeReferral",
              "type": "uint256"
            }
          ],
          "indexed": false,
          "internalType": "struct Market.Frame",
          "name": "frame",
          "type": "tuple"
        }
      ],
      "name": "FrameUpdate",
      "type": "event"
    },
    {
      "anonymous": false,
      "inputs": [
        {
          "components": [
            {
              "internalType": "uint256",
              "name": "frameKey",
              "type": "uint256"
            },
            {
              "internalType": "uint256",
              "name": "lotKey",
              "type": "uint256"
            },
            {
              "components": [
                {
                  "internalType": "uint256",
                  "name": "blockNumber",
                  "type": "uint256"
                },
                {
                  "internalType": "uint256",
                  "name": "blockTimestamp",
                  "type": "uint256"
                },
                {
                  "internalType": "address",
                  "name": "owner",
                  "type": "address"
                },
                {
                  "internalType": "uint256",
                  "name": "acquisitionPrice",
                  "type": "uint256"
                },
                {
                  "internalType": "uint256",
                  "name": "taxCharged",
                  "type": "uint256"
                },
                {
                  "internalType": "uint256",
                  "name": "taxRefunded",
                  "type": "uint256"
                }
              ],
              "internalType": "struct Market.LotState[]",
              "name": "states",
              "type": "tuple[]"
            }
          ],
          "indexed": false,
          "internalType": "struct Market.Lot",
          "name": "lot",
          "type": "tuple"
        }
      ],
      "name": "LotUpdate",
      "type": "event"
    },
    {
      "inputs": [],
      "name": "accountingToken",
      "outputs": [
        {
          "internalType": "contract IERC20",
          "name": "",
          "type": "address"
        }
      ],
      "stateMutability": "view",
      "type": "function"
    },
    {
      "inputs": [],
      "name": "claimReferralRewards",
      "outputs": [],
      "stateMutability": "nonpayable",
      "type": "function"
    },
    {
      "inputs": [
        {
          "internalType": "uint256",
          "name": "timestamp",
          "type": "uint256"
        }
      ],
      "name": "clcFrameKey",
      "outputs": [
        {
          "internalType": "uint256",
          "name": "",
          "type": "uint256"
        }
      ],
      "stateMutability": "view",
      "type": "function"
    },
    {
      "inputs": [
        {
          "internalType": "uint256",
          "name": "value",
          "type": "uint256"
        }
      ],
      "name": "clcLotKey",
      "outputs": [
        {
          "internalType": "uint256",
          "name": "",
          "type": "uint256"
        }
      ],
      "stateMutability": "view",
      "type": "function"
    },
    {
      "inputs": [],
      "name": "clcRate",
      "outputs": [
        {
          "internalType": "uint256",
          "name": "",
          "type": "uint256"
        }
      ],
      "stateMutability": "view",
      "type": "function"
    },
    {
      "inputs": [
        {
          "internalType": "uint256",
          "name": "timestamp",
          "type": "uint256"
        }
      ],
      "name": "clcRateAvg",
      "outputs": [
        {
          "internalType": "uint256",
          "name": "",
          "type": "uint256"
        }
      ],
      "stateMutability": "view",
      "type": "function"
    },
    {
      "inputs": [
        {
          "internalType": "uint256",
          "name": "frameKey",
          "type": "uint256"
        }
      ],
      "name": "clcRewardFund",
      "outputs": [
        {
          "internalType": "uint256",
          "name": "",
          "type": "uint256"
        }
      ],
      "stateMutability": "view",
      "type": "function"
    },
    {
      "inputs": [
        {
          "internalType": "uint256",
          "name": "frameKey",
          "type": "uint256"
        },
        {
          "internalType": "uint256",
          "name": "acquisitionPrice",
          "type": "uint256"
        }
      ],
      "name": "clcTax",
      "outputs": [
        {
          "internalType": "uint256",
          "name": "",
          "type": "uint256"
        }
      ],
      "stateMutability": "view",
      "type": "function"
    },
    {
      "inputs": [
        {
          "internalType": "uint256",
          "name": "frameKey",
          "type": "uint256"
        },
        {
          "internalType": "uint256",
          "name": "lotKey",
          "type": "uint256"
        }
      ],
      "name": "concatenate",
      "outputs": [
        {
          "internalType": "uint256",
          "name": "concatenated",
          "type": "uint256"
        }
      ],
      "stateMutability": "pure",
      "type": "function"
    },
    {
      "inputs": [],
      "name": "dPrice",
      "outputs": [
        {
          "internalType": "uint256",
          "name": "",
          "type": "uint256"
        }
      ],
      "stateMutability": "view",
      "type": "function"
    },
    {
      "inputs": [],
      "name": "feeProtocol",
      "outputs": [
        {
          "internalType": "uint256",
          "name": "",
          "type": "uint256"
        }
      ],
      "stateMutability": "view",
      "type": "function"
    },
    {
      "inputs": [
        {
          "internalType": "uint256",
          "name": "",
          "type": "uint256"
        }
      ],
      "name": "frames",
      "outputs": [
        {
          "internalType": "uint256",
          "name": "frameKey",
          "type": "uint256"
        },
        {
          "internalType": "uint256",
          "name": "rate",
          "type": "uint256"
        },
        {
          "internalType": "address",
          "name": "claimedBy",
          "type": "address"
        },
        {
          "internalType": "uint256",
          "name": "rateSettle",
          "type": "uint256"
        },
        {
          "internalType": "uint256",
          "name": "feeSettle",
          "type": "uint256"
        },
        {
          "internalType": "uint256",
          "name": "rewardSettle",
          "type": "uint256"
        },
        {
          "internalType": "uint256",
          "name": "feeReferral",
          "type": "uint256"
        }
      ],
      "stateMutability": "view",
      "type": "function"
    },
    {
      "inputs": [
        {
          "internalType": "uint256",
          "name": "",
          "type": "uint256"
        }
      ],
      "name": "framesKeys",
      "outputs": [
        {
          "internalType": "uint256",
          "name": "",
          "type": "uint256"
        }
      ],
      "stateMutability": "view",
      "type": "function"
    },
    {
      "inputs": [
        {
          "internalType": "uint256",
          "name": "frameKey",
          "type": "uint256"
        }
      ],
      "name": "getFrame",
      "outputs": [
        {
          "components": [
            {
              "internalType": "uint256",
              "name": "frameKey",
              "type": "uint256"
            },
            {
              "internalType": "uint256",
              "name": "rate",
              "type": "uint256"
            },
            {
              "internalType": "uint256[]",
              "name": "lotKeys",
              "type": "uint256[]"
            },
            {
              "internalType": "address",
              "name": "claimedBy",
              "type": "address"
            },
            {
              "internalType": "uint256",
              "name": "rateSettle",
              "type": "uint256"
            },
            {
              "internalType": "uint256",
              "name": "feeSettle",
              "type": "uint256"
            },
            {
              "internalType": "uint256",
              "name": "rewardSettle",
              "type": "uint256"
            },
            {
              "internalType": "uint256",
              "name": "feeReferral",
              "type": "uint256"
            }
          ],
          "internalType": "struct Market.Frame",
          "name": "",
          "type": "tuple"
        }
      ],
      "stateMutability": "view",
      "type": "function"
    },
    {
      "inputs": [
        {
          "internalType": "uint256",
          "name": "frameKey",
          "type": "uint256"
        }
      ],
      "name": "getFrameLotKeys",
      "outputs": [
        {
          "internalType": "uint256[]",
          "name": "",
          "type": "uint256[]"
        }
      ],
      "stateMutability": "view",
      "type": "function"
    },
    {
      "inputs": [],
      "name": "getFramesLength",
      "outputs": [
        {
          "internalType": "uint256",
          "name": "",
          "type": "uint256"
        }
      ],
      "stateMutability": "view",
      "type": "function"
    },
    {
      "inputs": [
        {
          "internalType": "uint256",
          "name": "frameKey",
          "type": "uint256"
        },
        {
          "internalType": "uint256",
          "name": "lotKey",
          "type": "uint256"
        }
      ],
      "name": "getLot",
      "outputs": [
        {
          "components": [
            {
              "internalType": "uint256",
              "name": "frameKey",
              "type": "uint256"
            },
            {
              "internalType": "uint256",
              "name": "lotKey",
              "type": "uint256"
            },
            {
              "components": [
                {
                  "internalType": "uint256",
                  "name": "blockNumber",
                  "type": "uint256"
                },
                {
                  "internalType": "uint256",
                  "name": "blockTimestamp",
                  "type": "uint256"
                },
                {
                  "internalType": "address",
                  "name": "owner",
                  "type": "address"
                },
                {
                  "internalType": "uint256",
                  "name": "acquisitionPrice",
                  "type": "uint256"
                },
                {
                  "internalType": "uint256",
                  "name": "taxCharged",
                  "type": "uint256"
                },
                {
                  "internalType": "uint256",
                  "name": "taxRefunded",
                  "type": "uint256"
                }
              ],
              "internalType": "struct Market.LotState[]",
              "name": "states",
              "type": "tuple[]"
            }
          ],
          "internalType": "struct Market.Lot",
          "name": "",
          "type": "tuple"
        }
      ],
      "stateMutability": "view",
      "type": "function"
    },
    {
      "inputs": [
        {
          "internalType": "uint256",
          "name": "frameKey",
          "type": "uint256"
        },
        {
          "internalType": "uint256",
          "name": "lotKey",
          "type": "uint256"
        }
      ],
      "name": "getLotStates",
      "outputs": [
        {
          "components": [
            {
              "internalType": "uint256",
              "name": "blockNumber",
              "type": "uint256"
            },
            {
              "internalType": "uint256",
              "name": "blockTimestamp",
              "type": "uint256"
            },
            {
              "internalType": "address",
              "name": "owner",
              "type": "address"
            },
            {
              "internalType": "uint256",
              "name": "acquisitionPrice",
              "type": "uint256"
            },
            {
              "internalType": "uint256",
              "name": "taxCharged",
              "type": "uint256"
            },
            {
              "internalType": "uint256",
              "name": "taxRefunded",
              "type": "uint256"
            }
          ],
          "internalType": "struct Market.LotState[]",
          "name": "",
          "type": "tuple[]"
        }
      ],
      "stateMutability": "view",
      "type": "function"
    },
    {
      "inputs": [],
      "name": "getLotsArray",
      "outputs": [
        {
          "internalType": "uint256[]",
          "name": "",
          "type": "uint256[]"
        }
      ],
      "stateMutability": "view",
      "type": "function"
    },
    {
      "inputs": [],
      "name": "getLotsArrayLength",
      "outputs": [
        {
          "internalType": "uint256",
          "name": "",
          "type": "uint256"
        }
      ],
      "stateMutability": "view",
      "type": "function"
    },
    {
      "inputs": [
        {
          "internalType": "uint256",
          "name": "frameKey",
          "type": "uint256"
        }
      ],
      "name": "getLotsKeysInFrame",
      "outputs": [
        {
          "internalType": "uint256[]",
          "name": "",
          "type": "uint256[]"
        }
      ],
      "stateMutability": "view",
      "type": "function"
    },
    {
      "inputs": [
        {
          "internalType": "uint256",
          "name": "frameKey",
          "type": "uint256"
        }
      ],
      "name": "getLotsLength",
      "outputs": [
        {
          "internalType": "uint256",
          "name": "",
          "type": "uint256"
        }
      ],
      "stateMutability": "view",
      "type": "function"
    },
    {
      "inputs": [
        {
          "internalType": "uint256",
          "name": "frameKey",
          "type": "uint256"
        }
      ],
      "name": "getStateFrame",
      "outputs": [
        {
          "internalType": "enum Market.SFrame",
          "name": "",
          "type": "uint8"
        }
      ],
      "stateMutability": "view",
      "type": "function"
    },
    {
      "inputs": [
        {
          "internalType": "uint256",
          "name": "frameKey",
          "type": "uint256"
        },
        {
          "internalType": "uint256",
          "name": "lotKey",
          "type": "uint256"
        }
      ],
      "name": "getStateLot",
      "outputs": [
        {
          "internalType": "enum Market.SLot",
          "name": "",
          "type": "uint8"
        }
      ],
      "stateMutability": "view",
      "type": "function"
    },
    {
      "inputs": [],
      "name": "getUncollectedRewards",
      "outputs": [
        {
          "internalType": "uint256",
          "name": "",
          "type": "uint256"
        }
      ],
      "stateMutability": "view",
      "type": "function"
    },
    {
      "inputs": [
        {
          "internalType": "address",
          "name": "user",
          "type": "address"
        },
        {
          "internalType": "uint256",
          "name": "frameKey",
          "type": "uint256"
        }
      ],
      "name": "getUserReward",
      "outputs": [
        {
          "internalType": "uint256",
          "name": "",
          "type": "uint256"
        }
      ],
      "stateMutability": "view",
      "type": "function"
    },
    {
      "inputs": [],
      "name": "getUsersArrayLength",
      "outputs": [
        {
          "internalType": "uint256",
          "name": "",
          "type": "uint256"
        }
      ],
      "stateMutability": "view",
      "type": "function"
    },
    {
      "inputs": [],
      "name": "initTimestamp",
      "outputs": [
        {
          "internalType": "uint256",
          "name": "",
          "type": "uint256"
        }
      ],
      "stateMutability": "view",
      "type": "function"
    },
    {
      "inputs": [
        {
          "internalType": "uint256",
          "name": "",
          "type": "uint256"
        },
        {
          "internalType": "uint256",
          "name": "",
          "type": "uint256"
        }
      ],
      "name": "lots",
      "outputs": [
        {
          "internalType": "uint256",
          "name": "frameKey",
          "type": "uint256"
        },
        {
          "internalType": "uint256",
          "name": "lotKey",
          "type": "uint256"
        }
      ],
      "stateMutability": "view",
      "type": "function"
    },
    {
      "inputs": [
        {
          "internalType": "uint256",
          "name": "",
          "type": "uint256"
        }
      ],
      "name": "lotsArray",
      "outputs": [
        {
          "internalType": "uint256",
          "name": "",
          "type": "uint256"
        }
      ],
      "stateMutability": "view",
      "type": "function"
    },
    {
      "inputs": [
        {
          "components": [
            {
              "internalType": "uint256",
              "name": "frameKey",
              "type": "uint256"
            },
            {
              "internalType": "uint256",
              "name": "rate",
              "type": "uint256"
            },
            {
              "internalType": "uint256[]",
              "name": "lotKeys",
              "type": "uint256[]"
            },
            {
              "internalType": "address",
              "name": "claimedBy",
              "type": "address"
            },
            {
              "internalType": "uint256",
              "name": "rateSettle",
              "type": "uint256"
            },
            {
              "internalType": "uint256",
              "name": "feeSettle",
              "type": "uint256"
            },
            {
              "internalType": "uint256",
              "name": "rewardSettle",
              "type": "uint256"
            },
            {
              "internalType": "uint256",
              "name": "feeReferral",
              "type": "uint256"
            }
          ],
          "internalType": "struct Market.Frame",
          "name": "frame",
          "type": "tuple"
        },
        {
          "internalType": "uint256",
          "name": "avgPrice",
          "type": "uint256"
        }
      ],
      "name": "overrideFrameRate",
      "outputs": [],
      "stateMutability": "nonpayable",
      "type": "function"
    },
    {
      "inputs": [],
      "name": "owner",
      "outputs": [
        {
          "internalType": "address",
          "name": "",
          "type": "address"
        }
      ],
      "stateMutability": "view",
      "type": "function"
    },
    {
      "inputs": [],
      "name": "period",
      "outputs": [
        {
          "internalType": "uint256",
          "name": "",
          "type": "uint256"
        }
      ],
      "stateMutability": "view",
      "type": "function"
    },
    {
      "inputs": [],
      "name": "referralPct",
      "outputs": [
        {
          "internalType": "uint256",
          "name": "",
          "type": "uint256"
        }
      ],
      "stateMutability": "view",
      "type": "function"
    },
    {
      "inputs": [
        {
          "internalType": "address",
          "name": "user",
          "type": "address"
        }
      ],
      "name": "referredBy",
      "outputs": [
        {
          "internalType": "address",
          "name": "",
          "type": "address"
        }
      ],
      "stateMutability": "view",
      "type": "function"
    },
    {
      "inputs": [
        {
          "internalType": "uint256",
          "name": "frameKey",
          "type": "uint256"
        }
      ],
      "name": "setFrameRate",
      "outputs": [],
      "stateMutability": "nonpayable",
      "type": "function"
    },
    {
      "inputs": [
        {
          "internalType": "uint256",
          "name": "frameKey",
          "type": "uint256"
        }
      ],
      "name": "settleFrame",
      "outputs": [
        {
          "internalType": "uint256",
          "name": "",
          "type": "uint256"
        }
      ],
      "stateMutability": "nonpayable",
      "type": "function"
    },
    {
      "inputs": [],
      "name": "tSettle",
      "outputs": [
        {
          "internalType": "uint256",
          "name": "",
          "type": "uint256"
        }
      ],
      "stateMutability": "view",
      "type": "function"
    },
    {
      "inputs": [],
      "name": "taxMarket",
      "outputs": [
        {
          "internalType": "uint256",
          "name": "",
          "type": "uint256"
        }
      ],
      "stateMutability": "view",
      "type": "function"
    },
    {
      "inputs": [
        {
          "internalType": "uint256",
          "name": "timestamp",
          "type": "uint256"
        },
        {
          "internalType": "uint256",
          "name": "rate",
          "type": "uint256"
        },
        {
          "internalType": "uint256",
          "name": "acquisitionPrice",
          "type": "uint256"
        },
        {
          "internalType": "address",
          "name": "referrer",
          "type": "address"
        }
      ],
      "name": "tradeLot",
      "outputs": [],
      "stateMutability": "nonpayable",
      "type": "function"
    },
    {
      "inputs": [],
      "name": "uniswapPool",
      "outputs": [
        {
          "internalType": "contract IUniswapV3Pool",
          "name": "",
          "type": "address"
        }
      ],
      "stateMutability": "view",
      "type": "function"
    },
    {
      "inputs": [
        {
          "internalType": "address",
          "name": "user",
          "type": "address"
        }
      ],
      "name": "userExists",
      "outputs": [
        {
          "internalType": "bool",
          "name": "",
          "type": "bool"
        }
      ],
      "stateMutability": "view",
      "type": "function"
    },
    {
      "inputs": [
        {
          "internalType": "address",
          "name": "",
          "type": "address"
        }
      ],
      "name": "users",
      "outputs": [
        {
          "internalType": "bool",
          "name": "exists",
          "type": "bool"
        },
        {
          "internalType": "address",
          "name": "referredBy",
          "type": "address"
        }
      ],
      "stateMutability": "view",
      "type": "function"
    },
    {
      "inputs": [
        {
          "internalType": "uint256",
          "name": "",
          "type": "uint256"
        }
      ],
      "name": "usersArray",
      "outputs": [
        {
          "internalType": "address",
          "name": "",
          "type": "address"
        }
      ],
      "stateMutability": "view",
      "type": "function"
    },
    {
      "inputs": [
        {
          "internalType": "uint256",
          "name": "amount",
          "type": "uint256"
        }
      ],
      "name": "withdrawAccountingToken",
      "outputs": [],
      "stateMutability": "nonpayable",
      "type": "function"
    }
  ],
  "bytecode": "0x608060405262015180600055636592e180600155666a94d74f430000600255610258600355600480546001600160a01b03199081167367a9fe12fa6082d9d0203c84c6c56d3c4b269f281790915568056bc75e2d63100000600555662386f26fc1000060065560078054909116738f3cf7ad23cd3cadbd9735aff958023239c6a0631790556611c37937e0800060095534801561009b57600080fd5b50600880546001600160a01b03191633179055614659806100bd6000396000f3fe608060405234801561001057600080fd5b506004361061027f5760003560e01c806391a0846d1161015c578063bad12653116100ce578063e107fb4f11610087578063e107fb4f146106a0578063ed320aa8146106b3578063ef78d4fd146106bb578063fb0d5e09146106c4578063ffdabe2d146106e4578063ffde5862146106f757600080fd5b8063bad126531461062c578063bdd3d8251461064c578063c0423f2e1461065f578063d18743dd14610667578063d8d500081461067a578063da68cf8b1461068d57600080fd5b8063a87430ba11610120578063a87430ba14610534578063a90f8e9a14610586578063b866debb146105b7578063b93dafa9146105ca578063ba4e137f14610611578063ba52f3421461061957600080fd5b806391a0846d1461045a5780639592de181461046d5780639e9c4f0814610480578063a10340bc14610489578063a73482f61461052157600080fd5b80634c73884f116101f55780637358c57a116101b95780637358c57a146103e9578063773d51eb146103f25780637e996639146104125780638a5779c81461041b5780638da5cb5b146104245780638edc6a2c1461043757600080fd5b80634c73884f1461037a578063527eb4bc1461039a57806361eee2cb146103a357806369ca9e05146103b65780636f1aefc3146103c957600080fd5b8063197c4e7811610247578063197c4e78146103185780632457e620146102b45780632fae35c01461032057806339a6a4891461034b5780633baf15871461035e578063499a0fc41461037157600080fd5b8063050e88401461028457806305eaab4b146102aa5780630d0a1c1a146102b45780630e666e49146102d45780631123581814610310575b600080fd5b610297610292366004613b83565b6106ff565b6040519081526020015b60405180910390f35b6102b2610720565b005b6102c76102c2366004613b83565b610a7a565b6040516102a19190613b9c565b6103006102e2366004613c05565b6001600160a01b03166000908152600c602052604090205460ff1690565b60405190151581526020016102a1565b610297610adf565b600f54610297565b61033361032e366004613b83565b610cfb565b6040516001600160a01b0390911681526020016102a1565b610297610359366004613b83565b610d25565b6102b261036c366004613b83565b610ef2565b61029760055481565b61038d610388366004613c29565b61102f565b6040516102a19190613c61565b61029760025481565b6102976103b1366004613b83565b61115c565b6102b26103c4366004613d7b565b611193565b6103dc6103d7366004613c29565b61128f565b6040516102a19190613eba565b61029760015481565b610405610400366004613b83565b6113e6565b6040516102a19190613ee9565b61029760065481565b61029760035481565b600854610333906001600160a01b031681565b610297610445366004613b83565b6000908152600a602052604090206002015490565b610297610468366004613f95565b611522565b61029761047b366004613b83565b611587565b61029760095481565b6104de610497366004613b83565b600a602052600090815260409020805460018201546003830154600484015460058501546006860154600790960154949593946001600160a01b0390931693919290919087565b6040805197885260208801969096526001600160a01b03909416948601949094526060850191909152608084015260a083019190915260c082015260e0016102a1565b61029761052f366004613c29565b6115b2565b610567610542366004613c05565b600c6020526000908152604090205460ff81169061010090046001600160a01b031682565b6040805192151583526001600160a01b039091166020830152016102a1565b610333610594366004613c05565b6001600160a01b039081166000908152600c602052604090205461010090041690565b6102976105c5366004613b83565b61167c565b6105fc6105d8366004613c29565b600e6020908152600092835260408084209091529082529020805460019091015482565b604080519283526020830191909152016102a1565b610297611bc9565b610297610627366004613b83565b611c98565b61063f61063a366004613b83565b611ca8565b6040516102a19190613fc1565b600454610333906001600160a01b031681565b6102c7611d3f565b6102b2610675366004613b83565b611d97565b6102b2610688366004613fd5565b611e7f565b600754610333906001600160a01b031681565b6102976106ae366004613c29565b611fbd565b600b54610297565b61029760005481565b6106d76106d2366004613c29565b61207f565b6040516102a19190614016565b6102976106f2366004613b83565b612135565b600d54610297565b600b818154811061070f57600080fd5b600091825260209091200154905081565b336000908152600c602052604090205460ff166107585760405162461bcd60e51b815260040161074f90614029565b60405180910390fd5b600b5460009067ffffffffffffffff81111561077657610776613c7b565b60405190808252806020026020018201604052801561079f578160200160208202803683370190505b5090506000805b600b548110156108495760046107d8600b83815481106107c8576107c8614056565b9060005260206000200154611ca8565b60048111156107e9576107e9613c4b565b0361083757600b818154811061080157610801614056565b906000526020600020015483838151811061081e5761081e614056565b60209081029190910101528161083381614082565b9250505b8061084181614082565b9150506107a6565b506000811161088e5760405162461bcd60e51b81526020600482015260116024820152704e6f20736574746c6564206672616d657360781b604482015260640161074f565b6000805b828110156109b857336000908152600c602052604081208551600290910191908690849081106108c4576108c4614056565b602090810291909101810151825281019190915260400160009081205460ff16151590036109a657336000908152600c6020526040812085516001909101919086908490811061091657610916614056565b602002602001015181526020019081526020016000205482610938919061409b565b91506001600c6000336001600160a01b03166001600160a01b03168152602001908152602001600020600201600086848151811061097857610978614056565b6020026020010151815260200190815260200160002060006101000a81548160ff0219169083151502179055505b806109b081614082565b915050610892565b50600081116109ff5760405162461bcd60e51b81526020600482015260136024820152724e6f207265776172647320746f20636c61696d60681b604482015260640161074f565b60075460405163a9059cbb60e01b8152336004820152602481018390526001600160a01b039091169063a9059cbb906044016020604051808303816000875af1158015610a50573d6000803e3d6000fd5b505050506040513d601f19601f82011682018060405250810190610a7491906140be565b50505050565b6000818152600a6020908152604091829020600201805483518184028101840190945280845260609392830182828015610ad357602002820191906000526020600020905b815481526020019060010190808311610abf575b50505050509050919050565b336000908152600c602052604081205460ff16610b0e5760405162461bcd60e51b815260040161074f90614029565b600b5460009067ffffffffffffffff811115610b2c57610b2c613c7b565b604051908082528060200260200182016040528015610b55578160200160208202803683370190505b5090506000805b600b54811015610bef576004610b7e600b83815481106107c8576107c8614056565b6004811115610b8f57610b8f613c4b565b03610bdd57600b8181548110610ba757610ba7614056565b9060005260206000200154838381518110610bc457610bc4614056565b602090810291909101015281610bd981614082565b9250505b80610be781614082565b915050610b5c565b5060008111610c345760405162461bcd60e51b81526020600482015260116024820152704e6f20736574746c6564206672616d657360781b604482015260640161074f565b6000805b82811015610cf357336000908152600c60205260408120855160029091019190869084908110610c6a57610c6a614056565b602090810291909101810151825281019190915260400160009081205460ff1615159003610ce157336000908152600c60205260408120855160019091019190869084908110610cbc57610cbc614056565b602002602001015181526020019081526020016000205482610cde919061409b565b91505b80610ceb81614082565b915050610c38565b509392505050565b600d8181548110610d0b57600080fd5b6000918252602090912001546001600160a01b0316905081565b600080805b6000848152600a6020526040902060020154811015610eeb576000848152600a6020818152604080842080548552600e835290842088855292909152600201805483919085908110610d7e57610d7e614056565b90600052602060002001548152602001908152602001600020604051806060016040529081600082015481526020016001820154815260200160028201805480602002602001604051908101604052809291908181526020016000905b82821015610e4c5760008481526020908190206040805160c08101825260068602909201805483526001808201548486015260028201546001600160a01b03169284019290925260038101546060840152600481015460808401526005015460a08301529083529092019101610ddb565b5050505081525050905060005b816040015151811015610ed65781604001518181518110610e7c57610e7c614056565b60200260200101516080015184610e93919061409b565b935081604001518181518110610eab57610eab614056565b602002602001015160a0015184610ec291906140d9565b935080610ece81614082565b915050610e59565b50508080610ee390614082565b915050610d2a565b5092915050565b610f3360405180604001604052806012815260200171333930b6b2a5b2bc9015903832b934b7b21d60711b81525060005483610f2e919061409b565b61237b565b610f656040518060400160405280601081526020016f313637b1b5973a34b6b2b9ba30b6b81d60811b8152504261237b565b60008054828252600a6020526040909120544291610f829161409b565b1115610fd05760405162461bcd60e51b815260206004820152601b60248201527f4672616d652068617320746f20626520696e2074686520706173740000000000604482015260640161074f565b6000610fdb82612135565b6000838152600a6020526040908190206001810183905590519192507f929af310c689982c60d4ec73c6e4b602e89c6f6a31da7c2df4888fb0627cb2b1916110239190614121565b60405180910390a15050565b6000828152600e60209081526040808320848452909152812060010154810361105a57506000611156565b600061106584611ca8565b600481111561107657611076613c4b565b0361108357506000611156565b600161108e84611ca8565b600481111561109f5761109f613c4b565b14806110c4575060026110b184611ca8565b60048111156110c2576110c2613c4b565b145b156110d157506001611156565b6000838152600e602090815260408083208584528252808320600190810154878552600a9093529220909101541080159061114557506005546000848152600e60209081526040808320868452909152902060010154611131919061409b565b6000848152600a6020526040902060010154105b1561115257506002611156565b5060035b92915050565b6000600154821161116f57505060015490565b60005460015461117f90846140d9565b61118991906141a9565b61115690836140d9565b6008546001600160a01b031633146111fd5760405162461bcd60e51b815260206004820152602760248201527f4f6e6c79206f776e65722063616e20757064617465206672616d6520636c6f736044820152666520707269636560c81b606482015260840161074f565b815160000361121e5760405162461bcd60e51b815260040161074f906141bd565b60608201516001600160a01b0316156112795760405162461bcd60e51b815260206004820181905260248201527f4672616d65207265776172642077617320616c726561647920636c61696d6564604482015260640161074f565b90516000908152600a6020526040902060010155565b6112b360405180606001604052806000815260200160008152602001606081525090565b6000838152600e6020908152604080832085845290915281206001015490036113125760405162461bcd60e51b8152602060048201526011602482015270131bdd08191bd95cdb89dd08195e1a5cdd607a1b604482015260640161074f565b6000838152600e602090815260408083208584528252808320815160608101835281548152600182015481850152600282018054845181870281018701865281815292969395948701949293919290919084015b828210156113d75760008481526020908190206040805160c08101825260068602909201805483526001808201548486015260028201546001600160a01b03169284019290925260038101546060840152600481015460808401526005015460a08301529083529092019101611366565b50505091525090949350505050565b61143760405180610100016040528060008152602001600081526020016060815260200160006001600160a01b03168152602001600081526020016000815260200160008152602001600081525090565b6000828152600a602052604081205490036114645760405162461bcd60e51b815260040161074f906141bd565b6000828152600a602090815260409182902082516101008101845281548152600182015481840152600282018054855181860281018601875281815292959394938601938301828280156114d757602002820191906000526020600020905b8154815260200190600101908083116114c3575b505050918352505060038201546001600160a01b0316602082015260048201546040820152600582015460608201526006820154608082015260079091015460a09091015292915050565b6001600160a01b0382166000908152600c602052604081205460ff1661155a5760405162461bcd60e51b815260040161074f90614029565b506001600160a01b03919091166000908152600c6020908152604080832093835260019093019052205490565b600060055482101561159b57505060055490565b6005546115a881846141ea565b61115691906141fe565b60006115c3826402540be4006141fe565b91506115fc6040518060400160405280601581526020017429a7a61021a7a721a0aa1d10333930b6b2a5b2bc9d60591b8152508461237b565b6116316040518060400160405280601381526020017229a7a61021a7a721a0aa1d103637ba25b2bc9d60691b8152508361237b565b61163b838361409b565b90506111566040518060400160405280601981526020017f534f4c20434f4e4341543a20636f6e636174656e617465643a000000000000008152508261237b565b6000818152600a602052604081205481036116a95760405162461bcd60e51b815260040161074f906141bd565b60036116b483611ca8565b60048111156116c5576116c5613c4b565b1461171e5760405162461bcd60e51b8152602060048201526024808201527f4672616d6520646f6573206e6f742068617665206120636c6f73652072617465604482015263081cd95d60e21b606482015260840161074f565b6000828152600a602052604081206001015461173990611587565b6000848152600e60209081526040808320848452825280832081516060810183528154815260018201548185015260028201805484518187028101870186528181529798509596919592949386019391929091879084015b828210156118025760008481526020908190206040805160c08101825260068602909201805483526001808201548486015260028201546001600160a01b03169284019290925260038101546060840152600481015460808401526005015460a08301529083529092019101611791565b50505050815250509050600061181785610d25565b90506000670de0b6b3a76400006002548361183291906141fe565b61183c91906141ea565b6000878152600a60205260409020600581018290556007015490915061186282846140d9565b61186c91906140d9565b6000878152600a602052604090819020600601919091558301515115611a3b57600754604084015180516001600160a01b039092169163a9059cbb91906118b5906001906140d9565b815181106118c5576118c5614056565b602002602001015160400151600a60008a8152602001908152602001600020600601546040518363ffffffff1660e01b81526004016119199291906001600160a01b03929092168252602082015260400190565b6020604051808303816000875af1158015611938573d6000803e3d6000fd5b505050506040513d601f19601f8201168201806040525081019061195c91906140be565b5060408301518051611970906001906140d9565b8151811061198057611980614056565b6020908102919091018101516040908101516000898152600a909352918190206003810180546001600160a01b0319166001600160a01b03948516179055600754600854600590920154925163a9059cbb60e01b81529184166004830152602482019290925291169063a9059cbb906044016020604051808303816000875af1158015611a11573d6000803e3d6000fd5b505050506040513d601f19601f82011682018060405250810190611a3591906140be565b50611b19565b6007546008546000888152600a6020526040902060058101546006909101546001600160a01b039384169363a9059cbb931691611a779161409b565b6040516001600160e01b031960e085901b1681526001600160a01b03909216600483015260248201526044016020604051808303816000875af1158015611ac2573d6000803e3d6000fd5b505050506040513d601f19601f82011682018060405250810190611ae691906140be565b506008546000878152600a6020526040902060030180546001600160a01b0319166001600160a01b039092169190911790555b6000868152600a6020526040908190206001810154600490910155517f906ff162b3f2709ab28fb678d43913964434148dd206e9b17adb3c1255090cb190611b62908590613eba565b60405180910390a16000868152600a60205260409081902090517f929af310c689982c60d4ec73c6e4b602e89c6f6a31da7c2df4888fb0627cb2b191611ba791614121565b60405180910390a150505060009283525050600a602052604090206006015490565b6004805460408051633850c7bd60e01b8152905160009384936001600160a01b031692633850c7bd928183019260e0928290030181865afa158015611c12573d6000803e3d6000fd5b505050506040513d601f19601f82011682018060405250810190611c369190614227565b50505050505090506000816001600160a01b031690506000600160601b82670de0b6b3a7640000611c6791906141fe565b611c7191906141ea565b9050670de0b6b3a7640000611c8682806141fe565b611c9091906141ea565b949350505050565b600f818154811061070f57600080fd5b6000818152600a60205260408120548103611cc557506000919050565b6000828152600a60205260409020600301546001600160a01b031615611ced57506004919050565b60008054838252600a602052604090912054611d09919061409b565b421015611d1857506001919050565b6000828152600a602052604090206001015415611d3757506003919050565b506002919050565b6060600f805480602002602001604051908101604052809291908181526020018280548015611d8d57602002820191906000526020600020905b815481526020019060010190808311611d79575b5050505050905090565b6008546001600160a01b03163314611e025760405162461bcd60e51b815260206004820152602860248201527f4f6e6c79206f776e65722063616e207769746864726177206163636f756e74696044820152673733903a37b5b2b760c11b606482015260840161074f565b60075460085460405163a9059cbb60e01b81526001600160a01b0391821660048201526024810184905291169063a9059cbb906044016020604051808303816000875af1158015611e57573d6000803e3d6000fd5b505050506040513d601f19601f82011682018060405250810190611e7b91906140be565b5050565b6000611e8a8561115c565b90506000611e9785611587565b6000838152600e6020908152604080832084845290915281206001015491925003611eef576000828152600a60205260408120549003611edc57611eda866123c0565b505b611ee8828286866124fd565b5050610a74565b6000828152600e6020908152604080832084845290915290206002018054339190611f1c906001906140d9565b81548110611f2c57611f2c614056565b60009182526020909120600260069092020101546001600160a01b031603611f5957611ee882828661293f565b611f6582828686612d9b565b6000828152600e602090815260408083208484529091529081902090517f906ff162b3f2709ab28fb678d43913964434148dd206e9b17adb3c1255090cb191611fad916142c1565b60405180910390a1505050505050565b60004260005484611fce919061409b565b1161201b5760405162461bcd60e51b815260206004820152601d60248201527f4672616d652068617320746f20626520696e2074686520667574757265000000604482015260640161074f565b6000805460065461202c91906141ea565b90506000426000548661203f919061409b565b61204991906140d9565b90506000670de0b6b3a76400008561206185856141fe565b61206b91906141fe565b61207591906141ea565b9695505050505050565b6000828152600e602090815260408083208484528252808320600201805482518185028101850190935280835260609492939192909184015b828210156121295760008481526020908190206040805160c08101825260068602909201805483526001808201548486015260028201546001600160a01b03169284019290925260038101546060840152600481015460808401526005015460a083015290835290920191016120b8565b50505050905092915050565b600080600354834261214791906140d9565b612151919061409b565b9050600061215f84426140d9565b6040805160028082526060820183529293506000929091602083019080368337019050509050828160008151811061219957612199614056565b602002602001019063ffffffff16908163ffffffff168152505081816001815181106121c7576121c7614056565b63ffffffff909216602092830291909101909101526004805460405163883bdbfd60e01b81526000926001600160a01b039092169163883bdbfd9161220e9186910161436f565b600060405180830381865afa15801561222b573d6000803e3d6000fd5b505050506040513d6000823e601f3d908101601f191682016040526122539190810190614411565b50905060008160008151811061226b5761226b614056565b602002602001015160060b8260018151811061228957612289614056565b602002602001015160060b61229e91906144dd565b905060008112156122e75760405162461bcd60e51b81526020600482015260136024820152724e65676174697665207469636b2064656c746160681b604482015260640161074f565b8060006122fd63ffffffff8088169089166140d9565b9050600061230b82846141ea565b905060006123188261334d565b9050600061233666010000000000006001600160a01b0384166141ea565b9050600061234482806141fe565b90506000600160601b61235f83670de0b6b3a76400006141fe565b61236991906141ea565b9e9d5050505050505050505050505050565b611e7b82826040516024016123919291906144fd565b60408051601f198184030181529190526020810180516001600160e01b0316632d839cb360e21b179052613730565b6000806123cc8361115c565b6000818152600a6020526040902054909150156124225760405162461bcd60e51b81526020600482015260146024820152734672616d6520616c72656164792065786973747360601b604482015260640161074f565b4260005482612431919061409b565b101561247f5760405162461bcd60e51b815260206004820152601d60248201527f4672616d652068617320746f20626520696e2074686520667574757265000000604482015260640161074f565b6000818152600a602052604090819020828155600b8054600181019091557f0175b7a638427703f0dbe7bb9bbf987a2551717b34e79f33b5b1008d1fa01db90183905590517f929af310c689982c60d4ec73c6e4b602e89c6f6a31da7c2df4888fb0627cb2b1916124ef91614121565b60405180910390a192915050565b60006125098584611fbd565b90506000811161252b5760405162461bcd60e51b815260040161074f90614552565b600754604051636eb1769f60e11b815233600482015230602482015282916001600160a01b03169063dd62ed3e90604401602060405180830381865afa158015612579573d6000803e3d6000fd5b505050506040513d601f19601f8201168201806040525081019061259d91906145af565b10156125bb5760405162461bcd60e51b815260040161074f906145c8565b7f161bcca7119915b50764b4abe86529797775a5f1719510000000000000000000841061261c5760405162461bcd60e51b815260206004820152600f60248201526e4c6f74206b657920746f6f2062696760881b604482015260640161074f565b6000858152600e602090815260408083208784529091529020600101541561267b5760405162461bcd60e51b81526020600482015260126024820152714c6f7420616c72656164792065786973747360701b604482015260640161074f565b6040805160c081018252438152426020808301918252338385019081526060840188815260808501878152600060a087018181528d8252600e86528882208d835286529781208d815560018082018e90556002808301805480840182558186529885208b516006909a0201988955985191880191909155945194860180546001600160a01b0319166001600160a01b03909616959095179094559151600385015551600484015594516005909201919091559287905280549192918291829161274691908190613a9d565b509050506127786040518060400160405280600c81526020016b29a7a61d103637ba35b2bc9d60a11b8152508761237b565b6127a86040518060400160405280600e81526020016d29a7a61d10333930b6b2a5b2bc9d60911b8152508861237b565b60006127b488886115b2565b90506127ea6040518060400160405280601281526020017129a7a61d103637ba25b2bca1b7b731b0ba1d60711b8152508261237b565b600f805460018181019092557f8d1108e10bcb7c27dddfc02ed9d693a074039d026cf4ea4240b40f7d581ac802018290556000898152600a60209081526040808320868501546002909101805495860181558452919092209092019190915560075490516323b872dd60e01b81526001600160a01b03909116906323b872dd9061287c903390309089906004016145ff565b6020604051808303816000875af115801561289b573d6000803e3d6000fd5b505050506040513d601f19601f820116820180604052508101906128bf91906140be565b50336000908152600c602052604090205460ff166128e0576128e08561373c565b336000908152600c60205260408082205461010090046001600160a01b0316825290205460ff161561293557336000908152600c60205260409020546129359061010090046001600160a01b0316858a6138f9565b5050505050505050565b6000838152600e602090815260408083208584529091528120600201805461299691869161296f906001906140d9565b8154811061297f5761297f614056565b906000526020600020906006020160030154611fbd565b905060006129a48584611fbd565b905080821115612b895760006129ba82846140d9565b6007546000888152600e602090815260408083208a8452909152902060020180549293506001600160a01b039091169163a9059cbb91906129fd906001906140d9565b81548110612a0d57612a0d614056565b600091825260209091206006909102016002015460405160e083901b6001600160e01b03191681526001600160a01b039091166004820152602481018490526044016020604051808303816000875af1158015612a6e573d6000803e3d6000fd5b505050506040513d601f19601f82011682018060405250810190612a9291906140be565b506000868152600e602090815260408083208884528252808320815160c0810183524381524281850190815233828501818152606084018c81526080850189815260a086018b81526002978801805460018082018355918d528b8d2098516006909102909801978855955195870195909555915195850180546001600160a01b0319166001600160a01b0397881617905551600385015551600484015590516005909201919091558452600c909252808320546101009004909116825290205460ff1615612b8357336000908152600c6020526040902054612b839061010090046001600160a01b031682886139c0565b50612d94565b6000612b9583836140d9565b600754604051636eb1769f60e11b815233600482015230602482015291925082916001600160a01b039091169063dd62ed3e90604401602060405180830381865afa158015612be8573d6000803e3d6000fd5b505050506040513d601f19601f82011682018060405250810190612c0c91906145af565b1015612c2a5760405162461bcd60e51b815260040161074f906145c8565b6007546040516323b872dd60e01b81526001600160a01b03909116906323b872dd90612c5e903390309086906004016145ff565b6020604051808303816000875af1158015612c7d573d6000803e3d6000fd5b505050506040513d601f19601f82011682018060405250810190612ca191906140be565b506000868152600e602090815260408083208884528252808320815160c0810183524381524281850190815233828501818152606084018c8152608085018a815260a086018a81526002978801805460018082018355918d528b8d2098516006909102909801978855955195870195909555915195850180546001600160a01b0319166001600160a01b0397881617905551600385015551600484015590516005909201919091558452600c909252808320546101009004909116825290205460ff1615612d9257336000908152600c6020526040902054612d929061010090046001600160a01b031682886138f9565b505b5050505050565b6000848152600e6020908152604080832086845290915281206002018054612dc5906001906140d9565b81548110612dd557612dd5614056565b600091825260208220600260069092020101546001600160a01b03169150612dfd8685611fbd565b905060008111612e1f5760405162461bcd60e51b815260040161074f90614552565b6000868152600e6020908152604080832088845290915281206002018054612e49906001906140d9565b81548110612e5957612e59614056565b90600052602060002090600602016003015490508082612e79919061409b565b600754604051636eb1769f60e11b81523360048201523060248201526001600160a01b039091169063dd62ed3e90604401602060405180830381865afa158015612ec7573d6000803e3d6000fd5b505050506040513d601f19601f82011682018060405250810190612eeb91906145af565b1015612f095760405162461bcd60e51b815260040161074f906145c8565b6007546040516323b872dd60e01b81526001600160a01b03909116906323b872dd90612f3d903390309087906004016145ff565b6020604051808303816000875af1158015612f5c573d6000803e3d6000fd5b505050506040513d601f19601f82011682018060405250810190612f8091906140be565b506007546040516323b872dd60e01b81526001600160a01b03909116906323b872dd90612fb5903390879086906004016145ff565b6020604051808303816000875af1158015612fd4573d6000803e3d6000fd5b505050506040513d601f19601f82011682018060405250810190612ff891906140be565b506000878152600e6020908152604080832089845290915281206002018054613029918a9161296f906001906140d9565b60075460405163a9059cbb60e01b81526001600160a01b0387811660048301526024820184905292935091169063a9059cbb906044016020604051808303816000875af115801561307e573d6000803e3d6000fd5b505050506040513d601f19601f820116820180604052508101906130a291906140be565b50336000908152600c602052604090205460ff166130c3576130c38561373c565b336000908152600c60205260408082205461010090046001600160a01b0316825290205460ff161561311857336000908152600c60205260409020546131189061010090046001600160a01b0316848a6138f9565b6001600160a01b038085166000908152600c60205260408082205461010090049092168152205460ff1615613173576001600160a01b038085166000908152600c60205260409020546131739161010090910416828a6139c0565b600e600089815260200190815260200160002060008881526020019081526020016000206002016040518060c00160405280438152602001428152602001866001600160a01b0316815260200184815260200160008152602001838152509080600181540180825580915050600190039060005260206000209060060201600090919091909150600082015181600001556020820151816001015560408201518160020160006101000a8154816001600160a01b0302191690836001600160a01b03160217905550606082015181600301556080820151816004015560a082015181600501555050600e600089815260200190815260200160002060008881526020019081526020016000206002016040518060c00160405280438152602001428152602001336001600160a01b0316815260200188815260200185815260200160008152509080600181540180825580915050600190039060005260206000209060060201600090919091909150600082015181600001556020820151816001015560408201518160020160006101000a8154816001600160a01b0302191690836001600160a01b03160217905550606082015181600301556080820151816004015560a0820151816005015550505050505050505050565b600081620d89e88111156133875760405162461bcd60e51b81526020600482015260016024820152601560fa1b604482015260640161074f565b60008160011660000361339e57600160801b6133b0565b6ffffcb933bd6fad37aa2d162d1a5940015b70ffffffffffffffffffffffffffffffffff16905060028216156133ef5760806133ea826ffff97272373d413259a46990580e213a6141fe565b901c90505b6004821615613419576080613414826ffff2e50f5f656932ef12357cf3c7fdcc6141fe565b901c90505b600882161561344357608061343e826fffe5caca7e10e4e61c3624eaa0941cd06141fe565b901c90505b601082161561346d576080613468826fffcb9843d60f6159c9db58835c9266446141fe565b901c90505b6020821615613497576080613492826fff973b41fa98c081472e6896dfb254c06141fe565b901c90505b60408216156134c15760806134bc826fff2ea16466c96a3843ec78b326b528616141fe565b901c90505b60808216156134eb5760806134e6826ffe5dee046a99a2a811c461f1969c30536141fe565b901c90505b610100821615613516576080613511826ffcbe86c7900a88aedcffc83b479aa3a46141fe565b901c90505b61020082161561354157608061353c826ff987a7253ac413176f2b074cf7815e546141fe565b901c90505b61040082161561356c576080613567826ff3392b0822b70005940c7a398e4b70f36141fe565b901c90505b610800821615613597576080613592826fe7159475a2c29b7443b29c7fa6e889d96141fe565b901c90505b6110008216156135c25760806135bd826fd097f3bdfd2022b8845ad8f792aa58256141fe565b901c90505b6120008216156135ed5760806135e8826fa9f746462d870fdf8a65dc1f90e061e56141fe565b901c90505b614000821615613618576080613613826f70d869a156d2a1b890bb3df62baf32f76141fe565b901c90505b61800082161561364357608061363e826f31be135f97d08fd981231505542fcfa66141fe565b901c90505b6201000082161561366f57608061366a826f09aa508b5b7a84e1c677de54f3e99bc96141fe565b901c90505b6202000082161561369a576080613695826e5d6af8dedb81196699c329225ee6046141fe565b901c90505b620400008216156136c45760806136bf826d2216e584f5fa1ea926041bedfe986141fe565b901c90505b620800008216156136ec5760806136e7826b048a170391f7dc42444e8fa26141fe565b901c90505b8315613701576136fe816000196141ea565b90505b613710640100000000826141a9565b1561371c57600161371f565b60005b611c909060ff16602083901c61409b565b61373981613a7c565b50565b336000908152600c602052604090205460ff16156137925760405162461bcd60e51b81526020600482015260136024820152725573657220616c72656164792065786973747360681b604482015260640161074f565b6001600160a01b03811661381b57336000818152600c6020526040812080546001600160a01b0394909416610100026001600160a81b0319909416939093176001908117909355600d8054938401815590527fd7b6990105719101dabeb77144f2a3385c8033acd3af97e9423a695e81ad1eb590910180546001600160a01b0319169091179055565b6001600160a01b0381166000908152600c602052604090205460ff166138835760405162461bcd60e51b815260206004820152601760248201527f526566657272657220646f6573206e6f74206578697374000000000000000000604482015260640161074f565b600d805460018181019092557fd7b6990105719101dabeb77144f2a3385c8033acd3af97e9423a695e81ad1eb50180546001600160a01b031916339081179091556000908152600c6020526040902080546001600160a01b0393909316610100026001600160a81b031990931692909217179055565b6001600160a01b0383166000908152600c602052604090205460ff166139315760405162461bcd60e51b815260040161074f90614029565b6000670de0b6b3a76400006009548461394a91906141fe565b61395491906141ea565b6001600160a01b0385166000908152600c6020908152604080832086845260010190915281208054929350839290919061398f90849061409b565b90915550506000828152600a6020526040812060070180548392906139b590849061409b565b909155505050505050565b6001600160a01b0383166000908152600c602052604090205460ff166139f85760405162461bcd60e51b815260040161074f90614029565b6000670de0b6b3a764000060095484613a1191906141fe565b613a1b91906141ea565b6001600160a01b0385166000908152600c60209081526040808320868452600101909152812080549293508392909190613a569084906140d9565b90915550506000828152600a6020526040812060070180548392906139b59084906140d9565b60006a636f6e736f6c652e6c6f679050600080835160208501845afa505050565b828054828255906000526020600020906006028101928215613b315760005260206000209160060282015b82811115613b3157825482556001808401549083015560028084015490830180546001600160a01b0319166001600160a01b0390921691909117905560038084015490830155600480840154908301556005808401549083015560069283019290910190613ac8565b50613b3d929150613b41565b5090565b5b80821115613b3d576000808255600182018190556002820180546001600160a01b031916905560038201819055600482018190556005820155600601613b42565b600060208284031215613b9557600080fd5b5035919050565b6020808252825182820181905260009190848201906040850190845b81811015613bd457835183529284019291840191600101613bb8565b50909695505050505050565b6001600160a01b038116811461373957600080fd5b8035613c0081613be0565b919050565b600060208284031215613c1757600080fd5b8135613c2281613be0565b9392505050565b60008060408385031215613c3c57600080fd5b50508035926020909101359150565b634e487b7160e01b600052602160045260246000fd5b6020810160048310613c7557613c75613c4b565b91905290565b634e487b7160e01b600052604160045260246000fd5b604051610100810167ffffffffffffffff81118282101715613cb557613cb5613c7b565b60405290565b604051601f8201601f1916810167ffffffffffffffff81118282101715613ce457613ce4613c7b565b604052919050565b600067ffffffffffffffff821115613d0657613d06613c7b565b5060051b60200190565b600082601f830112613d2157600080fd5b81356020613d36613d3183613cec565b613cbb565b82815260059290921b84018101918181019086841115613d5557600080fd5b8286015b84811015613d705780358352918301918301613d59565b509695505050505050565b60008060408385031215613d8e57600080fd5b823567ffffffffffffffff80821115613da657600080fd5b908401906101008287031215613dbb57600080fd5b613dc3613c91565b8235815260208301356020820152604083013582811115613de357600080fd5b613def88828601613d10565b604083015250613e0160608401613bf5565b60608201526080830135608082015260a083013560a082015260c083013560c082015260e083013560e0820152809450505050602083013590509250929050565b600081518084526020808501945080840160005b83811015613eaf5781518051885283810151848901526040808201516001600160a01b031690890152606080820151908901526080808201519089015260a0908101519088015260c09096019590820190600101613e56565b509495945050505050565b60208152815160208201526020820151604082015260006040830151606080840152611c906080840182613e42565b6000602080835261012083018451828501528185015160408501526040850151610100806060870152828251808552610140880191508584019450600093505b80841015613f495784518252938501936001939093019290850190613f29565b5060608801516001600160a01b03811660808901529450608088015160a088015260a088015160c088015260c088015160e088015260e088015182880152809550505050505092915050565b60008060408385031215613fa857600080fd5b8235613fb381613be0565b946020939093013593505050565b6020810160058310613c7557613c75613c4b565b60008060008060808587031215613feb57600080fd5b843593506020850135925060408501359150606085013561400b81613be0565b939692955090935050565b602081526000613c226020830184613e42565b602080825260139082015272155cd95c88191bd95cc81b9bdd08195e1a5cdd606a1b604082015260600190565b634e487b7160e01b600052603260045260246000fd5b634e487b7160e01b600052601160045260246000fd5b6000600182016140945761409461406c565b5060010190565b808201808211156111565761115661406c565b80518015158114613c0057600080fd5b6000602082840312156140d057600080fd5b613c22826140ae565b818103818111156111565761115661406c565b6000815480845260208085019450836000528060002060005b83811015613eaf57815487529582019560019182019101614105565b60208152815460208201526001820154604082015260006101008060608401526141526101208401600286016140ec565b60038501546001600160a01b03166080850152600485015460a0850152600585015460c0850152600685015460e08501526007909401549201919091525090565b634e487b7160e01b600052601260045260246000fd5b6000826141b8576141b8614193565b500690565b602080825260139082015272119c985b5948191bd95cdb89dd08195e1a5cdd606a1b604082015260600190565b6000826141f9576141f9614193565b500490565b80820281158282048414176111565761115661406c565b805161ffff81168114613c0057600080fd5b600080600080600080600060e0888a03121561424257600080fd5b875161424d81613be0565b8097505060208801518060020b811461426557600080fd5b955061427360408901614215565b945061428160608901614215565b935061428f60808901614215565b925060a088015160ff811681146142a557600080fd5b91506142b360c089016140ae565b905092959891949750929550565b6000602080835260808084018554838601526001808701546040818189015260029150818901606080818b015285825480885260a09750878c0191508360005289600020935060005b8181101561435d5784548352878501548b840152868501546001600160a01b03168684015260038501548484015260048501548a84015260058501548984015260069094019360c090920191870161430a565b50909c9b505050505050505050505050565b6020808252825182820181905260009190848201906040850190845b81811015613bd457835163ffffffff168352928401929184019160010161438b565b600082601f8301126143be57600080fd5b815160206143ce613d3183613cec565b82815260059290921b840181019181810190868411156143ed57600080fd5b8286015b84811015613d7057805161440481613be0565b83529183019183016143f1565b6000806040838503121561442457600080fd5b825167ffffffffffffffff8082111561443c57600080fd5b818501915085601f83011261445057600080fd5b81516020614460613d3183613cec565b82815260059290921b8401810191818101908984111561447f57600080fd5b948201945b838610156144ad5785518060060b811461449e5760008081fd5b82529482019490820190614484565b918801519196509093505050808211156144c657600080fd5b506144d3858286016143ad565b9150509250929050565b8181036000831280158383131683831282161715610eeb57610eeb61406c565b604081526000835180604084015260005b8181101561452b576020818701810151606086840101520161450e565b506000606082850101526060601f19601f8301168401019150508260208301529392505050565b6020808252603c908201527f5461782068617320746f2062652067726561746572207468616e20302e20496e60408201527f63726561736520746865206163717569736974696f6e20707269636500000000606082015260800190565b6000602082840312156145c157600080fd5b5051919050565b6020808252601e908201527f416c6c6f77616e636520746f207370656e642073657420746f6f206c6f770000604082015260600190565b6001600160a01b03938416815291909216602082015260408101919091526060019056fea2646970667358221220843f6505e4909338dc586f169394463ba814e4954dc8a6911f6371a68c0592d364736f6c63430008140033",
  "linkReferences": {},
  "deployedLinkReferences": {}
}