{
  "_format": "hh-sol-artifact-1",
  "contractName": "Market",
  "sourceName": "contracts/Market.sol",
  "abi": [
    {
      "inputs": [
        {
          "internalType": "contract MarketFactory",
          "name": "_factory",
          "type": "address"
        },
        {
          "internalType": "contract IERC20",
          "name": "_token",
          "type": "address"
        },
        {
          "internalType": "contract IUniswapV2Pair",
          "name": "_uniswapPair",
          "type": "address"
        },
        {
          "internalType": "uint256",
          "name": "_period",
          "type": "uint256"
        },
        {
          "internalType": "uint256",
          "name": "_initTimestamp",
          "type": "uint256"
        },
        {
          "internalType": "uint256",
          "name": "_taxMarket",
          "type": "uint256"
        },
        {
          "internalType": "uint256",
          "name": "_feeMarket",
          "type": "uint256"
        },
        {
          "internalType": "uint256",
          "name": "_dPrice",
          "type": "uint256"
        },
        {
          "internalType": "uint256",
          "name": "_tReporting",
          "type": "uint256"
        },
        {
          "internalType": "uint256",
          "name": "_minTax",
          "type": "uint256"
        }
      ],
      "stateMutability": "nonpayable",
      "type": "constructor"
    },
    {
      "anonymous": false,
      "inputs": [
        {
          "indexed": false,
          "internalType": "uint256",
          "name": "frameKey",
          "type": "uint256"
        }
      ],
      "name": "FrameUpdate",
      "type": "event"
    },
    {
      "anonymous": false,
      "inputs": [
        {
          "indexed": false,
          "internalType": "uint256",
          "name": "frameKey",
          "type": "uint256"
        },
        {
          "indexed": false,
          "internalType": "uint256",
          "name": "lotKey",
          "type": "uint256"
        }
      ],
      "name": "LotUpdate",
      "type": "event"
    },
    {
      "inputs": [],
      "name": "accountingToken",
      "outputs": [
        {
          "internalType": "contract IERC20",
          "name": "",
          "type": "address"
        }
      ],
      "stateMutability": "view",
      "type": "function"
    },
    {
      "inputs": [
        {
          "internalType": "uint256",
          "name": "timestamp",
          "type": "uint256"
        },
        {
          "internalType": "uint256",
          "name": "pairPrice",
          "type": "uint256"
        },
        {
          "internalType": "uint256",
          "name": "acqPrice",
          "type": "uint256"
        }
      ],
      "name": "buyLot",
      "outputs": [],
      "stateMutability": "nonpayable",
      "type": "function"
    },
    {
      "inputs": [
        {
          "internalType": "uint256",
          "name": "frameKey",
          "type": "uint256"
        }
      ],
      "name": "claimReward",
      "outputs": [],
      "stateMutability": "nonpayable",
      "type": "function"
    },
    {
      "inputs": [
        {
          "internalType": "uint256",
          "name": "timestamp",
          "type": "uint256"
        },
        {
          "internalType": "uint256",
          "name": "pairPrice",
          "type": "uint256"
        },
        {
          "internalType": "uint256",
          "name": "acqPrice",
          "type": "uint256"
        }
      ],
      "name": "clcAmountToApprove",
      "outputs": [
        {
          "internalType": "uint256",
          "name": "cmpltAmnt",
          "type": "uint256"
        }
      ],
      "stateMutability": "view",
      "type": "function"
    },
    {
      "inputs": [
        {
          "internalType": "uint256",
          "name": "timestamp",
          "type": "uint256"
        },
        {
          "internalType": "uint256",
          "name": "pairPrice",
          "type": "uint256"
        },
        {
          "internalType": "uint256",
          "name": "acqPrice",
          "type": "uint256"
        }
      ],
      "name": "clcAmountToApproveForUpdate",
      "outputs": [
        {
          "internalType": "uint256",
          "name": "amnt",
          "type": "uint256"
        }
      ],
      "stateMutability": "view",
      "type": "function"
    },
    {
      "inputs": [
        {
          "internalType": "uint256",
          "name": "timestamp",
          "type": "uint256"
        }
      ],
      "name": "clcFrameTimestamp",
      "outputs": [
        {
          "internalType": "uint256",
          "name": "",
          "type": "uint256"
        }
      ],
      "stateMutability": "view",
      "type": "function"
    },
    {
      "inputs": [
        {
          "internalType": "uint256",
          "name": "frameKey",
          "type": "uint256"
        }
      ],
      "name": "clcFramesLeft",
      "outputs": [
        {
          "internalType": "uint256",
          "name": "",
          "type": "uint256"
        }
      ],
      "stateMutability": "view",
      "type": "function"
    },
    {
      "inputs": [
        {
          "internalType": "uint256",
          "name": "value",
          "type": "uint256"
        }
      ],
      "name": "clcLotInterval",
      "outputs": [
        {
          "internalType": "uint256",
          "name": "",
          "type": "uint256"
        }
      ],
      "stateMutability": "view",
      "type": "function"
    },
    {
      "inputs": [
        {
          "internalType": "uint256",
          "name": "frameKey",
          "type": "uint256"
        }
      ],
      "name": "clcPrice",
      "outputs": [
        {
          "internalType": "uint256",
          "name": "avgPrice",
          "type": "uint256"
        }
      ],
      "stateMutability": "view",
      "type": "function"
    },
    {
      "inputs": [
        {
          "internalType": "uint256",
          "name": "frameKey",
          "type": "uint256"
        },
        {
          "internalType": "uint256",
          "name": "acquisitionPrice",
          "type": "uint256"
        }
      ],
      "name": "clcTax",
      "outputs": [
        {
          "internalType": "uint256",
          "name": "tax",
          "type": "uint256"
        }
      ],
      "stateMutability": "view",
      "type": "function"
    },
    {
      "inputs": [
        {
          "internalType": "uint256",
          "name": "frameKey",
          "type": "uint256"
        }
      ],
      "name": "closeFrame",
      "outputs": [],
      "stateMutability": "nonpayable",
      "type": "function"
    },
    {
      "inputs": [],
      "name": "dPrice",
      "outputs": [
        {
          "internalType": "uint256",
          "name": "",
          "type": "uint256"
        }
      ],
      "stateMutability": "view",
      "type": "function"
    },
    {
      "inputs": [
        {
          "internalType": "uint256",
          "name": "amount",
          "type": "uint256"
        }
      ],
      "name": "emptyFunds",
      "outputs": [],
      "stateMutability": "nonpayable",
      "type": "function"
    },
    {
      "inputs": [],
      "name": "factory",
      "outputs": [
        {
          "internalType": "contract MarketFactory",
          "name": "",
          "type": "address"
        }
      ],
      "stateMutability": "view",
      "type": "function"
    },
    {
      "inputs": [],
      "name": "feeMarket",
      "outputs": [
        {
          "internalType": "uint256",
          "name": "",
          "type": "uint256"
        }
      ],
      "stateMutability": "view",
      "type": "function"
    },
    {
      "inputs": [],
      "name": "feeProtocol",
      "outputs": [
        {
          "internalType": "uint256",
          "name": "",
          "type": "uint256"
        }
      ],
      "stateMutability": "view",
      "type": "function"
    },
    {
      "inputs": [
        {
          "internalType": "uint256",
          "name": "",
          "type": "uint256"
        }
      ],
      "name": "frames",
      "outputs": [
        {
          "internalType": "uint256",
          "name": "frameKey",
          "type": "uint256"
        },
        {
          "internalType": "uint256",
          "name": "oracleTimestampStart",
          "type": "uint256"
        },
        {
          "internalType": "uint256",
          "name": "oracleTimestampEnd",
          "type": "uint256"
        },
        {
          "internalType": "uint256",
          "name": "lastBlockNum",
          "type": "uint256"
        },
        {
          "internalType": "uint256",
          "name": "priceAverage",
          "type": "uint256"
        },
        {
          "internalType": "uint256",
          "name": "rewardFund",
          "type": "uint256"
        },
        {
          "internalType": "uint256",
          "name": "oraclePrice0CumulativeStart",
          "type": "uint256"
        },
        {
          "internalType": "uint256",
          "name": "oraclePrice0CumulativeEnd",
          "type": "uint256"
        },
        {
          "internalType": "enum Market.SFrame",
          "name": "state",
          "type": "uint8"
        }
      ],
      "stateMutability": "view",
      "type": "function"
    },
    {
      "inputs": [
        {
          "internalType": "uint256",
          "name": "",
          "type": "uint256"
        }
      ],
      "name": "framesKeys",
      "outputs": [
        {
          "internalType": "uint256",
          "name": "",
          "type": "uint256"
        }
      ],
      "stateMutability": "view",
      "type": "function"
    },
    {
      "inputs": [
        {
          "internalType": "uint256",
          "name": "frameKey",
          "type": "uint256"
        },
        {
          "internalType": "uint256",
          "name": "lotKey",
          "type": "uint256"
        }
      ],
      "name": "getLot",
      "outputs": [
        {
          "components": [
            {
              "internalType": "uint256",
              "name": "lotKey",
              "type": "uint256"
            },
            {
              "internalType": "address",
              "name": "lotOwner",
              "type": "address"
            },
            {
              "internalType": "uint256",
              "name": "acquisitionPrice",
              "type": "uint256"
            },
            {
              "internalType": "enum Market.SLot",
              "name": "state",
              "type": "uint8"
            }
          ],
          "internalType": "struct Market.Lot",
          "name": "",
          "type": "tuple"
        }
      ],
      "stateMutability": "view",
      "type": "function"
    },
    {
      "inputs": [
        {
          "internalType": "uint256",
          "name": "frameKey",
          "type": "uint256"
        },
        {
          "internalType": "uint256",
          "name": "index",
          "type": "uint256"
        }
      ],
      "name": "getLotKey",
      "outputs": [
        {
          "internalType": "uint256",
          "name": "",
          "type": "uint256"
        }
      ],
      "stateMutability": "view",
      "type": "function"
    },
    {
      "inputs": [
        {
          "internalType": "uint256",
          "name": "frameKey",
          "type": "uint256"
        }
      ],
      "name": "getLotsCount",
      "outputs": [
        {
          "internalType": "uint256",
          "name": "",
          "type": "uint256"
        }
      ],
      "stateMutability": "view",
      "type": "function"
    },
    {
      "inputs": [
        {
          "internalType": "address",
          "name": "user",
          "type": "address"
        }
      ],
      "name": "getNumOfUserFrames",
      "outputs": [
        {
          "internalType": "uint256",
          "name": "",
          "type": "uint256"
        }
      ],
      "stateMutability": "view",
      "type": "function"
    },
    {
      "inputs": [],
      "name": "getNumberOfFrameKeys",
      "outputs": [
        {
          "internalType": "uint256",
          "name": "",
          "type": "uint256"
        }
      ],
      "stateMutability": "view",
      "type": "function"
    },
    {
      "inputs": [
        {
          "internalType": "uint256",
          "name": "timestamp",
          "type": "uint256"
        }
      ],
      "name": "getOrCreateFrame",
      "outputs": [
        {
          "internalType": "uint256",
          "name": "",
          "type": "uint256"
        }
      ],
      "stateMutability": "nonpayable",
      "type": "function"
    },
    {
      "inputs": [
        {
          "internalType": "uint256",
          "name": "frameKey",
          "type": "uint256"
        }
      ],
      "name": "getRewardAmount",
      "outputs": [
        {
          "internalType": "uint256",
          "name": "",
          "type": "uint256"
        }
      ],
      "stateMutability": "view",
      "type": "function"
    },
    {
      "inputs": [
        {
          "internalType": "address",
          "name": "user",
          "type": "address"
        }
      ],
      "name": "getUserFrames",
      "outputs": [
        {
          "internalType": "uint256[]",
          "name": "",
          "type": "uint256[]"
        }
      ],
      "stateMutability": "view",
      "type": "function"
    },
    {
      "inputs": [],
      "name": "initTimestamp",
      "outputs": [
        {
          "internalType": "uint256",
          "name": "",
          "type": "uint256"
        }
      ],
      "stateMutability": "view",
      "type": "function"
    },
    {
      "inputs": [],
      "name": "minTax",
      "outputs": [
        {
          "internalType": "uint256",
          "name": "",
          "type": "uint256"
        }
      ],
      "stateMutability": "view",
      "type": "function"
    },
    {
      "inputs": [],
      "name": "ownerMarket",
      "outputs": [
        {
          "internalType": "address",
          "name": "",
          "type": "address"
        }
      ],
      "stateMutability": "view",
      "type": "function"
    },
    {
      "inputs": [],
      "name": "period",
      "outputs": [
        {
          "internalType": "uint256",
          "name": "",
          "type": "uint256"
        }
      ],
      "stateMutability": "view",
      "type": "function"
    },
    {
      "inputs": [
        {
          "internalType": "uint256",
          "name": "frameKey",
          "type": "uint256"
        }
      ],
      "name": "settleLot",
      "outputs": [],
      "stateMutability": "nonpayable",
      "type": "function"
    },
    {
      "inputs": [],
      "name": "tReporting",
      "outputs": [
        {
          "internalType": "uint256",
          "name": "",
          "type": "uint256"
        }
      ],
      "stateMutability": "view",
      "type": "function"
    },
    {
      "inputs": [],
      "name": "taxMarket",
      "outputs": [
        {
          "internalType": "uint256",
          "name": "",
          "type": "uint256"
        }
      ],
      "stateMutability": "view",
      "type": "function"
    },
    {
      "inputs": [],
      "name": "uniswapPair",
      "outputs": [
        {
          "internalType": "contract IUniswapV2Pair",
          "name": "",
          "type": "address"
        }
      ],
      "stateMutability": "view",
      "type": "function"
    },
    {
      "inputs": [],
      "name": "updateFramePrices",
      "outputs": [],
      "stateMutability": "nonpayable",
      "type": "function"
    },
    {
      "inputs": [
        {
          "internalType": "uint256",
          "name": "timestamp",
          "type": "uint256"
        },
        {
          "internalType": "uint256",
          "name": "pairPrice",
          "type": "uint256"
        },
        {
          "internalType": "uint256",
          "name": "acqPrice",
          "type": "uint256"
        }
      ],
      "name": "updateLotPrice",
      "outputs": [],
      "stateMutability": "nonpayable",
      "type": "function"
    },
    {
      "inputs": [
        {
          "internalType": "address",
          "name": "",
          "type": "address"
        },
        {
          "internalType": "uint256",
          "name": "",
          "type": "uint256"
        }
      ],
      "name": "userFrames",
      "outputs": [
        {
          "internalType": "uint256",
          "name": "",
          "type": "uint256"
        }
      ],
      "stateMutability": "view",
      "type": "function"
    }
  ],
  "bytecode": "0x6080604052606460025569d3c21bcecceda1000000600c553480156200002457600080fd5b50604051620049bc380380620049bc83398181016040528101906200004a9190620001eb565b88600960006101000a81548173ffffffffffffffffffffffffffffffffffffffff021916908373ffffffffffffffffffffffffffffffffffffffff16021790555033600a60006101000a81548173ffffffffffffffffffffffffffffffffffffffff021916908373ffffffffffffffffffffffffffffffffffffffff1602179055508660008190555085600181905550846007819055508360068190555087600460006101000a81548173ffffffffffffffffffffffffffffffffffffffff021916908373ffffffffffffffffffffffffffffffffffffffff1602179055508260058190555089600860006101000a81548173ffffffffffffffffffffffffffffffffffffffff021916908373ffffffffffffffffffffffffffffffffffffffff1602179055508160038190555080600b8190555050505050505050505050620003bd565b600081519050620001a08162000355565b92915050565b600081519050620001b7816200036f565b92915050565b600081519050620001ce8162000389565b92915050565b600081519050620001e581620003a3565b92915050565b6000806000806000806000806000806101408b8d0312156200020c57600080fd5b60006200021c8d828e01620001bd565b9a505060206200022f8d828e016200018f565b9950506040620002428d828e01620001a6565b9850506060620002558d828e01620001d4565b9750506080620002688d828e01620001d4565b96505060a06200027b8d828e01620001d4565b95505060c06200028e8d828e01620001d4565b94505060e0620002a18d828e01620001d4565b935050610100620002b58d828e01620001d4565b925050610120620002c98d828e01620001d4565b9150509295989b9194979a5092959850565b6000620002e8826200032b565b9050919050565b6000620002fc82620002db565b9050919050565b60006200031082620002db565b9050919050565b60006200032482620002db565b9050919050565b600073ffffffffffffffffffffffffffffffffffffffff82169050919050565b6000819050919050565b6200036081620002ef565b81146200036c57600080fd5b50565b6200037a8162000303565b81146200038657600080fd5b50565b620003948162000317565b8114620003a057600080fd5b50565b620003ae816200034b565b8114620003ba57600080fd5b50565b6145ef80620003cd6000396000f3fe608060405234801561001057600080fd5b50600436106102275760003560e01c80637d6ae6a011610130578063ae169a50116100b8578063da68cf8b1161007c578063da68cf8b146106f6578063e107fb4f14610714578063ef78d4fd14610744578063fc95070214610762578063ff5c86b01461077e57610227565b8063ae169a5014610652578063bb15d2dd1461066e578063c45a01551461068a578063c816841b146106a8578063c84993af146106c657610227565b806389da88a3116100ff57806389da88a3146105925780639495833c146105b057806396b2c6f3146105e0578063a10340bc146105ea578063a4d246ff1461062257610227565b80637d6ae6a0146104e45780637e99663914610514578063830ab11914610532578063888bdbcd1461056257610227565b806345084775116101b35780635b3ad63e116101825780635b3ad63e1461041a57806360f65c601461044a5780636f1aefc31461047a5780636f7cb60b146104aa5780637358c57a146104c657610227565b806345084775146103a4578063499a0fc4146103c25780634d3ee2dc146103e0578063527eb4bc146103fc57610227565b80633c80d8ea116101fa5780633c80d8ea146102ec5780633d09a82a146103085780633e16bc2014610326578063410f07101461035657806341a8b6f81461037457610227565b8063050e88401461022c5780630cbcff8f1461025c5780630ef192731461028c5780633656d5ee146102bc575b600080fd5b610246600480360381019061024191906136a0565b61079c565b6040516102539190613dee565b60405180910390f35b610276600480360381019061027191906136a0565b6107c0565b6040516102839190613dee565b60405180910390f35b6102a660048036038101906102a1919061359a565b6109a7565b6040516102b39190613dee565b60405180910390f35b6102d660048036038101906102d1919061372e565b6109f3565b6040516102e39190613dee565b60405180910390f35b6103066004803603810190610301919061372e565b610a7e565b005b610310611274565b60405161031d9190613dee565b60405180910390f35b610340600480360381019061033b91906136f2565b61127a565b60405161034d9190613dee565b60405180910390f35b61035e6112dd565b60405161036b9190613dee565b60405180910390f35b61038e600480360381019061038991906136a0565b6112e3565b60405161039b9190613dee565b60405180910390f35b6103ac6114ef565b6040516103b99190613adc565b60405180910390f35b6103ca611515565b6040516103d79190613dee565b60405180910390f35b6103fa60048036038101906103f591906136a0565b61151b565b005b61040461197b565b6040516104119190613dee565b60405180910390f35b610434600480360381019061042f91906136a0565b611981565b6040516104419190613dee565b60405180910390f35b610464600480360381019061045f91906135ec565b6119c4565b6040516104719190613dee565b60405180910390f35b610494600480360381019061048f91906136f2565b6119f5565b6040516104a19190613dd3565b60405180910390f35b6104c460048036038101906104bf91906136a0565b611b28565b005b6104ce611d87565b6040516104db9190613dee565b60405180910390f35b6104fe60048036038101906104f991906136a0565b611d8d565b60405161050b9190613dee565b60405180910390f35b61051c611dc9565b6040516105299190613dee565b60405180910390f35b61054c600480360381019061054791906136a0565b611dcf565b6040516105599190613dee565b60405180910390f35b61057c600480360381019061057791906136a0565b611df2565b6040516105899190613dee565b60405180910390f35b61059a611e28565b6040516105a79190613dee565b60405180910390f35b6105ca60048036038101906105c5919061359a565b611e35565b6040516105d79190613b80565b60405180910390f35b6105e8611ecc565b005b61060460048036038101906105ff91906136a0565b61210d565b60405161061999989796959493929190613e32565b60405180910390f35b61063c6004803603810190610637919061372e565b612168565b6040516106499190613dee565b60405180910390f35b61066c600480360381019061066791906136a0565b61221e565b005b6106886004803603810190610683919061372e565b612233565b005b61069261278f565b60405161069f9190613bd8565b60405180910390f35b6106b06127b5565b6040516106bd9190613bbd565b60405180910390f35b6106e060048036038101906106db91906136a0565b6127db565b6040516106ed9190613dee565b60405180910390f35b6106fe6127fb565b60405161070b9190613ba2565b60405180910390f35b61072e600480360381019061072991906136f2565b612821565b60405161073b9190613dee565b60405180910390f35b61074c6128ee565b6040516107599190613dee565b60405180910390f35b61077c600480360381019061077791906136a0565b6128f4565b005b610786612f1a565b6040516107939190613dee565b60405180910390f35b600f81815481106107ac57600080fd5b906000526020600020016000915090505481565b6000806107cc83611981565b905060006002811115610808577f4e487b7100000000000000000000000000000000000000000000000000000000600052602160045260246000fd5b600d600083815260200190815260200160002060080160009054906101000a900460ff166002811115610864577f4e487b7100000000000000000000000000000000000000000000000000000000600052602160045260246000fd5b1461087257809150506109a2565b61087b42611981565b8110156108bd576040517f08c379a00000000000000000000000000000000000000000000000000000000081526004016108b490613d73565b60405180910390fd5b80600d6000838152602001908152602001600020600001819055506001600d600083815260200190815260200160002060080160006101000a81548160ff02191690836002811115610938577f4e487b7100000000000000000000000000000000000000000000000000000000600052602160045260246000fd5b0217905550600f8190806001815401808255809150506001900390600052602060002001600090919091909150557f163614e6e9ce9df7687928015fd2c748b69c5136db886e57f09170b251b58e87816040516109959190613dee565b60405180910390a1809150505b919050565b6000600e60008373ffffffffffffffffffffffffffffffffffffffff1673ffffffffffffffffffffffffffffffffffffffff168152602001908152602001600020805490509050919050565b6000806109ff85611981565b90506000610a0c85611df2565b90506000610a4483600d6000868152602001908152602001600020600a01600085815260200190815260200160002060020154612821565b90506000610a528487612821565b9050808210610a645760009450610a73565b8181610a70919061401b565b94505b505050509392505050565b806000620186a060075483610a939190613fc1565b610a9d9190613f90565b9050600b54811015610ae4576040517f08c379a0000000000000000000000000000000000000000000000000000000008152600401610adb90613c93565b60405180910390fd5b6000610aef866107c0565b90506000610afd8287612f20565b9050610b0842611981565b821015610b4a576040517f08c379a0000000000000000000000000000000000000000000000000000000008152600401610b4190613d93565b60405180910390fd5b600d6000838152602001908152602001600020600a01600082815260200190815260200160002060010160009054906101000a900473ffffffffffffffffffffffffffffffffffffffff1673ffffffffffffffffffffffffffffffffffffffff163373ffffffffffffffffffffffffffffffffffffffff161415610c03576040517f08c379a0000000000000000000000000000000000000000000000000000000008152600401610bfa90613d33565b60405180910390fd5b6000610c0f8387612821565b905080600d6000858152602001908152602001600020600a01600084815260200190815260200160002060020154610c479190613f09565b600960009054906101000a900473ffffffffffffffffffffffffffffffffffffffff1673ffffffffffffffffffffffffffffffffffffffff1663dd62ed3e33306040518363ffffffff1660e01b8152600401610ca4929190613af7565b60206040518083038186803b158015610cbc57600080fd5b505afa158015610cd0573d6000803e3d6000fd5b505050506040513d601f19601f82011682018060405250810190610cf491906136c9565b1015610d35576040517f08c379a0000000000000000000000000000000000000000000000000000000008152600401610d2c90613d53565b60405180910390fd5b600960009054906101000a900473ffffffffffffffffffffffffffffffffffffffff1673ffffffffffffffffffffffffffffffffffffffff166323b872dd333084600d6000898152602001908152602001600020600a01600088815260200190815260200160002060020154610dab9190613f09565b6040518463ffffffff1660e01b8152600401610dc993929190613b20565b602060405180830381600087803b158015610de357600080fd5b505af1158015610df7573d6000803e3d6000fd5b505050506040513d601f19601f82011682018060405250810190610e1b9190613628565b5080600d600085815260200190815260200160002060050154610e3e9190613f09565b600d60008581526020019081526020016000206005018190555060016002811115610e92577f4e487b7100000000000000000000000000000000000000000000000000000000600052602160045260246000fd5b600d6000858152602001908152602001600020600a01600084815260200190815260200160002060030160009054906101000a900460ff166002811115610f02577f4e487b7100000000000000000000000000000000000000000000000000000000600052602160045260246000fd5b14156110b1576000610f3e84600d6000878152602001908152602001600020600a01600086815260200190815260200160002060020154612821565b9050600960009054906101000a900473ffffffffffffffffffffffffffffffffffffffff1673ffffffffffffffffffffffffffffffffffffffff1663a9059cbb600d6000878152602001908152602001600020600a01600086815260200190815260200160002060010160009054906101000a900473ffffffffffffffffffffffffffffffffffffffff16600d6000888152602001908152602001600020600a0160008781526020019081526020016000206002015484610fff9190613f09565b6040518363ffffffff1660e01b815260040161101c929190613b57565b602060405180830381600087803b15801561103657600080fd5b505af115801561104a573d6000803e3d6000fd5b505050506040513d601f19601f8201168201806040525081019061106e9190613628565b5080600d600086815260200190815260200160002060050154611091919061401b565b600d6000868152602001908152602001600020600501819055505061112b565b6001600d6000858152602001908152602001600020600a01600084815260200190815260200160002060030160006101000a81548160ff02191690836002811115611125577f4e487b7100000000000000000000000000000000000000000000000000000000600052602160045260246000fd5b02179055505b33600d6000858152602001908152602001600020600a01600084815260200190815260200160002060010160006101000a81548173ffffffffffffffffffffffffffffffffffffffff021916908373ffffffffffffffffffffffffffffffffffffffff16021790555085600d6000858152602001908152602001600020600a01600084815260200190815260200160002060020181905550600e60003373ffffffffffffffffffffffffffffffffffffffff1673ffffffffffffffffffffffffffffffffffffffff168152602001908152602001600020839080600181540180825580915050600190039060005260206000200160009091909190915055611231611ecc565b7fd0d6f900b5096e8e38e0b13b83d7ac826d0c461a139f26a9bfbee4b4d3d1e9198383604051611262929190613e09565b60405180910390a15050505050505050565b600b5481565b6000600d600084815260200190815260200160002060090182815481106112ca577f4e487b7100000000000000000000000000000000000000000000000000000000600052603260045260246000fd5b9060005260206000200154905092915050565b60065481565b6000816000600d60008381526020019081526020016000206006015411158061132357506000600d60008381526020019081526020016000206007015411155b15611363576040517f08c379a000000000000000000000000000000000000000000000000000000000815260040161135a90613c53565b60405180910390fd5b600d600082815260200190815260200160002060070154600d60008381526020019081526020016000206006015414156113d2576040517f08c379a00000000000000000000000000000000000000000000000000000000081526004016113c990613c53565b60405180910390fd5b6000600d600085815260200190815260200160002060060154600d60008681526020019081526020016000206007015461140c919061401b565b90506000600d600086815260200190815260200160002060010154600d600087815260200190815260200160002060020154611448919061401b565b90506114806040518060200160405280847bffffffffffffffffffffffffffffffffffffffffffffffffffffffff168152508261305d565b600001517bffffffffffffffffffffffffffffffffffffffffffffffffffffffff1693507406d79f82328ea3da61e066ebb2f88a000000000000607085901b6114c99190613f90565b600c54607086901c6114db9190613fc1565b6114e59190613f09565b9350505050919050565b600a60009054906101000a900473ffffffffffffffffffffffffffffffffffffffff1681565b60055481565b600280811115611554577f4e487b7100000000000000000000000000000000000000000000000000000000600052602160045260246000fd5b600d600083815260200190815260200160002060080160009054906101000a900460ff1660028111156115b0577f4e487b7100000000000000000000000000000000000000000000000000000000600052602160045260246000fd5b146115f0576040517f08c379a00000000000000000000000000000000000000000000000000000000081526004016115e790613cf3565b60405180910390fd5b6000611611600d600084815260200190815260200160002060040154611df2565b905060028081111561164c577f4e487b7100000000000000000000000000000000000000000000000000000000600052602160045260246000fd5b600d6000848152602001908152602001600020600a01600083815260200190815260200160002060030160009054906101000a900460ff1660028111156116bc577f4e487b7100000000000000000000000000000000000000000000000000000000600052602160045260246000fd5b14156116fd576040517f08c379a00000000000000000000000000000000000000000000000000000000081526004016116f490613c73565b60405180910390fd5b3373ffffffffffffffffffffffffffffffffffffffff16600d6000848152602001908152602001600020600a01600083815260200190815260200160002060010160009054906101000a900473ffffffffffffffffffffffffffffffffffffffff1673ffffffffffffffffffffffffffffffffffffffff16146117b5576040517f08c379a00000000000000000000000000000000000000000000000000000000081526004016117ac90613c33565b60405180910390fd5b600960009054906101000a900473ffffffffffffffffffffffffffffffffffffffff1673ffffffffffffffffffffffffffffffffffffffff1663a9059cbb600d6000858152602001908152602001600020600a01600084815260200190815260200160002060010160009054906101000a900473ffffffffffffffffffffffffffffffffffffffff16600d6000868152602001908152602001600020600501546040518363ffffffff1660e01b8152600401611872929190613b57565b602060405180830381600087803b15801561188c57600080fd5b505af11580156118a0573d6000803e3d6000fd5b505050506040513d601f19601f820116820180604052508101906118c49190613628565b506002600d6000848152602001908152602001600020600a01600083815260200190815260200160002060030160006101000a81548160ff02191690836002811115611939577f4e487b7100000000000000000000000000000000000000000000000000000000600052602160045260246000fd5b02179055507fd0d6f900b5096e8e38e0b13b83d7ac826d0c461a139f26a9bfbee4b4d3d1e919828260405161196f929190613e09565b60405180910390a15050565b60025481565b600060015482116119965760015490506119bf565b600054600154836119a7919061401b565b6119b191906141d3565b826119bc919061401b565b90505b919050565b600e60205281600052604060002081815481106119e057600080fd5b90600052602060002001600091509150505481565b6119fd613460565b600d6000848152602001908152602001600020600a016000838152602001908152602001600020604051806080016040529081600082015481526020016001820160009054906101000a900473ffffffffffffffffffffffffffffffffffffffff1673ffffffffffffffffffffffffffffffffffffffff1673ffffffffffffffffffffffffffffffffffffffff168152602001600282015481526020016003820160009054906101000a900460ff166002811115611ae4577f4e487b7100000000000000000000000000000000000000000000000000000000600052602160045260246000fd5b6002811115611b1c577f4e487b7100000000000000000000000000000000000000000000000000000000600052602160045260246000fd5b81525050905092915050565b600860009054906101000a900473ffffffffffffffffffffffffffffffffffffffff1673ffffffffffffffffffffffffffffffffffffffff16638da5cb5b6040518163ffffffff1660e01b815260040160206040518083038186803b158015611b9057600080fd5b505afa158015611ba4573d6000803e3d6000fd5b505050506040513d601f19601f82011682018060405250810190611bc891906135c3565b73ffffffffffffffffffffffffffffffffffffffff163373ffffffffffffffffffffffffffffffffffffffff1614611c35576040517f08c379a0000000000000000000000000000000000000000000000000000000008152600401611c2c90613c13565b60405180910390fd5b600960009054906101000a900473ffffffffffffffffffffffffffffffffffffffff1673ffffffffffffffffffffffffffffffffffffffff1663a9059cbb600860009054906101000a900473ffffffffffffffffffffffffffffffffffffffff1673ffffffffffffffffffffffffffffffffffffffff16638da5cb5b6040518163ffffffff1660e01b815260040160206040518083038186803b158015611cdb57600080fd5b505afa158015611cef573d6000803e3d6000fd5b505050506040513d601f19601f82011682018060405250810190611d1391906135c3565b836040518363ffffffff1660e01b8152600401611d31929190613b57565b602060405180830381600087803b158015611d4b57600080fd5b505af1158015611d5f573d6000803e3d6000fd5b505050506040513d601f19601f82011682018060405250810190611d839190613628565b5050565b60015481565b6000611d9842611981565b821415611da85760009050611dc4565b6000544283611db7919061401b565b611dc19190613f90565b90505b919050565b60075481565b6000600d6000838152602001908152602001600020600901805490509050919050565b6000808211611e05576005549050611e23565b60055460055483611e169190613f90565b611e209190613fc1565b90505b919050565b6000600f80549050905090565b6060600e60008373ffffffffffffffffffffffffffffffffffffffff1673ffffffffffffffffffffffffffffffffffffffff168152602001908152602001600020805480602002602001604051908101604052809291908181526020018280548015611ec057602002820191906000526020600020905b815481526020019060010190808311611eac575b50505050509050919050565b600080611ed842611981565b905043600d60008381526020019081526020016000206003018190555060035460005482611f069190613f09565b611f10919061401b565b42101561203b57611f42600460009054906101000a900473ffffffffffffffffffffffffffffffffffffffff1661310d565b8063ffffffff169050600d60008581526020019081526020016000206006016000600d6000878152602001908152602001600020600101600084919050558396508491905055505050611fb6600460009054906101000a900473ffffffffffffffffffffffffffffffffffffffff1661310d565b8063ffffffff169050600d60008581526020019081526020016000206007016000600d60008781526020019081526020016000206002016000849190505583965084919050555050507f163614e6e9ce9df7687928015fd2c748b69c5136db886e57f09170b251b58e878160405161202e9190613dee565b60405180910390a1612109565b6003546000548261204c9190613f09565b612056919061401b565b421061210857612087600460009054906101000a900473ffffffffffffffffffffffffffffffffffffffff1661310d565b8063ffffffff169050600d60008581526020019081526020016000206007016000600d60008781526020019081526020016000206002016000849190505583965084919050555050507f163614e6e9ce9df7687928015fd2c748b69c5136db886e57f09170b251b58e87816040516120ff9190613dee565b60405180910390a15b5b5050565b600d6020528060005260406000206000915090508060000154908060010154908060020154908060030154908060040154908060050154908060060154908060070154908060080160009054906101000a900460ff16905089565b60008061217485611981565b905061217f42611981565b8110156121c1576040517f08c379a00000000000000000000000000000000000000000000000000000000081526004016121b890613cb3565b60405180910390fd5b60006121cc85611df2565b905060006121da8386612821565b905080600d6000858152602001908152602001600020600a016000848152602001908152602001600020600201546122129190613f09565b93505050509392505050565b612227816128f4565b6122308161151b565b50565b806000620186a0600754836122489190613fc1565b6122529190613f90565b9050600b54811015612299576040517f08c379a000000000000000000000000000000000000000000000000000000000815260040161229090613c93565b60405180910390fd5b60006122a4866107c0565b905060006122b28287612f20565b90503373ffffffffffffffffffffffffffffffffffffffff16600d6000848152602001908152602001600020600a01600083815260200190815260200160002060010160009054906101000a900473ffffffffffffffffffffffffffffffffffffffff1673ffffffffffffffffffffffffffffffffffffffff161461236c576040517f08c379a000000000000000000000000000000000000000000000000000000000815260040161236390613cd3565b60405180910390fd5b61237542611981565b8210156123b7576040517f08c379a00000000000000000000000000000000000000000000000000000000081526004016123ae90613d13565b60405180910390fd5b60006123c38387612821565b905060006123fb84600d6000878152602001908152602001600020600a01600086815260200190815260200160002060020154612821565b905080821115612608578082612411919061401b565b600960009054906101000a900473ffffffffffffffffffffffffffffffffffffffff1673ffffffffffffffffffffffffffffffffffffffff1663dd62ed3e33306040518363ffffffff1660e01b815260040161246e929190613af7565b60206040518083038186803b15801561248657600080fd5b505afa15801561249a573d6000803e3d6000fd5b505050506040513d601f19601f820116820180604052508101906124be91906136c9565b10156124ff576040517f08c379a00000000000000000000000000000000000000000000000000000000081526004016124f690613d53565b60405180910390fd5b600960009054906101000a900473ffffffffffffffffffffffffffffffffffffffff1673ffffffffffffffffffffffffffffffffffffffff166323b872dd3330848661254b919061401b565b6040518463ffffffff1660e01b815260040161256993929190613b20565b602060405180830381600087803b15801561258357600080fd5b505af1158015612597573d6000803e3d6000fd5b505050506040513d601f19601f820116820180604052508101906125bb9190613628565b5080826125c8919061401b565b600d6000868152602001908152602001600020600501546125e99190613f09565b600d600086815260200190815260200160002060050181905550612714565b8082101561271357600960009054906101000a900473ffffffffffffffffffffffffffffffffffffffff1673ffffffffffffffffffffffffffffffffffffffff1663a9059cbb33848461265b919061401b565b6040518363ffffffff1660e01b8152600401612678929190613b57565b602060405180830381600087803b15801561269257600080fd5b505af11580156126a6573d6000803e3d6000fd5b505050506040513d601f19601f820116820180604052508101906126ca9190613628565b5081816126d7919061401b565b600d6000868152602001908152602001600020600501546126f8919061401b565b600d6000868152602001908152602001600020600501819055505b5b86600d6000868152602001908152602001600020600a0160008581526020019081526020016000206002018190555061274b611ecc565b7fd0d6f900b5096e8e38e0b13b83d7ac826d0c461a139f26a9bfbee4b4d3d1e919848460405161277c929190613e09565b60405180910390a1505050505050505050565b600860009054906101000a900473ffffffffffffffffffffffffffffffffffffffff1681565b600460009054906101000a900473ffffffffffffffffffffffffffffffffffffffff1681565b6000600d6000838152602001908152602001600020600501549050919050565b600960009054906101000a900473ffffffffffffffffffffffffffffffffffffffff1681565b6000804260005461283142611981565b61283b9190613f09565b612845919061401b565b90506000805482600c546128599190613fc1565b6128639190613f90565b9050600061287086611d8d565b905080620186a0600754876128859190613fc1565b61288f9190613f90565b6128999190613fc1565b93506000620186a0600754876128af9190613fc1565b6128b99190613f90565b9050600c5483826128ca9190613fc1565b6128d49190613f90565b905080856128e29190613f09565b94505050505092915050565b60005481565b806000600d60008381526020019081526020016000206006015411158061293257506000600d60008381526020019081526020016000206007015411155b15612972576040517f08c379a000000000000000000000000000000000000000000000000000000000815260040161296990613c53565b60405180910390fd5b600d600082815260200190815260200160002060070154600d60008381526020019081526020016000206006015414156129e1576040517f08c379a00000000000000000000000000000000000000000000000000000000081526004016129d890613c53565b60405180910390fd5b42600054836129f09190613f09565b1115612a31576040517f08c379a0000000000000000000000000000000000000000000000000000000008152600401612a2890613bf3565b60405180910390fd5b6002600d600084815260200190815260200160002060080160006101000a81548160ff02191690836002811115612a91577f4e487b7100000000000000000000000000000000000000000000000000000000600052602160045260246000fd5b02179055506000600d600084815260200190815260200160002060060154600d600085815260200190815260200160002060070154612ad0919061401b565b90506000600d600085815260200190815260200160002060010154600d600086815260200190815260200160002060020154612b0c919061401b565b9050612b446040518060200160405280847bffffffffffffffffffffffffffffffffffffffffffffffffffffffff168152508261305d565b600001517bffffffffffffffffffffffffffffffffffffffffffffffffffffffff16600d6000868152602001908152602001600020600401819055507406d79f82328ea3da61e066ebb2f88a0000000000006070600d600087815260200190815260200160002060040154901b612bbb9190613f90565b600c546070600d600088815260200190815260200160002060040154901c612be39190613fc1565b612bed9190613f09565b600d6000868152602001908152602001600020600401819055506000620186a0600654600d600088815260200190815260200160002060050154612c319190613fc1565b612c3b9190613f90565b90506000620186a0600254600d600089815260200190815260200160002060050154612c679190613fc1565b612c719190613f90565b90508082600d600089815260200190815260200160002060050154612c96919061401b565b612ca0919061401b565b600d600088815260200190815260200160002060050181905550600960009054906101000a900473ffffffffffffffffffffffffffffffffffffffff1673ffffffffffffffffffffffffffffffffffffffff1663a9059cbb600a60009054906101000a900473ffffffffffffffffffffffffffffffffffffffff16846040518363ffffffff1660e01b8152600401612d39929190613b57565b602060405180830381600087803b158015612d5357600080fd5b505af1158015612d67573d6000803e3d6000fd5b505050506040513d601f19601f82011682018060405250810190612d8b9190613628565b50600960009054906101000a900473ffffffffffffffffffffffffffffffffffffffff1673ffffffffffffffffffffffffffffffffffffffff1663a9059cbb600860009054906101000a900473ffffffffffffffffffffffffffffffffffffffff1673ffffffffffffffffffffffffffffffffffffffff16638da5cb5b6040518163ffffffff1660e01b815260040160206040518083038186803b158015612e3257600080fd5b505afa158015612e46573d6000803e3d6000fd5b505050506040513d601f19601f82011682018060405250810190612e6a91906135c3565b836040518363ffffffff1660e01b8152600401612e88929190613b57565b602060405180830381600087803b158015612ea257600080fd5b505af1158015612eb6573d6000803e3d6000fd5b505050506040513d601f19601f82011682018060405250810190612eda9190613628565b507f163614e6e9ce9df7687928015fd2c748b69c5136db886e57f09170b251b58e8786604051612f0a9190613dee565b60405180910390a1505050505050565b60035481565b600080612f2c83611df2565b905060006002811115612f68577f4e487b7100000000000000000000000000000000000000000000000000000000600052602160045260246000fd5b600d6000868152602001908152602001600020600a01600083815260200190815260200160002060030160009054906101000a900460ff166002811115612fd8577f4e487b7100000000000000000000000000000000000000000000000000000000600052602160045260246000fd5b14612fe65780915050613057565b80600d6000868152602001908152602001600020600a01600083815260200190815260200160002060000181905550600d6000858152602001908152602001600020600901819080600181540180825580915050600190039060005260206000200160009091909190915055809150505b92915050565b6130656134d6565b6000826dffffffffffffffffffffffffffff1614156130b9576040517f08c379a00000000000000000000000000000000000000000000000000000000081526004016130b090613db3565b60405180910390fd5b6040518060200160405280836dffffffffffffffffffffffffffff1685600001516130e49190613f5f565b7bffffffffffffffffffffffffffffffffffffffffffffffffffffffff16815250905092915050565b600080600061311a613368565b90508373ffffffffffffffffffffffffffffffffffffffff16635909c0d56040518163ffffffff1660e01b815260040160206040518083038186803b15801561316257600080fd5b505afa158015613176573d6000803e3d6000fd5b505050506040513d601f19601f8201168201806040525081019061319a91906136c9565b92508373ffffffffffffffffffffffffffffffffffffffff16635a3d54936040518163ffffffff1660e01b815260040160206040518083038186803b1580156131e257600080fd5b505afa1580156131f6573d6000803e3d6000fd5b505050506040513d601f19601f8201168201806040525081019061321a91906136c9565b915060008060008673ffffffffffffffffffffffffffffffffffffffff16630902f1ac6040518163ffffffff1660e01b815260040160606040518083038186803b15801561326757600080fd5b505afa15801561327b573d6000803e3d6000fd5b505050506040513d601f19601f8201168201806040525081019061329f9190613651565b9250925092508363ffffffff168163ffffffff161461335e57600081856132c6919061404f565b90508063ffffffff166132d98486613380565b600001517bffffffffffffffffffffffffffffffffffffffffffffffffffffffff166133059190613fc1565b876133109190613f09565b96508063ffffffff166133238585613380565b600001517bffffffffffffffffffffffffffffffffffffffffffffffffffffffff1661334f9190613fc1565b8661335a9190613f09565b9550505b5050509193909250565b60006401000000004261337b91906141d3565b905090565b6133886134d6565b6000826dffffffffffffffffffffffffffff16116133db576040517f08c379a00000000000000000000000000000000000000000000000000000000081526004016133d290613db3565b60405180910390fd5b6040518060200160405280836dffffffffffffffffffffffffffff16607060ff16866dffffffffffffffffffffffffffff167bffffffffffffffffffffffffffffffffffffffffffffffffffffffff16901b6134379190613f5f565b7bffffffffffffffffffffffffffffffffffffffffffffffffffffffff16815250905092915050565b604051806080016040528060008152602001600073ffffffffffffffffffffffffffffffffffffffff16815260200160008152602001600060028111156134d0577f4e487b7100000000000000000000000000000000000000000000000000000000600052602160045260246000fd5b81525090565b604051806020016040528060007bffffffffffffffffffffffffffffffffffffffffffffffffffffffff1681525090565b60008135905061351681614546565b92915050565b60008151905061352b81614546565b92915050565b6000815190506135408161455d565b92915050565b60008151905061355581614574565b92915050565b60008135905061356a8161458b565b92915050565b60008151905061357f8161458b565b92915050565b600081519050613594816145a2565b92915050565b6000602082840312156135ac57600080fd5b60006135ba84828501613507565b91505092915050565b6000602082840312156135d557600080fd5b60006135e38482850161351c565b91505092915050565b600080604083850312156135ff57600080fd5b600061360d85828601613507565b925050602061361e8582860161355b565b9150509250929050565b60006020828403121561363a57600080fd5b600061364884828501613531565b91505092915050565b60008060006060848603121561366657600080fd5b600061367486828701613546565b935050602061368586828701613546565b925050604061369686828701613585565b9150509250925092565b6000602082840312156136b257600080fd5b60006136c08482850161355b565b91505092915050565b6000602082840312156136db57600080fd5b60006136e984828501613570565b91505092915050565b6000806040838503121561370557600080fd5b60006137138582860161355b565b92505060206137248582860161355b565b9150509250929050565b60008060006060848603121561374357600080fd5b60006137518682870161355b565b93505060206137628682870161355b565b92505060406137738682870161355b565b9150509250925092565b60006137898383613abe565b60208301905092915050565b61379e81614083565b82525050565b6137ad81614083565b82525050565b60006137be82613ecf565b6137c88185613ee7565b93506137d383613ebf565b8060005b838110156138045781516137eb888261377d565b97506137f683613eda565b9250506001810190506137d7565b5085935050505092915050565b61381a81614143565b82525050565b61382981614167565b82525050565b6138388161418b565b82525050565b613847816141af565b82525050565b613856816141c1565b82525050565b6000613869601a83613ef8565b915061387482614291565b602082019050919050565b600061388c601583613ef8565b9150613897826142ba565b602082019050919050565b60006138af601f83613ef8565b91506138ba826142e3565b602082019050919050565b60006138d2601383613ef8565b91506138dd8261430c565b602082019050919050565b60006138f5601383613ef8565b915061390082614335565b602082019050919050565b6000613918601083613ef8565b91506139238261435e565b602082019050919050565b600061393b601b83613ef8565b915061394682614387565b602082019050919050565b600061395e601183613ef8565b9150613969826143b0565b602082019050919050565b6000613981601083613ef8565b915061398c826143d9565b602082019050919050565b60006139a4602983613ef8565b91506139af82614402565b604082019050919050565b60006139c7601f83613ef8565b91506139d282614451565b602082019050919050565b60006139ea601c83613ef8565b91506139f58261447a565b602082019050919050565b6000613a0d601983613ef8565b9150613a18826144a3565b602082019050919050565b6000613a30601d83613ef8565b9150613a3b826144cc565b602082019050919050565b6000613a53601783613ef8565b9150613a5e826144f5565b602082019050919050565b608082016000820151613a7f6000850182613abe565b506020820151613a926020850182613795565b506040820151613aa56040850182613abe565b506060820151613ab8606085018261384d565b50505050565b613ac781614129565b82525050565b613ad681614129565b82525050565b6000602082019050613af160008301846137a4565b92915050565b6000604082019050613b0c60008301856137a4565b613b1960208301846137a4565b9392505050565b6000606082019050613b3560008301866137a4565b613b4260208301856137a4565b613b4f6040830184613acd565b949350505050565b6000604082019050613b6c60008301856137a4565b613b796020830184613acd565b9392505050565b60006020820190508181036000830152613b9a81846137b3565b905092915050565b6000602082019050613bb76000830184613811565b92915050565b6000602082019050613bd26000830184613820565b92915050565b6000602082019050613bed600083018461382f565b92915050565b60006020820190508181036000830152613c0c8161385c565b9050919050565b60006020820190508181036000830152613c2c8161387f565b9050919050565b60006020820190508181036000830152613c4c816138a2565b9050919050565b60006020820190508181036000830152613c6c816138c5565b9050919050565b60006020820190508181036000830152613c8c816138e8565b9050919050565b60006020820190508181036000830152613cac8161390b565b9050919050565b60006020820190508181036000830152613ccc8161392e565b9050919050565b60006020820190508181036000830152613cec81613951565b9050919050565b60006020820190508181036000830152613d0c81613974565b9050919050565b60006020820190508181036000830152613d2c81613997565b9050919050565b60006020820190508181036000830152613d4c816139ba565b9050919050565b60006020820190508181036000830152613d6c816139dd565b9050919050565b60006020820190508181036000830152613d8c81613a00565b9050919050565b60006020820190508181036000830152613dac81613a23565b9050919050565b60006020820190508181036000830152613dcc81613a46565b9050919050565b6000608082019050613de86000830184613a69565b92915050565b6000602082019050613e036000830184613acd565b92915050565b6000604082019050613e1e6000830185613acd565b613e2b6020830184613acd565b9392505050565b600061012082019050613e48600083018c613acd565b613e55602083018b613acd565b613e62604083018a613acd565b613e6f6060830189613acd565b613e7c6080830188613acd565b613e8960a0830187613acd565b613e9660c0830186613acd565b613ea360e0830185613acd565b613eb161010083018461383e565b9a9950505050505050505050565b6000819050602082019050919050565b600081519050919050565b6000602082019050919050565b600082825260208201905092915050565b600082825260208201905092915050565b6000613f1482614129565b9150613f1f83614129565b9250827fffffffffffffffffffffffffffffffffffffffffffffffffffffffffffffffff03821115613f5457613f53614204565b5b828201905092915050565b6000613f6a82614101565b9150613f7583614101565b925082613f8557613f84614233565b5b828204905092915050565b6000613f9b82614129565b9150613fa683614129565b925082613fb657613fb5614233565b5b828204905092915050565b6000613fcc82614129565b9150613fd783614129565b9250817fffffffffffffffffffffffffffffffffffffffffffffffffffffffffffffffff04831182151516156140105761400f614204565b5b828202905092915050565b600061402682614129565b915061403183614129565b92508282101561404457614043614204565b5b828203905092915050565b600061405a82614133565b915061406583614133565b92508282101561407857614077614204565b5b828203905092915050565b600061408e826140e1565b9050919050565b60008115159050919050565b60008190506140af8261451e565b919050565b60008190506140c282614532565b919050565b60006dffffffffffffffffffffffffffff82169050919050565b600073ffffffffffffffffffffffffffffffffffffffff82169050919050565b60007bffffffffffffffffffffffffffffffffffffffffffffffffffffffff82169050919050565b6000819050919050565b600063ffffffff82169050919050565b600061414e82614155565b9050919050565b6000614160826140e1565b9050919050565b600061417282614179565b9050919050565b6000614184826140e1565b9050919050565b60006141968261419d565b9050919050565b60006141a8826140e1565b9050919050565b60006141ba826140a1565b9050919050565b60006141cc826140b4565b9050919050565b60006141de82614129565b91506141e983614129565b9250826141f9576141f8614233565b5b828206905092915050565b7f4e487b7100000000000000000000000000000000000000000000000000000000600052601160045260246000fd5b7f4e487b7100000000000000000000000000000000000000000000000000000000600052601260045260246000fd5b7f4e487b7100000000000000000000000000000000000000000000000000000000600052602160045260246000fd5b7f4652414d4520454e442054494d45204e4f542052454143484544000000000000600082015250565b7f4e4f542054484520464143544f5259204f574e45520000000000000000000000600082015250565b7f594f5520444f204e4f54204f574e205448452057494e4e494e47204c4f542100600082015250565b7f494e56414c4944204652414d4520505249434500000000000000000000000000600082015250565b7f4c4f5420414c524541445920534554544c454400000000000000000000000000600082015250565b7f505249434520495320544f4f204c4f5700000000000000000000000000000000600082015250565b7f54484953204c4f5420495320494e20412050415354204652414d450000000000600082015250565b7f4d555354204245204c4f54204f574e4552000000000000000000000000000000600082015250565b7f4652414d45204e4f5420434c4f53454400000000000000000000000000000000600082015250565b7f54484953204c4f5420495320494e20412054494d45204652414d452046524f4d60008201527f2054484520504153540000000000000000000000000000000000000000000000602082015250565b7f4144445245535320414c5245414459204f574e53205448452050415243454c00600082015250565b7f415050524f56454420414d4f554e5420495320544f4f20534d414c4c00000000600082015250565b7f43414e5420435245415445204652414d4520494e205041535400000000000000600082015250565b7f43414e2754204255592041204c4f542046524f4d205448452050415354000000600082015250565b7f4669786564506f696e743a204449565f42595f5a45524f000000000000000000600082015250565b6003811061452f5761452e614262565b5b50565b6003811061454357614542614262565b5b50565b61454f81614083565b811461455a57600080fd5b50565b61456681614095565b811461457157600080fd5b50565b61457d816140c7565b811461458857600080fd5b50565b61459481614129565b811461459f57600080fd5b50565b6145ab81614133565b81146145b657600080fd5b5056fea2646970667358221220c2cdf36c70a78b722840410e44ae0d04d0c65a6356b53925e82e6ca258bcefc464736f6c63430008040033",
  "linkReferences": {},
  "deployedLinkReferences": {}
}