{
  "_format": "hh-sol-artifact-1",
  "contractName": "Market",
  "sourceName": "contracts/Market.sol",
  "abi": [
    {
      "inputs": [],
      "stateMutability": "nonpayable",
      "type": "constructor"
    },
    {
      "anonymous": false,
      "inputs": [
        {
          "components": [
            {
              "internalType": "uint256",
              "name": "frameKey",
              "type": "uint256"
            },
            {
              "internalType": "uint256",
              "name": "rate",
              "type": "uint256"
            },
            {
              "internalType": "uint256[]",
              "name": "lotKeys",
              "type": "uint256[]"
            },
            {
              "internalType": "address",
              "name": "claimedBy",
              "type": "address"
            },
            {
              "internalType": "uint256",
              "name": "rateSettle",
              "type": "uint256"
            },
            {
              "internalType": "uint256",
              "name": "feeSettle",
              "type": "uint256"
            },
            {
              "internalType": "uint256",
              "name": "rewardSettle",
              "type": "uint256"
            },
            {
              "internalType": "uint256",
              "name": "feeReferral",
              "type": "uint256"
            }
          ],
          "indexed": false,
          "internalType": "struct Market.Frame",
          "name": "frame",
          "type": "tuple"
        }
      ],
      "name": "FrameUpdate",
      "type": "event"
    },
    {
      "anonymous": false,
      "inputs": [
        {
          "components": [
            {
              "internalType": "uint256",
              "name": "frameKey",
              "type": "uint256"
            },
            {
              "internalType": "uint256",
              "name": "lotKey",
              "type": "uint256"
            },
            {
              "components": [
                {
                  "internalType": "uint256",
                  "name": "blockNumber",
                  "type": "uint256"
                },
                {
                  "internalType": "uint256",
                  "name": "blockTimestamp",
                  "type": "uint256"
                },
                {
                  "internalType": "address",
                  "name": "owner",
                  "type": "address"
                },
                {
                  "internalType": "uint256",
                  "name": "acquisitionPrice",
                  "type": "uint256"
                },
                {
                  "internalType": "uint256",
                  "name": "taxCharged",
                  "type": "uint256"
                },
                {
                  "internalType": "uint256",
                  "name": "taxRefunded",
                  "type": "uint256"
                }
              ],
              "internalType": "struct Market.LotState[]",
              "name": "states",
              "type": "tuple[]"
            }
          ],
          "indexed": false,
          "internalType": "struct Market.Lot",
          "name": "lot",
          "type": "tuple"
        }
      ],
      "name": "LotUpdate",
      "type": "event"
    },
    {
      "inputs": [],
      "name": "accountingToken",
      "outputs": [
        {
          "internalType": "contract IERC20",
          "name": "",
          "type": "address"
        }
      ],
      "stateMutability": "view",
      "type": "function"
    },
    {
      "inputs": [],
      "name": "claimReferralRewards",
      "outputs": [],
      "stateMutability": "nonpayable",
      "type": "function"
    },
    {
      "inputs": [
        {
          "internalType": "uint256",
          "name": "timestamp",
          "type": "uint256"
        }
      ],
      "name": "clcFrameKey",
      "outputs": [
        {
          "internalType": "uint256",
          "name": "",
          "type": "uint256"
        }
      ],
      "stateMutability": "view",
      "type": "function"
    },
    {
      "inputs": [
        {
          "internalType": "uint256",
          "name": "value",
          "type": "uint256"
        }
      ],
      "name": "clcLotKey",
      "outputs": [
        {
          "internalType": "uint256",
          "name": "",
          "type": "uint256"
        }
      ],
      "stateMutability": "view",
      "type": "function"
    },
    {
      "inputs": [],
      "name": "clcRate",
      "outputs": [
        {
          "internalType": "uint256",
          "name": "",
          "type": "uint256"
        }
      ],
      "stateMutability": "view",
      "type": "function"
    },
    {
      "inputs": [
        {
          "internalType": "uint256",
          "name": "timestamp",
          "type": "uint256"
        }
      ],
      "name": "clcRateAvg",
      "outputs": [
        {
          "internalType": "uint256",
          "name": "",
          "type": "uint256"
        }
      ],
      "stateMutability": "view",
      "type": "function"
    },
    {
      "inputs": [
        {
          "internalType": "uint256",
          "name": "tax",
          "type": "uint256"
        }
      ],
      "name": "clcReferralReward",
      "outputs": [
        {
          "internalType": "uint256",
          "name": "",
          "type": "uint256"
        }
      ],
      "stateMutability": "view",
      "type": "function"
    },
    {
      "inputs": [
        {
          "internalType": "uint256",
          "name": "frameKey",
          "type": "uint256"
        }
      ],
      "name": "clcRewardFund",
      "outputs": [
        {
          "internalType": "uint256",
          "name": "",
          "type": "uint256"
        }
      ],
      "stateMutability": "view",
      "type": "function"
    },
    {
      "inputs": [
        {
          "internalType": "uint256",
          "name": "frameKey",
          "type": "uint256"
        }
      ],
      "name": "clcRewardFundMin",
      "outputs": [
        {
          "internalType": "uint256",
          "name": "",
          "type": "uint256"
        }
      ],
      "stateMutability": "view",
      "type": "function"
    },
    {
      "inputs": [
        {
          "internalType": "uint256",
          "name": "frameKey",
          "type": "uint256"
        },
        {
          "internalType": "uint256",
          "name": "acquisitionPrice",
          "type": "uint256"
        }
      ],
      "name": "clcTax",
      "outputs": [
        {
          "internalType": "uint256",
          "name": "",
          "type": "uint256"
        }
      ],
      "stateMutability": "view",
      "type": "function"
    },
    {
      "inputs": [],
      "name": "dPrice",
      "outputs": [
        {
          "internalType": "uint256",
          "name": "",
          "type": "uint256"
        }
      ],
      "stateMutability": "view",
      "type": "function"
    },
    {
      "inputs": [],
      "name": "feeProtocol",
      "outputs": [
        {
          "internalType": "uint256",
          "name": "",
          "type": "uint256"
        }
      ],
      "stateMutability": "view",
      "type": "function"
    },
    {
      "inputs": [
        {
          "internalType": "uint256",
          "name": "",
          "type": "uint256"
        }
      ],
      "name": "frames",
      "outputs": [
        {
          "internalType": "uint256",
          "name": "frameKey",
          "type": "uint256"
        },
        {
          "internalType": "uint256",
          "name": "rate",
          "type": "uint256"
        },
        {
          "internalType": "address",
          "name": "claimedBy",
          "type": "address"
        },
        {
          "internalType": "uint256",
          "name": "rateSettle",
          "type": "uint256"
        },
        {
          "internalType": "uint256",
          "name": "feeSettle",
          "type": "uint256"
        },
        {
          "internalType": "uint256",
          "name": "rewardSettle",
          "type": "uint256"
        },
        {
          "internalType": "uint256",
          "name": "feeReferral",
          "type": "uint256"
        }
      ],
      "stateMutability": "view",
      "type": "function"
    },
    {
      "inputs": [
        {
          "internalType": "uint256",
          "name": "",
          "type": "uint256"
        }
      ],
      "name": "framesKeys",
      "outputs": [
        {
          "internalType": "uint256",
          "name": "",
          "type": "uint256"
        }
      ],
      "stateMutability": "view",
      "type": "function"
    },
    {
      "inputs": [
        {
          "internalType": "uint256",
          "name": "frameKey",
          "type": "uint256"
        }
      ],
      "name": "getFrame",
      "outputs": [
        {
          "components": [
            {
              "internalType": "uint256",
              "name": "frameKey",
              "type": "uint256"
            },
            {
              "internalType": "uint256",
              "name": "rate",
              "type": "uint256"
            },
            {
              "internalType": "uint256[]",
              "name": "lotKeys",
              "type": "uint256[]"
            },
            {
              "internalType": "address",
              "name": "claimedBy",
              "type": "address"
            },
            {
              "internalType": "uint256",
              "name": "rateSettle",
              "type": "uint256"
            },
            {
              "internalType": "uint256",
              "name": "feeSettle",
              "type": "uint256"
            },
            {
              "internalType": "uint256",
              "name": "rewardSettle",
              "type": "uint256"
            },
            {
              "internalType": "uint256",
              "name": "feeReferral",
              "type": "uint256"
            }
          ],
          "internalType": "struct Market.Frame",
          "name": "",
          "type": "tuple"
        }
      ],
      "stateMutability": "view",
      "type": "function"
    },
    {
      "inputs": [
        {
          "internalType": "uint256",
          "name": "frameKey",
          "type": "uint256"
        }
      ],
      "name": "getFrameLotKeys",
      "outputs": [
        {
          "internalType": "uint256[]",
          "name": "",
          "type": "uint256[]"
        }
      ],
      "stateMutability": "view",
      "type": "function"
    },
    {
      "inputs": [
        {
          "internalType": "uint256",
          "name": "frameKey",
          "type": "uint256"
        },
        {
          "internalType": "uint256",
          "name": "lotKey",
          "type": "uint256"
        }
      ],
      "name": "getLot",
      "outputs": [
        {
          "components": [
            {
              "internalType": "uint256",
              "name": "frameKey",
              "type": "uint256"
            },
            {
              "internalType": "uint256",
              "name": "lotKey",
              "type": "uint256"
            },
            {
              "components": [
                {
                  "internalType": "uint256",
                  "name": "blockNumber",
                  "type": "uint256"
                },
                {
                  "internalType": "uint256",
                  "name": "blockTimestamp",
                  "type": "uint256"
                },
                {
                  "internalType": "address",
                  "name": "owner",
                  "type": "address"
                },
                {
                  "internalType": "uint256",
                  "name": "acquisitionPrice",
                  "type": "uint256"
                },
                {
                  "internalType": "uint256",
                  "name": "taxCharged",
                  "type": "uint256"
                },
                {
                  "internalType": "uint256",
                  "name": "taxRefunded",
                  "type": "uint256"
                }
              ],
              "internalType": "struct Market.LotState[]",
              "name": "states",
              "type": "tuple[]"
            }
          ],
          "internalType": "struct Market.Lot",
          "name": "",
          "type": "tuple"
        }
      ],
      "stateMutability": "view",
      "type": "function"
    },
    {
      "inputs": [
        {
          "internalType": "uint256",
          "name": "frameKey",
          "type": "uint256"
        },
        {
          "internalType": "uint256",
          "name": "lotKey",
          "type": "uint256"
        }
      ],
      "name": "getLotStates",
      "outputs": [
        {
          "components": [
            {
              "internalType": "uint256",
              "name": "blockNumber",
              "type": "uint256"
            },
            {
              "internalType": "uint256",
              "name": "blockTimestamp",
              "type": "uint256"
            },
            {
              "internalType": "address",
              "name": "owner",
              "type": "address"
            },
            {
              "internalType": "uint256",
              "name": "acquisitionPrice",
              "type": "uint256"
            },
            {
              "internalType": "uint256",
              "name": "taxCharged",
              "type": "uint256"
            },
            {
              "internalType": "uint256",
              "name": "taxRefunded",
              "type": "uint256"
            }
          ],
          "internalType": "struct Market.LotState[]",
          "name": "",
          "type": "tuple[]"
        }
      ],
      "stateMutability": "view",
      "type": "function"
    },
    {
      "inputs": [
        {
          "internalType": "uint256",
          "name": "frameKey",
          "type": "uint256"
        }
      ],
      "name": "getLotsKeysInFrame",
      "outputs": [
        {
          "internalType": "uint256[]",
          "name": "",
          "type": "uint256[]"
        }
      ],
      "stateMutability": "view",
      "type": "function"
    },
    {
      "inputs": [
        {
          "internalType": "uint256",
          "name": "frameKey",
          "type": "uint256"
        }
      ],
      "name": "getStateFrame",
      "outputs": [
        {
          "internalType": "enum Market.SFrame",
          "name": "",
          "type": "uint8"
        }
      ],
      "stateMutability": "view",
      "type": "function"
    },
    {
      "inputs": [
        {
          "internalType": "uint256",
          "name": "frameKey",
          "type": "uint256"
        },
        {
          "internalType": "uint256",
          "name": "lotKey",
          "type": "uint256"
        }
      ],
      "name": "getStateLot",
      "outputs": [
        {
          "internalType": "enum Market.SLot",
          "name": "",
          "type": "uint8"
        }
      ],
      "stateMutability": "view",
      "type": "function"
    },
    {
      "inputs": [],
      "name": "getUncollectedRewards",
      "outputs": [
        {
          "internalType": "uint256",
          "name": "",
          "type": "uint256"
        }
      ],
      "stateMutability": "view",
      "type": "function"
    },
    {
      "inputs": [
        {
          "internalType": "address",
          "name": "user",
          "type": "address"
        },
        {
          "internalType": "uint256",
          "name": "frameKey",
          "type": "uint256"
        }
      ],
      "name": "getUserReward",
      "outputs": [
        {
          "internalType": "uint256",
          "name": "",
          "type": "uint256"
        }
      ],
      "stateMutability": "view",
      "type": "function"
    },
    {
      "inputs": [],
      "name": "initTimestamp",
      "outputs": [
        {
          "internalType": "uint256",
          "name": "",
          "type": "uint256"
        }
      ],
      "stateMutability": "view",
      "type": "function"
    },
    {
      "inputs": [
        {
          "internalType": "uint256",
          "name": "",
          "type": "uint256"
        },
        {
          "internalType": "uint256",
          "name": "",
          "type": "uint256"
        }
      ],
      "name": "lots",
      "outputs": [
        {
          "internalType": "uint256",
          "name": "frameKey",
          "type": "uint256"
        },
        {
          "internalType": "uint256",
          "name": "lotKey",
          "type": "uint256"
        }
      ],
      "stateMutability": "view",
      "type": "function"
    },
    {
      "inputs": [
        {
          "components": [
            {
              "internalType": "uint256",
              "name": "frameKey",
              "type": "uint256"
            },
            {
              "internalType": "uint256",
              "name": "rate",
              "type": "uint256"
            },
            {
              "internalType": "uint256[]",
              "name": "lotKeys",
              "type": "uint256[]"
            },
            {
              "internalType": "address",
              "name": "claimedBy",
              "type": "address"
            },
            {
              "internalType": "uint256",
              "name": "rateSettle",
              "type": "uint256"
            },
            {
              "internalType": "uint256",
              "name": "feeSettle",
              "type": "uint256"
            },
            {
              "internalType": "uint256",
              "name": "rewardSettle",
              "type": "uint256"
            },
            {
              "internalType": "uint256",
              "name": "feeReferral",
              "type": "uint256"
            }
          ],
          "internalType": "struct Market.Frame",
          "name": "frame",
          "type": "tuple"
        },
        {
          "internalType": "uint256",
          "name": "avgPrice",
          "type": "uint256"
        }
      ],
      "name": "overrideFrameRate",
      "outputs": [],
      "stateMutability": "nonpayable",
      "type": "function"
    },
    {
      "inputs": [],
      "name": "owner",
      "outputs": [
        {
          "internalType": "address",
          "name": "",
          "type": "address"
        }
      ],
      "stateMutability": "view",
      "type": "function"
    },
    {
      "inputs": [],
      "name": "period",
      "outputs": [
        {
          "internalType": "uint256",
          "name": "",
          "type": "uint256"
        }
      ],
      "stateMutability": "view",
      "type": "function"
    },
    {
      "inputs": [],
      "name": "referralPct",
      "outputs": [
        {
          "internalType": "uint256",
          "name": "",
          "type": "uint256"
        }
      ],
      "stateMutability": "view",
      "type": "function"
    },
    {
      "inputs": [
        {
          "internalType": "address",
          "name": "user",
          "type": "address"
        }
      ],
      "name": "referredBy",
      "outputs": [
        {
          "internalType": "address",
          "name": "",
          "type": "address"
        }
      ],
      "stateMutability": "view",
      "type": "function"
    },
    {
      "inputs": [
        {
          "internalType": "uint256",
          "name": "frameKey",
          "type": "uint256"
        }
      ],
      "name": "setFrameRate",
      "outputs": [],
      "stateMutability": "nonpayable",
      "type": "function"
    },
    {
      "inputs": [
        {
          "internalType": "uint256",
          "name": "frameKey",
          "type": "uint256"
        }
      ],
      "name": "settleFrame",
      "outputs": [
        {
          "internalType": "uint256",
          "name": "",
          "type": "uint256"
        }
      ],
      "stateMutability": "nonpayable",
      "type": "function"
    },
    {
      "inputs": [],
      "name": "tSettle",
      "outputs": [
        {
          "internalType": "uint256",
          "name": "",
          "type": "uint256"
        }
      ],
      "stateMutability": "view",
      "type": "function"
    },
    {
      "inputs": [],
      "name": "taxMarket",
      "outputs": [
        {
          "internalType": "uint256",
          "name": "",
          "type": "uint256"
        }
      ],
      "stateMutability": "view",
      "type": "function"
    },
    {
      "inputs": [
        {
          "internalType": "uint256",
          "name": "timestamp",
          "type": "uint256"
        },
        {
          "internalType": "uint256",
          "name": "rate",
          "type": "uint256"
        },
        {
          "internalType": "uint256",
          "name": "acquisitionPrice",
          "type": "uint256"
        },
        {
          "internalType": "address",
          "name": "referrer",
          "type": "address"
        }
      ],
      "name": "tradeLot",
      "outputs": [],
      "stateMutability": "nonpayable",
      "type": "function"
    },
    {
      "inputs": [],
      "name": "uniswapPool",
      "outputs": [
        {
          "internalType": "contract IUniswapV3Pool",
          "name": "",
          "type": "address"
        }
      ],
      "stateMutability": "view",
      "type": "function"
    },
    {
      "inputs": [
        {
          "internalType": "address",
          "name": "user",
          "type": "address"
        }
      ],
      "name": "userExists",
      "outputs": [
        {
          "internalType": "bool",
          "name": "",
          "type": "bool"
        }
      ],
      "stateMutability": "view",
      "type": "function"
    },
    {
      "inputs": [
        {
          "internalType": "address",
          "name": "",
          "type": "address"
        }
      ],
      "name": "users",
      "outputs": [
        {
          "internalType": "bool",
          "name": "exists",
          "type": "bool"
        },
        {
          "internalType": "address",
          "name": "referredBy",
          "type": "address"
        }
      ],
      "stateMutability": "view",
      "type": "function"
    },
    {
      "inputs": [
        {
          "internalType": "uint256",
          "name": "amount",
          "type": "uint256"
        }
      ],
      "name": "withdrawAccountingToken",
      "outputs": [],
      "stateMutability": "nonpayable",
      "type": "function"
    }
  ],
  "bytecode": "0x608060405262015180600055636592e180600155666a94d74f430000600255610258600355600480546001600160a01b03199081167367a9fe12fa6082d9d0203c84c6c56d3c4b269f281790915568056bc75e2d63100000600555662386f26fc1000060065560078054909116738f3cf7ad23cd3cadbd9735aff958023239c6a0631790556611c37937e0800060095534801561009b57600080fd5b50600880546001600160a01b0319163317905561456e806100bd6000396000f3fe608060405234801561001057600080fd5b506004361061023d5760003560e01c80638da5cb5b1161013b578063bad12653116100b8578063da68cf8b1161007c578063da68cf8b14610605578063e107fb4f14610618578063ef78d4fd1461062b578063fb0d5e0914610634578063ffdabe2d1461065457600080fd5b8063bad1265314610599578063bdd3d825146105b9578063d154ab24146105cc578063d18743dd146105df578063d8d50008146105f257600080fd5b8063a87430ba116100ff578063a87430ba146104b4578063a90f8e9a14610506578063b866debb14610537578063b93dafa91461054a578063ba4e137f1461059157600080fd5b80638da5cb5b146103c257806391a0846d146103ed5780639592de18146104005780639e9c4f0814610413578063a10340bc1461041c57600080fd5b8063499a0fc4116101c95780636f1aefc31161018d5780636f1aefc3146103675780637358c57a14610387578063773d51eb146103905780637e996639146103b05780638a5779c8146103b957600080fd5b8063499a0fc41461030f5780634c73884f14610318578063527eb4bc1461033857806361eee2cb1461034157806369ca9e051461035457600080fd5b8063112358181161021057806311235818146102ce5780632457e620146102725780632fd4d773146102d657806339a6a489146102e95780633baf1587146102fc57600080fd5b8063050e88401461024257806305eaab4b146102685780630d0a1c1a146102725780630e666e4914610292575b600080fd5b610255610250366004613a98565b610667565b6040519081526020015b60405180910390f35b610270610688565b005b610285610280366004613a98565b6109e2565b60405161025f9190613ab1565b6102be6102a0366004613b1a565b6001600160a01b03166000908152600c602052604090205460ff1690565b604051901515815260200161025f565b610255610a47565b6102556102e4366004613a98565b610c63565b6102556102f7366004613a98565b610c8c565b61027061030a366004613a98565b610e59565b61025560055481565b61032b610326366004613b3e565b610f96565b60405161025f9190613b76565b61025560025481565b61025561034f366004613a98565b6110c2565b610270610362366004613c90565b6110f9565b61037a610375366004613b3e565b6111f5565b60405161025f9190613dcf565b61025560015481565b6103a361039e366004613a98565b61134c565b60405161025f9190613dfe565b61025560065481565b61025560035481565b6008546103d5906001600160a01b031681565b6040516001600160a01b03909116815260200161025f565b6102556103fb366004613eaa565b611488565b61025561040e366004613a98565b6114ed565b61025560095481565b61047161042a366004613a98565b600a602052600090815260409020805460018201546003830154600484015460058501546006860154600790960154949593946001600160a01b0390931693919290919087565b6040805197885260208801969096526001600160a01b03909416948601949094526060850191909152608084015260a083019190915260c082015260e00161025f565b6104e76104c2366004613b1a565b600c6020526000908152604090205460ff81169061010090046001600160a01b031682565b6040805192151583526001600160a01b0390911660208301520161025f565b6103d5610514366004613b1a565b6001600160a01b039081166000908152600c602052604090205461010090041690565b610255610545366004613a98565b611518565b61057c610558366004613b3e565b600d6020908152600092835260408084209091529082529020805460019091015482565b6040805192835260208301919091520161025f565b610255611a65565b6105ac6105a7366004613a98565b611b34565b60405161025f9190613ed6565b6004546103d5906001600160a01b031681565b6102556105da366004613a98565b611bcb565b6102706105ed366004613a98565b611e8f565b610270610600366004613eea565b611f77565b6007546103d5906001600160a01b031681565b610255610626366004613b3e565b6120b5565b61025560005481565b610647610642366004613b3e565b612177565b60405161025f9190613f2b565b610255610662366004613a98565b61222d565b600b818154811061067757600080fd5b600091825260209091200154905081565b336000908152600c602052604090205460ff166106c05760405162461bcd60e51b81526004016106b790613f3e565b60405180910390fd5b600b5460009067ffffffffffffffff8111156106de576106de613b90565b604051908082528060200260200182016040528015610707578160200160208202803683370190505b5090506000805b600b548110156107b1576004610740600b838154811061073057610730613f6b565b9060005260206000200154611b34565b600481111561075157610751613b60565b0361079f57600b818154811061076957610769613f6b565b906000526020600020015483838151811061078657610786613f6b565b60209081029190910101528161079b81613f97565b9250505b806107a981613f97565b91505061070e565b50600081116107f65760405162461bcd60e51b81526020600482015260116024820152704e6f20736574746c6564206672616d657360781b60448201526064016106b7565b6000805b8281101561092057336000908152600c6020526040812085516002909101919086908490811061082c5761082c613f6b565b602090810291909101810151825281019190915260400160009081205460ff161515900361090e57336000908152600c6020526040812085516001909101919086908490811061087e5761087e613f6b565b6020026020010151815260200190815260200160002054826108a09190613fb0565b91506001600c6000336001600160a01b03166001600160a01b0316815260200190815260200160002060020160008684815181106108e0576108e0613f6b565b6020026020010151815260200190815260200160002060006101000a81548160ff0219169083151502179055505b8061091881613f97565b9150506107fa565b50600081116109675760405162461bcd60e51b81526020600482015260136024820152724e6f207265776172647320746f20636c61696d60681b60448201526064016106b7565b60075460405163a9059cbb60e01b8152336004820152602481018390526001600160a01b039091169063a9059cbb906044016020604051808303816000875af11580156109b8573d6000803e3d6000fd5b505050506040513d601f19601f820116820180604052508101906109dc9190613fd3565b50505050565b6000818152600a6020908152604091829020600201805483518184028101840190945280845260609392830182828015610a3b57602002820191906000526020600020905b815481526020019060010190808311610a27575b50505050509050919050565b336000908152600c602052604081205460ff16610a765760405162461bcd60e51b81526004016106b790613f3e565b600b5460009067ffffffffffffffff811115610a9457610a94613b90565b604051908082528060200260200182016040528015610abd578160200160208202803683370190505b5090506000805b600b54811015610b57576004610ae6600b838154811061073057610730613f6b565b6004811115610af757610af7613b60565b03610b4557600b8181548110610b0f57610b0f613f6b565b9060005260206000200154838381518110610b2c57610b2c613f6b565b602090810291909101015281610b4181613f97565b9250505b80610b4f81613f97565b915050610ac4565b5060008111610b9c5760405162461bcd60e51b81526020600482015260116024820152704e6f20736574746c6564206672616d657360781b60448201526064016106b7565b6000805b82811015610c5b57336000908152600c60205260408120855160029091019190869084908110610bd257610bd2613f6b565b602090810291909101810151825281019190915260400160009081205460ff1615159003610c4957336000908152600c60205260408120855160019091019190869084908110610c2457610c24613f6b565b602002602001015181526020019081526020016000205482610c469190613fb0565b91505b80610c5381613f97565b915050610ba0565b509392505050565b6000670de0b6b3a764000060095483610c7c9190613fee565b610c86919061401b565b92915050565b600080805b6000848152600a6020526040902060020154811015610e52576000848152600a6020818152604080842080548552600d835290842088855292909152600201805483919085908110610ce557610ce5613f6b565b90600052602060002001548152602001908152602001600020604051806060016040529081600082015481526020016001820154815260200160028201805480602002602001604051908101604052809291908181526020016000905b82821015610db35760008481526020908190206040805160c08101825260068602909201805483526001808201548486015260028201546001600160a01b03169284019290925260038101546060840152600481015460808401526005015460a08301529083529092019101610d42565b5050505081525050905060005b816040015151811015610e3d5781604001518181518110610de357610de3613f6b565b60200260200101516080015184610dfa9190613fb0565b935081604001518181518110610e1257610e12613f6b565b602002602001015160a0015184610e29919061402f565b935080610e3581613f97565b915050610dc0565b50508080610e4a90613f97565b915050610c91565b5092915050565b610e9a60405180604001604052806012815260200171333930b6b2a5b2bc9015903832b934b7b21d60711b81525060005483610e959190613fb0565b612473565b610ecc6040518060400160405280601081526020016f313637b1b5973a34b6b2b9ba30b6b81d60811b81525042612473565b60008054828252600a6020526040909120544291610ee991613fb0565b1115610f375760405162461bcd60e51b815260206004820152601b60248201527f4672616d652068617320746f20626520696e207468652070617374000000000060448201526064016106b7565b6000610f428261222d565b6000838152600a6020526040908190206001810183905590519192507f929af310c689982c60d4ec73c6e4b602e89c6f6a31da7c2df4888fb0627cb2b191610f8a9190614077565b60405180910390a15050565b6000828152600d602090815260408083208484529091528120600101548103610fc157506000610c86565b6000610fcc84611b34565b6004811115610fdd57610fdd613b60565b03610fea57506000610c86565b6001610ff584611b34565b600481111561100657611006613b60565b148061102b5750600261101884611b34565b600481111561102957611029613b60565b145b1561103857506001610c86565b6000838152600d602090815260408083208584528252808320600190810154878552600a909352922090910154108015906110ac57506005546000848152600d602090815260408083208684529091529020600101546110989190613fb0565b6000848152600a6020526040902060010154105b156110b957506002610c86565b50600392915050565b600060015482116110d557505060015490565b6000546001546110e5908461402f565b6110ef91906140e9565b610c86908361402f565b6008546001600160a01b031633146111635760405162461bcd60e51b815260206004820152602760248201527f4f6e6c79206f776e65722063616e20757064617465206672616d6520636c6f736044820152666520707269636560c81b60648201526084016106b7565b81516000036111845760405162461bcd60e51b81526004016106b7906140fd565b60608201516001600160a01b0316156111df5760405162461bcd60e51b815260206004820181905260248201527f4672616d65207265776172642077617320616c726561647920636c61696d656460448201526064016106b7565b90516000908152600a6020526040902060010155565b61121960405180606001604052806000815260200160008152602001606081525090565b6000838152600d6020908152604080832085845290915281206001015490036112785760405162461bcd60e51b8152602060048201526011602482015270131bdd08191bd95cdb89dd08195e1a5cdd607a1b60448201526064016106b7565b6000838152600d602090815260408083208584528252808320815160608101835281548152600182015481850152600282018054845181870281018701865281815292969395948701949293919290919084015b8282101561133d5760008481526020908190206040805160c08101825260068602909201805483526001808201548486015260028201546001600160a01b03169284019290925260038101546060840152600481015460808401526005015460a083015290835290920191016112cc565b50505091525090949350505050565b61139d60405180610100016040528060008152602001600081526020016060815260200160006001600160a01b03168152602001600081526020016000815260200160008152602001600081525090565b6000828152600a602052604081205490036113ca5760405162461bcd60e51b81526004016106b7906140fd565b6000828152600a6020908152604091829020825161010081018452815481526001820154818401526002820180548551818602810186018752818152929593949386019383018282801561143d57602002820191906000526020600020905b815481526020019060010190808311611429575b505050918352505060038201546001600160a01b0316602082015260048201546040820152600582015460608201526006820154608082015260079091015460a09091015292915050565b6001600160a01b0382166000908152600c602052604081205460ff166114c05760405162461bcd60e51b81526004016106b790613f3e565b506001600160a01b03919091166000908152600c6020908152604080832093835260019093019052205490565b600060055482101561150157505060055490565b60055461150e818461401b565b610c869190613fee565b6000818152600a602052604081205481036115455760405162461bcd60e51b81526004016106b7906140fd565b600361155083611b34565b600481111561156157611561613b60565b146115ba5760405162461bcd60e51b8152602060048201526024808201527f4672616d6520646f6573206e6f742068617665206120636c6f73652072617465604482015263081cd95d60e21b60648201526084016106b7565b6000828152600a60205260408120600101546115d5906114ed565b6000848152600d60209081526040808320848452825280832081516060810183528154815260018201548185015260028201805484518187028101870186528181529798509596919592949386019391929091879084015b8282101561169e5760008481526020908190206040805160c08101825260068602909201805483526001808201548486015260028201546001600160a01b03169284019290925260038101546060840152600481015460808401526005015460a0830152908352909201910161162d565b5050505081525050905060006116b385610c8c565b90506000670de0b6b3a7640000600254836116ce9190613fee565b6116d8919061401b565b6000878152600a6020526040902060058101829055600701549091506116fe828461402f565b611708919061402f565b6000878152600a6020526040908190206006019190915583015151156118d757600754604084015180516001600160a01b039092169163a9059cbb91906117519060019061402f565b8151811061176157611761613f6b565b602002602001015160400151600a60008a8152602001908152602001600020600601546040518363ffffffff1660e01b81526004016117b59291906001600160a01b03929092168252602082015260400190565b6020604051808303816000875af11580156117d4573d6000803e3d6000fd5b505050506040513d601f19601f820116820180604052508101906117f89190613fd3565b506040830151805161180c9060019061402f565b8151811061181c5761181c613f6b565b6020908102919091018101516040908101516000898152600a909352918190206003810180546001600160a01b0319166001600160a01b03948516179055600754600854600590920154925163a9059cbb60e01b81529184166004830152602482019290925291169063a9059cbb906044016020604051808303816000875af11580156118ad573d6000803e3d6000fd5b505050506040513d601f19601f820116820180604052508101906118d19190613fd3565b506119b5565b6007546008546000888152600a6020526040902060058101546006909101546001600160a01b039384169363a9059cbb93169161191391613fb0565b6040516001600160e01b031960e085901b1681526001600160a01b03909216600483015260248201526044016020604051808303816000875af115801561195e573d6000803e3d6000fd5b505050506040513d601f19601f820116820180604052508101906119829190613fd3565b506008546000878152600a6020526040902060030180546001600160a01b0319166001600160a01b039092169190911790555b6000868152600a6020526040908190206001810154600490910155517f906ff162b3f2709ab28fb678d43913964434148dd206e9b17adb3c1255090cb1906119fe908590613dcf565b60405180910390a16000868152600a60205260409081902090517f929af310c689982c60d4ec73c6e4b602e89c6f6a31da7c2df4888fb0627cb2b191611a4391614077565b60405180910390a150505060009283525050600a602052604090206006015490565b6004805460408051633850c7bd60e01b8152905160009384936001600160a01b031692633850c7bd928183019260e0928290030181865afa158015611aae573d6000803e3d6000fd5b505050506040513d601f19601f82011682018060405250810190611ad2919061413c565b50505050505090506000816001600160a01b031690506000600160601b82670de0b6b3a7640000611b039190613fee565b611b0d919061401b565b9050670de0b6b3a7640000611b228280613fee565b611b2c919061401b565b949350505050565b6000818152600a60205260408120548103611b5157506000919050565b6000828152600a60205260409020600301546001600160a01b031615611b7957506004919050565b60008054838252600a602052604090912054611b959190613fb0565b421015611ba457506001919050565b6000828152600a602052604090206001015415611bc357506003919050565b506002919050565b6000818152600a60205260408120600701548190815b6000858152600a6020526040902060020154811015611e84576000858152600a6020818152604080842080548552600d835290842089855292909152600201805483919085908110611c3557611c35613f6b565b90600052602060002001548152602001908152602001600020604051806060016040529081600082015481526020016001820154815260200160028201805480602002602001604051908101604052809291908181526020016000905b82821015611d035760008481526020908190206040805160c08101825260068602909201805483526001808201548486015260028201546001600160a01b03169284019290925260038101546060840152600481015460808401526005015460a08301529083529092019101611c92565b5050505081525050905060005b816040015151811015611e6f5781604001518181518110611d3357611d33613f6b565b60200260200101516080015185611d4a9190613fb0565b945081604001518181518110611d6257611d62613f6b565b602002602001015160a0015185611d79919061402f565b6000888152600a6020526040902060020154909550611d9a9060019061402f565b8103611e5d576000611dcd8884604001518481518110611dbc57611dbc613f6b565b6020026020010151606001516120b5565b9050611dd9818761402f565b95506000600c600085604001518581518110611df757611df7613f6b565b6020908102919091018101516040908101516001600160a01b039081168452838301949094529182016000908120546101009004909316808452600c90915291205490915060ff1615611e5a57611e4d82610c63565b611e57908761402f565b95505b50505b80611e6781613f97565b915050611d10565b50508080611e7c90613f97565b915050611be1565b50611b2c818361402f565b6008546001600160a01b03163314611efa5760405162461bcd60e51b815260206004820152602860248201527f4f6e6c79206f776e65722063616e207769746864726177206163636f756e74696044820152673733903a37b5b2b760c11b60648201526084016106b7565b60075460085460405163a9059cbb60e01b81526001600160a01b0391821660048201526024810184905291169063a9059cbb906044016020604051808303816000875af1158015611f4f573d6000803e3d6000fd5b505050506040513d601f19601f82011682018060405250810190611f739190613fd3565b5050565b6000611f82856110c2565b90506000611f8f856114ed565b6000838152600d6020908152604080832084845290915281206001015491925003611fe7576000828152600a60205260408120549003611fd457611fd2866124b8565b505b611fe0828286866125f5565b50506109dc565b6000828152600d60209081526040808320848452909152902060020180543391906120149060019061402f565b8154811061202457612024613f6b565b60009182526020909120600260069092020101546001600160a01b03160361205157611fe0828286612905565b61205d82828686612d61565b6000828152600d602090815260408083208484529091529081902090517f906ff162b3f2709ab28fb678d43913964434148dd206e9b17adb3c1255090cb1916120a5916141d6565b60405180910390a1505050505050565b600042600054846120c69190613fb0565b116121135760405162461bcd60e51b815260206004820152601d60248201527f4672616d652068617320746f20626520696e207468652066757475726500000060448201526064016106b7565b60008054600654612124919061401b565b9050600042600054866121379190613fb0565b612141919061402f565b90506000670de0b6b3a7640000856121598585613fee565b6121639190613fee565b61216d919061401b565b9695505050505050565b6000828152600d602090815260408083208484528252808320600201805482518185028101850190935280835260609492939192909184015b828210156122215760008481526020908190206040805160c08101825260068602909201805483526001808201548486015260028201546001600160a01b03169284019290925260038101546060840152600481015460808401526005015460a083015290835290920191016121b0565b50505050905092915050565b600080600354834261223f919061402f565b6122499190613fb0565b90506000612257844261402f565b6040805160028082526060820183529293506000929091602083019080368337019050509050828160008151811061229157612291613f6b565b602002602001019063ffffffff16908163ffffffff168152505081816001815181106122bf576122bf613f6b565b63ffffffff909216602092830291909101909101526004805460405163883bdbfd60e01b81526000926001600160a01b039092169163883bdbfd9161230691869101614284565b600060405180830381865afa158015612323573d6000803e3d6000fd5b505050506040513d6000823e601f3d908101601f1916820160405261234b9190810190614326565b50905060008160008151811061236357612363613f6b565b602002602001015160060b8260018151811061238157612381613f6b565b602002602001015160060b61239691906143f2565b905060008112156123df5760405162461bcd60e51b81526020600482015260136024820152724e65676174697665207469636b2064656c746160681b60448201526064016106b7565b8060006123f563ffffffff80881690891661402f565b90506000612403828461401b565b9050600061241082613313565b9050600061242e66010000000000006001600160a01b03841661401b565b9050600061243c8280613fee565b90506000600160601b61245783670de0b6b3a7640000613fee565b612461919061401b565b9e9d5050505050505050505050505050565b611f738282604051602401612489929190614412565b60408051601f198184030181529190526020810180516001600160e01b0316632d839cb360e21b1790526136f6565b6000806124c4836110c2565b6000818152600a60205260409020549091501561251a5760405162461bcd60e51b81526020600482015260146024820152734672616d6520616c72656164792065786973747360601b60448201526064016106b7565b42600054826125299190613fb0565b10156125775760405162461bcd60e51b815260206004820152601d60248201527f4672616d652068617320746f20626520696e207468652066757475726500000060448201526064016106b7565b6000818152600a602052604090819020828155600b8054600181019091557f0175b7a638427703f0dbe7bb9bbf987a2551717b34e79f33b5b1008d1fa01db90183905590517f929af310c689982c60d4ec73c6e4b602e89c6f6a31da7c2df4888fb0627cb2b1916125e791614077565b60405180910390a192915050565b600061260185846120b5565b9050600081116126235760405162461bcd60e51b81526004016106b790614467565b600754604051636eb1769f60e11b815233600482015230602482015282916001600160a01b03169063dd62ed3e90604401602060405180830381865afa158015612671573d6000803e3d6000fd5b505050506040513d601f19601f8201168201806040525081019061269591906144c4565b10156126b35760405162461bcd60e51b81526004016106b7906144dd565b6000858152600d60209081526040808320878452909152902060010154156127125760405162461bcd60e51b81526020600482015260126024820152714c6f7420616c72656164792065786973747360701b60448201526064016106b7565b6040805160c081018252438152426020808301918252338385019081526060840188815260808501878152600060a087018181528d8252600d86528882208d835286529781208d815560018082018e90556002808301805480840182558186529885208b516006909a0201988955985191880191909155945194860180546001600160a01b0319166001600160a01b0390961695909517909455915160038501555160048401559451600590920191909155928790528054919291829182916127dd919081906139b2565b5050506000878152600a602090815260408083206001808601546002909201805491820181558552929093209091019190915560075490516323b872dd60e01b81526001600160a01b03909116906323b872dd9061284390339030908890600401614514565b6020604051808303816000875af1158015612862573d6000803e3d6000fd5b505050506040513d601f19601f820116820180604052508101906128869190613fd3565b50336000908152600c602052604090205460ff166128a7576128a784613702565b336000908152600c60205260408082205461010090046001600160a01b0316825290205460ff16156128fc57336000908152600c60205260409020546128fc9061010090046001600160a01b0316848961383e565b50505050505050565b6000838152600d602090815260408083208584529091528120600201805461295c9186916129359060019061402f565b8154811061294557612945613f6b565b9060005260206000209060060201600301546120b5565b9050600061296a85846120b5565b905080821115612b4f576000612980828461402f565b6007546000888152600d602090815260408083208a8452909152902060020180549293506001600160a01b039091169163a9059cbb91906129c39060019061402f565b815481106129d3576129d3613f6b565b600091825260209091206006909102016002015460405160e083901b6001600160e01b03191681526001600160a01b039091166004820152602481018490526044016020604051808303816000875af1158015612a34573d6000803e3d6000fd5b505050506040513d601f19601f82011682018060405250810190612a589190613fd3565b506000868152600d602090815260408083208884528252808320815160c0810183524381524281850190815233828501818152606084018c81526080850189815260a086018b81526002978801805460018082018355918d528b8d2098516006909102909801978855955195870195909555915195850180546001600160a01b0319166001600160a01b0397881617905551600385015551600484015590516005909201919091558452600c909252808320546101009004909116825290205460ff1615612b4957336000908152600c6020526040902054612b499061010090046001600160a01b031682886138ed565b50612d5a565b6000612b5b838361402f565b600754604051636eb1769f60e11b815233600482015230602482015291925082916001600160a01b039091169063dd62ed3e90604401602060405180830381865afa158015612bae573d6000803e3d6000fd5b505050506040513d601f19601f82011682018060405250810190612bd291906144c4565b1015612bf05760405162461bcd60e51b81526004016106b7906144dd565b6007546040516323b872dd60e01b81526001600160a01b03909116906323b872dd90612c2490339030908690600401614514565b6020604051808303816000875af1158015612c43573d6000803e3d6000fd5b505050506040513d601f19601f82011682018060405250810190612c679190613fd3565b506000868152600d602090815260408083208884528252808320815160c0810183524381524281850190815233828501818152606084018c8152608085018a815260a086018a81526002978801805460018082018355918d528b8d2098516006909102909801978855955195870195909555915195850180546001600160a01b0319166001600160a01b0397881617905551600385015551600484015590516005909201919091558452600c909252808320546101009004909116825290205460ff1615612d5857336000908152600c6020526040902054612d589061010090046001600160a01b0316828861383e565b505b5050505050565b6000848152600d6020908152604080832086845290915281206002018054612d8b9060019061402f565b81548110612d9b57612d9b613f6b565b600091825260208220600260069092020101546001600160a01b03169150612dc386856120b5565b905060008111612de55760405162461bcd60e51b81526004016106b790614467565b6000868152600d6020908152604080832088845290915281206002018054612e0f9060019061402f565b81548110612e1f57612e1f613f6b565b90600052602060002090600602016003015490508082612e3f9190613fb0565b600754604051636eb1769f60e11b81523360048201523060248201526001600160a01b039091169063dd62ed3e90604401602060405180830381865afa158015612e8d573d6000803e3d6000fd5b505050506040513d601f19601f82011682018060405250810190612eb191906144c4565b1015612ecf5760405162461bcd60e51b81526004016106b7906144dd565b6007546040516323b872dd60e01b81526001600160a01b03909116906323b872dd90612f0390339030908790600401614514565b6020604051808303816000875af1158015612f22573d6000803e3d6000fd5b505050506040513d601f19601f82011682018060405250810190612f469190613fd3565b506007546040516323b872dd60e01b81526001600160a01b03909116906323b872dd90612f7b90339087908690600401614514565b6020604051808303816000875af1158015612f9a573d6000803e3d6000fd5b505050506040513d601f19601f82011682018060405250810190612fbe9190613fd3565b506000878152600d6020908152604080832089845290915281206002018054612fef918a916129359060019061402f565b60075460405163a9059cbb60e01b81526001600160a01b0387811660048301526024820184905292935091169063a9059cbb906044016020604051808303816000875af1158015613044573d6000803e3d6000fd5b505050506040513d601f19601f820116820180604052508101906130689190613fd3565b50336000908152600c602052604090205460ff166130895761308985613702565b336000908152600c60205260408082205461010090046001600160a01b0316825290205460ff16156130de57336000908152600c60205260409020546130de9061010090046001600160a01b0316848a61383e565b6001600160a01b038085166000908152600c60205260408082205461010090049092168152205460ff1615613139576001600160a01b038085166000908152600c60205260409020546131399161010090910416828a6138ed565b600d600089815260200190815260200160002060008881526020019081526020016000206002016040518060c00160405280438152602001428152602001866001600160a01b0316815260200184815260200160008152602001838152509080600181540180825580915050600190039060005260206000209060060201600090919091909150600082015181600001556020820151816001015560408201518160020160006101000a8154816001600160a01b0302191690836001600160a01b03160217905550606082015181600301556080820151816004015560a082015181600501555050600d600089815260200190815260200160002060008881526020019081526020016000206002016040518060c00160405280438152602001428152602001336001600160a01b0316815260200188815260200185815260200160008152509080600181540180825580915050600190039060005260206000209060060201600090919091909150600082015181600001556020820151816001015560408201518160020160006101000a8154816001600160a01b0302191690836001600160a01b03160217905550606082015181600301556080820151816004015560a0820151816005015550505050505050505050565b600081620d89e881111561334d5760405162461bcd60e51b81526020600482015260016024820152601560fa1b60448201526064016106b7565b60008160011660000361336457600160801b613376565b6ffffcb933bd6fad37aa2d162d1a5940015b70ffffffffffffffffffffffffffffffffff16905060028216156133b55760806133b0826ffff97272373d413259a46990580e213a613fee565b901c90505b60048216156133df5760806133da826ffff2e50f5f656932ef12357cf3c7fdcc613fee565b901c90505b6008821615613409576080613404826fffe5caca7e10e4e61c3624eaa0941cd0613fee565b901c90505b601082161561343357608061342e826fffcb9843d60f6159c9db58835c926644613fee565b901c90505b602082161561345d576080613458826fff973b41fa98c081472e6896dfb254c0613fee565b901c90505b6040821615613487576080613482826fff2ea16466c96a3843ec78b326b52861613fee565b901c90505b60808216156134b15760806134ac826ffe5dee046a99a2a811c461f1969c3053613fee565b901c90505b6101008216156134dc5760806134d7826ffcbe86c7900a88aedcffc83b479aa3a4613fee565b901c90505b610200821615613507576080613502826ff987a7253ac413176f2b074cf7815e54613fee565b901c90505b61040082161561353257608061352d826ff3392b0822b70005940c7a398e4b70f3613fee565b901c90505b61080082161561355d576080613558826fe7159475a2c29b7443b29c7fa6e889d9613fee565b901c90505b611000821615613588576080613583826fd097f3bdfd2022b8845ad8f792aa5825613fee565b901c90505b6120008216156135b35760806135ae826fa9f746462d870fdf8a65dc1f90e061e5613fee565b901c90505b6140008216156135de5760806135d9826f70d869a156d2a1b890bb3df62baf32f7613fee565b901c90505b618000821615613609576080613604826f31be135f97d08fd981231505542fcfa6613fee565b901c90505b62010000821615613635576080613630826f09aa508b5b7a84e1c677de54f3e99bc9613fee565b901c90505b6202000082161561366057608061365b826e5d6af8dedb81196699c329225ee604613fee565b901c90505b6204000082161561368a576080613685826d2216e584f5fa1ea926041bedfe98613fee565b901c90505b620800008216156136b25760806136ad826b048a170391f7dc42444e8fa2613fee565b901c90505b83156136c7576136c48160001961401b565b90505b6136d6640100000000826140e9565b156136e25760016136e5565b60005b611b2c9060ff16602083901c613fb0565b6136ff81613991565b50565b336000908152600c602052604090205460ff16156137585760405162461bcd60e51b81526020600482015260136024820152725573657220616c72656164792065786973747360681b60448201526064016106b7565b6001600160a01b03811661379e57336000908152600c6020526040902080546001600160a01b0392909216610100026001600160a81b0319909216919091176001179055565b6001600160a01b0381166000908152600c602052604090205460ff166138065760405162461bcd60e51b815260206004820152601760248201527f526566657272657220646f6573206e6f7420657869737400000000000000000060448201526064016106b7565b336000908152600c6020526040902080546001600160a01b0392909216610100026001600160a81b0319909216919091176001179055565b6001600160a01b0383166000908152600c602052604090205460ff166138765760405162461bcd60e51b81526004016106b790613f3e565b600061388183610c63565b6001600160a01b0385166000908152600c602090815260408083208684526001019091528120805492935083929091906138bc908490613fb0565b90915550506000828152600a6020526040812060070180548392906138e2908490613fb0565b909155505050505050565b6001600160a01b0383166000908152600c602052604090205460ff166139255760405162461bcd60e51b81526004016106b790613f3e565b600061393083610c63565b6001600160a01b0385166000908152600c6020908152604080832086845260010190915281208054929350839290919061396b90849061402f565b90915550506000828152600a6020526040812060070180548392906138e290849061402f565b60006a636f6e736f6c652e6c6f679050600080835160208501845afa505050565b828054828255906000526020600020906006028101928215613a465760005260206000209160060282015b82811115613a4657825482556001808401549083015560028084015490830180546001600160a01b0319166001600160a01b03909216919091179055600380840154908301556004808401549083015560058084015490830155600692830192909101906139dd565b50613a52929150613a56565b5090565b5b80821115613a52576000808255600182018190556002820180546001600160a01b031916905560038201819055600482018190556005820155600601613a57565b600060208284031215613aaa57600080fd5b5035919050565b6020808252825182820181905260009190848201906040850190845b81811015613ae957835183529284019291840191600101613acd565b50909695505050505050565b6001600160a01b03811681146136ff57600080fd5b8035613b1581613af5565b919050565b600060208284031215613b2c57600080fd5b8135613b3781613af5565b9392505050565b60008060408385031215613b5157600080fd5b50508035926020909101359150565b634e487b7160e01b600052602160045260246000fd5b6020810160048310613b8a57613b8a613b60565b91905290565b634e487b7160e01b600052604160045260246000fd5b604051610100810167ffffffffffffffff81118282101715613bca57613bca613b90565b60405290565b604051601f8201601f1916810167ffffffffffffffff81118282101715613bf957613bf9613b90565b604052919050565b600067ffffffffffffffff821115613c1b57613c1b613b90565b5060051b60200190565b600082601f830112613c3657600080fd5b81356020613c4b613c4683613c01565b613bd0565b82815260059290921b84018101918181019086841115613c6a57600080fd5b8286015b84811015613c855780358352918301918301613c6e565b509695505050505050565b60008060408385031215613ca357600080fd5b823567ffffffffffffffff80821115613cbb57600080fd5b908401906101008287031215613cd057600080fd5b613cd8613ba6565b8235815260208301356020820152604083013582811115613cf857600080fd5b613d0488828601613c25565b604083015250613d1660608401613b0a565b60608201526080830135608082015260a083013560a082015260c083013560c082015260e083013560e0820152809450505050602083013590509250929050565b600081518084526020808501945080840160005b83811015613dc45781518051885283810151848901526040808201516001600160a01b031690890152606080820151908901526080808201519089015260a0908101519088015260c09096019590820190600101613d6b565b509495945050505050565b60208152815160208201526020820151604082015260006040830151606080840152611b2c6080840182613d57565b6000602080835261012083018451828501528185015160408501526040850151610100806060870152828251808552610140880191508584019450600093505b80841015613e5e5784518252938501936001939093019290850190613e3e565b5060608801516001600160a01b03811660808901529450608088015160a088015260a088015160c088015260c088015160e088015260e088015182880152809550505050505092915050565b60008060408385031215613ebd57600080fd5b8235613ec881613af5565b946020939093013593505050565b6020810160058310613b8a57613b8a613b60565b60008060008060808587031215613f0057600080fd5b8435935060208501359250604085013591506060850135613f2081613af5565b939692955090935050565b602081526000613b376020830184613d57565b602080825260139082015272155cd95c88191bd95cc81b9bdd08195e1a5cdd606a1b604082015260600190565b634e487b7160e01b600052603260045260246000fd5b634e487b7160e01b600052601160045260246000fd5b600060018201613fa957613fa9613f81565b5060010190565b80820180821115610c8657610c86613f81565b80518015158114613b1557600080fd5b600060208284031215613fe557600080fd5b613b3782613fc3565b8082028115828204841417610c8657610c86613f81565b634e487b7160e01b600052601260045260246000fd5b60008261402a5761402a614005565b500490565b81810381811115610c8657610c86613f81565b6000815480845260208085019450836000528060002060005b83811015613dc45781548752958201956001918201910161405b565b60208152815460208201526001820154604082015260006101008060608401526140a8610120840160028601614042565b60038501546001600160a01b03166080850152600485015460a0850152600585015460c0850152600685015460e08501526007909401549201919091525090565b6000826140f8576140f8614005565b500690565b602080825260139082015272119c985b5948191bd95cdb89dd08195e1a5cdd606a1b604082015260600190565b805161ffff81168114613b1557600080fd5b600080600080600080600060e0888a03121561415757600080fd5b875161416281613af5565b8097505060208801518060020b811461417a57600080fd5b95506141886040890161412a565b94506141966060890161412a565b93506141a46080890161412a565b925060a088015160ff811681146141ba57600080fd5b91506141c860c08901613fc3565b905092959891949750929550565b6000602080835260808084018554838601526001808701546040818189015260029150818901606080818b015285825480885260a09750878c0191508360005289600020935060005b818110156142725784548352878501548b840152868501546001600160a01b03168684015260038501548484015260048501548a84015260058501548984015260069094019360c090920191870161421f565b50909c9b505050505050505050505050565b6020808252825182820181905260009190848201906040850190845b81811015613ae957835163ffffffff16835292840192918401916001016142a0565b600082601f8301126142d357600080fd5b815160206142e3613c4683613c01565b82815260059290921b8401810191818101908684111561430257600080fd5b8286015b84811015613c8557805161431981613af5565b8352918301918301614306565b6000806040838503121561433957600080fd5b825167ffffffffffffffff8082111561435157600080fd5b818501915085601f83011261436557600080fd5b81516020614375613c4683613c01565b82815260059290921b8401810191818101908984111561439457600080fd5b948201945b838610156143c25785518060060b81146143b35760008081fd5b82529482019490820190614399565b918801519196509093505050808211156143db57600080fd5b506143e8858286016142c2565b9150509250929050565b8181036000831280158383131683831282161715610e5257610e52613f81565b604081526000835180604084015260005b818110156144405760208187018101516060868401015201614423565b506000606082850101526060601f19601f8301168401019150508260208301529392505050565b6020808252603c908201527f5461782068617320746f2062652067726561746572207468616e20302e20496e60408201527f63726561736520746865206163717569736974696f6e20707269636500000000606082015260800190565b6000602082840312156144d657600080fd5b5051919050565b6020808252601e908201527f416c6c6f77616e636520746f207370656e642073657420746f6f206c6f770000604082015260600190565b6001600160a01b03938416815291909216602082015260408101919091526060019056fea2646970667358221220a66c52018ad22e71b33aeea4c630b2f2f3e9c693d20eea7f2b188da16a03029464736f6c63430008140033",
  "linkReferences": {},
  "deployedLinkReferences": {}
}