{
  "_format": "hh-sol-artifact-1",
  "contractName": "Market",
  "sourceName": "contracts/Market.sol",
  "abi": [
    {
      "inputs": [],
      "stateMutability": "nonpayable",
      "type": "constructor"
    },
    {
      "anonymous": false,
      "inputs": [
        {
          "components": [
            {
              "internalType": "uint256",
              "name": "frameKey",
              "type": "uint256"
            },
            {
              "internalType": "uint256",
              "name": "rate",
              "type": "uint256"
            },
            {
              "internalType": "uint256[]",
              "name": "lotKeys",
              "type": "uint256[]"
            },
            {
              "internalType": "address",
              "name": "claimedBy",
              "type": "address"
            },
            {
              "internalType": "uint256",
              "name": "rateSettle",
              "type": "uint256"
            },
            {
              "internalType": "uint256",
              "name": "feeSettle",
              "type": "uint256"
            },
            {
              "internalType": "uint256",
              "name": "rewardSettle",
              "type": "uint256"
            }
          ],
          "indexed": false,
          "internalType": "struct Market.Frame",
          "name": "frame",
          "type": "tuple"
        }
      ],
      "name": "FrameUpdate",
      "type": "event"
    },
    {
      "anonymous": false,
      "inputs": [
        {
          "components": [
            {
              "internalType": "uint256",
              "name": "frameKey",
              "type": "uint256"
            },
            {
              "internalType": "uint256",
              "name": "lotKey",
              "type": "uint256"
            },
            {
              "components": [
                {
                  "internalType": "uint256",
                  "name": "blockNumber",
                  "type": "uint256"
                },
                {
                  "internalType": "uint256",
                  "name": "blockTimestamp",
                  "type": "uint256"
                },
                {
                  "internalType": "address",
                  "name": "owner",
                  "type": "address"
                },
                {
                  "internalType": "uint256",
                  "name": "acquisitionPrice",
                  "type": "uint256"
                },
                {
                  "internalType": "uint256",
                  "name": "taxCharged",
                  "type": "uint256"
                },
                {
                  "internalType": "uint256",
                  "name": "taxRefunded",
                  "type": "uint256"
                }
              ],
              "internalType": "struct Market.LotState[]",
              "name": "states",
              "type": "tuple[]"
            }
          ],
          "indexed": false,
          "internalType": "struct Market.Lot",
          "name": "lot",
          "type": "tuple"
        }
      ],
      "name": "LotUpdate",
      "type": "event"
    },
    {
      "inputs": [],
      "name": "accountingToken",
      "outputs": [
        {
          "internalType": "contract IERC20",
          "name": "",
          "type": "address"
        }
      ],
      "stateMutability": "view",
      "type": "function"
    },
    {
      "inputs": [
        {
          "internalType": "uint256",
          "name": "timestamp",
          "type": "uint256"
        }
      ],
      "name": "clcFrameKey",
      "outputs": [
        {
          "internalType": "uint256",
          "name": "",
          "type": "uint256"
        }
      ],
      "stateMutability": "view",
      "type": "function"
    },
    {
      "inputs": [
        {
          "internalType": "uint256",
          "name": "frameKey",
          "type": "uint256"
        }
      ],
      "name": "clcFrameRate",
      "outputs": [
        {
          "internalType": "uint256",
          "name": "",
          "type": "uint256"
        }
      ],
      "stateMutability": "view",
      "type": "function"
    },
    {
      "inputs": [
        {
          "internalType": "uint256",
          "name": "value",
          "type": "uint256"
        }
      ],
      "name": "clcLotKey",
      "outputs": [
        {
          "internalType": "uint256",
          "name": "",
          "type": "uint256"
        }
      ],
      "stateMutability": "view",
      "type": "function"
    },
    {
      "inputs": [],
      "name": "clcRate",
      "outputs": [
        {
          "internalType": "uint256",
          "name": "",
          "type": "uint256"
        }
      ],
      "stateMutability": "view",
      "type": "function"
    },
    {
      "inputs": [
        {
          "internalType": "uint256",
          "name": "timestamp",
          "type": "uint256"
        }
      ],
      "name": "clcRateAvg",
      "outputs": [
        {
          "internalType": "uint256",
          "name": "",
          "type": "uint256"
        }
      ],
      "stateMutability": "view",
      "type": "function"
    },
    {
      "inputs": [
        {
          "internalType": "uint256",
          "name": "frameKey",
          "type": "uint256"
        }
      ],
      "name": "clcRewardFund",
      "outputs": [
        {
          "internalType": "uint256",
          "name": "",
          "type": "uint256"
        }
      ],
      "stateMutability": "view",
      "type": "function"
    },
    {
      "inputs": [
        {
          "internalType": "uint256",
          "name": "frameKey",
          "type": "uint256"
        },
        {
          "internalType": "uint256",
          "name": "acquisitionPrice",
          "type": "uint256"
        }
      ],
      "name": "clcTax",
      "outputs": [
        {
          "internalType": "uint256",
          "name": "",
          "type": "uint256"
        }
      ],
      "stateMutability": "view",
      "type": "function"
    },
    {
      "inputs": [],
      "name": "dPrice",
      "outputs": [
        {
          "internalType": "uint256",
          "name": "",
          "type": "uint256"
        }
      ],
      "stateMutability": "view",
      "type": "function"
    },
    {
      "inputs": [],
      "name": "feeProtocol",
      "outputs": [
        {
          "internalType": "uint256",
          "name": "",
          "type": "uint256"
        }
      ],
      "stateMutability": "view",
      "type": "function"
    },
    {
      "inputs": [
        {
          "internalType": "uint256",
          "name": "",
          "type": "uint256"
        }
      ],
      "name": "frames",
      "outputs": [
        {
          "internalType": "uint256",
          "name": "frameKey",
          "type": "uint256"
        },
        {
          "internalType": "uint256",
          "name": "rate",
          "type": "uint256"
        },
        {
          "internalType": "address",
          "name": "claimedBy",
          "type": "address"
        },
        {
          "internalType": "uint256",
          "name": "rateSettle",
          "type": "uint256"
        },
        {
          "internalType": "uint256",
          "name": "feeSettle",
          "type": "uint256"
        },
        {
          "internalType": "uint256",
          "name": "rewardSettle",
          "type": "uint256"
        }
      ],
      "stateMutability": "view",
      "type": "function"
    },
    {
      "inputs": [
        {
          "internalType": "uint256",
          "name": "",
          "type": "uint256"
        }
      ],
      "name": "framesKeys",
      "outputs": [
        {
          "internalType": "uint256",
          "name": "",
          "type": "uint256"
        }
      ],
      "stateMutability": "view",
      "type": "function"
    },
    {
      "inputs": [
        {
          "internalType": "uint256",
          "name": "frameKey",
          "type": "uint256"
        }
      ],
      "name": "getFrame",
      "outputs": [
        {
          "components": [
            {
              "internalType": "uint256",
              "name": "frameKey",
              "type": "uint256"
            },
            {
              "internalType": "uint256",
              "name": "rate",
              "type": "uint256"
            },
            {
              "internalType": "uint256[]",
              "name": "lotKeys",
              "type": "uint256[]"
            },
            {
              "internalType": "address",
              "name": "claimedBy",
              "type": "address"
            },
            {
              "internalType": "uint256",
              "name": "rateSettle",
              "type": "uint256"
            },
            {
              "internalType": "uint256",
              "name": "feeSettle",
              "type": "uint256"
            },
            {
              "internalType": "uint256",
              "name": "rewardSettle",
              "type": "uint256"
            }
          ],
          "internalType": "struct Market.Frame",
          "name": "",
          "type": "tuple"
        }
      ],
      "stateMutability": "view",
      "type": "function"
    },
    {
      "inputs": [
        {
          "internalType": "uint256",
          "name": "frameKey",
          "type": "uint256"
        }
      ],
      "name": "getFrameLotKeys",
      "outputs": [
        {
          "internalType": "uint256[]",
          "name": "",
          "type": "uint256[]"
        }
      ],
      "stateMutability": "view",
      "type": "function"
    },
    {
      "inputs": [
        {
          "internalType": "uint256",
          "name": "frameKey",
          "type": "uint256"
        },
        {
          "internalType": "uint256",
          "name": "lotKey",
          "type": "uint256"
        }
      ],
      "name": "getLot",
      "outputs": [
        {
          "components": [
            {
              "internalType": "uint256",
              "name": "frameKey",
              "type": "uint256"
            },
            {
              "internalType": "uint256",
              "name": "lotKey",
              "type": "uint256"
            },
            {
              "components": [
                {
                  "internalType": "uint256",
                  "name": "blockNumber",
                  "type": "uint256"
                },
                {
                  "internalType": "uint256",
                  "name": "blockTimestamp",
                  "type": "uint256"
                },
                {
                  "internalType": "address",
                  "name": "owner",
                  "type": "address"
                },
                {
                  "internalType": "uint256",
                  "name": "acquisitionPrice",
                  "type": "uint256"
                },
                {
                  "internalType": "uint256",
                  "name": "taxCharged",
                  "type": "uint256"
                },
                {
                  "internalType": "uint256",
                  "name": "taxRefunded",
                  "type": "uint256"
                }
              ],
              "internalType": "struct Market.LotState[]",
              "name": "states",
              "type": "tuple[]"
            }
          ],
          "internalType": "struct Market.Lot",
          "name": "",
          "type": "tuple"
        }
      ],
      "stateMutability": "view",
      "type": "function"
    },
    {
      "inputs": [
        {
          "internalType": "uint256",
          "name": "frameKey",
          "type": "uint256"
        },
        {
          "internalType": "uint256",
          "name": "lotKey",
          "type": "uint256"
        }
      ],
      "name": "getLotStates",
      "outputs": [
        {
          "components": [
            {
              "internalType": "uint256",
              "name": "blockNumber",
              "type": "uint256"
            },
            {
              "internalType": "uint256",
              "name": "blockTimestamp",
              "type": "uint256"
            },
            {
              "internalType": "address",
              "name": "owner",
              "type": "address"
            },
            {
              "internalType": "uint256",
              "name": "acquisitionPrice",
              "type": "uint256"
            },
            {
              "internalType": "uint256",
              "name": "taxCharged",
              "type": "uint256"
            },
            {
              "internalType": "uint256",
              "name": "taxRefunded",
              "type": "uint256"
            }
          ],
          "internalType": "struct Market.LotState[]",
          "name": "",
          "type": "tuple[]"
        }
      ],
      "stateMutability": "view",
      "type": "function"
    },
    {
      "inputs": [
        {
          "internalType": "uint256",
          "name": "frameKey",
          "type": "uint256"
        }
      ],
      "name": "getLotsKeysInFrame",
      "outputs": [
        {
          "internalType": "uint256[]",
          "name": "",
          "type": "uint256[]"
        }
      ],
      "stateMutability": "view",
      "type": "function"
    },
    {
      "inputs": [
        {
          "internalType": "uint256",
          "name": "frameKey",
          "type": "uint256"
        }
      ],
      "name": "getStateFrame",
      "outputs": [
        {
          "internalType": "enum Market.SFrame",
          "name": "",
          "type": "uint8"
        }
      ],
      "stateMutability": "view",
      "type": "function"
    },
    {
      "inputs": [
        {
          "internalType": "uint256",
          "name": "frameKey",
          "type": "uint256"
        },
        {
          "internalType": "uint256",
          "name": "lotKey",
          "type": "uint256"
        }
      ],
      "name": "getStateLot",
      "outputs": [
        {
          "internalType": "enum Market.SLot",
          "name": "",
          "type": "uint8"
        }
      ],
      "stateMutability": "view",
      "type": "function"
    },
    {
      "inputs": [],
      "name": "initTimestamp",
      "outputs": [
        {
          "internalType": "uint256",
          "name": "",
          "type": "uint256"
        }
      ],
      "stateMutability": "view",
      "type": "function"
    },
    {
      "inputs": [
        {
          "internalType": "uint256",
          "name": "",
          "type": "uint256"
        },
        {
          "internalType": "uint256",
          "name": "",
          "type": "uint256"
        }
      ],
      "name": "lots",
      "outputs": [
        {
          "internalType": "uint256",
          "name": "frameKey",
          "type": "uint256"
        },
        {
          "internalType": "uint256",
          "name": "lotKey",
          "type": "uint256"
        }
      ],
      "stateMutability": "view",
      "type": "function"
    },
    {
      "inputs": [
        {
          "components": [
            {
              "internalType": "uint256",
              "name": "frameKey",
              "type": "uint256"
            },
            {
              "internalType": "uint256",
              "name": "rate",
              "type": "uint256"
            },
            {
              "internalType": "uint256[]",
              "name": "lotKeys",
              "type": "uint256[]"
            },
            {
              "internalType": "address",
              "name": "claimedBy",
              "type": "address"
            },
            {
              "internalType": "uint256",
              "name": "rateSettle",
              "type": "uint256"
            },
            {
              "internalType": "uint256",
              "name": "feeSettle",
              "type": "uint256"
            },
            {
              "internalType": "uint256",
              "name": "rewardSettle",
              "type": "uint256"
            }
          ],
          "internalType": "struct Market.Frame",
          "name": "frame",
          "type": "tuple"
        },
        {
          "internalType": "uint256",
          "name": "avgPrice",
          "type": "uint256"
        }
      ],
      "name": "overrideFrameRate",
      "outputs": [],
      "stateMutability": "nonpayable",
      "type": "function"
    },
    {
      "inputs": [],
      "name": "owner",
      "outputs": [
        {
          "internalType": "address",
          "name": "",
          "type": "address"
        }
      ],
      "stateMutability": "view",
      "type": "function"
    },
    {
      "inputs": [],
      "name": "period",
      "outputs": [
        {
          "internalType": "uint256",
          "name": "",
          "type": "uint256"
        }
      ],
      "stateMutability": "view",
      "type": "function"
    },
    {
      "inputs": [
        {
          "internalType": "uint256",
          "name": "frameKey",
          "type": "uint256"
        }
      ],
      "name": "setFrameRate",
      "outputs": [],
      "stateMutability": "nonpayable",
      "type": "function"
    },
    {
      "inputs": [
        {
          "internalType": "uint256",
          "name": "frameKey",
          "type": "uint256"
        }
      ],
      "name": "settleFrame",
      "outputs": [
        {
          "internalType": "uint256",
          "name": "",
          "type": "uint256"
        }
      ],
      "stateMutability": "nonpayable",
      "type": "function"
    },
    {
      "inputs": [],
      "name": "tSettle",
      "outputs": [
        {
          "internalType": "uint256",
          "name": "",
          "type": "uint256"
        }
      ],
      "stateMutability": "view",
      "type": "function"
    },
    {
      "inputs": [],
      "name": "taxMarket",
      "outputs": [
        {
          "internalType": "uint256",
          "name": "",
          "type": "uint256"
        }
      ],
      "stateMutability": "view",
      "type": "function"
    },
    {
      "inputs": [
        {
          "internalType": "uint256",
          "name": "timestamp",
          "type": "uint256"
        },
        {
          "internalType": "uint256",
          "name": "rate",
          "type": "uint256"
        },
        {
          "internalType": "uint256",
          "name": "acquisitionPrice",
          "type": "uint256"
        }
      ],
      "name": "tradeLot",
      "outputs": [],
      "stateMutability": "nonpayable",
      "type": "function"
    },
    {
      "inputs": [],
      "name": "uniswapPool",
      "outputs": [
        {
          "internalType": "contract IUniswapV3Pool",
          "name": "",
          "type": "address"
        }
      ],
      "stateMutability": "view",
      "type": "function"
    }
  ],
  "bytecode": "0x608060405262015180600055636592e18060015566b1a2bc2ec50000600255610258600355600480546001600160a01b03199081167367a9fe12fa6082d9d0203c84c6c56d3c4b269f281790915568056bc75e2d631000006005556611c37937e0800060065560078054909116738f3cf7ad23cd3cadbd9735aff958023239c6a06317905534801561009057600080fd5b50600880546001600160a01b03191633179055613250806100b26000396000f3fe608060405234801561001057600080fd5b50600436106101da5760003560e01c80637e99663911610104578063ba4e137f116100a2578063e107fb4f11610071578063e107fb4f146104a7578063ef78d4fd146104ba578063fb0d5e09146104c3578063ffdabe2d146104e357600080fd5b8063ba4e137f14610459578063bad1265314610461578063bdd3d82514610481578063da68cf8b1461049457600080fd5b80639592de18116100de5780639592de1814610364578063a10340bc14610377578063b866debb146103ff578063b93dafa91461041257600080fd5b80637e996639146103275780638a5779c8146103305780638da5cb5b1461033957600080fd5b80634c73884f1161017c5780636f1aefc31161014b5780636f1aefc3146102cb5780637358c57a146102eb578063773d51eb146102f457806378b486d01461031457600080fd5b80634c73884f1461027c578063527eb4bc1461029c57806361eee2cb146102a557806364772f21146102b857600080fd5b80632457e620116101b85780632457e6201461023a57806339a6a4891461024d5780633baf158714610260578063499a0fc41461027357600080fd5b8063050e8840146101df5780630d0a1c1a1461020557806321934d6914610225575b600080fd5b6101f26101ed366004612881565b6104f6565b6040519081526020015b60405180910390f35b610218610213366004612881565b610517565b6040516101fc919061289a565b610238610233366004612a02565b61057c565b005b610218610248366004612881565b61067d565b6101f261025b366004612881565b61070d565b61023861026e366004612881565b6108da565b6101f260055481565b61028f61028a366004612abe565b6109a4565b6040516101fc9190612af6565b6101f260025481565b6101f26102b3366004612881565b610ad1565b6102386102c6366004612b10565b610b08565b6102de6102d9366004612abe565b610c44565b6040516101fc9190612bb4565b6101f260015481565b610307610302366004612881565b610d9b565b6040516101fc9190612be3565b6101f2610322366004612881565b610ec4565b6101f260065481565b6101f260035481565b60085461034c906001600160a01b031681565b6040516001600160a01b0390911681526020016101fc565b6101f2610372366004612881565b610f2b565b6103c4610385366004612881565b600960205260009081526040902080546001820154600383015460048401546005850154600690950154939492936001600160a01b0390921692909186565b6040805196875260208701959095526001600160a01b03909316938501939093526060840152608083019190915260a082015260c0016101fc565b6101f261040d366004612881565b610f56565b610444610420366004612abe565b600b6020908152600092835260408084209091529082529020805460019091015482565b604080519283526020830191909152016101fc565b6101f2611387565b61047461046f366004612881565b611456565b6040516101fc9190612c83565b60045461034c906001600160a01b031681565b60075461034c906001600160a01b031681565b6101f26104b5366004612abe565b6114ed565b6101f260005481565b6104d66104d1366004612abe565b6115af565b6040516101fc9190612c97565b6101f26104f1366004612881565b611665565b600a818154811061050657600080fd5b600091825260209091200154905081565b60008181526009602090815260409182902060020180548351818402810184019094528084526060939283018282801561057057602002820191906000526020600020905b81548152602001906001019080831161055c575b50505050509050919050565b6008546001600160a01b031633146105eb5760405162461bcd60e51b815260206004820152602760248201527f4f6e6c79206f776e65722063616e20757064617465206672616d6520636c6f736044820152666520707269636560c81b60648201526084015b60405180910390fd5b815160000361060c5760405162461bcd60e51b81526004016105e290612cb1565b60608201516001600160a01b0316156106675760405162461bcd60e51b815260206004820181905260248201527f4672616d65207265776172642077617320616c726561647920636c61696d656460448201526064016105e2565b9051600090815260096020526040902060010155565b600081815260096020526040812054606091036106ac5760405162461bcd60e51b81526004016105e290612cb1565b60008281526009602090815260409182902060020180548351818402810184019094528084529091830182828015610570576020028201919060005260206000209081548152602001906001019080831161055c5750505050509050919050565b600080805b6000848152600960205260409020600201548110156108d357600084815260096020818152604080842080548552600b83529084208885529290915260020180548391908590811061076657610766612cde565b90600052602060002001548152602001908152602001600020604051806060016040529081600082015481526020016001820154815260200160028201805480602002602001604051908101604052809291908181526020016000905b828210156108345760008481526020908190206040805160c08101825260068602909201805483526001808201548486015260028201546001600160a01b03169284019290925260038101546060840152600481015460808401526005015460a083015290835290920191016107c3565b5050505081525050905060005b8160400151518110156108be578160400151818151811061086457610864612cde565b6020026020010151608001518461087b9190612d0a565b93508160400151818151811061089357610893612cde565b602002602001015160a00151846108aa9190612d1d565b9350806108b681612d30565b915050610841565b505080806108cb90612d30565b915050610712565b5092915050565b60008054828252600960205260409091205442916108f791612d0a565b11156109455760405162461bcd60e51b815260206004820152601b60248201527f4672616d652068617320746f20626520696e207468652070617374000000000060448201526064016105e2565b600061095082611665565b600083815260096020526040908190206001810183905590519192507f861dcb88c2eea524dd3c4d2026fc29c39249f4d090843bcc78037879d296c452916109989190612d49565b60405180910390a15050565b6000828152600b6020908152604080832084845290915281206001015481036109cf57506000610acb565b60006109da84611456565b60048111156109eb576109eb612ae0565b036109f857506000610acb565b6001610a0384611456565b6004811115610a1457610a14612ae0565b1480610a3957506002610a2684611456565b6004811115610a3757610a37612ae0565b145b15610a4657506001610acb565b6000838152600b602090815260408083208584528252808320600190810154878552600990935292209091015410801590610aba57506005546000848152600b60209081526040808320868452909152902060010154610aa69190612d0a565b600084815260096020526040902060010154105b15610ac757506002610acb565b5060035b92915050565b60006001548211610ae457505060015490565b600054600154610af49084612d1d565b610afe9190612dfd565b610acb9083612d1d565b6000610b1384610ad1565b90506000610b2084610f2b565b6000838152600b6020908152604080832084845290915281206001015491925003610b77576000828152600960205260408120549003610b6557610b63856118ab565b505b610b708282856119e7565b5050505050565b6000828152600b6020908152604080832084845290915290206002018054339190610ba490600190612d1d565b81548110610bb457610bb4612cde565b60009182526020909120600260069092020101546001600160a01b031603610be157610b70828285611df0565b610bed8282338661212a565b6000828152600b602090815260408083208484529091529081902090517f906ff162b3f2709ab28fb678d43913964434148dd206e9b17adb3c1255090cb191610c3591612e11565b60405180910390a15050505050565b610c6860405180606001604052806000815260200160008152602001606081525090565b6000838152600b602090815260408083208584529091528120600101549003610cc75760405162461bcd60e51b8152602060048201526011602482015270131bdd08191bd95cdb89dd08195e1a5cdd607a1b60448201526064016105e2565b6000838152600b602090815260408083208584528252808320815160608101835281548152600182015481850152600282018054845181870281018701865281815292969395948701949293919290919084015b82821015610d8c5760008481526020908190206040805160c08101825260068602909201805483526001808201548486015260028201546001600160a01b03169284019290925260038101546060840152600481015460808401526005015460a08301529083529092019101610d1b565b50505091525090949350505050565b610de46040518060e0016040528060008152602001600081526020016060815260200160006001600160a01b031681526020016000815260200160008152602001600081525090565b6000828152600960205260408120549003610e115760405162461bcd60e51b81526004016105e290612cb1565b600082815260096020908152604091829020825160e0810184528154815260018201548184015260028201805485518186028101860187528181529295939493860193830182828015610e8357602002820191906000526020600020905b815481526020019060010190808311610e6f575b505050918352505060038201546001600160a01b03166020820152600482015460408201526005820154606082015260069091015460809091015292915050565b60004260005483610ed59190612d0a565b1115610f235760405162461bcd60e51b815260206004820152601b60248201527f4672616d652068617320746f20626520696e207468652070617374000000000060448201526064016105e2565b506000919050565b6000600554821015610f3f57505060055490565b600554610f4c8184612ebf565b610acb9190612ed3565b6000818152600960205260408120548103610f835760405162461bcd60e51b81526004016105e290612cb1565b6003610f8e83611456565b6004811115610f9f57610f9f612ae0565b14610ff85760405162461bcd60e51b8152602060048201526024808201527f4672616d6520646f6573206e6f742068617665206120636c6f73652072617465604482015263081cd95d60e21b60648201526084016105e2565b60008281526009602052604081206001015461101390610f2b565b6000848152600b60209081526040808320848452825280832081516060810183528154815260018201548185015260028201805484518187028101870186528181529798509596919592949386019391929091879084015b828210156110dc5760008481526020908190206040805160c08101825260068602909201805483526001808201548486015260028201546001600160a01b03169284019290925260038101546060840152600481015460808401526005015460a0830152908352909201910161106b565b505050915250909150600290506110f385846109a4565b600381111561110457611104612ae0565b146111515760405162461bcd60e51b815260206004820152601c60248201527f4e6f2077696e6e696e67206c6f7420696e2074686973206672616d650000000060448201526064016105e2565b600061115c8561070d565b90506000670de0b6b3a7640000600254836111779190612ed3565b6111819190612ebf565b600087815260096020526040902060050181905590506111a18183612d1d565b60008781526009602052604090819020600601919091556007549084015180516001600160a01b039092169163a9059cbb91906111e090600190612d1d565b815181106111f0576111f0612cde565b602002602001015160400151600960008a8152602001908152602001600020600601546040518363ffffffff1660e01b81526004016112449291906001600160a01b03929092168252602082015260400190565b6020604051808303816000875af1158015611263573d6000803e3d6000fd5b505050506040513d601f19601f820116820180604052508101906112879190612efa565b506040830151805161129b90600190612d1d565b815181106112ab576112ab612cde565b6020026020010151604001516009600088815260200190815260200160002060030160006101000a8154816001600160a01b0302191690836001600160a01b031602179055507f906ff162b3f2709ab28fb678d43913964434148dd206e9b17adb3c1255090cb1836040516113209190612bb4565b60405180910390a16000868152600960205260409081902090517f861dcb88c2eea524dd3c4d2026fc29c39249f4d090843bcc78037879d296c4529161136591612d49565b60405180910390a1505050600092835250506009602052604090206006015490565b6004805460408051633850c7bd60e01b8152905160009384936001600160a01b031692633850c7bd928183019260e0928290030181865afa1580156113d0573d6000803e3d6000fd5b505050506040513d601f19601f820116820180604052508101906113f49190612f27565b50505050505090506000816001600160a01b031690506000600160601b82670de0b6b3a76400006114259190612ed3565b61142f9190612ebf565b9050670de0b6b3a76400006114448280612ed3565b61144e9190612ebf565b949350505050565b600081815260096020526040812054810361147357506000919050565b6000828152600960205260409020600301546001600160a01b03161561149b57506004919050565b6000805483825260096020526040909120546114b79190612d0a565b4210156114c657506001919050565b600082815260096020526040902060010154156114e557506003919050565b506002919050565b600042600054846114fe9190612d0a565b1161154b5760405162461bcd60e51b815260206004820152601d60248201527f4672616d652068617320746f20626520696e207468652066757475726500000060448201526064016105e2565b6000805460065461155c9190612ebf565b90506000426000548661156f9190612d0a565b6115799190612d1d565b90506000670de0b6b3a7640000856115918585612ed3565b61159b9190612ed3565b6115a59190612ebf565b9695505050505050565b6000828152600b602090815260408083208484528252808320600201805482518185028101850190935280835260609492939192909184015b828210156116595760008481526020908190206040805160c08101825260068602909201805483526001808201548486015260028201546001600160a01b03169284019290925260038101546060840152600481015460808401526005015460a083015290835290920191016115e8565b50505050905092915050565b60008060035483426116779190612d1d565b6116819190612d0a565b9050600061168f8442612d1d565b604080516002808252606082018352929350600092909160208301908036833701905050905082816000815181106116c9576116c9612cde565b602002602001019063ffffffff16908163ffffffff168152505081816001815181106116f7576116f7612cde565b63ffffffff909216602092830291909101909101526004805460405163883bdbfd60e01b81526000926001600160a01b039092169163883bdbfd9161173e91869101612fc1565b600060405180830381865afa15801561175b573d6000803e3d6000fd5b505050506040513d6000823e601f3d908101601f191682016040526117839190810190613063565b50905060008160008151811061179b5761179b612cde565b602002602001015160060b826001815181106117b9576117b9612cde565b602002602001015160060b6117ce919061312f565b905060008112156118175760405162461bcd60e51b81526020600482015260136024820152724e65676174697665207469636b2064656c746160681b60448201526064016105e2565b80600061182d63ffffffff808816908916612d1d565b9050600061183b8284612ebf565b9050600061184882612342565b9050600061186666010000000000006001600160a01b038416612ebf565b905060006118748280612ed3565b90506000600160601b61188f83670de0b6b3a7640000612ed3565b6118999190612ebf565b9e9d5050505050505050505050505050565b6000806118b783610ad1565b6000818152600960205260409020549091501561190d5760405162461bcd60e51b81526020600482015260146024820152734672616d6520616c72656164792065786973747360601b60448201526064016105e2565b60005461191a9042612d0a565b8110156119695760405162461bcd60e51b815260206004820152601e60248201527f43616e277420637265617465206672616d6520696e207468652070617374000060448201526064016105e2565b60008181526009602052604090819020828155600a8054600181019091557fc65a7bb8d6351c1cf70c95a316cc6a92839c986682d98bc35f958f4883f9d2a80183905590517f861dcb88c2eea524dd3c4d2026fc29c39249f4d090843bcc78037879d296c452916119d991612d49565b60405180910390a192915050565b60006119f384836114ed565b905060008111611a155760405162461bcd60e51b81526004016105e29061314f565b604080518082018252601781527f534f4c3a2062616c616e6365206f662073656e6465723a000000000000000000602082015260075491516370a0823160e01b8152336004820152611abb926001600160a01b0316906370a08231906024015b602060405180830381865afa158015611a92573d6000803e3d6000fd5b505050506040513d601f19601f82011682018060405250810190611ab691906131ac565b612725565b604080518082018252601881527f534f4c3a20416c6c6f77616e636520746f207370656e643a000000000000000060208201526007549151636eb1769f60e11b8152336004820152306024820152611b25926001600160a01b03169063dd62ed3e90604401611a75565b611b506040518060400160405280600981526020016829a7a61d103a30bc1d60b91b81525082612725565b600754604051636eb1769f60e11b815233600482015230602482015282916001600160a01b03169063dd62ed3e90604401602060405180830381865afa158015611b9e573d6000803e3d6000fd5b505050506040513d601f19601f82011682018060405250810190611bc291906131ac565b1015611c105760405162461bcd60e51b815260206004820152601e60248201527f416c6c6f77616e636520746f207370656e642073657420746f6f206c6f77000060448201526064016105e2565b6000848152600b6020908152604080832086845290915290206001015415611c6f5760405162461bcd60e51b81526020600482015260126024820152714c6f7420616c72656164792065786973747360701b60448201526064016105e2565b6040805160c081018252438152426020808301918252338385019081526060840187815260808501878152600060a087018181528c8252600b86528882208c835286529781208c815560018082018d90556002808301805480840182558186529885208b516006909a0201988955985191880191909155945194860180546001600160a01b0319166001600160a01b039096169590951790945591516003850155516004840155945160059092019190915592869052805491929182918291611d3a9190819061279b565b50505060008681526009602090815260408083206001858101546002909201805491820181558552929093209091019190915560075490516323b872dd60e01b8152336004820152306024820152604481018590526001600160a01b03909116906323b872dd906064016020604051808303816000875af1158015611dc3573d6000803e3d6000fd5b505050506040513d601f19601f82011682018060405250810190611de79190612efa565b50505050505050565b6000838152600b6020908152604080832085845290915281206002018054611e47918691611e2090600190612d1d565b81548110611e3057611e30612cde565b9060005260206000209060060201600301546114ed565b90506000611e5585846114ed565b905080821115611ff3576000611e6b8284612d1d565b6007546000888152600b602090815260408083208a8452909152902060020180549293506001600160a01b039091169163a9059cbb9190611eae90600190612d1d565b81548110611ebe57611ebe612cde565b600091825260209091206006909102016002015460405160e083901b6001600160e01b03191681526001600160a01b039091166004820152602481018490526044016020604051808303816000875af1158015611f1f573d6000803e3d6000fd5b505050506040513d601f19601f82011682018060405250810190611f439190612efa565b506000868152600b602090815260408083208884528252808320815160c0810183524381524281850190815233938201938452606082018a81526080830187815260a084019889526002948501805460018082018355918a529790982093516006909702909301958655905195850195909555915190830180546001600160a01b0319166001600160a01b0390921691909117905591516003820155905160048201559051600590910155610b70565b6000611fff8383612d1d565b6007546040516323b872dd60e01b8152336004820152306024820152604481018390529192506001600160a01b0316906323b872dd906064016020604051808303816000875af1158015612057573d6000803e3d6000fd5b505050506040513d601f19601f8201168201806040525081019061207b9190612efa565b506000958652600b60209081526040808820968852958152858720865160c0810188524381524281840190815233988201988952606082019788526080820194855260a082018a81526002938401805460018082018355918d5295909b20925160069095029092019384555198830198909855955195810180546001600160a01b0319166001600160a01b03909716969096179095559251600385015550505160048201559051600590910155565b600061213685836114ed565b9050600081116121585760405162461bcd60e51b81526004016105e29061314f565b600754604051636eb1769f60e11b815233600482015230602482015282916001600160a01b03169063dd62ed3e90604401602060405180830381865afa1580156121a6573d6000803e3d6000fd5b505050506040513d601f19601f820116820180604052508101906121ca91906131ac565b10156122185760405162461bcd60e51b815260206004820152601e60248201527f416c6c6f77616e636520746f207370656e642073657420746f6f206c6f77000060448201526064016105e2565b6007546040516323b872dd60e01b8152336004820152306024820152604481018390526001600160a01b03909116906323b872dd906064016020604051808303816000875af115801561226f573d6000803e3d6000fd5b505050506040513d601f19601f820116820180604052508101906122939190612efa565b506000948552600b60209081526040808720958752948152848620855160c081018752438152428184019081526001600160a01b03968716978201978852606082019586526080820194855260a082018981526002938401805460018082018355918c5295909a20925160069095029092019384555197830197909755945194810180546001600160a01b03191695909416949094179092555160038301555160048201559051600590910155565b600081620d89e881111561237c5760405162461bcd60e51b81526020600482015260016024820152601560fa1b60448201526064016105e2565b60008160011660000361239357600160801b6123a5565b6ffffcb933bd6fad37aa2d162d1a5940015b70ffffffffffffffffffffffffffffffffff16905060028216156123e45760806123df826ffff97272373d413259a46990580e213a612ed3565b901c90505b600482161561240e576080612409826ffff2e50f5f656932ef12357cf3c7fdcc612ed3565b901c90505b6008821615612438576080612433826fffe5caca7e10e4e61c3624eaa0941cd0612ed3565b901c90505b601082161561246257608061245d826fffcb9843d60f6159c9db58835c926644612ed3565b901c90505b602082161561248c576080612487826fff973b41fa98c081472e6896dfb254c0612ed3565b901c90505b60408216156124b65760806124b1826fff2ea16466c96a3843ec78b326b52861612ed3565b901c90505b60808216156124e05760806124db826ffe5dee046a99a2a811c461f1969c3053612ed3565b901c90505b61010082161561250b576080612506826ffcbe86c7900a88aedcffc83b479aa3a4612ed3565b901c90505b610200821615612536576080612531826ff987a7253ac413176f2b074cf7815e54612ed3565b901c90505b61040082161561256157608061255c826ff3392b0822b70005940c7a398e4b70f3612ed3565b901c90505b61080082161561258c576080612587826fe7159475a2c29b7443b29c7fa6e889d9612ed3565b901c90505b6110008216156125b75760806125b2826fd097f3bdfd2022b8845ad8f792aa5825612ed3565b901c90505b6120008216156125e25760806125dd826fa9f746462d870fdf8a65dc1f90e061e5612ed3565b901c90505b61400082161561260d576080612608826f70d869a156d2a1b890bb3df62baf32f7612ed3565b901c90505b618000821615612638576080612633826f31be135f97d08fd981231505542fcfa6612ed3565b901c90505b6201000082161561266457608061265f826f09aa508b5b7a84e1c677de54f3e99bc9612ed3565b901c90505b6202000082161561268f57608061268a826e5d6af8dedb81196699c329225ee604612ed3565b901c90505b620400008216156126b95760806126b4826d2216e584f5fa1ea926041bedfe98612ed3565b901c90505b620800008216156126e15760806126dc826b048a170391f7dc42444e8fa2612ed3565b901c90505b83156126f6576126f381600019612ebf565b90505b61270564010000000082612dfd565b15612711576001612714565b60005b61144e9060ff16602083901c612d0a565b61276a828260405160240161273b9291906131c5565b60408051601f198184030181529190526020810180516001600160e01b0316632d839cb360e21b17905261276e565b5050565b6127778161277a565b50565b60006a636f6e736f6c652e6c6f679050600080835160208501845afa505050565b82805482825590600052602060002090600602810192821561282f5760005260206000209160060282015b8281111561282f57825482556001808401549083015560028084015490830180546001600160a01b0319166001600160a01b03909216919091179055600380840154908301556004808401549083015560058084015490830155600692830192909101906127c6565b5061283b92915061283f565b5090565b5b8082111561283b576000808255600182018190556002820180546001600160a01b031916905560038201819055600482018190556005820155600601612840565b60006020828403121561289357600080fd5b5035919050565b6020808252825182820181905260009190848201906040850190845b818110156128d2578351835292840192918401916001016128b6565b50909695505050505050565b634e487b7160e01b600052604160045260246000fd5b60405160e0810167ffffffffffffffff81118282101715612917576129176128de565b60405290565b604051601f8201601f1916810167ffffffffffffffff81118282101715612946576129466128de565b604052919050565b600067ffffffffffffffff821115612968576129686128de565b5060051b60200190565b600082601f83011261298357600080fd5b813560206129986129938361294e565b61291d565b82815260059290921b840181019181810190868411156129b757600080fd5b8286015b848110156129d257803583529183019183016129bb565b509695505050505050565b6001600160a01b038116811461277757600080fd5b80356129fd816129dd565b919050565b60008060408385031215612a1557600080fd5b823567ffffffffffffffff80821115612a2d57600080fd5b9084019060e08287031215612a4157600080fd5b612a496128f4565b8235815260208301356020820152604083013582811115612a6957600080fd5b612a7588828601612972565b604083015250612a87606084016129f2565b60608201526080830135608082015260a083013560a082015260c083013560c0820152809450505050602083013590509250929050565b60008060408385031215612ad157600080fd5b50508035926020909101359150565b634e487b7160e01b600052602160045260246000fd5b6020810160048310612b0a57612b0a612ae0565b91905290565b600080600060608486031215612b2557600080fd5b505081359360208301359350604090920135919050565b600081518084526020808501945080840160005b83811015612ba95781518051885283810151848901526040808201516001600160a01b031690890152606080820151908901526080808201519089015260a0908101519088015260c09096019590820190600101612b50565b509495945050505050565b6020815281516020820152602082015160408201526000604083015160608084015261144e6080840182612b3c565b600060208083526101008301845182850152818501516040850152604085015160e06060860152818151808452610120870191508483019350600092505b80831015612c415783518252928401926001929092019190840190612c21565b5060608701516001600160a01b03811660808801529350608087015160a087015260a087015160c087015260c087015160e08701528094505050505092915050565b6020810160058310612b0a57612b0a612ae0565b602081526000612caa6020830184612b3c565b9392505050565b602080825260139082015272119c985b5948191bd95cdb89dd08195e1a5cdd606a1b604082015260600190565b634e487b7160e01b600052603260045260246000fd5b634e487b7160e01b600052601160045260246000fd5b80820180821115610acb57610acb612cf4565b81810381811115610acb57610acb612cf4565b600060018201612d4257612d42612cf4565b5060010190565b6020808252825482820152600180840154604084015260e06060840152600284018054610100850181905260009182528382209193929084906101208701905b80831015612da65784548252938301939183019190850190612d89565b5060038801546001600160a01b03166080880152600488015460a0880152600588015460c088015260069097015460e0909601959095525093949350505050565b634e487b7160e01b600052601260045260246000fd5b600082612e0c57612e0c612de7565b500690565b6000602080835260808084018554838601526001808701546040818189015260029150818901606080818b015285825480885260a09750878c0191508360005289600020935060005b81811015612ead5784548352878501548b840152868501546001600160a01b03168684015260038501548484015260048501548a84015260058501548984015260069094019360c0909201918701612e5a565b50909c9b505050505050505050505050565b600082612ece57612ece612de7565b500490565b8082028115828204841417610acb57610acb612cf4565b805180151581146129fd57600080fd5b600060208284031215612f0c57600080fd5b612caa82612eea565b805161ffff811681146129fd57600080fd5b600080600080600080600060e0888a031215612f4257600080fd5b8751612f4d816129dd565b8097505060208801518060020b8114612f6557600080fd5b9550612f7360408901612f15565b9450612f8160608901612f15565b9350612f8f60808901612f15565b925060a088015160ff81168114612fa557600080fd5b9150612fb360c08901612eea565b905092959891949750929550565b6020808252825182820181905260009190848201906040850190845b818110156128d257835163ffffffff1683529284019291840191600101612fdd565b600082601f83011261301057600080fd5b815160206130206129938361294e565b82815260059290921b8401810191818101908684111561303f57600080fd5b8286015b848110156129d2578051613056816129dd565b8352918301918301613043565b6000806040838503121561307657600080fd5b825167ffffffffffffffff8082111561308e57600080fd5b818501915085601f8301126130a257600080fd5b815160206130b26129938361294e565b82815260059290921b840181019181810190898411156130d157600080fd5b948201945b838610156130ff5785518060060b81146130f05760008081fd5b825294820194908201906130d6565b9188015191965090935050508082111561311857600080fd5b5061312585828601612fff565b9150509250929050565b81810360008312801583831316838312821617156108d3576108d3612cf4565b6020808252603c908201527f5461782068617320746f2062652067726561746572207468616e20302e20496e60408201527f63726561736520746865206163717569736974696f6e20707269636500000000606082015260800190565b6000602082840312156131be57600080fd5b5051919050565b604081526000835180604084015260005b818110156131f357602081870181015160608684010152016131d6565b506000606082850101526060601f19601f830116840101915050826020830152939250505056fea2646970667358221220bb67e9d0037b2742619bd26d1258670db3343f5f4fb32c896cbf308a5f3b067a64736f6c63430008140033",
  "linkReferences": {},
  "deployedLinkReferences": {}
}