{
  "_format": "hh-sol-artifact-1",
  "contractName": "Market",
  "sourceName": "contracts/Market.sol",
  "abi": [
    {
      "inputs": [
        {
          "internalType": "contract MarketFactory",
          "name": "_factory",
          "type": "address"
        },
        {
          "internalType": "contract IERC20",
          "name": "_token",
          "type": "address"
        },
        {
          "internalType": "contract IUniswapV2Pair",
          "name": "_uniswapPair",
          "type": "address"
        },
        {
          "internalType": "uint256",
          "name": "_period",
          "type": "uint256"
        },
        {
          "internalType": "uint256",
          "name": "_initTimestamp",
          "type": "uint256"
        },
        {
          "internalType": "uint256",
          "name": "_taxMarket",
          "type": "uint256"
        },
        {
          "internalType": "uint256",
          "name": "_feeMarket",
          "type": "uint256"
        },
        {
          "internalType": "uint256",
          "name": "_dPrice",
          "type": "uint256"
        },
        {
          "internalType": "uint256",
          "name": "_tReporting",
          "type": "uint256"
        },
        {
          "internalType": "uint256",
          "name": "_minTax",
          "type": "uint256"
        },
        {
          "internalType": "bool",
          "name": "_avgPriceSwitch",
          "type": "bool"
        }
      ],
      "stateMutability": "nonpayable",
      "type": "constructor"
    },
    {
      "anonymous": false,
      "inputs": [
        {
          "indexed": false,
          "internalType": "uint256",
          "name": "frameKey",
          "type": "uint256"
        },
        {
          "indexed": false,
          "internalType": "uint256",
          "name": "oracleTimestampStart",
          "type": "uint256"
        },
        {
          "indexed": false,
          "internalType": "uint256",
          "name": "oracleTimestampEnd",
          "type": "uint256"
        },
        {
          "indexed": false,
          "internalType": "uint256",
          "name": "oraclePrice0CumulativeStart",
          "type": "uint256"
        },
        {
          "indexed": false,
          "internalType": "uint256",
          "name": "oraclePrice0CumulativeEnd",
          "type": "uint256"
        },
        {
          "indexed": false,
          "internalType": "uint256",
          "name": "oraclePrice1CumulativeStart",
          "type": "uint256"
        },
        {
          "indexed": false,
          "internalType": "uint256",
          "name": "oraclePrice1CumulativeEnd",
          "type": "uint256"
        },
        {
          "indexed": false,
          "internalType": "uint256",
          "name": "rewardFund",
          "type": "uint256"
        }
      ],
      "name": "FrameUpdate",
      "type": "event"
    },
    {
      "anonymous": false,
      "inputs": [
        {
          "indexed": false,
          "internalType": "uint256",
          "name": "frameKey",
          "type": "uint256"
        },
        {
          "components": [
            {
              "internalType": "uint256",
              "name": "frameKey",
              "type": "uint256"
            },
            {
              "internalType": "uint256",
              "name": "lotKey",
              "type": "uint256"
            },
            {
              "internalType": "address",
              "name": "lotOwner",
              "type": "address"
            },
            {
              "internalType": "uint256",
              "name": "acquisitionPrice",
              "type": "uint256"
            },
            {
              "internalType": "enum MLib.SLot",
              "name": "state",
              "type": "uint8"
            }
          ],
          "indexed": false,
          "internalType": "struct MLib.Lot",
          "name": "lotStruct",
          "type": "tuple"
        }
      ],
      "name": "LotUpdate",
      "type": "event"
    },
    {
      "inputs": [
        {
          "internalType": "uint256",
          "name": "frameKey",
          "type": "uint256"
        },
        {
          "internalType": "uint256",
          "name": "avgPrice",
          "type": "uint256"
        }
      ],
      "name": "UpdateAvgPrice",
      "outputs": [],
      "stateMutability": "nonpayable",
      "type": "function"
    },
    {
      "inputs": [],
      "name": "accountingToken",
      "outputs": [
        {
          "internalType": "contract IERC20",
          "name": "",
          "type": "address"
        }
      ],
      "stateMutability": "view",
      "type": "function"
    },
    {
      "inputs": [],
      "name": "avgPriceSwitch",
      "outputs": [
        {
          "internalType": "bool",
          "name": "",
          "type": "bool"
        }
      ],
      "stateMutability": "view",
      "type": "function"
    },
    {
      "inputs": [
        {
          "internalType": "uint256",
          "name": "timestamp",
          "type": "uint256"
        },
        {
          "internalType": "uint256",
          "name": "pairPrice",
          "type": "uint256"
        },
        {
          "internalType": "uint256",
          "name": "acqPrice",
          "type": "uint256"
        }
      ],
      "name": "buyLot",
      "outputs": [],
      "stateMutability": "nonpayable",
      "type": "function"
    },
    {
      "inputs": [
        {
          "internalType": "uint256",
          "name": "frameKey",
          "type": "uint256"
        }
      ],
      "name": "claimReward",
      "outputs": [],
      "stateMutability": "nonpayable",
      "type": "function"
    },
    {
      "inputs": [
        {
          "internalType": "uint256",
          "name": "timestamp",
          "type": "uint256"
        }
      ],
      "name": "clcFrameTimestamp",
      "outputs": [
        {
          "internalType": "uint256",
          "name": "",
          "type": "uint256"
        }
      ],
      "stateMutability": "view",
      "type": "function"
    },
    {
      "inputs": [
        {
          "internalType": "uint256",
          "name": "value",
          "type": "uint256"
        }
      ],
      "name": "clcLotKey",
      "outputs": [
        {
          "internalType": "uint256",
          "name": "",
          "type": "uint256"
        }
      ],
      "stateMutability": "view",
      "type": "function"
    },
    {
      "inputs": [
        {
          "internalType": "uint256",
          "name": "frameKey",
          "type": "uint256"
        },
        {
          "internalType": "uint256",
          "name": "acquisitionPrice",
          "type": "uint256"
        }
      ],
      "name": "clcTax",
      "outputs": [
        {
          "internalType": "uint256",
          "name": "tax",
          "type": "uint256"
        }
      ],
      "stateMutability": "view",
      "type": "function"
    },
    {
      "inputs": [],
      "name": "dPrice",
      "outputs": [
        {
          "internalType": "uint256",
          "name": "",
          "type": "uint256"
        }
      ],
      "stateMutability": "view",
      "type": "function"
    },
    {
      "inputs": [],
      "name": "factory",
      "outputs": [
        {
          "internalType": "contract MarketFactory",
          "name": "",
          "type": "address"
        }
      ],
      "stateMutability": "view",
      "type": "function"
    },
    {
      "inputs": [],
      "name": "feeMarket",
      "outputs": [
        {
          "internalType": "uint256",
          "name": "",
          "type": "uint256"
        }
      ],
      "stateMutability": "view",
      "type": "function"
    },
    {
      "inputs": [],
      "name": "feeProtocol",
      "outputs": [
        {
          "internalType": "uint256",
          "name": "",
          "type": "uint256"
        }
      ],
      "stateMutability": "view",
      "type": "function"
    },
    {
      "inputs": [
        {
          "internalType": "uint256",
          "name": "",
          "type": "uint256"
        }
      ],
      "name": "frames",
      "outputs": [
        {
          "internalType": "uint256",
          "name": "frameKey",
          "type": "uint256"
        },
        {
          "internalType": "uint256",
          "name": "oracleTimestampStart",
          "type": "uint256"
        },
        {
          "internalType": "uint256",
          "name": "oracleTimestampEnd",
          "type": "uint256"
        },
        {
          "internalType": "uint256",
          "name": "rewardFund",
          "type": "uint256"
        },
        {
          "internalType": "uint256",
          "name": "priceAverage",
          "type": "uint256"
        },
        {
          "internalType": "uint256",
          "name": "oraclePrice0CumulativeStart",
          "type": "uint256"
        },
        {
          "internalType": "uint256",
          "name": "oraclePrice0CumulativeEnd",
          "type": "uint256"
        },
        {
          "internalType": "uint256",
          "name": "oraclePrice1CumulativeStart",
          "type": "uint256"
        },
        {
          "internalType": "uint256",
          "name": "oraclePrice1CumulativeEnd",
          "type": "uint256"
        },
        {
          "internalType": "enum MLib.SFrame",
          "name": "state",
          "type": "uint8"
        }
      ],
      "stateMutability": "view",
      "type": "function"
    },
    {
      "inputs": [
        {
          "internalType": "uint256",
          "name": "",
          "type": "uint256"
        }
      ],
      "name": "framesKeys",
      "outputs": [
        {
          "internalType": "uint256",
          "name": "",
          "type": "uint256"
        }
      ],
      "stateMutability": "view",
      "type": "function"
    },
    {
      "inputs": [
        {
          "internalType": "uint256",
          "name": "frameKey",
          "type": "uint256"
        }
      ],
      "name": "getFrame",
      "outputs": [
        {
          "components": [
            {
              "internalType": "uint256",
              "name": "frameKey",
              "type": "uint256"
            },
            {
              "internalType": "uint256",
              "name": "oracleTimestampStart",
              "type": "uint256"
            },
            {
              "internalType": "uint256",
              "name": "oracleTimestampEnd",
              "type": "uint256"
            },
            {
              "internalType": "uint256",
              "name": "rewardFund",
              "type": "uint256"
            },
            {
              "internalType": "uint256",
              "name": "priceAverage",
              "type": "uint256"
            },
            {
              "internalType": "uint256",
              "name": "oraclePrice0CumulativeStart",
              "type": "uint256"
            },
            {
              "internalType": "uint256",
              "name": "oraclePrice0CumulativeEnd",
              "type": "uint256"
            },
            {
              "internalType": "uint256",
              "name": "oraclePrice1CumulativeStart",
              "type": "uint256"
            },
            {
              "internalType": "uint256",
              "name": "oraclePrice1CumulativeEnd",
              "type": "uint256"
            },
            {
              "internalType": "enum MLib.SFrame",
              "name": "state",
              "type": "uint8"
            },
            {
              "internalType": "uint256[]",
              "name": "lotKeys",
              "type": "uint256[]"
            }
          ],
          "internalType": "struct MLib.Frame",
          "name": "",
          "type": "tuple"
        }
      ],
      "stateMutability": "view",
      "type": "function"
    },
    {
      "inputs": [
        {
          "internalType": "uint256",
          "name": "frameKey",
          "type": "uint256"
        }
      ],
      "name": "getFrameState",
      "outputs": [
        {
          "internalType": "enum MLib.SFrame",
          "name": "",
          "type": "uint8"
        }
      ],
      "stateMutability": "view",
      "type": "function"
    },
    {
      "inputs": [
        {
          "internalType": "uint256",
          "name": "frameKey",
          "type": "uint256"
        },
        {
          "internalType": "uint256",
          "name": "lotKey",
          "type": "uint256"
        }
      ],
      "name": "getLot",
      "outputs": [
        {
          "components": [
            {
              "internalType": "uint256",
              "name": "frameKey",
              "type": "uint256"
            },
            {
              "internalType": "uint256",
              "name": "lotKey",
              "type": "uint256"
            },
            {
              "internalType": "address",
              "name": "lotOwner",
              "type": "address"
            },
            {
              "internalType": "uint256",
              "name": "acquisitionPrice",
              "type": "uint256"
            },
            {
              "internalType": "enum MLib.SLot",
              "name": "state",
              "type": "uint8"
            }
          ],
          "internalType": "struct MLib.Lot",
          "name": "",
          "type": "tuple"
        }
      ],
      "stateMutability": "view",
      "type": "function"
    },
    {
      "inputs": [
        {
          "internalType": "uint256",
          "name": "frameKey",
          "type": "uint256"
        }
      ],
      "name": "getLotKeys",
      "outputs": [
        {
          "internalType": "uint256[]",
          "name": "",
          "type": "uint256[]"
        }
      ],
      "stateMutability": "view",
      "type": "function"
    },
    {
      "inputs": [],
      "name": "getNumberOfFrameKeys",
      "outputs": [
        {
          "internalType": "uint256",
          "name": "",
          "type": "uint256"
        }
      ],
      "stateMutability": "view",
      "type": "function"
    },
    {
      "inputs": [
        {
          "internalType": "uint256",
          "name": "frameKey",
          "type": "uint256"
        }
      ],
      "name": "hasValidPrices",
      "outputs": [],
      "stateMutability": "view",
      "type": "function"
    },
    {
      "inputs": [],
      "name": "initTimestamp",
      "outputs": [
        {
          "internalType": "uint256",
          "name": "",
          "type": "uint256"
        }
      ],
      "stateMutability": "view",
      "type": "function"
    },
    {
      "inputs": [
        {
          "internalType": "uint256",
          "name": "",
          "type": "uint256"
        },
        {
          "internalType": "uint256",
          "name": "",
          "type": "uint256"
        }
      ],
      "name": "lots",
      "outputs": [
        {
          "internalType": "uint256",
          "name": "frameKey",
          "type": "uint256"
        },
        {
          "internalType": "uint256",
          "name": "lotKey",
          "type": "uint256"
        },
        {
          "internalType": "address",
          "name": "lotOwner",
          "type": "address"
        },
        {
          "internalType": "uint256",
          "name": "acquisitionPrice",
          "type": "uint256"
        },
        {
          "internalType": "enum MLib.SLot",
          "name": "state",
          "type": "uint8"
        }
      ],
      "stateMutability": "view",
      "type": "function"
    },
    {
      "inputs": [],
      "name": "minTax",
      "outputs": [
        {
          "internalType": "uint256",
          "name": "",
          "type": "uint256"
        }
      ],
      "stateMutability": "view",
      "type": "function"
    },
    {
      "inputs": [],
      "name": "ownerMarket",
      "outputs": [
        {
          "internalType": "address",
          "name": "",
          "type": "address"
        }
      ],
      "stateMutability": "view",
      "type": "function"
    },
    {
      "inputs": [],
      "name": "period",
      "outputs": [
        {
          "internalType": "uint256",
          "name": "",
          "type": "uint256"
        }
      ],
      "stateMutability": "view",
      "type": "function"
    },
    {
      "inputs": [],
      "name": "scalar",
      "outputs": [
        {
          "internalType": "uint256",
          "name": "",
          "type": "uint256"
        }
      ],
      "stateMutability": "view",
      "type": "function"
    },
    {
      "inputs": [],
      "name": "tReporting",
      "outputs": [
        {
          "internalType": "uint256",
          "name": "",
          "type": "uint256"
        }
      ],
      "stateMutability": "view",
      "type": "function"
    },
    {
      "inputs": [],
      "name": "taxMarket",
      "outputs": [
        {
          "internalType": "uint256",
          "name": "",
          "type": "uint256"
        }
      ],
      "stateMutability": "view",
      "type": "function"
    },
    {
      "inputs": [],
      "name": "uniswapPair",
      "outputs": [
        {
          "internalType": "contract IUniswapV2Pair",
          "name": "",
          "type": "address"
        }
      ],
      "stateMutability": "view",
      "type": "function"
    },
    {
      "inputs": [],
      "name": "updateFramePrices",
      "outputs": [],
      "stateMutability": "nonpayable",
      "type": "function"
    },
    {
      "inputs": [
        {
          "internalType": "uint256",
          "name": "timestamp",
          "type": "uint256"
        },
        {
          "internalType": "uint256",
          "name": "pairPrice",
          "type": "uint256"
        },
        {
          "internalType": "uint256",
          "name": "acqPrice",
          "type": "uint256"
        }
      ],
      "name": "updateLotPrice",
      "outputs": [],
      "stateMutability": "nonpayable",
      "type": "function"
    },
    {
      "inputs": [
        {
          "internalType": "address",
          "name": "",
          "type": "address"
        },
        {
          "internalType": "uint256",
          "name": "",
          "type": "uint256"
        }
      ],
      "name": "userFrames",
      "outputs": [
        {
          "internalType": "uint256",
          "name": "",
          "type": "uint256"
        }
      ],
      "stateMutability": "view",
      "type": "function"
    }
  ],
  "bytecode": "0x608060405260646002556000600c60006101000a81548160ff02191690831515021790555069d3c21bcecceda1000000600d553480156200003f57600080fd5b50604051620049b5380380620049b5833981810160405281019062000065919062000238565b89600960006101000a81548173ffffffffffffffffffffffffffffffffffffffff021916908373ffffffffffffffffffffffffffffffffffffffff16021790555033600a60006101000a81548173ffffffffffffffffffffffffffffffffffffffff021916908373ffffffffffffffffffffffffffffffffffffffff1602179055508760008190555086600181905550856007819055508460068190555088600460006101000a81548173ffffffffffffffffffffffffffffffffffffffff021916908373ffffffffffffffffffffffffffffffffffffffff160217905550836005819055508a600860006101000a81548173ffffffffffffffffffffffffffffffffffffffff021916908373ffffffffffffffffffffffffffffffffffffffff1602179055508260038190555081600b8190555080600c60006101000a81548160ff021916908315150217905550505050505050505050505062000447565b600081519050620001d681620003c5565b92915050565b600081519050620001ed81620003df565b92915050565b6000815190506200020481620003f9565b92915050565b6000815190506200021b8162000413565b92915050565b60008151905062000232816200042d565b92915050565b60008060008060008060008060008060006101608c8e0312156200025b57600080fd5b60006200026b8e828f016200020a565b9b505060206200027e8e828f01620001dc565b9a50506040620002918e828f01620001f3565b9950506060620002a48e828f0162000221565b9850506080620002b78e828f0162000221565b97505060a0620002ca8e828f0162000221565b96505060c0620002dd8e828f0162000221565b95505060e0620002f08e828f0162000221565b945050610100620003048e828f0162000221565b935050610120620003188e828f0162000221565b9250506101406200032c8e828f01620001c5565b9150509295989b509295989b9093969950565b60006200034c826200039b565b9050919050565b60008115159050919050565b60006200036c826200033f565b9050919050565b600062000380826200033f565b9050919050565b600062000394826200033f565b9050919050565b600073ffffffffffffffffffffffffffffffffffffffff82169050919050565b6000819050919050565b620003d08162000353565b8114620003dc57600080fd5b50565b620003ea816200035f565b8114620003f657600080fd5b50565b620004048162000373565b81146200041057600080fd5b50565b6200041e8162000387565b81146200042a57600080fd5b50565b6200043881620003bb565b81146200044457600080fd5b50565b61455e80620004576000396000f3fe608060405234801561001057600080fd5b50600436106101f05760003560e01c80639592de181161010f578063c816841b116100a2578063ef78d4fd11610071578063ef78d4fd146105e0578063f109db84146105fe578063f45e65d81461062e578063ff5c86b01461064c576101f0565b8063c816841b14610558578063d529a39614610576578063da68cf8b14610592578063e107fb4f146105b0576101f0565b8063ae169a50116100de578063ae169a50146104ce578063b93dafa9146104ea578063bb15d2dd1461051e578063c45a01551461053a576101f0565b80639592de181461042b57806396b2c6f31461045b578063a10340bc14610465578063ab02f2a91461049e576101f0565b806360f65c6011610187578063773d51eb11610156578063773d51eb146103a15780637e996639146103d157806389da88a3146103ef5780638f9eca821461040d576101f0565b806360f65c6014610307578063652c8ded146103375780636f1aefc3146103535780637358c57a14610383576101f0565b806345084775116101c3578063450847751461027d578063499a0fc41461029b578063527eb4bc146102b95780635b3ad63e146102d7576101f0565b8063050e8840146101f55780633c80d8ea146102255780633d09a82a14610241578063410f07101461025f575b600080fd5b61020f600480360381019061020a91906133a0565b61066a565b60405161021c9190613e67565b60405180910390f35b61023f600480360381019061023a919061342e565b61068e565b005b610249610f0a565b6040516102569190613e67565b60405180910390f35b610267610f10565b6040516102749190613e67565b60405180910390f35b610285610f16565b6040516102929190613b3d565b60405180910390f35b6102a3610f3c565b6040516102b09190613e67565b60405180910390f35b6102c1610f42565b6040516102ce9190613e67565b60405180910390f35b6102f160048036038101906102ec91906133a0565b610f48565b6040516102fe9190613e67565b60405180910390f35b610321600480360381019061031c91906132ec565b610f8b565b60405161032e9190613e67565b60405180910390f35b610351600480360381019061034c91906133a0565b610fbc565b005b61036d600480360381019061036891906133f2565b611125565b60405161037a9190613e4c565b60405180910390f35b61038b61125f565b6040516103989190613e67565b60405180910390f35b6103bb60048036038101906103b691906133a0565b611265565b6040516103c89190613e2a565b60405180910390f35b6103d96113cc565b6040516103e69190613e67565b60405180910390f35b6103f76113d2565b6040516104049190613e67565b60405180910390f35b6104156113df565b6040516104229190613c03565b60405180910390f35b610445600480360381019061044091906133a0565b6113f2565b6040516104529190613e67565b60405180910390f35b610463611428565b005b61047f600480360381019061047a91906133a0565b61171c565b6040516104959a99989796959493929190613f7c565b60405180910390f35b6104b860048036038101906104b391906133a0565b61177d565b6040516104c59190613be1565b60405180910390f35b6104e860048036038101906104e391906133a0565b6117eb565b005b61050460048036038101906104ff91906133f2565b611800565b604051610515959493929190613eab565b60405180910390f35b6105386004803603810190610533919061342e565b611870565b005b610542611d88565b60405161054f9190613c54565b60405180910390f35b610560611dae565b60405161056d9190613c39565b60405180910390f35b610590600480360381019061058b91906133f2565b611dd4565b005b61059a611e58565b6040516105a79190613c1e565b60405180910390f35b6105ca60048036038101906105c591906133f2565b611e7e565b6040516105d79190613e67565b60405180910390f35b6105e8611ef3565b6040516105f59190613e67565b60405180910390f35b610618600480360381019061061391906133a0565b611ef9565b6040516106259190613c6f565b60405180910390f35b610636611f26565b6040516106439190613e67565b60405180910390f35b610654611f2c565b6040516106619190613e67565b60405180910390f35b6011818154811061067a57600080fd5b906000526020600020016000915090505481565b600061069984611f32565b90506106a581836120e2565b60006106b1828561213a565b90506106bc42610f48565b8210156106fe576040517f08c379a00000000000000000000000000000000000000000000000000000000081526004016106f590613caa565b60405180910390fd5b600e6000838152602001908152602001600020600082815260200190815260200160002060020160009054906101000a900473ffffffffffffffffffffffffffffffffffffffff1673ffffffffffffffffffffffffffffffffffffffff163373ffffffffffffffffffffffffffffffffffffffff1614156107b4576040517f08c379a00000000000000000000000000000000000000000000000000000000081526004016107ab90613d6a565b60405180910390fd5b60006107c08385611e7e565b905080600e60008581526020019081526020016000206000848152602001908152602001600020600301546107f59190614073565b600960009054906101000a900473ffffffffffffffffffffffffffffffffffffffff1673ffffffffffffffffffffffffffffffffffffffff1663dd62ed3e33306040518363ffffffff1660e01b8152600401610852929190613b58565b60206040518083038186803b15801561086a57600080fd5b505afa15801561087e573d6000803e3d6000fd5b505050506040513d601f19601f820116820180604052508101906108a291906133c9565b10156108e3576040517f08c379a00000000000000000000000000000000000000000000000000000000081526004016108da90613d8a565b60405180910390fd5b600960009054906101000a900473ffffffffffffffffffffffffffffffffffffffff1673ffffffffffffffffffffffffffffffffffffffff166323b872dd333084600e60008981526020019081526020016000206000888152602001908152602001600020600301546109569190614073565b6040518463ffffffff1660e01b815260040161097493929190613b81565b602060405180830381600087803b15801561098e57600080fd5b505af11580156109a2573d6000803e3d6000fd5b505050506040513d601f19601f820116820180604052508101906109c69190613328565b5080600f6000858152602001908152602001600020600301546109e99190614073565b600f60008581526020019081526020016000206003018190555060016002811115610a3d577f4e487b7100000000000000000000000000000000000000000000000000000000600052602160045260246000fd5b600e6000858152602001908152602001600020600084815260200190815260200160002060040160009054906101000a900460ff166002811115610aaa577f4e487b7100000000000000000000000000000000000000000000000000000000600052602160045260246000fd5b1415610c50576000610ae384600e6000878152602001908152602001600020600086815260200190815260200160002060030154611e7e565b9050600960009054906101000a900473ffffffffffffffffffffffffffffffffffffffff1673ffffffffffffffffffffffffffffffffffffffff1663a9059cbb600e6000878152602001908152602001600020600086815260200190815260200160002060020160009054906101000a900473ffffffffffffffffffffffffffffffffffffffff16600e600088815260200190815260200160002060008781526020019081526020016000206003015484610b9e9190614073565b6040518363ffffffff1660e01b8152600401610bbb929190613bb8565b602060405180830381600087803b158015610bd557600080fd5b505af1158015610be9573d6000803e3d6000fd5b505050506040513d601f19601f82011682018060405250810190610c0d9190613328565b5080600f600086815260200190815260200160002060030154610c309190614185565b600f60008681526020019081526020016000206003018190555050610cc7565b6001600e6000858152602001908152602001600020600084815260200190815260200160002060040160006101000a81548160ff02191690836002811115610cc1577f4e487b7100000000000000000000000000000000000000000000000000000000600052602160045260246000fd5b02179055505b33600e6000858152602001908152602001600020600084815260200190815260200160002060020160006101000a81548173ffffffffffffffffffffffffffffffffffffffff021916908373ffffffffffffffffffffffffffffffffffffffff16021790555083600e6000858152602001908152602001600020600084815260200190815260200160002060030181905550601060003373ffffffffffffffffffffffffffffffffffffffff1673ffffffffffffffffffffffffffffffffffffffff168152602001908152602001600020839080600181540180825580915050600190039060005260206000200160009091909190915055610dc7611428565b7ff733bd7f4402cb7d331b34d5cd22f432b9bf71a833f786974545860d74976af283600f600086815260200190815260200160002060010154600f600087815260200190815260200160002060020154600f600088815260200190815260200160002060050154600f600089815260200190815260200160002060060154600f60008a815260200190815260200160002060070154600f60008b815260200190815260200160002060080154600f60008c815260200190815260200160002060030154604051610e9e989796959493929190613efe565b60405180910390a17f74c5c6f5cd4370cc0ab554a1afdb2b24b051b40c99102354ef424aed5cd6409d83600e60008681526020019081526020016000206000858152602001908152602001600020604051610efa929190613e82565b60405180910390a1505050505050565b600b5481565b60065481565b600a60009054906101000a900473ffffffffffffffffffffffffffffffffffffffff1681565b60055481565b60025481565b60006001548211610f5d576001549050610f86565b60005460015483610f6e9190614185565b610f7891906143c2565b82610f839190614185565b90505b919050565b60106020528160005260406000208181548110610fa757600080fd5b90600052602060002001600091509150505481565b6000600f600083815260200190815260200160002060050154111580610ff957506000600f60008381526020019081526020016000206006015411155b8061101b57506000600f60008381526020019081526020016000206007015411155b8061103d57506000600f60008381526020019081526020016000206008015411155b1561107d576040517f08c379a000000000000000000000000000000000000000000000000000000000815260040161107490613d0a565b60405180910390fd5b600f600082815260200190815260200160002060060154600f60008381526020019081526020016000206005015414806110e25750600f600082815260200190815260200160002060080154600f600083815260200190815260200160002060070154145b15611122576040517f08c379a000000000000000000000000000000000000000000000000000000000815260040161111990613d0a565b60405180910390fd5b50565b61112d6130f0565b600e600084815260200190815260200160002060008381526020019081526020016000206040518060a001604052908160008201548152602001600182015481526020016002820160009054906101000a900473ffffffffffffffffffffffffffffffffffffffff1673ffffffffffffffffffffffffffffffffffffffff1673ffffffffffffffffffffffffffffffffffffffff168152602001600382015481526020016004820160009054906101000a900460ff16600281111561121b577f4e487b7100000000000000000000000000000000000000000000000000000000600052602160045260246000fd5b6002811115611253577f4e487b7100000000000000000000000000000000000000000000000000000000600052602160045260246000fd5b81525050905092915050565b60015481565b61126d61316d565b600f6000838152602001908152602001600020604051806101600160405290816000820154815260200160018201548152602001600282015481526020016003820154815260200160048201548152602001600582015481526020016006820154815260200160078201548152602001600882015481526020016009820160009054906101000a900460ff166002811115611331577f4e487b7100000000000000000000000000000000000000000000000000000000600052602160045260246000fd5b6002811115611369577f4e487b7100000000000000000000000000000000000000000000000000000000600052602160045260246000fd5b8152602001600a82018054806020026020016040519081016040528092919081815260200182805480156113bc57602002820191906000526020600020905b8154815260200190600101908083116113a8575b5050505050815250509050919050565b60075481565b6000601180549050905090565b600c60009054906101000a900460ff1681565b6000808211611405576005549050611423565b6005546005548361141691906140fa565b611420919061412b565b90505b919050565b600061143342610f48565b9050600354600054826114469190614073565b6114509190614185565b42101561158957611482600460009054906101000a900473ffffffffffffffffffffffffffffffffffffffff1661229d565b8063ffffffff169050600f60008581526020019081526020016000206005016000600f60008781526020019081526020016000206007016000600f60008981526020019081526020016000206001016000869190505585919050558491905055505050600f600082815260200190815260200160002060050154600f600083815260200190815260200160002060070154600f600084815260200190815260200160002060010154600f60008581526020019081526020016000206006016000600f60008781526020019081526020016000206008016000600f6000898152602001908152602001600020600201600086919050558591905055849190505550505061163a565b6003546000548261159a9190614073565b6115a49190614185565b4210611639576115d5600460009054906101000a900473ffffffffffffffffffffffffffffffffffffffff1661229d565b8063ffffffff169050600f60008581526020019081526020016000206006016000600f60008781526020019081526020016000206008016000600f600089815260200190815260200160002060020160008691905055859190505584919050555050505b5b7ff733bd7f4402cb7d331b34d5cd22f432b9bf71a833f786974545860d74976af281600f600084815260200190815260200160002060010154600f600085815260200190815260200160002060020154600f600086815260200190815260200160002060050154600f600087815260200190815260200160002060060154600f600088815260200190815260200160002060070154600f600089815260200190815260200160002060080154600f60008a815260200190815260200160002060030154604051611711989796959493929190613efe565b60405180910390a150565b600f6020528060005260406000206000915090508060000154908060010154908060020154908060030154908060040154908060050154908060060154908060070154908060080154908060090160009054906101000a900460ff1690508a565b6060600f6000838152602001908152602001600020600a018054806020026020016040519081016040528092919081815260200182805480156117df57602002820191906000526020600020905b8154815260200190600101908083116117cb575b50505050509050919050565b6117f4816124f8565b6117fd81612b4c565b50565b600e602052816000526040600020602052806000526040600020600091509150508060000154908060010154908060020160009054906101000a900473ffffffffffffffffffffffffffffffffffffffff16908060030154908060040160009054906101000a900460ff16905085565b600061187b84611f32565b905061188781836120e2565b6000611893828561213a565b90503373ffffffffffffffffffffffffffffffffffffffff16600e6000848152602001908152602001600020600083815260200190815260200160002060020160009054906101000a900473ffffffffffffffffffffffffffffffffffffffff1673ffffffffffffffffffffffffffffffffffffffff161461194a576040517f08c379a000000000000000000000000000000000000000000000000000000000815260040161194190613cca565b60405180910390fd5b61195342610f48565b821015611995576040517f08c379a000000000000000000000000000000000000000000000000000000000815260040161198c90613dea565b60405180910390fd5b60006119a18385611e7e565b905060006119d684600e6000878152602001908152602001600020600086815260200190815260200160002060030154611e7e565b905080821115611be35780826119ec9190614185565b600960009054906101000a900473ffffffffffffffffffffffffffffffffffffffff1673ffffffffffffffffffffffffffffffffffffffff1663dd62ed3e33306040518363ffffffff1660e01b8152600401611a49929190613b58565b60206040518083038186803b158015611a6157600080fd5b505afa158015611a75573d6000803e3d6000fd5b505050506040513d601f19601f82011682018060405250810190611a9991906133c9565b1015611ada576040517f08c379a0000000000000000000000000000000000000000000000000000000008152600401611ad190613d8a565b60405180910390fd5b600960009054906101000a900473ffffffffffffffffffffffffffffffffffffffff1673ffffffffffffffffffffffffffffffffffffffff166323b872dd33308486611b269190614185565b6040518463ffffffff1660e01b8152600401611b4493929190613b81565b602060405180830381600087803b158015611b5e57600080fd5b505af1158015611b72573d6000803e3d6000fd5b505050506040513d601f19601f82011682018060405250810190611b969190613328565b508082611ba39190614185565b600f600086815260200190815260200160002060030154611bc49190614073565b600f600086815260200190815260200160002060030181905550611cef565b80821015611cee57600960009054906101000a900473ffffffffffffffffffffffffffffffffffffffff1673ffffffffffffffffffffffffffffffffffffffff1663a9059cbb338484611c369190614185565b6040518363ffffffff1660e01b8152600401611c53929190613bb8565b602060405180830381600087803b158015611c6d57600080fd5b505af1158015611c81573d6000803e3d6000fd5b505050506040513d601f19601f82011682018060405250810190611ca59190613328565b508181611cb29190614185565b600f600086815260200190815260200160002060030154611cd39190614185565b600f6000868152602001908152602001600020600301819055505b5b84600e6000868152602001908152602001600020600085815260200190815260200160002060030181905550611d23611428565b7f74c5c6f5cd4370cc0ab554a1afdb2b24b051b40c99102354ef424aed5cd6409d84600e60008781526020019081526020016000206000868152602001908152602001600020604051611d77929190613e82565b60405180910390a150505050505050565b600860009054906101000a900473ffffffffffffffffffffffffffffffffffffffff1681565b600460009054906101000a900473ffffffffffffffffffffffffffffffffffffffff1681565b6001600f600084815260200190815260200160002060090160006101000a81548160ff02191690836002811115611e34577f4e487b7100000000000000000000000000000000000000000000000000000000600052602160045260246000fd5b021790555080600f6000848152602001908152602001600020600401819055505050565b600960009054906101000a900473ffffffffffffffffffffffffffffffffffffffff1681565b600080600054620186a060075485600d54611e99919061412b565b611ea3919061412b565b611ead91906140fa565b611eb791906140fa565b9050600d54814260005487611ecc9190614073565b611ed69190614185565b611ee0919061412b565b611eea91906140fa565b91505092915050565b60005481565b6000600f600083815260200190815260200160002060090160009054906101000a900460ff169050919050565b600d5481565b60035481565b600080611f3e83610f48565b905060006002811115611f7a577f4e487b7100000000000000000000000000000000000000000000000000000000600052602160045260246000fd5b600f600083815260200190815260200160002060090160009054906101000a900460ff166002811115611fd6577f4e487b7100000000000000000000000000000000000000000000000000000000600052602160045260246000fd5b14611fe457809150506120dd565b611fed42610f48565b81101561202f576040517f08c379a000000000000000000000000000000000000000000000000000000000815260040161202690613dca565b60405180910390fd5b80600f6000838152602001908152602001600020600001819055506001600f600083815260200190815260200160002060090160006101000a81548160ff021916908360028111156120aa577f4e487b7100000000000000000000000000000000000000000000000000000000600052602160045260246000fd5b02179055506011819080600181540180825580915050600190039060005260206000200160009091909190915055809150505b919050565b60006120ee8383611e7e565b9050600b54811015612135576040517f08c379a000000000000000000000000000000000000000000000000000000000815260040161212c90613d4a565b60405180910390fd5b505050565b600080612146836113f2565b905060006002811115612182577f4e487b7100000000000000000000000000000000000000000000000000000000600052602160045260246000fd5b600e6000868152602001908152602001600020600083815260200190815260200160002060040160009054906101000a900460ff1660028111156121ef577f4e487b7100000000000000000000000000000000000000000000000000000000600052602160045260246000fd5b146121fd5780915050612297565b83600e600086815260200190815260200160002060008381526020019081526020016000206000018190555080600e6000868152602001908152602001600020600083815260200190815260200160002060010181905550600f6000858152602001908152602001600020600a01819080600181540180825580915050600190039060005260206000200160009091909190915055809150505b92915050565b60008060006122aa612fc5565b90508373ffffffffffffffffffffffffffffffffffffffff16635909c0d56040518163ffffffff1660e01b815260040160206040518083038186803b1580156122f257600080fd5b505afa158015612306573d6000803e3d6000fd5b505050506040513d601f19601f8201168201806040525081019061232a91906133c9565b92508373ffffffffffffffffffffffffffffffffffffffff16635a3d54936040518163ffffffff1660e01b815260040160206040518083038186803b15801561237257600080fd5b505afa158015612386573d6000803e3d6000fd5b505050506040513d601f19601f820116820180604052508101906123aa91906133c9565b915060008060008673ffffffffffffffffffffffffffffffffffffffff16630902f1ac6040518163ffffffff1660e01b815260040160606040518083038186803b1580156123f757600080fd5b505afa15801561240b573d6000803e3d6000fd5b505050506040513d601f19601f8201168201806040525081019061242f9190613351565b9250925092508363ffffffff168163ffffffff16146124ee576000818561245691906141b9565b90508063ffffffff166124698486612fdd565b600001517bffffffffffffffffffffffffffffffffffffffffffffffffffffffff16612495919061412b565b876124a09190614073565b96508063ffffffff166124b38585612fdd565b600001517bffffffffffffffffffffffffffffffffffffffffffffffffffffffff166124df919061412b565b866124ea9190614073565b9550505b5050509193909250565b61250181610fbc565b42600054826125109190614073565b1115612551576040517f08c379a000000000000000000000000000000000000000000000000000000000815260040161254890613c8a565b60405180910390fd5b6002600f600083815260200190815260200160002060090160006101000a81548160ff021916908360028111156125b1577f4e487b7100000000000000000000000000000000000000000000000000000000600052602160045260246000fd5b02179055506000600860009054906101000a900473ffffffffffffffffffffffffffffffffffffffff1673ffffffffffffffffffffffffffffffffffffffff16638da5cb5b6040518163ffffffff1660e01b815260040160206040518083038186803b15801561262057600080fd5b505afa158015612634573d6000803e3d6000fd5b505050506040513d601f19601f8201168201806040525081019061265891906132c3565b90506000600f600084815260200190815260200160002060010154600f6000858152602001908152602001600020600201546126949190614185565b9050600c60009054906101000a900460ff161561275157612722604051806020016040528083600f600088815260200190815260200160002060050154600f6000898152602001908152602001600020600601546126f29190614185565b6126fc91906140fa565b7bffffffffffffffffffffffffffffffffffffffffffffffffffffffff168152506130bd565b6dffffffffffffffffffffffffffff16600f6000858152602001908152602001600020600401819055506127f3565b6127c8604051806020016040528083600f600088815260200190815260200160002060070154600f6000898152602001908152602001600020600801546127989190614185565b6127a291906140fa565b7bffffffffffffffffffffffffffffffffffffffffffffffffffffffff168152506130bd565b6dffffffffffffffffffffffffffff16600f6000858152602001908152602001600020600401819055505b600d54600f600085815260200190815260200160002060040154612817919061412b565b600f6000858152602001908152602001600020600401819055506000620186a0600654600f60008781526020019081526020016000206003015461285b919061412b565b61286591906140fa565b90506000620186a0600254600f600088815260200190815260200160002060030154612891919061412b565b61289b91906140fa565b90508082600f6000888152602001908152602001600020600301546128c09190614185565b6128ca9190614185565b600f600087815260200190815260200160002060030181905550600960009054906101000a900473ffffffffffffffffffffffffffffffffffffffff1673ffffffffffffffffffffffffffffffffffffffff1663a9059cbb600a60009054906101000a900473ffffffffffffffffffffffffffffffffffffffff16846040518363ffffffff1660e01b8152600401612963929190613bb8565b602060405180830381600087803b15801561297d57600080fd5b505af1158015612991573d6000803e3d6000fd5b505050506040513d601f19601f820116820180604052508101906129b59190613328565b50600960009054906101000a900473ffffffffffffffffffffffffffffffffffffffff1673ffffffffffffffffffffffffffffffffffffffff1663a9059cbb85836040518363ffffffff1660e01b8152600401612a13929190613bb8565b602060405180830381600087803b158015612a2d57600080fd5b505af1158015612a41573d6000803e3d6000fd5b505050506040513d601f19601f82011682018060405250810190612a659190613328565b507ff733bd7f4402cb7d331b34d5cd22f432b9bf71a833f786974545860d74976af285600f600088815260200190815260200160002060010154600f600089815260200190815260200160002060020154600f60008a815260200190815260200160002060050154600f60008b815260200190815260200160002060060154600f60008c815260200190815260200160002060070154600f60008d815260200190815260200160002060080154600f60008e815260200190815260200160002060030154604051612b3d989796959493929190613efe565b60405180910390a15050505050565b600280811115612b85577f4e487b7100000000000000000000000000000000000000000000000000000000600052602160045260246000fd5b600f600083815260200190815260200160002060090160009054906101000a900460ff166002811115612be1577f4e487b7100000000000000000000000000000000000000000000000000000000600052602160045260246000fd5b14612c21576040517f08c379a0000000000000000000000000000000000000000000000000000000008152600401612c1890613daa565b60405180910390fd5b6000612c42600f6000848152602001908152602001600020600401546113f2565b9050600280811115612c7d577f4e487b7100000000000000000000000000000000000000000000000000000000600052602160045260246000fd5b600e6000848152602001908152602001600020600083815260200190815260200160002060040160009054906101000a900460ff166002811115612cea577f4e487b7100000000000000000000000000000000000000000000000000000000600052602160045260246000fd5b1415612d2b576040517f08c379a0000000000000000000000000000000000000000000000000000000008152600401612d2290613d2a565b60405180910390fd5b600073ffffffffffffffffffffffffffffffffffffffff16600e6000848152602001908152602001600020600083815260200190815260200160002060020160009054906101000a900473ffffffffffffffffffffffffffffffffffffffff1673ffffffffffffffffffffffffffffffffffffffff161415612de2576040517f08c379a0000000000000000000000000000000000000000000000000000000008152600401612dd990613cea565b60405180910390fd5b600960009054906101000a900473ffffffffffffffffffffffffffffffffffffffff1673ffffffffffffffffffffffffffffffffffffffff1663a9059cbb600e6000858152602001908152602001600020600084815260200190815260200160002060020160009054906101000a900473ffffffffffffffffffffffffffffffffffffffff16600f6000868152602001908152602001600020600301546040518363ffffffff1660e01b8152600401612e9c929190613bb8565b602060405180830381600087803b158015612eb657600080fd5b505af1158015612eca573d6000803e3d6000fd5b505050506040513d601f19601f82011682018060405250810190612eee9190613328565b506002600e6000848152602001908152602001600020600083815260200190815260200160002060040160006101000a81548160ff02191690836002811115612f60577f4e487b7100000000000000000000000000000000000000000000000000000000600052602160045260246000fd5b02179055507f74c5c6f5cd4370cc0ab554a1afdb2b24b051b40c99102354ef424aed5cd6409d82600e60008581526020019081526020016000206000848152602001908152602001600020604051612fb9929190613e82565b60405180910390a15050565b600064010000000042612fd891906143c2565b905090565b612fe56131ff565b6000826dffffffffffffffffffffffffffff1611613038576040517f08c379a000000000000000000000000000000000000000000000000000000000815260040161302f90613e0a565b60405180910390fd5b6040518060200160405280836dffffffffffffffffffffffffffff16607060ff16866dffffffffffffffffffffffffffff167bffffffffffffffffffffffffffffffffffffffffffffffffffffffff16901b61309491906140c9565b7bffffffffffffffffffffffffffffffffffffffffffffffffffffffff16815250905092915050565b6000607060ff1682600001517bffffffffffffffffffffffffffffffffffffffffffffffffffffffff16901c9050919050565b6040518060a001604052806000815260200160008152602001600073ffffffffffffffffffffffffffffffffffffffff1681526020016000815260200160006002811115613167577f4e487b7100000000000000000000000000000000000000000000000000000000600052602160045260246000fd5b81525090565b604051806101600160405280600081526020016000815260200160008152602001600081526020016000815260200160008152602001600081526020016000815260200160008152602001600060028111156131f2577f4e487b7100000000000000000000000000000000000000000000000000000000600052602160045260246000fd5b8152602001606081525090565b604051806020016040528060007bffffffffffffffffffffffffffffffffffffffffffffffffffffffff1681525090565b60008135905061323f816144b5565b92915050565b600081519050613254816144b5565b92915050565b600081519050613269816144cc565b92915050565b60008151905061327e816144e3565b92915050565b600081359050613293816144fa565b92915050565b6000815190506132a8816144fa565b92915050565b6000815190506132bd81614511565b92915050565b6000602082840312156132d557600080fd5b60006132e384828501613245565b91505092915050565b600080604083850312156132ff57600080fd5b600061330d85828601613230565b925050602061331e85828601613284565b9150509250929050565b60006020828403121561333a57600080fd5b60006133488482850161325a565b91505092915050565b60008060006060848603121561336657600080fd5b60006133748682870161326f565b93505060206133858682870161326f565b9250506040613396868287016132ae565b9150509250925092565b6000602082840312156133b257600080fd5b60006133c084828501613284565b91505092915050565b6000602082840312156133db57600080fd5b60006133e984828501613299565b91505092915050565b6000806040838503121561340557600080fd5b600061341385828601613284565b925050602061342485828601613284565b9150509250929050565b60008060006060848603121561344357600080fd5b600061345186828701613284565b935050602061346286828701613284565b925050604061347386828701613284565b9150509250925092565b60006134898383613b1f565b60208301905092915050565b61349e81614224565b82525050565b6134ad81614224565b82525050565b60006134be82614028565b6134c88185614040565b93506134d383614018565b8060005b838110156135045781516134eb888261347d565b97506134f683614033565b9250506001810190506134d7565b5085935050505092915050565b600061351c82614028565b6135268185614051565b935061353183614018565b8060005b83811015613562578151613549888261347d565b975061355483614033565b925050600181019050613535565b5085935050505092915050565b61357881614236565b82525050565b613587816142e4565b82525050565b61359681614308565b82525050565b6135a58161432c565b82525050565b6135b481614350565b82525050565b6135c381614350565b82525050565b6135d281614362565b82525050565b6135e181614362565b82525050565b60006135f4601a83614062565b91507f4652414d4520454e442054494d45204e4f5420524541434845440000000000006000830152602082019050919050565b6000613634600b83614062565b91507f4c4f5420494e20504153540000000000000000000000000000000000000000006000830152602082019050919050565b6000613674600d83614062565b91507f4e4f54204c4f54204f574e4552000000000000000000000000000000000000006000830152602082019050919050565b60006136b4600883614062565b91507f4e4f204f574e45520000000000000000000000000000000000000000000000006000830152602082019050919050565b60006136f4601383614062565b91507f494e56414c4944204652414d45205052494345000000000000000000000000006000830152602082019050919050565b6000613734601383614062565b91507f4c4f5420414c524541445920534554544c4544000000000000000000000000006000830152602082019050919050565b6000613774601083614062565b91507f505249434520495320544f4f204c4f57000000000000000000000000000000006000830152602082019050919050565b60006137b4600d83614062565b91507f414c5245414459204f574e4552000000000000000000000000000000000000006000830152602082019050919050565b60006137f4601983614062565b91507f415050524f56454420414d4f554e5420544f4f20534d414c4c000000000000006000830152602082019050919050565b6000613834601083614062565b91507f4652414d45204e4f5420434c4f534544000000000000000000000000000000006000830152602082019050919050565b6000613874600d83614062565b91507f4652414d4520494e2050415354000000000000000000000000000000000000006000830152602082019050919050565b60006138b4601183614062565b91507f4c4f5420494e2050415354204652414d450000000000000000000000000000006000830152602082019050919050565b60006138f4601783614062565b91507f4669786564506f696e743a204449565f42595f5a45524f0000000000000000006000830152602082019050919050565b6000610160830160008301516139406000860182613b1f565b5060208301516139536020860182613b1f565b5060408301516139666040860182613b1f565b5060608301516139796060860182613b1f565b50608083015161398c6080860182613b1f565b5060a083015161399f60a0860182613b1f565b5060c08301516139b260c0860182613b1f565b5060e08301516139c560e0860182613b1f565b506101008301516139da610100860182613b1f565b506101208301516139ef6101208601826135ab565b50610140830151848203610140860152613a0982826134b3565b9150508091505092915050565b60a082016000820151613a2c6000850182613b1f565b506020820151613a3f6020850182613b1f565b506040820151613a526040850182613495565b506060820151613a656060850182613b1f565b506080820151613a7860808501826135c9565b50505050565b60a082016000808301549050613a93816143a8565b613aa06000860182613b1f565b5060018301549050613ab1816143a8565b613abe6020860182613b1f565b5060028301549050613acf81614374565b613adc6040860182613495565b5060038301549050613aed816143a8565b613afa6060860182613b1f565b5060048301549050613b0b8161438e565b613b1860808601826135c9565b5050505050565b613b28816142ca565b82525050565b613b37816142ca565b82525050565b6000602082019050613b5260008301846134a4565b92915050565b6000604082019050613b6d60008301856134a4565b613b7a60208301846134a4565b9392505050565b6000606082019050613b9660008301866134a4565b613ba360208301856134a4565b613bb06040830184613b2e565b949350505050565b6000604082019050613bcd60008301856134a4565b613bda6020830184613b2e565b9392505050565b60006020820190508181036000830152613bfb8184613511565b905092915050565b6000602082019050613c18600083018461356f565b92915050565b6000602082019050613c33600083018461357e565b92915050565b6000602082019050613c4e600083018461358d565b92915050565b6000602082019050613c69600083018461359c565b92915050565b6000602082019050613c8460008301846135ba565b92915050565b60006020820190508181036000830152613ca3816135e7565b9050919050565b60006020820190508181036000830152613cc381613627565b9050919050565b60006020820190508181036000830152613ce381613667565b9050919050565b60006020820190508181036000830152613d03816136a7565b9050919050565b60006020820190508181036000830152613d23816136e7565b9050919050565b60006020820190508181036000830152613d4381613727565b9050919050565b60006020820190508181036000830152613d6381613767565b9050919050565b60006020820190508181036000830152613d83816137a7565b9050919050565b60006020820190508181036000830152613da3816137e7565b9050919050565b60006020820190508181036000830152613dc381613827565b9050919050565b60006020820190508181036000830152613de381613867565b9050919050565b60006020820190508181036000830152613e03816138a7565b9050919050565b60006020820190508181036000830152613e23816138e7565b9050919050565b60006020820190508181036000830152613e448184613927565b905092915050565b600060a082019050613e616000830184613a16565b92915050565b6000602082019050613e7c6000830184613b2e565b92915050565b600060c082019050613e976000830185613b2e565b613ea46020830184613a7e565b9392505050565b600060a082019050613ec06000830188613b2e565b613ecd6020830187613b2e565b613eda60408301866134a4565b613ee76060830185613b2e565b613ef460808301846135d8565b9695505050505050565b600061010082019050613f14600083018b613b2e565b613f21602083018a613b2e565b613f2e6040830189613b2e565b613f3b6060830188613b2e565b613f486080830187613b2e565b613f5560a0830186613b2e565b613f6260c0830185613b2e565b613f6f60e0830184613b2e565b9998505050505050505050565b600061014082019050613f92600083018d613b2e565b613f9f602083018c613b2e565b613fac604083018b613b2e565b613fb9606083018a613b2e565b613fc66080830189613b2e565b613fd360a0830188613b2e565b613fe060c0830187613b2e565b613fed60e0830186613b2e565b613ffb610100830185613b2e565b6140096101208301846135ba565b9b9a5050505050505050505050565b6000819050602082019050919050565b600081519050919050565b6000602082019050919050565b600082825260208201905092915050565b600082825260208201905092915050565b600082825260208201905092915050565b600061407e826142ca565b9150614089836142ca565b9250827fffffffffffffffffffffffffffffffffffffffffffffffffffffffffffffffff038211156140be576140bd6143f3565b5b828201905092915050565b60006140d4826142a2565b91506140df836142a2565b9250826140ef576140ee614422565b5b828204905092915050565b6000614105826142ca565b9150614110836142ca565b9250826141205761411f614422565b5b828204905092915050565b6000614136826142ca565b9150614141836142ca565b9250817fffffffffffffffffffffffffffffffffffffffffffffffffffffffffffffffff048311821515161561417a576141796143f3565b5b828202905092915050565b6000614190826142ca565b915061419b836142ca565b9250828210156141ae576141ad6143f3565b5b828203905092915050565b60006141c4826142d4565b91506141cf836142d4565b9250828210156141e2576141e16143f3565b5b828203905092915050565b600073ffffffffffffffffffffffffffffffffffffffff82169050919050565b600060ff82169050919050565b6000819050919050565b600061422f82614282565b9050919050565b60008115159050919050565b60008190506142508261448d565b919050565b6000819050614263826144a1565b919050565b60006dffffffffffffffffffffffffffff82169050919050565b600073ffffffffffffffffffffffffffffffffffffffff82169050919050565b60007bffffffffffffffffffffffffffffffffffffffffffffffffffffffff82169050919050565b6000819050919050565b600063ffffffff82169050919050565b60006142ef826142f6565b9050919050565b600061430182614282565b9050919050565b60006143138261431a565b9050919050565b600061432582614282565b9050919050565b60006143378261433e565b9050919050565b600061434982614282565b9050919050565b600061435b82614242565b9050919050565b600061436d82614255565b9050919050565b600061438761438283614480565b6141ed565b9050919050565b60006143a161439c83614480565b61420d565b9050919050565b60006143bb6143b683614480565b61421a565b9050919050565b60006143cd826142ca565b91506143d8836142ca565b9250826143e8576143e7614422565b5b828206905092915050565b7f4e487b7100000000000000000000000000000000000000000000000000000000600052601160045260246000fd5b7f4e487b7100000000000000000000000000000000000000000000000000000000600052601260045260246000fd5b7f4e487b7100000000000000000000000000000000000000000000000000000000600052602160045260246000fd5b60008160001c9050919050565b6003811061449e5761449d614451565b5b50565b600381106144b2576144b1614451565b5b50565b6144be81614224565b81146144c957600080fd5b50565b6144d581614236565b81146144e057600080fd5b50565b6144ec81614268565b81146144f757600080fd5b50565b614503816142ca565b811461450e57600080fd5b50565b61451a816142d4565b811461452557600080fd5b5056fea264697066735822122054e54a9c606a42bb2b738a59fa1c9e0686863653247b605390acbfd936ea237764736f6c63430008000033",
  "linkReferences": {},
  "deployedLinkReferences": {}
}