{
  "_format": "hh-sol-artifact-1",
  "contractName": "Market",
  "sourceName": "contracts/Market.sol",
  "abi": [
    {
      "inputs": [
        {
          "internalType": "contract MarketFactory",
          "name": "_factory",
          "type": "address"
        },
        {
          "internalType": "contract IERC20",
          "name": "_token",
          "type": "address"
        },
        {
          "internalType": "contract IUniswapV2Pair",
          "name": "_uniswapPair",
          "type": "address"
        },
        {
          "internalType": "uint256",
          "name": "_period",
          "type": "uint256"
        },
        {
          "internalType": "uint256",
          "name": "_initTimestamp",
          "type": "uint256"
        },
        {
          "internalType": "uint256",
          "name": "_taxMarket",
          "type": "uint256"
        },
        {
          "internalType": "uint256",
          "name": "_feeMarket",
          "type": "uint256"
        },
        {
          "internalType": "uint256",
          "name": "_dPrice",
          "type": "uint256"
        },
        {
          "internalType": "uint256",
          "name": "_tReporting",
          "type": "uint256"
        },
        {
          "internalType": "uint256",
          "name": "_minTax",
          "type": "uint256"
        },
        {
          "internalType": "bool",
          "name": "_avgPriceSwitch",
          "type": "bool"
        }
      ],
      "stateMutability": "nonpayable",
      "type": "constructor"
    },
    {
      "anonymous": false,
      "inputs": [
        {
          "indexed": false,
          "internalType": "uint256",
          "name": "frameKey",
          "type": "uint256"
        },
        {
          "indexed": false,
          "internalType": "uint256",
          "name": "oracleTimestampStart",
          "type": "uint256"
        },
        {
          "indexed": false,
          "internalType": "uint256",
          "name": "oracleTimestampEnd",
          "type": "uint256"
        },
        {
          "indexed": false,
          "internalType": "uint256",
          "name": "oraclePrice0CumulativeStart",
          "type": "uint256"
        },
        {
          "indexed": false,
          "internalType": "uint256",
          "name": "oraclePrice0CumulativeEnd",
          "type": "uint256"
        },
        {
          "indexed": false,
          "internalType": "uint256",
          "name": "oraclePrice1CumulativeStart",
          "type": "uint256"
        },
        {
          "indexed": false,
          "internalType": "uint256",
          "name": "oraclePrice1CumulativeEnd",
          "type": "uint256"
        },
        {
          "indexed": false,
          "internalType": "uint256",
          "name": "rewardFund",
          "type": "uint256"
        }
      ],
      "name": "FrameUpdate",
      "type": "event"
    },
    {
      "anonymous": false,
      "inputs": [
        {
          "indexed": false,
          "internalType": "uint256",
          "name": "frameKey",
          "type": "uint256"
        },
        {
          "components": [
            {
              "internalType": "uint256",
              "name": "frameKey",
              "type": "uint256"
            },
            {
              "internalType": "uint256",
              "name": "lotKey",
              "type": "uint256"
            },
            {
              "internalType": "address",
              "name": "lotOwner",
              "type": "address"
            },
            {
              "internalType": "uint256",
              "name": "acquisitionPrice",
              "type": "uint256"
            },
            {
              "internalType": "enum MLib.SLot",
              "name": "state",
              "type": "uint8"
            }
          ],
          "indexed": false,
          "internalType": "struct MLib.Lot",
          "name": "lotStruct",
          "type": "tuple"
        }
      ],
      "name": "LotUpdate",
      "type": "event"
    },
    {
      "inputs": [
        {
          "internalType": "uint256",
          "name": "frameKey",
          "type": "uint256"
        },
        {
          "internalType": "uint256",
          "name": "avgPrice",
          "type": "uint256"
        }
      ],
      "name": "UpdateAvgPrice",
      "outputs": [],
      "stateMutability": "nonpayable",
      "type": "function"
    },
    {
      "inputs": [],
      "name": "accountingToken",
      "outputs": [
        {
          "internalType": "contract IERC20",
          "name": "",
          "type": "address"
        }
      ],
      "stateMutability": "view",
      "type": "function"
    },
    {
      "inputs": [],
      "name": "avgPriceSwitch",
      "outputs": [
        {
          "internalType": "bool",
          "name": "",
          "type": "bool"
        }
      ],
      "stateMutability": "view",
      "type": "function"
    },
    {
      "inputs": [
        {
          "internalType": "uint256",
          "name": "timestamp",
          "type": "uint256"
        },
        {
          "internalType": "uint256",
          "name": "pairPrice",
          "type": "uint256"
        },
        {
          "internalType": "uint256",
          "name": "acqPrice",
          "type": "uint256"
        },
        {
          "internalType": "address",
          "name": "referralPublicKey",
          "type": "address"
        }
      ],
      "name": "buyLot",
      "outputs": [],
      "stateMutability": "nonpayable",
      "type": "function"
    },
    {
      "inputs": [
        {
          "internalType": "uint256",
          "name": "frameKey",
          "type": "uint256"
        }
      ],
      "name": "claimReward",
      "outputs": [],
      "stateMutability": "nonpayable",
      "type": "function"
    },
    {
      "inputs": [
        {
          "internalType": "uint256",
          "name": "timestamp",
          "type": "uint256"
        }
      ],
      "name": "clcFrameTimestamp",
      "outputs": [
        {
          "internalType": "uint256",
          "name": "",
          "type": "uint256"
        }
      ],
      "stateMutability": "view",
      "type": "function"
    },
    {
      "inputs": [
        {
          "internalType": "uint256",
          "name": "value",
          "type": "uint256"
        }
      ],
      "name": "clcLotKey",
      "outputs": [
        {
          "internalType": "uint256",
          "name": "",
          "type": "uint256"
        }
      ],
      "stateMutability": "view",
      "type": "function"
    },
    {
      "inputs": [
        {
          "internalType": "uint256",
          "name": "frameKey",
          "type": "uint256"
        },
        {
          "internalType": "uint256",
          "name": "acquisitionPrice",
          "type": "uint256"
        }
      ],
      "name": "clcTax",
      "outputs": [
        {
          "internalType": "uint256",
          "name": "tax",
          "type": "uint256"
        }
      ],
      "stateMutability": "view",
      "type": "function"
    },
    {
      "inputs": [],
      "name": "dPrice",
      "outputs": [
        {
          "internalType": "uint256",
          "name": "",
          "type": "uint256"
        }
      ],
      "stateMutability": "view",
      "type": "function"
    },
    {
      "inputs": [
        {
          "internalType": "uint256",
          "name": "amount",
          "type": "uint256"
        }
      ],
      "name": "emptyFunds",
      "outputs": [],
      "stateMutability": "nonpayable",
      "type": "function"
    },
    {
      "inputs": [],
      "name": "factory",
      "outputs": [
        {
          "internalType": "contract MarketFactory",
          "name": "",
          "type": "address"
        }
      ],
      "stateMutability": "view",
      "type": "function"
    },
    {
      "inputs": [],
      "name": "feeMarket",
      "outputs": [
        {
          "internalType": "uint256",
          "name": "",
          "type": "uint256"
        }
      ],
      "stateMutability": "view",
      "type": "function"
    },
    {
      "inputs": [],
      "name": "feeProtocol",
      "outputs": [
        {
          "internalType": "uint256",
          "name": "",
          "type": "uint256"
        }
      ],
      "stateMutability": "view",
      "type": "function"
    },
    {
      "inputs": [
        {
          "internalType": "uint256",
          "name": "",
          "type": "uint256"
        }
      ],
      "name": "frames",
      "outputs": [
        {
          "internalType": "uint256",
          "name": "frameKey",
          "type": "uint256"
        },
        {
          "internalType": "uint256",
          "name": "oracleTimestampStart",
          "type": "uint256"
        },
        {
          "internalType": "uint256",
          "name": "oracleTimestampEnd",
          "type": "uint256"
        },
        {
          "internalType": "uint256",
          "name": "rewardFund",
          "type": "uint256"
        },
        {
          "internalType": "uint256",
          "name": "priceAverage",
          "type": "uint256"
        },
        {
          "internalType": "uint256",
          "name": "oraclePrice0CumulativeStart",
          "type": "uint256"
        },
        {
          "internalType": "uint256",
          "name": "oraclePrice0CumulativeEnd",
          "type": "uint256"
        },
        {
          "internalType": "uint256",
          "name": "oraclePrice1CumulativeStart",
          "type": "uint256"
        },
        {
          "internalType": "uint256",
          "name": "oraclePrice1CumulativeEnd",
          "type": "uint256"
        },
        {
          "internalType": "enum MLib.SFrame",
          "name": "state",
          "type": "uint8"
        }
      ],
      "stateMutability": "view",
      "type": "function"
    },
    {
      "inputs": [
        {
          "internalType": "uint256",
          "name": "",
          "type": "uint256"
        }
      ],
      "name": "framesKeys",
      "outputs": [
        {
          "internalType": "uint256",
          "name": "",
          "type": "uint256"
        }
      ],
      "stateMutability": "view",
      "type": "function"
    },
    {
      "inputs": [
        {
          "internalType": "uint256",
          "name": "frameKey",
          "type": "uint256"
        }
      ],
      "name": "getFrame",
      "outputs": [
        {
          "components": [
            {
              "internalType": "uint256",
              "name": "frameKey",
              "type": "uint256"
            },
            {
              "internalType": "uint256",
              "name": "oracleTimestampStart",
              "type": "uint256"
            },
            {
              "internalType": "uint256",
              "name": "oracleTimestampEnd",
              "type": "uint256"
            },
            {
              "internalType": "uint256",
              "name": "rewardFund",
              "type": "uint256"
            },
            {
              "internalType": "uint256",
              "name": "priceAverage",
              "type": "uint256"
            },
            {
              "internalType": "uint256",
              "name": "oraclePrice0CumulativeStart",
              "type": "uint256"
            },
            {
              "internalType": "uint256",
              "name": "oraclePrice0CumulativeEnd",
              "type": "uint256"
            },
            {
              "internalType": "uint256",
              "name": "oraclePrice1CumulativeStart",
              "type": "uint256"
            },
            {
              "internalType": "uint256",
              "name": "oraclePrice1CumulativeEnd",
              "type": "uint256"
            },
            {
              "internalType": "enum MLib.SFrame",
              "name": "state",
              "type": "uint8"
            },
            {
              "internalType": "uint256[]",
              "name": "lotKeys",
              "type": "uint256[]"
            }
          ],
          "internalType": "struct MLib.Frame",
          "name": "",
          "type": "tuple"
        }
      ],
      "stateMutability": "view",
      "type": "function"
    },
    {
      "inputs": [
        {
          "internalType": "uint256",
          "name": "frameKey",
          "type": "uint256"
        }
      ],
      "name": "getFrameState",
      "outputs": [
        {
          "internalType": "enum MLib.SFrame",
          "name": "",
          "type": "uint8"
        }
      ],
      "stateMutability": "view",
      "type": "function"
    },
    {
      "inputs": [
        {
          "internalType": "uint256",
          "name": "frameKey",
          "type": "uint256"
        },
        {
          "internalType": "uint256",
          "name": "lotKey",
          "type": "uint256"
        }
      ],
      "name": "getLot",
      "outputs": [
        {
          "components": [
            {
              "internalType": "uint256",
              "name": "frameKey",
              "type": "uint256"
            },
            {
              "internalType": "uint256",
              "name": "lotKey",
              "type": "uint256"
            },
            {
              "internalType": "address",
              "name": "lotOwner",
              "type": "address"
            },
            {
              "internalType": "uint256",
              "name": "acquisitionPrice",
              "type": "uint256"
            },
            {
              "internalType": "enum MLib.SLot",
              "name": "state",
              "type": "uint8"
            }
          ],
          "internalType": "struct MLib.Lot",
          "name": "",
          "type": "tuple"
        }
      ],
      "stateMutability": "view",
      "type": "function"
    },
    {
      "inputs": [
        {
          "internalType": "uint256",
          "name": "frameKey",
          "type": "uint256"
        }
      ],
      "name": "getLotKeys",
      "outputs": [
        {
          "internalType": "uint256[]",
          "name": "",
          "type": "uint256[]"
        }
      ],
      "stateMutability": "view",
      "type": "function"
    },
    {
      "inputs": [],
      "name": "getNumberOfFrameKeys",
      "outputs": [
        {
          "internalType": "uint256",
          "name": "",
          "type": "uint256"
        }
      ],
      "stateMutability": "view",
      "type": "function"
    },
    {
      "inputs": [],
      "name": "getUserAddresses",
      "outputs": [
        {
          "internalType": "address[]",
          "name": "",
          "type": "address[]"
        }
      ],
      "stateMutability": "view",
      "type": "function"
    },
    {
      "inputs": [
        {
          "internalType": "uint256",
          "name": "frameKey",
          "type": "uint256"
        }
      ],
      "name": "hasValidPrices",
      "outputs": [],
      "stateMutability": "view",
      "type": "function"
    },
    {
      "inputs": [],
      "name": "initTimestamp",
      "outputs": [
        {
          "internalType": "uint256",
          "name": "",
          "type": "uint256"
        }
      ],
      "stateMutability": "view",
      "type": "function"
    },
    {
      "inputs": [
        {
          "internalType": "uint256",
          "name": "",
          "type": "uint256"
        },
        {
          "internalType": "uint256",
          "name": "",
          "type": "uint256"
        }
      ],
      "name": "lots",
      "outputs": [
        {
          "internalType": "uint256",
          "name": "frameKey",
          "type": "uint256"
        },
        {
          "internalType": "uint256",
          "name": "lotKey",
          "type": "uint256"
        },
        {
          "internalType": "address",
          "name": "lotOwner",
          "type": "address"
        },
        {
          "internalType": "uint256",
          "name": "acquisitionPrice",
          "type": "uint256"
        },
        {
          "internalType": "enum MLib.SLot",
          "name": "state",
          "type": "uint8"
        }
      ],
      "stateMutability": "view",
      "type": "function"
    },
    {
      "inputs": [],
      "name": "minTax",
      "outputs": [
        {
          "internalType": "uint256",
          "name": "",
          "type": "uint256"
        }
      ],
      "stateMutability": "view",
      "type": "function"
    },
    {
      "inputs": [],
      "name": "ownerMarket",
      "outputs": [
        {
          "internalType": "address",
          "name": "",
          "type": "address"
        }
      ],
      "stateMutability": "view",
      "type": "function"
    },
    {
      "inputs": [],
      "name": "period",
      "outputs": [
        {
          "internalType": "uint256",
          "name": "",
          "type": "uint256"
        }
      ],
      "stateMutability": "view",
      "type": "function"
    },
    {
      "inputs": [],
      "name": "scalar",
      "outputs": [
        {
          "internalType": "uint256",
          "name": "",
          "type": "uint256"
        }
      ],
      "stateMutability": "view",
      "type": "function"
    },
    {
      "inputs": [],
      "name": "tReporting",
      "outputs": [
        {
          "internalType": "uint256",
          "name": "",
          "type": "uint256"
        }
      ],
      "stateMutability": "view",
      "type": "function"
    },
    {
      "inputs": [],
      "name": "taxMarket",
      "outputs": [
        {
          "internalType": "uint256",
          "name": "",
          "type": "uint256"
        }
      ],
      "stateMutability": "view",
      "type": "function"
    },
    {
      "inputs": [],
      "name": "uniswapPair",
      "outputs": [
        {
          "internalType": "contract IUniswapV2Pair",
          "name": "",
          "type": "address"
        }
      ],
      "stateMutability": "view",
      "type": "function"
    },
    {
      "inputs": [],
      "name": "updateFramePrices",
      "outputs": [],
      "stateMutability": "nonpayable",
      "type": "function"
    },
    {
      "inputs": [
        {
          "internalType": "uint256",
          "name": "timestamp",
          "type": "uint256"
        },
        {
          "internalType": "uint256",
          "name": "pairPrice",
          "type": "uint256"
        },
        {
          "internalType": "uint256",
          "name": "acqPrice",
          "type": "uint256"
        }
      ],
      "name": "updateLotPrice",
      "outputs": [],
      "stateMutability": "nonpayable",
      "type": "function"
    },
    {
      "inputs": [
        {
          "internalType": "uint256",
          "name": "",
          "type": "uint256"
        }
      ],
      "name": "userAddresses",
      "outputs": [
        {
          "internalType": "address",
          "name": "",
          "type": "address"
        }
      ],
      "stateMutability": "view",
      "type": "function"
    },
    {
      "inputs": [
        {
          "internalType": "address",
          "name": "",
          "type": "address"
        },
        {
          "internalType": "uint256",
          "name": "",
          "type": "uint256"
        }
      ],
      "name": "userFrames",
      "outputs": [
        {
          "internalType": "uint256",
          "name": "",
          "type": "uint256"
        }
      ],
      "stateMutability": "view",
      "type": "function"
    },
    {
      "inputs": [
        {
          "internalType": "address",
          "name": "",
          "type": "address"
        }
      ],
      "name": "users",
      "outputs": [
        {
          "internalType": "uint256",
          "name": "commulativeTax",
          "type": "uint256"
        },
        {
          "internalType": "address",
          "name": "refferdBy",
          "type": "address"
        }
      ],
      "stateMutability": "view",
      "type": "function"
    }
  ],
  "bytecode": "0x608060405260646002556000600c60006101000a81548160ff02191690831515021790555069d3c21bcecceda1000000600d553480156200003f57600080fd5b50604051620053f5380380620053f5833981810160405281019062000065919062000238565b89600960006101000a81548173ffffffffffffffffffffffffffffffffffffffff021916908373ffffffffffffffffffffffffffffffffffffffff16021790555032600a60006101000a81548173ffffffffffffffffffffffffffffffffffffffff021916908373ffffffffffffffffffffffffffffffffffffffff1602179055508760008190555086600181905550856007819055508460068190555088600460006101000a81548173ffffffffffffffffffffffffffffffffffffffff021916908373ffffffffffffffffffffffffffffffffffffffff160217905550836005819055508a600860006101000a81548173ffffffffffffffffffffffffffffffffffffffff021916908373ffffffffffffffffffffffffffffffffffffffff1602179055508260038190555081600b8190555080600c60006101000a81548160ff021916908315150217905550505050505050505050505062000447565b600081519050620001d681620003c5565b92915050565b600081519050620001ed81620003df565b92915050565b6000815190506200020481620003f9565b92915050565b6000815190506200021b8162000413565b92915050565b60008151905062000232816200042d565b92915050565b60008060008060008060008060008060006101608c8e0312156200025b57600080fd5b60006200026b8e828f016200020a565b9b505060206200027e8e828f01620001dc565b9a50506040620002918e828f01620001f3565b9950506060620002a48e828f0162000221565b9850506080620002b78e828f0162000221565b97505060a0620002ca8e828f0162000221565b96505060c0620002dd8e828f0162000221565b95505060e0620002f08e828f0162000221565b945050610100620003048e828f0162000221565b935050610120620003188e828f0162000221565b9250506101406200032c8e828f01620001c5565b9150509295989b509295989b9093969950565b60006200034c826200039b565b9050919050565b60008115159050919050565b60006200036c826200033f565b9050919050565b600062000380826200033f565b9050919050565b600062000394826200033f565b9050919050565b600073ffffffffffffffffffffffffffffffffffffffff82169050919050565b6000819050919050565b620003d08162000353565b8114620003dc57600080fd5b50565b620003ea816200035f565b8114620003f657600080fd5b50565b620004048162000373565b81146200041057600080fd5b50565b6200041e8162000387565b81146200042a57600080fd5b50565b6200043881620003bb565b81146200044457600080fd5b50565b614f9e80620004576000396000f3fe608060405234801561001057600080fd5b506004361061021c5760003560e01c806396b2c6f311610125578063c45a0155116100ad578063e107fb4f1161007c578063e107fb4f14610677578063ef78d4fd146106a7578063f109db84146106c5578063f45e65d8146106f5578063ff5c86b0146107135761021c565b8063c45a015514610601578063c816841b1461061f578063d529a3961461063d578063da68cf8b146106595761021c565b8063ab02f2a9116100f4578063ab02f2a914610549578063ae169a5014610579578063b93dafa914610595578063bb15d2dd146105c9578063c346eef8146105e55761021c565b806396b2c6f3146104b7578063a10340bc146104c1578063a591efde146104fa578063a87430ba146105185761021c565b8063652c8ded116101a8578063773d51eb11610177578063773d51eb146103fd5780637e9966391461042d57806389da88a31461044b5780638f9eca82146104695780639592de18146104875761021c565b8063652c8ded146103775780636f1aefc3146103935780636f7cb60b146103c35780637358c57a146103df5761021c565b8063499a0fc4116101ef578063499a0fc4146102ab578063502c9bd5146102c9578063527eb4bc146102f95780635b3ad63e1461031757806360f65c60146103475761021c565b8063050e8840146102215780633d09a82a14610251578063410f07101461026f578063450847751461028d575b600080fd5b61023b60048036038101906102369190613c23565b610731565b6040516102489190614845565b60405180910390f35b610259610755565b6040516102669190614845565b60405180910390f35b61027761075b565b6040516102849190614845565b60405180910390f35b610295610761565b6040516102a291906144d9565b60405180910390f35b6102b3610787565b6040516102c09190614845565b60405180910390f35b6102e360048036038101906102de9190613c23565b61078d565b6040516102f091906144d9565b60405180910390f35b6103016107cc565b60405161030e9190614845565b60405180910390f35b610331600480360381019061032c9190613c23565b6107d2565b60405161033e9190614845565b60405180910390f35b610361600480360381019061035c9190613b6f565b610815565b60405161036e9190614845565b60405180910390f35b610391600480360381019061038c9190613c23565b610846565b005b6103ad60048036038101906103a89190613c75565b6109af565b6040516103ba919061482a565b60405180910390f35b6103dd60048036038101906103d89190613c23565b610ae9565b005b6103e7610d48565b6040516103f49190614845565b60405180910390f35b61041760048036038101906104129190613c23565b610d4e565b6040516104249190614808565b60405180910390f35b610435610eb5565b6040516104429190614845565b60405180910390f35b610453610ebb565b6040516104609190614845565b60405180910390f35b610471610ec8565b60405161047e91906145c1565b60405180910390f35b6104a1600480360381019061049c9190613c23565b610edb565b6040516104ae9190614845565b60405180910390f35b6104bf610f11565b005b6104db60048036038101906104d69190613c23565b611205565b6040516104f19a99989796959493929190614983565b60405180910390f35b610502611266565b60405161050f919061457d565b60405180910390f35b610532600480360381019061052d9190613b1d565b6112f4565b604051610540929190614860565b60405180910390f35b610563600480360381019061055e9190613c23565b611338565b604051610570919061459f565b60405180910390f35b610593600480360381019061058e9190613c23565b6113a6565b005b6105af60048036038101906105aa9190613c75565b6113bb565b6040516105c09594939291906148b2565b60405180910390f35b6105e360048036038101906105de9190613cb1565b61142b565b005b6105ff60048036038101906105fa9190613d00565b611943565b005b6106096123cc565b6040516106169190614612565b60405180910390f35b6106276123f2565b60405161063491906145f7565b60405180910390f35b61065760048036038101906106529190613c75565b612418565b005b61066161249c565b60405161066e91906145dc565b60405180910390f35b610691600480360381019061068c9190613c75565b6124c2565b60405161069e9190614845565b60405180910390f35b6106af612537565b6040516106bc9190614845565b60405180910390f35b6106df60048036038101906106da9190613c23565b61253d565b6040516106ec919061462d565b60405180910390f35b6106fd61256a565b60405161070a9190614845565b60405180910390f35b61071b612570565b6040516107289190614845565b60405180910390f35b6013818154811061074157600080fd5b906000526020600020016000915090505481565b600b5481565b60065481565b600a60009054906101000a900473ffffffffffffffffffffffffffffffffffffffff1681565b60055481565b6012818154811061079d57600080fd5b906000526020600020016000915054906101000a900473ffffffffffffffffffffffffffffffffffffffff1681565b60025481565b600060015482116107e7576001549050610810565b600054600154836107f89190614bc5565b6108029190614e02565b8261080d9190614bc5565b90505b919050565b6010602052816000526040600020818154811061083157600080fd5b90600052602060002001600091509150505481565b6000600f60008381526020019081526020016000206005015411158061088357506000600f60008381526020019081526020016000206006015411155b806108a557506000600f60008381526020019081526020016000206007015411155b806108c757506000600f60008381526020019081526020016000206008015411155b15610907576040517f08c379a00000000000000000000000000000000000000000000000000000000081526004016108fe906146e8565b60405180910390fd5b600f600082815260200190815260200160002060060154600f600083815260200190815260200160002060050154148061096c5750600f600082815260200190815260200160002060080154600f600083815260200190815260200160002060070154145b156109ac576040517f08c379a00000000000000000000000000000000000000000000000000000000081526004016109a3906146e8565b60405180910390fd5b50565b6109b761394a565b600e600084815260200190815260200160002060008381526020019081526020016000206040518060a001604052908160008201548152602001600182015481526020016002820160009054906101000a900473ffffffffffffffffffffffffffffffffffffffff1673ffffffffffffffffffffffffffffffffffffffff1673ffffffffffffffffffffffffffffffffffffffff168152602001600382015481526020016004820160009054906101000a900460ff166002811115610aa5577f4e487b7100000000000000000000000000000000000000000000000000000000600052602160045260246000fd5b6002811115610add577f4e487b7100000000000000000000000000000000000000000000000000000000600052602160045260246000fd5b81525050905092915050565b600860009054906101000a900473ffffffffffffffffffffffffffffffffffffffff1673ffffffffffffffffffffffffffffffffffffffff16638da5cb5b6040518163ffffffff1660e01b815260040160206040518083038186803b158015610b5157600080fd5b505afa158015610b65573d6000803e3d6000fd5b505050506040513d601f19601f82011682018060405250810190610b899190613b46565b73ffffffffffffffffffffffffffffffffffffffff163373ffffffffffffffffffffffffffffffffffffffff1614610bf6576040517f08c379a0000000000000000000000000000000000000000000000000000000008152600401610bed90614668565b60405180910390fd5b600960009054906101000a900473ffffffffffffffffffffffffffffffffffffffff1673ffffffffffffffffffffffffffffffffffffffff1663a9059cbb600860009054906101000a900473ffffffffffffffffffffffffffffffffffffffff1673ffffffffffffffffffffffffffffffffffffffff16638da5cb5b6040518163ffffffff1660e01b815260040160206040518083038186803b158015610c9c57600080fd5b505afa158015610cb0573d6000803e3d6000fd5b505050506040513d601f19601f82011682018060405250810190610cd49190613b46565b836040518363ffffffff1660e01b8152600401610cf2929190614554565b602060405180830381600087803b158015610d0c57600080fd5b505af1158015610d20573d6000803e3d6000fd5b505050506040513d601f19601f82011682018060405250810190610d449190613bab565b5050565b60015481565b610d566139c7565b600f6000838152602001908152602001600020604051806101600160405290816000820154815260200160018201548152602001600282015481526020016003820154815260200160048201548152602001600582015481526020016006820154815260200160078201548152602001600882015481526020016009820160009054906101000a900460ff166002811115610e1a577f4e487b7100000000000000000000000000000000000000000000000000000000600052602160045260246000fd5b6002811115610e52577f4e487b7100000000000000000000000000000000000000000000000000000000600052602160045260246000fd5b8152602001600a8201805480602002602001604051908101604052809291908181526020018280548015610ea557602002820191906000526020600020905b815481526020019060010190808311610e91575b5050505050815250509050919050565b60075481565b6000601380549050905090565b600c60009054906101000a900460ff1681565b6000808211610eee576005549050610f0c565b60055460055483610eff9190614b3a565b610f099190614b6b565b90505b919050565b6000610f1c426107d2565b905060035460005482610f2f9190614ab3565b610f399190614bc5565b42101561107257610f6b600460009054906101000a900473ffffffffffffffffffffffffffffffffffffffff16612576565b8063ffffffff169050600f60008581526020019081526020016000206005016000600f60008781526020019081526020016000206007016000600f60008981526020019081526020016000206001016000869190505585919050558491905055505050600f600082815260200190815260200160002060050154600f600083815260200190815260200160002060070154600f600084815260200190815260200160002060010154600f60008581526020019081526020016000206006016000600f60008781526020019081526020016000206008016000600f60008981526020019081526020016000206002016000869190505585919050558491905055505050611123565b600354600054826110839190614ab3565b61108d9190614bc5565b4210611122576110be600460009054906101000a900473ffffffffffffffffffffffffffffffffffffffff16612576565b8063ffffffff169050600f60008581526020019081526020016000206006016000600f60008781526020019081526020016000206008016000600f600089815260200190815260200160002060020160008691905055859190505584919050555050505b5b7ff733bd7f4402cb7d331b34d5cd22f432b9bf71a833f786974545860d74976af281600f600084815260200190815260200160002060010154600f600085815260200190815260200160002060020154600f600086815260200190815260200160002060050154600f600087815260200190815260200160002060060154600f600088815260200190815260200160002060070154600f600089815260200190815260200160002060080154600f60008a8152602001908152602001600020600301546040516111fa989796959493929190614905565b60405180910390a150565b600f6020528060005260406000206000915090508060000154908060010154908060020154908060030154908060040154908060050154908060060154908060070154908060080154908060090160009054906101000a900460ff1690508a565b606060128054806020026020016040519081016040528092919081815260200182805480156112ea57602002820191906000526020600020905b8160009054906101000a900473ffffffffffffffffffffffffffffffffffffffff1673ffffffffffffffffffffffffffffffffffffffff16815260200190600101908083116112a0575b5050505050905090565b60116020528060005260406000206000915090508060000154908060020160009054906101000a900473ffffffffffffffffffffffffffffffffffffffff16905082565b6060600f6000838152602001908152602001600020600a0180548060200260200160405190810160405280929190818152602001828054801561139a57602002820191906000526020600020905b815481526020019060010190808311611386575b50505050509050919050565b6113af816127d1565b6113b881612e25565b50565b600e602052816000526040600020602052806000526040600020600091509150508060000154908060010154908060020160009054906101000a900473ffffffffffffffffffffffffffffffffffffffff16908060030154908060040160009054906101000a900460ff16905085565b60006114368461329e565b9050611442818361344e565b600061144e82856134a6565b90503373ffffffffffffffffffffffffffffffffffffffff16600e6000848152602001908152602001600020600083815260200190815260200160002060020160009054906101000a900473ffffffffffffffffffffffffffffffffffffffff1673ffffffffffffffffffffffffffffffffffffffff1614611505576040517f08c379a00000000000000000000000000000000000000000000000000000000081526004016114fc906146a8565b60405180910390fd5b61150e426107d2565b821015611550576040517f08c379a0000000000000000000000000000000000000000000000000000000008152600401611547906147c8565b60405180910390fd5b600061155c83856124c2565b9050600061159184600e60008781526020019081526020016000206000868152602001908152602001600020600301546124c2565b90508082111561179e5780826115a79190614bc5565b600960009054906101000a900473ffffffffffffffffffffffffffffffffffffffff1673ffffffffffffffffffffffffffffffffffffffff1663dd62ed3e33306040518363ffffffff1660e01b81526004016116049291906144f4565b60206040518083038186803b15801561161c57600080fd5b505afa158015611630573d6000803e3d6000fd5b505050506040513d601f19601f820116820180604052508101906116549190613c4c565b1015611695576040517f08c379a000000000000000000000000000000000000000000000000000000000815260040161168c90614768565b60405180910390fd5b600960009054906101000a900473ffffffffffffffffffffffffffffffffffffffff1673ffffffffffffffffffffffffffffffffffffffff166323b872dd333084866116e19190614bc5565b6040518463ffffffff1660e01b81526004016116ff9392919061451d565b602060405180830381600087803b15801561171957600080fd5b505af115801561172d573d6000803e3d6000fd5b505050506040513d601f19601f820116820180604052508101906117519190613bab565b50808261175e9190614bc5565b600f60008681526020019081526020016000206003015461177f9190614ab3565b600f6000868152602001908152602001600020600301819055506118aa565b808210156118a957600960009054906101000a900473ffffffffffffffffffffffffffffffffffffffff1673ffffffffffffffffffffffffffffffffffffffff1663a9059cbb3384846117f19190614bc5565b6040518363ffffffff1660e01b815260040161180e929190614554565b602060405180830381600087803b15801561182857600080fd5b505af115801561183c573d6000803e3d6000fd5b505050506040513d601f19601f820116820180604052508101906118609190613bab565b50818161186d9190614bc5565b600f60008681526020019081526020016000206003015461188e9190614bc5565b600f6000868152602001908152602001600020600301819055505b5b84600e60008681526020019081526020016000206000858152602001908152602001600020600301819055506118de610f11565b7f74c5c6f5cd4370cc0ab554a1afdb2b24b051b40c99102354ef424aed5cd6409d84600e60008781526020019081526020016000206000868152602001908152602001600020604051611932929190614889565b60405180910390a150505050505050565b6000601160003373ffffffffffffffffffffffffffffffffffffffff1673ffffffffffffffffffffffffffffffffffffffff168152602001908152602001600020600001541415611999576119983382613609565b5b60006119a48561329e565b90506119b0818461344e565b60006119bc82866134a6565b90506119c7426107d2565b821015611a09576040517f08c379a0000000000000000000000000000000000000000000000000000000008152600401611a0090614688565b60405180910390fd5b600e6000838152602001908152602001600020600082815260200190815260200160002060020160009054906101000a900473ffffffffffffffffffffffffffffffffffffffff1673ffffffffffffffffffffffffffffffffffffffff163373ffffffffffffffffffffffffffffffffffffffff161415611abf576040517f08c379a0000000000000000000000000000000000000000000000000000000008152600401611ab690614748565b60405180910390fd5b6000611acb83866124c2565b905080600e6000858152602001908152602001600020600084815260200190815260200160002060030154611b009190614ab3565b600960009054906101000a900473ffffffffffffffffffffffffffffffffffffffff1673ffffffffffffffffffffffffffffffffffffffff1663dd62ed3e33306040518363ffffffff1660e01b8152600401611b5d9291906144f4565b60206040518083038186803b158015611b7557600080fd5b505afa158015611b89573d6000803e3d6000fd5b505050506040513d601f19601f82011682018060405250810190611bad9190613c4c565b1015611bee576040517f08c379a0000000000000000000000000000000000000000000000000000000008152600401611be590614768565b60405180910390fd5b600960009054906101000a900473ffffffffffffffffffffffffffffffffffffffff1673ffffffffffffffffffffffffffffffffffffffff166323b872dd333084600e6000898152602001908152602001600020600088815260200190815260200160002060030154611c619190614ab3565b6040518463ffffffff1660e01b8152600401611c7f9392919061451d565b602060405180830381600087803b158015611c9957600080fd5b505af1158015611cad573d6000803e3d6000fd5b505050506040513d601f19601f82011682018060405250810190611cd19190613bab565b5080600f600085815260200190815260200160002060030154611cf49190614ab3565b600f60008581526020019081526020016000206003018190555080601160003373ffffffffffffffffffffffffffffffffffffffff1673ffffffffffffffffffffffffffffffffffffffff16815260200190815260200160002060000154611d5c9190614ab3565b601160003373ffffffffffffffffffffffffffffffffffffffff1673ffffffffffffffffffffffffffffffffffffffff1681526020019081526020016000206000018190555060016002811115611ddc577f4e487b7100000000000000000000000000000000000000000000000000000000600052602160045260246000fd5b600e6000858152602001908152602001600020600084815260200190815260200160002060040160009054906101000a900460ff166002811115611e49577f4e487b7100000000000000000000000000000000000000000000000000000000600052602160045260246000fd5b1415612111576000611e8284600e60008781526020019081526020016000206000868152602001908152602001600020600301546124c2565b9050600960009054906101000a900473ffffffffffffffffffffffffffffffffffffffff1673ffffffffffffffffffffffffffffffffffffffff1663a9059cbb600e6000878152602001908152602001600020600086815260200190815260200160002060020160009054906101000a900473ffffffffffffffffffffffffffffffffffffffff16600e600088815260200190815260200160002060008781526020019081526020016000206003015484611f3d9190614ab3565b6040518363ffffffff1660e01b8152600401611f5a929190614554565b602060405180830381600087803b158015611f7457600080fd5b505af1158015611f88573d6000803e3d6000fd5b505050506040513d601f19601f82011682018060405250810190611fac9190613bab565b5080600f600086815260200190815260200160002060030154611fcf9190614bc5565b600f6000868152602001908152602001600020600301819055508060116000600e6000888152602001908152602001600020600087815260200190815260200160002060020160009054906101000a900473ffffffffffffffffffffffffffffffffffffffff1673ffffffffffffffffffffffffffffffffffffffff1673ffffffffffffffffffffffffffffffffffffffff1681526020019081526020016000206000015461207e9190614bc5565b60116000600e6000888152602001908152602001600020600087815260200190815260200160002060020160009054906101000a900473ffffffffffffffffffffffffffffffffffffffff1673ffffffffffffffffffffffffffffffffffffffff1673ffffffffffffffffffffffffffffffffffffffff1681526020019081526020016000206000018190555050612188565b6001600e6000858152602001908152602001600020600084815260200190815260200160002060040160006101000a81548160ff02191690836002811115612182577f4e487b7100000000000000000000000000000000000000000000000000000000600052602160045260246000fd5b02179055505b33600e6000858152602001908152602001600020600084815260200190815260200160002060020160006101000a81548173ffffffffffffffffffffffffffffffffffffffff021916908373ffffffffffffffffffffffffffffffffffffffff16021790555084600e6000858152602001908152602001600020600084815260200190815260200160002060030181905550601060003373ffffffffffffffffffffffffffffffffffffffff1673ffffffffffffffffffffffffffffffffffffffff168152602001908152602001600020839080600181540180825580915050600190039060005260206000200160009091909190915055612288610f11565b7ff733bd7f4402cb7d331b34d5cd22f432b9bf71a833f786974545860d74976af283600f600086815260200190815260200160002060010154600f600087815260200190815260200160002060020154600f600088815260200190815260200160002060050154600f600089815260200190815260200160002060060154600f60008a815260200190815260200160002060070154600f60008b815260200190815260200160002060080154600f60008c81526020019081526020016000206003015460405161235f989796959493929190614905565b60405180910390a17f74c5c6f5cd4370cc0ab554a1afdb2b24b051b40c99102354ef424aed5cd6409d83600e600086815260200190815260200160002060008581526020019081526020016000206040516123bb929190614889565b60405180910390a150505050505050565b600860009054906101000a900473ffffffffffffffffffffffffffffffffffffffff1681565b600460009054906101000a900473ffffffffffffffffffffffffffffffffffffffff1681565b6001600f600084815260200190815260200160002060090160006101000a81548160ff02191690836002811115612478577f4e487b7100000000000000000000000000000000000000000000000000000000600052602160045260246000fd5b021790555080600f6000848152602001908152602001600020600401819055505050565b600960009054906101000a900473ffffffffffffffffffffffffffffffffffffffff1681565b600080600054620186a060075485600d546124dd9190614b6b565b6124e79190614b6b565b6124f19190614b3a565b6124fb9190614b3a565b9050600d548142600054876125109190614ab3565b61251a9190614bc5565b6125249190614b6b565b61252e9190614b3a565b91505092915050565b60005481565b6000600f600083815260200190815260200160002060090160009054906101000a900460ff169050919050565b600d5481565b60035481565b6000806000612583613778565b90508373ffffffffffffffffffffffffffffffffffffffff16635909c0d56040518163ffffffff1660e01b815260040160206040518083038186803b1580156125cb57600080fd5b505afa1580156125df573d6000803e3d6000fd5b505050506040513d601f19601f820116820180604052508101906126039190613c4c565b92508373ffffffffffffffffffffffffffffffffffffffff16635a3d54936040518163ffffffff1660e01b815260040160206040518083038186803b15801561264b57600080fd5b505afa15801561265f573d6000803e3d6000fd5b505050506040513d601f19601f820116820180604052508101906126839190613c4c565b915060008060008673ffffffffffffffffffffffffffffffffffffffff16630902f1ac6040518163ffffffff1660e01b815260040160606040518083038186803b1580156126d057600080fd5b505afa1580156126e4573d6000803e3d6000fd5b505050506040513d601f19601f820116820180604052508101906127089190613bd4565b9250925092508363ffffffff168163ffffffff16146127c7576000818561272f9190614bf9565b90508063ffffffff166127428486613790565b600001517bffffffffffffffffffffffffffffffffffffffffffffffffffffffff1661276e9190614b6b565b876127799190614ab3565b96508063ffffffff1661278c8585613790565b600001517bffffffffffffffffffffffffffffffffffffffffffffffffffffffff166127b89190614b6b565b866127c39190614ab3565b9550505b5050509193909250565b6127da81610846565b42600054826127e99190614ab3565b111561282a576040517f08c379a000000000000000000000000000000000000000000000000000000000815260040161282190614648565b60405180910390fd5b6002600f600083815260200190815260200160002060090160006101000a81548160ff0219169083600281111561288a577f4e487b7100000000000000000000000000000000000000000000000000000000600052602160045260246000fd5b02179055506000600860009054906101000a900473ffffffffffffffffffffffffffffffffffffffff1673ffffffffffffffffffffffffffffffffffffffff16638da5cb5b6040518163ffffffff1660e01b815260040160206040518083038186803b1580156128f957600080fd5b505afa15801561290d573d6000803e3d6000fd5b505050506040513d601f19601f820116820180604052508101906129319190613b46565b90506000600f600084815260200190815260200160002060010154600f60008581526020019081526020016000206002015461296d9190614bc5565b9050600c60009054906101000a900460ff1615612a2a576129fb604051806020016040528083600f600088815260200190815260200160002060050154600f6000898152602001908152602001600020600601546129cb9190614bc5565b6129d59190614b3a565b7bffffffffffffffffffffffffffffffffffffffffffffffffffffffff16815250613870565b6dffffffffffffffffffffffffffff16600f600085815260200190815260200160002060040181905550612acc565b612aa1604051806020016040528083600f600088815260200190815260200160002060070154600f600089815260200190815260200160002060080154612a719190614bc5565b612a7b9190614b3a565b7bffffffffffffffffffffffffffffffffffffffffffffffffffffffff16815250613870565b6dffffffffffffffffffffffffffff16600f6000858152602001908152602001600020600401819055505b600d54600f600085815260200190815260200160002060040154612af09190614b6b565b600f6000858152602001908152602001600020600401819055506000620186a0600654600f600087815260200190815260200160002060030154612b349190614b6b565b612b3e9190614b3a565b90506000620186a0600254600f600088815260200190815260200160002060030154612b6a9190614b6b565b612b749190614b3a565b90508082600f600088815260200190815260200160002060030154612b999190614bc5565b612ba39190614bc5565b600f600087815260200190815260200160002060030181905550600960009054906101000a900473ffffffffffffffffffffffffffffffffffffffff1673ffffffffffffffffffffffffffffffffffffffff1663a9059cbb600a60009054906101000a900473ffffffffffffffffffffffffffffffffffffffff16846040518363ffffffff1660e01b8152600401612c3c929190614554565b602060405180830381600087803b158015612c5657600080fd5b505af1158015612c6a573d6000803e3d6000fd5b505050506040513d601f19601f82011682018060405250810190612c8e9190613bab565b50600960009054906101000a900473ffffffffffffffffffffffffffffffffffffffff1673ffffffffffffffffffffffffffffffffffffffff1663a9059cbb85836040518363ffffffff1660e01b8152600401612cec929190614554565b602060405180830381600087803b158015612d0657600080fd5b505af1158015612d1a573d6000803e3d6000fd5b505050506040513d601f19601f82011682018060405250810190612d3e9190613bab565b507ff733bd7f4402cb7d331b34d5cd22f432b9bf71a833f786974545860d74976af285600f600088815260200190815260200160002060010154600f600089815260200190815260200160002060020154600f60008a815260200190815260200160002060050154600f60008b815260200190815260200160002060060154600f60008c815260200190815260200160002060070154600f60008d815260200190815260200160002060080154600f60008e815260200190815260200160002060030154604051612e16989796959493929190614905565b60405180910390a15050505050565b600280811115612e5e577f4e487b7100000000000000000000000000000000000000000000000000000000600052602160045260246000fd5b600f600083815260200190815260200160002060090160009054906101000a900460ff166002811115612eba577f4e487b7100000000000000000000000000000000000000000000000000000000600052602160045260246000fd5b14612efa576040517f08c379a0000000000000000000000000000000000000000000000000000000008152600401612ef190614788565b60405180910390fd5b6000612f1b600f600084815260200190815260200160002060040154610edb565b9050600280811115612f56577f4e487b7100000000000000000000000000000000000000000000000000000000600052602160045260246000fd5b600e6000848152602001908152602001600020600083815260200190815260200160002060040160009054906101000a900460ff166002811115612fc3577f4e487b7100000000000000000000000000000000000000000000000000000000600052602160045260246000fd5b1415613004576040517f08c379a0000000000000000000000000000000000000000000000000000000008152600401612ffb90614708565b60405180910390fd5b600073ffffffffffffffffffffffffffffffffffffffff16600e6000848152602001908152602001600020600083815260200190815260200160002060020160009054906101000a900473ffffffffffffffffffffffffffffffffffffffff1673ffffffffffffffffffffffffffffffffffffffff1614156130bb576040517f08c379a00000000000000000000000000000000000000000000000000000000081526004016130b2906146c8565b60405180910390fd5b600960009054906101000a900473ffffffffffffffffffffffffffffffffffffffff1673ffffffffffffffffffffffffffffffffffffffff1663a9059cbb600e6000858152602001908152602001600020600084815260200190815260200160002060020160009054906101000a900473ffffffffffffffffffffffffffffffffffffffff16600f6000868152602001908152602001600020600301546040518363ffffffff1660e01b8152600401613175929190614554565b602060405180830381600087803b15801561318f57600080fd5b505af11580156131a3573d6000803e3d6000fd5b505050506040513d601f19601f820116820180604052508101906131c79190613bab565b506002600e6000848152602001908152602001600020600083815260200190815260200160002060040160006101000a81548160ff02191690836002811115613239577f4e487b7100000000000000000000000000000000000000000000000000000000600052602160045260246000fd5b02179055507f74c5c6f5cd4370cc0ab554a1afdb2b24b051b40c99102354ef424aed5cd6409d82600e60008581526020019081526020016000206000848152602001908152602001600020604051613292929190614889565b60405180910390a15050565b6000806132aa836107d2565b9050600060028111156132e6577f4e487b7100000000000000000000000000000000000000000000000000000000600052602160045260246000fd5b600f600083815260200190815260200160002060090160009054906101000a900460ff166002811115613342577f4e487b7100000000000000000000000000000000000000000000000000000000600052602160045260246000fd5b146133505780915050613449565b613359426107d2565b81101561339b576040517f08c379a0000000000000000000000000000000000000000000000000000000008152600401613392906147a8565b60405180910390fd5b80600f6000838152602001908152602001600020600001819055506001600f600083815260200190815260200160002060090160006101000a81548160ff02191690836002811115613416577f4e487b7100000000000000000000000000000000000000000000000000000000600052602160045260246000fd5b02179055506013819080600181540180825580915050600190039060005260206000200160009091909190915055809150505b919050565b600061345a83836124c2565b9050600b548110156134a1576040517f08c379a000000000000000000000000000000000000000000000000000000000815260040161349890614728565b60405180910390fd5b505050565b6000806134b283610edb565b9050600060028111156134ee577f4e487b7100000000000000000000000000000000000000000000000000000000600052602160045260246000fd5b600e6000868152602001908152602001600020600083815260200190815260200160002060040160009054906101000a900460ff16600281111561355b577f4e487b7100000000000000000000000000000000000000000000000000000000600052602160045260246000fd5b146135695780915050613603565b83600e600086815260200190815260200160002060008381526020019081526020016000206000018190555080600e6000868152602001908152602001600020600083815260200190815260200160002060010181905550600f6000858152602001908152602001600020600a01819080600181540180825580915050600190039060005260206000200160009091909190915055809150505b92915050565b6000601160008473ffffffffffffffffffffffffffffffffffffffff1673ffffffffffffffffffffffffffffffffffffffff1681526020019081526020016000206000018190555080601160008473ffffffffffffffffffffffffffffffffffffffff1673ffffffffffffffffffffffffffffffffffffffff16815260200190815260200160002060020160006101000a81548173ffffffffffffffffffffffffffffffffffffffff021916908373ffffffffffffffffffffffffffffffffffffffff1602179055506012829080600181540180825580915050600190039060005260206000200160009091909190916101000a81548173ffffffffffffffffffffffffffffffffffffffff021916908373ffffffffffffffffffffffffffffffffffffffff160217905550600073ffffffffffffffffffffffffffffffffffffffff168173ffffffffffffffffffffffffffffffffffffffff16146137745761377381836138a3565b5b5050565b60006401000000004261378b9190614e02565b905090565b613798613a59565b6000826dffffffffffffffffffffffffffff16116137eb576040517f08c379a00000000000000000000000000000000000000000000000000000000081526004016137e2906147e8565b60405180910390fd5b6040518060200160405280836dffffffffffffffffffffffffffff16607060ff16866dffffffffffffffffffffffffffff167bffffffffffffffffffffffffffffffffffffffffffffffffffffffff16901b6138479190614b09565b7bffffffffffffffffffffffffffffffffffffffffffffffffffffffff16815250905092915050565b6000607060ff1682600001517bffffffffffffffffffffffffffffffffffffffffffffffffffffffff16901c9050919050565b601160008373ffffffffffffffffffffffffffffffffffffffff1673ffffffffffffffffffffffffffffffffffffffff168152602001908152602001600020600101819080600181540180825580915050600190039060005260206000200160009091909190916101000a81548173ffffffffffffffffffffffffffffffffffffffff021916908373ffffffffffffffffffffffffffffffffffffffff1602179055505050565b6040518060a001604052806000815260200160008152602001600073ffffffffffffffffffffffffffffffffffffffff16815260200160008152602001600060028111156139c1577f4e487b7100000000000000000000000000000000000000000000000000000000600052602160045260246000fd5b81525090565b60405180610160016040528060008152602001600081526020016000815260200160008152602001600081526020016000815260200160008152602001600081526020016000815260200160006002811115613a4c577f4e487b7100000000000000000000000000000000000000000000000000000000600052602160045260246000fd5b8152602001606081525090565b604051806020016040528060007bffffffffffffffffffffffffffffffffffffffffffffffffffffffff1681525090565b600081359050613a9981614ef5565b92915050565b600081519050613aae81614ef5565b92915050565b600081519050613ac381614f0c565b92915050565b600081519050613ad881614f23565b92915050565b600081359050613aed81614f3a565b92915050565b600081519050613b0281614f3a565b92915050565b600081519050613b1781614f51565b92915050565b600060208284031215613b2f57600080fd5b6000613b3d84828501613a8a565b91505092915050565b600060208284031215613b5857600080fd5b6000613b6684828501613a9f565b91505092915050565b60008060408385031215613b8257600080fd5b6000613b9085828601613a8a565b9250506020613ba185828601613ade565b9150509250929050565b600060208284031215613bbd57600080fd5b6000613bcb84828501613ab4565b91505092915050565b600080600060608486031215613be957600080fd5b6000613bf786828701613ac9565b9350506020613c0886828701613ac9565b9250506040613c1986828701613b08565b9150509250925092565b600060208284031215613c3557600080fd5b6000613c4384828501613ade565b91505092915050565b600060208284031215613c5e57600080fd5b6000613c6c84828501613af3565b91505092915050565b60008060408385031215613c8857600080fd5b6000613c9685828601613ade565b9250506020613ca785828601613ade565b9150509250929050565b600080600060608486031215613cc657600080fd5b6000613cd486828701613ade565b9350506020613ce586828701613ade565b9250506040613cf686828701613ade565b9150509250925092565b60008060008060808587031215613d1657600080fd5b6000613d2487828801613ade565b9450506020613d3587828801613ade565b9350506040613d4687828801613ade565b9250506060613d5787828801613a8a565b91505092959194509250565b6000613d6f8383613d93565b60208301905092915050565b6000613d8783836144bb565b60208301905092915050565b613d9c81614c64565b82525050565b613dab81614c64565b82525050565b6000613dbc82614a3f565b613dc68185614a6f565b9350613dd183614a1f565b8060005b83811015613e02578151613de98882613d63565b9750613df483614a55565b925050600181019050613dd5565b5085935050505092915050565b6000613e1a82614a4a565b613e248185614a80565b9350613e2f83614a2f565b8060005b83811015613e60578151613e478882613d7b565b9750613e5283614a62565b925050600181019050613e33565b5085935050505092915050565b6000613e7882614a4a565b613e828185614a91565b9350613e8d83614a2f565b8060005b83811015613ebe578151613ea58882613d7b565b9750613eb083614a62565b925050600181019050613e91565b5085935050505092915050565b613ed481614c76565b82525050565b613ee381614d24565b82525050565b613ef281614d48565b82525050565b613f0181614d6c565b82525050565b613f1081614d90565b82525050565b613f1f81614d90565b82525050565b613f2e81614da2565b82525050565b613f3d81614da2565b82525050565b6000613f50601a83614aa2565b91507f4652414d4520454e442054494d45204e4f5420524541434845440000000000006000830152602082019050919050565b6000613f90601583614aa2565b91507f4e4f542054484520464143544f5259204f574e455200000000000000000000006000830152602082019050919050565b6000613fd0600b83614aa2565b91507f4c4f5420494e20504153540000000000000000000000000000000000000000006000830152602082019050919050565b6000614010600d83614aa2565b91507f4e4f54204c4f54204f574e4552000000000000000000000000000000000000006000830152602082019050919050565b6000614050600883614aa2565b91507f4e4f204f574e45520000000000000000000000000000000000000000000000006000830152602082019050919050565b6000614090601383614aa2565b91507f494e56414c4944204652414d45205052494345000000000000000000000000006000830152602082019050919050565b60006140d0601383614aa2565b91507f4c4f5420414c524541445920534554544c4544000000000000000000000000006000830152602082019050919050565b6000614110601083614aa2565b91507f505249434520495320544f4f204c4f57000000000000000000000000000000006000830152602082019050919050565b6000614150600d83614aa2565b91507f414c5245414459204f574e4552000000000000000000000000000000000000006000830152602082019050919050565b6000614190601983614aa2565b91507f415050524f56454420414d4f554e5420544f4f20534d414c4c000000000000006000830152602082019050919050565b60006141d0601083614aa2565b91507f4652414d45204e4f5420434c4f534544000000000000000000000000000000006000830152602082019050919050565b6000614210600d83614aa2565b91507f4652414d4520494e2050415354000000000000000000000000000000000000006000830152602082019050919050565b6000614250601183614aa2565b91507f4c4f5420494e2050415354204652414d450000000000000000000000000000006000830152602082019050919050565b6000614290601783614aa2565b91507f4669786564506f696e743a204449565f42595f5a45524f0000000000000000006000830152602082019050919050565b6000610160830160008301516142dc60008601826144bb565b5060208301516142ef60208601826144bb565b50604083015161430260408601826144bb565b50606083015161431560608601826144bb565b50608083015161432860808601826144bb565b5060a083015161433b60a08601826144bb565b5060c083015161434e60c08601826144bb565b5060e083015161436160e08601826144bb565b506101008301516143766101008601826144bb565b5061012083015161438b610120860182613f07565b506101408301518482036101408601526143a58282613e0f565b9150508091505092915050565b60a0820160008201516143c860008501826144bb565b5060208201516143db60208501826144bb565b5060408201516143ee6040850182613d93565b50606082015161440160608501826144bb565b5060808201516144146080850182613f25565b50505050565b60a08201600080830154905061442f81614de8565b61443c60008601826144bb565b506001830154905061444d81614de8565b61445a60208601826144bb565b506002830154905061446b81614db4565b6144786040860182613d93565b506003830154905061448981614de8565b61449660608601826144bb565b50600483015490506144a781614dce565b6144b46080860182613f25565b5050505050565b6144c481614d0a565b82525050565b6144d381614d0a565b82525050565b60006020820190506144ee6000830184613da2565b92915050565b60006040820190506145096000830185613da2565b6145166020830184613da2565b9392505050565b60006060820190506145326000830186613da2565b61453f6020830185613da2565b61454c60408301846144ca565b949350505050565b60006040820190506145696000830185613da2565b61457660208301846144ca565b9392505050565b600060208201905081810360008301526145978184613db1565b905092915050565b600060208201905081810360008301526145b98184613e6d565b905092915050565b60006020820190506145d66000830184613ecb565b92915050565b60006020820190506145f16000830184613eda565b92915050565b600060208201905061460c6000830184613ee9565b92915050565b60006020820190506146276000830184613ef8565b92915050565b60006020820190506146426000830184613f16565b92915050565b6000602082019050818103600083015261466181613f43565b9050919050565b6000602082019050818103600083015261468181613f83565b9050919050565b600060208201905081810360008301526146a181613fc3565b9050919050565b600060208201905081810360008301526146c181614003565b9050919050565b600060208201905081810360008301526146e181614043565b9050919050565b6000602082019050818103600083015261470181614083565b9050919050565b60006020820190508181036000830152614721816140c3565b9050919050565b6000602082019050818103600083015261474181614103565b9050919050565b6000602082019050818103600083015261476181614143565b9050919050565b6000602082019050818103600083015261478181614183565b9050919050565b600060208201905081810360008301526147a1816141c3565b9050919050565b600060208201905081810360008301526147c181614203565b9050919050565b600060208201905081810360008301526147e181614243565b9050919050565b6000602082019050818103600083015261480181614283565b9050919050565b6000602082019050818103600083015261482281846142c3565b905092915050565b600060a08201905061483f60008301846143b2565b92915050565b600060208201905061485a60008301846144ca565b92915050565b600060408201905061487560008301856144ca565b6148826020830184613da2565b9392505050565b600060c08201905061489e60008301856144ca565b6148ab602083018461441a565b9392505050565b600060a0820190506148c760008301886144ca565b6148d460208301876144ca565b6148e16040830186613da2565b6148ee60608301856144ca565b6148fb6080830184613f34565b9695505050505050565b60006101008201905061491b600083018b6144ca565b614928602083018a6144ca565b61493560408301896144ca565b61494260608301886144ca565b61494f60808301876144ca565b61495c60a08301866144ca565b61496960c08301856144ca565b61497660e08301846144ca565b9998505050505050505050565b600061014082019050614999600083018d6144ca565b6149a6602083018c6144ca565b6149b3604083018b6144ca565b6149c0606083018a6144ca565b6149cd60808301896144ca565b6149da60a08301886144ca565b6149e760c08301876144ca565b6149f460e08301866144ca565b614a026101008301856144ca565b614a10610120830184613f16565b9b9a5050505050505050505050565b6000819050602082019050919050565b6000819050602082019050919050565b600081519050919050565b600081519050919050565b6000602082019050919050565b6000602082019050919050565b600082825260208201905092915050565b600082825260208201905092915050565b600082825260208201905092915050565b600082825260208201905092915050565b6000614abe82614d0a565b9150614ac983614d0a565b9250827fffffffffffffffffffffffffffffffffffffffffffffffffffffffffffffffff03821115614afe57614afd614e33565b5b828201905092915050565b6000614b1482614ce2565b9150614b1f83614ce2565b925082614b2f57614b2e614e62565b5b828204905092915050565b6000614b4582614d0a565b9150614b5083614d0a565b925082614b6057614b5f614e62565b5b828204905092915050565b6000614b7682614d0a565b9150614b8183614d0a565b9250817fffffffffffffffffffffffffffffffffffffffffffffffffffffffffffffffff0483118215151615614bba57614bb9614e33565b5b828202905092915050565b6000614bd082614d0a565b9150614bdb83614d0a565b925082821015614bee57614bed614e33565b5b828203905092915050565b6000614c0482614d14565b9150614c0f83614d14565b925082821015614c2257614c21614e33565b5b828203905092915050565b600073ffffffffffffffffffffffffffffffffffffffff82169050919050565b600060ff82169050919050565b6000819050919050565b6000614c6f82614cc2565b9050919050565b60008115159050919050565b6000819050614c9082614ecd565b919050565b6000819050614ca382614ee1565b919050565b60006dffffffffffffffffffffffffffff82169050919050565b600073ffffffffffffffffffffffffffffffffffffffff82169050919050565b60007bffffffffffffffffffffffffffffffffffffffffffffffffffffffff82169050919050565b6000819050919050565b600063ffffffff82169050919050565b6000614d2f82614d36565b9050919050565b6000614d4182614cc2565b9050919050565b6000614d5382614d5a565b9050919050565b6000614d6582614cc2565b9050919050565b6000614d7782614d7e565b9050919050565b6000614d8982614cc2565b9050919050565b6000614d9b82614c82565b9050919050565b6000614dad82614c95565b9050919050565b6000614dc7614dc283614ec0565b614c2d565b9050919050565b6000614de1614ddc83614ec0565b614c4d565b9050919050565b6000614dfb614df683614ec0565b614c5a565b9050919050565b6000614e0d82614d0a565b9150614e1883614d0a565b925082614e2857614e27614e62565b5b828206905092915050565b7f4e487b7100000000000000000000000000000000000000000000000000000000600052601160045260246000fd5b7f4e487b7100000000000000000000000000000000000000000000000000000000600052601260045260246000fd5b7f4e487b7100000000000000000000000000000000000000000000000000000000600052602160045260246000fd5b60008160001c9050919050565b60038110614ede57614edd614e91565b5b50565b60038110614ef257614ef1614e91565b5b50565b614efe81614c64565b8114614f0957600080fd5b50565b614f1581614c76565b8114614f2057600080fd5b50565b614f2c81614ca8565b8114614f3757600080fd5b50565b614f4381614d0a565b8114614f4e57600080fd5b50565b614f5a81614d14565b8114614f6557600080fd5b5056fea2646970667358221220a49dd5493b5014f4c801610cd86614e30c841fe9fc90f79324bee4b695ffa98064736f6c63430008000033",
  "linkReferences": {},
  "deployedLinkReferences": {}
}