{
  "_format": "hh-sol-artifact-1",
  "contractName": "Market",
  "sourceName": "contracts/Market.sol",
  "abi": [
    {
      "inputs": [
        {
          "internalType": "contract MarketFactory",
          "name": "_factory",
          "type": "address"
        },
        {
          "internalType": "contract IERC20",
          "name": "_token",
          "type": "address"
        },
        {
          "internalType": "contract IUniswapV2Pair",
          "name": "_uniswapPair",
          "type": "address"
        },
        {
          "internalType": "uint256",
          "name": "_period",
          "type": "uint256"
        },
        {
          "internalType": "uint256",
          "name": "_initTimestamp",
          "type": "uint256"
        },
        {
          "internalType": "uint256",
          "name": "_taxMarket",
          "type": "uint256"
        },
        {
          "internalType": "uint256",
          "name": "_feeMarket",
          "type": "uint256"
        },
        {
          "internalType": "uint256",
          "name": "_dPrice",
          "type": "uint256"
        },
        {
          "internalType": "uint256",
          "name": "_tReporting",
          "type": "uint256"
        },
        {
          "internalType": "uint256",
          "name": "_minTax",
          "type": "uint256"
        }
      ],
      "stateMutability": "nonpayable",
      "type": "constructor"
    },
    {
      "anonymous": false,
      "inputs": [
        {
          "indexed": false,
          "internalType": "uint256",
          "name": "frameKey",
          "type": "uint256"
        },
        {
          "indexed": false,
          "internalType": "uint256",
          "name": "oracleTimestampStart",
          "type": "uint256"
        },
        {
          "indexed": false,
          "internalType": "uint256",
          "name": "oracleTimestampEnd",
          "type": "uint256"
        },
        {
          "indexed": false,
          "internalType": "uint256",
          "name": "oraclePrice0CumulativeStart",
          "type": "uint256"
        },
        {
          "indexed": false,
          "internalType": "uint256",
          "name": "oraclePrice0CumulativeEnd",
          "type": "uint256"
        },
        {
          "indexed": false,
          "internalType": "uint256",
          "name": "rewardFund",
          "type": "uint256"
        }
      ],
      "name": "FrameUpdate",
      "type": "event"
    },
    {
      "anonymous": false,
      "inputs": [
        {
          "indexed": false,
          "internalType": "uint256",
          "name": "frameKey",
          "type": "uint256"
        },
        {
          "components": [
            {
              "internalType": "uint256",
              "name": "frameKey",
              "type": "uint256"
            },
            {
              "internalType": "uint256",
              "name": "lotKey",
              "type": "uint256"
            },
            {
              "internalType": "address",
              "name": "lotOwner",
              "type": "address"
            },
            {
              "internalType": "uint256",
              "name": "acquisitionPrice",
              "type": "uint256"
            },
            {
              "internalType": "enum Market.SLot",
              "name": "state",
              "type": "uint8"
            }
          ],
          "indexed": false,
          "internalType": "struct Market.Lot",
          "name": "lotStruct",
          "type": "tuple"
        }
      ],
      "name": "LotUpdate",
      "type": "event"
    },
    {
      "inputs": [],
      "name": "accountingToken",
      "outputs": [
        {
          "internalType": "contract IERC20",
          "name": "",
          "type": "address"
        }
      ],
      "stateMutability": "view",
      "type": "function"
    },
    {
      "inputs": [
        {
          "internalType": "uint256",
          "name": "timestamp",
          "type": "uint256"
        },
        {
          "internalType": "uint256",
          "name": "pairPrice",
          "type": "uint256"
        },
        {
          "internalType": "uint256",
          "name": "acqPrice",
          "type": "uint256"
        }
      ],
      "name": "buyLot",
      "outputs": [],
      "stateMutability": "nonpayable",
      "type": "function"
    },
    {
      "inputs": [
        {
          "internalType": "uint256",
          "name": "frameKey",
          "type": "uint256"
        }
      ],
      "name": "claimReward",
      "outputs": [],
      "stateMutability": "nonpayable",
      "type": "function"
    },
    {
      "inputs": [
        {
          "internalType": "uint256",
          "name": "timestamp",
          "type": "uint256"
        },
        {
          "internalType": "uint256",
          "name": "pairPrice",
          "type": "uint256"
        },
        {
          "internalType": "uint256",
          "name": "acqPrice",
          "type": "uint256"
        }
      ],
      "name": "clcAmountToApprove",
      "outputs": [
        {
          "internalType": "uint256",
          "name": "cmpltAmnt",
          "type": "uint256"
        }
      ],
      "stateMutability": "view",
      "type": "function"
    },
    {
      "inputs": [
        {
          "internalType": "uint256",
          "name": "timestamp",
          "type": "uint256"
        },
        {
          "internalType": "uint256",
          "name": "pairPrice",
          "type": "uint256"
        },
        {
          "internalType": "uint256",
          "name": "acqPrice",
          "type": "uint256"
        }
      ],
      "name": "clcAmountToApproveForUpdate",
      "outputs": [
        {
          "internalType": "uint256",
          "name": "amnt",
          "type": "uint256"
        }
      ],
      "stateMutability": "view",
      "type": "function"
    },
    {
      "inputs": [
        {
          "internalType": "uint256",
          "name": "timestamp",
          "type": "uint256"
        }
      ],
      "name": "clcFrameTimestamp",
      "outputs": [
        {
          "internalType": "uint256",
          "name": "",
          "type": "uint256"
        }
      ],
      "stateMutability": "view",
      "type": "function"
    },
    {
      "inputs": [
        {
          "internalType": "uint256",
          "name": "value",
          "type": "uint256"
        }
      ],
      "name": "clcLotInterval",
      "outputs": [
        {
          "internalType": "uint256",
          "name": "",
          "type": "uint256"
        }
      ],
      "stateMutability": "view",
      "type": "function"
    },
    {
      "inputs": [
        {
          "internalType": "uint256",
          "name": "frameKey",
          "type": "uint256"
        }
      ],
      "name": "clcPrice",
      "outputs": [
        {
          "internalType": "uint256",
          "name": "avgPrice",
          "type": "uint256"
        }
      ],
      "stateMutability": "view",
      "type": "function"
    },
    {
      "inputs": [
        {
          "internalType": "uint256",
          "name": "frameKey",
          "type": "uint256"
        }
      ],
      "name": "closeFrame",
      "outputs": [],
      "stateMutability": "nonpayable",
      "type": "function"
    },
    {
      "inputs": [],
      "name": "dPrice",
      "outputs": [
        {
          "internalType": "uint256",
          "name": "",
          "type": "uint256"
        }
      ],
      "stateMutability": "view",
      "type": "function"
    },
    {
      "inputs": [
        {
          "internalType": "uint256",
          "name": "amount",
          "type": "uint256"
        }
      ],
      "name": "emptyFunds",
      "outputs": [],
      "stateMutability": "nonpayable",
      "type": "function"
    },
    {
      "inputs": [],
      "name": "factory",
      "outputs": [
        {
          "internalType": "contract MarketFactory",
          "name": "",
          "type": "address"
        }
      ],
      "stateMutability": "view",
      "type": "function"
    },
    {
      "inputs": [],
      "name": "feeMarket",
      "outputs": [
        {
          "internalType": "uint256",
          "name": "",
          "type": "uint256"
        }
      ],
      "stateMutability": "view",
      "type": "function"
    },
    {
      "inputs": [],
      "name": "feeProtocol",
      "outputs": [
        {
          "internalType": "uint256",
          "name": "",
          "type": "uint256"
        }
      ],
      "stateMutability": "view",
      "type": "function"
    },
    {
      "inputs": [
        {
          "internalType": "uint256",
          "name": "",
          "type": "uint256"
        }
      ],
      "name": "frames",
      "outputs": [
        {
          "internalType": "uint256",
          "name": "frameKey",
          "type": "uint256"
        },
        {
          "internalType": "uint256",
          "name": "oracleTimestampStart",
          "type": "uint256"
        },
        {
          "internalType": "uint256",
          "name": "oracleTimestampEnd",
          "type": "uint256"
        },
        {
          "internalType": "uint256",
          "name": "priceAverage",
          "type": "uint256"
        },
        {
          "internalType": "uint256",
          "name": "rewardFund",
          "type": "uint256"
        },
        {
          "internalType": "uint256",
          "name": "oraclePrice0CumulativeStart",
          "type": "uint256"
        },
        {
          "internalType": "uint256",
          "name": "oraclePrice0CumulativeEnd",
          "type": "uint256"
        },
        {
          "internalType": "enum Market.SFrame",
          "name": "state",
          "type": "uint8"
        }
      ],
      "stateMutability": "view",
      "type": "function"
    },
    {
      "inputs": [
        {
          "internalType": "uint256",
          "name": "",
          "type": "uint256"
        }
      ],
      "name": "framesKeys",
      "outputs": [
        {
          "internalType": "uint256",
          "name": "",
          "type": "uint256"
        }
      ],
      "stateMutability": "view",
      "type": "function"
    },
    {
      "inputs": [
        {
          "internalType": "uint256",
          "name": "frameKey",
          "type": "uint256"
        }
      ],
      "name": "getFramePrice",
      "outputs": [
        {
          "internalType": "uint256",
          "name": "",
          "type": "uint256"
        },
        {
          "internalType": "uint256",
          "name": "",
          "type": "uint256"
        }
      ],
      "stateMutability": "view",
      "type": "function"
    },
    {
      "inputs": [
        {
          "internalType": "uint256",
          "name": "frameKey",
          "type": "uint256"
        },
        {
          "internalType": "uint256",
          "name": "lotKey",
          "type": "uint256"
        }
      ],
      "name": "getLot",
      "outputs": [
        {
          "components": [
            {
              "internalType": "uint256",
              "name": "frameKey",
              "type": "uint256"
            },
            {
              "internalType": "uint256",
              "name": "lotKey",
              "type": "uint256"
            },
            {
              "internalType": "address",
              "name": "lotOwner",
              "type": "address"
            },
            {
              "internalType": "uint256",
              "name": "acquisitionPrice",
              "type": "uint256"
            },
            {
              "internalType": "enum Market.SLot",
              "name": "state",
              "type": "uint8"
            }
          ],
          "internalType": "struct Market.Lot",
          "name": "",
          "type": "tuple"
        }
      ],
      "stateMutability": "view",
      "type": "function"
    },
    {
      "inputs": [
        {
          "internalType": "uint256",
          "name": "frameKey",
          "type": "uint256"
        },
        {
          "internalType": "uint256",
          "name": "index",
          "type": "uint256"
        }
      ],
      "name": "getLotKey",
      "outputs": [
        {
          "internalType": "uint256",
          "name": "",
          "type": "uint256"
        }
      ],
      "stateMutability": "view",
      "type": "function"
    },
    {
      "inputs": [
        {
          "internalType": "uint256",
          "name": "frameKey",
          "type": "uint256"
        }
      ],
      "name": "getLotsCount",
      "outputs": [
        {
          "internalType": "uint256",
          "name": "",
          "type": "uint256"
        }
      ],
      "stateMutability": "view",
      "type": "function"
    },
    {
      "inputs": [
        {
          "internalType": "address",
          "name": "user",
          "type": "address"
        }
      ],
      "name": "getNumOfUserFrames",
      "outputs": [
        {
          "internalType": "uint256",
          "name": "",
          "type": "uint256"
        }
      ],
      "stateMutability": "view",
      "type": "function"
    },
    {
      "inputs": [],
      "name": "getNumberOfFrameKeys",
      "outputs": [
        {
          "internalType": "uint256",
          "name": "",
          "type": "uint256"
        }
      ],
      "stateMutability": "view",
      "type": "function"
    },
    {
      "inputs": [
        {
          "internalType": "uint256",
          "name": "startFrame",
          "type": "uint256"
        },
        {
          "internalType": "uint256",
          "name": "numOfFrames",
          "type": "uint256"
        }
      ],
      "name": "getOpenFrameKeys",
      "outputs": [
        {
          "internalType": "uint256[]",
          "name": "",
          "type": "uint256[]"
        }
      ],
      "stateMutability": "view",
      "type": "function"
    },
    {
      "inputs": [
        {
          "internalType": "uint256",
          "name": "frameKey",
          "type": "uint256"
        }
      ],
      "name": "getRewardAmount",
      "outputs": [
        {
          "internalType": "uint256",
          "name": "",
          "type": "uint256"
        }
      ],
      "stateMutability": "view",
      "type": "function"
    },
    {
      "inputs": [
        {
          "internalType": "address",
          "name": "user",
          "type": "address"
        }
      ],
      "name": "getUserFrames",
      "outputs": [
        {
          "internalType": "uint256[]",
          "name": "",
          "type": "uint256[]"
        }
      ],
      "stateMutability": "view",
      "type": "function"
    },
    {
      "inputs": [
        {
          "internalType": "address",
          "name": "user",
          "type": "address"
        }
      ],
      "name": "getUserLots",
      "outputs": [
        {
          "components": [
            {
              "internalType": "uint256",
              "name": "frameKey",
              "type": "uint256"
            },
            {
              "internalType": "uint256",
              "name": "lotKey",
              "type": "uint256"
            },
            {
              "internalType": "address",
              "name": "lotOwner",
              "type": "address"
            },
            {
              "internalType": "uint256",
              "name": "acquisitionPrice",
              "type": "uint256"
            },
            {
              "internalType": "enum Market.SLot",
              "name": "state",
              "type": "uint8"
            }
          ],
          "internalType": "struct Market.Lot[]",
          "name": "userLots",
          "type": "tuple[]"
        }
      ],
      "stateMutability": "view",
      "type": "function"
    },
    {
      "inputs": [],
      "name": "initTimestamp",
      "outputs": [
        {
          "internalType": "uint256",
          "name": "",
          "type": "uint256"
        }
      ],
      "stateMutability": "view",
      "type": "function"
    },
    {
      "inputs": [],
      "name": "minTax",
      "outputs": [
        {
          "internalType": "uint256",
          "name": "",
          "type": "uint256"
        }
      ],
      "stateMutability": "view",
      "type": "function"
    },
    {
      "inputs": [],
      "name": "ownerMarket",
      "outputs": [
        {
          "internalType": "address",
          "name": "",
          "type": "address"
        }
      ],
      "stateMutability": "view",
      "type": "function"
    },
    {
      "inputs": [],
      "name": "period",
      "outputs": [
        {
          "internalType": "uint256",
          "name": "",
          "type": "uint256"
        }
      ],
      "stateMutability": "view",
      "type": "function"
    },
    {
      "inputs": [],
      "name": "tReporting",
      "outputs": [
        {
          "internalType": "uint256",
          "name": "",
          "type": "uint256"
        }
      ],
      "stateMutability": "view",
      "type": "function"
    },
    {
      "inputs": [],
      "name": "taxMarket",
      "outputs": [
        {
          "internalType": "uint256",
          "name": "",
          "type": "uint256"
        }
      ],
      "stateMutability": "view",
      "type": "function"
    },
    {
      "inputs": [],
      "name": "uniswapPair",
      "outputs": [
        {
          "internalType": "contract IUniswapV2Pair",
          "name": "",
          "type": "address"
        }
      ],
      "stateMutability": "view",
      "type": "function"
    },
    {
      "inputs": [],
      "name": "updateFramePrices",
      "outputs": [],
      "stateMutability": "nonpayable",
      "type": "function"
    },
    {
      "inputs": [
        {
          "internalType": "uint256",
          "name": "timestamp",
          "type": "uint256"
        },
        {
          "internalType": "uint256",
          "name": "pairPrice",
          "type": "uint256"
        },
        {
          "internalType": "uint256",
          "name": "acqPrice",
          "type": "uint256"
        }
      ],
      "name": "updateLotPrice",
      "outputs": [],
      "stateMutability": "nonpayable",
      "type": "function"
    },
    {
      "inputs": [
        {
          "internalType": "address",
          "name": "",
          "type": "address"
        },
        {
          "internalType": "uint256",
          "name": "",
          "type": "uint256"
        }
      ],
      "name": "userFrames",
      "outputs": [
        {
          "internalType": "uint256",
          "name": "",
          "type": "uint256"
        }
      ],
      "stateMutability": "view",
      "type": "function"
    }
  ],
  "bytecode": "0x6080604052606460025569d3c21bcecceda1000000600c553480156200002457600080fd5b50604051620052ae380380620052ae83398181016040528101906200004a9190620001eb565b88600960006101000a81548173ffffffffffffffffffffffffffffffffffffffff021916908373ffffffffffffffffffffffffffffffffffffffff16021790555033600a60006101000a81548173ffffffffffffffffffffffffffffffffffffffff021916908373ffffffffffffffffffffffffffffffffffffffff1602179055508660008190555085600181905550846007819055508360068190555087600460006101000a81548173ffffffffffffffffffffffffffffffffffffffff021916908373ffffffffffffffffffffffffffffffffffffffff1602179055508260058190555089600860006101000a81548173ffffffffffffffffffffffffffffffffffffffff021916908373ffffffffffffffffffffffffffffffffffffffff1602179055508160038190555080600b8190555050505050505050505050620003bd565b600081519050620001a08162000355565b92915050565b600081519050620001b7816200036f565b92915050565b600081519050620001ce8162000389565b92915050565b600081519050620001e581620003a3565b92915050565b6000806000806000806000806000806101408b8d0312156200020c57600080fd5b60006200021c8d828e01620001bd565b9a505060206200022f8d828e016200018f565b9950506040620002428d828e01620001a6565b9850506060620002558d828e01620001d4565b9750506080620002688d828e01620001d4565b96505060a06200027b8d828e01620001d4565b95505060c06200028e8d828e01620001d4565b94505060e0620002a18d828e01620001d4565b935050610100620002b58d828e01620001d4565b925050610120620002c98d828e01620001d4565b9150509295989b9194979a5092959850565b6000620002e8826200032b565b9050919050565b6000620002fc82620002db565b9050919050565b60006200031082620002db565b9050919050565b60006200032482620002db565b9050919050565b600073ffffffffffffffffffffffffffffffffffffffff82169050919050565b6000819050919050565b6200036081620002ef565b81146200036c57600080fd5b50565b6200037a8162000303565b81146200038657600080fd5b50565b620003948162000317565b8114620003a057600080fd5b50565b620003ae816200034b565b8114620003ba57600080fd5b50565b614ee180620003cd6000396000f3fe608060405234801561001057600080fd5b506004361061021c5760003560e01c80637e99663911610125578063ae169a50116100ad578063c84993af1161007c578063c84993af146106cf578063da68cf8b146106ff578063ef78d4fd1461071d578063fc9507021461073b578063ff5c86b0146107575761021c565b8063ae169a501461065b578063bb15d2dd14610677578063c45a015514610693578063c816841b146106b15761021c565b80639495833c116100f45780639495833c14610589578063950292e8146105b957806396b2c6f3146105ea578063a10340bc146105f4578063a4d246ff1461062b5761021c565b80637e996639146104ed578063830ab1191461050b578063888bdbcd1461053b57806389da88a31461056b5761021c565b806345084775116101a857806360f65c601161017757806360f65c6014610423578063659d0ca0146104535780636f1aefc3146104835780636f7cb60b146104b35780637358c57a146104cf5761021c565b80634508477514610399578063499a0fc4146103b7578063527eb4bc146103d55780635b3ad63e146103f35761021c565b80633c80d8ea116101ef5780633c80d8ea146102e15780633d09a82a146102fd5780633e16bc201461031b578063410f07101461034b57806341a8b6f8146103695761021c565b8063050e8840146102215780630ef192731461025157806314aa5a99146102815780633656d5ee146102b1575b600080fd5b61023b60048036038101906102369190613c99565b610775565b6040516102489190614558565b60405180910390f35b61026b60048036038101906102669190613b93565b610799565b6040516102789190614558565b60405180910390f35b61029b60048036038101906102969190613ceb565b6107e5565b6040516102a8919061430a565b60405180910390f35b6102cb60048036038101906102c69190613d27565b610982565b6040516102d89190614558565b60405180910390f35b6102fb60048036038101906102f69190613d27565b610a0d565b005b6103056112d8565b6040516103129190614558565b60405180910390f35b61033560048036038101906103309190613ceb565b6112de565b6040516103429190614558565b60405180910390f35b610353611341565b6040516103609190614558565b60405180910390f35b610383600480360381019061037e9190613c99565b611347565b6040516103909190614558565b60405180910390f35b6103a16114c1565b6040516103ae9190614244565b60405180910390f35b6103bf6114e7565b6040516103cc9190614558565b60405180910390f35b6103dd6114ed565b6040516103ea9190614558565b60405180910390f35b61040d60048036038101906104089190613c99565b6114f3565b60405161041a9190614558565b60405180910390f35b61043d60048036038101906104389190613be5565b611536565b60405161044a9190614558565b60405180910390f35b61046d60048036038101906104689190613b93565b611567565b60405161047a91906142e8565b60405180910390f35b61049d60048036038101906104989190613ceb565b611c79565b6040516104aa919061453d565b60405180910390f35b6104cd60048036038101906104c89190613c99565b611db6565b005b6104d7612015565b6040516104e49190614558565b60405180910390f35b6104f561201b565b6040516105029190614558565b60405180910390f35b61052560048036038101906105209190613c99565b612021565b6040516105329190614558565b60405180910390f35b61055560048036038101906105509190613c99565b612044565b6040516105629190614558565b60405180910390f35b61057361207a565b6040516105809190614558565b60405180910390f35b6105a3600480360381019061059e9190613b93565b612087565b6040516105b0919061430a565b60405180910390f35b6105d360048036038101906105ce9190613c99565b61211e565b6040516105e192919061459c565b60405180910390f35b6105f2612158565b005b61060e60048036038101906106099190613c99565b612562565b604051610622989796959493929190614626565b60405180910390f35b61064560048036038101906106409190613d27565b6125b7565b6040516106529190614558565b60405180910390f35b61067560048036038101906106709190613c99565b61266d565b005b610691600480360381019061068c9190613d27565b612682565b005b61069b612c04565b6040516106a89190614362565b60405180910390f35b6106b9612c2a565b6040516106c69190614347565b60405180910390f35b6106e960048036038101906106e49190613c99565b612c50565b6040516106f69190614558565b60405180910390f35b610707612c70565b604051610714919061432c565b60405180910390f35b610725612c96565b6040516107329190614558565b60405180910390f35b61075560048036038101906107509190613c99565b612c9c565b005b61075f613176565b60405161076c9190614558565b60405180910390f35b600f818154811061078557600080fd5b906000526020600020016000915090505481565b6000600e60008373ffffffffffffffffffffffffffffffffffffffff1673ffffffffffffffffffffffffffffffffffffffff168152602001908152602001600020805490509050919050565b606060008267ffffffffffffffff811115610829577f4e487b7100000000000000000000000000000000000000000000000000000000600052604160045260246000fd5b6040519080825280602002602001820160405280156108575781602001602082028036833780820191505090505b50905060005b838111610977576000816000546108749190614835565b8661087f9190614727565b9050600060028111156108bb577f4e487b7100000000000000000000000000000000000000000000000000000000600052602160045260246000fd5b600d600083815260200190815260200160002060070160009054906101000a900460ff166002811115610917577f4e487b7100000000000000000000000000000000000000000000000000000000600052602160045260246000fd5b146109635780838381518110610956577f4e487b7100000000000000000000000000000000000000000000000000000000600052603260045260246000fd5b6020026020010181815250505b50808061096f90614a98565b91505061085d565b508091505092915050565b60008061098e856114f3565b9050600061099b85612044565b905060006109d383600d600086815260200190815260200160002060090160008581526020019081526020016000206003015461317c565b905060006109e1848761317c565b90508082106109f35760009450610a02565b81816109ff919061488f565b94505b505050509392505050565b806000620186a060075483610a229190614835565b610a2c91906147ae565b9050600b54811015610a73576040517f08c379a0000000000000000000000000000000000000000000000000000000008152600401610a6a906143fd565b60405180910390fd5b6000610a7e86613249565b90506000610a8c82876133f9565b9050610a97426114f3565b821015610ad9576040517f08c379a0000000000000000000000000000000000000000000000000000000008152600401610ad09061451d565b60405180910390fd5b600d6000838152602001908152602001600020600901600082815260200190815260200160002060020160009054906101000a900473ffffffffffffffffffffffffffffffffffffffff1673ffffffffffffffffffffffffffffffffffffffff163373ffffffffffffffffffffffffffffffffffffffff161415610b92576040517f08c379a0000000000000000000000000000000000000000000000000000000008152600401610b899061449d565b60405180910390fd5b6000610b9e838761317c565b905080600d6000858152602001908152602001600020600901600084815260200190815260200160002060030154610bd69190614727565b600960009054906101000a900473ffffffffffffffffffffffffffffffffffffffff1673ffffffffffffffffffffffffffffffffffffffff1663dd62ed3e33306040518363ffffffff1660e01b8152600401610c3392919061425f565b60206040518083038186803b158015610c4b57600080fd5b505afa158015610c5f573d6000803e3d6000fd5b505050506040513d601f19601f82011682018060405250810190610c839190613cc2565b1015610cc4576040517f08c379a0000000000000000000000000000000000000000000000000000000008152600401610cbb906144dd565b60405180910390fd5b600960009054906101000a900473ffffffffffffffffffffffffffffffffffffffff1673ffffffffffffffffffffffffffffffffffffffff166323b872dd333084600d6000898152602001908152602001600020600901600088815260200190815260200160002060030154610d3a9190614727565b6040518463ffffffff1660e01b8152600401610d5893929190614288565b602060405180830381600087803b158015610d7257600080fd5b505af1158015610d86573d6000803e3d6000fd5b505050506040513d601f19601f82011682018060405250810190610daa9190613c21565b5080600d600085815260200190815260200160002060040154610dcd9190614727565b600d60008581526020019081526020016000206004018190555060016002811115610e21577f4e487b7100000000000000000000000000000000000000000000000000000000600052602160045260246000fd5b600d6000858152602001908152602001600020600901600084815260200190815260200160002060040160009054906101000a900460ff166002811115610e91577f4e487b7100000000000000000000000000000000000000000000000000000000600052602160045260246000fd5b1415611040576000610ecd84600d600087815260200190815260200160002060090160008681526020019081526020016000206003015461317c565b9050600960009054906101000a900473ffffffffffffffffffffffffffffffffffffffff1673ffffffffffffffffffffffffffffffffffffffff1663a9059cbb600d6000878152602001908152602001600020600901600086815260200190815260200160002060020160009054906101000a900473ffffffffffffffffffffffffffffffffffffffff16600d600088815260200190815260200160002060090160008781526020019081526020016000206003015484610f8e9190614727565b6040518363ffffffff1660e01b8152600401610fab9291906142bf565b602060405180830381600087803b158015610fc557600080fd5b505af1158015610fd9573d6000803e3d6000fd5b505050506040513d601f19601f82011682018060405250810190610ffd9190613c21565b5080600d600086815260200190815260200160002060040154611020919061488f565b600d600086815260200190815260200160002060040181905550506110ba565b6001600d6000858152602001908152602001600020600901600084815260200190815260200160002060040160006101000a81548160ff021916908360028111156110b4577f4e487b7100000000000000000000000000000000000000000000000000000000600052602160045260246000fd5b02179055505b33600d6000858152602001908152602001600020600901600084815260200190815260200160002060020160006101000a81548173ffffffffffffffffffffffffffffffffffffffff021916908373ffffffffffffffffffffffffffffffffffffffff16021790555085600d6000858152602001908152602001600020600901600084815260200190815260200160002060030181905550600e60003373ffffffffffffffffffffffffffffffffffffffff1673ffffffffffffffffffffffffffffffffffffffff1681526020019081526020016000208390806001815401808255809150506001900390600052602060002001600090919091909150556111c0612158565b7f0e6a0e14a3e5e37f98ac3964d96ce45521656b05ddf148d5eebd48c38675d6d783600d600086815260200190815260200160002060010154600d600087815260200190815260200160002060020154600d600088815260200190815260200160002060050154600d600089815260200190815260200160002060060154600d60008a815260200190815260200160002060040154604051611267969594939291906145c5565b60405180910390a17f74c5c6f5cd4370cc0ab554a1afdb2b24b051b40c99102354ef424aed5cd6409d83600d600086815260200190815260200160002060090160008581526020019081526020016000206040516112c6929190614573565b60405180910390a15050505050505050565b600b5481565b6000600d6000848152602001908152602001600020600801828154811061132e577f4e487b7100000000000000000000000000000000000000000000000000000000600052603260045260246000fd5b9060005260206000200154905092915050565b60065481565b6000816000600d60008381526020019081526020016000206005015411158061138757506000600d60008381526020019081526020016000206006015411155b156113c7576040517f08c379a00000000000000000000000000000000000000000000000000000000081526004016113be906143bd565b60405180910390fd5b600d600082815260200190815260200160002060060154600d6000838152602001908152602001600020600501541415611436576040517f08c379a000000000000000000000000000000000000000000000000000000000815260040161142d906143bd565b60405180910390fd5b61149b600d60008581526020019081526020016000206005015461146f600d600087815260200190815260200160002060060154613565565b7bffffffffffffffffffffffffffffffffffffffffffffffffffffffff1661359990919063ffffffff16565b7bffffffffffffffffffffffffffffffffffffffffffffffffffffffff16915050919050565b600a60009054906101000a900473ffffffffffffffffffffffffffffffffffffffff1681565b60055481565b60025481565b60006001548211611508576001549050611531565b60005460015483611519919061488f565b6115239190614ae1565b8261152e919061488f565b90505b919050565b600e602052816000526040600020818154811061155257600080fd5b90600052602060002001600091509150505481565b60606000611574426114f3565b9050606467ffffffffffffffff8111156115b7577f4e487b7100000000000000000000000000000000000000000000000000000000600052604160045260246000fd5b6040519080825280602002602001820160405280156115f057816020015b6115dd613a83565b8152602001906001900390816115d55790505b5091506115fb613a83565b6000805b60328111611933576000816000546116179190614835565b856116229190614727565b90506000600281111561165e577f4e487b7100000000000000000000000000000000000000000000000000000000600052602160045260246000fd5b600d600083815260200190815260200160002060070160009054906101000a900460ff1660028111156116ba577f4e487b7100000000000000000000000000000000000000000000000000000000600052602160045260246000fd5b1461191f5760005b600d60008381526020019081526020016000206008018054905081101561191d57600d60008381526020019081526020016000206009016000600d60008581526020019081526020016000206008018381548110611749577f4e487b7100000000000000000000000000000000000000000000000000000000600052603260045260246000fd5b906000526020600020015481526020019081526020016000206040518060a001604052908160008201548152602001600182015481526020016002820160009054906101000a900473ffffffffffffffffffffffffffffffffffffffff1673ffffffffffffffffffffffffffffffffffffffff1673ffffffffffffffffffffffffffffffffffffffff168152602001600382015481526020016004820160009054906101000a900460ff16600281111561182c577f4e487b7100000000000000000000000000000000000000000000000000000000600052602160045260246000fd5b6002811115611864577f4e487b7100000000000000000000000000000000000000000000000000000000600052602160045260246000fd5b8152505094508773ffffffffffffffffffffffffffffffffffffffff16856040015173ffffffffffffffffffffffffffffffffffffffff16141561190a57848785815181106118dc577f4e487b7100000000000000000000000000000000000000000000000000000000600052603260045260246000fd5b602002602001018190525083806118f290614a98565b945050606484141561190957505050505050611c74565b5b808061191590614a98565b9150506116c2565b505b50808061192b90614a98565b9150506115ff565b506000600190505b60318111611c6f576000816000546119539190614835565b8561195e919061488f565b90506000600281111561199a577f4e487b7100000000000000000000000000000000000000000000000000000000600052602160045260246000fd5b600d600083815260200190815260200160002060070160009054906101000a900460ff1660028111156119f6577f4e487b7100000000000000000000000000000000000000000000000000000000600052602160045260246000fd5b14611c5b5760005b600d600083815260200190815260200160002060080180549050811015611c5957600d60008381526020019081526020016000206009016000600d60008581526020019081526020016000206008018381548110611a85577f4e487b7100000000000000000000000000000000000000000000000000000000600052603260045260246000fd5b906000526020600020015481526020019081526020016000206040518060a001604052908160008201548152602001600182015481526020016002820160009054906101000a900473ffffffffffffffffffffffffffffffffffffffff1673ffffffffffffffffffffffffffffffffffffffff1673ffffffffffffffffffffffffffffffffffffffff168152602001600382015481526020016004820160009054906101000a900460ff166002811115611b68577f4e487b7100000000000000000000000000000000000000000000000000000000600052602160045260246000fd5b6002811115611ba0577f4e487b7100000000000000000000000000000000000000000000000000000000600052602160045260246000fd5b8152505094508773ffffffffffffffffffffffffffffffffffffffff16856040015173ffffffffffffffffffffffffffffffffffffffff161415611c465784878581518110611c18577f4e487b7100000000000000000000000000000000000000000000000000000000600052603260045260246000fd5b60200260200101819052508380611c2e90614a98565b9450506064841415611c4557505050505050611c74565b5b8080611c5190614a98565b9150506119fe565b505b508080611c6790614a98565b91505061193b565b505050505b919050565b611c81613a83565b600d600084815260200190815260200160002060090160008381526020019081526020016000206040518060a001604052908160008201548152602001600182015481526020016002820160009054906101000a900473ffffffffffffffffffffffffffffffffffffffff1673ffffffffffffffffffffffffffffffffffffffff1673ffffffffffffffffffffffffffffffffffffffff168152602001600382015481526020016004820160009054906101000a900460ff166002811115611d72577f4e487b7100000000000000000000000000000000000000000000000000000000600052602160045260246000fd5b6002811115611daa577f4e487b7100000000000000000000000000000000000000000000000000000000600052602160045260246000fd5b81525050905092915050565b600860009054906101000a900473ffffffffffffffffffffffffffffffffffffffff1673ffffffffffffffffffffffffffffffffffffffff16638da5cb5b6040518163ffffffff1660e01b815260040160206040518083038186803b158015611e1e57600080fd5b505afa158015611e32573d6000803e3d6000fd5b505050506040513d601f19601f82011682018060405250810190611e569190613bbc565b73ffffffffffffffffffffffffffffffffffffffff163373ffffffffffffffffffffffffffffffffffffffff1614611ec3576040517f08c379a0000000000000000000000000000000000000000000000000000000008152600401611eba9061439d565b60405180910390fd5b600960009054906101000a900473ffffffffffffffffffffffffffffffffffffffff1673ffffffffffffffffffffffffffffffffffffffff1663a9059cbb600860009054906101000a900473ffffffffffffffffffffffffffffffffffffffff1673ffffffffffffffffffffffffffffffffffffffff16638da5cb5b6040518163ffffffff1660e01b815260040160206040518083038186803b158015611f6957600080fd5b505afa158015611f7d573d6000803e3d6000fd5b505050506040513d601f19601f82011682018060405250810190611fa19190613bbc565b836040518363ffffffff1660e01b8152600401611fbf9291906142bf565b602060405180830381600087803b158015611fd957600080fd5b505af1158015611fed573d6000803e3d6000fd5b505050506040513d601f19601f820116820180604052508101906120119190613c21565b5050565b60015481565b60075481565b6000600d6000838152602001908152602001600020600801805490509050919050565b6000808211612057576005549050612075565b6005546005548361206891906147ae565b6120729190614835565b90505b919050565b6000600f80549050905090565b6060600e60008373ffffffffffffffffffffffffffffffffffffffff1673ffffffffffffffffffffffffffffffffffffffff16815260200190815260200160002080548060200260200160405190810160405280929190818152602001828054801561211257602002820191906000526020600020905b8154815260200190600101908083116120fe575b50505050509050919050565b600080600d600084815260200190815260200160002060050154600d60008581526020019081526020016000206006015491509150915091565b6000612163426114f3565b9050600354600054826121769190614727565b612180919061488f565b42101561236457600460009054906101000a900473ffffffffffffffffffffffffffffffffffffffff1673ffffffffffffffffffffffffffffffffffffffff16630902f1ac6040518163ffffffff1660e01b815260040160606040518083038186803b1580156121ef57600080fd5b505afa158015612203573d6000803e3d6000fd5b505050506040513d601f19601f820116820180604052508101906122279190613c4a565b826dffffffffffffffffffffffffffff169250816dffffffffffffffffffffffffffff1691508063ffffffff169050600d60008581526020019081526020016000206005016000600d60008781526020019081526020016000206006016000600d600089815260200190815260200160002060010160008691905055859190505584919050555050507f0e6a0e14a3e5e37f98ac3964d96ce45521656b05ddf148d5eebd48c38675d6d781600d600084815260200190815260200160002060010154600d600085815260200190815260200160002060020154600d600086815260200190815260200160002060050154600d600087815260200190815260200160002060060154600d600088815260200190815260200160002060040154604051612357969594939291906145c5565b60405180910390a161255f565b600354600054826123759190614727565b61237f919061488f565b421061255e57600460009054906101000a900473ffffffffffffffffffffffffffffffffffffffff1673ffffffffffffffffffffffffffffffffffffffff16630902f1ac6040518163ffffffff1660e01b815260040160606040518083038186803b1580156123ed57600080fd5b505afa158015612401573d6000803e3d6000fd5b505050506040513d601f19601f820116820180604052508101906124259190613c4a565b826dffffffffffffffffffffffffffff169250816dffffffffffffffffffffffffffff1691508063ffffffff169050600d60008581526020019081526020016000206005016000600d60008781526020019081526020016000206006016000600d600089815260200190815260200160002060010160008691905055859190505584919050555050507f0e6a0e14a3e5e37f98ac3964d96ce45521656b05ddf148d5eebd48c38675d6d781600d600084815260200190815260200160002060010154600d600085815260200190815260200160002060020154600d600086815260200190815260200160002060050154600d600087815260200190815260200160002060060154600d600088815260200190815260200160002060040154604051612555969594939291906145c5565b60405180910390a15b5b50565b600d6020528060005260406000206000915090508060000154908060010154908060020154908060030154908060040154908060050154908060060154908060070160009054906101000a900460ff16905088565b6000806125c3856114f3565b90506125ce426114f3565b811015612610576040517f08c379a00000000000000000000000000000000000000000000000000000000081526004016126079061441d565b60405180910390fd5b600061261b85612044565b90506000612629838661317c565b905080600d60008581526020019081526020016000206009016000848152602001908152602001600020600301546126619190614727565b93505050509392505050565b61267681612c9c565b61267f816135bf565b50565b806000620186a0600754836126979190614835565b6126a191906147ae565b9050600b548110156126e8576040517f08c379a00000000000000000000000000000000000000000000000000000000081526004016126df906143fd565b60405180910390fd5b60006126f386613249565b9050600061270182876133f9565b90503373ffffffffffffffffffffffffffffffffffffffff16600d6000848152602001908152602001600020600901600083815260200190815260200160002060020160009054906101000a900473ffffffffffffffffffffffffffffffffffffffff1673ffffffffffffffffffffffffffffffffffffffff16146127bb576040517f08c379a00000000000000000000000000000000000000000000000000000000081526004016127b29061443d565b60405180910390fd5b6127c4426114f3565b821015612806576040517f08c379a00000000000000000000000000000000000000000000000000000000081526004016127fd9061447d565b60405180910390fd5b6000612812838761317c565b9050600061284a84600d600087815260200190815260200160002060090160008681526020019081526020016000206003015461317c565b905080821115612a57578082612860919061488f565b600960009054906101000a900473ffffffffffffffffffffffffffffffffffffffff1673ffffffffffffffffffffffffffffffffffffffff1663dd62ed3e33306040518363ffffffff1660e01b81526004016128bd92919061425f565b60206040518083038186803b1580156128d557600080fd5b505afa1580156128e9573d6000803e3d6000fd5b505050506040513d601f19601f8201168201806040525081019061290d9190613cc2565b101561294e576040517f08c379a0000000000000000000000000000000000000000000000000000000008152600401612945906144dd565b60405180910390fd5b600960009054906101000a900473ffffffffffffffffffffffffffffffffffffffff1673ffffffffffffffffffffffffffffffffffffffff166323b872dd3330848661299a919061488f565b6040518463ffffffff1660e01b81526004016129b893929190614288565b602060405180830381600087803b1580156129d257600080fd5b505af11580156129e6573d6000803e3d6000fd5b505050506040513d601f19601f82011682018060405250810190612a0a9190613c21565b508082612a17919061488f565b600d600086815260200190815260200160002060040154612a389190614727565b600d600086815260200190815260200160002060040181905550612b63565b80821015612b6257600960009054906101000a900473ffffffffffffffffffffffffffffffffffffffff1673ffffffffffffffffffffffffffffffffffffffff1663a9059cbb338484612aaa919061488f565b6040518363ffffffff1660e01b8152600401612ac79291906142bf565b602060405180830381600087803b158015612ae157600080fd5b505af1158015612af5573d6000803e3d6000fd5b505050506040513d601f19601f82011682018060405250810190612b199190613c21565b508181612b26919061488f565b600d600086815260200190815260200160002060040154612b47919061488f565b600d6000868152602001908152602001600020600401819055505b5b86600d6000868152602001908152602001600020600901600085815260200190815260200160002060030181905550612b9a612158565b7f74c5c6f5cd4370cc0ab554a1afdb2b24b051b40c99102354ef424aed5cd6409d84600d60008781526020019081526020016000206009016000868152602001908152602001600020604051612bf1929190614573565b60405180910390a1505050505050505050565b600860009054906101000a900473ffffffffffffffffffffffffffffffffffffffff1681565b600460009054906101000a900473ffffffffffffffffffffffffffffffffffffffff1681565b6000600d6000838152602001908152602001600020600401549050919050565b600960009054906101000a900473ffffffffffffffffffffffffffffffffffffffff1681565b60005481565b4260005482612cab9190614727565b1115612cec576040517f08c379a0000000000000000000000000000000000000000000000000000000008152600401612ce39061437d565b60405180910390fd5b6002600d600083815260200190815260200160002060070160006101000a81548160ff02191690836002811115612d4c577f4e487b7100000000000000000000000000000000000000000000000000000000600052602160045260246000fd5b0217905550612db6600d600083815260200190815260200160002060050154612d8a600d600085815260200190815260200160002060060154613565565b7bffffffffffffffffffffffffffffffffffffffffffffffffffffffff1661359990919063ffffffff16565b7bffffffffffffffffffffffffffffffffffffffffffffffffffffffff16600d6000838152602001908152602001600020600301819055506000620186a0600654600d600085815260200190815260200160002060040154612e189190614835565b612e2291906147ae565b90506000620186a0600254600d600086815260200190815260200160002060040154612e4e9190614835565b612e5891906147ae565b90508082600d600086815260200190815260200160002060040154612e7d919061488f565b612e87919061488f565b600d600085815260200190815260200160002060040181905550600960009054906101000a900473ffffffffffffffffffffffffffffffffffffffff1673ffffffffffffffffffffffffffffffffffffffff1663a9059cbb600a60009054906101000a900473ffffffffffffffffffffffffffffffffffffffff16846040518363ffffffff1660e01b8152600401612f209291906142bf565b602060405180830381600087803b158015612f3a57600080fd5b505af1158015612f4e573d6000803e3d6000fd5b505050506040513d601f19601f82011682018060405250810190612f729190613c21565b50600960009054906101000a900473ffffffffffffffffffffffffffffffffffffffff1673ffffffffffffffffffffffffffffffffffffffff1663a9059cbb600860009054906101000a900473ffffffffffffffffffffffffffffffffffffffff1673ffffffffffffffffffffffffffffffffffffffff16638da5cb5b6040518163ffffffff1660e01b815260040160206040518083038186803b15801561301957600080fd5b505afa15801561302d573d6000803e3d6000fd5b505050506040513d601f19601f820116820180604052508101906130519190613bbc565b836040518363ffffffff1660e01b815260040161306f9291906142bf565b602060405180830381600087803b15801561308957600080fd5b505af115801561309d573d6000803e3d6000fd5b505050506040513d601f19601f820116820180604052508101906130c19190613c21565b507f0e6a0e14a3e5e37f98ac3964d96ce45521656b05ddf148d5eebd48c38675d6d783600d600086815260200190815260200160002060010154600d600087815260200190815260200160002060020154600d600088815260200190815260200160002060050154600d600089815260200190815260200160002060060154600d60008a815260200190815260200160002060040154604051613169969594939291906145c5565b60405180910390a1505050565b60035481565b6000804260005461318c426114f3565b6131969190614727565b6131a0919061488f565b90506000805482600c546131b49190614835565b6131be91906147ae565b905060006131cb86613a47565b905080620186a0600754876131e09190614835565b6131ea91906147ae565b6131f49190614835565b93506000620186a06007548761320a9190614835565b61321491906147ae565b9050600c5483826132259190614835565b61322f91906147ae565b9050808561323d9190614727565b94505050505092915050565b600080613255836114f3565b905060006002811115613291577f4e487b7100000000000000000000000000000000000000000000000000000000600052602160045260246000fd5b600d600083815260200190815260200160002060070160009054906101000a900460ff1660028111156132ed577f4e487b7100000000000000000000000000000000000000000000000000000000600052602160045260246000fd5b146132fb57809150506133f4565b613304426114f3565b811015613346576040517f08c379a000000000000000000000000000000000000000000000000000000000815260040161333d906144fd565b60405180910390fd5b80600d6000838152602001908152602001600020600001819055506001600d600083815260200190815260200160002060070160006101000a81548160ff021916908360028111156133c1577f4e487b7100000000000000000000000000000000000000000000000000000000600052602160045260246000fd5b0217905550600f819080600181540180825580915050600190039060005260206000200160009091909190915055809150505b919050565b60008061340583612044565b905060006002811115613441577f4e487b7100000000000000000000000000000000000000000000000000000000600052602160045260246000fd5b600d6000868152602001908152602001600020600901600083815260200190815260200160002060040160009054906101000a900460ff1660028111156134b1577f4e487b7100000000000000000000000000000000000000000000000000000000600052602160045260246000fd5b146134bf578091505061355f565b83600d600086815260200190815260200160002060090160008381526020019081526020016000206000018190555080600d6000868152602001908152602001600020600901600083815260200190815260200160002060010181905550600d6000858152602001908152602001600020600801819080600181540180825580915050600190039060005260206000200160009091909190915055809150505b92915050565b60006e010000000000000000000000000000826dffffffffffffffffffffffffffff1661359291906147df565b9050919050565b6000816dffffffffffffffffffffffffffff16836135b7919061477d565b905092915050565b6002808111156135f8577f4e487b7100000000000000000000000000000000000000000000000000000000600052602160045260246000fd5b600d600083815260200190815260200160002060070160009054906101000a900460ff166002811115613654577f4e487b7100000000000000000000000000000000000000000000000000000000600052602160045260246000fd5b14613694576040517f08c379a000000000000000000000000000000000000000000000000000000000815260040161368b9061445d565b60405180910390fd5b60006136b5600d600084815260200190815260200160002060030154612044565b90506002808111156136f0577f4e487b7100000000000000000000000000000000000000000000000000000000600052602160045260246000fd5b600d6000848152602001908152602001600020600901600083815260200190815260200160002060040160009054906101000a900460ff166002811115613760577f4e487b7100000000000000000000000000000000000000000000000000000000600052602160045260246000fd5b14156137a1576040517f08c379a0000000000000000000000000000000000000000000000000000000008152600401613798906143dd565b60405180910390fd5b600073ffffffffffffffffffffffffffffffffffffffff16600d6000848152602001908152602001600020600901600083815260200190815260200160002060020160009054906101000a900473ffffffffffffffffffffffffffffffffffffffff1673ffffffffffffffffffffffffffffffffffffffff16141561385b576040517f08c379a0000000000000000000000000000000000000000000000000000000008152600401613852906144bd565b60405180910390fd5b600960009054906101000a900473ffffffffffffffffffffffffffffffffffffffff1673ffffffffffffffffffffffffffffffffffffffff1663a9059cbb600d6000858152602001908152602001600020600901600084815260200190815260200160002060020160009054906101000a900473ffffffffffffffffffffffffffffffffffffffff16600d6000868152602001908152602001600020600401546040518363ffffffff1660e01b81526004016139189291906142bf565b602060405180830381600087803b15801561393257600080fd5b505af1158015613946573d6000803e3d6000fd5b505050506040513d601f19601f8201168201806040525081019061396a9190613c21565b506002600d6000848152602001908152602001600020600901600083815260200190815260200160002060040160006101000a81548160ff021916908360028111156139df577f4e487b7100000000000000000000000000000000000000000000000000000000600052602160045260246000fd5b02179055507f74c5c6f5cd4370cc0ab554a1afdb2b24b051b40c99102354ef424aed5cd6409d82600d60008581526020019081526020016000206009016000848152602001908152602001600020604051613a3b929190614573565b60405180910390a15050565b6000613a52426114f3565b821415613a625760009050613a7e565b6000544283613a71919061488f565b613a7b91906147ae565b90505b919050565b6040518060a001604052806000815260200160008152602001600073ffffffffffffffffffffffffffffffffffffffff1681526020016000815260200160006002811115613afa577f4e487b7100000000000000000000000000000000000000000000000000000000600052602160045260246000fd5b81525090565b600081359050613b0f81614e38565b92915050565b600081519050613b2481614e38565b92915050565b600081519050613b3981614e4f565b92915050565b600081519050613b4e81614e66565b92915050565b600081359050613b6381614e7d565b92915050565b600081519050613b7881614e7d565b92915050565b600081519050613b8d81614e94565b92915050565b600060208284031215613ba557600080fd5b6000613bb384828501613b00565b91505092915050565b600060208284031215613bce57600080fd5b6000613bdc84828501613b15565b91505092915050565b60008060408385031215613bf857600080fd5b6000613c0685828601613b00565b9250506020613c1785828601613b54565b9150509250929050565b600060208284031215613c3357600080fd5b6000613c4184828501613b2a565b91505092915050565b600080600060608486031215613c5f57600080fd5b6000613c6d86828701613b3f565b9350506020613c7e86828701613b3f565b9250506040613c8f86828701613b7e565b9150509250925092565b600060208284031215613cab57600080fd5b6000613cb984828501613b54565b91505092915050565b600060208284031215613cd457600080fd5b6000613ce284828501613b69565b91505092915050565b60008060408385031215613cfe57600080fd5b6000613d0c85828601613b54565b9250506020613d1d85828601613b54565b9150509250929050565b600080600060608486031215613d3c57600080fd5b6000613d4a86828701613b54565b9350506020613d5b86828701613b54565b9250506040613d6c86828701613b54565b9150509250925092565b6000613d8283836140b5565b60a08301905092915050565b6000613d9a8383614226565b60208301905092915050565b613daf816148fa565b82525050565b613dbe816148fa565b82525050565b6000613dcf826146c4565b613dd981856146f4565b9350613de4836146a4565b8060005b83811015613e15578151613dfc8882613d76565b9750613e07836146da565b925050600181019050613de8565b5085935050505092915050565b6000613e2d826146cf565b613e378185614705565b9350613e42836146b4565b8060005b83811015613e73578151613e5a8882613d8e565b9750613e65836146e7565b925050600181019050613e46565b5085935050505092915050565b613e89816149ba565b82525050565b613e98816149de565b82525050565b613ea781614a02565b82525050565b613eb681614a26565b82525050565b613ec581614a38565b82525050565b6000613ed8601a83614716565b9150613ee382614bac565b602082019050919050565b6000613efb601583614716565b9150613f0682614bd5565b602082019050919050565b6000613f1e601383614716565b9150613f2982614bfe565b602082019050919050565b6000613f41601383614716565b9150613f4c82614c27565b602082019050919050565b6000613f64601083614716565b9150613f6f82614c50565b602082019050919050565b6000613f87601b83614716565b9150613f9282614c79565b602082019050919050565b6000613faa601183614716565b9150613fb582614ca2565b602082019050919050565b6000613fcd601083614716565b9150613fd882614ccb565b602082019050919050565b6000613ff0602983614716565b9150613ffb82614cf4565b604082019050919050565b6000614013601f83614716565b915061401e82614d43565b602082019050919050565b6000614036601583614716565b915061404182614d6c565b602082019050919050565b6000614059601c83614716565b915061406482614d95565b602082019050919050565b600061407c601983614716565b915061408782614dbe565b602082019050919050565b600061409f601d83614716565b91506140aa82614de7565b602082019050919050565b60a0820160008201516140cb6000850182614226565b5060208201516140de6020850182614226565b5060408201516140f16040850182613da6565b5060608201516141046060850182614226565b5060808201516141176080850182613ebc565b50505050565b60a0820160008201516141336000850182614226565b5060208201516141466020850182614226565b5060408201516141596040850182613da6565b50606082015161416c6060850182614226565b50608082015161417f6080850182613ebc565b50505050565b60a08201600080830154905061419a81614a7e565b6141a76000860182614226565b50600183015490506141b881614a7e565b6141c56020860182614226565b50600283015490506141d681614a4a565b6141e36040860182613da6565b50600383015490506141f481614a7e565b6142016060860182614226565b506004830154905061421281614a64565b61421f6080860182613ebc565b5050505050565b61422f816149a0565b82525050565b61423e816149a0565b82525050565b60006020820190506142596000830184613db5565b92915050565b60006040820190506142746000830185613db5565b6142816020830184613db5565b9392505050565b600060608201905061429d6000830186613db5565b6142aa6020830185613db5565b6142b76040830184614235565b949350505050565b60006040820190506142d46000830185613db5565b6142e16020830184614235565b9392505050565b600060208201905081810360008301526143028184613dc4565b905092915050565b600060208201905081810360008301526143248184613e22565b905092915050565b60006020820190506143416000830184613e80565b92915050565b600060208201905061435c6000830184613e8f565b92915050565b60006020820190506143776000830184613e9e565b92915050565b6000602082019050818103600083015261439681613ecb565b9050919050565b600060208201905081810360008301526143b681613eee565b9050919050565b600060208201905081810360008301526143d681613f11565b9050919050565b600060208201905081810360008301526143f681613f34565b9050919050565b6000602082019050818103600083015261441681613f57565b9050919050565b6000602082019050818103600083015261443681613f7a565b9050919050565b6000602082019050818103600083015261445681613f9d565b9050919050565b6000602082019050818103600083015261447681613fc0565b9050919050565b6000602082019050818103600083015261449681613fe3565b9050919050565b600060208201905081810360008301526144b681614006565b9050919050565b600060208201905081810360008301526144d681614029565b9050919050565b600060208201905081810360008301526144f68161404c565b9050919050565b600060208201905081810360008301526145168161406f565b9050919050565b6000602082019050818103600083015261453681614092565b9050919050565b600060a082019050614552600083018461411d565b92915050565b600060208201905061456d6000830184614235565b92915050565b600060c0820190506145886000830185614235565b6145956020830184614185565b9392505050565b60006040820190506145b16000830185614235565b6145be6020830184614235565b9392505050565b600060c0820190506145da6000830189614235565b6145e76020830188614235565b6145f46040830187614235565b6146016060830186614235565b61460e6080830185614235565b61461b60a0830184614235565b979650505050505050565b60006101008201905061463c600083018b614235565b614649602083018a614235565b6146566040830189614235565b6146636060830188614235565b6146706080830187614235565b61467d60a0830186614235565b61468a60c0830185614235565b61469760e0830184613ead565b9998505050505050505050565b6000819050602082019050919050565b6000819050602082019050919050565b600081519050919050565b600081519050919050565b6000602082019050919050565b6000602082019050919050565b600082825260208201905092915050565b600082825260208201905092915050565b600082825260208201905092915050565b6000614732826149a0565b915061473d836149a0565b9250827fffffffffffffffffffffffffffffffffffffffffffffffffffffffffffffffff0382111561477257614771614b12565b5b828201905092915050565b600061478882614978565b915061479383614978565b9250826147a3576147a2614b41565b5b828204905092915050565b60006147b9826149a0565b91506147c4836149a0565b9250826147d4576147d3614b41565b5b828204905092915050565b60006147ea82614978565b91506147f583614978565b9250817bffffffffffffffffffffffffffffffffffffffffffffffffffffffff048311821515161561482a57614829614b12565b5b828202905092915050565b6000614840826149a0565b915061484b836149a0565b9250817fffffffffffffffffffffffffffffffffffffffffffffffffffffffffffffffff048311821515161561488457614883614b12565b5b828202905092915050565b600061489a826149a0565b91506148a5836149a0565b9250828210156148b8576148b7614b12565b5b828203905092915050565b600073ffffffffffffffffffffffffffffffffffffffff82169050919050565b600060ff82169050919050565b6000819050919050565b600061490582614958565b9050919050565b60008115159050919050565b600081905061492682614e10565b919050565b600081905061493982614e24565b919050565b60006dffffffffffffffffffffffffffff82169050919050565b600073ffffffffffffffffffffffffffffffffffffffff82169050919050565b60007bffffffffffffffffffffffffffffffffffffffffffffffffffffffff82169050919050565b6000819050919050565b600063ffffffff82169050919050565b60006149c5826149cc565b9050919050565b60006149d782614958565b9050919050565b60006149e9826149f0565b9050919050565b60006149fb82614958565b9050919050565b6000614a0d82614a14565b9050919050565b6000614a1f82614958565b9050919050565b6000614a3182614918565b9050919050565b6000614a438261492b565b9050919050565b6000614a5d614a5883614b9f565b6148c3565b9050919050565b6000614a77614a7283614b9f565b6148e3565b9050919050565b6000614a91614a8c83614b9f565b6148f0565b9050919050565b6000614aa3826149a0565b91507fffffffffffffffffffffffffffffffffffffffffffffffffffffffffffffffff821415614ad657614ad5614b12565b5b600182019050919050565b6000614aec826149a0565b9150614af7836149a0565b925082614b0757614b06614b41565b5b828206905092915050565b7f4e487b7100000000000000000000000000000000000000000000000000000000600052601160045260246000fd5b7f4e487b7100000000000000000000000000000000000000000000000000000000600052601260045260246000fd5b7f4e487b7100000000000000000000000000000000000000000000000000000000600052602160045260246000fd5b60008160001c9050919050565b7f4652414d4520454e442054494d45204e4f542052454143484544000000000000600082015250565b7f4e4f542054484520464143544f5259204f574e45520000000000000000000000600082015250565b7f494e56414c4944204652414d4520505249434500000000000000000000000000600082015250565b7f4c4f5420414c524541445920534554544c454400000000000000000000000000600082015250565b7f505249434520495320544f4f204c4f5700000000000000000000000000000000600082015250565b7f54484953204c4f5420495320494e20412050415354204652414d450000000000600082015250565b7f4d555354204245204c4f54204f574e4552000000000000000000000000000000600082015250565b7f4652414d45204e4f5420434c4f53454400000000000000000000000000000000600082015250565b7f54484953204c4f5420495320494e20412054494d45204652414d452046524f4d60008201527f2054484520504153540000000000000000000000000000000000000000000000602082015250565b7f4144445245535320414c5245414459204f574e53205448452050415243454c00600082015250565b7f4e4f424f4459204f574e45442054484953204c4f540000000000000000000000600082015250565b7f415050524f56454420414d4f554e5420495320544f4f20534d414c4c00000000600082015250565b7f43414e5420435245415445204652414d4520494e205041535400000000000000600082015250565b7f43414e2754204255592041204c4f542046524f4d205448452050415354000000600082015250565b60038110614e2157614e20614b70565b5b50565b60038110614e3557614e34614b70565b5b50565b614e41816148fa565b8114614e4c57600080fd5b50565b614e588161490c565b8114614e6357600080fd5b50565b614e6f8161493e565b8114614e7a57600080fd5b50565b614e86816149a0565b8114614e9157600080fd5b50565b614e9d816149aa565b8114614ea857600080fd5b5056fea2646970667358221220d007782cafb2a232374ce16463c23b6dc046271398c1dde0a0c743a02604a4f164736f6c63430008040033",
  "linkReferences": {},
  "deployedLinkReferences": {}
}