{
  "_format": "hh-sol-artifact-1",
  "contractName": "Market",
  "sourceName": "contracts/Market.sol",
  "abi": [
    {
      "inputs": [
        {
          "internalType": "contract MarketFactory",
          "name": "_factory",
          "type": "address"
        },
        {
          "internalType": "contract IERC20",
          "name": "_token",
          "type": "address"
        },
        {
          "internalType": "contract IUniswapV2Pair",
          "name": "_uniswapPair",
          "type": "address"
        },
        {
          "internalType": "uint64",
          "name": "_period",
          "type": "uint64"
        },
        {
          "internalType": "uint64",
          "name": "_initTimestamp",
          "type": "uint64"
        },
        {
          "internalType": "uint256",
          "name": "_taxMarket",
          "type": "uint256"
        },
        {
          "internalType": "uint256",
          "name": "_feeMarket",
          "type": "uint256"
        },
        {
          "internalType": "uint256",
          "name": "_dPrice",
          "type": "uint256"
        },
        {
          "internalType": "uint64",
          "name": "_tReporting",
          "type": "uint64"
        },
        {
          "internalType": "uint256",
          "name": "_minTax",
          "type": "uint256"
        }
      ],
      "stateMutability": "nonpayable",
      "type": "constructor"
    },
    {
      "anonymous": false,
      "inputs": [
        {
          "indexed": false,
          "internalType": "uint64",
          "name": "frameKey",
          "type": "uint64"
        }
      ],
      "name": "FrameUpdate",
      "type": "event"
    },
    {
      "anonymous": false,
      "inputs": [
        {
          "indexed": false,
          "internalType": "uint64",
          "name": "frameKey",
          "type": "uint64"
        },
        {
          "indexed": false,
          "internalType": "uint256",
          "name": "lotKey",
          "type": "uint256"
        }
      ],
      "name": "LotUpdate",
      "type": "event"
    },
    {
      "inputs": [],
      "name": "accountingToken",
      "outputs": [
        {
          "internalType": "contract IERC20",
          "name": "",
          "type": "address"
        }
      ],
      "stateMutability": "view",
      "type": "function"
    },
    {
      "inputs": [
        {
          "internalType": "uint64",
          "name": "timestamp",
          "type": "uint64"
        },
        {
          "internalType": "uint256",
          "name": "pairPrice",
          "type": "uint256"
        },
        {
          "internalType": "uint256",
          "name": "acqPrice",
          "type": "uint256"
        }
      ],
      "name": "buyLot",
      "outputs": [],
      "stateMutability": "nonpayable",
      "type": "function"
    },
    {
      "inputs": [
        {
          "internalType": "uint64",
          "name": "timestamp",
          "type": "uint64"
        },
        {
          "internalType": "uint256",
          "name": "pairPrice",
          "type": "uint256"
        },
        {
          "internalType": "uint256",
          "name": "acqPrice",
          "type": "uint256"
        }
      ],
      "name": "clcAmountToApprove",
      "outputs": [
        {
          "internalType": "uint256",
          "name": "cmpltAmnt",
          "type": "uint256"
        }
      ],
      "stateMutability": "view",
      "type": "function"
    },
    {
      "inputs": [
        {
          "internalType": "uint64",
          "name": "timestamp",
          "type": "uint64"
        }
      ],
      "name": "clcFrameTimestamp",
      "outputs": [
        {
          "internalType": "uint64",
          "name": "",
          "type": "uint64"
        }
      ],
      "stateMutability": "view",
      "type": "function"
    },
    {
      "inputs": [
        {
          "internalType": "uint64",
          "name": "frameKey",
          "type": "uint64"
        }
      ],
      "name": "clcFramesLeft",
      "outputs": [
        {
          "internalType": "uint64",
          "name": "",
          "type": "uint64"
        }
      ],
      "stateMutability": "view",
      "type": "function"
    },
    {
      "inputs": [
        {
          "internalType": "uint256",
          "name": "value",
          "type": "uint256"
        }
      ],
      "name": "clcLotInterval",
      "outputs": [
        {
          "internalType": "uint256",
          "name": "",
          "type": "uint256"
        }
      ],
      "stateMutability": "view",
      "type": "function"
    },
    {
      "inputs": [
        {
          "internalType": "uint64",
          "name": "frameKey",
          "type": "uint64"
        },
        {
          "internalType": "uint256",
          "name": "acquisitionPrice",
          "type": "uint256"
        }
      ],
      "name": "clcTax",
      "outputs": [
        {
          "internalType": "uint256",
          "name": "tax",
          "type": "uint256"
        }
      ],
      "stateMutability": "view",
      "type": "function"
    },
    {
      "inputs": [
        {
          "internalType": "uint64",
          "name": "frameKey",
          "type": "uint64"
        }
      ],
      "name": "closeFrame",
      "outputs": [],
      "stateMutability": "nonpayable",
      "type": "function"
    },
    {
      "inputs": [],
      "name": "dPrice",
      "outputs": [
        {
          "internalType": "uint256",
          "name": "",
          "type": "uint256"
        }
      ],
      "stateMutability": "view",
      "type": "function"
    },
    {
      "inputs": [
        {
          "internalType": "uint256",
          "name": "amount",
          "type": "uint256"
        }
      ],
      "name": "emptyFunds",
      "outputs": [],
      "stateMutability": "nonpayable",
      "type": "function"
    },
    {
      "inputs": [],
      "name": "factory",
      "outputs": [
        {
          "internalType": "contract MarketFactory",
          "name": "",
          "type": "address"
        }
      ],
      "stateMutability": "view",
      "type": "function"
    },
    {
      "inputs": [],
      "name": "feeMarket",
      "outputs": [
        {
          "internalType": "uint256",
          "name": "",
          "type": "uint256"
        }
      ],
      "stateMutability": "view",
      "type": "function"
    },
    {
      "inputs": [],
      "name": "feeProtocol",
      "outputs": [
        {
          "internalType": "uint64",
          "name": "",
          "type": "uint64"
        }
      ],
      "stateMutability": "view",
      "type": "function"
    },
    {
      "inputs": [
        {
          "internalType": "uint256",
          "name": "",
          "type": "uint256"
        }
      ],
      "name": "frames",
      "outputs": [
        {
          "internalType": "uint64",
          "name": "frameKey",
          "type": "uint64"
        },
        {
          "internalType": "uint64",
          "name": "oracleTimestampStart",
          "type": "uint64"
        },
        {
          "internalType": "uint64",
          "name": "oracleTimestampEnd",
          "type": "uint64"
        },
        {
          "internalType": "uint64",
          "name": "lastBlockNum",
          "type": "uint64"
        },
        {
          "internalType": "uint256",
          "name": "priceAverage",
          "type": "uint256"
        },
        {
          "internalType": "uint256",
          "name": "rewardFund",
          "type": "uint256"
        },
        {
          "internalType": "uint256",
          "name": "oraclePrice0CumulativeStart",
          "type": "uint256"
        },
        {
          "internalType": "uint256",
          "name": "oraclePrice0CumulativeEnd",
          "type": "uint256"
        },
        {
          "internalType": "enum Market.SFrame",
          "name": "state",
          "type": "uint8"
        }
      ],
      "stateMutability": "view",
      "type": "function"
    },
    {
      "inputs": [
        {
          "internalType": "uint256",
          "name": "",
          "type": "uint256"
        }
      ],
      "name": "framesKeys",
      "outputs": [
        {
          "internalType": "uint256",
          "name": "",
          "type": "uint256"
        }
      ],
      "stateMutability": "view",
      "type": "function"
    },
    {
      "inputs": [
        {
          "internalType": "uint64",
          "name": "frameKey",
          "type": "uint64"
        },
        {
          "internalType": "uint256",
          "name": "lotKey",
          "type": "uint256"
        }
      ],
      "name": "getLot",
      "outputs": [
        {
          "components": [
            {
              "internalType": "uint256",
              "name": "lotKey",
              "type": "uint256"
            },
            {
              "internalType": "address",
              "name": "lotOwner",
              "type": "address"
            },
            {
              "internalType": "uint256",
              "name": "acquisitionPrice",
              "type": "uint256"
            },
            {
              "internalType": "enum Market.SLot",
              "name": "state",
              "type": "uint8"
            }
          ],
          "internalType": "struct Market.Lot",
          "name": "",
          "type": "tuple"
        }
      ],
      "stateMutability": "view",
      "type": "function"
    },
    {
      "inputs": [
        {
          "internalType": "uint64",
          "name": "frameKey",
          "type": "uint64"
        },
        {
          "internalType": "uint256",
          "name": "index",
          "type": "uint256"
        }
      ],
      "name": "getLotKey",
      "outputs": [
        {
          "internalType": "uint256",
          "name": "",
          "type": "uint256"
        }
      ],
      "stateMutability": "view",
      "type": "function"
    },
    {
      "inputs": [
        {
          "internalType": "uint64",
          "name": "frameKey",
          "type": "uint64"
        }
      ],
      "name": "getLotsCount",
      "outputs": [
        {
          "internalType": "uint256",
          "name": "",
          "type": "uint256"
        }
      ],
      "stateMutability": "view",
      "type": "function"
    },
    {
      "inputs": [],
      "name": "getNumberOfFrameKeys",
      "outputs": [
        {
          "internalType": "uint256",
          "name": "",
          "type": "uint256"
        }
      ],
      "stateMutability": "view",
      "type": "function"
    },
    {
      "inputs": [
        {
          "internalType": "uint64",
          "name": "timestamp",
          "type": "uint64"
        }
      ],
      "name": "getOrCreateFrame",
      "outputs": [
        {
          "internalType": "uint64",
          "name": "",
          "type": "uint64"
        }
      ],
      "stateMutability": "nonpayable",
      "type": "function"
    },
    {
      "inputs": [
        {
          "internalType": "uint64",
          "name": "frameKey",
          "type": "uint64"
        }
      ],
      "name": "getRewardAmount",
      "outputs": [
        {
          "internalType": "uint256",
          "name": "",
          "type": "uint256"
        }
      ],
      "stateMutability": "view",
      "type": "function"
    },
    {
      "inputs": [],
      "name": "initTimestamp",
      "outputs": [
        {
          "internalType": "uint64",
          "name": "",
          "type": "uint64"
        }
      ],
      "stateMutability": "view",
      "type": "function"
    },
    {
      "inputs": [],
      "name": "minTax",
      "outputs": [
        {
          "internalType": "uint256",
          "name": "",
          "type": "uint256"
        }
      ],
      "stateMutability": "view",
      "type": "function"
    },
    {
      "inputs": [],
      "name": "ownerMarket",
      "outputs": [
        {
          "internalType": "address",
          "name": "",
          "type": "address"
        }
      ],
      "stateMutability": "view",
      "type": "function"
    },
    {
      "inputs": [],
      "name": "period",
      "outputs": [
        {
          "internalType": "uint64",
          "name": "",
          "type": "uint64"
        }
      ],
      "stateMutability": "view",
      "type": "function"
    },
    {
      "inputs": [
        {
          "internalType": "uint64",
          "name": "frameKey",
          "type": "uint64"
        }
      ],
      "name": "settleLot",
      "outputs": [],
      "stateMutability": "nonpayable",
      "type": "function"
    },
    {
      "inputs": [],
      "name": "tReporting",
      "outputs": [
        {
          "internalType": "uint64",
          "name": "",
          "type": "uint64"
        }
      ],
      "stateMutability": "view",
      "type": "function"
    },
    {
      "inputs": [],
      "name": "taxMarket",
      "outputs": [
        {
          "internalType": "uint256",
          "name": "",
          "type": "uint256"
        }
      ],
      "stateMutability": "view",
      "type": "function"
    },
    {
      "inputs": [],
      "name": "uniswapPair",
      "outputs": [
        {
          "internalType": "contract IUniswapV2Pair",
          "name": "",
          "type": "address"
        }
      ],
      "stateMutability": "view",
      "type": "function"
    },
    {
      "inputs": [
        {
          "internalType": "uint256",
          "name": "PriceCumulative",
          "type": "uint256"
        }
      ],
      "name": "updateFramePrices",
      "outputs": [],
      "stateMutability": "nonpayable",
      "type": "function"
    },
    {
      "inputs": [
        {
          "internalType": "uint64",
          "name": "timestamp",
          "type": "uint64"
        },
        {
          "internalType": "uint256",
          "name": "pairPrice",
          "type": "uint256"
        },
        {
          "internalType": "uint256",
          "name": "acqPrice",
          "type": "uint256"
        }
      ],
      "name": "updateLotPrice",
      "outputs": [],
      "stateMutability": "nonpayable",
      "type": "function"
    }
  ],
  "bytecode": "0x60806040526064600060106101000a81548167ffffffffffffffff021916908367ffffffffffffffff16021790555069d3c21bcecceda10000006009553480156200004957600080fd5b50604051620043903803806200439083398181016040528101906200006f91906200028c565b88600660006101000a81548173ffffffffffffffffffffffffffffffffffffffff021916908373ffffffffffffffffffffffffffffffffffffffff16021790555033600760006101000a81548173ffffffffffffffffffffffffffffffffffffffff021916908373ffffffffffffffffffffffffffffffffffffffff160217905550866000806101000a81548167ffffffffffffffff021916908367ffffffffffffffff16021790555085600060086101000a81548167ffffffffffffffff021916908367ffffffffffffffff160217905550846004819055508360038190555087600160006101000a81548173ffffffffffffffffffffffffffffffffffffffff021916908373ffffffffffffffffffffffffffffffffffffffff1602179055508260028190555089600560006101000a81548173ffffffffffffffffffffffffffffffffffffffff021916908373ffffffffffffffffffffffffffffffffffffffff16021790555081600060186101000a81548167ffffffffffffffff021916908367ffffffffffffffff16021790555080600881905550505050505050505050506200048c565b6000815190506200022a816200040a565b92915050565b600081519050620002418162000424565b92915050565b60008151905062000258816200043e565b92915050565b6000815190506200026f8162000458565b92915050565b600081519050620002868162000472565b92915050565b6000806000806000806000806000806101408b8d031215620002ad57600080fd5b6000620002bd8d828e0162000247565b9a50506020620002d08d828e0162000219565b9950506040620002e38d828e0162000230565b9850506060620002f68d828e0162000275565b9750506080620003098d828e0162000275565b96505060a06200031c8d828e016200025e565b95505060c06200032f8d828e016200025e565b94505060e0620003428d828e016200025e565b935050610100620003568d828e0162000275565b9250506101206200036a8d828e016200025e565b9150509295989b9194979a5092959850565b60006200038982620003cc565b9050919050565b60006200039d826200037c565b9050919050565b6000620003b1826200037c565b9050919050565b6000620003c5826200037c565b9050919050565b600073ffffffffffffffffffffffffffffffffffffffff82169050919050565b6000819050919050565b600067ffffffffffffffff82169050919050565b620004158162000390565b81146200042157600080fd5b50565b6200042f81620003a4565b81146200043b57600080fd5b50565b6200044981620003b8565b81146200045557600080fd5b50565b6200046381620003ec565b81146200046f57600080fd5b50565b6200047d81620003f6565b81146200048957600080fd5b50565b613ef4806200049c6000396000f3fe608060405234801561001057600080fd5b50600436106101e55760003560e01c80637e9966391161010f578063aea0b20f116100a2578063da68cf8b11610071578063da68cf8b146105d6578063ef78d4fd146105f4578063f3f11b9d14610612578063ff5c86b014610642576101e5565b8063aea0b20f1461054e578063b1eb84051461056a578063c45a01551461059a578063c816841b146105b8576101e5565b80638949f08f116100de5780638949f08f1461049857806389da88a3146104c8578063a0039886146104e6578063a10340bc14610516576101e5565b80637e996639146103ea5780637f85de67146104085780638608fe3514610438578063888bdbcd14610468576101e5565b8063410f0710116101875780635455a450116101565780635455a4501461035057806361e92d5b146103805780636f7cb60b146103b05780637358c57a146103cc576101e5565b8063410f0710146102d857806345084775146102f6578063499a0fc414610314578063527eb4bc14610332576101e5565b80631dec988e116101c35780631dec988e146102525780632a0efd441461026e5780632f3dc5d41461028a5780633d09a82a146102ba576101e5565b8063050e8840146101ea57806307576b9f1461021a5780630b50864114610236575b600080fd5b61020460048036038101906101ff919061314b565b610660565b6040516102119190613770565b60405180910390f35b610234600480360381019061022f9190613202565b610684565b005b610250600480360381019061024b919061319d565b610e4d565b005b61026c60048036038101906102679190613202565b611232565b005b6102886004803603810190610283919061314b565b611781565b005b6102a4600480360381019061029f919061319d565b6119f6565b6040516102b1919061378b565b60405180910390f35b6102c2611a9a565b6040516102cf9190613770565b60405180910390f35b6102e0611aa0565b6040516102ed9190613770565b60405180910390f35b6102fe611aa6565b60405161030b91906134e0565b60405180910390f35b61031c611acc565b6040516103299190613770565b60405180910390f35b61033a611ad2565b604051610347919061378b565b60405180910390f35b61036a600480360381019061036591906131c6565b611aec565b6040516103779190613770565b60405180910390f35b61039a6004803603810190610395919061319d565b611bfd565b6040516103a79190613770565b60405180910390f35b6103ca60048036038101906103c5919061314b565b611c2a565b005b6103d4611e89565b6040516103e1919061378b565b60405180910390f35b6103f2611ea3565b6040516103ff9190613770565b60405180910390f35b610422600480360381019061041d919061319d565b611ea9565b60405161042f919061378b565b60405180910390f35b610452600480360381019061044d91906131c6565b611ee9565b60405161045f9190613770565b60405180910390f35b610482600480360381019061047d919061314b565b611f56565b60405161048f9190613770565b60405180910390f35b6104b260048036038101906104ad9190613202565b611f99565b6040516104bf9190613770565b60405180910390f35b6104d061200e565b6040516104dd9190613770565b60405180910390f35b61050060048036038101906104fb919061319d565b61201b565b60405161050d919061378b565b60405180910390f35b610530600480360381019061052b919061314b565b612260565b604051610545999897969594939291906137cf565b60405180910390f35b6105686004803603810190610563919061319d565b61230b565b005b610584600480360381019061057f919061319d565b612bd3565b6040516105919190613770565b60405180910390f35b6105a2612bfd565b6040516105af91906135ba565b60405180910390f35b6105c0612c23565b6040516105cd919061359f565b60405180910390f35b6105de612c49565b6040516105eb9190613584565b60405180910390f35b6105fc612c6f565b604051610609919061378b565b60405180910390f35b61062c600480360381019061062791906131c6565b612c87565b6040516106399190613755565b60405180910390f35b61064a612dc4565b604051610657919061378b565b60405180910390f35b600b818154811061067057600080fd5b906000526020600020016000915090505481565b806000620186a0600454836106999190613994565b6106a39190613932565b90506008548110156106ea576040517f08c379a00000000000000000000000000000000000000000000000000000000081526004016106e190613695565b60405180910390fd5b60006106f58661201b565b905060006107038287612dde565b9050600a60008367ffffffffffffffff168152602001908152602001600020600701600082815260200190815260200160002060010160009054906101000a900473ffffffffffffffffffffffffffffffffffffffff1673ffffffffffffffffffffffffffffffffffffffff163373ffffffffffffffffffffffffffffffffffffffff1614156107c8576040517f08c379a00000000000000000000000000000000000000000000000000000000081526004016107bf90613715565b60405180910390fd5b60006107d48387611aec565b905080600a60008567ffffffffffffffff168152602001908152602001600020600701600084815260200190815260200160002060020154610816919061386d565b600660009054906101000a900473ffffffffffffffffffffffffffffffffffffffff1673ffffffffffffffffffffffffffffffffffffffff1663dd62ed3e33306040518363ffffffff1660e01b81526004016108739291906134fb565b60206040518083038186803b15801561088b57600080fd5b505afa15801561089f573d6000803e3d6000fd5b505050506040513d601f19601f820116820180604052508101906108c39190613174565b1015610904576040517f08c379a00000000000000000000000000000000000000000000000000000000081526004016108fb906136b5565b60405180910390fd5b600660009054906101000a900473ffffffffffffffffffffffffffffffffffffffff1673ffffffffffffffffffffffffffffffffffffffff166323b872dd333084600a60008967ffffffffffffffff168152602001908152602001600020600701600088815260200190815260200160002060020154610984919061386d565b6040518463ffffffff1660e01b81526004016109a293929190613524565b602060405180830381600087803b1580156109bc57600080fd5b505af11580156109d0573d6000803e3d6000fd5b505050506040513d601f19601f820116820180604052508101906109f49190613122565b5080600a60008567ffffffffffffffff16815260200190815260200160002060020154610a21919061386d565b600a60008567ffffffffffffffff1681526020019081526020016000206002018190555060016002811115610a7f577f4e487b7100000000000000000000000000000000000000000000000000000000600052602160045260246000fd5b600a60008567ffffffffffffffff168152602001908152602001600020600701600084815260200190815260200160002060030160009054906101000a900460ff166002811115610af9577f4e487b7100000000000000000000000000000000000000000000000000000000600052602160045260246000fd5b1415610cda576000610b3f84600a60008767ffffffffffffffff168152602001908152602001600020600701600086815260200190815260200160002060020154611aec565b9050600660009054906101000a900473ffffffffffffffffffffffffffffffffffffffff1673ffffffffffffffffffffffffffffffffffffffff1663a9059cbb600a60008767ffffffffffffffff168152602001908152602001600020600701600086815260200190815260200160002060010160009054906101000a900473ffffffffffffffffffffffffffffffffffffffff16600a60008867ffffffffffffffff16815260200190815260200160002060070160008781526020019081526020016000206002015484610c14919061386d565b6040518363ffffffff1660e01b8152600401610c3192919061355b565b602060405180830381600087803b158015610c4b57600080fd5b505af1158015610c5f573d6000803e3d6000fd5b505050506040513d601f19601f82011682018060405250810190610c839190613122565b5080600a60008667ffffffffffffffff16815260200190815260200160002060020154610cb091906139ee565b600a60008667ffffffffffffffff1681526020019081526020016000206002018190555050610d5e565b6001600a60008567ffffffffffffffff168152602001908152602001600020600701600084815260200190815260200160002060030160006101000a81548160ff02191690836002811115610d58577f4e487b7100000000000000000000000000000000000000000000000000000000600052602160045260246000fd5b02179055505b33600a60008567ffffffffffffffff168152602001908152602001600020600701600084815260200190815260200160002060010160006101000a81548173ffffffffffffffffffffffffffffffffffffffff021916908373ffffffffffffffffffffffffffffffffffffffff16021790555085600a60008567ffffffffffffffff1681526020019081526020016000206007016000848152602001908152602001600020600201819055507f1971c2bc6c1c3b3c45e5176a769c713f43492ad3c45a830be5a38d27dfa1c4cb8383604051610e3b9291906137a6565b60405180910390a15050505050505050565b60026003811115610e87577f4e487b7100000000000000000000000000000000000000000000000000000000600052602160045260246000fd5b600a60008367ffffffffffffffff16815260200190815260200160002060050160009054906101000a900460ff166003811115610eed577f4e487b7100000000000000000000000000000000000000000000000000000000600052602160045260246000fd5b14610f2d576040517f08c379a0000000000000000000000000000000000000000000000000000000008152600401610f24906136f5565b60405180910390fd5b6000610f58600a60008467ffffffffffffffff16815260200190815260200160002060010154611f56565b9050600280811115610f93577f4e487b7100000000000000000000000000000000000000000000000000000000600052602160045260246000fd5b600a60008467ffffffffffffffff168152602001908152602001600020600701600083815260200190815260200160002060030160009054906101000a900460ff16600281111561100d577f4e487b7100000000000000000000000000000000000000000000000000000000600052602160045260246000fd5b141561104e576040517f08c379a000000000000000000000000000000000000000000000000000000000815260040161104590613675565b60405180910390fd5b600660009054906101000a900473ffffffffffffffffffffffffffffffffffffffff1673ffffffffffffffffffffffffffffffffffffffff1663a9059cbb600a60008567ffffffffffffffff168152602001908152602001600020600701600084815260200190815260200160002060010160009054906101000a900473ffffffffffffffffffffffffffffffffffffffff16600a60008667ffffffffffffffff168152602001908152602001600020600201546040518363ffffffff1660e01b815260040161111f92919061355b565b602060405180830381600087803b15801561113957600080fd5b505af115801561114d573d6000803e3d6000fd5b505050506040513d601f19601f820116820180604052508101906111719190613122565b506002600a60008467ffffffffffffffff168152602001908152602001600020600701600083815260200190815260200160002060030160006101000a81548160ff021916908360028111156111f0577f4e487b7100000000000000000000000000000000000000000000000000000000600052602160045260246000fd5b02179055507f1971c2bc6c1c3b3c45e5176a769c713f43492ad3c45a830be5a38d27dfa1c4cb82826040516112269291906137a6565b60405180910390a15050565b806000620186a0600454836112479190613994565b6112519190613932565b9050600854811015611298576040517f08c379a000000000000000000000000000000000000000000000000000000000815260040161128f90613695565b60405180910390fd5b60006112a38661201b565b905060006112b18287612dde565b90503373ffffffffffffffffffffffffffffffffffffffff16600a60008467ffffffffffffffff168152602001908152602001600020600701600083815260200190815260200160002060010160009054906101000a900473ffffffffffffffffffffffffffffffffffffffff1673ffffffffffffffffffffffffffffffffffffffff1614611375576040517f08c379a000000000000000000000000000000000000000000000000000000000815260040161136c906136d5565b60405180910390fd5b60006113818387611aec565b905060006113c384600a60008767ffffffffffffffff168152602001908152602001600020600701600086815260200190815260200160002060020154611aec565b9050808211156115e45780826113d991906139ee565b600660009054906101000a900473ffffffffffffffffffffffffffffffffffffffff1673ffffffffffffffffffffffffffffffffffffffff1663dd62ed3e33306040518363ffffffff1660e01b81526004016114369291906134fb565b60206040518083038186803b15801561144e57600080fd5b505afa158015611462573d6000803e3d6000fd5b505050506040513d601f19601f820116820180604052508101906114869190613174565b10156114c7576040517f08c379a00000000000000000000000000000000000000000000000000000000081526004016114be906136b5565b60405180910390fd5b600660009054906101000a900473ffffffffffffffffffffffffffffffffffffffff1673ffffffffffffffffffffffffffffffffffffffff166323b872dd3330848661151391906139ee565b6040518463ffffffff1660e01b815260040161153193929190613524565b602060405180830381600087803b15801561154b57600080fd5b505af115801561155f573d6000803e3d6000fd5b505050506040513d601f19601f820116820180604052508101906115839190613122565b50808261159091906139ee565b600a60008667ffffffffffffffff168152602001908152602001600020600201546115bb919061386d565b600a60008667ffffffffffffffff16815260200190815260200160002060020181905550611704565b8082101561170357600660009054906101000a900473ffffffffffffffffffffffffffffffffffffffff1673ffffffffffffffffffffffffffffffffffffffff1663a9059cbb33848461163791906139ee565b6040518363ffffffff1660e01b815260040161165492919061355b565b602060405180830381600087803b15801561166e57600080fd5b505af1158015611682573d6000803e3d6000fd5b505050506040513d601f19601f820116820180604052508101906116a69190613122565b5081816116b391906139ee565b600a60008667ffffffffffffffff168152602001908152602001600020600201546116de91906139ee565b600a60008667ffffffffffffffff168152602001908152602001600020600201819055505b5b86600a60008667ffffffffffffffff1681526020019081526020016000206007016000858152602001908152602001600020600201819055507f1971c2bc6c1c3b3c45e5176a769c713f43492ad3c45a830be5a38d27dfa1c4cb848460405161176e9291906137a6565b60405180910390a1505050505050505050565b600061178c426119f6565b905043600a60008367ffffffffffffffff16815260200190815260200160002060000160186101000a81548167ffffffffffffffff021916908367ffffffffffffffff160217905550600060189054906101000a900467ffffffffffffffff1660008054906101000a900467ffffffffffffffff168261180c91906138c3565b6118169190613a22565b67ffffffffffffffff16421015801561184f57506000600a60008367ffffffffffffffff16815260200190815260200160002060030154145b156118fc5781600a60008367ffffffffffffffff1681526020019081526020016000206003018190555042600a60008367ffffffffffffffff16815260200190815260200160002060000160086101000a81548167ffffffffffffffff021916908367ffffffffffffffff1602179055507f7b82e6c3260c9e2f54af2895ca2e183fab07f3ff1cba1c9aa5b8b956897d9334816040516118ef919061378b565b60405180910390a16119f2565b600060189054906101000a900467ffffffffffffffff1660008054906101000a900467ffffffffffffffff168261193391906138c3565b61193d9190613a22565b67ffffffffffffffff1642106119f15781600a60008367ffffffffffffffff1681526020019081526020016000206004018190555042600a60008367ffffffffffffffff16815260200190815260200160002060000160106101000a81548167ffffffffffffffff021916908367ffffffffffffffff1602179055507f7b82e6c3260c9e2f54af2895ca2e183fab07f3ff1cba1c9aa5b8b956897d9334816040516119e8919061378b565b60405180910390a15b5b5050565b60008060089054906101000a900467ffffffffffffffff1667ffffffffffffffff168267ffffffffffffffff1611611a4657600060089054906101000a900467ffffffffffffffff169050611a95565b60008054906101000a900467ffffffffffffffff16600060089054906101000a900467ffffffffffffffff1683611a7d9190613a22565b611a879190613b90565b82611a929190613a22565b90505b919050565b60085481565b60035481565b600760009054906101000a900473ffffffffffffffffffffffffffffffffffffffff1681565b60025481565b600060109054906101000a900467ffffffffffffffff1681565b60008042611b1860008054906101000a900467ffffffffffffffff1642611b1391906138c3565b6119f6565b67ffffffffffffffff16611b2c91906139ee565b905060008060009054906101000a900467ffffffffffffffff1667ffffffffffffffff1682600954611b5e9190613994565b611b689190613932565b90506000611b7586611ea9565b90508067ffffffffffffffff16620186a060045487611b949190613994565b611b9e9190613932565b611ba89190613994565b93506000620186a060045487611bbe9190613994565b611bc89190613932565b90506009548382611bd99190613994565b611be39190613932565b90508085611bf1919061386d565b94505050505092915050565b6000600a60008367ffffffffffffffff168152602001908152602001600020600601805490509050919050565b600560009054906101000a900473ffffffffffffffffffffffffffffffffffffffff1673ffffffffffffffffffffffffffffffffffffffff16638da5cb5b6040518163ffffffff1660e01b815260040160206040518083038186803b158015611c9257600080fd5b505afa158015611ca6573d6000803e3d6000fd5b505050506040513d601f19601f82011682018060405250810190611cca91906130f9565b73ffffffffffffffffffffffffffffffffffffffff163373ffffffffffffffffffffffffffffffffffffffff1614611d37576040517f08c379a0000000000000000000000000000000000000000000000000000000008152600401611d2e906135f5565b60405180910390fd5b600660009054906101000a900473ffffffffffffffffffffffffffffffffffffffff1673ffffffffffffffffffffffffffffffffffffffff1663a9059cbb600560009054906101000a900473ffffffffffffffffffffffffffffffffffffffff1673ffffffffffffffffffffffffffffffffffffffff16638da5cb5b6040518163ffffffff1660e01b815260040160206040518083038186803b158015611ddd57600080fd5b505afa158015611df1573d6000803e3d6000fd5b505050506040513d601f19601f82011682018060405250810190611e1591906130f9565b836040518363ffffffff1660e01b8152600401611e3392919061355b565b602060405180830381600087803b158015611e4d57600080fd5b505af1158015611e61573d6000803e3d6000fd5b505050506040513d601f19601f82011682018060405250810190611e859190613122565b5050565b600060089054906101000a900467ffffffffffffffff1681565b60045481565b6000600160008054906101000a900467ffffffffffffffff164284611ece9190613a22565b611ed89190613963565b611ee291906138c3565b9050919050565b6000600a60008467ffffffffffffffff1681526020019081526020016000206006018281548110611f43577f4e487b7100000000000000000000000000000000000000000000000000000000600052603260045260246000fd5b9060005260206000200154905092915050565b6000808211611f69576002549050611f94565b60025460025460025484611f7d9190613932565b611f879190613994565b611f91919061386d565b90505b919050565b600080611fa5856119f6565b90506000611fb285611f56565b90506000611fc08386611aec565b905080600a60008567ffffffffffffffff168152602001908152602001600020600701600084815260200190815260200160002060020154612002919061386d565b93505050509392505050565b6000600b80549050905090565b600080612027836119f6565b905060006003811115612063577f4e487b7100000000000000000000000000000000000000000000000000000000600052602160045260246000fd5b600a60008367ffffffffffffffff16815260200190815260200160002060050160009054906101000a900460ff1660038111156120c9577f4e487b7100000000000000000000000000000000000000000000000000000000600052602160045260246000fd5b146120d7578091505061225b565b6120e0426119f6565b67ffffffffffffffff168167ffffffffffffffff161015612136576040517f08c379a000000000000000000000000000000000000000000000000000000000815260040161212d90613635565b60405180910390fd5b80600a60008367ffffffffffffffff16815260200190815260200160002060000160006101000a81548167ffffffffffffffff021916908367ffffffffffffffff1602179055506001600a60008367ffffffffffffffff16815260200190815260200160002060050160006101000a81548160ff021916908360038111156121e7577f4e487b7100000000000000000000000000000000000000000000000000000000600052602160045260246000fd5b0217905550600b81908060018154018082558091505060019003906000526020600020016000909167ffffffffffffffff169091909150557f7b82e6c3260c9e2f54af2895ca2e183fab07f3ff1cba1c9aa5b8b956897d93348160405161224e919061378b565b60405180910390a1809150505b919050565b600a6020528060005260406000206000915090508060000160009054906101000a900467ffffffffffffffff16908060000160089054906101000a900467ffffffffffffffff16908060000160109054906101000a900467ffffffffffffffff16908060000160189054906101000a900467ffffffffffffffff16908060010154908060020154908060030154908060040154908060050160009054906101000a900460ff16905089565b8067ffffffffffffffff166000600a60008381526020019081526020016000206003015411158061235357506000600a60008381526020019081526020016000206004015411155b156123f8576003600a600083815260200190815260200160002060050160006101000a81548160ff021916908360038111156123b8577f4e487b7100000000000000000000000000000000000000000000000000000000600052602160045260246000fd5b02179055506040517f08c379a00000000000000000000000000000000000000000000000000000000081526004016123ef90613655565b60405180910390fd5b600a600082815260200190815260200160002060040154600a60008381526020019081526020016000206003015414156124cc576003600a600083815260200190815260200160002060050160006101000a81548160ff0219169083600381111561248c577f4e487b7100000000000000000000000000000000000000000000000000000000600052602160045260246000fd5b02179055506040517f08c379a00000000000000000000000000000000000000000000000000000000081526004016124c390613655565b60405180910390fd5b60016003811115612506577f4e487b7100000000000000000000000000000000000000000000000000000000600052602160045260246000fd5b600a60008467ffffffffffffffff16815260200190815260200160002060050160009054906101000a900460ff16600381111561256c577f4e487b7100000000000000000000000000000000000000000000000000000000600052602160045260246000fd5b146125ac576040517f08c379a00000000000000000000000000000000000000000000000000000000081526004016125a390613615565b60405180910390fd5b4260008054906101000a900467ffffffffffffffff16836125cd91906138c3565b67ffffffffffffffff161115612618576040517f08c379a000000000000000000000000000000000000000000000000000000000815260040161260f906135d5565b60405180910390fd5b6002600a60008467ffffffffffffffff16815260200190815260200160002060050160006101000a81548160ff02191690836003811115612682577f4e487b7100000000000000000000000000000000000000000000000000000000600052602160045260246000fd5b02179055506000600a60008467ffffffffffffffff16815260200190815260200160002060030154600a60008567ffffffffffffffff168152602001908152602001600020600401546126d591906139ee565b90506000600a60008567ffffffffffffffff16815260200190815260200160002060000160089054906101000a900467ffffffffffffffff16600a60008667ffffffffffffffff16815260200190815260200160002060000160109054906101000a900467ffffffffffffffff1661274d9190613a22565b67ffffffffffffffff16905061278f6040518060200160405280847bffffffffffffffffffffffffffffffffffffffffffffffffffffffff1681525082612f39565b600001517bffffffffffffffffffffffffffffffffffffffffffffffffffffffff16600a60008667ffffffffffffffff168152602001908152602001600020600101819055507406d79f82328ea3da61e066ebb2f88a0000000000006070600a60008767ffffffffffffffff16815260200190815260200160002060010154901b61281a9190613932565b6009546070600a60008867ffffffffffffffff16815260200190815260200160002060010154901c61284c9190613994565b612856919061386d565b600a60008667ffffffffffffffff168152602001908152602001600020600101819055506000620186a0600354600a60008867ffffffffffffffff168152602001908152602001600020600201546128ae9190613994565b6128b89190613932565b90506000620186a0600060109054906101000a900467ffffffffffffffff1667ffffffffffffffff16600a60008967ffffffffffffffff1681526020019081526020016000206002015461290c9190613994565b6129169190613932565b90508082600a60008967ffffffffffffffff1681526020019081526020016000206002015461294591906139ee565b61294f91906139ee565b600a60008867ffffffffffffffff16815260200190815260200160002060020181905550600660009054906101000a900473ffffffffffffffffffffffffffffffffffffffff1673ffffffffffffffffffffffffffffffffffffffff1663a9059cbb600760009054906101000a900473ffffffffffffffffffffffffffffffffffffffff16846040518363ffffffff1660e01b81526004016129f292919061355b565b602060405180830381600087803b158015612a0c57600080fd5b505af1158015612a20573d6000803e3d6000fd5b505050506040513d601f19601f82011682018060405250810190612a449190613122565b50600660009054906101000a900473ffffffffffffffffffffffffffffffffffffffff1673ffffffffffffffffffffffffffffffffffffffff1663a9059cbb600560009054906101000a900473ffffffffffffffffffffffffffffffffffffffff1673ffffffffffffffffffffffffffffffffffffffff16638da5cb5b6040518163ffffffff1660e01b815260040160206040518083038186803b158015612aeb57600080fd5b505afa158015612aff573d6000803e3d6000fd5b505050506040513d601f19601f82011682018060405250810190612b2391906130f9565b836040518363ffffffff1660e01b8152600401612b4192919061355b565b602060405180830381600087803b158015612b5b57600080fd5b505af1158015612b6f573d6000803e3d6000fd5b505050506040513d601f19601f82011682018060405250810190612b939190613122565b507f7b82e6c3260c9e2f54af2895ca2e183fab07f3ff1cba1c9aa5b8b956897d933486604051612bc3919061378b565b60405180910390a1505050505050565b6000600a60008367ffffffffffffffff168152602001908152602001600020600201549050919050565b600560009054906101000a900473ffffffffffffffffffffffffffffffffffffffff1681565b600160009054906101000a900473ffffffffffffffffffffffffffffffffffffffff1681565b600660009054906101000a900473ffffffffffffffffffffffffffffffffffffffff1681565b60008054906101000a900467ffffffffffffffff1681565b612c8f612fe9565b600a60008467ffffffffffffffff1681526020019081526020016000206007016000838152602001908152602001600020604051806080016040529081600082015481526020016001820160009054906101000a900473ffffffffffffffffffffffffffffffffffffffff1673ffffffffffffffffffffffffffffffffffffffff1673ffffffffffffffffffffffffffffffffffffffff168152602001600282015481526020016003820160009054906101000a900460ff166002811115612d80577f4e487b7100000000000000000000000000000000000000000000000000000000600052602160045260246000fd5b6002811115612db8577f4e487b7100000000000000000000000000000000000000000000000000000000600052602160045260246000fd5b81525050905092915050565b600060189054906101000a900467ffffffffffffffff1681565b600080612dea83611f56565b905060006002811115612e26577f4e487b7100000000000000000000000000000000000000000000000000000000600052602160045260246000fd5b600a60008667ffffffffffffffff168152602001908152602001600020600701600083815260200190815260200160002060030160009054906101000a900460ff166002811115612ea0577f4e487b7100000000000000000000000000000000000000000000000000000000600052602160045260246000fd5b14612eae5780915050612f33565b80600a60008667ffffffffffffffff168152602001908152602001600020600701600083815260200190815260200160002060000181905550600a60008567ffffffffffffffff168152602001908152602001600020600601819080600181540180825580915050600190039060005260206000200160009091909190915055809150505b92915050565b612f4161305f565b6000826dffffffffffffffffffffffffffff161415612f95576040517f08c379a0000000000000000000000000000000000000000000000000000000008152600401612f8c90613735565b60405180910390fd5b6040518060200160405280836dffffffffffffffffffffffffffff168560000151612fc09190613901565b7bffffffffffffffffffffffffffffffffffffffffffffffffffffffff16815250905092915050565b604051806080016040528060008152602001600073ffffffffffffffffffffffffffffffffffffffff1681526020016000815260200160006002811115613059577f4e487b7100000000000000000000000000000000000000000000000000000000600052602160045260246000fd5b81525090565b604051806020016040528060007bffffffffffffffffffffffffffffffffffffffffffffffffffffffff1681525090565b60008151905061309f81613e62565b92915050565b6000815190506130b481613e79565b92915050565b6000813590506130c981613e90565b92915050565b6000815190506130de81613e90565b92915050565b6000813590506130f381613ea7565b92915050565b60006020828403121561310b57600080fd5b600061311984828501613090565b91505092915050565b60006020828403121561313457600080fd5b6000613142848285016130a5565b91505092915050565b60006020828403121561315d57600080fd5b600061316b848285016130ba565b91505092915050565b60006020828403121561318657600080fd5b6000613194848285016130cf565b91505092915050565b6000602082840312156131af57600080fd5b60006131bd848285016130e4565b91505092915050565b600080604083850312156131d957600080fd5b60006131e7858286016130e4565b92505060206131f8858286016130ba565b9150509250929050565b60008060006060848603121561321757600080fd5b6000613225868287016130e4565b9350506020613236868287016130ba565b9250506040613247868287016130ba565b9150509250925092565b61325a81613a56565b82525050565b61326981613a56565b82525050565b61327881613b00565b82525050565b61328781613b24565b82525050565b61329681613b48565b82525050565b6132a581613b6c565b82525050565b6132b481613b7e565b82525050565b60006132c7601a8361385c565b91506132d282613c4e565b602082019050919050565b60006132ea60158361385c565b91506132f582613c77565b602082019050919050565b600061330d60108361385c565b915061331882613ca0565b602082019050919050565b6000613330601a8361385c565b915061333b82613cc9565b602082019050919050565b600061335360138361385c565b915061335e82613cf2565b602082019050919050565b600061337660138361385c565b915061338182613d1b565b602082019050919050565b600061339960108361385c565b91506133a482613d44565b602082019050919050565b60006133bc60198361385c565b91506133c782613d6d565b602082019050919050565b60006133df60118361385c565b91506133ea82613d96565b602082019050919050565b600061340260108361385c565b915061340d82613dbf565b602082019050919050565b6000613425601f8361385c565b915061343082613de8565b602082019050919050565b600061344860178361385c565b915061345382613e11565b602082019050919050565b60808201600082015161347460008501826134b3565b5060208201516134876020850182613251565b50604082015161349a60408501826134b3565b5060608201516134ad60608501826132ab565b50505050565b6134bc81613ae2565b82525050565b6134cb81613ae2565b82525050565b6134da81613aec565b82525050565b60006020820190506134f56000830184613260565b92915050565b60006040820190506135106000830185613260565b61351d6020830184613260565b9392505050565b60006060820190506135396000830186613260565b6135466020830185613260565b61355360408301846134c2565b949350505050565b60006040820190506135706000830185613260565b61357d60208301846134c2565b9392505050565b6000602082019050613599600083018461326f565b92915050565b60006020820190506135b4600083018461327e565b92915050565b60006020820190506135cf600083018461328d565b92915050565b600060208201905081810360008301526135ee816132ba565b9050919050565b6000602082019050818103600083015261360e816132dd565b9050919050565b6000602082019050818103600083015261362e81613300565b9050919050565b6000602082019050818103600083015261364e81613323565b9050919050565b6000602082019050818103600083015261366e81613346565b9050919050565b6000602082019050818103600083015261368e81613369565b9050919050565b600060208201905081810360008301526136ae8161338c565b9050919050565b600060208201905081810360008301526136ce816133af565b9050919050565b600060208201905081810360008301526136ee816133d2565b9050919050565b6000602082019050818103600083015261370e816133f5565b9050919050565b6000602082019050818103600083015261372e81613418565b9050919050565b6000602082019050818103600083015261374e8161343b565b9050919050565b600060808201905061376a600083018461345e565b92915050565b600060208201905061378560008301846134c2565b92915050565b60006020820190506137a060008301846134d1565b92915050565b60006040820190506137bb60008301856134d1565b6137c860208301846134c2565b9392505050565b6000610120820190506137e5600083018c6134d1565b6137f2602083018b6134d1565b6137ff604083018a6134d1565b61380c60608301896134d1565b61381960808301886134c2565b61382660a08301876134c2565b61383360c08301866134c2565b61384060e08301856134c2565b61384e61010083018461329c565b9a9950505050505050505050565b600082825260208201905092915050565b600061387882613ae2565b915061388383613ae2565b9250827fffffffffffffffffffffffffffffffffffffffffffffffffffffffffffffffff038211156138b8576138b7613bc1565b5b828201905092915050565b60006138ce82613aec565b91506138d983613aec565b92508267ffffffffffffffff038211156138f6576138f5613bc1565b5b828201905092915050565b600061390c82613aba565b915061391783613aba565b92508261392757613926613bf0565b5b828204905092915050565b600061393d82613ae2565b915061394883613ae2565b92508261395857613957613bf0565b5b828204905092915050565b600061396e82613aec565b915061397983613aec565b92508261398957613988613bf0565b5b828204905092915050565b600061399f82613ae2565b91506139aa83613ae2565b9250817fffffffffffffffffffffffffffffffffffffffffffffffffffffffffffffffff04831182151516156139e3576139e2613bc1565b5b828202905092915050565b60006139f982613ae2565b9150613a0483613ae2565b925082821015613a1757613a16613bc1565b5b828203905092915050565b6000613a2d82613aec565b9150613a3883613aec565b925082821015613a4b57613a4a613bc1565b5b828203905092915050565b6000613a6182613a9a565b9050919050565b60008115159050919050565b6000819050613a8282613e3a565b919050565b6000819050613a9582613e4e565b919050565b600073ffffffffffffffffffffffffffffffffffffffff82169050919050565b60007bffffffffffffffffffffffffffffffffffffffffffffffffffffffff82169050919050565b6000819050919050565b600067ffffffffffffffff82169050919050565b6000613b0b82613b12565b9050919050565b6000613b1d82613a9a565b9050919050565b6000613b2f82613b36565b9050919050565b6000613b4182613a9a565b9050919050565b6000613b5382613b5a565b9050919050565b6000613b6582613a9a565b9050919050565b6000613b7782613a74565b9050919050565b6000613b8982613a87565b9050919050565b6000613b9b82613aec565b9150613ba683613aec565b925082613bb657613bb5613bf0565b5b828206905092915050565b7f4e487b7100000000000000000000000000000000000000000000000000000000600052601160045260246000fd5b7f4e487b7100000000000000000000000000000000000000000000000000000000600052601260045260246000fd5b7f4e487b7100000000000000000000000000000000000000000000000000000000600052602160045260246000fd5b7f4652414d4520454e442054494d45204e4f542052454143484544000000000000600082015250565b7f4e4f542054484520464143544f5259204f574e45520000000000000000000000600082015250565b7f4652414d45204e4f54204f50454e454400000000000000000000000000000000600082015250565b7f43414e275420435245415445204652414d4520494e2050415354000000000000600082015250565b7f494e56414c4944204652414d4520505249434500000000000000000000000000600082015250565b7f4c4f5420414c524541445920534554544c454400000000000000000000000000600082015250565b7f505249434520495320544f4f204c4f5700000000000000000000000000000000600082015250565b7f415050524f56454420414d4f554e5420544f4f20534d414c4c00000000000000600082015250565b7f4d555354204245204c4f54204f574e4552000000000000000000000000000000600082015250565b7f4652414d45204e4f5420434c4f53454400000000000000000000000000000000600082015250565b7f4144445245535320414c5245414459204f574e53205448452050415243454c00600082015250565b7f4669786564506f696e743a204449565f42595f5a45524f000000000000000000600082015250565b60048110613e4b57613e4a613c1f565b5b50565b60038110613e5f57613e5e613c1f565b5b50565b613e6b81613a56565b8114613e7657600080fd5b50565b613e8281613a68565b8114613e8d57600080fd5b50565b613e9981613ae2565b8114613ea457600080fd5b50565b613eb081613aec565b8114613ebb57600080fd5b5056fea2646970667358221220c757d96472e4cbf63ea9f44959b7f0e76eabbd0d490b7d15ab0b0136ba095c0764736f6c63430008040033",
  "linkReferences": {},
  "deployedLinkReferences": {}
}