{
  "_format": "hh-sol-artifact-1",
  "contractName": "Market",
  "sourceName": "contracts/Market.sol",
  "abi": [
    {
      "inputs": [
        {
          "internalType": "contract MarketFactory",
          "name": "_factory",
          "type": "address"
        },
        {
          "internalType": "contract IERC20",
          "name": "_token",
          "type": "address"
        },
        {
          "internalType": "contract IUniswapV2Pair",
          "name": "_uniswapPair",
          "type": "address"
        },
        {
          "internalType": "uint64",
          "name": "_period",
          "type": "uint64"
        },
        {
          "internalType": "uint64",
          "name": "_initTimestamp",
          "type": "uint64"
        },
        {
          "internalType": "uint256",
          "name": "_taxMarket",
          "type": "uint256"
        },
        {
          "internalType": "uint256",
          "name": "_feeMarket",
          "type": "uint256"
        },
        {
          "internalType": "uint256",
          "name": "_dPrice",
          "type": "uint256"
        },
        {
          "internalType": "uint64",
          "name": "_tReporting",
          "type": "uint64"
        },
        {
          "internalType": "uint256",
          "name": "_minTax",
          "type": "uint256"
        }
      ],
      "stateMutability": "nonpayable",
      "type": "constructor"
    },
    {
      "anonymous": false,
      "inputs": [
        {
          "indexed": false,
          "internalType": "uint64",
          "name": "frameKey",
          "type": "uint64"
        }
      ],
      "name": "FrameUpdate",
      "type": "event"
    },
    {
      "anonymous": false,
      "inputs": [
        {
          "indexed": false,
          "internalType": "uint64",
          "name": "frameKey",
          "type": "uint64"
        },
        {
          "indexed": false,
          "internalType": "uint256",
          "name": "lotKey",
          "type": "uint256"
        }
      ],
      "name": "LotUpdate",
      "type": "event"
    },
    {
      "inputs": [],
      "name": "accountingToken",
      "outputs": [
        {
          "internalType": "contract IERC20",
          "name": "",
          "type": "address"
        }
      ],
      "stateMutability": "view",
      "type": "function"
    },
    {
      "inputs": [
        {
          "internalType": "uint64",
          "name": "timestamp",
          "type": "uint64"
        },
        {
          "internalType": "uint256",
          "name": "pairPrice",
          "type": "uint256"
        },
        {
          "internalType": "uint256",
          "name": "acqPrice",
          "type": "uint256"
        }
      ],
      "name": "buyLot",
      "outputs": [],
      "stateMutability": "nonpayable",
      "type": "function"
    },
    {
      "inputs": [
        {
          "internalType": "uint64",
          "name": "timestamp",
          "type": "uint64"
        },
        {
          "internalType": "uint256",
          "name": "pairPrice",
          "type": "uint256"
        },
        {
          "internalType": "uint256",
          "name": "acqPrice",
          "type": "uint256"
        }
      ],
      "name": "clcAmountToApprove",
      "outputs": [
        {
          "internalType": "uint256",
          "name": "cmpltAmnt",
          "type": "uint256"
        }
      ],
      "stateMutability": "view",
      "type": "function"
    },
    {
      "inputs": [
        {
          "internalType": "uint64",
          "name": "timestamp",
          "type": "uint64"
        }
      ],
      "name": "clcFrameTimestamp",
      "outputs": [
        {
          "internalType": "uint64",
          "name": "",
          "type": "uint64"
        }
      ],
      "stateMutability": "view",
      "type": "function"
    },
    {
      "inputs": [
        {
          "internalType": "uint64",
          "name": "frameKey",
          "type": "uint64"
        }
      ],
      "name": "clcFramesLeft",
      "outputs": [
        {
          "internalType": "uint64",
          "name": "",
          "type": "uint64"
        }
      ],
      "stateMutability": "view",
      "type": "function"
    },
    {
      "inputs": [
        {
          "internalType": "uint256",
          "name": "value",
          "type": "uint256"
        }
      ],
      "name": "clcLotInterval",
      "outputs": [
        {
          "internalType": "uint256",
          "name": "",
          "type": "uint256"
        }
      ],
      "stateMutability": "view",
      "type": "function"
    },
    {
      "inputs": [
        {
          "internalType": "uint64",
          "name": "frameKey",
          "type": "uint64"
        },
        {
          "internalType": "uint256",
          "name": "acquisitionPrice",
          "type": "uint256"
        }
      ],
      "name": "clcTax",
      "outputs": [
        {
          "internalType": "uint256",
          "name": "tax",
          "type": "uint256"
        }
      ],
      "stateMutability": "view",
      "type": "function"
    },
    {
      "inputs": [
        {
          "internalType": "uint64",
          "name": "frameKey",
          "type": "uint64"
        }
      ],
      "name": "closeFrame",
      "outputs": [],
      "stateMutability": "nonpayable",
      "type": "function"
    },
    {
      "inputs": [],
      "name": "dPrice",
      "outputs": [
        {
          "internalType": "uint256",
          "name": "",
          "type": "uint256"
        }
      ],
      "stateMutability": "view",
      "type": "function"
    },
    {
      "inputs": [
        {
          "internalType": "uint256",
          "name": "amount",
          "type": "uint256"
        }
      ],
      "name": "emptyFunds",
      "outputs": [],
      "stateMutability": "nonpayable",
      "type": "function"
    },
    {
      "inputs": [],
      "name": "factory",
      "outputs": [
        {
          "internalType": "contract MarketFactory",
          "name": "",
          "type": "address"
        }
      ],
      "stateMutability": "view",
      "type": "function"
    },
    {
      "inputs": [],
      "name": "feeMarket",
      "outputs": [
        {
          "internalType": "uint256",
          "name": "",
          "type": "uint256"
        }
      ],
      "stateMutability": "view",
      "type": "function"
    },
    {
      "inputs": [],
      "name": "feeProtocol",
      "outputs": [
        {
          "internalType": "uint64",
          "name": "",
          "type": "uint64"
        }
      ],
      "stateMutability": "view",
      "type": "function"
    },
    {
      "inputs": [
        {
          "internalType": "uint256",
          "name": "",
          "type": "uint256"
        }
      ],
      "name": "frames",
      "outputs": [
        {
          "internalType": "uint64",
          "name": "frameKey",
          "type": "uint64"
        },
        {
          "internalType": "uint64",
          "name": "oracleTimestampStart",
          "type": "uint64"
        },
        {
          "internalType": "uint64",
          "name": "oracleTimestampEnd",
          "type": "uint64"
        },
        {
          "internalType": "uint64",
          "name": "lastBlockNum",
          "type": "uint64"
        },
        {
          "internalType": "uint256",
          "name": "priceAverage",
          "type": "uint256"
        },
        {
          "internalType": "uint256",
          "name": "rewardFund",
          "type": "uint256"
        },
        {
          "internalType": "uint256",
          "name": "oraclePrice0CumulativeStart",
          "type": "uint256"
        },
        {
          "internalType": "uint256",
          "name": "oraclePrice0CumulativeEnd",
          "type": "uint256"
        },
        {
          "internalType": "enum Market.SFrame",
          "name": "state",
          "type": "uint8"
        }
      ],
      "stateMutability": "view",
      "type": "function"
    },
    {
      "inputs": [
        {
          "internalType": "uint256",
          "name": "",
          "type": "uint256"
        }
      ],
      "name": "framesKeys",
      "outputs": [
        {
          "internalType": "uint256",
          "name": "",
          "type": "uint256"
        }
      ],
      "stateMutability": "view",
      "type": "function"
    },
    {
      "inputs": [
        {
          "internalType": "uint64",
          "name": "frameKey",
          "type": "uint64"
        },
        {
          "internalType": "uint256",
          "name": "lotKey",
          "type": "uint256"
        }
      ],
      "name": "getLot",
      "outputs": [
        {
          "components": [
            {
              "internalType": "uint256",
              "name": "lotKey",
              "type": "uint256"
            },
            {
              "internalType": "address",
              "name": "lotOwner",
              "type": "address"
            },
            {
              "internalType": "uint256",
              "name": "acquisitionPrice",
              "type": "uint256"
            },
            {
              "internalType": "enum Market.SLot",
              "name": "state",
              "type": "uint8"
            }
          ],
          "internalType": "struct Market.Lot",
          "name": "",
          "type": "tuple"
        }
      ],
      "stateMutability": "view",
      "type": "function"
    },
    {
      "inputs": [
        {
          "internalType": "uint64",
          "name": "frameKey",
          "type": "uint64"
        },
        {
          "internalType": "uint256",
          "name": "index",
          "type": "uint256"
        }
      ],
      "name": "getLotKey",
      "outputs": [
        {
          "internalType": "uint256",
          "name": "",
          "type": "uint256"
        }
      ],
      "stateMutability": "view",
      "type": "function"
    },
    {
      "inputs": [
        {
          "internalType": "uint64",
          "name": "frameKey",
          "type": "uint64"
        }
      ],
      "name": "getLotsCount",
      "outputs": [
        {
          "internalType": "uint256",
          "name": "",
          "type": "uint256"
        }
      ],
      "stateMutability": "view",
      "type": "function"
    },
    {
      "inputs": [],
      "name": "getNumberOfFrameKeys",
      "outputs": [
        {
          "internalType": "uint256",
          "name": "",
          "type": "uint256"
        }
      ],
      "stateMutability": "view",
      "type": "function"
    },
    {
      "inputs": [
        {
          "internalType": "uint64",
          "name": "timestamp",
          "type": "uint64"
        }
      ],
      "name": "getOrCreateFrame",
      "outputs": [
        {
          "internalType": "uint64",
          "name": "",
          "type": "uint64"
        }
      ],
      "stateMutability": "nonpayable",
      "type": "function"
    },
    {
      "inputs": [
        {
          "internalType": "uint64",
          "name": "frameKey",
          "type": "uint64"
        }
      ],
      "name": "getRewardAmount",
      "outputs": [
        {
          "internalType": "uint256",
          "name": "",
          "type": "uint256"
        }
      ],
      "stateMutability": "view",
      "type": "function"
    },
    {
      "inputs": [],
      "name": "initTimestamp",
      "outputs": [
        {
          "internalType": "uint64",
          "name": "",
          "type": "uint64"
        }
      ],
      "stateMutability": "view",
      "type": "function"
    },
    {
      "inputs": [],
      "name": "minTax",
      "outputs": [
        {
          "internalType": "uint256",
          "name": "",
          "type": "uint256"
        }
      ],
      "stateMutability": "view",
      "type": "function"
    },
    {
      "inputs": [],
      "name": "ownerMarket",
      "outputs": [
        {
          "internalType": "address",
          "name": "",
          "type": "address"
        }
      ],
      "stateMutability": "view",
      "type": "function"
    },
    {
      "inputs": [],
      "name": "period",
      "outputs": [
        {
          "internalType": "uint64",
          "name": "",
          "type": "uint64"
        }
      ],
      "stateMutability": "view",
      "type": "function"
    },
    {
      "inputs": [
        {
          "internalType": "uint64",
          "name": "frameKey",
          "type": "uint64"
        }
      ],
      "name": "settleLot",
      "outputs": [],
      "stateMutability": "nonpayable",
      "type": "function"
    },
    {
      "inputs": [],
      "name": "tReporting",
      "outputs": [
        {
          "internalType": "uint64",
          "name": "",
          "type": "uint64"
        }
      ],
      "stateMutability": "view",
      "type": "function"
    },
    {
      "inputs": [],
      "name": "taxMarket",
      "outputs": [
        {
          "internalType": "uint256",
          "name": "",
          "type": "uint256"
        }
      ],
      "stateMutability": "view",
      "type": "function"
    },
    {
      "inputs": [],
      "name": "uniswapPair",
      "outputs": [
        {
          "internalType": "contract IUniswapV2Pair",
          "name": "",
          "type": "address"
        }
      ],
      "stateMutability": "view",
      "type": "function"
    },
    {
      "inputs": [],
      "name": "updateFramePrices",
      "outputs": [],
      "stateMutability": "nonpayable",
      "type": "function"
    },
    {
      "inputs": [
        {
          "internalType": "uint64",
          "name": "timestamp",
          "type": "uint64"
        },
        {
          "internalType": "uint256",
          "name": "pairPrice",
          "type": "uint256"
        },
        {
          "internalType": "uint256",
          "name": "acqPrice",
          "type": "uint256"
        }
      ],
      "name": "updateLotPrice",
      "outputs": [],
      "stateMutability": "nonpayable",
      "type": "function"
    }
  ],
  "bytecode": "0x60806040526064600060106101000a81548167ffffffffffffffff021916908367ffffffffffffffff16021790555069d3c21bcecceda10000006009553480156200004957600080fd5b50604051620048843803806200488483398181016040528101906200006f91906200028c565b88600660006101000a81548173ffffffffffffffffffffffffffffffffffffffff021916908373ffffffffffffffffffffffffffffffffffffffff16021790555033600760006101000a81548173ffffffffffffffffffffffffffffffffffffffff021916908373ffffffffffffffffffffffffffffffffffffffff160217905550866000806101000a81548167ffffffffffffffff021916908367ffffffffffffffff16021790555085600060086101000a81548167ffffffffffffffff021916908367ffffffffffffffff160217905550846004819055508360038190555087600160006101000a81548173ffffffffffffffffffffffffffffffffffffffff021916908373ffffffffffffffffffffffffffffffffffffffff1602179055508260028190555089600560006101000a81548173ffffffffffffffffffffffffffffffffffffffff021916908373ffffffffffffffffffffffffffffffffffffffff16021790555081600060186101000a81548167ffffffffffffffff021916908367ffffffffffffffff16021790555080600881905550505050505050505050506200048c565b6000815190506200022a816200040a565b92915050565b600081519050620002418162000424565b92915050565b60008151905062000258816200043e565b92915050565b6000815190506200026f8162000458565b92915050565b600081519050620002868162000472565b92915050565b6000806000806000806000806000806101408b8d031215620002ad57600080fd5b6000620002bd8d828e0162000247565b9a50506020620002d08d828e0162000219565b9950506040620002e38d828e0162000230565b9850506060620002f68d828e0162000275565b9750506080620003098d828e0162000275565b96505060a06200031c8d828e016200025e565b95505060c06200032f8d828e016200025e565b94505060e0620003428d828e016200025e565b935050610100620003568d828e0162000275565b9250506101206200036a8d828e016200025e565b9150509295989b9194979a5092959850565b60006200038982620003cc565b9050919050565b60006200039d826200037c565b9050919050565b6000620003b1826200037c565b9050919050565b6000620003c5826200037c565b9050919050565b600073ffffffffffffffffffffffffffffffffffffffff82169050919050565b6000819050919050565b600067ffffffffffffffff82169050919050565b620004158162000390565b81146200042157600080fd5b50565b6200042f81620003a4565b81146200043b57600080fd5b50565b6200044981620003b8565b81146200045557600080fd5b50565b6200046381620003ec565b81146200046f57600080fd5b50565b6200047d81620003f6565b81146200048957600080fd5b50565b6143e8806200049c6000396000f3fe608060405234801561001057600080fd5b50600436106101e55760003560e01c80637f85de671161010f578063aea0b20f116100a2578063da68cf8b11610071578063da68cf8b146105c4578063ef78d4fd146105e2578063f3f11b9d14610600578063ff5c86b014610630576101e5565b8063aea0b20f1461053c578063b1eb840514610558578063c45a015514610588578063c816841b146105a6576101e5565b806389da88a3116100de57806389da88a3146104ac57806396b2c6f3146104ca578063a0039886146104d4578063a10340bc14610504576101e5565b80637f85de67146103ec5780638608fe351461041c578063888bdbcd1461044c5780638949f08f1461047c576101e5565b8063450847751161018757806361e92d5b1161015657806361e92d5b146103645780636f7cb60b146103945780637358c57a146103b05780637e996639146103ce576101e5565b806345084775146102da578063499a0fc4146102f8578063527eb4bc146103165780635455a45014610334576101e5565b80631dec988e116101c35780631dec988e146102525780632f3dc5d41461026e5780633d09a82a1461029e578063410f0710146102bc576101e5565b8063050e8840146101ea57806307576b9f1461021a5780630b50864114610236575b600080fd5b61020460048036038101906101ff9190613582565b61064e565b6040516102119190613ba7565b60405180910390f35b610234600480360381019061022f9190613639565b610672565b005b610250600480360381019061024b91906135d4565b610e3b565b005b61026c60048036038101906102679190613639565b611220565b005b610288600480360381019061028391906135d4565b61176f565b6040516102959190613bc2565b60405180910390f35b6102a6611813565b6040516102b39190613ba7565b60405180910390f35b6102c4611819565b6040516102d19190613ba7565b60405180910390f35b6102e261181f565b6040516102ef9190613917565b60405180910390f35b610300611845565b60405161030d9190613ba7565b60405180910390f35b61031e61184b565b60405161032b9190613bc2565b60405180910390f35b61034e600480360381019061034991906135fd565b611865565b60405161035b9190613ba7565b60405180910390f35b61037e600480360381019061037991906135d4565b611976565b60405161038b9190613ba7565b60405180910390f35b6103ae60048036038101906103a99190613582565b6119a3565b005b6103b8611c02565b6040516103c59190613bc2565b60405180910390f35b6103d6611c1c565b6040516103e39190613ba7565b60405180910390f35b610406600480360381019061040191906135d4565b611c22565b6040516104139190613bc2565b60405180910390f35b610436600480360381019061043191906135fd565b611c62565b6040516104439190613ba7565b60405180910390f35b61046660048036038101906104619190613582565b611ccf565b6040516104739190613ba7565b60405180910390f35b61049660048036038101906104919190613639565b611d12565b6040516104a39190613ba7565b60405180910390f35b6104b4611d87565b6040516104c19190613ba7565b60405180910390f35b6104d2611d94565b005b6104ee60048036038101906104e991906135d4565b612086565b6040516104fb9190613bc2565b60405180910390f35b61051e60048036038101906105199190613582565b6122cb565b60405161053399989796959493929190613c06565b60405180910390f35b610556600480360381019061055191906135d4565b612376565b005b610572600480360381019061056d91906135d4565b612c3e565b60405161057f9190613ba7565b60405180910390f35b610590612c68565b60405161059d91906139f1565b60405180910390f35b6105ae612c8e565b6040516105bb91906139d6565b60405180910390f35b6105cc612cb4565b6040516105d991906139bb565b60405180910390f35b6105ea612cda565b6040516105f79190613bc2565b60405180910390f35b61061a600480360381019061061591906135fd565b612cf2565b6040516106279190613b8c565b60405180910390f35b610638612e2f565b6040516106459190613bc2565b60405180910390f35b600b818154811061065e57600080fd5b906000526020600020016000915090505481565b806000620186a0600454836106879190613dcb565b6106919190613d69565b90506008548110156106d8576040517f08c379a00000000000000000000000000000000000000000000000000000000081526004016106cf90613acc565b60405180910390fd5b60006106e386612086565b905060006106f18287612e49565b9050600a60008367ffffffffffffffff168152602001908152602001600020600701600082815260200190815260200160002060010160009054906101000a900473ffffffffffffffffffffffffffffffffffffffff1673ffffffffffffffffffffffffffffffffffffffff163373ffffffffffffffffffffffffffffffffffffffff1614156107b6576040517f08c379a00000000000000000000000000000000000000000000000000000000081526004016107ad90613b4c565b60405180910390fd5b60006107c28387611865565b905080600a60008567ffffffffffffffff1681526020019081526020016000206007016000848152602001908152602001600020600201546108049190613ca4565b600660009054906101000a900473ffffffffffffffffffffffffffffffffffffffff1673ffffffffffffffffffffffffffffffffffffffff1663dd62ed3e33306040518363ffffffff1660e01b8152600401610861929190613932565b60206040518083038186803b15801561087957600080fd5b505afa15801561088d573d6000803e3d6000fd5b505050506040513d601f19601f820116820180604052508101906108b191906135ab565b10156108f2576040517f08c379a00000000000000000000000000000000000000000000000000000000081526004016108e990613aec565b60405180910390fd5b600660009054906101000a900473ffffffffffffffffffffffffffffffffffffffff1673ffffffffffffffffffffffffffffffffffffffff166323b872dd333084600a60008967ffffffffffffffff1681526020019081526020016000206007016000888152602001908152602001600020600201546109729190613ca4565b6040518463ffffffff1660e01b81526004016109909392919061395b565b602060405180830381600087803b1580156109aa57600080fd5b505af11580156109be573d6000803e3d6000fd5b505050506040513d601f19601f820116820180604052508101906109e2919061350a565b5080600a60008567ffffffffffffffff16815260200190815260200160002060020154610a0f9190613ca4565b600a60008567ffffffffffffffff1681526020019081526020016000206002018190555060016002811115610a6d577f4e487b7100000000000000000000000000000000000000000000000000000000600052602160045260246000fd5b600a60008567ffffffffffffffff168152602001908152602001600020600701600084815260200190815260200160002060030160009054906101000a900460ff166002811115610ae7577f4e487b7100000000000000000000000000000000000000000000000000000000600052602160045260246000fd5b1415610cc8576000610b2d84600a60008767ffffffffffffffff168152602001908152602001600020600701600086815260200190815260200160002060020154611865565b9050600660009054906101000a900473ffffffffffffffffffffffffffffffffffffffff1673ffffffffffffffffffffffffffffffffffffffff1663a9059cbb600a60008767ffffffffffffffff168152602001908152602001600020600701600086815260200190815260200160002060010160009054906101000a900473ffffffffffffffffffffffffffffffffffffffff16600a60008867ffffffffffffffff16815260200190815260200160002060070160008781526020019081526020016000206002015484610c029190613ca4565b6040518363ffffffff1660e01b8152600401610c1f929190613992565b602060405180830381600087803b158015610c3957600080fd5b505af1158015610c4d573d6000803e3d6000fd5b505050506040513d601f19601f82011682018060405250810190610c71919061350a565b5080600a60008667ffffffffffffffff16815260200190815260200160002060020154610c9e9190613e25565b600a60008667ffffffffffffffff1681526020019081526020016000206002018190555050610d4c565b6001600a60008567ffffffffffffffff168152602001908152602001600020600701600084815260200190815260200160002060030160006101000a81548160ff02191690836002811115610d46577f4e487b7100000000000000000000000000000000000000000000000000000000600052602160045260246000fd5b02179055505b33600a60008567ffffffffffffffff168152602001908152602001600020600701600084815260200190815260200160002060010160006101000a81548173ffffffffffffffffffffffffffffffffffffffff021916908373ffffffffffffffffffffffffffffffffffffffff16021790555085600a60008567ffffffffffffffff1681526020019081526020016000206007016000848152602001908152602001600020600201819055507f1971c2bc6c1c3b3c45e5176a769c713f43492ad3c45a830be5a38d27dfa1c4cb8383604051610e29929190613bdd565b60405180910390a15050505050505050565b60026003811115610e75577f4e487b7100000000000000000000000000000000000000000000000000000000600052602160045260246000fd5b600a60008367ffffffffffffffff16815260200190815260200160002060050160009054906101000a900460ff166003811115610edb577f4e487b7100000000000000000000000000000000000000000000000000000000600052602160045260246000fd5b14610f1b576040517f08c379a0000000000000000000000000000000000000000000000000000000008152600401610f1290613b2c565b60405180910390fd5b6000610f46600a60008467ffffffffffffffff16815260200190815260200160002060010154611ccf565b9050600280811115610f81577f4e487b7100000000000000000000000000000000000000000000000000000000600052602160045260246000fd5b600a60008467ffffffffffffffff168152602001908152602001600020600701600083815260200190815260200160002060030160009054906101000a900460ff166002811115610ffb577f4e487b7100000000000000000000000000000000000000000000000000000000600052602160045260246000fd5b141561103c576040517f08c379a000000000000000000000000000000000000000000000000000000000815260040161103390613aac565b60405180910390fd5b600660009054906101000a900473ffffffffffffffffffffffffffffffffffffffff1673ffffffffffffffffffffffffffffffffffffffff1663a9059cbb600a60008567ffffffffffffffff168152602001908152602001600020600701600084815260200190815260200160002060010160009054906101000a900473ffffffffffffffffffffffffffffffffffffffff16600a60008667ffffffffffffffff168152602001908152602001600020600201546040518363ffffffff1660e01b815260040161110d929190613992565b602060405180830381600087803b15801561112757600080fd5b505af115801561113b573d6000803e3d6000fd5b505050506040513d601f19601f8201168201806040525081019061115f919061350a565b506002600a60008467ffffffffffffffff168152602001908152602001600020600701600083815260200190815260200160002060030160006101000a81548160ff021916908360028111156111de577f4e487b7100000000000000000000000000000000000000000000000000000000600052602160045260246000fd5b02179055507f1971c2bc6c1c3b3c45e5176a769c713f43492ad3c45a830be5a38d27dfa1c4cb8282604051611214929190613bdd565b60405180910390a15050565b806000620186a0600454836112359190613dcb565b61123f9190613d69565b9050600854811015611286576040517f08c379a000000000000000000000000000000000000000000000000000000000815260040161127d90613acc565b60405180910390fd5b600061129186612086565b9050600061129f8287612e49565b90503373ffffffffffffffffffffffffffffffffffffffff16600a60008467ffffffffffffffff168152602001908152602001600020600701600083815260200190815260200160002060010160009054906101000a900473ffffffffffffffffffffffffffffffffffffffff1673ffffffffffffffffffffffffffffffffffffffff1614611363576040517f08c379a000000000000000000000000000000000000000000000000000000000815260040161135a90613b0c565b60405180910390fd5b600061136f8387611865565b905060006113b184600a60008767ffffffffffffffff168152602001908152602001600020600701600086815260200190815260200160002060020154611865565b9050808211156115d25780826113c79190613e25565b600660009054906101000a900473ffffffffffffffffffffffffffffffffffffffff1673ffffffffffffffffffffffffffffffffffffffff1663dd62ed3e33306040518363ffffffff1660e01b8152600401611424929190613932565b60206040518083038186803b15801561143c57600080fd5b505afa158015611450573d6000803e3d6000fd5b505050506040513d601f19601f8201168201806040525081019061147491906135ab565b10156114b5576040517f08c379a00000000000000000000000000000000000000000000000000000000081526004016114ac90613aec565b60405180910390fd5b600660009054906101000a900473ffffffffffffffffffffffffffffffffffffffff1673ffffffffffffffffffffffffffffffffffffffff166323b872dd333084866115019190613e25565b6040518463ffffffff1660e01b815260040161151f9392919061395b565b602060405180830381600087803b15801561153957600080fd5b505af115801561154d573d6000803e3d6000fd5b505050506040513d601f19601f82011682018060405250810190611571919061350a565b50808261157e9190613e25565b600a60008667ffffffffffffffff168152602001908152602001600020600201546115a99190613ca4565b600a60008667ffffffffffffffff168152602001908152602001600020600201819055506116f2565b808210156116f157600660009054906101000a900473ffffffffffffffffffffffffffffffffffffffff1673ffffffffffffffffffffffffffffffffffffffff1663a9059cbb3384846116259190613e25565b6040518363ffffffff1660e01b8152600401611642929190613992565b602060405180830381600087803b15801561165c57600080fd5b505af1158015611670573d6000803e3d6000fd5b505050506040513d601f19601f82011682018060405250810190611694919061350a565b5081816116a19190613e25565b600a60008667ffffffffffffffff168152602001908152602001600020600201546116cc9190613e25565b600a60008667ffffffffffffffff168152602001908152602001600020600201819055505b5b86600a60008667ffffffffffffffff1681526020019081526020016000206007016000858152602001908152602001600020600201819055507f1971c2bc6c1c3b3c45e5176a769c713f43492ad3c45a830be5a38d27dfa1c4cb848460405161175c929190613bdd565b60405180910390a1505050505050505050565b60008060089054906101000a900467ffffffffffffffff1667ffffffffffffffff168267ffffffffffffffff16116117bf57600060089054906101000a900467ffffffffffffffff16905061180e565b60008054906101000a900467ffffffffffffffff16600060089054906101000a900467ffffffffffffffff16836117f69190613e8d565b6118009190614056565b8261180b9190613e8d565b90505b919050565b60085481565b60035481565b600760009054906101000a900473ffffffffffffffffffffffffffffffffffffffff1681565b60025481565b600060109054906101000a900467ffffffffffffffff1681565b6000804261189160008054906101000a900467ffffffffffffffff164261188c9190613cfa565b61176f565b67ffffffffffffffff166118a59190613e25565b905060008060009054906101000a900467ffffffffffffffff1667ffffffffffffffff16826009546118d79190613dcb565b6118e19190613d69565b905060006118ee86611c22565b90508067ffffffffffffffff16620186a06004548761190d9190613dcb565b6119179190613d69565b6119219190613dcb565b93506000620186a0600454876119379190613dcb565b6119419190613d69565b905060095483826119529190613dcb565b61195c9190613d69565b9050808561196a9190613ca4565b94505050505092915050565b6000600a60008367ffffffffffffffff168152602001908152602001600020600601805490509050919050565b600560009054906101000a900473ffffffffffffffffffffffffffffffffffffffff1673ffffffffffffffffffffffffffffffffffffffff16638da5cb5b6040518163ffffffff1660e01b815260040160206040518083038186803b158015611a0b57600080fd5b505afa158015611a1f573d6000803e3d6000fd5b505050506040513d601f19601f82011682018060405250810190611a4391906134e1565b73ffffffffffffffffffffffffffffffffffffffff163373ffffffffffffffffffffffffffffffffffffffff1614611ab0576040517f08c379a0000000000000000000000000000000000000000000000000000000008152600401611aa790613a2c565b60405180910390fd5b600660009054906101000a900473ffffffffffffffffffffffffffffffffffffffff1673ffffffffffffffffffffffffffffffffffffffff1663a9059cbb600560009054906101000a900473ffffffffffffffffffffffffffffffffffffffff1673ffffffffffffffffffffffffffffffffffffffff16638da5cb5b6040518163ffffffff1660e01b815260040160206040518083038186803b158015611b5657600080fd5b505afa158015611b6a573d6000803e3d6000fd5b505050506040513d601f19601f82011682018060405250810190611b8e91906134e1565b836040518363ffffffff1660e01b8152600401611bac929190613992565b602060405180830381600087803b158015611bc657600080fd5b505af1158015611bda573d6000803e3d6000fd5b505050506040513d601f19601f82011682018060405250810190611bfe919061350a565b5050565b600060089054906101000a900467ffffffffffffffff1681565b60045481565b6000600160008054906101000a900467ffffffffffffffff164284611c479190613e8d565b611c519190613d9a565b611c5b9190613cfa565b9050919050565b6000600a60008467ffffffffffffffff1681526020019081526020016000206006018281548110611cbc577f4e487b7100000000000000000000000000000000000000000000000000000000600052603260045260246000fd5b9060005260206000200154905092915050565b6000808211611ce2576002549050611d0d565b60025460025460025484611cf69190613d69565b611d009190613dcb565b611d0a9190613ca4565b90505b919050565b600080611d1e8561176f565b90506000611d2b85611ccf565b90506000611d398386611865565b905080600a60008567ffffffffffffffff168152602001908152602001600020600701600084815260200190815260200160002060020154611d7b9190613ca4565b93505050509392505050565b6000600b80549050905090565b600080611da04261176f565b905043600a60008367ffffffffffffffff16815260200190815260200160002060000160186101000a81548167ffffffffffffffff021916908367ffffffffffffffff160217905550600060189054906101000a900467ffffffffffffffff1660008054906101000a900467ffffffffffffffff1682611e209190613cfa565b611e2a9190613e8d565b67ffffffffffffffff164210158015611e6357506000600a60008367ffffffffffffffff16815260200190815260200160002060030154145b15611f4e57611e93600160009054906101000a900473ffffffffffffffffffffffffffffffffffffffff16612fa4565b8063ffffffff169050600a60008567ffffffffffffffff1681526020019081526020016000206003016000600a60008767ffffffffffffffff16815260200190815260200160002060000160088491906101000a81548167ffffffffffffffff021916908367ffffffffffffffff16021790555083965084919050555050507f7b82e6c3260c9e2f54af2895ca2e183fab07f3ff1cba1c9aa5b8b956897d933481604051611f419190613bc2565b60405180910390a1612082565b600060189054906101000a900467ffffffffffffffff1660008054906101000a900467ffffffffffffffff1682611f859190613cfa565b611f8f9190613e8d565b67ffffffffffffffff16421061208157611fca600160009054906101000a900473ffffffffffffffffffffffffffffffffffffffff16612fa4565b8063ffffffff169050600a60008567ffffffffffffffff1681526020019081526020016000206004016000600a60008767ffffffffffffffff16815260200190815260200160002060000160108491906101000a81548167ffffffffffffffff021916908367ffffffffffffffff16021790555083965084919050555050507f7b82e6c3260c9e2f54af2895ca2e183fab07f3ff1cba1c9aa5b8b956897d9334816040516120789190613bc2565b60405180910390a15b5b5050565b6000806120928361176f565b9050600060038111156120ce577f4e487b7100000000000000000000000000000000000000000000000000000000600052602160045260246000fd5b600a60008367ffffffffffffffff16815260200190815260200160002060050160009054906101000a900460ff166003811115612134577f4e487b7100000000000000000000000000000000000000000000000000000000600052602160045260246000fd5b1461214257809150506122c6565b61214b4261176f565b67ffffffffffffffff168167ffffffffffffffff1610156121a1576040517f08c379a000000000000000000000000000000000000000000000000000000000815260040161219890613a6c565b60405180910390fd5b80600a60008367ffffffffffffffff16815260200190815260200160002060000160006101000a81548167ffffffffffffffff021916908367ffffffffffffffff1602179055506001600a60008367ffffffffffffffff16815260200190815260200160002060050160006101000a81548160ff02191690836003811115612252577f4e487b7100000000000000000000000000000000000000000000000000000000600052602160045260246000fd5b0217905550600b81908060018154018082558091505060019003906000526020600020016000909167ffffffffffffffff169091909150557f7b82e6c3260c9e2f54af2895ca2e183fab07f3ff1cba1c9aa5b8b956897d9334816040516122b99190613bc2565b60405180910390a1809150505b919050565b600a6020528060005260406000206000915090508060000160009054906101000a900467ffffffffffffffff16908060000160089054906101000a900467ffffffffffffffff16908060000160109054906101000a900467ffffffffffffffff16908060000160189054906101000a900467ffffffffffffffff16908060010154908060020154908060030154908060040154908060050160009054906101000a900460ff16905089565b8067ffffffffffffffff166000600a6000838152602001908152602001600020600301541115806123be57506000600a60008381526020019081526020016000206004015411155b15612463576003600a600083815260200190815260200160002060050160006101000a81548160ff02191690836003811115612423577f4e487b7100000000000000000000000000000000000000000000000000000000600052602160045260246000fd5b02179055506040517f08c379a000000000000000000000000000000000000000000000000000000000815260040161245a90613a8c565b60405180910390fd5b600a600082815260200190815260200160002060040154600a6000838152602001908152602001600020600301541415612537576003600a600083815260200190815260200160002060050160006101000a81548160ff021916908360038111156124f7577f4e487b7100000000000000000000000000000000000000000000000000000000600052602160045260246000fd5b02179055506040517f08c379a000000000000000000000000000000000000000000000000000000000815260040161252e90613a8c565b60405180910390fd5b60016003811115612571577f4e487b7100000000000000000000000000000000000000000000000000000000600052602160045260246000fd5b600a60008467ffffffffffffffff16815260200190815260200160002060050160009054906101000a900460ff1660038111156125d7577f4e487b7100000000000000000000000000000000000000000000000000000000600052602160045260246000fd5b14612617576040517f08c379a000000000000000000000000000000000000000000000000000000000815260040161260e90613a4c565b60405180910390fd5b4260008054906101000a900467ffffffffffffffff16836126389190613cfa565b67ffffffffffffffff161115612683576040517f08c379a000000000000000000000000000000000000000000000000000000000815260040161267a90613a0c565b60405180910390fd5b6002600a60008467ffffffffffffffff16815260200190815260200160002060050160006101000a81548160ff021916908360038111156126ed577f4e487b7100000000000000000000000000000000000000000000000000000000600052602160045260246000fd5b02179055506000600a60008467ffffffffffffffff16815260200190815260200160002060030154600a60008567ffffffffffffffff168152602001908152602001600020600401546127409190613e25565b90506000600a60008567ffffffffffffffff16815260200190815260200160002060000160089054906101000a900467ffffffffffffffff16600a60008667ffffffffffffffff16815260200190815260200160002060000160109054906101000a900467ffffffffffffffff166127b89190613e8d565b67ffffffffffffffff1690506127fa6040518060200160405280847bffffffffffffffffffffffffffffffffffffffffffffffffffffffff16815250826131ff565b600001517bffffffffffffffffffffffffffffffffffffffffffffffffffffffff16600a60008667ffffffffffffffff168152602001908152602001600020600101819055507406d79f82328ea3da61e066ebb2f88a0000000000006070600a60008767ffffffffffffffff16815260200190815260200160002060010154901b6128859190613d69565b6009546070600a60008867ffffffffffffffff16815260200190815260200160002060010154901c6128b79190613dcb565b6128c19190613ca4565b600a60008667ffffffffffffffff168152602001908152602001600020600101819055506000620186a0600354600a60008867ffffffffffffffff168152602001908152602001600020600201546129199190613dcb565b6129239190613d69565b90506000620186a0600060109054906101000a900467ffffffffffffffff1667ffffffffffffffff16600a60008967ffffffffffffffff168152602001908152602001600020600201546129779190613dcb565b6129819190613d69565b90508082600a60008967ffffffffffffffff168152602001908152602001600020600201546129b09190613e25565b6129ba9190613e25565b600a60008867ffffffffffffffff16815260200190815260200160002060020181905550600660009054906101000a900473ffffffffffffffffffffffffffffffffffffffff1673ffffffffffffffffffffffffffffffffffffffff1663a9059cbb600760009054906101000a900473ffffffffffffffffffffffffffffffffffffffff16846040518363ffffffff1660e01b8152600401612a5d929190613992565b602060405180830381600087803b158015612a7757600080fd5b505af1158015612a8b573d6000803e3d6000fd5b505050506040513d601f19601f82011682018060405250810190612aaf919061350a565b50600660009054906101000a900473ffffffffffffffffffffffffffffffffffffffff1673ffffffffffffffffffffffffffffffffffffffff1663a9059cbb600560009054906101000a900473ffffffffffffffffffffffffffffffffffffffff1673ffffffffffffffffffffffffffffffffffffffff16638da5cb5b6040518163ffffffff1660e01b815260040160206040518083038186803b158015612b5657600080fd5b505afa158015612b6a573d6000803e3d6000fd5b505050506040513d601f19601f82011682018060405250810190612b8e91906134e1565b836040518363ffffffff1660e01b8152600401612bac929190613992565b602060405180830381600087803b158015612bc657600080fd5b505af1158015612bda573d6000803e3d6000fd5b505050506040513d601f19601f82011682018060405250810190612bfe919061350a565b507f7b82e6c3260c9e2f54af2895ca2e183fab07f3ff1cba1c9aa5b8b956897d933486604051612c2e9190613bc2565b60405180910390a1505050505050565b6000600a60008367ffffffffffffffff168152602001908152602001600020600201549050919050565b600560009054906101000a900473ffffffffffffffffffffffffffffffffffffffff1681565b600160009054906101000a900473ffffffffffffffffffffffffffffffffffffffff1681565b600660009054906101000a900473ffffffffffffffffffffffffffffffffffffffff1681565b60008054906101000a900467ffffffffffffffff1681565b612cfa6133a7565b600a60008467ffffffffffffffff1681526020019081526020016000206007016000838152602001908152602001600020604051806080016040529081600082015481526020016001820160009054906101000a900473ffffffffffffffffffffffffffffffffffffffff1673ffffffffffffffffffffffffffffffffffffffff1673ffffffffffffffffffffffffffffffffffffffff168152602001600282015481526020016003820160009054906101000a900460ff166002811115612deb577f4e487b7100000000000000000000000000000000000000000000000000000000600052602160045260246000fd5b6002811115612e23577f4e487b7100000000000000000000000000000000000000000000000000000000600052602160045260246000fd5b81525050905092915050565b600060189054906101000a900467ffffffffffffffff1681565b600080612e5583611ccf565b905060006002811115612e91577f4e487b7100000000000000000000000000000000000000000000000000000000600052602160045260246000fd5b600a60008667ffffffffffffffff168152602001908152602001600020600701600083815260200190815260200160002060030160009054906101000a900460ff166002811115612f0b577f4e487b7100000000000000000000000000000000000000000000000000000000600052602160045260246000fd5b14612f195780915050612f9e565b80600a60008667ffffffffffffffff168152602001908152602001600020600701600083815260200190815260200160002060000181905550600a60008567ffffffffffffffff168152602001908152602001600020600601819080600181540180825580915050600190039060005260206000200160009091909190915055809150505b92915050565b6000806000612fb16132af565b90508373ffffffffffffffffffffffffffffffffffffffff16635909c0d56040518163ffffffff1660e01b815260040160206040518083038186803b158015612ff957600080fd5b505afa15801561300d573d6000803e3d6000fd5b505050506040513d601f19601f8201168201806040525081019061303191906135ab565b92508373ffffffffffffffffffffffffffffffffffffffff16635a3d54936040518163ffffffff1660e01b815260040160206040518083038186803b15801561307957600080fd5b505afa15801561308d573d6000803e3d6000fd5b505050506040513d601f19601f820116820180604052508101906130b191906135ab565b915060008060008673ffffffffffffffffffffffffffffffffffffffff16630902f1ac6040518163ffffffff1660e01b815260040160606040518083038186803b1580156130fe57600080fd5b505afa158015613112573d6000803e3d6000fd5b505050506040513d601f19601f820116820180604052508101906131369190613533565b9250925092508363ffffffff168163ffffffff16146131f5576000818561315d9190613e59565b90508063ffffffff1661317084866132c7565b600001517bffffffffffffffffffffffffffffffffffffffffffffffffffffffff1661319c9190613dcb565b876131a79190613ca4565b96508063ffffffff166131ba85856132c7565b600001517bffffffffffffffffffffffffffffffffffffffffffffffffffffffff166131e69190613dcb565b866131f19190613ca4565b9550505b5050509193909250565b61320761341d565b6000826dffffffffffffffffffffffffffff16141561325b576040517f08c379a000000000000000000000000000000000000000000000000000000000815260040161325290613b6c565b60405180910390fd5b6040518060200160405280836dffffffffffffffffffffffffffff1685600001516132869190613d38565b7bffffffffffffffffffffffffffffffffffffffffffffffffffffffff16815250905092915050565b6000640100000000426132c29190614025565b905090565b6132cf61341d565b6000826dffffffffffffffffffffffffffff1611613322576040517f08c379a000000000000000000000000000000000000000000000000000000000815260040161331990613b6c565b60405180910390fd5b6040518060200160405280836dffffffffffffffffffffffffffff16607060ff16866dffffffffffffffffffffffffffff167bffffffffffffffffffffffffffffffffffffffffffffffffffffffff16901b61337e9190613d38565b7bffffffffffffffffffffffffffffffffffffffffffffffffffffffff16815250905092915050565b604051806080016040528060008152602001600073ffffffffffffffffffffffffffffffffffffffff1681526020016000815260200160006002811115613417577f4e487b7100000000000000000000000000000000000000000000000000000000600052602160045260246000fd5b81525090565b604051806020016040528060007bffffffffffffffffffffffffffffffffffffffffffffffffffffffff1681525090565b60008151905061345d81614328565b92915050565b6000815190506134728161433f565b92915050565b60008151905061348781614356565b92915050565b60008135905061349c8161436d565b92915050565b6000815190506134b18161436d565b92915050565b6000815190506134c681614384565b92915050565b6000813590506134db8161439b565b92915050565b6000602082840312156134f357600080fd5b60006135018482850161344e565b91505092915050565b60006020828403121561351c57600080fd5b600061352a84828501613463565b91505092915050565b60008060006060848603121561354857600080fd5b600061355686828701613478565b935050602061356786828701613478565b9250506040613578868287016134b7565b9150509250925092565b60006020828403121561359457600080fd5b60006135a28482850161348d565b91505092915050565b6000602082840312156135bd57600080fd5b60006135cb848285016134a2565b91505092915050565b6000602082840312156135e657600080fd5b60006135f4848285016134cc565b91505092915050565b6000806040838503121561361057600080fd5b600061361e858286016134cc565b925050602061362f8582860161348d565b9150509250929050565b60008060006060848603121561364e57600080fd5b600061365c868287016134cc565b935050602061366d8682870161348d565b925050604061367e8682870161348d565b9150509250925092565b61369181613ec1565b82525050565b6136a081613ec1565b82525050565b6136af81613f95565b82525050565b6136be81613fb9565b82525050565b6136cd81613fdd565b82525050565b6136dc81614001565b82525050565b6136eb81614013565b82525050565b60006136fe601a83613c93565b915061370982614114565b602082019050919050565b6000613721601583613c93565b915061372c8261413d565b602082019050919050565b6000613744601083613c93565b915061374f82614166565b602082019050919050565b6000613767601a83613c93565b91506137728261418f565b602082019050919050565b600061378a601383613c93565b9150613795826141b8565b602082019050919050565b60006137ad601383613c93565b91506137b8826141e1565b602082019050919050565b60006137d0601083613c93565b91506137db8261420a565b602082019050919050565b60006137f3601983613c93565b91506137fe82614233565b602082019050919050565b6000613816601183613c93565b91506138218261425c565b602082019050919050565b6000613839601083613c93565b915061384482614285565b602082019050919050565b600061385c601f83613c93565b9150613867826142ae565b602082019050919050565b600061387f601783613c93565b915061388a826142d7565b602082019050919050565b6080820160008201516138ab60008501826138ea565b5060208201516138be6020850182613688565b5060408201516138d160408501826138ea565b5060608201516138e460608501826136e2565b50505050565b6138f381613f67565b82525050565b61390281613f67565b82525050565b61391181613f81565b82525050565b600060208201905061392c6000830184613697565b92915050565b60006040820190506139476000830185613697565b6139546020830184613697565b9392505050565b60006060820190506139706000830186613697565b61397d6020830185613697565b61398a60408301846138f9565b949350505050565b60006040820190506139a76000830185613697565b6139b460208301846138f9565b9392505050565b60006020820190506139d060008301846136a6565b92915050565b60006020820190506139eb60008301846136b5565b92915050565b6000602082019050613a0660008301846136c4565b92915050565b60006020820190508181036000830152613a25816136f1565b9050919050565b60006020820190508181036000830152613a4581613714565b9050919050565b60006020820190508181036000830152613a6581613737565b9050919050565b60006020820190508181036000830152613a858161375a565b9050919050565b60006020820190508181036000830152613aa58161377d565b9050919050565b60006020820190508181036000830152613ac5816137a0565b9050919050565b60006020820190508181036000830152613ae5816137c3565b9050919050565b60006020820190508181036000830152613b05816137e6565b9050919050565b60006020820190508181036000830152613b2581613809565b9050919050565b60006020820190508181036000830152613b458161382c565b9050919050565b60006020820190508181036000830152613b658161384f565b9050919050565b60006020820190508181036000830152613b8581613872565b9050919050565b6000608082019050613ba16000830184613895565b92915050565b6000602082019050613bbc60008301846138f9565b92915050565b6000602082019050613bd76000830184613908565b92915050565b6000604082019050613bf26000830185613908565b613bff60208301846138f9565b9392505050565b600061012082019050613c1c600083018c613908565b613c29602083018b613908565b613c36604083018a613908565b613c436060830189613908565b613c5060808301886138f9565b613c5d60a08301876138f9565b613c6a60c08301866138f9565b613c7760e08301856138f9565b613c856101008301846136d3565b9a9950505050505050505050565b600082825260208201905092915050565b6000613caf82613f67565b9150613cba83613f67565b9250827fffffffffffffffffffffffffffffffffffffffffffffffffffffffffffffffff03821115613cef57613cee614087565b5b828201905092915050565b6000613d0582613f81565b9150613d1083613f81565b92508267ffffffffffffffff03821115613d2d57613d2c614087565b5b828201905092915050565b6000613d4382613f3f565b9150613d4e83613f3f565b925082613d5e57613d5d6140b6565b5b828204905092915050565b6000613d7482613f67565b9150613d7f83613f67565b925082613d8f57613d8e6140b6565b5b828204905092915050565b6000613da582613f81565b9150613db083613f81565b925082613dc057613dbf6140b6565b5b828204905092915050565b6000613dd682613f67565b9150613de183613f67565b9250817fffffffffffffffffffffffffffffffffffffffffffffffffffffffffffffffff0483118215151615613e1a57613e19614087565b5b828202905092915050565b6000613e3082613f67565b9150613e3b83613f67565b925082821015613e4e57613e4d614087565b5b828203905092915050565b6000613e6482613f71565b9150613e6f83613f71565b925082821015613e8257613e81614087565b5b828203905092915050565b6000613e9882613f81565b9150613ea383613f81565b925082821015613eb657613eb5614087565b5b828203905092915050565b6000613ecc82613f1f565b9050919050565b60008115159050919050565b6000819050613eed82614300565b919050565b6000819050613f0082614314565b919050565b60006dffffffffffffffffffffffffffff82169050919050565b600073ffffffffffffffffffffffffffffffffffffffff82169050919050565b60007bffffffffffffffffffffffffffffffffffffffffffffffffffffffff82169050919050565b6000819050919050565b600063ffffffff82169050919050565b600067ffffffffffffffff82169050919050565b6000613fa082613fa7565b9050919050565b6000613fb282613f1f565b9050919050565b6000613fc482613fcb565b9050919050565b6000613fd682613f1f565b9050919050565b6000613fe882613fef565b9050919050565b6000613ffa82613f1f565b9050919050565b600061400c82613edf565b9050919050565b600061401e82613ef2565b9050919050565b600061403082613f67565b915061403b83613f67565b92508261404b5761404a6140b6565b5b828206905092915050565b600061406182613f81565b915061406c83613f81565b92508261407c5761407b6140b6565b5b828206905092915050565b7f4e487b7100000000000000000000000000000000000000000000000000000000600052601160045260246000fd5b7f4e487b7100000000000000000000000000000000000000000000000000000000600052601260045260246000fd5b7f4e487b7100000000000000000000000000000000000000000000000000000000600052602160045260246000fd5b7f4652414d4520454e442054494d45204e4f542052454143484544000000000000600082015250565b7f4e4f542054484520464143544f5259204f574e45520000000000000000000000600082015250565b7f4652414d45204e4f54204f50454e454400000000000000000000000000000000600082015250565b7f43414e275420435245415445204652414d4520494e2050415354000000000000600082015250565b7f494e56414c4944204652414d4520505249434500000000000000000000000000600082015250565b7f4c4f5420414c524541445920534554544c454400000000000000000000000000600082015250565b7f505249434520495320544f4f204c4f5700000000000000000000000000000000600082015250565b7f415050524f56454420414d4f554e5420544f4f20534d414c4c00000000000000600082015250565b7f4d555354204245204c4f54204f574e4552000000000000000000000000000000600082015250565b7f4652414d45204e4f5420434c4f53454400000000000000000000000000000000600082015250565b7f4144445245535320414c5245414459204f574e53205448452050415243454c00600082015250565b7f4669786564506f696e743a204449565f42595f5a45524f000000000000000000600082015250565b60048110614311576143106140e5565b5b50565b60038110614325576143246140e5565b5b50565b61433181613ec1565b811461433c57600080fd5b50565b61434881613ed3565b811461435357600080fd5b50565b61435f81613f05565b811461436a57600080fd5b50565b61437681613f67565b811461438157600080fd5b50565b61438d81613f71565b811461439857600080fd5b50565b6143a481613f81565b81146143af57600080fd5b5056fea2646970667358221220f52bfa1575be7f56379f861c130a45e78e91a1734732b268f8b96b5e0f1aa07464736f6c63430008040033",
  "linkReferences": {},
  "deployedLinkReferences": {}
}