{
  "_format": "hh-sol-artifact-1",
  "contractName": "Market",
  "sourceName": "contracts/Market.sol",
  "abi": [
    {
      "inputs": [
        {
          "internalType": "contract MarketFactory",
          "name": "_factory",
          "type": "address"
        },
        {
          "internalType": "contract IERC20",
          "name": "_token",
          "type": "address"
        },
        {
          "internalType": "contract IUniswapV2Pair",
          "name": "_uniswapPair",
          "type": "address"
        },
        {
          "internalType": "uint256",
          "name": "_period",
          "type": "uint256"
        },
        {
          "internalType": "uint256",
          "name": "_initTimestamp",
          "type": "uint256"
        },
        {
          "internalType": "uint256",
          "name": "_taxMarket",
          "type": "uint256"
        },
        {
          "internalType": "uint256",
          "name": "_feeMarket",
          "type": "uint256"
        },
        {
          "internalType": "uint256",
          "name": "_dPrice",
          "type": "uint256"
        },
        {
          "internalType": "uint256",
          "name": "_tReporting",
          "type": "uint256"
        },
        {
          "internalType": "uint256",
          "name": "_minTax",
          "type": "uint256"
        }
      ],
      "stateMutability": "nonpayable",
      "type": "constructor"
    },
    {
      "anonymous": false,
      "inputs": [
        {
          "indexed": false,
          "internalType": "uint256",
          "name": "frameKey",
          "type": "uint256"
        },
        {
          "indexed": false,
          "internalType": "uint256",
          "name": "oracleTimestampStart",
          "type": "uint256"
        },
        {
          "indexed": false,
          "internalType": "uint256",
          "name": "oracleTimestampEnd",
          "type": "uint256"
        },
        {
          "indexed": false,
          "internalType": "uint256",
          "name": "oraclePrice0CumulativeStart",
          "type": "uint256"
        },
        {
          "indexed": false,
          "internalType": "uint256",
          "name": "oraclePrice0CumulativeEnd",
          "type": "uint256"
        },
        {
          "indexed": false,
          "internalType": "uint256",
          "name": "rewardFund",
          "type": "uint256"
        }
      ],
      "name": "FrameUpdate",
      "type": "event"
    },
    {
      "anonymous": false,
      "inputs": [
        {
          "indexed": false,
          "internalType": "uint256",
          "name": "frameKey",
          "type": "uint256"
        },
        {
          "components": [
            {
              "internalType": "uint256",
              "name": "lotKey",
              "type": "uint256"
            },
            {
              "internalType": "address",
              "name": "lotOwner",
              "type": "address"
            },
            {
              "internalType": "uint256",
              "name": "acquisitionPrice",
              "type": "uint256"
            },
            {
              "internalType": "enum Market.SLot",
              "name": "state",
              "type": "uint8"
            }
          ],
          "indexed": false,
          "internalType": "struct Market.Lot",
          "name": "lotStruct",
          "type": "tuple"
        }
      ],
      "name": "LotUpdate",
      "type": "event"
    },
    {
      "inputs": [],
      "name": "accountingToken",
      "outputs": [
        {
          "internalType": "contract IERC20",
          "name": "",
          "type": "address"
        }
      ],
      "stateMutability": "view",
      "type": "function"
    },
    {
      "inputs": [
        {
          "internalType": "uint256",
          "name": "timestamp",
          "type": "uint256"
        },
        {
          "internalType": "uint256",
          "name": "pairPrice",
          "type": "uint256"
        },
        {
          "internalType": "uint256",
          "name": "acqPrice",
          "type": "uint256"
        }
      ],
      "name": "buyLot",
      "outputs": [],
      "stateMutability": "nonpayable",
      "type": "function"
    },
    {
      "inputs": [
        {
          "internalType": "uint256",
          "name": "frameKey",
          "type": "uint256"
        }
      ],
      "name": "claimReward",
      "outputs": [],
      "stateMutability": "nonpayable",
      "type": "function"
    },
    {
      "inputs": [
        {
          "internalType": "uint256",
          "name": "timestamp",
          "type": "uint256"
        },
        {
          "internalType": "uint256",
          "name": "pairPrice",
          "type": "uint256"
        },
        {
          "internalType": "uint256",
          "name": "acqPrice",
          "type": "uint256"
        }
      ],
      "name": "clcAmountToApprove",
      "outputs": [
        {
          "internalType": "uint256",
          "name": "cmpltAmnt",
          "type": "uint256"
        }
      ],
      "stateMutability": "view",
      "type": "function"
    },
    {
      "inputs": [
        {
          "internalType": "uint256",
          "name": "timestamp",
          "type": "uint256"
        },
        {
          "internalType": "uint256",
          "name": "pairPrice",
          "type": "uint256"
        },
        {
          "internalType": "uint256",
          "name": "acqPrice",
          "type": "uint256"
        }
      ],
      "name": "clcAmountToApproveForUpdate",
      "outputs": [
        {
          "internalType": "uint256",
          "name": "amnt",
          "type": "uint256"
        }
      ],
      "stateMutability": "view",
      "type": "function"
    },
    {
      "inputs": [
        {
          "internalType": "uint256",
          "name": "timestamp",
          "type": "uint256"
        }
      ],
      "name": "clcFrameTimestamp",
      "outputs": [
        {
          "internalType": "uint256",
          "name": "",
          "type": "uint256"
        }
      ],
      "stateMutability": "view",
      "type": "function"
    },
    {
      "inputs": [
        {
          "internalType": "uint256",
          "name": "value",
          "type": "uint256"
        }
      ],
      "name": "clcLotInterval",
      "outputs": [
        {
          "internalType": "uint256",
          "name": "",
          "type": "uint256"
        }
      ],
      "stateMutability": "view",
      "type": "function"
    },
    {
      "inputs": [
        {
          "internalType": "uint256",
          "name": "frameKey",
          "type": "uint256"
        }
      ],
      "name": "clcPrice",
      "outputs": [
        {
          "internalType": "uint256",
          "name": "avgPrice",
          "type": "uint256"
        }
      ],
      "stateMutability": "view",
      "type": "function"
    },
    {
      "inputs": [
        {
          "internalType": "uint256",
          "name": "frameKey",
          "type": "uint256"
        }
      ],
      "name": "closeFrame",
      "outputs": [],
      "stateMutability": "nonpayable",
      "type": "function"
    },
    {
      "inputs": [],
      "name": "dPrice",
      "outputs": [
        {
          "internalType": "uint256",
          "name": "",
          "type": "uint256"
        }
      ],
      "stateMutability": "view",
      "type": "function"
    },
    {
      "inputs": [
        {
          "internalType": "uint256",
          "name": "amount",
          "type": "uint256"
        }
      ],
      "name": "emptyFunds",
      "outputs": [],
      "stateMutability": "nonpayable",
      "type": "function"
    },
    {
      "inputs": [],
      "name": "factory",
      "outputs": [
        {
          "internalType": "contract MarketFactory",
          "name": "",
          "type": "address"
        }
      ],
      "stateMutability": "view",
      "type": "function"
    },
    {
      "inputs": [],
      "name": "feeMarket",
      "outputs": [
        {
          "internalType": "uint256",
          "name": "",
          "type": "uint256"
        }
      ],
      "stateMutability": "view",
      "type": "function"
    },
    {
      "inputs": [],
      "name": "feeProtocol",
      "outputs": [
        {
          "internalType": "uint256",
          "name": "",
          "type": "uint256"
        }
      ],
      "stateMutability": "view",
      "type": "function"
    },
    {
      "inputs": [
        {
          "internalType": "uint256",
          "name": "",
          "type": "uint256"
        }
      ],
      "name": "frames",
      "outputs": [
        {
          "internalType": "uint256",
          "name": "frameKey",
          "type": "uint256"
        },
        {
          "internalType": "uint256",
          "name": "oracleTimestampStart",
          "type": "uint256"
        },
        {
          "internalType": "uint256",
          "name": "oracleTimestampEnd",
          "type": "uint256"
        },
        {
          "internalType": "uint256",
          "name": "priceAverage",
          "type": "uint256"
        },
        {
          "internalType": "uint256",
          "name": "rewardFund",
          "type": "uint256"
        },
        {
          "internalType": "uint256",
          "name": "oraclePrice0CumulativeStart",
          "type": "uint256"
        },
        {
          "internalType": "uint256",
          "name": "oraclePrice0CumulativeEnd",
          "type": "uint256"
        },
        {
          "internalType": "enum Market.SFrame",
          "name": "state",
          "type": "uint8"
        }
      ],
      "stateMutability": "view",
      "type": "function"
    },
    {
      "inputs": [
        {
          "internalType": "uint256",
          "name": "",
          "type": "uint256"
        }
      ],
      "name": "framesKeys",
      "outputs": [
        {
          "internalType": "uint256",
          "name": "",
          "type": "uint256"
        }
      ],
      "stateMutability": "view",
      "type": "function"
    },
    {
      "inputs": [
        {
          "internalType": "uint256",
          "name": "frameKey",
          "type": "uint256"
        }
      ],
      "name": "getFramePrice",
      "outputs": [
        {
          "internalType": "uint256",
          "name": "",
          "type": "uint256"
        },
        {
          "internalType": "uint256",
          "name": "",
          "type": "uint256"
        }
      ],
      "stateMutability": "view",
      "type": "function"
    },
    {
      "inputs": [
        {
          "internalType": "uint256",
          "name": "frameKey",
          "type": "uint256"
        },
        {
          "internalType": "uint256",
          "name": "lotKey",
          "type": "uint256"
        }
      ],
      "name": "getLot",
      "outputs": [
        {
          "components": [
            {
              "internalType": "uint256",
              "name": "lotKey",
              "type": "uint256"
            },
            {
              "internalType": "address",
              "name": "lotOwner",
              "type": "address"
            },
            {
              "internalType": "uint256",
              "name": "acquisitionPrice",
              "type": "uint256"
            },
            {
              "internalType": "enum Market.SLot",
              "name": "state",
              "type": "uint8"
            }
          ],
          "internalType": "struct Market.Lot",
          "name": "",
          "type": "tuple"
        }
      ],
      "stateMutability": "view",
      "type": "function"
    },
    {
      "inputs": [
        {
          "internalType": "uint256",
          "name": "frameKey",
          "type": "uint256"
        },
        {
          "internalType": "uint256",
          "name": "index",
          "type": "uint256"
        }
      ],
      "name": "getLotKey",
      "outputs": [
        {
          "internalType": "uint256",
          "name": "",
          "type": "uint256"
        }
      ],
      "stateMutability": "view",
      "type": "function"
    },
    {
      "inputs": [
        {
          "internalType": "uint256",
          "name": "frameKey",
          "type": "uint256"
        }
      ],
      "name": "getLotsCount",
      "outputs": [
        {
          "internalType": "uint256",
          "name": "",
          "type": "uint256"
        }
      ],
      "stateMutability": "view",
      "type": "function"
    },
    {
      "inputs": [
        {
          "internalType": "address",
          "name": "user",
          "type": "address"
        }
      ],
      "name": "getNumOfUserFrames",
      "outputs": [
        {
          "internalType": "uint256",
          "name": "",
          "type": "uint256"
        }
      ],
      "stateMutability": "view",
      "type": "function"
    },
    {
      "inputs": [],
      "name": "getNumberOfFrameKeys",
      "outputs": [
        {
          "internalType": "uint256",
          "name": "",
          "type": "uint256"
        }
      ],
      "stateMutability": "view",
      "type": "function"
    },
    {
      "inputs": [
        {
          "internalType": "uint256",
          "name": "startFrame",
          "type": "uint256"
        },
        {
          "internalType": "uint256",
          "name": "numOfFrames",
          "type": "uint256"
        }
      ],
      "name": "getOpenFrameKeys",
      "outputs": [
        {
          "internalType": "uint256[]",
          "name": "",
          "type": "uint256[]"
        }
      ],
      "stateMutability": "view",
      "type": "function"
    },
    {
      "inputs": [
        {
          "internalType": "uint256",
          "name": "frameKey",
          "type": "uint256"
        }
      ],
      "name": "getRewardAmount",
      "outputs": [
        {
          "internalType": "uint256",
          "name": "",
          "type": "uint256"
        }
      ],
      "stateMutability": "view",
      "type": "function"
    },
    {
      "inputs": [
        {
          "internalType": "address",
          "name": "user",
          "type": "address"
        }
      ],
      "name": "getUserFrames",
      "outputs": [
        {
          "internalType": "uint256[]",
          "name": "",
          "type": "uint256[]"
        }
      ],
      "stateMutability": "view",
      "type": "function"
    },
    {
      "inputs": [],
      "name": "initTimestamp",
      "outputs": [
        {
          "internalType": "uint256",
          "name": "",
          "type": "uint256"
        }
      ],
      "stateMutability": "view",
      "type": "function"
    },
    {
      "inputs": [],
      "name": "minTax",
      "outputs": [
        {
          "internalType": "uint256",
          "name": "",
          "type": "uint256"
        }
      ],
      "stateMutability": "view",
      "type": "function"
    },
    {
      "inputs": [],
      "name": "ownerMarket",
      "outputs": [
        {
          "internalType": "address",
          "name": "",
          "type": "address"
        }
      ],
      "stateMutability": "view",
      "type": "function"
    },
    {
      "inputs": [],
      "name": "period",
      "outputs": [
        {
          "internalType": "uint256",
          "name": "",
          "type": "uint256"
        }
      ],
      "stateMutability": "view",
      "type": "function"
    },
    {
      "inputs": [],
      "name": "tReporting",
      "outputs": [
        {
          "internalType": "uint256",
          "name": "",
          "type": "uint256"
        }
      ],
      "stateMutability": "view",
      "type": "function"
    },
    {
      "inputs": [],
      "name": "taxMarket",
      "outputs": [
        {
          "internalType": "uint256",
          "name": "",
          "type": "uint256"
        }
      ],
      "stateMutability": "view",
      "type": "function"
    },
    {
      "inputs": [],
      "name": "uniswapPair",
      "outputs": [
        {
          "internalType": "contract IUniswapV2Pair",
          "name": "",
          "type": "address"
        }
      ],
      "stateMutability": "view",
      "type": "function"
    },
    {
      "inputs": [],
      "name": "updateFramePrices",
      "outputs": [],
      "stateMutability": "nonpayable",
      "type": "function"
    },
    {
      "inputs": [
        {
          "internalType": "uint256",
          "name": "timestamp",
          "type": "uint256"
        },
        {
          "internalType": "uint256",
          "name": "pairPrice",
          "type": "uint256"
        },
        {
          "internalType": "uint256",
          "name": "acqPrice",
          "type": "uint256"
        }
      ],
      "name": "updateLotPrice",
      "outputs": [],
      "stateMutability": "nonpayable",
      "type": "function"
    },
    {
      "inputs": [
        {
          "internalType": "address",
          "name": "",
          "type": "address"
        },
        {
          "internalType": "uint256",
          "name": "",
          "type": "uint256"
        }
      ],
      "name": "userFrames",
      "outputs": [
        {
          "internalType": "uint256",
          "name": "",
          "type": "uint256"
        }
      ],
      "stateMutability": "view",
      "type": "function"
    }
  ],
  "bytecode": "0x6080604052606460025569d3c21bcecceda1000000600c553480156200002457600080fd5b50604051620048913803806200489183398181016040528101906200004a9190620001eb565b88600960006101000a81548173ffffffffffffffffffffffffffffffffffffffff021916908373ffffffffffffffffffffffffffffffffffffffff16021790555033600a60006101000a81548173ffffffffffffffffffffffffffffffffffffffff021916908373ffffffffffffffffffffffffffffffffffffffff1602179055508660008190555085600181905550846007819055508360068190555087600460006101000a81548173ffffffffffffffffffffffffffffffffffffffff021916908373ffffffffffffffffffffffffffffffffffffffff1602179055508260058190555089600860006101000a81548173ffffffffffffffffffffffffffffffffffffffff021916908373ffffffffffffffffffffffffffffffffffffffff1602179055508160038190555080600b8190555050505050505050505050620003bd565b600081519050620001a08162000355565b92915050565b600081519050620001b7816200036f565b92915050565b600081519050620001ce8162000389565b92915050565b600081519050620001e581620003a3565b92915050565b6000806000806000806000806000806101408b8d0312156200020c57600080fd5b60006200021c8d828e01620001bd565b9a505060206200022f8d828e016200018f565b9950506040620002428d828e01620001a6565b9850506060620002558d828e01620001d4565b9750506080620002688d828e01620001d4565b96505060a06200027b8d828e01620001d4565b95505060c06200028e8d828e01620001d4565b94505060e0620002a18d828e01620001d4565b935050610100620002b58d828e01620001d4565b925050610120620002c98d828e01620001d4565b9150509295989b9194979a5092959850565b6000620002e8826200032b565b9050919050565b6000620002fc82620002db565b9050919050565b60006200031082620002db565b9050919050565b60006200032482620002db565b9050919050565b600073ffffffffffffffffffffffffffffffffffffffff82169050919050565b6000819050919050565b6200036081620002ef565b81146200036c57600080fd5b50565b6200037a8162000303565b81146200038657600080fd5b50565b620003948162000317565b8114620003a057600080fd5b50565b620003ae816200034b565b8114620003ba57600080fd5b50565b6144c480620003cd6000396000f3fe608060405234801561001057600080fd5b50600436106102115760003560e01c80637e99663911610125578063ae169a50116100ad578063c84993af1161007c578063c84993af14610694578063da68cf8b146106c4578063ef78d4fd146106e2578063fc95070214610700578063ff5c86b01461071c57610211565b8063ae169a5014610620578063bb15d2dd1461063c578063c45a015514610658578063c816841b1461067657610211565b80639495833c116100f45780639495833c1461054e578063950292e81461057e57806396b2c6f3146105af578063a10340bc146105b9578063a4d246ff146105f057610211565b80637e996639146104b2578063830ab119146104d0578063888bdbcd1461050057806389da88a31461053057610211565b806341a8b6f8116101a85780635b3ad63e116101775780635b3ad63e146103e857806360f65c60146104185780636f1aefc3146104485780636f7cb60b146104785780637358c57a1461049457610211565b806341a8b6f81461035e578063450847751461038e578063499a0fc4146103ac578063527eb4bc146103ca57610211565b80633c80d8ea116101e45780633c80d8ea146102d65780633d09a82a146102f25780633e16bc2014610310578063410f07101461034057610211565b8063050e8840146102165780630ef192731461024657806314aa5a99146102765780633656d5ee146102a6575b600080fd5b610230600480360381019061022b9190613452565b61073a565b60405161023d9190613b9d565b60405180910390f35b610260600480360381019061025b919061334c565b61075e565b60405161026d9190613b9d565b60405180910390f35b610290600480360381019061028b91906134a4565b6107aa565b60405161029d919061396f565b60405180910390f35b6102c060048036038101906102bb91906134e0565b610947565b6040516102cd9190613b9d565b60405180910390f35b6102f060048036038101906102eb91906134e0565b6109d2565b005b6102fa61129d565b6040516103079190613b9d565b60405180910390f35b61032a600480360381019061032591906134a4565b6112a3565b6040516103379190613b9d565b60405180910390f35b610348611306565b6040516103559190613b9d565b60405180910390f35b61037860048036038101906103739190613452565b61130c565b6040516103859190613b9d565b60405180910390f35b610396611486565b6040516103a391906138cb565b60405180910390f35b6103b46114ac565b6040516103c19190613b9d565b60405180910390f35b6103d26114b2565b6040516103df9190613b9d565b60405180910390f35b61040260048036038101906103fd9190613452565b6114b8565b60405161040f9190613b9d565b60405180910390f35b610432600480360381019061042d919061339e565b6114fb565b60405161043f9190613b9d565b60405180910390f35b610462600480360381019061045d91906134a4565b61152c565b60405161046f9190613b82565b60405180910390f35b610492600480360381019061048d9190613452565b61165f565b005b61049c6118be565b6040516104a99190613b9d565b60405180910390f35b6104ba6118c4565b6040516104c79190613b9d565b60405180910390f35b6104ea60048036038101906104e59190613452565b6118ca565b6040516104f79190613b9d565b60405180910390f35b61051a60048036038101906105159190613452565b6118ed565b6040516105279190613b9d565b60405180910390f35b610538611923565b6040516105459190613b9d565b60405180910390f35b6105686004803603810190610563919061334c565b611930565b604051610575919061396f565b60405180910390f35b61059860048036038101906105939190613452565b6119c7565b6040516105a6929190613be1565b60405180910390f35b6105b7611a01565b005b6105d360048036038101906105ce9190613452565b611e0b565b6040516105e7989796959493929190613c6b565b60405180910390f35b61060a600480360381019061060591906134e0565b611e60565b6040516106179190613b9d565b60405180910390f35b61063a60048036038101906106359190613452565b611f16565b005b610656600480360381019061065191906134e0565b611f2b565b005b6106606124ad565b60405161066d91906139c7565b60405180910390f35b61067e6124d3565b60405161068b91906139ac565b60405180910390f35b6106ae60048036038101906106a99190613452565b6124f9565b6040516106bb9190613b9d565b60405180910390f35b6106cc612519565b6040516106d99190613991565b60405180910390f35b6106ea61253f565b6040516106f79190613b9d565b60405180910390f35b61071a60048036038101906107159190613452565b612545565b005b610724612a1f565b6040516107319190613b9d565b60405180910390f35b600f818154811061074a57600080fd5b906000526020600020016000915090505481565b6000600e60008373ffffffffffffffffffffffffffffffffffffffff1673ffffffffffffffffffffffffffffffffffffffff168152602001908152602001600020805490509050919050565b606060008267ffffffffffffffff8111156107ee577f4e487b7100000000000000000000000000000000000000000000000000000000600052604160045260246000fd5b60405190808252806020026020018201604052801561081c5781602001602082028036833780820191505090505b50905060005b83811161093c576000816000546108399190613e41565b866108449190613d33565b905060006002811115610880577f4e487b7100000000000000000000000000000000000000000000000000000000600052602160045260246000fd5b600d600083815260200190815260200160002060070160009054906101000a900460ff1660028111156108dc577f4e487b7100000000000000000000000000000000000000000000000000000000600052602160045260246000fd5b14610928578083838151811061091b577f4e487b7100000000000000000000000000000000000000000000000000000000600052603260045260246000fd5b6020026020010181815250505b508080610934906140a4565b915050610822565b508091505092915050565b600080610953856114b8565b90506000610960856118ed565b9050600061099883600d6000868152602001908152602001600020600901600085815260200190815260200160002060020154612a25565b905060006109a68487612a25565b90508082106109b857600094506109c7565b81816109c49190613e9b565b94505b505050509392505050565b806000620186a0600754836109e79190613e41565b6109f19190613dba565b9050600b54811015610a38576040517f08c379a0000000000000000000000000000000000000000000000000000000008152600401610a2f90613a62565b60405180910390fd5b6000610a4386612af2565b90506000610a518287612ca2565b9050610a5c426114b8565b821015610a9e576040517f08c379a0000000000000000000000000000000000000000000000000000000008152600401610a9590613b62565b60405180910390fd5b600d6000838152602001908152602001600020600901600082815260200190815260200160002060010160009054906101000a900473ffffffffffffffffffffffffffffffffffffffff1673ffffffffffffffffffffffffffffffffffffffff163373ffffffffffffffffffffffffffffffffffffffff161415610b57576040517f08c379a0000000000000000000000000000000000000000000000000000000008152600401610b4e90613b02565b60405180910390fd5b6000610b638387612a25565b905080600d6000858152602001908152602001600020600901600084815260200190815260200160002060020154610b9b9190613d33565b600960009054906101000a900473ffffffffffffffffffffffffffffffffffffffff1673ffffffffffffffffffffffffffffffffffffffff1663dd62ed3e33306040518363ffffffff1660e01b8152600401610bf89291906138e6565b60206040518083038186803b158015610c1057600080fd5b505afa158015610c24573d6000803e3d6000fd5b505050506040513d601f19601f82011682018060405250810190610c48919061347b565b1015610c89576040517f08c379a0000000000000000000000000000000000000000000000000000000008152600401610c8090613b22565b60405180910390fd5b600960009054906101000a900473ffffffffffffffffffffffffffffffffffffffff1673ffffffffffffffffffffffffffffffffffffffff166323b872dd333084600d6000898152602001908152602001600020600901600088815260200190815260200160002060020154610cff9190613d33565b6040518463ffffffff1660e01b8152600401610d1d9392919061390f565b602060405180830381600087803b158015610d3757600080fd5b505af1158015610d4b573d6000803e3d6000fd5b505050506040513d601f19601f82011682018060405250810190610d6f91906133da565b5080600d600085815260200190815260200160002060040154610d929190613d33565b600d60008581526020019081526020016000206004018190555060016002811115610de6577f4e487b7100000000000000000000000000000000000000000000000000000000600052602160045260246000fd5b600d6000858152602001908152602001600020600901600084815260200190815260200160002060030160009054906101000a900460ff166002811115610e56577f4e487b7100000000000000000000000000000000000000000000000000000000600052602160045260246000fd5b1415611005576000610e9284600d6000878152602001908152602001600020600901600086815260200190815260200160002060020154612a25565b9050600960009054906101000a900473ffffffffffffffffffffffffffffffffffffffff1673ffffffffffffffffffffffffffffffffffffffff1663a9059cbb600d6000878152602001908152602001600020600901600086815260200190815260200160002060010160009054906101000a900473ffffffffffffffffffffffffffffffffffffffff16600d600088815260200190815260200160002060090160008781526020019081526020016000206002015484610f539190613d33565b6040518363ffffffff1660e01b8152600401610f70929190613946565b602060405180830381600087803b158015610f8a57600080fd5b505af1158015610f9e573d6000803e3d6000fd5b505050506040513d601f19601f82011682018060405250810190610fc291906133da565b5080600d600086815260200190815260200160002060040154610fe59190613e9b565b600d6000868152602001908152602001600020600401819055505061107f565b6001600d6000858152602001908152602001600020600901600084815260200190815260200160002060030160006101000a81548160ff02191690836002811115611079577f4e487b7100000000000000000000000000000000000000000000000000000000600052602160045260246000fd5b02179055505b33600d6000858152602001908152602001600020600901600084815260200190815260200160002060010160006101000a81548173ffffffffffffffffffffffffffffffffffffffff021916908373ffffffffffffffffffffffffffffffffffffffff16021790555085600d6000858152602001908152602001600020600901600084815260200190815260200160002060020181905550600e60003373ffffffffffffffffffffffffffffffffffffffff1673ffffffffffffffffffffffffffffffffffffffff168152602001908152602001600020839080600181540180825580915050600190039060005260206000200160009091909190915055611185611a01565b7f0e6a0e14a3e5e37f98ac3964d96ce45521656b05ddf148d5eebd48c38675d6d783600d600086815260200190815260200160002060010154600d600087815260200190815260200160002060020154600d600088815260200190815260200160002060050154600d600089815260200190815260200160002060060154600d60008a81526020019081526020016000206004015460405161122c96959493929190613c0a565b60405180910390a17f683745e9c845f93f11479c3bd6b4e976ac10ac0801152f8286c1cfbaed7a6b4083600d6000868152602001908152602001600020600901600085815260200190815260200160002060405161128b929190613bb8565b60405180910390a15050505050505050565b600b5481565b6000600d600084815260200190815260200160002060080182815481106112f3577f4e487b7100000000000000000000000000000000000000000000000000000000600052603260045260246000fd5b9060005260206000200154905092915050565b60065481565b6000816000600d60008381526020019081526020016000206005015411158061134c57506000600d60008381526020019081526020016000206006015411155b1561138c576040517f08c379a000000000000000000000000000000000000000000000000000000000815260040161138390613a22565b60405180910390fd5b600d600082815260200190815260200160002060060154600d60008381526020019081526020016000206005015414156113fb576040517f08c379a00000000000000000000000000000000000000000000000000000000081526004016113f290613a22565b60405180910390fd5b611460600d600085815260200190815260200160002060050154611434600d600087815260200190815260200160002060060154612ddf565b7bffffffffffffffffffffffffffffffffffffffffffffffffffffffff16612e1390919063ffffffff16565b7bffffffffffffffffffffffffffffffffffffffffffffffffffffffff16915050919050565b600a60009054906101000a900473ffffffffffffffffffffffffffffffffffffffff1681565b60055481565b60025481565b600060015482116114cd5760015490506114f6565b600054600154836114de9190613e9b565b6114e891906140ed565b826114f39190613e9b565b90505b919050565b600e602052816000526040600020818154811061151757600080fd5b90600052602060002001600091509150505481565b611534613243565b600d60008481526020019081526020016000206009016000838152602001908152602001600020604051806080016040529081600082015481526020016001820160009054906101000a900473ffffffffffffffffffffffffffffffffffffffff1673ffffffffffffffffffffffffffffffffffffffff1673ffffffffffffffffffffffffffffffffffffffff168152602001600282015481526020016003820160009054906101000a900460ff16600281111561161b577f4e487b7100000000000000000000000000000000000000000000000000000000600052602160045260246000fd5b6002811115611653577f4e487b7100000000000000000000000000000000000000000000000000000000600052602160045260246000fd5b81525050905092915050565b600860009054906101000a900473ffffffffffffffffffffffffffffffffffffffff1673ffffffffffffffffffffffffffffffffffffffff16638da5cb5b6040518163ffffffff1660e01b815260040160206040518083038186803b1580156116c757600080fd5b505afa1580156116db573d6000803e3d6000fd5b505050506040513d601f19601f820116820180604052508101906116ff9190613375565b73ffffffffffffffffffffffffffffffffffffffff163373ffffffffffffffffffffffffffffffffffffffff161461176c576040517f08c379a000000000000000000000000000000000000000000000000000000000815260040161176390613a02565b60405180910390fd5b600960009054906101000a900473ffffffffffffffffffffffffffffffffffffffff1673ffffffffffffffffffffffffffffffffffffffff1663a9059cbb600860009054906101000a900473ffffffffffffffffffffffffffffffffffffffff1673ffffffffffffffffffffffffffffffffffffffff16638da5cb5b6040518163ffffffff1660e01b815260040160206040518083038186803b15801561181257600080fd5b505afa158015611826573d6000803e3d6000fd5b505050506040513d601f19601f8201168201806040525081019061184a9190613375565b836040518363ffffffff1660e01b8152600401611868929190613946565b602060405180830381600087803b15801561188257600080fd5b505af1158015611896573d6000803e3d6000fd5b505050506040513d601f19601f820116820180604052508101906118ba91906133da565b5050565b60015481565b60075481565b6000600d6000838152602001908152602001600020600801805490509050919050565b600080821161190057600554905061191e565b600554600554836119119190613dba565b61191b9190613e41565b90505b919050565b6000600f80549050905090565b6060600e60008373ffffffffffffffffffffffffffffffffffffffff1673ffffffffffffffffffffffffffffffffffffffff1681526020019081526020016000208054806020026020016040519081016040528092919081815260200182805480156119bb57602002820191906000526020600020905b8154815260200190600101908083116119a7575b50505050509050919050565b600080600d600084815260200190815260200160002060050154600d60008581526020019081526020016000206006015491509150915091565b6000611a0c426114b8565b905060035460005482611a1f9190613d33565b611a299190613e9b565b421015611c0d57600460009054906101000a900473ffffffffffffffffffffffffffffffffffffffff1673ffffffffffffffffffffffffffffffffffffffff16630902f1ac6040518163ffffffff1660e01b815260040160606040518083038186803b158015611a9857600080fd5b505afa158015611aac573d6000803e3d6000fd5b505050506040513d601f19601f82011682018060405250810190611ad09190613403565b826dffffffffffffffffffffffffffff169250816dffffffffffffffffffffffffffff1691508063ffffffff169050600d60008581526020019081526020016000206005016000600d60008781526020019081526020016000206006016000600d600089815260200190815260200160002060010160008691905055859190505584919050555050507f0e6a0e14a3e5e37f98ac3964d96ce45521656b05ddf148d5eebd48c38675d6d781600d600084815260200190815260200160002060010154600d600085815260200190815260200160002060020154600d600086815260200190815260200160002060050154600d600087815260200190815260200160002060060154600d600088815260200190815260200160002060040154604051611c0096959493929190613c0a565b60405180910390a1611e08565b60035460005482611c1e9190613d33565b611c289190613e9b565b4210611e0757600460009054906101000a900473ffffffffffffffffffffffffffffffffffffffff1673ffffffffffffffffffffffffffffffffffffffff16630902f1ac6040518163ffffffff1660e01b815260040160606040518083038186803b158015611c9657600080fd5b505afa158015611caa573d6000803e3d6000fd5b505050506040513d601f19601f82011682018060405250810190611cce9190613403565b826dffffffffffffffffffffffffffff169250816dffffffffffffffffffffffffffff1691508063ffffffff169050600d60008581526020019081526020016000206005016000600d60008781526020019081526020016000206006016000600d600089815260200190815260200160002060010160008691905055859190505584919050555050507f0e6a0e14a3e5e37f98ac3964d96ce45521656b05ddf148d5eebd48c38675d6d781600d600084815260200190815260200160002060010154600d600085815260200190815260200160002060020154600d600086815260200190815260200160002060050154600d600087815260200190815260200160002060060154600d600088815260200190815260200160002060040154604051611dfe96959493929190613c0a565b60405180910390a15b5b50565b600d6020528060005260406000206000915090508060000154908060010154908060020154908060030154908060040154908060050154908060060154908060070160009054906101000a900460ff16905088565b600080611e6c856114b8565b9050611e77426114b8565b811015611eb9576040517f08c379a0000000000000000000000000000000000000000000000000000000008152600401611eb090613a82565b60405180910390fd5b6000611ec4856118ed565b90506000611ed28386612a25565b905080600d6000858152602001908152602001600020600901600084815260200190815260200160002060020154611f0a9190613d33565b93505050509392505050565b611f1f81612545565b611f2881612e39565b50565b806000620186a060075483611f409190613e41565b611f4a9190613dba565b9050600b54811015611f91576040517f08c379a0000000000000000000000000000000000000000000000000000000008152600401611f8890613a62565b60405180910390fd5b6000611f9c86612af2565b90506000611faa8287612ca2565b90503373ffffffffffffffffffffffffffffffffffffffff16600d6000848152602001908152602001600020600901600083815260200190815260200160002060010160009054906101000a900473ffffffffffffffffffffffffffffffffffffffff1673ffffffffffffffffffffffffffffffffffffffff1614612064576040517f08c379a000000000000000000000000000000000000000000000000000000000815260040161205b90613aa2565b60405180910390fd5b61206d426114b8565b8210156120af576040517f08c379a00000000000000000000000000000000000000000000000000000000081526004016120a690613ae2565b60405180910390fd5b60006120bb8387612a25565b905060006120f384600d6000878152602001908152602001600020600901600086815260200190815260200160002060020154612a25565b9050808211156123005780826121099190613e9b565b600960009054906101000a900473ffffffffffffffffffffffffffffffffffffffff1673ffffffffffffffffffffffffffffffffffffffff1663dd62ed3e33306040518363ffffffff1660e01b81526004016121669291906138e6565b60206040518083038186803b15801561217e57600080fd5b505afa158015612192573d6000803e3d6000fd5b505050506040513d601f19601f820116820180604052508101906121b6919061347b565b10156121f7576040517f08c379a00000000000000000000000000000000000000000000000000000000081526004016121ee90613b22565b60405180910390fd5b600960009054906101000a900473ffffffffffffffffffffffffffffffffffffffff1673ffffffffffffffffffffffffffffffffffffffff166323b872dd333084866122439190613e9b565b6040518463ffffffff1660e01b81526004016122619392919061390f565b602060405180830381600087803b15801561227b57600080fd5b505af115801561228f573d6000803e3d6000fd5b505050506040513d601f19601f820116820180604052508101906122b391906133da565b5080826122c09190613e9b565b600d6000868152602001908152602001600020600401546122e19190613d33565b600d60008681526020019081526020016000206004018190555061240c565b8082101561240b57600960009054906101000a900473ffffffffffffffffffffffffffffffffffffffff1673ffffffffffffffffffffffffffffffffffffffff1663a9059cbb3384846123539190613e9b565b6040518363ffffffff1660e01b8152600401612370929190613946565b602060405180830381600087803b15801561238a57600080fd5b505af115801561239e573d6000803e3d6000fd5b505050506040513d601f19601f820116820180604052508101906123c291906133da565b5081816123cf9190613e9b565b600d6000868152602001908152602001600020600401546123f09190613e9b565b600d6000868152602001908152602001600020600401819055505b5b86600d6000868152602001908152602001600020600901600085815260200190815260200160002060020181905550612443611a01565b7f683745e9c845f93f11479c3bd6b4e976ac10ac0801152f8286c1cfbaed7a6b4084600d6000878152602001908152602001600020600901600086815260200190815260200160002060405161249a929190613bb8565b60405180910390a1505050505050505050565b600860009054906101000a900473ffffffffffffffffffffffffffffffffffffffff1681565b600460009054906101000a900473ffffffffffffffffffffffffffffffffffffffff1681565b6000600d6000838152602001908152602001600020600401549050919050565b600960009054906101000a900473ffffffffffffffffffffffffffffffffffffffff1681565b60005481565b42600054826125549190613d33565b1115612595576040517f08c379a000000000000000000000000000000000000000000000000000000000815260040161258c906139e2565b60405180910390fd5b6002600d600083815260200190815260200160002060070160006101000a81548160ff021916908360028111156125f5577f4e487b7100000000000000000000000000000000000000000000000000000000600052602160045260246000fd5b021790555061265f600d600083815260200190815260200160002060050154612633600d600085815260200190815260200160002060060154612ddf565b7bffffffffffffffffffffffffffffffffffffffffffffffffffffffff16612e1390919063ffffffff16565b7bffffffffffffffffffffffffffffffffffffffffffffffffffffffff16600d6000838152602001908152602001600020600301819055506000620186a0600654600d6000858152602001908152602001600020600401546126c19190613e41565b6126cb9190613dba565b90506000620186a0600254600d6000868152602001908152602001600020600401546126f79190613e41565b6127019190613dba565b90508082600d6000868152602001908152602001600020600401546127269190613e9b565b6127309190613e9b565b600d600085815260200190815260200160002060040181905550600960009054906101000a900473ffffffffffffffffffffffffffffffffffffffff1673ffffffffffffffffffffffffffffffffffffffff1663a9059cbb600a60009054906101000a900473ffffffffffffffffffffffffffffffffffffffff16846040518363ffffffff1660e01b81526004016127c9929190613946565b602060405180830381600087803b1580156127e357600080fd5b505af11580156127f7573d6000803e3d6000fd5b505050506040513d601f19601f8201168201806040525081019061281b91906133da565b50600960009054906101000a900473ffffffffffffffffffffffffffffffffffffffff1673ffffffffffffffffffffffffffffffffffffffff1663a9059cbb600860009054906101000a900473ffffffffffffffffffffffffffffffffffffffff1673ffffffffffffffffffffffffffffffffffffffff16638da5cb5b6040518163ffffffff1660e01b815260040160206040518083038186803b1580156128c257600080fd5b505afa1580156128d6573d6000803e3d6000fd5b505050506040513d601f19601f820116820180604052508101906128fa9190613375565b836040518363ffffffff1660e01b8152600401612918929190613946565b602060405180830381600087803b15801561293257600080fd5b505af1158015612946573d6000803e3d6000fd5b505050506040513d601f19601f8201168201806040525081019061296a91906133da565b507f0e6a0e14a3e5e37f98ac3964d96ce45521656b05ddf148d5eebd48c38675d6d783600d600086815260200190815260200160002060010154600d600087815260200190815260200160002060020154600d600088815260200190815260200160002060050154600d600089815260200190815260200160002060060154600d60008a815260200190815260200160002060040154604051612a1296959493929190613c0a565b60405180910390a1505050565b60035481565b60008042600054612a35426114b8565b612a3f9190613d33565b612a499190613e9b565b90506000805482600c54612a5d9190613e41565b612a679190613dba565b90506000612a7486613207565b905080620186a060075487612a899190613e41565b612a939190613dba565b612a9d9190613e41565b93506000620186a060075487612ab39190613e41565b612abd9190613dba565b9050600c548382612ace9190613e41565b612ad89190613dba565b90508085612ae69190613d33565b94505050505092915050565b600080612afe836114b8565b905060006002811115612b3a577f4e487b7100000000000000000000000000000000000000000000000000000000600052602160045260246000fd5b600d600083815260200190815260200160002060070160009054906101000a900460ff166002811115612b96577f4e487b7100000000000000000000000000000000000000000000000000000000600052602160045260246000fd5b14612ba45780915050612c9d565b612bad426114b8565b811015612bef576040517f08c379a0000000000000000000000000000000000000000000000000000000008152600401612be690613b42565b60405180910390fd5b80600d6000838152602001908152602001600020600001819055506001600d600083815260200190815260200160002060070160006101000a81548160ff02191690836002811115612c6a577f4e487b7100000000000000000000000000000000000000000000000000000000600052602160045260246000fd5b0217905550600f819080600181540180825580915050600190039060005260206000200160009091909190915055809150505b919050565b600080612cae836118ed565b905060006002811115612cea577f4e487b7100000000000000000000000000000000000000000000000000000000600052602160045260246000fd5b600d6000868152602001908152602001600020600901600083815260200190815260200160002060030160009054906101000a900460ff166002811115612d5a577f4e487b7100000000000000000000000000000000000000000000000000000000600052602160045260246000fd5b14612d685780915050612dd9565b80600d6000868152602001908152602001600020600901600083815260200190815260200160002060000181905550600d6000858152602001908152602001600020600801819080600181540180825580915050600190039060005260206000200160009091909190915055809150505b92915050565b60006e010000000000000000000000000000826dffffffffffffffffffffffffffff16612e0c9190613deb565b9050919050565b6000816dffffffffffffffffffffffffffff1683612e319190613d89565b905092915050565b600280811115612e72577f4e487b7100000000000000000000000000000000000000000000000000000000600052602160045260246000fd5b600d600083815260200190815260200160002060070160009054906101000a900460ff166002811115612ece577f4e487b7100000000000000000000000000000000000000000000000000000000600052602160045260246000fd5b14612f0e576040517f08c379a0000000000000000000000000000000000000000000000000000000008152600401612f0590613ac2565b60405180910390fd5b6000612f2f600d6000848152602001908152602001600020600301546118ed565b9050600280811115612f6a577f4e487b7100000000000000000000000000000000000000000000000000000000600052602160045260246000fd5b600d6000848152602001908152602001600020600901600083815260200190815260200160002060030160009054906101000a900460ff166002811115612fda577f4e487b7100000000000000000000000000000000000000000000000000000000600052602160045260246000fd5b141561301b576040517f08c379a000000000000000000000000000000000000000000000000000000000815260040161301290613a42565b60405180910390fd5b600960009054906101000a900473ffffffffffffffffffffffffffffffffffffffff1673ffffffffffffffffffffffffffffffffffffffff1663a9059cbb600d6000858152602001908152602001600020600901600084815260200190815260200160002060010160009054906101000a900473ffffffffffffffffffffffffffffffffffffffff16600d6000868152602001908152602001600020600401546040518363ffffffff1660e01b81526004016130d8929190613946565b602060405180830381600087803b1580156130f257600080fd5b505af1158015613106573d6000803e3d6000fd5b505050506040513d601f19601f8201168201806040525081019061312a91906133da565b506002600d6000848152602001908152602001600020600901600083815260200190815260200160002060030160006101000a81548160ff0219169083600281111561319f577f4e487b7100000000000000000000000000000000000000000000000000000000600052602160045260246000fd5b02179055507f683745e9c845f93f11479c3bd6b4e976ac10ac0801152f8286c1cfbaed7a6b4082600d600085815260200190815260200160002060090160008481526020019081526020016000206040516131fb929190613bb8565b60405180910390a15050565b6000613212426114b8565b821415613222576000905061323e565b60005442836132319190613e9b565b61323b9190613dba565b90505b919050565b604051806080016040528060008152602001600073ffffffffffffffffffffffffffffffffffffffff16815260200160008152602001600060028111156132b3577f4e487b7100000000000000000000000000000000000000000000000000000000600052602160045260246000fd5b81525090565b6000813590506132c88161441b565b92915050565b6000815190506132dd8161441b565b92915050565b6000815190506132f281614432565b92915050565b60008151905061330781614449565b92915050565b60008135905061331c81614460565b92915050565b60008151905061333181614460565b92915050565b60008151905061334681614477565b92915050565b60006020828403121561335e57600080fd5b600061336c848285016132b9565b91505092915050565b60006020828403121561338757600080fd5b6000613395848285016132ce565b91505092915050565b600080604083850312156133b157600080fd5b60006133bf858286016132b9565b92505060206133d08582860161330d565b9150509250929050565b6000602082840312156133ec57600080fd5b60006133fa848285016132e3565b91505092915050565b60008060006060848603121561341857600080fd5b6000613426868287016132f8565b9350506020613437868287016132f8565b925050604061344886828701613337565b9150509250925092565b60006020828403121561346457600080fd5b60006134728482850161330d565b91505092915050565b60006020828403121561348d57600080fd5b600061349b84828501613322565b91505092915050565b600080604083850312156134b757600080fd5b60006134c58582860161330d565b92505060206134d68582860161330d565b9150509250929050565b6000806000606084860312156134f557600080fd5b60006135038682870161330d565b93505060206135148682870161330d565b92505060406135258682870161330d565b9150509250925092565b600061353b83836138ad565b60208301905092915050565b61355081613f06565b82525050565b61355f81613f06565b82525050565b600061357082613cf9565b61357a8185613d11565b935061358583613ce9565b8060005b838110156135b657815161359d888261352f565b97506135a883613d04565b925050600181019050613589565b5085935050505092915050565b6135cc81613fc6565b82525050565b6135db81613fea565b82525050565b6135ea8161400e565b82525050565b6135f981614032565b82525050565b61360881614044565b82525050565b600061361b601a83613d22565b9150613626826141b8565b602082019050919050565b600061363e601583613d22565b9150613649826141e1565b602082019050919050565b6000613661601383613d22565b915061366c8261420a565b602082019050919050565b6000613684601383613d22565b915061368f82614233565b602082019050919050565b60006136a7601083613d22565b91506136b28261425c565b602082019050919050565b60006136ca601b83613d22565b91506136d582614285565b602082019050919050565b60006136ed601183613d22565b91506136f8826142ae565b602082019050919050565b6000613710601083613d22565b915061371b826142d7565b602082019050919050565b6000613733602983613d22565b915061373e82614300565b604082019050919050565b6000613756601f83613d22565b91506137618261434f565b602082019050919050565b6000613779601c83613d22565b915061378482614378565b602082019050919050565b600061379c601983613d22565b91506137a7826143a1565b602082019050919050565b60006137bf601d83613d22565b91506137ca826143ca565b602082019050919050565b6080820160008201516137eb60008501826138ad565b5060208201516137fe6020850182613547565b50604082015161381160408501826138ad565b50606082015161382460608501826135ff565b50505050565b60808201600080830154905061383f8161408a565b61384c60008601826138ad565b506001830154905061385d81614056565b61386a6020860182613547565b506002830154905061387b8161408a565b61388860408601826138ad565b506003830154905061389981614070565b6138a660608601826135ff565b5050505050565b6138b681613fac565b82525050565b6138c581613fac565b82525050565b60006020820190506138e06000830184613556565b92915050565b60006040820190506138fb6000830185613556565b6139086020830184613556565b9392505050565b60006060820190506139246000830186613556565b6139316020830185613556565b61393e60408301846138bc565b949350505050565b600060408201905061395b6000830185613556565b61396860208301846138bc565b9392505050565b600060208201905081810360008301526139898184613565565b905092915050565b60006020820190506139a660008301846135c3565b92915050565b60006020820190506139c160008301846135d2565b92915050565b60006020820190506139dc60008301846135e1565b92915050565b600060208201905081810360008301526139fb8161360e565b9050919050565b60006020820190508181036000830152613a1b81613631565b9050919050565b60006020820190508181036000830152613a3b81613654565b9050919050565b60006020820190508181036000830152613a5b81613677565b9050919050565b60006020820190508181036000830152613a7b8161369a565b9050919050565b60006020820190508181036000830152613a9b816136bd565b9050919050565b60006020820190508181036000830152613abb816136e0565b9050919050565b60006020820190508181036000830152613adb81613703565b9050919050565b60006020820190508181036000830152613afb81613726565b9050919050565b60006020820190508181036000830152613b1b81613749565b9050919050565b60006020820190508181036000830152613b3b8161376c565b9050919050565b60006020820190508181036000830152613b5b8161378f565b9050919050565b60006020820190508181036000830152613b7b816137b2565b9050919050565b6000608082019050613b9760008301846137d5565b92915050565b6000602082019050613bb260008301846138bc565b92915050565b600060a082019050613bcd60008301856138bc565b613bda602083018461382a565b9392505050565b6000604082019050613bf660008301856138bc565b613c0360208301846138bc565b9392505050565b600060c082019050613c1f60008301896138bc565b613c2c60208301886138bc565b613c3960408301876138bc565b613c4660608301866138bc565b613c5360808301856138bc565b613c6060a08301846138bc565b979650505050505050565b600061010082019050613c81600083018b6138bc565b613c8e602083018a6138bc565b613c9b60408301896138bc565b613ca860608301886138bc565b613cb560808301876138bc565b613cc260a08301866138bc565b613ccf60c08301856138bc565b613cdc60e08301846135f0565b9998505050505050505050565b6000819050602082019050919050565b600081519050919050565b6000602082019050919050565b600082825260208201905092915050565b600082825260208201905092915050565b6000613d3e82613fac565b9150613d4983613fac565b9250827fffffffffffffffffffffffffffffffffffffffffffffffffffffffffffffffff03821115613d7e57613d7d61411e565b5b828201905092915050565b6000613d9482613f84565b9150613d9f83613f84565b925082613daf57613dae61414d565b5b828204905092915050565b6000613dc582613fac565b9150613dd083613fac565b925082613de057613ddf61414d565b5b828204905092915050565b6000613df682613f84565b9150613e0183613f84565b9250817bffffffffffffffffffffffffffffffffffffffffffffffffffffffff0483118215151615613e3657613e3561411e565b5b828202905092915050565b6000613e4c82613fac565b9150613e5783613fac565b9250817fffffffffffffffffffffffffffffffffffffffffffffffffffffffffffffffff0483118215151615613e9057613e8f61411e565b5b828202905092915050565b6000613ea682613fac565b9150613eb183613fac565b925082821015613ec457613ec361411e565b5b828203905092915050565b600073ffffffffffffffffffffffffffffffffffffffff82169050919050565b600060ff82169050919050565b6000819050919050565b6000613f1182613f64565b9050919050565b60008115159050919050565b6000819050613f32826143f3565b919050565b6000819050613f4582614407565b919050565b60006dffffffffffffffffffffffffffff82169050919050565b600073ffffffffffffffffffffffffffffffffffffffff82169050919050565b60007bffffffffffffffffffffffffffffffffffffffffffffffffffffffff82169050919050565b6000819050919050565b600063ffffffff82169050919050565b6000613fd182613fd8565b9050919050565b6000613fe382613f64565b9050919050565b6000613ff582613ffc565b9050919050565b600061400782613f64565b9050919050565b600061401982614020565b9050919050565b600061402b82613f64565b9050919050565b600061403d82613f24565b9050919050565b600061404f82613f37565b9050919050565b6000614069614064836141ab565b613ecf565b9050919050565b600061408361407e836141ab565b613eef565b9050919050565b600061409d614098836141ab565b613efc565b9050919050565b60006140af82613fac565b91507fffffffffffffffffffffffffffffffffffffffffffffffffffffffffffffffff8214156140e2576140e161411e565b5b600182019050919050565b60006140f882613fac565b915061410383613fac565b9250826141135761411261414d565b5b828206905092915050565b7f4e487b7100000000000000000000000000000000000000000000000000000000600052601160045260246000fd5b7f4e487b7100000000000000000000000000000000000000000000000000000000600052601260045260246000fd5b7f4e487b7100000000000000000000000000000000000000000000000000000000600052602160045260246000fd5b60008160001c9050919050565b7f4652414d4520454e442054494d45204e4f542052454143484544000000000000600082015250565b7f4e4f542054484520464143544f5259204f574e45520000000000000000000000600082015250565b7f494e56414c4944204652414d4520505249434500000000000000000000000000600082015250565b7f4c4f5420414c524541445920534554544c454400000000000000000000000000600082015250565b7f505249434520495320544f4f204c4f5700000000000000000000000000000000600082015250565b7f54484953204c4f5420495320494e20412050415354204652414d450000000000600082015250565b7f4d555354204245204c4f54204f574e4552000000000000000000000000000000600082015250565b7f4652414d45204e4f5420434c4f53454400000000000000000000000000000000600082015250565b7f54484953204c4f5420495320494e20412054494d45204652414d452046524f4d60008201527f2054484520504153540000000000000000000000000000000000000000000000602082015250565b7f4144445245535320414c5245414459204f574e53205448452050415243454c00600082015250565b7f415050524f56454420414d4f554e5420495320544f4f20534d414c4c00000000600082015250565b7f43414e5420435245415445204652414d4520494e205041535400000000000000600082015250565b7f43414e2754204255592041204c4f542046524f4d205448452050415354000000600082015250565b600381106144045761440361417c565b5b50565b600381106144185761441761417c565b5b50565b61442481613f06565b811461442f57600080fd5b50565b61443b81613f18565b811461444657600080fd5b50565b61445281613f4a565b811461445d57600080fd5b50565b61446981613fac565b811461447457600080fd5b50565b61448081613fb6565b811461448b57600080fd5b5056fea2646970667358221220660f0046adf802db219453d930884d80027da391402c2eb35cb246c4c7fc899e64736f6c63430008040033",
  "linkReferences": {},
  "deployedLinkReferences": {}
}