{
  "_format": "hh-sol-artifact-1",
  "contractName": "Market",
  "sourceName": "contracts/Market.sol",
  "abi": [
    {
      "inputs": [
        {
          "internalType": "contract MarketFactory",
          "name": "_factory",
          "type": "address"
        },
        {
          "internalType": "contract IERC20",
          "name": "_token",
          "type": "address"
        },
        {
          "internalType": "contract IUniswapV2Pair",
          "name": "_uniswapPair",
          "type": "address"
        },
        {
          "internalType": "uint256",
          "name": "_period",
          "type": "uint256"
        },
        {
          "internalType": "uint256",
          "name": "_initTimestamp",
          "type": "uint256"
        },
        {
          "internalType": "uint256",
          "name": "_taxMarket",
          "type": "uint256"
        },
        {
          "internalType": "uint256",
          "name": "_feeMarket",
          "type": "uint256"
        },
        {
          "internalType": "uint256",
          "name": "_dPrice",
          "type": "uint256"
        },
        {
          "internalType": "uint256",
          "name": "_tReporting",
          "type": "uint256"
        },
        {
          "internalType": "uint256",
          "name": "_minTax",
          "type": "uint256"
        },
        {
          "internalType": "bool",
          "name": "_avgPriceSwitch",
          "type": "bool"
        }
      ],
      "stateMutability": "nonpayable",
      "type": "constructor"
    },
    {
      "anonymous": false,
      "inputs": [
        {
          "indexed": false,
          "internalType": "uint256",
          "name": "frameKey",
          "type": "uint256"
        },
        {
          "indexed": false,
          "internalType": "uint256",
          "name": "oracleTimestampStart",
          "type": "uint256"
        },
        {
          "indexed": false,
          "internalType": "uint256",
          "name": "oracleTimestampEnd",
          "type": "uint256"
        },
        {
          "indexed": false,
          "internalType": "uint256",
          "name": "oraclePrice0CumulativeStart",
          "type": "uint256"
        },
        {
          "indexed": false,
          "internalType": "uint256",
          "name": "oraclePrice0CumulativeEnd",
          "type": "uint256"
        },
        {
          "indexed": false,
          "internalType": "uint256",
          "name": "oraclePrice1CumulativeStart",
          "type": "uint256"
        },
        {
          "indexed": false,
          "internalType": "uint256",
          "name": "oraclePrice1CumulativeEnd",
          "type": "uint256"
        },
        {
          "indexed": false,
          "internalType": "uint256",
          "name": "rewardFund",
          "type": "uint256"
        }
      ],
      "name": "FrameUpdate",
      "type": "event"
    },
    {
      "anonymous": false,
      "inputs": [
        {
          "indexed": false,
          "internalType": "uint256",
          "name": "frameKey",
          "type": "uint256"
        },
        {
          "components": [
            {
              "internalType": "uint256",
              "name": "frameKey",
              "type": "uint256"
            },
            {
              "internalType": "uint256",
              "name": "lotKey",
              "type": "uint256"
            },
            {
              "internalType": "address",
              "name": "lotOwner",
              "type": "address"
            },
            {
              "internalType": "uint256",
              "name": "acquisitionPrice",
              "type": "uint256"
            },
            {
              "internalType": "enum MLib.SLot",
              "name": "state",
              "type": "uint8"
            }
          ],
          "indexed": false,
          "internalType": "struct MLib.Lot",
          "name": "lotStruct",
          "type": "tuple"
        }
      ],
      "name": "LotUpdate",
      "type": "event"
    },
    {
      "inputs": [
        {
          "internalType": "uint256",
          "name": "frameKey",
          "type": "uint256"
        },
        {
          "internalType": "uint256",
          "name": "avgPrice",
          "type": "uint256"
        }
      ],
      "name": "UpdateAvgPrice",
      "outputs": [],
      "stateMutability": "nonpayable",
      "type": "function"
    },
    {
      "inputs": [],
      "name": "accountingToken",
      "outputs": [
        {
          "internalType": "contract IERC20",
          "name": "",
          "type": "address"
        }
      ],
      "stateMutability": "view",
      "type": "function"
    },
    {
      "inputs": [],
      "name": "avgPriceSwitch",
      "outputs": [
        {
          "internalType": "bool",
          "name": "",
          "type": "bool"
        }
      ],
      "stateMutability": "view",
      "type": "function"
    },
    {
      "inputs": [
        {
          "internalType": "uint256",
          "name": "timestamp",
          "type": "uint256"
        },
        {
          "internalType": "uint256",
          "name": "pairPrice",
          "type": "uint256"
        },
        {
          "internalType": "uint256",
          "name": "acqPrice",
          "type": "uint256"
        },
        {
          "internalType": "address",
          "name": "referralPublicKey",
          "type": "address"
        },
        {
          "internalType": "string",
          "name": "message",
          "type": "string"
        }
      ],
      "name": "buyLot",
      "outputs": [],
      "stateMutability": "nonpayable",
      "type": "function"
    },
    {
      "inputs": [
        {
          "internalType": "uint256",
          "name": "frameKey",
          "type": "uint256"
        }
      ],
      "name": "claimReward",
      "outputs": [],
      "stateMutability": "nonpayable",
      "type": "function"
    },
    {
      "inputs": [
        {
          "internalType": "uint256",
          "name": "timestamp",
          "type": "uint256"
        }
      ],
      "name": "clcFrameTimestamp",
      "outputs": [
        {
          "internalType": "uint256",
          "name": "",
          "type": "uint256"
        }
      ],
      "stateMutability": "view",
      "type": "function"
    },
    {
      "inputs": [
        {
          "internalType": "uint256",
          "name": "value",
          "type": "uint256"
        }
      ],
      "name": "clcLotKey",
      "outputs": [
        {
          "internalType": "uint256",
          "name": "",
          "type": "uint256"
        }
      ],
      "stateMutability": "view",
      "type": "function"
    },
    {
      "inputs": [
        {
          "internalType": "uint256",
          "name": "frameKey",
          "type": "uint256"
        },
        {
          "internalType": "uint256",
          "name": "acquisitionPrice",
          "type": "uint256"
        }
      ],
      "name": "clcTax",
      "outputs": [
        {
          "internalType": "uint256",
          "name": "tax",
          "type": "uint256"
        }
      ],
      "stateMutability": "view",
      "type": "function"
    },
    {
      "inputs": [],
      "name": "dPrice",
      "outputs": [
        {
          "internalType": "uint256",
          "name": "",
          "type": "uint256"
        }
      ],
      "stateMutability": "view",
      "type": "function"
    },
    {
      "inputs": [
        {
          "internalType": "uint256",
          "name": "amount",
          "type": "uint256"
        }
      ],
      "name": "emptyFunds",
      "outputs": [],
      "stateMutability": "nonpayable",
      "type": "function"
    },
    {
      "inputs": [],
      "name": "factory",
      "outputs": [
        {
          "internalType": "contract MarketFactory",
          "name": "",
          "type": "address"
        }
      ],
      "stateMutability": "view",
      "type": "function"
    },
    {
      "inputs": [],
      "name": "feeMarket",
      "outputs": [
        {
          "internalType": "uint256",
          "name": "",
          "type": "uint256"
        }
      ],
      "stateMutability": "view",
      "type": "function"
    },
    {
      "inputs": [],
      "name": "feeProtocol",
      "outputs": [
        {
          "internalType": "uint256",
          "name": "",
          "type": "uint256"
        }
      ],
      "stateMutability": "view",
      "type": "function"
    },
    {
      "inputs": [
        {
          "internalType": "uint256",
          "name": "",
          "type": "uint256"
        }
      ],
      "name": "frames",
      "outputs": [
        {
          "internalType": "uint256",
          "name": "frameKey",
          "type": "uint256"
        },
        {
          "internalType": "uint256",
          "name": "oracleTimestampStart",
          "type": "uint256"
        },
        {
          "internalType": "uint256",
          "name": "oracleTimestampEnd",
          "type": "uint256"
        },
        {
          "internalType": "uint256",
          "name": "rewardFund",
          "type": "uint256"
        },
        {
          "internalType": "uint256",
          "name": "priceAverage",
          "type": "uint256"
        },
        {
          "internalType": "uint256",
          "name": "oraclePrice0CumulativeStart",
          "type": "uint256"
        },
        {
          "internalType": "uint256",
          "name": "oraclePrice0CumulativeEnd",
          "type": "uint256"
        },
        {
          "internalType": "uint256",
          "name": "oraclePrice1CumulativeStart",
          "type": "uint256"
        },
        {
          "internalType": "uint256",
          "name": "oraclePrice1CumulativeEnd",
          "type": "uint256"
        },
        {
          "internalType": "enum MLib.SFrame",
          "name": "state",
          "type": "uint8"
        }
      ],
      "stateMutability": "view",
      "type": "function"
    },
    {
      "inputs": [
        {
          "internalType": "uint256",
          "name": "",
          "type": "uint256"
        }
      ],
      "name": "framesKeys",
      "outputs": [
        {
          "internalType": "uint256",
          "name": "",
          "type": "uint256"
        }
      ],
      "stateMutability": "view",
      "type": "function"
    },
    {
      "inputs": [
        {
          "internalType": "uint256",
          "name": "frameKey",
          "type": "uint256"
        }
      ],
      "name": "getFrame",
      "outputs": [
        {
          "components": [
            {
              "internalType": "uint256",
              "name": "frameKey",
              "type": "uint256"
            },
            {
              "internalType": "uint256",
              "name": "oracleTimestampStart",
              "type": "uint256"
            },
            {
              "internalType": "uint256",
              "name": "oracleTimestampEnd",
              "type": "uint256"
            },
            {
              "internalType": "uint256",
              "name": "rewardFund",
              "type": "uint256"
            },
            {
              "internalType": "uint256",
              "name": "priceAverage",
              "type": "uint256"
            },
            {
              "internalType": "uint256",
              "name": "oraclePrice0CumulativeStart",
              "type": "uint256"
            },
            {
              "internalType": "uint256",
              "name": "oraclePrice0CumulativeEnd",
              "type": "uint256"
            },
            {
              "internalType": "uint256",
              "name": "oraclePrice1CumulativeStart",
              "type": "uint256"
            },
            {
              "internalType": "uint256",
              "name": "oraclePrice1CumulativeEnd",
              "type": "uint256"
            },
            {
              "internalType": "enum MLib.SFrame",
              "name": "state",
              "type": "uint8"
            },
            {
              "internalType": "uint256[]",
              "name": "lotKeys",
              "type": "uint256[]"
            }
          ],
          "internalType": "struct MLib.Frame",
          "name": "",
          "type": "tuple"
        }
      ],
      "stateMutability": "view",
      "type": "function"
    },
    {
      "inputs": [
        {
          "internalType": "uint256",
          "name": "frameKey",
          "type": "uint256"
        }
      ],
      "name": "getFrameState",
      "outputs": [
        {
          "internalType": "enum MLib.SFrame",
          "name": "",
          "type": "uint8"
        }
      ],
      "stateMutability": "view",
      "type": "function"
    },
    {
      "inputs": [
        {
          "internalType": "uint256",
          "name": "frameKey",
          "type": "uint256"
        },
        {
          "internalType": "uint256",
          "name": "lotKey",
          "type": "uint256"
        }
      ],
      "name": "getLot",
      "outputs": [
        {
          "components": [
            {
              "internalType": "uint256",
              "name": "frameKey",
              "type": "uint256"
            },
            {
              "internalType": "uint256",
              "name": "lotKey",
              "type": "uint256"
            },
            {
              "internalType": "address",
              "name": "lotOwner",
              "type": "address"
            },
            {
              "internalType": "uint256",
              "name": "acquisitionPrice",
              "type": "uint256"
            },
            {
              "internalType": "enum MLib.SLot",
              "name": "state",
              "type": "uint8"
            }
          ],
          "internalType": "struct MLib.Lot",
          "name": "",
          "type": "tuple"
        }
      ],
      "stateMutability": "view",
      "type": "function"
    },
    {
      "inputs": [
        {
          "internalType": "uint256",
          "name": "frameKey",
          "type": "uint256"
        }
      ],
      "name": "getLotKeys",
      "outputs": [
        {
          "internalType": "uint256[]",
          "name": "",
          "type": "uint256[]"
        }
      ],
      "stateMutability": "view",
      "type": "function"
    },
    {
      "inputs": [],
      "name": "getNumberOfFrameKeys",
      "outputs": [
        {
          "internalType": "uint256",
          "name": "",
          "type": "uint256"
        }
      ],
      "stateMutability": "view",
      "type": "function"
    },
    {
      "inputs": [
        {
          "internalType": "address",
          "name": "",
          "type": "address"
        }
      ],
      "name": "hasBoughtLot",
      "outputs": [
        {
          "internalType": "bool",
          "name": "",
          "type": "bool"
        }
      ],
      "stateMutability": "view",
      "type": "function"
    },
    {
      "inputs": [
        {
          "internalType": "uint256",
          "name": "frameKey",
          "type": "uint256"
        }
      ],
      "name": "hasValidPrices",
      "outputs": [],
      "stateMutability": "view",
      "type": "function"
    },
    {
      "inputs": [],
      "name": "initTimestamp",
      "outputs": [
        {
          "internalType": "uint256",
          "name": "",
          "type": "uint256"
        }
      ],
      "stateMutability": "view",
      "type": "function"
    },
    {
      "inputs": [
        {
          "internalType": "uint256",
          "name": "",
          "type": "uint256"
        },
        {
          "internalType": "uint256",
          "name": "",
          "type": "uint256"
        }
      ],
      "name": "lots",
      "outputs": [
        {
          "internalType": "uint256",
          "name": "frameKey",
          "type": "uint256"
        },
        {
          "internalType": "uint256",
          "name": "lotKey",
          "type": "uint256"
        },
        {
          "internalType": "address",
          "name": "lotOwner",
          "type": "address"
        },
        {
          "internalType": "uint256",
          "name": "acquisitionPrice",
          "type": "uint256"
        },
        {
          "internalType": "enum MLib.SLot",
          "name": "state",
          "type": "uint8"
        }
      ],
      "stateMutability": "view",
      "type": "function"
    },
    {
      "inputs": [],
      "name": "minTax",
      "outputs": [
        {
          "internalType": "uint256",
          "name": "",
          "type": "uint256"
        }
      ],
      "stateMutability": "view",
      "type": "function"
    },
    {
      "inputs": [],
      "name": "ownerMarket",
      "outputs": [
        {
          "internalType": "address",
          "name": "",
          "type": "address"
        }
      ],
      "stateMutability": "view",
      "type": "function"
    },
    {
      "inputs": [],
      "name": "period",
      "outputs": [
        {
          "internalType": "uint256",
          "name": "",
          "type": "uint256"
        }
      ],
      "stateMutability": "view",
      "type": "function"
    },
    {
      "inputs": [
        {
          "internalType": "address",
          "name": "",
          "type": "address"
        }
      ],
      "name": "referals",
      "outputs": [
        {
          "internalType": "address",
          "name": "ownerPublicKey",
          "type": "address"
        },
        {
          "internalType": "address",
          "name": "referralPublicKey",
          "type": "address"
        },
        {
          "internalType": "string",
          "name": "message",
          "type": "string"
        }
      ],
      "stateMutability": "view",
      "type": "function"
    },
    {
      "inputs": [],
      "name": "scalar",
      "outputs": [
        {
          "internalType": "uint256",
          "name": "",
          "type": "uint256"
        }
      ],
      "stateMutability": "view",
      "type": "function"
    },
    {
      "inputs": [],
      "name": "tReporting",
      "outputs": [
        {
          "internalType": "uint256",
          "name": "",
          "type": "uint256"
        }
      ],
      "stateMutability": "view",
      "type": "function"
    },
    {
      "inputs": [],
      "name": "taxMarket",
      "outputs": [
        {
          "internalType": "uint256",
          "name": "",
          "type": "uint256"
        }
      ],
      "stateMutability": "view",
      "type": "function"
    },
    {
      "inputs": [],
      "name": "uniswapPair",
      "outputs": [
        {
          "internalType": "contract IUniswapV2Pair",
          "name": "",
          "type": "address"
        }
      ],
      "stateMutability": "view",
      "type": "function"
    },
    {
      "inputs": [],
      "name": "updateFramePrices",
      "outputs": [],
      "stateMutability": "nonpayable",
      "type": "function"
    },
    {
      "inputs": [
        {
          "internalType": "uint256",
          "name": "timestamp",
          "type": "uint256"
        },
        {
          "internalType": "uint256",
          "name": "pairPrice",
          "type": "uint256"
        },
        {
          "internalType": "uint256",
          "name": "acqPrice",
          "type": "uint256"
        }
      ],
      "name": "updateLotPrice",
      "outputs": [],
      "stateMutability": "nonpayable",
      "type": "function"
    },
    {
      "inputs": [
        {
          "internalType": "address",
          "name": "",
          "type": "address"
        },
        {
          "internalType": "uint256",
          "name": "",
          "type": "uint256"
        }
      ],
      "name": "userFrames",
      "outputs": [
        {
          "internalType": "uint256",
          "name": "",
          "type": "uint256"
        }
      ],
      "stateMutability": "view",
      "type": "function"
    }
  ],
  "bytecode": "0x608060405260646002556000600c60006101000a81548160ff02191690831515021790555069d3c21bcecceda1000000600d553480156200003f57600080fd5b506040516200540238038062005402833981810160405281019062000065919062000238565b89600960006101000a81548173ffffffffffffffffffffffffffffffffffffffff021916908373ffffffffffffffffffffffffffffffffffffffff16021790555032600a60006101000a81548173ffffffffffffffffffffffffffffffffffffffff021916908373ffffffffffffffffffffffffffffffffffffffff1602179055508760008190555086600181905550856007819055508460068190555088600460006101000a81548173ffffffffffffffffffffffffffffffffffffffff021916908373ffffffffffffffffffffffffffffffffffffffff160217905550836005819055508a600860006101000a81548173ffffffffffffffffffffffffffffffffffffffff021916908373ffffffffffffffffffffffffffffffffffffffff1602179055508260038190555081600b8190555080600c60006101000a81548160ff021916908315150217905550505050505050505050505062000447565b600081519050620001d681620003c5565b92915050565b600081519050620001ed81620003df565b92915050565b6000815190506200020481620003f9565b92915050565b6000815190506200021b8162000413565b92915050565b60008151905062000232816200042d565b92915050565b60008060008060008060008060008060006101608c8e0312156200025b57600080fd5b60006200026b8e828f016200020a565b9b505060206200027e8e828f01620001dc565b9a50506040620002918e828f01620001f3565b9950506060620002a48e828f0162000221565b9850506080620002b78e828f0162000221565b97505060a0620002ca8e828f0162000221565b96505060c0620002dd8e828f0162000221565b95505060e0620002f08e828f0162000221565b945050610100620003048e828f0162000221565b935050610120620003188e828f0162000221565b9250506101406200032c8e828f01620001c5565b9150509295989b509295989b9093969950565b60006200034c826200039b565b9050919050565b60008115159050919050565b60006200036c826200033f565b9050919050565b600062000380826200033f565b9050919050565b600062000394826200033f565b9050919050565b600073ffffffffffffffffffffffffffffffffffffffff82169050919050565b6000819050919050565b620003d08162000353565b8114620003dc57600080fd5b50565b620003ea816200035f565b8114620003f657600080fd5b50565b620004048162000373565b81146200041057600080fd5b50565b6200041e8162000387565b81146200042a57600080fd5b50565b6200043881620003bb565b81146200044457600080fd5b50565b614fab80620004576000396000f3fe608060405234801561001057600080fd5b50600436106102115760003560e01c80639592de1811610125578063c816841b116100ad578063e107fb4f1161007c578063e107fb4f1461064f578063ef78d4fd1461067f578063f109db841461069d578063f45e65d8146106cd578063ff5c86b0146106eb57610211565b8063c816841b146105c7578063d529a396146105e5578063d9ab597e14610601578063da68cf8b1461063157610211565b8063ab02f2a9116100f4578063ab02f2a91461050d578063ae169a501461053d578063b93dafa914610559578063bb15d2dd1461058d578063c45a0155146105a957610211565b80639592de181461046857806396b2c6f314610498578063a10340bc146104a2578063a128fcf2146104db57610211565b8063652c8ded116101a8578063773d51eb11610177578063773d51eb146103c25780637e996639146103f257806389da88a3146104105780638f9eca821461042e5780639126bc281461044c57610211565b8063652c8ded1461033c5780636f1aefc3146103585780636f7cb60b146103885780637358c57a146103a457610211565b8063499a0fc4116101e4578063499a0fc4146102a0578063527eb4bc146102be5780635b3ad63e146102dc57806360f65c601461030c57610211565b8063050e8840146102165780633d09a82a14610246578063410f0710146102645780634508477514610282575b600080fd5b610230600480360381019061022b9190613b38565b610709565b60405161023d9190614765565b60405180910390f35b61024e61072d565b60405161025b9190614765565b60405180910390f35b61026c610733565b6040516102799190614765565b60405180910390f35b61028a610739565b60405161029791906143dd565b60405180910390f35b6102a861075f565b6040516102b59190614765565b60405180910390f35b6102c6610765565b6040516102d39190614765565b60405180910390f35b6102f660048036038101906102f19190613b38565b61076b565b6040516103039190614765565b60405180910390f35b61032660048036038101906103219190613a84565b6107ae565b6040516103339190614765565b60405180910390f35b61035660048036038101906103519190613b38565b6107df565b005b610372600480360381019061036d9190613b8a565b610948565b60405161037f919061474a565b60405180910390f35b6103a2600480360381019061039d9190613b38565b610a82565b005b6103ac610ce1565b6040516103b99190614765565b60405180910390f35b6103dc60048036038101906103d79190613b38565b610ce7565b6040516103e99190614728565b60405180910390f35b6103fa610e4e565b6040516104079190614765565b60405180910390f35b610418610e54565b6040516104259190614765565b60405180910390f35b610436610e61565b60405161044391906144e1565b60405180910390f35b61046660048036038101906104619190613c15565b610e74565b005b610482600480360381019061047d9190613b38565b6117e7565b60405161048f9190614765565b60405180910390f35b6104a061181d565b005b6104bc60048036038101906104b79190613b38565b611b11565b6040516104d29a9998979695949392919061487a565b60405180910390f35b6104f560048036038101906104f09190613a32565b611b72565b60405161050493929190614421565b60405180910390f35b61052760048036038101906105229190613b38565b611c64565b60405161053491906144bf565b60405180910390f35b61055760048036038101906105529190613b38565b611cd2565b005b610573600480360381019061056e9190613b8a565b611ce7565b6040516105849594939291906147a9565b60405180910390f35b6105a760048036038101906105a29190613bc6565b611d57565b005b6105b161226f565b6040516105be9190614532565b60405180910390f35b6105cf612295565b6040516105dc9190614517565b60405180910390f35b6105ff60048036038101906105fa9190613b8a565b6122bb565b005b61061b60048036038101906106169190613a32565b61233f565b60405161062891906144e1565b60405180910390f35b61063961235f565b60405161064691906144fc565b60405180910390f35b61066960048036038101906106649190613b8a565b612385565b6040516106769190614765565b60405180910390f35b6106876123fa565b6040516106949190614765565b60405180910390f35b6106b760048036038101906106b29190613b38565b612400565b6040516106c4919061454d565b60405180910390f35b6106d561242d565b6040516106e29190614765565b60405180910390f35b6106f3612433565b6040516107009190614765565b60405180910390f35b6013818154811061071957600080fd5b906000526020600020016000915090505481565b600b5481565b60065481565b600a60009054906101000a900473ffffffffffffffffffffffffffffffffffffffff1681565b60055481565b60025481565b600060015482116107805760015490506107a9565b600054600154836107919190614aef565b61079b9190614da0565b826107a69190614aef565b90505b919050565b601060205281600052604060002081815481106107ca57600080fd5b90600052602060002001600091509150505481565b6000600f60008381526020019081526020016000206005015411158061081c57506000600f60008381526020019081526020016000206006015411155b8061083e57506000600f60008381526020019081526020016000206007015411155b8061086057506000600f60008381526020019081526020016000206008015411155b156108a0576040517f08c379a000000000000000000000000000000000000000000000000000000000815260040161089790614608565b60405180910390fd5b600f600082815260200190815260200160002060060154600f60008381526020019081526020016000206005015414806109055750600f600082815260200190815260200160002060080154600f600083815260200190815260200160002060070154145b15610945576040517f08c379a000000000000000000000000000000000000000000000000000000000815260040161093c90614608565b60405180910390fd5b50565b610950613754565b600e600084815260200190815260200160002060008381526020019081526020016000206040518060a001604052908160008201548152602001600182015481526020016002820160009054906101000a900473ffffffffffffffffffffffffffffffffffffffff1673ffffffffffffffffffffffffffffffffffffffff1673ffffffffffffffffffffffffffffffffffffffff168152602001600382015481526020016004820160009054906101000a900460ff166002811115610a3e577f4e487b7100000000000000000000000000000000000000000000000000000000600052602160045260246000fd5b6002811115610a76577f4e487b7100000000000000000000000000000000000000000000000000000000600052602160045260246000fd5b81525050905092915050565b600860009054906101000a900473ffffffffffffffffffffffffffffffffffffffff1673ffffffffffffffffffffffffffffffffffffffff16638da5cb5b6040518163ffffffff1660e01b815260040160206040518083038186803b158015610aea57600080fd5b505afa158015610afe573d6000803e3d6000fd5b505050506040513d601f19601f82011682018060405250810190610b229190613a5b565b73ffffffffffffffffffffffffffffffffffffffff163373ffffffffffffffffffffffffffffffffffffffff1614610b8f576040517f08c379a0000000000000000000000000000000000000000000000000000000008152600401610b8690614588565b60405180910390fd5b600960009054906101000a900473ffffffffffffffffffffffffffffffffffffffff1673ffffffffffffffffffffffffffffffffffffffff1663a9059cbb600860009054906101000a900473ffffffffffffffffffffffffffffffffffffffff1673ffffffffffffffffffffffffffffffffffffffff16638da5cb5b6040518163ffffffff1660e01b815260040160206040518083038186803b158015610c3557600080fd5b505afa158015610c49573d6000803e3d6000fd5b505050506040513d601f19601f82011682018060405250810190610c6d9190613a5b565b836040518363ffffffff1660e01b8152600401610c8b929190614496565b602060405180830381600087803b158015610ca557600080fd5b505af1158015610cb9573d6000803e3d6000fd5b505050506040513d601f19601f82011682018060405250810190610cdd9190613ac0565b5050565b60015481565b610cef6137d1565b600f6000838152602001908152602001600020604051806101600160405290816000820154815260200160018201548152602001600282015481526020016003820154815260200160048201548152602001600582015481526020016006820154815260200160078201548152602001600882015481526020016009820160009054906101000a900460ff166002811115610db3577f4e487b7100000000000000000000000000000000000000000000000000000000600052602160045260246000fd5b6002811115610deb577f4e487b7100000000000000000000000000000000000000000000000000000000600052602160045260246000fd5b8152602001600a8201805480602002602001604051908101604052809291908181526020018280548015610e3e57602002820191906000526020600020905b815481526020019060010190808311610e2a575b5050505050815250509050919050565b60075481565b6000601380549050905090565b600c60009054906101000a900460ff1681565b600073ffffffffffffffffffffffffffffffffffffffff168273ffffffffffffffffffffffffffffffffffffffff1614158015610f01575060001515601260003373ffffffffffffffffffffffffffffffffffffffff1673ffffffffffffffffffffffffffffffffffffffff16815260200190815260200160002060009054906101000a900460ff161515145b15610f1157610f108282612439565b5b6000610f1c86612596565b9050610f288185612746565b6000610f34828761279e565b9050610f3f4261076b565b821015610f81576040517f08c379a0000000000000000000000000000000000000000000000000000000008152600401610f78906145a8565b60405180910390fd5b600e6000838152602001908152602001600020600082815260200190815260200160002060020160009054906101000a900473ffffffffffffffffffffffffffffffffffffffff1673ffffffffffffffffffffffffffffffffffffffff163373ffffffffffffffffffffffffffffffffffffffff161415611037576040517f08c379a000000000000000000000000000000000000000000000000000000000815260040161102e90614668565b60405180910390fd5b60006110438387612385565b905080600e600085815260200190815260200160002060008481526020019081526020016000206003015461107891906149dd565b600960009054906101000a900473ffffffffffffffffffffffffffffffffffffffff1673ffffffffffffffffffffffffffffffffffffffff1663dd62ed3e33306040518363ffffffff1660e01b81526004016110d59291906143f8565b60206040518083038186803b1580156110ed57600080fd5b505afa158015611101573d6000803e3d6000fd5b505050506040513d601f19601f820116820180604052508101906111259190613b61565b1015611166576040517f08c379a000000000000000000000000000000000000000000000000000000000815260040161115d90614688565b60405180910390fd5b600960009054906101000a900473ffffffffffffffffffffffffffffffffffffffff1673ffffffffffffffffffffffffffffffffffffffff166323b872dd333084600e60008981526020019081526020016000206000888152602001908152602001600020600301546111d991906149dd565b6040518463ffffffff1660e01b81526004016111f79392919061445f565b602060405180830381600087803b15801561121157600080fd5b505af1158015611225573d6000803e3d6000fd5b505050506040513d601f19601f820116820180604052508101906112499190613ac0565b5080600f60008581526020019081526020016000206003015461126c91906149dd565b600f600085815260200190815260200160002060030181905550600160028111156112c0577f4e487b7100000000000000000000000000000000000000000000000000000000600052602160045260246000fd5b600e6000858152602001908152602001600020600084815260200190815260200160002060040160009054906101000a900460ff16600281111561132d577f4e487b7100000000000000000000000000000000000000000000000000000000600052602160045260246000fd5b14156114d357600061136684600e6000878152602001908152602001600020600086815260200190815260200160002060030154612385565b9050600960009054906101000a900473ffffffffffffffffffffffffffffffffffffffff1673ffffffffffffffffffffffffffffffffffffffff1663a9059cbb600e6000878152602001908152602001600020600086815260200190815260200160002060020160009054906101000a900473ffffffffffffffffffffffffffffffffffffffff16600e60008881526020019081526020016000206000878152602001908152602001600020600301548461142191906149dd565b6040518363ffffffff1660e01b815260040161143e929190614496565b602060405180830381600087803b15801561145857600080fd5b505af115801561146c573d6000803e3d6000fd5b505050506040513d601f19601f820116820180604052508101906114909190613ac0565b5080600f6000868152602001908152602001600020600301546114b39190614aef565b600f6000868152602001908152602001600020600301819055505061154a565b6001600e6000858152602001908152602001600020600084815260200190815260200160002060040160006101000a81548160ff02191690836002811115611544577f4e487b7100000000000000000000000000000000000000000000000000000000600052602160045260246000fd5b02179055505b33600e6000858152602001908152602001600020600084815260200190815260200160002060020160006101000a81548173ffffffffffffffffffffffffffffffffffffffff021916908373ffffffffffffffffffffffffffffffffffffffff16021790555085600e6000858152602001908152602001600020600084815260200190815260200160002060030181905550601060003373ffffffffffffffffffffffffffffffffffffffff1673ffffffffffffffffffffffffffffffffffffffff1681526020019081526020016000208390806001815401808255809150506001900390600052602060002001600090919091909150556001601260003373ffffffffffffffffffffffffffffffffffffffff1673ffffffffffffffffffffffffffffffffffffffff16815260200190815260200160002060006101000a81548160ff0219169083151502179055506116a261181d565b7ff733bd7f4402cb7d331b34d5cd22f432b9bf71a833f786974545860d74976af283600f600086815260200190815260200160002060010154600f600087815260200190815260200160002060020154600f600088815260200190815260200160002060050154600f600089815260200190815260200160002060060154600f60008a815260200190815260200160002060070154600f60008b815260200190815260200160002060080154600f60008c8152602001908152602001600020600301546040516117799897969594939291906147fc565b60405180910390a17f74c5c6f5cd4370cc0ab554a1afdb2b24b051b40c99102354ef424aed5cd6409d83600e600086815260200190815260200160002060008581526020019081526020016000206040516117d5929190614780565b60405180910390a15050505050505050565b60008082116117fa576005549050611818565b6005546005548361180b9190614a64565b6118159190614a95565b90505b919050565b60006118284261076b565b90506003546000548261183b91906149dd565b6118459190614aef565b42101561197e57611877600460009054906101000a900473ffffffffffffffffffffffffffffffffffffffff16612901565b8063ffffffff169050600f60008581526020019081526020016000206005016000600f60008781526020019081526020016000206007016000600f60008981526020019081526020016000206001016000869190505585919050558491905055505050600f600082815260200190815260200160002060050154600f600083815260200190815260200160002060070154600f600084815260200190815260200160002060010154600f60008581526020019081526020016000206006016000600f60008781526020019081526020016000206008016000600f60008981526020019081526020016000206002016000869190505585919050558491905055505050611a2f565b6003546000548261198f91906149dd565b6119999190614aef565b4210611a2e576119ca600460009054906101000a900473ffffffffffffffffffffffffffffffffffffffff16612901565b8063ffffffff169050600f60008581526020019081526020016000206006016000600f60008781526020019081526020016000206008016000600f600089815260200190815260200160002060020160008691905055859190505584919050555050505b5b7ff733bd7f4402cb7d331b34d5cd22f432b9bf71a833f786974545860d74976af281600f600084815260200190815260200160002060010154600f600085815260200190815260200160002060020154600f600086815260200190815260200160002060050154600f600087815260200190815260200160002060060154600f600088815260200190815260200160002060070154600f600089815260200190815260200160002060080154600f60008a815260200190815260200160002060030154604051611b069897969594939291906147fc565b60405180910390a150565b600f6020528060005260406000206000915090508060000154908060010154908060020154908060030154908060040154908060050154908060060154908060070154908060080154908060090160009054906101000a900460ff1690508a565b60116020528060005260406000206000915090508060000160009054906101000a900473ffffffffffffffffffffffffffffffffffffffff16908060010160009054906101000a900473ffffffffffffffffffffffffffffffffffffffff1690806002018054611be190614d20565b80601f0160208091040260200160405190810160405280929190818152602001828054611c0d90614d20565b8015611c5a5780601f10611c2f57610100808354040283529160200191611c5a565b820191906000526020600020905b815481529060010190602001808311611c3d57829003601f168201915b5050505050905083565b6060600f6000838152602001908152602001600020600a01805480602002602001604051908101604052809291908181526020018280548015611cc657602002820191906000526020600020905b815481526020019060010190808311611cb2575b50505050509050919050565b611cdb81612b5c565b611ce4816131b0565b50565b600e602052816000526040600020602052806000526040600020600091509150508060000154908060010154908060020160009054906101000a900473ffffffffffffffffffffffffffffffffffffffff16908060030154908060040160009054906101000a900460ff16905085565b6000611d6284612596565b9050611d6e8183612746565b6000611d7a828561279e565b90503373ffffffffffffffffffffffffffffffffffffffff16600e6000848152602001908152602001600020600083815260200190815260200160002060020160009054906101000a900473ffffffffffffffffffffffffffffffffffffffff1673ffffffffffffffffffffffffffffffffffffffff1614611e31576040517f08c379a0000000000000000000000000000000000000000000000000000000008152600401611e28906145c8565b60405180910390fd5b611e3a4261076b565b821015611e7c576040517f08c379a0000000000000000000000000000000000000000000000000000000008152600401611e73906146e8565b60405180910390fd5b6000611e888385612385565b90506000611ebd84600e6000878152602001908152602001600020600086815260200190815260200160002060030154612385565b9050808211156120ca578082611ed39190614aef565b600960009054906101000a900473ffffffffffffffffffffffffffffffffffffffff1673ffffffffffffffffffffffffffffffffffffffff1663dd62ed3e33306040518363ffffffff1660e01b8152600401611f309291906143f8565b60206040518083038186803b158015611f4857600080fd5b505afa158015611f5c573d6000803e3d6000fd5b505050506040513d601f19601f82011682018060405250810190611f809190613b61565b1015611fc1576040517f08c379a0000000000000000000000000000000000000000000000000000000008152600401611fb890614688565b60405180910390fd5b600960009054906101000a900473ffffffffffffffffffffffffffffffffffffffff1673ffffffffffffffffffffffffffffffffffffffff166323b872dd3330848661200d9190614aef565b6040518463ffffffff1660e01b815260040161202b9392919061445f565b602060405180830381600087803b15801561204557600080fd5b505af1158015612059573d6000803e3d6000fd5b505050506040513d601f19601f8201168201806040525081019061207d9190613ac0565b50808261208a9190614aef565b600f6000868152602001908152602001600020600301546120ab91906149dd565b600f6000868152602001908152602001600020600301819055506121d6565b808210156121d557600960009054906101000a900473ffffffffffffffffffffffffffffffffffffffff1673ffffffffffffffffffffffffffffffffffffffff1663a9059cbb33848461211d9190614aef565b6040518363ffffffff1660e01b815260040161213a929190614496565b602060405180830381600087803b15801561215457600080fd5b505af1158015612168573d6000803e3d6000fd5b505050506040513d601f19601f8201168201806040525081019061218c9190613ac0565b5081816121999190614aef565b600f6000868152602001908152602001600020600301546121ba9190614aef565b600f6000868152602001908152602001600020600301819055505b5b84600e600086815260200190815260200160002060008581526020019081526020016000206003018190555061220a61181d565b7f74c5c6f5cd4370cc0ab554a1afdb2b24b051b40c99102354ef424aed5cd6409d84600e6000878152602001908152602001600020600086815260200190815260200160002060405161225e929190614780565b60405180910390a150505050505050565b600860009054906101000a900473ffffffffffffffffffffffffffffffffffffffff1681565b600460009054906101000a900473ffffffffffffffffffffffffffffffffffffffff1681565b6001600f600084815260200190815260200160002060090160006101000a81548160ff0219169083600281111561231b577f4e487b7100000000000000000000000000000000000000000000000000000000600052602160045260246000fd5b021790555080600f6000848152602001908152602001600020600401819055505050565b60126020528060005260406000206000915054906101000a900460ff1681565b600960009054906101000a900473ffffffffffffffffffffffffffffffffffffffff1681565b600080600054620186a060075485600d546123a09190614a95565b6123aa9190614a95565b6123b49190614a64565b6123be9190614a64565b9050600d548142600054876123d391906149dd565b6123dd9190614aef565b6123e79190614a95565b6123f19190614a64565b91505092915050565b60005481565b6000600f600083815260200190815260200160002060090160009054906101000a900460ff169050919050565b600d5481565b60035481565b33601160003373ffffffffffffffffffffffffffffffffffffffff1673ffffffffffffffffffffffffffffffffffffffff16815260200190815260200160002060000160006101000a81548173ffffffffffffffffffffffffffffffffffffffff021916908373ffffffffffffffffffffffffffffffffffffffff16021790555081601160003373ffffffffffffffffffffffffffffffffffffffff1673ffffffffffffffffffffffffffffffffffffffff16815260200190815260200160002060010160006101000a81548173ffffffffffffffffffffffffffffffffffffffff021916908373ffffffffffffffffffffffffffffffffffffffff16021790555080601160003373ffffffffffffffffffffffffffffffffffffffff1673ffffffffffffffffffffffffffffffffffffffff1681526020019081526020016000206002019080519060200190612591929190613863565b505050565b6000806125a28361076b565b9050600060028111156125de577f4e487b7100000000000000000000000000000000000000000000000000000000600052602160045260246000fd5b600f600083815260200190815260200160002060090160009054906101000a900460ff16600281111561263a577f4e487b7100000000000000000000000000000000000000000000000000000000600052602160045260246000fd5b146126485780915050612741565b6126514261076b565b811015612693576040517f08c379a000000000000000000000000000000000000000000000000000000000815260040161268a906146c8565b60405180910390fd5b80600f6000838152602001908152602001600020600001819055506001600f600083815260200190815260200160002060090160006101000a81548160ff0219169083600281111561270e577f4e487b7100000000000000000000000000000000000000000000000000000000600052602160045260246000fd5b02179055506013819080600181540180825580915050600190039060005260206000200160009091909190915055809150505b919050565b60006127528383612385565b9050600b54811015612799576040517f08c379a000000000000000000000000000000000000000000000000000000000815260040161279090614648565b60405180910390fd5b505050565b6000806127aa836117e7565b9050600060028111156127e6577f4e487b7100000000000000000000000000000000000000000000000000000000600052602160045260246000fd5b600e6000868152602001908152602001600020600083815260200190815260200160002060040160009054906101000a900460ff166002811115612853577f4e487b7100000000000000000000000000000000000000000000000000000000600052602160045260246000fd5b1461286157809150506128fb565b83600e600086815260200190815260200160002060008381526020019081526020016000206000018190555080600e6000868152602001908152602001600020600083815260200190815260200160002060010181905550600f6000858152602001908152602001600020600a01819080600181540180825580915050600190039060005260206000200160009091909190915055809150505b92915050565b600080600061290e613629565b90508373ffffffffffffffffffffffffffffffffffffffff16635909c0d56040518163ffffffff1660e01b815260040160206040518083038186803b15801561295657600080fd5b505afa15801561296a573d6000803e3d6000fd5b505050506040513d601f19601f8201168201806040525081019061298e9190613b61565b92508373ffffffffffffffffffffffffffffffffffffffff16635a3d54936040518163ffffffff1660e01b815260040160206040518083038186803b1580156129d657600080fd5b505afa1580156129ea573d6000803e3d6000fd5b505050506040513d601f19601f82011682018060405250810190612a0e9190613b61565b915060008060008673ffffffffffffffffffffffffffffffffffffffff16630902f1ac6040518163ffffffff1660e01b815260040160606040518083038186803b158015612a5b57600080fd5b505afa158015612a6f573d6000803e3d6000fd5b505050506040513d601f19601f82011682018060405250810190612a939190613ae9565b9250925092508363ffffffff168163ffffffff1614612b525760008185612aba9190614b23565b90508063ffffffff16612acd8486613641565b600001517bffffffffffffffffffffffffffffffffffffffffffffffffffffffff16612af99190614a95565b87612b0491906149dd565b96508063ffffffff16612b178585613641565b600001517bffffffffffffffffffffffffffffffffffffffffffffffffffffffff16612b439190614a95565b86612b4e91906149dd565b9550505b5050509193909250565b612b65816107df565b4260005482612b7491906149dd565b1115612bb5576040517f08c379a0000000000000000000000000000000000000000000000000000000008152600401612bac90614568565b60405180910390fd5b6002600f600083815260200190815260200160002060090160006101000a81548160ff02191690836002811115612c15577f4e487b7100000000000000000000000000000000000000000000000000000000600052602160045260246000fd5b02179055506000600860009054906101000a900473ffffffffffffffffffffffffffffffffffffffff1673ffffffffffffffffffffffffffffffffffffffff16638da5cb5b6040518163ffffffff1660e01b815260040160206040518083038186803b158015612c8457600080fd5b505afa158015612c98573d6000803e3d6000fd5b505050506040513d601f19601f82011682018060405250810190612cbc9190613a5b565b90506000600f600084815260200190815260200160002060010154600f600085815260200190815260200160002060020154612cf89190614aef565b9050600c60009054906101000a900460ff1615612db557612d86604051806020016040528083600f600088815260200190815260200160002060050154600f600089815260200190815260200160002060060154612d569190614aef565b612d609190614a64565b7bffffffffffffffffffffffffffffffffffffffffffffffffffffffff16815250613721565b6dffffffffffffffffffffffffffff16600f600085815260200190815260200160002060040181905550612e57565b612e2c604051806020016040528083600f600088815260200190815260200160002060070154600f600089815260200190815260200160002060080154612dfc9190614aef565b612e069190614a64565b7bffffffffffffffffffffffffffffffffffffffffffffffffffffffff16815250613721565b6dffffffffffffffffffffffffffff16600f6000858152602001908152602001600020600401819055505b600d54600f600085815260200190815260200160002060040154612e7b9190614a95565b600f6000858152602001908152602001600020600401819055506000620186a0600654600f600087815260200190815260200160002060030154612ebf9190614a95565b612ec99190614a64565b90506000620186a0600254600f600088815260200190815260200160002060030154612ef59190614a95565b612eff9190614a64565b90508082600f600088815260200190815260200160002060030154612f249190614aef565b612f2e9190614aef565b600f600087815260200190815260200160002060030181905550600960009054906101000a900473ffffffffffffffffffffffffffffffffffffffff1673ffffffffffffffffffffffffffffffffffffffff1663a9059cbb600a60009054906101000a900473ffffffffffffffffffffffffffffffffffffffff16846040518363ffffffff1660e01b8152600401612fc7929190614496565b602060405180830381600087803b158015612fe157600080fd5b505af1158015612ff5573d6000803e3d6000fd5b505050506040513d601f19601f820116820180604052508101906130199190613ac0565b50600960009054906101000a900473ffffffffffffffffffffffffffffffffffffffff1673ffffffffffffffffffffffffffffffffffffffff1663a9059cbb85836040518363ffffffff1660e01b8152600401613077929190614496565b602060405180830381600087803b15801561309157600080fd5b505af11580156130a5573d6000803e3d6000fd5b505050506040513d601f19601f820116820180604052508101906130c99190613ac0565b507ff733bd7f4402cb7d331b34d5cd22f432b9bf71a833f786974545860d74976af285600f600088815260200190815260200160002060010154600f600089815260200190815260200160002060020154600f60008a815260200190815260200160002060050154600f60008b815260200190815260200160002060060154600f60008c815260200190815260200160002060070154600f60008d815260200190815260200160002060080154600f60008e8152602001908152602001600020600301546040516131a19897969594939291906147fc565b60405180910390a15050505050565b6002808111156131e9577f4e487b7100000000000000000000000000000000000000000000000000000000600052602160045260246000fd5b600f600083815260200190815260200160002060090160009054906101000a900460ff166002811115613245577f4e487b7100000000000000000000000000000000000000000000000000000000600052602160045260246000fd5b14613285576040517f08c379a000000000000000000000000000000000000000000000000000000000815260040161327c906146a8565b60405180910390fd5b60006132a6600f6000848152602001908152602001600020600401546117e7565b90506002808111156132e1577f4e487b7100000000000000000000000000000000000000000000000000000000600052602160045260246000fd5b600e6000848152602001908152602001600020600083815260200190815260200160002060040160009054906101000a900460ff16600281111561334e577f4e487b7100000000000000000000000000000000000000000000000000000000600052602160045260246000fd5b141561338f576040517f08c379a000000000000000000000000000000000000000000000000000000000815260040161338690614628565b60405180910390fd5b600073ffffffffffffffffffffffffffffffffffffffff16600e6000848152602001908152602001600020600083815260200190815260200160002060020160009054906101000a900473ffffffffffffffffffffffffffffffffffffffff1673ffffffffffffffffffffffffffffffffffffffff161415613446576040517f08c379a000000000000000000000000000000000000000000000000000000000815260040161343d906145e8565b60405180910390fd5b600960009054906101000a900473ffffffffffffffffffffffffffffffffffffffff1673ffffffffffffffffffffffffffffffffffffffff1663a9059cbb600e6000858152602001908152602001600020600084815260200190815260200160002060020160009054906101000a900473ffffffffffffffffffffffffffffffffffffffff16600f6000868152602001908152602001600020600301546040518363ffffffff1660e01b8152600401613500929190614496565b602060405180830381600087803b15801561351a57600080fd5b505af115801561352e573d6000803e3d6000fd5b505050506040513d601f19601f820116820180604052508101906135529190613ac0565b506002600e6000848152602001908152602001600020600083815260200190815260200160002060040160006101000a81548160ff021916908360028111156135c4577f4e487b7100000000000000000000000000000000000000000000000000000000600052602160045260246000fd5b02179055507f74c5c6f5cd4370cc0ab554a1afdb2b24b051b40c99102354ef424aed5cd6409d82600e6000858152602001908152602001600020600084815260200190815260200160002060405161361d929190614780565b60405180910390a15050565b60006401000000004261363c9190614da0565b905090565b6136496138e9565b6000826dffffffffffffffffffffffffffff161161369c576040517f08c379a000000000000000000000000000000000000000000000000000000000815260040161369390614708565b60405180910390fd5b6040518060200160405280836dffffffffffffffffffffffffffff16607060ff16866dffffffffffffffffffffffffffff167bffffffffffffffffffffffffffffffffffffffffffffffffffffffff16901b6136f89190614a33565b7bffffffffffffffffffffffffffffffffffffffffffffffffffffffff16815250905092915050565b6000607060ff1682600001517bffffffffffffffffffffffffffffffffffffffffffffffffffffffff16901c9050919050565b6040518060a001604052806000815260200160008152602001600073ffffffffffffffffffffffffffffffffffffffff16815260200160008152602001600060028111156137cb577f4e487b7100000000000000000000000000000000000000000000000000000000600052602160045260246000fd5b81525090565b60405180610160016040528060008152602001600081526020016000815260200160008152602001600081526020016000815260200160008152602001600081526020016000815260200160006002811115613856577f4e487b7100000000000000000000000000000000000000000000000000000000600052602160045260246000fd5b8152602001606081525090565b82805461386f90614d20565b90600052602060002090601f01602090048101928261389157600085556138d8565b82601f106138aa57805160ff19168380011785556138d8565b828001600101855582156138d8579182015b828111156138d75782518255916020019190600101906138bc565b5b5090506138e5919061391a565b5090565b604051806020016040528060007bffffffffffffffffffffffffffffffffffffffffffffffffffffffff1681525090565b5b8082111561393357600081600090555060010161391b565b5090565b600061394a61394584614947565b614916565b90508281526020810184848401111561396257600080fd5b61396d848285614cde565b509392505050565b60008135905061398481614f02565b92915050565b60008151905061399981614f02565b92915050565b6000815190506139ae81614f19565b92915050565b600082601f8301126139c557600080fd5b81356139d5848260208601613937565b91505092915050565b6000815190506139ed81614f30565b92915050565b600081359050613a0281614f47565b92915050565b600081519050613a1781614f47565b92915050565b600081519050613a2c81614f5e565b92915050565b600060208284031215613a4457600080fd5b6000613a5284828501613975565b91505092915050565b600060208284031215613a6d57600080fd5b6000613a7b8482850161398a565b91505092915050565b60008060408385031215613a9757600080fd5b6000613aa585828601613975565b9250506020613ab6858286016139f3565b9150509250929050565b600060208284031215613ad257600080fd5b6000613ae08482850161399f565b91505092915050565b600080600060608486031215613afe57600080fd5b6000613b0c868287016139de565b9350506020613b1d868287016139de565b9250506040613b2e86828701613a1d565b9150509250925092565b600060208284031215613b4a57600080fd5b6000613b58848285016139f3565b91505092915050565b600060208284031215613b7357600080fd5b6000613b8184828501613a08565b91505092915050565b60008060408385031215613b9d57600080fd5b6000613bab858286016139f3565b9250506020613bbc858286016139f3565b9150509250929050565b600080600060608486031215613bdb57600080fd5b6000613be9868287016139f3565b9350506020613bfa868287016139f3565b9250506040613c0b868287016139f3565b9150509250925092565b600080600080600060a08688031215613c2d57600080fd5b6000613c3b888289016139f3565b9550506020613c4c888289016139f3565b9450506040613c5d888289016139f3565b9350506060613c6e88828901613975565b925050608086013567ffffffffffffffff811115613c8b57600080fd5b613c97888289016139b4565b9150509295509295909350565b6000613cb083836143bf565b60208301905092915050565b613cc581614b8e565b82525050565b613cd481614b8e565b82525050565b6000613ce582614987565b613cef81856149aa565b9350613cfa83614977565b8060005b83811015613d2b578151613d128882613ca4565b9750613d1d8361499d565b925050600181019050613cfe565b5085935050505092915050565b6000613d4382614987565b613d4d81856149bb565b9350613d5883614977565b8060005b83811015613d89578151613d708882613ca4565b9750613d7b8361499d565b925050600181019050613d5c565b5085935050505092915050565b613d9f81614ba0565b82525050565b613dae81614c4e565b82525050565b613dbd81614c72565b82525050565b613dcc81614c96565b82525050565b613ddb81614cba565b82525050565b613dea81614cba565b82525050565b613df981614ccc565b82525050565b613e0881614ccc565b82525050565b6000613e1982614992565b613e2381856149cc565b9350613e33818560208601614ced565b613e3c81614ebc565b840191505092915050565b6000613e54601a836149cc565b91507f4652414d4520454e442054494d45204e4f5420524541434845440000000000006000830152602082019050919050565b6000613e946015836149cc565b91507f4e4f542054484520464143544f5259204f574e455200000000000000000000006000830152602082019050919050565b6000613ed4600b836149cc565b91507f4c4f5420494e20504153540000000000000000000000000000000000000000006000830152602082019050919050565b6000613f14600d836149cc565b91507f4e4f54204c4f54204f574e4552000000000000000000000000000000000000006000830152602082019050919050565b6000613f546008836149cc565b91507f4e4f204f574e45520000000000000000000000000000000000000000000000006000830152602082019050919050565b6000613f946013836149cc565b91507f494e56414c4944204652414d45205052494345000000000000000000000000006000830152602082019050919050565b6000613fd46013836149cc565b91507f4c4f5420414c524541445920534554544c4544000000000000000000000000006000830152602082019050919050565b60006140146010836149cc565b91507f505249434520495320544f4f204c4f57000000000000000000000000000000006000830152602082019050919050565b6000614054600d836149cc565b91507f414c5245414459204f574e4552000000000000000000000000000000000000006000830152602082019050919050565b60006140946019836149cc565b91507f415050524f56454420414d4f554e5420544f4f20534d414c4c000000000000006000830152602082019050919050565b60006140d46010836149cc565b91507f4652414d45204e4f5420434c4f534544000000000000000000000000000000006000830152602082019050919050565b6000614114600d836149cc565b91507f4652414d4520494e2050415354000000000000000000000000000000000000006000830152602082019050919050565b60006141546011836149cc565b91507f4c4f5420494e2050415354204652414d450000000000000000000000000000006000830152602082019050919050565b60006141946017836149cc565b91507f4669786564506f696e743a204449565f42595f5a45524f0000000000000000006000830152602082019050919050565b6000610160830160008301516141e060008601826143bf565b5060208301516141f360208601826143bf565b50604083015161420660408601826143bf565b50606083015161421960608601826143bf565b50608083015161422c60808601826143bf565b5060a083015161423f60a08601826143bf565b5060c083015161425260c08601826143bf565b5060e083015161426560e08601826143bf565b5061010083015161427a6101008601826143bf565b5061012083015161428f610120860182613dd2565b506101408301518482036101408601526142a98282613cda565b9150508091505092915050565b60a0820160008201516142cc60008501826143bf565b5060208201516142df60208501826143bf565b5060408201516142f26040850182613cbc565b50606082015161430560608501826143bf565b5060808201516143186080850182613df0565b50505050565b60a08201600080830154905061433381614d86565b61434060008601826143bf565b506001830154905061435181614d86565b61435e60208601826143bf565b506002830154905061436f81614d52565b61437c6040860182613cbc565b506003830154905061438d81614d86565b61439a60608601826143bf565b50600483015490506143ab81614d6c565b6143b86080860182613df0565b5050505050565b6143c881614c34565b82525050565b6143d781614c34565b82525050565b60006020820190506143f26000830184613ccb565b92915050565b600060408201905061440d6000830185613ccb565b61441a6020830184613ccb565b9392505050565b60006060820190506144366000830186613ccb565b6144436020830185613ccb565b81810360408301526144558184613e0e565b9050949350505050565b60006060820190506144746000830186613ccb565b6144816020830185613ccb565b61448e60408301846143ce565b949350505050565b60006040820190506144ab6000830185613ccb565b6144b860208301846143ce565b9392505050565b600060208201905081810360008301526144d98184613d38565b905092915050565b60006020820190506144f66000830184613d96565b92915050565b60006020820190506145116000830184613da5565b92915050565b600060208201905061452c6000830184613db4565b92915050565b60006020820190506145476000830184613dc3565b92915050565b60006020820190506145626000830184613de1565b92915050565b6000602082019050818103600083015261458181613e47565b9050919050565b600060208201905081810360008301526145a181613e87565b9050919050565b600060208201905081810360008301526145c181613ec7565b9050919050565b600060208201905081810360008301526145e181613f07565b9050919050565b6000602082019050818103600083015261460181613f47565b9050919050565b6000602082019050818103600083015261462181613f87565b9050919050565b6000602082019050818103600083015261464181613fc7565b9050919050565b6000602082019050818103600083015261466181614007565b9050919050565b6000602082019050818103600083015261468181614047565b9050919050565b600060208201905081810360008301526146a181614087565b9050919050565b600060208201905081810360008301526146c1816140c7565b9050919050565b600060208201905081810360008301526146e181614107565b9050919050565b6000602082019050818103600083015261470181614147565b9050919050565b6000602082019050818103600083015261472181614187565b9050919050565b6000602082019050818103600083015261474281846141c7565b905092915050565b600060a08201905061475f60008301846142b6565b92915050565b600060208201905061477a60008301846143ce565b92915050565b600060c08201905061479560008301856143ce565b6147a2602083018461431e565b9392505050565b600060a0820190506147be60008301886143ce565b6147cb60208301876143ce565b6147d86040830186613ccb565b6147e560608301856143ce565b6147f26080830184613dff565b9695505050505050565b600061010082019050614812600083018b6143ce565b61481f602083018a6143ce565b61482c60408301896143ce565b61483960608301886143ce565b61484660808301876143ce565b61485360a08301866143ce565b61486060c08301856143ce565b61486d60e08301846143ce565b9998505050505050505050565b600061014082019050614890600083018d6143ce565b61489d602083018c6143ce565b6148aa604083018b6143ce565b6148b7606083018a6143ce565b6148c460808301896143ce565b6148d160a08301886143ce565b6148de60c08301876143ce565b6148eb60e08301866143ce565b6148f96101008301856143ce565b614907610120830184613de1565b9b9a5050505050505050505050565b6000604051905081810181811067ffffffffffffffff8211171561493d5761493c614e8d565b5b8060405250919050565b600067ffffffffffffffff82111561496257614961614e8d565b5b601f19601f8301169050602081019050919050565b6000819050602082019050919050565b600081519050919050565b600081519050919050565b6000602082019050919050565b600082825260208201905092915050565b600082825260208201905092915050565b600082825260208201905092915050565b60006149e882614c34565b91506149f383614c34565b9250827fffffffffffffffffffffffffffffffffffffffffffffffffffffffffffffffff03821115614a2857614a27614dd1565b5b828201905092915050565b6000614a3e82614c0c565b9150614a4983614c0c565b925082614a5957614a58614e00565b5b828204905092915050565b6000614a6f82614c34565b9150614a7a83614c34565b925082614a8a57614a89614e00565b5b828204905092915050565b6000614aa082614c34565b9150614aab83614c34565b9250817fffffffffffffffffffffffffffffffffffffffffffffffffffffffffffffffff0483118215151615614ae457614ae3614dd1565b5b828202905092915050565b6000614afa82614c34565b9150614b0583614c34565b925082821015614b1857614b17614dd1565b5b828203905092915050565b6000614b2e82614c3e565b9150614b3983614c3e565b925082821015614b4c57614b4b614dd1565b5b828203905092915050565b600073ffffffffffffffffffffffffffffffffffffffff82169050919050565b600060ff82169050919050565b6000819050919050565b6000614b9982614bec565b9050919050565b60008115159050919050565b6000819050614bba82614eda565b919050565b6000819050614bcd82614eee565b919050565b60006dffffffffffffffffffffffffffff82169050919050565b600073ffffffffffffffffffffffffffffffffffffffff82169050919050565b60007bffffffffffffffffffffffffffffffffffffffffffffffffffffffff82169050919050565b6000819050919050565b600063ffffffff82169050919050565b6000614c5982614c60565b9050919050565b6000614c6b82614bec565b9050919050565b6000614c7d82614c84565b9050919050565b6000614c8f82614bec565b9050919050565b6000614ca182614ca8565b9050919050565b6000614cb382614bec565b9050919050565b6000614cc582614bac565b9050919050565b6000614cd782614bbf565b9050919050565b82818337600083830152505050565b60005b83811015614d0b578082015181840152602081019050614cf0565b83811115614d1a576000848401525b50505050565b60006002820490506001821680614d3857607f821691505b60208210811415614d4c57614d4b614e5e565b5b50919050565b6000614d65614d6083614ecd565b614b57565b9050919050565b6000614d7f614d7a83614ecd565b614b77565b9050919050565b6000614d99614d9483614ecd565b614b84565b9050919050565b6000614dab82614c34565b9150614db683614c34565b925082614dc657614dc5614e00565b5b828206905092915050565b7f4e487b7100000000000000000000000000000000000000000000000000000000600052601160045260246000fd5b7f4e487b7100000000000000000000000000000000000000000000000000000000600052601260045260246000fd5b7f4e487b7100000000000000000000000000000000000000000000000000000000600052602160045260246000fd5b7f4e487b7100000000000000000000000000000000000000000000000000000000600052602260045260246000fd5b7f4e487b7100000000000000000000000000000000000000000000000000000000600052604160045260246000fd5b6000601f19601f8301169050919050565b60008160001c9050919050565b60038110614eeb57614eea614e2f565b5b50565b60038110614eff57614efe614e2f565b5b50565b614f0b81614b8e565b8114614f1657600080fd5b50565b614f2281614ba0565b8114614f2d57600080fd5b50565b614f3981614bd2565b8114614f4457600080fd5b50565b614f5081614c34565b8114614f5b57600080fd5b50565b614f6781614c3e565b8114614f7257600080fd5b5056fea26469706673582212208b9b66e9ef5bdd39a0e0c72e4d80f45a7bfefa0eb827af1e04e35505fc48420e64736f6c63430008000033",
  "linkReferences": {},
  "deployedLinkReferences": {}
}