{
  "_format": "hh-sol-artifact-1",
  "contractName": "Market",
  "sourceName": "contracts/Market.sol",
  "abi": [
    {
      "inputs": [
        {
          "internalType": "contract MarketFactory",
          "name": "_factory",
          "type": "address"
        },
        {
          "internalType": "contract IERC20",
          "name": "_token",
          "type": "address"
        },
        {
          "internalType": "contract IUniswapV2Pair",
          "name": "_uniswapPair",
          "type": "address"
        },
        {
          "internalType": "uint256",
          "name": "_period",
          "type": "uint256"
        },
        {
          "internalType": "uint256",
          "name": "_initTimestamp",
          "type": "uint256"
        },
        {
          "internalType": "uint256",
          "name": "_taxMarket",
          "type": "uint256"
        },
        {
          "internalType": "uint256",
          "name": "_feeMarket",
          "type": "uint256"
        },
        {
          "internalType": "uint256",
          "name": "_dPrice",
          "type": "uint256"
        },
        {
          "internalType": "uint256",
          "name": "_tReporting",
          "type": "uint256"
        },
        {
          "internalType": "uint256",
          "name": "_minTax",
          "type": "uint256"
        },
        {
          "internalType": "bool",
          "name": "_avgPriceSwitch",
          "type": "bool"
        }
      ],
      "stateMutability": "nonpayable",
      "type": "constructor"
    },
    {
      "anonymous": false,
      "inputs": [
        {
          "indexed": false,
          "internalType": "uint256",
          "name": "frameKey",
          "type": "uint256"
        },
        {
          "indexed": false,
          "internalType": "uint256",
          "name": "oracleTimestampStart",
          "type": "uint256"
        },
        {
          "indexed": false,
          "internalType": "uint256",
          "name": "oracleTimestampEnd",
          "type": "uint256"
        },
        {
          "indexed": false,
          "internalType": "uint256",
          "name": "oraclePrice0CumulativeStart",
          "type": "uint256"
        },
        {
          "indexed": false,
          "internalType": "uint256",
          "name": "oraclePrice0CumulativeEnd",
          "type": "uint256"
        },
        {
          "indexed": false,
          "internalType": "uint256",
          "name": "oraclePrice1CumulativeStart",
          "type": "uint256"
        },
        {
          "indexed": false,
          "internalType": "uint256",
          "name": "oraclePrice1CumulativeEnd",
          "type": "uint256"
        },
        {
          "indexed": false,
          "internalType": "uint256",
          "name": "rewardFund",
          "type": "uint256"
        }
      ],
      "name": "FrameUpdate",
      "type": "event"
    },
    {
      "anonymous": false,
      "inputs": [
        {
          "indexed": false,
          "internalType": "uint256",
          "name": "frameKey",
          "type": "uint256"
        },
        {
          "components": [
            {
              "internalType": "uint256",
              "name": "frameKey",
              "type": "uint256"
            },
            {
              "internalType": "uint256",
              "name": "lotKey",
              "type": "uint256"
            },
            {
              "internalType": "address",
              "name": "lotOwner",
              "type": "address"
            },
            {
              "internalType": "uint256",
              "name": "acquisitionPrice",
              "type": "uint256"
            },
            {
              "internalType": "enum Market.SLot",
              "name": "state",
              "type": "uint8"
            }
          ],
          "indexed": false,
          "internalType": "struct Market.Lot",
          "name": "lotStruct",
          "type": "tuple"
        }
      ],
      "name": "LotUpdate",
      "type": "event"
    },
    {
      "inputs": [],
      "name": "accountingToken",
      "outputs": [
        {
          "internalType": "contract IERC20",
          "name": "",
          "type": "address"
        }
      ],
      "stateMutability": "view",
      "type": "function"
    },
    {
      "inputs": [],
      "name": "avgPriceSwitch",
      "outputs": [
        {
          "internalType": "bool",
          "name": "",
          "type": "bool"
        }
      ],
      "stateMutability": "view",
      "type": "function"
    },
    {
      "inputs": [
        {
          "internalType": "uint256",
          "name": "timestamp",
          "type": "uint256"
        },
        {
          "internalType": "uint256",
          "name": "pairPrice",
          "type": "uint256"
        },
        {
          "internalType": "uint256",
          "name": "acqPrice",
          "type": "uint256"
        }
      ],
      "name": "buyLot",
      "outputs": [],
      "stateMutability": "nonpayable",
      "type": "function"
    },
    {
      "inputs": [
        {
          "internalType": "uint256",
          "name": "frameKey",
          "type": "uint256"
        }
      ],
      "name": "claimReward",
      "outputs": [],
      "stateMutability": "nonpayable",
      "type": "function"
    },
    {
      "inputs": [
        {
          "internalType": "uint256",
          "name": "timestamp",
          "type": "uint256"
        },
        {
          "internalType": "uint256",
          "name": "pairPrice",
          "type": "uint256"
        },
        {
          "internalType": "uint256",
          "name": "acqPrice",
          "type": "uint256"
        }
      ],
      "name": "clcAmountToApprove",
      "outputs": [
        {
          "internalType": "uint256",
          "name": "cmpltAmnt",
          "type": "uint256"
        }
      ],
      "stateMutability": "view",
      "type": "function"
    },
    {
      "inputs": [
        {
          "internalType": "uint256",
          "name": "timestamp",
          "type": "uint256"
        },
        {
          "internalType": "uint256",
          "name": "pairPrice",
          "type": "uint256"
        },
        {
          "internalType": "uint256",
          "name": "acqPrice",
          "type": "uint256"
        }
      ],
      "name": "clcAmountToApproveForUpdate",
      "outputs": [
        {
          "internalType": "uint256",
          "name": "amnt",
          "type": "uint256"
        }
      ],
      "stateMutability": "view",
      "type": "function"
    },
    {
      "inputs": [
        {
          "internalType": "uint256",
          "name": "timestamp",
          "type": "uint256"
        }
      ],
      "name": "clcFrameTimestamp",
      "outputs": [
        {
          "internalType": "uint256",
          "name": "",
          "type": "uint256"
        }
      ],
      "stateMutability": "view",
      "type": "function"
    },
    {
      "inputs": [
        {
          "internalType": "uint256",
          "name": "value",
          "type": "uint256"
        }
      ],
      "name": "clcLotKey",
      "outputs": [
        {
          "internalType": "uint256",
          "name": "",
          "type": "uint256"
        }
      ],
      "stateMutability": "view",
      "type": "function"
    },
    {
      "inputs": [
        {
          "internalType": "uint256",
          "name": "frameKey",
          "type": "uint256"
        }
      ],
      "name": "clcPrice",
      "outputs": [
        {
          "internalType": "uint256",
          "name": "avgPrice",
          "type": "uint256"
        }
      ],
      "stateMutability": "view",
      "type": "function"
    },
    {
      "inputs": [],
      "name": "dPrice",
      "outputs": [
        {
          "internalType": "uint256",
          "name": "",
          "type": "uint256"
        }
      ],
      "stateMutability": "view",
      "type": "function"
    },
    {
      "inputs": [],
      "name": "factory",
      "outputs": [
        {
          "internalType": "contract MarketFactory",
          "name": "",
          "type": "address"
        }
      ],
      "stateMutability": "view",
      "type": "function"
    },
    {
      "inputs": [],
      "name": "feeMarket",
      "outputs": [
        {
          "internalType": "uint256",
          "name": "",
          "type": "uint256"
        }
      ],
      "stateMutability": "view",
      "type": "function"
    },
    {
      "inputs": [],
      "name": "feeProtocol",
      "outputs": [
        {
          "internalType": "uint256",
          "name": "",
          "type": "uint256"
        }
      ],
      "stateMutability": "view",
      "type": "function"
    },
    {
      "inputs": [
        {
          "internalType": "uint256",
          "name": "",
          "type": "uint256"
        }
      ],
      "name": "frames",
      "outputs": [
        {
          "internalType": "uint256",
          "name": "frameKey",
          "type": "uint256"
        },
        {
          "internalType": "uint256",
          "name": "oracleTimestampStart",
          "type": "uint256"
        },
        {
          "internalType": "uint256",
          "name": "oracleTimestampEnd",
          "type": "uint256"
        },
        {
          "internalType": "uint256",
          "name": "rewardFund",
          "type": "uint256"
        },
        {
          "internalType": "uint256",
          "name": "priceAverage",
          "type": "uint256"
        },
        {
          "internalType": "uint256",
          "name": "oraclePrice0CumulativeStart",
          "type": "uint256"
        },
        {
          "internalType": "uint256",
          "name": "oraclePrice0CumulativeEnd",
          "type": "uint256"
        },
        {
          "internalType": "uint256",
          "name": "oraclePrice1CumulativeStart",
          "type": "uint256"
        },
        {
          "internalType": "uint256",
          "name": "oraclePrice1CumulativeEnd",
          "type": "uint256"
        },
        {
          "internalType": "enum Market.SFrame",
          "name": "state",
          "type": "uint8"
        }
      ],
      "stateMutability": "view",
      "type": "function"
    },
    {
      "inputs": [
        {
          "internalType": "uint256",
          "name": "",
          "type": "uint256"
        }
      ],
      "name": "framesKeys",
      "outputs": [
        {
          "internalType": "uint256",
          "name": "",
          "type": "uint256"
        }
      ],
      "stateMutability": "view",
      "type": "function"
    },
    {
      "inputs": [
        {
          "internalType": "uint256",
          "name": "frameKey",
          "type": "uint256"
        },
        {
          "internalType": "uint256",
          "name": "lotKey",
          "type": "uint256"
        }
      ],
      "name": "getLot",
      "outputs": [
        {
          "components": [
            {
              "internalType": "uint256",
              "name": "frameKey",
              "type": "uint256"
            },
            {
              "internalType": "uint256",
              "name": "lotKey",
              "type": "uint256"
            },
            {
              "internalType": "address",
              "name": "lotOwner",
              "type": "address"
            },
            {
              "internalType": "uint256",
              "name": "acquisitionPrice",
              "type": "uint256"
            },
            {
              "internalType": "enum Market.SLot",
              "name": "state",
              "type": "uint8"
            }
          ],
          "internalType": "struct Market.Lot",
          "name": "",
          "type": "tuple"
        }
      ],
      "stateMutability": "view",
      "type": "function"
    },
    {
      "inputs": [
        {
          "internalType": "uint256",
          "name": "frameKey",
          "type": "uint256"
        },
        {
          "internalType": "uint256",
          "name": "index",
          "type": "uint256"
        }
      ],
      "name": "getLotKey",
      "outputs": [
        {
          "internalType": "uint256",
          "name": "",
          "type": "uint256"
        }
      ],
      "stateMutability": "view",
      "type": "function"
    },
    {
      "inputs": [
        {
          "internalType": "uint256",
          "name": "frameKey",
          "type": "uint256"
        }
      ],
      "name": "getLotsCount",
      "outputs": [
        {
          "internalType": "uint256",
          "name": "",
          "type": "uint256"
        }
      ],
      "stateMutability": "view",
      "type": "function"
    },
    {
      "inputs": [
        {
          "internalType": "address",
          "name": "user",
          "type": "address"
        }
      ],
      "name": "getNumOfUserFrames",
      "outputs": [
        {
          "internalType": "uint256",
          "name": "",
          "type": "uint256"
        }
      ],
      "stateMutability": "view",
      "type": "function"
    },
    {
      "inputs": [],
      "name": "getNumberOfFrameKeys",
      "outputs": [
        {
          "internalType": "uint256",
          "name": "",
          "type": "uint256"
        }
      ],
      "stateMutability": "view",
      "type": "function"
    },
    {
      "inputs": [
        {
          "internalType": "uint256",
          "name": "startFrame",
          "type": "uint256"
        },
        {
          "internalType": "uint256",
          "name": "numOfFrames",
          "type": "uint256"
        }
      ],
      "name": "getOpenFrameKeys",
      "outputs": [
        {
          "internalType": "uint256[]",
          "name": "openFrames",
          "type": "uint256[]"
        }
      ],
      "stateMutability": "view",
      "type": "function"
    },
    {
      "inputs": [
        {
          "internalType": "uint256",
          "name": "frameKey",
          "type": "uint256"
        }
      ],
      "name": "getRewardAmount",
      "outputs": [
        {
          "internalType": "uint256",
          "name": "",
          "type": "uint256"
        }
      ],
      "stateMutability": "view",
      "type": "function"
    },
    {
      "inputs": [
        {
          "internalType": "address",
          "name": "user",
          "type": "address"
        }
      ],
      "name": "getUserFrames",
      "outputs": [
        {
          "internalType": "uint256[]",
          "name": "",
          "type": "uint256[]"
        }
      ],
      "stateMutability": "view",
      "type": "function"
    },
    {
      "inputs": [
        {
          "internalType": "address",
          "name": "user",
          "type": "address"
        }
      ],
      "name": "getUserLots",
      "outputs": [
        {
          "components": [
            {
              "internalType": "uint256",
              "name": "frameKey",
              "type": "uint256"
            },
            {
              "internalType": "uint256",
              "name": "lotKey",
              "type": "uint256"
            },
            {
              "internalType": "address",
              "name": "lotOwner",
              "type": "address"
            },
            {
              "internalType": "uint256",
              "name": "acquisitionPrice",
              "type": "uint256"
            },
            {
              "internalType": "enum Market.SLot",
              "name": "state",
              "type": "uint8"
            }
          ],
          "internalType": "struct Market.Lot[]",
          "name": "userLots",
          "type": "tuple[]"
        }
      ],
      "stateMutability": "view",
      "type": "function"
    },
    {
      "inputs": [],
      "name": "initTimestamp",
      "outputs": [
        {
          "internalType": "uint256",
          "name": "",
          "type": "uint256"
        }
      ],
      "stateMutability": "view",
      "type": "function"
    },
    {
      "inputs": [
        {
          "internalType": "uint256",
          "name": "frameKey",
          "type": "uint256"
        },
        {
          "internalType": "uint256",
          "name": "avgPrice",
          "type": "uint256"
        }
      ],
      "name": "manualyUpdateAvgPrice",
      "outputs": [],
      "stateMutability": "nonpayable",
      "type": "function"
    },
    {
      "inputs": [],
      "name": "minTax",
      "outputs": [
        {
          "internalType": "uint256",
          "name": "",
          "type": "uint256"
        }
      ],
      "stateMutability": "view",
      "type": "function"
    },
    {
      "inputs": [],
      "name": "ownerMarket",
      "outputs": [
        {
          "internalType": "address",
          "name": "",
          "type": "address"
        }
      ],
      "stateMutability": "view",
      "type": "function"
    },
    {
      "inputs": [],
      "name": "period",
      "outputs": [
        {
          "internalType": "uint256",
          "name": "",
          "type": "uint256"
        }
      ],
      "stateMutability": "view",
      "type": "function"
    },
    {
      "inputs": [],
      "name": "tReporting",
      "outputs": [
        {
          "internalType": "uint256",
          "name": "",
          "type": "uint256"
        }
      ],
      "stateMutability": "view",
      "type": "function"
    },
    {
      "inputs": [],
      "name": "taxMarket",
      "outputs": [
        {
          "internalType": "uint256",
          "name": "",
          "type": "uint256"
        }
      ],
      "stateMutability": "view",
      "type": "function"
    },
    {
      "inputs": [],
      "name": "uniswapPair",
      "outputs": [
        {
          "internalType": "contract IUniswapV2Pair",
          "name": "",
          "type": "address"
        }
      ],
      "stateMutability": "view",
      "type": "function"
    },
    {
      "inputs": [],
      "name": "updateFramePrices",
      "outputs": [],
      "stateMutability": "nonpayable",
      "type": "function"
    },
    {
      "inputs": [
        {
          "internalType": "uint256",
          "name": "timestamp",
          "type": "uint256"
        },
        {
          "internalType": "uint256",
          "name": "pairPrice",
          "type": "uint256"
        },
        {
          "internalType": "uint256",
          "name": "acqPrice",
          "type": "uint256"
        }
      ],
      "name": "updateLotPrice",
      "outputs": [],
      "stateMutability": "nonpayable",
      "type": "function"
    },
    {
      "inputs": [
        {
          "internalType": "address",
          "name": "",
          "type": "address"
        },
        {
          "internalType": "uint256",
          "name": "",
          "type": "uint256"
        }
      ],
      "name": "userFrames",
      "outputs": [
        {
          "internalType": "uint256",
          "name": "",
          "type": "uint256"
        }
      ],
      "stateMutability": "view",
      "type": "function"
    }
  ],
  "bytecode": "0x608060405260646002556000600c60006101000a81548160ff02191690831515021790555069d3c21bcecceda1000000600d553480156200003f57600080fd5b506040516200557838038062005578833981810160405281019062000065919062000238565b89600960006101000a81548173ffffffffffffffffffffffffffffffffffffffff021916908373ffffffffffffffffffffffffffffffffffffffff16021790555033600a60006101000a81548173ffffffffffffffffffffffffffffffffffffffff021916908373ffffffffffffffffffffffffffffffffffffffff1602179055508760008190555086600181905550856007819055508460068190555088600460006101000a81548173ffffffffffffffffffffffffffffffffffffffff021916908373ffffffffffffffffffffffffffffffffffffffff160217905550836005819055508a600860006101000a81548173ffffffffffffffffffffffffffffffffffffffff021916908373ffffffffffffffffffffffffffffffffffffffff1602179055508260038190555081600b8190555080600c60006101000a81548160ff021916908315150217905550505050505050505050505062000447565b600081519050620001d681620003c5565b92915050565b600081519050620001ed81620003df565b92915050565b6000815190506200020481620003f9565b92915050565b6000815190506200021b8162000413565b92915050565b60008151905062000232816200042d565b92915050565b60008060008060008060008060008060006101608c8e0312156200025b57600080fd5b60006200026b8e828f016200020a565b9b505060206200027e8e828f01620001dc565b9a50506040620002918e828f01620001f3565b9950506060620002a48e828f0162000221565b9850506080620002b78e828f0162000221565b97505060a0620002ca8e828f0162000221565b96505060c0620002dd8e828f0162000221565b95505060e0620002f08e828f0162000221565b945050610100620003048e828f0162000221565b935050610120620003188e828f0162000221565b9250506101406200032c8e828f01620001c5565b9150509295989b509295989b9093969950565b60006200034c826200039b565b9050919050565b60008115159050919050565b60006200036c826200033f565b9050919050565b600062000380826200033f565b9050919050565b600062000394826200033f565b9050919050565b600073ffffffffffffffffffffffffffffffffffffffff82169050919050565b6000819050919050565b620003d08162000353565b8114620003dc57600080fd5b50565b620003ea816200035f565b8114620003f657600080fd5b50565b620004048162000373565b81146200041057600080fd5b50565b6200041e8162000387565b81146200042a57600080fd5b50565b6200043881620003bb565b81146200044457600080fd5b50565b61512180620004576000396000f3fe608060405234801561001057600080fd5b50600436106102115760003560e01c80637e99663911610125578063a4d246ff116100ad578063c816841b1161007c578063c816841b14610695578063c84993af146106b3578063da68cf8b146106e3578063ef78d4fd14610701578063ff5c86b01461071f57610211565b8063a4d246ff1461060f578063ae169a501461063f578063bb15d2dd1461065b578063c45a01551461067757610211565b80638f9eca82116100f45780638f9eca821461054e5780639495833c1461056c5780639592de181461059c57806396b2c6f3146105cc578063a10340bc146105d657610211565b80637e996639146104c657806381da5700146104e4578063830ab1191461050057806389da88a31461053057610211565b806341a8b6f8116101a85780635b3ad63e116101775780635b3ad63e146103e857806360f65c6014610418578063659d0ca0146104485780636f1aefc3146104785780637358c57a146104a857610211565b806341a8b6f81461035e578063450847751461038e578063499a0fc4146103ac578063527eb4bc146103ca57610211565b80633c80d8ea116101e45780633c80d8ea146102d65780633d09a82a146102f25780633e16bc2014610310578063410f07101461034057610211565b8063050e8840146102165780630ef192731461024657806314aa5a99146102765780633656d5ee146102a6575b600080fd5b610230600480360381019061022b9190613ee5565b61073d565b60405161023d91906147ce565b60405180910390f35b610260600480360381019061025b9190613ddf565b610761565b60405161026d91906147ce565b60405180910390f35b610290600480360381019061028b9190613f37565b6107ad565b60405161029d9190614565565b60405180910390f35b6102c060048036038101906102bb9190613f73565b610944565b6040516102cd91906147ce565b60405180910390f35b6102f060048036038101906102eb9190613f73565b6109c9565b005b6102fa611266565b60405161030791906147ce565b60405180910390f35b61032a60048036038101906103259190613f37565b61126c565b60405161033791906147ce565b60405180910390f35b6103486112cf565b60405161035591906147ce565b60405180910390f35b61037860048036038101906103739190613ee5565b6112d5565b60405161038591906147ce565b60405180910390f35b61039661145f565b6040516103a3919061449f565b60405180910390f35b6103b4611485565b6040516103c191906147ce565b60405180910390f35b6103d261148b565b6040516103df91906147ce565b60405180910390f35b61040260048036038101906103fd9190613ee5565b611491565b60405161040f91906147ce565b60405180910390f35b610432600480360381019061042d9190613e31565b6114d4565b60405161043f91906147ce565b60405180910390f35b610462600480360381019061045d9190613ddf565b611505565b60405161046f9190614543565b60405180910390f35b610492600480360381019061048d9190613f37565b611c41565b60405161049f91906147b3565b60405180910390f35b6104b0611d7e565b6040516104bd91906147ce565b60405180910390f35b6104ce611d84565b6040516104db91906147ce565b60405180910390f35b6104fe60048036038101906104f99190613f37565b611d8a565b005b61051a60048036038101906105159190613ee5565b611e0e565b60405161052791906147ce565b60405180910390f35b610538611e31565b60405161054591906147ce565b60405180910390f35b610556611e3e565b6040516105639190614587565b60405180910390f35b61058660048036038101906105819190613ddf565b611e51565b6040516105939190614565565b60405180910390f35b6105b660048036038101906105b19190613ee5565b611ee8565b6040516105c391906147ce565b60405180910390f35b6105d4611f1e565b005b6105f060048036038101906105eb9190613ee5565b612212565b6040516106069a99989796959493929190614890565b60405180910390f35b61062960048036038101906106249190613f73565b612273565b60405161063691906147ce565b60405180910390f35b61065960048036038101906106549190613ee5565b612329565b005b61067560048036038101906106709190613f73565b61233e565b005b61067f612862565b60405161068c91906145d8565b60405180910390f35b61069d612888565b6040516106aa91906145bd565b60405180910390f35b6106cd60048036038101906106c89190613ee5565b6128ae565b6040516106da91906147ce565b60405180910390f35b6106eb6128ce565b6040516106f891906145a2565b60405180910390f35b6107096128f4565b60405161071691906147ce565b60405180910390f35b6107276128fa565b60405161073491906147ce565b60405180910390f35b6010818154811061074d57600080fd5b906000526020600020016000915090505481565b6000600f60008373ffffffffffffffffffffffffffffffffffffffff1673ffffffffffffffffffffffffffffffffffffffff168152602001908152602001600020805490509050919050565b60608167ffffffffffffffff8111156107ef577f4e487b7100000000000000000000000000000000000000000000000000000000600052604160045260246000fd5b60405190808252806020026020018201604052801561081d5781602001602082028036833780820191505090505b50905060005b82811161093d5760008160005461083a9190614a67565b8561084591906149af565b905060006002811115610881577f4e487b7100000000000000000000000000000000000000000000000000000000600052602160045260246000fd5b600e600083815260200190815260200160002060090160009054906101000a900460ff1660028111156108dd577f4e487b7100000000000000000000000000000000000000000000000000000000600052602160045260246000fd5b14610929578083838151811061091c577f4e487b7100000000000000000000000000000000000000000000000000000000600052603260045260246000fd5b6020026020010181815250505b50808061093590614cfe565b915050610823565b5092915050565b60008061095085611491565b9050600061099082600e6000858152602001908152602001600020600b01600061097989611ee8565b815260200190815260200160002060030154612900565b9050600061099e8386612900565b90508082106109b057600093506109bf565b81816109bc9190614ac1565b93505b5050509392505050565b60006109d4846129a3565b90506109e08183612b53565b60006109ec8285612bab565b90506109f742611491565b821015610a39576040517f08c379a0000000000000000000000000000000000000000000000000000000008152600401610a3090614613565b60405180910390fd5b600e6000838152602001908152602001600020600b01600082815260200190815260200160002060020160009054906101000a900473ffffffffffffffffffffffffffffffffffffffff1673ffffffffffffffffffffffffffffffffffffffff163373ffffffffffffffffffffffffffffffffffffffff161415610af2576040517f08c379a0000000000000000000000000000000000000000000000000000000008152600401610ae9906146f3565b60405180910390fd5b6000610afe8385612900565b905080600e6000858152602001908152602001600020600b01600084815260200190815260200160002060030154610b3691906149af565b600960009054906101000a900473ffffffffffffffffffffffffffffffffffffffff1673ffffffffffffffffffffffffffffffffffffffff1663dd62ed3e33306040518363ffffffff1660e01b8152600401610b939291906144ba565b60206040518083038186803b158015610bab57600080fd5b505afa158015610bbf573d6000803e3d6000fd5b505050506040513d601f19601f82011682018060405250810190610be39190613f0e565b1015610c24576040517f08c379a0000000000000000000000000000000000000000000000000000000008152600401610c1b90614713565b60405180910390fd5b600960009054906101000a900473ffffffffffffffffffffffffffffffffffffffff1673ffffffffffffffffffffffffffffffffffffffff166323b872dd333084600e6000898152602001908152602001600020600b01600088815260200190815260200160002060030154610c9a91906149af565b6040518463ffffffff1660e01b8152600401610cb8939291906144e3565b602060405180830381600087803b158015610cd257600080fd5b505af1158015610ce6573d6000803e3d6000fd5b505050506040513d601f19601f82011682018060405250810190610d0a9190613e6d565b5080600e600085815260200190815260200160002060030154610d2d91906149af565b600e60008581526020019081526020016000206003018190555060016002811115610d81577f4e487b7100000000000000000000000000000000000000000000000000000000600052602160045260246000fd5b600e6000858152602001908152602001600020600b01600084815260200190815260200160002060040160009054906101000a900460ff166002811115610df1577f4e487b7100000000000000000000000000000000000000000000000000000000600052602160045260246000fd5b1415610fa0576000610e2d84600e6000878152602001908152602001600020600b01600086815260200190815260200160002060030154612900565b9050600960009054906101000a900473ffffffffffffffffffffffffffffffffffffffff1673ffffffffffffffffffffffffffffffffffffffff1663a9059cbb600e6000878152602001908152602001600020600b01600086815260200190815260200160002060020160009054906101000a900473ffffffffffffffffffffffffffffffffffffffff16600e6000888152602001908152602001600020600b0160008781526020019081526020016000206003015484610eee91906149af565b6040518363ffffffff1660e01b8152600401610f0b92919061451a565b602060405180830381600087803b158015610f2557600080fd5b505af1158015610f39573d6000803e3d6000fd5b505050506040513d601f19601f82011682018060405250810190610f5d9190613e6d565b5080600e600086815260200190815260200160002060030154610f809190614ac1565b600e6000868152602001908152602001600020600301819055505061101a565b6001600e6000858152602001908152602001600020600b01600084815260200190815260200160002060040160006101000a81548160ff02191690836002811115611014577f4e487b7100000000000000000000000000000000000000000000000000000000600052602160045260246000fd5b02179055505b33600e6000858152602001908152602001600020600b01600084815260200190815260200160002060020160006101000a81548173ffffffffffffffffffffffffffffffffffffffff021916908373ffffffffffffffffffffffffffffffffffffffff16021790555083600e6000858152602001908152602001600020600b01600084815260200190815260200160002060030181905550600f60003373ffffffffffffffffffffffffffffffffffffffff1673ffffffffffffffffffffffffffffffffffffffff168152602001908152602001600020839080600181540180825580915050600190039060005260206000200160009091909190915055611120611f1e565b7ff733bd7f4402cb7d331b34d5cd22f432b9bf71a833f786974545860d74976af283600e600086815260200190815260200160002060010154600e600087815260200190815260200160002060020154600e600088815260200190815260200160002060050154600e600089815260200190815260200160002060060154600e60008a815260200190815260200160002060070154600e60008b815260200190815260200160002060080154600e60008c8152602001908152602001600020600301546040516111f7989796959493929190614812565b60405180910390a17f74c5c6f5cd4370cc0ab554a1afdb2b24b051b40c99102354ef424aed5cd6409d83600e6000868152602001908152602001600020600b0160008581526020019081526020016000206040516112569291906147e9565b60405180910390a1505050505050565b600b5481565b6000600e6000848152602001908152602001600020600a0182815481106112bc577f4e487b7100000000000000000000000000000000000000000000000000000000600052603260045260246000fd5b9060005260206000200154905092915050565b60065481565b60006112e082612d17565b6000600e600084815260200190815260200160002060010154600e60008581526020019081526020016000206002015461131a9190614ac1565b9050600c60009054906101000a900460ff16156113bf576113a8604051806020016040528083600e600088815260200190815260200160002060050154600e6000898152602001908152602001600020600601546113789190614ac1565b6113829190614a36565b7bffffffffffffffffffffffffffffffffffffffffffffffffffffffff16815250612e06565b6dffffffffffffffffffffffffffff169150611449565b611436604051806020016040528083600e600088815260200190815260200160002060070154600e6000898152602001908152602001600020600801546114069190614ac1565b6114109190614a36565b7bffffffffffffffffffffffffffffffffffffffffffffffffffffffff16815250612e06565b6dffffffffffffffffffffffffffff1691505b600d54826114579190614a67565b915050919050565b600a60009054906101000a900473ffffffffffffffffffffffffffffffffffffffff1681565b60055481565b60025481565b600060015482116114a65760015490506114cf565b600054600154836114b79190614ac1565b6114c19190614d47565b826114cc9190614ac1565b90505b919050565b600f60205281600052604060002081815481106114f057600080fd5b90600052602060002001600091509150505481565b6060600061151242611491565b90506107d067ffffffffffffffff811115611556577f4e487b7100000000000000000000000000000000000000000000000000000000600052604160045260246000fd5b60405190808252806020026020018201604052801561158f57816020015b61157c613c9e565b8152602001906001900390816115745790505b50915061159a613c9e565b60008080600190505b6064811161190457603281106115df576032816115c09190614ac1565b6000546115cd9190614a67565b856115d891906149af565b91506115fb565b806000546115ed9190614a67565b856115f89190614ac1565b91505b60016002811115611635577f4e487b7100000000000000000000000000000000000000000000000000000000600052602160045260246000fd5b600e600084815260200190815260200160002060090160009054906101000a900460ff166002811115611691577f4e487b7100000000000000000000000000000000000000000000000000000000600052602160045260246000fd5b14156118f15760005b600e6000848152602001908152602001600020600a01805490508110156118ef57600e6000848152602001908152602001600020600b016000600e6000868152602001908152602001600020600a018381548110611721577f4e487b7100000000000000000000000000000000000000000000000000000000600052603260045260246000fd5b906000526020600020015481526020019081526020016000206040518060a001604052908160008201548152602001600182015481526020016002820160009054906101000a900473ffffffffffffffffffffffffffffffffffffffff1673ffffffffffffffffffffffffffffffffffffffff1673ffffffffffffffffffffffffffffffffffffffff168152602001600382015481526020016004820160009054906101000a900460ff166002811115611804577f4e487b7100000000000000000000000000000000000000000000000000000000600052602160045260246000fd5b600281111561183c577f4e487b7100000000000000000000000000000000000000000000000000000000600052602160045260246000fd5b8152505094508773ffffffffffffffffffffffffffffffffffffffff16856040015173ffffffffffffffffffffffffffffffffffffffff1614156118dc57848785815181106118b4577f4e487b7100000000000000000000000000000000000000000000000000000000600052603260045260246000fd5b602002602001018190525083806118ca90614cfe565b9450506107d084106118db576118ef565b5b80806118e790614cfe565b91505061169a565b505b80806118fc90614cfe565b9150506115a3565b506000600190505b60318111611c3757806000546119229190614a67565b8561192d9190614ac1565b9150600280811115611968577f4e487b7100000000000000000000000000000000000000000000000000000000600052602160045260246000fd5b600e600084815260200190815260200160002060090160009054906101000a900460ff1660028111156119c4577f4e487b7100000000000000000000000000000000000000000000000000000000600052602160045260246000fd5b1415611c245760005b600e6000848152602001908152602001600020600a0180549050811015611c2257600e6000848152602001908152602001600020600b016000600e6000868152602001908152602001600020600a018381548110611a54577f4e487b7100000000000000000000000000000000000000000000000000000000600052603260045260246000fd5b906000526020600020015481526020019081526020016000206040518060a001604052908160008201548152602001600182015481526020016002820160009054906101000a900473ffffffffffffffffffffffffffffffffffffffff1673ffffffffffffffffffffffffffffffffffffffff1673ffffffffffffffffffffffffffffffffffffffff168152602001600382015481526020016004820160009054906101000a900460ff166002811115611b37577f4e487b7100000000000000000000000000000000000000000000000000000000600052602160045260246000fd5b6002811115611b6f577f4e487b7100000000000000000000000000000000000000000000000000000000600052602160045260246000fd5b8152505094508773ffffffffffffffffffffffffffffffffffffffff16856040015173ffffffffffffffffffffffffffffffffffffffff161415611c0f576107d08410611bbb57611c22565b84878581518110611bf5577f4e487b7100000000000000000000000000000000000000000000000000000000600052603260045260246000fd5b60200260200101819052508380611c0b90614cfe565b9450505b8080611c1a90614cfe565b9150506119cd565b505b8080611c2f90614cfe565b91505061190c565b5050505050919050565b611c49613c9e565b600e6000848152602001908152602001600020600b0160008381526020019081526020016000206040518060a001604052908160008201548152602001600182015481526020016002820160009054906101000a900473ffffffffffffffffffffffffffffffffffffffff1673ffffffffffffffffffffffffffffffffffffffff1673ffffffffffffffffffffffffffffffffffffffff168152602001600382015481526020016004820160009054906101000a900460ff166002811115611d3a577f4e487b7100000000000000000000000000000000000000000000000000000000600052602160045260246000fd5b6002811115611d72577f4e487b7100000000000000000000000000000000000000000000000000000000600052602160045260246000fd5b81525050905092915050565b60015481565b60075481565b6001600e600084815260200190815260200160002060090160006101000a81548160ff02191690836002811115611dea577f4e487b7100000000000000000000000000000000000000000000000000000000600052602160045260246000fd5b021790555080600e6000848152602001908152602001600020600401819055505050565b6000600e6000838152602001908152602001600020600a01805490509050919050565b6000601080549050905090565b600c60009054906101000a900460ff1681565b6060600f60008373ffffffffffffffffffffffffffffffffffffffff1673ffffffffffffffffffffffffffffffffffffffff168152602001908152602001600020805480602002602001604051908101604052809291908181526020018280548015611edc57602002820191906000526020600020905b815481526020019060010190808311611ec8575b50505050509050919050565b6000808211611efb576005549050611f19565b60055460055483611f0c9190614a36565b611f169190614a67565b90505b919050565b6000611f2942611491565b905060035460005482611f3c91906149af565b611f469190614ac1565b42101561207f57611f78600460009054906101000a900473ffffffffffffffffffffffffffffffffffffffff16612e39565b8063ffffffff169050600e60008581526020019081526020016000206005016000600e60008781526020019081526020016000206007016000600e60008981526020019081526020016000206001016000869190505585919050558491905055505050600e600082815260200190815260200160002060050154600e600083815260200190815260200160002060070154600e600084815260200190815260200160002060010154600e60008581526020019081526020016000206006016000600e60008781526020019081526020016000206008016000600e60008981526020019081526020016000206002016000869190505585919050558491905055505050612130565b6003546000548261209091906149af565b61209a9190614ac1565b421061212f576120cb600460009054906101000a900473ffffffffffffffffffffffffffffffffffffffff16612e39565b8063ffffffff169050600e60008581526020019081526020016000206006016000600e60008781526020019081526020016000206008016000600e600089815260200190815260200160002060020160008691905055859190505584919050555050505b5b7ff733bd7f4402cb7d331b34d5cd22f432b9bf71a833f786974545860d74976af281600e600084815260200190815260200160002060010154600e600085815260200190815260200160002060020154600e600086815260200190815260200160002060050154600e600087815260200190815260200160002060060154600e600088815260200190815260200160002060070154600e600089815260200190815260200160002060080154600e60008a815260200190815260200160002060030154604051612207989796959493929190614812565b60405180910390a150565b600e6020528060005260406000206000915090508060000154908060010154908060020154908060030154908060040154908060050154908060060154908060070154908060080154908060090160009054906101000a900460ff1690508a565b60008061227f85611491565b905061228a42611491565b8110156122cc576040517f08c379a00000000000000000000000000000000000000000000000000000000081526004016122c3906146d3565b60405180910390fd5b60006122d785611ee8565b905060006122e58386612900565b905080600e6000858152602001908152602001600020600b0160008481526020019081526020016000206003015461231d91906149af565b93505050509392505050565b61233281613094565b61233b816136e2565b50565b6000612349846129a3565b90506123558183612b53565b60006123618285612bab565b90503373ffffffffffffffffffffffffffffffffffffffff16600e6000848152602001908152602001600020600b01600083815260200190815260200160002060020160009054906101000a900473ffffffffffffffffffffffffffffffffffffffff1673ffffffffffffffffffffffffffffffffffffffff161461241b576040517f08c379a000000000000000000000000000000000000000000000000000000000815260040161241290614633565b60405180910390fd5b61242442611491565b821015612466576040517f08c379a000000000000000000000000000000000000000000000000000000000815260040161245d90614773565b60405180910390fd5b60006124728385612900565b905060006124aa84600e6000878152602001908152602001600020600b01600086815260200190815260200160002060030154612900565b9050808211156126b75780826124c09190614ac1565b600960009054906101000a900473ffffffffffffffffffffffffffffffffffffffff1673ffffffffffffffffffffffffffffffffffffffff1663dd62ed3e33306040518363ffffffff1660e01b815260040161251d9291906144ba565b60206040518083038186803b15801561253557600080fd5b505afa158015612549573d6000803e3d6000fd5b505050506040513d601f19601f8201168201806040525081019061256d9190613f0e565b10156125ae576040517f08c379a00000000000000000000000000000000000000000000000000000000081526004016125a590614713565b60405180910390fd5b600960009054906101000a900473ffffffffffffffffffffffffffffffffffffffff1673ffffffffffffffffffffffffffffffffffffffff166323b872dd333084866125fa9190614ac1565b6040518463ffffffff1660e01b8152600401612618939291906144e3565b602060405180830381600087803b15801561263257600080fd5b505af1158015612646573d6000803e3d6000fd5b505050506040513d601f19601f8201168201806040525081019061266a9190613e6d565b5080826126779190614ac1565b600e60008681526020019081526020016000206003015461269891906149af565b600e6000868152602001908152602001600020600301819055506127c3565b808210156127c257600960009054906101000a900473ffffffffffffffffffffffffffffffffffffffff1673ffffffffffffffffffffffffffffffffffffffff1663a9059cbb33848461270a9190614ac1565b6040518363ffffffff1660e01b815260040161272792919061451a565b602060405180830381600087803b15801561274157600080fd5b505af1158015612755573d6000803e3d6000fd5b505050506040513d601f19601f820116820180604052508101906127799190613e6d565b5081816127869190614ac1565b600e6000868152602001908152602001600020600301546127a79190614ac1565b600e6000868152602001908152602001600020600301819055505b5b84600e6000868152602001908152602001600020600b016000858152602001908152602001600020600301819055506127fa611f1e565b7f74c5c6f5cd4370cc0ab554a1afdb2b24b051b40c99102354ef424aed5cd6409d84600e6000878152602001908152602001600020600b0160008681526020019081526020016000206040516128519291906147e9565b60405180910390a150505050505050565b600860009054906101000a900473ffffffffffffffffffffffffffffffffffffffff1681565b600460009054906101000a900473ffffffffffffffffffffffffffffffffffffffff1681565b6000600e6000838152602001908152602001600020600301549050919050565b600960009054906101000a900473ffffffffffffffffffffffffffffffffffffffff1681565b60005481565b60035481565b6000804260005461291042611491565b61291a91906149af565b6129249190614ac1565b90506000805482600d546129389190614a67565b6129429190614a36565b9050620186a0600754856129569190614a67565b6129609190614a36565b9250600d5481846129719190614a67565b61297b9190614a36565b61298486613b6a565b8461298f9190614a67565b61299991906149af565b9250505092915050565b6000806129af83611491565b9050600060028111156129eb577f4e487b7100000000000000000000000000000000000000000000000000000000600052602160045260246000fd5b600e600083815260200190815260200160002060090160009054906101000a900460ff166002811115612a47577f4e487b7100000000000000000000000000000000000000000000000000000000600052602160045260246000fd5b14612a555780915050612b4e565b612a5e42611491565b811015612aa0576040517f08c379a0000000000000000000000000000000000000000000000000000000008152600401612a9790614753565b60405180910390fd5b80600e6000838152602001908152602001600020600001819055506001600e600083815260200190815260200160002060090160006101000a81548160ff02191690836002811115612b1b577f4e487b7100000000000000000000000000000000000000000000000000000000600052602160045260246000fd5b02179055506010819080600181540180825580915050600190039060005260206000200160009091909190915055809150505b919050565b6000612b5f8383612900565b9050600b54811015612ba6576040517f08c379a0000000000000000000000000000000000000000000000000000000008152600401612b9d906146b3565b60405180910390fd5b505050565b600080612bb783611ee8565b905060006002811115612bf3577f4e487b7100000000000000000000000000000000000000000000000000000000600052602160045260246000fd5b600e6000868152602001908152602001600020600b01600083815260200190815260200160002060040160009054906101000a900460ff166002811115612c63577f4e487b7100000000000000000000000000000000000000000000000000000000600052602160045260246000fd5b14612c715780915050612d11565b83600e6000868152602001908152602001600020600b0160008381526020019081526020016000206000018190555080600e6000868152602001908152602001600020600b01600083815260200190815260200160002060010181905550600e6000858152602001908152602001600020600a01819080600181540180825580915050600190039060005260206000200160009091909190915055809150505b92915050565b6000600e600083815260200190815260200160002060050154111580612d5457506000600e60008381526020019081526020016000206006015411155b15612d94576040517f08c379a0000000000000000000000000000000000000000000000000000000008152600401612d8b90614673565b60405180910390fd5b600e600082815260200190815260200160002060060154600e6000838152602001908152602001600020600501541415612e03576040517f08c379a0000000000000000000000000000000000000000000000000000000008152600401612dfa90614673565b60405180910390fd5b50565b6000607060ff1682600001517bffffffffffffffffffffffffffffffffffffffffffffffffffffffff16901c9050919050565b6000806000612e46613ba6565b90508373ffffffffffffffffffffffffffffffffffffffff16635909c0d56040518163ffffffff1660e01b815260040160206040518083038186803b158015612e8e57600080fd5b505afa158015612ea2573d6000803e3d6000fd5b505050506040513d601f19601f82011682018060405250810190612ec69190613f0e565b92508373ffffffffffffffffffffffffffffffffffffffff16635a3d54936040518163ffffffff1660e01b815260040160206040518083038186803b158015612f0e57600080fd5b505afa158015612f22573d6000803e3d6000fd5b505050506040513d601f19601f82011682018060405250810190612f469190613f0e565b915060008060008673ffffffffffffffffffffffffffffffffffffffff16630902f1ac6040518163ffffffff1660e01b815260040160606040518083038186803b158015612f9357600080fd5b505afa158015612fa7573d6000803e3d6000fd5b505050506040513d601f19601f82011682018060405250810190612fcb9190613e96565b9250925092508363ffffffff168163ffffffff161461308a5760008185612ff29190614af5565b90508063ffffffff166130058486613bbe565b600001517bffffffffffffffffffffffffffffffffffffffffffffffffffffffff166130319190614a67565b8761303c91906149af565b96508063ffffffff1661304f8585613bbe565b600001517bffffffffffffffffffffffffffffffffffffffffffffffffffffffff1661307b9190614a67565b8661308691906149af565b9550505b5050509193909250565b61309d81612d17565b42600054826130ac91906149af565b11156130ed576040517f08c379a00000000000000000000000000000000000000000000000000000000081526004016130e4906145f3565b60405180910390fd5b6002600e600083815260200190815260200160002060090160006101000a81548160ff0219169083600281111561314d577f4e487b7100000000000000000000000000000000000000000000000000000000600052602160045260246000fd5b02179055506000600e600083815260200190815260200160002060010154600e60008481526020019081526020016000206002015461318c9190614ac1565b9050600c60009054906101000a900460ff16156132495761321a604051806020016040528083600e600087815260200190815260200160002060050154600e6000888152602001908152602001600020600601546131ea9190614ac1565b6131f49190614a36565b7bffffffffffffffffffffffffffffffffffffffffffffffffffffffff16815250612e06565b6dffffffffffffffffffffffffffff16600e6000848152602001908152602001600020600401819055506132eb565b6132c0604051806020016040528083600e600087815260200190815260200160002060070154600e6000888152602001908152602001600020600801546132909190614ac1565b61329a9190614a36565b7bffffffffffffffffffffffffffffffffffffffffffffffffffffffff16815250612e06565b6dffffffffffffffffffffffffffff16600e6000848152602001908152602001600020600401819055505b600d54600e60008481526020019081526020016000206004015461330f9190614a67565b600e6000848152602001908152602001600020600401819055506000620186a0600654600e6000868152602001908152602001600020600301546133539190614a67565b61335d9190614a36565b90506000620186a0600254600e6000878152602001908152602001600020600301546133899190614a67565b6133939190614a36565b90508082600e6000878152602001908152602001600020600301546133b89190614ac1565b6133c29190614ac1565b600e600086815260200190815260200160002060030181905550600960009054906101000a900473ffffffffffffffffffffffffffffffffffffffff1673ffffffffffffffffffffffffffffffffffffffff1663a9059cbb600a60009054906101000a900473ffffffffffffffffffffffffffffffffffffffff16846040518363ffffffff1660e01b815260040161345b92919061451a565b602060405180830381600087803b15801561347557600080fd5b505af1158015613489573d6000803e3d6000fd5b505050506040513d601f19601f820116820180604052508101906134ad9190613e6d565b50600960009054906101000a900473ffffffffffffffffffffffffffffffffffffffff1673ffffffffffffffffffffffffffffffffffffffff1663a9059cbb600860009054906101000a900473ffffffffffffffffffffffffffffffffffffffff1673ffffffffffffffffffffffffffffffffffffffff16638da5cb5b6040518163ffffffff1660e01b815260040160206040518083038186803b15801561355457600080fd5b505afa158015613568573d6000803e3d6000fd5b505050506040513d601f19601f8201168201806040525081019061358c9190613e08565b836040518363ffffffff1660e01b81526004016135aa92919061451a565b602060405180830381600087803b1580156135c457600080fd5b505af11580156135d8573d6000803e3d6000fd5b505050506040513d601f19601f820116820180604052508101906135fc9190613e6d565b507ff733bd7f4402cb7d331b34d5cd22f432b9bf71a833f786974545860d74976af284600e600087815260200190815260200160002060010154600e600088815260200190815260200160002060020154600e600089815260200190815260200160002060050154600e60008a815260200190815260200160002060060154600e60008b815260200190815260200160002060070154600e60008c815260200190815260200160002060080154600e60008d8152602001908152602001600020600301546040516136d4989796959493929190614812565b60405180910390a150505050565b60028081111561371b577f4e487b7100000000000000000000000000000000000000000000000000000000600052602160045260246000fd5b600e600083815260200190815260200160002060090160009054906101000a900460ff166002811115613777577f4e487b7100000000000000000000000000000000000000000000000000000000600052602160045260246000fd5b146137b7576040517f08c379a00000000000000000000000000000000000000000000000000000000081526004016137ae90614733565b60405180910390fd5b60006137d8600e600084815260200190815260200160002060040154611ee8565b9050600280811115613813577f4e487b7100000000000000000000000000000000000000000000000000000000600052602160045260246000fd5b600e6000848152602001908152602001600020600b01600083815260200190815260200160002060040160009054906101000a900460ff166002811115613883577f4e487b7100000000000000000000000000000000000000000000000000000000600052602160045260246000fd5b14156138c4576040517f08c379a00000000000000000000000000000000000000000000000000000000081526004016138bb90614693565b60405180910390fd5b600073ffffffffffffffffffffffffffffffffffffffff16600e6000848152602001908152602001600020600b01600083815260200190815260200160002060020160009054906101000a900473ffffffffffffffffffffffffffffffffffffffff1673ffffffffffffffffffffffffffffffffffffffff16141561397e576040517f08c379a000000000000000000000000000000000000000000000000000000000815260040161397590614653565b60405180910390fd5b600960009054906101000a900473ffffffffffffffffffffffffffffffffffffffff1673ffffffffffffffffffffffffffffffffffffffff1663a9059cbb600e6000858152602001908152602001600020600b01600084815260200190815260200160002060020160009054906101000a900473ffffffffffffffffffffffffffffffffffffffff16600e6000868152602001908152602001600020600301546040518363ffffffff1660e01b8152600401613a3b92919061451a565b602060405180830381600087803b158015613a5557600080fd5b505af1158015613a69573d6000803e3d6000fd5b505050506040513d601f19601f82011682018060405250810190613a8d9190613e6d565b506002600e6000848152602001908152602001600020600b01600083815260200190815260200160002060040160006101000a81548160ff02191690836002811115613b02577f4e487b7100000000000000000000000000000000000000000000000000000000600052602160045260246000fd5b02179055507f74c5c6f5cd4370cc0ab554a1afdb2b24b051b40c99102354ef424aed5cd6409d82600e6000858152602001908152602001600020600b016000848152602001908152602001600020604051613b5e9291906147e9565b60405180910390a15050565b6000613b7542611491565b821415613b855760009050613ba1565b6000544283613b949190614ac1565b613b9e9190614a36565b90505b919050565b600064010000000042613bb99190614d47565b905090565b613bc6613d1b565b6000826dffffffffffffffffffffffffffff1611613c19576040517f08c379a0000000000000000000000000000000000000000000000000000000008152600401613c1090614793565b60405180910390fd5b6040518060200160405280836dffffffffffffffffffffffffffff16607060ff16866dffffffffffffffffffffffffffff167bffffffffffffffffffffffffffffffffffffffffffffffffffffffff16901b613c759190614a05565b7bffffffffffffffffffffffffffffffffffffffffffffffffffffffff16815250905092915050565b6040518060a001604052806000815260200160008152602001600073ffffffffffffffffffffffffffffffffffffffff1681526020016000815260200160006002811115613d15577f4e487b7100000000000000000000000000000000000000000000000000000000600052602160045260246000fd5b81525090565b604051806020016040528060007bffffffffffffffffffffffffffffffffffffffffffffffffffffffff1681525090565b600081359050613d5b81615078565b92915050565b600081519050613d7081615078565b92915050565b600081519050613d858161508f565b92915050565b600081519050613d9a816150a6565b92915050565b600081359050613daf816150bd565b92915050565b600081519050613dc4816150bd565b92915050565b600081519050613dd9816150d4565b92915050565b600060208284031215613df157600080fd5b6000613dff84828501613d4c565b91505092915050565b600060208284031215613e1a57600080fd5b6000613e2884828501613d61565b91505092915050565b60008060408385031215613e4457600080fd5b6000613e5285828601613d4c565b9250506020613e6385828601613da0565b9150509250929050565b600060208284031215613e7f57600080fd5b6000613e8d84828501613d76565b91505092915050565b600080600060608486031215613eab57600080fd5b6000613eb986828701613d8b565b9350506020613eca86828701613d8b565b9250506040613edb86828701613dca565b9150509250925092565b600060208284031215613ef757600080fd5b6000613f0584828501613da0565b91505092915050565b600060208284031215613f2057600080fd5b6000613f2e84828501613db5565b91505092915050565b60008060408385031215613f4a57600080fd5b6000613f5885828601613da0565b9250506020613f6985828601613da0565b9150509250929050565b600080600060608486031215613f8857600080fd5b6000613f9686828701613da0565b9350506020613fa786828701613da0565b9250506040613fb886828701613da0565b9150509250925092565b6000613fce8383614310565b60a08301905092915050565b6000613fe68383614481565b60208301905092915050565b613ffb81614b60565b82525050565b61400a81614b60565b82525050565b600061401b8261494c565b614025818561497c565b93506140308361492c565b8060005b838110156140615781516140488882613fc2565b975061405383614962565b925050600181019050614034565b5085935050505092915050565b600061407982614957565b614083818561498d565b935061408e8361493c565b8060005b838110156140bf5781516140a68882613fda565b97506140b18361496f565b925050600181019050614092565b5085935050505092915050565b6140d581614b72565b82525050565b6140e481614c20565b82525050565b6140f381614c44565b82525050565b61410281614c68565b82525050565b61411181614c8c565b82525050565b61412081614c9e565b82525050565b6000614133601a8361499e565b915061413e82614e12565b602082019050919050565b6000614156600b8361499e565b915061416182614e3b565b602082019050919050565b6000614179600d8361499e565b915061418482614e64565b602082019050919050565b600061419c60088361499e565b91506141a782614e8d565b602082019050919050565b60006141bf60138361499e565b91506141ca82614eb6565b602082019050919050565b60006141e260138361499e565b91506141ed82614edf565b602082019050919050565b600061420560108361499e565b915061421082614f08565b602082019050919050565b6000614228601b8361499e565b915061423382614f31565b602082019050919050565b600061424b600d8361499e565b915061425682614f5a565b602082019050919050565b600061426e60198361499e565b915061427982614f83565b602082019050919050565b600061429160108361499e565b915061429c82614fac565b602082019050919050565b60006142b4600d8361499e565b91506142bf82614fd5565b602082019050919050565b60006142d760118361499e565b91506142e282614ffe565b602082019050919050565b60006142fa60178361499e565b915061430582615027565b602082019050919050565b60a0820160008201516143266000850182614481565b5060208201516143396020850182614481565b50604082015161434c6040850182613ff2565b50606082015161435f6060850182614481565b5060808201516143726080850182614117565b50505050565b60a08201600082015161438e6000850182614481565b5060208201516143a16020850182614481565b5060408201516143b46040850182613ff2565b5060608201516143c76060850182614481565b5060808201516143da6080850182614117565b50505050565b60a0820160008083015490506143f581614ce4565b6144026000860182614481565b506001830154905061441381614ce4565b6144206020860182614481565b506002830154905061443181614cb0565b61443e6040860182613ff2565b506003830154905061444f81614ce4565b61445c6060860182614481565b506004830154905061446d81614cca565b61447a6080860182614117565b5050505050565b61448a81614c06565b82525050565b61449981614c06565b82525050565b60006020820190506144b46000830184614001565b92915050565b60006040820190506144cf6000830185614001565b6144dc6020830184614001565b9392505050565b60006060820190506144f86000830186614001565b6145056020830185614001565b6145126040830184614490565b949350505050565b600060408201905061452f6000830185614001565b61453c6020830184614490565b9392505050565b6000602082019050818103600083015261455d8184614010565b905092915050565b6000602082019050818103600083015261457f818461406e565b905092915050565b600060208201905061459c60008301846140cc565b92915050565b60006020820190506145b760008301846140db565b92915050565b60006020820190506145d260008301846140ea565b92915050565b60006020820190506145ed60008301846140f9565b92915050565b6000602082019050818103600083015261460c81614126565b9050919050565b6000602082019050818103600083015261462c81614149565b9050919050565b6000602082019050818103600083015261464c8161416c565b9050919050565b6000602082019050818103600083015261466c8161418f565b9050919050565b6000602082019050818103600083015261468c816141b2565b9050919050565b600060208201905081810360008301526146ac816141d5565b9050919050565b600060208201905081810360008301526146cc816141f8565b9050919050565b600060208201905081810360008301526146ec8161421b565b9050919050565b6000602082019050818103600083015261470c8161423e565b9050919050565b6000602082019050818103600083015261472c81614261565b9050919050565b6000602082019050818103600083015261474c81614284565b9050919050565b6000602082019050818103600083015261476c816142a7565b9050919050565b6000602082019050818103600083015261478c816142ca565b9050919050565b600060208201905081810360008301526147ac816142ed565b9050919050565b600060a0820190506147c86000830184614378565b92915050565b60006020820190506147e36000830184614490565b92915050565b600060c0820190506147fe6000830185614490565b61480b60208301846143e0565b9392505050565b600061010082019050614828600083018b614490565b614835602083018a614490565b6148426040830189614490565b61484f6060830188614490565b61485c6080830187614490565b61486960a0830186614490565b61487660c0830185614490565b61488360e0830184614490565b9998505050505050505050565b6000610140820190506148a6600083018d614490565b6148b3602083018c614490565b6148c0604083018b614490565b6148cd606083018a614490565b6148da6080830189614490565b6148e760a0830188614490565b6148f460c0830187614490565b61490160e0830186614490565b61490f610100830185614490565b61491d610120830184614108565b9b9a5050505050505050505050565b6000819050602082019050919050565b6000819050602082019050919050565b600081519050919050565b600081519050919050565b6000602082019050919050565b6000602082019050919050565b600082825260208201905092915050565b600082825260208201905092915050565b600082825260208201905092915050565b60006149ba82614c06565b91506149c583614c06565b9250827fffffffffffffffffffffffffffffffffffffffffffffffffffffffffffffffff038211156149fa576149f9614d78565b5b828201905092915050565b6000614a1082614bde565b9150614a1b83614bde565b925082614a2b57614a2a614da7565b5b828204905092915050565b6000614a4182614c06565b9150614a4c83614c06565b925082614a5c57614a5b614da7565b5b828204905092915050565b6000614a7282614c06565b9150614a7d83614c06565b9250817fffffffffffffffffffffffffffffffffffffffffffffffffffffffffffffffff0483118215151615614ab657614ab5614d78565b5b828202905092915050565b6000614acc82614c06565b9150614ad783614c06565b925082821015614aea57614ae9614d78565b5b828203905092915050565b6000614b0082614c10565b9150614b0b83614c10565b925082821015614b1e57614b1d614d78565b5b828203905092915050565b600073ffffffffffffffffffffffffffffffffffffffff82169050919050565b600060ff82169050919050565b6000819050919050565b6000614b6b82614bbe565b9050919050565b60008115159050919050565b6000819050614b8c82615050565b919050565b6000819050614b9f82615064565b919050565b60006dffffffffffffffffffffffffffff82169050919050565b600073ffffffffffffffffffffffffffffffffffffffff82169050919050565b60007bffffffffffffffffffffffffffffffffffffffffffffffffffffffff82169050919050565b6000819050919050565b600063ffffffff82169050919050565b6000614c2b82614c32565b9050919050565b6000614c3d82614bbe565b9050919050565b6000614c4f82614c56565b9050919050565b6000614c6182614bbe565b9050919050565b6000614c7382614c7a565b9050919050565b6000614c8582614bbe565b9050919050565b6000614c9782614b7e565b9050919050565b6000614ca982614b91565b9050919050565b6000614cc3614cbe83614e05565b614b29565b9050919050565b6000614cdd614cd883614e05565b614b49565b9050919050565b6000614cf7614cf283614e05565b614b56565b9050919050565b6000614d0982614c06565b91507fffffffffffffffffffffffffffffffffffffffffffffffffffffffffffffffff821415614d3c57614d3b614d78565b5b600182019050919050565b6000614d5282614c06565b9150614d5d83614c06565b925082614d6d57614d6c614da7565b5b828206905092915050565b7f4e487b7100000000000000000000000000000000000000000000000000000000600052601160045260246000fd5b7f4e487b7100000000000000000000000000000000000000000000000000000000600052601260045260246000fd5b7f4e487b7100000000000000000000000000000000000000000000000000000000600052602160045260246000fd5b60008160001c9050919050565b7f4652414d4520454e442054494d45204e4f542052454143484544000000000000600082015250565b7f4c4f5420494e2050415354000000000000000000000000000000000000000000600082015250565b7f4e4f54204c4f54204f574e455200000000000000000000000000000000000000600082015250565b7f4e4f204f574e4552000000000000000000000000000000000000000000000000600082015250565b7f494e56414c4944204652414d4520505249434500000000000000000000000000600082015250565b7f4c4f5420414c524541445920534554544c454400000000000000000000000000600082015250565b7f505249434520495320544f4f204c4f5700000000000000000000000000000000600082015250565b7f54484953204c4f5420495320494e20412050415354204652414d450000000000600082015250565b7f414c5245414459204f574e455200000000000000000000000000000000000000600082015250565b7f415050524f56454420414d4f554e5420544f4f20534d414c4c00000000000000600082015250565b7f4652414d45204e4f5420434c4f53454400000000000000000000000000000000600082015250565b7f4652414d4520494e205041535400000000000000000000000000000000000000600082015250565b7f4c4f5420494e2050415354204652414d45000000000000000000000000000000600082015250565b7f4669786564506f696e743a204449565f42595f5a45524f000000000000000000600082015250565b6003811061506157615060614dd6565b5b50565b6003811061507557615074614dd6565b5b50565b61508181614b60565b811461508c57600080fd5b50565b61509881614b72565b81146150a357600080fd5b50565b6150af81614ba4565b81146150ba57600080fd5b50565b6150c681614c06565b81146150d157600080fd5b50565b6150dd81614c10565b81146150e857600080fd5b5056fea264697066735822122074ac20a7dca515a5d53c29441cb66e30d651ed7f67a15f1837e25396659b9de264736f6c63430008040033",
  "linkReferences": {},
  "deployedLinkReferences": {}
}