{
  "_format": "hh-sol-artifact-1",
  "contractName": "Market",
  "sourceName": "contracts/Market.sol",
  "abi": [
    {
      "inputs": [],
      "stateMutability": "nonpayable",
      "type": "constructor"
    },
    {
      "anonymous": false,
      "inputs": [
        {
          "components": [
            {
              "internalType": "uint256",
              "name": "frameKey",
              "type": "uint256"
            },
            {
              "internalType": "uint256",
              "name": "rate",
              "type": "uint256"
            },
            {
              "internalType": "uint256[]",
              "name": "lotKeys",
              "type": "uint256[]"
            },
            {
              "internalType": "address",
              "name": "claimedBy",
              "type": "address"
            },
            {
              "internalType": "uint256",
              "name": "rateSettle",
              "type": "uint256"
            },
            {
              "internalType": "uint256",
              "name": "feeSettle",
              "type": "uint256"
            },
            {
              "internalType": "uint256",
              "name": "rewardSettle",
              "type": "uint256"
            },
            {
              "internalType": "uint256",
              "name": "feeReferral",
              "type": "uint256"
            }
          ],
          "indexed": false,
          "internalType": "struct Market.Frame",
          "name": "frame",
          "type": "tuple"
        }
      ],
      "name": "FrameUpdate",
      "type": "event"
    },
    {
      "anonymous": false,
      "inputs": [
        {
          "components": [
            {
              "internalType": "uint256",
              "name": "frameKey",
              "type": "uint256"
            },
            {
              "internalType": "uint256",
              "name": "lotKey",
              "type": "uint256"
            },
            {
              "components": [
                {
                  "internalType": "uint256",
                  "name": "blockNumber",
                  "type": "uint256"
                },
                {
                  "internalType": "uint256",
                  "name": "blockTimestamp",
                  "type": "uint256"
                },
                {
                  "internalType": "address",
                  "name": "owner",
                  "type": "address"
                },
                {
                  "internalType": "uint256",
                  "name": "acquisitionPrice",
                  "type": "uint256"
                },
                {
                  "internalType": "uint256",
                  "name": "taxCharged",
                  "type": "uint256"
                },
                {
                  "internalType": "uint256",
                  "name": "taxRefunded",
                  "type": "uint256"
                }
              ],
              "internalType": "struct Market.LotState[]",
              "name": "states",
              "type": "tuple[]"
            }
          ],
          "indexed": false,
          "internalType": "struct Market.Lot",
          "name": "lot",
          "type": "tuple"
        }
      ],
      "name": "LotUpdate",
      "type": "event"
    },
    {
      "inputs": [],
      "name": "accountingToken",
      "outputs": [
        {
          "internalType": "contract IERC20",
          "name": "",
          "type": "address"
        }
      ],
      "stateMutability": "view",
      "type": "function"
    },
    {
      "inputs": [
        {
          "internalType": "uint256",
          "name": "timestamp",
          "type": "uint256"
        }
      ],
      "name": "clcFrameKey",
      "outputs": [
        {
          "internalType": "uint256",
          "name": "",
          "type": "uint256"
        }
      ],
      "stateMutability": "view",
      "type": "function"
    },
    {
      "inputs": [
        {
          "internalType": "uint256",
          "name": "value",
          "type": "uint256"
        }
      ],
      "name": "clcLotKey",
      "outputs": [
        {
          "internalType": "uint256",
          "name": "",
          "type": "uint256"
        }
      ],
      "stateMutability": "view",
      "type": "function"
    },
    {
      "inputs": [],
      "name": "clcRate",
      "outputs": [
        {
          "internalType": "uint256",
          "name": "",
          "type": "uint256"
        }
      ],
      "stateMutability": "view",
      "type": "function"
    },
    {
      "inputs": [
        {
          "internalType": "uint256",
          "name": "timestamp",
          "type": "uint256"
        }
      ],
      "name": "clcRateAvg",
      "outputs": [
        {
          "internalType": "uint256",
          "name": "",
          "type": "uint256"
        }
      ],
      "stateMutability": "view",
      "type": "function"
    },
    {
      "inputs": [
        {
          "internalType": "uint256",
          "name": "frameKey",
          "type": "uint256"
        }
      ],
      "name": "clcRewardFund",
      "outputs": [
        {
          "internalType": "uint256",
          "name": "",
          "type": "uint256"
        }
      ],
      "stateMutability": "view",
      "type": "function"
    },
    {
      "inputs": [
        {
          "internalType": "uint256",
          "name": "frameKey",
          "type": "uint256"
        },
        {
          "internalType": "uint256",
          "name": "acquisitionPrice",
          "type": "uint256"
        }
      ],
      "name": "clcTax",
      "outputs": [
        {
          "internalType": "uint256",
          "name": "",
          "type": "uint256"
        }
      ],
      "stateMutability": "view",
      "type": "function"
    },
    {
      "inputs": [
        {
          "internalType": "uint256",
          "name": "frameKey",
          "type": "uint256"
        },
        {
          "internalType": "uint256",
          "name": "lotKey",
          "type": "uint256"
        }
      ],
      "name": "concatenate",
      "outputs": [
        {
          "internalType": "uint256",
          "name": "concatenated",
          "type": "uint256"
        }
      ],
      "stateMutability": "pure",
      "type": "function"
    },
    {
      "inputs": [],
      "name": "dPrice",
      "outputs": [
        {
          "internalType": "uint256",
          "name": "",
          "type": "uint256"
        }
      ],
      "stateMutability": "view",
      "type": "function"
    },
    {
      "inputs": [],
      "name": "feeProtocol",
      "outputs": [
        {
          "internalType": "uint256",
          "name": "",
          "type": "uint256"
        }
      ],
      "stateMutability": "view",
      "type": "function"
    },
    {
      "inputs": [
        {
          "internalType": "uint256",
          "name": "",
          "type": "uint256"
        }
      ],
      "name": "frames",
      "outputs": [
        {
          "internalType": "uint256",
          "name": "frameKey",
          "type": "uint256"
        },
        {
          "internalType": "uint256",
          "name": "rate",
          "type": "uint256"
        },
        {
          "internalType": "address",
          "name": "claimedBy",
          "type": "address"
        },
        {
          "internalType": "uint256",
          "name": "rateSettle",
          "type": "uint256"
        },
        {
          "internalType": "uint256",
          "name": "feeSettle",
          "type": "uint256"
        },
        {
          "internalType": "uint256",
          "name": "rewardSettle",
          "type": "uint256"
        },
        {
          "internalType": "uint256",
          "name": "feeReferral",
          "type": "uint256"
        }
      ],
      "stateMutability": "view",
      "type": "function"
    },
    {
      "inputs": [
        {
          "internalType": "uint256",
          "name": "",
          "type": "uint256"
        }
      ],
      "name": "framesKeys",
      "outputs": [
        {
          "internalType": "uint256",
          "name": "",
          "type": "uint256"
        }
      ],
      "stateMutability": "view",
      "type": "function"
    },
    {
      "inputs": [
        {
          "internalType": "uint256",
          "name": "frameKey",
          "type": "uint256"
        }
      ],
      "name": "getFrame",
      "outputs": [
        {
          "components": [
            {
              "internalType": "uint256",
              "name": "frameKey",
              "type": "uint256"
            },
            {
              "internalType": "uint256",
              "name": "rate",
              "type": "uint256"
            },
            {
              "internalType": "uint256[]",
              "name": "lotKeys",
              "type": "uint256[]"
            },
            {
              "internalType": "address",
              "name": "claimedBy",
              "type": "address"
            },
            {
              "internalType": "uint256",
              "name": "rateSettle",
              "type": "uint256"
            },
            {
              "internalType": "uint256",
              "name": "feeSettle",
              "type": "uint256"
            },
            {
              "internalType": "uint256",
              "name": "rewardSettle",
              "type": "uint256"
            },
            {
              "internalType": "uint256",
              "name": "feeReferral",
              "type": "uint256"
            }
          ],
          "internalType": "struct Market.Frame",
          "name": "",
          "type": "tuple"
        }
      ],
      "stateMutability": "view",
      "type": "function"
    },
    {
      "inputs": [
        {
          "internalType": "uint256",
          "name": "frameKey",
          "type": "uint256"
        }
      ],
      "name": "getFrameLotKeys",
      "outputs": [
        {
          "internalType": "uint256[]",
          "name": "",
          "type": "uint256[]"
        }
      ],
      "stateMutability": "view",
      "type": "function"
    },
    {
      "inputs": [],
      "name": "getFramesLength",
      "outputs": [
        {
          "internalType": "uint256",
          "name": "",
          "type": "uint256"
        }
      ],
      "stateMutability": "view",
      "type": "function"
    },
    {
      "inputs": [
        {
          "internalType": "uint256",
          "name": "frameKey",
          "type": "uint256"
        },
        {
          "internalType": "uint256",
          "name": "lotKey",
          "type": "uint256"
        }
      ],
      "name": "getLot",
      "outputs": [
        {
          "components": [
            {
              "internalType": "uint256",
              "name": "frameKey",
              "type": "uint256"
            },
            {
              "internalType": "uint256",
              "name": "lotKey",
              "type": "uint256"
            },
            {
              "components": [
                {
                  "internalType": "uint256",
                  "name": "blockNumber",
                  "type": "uint256"
                },
                {
                  "internalType": "uint256",
                  "name": "blockTimestamp",
                  "type": "uint256"
                },
                {
                  "internalType": "address",
                  "name": "owner",
                  "type": "address"
                },
                {
                  "internalType": "uint256",
                  "name": "acquisitionPrice",
                  "type": "uint256"
                },
                {
                  "internalType": "uint256",
                  "name": "taxCharged",
                  "type": "uint256"
                },
                {
                  "internalType": "uint256",
                  "name": "taxRefunded",
                  "type": "uint256"
                }
              ],
              "internalType": "struct Market.LotState[]",
              "name": "states",
              "type": "tuple[]"
            }
          ],
          "internalType": "struct Market.Lot",
          "name": "",
          "type": "tuple"
        }
      ],
      "stateMutability": "view",
      "type": "function"
    },
    {
      "inputs": [
        {
          "internalType": "uint256",
          "name": "frameKey",
          "type": "uint256"
        },
        {
          "internalType": "uint256",
          "name": "lotKey",
          "type": "uint256"
        }
      ],
      "name": "getLotStates",
      "outputs": [
        {
          "components": [
            {
              "internalType": "uint256",
              "name": "blockNumber",
              "type": "uint256"
            },
            {
              "internalType": "uint256",
              "name": "blockTimestamp",
              "type": "uint256"
            },
            {
              "internalType": "address",
              "name": "owner",
              "type": "address"
            },
            {
              "internalType": "uint256",
              "name": "acquisitionPrice",
              "type": "uint256"
            },
            {
              "internalType": "uint256",
              "name": "taxCharged",
              "type": "uint256"
            },
            {
              "internalType": "uint256",
              "name": "taxRefunded",
              "type": "uint256"
            }
          ],
          "internalType": "struct Market.LotState[]",
          "name": "",
          "type": "tuple[]"
        }
      ],
      "stateMutability": "view",
      "type": "function"
    },
    {
      "inputs": [],
      "name": "getLotsArray",
      "outputs": [
        {
          "internalType": "uint256[]",
          "name": "",
          "type": "uint256[]"
        }
      ],
      "stateMutability": "view",
      "type": "function"
    },
    {
      "inputs": [],
      "name": "getLotsArrayLength",
      "outputs": [
        {
          "internalType": "uint256",
          "name": "",
          "type": "uint256"
        }
      ],
      "stateMutability": "view",
      "type": "function"
    },
    {
      "inputs": [
        {
          "internalType": "uint256",
          "name": "frameKey",
          "type": "uint256"
        }
      ],
      "name": "getLotsKeysInFrame",
      "outputs": [
        {
          "internalType": "uint256[]",
          "name": "",
          "type": "uint256[]"
        }
      ],
      "stateMutability": "view",
      "type": "function"
    },
    {
      "inputs": [
        {
          "internalType": "uint256",
          "name": "frameKey",
          "type": "uint256"
        }
      ],
      "name": "getLotsLength",
      "outputs": [
        {
          "internalType": "uint256",
          "name": "",
          "type": "uint256"
        }
      ],
      "stateMutability": "view",
      "type": "function"
    },
    {
      "inputs": [
        {
          "internalType": "uint256",
          "name": "frameKey",
          "type": "uint256"
        }
      ],
      "name": "getStateFrame",
      "outputs": [
        {
          "internalType": "enum Market.SFrame",
          "name": "",
          "type": "uint8"
        }
      ],
      "stateMutability": "view",
      "type": "function"
    },
    {
      "inputs": [
        {
          "internalType": "uint256",
          "name": "frameKey",
          "type": "uint256"
        },
        {
          "internalType": "uint256",
          "name": "lotKey",
          "type": "uint256"
        }
      ],
      "name": "getStateLot",
      "outputs": [
        {
          "internalType": "enum Market.SLot",
          "name": "",
          "type": "uint8"
        }
      ],
      "stateMutability": "view",
      "type": "function"
    },
    {
      "inputs": [],
      "name": "initTimestamp",
      "outputs": [
        {
          "internalType": "uint256",
          "name": "",
          "type": "uint256"
        }
      ],
      "stateMutability": "view",
      "type": "function"
    },
    {
      "inputs": [
        {
          "internalType": "uint256",
          "name": "",
          "type": "uint256"
        },
        {
          "internalType": "uint256",
          "name": "",
          "type": "uint256"
        }
      ],
      "name": "lots",
      "outputs": [
        {
          "internalType": "uint256",
          "name": "frameKey",
          "type": "uint256"
        },
        {
          "internalType": "uint256",
          "name": "lotKey",
          "type": "uint256"
        }
      ],
      "stateMutability": "view",
      "type": "function"
    },
    {
      "inputs": [
        {
          "internalType": "uint256",
          "name": "",
          "type": "uint256"
        }
      ],
      "name": "lotsArray",
      "outputs": [
        {
          "internalType": "uint256",
          "name": "",
          "type": "uint256"
        }
      ],
      "stateMutability": "view",
      "type": "function"
    },
    {
      "inputs": [
        {
          "components": [
            {
              "internalType": "uint256",
              "name": "frameKey",
              "type": "uint256"
            },
            {
              "internalType": "uint256",
              "name": "rate",
              "type": "uint256"
            },
            {
              "internalType": "uint256[]",
              "name": "lotKeys",
              "type": "uint256[]"
            },
            {
              "internalType": "address",
              "name": "claimedBy",
              "type": "address"
            },
            {
              "internalType": "uint256",
              "name": "rateSettle",
              "type": "uint256"
            },
            {
              "internalType": "uint256",
              "name": "feeSettle",
              "type": "uint256"
            },
            {
              "internalType": "uint256",
              "name": "rewardSettle",
              "type": "uint256"
            },
            {
              "internalType": "uint256",
              "name": "feeReferral",
              "type": "uint256"
            }
          ],
          "internalType": "struct Market.Frame",
          "name": "frame",
          "type": "tuple"
        },
        {
          "internalType": "uint256",
          "name": "avgPrice",
          "type": "uint256"
        }
      ],
      "name": "overrideFrameRate",
      "outputs": [],
      "stateMutability": "nonpayable",
      "type": "function"
    },
    {
      "inputs": [],
      "name": "owner",
      "outputs": [
        {
          "internalType": "address",
          "name": "",
          "type": "address"
        }
      ],
      "stateMutability": "view",
      "type": "function"
    },
    {
      "inputs": [],
      "name": "period",
      "outputs": [
        {
          "internalType": "uint256",
          "name": "",
          "type": "uint256"
        }
      ],
      "stateMutability": "view",
      "type": "function"
    },
    {
      "inputs": [
        {
          "internalType": "uint256",
          "name": "frameKey",
          "type": "uint256"
        }
      ],
      "name": "setFrameRate",
      "outputs": [],
      "stateMutability": "nonpayable",
      "type": "function"
    },
    {
      "inputs": [
        {
          "internalType": "uint256",
          "name": "frameKey",
          "type": "uint256"
        }
      ],
      "name": "settleFrame",
      "outputs": [
        {
          "internalType": "uint256",
          "name": "",
          "type": "uint256"
        }
      ],
      "stateMutability": "nonpayable",
      "type": "function"
    },
    {
      "inputs": [],
      "name": "tSettle",
      "outputs": [
        {
          "internalType": "uint256",
          "name": "",
          "type": "uint256"
        }
      ],
      "stateMutability": "view",
      "type": "function"
    },
    {
      "inputs": [],
      "name": "taxMarket",
      "outputs": [
        {
          "internalType": "uint256",
          "name": "",
          "type": "uint256"
        }
      ],
      "stateMutability": "view",
      "type": "function"
    },
    {
      "inputs": [
        {
          "internalType": "uint256",
          "name": "timestamp",
          "type": "uint256"
        },
        {
          "internalType": "uint256",
          "name": "rate",
          "type": "uint256"
        },
        {
          "internalType": "uint256",
          "name": "acquisitionPrice",
          "type": "uint256"
        }
      ],
      "name": "tradeLot",
      "outputs": [],
      "stateMutability": "nonpayable",
      "type": "function"
    },
    {
      "inputs": [],
      "name": "uniswapPool",
      "outputs": [
        {
          "internalType": "contract IUniswapV3Pool",
          "name": "",
          "type": "address"
        }
      ],
      "stateMutability": "view",
      "type": "function"
    },
    {
      "inputs": [
        {
          "internalType": "uint256",
          "name": "amount",
          "type": "uint256"
        }
      ],
      "name": "withdrawAccountingToken",
      "outputs": [],
      "stateMutability": "nonpayable",
      "type": "function"
    }
  ],
  "bytecode": "0x608060405262015180600055636592e180600155666a94d74f430000600255610258600355600480546001600160a01b03199081167367a9fe12fa6082d9d0203c84c6c56d3c4b269f281790915568056bc75e2d63100000600555662386f26fc1000060065560078054909116738f3cf7ad23cd3cadbd9735aff958023239c6a06317905534801561009057600080fd5b50600880546001600160a01b0319163317905561394a806100b26000396000f3fe608060405234801561001057600080fd5b506004361061021c5760003560e01c80638edc6a2c11610125578063bdd3d825116100ad578063e107fb4f1161007c578063e107fb4f1461053f578063ed320aa814610552578063ef78d4fd1461055a578063fb0d5e0914610563578063ffdabe2d1461058357600080fd5b8063bdd3d825146104fe578063c0423f2e14610511578063d18743dd14610519578063da68cf8b1461052c57600080fd5b8063b866debb116100f4578063b866debb14610469578063b93dafa91461047c578063ba4e137f146104c3578063ba52f342146104cb578063bad12653146104de57600080fd5b80638edc6a2c146103885780639592de18146103ab578063a10340bc146103be578063a73482f61461045657600080fd5b806361eee2cb116101a85780637358c57a116101775780637358c57a14610322578063773d51eb1461032b5780637e9966391461034b5780638a5779c8146103545780638da5cb5b1461035d57600080fd5b806361eee2cb146102c957806364772f21146102dc57806369ca9e05146102ef5780636f1aefc31461030257600080fd5b806339a6a489116101ef57806339a6a4891461026f5780633baf158714610282578063499a0fc4146102975780634c73884f146102a0578063527eb4bc146102c057600080fd5b8063050e8840146102215780630d0a1c1a14610247578063197c4e78146102675780632457e62014610247575b600080fd5b61023461022f366004612eff565b610596565b6040519081526020015b60405180910390f35b61025a610255366004612eff565b6105b7565b60405161023e9190612f18565b600c54610234565b61023461027d366004612eff565b61061c565b610295610290366004612eff565b6107e9565b005b61023460055481565b6102b36102ae366004612f5c565b61092b565b60405161023e9190612f94565b61023460025481565b6102346102d7366004612eff565b610a58565b6102956102ea366004612fae565b610a8f565b6102956102fd3660046130ff565b610bc8565b610315610310366004612f5c565b610cc4565b60405161023e919061323e565b61023460015481565b61033e610339366004612eff565b610e1b565b60405161023e919061326d565b61023460065481565b61023460035481565b600854610370906001600160a01b031681565b6040516001600160a01b03909116815260200161023e565b610234610396366004612eff565b60009081526009602052604090206002015490565b6102346103b9366004612eff565b610f57565b6104136103cc366004612eff565b6009602052600090815260409020805460018201546003830154600484015460058501546006860154600790960154949593946001600160a01b0390931693919290919087565b6040805197885260208801969096526001600160a01b03909416948601949094526060850191909152608084015260a083019190915260c082015260e00161023e565b610234610464366004612f5c565b610f82565b610234610477366004612eff565b61104c565b6104ae61048a366004612f5c565b600b6020908152600092835260408084209091529082529020805460019091015482565b6040805192835260208301919091520161023e565b610234611599565b6102346104d9366004612eff565b611668565b6104f16104ec366004612eff565b611678565b60405161023e9190613319565b600454610370906001600160a01b031681565b61025a61170f565b610295610527366004612eff565b611767565b600754610370906001600160a01b031681565b61023461054d366004612f5c565b61184f565b600a54610234565b61023460005481565b610576610571366004612f5c565b611911565b60405161023e919061332d565b610234610591366004612eff565b6119c7565b600a81815481106105a657600080fd5b600091825260209091200154905081565b60008181526009602090815260409182902060020180548351818402810184019094528084526060939283018282801561061057602002820191906000526020600020905b8154815260200190600101908083116105fc575b50505050509050919050565b600080805b6000848152600960205260409020600201548110156107e257600084815260096020818152604080842080548552600b83529084208885529290915260020180548391908590811061067557610675613347565b90600052602060002001548152602001908152602001600020604051806060016040529081600082015481526020016001820154815260200160028201805480602002602001604051908101604052809291908181526020016000905b828210156107435760008481526020908190206040805160c08101825260068602909201805483526001808201548486015260028201546001600160a01b03169284019290925260038101546060840152600481015460808401526005015460a083015290835290920191016106d2565b5050505081525050905060005b8160400151518110156107cd578160400151818151811061077357610773613347565b6020026020010151608001518461078a9190613373565b9350816040015181815181106107a2576107a2613347565b602002602001015160a00151846107b99190613386565b9350806107c581613399565b915050610750565b505080806107da90613399565b915050610621565b5092915050565b61082a60405180604001604052806012815260200171333930b6b2a5b2bc9015903832b934b7b21d60711b815250600054836108259190613373565b611c0d565b61085c6040518060400160405280601081526020016f313637b1b5973a34b6b2b9ba30b6b81d60811b81525042611c0d565b600080548282526009602052604090912054429161087991613373565b11156108cc5760405162461bcd60e51b815260206004820152601b60248201527f4672616d652068617320746f20626520696e207468652070617374000000000060448201526064015b60405180910390fd5b60006108d7826119c7565b600083815260096020526040908190206001810183905590519192507f929af310c689982c60d4ec73c6e4b602e89c6f6a31da7c2df4888fb0627cb2b19161091f91906133e7565b60405180910390a15050565b6000828152600b60209081526040808320848452909152812060010154810361095657506000610a52565b600061096184611678565b600481111561097257610972612f7e565b0361097f57506000610a52565b600161098a84611678565b600481111561099b5761099b612f7e565b14806109c0575060026109ad84611678565b60048111156109be576109be612f7e565b145b156109cd57506001610a52565b6000838152600b602090815260408083208584528252808320600190810154878552600990935292209091015410801590610a4157506005546000848152600b60209081526040808320868452909152902060010154610a2d9190613373565b600084815260096020526040902060010154105b15610a4e57506002610a52565b5060035b92915050565b60006001548211610a6b57505060015490565b600054600154610a7b9084613386565b610a85919061346f565b610a529083613386565b6000610a9a84610a58565b90506000610aa784610f57565b6000838152600b6020908152604080832084845290915281206001015491925003610afc576000828152600960205260408120549003610aec57610aea85611c52565b505b610af7828285611d8f565b610b71565b6000828152600b6020908152604080832084845290915290206002018054339190610b2990600190613386565b81548110610b3957610b39613347565b60009182526020909120600260069092020101546001600160a01b031603610b6657610af782828561215b565b610b71828285612528565b6000828152600b602090815260408083208484529091529081902090517f906ff162b3f2709ab28fb678d43913964434148dd206e9b17adb3c1255090cb191610bb991613483565b60405180910390a15050505050565b6008546001600160a01b03163314610c325760405162461bcd60e51b815260206004820152602760248201527f4f6e6c79206f776e65722063616e20757064617465206672616d6520636c6f736044820152666520707269636560c81b60648201526084016108c3565b8151600003610c535760405162461bcd60e51b81526004016108c390613531565b60608201516001600160a01b031615610cae5760405162461bcd60e51b815260206004820181905260248201527f4672616d65207265776172642077617320616c726561647920636c61696d656460448201526064016108c3565b9051600090815260096020526040902060010155565b610ce860405180606001604052806000815260200160008152602001606081525090565b6000838152600b602090815260408083208584529091528120600101549003610d475760405162461bcd60e51b8152602060048201526011602482015270131bdd08191bd95cdb89dd08195e1a5cdd607a1b60448201526064016108c3565b6000838152600b602090815260408083208584528252808320815160608101835281548152600182015481850152600282018054845181870281018701865281815292969395948701949293919290919084015b82821015610e0c5760008481526020908190206040805160c08101825260068602909201805483526001808201548486015260028201546001600160a01b03169284019290925260038101546060840152600481015460808401526005015460a08301529083529092019101610d9b565b50505091525090949350505050565b610e6c60405180610100016040528060008152602001600081526020016060815260200160006001600160a01b03168152602001600081526020016000815260200160008152602001600081525090565b6000828152600960205260408120549003610e995760405162461bcd60e51b81526004016108c390613531565b6000828152600960209081526040918290208251610100810184528154815260018201548184015260028201805485518186028101860187528181529295939493860193830182828015610f0c57602002820191906000526020600020905b815481526020019060010190808311610ef8575b505050918352505060038201546001600160a01b0316602082015260048201546040820152600582015460608201526006820154608082015260079091015460a09091015292915050565b6000600554821015610f6b57505060055490565b600554610f78818461355e565b610a529190613572565b6000610f93826402540be400613572565b9150610fcc6040518060400160405280601581526020017429a7a61021a7a721a0aa1d10333930b6b2a5b2bc9d60591b81525084611c0d565b6110016040518060400160405280601381526020017229a7a61021a7a721a0aa1d103637ba25b2bc9d60691b81525083611c0d565b61100b8383613373565b9050610a526040518060400160405280601981526020017f534f4c20434f4e4341543a20636f6e636174656e617465643a0000000000000081525082611c0d565b60008181526009602052604081205481036110795760405162461bcd60e51b81526004016108c390613531565b600361108483611678565b600481111561109557611095612f7e565b146110ee5760405162461bcd60e51b8152602060048201526024808201527f4672616d6520646f6573206e6f742068617665206120636c6f73652072617465604482015263081cd95d60e21b60648201526084016108c3565b60008281526009602052604081206001015461110990610f57565b6000848152600b60209081526040808320848452825280832081516060810183528154815260018201548185015260028201805484518187028101870186528181529798509596919592949386019391929091879084015b828210156111d25760008481526020908190206040805160c08101825260068602909201805483526001808201548486015260028201546001600160a01b03169284019290925260038101546060840152600481015460808401526005015460a08301529083529092019101611161565b5050505081525050905060006111e78561061c565b90506000670de0b6b3a7640000600254836112029190613572565b61120c919061355e565b600087815260096020526040902060058101829055600701549091506112328284613386565b61123c9190613386565b6000878152600960205260409081902060060191909155830151511561140b57600754604084015180516001600160a01b039092169163a9059cbb919061128590600190613386565b8151811061129557611295613347565b602002602001015160400151600960008a8152602001908152602001600020600601546040518363ffffffff1660e01b81526004016112e99291906001600160a01b03929092168252602082015260400190565b6020604051808303816000875af1158015611308573d6000803e3d6000fd5b505050506040513d601f19601f8201168201806040525081019061132c9190613599565b506040830151805161134090600190613386565b8151811061135057611350613347565b60209081029190910181015160409081015160008981526009909352918190206003810180546001600160a01b0319166001600160a01b03948516179055600754600854600590920154925163a9059cbb60e01b81529184166004830152602482019290925291169063a9059cbb906044016020604051808303816000875af11580156113e1573d6000803e3d6000fd5b505050506040513d601f19601f820116820180604052508101906114059190613599565b506114e9565b600754600854600088815260096020526040902060058101546006909101546001600160a01b039384169363a9059cbb93169161144791613373565b6040516001600160e01b031960e085901b1681526001600160a01b03909216600483015260248201526044016020604051808303816000875af1158015611492573d6000803e3d6000fd5b505050506040513d601f19601f820116820180604052508101906114b69190613599565b50600854600087815260096020526040902060030180546001600160a01b0319166001600160a01b039092169190911790555b600086815260096020526040908190206001810154600490910155517f906ff162b3f2709ab28fb678d43913964434148dd206e9b17adb3c1255090cb19061153290859061323e565b60405180910390a16000868152600960205260409081902090517f929af310c689982c60d4ec73c6e4b602e89c6f6a31da7c2df4888fb0627cb2b191611577916133e7565b60405180910390a1505050600092835250506009602052604090206006015490565b6004805460408051633850c7bd60e01b8152905160009384936001600160a01b031692633850c7bd928183019260e0928290030181865afa1580156115e2573d6000803e3d6000fd5b505050506040513d601f19601f8201168201806040525081019061160691906135c6565b50505050505090506000816001600160a01b031690506000600160601b82670de0b6b3a76400006116379190613572565b611641919061355e565b9050670de0b6b3a76400006116568280613572565b611660919061355e565b949350505050565b600c81815481106105a657600080fd5b600081815260096020526040812054810361169557506000919050565b6000828152600960205260409020600301546001600160a01b0316156116bd57506004919050565b6000805483825260096020526040909120546116d99190613373565b4210156116e857506001919050565b6000828152600960205260409020600101541561170757506003919050565b506002919050565b6060600c80548060200260200160405190810160405280929190818152602001828054801561175d57602002820191906000526020600020905b815481526020019060010190808311611749575b5050505050905090565b6008546001600160a01b031633146117d25760405162461bcd60e51b815260206004820152602860248201527f4f6e6c79206f776e65722063616e207769746864726177206163636f756e74696044820152673733903a37b5b2b760c11b60648201526084016108c3565b60075460085460405163a9059cbb60e01b81526001600160a01b0391821660048201526024810184905291169063a9059cbb906044016020604051808303816000875af1158015611827573d6000803e3d6000fd5b505050506040513d601f19601f8201168201806040525081019061184b9190613599565b5050565b600042600054846118609190613373565b116118ad5760405162461bcd60e51b815260206004820152601d60248201527f4672616d652068617320746f20626520696e207468652066757475726500000060448201526064016108c3565b600080546006546118be919061355e565b9050600042600054866118d19190613373565b6118db9190613386565b90506000670de0b6b3a7640000856118f38585613572565b6118fd9190613572565b611907919061355e565b9695505050505050565b6000828152600b602090815260408083208484528252808320600201805482518185028101850190935280835260609492939192909184015b828210156119bb5760008481526020908190206040805160c08101825260068602909201805483526001808201548486015260028201546001600160a01b03169284019290925260038101546060840152600481015460808401526005015460a0830152908352909201910161194a565b50505050905092915050565b60008060035483426119d99190613386565b6119e39190613373565b905060006119f18442613386565b60408051600280825260608201835292935060009290916020830190803683370190505090508281600081518110611a2b57611a2b613347565b602002602001019063ffffffff16908163ffffffff16815250508181600181518110611a5957611a59613347565b63ffffffff909216602092830291909101909101526004805460405163883bdbfd60e01b81526000926001600160a01b039092169163883bdbfd91611aa091869101613660565b600060405180830381865afa158015611abd573d6000803e3d6000fd5b505050506040513d6000823e601f3d908101601f19168201604052611ae59190810190613702565b509050600081600081518110611afd57611afd613347565b602002602001015160060b82600181518110611b1b57611b1b613347565b602002602001015160060b611b3091906137ce565b90506000811215611b795760405162461bcd60e51b81526020600482015260136024820152724e65676174697665207469636b2064656c746160681b60448201526064016108c3565b806000611b8f63ffffffff808816908916613386565b90506000611b9d828461355e565b90506000611baa82612a09565b90506000611bc866010000000000006001600160a01b03841661355e565b90506000611bd68280613572565b90506000600160601b611bf183670de0b6b3a7640000613572565b611bfb919061355e565b9e9d5050505050505050505050505050565b61184b8282604051602401611c239291906137ee565b60408051601f198184030181529190526020810180516001600160e01b0316632d839cb360e21b179052612dec565b600080611c5e83610a58565b60008181526009602052604090205490915015611cb45760405162461bcd60e51b81526020600482015260146024820152734672616d6520616c72656164792065786973747360601b60448201526064016108c3565b4260005482611cc39190613373565b1015611d115760405162461bcd60e51b815260206004820152601d60248201527f4672616d652068617320746f20626520696e207468652066757475726500000060448201526064016108c3565b60008181526009602052604090819020828155600a8054600181019091557fc65a7bb8d6351c1cf70c95a316cc6a92839c986682d98bc35f958f4883f9d2a80183905590517f929af310c689982c60d4ec73c6e4b602e89c6f6a31da7c2df4888fb0627cb2b191611d81916133e7565b60405180910390a192915050565b6000611d9b848361184f565b905060008111611dbd5760405162461bcd60e51b81526004016108c390613843565b600754604051636eb1769f60e11b815233600482015230602482015282916001600160a01b03169063dd62ed3e90604401602060405180830381865afa158015611e0b573d6000803e3d6000fd5b505050506040513d601f19601f82011682018060405250810190611e2f91906138a0565b1015611e4d5760405162461bcd60e51b81526004016108c3906138b9565b7f161bcca7119915b50764b4abe86529797775a5f17195100000000000000000008310611eae5760405162461bcd60e51b815260206004820152600f60248201526e4c6f74206b657920746f6f2062696760881b60448201526064016108c3565b6000848152600b6020908152604080832086845290915290206001015415611f0d5760405162461bcd60e51b81526020600482015260126024820152714c6f7420616c72656164792065786973747360701b60448201526064016108c3565b6040805160c081018252438152426020808301918252338385019081526060840187815260808501878152600060a087018181528c8252600b86528882208c835286529781208c815560018082018d90556002808301805480840182558186529885208b516006909a0201988955985191880191909155945194860180546001600160a01b0319166001600160a01b039096169590951790945591516003850155516004840155945160059092019190915592869052805491929182918291611fd891908190612e19565b5090505061200a6040518060400160405280600c81526020016b29a7a61d103637ba35b2bc9d60a11b81525086611c0d565b61203a6040518060400160405280600e81526020016d29a7a61d10333930b6b2a5b2bc9d60911b81525087611c0d565b60006120468787610f82565b905061207c6040518060400160405280601281526020017129a7a61d103637ba25b2bca1b7b731b0ba1d60711b81525082611c0d565b600c805460018181019092557fdf6966c971051c3d54ec59162606531493a51404a002842f56009d7e5cf4a8c7018290556000888152600960209081526040808320868501546002909101805495860181558452919092209092019190915560075490516323b872dd60e01b81526001600160a01b03909116906323b872dd9061210e903390309089906004016138f0565b6020604051808303816000875af115801561212d573d6000803e3d6000fd5b505050506040513d601f19601f820116820180604052508101906121519190613599565b5050505050505050565b6000838152600b60209081526040808320858452909152812060020180546121b291869161218b90600190613386565b8154811061219b5761219b613347565b90600052602060002090600602016003015461184f565b905060006121c0858461184f565b90508082111561235e5760006121d68284613386565b6007546000888152600b602090815260408083208a8452909152902060020180549293506001600160a01b039091169163a9059cbb919061221990600190613386565b8154811061222957612229613347565b600091825260209091206006909102016002015460405160e083901b6001600160e01b03191681526001600160a01b039091166004820152602481018490526044016020604051808303816000875af115801561228a573d6000803e3d6000fd5b505050506040513d601f19601f820116820180604052508101906122ae9190613599565b506000868152600b602090815260408083208884528252808320815160c0810183524381524281850190815233938201938452606082018a81526080830187815260a084019889526002948501805460018082018355918a529790982093516006909702909301958655905195850195909555915190830180546001600160a01b0319166001600160a01b0390921691909117905591516003820155905160048201559051600590910155612521565b600061236a8383613386565b600754604051636eb1769f60e11b815233600482015230602482015291925082916001600160a01b039091169063dd62ed3e90604401602060405180830381865afa1580156123bd573d6000803e3d6000fd5b505050506040513d601f19601f820116820180604052508101906123e191906138a0565b10156123ff5760405162461bcd60e51b81526004016108c3906138b9565b6007546040516323b872dd60e01b81526001600160a01b03909116906323b872dd90612433903390309086906004016138f0565b6020604051808303816000875af1158015612452573d6000803e3d6000fd5b505050506040513d601f19601f820116820180604052508101906124769190613599565b506000868152600b602090815260408083208884528252808320815160c0810183524381524281850190815233938201938452606082018a81526080830197885260a083018781526002948501805460018082018355918a529790982093516006909702909301958655905195850195909555915190830180546001600160a01b0319166001600160a01b039092169190911790559151600382015591516004830155516005909101555b5050505050565b6000838152600b602090815260408083208584529091528120600201805461255290600190613386565b8154811061256257612562613347565b600091825260208220600260069092020101546001600160a01b0316915061258a858461184f565b9050600081116125ac5760405162461bcd60e51b81526004016108c390613843565b6000858152600b60209081526040808320878452909152812060020180546125d690600190613386565b815481106125e6576125e6613347565b906000526020600020906006020160030154905080826126069190613373565b600754604051636eb1769f60e11b81523360048201523060248201526001600160a01b039091169063dd62ed3e90604401602060405180830381865afa158015612654573d6000803e3d6000fd5b505050506040513d601f19601f8201168201806040525081019061267891906138a0565b10156126965760405162461bcd60e51b81526004016108c3906138b9565b6007546040516323b872dd60e01b81526001600160a01b03909116906323b872dd906126ca903390309087906004016138f0565b6020604051808303816000875af11580156126e9573d6000803e3d6000fd5b505050506040513d601f19601f8201168201806040525081019061270d9190613599565b506007546040516323b872dd60e01b81526001600160a01b03909116906323b872dd90612742903390879086906004016138f0565b6020604051808303816000875af1158015612761573d6000803e3d6000fd5b505050506040513d601f19601f820116820180604052508101906127859190613599565b506000868152600b60209081526040808320888452909152812060020180546127b691899161218b90600190613386565b60075460405163a9059cbb60e01b81526001600160a01b0387811660048301526024820184905292935091169063a9059cbb906044016020604051808303816000875af115801561280b573d6000803e3d6000fd5b505050506040513d601f19601f8201168201806040525081019061282f9190613599565b50600b600088815260200190815260200160002060008781526020019081526020016000206002016040518060c00160405280438152602001428152602001866001600160a01b0316815260200184815260200160008152602001838152509080600181540180825580915050600190039060005260206000209060060201600090919091909150600082015181600001556020820151816001015560408201518160020160006101000a8154816001600160a01b0302191690836001600160a01b03160217905550606082015181600301556080820151816004015560a082015181600501555050600b600088815260200190815260200160002060008781526020019081526020016000206002016040518060c00160405280438152602001428152602001336001600160a01b0316815260200187815260200185815260200160008152509080600181540180825580915050600190039060005260206000209060060201600090919091909150600082015181600001556020820151816001015560408201518160020160006101000a8154816001600160a01b0302191690836001600160a01b03160217905550606082015181600301556080820151816004015560a08201518160050155505050505050505050565b600081620d89e8811115612a435760405162461bcd60e51b81526020600482015260016024820152601560fa1b60448201526064016108c3565b600081600116600003612a5a57600160801b612a6c565b6ffffcb933bd6fad37aa2d162d1a5940015b70ffffffffffffffffffffffffffffffffff1690506002821615612aab576080612aa6826ffff97272373d413259a46990580e213a613572565b901c90505b6004821615612ad5576080612ad0826ffff2e50f5f656932ef12357cf3c7fdcc613572565b901c90505b6008821615612aff576080612afa826fffe5caca7e10e4e61c3624eaa0941cd0613572565b901c90505b6010821615612b29576080612b24826fffcb9843d60f6159c9db58835c926644613572565b901c90505b6020821615612b53576080612b4e826fff973b41fa98c081472e6896dfb254c0613572565b901c90505b6040821615612b7d576080612b78826fff2ea16466c96a3843ec78b326b52861613572565b901c90505b6080821615612ba7576080612ba2826ffe5dee046a99a2a811c461f1969c3053613572565b901c90505b610100821615612bd2576080612bcd826ffcbe86c7900a88aedcffc83b479aa3a4613572565b901c90505b610200821615612bfd576080612bf8826ff987a7253ac413176f2b074cf7815e54613572565b901c90505b610400821615612c28576080612c23826ff3392b0822b70005940c7a398e4b70f3613572565b901c90505b610800821615612c53576080612c4e826fe7159475a2c29b7443b29c7fa6e889d9613572565b901c90505b611000821615612c7e576080612c79826fd097f3bdfd2022b8845ad8f792aa5825613572565b901c90505b612000821615612ca9576080612ca4826fa9f746462d870fdf8a65dc1f90e061e5613572565b901c90505b614000821615612cd4576080612ccf826f70d869a156d2a1b890bb3df62baf32f7613572565b901c90505b618000821615612cff576080612cfa826f31be135f97d08fd981231505542fcfa6613572565b901c90505b62010000821615612d2b576080612d26826f09aa508b5b7a84e1c677de54f3e99bc9613572565b901c90505b62020000821615612d56576080612d51826e5d6af8dedb81196699c329225ee604613572565b901c90505b62040000821615612d80576080612d7b826d2216e584f5fa1ea926041bedfe98613572565b901c90505b62080000821615612da8576080612da3826b048a170391f7dc42444e8fa2613572565b901c90505b8315612dbd57612dba8160001961355e565b90505b612dcc6401000000008261346f565b15612dd8576001612ddb565b60005b6116609060ff16602083901c613373565b612df581612df8565b50565b60006a636f6e736f6c652e6c6f679050600080835160208501845afa505050565b828054828255906000526020600020906006028101928215612ead5760005260206000209160060282015b82811115612ead57825482556001808401549083015560028084015490830180546001600160a01b0319166001600160a01b0390921691909117905560038084015490830155600480840154908301556005808401549083015560069283019290910190612e44565b50612eb9929150612ebd565b5090565b5b80821115612eb9576000808255600182018190556002820180546001600160a01b031916905560038201819055600482018190556005820155600601612ebe565b600060208284031215612f1157600080fd5b5035919050565b6020808252825182820181905260009190848201906040850190845b81811015612f5057835183529284019291840191600101612f34565b50909695505050505050565b60008060408385031215612f6f57600080fd5b50508035926020909101359150565b634e487b7160e01b600052602160045260246000fd5b6020810160048310612fa857612fa8612f7e565b91905290565b600080600060608486031215612fc357600080fd5b505081359360208301359350604090920135919050565b634e487b7160e01b600052604160045260246000fd5b604051610100810167ffffffffffffffff8111828210171561301457613014612fda565b60405290565b604051601f8201601f1916810167ffffffffffffffff8111828210171561304357613043612fda565b604052919050565b600067ffffffffffffffff82111561306557613065612fda565b5060051b60200190565b600082601f83011261308057600080fd5b813560206130956130908361304b565b61301a565b82815260059290921b840181019181810190868411156130b457600080fd5b8286015b848110156130cf57803583529183019183016130b8565b509695505050505050565b6001600160a01b0381168114612df557600080fd5b80356130fa816130da565b919050565b6000806040838503121561311257600080fd5b823567ffffffffffffffff8082111561312a57600080fd5b90840190610100828703121561313f57600080fd5b613147612ff0565b823581526020830135602082015260408301358281111561316757600080fd5b6131738882860161306f565b604083015250613185606084016130ef565b60608201526080830135608082015260a083013560a082015260c083013560c082015260e083013560e0820152809450505050602083013590509250929050565b600081518084526020808501945080840160005b838110156132335781518051885283810151848901526040808201516001600160a01b031690890152606080820151908901526080808201519089015260a0908101519088015260c090960195908201906001016131da565b509495945050505050565b6020815281516020820152602082015160408201526000604083015160608084015261166060808401826131c6565b6000602080835261012083018451828501528185015160408501526040850151610100806060870152828251808552610140880191508584019450600093505b808410156132cd57845182529385019360019390930192908501906132ad565b5060608801516001600160a01b03811660808901529450608088015160a088015260a088015160c088015260c088015160e088015260e088015182880152809550505050505092915050565b6020810160058310612fa857612fa8612f7e565b60208152600061334060208301846131c6565b9392505050565b634e487b7160e01b600052603260045260246000fd5b634e487b7160e01b600052601160045260246000fd5b80820180821115610a5257610a5261335d565b81810381811115610a5257610a5261335d565b6000600182016133ab576133ab61335d565b5060010190565b6000815480845260208085019450836000528060002060005b83811015613233578154875295820195600191820191016133cb565b60208152815460208201526001820154604082015260006101008060608401526134186101208401600286016133b2565b60038501546001600160a01b03166080850152600485015460a0850152600585015460c0850152600685015460e08501526007909401549201919091525090565b634e487b7160e01b600052601260045260246000fd5b60008261347e5761347e613459565b500690565b6000602080835260808084018554838601526001808701546040818189015260029150818901606080818b015285825480885260a09750878c0191508360005289600020935060005b8181101561351f5784548352878501548b840152868501546001600160a01b03168684015260038501548484015260048501548a84015260058501548984015260069094019360c09092019187016134cc565b50909c9b505050505050505050505050565b602080825260139082015272119c985b5948191bd95cdb89dd08195e1a5cdd606a1b604082015260600190565b60008261356d5761356d613459565b500490565b8082028115828204841417610a5257610a5261335d565b805180151581146130fa57600080fd5b6000602082840312156135ab57600080fd5b61334082613589565b805161ffff811681146130fa57600080fd5b600080600080600080600060e0888a0312156135e157600080fd5b87516135ec816130da565b8097505060208801518060020b811461360457600080fd5b9550613612604089016135b4565b9450613620606089016135b4565b935061362e608089016135b4565b925060a088015160ff8116811461364457600080fd5b915061365260c08901613589565b905092959891949750929550565b6020808252825182820181905260009190848201906040850190845b81811015612f5057835163ffffffff168352928401929184019160010161367c565b600082601f8301126136af57600080fd5b815160206136bf6130908361304b565b82815260059290921b840181019181810190868411156136de57600080fd5b8286015b848110156130cf5780516136f5816130da565b83529183019183016136e2565b6000806040838503121561371557600080fd5b825167ffffffffffffffff8082111561372d57600080fd5b818501915085601f83011261374157600080fd5b815160206137516130908361304b565b82815260059290921b8401810191818101908984111561377057600080fd5b948201945b8386101561379e5785518060060b811461378f5760008081fd5b82529482019490820190613775565b918801519196509093505050808211156137b757600080fd5b506137c48582860161369e565b9150509250929050565b81810360008312801583831316838312821617156107e2576107e261335d565b604081526000835180604084015260005b8181101561381c57602081870181015160608684010152016137ff565b506000606082850101526060601f19601f8301168401019150508260208301529392505050565b6020808252603c908201527f5461782068617320746f2062652067726561746572207468616e20302e20496e60408201527f63726561736520746865206163717569736974696f6e20707269636500000000606082015260800190565b6000602082840312156138b257600080fd5b5051919050565b6020808252601e908201527f416c6c6f77616e636520746f207370656e642073657420746f6f206c6f770000604082015260600190565b6001600160a01b03938416815291909216602082015260408101919091526060019056fea2646970667358221220219171ebaf47d20a88b6f317e1af36bb0959f747d0fda0e9d20ae01d55c1d96f64736f6c63430008140033",
  "linkReferences": {},
  "deployedLinkReferences": {}
}