{
  "_format": "hh-sol-artifact-1",
  "contractName": "Market",
  "sourceName": "contracts/Market.sol",
  "abi": [
    {
      "inputs": [
        {
          "internalType": "contract MarketFactory",
          "name": "_factory",
          "type": "address"
        },
        {
          "internalType": "contract IERC20",
          "name": "_token",
          "type": "address"
        },
        {
          "internalType": "contract IUniswapV2Pair",
          "name": "_uniswapPair",
          "type": "address"
        },
        {
          "internalType": "uint256",
          "name": "_period",
          "type": "uint256"
        },
        {
          "internalType": "uint256",
          "name": "_initTimestamp",
          "type": "uint256"
        },
        {
          "internalType": "uint256",
          "name": "_taxMarket",
          "type": "uint256"
        },
        {
          "internalType": "uint256",
          "name": "_feeMarket",
          "type": "uint256"
        },
        {
          "internalType": "uint256",
          "name": "_dPrice",
          "type": "uint256"
        },
        {
          "internalType": "uint256",
          "name": "_tReporting",
          "type": "uint256"
        },
        {
          "internalType": "uint256",
          "name": "_minTax",
          "type": "uint256"
        },
        {
          "internalType": "bool",
          "name": "_avgPriceSwitch",
          "type": "bool"
        }
      ],
      "stateMutability": "nonpayable",
      "type": "constructor"
    },
    {
      "anonymous": false,
      "inputs": [
        {
          "indexed": false,
          "internalType": "uint256",
          "name": "frameKey",
          "type": "uint256"
        },
        {
          "indexed": false,
          "internalType": "uint256",
          "name": "oracleTimestampStart",
          "type": "uint256"
        },
        {
          "indexed": false,
          "internalType": "uint256",
          "name": "oracleTimestampEnd",
          "type": "uint256"
        },
        {
          "indexed": false,
          "internalType": "uint256",
          "name": "oraclePrice0CumulativeStart",
          "type": "uint256"
        },
        {
          "indexed": false,
          "internalType": "uint256",
          "name": "oraclePrice0CumulativeEnd",
          "type": "uint256"
        },
        {
          "indexed": false,
          "internalType": "uint256",
          "name": "oraclePrice1CumulativeStart",
          "type": "uint256"
        },
        {
          "indexed": false,
          "internalType": "uint256",
          "name": "oraclePrice1CumulativeEnd",
          "type": "uint256"
        },
        {
          "indexed": false,
          "internalType": "uint256",
          "name": "rewardFund",
          "type": "uint256"
        }
      ],
      "name": "FrameUpdate",
      "type": "event"
    },
    {
      "anonymous": false,
      "inputs": [
        {
          "indexed": false,
          "internalType": "uint256",
          "name": "frameKey",
          "type": "uint256"
        },
        {
          "components": [
            {
              "internalType": "uint256",
              "name": "frameKey",
              "type": "uint256"
            },
            {
              "internalType": "uint256",
              "name": "lotKey",
              "type": "uint256"
            },
            {
              "internalType": "address",
              "name": "lotOwner",
              "type": "address"
            },
            {
              "internalType": "uint256",
              "name": "acquisitionPrice",
              "type": "uint256"
            },
            {
              "internalType": "enum MLib.SLot",
              "name": "state",
              "type": "uint8"
            }
          ],
          "indexed": false,
          "internalType": "struct MLib.Lot",
          "name": "lotStruct",
          "type": "tuple"
        }
      ],
      "name": "LotUpdate",
      "type": "event"
    },
    {
      "inputs": [
        {
          "internalType": "uint256",
          "name": "frameKey",
          "type": "uint256"
        },
        {
          "internalType": "uint256",
          "name": "avgPrice",
          "type": "uint256"
        }
      ],
      "name": "UpdateAvgPrice",
      "outputs": [],
      "stateMutability": "nonpayable",
      "type": "function"
    },
    {
      "inputs": [],
      "name": "accountingToken",
      "outputs": [
        {
          "internalType": "contract IERC20",
          "name": "",
          "type": "address"
        }
      ],
      "stateMutability": "view",
      "type": "function"
    },
    {
      "inputs": [
        {
          "internalType": "address",
          "name": "referralPublicKey",
          "type": "address"
        },
        {
          "internalType": "string",
          "name": "message",
          "type": "string"
        }
      ],
      "name": "addReferral",
      "outputs": [],
      "stateMutability": "nonpayable",
      "type": "function"
    },
    {
      "inputs": [],
      "name": "avgPriceSwitch",
      "outputs": [
        {
          "internalType": "bool",
          "name": "",
          "type": "bool"
        }
      ],
      "stateMutability": "view",
      "type": "function"
    },
    {
      "inputs": [
        {
          "internalType": "uint256",
          "name": "timestamp",
          "type": "uint256"
        },
        {
          "internalType": "uint256",
          "name": "pairPrice",
          "type": "uint256"
        },
        {
          "internalType": "uint256",
          "name": "acqPrice",
          "type": "uint256"
        }
      ],
      "name": "buyLot",
      "outputs": [],
      "stateMutability": "nonpayable",
      "type": "function"
    },
    {
      "inputs": [
        {
          "internalType": "uint256",
          "name": "frameKey",
          "type": "uint256"
        }
      ],
      "name": "claimReward",
      "outputs": [],
      "stateMutability": "nonpayable",
      "type": "function"
    },
    {
      "inputs": [
        {
          "internalType": "uint256",
          "name": "timestamp",
          "type": "uint256"
        }
      ],
      "name": "clcFrameTimestamp",
      "outputs": [
        {
          "internalType": "uint256",
          "name": "",
          "type": "uint256"
        }
      ],
      "stateMutability": "view",
      "type": "function"
    },
    {
      "inputs": [
        {
          "internalType": "uint256",
          "name": "value",
          "type": "uint256"
        }
      ],
      "name": "clcLotKey",
      "outputs": [
        {
          "internalType": "uint256",
          "name": "",
          "type": "uint256"
        }
      ],
      "stateMutability": "view",
      "type": "function"
    },
    {
      "inputs": [
        {
          "internalType": "uint256",
          "name": "frameKey",
          "type": "uint256"
        },
        {
          "internalType": "uint256",
          "name": "acquisitionPrice",
          "type": "uint256"
        }
      ],
      "name": "clcTax",
      "outputs": [
        {
          "internalType": "uint256",
          "name": "tax",
          "type": "uint256"
        }
      ],
      "stateMutability": "view",
      "type": "function"
    },
    {
      "inputs": [],
      "name": "dPrice",
      "outputs": [
        {
          "internalType": "uint256",
          "name": "",
          "type": "uint256"
        }
      ],
      "stateMutability": "view",
      "type": "function"
    },
    {
      "inputs": [
        {
          "internalType": "uint256",
          "name": "amount",
          "type": "uint256"
        }
      ],
      "name": "emptyFunds",
      "outputs": [],
      "stateMutability": "nonpayable",
      "type": "function"
    },
    {
      "inputs": [],
      "name": "factory",
      "outputs": [
        {
          "internalType": "contract MarketFactory",
          "name": "",
          "type": "address"
        }
      ],
      "stateMutability": "view",
      "type": "function"
    },
    {
      "inputs": [],
      "name": "feeMarket",
      "outputs": [
        {
          "internalType": "uint256",
          "name": "",
          "type": "uint256"
        }
      ],
      "stateMutability": "view",
      "type": "function"
    },
    {
      "inputs": [],
      "name": "feeProtocol",
      "outputs": [
        {
          "internalType": "uint256",
          "name": "",
          "type": "uint256"
        }
      ],
      "stateMutability": "view",
      "type": "function"
    },
    {
      "inputs": [
        {
          "internalType": "uint256",
          "name": "",
          "type": "uint256"
        }
      ],
      "name": "frames",
      "outputs": [
        {
          "internalType": "uint256",
          "name": "frameKey",
          "type": "uint256"
        },
        {
          "internalType": "uint256",
          "name": "oracleTimestampStart",
          "type": "uint256"
        },
        {
          "internalType": "uint256",
          "name": "oracleTimestampEnd",
          "type": "uint256"
        },
        {
          "internalType": "uint256",
          "name": "rewardFund",
          "type": "uint256"
        },
        {
          "internalType": "uint256",
          "name": "priceAverage",
          "type": "uint256"
        },
        {
          "internalType": "uint256",
          "name": "oraclePrice0CumulativeStart",
          "type": "uint256"
        },
        {
          "internalType": "uint256",
          "name": "oraclePrice0CumulativeEnd",
          "type": "uint256"
        },
        {
          "internalType": "uint256",
          "name": "oraclePrice1CumulativeStart",
          "type": "uint256"
        },
        {
          "internalType": "uint256",
          "name": "oraclePrice1CumulativeEnd",
          "type": "uint256"
        },
        {
          "internalType": "enum MLib.SFrame",
          "name": "state",
          "type": "uint8"
        }
      ],
      "stateMutability": "view",
      "type": "function"
    },
    {
      "inputs": [
        {
          "internalType": "uint256",
          "name": "",
          "type": "uint256"
        }
      ],
      "name": "framesKeys",
      "outputs": [
        {
          "internalType": "uint256",
          "name": "",
          "type": "uint256"
        }
      ],
      "stateMutability": "view",
      "type": "function"
    },
    {
      "inputs": [
        {
          "internalType": "uint256",
          "name": "frameKey",
          "type": "uint256"
        }
      ],
      "name": "getFrame",
      "outputs": [
        {
          "components": [
            {
              "internalType": "uint256",
              "name": "frameKey",
              "type": "uint256"
            },
            {
              "internalType": "uint256",
              "name": "oracleTimestampStart",
              "type": "uint256"
            },
            {
              "internalType": "uint256",
              "name": "oracleTimestampEnd",
              "type": "uint256"
            },
            {
              "internalType": "uint256",
              "name": "rewardFund",
              "type": "uint256"
            },
            {
              "internalType": "uint256",
              "name": "priceAverage",
              "type": "uint256"
            },
            {
              "internalType": "uint256",
              "name": "oraclePrice0CumulativeStart",
              "type": "uint256"
            },
            {
              "internalType": "uint256",
              "name": "oraclePrice0CumulativeEnd",
              "type": "uint256"
            },
            {
              "internalType": "uint256",
              "name": "oraclePrice1CumulativeStart",
              "type": "uint256"
            },
            {
              "internalType": "uint256",
              "name": "oraclePrice1CumulativeEnd",
              "type": "uint256"
            },
            {
              "internalType": "enum MLib.SFrame",
              "name": "state",
              "type": "uint8"
            },
            {
              "internalType": "uint256[]",
              "name": "lotKeys",
              "type": "uint256[]"
            }
          ],
          "internalType": "struct MLib.Frame",
          "name": "",
          "type": "tuple"
        }
      ],
      "stateMutability": "view",
      "type": "function"
    },
    {
      "inputs": [
        {
          "internalType": "uint256",
          "name": "frameKey",
          "type": "uint256"
        }
      ],
      "name": "getFrameState",
      "outputs": [
        {
          "internalType": "enum MLib.SFrame",
          "name": "",
          "type": "uint8"
        }
      ],
      "stateMutability": "view",
      "type": "function"
    },
    {
      "inputs": [
        {
          "internalType": "uint256",
          "name": "frameKey",
          "type": "uint256"
        },
        {
          "internalType": "uint256",
          "name": "lotKey",
          "type": "uint256"
        }
      ],
      "name": "getLot",
      "outputs": [
        {
          "components": [
            {
              "internalType": "uint256",
              "name": "frameKey",
              "type": "uint256"
            },
            {
              "internalType": "uint256",
              "name": "lotKey",
              "type": "uint256"
            },
            {
              "internalType": "address",
              "name": "lotOwner",
              "type": "address"
            },
            {
              "internalType": "uint256",
              "name": "acquisitionPrice",
              "type": "uint256"
            },
            {
              "internalType": "enum MLib.SLot",
              "name": "state",
              "type": "uint8"
            }
          ],
          "internalType": "struct MLib.Lot",
          "name": "",
          "type": "tuple"
        }
      ],
      "stateMutability": "view",
      "type": "function"
    },
    {
      "inputs": [
        {
          "internalType": "uint256",
          "name": "frameKey",
          "type": "uint256"
        }
      ],
      "name": "getLotKeys",
      "outputs": [
        {
          "internalType": "uint256[]",
          "name": "",
          "type": "uint256[]"
        }
      ],
      "stateMutability": "view",
      "type": "function"
    },
    {
      "inputs": [],
      "name": "getNumberOfFrameKeys",
      "outputs": [
        {
          "internalType": "uint256",
          "name": "",
          "type": "uint256"
        }
      ],
      "stateMutability": "view",
      "type": "function"
    },
    {
      "inputs": [
        {
          "internalType": "address",
          "name": "",
          "type": "address"
        }
      ],
      "name": "hasBoughtLot",
      "outputs": [
        {
          "internalType": "bool",
          "name": "",
          "type": "bool"
        }
      ],
      "stateMutability": "view",
      "type": "function"
    },
    {
      "inputs": [
        {
          "internalType": "uint256",
          "name": "frameKey",
          "type": "uint256"
        }
      ],
      "name": "hasValidPrices",
      "outputs": [],
      "stateMutability": "view",
      "type": "function"
    },
    {
      "inputs": [],
      "name": "initTimestamp",
      "outputs": [
        {
          "internalType": "uint256",
          "name": "",
          "type": "uint256"
        }
      ],
      "stateMutability": "view",
      "type": "function"
    },
    {
      "inputs": [
        {
          "internalType": "uint256",
          "name": "",
          "type": "uint256"
        },
        {
          "internalType": "uint256",
          "name": "",
          "type": "uint256"
        }
      ],
      "name": "lots",
      "outputs": [
        {
          "internalType": "uint256",
          "name": "frameKey",
          "type": "uint256"
        },
        {
          "internalType": "uint256",
          "name": "lotKey",
          "type": "uint256"
        },
        {
          "internalType": "address",
          "name": "lotOwner",
          "type": "address"
        },
        {
          "internalType": "uint256",
          "name": "acquisitionPrice",
          "type": "uint256"
        },
        {
          "internalType": "enum MLib.SLot",
          "name": "state",
          "type": "uint8"
        }
      ],
      "stateMutability": "view",
      "type": "function"
    },
    {
      "inputs": [],
      "name": "minTax",
      "outputs": [
        {
          "internalType": "uint256",
          "name": "",
          "type": "uint256"
        }
      ],
      "stateMutability": "view",
      "type": "function"
    },
    {
      "inputs": [],
      "name": "ownerMarket",
      "outputs": [
        {
          "internalType": "address",
          "name": "",
          "type": "address"
        }
      ],
      "stateMutability": "view",
      "type": "function"
    },
    {
      "inputs": [],
      "name": "period",
      "outputs": [
        {
          "internalType": "uint256",
          "name": "",
          "type": "uint256"
        }
      ],
      "stateMutability": "view",
      "type": "function"
    },
    {
      "inputs": [
        {
          "internalType": "address",
          "name": "",
          "type": "address"
        }
      ],
      "name": "referals",
      "outputs": [
        {
          "internalType": "address",
          "name": "ownerPublicKey",
          "type": "address"
        },
        {
          "internalType": "address",
          "name": "referralPublicKey",
          "type": "address"
        },
        {
          "internalType": "string",
          "name": "message",
          "type": "string"
        }
      ],
      "stateMutability": "view",
      "type": "function"
    },
    {
      "inputs": [],
      "name": "scalar",
      "outputs": [
        {
          "internalType": "uint256",
          "name": "",
          "type": "uint256"
        }
      ],
      "stateMutability": "view",
      "type": "function"
    },
    {
      "inputs": [],
      "name": "tReporting",
      "outputs": [
        {
          "internalType": "uint256",
          "name": "",
          "type": "uint256"
        }
      ],
      "stateMutability": "view",
      "type": "function"
    },
    {
      "inputs": [],
      "name": "taxMarket",
      "outputs": [
        {
          "internalType": "uint256",
          "name": "",
          "type": "uint256"
        }
      ],
      "stateMutability": "view",
      "type": "function"
    },
    {
      "inputs": [],
      "name": "uniswapPair",
      "outputs": [
        {
          "internalType": "contract IUniswapV2Pair",
          "name": "",
          "type": "address"
        }
      ],
      "stateMutability": "view",
      "type": "function"
    },
    {
      "inputs": [],
      "name": "updateFramePrices",
      "outputs": [],
      "stateMutability": "nonpayable",
      "type": "function"
    },
    {
      "inputs": [
        {
          "internalType": "uint256",
          "name": "timestamp",
          "type": "uint256"
        },
        {
          "internalType": "uint256",
          "name": "pairPrice",
          "type": "uint256"
        },
        {
          "internalType": "uint256",
          "name": "acqPrice",
          "type": "uint256"
        }
      ],
      "name": "updateLotPrice",
      "outputs": [],
      "stateMutability": "nonpayable",
      "type": "function"
    },
    {
      "inputs": [
        {
          "internalType": "address",
          "name": "",
          "type": "address"
        },
        {
          "internalType": "uint256",
          "name": "",
          "type": "uint256"
        }
      ],
      "name": "userFrames",
      "outputs": [
        {
          "internalType": "uint256",
          "name": "",
          "type": "uint256"
        }
      ],
      "stateMutability": "view",
      "type": "function"
    }
  ],
  "bytecode": "0x608060405260646002556000600c60006101000a81548160ff02191690831515021790555069d3c21bcecceda1000000600d553480156200003f57600080fd5b506040516200543c3803806200543c833981810160405281019062000065919062000238565b89600960006101000a81548173ffffffffffffffffffffffffffffffffffffffff021916908373ffffffffffffffffffffffffffffffffffffffff16021790555032600a60006101000a81548173ffffffffffffffffffffffffffffffffffffffff021916908373ffffffffffffffffffffffffffffffffffffffff1602179055508760008190555086600181905550856007819055508460068190555088600460006101000a81548173ffffffffffffffffffffffffffffffffffffffff021916908373ffffffffffffffffffffffffffffffffffffffff160217905550836005819055508a600860006101000a81548173ffffffffffffffffffffffffffffffffffffffff021916908373ffffffffffffffffffffffffffffffffffffffff1602179055508260038190555081600b8190555080600c60006101000a81548160ff021916908315150217905550505050505050505050505062000447565b600081519050620001d681620003c5565b92915050565b600081519050620001ed81620003df565b92915050565b6000815190506200020481620003f9565b92915050565b6000815190506200021b8162000413565b92915050565b60008151905062000232816200042d565b92915050565b60008060008060008060008060008060006101608c8e0312156200025b57600080fd5b60006200026b8e828f016200020a565b9b505060206200027e8e828f01620001dc565b9a50506040620002918e828f01620001f3565b9950506060620002a48e828f0162000221565b9850506080620002b78e828f0162000221565b97505060a0620002ca8e828f0162000221565b96505060c0620002dd8e828f0162000221565b95505060e0620002f08e828f0162000221565b945050610100620003048e828f0162000221565b935050610120620003188e828f0162000221565b9250506101406200032c8e828f01620001c5565b9150509295989b509295989b9093969950565b60006200034c826200039b565b9050919050565b60008115159050919050565b60006200036c826200033f565b9050919050565b600062000380826200033f565b9050919050565b600062000394826200033f565b9050919050565b600073ffffffffffffffffffffffffffffffffffffffff82169050919050565b6000819050919050565b620003d08162000353565b8114620003dc57600080fd5b50565b620003ea816200035f565b8114620003f657600080fd5b50565b620004048162000373565b81146200041057600080fd5b50565b6200041e8162000387565b81146200042a57600080fd5b50565b6200043881620003bb565b81146200044457600080fd5b50565b614fe580620004576000396000f3fe608060405234801561001057600080fd5b506004361061021c5760003560e01c80639592de1811610125578063c816841b116100ad578063e107fb4f1161007c578063e107fb4f14610676578063ef78d4fd146106a6578063f109db84146106c4578063f45e65d8146106f4578063ff5c86b0146107125761021c565b8063c816841b146105ee578063d529a3961461060c578063d9ab597e14610628578063da68cf8b146106585761021c565b8063ab02f2a9116100f4578063ab02f2a914610534578063ae169a5014610564578063b93dafa914610580578063bb15d2dd146105b4578063c45a0155146105d05761021c565b80639592de181461048f57806396b2c6f3146104bf578063a10340bc146104c9578063a128fcf2146105025761021c565b806360f65c60116101a85780637358c57a116101775780637358c57a146103e7578063773d51eb146104055780637e9966391461043557806389da88a3146104535780638f9eca82146104715761021c565b806360f65c601461034f578063652c8ded1461037f5780636f1aefc31461039b5780636f7cb60b146103cb5761021c565b80634453511d116101ef5780634453511d146102a957806345084775146102c5578063499a0fc4146102e3578063527eb4bc146103015780635b3ad63e1461031f5761021c565b8063050e8840146102215780633c80d8ea146102515780633d09a82a1461026d578063410f07101461028b575b600080fd5b61023b60048036038101906102369190613ba1565b610730565b604051610248919061479f565b60405180910390f35b61026b60048036038101906102669190613c2f565b610754565b005b610275611028565b604051610282919061479f565b60405180910390f35b61029361102e565b6040516102a0919061479f565b60405180910390f35b6102c360048036038101906102be9190613a99565b611034565b005b6102cd61121e565b6040516102da91906143f7565b60405180910390f35b6102eb611244565b6040516102f8919061479f565b60405180910390f35b61030961124a565b604051610316919061479f565b60405180910390f35b61033960048036038101906103349190613ba1565b611250565b604051610346919061479f565b60405180910390f35b61036960048036038101906103649190613aed565b611293565b604051610376919061479f565b60405180910390f35b61039960048036038101906103949190613ba1565b6112c4565b005b6103b560048036038101906103b09190613bf3565b61142d565b6040516103c29190614784565b60405180910390f35b6103e560048036038101906103e09190613ba1565b611567565b005b6103ef6117c6565b6040516103fc919061479f565b60405180910390f35b61041f600480360381019061041a9190613ba1565b6117cc565b60405161042c9190614762565b60405180910390f35b61043d611933565b60405161044a919061479f565b60405180910390f35b61045b611939565b604051610468919061479f565b60405180910390f35b610479611946565b60405161048691906144fb565b60405180910390f35b6104a960048036038101906104a49190613ba1565b611959565b6040516104b6919061479f565b60405180910390f35b6104c761198f565b005b6104e360048036038101906104de9190613ba1565b611c83565b6040516104f99a999897969594939291906148b4565b60405180910390f35b61051c60048036038101906105179190613a47565b611ce4565b60405161052b9392919061443b565b60405180910390f35b61054e60048036038101906105499190613ba1565b611dd6565b60405161055b91906144d9565b60405180910390f35b61057e60048036038101906105799190613ba1565b611e44565b005b61059a60048036038101906105959190613bf3565b611e59565b6040516105ab9594939291906147e3565b60405180910390f35b6105ce60048036038101906105c99190613c2f565b611ec9565b005b6105d86123e1565b6040516105e5919061454c565b60405180910390f35b6105f6612407565b6040516106039190614531565b60405180910390f35b61062660048036038101906106219190613bf3565b61242d565b005b610642600480360381019061063d9190613a47565b6124b1565b60405161064f91906144fb565b60405180910390f35b6106606124d1565b60405161066d9190614516565b60405180910390f35b610690600480360381019061068b9190613bf3565b6124f7565b60405161069d919061479f565b60405180910390f35b6106ae61256c565b6040516106bb919061479f565b60405180910390f35b6106de60048036038101906106d99190613ba1565b612572565b6040516106eb9190614567565b60405180910390f35b6106fc61259f565b604051610709919061479f565b60405180910390f35b61071a6125a5565b604051610727919061479f565b60405180910390f35b6013818154811061074057600080fd5b906000526020600020016000915090505481565b600061075f846125ab565b905061076b818361275b565b600061077782856127b3565b905061078242611250565b8210156107c4576040517f08c379a00000000000000000000000000000000000000000000000000000000081526004016107bb906145e2565b60405180910390fd5b600e6000838152602001908152602001600020600082815260200190815260200160002060020160009054906101000a900473ffffffffffffffffffffffffffffffffffffffff1673ffffffffffffffffffffffffffffffffffffffff163373ffffffffffffffffffffffffffffffffffffffff16141561087a576040517f08c379a0000000000000000000000000000000000000000000000000000000008152600401610871906146a2565b60405180910390fd5b600061088683856124f7565b905080600e60008581526020019081526020016000206000848152602001908152602001600020600301546108bb9190614a17565b600960009054906101000a900473ffffffffffffffffffffffffffffffffffffffff1673ffffffffffffffffffffffffffffffffffffffff1663dd62ed3e33306040518363ffffffff1660e01b8152600401610918929190614412565b60206040518083038186803b15801561093057600080fd5b505afa158015610944573d6000803e3d6000fd5b505050506040513d601f19601f820116820180604052508101906109689190613bca565b10156109a9576040517f08c379a00000000000000000000000000000000000000000000000000000000081526004016109a0906146c2565b60405180910390fd5b600960009054906101000a900473ffffffffffffffffffffffffffffffffffffffff1673ffffffffffffffffffffffffffffffffffffffff166323b872dd333084600e6000898152602001908152602001600020600088815260200190815260200160002060030154610a1c9190614a17565b6040518463ffffffff1660e01b8152600401610a3a93929190614479565b602060405180830381600087803b158015610a5457600080fd5b505af1158015610a68573d6000803e3d6000fd5b505050506040513d601f19601f82011682018060405250810190610a8c9190613b29565b5080600f600085815260200190815260200160002060030154610aaf9190614a17565b600f60008581526020019081526020016000206003018190555060016002811115610b03577f4e487b7100000000000000000000000000000000000000000000000000000000600052602160045260246000fd5b600e6000858152602001908152602001600020600084815260200190815260200160002060040160009054906101000a900460ff166002811115610b70577f4e487b7100000000000000000000000000000000000000000000000000000000600052602160045260246000fd5b1415610d16576000610ba984600e60008781526020019081526020016000206000868152602001908152602001600020600301546124f7565b9050600960009054906101000a900473ffffffffffffffffffffffffffffffffffffffff1673ffffffffffffffffffffffffffffffffffffffff1663a9059cbb600e6000878152602001908152602001600020600086815260200190815260200160002060020160009054906101000a900473ffffffffffffffffffffffffffffffffffffffff16600e600088815260200190815260200160002060008781526020019081526020016000206003015484610c649190614a17565b6040518363ffffffff1660e01b8152600401610c819291906144b0565b602060405180830381600087803b158015610c9b57600080fd5b505af1158015610caf573d6000803e3d6000fd5b505050506040513d601f19601f82011682018060405250810190610cd39190613b29565b5080600f600086815260200190815260200160002060030154610cf69190614b29565b600f60008681526020019081526020016000206003018190555050610d8d565b6001600e6000858152602001908152602001600020600084815260200190815260200160002060040160006101000a81548160ff02191690836002811115610d87577f4e487b7100000000000000000000000000000000000000000000000000000000600052602160045260246000fd5b02179055505b33600e6000858152602001908152602001600020600084815260200190815260200160002060020160006101000a81548173ffffffffffffffffffffffffffffffffffffffff021916908373ffffffffffffffffffffffffffffffffffffffff16021790555083600e6000858152602001908152602001600020600084815260200190815260200160002060030181905550601060003373ffffffffffffffffffffffffffffffffffffffff1673ffffffffffffffffffffffffffffffffffffffff1681526020019081526020016000208390806001815401808255809150506001900390600052602060002001600090919091909150556001601260003373ffffffffffffffffffffffffffffffffffffffff1673ffffffffffffffffffffffffffffffffffffffff16815260200190815260200160002060006101000a81548160ff021916908315150217905550610ee561198f565b7ff733bd7f4402cb7d331b34d5cd22f432b9bf71a833f786974545860d74976af283600f600086815260200190815260200160002060010154600f600087815260200190815260200160002060020154600f600088815260200190815260200160002060050154600f600089815260200190815260200160002060060154600f60008a815260200190815260200160002060070154600f60008b815260200190815260200160002060080154600f60008c815260200190815260200160002060030154604051610fbc989796959493929190614836565b60405180910390a17f74c5c6f5cd4370cc0ab554a1afdb2b24b051b40c99102354ef424aed5cd6409d83600e600086815260200190815260200160002060008581526020019081526020016000206040516110189291906147ba565b60405180910390a1505050505050565b600b5481565b60065481565b601260003373ffffffffffffffffffffffffffffffffffffffff1673ffffffffffffffffffffffffffffffffffffffff16815260200190815260200160002060009054906101000a900460ff16156110c1576040517f08c379a00000000000000000000000000000000000000000000000000000000081526004016110b890614582565b60405180910390fd5b33601160003373ffffffffffffffffffffffffffffffffffffffff1673ffffffffffffffffffffffffffffffffffffffff16815260200190815260200160002060000160006101000a81548173ffffffffffffffffffffffffffffffffffffffff021916908373ffffffffffffffffffffffffffffffffffffffff16021790555081601160003373ffffffffffffffffffffffffffffffffffffffff1673ffffffffffffffffffffffffffffffffffffffff16815260200190815260200160002060010160006101000a81548173ffffffffffffffffffffffffffffffffffffffff021916908373ffffffffffffffffffffffffffffffffffffffff16021790555080601160003373ffffffffffffffffffffffffffffffffffffffff1673ffffffffffffffffffffffffffffffffffffffff1681526020019081526020016000206002019080519060200190611219929190613769565b505050565b600a60009054906101000a900473ffffffffffffffffffffffffffffffffffffffff1681565b60055481565b60025481565b6000600154821161126557600154905061128e565b600054600154836112769190614b29565b6112809190614dda565b8261128b9190614b29565b90505b919050565b601060205281600052604060002081815481106112af57600080fd5b90600052602060002001600091509150505481565b6000600f60008381526020019081526020016000206005015411158061130157506000600f60008381526020019081526020016000206006015411155b8061132357506000600f60008381526020019081526020016000206007015411155b8061134557506000600f60008381526020019081526020016000206008015411155b15611385576040517f08c379a000000000000000000000000000000000000000000000000000000000815260040161137c90614642565b60405180910390fd5b600f600082815260200190815260200160002060060154600f60008381526020019081526020016000206005015414806113ea5750600f600082815260200190815260200160002060080154600f600083815260200190815260200160002060070154145b1561142a576040517f08c379a000000000000000000000000000000000000000000000000000000000815260040161142190614642565b60405180910390fd5b50565b6114356137ef565b600e600084815260200190815260200160002060008381526020019081526020016000206040518060a001604052908160008201548152602001600182015481526020016002820160009054906101000a900473ffffffffffffffffffffffffffffffffffffffff1673ffffffffffffffffffffffffffffffffffffffff1673ffffffffffffffffffffffffffffffffffffffff168152602001600382015481526020016004820160009054906101000a900460ff166002811115611523577f4e487b7100000000000000000000000000000000000000000000000000000000600052602160045260246000fd5b600281111561155b577f4e487b7100000000000000000000000000000000000000000000000000000000600052602160045260246000fd5b81525050905092915050565b600860009054906101000a900473ffffffffffffffffffffffffffffffffffffffff1673ffffffffffffffffffffffffffffffffffffffff16638da5cb5b6040518163ffffffff1660e01b815260040160206040518083038186803b1580156115cf57600080fd5b505afa1580156115e3573d6000803e3d6000fd5b505050506040513d601f19601f820116820180604052508101906116079190613a70565b73ffffffffffffffffffffffffffffffffffffffff163373ffffffffffffffffffffffffffffffffffffffff1614611674576040517f08c379a000000000000000000000000000000000000000000000000000000000815260040161166b906145c2565b60405180910390fd5b600960009054906101000a900473ffffffffffffffffffffffffffffffffffffffff1673ffffffffffffffffffffffffffffffffffffffff1663a9059cbb600860009054906101000a900473ffffffffffffffffffffffffffffffffffffffff1673ffffffffffffffffffffffffffffffffffffffff16638da5cb5b6040518163ffffffff1660e01b815260040160206040518083038186803b15801561171a57600080fd5b505afa15801561172e573d6000803e3d6000fd5b505050506040513d601f19601f820116820180604052508101906117529190613a70565b836040518363ffffffff1660e01b81526004016117709291906144b0565b602060405180830381600087803b15801561178a57600080fd5b505af115801561179e573d6000803e3d6000fd5b505050506040513d601f19601f820116820180604052508101906117c29190613b29565b5050565b60015481565b6117d461386c565b600f6000838152602001908152602001600020604051806101600160405290816000820154815260200160018201548152602001600282015481526020016003820154815260200160048201548152602001600582015481526020016006820154815260200160078201548152602001600882015481526020016009820160009054906101000a900460ff166002811115611898577f4e487b7100000000000000000000000000000000000000000000000000000000600052602160045260246000fd5b60028111156118d0577f4e487b7100000000000000000000000000000000000000000000000000000000600052602160045260246000fd5b8152602001600a820180548060200260200160405190810160405280929190818152602001828054801561192357602002820191906000526020600020905b81548152602001906001019080831161190f575b5050505050815250509050919050565b60075481565b6000601380549050905090565b600c60009054906101000a900460ff1681565b600080821161196c57600554905061198a565b6005546005548361197d9190614a9e565b6119879190614acf565b90505b919050565b600061199a42611250565b9050600354600054826119ad9190614a17565b6119b79190614b29565b421015611af0576119e9600460009054906101000a900473ffffffffffffffffffffffffffffffffffffffff16612916565b8063ffffffff169050600f60008581526020019081526020016000206005016000600f60008781526020019081526020016000206007016000600f60008981526020019081526020016000206001016000869190505585919050558491905055505050600f600082815260200190815260200160002060050154600f600083815260200190815260200160002060070154600f600084815260200190815260200160002060010154600f60008581526020019081526020016000206006016000600f60008781526020019081526020016000206008016000600f60008981526020019081526020016000206002016000869190505585919050558491905055505050611ba1565b60035460005482611b019190614a17565b611b0b9190614b29565b4210611ba057611b3c600460009054906101000a900473ffffffffffffffffffffffffffffffffffffffff16612916565b8063ffffffff169050600f60008581526020019081526020016000206006016000600f60008781526020019081526020016000206008016000600f600089815260200190815260200160002060020160008691905055859190505584919050555050505b5b7ff733bd7f4402cb7d331b34d5cd22f432b9bf71a833f786974545860d74976af281600f600084815260200190815260200160002060010154600f600085815260200190815260200160002060020154600f600086815260200190815260200160002060050154600f600087815260200190815260200160002060060154600f600088815260200190815260200160002060070154600f600089815260200190815260200160002060080154600f60008a815260200190815260200160002060030154604051611c78989796959493929190614836565b60405180910390a150565b600f6020528060005260406000206000915090508060000154908060010154908060020154908060030154908060040154908060050154908060060154908060070154908060080154908060090160009054906101000a900460ff1690508a565b60116020528060005260406000206000915090508060000160009054906101000a900473ffffffffffffffffffffffffffffffffffffffff16908060010160009054906101000a900473ffffffffffffffffffffffffffffffffffffffff1690806002018054611d5390614d5a565b80601f0160208091040260200160405190810160405280929190818152602001828054611d7f90614d5a565b8015611dcc5780601f10611da157610100808354040283529160200191611dcc565b820191906000526020600020905b815481529060010190602001808311611daf57829003601f168201915b5050505050905083565b6060600f6000838152602001908152602001600020600a01805480602002602001604051908101604052809291908181526020018280548015611e3857602002820191906000526020600020905b815481526020019060010190808311611e24575b50505050509050919050565b611e4d81612b71565b611e56816131c5565b50565b600e602052816000526040600020602052806000526040600020600091509150508060000154908060010154908060020160009054906101000a900473ffffffffffffffffffffffffffffffffffffffff16908060030154908060040160009054906101000a900460ff16905085565b6000611ed4846125ab565b9050611ee0818361275b565b6000611eec82856127b3565b90503373ffffffffffffffffffffffffffffffffffffffff16600e6000848152602001908152602001600020600083815260200190815260200160002060020160009054906101000a900473ffffffffffffffffffffffffffffffffffffffff1673ffffffffffffffffffffffffffffffffffffffff1614611fa3576040517f08c379a0000000000000000000000000000000000000000000000000000000008152600401611f9a90614602565b60405180910390fd5b611fac42611250565b821015611fee576040517f08c379a0000000000000000000000000000000000000000000000000000000008152600401611fe590614722565b60405180910390fd5b6000611ffa83856124f7565b9050600061202f84600e60008781526020019081526020016000206000868152602001908152602001600020600301546124f7565b90508082111561223c5780826120459190614b29565b600960009054906101000a900473ffffffffffffffffffffffffffffffffffffffff1673ffffffffffffffffffffffffffffffffffffffff1663dd62ed3e33306040518363ffffffff1660e01b81526004016120a2929190614412565b60206040518083038186803b1580156120ba57600080fd5b505afa1580156120ce573d6000803e3d6000fd5b505050506040513d601f19601f820116820180604052508101906120f29190613bca565b1015612133576040517f08c379a000000000000000000000000000000000000000000000000000000000815260040161212a906146c2565b60405180910390fd5b600960009054906101000a900473ffffffffffffffffffffffffffffffffffffffff1673ffffffffffffffffffffffffffffffffffffffff166323b872dd3330848661217f9190614b29565b6040518463ffffffff1660e01b815260040161219d93929190614479565b602060405180830381600087803b1580156121b757600080fd5b505af11580156121cb573d6000803e3d6000fd5b505050506040513d601f19601f820116820180604052508101906121ef9190613b29565b5080826121fc9190614b29565b600f60008681526020019081526020016000206003015461221d9190614a17565b600f600086815260200190815260200160002060030181905550612348565b8082101561234757600960009054906101000a900473ffffffffffffffffffffffffffffffffffffffff1673ffffffffffffffffffffffffffffffffffffffff1663a9059cbb33848461228f9190614b29565b6040518363ffffffff1660e01b81526004016122ac9291906144b0565b602060405180830381600087803b1580156122c657600080fd5b505af11580156122da573d6000803e3d6000fd5b505050506040513d601f19601f820116820180604052508101906122fe9190613b29565b50818161230b9190614b29565b600f60008681526020019081526020016000206003015461232c9190614b29565b600f6000868152602001908152602001600020600301819055505b5b84600e600086815260200190815260200160002060008581526020019081526020016000206003018190555061237c61198f565b7f74c5c6f5cd4370cc0ab554a1afdb2b24b051b40c99102354ef424aed5cd6409d84600e600087815260200190815260200160002060008681526020019081526020016000206040516123d09291906147ba565b60405180910390a150505050505050565b600860009054906101000a900473ffffffffffffffffffffffffffffffffffffffff1681565b600460009054906101000a900473ffffffffffffffffffffffffffffffffffffffff1681565b6001600f600084815260200190815260200160002060090160006101000a81548160ff0219169083600281111561248d577f4e487b7100000000000000000000000000000000000000000000000000000000600052602160045260246000fd5b021790555080600f6000848152602001908152602001600020600401819055505050565b60126020528060005260406000206000915054906101000a900460ff1681565b600960009054906101000a900473ffffffffffffffffffffffffffffffffffffffff1681565b600080600054620186a060075485600d546125129190614acf565b61251c9190614acf565b6125269190614a9e565b6125309190614a9e565b9050600d548142600054876125459190614a17565b61254f9190614b29565b6125599190614acf565b6125639190614a9e565b91505092915050565b60005481565b6000600f600083815260200190815260200160002060090160009054906101000a900460ff169050919050565b600d5481565b60035481565b6000806125b783611250565b9050600060028111156125f3577f4e487b7100000000000000000000000000000000000000000000000000000000600052602160045260246000fd5b600f600083815260200190815260200160002060090160009054906101000a900460ff16600281111561264f577f4e487b7100000000000000000000000000000000000000000000000000000000600052602160045260246000fd5b1461265d5780915050612756565b61266642611250565b8110156126a8576040517f08c379a000000000000000000000000000000000000000000000000000000000815260040161269f90614702565b60405180910390fd5b80600f6000838152602001908152602001600020600001819055506001600f600083815260200190815260200160002060090160006101000a81548160ff02191690836002811115612723577f4e487b7100000000000000000000000000000000000000000000000000000000600052602160045260246000fd5b02179055506013819080600181540180825580915050600190039060005260206000200160009091909190915055809150505b919050565b600061276783836124f7565b9050600b548110156127ae576040517f08c379a00000000000000000000000000000000000000000000000000000000081526004016127a590614682565b60405180910390fd5b505050565b6000806127bf83611959565b9050600060028111156127fb577f4e487b7100000000000000000000000000000000000000000000000000000000600052602160045260246000fd5b600e6000868152602001908152602001600020600083815260200190815260200160002060040160009054906101000a900460ff166002811115612868577f4e487b7100000000000000000000000000000000000000000000000000000000600052602160045260246000fd5b146128765780915050612910565b83600e600086815260200190815260200160002060008381526020019081526020016000206000018190555080600e6000868152602001908152602001600020600083815260200190815260200160002060010181905550600f6000858152602001908152602001600020600a01819080600181540180825580915050600190039060005260206000200160009091909190915055809150505b92915050565b600080600061292361363e565b90508373ffffffffffffffffffffffffffffffffffffffff16635909c0d56040518163ffffffff1660e01b815260040160206040518083038186803b15801561296b57600080fd5b505afa15801561297f573d6000803e3d6000fd5b505050506040513d601f19601f820116820180604052508101906129a39190613bca565b92508373ffffffffffffffffffffffffffffffffffffffff16635a3d54936040518163ffffffff1660e01b815260040160206040518083038186803b1580156129eb57600080fd5b505afa1580156129ff573d6000803e3d6000fd5b505050506040513d601f19601f82011682018060405250810190612a239190613bca565b915060008060008673ffffffffffffffffffffffffffffffffffffffff16630902f1ac6040518163ffffffff1660e01b815260040160606040518083038186803b158015612a7057600080fd5b505afa158015612a84573d6000803e3d6000fd5b505050506040513d601f19601f82011682018060405250810190612aa89190613b52565b9250925092508363ffffffff168163ffffffff1614612b675760008185612acf9190614b5d565b90508063ffffffff16612ae28486613656565b600001517bffffffffffffffffffffffffffffffffffffffffffffffffffffffff16612b0e9190614acf565b87612b199190614a17565b96508063ffffffff16612b2c8585613656565b600001517bffffffffffffffffffffffffffffffffffffffffffffffffffffffff16612b589190614acf565b86612b639190614a17565b9550505b5050509193909250565b612b7a816112c4565b4260005482612b899190614a17565b1115612bca576040517f08c379a0000000000000000000000000000000000000000000000000000000008152600401612bc1906145a2565b60405180910390fd5b6002600f600083815260200190815260200160002060090160006101000a81548160ff02191690836002811115612c2a577f4e487b7100000000000000000000000000000000000000000000000000000000600052602160045260246000fd5b02179055506000600860009054906101000a900473ffffffffffffffffffffffffffffffffffffffff1673ffffffffffffffffffffffffffffffffffffffff16638da5cb5b6040518163ffffffff1660e01b815260040160206040518083038186803b158015612c9957600080fd5b505afa158015612cad573d6000803e3d6000fd5b505050506040513d601f19601f82011682018060405250810190612cd19190613a70565b90506000600f600084815260200190815260200160002060010154600f600085815260200190815260200160002060020154612d0d9190614b29565b9050600c60009054906101000a900460ff1615612dca57612d9b604051806020016040528083600f600088815260200190815260200160002060050154600f600089815260200190815260200160002060060154612d6b9190614b29565b612d759190614a9e565b7bffffffffffffffffffffffffffffffffffffffffffffffffffffffff16815250613736565b6dffffffffffffffffffffffffffff16600f600085815260200190815260200160002060040181905550612e6c565b612e41604051806020016040528083600f600088815260200190815260200160002060070154600f600089815260200190815260200160002060080154612e119190614b29565b612e1b9190614a9e565b7bffffffffffffffffffffffffffffffffffffffffffffffffffffffff16815250613736565b6dffffffffffffffffffffffffffff16600f6000858152602001908152602001600020600401819055505b600d54600f600085815260200190815260200160002060040154612e909190614acf565b600f6000858152602001908152602001600020600401819055506000620186a0600654600f600087815260200190815260200160002060030154612ed49190614acf565b612ede9190614a9e565b90506000620186a0600254600f600088815260200190815260200160002060030154612f0a9190614acf565b612f149190614a9e565b90508082600f600088815260200190815260200160002060030154612f399190614b29565b612f439190614b29565b600f600087815260200190815260200160002060030181905550600960009054906101000a900473ffffffffffffffffffffffffffffffffffffffff1673ffffffffffffffffffffffffffffffffffffffff1663a9059cbb600a60009054906101000a900473ffffffffffffffffffffffffffffffffffffffff16846040518363ffffffff1660e01b8152600401612fdc9291906144b0565b602060405180830381600087803b158015612ff657600080fd5b505af115801561300a573d6000803e3d6000fd5b505050506040513d601f19601f8201168201806040525081019061302e9190613b29565b50600960009054906101000a900473ffffffffffffffffffffffffffffffffffffffff1673ffffffffffffffffffffffffffffffffffffffff1663a9059cbb85836040518363ffffffff1660e01b815260040161308c9291906144b0565b602060405180830381600087803b1580156130a657600080fd5b505af11580156130ba573d6000803e3d6000fd5b505050506040513d601f19601f820116820180604052508101906130de9190613b29565b507ff733bd7f4402cb7d331b34d5cd22f432b9bf71a833f786974545860d74976af285600f600088815260200190815260200160002060010154600f600089815260200190815260200160002060020154600f60008a815260200190815260200160002060050154600f60008b815260200190815260200160002060060154600f60008c815260200190815260200160002060070154600f60008d815260200190815260200160002060080154600f60008e8152602001908152602001600020600301546040516131b6989796959493929190614836565b60405180910390a15050505050565b6002808111156131fe577f4e487b7100000000000000000000000000000000000000000000000000000000600052602160045260246000fd5b600f600083815260200190815260200160002060090160009054906101000a900460ff16600281111561325a577f4e487b7100000000000000000000000000000000000000000000000000000000600052602160045260246000fd5b1461329a576040517f08c379a0000000000000000000000000000000000000000000000000000000008152600401613291906146e2565b60405180910390fd5b60006132bb600f600084815260200190815260200160002060040154611959565b90506002808111156132f6577f4e487b7100000000000000000000000000000000000000000000000000000000600052602160045260246000fd5b600e6000848152602001908152602001600020600083815260200190815260200160002060040160009054906101000a900460ff166002811115613363577f4e487b7100000000000000000000000000000000000000000000000000000000600052602160045260246000fd5b14156133a4576040517f08c379a000000000000000000000000000000000000000000000000000000000815260040161339b90614662565b60405180910390fd5b600073ffffffffffffffffffffffffffffffffffffffff16600e6000848152602001908152602001600020600083815260200190815260200160002060020160009054906101000a900473ffffffffffffffffffffffffffffffffffffffff1673ffffffffffffffffffffffffffffffffffffffff16141561345b576040517f08c379a000000000000000000000000000000000000000000000000000000000815260040161345290614622565b60405180910390fd5b600960009054906101000a900473ffffffffffffffffffffffffffffffffffffffff1673ffffffffffffffffffffffffffffffffffffffff1663a9059cbb600e6000858152602001908152602001600020600084815260200190815260200160002060020160009054906101000a900473ffffffffffffffffffffffffffffffffffffffff16600f6000868152602001908152602001600020600301546040518363ffffffff1660e01b81526004016135159291906144b0565b602060405180830381600087803b15801561352f57600080fd5b505af1158015613543573d6000803e3d6000fd5b505050506040513d601f19601f820116820180604052508101906135679190613b29565b506002600e6000848152602001908152602001600020600083815260200190815260200160002060040160006101000a81548160ff021916908360028111156135d9577f4e487b7100000000000000000000000000000000000000000000000000000000600052602160045260246000fd5b02179055507f74c5c6f5cd4370cc0ab554a1afdb2b24b051b40c99102354ef424aed5cd6409d82600e600085815260200190815260200160002060008481526020019081526020016000206040516136329291906147ba565b60405180910390a15050565b6000640100000000426136519190614dda565b905090565b61365e6138fe565b6000826dffffffffffffffffffffffffffff16116136b1576040517f08c379a00000000000000000000000000000000000000000000000000000000081526004016136a890614742565b60405180910390fd5b6040518060200160405280836dffffffffffffffffffffffffffff16607060ff16866dffffffffffffffffffffffffffff167bffffffffffffffffffffffffffffffffffffffffffffffffffffffff16901b61370d9190614a6d565b7bffffffffffffffffffffffffffffffffffffffffffffffffffffffff16815250905092915050565b6000607060ff1682600001517bffffffffffffffffffffffffffffffffffffffffffffffffffffffff16901c9050919050565b82805461377590614d5a565b90600052602060002090601f01602090048101928261379757600085556137de565b82601f106137b057805160ff19168380011785556137de565b828001600101855582156137de579182015b828111156137dd5782518255916020019190600101906137c2565b5b5090506137eb919061392f565b5090565b6040518060a001604052806000815260200160008152602001600073ffffffffffffffffffffffffffffffffffffffff1681526020016000815260200160006002811115613866577f4e487b7100000000000000000000000000000000000000000000000000000000600052602160045260246000fd5b81525090565b604051806101600160405280600081526020016000815260200160008152602001600081526020016000815260200160008152602001600081526020016000815260200160008152602001600060028111156138f1577f4e487b7100000000000000000000000000000000000000000000000000000000600052602160045260246000fd5b8152602001606081525090565b604051806020016040528060007bffffffffffffffffffffffffffffffffffffffffffffffffffffffff1681525090565b5b80821115613948576000816000905550600101613930565b5090565b600061395f61395a84614981565b614950565b90508281526020810184848401111561397757600080fd5b613982848285614d18565b509392505050565b60008135905061399981614f3c565b92915050565b6000815190506139ae81614f3c565b92915050565b6000815190506139c381614f53565b92915050565b600082601f8301126139da57600080fd5b81356139ea84826020860161394c565b91505092915050565b600081519050613a0281614f6a565b92915050565b600081359050613a1781614f81565b92915050565b600081519050613a2c81614f81565b92915050565b600081519050613a4181614f98565b92915050565b600060208284031215613a5957600080fd5b6000613a678482850161398a565b91505092915050565b600060208284031215613a8257600080fd5b6000613a908482850161399f565b91505092915050565b60008060408385031215613aac57600080fd5b6000613aba8582860161398a565b925050602083013567ffffffffffffffff811115613ad757600080fd5b613ae3858286016139c9565b9150509250929050565b60008060408385031215613b0057600080fd5b6000613b0e8582860161398a565b9250506020613b1f85828601613a08565b9150509250929050565b600060208284031215613b3b57600080fd5b6000613b49848285016139b4565b91505092915050565b600080600060608486031215613b6757600080fd5b6000613b75868287016139f3565b9350506020613b86868287016139f3565b9250506040613b9786828701613a32565b9150509250925092565b600060208284031215613bb357600080fd5b6000613bc184828501613a08565b91505092915050565b600060208284031215613bdc57600080fd5b6000613bea84828501613a1d565b91505092915050565b60008060408385031215613c0657600080fd5b6000613c1485828601613a08565b9250506020613c2585828601613a08565b9150509250929050565b600080600060608486031215613c4457600080fd5b6000613c5286828701613a08565b9350506020613c6386828701613a08565b9250506040613c7486828701613a08565b9150509250925092565b6000613c8a83836143d9565b60208301905092915050565b613c9f81614bc8565b82525050565b613cae81614bc8565b82525050565b6000613cbf826149c1565b613cc981856149e4565b9350613cd4836149b1565b8060005b83811015613d05578151613cec8882613c7e565b9750613cf7836149d7565b925050600181019050613cd8565b5085935050505092915050565b6000613d1d826149c1565b613d2781856149f5565b9350613d32836149b1565b8060005b83811015613d63578151613d4a8882613c7e565b9750613d55836149d7565b925050600181019050613d36565b5085935050505092915050565b613d7981614bda565b82525050565b613d8881614c88565b82525050565b613d9781614cac565b82525050565b613da681614cd0565b82525050565b613db581614cf4565b82525050565b613dc481614cf4565b82525050565b613dd381614d06565b82525050565b613de281614d06565b82525050565b6000613df3826149cc565b613dfd8185614a06565b9350613e0d818560208601614d27565b613e1681614ef6565b840191505092915050565b6000613e2e601983614a06565b91507f594f5520414c524541445920424f554748542041204c4f542e000000000000006000830152602082019050919050565b6000613e6e601a83614a06565b91507f4652414d4520454e442054494d45204e4f5420524541434845440000000000006000830152602082019050919050565b6000613eae601583614a06565b91507f4e4f542054484520464143544f5259204f574e455200000000000000000000006000830152602082019050919050565b6000613eee600b83614a06565b91507f4c4f5420494e20504153540000000000000000000000000000000000000000006000830152602082019050919050565b6000613f2e600d83614a06565b91507f4e4f54204c4f54204f574e4552000000000000000000000000000000000000006000830152602082019050919050565b6000613f6e600883614a06565b91507f4e4f204f574e45520000000000000000000000000000000000000000000000006000830152602082019050919050565b6000613fae601383614a06565b91507f494e56414c4944204652414d45205052494345000000000000000000000000006000830152602082019050919050565b6000613fee601383614a06565b91507f4c4f5420414c524541445920534554544c4544000000000000000000000000006000830152602082019050919050565b600061402e601083614a06565b91507f505249434520495320544f4f204c4f57000000000000000000000000000000006000830152602082019050919050565b600061406e600d83614a06565b91507f414c5245414459204f574e4552000000000000000000000000000000000000006000830152602082019050919050565b60006140ae601983614a06565b91507f415050524f56454420414d4f554e5420544f4f20534d414c4c000000000000006000830152602082019050919050565b60006140ee601083614a06565b91507f4652414d45204e4f5420434c4f534544000000000000000000000000000000006000830152602082019050919050565b600061412e600d83614a06565b91507f4652414d4520494e2050415354000000000000000000000000000000000000006000830152602082019050919050565b600061416e601183614a06565b91507f4c4f5420494e2050415354204652414d450000000000000000000000000000006000830152602082019050919050565b60006141ae601783614a06565b91507f4669786564506f696e743a204449565f42595f5a45524f0000000000000000006000830152602082019050919050565b6000610160830160008301516141fa60008601826143d9565b50602083015161420d60208601826143d9565b50604083015161422060408601826143d9565b50606083015161423360608601826143d9565b50608083015161424660808601826143d9565b5060a083015161425960a08601826143d9565b5060c083015161426c60c08601826143d9565b5060e083015161427f60e08601826143d9565b506101008301516142946101008601826143d9565b506101208301516142a9610120860182613dac565b506101408301518482036101408601526142c38282613cb4565b9150508091505092915050565b60a0820160008201516142e660008501826143d9565b5060208201516142f960208501826143d9565b50604082015161430c6040850182613c96565b50606082015161431f60608501826143d9565b5060808201516143326080850182613dca565b50505050565b60a08201600080830154905061434d81614dc0565b61435a60008601826143d9565b506001830154905061436b81614dc0565b61437860208601826143d9565b506002830154905061438981614d8c565b6143966040860182613c96565b50600383015490506143a781614dc0565b6143b460608601826143d9565b50600483015490506143c581614da6565b6143d26080860182613dca565b5050505050565b6143e281614c6e565b82525050565b6143f181614c6e565b82525050565b600060208201905061440c6000830184613ca5565b92915050565b60006040820190506144276000830185613ca5565b6144346020830184613ca5565b9392505050565b60006060820190506144506000830186613ca5565b61445d6020830185613ca5565b818103604083015261446f8184613de8565b9050949350505050565b600060608201905061448e6000830186613ca5565b61449b6020830185613ca5565b6144a860408301846143e8565b949350505050565b60006040820190506144c56000830185613ca5565b6144d260208301846143e8565b9392505050565b600060208201905081810360008301526144f38184613d12565b905092915050565b60006020820190506145106000830184613d70565b92915050565b600060208201905061452b6000830184613d7f565b92915050565b60006020820190506145466000830184613d8e565b92915050565b60006020820190506145616000830184613d9d565b92915050565b600060208201905061457c6000830184613dbb565b92915050565b6000602082019050818103600083015261459b81613e21565b9050919050565b600060208201905081810360008301526145bb81613e61565b9050919050565b600060208201905081810360008301526145db81613ea1565b9050919050565b600060208201905081810360008301526145fb81613ee1565b9050919050565b6000602082019050818103600083015261461b81613f21565b9050919050565b6000602082019050818103600083015261463b81613f61565b9050919050565b6000602082019050818103600083015261465b81613fa1565b9050919050565b6000602082019050818103600083015261467b81613fe1565b9050919050565b6000602082019050818103600083015261469b81614021565b9050919050565b600060208201905081810360008301526146bb81614061565b9050919050565b600060208201905081810360008301526146db816140a1565b9050919050565b600060208201905081810360008301526146fb816140e1565b9050919050565b6000602082019050818103600083015261471b81614121565b9050919050565b6000602082019050818103600083015261473b81614161565b9050919050565b6000602082019050818103600083015261475b816141a1565b9050919050565b6000602082019050818103600083015261477c81846141e1565b905092915050565b600060a08201905061479960008301846142d0565b92915050565b60006020820190506147b460008301846143e8565b92915050565b600060c0820190506147cf60008301856143e8565b6147dc6020830184614338565b9392505050565b600060a0820190506147f860008301886143e8565b61480560208301876143e8565b6148126040830186613ca5565b61481f60608301856143e8565b61482c6080830184613dd9565b9695505050505050565b60006101008201905061484c600083018b6143e8565b614859602083018a6143e8565b61486660408301896143e8565b61487360608301886143e8565b61488060808301876143e8565b61488d60a08301866143e8565b61489a60c08301856143e8565b6148a760e08301846143e8565b9998505050505050505050565b6000610140820190506148ca600083018d6143e8565b6148d7602083018c6143e8565b6148e4604083018b6143e8565b6148f1606083018a6143e8565b6148fe60808301896143e8565b61490b60a08301886143e8565b61491860c08301876143e8565b61492560e08301866143e8565b6149336101008301856143e8565b614941610120830184613dbb565b9b9a5050505050505050505050565b6000604051905081810181811067ffffffffffffffff8211171561497757614976614ec7565b5b8060405250919050565b600067ffffffffffffffff82111561499c5761499b614ec7565b5b601f19601f8301169050602081019050919050565b6000819050602082019050919050565b600081519050919050565b600081519050919050565b6000602082019050919050565b600082825260208201905092915050565b600082825260208201905092915050565b600082825260208201905092915050565b6000614a2282614c6e565b9150614a2d83614c6e565b9250827fffffffffffffffffffffffffffffffffffffffffffffffffffffffffffffffff03821115614a6257614a61614e0b565b5b828201905092915050565b6000614a7882614c46565b9150614a8383614c46565b925082614a9357614a92614e3a565b5b828204905092915050565b6000614aa982614c6e565b9150614ab483614c6e565b925082614ac457614ac3614e3a565b5b828204905092915050565b6000614ada82614c6e565b9150614ae583614c6e565b9250817fffffffffffffffffffffffffffffffffffffffffffffffffffffffffffffffff0483118215151615614b1e57614b1d614e0b565b5b828202905092915050565b6000614b3482614c6e565b9150614b3f83614c6e565b925082821015614b5257614b51614e0b565b5b828203905092915050565b6000614b6882614c78565b9150614b7383614c78565b925082821015614b8657614b85614e0b565b5b828203905092915050565b600073ffffffffffffffffffffffffffffffffffffffff82169050919050565b600060ff82169050919050565b6000819050919050565b6000614bd382614c26565b9050919050565b60008115159050919050565b6000819050614bf482614f14565b919050565b6000819050614c0782614f28565b919050565b60006dffffffffffffffffffffffffffff82169050919050565b600073ffffffffffffffffffffffffffffffffffffffff82169050919050565b60007bffffffffffffffffffffffffffffffffffffffffffffffffffffffff82169050919050565b6000819050919050565b600063ffffffff82169050919050565b6000614c9382614c9a565b9050919050565b6000614ca582614c26565b9050919050565b6000614cb782614cbe565b9050919050565b6000614cc982614c26565b9050919050565b6000614cdb82614ce2565b9050919050565b6000614ced82614c26565b9050919050565b6000614cff82614be6565b9050919050565b6000614d1182614bf9565b9050919050565b82818337600083830152505050565b60005b83811015614d45578082015181840152602081019050614d2a565b83811115614d54576000848401525b50505050565b60006002820490506001821680614d7257607f821691505b60208210811415614d8657614d85614e98565b5b50919050565b6000614d9f614d9a83614f07565b614b91565b9050919050565b6000614db9614db483614f07565b614bb1565b9050919050565b6000614dd3614dce83614f07565b614bbe565b9050919050565b6000614de582614c6e565b9150614df083614c6e565b925082614e0057614dff614e3a565b5b828206905092915050565b7f4e487b7100000000000000000000000000000000000000000000000000000000600052601160045260246000fd5b7f4e487b7100000000000000000000000000000000000000000000000000000000600052601260045260246000fd5b7f4e487b7100000000000000000000000000000000000000000000000000000000600052602160045260246000fd5b7f4e487b7100000000000000000000000000000000000000000000000000000000600052602260045260246000fd5b7f4e487b7100000000000000000000000000000000000000000000000000000000600052604160045260246000fd5b6000601f19601f8301169050919050565b60008160001c9050919050565b60038110614f2557614f24614e69565b5b50565b60038110614f3957614f38614e69565b5b50565b614f4581614bc8565b8114614f5057600080fd5b50565b614f5c81614bda565b8114614f6757600080fd5b50565b614f7381614c0c565b8114614f7e57600080fd5b50565b614f8a81614c6e565b8114614f9557600080fd5b50565b614fa181614c78565b8114614fac57600080fd5b5056fea2646970667358221220a13ddd1ea81551af0b76d5b6cabfd2287a65e5d42b4aedf57a91fed17f892a9e64736f6c63430008000033",
  "linkReferences": {},
  "deployedLinkReferences": {}
}