{
  "_format": "hh-sol-artifact-1",
  "contractName": "Market",
  "sourceName": "contracts/Market.sol",
  "abi": [
    {
      "inputs": [
        {
          "internalType": "address",
          "name": "_acct",
          "type": "address"
        },
        {
          "internalType": "uint256",
          "name": "_feeProtocol",
          "type": "uint256"
        },
        {
          "internalType": "uint256",
          "name": "_taxMarket",
          "type": "uint256"
        },
        {
          "internalType": "uint256",
          "name": "_dPrice",
          "type": "uint256"
        },
        {
          "internalType": "address",
          "name": "_uniswapPool",
          "type": "address"
        }
      ],
      "stateMutability": "nonpayable",
      "type": "constructor"
    },
    {
      "anonymous": false,
      "inputs": [
        {
          "indexed": false,
          "internalType": "uint256",
          "name": "fromFrame",
          "type": "uint256"
        },
        {
          "indexed": false,
          "internalType": "uint256",
          "name": "toFrame",
          "type": "uint256"
        },
        {
          "indexed": false,
          "internalType": "uint256",
          "name": "amount",
          "type": "uint256"
        }
      ],
      "name": "FrameRollover",
      "type": "event"
    },
    {
      "anonymous": false,
      "inputs": [
        {
          "components": [
            {
              "internalType": "uint256",
              "name": "frameKey",
              "type": "uint256"
            },
            {
              "internalType": "uint256",
              "name": "rate",
              "type": "uint256"
            },
            {
              "internalType": "uint256[]",
              "name": "lotKeys",
              "type": "uint256[]"
            },
            {
              "internalType": "address",
              "name": "claimedBy",
              "type": "address"
            },
            {
              "internalType": "uint256",
              "name": "rateSettle",
              "type": "uint256"
            },
            {
              "internalType": "uint256",
              "name": "feeSettle",
              "type": "uint256"
            },
            {
              "internalType": "uint256",
              "name": "rewardSettle",
              "type": "uint256"
            },
            {
              "internalType": "uint256",
              "name": "rewardPool",
              "type": "uint256"
            }
          ],
          "indexed": false,
          "internalType": "struct Market.Frame",
          "name": "frame",
          "type": "tuple"
        }
      ],
      "name": "FrameUpdate",
      "type": "event"
    },
    {
      "anonymous": false,
      "inputs": [
        {
          "components": [
            {
              "internalType": "uint256",
              "name": "frameKey",
              "type": "uint256"
            },
            {
              "internalType": "uint256",
              "name": "lotKey",
              "type": "uint256"
            },
            {
              "components": [
                {
                  "internalType": "uint256",
                  "name": "blockNumber",
                  "type": "uint256"
                },
                {
                  "internalType": "uint256",
                  "name": "blockTimestamp",
                  "type": "uint256"
                },
                {
                  "internalType": "address",
                  "name": "owner",
                  "type": "address"
                },
                {
                  "internalType": "uint256",
                  "name": "acquisitionPrice",
                  "type": "uint256"
                },
                {
                  "internalType": "uint256",
                  "name": "taxCharged",
                  "type": "uint256"
                }
              ],
              "internalType": "struct Market.LotState[]",
              "name": "states",
              "type": "tuple[]"
            }
          ],
          "indexed": false,
          "internalType": "struct Market.Lot",
          "name": "lot",
          "type": "tuple"
        }
      ],
      "name": "LotUpdate",
      "type": "event"
    },
    {
      "anonymous": false,
      "inputs": [
        {
          "indexed": true,
          "internalType": "address",
          "name": "winner",
          "type": "address"
        },
        {
          "indexed": false,
          "internalType": "uint256",
          "name": "amount",
          "type": "uint256"
        },
        {
          "indexed": false,
          "internalType": "uint256",
          "name": "frameKey",
          "type": "uint256"
        }
      ],
      "name": "RewardDistributed",
      "type": "event"
    },
    {
      "anonymous": false,
      "inputs": [
        {
          "indexed": true,
          "internalType": "address",
          "name": "user",
          "type": "address"
        },
        {
          "indexed": false,
          "internalType": "uint256",
          "name": "amount",
          "type": "uint256"
        },
        {
          "indexed": false,
          "internalType": "uint256",
          "name": "frameKey",
          "type": "uint256"
        }
      ],
      "name": "TaxCollected",
      "type": "event"
    },
    {
      "inputs": [],
      "name": "accountingToken",
      "outputs": [
        {
          "internalType": "contract IERC20Metadata",
          "name": "",
          "type": "address"
        }
      ],
      "stateMutability": "view",
      "type": "function"
    },
    {
      "inputs": [],
      "name": "accountingTokenDecimals",
      "outputs": [
        {
          "internalType": "uint8",
          "name": "",
          "type": "uint8"
        }
      ],
      "stateMutability": "view",
      "type": "function"
    },
    {
      "inputs": [],
      "name": "baseUnit",
      "outputs": [
        {
          "internalType": "uint256",
          "name": "",
          "type": "uint256"
        }
      ],
      "stateMutability": "view",
      "type": "function"
    },
    {
      "inputs": [
        {
          "internalType": "uint256",
          "name": "newFee",
          "type": "uint256"
        }
      ],
      "name": "changeProtocolFee",
      "outputs": [],
      "stateMutability": "nonpayable",
      "type": "function"
    },
    {
      "inputs": [
        {
          "internalType": "uint256",
          "name": "newTax",
          "type": "uint256"
        }
      ],
      "name": "changeTaxPercentage",
      "outputs": [],
      "stateMutability": "nonpayable",
      "type": "function"
    },
    {
      "inputs": [
        {
          "internalType": "uint256",
          "name": "timestamp",
          "type": "uint256"
        }
      ],
      "name": "clcFrameKey",
      "outputs": [
        {
          "internalType": "uint256",
          "name": "",
          "type": "uint256"
        }
      ],
      "stateMutability": "view",
      "type": "function"
    },
    {
      "inputs": [
        {
          "internalType": "uint256",
          "name": "valueQ96",
          "type": "uint256"
        }
      ],
      "name": "clcLotKey",
      "outputs": [
        {
          "internalType": "uint256",
          "name": "",
          "type": "uint256"
        }
      ],
      "stateMutability": "view",
      "type": "function"
    },
    {
      "inputs": [],
      "name": "clcRate",
      "outputs": [
        {
          "internalType": "uint256",
          "name": "",
          "type": "uint256"
        }
      ],
      "stateMutability": "view",
      "type": "function"
    },
    {
      "inputs": [
        {
          "internalType": "uint256",
          "name": "timestamp",
          "type": "uint256"
        }
      ],
      "name": "clcRateAvg",
      "outputs": [
        {
          "internalType": "uint256",
          "name": "",
          "type": "uint256"
        }
      ],
      "stateMutability": "view",
      "type": "function"
    },
    {
      "inputs": [
        {
          "internalType": "uint256",
          "name": "frameKey",
          "type": "uint256"
        },
        {
          "internalType": "uint256",
          "name": "acquisitionPriceQ96",
          "type": "uint256"
        }
      ],
      "name": "clcTax",
      "outputs": [
        {
          "internalType": "uint256",
          "name": "",
          "type": "uint256"
        }
      ],
      "stateMutability": "view",
      "type": "function"
    },
    {
      "inputs": [
        {
          "internalType": "uint256",
          "name": "frameKey",
          "type": "uint256"
        },
        {
          "internalType": "uint256",
          "name": "lotKey",
          "type": "uint256"
        }
      ],
      "name": "concatenate",
      "outputs": [
        {
          "internalType": "uint256",
          "name": "concatenated",
          "type": "uint256"
        }
      ],
      "stateMutability": "pure",
      "type": "function"
    },
    {
      "inputs": [
        {
          "internalType": "uint256",
          "name": "amount18Dec",
          "type": "uint256"
        },
        {
          "internalType": "bool",
          "name": "round",
          "type": "bool"
        }
      ],
      "name": "convertToTokenDecimals",
      "outputs": [
        {
          "internalType": "uint256",
          "name": "",
          "type": "uint256"
        }
      ],
      "stateMutability": "view",
      "type": "function"
    },
    {
      "inputs": [],
      "name": "dPrice",
      "outputs": [
        {
          "internalType": "uint256",
          "name": "",
          "type": "uint256"
        }
      ],
      "stateMutability": "view",
      "type": "function"
    },
    {
      "inputs": [],
      "name": "feeProtocol",
      "outputs": [
        {
          "internalType": "uint256",
          "name": "",
          "type": "uint256"
        }
      ],
      "stateMutability": "view",
      "type": "function"
    },
    {
      "inputs": [
        {
          "internalType": "uint256",
          "name": "",
          "type": "uint256"
        }
      ],
      "name": "frameKeyToIndex",
      "outputs": [
        {
          "internalType": "uint256",
          "name": "",
          "type": "uint256"
        }
      ],
      "stateMutability": "view",
      "type": "function"
    },
    {
      "inputs": [
        {
          "internalType": "uint256",
          "name": "",
          "type": "uint256"
        }
      ],
      "name": "frames",
      "outputs": [
        {
          "internalType": "uint256",
          "name": "frameKey",
          "type": "uint256"
        },
        {
          "internalType": "uint256",
          "name": "rate",
          "type": "uint256"
        },
        {
          "internalType": "address",
          "name": "claimedBy",
          "type": "address"
        },
        {
          "internalType": "uint256",
          "name": "rateSettle",
          "type": "uint256"
        },
        {
          "internalType": "uint256",
          "name": "feeSettle",
          "type": "uint256"
        },
        {
          "internalType": "uint256",
          "name": "rewardSettle",
          "type": "uint256"
        },
        {
          "internalType": "uint256",
          "name": "rewardPool",
          "type": "uint256"
        }
      ],
      "stateMutability": "view",
      "type": "function"
    },
    {
      "inputs": [
        {
          "internalType": "uint256",
          "name": "",
          "type": "uint256"
        }
      ],
      "name": "framesKeys",
      "outputs": [
        {
          "internalType": "uint256",
          "name": "",
          "type": "uint256"
        }
      ],
      "stateMutability": "view",
      "type": "function"
    },
    {
      "inputs": [
        {
          "internalType": "uint256",
          "name": "x96",
          "type": "uint256"
        }
      ],
      "name": "fromQ96",
      "outputs": [
        {
          "internalType": "uint256",
          "name": "",
          "type": "uint256"
        }
      ],
      "stateMutability": "view",
      "type": "function"
    },
    {
      "inputs": [
        {
          "internalType": "uint256",
          "name": "frameKey",
          "type": "uint256"
        }
      ],
      "name": "getFrame",
      "outputs": [
        {
          "components": [
            {
              "internalType": "uint256",
              "name": "frameKey",
              "type": "uint256"
            },
            {
              "internalType": "uint256",
              "name": "rate",
              "type": "uint256"
            },
            {
              "internalType": "uint256[]",
              "name": "lotKeys",
              "type": "uint256[]"
            },
            {
              "internalType": "address",
              "name": "claimedBy",
              "type": "address"
            },
            {
              "internalType": "uint256",
              "name": "rateSettle",
              "type": "uint256"
            },
            {
              "internalType": "uint256",
              "name": "feeSettle",
              "type": "uint256"
            },
            {
              "internalType": "uint256",
              "name": "rewardSettle",
              "type": "uint256"
            },
            {
              "internalType": "uint256",
              "name": "rewardPool",
              "type": "uint256"
            }
          ],
          "internalType": "struct Market.Frame",
          "name": "",
          "type": "tuple"
        }
      ],
      "stateMutability": "view",
      "type": "function"
    },
    {
      "inputs": [
        {
          "internalType": "uint256",
          "name": "frameKey",
          "type": "uint256"
        }
      ],
      "name": "getFrameIndex",
      "outputs": [
        {
          "internalType": "uint256",
          "name": "",
          "type": "uint256"
        }
      ],
      "stateMutability": "view",
      "type": "function"
    },
    {
      "inputs": [
        {
          "internalType": "uint256",
          "name": "frameKey",
          "type": "uint256"
        }
      ],
      "name": "getFrameLotKeys",
      "outputs": [
        {
          "internalType": "uint256[]",
          "name": "",
          "type": "uint256[]"
        }
      ],
      "stateMutability": "view",
      "type": "function"
    },
    {
      "inputs": [],
      "name": "getFramesLength",
      "outputs": [
        {
          "internalType": "uint256",
          "name": "",
          "type": "uint256"
        }
      ],
      "stateMutability": "view",
      "type": "function"
    },
    {
      "inputs": [],
      "name": "getGlobalRewardPool",
      "outputs": [
        {
          "internalType": "uint256",
          "name": "",
          "type": "uint256"
        }
      ],
      "stateMutability": "view",
      "type": "function"
    },
    {
      "inputs": [
        {
          "internalType": "uint256",
          "name": "frameKey",
          "type": "uint256"
        },
        {
          "internalType": "uint256",
          "name": "lotKey",
          "type": "uint256"
        }
      ],
      "name": "getLot",
      "outputs": [
        {
          "components": [
            {
              "internalType": "uint256",
              "name": "frameKey",
              "type": "uint256"
            },
            {
              "internalType": "uint256",
              "name": "lotKey",
              "type": "uint256"
            },
            {
              "components": [
                {
                  "internalType": "uint256",
                  "name": "blockNumber",
                  "type": "uint256"
                },
                {
                  "internalType": "uint256",
                  "name": "blockTimestamp",
                  "type": "uint256"
                },
                {
                  "internalType": "address",
                  "name": "owner",
                  "type": "address"
                },
                {
                  "internalType": "uint256",
                  "name": "acquisitionPrice",
                  "type": "uint256"
                },
                {
                  "internalType": "uint256",
                  "name": "taxCharged",
                  "type": "uint256"
                }
              ],
              "internalType": "struct Market.LotState[]",
              "name": "states",
              "type": "tuple[]"
            }
          ],
          "internalType": "struct Market.Lot",
          "name": "",
          "type": "tuple"
        }
      ],
      "stateMutability": "view",
      "type": "function"
    },
    {
      "inputs": [
        {
          "internalType": "uint256",
          "name": "frameKey",
          "type": "uint256"
        },
        {
          "internalType": "uint256",
          "name": "lotKey",
          "type": "uint256"
        }
      ],
      "name": "getLotStates",
      "outputs": [
        {
          "components": [
            {
              "internalType": "uint256",
              "name": "blockNumber",
              "type": "uint256"
            },
            {
              "internalType": "uint256",
              "name": "blockTimestamp",
              "type": "uint256"
            },
            {
              "internalType": "address",
              "name": "owner",
              "type": "address"
            },
            {
              "internalType": "uint256",
              "name": "acquisitionPrice",
              "type": "uint256"
            },
            {
              "internalType": "uint256",
              "name": "taxCharged",
              "type": "uint256"
            }
          ],
          "internalType": "struct Market.LotState[]",
          "name": "",
          "type": "tuple[]"
        }
      ],
      "stateMutability": "view",
      "type": "function"
    },
    {
      "inputs": [],
      "name": "getLotsArray",
      "outputs": [
        {
          "internalType": "uint256[]",
          "name": "",
          "type": "uint256[]"
        }
      ],
      "stateMutability": "view",
      "type": "function"
    },
    {
      "inputs": [],
      "name": "getLotsArrayLength",
      "outputs": [
        {
          "internalType": "uint256",
          "name": "",
          "type": "uint256"
        }
      ],
      "stateMutability": "view",
      "type": "function"
    },
    {
      "inputs": [
        {
          "internalType": "uint256",
          "name": "frameKey",
          "type": "uint256"
        }
      ],
      "name": "getLotsKeysInFrame",
      "outputs": [
        {
          "internalType": "uint256[]",
          "name": "",
          "type": "uint256[]"
        }
      ],
      "stateMutability": "view",
      "type": "function"
    },
    {
      "inputs": [
        {
          "internalType": "uint256",
          "name": "frameKey",
          "type": "uint256"
        }
      ],
      "name": "getLotsLength",
      "outputs": [
        {
          "internalType": "uint256",
          "name": "",
          "type": "uint256"
        }
      ],
      "stateMutability": "view",
      "type": "function"
    },
    {
      "inputs": [],
      "name": "getPendingRewardForNextSettlement",
      "outputs": [
        {
          "internalType": "uint256",
          "name": "",
          "type": "uint256"
        }
      ],
      "stateMutability": "view",
      "type": "function"
    },
    {
      "inputs": [
        {
          "internalType": "uint256",
          "name": "frameKey",
          "type": "uint256"
        }
      ],
      "name": "getStateFrame",
      "outputs": [
        {
          "internalType": "enum Market.SFrame",
          "name": "",
          "type": "uint8"
        }
      ],
      "stateMutability": "view",
      "type": "function"
    },
    {
      "inputs": [
        {
          "internalType": "uint256",
          "name": "frameKey",
          "type": "uint256"
        },
        {
          "internalType": "uint256",
          "name": "lotKey",
          "type": "uint256"
        }
      ],
      "name": "getStateLot",
      "outputs": [
        {
          "internalType": "enum Market.SLot",
          "name": "",
          "type": "uint8"
        }
      ],
      "stateMutability": "view",
      "type": "function"
    },
    {
      "inputs": [
        {
          "internalType": "address",
          "name": "user",
          "type": "address"
        }
      ],
      "name": "getUserStats",
      "outputs": [
        {
          "internalType": "uint256",
          "name": "totalTaxPaid",
          "type": "uint256"
        },
        {
          "internalType": "uint256",
          "name": "totalWinnings",
          "type": "uint256"
        },
        {
          "internalType": "uint256",
          "name": "netPosition",
          "type": "uint256"
        }
      ],
      "stateMutability": "view",
      "type": "function"
    },
    {
      "inputs": [],
      "name": "initTimestamp",
      "outputs": [
        {
          "internalType": "uint256",
          "name": "",
          "type": "uint256"
        }
      ],
      "stateMutability": "view",
      "type": "function"
    },
    {
      "inputs": [],
      "name": "lastActiveFrameKey",
      "outputs": [
        {
          "internalType": "uint256",
          "name": "",
          "type": "uint256"
        }
      ],
      "stateMutability": "view",
      "type": "function"
    },
    {
      "inputs": [],
      "name": "lastSettledFrameIndex",
      "outputs": [
        {
          "internalType": "uint256",
          "name": "",
          "type": "uint256"
        }
      ],
      "stateMutability": "view",
      "type": "function"
    },
    {
      "inputs": [
        {
          "internalType": "uint256",
          "name": "",
          "type": "uint256"
        },
        {
          "internalType": "uint256",
          "name": "",
          "type": "uint256"
        }
      ],
      "name": "lots",
      "outputs": [
        {
          "internalType": "uint256",
          "name": "frameKey",
          "type": "uint256"
        },
        {
          "internalType": "uint256",
          "name": "lotKey",
          "type": "uint256"
        }
      ],
      "stateMutability": "view",
      "type": "function"
    },
    {
      "inputs": [
        {
          "internalType": "uint256",
          "name": "",
          "type": "uint256"
        }
      ],
      "name": "lotsArray",
      "outputs": [
        {
          "internalType": "uint256",
          "name": "",
          "type": "uint256"
        }
      ],
      "stateMutability": "view",
      "type": "function"
    },
    {
      "inputs": [
        {
          "internalType": "uint256",
          "name": "frameKey",
          "type": "uint256"
        },
        {
          "internalType": "uint256",
          "name": "avgPrice",
          "type": "uint256"
        }
      ],
      "name": "overrideFrameRate",
      "outputs": [],
      "stateMutability": "nonpayable",
      "type": "function"
    },
    {
      "inputs": [],
      "name": "owner",
      "outputs": [
        {
          "internalType": "address",
          "name": "",
          "type": "address"
        }
      ],
      "stateMutability": "view",
      "type": "function"
    },
    {
      "inputs": [],
      "name": "period",
      "outputs": [
        {
          "internalType": "uint256",
          "name": "",
          "type": "uint256"
        }
      ],
      "stateMutability": "view",
      "type": "function"
    },
    {
      "inputs": [],
      "name": "rewardPool",
      "outputs": [
        {
          "internalType": "uint256",
          "name": "",
          "type": "uint256"
        }
      ],
      "stateMutability": "view",
      "type": "function"
    },
    {
      "inputs": [
        {
          "internalType": "uint256",
          "name": "frameKey",
          "type": "uint256"
        }
      ],
      "name": "setFrameRate",
      "outputs": [],
      "stateMutability": "nonpayable",
      "type": "function"
    },
    {
      "inputs": [],
      "name": "settleFrame",
      "outputs": [
        {
          "internalType": "uint256",
          "name": "",
          "type": "uint256"
        }
      ],
      "stateMutability": "nonpayable",
      "type": "function"
    },
    {
      "inputs": [],
      "name": "tSettle",
      "outputs": [
        {
          "internalType": "uint256",
          "name": "",
          "type": "uint256"
        }
      ],
      "stateMutability": "view",
      "type": "function"
    },
    {
      "inputs": [],
      "name": "taxMarket",
      "outputs": [
        {
          "internalType": "uint256",
          "name": "",
          "type": "uint256"
        }
      ],
      "stateMutability": "view",
      "type": "function"
    },
    {
      "inputs": [
        {
          "internalType": "uint256",
          "name": "",
          "type": "uint256"
        }
      ],
      "name": "taxesCollectedInFrame",
      "outputs": [
        {
          "internalType": "uint256",
          "name": "",
          "type": "uint256"
        }
      ],
      "stateMutability": "view",
      "type": "function"
    },
    {
      "inputs": [
        {
          "internalType": "uint256",
          "name": "amount",
          "type": "uint256"
        }
      ],
      "name": "toQ96",
      "outputs": [
        {
          "internalType": "uint256",
          "name": "",
          "type": "uint256"
        }
      ],
      "stateMutability": "view",
      "type": "function"
    },
    {
      "inputs": [],
      "name": "totalRewardsDistributed",
      "outputs": [
        {
          "internalType": "uint256",
          "name": "",
          "type": "uint256"
        }
      ],
      "stateMutability": "view",
      "type": "function"
    },
    {
      "inputs": [],
      "name": "totalTaxesCollected",
      "outputs": [
        {
          "internalType": "uint256",
          "name": "",
          "type": "uint256"
        }
      ],
      "stateMutability": "view",
      "type": "function"
    },
    {
      "inputs": [
        {
          "internalType": "uint256",
          "name": "timestamp",
          "type": "uint256"
        },
        {
          "internalType": "uint256",
          "name": "rate",
          "type": "uint256"
        },
        {
          "internalType": "uint256",
          "name": "acquisitionPrice",
          "type": "uint256"
        }
      ],
      "name": "tradeLot",
      "outputs": [],
      "stateMutability": "nonpayable",
      "type": "function"
    },
    {
      "inputs": [],
      "name": "uniswapPool",
      "outputs": [
        {
          "internalType": "contract IUniswapV3Pool",
          "name": "",
          "type": "address"
        }
      ],
      "stateMutability": "view",
      "type": "function"
    },
    {
      "inputs": [
        {
          "internalType": "address",
          "name": "",
          "type": "address"
        }
      ],
      "name": "userTotalTaxPaid",
      "outputs": [
        {
          "internalType": "uint256",
          "name": "",
          "type": "uint256"
        }
      ],
      "stateMutability": "view",
      "type": "function"
    },
    {
      "inputs": [
        {
          "internalType": "address",
          "name": "",
          "type": "address"
        }
      ],
      "name": "userTotalWinnings",
      "outputs": [
        {
          "internalType": "uint256",
          "name": "",
          "type": "uint256"
        }
      ],
      "stateMutability": "view",
      "type": "function"
    },
    {
      "inputs": [
        {
          "internalType": "uint256",
          "name": "amount",
          "type": "uint256"
        }
      ],
      "name": "withdrawAccountingToken",
      "outputs": [],
      "stateMutability": "nonpayable",
      "type": "function"
    }
  ],
  "bytecode": "0x60a060405262015180600055636592e1806001556000600255610258600355600060055560006006553480156200003557600080fd5b5060405162004a0938038062004a0983398101604081905262000058916200037e565b600a80546101003302610100600160a81b0319909116179055600480546001600160a01b038381166001600160a01b0319928316178355600780549189169190921681179091556040805163313ce56760e01b81529051919263313ce5679282820192602092908290030181865afa158015620000d9573d6000803e3d6000fd5b505050506040513d601f19601f82011682018060405250810190620000ff9190620003d3565b600a805460ff191660ff9290921691821781556200011e91906200050b565b60808190526200014a906064906200013890879062000519565b62000144919062000533565b6200018c565b60025560805162000165906064906200013890869062000519565b6006556080516200017d906200014490849062000519565b60055550620005829350505050565b6000620001b0826c01000000000000000000000000608051620001b660201b60201c565b92915050565b6000808060001985870985870292508281108382030391505080600003620001f25760008411620001e657600080fd5b5082900490506200035a565b808411620001ff57600080fd5b600084868809808403938111909203919050600085620002228119600162000556565b1695869004959384900493600081900304600101905062000244818462000519565b9093179260006200025787600362000519565b600218905062000268818862000519565b620002759060026200056c565b62000281908262000519565b90506200028f818862000519565b6200029c9060026200056c565b620002a8908262000519565b9050620002b6818862000519565b620002c39060026200056c565b620002cf908262000519565b9050620002dd818862000519565b620002ea9060026200056c565b620002f6908262000519565b905062000304818862000519565b620003119060026200056c565b6200031d908262000519565b90506200032b818862000519565b620003389060026200056c565b62000344908262000519565b905062000352818662000519565b955050505050505b9392505050565b80516001600160a01b03811681146200037957600080fd5b919050565b600080600080600060a086880312156200039757600080fd5b620003a28662000361565b9450602086015193506040860151925060608601519150620003c76080870162000361565b90509295509295909350565b600060208284031215620003e657600080fd5b815160ff811681146200035a57600080fd5b634e487b7160e01b600052601160045260246000fd5b600181815b808511156200044f578160001904821115620004335762000433620003f8565b808516156200044157918102915b93841c939080029062000413565b509250929050565b6000826200046857506001620001b0565b816200047757506000620001b0565b81600181146200049057600281146200049b57620004bb565b6001915050620001b0565b60ff841115620004af57620004af620003f8565b50506001821b620001b0565b5060208310610133831016604e8410600b8410161715620004e0575081810a620001b0565b620004ec83836200040e565b8060001904821115620005035762000503620003f8565b029392505050565b60006200035a838362000457565b8082028115828204841417620001b057620001b0620003f8565b6000826200055157634e487b7160e01b600052601260045260246000fd5b500490565b80820180821115620001b057620001b0620003f8565b81810381811115620001b057620001b0620003f8565b60805161445d620005ac6000396000818161077701528181610afe01526113a9015261445d6000f3fe608060405234801561001057600080fd5b506004361061035d5760003560e01c8063884133e6116101d3578063c0423f2e11610104578063ee172546116100a2578063f601d5101161007c578063f601d510146107fc578063fb0d5e091461081b578063fe6874751461083b578063ffdabe2d1461084e57600080fd5b8063ee172546146107e2578063ef78d4fd146107eb578063f3517fef146107f457600080fd5b8063d18743dd116100de578063d18743dd146107a1578063da68cf8b146107b4578063e107fb4f146107c7578063ed320aa8146107da57600080fd5b8063c0423f2e1461076a578063c2930f9114610772578063ca7d5dce1461079957600080fd5b8063b067f42d11610171578063ba4e137f1161014b578063ba4e137f1461071c578063ba52f34214610724578063bad1265314610737578063bdd3d8251461075757600080fd5b8063b067f42d146106b9578063b254eb17146106c2578063b93dafa9146106d557600080fd5b80638edc6a2c116101ad5780638edc6a2c146105d85780639592de18146105fb578063a10340bc1461060e578063a73482f6146106a657600080fd5b8063884133e6146105965780638a5779c81461059f5780638da5cb5b146105a857600080fd5b80634c73884f116102ad5780636fcc0c971161024b57806378328a171161022557806378328a171461055e5780637beffb82146105715780637e9966391461057a57806386e670cb1461058357600080fd5b80636fcc0c97146105155780637358c57a14610535578063773d51eb1461053e57600080fd5b806361eee2cb1161028757806361eee2cb146104c657806364772f21146104d957806366666aa9146104ec5780636f1aefc3146104f557600080fd5b80634c73884f1461046f5780634e43603a1461048f578063527eb4bc146104bd57600080fd5b80631b7be2121161031a578063301f7ac8116102f4578063301f7ac8146104205780633baf158714610440578063499a0fc4146104535780634a00521f1461045c57600080fd5b80631b7be212146103ed5780632457e620146103a85780632c4387171461040d57600080fd5b8063050e88401461036257806308857442146103885780630d0a1c1a146103a857806317e9b6d5146103c857806318d13d87146103d0578063197c4e78146103e5575b600080fd5b6103756103703660046139a7565b610861565b6040519081526020015b60405180910390f35b6103756103963660046139d5565b60156020526000908152604090205481565b6103bb6103b63660046139a7565b610882565b60405161037f91906139f2565b6103756108e7565b6103e36103de366004613a36565b6109d2565b005b601354610375565b6103756103fb3660046139a7565b600e6020526000908152604090205481565b61037561041b3660046139a7565b610af6565b61037561042e3660046139a7565b60116020526000908152604090205481565b6103e361044e3660046139a7565b610b2d565b61037560055481565b61037561046a3660046139a7565b610c2c565b61048261047d366004613a36565b610c6c565b60405161037f9190613a6e565b6104a261049d3660046139d5565b610d98565b6040805193845260208401929092529082015260600161037f565b61037560025481565b6103756104d43660046139a7565b610dde565b6103e36104e7366004613a88565b610e15565b61037560085481565b610508610503366004613a36565b610fe9565b60405161037f9190613aef565b6103756105233660046139d5565b60146020526000908152604090205481565b61037560015481565b61055161054c3660046139a7565b611136565b60405161037f9190613b5a565b61037561056c366004613c14565b611272565b610375600d5481565b61037560065481565b6103e36105913660046139a7565b6112d4565b610375600b5481565b61037560035481565b600a546105c09061010090046001600160a01b031681565b6040516001600160a01b03909116815260200161037f565b6103756105e63660046139a7565b6000908152600f602052604090206002015490565b6103756106093660046139a7565b611344565b61066361061c3660046139a7565b600f602052600090815260409020805460018201546003830154600484015460058501546006860154600790960154949593946001600160a01b0390931693919290919087565b6040805197885260208801969096526001600160a01b03909416948601949094526060850191909152608084015260a083019190915260c082015260e00161037f565b6103756106b4366004613a36565b61137f565b61037560095481565b6103756106d03660046139a7565b61139c565b6107076106e3366004613a36565b60126020908152600092835260408084209091529082529020805460019091015482565b6040805192835260208301919091520161037f565b6103756113cd565b6103756107323660046139a7565b6116a4565b61074a6107453660046139a7565b6116b4565b60405161037f9190613c44565b6004546105c0906001600160a01b031681565b6103bb61174b565b6103757f000000000000000000000000000000000000000000000000000000000000000081565b6103756117a3565b6103e36107af3660046139a7565b611893565b6007546105c0906001600160a01b031681565b6103756107d5366004613a36565b611985565b601054610375565b610375600c5481565b61037560005481565b610375611ae9565b600a546108099060ff1681565b60405160ff909116815260200161037f565b61082e610829366004613a36565b612091565b60405161037f9190613c58565b6103e36108493660046139a7565b61213d565b61037561085c3660046139a7565b6121ac565b6010818154811061087157600080fd5b600091825260209091200154905081565b6000818152600f60209081526040918290206002018054835181840281018401909452808452606093928301828280156108db57602002820191906000526020600020905b8154815260200190600101908083116108c7575b50505050509050919050565b600954600090819015801590610901575060105460095411155b15610967576000601060016009546109199190613cab565b8154811061092957610929613cbe565b906000526020600020015490506002600f6000838152602001908152602001600020600701546109599190613cea565b6109639083613cfe565b9150505b6009545b6010548110156109cc5760006010828154811061098a5761098a613cbe565b90600052602060002001549050600e600082815260200190815260200160002054836109b69190613cfe565b92505080806109c490613d11565b91505061096b565b50919050565b600a5461010090046001600160a01b03163314610a465760405162461bcd60e51b815260206004820152602760248201527f4f6e6c79206f776e65722063616e20757064617465206672616d6520636c6f736044820152666520707269636560c81b60648201526084015b60405180910390fd5b6000828152600f60205260408120549003610a735760405162461bcd60e51b8152600401610a3d90613d2a565b6000828152600f60205260409020600301546001600160a01b031615610adb5760405162461bcd60e51b815260206004820181905260248201527f4672616d65207265776172642077617320616c726561647920636c61696d65646044820152606401610a3d565b6000918252600f602052604080832054835290912060010155565b6000610b27827f0000000000000000000000000000000000000000000000000000000000000000600160601b6125d3565b92915050565b6000818152600f60205260408120549003610b5a5760405162461bcd60e51b8152600401610a3d90613d2a565b60008054828252600f6020526040909120544291610b7791613cfe565b1115610bc55760405162461bcd60e51b815260206004820152601b60248201527f4672616d652068617320746f20626520696e20746865207061737400000000006044820152606401610a3d565b6000610bd86000548361085c9190613cfe565b6000838152600f6020526040908190206001810183905590519192507f929af310c689982c60d4ec73c6e4b602e89c6f6a31da7c2df4888fb0627cb2b191610c209190613d97565b60405180910390a15050565b6000818152600f60205260408120548103610c595760405162461bcd60e51b8152600401610a3d90613d2a565b5060009081526011602052604090205490565b60008281526012602090815260408083208484529091528120600101548103610c9757506000610b27565b6000610ca2846116b4565b6004811115610cb357610cb3613a58565b03610cc057506000610b27565b6001610ccb846116b4565b6004811115610cdc57610cdc613a58565b1480610d0157506002610cee846116b4565b6004811115610cff57610cff613a58565b145b15610d0e57506001610b27565b60008381526012602090815260408083208584528252808320600190810154878552600f90935292209091015410801590610d8257506005546000848152601260209081526040808320868452909152902060010154610d6e9190613cfe565b6000848152600f6020526040902060010154105b15610d8f57506002610b27565b50600392915050565b6001600160a01b03811660009081526014602090815260408083205460159092528220549091828211610dcc576000610dd6565b610dd68383613cab565b929491935050565b60006001548211610df157505060015490565b600054600154610e019084613cab565b610e0b9190613e09565b610b279083613cab565b6000610e2084610dde565b905060005481610e309190613cfe565b4210610e7e5760405162461bcd60e51b815260206004820152601d60248201527f4672616d65206973206e6f74206f70656e20666f722074726164696e670000006044820152606401610a3d565b6000610e8984611344565b90506000610e9642610dde565b9050600d548114610ec657600d8190556000818152600f60205260408120549003610ec657610ec44261274c565b505b60008381526012602090815260408083208584529091528120600101549003610f1a576000838152600f60205260408120549003610f0957610f078661274c565b505b610f158383868461289a565b610f91565b600083815260126020908152604080832085845290915290206002018054339190610f4790600190613cab565b81548110610f5757610f57613cbe565b60009182526020909120600260059092020101546001600160a01b031603610f8557610f1583838684612d62565b610f9183838684613007565b60008381526012602090815260408083208584529091529081902090517f782b1e1b5d0c69f9f4c1e43a846c9ce710491a77f5adb86c3fe465f2cc9bfab991610fd991613eba565b60405180910390a1505050505050565b61100d60405180606001604052806000815260200160008152602001606081525090565b6000838152601260209081526040808320858452909152812060010154900361106c5760405162461bcd60e51b8152602060048201526011602482015270131bdd08191bd95cdb89dd08195e1a5cdd607a1b6044820152606401610a3d565b60008381526012602090815260408083208584528252808320815160608101835281548152600182015481850152600282018054845181870281018701865281815292969395948701949293919290919084015b828210156111275760008481526020908190206040805160a08101825260058602909201805483526001808201548486015260028201546001600160a01b0316928401929092526003810154606084015260040154608083015290835290920191016110c0565b50505091525090949350505050565b61118760405180610100016040528060008152602001600081526020016060815260200160006001600160a01b03168152602001600081526020016000815260200160008152602001600081525090565b6000828152600f602052604081205490036111b45760405162461bcd60e51b8152600401610a3d90613d2a565b6000828152600f6020908152604091829020825161010081018452815481526001820154818401526002820180548551818602810186018752818152929593949386019383018282801561122757602002820191906000526020600020905b815481526020019060010190808311611213575b505050918352505060038201546001600160a01b0316602082015260048201546040820152600582015460608201526006820154608082015260079091015460a09091015292915050565b600a5460009081906112889060ff166012613ecd565b61129390600a613fca565b905082156112c357806112a7600282613cea565b6112b19086613cfe565b6112bb9190613cea565b915050610b27565b6112bb8185613cea565b5092915050565b600a5461010090046001600160a01b0316331461133f5760405162461bcd60e51b8152602060048201526024808201527f4f6e6c79206f776e65722063616e206368616e6765207461782070657263656e6044820152637461676560e01b6064820152608401610a3d565b600655565b600060055482101561135857505060055490565b6000600554836113689190613cea565b90506113788160055460016125d3565b9392505050565b6000611390826402540be400613fd9565b91506113788383613cfe565b6000610b2782600160601b7f00000000000000000000000000000000000000000000000000000000000000006125d3565b6004805460408051633850c7bd60e01b8152905160009384936001600160a01b031692633850c7bd928183019260e0928290030181865afa158015611416573d6000803e3d6000fd5b505050506040513d601f19601f8201168201806040525081019061143a9190614018565b50505050505090506000816001600160a01b0316826001600160a01b03166114629190613fd9565b6004805460408051630dfe168160e01b81529051939450606085901c936000936001600160a01b0390931692630dfe1681928082019260209290918290030181865afa1580156114b6573d6000803e3d6000fd5b505050506040513d601f19601f820116820180604052508101906114da91906140ae565b90506000600460009054906101000a90046001600160a01b03166001600160a01b031663d21220a76040518163ffffffff1660e01b8152600401602060405180830381865afa158015611531573d6000803e3d6000fd5b505050506040513d601f19601f8201168201806040525081019061155591906140ae565b90506000826001600160a01b031663313ce5676040518163ffffffff1660e01b8152600401602060405180830381865afa158015611597573d6000803e3d6000fd5b505050506040513d601f19601f820116820180604052508101906115bb91906140cb565b90506000826001600160a01b031663313ce5676040518163ffffffff1660e01b8152600401602060405180830381865afa1580156115fd573d6000803e3d6000fd5b505050506040513d601f19601f8201168201806040525081019061162191906140cb565b90508060ff168260ff161115611658576116518561163f8385613ecd565b61164a90600a613fca565b60016125d3565b9450611689565b8160ff168160ff161115611689576116868560016116768585613ecd565b61168190600a613fca565b6125d3565b94505b611698600160601b80876125d3565b98975050505050505050565b6013818154811061087157600080fd5b6000818152600f602052604081205481036116d157506000919050565b6000828152600f60205260409020600301546001600160a01b0316156116f957506004919050565b60008054838252600f6020526040909120546117159190613cfe565b42101561172457506001919050565b6000828152600f60205260409020600101541561174357506003919050565b506002919050565b6060601380548060200260200160405190810160405280929190818152602001828054801561179957602002820191906000526020600020905b815481526020019060010190808311611785575b5050505050905090565b601054600954600091116117b75750600090565b60006010600954815481106117ce576117ce613cbe565b600091825260209091200154905060036117e7826116b4565b60048111156117f8576117f8613a58565b0361188b576000818152600e6020526040902054600954819015611878576000601060016009546118299190613cab565b8154811061183957611839613cbe565b6000918252602080832090910154808352600f909152604082206007015490925090611866600283613cea565b90506118728185613cfe565b93505050505b611883600282613cea565b935050505090565b600091505090565b600a5461010090046001600160a01b031633146119035760405162461bcd60e51b815260206004820152602860248201527f4f6e6c79206f776e65722063616e207769746864726177206163636f756e74696044820152673733903a37b5b2b760c11b6064820152608401610a3d565b600754600a5460405163a9059cbb60e01b81526001600160a01b03610100909204821660048201526024810184905291169063a9059cbb906044016020604051808303816000875af115801561195d573d6000803e3d6000fd5b505050506040513d601f19601f8201168201806040525081019061198191906140e6565b5050565b600080600054846119969190613cfe565b90504281116119e75760405162461bcd60e51b815260206004820152601d60248201527f4672616d652068617320746f20626520696e20746865206675747572650000006044820152606401610a3d565b611a1d604051806040016040528060148152602001730536574746c656d656e742074696d657374616d760641b815250826133f1565b60408051808201909152601981527f536574746c6d656e657420646179732072656d61696e696e67000000000000006020820152611a729062015180611a634285613cab565b611a6d9190613cea565b6133f1565b6000611a7e4283613cab565b90506000611a8f6201518083613cea565b90506000611a9e826001613cfe565b90506000611aab82613436565b90506000611aba826004613fd9565b611ac890600160601b613cea565b90506000611adb828a600160601b6125d3565b9a9950505050505050505050565b60105460095460009111611b345760405162461bcd60e51b81526020600482015260126024820152714e6f206672616d6520746f20736574746c6560701b6044820152606401610a3d565b6000601060095481548110611b4b57611b4b613cbe565b6000918252602080832090910154808352600f90915260408220549092509003611b875760405162461bcd60e51b8152600401610a3d90613d2a565b6003611b92826116b4565b6004811115611ba357611ba3613a58565b14611bf05760405162461bcd60e51b815260206004820152601b60248201527f4672616d65206973206e6f7420696e20524154454420737461746500000000006044820152606401610a3d565b6000818152600e6020526040902054600954819015611c6b57600060106001600954611c1c9190613cab565b81548110611c2c57611c2c613cbe565b6000918252602080832090910154808352600f909152604082206007015490925090611c59600283613cea565b9050611c658185613cfe565b93505050505b6000838152600f60205260408120600701829055611c8a600283613cea565b90506000611c9f82600254600160601b6125d3565b90506000611cad8284613cab565b6000878152600f6020526040812060058101859055600681018390556001015491925090611cda90611344565b6000888152601260209081526040808320848452909152902060028101549192509015611e9c5760028101805460009190611d1790600190613cab565b81548110611d2757611d27613cbe565b60009182526020909120600260059092020101546007546001600160a01b0391821692501663a9059cbb82611d5b87610af6565b6040516001600160e01b031960e085901b1681526001600160a01b03909216600483015260248201526044016020604051808303816000875af1158015611da6573d6000803e3d6000fd5b505050506040513d601f19601f82011682018060405250810190611dca91906140e6565b506000898152600f6020526040902060030180546001600160a01b0319166001600160a01b038316179055611dfe84610af6565b600c6000828254611e0f9190613cfe565b90915550611e1e905084610af6565b6001600160a01b03821660009081526015602052604081208054909190611e46908490613cfe565b90915550506001600160a01b0381167f53118bff2fb56701752f5bf54053d24fb83cec92f9f6ce664b90c38a2991caa4611e7f86610af6565b60408051918252602082018d90520160405180910390a250611f23565b6000888152600f6020526040812060030180546001600160a01b0319166001179055611ec88588613cab565b90507f0496d42696345a1fb843aab6a5a68c62c8a5d3dbcf758a40953e662be46a2bb4896000548b611efa9190613cfe565b611f0384610af6565b6040805193845260208401929092529082015260600160405180910390a1505b600754600a546001600160a01b039182169163a9059cbb91610100900416611f4a87610af6565b6040516001600160e01b031960e085901b1681526001600160a01b03909216600483015260248201526044016020604051808303816000875af1158015611f95573d6000803e3d6000fd5b505050506040513d601f19601f82011682018060405250810190611fb991906140e6565b506000888152600f602052604090206001810154600490910155600281015415612015577f782b1e1b5d0c69f9f4c1e43a846c9ce710491a77f5adb86c3fe465f2cc9bfab98160405161200c9190613eba565b60405180910390a15b6000888152600f60205260409081902090517f929af310c689982c60d4ec73c6e4b602e89c6f6a31da7c2df4888fb0627cb2b19161205291613d97565b60405180910390a160016009600082825461206d9190613cfe565b90915550505060009687525050600f60205250506040909220600601549392505050565b60008281526012602090815260408083208484528252808320600201805482518185028101850190935280835260609492939192909184015b828210156121315760008481526020908190206040805160a08101825260058602909201805483526001808201548486015260028201546001600160a01b0316928401929092526003810154606084015260040154608083015290835290920191016120ca565b50505050905092915050565b600a5461010090046001600160a01b031633146121a75760405162461bcd60e51b815260206004820152602260248201527f4f6e6c79206f776e65722063616e206368616e67652070726f746f636f6c2066604482015261656560f01b6064820152608401610a3d565b600255565b60008060035483426121be9190613cab565b6121c89190613cfe565b905060006121d68442613cab565b6040805160028082526060820183529293506000929091602083019080368337019050509050828160008151811061221057612210613cbe565b602002602001019063ffffffff16908163ffffffff1681525050818160018151811061223e5761223e613cbe565b63ffffffff909216602092830291909101909101526004805460405163883bdbfd60e01b81526000926001600160a01b039092169163883bdbfd9161228591869101614119565b600060405180830381865afa1580156122a2573d6000803e3d6000fd5b505050506040513d6000823e601f3d908101601f191682016040526122ca9190810190614215565b5090506000816000815181106122e2576122e2613cbe565b602002602001015160060b8260018151811061230057612300613cbe565b602002602001015160060b61231591906142e1565b9050600081121561235e5760405162461bcd60e51b81526020600482015260136024820152724e65676174697665207469636b2064656c746160681b6044820152606401610a3d565b80600061237463ffffffff808816908916613cab565b905060006123828284613cea565b9050600061238f8261358f565b905060006123a66001600160a01b03831680613fd9565b6004805460408051630dfe168160e01b81529051939450606085901c936000936001600160a01b0390931692630dfe1681928082019260209290918290030181865afa1580156123fa573d6000803e3d6000fd5b505050506040513d601f19601f8201168201806040525081019061241e91906140ae565b90506000600460009054906101000a90046001600160a01b03166001600160a01b031663d21220a76040518163ffffffff1660e01b8152600401602060405180830381865afa158015612475573d6000803e3d6000fd5b505050506040513d601f19601f8201168201806040525081019061249991906140ae565b90506000826001600160a01b031663313ce5676040518163ffffffff1660e01b8152600401602060405180830381865afa1580156124db573d6000803e3d6000fd5b505050506040513d601f19601f820116820180604052508101906124ff91906140cb565b90506000826001600160a01b031663313ce5676040518163ffffffff1660e01b8152600401602060405180830381865afa158015612541573d6000803e3d6000fd5b505050506040513d601f19601f8201168201806040525081019061256591906140cb565b90508060ff168260ff16111561258a576125838561163f8385613ecd565b94506125ab565b8160ff168160ff1611156125ab576125a88560016116768585613ecd565b94505b6125ba600160601b80876125d3565b9450849f50505050505050505050505050505050919050565b600080806000198587098587029250828110838203039150508060000361260c576000841161260157600080fd5b508290049050611378565b80841161261857600080fd5b60008486880980840393811190920391905060008561263981196001613cfe565b169586900495938490049360008190030460010190506126598184613fd9565b90931792600061266a876003613fd9565b60021890506126798188613fd9565b612684906002613cab565b61268e9082613fd9565b905061269a8188613fd9565b6126a5906002613cab565b6126af9082613fd9565b90506126bb8188613fd9565b6126c6906002613cab565b6126d09082613fd9565b90506126dc8188613fd9565b6126e7906002613cab565b6126f19082613fd9565b90506126fd8188613fd9565b612708906002613cab565b6127129082613fd9565b905061271e8188613fd9565b612729906002613cab565b6127339082613fd9565b905061273f8186613fd9565b9998505050505050505050565b60008061275883610dde565b6000818152600f6020526040902054909150156127ae5760405162461bcd60e51b81526020600482015260146024820152734672616d6520616c72656164792065786973747360601b6044820152606401610a3d565b42600054826127bd9190613cfe565b101561280b5760405162461bcd60e51b815260206004820152601d60248201527f4672616d652068617320746f20626520696e20746865206675747572650000006044820152606401610a3d565b6000818152600f6020818152604080842085815560108054600181019091557f1b6847dc741a1b0cd08d278845f9d819d87b734759afb55fe2de5cb82a9ae6728101879055601184529482902085905592909152517f929af310c689982c60d4ec73c6e4b602e89c6f6a31da7c2df4888fb0627cb2b19161288b91613d97565b60405180910390a15092915050565b60006128a68584611985565b905060006128b382610af6565b90506128f46040518060400160405280601c81526020017f54617820616d6f756e7420696e20746f6b656e20646563696d616c7300000000815250826133f1565b600081116129145760405162461bcd60e51b8152600401610a3d90614301565b6040805180820182526012815271105b1b1bddd85b98d9481d1bc81cdc195b9960721b60208201526007549151636eb1769f60e11b81523360048201523060248201526129af926001600160a01b03169063dd62ed3e90604401602060405180830381865afa15801561298b573d6000803e3d6000fd5b505050506040513d601f19601f82011682018060405250810190611a6d919061435e565b600754604051636eb1769f60e11b815233600482015230602482015282916001600160a01b03169063dd62ed3e90604401602060405180830381865afa1580156129fd573d6000803e3d6000fd5b505050506040513d601f19601f82011682018060405250810190612a21919061435e565b1015612a3f5760405162461bcd60e51b8152600401610a3d90614377565b7f161bcca7119915b50764b4abe86529797775a5f17195100000000000000000008510612aa05760405162461bcd60e51b815260206004820152600f60248201526e4c6f74206b657920746f6f2062696760881b6044820152606401610a3d565b600086815260126020908152604080832088845290915290206001015415612aff5760405162461bcd60e51b81526020600482015260126024820152714c6f7420616c72656164792065786973747360701b6044820152606401610a3d565b60006040518060a00160405280438152602001428152602001336001600160a01b03168152602001868152602001612b368461139c565b905260008881526012602090815260408083208a845282528083208b815560018082018c9055600280830180548084018255908752858720885160059092020190815594870151918501919091559185015191830180546001600160a01b0319166001600160a01b0390931692909217909155606084015160038301556080840151600490920191909155919250612bce898961137f565b6013805460018181019092557f66de8ffda797e3de9c05e8fc57b3bf0ec28a930d40b0d285d93c06501cf6a0900182905560008b8152600f6020908152604082208684015460029091018054948501815583529120909101559050612c328461139c565b6000878152600e602052604081208054909190612c50908490613cfe565b90915550612c5f90508461139c565b600b6000828254612c709190613cfe565b90915550612c7f90508461139c565b3360009081526014602052604081208054909190612c9e908490613cfe565b90915550506007546040516323b872dd60e01b81526001600160a01b03909116906323b872dd90612cd7903390309089906004016143ae565b6020604051808303816000875af1158015612cf6573d6000803e3d6000fd5b505050506040513d601f19601f82011682018060405250810190612d1a91906140e6565b50604080518581526020810188905233917f1137290ec9b1f9c41fb72a212c58301a6eda3b23bc43c0e528f6d21216d593b891015b60405180910390a2505050505050505050565b6000612d6e8584611985565b90506000612d7b82610af6565b600754604051636eb1769f60e11b815233600482015230602482015291925082916001600160a01b039091169063dd62ed3e90604401602060405180830381865afa158015612dce573d6000803e3d6000fd5b505050506040513d601f19601f82011682018060405250810190612df2919061435e565b1015612e105760405162461bcd60e51b8152600401610a3d90614377565b6007546040516323b872dd60e01b81526001600160a01b03909116906323b872dd90612e44903390309086906004016143ae565b6020604051808303816000875af1158015612e63573d6000803e3d6000fd5b505050506040513d601f19601f82011682018060405250810190612e8791906140e6565b506012600087815260200190815260200160002060008681526020019081526020016000206002016040518060a00160405280438152602001428152602001336001600160a01b03168152602001868152602001612ee48461139c565b905281546001808201845560009384526020938490208351600590930201918255928201519281019290925560408101516002830180546001600160a01b0319166001600160a01b039092169190911790556060810151600383015560800151600490910155612f538161139c565b6000848152600e602052604081208054909190612f71908490613cfe565b90915550612f8090508161139c565b600b6000828254612f919190613cfe565b90915550612fa090508161139c565b3360009081526014602052604081208054909190612fbf908490613cfe565b9091555050604080518281526020810185905233917f1137290ec9b1f9c41fb72a212c58301a6eda3b23bc43c0e528f6d21216d593b8910160405180910390a2505050505050565b60008481526012602090815260408083208684529091528120600201805461303190600190613cab565b8154811061304157613041613cbe565b600091825260208220600260059092020101546001600160a01b031691506130698685611985565b90506000811161308b5760405162461bcd60e51b8152600401610a3d90614301565b6000868152601260209081526040808320888452909152812060020180546130b590600190613cab565b815481106130c5576130c5613cbe565b906000526020600020906005020160030154905060006130e482610af6565b905060006130f184610af6565b90506130fd8282613cfe565b600754604051636eb1769f60e11b81523360048201523060248201526001600160a01b039091169063dd62ed3e90604401602060405180830381865afa15801561314b573d6000803e3d6000fd5b505050506040513d601f19601f8201168201806040525081019061316f919061435e565b101561318d5760405162461bcd60e51b8152600401610a3d90614377565b6007546040516323b872dd60e01b81526001600160a01b03909116906323b872dd906131c1903390309086906004016143ae565b6020604051808303816000875af11580156131e0573d6000803e3d6000fd5b505050506040513d601f19601f8201168201806040525081019061320491906140e6565b506007546040516323b872dd60e01b81526001600160a01b03909116906323b872dd90613239903390899087906004016143ae565b6020604051808303816000875af1158015613258573d6000803e3d6000fd5b505050506040513d601f19601f8201168201806040525081019061327c91906140e6565b50601260008a815260200190815260200160002060008981526020019081526020016000206002016040518060a00160405280438152602001428152602001336001600160a01b031681526020018981526020016132d98461139c565b905281546001808201845560009384526020938490208351600590930201918255928201519281019290925560408101516002830180546001600160a01b0319166001600160a01b0390921691909117905560608101516003830155608001516004909101556133488161139c565b6000878152600e602052604081208054909190613366908490613cfe565b9091555061337590508161139c565b600b60008282546133869190613cfe565b9091555061339590508161139c565b33600090815260146020526040812080549091906133b4908490613cfe565b9091555050604080518281526020810188905233917f1137290ec9b1f9c41fb72a212c58301a6eda3b23bc43c0e528f6d21216d593b89101612d4f565b61198182826040516024016134079291906143d2565b60408051601f198184030181529190526020810180516001600160e01b0316632d839cb360e21b17905261397a565b600060018211613444575090565b816001600160801b821061345d5760809190911c9060401b5b6801000000000000000082106134785760409190911c9060201b5b640100000000821061348f5760209190911c9060101b5b6201000082106134a45760109190911c9060081b5b61010082106134b85760089190911c9060041b5b601082106134cb5760049190911c9060021b5b600482106134d75760011b5b600302600190811c908185816134ef576134ef613cd4565b048201901c9050600181858161350757613507613cd4565b048201901c9050600181858161351f5761351f613cd4565b048201901c9050600181858161353757613537613cd4565b048201901c9050600181858161354f5761354f613cd4565b048201901c9050600181858161356757613567613cd4565b048201901c905061358681858161358057613580613cd4565b04821190565b90039392505050565b600081620d89e88111156135c95760405162461bcd60e51b81526020600482015260016024820152601560fa1b6044820152606401610a3d565b6000816001166000036135e057600160801b6135f2565b6ffffcb933bd6fad37aa2d162d1a5940015b70ffffffffffffffffffffffffffffffffff169050600282161561363157608061362c826ffff97272373d413259a46990580e213a613fd9565b901c90505b600482161561365b576080613656826ffff2e50f5f656932ef12357cf3c7fdcc613fd9565b901c90505b6008821615613685576080613680826fffe5caca7e10e4e61c3624eaa0941cd0613fd9565b901c90505b60108216156136af5760806136aa826fffcb9843d60f6159c9db58835c926644613fd9565b901c90505b60208216156136d95760806136d4826fff973b41fa98c081472e6896dfb254c0613fd9565b901c90505b60408216156137035760806136fe826fff2ea16466c96a3843ec78b326b52861613fd9565b901c90505b608082161561372d576080613728826ffe5dee046a99a2a811c461f1969c3053613fd9565b901c90505b610100821615613758576080613753826ffcbe86c7900a88aedcffc83b479aa3a4613fd9565b901c90505b61020082161561378357608061377e826ff987a7253ac413176f2b074cf7815e54613fd9565b901c90505b6104008216156137ae5760806137a9826ff3392b0822b70005940c7a398e4b70f3613fd9565b901c90505b6108008216156137d95760806137d4826fe7159475a2c29b7443b29c7fa6e889d9613fd9565b901c90505b6110008216156138045760806137ff826fd097f3bdfd2022b8845ad8f792aa5825613fd9565b901c90505b61200082161561382f57608061382a826fa9f746462d870fdf8a65dc1f90e061e5613fd9565b901c90505b61400082161561385a576080613855826f70d869a156d2a1b890bb3df62baf32f7613fd9565b901c90505b618000821615613885576080613880826f31be135f97d08fd981231505542fcfa6613fd9565b901c90505b620100008216156138b15760806138ac826f09aa508b5b7a84e1c677de54f3e99bc9613fd9565b901c90505b620200008216156138dc5760806138d7826e5d6af8dedb81196699c329225ee604613fd9565b901c90505b62040000821615613906576080613901826d2216e584f5fa1ea926041bedfe98613fd9565b901c90505b6208000082161561392e576080613929826b048a170391f7dc42444e8fa2613fd9565b901c90505b83156139435761394081600019613cea565b90505b61395264010000000082613e09565b1561395e576001613961565b60005b6139729060ff16602083901c613cfe565b949350505050565b61398381613986565b50565b60006a636f6e736f6c652e6c6f679050600080835160208501845afa505050565b6000602082840312156139b957600080fd5b5035919050565b6001600160a01b038116811461398357600080fd5b6000602082840312156139e757600080fd5b8135611378816139c0565b6020808252825182820181905260009190848201906040850190845b81811015613a2a57835183529284019291840191600101613a0e565b50909695505050505050565b60008060408385031215613a4957600080fd5b50508035926020909101359150565b634e487b7160e01b600052602160045260246000fd5b6020810160048310613a8257613a82613a58565b91905290565b600080600060608486031215613a9d57600080fd5b505081359360208301359350604090920135919050565b80518252602080820151908301526040808201516001600160a01b031690830152606080820151908301526080908101519082015260a00190565b6000602080835260808301845182850152818501516040850152604085015160608086015281815180845260a0870191508483019350600092505b80831015613b4f57613b3d828551613ab4565b91508484019350600183019250613b2a565b509695505050505050565b6000602080835261012083018451828501528185015160408501526040850151610100806060870152828251808552610140880191508584019450600093505b80841015613bba5784518252938501936001939093019290850190613b9a565b5060608801516001600160a01b03811660808901529450608088015160a088015260a088015160c088015260c088015160e088015260e088015182880152809550505050505092915050565b801515811461398357600080fd5b60008060408385031215613c2757600080fd5b823591506020830135613c3981613c06565b809150509250929050565b6020810160058310613a8257613a82613a58565b6020808252825182820181905260009190848201906040850190845b81811015613a2a57613c87838551613ab4565b938501939250600101613c74565b634e487b7160e01b600052601160045260246000fd5b81810381811115610b2757610b27613c95565b634e487b7160e01b600052603260045260246000fd5b634e487b7160e01b600052601260045260246000fd5b600082613cf957613cf9613cd4565b500490565b80820180821115610b2757610b27613c95565b600060018201613d2357613d23613c95565b5060010190565b602080825260139082015272119c985b5948191bd95cdb89dd08195e1a5cdd606a1b604082015260600190565b6000815480845260208085019450836000528060002060005b83811015613d8c57815487529582019560019182019101613d70565b509495945050505050565b6020815281546020820152600182015460408201526000610100806060840152613dc8610120840160028601613d57565b60038501546001600160a01b03166080850152600485015460a0850152600585015460c0850152600685015460e08501526007909401549201919091525090565b600082613e1857613e18613cd4565b500690565b60006060808401835485526001808501546020818189015260029150818701604086818b015285825480885260809750878c0191508360005284600020935060005b81811015613ea957845483528785015486840152868501546001600160a01b03168484015260038501548a84015260048501548984015260059094019360a0909201918701613e5f565b50909b9a5050505050505050505050565b6020815260006113786020830184613e1d565b60ff8281168282160390811115610b2757610b27613c95565b600181815b80851115613f21578160001904821115613f0757613f07613c95565b80851615613f1457918102915b93841c9390800290613eeb565b509250929050565b600082613f3857506001610b27565b81613f4557506000610b27565b8160018114613f5b5760028114613f6557613f81565b6001915050610b27565b60ff841115613f7657613f76613c95565b50506001821b610b27565b5060208310610133831016604e8410600b8410161715613fa4575081810a610b27565b613fae8383613ee6565b8060001904821115613fc257613fc2613c95565b029392505050565b600061137860ff841683613f29565b8082028115828204841417610b2757610b27613c95565b805161ffff8116811461400257600080fd5b919050565b805160ff8116811461400257600080fd5b600080600080600080600060e0888a03121561403357600080fd5b875161403e816139c0565b8097505060208801518060020b811461405657600080fd5b955061406460408901613ff0565b945061407260608901613ff0565b935061408060808901613ff0565b925061408e60a08901614007565b915060c088015161409e81613c06565b8091505092959891949750929550565b6000602082840312156140c057600080fd5b8151611378816139c0565b6000602082840312156140dd57600080fd5b61137882614007565b6000602082840312156140f857600080fd5b815161137881613c06565b634e487b7160e01b600052604160045260246000fd5b6020808252825182820181905260009190848201906040850190845b81811015613a2a57835163ffffffff1683529284019291840191600101614135565b604051601f8201601f1916810167ffffffffffffffff8111828210171561418057614180614103565b604052919050565b600067ffffffffffffffff8211156141a2576141a2614103565b5060051b60200190565b600082601f8301126141bd57600080fd5b815160206141d26141cd83614188565b614157565b82815260059290921b840181019181810190868411156141f157600080fd5b8286015b84811015613b4f578051614208816139c0565b83529183019183016141f5565b6000806040838503121561422857600080fd5b825167ffffffffffffffff8082111561424057600080fd5b818501915085601f83011261425457600080fd5b815160206142646141cd83614188565b82815260059290921b8401810191818101908984111561428357600080fd5b948201945b838610156142b15785518060060b81146142a25760008081fd5b82529482019490820190614288565b918801519196509093505050808211156142ca57600080fd5b506142d7858286016141ac565b9150509250929050565b81810360008312801583831316838312821617156112cd576112cd613c95565b6020808252603c908201527f5461782068617320746f2062652067726561746572207468616e20302e20496e60408201527f63726561736520746865206163717569736974696f6e20707269636500000000606082015260800190565b60006020828403121561437057600080fd5b5051919050565b6020808252601e908201527f416c6c6f77616e636520746f207370656e642073657420746f6f206c6f770000604082015260600190565b6001600160a01b039384168152919092166020820152604081019190915260600190565b604081526000835180604084015260005b8181101561440057602081870181015160608684010152016143e3565b506000606082850101526060601f19601f830116840101915050826020830152939250505056fea2646970667358221220a78daf6b457d173193a0fb075e1ce6fa3266c4d0d471d42987e89b28ddb6113664736f6c63430008140033",
  "linkReferences": {},
  "deployedLinkReferences": {}
}