{
  "_format": "hh-sol-artifact-1",
  "contractName": "Market",
  "sourceName": "contracts/Market.sol",
  "abi": [
    {
      "inputs": [],
      "stateMutability": "nonpayable",
      "type": "constructor"
    },
    {
      "anonymous": false,
      "inputs": [
        {
          "components": [
            {
              "internalType": "uint256",
              "name": "frameKey",
              "type": "uint256"
            },
            {
              "internalType": "uint256",
              "name": "rate",
              "type": "uint256"
            },
            {
              "internalType": "uint256[]",
              "name": "lotKeys",
              "type": "uint256[]"
            },
            {
              "internalType": "address",
              "name": "claimedBy",
              "type": "address"
            },
            {
              "internalType": "uint256",
              "name": "rateSettle",
              "type": "uint256"
            },
            {
              "internalType": "uint256",
              "name": "feeSettle",
              "type": "uint256"
            },
            {
              "internalType": "uint256",
              "name": "rewardSettle",
              "type": "uint256"
            }
          ],
          "indexed": false,
          "internalType": "struct Market.Frame",
          "name": "frame",
          "type": "tuple"
        }
      ],
      "name": "FrameUpdate",
      "type": "event"
    },
    {
      "anonymous": false,
      "inputs": [
        {
          "components": [
            {
              "internalType": "uint256",
              "name": "frameKey",
              "type": "uint256"
            },
            {
              "internalType": "uint256",
              "name": "lotKey",
              "type": "uint256"
            },
            {
              "components": [
                {
                  "internalType": "uint256",
                  "name": "blockNumber",
                  "type": "uint256"
                },
                {
                  "internalType": "uint256",
                  "name": "blockTimestamp",
                  "type": "uint256"
                },
                {
                  "internalType": "address",
                  "name": "owner",
                  "type": "address"
                },
                {
                  "internalType": "uint256",
                  "name": "acquisitionPrice",
                  "type": "uint256"
                },
                {
                  "internalType": "uint256",
                  "name": "taxCharged",
                  "type": "uint256"
                },
                {
                  "internalType": "uint256",
                  "name": "taxRefunded",
                  "type": "uint256"
                }
              ],
              "internalType": "struct Market.LotState[]",
              "name": "states",
              "type": "tuple[]"
            }
          ],
          "indexed": false,
          "internalType": "struct Market.Lot",
          "name": "lot",
          "type": "tuple"
        }
      ],
      "name": "LotUpdate",
      "type": "event"
    },
    {
      "inputs": [],
      "name": "accountingToken",
      "outputs": [
        {
          "internalType": "contract IERC20",
          "name": "",
          "type": "address"
        }
      ],
      "stateMutability": "view",
      "type": "function"
    },
    {
      "inputs": [
        {
          "internalType": "uint256",
          "name": "newFee",
          "type": "uint256"
        }
      ],
      "name": "changeProtocolFee",
      "outputs": [],
      "stateMutability": "nonpayable",
      "type": "function"
    },
    {
      "inputs": [
        {
          "internalType": "uint256",
          "name": "newTax",
          "type": "uint256"
        }
      ],
      "name": "changeTaxPercentage",
      "outputs": [],
      "stateMutability": "nonpayable",
      "type": "function"
    },
    {
      "inputs": [
        {
          "internalType": "uint256",
          "name": "timestamp",
          "type": "uint256"
        }
      ],
      "name": "clcFrameKey",
      "outputs": [
        {
          "internalType": "uint256",
          "name": "",
          "type": "uint256"
        }
      ],
      "stateMutability": "view",
      "type": "function"
    },
    {
      "inputs": [
        {
          "internalType": "uint256",
          "name": "value",
          "type": "uint256"
        }
      ],
      "name": "clcLotKey",
      "outputs": [
        {
          "internalType": "uint256",
          "name": "",
          "type": "uint256"
        }
      ],
      "stateMutability": "view",
      "type": "function"
    },
    {
      "inputs": [],
      "name": "clcRate",
      "outputs": [
        {
          "internalType": "uint256",
          "name": "",
          "type": "uint256"
        }
      ],
      "stateMutability": "view",
      "type": "function"
    },
    {
      "inputs": [
        {
          "internalType": "uint256",
          "name": "timestamp",
          "type": "uint256"
        }
      ],
      "name": "clcRateAvg",
      "outputs": [
        {
          "internalType": "uint256",
          "name": "",
          "type": "uint256"
        }
      ],
      "stateMutability": "view",
      "type": "function"
    },
    {
      "inputs": [
        {
          "internalType": "uint256",
          "name": "frameKey",
          "type": "uint256"
        }
      ],
      "name": "clcRewardFund",
      "outputs": [
        {
          "internalType": "uint256",
          "name": "",
          "type": "uint256"
        }
      ],
      "stateMutability": "view",
      "type": "function"
    },
    {
      "inputs": [
        {
          "internalType": "uint256",
          "name": "frameKey",
          "type": "uint256"
        },
        {
          "internalType": "uint256",
          "name": "acquisitionPrice",
          "type": "uint256"
        }
      ],
      "name": "clcTax",
      "outputs": [
        {
          "internalType": "uint256",
          "name": "",
          "type": "uint256"
        }
      ],
      "stateMutability": "view",
      "type": "function"
    },
    {
      "inputs": [
        {
          "internalType": "uint256",
          "name": "frameKey",
          "type": "uint256"
        },
        {
          "internalType": "uint256",
          "name": "lotKey",
          "type": "uint256"
        }
      ],
      "name": "concatenate",
      "outputs": [
        {
          "internalType": "uint256",
          "name": "concatenated",
          "type": "uint256"
        }
      ],
      "stateMutability": "pure",
      "type": "function"
    },
    {
      "inputs": [],
      "name": "dPrice",
      "outputs": [
        {
          "internalType": "uint256",
          "name": "",
          "type": "uint256"
        }
      ],
      "stateMutability": "view",
      "type": "function"
    },
    {
      "inputs": [],
      "name": "feeProtocol",
      "outputs": [
        {
          "internalType": "uint256",
          "name": "",
          "type": "uint256"
        }
      ],
      "stateMutability": "view",
      "type": "function"
    },
    {
      "inputs": [
        {
          "internalType": "uint256",
          "name": "",
          "type": "uint256"
        }
      ],
      "name": "frames",
      "outputs": [
        {
          "internalType": "uint256",
          "name": "frameKey",
          "type": "uint256"
        },
        {
          "internalType": "uint256",
          "name": "rate",
          "type": "uint256"
        },
        {
          "internalType": "address",
          "name": "claimedBy",
          "type": "address"
        },
        {
          "internalType": "uint256",
          "name": "rateSettle",
          "type": "uint256"
        },
        {
          "internalType": "uint256",
          "name": "feeSettle",
          "type": "uint256"
        },
        {
          "internalType": "uint256",
          "name": "rewardSettle",
          "type": "uint256"
        }
      ],
      "stateMutability": "view",
      "type": "function"
    },
    {
      "inputs": [
        {
          "internalType": "uint256",
          "name": "",
          "type": "uint256"
        }
      ],
      "name": "framesKeys",
      "outputs": [
        {
          "internalType": "uint256",
          "name": "",
          "type": "uint256"
        }
      ],
      "stateMutability": "view",
      "type": "function"
    },
    {
      "inputs": [
        {
          "internalType": "uint256",
          "name": "frameKey",
          "type": "uint256"
        }
      ],
      "name": "getFrame",
      "outputs": [
        {
          "components": [
            {
              "internalType": "uint256",
              "name": "frameKey",
              "type": "uint256"
            },
            {
              "internalType": "uint256",
              "name": "rate",
              "type": "uint256"
            },
            {
              "internalType": "uint256[]",
              "name": "lotKeys",
              "type": "uint256[]"
            },
            {
              "internalType": "address",
              "name": "claimedBy",
              "type": "address"
            },
            {
              "internalType": "uint256",
              "name": "rateSettle",
              "type": "uint256"
            },
            {
              "internalType": "uint256",
              "name": "feeSettle",
              "type": "uint256"
            },
            {
              "internalType": "uint256",
              "name": "rewardSettle",
              "type": "uint256"
            }
          ],
          "internalType": "struct Market.Frame",
          "name": "",
          "type": "tuple"
        }
      ],
      "stateMutability": "view",
      "type": "function"
    },
    {
      "inputs": [
        {
          "internalType": "uint256",
          "name": "frameKey",
          "type": "uint256"
        }
      ],
      "name": "getFrameLotKeys",
      "outputs": [
        {
          "internalType": "uint256[]",
          "name": "",
          "type": "uint256[]"
        }
      ],
      "stateMutability": "view",
      "type": "function"
    },
    {
      "inputs": [],
      "name": "getFramesLength",
      "outputs": [
        {
          "internalType": "uint256",
          "name": "",
          "type": "uint256"
        }
      ],
      "stateMutability": "view",
      "type": "function"
    },
    {
      "inputs": [
        {
          "internalType": "uint256",
          "name": "frameKey",
          "type": "uint256"
        },
        {
          "internalType": "uint256",
          "name": "lotKey",
          "type": "uint256"
        }
      ],
      "name": "getLot",
      "outputs": [
        {
          "components": [
            {
              "internalType": "uint256",
              "name": "frameKey",
              "type": "uint256"
            },
            {
              "internalType": "uint256",
              "name": "lotKey",
              "type": "uint256"
            },
            {
              "components": [
                {
                  "internalType": "uint256",
                  "name": "blockNumber",
                  "type": "uint256"
                },
                {
                  "internalType": "uint256",
                  "name": "blockTimestamp",
                  "type": "uint256"
                },
                {
                  "internalType": "address",
                  "name": "owner",
                  "type": "address"
                },
                {
                  "internalType": "uint256",
                  "name": "acquisitionPrice",
                  "type": "uint256"
                },
                {
                  "internalType": "uint256",
                  "name": "taxCharged",
                  "type": "uint256"
                },
                {
                  "internalType": "uint256",
                  "name": "taxRefunded",
                  "type": "uint256"
                }
              ],
              "internalType": "struct Market.LotState[]",
              "name": "states",
              "type": "tuple[]"
            }
          ],
          "internalType": "struct Market.Lot",
          "name": "",
          "type": "tuple"
        }
      ],
      "stateMutability": "view",
      "type": "function"
    },
    {
      "inputs": [
        {
          "internalType": "uint256",
          "name": "frameKey",
          "type": "uint256"
        },
        {
          "internalType": "uint256",
          "name": "lotKey",
          "type": "uint256"
        }
      ],
      "name": "getLotStates",
      "outputs": [
        {
          "components": [
            {
              "internalType": "uint256",
              "name": "blockNumber",
              "type": "uint256"
            },
            {
              "internalType": "uint256",
              "name": "blockTimestamp",
              "type": "uint256"
            },
            {
              "internalType": "address",
              "name": "owner",
              "type": "address"
            },
            {
              "internalType": "uint256",
              "name": "acquisitionPrice",
              "type": "uint256"
            },
            {
              "internalType": "uint256",
              "name": "taxCharged",
              "type": "uint256"
            },
            {
              "internalType": "uint256",
              "name": "taxRefunded",
              "type": "uint256"
            }
          ],
          "internalType": "struct Market.LotState[]",
          "name": "",
          "type": "tuple[]"
        }
      ],
      "stateMutability": "view",
      "type": "function"
    },
    {
      "inputs": [],
      "name": "getLotsArray",
      "outputs": [
        {
          "internalType": "uint256[]",
          "name": "",
          "type": "uint256[]"
        }
      ],
      "stateMutability": "view",
      "type": "function"
    },
    {
      "inputs": [],
      "name": "getLotsArrayLength",
      "outputs": [
        {
          "internalType": "uint256",
          "name": "",
          "type": "uint256"
        }
      ],
      "stateMutability": "view",
      "type": "function"
    },
    {
      "inputs": [
        {
          "internalType": "uint256",
          "name": "frameKey",
          "type": "uint256"
        }
      ],
      "name": "getLotsKeysInFrame",
      "outputs": [
        {
          "internalType": "uint256[]",
          "name": "",
          "type": "uint256[]"
        }
      ],
      "stateMutability": "view",
      "type": "function"
    },
    {
      "inputs": [
        {
          "internalType": "uint256",
          "name": "frameKey",
          "type": "uint256"
        }
      ],
      "name": "getLotsLength",
      "outputs": [
        {
          "internalType": "uint256",
          "name": "",
          "type": "uint256"
        }
      ],
      "stateMutability": "view",
      "type": "function"
    },
    {
      "inputs": [
        {
          "internalType": "uint256",
          "name": "frameKey",
          "type": "uint256"
        }
      ],
      "name": "getStateFrame",
      "outputs": [
        {
          "internalType": "enum Market.SFrame",
          "name": "",
          "type": "uint8"
        }
      ],
      "stateMutability": "view",
      "type": "function"
    },
    {
      "inputs": [
        {
          "internalType": "uint256",
          "name": "frameKey",
          "type": "uint256"
        },
        {
          "internalType": "uint256",
          "name": "lotKey",
          "type": "uint256"
        }
      ],
      "name": "getStateLot",
      "outputs": [
        {
          "internalType": "enum Market.SLot",
          "name": "",
          "type": "uint8"
        }
      ],
      "stateMutability": "view",
      "type": "function"
    },
    {
      "inputs": [],
      "name": "initTimestamp",
      "outputs": [
        {
          "internalType": "uint256",
          "name": "",
          "type": "uint256"
        }
      ],
      "stateMutability": "view",
      "type": "function"
    },
    {
      "inputs": [
        {
          "internalType": "uint256",
          "name": "",
          "type": "uint256"
        },
        {
          "internalType": "uint256",
          "name": "",
          "type": "uint256"
        }
      ],
      "name": "lots",
      "outputs": [
        {
          "internalType": "uint256",
          "name": "frameKey",
          "type": "uint256"
        },
        {
          "internalType": "uint256",
          "name": "lotKey",
          "type": "uint256"
        }
      ],
      "stateMutability": "view",
      "type": "function"
    },
    {
      "inputs": [
        {
          "internalType": "uint256",
          "name": "",
          "type": "uint256"
        }
      ],
      "name": "lotsArray",
      "outputs": [
        {
          "internalType": "uint256",
          "name": "",
          "type": "uint256"
        }
      ],
      "stateMutability": "view",
      "type": "function"
    },
    {
      "inputs": [
        {
          "internalType": "uint256",
          "name": "frameKey",
          "type": "uint256"
        },
        {
          "internalType": "uint256",
          "name": "avgPrice",
          "type": "uint256"
        }
      ],
      "name": "overrideFrameRate",
      "outputs": [],
      "stateMutability": "nonpayable",
      "type": "function"
    },
    {
      "inputs": [],
      "name": "owner",
      "outputs": [
        {
          "internalType": "address",
          "name": "",
          "type": "address"
        }
      ],
      "stateMutability": "view",
      "type": "function"
    },
    {
      "inputs": [],
      "name": "period",
      "outputs": [
        {
          "internalType": "uint256",
          "name": "",
          "type": "uint256"
        }
      ],
      "stateMutability": "view",
      "type": "function"
    },
    {
      "inputs": [
        {
          "internalType": "uint256",
          "name": "frameKey",
          "type": "uint256"
        }
      ],
      "name": "setFrameRate",
      "outputs": [],
      "stateMutability": "nonpayable",
      "type": "function"
    },
    {
      "inputs": [
        {
          "internalType": "uint256",
          "name": "frameKey",
          "type": "uint256"
        }
      ],
      "name": "settleFrame",
      "outputs": [
        {
          "internalType": "uint256",
          "name": "",
          "type": "uint256"
        }
      ],
      "stateMutability": "nonpayable",
      "type": "function"
    },
    {
      "inputs": [],
      "name": "tSettle",
      "outputs": [
        {
          "internalType": "uint256",
          "name": "",
          "type": "uint256"
        }
      ],
      "stateMutability": "view",
      "type": "function"
    },
    {
      "inputs": [],
      "name": "taxMarket",
      "outputs": [
        {
          "internalType": "uint256",
          "name": "",
          "type": "uint256"
        }
      ],
      "stateMutability": "view",
      "type": "function"
    },
    {
      "inputs": [
        {
          "internalType": "uint256",
          "name": "timestamp",
          "type": "uint256"
        },
        {
          "internalType": "uint256",
          "name": "rate",
          "type": "uint256"
        },
        {
          "internalType": "uint256",
          "name": "acquisitionPrice",
          "type": "uint256"
        }
      ],
      "name": "tradeLot",
      "outputs": [],
      "stateMutability": "nonpayable",
      "type": "function"
    },
    {
      "inputs": [],
      "name": "uniswapPool",
      "outputs": [
        {
          "internalType": "contract IUniswapV3Pool",
          "name": "",
          "type": "address"
        }
      ],
      "stateMutability": "view",
      "type": "function"
    },
    {
      "inputs": [
        {
          "internalType": "uint256",
          "name": "amount",
          "type": "uint256"
        }
      ],
      "name": "withdrawAccountingToken",
      "outputs": [],
      "stateMutability": "nonpayable",
      "type": "function"
    }
  ],
  "bytecode": "0x608060405262015180600055636592e180600155666a94d74f430000600255610258600355600480546001600160a01b03199081167367a9fe12fa6082d9d0203c84c6c56d3c4b269f281790915568056bc75e2d63100000600555662386f26fc1000060065560078054909116738f3cf7ad23cd3cadbd9735aff958023239c6a06317905534801561009057600080fd5b50600880546001600160a01b03191633179055613684806100b26000396000f3fe608060405234801561001057600080fd5b50600436106102325760003560e01c80638edc6a2c11610130578063bdd3d825116100b8578063ed320aa81161007c578063ed320aa81461056b578063ef78d4fd14610573578063fb0d5e091461057c578063fe6874751461059c578063ffdabe2d146105af57600080fd5b8063bdd3d82514610517578063c0423f2e1461052a578063d18743dd14610532578063da68cf8b14610545578063e107fb4f1461055857600080fd5b8063b866debb116100ff578063b866debb14610482578063b93dafa914610495578063ba4e137f146104dc578063ba52f342146104e4578063bad12653146104f757600080fd5b80638edc6a2c146103b15780639592de18146103d4578063a10340bc146103e7578063a73482f61461046f57600080fd5b8063527eb4bc116101be578063773d51eb11610182578063773d51eb146103415780637e9966391461036157806386e670cb1461036a5780638a5779c81461037d5780638da5cb5b1461038657600080fd5b8063527eb4bc146102e957806361eee2cb146102f257806364772f21146103055780636f1aefc3146103185780637358c57a1461033857600080fd5b80632457e620116102055780632457e6201461025d57806339a6a4891461029a5780633baf1587146102ad578063499a0fc4146102c05780634c73884f146102c957600080fd5b8063050e8840146102375780630d0a1c1a1461025d57806318d13d871461027d578063197c4e7814610292575b600080fd5b61024a610245366004612ddd565b6105c2565b6040519081526020015b60405180910390f35b61027061026b366004612ddd565b6105e3565b6040516102549190612df6565b61029061028b366004612e3a565b610648565b005b600c5461024a565b61024a6102a8366004612ddd565b610767565b6102906102bb366004612ddd565b610934565b61024a60055481565b6102dc6102d7366004612e3a565b6109fe565b6040516102549190612e72565b61024a60025481565b61024a610300366004612ddd565b610b2b565b610290610313366004612e8c565b610b62565b61032b610326366004612e3a565b610c9b565b6040516102549190612efd565b61024a60015481565b61035461034f366004612ddd565b610df2565b6040516102549190612f68565b61024a60065481565b610290610378366004612ddd565b610f1b565b61024a60035481565b600854610399906001600160a01b031681565b6040516001600160a01b039091168152602001610254565b61024a6103bf366004612ddd565b60009081526009602052604090206002015490565b61024a6103e2366004612ddd565b610f86565b6104346103f5366004612ddd565b600960205260009081526040902080546001820154600383015460048401546005850154600690950154939492936001600160a01b0390921692909186565b6040805196875260208701959095526001600160a01b03909316938501939093526060840152608083019190915260a082015260c001610254565b61024a61047d366004612e3a565b610fb1565b61024a610490366004612ddd565b610fd5565b6104c76104a3366004612e3a565b600b6020908152600092835260408084209091529082529020805460019091015482565b60408051928352602083019190915201610254565b61024a611512565b61024a6104f2366004612ddd565b6115e1565b61050a610505366004612ddd565b6115f1565b6040516102549190613008565b600454610399906001600160a01b031681565b610270611688565b610290610540366004612ddd565b6116e0565b600754610399906001600160a01b031681565b61024a610566366004612e3a565b6117c8565b600a5461024a565b61024a60005481565b61058f61058a366004612e3a565b61188a565b604051610254919061301c565b6102906105aa366004612ddd565b611940565b61024a6105bd366004612ddd565b6119aa565b600a81815481106105d257600080fd5b600091825260209091200154905081565b60008181526009602090815260409182902060020180548351818402810184019094528084526060939283018282801561063c57602002820191906000526020600020905b815481526020019060010190808311610628575b50505050509050919050565b6008546001600160a01b031633146106b75760405162461bcd60e51b815260206004820152602760248201527f4f6e6c79206f776e65722063616e20757064617465206672616d6520636c6f736044820152666520707269636560c81b60648201526084015b60405180910390fd5b60008281526009602052604081205490036106e45760405162461bcd60e51b81526004016106ae90613059565b6000828152600960205260409020600301546001600160a01b03161561074c5760405162461bcd60e51b815260206004820181905260248201527f4672616d65207265776172642077617320616c726561647920636c61696d656460448201526064016106ae565b60009182526009602052604080832054835290912060010155565b600080805b60008481526009602052604090206002015481101561092d57600084815260096020818152604080842080548552600b8352908420888552929091526002018054839190859081106107c0576107c0613086565b90600052602060002001548152602001908152602001600020604051806060016040529081600082015481526020016001820154815260200160028201805480602002602001604051908101604052809291908181526020016000905b8282101561088e5760008481526020908190206040805160c08101825260068602909201805483526001808201548486015260028201546001600160a01b03169284019290925260038101546060840152600481015460808401526005015460a0830152908352909201910161081d565b5050505081525050905060005b81604001515181101561091857816040015181815181106108be576108be613086565b602002602001015160800151846108d591906130b2565b9350816040015181815181106108ed576108ed613086565b602002602001015160a001518461090491906130c5565b935080610910816130d8565b91505061089b565b50508080610925906130d8565b91505061076c565b5092915050565b6000805482825260096020526040909120544291610951916130b2565b111561099f5760405162461bcd60e51b815260206004820152601b60248201527f4672616d652068617320746f20626520696e207468652070617374000000000060448201526064016106ae565b60006109aa826119aa565b600083815260096020526040908190206001810183905590519192507f861dcb88c2eea524dd3c4d2026fc29c39249f4d090843bcc78037879d296c452916109f291906130f1565b60405180910390a15050565b6000828152600b602090815260408083208484529091528120600101548103610a2957506000610b25565b6000610a34846115f1565b6004811115610a4557610a45612e5c565b03610a5257506000610b25565b6001610a5d846115f1565b6004811115610a6e57610a6e612e5c565b1480610a9357506002610a80846115f1565b6004811115610a9157610a91612e5c565b145b15610aa057506001610b25565b6000838152600b602090815260408083208584528252808320600190810154878552600990935292209091015410801590610b1457506005546000848152600b60209081526040808320868452909152902060010154610b0091906130b2565b600084815260096020526040902060010154105b15610b2157506002610b25565b5060035b92915050565b60006001548211610b3e57505060015490565b600054600154610b4e90846130c5565b610b5891906131a5565b610b2590836130c5565b6000610b6d84610b2b565b90506000610b7a84610f86565b6000838152600b6020908152604080832084845290915281206001015491925003610bcf576000828152600960205260408120549003610bbf57610bbd85611bf0565b505b610bca828285611d2d565b610c44565b6000828152600b6020908152604080832084845290915290206002018054339190610bfc906001906130c5565b81548110610c0c57610c0c613086565b60009182526020909120600260069092020101546001600160a01b031603610c3957610bca828285612066565b610c44828285612433565b6000828152600b602090815260408083208484529091529081902090517f906ff162b3f2709ab28fb678d43913964434148dd206e9b17adb3c1255090cb191610c8c916131b9565b60405180910390a15050505050565b610cbf60405180606001604052806000815260200160008152602001606081525090565b6000838152600b602090815260408083208584529091528120600101549003610d1e5760405162461bcd60e51b8152602060048201526011602482015270131bdd08191bd95cdb89dd08195e1a5cdd607a1b60448201526064016106ae565b6000838152600b602090815260408083208584528252808320815160608101835281548152600182015481850152600282018054845181870281018701865281815292969395948701949293919290919084015b82821015610de35760008481526020908190206040805160c08101825260068602909201805483526001808201548486015260028201546001600160a01b03169284019290925260038101546060840152600481015460808401526005015460a08301529083529092019101610d72565b50505091525090949350505050565b610e3b6040518060e0016040528060008152602001600081526020016060815260200160006001600160a01b031681526020016000815260200160008152602001600081525090565b6000828152600960205260408120549003610e685760405162461bcd60e51b81526004016106ae90613059565b600082815260096020908152604091829020825160e0810184528154815260018201548184015260028201805485518186028101860187528181529295939493860193830182828015610eda57602002820191906000526020600020905b815481526020019060010190808311610ec6575b505050918352505060038201546001600160a01b03166020820152600482015460408201526005820154606082015260069091015460809091015292915050565b6008546001600160a01b03163314610f815760405162461bcd60e51b8152602060048201526024808201527f4f6e6c79206f776e65722063616e206368616e6765207461782070657263656e6044820152637461676560e01b60648201526084016106ae565b600655565b6000600554821015610f9a57505060055490565b600554610fa78184613267565b610b25919061327b565b6000610fc2826402540be40061327b565b9150610fce83836130b2565b9392505050565b60008181526009602052604081205481036110025760405162461bcd60e51b81526004016106ae90613059565b600361100d836115f1565b600481111561101e5761101e612e5c565b146110775760405162461bcd60e51b8152602060048201526024808201527f4672616d6520646f6573206e6f742068617665206120636c6f73652072617465604482015263081cd95d60e21b60648201526084016106ae565b60008281526009602052604081206001015461109290610f86565b6000848152600b60209081526040808320848452825280832081516060810183528154815260018201548185015260028201805484518187028101870186528181529798509596919592949386019391929091879084015b8282101561115b5760008481526020908190206040805160c08101825260068602909201805483526001808201548486015260028201546001600160a01b03169284019290925260038101546060840152600481015460808401526005015460a083015290835290920191016110ea565b50505050815250509050600061117085610767565b90506000670de0b6b3a76400006002548361118b919061327b565b6111959190613267565b600087815260096020526040902060050181905590506111b581836130c5565b6000878152600960205260409081902060060191909155830151511561138457600754604084015180516001600160a01b039092169163a9059cbb91906111fe906001906130c5565b8151811061120e5761120e613086565b602002602001015160400151600960008a8152602001908152602001600020600601546040518363ffffffff1660e01b81526004016112629291906001600160a01b03929092168252602082015260400190565b6020604051808303816000875af1158015611281573d6000803e3d6000fd5b505050506040513d601f19601f820116820180604052508101906112a591906132a7565b50604083015180516112b9906001906130c5565b815181106112c9576112c9613086565b60209081029190910181015160409081015160008981526009909352918190206003810180546001600160a01b0319166001600160a01b03948516179055600754600854600590920154925163a9059cbb60e01b81529184166004830152602482019290925291169063a9059cbb906044016020604051808303816000875af115801561135a573d6000803e3d6000fd5b505050506040513d601f19601f8201168201806040525081019061137e91906132a7565b50611462565b600754600854600088815260096020526040902060058101546006909101546001600160a01b039384169363a9059cbb9316916113c0916130b2565b6040516001600160e01b031960e085901b1681526001600160a01b03909216600483015260248201526044016020604051808303816000875af115801561140b573d6000803e3d6000fd5b505050506040513d601f19601f8201168201806040525081019061142f91906132a7565b50600854600087815260096020526040902060030180546001600160a01b0319166001600160a01b039092169190911790555b600086815260096020526040908190206001810154600490910155517f906ff162b3f2709ab28fb678d43913964434148dd206e9b17adb3c1255090cb1906114ab908590612efd565b60405180910390a16000868152600960205260409081902090517f861dcb88c2eea524dd3c4d2026fc29c39249f4d090843bcc78037879d296c452916114f0916130f1565b60405180910390a1505050600092835250506009602052604090206006015490565b6004805460408051633850c7bd60e01b8152905160009384936001600160a01b031692633850c7bd928183019260e0928290030181865afa15801561155b573d6000803e3d6000fd5b505050506040513d601f19601f8201168201806040525081019061157f91906132eb565b50505050505090506000816001600160a01b031690506000600160601b82670de0b6b3a76400006115b0919061327b565b6115ba9190613267565b9050670de0b6b3a76400006115cf828061327b565b6115d99190613267565b949350505050565b600c81815481106105d257600080fd5b600081815260096020526040812054810361160e57506000919050565b6000828152600960205260409020600301546001600160a01b03161561163657506004919050565b60008054838252600960205260409091205461165291906130b2565b42101561166157506001919050565b6000828152600960205260409020600101541561168057506003919050565b506002919050565b6060600c8054806020026020016040519081016040528092919081815260200182805480156116d657602002820191906000526020600020905b8154815260200190600101908083116116c2575b5050505050905090565b6008546001600160a01b0316331461174b5760405162461bcd60e51b815260206004820152602860248201527f4f6e6c79206f776e65722063616e207769746864726177206163636f756e74696044820152673733903a37b5b2b760c11b60648201526084016106ae565b60075460085460405163a9059cbb60e01b81526001600160a01b0391821660048201526024810184905291169063a9059cbb906044016020604051808303816000875af11580156117a0573d6000803e3d6000fd5b505050506040513d601f19601f820116820180604052508101906117c491906132a7565b5050565b600042600054846117d991906130b2565b116118265760405162461bcd60e51b815260206004820152601d60248201527f4672616d652068617320746f20626520696e207468652066757475726500000060448201526064016106ae565b600080546006546118379190613267565b90506000426000548661184a91906130b2565b61185491906130c5565b90506000670de0b6b3a76400008561186c858561327b565b611876919061327b565b6118809190613267565b9695505050505050565b6000828152600b602090815260408083208484528252808320600201805482518185028101850190935280835260609492939192909184015b828210156119345760008481526020908190206040805160c08101825260068602909201805483526001808201548486015260028201546001600160a01b03169284019290925260038101546060840152600481015460808401526005015460a083015290835290920191016118c3565b50505050905092915050565b6008546001600160a01b031633146119a55760405162461bcd60e51b815260206004820152602260248201527f4f6e6c79206f776e65722063616e206368616e67652070726f746f636f6c2066604482015261656560f01b60648201526084016106ae565b600255565b60008060035483426119bc91906130c5565b6119c691906130b2565b905060006119d484426130c5565b60408051600280825260608201835292935060009290916020830190803683370190505090508281600081518110611a0e57611a0e613086565b602002602001019063ffffffff16908163ffffffff16815250508181600181518110611a3c57611a3c613086565b63ffffffff909216602092830291909101909101526004805460405163883bdbfd60e01b81526000926001600160a01b039092169163883bdbfd91611a8391869101613397565b600060405180830381865afa158015611aa0573d6000803e3d6000fd5b505050506040513d6000823e601f3d908101601f19168201604052611ac89190810190613491565b509050600081600081518110611ae057611ae0613086565b602002602001015160060b82600181518110611afe57611afe613086565b602002602001015160060b611b13919061355d565b90506000811215611b5c5760405162461bcd60e51b81526020600482015260136024820152724e65676174697665207469636b2064656c746160681b60448201526064016106ae565b806000611b7263ffffffff8088169089166130c5565b90506000611b808284613267565b90506000611b8d82612914565b90506000611bab66010000000000006001600160a01b038416613267565b90506000611bb9828061327b565b90506000600160601b611bd483670de0b6b3a764000061327b565b611bde9190613267565b9e9d5050505050505050505050505050565b600080611bfc83610b2b565b60008181526009602052604090205490915015611c525760405162461bcd60e51b81526020600482015260146024820152734672616d6520616c72656164792065786973747360601b60448201526064016106ae565b4260005482611c6191906130b2565b1015611caf5760405162461bcd60e51b815260206004820152601d60248201527f4672616d652068617320746f20626520696e207468652066757475726500000060448201526064016106ae565b60008181526009602052604090819020828155600a8054600181019091557fc65a7bb8d6351c1cf70c95a316cc6a92839c986682d98bc35f958f4883f9d2a80183905590517f861dcb88c2eea524dd3c4d2026fc29c39249f4d090843bcc78037879d296c45291611d1f916130f1565b60405180910390a192915050565b6000611d3984836117c8565b905060008111611d5b5760405162461bcd60e51b81526004016106ae9061357d565b600754604051636eb1769f60e11b815233600482015230602482015282916001600160a01b03169063dd62ed3e90604401602060405180830381865afa158015611da9573d6000803e3d6000fd5b505050506040513d601f19601f82011682018060405250810190611dcd91906135da565b1015611deb5760405162461bcd60e51b81526004016106ae906135f3565b7f161bcca7119915b50764b4abe86529797775a5f17195100000000000000000008310611e4c5760405162461bcd60e51b815260206004820152600f60248201526e4c6f74206b657920746f6f2062696760881b60448201526064016106ae565b6000848152600b6020908152604080832086845290915290206001015415611eab5760405162461bcd60e51b81526020600482015260126024820152714c6f7420616c72656164792065786973747360701b60448201526064016106ae565b6040805160c081018252438152426020808301918252338385019081526060840187815260808501878152600060a087018181528c8252600b86528882208c835286529781208c815560018082018d90556002808301805480840182558186529885208b516006909a0201988955985191880191909155945194860180546001600160a01b0319166001600160a01b039096169590951790945591516003850155516004840155945160059092019190915592869052805491929182918291611f7691908190612cf7565b509050506000611f868787610fb1565b600c805460018181019092557fdf6966c971051c3d54ec59162606531493a51404a002842f56009d7e5cf4a8c7018290556000898152600960209081526040808320878501546002909101805495860181558452919092209092019190915560075490516323b872dd60e01b81529192506001600160a01b0316906323b872dd906120199033903090899060040161362a565b6020604051808303816000875af1158015612038573d6000803e3d6000fd5b505050506040513d601f19601f8201168201806040525081019061205c91906132a7565b5050505050505050565b6000838152600b60209081526040808320858452909152812060020180546120bd918691612096906001906130c5565b815481106120a6576120a6613086565b9060005260206000209060060201600301546117c8565b905060006120cb85846117c8565b9050808211156122695760006120e182846130c5565b6007546000888152600b602090815260408083208a8452909152902060020180549293506001600160a01b039091169163a9059cbb9190612124906001906130c5565b8154811061213457612134613086565b600091825260209091206006909102016002015460405160e083901b6001600160e01b03191681526001600160a01b039091166004820152602481018490526044016020604051808303816000875af1158015612195573d6000803e3d6000fd5b505050506040513d601f19601f820116820180604052508101906121b991906132a7565b506000868152600b602090815260408083208884528252808320815160c0810183524381524281850190815233938201938452606082018a81526080830187815260a084019889526002948501805460018082018355918a529790982093516006909702909301958655905195850195909555915190830180546001600160a01b0319166001600160a01b039092169190911790559151600382015590516004820155905160059091015561242c565b600061227583836130c5565b600754604051636eb1769f60e11b815233600482015230602482015291925082916001600160a01b039091169063dd62ed3e90604401602060405180830381865afa1580156122c8573d6000803e3d6000fd5b505050506040513d601f19601f820116820180604052508101906122ec91906135da565b101561230a5760405162461bcd60e51b81526004016106ae906135f3565b6007546040516323b872dd60e01b81526001600160a01b03909116906323b872dd9061233e9033903090869060040161362a565b6020604051808303816000875af115801561235d573d6000803e3d6000fd5b505050506040513d601f19601f8201168201806040525081019061238191906132a7565b506000868152600b602090815260408083208884528252808320815160c0810183524381524281850190815233938201938452606082018a81526080830197885260a083018781526002948501805460018082018355918a529790982093516006909702909301958655905195850195909555915190830180546001600160a01b0319166001600160a01b039092169190911790559151600382015591516004830155516005909101555b5050505050565b6000838152600b602090815260408083208584529091528120600201805461245d906001906130c5565b8154811061246d5761246d613086565b600091825260208220600260069092020101546001600160a01b0316915061249585846117c8565b9050600081116124b75760405162461bcd60e51b81526004016106ae9061357d565b6000858152600b60209081526040808320878452909152812060020180546124e1906001906130c5565b815481106124f1576124f1613086565b9060005260206000209060060201600301549050808261251191906130b2565b600754604051636eb1769f60e11b81523360048201523060248201526001600160a01b039091169063dd62ed3e90604401602060405180830381865afa15801561255f573d6000803e3d6000fd5b505050506040513d601f19601f8201168201806040525081019061258391906135da565b10156125a15760405162461bcd60e51b81526004016106ae906135f3565b6007546040516323b872dd60e01b81526001600160a01b03909116906323b872dd906125d59033903090879060040161362a565b6020604051808303816000875af11580156125f4573d6000803e3d6000fd5b505050506040513d601f19601f8201168201806040525081019061261891906132a7565b506007546040516323b872dd60e01b81526001600160a01b03909116906323b872dd9061264d9033908790869060040161362a565b6020604051808303816000875af115801561266c573d6000803e3d6000fd5b505050506040513d601f19601f8201168201806040525081019061269091906132a7565b506000868152600b60209081526040808320888452909152812060020180546126c1918991612096906001906130c5565b60075460405163a9059cbb60e01b81526001600160a01b0387811660048301526024820184905292935091169063a9059cbb906044016020604051808303816000875af1158015612716573d6000803e3d6000fd5b505050506040513d601f19601f8201168201806040525081019061273a91906132a7565b50600b600088815260200190815260200160002060008781526020019081526020016000206002016040518060c00160405280438152602001428152602001866001600160a01b0316815260200184815260200160008152602001838152509080600181540180825580915050600190039060005260206000209060060201600090919091909150600082015181600001556020820151816001015560408201518160020160006101000a8154816001600160a01b0302191690836001600160a01b03160217905550606082015181600301556080820151816004015560a082015181600501555050600b600088815260200190815260200160002060008781526020019081526020016000206002016040518060c00160405280438152602001428152602001336001600160a01b0316815260200187815260200185815260200160008152509080600181540180825580915050600190039060005260206000209060060201600090919091909150600082015181600001556020820151816001015560408201518160020160006101000a8154816001600160a01b0302191690836001600160a01b03160217905550606082015181600301556080820151816004015560a08201518160050155505050505050505050565b600081620d89e881111561294e5760405162461bcd60e51b81526020600482015260016024820152601560fa1b60448201526064016106ae565b60008160011660000361296557600160801b612977565b6ffffcb933bd6fad37aa2d162d1a5940015b70ffffffffffffffffffffffffffffffffff16905060028216156129b65760806129b1826ffff97272373d413259a46990580e213a61327b565b901c90505b60048216156129e05760806129db826ffff2e50f5f656932ef12357cf3c7fdcc61327b565b901c90505b6008821615612a0a576080612a05826fffe5caca7e10e4e61c3624eaa0941cd061327b565b901c90505b6010821615612a34576080612a2f826fffcb9843d60f6159c9db58835c92664461327b565b901c90505b6020821615612a5e576080612a59826fff973b41fa98c081472e6896dfb254c061327b565b901c90505b6040821615612a88576080612a83826fff2ea16466c96a3843ec78b326b5286161327b565b901c90505b6080821615612ab2576080612aad826ffe5dee046a99a2a811c461f1969c305361327b565b901c90505b610100821615612add576080612ad8826ffcbe86c7900a88aedcffc83b479aa3a461327b565b901c90505b610200821615612b08576080612b03826ff987a7253ac413176f2b074cf7815e5461327b565b901c90505b610400821615612b33576080612b2e826ff3392b0822b70005940c7a398e4b70f361327b565b901c90505b610800821615612b5e576080612b59826fe7159475a2c29b7443b29c7fa6e889d961327b565b901c90505b611000821615612b89576080612b84826fd097f3bdfd2022b8845ad8f792aa582561327b565b901c90505b612000821615612bb4576080612baf826fa9f746462d870fdf8a65dc1f90e061e561327b565b901c90505b614000821615612bdf576080612bda826f70d869a156d2a1b890bb3df62baf32f761327b565b901c90505b618000821615612c0a576080612c05826f31be135f97d08fd981231505542fcfa661327b565b901c90505b62010000821615612c36576080612c31826f09aa508b5b7a84e1c677de54f3e99bc961327b565b901c90505b62020000821615612c61576080612c5c826e5d6af8dedb81196699c329225ee60461327b565b901c90505b62040000821615612c8b576080612c86826d2216e584f5fa1ea926041bedfe9861327b565b901c90505b62080000821615612cb3576080612cae826b048a170391f7dc42444e8fa261327b565b901c90505b8315612cc857612cc581600019613267565b90505b612cd7640100000000826131a5565b15612ce3576001612ce6565b60005b6115d99060ff16602083901c6130b2565b828054828255906000526020600020906006028101928215612d8b5760005260206000209160060282015b82811115612d8b57825482556001808401549083015560028084015490830180546001600160a01b0319166001600160a01b0390921691909117905560038084015490830155600480840154908301556005808401549083015560069283019290910190612d22565b50612d97929150612d9b565b5090565b5b80821115612d97576000808255600182018190556002820180546001600160a01b031916905560038201819055600482018190556005820155600601612d9c565b600060208284031215612def57600080fd5b5035919050565b6020808252825182820181905260009190848201906040850190845b81811015612e2e57835183529284019291840191600101612e12565b50909695505050505050565b60008060408385031215612e4d57600080fd5b50508035926020909101359150565b634e487b7160e01b600052602160045260246000fd5b6020810160048310612e8657612e86612e5c565b91905290565b600080600060608486031215612ea157600080fd5b505081359360208301359350604090920135919050565b80518252602080820151908301526040808201516001600160a01b031690830152606080820151908301526080808201519083015260a0908101519082015260c00190565b6000602080835260808301845182850152818501516040850152604085015160608086015281815180845260a0870191508483019350600092505b80831015612f5d57612f4b828551612eb8565b91508484019350600183019250612f38565b509695505050505050565b600060208083526101008301845182850152818501516040850152604085015160e06060860152818151808452610120870191508483019350600092505b80831015612fc65783518252928401926001929092019190840190612fa6565b5060608701516001600160a01b03811660808801529350608087015160a087015260a087015160c087015260c087015160e08701528094505050505092915050565b6020810160058310612e8657612e86612e5c565b6020808252825182820181905260009190848201906040850190845b81811015612e2e5761304b838551612eb8565b938501939250600101613038565b602080825260139082015272119c985b5948191bd95cdb89dd08195e1a5cdd606a1b604082015260600190565b634e487b7160e01b600052603260045260246000fd5b634e487b7160e01b600052601160045260246000fd5b80820180821115610b2557610b2561309c565b81810381811115610b2557610b2561309c565b6000600182016130ea576130ea61309c565b5060010190565b6020808252825482820152600180840154604084015260e06060840152600284018054610100850181905260009182528382209193929084906101208701905b8083101561314e5784548252938301939183019190850190613131565b5060038801546001600160a01b03166080880152600488015460a0880152600588015460c088015260069097015460e0909601959095525093949350505050565b634e487b7160e01b600052601260045260246000fd5b6000826131b4576131b461318f565b500690565b6000602080835260808084018554838601526001808701546040818189015260029150818901606080818b015285825480885260a09750878c0191508360005289600020935060005b818110156132555784548352878501548b840152868501546001600160a01b03168684015260038501548484015260048501548a84015260058501548984015260069094019360c0909201918701613202565b50909c9b505050505050505050505050565b6000826132765761327661318f565b500490565b8082028115828204841417610b2557610b2561309c565b805180151581146132a257600080fd5b919050565b6000602082840312156132b957600080fd5b610fce82613292565b80516001600160a01b03811681146132a257600080fd5b805161ffff811681146132a257600080fd5b600080600080600080600060e0888a03121561330657600080fd5b61330f886132c2565b965060208801518060020b811461332557600080fd5b9550613333604089016132d9565b9450613341606089016132d9565b935061334f608089016132d9565b925060a088015160ff8116811461336557600080fd5b915061337360c08901613292565b905092959891949750929550565b634e487b7160e01b600052604160045260246000fd5b6020808252825182820181905260009190848201906040850190845b81811015612e2e57835163ffffffff16835292840192918401916001016133b3565b604051601f8201601f1916810167ffffffffffffffff811182821017156133fe576133fe613381565b604052919050565b600067ffffffffffffffff82111561342057613420613381565b5060051b60200190565b600082601f83011261343b57600080fd5b8151602061345061344b83613406565b6133d5565b82815260059290921b8401810191818101908684111561346f57600080fd5b8286015b84811015612f5d57613484816132c2565b8352918301918301613473565b600080604083850312156134a457600080fd5b825167ffffffffffffffff808211156134bc57600080fd5b818501915085601f8301126134d057600080fd5b815160206134e061344b83613406565b82815260059290921b840181019181810190898411156134ff57600080fd5b948201945b8386101561352d5785518060060b811461351e5760008081fd5b82529482019490820190613504565b9188015191965090935050508082111561354657600080fd5b506135538582860161342a565b9150509250929050565b818103600083128015838313168383128216171561092d5761092d61309c565b6020808252603c908201527f5461782068617320746f2062652067726561746572207468616e20302e20496e60408201527f63726561736520746865206163717569736974696f6e20707269636500000000606082015260800190565b6000602082840312156135ec57600080fd5b5051919050565b6020808252601e908201527f416c6c6f77616e636520746f207370656e642073657420746f6f206c6f770000604082015260600190565b6001600160a01b03938416815291909216602082015260408101919091526060019056fea2646970667358221220a6b64f80f1055dadaf5d7d1ebe6e9a3d8664097dc2d84e9dd64ec81749bfcef964736f6c63430008140033",
  "linkReferences": {},
  "deployedLinkReferences": {}
}