{
  "_format": "hh-sol-artifact-1",
  "contractName": "Market",
  "sourceName": "contracts/Market.sol",
  "abi": [
    {
      "inputs": [
        {
          "internalType": "contract MarketFactory",
          "name": "_factory",
          "type": "address"
        },
        {
          "internalType": "contract IERC20",
          "name": "_token",
          "type": "address"
        },
        {
          "internalType": "contract IUniswapV2Pair",
          "name": "_uniswapPair",
          "type": "address"
        },
        {
          "internalType": "uint256",
          "name": "_period",
          "type": "uint256"
        },
        {
          "internalType": "uint256",
          "name": "_initTimestamp",
          "type": "uint256"
        },
        {
          "internalType": "uint256",
          "name": "_taxMarket",
          "type": "uint256"
        },
        {
          "internalType": "uint256",
          "name": "_feeMarket",
          "type": "uint256"
        },
        {
          "internalType": "uint256",
          "name": "_dPrice",
          "type": "uint256"
        },
        {
          "internalType": "uint256",
          "name": "_tReporting",
          "type": "uint256"
        },
        {
          "internalType": "uint256",
          "name": "_minTax",
          "type": "uint256"
        },
        {
          "internalType": "bool",
          "name": "_avgPriceSwitch",
          "type": "bool"
        }
      ],
      "stateMutability": "nonpayable",
      "type": "constructor"
    },
    {
      "anonymous": false,
      "inputs": [
        {
          "indexed": false,
          "internalType": "uint256",
          "name": "frameKey",
          "type": "uint256"
        },
        {
          "indexed": false,
          "internalType": "uint256",
          "name": "oracleTimestampStart",
          "type": "uint256"
        },
        {
          "indexed": false,
          "internalType": "uint256",
          "name": "oracleTimestampEnd",
          "type": "uint256"
        },
        {
          "indexed": false,
          "internalType": "uint256",
          "name": "oraclePrice0CumulativeStart",
          "type": "uint256"
        },
        {
          "indexed": false,
          "internalType": "uint256",
          "name": "oraclePrice0CumulativeEnd",
          "type": "uint256"
        },
        {
          "indexed": false,
          "internalType": "uint256",
          "name": "oraclePrice1CumulativeStart",
          "type": "uint256"
        },
        {
          "indexed": false,
          "internalType": "uint256",
          "name": "oraclePrice1CumulativeEnd",
          "type": "uint256"
        },
        {
          "indexed": false,
          "internalType": "uint256",
          "name": "rewardFund",
          "type": "uint256"
        }
      ],
      "name": "FrameUpdate",
      "type": "event"
    },
    {
      "anonymous": false,
      "inputs": [
        {
          "indexed": false,
          "internalType": "uint256",
          "name": "frameKey",
          "type": "uint256"
        },
        {
          "components": [
            {
              "internalType": "uint256",
              "name": "frameKey",
              "type": "uint256"
            },
            {
              "internalType": "uint256",
              "name": "lotKey",
              "type": "uint256"
            },
            {
              "internalType": "address",
              "name": "lotOwner",
              "type": "address"
            },
            {
              "internalType": "uint256",
              "name": "acquisitionPrice",
              "type": "uint256"
            },
            {
              "internalType": "enum MLib.SLot",
              "name": "state",
              "type": "uint8"
            }
          ],
          "indexed": false,
          "internalType": "struct MLib.Lot",
          "name": "lotStruct",
          "type": "tuple"
        }
      ],
      "name": "LotUpdate",
      "type": "event"
    },
    {
      "inputs": [
        {
          "internalType": "uint256",
          "name": "frameKey",
          "type": "uint256"
        },
        {
          "internalType": "uint256",
          "name": "avgPrice",
          "type": "uint256"
        }
      ],
      "name": "UpdateAvgPrice",
      "outputs": [],
      "stateMutability": "nonpayable",
      "type": "function"
    },
    {
      "inputs": [],
      "name": "accountingToken",
      "outputs": [
        {
          "internalType": "contract IERC20",
          "name": "",
          "type": "address"
        }
      ],
      "stateMutability": "view",
      "type": "function"
    },
    {
      "inputs": [
        {
          "internalType": "address",
          "name": "ownerPublicKey",
          "type": "address"
        },
        {
          "internalType": "address",
          "name": "referralPublicKey",
          "type": "address"
        },
        {
          "internalType": "string",
          "name": "message",
          "type": "string"
        }
      ],
      "name": "addReferral",
      "outputs": [],
      "stateMutability": "nonpayable",
      "type": "function"
    },
    {
      "inputs": [],
      "name": "avgPriceSwitch",
      "outputs": [
        {
          "internalType": "bool",
          "name": "",
          "type": "bool"
        }
      ],
      "stateMutability": "view",
      "type": "function"
    },
    {
      "inputs": [
        {
          "internalType": "uint256",
          "name": "timestamp",
          "type": "uint256"
        },
        {
          "internalType": "uint256",
          "name": "pairPrice",
          "type": "uint256"
        },
        {
          "internalType": "uint256",
          "name": "acqPrice",
          "type": "uint256"
        }
      ],
      "name": "buyLot",
      "outputs": [],
      "stateMutability": "nonpayable",
      "type": "function"
    },
    {
      "inputs": [
        {
          "internalType": "uint256",
          "name": "frameKey",
          "type": "uint256"
        }
      ],
      "name": "claimReward",
      "outputs": [],
      "stateMutability": "nonpayable",
      "type": "function"
    },
    {
      "inputs": [
        {
          "internalType": "uint256",
          "name": "timestamp",
          "type": "uint256"
        }
      ],
      "name": "clcFrameTimestamp",
      "outputs": [
        {
          "internalType": "uint256",
          "name": "",
          "type": "uint256"
        }
      ],
      "stateMutability": "view",
      "type": "function"
    },
    {
      "inputs": [
        {
          "internalType": "uint256",
          "name": "value",
          "type": "uint256"
        }
      ],
      "name": "clcLotKey",
      "outputs": [
        {
          "internalType": "uint256",
          "name": "",
          "type": "uint256"
        }
      ],
      "stateMutability": "view",
      "type": "function"
    },
    {
      "inputs": [
        {
          "internalType": "uint256",
          "name": "frameKey",
          "type": "uint256"
        },
        {
          "internalType": "uint256",
          "name": "acquisitionPrice",
          "type": "uint256"
        }
      ],
      "name": "clcTax",
      "outputs": [
        {
          "internalType": "uint256",
          "name": "tax",
          "type": "uint256"
        }
      ],
      "stateMutability": "view",
      "type": "function"
    },
    {
      "inputs": [],
      "name": "dPrice",
      "outputs": [
        {
          "internalType": "uint256",
          "name": "",
          "type": "uint256"
        }
      ],
      "stateMutability": "view",
      "type": "function"
    },
    {
      "inputs": [
        {
          "internalType": "uint256",
          "name": "amount",
          "type": "uint256"
        }
      ],
      "name": "emptyFunds",
      "outputs": [],
      "stateMutability": "nonpayable",
      "type": "function"
    },
    {
      "inputs": [],
      "name": "factory",
      "outputs": [
        {
          "internalType": "contract MarketFactory",
          "name": "",
          "type": "address"
        }
      ],
      "stateMutability": "view",
      "type": "function"
    },
    {
      "inputs": [],
      "name": "feeMarket",
      "outputs": [
        {
          "internalType": "uint256",
          "name": "",
          "type": "uint256"
        }
      ],
      "stateMutability": "view",
      "type": "function"
    },
    {
      "inputs": [],
      "name": "feeProtocol",
      "outputs": [
        {
          "internalType": "uint256",
          "name": "",
          "type": "uint256"
        }
      ],
      "stateMutability": "view",
      "type": "function"
    },
    {
      "inputs": [
        {
          "internalType": "uint256",
          "name": "",
          "type": "uint256"
        }
      ],
      "name": "frames",
      "outputs": [
        {
          "internalType": "uint256",
          "name": "frameKey",
          "type": "uint256"
        },
        {
          "internalType": "uint256",
          "name": "oracleTimestampStart",
          "type": "uint256"
        },
        {
          "internalType": "uint256",
          "name": "oracleTimestampEnd",
          "type": "uint256"
        },
        {
          "internalType": "uint256",
          "name": "rewardFund",
          "type": "uint256"
        },
        {
          "internalType": "uint256",
          "name": "priceAverage",
          "type": "uint256"
        },
        {
          "internalType": "uint256",
          "name": "oraclePrice0CumulativeStart",
          "type": "uint256"
        },
        {
          "internalType": "uint256",
          "name": "oraclePrice0CumulativeEnd",
          "type": "uint256"
        },
        {
          "internalType": "uint256",
          "name": "oraclePrice1CumulativeStart",
          "type": "uint256"
        },
        {
          "internalType": "uint256",
          "name": "oraclePrice1CumulativeEnd",
          "type": "uint256"
        },
        {
          "internalType": "enum MLib.SFrame",
          "name": "state",
          "type": "uint8"
        }
      ],
      "stateMutability": "view",
      "type": "function"
    },
    {
      "inputs": [
        {
          "internalType": "uint256",
          "name": "",
          "type": "uint256"
        }
      ],
      "name": "framesKeys",
      "outputs": [
        {
          "internalType": "uint256",
          "name": "",
          "type": "uint256"
        }
      ],
      "stateMutability": "view",
      "type": "function"
    },
    {
      "inputs": [
        {
          "internalType": "uint256",
          "name": "frameKey",
          "type": "uint256"
        }
      ],
      "name": "getFrame",
      "outputs": [
        {
          "components": [
            {
              "internalType": "uint256",
              "name": "frameKey",
              "type": "uint256"
            },
            {
              "internalType": "uint256",
              "name": "oracleTimestampStart",
              "type": "uint256"
            },
            {
              "internalType": "uint256",
              "name": "oracleTimestampEnd",
              "type": "uint256"
            },
            {
              "internalType": "uint256",
              "name": "rewardFund",
              "type": "uint256"
            },
            {
              "internalType": "uint256",
              "name": "priceAverage",
              "type": "uint256"
            },
            {
              "internalType": "uint256",
              "name": "oraclePrice0CumulativeStart",
              "type": "uint256"
            },
            {
              "internalType": "uint256",
              "name": "oraclePrice0CumulativeEnd",
              "type": "uint256"
            },
            {
              "internalType": "uint256",
              "name": "oraclePrice1CumulativeStart",
              "type": "uint256"
            },
            {
              "internalType": "uint256",
              "name": "oraclePrice1CumulativeEnd",
              "type": "uint256"
            },
            {
              "internalType": "enum MLib.SFrame",
              "name": "state",
              "type": "uint8"
            },
            {
              "internalType": "uint256[]",
              "name": "lotKeys",
              "type": "uint256[]"
            }
          ],
          "internalType": "struct MLib.Frame",
          "name": "",
          "type": "tuple"
        }
      ],
      "stateMutability": "view",
      "type": "function"
    },
    {
      "inputs": [
        {
          "internalType": "uint256",
          "name": "frameKey",
          "type": "uint256"
        }
      ],
      "name": "getFrameState",
      "outputs": [
        {
          "internalType": "enum MLib.SFrame",
          "name": "",
          "type": "uint8"
        }
      ],
      "stateMutability": "view",
      "type": "function"
    },
    {
      "inputs": [
        {
          "internalType": "uint256",
          "name": "frameKey",
          "type": "uint256"
        },
        {
          "internalType": "uint256",
          "name": "lotKey",
          "type": "uint256"
        }
      ],
      "name": "getLot",
      "outputs": [
        {
          "components": [
            {
              "internalType": "uint256",
              "name": "frameKey",
              "type": "uint256"
            },
            {
              "internalType": "uint256",
              "name": "lotKey",
              "type": "uint256"
            },
            {
              "internalType": "address",
              "name": "lotOwner",
              "type": "address"
            },
            {
              "internalType": "uint256",
              "name": "acquisitionPrice",
              "type": "uint256"
            },
            {
              "internalType": "enum MLib.SLot",
              "name": "state",
              "type": "uint8"
            }
          ],
          "internalType": "struct MLib.Lot",
          "name": "",
          "type": "tuple"
        }
      ],
      "stateMutability": "view",
      "type": "function"
    },
    {
      "inputs": [
        {
          "internalType": "uint256",
          "name": "frameKey",
          "type": "uint256"
        }
      ],
      "name": "getLotKeys",
      "outputs": [
        {
          "internalType": "uint256[]",
          "name": "",
          "type": "uint256[]"
        }
      ],
      "stateMutability": "view",
      "type": "function"
    },
    {
      "inputs": [],
      "name": "getNumberOfFrameKeys",
      "outputs": [
        {
          "internalType": "uint256",
          "name": "",
          "type": "uint256"
        }
      ],
      "stateMutability": "view",
      "type": "function"
    },
    {
      "inputs": [
        {
          "internalType": "address",
          "name": "",
          "type": "address"
        }
      ],
      "name": "hasBoughtLot",
      "outputs": [
        {
          "internalType": "bool",
          "name": "",
          "type": "bool"
        }
      ],
      "stateMutability": "view",
      "type": "function"
    },
    {
      "inputs": [
        {
          "internalType": "uint256",
          "name": "frameKey",
          "type": "uint256"
        }
      ],
      "name": "hasValidPrices",
      "outputs": [],
      "stateMutability": "view",
      "type": "function"
    },
    {
      "inputs": [],
      "name": "initTimestamp",
      "outputs": [
        {
          "internalType": "uint256",
          "name": "",
          "type": "uint256"
        }
      ],
      "stateMutability": "view",
      "type": "function"
    },
    {
      "inputs": [
        {
          "internalType": "uint256",
          "name": "",
          "type": "uint256"
        },
        {
          "internalType": "uint256",
          "name": "",
          "type": "uint256"
        }
      ],
      "name": "lots",
      "outputs": [
        {
          "internalType": "uint256",
          "name": "frameKey",
          "type": "uint256"
        },
        {
          "internalType": "uint256",
          "name": "lotKey",
          "type": "uint256"
        },
        {
          "internalType": "address",
          "name": "lotOwner",
          "type": "address"
        },
        {
          "internalType": "uint256",
          "name": "acquisitionPrice",
          "type": "uint256"
        },
        {
          "internalType": "enum MLib.SLot",
          "name": "state",
          "type": "uint8"
        }
      ],
      "stateMutability": "view",
      "type": "function"
    },
    {
      "inputs": [],
      "name": "minTax",
      "outputs": [
        {
          "internalType": "uint256",
          "name": "",
          "type": "uint256"
        }
      ],
      "stateMutability": "view",
      "type": "function"
    },
    {
      "inputs": [],
      "name": "ownerMarket",
      "outputs": [
        {
          "internalType": "address",
          "name": "",
          "type": "address"
        }
      ],
      "stateMutability": "view",
      "type": "function"
    },
    {
      "inputs": [],
      "name": "period",
      "outputs": [
        {
          "internalType": "uint256",
          "name": "",
          "type": "uint256"
        }
      ],
      "stateMutability": "view",
      "type": "function"
    },
    {
      "inputs": [
        {
          "internalType": "address",
          "name": "",
          "type": "address"
        }
      ],
      "name": "referals",
      "outputs": [
        {
          "internalType": "address",
          "name": "ownerPublicKey",
          "type": "address"
        },
        {
          "internalType": "address",
          "name": "referralPublicKey",
          "type": "address"
        },
        {
          "internalType": "string",
          "name": "message",
          "type": "string"
        }
      ],
      "stateMutability": "view",
      "type": "function"
    },
    {
      "inputs": [],
      "name": "scalar",
      "outputs": [
        {
          "internalType": "uint256",
          "name": "",
          "type": "uint256"
        }
      ],
      "stateMutability": "view",
      "type": "function"
    },
    {
      "inputs": [],
      "name": "tReporting",
      "outputs": [
        {
          "internalType": "uint256",
          "name": "",
          "type": "uint256"
        }
      ],
      "stateMutability": "view",
      "type": "function"
    },
    {
      "inputs": [],
      "name": "taxMarket",
      "outputs": [
        {
          "internalType": "uint256",
          "name": "",
          "type": "uint256"
        }
      ],
      "stateMutability": "view",
      "type": "function"
    },
    {
      "inputs": [],
      "name": "uniswapPair",
      "outputs": [
        {
          "internalType": "contract IUniswapV2Pair",
          "name": "",
          "type": "address"
        }
      ],
      "stateMutability": "view",
      "type": "function"
    },
    {
      "inputs": [],
      "name": "updateFramePrices",
      "outputs": [],
      "stateMutability": "nonpayable",
      "type": "function"
    },
    {
      "inputs": [
        {
          "internalType": "uint256",
          "name": "timestamp",
          "type": "uint256"
        },
        {
          "internalType": "uint256",
          "name": "pairPrice",
          "type": "uint256"
        },
        {
          "internalType": "uint256",
          "name": "acqPrice",
          "type": "uint256"
        }
      ],
      "name": "updateLotPrice",
      "outputs": [],
      "stateMutability": "nonpayable",
      "type": "function"
    },
    {
      "inputs": [
        {
          "internalType": "address",
          "name": "",
          "type": "address"
        },
        {
          "internalType": "uint256",
          "name": "",
          "type": "uint256"
        }
      ],
      "name": "userFrames",
      "outputs": [
        {
          "internalType": "uint256",
          "name": "",
          "type": "uint256"
        }
      ],
      "stateMutability": "view",
      "type": "function"
    }
  ],
  "bytecode": "0x608060405260646002556000600c60006101000a81548160ff02191690831515021790555069d3c21bcecceda1000000600d553480156200003f57600080fd5b506040516200545038038062005450833981810160405281019062000065919062000238565b89600960006101000a81548173ffffffffffffffffffffffffffffffffffffffff021916908373ffffffffffffffffffffffffffffffffffffffff16021790555033600a60006101000a81548173ffffffffffffffffffffffffffffffffffffffff021916908373ffffffffffffffffffffffffffffffffffffffff1602179055508760008190555086600181905550856007819055508460068190555088600460006101000a81548173ffffffffffffffffffffffffffffffffffffffff021916908373ffffffffffffffffffffffffffffffffffffffff160217905550836005819055508a600860006101000a81548173ffffffffffffffffffffffffffffffffffffffff021916908373ffffffffffffffffffffffffffffffffffffffff1602179055508260038190555081600b8190555080600c60006101000a81548160ff021916908315150217905550505050505050505050505062000447565b600081519050620001d681620003c5565b92915050565b600081519050620001ed81620003df565b92915050565b6000815190506200020481620003f9565b92915050565b6000815190506200021b8162000413565b92915050565b60008151905062000232816200042d565b92915050565b60008060008060008060008060008060006101608c8e0312156200025b57600080fd5b60006200026b8e828f016200020a565b9b505060206200027e8e828f01620001dc565b9a50506040620002918e828f01620001f3565b9950506060620002a48e828f0162000221565b9850506080620002b78e828f0162000221565b97505060a0620002ca8e828f0162000221565b96505060c0620002dd8e828f0162000221565b95505060e0620002f08e828f0162000221565b945050610100620003048e828f0162000221565b935050610120620003188e828f0162000221565b9250506101406200032c8e828f01620001c5565b9150509295989b509295989b9093969950565b60006200034c826200039b565b9050919050565b60008115159050919050565b60006200036c826200033f565b9050919050565b600062000380826200033f565b9050919050565b600062000394826200033f565b9050919050565b600073ffffffffffffffffffffffffffffffffffffffff82169050919050565b6000819050919050565b620003d08162000353565b8114620003dc57600080fd5b50565b620003ea816200035f565b8114620003f657600080fd5b50565b620004048162000373565b81146200041057600080fd5b50565b6200041e8162000387565b81146200042a57600080fd5b50565b6200043881620003bb565b81146200044457600080fd5b50565b614ff980620004576000396000f3fe608060405234801561001057600080fd5b506004361061021c5760003560e01c806396b2c6f311610125578063d529a396116100ad578063e107fb4f1161007c578063e107fb4f14610676578063ef78d4fd146106a6578063f109db84146106c4578063f45e65d8146106f4578063ff5c86b0146107125761021c565b8063d529a396146105f0578063d98716c41461060c578063d9ab597e14610628578063da68cf8b146106585761021c565b8063ae169a50116100f4578063ae169a5014610548578063b93dafa914610564578063bb15d2dd14610598578063c45a0155146105b4578063c816841b146105d25761021c565b806396b2c6f3146104a3578063a10340bc146104ad578063a128fcf2146104e6578063ab02f2a9146105185761021c565b8063652c8ded116101a8578063773d51eb11610177578063773d51eb146103e95780637e9966391461041957806389da88a3146104375780638f9eca82146104555780639592de18146104735761021c565b8063652c8ded146103635780636f1aefc31461037f5780636f7cb60b146103af5780637358c57a146103cb5761021c565b806345084775116101ef57806345084775146102a9578063499a0fc4146102c7578063527eb4bc146102e55780635b3ad63e1461030357806360f65c60146103335761021c565b8063050e8840146102215780633c80d8ea146102515780633d09a82a1461026d578063410f07101461028b575b600080fd5b61023b60048036038101906102369190613bb5565b610730565b60405161024891906147b3565b60405180910390f35b61026b60048036038101906102669190613c43565b610754565b005b610275610fd0565b60405161028291906147b3565b60405180910390f35b610293610fd6565b6040516102a091906147b3565b60405180910390f35b6102b1610fdc565b6040516102be919061440b565b60405180910390f35b6102cf611002565b6040516102dc91906147b3565b60405180910390f35b6102ed611008565b6040516102fa91906147b3565b60405180910390f35b61031d60048036038101906103189190613bb5565b61100e565b60405161032a91906147b3565b60405180910390f35b61034d60048036038101906103489190613b01565b611051565b60405161035a91906147b3565b60405180910390f35b61037d60048036038101906103789190613bb5565b611082565b005b61039960048036038101906103949190613c07565b6111eb565b6040516103a69190614798565b60405180910390f35b6103c960048036038101906103c49190613bb5565b611325565b005b6103d3611584565b6040516103e091906147b3565b60405180910390f35b61040360048036038101906103fe9190613bb5565b61158a565b6040516104109190614776565b60405180910390f35b6104216116f1565b60405161042e91906147b3565b60405180910390f35b61043f6116f7565b60405161044c91906147b3565b60405180910390f35b61045d611704565b60405161046a919061450f565b60405180910390f35b61048d60048036038101906104889190613bb5565b611717565b60405161049a91906147b3565b60405180910390f35b6104ab61174d565b005b6104c760048036038101906104c29190613bb5565b611a41565b6040516104dd9a999897969594939291906148c8565b60405180910390f35b61050060048036038101906104fb9190613a48565b611aa2565b60405161050f9392919061444f565b60405180910390f35b610532600480360381019061052d9190613bb5565b611b94565b60405161053f91906144ed565b60405180910390f35b610562600480360381019061055d9190613bb5565b611c02565b005b61057e60048036038101906105799190613c07565b611c17565b60405161058f9594939291906147f7565b60405180910390f35b6105b260048036038101906105ad9190613c43565b611c87565b005b6105bc61219f565b6040516105c99190614560565b60405180910390f35b6105da6121c5565b6040516105e79190614545565b60405180910390f35b61060a60048036038101906106059190613c07565b6121eb565b005b61062660048036038101906106219190613a9a565b61226f565b005b610642600480360381019061063d9190613a48565b6124b2565b60405161064f919061450f565b60405180910390f35b6106606124d2565b60405161066d919061452a565b60405180910390f35b610690600480360381019061068b9190613c07565b6124f8565b60405161069d91906147b3565b60405180910390f35b6106ae61256d565b6040516106bb91906147b3565b60405180910390f35b6106de60048036038101906106d99190613bb5565b612573565b6040516106eb919061457b565b60405180910390f35b6106fc6125a0565b60405161070991906147b3565b60405180910390f35b61071a6125a6565b60405161072791906147b3565b60405180910390f35b6013818154811061074057600080fd5b906000526020600020016000915090505481565b600061075f846125ac565b905061076b818361275c565b600061077782856127b4565b90506107824261100e565b8210156107c4576040517f08c379a00000000000000000000000000000000000000000000000000000000081526004016107bb906145f6565b60405180910390fd5b600e6000838152602001908152602001600020600082815260200190815260200160002060020160009054906101000a900473ffffffffffffffffffffffffffffffffffffffff1673ffffffffffffffffffffffffffffffffffffffff163373ffffffffffffffffffffffffffffffffffffffff16141561087a576040517f08c379a0000000000000000000000000000000000000000000000000000000008152600401610871906146b6565b60405180910390fd5b600061088683856124f8565b905080600e60008581526020019081526020016000206000848152602001908152602001600020600301546108bb9190614a2b565b600960009054906101000a900473ffffffffffffffffffffffffffffffffffffffff1673ffffffffffffffffffffffffffffffffffffffff1663dd62ed3e33306040518363ffffffff1660e01b8152600401610918929190614426565b60206040518083038186803b15801561093057600080fd5b505afa158015610944573d6000803e3d6000fd5b505050506040513d601f19601f820116820180604052508101906109689190613bde565b10156109a9576040517f08c379a00000000000000000000000000000000000000000000000000000000081526004016109a0906146d6565b60405180910390fd5b600960009054906101000a900473ffffffffffffffffffffffffffffffffffffffff1673ffffffffffffffffffffffffffffffffffffffff166323b872dd333084600e6000898152602001908152602001600020600088815260200190815260200160002060030154610a1c9190614a2b565b6040518463ffffffff1660e01b8152600401610a3a9392919061448d565b602060405180830381600087803b158015610a5457600080fd5b505af1158015610a68573d6000803e3d6000fd5b505050506040513d601f19601f82011682018060405250810190610a8c9190613b3d565b5080600f600085815260200190815260200160002060030154610aaf9190614a2b565b600f60008581526020019081526020016000206003018190555060016002811115610b03577f4e487b7100000000000000000000000000000000000000000000000000000000600052602160045260246000fd5b600e6000858152602001908152602001600020600084815260200190815260200160002060040160009054906101000a900460ff166002811115610b70577f4e487b7100000000000000000000000000000000000000000000000000000000600052602160045260246000fd5b1415610d16576000610ba984600e60008781526020019081526020016000206000868152602001908152602001600020600301546124f8565b9050600960009054906101000a900473ffffffffffffffffffffffffffffffffffffffff1673ffffffffffffffffffffffffffffffffffffffff1663a9059cbb600e6000878152602001908152602001600020600086815260200190815260200160002060020160009054906101000a900473ffffffffffffffffffffffffffffffffffffffff16600e600088815260200190815260200160002060008781526020019081526020016000206003015484610c649190614a2b565b6040518363ffffffff1660e01b8152600401610c819291906144c4565b602060405180830381600087803b158015610c9b57600080fd5b505af1158015610caf573d6000803e3d6000fd5b505050506040513d601f19601f82011682018060405250810190610cd39190613b3d565b5080600f600086815260200190815260200160002060030154610cf69190614b3d565b600f60008681526020019081526020016000206003018190555050610d8d565b6001600e6000858152602001908152602001600020600084815260200190815260200160002060040160006101000a81548160ff02191690836002811115610d87577f4e487b7100000000000000000000000000000000000000000000000000000000600052602160045260246000fd5b02179055505b33600e6000858152602001908152602001600020600084815260200190815260200160002060020160006101000a81548173ffffffffffffffffffffffffffffffffffffffff021916908373ffffffffffffffffffffffffffffffffffffffff16021790555083600e6000858152602001908152602001600020600084815260200190815260200160002060030181905550601060003373ffffffffffffffffffffffffffffffffffffffff1673ffffffffffffffffffffffffffffffffffffffff168152602001908152602001600020839080600181540180825580915050600190039060005260206000200160009091909190915055610e8d61174d565b7ff733bd7f4402cb7d331b34d5cd22f432b9bf71a833f786974545860d74976af283600f600086815260200190815260200160002060010154600f600087815260200190815260200160002060020154600f600088815260200190815260200160002060050154600f600089815260200190815260200160002060060154600f60008a815260200190815260200160002060070154600f60008b815260200190815260200160002060080154600f60008c815260200190815260200160002060030154604051610f6498979695949392919061484a565b60405180910390a17f74c5c6f5cd4370cc0ab554a1afdb2b24b051b40c99102354ef424aed5cd6409d83600e60008681526020019081526020016000206000858152602001908152602001600020604051610fc09291906147ce565b60405180910390a1505050505050565b600b5481565b60065481565b600a60009054906101000a900473ffffffffffffffffffffffffffffffffffffffff1681565b60055481565b60025481565b6000600154821161102357600154905061104c565b600054600154836110349190614b3d565b61103e9190614dee565b826110499190614b3d565b90505b919050565b6010602052816000526040600020818154811061106d57600080fd5b90600052602060002001600091509150505481565b6000600f6000838152602001908152602001600020600501541115806110bf57506000600f60008381526020019081526020016000206006015411155b806110e157506000600f60008381526020019081526020016000206007015411155b8061110357506000600f60008381526020019081526020016000206008015411155b15611143576040517f08c379a000000000000000000000000000000000000000000000000000000000815260040161113a90614656565b60405180910390fd5b600f600082815260200190815260200160002060060154600f60008381526020019081526020016000206005015414806111a85750600f600082815260200190815260200160002060080154600f600083815260200190815260200160002060070154145b156111e8576040517f08c379a00000000000000000000000000000000000000000000000000000000081526004016111df90614656565b60405180910390fd5b50565b6111f361376a565b600e600084815260200190815260200160002060008381526020019081526020016000206040518060a001604052908160008201548152602001600182015481526020016002820160009054906101000a900473ffffffffffffffffffffffffffffffffffffffff1673ffffffffffffffffffffffffffffffffffffffff1673ffffffffffffffffffffffffffffffffffffffff168152602001600382015481526020016004820160009054906101000a900460ff1660028111156112e1577f4e487b7100000000000000000000000000000000000000000000000000000000600052602160045260246000fd5b6002811115611319577f4e487b7100000000000000000000000000000000000000000000000000000000600052602160045260246000fd5b81525050905092915050565b600860009054906101000a900473ffffffffffffffffffffffffffffffffffffffff1673ffffffffffffffffffffffffffffffffffffffff16638da5cb5b6040518163ffffffff1660e01b815260040160206040518083038186803b15801561138d57600080fd5b505afa1580156113a1573d6000803e3d6000fd5b505050506040513d601f19601f820116820180604052508101906113c59190613a71565b73ffffffffffffffffffffffffffffffffffffffff163373ffffffffffffffffffffffffffffffffffffffff1614611432576040517f08c379a0000000000000000000000000000000000000000000000000000000008152600401611429906145d6565b60405180910390fd5b600960009054906101000a900473ffffffffffffffffffffffffffffffffffffffff1673ffffffffffffffffffffffffffffffffffffffff1663a9059cbb600860009054906101000a900473ffffffffffffffffffffffffffffffffffffffff1673ffffffffffffffffffffffffffffffffffffffff16638da5cb5b6040518163ffffffff1660e01b815260040160206040518083038186803b1580156114d857600080fd5b505afa1580156114ec573d6000803e3d6000fd5b505050506040513d601f19601f820116820180604052508101906115109190613a71565b836040518363ffffffff1660e01b815260040161152e9291906144c4565b602060405180830381600087803b15801561154857600080fd5b505af115801561155c573d6000803e3d6000fd5b505050506040513d601f19601f820116820180604052508101906115809190613b3d565b5050565b60015481565b6115926137e7565b600f6000838152602001908152602001600020604051806101600160405290816000820154815260200160018201548152602001600282015481526020016003820154815260200160048201548152602001600582015481526020016006820154815260200160078201548152602001600882015481526020016009820160009054906101000a900460ff166002811115611656577f4e487b7100000000000000000000000000000000000000000000000000000000600052602160045260246000fd5b600281111561168e577f4e487b7100000000000000000000000000000000000000000000000000000000600052602160045260246000fd5b8152602001600a82018054806020026020016040519081016040528092919081815260200182805480156116e157602002820191906000526020600020905b8154815260200190600101908083116116cd575b5050505050815250509050919050565b60075481565b6000601380549050905090565b600c60009054906101000a900460ff1681565b600080821161172a576005549050611748565b6005546005548361173b9190614ab2565b6117459190614ae3565b90505b919050565b60006117584261100e565b90506003546000548261176b9190614a2b565b6117759190614b3d565b4210156118ae576117a7600460009054906101000a900473ffffffffffffffffffffffffffffffffffffffff16612917565b8063ffffffff169050600f60008581526020019081526020016000206005016000600f60008781526020019081526020016000206007016000600f60008981526020019081526020016000206001016000869190505585919050558491905055505050600f600082815260200190815260200160002060050154600f600083815260200190815260200160002060070154600f600084815260200190815260200160002060010154600f60008581526020019081526020016000206006016000600f60008781526020019081526020016000206008016000600f6000898152602001908152602001600020600201600086919050558591905055849190505550505061195f565b600354600054826118bf9190614a2b565b6118c99190614b3d565b421061195e576118fa600460009054906101000a900473ffffffffffffffffffffffffffffffffffffffff16612917565b8063ffffffff169050600f60008581526020019081526020016000206006016000600f60008781526020019081526020016000206008016000600f600089815260200190815260200160002060020160008691905055859190505584919050555050505b5b7ff733bd7f4402cb7d331b34d5cd22f432b9bf71a833f786974545860d74976af281600f600084815260200190815260200160002060010154600f600085815260200190815260200160002060020154600f600086815260200190815260200160002060050154600f600087815260200190815260200160002060060154600f600088815260200190815260200160002060070154600f600089815260200190815260200160002060080154600f60008a815260200190815260200160002060030154604051611a3698979695949392919061484a565b60405180910390a150565b600f6020528060005260406000206000915090508060000154908060010154908060020154908060030154908060040154908060050154908060060154908060070154908060080154908060090160009054906101000a900460ff1690508a565b60116020528060005260406000206000915090508060000160009054906101000a900473ffffffffffffffffffffffffffffffffffffffff16908060010160009054906101000a900473ffffffffffffffffffffffffffffffffffffffff1690806002018054611b1190614d6e565b80601f0160208091040260200160405190810160405280929190818152602001828054611b3d90614d6e565b8015611b8a5780601f10611b5f57610100808354040283529160200191611b8a565b820191906000526020600020905b815481529060010190602001808311611b6d57829003601f168201915b5050505050905083565b6060600f6000838152602001908152602001600020600a01805480602002602001604051908101604052809291908181526020018280548015611bf657602002820191906000526020600020905b815481526020019060010190808311611be2575b50505050509050919050565b611c0b81612b72565b611c14816131c6565b50565b600e602052816000526040600020602052806000526040600020600091509150508060000154908060010154908060020160009054906101000a900473ffffffffffffffffffffffffffffffffffffffff16908060030154908060040160009054906101000a900460ff16905085565b6000611c92846125ac565b9050611c9e818361275c565b6000611caa82856127b4565b90503373ffffffffffffffffffffffffffffffffffffffff16600e6000848152602001908152602001600020600083815260200190815260200160002060020160009054906101000a900473ffffffffffffffffffffffffffffffffffffffff1673ffffffffffffffffffffffffffffffffffffffff1614611d61576040517f08c379a0000000000000000000000000000000000000000000000000000000008152600401611d5890614616565b60405180910390fd5b611d6a4261100e565b821015611dac576040517f08c379a0000000000000000000000000000000000000000000000000000000008152600401611da390614736565b60405180910390fd5b6000611db883856124f8565b90506000611ded84600e60008781526020019081526020016000206000868152602001908152602001600020600301546124f8565b905080821115611ffa578082611e039190614b3d565b600960009054906101000a900473ffffffffffffffffffffffffffffffffffffffff1673ffffffffffffffffffffffffffffffffffffffff1663dd62ed3e33306040518363ffffffff1660e01b8152600401611e60929190614426565b60206040518083038186803b158015611e7857600080fd5b505afa158015611e8c573d6000803e3d6000fd5b505050506040513d601f19601f82011682018060405250810190611eb09190613bde565b1015611ef1576040517f08c379a0000000000000000000000000000000000000000000000000000000008152600401611ee8906146d6565b60405180910390fd5b600960009054906101000a900473ffffffffffffffffffffffffffffffffffffffff1673ffffffffffffffffffffffffffffffffffffffff166323b872dd33308486611f3d9190614b3d565b6040518463ffffffff1660e01b8152600401611f5b9392919061448d565b602060405180830381600087803b158015611f7557600080fd5b505af1158015611f89573d6000803e3d6000fd5b505050506040513d601f19601f82011682018060405250810190611fad9190613b3d565b508082611fba9190614b3d565b600f600086815260200190815260200160002060030154611fdb9190614a2b565b600f600086815260200190815260200160002060030181905550612106565b8082101561210557600960009054906101000a900473ffffffffffffffffffffffffffffffffffffffff1673ffffffffffffffffffffffffffffffffffffffff1663a9059cbb33848461204d9190614b3d565b6040518363ffffffff1660e01b815260040161206a9291906144c4565b602060405180830381600087803b15801561208457600080fd5b505af1158015612098573d6000803e3d6000fd5b505050506040513d601f19601f820116820180604052508101906120bc9190613b3d565b5081816120c99190614b3d565b600f6000868152602001908152602001600020600301546120ea9190614b3d565b600f6000868152602001908152602001600020600301819055505b5b84600e600086815260200190815260200160002060008581526020019081526020016000206003018190555061213a61174d565b7f74c5c6f5cd4370cc0ab554a1afdb2b24b051b40c99102354ef424aed5cd6409d84600e6000878152602001908152602001600020600086815260200190815260200160002060405161218e9291906147ce565b60405180910390a150505050505050565b600860009054906101000a900473ffffffffffffffffffffffffffffffffffffffff1681565b600460009054906101000a900473ffffffffffffffffffffffffffffffffffffffff1681565b6001600f600084815260200190815260200160002060090160006101000a81548160ff0219169083600281111561224b577f4e487b7100000000000000000000000000000000000000000000000000000000600052602160045260246000fd5b021790555080600f6000848152602001908152602001600020600401819055505050565b601260003373ffffffffffffffffffffffffffffffffffffffff1673ffffffffffffffffffffffffffffffffffffffff16815260200190815260200160002060009054906101000a900460ff16156122fc576040517f08c379a00000000000000000000000000000000000000000000000000000000081526004016122f390614596565b60405180910390fd5b82601160008573ffffffffffffffffffffffffffffffffffffffff1673ffffffffffffffffffffffffffffffffffffffff16815260200190815260200160002060000160006101000a81548173ffffffffffffffffffffffffffffffffffffffff021916908373ffffffffffffffffffffffffffffffffffffffff16021790555081601160008573ffffffffffffffffffffffffffffffffffffffff1673ffffffffffffffffffffffffffffffffffffffff16815260200190815260200160002060010160006101000a81548173ffffffffffffffffffffffffffffffffffffffff021916908373ffffffffffffffffffffffffffffffffffffffff16021790555080601160008573ffffffffffffffffffffffffffffffffffffffff1673ffffffffffffffffffffffffffffffffffffffff1681526020019081526020016000206002019080519060200190612454929190613879565b506001601260003373ffffffffffffffffffffffffffffffffffffffff1673ffffffffffffffffffffffffffffffffffffffff16815260200190815260200160002060006101000a81548160ff021916908315150217905550505050565b60126020528060005260406000206000915054906101000a900460ff1681565b600960009054906101000a900473ffffffffffffffffffffffffffffffffffffffff1681565b600080600054620186a060075485600d546125139190614ae3565b61251d9190614ae3565b6125279190614ab2565b6125319190614ab2565b9050600d548142600054876125469190614a2b565b6125509190614b3d565b61255a9190614ae3565b6125649190614ab2565b91505092915050565b60005481565b6000600f600083815260200190815260200160002060090160009054906101000a900460ff169050919050565b600d5481565b60035481565b6000806125b88361100e565b9050600060028111156125f4577f4e487b7100000000000000000000000000000000000000000000000000000000600052602160045260246000fd5b600f600083815260200190815260200160002060090160009054906101000a900460ff166002811115612650577f4e487b7100000000000000000000000000000000000000000000000000000000600052602160045260246000fd5b1461265e5780915050612757565b6126674261100e565b8110156126a9576040517f08c379a00000000000000000000000000000000000000000000000000000000081526004016126a090614716565b60405180910390fd5b80600f6000838152602001908152602001600020600001819055506001600f600083815260200190815260200160002060090160006101000a81548160ff02191690836002811115612724577f4e487b7100000000000000000000000000000000000000000000000000000000600052602160045260246000fd5b02179055506013819080600181540180825580915050600190039060005260206000200160009091909190915055809150505b919050565b600061276883836124f8565b9050600b548110156127af576040517f08c379a00000000000000000000000000000000000000000000000000000000081526004016127a690614696565b60405180910390fd5b505050565b6000806127c083611717565b9050600060028111156127fc577f4e487b7100000000000000000000000000000000000000000000000000000000600052602160045260246000fd5b600e6000868152602001908152602001600020600083815260200190815260200160002060040160009054906101000a900460ff166002811115612869577f4e487b7100000000000000000000000000000000000000000000000000000000600052602160045260246000fd5b146128775780915050612911565b83600e600086815260200190815260200160002060008381526020019081526020016000206000018190555080600e6000868152602001908152602001600020600083815260200190815260200160002060010181905550600f6000858152602001908152602001600020600a01819080600181540180825580915050600190039060005260206000200160009091909190915055809150505b92915050565b600080600061292461363f565b90508373ffffffffffffffffffffffffffffffffffffffff16635909c0d56040518163ffffffff1660e01b815260040160206040518083038186803b15801561296c57600080fd5b505afa158015612980573d6000803e3d6000fd5b505050506040513d601f19601f820116820180604052508101906129a49190613bde565b92508373ffffffffffffffffffffffffffffffffffffffff16635a3d54936040518163ffffffff1660e01b815260040160206040518083038186803b1580156129ec57600080fd5b505afa158015612a00573d6000803e3d6000fd5b505050506040513d601f19601f82011682018060405250810190612a249190613bde565b915060008060008673ffffffffffffffffffffffffffffffffffffffff16630902f1ac6040518163ffffffff1660e01b815260040160606040518083038186803b158015612a7157600080fd5b505afa158015612a85573d6000803e3d6000fd5b505050506040513d601f19601f82011682018060405250810190612aa99190613b66565b9250925092508363ffffffff168163ffffffff1614612b685760008185612ad09190614b71565b90508063ffffffff16612ae38486613657565b600001517bffffffffffffffffffffffffffffffffffffffffffffffffffffffff16612b0f9190614ae3565b87612b1a9190614a2b565b96508063ffffffff16612b2d8585613657565b600001517bffffffffffffffffffffffffffffffffffffffffffffffffffffffff16612b599190614ae3565b86612b649190614a2b565b9550505b5050509193909250565b612b7b81611082565b4260005482612b8a9190614a2b565b1115612bcb576040517f08c379a0000000000000000000000000000000000000000000000000000000008152600401612bc2906145b6565b60405180910390fd5b6002600f600083815260200190815260200160002060090160006101000a81548160ff02191690836002811115612c2b577f4e487b7100000000000000000000000000000000000000000000000000000000600052602160045260246000fd5b02179055506000600860009054906101000a900473ffffffffffffffffffffffffffffffffffffffff1673ffffffffffffffffffffffffffffffffffffffff16638da5cb5b6040518163ffffffff1660e01b815260040160206040518083038186803b158015612c9a57600080fd5b505afa158015612cae573d6000803e3d6000fd5b505050506040513d601f19601f82011682018060405250810190612cd29190613a71565b90506000600f600084815260200190815260200160002060010154600f600085815260200190815260200160002060020154612d0e9190614b3d565b9050600c60009054906101000a900460ff1615612dcb57612d9c604051806020016040528083600f600088815260200190815260200160002060050154600f600089815260200190815260200160002060060154612d6c9190614b3d565b612d769190614ab2565b7bffffffffffffffffffffffffffffffffffffffffffffffffffffffff16815250613737565b6dffffffffffffffffffffffffffff16600f600085815260200190815260200160002060040181905550612e6d565b612e42604051806020016040528083600f600088815260200190815260200160002060070154600f600089815260200190815260200160002060080154612e129190614b3d565b612e1c9190614ab2565b7bffffffffffffffffffffffffffffffffffffffffffffffffffffffff16815250613737565b6dffffffffffffffffffffffffffff16600f6000858152602001908152602001600020600401819055505b600d54600f600085815260200190815260200160002060040154612e919190614ae3565b600f6000858152602001908152602001600020600401819055506000620186a0600654600f600087815260200190815260200160002060030154612ed59190614ae3565b612edf9190614ab2565b90506000620186a0600254600f600088815260200190815260200160002060030154612f0b9190614ae3565b612f159190614ab2565b90508082600f600088815260200190815260200160002060030154612f3a9190614b3d565b612f449190614b3d565b600f600087815260200190815260200160002060030181905550600960009054906101000a900473ffffffffffffffffffffffffffffffffffffffff1673ffffffffffffffffffffffffffffffffffffffff1663a9059cbb600a60009054906101000a900473ffffffffffffffffffffffffffffffffffffffff16846040518363ffffffff1660e01b8152600401612fdd9291906144c4565b602060405180830381600087803b158015612ff757600080fd5b505af115801561300b573d6000803e3d6000fd5b505050506040513d601f19601f8201168201806040525081019061302f9190613b3d565b50600960009054906101000a900473ffffffffffffffffffffffffffffffffffffffff1673ffffffffffffffffffffffffffffffffffffffff1663a9059cbb85836040518363ffffffff1660e01b815260040161308d9291906144c4565b602060405180830381600087803b1580156130a757600080fd5b505af11580156130bb573d6000803e3d6000fd5b505050506040513d601f19601f820116820180604052508101906130df9190613b3d565b507ff733bd7f4402cb7d331b34d5cd22f432b9bf71a833f786974545860d74976af285600f600088815260200190815260200160002060010154600f600089815260200190815260200160002060020154600f60008a815260200190815260200160002060050154600f60008b815260200190815260200160002060060154600f60008c815260200190815260200160002060070154600f60008d815260200190815260200160002060080154600f60008e8152602001908152602001600020600301546040516131b798979695949392919061484a565b60405180910390a15050505050565b6002808111156131ff577f4e487b7100000000000000000000000000000000000000000000000000000000600052602160045260246000fd5b600f600083815260200190815260200160002060090160009054906101000a900460ff16600281111561325b577f4e487b7100000000000000000000000000000000000000000000000000000000600052602160045260246000fd5b1461329b576040517f08c379a0000000000000000000000000000000000000000000000000000000008152600401613292906146f6565b60405180910390fd5b60006132bc600f600084815260200190815260200160002060040154611717565b90506002808111156132f7577f4e487b7100000000000000000000000000000000000000000000000000000000600052602160045260246000fd5b600e6000848152602001908152602001600020600083815260200190815260200160002060040160009054906101000a900460ff166002811115613364577f4e487b7100000000000000000000000000000000000000000000000000000000600052602160045260246000fd5b14156133a5576040517f08c379a000000000000000000000000000000000000000000000000000000000815260040161339c90614676565b60405180910390fd5b600073ffffffffffffffffffffffffffffffffffffffff16600e6000848152602001908152602001600020600083815260200190815260200160002060020160009054906101000a900473ffffffffffffffffffffffffffffffffffffffff1673ffffffffffffffffffffffffffffffffffffffff16141561345c576040517f08c379a000000000000000000000000000000000000000000000000000000000815260040161345390614636565b60405180910390fd5b600960009054906101000a900473ffffffffffffffffffffffffffffffffffffffff1673ffffffffffffffffffffffffffffffffffffffff1663a9059cbb600e6000858152602001908152602001600020600084815260200190815260200160002060020160009054906101000a900473ffffffffffffffffffffffffffffffffffffffff16600f6000868152602001908152602001600020600301546040518363ffffffff1660e01b81526004016135169291906144c4565b602060405180830381600087803b15801561353057600080fd5b505af1158015613544573d6000803e3d6000fd5b505050506040513d601f19601f820116820180604052508101906135689190613b3d565b506002600e6000848152602001908152602001600020600083815260200190815260200160002060040160006101000a81548160ff021916908360028111156135da577f4e487b7100000000000000000000000000000000000000000000000000000000600052602160045260246000fd5b02179055507f74c5c6f5cd4370cc0ab554a1afdb2b24b051b40c99102354ef424aed5cd6409d82600e600085815260200190815260200160002060008481526020019081526020016000206040516136339291906147ce565b60405180910390a15050565b6000640100000000426136529190614dee565b905090565b61365f6138ff565b6000826dffffffffffffffffffffffffffff16116136b2576040517f08c379a00000000000000000000000000000000000000000000000000000000081526004016136a990614756565b60405180910390fd5b6040518060200160405280836dffffffffffffffffffffffffffff16607060ff16866dffffffffffffffffffffffffffff167bffffffffffffffffffffffffffffffffffffffffffffffffffffffff16901b61370e9190614a81565b7bffffffffffffffffffffffffffffffffffffffffffffffffffffffff16815250905092915050565b6000607060ff1682600001517bffffffffffffffffffffffffffffffffffffffffffffffffffffffff16901c9050919050565b6040518060a001604052806000815260200160008152602001600073ffffffffffffffffffffffffffffffffffffffff16815260200160008152602001600060028111156137e1577f4e487b7100000000000000000000000000000000000000000000000000000000600052602160045260246000fd5b81525090565b6040518061016001604052806000815260200160008152602001600081526020016000815260200160008152602001600081526020016000815260200160008152602001600081526020016000600281111561386c577f4e487b7100000000000000000000000000000000000000000000000000000000600052602160045260246000fd5b8152602001606081525090565b82805461388590614d6e565b90600052602060002090601f0160209004810192826138a757600085556138ee565b82601f106138c057805160ff19168380011785556138ee565b828001600101855582156138ee579182015b828111156138ed5782518255916020019190600101906138d2565b5b5090506138fb9190613930565b5090565b604051806020016040528060007bffffffffffffffffffffffffffffffffffffffffffffffffffffffff1681525090565b5b80821115613949576000816000905550600101613931565b5090565b600061396061395b84614995565b614964565b90508281526020810184848401111561397857600080fd5b613983848285614d2c565b509392505050565b60008135905061399a81614f50565b92915050565b6000815190506139af81614f50565b92915050565b6000815190506139c481614f67565b92915050565b600082601f8301126139db57600080fd5b81356139eb84826020860161394d565b91505092915050565b600081519050613a0381614f7e565b92915050565b600081359050613a1881614f95565b92915050565b600081519050613a2d81614f95565b92915050565b600081519050613a4281614fac565b92915050565b600060208284031215613a5a57600080fd5b6000613a688482850161398b565b91505092915050565b600060208284031215613a8357600080fd5b6000613a91848285016139a0565b91505092915050565b600080600060608486031215613aaf57600080fd5b6000613abd8682870161398b565b9350506020613ace8682870161398b565b925050604084013567ffffffffffffffff811115613aeb57600080fd5b613af7868287016139ca565b9150509250925092565b60008060408385031215613b1457600080fd5b6000613b228582860161398b565b9250506020613b3385828601613a09565b9150509250929050565b600060208284031215613b4f57600080fd5b6000613b5d848285016139b5565b91505092915050565b600080600060608486031215613b7b57600080fd5b6000613b89868287016139f4565b9350506020613b9a868287016139f4565b9250506040613bab86828701613a33565b9150509250925092565b600060208284031215613bc757600080fd5b6000613bd584828501613a09565b91505092915050565b600060208284031215613bf057600080fd5b6000613bfe84828501613a1e565b91505092915050565b60008060408385031215613c1a57600080fd5b6000613c2885828601613a09565b9250506020613c3985828601613a09565b9150509250929050565b600080600060608486031215613c5857600080fd5b6000613c6686828701613a09565b9350506020613c7786828701613a09565b9250506040613c8886828701613a09565b9150509250925092565b6000613c9e83836143ed565b60208301905092915050565b613cb381614bdc565b82525050565b613cc281614bdc565b82525050565b6000613cd3826149d5565b613cdd81856149f8565b9350613ce8836149c5565b8060005b83811015613d19578151613d008882613c92565b9750613d0b836149eb565b925050600181019050613cec565b5085935050505092915050565b6000613d31826149d5565b613d3b8185614a09565b9350613d46836149c5565b8060005b83811015613d77578151613d5e8882613c92565b9750613d69836149eb565b925050600181019050613d4a565b5085935050505092915050565b613d8d81614bee565b82525050565b613d9c81614c9c565b82525050565b613dab81614cc0565b82525050565b613dba81614ce4565b82525050565b613dc981614d08565b82525050565b613dd881614d08565b82525050565b613de781614d1a565b82525050565b613df681614d1a565b82525050565b6000613e07826149e0565b613e118185614a1a565b9350613e21818560208601614d3b565b613e2a81614f0a565b840191505092915050565b6000613e42601983614a1a565b91507f594f5520414c524541445920424f554748542041204c4f542e000000000000006000830152602082019050919050565b6000613e82601a83614a1a565b91507f4652414d4520454e442054494d45204e4f5420524541434845440000000000006000830152602082019050919050565b6000613ec2601583614a1a565b91507f4e4f542054484520464143544f5259204f574e455200000000000000000000006000830152602082019050919050565b6000613f02600b83614a1a565b91507f4c4f5420494e20504153540000000000000000000000000000000000000000006000830152602082019050919050565b6000613f42600d83614a1a565b91507f4e4f54204c4f54204f574e4552000000000000000000000000000000000000006000830152602082019050919050565b6000613f82600883614a1a565b91507f4e4f204f574e45520000000000000000000000000000000000000000000000006000830152602082019050919050565b6000613fc2601383614a1a565b91507f494e56414c4944204652414d45205052494345000000000000000000000000006000830152602082019050919050565b6000614002601383614a1a565b91507f4c4f5420414c524541445920534554544c4544000000000000000000000000006000830152602082019050919050565b6000614042601083614a1a565b91507f505249434520495320544f4f204c4f57000000000000000000000000000000006000830152602082019050919050565b6000614082600d83614a1a565b91507f414c5245414459204f574e4552000000000000000000000000000000000000006000830152602082019050919050565b60006140c2601983614a1a565b91507f415050524f56454420414d4f554e5420544f4f20534d414c4c000000000000006000830152602082019050919050565b6000614102601083614a1a565b91507f4652414d45204e4f5420434c4f534544000000000000000000000000000000006000830152602082019050919050565b6000614142600d83614a1a565b91507f4652414d4520494e2050415354000000000000000000000000000000000000006000830152602082019050919050565b6000614182601183614a1a565b91507f4c4f5420494e2050415354204652414d450000000000000000000000000000006000830152602082019050919050565b60006141c2601783614a1a565b91507f4669786564506f696e743a204449565f42595f5a45524f0000000000000000006000830152602082019050919050565b60006101608301600083015161420e60008601826143ed565b50602083015161422160208601826143ed565b50604083015161423460408601826143ed565b50606083015161424760608601826143ed565b50608083015161425a60808601826143ed565b5060a083015161426d60a08601826143ed565b5060c083015161428060c08601826143ed565b5060e083015161429360e08601826143ed565b506101008301516142a86101008601826143ed565b506101208301516142bd610120860182613dc0565b506101408301518482036101408601526142d78282613cc8565b9150508091505092915050565b60a0820160008201516142fa60008501826143ed565b50602082015161430d60208501826143ed565b5060408201516143206040850182613caa565b50606082015161433360608501826143ed565b5060808201516143466080850182613dde565b50505050565b60a08201600080830154905061436181614dd4565b61436e60008601826143ed565b506001830154905061437f81614dd4565b61438c60208601826143ed565b506002830154905061439d81614da0565b6143aa6040860182613caa565b50600383015490506143bb81614dd4565b6143c860608601826143ed565b50600483015490506143d981614dba565b6143e66080860182613dde565b5050505050565b6143f681614c82565b82525050565b61440581614c82565b82525050565b60006020820190506144206000830184613cb9565b92915050565b600060408201905061443b6000830185613cb9565b6144486020830184613cb9565b9392505050565b60006060820190506144646000830186613cb9565b6144716020830185613cb9565b81810360408301526144838184613dfc565b9050949350505050565b60006060820190506144a26000830186613cb9565b6144af6020830185613cb9565b6144bc60408301846143fc565b949350505050565b60006040820190506144d96000830185613cb9565b6144e660208301846143fc565b9392505050565b600060208201905081810360008301526145078184613d26565b905092915050565b60006020820190506145246000830184613d84565b92915050565b600060208201905061453f6000830184613d93565b92915050565b600060208201905061455a6000830184613da2565b92915050565b60006020820190506145756000830184613db1565b92915050565b60006020820190506145906000830184613dcf565b92915050565b600060208201905081810360008301526145af81613e35565b9050919050565b600060208201905081810360008301526145cf81613e75565b9050919050565b600060208201905081810360008301526145ef81613eb5565b9050919050565b6000602082019050818103600083015261460f81613ef5565b9050919050565b6000602082019050818103600083015261462f81613f35565b9050919050565b6000602082019050818103600083015261464f81613f75565b9050919050565b6000602082019050818103600083015261466f81613fb5565b9050919050565b6000602082019050818103600083015261468f81613ff5565b9050919050565b600060208201905081810360008301526146af81614035565b9050919050565b600060208201905081810360008301526146cf81614075565b9050919050565b600060208201905081810360008301526146ef816140b5565b9050919050565b6000602082019050818103600083015261470f816140f5565b9050919050565b6000602082019050818103600083015261472f81614135565b9050919050565b6000602082019050818103600083015261474f81614175565b9050919050565b6000602082019050818103600083015261476f816141b5565b9050919050565b6000602082019050818103600083015261479081846141f5565b905092915050565b600060a0820190506147ad60008301846142e4565b92915050565b60006020820190506147c860008301846143fc565b92915050565b600060c0820190506147e360008301856143fc565b6147f0602083018461434c565b9392505050565b600060a08201905061480c60008301886143fc565b61481960208301876143fc565b6148266040830186613cb9565b61483360608301856143fc565b6148406080830184613ded565b9695505050505050565b600061010082019050614860600083018b6143fc565b61486d602083018a6143fc565b61487a60408301896143fc565b61488760608301886143fc565b61489460808301876143fc565b6148a160a08301866143fc565b6148ae60c08301856143fc565b6148bb60e08301846143fc565b9998505050505050505050565b6000610140820190506148de600083018d6143fc565b6148eb602083018c6143fc565b6148f8604083018b6143fc565b614905606083018a6143fc565b61491260808301896143fc565b61491f60a08301886143fc565b61492c60c08301876143fc565b61493960e08301866143fc565b6149476101008301856143fc565b614955610120830184613dcf565b9b9a5050505050505050505050565b6000604051905081810181811067ffffffffffffffff8211171561498b5761498a614edb565b5b8060405250919050565b600067ffffffffffffffff8211156149b0576149af614edb565b5b601f19601f8301169050602081019050919050565b6000819050602082019050919050565b600081519050919050565b600081519050919050565b6000602082019050919050565b600082825260208201905092915050565b600082825260208201905092915050565b600082825260208201905092915050565b6000614a3682614c82565b9150614a4183614c82565b9250827fffffffffffffffffffffffffffffffffffffffffffffffffffffffffffffffff03821115614a7657614a75614e1f565b5b828201905092915050565b6000614a8c82614c5a565b9150614a9783614c5a565b925082614aa757614aa6614e4e565b5b828204905092915050565b6000614abd82614c82565b9150614ac883614c82565b925082614ad857614ad7614e4e565b5b828204905092915050565b6000614aee82614c82565b9150614af983614c82565b9250817fffffffffffffffffffffffffffffffffffffffffffffffffffffffffffffffff0483118215151615614b3257614b31614e1f565b5b828202905092915050565b6000614b4882614c82565b9150614b5383614c82565b925082821015614b6657614b65614e1f565b5b828203905092915050565b6000614b7c82614c8c565b9150614b8783614c8c565b925082821015614b9a57614b99614e1f565b5b828203905092915050565b600073ffffffffffffffffffffffffffffffffffffffff82169050919050565b600060ff82169050919050565b6000819050919050565b6000614be782614c3a565b9050919050565b60008115159050919050565b6000819050614c0882614f28565b919050565b6000819050614c1b82614f3c565b919050565b60006dffffffffffffffffffffffffffff82169050919050565b600073ffffffffffffffffffffffffffffffffffffffff82169050919050565b60007bffffffffffffffffffffffffffffffffffffffffffffffffffffffff82169050919050565b6000819050919050565b600063ffffffff82169050919050565b6000614ca782614cae565b9050919050565b6000614cb982614c3a565b9050919050565b6000614ccb82614cd2565b9050919050565b6000614cdd82614c3a565b9050919050565b6000614cef82614cf6565b9050919050565b6000614d0182614c3a565b9050919050565b6000614d1382614bfa565b9050919050565b6000614d2582614c0d565b9050919050565b82818337600083830152505050565b60005b83811015614d59578082015181840152602081019050614d3e565b83811115614d68576000848401525b50505050565b60006002820490506001821680614d8657607f821691505b60208210811415614d9a57614d99614eac565b5b50919050565b6000614db3614dae83614f1b565b614ba5565b9050919050565b6000614dcd614dc883614f1b565b614bc5565b9050919050565b6000614de7614de283614f1b565b614bd2565b9050919050565b6000614df982614c82565b9150614e0483614c82565b925082614e1457614e13614e4e565b5b828206905092915050565b7f4e487b7100000000000000000000000000000000000000000000000000000000600052601160045260246000fd5b7f4e487b7100000000000000000000000000000000000000000000000000000000600052601260045260246000fd5b7f4e487b7100000000000000000000000000000000000000000000000000000000600052602160045260246000fd5b7f4e487b7100000000000000000000000000000000000000000000000000000000600052602260045260246000fd5b7f4e487b7100000000000000000000000000000000000000000000000000000000600052604160045260246000fd5b6000601f19601f8301169050919050565b60008160001c9050919050565b60038110614f3957614f38614e7d565b5b50565b60038110614f4d57614f4c614e7d565b5b50565b614f5981614bdc565b8114614f6457600080fd5b50565b614f7081614bee565b8114614f7b57600080fd5b50565b614f8781614c20565b8114614f9257600080fd5b50565b614f9e81614c82565b8114614fa957600080fd5b50565b614fb581614c8c565b8114614fc057600080fd5b5056fea2646970667358221220b1fea60dafdec2373dc1351e3300f99ae2756e6e9a57109059948158ea99641164736f6c63430008000033",
  "linkReferences": {},
  "deployedLinkReferences": {}
}