{
  "_format": "hh-sol-artifact-1",
  "contractName": "Market",
  "sourceName": "contracts/Market.sol",
  "abi": [
    {
      "inputs": [],
      "stateMutability": "nonpayable",
      "type": "constructor"
    },
    {
      "anonymous": false,
      "inputs": [
        {
          "components": [
            {
              "internalType": "uint256",
              "name": "frameKey",
              "type": "uint256"
            },
            {
              "internalType": "uint256",
              "name": "rate",
              "type": "uint256"
            },
            {
              "internalType": "uint256[]",
              "name": "lotKeys",
              "type": "uint256[]"
            },
            {
              "internalType": "address",
              "name": "claimedBy",
              "type": "address"
            },
            {
              "internalType": "uint256",
              "name": "rateSettle",
              "type": "uint256"
            },
            {
              "internalType": "uint256",
              "name": "feeSettle",
              "type": "uint256"
            },
            {
              "internalType": "uint256",
              "name": "rewardSettle",
              "type": "uint256"
            },
            {
              "internalType": "uint256",
              "name": "feeReferral",
              "type": "uint256"
            }
          ],
          "indexed": false,
          "internalType": "struct Market.Frame",
          "name": "frame",
          "type": "tuple"
        }
      ],
      "name": "FrameUpdate",
      "type": "event"
    },
    {
      "anonymous": false,
      "inputs": [
        {
          "components": [
            {
              "internalType": "uint256",
              "name": "frameKey",
              "type": "uint256"
            },
            {
              "internalType": "uint256",
              "name": "lotKey",
              "type": "uint256"
            },
            {
              "components": [
                {
                  "internalType": "uint256",
                  "name": "blockNumber",
                  "type": "uint256"
                },
                {
                  "internalType": "uint256",
                  "name": "blockTimestamp",
                  "type": "uint256"
                },
                {
                  "internalType": "address",
                  "name": "owner",
                  "type": "address"
                },
                {
                  "internalType": "uint256",
                  "name": "acquisitionPrice",
                  "type": "uint256"
                },
                {
                  "internalType": "uint256",
                  "name": "taxCharged",
                  "type": "uint256"
                },
                {
                  "internalType": "uint256",
                  "name": "taxRefunded",
                  "type": "uint256"
                }
              ],
              "internalType": "struct Market.LotState[]",
              "name": "states",
              "type": "tuple[]"
            }
          ],
          "indexed": false,
          "internalType": "struct Market.Lot",
          "name": "lot",
          "type": "tuple"
        }
      ],
      "name": "LotUpdate",
      "type": "event"
    },
    {
      "inputs": [],
      "name": "accountingToken",
      "outputs": [
        {
          "internalType": "contract IERC20",
          "name": "",
          "type": "address"
        }
      ],
      "stateMutability": "view",
      "type": "function"
    },
    {
      "inputs": [],
      "name": "claimReferralRewards",
      "outputs": [],
      "stateMutability": "nonpayable",
      "type": "function"
    },
    {
      "inputs": [
        {
          "internalType": "uint256",
          "name": "timestamp",
          "type": "uint256"
        }
      ],
      "name": "clcFrameKey",
      "outputs": [
        {
          "internalType": "uint256",
          "name": "",
          "type": "uint256"
        }
      ],
      "stateMutability": "view",
      "type": "function"
    },
    {
      "inputs": [
        {
          "internalType": "uint256",
          "name": "value",
          "type": "uint256"
        }
      ],
      "name": "clcLotKey",
      "outputs": [
        {
          "internalType": "uint256",
          "name": "",
          "type": "uint256"
        }
      ],
      "stateMutability": "view",
      "type": "function"
    },
    {
      "inputs": [],
      "name": "clcRate",
      "outputs": [
        {
          "internalType": "uint256",
          "name": "",
          "type": "uint256"
        }
      ],
      "stateMutability": "view",
      "type": "function"
    },
    {
      "inputs": [
        {
          "internalType": "uint256",
          "name": "timestamp",
          "type": "uint256"
        }
      ],
      "name": "clcRateAvg",
      "outputs": [
        {
          "internalType": "uint256",
          "name": "",
          "type": "uint256"
        }
      ],
      "stateMutability": "view",
      "type": "function"
    },
    {
      "inputs": [
        {
          "internalType": "uint256",
          "name": "frameKey",
          "type": "uint256"
        }
      ],
      "name": "clcRewardFund",
      "outputs": [
        {
          "internalType": "uint256",
          "name": "",
          "type": "uint256"
        }
      ],
      "stateMutability": "view",
      "type": "function"
    },
    {
      "inputs": [
        {
          "internalType": "uint256",
          "name": "frameKey",
          "type": "uint256"
        },
        {
          "internalType": "uint256",
          "name": "acquisitionPrice",
          "type": "uint256"
        }
      ],
      "name": "clcTax",
      "outputs": [
        {
          "internalType": "uint256",
          "name": "",
          "type": "uint256"
        }
      ],
      "stateMutability": "view",
      "type": "function"
    },
    {
      "inputs": [
        {
          "internalType": "uint256",
          "name": "frameKey",
          "type": "uint256"
        },
        {
          "internalType": "uint256",
          "name": "lotKey",
          "type": "uint256"
        }
      ],
      "name": "concatenate",
      "outputs": [
        {
          "internalType": "uint256",
          "name": "concatenated",
          "type": "uint256"
        }
      ],
      "stateMutability": "pure",
      "type": "function"
    },
    {
      "inputs": [],
      "name": "dPrice",
      "outputs": [
        {
          "internalType": "uint256",
          "name": "",
          "type": "uint256"
        }
      ],
      "stateMutability": "view",
      "type": "function"
    },
    {
      "inputs": [],
      "name": "feeProtocol",
      "outputs": [
        {
          "internalType": "uint256",
          "name": "",
          "type": "uint256"
        }
      ],
      "stateMutability": "view",
      "type": "function"
    },
    {
      "inputs": [
        {
          "internalType": "uint256",
          "name": "",
          "type": "uint256"
        }
      ],
      "name": "frames",
      "outputs": [
        {
          "internalType": "uint256",
          "name": "frameKey",
          "type": "uint256"
        },
        {
          "internalType": "uint256",
          "name": "rate",
          "type": "uint256"
        },
        {
          "internalType": "address",
          "name": "claimedBy",
          "type": "address"
        },
        {
          "internalType": "uint256",
          "name": "rateSettle",
          "type": "uint256"
        },
        {
          "internalType": "uint256",
          "name": "feeSettle",
          "type": "uint256"
        },
        {
          "internalType": "uint256",
          "name": "rewardSettle",
          "type": "uint256"
        },
        {
          "internalType": "uint256",
          "name": "feeReferral",
          "type": "uint256"
        }
      ],
      "stateMutability": "view",
      "type": "function"
    },
    {
      "inputs": [
        {
          "internalType": "uint256",
          "name": "",
          "type": "uint256"
        }
      ],
      "name": "framesKeys",
      "outputs": [
        {
          "internalType": "uint256",
          "name": "",
          "type": "uint256"
        }
      ],
      "stateMutability": "view",
      "type": "function"
    },
    {
      "inputs": [
        {
          "internalType": "uint256",
          "name": "frameKey",
          "type": "uint256"
        }
      ],
      "name": "getFrame",
      "outputs": [
        {
          "components": [
            {
              "internalType": "uint256",
              "name": "frameKey",
              "type": "uint256"
            },
            {
              "internalType": "uint256",
              "name": "rate",
              "type": "uint256"
            },
            {
              "internalType": "uint256[]",
              "name": "lotKeys",
              "type": "uint256[]"
            },
            {
              "internalType": "address",
              "name": "claimedBy",
              "type": "address"
            },
            {
              "internalType": "uint256",
              "name": "rateSettle",
              "type": "uint256"
            },
            {
              "internalType": "uint256",
              "name": "feeSettle",
              "type": "uint256"
            },
            {
              "internalType": "uint256",
              "name": "rewardSettle",
              "type": "uint256"
            },
            {
              "internalType": "uint256",
              "name": "feeReferral",
              "type": "uint256"
            }
          ],
          "internalType": "struct Market.Frame",
          "name": "",
          "type": "tuple"
        }
      ],
      "stateMutability": "view",
      "type": "function"
    },
    {
      "inputs": [
        {
          "internalType": "uint256",
          "name": "frameKey",
          "type": "uint256"
        }
      ],
      "name": "getFrameLotKeys",
      "outputs": [
        {
          "internalType": "uint256[]",
          "name": "",
          "type": "uint256[]"
        }
      ],
      "stateMutability": "view",
      "type": "function"
    },
    {
      "inputs": [],
      "name": "getFramesLength",
      "outputs": [
        {
          "internalType": "uint256",
          "name": "",
          "type": "uint256"
        }
      ],
      "stateMutability": "view",
      "type": "function"
    },
    {
      "inputs": [
        {
          "internalType": "uint256",
          "name": "frameKey",
          "type": "uint256"
        },
        {
          "internalType": "uint256",
          "name": "lotKey",
          "type": "uint256"
        }
      ],
      "name": "getLot",
      "outputs": [
        {
          "components": [
            {
              "internalType": "uint256",
              "name": "frameKey",
              "type": "uint256"
            },
            {
              "internalType": "uint256",
              "name": "lotKey",
              "type": "uint256"
            },
            {
              "components": [
                {
                  "internalType": "uint256",
                  "name": "blockNumber",
                  "type": "uint256"
                },
                {
                  "internalType": "uint256",
                  "name": "blockTimestamp",
                  "type": "uint256"
                },
                {
                  "internalType": "address",
                  "name": "owner",
                  "type": "address"
                },
                {
                  "internalType": "uint256",
                  "name": "acquisitionPrice",
                  "type": "uint256"
                },
                {
                  "internalType": "uint256",
                  "name": "taxCharged",
                  "type": "uint256"
                },
                {
                  "internalType": "uint256",
                  "name": "taxRefunded",
                  "type": "uint256"
                }
              ],
              "internalType": "struct Market.LotState[]",
              "name": "states",
              "type": "tuple[]"
            }
          ],
          "internalType": "struct Market.Lot",
          "name": "",
          "type": "tuple"
        }
      ],
      "stateMutability": "view",
      "type": "function"
    },
    {
      "inputs": [
        {
          "internalType": "uint256",
          "name": "frameKey",
          "type": "uint256"
        },
        {
          "internalType": "uint256",
          "name": "lotKey",
          "type": "uint256"
        }
      ],
      "name": "getLotStates",
      "outputs": [
        {
          "components": [
            {
              "internalType": "uint256",
              "name": "blockNumber",
              "type": "uint256"
            },
            {
              "internalType": "uint256",
              "name": "blockTimestamp",
              "type": "uint256"
            },
            {
              "internalType": "address",
              "name": "owner",
              "type": "address"
            },
            {
              "internalType": "uint256",
              "name": "acquisitionPrice",
              "type": "uint256"
            },
            {
              "internalType": "uint256",
              "name": "taxCharged",
              "type": "uint256"
            },
            {
              "internalType": "uint256",
              "name": "taxRefunded",
              "type": "uint256"
            }
          ],
          "internalType": "struct Market.LotState[]",
          "name": "",
          "type": "tuple[]"
        }
      ],
      "stateMutability": "view",
      "type": "function"
    },
    {
      "inputs": [],
      "name": "getLotsArray",
      "outputs": [
        {
          "internalType": "uint256[]",
          "name": "",
          "type": "uint256[]"
        }
      ],
      "stateMutability": "view",
      "type": "function"
    },
    {
      "inputs": [],
      "name": "getLotsArrayLength",
      "outputs": [
        {
          "internalType": "uint256",
          "name": "",
          "type": "uint256"
        }
      ],
      "stateMutability": "view",
      "type": "function"
    },
    {
      "inputs": [
        {
          "internalType": "uint256",
          "name": "frameKey",
          "type": "uint256"
        }
      ],
      "name": "getLotsKeysInFrame",
      "outputs": [
        {
          "internalType": "uint256[]",
          "name": "",
          "type": "uint256[]"
        }
      ],
      "stateMutability": "view",
      "type": "function"
    },
    {
      "inputs": [
        {
          "internalType": "uint256",
          "name": "frameKey",
          "type": "uint256"
        }
      ],
      "name": "getLotsLength",
      "outputs": [
        {
          "internalType": "uint256",
          "name": "",
          "type": "uint256"
        }
      ],
      "stateMutability": "view",
      "type": "function"
    },
    {
      "inputs": [
        {
          "internalType": "uint256",
          "name": "frameKey",
          "type": "uint256"
        }
      ],
      "name": "getStateFrame",
      "outputs": [
        {
          "internalType": "enum Market.SFrame",
          "name": "",
          "type": "uint8"
        }
      ],
      "stateMutability": "view",
      "type": "function"
    },
    {
      "inputs": [
        {
          "internalType": "uint256",
          "name": "frameKey",
          "type": "uint256"
        },
        {
          "internalType": "uint256",
          "name": "lotKey",
          "type": "uint256"
        }
      ],
      "name": "getStateLot",
      "outputs": [
        {
          "internalType": "enum Market.SLot",
          "name": "",
          "type": "uint8"
        }
      ],
      "stateMutability": "view",
      "type": "function"
    },
    {
      "inputs": [
        {
          "internalType": "address",
          "name": "userAddr",
          "type": "address"
        }
      ],
      "name": "getUncollectedRewards",
      "outputs": [
        {
          "internalType": "uint256",
          "name": "",
          "type": "uint256"
        }
      ],
      "stateMutability": "view",
      "type": "function"
    },
    {
      "inputs": [
        {
          "internalType": "address",
          "name": "user",
          "type": "address"
        },
        {
          "internalType": "uint256",
          "name": "frameKey",
          "type": "uint256"
        }
      ],
      "name": "getUserReward",
      "outputs": [
        {
          "internalType": "uint256",
          "name": "",
          "type": "uint256"
        }
      ],
      "stateMutability": "view",
      "type": "function"
    },
    {
      "inputs": [],
      "name": "getUsersArray",
      "outputs": [
        {
          "internalType": "address[]",
          "name": "",
          "type": "address[]"
        }
      ],
      "stateMutability": "view",
      "type": "function"
    },
    {
      "inputs": [],
      "name": "getUsersArrayLength",
      "outputs": [
        {
          "internalType": "uint256",
          "name": "",
          "type": "uint256"
        }
      ],
      "stateMutability": "view",
      "type": "function"
    },
    {
      "inputs": [
        {
          "internalType": "address",
          "name": "user",
          "type": "address"
        }
      ],
      "name": "getUsersRewardArrays",
      "outputs": [
        {
          "internalType": "uint256[]",
          "name": "rewards",
          "type": "uint256[]"
        },
        {
          "internalType": "uint256[]",
          "name": "collected",
          "type": "uint256[]"
        }
      ],
      "stateMutability": "view",
      "type": "function"
    },
    {
      "inputs": [],
      "name": "initTimestamp",
      "outputs": [
        {
          "internalType": "uint256",
          "name": "",
          "type": "uint256"
        }
      ],
      "stateMutability": "view",
      "type": "function"
    },
    {
      "inputs": [
        {
          "internalType": "uint256",
          "name": "",
          "type": "uint256"
        },
        {
          "internalType": "uint256",
          "name": "",
          "type": "uint256"
        }
      ],
      "name": "lots",
      "outputs": [
        {
          "internalType": "uint256",
          "name": "frameKey",
          "type": "uint256"
        },
        {
          "internalType": "uint256",
          "name": "lotKey",
          "type": "uint256"
        }
      ],
      "stateMutability": "view",
      "type": "function"
    },
    {
      "inputs": [
        {
          "internalType": "uint256",
          "name": "",
          "type": "uint256"
        }
      ],
      "name": "lotsArray",
      "outputs": [
        {
          "internalType": "uint256",
          "name": "",
          "type": "uint256"
        }
      ],
      "stateMutability": "view",
      "type": "function"
    },
    {
      "inputs": [
        {
          "components": [
            {
              "internalType": "uint256",
              "name": "frameKey",
              "type": "uint256"
            },
            {
              "internalType": "uint256",
              "name": "rate",
              "type": "uint256"
            },
            {
              "internalType": "uint256[]",
              "name": "lotKeys",
              "type": "uint256[]"
            },
            {
              "internalType": "address",
              "name": "claimedBy",
              "type": "address"
            },
            {
              "internalType": "uint256",
              "name": "rateSettle",
              "type": "uint256"
            },
            {
              "internalType": "uint256",
              "name": "feeSettle",
              "type": "uint256"
            },
            {
              "internalType": "uint256",
              "name": "rewardSettle",
              "type": "uint256"
            },
            {
              "internalType": "uint256",
              "name": "feeReferral",
              "type": "uint256"
            }
          ],
          "internalType": "struct Market.Frame",
          "name": "frame",
          "type": "tuple"
        },
        {
          "internalType": "uint256",
          "name": "avgPrice",
          "type": "uint256"
        }
      ],
      "name": "overrideFrameRate",
      "outputs": [],
      "stateMutability": "nonpayable",
      "type": "function"
    },
    {
      "inputs": [],
      "name": "owner",
      "outputs": [
        {
          "internalType": "address",
          "name": "",
          "type": "address"
        }
      ],
      "stateMutability": "view",
      "type": "function"
    },
    {
      "inputs": [],
      "name": "period",
      "outputs": [
        {
          "internalType": "uint256",
          "name": "",
          "type": "uint256"
        }
      ],
      "stateMutability": "view",
      "type": "function"
    },
    {
      "inputs": [],
      "name": "referralPct",
      "outputs": [
        {
          "internalType": "uint256",
          "name": "",
          "type": "uint256"
        }
      ],
      "stateMutability": "view",
      "type": "function"
    },
    {
      "inputs": [
        {
          "internalType": "address",
          "name": "user",
          "type": "address"
        }
      ],
      "name": "referredBy",
      "outputs": [
        {
          "internalType": "address",
          "name": "",
          "type": "address"
        }
      ],
      "stateMutability": "view",
      "type": "function"
    },
    {
      "inputs": [
        {
          "internalType": "uint256",
          "name": "frameKey",
          "type": "uint256"
        }
      ],
      "name": "setFrameRate",
      "outputs": [],
      "stateMutability": "nonpayable",
      "type": "function"
    },
    {
      "inputs": [
        {
          "internalType": "uint256",
          "name": "frameKey",
          "type": "uint256"
        }
      ],
      "name": "settleFrame",
      "outputs": [
        {
          "internalType": "uint256",
          "name": "",
          "type": "uint256"
        }
      ],
      "stateMutability": "nonpayable",
      "type": "function"
    },
    {
      "inputs": [],
      "name": "tSettle",
      "outputs": [
        {
          "internalType": "uint256",
          "name": "",
          "type": "uint256"
        }
      ],
      "stateMutability": "view",
      "type": "function"
    },
    {
      "inputs": [],
      "name": "taxMarket",
      "outputs": [
        {
          "internalType": "uint256",
          "name": "",
          "type": "uint256"
        }
      ],
      "stateMutability": "view",
      "type": "function"
    },
    {
      "inputs": [
        {
          "internalType": "uint256",
          "name": "timestamp",
          "type": "uint256"
        },
        {
          "internalType": "uint256",
          "name": "rate",
          "type": "uint256"
        },
        {
          "internalType": "uint256",
          "name": "acquisitionPrice",
          "type": "uint256"
        },
        {
          "internalType": "address",
          "name": "referrer",
          "type": "address"
        }
      ],
      "name": "tradeLot",
      "outputs": [],
      "stateMutability": "nonpayable",
      "type": "function"
    },
    {
      "inputs": [],
      "name": "uniswapPool",
      "outputs": [
        {
          "internalType": "contract IUniswapV3Pool",
          "name": "",
          "type": "address"
        }
      ],
      "stateMutability": "view",
      "type": "function"
    },
    {
      "inputs": [
        {
          "internalType": "address",
          "name": "user",
          "type": "address"
        }
      ],
      "name": "userExists",
      "outputs": [
        {
          "internalType": "bool",
          "name": "",
          "type": "bool"
        }
      ],
      "stateMutability": "view",
      "type": "function"
    },
    {
      "inputs": [
        {
          "internalType": "address",
          "name": "",
          "type": "address"
        }
      ],
      "name": "users",
      "outputs": [
        {
          "internalType": "bool",
          "name": "exists",
          "type": "bool"
        },
        {
          "internalType": "address",
          "name": "referredBy",
          "type": "address"
        }
      ],
      "stateMutability": "view",
      "type": "function"
    },
    {
      "inputs": [
        {
          "internalType": "uint256",
          "name": "",
          "type": "uint256"
        }
      ],
      "name": "usersArray",
      "outputs": [
        {
          "internalType": "address",
          "name": "",
          "type": "address"
        }
      ],
      "stateMutability": "view",
      "type": "function"
    },
    {
      "inputs": [
        {
          "internalType": "uint256",
          "name": "amount",
          "type": "uint256"
        }
      ],
      "name": "withdrawAccountingToken",
      "outputs": [],
      "stateMutability": "nonpayable",
      "type": "function"
    }
  ],
  "bytecode": "0x608060405262015180600055636592e180600155666a94d74f430000600255610258600355600480546001600160a01b03199081167367a9fe12fa6082d9d0203c84c6c56d3c4b269f281790915568056bc75e2d63100000600555662386f26fc1000060065560078054909116738f3cf7ad23cd3cadbd9735aff958023239c6a0631790556611c37937e0800060095534801561009b57600080fd5b50600880546001600160a01b03191633179055614977806100bd6000396000f3fe608060405234801561001057600080fd5b50600436106102955760003560e01c80639592de1811610167578063bdd3d825116100ce578063e107fb4f11610087578063e107fb4f146106f7578063ed320aa81461070a578063ef78d4fd14610712578063fb0d5e091461071b578063ffdabe2d1461073b578063ffde58621461074e57600080fd5b8063bdd3d82514610690578063c0423f2e146106a3578063d18743dd146106ab578063d8d50008146106be578063d8ff2a8c146106d1578063da68cf8b146106e457600080fd5b8063a90f8e9a11610120578063a90f8e9a146105ca578063b866debb146105fb578063b93dafa91461060e578063ba4e137f14610655578063ba52f3421461065d578063bad126531461067057600080fd5b80639592de181461049c57806399fe71ef146104af5780639e9c4f08146104c4578063a10340bc146104cd578063a73482f614610565578063a87430ba1461057857600080fd5b8063527eb4bc1161020b5780637e996639116101c45780637e996639146104205780638a5779c8146104295780638da5cb5b146104325780638edc6a2c1461044557806391a0846d1461046857806391bb68651461047b57600080fd5b8063527eb4bc146103a857806361eee2cb146103b157806369ca9e05146103c45780636f1aefc3146103d75780637358c57a146103f7578063773d51eb1461040057600080fd5b80632457e6201161025d5780632457e620146102ca5780632fae35c01461032e57806339a6a489146103595780633baf15871461036c578063499a0fc41461037f5780634c73884f1461038857600080fd5b8063050e88401461029a57806305eaab4b146102c05780630d0a1c1a146102ca5780630e666e49146102ea578063197c4e7814610326575b600080fd5b6102ad6102a8366004613e27565b610756565b6040519081526020015b60405180910390f35b6102c8610777565b005b6102dd6102d8366004613e27565b610ad1565b6040516102b79190613e7b565b6103166102f8366004613eba565b6001600160a01b03166000908152600c602052604090205460ff1690565b60405190151581526020016102b7565b600f546102ad565b61034161033c366004613e27565b610b36565b6040516001600160a01b0390911681526020016102b7565b6102ad610367366004613e27565b610b60565b6102c861037a366004613e27565b610d2d565b6102ad60055481565b61039b610396366004613ed7565b610e6a565b6040516102b79190613f0f565b6102ad60025481565b6102ad6103bf366004613e27565b610f97565b6102c86103d2366004614029565b610fce565b6103ea6103e5366004613ed7565b6110ca565b6040516102b7919061415d565b6102ad60015481565b61041361040e366004613e27565b611221565b6040516102b7919061418c565b6102ad60065481565b6102ad60035481565b600854610341906001600160a01b031681565b6102ad610453366004613e27565b6000908152600a602052604090206002015490565b6102ad610476366004614238565b61135d565b61048e610489366004613eba565b6113c2565b6040516102b7929190614264565b6102ad6104aa366004613e27565b611582565b6104b76115ad565b6040516102b79190614292565b6102ad60095481565b6105226104db366004613e27565b600a602052600090815260409020805460018201546003830154600484015460058501546006860154600790960154949593946001600160a01b0390931693919290919087565b6040805197885260208801969096526001600160a01b03909416948601949094526060850191909152608084015260a083019190915260c082015260e0016102b7565b6102ad610573366004613ed7565b61160f565b6105ab610586366004613eba565b600c6020526000908152604090205460ff81169061010090046001600160a01b031682565b6040805192151583526001600160a01b039091166020830152016102b7565b6103416105d8366004613eba565b6001600160a01b039081166000908152600c602052604090205461010090041690565b6102ad610609366004613e27565b6116d9565b61064061061c366004613ed7565b600e6020908152600092835260408084209091529082529020805460019091015482565b604080519283526020830191909152016102b7565b6102ad611c26565b6102ad61066b366004613e27565b611cf5565b61068361067e366004613e27565b611d05565b6040516102b791906142df565b600454610341906001600160a01b031681565b6102dd611d9c565b6102c86106b9366004613e27565b611df3565b6102c86106cc3660046142f3565b611edb565b6102ad6106df366004613eba565b612017565b600754610341906001600160a01b031681565b6102ad610705366004613ed7565b612261565b600b546102ad565b6102ad60005481565b61072e610729366004613ed7565b612323565b6040516102b79190614334565b6102ad610749366004613e27565b6123d9565b600d546102ad565b600b818154811061076657600080fd5b600091825260209091200154905081565b336000908152600c602052604090205460ff166107af5760405162461bcd60e51b81526004016107a690614347565b60405180910390fd5b600b5460009067ffffffffffffffff8111156107cd576107cd613f29565b6040519080825280602002602001820160405280156107f6578160200160208202803683370190505b5090506000805b600b548110156108a057600461082f600b838154811061081f5761081f614374565b9060005260206000200154611d05565b600481111561084057610840613ef9565b0361088e57600b818154811061085857610858614374565b906000526020600020015483838151811061087557610875614374565b60209081029190910101528161088a816143a0565b9250505b80610898816143a0565b9150506107fd565b50600081116108e55760405162461bcd60e51b81526020600482015260116024820152704e6f20736574746c6564206672616d657360781b60448201526064016107a6565b6000805b82811015610a0f57336000908152600c6020526040812085516002909101919086908490811061091b5761091b614374565b602090810291909101810151825281019190915260400160009081205460ff16151590036109fd57336000908152600c6020526040812085516001909101919086908490811061096d5761096d614374565b60200260200101518152602001908152602001600020548261098f91906143b9565b91506001600c6000336001600160a01b03166001600160a01b0316815260200190815260200160002060020160008684815181106109cf576109cf614374565b6020026020010151815260200190815260200160002060006101000a81548160ff0219169083151502179055505b80610a07816143a0565b9150506108e9565b5060008111610a565760405162461bcd60e51b81526020600482015260136024820152724e6f207265776172647320746f20636c61696d60681b60448201526064016107a6565b60075460405163a9059cbb60e01b8152336004820152602481018390526001600160a01b039091169063a9059cbb906044016020604051808303816000875af1158015610aa7573d6000803e3d6000fd5b505050506040513d601f19601f82011682018060405250810190610acb91906143dc565b50505050565b6000818152600a6020908152604091829020600201805483518184028101840190945280845260609392830182828015610b2a57602002820191906000526020600020905b815481526020019060010190808311610b16575b50505050509050919050565b600d8181548110610b4657600080fd5b6000918252602090912001546001600160a01b0316905081565b600080805b6000848152600a6020526040902060020154811015610d26576000848152600a6020818152604080842080548552600e835290842088855292909152600201805483919085908110610bb957610bb9614374565b90600052602060002001548152602001908152602001600020604051806060016040529081600082015481526020016001820154815260200160028201805480602002602001604051908101604052809291908181526020016000905b82821015610c875760008481526020908190206040805160c08101825260068602909201805483526001808201548486015260028201546001600160a01b03169284019290925260038101546060840152600481015460808401526005015460a08301529083529092019101610c16565b5050505081525050905060005b816040015151811015610d115781604001518181518110610cb757610cb7614374565b60200260200101516080015184610cce91906143b9565b935081604001518181518110610ce657610ce6614374565b602002602001015160a0015184610cfd91906143f7565b935080610d09816143a0565b915050610c94565b50508080610d1e906143a0565b915050610b65565b5092915050565b610d6e60405180604001604052806012815260200171333930b6b2a5b2bc9015903832b934b7b21d60711b81525060005483610d6991906143b9565b61261f565b610da06040518060400160405280601081526020016f313637b1b5973a34b6b2b9ba30b6b81d60811b8152504261261f565b60008054828252600a6020526040909120544291610dbd916143b9565b1115610e0b5760405162461bcd60e51b815260206004820152601b60248201527f4672616d652068617320746f20626520696e207468652070617374000000000060448201526064016107a6565b6000610e16826123d9565b6000838152600a6020526040908190206001810183905590519192507f929af310c689982c60d4ec73c6e4b602e89c6f6a31da7c2df4888fb0627cb2b191610e5e919061443f565b60405180910390a15050565b6000828152600e602090815260408083208484529091528120600101548103610e9557506000610f91565b6000610ea084611d05565b6004811115610eb157610eb1613ef9565b03610ebe57506000610f91565b6001610ec984611d05565b6004811115610eda57610eda613ef9565b1480610eff57506002610eec84611d05565b6004811115610efd57610efd613ef9565b145b15610f0c57506001610f91565b6000838152600e602090815260408083208584528252808320600190810154878552600a90935292209091015410801590610f8057506005546000848152600e60209081526040808320868452909152902060010154610f6c91906143b9565b6000848152600a6020526040902060010154105b15610f8d57506002610f91565b5060035b92915050565b60006001548211610faa57505060015490565b600054600154610fba90846143f7565b610fc491906144c7565b610f9190836143f7565b6008546001600160a01b031633146110385760405162461bcd60e51b815260206004820152602760248201527f4f6e6c79206f776e65722063616e20757064617465206672616d6520636c6f736044820152666520707269636560c81b60648201526084016107a6565b81516000036110595760405162461bcd60e51b81526004016107a6906144db565b60608201516001600160a01b0316156110b45760405162461bcd60e51b815260206004820181905260248201527f4672616d65207265776172642077617320616c726561647920636c61696d656460448201526064016107a6565b90516000908152600a6020526040902060010155565b6110ee60405180606001604052806000815260200160008152602001606081525090565b6000838152600e60209081526040808320858452909152812060010154900361114d5760405162461bcd60e51b8152602060048201526011602482015270131bdd08191bd95cdb89dd08195e1a5cdd607a1b60448201526064016107a6565b6000838152600e602090815260408083208584528252808320815160608101835281548152600182015481850152600282018054845181870281018701865281815292969395948701949293919290919084015b828210156112125760008481526020908190206040805160c08101825260068602909201805483526001808201548486015260028201546001600160a01b03169284019290925260038101546060840152600481015460808401526005015460a083015290835290920191016111a1565b50505091525090949350505050565b61127260405180610100016040528060008152602001600081526020016060815260200160006001600160a01b03168152602001600081526020016000815260200160008152602001600081525090565b6000828152600a6020526040812054900361129f5760405162461bcd60e51b81526004016107a6906144db565b6000828152600a6020908152604091829020825161010081018452815481526001820154818401526002820180548551818602810186018752818152929593949386019383018282801561131257602002820191906000526020600020905b8154815260200190600101908083116112fe575b505050918352505060038201546001600160a01b0316602082015260048201546040820152600582015460608201526006820154608082015260079091015460a09091015292915050565b6001600160a01b0382166000908152600c602052604081205460ff166113955760405162461bcd60e51b81526004016107a690614347565b506001600160a01b03919091166000908152600c6020908152604080832093835260019093019052205490565b600b54606090819067ffffffffffffffff8111156113e2576113e2613f29565b60405190808252806020026020018201604052801561140b578160200160208202803683370190505b50600b5490925067ffffffffffffffff81111561142a5761142a613f29565b604051908082528060200260200182016040528015611453578160200160208202803683370190505b50600b5490915060005b8181101561157b576000600b828154811061147a5761147a614374565b60009182526020808320909101546001600160a01b0389168352600c8252604080842082855260010190925290822054909250908190036114bc575050611569565b808684815181106114cf576114cf614374565b602002602001018181525050600c6000886001600160a01b03166001600160a01b031681526020019081526020016000206002016000600b858154811061151857611518614374565b6000918252602080832090910154835282019290925260400190205460ff16611542576000611545565b60015b60ff1685848151811061155a5761155a614374565b60200260200101818152505050505b80611573816143a0565b91505061145d565b5050915091565b600060055482101561159657505060055490565b6005546115a38184614508565b610f91919061451c565b6060600d80548060200260200160405190810160405280929190818152602001828054801561160557602002820191906000526020600020905b81546001600160a01b031681526001909101906020018083116115e7575b5050505050905090565b6000611620826402540be40061451c565b91506116596040518060400160405280601581526020017429a7a61021a7a721a0aa1d10333930b6b2a5b2bc9d60591b8152508461261f565b61168e6040518060400160405280601381526020017229a7a61021a7a721a0aa1d103637ba25b2bc9d60691b8152508361261f565b61169883836143b9565b9050610f916040518060400160405280601981526020017f534f4c20434f4e4341543a20636f6e636174656e617465643a000000000000008152508261261f565b6000818152600a602052604081205481036117065760405162461bcd60e51b81526004016107a6906144db565b600361171183611d05565b600481111561172257611722613ef9565b1461177b5760405162461bcd60e51b8152602060048201526024808201527f4672616d6520646f6573206e6f742068617665206120636c6f73652072617465604482015263081cd95d60e21b60648201526084016107a6565b6000828152600a602052604081206001015461179690611582565b6000848152600e60209081526040808320848452825280832081516060810183528154815260018201548185015260028201805484518187028101870186528181529798509596919592949386019391929091879084015b8282101561185f5760008481526020908190206040805160c08101825260068602909201805483526001808201548486015260028201546001600160a01b03169284019290925260038101546060840152600481015460808401526005015460a083015290835290920191016117ee565b50505050815250509050600061187485610b60565b90506000670de0b6b3a76400006002548361188f919061451c565b6118999190614508565b6000878152600a6020526040902060058101829055600701549091506118bf82846143f7565b6118c991906143f7565b6000878152600a602052604090819020600601919091558301515115611a9857600754604084015180516001600160a01b039092169163a9059cbb9190611912906001906143f7565b8151811061192257611922614374565b602002602001015160400151600a60008a8152602001908152602001600020600601546040518363ffffffff1660e01b81526004016119769291906001600160a01b03929092168252602082015260400190565b6020604051808303816000875af1158015611995573d6000803e3d6000fd5b505050506040513d601f19601f820116820180604052508101906119b991906143dc565b50604083015180516119cd906001906143f7565b815181106119dd576119dd614374565b6020908102919091018101516040908101516000898152600a909352918190206003810180546001600160a01b0319166001600160a01b03948516179055600754600854600590920154925163a9059cbb60e01b81529184166004830152602482019290925291169063a9059cbb906044016020604051808303816000875af1158015611a6e573d6000803e3d6000fd5b505050506040513d601f19601f82011682018060405250810190611a9291906143dc565b50611b76565b6007546008546000888152600a6020526040902060058101546006909101546001600160a01b039384169363a9059cbb931691611ad4916143b9565b6040516001600160e01b031960e085901b1681526001600160a01b03909216600483015260248201526044016020604051808303816000875af1158015611b1f573d6000803e3d6000fd5b505050506040513d601f19601f82011682018060405250810190611b4391906143dc565b506008546000878152600a6020526040902060030180546001600160a01b0319166001600160a01b039092169190911790555b6000868152600a6020526040908190206001810154600490910155517f906ff162b3f2709ab28fb678d43913964434148dd206e9b17adb3c1255090cb190611bbf90859061415d565b60405180910390a16000868152600a60205260409081902090517f929af310c689982c60d4ec73c6e4b602e89c6f6a31da7c2df4888fb0627cb2b191611c049161443f565b60405180910390a150505060009283525050600a602052604090206006015490565b6004805460408051633850c7bd60e01b8152905160009384936001600160a01b031692633850c7bd928183019260e0928290030181865afa158015611c6f573d6000803e3d6000fd5b505050506040513d601f19601f82011682018060405250810190611c939190614545565b50505050505090506000816001600160a01b031690506000600160601b82670de0b6b3a7640000611cc4919061451c565b611cce9190614508565b9050670de0b6b3a7640000611ce3828061451c565b611ced9190614508565b949350505050565b600f818154811061076657600080fd5b6000818152600a60205260408120548103611d2257506000919050565b6000828152600a60205260409020600301546001600160a01b031615611d4a57506004919050565b60008054838252600a602052604090912054611d6691906143b9565b421015611d7557506001919050565b6000828152600a602052604090206001015415611d9457506003919050565b506002919050565b6060600f80548060200260200160405190810160405280929190818152602001828054801561160557602002820191906000526020600020905b815481526020019060010190808311611dd6575050505050905090565b6008546001600160a01b03163314611e5e5760405162461bcd60e51b815260206004820152602860248201527f4f6e6c79206f776e65722063616e207769746864726177206163636f756e74696044820152673733903a37b5b2b760c11b60648201526084016107a6565b60075460085460405163a9059cbb60e01b81526001600160a01b0391821660048201526024810184905291169063a9059cbb906044016020604051808303816000875af1158015611eb3573d6000803e3d6000fd5b505050506040513d601f19601f82011682018060405250810190611ed791906143dc565b5050565b6000611ee685610f97565b90506000611ef385611582565b6000838152600e6020908152604080832084845290915281206001015491925003611f49576000828152600a60205260408120549003611f3857611f3686612664565b505b611f44828286866127a1565b611fbf565b6000828152600e6020908152604080832084845290915290206002018054339190611f76906001906143f7565b81548110611f8657611f86614374565b60009182526020909120600260069092020101546001600160a01b031603611fb357611f44828286612be3565b611fbf8282868661303f565b6000828152600e602090815260408083208484529091529081902090517f906ff162b3f2709ab28fb678d43913964434148dd206e9b17adb3c1255090cb191612007916145df565b60405180910390a1505050505050565b6001600160a01b0381166000908152600c602052604081205460ff1661204f5760405162461bcd60e51b81526004016107a690614347565b600b5460009067ffffffffffffffff81111561206d5761206d613f29565b604051908082528060200260200182016040528015612096578160200160208202803683370190505b5090506000805b600b548110156121305760046120bf600b838154811061081f5761081f614374565b60048111156120d0576120d0613ef9565b0361211e57600b81815481106120e8576120e8614374565b906000526020600020015483838151811061210557612105614374565b60209081029190910101528161211a816143a0565b9250505b80612128816143a0565b91505061209d565b50600081116121755760405162461bcd60e51b81526020600482015260116024820152704e6f20736574746c6564206672616d657360781b60448201526064016107a6565b6000805b8281101561225857600c6000876001600160a01b03166001600160a01b0316815260200190815260200160002060020160008583815181106121bd576121bd614374565b602090810291909101810151825281019190915260400160009081205460ff161515900361224657600c6000876001600160a01b03166001600160a01b03168152602001908152602001600020600101600085838151811061222157612221614374565b60200260200101518152602001908152602001600020548261224391906143b9565b91505b80612250816143a0565b915050612179565b50949350505050565b6000426000548461227291906143b9565b116122bf5760405162461bcd60e51b815260206004820152601d60248201527f4672616d652068617320746f20626520696e207468652066757475726500000060448201526064016107a6565b600080546006546122d09190614508565b9050600042600054866122e391906143b9565b6122ed91906143f7565b90506000670de0b6b3a764000085612305858561451c565b61230f919061451c565b6123199190614508565b9695505050505050565b6000828152600e602090815260408083208484528252808320600201805482518185028101850190935280835260609492939192909184015b828210156123cd5760008481526020908190206040805160c08101825260068602909201805483526001808201548486015260028201546001600160a01b03169284019290925260038101546060840152600481015460808401526005015460a0830152908352909201910161235c565b50505050905092915050565b60008060035483426123eb91906143f7565b6123f591906143b9565b9050600061240384426143f7565b6040805160028082526060820183529293506000929091602083019080368337019050509050828160008151811061243d5761243d614374565b602002602001019063ffffffff16908163ffffffff1681525050818160018151811061246b5761246b614374565b63ffffffff909216602092830291909101909101526004805460405163883bdbfd60e01b81526000926001600160a01b039092169163883bdbfd916124b29186910161468d565b600060405180830381865afa1580156124cf573d6000803e3d6000fd5b505050506040513d6000823e601f3d908101601f191682016040526124f7919081019061472f565b50905060008160008151811061250f5761250f614374565b602002602001015160060b8260018151811061252d5761252d614374565b602002602001015160060b61254291906147fb565b9050600081121561258b5760405162461bcd60e51b81526020600482015260136024820152724e65676174697665207469636b2064656c746160681b60448201526064016107a6565b8060006125a163ffffffff8088169089166143f7565b905060006125af8284614508565b905060006125bc826135f1565b905060006125da66010000000000006001600160a01b038416614508565b905060006125e8828061451c565b90506000600160601b61260383670de0b6b3a764000061451c565b61260d9190614508565b9e9d5050505050505050505050505050565b611ed7828260405160240161263592919061481b565b60408051601f198184030181529190526020810180516001600160e01b0316632d839cb360e21b1790526139d4565b60008061267083610f97565b6000818152600a6020526040902054909150156126c65760405162461bcd60e51b81526020600482015260146024820152734672616d6520616c72656164792065786973747360601b60448201526064016107a6565b42600054826126d591906143b9565b10156127235760405162461bcd60e51b815260206004820152601d60248201527f4672616d652068617320746f20626520696e207468652066757475726500000060448201526064016107a6565b6000818152600a602052604090819020828155600b8054600181019091557f0175b7a638427703f0dbe7bb9bbf987a2551717b34e79f33b5b1008d1fa01db90183905590517f929af310c689982c60d4ec73c6e4b602e89c6f6a31da7c2df4888fb0627cb2b1916127939161443f565b60405180910390a192915050565b60006127ad8584612261565b9050600081116127cf5760405162461bcd60e51b81526004016107a690614870565b600754604051636eb1769f60e11b815233600482015230602482015282916001600160a01b03169063dd62ed3e90604401602060405180830381865afa15801561281d573d6000803e3d6000fd5b505050506040513d601f19601f8201168201806040525081019061284191906148cd565b101561285f5760405162461bcd60e51b81526004016107a6906148e6565b7f161bcca7119915b50764b4abe86529797775a5f171951000000000000000000084106128c05760405162461bcd60e51b815260206004820152600f60248201526e4c6f74206b657920746f6f2062696760881b60448201526064016107a6565b6000858152600e602090815260408083208784529091529020600101541561291f5760405162461bcd60e51b81526020600482015260126024820152714c6f7420616c72656164792065786973747360701b60448201526064016107a6565b6040805160c081018252438152426020808301918252338385019081526060840188815260808501878152600060a087018181528d8252600e86528882208d835286529781208d815560018082018e90556002808301805480840182558186529885208b516006909a0201988955985191880191909155945194860180546001600160a01b0319166001600160a01b0390961695909517909455915160038501555160048401559451600590920191909155928790528054919291829182916129ea91908190613d41565b50905050612a1c6040518060400160405280600c81526020016b29a7a61d103637ba35b2bc9d60a11b8152508761261f565b612a4c6040518060400160405280600e81526020016d29a7a61d10333930b6b2a5b2bc9d60911b8152508861261f565b6000612a58888861160f565b9050612a8e6040518060400160405280601281526020017129a7a61d103637ba25b2bca1b7b731b0ba1d60711b8152508261261f565b600f805460018181019092557f8d1108e10bcb7c27dddfc02ed9d693a074039d026cf4ea4240b40f7d581ac802018290556000898152600a60209081526040808320868501546002909101805495860181558452919092209092019190915560075490516323b872dd60e01b81526001600160a01b03909116906323b872dd90612b209033903090899060040161491d565b6020604051808303816000875af1158015612b3f573d6000803e3d6000fd5b505050506040513d601f19601f82011682018060405250810190612b6391906143dc565b50336000908152600c602052604090205460ff16612b8457612b84856139e0565b336000908152600c60205260408082205461010090046001600160a01b0316825290205460ff1615612bd957336000908152600c6020526040902054612bd99061010090046001600160a01b0316858a613b9d565b5050505050505050565b6000838152600e6020908152604080832085845290915281206002018054612c3a918691612c13906001906143f7565b81548110612c2357612c23614374565b906000526020600020906006020160030154612261565b90506000612c488584612261565b905080821115612e2d576000612c5e82846143f7565b6007546000888152600e602090815260408083208a8452909152902060020180549293506001600160a01b039091169163a9059cbb9190612ca1906001906143f7565b81548110612cb157612cb1614374565b600091825260209091206006909102016002015460405160e083901b6001600160e01b03191681526001600160a01b039091166004820152602481018490526044016020604051808303816000875af1158015612d12573d6000803e3d6000fd5b505050506040513d601f19601f82011682018060405250810190612d3691906143dc565b506000868152600e602090815260408083208884528252808320815160c0810183524381524281850190815233828501818152606084018c81526080850189815260a086018b81526002978801805460018082018355918d528b8d2098516006909102909801978855955195870195909555915195850180546001600160a01b0319166001600160a01b0397881617905551600385015551600484015590516005909201919091558452600c909252808320546101009004909116825290205460ff1615612e2757336000908152600c6020526040902054612e279061010090046001600160a01b03168288613c64565b50613038565b6000612e3983836143f7565b600754604051636eb1769f60e11b815233600482015230602482015291925082916001600160a01b039091169063dd62ed3e90604401602060405180830381865afa158015612e8c573d6000803e3d6000fd5b505050506040513d601f19601f82011682018060405250810190612eb091906148cd565b1015612ece5760405162461bcd60e51b81526004016107a6906148e6565b6007546040516323b872dd60e01b81526001600160a01b03909116906323b872dd90612f029033903090869060040161491d565b6020604051808303816000875af1158015612f21573d6000803e3d6000fd5b505050506040513d601f19601f82011682018060405250810190612f4591906143dc565b506000868152600e602090815260408083208884528252808320815160c0810183524381524281850190815233828501818152606084018c8152608085018a815260a086018a81526002978801805460018082018355918d528b8d2098516006909102909801978855955195870195909555915195850180546001600160a01b0319166001600160a01b0397881617905551600385015551600484015590516005909201919091558452600c909252808320546101009004909116825290205460ff161561303657336000908152600c60205260409020546130369061010090046001600160a01b03168288613b9d565b505b5050505050565b6000848152600e6020908152604080832086845290915281206002018054613069906001906143f7565b8154811061307957613079614374565b600091825260208220600260069092020101546001600160a01b031691506130a18685612261565b9050600081116130c35760405162461bcd60e51b81526004016107a690614870565b6000868152600e60209081526040808320888452909152812060020180546130ed906001906143f7565b815481106130fd576130fd614374565b9060005260206000209060060201600301549050808261311d91906143b9565b600754604051636eb1769f60e11b81523360048201523060248201526001600160a01b039091169063dd62ed3e90604401602060405180830381865afa15801561316b573d6000803e3d6000fd5b505050506040513d601f19601f8201168201806040525081019061318f91906148cd565b10156131ad5760405162461bcd60e51b81526004016107a6906148e6565b6007546040516323b872dd60e01b81526001600160a01b03909116906323b872dd906131e19033903090879060040161491d565b6020604051808303816000875af1158015613200573d6000803e3d6000fd5b505050506040513d601f19601f8201168201806040525081019061322491906143dc565b506007546040516323b872dd60e01b81526001600160a01b03909116906323b872dd906132599033908790869060040161491d565b6020604051808303816000875af1158015613278573d6000803e3d6000fd5b505050506040513d601f19601f8201168201806040525081019061329c91906143dc565b506000878152600e60209081526040808320898452909152812060020180546132cd918a91612c13906001906143f7565b60075460405163a9059cbb60e01b81526001600160a01b0387811660048301526024820184905292935091169063a9059cbb906044016020604051808303816000875af1158015613322573d6000803e3d6000fd5b505050506040513d601f19601f8201168201806040525081019061334691906143dc565b50336000908152600c602052604090205460ff1661336757613367856139e0565b336000908152600c60205260408082205461010090046001600160a01b0316825290205460ff16156133bc57336000908152600c60205260409020546133bc9061010090046001600160a01b0316848a613b9d565b6001600160a01b038085166000908152600c60205260408082205461010090049092168152205460ff1615613417576001600160a01b038085166000908152600c60205260409020546134179161010090910416828a613c64565b600e600089815260200190815260200160002060008881526020019081526020016000206002016040518060c00160405280438152602001428152602001866001600160a01b0316815260200184815260200160008152602001838152509080600181540180825580915050600190039060005260206000209060060201600090919091909150600082015181600001556020820151816001015560408201518160020160006101000a8154816001600160a01b0302191690836001600160a01b03160217905550606082015181600301556080820151816004015560a082015181600501555050600e600089815260200190815260200160002060008881526020019081526020016000206002016040518060c00160405280438152602001428152602001336001600160a01b0316815260200188815260200185815260200160008152509080600181540180825580915050600190039060005260206000209060060201600090919091909150600082015181600001556020820151816001015560408201518160020160006101000a8154816001600160a01b0302191690836001600160a01b03160217905550606082015181600301556080820151816004015560a0820151816005015550505050505050505050565b600081620d89e881111561362b5760405162461bcd60e51b81526020600482015260016024820152601560fa1b60448201526064016107a6565b60008160011660000361364257600160801b613654565b6ffffcb933bd6fad37aa2d162d1a5940015b70ffffffffffffffffffffffffffffffffff169050600282161561369357608061368e826ffff97272373d413259a46990580e213a61451c565b901c90505b60048216156136bd5760806136b8826ffff2e50f5f656932ef12357cf3c7fdcc61451c565b901c90505b60088216156136e75760806136e2826fffe5caca7e10e4e61c3624eaa0941cd061451c565b901c90505b601082161561371157608061370c826fffcb9843d60f6159c9db58835c92664461451c565b901c90505b602082161561373b576080613736826fff973b41fa98c081472e6896dfb254c061451c565b901c90505b6040821615613765576080613760826fff2ea16466c96a3843ec78b326b5286161451c565b901c90505b608082161561378f57608061378a826ffe5dee046a99a2a811c461f1969c305361451c565b901c90505b6101008216156137ba5760806137b5826ffcbe86c7900a88aedcffc83b479aa3a461451c565b901c90505b6102008216156137e55760806137e0826ff987a7253ac413176f2b074cf7815e5461451c565b901c90505b61040082161561381057608061380b826ff3392b0822b70005940c7a398e4b70f361451c565b901c90505b61080082161561383b576080613836826fe7159475a2c29b7443b29c7fa6e889d961451c565b901c90505b611000821615613866576080613861826fd097f3bdfd2022b8845ad8f792aa582561451c565b901c90505b61200082161561389157608061388c826fa9f746462d870fdf8a65dc1f90e061e561451c565b901c90505b6140008216156138bc5760806138b7826f70d869a156d2a1b890bb3df62baf32f761451c565b901c90505b6180008216156138e75760806138e2826f31be135f97d08fd981231505542fcfa661451c565b901c90505b6201000082161561391357608061390e826f09aa508b5b7a84e1c677de54f3e99bc961451c565b901c90505b6202000082161561393e576080613939826e5d6af8dedb81196699c329225ee60461451c565b901c90505b62040000821615613968576080613963826d2216e584f5fa1ea926041bedfe9861451c565b901c90505b6208000082161561399057608061398b826b048a170391f7dc42444e8fa261451c565b901c90505b83156139a5576139a281600019614508565b90505b6139b4640100000000826144c7565b156139c05760016139c3565b60005b611ced9060ff16602083901c6143b9565b6139dd81613d20565b50565b336000908152600c602052604090205460ff1615613a365760405162461bcd60e51b81526020600482015260136024820152725573657220616c72656164792065786973747360681b60448201526064016107a6565b6001600160a01b038116613abf57336000818152600c6020526040812080546001600160a01b0394909416610100026001600160a81b0319909416939093176001908117909355600d8054938401815590527fd7b6990105719101dabeb77144f2a3385c8033acd3af97e9423a695e81ad1eb590910180546001600160a01b0319169091179055565b6001600160a01b0381166000908152600c602052604090205460ff16613b275760405162461bcd60e51b815260206004820152601760248201527f526566657272657220646f6573206e6f7420657869737400000000000000000060448201526064016107a6565b600d805460018181019092557fd7b6990105719101dabeb77144f2a3385c8033acd3af97e9423a695e81ad1eb50180546001600160a01b031916339081179091556000908152600c6020526040902080546001600160a01b0393909316610100026001600160a81b031990931692909217179055565b6001600160a01b0383166000908152600c602052604090205460ff16613bd55760405162461bcd60e51b81526004016107a690614347565b6000670de0b6b3a764000060095484613bee919061451c565b613bf89190614508565b6001600160a01b0385166000908152600c60209081526040808320868452600101909152812080549293508392909190613c339084906143b9565b90915550506000828152600a602052604081206007018054839290613c599084906143b9565b909155505050505050565b6001600160a01b0383166000908152600c602052604090205460ff16613c9c5760405162461bcd60e51b81526004016107a690614347565b6000670de0b6b3a764000060095484613cb5919061451c565b613cbf9190614508565b6001600160a01b0385166000908152600c60209081526040808320868452600101909152812080549293508392909190613cfa9084906143f7565b90915550506000828152600a602052604081206007018054839290613c599084906143f7565b60006a636f6e736f6c652e6c6f679050600080835160208501845afa505050565b828054828255906000526020600020906006028101928215613dd55760005260206000209160060282015b82811115613dd557825482556001808401549083015560028084015490830180546001600160a01b0319166001600160a01b0390921691909117905560038084015490830155600480840154908301556005808401549083015560069283019290910190613d6c565b50613de1929150613de5565b5090565b5b80821115613de1576000808255600182018190556002820180546001600160a01b031916905560038201819055600482018190556005820155600601613de6565b600060208284031215613e3957600080fd5b5035919050565b600081518084526020808501945080840160005b83811015613e7057815187529582019590820190600101613e54565b509495945050505050565b602081526000613e8e6020830184613e40565b9392505050565b6001600160a01b03811681146139dd57600080fd5b8035613eb581613e95565b919050565b600060208284031215613ecc57600080fd5b8135613e8e81613e95565b60008060408385031215613eea57600080fd5b50508035926020909101359150565b634e487b7160e01b600052602160045260246000fd5b6020810160048310613f2357613f23613ef9565b91905290565b634e487b7160e01b600052604160045260246000fd5b604051610100810167ffffffffffffffff81118282101715613f6357613f63613f29565b60405290565b604051601f8201601f1916810167ffffffffffffffff81118282101715613f9257613f92613f29565b604052919050565b600067ffffffffffffffff821115613fb457613fb4613f29565b5060051b60200190565b600082601f830112613fcf57600080fd5b81356020613fe4613fdf83613f9a565b613f69565b82815260059290921b8401810191818101908684111561400357600080fd5b8286015b8481101561401e5780358352918301918301614007565b509695505050505050565b6000806040838503121561403c57600080fd5b823567ffffffffffffffff8082111561405457600080fd5b90840190610100828703121561406957600080fd5b614071613f3f565b823581526020830135602082015260408301358281111561409157600080fd5b61409d88828601613fbe565b6040830152506140af60608401613eaa565b60608201526080830135608082015260a083013560a082015260c083013560c082015260e083013560e0820152809450505050602083013590509250929050565b600081518084526020808501945080840160005b83811015613e705781518051885283810151848901526040808201516001600160a01b031690890152606080820151908901526080808201519089015260a0908101519088015260c09096019590820190600101614104565b60208152815160208201526020820151604082015260006040830151606080840152611ced60808401826140f0565b6000602080835261012083018451828501528185015160408501526040850151610100806060870152828251808552610140880191508584019450600093505b808410156141ec57845182529385019360019390930192908501906141cc565b5060608801516001600160a01b03811660808901529450608088015160a088015260a088015160c088015260c088015160e088015260e088015182880152809550505050505092915050565b6000806040838503121561424b57600080fd5b823561425681613e95565b946020939093013593505050565b6040815260006142776040830185613e40565b82810360208401526142898185613e40565b95945050505050565b6020808252825182820181905260009190848201906040850190845b818110156142d35783516001600160a01b0316835292840192918401916001016142ae565b50909695505050505050565b6020810160058310613f2357613f23613ef9565b6000806000806080858703121561430957600080fd5b843593506020850135925060408501359150606085013561432981613e95565b939692955090935050565b602081526000613e8e60208301846140f0565b602080825260139082015272155cd95c88191bd95cc81b9bdd08195e1a5cdd606a1b604082015260600190565b634e487b7160e01b600052603260045260246000fd5b634e487b7160e01b600052601160045260246000fd5b6000600182016143b2576143b261438a565b5060010190565b80820180821115610f9157610f9161438a565b80518015158114613eb557600080fd5b6000602082840312156143ee57600080fd5b613e8e826143cc565b81810381811115610f9157610f9161438a565b6000815480845260208085019450836000528060002060005b83811015613e7057815487529582019560019182019101614423565b602081528154602082015260018201546040820152600061010080606084015261447061012084016002860161440a565b60038501546001600160a01b03166080850152600485015460a0850152600585015460c0850152600685015460e08501526007909401549201919091525090565b634e487b7160e01b600052601260045260246000fd5b6000826144d6576144d66144b1565b500690565b602080825260139082015272119c985b5948191bd95cdb89dd08195e1a5cdd606a1b604082015260600190565b600082614517576145176144b1565b500490565b8082028115828204841417610f9157610f9161438a565b805161ffff81168114613eb557600080fd5b600080600080600080600060e0888a03121561456057600080fd5b875161456b81613e95565b8097505060208801518060020b811461458357600080fd5b955061459160408901614533565b945061459f60608901614533565b93506145ad60808901614533565b925060a088015160ff811681146145c357600080fd5b91506145d160c089016143cc565b905092959891949750929550565b6000602080835260808084018554838601526001808701546040818189015260029150818901606080818b015285825480885260a09750878c0191508360005289600020935060005b8181101561467b5784548352878501548b840152868501546001600160a01b03168684015260038501548484015260048501548a84015260058501548984015260069094019360c0909201918701614628565b50909c9b505050505050505050505050565b6020808252825182820181905260009190848201906040850190845b818110156142d357835163ffffffff16835292840192918401916001016146a9565b600082601f8301126146dc57600080fd5b815160206146ec613fdf83613f9a565b82815260059290921b8401810191818101908684111561470b57600080fd5b8286015b8481101561401e57805161472281613e95565b835291830191830161470f565b6000806040838503121561474257600080fd5b825167ffffffffffffffff8082111561475a57600080fd5b818501915085601f83011261476e57600080fd5b8151602061477e613fdf83613f9a565b82815260059290921b8401810191818101908984111561479d57600080fd5b948201945b838610156147cb5785518060060b81146147bc5760008081fd5b825294820194908201906147a2565b918801519196509093505050808211156147e457600080fd5b506147f1858286016146cb565b9150509250929050565b8181036000831280158383131683831282161715610d2657610d2661438a565b604081526000835180604084015260005b81811015614849576020818701810151606086840101520161482c565b506000606082850101526060601f19601f8301168401019150508260208301529392505050565b6020808252603c908201527f5461782068617320746f2062652067726561746572207468616e20302e20496e60408201527f63726561736520746865206163717569736974696f6e20707269636500000000606082015260800190565b6000602082840312156148df57600080fd5b5051919050565b6020808252601e908201527f416c6c6f77616e636520746f207370656e642073657420746f6f206c6f770000604082015260600190565b6001600160a01b03938416815291909216602082015260408101919091526060019056fea264697066735822122013fa07adec591305fc4a34222198193f63685572a92db36a17d4f6c20870b5cc64736f6c63430008140033",
  "linkReferences": {},
  "deployedLinkReferences": {}
}