{
  "_format": "hh-sol-artifact-1",
  "contractName": "Market",
  "sourceName": "contracts/Market.sol",
  "abi": [
    {
      "inputs": [
        {
          "internalType": "address",
          "name": "_acct",
          "type": "address"
        },
        {
          "internalType": "uint256",
          "name": "_feeProtocol",
          "type": "uint256"
        },
        {
          "internalType": "uint256",
          "name": "_taxMarket",
          "type": "uint256"
        },
        {
          "internalType": "uint256",
          "name": "_dPrice",
          "type": "uint256"
        },
        {
          "internalType": "address",
          "name": "_uniswapPool",
          "type": "address"
        }
      ],
      "stateMutability": "nonpayable",
      "type": "constructor"
    },
    {
      "anonymous": false,
      "inputs": [
        {
          "components": [
            {
              "internalType": "uint256",
              "name": "frameKey",
              "type": "uint256"
            },
            {
              "internalType": "uint256",
              "name": "rate",
              "type": "uint256"
            },
            {
              "internalType": "uint256[]",
              "name": "lotKeys",
              "type": "uint256[]"
            },
            {
              "internalType": "address",
              "name": "claimedBy",
              "type": "address"
            },
            {
              "internalType": "uint256",
              "name": "rateSettle",
              "type": "uint256"
            },
            {
              "internalType": "uint256",
              "name": "feeSettle",
              "type": "uint256"
            },
            {
              "internalType": "uint256",
              "name": "rewardSettle",
              "type": "uint256"
            },
            {
              "internalType": "uint256",
              "name": "rewardPool",
              "type": "uint256"
            }
          ],
          "indexed": false,
          "internalType": "struct Market.Frame",
          "name": "frame",
          "type": "tuple"
        }
      ],
      "name": "FrameUpdate",
      "type": "event"
    },
    {
      "anonymous": false,
      "inputs": [
        {
          "components": [
            {
              "internalType": "uint256",
              "name": "frameKey",
              "type": "uint256"
            },
            {
              "internalType": "uint256",
              "name": "lotKey",
              "type": "uint256"
            },
            {
              "components": [
                {
                  "internalType": "uint256",
                  "name": "blockNumber",
                  "type": "uint256"
                },
                {
                  "internalType": "uint256",
                  "name": "blockTimestamp",
                  "type": "uint256"
                },
                {
                  "internalType": "address",
                  "name": "owner",
                  "type": "address"
                },
                {
                  "internalType": "uint256",
                  "name": "acquisitionPrice",
                  "type": "uint256"
                },
                {
                  "internalType": "uint256",
                  "name": "taxCharged",
                  "type": "uint256"
                }
              ],
              "internalType": "struct Market.LotState[]",
              "name": "states",
              "type": "tuple[]"
            }
          ],
          "indexed": false,
          "internalType": "struct Market.Lot",
          "name": "lot",
          "type": "tuple"
        }
      ],
      "name": "LotUpdate",
      "type": "event"
    },
    {
      "inputs": [],
      "name": "accountingToken",
      "outputs": [
        {
          "internalType": "contract IERC20Metadata",
          "name": "",
          "type": "address"
        }
      ],
      "stateMutability": "view",
      "type": "function"
    },
    {
      "inputs": [],
      "name": "accountingTokenDecimals",
      "outputs": [
        {
          "internalType": "uint8",
          "name": "",
          "type": "uint8"
        }
      ],
      "stateMutability": "view",
      "type": "function"
    },
    {
      "inputs": [],
      "name": "baseUnit",
      "outputs": [
        {
          "internalType": "uint256",
          "name": "",
          "type": "uint256"
        }
      ],
      "stateMutability": "view",
      "type": "function"
    },
    {
      "inputs": [
        {
          "internalType": "uint256",
          "name": "newFee",
          "type": "uint256"
        }
      ],
      "name": "changeProtocolFee",
      "outputs": [],
      "stateMutability": "nonpayable",
      "type": "function"
    },
    {
      "inputs": [
        {
          "internalType": "uint256",
          "name": "newTax",
          "type": "uint256"
        }
      ],
      "name": "changeTaxPercentage",
      "outputs": [],
      "stateMutability": "nonpayable",
      "type": "function"
    },
    {
      "inputs": [
        {
          "internalType": "uint256",
          "name": "timestamp",
          "type": "uint256"
        }
      ],
      "name": "clcFrameKey",
      "outputs": [
        {
          "internalType": "uint256",
          "name": "",
          "type": "uint256"
        }
      ],
      "stateMutability": "view",
      "type": "function"
    },
    {
      "inputs": [
        {
          "internalType": "uint256",
          "name": "valueQ96",
          "type": "uint256"
        }
      ],
      "name": "clcLotKey",
      "outputs": [
        {
          "internalType": "uint256",
          "name": "",
          "type": "uint256"
        }
      ],
      "stateMutability": "view",
      "type": "function"
    },
    {
      "inputs": [],
      "name": "clcRate",
      "outputs": [
        {
          "internalType": "uint256",
          "name": "",
          "type": "uint256"
        }
      ],
      "stateMutability": "view",
      "type": "function"
    },
    {
      "inputs": [
        {
          "internalType": "uint256",
          "name": "timestamp",
          "type": "uint256"
        }
      ],
      "name": "clcRateAvg",
      "outputs": [
        {
          "internalType": "uint256",
          "name": "",
          "type": "uint256"
        }
      ],
      "stateMutability": "view",
      "type": "function"
    },
    {
      "inputs": [
        {
          "internalType": "uint256",
          "name": "frameKey",
          "type": "uint256"
        },
        {
          "internalType": "uint256",
          "name": "acquisitionPriceQ96",
          "type": "uint256"
        }
      ],
      "name": "clcTax",
      "outputs": [
        {
          "internalType": "uint256",
          "name": "",
          "type": "uint256"
        }
      ],
      "stateMutability": "view",
      "type": "function"
    },
    {
      "inputs": [
        {
          "internalType": "uint256",
          "name": "frameKey",
          "type": "uint256"
        },
        {
          "internalType": "uint256",
          "name": "lotKey",
          "type": "uint256"
        }
      ],
      "name": "concatenate",
      "outputs": [
        {
          "internalType": "uint256",
          "name": "concatenated",
          "type": "uint256"
        }
      ],
      "stateMutability": "pure",
      "type": "function"
    },
    {
      "inputs": [
        {
          "internalType": "uint256",
          "name": "amount18Dec",
          "type": "uint256"
        },
        {
          "internalType": "bool",
          "name": "round",
          "type": "bool"
        }
      ],
      "name": "convertToTokenDecimals",
      "outputs": [
        {
          "internalType": "uint256",
          "name": "",
          "type": "uint256"
        }
      ],
      "stateMutability": "view",
      "type": "function"
    },
    {
      "inputs": [],
      "name": "dPrice",
      "outputs": [
        {
          "internalType": "uint256",
          "name": "",
          "type": "uint256"
        }
      ],
      "stateMutability": "view",
      "type": "function"
    },
    {
      "inputs": [],
      "name": "feeProtocol",
      "outputs": [
        {
          "internalType": "uint256",
          "name": "",
          "type": "uint256"
        }
      ],
      "stateMutability": "view",
      "type": "function"
    },
    {
      "inputs": [
        {
          "internalType": "uint256",
          "name": "",
          "type": "uint256"
        }
      ],
      "name": "frames",
      "outputs": [
        {
          "internalType": "uint256",
          "name": "frameKey",
          "type": "uint256"
        },
        {
          "internalType": "uint256",
          "name": "rate",
          "type": "uint256"
        },
        {
          "internalType": "address",
          "name": "claimedBy",
          "type": "address"
        },
        {
          "internalType": "uint256",
          "name": "rateSettle",
          "type": "uint256"
        },
        {
          "internalType": "uint256",
          "name": "feeSettle",
          "type": "uint256"
        },
        {
          "internalType": "uint256",
          "name": "rewardSettle",
          "type": "uint256"
        },
        {
          "internalType": "uint256",
          "name": "rewardPool",
          "type": "uint256"
        }
      ],
      "stateMutability": "view",
      "type": "function"
    },
    {
      "inputs": [
        {
          "internalType": "uint256",
          "name": "",
          "type": "uint256"
        }
      ],
      "name": "framesKeys",
      "outputs": [
        {
          "internalType": "uint256",
          "name": "",
          "type": "uint256"
        }
      ],
      "stateMutability": "view",
      "type": "function"
    },
    {
      "inputs": [
        {
          "internalType": "uint256",
          "name": "x96",
          "type": "uint256"
        }
      ],
      "name": "fromQ96",
      "outputs": [
        {
          "internalType": "uint256",
          "name": "",
          "type": "uint256"
        }
      ],
      "stateMutability": "view",
      "type": "function"
    },
    {
      "inputs": [
        {
          "internalType": "uint256",
          "name": "frameKey",
          "type": "uint256"
        }
      ],
      "name": "getFrame",
      "outputs": [
        {
          "components": [
            {
              "internalType": "uint256",
              "name": "frameKey",
              "type": "uint256"
            },
            {
              "internalType": "uint256",
              "name": "rate",
              "type": "uint256"
            },
            {
              "internalType": "uint256[]",
              "name": "lotKeys",
              "type": "uint256[]"
            },
            {
              "internalType": "address",
              "name": "claimedBy",
              "type": "address"
            },
            {
              "internalType": "uint256",
              "name": "rateSettle",
              "type": "uint256"
            },
            {
              "internalType": "uint256",
              "name": "feeSettle",
              "type": "uint256"
            },
            {
              "internalType": "uint256",
              "name": "rewardSettle",
              "type": "uint256"
            },
            {
              "internalType": "uint256",
              "name": "rewardPool",
              "type": "uint256"
            }
          ],
          "internalType": "struct Market.Frame",
          "name": "",
          "type": "tuple"
        }
      ],
      "stateMutability": "view",
      "type": "function"
    },
    {
      "inputs": [
        {
          "internalType": "uint256",
          "name": "frameKey",
          "type": "uint256"
        }
      ],
      "name": "getFrameIndex",
      "outputs": [
        {
          "internalType": "uint256",
          "name": "",
          "type": "uint256"
        }
      ],
      "stateMutability": "view",
      "type": "function"
    },
    {
      "inputs": [
        {
          "internalType": "uint256",
          "name": "frameKey",
          "type": "uint256"
        }
      ],
      "name": "getFrameLotKeys",
      "outputs": [
        {
          "internalType": "uint256[]",
          "name": "",
          "type": "uint256[]"
        }
      ],
      "stateMutability": "view",
      "type": "function"
    },
    {
      "inputs": [],
      "name": "getFramesLength",
      "outputs": [
        {
          "internalType": "uint256",
          "name": "",
          "type": "uint256"
        }
      ],
      "stateMutability": "view",
      "type": "function"
    },
    {
      "inputs": [],
      "name": "getGlobalRewardPool",
      "outputs": [
        {
          "internalType": "uint256",
          "name": "",
          "type": "uint256"
        }
      ],
      "stateMutability": "view",
      "type": "function"
    },
    {
      "inputs": [
        {
          "internalType": "uint256",
          "name": "frameKey",
          "type": "uint256"
        },
        {
          "internalType": "uint256",
          "name": "lotKey",
          "type": "uint256"
        }
      ],
      "name": "getLot",
      "outputs": [
        {
          "components": [
            {
              "internalType": "uint256",
              "name": "frameKey",
              "type": "uint256"
            },
            {
              "internalType": "uint256",
              "name": "lotKey",
              "type": "uint256"
            },
            {
              "components": [
                {
                  "internalType": "uint256",
                  "name": "blockNumber",
                  "type": "uint256"
                },
                {
                  "internalType": "uint256",
                  "name": "blockTimestamp",
                  "type": "uint256"
                },
                {
                  "internalType": "address",
                  "name": "owner",
                  "type": "address"
                },
                {
                  "internalType": "uint256",
                  "name": "acquisitionPrice",
                  "type": "uint256"
                },
                {
                  "internalType": "uint256",
                  "name": "taxCharged",
                  "type": "uint256"
                }
              ],
              "internalType": "struct Market.LotState[]",
              "name": "states",
              "type": "tuple[]"
            }
          ],
          "internalType": "struct Market.Lot",
          "name": "",
          "type": "tuple"
        }
      ],
      "stateMutability": "view",
      "type": "function"
    },
    {
      "inputs": [
        {
          "internalType": "uint256",
          "name": "frameKey",
          "type": "uint256"
        },
        {
          "internalType": "uint256",
          "name": "lotKey",
          "type": "uint256"
        }
      ],
      "name": "getLotStates",
      "outputs": [
        {
          "components": [
            {
              "internalType": "uint256",
              "name": "blockNumber",
              "type": "uint256"
            },
            {
              "internalType": "uint256",
              "name": "blockTimestamp",
              "type": "uint256"
            },
            {
              "internalType": "address",
              "name": "owner",
              "type": "address"
            },
            {
              "internalType": "uint256",
              "name": "acquisitionPrice",
              "type": "uint256"
            },
            {
              "internalType": "uint256",
              "name": "taxCharged",
              "type": "uint256"
            }
          ],
          "internalType": "struct Market.LotState[]",
          "name": "",
          "type": "tuple[]"
        }
      ],
      "stateMutability": "view",
      "type": "function"
    },
    {
      "inputs": [],
      "name": "getLotsArray",
      "outputs": [
        {
          "internalType": "uint256[]",
          "name": "",
          "type": "uint256[]"
        }
      ],
      "stateMutability": "view",
      "type": "function"
    },
    {
      "inputs": [],
      "name": "getLotsArrayLength",
      "outputs": [
        {
          "internalType": "uint256",
          "name": "",
          "type": "uint256"
        }
      ],
      "stateMutability": "view",
      "type": "function"
    },
    {
      "inputs": [
        {
          "internalType": "uint256",
          "name": "frameKey",
          "type": "uint256"
        }
      ],
      "name": "getLotsKeysInFrame",
      "outputs": [
        {
          "internalType": "uint256[]",
          "name": "",
          "type": "uint256[]"
        }
      ],
      "stateMutability": "view",
      "type": "function"
    },
    {
      "inputs": [
        {
          "internalType": "uint256",
          "name": "frameKey",
          "type": "uint256"
        }
      ],
      "name": "getLotsLength",
      "outputs": [
        {
          "internalType": "uint256",
          "name": "",
          "type": "uint256"
        }
      ],
      "stateMutability": "view",
      "type": "function"
    },
    {
      "inputs": [],
      "name": "getPendingRewardForNextSettlement",
      "outputs": [
        {
          "internalType": "uint256",
          "name": "",
          "type": "uint256"
        }
      ],
      "stateMutability": "view",
      "type": "function"
    },
    {
      "inputs": [
        {
          "internalType": "uint256",
          "name": "frameKey",
          "type": "uint256"
        }
      ],
      "name": "getStateFrame",
      "outputs": [
        {
          "internalType": "enum Market.SFrame",
          "name": "",
          "type": "uint8"
        }
      ],
      "stateMutability": "view",
      "type": "function"
    },
    {
      "inputs": [
        {
          "internalType": "uint256",
          "name": "frameKey",
          "type": "uint256"
        },
        {
          "internalType": "uint256",
          "name": "lotKey",
          "type": "uint256"
        }
      ],
      "name": "getStateLot",
      "outputs": [
        {
          "internalType": "enum Market.SLot",
          "name": "",
          "type": "uint8"
        }
      ],
      "stateMutability": "view",
      "type": "function"
    },
    {
      "inputs": [],
      "name": "initTimestamp",
      "outputs": [
        {
          "internalType": "uint256",
          "name": "",
          "type": "uint256"
        }
      ],
      "stateMutability": "view",
      "type": "function"
    },
    {
      "inputs": [],
      "name": "lastSettledFrameIndex",
      "outputs": [
        {
          "internalType": "uint256",
          "name": "",
          "type": "uint256"
        }
      ],
      "stateMutability": "view",
      "type": "function"
    },
    {
      "inputs": [
        {
          "internalType": "uint256",
          "name": "",
          "type": "uint256"
        },
        {
          "internalType": "uint256",
          "name": "",
          "type": "uint256"
        }
      ],
      "name": "lots",
      "outputs": [
        {
          "internalType": "uint256",
          "name": "frameKey",
          "type": "uint256"
        },
        {
          "internalType": "uint256",
          "name": "lotKey",
          "type": "uint256"
        }
      ],
      "stateMutability": "view",
      "type": "function"
    },
    {
      "inputs": [
        {
          "internalType": "uint256",
          "name": "",
          "type": "uint256"
        }
      ],
      "name": "lotsArray",
      "outputs": [
        {
          "internalType": "uint256",
          "name": "",
          "type": "uint256"
        }
      ],
      "stateMutability": "view",
      "type": "function"
    },
    {
      "inputs": [
        {
          "internalType": "uint256",
          "name": "frameKey",
          "type": "uint256"
        },
        {
          "internalType": "uint256",
          "name": "avgPrice",
          "type": "uint256"
        }
      ],
      "name": "overrideFrameRate",
      "outputs": [],
      "stateMutability": "nonpayable",
      "type": "function"
    },
    {
      "inputs": [],
      "name": "owner",
      "outputs": [
        {
          "internalType": "address",
          "name": "",
          "type": "address"
        }
      ],
      "stateMutability": "view",
      "type": "function"
    },
    {
      "inputs": [],
      "name": "period",
      "outputs": [
        {
          "internalType": "uint256",
          "name": "",
          "type": "uint256"
        }
      ],
      "stateMutability": "view",
      "type": "function"
    },
    {
      "inputs": [],
      "name": "rewardPool",
      "outputs": [
        {
          "internalType": "uint256",
          "name": "",
          "type": "uint256"
        }
      ],
      "stateMutability": "view",
      "type": "function"
    },
    {
      "inputs": [
        {
          "internalType": "uint256",
          "name": "frameKey",
          "type": "uint256"
        }
      ],
      "name": "setFrameRate",
      "outputs": [],
      "stateMutability": "nonpayable",
      "type": "function"
    },
    {
      "inputs": [],
      "name": "settleFrame",
      "outputs": [
        {
          "internalType": "uint256",
          "name": "",
          "type": "uint256"
        }
      ],
      "stateMutability": "nonpayable",
      "type": "function"
    },
    {
      "inputs": [],
      "name": "tSettle",
      "outputs": [
        {
          "internalType": "uint256",
          "name": "",
          "type": "uint256"
        }
      ],
      "stateMutability": "view",
      "type": "function"
    },
    {
      "inputs": [],
      "name": "taxMarket",
      "outputs": [
        {
          "internalType": "uint256",
          "name": "",
          "type": "uint256"
        }
      ],
      "stateMutability": "view",
      "type": "function"
    },
    {
      "inputs": [
        {
          "internalType": "uint256",
          "name": "amount",
          "type": "uint256"
        }
      ],
      "name": "toQ96",
      "outputs": [
        {
          "internalType": "uint256",
          "name": "",
          "type": "uint256"
        }
      ],
      "stateMutability": "view",
      "type": "function"
    },
    {
      "inputs": [
        {
          "internalType": "uint256",
          "name": "timestamp",
          "type": "uint256"
        },
        {
          "internalType": "uint256",
          "name": "rate",
          "type": "uint256"
        },
        {
          "internalType": "uint256",
          "name": "acquisitionPrice",
          "type": "uint256"
        }
      ],
      "name": "tradeLot",
      "outputs": [],
      "stateMutability": "nonpayable",
      "type": "function"
    },
    {
      "inputs": [],
      "name": "uniswapPool",
      "outputs": [
        {
          "internalType": "contract IUniswapV3Pool",
          "name": "",
          "type": "address"
        }
      ],
      "stateMutability": "view",
      "type": "function"
    },
    {
      "inputs": [
        {
          "internalType": "uint256",
          "name": "amount",
          "type": "uint256"
        }
      ],
      "name": "withdrawAccountingToken",
      "outputs": [],
      "stateMutability": "nonpayable",
      "type": "function"
    }
  ],
  "bytecode": "0x60a060405262015180600055636592e1806001556000600255610258600355600060055560006006553480156200003557600080fd5b506040516200495c3803806200495c83398101604081905262000058916200037e565b600a80546101003302610100600160a81b0319909116179055600480546001600160a01b038381166001600160a01b0319928316178355600780549189169190921681179091556040805163313ce56760e01b81529051919263313ce5679282820192602092908290030181865afa158015620000d9573d6000803e3d6000fd5b505050506040513d601f19601f82011682018060405250810190620000ff9190620003d3565b600a805460ff191660ff9290921691821781556200011e91906200050b565b60808190526200014a906064906200013890879062000519565b62000144919062000533565b6200018c565b60025560805162000165906064906200013890869062000519565b6006556080516200017d906200014490849062000519565b60055550620005829350505050565b6000620001b0826c01000000000000000000000000608051620001b660201b60201c565b92915050565b6000808060001985870985870292508281108382030391505080600003620001f25760008411620001e657600080fd5b5082900490506200035a565b808411620001ff57600080fd5b600084868809808403938111909203919050600085620002228119600162000556565b1695869004959384900493600081900304600101905062000244818462000519565b9093179260006200025787600362000519565b600218905062000268818862000519565b620002759060026200056c565b62000281908262000519565b90506200028f818862000519565b6200029c9060026200056c565b620002a8908262000519565b9050620002b6818862000519565b620002c39060026200056c565b620002cf908262000519565b9050620002dd818862000519565b620002ea9060026200056c565b620002f6908262000519565b905062000304818862000519565b620003119060026200056c565b6200031d908262000519565b90506200032b818862000519565b620003389060026200056c565b62000344908262000519565b905062000352818662000519565b955050505050505b9392505050565b80516001600160a01b03811681146200037957600080fd5b919050565b600080600080600060a086880312156200039757600080fd5b620003a28662000361565b9450602086015193506040860151925060608601519150620003c76080870162000361565b90509295509295909350565b600060208284031215620003e657600080fd5b815160ff811681146200035a57600080fd5b634e487b7160e01b600052601160045260246000fd5b600181815b808511156200044f578160001904821115620004335762000433620003f8565b808516156200044157918102915b93841c939080029062000413565b509250929050565b6000826200046857506001620001b0565b816200047757506000620001b0565b81600181146200049057600281146200049b57620004bb565b6001915050620001b0565b60ff841115620004af57620004af620003f8565b50506001821b620001b0565b5060208310610133831016604e8410600b8410161715620004e0575081810a620001b0565b620004ec83836200040e565b8060001904821115620005035762000503620003f8565b029392505050565b60006200035a838362000457565b8082028115828204841417620001b057620001b0620003f8565b6000826200055157634e487b7160e01b600052601260045260246000fd5b500490565b80820180821115620001b057620001b0620003f8565b81810381811115620001b057620001b0620003f8565b6080516143b0620005ac600039600081816105ef01528181610911015261116401526143b06000f3fe608060405234801561001057600080fd5b50600436106102955760003560e01c80638edc6a2c11610167578063c2930f91116100ce578063ef78d4fd11610087578063ef78d4fd1461065a578063f3517fef14610663578063f601d5101461066b578063fb0d5e091461068a578063fe687475146106aa578063ffdabe2d146106bd57600080fd5b8063c2930f91146105ea578063ca7d5dce14610611578063d18743dd14610619578063da68cf8b1461062c578063e107fb4f1461063f578063ed320aa81461065257600080fd5b8063b93dafa911610120578063b93dafa91461054d578063ba4e137f14610594578063ba52f3421461059c578063bad12653146105af578063bdd3d825146105cf578063c0423f2e146105e257600080fd5b80638edc6a2c146104505780639592de1814610473578063a10340bc14610486578063a73482f61461051e578063b067f42d14610531578063b254eb171461053a57600080fd5b8063527eb4bc1161020b578063773d51eb116101c4578063773d51eb146103c857806378328a17146103e85780637e996639146103fb57806386e670cb146104045780638a5779c8146104175780638da5cb5b1461042057600080fd5b8063527eb4bc1461036757806361eee2cb1461037057806364772f211461038357806366666aa9146103965780636f1aefc31461039f5780637358c57a146103bf57600080fd5b80632457e6201161025d5780632457e620146102c05780632c438717146103055780633baf158714610318578063499a0fc41461032b5780634a00521f146103345780634c73884f1461034757600080fd5b8063050e88401461029a5780630d0a1c1a146102c057806317e9b6d5146102e057806318d13d87146102e8578063197c4e78146102fd575b600080fd5b6102ad6102a8366004613839565b6106d0565b6040519081526020015b60405180910390f35b6102d36102ce366004613839565b6106f1565b6040516102b79190613852565b6102ad610756565b6102fb6102f6366004613896565b6107e5565b005b600e546102ad565b6102ad610313366004613839565b610909565b6102fb610326366004613839565b610940565b6102ad60055481565b6102ad610342366004613839565b610a3f565b61035a610355366004613896565b610b08565b6040516102b791906138ce565b6102ad60025481565b6102ad61037e366004613839565b610c34565b6102fb6103913660046138e8565b610c6b565b6102ad60085481565b6103b26103ad366004613896565b610da4565b6040516102b7919061394f565b6102ad60015481565b6103db6103d6366004613839565b610ef1565b6040516102b791906139ba565b6102ad6103f6366004613a74565b61102d565b6102ad60065481565b6102fb610412366004613839565b61108f565b6102ad60035481565b600a546104389061010090046001600160a01b031681565b6040516001600160a01b0390911681526020016102b7565b6102ad61045e366004613839565b6000908152600b602052604090206002015490565b6102ad610481366004613839565b6110ff565b6104db610494366004613839565b600b602052600090815260409020805460018201546003830154600484015460058501546006860154600790960154949593946001600160a01b0390931693919290919087565b6040805197885260208801969096526001600160a01b03909416948601949094526060850191909152608084015260a083019190915260c082015260e0016102b7565b6102ad61052c366004613896565b61113a565b6102ad60095481565b6102ad610548366004613839565b611157565b61057f61055b366004613896565b600d6020908152600092835260408084209091529082529020805460019091015482565b604080519283526020830191909152016102b7565b6102ad611188565b6102ad6105aa366004613839565b61145f565b6105c26105bd366004613839565b61146f565b6040516102b79190613aa4565b600454610438906001600160a01b031681565b6102d3611506565b6102ad7f000000000000000000000000000000000000000000000000000000000000000081565b6102ad61155e565b6102fb610627366004613839565b6115e4565b600754610438906001600160a01b031681565b6102ad61064d366004613896565b6116d6565b600c546102ad565b6102ad60005481565b6102ad61183a565b600a546106789060ff1681565b60405160ff90911681526020016102b7565b61069d610698366004613896565b612055565b6040516102b79190613ab8565b6102fb6106b8366004613839565b612101565b6102ad6106cb366004613839565b612170565b600c81815481106106e057600080fd5b600091825260209091200154905081565b6000818152600b602090815260409182902060020180548351818402810184019094528084526060939283018282801561074a57602002820191906000526020600020905b815481526020019060010190808311610736575b50505050509050919050565b60095460009081905b600c548110156107df576000600c828154811061077e5761077e613af5565b600091825260209091200154905060046107978261146f565b60048111156107a8576107a86138b8565b146107cc576000818152600b60205260409020600701546107c99084613b21565b92505b50806107d781613b34565b91505061075f565b50919050565b600a5461010090046001600160a01b031633146108595760405162461bcd60e51b815260206004820152602760248201527f4f6e6c79206f776e65722063616e20757064617465206672616d6520636c6f736044820152666520707269636560c81b60648201526084015b60405180910390fd5b6000828152600b602052604081205490036108865760405162461bcd60e51b815260040161085090613b4d565b6000828152600b60205260409020600301546001600160a01b0316156108ee5760405162461bcd60e51b815260206004820181905260248201527f4672616d65207265776172642077617320616c726561647920636c61696d65646044820152606401610850565b6000918252600b602052604080832054835290912060010155565b600061093a827f0000000000000000000000000000000000000000000000000000000000000000600160601b612597565b92915050565b6000818152600b6020526040812054900361096d5760405162461bcd60e51b815260040161085090613b4d565b60008054828252600b602052604090912054429161098a91613b21565b11156109d85760405162461bcd60e51b815260206004820152601b60248201527f4672616d652068617320746f20626520696e20746865207061737400000000006044820152606401610850565b60006109eb600054836106cb9190613b21565b6000838152600b6020526040908190206001810183905590519192507f929af310c689982c60d4ec73c6e4b602e89c6f6a31da7c2df4888fb0627cb2b191610a339190613bba565b60405180910390a15050565b6000818152600b60205260408120548103610a6c5760405162461bcd60e51b815260040161085090613b4d565b60005b600c54811015610ab55782600c8281548110610a8d57610a8d613af5565b906000526020600020015403610aa35792915050565b80610aad81613b34565b915050610a6f565b5060405162461bcd60e51b815260206004820152602160248201527f4672616d65206b6579206e6f7420666f756e6420696e206672616d65734b65796044820152607360f81b6064820152608401610850565b6000828152600d602090815260408083208484529091528120600101548103610b335750600061093a565b6000610b3e8461146f565b6004811115610b4f57610b4f6138b8565b03610b5c5750600061093a565b6001610b678461146f565b6004811115610b7857610b786138b8565b1480610b9d57506002610b8a8461146f565b6004811115610b9b57610b9b6138b8565b145b15610baa5750600161093a565b6000838152600d602090815260408083208584528252808320600190810154878552600b90935292209091015410801590610c1e57506005546000848152600d60209081526040808320868452909152902060010154610c0a9190613b21565b6000848152600b6020526040902060010154105b15610c2b5750600261093a565b50600392915050565b60006001548211610c4757505060015490565b600054600154610c579084613c2c565b610c619190613c55565b61093a9083613c2c565b6000610c7684610c34565b90506000610c83846110ff565b6000838152600d6020908152604080832084845290915281206001015491925003610cd8576000828152600b60205260408120549003610cc857610cc685612710565b505b610cd382828561284d565b610d4d565b6000828152600d6020908152604080832084845290915290206002018054339190610d0590600190613c2c565b81548110610d1557610d15613af5565b60009182526020909120600260059092020101546001600160a01b031603610d4257610cd3828285612caf565b610d4d828285612ecd565b6000828152600d602090815260408083208484529091529081902090517f782b1e1b5d0c69f9f4c1e43a846c9ce710491a77f5adb86c3fe465f2cc9bfab991610d9591613d06565b60405180910390a15050505050565b610dc860405180606001604052806000815260200160008152602001606081525090565b6000838152600d602090815260408083208584529091528120600101549003610e275760405162461bcd60e51b8152602060048201526011602482015270131bdd08191bd95cdb89dd08195e1a5cdd607a1b6044820152606401610850565b6000838152600d602090815260408083208584528252808320815160608101835281548152600182015481850152600282018054845181870281018701865281815292969395948701949293919290919084015b82821015610ee25760008481526020908190206040805160a08101825260058602909201805483526001808201548486015260028201546001600160a01b031692840192909252600381015460608401526004015460808301529083529092019101610e7b565b50505091525090949350505050565b610f4260405180610100016040528060008152602001600081526020016060815260200160006001600160a01b03168152602001600081526020016000815260200160008152602001600081525090565b6000828152600b60205260408120549003610f6f5760405162461bcd60e51b815260040161085090613b4d565b6000828152600b60209081526040918290208251610100810184528154815260018201548184015260028201805485518186028101860187528181529295939493860193830182828015610fe257602002820191906000526020600020905b815481526020019060010190808311610fce575b505050918352505060038201546001600160a01b0316602082015260048201546040820152600582015460608201526006820154608082015260079091015460a09091015292915050565b600a5460009081906110439060ff166012613d19565b61104e90600a613e16565b9050821561107e5780611062600282613e25565b61106c9086613b21565b6110769190613e25565b91505061093a565b6110768185613e25565b5092915050565b600a5461010090046001600160a01b031633146110fa5760405162461bcd60e51b8152602060048201526024808201527f4f6e6c79206f776e65722063616e206368616e6765207461782070657263656e6044820152637461676560e01b6064820152608401610850565b600655565b600060055482101561111357505060055490565b6000600554836111239190613e25565b9050611133816005546001612597565b9392505050565b600061114b826402540be400613e39565b91506111338383613b21565b600061093a82600160601b7f0000000000000000000000000000000000000000000000000000000000000000612597565b6004805460408051633850c7bd60e01b8152905160009384936001600160a01b031692633850c7bd928183019260e0928290030181865afa1580156111d1573d6000803e3d6000fd5b505050506040513d601f19601f820116820180604052508101906111f59190613e8d565b50505050505090506000816001600160a01b0316826001600160a01b031661121d9190613e39565b6004805460408051630dfe168160e01b81529051939450606085901c936000936001600160a01b0390931692630dfe1681928082019260209290918290030181865afa158015611271573d6000803e3d6000fd5b505050506040513d601f19601f820116820180604052508101906112959190613f23565b90506000600460009054906101000a90046001600160a01b03166001600160a01b031663d21220a76040518163ffffffff1660e01b8152600401602060405180830381865afa1580156112ec573d6000803e3d6000fd5b505050506040513d601f19601f820116820180604052508101906113109190613f23565b90506000826001600160a01b031663313ce5676040518163ffffffff1660e01b8152600401602060405180830381865afa158015611352573d6000803e3d6000fd5b505050506040513d601f19601f820116820180604052508101906113769190613f40565b90506000826001600160a01b031663313ce5676040518163ffffffff1660e01b8152600401602060405180830381865afa1580156113b8573d6000803e3d6000fd5b505050506040513d601f19601f820116820180604052508101906113dc9190613f40565b90508060ff168260ff1611156114135761140c856113fa8385613d19565b61140590600a613e16565b6001612597565b9450611444565b8160ff168160ff161115611444576114418560016114318585613d19565b61143c90600a613e16565b612597565b94505b611453600160601b8087612597565b98975050505050505050565b600e81815481106106e057600080fd5b6000818152600b6020526040812054810361148c57506000919050565b6000828152600b60205260409020600301546001600160a01b0316156114b457506004919050565b60008054838252600b6020526040909120546114d09190613b21565b4210156114df57506001919050565b6000828152600b6020526040902060010154156114fe57506003919050565b506002919050565b6060600e80548060200260200160405190810160405280929190818152602001828054801561155457602002820191906000526020600020905b815481526020019060010190808311611540575b5050505050905090565b600c54600954600091116115725750600090565b6000600c6009548154811061158957611589613af5565b600091825260209091200154905060036115a28261146f565b60048111156115b3576115b36138b8565b036115dc576000818152600b60205260409020600701546115d690600290613e25565b91505090565b600091505090565b600a5461010090046001600160a01b031633146116545760405162461bcd60e51b815260206004820152602860248201527f4f6e6c79206f776e65722063616e207769746864726177206163636f756e74696044820152673733903a37b5b2b760c11b6064820152608401610850565b600754600a5460405163a9059cbb60e01b81526001600160a01b03610100909204821660048201526024810184905291169063a9059cbb906044016020604051808303816000875af11580156116ae573d6000803e3d6000fd5b505050506040513d601f19601f820116820180604052508101906116d29190613f5b565b5050565b600080600054846116e79190613b21565b90504281116117385760405162461bcd60e51b815260206004820152601d60248201527f4672616d652068617320746f20626520696e20746865206675747572650000006044820152606401610850565b61176e604051806040016040528060148152602001730536574746c656d656e742074696d657374616d760641b8152508261323e565b60408051808201909152601981527f536574746c6d656e657420646179732072656d61696e696e670000000000000060208201526117c390620151806117b44285613c2c565b6117be9190613e25565b61323e565b60006117cf4283613c2c565b905060006117e06201518083613e25565b905060006117ef826001613b21565b905060006117fc82613283565b9050600061180b826004613e39565b61181990600160601b613e25565b9050600061182c828a600160601b612597565b9a9950505050505050505050565b600c54600954600091116118855760405162461bcd60e51b81526020600482015260126024820152714e6f206672616d6520746f20736574746c6560701b6044820152606401610850565b6118c66040518060400160405280601881526020017f4c61737420736574746c6564206672616d6520696e646578000000000000000081525060095461323e565b60408051808201909152600c8082526b546f74616c206672616d657360a01b6020830152546118f5919061323e565b6119366040518060400160405280601a81526020017f4e657874206672616d6520746f20736574746c6520696e64657800000000000081525060095461323e565b6000600c6009548154811061194d5761194d613af5565b9060005260206000200154905061198f604051806040016040528060138152602001724672616d65206b657920746f20736574746c6560681b8152508261323e565b6000818152600b602052604081205490036119bc5760405162461bcd60e51b815260040161085090613b4d565b60036119c78261146f565b60048111156119d8576119d86138b8565b14611a255760405162461bcd60e51b815260206004820152601b60248201527f4672616d65206973206e6f7420696e20524154454420737461746500000000006044820152606401610850565b611a676040518060400160405280600a8152602001694672616d65207261746560b01b815250600b60008481526020019081526020016000206001015461323e565b6000818152600b6020526040812060070154611a8590600290613e25565b9050611ac66040518060400160405280601d81526020017f5265776172642066756e64206265666f726520736574746c656d656e740000008152508261323e565b6000611ad982600254600160601b612597565b90506000611ae78284613c2c565b6000858152600b6020526040812060058101859055600681018390556001015491925090611b14906110ff565b6000868152600d602090815260408083208484529091528120815492935091611b3d9088613b21565b6000818152600b602052604081205491925003611b5f57611b5d81612710565b505b6000878152600b6020526040812060070154611b7c908890613c2c565b905080600b60008481526020019081526020016000206007016000828254611ba49190613b21565b909155505060408051808201909152601d81527f526f6c6c6f76657220616d6f756e7420746f206e657874206672616d650000006020820152611be7908261323e565b611c1a604051806060016040528060258152602001614307602591396000848152600b602052604090206007015461323e565b600283015460009015611dc857611c546040518060400160405280600b81526020016a4c6f7420776f6e206b657960a81b8152508661323e565b600284018054611c6690600190613c2c565b81548110611c7657611c76613af5565b906000526020600020906005020160020160009054906101000a90046001600160a01b03169050611cdc6040518060400160405280601d81526020017f5472616e7366657272696e67207061796f757420746f2077696e6e6572000000815250826133dc565b611d0e6040518060400160405280600d81526020016c14185e5bdd5d08185b5bdd5b9d609a1b8152506117be88610909565b6007546001600160a01b031663a9059cbb82611d2989610909565b6040516001600160e01b031960e085901b1681526001600160a01b03909216600483015260248201526044016020604051808303816000875af1158015611d74573d6000803e3d6000fd5b505050506040513d601f19601f82011682018060405250810190611d989190613f5b565b506000898152600b6020526040902060030180546001600160a01b0319166001600160a01b038316179055611e80565b611e076040518060400160405280601981526020017f4e6f2077696e6e657220666f756e6420666f72206672616d65000000000000008152508a61323e565b611e1361054887610909565b6000848152600b602052604081206007018054909190611e34908490613b21565b92505081905550611e606040518060600160405280602d815260200161432c602d91396117be88610909565b6000898152600b6020526040902060030180546001600160a01b03191690555b611ea5604051806060016040528060228152602001614359602291396117be89610909565b600754600a546001600160a01b039182169163a9059cbb91610100900416611ecc8a610909565b6040516001600160e01b031960e085901b1681526001600160a01b03909216600483015260248201526044016020604051808303816000875af1158015611f17573d6000803e3d6000fd5b505050506040513d601f19601f82011682018060405250810190611f3b9190613f5b565b50611f7d6040518060400160405280601c81526020017f52657761726420706f6f6c20616674657220736574746c656d656e740000000081525060085461323e565b6000898152600b602052604090206001810154600490910155600284015415611fd8577f782b1e1b5d0c69f9f4c1e43a846c9ce710491a77f5adb86c3fe465f2cc9bfab984604051611fcf9190613d06565b60405180910390a15b6000898152600b60205260409081902090517f929af310c689982c60d4ec73c6e4b602e89c6f6a31da7c2df4888fb0627cb2b19161201591613bba565b60405180910390a16001600960008282546120309190613b21565b90915550505060009788525050600b6020525050604090932060060154949350505050565b6000828152600d602090815260408083208484528252808320600201805482518185028101850190935280835260609492939192909184015b828210156120f55760008481526020908190206040805160a08101825260058602909201805483526001808201548486015260028201546001600160a01b03169284019290925260038101546060840152600401546080830152908352909201910161208e565b50505050905092915050565b600a5461010090046001600160a01b0316331461216b5760405162461bcd60e51b815260206004820152602260248201527f4f6e6c79206f776e65722063616e206368616e67652070726f746f636f6c2066604482015261656560f01b6064820152608401610850565b600255565b60008060035483426121829190613c2c565b61218c9190613b21565b9050600061219a8442613c2c565b604080516002808252606082018352929350600092909160208301908036833701905050905082816000815181106121d4576121d4613af5565b602002602001019063ffffffff16908163ffffffff1681525050818160018151811061220257612202613af5565b63ffffffff909216602092830291909101909101526004805460405163883bdbfd60e01b81526000926001600160a01b039092169163883bdbfd9161224991869101613f8e565b600060405180830381865afa158015612266573d6000803e3d6000fd5b505050506040513d6000823e601f3d908101601f1916820160405261228e919081019061408a565b5090506000816000815181106122a6576122a6613af5565b602002602001015160060b826001815181106122c4576122c4613af5565b602002602001015160060b6122d99190614156565b905060008112156123225760405162461bcd60e51b81526020600482015260136024820152724e65676174697665207469636b2064656c746160681b6044820152606401610850565b80600061233863ffffffff808816908916613c2c565b905060006123468284613e25565b9050600061235382613421565b9050600061236a6001600160a01b03831680613e39565b6004805460408051630dfe168160e01b81529051939450606085901c936000936001600160a01b0390931692630dfe1681928082019260209290918290030181865afa1580156123be573d6000803e3d6000fd5b505050506040513d601f19601f820116820180604052508101906123e29190613f23565b90506000600460009054906101000a90046001600160a01b03166001600160a01b031663d21220a76040518163ffffffff1660e01b8152600401602060405180830381865afa158015612439573d6000803e3d6000fd5b505050506040513d601f19601f8201168201806040525081019061245d9190613f23565b90506000826001600160a01b031663313ce5676040518163ffffffff1660e01b8152600401602060405180830381865afa15801561249f573d6000803e3d6000fd5b505050506040513d601f19601f820116820180604052508101906124c39190613f40565b90506000826001600160a01b031663313ce5676040518163ffffffff1660e01b8152600401602060405180830381865afa158015612505573d6000803e3d6000fd5b505050506040513d601f19601f820116820180604052508101906125299190613f40565b90508060ff168260ff16111561254e57612547856113fa8385613d19565b945061256f565b8160ff168160ff16111561256f5761256c8560016114318585613d19565b94505b61257e600160601b8087612597565b9450849f50505050505050505050505050505050919050565b60008080600019858709858702925082811083820303915050806000036125d057600084116125c557600080fd5b508290049050611133565b8084116125dc57600080fd5b6000848688098084039381119092039190506000856125fd81196001613b21565b1695869004959384900493600081900304600101905061261d8184613e39565b90931792600061262e876003613e39565b600218905061263d8188613e39565b612648906002613c2c565b6126529082613e39565b905061265e8188613e39565b612669906002613c2c565b6126739082613e39565b905061267f8188613e39565b61268a906002613c2c565b6126949082613e39565b90506126a08188613e39565b6126ab906002613c2c565b6126b59082613e39565b90506126c18188613e39565b6126cc906002613c2c565b6126d69082613e39565b90506126e28188613e39565b6126ed906002613c2c565b6126f79082613e39565b90506127038186613e39565b9998505050505050505050565b60008061271c83610c34565b6000818152600b6020526040902054909150156127725760405162461bcd60e51b81526020600482015260146024820152734672616d6520616c72656164792065786973747360601b6044820152606401610850565b42600054826127819190613b21565b10156127cf5760405162461bcd60e51b815260206004820152601d60248201527f4672616d652068617320746f20626520696e20746865206675747572650000006044820152606401610850565b6000818152600b602052604090819020828155600c8054600181019091557fdf6966c971051c3d54ec59162606531493a51404a002842f56009d7e5cf4a8c70183905590517f929af310c689982c60d4ec73c6e4b602e89c6f6a31da7c2df4888fb0627cb2b19161283f91613bba565b60405180910390a192915050565b600061285984836116d6565b9050600061286682610909565b90506128a76040518060400160405280601c81526020017f54617820616d6f756e7420696e20746f6b656e20646563696d616c73000000008152508261323e565b600081116128c75760405162461bcd60e51b815260040161085090614176565b6040805180820182526012815271105b1b1bddd85b98d9481d1bc81cdc195b9960721b60208201526007549151636eb1769f60e11b8152336004820152306024820152612962926001600160a01b03169063dd62ed3e90604401602060405180830381865afa15801561293e573d6000803e3d6000fd5b505050506040513d601f19601f820116820180604052508101906117be91906141d3565b600754604051636eb1769f60e11b815233600482015230602482015282916001600160a01b03169063dd62ed3e90604401602060405180830381865afa1580156129b0573d6000803e3d6000fd5b505050506040513d601f19601f820116820180604052508101906129d491906141d3565b10156129f25760405162461bcd60e51b8152600401610850906141ec565b7f161bcca7119915b50764b4abe86529797775a5f17195100000000000000000008410612a535760405162461bcd60e51b815260206004820152600f60248201526e4c6f74206b657920746f6f2062696760881b6044820152606401610850565b6000858152600d6020908152604080832087845290915290206001015415612ab25760405162461bcd60e51b81526020600482015260126024820152714c6f7420616c72656164792065786973747360701b6044820152606401610850565b60006040518060a00160405280438152602001428152602001336001600160a01b03168152602001858152602001612ae984611157565b90526000878152600d6020908152604080832089845282528083208a815560018082018b9055600280830180548084018255908752858720885160059092020190815594870151918501919091559185015191830180546001600160a01b0319166001600160a01b0390931692909217909155606084015160038301556080840151600490920191909155919250612b81888861113a565b600e805460018181019092557fbb7b4a454dc3493923482f07822329ed19e8244eff582cc204f8554c3620c3fd0182905560008a8152600b6020908152604082208684015460029091018054948501815583529120909101559050612be584611157565b6000898152600b602052604081206007018054909190612c06908490613b21565b90915550506007546040516323b872dd60e01b81526001600160a01b03909116906323b872dd90612c3f90339030908990600401614223565b6020604051808303816000875af1158015612c5e573d6000803e3d6000fd5b505050506040513d601f19601f82011682018060405250810190612c829190613f5b565b50612ca56040518060600160405280602d81526020016142da602d91398561323e565b5050505050505050565b6000612cbb84836116d6565b90506000612cc882610909565b600754604051636eb1769f60e11b815233600482015230602482015291925082916001600160a01b039091169063dd62ed3e90604401602060405180830381865afa158015612d1b573d6000803e3d6000fd5b505050506040513d601f19601f82011682018060405250810190612d3f91906141d3565b1015612d5d5760405162461bcd60e51b8152600401610850906141ec565b6007546040516323b872dd60e01b81526001600160a01b03909116906323b872dd90612d9190339030908690600401614223565b6020604051808303816000875af1158015612db0573d6000803e3d6000fd5b505050506040513d601f19601f82011682018060405250810190612dd49190613f5b565b50600d600086815260200190815260200160002060008581526020019081526020016000206002016040518060a00160405280438152602001428152602001336001600160a01b03168152602001858152602001612e3184611157565b905281546001808201845560009384526020938490208351600590930201918255928201519281019290925560408101516002830180546001600160a01b0319166001600160a01b039092169190911790556060810151600383015560800151600490910155612ea081611157565b6000868152600b602052604081206007018054909190612ec1908490613b21565b90915550505050505050565b6000838152600d6020908152604080832085845290915281206002018054612ef790600190613c2c565b81548110612f0757612f07613af5565b600091825260208220600260059092020101546001600160a01b03169150612f2f85846116d6565b905060008111612f515760405162461bcd60e51b815260040161085090614176565b6000858152600d6020908152604080832087845290915281206002018054612f7b90600190613c2c565b81548110612f8b57612f8b613af5565b90600052602060002090600502016003015490506000612faa82610909565b90506000612fb784610909565b9050612fc38282613b21565b600754604051636eb1769f60e11b81523360048201523060248201526001600160a01b039091169063dd62ed3e90604401602060405180830381865afa158015613011573d6000803e3d6000fd5b505050506040513d601f19601f8201168201806040525081019061303591906141d3565b10156130535760405162461bcd60e51b8152600401610850906141ec565b6007546040516323b872dd60e01b81526001600160a01b03909116906323b872dd9061308790339030908690600401614223565b6020604051808303816000875af11580156130a6573d6000803e3d6000fd5b505050506040513d601f19601f820116820180604052508101906130ca9190613f5b565b506007546040516323b872dd60e01b81526001600160a01b03909116906323b872dd906130ff90339089908790600401614223565b6020604051808303816000875af115801561311e573d6000803e3d6000fd5b505050506040513d601f19601f820116820180604052508101906131429190613f5b565b50600d600089815260200190815260200160002060008881526020019081526020016000206002016040518060a00160405280438152602001428152602001336001600160a01b0316815260200188815260200161319f84611157565b905281546001808201845560009384526020938490208351600590930201918255928201519281019290925560408101516002830180546001600160a01b0319166001600160a01b03909216919091179055606081015160038301556080015160049091015561320e81611157565b6000898152600b60205260408120600701805490919061322f908490613b21565b90915550505050505050505050565b6116d2828260405160240161325492919061428d565b60408051601f198184030181529190526020810180516001600160e01b0316632d839cb360e21b17905261380c565b600060018211613291575090565b816001600160801b82106132aa5760809190911c9060401b5b6801000000000000000082106132c55760409190911c9060201b5b64010000000082106132dc5760209190911c9060101b5b6201000082106132f15760109190911c9060081b5b61010082106133055760089190911c9060041b5b601082106133185760049190911c9060021b5b600482106133245760011b5b600302600190811c9081858161333c5761333c613c3f565b048201901c9050600181858161335457613354613c3f565b048201901c9050600181858161336c5761336c613c3f565b048201901c9050600181858161338457613384613c3f565b048201901c9050600181858161339c5761339c613c3f565b048201901c905060018185816133b4576133b4613c3f565b048201901c90506133d38185816133cd576133cd613c3f565b04821190565b90039392505050565b6116d282826040516024016133f29291906142af565b60408051601f198184030181529190526020810180516001600160e01b031663319af33360e01b17905261380c565b600081620d89e881111561345b5760405162461bcd60e51b81526020600482015260016024820152601560fa1b6044820152606401610850565b60008160011660000361347257600160801b613484565b6ffffcb933bd6fad37aa2d162d1a5940015b70ffffffffffffffffffffffffffffffffff16905060028216156134c35760806134be826ffff97272373d413259a46990580e213a613e39565b901c90505b60048216156134ed5760806134e8826ffff2e50f5f656932ef12357cf3c7fdcc613e39565b901c90505b6008821615613517576080613512826fffe5caca7e10e4e61c3624eaa0941cd0613e39565b901c90505b601082161561354157608061353c826fffcb9843d60f6159c9db58835c926644613e39565b901c90505b602082161561356b576080613566826fff973b41fa98c081472e6896dfb254c0613e39565b901c90505b6040821615613595576080613590826fff2ea16466c96a3843ec78b326b52861613e39565b901c90505b60808216156135bf5760806135ba826ffe5dee046a99a2a811c461f1969c3053613e39565b901c90505b6101008216156135ea5760806135e5826ffcbe86c7900a88aedcffc83b479aa3a4613e39565b901c90505b610200821615613615576080613610826ff987a7253ac413176f2b074cf7815e54613e39565b901c90505b61040082161561364057608061363b826ff3392b0822b70005940c7a398e4b70f3613e39565b901c90505b61080082161561366b576080613666826fe7159475a2c29b7443b29c7fa6e889d9613e39565b901c90505b611000821615613696576080613691826fd097f3bdfd2022b8845ad8f792aa5825613e39565b901c90505b6120008216156136c15760806136bc826fa9f746462d870fdf8a65dc1f90e061e5613e39565b901c90505b6140008216156136ec5760806136e7826f70d869a156d2a1b890bb3df62baf32f7613e39565b901c90505b618000821615613717576080613712826f31be135f97d08fd981231505542fcfa6613e39565b901c90505b6201000082161561374357608061373e826f09aa508b5b7a84e1c677de54f3e99bc9613e39565b901c90505b6202000082161561376e576080613769826e5d6af8dedb81196699c329225ee604613e39565b901c90505b62040000821615613798576080613793826d2216e584f5fa1ea926041bedfe98613e39565b901c90505b620800008216156137c05760806137bb826b048a170391f7dc42444e8fa2613e39565b901c90505b83156137d5576137d281600019613e25565b90505b6137e464010000000082613c55565b156137f05760016137f3565b60005b6138049060ff16602083901c613b21565b949350505050565b61381581613818565b50565b60006a636f6e736f6c652e6c6f679050600080835160208501845afa505050565b60006020828403121561384b57600080fd5b5035919050565b6020808252825182820181905260009190848201906040850190845b8181101561388a5783518352928401929184019160010161386e565b50909695505050505050565b600080604083850312156138a957600080fd5b50508035926020909101359150565b634e487b7160e01b600052602160045260246000fd5b60208101600483106138e2576138e26138b8565b91905290565b6000806000606084860312156138fd57600080fd5b505081359360208301359350604090920135919050565b80518252602080820151908301526040808201516001600160a01b031690830152606080820151908301526080908101519082015260a00190565b6000602080835260808301845182850152818501516040850152604085015160608086015281815180845260a0870191508483019350600092505b808310156139af5761399d828551613914565b9150848401935060018301925061398a565b509695505050505050565b6000602080835261012083018451828501528185015160408501526040850151610100806060870152828251808552610140880191508584019450600093505b80841015613a1a57845182529385019360019390930192908501906139fa565b5060608801516001600160a01b03811660808901529450608088015160a088015260a088015160c088015260c088015160e088015260e088015182880152809550505050505092915050565b801515811461381557600080fd5b60008060408385031215613a8757600080fd5b823591506020830135613a9981613a66565b809150509250929050565b60208101600583106138e2576138e26138b8565b6020808252825182820181905260009190848201906040850190845b8181101561388a57613ae7838551613914565b938501939250600101613ad4565b634e487b7160e01b600052603260045260246000fd5b634e487b7160e01b600052601160045260246000fd5b8082018082111561093a5761093a613b0b565b600060018201613b4657613b46613b0b565b5060010190565b602080825260139082015272119c985b5948191bd95cdb89dd08195e1a5cdd606a1b604082015260600190565b6000815480845260208085019450836000528060002060005b83811015613baf57815487529582019560019182019101613b93565b509495945050505050565b6020815281546020820152600182015460408201526000610100806060840152613beb610120840160028601613b7a565b60038501546001600160a01b03166080850152600485015460a0850152600585015460c0850152600685015460e08501526007909401549201919091525090565b8181038181111561093a5761093a613b0b565b634e487b7160e01b600052601260045260246000fd5b600082613c6457613c64613c3f565b500690565b60006060808401835485526001808501546020818189015260029150818701604086818b015285825480885260809750878c0191508360005284600020935060005b81811015613cf557845483528785015486840152868501546001600160a01b03168484015260038501548a84015260048501548984015260059094019360a0909201918701613cab565b50909b9a5050505050505050505050565b6020815260006111336020830184613c69565b60ff828116828216039081111561093a5761093a613b0b565b600181815b80851115613d6d578160001904821115613d5357613d53613b0b565b80851615613d6057918102915b93841c9390800290613d37565b509250929050565b600082613d845750600161093a565b81613d915750600061093a565b8160018114613da75760028114613db157613dcd565b600191505061093a565b60ff841115613dc257613dc2613b0b565b50506001821b61093a565b5060208310610133831016604e8410600b8410161715613df0575081810a61093a565b613dfa8383613d32565b8060001904821115613e0e57613e0e613b0b565b029392505050565b600061113360ff841683613d75565b600082613e3457613e34613c3f565b500490565b808202811582820484141761093a5761093a613b0b565b6001600160a01b038116811461381557600080fd5b805161ffff81168114613e7757600080fd5b919050565b805160ff81168114613e7757600080fd5b600080600080600080600060e0888a031215613ea857600080fd5b8751613eb381613e50565b8097505060208801518060020b8114613ecb57600080fd5b9550613ed960408901613e65565b9450613ee760608901613e65565b9350613ef560808901613e65565b9250613f0360a08901613e7c565b915060c0880151613f1381613a66565b8091505092959891949750929550565b600060208284031215613f3557600080fd5b815161113381613e50565b600060208284031215613f5257600080fd5b61113382613e7c565b600060208284031215613f6d57600080fd5b815161113381613a66565b634e487b7160e01b600052604160045260246000fd5b6020808252825182820181905260009190848201906040850190845b8181101561388a57835163ffffffff1683529284019291840191600101613faa565b604051601f8201601f1916810167ffffffffffffffff81118282101715613ff557613ff5613f78565b604052919050565b600067ffffffffffffffff82111561401757614017613f78565b5060051b60200190565b600082601f83011261403257600080fd5b8151602061404761404283613ffd565b613fcc565b82815260059290921b8401810191818101908684111561406657600080fd5b8286015b848110156139af57805161407d81613e50565b835291830191830161406a565b6000806040838503121561409d57600080fd5b825167ffffffffffffffff808211156140b557600080fd5b818501915085601f8301126140c957600080fd5b815160206140d961404283613ffd565b82815260059290921b840181019181810190898411156140f857600080fd5b948201945b838610156141265785518060060b81146141175760008081fd5b825294820194908201906140fd565b9188015191965090935050508082111561413f57600080fd5b5061414c85828601614021565b9150509250929050565b818103600083128015838313168383128216171561108857611088613b0b565b6020808252603c908201527f5461782068617320746f2062652067726561746572207468616e20302e20496e60408201527f63726561736520746865206163717569736974696f6e20707269636500000000606082015260800190565b6000602082840312156141e557600080fd5b5051919050565b6020808252601e908201527f416c6c6f77616e636520746f207370656e642073657420746f6f206c6f770000604082015260600190565b6001600160a01b039384168152919092166020820152604081019190915260600190565b6000815180845260005b8181101561426d57602081850181015186830182015201614251565b506000602082860101526020601f19601f83011685010191505092915050565b6040815260006142a06040830185614247565b90508260208301529392505050565b6040815260006142c26040830185614247565b905060018060a01b0383166020830152939250505056fe54617820616d6f756e74207472616e7366657272656420746f20746865206d61726b657420636f6e74726163744e657874206672616d652072657761726420706f6f6c20616674657220726f6c6c6f7665724e6f2077696e6e65722c20616464696e67207061796f757420746f206e657874206672616d65277320706f6f6c5472616e7366657272696e672070726f746f636f6c2066656520746f206f776e6572a2646970667358221220036d6f0a9fd4adcc149e20cad831f6695cdd3a9d2113461e170aba36e695170e64736f6c63430008140033",
  "linkReferences": {},
  "deployedLinkReferences": {}
}