{
  "_format": "hh-sol-artifact-1",
  "contractName": "Market",
  "sourceName": "contracts/Market.sol",
  "abi": [
    {
      "inputs": [],
      "stateMutability": "nonpayable",
      "type": "constructor"
    },
    {
      "anonymous": false,
      "inputs": [
        {
          "components": [
            {
              "internalType": "uint256",
              "name": "frameKey",
              "type": "uint256"
            },
            {
              "internalType": "uint256",
              "name": "rate",
              "type": "uint256"
            },
            {
              "internalType": "uint256[]",
              "name": "lotKeys",
              "type": "uint256[]"
            },
            {
              "internalType": "address",
              "name": "claimedBy",
              "type": "address"
            },
            {
              "internalType": "uint256",
              "name": "rateSettle",
              "type": "uint256"
            },
            {
              "internalType": "uint256",
              "name": "feeSettle",
              "type": "uint256"
            },
            {
              "internalType": "uint256",
              "name": "rewardSettle",
              "type": "uint256"
            },
            {
              "internalType": "uint256",
              "name": "feeReferral",
              "type": "uint256"
            }
          ],
          "indexed": false,
          "internalType": "struct Market.Frame",
          "name": "frame",
          "type": "tuple"
        }
      ],
      "name": "FrameUpdate",
      "type": "event"
    },
    {
      "anonymous": false,
      "inputs": [
        {
          "components": [
            {
              "internalType": "uint256",
              "name": "frameKey",
              "type": "uint256"
            },
            {
              "internalType": "uint256",
              "name": "lotKey",
              "type": "uint256"
            },
            {
              "components": [
                {
                  "internalType": "uint256",
                  "name": "blockNumber",
                  "type": "uint256"
                },
                {
                  "internalType": "uint256",
                  "name": "blockTimestamp",
                  "type": "uint256"
                },
                {
                  "internalType": "address",
                  "name": "owner",
                  "type": "address"
                },
                {
                  "internalType": "uint256",
                  "name": "acquisitionPrice",
                  "type": "uint256"
                },
                {
                  "internalType": "uint256",
                  "name": "taxCharged",
                  "type": "uint256"
                },
                {
                  "internalType": "uint256",
                  "name": "taxRefunded",
                  "type": "uint256"
                }
              ],
              "internalType": "struct Market.LotState[]",
              "name": "states",
              "type": "tuple[]"
            }
          ],
          "indexed": false,
          "internalType": "struct Market.Lot",
          "name": "lot",
          "type": "tuple"
        }
      ],
      "name": "LotUpdate",
      "type": "event"
    },
    {
      "inputs": [],
      "name": "accountingToken",
      "outputs": [
        {
          "internalType": "contract IERC20",
          "name": "",
          "type": "address"
        }
      ],
      "stateMutability": "view",
      "type": "function"
    },
    {
      "inputs": [],
      "name": "claimReferralRewards",
      "outputs": [],
      "stateMutability": "nonpayable",
      "type": "function"
    },
    {
      "inputs": [
        {
          "internalType": "uint256",
          "name": "timestamp",
          "type": "uint256"
        }
      ],
      "name": "clcFrameKey",
      "outputs": [
        {
          "internalType": "uint256",
          "name": "",
          "type": "uint256"
        }
      ],
      "stateMutability": "view",
      "type": "function"
    },
    {
      "inputs": [
        {
          "internalType": "uint256",
          "name": "value",
          "type": "uint256"
        }
      ],
      "name": "clcLotKey",
      "outputs": [
        {
          "internalType": "uint256",
          "name": "",
          "type": "uint256"
        }
      ],
      "stateMutability": "view",
      "type": "function"
    },
    {
      "inputs": [],
      "name": "clcRate",
      "outputs": [
        {
          "internalType": "uint256",
          "name": "",
          "type": "uint256"
        }
      ],
      "stateMutability": "view",
      "type": "function"
    },
    {
      "inputs": [
        {
          "internalType": "uint256",
          "name": "timestamp",
          "type": "uint256"
        }
      ],
      "name": "clcRateAvg",
      "outputs": [
        {
          "internalType": "uint256",
          "name": "",
          "type": "uint256"
        }
      ],
      "stateMutability": "view",
      "type": "function"
    },
    {
      "inputs": [
        {
          "internalType": "uint256",
          "name": "frameKey",
          "type": "uint256"
        }
      ],
      "name": "clcRewardFund",
      "outputs": [
        {
          "internalType": "uint256",
          "name": "",
          "type": "uint256"
        }
      ],
      "stateMutability": "view",
      "type": "function"
    },
    {
      "inputs": [
        {
          "internalType": "uint256",
          "name": "frameKey",
          "type": "uint256"
        },
        {
          "internalType": "uint256",
          "name": "acquisitionPrice",
          "type": "uint256"
        }
      ],
      "name": "clcTax",
      "outputs": [
        {
          "internalType": "uint256",
          "name": "",
          "type": "uint256"
        }
      ],
      "stateMutability": "view",
      "type": "function"
    },
    {
      "inputs": [],
      "name": "dPrice",
      "outputs": [
        {
          "internalType": "uint256",
          "name": "",
          "type": "uint256"
        }
      ],
      "stateMutability": "view",
      "type": "function"
    },
    {
      "inputs": [],
      "name": "feeProtocol",
      "outputs": [
        {
          "internalType": "uint256",
          "name": "",
          "type": "uint256"
        }
      ],
      "stateMutability": "view",
      "type": "function"
    },
    {
      "inputs": [
        {
          "internalType": "uint256",
          "name": "",
          "type": "uint256"
        }
      ],
      "name": "frames",
      "outputs": [
        {
          "internalType": "uint256",
          "name": "frameKey",
          "type": "uint256"
        },
        {
          "internalType": "uint256",
          "name": "rate",
          "type": "uint256"
        },
        {
          "internalType": "address",
          "name": "claimedBy",
          "type": "address"
        },
        {
          "internalType": "uint256",
          "name": "rateSettle",
          "type": "uint256"
        },
        {
          "internalType": "uint256",
          "name": "feeSettle",
          "type": "uint256"
        },
        {
          "internalType": "uint256",
          "name": "rewardSettle",
          "type": "uint256"
        },
        {
          "internalType": "uint256",
          "name": "feeReferral",
          "type": "uint256"
        }
      ],
      "stateMutability": "view",
      "type": "function"
    },
    {
      "inputs": [
        {
          "internalType": "uint256",
          "name": "",
          "type": "uint256"
        }
      ],
      "name": "framesKeys",
      "outputs": [
        {
          "internalType": "uint256",
          "name": "",
          "type": "uint256"
        }
      ],
      "stateMutability": "view",
      "type": "function"
    },
    {
      "inputs": [
        {
          "internalType": "uint256",
          "name": "frameKey",
          "type": "uint256"
        }
      ],
      "name": "getFrame",
      "outputs": [
        {
          "components": [
            {
              "internalType": "uint256",
              "name": "frameKey",
              "type": "uint256"
            },
            {
              "internalType": "uint256",
              "name": "rate",
              "type": "uint256"
            },
            {
              "internalType": "uint256[]",
              "name": "lotKeys",
              "type": "uint256[]"
            },
            {
              "internalType": "address",
              "name": "claimedBy",
              "type": "address"
            },
            {
              "internalType": "uint256",
              "name": "rateSettle",
              "type": "uint256"
            },
            {
              "internalType": "uint256",
              "name": "feeSettle",
              "type": "uint256"
            },
            {
              "internalType": "uint256",
              "name": "rewardSettle",
              "type": "uint256"
            },
            {
              "internalType": "uint256",
              "name": "feeReferral",
              "type": "uint256"
            }
          ],
          "internalType": "struct Market.Frame",
          "name": "",
          "type": "tuple"
        }
      ],
      "stateMutability": "view",
      "type": "function"
    },
    {
      "inputs": [
        {
          "internalType": "uint256",
          "name": "frameKey",
          "type": "uint256"
        }
      ],
      "name": "getFrameLotKeys",
      "outputs": [
        {
          "internalType": "uint256[]",
          "name": "",
          "type": "uint256[]"
        }
      ],
      "stateMutability": "view",
      "type": "function"
    },
    {
      "inputs": [
        {
          "internalType": "uint256",
          "name": "frameKey",
          "type": "uint256"
        },
        {
          "internalType": "uint256",
          "name": "lotKey",
          "type": "uint256"
        }
      ],
      "name": "getLot",
      "outputs": [
        {
          "components": [
            {
              "internalType": "uint256",
              "name": "frameKey",
              "type": "uint256"
            },
            {
              "internalType": "uint256",
              "name": "lotKey",
              "type": "uint256"
            },
            {
              "components": [
                {
                  "internalType": "uint256",
                  "name": "blockNumber",
                  "type": "uint256"
                },
                {
                  "internalType": "uint256",
                  "name": "blockTimestamp",
                  "type": "uint256"
                },
                {
                  "internalType": "address",
                  "name": "owner",
                  "type": "address"
                },
                {
                  "internalType": "uint256",
                  "name": "acquisitionPrice",
                  "type": "uint256"
                },
                {
                  "internalType": "uint256",
                  "name": "taxCharged",
                  "type": "uint256"
                },
                {
                  "internalType": "uint256",
                  "name": "taxRefunded",
                  "type": "uint256"
                }
              ],
              "internalType": "struct Market.LotState[]",
              "name": "states",
              "type": "tuple[]"
            }
          ],
          "internalType": "struct Market.Lot",
          "name": "",
          "type": "tuple"
        }
      ],
      "stateMutability": "view",
      "type": "function"
    },
    {
      "inputs": [
        {
          "internalType": "uint256",
          "name": "frameKey",
          "type": "uint256"
        },
        {
          "internalType": "uint256",
          "name": "lotKey",
          "type": "uint256"
        }
      ],
      "name": "getLotStates",
      "outputs": [
        {
          "components": [
            {
              "internalType": "uint256",
              "name": "blockNumber",
              "type": "uint256"
            },
            {
              "internalType": "uint256",
              "name": "blockTimestamp",
              "type": "uint256"
            },
            {
              "internalType": "address",
              "name": "owner",
              "type": "address"
            },
            {
              "internalType": "uint256",
              "name": "acquisitionPrice",
              "type": "uint256"
            },
            {
              "internalType": "uint256",
              "name": "taxCharged",
              "type": "uint256"
            },
            {
              "internalType": "uint256",
              "name": "taxRefunded",
              "type": "uint256"
            }
          ],
          "internalType": "struct Market.LotState[]",
          "name": "",
          "type": "tuple[]"
        }
      ],
      "stateMutability": "view",
      "type": "function"
    },
    {
      "inputs": [
        {
          "internalType": "uint256",
          "name": "frameKey",
          "type": "uint256"
        }
      ],
      "name": "getLotsKeysInFrame",
      "outputs": [
        {
          "internalType": "uint256[]",
          "name": "",
          "type": "uint256[]"
        }
      ],
      "stateMutability": "view",
      "type": "function"
    },
    {
      "inputs": [
        {
          "internalType": "uint256",
          "name": "frameKey",
          "type": "uint256"
        }
      ],
      "name": "getStateFrame",
      "outputs": [
        {
          "internalType": "enum Market.SFrame",
          "name": "",
          "type": "uint8"
        }
      ],
      "stateMutability": "view",
      "type": "function"
    },
    {
      "inputs": [
        {
          "internalType": "uint256",
          "name": "frameKey",
          "type": "uint256"
        },
        {
          "internalType": "uint256",
          "name": "lotKey",
          "type": "uint256"
        }
      ],
      "name": "getStateLot",
      "outputs": [
        {
          "internalType": "enum Market.SLot",
          "name": "",
          "type": "uint8"
        }
      ],
      "stateMutability": "view",
      "type": "function"
    },
    {
      "inputs": [],
      "name": "getUncollectedRewards",
      "outputs": [
        {
          "internalType": "uint256",
          "name": "",
          "type": "uint256"
        }
      ],
      "stateMutability": "view",
      "type": "function"
    },
    {
      "inputs": [
        {
          "internalType": "address",
          "name": "user",
          "type": "address"
        },
        {
          "internalType": "uint256",
          "name": "frameKey",
          "type": "uint256"
        }
      ],
      "name": "getUserReward",
      "outputs": [
        {
          "internalType": "uint256",
          "name": "",
          "type": "uint256"
        }
      ],
      "stateMutability": "view",
      "type": "function"
    },
    {
      "inputs": [],
      "name": "initTimestamp",
      "outputs": [
        {
          "internalType": "uint256",
          "name": "",
          "type": "uint256"
        }
      ],
      "stateMutability": "view",
      "type": "function"
    },
    {
      "inputs": [
        {
          "internalType": "uint256",
          "name": "",
          "type": "uint256"
        },
        {
          "internalType": "uint256",
          "name": "",
          "type": "uint256"
        }
      ],
      "name": "lots",
      "outputs": [
        {
          "internalType": "uint256",
          "name": "frameKey",
          "type": "uint256"
        },
        {
          "internalType": "uint256",
          "name": "lotKey",
          "type": "uint256"
        }
      ],
      "stateMutability": "view",
      "type": "function"
    },
    {
      "inputs": [
        {
          "components": [
            {
              "internalType": "uint256",
              "name": "frameKey",
              "type": "uint256"
            },
            {
              "internalType": "uint256",
              "name": "rate",
              "type": "uint256"
            },
            {
              "internalType": "uint256[]",
              "name": "lotKeys",
              "type": "uint256[]"
            },
            {
              "internalType": "address",
              "name": "claimedBy",
              "type": "address"
            },
            {
              "internalType": "uint256",
              "name": "rateSettle",
              "type": "uint256"
            },
            {
              "internalType": "uint256",
              "name": "feeSettle",
              "type": "uint256"
            },
            {
              "internalType": "uint256",
              "name": "rewardSettle",
              "type": "uint256"
            },
            {
              "internalType": "uint256",
              "name": "feeReferral",
              "type": "uint256"
            }
          ],
          "internalType": "struct Market.Frame",
          "name": "frame",
          "type": "tuple"
        },
        {
          "internalType": "uint256",
          "name": "avgPrice",
          "type": "uint256"
        }
      ],
      "name": "overrideFrameRate",
      "outputs": [],
      "stateMutability": "nonpayable",
      "type": "function"
    },
    {
      "inputs": [],
      "name": "owner",
      "outputs": [
        {
          "internalType": "address",
          "name": "",
          "type": "address"
        }
      ],
      "stateMutability": "view",
      "type": "function"
    },
    {
      "inputs": [],
      "name": "period",
      "outputs": [
        {
          "internalType": "uint256",
          "name": "",
          "type": "uint256"
        }
      ],
      "stateMutability": "view",
      "type": "function"
    },
    {
      "inputs": [],
      "name": "referralPct",
      "outputs": [
        {
          "internalType": "uint256",
          "name": "",
          "type": "uint256"
        }
      ],
      "stateMutability": "view",
      "type": "function"
    },
    {
      "inputs": [
        {
          "internalType": "address",
          "name": "user",
          "type": "address"
        }
      ],
      "name": "referredBy",
      "outputs": [
        {
          "internalType": "address",
          "name": "",
          "type": "address"
        }
      ],
      "stateMutability": "view",
      "type": "function"
    },
    {
      "inputs": [
        {
          "internalType": "uint256",
          "name": "frameKey",
          "type": "uint256"
        }
      ],
      "name": "setFrameRate",
      "outputs": [],
      "stateMutability": "nonpayable",
      "type": "function"
    },
    {
      "inputs": [
        {
          "internalType": "uint256",
          "name": "frameKey",
          "type": "uint256"
        }
      ],
      "name": "settleFrame",
      "outputs": [
        {
          "internalType": "uint256",
          "name": "",
          "type": "uint256"
        }
      ],
      "stateMutability": "nonpayable",
      "type": "function"
    },
    {
      "inputs": [],
      "name": "tSettle",
      "outputs": [
        {
          "internalType": "uint256",
          "name": "",
          "type": "uint256"
        }
      ],
      "stateMutability": "view",
      "type": "function"
    },
    {
      "inputs": [],
      "name": "taxMarket",
      "outputs": [
        {
          "internalType": "uint256",
          "name": "",
          "type": "uint256"
        }
      ],
      "stateMutability": "view",
      "type": "function"
    },
    {
      "inputs": [
        {
          "internalType": "uint256",
          "name": "timestamp",
          "type": "uint256"
        },
        {
          "internalType": "uint256",
          "name": "rate",
          "type": "uint256"
        },
        {
          "internalType": "uint256",
          "name": "acquisitionPrice",
          "type": "uint256"
        },
        {
          "internalType": "address",
          "name": "referrer",
          "type": "address"
        }
      ],
      "name": "tradeLot",
      "outputs": [],
      "stateMutability": "nonpayable",
      "type": "function"
    },
    {
      "inputs": [],
      "name": "uniswapPool",
      "outputs": [
        {
          "internalType": "contract IUniswapV3Pool",
          "name": "",
          "type": "address"
        }
      ],
      "stateMutability": "view",
      "type": "function"
    },
    {
      "inputs": [
        {
          "internalType": "address",
          "name": "user",
          "type": "address"
        }
      ],
      "name": "userExists",
      "outputs": [
        {
          "internalType": "bool",
          "name": "",
          "type": "bool"
        }
      ],
      "stateMutability": "view",
      "type": "function"
    },
    {
      "inputs": [
        {
          "internalType": "address",
          "name": "",
          "type": "address"
        }
      ],
      "name": "users",
      "outputs": [
        {
          "internalType": "bool",
          "name": "exists",
          "type": "bool"
        },
        {
          "internalType": "address",
          "name": "referredBy",
          "type": "address"
        }
      ],
      "stateMutability": "view",
      "type": "function"
    },
    {
      "inputs": [
        {
          "internalType": "uint256",
          "name": "amount",
          "type": "uint256"
        }
      ],
      "name": "withdrawAccountingToken",
      "outputs": [],
      "stateMutability": "nonpayable",
      "type": "function"
    }
  ],
  "bytecode": "0x608060405262015180600055636592e180600155666a94d74f430000600255610258600355600480546001600160a01b03199081167367a9fe12fa6082d9d0203c84c6c56d3c4b269f281790915568056bc75e2d63100000600555662386f26fc1000060065560078054909116738f3cf7ad23cd3cadbd9735aff958023239c6a0631790556611c37937e0800060095534801561009b57600080fd5b50600880546001600160a01b031916331790556142c6806100bd6000396000f3fe608060405234801561001057600080fd5b50600436106102275760003560e01c80638da5cb5b11610130578063ba4e137f116100b8578063da68cf8b1161007c578063da68cf8b146105c9578063e107fb4f146105dc578063ef78d4fd146105ef578063fb0d5e09146105f8578063ffdabe2d1461061857600080fd5b8063ba4e137f14610568578063bad1265314610570578063bdd3d82514610590578063d18743dd146105a3578063d8d50008146105b657600080fd5b8063a10340bc116100ff578063a10340bc146103f3578063a87430ba1461048b578063a90f8e9a146104dd578063b866debb1461050e578063b93dafa91461052157600080fd5b80638da5cb5b1461039957806391a0846d146103c45780639592de18146103d75780639e9c4f08146103ea57600080fd5b80634c73884f116101b35780636f1aefc3116101825780636f1aefc31461033e5780637358c57a1461035e578063773d51eb146103675780637e996639146103875780638a5779c81461039057600080fd5b80634c73884f146102ef578063527eb4bc1461030f57806361eee2cb1461031857806369ca9e051461032b57600080fd5b806311235818116101fa57806311235818146102b85780632457e6201461025c57806339a6a489146102c05780633baf1587146102d3578063499a0fc4146102e657600080fd5b8063050e88401461022c57806305eaab4b146102525780630d0a1c1a1461025c5780630e666e491461027c575b600080fd5b61023f61023a3660046137f0565b61062b565b6040519081526020015b60405180910390f35b61025a61064c565b005b61026f61026a3660046137f0565b6109a6565b6040516102499190613809565b6102a861028a366004613872565b6001600160a01b03166000908152600c602052604090205460ff1690565b6040519015158152602001610249565b61023f610a0b565b61023f6102ce3660046137f0565b610c27565b61025a6102e13660046137f0565b610df4565b61023f60055481565b6103026102fd366004613896565b610f31565b60405161024991906138ce565b61023f60025481565b61023f6103263660046137f0565b61105e565b61025a6103393660046139e8565b611095565b61035161034c366004613896565b611191565b6040516102499190613b27565b61023f60015481565b61037a6103753660046137f0565b6112e8565b6040516102499190613b56565b61023f60065481565b61023f60035481565b6008546103ac906001600160a01b031681565b6040516001600160a01b039091168152602001610249565b61023f6103d2366004613c02565b611424565b61023f6103e53660046137f0565b611489565b61023f60095481565b6104486104013660046137f0565b600a602052600090815260409020805460018201546003830154600484015460058501546006860154600790960154949593946001600160a01b0390931693919290919087565b6040805197885260208801969096526001600160a01b03909416948601949094526060850191909152608084015260a083019190915260c082015260e001610249565b6104be610499366004613872565b600c6020526000908152604090205460ff81169061010090046001600160a01b031682565b6040805192151583526001600160a01b03909116602083015201610249565b6103ac6104eb366004613872565b6001600160a01b039081166000908152600c602052604090205461010090041690565b61023f61051c3660046137f0565b6114b4565b61055361052f366004613896565b600d6020908152600092835260408084209091529082529020805460019091015482565b60408051928352602083019190915201610249565b61023f611a01565b61058361057e3660046137f0565b611ad0565b6040516102499190613c2e565b6004546103ac906001600160a01b031681565b61025a6105b13660046137f0565b611b67565b61025a6105c4366004613c42565b611c4f565b6007546103ac906001600160a01b031681565b61023f6105ea366004613896565b611d8e565b61023f60005481565b61060b610606366004613896565b611e50565b6040516102499190613c83565b61023f6106263660046137f0565b611f06565b600b818154811061063b57600080fd5b600091825260209091200154905081565b336000908152600c602052604090205460ff166106845760405162461bcd60e51b815260040161067b90613c96565b60405180910390fd5b600b5460009067ffffffffffffffff8111156106a2576106a26138e8565b6040519080825280602002602001820160405280156106cb578160200160208202803683370190505b5090506000805b600b54811015610775576004610704600b83815481106106f4576106f4613cc3565b9060005260206000200154611ad0565b6004811115610715576107156138b8565b0361076357600b818154811061072d5761072d613cc3565b906000526020600020015483838151811061074a5761074a613cc3565b60209081029190910101528161075f81613cef565b9250505b8061076d81613cef565b9150506106d2565b50600081116107ba5760405162461bcd60e51b81526020600482015260116024820152704e6f20736574746c6564206672616d657360781b604482015260640161067b565b6000805b828110156108e457336000908152600c602052604081208551600290910191908690849081106107f0576107f0613cc3565b602090810291909101810151825281019190915260400160009081205460ff16151590036108d257336000908152600c6020526040812085516001909101919086908490811061084257610842613cc3565b6020026020010151815260200190815260200160002054826108649190613d08565b91506001600c6000336001600160a01b03166001600160a01b0316815260200190815260200160002060020160008684815181106108a4576108a4613cc3565b6020026020010151815260200190815260200160002060006101000a81548160ff0219169083151502179055505b806108dc81613cef565b9150506107be565b506000811161092b5760405162461bcd60e51b81526020600482015260136024820152724e6f207265776172647320746f20636c61696d60681b604482015260640161067b565b60075460405163a9059cbb60e01b8152336004820152602481018390526001600160a01b039091169063a9059cbb906044016020604051808303816000875af115801561097c573d6000803e3d6000fd5b505050506040513d601f19601f820116820180604052508101906109a09190613d2b565b50505050565b6000818152600a60209081526040918290206002018054835181840281018401909452808452606093928301828280156109ff57602002820191906000526020600020905b8154815260200190600101908083116109eb575b50505050509050919050565b336000908152600c602052604081205460ff16610a3a5760405162461bcd60e51b815260040161067b90613c96565b600b5460009067ffffffffffffffff811115610a5857610a586138e8565b604051908082528060200260200182016040528015610a81578160200160208202803683370190505b5090506000805b600b54811015610b1b576004610aaa600b83815481106106f4576106f4613cc3565b6004811115610abb57610abb6138b8565b03610b0957600b8181548110610ad357610ad3613cc3565b9060005260206000200154838381518110610af057610af0613cc3565b602090810291909101015281610b0581613cef565b9250505b80610b1381613cef565b915050610a88565b5060008111610b605760405162461bcd60e51b81526020600482015260116024820152704e6f20736574746c6564206672616d657360781b604482015260640161067b565b6000805b82811015610c1f57336000908152600c60205260408120855160029091019190869084908110610b9657610b96613cc3565b602090810291909101810151825281019190915260400160009081205460ff1615159003610c0d57336000908152600c60205260408120855160019091019190869084908110610be857610be8613cc3565b602002602001015181526020019081526020016000205482610c0a9190613d08565b91505b80610c1781613cef565b915050610b64565b509392505050565b600080805b6000848152600a6020526040902060020154811015610ded576000848152600a6020818152604080842080548552600d835290842088855292909152600201805483919085908110610c8057610c80613cc3565b90600052602060002001548152602001908152602001600020604051806060016040529081600082015481526020016001820154815260200160028201805480602002602001604051908101604052809291908181526020016000905b82821015610d4e5760008481526020908190206040805160c08101825260068602909201805483526001808201548486015260028201546001600160a01b03169284019290925260038101546060840152600481015460808401526005015460a08301529083529092019101610cdd565b5050505081525050905060005b816040015151811015610dd85781604001518181518110610d7e57610d7e613cc3565b60200260200101516080015184610d959190613d08565b935081604001518181518110610dad57610dad613cc3565b602002602001015160a0015184610dc49190613d46565b935080610dd081613cef565b915050610d5b565b50508080610de590613cef565b915050610c2c565b5092915050565b610e3560405180604001604052806012815260200171333930b6b2a5b2bc9015903832b934b7b21d60711b81525060005483610e309190613d08565b61214c565b610e676040518060400160405280601081526020016f313637b1b5973a34b6b2b9ba30b6b81d60811b8152504261214c565b60008054828252600a6020526040909120544291610e8491613d08565b1115610ed25760405162461bcd60e51b815260206004820152601b60248201527f4672616d652068617320746f20626520696e2074686520706173740000000000604482015260640161067b565b6000610edd82611f06565b6000838152600a6020526040908190206001810183905590519192507f929af310c689982c60d4ec73c6e4b602e89c6f6a31da7c2df4888fb0627cb2b191610f259190613d8e565b60405180910390a15050565b6000828152600d602090815260408083208484529091528120600101548103610f5c57506000611058565b6000610f6784611ad0565b6004811115610f7857610f786138b8565b03610f8557506000611058565b6001610f9084611ad0565b6004811115610fa157610fa16138b8565b1480610fc657506002610fb384611ad0565b6004811115610fc457610fc46138b8565b145b15610fd357506001611058565b6000838152600d602090815260408083208584528252808320600190810154878552600a9093529220909101541080159061104757506005546000848152600d602090815260408083208684529091529020600101546110339190613d08565b6000848152600a6020526040902060010154105b1561105457506002611058565b5060035b92915050565b6000600154821161107157505060015490565b6000546001546110819084613d46565b61108b9190613e16565b6110589083613d46565b6008546001600160a01b031633146110ff5760405162461bcd60e51b815260206004820152602760248201527f4f6e6c79206f776e65722063616e20757064617465206672616d6520636c6f736044820152666520707269636560c81b606482015260840161067b565b81516000036111205760405162461bcd60e51b815260040161067b90613e2a565b60608201516001600160a01b03161561117b5760405162461bcd60e51b815260206004820181905260248201527f4672616d65207265776172642077617320616c726561647920636c61696d6564604482015260640161067b565b90516000908152600a6020526040902060010155565b6111b560405180606001604052806000815260200160008152602001606081525090565b6000838152600d6020908152604080832085845290915281206001015490036112145760405162461bcd60e51b8152602060048201526011602482015270131bdd08191bd95cdb89dd08195e1a5cdd607a1b604482015260640161067b565b6000838152600d602090815260408083208584528252808320815160608101835281548152600182015481850152600282018054845181870281018701865281815292969395948701949293919290919084015b828210156112d95760008481526020908190206040805160c08101825260068602909201805483526001808201548486015260028201546001600160a01b03169284019290925260038101546060840152600481015460808401526005015460a08301529083529092019101611268565b50505091525090949350505050565b61133960405180610100016040528060008152602001600081526020016060815260200160006001600160a01b03168152602001600081526020016000815260200160008152602001600081525090565b6000828152600a602052604081205490036113665760405162461bcd60e51b815260040161067b90613e2a565b6000828152600a602090815260409182902082516101008101845281548152600182015481840152600282018054855181860281018601875281815292959394938601938301828280156113d957602002820191906000526020600020905b8154815260200190600101908083116113c5575b505050918352505060038201546001600160a01b0316602082015260048201546040820152600582015460608201526006820154608082015260079091015460a09091015292915050565b6001600160a01b0382166000908152600c602052604081205460ff1661145c5760405162461bcd60e51b815260040161067b90613c96565b506001600160a01b03919091166000908152600c6020908152604080832093835260019093019052205490565b600060055482101561149d57505060055490565b6005546114aa8184613e57565b6110589190613e6b565b6000818152600a602052604081205481036114e15760405162461bcd60e51b815260040161067b90613e2a565b60036114ec83611ad0565b60048111156114fd576114fd6138b8565b146115565760405162461bcd60e51b8152602060048201526024808201527f4672616d6520646f6573206e6f742068617665206120636c6f73652072617465604482015263081cd95d60e21b606482015260840161067b565b6000828152600a602052604081206001015461157190611489565b6000848152600d60209081526040808320848452825280832081516060810183528154815260018201548185015260028201805484518187028101870186528181529798509596919592949386019391929091879084015b8282101561163a5760008481526020908190206040805160c08101825260068602909201805483526001808201548486015260028201546001600160a01b03169284019290925260038101546060840152600481015460808401526005015460a083015290835290920191016115c9565b50505050815250509050600061164f85610c27565b90506000670de0b6b3a76400006002548361166a9190613e6b565b6116749190613e57565b6000878152600a60205260409020600581018290556007015490915061169a8284613d46565b6116a49190613d46565b6000878152600a60205260409081902060060191909155830151511561187357600754604084015180516001600160a01b039092169163a9059cbb91906116ed90600190613d46565b815181106116fd576116fd613cc3565b602002602001015160400151600a60008a8152602001908152602001600020600601546040518363ffffffff1660e01b81526004016117519291906001600160a01b03929092168252602082015260400190565b6020604051808303816000875af1158015611770573d6000803e3d6000fd5b505050506040513d601f19601f820116820180604052508101906117949190613d2b565b50604083015180516117a890600190613d46565b815181106117b8576117b8613cc3565b6020908102919091018101516040908101516000898152600a909352918190206003810180546001600160a01b0319166001600160a01b03948516179055600754600854600590920154925163a9059cbb60e01b81529184166004830152602482019290925291169063a9059cbb906044016020604051808303816000875af1158015611849573d6000803e3d6000fd5b505050506040513d601f19601f8201168201806040525081019061186d9190613d2b565b50611951565b6007546008546000888152600a6020526040902060058101546006909101546001600160a01b039384169363a9059cbb9316916118af91613d08565b6040516001600160e01b031960e085901b1681526001600160a01b03909216600483015260248201526044016020604051808303816000875af11580156118fa573d6000803e3d6000fd5b505050506040513d601f19601f8201168201806040525081019061191e9190613d2b565b506008546000878152600a6020526040902060030180546001600160a01b0319166001600160a01b039092169190911790555b6000868152600a6020526040908190206001810154600490910155517f906ff162b3f2709ab28fb678d43913964434148dd206e9b17adb3c1255090cb19061199a908590613b27565b60405180910390a16000868152600a60205260409081902090517f929af310c689982c60d4ec73c6e4b602e89c6f6a31da7c2df4888fb0627cb2b1916119df91613d8e565b60405180910390a150505060009283525050600a602052604090206006015490565b6004805460408051633850c7bd60e01b8152905160009384936001600160a01b031692633850c7bd928183019260e0928290030181865afa158015611a4a573d6000803e3d6000fd5b505050506040513d601f19601f82011682018060405250810190611a6e9190613e94565b50505050505090506000816001600160a01b031690506000600160601b82670de0b6b3a7640000611a9f9190613e6b565b611aa99190613e57565b9050670de0b6b3a7640000611abe8280613e6b565b611ac89190613e57565b949350505050565b6000818152600a60205260408120548103611aed57506000919050565b6000828152600a60205260409020600301546001600160a01b031615611b1557506004919050565b60008054838252600a602052604090912054611b319190613d08565b421015611b4057506001919050565b6000828152600a602052604090206001015415611b5f57506003919050565b506002919050565b6008546001600160a01b03163314611bd25760405162461bcd60e51b815260206004820152602860248201527f4f6e6c79206f776e65722063616e207769746864726177206163636f756e74696044820152673733903a37b5b2b760c11b606482015260840161067b565b60075460085460405163a9059cbb60e01b81526001600160a01b0391821660048201526024810184905291169063a9059cbb906044016020604051808303816000875af1158015611c27573d6000803e3d6000fd5b505050506040513d601f19601f82011682018060405250810190611c4b9190613d2b565b5050565b6000611c5a8561105e565b90506000611c6785611489565b6000838152600d6020908152604080832084845290915281206001015491925003611cbf576000828152600a60205260408120549003611cac57611caa86612191565b505b611cb8828286866122ce565b50506109a0565b6000828152600d6020908152604080832084845290915290206002018054339190611cec90600190613d46565b81548110611cfc57611cfc613cc3565b60009182526020909120600260069092020101546001600160a01b031603611d2a57611cb8828286866125de565b611d3682828686612a89565b6000828152600d602090815260408083208484529091529081902090517f906ff162b3f2709ab28fb678d43913964434148dd206e9b17adb3c1255090cb191611d7e91613f2e565b60405180910390a1505050505050565b60004260005484611d9f9190613d08565b11611dec5760405162461bcd60e51b815260206004820152601d60248201527f4672616d652068617320746f20626520696e2074686520667574757265000000604482015260640161067b565b60008054600654611dfd9190613e57565b905060004260005486611e109190613d08565b611e1a9190613d46565b90506000670de0b6b3a764000085611e328585613e6b565b611e3c9190613e6b565b611e469190613e57565b9695505050505050565b6000828152600d602090815260408083208484528252808320600201805482518185028101850190935280835260609492939192909184015b82821015611efa5760008481526020908190206040805160c08101825260068602909201805483526001808201548486015260028201546001600160a01b03169284019290925260038101546060840152600481015460808401526005015460a08301529083529092019101611e89565b50505050905092915050565b6000806003548342611f189190613d46565b611f229190613d08565b90506000611f308442613d46565b60408051600280825260608201835292935060009290916020830190803683370190505090508281600081518110611f6a57611f6a613cc3565b602002602001019063ffffffff16908163ffffffff16815250508181600181518110611f9857611f98613cc3565b63ffffffff909216602092830291909101909101526004805460405163883bdbfd60e01b81526000926001600160a01b039092169163883bdbfd91611fdf91869101613fdc565b600060405180830381865afa158015611ffc573d6000803e3d6000fd5b505050506040513d6000823e601f3d908101601f19168201604052612024919081019061407e565b50905060008160008151811061203c5761203c613cc3565b602002602001015160060b8260018151811061205a5761205a613cc3565b602002602001015160060b61206f919061414a565b905060008112156120b85760405162461bcd60e51b81526020600482015260136024820152724e65676174697665207469636b2064656c746160681b604482015260640161067b565b8060006120ce63ffffffff808816908916613d46565b905060006120dc8284613e57565b905060006120e98261303b565b9050600061210766010000000000006001600160a01b038416613e57565b905060006121158280613e6b565b90506000600160601b61213083670de0b6b3a7640000613e6b565b61213a9190613e57565b9e9d5050505050505050505050505050565b611c4b828260405160240161216292919061416a565b60408051601f198184030181529190526020810180516001600160e01b0316632d839cb360e21b17905261341e565b60008061219d8361105e565b6000818152600a6020526040902054909150156121f35760405162461bcd60e51b81526020600482015260146024820152734672616d6520616c72656164792065786973747360601b604482015260640161067b565b42600054826122029190613d08565b10156122505760405162461bcd60e51b815260206004820152601d60248201527f4672616d652068617320746f20626520696e2074686520667574757265000000604482015260640161067b565b6000818152600a602052604090819020828155600b8054600181019091557f0175b7a638427703f0dbe7bb9bbf987a2551717b34e79f33b5b1008d1fa01db90183905590517f929af310c689982c60d4ec73c6e4b602e89c6f6a31da7c2df4888fb0627cb2b1916122c091613d8e565b60405180910390a192915050565b60006122da8584611d8e565b9050600081116122fc5760405162461bcd60e51b815260040161067b906141bf565b600754604051636eb1769f60e11b815233600482015230602482015282916001600160a01b03169063dd62ed3e90604401602060405180830381865afa15801561234a573d6000803e3d6000fd5b505050506040513d601f19601f8201168201806040525081019061236e919061421c565b101561238c5760405162461bcd60e51b815260040161067b90614235565b6000858152600d60209081526040808320878452909152902060010154156123eb5760405162461bcd60e51b81526020600482015260126024820152714c6f7420616c72656164792065786973747360701b604482015260640161067b565b6040805160c081018252438152426020808301918252338385019081526060840188815260808501878152600060a087018181528d8252600d86528882208d835286529781208d815560018082018e90556002808301805480840182558186529885208b516006909a0201988955985191880191909155945194860180546001600160a01b0319166001600160a01b0390961695909517909455915160038501555160048401559451600590920191909155928790528054919291829182916124b69190819061370a565b5050506000878152600a602090815260408083206001808601546002909201805491820181558552929093209091019190915560075490516323b872dd60e01b81526001600160a01b03909116906323b872dd9061251c9033903090889060040161426c565b6020604051808303816000875af115801561253b573d6000803e3d6000fd5b505050506040513d601f19601f8201168201806040525081019061255f9190613d2b565b50336000908152600c602052604090205460ff16612580576125808461342a565b336000908152600c60205260408082205461010090046001600160a01b0316825290205460ff16156125d557336000908152600c60205260409020546125d59061010090046001600160a01b03168489613566565b50505050505050565b6000848152600d602090815260408083208684529091528120600201805461263591879161260e90600190613d46565b8154811061261e5761261e613cc3565b906000526020600020906006020160030154611d8e565b905060006126438685611d8e565b9050808211156128505760006126598284613d46565b6007546000898152600d602090815260408083208b8452909152902060020180549293506001600160a01b039091169163a9059cbb919061269c90600190613d46565b815481106126ac576126ac613cc3565b600091825260209091206006909102016002015460405160e083901b6001600160e01b03191681526001600160a01b039091166004820152602481018490526044016020604051808303816000875af115801561270d573d6000803e3d6000fd5b505050506040513d601f19601f820116820180604052508101906127319190613d2b565b506000878152600d602090815260408083208984528252808320815160c0810183524381524281850190815233828501818152606084018d81526080850189815260a086018b81526002978801805460018082018355918d528b8d2098516006909102909801978855955195870195909555915195850180546001600160a01b0319166001600160a01b03909716969096179095559351600384015592516004830155516005909101558352600c90915290205460ff166127f5576127f58461342a565b336000908152600c60205260408082205461010090046001600160a01b0316825290205460ff161561284a57336000908152600c602052604090205461284a9061010090046001600160a01b0316828961362d565b50612a81565b600061285c8383613d46565b600754604051636eb1769f60e11b815233600482015230602482015291925082916001600160a01b039091169063dd62ed3e90604401602060405180830381865afa1580156128af573d6000803e3d6000fd5b505050506040513d601f19601f820116820180604052508101906128d3919061421c565b10156128f15760405162461bcd60e51b815260040161067b90614235565b6007546040516323b872dd60e01b81526001600160a01b03909116906323b872dd906129259033903090869060040161426c565b6020604051808303816000875af1158015612944573d6000803e3d6000fd5b505050506040513d601f19601f820116820180604052508101906129689190613d2b565b506000878152600d602090815260408083208984528252808320815160c0810183524381524281850190815233828501818152606084018d8152608085018a815260a086018a81526002978801805460018082018355918d528b8d2098516006909102909801978855955195870195909555915195850180546001600160a01b0319166001600160a01b03909716969096179095559351600384015592516004830155516005909101558352600c90915290205460ff16612a2c57612a2c8461342a565b336000908152600c60205260408082205461010090046001600160a01b0316825290205460ff16156125d557336000908152600c60205260409020546125d59061010090046001600160a01b03168289613566565b505050505050565b6000848152600d6020908152604080832086845290915281206002018054612ab390600190613d46565b81548110612ac357612ac3613cc3565b600091825260208220600260069092020101546001600160a01b03169150612aeb8685611d8e565b905060008111612b0d5760405162461bcd60e51b815260040161067b906141bf565b6000868152600d6020908152604080832088845290915281206002018054612b3790600190613d46565b81548110612b4757612b47613cc3565b90600052602060002090600602016003015490508082612b679190613d08565b600754604051636eb1769f60e11b81523360048201523060248201526001600160a01b039091169063dd62ed3e90604401602060405180830381865afa158015612bb5573d6000803e3d6000fd5b505050506040513d601f19601f82011682018060405250810190612bd9919061421c565b1015612bf75760405162461bcd60e51b815260040161067b90614235565b6007546040516323b872dd60e01b81526001600160a01b03909116906323b872dd90612c2b9033903090879060040161426c565b6020604051808303816000875af1158015612c4a573d6000803e3d6000fd5b505050506040513d601f19601f82011682018060405250810190612c6e9190613d2b565b506007546040516323b872dd60e01b81526001600160a01b03909116906323b872dd90612ca39033908790869060040161426c565b6020604051808303816000875af1158015612cc2573d6000803e3d6000fd5b505050506040513d601f19601f82011682018060405250810190612ce69190613d2b565b506000878152600d6020908152604080832089845290915281206002018054612d17918a9161260e90600190613d46565b60075460405163a9059cbb60e01b81526001600160a01b0387811660048301526024820184905292935091169063a9059cbb906044016020604051808303816000875af1158015612d6c573d6000803e3d6000fd5b505050506040513d601f19601f82011682018060405250810190612d909190613d2b565b50336000908152600c602052604090205460ff16612db157612db18561342a565b336000908152600c60205260408082205461010090046001600160a01b0316825290205460ff1615612e0657336000908152600c6020526040902054612e069061010090046001600160a01b0316848a613566565b6001600160a01b038085166000908152600c60205260408082205461010090049092168152205460ff1615612e61576001600160a01b038085166000908152600c6020526040902054612e619161010090910416828a61362d565b600d600089815260200190815260200160002060008881526020019081526020016000206002016040518060c00160405280438152602001428152602001866001600160a01b0316815260200184815260200160008152602001838152509080600181540180825580915050600190039060005260206000209060060201600090919091909150600082015181600001556020820151816001015560408201518160020160006101000a8154816001600160a01b0302191690836001600160a01b03160217905550606082015181600301556080820151816004015560a082015181600501555050600d600089815260200190815260200160002060008881526020019081526020016000206002016040518060c00160405280438152602001428152602001336001600160a01b0316815260200188815260200185815260200160008152509080600181540180825580915050600190039060005260206000209060060201600090919091909150600082015181600001556020820151816001015560408201518160020160006101000a8154816001600160a01b0302191690836001600160a01b03160217905550606082015181600301556080820151816004015560a0820151816005015550505050505050505050565b600081620d89e88111156130755760405162461bcd60e51b81526020600482015260016024820152601560fa1b604482015260640161067b565b60008160011660000361308c57600160801b61309e565b6ffffcb933bd6fad37aa2d162d1a5940015b70ffffffffffffffffffffffffffffffffff16905060028216156130dd5760806130d8826ffff97272373d413259a46990580e213a613e6b565b901c90505b6004821615613107576080613102826ffff2e50f5f656932ef12357cf3c7fdcc613e6b565b901c90505b600882161561313157608061312c826fffe5caca7e10e4e61c3624eaa0941cd0613e6b565b901c90505b601082161561315b576080613156826fffcb9843d60f6159c9db58835c926644613e6b565b901c90505b6020821615613185576080613180826fff973b41fa98c081472e6896dfb254c0613e6b565b901c90505b60408216156131af5760806131aa826fff2ea16466c96a3843ec78b326b52861613e6b565b901c90505b60808216156131d95760806131d4826ffe5dee046a99a2a811c461f1969c3053613e6b565b901c90505b6101008216156132045760806131ff826ffcbe86c7900a88aedcffc83b479aa3a4613e6b565b901c90505b61020082161561322f57608061322a826ff987a7253ac413176f2b074cf7815e54613e6b565b901c90505b61040082161561325a576080613255826ff3392b0822b70005940c7a398e4b70f3613e6b565b901c90505b610800821615613285576080613280826fe7159475a2c29b7443b29c7fa6e889d9613e6b565b901c90505b6110008216156132b05760806132ab826fd097f3bdfd2022b8845ad8f792aa5825613e6b565b901c90505b6120008216156132db5760806132d6826fa9f746462d870fdf8a65dc1f90e061e5613e6b565b901c90505b614000821615613306576080613301826f70d869a156d2a1b890bb3df62baf32f7613e6b565b901c90505b61800082161561333157608061332c826f31be135f97d08fd981231505542fcfa6613e6b565b901c90505b6201000082161561335d576080613358826f09aa508b5b7a84e1c677de54f3e99bc9613e6b565b901c90505b62020000821615613388576080613383826e5d6af8dedb81196699c329225ee604613e6b565b901c90505b620400008216156133b25760806133ad826d2216e584f5fa1ea926041bedfe98613e6b565b901c90505b620800008216156133da5760806133d5826b048a170391f7dc42444e8fa2613e6b565b901c90505b83156133ef576133ec81600019613e57565b90505b6133fe64010000000082613e16565b1561340a57600161340d565b60005b611ac89060ff16602083901c613d08565b613427816136e9565b50565b336000908152600c602052604090205460ff16156134805760405162461bcd60e51b81526020600482015260136024820152725573657220616c72656164792065786973747360681b604482015260640161067b565b6001600160a01b0381166134c657336000908152600c6020526040902080546001600160a01b0392909216610100026001600160a81b0319909216919091176001179055565b6001600160a01b0381166000908152600c602052604090205460ff1661352e5760405162461bcd60e51b815260206004820152601760248201527f526566657272657220646f6573206e6f74206578697374000000000000000000604482015260640161067b565b336000908152600c6020526040902080546001600160a01b0392909216610100026001600160a81b0319909216919091176001179055565b6001600160a01b0383166000908152600c602052604090205460ff1661359e5760405162461bcd60e51b815260040161067b90613c96565b6000670de0b6b3a7640000600954846135b79190613e6b565b6135c19190613e57565b6001600160a01b0385166000908152600c602090815260408083208684526001019091528120805492935083929091906135fc908490613d08565b90915550506000828152600a602052604081206007018054839290613622908490613d08565b909155505050505050565b6001600160a01b0383166000908152600c602052604090205460ff166136655760405162461bcd60e51b815260040161067b90613c96565b6000670de0b6b3a76400006009548461367e9190613e6b565b6136889190613e57565b6001600160a01b0385166000908152600c602090815260408083208684526001019091528120805492935083929091906136c3908490613d46565b90915550506000828152600a602052604081206007018054839290613622908490613d46565b60006a636f6e736f6c652e6c6f679050600080835160208501845afa505050565b82805482825590600052602060002090600602810192821561379e5760005260206000209160060282015b8281111561379e57825482556001808401549083015560028084015490830180546001600160a01b0319166001600160a01b0390921691909117905560038084015490830155600480840154908301556005808401549083015560069283019290910190613735565b506137aa9291506137ae565b5090565b5b808211156137aa576000808255600182018190556002820180546001600160a01b0319169055600382018190556004820181905560058201556006016137af565b60006020828403121561380257600080fd5b5035919050565b6020808252825182820181905260009190848201906040850190845b8181101561384157835183529284019291840191600101613825565b50909695505050505050565b6001600160a01b038116811461342757600080fd5b803561386d8161384d565b919050565b60006020828403121561388457600080fd5b813561388f8161384d565b9392505050565b600080604083850312156138a957600080fd5b50508035926020909101359150565b634e487b7160e01b600052602160045260246000fd5b60208101600483106138e2576138e26138b8565b91905290565b634e487b7160e01b600052604160045260246000fd5b604051610100810167ffffffffffffffff81118282101715613922576139226138e8565b60405290565b604051601f8201601f1916810167ffffffffffffffff81118282101715613951576139516138e8565b604052919050565b600067ffffffffffffffff821115613973576139736138e8565b5060051b60200190565b600082601f83011261398e57600080fd5b813560206139a361399e83613959565b613928565b82815260059290921b840181019181810190868411156139c257600080fd5b8286015b848110156139dd57803583529183019183016139c6565b509695505050505050565b600080604083850312156139fb57600080fd5b823567ffffffffffffffff80821115613a1357600080fd5b908401906101008287031215613a2857600080fd5b613a306138fe565b8235815260208301356020820152604083013582811115613a5057600080fd5b613a5c8882860161397d565b604083015250613a6e60608401613862565b60608201526080830135608082015260a083013560a082015260c083013560c082015260e083013560e0820152809450505050602083013590509250929050565b600081518084526020808501945080840160005b83811015613b1c5781518051885283810151848901526040808201516001600160a01b031690890152606080820151908901526080808201519089015260a0908101519088015260c09096019590820190600101613ac3565b509495945050505050565b60208152815160208201526020820151604082015260006040830151606080840152611ac86080840182613aaf565b6000602080835261012083018451828501528185015160408501526040850151610100806060870152828251808552610140880191508584019450600093505b80841015613bb65784518252938501936001939093019290850190613b96565b5060608801516001600160a01b03811660808901529450608088015160a088015260a088015160c088015260c088015160e088015260e088015182880152809550505050505092915050565b60008060408385031215613c1557600080fd5b8235613c208161384d565b946020939093013593505050565b60208101600583106138e2576138e26138b8565b60008060008060808587031215613c5857600080fd5b8435935060208501359250604085013591506060850135613c788161384d565b939692955090935050565b60208152600061388f6020830184613aaf565b602080825260139082015272155cd95c88191bd95cc81b9bdd08195e1a5cdd606a1b604082015260600190565b634e487b7160e01b600052603260045260246000fd5b634e487b7160e01b600052601160045260246000fd5b600060018201613d0157613d01613cd9565b5060010190565b8082018082111561105857611058613cd9565b8051801515811461386d57600080fd5b600060208284031215613d3d57600080fd5b61388f82613d1b565b8181038181111561105857611058613cd9565b6000815480845260208085019450836000528060002060005b83811015613b1c57815487529582019560019182019101613d72565b6020815281546020820152600182015460408201526000610100806060840152613dbf610120840160028601613d59565b60038501546001600160a01b03166080850152600485015460a0850152600585015460c0850152600685015460e08501526007909401549201919091525090565b634e487b7160e01b600052601260045260246000fd5b600082613e2557613e25613e00565b500690565b602080825260139082015272119c985b5948191bd95cdb89dd08195e1a5cdd606a1b604082015260600190565b600082613e6657613e66613e00565b500490565b808202811582820484141761105857611058613cd9565b805161ffff8116811461386d57600080fd5b600080600080600080600060e0888a031215613eaf57600080fd5b8751613eba8161384d565b8097505060208801518060020b8114613ed257600080fd5b9550613ee060408901613e82565b9450613eee60608901613e82565b9350613efc60808901613e82565b925060a088015160ff81168114613f1257600080fd5b9150613f2060c08901613d1b565b905092959891949750929550565b6000602080835260808084018554838601526001808701546040818189015260029150818901606080818b015285825480885260a09750878c0191508360005289600020935060005b81811015613fca5784548352878501548b840152868501546001600160a01b03168684015260038501548484015260048501548a84015260058501548984015260069094019360c0909201918701613f77565b50909c9b505050505050505050505050565b6020808252825182820181905260009190848201906040850190845b8181101561384157835163ffffffff1683529284019291840191600101613ff8565b600082601f83011261402b57600080fd5b8151602061403b61399e83613959565b82815260059290921b8401810191818101908684111561405a57600080fd5b8286015b848110156139dd5780516140718161384d565b835291830191830161405e565b6000806040838503121561409157600080fd5b825167ffffffffffffffff808211156140a957600080fd5b818501915085601f8301126140bd57600080fd5b815160206140cd61399e83613959565b82815260059290921b840181019181810190898411156140ec57600080fd5b948201945b8386101561411a5785518060060b811461410b5760008081fd5b825294820194908201906140f1565b9188015191965090935050508082111561413357600080fd5b506141408582860161401a565b9150509250929050565b8181036000831280158383131683831282161715610ded57610ded613cd9565b604081526000835180604084015260005b81811015614198576020818701810151606086840101520161417b565b506000606082850101526060601f19601f8301168401019150508260208301529392505050565b6020808252603c908201527f5461782068617320746f2062652067726561746572207468616e20302e20496e60408201527f63726561736520746865206163717569736974696f6e20707269636500000000606082015260800190565b60006020828403121561422e57600080fd5b5051919050565b6020808252601e908201527f416c6c6f77616e636520746f207370656e642073657420746f6f206c6f770000604082015260600190565b6001600160a01b03938416815291909216602082015260408101919091526060019056fea264697066735822122054b8105f3e87d918686fb842be3d2e43679efab13b4f69d9b7bf3b0bb064e61464736f6c63430008140033",
  "linkReferences": {},
  "deployedLinkReferences": {}
}