{
  "_format": "hh-sol-artifact-1",
  "contractName": "Market",
  "sourceName": "contracts/Market.sol",
  "abi": [
    {
      "inputs": [],
      "stateMutability": "nonpayable",
      "type": "constructor"
    },
    {
      "anonymous": false,
      "inputs": [
        {
          "components": [
            {
              "internalType": "uint256",
              "name": "frameKey",
              "type": "uint256"
            },
            {
              "internalType": "uint256",
              "name": "rate",
              "type": "uint256"
            },
            {
              "internalType": "uint256[]",
              "name": "lotKeys",
              "type": "uint256[]"
            },
            {
              "internalType": "address",
              "name": "claimedBy",
              "type": "address"
            },
            {
              "internalType": "uint256",
              "name": "rateSettle",
              "type": "uint256"
            },
            {
              "internalType": "uint256",
              "name": "feeSettle",
              "type": "uint256"
            },
            {
              "internalType": "uint256",
              "name": "rewardSettle",
              "type": "uint256"
            },
            {
              "internalType": "uint256",
              "name": "feeReferral",
              "type": "uint256"
            }
          ],
          "indexed": false,
          "internalType": "struct Market.Frame",
          "name": "frame",
          "type": "tuple"
        }
      ],
      "name": "FrameUpdate",
      "type": "event"
    },
    {
      "anonymous": false,
      "inputs": [
        {
          "components": [
            {
              "internalType": "uint256",
              "name": "frameKey",
              "type": "uint256"
            },
            {
              "internalType": "uint256",
              "name": "lotKey",
              "type": "uint256"
            },
            {
              "components": [
                {
                  "internalType": "uint256",
                  "name": "blockNumber",
                  "type": "uint256"
                },
                {
                  "internalType": "uint256",
                  "name": "blockTimestamp",
                  "type": "uint256"
                },
                {
                  "internalType": "address",
                  "name": "owner",
                  "type": "address"
                },
                {
                  "internalType": "uint256",
                  "name": "acquisitionPrice",
                  "type": "uint256"
                },
                {
                  "internalType": "uint256",
                  "name": "taxCharged",
                  "type": "uint256"
                },
                {
                  "internalType": "uint256",
                  "name": "taxRefunded",
                  "type": "uint256"
                }
              ],
              "internalType": "struct Market.LotState[]",
              "name": "states",
              "type": "tuple[]"
            }
          ],
          "indexed": false,
          "internalType": "struct Market.Lot",
          "name": "lot",
          "type": "tuple"
        }
      ],
      "name": "LotUpdate",
      "type": "event"
    },
    {
      "inputs": [],
      "name": "accountingToken",
      "outputs": [
        {
          "internalType": "contract IERC20",
          "name": "",
          "type": "address"
        }
      ],
      "stateMutability": "view",
      "type": "function"
    },
    {
      "inputs": [],
      "name": "claimReferralRewards",
      "outputs": [],
      "stateMutability": "nonpayable",
      "type": "function"
    },
    {
      "inputs": [
        {
          "internalType": "uint256",
          "name": "timestamp",
          "type": "uint256"
        }
      ],
      "name": "clcFrameKey",
      "outputs": [
        {
          "internalType": "uint256",
          "name": "",
          "type": "uint256"
        }
      ],
      "stateMutability": "view",
      "type": "function"
    },
    {
      "inputs": [
        {
          "internalType": "uint256",
          "name": "value",
          "type": "uint256"
        }
      ],
      "name": "clcLotKey",
      "outputs": [
        {
          "internalType": "uint256",
          "name": "",
          "type": "uint256"
        }
      ],
      "stateMutability": "view",
      "type": "function"
    },
    {
      "inputs": [],
      "name": "clcRate",
      "outputs": [
        {
          "internalType": "uint256",
          "name": "",
          "type": "uint256"
        }
      ],
      "stateMutability": "view",
      "type": "function"
    },
    {
      "inputs": [
        {
          "internalType": "uint256",
          "name": "timestamp",
          "type": "uint256"
        }
      ],
      "name": "clcRateAvg",
      "outputs": [
        {
          "internalType": "uint256",
          "name": "",
          "type": "uint256"
        }
      ],
      "stateMutability": "view",
      "type": "function"
    },
    {
      "inputs": [
        {
          "internalType": "uint256",
          "name": "frameKey",
          "type": "uint256"
        }
      ],
      "name": "clcRewardFund",
      "outputs": [
        {
          "internalType": "uint256",
          "name": "",
          "type": "uint256"
        }
      ],
      "stateMutability": "view",
      "type": "function"
    },
    {
      "inputs": [
        {
          "internalType": "uint256",
          "name": "frameKey",
          "type": "uint256"
        },
        {
          "internalType": "uint256",
          "name": "acquisitionPrice",
          "type": "uint256"
        }
      ],
      "name": "clcTax",
      "outputs": [
        {
          "internalType": "uint256",
          "name": "",
          "type": "uint256"
        }
      ],
      "stateMutability": "view",
      "type": "function"
    },
    {
      "inputs": [],
      "name": "clcUnClaimableFunds",
      "outputs": [
        {
          "internalType": "uint256",
          "name": "",
          "type": "uint256"
        }
      ],
      "stateMutability": "view",
      "type": "function"
    },
    {
      "inputs": [],
      "name": "dPrice",
      "outputs": [
        {
          "internalType": "uint256",
          "name": "",
          "type": "uint256"
        }
      ],
      "stateMutability": "view",
      "type": "function"
    },
    {
      "inputs": [],
      "name": "feeProtocol",
      "outputs": [
        {
          "internalType": "uint256",
          "name": "",
          "type": "uint256"
        }
      ],
      "stateMutability": "view",
      "type": "function"
    },
    {
      "inputs": [
        {
          "internalType": "uint256",
          "name": "",
          "type": "uint256"
        }
      ],
      "name": "frames",
      "outputs": [
        {
          "internalType": "uint256",
          "name": "frameKey",
          "type": "uint256"
        },
        {
          "internalType": "uint256",
          "name": "rate",
          "type": "uint256"
        },
        {
          "internalType": "address",
          "name": "claimedBy",
          "type": "address"
        },
        {
          "internalType": "uint256",
          "name": "rateSettle",
          "type": "uint256"
        },
        {
          "internalType": "uint256",
          "name": "feeSettle",
          "type": "uint256"
        },
        {
          "internalType": "uint256",
          "name": "rewardSettle",
          "type": "uint256"
        },
        {
          "internalType": "uint256",
          "name": "feeReferral",
          "type": "uint256"
        }
      ],
      "stateMutability": "view",
      "type": "function"
    },
    {
      "inputs": [
        {
          "internalType": "uint256",
          "name": "",
          "type": "uint256"
        }
      ],
      "name": "framesKeys",
      "outputs": [
        {
          "internalType": "uint256",
          "name": "",
          "type": "uint256"
        }
      ],
      "stateMutability": "view",
      "type": "function"
    },
    {
      "inputs": [
        {
          "internalType": "uint256",
          "name": "frameKey",
          "type": "uint256"
        }
      ],
      "name": "getFrame",
      "outputs": [
        {
          "components": [
            {
              "internalType": "uint256",
              "name": "frameKey",
              "type": "uint256"
            },
            {
              "internalType": "uint256",
              "name": "rate",
              "type": "uint256"
            },
            {
              "internalType": "uint256[]",
              "name": "lotKeys",
              "type": "uint256[]"
            },
            {
              "internalType": "address",
              "name": "claimedBy",
              "type": "address"
            },
            {
              "internalType": "uint256",
              "name": "rateSettle",
              "type": "uint256"
            },
            {
              "internalType": "uint256",
              "name": "feeSettle",
              "type": "uint256"
            },
            {
              "internalType": "uint256",
              "name": "rewardSettle",
              "type": "uint256"
            },
            {
              "internalType": "uint256",
              "name": "feeReferral",
              "type": "uint256"
            }
          ],
          "internalType": "struct Market.Frame",
          "name": "",
          "type": "tuple"
        }
      ],
      "stateMutability": "view",
      "type": "function"
    },
    {
      "inputs": [
        {
          "internalType": "uint256",
          "name": "frameKey",
          "type": "uint256"
        }
      ],
      "name": "getFrameLotKeys",
      "outputs": [
        {
          "internalType": "uint256[]",
          "name": "",
          "type": "uint256[]"
        }
      ],
      "stateMutability": "view",
      "type": "function"
    },
    {
      "inputs": [
        {
          "internalType": "uint256",
          "name": "frameKey",
          "type": "uint256"
        },
        {
          "internalType": "uint256",
          "name": "lotKey",
          "type": "uint256"
        }
      ],
      "name": "getLot",
      "outputs": [
        {
          "components": [
            {
              "internalType": "uint256",
              "name": "frameKey",
              "type": "uint256"
            },
            {
              "internalType": "uint256",
              "name": "lotKey",
              "type": "uint256"
            },
            {
              "components": [
                {
                  "internalType": "uint256",
                  "name": "blockNumber",
                  "type": "uint256"
                },
                {
                  "internalType": "uint256",
                  "name": "blockTimestamp",
                  "type": "uint256"
                },
                {
                  "internalType": "address",
                  "name": "owner",
                  "type": "address"
                },
                {
                  "internalType": "uint256",
                  "name": "acquisitionPrice",
                  "type": "uint256"
                },
                {
                  "internalType": "uint256",
                  "name": "taxCharged",
                  "type": "uint256"
                },
                {
                  "internalType": "uint256",
                  "name": "taxRefunded",
                  "type": "uint256"
                }
              ],
              "internalType": "struct Market.LotState[]",
              "name": "states",
              "type": "tuple[]"
            }
          ],
          "internalType": "struct Market.Lot",
          "name": "",
          "type": "tuple"
        }
      ],
      "stateMutability": "view",
      "type": "function"
    },
    {
      "inputs": [
        {
          "internalType": "uint256",
          "name": "frameKey",
          "type": "uint256"
        },
        {
          "internalType": "uint256",
          "name": "lotKey",
          "type": "uint256"
        }
      ],
      "name": "getLotStates",
      "outputs": [
        {
          "components": [
            {
              "internalType": "uint256",
              "name": "blockNumber",
              "type": "uint256"
            },
            {
              "internalType": "uint256",
              "name": "blockTimestamp",
              "type": "uint256"
            },
            {
              "internalType": "address",
              "name": "owner",
              "type": "address"
            },
            {
              "internalType": "uint256",
              "name": "acquisitionPrice",
              "type": "uint256"
            },
            {
              "internalType": "uint256",
              "name": "taxCharged",
              "type": "uint256"
            },
            {
              "internalType": "uint256",
              "name": "taxRefunded",
              "type": "uint256"
            }
          ],
          "internalType": "struct Market.LotState[]",
          "name": "",
          "type": "tuple[]"
        }
      ],
      "stateMutability": "view",
      "type": "function"
    },
    {
      "inputs": [
        {
          "internalType": "uint256",
          "name": "frameKey",
          "type": "uint256"
        }
      ],
      "name": "getLotsKeysInFrame",
      "outputs": [
        {
          "internalType": "uint256[]",
          "name": "",
          "type": "uint256[]"
        }
      ],
      "stateMutability": "view",
      "type": "function"
    },
    {
      "inputs": [
        {
          "internalType": "uint256",
          "name": "frameKey",
          "type": "uint256"
        }
      ],
      "name": "getStateFrame",
      "outputs": [
        {
          "internalType": "enum Market.SFrame",
          "name": "",
          "type": "uint8"
        }
      ],
      "stateMutability": "view",
      "type": "function"
    },
    {
      "inputs": [
        {
          "internalType": "uint256",
          "name": "frameKey",
          "type": "uint256"
        },
        {
          "internalType": "uint256",
          "name": "lotKey",
          "type": "uint256"
        }
      ],
      "name": "getStateLot",
      "outputs": [
        {
          "internalType": "enum Market.SLot",
          "name": "",
          "type": "uint8"
        }
      ],
      "stateMutability": "view",
      "type": "function"
    },
    {
      "inputs": [],
      "name": "getUncollectedRewards",
      "outputs": [
        {
          "internalType": "uint256",
          "name": "",
          "type": "uint256"
        }
      ],
      "stateMutability": "view",
      "type": "function"
    },
    {
      "inputs": [
        {
          "internalType": "address",
          "name": "user",
          "type": "address"
        },
        {
          "internalType": "uint256",
          "name": "frameKey",
          "type": "uint256"
        }
      ],
      "name": "getUserReward",
      "outputs": [
        {
          "internalType": "uint256",
          "name": "",
          "type": "uint256"
        }
      ],
      "stateMutability": "view",
      "type": "function"
    },
    {
      "inputs": [],
      "name": "initTimestamp",
      "outputs": [
        {
          "internalType": "uint256",
          "name": "",
          "type": "uint256"
        }
      ],
      "stateMutability": "view",
      "type": "function"
    },
    {
      "inputs": [
        {
          "internalType": "uint256",
          "name": "",
          "type": "uint256"
        },
        {
          "internalType": "uint256",
          "name": "",
          "type": "uint256"
        }
      ],
      "name": "lots",
      "outputs": [
        {
          "internalType": "uint256",
          "name": "frameKey",
          "type": "uint256"
        },
        {
          "internalType": "uint256",
          "name": "lotKey",
          "type": "uint256"
        }
      ],
      "stateMutability": "view",
      "type": "function"
    },
    {
      "inputs": [
        {
          "components": [
            {
              "internalType": "uint256",
              "name": "frameKey",
              "type": "uint256"
            },
            {
              "internalType": "uint256",
              "name": "rate",
              "type": "uint256"
            },
            {
              "internalType": "uint256[]",
              "name": "lotKeys",
              "type": "uint256[]"
            },
            {
              "internalType": "address",
              "name": "claimedBy",
              "type": "address"
            },
            {
              "internalType": "uint256",
              "name": "rateSettle",
              "type": "uint256"
            },
            {
              "internalType": "uint256",
              "name": "feeSettle",
              "type": "uint256"
            },
            {
              "internalType": "uint256",
              "name": "rewardSettle",
              "type": "uint256"
            },
            {
              "internalType": "uint256",
              "name": "feeReferral",
              "type": "uint256"
            }
          ],
          "internalType": "struct Market.Frame",
          "name": "frame",
          "type": "tuple"
        },
        {
          "internalType": "uint256",
          "name": "avgPrice",
          "type": "uint256"
        }
      ],
      "name": "overrideFrameRate",
      "outputs": [],
      "stateMutability": "nonpayable",
      "type": "function"
    },
    {
      "inputs": [],
      "name": "owner",
      "outputs": [
        {
          "internalType": "address",
          "name": "",
          "type": "address"
        }
      ],
      "stateMutability": "view",
      "type": "function"
    },
    {
      "inputs": [],
      "name": "period",
      "outputs": [
        {
          "internalType": "uint256",
          "name": "",
          "type": "uint256"
        }
      ],
      "stateMutability": "view",
      "type": "function"
    },
    {
      "inputs": [],
      "name": "referralPct",
      "outputs": [
        {
          "internalType": "uint256",
          "name": "",
          "type": "uint256"
        }
      ],
      "stateMutability": "view",
      "type": "function"
    },
    {
      "inputs": [
        {
          "internalType": "address",
          "name": "user",
          "type": "address"
        }
      ],
      "name": "referredBy",
      "outputs": [
        {
          "internalType": "address",
          "name": "",
          "type": "address"
        }
      ],
      "stateMutability": "view",
      "type": "function"
    },
    {
      "inputs": [
        {
          "internalType": "uint256",
          "name": "frameKey",
          "type": "uint256"
        }
      ],
      "name": "setFrameRate",
      "outputs": [],
      "stateMutability": "nonpayable",
      "type": "function"
    },
    {
      "inputs": [
        {
          "internalType": "uint256",
          "name": "frameKey",
          "type": "uint256"
        }
      ],
      "name": "settleFrame",
      "outputs": [
        {
          "internalType": "uint256",
          "name": "",
          "type": "uint256"
        }
      ],
      "stateMutability": "nonpayable",
      "type": "function"
    },
    {
      "inputs": [],
      "name": "tSettle",
      "outputs": [
        {
          "internalType": "uint256",
          "name": "",
          "type": "uint256"
        }
      ],
      "stateMutability": "view",
      "type": "function"
    },
    {
      "inputs": [],
      "name": "taxMarket",
      "outputs": [
        {
          "internalType": "uint256",
          "name": "",
          "type": "uint256"
        }
      ],
      "stateMutability": "view",
      "type": "function"
    },
    {
      "inputs": [
        {
          "internalType": "uint256",
          "name": "timestamp",
          "type": "uint256"
        },
        {
          "internalType": "uint256",
          "name": "rate",
          "type": "uint256"
        },
        {
          "internalType": "uint256",
          "name": "acquisitionPrice",
          "type": "uint256"
        },
        {
          "internalType": "address",
          "name": "referrer",
          "type": "address"
        }
      ],
      "name": "tradeLot",
      "outputs": [],
      "stateMutability": "nonpayable",
      "type": "function"
    },
    {
      "inputs": [],
      "name": "uniswapPool",
      "outputs": [
        {
          "internalType": "contract IUniswapV3Pool",
          "name": "",
          "type": "address"
        }
      ],
      "stateMutability": "view",
      "type": "function"
    },
    {
      "inputs": [
        {
          "internalType": "address",
          "name": "user",
          "type": "address"
        }
      ],
      "name": "userExists",
      "outputs": [
        {
          "internalType": "bool",
          "name": "",
          "type": "bool"
        }
      ],
      "stateMutability": "view",
      "type": "function"
    },
    {
      "inputs": [
        {
          "internalType": "address",
          "name": "",
          "type": "address"
        }
      ],
      "name": "users",
      "outputs": [
        {
          "internalType": "bool",
          "name": "exists",
          "type": "bool"
        },
        {
          "internalType": "address",
          "name": "referredBy",
          "type": "address"
        }
      ],
      "stateMutability": "view",
      "type": "function"
    },
    {
      "inputs": [
        {
          "internalType": "uint256",
          "name": "amount",
          "type": "uint256"
        }
      ],
      "name": "withdrawAccountingToken",
      "outputs": [],
      "stateMutability": "nonpayable",
      "type": "function"
    }
  ],
  "bytecode": "0x608060405262015180600055636592e180600155666a94d74f430000600255610258600355600480546001600160a01b03199081167367a9fe12fa6082d9d0203c84c6c56d3c4b269f281790915568056bc75e2d63100000600555662386f26fc1000060065560078054909116738f3cf7ad23cd3cadbd9735aff958023239c6a0631790556611c37937e0800060095534801561009b57600080fd5b50600880546001600160a01b03191633179055614455806100bd6000396000f3fe608060405234801561001057600080fd5b50600436106102325760003560e01c806391a0846d11610130578063ba4e137f116100b8578063da68cf8b1161007c578063da68cf8b146105dc578063e107fb4f146105ef578063ef78d4fd14610602578063fb0d5e091461060b578063ffdabe2d1461062b57600080fd5b8063ba4e137f1461057b578063bad1265314610583578063bdd3d825146105a3578063d18743dd146105b6578063d8d50008146105c957600080fd5b8063a87430ba116100ff578063a87430ba14610496578063a90f8e9a146104e8578063a9a578ee14610519578063b866debb14610521578063b93dafa91461053457600080fd5b806391a0846d146103cf5780639592de18146103e25780639e9c4f08146103f5578063a10340bc146103fe57600080fd5b80634c73884f116101be5780637358c57a116101825780637358c57a14610369578063773d51eb146103725780637e996639146103925780638a5779c81461039b5780638da5cb5b146103a457600080fd5b80634c73884f146102fa578063527eb4bc1461031a57806361eee2cb1461032357806369ca9e05146103365780636f1aefc31461034957600080fd5b8063112358181161020557806311235818146102c35780632457e6201461026757806339a6a489146102cb5780633baf1587146102de578063499a0fc4146102f157600080fd5b8063050e88401461023757806305eaab4b1461025d5780630d0a1c1a146102675780630e666e4914610287575b600080fd5b61024a6102453660046139d1565b61063e565b6040519081526020015b60405180910390f35b61026561065f565b005b61027a6102753660046139d1565b6109b9565b60405161025491906139ea565b6102b3610295366004613a56565b6001600160a01b03166000908152600c602052604090205460ff1690565b6040519015158152602001610254565b61024a610a1e565b61024a6102d93660046139d1565b610c3a565b6102656102ec3660046139d1565b610e07565b61024a60055481565b61030d610308366004613a7a565b610ed1565b6040516102549190613ab2565b61024a60025481565b61024a6103313660046139d1565b610ffe565b610265610344366004613bcc565b611035565b61035c610357366004613a7a565b611131565b6040516102549190613d0b565b61024a60015481565b6103856103803660046139d1565b611288565b6040516102549190613d3a565b61024a60065481565b61024a60035481565b6008546103b7906001600160a01b031681565b6040516001600160a01b039091168152602001610254565b61024a6103dd366004613de6565b6113c4565b61024a6103f03660046139d1565b611429565b61024a60095481565b61045361040c3660046139d1565b600a602052600090815260409020805460018201546003830154600484015460058501546006860154600790960154949593946001600160a01b0390931693919290919087565b6040805197885260208801969096526001600160a01b03909416948601949094526060850191909152608084015260a083019190915260c082015260e001610254565b6104c96104a4366004613a56565b600c6020526000908152604090205460ff81169061010090046001600160a01b031682565b6040805192151583526001600160a01b03909116602083015201610254565b6103b76104f6366004613a56565b6001600160a01b039081166000908152600c602052604090205461010090041690565b61024a611454565b61024a61052f3660046139d1565b6116ba565b610566610542366004613a7a565b600d6020908152600092835260408084209091529082529020805460019091015482565b60408051928352602083019190915201610254565b61024a611c07565b6105966105913660046139d1565b611cd6565b6040516102549190613e12565b6004546103b7906001600160a01b031681565b6102656105c43660046139d1565b611d6d565b6102656105d7366004613e26565b611e55565b6007546103b7906001600160a01b031681565b61024a6105fd366004613a7a565b611f94565b61024a60005481565b61061e610619366004613a7a565b612056565b6040516102549190613e67565b61024a6106393660046139d1565b61210c565b600b818154811061064e57600080fd5b600091825260209091200154905081565b336000908152600c602052604090205460ff166106975760405162461bcd60e51b815260040161068e90613e7a565b60405180910390fd5b600b5460009067ffffffffffffffff8111156106b5576106b5613acc565b6040519080825280602002602001820160405280156106de578160200160208202803683370190505b5090506000805b600b54811015610788576004610717600b838154811061070757610707613ea7565b9060005260206000200154611cd6565b600481111561072857610728613a9c565b0361077657600b818154811061074057610740613ea7565b906000526020600020015483838151811061075d5761075d613ea7565b60209081029190910101528161077281613ed3565b9250505b8061078081613ed3565b9150506106e5565b50600081116107cd5760405162461bcd60e51b81526020600482015260116024820152704e6f20736574746c6564206672616d657360781b604482015260640161068e565b6000805b828110156108f757336000908152600c6020526040812085516002909101919086908490811061080357610803613ea7565b602090810291909101810151825281019190915260400160009081205460ff16151590036108e557336000908152600c6020526040812085516001909101919086908490811061085557610855613ea7565b6020026020010151815260200190815260200160002054826108779190613eec565b91506001600c6000336001600160a01b03166001600160a01b0316815260200190815260200160002060020160008684815181106108b7576108b7613ea7565b6020026020010151815260200190815260200160002060006101000a81548160ff0219169083151502179055505b806108ef81613ed3565b9150506107d1565b506000811161093e5760405162461bcd60e51b81526020600482015260136024820152724e6f207265776172647320746f20636c61696d60681b604482015260640161068e565b60075460405163a9059cbb60e01b8152336004820152602481018390526001600160a01b039091169063a9059cbb906044016020604051808303816000875af115801561098f573d6000803e3d6000fd5b505050506040513d601f19601f820116820180604052508101906109b39190613f0f565b50505050565b6000818152600a6020908152604091829020600201805483518184028101840190945280845260609392830182828015610a1257602002820191906000526020600020905b8154815260200190600101908083116109fe575b50505050509050919050565b336000908152600c602052604081205460ff16610a4d5760405162461bcd60e51b815260040161068e90613e7a565b600b5460009067ffffffffffffffff811115610a6b57610a6b613acc565b604051908082528060200260200182016040528015610a94578160200160208202803683370190505b5090506000805b600b54811015610b2e576004610abd600b838154811061070757610707613ea7565b6004811115610ace57610ace613a9c565b03610b1c57600b8181548110610ae657610ae6613ea7565b9060005260206000200154838381518110610b0357610b03613ea7565b602090810291909101015281610b1881613ed3565b9250505b80610b2681613ed3565b915050610a9b565b5060008111610b735760405162461bcd60e51b81526020600482015260116024820152704e6f20736574746c6564206672616d657360781b604482015260640161068e565b6000805b82811015610c3257336000908152600c60205260408120855160029091019190869084908110610ba957610ba9613ea7565b602090810291909101810151825281019190915260400160009081205460ff1615159003610c2057336000908152600c60205260408120855160019091019190869084908110610bfb57610bfb613ea7565b602002602001015181526020019081526020016000205482610c1d9190613eec565b91505b80610c2a81613ed3565b915050610b77565b509392505050565b600080805b6000848152600a6020526040902060020154811015610e00576000848152600a6020818152604080842080548552600d835290842088855292909152600201805483919085908110610c9357610c93613ea7565b90600052602060002001548152602001908152602001600020604051806060016040529081600082015481526020016001820154815260200160028201805480602002602001604051908101604052809291908181526020016000905b82821015610d615760008481526020908190206040805160c08101825260068602909201805483526001808201548486015260028201546001600160a01b03169284019290925260038101546060840152600481015460808401526005015460a08301529083529092019101610cf0565b5050505081525050905060005b816040015151811015610deb5781604001518181518110610d9157610d91613ea7565b60200260200101516080015184610da89190613eec565b935081604001518181518110610dc057610dc0613ea7565b602002602001015160a0015184610dd79190613f2a565b935080610de381613ed3565b915050610d6e565b50508080610df890613ed3565b915050610c3f565b5092915050565b60008054828252600a6020526040909120544291610e2491613eec565b1115610e725760405162461bcd60e51b815260206004820152601b60248201527f4672616d652068617320746f20626520696e2074686520706173740000000000604482015260640161068e565b6000610e7d8261210c565b6000838152600a6020526040908190206001810183905590519192507f929af310c689982c60d4ec73c6e4b602e89c6f6a31da7c2df4888fb0627cb2b191610ec59190613f72565b60405180910390a15050565b6000828152600d602090815260408083208484529091528120600101548103610efc57506000610ff8565b6000610f0784611cd6565b6004811115610f1857610f18613a9c565b03610f2557506000610ff8565b6001610f3084611cd6565b6004811115610f4157610f41613a9c565b1480610f6657506002610f5384611cd6565b6004811115610f6457610f64613a9c565b145b15610f7357506001610ff8565b6000838152600d602090815260408083208584528252808320600190810154878552600a90935292209091015410801590610fe757506005546000848152600d60209081526040808320868452909152902060010154610fd39190613eec565b6000848152600a6020526040902060010154105b15610ff457506002610ff8565b5060035b92915050565b6000600154821161101157505060015490565b6000546001546110219084613f2a565b61102b9190613ffa565b610ff89083613f2a565b6008546001600160a01b0316331461109f5760405162461bcd60e51b815260206004820152602760248201527f4f6e6c79206f776e65722063616e20757064617465206672616d6520636c6f736044820152666520707269636560c81b606482015260840161068e565b81516000036110c05760405162461bcd60e51b815260040161068e9061400e565b60608201516001600160a01b03161561111b5760405162461bcd60e51b815260206004820181905260248201527f4672616d65207265776172642077617320616c726561647920636c61696d6564604482015260640161068e565b90516000908152600a6020526040902060010155565b61115560405180606001604052806000815260200160008152602001606081525090565b6000838152600d6020908152604080832085845290915281206001015490036111b45760405162461bcd60e51b8152602060048201526011602482015270131bdd08191bd95cdb89dd08195e1a5cdd607a1b604482015260640161068e565b6000838152600d602090815260408083208584528252808320815160608101835281548152600182015481850152600282018054845181870281018701865281815292969395948701949293919290919084015b828210156112795760008481526020908190206040805160c08101825260068602909201805483526001808201548486015260028201546001600160a01b03169284019290925260038101546060840152600481015460808401526005015460a08301529083529092019101611208565b50505091525090949350505050565b6112d960405180610100016040528060008152602001600081526020016060815260200160006001600160a01b03168152602001600081526020016000815260200160008152602001600081525090565b6000828152600a602052604081205490036113065760405162461bcd60e51b815260040161068e9061400e565b6000828152600a6020908152604091829020825161010081018452815481526001820154818401526002820180548551818602810186018752818152929593949386019383018282801561137957602002820191906000526020600020905b815481526020019060010190808311611365575b505050918352505060038201546001600160a01b0316602082015260048201546040820152600582015460608201526006820154608082015260079091015460a09091015292915050565b6001600160a01b0382166000908152600c602052604081205460ff166113fc5760405162461bcd60e51b815260040161068e90613e7a565b506001600160a01b03919091166000908152600c6020908152604080832093835260019093019052205490565b600060055482101561143d57505060055490565b60055461144a818461403b565b610ff8919061404f565b600080805b600b548110156116b4576000600a6000600b848154811061147c5761147c613ea7565b906000526020600020015481526020019081526020016000206040518061010001604052908160008201548152602001600182015481526020016002820180548060200260200160405190810160405280929190818152602001828054801561150457602002820191906000526020600020905b8154815260200190600101908083116114f0575b50505091835250506003828101546001600160a01b0316602083015260048301546040830152600583015460608301526006830154608083015260079092015460a090910152909150815161155890611cd6565b600481111561156957611569613a9c565b036116a15780516000908152600d60209081526040822090830151829061158f90611429565b8152602001908152602001600020604051806060016040529081600082015481526020016001820154815260200160028201805480602002602001604051908101604052809291908181526020016000905b828210156116525760008481526020908190206040805160c08101825260068602909201805483526001808201548486015260028201546001600160a01b03169284019290925260038101546060840152600481015460808401526005015460a083015290835290920191016115e1565b5050509152509091506002905061167183600001518360200151610ed1565b600381111561168257611682613a9c565b1461169f57815161169290610c3a565b61169c9085613eec565b93505b505b50806116ac81613ed3565b915050611459565b50919050565b6000818152600a602052604081205481036116e75760405162461bcd60e51b815260040161068e9061400e565b60036116f283611cd6565b600481111561170357611703613a9c565b1461175c5760405162461bcd60e51b8152602060048201526024808201527f4672616d6520646f6573206e6f742068617665206120636c6f73652072617465604482015263081cd95d60e21b606482015260840161068e565b6000828152600a602052604081206001015461177790611429565b6000848152600d60209081526040808320848452825280832081516060810183528154815260018201548185015260028201805484518187028101870186528181529798509596919592949386019391929091879084015b828210156118405760008481526020908190206040805160c08101825260068602909201805483526001808201548486015260028201546001600160a01b03169284019290925260038101546060840152600481015460808401526005015460a083015290835290920191016117cf565b50505050815250509050600061185585610c3a565b90506000670de0b6b3a764000060025483611870919061404f565b61187a919061403b565b6000878152600a6020526040902060058101829055600701549091506118a08284613f2a565b6118aa9190613f2a565b6000878152600a602052604090819020600601919091558301515115611a7957600754604084015180516001600160a01b039092169163a9059cbb91906118f390600190613f2a565b8151811061190357611903613ea7565b602002602001015160400151600a60008a8152602001908152602001600020600601546040518363ffffffff1660e01b81526004016119579291906001600160a01b03929092168252602082015260400190565b6020604051808303816000875af1158015611976573d6000803e3d6000fd5b505050506040513d601f19601f8201168201806040525081019061199a9190613f0f565b50604083015180516119ae90600190613f2a565b815181106119be576119be613ea7565b6020908102919091018101516040908101516000898152600a909352918190206003810180546001600160a01b0319166001600160a01b03948516179055600754600854600590920154925163a9059cbb60e01b81529184166004830152602482019290925291169063a9059cbb906044016020604051808303816000875af1158015611a4f573d6000803e3d6000fd5b505050506040513d601f19601f82011682018060405250810190611a739190613f0f565b50611b57565b6007546008546000888152600a6020526040902060058101546006909101546001600160a01b039384169363a9059cbb931691611ab591613eec565b6040516001600160e01b031960e085901b1681526001600160a01b03909216600483015260248201526044016020604051808303816000875af1158015611b00573d6000803e3d6000fd5b505050506040513d601f19601f82011682018060405250810190611b249190613f0f565b506008546000878152600a6020526040902060030180546001600160a01b0319166001600160a01b039092169190911790555b6000868152600a6020526040908190206001810154600490910155517f906ff162b3f2709ab28fb678d43913964434148dd206e9b17adb3c1255090cb190611ba0908590613d0b565b60405180910390a16000868152600a60205260409081902090517f929af310c689982c60d4ec73c6e4b602e89c6f6a31da7c2df4888fb0627cb2b191611be591613f72565b60405180910390a150505060009283525050600a602052604090206006015490565b6004805460408051633850c7bd60e01b8152905160009384936001600160a01b031692633850c7bd928183019260e0928290030181865afa158015611c50573d6000803e3d6000fd5b505050506040513d601f19601f82011682018060405250810190611c749190614078565b50505050505090506000816001600160a01b031690506000600160601b82670de0b6b3a7640000611ca5919061404f565b611caf919061403b565b9050670de0b6b3a7640000611cc4828061404f565b611cce919061403b565b949350505050565b6000818152600a60205260408120548103611cf357506000919050565b6000828152600a60205260409020600301546001600160a01b031615611d1b57506004919050565b60008054838252600a602052604090912054611d379190613eec565b421015611d4657506001919050565b6000828152600a602052604090206001015415611d6557506003919050565b506002919050565b6008546001600160a01b03163314611dd85760405162461bcd60e51b815260206004820152602860248201527f4f6e6c79206f776e65722063616e207769746864726177206163636f756e74696044820152673733903a37b5b2b760c11b606482015260840161068e565b60075460085460405163a9059cbb60e01b81526001600160a01b0391821660048201526024810184905291169063a9059cbb906044016020604051808303816000875af1158015611e2d573d6000803e3d6000fd5b505050506040513d601f19601f82011682018060405250810190611e519190613f0f565b5050565b6000611e6085610ffe565b90506000611e6d85611429565b6000838152600d6020908152604080832084845290915281206001015491925003611ec5576000828152600a60205260408120549003611eb257611eb086612352565b505b611ebe8282868661248f565b50506109b3565b6000828152600d6020908152604080832084845290915290206002018054339190611ef290600190613f2a565b81548110611f0257611f02613ea7565b60009182526020909120600260069092020101546001600160a01b031603611f3057611ebe8282868661279f565b611f3c82828686612c4a565b6000828152600d602090815260408083208484529091529081902090517f906ff162b3f2709ab28fb678d43913964434148dd206e9b17adb3c1255090cb191611f8491614112565b60405180910390a1505050505050565b60004260005484611fa59190613eec565b11611ff25760405162461bcd60e51b815260206004820152601d60248201527f4672616d652068617320746f20626520696e2074686520667574757265000000604482015260640161068e565b60008054600654612003919061403b565b9050600042600054866120169190613eec565b6120209190613f2a565b90506000670de0b6b3a764000085612038858561404f565b612042919061404f565b61204c919061403b565b9695505050505050565b6000828152600d602090815260408083208484528252808320600201805482518185028101850190935280835260609492939192909184015b828210156121005760008481526020908190206040805160c08101825260068602909201805483526001808201548486015260028201546001600160a01b03169284019290925260038101546060840152600481015460808401526005015460a0830152908352909201910161208f565b50505050905092915050565b600080600354834261211e9190613f2a565b6121289190613eec565b905060006121368442613f2a565b6040805160028082526060820183529293506000929091602083019080368337019050509050828160008151811061217057612170613ea7565b602002602001019063ffffffff16908163ffffffff1681525050818160018151811061219e5761219e613ea7565b63ffffffff909216602092830291909101909101526004805460405163883bdbfd60e01b81526000926001600160a01b039092169163883bdbfd916121e5918691016141c0565b600060405180830381865afa158015612202573d6000803e3d6000fd5b505050506040513d6000823e601f3d908101601f1916820160405261222a9190810190614262565b50905060008160008151811061224257612242613ea7565b602002602001015160060b8260018151811061226057612260613ea7565b602002602001015160060b612275919061432e565b905060008112156122be5760405162461bcd60e51b81526020600482015260136024820152724e65676174697665207469636b2064656c746160681b604482015260640161068e565b8060006122d463ffffffff808816908916613f2a565b905060006122e2828461403b565b905060006122ef826131fc565b9050600061230d66010000000000006001600160a01b03841661403b565b9050600061231b828061404f565b90506000600160601b61233683670de0b6b3a764000061404f565b612340919061403b565b9e9d5050505050505050505050505050565b60008061235e83610ffe565b6000818152600a6020526040902054909150156123b45760405162461bcd60e51b81526020600482015260146024820152734672616d6520616c72656164792065786973747360601b604482015260640161068e565b42600054826123c39190613eec565b10156124115760405162461bcd60e51b815260206004820152601d60248201527f4672616d652068617320746f20626520696e2074686520667574757265000000604482015260640161068e565b6000818152600a602052604090819020828155600b8054600181019091557f0175b7a638427703f0dbe7bb9bbf987a2551717b34e79f33b5b1008d1fa01db90183905590517f929af310c689982c60d4ec73c6e4b602e89c6f6a31da7c2df4888fb0627cb2b19161248191613f72565b60405180910390a192915050565b600061249b8584611f94565b9050600081116124bd5760405162461bcd60e51b815260040161068e9061434e565b600754604051636eb1769f60e11b815233600482015230602482015282916001600160a01b03169063dd62ed3e90604401602060405180830381865afa15801561250b573d6000803e3d6000fd5b505050506040513d601f19601f8201168201806040525081019061252f91906143ab565b101561254d5760405162461bcd60e51b815260040161068e906143c4565b6000858152600d60209081526040808320878452909152902060010154156125ac5760405162461bcd60e51b81526020600482015260126024820152714c6f7420616c72656164792065786973747360701b604482015260640161068e565b6040805160c081018252438152426020808301918252338385019081526060840188815260808501878152600060a087018181528d8252600d86528882208d835286529781208d815560018082018e90556002808301805480840182558186529885208b516006909a0201988955985191880191909155945194860180546001600160a01b0319166001600160a01b039096169590951790945591516003850155516004840155945160059092019190915592879052805491929182918291612677919081906138eb565b5050506000878152600a602090815260408083206001808601546002909201805491820181558552929093209091019190915560075490516323b872dd60e01b81526001600160a01b03909116906323b872dd906126dd903390309088906004016143fb565b6020604051808303816000875af11580156126fc573d6000803e3d6000fd5b505050506040513d601f19601f820116820180604052508101906127209190613f0f565b50336000908152600c602052604090205460ff1661274157612741846135df565b336000908152600c60205260408082205461010090046001600160a01b0316825290205460ff161561279657336000908152600c60205260409020546127969061010090046001600160a01b03168489613768565b50505050505050565b6000848152600d60209081526040808320868452909152812060020180546127f69187916127cf90600190613f2a565b815481106127df576127df613ea7565b906000526020600020906006020160030154611f94565b905060006128048685611f94565b905080821115612a1157600061281a8284613f2a565b6007546000898152600d602090815260408083208b8452909152902060020180549293506001600160a01b039091169163a9059cbb919061285d90600190613f2a565b8154811061286d5761286d613ea7565b600091825260209091206006909102016002015460405160e083901b6001600160e01b03191681526001600160a01b039091166004820152602481018490526044016020604051808303816000875af11580156128ce573d6000803e3d6000fd5b505050506040513d601f19601f820116820180604052508101906128f29190613f0f565b506000878152600d602090815260408083208984528252808320815160c0810183524381524281850190815233828501818152606084018d81526080850189815260a086018b81526002978801805460018082018355918d528b8d2098516006909102909801978855955195870195909555915195850180546001600160a01b0319166001600160a01b03909716969096179095559351600384015592516004830155516005909101558352600c90915290205460ff166129b6576129b6846135df565b336000908152600c60205260408082205461010090046001600160a01b0316825290205460ff1615612a0b57336000908152600c6020526040902054612a0b9061010090046001600160a01b0316828961382f565b50612c42565b6000612a1d8383613f2a565b600754604051636eb1769f60e11b815233600482015230602482015291925082916001600160a01b039091169063dd62ed3e90604401602060405180830381865afa158015612a70573d6000803e3d6000fd5b505050506040513d601f19601f82011682018060405250810190612a9491906143ab565b1015612ab25760405162461bcd60e51b815260040161068e906143c4565b6007546040516323b872dd60e01b81526001600160a01b03909116906323b872dd90612ae6903390309086906004016143fb565b6020604051808303816000875af1158015612b05573d6000803e3d6000fd5b505050506040513d601f19601f82011682018060405250810190612b299190613f0f565b506000878152600d602090815260408083208984528252808320815160c0810183524381524281850190815233828501818152606084018d8152608085018a815260a086018a81526002978801805460018082018355918d528b8d2098516006909102909801978855955195870195909555915195850180546001600160a01b0319166001600160a01b03909716969096179095559351600384015592516004830155516005909101558352600c90915290205460ff16612bed57612bed846135df565b336000908152600c60205260408082205461010090046001600160a01b0316825290205460ff161561279657336000908152600c60205260409020546127969061010090046001600160a01b03168289613768565b505050505050565b6000848152600d6020908152604080832086845290915281206002018054612c7490600190613f2a565b81548110612c8457612c84613ea7565b600091825260208220600260069092020101546001600160a01b03169150612cac8685611f94565b905060008111612cce5760405162461bcd60e51b815260040161068e9061434e565b6000868152600d6020908152604080832088845290915281206002018054612cf890600190613f2a565b81548110612d0857612d08613ea7565b90600052602060002090600602016003015490508082612d289190613eec565b600754604051636eb1769f60e11b81523360048201523060248201526001600160a01b039091169063dd62ed3e90604401602060405180830381865afa158015612d76573d6000803e3d6000fd5b505050506040513d601f19601f82011682018060405250810190612d9a91906143ab565b1015612db85760405162461bcd60e51b815260040161068e906143c4565b6007546040516323b872dd60e01b81526001600160a01b03909116906323b872dd90612dec903390309087906004016143fb565b6020604051808303816000875af1158015612e0b573d6000803e3d6000fd5b505050506040513d601f19601f82011682018060405250810190612e2f9190613f0f565b506007546040516323b872dd60e01b81526001600160a01b03909116906323b872dd90612e64903390879086906004016143fb565b6020604051808303816000875af1158015612e83573d6000803e3d6000fd5b505050506040513d601f19601f82011682018060405250810190612ea79190613f0f565b506000878152600d6020908152604080832089845290915281206002018054612ed8918a916127cf90600190613f2a565b60075460405163a9059cbb60e01b81526001600160a01b0387811660048301526024820184905292935091169063a9059cbb906044016020604051808303816000875af1158015612f2d573d6000803e3d6000fd5b505050506040513d601f19601f82011682018060405250810190612f519190613f0f565b50336000908152600c602052604090205460ff16612f7257612f72856135df565b336000908152600c60205260408082205461010090046001600160a01b0316825290205460ff1615612fc757336000908152600c6020526040902054612fc79061010090046001600160a01b0316848a613768565b6001600160a01b038085166000908152600c60205260408082205461010090049092168152205460ff1615613022576001600160a01b038085166000908152600c60205260409020546130229161010090910416828a61382f565b600d600089815260200190815260200160002060008881526020019081526020016000206002016040518060c00160405280438152602001428152602001866001600160a01b0316815260200184815260200160008152602001838152509080600181540180825580915050600190039060005260206000209060060201600090919091909150600082015181600001556020820151816001015560408201518160020160006101000a8154816001600160a01b0302191690836001600160a01b03160217905550606082015181600301556080820151816004015560a082015181600501555050600d600089815260200190815260200160002060008881526020019081526020016000206002016040518060c00160405280438152602001428152602001336001600160a01b0316815260200188815260200185815260200160008152509080600181540180825580915050600190039060005260206000209060060201600090919091909150600082015181600001556020820151816001015560408201518160020160006101000a8154816001600160a01b0302191690836001600160a01b03160217905550606082015181600301556080820151816004015560a0820151816005015550505050505050505050565b600081620d89e88111156132365760405162461bcd60e51b81526020600482015260016024820152601560fa1b604482015260640161068e565b60008160011660000361324d57600160801b61325f565b6ffffcb933bd6fad37aa2d162d1a5940015b70ffffffffffffffffffffffffffffffffff169050600282161561329e576080613299826ffff97272373d413259a46990580e213a61404f565b901c90505b60048216156132c85760806132c3826ffff2e50f5f656932ef12357cf3c7fdcc61404f565b901c90505b60088216156132f25760806132ed826fffe5caca7e10e4e61c3624eaa0941cd061404f565b901c90505b601082161561331c576080613317826fffcb9843d60f6159c9db58835c92664461404f565b901c90505b6020821615613346576080613341826fff973b41fa98c081472e6896dfb254c061404f565b901c90505b604082161561337057608061336b826fff2ea16466c96a3843ec78b326b5286161404f565b901c90505b608082161561339a576080613395826ffe5dee046a99a2a811c461f1969c305361404f565b901c90505b6101008216156133c55760806133c0826ffcbe86c7900a88aedcffc83b479aa3a461404f565b901c90505b6102008216156133f05760806133eb826ff987a7253ac413176f2b074cf7815e5461404f565b901c90505b61040082161561341b576080613416826ff3392b0822b70005940c7a398e4b70f361404f565b901c90505b610800821615613446576080613441826fe7159475a2c29b7443b29c7fa6e889d961404f565b901c90505b61100082161561347157608061346c826fd097f3bdfd2022b8845ad8f792aa582561404f565b901c90505b61200082161561349c576080613497826fa9f746462d870fdf8a65dc1f90e061e561404f565b901c90505b6140008216156134c75760806134c2826f70d869a156d2a1b890bb3df62baf32f761404f565b901c90505b6180008216156134f25760806134ed826f31be135f97d08fd981231505542fcfa661404f565b901c90505b6201000082161561351e576080613519826f09aa508b5b7a84e1c677de54f3e99bc961404f565b901c90505b62020000821615613549576080613544826e5d6af8dedb81196699c329225ee60461404f565b901c90505b6204000082161561357357608061356e826d2216e584f5fa1ea926041bedfe9861404f565b901c90505b6208000082161561359b576080613596826b048a170391f7dc42444e8fa261404f565b901c90505b83156135b0576135ad8160001961403b565b90505b6135bf64010000000082613ffa565b156135cb5760016135ce565b60005b611cce9060ff16602083901c613eec565b336000908152600c602052604090205460ff16156136355760405162461bcd60e51b81526020600482015260136024820152725573657220616c72656164792065786973747360681b604482015260640161068e565b336136825760405162461bcd60e51b815260206004820152601960248201527f526566657272616c206164647265737320697320656d70747900000000000000604482015260640161068e565b6001600160a01b0381166136c857336000908152600c6020526040902080546001600160a01b0392909216610100026001600160a81b0319909216919091176001179055565b6001600160a01b0381166000908152600c602052604090205460ff166137305760405162461bcd60e51b815260206004820152601760248201527f526566657272657220646f6573206e6f74206578697374000000000000000000604482015260640161068e565b336000908152600c6020526040902080546001600160a01b0392909216610100026001600160a81b0319909216919091176001179055565b6001600160a01b0383166000908152600c602052604090205460ff166137a05760405162461bcd60e51b815260040161068e90613e7a565b6000670de0b6b3a7640000600954846137b9919061404f565b6137c3919061403b565b6001600160a01b0385166000908152600c602090815260408083208684526001019091528120805492935083929091906137fe908490613eec565b90915550506000828152600a602052604081206007018054839290613824908490613eec565b909155505050505050565b6001600160a01b0383166000908152600c602052604090205460ff166138675760405162461bcd60e51b815260040161068e90613e7a565b6000670de0b6b3a764000060095484613880919061404f565b61388a919061403b565b6001600160a01b0385166000908152600c602090815260408083208684526001019091528120805492935083929091906138c5908490613f2a565b90915550506000828152600a602052604081206007018054839290613824908490613f2a565b82805482825590600052602060002090600602810192821561397f5760005260206000209160060282015b8281111561397f57825482556001808401549083015560028084015490830180546001600160a01b0319166001600160a01b0390921691909117905560038084015490830155600480840154908301556005808401549083015560069283019290910190613916565b5061398b92915061398f565b5090565b5b8082111561398b576000808255600182018190556002820180546001600160a01b031916905560038201819055600482018190556005820155600601613990565b6000602082840312156139e357600080fd5b5035919050565b6020808252825182820181905260009190848201906040850190845b81811015613a2257835183529284019291840191600101613a06565b50909695505050505050565b6001600160a01b0381168114613a4357600080fd5b50565b8035613a5181613a2e565b919050565b600060208284031215613a6857600080fd5b8135613a7381613a2e565b9392505050565b60008060408385031215613a8d57600080fd5b50508035926020909101359150565b634e487b7160e01b600052602160045260246000fd5b6020810160048310613ac657613ac6613a9c565b91905290565b634e487b7160e01b600052604160045260246000fd5b604051610100810167ffffffffffffffff81118282101715613b0657613b06613acc565b60405290565b604051601f8201601f1916810167ffffffffffffffff81118282101715613b3557613b35613acc565b604052919050565b600067ffffffffffffffff821115613b5757613b57613acc565b5060051b60200190565b600082601f830112613b7257600080fd5b81356020613b87613b8283613b3d565b613b0c565b82815260059290921b84018101918181019086841115613ba657600080fd5b8286015b84811015613bc15780358352918301918301613baa565b509695505050505050565b60008060408385031215613bdf57600080fd5b823567ffffffffffffffff80821115613bf757600080fd5b908401906101008287031215613c0c57600080fd5b613c14613ae2565b8235815260208301356020820152604083013582811115613c3457600080fd5b613c4088828601613b61565b604083015250613c5260608401613a46565b60608201526080830135608082015260a083013560a082015260c083013560c082015260e083013560e0820152809450505050602083013590509250929050565b600081518084526020808501945080840160005b83811015613d005781518051885283810151848901526040808201516001600160a01b031690890152606080820151908901526080808201519089015260a0908101519088015260c09096019590820190600101613ca7565b509495945050505050565b60208152815160208201526020820151604082015260006040830151606080840152611cce6080840182613c93565b6000602080835261012083018451828501528185015160408501526040850151610100806060870152828251808552610140880191508584019450600093505b80841015613d9a5784518252938501936001939093019290850190613d7a565b5060608801516001600160a01b03811660808901529450608088015160a088015260a088015160c088015260c088015160e088015260e088015182880152809550505050505092915050565b60008060408385031215613df957600080fd5b8235613e0481613a2e565b946020939093013593505050565b6020810160058310613ac657613ac6613a9c565b60008060008060808587031215613e3c57600080fd5b8435935060208501359250604085013591506060850135613e5c81613a2e565b939692955090935050565b602081526000613a736020830184613c93565b602080825260139082015272155cd95c88191bd95cc81b9bdd08195e1a5cdd606a1b604082015260600190565b634e487b7160e01b600052603260045260246000fd5b634e487b7160e01b600052601160045260246000fd5b600060018201613ee557613ee5613ebd565b5060010190565b80820180821115610ff857610ff8613ebd565b80518015158114613a5157600080fd5b600060208284031215613f2157600080fd5b613a7382613eff565b81810381811115610ff857610ff8613ebd565b6000815480845260208085019450836000528060002060005b83811015613d0057815487529582019560019182019101613f56565b6020815281546020820152600182015460408201526000610100806060840152613fa3610120840160028601613f3d565b60038501546001600160a01b03166080850152600485015460a0850152600585015460c0850152600685015460e08501526007909401549201919091525090565b634e487b7160e01b600052601260045260246000fd5b60008261400957614009613fe4565b500690565b602080825260139082015272119c985b5948191bd95cdb89dd08195e1a5cdd606a1b604082015260600190565b60008261404a5761404a613fe4565b500490565b8082028115828204841417610ff857610ff8613ebd565b805161ffff81168114613a5157600080fd5b600080600080600080600060e0888a03121561409357600080fd5b875161409e81613a2e565b8097505060208801518060020b81146140b657600080fd5b95506140c460408901614066565b94506140d260608901614066565b93506140e060808901614066565b925060a088015160ff811681146140f657600080fd5b915061410460c08901613eff565b905092959891949750929550565b6000602080835260808084018554838601526001808701546040818189015260029150818901606080818b015285825480885260a09750878c0191508360005289600020935060005b818110156141ae5784548352878501548b840152868501546001600160a01b03168684015260038501548484015260048501548a84015260058501548984015260069094019360c090920191870161415b565b50909c9b505050505050505050505050565b6020808252825182820181905260009190848201906040850190845b81811015613a2257835163ffffffff16835292840192918401916001016141dc565b600082601f83011261420f57600080fd5b8151602061421f613b8283613b3d565b82815260059290921b8401810191818101908684111561423e57600080fd5b8286015b84811015613bc157805161425581613a2e565b8352918301918301614242565b6000806040838503121561427557600080fd5b825167ffffffffffffffff8082111561428d57600080fd5b818501915085601f8301126142a157600080fd5b815160206142b1613b8283613b3d565b82815260059290921b840181019181810190898411156142d057600080fd5b948201945b838610156142fe5785518060060b81146142ef5760008081fd5b825294820194908201906142d5565b9188015191965090935050508082111561431757600080fd5b50614324858286016141fe565b9150509250929050565b8181036000831280158383131683831282161715610e0057610e00613ebd565b6020808252603c908201527f5461782068617320746f2062652067726561746572207468616e20302e20496e60408201527f63726561736520746865206163717569736974696f6e20707269636500000000606082015260800190565b6000602082840312156143bd57600080fd5b5051919050565b6020808252601e908201527f416c6c6f77616e636520746f207370656e642073657420746f6f206c6f770000604082015260600190565b6001600160a01b03938416815291909216602082015260408101919091526060019056fea264697066735822122046ef17d6d3a492cbe8c292c2e1a523b9ff1aec7160e7e8fd8df6878c9e42978464736f6c63430008140033",
  "linkReferences": {},
  "deployedLinkReferences": {}
}