{
  "_format": "hh-sol-artifact-1",
  "contractName": "Market",
  "sourceName": "contracts/Market.sol",
  "abi": [
    {
      "inputs": [
        {
          "internalType": "address",
          "name": "_acct",
          "type": "address"
        },
        {
          "internalType": "uint256",
          "name": "_feeProtocol",
          "type": "uint256"
        },
        {
          "internalType": "uint256",
          "name": "_taxMarket",
          "type": "uint256"
        },
        {
          "internalType": "uint256",
          "name": "_dPrice",
          "type": "uint256"
        },
        {
          "internalType": "address",
          "name": "_uniswapPool",
          "type": "address"
        }
      ],
      "stateMutability": "nonpayable",
      "type": "constructor"
    },
    {
      "anonymous": false,
      "inputs": [
        {
          "components": [
            {
              "internalType": "uint256",
              "name": "frameKey",
              "type": "uint256"
            },
            {
              "internalType": "uint256",
              "name": "rate",
              "type": "uint256"
            },
            {
              "internalType": "uint256[]",
              "name": "lotKeys",
              "type": "uint256[]"
            },
            {
              "internalType": "address",
              "name": "claimedBy",
              "type": "address"
            },
            {
              "internalType": "uint256",
              "name": "rateSettle",
              "type": "uint256"
            },
            {
              "internalType": "uint256",
              "name": "feeSettle",
              "type": "uint256"
            },
            {
              "internalType": "uint256",
              "name": "rewardSettle",
              "type": "uint256"
            },
            {
              "internalType": "uint256",
              "name": "rewardPool",
              "type": "uint256"
            }
          ],
          "indexed": false,
          "internalType": "struct Market.Frame",
          "name": "frame",
          "type": "tuple"
        }
      ],
      "name": "FrameUpdate",
      "type": "event"
    },
    {
      "anonymous": false,
      "inputs": [
        {
          "components": [
            {
              "internalType": "uint256",
              "name": "frameKey",
              "type": "uint256"
            },
            {
              "internalType": "uint256",
              "name": "lotKey",
              "type": "uint256"
            },
            {
              "components": [
                {
                  "internalType": "uint256",
                  "name": "blockNumber",
                  "type": "uint256"
                },
                {
                  "internalType": "uint256",
                  "name": "blockTimestamp",
                  "type": "uint256"
                },
                {
                  "internalType": "address",
                  "name": "owner",
                  "type": "address"
                },
                {
                  "internalType": "uint256",
                  "name": "acquisitionPrice",
                  "type": "uint256"
                },
                {
                  "internalType": "uint256",
                  "name": "taxCharged",
                  "type": "uint256"
                }
              ],
              "internalType": "struct Market.LotState[]",
              "name": "states",
              "type": "tuple[]"
            }
          ],
          "indexed": false,
          "internalType": "struct Market.Lot",
          "name": "lot",
          "type": "tuple"
        }
      ],
      "name": "LotUpdate",
      "type": "event"
    },
    {
      "inputs": [],
      "name": "accountingToken",
      "outputs": [
        {
          "internalType": "contract IERC20Metadata",
          "name": "",
          "type": "address"
        }
      ],
      "stateMutability": "view",
      "type": "function"
    },
    {
      "inputs": [],
      "name": "accountingTokenDecimals",
      "outputs": [
        {
          "internalType": "uint8",
          "name": "",
          "type": "uint8"
        }
      ],
      "stateMutability": "view",
      "type": "function"
    },
    {
      "inputs": [],
      "name": "baseUnit",
      "outputs": [
        {
          "internalType": "uint256",
          "name": "",
          "type": "uint256"
        }
      ],
      "stateMutability": "view",
      "type": "function"
    },
    {
      "inputs": [
        {
          "internalType": "uint256",
          "name": "newFee",
          "type": "uint256"
        }
      ],
      "name": "changeProtocolFee",
      "outputs": [],
      "stateMutability": "nonpayable",
      "type": "function"
    },
    {
      "inputs": [
        {
          "internalType": "uint256",
          "name": "newTax",
          "type": "uint256"
        }
      ],
      "name": "changeTaxPercentage",
      "outputs": [],
      "stateMutability": "nonpayable",
      "type": "function"
    },
    {
      "inputs": [
        {
          "internalType": "uint256",
          "name": "timestamp",
          "type": "uint256"
        }
      ],
      "name": "clcFrameKey",
      "outputs": [
        {
          "internalType": "uint256",
          "name": "",
          "type": "uint256"
        }
      ],
      "stateMutability": "view",
      "type": "function"
    },
    {
      "inputs": [
        {
          "internalType": "uint256",
          "name": "valueQ96",
          "type": "uint256"
        }
      ],
      "name": "clcLotKey",
      "outputs": [
        {
          "internalType": "uint256",
          "name": "",
          "type": "uint256"
        }
      ],
      "stateMutability": "view",
      "type": "function"
    },
    {
      "inputs": [],
      "name": "clcRate",
      "outputs": [
        {
          "internalType": "uint256",
          "name": "",
          "type": "uint256"
        }
      ],
      "stateMutability": "view",
      "type": "function"
    },
    {
      "inputs": [
        {
          "internalType": "uint256",
          "name": "timestamp",
          "type": "uint256"
        }
      ],
      "name": "clcRateAvg",
      "outputs": [
        {
          "internalType": "uint256",
          "name": "",
          "type": "uint256"
        }
      ],
      "stateMutability": "view",
      "type": "function"
    },
    {
      "inputs": [
        {
          "internalType": "uint256",
          "name": "frameKey",
          "type": "uint256"
        }
      ],
      "name": "clcRewardFund",
      "outputs": [
        {
          "internalType": "uint256",
          "name": "",
          "type": "uint256"
        }
      ],
      "stateMutability": "view",
      "type": "function"
    },
    {
      "inputs": [
        {
          "internalType": "uint256",
          "name": "frameKey",
          "type": "uint256"
        },
        {
          "internalType": "uint256",
          "name": "acquisitionPriceQ96",
          "type": "uint256"
        }
      ],
      "name": "clcTax",
      "outputs": [
        {
          "internalType": "uint256",
          "name": "",
          "type": "uint256"
        }
      ],
      "stateMutability": "view",
      "type": "function"
    },
    {
      "inputs": [
        {
          "internalType": "uint256",
          "name": "frameKey",
          "type": "uint256"
        },
        {
          "internalType": "uint256",
          "name": "lotKey",
          "type": "uint256"
        }
      ],
      "name": "concatenate",
      "outputs": [
        {
          "internalType": "uint256",
          "name": "concatenated",
          "type": "uint256"
        }
      ],
      "stateMutability": "pure",
      "type": "function"
    },
    {
      "inputs": [
        {
          "internalType": "uint256",
          "name": "amount18Dec",
          "type": "uint256"
        },
        {
          "internalType": "bool",
          "name": "round",
          "type": "bool"
        }
      ],
      "name": "convertToTokenDecimals",
      "outputs": [
        {
          "internalType": "uint256",
          "name": "",
          "type": "uint256"
        }
      ],
      "stateMutability": "view",
      "type": "function"
    },
    {
      "inputs": [],
      "name": "dPrice",
      "outputs": [
        {
          "internalType": "uint256",
          "name": "",
          "type": "uint256"
        }
      ],
      "stateMutability": "view",
      "type": "function"
    },
    {
      "inputs": [],
      "name": "feeProtocol",
      "outputs": [
        {
          "internalType": "uint256",
          "name": "",
          "type": "uint256"
        }
      ],
      "stateMutability": "view",
      "type": "function"
    },
    {
      "inputs": [
        {
          "internalType": "uint256",
          "name": "",
          "type": "uint256"
        }
      ],
      "name": "frames",
      "outputs": [
        {
          "internalType": "uint256",
          "name": "frameKey",
          "type": "uint256"
        },
        {
          "internalType": "uint256",
          "name": "rate",
          "type": "uint256"
        },
        {
          "internalType": "address",
          "name": "claimedBy",
          "type": "address"
        },
        {
          "internalType": "uint256",
          "name": "rateSettle",
          "type": "uint256"
        },
        {
          "internalType": "uint256",
          "name": "feeSettle",
          "type": "uint256"
        },
        {
          "internalType": "uint256",
          "name": "rewardSettle",
          "type": "uint256"
        },
        {
          "internalType": "uint256",
          "name": "rewardPool",
          "type": "uint256"
        }
      ],
      "stateMutability": "view",
      "type": "function"
    },
    {
      "inputs": [
        {
          "internalType": "uint256",
          "name": "",
          "type": "uint256"
        }
      ],
      "name": "framesKeys",
      "outputs": [
        {
          "internalType": "uint256",
          "name": "",
          "type": "uint256"
        }
      ],
      "stateMutability": "view",
      "type": "function"
    },
    {
      "inputs": [
        {
          "internalType": "uint256",
          "name": "x96",
          "type": "uint256"
        }
      ],
      "name": "fromQ96",
      "outputs": [
        {
          "internalType": "uint256",
          "name": "",
          "type": "uint256"
        }
      ],
      "stateMutability": "view",
      "type": "function"
    },
    {
      "inputs": [
        {
          "internalType": "uint256",
          "name": "frameKey",
          "type": "uint256"
        }
      ],
      "name": "getFrame",
      "outputs": [
        {
          "components": [
            {
              "internalType": "uint256",
              "name": "frameKey",
              "type": "uint256"
            },
            {
              "internalType": "uint256",
              "name": "rate",
              "type": "uint256"
            },
            {
              "internalType": "uint256[]",
              "name": "lotKeys",
              "type": "uint256[]"
            },
            {
              "internalType": "address",
              "name": "claimedBy",
              "type": "address"
            },
            {
              "internalType": "uint256",
              "name": "rateSettle",
              "type": "uint256"
            },
            {
              "internalType": "uint256",
              "name": "feeSettle",
              "type": "uint256"
            },
            {
              "internalType": "uint256",
              "name": "rewardSettle",
              "type": "uint256"
            },
            {
              "internalType": "uint256",
              "name": "rewardPool",
              "type": "uint256"
            }
          ],
          "internalType": "struct Market.Frame",
          "name": "",
          "type": "tuple"
        }
      ],
      "stateMutability": "view",
      "type": "function"
    },
    {
      "inputs": [
        {
          "internalType": "uint256",
          "name": "frameKey",
          "type": "uint256"
        }
      ],
      "name": "getFrameIndex",
      "outputs": [
        {
          "internalType": "uint256",
          "name": "",
          "type": "uint256"
        }
      ],
      "stateMutability": "view",
      "type": "function"
    },
    {
      "inputs": [
        {
          "internalType": "uint256",
          "name": "frameKey",
          "type": "uint256"
        }
      ],
      "name": "getFrameLotKeys",
      "outputs": [
        {
          "internalType": "uint256[]",
          "name": "",
          "type": "uint256[]"
        }
      ],
      "stateMutability": "view",
      "type": "function"
    },
    {
      "inputs": [],
      "name": "getFramesLength",
      "outputs": [
        {
          "internalType": "uint256",
          "name": "",
          "type": "uint256"
        }
      ],
      "stateMutability": "view",
      "type": "function"
    },
    {
      "inputs": [
        {
          "internalType": "uint256",
          "name": "frameKey",
          "type": "uint256"
        },
        {
          "internalType": "uint256",
          "name": "lotKey",
          "type": "uint256"
        }
      ],
      "name": "getLot",
      "outputs": [
        {
          "components": [
            {
              "internalType": "uint256",
              "name": "frameKey",
              "type": "uint256"
            },
            {
              "internalType": "uint256",
              "name": "lotKey",
              "type": "uint256"
            },
            {
              "components": [
                {
                  "internalType": "uint256",
                  "name": "blockNumber",
                  "type": "uint256"
                },
                {
                  "internalType": "uint256",
                  "name": "blockTimestamp",
                  "type": "uint256"
                },
                {
                  "internalType": "address",
                  "name": "owner",
                  "type": "address"
                },
                {
                  "internalType": "uint256",
                  "name": "acquisitionPrice",
                  "type": "uint256"
                },
                {
                  "internalType": "uint256",
                  "name": "taxCharged",
                  "type": "uint256"
                }
              ],
              "internalType": "struct Market.LotState[]",
              "name": "states",
              "type": "tuple[]"
            }
          ],
          "internalType": "struct Market.Lot",
          "name": "",
          "type": "tuple"
        }
      ],
      "stateMutability": "view",
      "type": "function"
    },
    {
      "inputs": [
        {
          "internalType": "uint256",
          "name": "frameKey",
          "type": "uint256"
        },
        {
          "internalType": "uint256",
          "name": "lotKey",
          "type": "uint256"
        }
      ],
      "name": "getLotStates",
      "outputs": [
        {
          "components": [
            {
              "internalType": "uint256",
              "name": "blockNumber",
              "type": "uint256"
            },
            {
              "internalType": "uint256",
              "name": "blockTimestamp",
              "type": "uint256"
            },
            {
              "internalType": "address",
              "name": "owner",
              "type": "address"
            },
            {
              "internalType": "uint256",
              "name": "acquisitionPrice",
              "type": "uint256"
            },
            {
              "internalType": "uint256",
              "name": "taxCharged",
              "type": "uint256"
            }
          ],
          "internalType": "struct Market.LotState[]",
          "name": "",
          "type": "tuple[]"
        }
      ],
      "stateMutability": "view",
      "type": "function"
    },
    {
      "inputs": [],
      "name": "getLotsArray",
      "outputs": [
        {
          "internalType": "uint256[]",
          "name": "",
          "type": "uint256[]"
        }
      ],
      "stateMutability": "view",
      "type": "function"
    },
    {
      "inputs": [],
      "name": "getLotsArrayLength",
      "outputs": [
        {
          "internalType": "uint256",
          "name": "",
          "type": "uint256"
        }
      ],
      "stateMutability": "view",
      "type": "function"
    },
    {
      "inputs": [
        {
          "internalType": "uint256",
          "name": "frameKey",
          "type": "uint256"
        }
      ],
      "name": "getLotsKeysInFrame",
      "outputs": [
        {
          "internalType": "uint256[]",
          "name": "",
          "type": "uint256[]"
        }
      ],
      "stateMutability": "view",
      "type": "function"
    },
    {
      "inputs": [
        {
          "internalType": "uint256",
          "name": "frameKey",
          "type": "uint256"
        }
      ],
      "name": "getLotsLength",
      "outputs": [
        {
          "internalType": "uint256",
          "name": "",
          "type": "uint256"
        }
      ],
      "stateMutability": "view",
      "type": "function"
    },
    {
      "inputs": [
        {
          "internalType": "uint256",
          "name": "frameKey",
          "type": "uint256"
        }
      ],
      "name": "getStateFrame",
      "outputs": [
        {
          "internalType": "enum Market.SFrame",
          "name": "",
          "type": "uint8"
        }
      ],
      "stateMutability": "view",
      "type": "function"
    },
    {
      "inputs": [
        {
          "internalType": "uint256",
          "name": "frameKey",
          "type": "uint256"
        },
        {
          "internalType": "uint256",
          "name": "lotKey",
          "type": "uint256"
        }
      ],
      "name": "getStateLot",
      "outputs": [
        {
          "internalType": "enum Market.SLot",
          "name": "",
          "type": "uint8"
        }
      ],
      "stateMutability": "view",
      "type": "function"
    },
    {
      "inputs": [],
      "name": "initTimestamp",
      "outputs": [
        {
          "internalType": "uint256",
          "name": "",
          "type": "uint256"
        }
      ],
      "stateMutability": "view",
      "type": "function"
    },
    {
      "inputs": [],
      "name": "lastSettledFrameIndex",
      "outputs": [
        {
          "internalType": "uint256",
          "name": "",
          "type": "uint256"
        }
      ],
      "stateMutability": "view",
      "type": "function"
    },
    {
      "inputs": [
        {
          "internalType": "uint256",
          "name": "",
          "type": "uint256"
        },
        {
          "internalType": "uint256",
          "name": "",
          "type": "uint256"
        }
      ],
      "name": "lots",
      "outputs": [
        {
          "internalType": "uint256",
          "name": "frameKey",
          "type": "uint256"
        },
        {
          "internalType": "uint256",
          "name": "lotKey",
          "type": "uint256"
        }
      ],
      "stateMutability": "view",
      "type": "function"
    },
    {
      "inputs": [
        {
          "internalType": "uint256",
          "name": "",
          "type": "uint256"
        }
      ],
      "name": "lotsArray",
      "outputs": [
        {
          "internalType": "uint256",
          "name": "",
          "type": "uint256"
        }
      ],
      "stateMutability": "view",
      "type": "function"
    },
    {
      "inputs": [
        {
          "internalType": "uint256",
          "name": "frameKey",
          "type": "uint256"
        },
        {
          "internalType": "uint256",
          "name": "avgPrice",
          "type": "uint256"
        }
      ],
      "name": "overrideFrameRate",
      "outputs": [],
      "stateMutability": "nonpayable",
      "type": "function"
    },
    {
      "inputs": [],
      "name": "owner",
      "outputs": [
        {
          "internalType": "address",
          "name": "",
          "type": "address"
        }
      ],
      "stateMutability": "view",
      "type": "function"
    },
    {
      "inputs": [],
      "name": "period",
      "outputs": [
        {
          "internalType": "uint256",
          "name": "",
          "type": "uint256"
        }
      ],
      "stateMutability": "view",
      "type": "function"
    },
    {
      "inputs": [],
      "name": "rewardPool",
      "outputs": [
        {
          "internalType": "uint256",
          "name": "",
          "type": "uint256"
        }
      ],
      "stateMutability": "view",
      "type": "function"
    },
    {
      "inputs": [
        {
          "internalType": "uint256",
          "name": "frameKey",
          "type": "uint256"
        }
      ],
      "name": "setFrameRate",
      "outputs": [],
      "stateMutability": "nonpayable",
      "type": "function"
    },
    {
      "inputs": [],
      "name": "settleFrame",
      "outputs": [
        {
          "internalType": "uint256",
          "name": "",
          "type": "uint256"
        }
      ],
      "stateMutability": "nonpayable",
      "type": "function"
    },
    {
      "inputs": [],
      "name": "tSettle",
      "outputs": [
        {
          "internalType": "uint256",
          "name": "",
          "type": "uint256"
        }
      ],
      "stateMutability": "view",
      "type": "function"
    },
    {
      "inputs": [],
      "name": "taxMarket",
      "outputs": [
        {
          "internalType": "uint256",
          "name": "",
          "type": "uint256"
        }
      ],
      "stateMutability": "view",
      "type": "function"
    },
    {
      "inputs": [
        {
          "internalType": "uint256",
          "name": "amount",
          "type": "uint256"
        }
      ],
      "name": "toQ96",
      "outputs": [
        {
          "internalType": "uint256",
          "name": "",
          "type": "uint256"
        }
      ],
      "stateMutability": "view",
      "type": "function"
    },
    {
      "inputs": [
        {
          "internalType": "uint256",
          "name": "timestamp",
          "type": "uint256"
        },
        {
          "internalType": "uint256",
          "name": "rate",
          "type": "uint256"
        },
        {
          "internalType": "uint256",
          "name": "acquisitionPrice",
          "type": "uint256"
        }
      ],
      "name": "tradeLot",
      "outputs": [],
      "stateMutability": "nonpayable",
      "type": "function"
    },
    {
      "inputs": [],
      "name": "uniswapPool",
      "outputs": [
        {
          "internalType": "contract IUniswapV3Pool",
          "name": "",
          "type": "address"
        }
      ],
      "stateMutability": "view",
      "type": "function"
    },
    {
      "inputs": [
        {
          "internalType": "uint256",
          "name": "amount",
          "type": "uint256"
        }
      ],
      "name": "withdrawAccountingToken",
      "outputs": [],
      "stateMutability": "nonpayable",
      "type": "function"
    }
  ],
  "bytecode": "0x60a060405262015180600055636592e1806001556000600255610258600355600060055560006006553480156200003557600080fd5b5060405162004ad438038062004ad483398101604081905262000058916200037e565b600a80546101003302610100600160a81b0319909116179055600480546001600160a01b038381166001600160a01b0319928316178355600780549189169190921681179091556040805163313ce56760e01b81529051919263313ce5679282820192602092908290030181865afa158015620000d9573d6000803e3d6000fd5b505050506040513d601f19601f82011682018060405250810190620000ff9190620003d3565b600a805460ff191660ff9290921691821781556200011e91906200050b565b60808190526200014a906064906200013890879062000519565b62000144919062000533565b6200018c565b60025560805162000165906064906200013890869062000519565b6006556080516200017d906200014490849062000519565b60055550620005829350505050565b6000620001b0826c01000000000000000000000000608051620001b660201b60201c565b92915050565b6000808060001985870985870292508281108382030391505080600003620001f25760008411620001e657600080fd5b5082900490506200035a565b808411620001ff57600080fd5b600084868809808403938111909203919050600085620002228119600162000556565b1695869004959384900493600081900304600101905062000244818462000519565b9093179260006200025787600362000519565b600218905062000268818862000519565b620002759060026200056c565b62000281908262000519565b90506200028f818862000519565b6200029c9060026200056c565b620002a8908262000519565b9050620002b6818862000519565b620002c39060026200056c565b620002cf908262000519565b9050620002dd818862000519565b620002ea9060026200056c565b620002f6908262000519565b905062000304818862000519565b620003119060026200056c565b6200031d908262000519565b90506200032b818862000519565b620003389060026200056c565b62000344908262000519565b905062000352818662000519565b955050505050505b9392505050565b80516001600160a01b03811681146200037957600080fd5b919050565b600080600080600060a086880312156200039757600080fd5b620003a28662000361565b9450602086015193506040860151925060608601519150620003c76080870162000361565b90509295509295909350565b600060208284031215620003e657600080fd5b815160ff811681146200035a57600080fd5b634e487b7160e01b600052601160045260246000fd5b600181815b808511156200044f578160001904821115620004335762000433620003f8565b808516156200044157918102915b93841c939080029062000413565b509250929050565b6000826200046857506001620001b0565b816200047757506000620001b0565b81600181146200049057600281146200049b57620004bb565b6001915050620001b0565b60ff841115620004af57620004af620003f8565b50506001821b620001b0565b5060208310610133831016604e8410600b8410161715620004e0575081810a620001b0565b620004ec83836200040e565b8060001904821115620005035762000503620003f8565b029392505050565b60006200035a838362000457565b8082028115828204841417620001b057620001b0620003f8565b6000826200055157634e487b7160e01b600052601260045260246000fd5b500490565b80820180821115620001b057620001b0620003f8565b81810381811115620001b057620001b0620003f8565b608051614528620005ac600039600081816105ef0152818161087a01526110eb01526145286000f3fe608060405234801561001057600080fd5b506004361061028a5760003560e01c80638edc6a2c1161015c578063c0423f2e116100ce578063ef78d4fd11610087578063ef78d4fd14610652578063f3517fef1461065b578063f601d51014610663578063fb0d5e0914610682578063fe687475146106a2578063ffdabe2d146106b557600080fd5b8063c0423f2e146105e2578063c2930f91146105ea578063d18743dd14610611578063da68cf8b14610624578063e107fb4f14610637578063ed320aa81461064a57600080fd5b8063b254eb1711610120578063b254eb171461053a578063b93dafa91461054d578063ba4e137f14610594578063ba52f3421461059c578063bad12653146105af578063bdd3d825146105cf57600080fd5b80638edc6a2c146104505780639592de1814610473578063a10340bc14610486578063a73482f61461051e578063b067f42d1461053157600080fd5b8063527eb4bc11610200578063773d51eb116101b9578063773d51eb146103c857806378328a17146103e85780637e996639146103fb57806386e670cb146104045780638a5779c8146104175780638da5cb5b1461042057600080fd5b8063527eb4bc1461036757806361eee2cb1461037057806364772f211461038357806366666aa9146103965780636f1aefc31461039f5780637358c57a146103bf57600080fd5b80632c438717116102525780632c438717146102f257806339a6a489146103055780633baf158714610318578063499a0fc41461032b5780634a00521f146103345780634c73884f1461034757600080fd5b8063050e88401461028f5780630d0a1c1a146102b557806318d13d87146102d5578063197c4e78146102ea5780632457e620146102b5575b600080fd5b6102a261029d366004613994565b6106c8565b6040519081526020015b60405180910390f35b6102c86102c3366004613994565b6106e9565b6040516102ac91906139ad565b6102e86102e33660046139f1565b61074e565b005b600e546102a2565b6102a2610300366004613994565b610872565b6102a2610313366004613994565b6108a9565b6102e8610326366004613994565b6108c7565b6102a260055481565b6102a2610342366004613994565b6109c6565b61035a6103553660046139f1565b610a8f565b6040516102ac9190613a29565b6102a260025481565b6102a261037e366004613994565b610bbb565b6102e8610391366004613a43565b610bf2565b6102a260085481565b6103b26103ad3660046139f1565b610d2b565b6040516102ac9190613aaa565b6102a260015481565b6103db6103d6366004613994565b610e78565b6040516102ac9190613b15565b6102a26103f6366004613bcf565b610fb4565b6102a260065481565b6102e8610412366004613994565b611016565b6102a260035481565b600a546104389061010090046001600160a01b031681565b6040516001600160a01b0390911681526020016102ac565b6102a261045e366004613994565b6000908152600b602052604090206002015490565b6102a2610481366004613994565b611086565b6104db610494366004613994565b600b602052600090815260409020805460018201546003830154600484015460058501546006860154600790960154949593946001600160a01b0390931693919290919087565b6040805197885260208801969096526001600160a01b03909416948601949094526060850191909152608084015260a083019190915260c082015260e0016102ac565b6102a261052c3660046139f1565b6110c1565b6102a260095481565b6102a2610548366004613994565b6110de565b61057f61055b3660046139f1565b600d6020908152600092835260408084209091529082529020805460019091015482565b604080519283526020830191909152016102ac565b6102a261110f565b6102a26105aa366004613994565b6113e6565b6105c26105bd366004613994565b6113f6565b6040516102ac9190613bff565b600454610438906001600160a01b031681565b6102c861148d565b6102a27f000000000000000000000000000000000000000000000000000000000000000081565b6102e861061f366004613994565b6114e5565b600754610438906001600160a01b031681565b6102a26106453660046139f1565b6115d7565b600c546102a2565b6102a260005481565b6102a261173b565b600a546106709060ff1681565b60405160ff90911681526020016102ac565b6106956106903660046139f1565b612126565b6040516102ac9190613c13565b6102e86106b0366004613994565b6121d2565b6102a26106c3366004613994565b612241565b600c81815481106106d857600080fd5b600091825260209091200154905081565b6000818152600b602090815260409182902060020180548351818402810184019094528084526060939283018282801561074257602002820191906000526020600020905b81548152602001906001019080831161072e575b50505050509050919050565b600a5461010090046001600160a01b031633146107c25760405162461bcd60e51b815260206004820152602760248201527f4f6e6c79206f776e65722063616e20757064617465206672616d6520636c6f736044820152666520707269636560c81b60648201526084015b60405180910390fd5b6000828152600b602052604081205490036107ef5760405162461bcd60e51b81526004016107b990613c50565b6000828152600b60205260409020600301546001600160a01b0316156108575760405162461bcd60e51b815260206004820181905260248201527f4672616d65207265776172642077617320616c726561647920636c61696d656460448201526064016107b9565b6000918252600b602052604080832054835290912060010155565b60006108a3827f0000000000000000000000000000000000000000000000000000000000000000600160601b612668565b92915050565b6000818152600b60205260408120600701546108a390600290613ca9565b6000818152600b602052604081205490036108f45760405162461bcd60e51b81526004016107b990613c50565b60008054828252600b602052604090912054429161091191613cbd565b111561095f5760405162461bcd60e51b815260206004820152601b60248201527f4672616d652068617320746f20626520696e207468652070617374000000000060448201526064016107b9565b6000610972600054836106c39190613cbd565b6000838152600b6020526040908190206001810183905590519192507f929af310c689982c60d4ec73c6e4b602e89c6f6a31da7c2df4888fb0627cb2b1916109ba9190613d10565b60405180910390a15050565b6000818152600b602052604081205481036109f35760405162461bcd60e51b81526004016107b990613c50565b60005b600c54811015610a3c5782600c8281548110610a1457610a14613d82565b906000526020600020015403610a2a5792915050565b80610a3481613d98565b9150506109f6565b5060405162461bcd60e51b815260206004820152602160248201527f4672616d65206b6579206e6f7420666f756e6420696e206672616d65734b65796044820152607360f81b60648201526084016107b9565b6000828152600d602090815260408083208484529091528120600101548103610aba575060006108a3565b6000610ac5846113f6565b6004811115610ad657610ad6613a13565b03610ae3575060006108a3565b6001610aee846113f6565b6004811115610aff57610aff613a13565b1480610b2457506002610b11846113f6565b6004811115610b2257610b22613a13565b145b15610b31575060016108a3565b6000838152600d602090815260408083208584528252808320600190810154878552600b90935292209091015410801590610ba557506005546000848152600d60209081526040808320868452909152902060010154610b919190613cbd565b6000848152600b6020526040902060010154105b15610bb2575060026108a3565b50600392915050565b60006001548211610bce57505060015490565b600054600154610bde9084613db1565b610be89190613dc4565b6108a39083613db1565b6000610bfd84610bbb565b90506000610c0a84611086565b6000838152600d6020908152604080832084845290915281206001015491925003610c5f576000828152600b60205260408120549003610c4f57610c4d856127e1565b505b610c5a82828561291e565b610cd4565b6000828152600d6020908152604080832084845290915290206002018054339190610c8c90600190613db1565b81548110610c9c57610c9c613d82565b60009182526020909120600260059092020101546001600160a01b031603610cc957610c5a828285612d80565b610cd4828285612f9e565b6000828152600d602090815260408083208484529091529081902090517f782b1e1b5d0c69f9f4c1e43a846c9ce710491a77f5adb86c3fe465f2cc9bfab991610d1c91613e75565b60405180910390a15050505050565b610d4f60405180606001604052806000815260200160008152602001606081525090565b6000838152600d602090815260408083208584529091528120600101549003610dae5760405162461bcd60e51b8152602060048201526011602482015270131bdd08191bd95cdb89dd08195e1a5cdd607a1b60448201526064016107b9565b6000838152600d602090815260408083208584528252808320815160608101835281548152600182015481850152600282018054845181870281018701865281815292969395948701949293919290919084015b82821015610e695760008481526020908190206040805160a08101825260058602909201805483526001808201548486015260028201546001600160a01b031692840192909252600381015460608401526004015460808301529083529092019101610e02565b50505091525090949350505050565b610ec960405180610100016040528060008152602001600081526020016060815260200160006001600160a01b03168152602001600081526020016000815260200160008152602001600081525090565b6000828152600b60205260408120549003610ef65760405162461bcd60e51b81526004016107b990613c50565b6000828152600b60209081526040918290208251610100810184528154815260018201548184015260028201805485518186028101860187528181529295939493860193830182828015610f6957602002820191906000526020600020905b815481526020019060010190808311610f55575b505050918352505060038201546001600160a01b0316602082015260048201546040820152600582015460608201526006820154608082015260079091015460a09091015292915050565b600a546000908190610fca9060ff166012613e88565b610fd590600a613f85565b905082156110055780610fe9600282613ca9565b610ff39086613cbd565b610ffd9190613ca9565b9150506108a3565b610ffd8185613ca9565b5092915050565b600a5461010090046001600160a01b031633146110815760405162461bcd60e51b8152602060048201526024808201527f4f6e6c79206f776e65722063616e206368616e6765207461782070657263656e6044820152637461676560e01b60648201526084016107b9565b600655565b600060055482101561109a57505060055490565b6000600554836110aa9190613ca9565b90506110ba816005546001612668565b9392505050565b60006110d2826402540be400613f94565b91506110ba8383613cbd565b60006108a382600160601b7f0000000000000000000000000000000000000000000000000000000000000000612668565b6004805460408051633850c7bd60e01b8152905160009384936001600160a01b031692633850c7bd928183019260e0928290030181865afa158015611158573d6000803e3d6000fd5b505050506040513d601f19601f8201168201806040525081019061117c9190613fe8565b50505050505090506000816001600160a01b0316826001600160a01b03166111a49190613f94565b6004805460408051630dfe168160e01b81529051939450606085901c936000936001600160a01b0390931692630dfe1681928082019260209290918290030181865afa1580156111f8573d6000803e3d6000fd5b505050506040513d601f19601f8201168201806040525081019061121c919061407e565b90506000600460009054906101000a90046001600160a01b03166001600160a01b031663d21220a76040518163ffffffff1660e01b8152600401602060405180830381865afa158015611273573d6000803e3d6000fd5b505050506040513d601f19601f82011682018060405250810190611297919061407e565b90506000826001600160a01b031663313ce5676040518163ffffffff1660e01b8152600401602060405180830381865afa1580156112d9573d6000803e3d6000fd5b505050506040513d601f19601f820116820180604052508101906112fd919061409b565b90506000826001600160a01b031663313ce5676040518163ffffffff1660e01b8152600401602060405180830381865afa15801561133f573d6000803e3d6000fd5b505050506040513d601f19601f82011682018060405250810190611363919061409b565b90508060ff168260ff16111561139a57611393856113818385613e88565b61138c90600a613f85565b6001612668565b94506113cb565b8160ff168160ff1611156113cb576113c88560016113b88585613e88565b6113c390600a613f85565b612668565b94505b6113da600160601b8087612668565b98975050505050505050565b600e81815481106106d857600080fd5b6000818152600b6020526040812054810361141357506000919050565b6000828152600b60205260409020600301546001600160a01b03161561143b57506004919050565b60008054838252600b6020526040909120546114579190613cbd565b42101561146657506001919050565b6000828152600b60205260409020600101541561148557506003919050565b506002919050565b6060600e8054806020026020016040519081016040528092919081815260200182805480156114db57602002820191906000526020600020905b8154815260200190600101908083116114c7575b5050505050905090565b600a5461010090046001600160a01b031633146115555760405162461bcd60e51b815260206004820152602860248201527f4f6e6c79206f776e65722063616e207769746864726177206163636f756e74696044820152673733903a37b5b2b760c11b60648201526084016107b9565b600754600a5460405163a9059cbb60e01b81526001600160a01b03610100909204821660048201526024810184905291169063a9059cbb906044016020604051808303816000875af11580156115af573d6000803e3d6000fd5b505050506040513d601f19601f820116820180604052508101906115d391906140b6565b5050565b600080600054846115e89190613cbd565b90504281116116395760405162461bcd60e51b815260206004820152601d60248201527f4672616d652068617320746f20626520696e207468652066757475726500000060448201526064016107b9565b61166f604051806040016040528060148152602001730536574746c656d656e742074696d657374616d760641b8152508261330f565b60408051808201909152601981527f536574746c6d656e657420646179732072656d61696e696e670000000000000060208201526116c490620151806116b54285613db1565b6116bf9190613ca9565b61330f565b60006116d04283613db1565b905060006116e16201518083613ca9565b905060006116f0826001613cbd565b905060006116fd82613354565b9050600061170c826004613f94565b61171a90600160601b613ca9565b9050600061172d828a600160601b612668565b9a9950505050505050505050565b600c54600954600091116117865760405162461bcd60e51b81526020600482015260126024820152714e6f206672616d6520746f20736574746c6560701b60448201526064016107b9565b6117c76040518060400160405280601881526020017f4c61737420736574746c6564206672616d6520696e646578000000000000000081525060095461330f565b60408051808201909152600c8082526b546f74616c206672616d657360a01b6020830152546117f6919061330f565b6118376040518060400160405280601a81526020017f4e657874206672616d6520746f20736574746c6520696e64657800000000000081525060095461330f565b6000600c6009548154811061184e5761184e613d82565b90600052602060002001549050611890604051806040016040528060138152602001724672616d65206b657920746f20736574746c6560681b8152508261330f565b6000818152600b602052604081205490036118bd5760405162461bcd60e51b81526004016107b990613c50565b60036118c8826113f6565b60048111156118d9576118d9613a13565b146119265760405162461bcd60e51b815260206004820152601b60248201527f4672616d65206973206e6f7420696e205241544544207374617465000000000060448201526064016107b9565b6119686040518060400160405280600a8152602001694672616d65207261746560b01b815250600b60008481526020019081526020016000206001015461330f565b6000611973826108a9565b90506119a26040518060400160405280600b81526020016a14995dd85c9908199d5b9960aa1b8152508261330f565b60006119b582600254600160601b612668565b905060006119c38284613db1565b6000858152600b60205260408120600581018590556006810183905560010154919250906119f090611086565b6000868152600d60209081526040808320848452909152812060028101549293509115611dce57611a446040518060400160405280600b81526020016a4c6f7420776f6e206b657960a81b8152508461330f565b600282018054611a5690600190613db1565b81548110611a6657611a66613d82565b906000526020600020906005020160020160009054906101000a90046001600160a01b03169050611acc6040518060400160405280601d81526020017f5472616e7366657272696e67207061796f757420746f2077696e6e6572000000815250826134ad565b611afe6040518060400160405280600d81526020016c14185e5bdd5d08185b5bdd5b9d609a1b8152506116bf86610872565b6007546001600160a01b031663a9059cbb82611b1987610872565b6040516001600160e01b031960e085901b1681526001600160a01b03909216600483015260248201526044016020604051808303816000875af1158015611b64573d6000803e3d6000fd5b505050506040513d601f19601f82011682018060405250810190611b8891906140b6565b506000878152600b6020526040902060030180546001600160a01b0319166001600160a01b0383811691909117909155600754600a549082169163a9059cbb91610100900416611bd788610872565b6040516001600160e01b031960e085901b1681526001600160a01b03909216600483015260248201526044016020604051808303816000875af1158015611c22573d6000803e3d6000fd5b505050506040513d601f19601f82011682018060405250810190611c4691906140b6565b50600c54600954611c58906001613cbd565b1015611d17576000600c6009546001611c719190613cbd565b81548110611c8157611c81613d82565b9060005260206000200154905086600b60008381526020019081526020016000206007016000828254611cb49190613cbd565b92505081905550611d116040518060400160405280601e81526020017f4e657874206672616d652072657761726420706f6f6c2075706461746564000081525082600b6000858152602001908152602001600020600701546134f2565b50612019565b611d3860405180606001604052806030815260200161449a6030913961353e565b600754600a546001600160a01b039182169163a9059cbb91610100900416611d5f89610872565b6040516001600160e01b031960e085901b1681526001600160a01b03909216600483015260248201526044016020604051808303816000875af1158015611daa573d6000803e3d6000fd5b505050506040513d601f19601f82011682018060405250810190611d1191906140b6565b600754600a546001600160a01b039182169163a9059cbb91610100900416611df588610872565b6040516001600160e01b031960e085901b1681526001600160a01b03909216600483015260248201526044016020604051808303816000875af1158015611e40573d6000803e3d6000fd5b505050506040513d601f19601f82011682018060405250810190611e6491906140b6565b50600a546000888152600b6020526040902060030180546101009092046001600160a01b03166001600160a01b0319909216919091179055600c54600954611ead906001613cbd565b1015611f45576000600c6009546001611ec69190613cbd565b81548110611ed657611ed6613d82565b9060005260206000200154905086600b60008381526020019081526020016000206007016000828254611f099190613cbd565b92505081905550611d116040518060600160405280602981526020016144ca602991396000838152600b602052604090206007015483906134f2565b611f6660405180606001604052806030815260200161449a6030913961353e565b60078054600a5460008a8152600b60205260409020909201546001600160a01b039182169263a9059cbb926101009091041690611fa890610300908a90613db1565b6040516001600160e01b031960e085901b1681526001600160a01b03909216600483015260248201526044016020604051808303816000875af1158015611ff3573d6000803e3d6000fd5b505050506040513d601f19601f8201168201806040525081019061201791906140b6565b505b61205a6040518060400160405280601c81526020017f52657761726420706f6f6c20616674657220736574746c656d656e740000000081525060085461330f565b6000878152600b6020526040908190206001810154600490910155517f782b1e1b5d0c69f9f4c1e43a846c9ce710491a77f5adb86c3fe465f2cc9bfab9906120a3908490613e75565b60405180910390a16000878152600b60205260409081902090517f929af310c689982c60d4ec73c6e4b602e89c6f6a31da7c2df4888fb0627cb2b1916120e891613d10565b60405180910390a16001600960008282546121039190613cbd565b90915550505060009586525050600b602052505060409091206006015492915050565b6000828152600d602090815260408083208484528252808320600201805482518185028101850190935280835260609492939192909184015b828210156121c65760008481526020908190206040805160a08101825260058602909201805483526001808201548486015260028201546001600160a01b03169284019290925260038101546060840152600401546080830152908352909201910161215f565b50505050905092915050565b600a5461010090046001600160a01b0316331461223c5760405162461bcd60e51b815260206004820152602260248201527f4f6e6c79206f776e65722063616e206368616e67652070726f746f636f6c2066604482015261656560f01b60648201526084016107b9565b600255565b60008060035483426122539190613db1565b61225d9190613cbd565b9050600061226b8442613db1565b604080516002808252606082018352929350600092909160208301908036833701905050905082816000815181106122a5576122a5613d82565b602002602001019063ffffffff16908163ffffffff168152505081816001815181106122d3576122d3613d82565b63ffffffff909216602092830291909101909101526004805460405163883bdbfd60e01b81526000926001600160a01b039092169163883bdbfd9161231a918691016140e9565b600060405180830381865afa158015612337573d6000803e3d6000fd5b505050506040513d6000823e601f3d908101601f1916820160405261235f91908101906141e5565b50905060008160008151811061237757612377613d82565b602002602001015160060b8260018151811061239557612395613d82565b602002602001015160060b6123aa91906142b1565b905060008112156123f35760405162461bcd60e51b81526020600482015260136024820152724e65676174697665207469636b2064656c746160681b60448201526064016107b9565b80600061240963ffffffff808816908916613db1565b905060006124178284613ca9565b9050600061242482613584565b9050600061243b6001600160a01b03831680613f94565b6004805460408051630dfe168160e01b81529051939450606085901c936000936001600160a01b0390931692630dfe1681928082019260209290918290030181865afa15801561248f573d6000803e3d6000fd5b505050506040513d601f19601f820116820180604052508101906124b3919061407e565b90506000600460009054906101000a90046001600160a01b03166001600160a01b031663d21220a76040518163ffffffff1660e01b8152600401602060405180830381865afa15801561250a573d6000803e3d6000fd5b505050506040513d601f19601f8201168201806040525081019061252e919061407e565b90506000826001600160a01b031663313ce5676040518163ffffffff1660e01b8152600401602060405180830381865afa158015612570573d6000803e3d6000fd5b505050506040513d601f19601f82011682018060405250810190612594919061409b565b90506000826001600160a01b031663313ce5676040518163ffffffff1660e01b8152600401602060405180830381865afa1580156125d6573d6000803e3d6000fd5b505050506040513d601f19601f820116820180604052508101906125fa919061409b565b90508060ff168260ff16111561261f57612618856113818385613e88565b9450612640565b8160ff168160ff1611156126405761263d8560016113b88585613e88565b94505b61264f600160601b8087612668565b9450849f50505050505050505050505050505050919050565b60008080600019858709858702925082811083820303915050806000036126a1576000841161269657600080fd5b5082900490506110ba565b8084116126ad57600080fd5b6000848688098084039381119092039190506000856126ce81196001613cbd565b169586900495938490049360008190030460010190506126ee8184613f94565b9093179260006126ff876003613f94565b600218905061270e8188613f94565b612719906002613db1565b6127239082613f94565b905061272f8188613f94565b61273a906002613db1565b6127449082613f94565b90506127508188613f94565b61275b906002613db1565b6127659082613f94565b90506127718188613f94565b61277c906002613db1565b6127869082613f94565b90506127928188613f94565b61279d906002613db1565b6127a79082613f94565b90506127b38188613f94565b6127be906002613db1565b6127c89082613f94565b90506127d48186613f94565b9998505050505050505050565b6000806127ed83610bbb565b6000818152600b6020526040902054909150156128435760405162461bcd60e51b81526020600482015260146024820152734672616d6520616c72656164792065786973747360601b60448201526064016107b9565b42600054826128529190613cbd565b10156128a05760405162461bcd60e51b815260206004820152601d60248201527f4672616d652068617320746f20626520696e207468652066757475726500000060448201526064016107b9565b6000818152600b602052604090819020828155600c8054600181019091557fdf6966c971051c3d54ec59162606531493a51404a002842f56009d7e5cf4a8c70183905590517f929af310c689982c60d4ec73c6e4b602e89c6f6a31da7c2df4888fb0627cb2b19161291091613d10565b60405180910390a192915050565b600061292a84836115d7565b9050600061293782610872565b90506129786040518060400160405280601c81526020017f54617820616d6f756e7420696e20746f6b656e20646563696d616c73000000008152508261330f565b600081116129985760405162461bcd60e51b81526004016107b9906142d1565b6040805180820182526012815271105b1b1bddd85b98d9481d1bc81cdc195b9960721b60208201526007549151636eb1769f60e11b8152336004820152306024820152612a33926001600160a01b03169063dd62ed3e90604401602060405180830381865afa158015612a0f573d6000803e3d6000fd5b505050506040513d601f19601f820116820180604052508101906116bf919061432e565b600754604051636eb1769f60e11b815233600482015230602482015282916001600160a01b03169063dd62ed3e90604401602060405180830381865afa158015612a81573d6000803e3d6000fd5b505050506040513d601f19601f82011682018060405250810190612aa5919061432e565b1015612ac35760405162461bcd60e51b81526004016107b990614347565b7f161bcca7119915b50764b4abe86529797775a5f17195100000000000000000008410612b245760405162461bcd60e51b815260206004820152600f60248201526e4c6f74206b657920746f6f2062696760881b60448201526064016107b9565b6000858152600d6020908152604080832087845290915290206001015415612b835760405162461bcd60e51b81526020600482015260126024820152714c6f7420616c72656164792065786973747360701b60448201526064016107b9565b60006040518060a00160405280438152602001428152602001336001600160a01b03168152602001858152602001612bba846110de565b90526000878152600d6020908152604080832089845282528083208a815560018082018b9055600280830180548084018255908752858720885160059092020190815594870151918501919091559185015191830180546001600160a01b0319166001600160a01b0390931692909217909155606084015160038301556080840151600490920191909155919250612c5288886110c1565b600e805460018181019092557fbb7b4a454dc3493923482f07822329ed19e8244eff582cc204f8554c3620c3fd0182905560008a8152600b6020908152604082208684015460029091018054948501815583529120909101559050612cb6846110de565b6000898152600b602052604081206007018054909190612cd7908490613cbd565b90915550506007546040516323b872dd60e01b81526001600160a01b03909116906323b872dd90612d109033903090899060040161437e565b6020604051808303816000875af1158015612d2f573d6000803e3d6000fd5b505050506040513d601f19601f82011682018060405250810190612d5391906140b6565b50612d766040518060600160405280602d815260200161446d602d91398561330f565b5050505050505050565b6000612d8c84836115d7565b90506000612d9982610872565b600754604051636eb1769f60e11b815233600482015230602482015291925082916001600160a01b039091169063dd62ed3e90604401602060405180830381865afa158015612dec573d6000803e3d6000fd5b505050506040513d601f19601f82011682018060405250810190612e10919061432e565b1015612e2e5760405162461bcd60e51b81526004016107b990614347565b6007546040516323b872dd60e01b81526001600160a01b03909116906323b872dd90612e629033903090869060040161437e565b6020604051808303816000875af1158015612e81573d6000803e3d6000fd5b505050506040513d601f19601f82011682018060405250810190612ea591906140b6565b50600d600086815260200190815260200160002060008581526020019081526020016000206002016040518060a00160405280438152602001428152602001336001600160a01b03168152602001858152602001612f02846110de565b905281546001808201845560009384526020938490208351600590930201918255928201519281019290925560408101516002830180546001600160a01b0319166001600160a01b039092169190911790556060810151600383015560800151600490910155612f71816110de565b6000868152600b602052604081206007018054909190612f92908490613cbd565b90915550505050505050565b6000838152600d6020908152604080832085845290915281206002018054612fc890600190613db1565b81548110612fd857612fd8613d82565b600091825260208220600260059092020101546001600160a01b0316915061300085846115d7565b9050600081116130225760405162461bcd60e51b81526004016107b9906142d1565b6000858152600d602090815260408083208784529091528120600201805461304c90600190613db1565b8154811061305c5761305c613d82565b9060005260206000209060050201600301549050600061307b82610872565b9050600061308884610872565b90506130948282613cbd565b600754604051636eb1769f60e11b81523360048201523060248201526001600160a01b039091169063dd62ed3e90604401602060405180830381865afa1580156130e2573d6000803e3d6000fd5b505050506040513d601f19601f82011682018060405250810190613106919061432e565b10156131245760405162461bcd60e51b81526004016107b990614347565b6007546040516323b872dd60e01b81526001600160a01b03909116906323b872dd906131589033903090869060040161437e565b6020604051808303816000875af1158015613177573d6000803e3d6000fd5b505050506040513d601f19601f8201168201806040525081019061319b91906140b6565b506007546040516323b872dd60e01b81526001600160a01b03909116906323b872dd906131d09033908990879060040161437e565b6020604051808303816000875af11580156131ef573d6000803e3d6000fd5b505050506040513d601f19601f8201168201806040525081019061321391906140b6565b50600d600089815260200190815260200160002060008881526020019081526020016000206002016040518060a00160405280438152602001428152602001336001600160a01b03168152602001888152602001613270846110de565b905281546001808201845560009384526020938490208351600590930201918255928201519281019290925560408101516002830180546001600160a01b0319166001600160a01b0390921691909117905560608101516003830155608001516004909101556132df816110de565b6000898152600b602052604081206007018054909190613300908490613cbd565b90915550505050505050505050565b6115d382826040516024016133259291906143e8565b60408051601f198184030181529190526020810180516001600160e01b0316632d839cb360e21b17905261396f565b600060018211613362575090565b816001600160801b821061337b5760809190911c9060401b5b6801000000000000000082106133965760409190911c9060201b5b64010000000082106133ad5760209190911c9060101b5b6201000082106133c25760109190911c9060081b5b61010082106133d65760089190911c9060041b5b601082106133e95760049190911c9060021b5b600482106133f55760011b5b600302600190811c9081858161340d5761340d613c7d565b048201901c9050600181858161342557613425613c7d565b048201901c9050600181858161343d5761343d613c7d565b048201901c9050600181858161345557613455613c7d565b048201901c9050600181858161346d5761346d613c7d565b048201901c9050600181858161348557613485613c7d565b048201901c90506134a481858161349e5761349e613c7d565b04821190565b90039392505050565b6115d382826040516024016134c392919061440a565b60408051601f198184030181529190526020810180516001600160e01b031663319af33360e01b17905261396f565b61353983838360405160240161350a93929190614434565b60408051601f198184030181529190526020810180516001600160e01b031663ca47c4eb60e01b17905261396f565b505050565b613581816040516024016135529190614459565b60408051601f198184030181529190526020810180516001600160e01b031663104c13eb60e21b17905261396f565b50565b600081620d89e88111156135be5760405162461bcd60e51b81526020600482015260016024820152601560fa1b60448201526064016107b9565b6000816001166000036135d557600160801b6135e7565b6ffffcb933bd6fad37aa2d162d1a5940015b70ffffffffffffffffffffffffffffffffff1690506002821615613626576080613621826ffff97272373d413259a46990580e213a613f94565b901c90505b600482161561365057608061364b826ffff2e50f5f656932ef12357cf3c7fdcc613f94565b901c90505b600882161561367a576080613675826fffe5caca7e10e4e61c3624eaa0941cd0613f94565b901c90505b60108216156136a457608061369f826fffcb9843d60f6159c9db58835c926644613f94565b901c90505b60208216156136ce5760806136c9826fff973b41fa98c081472e6896dfb254c0613f94565b901c90505b60408216156136f85760806136f3826fff2ea16466c96a3843ec78b326b52861613f94565b901c90505b608082161561372257608061371d826ffe5dee046a99a2a811c461f1969c3053613f94565b901c90505b61010082161561374d576080613748826ffcbe86c7900a88aedcffc83b479aa3a4613f94565b901c90505b610200821615613778576080613773826ff987a7253ac413176f2b074cf7815e54613f94565b901c90505b6104008216156137a357608061379e826ff3392b0822b70005940c7a398e4b70f3613f94565b901c90505b6108008216156137ce5760806137c9826fe7159475a2c29b7443b29c7fa6e889d9613f94565b901c90505b6110008216156137f95760806137f4826fd097f3bdfd2022b8845ad8f792aa5825613f94565b901c90505b61200082161561382457608061381f826fa9f746462d870fdf8a65dc1f90e061e5613f94565b901c90505b61400082161561384f57608061384a826f70d869a156d2a1b890bb3df62baf32f7613f94565b901c90505b61800082161561387a576080613875826f31be135f97d08fd981231505542fcfa6613f94565b901c90505b620100008216156138a65760806138a1826f09aa508b5b7a84e1c677de54f3e99bc9613f94565b901c90505b620200008216156138d15760806138cc826e5d6af8dedb81196699c329225ee604613f94565b901c90505b620400008216156138fb5760806138f6826d2216e584f5fa1ea926041bedfe98613f94565b901c90505b6208000082161561392357608061391e826b048a170391f7dc42444e8fa2613f94565b901c90505b83156139385761393581600019613ca9565b90505b61394764010000000082613dc4565b15613953576001613956565b60005b6139679060ff16602083901c613cbd565b949350505050565b6135818160006a636f6e736f6c652e6c6f679050600080835160208501845afa505050565b6000602082840312156139a657600080fd5b5035919050565b6020808252825182820181905260009190848201906040850190845b818110156139e5578351835292840192918401916001016139c9565b50909695505050505050565b60008060408385031215613a0457600080fd5b50508035926020909101359150565b634e487b7160e01b600052602160045260246000fd5b6020810160048310613a3d57613a3d613a13565b91905290565b600080600060608486031215613a5857600080fd5b505081359360208301359350604090920135919050565b80518252602080820151908301526040808201516001600160a01b031690830152606080820151908301526080908101519082015260a00190565b6000602080835260808301845182850152818501516040850152604085015160608086015281815180845260a0870191508483019350600092505b80831015613b0a57613af8828551613a6f565b91508484019350600183019250613ae5565b509695505050505050565b6000602080835261012083018451828501528185015160408501526040850151610100806060870152828251808552610140880191508584019450600093505b80841015613b755784518252938501936001939093019290850190613b55565b5060608801516001600160a01b03811660808901529450608088015160a088015260a088015160c088015260c088015160e088015260e088015182880152809550505050505092915050565b801515811461358157600080fd5b60008060408385031215613be257600080fd5b823591506020830135613bf481613bc1565b809150509250929050565b6020810160058310613a3d57613a3d613a13565b6020808252825182820181905260009190848201906040850190845b818110156139e557613c42838551613a6f565b938501939250600101613c2f565b602080825260139082015272119c985b5948191bd95cdb89dd08195e1a5cdd606a1b604082015260600190565b634e487b7160e01b600052601260045260246000fd5b634e487b7160e01b600052601160045260246000fd5b600082613cb857613cb8613c7d565b500490565b808201808211156108a3576108a3613c93565b6000815480845260208085019450836000528060002060005b83811015613d0557815487529582019560019182019101613ce9565b509495945050505050565b6020815281546020820152600182015460408201526000610100806060840152613d41610120840160028601613cd0565b60038501546001600160a01b03166080850152600485015460a0850152600585015460c0850152600685015460e08501526007909401549201919091525090565b634e487b7160e01b600052603260045260246000fd5b600060018201613daa57613daa613c93565b5060010190565b818103818111156108a3576108a3613c93565b600082613dd357613dd3613c7d565b500690565b60006060808401835485526001808501546020818189015260029150818701604086818b015285825480885260809750878c0191508360005284600020935060005b81811015613e6457845483528785015486840152868501546001600160a01b03168484015260038501548a84015260048501548984015260059094019360a0909201918701613e1a565b50909b9a5050505050505050505050565b6020815260006110ba6020830184613dd8565b60ff82811682821603908111156108a3576108a3613c93565b600181815b80851115613edc578160001904821115613ec257613ec2613c93565b80851615613ecf57918102915b93841c9390800290613ea6565b509250929050565b600082613ef3575060016108a3565b81613f00575060006108a3565b8160018114613f165760028114613f2057613f3c565b60019150506108a3565b60ff841115613f3157613f31613c93565b50506001821b6108a3565b5060208310610133831016604e8410600b8410161715613f5f575081810a6108a3565b613f698383613ea1565b8060001904821115613f7d57613f7d613c93565b029392505050565b60006110ba60ff841683613ee4565b80820281158282048414176108a3576108a3613c93565b6001600160a01b038116811461358157600080fd5b805161ffff81168114613fd257600080fd5b919050565b805160ff81168114613fd257600080fd5b600080600080600080600060e0888a03121561400357600080fd5b875161400e81613fab565b8097505060208801518060020b811461402657600080fd5b955061403460408901613fc0565b945061404260608901613fc0565b935061405060808901613fc0565b925061405e60a08901613fd7565b915060c088015161406e81613bc1565b8091505092959891949750929550565b60006020828403121561409057600080fd5b81516110ba81613fab565b6000602082840312156140ad57600080fd5b6110ba82613fd7565b6000602082840312156140c857600080fd5b81516110ba81613bc1565b634e487b7160e01b600052604160045260246000fd5b6020808252825182820181905260009190848201906040850190845b818110156139e557835163ffffffff1683529284019291840191600101614105565b604051601f8201601f1916810167ffffffffffffffff81118282101715614150576141506140d3565b604052919050565b600067ffffffffffffffff821115614172576141726140d3565b5060051b60200190565b600082601f83011261418d57600080fd5b815160206141a261419d83614158565b614127565b82815260059290921b840181019181810190868411156141c157600080fd5b8286015b84811015613b0a5780516141d881613fab565b83529183019183016141c5565b600080604083850312156141f857600080fd5b825167ffffffffffffffff8082111561421057600080fd5b818501915085601f83011261422457600080fd5b8151602061423461419d83614158565b82815260059290921b8401810191818101908984111561425357600080fd5b948201945b838610156142815785518060060b81146142725760008081fd5b82529482019490820190614258565b9188015191965090935050508082111561429a57600080fd5b506142a78582860161417c565b9150509250929050565b818103600083128015838313168383128216171561100f5761100f613c93565b6020808252603c908201527f5461782068617320746f2062652067726561746572207468616e20302e20496e60408201527f63726561736520746865206163717569736974696f6e20707269636500000000606082015260800190565b60006020828403121561434057600080fd5b5051919050565b6020808252601e908201527f416c6c6f77616e636520746f207370656e642073657420746f6f206c6f770000604082015260600190565b6001600160a01b039384168152919092166020820152604081019190915260600190565b6000815180845260005b818110156143c8576020818501810151868301820152016143ac565b506000602082860101526020601f19601f83011685010191505092915050565b6040815260006143fb60408301856143a2565b90508260208301529392505050565b60408152600061441d60408301856143a2565b905060018060a01b03831660208301529392505050565b60608152600061444760608301866143a2565b60208301949094525060400152919050565b6020815260006110ba60208301846143a256fe54617820616d6f756e74207472616e7366657272656420746f20746865206d61726b657420636f6e74726163744e6f206e657874206672616d652c207472616e7366657272696e672072657761726420706f6f6c20746f206f776e65724e6f2077696e6e65722c206e657874206672616d652072657761726420706f6f6c2075706461746564a2646970667358221220f665a919ad6c15c161c24c9607a012e71bbf12b212746821d5ba2103c98cd8a864736f6c63430008140033",
  "linkReferences": {},
  "deployedLinkReferences": {}
}