{
  "_format": "hh-sol-artifact-1",
  "contractName": "Market",
  "sourceName": "contracts/Market.sol",
  "abi": [
    {
      "inputs": [
        {
          "internalType": "address",
          "name": "_accountingToken",
          "type": "address"
        }
      ],
      "stateMutability": "nonpayable",
      "type": "constructor"
    },
    {
      "anonymous": false,
      "inputs": [
        {
          "components": [
            {
              "internalType": "uint256",
              "name": "frameKey",
              "type": "uint256"
            },
            {
              "internalType": "uint256",
              "name": "rate",
              "type": "uint256"
            },
            {
              "internalType": "uint256[]",
              "name": "lotKeys",
              "type": "uint256[]"
            },
            {
              "internalType": "address",
              "name": "claimedBy",
              "type": "address"
            },
            {
              "internalType": "uint256",
              "name": "rateSettle",
              "type": "uint256"
            },
            {
              "internalType": "uint256",
              "name": "feeSettle",
              "type": "uint256"
            },
            {
              "internalType": "uint256",
              "name": "rewardSettle",
              "type": "uint256"
            }
          ],
          "indexed": false,
          "internalType": "struct Market.Frame",
          "name": "frame",
          "type": "tuple"
        }
      ],
      "name": "FrameUpdate",
      "type": "event"
    },
    {
      "anonymous": false,
      "inputs": [
        {
          "components": [
            {
              "internalType": "uint256",
              "name": "frameKey",
              "type": "uint256"
            },
            {
              "internalType": "uint256",
              "name": "lotKey",
              "type": "uint256"
            },
            {
              "components": [
                {
                  "internalType": "uint256",
                  "name": "blockNumber",
                  "type": "uint256"
                },
                {
                  "internalType": "uint256",
                  "name": "blockTimestamp",
                  "type": "uint256"
                },
                {
                  "internalType": "address",
                  "name": "owner",
                  "type": "address"
                },
                {
                  "internalType": "uint256",
                  "name": "acquisitionPrice",
                  "type": "uint256"
                },
                {
                  "internalType": "uint256",
                  "name": "taxCharged",
                  "type": "uint256"
                },
                {
                  "internalType": "uint256",
                  "name": "taxRefunded",
                  "type": "uint256"
                }
              ],
              "internalType": "struct Market.LotState[]",
              "name": "states",
              "type": "tuple[]"
            }
          ],
          "indexed": false,
          "internalType": "struct Market.Lot",
          "name": "lot",
          "type": "tuple"
        }
      ],
      "name": "LotUpdate",
      "type": "event"
    },
    {
      "inputs": [],
      "name": "accountingToken",
      "outputs": [
        {
          "internalType": "contract IERC20Metadata",
          "name": "",
          "type": "address"
        }
      ],
      "stateMutability": "view",
      "type": "function"
    },
    {
      "inputs": [],
      "name": "accountingTokenDecimals",
      "outputs": [
        {
          "internalType": "uint8",
          "name": "",
          "type": "uint8"
        }
      ],
      "stateMutability": "view",
      "type": "function"
    },
    {
      "inputs": [
        {
          "internalType": "uint256",
          "name": "newFee",
          "type": "uint256"
        }
      ],
      "name": "changeProtocolFee",
      "outputs": [],
      "stateMutability": "nonpayable",
      "type": "function"
    },
    {
      "inputs": [
        {
          "internalType": "uint256",
          "name": "newTax",
          "type": "uint256"
        }
      ],
      "name": "changeTaxPercentage",
      "outputs": [],
      "stateMutability": "nonpayable",
      "type": "function"
    },
    {
      "inputs": [
        {
          "internalType": "uint256",
          "name": "timestamp",
          "type": "uint256"
        }
      ],
      "name": "clcFrameKey",
      "outputs": [
        {
          "internalType": "uint256",
          "name": "",
          "type": "uint256"
        }
      ],
      "stateMutability": "view",
      "type": "function"
    },
    {
      "inputs": [
        {
          "internalType": "uint256",
          "name": "value",
          "type": "uint256"
        }
      ],
      "name": "clcLotKey",
      "outputs": [
        {
          "internalType": "uint256",
          "name": "",
          "type": "uint256"
        }
      ],
      "stateMutability": "view",
      "type": "function"
    },
    {
      "inputs": [],
      "name": "clcRate",
      "outputs": [
        {
          "internalType": "uint256",
          "name": "",
          "type": "uint256"
        }
      ],
      "stateMutability": "view",
      "type": "function"
    },
    {
      "inputs": [
        {
          "internalType": "uint256",
          "name": "timestamp",
          "type": "uint256"
        }
      ],
      "name": "clcRateAvg",
      "outputs": [
        {
          "internalType": "uint256",
          "name": "",
          "type": "uint256"
        }
      ],
      "stateMutability": "view",
      "type": "function"
    },
    {
      "inputs": [
        {
          "internalType": "uint256",
          "name": "frameKey",
          "type": "uint256"
        }
      ],
      "name": "clcRewardFund",
      "outputs": [
        {
          "internalType": "uint256",
          "name": "",
          "type": "uint256"
        }
      ],
      "stateMutability": "view",
      "type": "function"
    },
    {
      "inputs": [
        {
          "internalType": "uint256",
          "name": "frameKey",
          "type": "uint256"
        },
        {
          "internalType": "uint256",
          "name": "acquisitionPrice",
          "type": "uint256"
        }
      ],
      "name": "clcTax",
      "outputs": [
        {
          "internalType": "uint256",
          "name": "",
          "type": "uint256"
        }
      ],
      "stateMutability": "view",
      "type": "function"
    },
    {
      "inputs": [
        {
          "internalType": "uint256",
          "name": "frameKey",
          "type": "uint256"
        },
        {
          "internalType": "uint256",
          "name": "lotKey",
          "type": "uint256"
        }
      ],
      "name": "concatenate",
      "outputs": [
        {
          "internalType": "uint256",
          "name": "concatenated",
          "type": "uint256"
        }
      ],
      "stateMutability": "pure",
      "type": "function"
    },
    {
      "inputs": [],
      "name": "dPrice",
      "outputs": [
        {
          "internalType": "uint256",
          "name": "",
          "type": "uint256"
        }
      ],
      "stateMutability": "view",
      "type": "function"
    },
    {
      "inputs": [],
      "name": "feeProtocol",
      "outputs": [
        {
          "internalType": "uint256",
          "name": "",
          "type": "uint256"
        }
      ],
      "stateMutability": "view",
      "type": "function"
    },
    {
      "inputs": [
        {
          "internalType": "uint256",
          "name": "",
          "type": "uint256"
        }
      ],
      "name": "frames",
      "outputs": [
        {
          "internalType": "uint256",
          "name": "frameKey",
          "type": "uint256"
        },
        {
          "internalType": "uint256",
          "name": "rate",
          "type": "uint256"
        },
        {
          "internalType": "address",
          "name": "claimedBy",
          "type": "address"
        },
        {
          "internalType": "uint256",
          "name": "rateSettle",
          "type": "uint256"
        },
        {
          "internalType": "uint256",
          "name": "feeSettle",
          "type": "uint256"
        },
        {
          "internalType": "uint256",
          "name": "rewardSettle",
          "type": "uint256"
        }
      ],
      "stateMutability": "view",
      "type": "function"
    },
    {
      "inputs": [
        {
          "internalType": "uint256",
          "name": "",
          "type": "uint256"
        }
      ],
      "name": "framesKeys",
      "outputs": [
        {
          "internalType": "uint256",
          "name": "",
          "type": "uint256"
        }
      ],
      "stateMutability": "view",
      "type": "function"
    },
    {
      "inputs": [
        {
          "internalType": "uint256",
          "name": "frameKey",
          "type": "uint256"
        }
      ],
      "name": "getFrame",
      "outputs": [
        {
          "components": [
            {
              "internalType": "uint256",
              "name": "frameKey",
              "type": "uint256"
            },
            {
              "internalType": "uint256",
              "name": "rate",
              "type": "uint256"
            },
            {
              "internalType": "uint256[]",
              "name": "lotKeys",
              "type": "uint256[]"
            },
            {
              "internalType": "address",
              "name": "claimedBy",
              "type": "address"
            },
            {
              "internalType": "uint256",
              "name": "rateSettle",
              "type": "uint256"
            },
            {
              "internalType": "uint256",
              "name": "feeSettle",
              "type": "uint256"
            },
            {
              "internalType": "uint256",
              "name": "rewardSettle",
              "type": "uint256"
            }
          ],
          "internalType": "struct Market.Frame",
          "name": "",
          "type": "tuple"
        }
      ],
      "stateMutability": "view",
      "type": "function"
    },
    {
      "inputs": [
        {
          "internalType": "uint256",
          "name": "frameKey",
          "type": "uint256"
        }
      ],
      "name": "getFrameLotKeys",
      "outputs": [
        {
          "internalType": "uint256[]",
          "name": "",
          "type": "uint256[]"
        }
      ],
      "stateMutability": "view",
      "type": "function"
    },
    {
      "inputs": [],
      "name": "getFramesLength",
      "outputs": [
        {
          "internalType": "uint256",
          "name": "",
          "type": "uint256"
        }
      ],
      "stateMutability": "view",
      "type": "function"
    },
    {
      "inputs": [
        {
          "internalType": "uint256",
          "name": "frameKey",
          "type": "uint256"
        },
        {
          "internalType": "uint256",
          "name": "lotKey",
          "type": "uint256"
        }
      ],
      "name": "getLot",
      "outputs": [
        {
          "components": [
            {
              "internalType": "uint256",
              "name": "frameKey",
              "type": "uint256"
            },
            {
              "internalType": "uint256",
              "name": "lotKey",
              "type": "uint256"
            },
            {
              "components": [
                {
                  "internalType": "uint256",
                  "name": "blockNumber",
                  "type": "uint256"
                },
                {
                  "internalType": "uint256",
                  "name": "blockTimestamp",
                  "type": "uint256"
                },
                {
                  "internalType": "address",
                  "name": "owner",
                  "type": "address"
                },
                {
                  "internalType": "uint256",
                  "name": "acquisitionPrice",
                  "type": "uint256"
                },
                {
                  "internalType": "uint256",
                  "name": "taxCharged",
                  "type": "uint256"
                },
                {
                  "internalType": "uint256",
                  "name": "taxRefunded",
                  "type": "uint256"
                }
              ],
              "internalType": "struct Market.LotState[]",
              "name": "states",
              "type": "tuple[]"
            }
          ],
          "internalType": "struct Market.Lot",
          "name": "",
          "type": "tuple"
        }
      ],
      "stateMutability": "view",
      "type": "function"
    },
    {
      "inputs": [
        {
          "internalType": "uint256",
          "name": "frameKey",
          "type": "uint256"
        },
        {
          "internalType": "uint256",
          "name": "lotKey",
          "type": "uint256"
        }
      ],
      "name": "getLotStates",
      "outputs": [
        {
          "components": [
            {
              "internalType": "uint256",
              "name": "blockNumber",
              "type": "uint256"
            },
            {
              "internalType": "uint256",
              "name": "blockTimestamp",
              "type": "uint256"
            },
            {
              "internalType": "address",
              "name": "owner",
              "type": "address"
            },
            {
              "internalType": "uint256",
              "name": "acquisitionPrice",
              "type": "uint256"
            },
            {
              "internalType": "uint256",
              "name": "taxCharged",
              "type": "uint256"
            },
            {
              "internalType": "uint256",
              "name": "taxRefunded",
              "type": "uint256"
            }
          ],
          "internalType": "struct Market.LotState[]",
          "name": "",
          "type": "tuple[]"
        }
      ],
      "stateMutability": "view",
      "type": "function"
    },
    {
      "inputs": [],
      "name": "getLotsArray",
      "outputs": [
        {
          "internalType": "uint256[]",
          "name": "",
          "type": "uint256[]"
        }
      ],
      "stateMutability": "view",
      "type": "function"
    },
    {
      "inputs": [],
      "name": "getLotsArrayLength",
      "outputs": [
        {
          "internalType": "uint256",
          "name": "",
          "type": "uint256"
        }
      ],
      "stateMutability": "view",
      "type": "function"
    },
    {
      "inputs": [
        {
          "internalType": "uint256",
          "name": "frameKey",
          "type": "uint256"
        }
      ],
      "name": "getLotsKeysInFrame",
      "outputs": [
        {
          "internalType": "uint256[]",
          "name": "",
          "type": "uint256[]"
        }
      ],
      "stateMutability": "view",
      "type": "function"
    },
    {
      "inputs": [
        {
          "internalType": "uint256",
          "name": "frameKey",
          "type": "uint256"
        }
      ],
      "name": "getLotsLength",
      "outputs": [
        {
          "internalType": "uint256",
          "name": "",
          "type": "uint256"
        }
      ],
      "stateMutability": "view",
      "type": "function"
    },
    {
      "inputs": [
        {
          "internalType": "uint256",
          "name": "frameKey",
          "type": "uint256"
        }
      ],
      "name": "getStateFrame",
      "outputs": [
        {
          "internalType": "enum Market.SFrame",
          "name": "",
          "type": "uint8"
        }
      ],
      "stateMutability": "view",
      "type": "function"
    },
    {
      "inputs": [
        {
          "internalType": "uint256",
          "name": "frameKey",
          "type": "uint256"
        },
        {
          "internalType": "uint256",
          "name": "lotKey",
          "type": "uint256"
        }
      ],
      "name": "getStateLot",
      "outputs": [
        {
          "internalType": "enum Market.SLot",
          "name": "",
          "type": "uint8"
        }
      ],
      "stateMutability": "view",
      "type": "function"
    },
    {
      "inputs": [],
      "name": "initTimestamp",
      "outputs": [
        {
          "internalType": "uint256",
          "name": "",
          "type": "uint256"
        }
      ],
      "stateMutability": "view",
      "type": "function"
    },
    {
      "inputs": [
        {
          "internalType": "uint256",
          "name": "",
          "type": "uint256"
        },
        {
          "internalType": "uint256",
          "name": "",
          "type": "uint256"
        }
      ],
      "name": "lots",
      "outputs": [
        {
          "internalType": "uint256",
          "name": "frameKey",
          "type": "uint256"
        },
        {
          "internalType": "uint256",
          "name": "lotKey",
          "type": "uint256"
        }
      ],
      "stateMutability": "view",
      "type": "function"
    },
    {
      "inputs": [
        {
          "internalType": "uint256",
          "name": "",
          "type": "uint256"
        }
      ],
      "name": "lotsArray",
      "outputs": [
        {
          "internalType": "uint256",
          "name": "",
          "type": "uint256"
        }
      ],
      "stateMutability": "view",
      "type": "function"
    },
    {
      "inputs": [
        {
          "internalType": "uint256",
          "name": "frameKey",
          "type": "uint256"
        },
        {
          "internalType": "uint256",
          "name": "avgPrice",
          "type": "uint256"
        }
      ],
      "name": "overrideFrameRate",
      "outputs": [],
      "stateMutability": "nonpayable",
      "type": "function"
    },
    {
      "inputs": [],
      "name": "owner",
      "outputs": [
        {
          "internalType": "address",
          "name": "",
          "type": "address"
        }
      ],
      "stateMutability": "view",
      "type": "function"
    },
    {
      "inputs": [],
      "name": "period",
      "outputs": [
        {
          "internalType": "uint256",
          "name": "",
          "type": "uint256"
        }
      ],
      "stateMutability": "view",
      "type": "function"
    },
    {
      "inputs": [
        {
          "internalType": "uint256",
          "name": "frameKey",
          "type": "uint256"
        }
      ],
      "name": "setFrameRate",
      "outputs": [],
      "stateMutability": "nonpayable",
      "type": "function"
    },
    {
      "inputs": [
        {
          "internalType": "uint256",
          "name": "frameKey",
          "type": "uint256"
        }
      ],
      "name": "settleFrame",
      "outputs": [
        {
          "internalType": "uint256",
          "name": "",
          "type": "uint256"
        }
      ],
      "stateMutability": "nonpayable",
      "type": "function"
    },
    {
      "inputs": [],
      "name": "tSettle",
      "outputs": [
        {
          "internalType": "uint256",
          "name": "",
          "type": "uint256"
        }
      ],
      "stateMutability": "view",
      "type": "function"
    },
    {
      "inputs": [],
      "name": "taxMarket",
      "outputs": [
        {
          "internalType": "uint256",
          "name": "",
          "type": "uint256"
        }
      ],
      "stateMutability": "view",
      "type": "function"
    },
    {
      "inputs": [
        {
          "internalType": "uint256",
          "name": "timestamp",
          "type": "uint256"
        },
        {
          "internalType": "uint256",
          "name": "rate",
          "type": "uint256"
        },
        {
          "internalType": "uint256",
          "name": "acquisitionPrice",
          "type": "uint256"
        }
      ],
      "name": "tradeLot",
      "outputs": [],
      "stateMutability": "nonpayable",
      "type": "function"
    },
    {
      "inputs": [],
      "name": "uniswapPool",
      "outputs": [
        {
          "internalType": "contract IUniswapV3Pool",
          "name": "",
          "type": "address"
        }
      ],
      "stateMutability": "view",
      "type": "function"
    },
    {
      "inputs": [
        {
          "internalType": "uint256",
          "name": "amount",
          "type": "uint256"
        }
      ],
      "name": "withdrawAccountingToken",
      "outputs": [],
      "stateMutability": "nonpayable",
      "type": "function"
    }
  ],
  "bytecode": "0x608060405262015180600055636592e180600155617530600255610258600355600480546001600160a01b0319167345dda9cb7c25131df268515131f647d726f506081790556305f5e1006005556127106006553480156200006057600080fd5b50604051620039aa380380620039aa83398101604081905262000083916200012f565b600880546001600160a01b03199081163317909155600780546001600160a01b0384169216821790556040805163313ce56760e01b8152905163313ce567916004808201926020929091908290030181865afa158015620000e8573d6000803e3d6000fd5b505050506040513d601f19601f820116820180604052508101906200010e919062000161565b600760146101000a81548160ff021916908360ff1602179055505062000186565b6000602082840312156200014257600080fd5b81516001600160a01b03811681146200015a57600080fd5b9392505050565b6000602082840312156200017457600080fd5b815160ff811681146200015a57600080fd5b61381480620001966000396000f3fe608060405234801561001057600080fd5b506004361061023d5760003560e01c80638edc6a2c1161013b578063c0423f2e116100b8578063ef78d4fd1161007c578063ef78d4fd1461057e578063f601d51014610587578063fb0d5e09146105ad578063fe687475146105cd578063ffdabe2d146105e057600080fd5b8063c0423f2e14610535578063d18743dd1461053d578063da68cf8b14610550578063e107fb4f14610563578063ed320aa81461057657600080fd5b8063b93dafa9116100ff578063b93dafa9146104a0578063ba4e137f146104e7578063ba52f342146104ef578063bad1265314610502578063bdd3d8251461052257600080fd5b80638edc6a2c146103bc5780639592de18146103df578063a10340bc146103f2578063a73482f61461047a578063b866debb1461048d57600080fd5b8063527eb4bc116101c9578063773d51eb1161018d578063773d51eb1461034c5780637e9966391461036c57806386e670cb146103755780638a5779c8146103885780638da5cb5b1461039157600080fd5b8063527eb4bc146102f457806361eee2cb146102fd57806364772f21146103105780636f1aefc3146103235780637358c57a1461034357600080fd5b80632457e620116102105780632457e6201461026857806339a6a489146102a55780633baf1587146102b8578063499a0fc4146102cb5780634c73884f146102d457600080fd5b8063050e8840146102425780630d0a1c1a1461026857806318d13d8714610288578063197c4e781461029d575b600080fd5b610255610250366004612e48565b6105f3565b6040519081526020015b60405180910390f35b61027b610276366004612e48565b610614565b60405161025f9190612e61565b61029b610296366004612ea5565b610679565b005b600c54610255565b6102556102b3366004612e48565b610798565b61029b6102c6366004612e48565b610965565b61025560055481565b6102e76102e2366004612ea5565b610a2f565b60405161025f9190612edd565b61025560025481565b61025561030b366004612e48565b610b5c565b61029b61031e366004612ef7565b610b93565b610336610331366004612ea5565b610ccc565b60405161025f9190612f68565b61025560015481565b61035f61035a366004612e48565b610e23565b60405161025f9190612fd3565b61025560065481565b61029b610383366004612e48565b610f4c565b61025560035481565b6008546103a4906001600160a01b031681565b6040516001600160a01b03909116815260200161025f565b6102556103ca366004612e48565b60009081526009602052604090206002015490565b6102556103ed366004612e48565b610fb7565b61043f610400366004612e48565b600960205260009081526040902080546001820154600383015460048401546005850154600690950154939492936001600160a01b0390921692909186565b6040805196875260208701959095526001600160a01b03909316938501939093526060840152608083019190915260a082015260c00161025f565b610255610488366004612ea5565b610fe2565b61025561049b366004612e48565b611006565b6104d26104ae366004612ea5565b600b6020908152600092835260408084209091529082529020805460019091015482565b6040805192835260208301919091520161025f565b61025561153e565b6102556104fd366004612e48565b61161b565b610515610510366004612e48565b61162b565b60405161025f9190613073565b6004546103a4906001600160a01b031681565b61027b6116c2565b61029b61054b366004612e48565b61171a565b6007546103a4906001600160a01b031681565b610255610571366004612ea5565b611802565b600a54610255565b61025560005481565b60075461059b90600160a01b900460ff1681565b60405160ff909116815260200161025f565b6105c06105bb366004612ea5565b6118d8565b60405161025f9190613087565b61029b6105db366004612e48565b61198e565b6102556105ee366004612e48565b6119f8565b600a818154811061060357600080fd5b600091825260209091200154905081565b60008181526009602090815260409182902060020180548351818402810184019094528084526060939283018282801561066d57602002820191906000526020600020905b815481526020019060010190808311610659575b50505050509050919050565b6008546001600160a01b031633146106e85760405162461bcd60e51b815260206004820152602760248201527f4f6e6c79206f776e65722063616e20757064617465206672616d6520636c6f736044820152666520707269636560c81b60648201526084015b60405180910390fd5b60008281526009602052604081205490036107155760405162461bcd60e51b81526004016106df906130c4565b6000828152600960205260409020600301546001600160a01b03161561077d5760405162461bcd60e51b815260206004820181905260248201527f4672616d65207265776172642077617320616c726561647920636c61696d656460448201526064016106df565b60009182526009602052604080832054835290912060010155565b600080805b60008481526009602052604090206002015481101561095e57600084815260096020818152604080842080548552600b8352908420888552929091526002018054839190859081106107f1576107f16130f1565b90600052602060002001548152602001908152602001600020604051806060016040529081600082015481526020016001820154815260200160028201805480602002602001604051908101604052809291908181526020016000905b828210156108bf5760008481526020908190206040805160c08101825260068602909201805483526001808201548486015260028201546001600160a01b03169284019290925260038101546060840152600481015460808401526005015460a0830152908352909201910161084e565b5050505081525050905060005b81604001515181101561094957816040015181815181106108ef576108ef6130f1565b60200260200101516080015184610906919061311d565b93508160400151818151811061091e5761091e6130f1565b602002602001015160a00151846109359190613130565b93508061094181613143565b9150506108cc565b5050808061095690613143565b91505061079d565b5092915050565b60008054828252600960205260409091205442916109829161311d565b11156109d05760405162461bcd60e51b815260206004820152601b60248201527f4672616d652068617320746f20626520696e207468652070617374000000000060448201526064016106df565b60006109db826119f8565b600083815260096020526040908190206001810183905590519192507f861dcb88c2eea524dd3c4d2026fc29c39249f4d090843bcc78037879d296c45291610a23919061315c565b60405180910390a15050565b6000828152600b602090815260408083208484529091528120600101548103610a5a57506000610b56565b6000610a658461162b565b6004811115610a7657610a76612ec7565b03610a8357506000610b56565b6001610a8e8461162b565b6004811115610a9f57610a9f612ec7565b1480610ac457506002610ab18461162b565b6004811115610ac257610ac2612ec7565b145b15610ad157506001610b56565b6000838152600b602090815260408083208584528252808320600190810154878552600990935292209091015410801590610b4557506005546000848152600b60209081526040808320868452909152902060010154610b31919061311d565b600084815260096020526040902060010154105b15610b5257506002610b56565b5060035b92915050565b60006001548211610b6f57505060015490565b600054600154610b7f9084613130565b610b899190613210565b610b569083613130565b6000610b9e84610b5c565b90506000610bab84610fb7565b6000838152600b6020908152604080832084845290915281206001015491925003610c00576000828152600960205260408120549003610bf057610bee85611c53565b505b610bfb828285611d90565b610c75565b6000828152600b6020908152604080832084845290915290206002018054339190610c2d90600190613130565b81548110610c3d57610c3d6130f1565b60009182526020909120600260069092020101546001600160a01b031603610c6a57610bfb8282856120c9565b610c75828285612496565b6000828152600b602090815260408083208484529091529081902090517f906ff162b3f2709ab28fb678d43913964434148dd206e9b17adb3c1255090cb191610cbd91613224565b60405180910390a15050505050565b610cf060405180606001604052806000815260200160008152602001606081525090565b6000838152600b602090815260408083208584529091528120600101549003610d4f5760405162461bcd60e51b8152602060048201526011602482015270131bdd08191bd95cdb89dd08195e1a5cdd607a1b60448201526064016106df565b6000838152600b602090815260408083208584528252808320815160608101835281548152600182015481850152600282018054845181870281018701865281815292969395948701949293919290919084015b82821015610e145760008481526020908190206040805160c08101825260068602909201805483526001808201548486015260028201546001600160a01b03169284019290925260038101546060840152600481015460808401526005015460a08301529083529092019101610da3565b50505091525090949350505050565b610e6c6040518060e0016040528060008152602001600081526020016060815260200160006001600160a01b031681526020016000815260200160008152602001600081525090565b6000828152600960205260408120549003610e995760405162461bcd60e51b81526004016106df906130c4565b600082815260096020908152604091829020825160e0810184528154815260018201548184015260028201805485518186028101860187528181529295939493860193830182828015610f0b57602002820191906000526020600020905b815481526020019060010190808311610ef7575b505050918352505060038201546001600160a01b03166020820152600482015460408201526005820154606082015260069091015460809091015292915050565b6008546001600160a01b03163314610fb25760405162461bcd60e51b8152602060048201526024808201527f4f6e6c79206f776e65722063616e206368616e6765207461782070657263656e6044820152637461676560e01b60648201526084016106df565b600655565b6000600554821015610fcb57505060055490565b600554610fd881846132d2565b610b5691906132e6565b6000610ff3826402540be4006132e6565b9150610fff838361311d565b9392505050565b60008181526009602052604081205481036110335760405162461bcd60e51b81526004016106df906130c4565b600361103e8361162b565b600481111561104f5761104f612ec7565b146110a85760405162461bcd60e51b8152602060048201526024808201527f4672616d6520646f6573206e6f742068617665206120636c6f73652072617465604482015263081cd95d60e21b60648201526084016106df565b6000828152600960205260408120600101546110c390610fb7565b6000848152600b60209081526040808320848452825280832081516060810183528154815260018201548185015260028201805484518187028101870186528181529798509596919592949386019391929091879084015b8282101561118c5760008481526020908190206040805160c08101825260068602909201805483526001808201548486015260028201546001600160a01b03169284019290925260038101546060840152600481015460808401526005015460a0830152908352909201910161111b565b5050505081525050905060006111a185610798565b90506000620f4240600254836111b791906132e6565b6111c191906132d2565b600087815260096020526040902060050181905590506111e18183613130565b600087815260096020526040908190206006019190915583015151156113b057600754604084015180516001600160a01b039092169163a9059cbb919061122a90600190613130565b8151811061123a5761123a6130f1565b602002602001015160400151600960008a8152602001908152602001600020600601546040518363ffffffff1660e01b815260040161128e9291906001600160a01b03929092168252602082015260400190565b6020604051808303816000875af11580156112ad573d6000803e3d6000fd5b505050506040513d601f19601f820116820180604052508101906112d19190613312565b50604083015180516112e590600190613130565b815181106112f5576112f56130f1565b60209081029190910181015160409081015160008981526009909352918190206003810180546001600160a01b0319166001600160a01b03948516179055600754600854600590920154925163a9059cbb60e01b81529184166004830152602482019290925291169063a9059cbb906044016020604051808303816000875af1158015611386573d6000803e3d6000fd5b505050506040513d601f19601f820116820180604052508101906113aa9190613312565b5061148e565b600754600854600088815260096020526040902060058101546006909101546001600160a01b039384169363a9059cbb9316916113ec9161311d565b6040516001600160e01b031960e085901b1681526001600160a01b03909216600483015260248201526044016020604051808303816000875af1158015611437573d6000803e3d6000fd5b505050506040513d601f19601f8201168201806040525081019061145b9190613312565b50600854600087815260096020526040902060030180546001600160a01b0319166001600160a01b039092169190911790555b600086815260096020526040908190206001810154600490910155517f906ff162b3f2709ab28fb678d43913964434148dd206e9b17adb3c1255090cb1906114d7908590612f68565b60405180910390a16000868152600960205260409081902090517f861dcb88c2eea524dd3c4d2026fc29c39249f4d090843bcc78037879d296c4529161151c9161315c565b60405180910390a1505050600092835250506009602052604090206006015490565b6004805460408051633850c7bd60e01b8152905160009384936001600160a01b031692633850c7bd928183019260e0928290030181865afa158015611587573d6000803e3d6000fd5b505050506040513d601f19601f820116820180604052508101906115ab9190613356565b505050505050905060008164e8d4a510006115c691906133ec565b6001600160a01b031690506115df600160601b826132d2565b90506115ec600282613502565b90506115fb81620f42406132e6565b9050610fff8173af298d050e4395d69670b12b7f410000000000006132d2565b600c818154811061060357600080fd5b600081815260096020526040812054810361164857506000919050565b6000828152600960205260409020600301546001600160a01b03161561167057506004919050565b60008054838252600960205260409091205461168c919061311d565b42101561169b57506001919050565b600082815260096020526040902060010154156116ba57506003919050565b506002919050565b6060600c80548060200260200160405190810160405280929190818152602001828054801561171057602002820191906000526020600020905b8154815260200190600101908083116116fc575b5050505050905090565b6008546001600160a01b031633146117855760405162461bcd60e51b815260206004820152602860248201527f4f6e6c79206f776e65722063616e207769746864726177206163636f756e74696044820152673733903a37b5b2b760c11b60648201526084016106df565b60075460085460405163a9059cbb60e01b81526001600160a01b0391821660048201526024810184905291169063a9059cbb906044016020604051808303816000875af11580156117da573d6000803e3d6000fd5b505050506040513d601f19601f820116820180604052508101906117fe9190613312565b5050565b60004260005484611813919061311d565b116118605760405162461bcd60e51b815260206004820152601d60248201527f4672616d652068617320746f20626520696e207468652066757475726500000060448201526064016106df565b6000805460065461187990670de0b6b3a76400006132e6565b61188391906132d2565b905060004260005486611896919061311d565b6118a09190613130565b9050600069d3c21bcecceda1000000856118ba85856132e6565b6118c491906132e6565b6118ce91906132d2565b9695505050505050565b6000828152600b602090815260408083208484528252808320600201805482518185028101850190935280835260609492939192909184015b828210156119825760008481526020908190206040805160c08101825260068602909201805483526001808201548486015260028201546001600160a01b03169284019290925260038101546060840152600481015460808401526005015460a08301529083529092019101611911565b50505050905092915050565b6008546001600160a01b031633146119f35760405162461bcd60e51b815260206004820152602260248201527f4f6e6c79206f776e65722063616e206368616e67652070726f746f636f6c2066604482015261656560f01b60648201526084016106df565b600255565b6000806003548342611a0a9190613130565b611a14919061311d565b90506000611a228442613130565b60408051600280825260608201835292935060009290916020830190803683370190505090508281600081518110611a5c57611a5c6130f1565b602002602001019063ffffffff16908163ffffffff16815250508181600181518110611a8a57611a8a6130f1565b63ffffffff909216602092830291909101909101526004805460405163883bdbfd60e01b81526000926001600160a01b039092169163883bdbfd91611ad191869101613527565b600060405180830381865afa158015611aee573d6000803e3d6000fd5b505050506040513d6000823e601f3d908101601f19168201604052611b169190810190613621565b509050600081600081518110611b2e57611b2e6130f1565b602002602001015160060b82600181518110611b4c57611b4c6130f1565b602002602001015160060b611b6191906136ed565b90506000811215611baa5760405162461bcd60e51b81526020600482015260136024820152724e65676174697665207469636b2064656c746160681b60448201526064016106df565b806000611bc063ffffffff808816908916613130565b90506000611bce82846132d2565b90506000611bdb82612977565b90506000611bee8264e8d4a510006133ec565b6001600160a01b03169050611c07600160601b826132d2565b9050611c14600282613502565b9050611c2381620f42406132e6565b9050611c438173af298d050e4395d69670b12b7f410000000000006132d2565b9c9b505050505050505050505050565b600080611c5f83610b5c565b60008181526009602052604090205490915015611cb55760405162461bcd60e51b81526020600482015260146024820152734672616d6520616c72656164792065786973747360601b60448201526064016106df565b4260005482611cc4919061311d565b1015611d125760405162461bcd60e51b815260206004820152601d60248201527f4672616d652068617320746f20626520696e207468652066757475726500000060448201526064016106df565b60008181526009602052604090819020828155600a8054600181019091557fc65a7bb8d6351c1cf70c95a316cc6a92839c986682d98bc35f958f4883f9d2a80183905590517f861dcb88c2eea524dd3c4d2026fc29c39249f4d090843bcc78037879d296c45291611d829161315c565b60405180910390a192915050565b6000611d9c8483611802565b905060008111611dbe5760405162461bcd60e51b81526004016106df9061370d565b600754604051636eb1769f60e11b815233600482015230602482015282916001600160a01b03169063dd62ed3e90604401602060405180830381865afa158015611e0c573d6000803e3d6000fd5b505050506040513d601f19601f82011682018060405250810190611e30919061376a565b1015611e4e5760405162461bcd60e51b81526004016106df90613783565b7f161bcca7119915b50764b4abe86529797775a5f17195100000000000000000008310611eaf5760405162461bcd60e51b815260206004820152600f60248201526e4c6f74206b657920746f6f2062696760881b60448201526064016106df565b6000848152600b6020908152604080832086845290915290206001015415611f0e5760405162461bcd60e51b81526020600482015260126024820152714c6f7420616c72656164792065786973747360701b60448201526064016106df565b6040805160c081018252438152426020808301918252338385019081526060840187815260808501878152600060a087018181528c8252600b86528882208c835286529781208c815560018082018d90556002808301805480840182558186529885208b516006909a0201988955985191880191909155945194860180546001600160a01b0319166001600160a01b039096169590951790945591516003850155516004840155945160059092019190915592869052805491929182918291611fd991908190612d62565b509050506000611fe98787610fe2565b600c805460018181019092557fdf6966c971051c3d54ec59162606531493a51404a002842f56009d7e5cf4a8c7018290556000898152600960209081526040808320878501546002909101805495860181558452919092209092019190915560075490516323b872dd60e01b81529192506001600160a01b0316906323b872dd9061207c903390309089906004016137ba565b6020604051808303816000875af115801561209b573d6000803e3d6000fd5b505050506040513d601f19601f820116820180604052508101906120bf9190613312565b5050505050505050565b6000838152600b60209081526040808320858452909152812060020180546121209186916120f990600190613130565b81548110612109576121096130f1565b906000526020600020906006020160030154611802565b9050600061212e8584611802565b9050808211156122cc5760006121448284613130565b6007546000888152600b602090815260408083208a8452909152902060020180549293506001600160a01b039091169163a9059cbb919061218790600190613130565b81548110612197576121976130f1565b600091825260209091206006909102016002015460405160e083901b6001600160e01b03191681526001600160a01b039091166004820152602481018490526044016020604051808303816000875af11580156121f8573d6000803e3d6000fd5b505050506040513d601f19601f8201168201806040525081019061221c9190613312565b506000868152600b602090815260408083208884528252808320815160c0810183524381524281850190815233938201938452606082018a81526080830187815260a084019889526002948501805460018082018355918a529790982093516006909702909301958655905195850195909555915190830180546001600160a01b0319166001600160a01b039092169190911790559151600382015590516004820155905160059091015561248f565b60006122d88383613130565b600754604051636eb1769f60e11b815233600482015230602482015291925082916001600160a01b039091169063dd62ed3e90604401602060405180830381865afa15801561232b573d6000803e3d6000fd5b505050506040513d601f19601f8201168201806040525081019061234f919061376a565b101561236d5760405162461bcd60e51b81526004016106df90613783565b6007546040516323b872dd60e01b81526001600160a01b03909116906323b872dd906123a1903390309086906004016137ba565b6020604051808303816000875af11580156123c0573d6000803e3d6000fd5b505050506040513d601f19601f820116820180604052508101906123e49190613312565b506000868152600b602090815260408083208884528252808320815160c0810183524381524281850190815233938201938452606082018a81526080830197885260a083018781526002948501805460018082018355918a529790982093516006909702909301958655905195850195909555915190830180546001600160a01b0319166001600160a01b039092169190911790559151600382015591516004830155516005909101555b5050505050565b6000838152600b60209081526040808320858452909152812060020180546124c090600190613130565b815481106124d0576124d06130f1565b600091825260208220600260069092020101546001600160a01b031691506124f88584611802565b90506000811161251a5760405162461bcd60e51b81526004016106df9061370d565b6000858152600b602090815260408083208784529091528120600201805461254490600190613130565b81548110612554576125546130f1565b90600052602060002090600602016003015490508082612574919061311d565b600754604051636eb1769f60e11b81523360048201523060248201526001600160a01b039091169063dd62ed3e90604401602060405180830381865afa1580156125c2573d6000803e3d6000fd5b505050506040513d601f19601f820116820180604052508101906125e6919061376a565b10156126045760405162461bcd60e51b81526004016106df90613783565b6007546040516323b872dd60e01b81526001600160a01b03909116906323b872dd90612638903390309087906004016137ba565b6020604051808303816000875af1158015612657573d6000803e3d6000fd5b505050506040513d601f19601f8201168201806040525081019061267b9190613312565b506007546040516323b872dd60e01b81526001600160a01b03909116906323b872dd906126b0903390879086906004016137ba565b6020604051808303816000875af11580156126cf573d6000803e3d6000fd5b505050506040513d601f19601f820116820180604052508101906126f39190613312565b506000868152600b60209081526040808320888452909152812060020180546127249189916120f990600190613130565b60075460405163a9059cbb60e01b81526001600160a01b0387811660048301526024820184905292935091169063a9059cbb906044016020604051808303816000875af1158015612779573d6000803e3d6000fd5b505050506040513d601f19601f8201168201806040525081019061279d9190613312565b50600b600088815260200190815260200160002060008781526020019081526020016000206002016040518060c00160405280438152602001428152602001866001600160a01b0316815260200184815260200160008152602001838152509080600181540180825580915050600190039060005260206000209060060201600090919091909150600082015181600001556020820151816001015560408201518160020160006101000a8154816001600160a01b0302191690836001600160a01b03160217905550606082015181600301556080820151816004015560a082015181600501555050600b600088815260200190815260200160002060008781526020019081526020016000206002016040518060c00160405280438152602001428152602001336001600160a01b0316815260200187815260200185815260200160008152509080600181540180825580915050600190039060005260206000209060060201600090919091909150600082015181600001556020820151816001015560408201518160020160006101000a8154816001600160a01b0302191690836001600160a01b03160217905550606082015181600301556080820151816004015560a08201518160050155505050505050505050565b600081620d89e88111156129b15760405162461bcd60e51b81526020600482015260016024820152601560fa1b60448201526064016106df565b6000816001166000036129c857600160801b6129da565b6ffffcb933bd6fad37aa2d162d1a5940015b70ffffffffffffffffffffffffffffffffff1690506002821615612a19576080612a14826ffff97272373d413259a46990580e213a6132e6565b901c90505b6004821615612a43576080612a3e826ffff2e50f5f656932ef12357cf3c7fdcc6132e6565b901c90505b6008821615612a6d576080612a68826fffe5caca7e10e4e61c3624eaa0941cd06132e6565b901c90505b6010821615612a97576080612a92826fffcb9843d60f6159c9db58835c9266446132e6565b901c90505b6020821615612ac1576080612abc826fff973b41fa98c081472e6896dfb254c06132e6565b901c90505b6040821615612aeb576080612ae6826fff2ea16466c96a3843ec78b326b528616132e6565b901c90505b6080821615612b15576080612b10826ffe5dee046a99a2a811c461f1969c30536132e6565b901c90505b610100821615612b40576080612b3b826ffcbe86c7900a88aedcffc83b479aa3a46132e6565b901c90505b610200821615612b6b576080612b66826ff987a7253ac413176f2b074cf7815e546132e6565b901c90505b610400821615612b96576080612b91826ff3392b0822b70005940c7a398e4b70f36132e6565b901c90505b610800821615612bc1576080612bbc826fe7159475a2c29b7443b29c7fa6e889d96132e6565b901c90505b611000821615612bec576080612be7826fd097f3bdfd2022b8845ad8f792aa58256132e6565b901c90505b612000821615612c17576080612c12826fa9f746462d870fdf8a65dc1f90e061e56132e6565b901c90505b614000821615612c42576080612c3d826f70d869a156d2a1b890bb3df62baf32f76132e6565b901c90505b618000821615612c6d576080612c68826f31be135f97d08fd981231505542fcfa66132e6565b901c90505b62010000821615612c99576080612c94826f09aa508b5b7a84e1c677de54f3e99bc96132e6565b901c90505b62020000821615612cc4576080612cbf826e5d6af8dedb81196699c329225ee6046132e6565b901c90505b62040000821615612cee576080612ce9826d2216e584f5fa1ea926041bedfe986132e6565b901c90505b62080000821615612d16576080612d11826b048a170391f7dc42444e8fa26132e6565b901c90505b8315612d2b57612d28816000196132d2565b90505b612d3a64010000000082613210565b15612d46576001612d49565b60005b612d5a9060ff16602083901c61311d565b949350505050565b828054828255906000526020600020906006028101928215612df65760005260206000209160060282015b82811115612df657825482556001808401549083015560028084015490830180546001600160a01b0319166001600160a01b0390921691909117905560038084015490830155600480840154908301556005808401549083015560069283019290910190612d8d565b50612e02929150612e06565b5090565b5b80821115612e02576000808255600182018190556002820180546001600160a01b031916905560038201819055600482018190556005820155600601612e07565b600060208284031215612e5a57600080fd5b5035919050565b6020808252825182820181905260009190848201906040850190845b81811015612e9957835183529284019291840191600101612e7d565b50909695505050505050565b60008060408385031215612eb857600080fd5b50508035926020909101359150565b634e487b7160e01b600052602160045260246000fd5b6020810160048310612ef157612ef1612ec7565b91905290565b600080600060608486031215612f0c57600080fd5b505081359360208301359350604090920135919050565b80518252602080820151908301526040808201516001600160a01b031690830152606080820151908301526080808201519083015260a0908101519082015260c00190565b6000602080835260808301845182850152818501516040850152604085015160608086015281815180845260a0870191508483019350600092505b80831015612fc857612fb6828551612f23565b91508484019350600183019250612fa3565b509695505050505050565b600060208083526101008301845182850152818501516040850152604085015160e06060860152818151808452610120870191508483019350600092505b808310156130315783518252928401926001929092019190840190613011565b5060608701516001600160a01b03811660808801529350608087015160a087015260a087015160c087015260c087015160e08701528094505050505092915050565b6020810160058310612ef157612ef1612ec7565b6020808252825182820181905260009190848201906040850190845b81811015612e99576130b6838551612f23565b9385019392506001016130a3565b602080825260139082015272119c985b5948191bd95cdb89dd08195e1a5cdd606a1b604082015260600190565b634e487b7160e01b600052603260045260246000fd5b634e487b7160e01b600052601160045260246000fd5b80820180821115610b5657610b56613107565b81810381811115610b5657610b56613107565b60006001820161315557613155613107565b5060010190565b6020808252825482820152600180840154604084015260e06060840152600284018054610100850181905260009182528382209193929084906101208701905b808310156131b9578454825293830193918301919085019061319c565b5060038801546001600160a01b03166080880152600488015460a0880152600588015460c088015260069097015460e0909601959095525093949350505050565b634e487b7160e01b600052601260045260246000fd5b60008261321f5761321f6131fa565b500690565b6000602080835260808084018554838601526001808701546040818189015260029150818901606080818b015285825480885260a09750878c0191508360005289600020935060005b818110156132c05784548352878501548b840152868501546001600160a01b03168684015260038501548484015260048501548a84015260058501548984015260069094019360c090920191870161326d565b50909c9b505050505050505050505050565b6000826132e1576132e16131fa565b500490565b8082028115828204841417610b5657610b56613107565b8051801515811461330d57600080fd5b919050565b60006020828403121561332457600080fd5b610fff826132fd565b80516001600160a01b038116811461330d57600080fd5b805161ffff8116811461330d57600080fd5b600080600080600080600060e0888a03121561337157600080fd5b61337a8861332d565b965060208801518060020b811461339057600080fd5b955061339e60408901613344565b94506133ac60608901613344565b93506133ba60808901613344565b925060a088015160ff811681146133d057600080fd5b91506133de60c089016132fd565b905092959891949750929550565b6001600160a01b0382811682821681810283169291811582850482141761341557613415613107565b50505092915050565b600181815b8085111561345957816000190482111561343f5761343f613107565b8085161561344c57918102915b93841c9390800290613423565b509250929050565b60008261347057506001610b56565b8161347d57506000610b56565b8160018114613493576002811461349d576134b9565b6001915050610b56565b60ff8411156134ae576134ae613107565b50506001821b610b56565b5060208310610133831016604e8410600b84101617156134dc575081810a610b56565b6134e6838361341e565b80600019048211156134fa576134fa613107565b029392505050565b6000610fff60ff841683613461565b634e487b7160e01b600052604160045260246000fd5b6020808252825182820181905260009190848201906040850190845b81811015612e9957835163ffffffff1683529284019291840191600101613543565b604051601f8201601f1916810167ffffffffffffffff8111828210171561358e5761358e613511565b604052919050565b600067ffffffffffffffff8211156135b0576135b0613511565b5060051b60200190565b600082601f8301126135cb57600080fd5b815160206135e06135db83613596565b613565565b82815260059290921b840181019181810190868411156135ff57600080fd5b8286015b84811015612fc8576136148161332d565b8352918301918301613603565b6000806040838503121561363457600080fd5b825167ffffffffffffffff8082111561364c57600080fd5b818501915085601f83011261366057600080fd5b815160206136706135db83613596565b82815260059290921b8401810191818101908984111561368f57600080fd5b948201945b838610156136bd5785518060060b81146136ae5760008081fd5b82529482019490820190613694565b918801519196509093505050808211156136d657600080fd5b506136e3858286016135ba565b9150509250929050565b818103600083128015838313168383128216171561095e5761095e613107565b6020808252603c908201527f5461782068617320746f2062652067726561746572207468616e20302e20496e60408201527f63726561736520746865206163717569736974696f6e20707269636500000000606082015260800190565b60006020828403121561377c57600080fd5b5051919050565b6020808252601e908201527f416c6c6f77616e636520746f207370656e642073657420746f6f206c6f770000604082015260600190565b6001600160a01b03938416815291909216602082015260408101919091526060019056fea264697066735822122086234e0dd946190d911b6dd4c56f58ea7943bdc1f8a182522299bc268dbcdad964736f6c63430008140033",
  "linkReferences": {},
  "deployedLinkReferences": {}
}