{
  "_format": "hh-sol-artifact-1",
  "contractName": "Market",
  "sourceName": "contracts/Market.sol",
  "abi": [
    {
      "inputs": [
        {
          "internalType": "contract MarketFactory",
          "name": "_factory",
          "type": "address"
        },
        {
          "internalType": "contract IERC20",
          "name": "_token",
          "type": "address"
        },
        {
          "internalType": "contract IUniswapV2Pair",
          "name": "_uniswapPair",
          "type": "address"
        },
        {
          "internalType": "uint256",
          "name": "_period",
          "type": "uint256"
        },
        {
          "internalType": "uint256",
          "name": "_initTimestamp",
          "type": "uint256"
        },
        {
          "internalType": "uint256",
          "name": "_taxMarket",
          "type": "uint256"
        },
        {
          "internalType": "uint256",
          "name": "_feeMarket",
          "type": "uint256"
        },
        {
          "internalType": "uint256",
          "name": "_dPrice",
          "type": "uint256"
        },
        {
          "internalType": "uint256",
          "name": "_tReporting",
          "type": "uint256"
        },
        {
          "internalType": "uint256",
          "name": "_minTax",
          "type": "uint256"
        },
        {
          "internalType": "bool",
          "name": "_avgPriceSwitch",
          "type": "bool"
        }
      ],
      "stateMutability": "nonpayable",
      "type": "constructor"
    },
    {
      "anonymous": false,
      "inputs": [
        {
          "indexed": false,
          "internalType": "uint256",
          "name": "frameKey",
          "type": "uint256"
        },
        {
          "indexed": false,
          "internalType": "uint256",
          "name": "oracleTimestampStart",
          "type": "uint256"
        },
        {
          "indexed": false,
          "internalType": "uint256",
          "name": "oracleTimestampEnd",
          "type": "uint256"
        },
        {
          "indexed": false,
          "internalType": "uint256",
          "name": "oraclePrice0CumulativeStart",
          "type": "uint256"
        },
        {
          "indexed": false,
          "internalType": "uint256",
          "name": "oraclePrice0CumulativeEnd",
          "type": "uint256"
        },
        {
          "indexed": false,
          "internalType": "uint256",
          "name": "oraclePrice1CumulativeStart",
          "type": "uint256"
        },
        {
          "indexed": false,
          "internalType": "uint256",
          "name": "oraclePrice1CumulativeEnd",
          "type": "uint256"
        },
        {
          "indexed": false,
          "internalType": "uint256",
          "name": "rewardFund",
          "type": "uint256"
        }
      ],
      "name": "FrameUpdate",
      "type": "event"
    },
    {
      "anonymous": false,
      "inputs": [
        {
          "indexed": false,
          "internalType": "uint256",
          "name": "frameKey",
          "type": "uint256"
        },
        {
          "components": [
            {
              "internalType": "uint256",
              "name": "frameKey",
              "type": "uint256"
            },
            {
              "internalType": "uint256",
              "name": "lotKey",
              "type": "uint256"
            },
            {
              "internalType": "address",
              "name": "lotOwner",
              "type": "address"
            },
            {
              "internalType": "uint256",
              "name": "acquisitionPrice",
              "type": "uint256"
            },
            {
              "internalType": "enum MLib.SLot",
              "name": "state",
              "type": "uint8"
            }
          ],
          "indexed": false,
          "internalType": "struct MLib.Lot",
          "name": "lotStruct",
          "type": "tuple"
        }
      ],
      "name": "LotUpdate",
      "type": "event"
    },
    {
      "inputs": [
        {
          "internalType": "uint256",
          "name": "frameKey",
          "type": "uint256"
        },
        {
          "internalType": "uint256",
          "name": "avgPrice",
          "type": "uint256"
        }
      ],
      "name": "UpdateAvgPrice",
      "outputs": [],
      "stateMutability": "nonpayable",
      "type": "function"
    },
    {
      "inputs": [],
      "name": "accountingToken",
      "outputs": [
        {
          "internalType": "contract IERC20",
          "name": "",
          "type": "address"
        }
      ],
      "stateMutability": "view",
      "type": "function"
    },
    {
      "inputs": [],
      "name": "avgPriceSwitch",
      "outputs": [
        {
          "internalType": "bool",
          "name": "",
          "type": "bool"
        }
      ],
      "stateMutability": "view",
      "type": "function"
    },
    {
      "inputs": [
        {
          "internalType": "uint256",
          "name": "timestamp",
          "type": "uint256"
        },
        {
          "internalType": "uint256",
          "name": "pairPrice",
          "type": "uint256"
        },
        {
          "internalType": "uint256",
          "name": "acqPrice",
          "type": "uint256"
        }
      ],
      "name": "buyLot",
      "outputs": [],
      "stateMutability": "nonpayable",
      "type": "function"
    },
    {
      "inputs": [
        {
          "internalType": "uint256",
          "name": "frameKey",
          "type": "uint256"
        }
      ],
      "name": "claimReward",
      "outputs": [],
      "stateMutability": "nonpayable",
      "type": "function"
    },
    {
      "inputs": [
        {
          "internalType": "uint256",
          "name": "timestamp",
          "type": "uint256"
        }
      ],
      "name": "clcFrameTimestamp",
      "outputs": [
        {
          "internalType": "uint256",
          "name": "",
          "type": "uint256"
        }
      ],
      "stateMutability": "view",
      "type": "function"
    },
    {
      "inputs": [
        {
          "internalType": "uint256",
          "name": "value",
          "type": "uint256"
        }
      ],
      "name": "clcLotKey",
      "outputs": [
        {
          "internalType": "uint256",
          "name": "",
          "type": "uint256"
        }
      ],
      "stateMutability": "view",
      "type": "function"
    },
    {
      "inputs": [
        {
          "internalType": "uint256",
          "name": "frameKey",
          "type": "uint256"
        },
        {
          "internalType": "uint256",
          "name": "acquisitionPrice",
          "type": "uint256"
        }
      ],
      "name": "clcTax",
      "outputs": [
        {
          "internalType": "uint256",
          "name": "tax",
          "type": "uint256"
        }
      ],
      "stateMutability": "view",
      "type": "function"
    },
    {
      "inputs": [],
      "name": "dPrice",
      "outputs": [
        {
          "internalType": "uint256",
          "name": "",
          "type": "uint256"
        }
      ],
      "stateMutability": "view",
      "type": "function"
    },
    {
      "inputs": [
        {
          "internalType": "uint256",
          "name": "amount",
          "type": "uint256"
        }
      ],
      "name": "emptyFunds",
      "outputs": [],
      "stateMutability": "nonpayable",
      "type": "function"
    },
    {
      "inputs": [],
      "name": "factory",
      "outputs": [
        {
          "internalType": "contract MarketFactory",
          "name": "",
          "type": "address"
        }
      ],
      "stateMutability": "view",
      "type": "function"
    },
    {
      "inputs": [],
      "name": "feeMarket",
      "outputs": [
        {
          "internalType": "uint256",
          "name": "",
          "type": "uint256"
        }
      ],
      "stateMutability": "view",
      "type": "function"
    },
    {
      "inputs": [],
      "name": "feeProtocol",
      "outputs": [
        {
          "internalType": "uint256",
          "name": "",
          "type": "uint256"
        }
      ],
      "stateMutability": "view",
      "type": "function"
    },
    {
      "inputs": [
        {
          "internalType": "uint256",
          "name": "",
          "type": "uint256"
        }
      ],
      "name": "frames",
      "outputs": [
        {
          "internalType": "uint256",
          "name": "frameKey",
          "type": "uint256"
        },
        {
          "internalType": "uint256",
          "name": "oracleTimestampStart",
          "type": "uint256"
        },
        {
          "internalType": "uint256",
          "name": "oracleTimestampEnd",
          "type": "uint256"
        },
        {
          "internalType": "uint256",
          "name": "rewardFund",
          "type": "uint256"
        },
        {
          "internalType": "uint256",
          "name": "priceAverage",
          "type": "uint256"
        },
        {
          "internalType": "uint256",
          "name": "oraclePrice0CumulativeStart",
          "type": "uint256"
        },
        {
          "internalType": "uint256",
          "name": "oraclePrice0CumulativeEnd",
          "type": "uint256"
        },
        {
          "internalType": "uint256",
          "name": "oraclePrice1CumulativeStart",
          "type": "uint256"
        },
        {
          "internalType": "uint256",
          "name": "oraclePrice1CumulativeEnd",
          "type": "uint256"
        },
        {
          "internalType": "enum MLib.SFrame",
          "name": "state",
          "type": "uint8"
        }
      ],
      "stateMutability": "view",
      "type": "function"
    },
    {
      "inputs": [
        {
          "internalType": "uint256",
          "name": "",
          "type": "uint256"
        }
      ],
      "name": "framesKeys",
      "outputs": [
        {
          "internalType": "uint256",
          "name": "",
          "type": "uint256"
        }
      ],
      "stateMutability": "view",
      "type": "function"
    },
    {
      "inputs": [
        {
          "internalType": "uint256",
          "name": "frameKey",
          "type": "uint256"
        }
      ],
      "name": "getFrame",
      "outputs": [
        {
          "components": [
            {
              "internalType": "uint256",
              "name": "frameKey",
              "type": "uint256"
            },
            {
              "internalType": "uint256",
              "name": "oracleTimestampStart",
              "type": "uint256"
            },
            {
              "internalType": "uint256",
              "name": "oracleTimestampEnd",
              "type": "uint256"
            },
            {
              "internalType": "uint256",
              "name": "rewardFund",
              "type": "uint256"
            },
            {
              "internalType": "uint256",
              "name": "priceAverage",
              "type": "uint256"
            },
            {
              "internalType": "uint256",
              "name": "oraclePrice0CumulativeStart",
              "type": "uint256"
            },
            {
              "internalType": "uint256",
              "name": "oraclePrice0CumulativeEnd",
              "type": "uint256"
            },
            {
              "internalType": "uint256",
              "name": "oraclePrice1CumulativeStart",
              "type": "uint256"
            },
            {
              "internalType": "uint256",
              "name": "oraclePrice1CumulativeEnd",
              "type": "uint256"
            },
            {
              "internalType": "enum MLib.SFrame",
              "name": "state",
              "type": "uint8"
            },
            {
              "internalType": "uint256[]",
              "name": "lotKeys",
              "type": "uint256[]"
            }
          ],
          "internalType": "struct MLib.Frame",
          "name": "",
          "type": "tuple"
        }
      ],
      "stateMutability": "view",
      "type": "function"
    },
    {
      "inputs": [
        {
          "internalType": "uint256",
          "name": "frameKey",
          "type": "uint256"
        }
      ],
      "name": "getFrameState",
      "outputs": [
        {
          "internalType": "enum MLib.SFrame",
          "name": "",
          "type": "uint8"
        }
      ],
      "stateMutability": "view",
      "type": "function"
    },
    {
      "inputs": [
        {
          "internalType": "uint256",
          "name": "frameKey",
          "type": "uint256"
        },
        {
          "internalType": "uint256",
          "name": "lotKey",
          "type": "uint256"
        }
      ],
      "name": "getLot",
      "outputs": [
        {
          "components": [
            {
              "internalType": "uint256",
              "name": "frameKey",
              "type": "uint256"
            },
            {
              "internalType": "uint256",
              "name": "lotKey",
              "type": "uint256"
            },
            {
              "internalType": "address",
              "name": "lotOwner",
              "type": "address"
            },
            {
              "internalType": "uint256",
              "name": "acquisitionPrice",
              "type": "uint256"
            },
            {
              "internalType": "enum MLib.SLot",
              "name": "state",
              "type": "uint8"
            }
          ],
          "internalType": "struct MLib.Lot",
          "name": "",
          "type": "tuple"
        }
      ],
      "stateMutability": "view",
      "type": "function"
    },
    {
      "inputs": [
        {
          "internalType": "uint256",
          "name": "frameKey",
          "type": "uint256"
        }
      ],
      "name": "getLotKeys",
      "outputs": [
        {
          "internalType": "uint256[]",
          "name": "",
          "type": "uint256[]"
        }
      ],
      "stateMutability": "view",
      "type": "function"
    },
    {
      "inputs": [],
      "name": "getNumberOfFrameKeys",
      "outputs": [
        {
          "internalType": "uint256",
          "name": "",
          "type": "uint256"
        }
      ],
      "stateMutability": "view",
      "type": "function"
    },
    {
      "inputs": [
        {
          "internalType": "uint256",
          "name": "frameKey",
          "type": "uint256"
        }
      ],
      "name": "getRewardAmount",
      "outputs": [
        {
          "internalType": "uint256",
          "name": "",
          "type": "uint256"
        }
      ],
      "stateMutability": "view",
      "type": "function"
    },
    {
      "inputs": [
        {
          "internalType": "address",
          "name": "user",
          "type": "address"
        }
      ],
      "name": "getUserFrames",
      "outputs": [
        {
          "internalType": "uint256[]",
          "name": "",
          "type": "uint256[]"
        }
      ],
      "stateMutability": "view",
      "type": "function"
    },
    {
      "inputs": [
        {
          "internalType": "uint256",
          "name": "frameKey",
          "type": "uint256"
        }
      ],
      "name": "hasValidPrices",
      "outputs": [],
      "stateMutability": "view",
      "type": "function"
    },
    {
      "inputs": [],
      "name": "initTimestamp",
      "outputs": [
        {
          "internalType": "uint256",
          "name": "",
          "type": "uint256"
        }
      ],
      "stateMutability": "view",
      "type": "function"
    },
    {
      "inputs": [
        {
          "internalType": "uint256",
          "name": "",
          "type": "uint256"
        },
        {
          "internalType": "uint256",
          "name": "",
          "type": "uint256"
        }
      ],
      "name": "lots",
      "outputs": [
        {
          "internalType": "uint256",
          "name": "frameKey",
          "type": "uint256"
        },
        {
          "internalType": "uint256",
          "name": "lotKey",
          "type": "uint256"
        },
        {
          "internalType": "address",
          "name": "lotOwner",
          "type": "address"
        },
        {
          "internalType": "uint256",
          "name": "acquisitionPrice",
          "type": "uint256"
        },
        {
          "internalType": "enum MLib.SLot",
          "name": "state",
          "type": "uint8"
        }
      ],
      "stateMutability": "view",
      "type": "function"
    },
    {
      "inputs": [],
      "name": "minTax",
      "outputs": [
        {
          "internalType": "uint256",
          "name": "",
          "type": "uint256"
        }
      ],
      "stateMutability": "view",
      "type": "function"
    },
    {
      "inputs": [],
      "name": "ownerMarket",
      "outputs": [
        {
          "internalType": "address",
          "name": "",
          "type": "address"
        }
      ],
      "stateMutability": "view",
      "type": "function"
    },
    {
      "inputs": [],
      "name": "period",
      "outputs": [
        {
          "internalType": "uint256",
          "name": "",
          "type": "uint256"
        }
      ],
      "stateMutability": "view",
      "type": "function"
    },
    {
      "inputs": [],
      "name": "scalar",
      "outputs": [
        {
          "internalType": "uint256",
          "name": "",
          "type": "uint256"
        }
      ],
      "stateMutability": "view",
      "type": "function"
    },
    {
      "inputs": [],
      "name": "tReporting",
      "outputs": [
        {
          "internalType": "uint256",
          "name": "",
          "type": "uint256"
        }
      ],
      "stateMutability": "view",
      "type": "function"
    },
    {
      "inputs": [],
      "name": "taxMarket",
      "outputs": [
        {
          "internalType": "uint256",
          "name": "",
          "type": "uint256"
        }
      ],
      "stateMutability": "view",
      "type": "function"
    },
    {
      "inputs": [],
      "name": "uniswapPair",
      "outputs": [
        {
          "internalType": "contract IUniswapV2Pair",
          "name": "",
          "type": "address"
        }
      ],
      "stateMutability": "view",
      "type": "function"
    },
    {
      "inputs": [],
      "name": "updateFramePrices",
      "outputs": [],
      "stateMutability": "nonpayable",
      "type": "function"
    },
    {
      "inputs": [
        {
          "internalType": "uint256",
          "name": "timestamp",
          "type": "uint256"
        },
        {
          "internalType": "uint256",
          "name": "pairPrice",
          "type": "uint256"
        },
        {
          "internalType": "uint256",
          "name": "acqPrice",
          "type": "uint256"
        }
      ],
      "name": "updateLotPrice",
      "outputs": [],
      "stateMutability": "nonpayable",
      "type": "function"
    },
    {
      "inputs": [
        {
          "internalType": "address",
          "name": "",
          "type": "address"
        },
        {
          "internalType": "uint256",
          "name": "",
          "type": "uint256"
        }
      ],
      "name": "userFrames",
      "outputs": [
        {
          "internalType": "uint256",
          "name": "",
          "type": "uint256"
        }
      ],
      "stateMutability": "view",
      "type": "function"
    }
  ],
  "bytecode": "0x608060405260646002556000600c60006101000a81548160ff02191690831515021790555069d3c21bcecceda1000000600d553480156200003f57600080fd5b5060405162004de138038062004de1833981810160405281019062000065919062000238565b89600960006101000a81548173ffffffffffffffffffffffffffffffffffffffff021916908373ffffffffffffffffffffffffffffffffffffffff16021790555033600a60006101000a81548173ffffffffffffffffffffffffffffffffffffffff021916908373ffffffffffffffffffffffffffffffffffffffff1602179055508760008190555086600181905550856007819055508460068190555088600460006101000a81548173ffffffffffffffffffffffffffffffffffffffff021916908373ffffffffffffffffffffffffffffffffffffffff160217905550836005819055508a600860006101000a81548173ffffffffffffffffffffffffffffffffffffffff021916908373ffffffffffffffffffffffffffffffffffffffff1602179055508260038190555081600b8190555080600c60006101000a81548160ff021916908315150217905550505050505050505050505062000447565b600081519050620001d681620003c5565b92915050565b600081519050620001ed81620003df565b92915050565b6000815190506200020481620003f9565b92915050565b6000815190506200021b8162000413565b92915050565b60008151905062000232816200042d565b92915050565b60008060008060008060008060008060006101608c8e0312156200025b57600080fd5b60006200026b8e828f016200020a565b9b505060206200027e8e828f01620001dc565b9a50506040620002918e828f01620001f3565b9950506060620002a48e828f0162000221565b9850506080620002b78e828f0162000221565b97505060a0620002ca8e828f0162000221565b96505060c0620002dd8e828f0162000221565b95505060e0620002f08e828f0162000221565b945050610100620003048e828f0162000221565b935050610120620003188e828f0162000221565b9250506101406200032c8e828f01620001c5565b9150509295989b509295989b9093969950565b60006200034c826200039b565b9050919050565b60008115159050919050565b60006200036c826200033f565b9050919050565b600062000380826200033f565b9050919050565b600062000394826200033f565b9050919050565b600073ffffffffffffffffffffffffffffffffffffffff82169050919050565b6000819050919050565b620003d08162000353565b8114620003dc57600080fd5b50565b620003ea816200035f565b8114620003f657600080fd5b50565b620004048162000373565b81146200041057600080fd5b50565b6200041e8162000387565b81146200042a57600080fd5b50565b6200043881620003bb565b81146200044457600080fd5b50565b61498a80620004576000396000f3fe608060405234801561001057600080fd5b50600436106102115760003560e01c80639495833c11610125578063c816841b116100ad578063e107fb4f1161007c578063e107fb4f1461064d578063ef78d4fd1461067d578063f109db841461069b578063f45e65d8146106cb578063ff5c86b0146106e957610211565b8063c816841b146105c5578063c84993af146105e3578063d529a39614610613578063da68cf8b1461062f57610211565b8063ab02f2a9116100f4578063ab02f2a91461050b578063ae169a501461053b578063b93dafa914610557578063bb15d2dd1461058b578063c45a0155146105a757610211565b80639495833c146104685780639592de181461049857806396b2c6f3146104c8578063a10340bc146104d257610211565b806360f65c60116101a85780637358c57a116101775780637358c57a146103c0578063773d51eb146103de5780637e9966391461040e57806389da88a31461042c5780638f9eca821461044a57610211565b806360f65c6014610328578063652c8ded146103585780636f1aefc3146103745780636f7cb60b146103a457610211565b806345084775116101e4578063450847751461029e578063499a0fc4146102bc578063527eb4bc146102da5780635b3ad63e146102f857610211565b8063050e8840146102165780633c80d8ea146102465780633d09a82a14610262578063410f071014610280575b600080fd5b610230600480360381019061022b919061376c565b610707565b60405161023d9190614293565b60405180910390f35b610260600480360381019061025b91906137fa565b61072b565b005b61026a610fa7565b6040516102779190614293565b60405180910390f35b610288610fad565b6040516102959190614293565b60405180910390f35b6102a6610fb3565b6040516102b39190613f49565b60405180910390f35b6102c4610fd9565b6040516102d19190614293565b60405180910390f35b6102e2610fdf565b6040516102ef9190614293565b60405180910390f35b610312600480360381019061030d919061376c565b610fe5565b60405161031f9190614293565b60405180910390f35b610342600480360381019061033d91906136b8565b611028565b60405161034f9190614293565b60405180910390f35b610372600480360381019061036d919061376c565b611059565b005b61038e600480360381019061038991906137be565b611148565b60405161039b9190614278565b60405180910390f35b6103be60048036038101906103b9919061376c565b611282565b005b6103c86114e1565b6040516103d59190614293565b60405180910390f35b6103f860048036038101906103f3919061376c565b6114e7565b6040516104059190614256565b60405180910390f35b61041661164e565b6040516104239190614293565b60405180910390f35b610434611654565b6040516104419190614293565b60405180910390f35b610452611661565b60405161045f919061400f565b60405180910390f35b610482600480360381019061047d9190613666565b611674565b60405161048f9190613fed565b60405180910390f35b6104b260048036038101906104ad919061376c565b61170b565b6040516104bf9190614293565b60405180910390f35b6104d0611741565b005b6104ec60048036038101906104e7919061376c565b611a35565b6040516105029a999897969594939291906143a8565b60405180910390f35b6105256004803603810190610520919061376c565b611a96565b6040516105329190613fed565b60405180910390f35b6105556004803603810190610550919061376c565b611b04565b005b610571600480360381019061056c91906137be565b611b19565b6040516105829594939291906142d7565b60405180910390f35b6105a560048036038101906105a091906137fa565b611b89565b005b6105af6120a1565b6040516105bc9190614060565b60405180910390f35b6105cd6120c7565b6040516105da9190614045565b60405180910390f35b6105fd60048036038101906105f8919061376c565b6120ed565b60405161060a9190614293565b60405180910390f35b61062d600480360381019061062891906137be565b61210d565b005b610637612191565b604051610644919061402a565b60405180910390f35b610667600480360381019061066291906137be565b6121b7565b6040516106749190614293565b60405180910390f35b61068561225a565b6040516106929190614293565b60405180910390f35b6106b560048036038101906106b0919061376c565b612260565b6040516106c2919061407b565b60405180910390f35b6106d361228d565b6040516106e09190614293565b60405180910390f35b6106f1612293565b6040516106fe9190614293565b60405180910390f35b6011818154811061071757600080fd5b906000526020600020016000915090505481565b600061073684612299565b90506107428183612449565b600061074e82856124a1565b905061075942610fe5565b82101561079b576040517f08c379a0000000000000000000000000000000000000000000000000000000008152600401610792906140d6565b60405180910390fd5b600e6000838152602001908152602001600020600082815260200190815260200160002060020160009054906101000a900473ffffffffffffffffffffffffffffffffffffffff1673ffffffffffffffffffffffffffffffffffffffff163373ffffffffffffffffffffffffffffffffffffffff161415610851576040517f08c379a000000000000000000000000000000000000000000000000000000000815260040161084890614196565b60405180910390fd5b600061085d83856121b7565b905080600e6000858152602001908152602001600020600084815260200190815260200160002060030154610892919061449f565b600960009054906101000a900473ffffffffffffffffffffffffffffffffffffffff1673ffffffffffffffffffffffffffffffffffffffff1663dd62ed3e33306040518363ffffffff1660e01b81526004016108ef929190613f64565b60206040518083038186803b15801561090757600080fd5b505afa15801561091b573d6000803e3d6000fd5b505050506040513d601f19601f8201168201806040525081019061093f9190613795565b1015610980576040517f08c379a0000000000000000000000000000000000000000000000000000000008152600401610977906141b6565b60405180910390fd5b600960009054906101000a900473ffffffffffffffffffffffffffffffffffffffff1673ffffffffffffffffffffffffffffffffffffffff166323b872dd333084600e60008981526020019081526020016000206000888152602001908152602001600020600301546109f3919061449f565b6040518463ffffffff1660e01b8152600401610a1193929190613f8d565b602060405180830381600087803b158015610a2b57600080fd5b505af1158015610a3f573d6000803e3d6000fd5b505050506040513d601f19601f82011682018060405250810190610a6391906136f4565b5080600f600085815260200190815260200160002060030154610a86919061449f565b600f60008581526020019081526020016000206003018190555060016002811115610ada577f4e487b7100000000000000000000000000000000000000000000000000000000600052602160045260246000fd5b600e6000858152602001908152602001600020600084815260200190815260200160002060040160009054906101000a900460ff166002811115610b47577f4e487b7100000000000000000000000000000000000000000000000000000000600052602160045260246000fd5b1415610ced576000610b8084600e60008781526020019081526020016000206000868152602001908152602001600020600301546121b7565b9050600960009054906101000a900473ffffffffffffffffffffffffffffffffffffffff1673ffffffffffffffffffffffffffffffffffffffff1663a9059cbb600e6000878152602001908152602001600020600086815260200190815260200160002060020160009054906101000a900473ffffffffffffffffffffffffffffffffffffffff16600e600088815260200190815260200160002060008781526020019081526020016000206003015484610c3b919061449f565b6040518363ffffffff1660e01b8152600401610c58929190613fc4565b602060405180830381600087803b158015610c7257600080fd5b505af1158015610c86573d6000803e3d6000fd5b505050506040513d601f19601f82011682018060405250810190610caa91906136f4565b5080600f600086815260200190815260200160002060030154610ccd91906145b1565b600f60008681526020019081526020016000206003018190555050610d64565b6001600e6000858152602001908152602001600020600084815260200190815260200160002060040160006101000a81548160ff02191690836002811115610d5e577f4e487b7100000000000000000000000000000000000000000000000000000000600052602160045260246000fd5b02179055505b33600e6000858152602001908152602001600020600084815260200190815260200160002060020160006101000a81548173ffffffffffffffffffffffffffffffffffffffff021916908373ffffffffffffffffffffffffffffffffffffffff16021790555083600e6000858152602001908152602001600020600084815260200190815260200160002060030181905550601060003373ffffffffffffffffffffffffffffffffffffffff1673ffffffffffffffffffffffffffffffffffffffff168152602001908152602001600020839080600181540180825580915050600190039060005260206000200160009091909190915055610e64611741565b7ff733bd7f4402cb7d331b34d5cd22f432b9bf71a833f786974545860d74976af283600f600086815260200190815260200160002060010154600f600087815260200190815260200160002060020154600f600088815260200190815260200160002060050154600f600089815260200190815260200160002060060154600f60008a815260200190815260200160002060070154600f60008b815260200190815260200160002060080154600f60008c815260200190815260200160002060030154604051610f3b98979695949392919061432a565b60405180910390a17f74c5c6f5cd4370cc0ab554a1afdb2b24b051b40c99102354ef424aed5cd6409d83600e60008681526020019081526020016000206000858152602001908152602001600020604051610f979291906142ae565b60405180910390a1505050505050565b600b5481565b60065481565b600a60009054906101000a900473ffffffffffffffffffffffffffffffffffffffff1681565b60055481565b60025481565b60006001548211610ffa576001549050611023565b6000546001548361100b91906145b1565b61101591906147ee565b8261102091906145b1565b90505b919050565b6010602052816000526040600020818154811061104457600080fd5b90600052602060002001600091509150505481565b6000600f60008381526020019081526020016000206005015411158061109657506000600f60008381526020019081526020016000206006015411155b156110d6576040517f08c379a00000000000000000000000000000000000000000000000000000000081526004016110cd90614136565b60405180910390fd5b600f600082815260200190815260200160002060060154600f6000838152602001908152602001600020600501541415611145576040517f08c379a000000000000000000000000000000000000000000000000000000000815260040161113c90614136565b60405180910390fd5b50565b611150613493565b600e600084815260200190815260200160002060008381526020019081526020016000206040518060a001604052908160008201548152602001600182015481526020016002820160009054906101000a900473ffffffffffffffffffffffffffffffffffffffff1673ffffffffffffffffffffffffffffffffffffffff1673ffffffffffffffffffffffffffffffffffffffff168152602001600382015481526020016004820160009054906101000a900460ff16600281111561123e577f4e487b7100000000000000000000000000000000000000000000000000000000600052602160045260246000fd5b6002811115611276577f4e487b7100000000000000000000000000000000000000000000000000000000600052602160045260246000fd5b81525050905092915050565b600860009054906101000a900473ffffffffffffffffffffffffffffffffffffffff1673ffffffffffffffffffffffffffffffffffffffff16638da5cb5b6040518163ffffffff1660e01b815260040160206040518083038186803b1580156112ea57600080fd5b505afa1580156112fe573d6000803e3d6000fd5b505050506040513d601f19601f82011682018060405250810190611322919061368f565b73ffffffffffffffffffffffffffffffffffffffff163373ffffffffffffffffffffffffffffffffffffffff161461138f576040517f08c379a0000000000000000000000000000000000000000000000000000000008152600401611386906140b6565b60405180910390fd5b600960009054906101000a900473ffffffffffffffffffffffffffffffffffffffff1673ffffffffffffffffffffffffffffffffffffffff1663a9059cbb600860009054906101000a900473ffffffffffffffffffffffffffffffffffffffff1673ffffffffffffffffffffffffffffffffffffffff16638da5cb5b6040518163ffffffff1660e01b815260040160206040518083038186803b15801561143557600080fd5b505afa158015611449573d6000803e3d6000fd5b505050506040513d601f19601f8201168201806040525081019061146d919061368f565b836040518363ffffffff1660e01b815260040161148b929190613fc4565b602060405180830381600087803b1580156114a557600080fd5b505af11580156114b9573d6000803e3d6000fd5b505050506040513d601f19601f820116820180604052508101906114dd91906136f4565b5050565b60015481565b6114ef613510565b600f6000838152602001908152602001600020604051806101600160405290816000820154815260200160018201548152602001600282015481526020016003820154815260200160048201548152602001600582015481526020016006820154815260200160078201548152602001600882015481526020016009820160009054906101000a900460ff1660028111156115b3577f4e487b7100000000000000000000000000000000000000000000000000000000600052602160045260246000fd5b60028111156115eb577f4e487b7100000000000000000000000000000000000000000000000000000000600052602160045260246000fd5b8152602001600a820180548060200260200160405190810160405280929190818152602001828054801561163e57602002820191906000526020600020905b81548152602001906001019080831161162a575b5050505050815250509050919050565b60075481565b6000601180549050905090565b600c60009054906101000a900460ff1681565b6060601060008373ffffffffffffffffffffffffffffffffffffffff1673ffffffffffffffffffffffffffffffffffffffff1681526020019081526020016000208054806020026020016040519081016040528092919081815260200182805480156116ff57602002820191906000526020600020905b8154815260200190600101908083116116eb575b50505050509050919050565b600080821161171e57600554905061173c565b6005546005548361172f9190614526565b6117399190614557565b90505b919050565b600061174c42610fe5565b90506003546000548261175f919061449f565b61176991906145b1565b4210156118a25761179b600460009054906101000a900473ffffffffffffffffffffffffffffffffffffffff16612604565b8063ffffffff169050600f60008581526020019081526020016000206005016000600f60008781526020019081526020016000206007016000600f60008981526020019081526020016000206001016000869190505585919050558491905055505050600f600082815260200190815260200160002060050154600f600083815260200190815260200160002060070154600f600084815260200190815260200160002060010154600f60008581526020019081526020016000206006016000600f60008781526020019081526020016000206008016000600f60008981526020019081526020016000206002016000869190505585919050558491905055505050611953565b600354600054826118b3919061449f565b6118bd91906145b1565b4210611952576118ee600460009054906101000a900473ffffffffffffffffffffffffffffffffffffffff16612604565b8063ffffffff169050600f60008581526020019081526020016000206006016000600f60008781526020019081526020016000206008016000600f600089815260200190815260200160002060020160008691905055859190505584919050555050505b5b7ff733bd7f4402cb7d331b34d5cd22f432b9bf71a833f786974545860d74976af281600f600084815260200190815260200160002060010154600f600085815260200190815260200160002060020154600f600086815260200190815260200160002060050154600f600087815260200190815260200160002060060154600f600088815260200190815260200160002060070154600f600089815260200190815260200160002060080154600f60008a815260200190815260200160002060030154604051611a2a98979695949392919061432a565b60405180910390a150565b600f6020528060005260406000206000915090508060000154908060010154908060020154908060030154908060040154908060050154908060060154908060070154908060080154908060090160009054906101000a900460ff1690508a565b6060600f6000838152602001908152602001600020600a01805480602002602001604051908101604052809291908181526020018280548015611af857602002820191906000526020600020905b815481526020019060010190808311611ae4575b50505050509050919050565b611b0d8161285f565b611b1681612eb3565b50565b600e602052816000526040600020602052806000526040600020600091509150508060000154908060010154908060020160009054906101000a900473ffffffffffffffffffffffffffffffffffffffff16908060030154908060040160009054906101000a900460ff16905085565b6000611b9484612299565b9050611ba08183612449565b6000611bac82856124a1565b90503373ffffffffffffffffffffffffffffffffffffffff16600e6000848152602001908152602001600020600083815260200190815260200160002060020160009054906101000a900473ffffffffffffffffffffffffffffffffffffffff1673ffffffffffffffffffffffffffffffffffffffff1614611c63576040517f08c379a0000000000000000000000000000000000000000000000000000000008152600401611c5a906140f6565b60405180910390fd5b611c6c42610fe5565b821015611cae576040517f08c379a0000000000000000000000000000000000000000000000000000000008152600401611ca590614216565b60405180910390fd5b6000611cba83856121b7565b90506000611cef84600e60008781526020019081526020016000206000868152602001908152602001600020600301546121b7565b905080821115611efc578082611d0591906145b1565b600960009054906101000a900473ffffffffffffffffffffffffffffffffffffffff1673ffffffffffffffffffffffffffffffffffffffff1663dd62ed3e33306040518363ffffffff1660e01b8152600401611d62929190613f64565b60206040518083038186803b158015611d7a57600080fd5b505afa158015611d8e573d6000803e3d6000fd5b505050506040513d601f19601f82011682018060405250810190611db29190613795565b1015611df3576040517f08c379a0000000000000000000000000000000000000000000000000000000008152600401611dea906141b6565b60405180910390fd5b600960009054906101000a900473ffffffffffffffffffffffffffffffffffffffff1673ffffffffffffffffffffffffffffffffffffffff166323b872dd33308486611e3f91906145b1565b6040518463ffffffff1660e01b8152600401611e5d93929190613f8d565b602060405180830381600087803b158015611e7757600080fd5b505af1158015611e8b573d6000803e3d6000fd5b505050506040513d601f19601f82011682018060405250810190611eaf91906136f4565b508082611ebc91906145b1565b600f600086815260200190815260200160002060030154611edd919061449f565b600f600086815260200190815260200160002060030181905550612008565b8082101561200757600960009054906101000a900473ffffffffffffffffffffffffffffffffffffffff1673ffffffffffffffffffffffffffffffffffffffff1663a9059cbb338484611f4f91906145b1565b6040518363ffffffff1660e01b8152600401611f6c929190613fc4565b602060405180830381600087803b158015611f8657600080fd5b505af1158015611f9a573d6000803e3d6000fd5b505050506040513d601f19601f82011682018060405250810190611fbe91906136f4565b508181611fcb91906145b1565b600f600086815260200190815260200160002060030154611fec91906145b1565b600f6000868152602001908152602001600020600301819055505b5b84600e600086815260200190815260200160002060008581526020019081526020016000206003018190555061203c611741565b7f74c5c6f5cd4370cc0ab554a1afdb2b24b051b40c99102354ef424aed5cd6409d84600e600087815260200190815260200160002060008681526020019081526020016000206040516120909291906142ae565b60405180910390a150505050505050565b600860009054906101000a900473ffffffffffffffffffffffffffffffffffffffff1681565b600460009054906101000a900473ffffffffffffffffffffffffffffffffffffffff1681565b6000600f6000838152602001908152602001600020600301549050919050565b6001600f600084815260200190815260200160002060090160006101000a81548160ff0219169083600281111561216d577f4e487b7100000000000000000000000000000000000000000000000000000000600052602160045260246000fd5b021790555080600f6000848152602001908152602001600020600401819055505050565b600960009054906101000a900473ffffffffffffffffffffffffffffffffffffffff1681565b600080426000546121c742610fe5565b6121d1919061449f565b6121db91906145b1565b90506000805482600d546121ef9190614557565b6121f99190614526565b9050620186a06007548561220d9190614557565b6122179190614526565b9250600d5481846122289190614557565b6122329190614526565b61223b8661332c565b846122469190614557565b612250919061449f565b9250505092915050565b60005481565b6000600f600083815260200190815260200160002060090160009054906101000a900460ff169050919050565b600d5481565b60035481565b6000806122a583610fe5565b9050600060028111156122e1577f4e487b7100000000000000000000000000000000000000000000000000000000600052602160045260246000fd5b600f600083815260200190815260200160002060090160009054906101000a900460ff16600281111561233d577f4e487b7100000000000000000000000000000000000000000000000000000000600052602160045260246000fd5b1461234b5780915050612444565b61235442610fe5565b811015612396576040517f08c379a000000000000000000000000000000000000000000000000000000000815260040161238d906141f6565b60405180910390fd5b80600f6000838152602001908152602001600020600001819055506001600f600083815260200190815260200160002060090160006101000a81548160ff02191690836002811115612411577f4e487b7100000000000000000000000000000000000000000000000000000000600052602160045260246000fd5b02179055506011819080600181540180825580915050600190039060005260206000200160009091909190915055809150505b919050565b600061245583836121b7565b9050600b5481101561249c576040517f08c379a000000000000000000000000000000000000000000000000000000000815260040161249390614176565b60405180910390fd5b505050565b6000806124ad8361170b565b9050600060028111156124e9577f4e487b7100000000000000000000000000000000000000000000000000000000600052602160045260246000fd5b600e6000868152602001908152602001600020600083815260200190815260200160002060040160009054906101000a900460ff166002811115612556577f4e487b7100000000000000000000000000000000000000000000000000000000600052602160045260246000fd5b1461256457809150506125fe565b83600e600086815260200190815260200160002060008381526020019081526020016000206000018190555080600e6000868152602001908152602001600020600083815260200190815260200160002060010181905550600f6000858152602001908152602001600020600a01819080600181540180825580915050600190039060005260206000200160009091909190915055809150505b92915050565b6000806000612611613368565b90508373ffffffffffffffffffffffffffffffffffffffff16635909c0d56040518163ffffffff1660e01b815260040160206040518083038186803b15801561265957600080fd5b505afa15801561266d573d6000803e3d6000fd5b505050506040513d601f19601f820116820180604052508101906126919190613795565b92508373ffffffffffffffffffffffffffffffffffffffff16635a3d54936040518163ffffffff1660e01b815260040160206040518083038186803b1580156126d957600080fd5b505afa1580156126ed573d6000803e3d6000fd5b505050506040513d601f19601f820116820180604052508101906127119190613795565b915060008060008673ffffffffffffffffffffffffffffffffffffffff16630902f1ac6040518163ffffffff1660e01b815260040160606040518083038186803b15801561275e57600080fd5b505afa158015612772573d6000803e3d6000fd5b505050506040513d601f19601f82011682018060405250810190612796919061371d565b9250925092508363ffffffff168163ffffffff161461285557600081856127bd91906145e5565b90508063ffffffff166127d08486613380565b600001517bffffffffffffffffffffffffffffffffffffffffffffffffffffffff166127fc9190614557565b87612807919061449f565b96508063ffffffff1661281a8585613380565b600001517bffffffffffffffffffffffffffffffffffffffffffffffffffffffff166128469190614557565b86612851919061449f565b9550505b5050509193909250565b61286881611059565b4260005482612877919061449f565b11156128b8576040517f08c379a00000000000000000000000000000000000000000000000000000000081526004016128af90614096565b60405180910390fd5b6002600f600083815260200190815260200160002060090160006101000a81548160ff02191690836002811115612918577f4e487b7100000000000000000000000000000000000000000000000000000000600052602160045260246000fd5b02179055506000600860009054906101000a900473ffffffffffffffffffffffffffffffffffffffff1673ffffffffffffffffffffffffffffffffffffffff16638da5cb5b6040518163ffffffff1660e01b815260040160206040518083038186803b15801561298757600080fd5b505afa15801561299b573d6000803e3d6000fd5b505050506040513d601f19601f820116820180604052508101906129bf919061368f565b90506000600f600084815260200190815260200160002060010154600f6000858152602001908152602001600020600201546129fb91906145b1565b9050600c60009054906101000a900460ff1615612ab857612a89604051806020016040528083600f600088815260200190815260200160002060050154600f600089815260200190815260200160002060060154612a5991906145b1565b612a639190614526565b7bffffffffffffffffffffffffffffffffffffffffffffffffffffffff16815250613460565b6dffffffffffffffffffffffffffff16600f600085815260200190815260200160002060040181905550612b5a565b612b2f604051806020016040528083600f600088815260200190815260200160002060070154600f600089815260200190815260200160002060080154612aff91906145b1565b612b099190614526565b7bffffffffffffffffffffffffffffffffffffffffffffffffffffffff16815250613460565b6dffffffffffffffffffffffffffff16600f6000858152602001908152602001600020600401819055505b600d54600f600085815260200190815260200160002060040154612b7e9190614557565b600f6000858152602001908152602001600020600401819055506000620186a0600654600f600087815260200190815260200160002060030154612bc29190614557565b612bcc9190614526565b90506000620186a0600254600f600088815260200190815260200160002060030154612bf89190614557565b612c029190614526565b90508082600f600088815260200190815260200160002060030154612c2791906145b1565b612c3191906145b1565b600f600087815260200190815260200160002060030181905550600960009054906101000a900473ffffffffffffffffffffffffffffffffffffffff1673ffffffffffffffffffffffffffffffffffffffff1663a9059cbb600a60009054906101000a900473ffffffffffffffffffffffffffffffffffffffff16846040518363ffffffff1660e01b8152600401612cca929190613fc4565b602060405180830381600087803b158015612ce457600080fd5b505af1158015612cf8573d6000803e3d6000fd5b505050506040513d601f19601f82011682018060405250810190612d1c91906136f4565b50600960009054906101000a900473ffffffffffffffffffffffffffffffffffffffff1673ffffffffffffffffffffffffffffffffffffffff1663a9059cbb85836040518363ffffffff1660e01b8152600401612d7a929190613fc4565b602060405180830381600087803b158015612d9457600080fd5b505af1158015612da8573d6000803e3d6000fd5b505050506040513d601f19601f82011682018060405250810190612dcc91906136f4565b507ff733bd7f4402cb7d331b34d5cd22f432b9bf71a833f786974545860d74976af285600f600088815260200190815260200160002060010154600f600089815260200190815260200160002060020154600f60008a815260200190815260200160002060050154600f60008b815260200190815260200160002060060154600f60008c815260200190815260200160002060070154600f60008d815260200190815260200160002060080154600f60008e815260200190815260200160002060030154604051612ea498979695949392919061432a565b60405180910390a15050505050565b600280811115612eec577f4e487b7100000000000000000000000000000000000000000000000000000000600052602160045260246000fd5b600f600083815260200190815260200160002060090160009054906101000a900460ff166002811115612f48577f4e487b7100000000000000000000000000000000000000000000000000000000600052602160045260246000fd5b14612f88576040517f08c379a0000000000000000000000000000000000000000000000000000000008152600401612f7f906141d6565b60405180910390fd5b6000612fa9600f60008481526020019081526020016000206004015461170b565b9050600280811115612fe4577f4e487b7100000000000000000000000000000000000000000000000000000000600052602160045260246000fd5b600e6000848152602001908152602001600020600083815260200190815260200160002060040160009054906101000a900460ff166002811115613051577f4e487b7100000000000000000000000000000000000000000000000000000000600052602160045260246000fd5b1415613092576040517f08c379a000000000000000000000000000000000000000000000000000000000815260040161308990614156565b60405180910390fd5b600073ffffffffffffffffffffffffffffffffffffffff16600e6000848152602001908152602001600020600083815260200190815260200160002060020160009054906101000a900473ffffffffffffffffffffffffffffffffffffffff1673ffffffffffffffffffffffffffffffffffffffff161415613149576040517f08c379a000000000000000000000000000000000000000000000000000000000815260040161314090614116565b60405180910390fd5b600960009054906101000a900473ffffffffffffffffffffffffffffffffffffffff1673ffffffffffffffffffffffffffffffffffffffff1663a9059cbb600e6000858152602001908152602001600020600084815260200190815260200160002060020160009054906101000a900473ffffffffffffffffffffffffffffffffffffffff16600f6000868152602001908152602001600020600301546040518363ffffffff1660e01b8152600401613203929190613fc4565b602060405180830381600087803b15801561321d57600080fd5b505af1158015613231573d6000803e3d6000fd5b505050506040513d601f19601f8201168201806040525081019061325591906136f4565b506002600e6000848152602001908152602001600020600083815260200190815260200160002060040160006101000a81548160ff021916908360028111156132c7577f4e487b7100000000000000000000000000000000000000000000000000000000600052602160045260246000fd5b02179055507f74c5c6f5cd4370cc0ab554a1afdb2b24b051b40c99102354ef424aed5cd6409d82600e600085815260200190815260200160002060008481526020019081526020016000206040516133209291906142ae565b60405180910390a15050565b600061333742610fe5565b8214156133475760009050613363565b600054428361335691906145b1565b6133609190614526565b90505b919050565b60006401000000004261337b91906147ee565b905090565b6133886135a2565b6000826dffffffffffffffffffffffffffff16116133db576040517f08c379a00000000000000000000000000000000000000000000000000000000081526004016133d290614236565b60405180910390fd5b6040518060200160405280836dffffffffffffffffffffffffffff16607060ff16866dffffffffffffffffffffffffffff167bffffffffffffffffffffffffffffffffffffffffffffffffffffffff16901b61343791906144f5565b7bffffffffffffffffffffffffffffffffffffffffffffffffffffffff16815250905092915050565b6000607060ff1682600001517bffffffffffffffffffffffffffffffffffffffffffffffffffffffff16901c9050919050565b6040518060a001604052806000815260200160008152602001600073ffffffffffffffffffffffffffffffffffffffff168152602001600081526020016000600281111561350a577f4e487b7100000000000000000000000000000000000000000000000000000000600052602160045260246000fd5b81525090565b60405180610160016040528060008152602001600081526020016000815260200160008152602001600081526020016000815260200160008152602001600081526020016000815260200160006002811115613595577f4e487b7100000000000000000000000000000000000000000000000000000000600052602160045260246000fd5b8152602001606081525090565b604051806020016040528060007bffffffffffffffffffffffffffffffffffffffffffffffffffffffff1681525090565b6000813590506135e2816148e1565b92915050565b6000815190506135f7816148e1565b92915050565b60008151905061360c816148f8565b92915050565b6000815190506136218161490f565b92915050565b60008135905061363681614926565b92915050565b60008151905061364b81614926565b92915050565b6000815190506136608161493d565b92915050565b60006020828403121561367857600080fd5b6000613686848285016135d3565b91505092915050565b6000602082840312156136a157600080fd5b60006136af848285016135e8565b91505092915050565b600080604083850312156136cb57600080fd5b60006136d9858286016135d3565b92505060206136ea85828601613627565b9150509250929050565b60006020828403121561370657600080fd5b6000613714848285016135fd565b91505092915050565b60008060006060848603121561373257600080fd5b600061374086828701613612565b935050602061375186828701613612565b925050604061376286828701613651565b9150509250925092565b60006020828403121561377e57600080fd5b600061378c84828501613627565b91505092915050565b6000602082840312156137a757600080fd5b60006137b58482850161363c565b91505092915050565b600080604083850312156137d157600080fd5b60006137df85828601613627565b92505060206137f085828601613627565b9150509250929050565b60008060006060848603121561380f57600080fd5b600061381d86828701613627565b935050602061382e86828701613627565b925050604061383f86828701613627565b9150509250925092565b60006138558383613f2b565b60208301905092915050565b61386a81614650565b82525050565b61387981614650565b82525050565b600061388a82614454565b613894818561446c565b935061389f83614444565b8060005b838110156138d05781516138b78882613849565b97506138c28361445f565b9250506001810190506138a3565b5085935050505092915050565b60006138e882614454565b6138f2818561447d565b93506138fd83614444565b8060005b8381101561392e5781516139158882613849565b97506139208361445f565b925050600181019050613901565b5085935050505092915050565b61394481614662565b82525050565b61395381614710565b82525050565b61396281614734565b82525050565b61397181614758565b82525050565b6139808161477c565b82525050565b61398f8161477c565b82525050565b61399e8161478e565b82525050565b6139ad8161478e565b82525050565b60006139c0601a8361448e565b91507f4652414d4520454e442054494d45204e4f5420524541434845440000000000006000830152602082019050919050565b6000613a0060158361448e565b91507f4e4f542054484520464143544f5259204f574e455200000000000000000000006000830152602082019050919050565b6000613a40600b8361448e565b91507f4c4f5420494e20504153540000000000000000000000000000000000000000006000830152602082019050919050565b6000613a80600d8361448e565b91507f4e4f54204c4f54204f574e4552000000000000000000000000000000000000006000830152602082019050919050565b6000613ac060088361448e565b91507f4e4f204f574e45520000000000000000000000000000000000000000000000006000830152602082019050919050565b6000613b0060138361448e565b91507f494e56414c4944204652414d45205052494345000000000000000000000000006000830152602082019050919050565b6000613b4060138361448e565b91507f4c4f5420414c524541445920534554544c4544000000000000000000000000006000830152602082019050919050565b6000613b8060108361448e565b91507f505249434520495320544f4f204c4f57000000000000000000000000000000006000830152602082019050919050565b6000613bc0600d8361448e565b91507f414c5245414459204f574e4552000000000000000000000000000000000000006000830152602082019050919050565b6000613c0060198361448e565b91507f415050524f56454420414d4f554e5420544f4f20534d414c4c000000000000006000830152602082019050919050565b6000613c4060108361448e565b91507f4652414d45204e4f5420434c4f534544000000000000000000000000000000006000830152602082019050919050565b6000613c80600d8361448e565b91507f4652414d4520494e2050415354000000000000000000000000000000000000006000830152602082019050919050565b6000613cc060118361448e565b91507f4c4f5420494e2050415354204652414d450000000000000000000000000000006000830152602082019050919050565b6000613d0060178361448e565b91507f4669786564506f696e743a204449565f42595f5a45524f0000000000000000006000830152602082019050919050565b600061016083016000830151613d4c6000860182613f2b565b506020830151613d5f6020860182613f2b565b506040830151613d726040860182613f2b565b506060830151613d856060860182613f2b565b506080830151613d986080860182613f2b565b5060a0830151613dab60a0860182613f2b565b5060c0830151613dbe60c0860182613f2b565b5060e0830151613dd160e0860182613f2b565b50610100830151613de6610100860182613f2b565b50610120830151613dfb610120860182613977565b50610140830151848203610140860152613e15828261387f565b9150508091505092915050565b60a082016000820151613e386000850182613f2b565b506020820151613e4b6020850182613f2b565b506040820151613e5e6040850182613861565b506060820151613e716060850182613f2b565b506080820151613e846080850182613995565b50505050565b60a082016000808301549050613e9f816147d4565b613eac6000860182613f2b565b5060018301549050613ebd816147d4565b613eca6020860182613f2b565b5060028301549050613edb816147a0565b613ee86040860182613861565b5060038301549050613ef9816147d4565b613f066060860182613f2b565b5060048301549050613f17816147ba565b613f246080860182613995565b5050505050565b613f34816146f6565b82525050565b613f43816146f6565b82525050565b6000602082019050613f5e6000830184613870565b92915050565b6000604082019050613f796000830185613870565b613f866020830184613870565b9392505050565b6000606082019050613fa26000830186613870565b613faf6020830185613870565b613fbc6040830184613f3a565b949350505050565b6000604082019050613fd96000830185613870565b613fe66020830184613f3a565b9392505050565b6000602082019050818103600083015261400781846138dd565b905092915050565b6000602082019050614024600083018461393b565b92915050565b600060208201905061403f600083018461394a565b92915050565b600060208201905061405a6000830184613959565b92915050565b60006020820190506140756000830184613968565b92915050565b60006020820190506140906000830184613986565b92915050565b600060208201905081810360008301526140af816139b3565b9050919050565b600060208201905081810360008301526140cf816139f3565b9050919050565b600060208201905081810360008301526140ef81613a33565b9050919050565b6000602082019050818103600083015261410f81613a73565b9050919050565b6000602082019050818103600083015261412f81613ab3565b9050919050565b6000602082019050818103600083015261414f81613af3565b9050919050565b6000602082019050818103600083015261416f81613b33565b9050919050565b6000602082019050818103600083015261418f81613b73565b9050919050565b600060208201905081810360008301526141af81613bb3565b9050919050565b600060208201905081810360008301526141cf81613bf3565b9050919050565b600060208201905081810360008301526141ef81613c33565b9050919050565b6000602082019050818103600083015261420f81613c73565b9050919050565b6000602082019050818103600083015261422f81613cb3565b9050919050565b6000602082019050818103600083015261424f81613cf3565b9050919050565b600060208201905081810360008301526142708184613d33565b905092915050565b600060a08201905061428d6000830184613e22565b92915050565b60006020820190506142a86000830184613f3a565b92915050565b600060c0820190506142c36000830185613f3a565b6142d06020830184613e8a565b9392505050565b600060a0820190506142ec6000830188613f3a565b6142f96020830187613f3a565b6143066040830186613870565b6143136060830185613f3a565b61432060808301846139a4565b9695505050505050565b600061010082019050614340600083018b613f3a565b61434d602083018a613f3a565b61435a6040830189613f3a565b6143676060830188613f3a565b6143746080830187613f3a565b61438160a0830186613f3a565b61438e60c0830185613f3a565b61439b60e0830184613f3a565b9998505050505050505050565b6000610140820190506143be600083018d613f3a565b6143cb602083018c613f3a565b6143d8604083018b613f3a565b6143e5606083018a613f3a565b6143f26080830189613f3a565b6143ff60a0830188613f3a565b61440c60c0830187613f3a565b61441960e0830186613f3a565b614427610100830185613f3a565b614435610120830184613986565b9b9a5050505050505050505050565b6000819050602082019050919050565b600081519050919050565b6000602082019050919050565b600082825260208201905092915050565b600082825260208201905092915050565b600082825260208201905092915050565b60006144aa826146f6565b91506144b5836146f6565b9250827fffffffffffffffffffffffffffffffffffffffffffffffffffffffffffffffff038211156144ea576144e961481f565b5b828201905092915050565b6000614500826146ce565b915061450b836146ce565b92508261451b5761451a61484e565b5b828204905092915050565b6000614531826146f6565b915061453c836146f6565b92508261454c5761454b61484e565b5b828204905092915050565b6000614562826146f6565b915061456d836146f6565b9250817fffffffffffffffffffffffffffffffffffffffffffffffffffffffffffffffff04831182151516156145a6576145a561481f565b5b828202905092915050565b60006145bc826146f6565b91506145c7836146f6565b9250828210156145da576145d961481f565b5b828203905092915050565b60006145f082614700565b91506145fb83614700565b92508282101561460e5761460d61481f565b5b828203905092915050565b600073ffffffffffffffffffffffffffffffffffffffff82169050919050565b600060ff82169050919050565b6000819050919050565b600061465b826146ae565b9050919050565b60008115159050919050565b600081905061467c826148b9565b919050565b600081905061468f826148cd565b919050565b60006dffffffffffffffffffffffffffff82169050919050565b600073ffffffffffffffffffffffffffffffffffffffff82169050919050565b60007bffffffffffffffffffffffffffffffffffffffffffffffffffffffff82169050919050565b6000819050919050565b600063ffffffff82169050919050565b600061471b82614722565b9050919050565b600061472d826146ae565b9050919050565b600061473f82614746565b9050919050565b6000614751826146ae565b9050919050565b60006147638261476a565b9050919050565b6000614775826146ae565b9050919050565b60006147878261466e565b9050919050565b600061479982614681565b9050919050565b60006147b36147ae836148ac565b614619565b9050919050565b60006147cd6147c8836148ac565b614639565b9050919050565b60006147e76147e2836148ac565b614646565b9050919050565b60006147f9826146f6565b9150614804836146f6565b9250826148145761481361484e565b5b828206905092915050565b7f4e487b7100000000000000000000000000000000000000000000000000000000600052601160045260246000fd5b7f4e487b7100000000000000000000000000000000000000000000000000000000600052601260045260246000fd5b7f4e487b7100000000000000000000000000000000000000000000000000000000600052602160045260246000fd5b60008160001c9050919050565b600381106148ca576148c961487d565b5b50565b600381106148de576148dd61487d565b5b50565b6148ea81614650565b81146148f557600080fd5b50565b61490181614662565b811461490c57600080fd5b50565b61491881614694565b811461492357600080fd5b50565b61492f816146f6565b811461493a57600080fd5b50565b61494681614700565b811461495157600080fd5b5056fea26469706673582212207fb861774893d400f304fd44382baf79e760da14434432d26f6be9796de07e9664736f6c63430008000033",
  "linkReferences": {},
  "deployedLinkReferences": {}
}