{
  "_format": "hh-sol-artifact-1",
  "contractName": "Market",
  "sourceName": "contracts/Market.sol",
  "abi": [
    {
      "inputs": [],
      "stateMutability": "nonpayable",
      "type": "constructor"
    },
    {
      "anonymous": false,
      "inputs": [
        {
          "components": [
            {
              "internalType": "uint256",
              "name": "frameKey",
              "type": "uint256"
            },
            {
              "internalType": "uint256",
              "name": "rate",
              "type": "uint256"
            },
            {
              "internalType": "uint256[]",
              "name": "lotKeys",
              "type": "uint256[]"
            },
            {
              "internalType": "address",
              "name": "claimedBy",
              "type": "address"
            },
            {
              "internalType": "uint256",
              "name": "rateSettle",
              "type": "uint256"
            },
            {
              "internalType": "uint256",
              "name": "feeSettle",
              "type": "uint256"
            },
            {
              "internalType": "uint256",
              "name": "rewardSettle",
              "type": "uint256"
            }
          ],
          "indexed": false,
          "internalType": "struct Market.Frame",
          "name": "frame",
          "type": "tuple"
        }
      ],
      "name": "FrameUpdate",
      "type": "event"
    },
    {
      "anonymous": false,
      "inputs": [
        {
          "components": [
            {
              "internalType": "uint256",
              "name": "frameKey",
              "type": "uint256"
            },
            {
              "internalType": "uint256",
              "name": "lotKey",
              "type": "uint256"
            },
            {
              "components": [
                {
                  "internalType": "uint256",
                  "name": "blockNumber",
                  "type": "uint256"
                },
                {
                  "internalType": "uint256",
                  "name": "blockTimestamp",
                  "type": "uint256"
                },
                {
                  "internalType": "address",
                  "name": "owner",
                  "type": "address"
                },
                {
                  "internalType": "uint256",
                  "name": "acquisitionPrice",
                  "type": "uint256"
                },
                {
                  "internalType": "uint256",
                  "name": "taxCharged",
                  "type": "uint256"
                },
                {
                  "internalType": "uint256",
                  "name": "taxRefunded",
                  "type": "uint256"
                }
              ],
              "internalType": "struct Market.LotState[]",
              "name": "states",
              "type": "tuple[]"
            }
          ],
          "indexed": false,
          "internalType": "struct Market.Lot",
          "name": "lot",
          "type": "tuple"
        }
      ],
      "name": "LotUpdate",
      "type": "event"
    },
    {
      "inputs": [],
      "name": "accountingToken",
      "outputs": [
        {
          "internalType": "contract IERC20",
          "name": "",
          "type": "address"
        }
      ],
      "stateMutability": "view",
      "type": "function"
    },
    {
      "inputs": [
        {
          "internalType": "uint256",
          "name": "timestamp",
          "type": "uint256"
        }
      ],
      "name": "clcFrameKey",
      "outputs": [
        {
          "internalType": "uint256",
          "name": "",
          "type": "uint256"
        }
      ],
      "stateMutability": "view",
      "type": "function"
    },
    {
      "inputs": [
        {
          "internalType": "uint256",
          "name": "value",
          "type": "uint256"
        }
      ],
      "name": "clcLotKey",
      "outputs": [
        {
          "internalType": "uint256",
          "name": "",
          "type": "uint256"
        }
      ],
      "stateMutability": "view",
      "type": "function"
    },
    {
      "inputs": [],
      "name": "clcRate",
      "outputs": [
        {
          "internalType": "uint256",
          "name": "",
          "type": "uint256"
        }
      ],
      "stateMutability": "view",
      "type": "function"
    },
    {
      "inputs": [
        {
          "internalType": "uint256",
          "name": "timestamp",
          "type": "uint256"
        }
      ],
      "name": "clcRateAvg",
      "outputs": [
        {
          "internalType": "uint256",
          "name": "",
          "type": "uint256"
        }
      ],
      "stateMutability": "view",
      "type": "function"
    },
    {
      "inputs": [
        {
          "internalType": "uint256",
          "name": "frameKey",
          "type": "uint256"
        }
      ],
      "name": "clcRewardFund",
      "outputs": [
        {
          "internalType": "uint256",
          "name": "",
          "type": "uint256"
        }
      ],
      "stateMutability": "view",
      "type": "function"
    },
    {
      "inputs": [
        {
          "internalType": "uint256",
          "name": "frameKey",
          "type": "uint256"
        },
        {
          "internalType": "uint256",
          "name": "acquisitionPrice",
          "type": "uint256"
        }
      ],
      "name": "clcTax",
      "outputs": [
        {
          "internalType": "uint256",
          "name": "",
          "type": "uint256"
        }
      ],
      "stateMutability": "view",
      "type": "function"
    },
    {
      "inputs": [
        {
          "internalType": "uint256",
          "name": "frameKey",
          "type": "uint256"
        },
        {
          "internalType": "uint256",
          "name": "lotKey",
          "type": "uint256"
        }
      ],
      "name": "concatenate",
      "outputs": [
        {
          "internalType": "uint256",
          "name": "concatenated",
          "type": "uint256"
        }
      ],
      "stateMutability": "pure",
      "type": "function"
    },
    {
      "inputs": [],
      "name": "dPrice",
      "outputs": [
        {
          "internalType": "uint256",
          "name": "",
          "type": "uint256"
        }
      ],
      "stateMutability": "view",
      "type": "function"
    },
    {
      "inputs": [],
      "name": "feeProtocol",
      "outputs": [
        {
          "internalType": "uint256",
          "name": "",
          "type": "uint256"
        }
      ],
      "stateMutability": "view",
      "type": "function"
    },
    {
      "inputs": [
        {
          "internalType": "uint256",
          "name": "",
          "type": "uint256"
        }
      ],
      "name": "frames",
      "outputs": [
        {
          "internalType": "uint256",
          "name": "frameKey",
          "type": "uint256"
        },
        {
          "internalType": "uint256",
          "name": "rate",
          "type": "uint256"
        },
        {
          "internalType": "address",
          "name": "claimedBy",
          "type": "address"
        },
        {
          "internalType": "uint256",
          "name": "rateSettle",
          "type": "uint256"
        },
        {
          "internalType": "uint256",
          "name": "feeSettle",
          "type": "uint256"
        },
        {
          "internalType": "uint256",
          "name": "rewardSettle",
          "type": "uint256"
        }
      ],
      "stateMutability": "view",
      "type": "function"
    },
    {
      "inputs": [
        {
          "internalType": "uint256",
          "name": "",
          "type": "uint256"
        }
      ],
      "name": "framesKeys",
      "outputs": [
        {
          "internalType": "uint256",
          "name": "",
          "type": "uint256"
        }
      ],
      "stateMutability": "view",
      "type": "function"
    },
    {
      "inputs": [
        {
          "internalType": "uint256",
          "name": "frameKey",
          "type": "uint256"
        }
      ],
      "name": "getFrame",
      "outputs": [
        {
          "components": [
            {
              "internalType": "uint256",
              "name": "frameKey",
              "type": "uint256"
            },
            {
              "internalType": "uint256",
              "name": "rate",
              "type": "uint256"
            },
            {
              "internalType": "uint256[]",
              "name": "lotKeys",
              "type": "uint256[]"
            },
            {
              "internalType": "address",
              "name": "claimedBy",
              "type": "address"
            },
            {
              "internalType": "uint256",
              "name": "rateSettle",
              "type": "uint256"
            },
            {
              "internalType": "uint256",
              "name": "feeSettle",
              "type": "uint256"
            },
            {
              "internalType": "uint256",
              "name": "rewardSettle",
              "type": "uint256"
            }
          ],
          "internalType": "struct Market.Frame",
          "name": "",
          "type": "tuple"
        }
      ],
      "stateMutability": "view",
      "type": "function"
    },
    {
      "inputs": [
        {
          "internalType": "uint256",
          "name": "frameKey",
          "type": "uint256"
        }
      ],
      "name": "getFrameLotKeys",
      "outputs": [
        {
          "internalType": "uint256[]",
          "name": "",
          "type": "uint256[]"
        }
      ],
      "stateMutability": "view",
      "type": "function"
    },
    {
      "inputs": [],
      "name": "getFramesLength",
      "outputs": [
        {
          "internalType": "uint256",
          "name": "",
          "type": "uint256"
        }
      ],
      "stateMutability": "view",
      "type": "function"
    },
    {
      "inputs": [
        {
          "internalType": "uint256",
          "name": "frameKey",
          "type": "uint256"
        },
        {
          "internalType": "uint256",
          "name": "lotKey",
          "type": "uint256"
        }
      ],
      "name": "getLot",
      "outputs": [
        {
          "components": [
            {
              "internalType": "uint256",
              "name": "frameKey",
              "type": "uint256"
            },
            {
              "internalType": "uint256",
              "name": "lotKey",
              "type": "uint256"
            },
            {
              "components": [
                {
                  "internalType": "uint256",
                  "name": "blockNumber",
                  "type": "uint256"
                },
                {
                  "internalType": "uint256",
                  "name": "blockTimestamp",
                  "type": "uint256"
                },
                {
                  "internalType": "address",
                  "name": "owner",
                  "type": "address"
                },
                {
                  "internalType": "uint256",
                  "name": "acquisitionPrice",
                  "type": "uint256"
                },
                {
                  "internalType": "uint256",
                  "name": "taxCharged",
                  "type": "uint256"
                },
                {
                  "internalType": "uint256",
                  "name": "taxRefunded",
                  "type": "uint256"
                }
              ],
              "internalType": "struct Market.LotState[]",
              "name": "states",
              "type": "tuple[]"
            }
          ],
          "internalType": "struct Market.Lot",
          "name": "",
          "type": "tuple"
        }
      ],
      "stateMutability": "view",
      "type": "function"
    },
    {
      "inputs": [
        {
          "internalType": "uint256",
          "name": "frameKey",
          "type": "uint256"
        },
        {
          "internalType": "uint256",
          "name": "lotKey",
          "type": "uint256"
        }
      ],
      "name": "getLotStates",
      "outputs": [
        {
          "components": [
            {
              "internalType": "uint256",
              "name": "blockNumber",
              "type": "uint256"
            },
            {
              "internalType": "uint256",
              "name": "blockTimestamp",
              "type": "uint256"
            },
            {
              "internalType": "address",
              "name": "owner",
              "type": "address"
            },
            {
              "internalType": "uint256",
              "name": "acquisitionPrice",
              "type": "uint256"
            },
            {
              "internalType": "uint256",
              "name": "taxCharged",
              "type": "uint256"
            },
            {
              "internalType": "uint256",
              "name": "taxRefunded",
              "type": "uint256"
            }
          ],
          "internalType": "struct Market.LotState[]",
          "name": "",
          "type": "tuple[]"
        }
      ],
      "stateMutability": "view",
      "type": "function"
    },
    {
      "inputs": [],
      "name": "getLotsArray",
      "outputs": [
        {
          "internalType": "uint256[]",
          "name": "",
          "type": "uint256[]"
        }
      ],
      "stateMutability": "view",
      "type": "function"
    },
    {
      "inputs": [],
      "name": "getLotsArrayLength",
      "outputs": [
        {
          "internalType": "uint256",
          "name": "",
          "type": "uint256"
        }
      ],
      "stateMutability": "view",
      "type": "function"
    },
    {
      "inputs": [
        {
          "internalType": "uint256",
          "name": "frameKey",
          "type": "uint256"
        }
      ],
      "name": "getLotsKeysInFrame",
      "outputs": [
        {
          "internalType": "uint256[]",
          "name": "",
          "type": "uint256[]"
        }
      ],
      "stateMutability": "view",
      "type": "function"
    },
    {
      "inputs": [
        {
          "internalType": "uint256",
          "name": "frameKey",
          "type": "uint256"
        }
      ],
      "name": "getLotsLength",
      "outputs": [
        {
          "internalType": "uint256",
          "name": "",
          "type": "uint256"
        }
      ],
      "stateMutability": "view",
      "type": "function"
    },
    {
      "inputs": [
        {
          "internalType": "uint256",
          "name": "frameKey",
          "type": "uint256"
        }
      ],
      "name": "getStateFrame",
      "outputs": [
        {
          "internalType": "enum Market.SFrame",
          "name": "",
          "type": "uint8"
        }
      ],
      "stateMutability": "view",
      "type": "function"
    },
    {
      "inputs": [
        {
          "internalType": "uint256",
          "name": "frameKey",
          "type": "uint256"
        },
        {
          "internalType": "uint256",
          "name": "lotKey",
          "type": "uint256"
        }
      ],
      "name": "getStateLot",
      "outputs": [
        {
          "internalType": "enum Market.SLot",
          "name": "",
          "type": "uint8"
        }
      ],
      "stateMutability": "view",
      "type": "function"
    },
    {
      "inputs": [],
      "name": "initTimestamp",
      "outputs": [
        {
          "internalType": "uint256",
          "name": "",
          "type": "uint256"
        }
      ],
      "stateMutability": "view",
      "type": "function"
    },
    {
      "inputs": [
        {
          "internalType": "uint256",
          "name": "",
          "type": "uint256"
        },
        {
          "internalType": "uint256",
          "name": "",
          "type": "uint256"
        }
      ],
      "name": "lots",
      "outputs": [
        {
          "internalType": "uint256",
          "name": "frameKey",
          "type": "uint256"
        },
        {
          "internalType": "uint256",
          "name": "lotKey",
          "type": "uint256"
        }
      ],
      "stateMutability": "view",
      "type": "function"
    },
    {
      "inputs": [
        {
          "internalType": "uint256",
          "name": "",
          "type": "uint256"
        }
      ],
      "name": "lotsArray",
      "outputs": [
        {
          "internalType": "uint256",
          "name": "",
          "type": "uint256"
        }
      ],
      "stateMutability": "view",
      "type": "function"
    },
    {
      "inputs": [
        {
          "internalType": "uint256",
          "name": "frameKey",
          "type": "uint256"
        },
        {
          "internalType": "uint256",
          "name": "avgPrice",
          "type": "uint256"
        }
      ],
      "name": "overrideFrameRate",
      "outputs": [],
      "stateMutability": "nonpayable",
      "type": "function"
    },
    {
      "inputs": [],
      "name": "owner",
      "outputs": [
        {
          "internalType": "address",
          "name": "",
          "type": "address"
        }
      ],
      "stateMutability": "view",
      "type": "function"
    },
    {
      "inputs": [],
      "name": "period",
      "outputs": [
        {
          "internalType": "uint256",
          "name": "",
          "type": "uint256"
        }
      ],
      "stateMutability": "view",
      "type": "function"
    },
    {
      "inputs": [
        {
          "internalType": "uint256",
          "name": "frameKey",
          "type": "uint256"
        }
      ],
      "name": "setFrameRate",
      "outputs": [],
      "stateMutability": "nonpayable",
      "type": "function"
    },
    {
      "inputs": [
        {
          "internalType": "uint256",
          "name": "frameKey",
          "type": "uint256"
        }
      ],
      "name": "settleFrame",
      "outputs": [
        {
          "internalType": "uint256",
          "name": "",
          "type": "uint256"
        }
      ],
      "stateMutability": "nonpayable",
      "type": "function"
    },
    {
      "inputs": [],
      "name": "tSettle",
      "outputs": [
        {
          "internalType": "uint256",
          "name": "",
          "type": "uint256"
        }
      ],
      "stateMutability": "view",
      "type": "function"
    },
    {
      "inputs": [],
      "name": "taxMarket",
      "outputs": [
        {
          "internalType": "uint256",
          "name": "",
          "type": "uint256"
        }
      ],
      "stateMutability": "view",
      "type": "function"
    },
    {
      "inputs": [
        {
          "internalType": "uint256",
          "name": "timestamp",
          "type": "uint256"
        },
        {
          "internalType": "uint256",
          "name": "rate",
          "type": "uint256"
        },
        {
          "internalType": "uint256",
          "name": "acquisitionPrice",
          "type": "uint256"
        }
      ],
      "name": "tradeLot",
      "outputs": [],
      "stateMutability": "nonpayable",
      "type": "function"
    },
    {
      "inputs": [],
      "name": "uniswapPool",
      "outputs": [
        {
          "internalType": "contract IUniswapV3Pool",
          "name": "",
          "type": "address"
        }
      ],
      "stateMutability": "view",
      "type": "function"
    },
    {
      "inputs": [
        {
          "internalType": "uint256",
          "name": "amount",
          "type": "uint256"
        }
      ],
      "name": "withdrawAccountingToken",
      "outputs": [],
      "stateMutability": "nonpayable",
      "type": "function"
    }
  ],
  "bytecode": "0x608060405262015180600055636592e180600155666a94d74f430000600255610258600355600480546001600160a01b03199081167367a9fe12fa6082d9d0203c84c6c56d3c4b269f281790915568056bc75e2d63100000600555662386f26fc1000060065560078054909116738f3cf7ad23cd3cadbd9735aff958023239c6a06317905534801561009057600080fd5b50600880546001600160a01b031916331790556137ed806100b26000396000f3fe608060405234801561001057600080fd5b506004361061021c5760003560e01c80638edc6a2c11610125578063bdd3d825116100ad578063e107fb4f1161007c578063e107fb4f1461052f578063ed320aa814610542578063ef78d4fd1461054a578063fb0d5e0914610553578063ffdabe2d1461057357600080fd5b8063bdd3d825146104ee578063c0423f2e14610501578063d18743dd14610509578063da68cf8b1461051c57600080fd5b8063b866debb116100f4578063b866debb14610459578063b93dafa91461046c578063ba4e137f146104b3578063ba52f342146104bb578063bad12653146104ce57600080fd5b80638edc6a2c146103885780639592de18146103ab578063a10340bc146103be578063a73482f61461044657600080fd5b8063527eb4bc116101a85780637358c57a116101775780637358c57a14610322578063773d51eb1461032b5780637e9966391461034b5780638a5779c8146103545780638da5cb5b1461035d57600080fd5b8063527eb4bc146102d357806361eee2cb146102dc57806364772f21146102ef5780636f1aefc31461030257600080fd5b80632457e620116101ef5780632457e6201461024757806339a6a489146102845780633baf158714610297578063499a0fc4146102aa5780634c73884f146102b357600080fd5b8063050e8840146102215780630d0a1c1a1461024757806318d13d8714610267578063197c4e781461027c575b600080fd5b61023461022f366004612eea565b610586565b6040519081526020015b60405180910390f35b61025a610255366004612eea565b6105a7565b60405161023e9190612f03565b61027a610275366004612f47565b61060c565b005b600c54610234565b610234610292366004612eea565b61072b565b61027a6102a5366004612eea565b6108f8565b61023460055481565b6102c66102c1366004612f47565b610a35565b60405161023e9190612f7f565b61023460025481565b6102346102ea366004612eea565b610b62565b61027a6102fd366004612f99565b610b99565b610315610310366004612f47565b610cd2565b60405161023e919061300a565b61023460015481565b61033e610339366004612eea565b610e29565b60405161023e9190613075565b61023460065481565b61023460035481565b600854610370906001600160a01b031681565b6040516001600160a01b03909116815260200161023e565b610234610396366004612eea565b60009081526009602052604090206002015490565b6102346103b9366004612eea565b610f52565b61040b6103cc366004612eea565b600960205260009081526040902080546001820154600383015460048401546005850154600690950154939492936001600160a01b0390921692909186565b6040805196875260208701959095526001600160a01b03909316938501939093526060840152608083019190915260a082015260c00161023e565b610234610454366004612f47565b610f7d565b610234610467366004612eea565b611047565b61049e61047a366004612f47565b600b6020908152600092835260408084209091529082529020805460019091015482565b6040805192835260208301919091520161023e565b610234611584565b6102346104c9366004612eea565b611653565b6104e16104dc366004612eea565b611663565b60405161023e9190613115565b600454610370906001600160a01b031681565b61025a6116fa565b61027a610517366004612eea565b611752565b600754610370906001600160a01b031681565b61023461053d366004612f47565b61183a565b600a54610234565b61023460005481565b610566610561366004612f47565b6118fc565b60405161023e9190613129565b610234610581366004612eea565b6119b2565b600a818154811061059657600080fd5b600091825260209091200154905081565b60008181526009602090815260409182902060020180548351818402810184019094528084526060939283018282801561060057602002820191906000526020600020905b8154815260200190600101908083116105ec575b50505050509050919050565b6008546001600160a01b0316331461067b5760405162461bcd60e51b815260206004820152602760248201527f4f6e6c79206f776e65722063616e20757064617465206672616d6520636c6f736044820152666520707269636560c81b60648201526084015b60405180910390fd5b60008281526009602052604081205490036106a85760405162461bcd60e51b815260040161067290613166565b6000828152600960205260409020600301546001600160a01b0316156107105760405162461bcd60e51b815260206004820181905260248201527f4672616d65207265776172642077617320616c726561647920636c61696d65646044820152606401610672565b60009182526009602052604080832054835290912060010155565b600080805b6000848152600960205260409020600201548110156108f157600084815260096020818152604080842080548552600b83529084208885529290915260020180548391908590811061078457610784613193565b90600052602060002001548152602001908152602001600020604051806060016040529081600082015481526020016001820154815260200160028201805480602002602001604051908101604052809291908181526020016000905b828210156108525760008481526020908190206040805160c08101825260068602909201805483526001808201548486015260028201546001600160a01b03169284019290925260038101546060840152600481015460808401526005015460a083015290835290920191016107e1565b5050505081525050905060005b8160400151518110156108dc578160400151818151811061088257610882613193565b6020026020010151608001518461089991906131bf565b9350816040015181815181106108b1576108b1613193565b602002602001015160a00151846108c891906131d2565b9350806108d4816131e5565b91505061085f565b505080806108e9906131e5565b915050610730565b5092915050565b61093960405180604001604052806012815260200171333930b6b2a5b2bc9015903832b934b7b21d60711b8152506000548361093491906131bf565b611bf8565b61096b6040518060400160405280601081526020016f313637b1b5973a34b6b2b9ba30b6b81d60811b81525042611bf8565b6000805482825260096020526040909120544291610988916131bf565b11156109d65760405162461bcd60e51b815260206004820152601b60248201527f4672616d652068617320746f20626520696e20746865207061737400000000006044820152606401610672565b60006109e1826119b2565b600083815260096020526040908190206001810183905590519192507f861dcb88c2eea524dd3c4d2026fc29c39249f4d090843bcc78037879d296c45291610a2991906131fe565b60405180910390a15050565b6000828152600b602090815260408083208484529091528120600101548103610a6057506000610b5c565b6000610a6b84611663565b6004811115610a7c57610a7c612f69565b03610a8957506000610b5c565b6001610a9484611663565b6004811115610aa557610aa5612f69565b1480610aca57506002610ab784611663565b6004811115610ac857610ac8612f69565b145b15610ad757506001610b5c565b6000838152600b602090815260408083208584528252808320600190810154878552600990935292209091015410801590610b4b57506005546000848152600b60209081526040808320868452909152902060010154610b3791906131bf565b600084815260096020526040902060010154105b15610b5857506002610b5c565b5060035b92915050565b60006001548211610b7557505060015490565b600054600154610b8590846131d2565b610b8f91906132b2565b610b5c90836131d2565b6000610ba484610b62565b90506000610bb184610f52565b6000838152600b6020908152604080832084845290915281206001015491925003610c06576000828152600960205260408120549003610bf657610bf485611c3d565b505b610c01828285611d7a565b610c7b565b6000828152600b6020908152604080832084845290915290206002018054339190610c33906001906131d2565b81548110610c4357610c43613193565b60009182526020909120600260069092020101546001600160a01b031603610c7057610c01828285612146565b610c7b828285612513565b6000828152600b602090815260408083208484529091529081902090517f906ff162b3f2709ab28fb678d43913964434148dd206e9b17adb3c1255090cb191610cc3916132c6565b60405180910390a15050505050565b610cf660405180606001604052806000815260200160008152602001606081525090565b6000838152600b602090815260408083208584529091528120600101549003610d555760405162461bcd60e51b8152602060048201526011602482015270131bdd08191bd95cdb89dd08195e1a5cdd607a1b6044820152606401610672565b6000838152600b602090815260408083208584528252808320815160608101835281548152600182015481850152600282018054845181870281018701865281815292969395948701949293919290919084015b82821015610e1a5760008481526020908190206040805160c08101825260068602909201805483526001808201548486015260028201546001600160a01b03169284019290925260038101546060840152600481015460808401526005015460a08301529083529092019101610da9565b50505091525090949350505050565b610e726040518060e0016040528060008152602001600081526020016060815260200160006001600160a01b031681526020016000815260200160008152602001600081525090565b6000828152600960205260408120549003610e9f5760405162461bcd60e51b815260040161067290613166565b600082815260096020908152604091829020825160e0810184528154815260018201548184015260028201805485518186028101860187528181529295939493860193830182828015610f1157602002820191906000526020600020905b815481526020019060010190808311610efd575b505050918352505060038201546001600160a01b03166020820152600482015460408201526005820154606082015260069091015460809091015292915050565b6000600554821015610f6657505060055490565b600554610f738184613374565b610b5c9190613388565b6000610f8e826402540be400613388565b9150610fc76040518060400160405280601581526020017429a7a61021a7a721a0aa1d10333930b6b2a5b2bc9d60591b81525084611bf8565b610ffc6040518060400160405280601381526020017229a7a61021a7a721a0aa1d103637ba25b2bc9d60691b81525083611bf8565b61100683836131bf565b9050610b5c6040518060400160405280601981526020017f534f4c20434f4e4341543a20636f6e636174656e617465643a0000000000000081525082611bf8565b60008181526009602052604081205481036110745760405162461bcd60e51b815260040161067290613166565b600361107f83611663565b600481111561109057611090612f69565b146110e95760405162461bcd60e51b8152602060048201526024808201527f4672616d6520646f6573206e6f742068617665206120636c6f73652072617465604482015263081cd95d60e21b6064820152608401610672565b60008281526009602052604081206001015461110490610f52565b6000848152600b60209081526040808320848452825280832081516060810183528154815260018201548185015260028201805484518187028101870186528181529798509596919592949386019391929091879084015b828210156111cd5760008481526020908190206040805160c08101825260068602909201805483526001808201548486015260028201546001600160a01b03169284019290925260038101546060840152600481015460808401526005015460a0830152908352909201910161115c565b5050505081525050905060006111e28561072b565b90506000670de0b6b3a7640000600254836111fd9190613388565b6112079190613374565b6000878152600960205260409020600501819055905061122781836131d2565b600087815260096020526040908190206006019190915583015151156113f657600754604084015180516001600160a01b039092169163a9059cbb9190611270906001906131d2565b8151811061128057611280613193565b602002602001015160400151600960008a8152602001908152602001600020600601546040518363ffffffff1660e01b81526004016112d49291906001600160a01b03929092168252602082015260400190565b6020604051808303816000875af11580156112f3573d6000803e3d6000fd5b505050506040513d601f19601f8201168201806040525081019061131791906133b4565b506040830151805161132b906001906131d2565b8151811061133b5761133b613193565b60209081029190910181015160409081015160008981526009909352918190206003810180546001600160a01b0319166001600160a01b03948516179055600754600854600590920154925163a9059cbb60e01b81529184166004830152602482019290925291169063a9059cbb906044016020604051808303816000875af11580156113cc573d6000803e3d6000fd5b505050506040513d601f19601f820116820180604052508101906113f091906133b4565b506114d4565b600754600854600088815260096020526040902060058101546006909101546001600160a01b039384169363a9059cbb931691611432916131bf565b6040516001600160e01b031960e085901b1681526001600160a01b03909216600483015260248201526044016020604051808303816000875af115801561147d573d6000803e3d6000fd5b505050506040513d601f19601f820116820180604052508101906114a191906133b4565b50600854600087815260096020526040902060030180546001600160a01b0319166001600160a01b039092169190911790555b600086815260096020526040908190206001810154600490910155517f906ff162b3f2709ab28fb678d43913964434148dd206e9b17adb3c1255090cb19061151d90859061300a565b60405180910390a16000868152600960205260409081902090517f861dcb88c2eea524dd3c4d2026fc29c39249f4d090843bcc78037879d296c45291611562916131fe565b60405180910390a1505050600092835250506009602052604090206006015490565b6004805460408051633850c7bd60e01b8152905160009384936001600160a01b031692633850c7bd928183019260e0928290030181865afa1580156115cd573d6000803e3d6000fd5b505050506040513d601f19601f820116820180604052508101906115f191906133ff565b50505050505090506000816001600160a01b031690506000600160601b82670de0b6b3a76400006116229190613388565b61162c9190613374565b9050670de0b6b3a76400006116418280613388565b61164b9190613374565b949350505050565b600c818154811061059657600080fd5b600081815260096020526040812054810361168057506000919050565b6000828152600960205260409020600301546001600160a01b0316156116a857506004919050565b6000805483825260096020526040909120546116c491906131bf565b4210156116d357506001919050565b600082815260096020526040902060010154156116f257506003919050565b506002919050565b6060600c80548060200260200160405190810160405280929190818152602001828054801561174857602002820191906000526020600020905b815481526020019060010190808311611734575b5050505050905090565b6008546001600160a01b031633146117bd5760405162461bcd60e51b815260206004820152602860248201527f4f6e6c79206f776e65722063616e207769746864726177206163636f756e74696044820152673733903a37b5b2b760c11b6064820152608401610672565b60075460085460405163a9059cbb60e01b81526001600160a01b0391821660048201526024810184905291169063a9059cbb906044016020604051808303816000875af1158015611812573d6000803e3d6000fd5b505050506040513d601f19601f8201168201806040525081019061183691906133b4565b5050565b6000426000548461184b91906131bf565b116118985760405162461bcd60e51b815260206004820152601d60248201527f4672616d652068617320746f20626520696e20746865206675747572650000006044820152606401610672565b600080546006546118a99190613374565b9050600042600054866118bc91906131bf565b6118c691906131d2565b90506000670de0b6b3a7640000856118de8585613388565b6118e89190613388565b6118f29190613374565b9695505050505050565b6000828152600b602090815260408083208484528252808320600201805482518185028101850190935280835260609492939192909184015b828210156119a65760008481526020908190206040805160c08101825260068602909201805483526001808201548486015260028201546001600160a01b03169284019290925260038101546060840152600481015460808401526005015460a08301529083529092019101611935565b50505050905092915050565b60008060035483426119c491906131d2565b6119ce91906131bf565b905060006119dc84426131d2565b60408051600280825260608201835292935060009290916020830190803683370190505090508281600081518110611a1657611a16613193565b602002602001019063ffffffff16908163ffffffff16815250508181600181518110611a4457611a44613193565b63ffffffff909216602092830291909101909101526004805460405163883bdbfd60e01b81526000926001600160a01b039092169163883bdbfd91611a8b918691016134ab565b600060405180830381865afa158015611aa8573d6000803e3d6000fd5b505050506040513d6000823e601f3d908101601f19168201604052611ad091908101906135a5565b509050600081600081518110611ae857611ae8613193565b602002602001015160060b82600181518110611b0657611b06613193565b602002602001015160060b611b1b9190613671565b90506000811215611b645760405162461bcd60e51b81526020600482015260136024820152724e65676174697665207469636b2064656c746160681b6044820152606401610672565b806000611b7a63ffffffff8088169089166131d2565b90506000611b888284613374565b90506000611b95826129f4565b90506000611bb366010000000000006001600160a01b038416613374565b90506000611bc18280613388565b90506000600160601b611bdc83670de0b6b3a7640000613388565b611be69190613374565b9e9d5050505050505050505050505050565b6118368282604051602401611c0e929190613691565b60408051601f198184030181529190526020810180516001600160e01b0316632d839cb360e21b179052612dd7565b600080611c4983610b62565b60008181526009602052604090205490915015611c9f5760405162461bcd60e51b81526020600482015260146024820152734672616d6520616c72656164792065786973747360601b6044820152606401610672565b4260005482611cae91906131bf565b1015611cfc5760405162461bcd60e51b815260206004820152601d60248201527f4672616d652068617320746f20626520696e20746865206675747572650000006044820152606401610672565b60008181526009602052604090819020828155600a8054600181019091557fc65a7bb8d6351c1cf70c95a316cc6a92839c986682d98bc35f958f4883f9d2a80183905590517f861dcb88c2eea524dd3c4d2026fc29c39249f4d090843bcc78037879d296c45291611d6c916131fe565b60405180910390a192915050565b6000611d86848361183a565b905060008111611da85760405162461bcd60e51b8152600401610672906136e6565b600754604051636eb1769f60e11b815233600482015230602482015282916001600160a01b03169063dd62ed3e90604401602060405180830381865afa158015611df6573d6000803e3d6000fd5b505050506040513d601f19601f82011682018060405250810190611e1a9190613743565b1015611e385760405162461bcd60e51b81526004016106729061375c565b7f161bcca7119915b50764b4abe86529797775a5f17195100000000000000000008310611e995760405162461bcd60e51b815260206004820152600f60248201526e4c6f74206b657920746f6f2062696760881b6044820152606401610672565b6000848152600b6020908152604080832086845290915290206001015415611ef85760405162461bcd60e51b81526020600482015260126024820152714c6f7420616c72656164792065786973747360701b6044820152606401610672565b6040805160c081018252438152426020808301918252338385019081526060840187815260808501878152600060a087018181528c8252600b86528882208c835286529781208c815560018082018d90556002808301805480840182558186529885208b516006909a0201988955985191880191909155945194860180546001600160a01b0319166001600160a01b039096169590951790945591516003850155516004840155945160059092019190915592869052805491929182918291611fc391908190612e04565b50905050611ff56040518060400160405280600c81526020016b29a7a61d103637ba35b2bc9d60a11b81525086611bf8565b6120256040518060400160405280600e81526020016d29a7a61d10333930b6b2a5b2bc9d60911b81525087611bf8565b60006120318787610f7d565b90506120676040518060400160405280601281526020017129a7a61d103637ba25b2bca1b7b731b0ba1d60711b81525082611bf8565b600c805460018181019092557fdf6966c971051c3d54ec59162606531493a51404a002842f56009d7e5cf4a8c7018290556000888152600960209081526040808320868501546002909101805495860181558452919092209092019190915560075490516323b872dd60e01b81526001600160a01b03909116906323b872dd906120f990339030908990600401613793565b6020604051808303816000875af1158015612118573d6000803e3d6000fd5b505050506040513d601f19601f8201168201806040525081019061213c91906133b4565b5050505050505050565b6000838152600b602090815260408083208584529091528120600201805461219d918691612176906001906131d2565b8154811061218657612186613193565b90600052602060002090600602016003015461183a565b905060006121ab858461183a565b9050808211156123495760006121c182846131d2565b6007546000888152600b602090815260408083208a8452909152902060020180549293506001600160a01b039091169163a9059cbb9190612204906001906131d2565b8154811061221457612214613193565b600091825260209091206006909102016002015460405160e083901b6001600160e01b03191681526001600160a01b039091166004820152602481018490526044016020604051808303816000875af1158015612275573d6000803e3d6000fd5b505050506040513d601f19601f8201168201806040525081019061229991906133b4565b506000868152600b602090815260408083208884528252808320815160c0810183524381524281850190815233938201938452606082018a81526080830187815260a084019889526002948501805460018082018355918a529790982093516006909702909301958655905195850195909555915190830180546001600160a01b0319166001600160a01b039092169190911790559151600382015590516004820155905160059091015561250c565b600061235583836131d2565b600754604051636eb1769f60e11b815233600482015230602482015291925082916001600160a01b039091169063dd62ed3e90604401602060405180830381865afa1580156123a8573d6000803e3d6000fd5b505050506040513d601f19601f820116820180604052508101906123cc9190613743565b10156123ea5760405162461bcd60e51b81526004016106729061375c565b6007546040516323b872dd60e01b81526001600160a01b03909116906323b872dd9061241e90339030908690600401613793565b6020604051808303816000875af115801561243d573d6000803e3d6000fd5b505050506040513d601f19601f8201168201806040525081019061246191906133b4565b506000868152600b602090815260408083208884528252808320815160c0810183524381524281850190815233938201938452606082018a81526080830197885260a083018781526002948501805460018082018355918a529790982093516006909702909301958655905195850195909555915190830180546001600160a01b0319166001600160a01b039092169190911790559151600382015591516004830155516005909101555b5050505050565b6000838152600b602090815260408083208584529091528120600201805461253d906001906131d2565b8154811061254d5761254d613193565b600091825260208220600260069092020101546001600160a01b03169150612575858461183a565b9050600081116125975760405162461bcd60e51b8152600401610672906136e6565b6000858152600b60209081526040808320878452909152812060020180546125c1906001906131d2565b815481106125d1576125d1613193565b906000526020600020906006020160030154905080826125f191906131bf565b600754604051636eb1769f60e11b81523360048201523060248201526001600160a01b039091169063dd62ed3e90604401602060405180830381865afa15801561263f573d6000803e3d6000fd5b505050506040513d601f19601f820116820180604052508101906126639190613743565b10156126815760405162461bcd60e51b81526004016106729061375c565b6007546040516323b872dd60e01b81526001600160a01b03909116906323b872dd906126b590339030908790600401613793565b6020604051808303816000875af11580156126d4573d6000803e3d6000fd5b505050506040513d601f19601f820116820180604052508101906126f891906133b4565b506007546040516323b872dd60e01b81526001600160a01b03909116906323b872dd9061272d90339087908690600401613793565b6020604051808303816000875af115801561274c573d6000803e3d6000fd5b505050506040513d601f19601f8201168201806040525081019061277091906133b4565b506000868152600b60209081526040808320888452909152812060020180546127a1918991612176906001906131d2565b60075460405163a9059cbb60e01b81526001600160a01b0387811660048301526024820184905292935091169063a9059cbb906044016020604051808303816000875af11580156127f6573d6000803e3d6000fd5b505050506040513d601f19601f8201168201806040525081019061281a91906133b4565b50600b600088815260200190815260200160002060008781526020019081526020016000206002016040518060c00160405280438152602001428152602001866001600160a01b0316815260200184815260200160008152602001838152509080600181540180825580915050600190039060005260206000209060060201600090919091909150600082015181600001556020820151816001015560408201518160020160006101000a8154816001600160a01b0302191690836001600160a01b03160217905550606082015181600301556080820151816004015560a082015181600501555050600b600088815260200190815260200160002060008781526020019081526020016000206002016040518060c00160405280438152602001428152602001336001600160a01b0316815260200187815260200185815260200160008152509080600181540180825580915050600190039060005260206000209060060201600090919091909150600082015181600001556020820151816001015560408201518160020160006101000a8154816001600160a01b0302191690836001600160a01b03160217905550606082015181600301556080820151816004015560a08201518160050155505050505050505050565b600081620d89e8811115612a2e5760405162461bcd60e51b81526020600482015260016024820152601560fa1b6044820152606401610672565b600081600116600003612a4557600160801b612a57565b6ffffcb933bd6fad37aa2d162d1a5940015b70ffffffffffffffffffffffffffffffffff1690506002821615612a96576080612a91826ffff97272373d413259a46990580e213a613388565b901c90505b6004821615612ac0576080612abb826ffff2e50f5f656932ef12357cf3c7fdcc613388565b901c90505b6008821615612aea576080612ae5826fffe5caca7e10e4e61c3624eaa0941cd0613388565b901c90505b6010821615612b14576080612b0f826fffcb9843d60f6159c9db58835c926644613388565b901c90505b6020821615612b3e576080612b39826fff973b41fa98c081472e6896dfb254c0613388565b901c90505b6040821615612b68576080612b63826fff2ea16466c96a3843ec78b326b52861613388565b901c90505b6080821615612b92576080612b8d826ffe5dee046a99a2a811c461f1969c3053613388565b901c90505b610100821615612bbd576080612bb8826ffcbe86c7900a88aedcffc83b479aa3a4613388565b901c90505b610200821615612be8576080612be3826ff987a7253ac413176f2b074cf7815e54613388565b901c90505b610400821615612c13576080612c0e826ff3392b0822b70005940c7a398e4b70f3613388565b901c90505b610800821615612c3e576080612c39826fe7159475a2c29b7443b29c7fa6e889d9613388565b901c90505b611000821615612c69576080612c64826fd097f3bdfd2022b8845ad8f792aa5825613388565b901c90505b612000821615612c94576080612c8f826fa9f746462d870fdf8a65dc1f90e061e5613388565b901c90505b614000821615612cbf576080612cba826f70d869a156d2a1b890bb3df62baf32f7613388565b901c90505b618000821615612cea576080612ce5826f31be135f97d08fd981231505542fcfa6613388565b901c90505b62010000821615612d16576080612d11826f09aa508b5b7a84e1c677de54f3e99bc9613388565b901c90505b62020000821615612d41576080612d3c826e5d6af8dedb81196699c329225ee604613388565b901c90505b62040000821615612d6b576080612d66826d2216e584f5fa1ea926041bedfe98613388565b901c90505b62080000821615612d93576080612d8e826b048a170391f7dc42444e8fa2613388565b901c90505b8315612da857612da581600019613374565b90505b612db7640100000000826132b2565b15612dc3576001612dc6565b60005b61164b9060ff16602083901c6131bf565b612de081612de3565b50565b60006a636f6e736f6c652e6c6f679050600080835160208501845afa505050565b828054828255906000526020600020906006028101928215612e985760005260206000209160060282015b82811115612e9857825482556001808401549083015560028084015490830180546001600160a01b0319166001600160a01b0390921691909117905560038084015490830155600480840154908301556005808401549083015560069283019290910190612e2f565b50612ea4929150612ea8565b5090565b5b80821115612ea4576000808255600182018190556002820180546001600160a01b031916905560038201819055600482018190556005820155600601612ea9565b600060208284031215612efc57600080fd5b5035919050565b6020808252825182820181905260009190848201906040850190845b81811015612f3b57835183529284019291840191600101612f1f565b50909695505050505050565b60008060408385031215612f5a57600080fd5b50508035926020909101359150565b634e487b7160e01b600052602160045260246000fd5b6020810160048310612f9357612f93612f69565b91905290565b600080600060608486031215612fae57600080fd5b505081359360208301359350604090920135919050565b80518252602080820151908301526040808201516001600160a01b031690830152606080820151908301526080808201519083015260a0908101519082015260c00190565b6000602080835260808301845182850152818501516040850152604085015160608086015281815180845260a0870191508483019350600092505b8083101561306a57613058828551612fc5565b91508484019350600183019250613045565b509695505050505050565b600060208083526101008301845182850152818501516040850152604085015160e06060860152818151808452610120870191508483019350600092505b808310156130d357835182529284019260019290920191908401906130b3565b5060608701516001600160a01b03811660808801529350608087015160a087015260a087015160c087015260c087015160e08701528094505050505092915050565b6020810160058310612f9357612f93612f69565b6020808252825182820181905260009190848201906040850190845b81811015612f3b57613158838551612fc5565b938501939250600101613145565b602080825260139082015272119c985b5948191bd95cdb89dd08195e1a5cdd606a1b604082015260600190565b634e487b7160e01b600052603260045260246000fd5b634e487b7160e01b600052601160045260246000fd5b80820180821115610b5c57610b5c6131a9565b81810381811115610b5c57610b5c6131a9565b6000600182016131f7576131f76131a9565b5060010190565b6020808252825482820152600180840154604084015260e06060840152600284018054610100850181905260009182528382209193929084906101208701905b8083101561325b578454825293830193918301919085019061323e565b5060038801546001600160a01b03166080880152600488015460a0880152600588015460c088015260069097015460e0909601959095525093949350505050565b634e487b7160e01b600052601260045260246000fd5b6000826132c1576132c161329c565b500690565b6000602080835260808084018554838601526001808701546040818189015260029150818901606080818b015285825480885260a09750878c0191508360005289600020935060005b818110156133625784548352878501548b840152868501546001600160a01b03168684015260038501548484015260048501548a84015260058501548984015260069094019360c090920191870161330f565b50909c9b505050505050505050505050565b6000826133835761338361329c565b500490565b8082028115828204841417610b5c57610b5c6131a9565b805180151581146133af57600080fd5b919050565b6000602082840312156133c657600080fd5b6133cf8261339f565b9392505050565b80516001600160a01b03811681146133af57600080fd5b805161ffff811681146133af57600080fd5b600080600080600080600060e0888a03121561341a57600080fd5b613423886133d6565b965060208801518060020b811461343957600080fd5b9550613447604089016133ed565b9450613455606089016133ed565b9350613463608089016133ed565b925060a088015160ff8116811461347957600080fd5b915061348760c0890161339f565b905092959891949750929550565b634e487b7160e01b600052604160045260246000fd5b6020808252825182820181905260009190848201906040850190845b81811015612f3b57835163ffffffff16835292840192918401916001016134c7565b604051601f8201601f1916810167ffffffffffffffff8111828210171561351257613512613495565b604052919050565b600067ffffffffffffffff82111561353457613534613495565b5060051b60200190565b600082601f83011261354f57600080fd5b8151602061356461355f8361351a565b6134e9565b82815260059290921b8401810191818101908684111561358357600080fd5b8286015b8481101561306a57613598816133d6565b8352918301918301613587565b600080604083850312156135b857600080fd5b825167ffffffffffffffff808211156135d057600080fd5b818501915085601f8301126135e457600080fd5b815160206135f461355f8361351a565b82815260059290921b8401810191818101908984111561361357600080fd5b948201945b838610156136415785518060060b81146136325760008081fd5b82529482019490820190613618565b9188015191965090935050508082111561365a57600080fd5b506136678582860161353e565b9150509250929050565b81810360008312801583831316838312821617156108f1576108f16131a9565b604081526000835180604084015260005b818110156136bf57602081870181015160608684010152016136a2565b506000606082850101526060601f19601f8301168401019150508260208301529392505050565b6020808252603c908201527f5461782068617320746f2062652067726561746572207468616e20302e20496e60408201527f63726561736520746865206163717569736974696f6e20707269636500000000606082015260800190565b60006020828403121561375557600080fd5b5051919050565b6020808252601e908201527f416c6c6f77616e636520746f207370656e642073657420746f6f206c6f770000604082015260600190565b6001600160a01b03938416815291909216602082015260408101919091526060019056fea2646970667358221220a53957bc96284b0eb6a396efd839a23703874b2e40ac5ba33e802a9ea501509464736f6c63430008140033",
  "linkReferences": {},
  "deployedLinkReferences": {}
}