{
  "_format": "hh-sol-artifact-1",
  "contractName": "Market",
  "sourceName": "contracts/Market.sol",
  "abi": [
    {
      "inputs": [],
      "stateMutability": "nonpayable",
      "type": "constructor"
    },
    {
      "anonymous": false,
      "inputs": [
        {
          "components": [
            {
              "internalType": "uint256",
              "name": "frameKey",
              "type": "uint256"
            },
            {
              "internalType": "uint256",
              "name": "rate",
              "type": "uint256"
            },
            {
              "internalType": "uint256[]",
              "name": "lotKeys",
              "type": "uint256[]"
            },
            {
              "internalType": "address",
              "name": "claimedBy",
              "type": "address"
            },
            {
              "internalType": "uint256",
              "name": "rateSettle",
              "type": "uint256"
            },
            {
              "internalType": "uint256",
              "name": "feeSettle",
              "type": "uint256"
            },
            {
              "internalType": "uint256",
              "name": "rewardSettle",
              "type": "uint256"
            },
            {
              "internalType": "uint256",
              "name": "feeReferral",
              "type": "uint256"
            }
          ],
          "indexed": false,
          "internalType": "struct Market.Frame",
          "name": "frame",
          "type": "tuple"
        }
      ],
      "name": "FrameUpdate",
      "type": "event"
    },
    {
      "anonymous": false,
      "inputs": [
        {
          "components": [
            {
              "internalType": "uint256",
              "name": "frameKey",
              "type": "uint256"
            },
            {
              "internalType": "uint256",
              "name": "lotKey",
              "type": "uint256"
            },
            {
              "components": [
                {
                  "internalType": "uint256",
                  "name": "blockNumber",
                  "type": "uint256"
                },
                {
                  "internalType": "uint256",
                  "name": "blockTimestamp",
                  "type": "uint256"
                },
                {
                  "internalType": "address",
                  "name": "owner",
                  "type": "address"
                },
                {
                  "internalType": "uint256",
                  "name": "acquisitionPrice",
                  "type": "uint256"
                },
                {
                  "internalType": "uint256",
                  "name": "taxCharged",
                  "type": "uint256"
                },
                {
                  "internalType": "uint256",
                  "name": "taxRefunded",
                  "type": "uint256"
                }
              ],
              "internalType": "struct Market.LotState[]",
              "name": "states",
              "type": "tuple[]"
            }
          ],
          "indexed": false,
          "internalType": "struct Market.Lot",
          "name": "lot",
          "type": "tuple"
        }
      ],
      "name": "LotUpdate",
      "type": "event"
    },
    {
      "inputs": [],
      "name": "accountingToken",
      "outputs": [
        {
          "internalType": "contract IERC20",
          "name": "",
          "type": "address"
        }
      ],
      "stateMutability": "view",
      "type": "function"
    },
    {
      "inputs": [],
      "name": "claimReferralRewards",
      "outputs": [],
      "stateMutability": "nonpayable",
      "type": "function"
    },
    {
      "inputs": [
        {
          "internalType": "uint256",
          "name": "timestamp",
          "type": "uint256"
        }
      ],
      "name": "clcFrameKey",
      "outputs": [
        {
          "internalType": "uint256",
          "name": "",
          "type": "uint256"
        }
      ],
      "stateMutability": "view",
      "type": "function"
    },
    {
      "inputs": [
        {
          "internalType": "uint256",
          "name": "value",
          "type": "uint256"
        }
      ],
      "name": "clcLotKey",
      "outputs": [
        {
          "internalType": "uint256",
          "name": "",
          "type": "uint256"
        }
      ],
      "stateMutability": "view",
      "type": "function"
    },
    {
      "inputs": [],
      "name": "clcRate",
      "outputs": [
        {
          "internalType": "uint256",
          "name": "",
          "type": "uint256"
        }
      ],
      "stateMutability": "view",
      "type": "function"
    },
    {
      "inputs": [
        {
          "internalType": "uint256",
          "name": "timestamp",
          "type": "uint256"
        }
      ],
      "name": "clcRateAvg",
      "outputs": [
        {
          "internalType": "uint256",
          "name": "",
          "type": "uint256"
        }
      ],
      "stateMutability": "view",
      "type": "function"
    },
    {
      "inputs": [
        {
          "internalType": "uint256",
          "name": "frameKey",
          "type": "uint256"
        }
      ],
      "name": "clcRewardFund",
      "outputs": [
        {
          "internalType": "uint256",
          "name": "",
          "type": "uint256"
        }
      ],
      "stateMutability": "view",
      "type": "function"
    },
    {
      "inputs": [
        {
          "internalType": "uint256",
          "name": "frameKey",
          "type": "uint256"
        },
        {
          "internalType": "uint256",
          "name": "acquisitionPrice",
          "type": "uint256"
        }
      ],
      "name": "clcTax",
      "outputs": [
        {
          "internalType": "uint256",
          "name": "",
          "type": "uint256"
        }
      ],
      "stateMutability": "view",
      "type": "function"
    },
    {
      "inputs": [],
      "name": "clcUnClaimableFunds",
      "outputs": [
        {
          "internalType": "uint256",
          "name": "",
          "type": "uint256"
        }
      ],
      "stateMutability": "view",
      "type": "function"
    },
    {
      "inputs": [],
      "name": "dPrice",
      "outputs": [
        {
          "internalType": "uint256",
          "name": "",
          "type": "uint256"
        }
      ],
      "stateMutability": "view",
      "type": "function"
    },
    {
      "inputs": [],
      "name": "feeProtocol",
      "outputs": [
        {
          "internalType": "uint256",
          "name": "",
          "type": "uint256"
        }
      ],
      "stateMutability": "view",
      "type": "function"
    },
    {
      "inputs": [
        {
          "internalType": "uint256",
          "name": "",
          "type": "uint256"
        }
      ],
      "name": "frames",
      "outputs": [
        {
          "internalType": "uint256",
          "name": "frameKey",
          "type": "uint256"
        },
        {
          "internalType": "uint256",
          "name": "rate",
          "type": "uint256"
        },
        {
          "internalType": "address",
          "name": "claimedBy",
          "type": "address"
        },
        {
          "internalType": "uint256",
          "name": "rateSettle",
          "type": "uint256"
        },
        {
          "internalType": "uint256",
          "name": "feeSettle",
          "type": "uint256"
        },
        {
          "internalType": "uint256",
          "name": "rewardSettle",
          "type": "uint256"
        },
        {
          "internalType": "uint256",
          "name": "feeReferral",
          "type": "uint256"
        }
      ],
      "stateMutability": "view",
      "type": "function"
    },
    {
      "inputs": [
        {
          "internalType": "uint256",
          "name": "",
          "type": "uint256"
        }
      ],
      "name": "framesKeys",
      "outputs": [
        {
          "internalType": "uint256",
          "name": "",
          "type": "uint256"
        }
      ],
      "stateMutability": "view",
      "type": "function"
    },
    {
      "inputs": [
        {
          "internalType": "uint256",
          "name": "frameKey",
          "type": "uint256"
        }
      ],
      "name": "getFrame",
      "outputs": [
        {
          "components": [
            {
              "internalType": "uint256",
              "name": "frameKey",
              "type": "uint256"
            },
            {
              "internalType": "uint256",
              "name": "rate",
              "type": "uint256"
            },
            {
              "internalType": "uint256[]",
              "name": "lotKeys",
              "type": "uint256[]"
            },
            {
              "internalType": "address",
              "name": "claimedBy",
              "type": "address"
            },
            {
              "internalType": "uint256",
              "name": "rateSettle",
              "type": "uint256"
            },
            {
              "internalType": "uint256",
              "name": "feeSettle",
              "type": "uint256"
            },
            {
              "internalType": "uint256",
              "name": "rewardSettle",
              "type": "uint256"
            },
            {
              "internalType": "uint256",
              "name": "feeReferral",
              "type": "uint256"
            }
          ],
          "internalType": "struct Market.Frame",
          "name": "",
          "type": "tuple"
        }
      ],
      "stateMutability": "view",
      "type": "function"
    },
    {
      "inputs": [
        {
          "internalType": "uint256",
          "name": "frameKey",
          "type": "uint256"
        }
      ],
      "name": "getFrameLotKeys",
      "outputs": [
        {
          "internalType": "uint256[]",
          "name": "",
          "type": "uint256[]"
        }
      ],
      "stateMutability": "view",
      "type": "function"
    },
    {
      "inputs": [
        {
          "internalType": "uint256",
          "name": "frameKey",
          "type": "uint256"
        },
        {
          "internalType": "uint256",
          "name": "lotKey",
          "type": "uint256"
        }
      ],
      "name": "getLot",
      "outputs": [
        {
          "components": [
            {
              "internalType": "uint256",
              "name": "frameKey",
              "type": "uint256"
            },
            {
              "internalType": "uint256",
              "name": "lotKey",
              "type": "uint256"
            },
            {
              "components": [
                {
                  "internalType": "uint256",
                  "name": "blockNumber",
                  "type": "uint256"
                },
                {
                  "internalType": "uint256",
                  "name": "blockTimestamp",
                  "type": "uint256"
                },
                {
                  "internalType": "address",
                  "name": "owner",
                  "type": "address"
                },
                {
                  "internalType": "uint256",
                  "name": "acquisitionPrice",
                  "type": "uint256"
                },
                {
                  "internalType": "uint256",
                  "name": "taxCharged",
                  "type": "uint256"
                },
                {
                  "internalType": "uint256",
                  "name": "taxRefunded",
                  "type": "uint256"
                }
              ],
              "internalType": "struct Market.LotState[]",
              "name": "states",
              "type": "tuple[]"
            }
          ],
          "internalType": "struct Market.Lot",
          "name": "",
          "type": "tuple"
        }
      ],
      "stateMutability": "view",
      "type": "function"
    },
    {
      "inputs": [
        {
          "internalType": "uint256",
          "name": "frameKey",
          "type": "uint256"
        },
        {
          "internalType": "uint256",
          "name": "lotKey",
          "type": "uint256"
        }
      ],
      "name": "getLotStates",
      "outputs": [
        {
          "components": [
            {
              "internalType": "uint256",
              "name": "blockNumber",
              "type": "uint256"
            },
            {
              "internalType": "uint256",
              "name": "blockTimestamp",
              "type": "uint256"
            },
            {
              "internalType": "address",
              "name": "owner",
              "type": "address"
            },
            {
              "internalType": "uint256",
              "name": "acquisitionPrice",
              "type": "uint256"
            },
            {
              "internalType": "uint256",
              "name": "taxCharged",
              "type": "uint256"
            },
            {
              "internalType": "uint256",
              "name": "taxRefunded",
              "type": "uint256"
            }
          ],
          "internalType": "struct Market.LotState[]",
          "name": "",
          "type": "tuple[]"
        }
      ],
      "stateMutability": "view",
      "type": "function"
    },
    {
      "inputs": [
        {
          "internalType": "uint256",
          "name": "frameKey",
          "type": "uint256"
        }
      ],
      "name": "getLotsKeysInFrame",
      "outputs": [
        {
          "internalType": "uint256[]",
          "name": "",
          "type": "uint256[]"
        }
      ],
      "stateMutability": "view",
      "type": "function"
    },
    {
      "inputs": [
        {
          "internalType": "uint256",
          "name": "frameKey",
          "type": "uint256"
        }
      ],
      "name": "getStateFrame",
      "outputs": [
        {
          "internalType": "enum Market.SFrame",
          "name": "",
          "type": "uint8"
        }
      ],
      "stateMutability": "view",
      "type": "function"
    },
    {
      "inputs": [
        {
          "internalType": "uint256",
          "name": "frameKey",
          "type": "uint256"
        },
        {
          "internalType": "uint256",
          "name": "lotKey",
          "type": "uint256"
        }
      ],
      "name": "getStateLot",
      "outputs": [
        {
          "internalType": "enum Market.SLot",
          "name": "",
          "type": "uint8"
        }
      ],
      "stateMutability": "view",
      "type": "function"
    },
    {
      "inputs": [],
      "name": "getUncollectedRewards",
      "outputs": [
        {
          "internalType": "uint256",
          "name": "",
          "type": "uint256"
        }
      ],
      "stateMutability": "view",
      "type": "function"
    },
    {
      "inputs": [
        {
          "internalType": "address",
          "name": "user",
          "type": "address"
        },
        {
          "internalType": "uint256",
          "name": "frameKey",
          "type": "uint256"
        }
      ],
      "name": "getUserReward",
      "outputs": [
        {
          "internalType": "uint256",
          "name": "",
          "type": "uint256"
        }
      ],
      "stateMutability": "view",
      "type": "function"
    },
    {
      "inputs": [],
      "name": "initTimestamp",
      "outputs": [
        {
          "internalType": "uint256",
          "name": "",
          "type": "uint256"
        }
      ],
      "stateMutability": "view",
      "type": "function"
    },
    {
      "inputs": [
        {
          "internalType": "uint256",
          "name": "",
          "type": "uint256"
        },
        {
          "internalType": "uint256",
          "name": "",
          "type": "uint256"
        }
      ],
      "name": "lots",
      "outputs": [
        {
          "internalType": "uint256",
          "name": "frameKey",
          "type": "uint256"
        },
        {
          "internalType": "uint256",
          "name": "lotKey",
          "type": "uint256"
        }
      ],
      "stateMutability": "view",
      "type": "function"
    },
    {
      "inputs": [
        {
          "components": [
            {
              "internalType": "uint256",
              "name": "frameKey",
              "type": "uint256"
            },
            {
              "internalType": "uint256",
              "name": "rate",
              "type": "uint256"
            },
            {
              "internalType": "uint256[]",
              "name": "lotKeys",
              "type": "uint256[]"
            },
            {
              "internalType": "address",
              "name": "claimedBy",
              "type": "address"
            },
            {
              "internalType": "uint256",
              "name": "rateSettle",
              "type": "uint256"
            },
            {
              "internalType": "uint256",
              "name": "feeSettle",
              "type": "uint256"
            },
            {
              "internalType": "uint256",
              "name": "rewardSettle",
              "type": "uint256"
            },
            {
              "internalType": "uint256",
              "name": "feeReferral",
              "type": "uint256"
            }
          ],
          "internalType": "struct Market.Frame",
          "name": "frame",
          "type": "tuple"
        },
        {
          "internalType": "uint256",
          "name": "avgPrice",
          "type": "uint256"
        }
      ],
      "name": "overrideFrameRate",
      "outputs": [],
      "stateMutability": "nonpayable",
      "type": "function"
    },
    {
      "inputs": [],
      "name": "owner",
      "outputs": [
        {
          "internalType": "address",
          "name": "",
          "type": "address"
        }
      ],
      "stateMutability": "view",
      "type": "function"
    },
    {
      "inputs": [],
      "name": "period",
      "outputs": [
        {
          "internalType": "uint256",
          "name": "",
          "type": "uint256"
        }
      ],
      "stateMutability": "view",
      "type": "function"
    },
    {
      "inputs": [],
      "name": "referralPct",
      "outputs": [
        {
          "internalType": "uint256",
          "name": "",
          "type": "uint256"
        }
      ],
      "stateMutability": "view",
      "type": "function"
    },
    {
      "inputs": [
        {
          "internalType": "address",
          "name": "user",
          "type": "address"
        }
      ],
      "name": "referredBy",
      "outputs": [
        {
          "internalType": "address",
          "name": "",
          "type": "address"
        }
      ],
      "stateMutability": "view",
      "type": "function"
    },
    {
      "inputs": [
        {
          "internalType": "uint256",
          "name": "frameKey",
          "type": "uint256"
        }
      ],
      "name": "setFrameRate",
      "outputs": [],
      "stateMutability": "nonpayable",
      "type": "function"
    },
    {
      "inputs": [
        {
          "internalType": "uint256",
          "name": "frameKey",
          "type": "uint256"
        }
      ],
      "name": "settleFrame",
      "outputs": [
        {
          "internalType": "uint256",
          "name": "",
          "type": "uint256"
        }
      ],
      "stateMutability": "nonpayable",
      "type": "function"
    },
    {
      "inputs": [],
      "name": "tSettle",
      "outputs": [
        {
          "internalType": "uint256",
          "name": "",
          "type": "uint256"
        }
      ],
      "stateMutability": "view",
      "type": "function"
    },
    {
      "inputs": [],
      "name": "taxMarket",
      "outputs": [
        {
          "internalType": "uint256",
          "name": "",
          "type": "uint256"
        }
      ],
      "stateMutability": "view",
      "type": "function"
    },
    {
      "inputs": [
        {
          "internalType": "uint256",
          "name": "timestamp",
          "type": "uint256"
        },
        {
          "internalType": "uint256",
          "name": "rate",
          "type": "uint256"
        },
        {
          "internalType": "uint256",
          "name": "acquisitionPrice",
          "type": "uint256"
        }
      ],
      "name": "tradeLot",
      "outputs": [],
      "stateMutability": "nonpayable",
      "type": "function"
    },
    {
      "inputs": [
        {
          "internalType": "uint256",
          "name": "timestamp",
          "type": "uint256"
        },
        {
          "internalType": "uint256",
          "name": "rate",
          "type": "uint256"
        },
        {
          "internalType": "uint256",
          "name": "acquisitionPrice",
          "type": "uint256"
        },
        {
          "internalType": "address",
          "name": "referrer",
          "type": "address"
        }
      ],
      "name": "tradeLotReferral",
      "outputs": [],
      "stateMutability": "nonpayable",
      "type": "function"
    },
    {
      "inputs": [],
      "name": "uniswapPool",
      "outputs": [
        {
          "internalType": "contract IUniswapV3Pool",
          "name": "",
          "type": "address"
        }
      ],
      "stateMutability": "view",
      "type": "function"
    },
    {
      "inputs": [
        {
          "internalType": "address",
          "name": "user",
          "type": "address"
        }
      ],
      "name": "userExists",
      "outputs": [
        {
          "internalType": "bool",
          "name": "",
          "type": "bool"
        }
      ],
      "stateMutability": "view",
      "type": "function"
    },
    {
      "inputs": [
        {
          "internalType": "address",
          "name": "",
          "type": "address"
        }
      ],
      "name": "users",
      "outputs": [
        {
          "internalType": "bool",
          "name": "exists",
          "type": "bool"
        },
        {
          "internalType": "address",
          "name": "referredBy",
          "type": "address"
        }
      ],
      "stateMutability": "view",
      "type": "function"
    },
    {
      "inputs": [
        {
          "internalType": "uint256",
          "name": "amount",
          "type": "uint256"
        }
      ],
      "name": "withdrawAccountingToken",
      "outputs": [],
      "stateMutability": "nonpayable",
      "type": "function"
    }
  ],
  "bytecode": "0x608060405262015180600055636592e180600155666a94d74f430000600255610258600355600480546001600160a01b03199081167367a9fe12fa6082d9d0203c84c6c56d3c4b269f281790915568056bc75e2d63100000600555662386f26fc1000060065560078054909116738f3cf7ad23cd3cadbd9735aff958023239c6a0631790556611c37937e0800060095534801561009b57600080fd5b50600880546001600160a01b0319163317905561555780620000be6000396000f3fe608060405234801561001057600080fd5b506004361061023d5760003560e01c80638a5779c81161013b578063b93dafa9116100b8578063da68cf8b1161007c578063da68cf8b146105fa578063e107fb4f1461060d578063ef78d4fd14610620578063fb0d5e0914610629578063ffdabe2d1461064957600080fd5b8063b93dafa914610565578063ba4e137f146105ac578063bad12653146105b4578063bdd3d825146105d4578063d18743dd146105e757600080fd5b8063a10340bc116100ff578063a10340bc1461042f578063a87430ba146104c7578063a90f8e9a14610519578063a9a578ee1461054a578063b866debb1461055257600080fd5b80638a5779c8146103cc5780638da5cb5b146103d557806391a0846d146104005780639592de18146104135780639e9c4f081461042657600080fd5b8063499a0fc4116101c957806369ca9e051161018d57806369ca9e05146103675780636f1aefc31461037a5780637358c57a1461039a578063773d51eb146103a35780637e996639146103c357600080fd5b8063499a0fc41461030f5780634c73884f14610318578063527eb4bc1461033857806361eee2cb1461034157806364772f211461035457600080fd5b8063112358181161021057806311235818146102ce5780632457e6201461027257806339a6a489146102d65780633baf1587146102e957806346d99574146102fc57600080fd5b8063050e88401461024257806305eaab4b146102685780630d0a1c1a146102725780630e666e4914610292575b600080fd5b610255610250366004614a3b565b61065c565b6040519081526020015b60405180910390f35b61027061067d565b005b610285610280366004614a3b565b6109d7565b60405161025f9190614a54565b6102be6102a0366004614abd565b6001600160a01b03166000908152600c602052604090205460ff1690565b604051901515815260200161025f565b610255610a3c565b6102556102e4366004614a3b565b610c58565b6102706102f7366004614a3b565b610e25565b61027061030a366004614ae1565b610eef565b61025560055481565b61032b610326366004614b22565b61102e565b60405161025f9190614b5a565b61025560025481565b61025561034f366004614a3b565b61115b565b610270610362366004614b74565b611192565b610270610375366004614ca0565b6112cd565b61038d610388366004614b22565b6113c9565b60405161025f9190614ddf565b61025560015481565b6103b66103b1366004614a3b565b611520565b60405161025f9190614e0e565b61025560065481565b61025560035481565b6008546103e8906001600160a01b031681565b6040516001600160a01b03909116815260200161025f565b61025561040e366004614eba565b61165c565b610255610421366004614a3b565b6116c1565b61025560095481565b61048461043d366004614a3b565b600a602052600090815260409020805460018201546003830154600484015460058501546006860154600790960154949593946001600160a01b0390931693919290919087565b6040805197885260208801969096526001600160a01b03909416948601949094526060850191909152608084015260a083019190915260c082015260e00161025f565b6104fa6104d5366004614abd565b600c6020526000908152604090205460ff81169061010090046001600160a01b031682565b6040805192151583526001600160a01b0390911660208301520161025f565b6103e8610527366004614abd565b6001600160a01b039081166000908152600c602052604090205461010090041690565b6102556116ec565b610255610560366004614a3b565b611952565b610597610573366004614b22565b600d6020908152600092835260408084209091529082529020805460019091015482565b6040805192835260208301919091520161025f565b610255611e03565b6105c76105c2366004614a3b565b611ed2565b60405161025f9190614ee6565b6004546103e8906001600160a01b031681565b6102706105f5366004614a3b565b611f69565b6007546103e8906001600160a01b031681565b61025561061b366004614b22565b612051565b61025560005481565b61063c610637366004614b22565b612113565b60405161025f9190614efa565b610255610657366004614a3b565b6121c9565b600b818154811061066c57600080fd5b600091825260209091200154905081565b336000908152600c602052604090205460ff166106b55760405162461bcd60e51b81526004016106ac90614f0d565b60405180910390fd5b600b5460009067ffffffffffffffff8111156106d3576106d3614ba0565b6040519080825280602002602001820160405280156106fc578160200160208202803683370190505b5090506000805b600b548110156107a6576004610735600b838154811061072557610725614f3a565b9060005260206000200154611ed2565b600481111561074657610746614b44565b0361079457600b818154811061075e5761075e614f3a565b906000526020600020015483838151811061077b5761077b614f3a565b60209081029190910101528161079081614f66565b9250505b8061079e81614f66565b915050610703565b50600081116107eb5760405162461bcd60e51b81526020600482015260116024820152704e6f20736574746c6564206672616d657360781b60448201526064016106ac565b6000805b8281101561091557336000908152600c6020526040812085516002909101919086908490811061082157610821614f3a565b602090810291909101810151825281019190915260400160009081205460ff161515900361090357336000908152600c6020526040812085516001909101919086908490811061087357610873614f3a565b6020026020010151815260200190815260200160002054826108959190614f7f565b91506001600c6000336001600160a01b03166001600160a01b0316815260200190815260200160002060020160008684815181106108d5576108d5614f3a565b6020026020010151815260200190815260200160002060006101000a81548160ff0219169083151502179055505b8061090d81614f66565b9150506107ef565b506000811161095c5760405162461bcd60e51b81526020600482015260136024820152724e6f207265776172647320746f20636c61696d60681b60448201526064016106ac565b60075460405163a9059cbb60e01b8152336004820152602481018390526001600160a01b039091169063a9059cbb906044016020604051808303816000875af11580156109ad573d6000803e3d6000fd5b505050506040513d601f19601f820116820180604052508101906109d19190614fa2565b50505050565b6000818152600a6020908152604091829020600201805483518184028101840190945280845260609392830182828015610a3057602002820191906000526020600020905b815481526020019060010190808311610a1c575b50505050509050919050565b336000908152600c602052604081205460ff16610a6b5760405162461bcd60e51b81526004016106ac90614f0d565b600b5460009067ffffffffffffffff811115610a8957610a89614ba0565b604051908082528060200260200182016040528015610ab2578160200160208202803683370190505b5090506000805b600b54811015610b4c576004610adb600b838154811061072557610725614f3a565b6004811115610aec57610aec614b44565b03610b3a57600b8181548110610b0457610b04614f3a565b9060005260206000200154838381518110610b2157610b21614f3a565b602090810291909101015281610b3681614f66565b9250505b80610b4481614f66565b915050610ab9565b5060008111610b915760405162461bcd60e51b81526020600482015260116024820152704e6f20736574746c6564206672616d657360781b60448201526064016106ac565b6000805b82811015610c5057336000908152600c60205260408120855160029091019190869084908110610bc757610bc7614f3a565b602090810291909101810151825281019190915260400160009081205460ff1615159003610c3e57336000908152600c60205260408120855160019091019190869084908110610c1957610c19614f3a565b602002602001015181526020019081526020016000205482610c3b9190614f7f565b91505b80610c4881614f66565b915050610b95565b509392505050565b600080805b6000848152600a6020526040902060020154811015610e1e576000848152600a6020818152604080842080548552600d835290842088855292909152600201805483919085908110610cb157610cb1614f3a565b90600052602060002001548152602001908152602001600020604051806060016040529081600082015481526020016001820154815260200160028201805480602002602001604051908101604052809291908181526020016000905b82821015610d7f5760008481526020908190206040805160c08101825260068602909201805483526001808201548486015260028201546001600160a01b03169284019290925260038101546060840152600481015460808401526005015460a08301529083529092019101610d0e565b5050505081525050905060005b816040015151811015610e095781604001518181518110610daf57610daf614f3a565b60200260200101516080015184610dc69190614f7f565b935081604001518181518110610dde57610dde614f3a565b602002602001015160a0015184610df59190614fbd565b935080610e0181614f66565b915050610d8c565b50508080610e1690614f66565b915050610c5d565b5092915050565b60008054828252600a6020526040909120544291610e4291614f7f565b1115610e905760405162461bcd60e51b815260206004820152601b60248201527f4672616d652068617320746f20626520696e207468652070617374000000000060448201526064016106ac565b6000610e9b826121c9565b6000838152600a6020526040908190206001810183905590519192507f929af310c689982c60d4ec73c6e4b602e89c6f6a31da7c2df4888fb0627cb2b191610ee39190615005565b60405180910390a15050565b6000610efa8561115b565b90506000610f07856116c1565b6000838152600d6020908152604080832084845290915281206001015491925003610f5f576000828152600a60205260408120549003610f4c57610f4a8661240f565b505b610f588282868661254c565b50506109d1565b6000828152600d6020908152604080832084845290915290206002018054339190610f8c90600190614fbd565b81548110610f9c57610f9c614f3a565b60009182526020909120600260069092020101546001600160a01b031603610fca57610f5882828686612989565b610fd682828686612e35565b6000828152600d602090815260408083208484529091529081902090517f906ff162b3f2709ab28fb678d43913964434148dd206e9b17adb3c1255090cb19161101e91615077565b60405180910390a1505050505050565b6000828152600d60209081526040808320848452909152812060010154810361105957506000611155565b600061106484611ed2565b600481111561107557611075614b44565b0361108257506000611155565b600161108d84611ed2565b600481111561109e5761109e614b44565b14806110c3575060026110b084611ed2565b60048111156110c1576110c1614b44565b145b156110d057506001611155565b6000838152600d602090815260408083208584528252808320600190810154878552600a9093529220909101541080159061114457506005546000848152600d602090815260408083208684529091529020600101546111309190614f7f565b6000848152600a6020526040902060010154105b1561115157506002611155565b5060035b92915050565b6000600154821161116e57505060015490565b60005460015461117e9084614fbd565b611188919061513b565b6111559083614fbd565b600061119d8461115b565b905060006111aa846116c1565b6000838152600d6020908152604080832084845290915281206001015491925003611201576000828152600a602052604081205490036111ef576111ed8561240f565b505b6111fa82828561354b565b5050505050565b6000828152600d602090815260408083208484529091529020600201805433919061122e90600190614fbd565b8154811061123e5761123e614f3a565b60009182526020909120600260069092020101546001600160a01b03160361126b576111fa8282856138c7565b611276828285613c6b565b6000828152600d602090815260408083208484529091529081902090517f906ff162b3f2709ab28fb678d43913964434148dd206e9b17adb3c1255090cb1916112be91615077565b60405180910390a15050505050565b6008546001600160a01b031633146113375760405162461bcd60e51b815260206004820152602760248201527f4f6e6c79206f776e65722063616e20757064617465206672616d6520636c6f736044820152666520707269636560c81b60648201526084016106ac565b81516000036113585760405162461bcd60e51b81526004016106ac9061514f565b60608201516001600160a01b0316156113b35760405162461bcd60e51b815260206004820181905260248201527f4672616d65207265776172642077617320616c726561647920636c61696d656460448201526064016106ac565b90516000908152600a6020526040902060010155565b6113ed60405180606001604052806000815260200160008152602001606081525090565b6000838152600d60209081526040808320858452909152812060010154900361144c5760405162461bcd60e51b8152602060048201526011602482015270131bdd08191bd95cdb89dd08195e1a5cdd607a1b60448201526064016106ac565b6000838152600d602090815260408083208584528252808320815160608101835281548152600182015481850152600282018054845181870281018701865281815292969395948701949293919290919084015b828210156115115760008481526020908190206040805160c08101825260068602909201805483526001808201548486015260028201546001600160a01b03169284019290925260038101546060840152600481015460808401526005015460a083015290835290920191016114a0565b50505091525090949350505050565b61157160405180610100016040528060008152602001600081526020016060815260200160006001600160a01b03168152602001600081526020016000815260200160008152602001600081525090565b6000828152600a6020526040812054900361159e5760405162461bcd60e51b81526004016106ac9061514f565b6000828152600a6020908152604091829020825161010081018452815481526001820154818401526002820180548551818602810186018752818152929593949386019383018282801561161157602002820191906000526020600020905b8154815260200190600101908083116115fd575b505050918352505060038201546001600160a01b0316602082015260048201546040820152600582015460608201526006820154608082015260079091015460a09091015292915050565b6001600160a01b0382166000908152600c602052604081205460ff166116945760405162461bcd60e51b81526004016106ac90614f0d565b506001600160a01b03919091166000908152600c6020908152604080832093835260019093019052205490565b60006005548210156116d557505060055490565b6005546116e2818461517c565b6111559190615190565b600080805b600b5481101561194c576000600a6000600b848154811061171457611714614f3a565b906000526020600020015481526020019081526020016000206040518061010001604052908160008201548152602001600182015481526020016002820180548060200260200160405190810160405280929190818152602001828054801561179c57602002820191906000526020600020905b815481526020019060010190808311611788575b50505091835250506003828101546001600160a01b0316602083015260048301546040830152600583015460608301526006830154608083015260079092015460a09091015290915081516117f090611ed2565b600481111561180157611801614b44565b036119395780516000908152600d602090815260408220908301518290611827906116c1565b8152602001908152602001600020604051806060016040529081600082015481526020016001820154815260200160028201805480602002602001604051908101604052809291908181526020016000905b828210156118ea5760008481526020908190206040805160c08101825260068602909201805483526001808201548486015260028201546001600160a01b03169284019290925260038101546060840152600481015460808401526005015460a08301529083529092019101611879565b505050915250909150600290506119098360000151836020015161102e565b600381111561191a5761191a614b44565b1461193757815161192a90610c58565b6119349085614f7f565b93505b505b508061194481614f66565b9150506116f1565b50919050565b6000818152600a6020526040812054810361197f5760405162461bcd60e51b81526004016106ac9061514f565b600361198a83611ed2565b600481111561199b5761199b614b44565b146119f45760405162461bcd60e51b8152602060048201526024808201527f4672616d6520646f6573206e6f742068617665206120636c6f73652072617465604482015263081cd95d60e21b60648201526084016106ac565b6000828152600a6020526040812060010154611a0f906116c1565b6000848152600d60209081526040808320848452825280832081516060810183528154815260018201548185015260028201805484518187028101870186528181529798509596919592949386019391929091879084015b82821015611ad85760008481526020908190206040805160c08101825260068602909201805483526001808201548486015260028201546001600160a01b03169284019290925260038101546060840152600481015460808401526005015460a08301529083529092019101611a67565b50505091525090915060029050611aef858461102e565b6003811115611b0057611b00614b44565b14611b4d5760405162461bcd60e51b815260206004820152601c60248201527f4e6f2077696e6e696e67206c6f7420696e2074686973206672616d650000000060448201526064016106ac565b6000611b5885610c58565b90506000670de0b6b3a764000060025483611b739190615190565b611b7d919061517c565b6000878152600a602052604090206005810182905560070154909150611ba38284614fbd565b611bad9190614fbd565b6000878152600a602052604090819020600601919091556007549084015180516001600160a01b039092169163a9059cbb9190611bec90600190614fbd565b81518110611bfc57611bfc614f3a565b602002602001015160400151600a60008a8152602001908152602001600020600601546040518363ffffffff1660e01b8152600401611c509291906001600160a01b03929092168252602082015260400190565b6020604051808303816000875af1158015611c6f573d6000803e3d6000fd5b505050506040513d601f19601f82011682018060405250810190611c939190614fa2565b5060408301518051611ca790600190614fbd565b81518110611cb757611cb7614f3a565b6020908102919091018101516040908101516000898152600a909352918190206003810180546001600160a01b0319166001600160a01b03948516179055600754600854600590920154925163a9059cbb60e01b81529184166004830152602482019290925291169063a9059cbb906044016020604051808303816000875af1158015611d48573d6000803e3d6000fd5b505050506040513d601f19601f82011682018060405250810190611d6c9190614fa2565b507f906ff162b3f2709ab28fb678d43913964434148dd206e9b17adb3c1255090cb183604051611d9c9190614ddf565b60405180910390a16000868152600a60205260409081902090517f929af310c689982c60d4ec73c6e4b602e89c6f6a31da7c2df4888fb0627cb2b191611de191615005565b60405180910390a150505060009283525050600a602052604090206006015490565b6004805460408051633850c7bd60e01b8152905160009384936001600160a01b031692633850c7bd928183019260e0928290030181865afa158015611e4c573d6000803e3d6000fd5b505050506040513d601f19601f82011682018060405250810190611e7091906151b9565b50505050505090506000816001600160a01b031690506000600160601b82670de0b6b3a7640000611ea19190615190565b611eab919061517c565b9050670de0b6b3a7640000611ec08280615190565b611eca919061517c565b949350505050565b6000818152600a60205260408120548103611eef57506000919050565b6000828152600a60205260409020600301546001600160a01b031615611f1757506004919050565b60008054838252600a602052604090912054611f339190614f7f565b421015611f4257506001919050565b6000828152600a602052604090206001015415611f6157506003919050565b506002919050565b6008546001600160a01b03163314611fd45760405162461bcd60e51b815260206004820152602860248201527f4f6e6c79206f776e65722063616e207769746864726177206163636f756e74696044820152673733903a37b5b2b760c11b60648201526084016106ac565b60075460085460405163a9059cbb60e01b81526001600160a01b0391821660048201526024810184905291169063a9059cbb906044016020604051808303816000875af1158015612029573d6000803e3d6000fd5b505050506040513d601f19601f8201168201806040525081019061204d9190614fa2565b5050565b600042600054846120629190614f7f565b116120af5760405162461bcd60e51b815260206004820152601d60248201527f4672616d652068617320746f20626520696e207468652066757475726500000060448201526064016106ac565b600080546006546120c0919061517c565b9050600042600054866120d39190614f7f565b6120dd9190614fbd565b90506000670de0b6b3a7640000856120f58585615190565b6120ff9190615190565b612109919061517c565b9695505050505050565b6000828152600d602090815260408083208484528252808320600201805482518185028101850190935280835260609492939192909184015b828210156121bd5760008481526020908190206040805160c08101825260068602909201805483526001808201548486015260028201546001600160a01b03169284019290925260038101546060840152600481015460808401526005015460a0830152908352909201910161214c565b50505050905092915050565b60008060035483426121db9190614fbd565b6121e59190614f7f565b905060006121f38442614fbd565b6040805160028082526060820183529293506000929091602083019080368337019050509050828160008151811061222d5761222d614f3a565b602002602001019063ffffffff16908163ffffffff1681525050818160018151811061225b5761225b614f3a565b63ffffffff909216602092830291909101909101526004805460405163883bdbfd60e01b81526000926001600160a01b039092169163883bdbfd916122a291869101615253565b600060405180830381865afa1580156122bf573d6000803e3d6000fd5b505050506040513d6000823e601f3d908101601f191682016040526122e791908101906152f5565b5090506000816000815181106122ff576122ff614f3a565b602002602001015160060b8260018151811061231d5761231d614f3a565b602002602001015160060b61233291906153c1565b9050600081121561237b5760405162461bcd60e51b81526020600482015260136024820152724e65676174697665207469636b2064656c746160681b60448201526064016106ac565b80600061239163ffffffff808816908916614fbd565b9050600061239f828461517c565b905060006123ac826141f4565b905060006123ca66010000000000006001600160a01b03841661517c565b905060006123d88280615190565b90506000600160601b6123f383670de0b6b3a7640000615190565b6123fd919061517c565b9e9d5050505050505050505050505050565b60008061241b8361115b565b6000818152600a6020526040902054909150156124715760405162461bcd60e51b81526020600482015260146024820152734672616d6520616c72656164792065786973747360601b60448201526064016106ac565b42600054826124809190614f7f565b10156124ce5760405162461bcd60e51b815260206004820152601d60248201527f4672616d652068617320746f20626520696e207468652066757475726500000060448201526064016106ac565b6000818152600a602052604090819020828155600b8054600181019091557f0175b7a638427703f0dbe7bb9bbf987a2551717b34e79f33b5b1008d1fa01db90183905590517f929af310c689982c60d4ec73c6e4b602e89c6f6a31da7c2df4888fb0627cb2b19161253e91615005565b60405180910390a192915050565b60006125588584612051565b90506000811161257a5760405162461bcd60e51b81526004016106ac906153e1565b604080518082018252601781527629a7a61d103130b630b731b29037b31039b2b73232b91d60491b602082015260075491516370a0823160e01b815233600482015261261a926001600160a01b0316906370a08231906024015b602060405180830381865afa1580156125f1573d6000803e3d6000fd5b505050506040513d601f19601f82011682018060405250810190612615919061543e565b6145d7565b604080518082018252601881527729a7a61d1020b63637bbb0b731b2903a379039b832b7321d60411b60208201526007549151636eb1769f60e11b815261267b926001600160a01b03169063dd62ed3e906125d49033903090600401615457565b6126a66040518060400160405280600981526020016829a7a61d103a30bc1d60b91b815250826145d7565b600754604051636eb1769f60e11b815282916001600160a01b03169063dd62ed3e906126d89033903090600401615457565b602060405180830381865afa1580156126f5573d6000803e3d6000fd5b505050506040513d601f19601f82011682018060405250810190612719919061543e565b10156127375760405162461bcd60e51b81526004016106ac90615471565b6000858152600d60209081526040808320878452909152902060010154156127965760405162461bcd60e51b81526020600482015260126024820152714c6f7420616c72656164792065786973747360701b60448201526064016106ac565b6040805160c081018252438152426020808301918252338385019081526060840188815260808501878152600060a087018181528d8252600d86528882208d835286529781208d815560018082018e90556002808301805480840182558186529885208b516006909a0201988955985191880191909155945194860180546001600160a01b0319166001600160a01b03909616959095179094559151600385015551600484015594516005909201919091559287905280549192918291829161286191908190614955565b5050506000878152600a602090815260408083206001808601546002909201805491820181558552929093209091019190915560075490516323b872dd60e01b81526001600160a01b03909116906323b872dd906128c7903390309088906004016154a8565b6020604051808303816000875af11580156128e6573d6000803e3d6000fd5b505050506040513d601f19601f8201168201806040525081019061290a9190614fa2565b50336000908152600c602052604090205460ff1661292b5761292b8461461c565b336000908152600c60205260408082205461010090046001600160a01b0316825290205460ff161561298057336000908152600c60205260409020546129809061010090046001600160a01b031684896147a5565b50505050505050565b6000848152600d60209081526040808320868452909152812060020180546129e09187916129b990600190614fbd565b815481106129c9576129c9614f3a565b906000526020600020906006020160030154612051565b905060006129ee8685612051565b905080821115612bfb576000612a048284614fbd565b6007546000898152600d602090815260408083208b8452909152902060020180549293506001600160a01b039091169163a9059cbb9190612a4790600190614fbd565b81548110612a5757612a57614f3a565b600091825260209091206006909102016002015460405160e083901b6001600160e01b03191681526001600160a01b039091166004820152602481018490526044016020604051808303816000875af1158015612ab8573d6000803e3d6000fd5b505050506040513d601f19601f82011682018060405250810190612adc9190614fa2565b506000878152600d602090815260408083208984528252808320815160c0810183524381524281850190815233828501818152606084018d81526080850189815260a086018b81526002978801805460018082018355918d528b8d2098516006909102909801978855955195870195909555915195850180546001600160a01b0319166001600160a01b03909716969096179095559351600384015592516004830155516005909101558352600c90915290205460ff16612ba057612ba08461461c565b336000908152600c60205260408082205461010090046001600160a01b0316825290205460ff1615612bf557336000908152600c6020526040902054612bf59061010090046001600160a01b0316828961486c565b50612e2d565b6000612c078383614fbd565b600754604051636eb1769f60e11b815291925082916001600160a01b039091169063dd62ed3e90612c3e9033903090600401615457565b602060405180830381865afa158015612c5b573d6000803e3d6000fd5b505050506040513d601f19601f82011682018060405250810190612c7f919061543e565b1015612c9d5760405162461bcd60e51b81526004016106ac90615471565b6007546040516323b872dd60e01b81526001600160a01b03909116906323b872dd90612cd1903390309086906004016154a8565b6020604051808303816000875af1158015612cf0573d6000803e3d6000fd5b505050506040513d601f19601f82011682018060405250810190612d149190614fa2565b506000878152600d602090815260408083208984528252808320815160c0810183524381524281850190815233828501818152606084018d8152608085018a815260a086018a81526002978801805460018082018355918d528b8d2098516006909102909801978855955195870195909555915195850180546001600160a01b0319166001600160a01b03909716969096179095559351600384015592516004830155516005909101558352600c90915290205460ff16612dd857612dd88461461c565b336000908152600c60205260408082205461010090046001600160a01b0316825290205460ff161561298057336000908152600c60205260409020546129809061010090046001600160a01b031682896147a5565b505050505050565b6000612e418584612051565b905060008111612e635760405162461bcd60e51b81526004016106ac906153e1565b6000858152600d6020908152604080832087845290915281206002018054612e8d90600190614fbd565b81548110612e9d57612e9d614f3a565b90600052602060002090600602016003015490508082612ebd9190614f7f565b600754604051636eb1769f60e11b81526001600160a01b039091169063dd62ed3e90612eef9033903090600401615457565b602060405180830381865afa158015612f0c573d6000803e3d6000fd5b505050506040513d601f19601f82011682018060405250810190612f30919061543e565b1015612f4e5760405162461bcd60e51b81526004016106ac90615471565b6007546040516323b872dd60e01b81526001600160a01b03909116906323b872dd90612f82903390309087906004016154a8565b6020604051808303816000875af1158015612fa1573d6000803e3d6000fd5b505050506040513d601f19601f82011682018060405250810190612fc59190614fa2565b506007546000878152600d60209081526040808320898452909152902060020180546001600160a01b03909216916323b872dd91339161300790600190614fbd565b8154811061301757613017614f3a565b60009182526020909120600260069092020101546040516001600160e01b031960e085901b16815261305892916001600160a01b03169086906004016154a8565b6020604051808303816000875af1158015613077573d6000803e3d6000fd5b505050506040513d601f19601f8201168201806040525081019061309b9190614fa2565b506000868152600d60209081526040808320888452909152812060020180546130cc9189916129b990600190614fbd565b6007546000898152600d602090815260408083208b8452909152902060020180549293506001600160a01b039091169163a9059cbb919061310f90600190614fbd565b8154811061311f5761311f614f3a565b600091825260209091206006909102016002015460405160e083901b6001600160e01b03191681526001600160a01b039091166004820152602481018490526044016020604051808303816000875af1158015613180573d6000803e3d6000fd5b505050506040513d601f19601f820116820180604052508101906131a49190614fa2565b50336000908152600c602052604090205460ff166131c5576131c58461461c565b336000908152600c60205260408082205461010090046001600160a01b0316825290205460ff161561321a57336000908152600c602052604090205461321a9061010090046001600160a01b031684896147a5565b6000878152600d6020908152604080832089845290915281206002018054600c9291839183919061324d90600190614fbd565b8154811061325d5761325d614f3a565b60009182526020808320600260069093020191909101546001600160a01b0390811684528382019490945260409283018220546101009004909316845291830193909352910190205460ff1615613331576000878152600d602090815260408083208984529091528120600201805461333192600c9290916132e190600190614fbd565b815481106132f1576132f1614f3a565b60009182526020808320600260069093020191909101546001600160a01b039081168452908301939093526040909101902054610100900416828961486c565b6000878152600d60209081526040808320898452808352818420825160c0810184524381524281860152948b9052925260029091018054909291820190839061337c90600190614fbd565b8154811061338c5761338c614f3a565b906000526020600020906006020160020160009054906101000a90046001600160a01b03166001600160a01b0316815260200184815260200160008152602001838152509080600181540180825580915050600190039060005260206000209060060201600090919091909150600082015181600001556020820151816001015560408201518160020160006101000a8154816001600160a01b0302191690836001600160a01b03160217905550606082015181600301556080820151816004015560a082015181600501555050600d600088815260200190815260200160002060008781526020019081526020016000206002016040518060c00160405280438152602001428152602001336001600160a01b0316815260200187815260200185815260200160008152509080600181540180825580915050600190039060005260206000209060060201600090919091909150600082015181600001556020820151816001015560408201518160020160006101000a8154816001600160a01b0302191690836001600160a01b03160217905550606082015181600301556080820151816004015560a08201518160050155505050505050505050565b60006135578483612051565b9050600081116135795760405162461bcd60e51b81526004016106ac906153e1565b604080518082018252601781527629a7a61d103130b630b731b29037b31039b2b73232b91d60491b602082015260075491516370a0823160e01b81523360048201526135d7926001600160a01b0316906370a08231906024016125d4565b604080518082018252601881527729a7a61d1020b63637bbb0b731b2903a379039b832b7321d60411b60208201526007549151636eb1769f60e11b8152613638926001600160a01b03169063dd62ed3e906125d49033903090600401615457565b6136636040518060400160405280600981526020016829a7a61d103a30bc1d60b91b815250826145d7565b600754604051636eb1769f60e11b815282916001600160a01b03169063dd62ed3e906136959033903090600401615457565b602060405180830381865afa1580156136b2573d6000803e3d6000fd5b505050506040513d601f19601f820116820180604052508101906136d6919061543e565b10156136f45760405162461bcd60e51b81526004016106ac90615471565b6000848152600d60209081526040808320868452909152902060010154156137535760405162461bcd60e51b81526020600482015260126024820152714c6f7420616c72656164792065786973747360701b60448201526064016106ac565b6040805160c081018252438152426020808301918252338385019081526060840187815260808501878152600060a087018181528c8252600d86528882208c835286529781208c815560018082018d90556002808301805480840182558186529885208b516006909a0201988955985191880191909155945194860180546001600160a01b0319166001600160a01b03909616959095179094559151600385015551600484015594516005909201919091559286905280549192918291829161381e91908190614955565b5050506000868152600a602090815260408083206001808601546002909201805491820181558552929093209091019190915560075490516323b872dd60e01b81526001600160a01b03909116906323b872dd90613884903390309088906004016154a8565b6020604051808303816000875af11580156138a3573d6000803e3d6000fd5b505050506040513d601f19601f820116820180604052508101906129809190614fa2565b6000838152600d60209081526040808320858452909152812060020180546138f79186916129b990600190614fbd565b905060006139058584612051565b905080821115613aa357600061391b8284614fbd565b6007546000888152600d602090815260408083208a8452909152902060020180549293506001600160a01b039091169163a9059cbb919061395e90600190614fbd565b8154811061396e5761396e614f3a565b600091825260209091206006909102016002015460405160e083901b6001600160e01b03191681526001600160a01b039091166004820152602481018490526044016020604051808303816000875af11580156139cf573d6000803e3d6000fd5b505050506040513d601f19601f820116820180604052508101906139f39190614fa2565b506000868152600d602090815260408083208884528252808320815160c0810183524381524281850190815233938201938452606082018a81526080830187815260a084019889526002948501805460018082018355918a529790982093516006909702909301958655905195850195909555915190830180546001600160a01b0319166001600160a01b03909216919091179055915160038201559051600482015590516005909101556111fa565b6000613aaf8383614fbd565b600754604051636eb1769f60e11b815291925082916001600160a01b039091169063dd62ed3e90613ae69033903090600401615457565b602060405180830381865afa158015613b03573d6000803e3d6000fd5b505050506040513d601f19601f82011682018060405250810190613b27919061543e565b1015613b455760405162461bcd60e51b81526004016106ac90615471565b6007546040516323b872dd60e01b81526001600160a01b03909116906323b872dd90613b79903390309086906004016154a8565b6020604051808303816000875af1158015613b98573d6000803e3d6000fd5b505050506040513d601f19601f82011682018060405250810190613bbc9190614fa2565b506000958652600d60209081526040808820968852958152858720865160c0810188524381524281840190815233988201988952606082019788526080820194855260a082018a81526002938401805460018082018355918d5295909b20925160069095029092019384555198830198909855955195810180546001600160a01b0319166001600160a01b03909716969096179095559251600385015550505160048201559051600590910155565b6000613c778483612051565b905060008111613c995760405162461bcd60e51b81526004016106ac906153e1565b6000848152600d6020908152604080832086845290915281206002018054613cc390600190614fbd565b81548110613cd357613cd3614f3a565b90600052602060002090600602016003015490508082613cf39190614f7f565b600754604051636eb1769f60e11b81526001600160a01b039091169063dd62ed3e90613d259033903090600401615457565b602060405180830381865afa158015613d42573d6000803e3d6000fd5b505050506040513d601f19601f82011682018060405250810190613d66919061543e565b1015613d845760405162461bcd60e51b81526004016106ac90615471565b6007546040516323b872dd60e01b81526001600160a01b03909116906323b872dd90613db8903390309087906004016154a8565b6020604051808303816000875af1158015613dd7573d6000803e3d6000fd5b505050506040513d601f19601f82011682018060405250810190613dfb9190614fa2565b506007546000868152600d60209081526040808320888452909152902060020180546001600160a01b03909216916323b872dd913391613e3d90600190614fbd565b81548110613e4d57613e4d614f3a565b60009182526020909120600260069092020101546040516001600160e01b031960e085901b168152613e8e92916001600160a01b03169086906004016154a8565b6020604051808303816000875af1158015613ead573d6000803e3d6000fd5b505050506040513d601f19601f82011682018060405250810190613ed19190614fa2565b506000858152600d6020908152604080832087845290915281206002018054613f029188916129b990600190614fbd565b6007546000888152600d602090815260408083208a8452909152902060020180549293506001600160a01b039091169163a9059cbb9190613f4590600190614fbd565b81548110613f5557613f55614f3a565b600091825260209091206006909102016002015460405160e083901b6001600160e01b03191681526001600160a01b039091166004820152602481018490526044016020604051808303816000875af1158015613fb6573d6000803e3d6000fd5b505050506040513d601f19601f82011682018060405250810190613fda9190614fa2565b506000868152600d60209081526040808320888452808352818420825160c0810184524381524281860152948a9052925260029091018054909291820190839061402690600190614fbd565b8154811061403657614036614f3a565b906000526020600020906006020160020160009054906101000a90046001600160a01b03166001600160a01b0316815260200184815260200160008152602001838152509080600181540180825580915050600190039060005260206000209060060201600090919091909150600082015181600001556020820151816001015560408201518160020160006101000a8154816001600160a01b0302191690836001600160a01b03160217905550606082015181600301556080820151816004015560a082015181600501555050600d600087815260200190815260200160002060008681526020019081526020016000206002016040518060c00160405280438152602001428152602001336001600160a01b0316815260200186815260200185815260200160008152509080600181540180825580915050600190039060005260206000209060060201600090919091909150600082015181600001556020820151816001015560408201518160020160006101000a8154816001600160a01b0302191690836001600160a01b03160217905550606082015181600301556080820151816004015560a082015181600501555050505050505050565b600081620d89e881111561422e5760405162461bcd60e51b81526020600482015260016024820152601560fa1b60448201526064016106ac565b60008160011660000361424557600160801b614257565b6ffffcb933bd6fad37aa2d162d1a5940015b70ffffffffffffffffffffffffffffffffff1690506002821615614296576080614291826ffff97272373d413259a46990580e213a615190565b901c90505b60048216156142c05760806142bb826ffff2e50f5f656932ef12357cf3c7fdcc615190565b901c90505b60088216156142ea5760806142e5826fffe5caca7e10e4e61c3624eaa0941cd0615190565b901c90505b601082161561431457608061430f826fffcb9843d60f6159c9db58835c926644615190565b901c90505b602082161561433e576080614339826fff973b41fa98c081472e6896dfb254c0615190565b901c90505b6040821615614368576080614363826fff2ea16466c96a3843ec78b326b52861615190565b901c90505b608082161561439257608061438d826ffe5dee046a99a2a811c461f1969c3053615190565b901c90505b6101008216156143bd5760806143b8826ffcbe86c7900a88aedcffc83b479aa3a4615190565b901c90505b6102008216156143e85760806143e3826ff987a7253ac413176f2b074cf7815e54615190565b901c90505b61040082161561441357608061440e826ff3392b0822b70005940c7a398e4b70f3615190565b901c90505b61080082161561443e576080614439826fe7159475a2c29b7443b29c7fa6e889d9615190565b901c90505b611000821615614469576080614464826fd097f3bdfd2022b8845ad8f792aa5825615190565b901c90505b61200082161561449457608061448f826fa9f746462d870fdf8a65dc1f90e061e5615190565b901c90505b6140008216156144bf5760806144ba826f70d869a156d2a1b890bb3df62baf32f7615190565b901c90505b6180008216156144ea5760806144e5826f31be135f97d08fd981231505542fcfa6615190565b901c90505b62010000821615614516576080614511826f09aa508b5b7a84e1c677de54f3e99bc9615190565b901c90505b6202000082161561454157608061453c826e5d6af8dedb81196699c329225ee604615190565b901c90505b6204000082161561456b576080614566826d2216e584f5fa1ea926041bedfe98615190565b901c90505b6208000082161561459357608061458e826b048a170391f7dc42444e8fa2615190565b901c90505b83156145a8576145a58160001961517c565b90505b6145b76401000000008261513b565b156145c35760016145c6565b60005b611eca9060ff16602083901c614f7f565b61204d82826040516024016145ed9291906154cc565b60408051601f198184030181529190526020810180516001600160e01b0316632d839cb360e21b179052614928565b336000908152600c602052604090205460ff16156146725760405162461bcd60e51b81526020600482015260136024820152725573657220616c72656164792065786973747360681b60448201526064016106ac565b336146bf5760405162461bcd60e51b815260206004820152601960248201527f526566657272616c206164647265737320697320656d7074790000000000000060448201526064016106ac565b6001600160a01b03811661470557336000908152600c6020526040902080546001600160a01b0392909216610100026001600160a81b0319909216919091176001179055565b6001600160a01b0381166000908152600c602052604090205460ff1661476d5760405162461bcd60e51b815260206004820152601760248201527f526566657272657220646f6573206e6f7420657869737400000000000000000060448201526064016106ac565b336000908152600c6020526040902080546001600160a01b0392909216610100026001600160a81b0319909216919091176001179055565b6001600160a01b0383166000908152600c602052604090205460ff166147dd5760405162461bcd60e51b81526004016106ac90614f0d565b6000670de0b6b3a7640000600954846147f69190615190565b614800919061517c565b6001600160a01b0385166000908152600c6020908152604080832086845260010190915281208054929350839290919061483b908490614f7f565b90915550506000828152600a602052604081206007018054839290614861908490614f7f565b909155505050505050565b6001600160a01b0383166000908152600c602052604090205460ff166148a45760405162461bcd60e51b81526004016106ac90614f0d565b6000670de0b6b3a7640000600954846148bd9190615190565b6148c7919061517c565b6001600160a01b0385166000908152600c60209081526040808320868452600101909152812080549293508392909190614902908490614fbd565b90915550506000828152600a602052604081206007018054839290614861908490614fbd565b61493181614934565b50565b60006a636f6e736f6c652e6c6f679050600080835160208501845afa505050565b8280548282559060005260206000209060060281019282156149e95760005260206000209160060282015b828111156149e957825482556001808401549083015560028084015490830180546001600160a01b0319166001600160a01b0390921691909117905560038084015490830155600480840154908301556005808401549083015560069283019290910190614980565b506149f59291506149f9565b5090565b5b808211156149f5576000808255600182018190556002820180546001600160a01b0319169055600382018190556004820181905560058201556006016149fa565b600060208284031215614a4d57600080fd5b5035919050565b6020808252825182820181905260009190848201906040850190845b81811015614a8c57835183529284019291840191600101614a70565b50909695505050505050565b6001600160a01b038116811461493157600080fd5b8035614ab881614a98565b919050565b600060208284031215614acf57600080fd5b8135614ada81614a98565b9392505050565b60008060008060808587031215614af757600080fd5b8435935060208501359250604085013591506060850135614b1781614a98565b939692955090935050565b60008060408385031215614b3557600080fd5b50508035926020909101359150565b634e487b7160e01b600052602160045260246000fd5b6020810160048310614b6e57614b6e614b44565b91905290565b600080600060608486031215614b8957600080fd5b505081359360208301359350604090920135919050565b634e487b7160e01b600052604160045260246000fd5b604051610100810167ffffffffffffffff81118282101715614bda57614bda614ba0565b60405290565b604051601f8201601f1916810167ffffffffffffffff81118282101715614c0957614c09614ba0565b604052919050565b600067ffffffffffffffff821115614c2b57614c2b614ba0565b5060051b60200190565b600082601f830112614c4657600080fd5b81356020614c5b614c5683614c11565b614be0565b82815260059290921b84018101918181019086841115614c7a57600080fd5b8286015b84811015614c955780358352918301918301614c7e565b509695505050505050565b60008060408385031215614cb357600080fd5b823567ffffffffffffffff80821115614ccb57600080fd5b908401906101008287031215614ce057600080fd5b614ce8614bb6565b8235815260208301356020820152604083013582811115614d0857600080fd5b614d1488828601614c35565b604083015250614d2660608401614aad565b60608201526080830135608082015260a083013560a082015260c083013560c082015260e083013560e0820152809450505050602083013590509250929050565b600081518084526020808501945080840160005b83811015614dd45781518051885283810151848901526040808201516001600160a01b031690890152606080820151908901526080808201519089015260a0908101519088015260c09096019590820190600101614d7b565b509495945050505050565b60208152815160208201526020820151604082015260006040830151606080840152611eca6080840182614d67565b6000602080835261012083018451828501528185015160408501526040850151610100806060870152828251808552610140880191508584019450600093505b80841015614e6e5784518252938501936001939093019290850190614e4e565b5060608801516001600160a01b03811660808901529450608088015160a088015260a088015160c088015260c088015160e088015260e088015182880152809550505050505092915050565b60008060408385031215614ecd57600080fd5b8235614ed881614a98565b946020939093013593505050565b6020810160058310614b6e57614b6e614b44565b602081526000614ada6020830184614d67565b602080825260139082015272155cd95c88191bd95cc81b9bdd08195e1a5cdd606a1b604082015260600190565b634e487b7160e01b600052603260045260246000fd5b634e487b7160e01b600052601160045260246000fd5b600060018201614f7857614f78614f50565b5060010190565b8082018082111561115557611155614f50565b80518015158114614ab857600080fd5b600060208284031215614fb457600080fd5b614ada82614f92565b8181038181111561115557611155614f50565b6000815480845260208085019450836000528060002060005b83811015614dd457815487529582019560019182019101614fe9565b6020815281546020820152600182015460408201526000610100806060840152615036610120840160028601614fd0565b60038501546001600160a01b03166080850152600485015460a0850152600585015460c0850152600685015460e08501526007909401549201919091525090565b6000602080835260808084018554838601526001808701546040818189015260029150818901606080818b015285825480885260a09750878c0191508360005289600020935060005b818110156151135784548352878501548b840152868501546001600160a01b03168684015260038501548484015260048501548a84015260058501548984015260069094019360c09092019187016150c0565b50909c9b505050505050505050505050565b634e487b7160e01b600052601260045260246000fd5b60008261514a5761514a615125565b500690565b602080825260139082015272119c985b5948191bd95cdb89dd08195e1a5cdd606a1b604082015260600190565b60008261518b5761518b615125565b500490565b808202811582820484141761115557611155614f50565b805161ffff81168114614ab857600080fd5b600080600080600080600060e0888a0312156151d457600080fd5b87516151df81614a98565b8097505060208801518060020b81146151f757600080fd5b9550615205604089016151a7565b9450615213606089016151a7565b9350615221608089016151a7565b925060a088015160ff8116811461523757600080fd5b915061524560c08901614f92565b905092959891949750929550565b6020808252825182820181905260009190848201906040850190845b81811015614a8c57835163ffffffff168352928401929184019160010161526f565b600082601f8301126152a257600080fd5b815160206152b2614c5683614c11565b82815260059290921b840181019181810190868411156152d157600080fd5b8286015b84811015614c955780516152e881614a98565b83529183019183016152d5565b6000806040838503121561530857600080fd5b825167ffffffffffffffff8082111561532057600080fd5b818501915085601f83011261533457600080fd5b81516020615344614c5683614c11565b82815260059290921b8401810191818101908984111561536357600080fd5b948201945b838610156153915785518060060b81146153825760008081fd5b82529482019490820190615368565b918801519196509093505050808211156153aa57600080fd5b506153b785828601615291565b9150509250929050565b8181036000831280158383131683831282161715610e1e57610e1e614f50565b6020808252603c908201527f5461782068617320746f2062652067726561746572207468616e20302e20496e60408201527f63726561736520746865206163717569736974696f6e20707269636500000000606082015260800190565b60006020828403121561545057600080fd5b5051919050565b6001600160a01b0392831681529116602082015260400190565b6020808252601e908201527f416c6c6f77616e636520746f207370656e642073657420746f6f206c6f770000604082015260600190565b6001600160a01b039384168152919092166020820152604081019190915260600190565b604081526000835180604084015260005b818110156154fa57602081870181015160608684010152016154dd565b506000606082850101526060601f19601f830116840101915050826020830152939250505056fea26469706673582212200bcfd1004e73d5008bb396939d7cfa9e9a726c214cb09ad29ebc473a0d17f44b64736f6c63430008140033",
  "linkReferences": {},
  "deployedLinkReferences": {}
}