{
  "_format": "hh-sol-artifact-1",
  "contractName": "Market",
  "sourceName": "contracts/Market.sol",
  "abi": [
    {
      "inputs": [
        {
          "internalType": "address",
          "name": "_accountingToken",
          "type": "address"
        },
        {
          "internalType": "uint256",
          "name": "_feeProtocol",
          "type": "uint256"
        },
        {
          "internalType": "uint256",
          "name": "_taxMarket",
          "type": "uint256"
        }
      ],
      "stateMutability": "nonpayable",
      "type": "constructor"
    },
    {
      "anonymous": false,
      "inputs": [
        {
          "components": [
            {
              "internalType": "uint256",
              "name": "frameKey",
              "type": "uint256"
            },
            {
              "internalType": "uint256",
              "name": "rate",
              "type": "uint256"
            },
            {
              "internalType": "uint256[]",
              "name": "lotKeys",
              "type": "uint256[]"
            },
            {
              "internalType": "address",
              "name": "claimedBy",
              "type": "address"
            },
            {
              "internalType": "uint256",
              "name": "rateSettle",
              "type": "uint256"
            },
            {
              "internalType": "uint256",
              "name": "feeSettle",
              "type": "uint256"
            },
            {
              "internalType": "uint256",
              "name": "rewardSettle",
              "type": "uint256"
            }
          ],
          "indexed": false,
          "internalType": "struct Market.Frame",
          "name": "frame",
          "type": "tuple"
        }
      ],
      "name": "FrameUpdate",
      "type": "event"
    },
    {
      "anonymous": false,
      "inputs": [
        {
          "components": [
            {
              "internalType": "uint256",
              "name": "frameKey",
              "type": "uint256"
            },
            {
              "internalType": "uint256",
              "name": "lotKey",
              "type": "uint256"
            },
            {
              "components": [
                {
                  "internalType": "uint256",
                  "name": "blockNumber",
                  "type": "uint256"
                },
                {
                  "internalType": "uint256",
                  "name": "blockTimestamp",
                  "type": "uint256"
                },
                {
                  "internalType": "address",
                  "name": "owner",
                  "type": "address"
                },
                {
                  "internalType": "uint256",
                  "name": "acquisitionPrice",
                  "type": "uint256"
                },
                {
                  "internalType": "uint256",
                  "name": "taxCharged",
                  "type": "uint256"
                },
                {
                  "internalType": "uint256",
                  "name": "taxRefunded",
                  "type": "uint256"
                }
              ],
              "internalType": "struct Market.LotState[]",
              "name": "states",
              "type": "tuple[]"
            }
          ],
          "indexed": false,
          "internalType": "struct Market.Lot",
          "name": "lot",
          "type": "tuple"
        }
      ],
      "name": "LotUpdate",
      "type": "event"
    },
    {
      "inputs": [],
      "name": "accountingToken",
      "outputs": [
        {
          "internalType": "contract IERC20Metadata",
          "name": "",
          "type": "address"
        }
      ],
      "stateMutability": "view",
      "type": "function"
    },
    {
      "inputs": [],
      "name": "accountingTokenDecimals",
      "outputs": [
        {
          "internalType": "uint8",
          "name": "",
          "type": "uint8"
        }
      ],
      "stateMutability": "view",
      "type": "function"
    },
    {
      "inputs": [
        {
          "internalType": "uint256",
          "name": "newFee",
          "type": "uint256"
        }
      ],
      "name": "changeProtocolFee",
      "outputs": [],
      "stateMutability": "nonpayable",
      "type": "function"
    },
    {
      "inputs": [
        {
          "internalType": "uint256",
          "name": "newTax",
          "type": "uint256"
        }
      ],
      "name": "changeTaxPercentage",
      "outputs": [],
      "stateMutability": "nonpayable",
      "type": "function"
    },
    {
      "inputs": [
        {
          "internalType": "uint256",
          "name": "timestamp",
          "type": "uint256"
        }
      ],
      "name": "clcFrameKey",
      "outputs": [
        {
          "internalType": "uint256",
          "name": "",
          "type": "uint256"
        }
      ],
      "stateMutability": "view",
      "type": "function"
    },
    {
      "inputs": [
        {
          "internalType": "uint256",
          "name": "value",
          "type": "uint256"
        }
      ],
      "name": "clcLotKey",
      "outputs": [
        {
          "internalType": "uint256",
          "name": "",
          "type": "uint256"
        }
      ],
      "stateMutability": "view",
      "type": "function"
    },
    {
      "inputs": [],
      "name": "clcRate",
      "outputs": [
        {
          "internalType": "uint256",
          "name": "",
          "type": "uint256"
        }
      ],
      "stateMutability": "view",
      "type": "function"
    },
    {
      "inputs": [
        {
          "internalType": "uint256",
          "name": "timestamp",
          "type": "uint256"
        }
      ],
      "name": "clcRateAvg",
      "outputs": [
        {
          "internalType": "uint256",
          "name": "",
          "type": "uint256"
        }
      ],
      "stateMutability": "view",
      "type": "function"
    },
    {
      "inputs": [
        {
          "internalType": "uint256",
          "name": "frameKey",
          "type": "uint256"
        }
      ],
      "name": "clcRewardFund",
      "outputs": [
        {
          "internalType": "uint256",
          "name": "",
          "type": "uint256"
        }
      ],
      "stateMutability": "view",
      "type": "function"
    },
    {
      "inputs": [
        {
          "internalType": "uint256",
          "name": "frameKey",
          "type": "uint256"
        },
        {
          "internalType": "uint256",
          "name": "acquisitionPrice",
          "type": "uint256"
        }
      ],
      "name": "clcTax",
      "outputs": [
        {
          "internalType": "uint256",
          "name": "",
          "type": "uint256"
        }
      ],
      "stateMutability": "view",
      "type": "function"
    },
    {
      "inputs": [
        {
          "internalType": "uint256",
          "name": "frameKey",
          "type": "uint256"
        },
        {
          "internalType": "uint256",
          "name": "lotKey",
          "type": "uint256"
        }
      ],
      "name": "concatenate",
      "outputs": [
        {
          "internalType": "uint256",
          "name": "concatenated",
          "type": "uint256"
        }
      ],
      "stateMutability": "pure",
      "type": "function"
    },
    {
      "inputs": [],
      "name": "dPrice",
      "outputs": [
        {
          "internalType": "uint256",
          "name": "",
          "type": "uint256"
        }
      ],
      "stateMutability": "view",
      "type": "function"
    },
    {
      "inputs": [],
      "name": "feeProtocol",
      "outputs": [
        {
          "internalType": "uint256",
          "name": "",
          "type": "uint256"
        }
      ],
      "stateMutability": "view",
      "type": "function"
    },
    {
      "inputs": [
        {
          "internalType": "uint256",
          "name": "",
          "type": "uint256"
        }
      ],
      "name": "frames",
      "outputs": [
        {
          "internalType": "uint256",
          "name": "frameKey",
          "type": "uint256"
        },
        {
          "internalType": "uint256",
          "name": "rate",
          "type": "uint256"
        },
        {
          "internalType": "address",
          "name": "claimedBy",
          "type": "address"
        },
        {
          "internalType": "uint256",
          "name": "rateSettle",
          "type": "uint256"
        },
        {
          "internalType": "uint256",
          "name": "feeSettle",
          "type": "uint256"
        },
        {
          "internalType": "uint256",
          "name": "rewardSettle",
          "type": "uint256"
        }
      ],
      "stateMutability": "view",
      "type": "function"
    },
    {
      "inputs": [
        {
          "internalType": "uint256",
          "name": "",
          "type": "uint256"
        }
      ],
      "name": "framesKeys",
      "outputs": [
        {
          "internalType": "uint256",
          "name": "",
          "type": "uint256"
        }
      ],
      "stateMutability": "view",
      "type": "function"
    },
    {
      "inputs": [
        {
          "internalType": "uint256",
          "name": "frameKey",
          "type": "uint256"
        }
      ],
      "name": "getFrame",
      "outputs": [
        {
          "components": [
            {
              "internalType": "uint256",
              "name": "frameKey",
              "type": "uint256"
            },
            {
              "internalType": "uint256",
              "name": "rate",
              "type": "uint256"
            },
            {
              "internalType": "uint256[]",
              "name": "lotKeys",
              "type": "uint256[]"
            },
            {
              "internalType": "address",
              "name": "claimedBy",
              "type": "address"
            },
            {
              "internalType": "uint256",
              "name": "rateSettle",
              "type": "uint256"
            },
            {
              "internalType": "uint256",
              "name": "feeSettle",
              "type": "uint256"
            },
            {
              "internalType": "uint256",
              "name": "rewardSettle",
              "type": "uint256"
            }
          ],
          "internalType": "struct Market.Frame",
          "name": "",
          "type": "tuple"
        }
      ],
      "stateMutability": "view",
      "type": "function"
    },
    {
      "inputs": [
        {
          "internalType": "uint256",
          "name": "frameKey",
          "type": "uint256"
        }
      ],
      "name": "getFrameLotKeys",
      "outputs": [
        {
          "internalType": "uint256[]",
          "name": "",
          "type": "uint256[]"
        }
      ],
      "stateMutability": "view",
      "type": "function"
    },
    {
      "inputs": [],
      "name": "getFramesLength",
      "outputs": [
        {
          "internalType": "uint256",
          "name": "",
          "type": "uint256"
        }
      ],
      "stateMutability": "view",
      "type": "function"
    },
    {
      "inputs": [
        {
          "internalType": "uint256",
          "name": "frameKey",
          "type": "uint256"
        },
        {
          "internalType": "uint256",
          "name": "lotKey",
          "type": "uint256"
        }
      ],
      "name": "getLot",
      "outputs": [
        {
          "components": [
            {
              "internalType": "uint256",
              "name": "frameKey",
              "type": "uint256"
            },
            {
              "internalType": "uint256",
              "name": "lotKey",
              "type": "uint256"
            },
            {
              "components": [
                {
                  "internalType": "uint256",
                  "name": "blockNumber",
                  "type": "uint256"
                },
                {
                  "internalType": "uint256",
                  "name": "blockTimestamp",
                  "type": "uint256"
                },
                {
                  "internalType": "address",
                  "name": "owner",
                  "type": "address"
                },
                {
                  "internalType": "uint256",
                  "name": "acquisitionPrice",
                  "type": "uint256"
                },
                {
                  "internalType": "uint256",
                  "name": "taxCharged",
                  "type": "uint256"
                },
                {
                  "internalType": "uint256",
                  "name": "taxRefunded",
                  "type": "uint256"
                }
              ],
              "internalType": "struct Market.LotState[]",
              "name": "states",
              "type": "tuple[]"
            }
          ],
          "internalType": "struct Market.Lot",
          "name": "",
          "type": "tuple"
        }
      ],
      "stateMutability": "view",
      "type": "function"
    },
    {
      "inputs": [
        {
          "internalType": "uint256",
          "name": "frameKey",
          "type": "uint256"
        },
        {
          "internalType": "uint256",
          "name": "lotKey",
          "type": "uint256"
        }
      ],
      "name": "getLotStates",
      "outputs": [
        {
          "components": [
            {
              "internalType": "uint256",
              "name": "blockNumber",
              "type": "uint256"
            },
            {
              "internalType": "uint256",
              "name": "blockTimestamp",
              "type": "uint256"
            },
            {
              "internalType": "address",
              "name": "owner",
              "type": "address"
            },
            {
              "internalType": "uint256",
              "name": "acquisitionPrice",
              "type": "uint256"
            },
            {
              "internalType": "uint256",
              "name": "taxCharged",
              "type": "uint256"
            },
            {
              "internalType": "uint256",
              "name": "taxRefunded",
              "type": "uint256"
            }
          ],
          "internalType": "struct Market.LotState[]",
          "name": "",
          "type": "tuple[]"
        }
      ],
      "stateMutability": "view",
      "type": "function"
    },
    {
      "inputs": [],
      "name": "getLotsArray",
      "outputs": [
        {
          "internalType": "uint256[]",
          "name": "",
          "type": "uint256[]"
        }
      ],
      "stateMutability": "view",
      "type": "function"
    },
    {
      "inputs": [],
      "name": "getLotsArrayLength",
      "outputs": [
        {
          "internalType": "uint256",
          "name": "",
          "type": "uint256"
        }
      ],
      "stateMutability": "view",
      "type": "function"
    },
    {
      "inputs": [
        {
          "internalType": "uint256",
          "name": "frameKey",
          "type": "uint256"
        }
      ],
      "name": "getLotsKeysInFrame",
      "outputs": [
        {
          "internalType": "uint256[]",
          "name": "",
          "type": "uint256[]"
        }
      ],
      "stateMutability": "view",
      "type": "function"
    },
    {
      "inputs": [
        {
          "internalType": "uint256",
          "name": "frameKey",
          "type": "uint256"
        }
      ],
      "name": "getLotsLength",
      "outputs": [
        {
          "internalType": "uint256",
          "name": "",
          "type": "uint256"
        }
      ],
      "stateMutability": "view",
      "type": "function"
    },
    {
      "inputs": [
        {
          "internalType": "uint256",
          "name": "frameKey",
          "type": "uint256"
        }
      ],
      "name": "getStateFrame",
      "outputs": [
        {
          "internalType": "enum Market.SFrame",
          "name": "",
          "type": "uint8"
        }
      ],
      "stateMutability": "view",
      "type": "function"
    },
    {
      "inputs": [
        {
          "internalType": "uint256",
          "name": "frameKey",
          "type": "uint256"
        },
        {
          "internalType": "uint256",
          "name": "lotKey",
          "type": "uint256"
        }
      ],
      "name": "getStateLot",
      "outputs": [
        {
          "internalType": "enum Market.SLot",
          "name": "",
          "type": "uint8"
        }
      ],
      "stateMutability": "view",
      "type": "function"
    },
    {
      "inputs": [],
      "name": "initTimestamp",
      "outputs": [
        {
          "internalType": "uint256",
          "name": "",
          "type": "uint256"
        }
      ],
      "stateMutability": "view",
      "type": "function"
    },
    {
      "inputs": [
        {
          "internalType": "uint256",
          "name": "",
          "type": "uint256"
        },
        {
          "internalType": "uint256",
          "name": "",
          "type": "uint256"
        }
      ],
      "name": "lots",
      "outputs": [
        {
          "internalType": "uint256",
          "name": "frameKey",
          "type": "uint256"
        },
        {
          "internalType": "uint256",
          "name": "lotKey",
          "type": "uint256"
        }
      ],
      "stateMutability": "view",
      "type": "function"
    },
    {
      "inputs": [
        {
          "internalType": "uint256",
          "name": "",
          "type": "uint256"
        }
      ],
      "name": "lotsArray",
      "outputs": [
        {
          "internalType": "uint256",
          "name": "",
          "type": "uint256"
        }
      ],
      "stateMutability": "view",
      "type": "function"
    },
    {
      "inputs": [
        {
          "internalType": "uint256",
          "name": "frameKey",
          "type": "uint256"
        },
        {
          "internalType": "uint256",
          "name": "avgPrice",
          "type": "uint256"
        }
      ],
      "name": "overrideFrameRate",
      "outputs": [],
      "stateMutability": "nonpayable",
      "type": "function"
    },
    {
      "inputs": [],
      "name": "owner",
      "outputs": [
        {
          "internalType": "address",
          "name": "",
          "type": "address"
        }
      ],
      "stateMutability": "view",
      "type": "function"
    },
    {
      "inputs": [],
      "name": "period",
      "outputs": [
        {
          "internalType": "uint256",
          "name": "",
          "type": "uint256"
        }
      ],
      "stateMutability": "view",
      "type": "function"
    },
    {
      "inputs": [
        {
          "internalType": "uint256",
          "name": "frameKey",
          "type": "uint256"
        }
      ],
      "name": "setFrameRate",
      "outputs": [],
      "stateMutability": "nonpayable",
      "type": "function"
    },
    {
      "inputs": [
        {
          "internalType": "uint256",
          "name": "frameKey",
          "type": "uint256"
        }
      ],
      "name": "settleFrame",
      "outputs": [
        {
          "internalType": "uint256",
          "name": "",
          "type": "uint256"
        }
      ],
      "stateMutability": "nonpayable",
      "type": "function"
    },
    {
      "inputs": [],
      "name": "tSettle",
      "outputs": [
        {
          "internalType": "uint256",
          "name": "",
          "type": "uint256"
        }
      ],
      "stateMutability": "view",
      "type": "function"
    },
    {
      "inputs": [],
      "name": "taxMarket",
      "outputs": [
        {
          "internalType": "uint256",
          "name": "",
          "type": "uint256"
        }
      ],
      "stateMutability": "view",
      "type": "function"
    },
    {
      "inputs": [
        {
          "internalType": "uint256",
          "name": "timestamp",
          "type": "uint256"
        },
        {
          "internalType": "uint256",
          "name": "rate",
          "type": "uint256"
        },
        {
          "internalType": "uint256",
          "name": "acquisitionPrice",
          "type": "uint256"
        }
      ],
      "name": "tradeLot",
      "outputs": [],
      "stateMutability": "nonpayable",
      "type": "function"
    },
    {
      "inputs": [],
      "name": "uniswapPool",
      "outputs": [
        {
          "internalType": "contract IUniswapV3Pool",
          "name": "",
          "type": "address"
        }
      ],
      "stateMutability": "view",
      "type": "function"
    },
    {
      "inputs": [
        {
          "internalType": "uint256",
          "name": "amount",
          "type": "uint256"
        }
      ],
      "name": "withdrawAccountingToken",
      "outputs": [],
      "stateMutability": "nonpayable",
      "type": "function"
    }
  ],
  "bytecode": "0x6080604052620151806000908155636592e1806001556002819055610258600355600480546001600160a01b0319167345dda9cb7c25131df268515131f647d726f506081790556305f5e1006005556006553480156200005e57600080fd5b5060405162003c1338038062003c1383398101604081905262000081916200013b565b600880546001600160a01b03199081163317909155600780546001600160a01b0386169216821790556040805163313ce56760e01b8152905163313ce567916004808201926020929091908290030181865afa158015620000e6573d6000803e3d6000fd5b505050506040513d601f19601f820116820180604052508101906200010c919062000180565b6007805460ff92909216600160a01b0260ff60a01b1990921691909117905560029190915560065550620001ac565b6000806000606084860312156200015157600080fd5b83516001600160a01b03811681146200016957600080fd5b602085015160409095015190969495509392505050565b6000602082840312156200019357600080fd5b815160ff81168114620001a557600080fd5b9392505050565b613a5780620001bc6000396000f3fe608060405234801561001057600080fd5b506004361061023d5760003560e01c80638edc6a2c1161013b578063c0423f2e116100b8578063ef78d4fd1161007c578063ef78d4fd1461057e578063f601d51014610587578063fb0d5e09146105ad578063fe687475146105cd578063ffdabe2d146105e057600080fd5b8063c0423f2e14610535578063d18743dd1461053d578063da68cf8b14610550578063e107fb4f14610563578063ed320aa81461057657600080fd5b8063b93dafa9116100ff578063b93dafa9146104a0578063ba4e137f146104e7578063ba52f342146104ef578063bad1265314610502578063bdd3d8251461052257600080fd5b80638edc6a2c146103bc5780639592de18146103df578063a10340bc146103f2578063a73482f61461047a578063b866debb1461048d57600080fd5b8063527eb4bc116101c9578063773d51eb1161018d578063773d51eb1461034c5780637e9966391461036c57806386e670cb146103755780638a5779c8146103885780638da5cb5b1461039157600080fd5b8063527eb4bc146102f457806361eee2cb146102fd57806364772f21146103105780636f1aefc3146103235780637358c57a1461034357600080fd5b80632457e620116102105780632457e6201461026857806339a6a489146102a55780633baf1587146102b8578063499a0fc4146102cb5780634c73884f146102d457600080fd5b8063050e8840146102425780630d0a1c1a1461026857806318d13d8714610288578063197c4e781461029d575b600080fd5b61025561025036600461302a565b6105f3565b6040519081526020015b60405180910390f35b61027b61027636600461302a565b610614565b60405161025f9190613043565b61029b610296366004613087565b610679565b005b600c54610255565b6102556102b336600461302a565b610798565b61029b6102c636600461302a565b610965565b61025560055481565b6102e76102e2366004613087565b610a2f565b60405161025f91906130bf565b61025560025481565b61025561030b36600461302a565b610b5c565b61029b61031e3660046130d9565b610b93565b610336610331366004613087565b610ccc565b60405161025f919061314a565b61025560015481565b61035f61035a36600461302a565b610e23565b60405161025f91906131b5565b61025560065481565b61029b61038336600461302a565b610f4c565b61025560035481565b6008546103a4906001600160a01b031681565b6040516001600160a01b03909116815260200161025f565b6102556103ca36600461302a565b60009081526009602052604090206002015490565b6102556103ed36600461302a565b610fb7565b61043f61040036600461302a565b600960205260009081526040902080546001820154600383015460048401546005850154600690950154939492936001600160a01b0390921692909186565b6040805196875260208701959095526001600160a01b03909316938501939093526060840152608083019190915260a082015260c00161025f565b610255610488366004613087565b610fe2565b61025561049b36600461302a565b611006565b6104d26104ae366004613087565b600b6020908152600092835260408084209091529082529020805460019091015482565b6040805192835260208301919091520161025f565b61025561153e565b6102556104fd36600461302a565b61166e565b61051561051036600461302a565b61167e565b60405161025f9190613255565b6004546103a4906001600160a01b031681565b61027b611715565b61029b61054b36600461302a565b61176d565b6007546103a4906001600160a01b031681565b610255610571366004613087565b611855565b600a54610255565b61025560005481565b60075461059b90600160a01b900460ff1681565b60405160ff909116815260200161025f565b6105c06105bb366004613087565b6119c9565b60405161025f9190613269565b61029b6105db36600461302a565b611a7f565b6102556105ee36600461302a565b611ae9565b600a818154811061060357600080fd5b600091825260209091200154905081565b60008181526009602090815260409182902060020180548351818402810184019094528084526060939283018282801561066d57602002820191906000526020600020905b815481526020019060010190808311610659575b50505050509050919050565b6008546001600160a01b031633146106e85760405162461bcd60e51b815260206004820152602760248201527f4f6e6c79206f776e65722063616e20757064617465206672616d6520636c6f736044820152666520707269636560c81b60648201526084015b60405180910390fd5b60008281526009602052604081205490036107155760405162461bcd60e51b81526004016106df906132a6565b6000828152600960205260409020600301546001600160a01b03161561077d5760405162461bcd60e51b815260206004820181905260248201527f4672616d65207265776172642077617320616c726561647920636c61696d656460448201526064016106df565b60009182526009602052604080832054835290912060010155565b600080805b60008481526009602052604090206002015481101561095e57600084815260096020818152604080842080548552600b8352908420888552929091526002018054839190859081106107f1576107f16132d3565b90600052602060002001548152602001908152602001600020604051806060016040529081600082015481526020016001820154815260200160028201805480602002602001604051908101604052809291908181526020016000905b828210156108bf5760008481526020908190206040805160c08101825260068602909201805483526001808201548486015260028201546001600160a01b03169284019290925260038101546060840152600481015460808401526005015460a0830152908352909201910161084e565b5050505081525050905060005b81604001515181101561094957816040015181815181106108ef576108ef6132d3565b6020026020010151608001518461090691906132ff565b93508160400151818151811061091e5761091e6132d3565b602002602001015160a00151846109359190613312565b93508061094181613325565b9150506108cc565b5050808061095690613325565b91505061079d565b5092915050565b6000805482825260096020526040909120544291610982916132ff565b11156109d05760405162461bcd60e51b815260206004820152601b60248201527f4672616d652068617320746f20626520696e207468652070617374000000000060448201526064016106df565b60006109db82611ae9565b600083815260096020526040908190206001810183905590519192507f861dcb88c2eea524dd3c4d2026fc29c39249f4d090843bcc78037879d296c45291610a23919061333e565b60405180910390a15050565b6000828152600b602090815260408083208484529091528120600101548103610a5a57506000610b56565b6000610a658461167e565b6004811115610a7657610a766130a9565b03610a8357506000610b56565b6001610a8e8461167e565b6004811115610a9f57610a9f6130a9565b1480610ac457506002610ab18461167e565b6004811115610ac257610ac26130a9565b145b15610ad157506001610b56565b6000838152600b602090815260408083208584528252808320600190810154878552600990935292209091015410801590610b4557506005546000848152600b60209081526040808320868452909152902060010154610b3191906132ff565b600084815260096020526040902060010154105b15610b5257506002610b56565b5060035b92915050565b60006001548211610b6f57505060015490565b600054600154610b7f9084613312565b610b8991906133f2565b610b569083613312565b6000610b9e84610b5c565b90506000610bab84610fb7565b6000838152600b6020908152604080832084845290915281206001015491925003610c00576000828152600960205260408120549003610bf057610bee85611d7a565b505b610bfb828285611eb7565b610c75565b6000828152600b6020908152604080832084845290915290206002018054339190610c2d90600190613312565b81548110610c3d57610c3d6132d3565b60009182526020909120600260069092020101546001600160a01b031603610c6a57610bfb828285612246565b610c75828285612613565b6000828152600b602090815260408083208484529091529081902090517f906ff162b3f2709ab28fb678d43913964434148dd206e9b17adb3c1255090cb191610cbd91613406565b60405180910390a15050505050565b610cf060405180606001604052806000815260200160008152602001606081525090565b6000838152600b602090815260408083208584529091528120600101549003610d4f5760405162461bcd60e51b8152602060048201526011602482015270131bdd08191bd95cdb89dd08195e1a5cdd607a1b60448201526064016106df565b6000838152600b602090815260408083208584528252808320815160608101835281548152600182015481850152600282018054845181870281018701865281815292969395948701949293919290919084015b82821015610e145760008481526020908190206040805160c08101825260068602909201805483526001808201548486015260028201546001600160a01b03169284019290925260038101546060840152600481015460808401526005015460a08301529083529092019101610da3565b50505091525090949350505050565b610e6c6040518060e0016040528060008152602001600081526020016060815260200160006001600160a01b031681526020016000815260200160008152602001600081525090565b6000828152600960205260408120549003610e995760405162461bcd60e51b81526004016106df906132a6565b600082815260096020908152604091829020825160e0810184528154815260018201548184015260028201805485518186028101860187528181529295939493860193830182828015610f0b57602002820191906000526020600020905b815481526020019060010190808311610ef7575b505050918352505060038201546001600160a01b03166020820152600482015460408201526005820154606082015260069091015460809091015292915050565b6008546001600160a01b03163314610fb25760405162461bcd60e51b8152602060048201526024808201527f4f6e6c79206f776e65722063616e206368616e6765207461782070657263656e6044820152637461676560e01b60648201526084016106df565b600655565b6000600554821015610fcb57505060055490565b600554610fd881846134b4565b610b5691906134c8565b6000610ff3826402540be4006134c8565b9150610fff83836132ff565b9392505050565b60008181526009602052604081205481036110335760405162461bcd60e51b81526004016106df906132a6565b600361103e8361167e565b600481111561104f5761104f6130a9565b146110a85760405162461bcd60e51b8152602060048201526024808201527f4672616d6520646f6573206e6f742068617665206120636c6f73652072617465604482015263081cd95d60e21b60648201526084016106df565b6000828152600960205260408120600101546110c390610fb7565b6000848152600b60209081526040808320848452825280832081516060810183528154815260018201548185015260028201805484518187028101870186528181529798509596919592949386019391929091879084015b8282101561118c5760008481526020908190206040805160c08101825260068602909201805483526001808201548486015260028201546001600160a01b03169284019290925260038101546060840152600481015460808401526005015460a0830152908352909201910161111b565b5050505081525050905060006111a185610798565b90506000620f4240600254836111b791906134c8565b6111c191906134b4565b600087815260096020526040902060050181905590506111e18183613312565b600087815260096020526040908190206006019190915583015151156113b057600754604084015180516001600160a01b039092169163a9059cbb919061122a90600190613312565b8151811061123a5761123a6132d3565b602002602001015160400151600960008a8152602001908152602001600020600601546040518363ffffffff1660e01b815260040161128e9291906001600160a01b03929092168252602082015260400190565b6020604051808303816000875af11580156112ad573d6000803e3d6000fd5b505050506040513d601f19601f820116820180604052508101906112d191906134f4565b50604083015180516112e590600190613312565b815181106112f5576112f56132d3565b60209081029190910181015160409081015160008981526009909352918190206003810180546001600160a01b0319166001600160a01b03948516179055600754600854600590920154925163a9059cbb60e01b81529184166004830152602482019290925291169063a9059cbb906044016020604051808303816000875af1158015611386573d6000803e3d6000fd5b505050506040513d601f19601f820116820180604052508101906113aa91906134f4565b5061148e565b600754600854600088815260096020526040902060058101546006909101546001600160a01b039384169363a9059cbb9316916113ec916132ff565b6040516001600160e01b031960e085901b1681526001600160a01b03909216600483015260248201526044016020604051808303816000875af1158015611437573d6000803e3d6000fd5b505050506040513d601f19601f8201168201806040525081019061145b91906134f4565b50600854600087815260096020526040902060030180546001600160a01b0319166001600160a01b039092169190911790555b600086815260096020526040908190206001810154600490910155517f906ff162b3f2709ab28fb678d43913964434148dd206e9b17adb3c1255090cb1906114d790859061314a565b60405180910390a16000868152600960205260409081902090517f861dcb88c2eea524dd3c4d2026fc29c39249f4d090843bcc78037879d296c4529161151c9161333e565b60405180910390a1505050600092835250506009602052604090206006015490565b6004805460408051633850c7bd60e01b8152905160009384936001600160a01b031692633850c7bd928183019260e0928290030181865afa158015611587573d6000803e3d6000fd5b505050506040513d601f19601f820116820180604052508101906115ab9190613538565b50505050505090506000600760149054906101000a900460ff1660126115d191906135ce565b60ff16905060006115e382600a6136cb565b6115f6906001600160a01b0385166134c8565b9050611606600160601b826134b4565b90506116136002826136d7565b60075490915061162e90600160a01b900460ff16600a6136d7565b61163890826134c8565b9050806116468360246132ff565b61165190600a6136cb565b61165c9060016134c8565b61166691906134b4565b949350505050565b600c818154811061060357600080fd5b600081815260096020526040812054810361169b57506000919050565b6000828152600960205260409020600301546001600160a01b0316156116c357506004919050565b6000805483825260096020526040909120546116df91906132ff565b4210156116ee57506001919050565b6000828152600960205260409020600101541561170d57506003919050565b506002919050565b6060600c80548060200260200160405190810160405280929190818152602001828054801561176357602002820191906000526020600020905b81548152602001906001019080831161174f575b5050505050905090565b6008546001600160a01b031633146117d85760405162461bcd60e51b815260206004820152602860248201527f4f6e6c79206f776e65722063616e207769746864726177206163636f756e74696044820152673733903a37b5b2b760c11b60648201526084016106df565b60075460085460405163a9059cbb60e01b81526001600160a01b0391821660048201526024810184905291169063a9059cbb906044016020604051808303816000875af115801561182d573d6000803e3d6000fd5b505050506040513d601f19601f8201168201806040525081019061185191906134f4565b5050565b6000426000548461186691906132ff565b116118b35760405162461bcd60e51b815260206004820152601d60248201527f4672616d652068617320746f20626520696e207468652066757475726500000060448201526064016106df565b6007546012600160a01b90910460ff1611156119375760405162461bcd60e51b815260206004820152603c60248201527f4163636f756e74696e6720746f6b656e20646563696d616c732068617320746f60448201527f206265206c657373207468616e206f7220657175616c20746f2031380000000060648201526084016106df565b6000805460065461195090670de0b6b3a76400006134c8565b61195a91906134b4565b90506000426000548661196d91906132ff565b6119779190613312565b60075490915060009061199590600160a01b900460ff1660126136e6565b6119a090600a6136d7565b856119ab85856134c8565b6119b591906134c8565b6119bf91906134b4565b9695505050505050565b6000828152600b602090815260408083208484528252808320600201805482518185028101850190935280835260609492939192909184015b82821015611a735760008481526020908190206040805160c08101825260068602909201805483526001808201548486015260028201546001600160a01b03169284019290925260038101546060840152600481015460808401526005015460a08301529083529092019101611a02565b50505050905092915050565b6008546001600160a01b03163314611ae45760405162461bcd60e51b815260206004820152602260248201527f4f6e6c79206f776e65722063616e206368616e67652070726f746f636f6c2066604482015261656560f01b60648201526084016106df565b600255565b6000806003548342611afb9190613312565b611b0591906132ff565b90506000611b138442613312565b60408051600280825260608201835292935060009290916020830190803683370190505090508281600081518110611b4d57611b4d6132d3565b602002602001019063ffffffff16908163ffffffff16815250508181600181518110611b7b57611b7b6132d3565b63ffffffff909216602092830291909101909101526004805460405163883bdbfd60e01b81526000926001600160a01b039092169163883bdbfd91611bc291869101613715565b600060405180830381865afa158015611bdf573d6000803e3d6000fd5b505050506040513d6000823e601f3d908101601f19168201604052611c07919081019061380f565b509050600081600081518110611c1f57611c1f6132d3565b602002602001015160060b82600181518110611c3d57611c3d6132d3565b602002602001015160060b611c5291906138db565b90506000811215611c9b5760405162461bcd60e51b81526020600482015260136024820152724e65676174697665207469636b2064656c746160681b60448201526064016106df565b806000611cb163ffffffff808816908916613312565b90506000611cbf82846134b4565b600754909150600090611cdd90600160a01b900460ff1660126135ce565b60ff1690506000611ced83612af4565b90506000611cfc83600a6136cb565b611d0f906001600160a01b0384166134c8565b9050611d1f600160601b826134b4565b9050611d2c6002826136d7565b9050611d3b81620f42406134c8565b905080611d498460246132ff565b611d5490600a6136cb565b611d5f9060016134c8565b611d6991906134b4565b9d9c50505050505050505050505050565b600080611d8683610b5c565b60008181526009602052604090205490915015611ddc5760405162461bcd60e51b81526020600482015260146024820152734672616d6520616c72656164792065786973747360601b60448201526064016106df565b4260005482611deb91906132ff565b1015611e395760405162461bcd60e51b815260206004820152601d60248201527f4672616d652068617320746f20626520696e207468652066757475726500000060448201526064016106df565b60008181526009602052604090819020828155600a8054600181019091557fc65a7bb8d6351c1cf70c95a316cc6a92839c986682d98bc35f958f4883f9d2a80183905590517f861dcb88c2eea524dd3c4d2026fc29c39249f4d090843bcc78037879d296c45291611ea99161333e565b60405180910390a192915050565b6000611ec38483611855565b905060008111611ee55760405162461bcd60e51b81526004016106df906138fb565b600754604051636eb1769f60e11b815233600482015230602482015282916001600160a01b03169063dd62ed3e90604401602060405180830381865afa158015611f33573d6000803e3d6000fd5b505050506040513d601f19601f82011682018060405250810190611f579190613958565b1015611f755760405162461bcd60e51b81526004016106df90613971565b7f161bcca7119915b50764b4abe86529797775a5f17195100000000000000000008310611fd65760405162461bcd60e51b815260206004820152600f60248201526e4c6f74206b657920746f6f2062696760881b60448201526064016106df565b6000848152600b60209081526040808320868452909152902060010154156120355760405162461bcd60e51b81526020600482015260126024820152714c6f7420616c72656164792065786973747360701b60448201526064016106df565b6040805160c081018252438152426020808301918252338385019081526060840187815260808501878152600060a087018181528c8252600b86528882208c835286529781208c815560018082018d90556002808301805480840182558186529885208b516006909a0201988955985191880191909155945194860180546001600160a01b0319166001600160a01b03909616959095179094559151600385015551600484015594516005909201919091559286905280549192918291829161210091908190612f44565b509050506121306040518060400160405280600a8152602001690333930b6b2a5b2bc9d160b51b81525087612ed7565b61215a6040518060400160405280600881526020016703637ba25b2bc9d160c51b81525086612ed7565b60006121668787610fe2565b600c805460018181019092557fdf6966c971051c3d54ec59162606531493a51404a002842f56009d7e5cf4a8c7018290556000898152600960209081526040808320878501546002909101805495860181558452919092209092019190915560075490516323b872dd60e01b81529192506001600160a01b0316906323b872dd906121f9903390309089906004016139a8565b6020604051808303816000875af1158015612218573d6000803e3d6000fd5b505050506040513d601f19601f8201168201806040525081019061223c91906134f4565b5050505050505050565b6000838152600b602090815260408083208584529091528120600201805461229d91869161227690600190613312565b81548110612286576122866132d3565b906000526020600020906006020160030154611855565b905060006122ab8584611855565b9050808211156124495760006122c18284613312565b6007546000888152600b602090815260408083208a8452909152902060020180549293506001600160a01b039091169163a9059cbb919061230490600190613312565b81548110612314576123146132d3565b600091825260209091206006909102016002015460405160e083901b6001600160e01b03191681526001600160a01b039091166004820152602481018490526044016020604051808303816000875af1158015612375573d6000803e3d6000fd5b505050506040513d601f19601f8201168201806040525081019061239991906134f4565b506000868152600b602090815260408083208884528252808320815160c0810183524381524281850190815233938201938452606082018a81526080830187815260a084019889526002948501805460018082018355918a529790982093516006909702909301958655905195850195909555915190830180546001600160a01b0319166001600160a01b039092169190911790559151600382015590516004820155905160059091015561260c565b60006124558383613312565b600754604051636eb1769f60e11b815233600482015230602482015291925082916001600160a01b039091169063dd62ed3e90604401602060405180830381865afa1580156124a8573d6000803e3d6000fd5b505050506040513d601f19601f820116820180604052508101906124cc9190613958565b10156124ea5760405162461bcd60e51b81526004016106df90613971565b6007546040516323b872dd60e01b81526001600160a01b03909116906323b872dd9061251e903390309086906004016139a8565b6020604051808303816000875af115801561253d573d6000803e3d6000fd5b505050506040513d601f19601f8201168201806040525081019061256191906134f4565b506000868152600b602090815260408083208884528252808320815160c0810183524381524281850190815233938201938452606082018a81526080830197885260a083018781526002948501805460018082018355918a529790982093516006909702909301958655905195850195909555915190830180546001600160a01b0319166001600160a01b039092169190911790559151600382015591516004830155516005909101555b5050505050565b6000838152600b602090815260408083208584529091528120600201805461263d90600190613312565b8154811061264d5761264d6132d3565b600091825260208220600260069092020101546001600160a01b031691506126758584611855565b9050600081116126975760405162461bcd60e51b81526004016106df906138fb565b6000858152600b60209081526040808320878452909152812060020180546126c190600190613312565b815481106126d1576126d16132d3565b906000526020600020906006020160030154905080826126f191906132ff565b600754604051636eb1769f60e11b81523360048201523060248201526001600160a01b039091169063dd62ed3e90604401602060405180830381865afa15801561273f573d6000803e3d6000fd5b505050506040513d601f19601f820116820180604052508101906127639190613958565b10156127815760405162461bcd60e51b81526004016106df90613971565b6007546040516323b872dd60e01b81526001600160a01b03909116906323b872dd906127b5903390309087906004016139a8565b6020604051808303816000875af11580156127d4573d6000803e3d6000fd5b505050506040513d601f19601f820116820180604052508101906127f891906134f4565b506007546040516323b872dd60e01b81526001600160a01b03909116906323b872dd9061282d903390879086906004016139a8565b6020604051808303816000875af115801561284c573d6000803e3d6000fd5b505050506040513d601f19601f8201168201806040525081019061287091906134f4565b506000868152600b60209081526040808320888452909152812060020180546128a191899161227690600190613312565b60075460405163a9059cbb60e01b81526001600160a01b0387811660048301526024820184905292935091169063a9059cbb906044016020604051808303816000875af11580156128f6573d6000803e3d6000fd5b505050506040513d601f19601f8201168201806040525081019061291a91906134f4565b50600b600088815260200190815260200160002060008781526020019081526020016000206002016040518060c00160405280438152602001428152602001866001600160a01b0316815260200184815260200160008152602001838152509080600181540180825580915050600190039060005260206000209060060201600090919091909150600082015181600001556020820151816001015560408201518160020160006101000a8154816001600160a01b0302191690836001600160a01b03160217905550606082015181600301556080820151816004015560a082015181600501555050600b600088815260200190815260200160002060008781526020019081526020016000206002016040518060c00160405280438152602001428152602001336001600160a01b0316815260200187815260200185815260200160008152509080600181540180825580915050600190039060005260206000209060060201600090919091909150600082015181600001556020820151816001015560408201518160020160006101000a8154816001600160a01b0302191690836001600160a01b03160217905550606082015181600301556080820151816004015560a08201518160050155505050505050505050565b600081620d89e8811115612b2e5760405162461bcd60e51b81526020600482015260016024820152601560fa1b60448201526064016106df565b600081600116600003612b4557600160801b612b57565b6ffffcb933bd6fad37aa2d162d1a5940015b70ffffffffffffffffffffffffffffffffff1690506002821615612b96576080612b91826ffff97272373d413259a46990580e213a6134c8565b901c90505b6004821615612bc0576080612bbb826ffff2e50f5f656932ef12357cf3c7fdcc6134c8565b901c90505b6008821615612bea576080612be5826fffe5caca7e10e4e61c3624eaa0941cd06134c8565b901c90505b6010821615612c14576080612c0f826fffcb9843d60f6159c9db58835c9266446134c8565b901c90505b6020821615612c3e576080612c39826fff973b41fa98c081472e6896dfb254c06134c8565b901c90505b6040821615612c68576080612c63826fff2ea16466c96a3843ec78b326b528616134c8565b901c90505b6080821615612c92576080612c8d826ffe5dee046a99a2a811c461f1969c30536134c8565b901c90505b610100821615612cbd576080612cb8826ffcbe86c7900a88aedcffc83b479aa3a46134c8565b901c90505b610200821615612ce8576080612ce3826ff987a7253ac413176f2b074cf7815e546134c8565b901c90505b610400821615612d13576080612d0e826ff3392b0822b70005940c7a398e4b70f36134c8565b901c90505b610800821615612d3e576080612d39826fe7159475a2c29b7443b29c7fa6e889d96134c8565b901c90505b611000821615612d69576080612d64826fd097f3bdfd2022b8845ad8f792aa58256134c8565b901c90505b612000821615612d94576080612d8f826fa9f746462d870fdf8a65dc1f90e061e56134c8565b901c90505b614000821615612dbf576080612dba826f70d869a156d2a1b890bb3df62baf32f76134c8565b901c90505b618000821615612dea576080612de5826f31be135f97d08fd981231505542fcfa66134c8565b901c90505b62010000821615612e16576080612e11826f09aa508b5b7a84e1c677de54f3e99bc96134c8565b901c90505b62020000821615612e41576080612e3c826e5d6af8dedb81196699c329225ee6046134c8565b901c90505b62040000821615612e6b576080612e66826d2216e584f5fa1ea926041bedfe986134c8565b901c90505b62080000821615612e93576080612e8e826b048a170391f7dc42444e8fa26134c8565b901c90505b8315612ea857612ea5816000196134b4565b90505b612eb7640100000000826133f2565b15612ec3576001612ec6565b60005b6116669060ff16602083901c6132ff565b6118518282604051602401612eed9291906139cc565b60408051601f198184030181529190526020810180516001600160e01b0316632d839cb360e21b179052612f2081612f23565b50565b60006a636f6e736f6c652e6c6f679050600080835160208501845afa505050565b828054828255906000526020600020906006028101928215612fd85760005260206000209160060282015b82811115612fd857825482556001808401549083015560028084015490830180546001600160a01b0319166001600160a01b0390921691909117905560038084015490830155600480840154908301556005808401549083015560069283019290910190612f6f565b50612fe4929150612fe8565b5090565b5b80821115612fe4576000808255600182018190556002820180546001600160a01b031916905560038201819055600482018190556005820155600601612fe9565b60006020828403121561303c57600080fd5b5035919050565b6020808252825182820181905260009190848201906040850190845b8181101561307b5783518352928401929184019160010161305f565b50909695505050505050565b6000806040838503121561309a57600080fd5b50508035926020909101359150565b634e487b7160e01b600052602160045260246000fd5b60208101600483106130d3576130d36130a9565b91905290565b6000806000606084860312156130ee57600080fd5b505081359360208301359350604090920135919050565b80518252602080820151908301526040808201516001600160a01b031690830152606080820151908301526080808201519083015260a0908101519082015260c00190565b6000602080835260808301845182850152818501516040850152604085015160608086015281815180845260a0870191508483019350600092505b808310156131aa57613198828551613105565b91508484019350600183019250613185565b509695505050505050565b600060208083526101008301845182850152818501516040850152604085015160e06060860152818151808452610120870191508483019350600092505b8083101561321357835182529284019260019290920191908401906131f3565b5060608701516001600160a01b03811660808801529350608087015160a087015260a087015160c087015260c087015160e08701528094505050505092915050565b60208101600583106130d3576130d36130a9565b6020808252825182820181905260009190848201906040850190845b8181101561307b57613298838551613105565b938501939250600101613285565b602080825260139082015272119c985b5948191bd95cdb89dd08195e1a5cdd606a1b604082015260600190565b634e487b7160e01b600052603260045260246000fd5b634e487b7160e01b600052601160045260246000fd5b80820180821115610b5657610b566132e9565b81810381811115610b5657610b566132e9565b600060018201613337576133376132e9565b5060010190565b6020808252825482820152600180840154604084015260e06060840152600284018054610100850181905260009182528382209193929084906101208701905b8083101561339b578454825293830193918301919085019061337e565b5060038801546001600160a01b03166080880152600488015460a0880152600588015460c088015260069097015460e0909601959095525093949350505050565b634e487b7160e01b600052601260045260246000fd5b600082613401576134016133dc565b500690565b6000602080835260808084018554838601526001808701546040818189015260029150818901606080818b015285825480885260a09750878c0191508360005289600020935060005b818110156134a25784548352878501548b840152868501546001600160a01b03168684015260038501548484015260048501548a84015260058501548984015260069094019360c090920191870161344f565b50909c9b505050505050505050505050565b6000826134c3576134c36133dc565b500490565b8082028115828204841417610b5657610b566132e9565b805180151581146134ef57600080fd5b919050565b60006020828403121561350657600080fd5b610fff826134df565b80516001600160a01b03811681146134ef57600080fd5b805161ffff811681146134ef57600080fd5b600080600080600080600060e0888a03121561355357600080fd5b61355c8861350f565b965060208801518060020b811461357257600080fd5b955061358060408901613526565b945061358e60608901613526565b935061359c60808901613526565b925060a088015160ff811681146135b257600080fd5b91506135c060c089016134df565b905092959891949750929550565b60ff8281168282160390811115610b5657610b566132e9565b600181815b80851115613622578160001904821115613608576136086132e9565b8085161561361557918102915b93841c93908002906135ec565b509250929050565b60008261363957506001610b56565b8161364657506000610b56565b816001811461365c576002811461366657613682565b6001915050610b56565b60ff841115613677576136776132e9565b50506001821b610b56565b5060208310610133831016604e8410600b84101617156136a5575081810a610b56565b6136af83836135e7565b80600019048211156136c3576136c36132e9565b029392505050565b6000610fff838361362a565b6000610fff60ff84168361362a565b60ff8181168382160190811115610b5657610b566132e9565b634e487b7160e01b600052604160045260246000fd5b6020808252825182820181905260009190848201906040850190845b8181101561307b57835163ffffffff1683529284019291840191600101613731565b604051601f8201601f1916810167ffffffffffffffff8111828210171561377c5761377c6136ff565b604052919050565b600067ffffffffffffffff82111561379e5761379e6136ff565b5060051b60200190565b600082601f8301126137b957600080fd5b815160206137ce6137c983613784565b613753565b82815260059290921b840181019181810190868411156137ed57600080fd5b8286015b848110156131aa576138028161350f565b83529183019183016137f1565b6000806040838503121561382257600080fd5b825167ffffffffffffffff8082111561383a57600080fd5b818501915085601f83011261384e57600080fd5b8151602061385e6137c983613784565b82815260059290921b8401810191818101908984111561387d57600080fd5b948201945b838610156138ab5785518060060b811461389c5760008081fd5b82529482019490820190613882565b918801519196509093505050808211156138c457600080fd5b506138d1858286016137a8565b9150509250929050565b818103600083128015838313168383128216171561095e5761095e6132e9565b6020808252603c908201527f5461782068617320746f2062652067726561746572207468616e20302e20496e60408201527f63726561736520746865206163717569736974696f6e20707269636500000000606082015260800190565b60006020828403121561396a57600080fd5b5051919050565b6020808252601e908201527f416c6c6f77616e636520746f207370656e642073657420746f6f206c6f770000604082015260600190565b6001600160a01b039384168152919092166020820152604081019190915260600190565b604081526000835180604084015260005b818110156139fa57602081870181015160608684010152016139dd565b506000606082850101526060601f19601f830116840101915050826020830152939250505056fea2646970667358221220b84fd606955667176c9d0c00801068b531ba3f84029cecd47ffc12bce998260c64736f6c63430008140033",
  "linkReferences": {},
  "deployedLinkReferences": {}
}