{
  "_format": "hh-sol-artifact-1",
  "contractName": "Market",
  "sourceName": "contracts/Market.sol",
  "abi": [
    {
      "inputs": [
        {
          "internalType": "address",
          "name": "_acct",
          "type": "address"
        },
        {
          "internalType": "uint256",
          "name": "_feeProtocol",
          "type": "uint256"
        },
        {
          "internalType": "uint256",
          "name": "_taxMarket",
          "type": "uint256"
        },
        {
          "internalType": "uint256",
          "name": "_dPrice",
          "type": "uint256"
        },
        {
          "internalType": "address",
          "name": "_uniswapPool",
          "type": "address"
        }
      ],
      "stateMutability": "nonpayable",
      "type": "constructor"
    },
    {
      "anonymous": false,
      "inputs": [
        {
          "indexed": false,
          "internalType": "uint256",
          "name": "fromFrame",
          "type": "uint256"
        },
        {
          "indexed": false,
          "internalType": "uint256",
          "name": "toFrame",
          "type": "uint256"
        },
        {
          "indexed": false,
          "internalType": "uint256",
          "name": "amount",
          "type": "uint256"
        }
      ],
      "name": "FrameRollover",
      "type": "event"
    },
    {
      "anonymous": false,
      "inputs": [
        {
          "components": [
            {
              "internalType": "uint256",
              "name": "frameKey",
              "type": "uint256"
            },
            {
              "internalType": "uint256",
              "name": "rate",
              "type": "uint256"
            },
            {
              "internalType": "uint256[]",
              "name": "lotKeys",
              "type": "uint256[]"
            },
            {
              "internalType": "address",
              "name": "claimedBy",
              "type": "address"
            },
            {
              "internalType": "uint256",
              "name": "rateSettle",
              "type": "uint256"
            },
            {
              "internalType": "uint256",
              "name": "feeSettle",
              "type": "uint256"
            },
            {
              "internalType": "uint256",
              "name": "rewardSettle",
              "type": "uint256"
            },
            {
              "internalType": "uint256",
              "name": "rewardPool",
              "type": "uint256"
            }
          ],
          "indexed": false,
          "internalType": "struct Market.Frame",
          "name": "frame",
          "type": "tuple"
        }
      ],
      "name": "FrameUpdate",
      "type": "event"
    },
    {
      "anonymous": false,
      "inputs": [
        {
          "components": [
            {
              "internalType": "uint256",
              "name": "frameKey",
              "type": "uint256"
            },
            {
              "internalType": "uint256",
              "name": "lotKey",
              "type": "uint256"
            },
            {
              "components": [
                {
                  "internalType": "uint256",
                  "name": "blockNumber",
                  "type": "uint256"
                },
                {
                  "internalType": "uint256",
                  "name": "blockTimestamp",
                  "type": "uint256"
                },
                {
                  "internalType": "address",
                  "name": "owner",
                  "type": "address"
                },
                {
                  "internalType": "uint256",
                  "name": "acquisitionPrice",
                  "type": "uint256"
                },
                {
                  "internalType": "uint256",
                  "name": "taxCharged",
                  "type": "uint256"
                }
              ],
              "internalType": "struct Market.LotState[]",
              "name": "states",
              "type": "tuple[]"
            }
          ],
          "indexed": false,
          "internalType": "struct Market.Lot",
          "name": "lot",
          "type": "tuple"
        }
      ],
      "name": "LotUpdate",
      "type": "event"
    },
    {
      "anonymous": false,
      "inputs": [
        {
          "indexed": true,
          "internalType": "address",
          "name": "winner",
          "type": "address"
        },
        {
          "indexed": false,
          "internalType": "uint256",
          "name": "amount",
          "type": "uint256"
        },
        {
          "indexed": false,
          "internalType": "uint256",
          "name": "frameKey",
          "type": "uint256"
        }
      ],
      "name": "RewardDistributed",
      "type": "event"
    },
    {
      "anonymous": false,
      "inputs": [
        {
          "indexed": true,
          "internalType": "address",
          "name": "user",
          "type": "address"
        },
        {
          "indexed": false,
          "internalType": "uint256",
          "name": "amount",
          "type": "uint256"
        },
        {
          "indexed": false,
          "internalType": "uint256",
          "name": "frameKey",
          "type": "uint256"
        }
      ],
      "name": "TaxCollected",
      "type": "event"
    },
    {
      "inputs": [],
      "name": "accountingToken",
      "outputs": [
        {
          "internalType": "contract IERC20Metadata",
          "name": "",
          "type": "address"
        }
      ],
      "stateMutability": "view",
      "type": "function"
    },
    {
      "inputs": [],
      "name": "accountingTokenDecimals",
      "outputs": [
        {
          "internalType": "uint8",
          "name": "",
          "type": "uint8"
        }
      ],
      "stateMutability": "view",
      "type": "function"
    },
    {
      "inputs": [],
      "name": "baseUnit",
      "outputs": [
        {
          "internalType": "uint256",
          "name": "",
          "type": "uint256"
        }
      ],
      "stateMutability": "view",
      "type": "function"
    },
    {
      "inputs": [
        {
          "internalType": "uint256",
          "name": "newFee",
          "type": "uint256"
        }
      ],
      "name": "changeProtocolFee",
      "outputs": [],
      "stateMutability": "nonpayable",
      "type": "function"
    },
    {
      "inputs": [
        {
          "internalType": "uint256",
          "name": "newTax",
          "type": "uint256"
        }
      ],
      "name": "changeTaxPercentage",
      "outputs": [],
      "stateMutability": "nonpayable",
      "type": "function"
    },
    {
      "inputs": [
        {
          "internalType": "uint256",
          "name": "timestamp",
          "type": "uint256"
        }
      ],
      "name": "clcFrameKey",
      "outputs": [
        {
          "internalType": "uint256",
          "name": "",
          "type": "uint256"
        }
      ],
      "stateMutability": "view",
      "type": "function"
    },
    {
      "inputs": [
        {
          "internalType": "uint256",
          "name": "valueQ96",
          "type": "uint256"
        }
      ],
      "name": "clcLotKey",
      "outputs": [
        {
          "internalType": "uint256",
          "name": "",
          "type": "uint256"
        }
      ],
      "stateMutability": "view",
      "type": "function"
    },
    {
      "inputs": [],
      "name": "clcRate",
      "outputs": [
        {
          "internalType": "uint256",
          "name": "",
          "type": "uint256"
        }
      ],
      "stateMutability": "view",
      "type": "function"
    },
    {
      "inputs": [
        {
          "internalType": "uint256",
          "name": "timestamp",
          "type": "uint256"
        }
      ],
      "name": "clcRateAvg",
      "outputs": [
        {
          "internalType": "uint256",
          "name": "",
          "type": "uint256"
        }
      ],
      "stateMutability": "view",
      "type": "function"
    },
    {
      "inputs": [
        {
          "internalType": "uint256",
          "name": "frameKey",
          "type": "uint256"
        },
        {
          "internalType": "uint256",
          "name": "acquisitionPriceQ96",
          "type": "uint256"
        }
      ],
      "name": "clcTax",
      "outputs": [
        {
          "internalType": "uint256",
          "name": "",
          "type": "uint256"
        }
      ],
      "stateMutability": "view",
      "type": "function"
    },
    {
      "inputs": [
        {
          "internalType": "uint256",
          "name": "frameKey",
          "type": "uint256"
        },
        {
          "internalType": "uint256",
          "name": "lotKey",
          "type": "uint256"
        }
      ],
      "name": "concatenate",
      "outputs": [
        {
          "internalType": "uint256",
          "name": "concatenated",
          "type": "uint256"
        }
      ],
      "stateMutability": "pure",
      "type": "function"
    },
    {
      "inputs": [
        {
          "internalType": "uint256",
          "name": "amount18Dec",
          "type": "uint256"
        },
        {
          "internalType": "bool",
          "name": "round",
          "type": "bool"
        }
      ],
      "name": "convertToTokenDecimals",
      "outputs": [
        {
          "internalType": "uint256",
          "name": "",
          "type": "uint256"
        }
      ],
      "stateMutability": "view",
      "type": "function"
    },
    {
      "inputs": [],
      "name": "dPrice",
      "outputs": [
        {
          "internalType": "uint256",
          "name": "",
          "type": "uint256"
        }
      ],
      "stateMutability": "view",
      "type": "function"
    },
    {
      "inputs": [],
      "name": "feeProtocol",
      "outputs": [
        {
          "internalType": "uint256",
          "name": "",
          "type": "uint256"
        }
      ],
      "stateMutability": "view",
      "type": "function"
    },
    {
      "inputs": [
        {
          "internalType": "uint256",
          "name": "",
          "type": "uint256"
        }
      ],
      "name": "frameKeyToIndex",
      "outputs": [
        {
          "internalType": "uint256",
          "name": "",
          "type": "uint256"
        }
      ],
      "stateMutability": "view",
      "type": "function"
    },
    {
      "inputs": [
        {
          "internalType": "uint256",
          "name": "",
          "type": "uint256"
        }
      ],
      "name": "frames",
      "outputs": [
        {
          "internalType": "uint256",
          "name": "frameKey",
          "type": "uint256"
        },
        {
          "internalType": "uint256",
          "name": "rate",
          "type": "uint256"
        },
        {
          "internalType": "address",
          "name": "claimedBy",
          "type": "address"
        },
        {
          "internalType": "uint256",
          "name": "rateSettle",
          "type": "uint256"
        },
        {
          "internalType": "uint256",
          "name": "feeSettle",
          "type": "uint256"
        },
        {
          "internalType": "uint256",
          "name": "rewardSettle",
          "type": "uint256"
        },
        {
          "internalType": "uint256",
          "name": "rewardPool",
          "type": "uint256"
        }
      ],
      "stateMutability": "view",
      "type": "function"
    },
    {
      "inputs": [
        {
          "internalType": "uint256",
          "name": "",
          "type": "uint256"
        }
      ],
      "name": "framesKeys",
      "outputs": [
        {
          "internalType": "uint256",
          "name": "",
          "type": "uint256"
        }
      ],
      "stateMutability": "view",
      "type": "function"
    },
    {
      "inputs": [
        {
          "internalType": "uint256",
          "name": "x96",
          "type": "uint256"
        }
      ],
      "name": "fromQ96",
      "outputs": [
        {
          "internalType": "uint256",
          "name": "",
          "type": "uint256"
        }
      ],
      "stateMutability": "view",
      "type": "function"
    },
    {
      "inputs": [
        {
          "internalType": "uint256",
          "name": "frameKey",
          "type": "uint256"
        }
      ],
      "name": "getFrame",
      "outputs": [
        {
          "components": [
            {
              "internalType": "uint256",
              "name": "frameKey",
              "type": "uint256"
            },
            {
              "internalType": "uint256",
              "name": "rate",
              "type": "uint256"
            },
            {
              "internalType": "uint256[]",
              "name": "lotKeys",
              "type": "uint256[]"
            },
            {
              "internalType": "address",
              "name": "claimedBy",
              "type": "address"
            },
            {
              "internalType": "uint256",
              "name": "rateSettle",
              "type": "uint256"
            },
            {
              "internalType": "uint256",
              "name": "feeSettle",
              "type": "uint256"
            },
            {
              "internalType": "uint256",
              "name": "rewardSettle",
              "type": "uint256"
            },
            {
              "internalType": "uint256",
              "name": "rewardPool",
              "type": "uint256"
            }
          ],
          "internalType": "struct Market.Frame",
          "name": "",
          "type": "tuple"
        }
      ],
      "stateMutability": "view",
      "type": "function"
    },
    {
      "inputs": [
        {
          "internalType": "uint256",
          "name": "frameKey",
          "type": "uint256"
        }
      ],
      "name": "getFrameIndex",
      "outputs": [
        {
          "internalType": "uint256",
          "name": "",
          "type": "uint256"
        }
      ],
      "stateMutability": "view",
      "type": "function"
    },
    {
      "inputs": [
        {
          "internalType": "uint256",
          "name": "frameKey",
          "type": "uint256"
        }
      ],
      "name": "getFrameLotKeys",
      "outputs": [
        {
          "internalType": "uint256[]",
          "name": "",
          "type": "uint256[]"
        }
      ],
      "stateMutability": "view",
      "type": "function"
    },
    {
      "inputs": [],
      "name": "getFramesLength",
      "outputs": [
        {
          "internalType": "uint256",
          "name": "",
          "type": "uint256"
        }
      ],
      "stateMutability": "view",
      "type": "function"
    },
    {
      "inputs": [],
      "name": "getGlobalRewardPool",
      "outputs": [
        {
          "internalType": "uint256",
          "name": "",
          "type": "uint256"
        }
      ],
      "stateMutability": "view",
      "type": "function"
    },
    {
      "inputs": [
        {
          "internalType": "uint256",
          "name": "frameKey",
          "type": "uint256"
        },
        {
          "internalType": "uint256",
          "name": "lotKey",
          "type": "uint256"
        }
      ],
      "name": "getLot",
      "outputs": [
        {
          "components": [
            {
              "internalType": "uint256",
              "name": "frameKey",
              "type": "uint256"
            },
            {
              "internalType": "uint256",
              "name": "lotKey",
              "type": "uint256"
            },
            {
              "components": [
                {
                  "internalType": "uint256",
                  "name": "blockNumber",
                  "type": "uint256"
                },
                {
                  "internalType": "uint256",
                  "name": "blockTimestamp",
                  "type": "uint256"
                },
                {
                  "internalType": "address",
                  "name": "owner",
                  "type": "address"
                },
                {
                  "internalType": "uint256",
                  "name": "acquisitionPrice",
                  "type": "uint256"
                },
                {
                  "internalType": "uint256",
                  "name": "taxCharged",
                  "type": "uint256"
                }
              ],
              "internalType": "struct Market.LotState[]",
              "name": "states",
              "type": "tuple[]"
            }
          ],
          "internalType": "struct Market.Lot",
          "name": "",
          "type": "tuple"
        }
      ],
      "stateMutability": "view",
      "type": "function"
    },
    {
      "inputs": [
        {
          "internalType": "uint256",
          "name": "frameKey",
          "type": "uint256"
        },
        {
          "internalType": "uint256",
          "name": "lotKey",
          "type": "uint256"
        }
      ],
      "name": "getLotStates",
      "outputs": [
        {
          "components": [
            {
              "internalType": "uint256",
              "name": "blockNumber",
              "type": "uint256"
            },
            {
              "internalType": "uint256",
              "name": "blockTimestamp",
              "type": "uint256"
            },
            {
              "internalType": "address",
              "name": "owner",
              "type": "address"
            },
            {
              "internalType": "uint256",
              "name": "acquisitionPrice",
              "type": "uint256"
            },
            {
              "internalType": "uint256",
              "name": "taxCharged",
              "type": "uint256"
            }
          ],
          "internalType": "struct Market.LotState[]",
          "name": "",
          "type": "tuple[]"
        }
      ],
      "stateMutability": "view",
      "type": "function"
    },
    {
      "inputs": [],
      "name": "getLotsArray",
      "outputs": [
        {
          "internalType": "uint256[]",
          "name": "",
          "type": "uint256[]"
        }
      ],
      "stateMutability": "view",
      "type": "function"
    },
    {
      "inputs": [],
      "name": "getLotsArrayLength",
      "outputs": [
        {
          "internalType": "uint256",
          "name": "",
          "type": "uint256"
        }
      ],
      "stateMutability": "view",
      "type": "function"
    },
    {
      "inputs": [
        {
          "internalType": "uint256",
          "name": "frameKey",
          "type": "uint256"
        }
      ],
      "name": "getLotsKeysInFrame",
      "outputs": [
        {
          "internalType": "uint256[]",
          "name": "",
          "type": "uint256[]"
        }
      ],
      "stateMutability": "view",
      "type": "function"
    },
    {
      "inputs": [
        {
          "internalType": "uint256",
          "name": "frameKey",
          "type": "uint256"
        }
      ],
      "name": "getLotsLength",
      "outputs": [
        {
          "internalType": "uint256",
          "name": "",
          "type": "uint256"
        }
      ],
      "stateMutability": "view",
      "type": "function"
    },
    {
      "inputs": [],
      "name": "getPendingRewardForNextSettlement",
      "outputs": [
        {
          "internalType": "uint256",
          "name": "",
          "type": "uint256"
        }
      ],
      "stateMutability": "view",
      "type": "function"
    },
    {
      "inputs": [
        {
          "internalType": "uint256",
          "name": "frameKey",
          "type": "uint256"
        }
      ],
      "name": "getStateFrame",
      "outputs": [
        {
          "internalType": "enum Market.SFrame",
          "name": "",
          "type": "uint8"
        }
      ],
      "stateMutability": "view",
      "type": "function"
    },
    {
      "inputs": [
        {
          "internalType": "uint256",
          "name": "frameKey",
          "type": "uint256"
        },
        {
          "internalType": "uint256",
          "name": "lotKey",
          "type": "uint256"
        }
      ],
      "name": "getStateLot",
      "outputs": [
        {
          "internalType": "enum Market.SLot",
          "name": "",
          "type": "uint8"
        }
      ],
      "stateMutability": "view",
      "type": "function"
    },
    {
      "inputs": [
        {
          "internalType": "address",
          "name": "user",
          "type": "address"
        }
      ],
      "name": "getUserStats",
      "outputs": [
        {
          "internalType": "uint256",
          "name": "totalTaxPaid",
          "type": "uint256"
        },
        {
          "internalType": "uint256",
          "name": "totalWinnings",
          "type": "uint256"
        },
        {
          "internalType": "uint256",
          "name": "netPosition",
          "type": "uint256"
        }
      ],
      "stateMutability": "view",
      "type": "function"
    },
    {
      "inputs": [],
      "name": "initTimestamp",
      "outputs": [
        {
          "internalType": "uint256",
          "name": "",
          "type": "uint256"
        }
      ],
      "stateMutability": "view",
      "type": "function"
    },
    {
      "inputs": [],
      "name": "lastSettledFrameIndex",
      "outputs": [
        {
          "internalType": "uint256",
          "name": "",
          "type": "uint256"
        }
      ],
      "stateMutability": "view",
      "type": "function"
    },
    {
      "inputs": [
        {
          "internalType": "uint256",
          "name": "",
          "type": "uint256"
        },
        {
          "internalType": "uint256",
          "name": "",
          "type": "uint256"
        }
      ],
      "name": "lots",
      "outputs": [
        {
          "internalType": "uint256",
          "name": "frameKey",
          "type": "uint256"
        },
        {
          "internalType": "uint256",
          "name": "lotKey",
          "type": "uint256"
        }
      ],
      "stateMutability": "view",
      "type": "function"
    },
    {
      "inputs": [
        {
          "internalType": "uint256",
          "name": "",
          "type": "uint256"
        }
      ],
      "name": "lotsArray",
      "outputs": [
        {
          "internalType": "uint256",
          "name": "",
          "type": "uint256"
        }
      ],
      "stateMutability": "view",
      "type": "function"
    },
    {
      "inputs": [
        {
          "internalType": "uint256",
          "name": "frameKey",
          "type": "uint256"
        },
        {
          "internalType": "uint256",
          "name": "avgPrice",
          "type": "uint256"
        }
      ],
      "name": "overrideFrameRate",
      "outputs": [],
      "stateMutability": "nonpayable",
      "type": "function"
    },
    {
      "inputs": [],
      "name": "owner",
      "outputs": [
        {
          "internalType": "address",
          "name": "",
          "type": "address"
        }
      ],
      "stateMutability": "view",
      "type": "function"
    },
    {
      "inputs": [],
      "name": "period",
      "outputs": [
        {
          "internalType": "uint256",
          "name": "",
          "type": "uint256"
        }
      ],
      "stateMutability": "view",
      "type": "function"
    },
    {
      "inputs": [],
      "name": "rewardPool",
      "outputs": [
        {
          "internalType": "uint256",
          "name": "",
          "type": "uint256"
        }
      ],
      "stateMutability": "view",
      "type": "function"
    },
    {
      "inputs": [
        {
          "internalType": "uint256",
          "name": "frameKey",
          "type": "uint256"
        }
      ],
      "name": "setFrameRate",
      "outputs": [],
      "stateMutability": "nonpayable",
      "type": "function"
    },
    {
      "inputs": [],
      "name": "settleFrame",
      "outputs": [
        {
          "internalType": "uint256",
          "name": "",
          "type": "uint256"
        }
      ],
      "stateMutability": "nonpayable",
      "type": "function"
    },
    {
      "inputs": [],
      "name": "tSettle",
      "outputs": [
        {
          "internalType": "uint256",
          "name": "",
          "type": "uint256"
        }
      ],
      "stateMutability": "view",
      "type": "function"
    },
    {
      "inputs": [],
      "name": "taxMarket",
      "outputs": [
        {
          "internalType": "uint256",
          "name": "",
          "type": "uint256"
        }
      ],
      "stateMutability": "view",
      "type": "function"
    },
    {
      "inputs": [
        {
          "internalType": "uint256",
          "name": "amount",
          "type": "uint256"
        }
      ],
      "name": "toQ96",
      "outputs": [
        {
          "internalType": "uint256",
          "name": "",
          "type": "uint256"
        }
      ],
      "stateMutability": "view",
      "type": "function"
    },
    {
      "inputs": [],
      "name": "totalRewardsDistributed",
      "outputs": [
        {
          "internalType": "uint256",
          "name": "",
          "type": "uint256"
        }
      ],
      "stateMutability": "view",
      "type": "function"
    },
    {
      "inputs": [],
      "name": "totalTaxesCollected",
      "outputs": [
        {
          "internalType": "uint256",
          "name": "",
          "type": "uint256"
        }
      ],
      "stateMutability": "view",
      "type": "function"
    },
    {
      "inputs": [
        {
          "internalType": "uint256",
          "name": "timestamp",
          "type": "uint256"
        },
        {
          "internalType": "uint256",
          "name": "rate",
          "type": "uint256"
        },
        {
          "internalType": "uint256",
          "name": "acquisitionPrice",
          "type": "uint256"
        }
      ],
      "name": "tradeLot",
      "outputs": [],
      "stateMutability": "nonpayable",
      "type": "function"
    },
    {
      "inputs": [],
      "name": "uniswapPool",
      "outputs": [
        {
          "internalType": "contract IUniswapV3Pool",
          "name": "",
          "type": "address"
        }
      ],
      "stateMutability": "view",
      "type": "function"
    },
    {
      "inputs": [
        {
          "internalType": "address",
          "name": "",
          "type": "address"
        }
      ],
      "name": "userTotalTaxPaid",
      "outputs": [
        {
          "internalType": "uint256",
          "name": "",
          "type": "uint256"
        }
      ],
      "stateMutability": "view",
      "type": "function"
    },
    {
      "inputs": [
        {
          "internalType": "address",
          "name": "",
          "type": "address"
        }
      ],
      "name": "userTotalWinnings",
      "outputs": [
        {
          "internalType": "uint256",
          "name": "",
          "type": "uint256"
        }
      ],
      "stateMutability": "view",
      "type": "function"
    },
    {
      "inputs": [
        {
          "internalType": "uint256",
          "name": "amount",
          "type": "uint256"
        }
      ],
      "name": "withdrawAccountingToken",
      "outputs": [],
      "stateMutability": "nonpayable",
      "type": "function"
    }
  ],
  "bytecode": "0x60a060405262015180600055636592e1806001556000600255610258600355600060055560006006553480156200003557600080fd5b50604051620048363803806200483683398101604081905262000058916200037e565b600a80546101003302610100600160a81b0319909116179055600480546001600160a01b038381166001600160a01b0319928316178355600780549189169190921681179091556040805163313ce56760e01b81529051919263313ce5679282820192602092908290030181865afa158015620000d9573d6000803e3d6000fd5b505050506040513d601f19601f82011682018060405250810190620000ff9190620003d3565b600a805460ff191660ff9290921691821781556200011e91906200050b565b60808190526200014a906064906200013890879062000519565b62000144919062000533565b6200018c565b60025560805162000165906064906200013890869062000519565b6006556080516200017d906200014490849062000519565b60055550620005829350505050565b6000620001b0826c01000000000000000000000000608051620001b660201b60201c565b92915050565b6000808060001985870985870292508281108382030391505080600003620001f25760008411620001e657600080fd5b5082900490506200035a565b808411620001ff57600080fd5b600084868809808403938111909203919050600085620002228119600162000556565b1695869004959384900493600081900304600101905062000244818462000519565b9093179260006200025787600362000519565b600218905062000268818862000519565b620002759060026200056c565b62000281908262000519565b90506200028f818862000519565b6200029c9060026200056c565b620002a8908262000519565b9050620002b6818862000519565b620002c39060026200056c565b620002cf908262000519565b9050620002dd818862000519565b620002ea9060026200056c565b620002f6908262000519565b905062000304818862000519565b620003119060026200056c565b6200031d908262000519565b90506200032b818862000519565b620003389060026200056c565b62000344908262000519565b905062000352818662000519565b955050505050505b9392505050565b80516001600160a01b03811681146200037957600080fd5b919050565b600080600080600060a086880312156200039757600080fd5b620003a28662000361565b9450602086015193506040860151925060608601519150620003c76080870162000361565b90509295509295909350565b600060208284031215620003e657600080fd5b815160ff811681146200035a57600080fd5b634e487b7160e01b600052601160045260246000fd5b600181815b808511156200044f578160001904821115620004335762000433620003f8565b808516156200044157918102915b93841c939080029062000413565b509250929050565b6000826200046857506001620001b0565b816200047757506000620001b0565b81600181146200049057600281146200049b57620004bb565b6001915050620001b0565b60ff841115620004af57620004af620003f8565b50506001821b620001b0565b5060208310610133831016604e8410600b8410161715620004e0575081810a620001b0565b620004ec83836200040e565b8060001904821115620005035762000503620003f8565b029392505050565b60006200035a838362000457565b8082028115828204841417620001b057620001b0620003f8565b6000826200055157634e487b7160e01b600052601260045260246000fd5b500490565b80820180821115620001b057620001b0620003f8565b81810381811115620001b057620001b0620003f8565b60805161428a620005ac6000396000818161071801528181610a4301526112af015261428a6000f3fe608060405234801561001057600080fd5b50600436106103275760003560e01c80638a5779c8116101b8578063c0423f2e11610104578063ee172546116100a2578063f601d5101161007c578063f601d5101461079d578063fb0d5e09146107bc578063fe687475146107dc578063ffdabe2d146107ef57600080fd5b8063ee17254614610783578063ef78d4fd1461078c578063f3517fef1461079557600080fd5b8063d18743dd116100de578063d18743dd14610742578063da68cf8b14610755578063e107fb4f14610768578063ed320aa81461077b57600080fd5b8063c0423f2e1461070b578063c2930f9114610713578063ca7d5dce1461073a57600080fd5b8063b067f42d11610171578063ba4e137f1161014b578063ba4e137f146106bd578063ba52f342146106c5578063bad12653146106d8578063bdd3d825146106f857600080fd5b8063b067f42d1461065a578063b254eb1714610663578063b93dafa91461067657600080fd5b80638a5779c8146105405780638da5cb5b146105495780638edc6a2c146105795780639592de181461059c578063a10340bc146105af578063a73482f61461064757600080fd5b80634e43603a116102775780636fcc0c971161023057806378328a171161020a57806378328a17146105085780637e9966391461051b57806386e670cb14610524578063884133e61461053757600080fd5b80636fcc0c97146104bf5780637358c57a146104df578063773d51eb146104e857600080fd5b80634e43603a14610439578063527eb4bc1461046757806361eee2cb1461047057806364772f211461048357806366666aa9146104965780636f1aefc31461049f57600080fd5b80632457e620116102e45780633baf1587116102be5780633baf1587146103ea578063499a0fc4146103fd5780634a00521f146104065780634c73884f1461041957600080fd5b80632457e620146103725780632c438717146103b7578063301f7ac8146103ca57600080fd5b8063050e88401461032c57806308857442146103525780630d0a1c1a1461037257806317e9b6d51461039257806318d13d871461039a578063197c4e78146103af575b600080fd5b61033f61033a3660046137a7565b610802565b6040519081526020015b60405180910390f35b61033f6103603660046137d5565b60136020526000908152604090205481565b6103856103803660046137a7565b610823565b60405161034991906137f2565b61033f610888565b6103ad6103a8366004613836565b610917565b005b60115461033f565b61033f6103c53660046137a7565b610a3b565b61033f6103d83660046137a7565b600f6020526000908152604090205481565b6103ad6103f83660046137a7565b610a72565b61033f60055481565b61033f6104143660046137a7565b610b71565b61042c610427366004613836565b610bb1565b604051610349919061386e565b61044c6104473660046137d5565b610cdd565b60408051938452602084019290925290820152606001610349565b61033f60025481565b61033f61047e3660046137a7565b610d23565b6103ad610491366004613888565b610d5a565b61033f60085481565b6104b26104ad366004613836565b610eef565b60405161034991906138ef565b61033f6104cd3660046137d5565b60126020526000908152604090205481565b61033f60015481565b6104fb6104f63660046137a7565b61103c565b604051610349919061395a565b61033f610516366004613a14565b611178565b61033f60065481565b6103ad6105323660046137a7565b6111da565b61033f600b5481565b61033f60035481565b600a546105619061010090046001600160a01b031681565b6040516001600160a01b039091168152602001610349565b61033f6105873660046137a7565b6000908152600d602052604090206002015490565b61033f6105aa3660046137a7565b61124a565b6106046105bd3660046137a7565b600d602052600090815260409020805460018201546003830154600484015460058501546006860154600790960154949593946001600160a01b0390931693919290919087565b6040805197885260208801969096526001600160a01b03909416948601949094526060850191909152608084015260a083019190915260c082015260e001610349565b61033f610655366004613836565b611285565b61033f60095481565b61033f6106713660046137a7565b6112a2565b6106a8610684366004613836565b60106020908152600092835260408084209091529082529020805460019091015482565b60408051928352602083019190915201610349565b61033f6112d3565b61033f6106d33660046137a7565b6115aa565b6106eb6106e63660046137a7565b6115ba565b6040516103499190613a44565b600454610561906001600160a01b031681565b610385611651565b61033f7f000000000000000000000000000000000000000000000000000000000000000081565b61033f6116a9565b6103ad6107503660046137a7565b61172f565b600754610561906001600160a01b031681565b61033f610776366004613836565b611821565b600e5461033f565b61033f600c5481565b61033f60005481565b61033f611985565b600a546107aa9060ff1681565b60405160ff9091168152602001610349565b6107cf6107ca366004613836565b611f40565b6040516103499190613a58565b6103ad6107ea3660046137a7565b611fec565b61033f6107fd3660046137a7565b61205b565b600e818154811061081257600080fd5b600091825260209091200154905081565b6000818152600d602090815260409182902060020180548351818402810184019094528084526060939283018282801561087c57602002820191906000526020600020905b815481526020019060010190808311610868575b50505050509050919050565b60095460009081905b600e54811015610911576000600e82815481106108b0576108b0613a95565b600091825260209091200154905060046108c9826115ba565b60048111156108da576108da613858565b146108fe576000818152600d60205260409020600701546108fb9084613ac1565b92505b508061090981613ad4565b915050610891565b50919050565b600a5461010090046001600160a01b0316331461098b5760405162461bcd60e51b815260206004820152602760248201527f4f6e6c79206f776e65722063616e20757064617465206672616d6520636c6f736044820152666520707269636560c81b60648201526084015b60405180910390fd5b6000828152600d602052604081205490036109b85760405162461bcd60e51b815260040161098290613aed565b6000828152600d60205260409020600301546001600160a01b031615610a205760405162461bcd60e51b815260206004820181905260248201527f4672616d65207265776172642077617320616c726561647920636c61696d65646044820152606401610982565b6000918252600d602052604080832054835290912060010155565b6000610a6c827f0000000000000000000000000000000000000000000000000000000000000000600160601b612482565b92915050565b6000818152600d60205260408120549003610a9f5760405162461bcd60e51b815260040161098290613aed565b60008054828252600d6020526040909120544291610abc91613ac1565b1115610b0a5760405162461bcd60e51b815260206004820152601b60248201527f4672616d652068617320746f20626520696e20746865207061737400000000006044820152606401610982565b6000610b1d600054836107fd9190613ac1565b6000838152600d6020526040908190206001810183905590519192507f929af310c689982c60d4ec73c6e4b602e89c6f6a31da7c2df4888fb0627cb2b191610b659190613b5a565b60405180910390a15050565b6000818152600d60205260408120548103610b9e5760405162461bcd60e51b815260040161098290613aed565b506000908152600f602052604090205490565b60008281526010602090815260408083208484529091528120600101548103610bdc57506000610a6c565b6000610be7846115ba565b6004811115610bf857610bf8613858565b03610c0557506000610a6c565b6001610c10846115ba565b6004811115610c2157610c21613858565b1480610c4657506002610c33846115ba565b6004811115610c4457610c44613858565b145b15610c5357506001610a6c565b60008381526010602090815260408083208584528252808320600190810154878552600d90935292209091015410801590610cc757506005546000848152601060209081526040808320868452909152902060010154610cb39190613ac1565b6000848152600d6020526040902060010154105b15610cd457506002610a6c565b50600392915050565b6001600160a01b03811660009081526012602090815260408083205460139092528220549091828211610d11576000610d1b565b610d1b8383613bcc565b929491935050565b60006001548211610d3657505060015490565b600054600154610d469084613bcc565b610d509190613bf5565b610a6c9083613bcc565b6000610d6584610d23565b905060005481610d759190613ac1565b4210610dc35760405162461bcd60e51b815260206004820152601d60248201527f4672616d65206973206e6f74206f70656e20666f722074726164696e670000006044820152606401610982565b6000610dce8461124a565b600083815260106020908152604080832084845290915281206001015491925003610e23576000828152600d60205260408120549003610e1357610e11856125fb565b505b610e1e828285612749565b610e98565b600082815260106020908152604080832084845290915290206002018054339190610e5090600190613bcc565b81548110610e6057610e60613a95565b60009182526020909120600260059092020101546001600160a01b031603610e8d57610e1e828285612be8565b610e98828285612e43565b60008281526010602090815260408083208484529091529081902090517f782b1e1b5d0c69f9f4c1e43a846c9ce710491a77f5adb86c3fe465f2cc9bfab991610ee091613ca6565b60405180910390a15050505050565b610f1360405180606001604052806000815260200160008152602001606081525090565b60008381526010602090815260408083208584529091528120600101549003610f725760405162461bcd60e51b8152602060048201526011602482015270131bdd08191bd95cdb89dd08195e1a5cdd607a1b6044820152606401610982565b60008381526010602090815260408083208584528252808320815160608101835281548152600182015481850152600282018054845181870281018701865281815292969395948701949293919290919084015b8282101561102d5760008481526020908190206040805160a08101825260058602909201805483526001808201548486015260028201546001600160a01b031692840192909252600381015460608401526004015460808301529083529092019101610fc6565b50505091525090949350505050565b61108d60405180610100016040528060008152602001600081526020016060815260200160006001600160a01b03168152602001600081526020016000815260200160008152602001600081525090565b6000828152600d602052604081205490036110ba5760405162461bcd60e51b815260040161098290613aed565b6000828152600d6020908152604091829020825161010081018452815481526001820154818401526002820180548551818602810186018752818152929593949386019383018282801561112d57602002820191906000526020600020905b815481526020019060010190808311611119575b505050918352505060038201546001600160a01b0316602082015260048201546040820152600582015460608201526006820154608082015260079091015460a09091015292915050565b600a54600090819061118e9060ff166012613cb9565b61119990600a613db6565b905082156111c957806111ad600282613dc5565b6111b79086613ac1565b6111c19190613dc5565b915050610a6c565b6111c18185613dc5565b5092915050565b600a5461010090046001600160a01b031633146112455760405162461bcd60e51b8152602060048201526024808201527f4f6e6c79206f776e65722063616e206368616e6765207461782070657263656e6044820152637461676560e01b6064820152608401610982565b600655565b600060055482101561125e57505060055490565b60006005548361126e9190613dc5565b905061127e816005546001612482565b9392505050565b6000611296826402540be400613dd9565b915061127e8383613ac1565b6000610a6c82600160601b7f0000000000000000000000000000000000000000000000000000000000000000612482565b6004805460408051633850c7bd60e01b8152905160009384936001600160a01b031692633850c7bd928183019260e0928290030181865afa15801561131c573d6000803e3d6000fd5b505050506040513d601f19601f820116820180604052508101906113409190613e18565b50505050505090506000816001600160a01b0316826001600160a01b03166113689190613dd9565b6004805460408051630dfe168160e01b81529051939450606085901c936000936001600160a01b0390931692630dfe1681928082019260209290918290030181865afa1580156113bc573d6000803e3d6000fd5b505050506040513d601f19601f820116820180604052508101906113e09190613eae565b90506000600460009054906101000a90046001600160a01b03166001600160a01b031663d21220a76040518163ffffffff1660e01b8152600401602060405180830381865afa158015611437573d6000803e3d6000fd5b505050506040513d601f19601f8201168201806040525081019061145b9190613eae565b90506000826001600160a01b031663313ce5676040518163ffffffff1660e01b8152600401602060405180830381865afa15801561149d573d6000803e3d6000fd5b505050506040513d601f19601f820116820180604052508101906114c19190613ecb565b90506000826001600160a01b031663313ce5676040518163ffffffff1660e01b8152600401602060405180830381865afa158015611503573d6000803e3d6000fd5b505050506040513d601f19601f820116820180604052508101906115279190613ecb565b90508060ff168260ff16111561155e57611557856115458385613cb9565b61155090600a613db6565b6001612482565b945061158f565b8160ff168160ff16111561158f5761158c85600161157c8585613cb9565b61158790600a613db6565b612482565b94505b61159e600160601b8087612482565b98975050505050505050565b6011818154811061081257600080fd5b6000818152600d602052604081205481036115d757506000919050565b6000828152600d60205260409020600301546001600160a01b0316156115ff57506004919050565b60008054838252600d60205260409091205461161b9190613ac1565b42101561162a57506001919050565b6000828152600d60205260409020600101541561164957506003919050565b506002919050565b6060601180548060200260200160405190810160405280929190818152602001828054801561169f57602002820191906000526020600020905b81548152602001906001019080831161168b575b5050505050905090565b600e54600954600091116116bd5750600090565b6000600e600954815481106116d4576116d4613a95565b600091825260209091200154905060036116ed826115ba565b60048111156116fe576116fe613858565b03611727576000818152600d602052604090206007015461172190600290613dc5565b91505090565b600091505090565b600a5461010090046001600160a01b0316331461179f5760405162461bcd60e51b815260206004820152602860248201527f4f6e6c79206f776e65722063616e207769746864726177206163636f756e74696044820152673733903a37b5b2b760c11b6064820152608401610982565b600754600a5460405163a9059cbb60e01b81526001600160a01b03610100909204821660048201526024810184905291169063a9059cbb906044016020604051808303816000875af11580156117f9573d6000803e3d6000fd5b505050506040513d601f19601f8201168201806040525081019061181d9190613ee6565b5050565b600080600054846118329190613ac1565b90504281116118835760405162461bcd60e51b815260206004820152601d60248201527f4672616d652068617320746f20626520696e20746865206675747572650000006044820152606401610982565b6118b9604051806040016040528060148152602001730536574746c656d656e742074696d657374616d760641b815250826131f1565b60408051808201909152601981527f536574746c6d656e657420646179732072656d61696e696e6700000000000000602082015261190e90620151806118ff4285613bcc565b6119099190613dc5565b6131f1565b600061191a4283613bcc565b9050600061192b6201518083613dc5565b9050600061193a826001613ac1565b9050600061194782613236565b90506000611956826004613dd9565b61196490600160601b613dc5565b90506000611977828a600160601b612482565b9a9950505050505050505050565b600e54600954600091116119d05760405162461bcd60e51b81526020600482015260126024820152714e6f206672616d6520746f20736574746c6560701b6044820152606401610982565b6000600e600954815481106119e7576119e7613a95565b6000918252602080832090910154808352600d90915260408220549092509003611a235760405162461bcd60e51b815260040161098290613aed565b6003611a2e826115ba565b6004811115611a3f57611a3f613858565b14611a8c5760405162461bcd60e51b815260206004820152601b60248201527f4672616d65206973206e6f7420696e20524154454420737461746500000000006044820152606401610982565b6000818152600d6020526040812060070154611aaa90600290613dc5565b90506000611abf82600254600160601b612482565b90506000611acd8284613bcc565b6000858152600d6020526040812060058101859055600681018390556001015491925090611afa9061124a565b60008681526010602090815260408083208484529091528120815492935091611b239088613ac1565b6000818152600d602052604081205491925003611b4557611b43816125fb565b505b6000878152600d6020526040812060070154611b62908890613bcc565b905080600d60008481526020019081526020016000206007016000828254611b8a9190613ac1565b9091555050600283015460009015611d3257600284018054611bae90600190613bcc565b81548110611bbe57611bbe613a95565b60009182526020909120600260059092020101546007546001600160a01b0391821692501663a9059cbb82611bf289610a3b565b6040516001600160e01b031960e085901b1681526001600160a01b03909216600483015260248201526044016020604051808303816000875af1158015611c3d573d6000803e3d6000fd5b505050506040513d601f19601f82011682018060405250810190611c619190613ee6565b506000898152600d6020526040902060030180546001600160a01b0319166001600160a01b038316179055611c9586610a3b565b600c6000828254611ca69190613ac1565b90915550611cb5905086610a3b565b6001600160a01b03821660009081526013602052604081208054909190611cdd908490613ac1565b90915550506001600160a01b0381167f53118bff2fb56701752f5bf54053d24fb83cec92f9f6ce664b90c38a2991caa4611d1688610a3b565b60408051918252602082018d90520160405180910390a2611dd1565b611d3e61067187610a3b565b6000848152600d602052604081206007018054909190611d5f908490613ac1565b90915550506000898152600d6020526040902060030180546001600160a01b03191660011790557f0496d42696345a1fb843aab6a5a68c62c8a5d3dbcf758a40953e662be46a2bb48984611db289610a3b565b6040805193845260208401929092529082015260600160405180910390a15b600754600a546001600160a01b039182169163a9059cbb91610100900416611df88a610a3b565b6040516001600160e01b031960e085901b1681526001600160a01b03909216600483015260248201526044016020604051808303816000875af1158015611e43573d6000803e3d6000fd5b505050506040513d601f19601f82011682018060405250810190611e679190613ee6565b506000898152600d602052604090206001810154600490910155600284015415611ec3577f782b1e1b5d0c69f9f4c1e43a846c9ce710491a77f5adb86c3fe465f2cc9bfab984604051611eba9190613ca6565b60405180910390a15b6000898152600d60205260409081902090517f929af310c689982c60d4ec73c6e4b602e89c6f6a31da7c2df4888fb0627cb2b191611f0091613b5a565b60405180910390a1600160096000828254611f1b9190613ac1565b90915550505060009788525050600d6020525050604090932060060154949350505050565b60008281526010602090815260408083208484528252808320600201805482518185028101850190935280835260609492939192909184015b82821015611fe05760008481526020908190206040805160a08101825260058602909201805483526001808201548486015260028201546001600160a01b031692840192909252600381015460608401526004015460808301529083529092019101611f79565b50505050905092915050565b600a5461010090046001600160a01b031633146120565760405162461bcd60e51b815260206004820152602260248201527f4f6e6c79206f776e65722063616e206368616e67652070726f746f636f6c2066604482015261656560f01b6064820152608401610982565b600255565b600080600354834261206d9190613bcc565b6120779190613ac1565b905060006120858442613bcc565b604080516002808252606082018352929350600092909160208301908036833701905050905082816000815181106120bf576120bf613a95565b602002602001019063ffffffff16908163ffffffff168152505081816001815181106120ed576120ed613a95565b63ffffffff909216602092830291909101909101526004805460405163883bdbfd60e01b81526000926001600160a01b039092169163883bdbfd9161213491869101613f19565b600060405180830381865afa158015612151573d6000803e3d6000fd5b505050506040513d6000823e601f3d908101601f191682016040526121799190810190614015565b50905060008160008151811061219157612191613a95565b602002602001015160060b826001815181106121af576121af613a95565b602002602001015160060b6121c491906140e1565b9050600081121561220d5760405162461bcd60e51b81526020600482015260136024820152724e65676174697665207469636b2064656c746160681b6044820152606401610982565b80600061222363ffffffff808816908916613bcc565b905060006122318284613dc5565b9050600061223e8261338f565b905060006122556001600160a01b03831680613dd9565b6004805460408051630dfe168160e01b81529051939450606085901c936000936001600160a01b0390931692630dfe1681928082019260209290918290030181865afa1580156122a9573d6000803e3d6000fd5b505050506040513d601f19601f820116820180604052508101906122cd9190613eae565b90506000600460009054906101000a90046001600160a01b03166001600160a01b031663d21220a76040518163ffffffff1660e01b8152600401602060405180830381865afa158015612324573d6000803e3d6000fd5b505050506040513d601f19601f820116820180604052508101906123489190613eae565b90506000826001600160a01b031663313ce5676040518163ffffffff1660e01b8152600401602060405180830381865afa15801561238a573d6000803e3d6000fd5b505050506040513d601f19601f820116820180604052508101906123ae9190613ecb565b90506000826001600160a01b031663313ce5676040518163ffffffff1660e01b8152600401602060405180830381865afa1580156123f0573d6000803e3d6000fd5b505050506040513d601f19601f820116820180604052508101906124149190613ecb565b90508060ff168260ff16111561243957612432856115458385613cb9565b945061245a565b8160ff168160ff16111561245a5761245785600161157c8585613cb9565b94505b612469600160601b8087612482565b9450849f50505050505050505050505050505050919050565b60008080600019858709858702925082811083820303915050806000036124bb57600084116124b057600080fd5b50829004905061127e565b8084116124c757600080fd5b6000848688098084039381119092039190506000856124e881196001613ac1565b169586900495938490049360008190030460010190506125088184613dd9565b909317926000612519876003613dd9565b60021890506125288188613dd9565b612533906002613bcc565b61253d9082613dd9565b90506125498188613dd9565b612554906002613bcc565b61255e9082613dd9565b905061256a8188613dd9565b612575906002613bcc565b61257f9082613dd9565b905061258b8188613dd9565b612596906002613bcc565b6125a09082613dd9565b90506125ac8188613dd9565b6125b7906002613bcc565b6125c19082613dd9565b90506125cd8188613dd9565b6125d8906002613bcc565b6125e29082613dd9565b90506125ee8186613dd9565b9998505050505050505050565b60008061260783610d23565b6000818152600d60205260409020549091501561265d5760405162461bcd60e51b81526020600482015260146024820152734672616d6520616c72656164792065786973747360601b6044820152606401610982565b426000548261266c9190613ac1565b10156126ba5760405162461bcd60e51b815260206004820152601d60248201527f4672616d652068617320746f20626520696e20746865206675747572650000006044820152606401610982565b6000818152600d60208181526040808420858155600e8054600181019091557fbb7b4a454dc3493923482f07822329ed19e8244eff582cc204f8554c3620c3fd8101879055600f84529482902085905592909152517f929af310c689982c60d4ec73c6e4b602e89c6f6a31da7c2df4888fb0627cb2b19161273a91613b5a565b60405180910390a15092915050565b60006127558483611821565b9050600061276282610a3b565b90506127a36040518060400160405280601c81526020017f54617820616d6f756e7420696e20746f6b656e20646563696d616c7300000000815250826131f1565b600081116127c35760405162461bcd60e51b815260040161098290614101565b6040805180820182526012815271105b1b1bddd85b98d9481d1bc81cdc195b9960721b60208201526007549151636eb1769f60e11b815233600482015230602482015261285e926001600160a01b03169063dd62ed3e90604401602060405180830381865afa15801561283a573d6000803e3d6000fd5b505050506040513d601f19601f82011682018060405250810190611909919061415e565b600754604051636eb1769f60e11b815233600482015230602482015282916001600160a01b03169063dd62ed3e90604401602060405180830381865afa1580156128ac573d6000803e3d6000fd5b505050506040513d601f19601f820116820180604052508101906128d0919061415e565b10156128ee5760405162461bcd60e51b815260040161098290614177565b7f161bcca7119915b50764b4abe86529797775a5f1719510000000000000000000841061294f5760405162461bcd60e51b815260206004820152600f60248201526e4c6f74206b657920746f6f2062696760881b6044820152606401610982565b6000858152601060209081526040808320878452909152902060010154156129ae5760405162461bcd60e51b81526020600482015260126024820152714c6f7420616c72656164792065786973747360701b6044820152606401610982565b60006040518060a00160405280438152602001428152602001336001600160a01b031681526020018581526020016129e5846112a2565b9052600087815260106020908152604080832089845282528083208a815560018082018b9055600280830180548084018255908752858720885160059092020190815594870151918501919091559185015191830180546001600160a01b0319166001600160a01b0390931692909217909155606084015160038301556080840151600490920191909155919250612a7d8888611285565b6011805460018181019092557f31ecc21a745e3968a04e9570e4425bc18fa8019c68028196b546d1669c200c680182905560008a8152600d6020908152604082208684015460029091018054948501815583529120909101559050612ae1846112a2565b6000898152600d602052604081206007018054909190612b02908490613ac1565b9250508190555083600b6000828254612b1b9190613ac1565b90915550503360009081526012602052604081208054869290612b3f908490613ac1565b90915550506007546040516323b872dd60e01b81526001600160a01b03909116906323b872dd90612b78903390309089906004016141ae565b6020604051808303816000875af1158015612b97573d6000803e3d6000fd5b505050506040513d601f19601f82011682018060405250810190612bbb9190613ee6565b50612bde6040518060600160405280602d8152602001614228602d9139856131f1565b5050505050505050565b6000612bf48483611821565b90506000612c0182610a3b565b600754604051636eb1769f60e11b815233600482015230602482015291925082916001600160a01b039091169063dd62ed3e90604401602060405180830381865afa158015612c54573d6000803e3d6000fd5b505050506040513d601f19601f82011682018060405250810190612c78919061415e565b1015612c965760405162461bcd60e51b815260040161098290614177565b6007546040516323b872dd60e01b81526001600160a01b03909116906323b872dd90612cca903390309086906004016141ae565b6020604051808303816000875af1158015612ce9573d6000803e3d6000fd5b505050506040513d601f19601f82011682018060405250810190612d0d9190613ee6565b506010600086815260200190815260200160002060008581526020019081526020016000206002016040518060a00160405280438152602001428152602001336001600160a01b03168152602001858152602001612d6a846112a2565b905281546001808201845560009384526020938490208351600590930201918255928201519281019290925560408101516002830180546001600160a01b0319166001600160a01b039092169190911790556060810151600383015560800151600490910155612dd9816112a2565b6000868152600d602052604081206007018054909190612dfa908490613ac1565b9250508190555080600b6000828254612e139190613ac1565b90915550503360009081526012602052604081208054839290612e37908490613ac1565b90915550505050505050565b600083815260106020908152604080832085845290915281206002018054612e6d90600190613bcc565b81548110612e7d57612e7d613a95565b600091825260208220600260059092020101546001600160a01b03169150612ea58584611821565b905060008111612ec75760405162461bcd60e51b815260040161098290614101565b600085815260106020908152604080832087845290915281206002018054612ef190600190613bcc565b81548110612f0157612f01613a95565b90600052602060002090600502016003015490506000612f2082610a3b565b90506000612f2d84610a3b565b9050612f398282613ac1565b600754604051636eb1769f60e11b81523360048201523060248201526001600160a01b039091169063dd62ed3e90604401602060405180830381865afa158015612f87573d6000803e3d6000fd5b505050506040513d601f19601f82011682018060405250810190612fab919061415e565b1015612fc95760405162461bcd60e51b815260040161098290614177565b6007546040516323b872dd60e01b81526001600160a01b03909116906323b872dd90612ffd903390309086906004016141ae565b6020604051808303816000875af115801561301c573d6000803e3d6000fd5b505050506040513d601f19601f820116820180604052508101906130409190613ee6565b506007546040516323b872dd60e01b81526001600160a01b03909116906323b872dd90613075903390899087906004016141ae565b6020604051808303816000875af1158015613094573d6000803e3d6000fd5b505050506040513d601f19601f820116820180604052508101906130b89190613ee6565b506010600089815260200190815260200160002060008881526020019081526020016000206002016040518060a00160405280438152602001428152602001336001600160a01b03168152602001888152602001613115846112a2565b905281546001808201845560009384526020938490208351600590930201918255928201519281019290925560408101516002830180546001600160a01b0319166001600160a01b039092169190911790556060810151600383015560800151600490910155613184816112a2565b6000898152600d6020526040812060070180549091906131a5908490613ac1565b9250508190555080600b60008282546131be9190613ac1565b909155505033600090815260126020526040812080548392906131e2908490613ac1565b90915550505050505050505050565b61181d82826040516024016132079291906141d2565b60408051601f198184030181529190526020810180516001600160e01b0316632d839cb360e21b17905261377a565b600060018211613244575090565b816001600160801b821061325d5760809190911c9060401b5b6801000000000000000082106132785760409190911c9060201b5b640100000000821061328f5760209190911c9060101b5b6201000082106132a45760109190911c9060081b5b61010082106132b85760089190911c9060041b5b601082106132cb5760049190911c9060021b5b600482106132d75760011b5b600302600190811c908185816132ef576132ef613bdf565b048201901c9050600181858161330757613307613bdf565b048201901c9050600181858161331f5761331f613bdf565b048201901c9050600181858161333757613337613bdf565b048201901c9050600181858161334f5761334f613bdf565b048201901c9050600181858161336757613367613bdf565b048201901c905061338681858161338057613380613bdf565b04821190565b90039392505050565b600081620d89e88111156133c95760405162461bcd60e51b81526020600482015260016024820152601560fa1b6044820152606401610982565b6000816001166000036133e057600160801b6133f2565b6ffffcb933bd6fad37aa2d162d1a5940015b70ffffffffffffffffffffffffffffffffff169050600282161561343157608061342c826ffff97272373d413259a46990580e213a613dd9565b901c90505b600482161561345b576080613456826ffff2e50f5f656932ef12357cf3c7fdcc613dd9565b901c90505b6008821615613485576080613480826fffe5caca7e10e4e61c3624eaa0941cd0613dd9565b901c90505b60108216156134af5760806134aa826fffcb9843d60f6159c9db58835c926644613dd9565b901c90505b60208216156134d95760806134d4826fff973b41fa98c081472e6896dfb254c0613dd9565b901c90505b60408216156135035760806134fe826fff2ea16466c96a3843ec78b326b52861613dd9565b901c90505b608082161561352d576080613528826ffe5dee046a99a2a811c461f1969c3053613dd9565b901c90505b610100821615613558576080613553826ffcbe86c7900a88aedcffc83b479aa3a4613dd9565b901c90505b61020082161561358357608061357e826ff987a7253ac413176f2b074cf7815e54613dd9565b901c90505b6104008216156135ae5760806135a9826ff3392b0822b70005940c7a398e4b70f3613dd9565b901c90505b6108008216156135d95760806135d4826fe7159475a2c29b7443b29c7fa6e889d9613dd9565b901c90505b6110008216156136045760806135ff826fd097f3bdfd2022b8845ad8f792aa5825613dd9565b901c90505b61200082161561362f57608061362a826fa9f746462d870fdf8a65dc1f90e061e5613dd9565b901c90505b61400082161561365a576080613655826f70d869a156d2a1b890bb3df62baf32f7613dd9565b901c90505b618000821615613685576080613680826f31be135f97d08fd981231505542fcfa6613dd9565b901c90505b620100008216156136b15760806136ac826f09aa508b5b7a84e1c677de54f3e99bc9613dd9565b901c90505b620200008216156136dc5760806136d7826e5d6af8dedb81196699c329225ee604613dd9565b901c90505b62040000821615613706576080613701826d2216e584f5fa1ea926041bedfe98613dd9565b901c90505b6208000082161561372e576080613729826b048a170391f7dc42444e8fa2613dd9565b901c90505b83156137435761374081600019613dc5565b90505b61375264010000000082613bf5565b1561375e576001613761565b60005b6137729060ff16602083901c613ac1565b949350505050565b61378381613786565b50565b60006a636f6e736f6c652e6c6f679050600080835160208501845afa505050565b6000602082840312156137b957600080fd5b5035919050565b6001600160a01b038116811461378357600080fd5b6000602082840312156137e757600080fd5b813561127e816137c0565b6020808252825182820181905260009190848201906040850190845b8181101561382a5783518352928401929184019160010161380e565b50909695505050505050565b6000806040838503121561384957600080fd5b50508035926020909101359150565b634e487b7160e01b600052602160045260246000fd5b602081016004831061388257613882613858565b91905290565b60008060006060848603121561389d57600080fd5b505081359360208301359350604090920135919050565b80518252602080820151908301526040808201516001600160a01b031690830152606080820151908301526080908101519082015260a00190565b6000602080835260808301845182850152818501516040850152604085015160608086015281815180845260a0870191508483019350600092505b8083101561394f5761393d8285516138b4565b9150848401935060018301925061392a565b509695505050505050565b6000602080835261012083018451828501528185015160408501526040850151610100806060870152828251808552610140880191508584019450600093505b808410156139ba578451825293850193600193909301929085019061399a565b5060608801516001600160a01b03811660808901529450608088015160a088015260a088015160c088015260c088015160e088015260e088015182880152809550505050505092915050565b801515811461378357600080fd5b60008060408385031215613a2757600080fd5b823591506020830135613a3981613a06565b809150509250929050565b602081016005831061388257613882613858565b6020808252825182820181905260009190848201906040850190845b8181101561382a57613a878385516138b4565b938501939250600101613a74565b634e487b7160e01b600052603260045260246000fd5b634e487b7160e01b600052601160045260246000fd5b80820180821115610a6c57610a6c613aab565b600060018201613ae657613ae6613aab565b5060010190565b602080825260139082015272119c985b5948191bd95cdb89dd08195e1a5cdd606a1b604082015260600190565b6000815480845260208085019450836000528060002060005b83811015613b4f57815487529582019560019182019101613b33565b509495945050505050565b6020815281546020820152600182015460408201526000610100806060840152613b8b610120840160028601613b1a565b60038501546001600160a01b03166080850152600485015460a0850152600585015460c0850152600685015460e08501526007909401549201919091525090565b81810381811115610a6c57610a6c613aab565b634e487b7160e01b600052601260045260246000fd5b600082613c0457613c04613bdf565b500690565b60006060808401835485526001808501546020818189015260029150818701604086818b015285825480885260809750878c0191508360005284600020935060005b81811015613c9557845483528785015486840152868501546001600160a01b03168484015260038501548a84015260048501548984015260059094019360a0909201918701613c4b565b50909b9a5050505050505050505050565b60208152600061127e6020830184613c09565b60ff8281168282160390811115610a6c57610a6c613aab565b600181815b80851115613d0d578160001904821115613cf357613cf3613aab565b80851615613d0057918102915b93841c9390800290613cd7565b509250929050565b600082613d2457506001610a6c565b81613d3157506000610a6c565b8160018114613d475760028114613d5157613d6d565b6001915050610a6c565b60ff841115613d6257613d62613aab565b50506001821b610a6c565b5060208310610133831016604e8410600b8410161715613d90575081810a610a6c565b613d9a8383613cd2565b8060001904821115613dae57613dae613aab565b029392505050565b600061127e60ff841683613d15565b600082613dd457613dd4613bdf565b500490565b8082028115828204841417610a6c57610a6c613aab565b805161ffff81168114613e0257600080fd5b919050565b805160ff81168114613e0257600080fd5b600080600080600080600060e0888a031215613e3357600080fd5b8751613e3e816137c0565b8097505060208801518060020b8114613e5657600080fd5b9550613e6460408901613df0565b9450613e7260608901613df0565b9350613e8060808901613df0565b9250613e8e60a08901613e07565b915060c0880151613e9e81613a06565b8091505092959891949750929550565b600060208284031215613ec057600080fd5b815161127e816137c0565b600060208284031215613edd57600080fd5b61127e82613e07565b600060208284031215613ef857600080fd5b815161127e81613a06565b634e487b7160e01b600052604160045260246000fd5b6020808252825182820181905260009190848201906040850190845b8181101561382a57835163ffffffff1683529284019291840191600101613f35565b604051601f8201601f1916810167ffffffffffffffff81118282101715613f8057613f80613f03565b604052919050565b600067ffffffffffffffff821115613fa257613fa2613f03565b5060051b60200190565b600082601f830112613fbd57600080fd5b81516020613fd2613fcd83613f88565b613f57565b82815260059290921b84018101918181019086841115613ff157600080fd5b8286015b8481101561394f578051614008816137c0565b8352918301918301613ff5565b6000806040838503121561402857600080fd5b825167ffffffffffffffff8082111561404057600080fd5b818501915085601f83011261405457600080fd5b81516020614064613fcd83613f88565b82815260059290921b8401810191818101908984111561408357600080fd5b948201945b838610156140b15785518060060b81146140a25760008081fd5b82529482019490820190614088565b918801519196509093505050808211156140ca57600080fd5b506140d785828601613fac565b9150509250929050565b81810360008312801583831316838312821617156111d3576111d3613aab565b6020808252603c908201527f5461782068617320746f2062652067726561746572207468616e20302e20496e60408201527f63726561736520746865206163717569736974696f6e20707269636500000000606082015260800190565b60006020828403121561417057600080fd5b5051919050565b6020808252601e908201527f416c6c6f77616e636520746f207370656e642073657420746f6f206c6f770000604082015260600190565b6001600160a01b039384168152919092166020820152604081019190915260600190565b604081526000835180604084015260005b8181101561420057602081870181015160608684010152016141e3565b506000606082850101526060601f19601f830116840101915050826020830152939250505056fe54617820616d6f756e74207472616e7366657272656420746f20746865206d61726b657420636f6e7472616374a264697066735822122003c4d15fc63155c1ad6ea6935d423e07974aefe864b367f259060724cc7a536564736f6c63430008140033",
  "linkReferences": {},
  "deployedLinkReferences": {}
}