{
  "_format": "hh-sol-artifact-1",
  "contractName": "Market",
  "sourceName": "contracts/Market.sol",
  "abi": [
    {
      "inputs": [],
      "stateMutability": "nonpayable",
      "type": "constructor"
    },
    {
      "anonymous": false,
      "inputs": [
        {
          "components": [
            {
              "internalType": "uint256",
              "name": "frameKey",
              "type": "uint256"
            },
            {
              "internalType": "uint256",
              "name": "rate",
              "type": "uint256"
            },
            {
              "internalType": "uint256[]",
              "name": "lotKeys",
              "type": "uint256[]"
            },
            {
              "internalType": "address",
              "name": "claimedBy",
              "type": "address"
            },
            {
              "internalType": "uint256",
              "name": "rateSettle",
              "type": "uint256"
            },
            {
              "internalType": "uint256",
              "name": "feeSettle",
              "type": "uint256"
            },
            {
              "internalType": "uint256",
              "name": "rewardSettle",
              "type": "uint256"
            }
          ],
          "indexed": false,
          "internalType": "struct Market.Frame",
          "name": "frame",
          "type": "tuple"
        }
      ],
      "name": "FrameUpdate",
      "type": "event"
    },
    {
      "anonymous": false,
      "inputs": [
        {
          "components": [
            {
              "internalType": "uint256",
              "name": "frameKey",
              "type": "uint256"
            },
            {
              "internalType": "uint256",
              "name": "lotKey",
              "type": "uint256"
            },
            {
              "components": [
                {
                  "internalType": "uint256",
                  "name": "blockNumber",
                  "type": "uint256"
                },
                {
                  "internalType": "uint256",
                  "name": "blockTimestamp",
                  "type": "uint256"
                },
                {
                  "internalType": "address",
                  "name": "owner",
                  "type": "address"
                },
                {
                  "internalType": "uint256",
                  "name": "acquisitionPrice",
                  "type": "uint256"
                },
                {
                  "internalType": "uint256",
                  "name": "taxCharged",
                  "type": "uint256"
                },
                {
                  "internalType": "uint256",
                  "name": "taxRefunded",
                  "type": "uint256"
                }
              ],
              "internalType": "struct Market.LotState[]",
              "name": "states",
              "type": "tuple[]"
            }
          ],
          "indexed": false,
          "internalType": "struct Market.Lot",
          "name": "lot",
          "type": "tuple"
        }
      ],
      "name": "LotUpdate",
      "type": "event"
    },
    {
      "inputs": [],
      "name": "accountingToken",
      "outputs": [
        {
          "internalType": "contract IERC20",
          "name": "",
          "type": "address"
        }
      ],
      "stateMutability": "view",
      "type": "function"
    },
    {
      "inputs": [
        {
          "internalType": "uint256",
          "name": "timestamp",
          "type": "uint256"
        }
      ],
      "name": "clcFrameKey",
      "outputs": [
        {
          "internalType": "uint256",
          "name": "",
          "type": "uint256"
        }
      ],
      "stateMutability": "view",
      "type": "function"
    },
    {
      "inputs": [
        {
          "internalType": "uint256",
          "name": "value",
          "type": "uint256"
        }
      ],
      "name": "clcLotKey",
      "outputs": [
        {
          "internalType": "uint256",
          "name": "",
          "type": "uint256"
        }
      ],
      "stateMutability": "view",
      "type": "function"
    },
    {
      "inputs": [],
      "name": "clcRate",
      "outputs": [
        {
          "internalType": "uint256",
          "name": "",
          "type": "uint256"
        }
      ],
      "stateMutability": "view",
      "type": "function"
    },
    {
      "inputs": [
        {
          "internalType": "uint256",
          "name": "timestamp",
          "type": "uint256"
        }
      ],
      "name": "clcRateAvg",
      "outputs": [
        {
          "internalType": "uint256",
          "name": "",
          "type": "uint256"
        }
      ],
      "stateMutability": "view",
      "type": "function"
    },
    {
      "inputs": [
        {
          "internalType": "uint256",
          "name": "frameKey",
          "type": "uint256"
        }
      ],
      "name": "clcRewardFund",
      "outputs": [
        {
          "internalType": "uint256",
          "name": "",
          "type": "uint256"
        }
      ],
      "stateMutability": "view",
      "type": "function"
    },
    {
      "inputs": [
        {
          "internalType": "uint256",
          "name": "frameKey",
          "type": "uint256"
        },
        {
          "internalType": "uint256",
          "name": "acquisitionPrice",
          "type": "uint256"
        }
      ],
      "name": "clcTax",
      "outputs": [
        {
          "internalType": "uint256",
          "name": "",
          "type": "uint256"
        }
      ],
      "stateMutability": "view",
      "type": "function"
    },
    {
      "inputs": [],
      "name": "clcUnClaimableFunds",
      "outputs": [
        {
          "internalType": "uint256",
          "name": "",
          "type": "uint256"
        }
      ],
      "stateMutability": "view",
      "type": "function"
    },
    {
      "inputs": [],
      "name": "dPrice",
      "outputs": [
        {
          "internalType": "uint256",
          "name": "",
          "type": "uint256"
        }
      ],
      "stateMutability": "view",
      "type": "function"
    },
    {
      "inputs": [],
      "name": "feeProtocol",
      "outputs": [
        {
          "internalType": "uint256",
          "name": "",
          "type": "uint256"
        }
      ],
      "stateMutability": "view",
      "type": "function"
    },
    {
      "inputs": [
        {
          "internalType": "uint256",
          "name": "",
          "type": "uint256"
        }
      ],
      "name": "frames",
      "outputs": [
        {
          "internalType": "uint256",
          "name": "frameKey",
          "type": "uint256"
        },
        {
          "internalType": "uint256",
          "name": "rate",
          "type": "uint256"
        },
        {
          "internalType": "address",
          "name": "claimedBy",
          "type": "address"
        },
        {
          "internalType": "uint256",
          "name": "rateSettle",
          "type": "uint256"
        },
        {
          "internalType": "uint256",
          "name": "feeSettle",
          "type": "uint256"
        },
        {
          "internalType": "uint256",
          "name": "rewardSettle",
          "type": "uint256"
        }
      ],
      "stateMutability": "view",
      "type": "function"
    },
    {
      "inputs": [
        {
          "internalType": "uint256",
          "name": "",
          "type": "uint256"
        }
      ],
      "name": "framesKeys",
      "outputs": [
        {
          "internalType": "uint256",
          "name": "",
          "type": "uint256"
        }
      ],
      "stateMutability": "view",
      "type": "function"
    },
    {
      "inputs": [
        {
          "internalType": "uint256",
          "name": "frameKey",
          "type": "uint256"
        }
      ],
      "name": "getFrame",
      "outputs": [
        {
          "components": [
            {
              "internalType": "uint256",
              "name": "frameKey",
              "type": "uint256"
            },
            {
              "internalType": "uint256",
              "name": "rate",
              "type": "uint256"
            },
            {
              "internalType": "uint256[]",
              "name": "lotKeys",
              "type": "uint256[]"
            },
            {
              "internalType": "address",
              "name": "claimedBy",
              "type": "address"
            },
            {
              "internalType": "uint256",
              "name": "rateSettle",
              "type": "uint256"
            },
            {
              "internalType": "uint256",
              "name": "feeSettle",
              "type": "uint256"
            },
            {
              "internalType": "uint256",
              "name": "rewardSettle",
              "type": "uint256"
            }
          ],
          "internalType": "struct Market.Frame",
          "name": "",
          "type": "tuple"
        }
      ],
      "stateMutability": "view",
      "type": "function"
    },
    {
      "inputs": [
        {
          "internalType": "uint256",
          "name": "frameKey",
          "type": "uint256"
        }
      ],
      "name": "getFrameLotKeys",
      "outputs": [
        {
          "internalType": "uint256[]",
          "name": "",
          "type": "uint256[]"
        }
      ],
      "stateMutability": "view",
      "type": "function"
    },
    {
      "inputs": [
        {
          "internalType": "uint256",
          "name": "frameKey",
          "type": "uint256"
        },
        {
          "internalType": "uint256",
          "name": "lotKey",
          "type": "uint256"
        }
      ],
      "name": "getLot",
      "outputs": [
        {
          "components": [
            {
              "internalType": "uint256",
              "name": "frameKey",
              "type": "uint256"
            },
            {
              "internalType": "uint256",
              "name": "lotKey",
              "type": "uint256"
            },
            {
              "components": [
                {
                  "internalType": "uint256",
                  "name": "blockNumber",
                  "type": "uint256"
                },
                {
                  "internalType": "uint256",
                  "name": "blockTimestamp",
                  "type": "uint256"
                },
                {
                  "internalType": "address",
                  "name": "owner",
                  "type": "address"
                },
                {
                  "internalType": "uint256",
                  "name": "acquisitionPrice",
                  "type": "uint256"
                },
                {
                  "internalType": "uint256",
                  "name": "taxCharged",
                  "type": "uint256"
                },
                {
                  "internalType": "uint256",
                  "name": "taxRefunded",
                  "type": "uint256"
                }
              ],
              "internalType": "struct Market.LotState[]",
              "name": "states",
              "type": "tuple[]"
            }
          ],
          "internalType": "struct Market.Lot",
          "name": "",
          "type": "tuple"
        }
      ],
      "stateMutability": "view",
      "type": "function"
    },
    {
      "inputs": [
        {
          "internalType": "uint256",
          "name": "frameKey",
          "type": "uint256"
        },
        {
          "internalType": "uint256",
          "name": "lotKey",
          "type": "uint256"
        }
      ],
      "name": "getLotStates",
      "outputs": [
        {
          "components": [
            {
              "internalType": "uint256",
              "name": "blockNumber",
              "type": "uint256"
            },
            {
              "internalType": "uint256",
              "name": "blockTimestamp",
              "type": "uint256"
            },
            {
              "internalType": "address",
              "name": "owner",
              "type": "address"
            },
            {
              "internalType": "uint256",
              "name": "acquisitionPrice",
              "type": "uint256"
            },
            {
              "internalType": "uint256",
              "name": "taxCharged",
              "type": "uint256"
            },
            {
              "internalType": "uint256",
              "name": "taxRefunded",
              "type": "uint256"
            }
          ],
          "internalType": "struct Market.LotState[]",
          "name": "",
          "type": "tuple[]"
        }
      ],
      "stateMutability": "view",
      "type": "function"
    },
    {
      "inputs": [
        {
          "internalType": "uint256",
          "name": "frameKey",
          "type": "uint256"
        }
      ],
      "name": "getLotsKeysInFrame",
      "outputs": [
        {
          "internalType": "uint256[]",
          "name": "",
          "type": "uint256[]"
        }
      ],
      "stateMutability": "view",
      "type": "function"
    },
    {
      "inputs": [
        {
          "internalType": "uint256",
          "name": "frameKey",
          "type": "uint256"
        }
      ],
      "name": "getStateFrame",
      "outputs": [
        {
          "internalType": "enum Market.SFrame",
          "name": "",
          "type": "uint8"
        }
      ],
      "stateMutability": "view",
      "type": "function"
    },
    {
      "inputs": [
        {
          "internalType": "uint256",
          "name": "frameKey",
          "type": "uint256"
        },
        {
          "internalType": "uint256",
          "name": "lotKey",
          "type": "uint256"
        }
      ],
      "name": "getStateLot",
      "outputs": [
        {
          "internalType": "enum Market.SLot",
          "name": "",
          "type": "uint8"
        }
      ],
      "stateMutability": "view",
      "type": "function"
    },
    {
      "inputs": [],
      "name": "initTimestamp",
      "outputs": [
        {
          "internalType": "uint256",
          "name": "",
          "type": "uint256"
        }
      ],
      "stateMutability": "view",
      "type": "function"
    },
    {
      "inputs": [
        {
          "internalType": "uint256",
          "name": "",
          "type": "uint256"
        },
        {
          "internalType": "uint256",
          "name": "",
          "type": "uint256"
        }
      ],
      "name": "lots",
      "outputs": [
        {
          "internalType": "uint256",
          "name": "frameKey",
          "type": "uint256"
        },
        {
          "internalType": "uint256",
          "name": "lotKey",
          "type": "uint256"
        }
      ],
      "stateMutability": "view",
      "type": "function"
    },
    {
      "inputs": [
        {
          "components": [
            {
              "internalType": "uint256",
              "name": "frameKey",
              "type": "uint256"
            },
            {
              "internalType": "uint256",
              "name": "rate",
              "type": "uint256"
            },
            {
              "internalType": "uint256[]",
              "name": "lotKeys",
              "type": "uint256[]"
            },
            {
              "internalType": "address",
              "name": "claimedBy",
              "type": "address"
            },
            {
              "internalType": "uint256",
              "name": "rateSettle",
              "type": "uint256"
            },
            {
              "internalType": "uint256",
              "name": "feeSettle",
              "type": "uint256"
            },
            {
              "internalType": "uint256",
              "name": "rewardSettle",
              "type": "uint256"
            }
          ],
          "internalType": "struct Market.Frame",
          "name": "frame",
          "type": "tuple"
        },
        {
          "internalType": "uint256",
          "name": "avgPrice",
          "type": "uint256"
        }
      ],
      "name": "overrideFrameRate",
      "outputs": [],
      "stateMutability": "nonpayable",
      "type": "function"
    },
    {
      "inputs": [],
      "name": "owner",
      "outputs": [
        {
          "internalType": "address",
          "name": "",
          "type": "address"
        }
      ],
      "stateMutability": "view",
      "type": "function"
    },
    {
      "inputs": [],
      "name": "period",
      "outputs": [
        {
          "internalType": "uint256",
          "name": "",
          "type": "uint256"
        }
      ],
      "stateMutability": "view",
      "type": "function"
    },
    {
      "inputs": [
        {
          "internalType": "uint256",
          "name": "frameKey",
          "type": "uint256"
        }
      ],
      "name": "setFrameRate",
      "outputs": [],
      "stateMutability": "nonpayable",
      "type": "function"
    },
    {
      "inputs": [
        {
          "internalType": "uint256",
          "name": "frameKey",
          "type": "uint256"
        }
      ],
      "name": "settleFrame",
      "outputs": [
        {
          "internalType": "uint256",
          "name": "",
          "type": "uint256"
        }
      ],
      "stateMutability": "nonpayable",
      "type": "function"
    },
    {
      "inputs": [],
      "name": "tSettle",
      "outputs": [
        {
          "internalType": "uint256",
          "name": "",
          "type": "uint256"
        }
      ],
      "stateMutability": "view",
      "type": "function"
    },
    {
      "inputs": [],
      "name": "taxMarket",
      "outputs": [
        {
          "internalType": "uint256",
          "name": "",
          "type": "uint256"
        }
      ],
      "stateMutability": "view",
      "type": "function"
    },
    {
      "inputs": [
        {
          "internalType": "uint256",
          "name": "timestamp",
          "type": "uint256"
        },
        {
          "internalType": "uint256",
          "name": "rate",
          "type": "uint256"
        },
        {
          "internalType": "uint256",
          "name": "acquisitionPrice",
          "type": "uint256"
        }
      ],
      "name": "tradeLot",
      "outputs": [],
      "stateMutability": "nonpayable",
      "type": "function"
    },
    {
      "inputs": [],
      "name": "uniswapPool",
      "outputs": [
        {
          "internalType": "contract IUniswapV3Pool",
          "name": "",
          "type": "address"
        }
      ],
      "stateMutability": "view",
      "type": "function"
    },
    {
      "inputs": [
        {
          "internalType": "uint256",
          "name": "amount",
          "type": "uint256"
        }
      ],
      "name": "withdrawAccountingToken",
      "outputs": [],
      "stateMutability": "nonpayable",
      "type": "function"
    }
  ],
  "bytecode": "0x608060405262015180600055636592e18060015566b1a2bc2ec50000600255610258600355600480546001600160a01b03199081167367a9fe12fa6082d9d0203c84c6c56d3c4b269f281790915568056bc75e2d631000006005556611c37937e0800060065560078054909116738f3cf7ad23cd3cadbd9735aff958023239c6a06317905534801561009057600080fd5b50600880546001600160a01b031916331790556135da806100b26000396000f3fe608060405234801561001057600080fd5b50600436106101e55760003560e01c80638a5779c81161010f578063bad12653116100a2578063e107fb4f11610071578063e107fb4f146104a7578063ef78d4fd146104ba578063fb0d5e09146104c3578063ffdabe2d146104e357600080fd5b8063bad126531461044e578063bdd3d8251461046e578063d18743dd14610481578063da68cf8b1461049457600080fd5b8063a9a578ee116100de578063a9a578ee146103e4578063b866debb146103ec578063b93dafa9146103ff578063ba4e137f1461044657600080fd5b80638a5779c8146103155780638da5cb5b1461031e5780639592de1814610349578063a10340bc1461035c57600080fd5b80634c73884f116101875780636f1aefc3116101565780636f1aefc3146102c35780637358c57a146102e3578063773d51eb146102ec5780637e9966391461030c57600080fd5b80634c73884f14610274578063527eb4bc1461029457806361eee2cb1461029d57806364772f21146102b057600080fd5b80632457e620116101c35780632457e6201461021057806339a6a489146102455780633baf158714610258578063499a0fc41461026b57600080fd5b8063050e8840146101ea5780630d0a1c1a1461021057806321934d6914610230575b600080fd5b6101fd6101f8366004612bd4565b6104f6565b6040519081526020015b60405180910390f35b61022361021e366004612bd4565b610517565b6040516102079190612bed565b61024361023e366004612d55565b61057c565b005b6101fd610253366004612bd4565b61067d565b610243610266366004612bd4565b61084a565b6101fd60055481565b610287610282366004612e11565b610914565b6040516102079190612e49565b6101fd60025481565b6101fd6102ab366004612bd4565b610a41565b6102436102be366004612e63565b610a78565b6102d66102d1366004612e11565b610bb4565b6040516102079190612f07565b6101fd60015481565b6102ff6102fa366004612bd4565b610d0b565b6040516102079190612f36565b6101fd60065481565b6101fd60035481565b600854610331906001600160a01b031681565b6040516001600160a01b039091168152602001610207565b6101fd610357366004612bd4565b610e34565b6103a961036a366004612bd4565b600960205260009081526040902080546001820154600383015460048401546005850154600690950154939492936001600160a01b0390921692909186565b6040805196875260208701959095526001600160a01b03909316938501939093526060840152608083019190915260a082015260c001610207565b6101fd610e5f565b6101fd6103fa366004612bd4565b6110ba565b61043161040d366004612e11565b600b6020908152600092835260408084209091529082529020805460019091015482565b60408051928352602083019190915201610207565b6101fd61156b565b61046161045c366004612bd4565b61163a565b6040516102079190612fd6565b600454610331906001600160a01b031681565b61024361048f366004612bd4565b6116d1565b600754610331906001600160a01b031681565b6101fd6104b5366004612e11565b6117b9565b6101fd60005481565b6104d66104d1366004612e11565b61187b565b6040516102079190612fea565b6101fd6104f1366004612bd4565b611931565b600a818154811061050657600080fd5b600091825260209091200154905081565b60008181526009602090815260409182902060020180548351818402810184019094528084526060939283018282801561057057602002820191906000526020600020905b81548152602001906001019080831161055c575b50505050509050919050565b6008546001600160a01b031633146105eb5760405162461bcd60e51b815260206004820152602760248201527f4f6e6c79206f776e65722063616e20757064617465206672616d6520636c6f736044820152666520707269636560c81b60648201526084015b60405180910390fd5b815160000361060c5760405162461bcd60e51b81526004016105e290613004565b60608201516001600160a01b0316156106675760405162461bcd60e51b815260206004820181905260248201527f4672616d65207265776172642077617320616c726561647920636c61696d656460448201526064016105e2565b9051600090815260096020526040902060010155565b600080805b60008481526009602052604090206002015481101561084357600084815260096020818152604080842080548552600b8352908420888552929091526002018054839190859081106106d6576106d6613031565b90600052602060002001548152602001908152602001600020604051806060016040529081600082015481526020016001820154815260200160028201805480602002602001604051908101604052809291908181526020016000905b828210156107a45760008481526020908190206040805160c08101825260068602909201805483526001808201548486015260028201546001600160a01b03169284019290925260038101546060840152600481015460808401526005015460a08301529083529092019101610733565b5050505081525050905060005b81604001515181101561082e57816040015181815181106107d4576107d4613031565b602002602001015160800151846107eb919061305d565b93508160400151818151811061080357610803613031565b602002602001015160a001518461081a9190613070565b93508061082681613083565b9150506107b1565b5050808061083b90613083565b915050610682565b5092915050565b60008054828252600960205260409091205442916108679161305d565b11156108b55760405162461bcd60e51b815260206004820152601b60248201527f4672616d652068617320746f20626520696e207468652070617374000000000060448201526064016105e2565b60006108c082611931565b600083815260096020526040908190206001810183905590519192507f861dcb88c2eea524dd3c4d2026fc29c39249f4d090843bcc78037879d296c45291610908919061309c565b60405180910390a15050565b6000828152600b60209081526040808320848452909152812060010154810361093f57506000610a3b565b600061094a8461163a565b600481111561095b5761095b612e33565b0361096857506000610a3b565b60016109738461163a565b600481111561098457610984612e33565b14806109a9575060026109968461163a565b60048111156109a7576109a7612e33565b145b156109b657506001610a3b565b6000838152600b602090815260408083208584528252808320600190810154878552600990935292209091015410801590610a2a57506005546000848152600b60209081526040808320868452909152902060010154610a16919061305d565b600084815260096020526040902060010154105b15610a3757506002610a3b565b5060035b92915050565b60006001548211610a5457505060015490565b600054600154610a649084613070565b610a6e9190613150565b610a3b9083613070565b6000610a8384610a41565b90506000610a9084610e34565b6000838152600b6020908152604080832084845290915281206001015491925003610ae7576000828152600960205260408120549003610ad557610ad385611b77565b505b610ae0828285611cb4565b5050505050565b6000828152600b6020908152604080832084845290915290206002018054339190610b1490600190613070565b81548110610b2457610b24613031565b60009182526020909120600260069092020101546001600160a01b031603610b5157610ae082828561208d565b610b5d8282338661245b565b6000828152600b602090815260408083208484529091529081902090517f906ff162b3f2709ab28fb678d43913964434148dd206e9b17adb3c1255090cb191610ba591613164565b60405180910390a15050505050565b610bd860405180606001604052806000815260200160008152602001606081525090565b6000838152600b602090815260408083208584529091528120600101549003610c375760405162461bcd60e51b8152602060048201526011602482015270131bdd08191bd95cdb89dd08195e1a5cdd607a1b60448201526064016105e2565b6000838152600b602090815260408083208584528252808320815160608101835281548152600182015481850152600282018054845181870281018701865281815292969395948701949293919290919084015b82821015610cfc5760008481526020908190206040805160c08101825260068602909201805483526001808201548486015260028201546001600160a01b03169284019290925260038101546060840152600481015460808401526005015460a08301529083529092019101610c8b565b50505091525090949350505050565b610d546040518060e0016040528060008152602001600081526020016060815260200160006001600160a01b031681526020016000815260200160008152602001600081525090565b6000828152600960205260408120549003610d815760405162461bcd60e51b81526004016105e290613004565b600082815260096020908152604091829020825160e0810184528154815260018201548184015260028201805485518186028101860187528181529295939493860193830182828015610df357602002820191906000526020600020905b815481526020019060010190808311610ddf575b505050918352505060038201546001600160a01b03166020820152600482015460408201526005820154606082015260069091015460809091015292915050565b6000600554821015610e4857505060055490565b600554610e558184613212565b610a3b9190613226565b600080805b600a548110156110b457600060096000600a8481548110610e8757610e87613031565b906000526020600020015481526020019081526020016000206040518060e0016040529081600082015481526020016001820154815260200160028201805480602002602001604051908101604052809291908181526020018280548015610f0e57602002820191906000526020600020905b815481526020019060010190808311610efa575b50505091835250506003828101546001600160a01b0316602083015260048301546040830152600583015460608301526006909201546080909101529091508151610f589061163a565b6004811115610f6957610f69612e33565b036110a15780516000908152600b602090815260408220908301518290610f8f90610e34565b8152602001908152602001600020604051806060016040529081600082015481526020016001820154815260200160028201805480602002602001604051908101604052809291908181526020016000905b828210156110525760008481526020908190206040805160c08101825260068602909201805483526001808201548486015260028201546001600160a01b03169284019290925260038101546060840152600481015460808401526005015460a08301529083529092019101610fe1565b5050509152509091506002905061107183600001518360200151610914565b600381111561108257611082612e33565b1461109f5781516110929061067d565b61109c908561305d565b93505b505b50806110ac81613083565b915050610e64565b50919050565b60008181526009602052604081205481036110e75760405162461bcd60e51b81526004016105e290613004565b60036110f28361163a565b600481111561110357611103612e33565b1461115c5760405162461bcd60e51b8152602060048201526024808201527f4672616d6520646f6573206e6f742068617665206120636c6f73652072617465604482015263081cd95d60e21b60648201526084016105e2565b60008281526009602052604081206001015461117790610e34565b6000848152600b60209081526040808320848452825280832081516060810183528154815260018201548185015260028201805484518187028101870186528181529798509596919592949386019391929091879084015b828210156112405760008481526020908190206040805160c08101825260068602909201805483526001808201548486015260028201546001600160a01b03169284019290925260038101546060840152600481015460808401526005015460a083015290835290920191016111cf565b505050915250909150600290506112578584610914565b600381111561126857611268612e33565b146112b55760405162461bcd60e51b815260206004820152601c60248201527f4e6f2077696e6e696e67206c6f7420696e2074686973206672616d650000000060448201526064016105e2565b60006112c08561067d565b90506000670de0b6b3a7640000600254836112db9190613226565b6112e59190613212565b600087815260096020526040902060050181905590506113058183613070565b60008781526009602052604090819020600601919091556007549084015180516001600160a01b039092169163a9059cbb919061134490600190613070565b8151811061135457611354613031565b602002602001015160400151600960008a8152602001908152602001600020600601546040518363ffffffff1660e01b81526004016113a89291906001600160a01b03929092168252602082015260400190565b6020604051808303816000875af11580156113c7573d6000803e3d6000fd5b505050506040513d601f19601f820116820180604052508101906113eb919061324d565b50604083015180516113ff90600190613070565b8151811061140f5761140f613031565b60209081029190910181015160409081015160008981526009909352918190206003810180546001600160a01b0319166001600160a01b039485161790556001810154600480830191909155600754600854600590930154935163a9059cbb60e01b815292851691830191909152602482019290925291169063a9059cbb906044016020604051808303816000875af11580156114b0573d6000803e3d6000fd5b505050506040513d601f19601f820116820180604052508101906114d4919061324d565b507f906ff162b3f2709ab28fb678d43913964434148dd206e9b17adb3c1255090cb1836040516115049190612f07565b60405180910390a16000868152600960205260409081902090517f861dcb88c2eea524dd3c4d2026fc29c39249f4d090843bcc78037879d296c452916115499161309c565b60405180910390a1505050600092835250506009602052604090206006015490565b6004805460408051633850c7bd60e01b8152905160009384936001600160a01b031692633850c7bd928183019260e0928290030181865afa1580156115b4573d6000803e3d6000fd5b505050506040513d601f19601f820116820180604052508101906115d8919061327a565b50505050505090506000816001600160a01b031690506000600160601b82670de0b6b3a76400006116099190613226565b6116139190613212565b9050670de0b6b3a76400006116288280613226565b6116329190613212565b949350505050565b600081815260096020526040812054810361165757506000919050565b6000828152600960205260409020600301546001600160a01b03161561167f57506004919050565b60008054838252600960205260409091205461169b919061305d565b4210156116aa57506001919050565b600082815260096020526040902060010154156116c957506003919050565b506002919050565b6008546001600160a01b0316331461173c5760405162461bcd60e51b815260206004820152602860248201527f4f6e6c79206f776e65722063616e207769746864726177206163636f756e74696044820152673733903a37b5b2b760c11b60648201526084016105e2565b60075460085460405163a9059cbb60e01b81526001600160a01b0391821660048201526024810184905291169063a9059cbb906044016020604051808303816000875af1158015611791573d6000803e3d6000fd5b505050506040513d601f19601f820116820180604052508101906117b5919061324d565b5050565b600042600054846117ca919061305d565b116118175760405162461bcd60e51b815260206004820152601d60248201527f4672616d652068617320746f20626520696e207468652066757475726500000060448201526064016105e2565b600080546006546118289190613212565b90506000426000548661183b919061305d565b6118459190613070565b90506000670de0b6b3a76400008561185d8585613226565b6118679190613226565b6118719190613212565b9695505050505050565b6000828152600b602090815260408083208484528252808320600201805482518185028101850190935280835260609492939192909184015b828210156119255760008481526020908190206040805160c08101825260068602909201805483526001808201548486015260028201546001600160a01b03169284019290925260038101546060840152600481015460808401526005015460a083015290835290920191016118b4565b50505050905092915050565b60008060035483426119439190613070565b61194d919061305d565b9050600061195b8442613070565b6040805160028082526060820183529293506000929091602083019080368337019050509050828160008151811061199557611995613031565b602002602001019063ffffffff16908163ffffffff168152505081816001815181106119c3576119c3613031565b63ffffffff909216602092830291909101909101526004805460405163883bdbfd60e01b81526000926001600160a01b039092169163883bdbfd91611a0a91869101613314565b600060405180830381865afa158015611a27573d6000803e3d6000fd5b505050506040513d6000823e601f3d908101601f19168201604052611a4f91908101906133b6565b509050600081600081518110611a6757611a67613031565b602002602001015160060b82600181518110611a8557611a85613031565b602002602001015160060b611a9a9190613482565b90506000811215611ae35760405162461bcd60e51b81526020600482015260136024820152724e65676174697665207469636b2064656c746160681b60448201526064016105e2565b806000611af963ffffffff808816908916613070565b90506000611b078284613212565b90506000611b148261269e565b90506000611b3266010000000000006001600160a01b038416613212565b90506000611b408280613226565b90506000600160601b611b5b83670de0b6b3a7640000613226565b611b659190613212565b9e9d5050505050505050505050505050565b600080611b8383610a41565b60008181526009602052604090205490915015611bd95760405162461bcd60e51b81526020600482015260146024820152734672616d6520616c72656164792065786973747360601b60448201526064016105e2565b4260005482611be8919061305d565b1015611c365760405162461bcd60e51b815260206004820152601d60248201527f4672616d652068617320746f20626520696e207468652066757475726500000060448201526064016105e2565b60008181526009602052604090819020828155600a8054600181019091557fc65a7bb8d6351c1cf70c95a316cc6a92839c986682d98bc35f958f4883f9d2a80183905590517f861dcb88c2eea524dd3c4d2026fc29c39249f4d090843bcc78037879d296c45291611ca69161309c565b60405180910390a192915050565b6000611cc084836117b9565b905060008111611ce25760405162461bcd60e51b81526004016105e2906134a2565b604080518082018252601781527f534f4c3a2062616c616e6365206f662073656e6465723a000000000000000000602082015260075491516370a0823160e01b8152336004820152611d88926001600160a01b0316906370a08231906024015b602060405180830381865afa158015611d5f573d6000803e3d6000fd5b505050506040513d601f19601f82011682018060405250810190611d8391906134ff565b612a81565b604080518082018252601881527f534f4c3a20416c6c6f77616e636520746f207370656e643a000000000000000060208201526007549151636eb1769f60e11b8152336004820152306024820152611df2926001600160a01b03169063dd62ed3e90604401611d42565b611e1d6040518060400160405280600981526020016829a7a61d103a30bc1d60b91b81525082612a81565b600754604051636eb1769f60e11b815233600482015230602482015282916001600160a01b03169063dd62ed3e90604401602060405180830381865afa158015611e6b573d6000803e3d6000fd5b505050506040513d601f19601f82011682018060405250810190611e8f91906134ff565b1015611ead5760405162461bcd60e51b81526004016105e290613518565b6000848152600b6020908152604080832086845290915290206001015415611f0c5760405162461bcd60e51b81526020600482015260126024820152714c6f7420616c72656164792065786973747360701b60448201526064016105e2565b6040805160c081018252438152426020808301918252338385019081526060840187815260808501878152600060a087018181528c8252600b86528882208c835286529781208c815560018082018d90556002808301805480840182558186529885208b516006909a0201988955985191880191909155945194860180546001600160a01b0319166001600160a01b039096169590951790945591516003850155516004840155945160059092019190915592869052805491929182918291611fd791908190612aee565b50505060008681526009602090815260408083206001858101546002909201805491820181558552929093209091019190915560075490516323b872dd60e01b8152336004820152306024820152604481018590526001600160a01b03909116906323b872dd906064016020604051808303816000875af1158015612060573d6000803e3d6000fd5b505050506040513d601f19601f82011682018060405250810190612084919061324d565b50505050505050565b6000838152600b60209081526040808320858452909152812060020180546120e49186916120bd90600190613070565b815481106120cd576120cd613031565b9060005260206000209060060201600301546117b9565b905060006120f285846117b9565b9050808211156122905760006121088284613070565b6007546000888152600b602090815260408083208a8452909152902060020180549293506001600160a01b039091169163a9059cbb919061214b90600190613070565b8154811061215b5761215b613031565b600091825260209091206006909102016002015460405160e083901b6001600160e01b03191681526001600160a01b039091166004820152602481018490526044016020604051808303816000875af11580156121bc573d6000803e3d6000fd5b505050506040513d601f19601f820116820180604052508101906121e0919061324d565b506000868152600b602090815260408083208884528252808320815160c0810183524381524281850190815233938201938452606082018a81526080830187815260a084019889526002948501805460018082018355918a529790982093516006909702909301958655905195850195909555915190830180546001600160a01b0319166001600160a01b0390921691909117905591516003820155905160048201559051600590910155610ae0565b600061229c8383613070565b600754604051636eb1769f60e11b815233600482015230602482015291925082916001600160a01b039091169063dd62ed3e90604401602060405180830381865afa1580156122ef573d6000803e3d6000fd5b505050506040513d601f19601f8201168201806040525081019061231391906134ff565b10156123315760405162461bcd60e51b81526004016105e290613518565b6007546040516323b872dd60e01b8152336004820152306024820152604481018390526001600160a01b03909116906323b872dd906064016020604051808303816000875af1158015612388573d6000803e3d6000fd5b505050506040513d601f19601f820116820180604052508101906123ac919061324d565b506000958652600b60209081526040808820968852958152858720865160c0810188524381524281840190815233988201988952606082019788526080820194855260a082018a81526002938401805460018082018355918d5295909b20925160069095029092019384555198830198909855955195810180546001600160a01b0319166001600160a01b03909716969096179095559251600385015550505160048201559051600590910155565b600061246785836117b9565b9050600081116124895760405162461bcd60e51b81526004016105e2906134a2565b6000858152600b60209081526040808320878452909152812060020180546124b390600190613070565b815481106124c3576124c3613031565b906000526020600020906006020160030154905080826124e3919061305d565b600754604051636eb1769f60e11b81523360048201523060248201526001600160a01b039091169063dd62ed3e90604401602060405180830381865afa158015612531573d6000803e3d6000fd5b505050506040513d601f19601f8201168201806040525081019061255591906134ff565b10156125735760405162461bcd60e51b81526004016105e290613518565b6007546040516323b872dd60e01b8152336004820152306024820152604481018490526001600160a01b03909116906323b872dd906064016020604051808303816000875af11580156125ca573d6000803e3d6000fd5b505050506040513d601f19601f820116820180604052508101906125ee919061324d565b50506000948552600b60209081526040808720958752948152848620855160c081018752438152428184019081526001600160a01b03968716978201978852606082019586526080820194855260a082018981526002938401805460018082018355918c5295909a20925160069095029092019384555197830197909755945194810180546001600160a01b03191695909416949094179092555160038301555160048201559051600590910155565b600081620d89e88111156126d85760405162461bcd60e51b81526020600482015260016024820152601560fa1b60448201526064016105e2565b6000816001166000036126ef57600160801b612701565b6ffffcb933bd6fad37aa2d162d1a5940015b70ffffffffffffffffffffffffffffffffff169050600282161561274057608061273b826ffff97272373d413259a46990580e213a613226565b901c90505b600482161561276a576080612765826ffff2e50f5f656932ef12357cf3c7fdcc613226565b901c90505b600882161561279457608061278f826fffe5caca7e10e4e61c3624eaa0941cd0613226565b901c90505b60108216156127be5760806127b9826fffcb9843d60f6159c9db58835c926644613226565b901c90505b60208216156127e85760806127e3826fff973b41fa98c081472e6896dfb254c0613226565b901c90505b604082161561281257608061280d826fff2ea16466c96a3843ec78b326b52861613226565b901c90505b608082161561283c576080612837826ffe5dee046a99a2a811c461f1969c3053613226565b901c90505b610100821615612867576080612862826ffcbe86c7900a88aedcffc83b479aa3a4613226565b901c90505b61020082161561289257608061288d826ff987a7253ac413176f2b074cf7815e54613226565b901c90505b6104008216156128bd5760806128b8826ff3392b0822b70005940c7a398e4b70f3613226565b901c90505b6108008216156128e85760806128e3826fe7159475a2c29b7443b29c7fa6e889d9613226565b901c90505b61100082161561291357608061290e826fd097f3bdfd2022b8845ad8f792aa5825613226565b901c90505b61200082161561293e576080612939826fa9f746462d870fdf8a65dc1f90e061e5613226565b901c90505b614000821615612969576080612964826f70d869a156d2a1b890bb3df62baf32f7613226565b901c90505b61800082161561299457608061298f826f31be135f97d08fd981231505542fcfa6613226565b901c90505b620100008216156129c05760806129bb826f09aa508b5b7a84e1c677de54f3e99bc9613226565b901c90505b620200008216156129eb5760806129e6826e5d6af8dedb81196699c329225ee604613226565b901c90505b62040000821615612a15576080612a10826d2216e584f5fa1ea926041bedfe98613226565b901c90505b62080000821615612a3d576080612a38826b048a170391f7dc42444e8fa2613226565b901c90505b8315612a5257612a4f81600019613212565b90505b612a6164010000000082613150565b15612a6d576001612a70565b60005b6116329060ff16602083901c61305d565b6117b58282604051602401612a9792919061354f565b60408051601f198184030181529190526020810180516001600160e01b0316632d839cb360e21b179052612aca81612acd565b50565b60006a636f6e736f6c652e6c6f679050600080835160208501845afa505050565b828054828255906000526020600020906006028101928215612b825760005260206000209160060282015b82811115612b8257825482556001808401549083015560028084015490830180546001600160a01b0319166001600160a01b0390921691909117905560038084015490830155600480840154908301556005808401549083015560069283019290910190612b19565b50612b8e929150612b92565b5090565b5b80821115612b8e576000808255600182018190556002820180546001600160a01b031916905560038201819055600482018190556005820155600601612b93565b600060208284031215612be657600080fd5b5035919050565b6020808252825182820181905260009190848201906040850190845b81811015612c2557835183529284019291840191600101612c09565b50909695505050505050565b634e487b7160e01b600052604160045260246000fd5b60405160e0810167ffffffffffffffff81118282101715612c6a57612c6a612c31565b60405290565b604051601f8201601f1916810167ffffffffffffffff81118282101715612c9957612c99612c31565b604052919050565b600067ffffffffffffffff821115612cbb57612cbb612c31565b5060051b60200190565b600082601f830112612cd657600080fd5b81356020612ceb612ce683612ca1565b612c70565b82815260059290921b84018101918181019086841115612d0a57600080fd5b8286015b84811015612d255780358352918301918301612d0e565b509695505050505050565b6001600160a01b0381168114612aca57600080fd5b8035612d5081612d30565b919050565b60008060408385031215612d6857600080fd5b823567ffffffffffffffff80821115612d8057600080fd5b9084019060e08287031215612d9457600080fd5b612d9c612c47565b8235815260208301356020820152604083013582811115612dbc57600080fd5b612dc888828601612cc5565b604083015250612dda60608401612d45565b60608201526080830135608082015260a083013560a082015260c083013560c0820152809450505050602083013590509250929050565b60008060408385031215612e2457600080fd5b50508035926020909101359150565b634e487b7160e01b600052602160045260246000fd5b6020810160048310612e5d57612e5d612e33565b91905290565b600080600060608486031215612e7857600080fd5b505081359360208301359350604090920135919050565b600081518084526020808501945080840160005b83811015612efc5781518051885283810151848901526040808201516001600160a01b031690890152606080820151908901526080808201519089015260a0908101519088015260c09096019590820190600101612ea3565b509495945050505050565b602081528151602082015260208201516040820152600060408301516060808401526116326080840182612e8f565b600060208083526101008301845182850152818501516040850152604085015160e06060860152818151808452610120870191508483019350600092505b80831015612f945783518252928401926001929092019190840190612f74565b5060608701516001600160a01b03811660808801529350608087015160a087015260a087015160c087015260c087015160e08701528094505050505092915050565b6020810160058310612e5d57612e5d612e33565b602081526000612ffd6020830184612e8f565b9392505050565b602080825260139082015272119c985b5948191bd95cdb89dd08195e1a5cdd606a1b604082015260600190565b634e487b7160e01b600052603260045260246000fd5b634e487b7160e01b600052601160045260246000fd5b80820180821115610a3b57610a3b613047565b81810381811115610a3b57610a3b613047565b60006001820161309557613095613047565b5060010190565b6020808252825482820152600180840154604084015260e06060840152600284018054610100850181905260009182528382209193929084906101208701905b808310156130f957845482529383019391830191908501906130dc565b5060038801546001600160a01b03166080880152600488015460a0880152600588015460c088015260069097015460e0909601959095525093949350505050565b634e487b7160e01b600052601260045260246000fd5b60008261315f5761315f61313a565b500690565b6000602080835260808084018554838601526001808701546040818189015260029150818901606080818b015285825480885260a09750878c0191508360005289600020935060005b818110156132005784548352878501548b840152868501546001600160a01b03168684015260038501548484015260048501548a84015260058501548984015260069094019360c09092019187016131ad565b50909c9b505050505050505050505050565b6000826132215761322161313a565b500490565b8082028115828204841417610a3b57610a3b613047565b80518015158114612d5057600080fd5b60006020828403121561325f57600080fd5b612ffd8261323d565b805161ffff81168114612d5057600080fd5b600080600080600080600060e0888a03121561329557600080fd5b87516132a081612d30565b8097505060208801518060020b81146132b857600080fd5b95506132c660408901613268565b94506132d460608901613268565b93506132e260808901613268565b925060a088015160ff811681146132f857600080fd5b915061330660c0890161323d565b905092959891949750929550565b6020808252825182820181905260009190848201906040850190845b81811015612c2557835163ffffffff1683529284019291840191600101613330565b600082601f83011261336357600080fd5b81516020613373612ce683612ca1565b82815260059290921b8401810191818101908684111561339257600080fd5b8286015b84811015612d255780516133a981612d30565b8352918301918301613396565b600080604083850312156133c957600080fd5b825167ffffffffffffffff808211156133e157600080fd5b818501915085601f8301126133f557600080fd5b81516020613405612ce683612ca1565b82815260059290921b8401810191818101908984111561342457600080fd5b948201945b838610156134525785518060060b81146134435760008081fd5b82529482019490820190613429565b9188015191965090935050508082111561346b57600080fd5b5061347885828601613352565b9150509250929050565b818103600083128015838313168383128216171561084357610843613047565b6020808252603c908201527f5461782068617320746f2062652067726561746572207468616e20302e20496e60408201527f63726561736520746865206163717569736974696f6e20707269636500000000606082015260800190565b60006020828403121561351157600080fd5b5051919050565b6020808252601e908201527f416c6c6f77616e636520746f207370656e642073657420746f6f206c6f770000604082015260600190565b604081526000835180604084015260005b8181101561357d5760208187018101516060868401015201613560565b506000606082850101526060601f19601f830116840101915050826020830152939250505056fea2646970667358221220eecd3f5ddb4594c9a15a285eb1ad4270057c13e8d836e62fe7ee18ad2616360064736f6c63430008140033",
  "linkReferences": {},
  "deployedLinkReferences": {}
}