{
  "_format": "hh-sol-artifact-1",
  "contractName": "Market",
  "sourceName": "contracts/Market.sol",
  "abi": [
    {
      "inputs": [],
      "stateMutability": "nonpayable",
      "type": "constructor"
    },
    {
      "anonymous": false,
      "inputs": [
        {
          "components": [
            {
              "internalType": "uint256",
              "name": "frameKey",
              "type": "uint256"
            },
            {
              "internalType": "uint256",
              "name": "rate",
              "type": "uint256"
            },
            {
              "internalType": "uint256[]",
              "name": "lotKeys",
              "type": "uint256[]"
            },
            {
              "internalType": "address",
              "name": "claimedBy",
              "type": "address"
            },
            {
              "internalType": "uint256",
              "name": "rateSettle",
              "type": "uint256"
            },
            {
              "internalType": "uint256",
              "name": "feeSettle",
              "type": "uint256"
            },
            {
              "internalType": "uint256",
              "name": "rewardSettle",
              "type": "uint256"
            },
            {
              "internalType": "uint256",
              "name": "feeReferral",
              "type": "uint256"
            }
          ],
          "indexed": false,
          "internalType": "struct Market.Frame",
          "name": "frame",
          "type": "tuple"
        }
      ],
      "name": "FrameUpdate",
      "type": "event"
    },
    {
      "anonymous": false,
      "inputs": [
        {
          "components": [
            {
              "internalType": "uint256",
              "name": "frameKey",
              "type": "uint256"
            },
            {
              "internalType": "uint256",
              "name": "lotKey",
              "type": "uint256"
            },
            {
              "components": [
                {
                  "internalType": "uint256",
                  "name": "blockNumber",
                  "type": "uint256"
                },
                {
                  "internalType": "uint256",
                  "name": "blockTimestamp",
                  "type": "uint256"
                },
                {
                  "internalType": "address",
                  "name": "owner",
                  "type": "address"
                },
                {
                  "internalType": "uint256",
                  "name": "acquisitionPrice",
                  "type": "uint256"
                },
                {
                  "internalType": "uint256",
                  "name": "taxCharged",
                  "type": "uint256"
                },
                {
                  "internalType": "uint256",
                  "name": "taxRefunded",
                  "type": "uint256"
                }
              ],
              "internalType": "struct Market.LotState[]",
              "name": "states",
              "type": "tuple[]"
            }
          ],
          "indexed": false,
          "internalType": "struct Market.Lot",
          "name": "lot",
          "type": "tuple"
        }
      ],
      "name": "LotUpdate",
      "type": "event"
    },
    {
      "inputs": [],
      "name": "accountingToken",
      "outputs": [
        {
          "internalType": "contract IERC20",
          "name": "",
          "type": "address"
        }
      ],
      "stateMutability": "view",
      "type": "function"
    },
    {
      "inputs": [],
      "name": "claimReferralRewards",
      "outputs": [],
      "stateMutability": "nonpayable",
      "type": "function"
    },
    {
      "inputs": [
        {
          "internalType": "uint256",
          "name": "timestamp",
          "type": "uint256"
        }
      ],
      "name": "clcFrameKey",
      "outputs": [
        {
          "internalType": "uint256",
          "name": "",
          "type": "uint256"
        }
      ],
      "stateMutability": "view",
      "type": "function"
    },
    {
      "inputs": [
        {
          "internalType": "uint256",
          "name": "value",
          "type": "uint256"
        }
      ],
      "name": "clcLotKey",
      "outputs": [
        {
          "internalType": "uint256",
          "name": "",
          "type": "uint256"
        }
      ],
      "stateMutability": "view",
      "type": "function"
    },
    {
      "inputs": [],
      "name": "clcRate",
      "outputs": [
        {
          "internalType": "uint256",
          "name": "",
          "type": "uint256"
        }
      ],
      "stateMutability": "view",
      "type": "function"
    },
    {
      "inputs": [
        {
          "internalType": "uint256",
          "name": "timestamp",
          "type": "uint256"
        }
      ],
      "name": "clcRateAvg",
      "outputs": [
        {
          "internalType": "uint256",
          "name": "",
          "type": "uint256"
        }
      ],
      "stateMutability": "view",
      "type": "function"
    },
    {
      "inputs": [
        {
          "internalType": "uint256",
          "name": "frameKey",
          "type": "uint256"
        }
      ],
      "name": "clcRewardFund",
      "outputs": [
        {
          "internalType": "uint256",
          "name": "",
          "type": "uint256"
        }
      ],
      "stateMutability": "view",
      "type": "function"
    },
    {
      "inputs": [
        {
          "internalType": "uint256",
          "name": "frameKey",
          "type": "uint256"
        },
        {
          "internalType": "uint256",
          "name": "acquisitionPrice",
          "type": "uint256"
        }
      ],
      "name": "clcTax",
      "outputs": [
        {
          "internalType": "uint256",
          "name": "",
          "type": "uint256"
        }
      ],
      "stateMutability": "view",
      "type": "function"
    },
    {
      "inputs": [],
      "name": "dPrice",
      "outputs": [
        {
          "internalType": "uint256",
          "name": "",
          "type": "uint256"
        }
      ],
      "stateMutability": "view",
      "type": "function"
    },
    {
      "inputs": [],
      "name": "feeProtocol",
      "outputs": [
        {
          "internalType": "uint256",
          "name": "",
          "type": "uint256"
        }
      ],
      "stateMutability": "view",
      "type": "function"
    },
    {
      "inputs": [
        {
          "internalType": "uint256",
          "name": "",
          "type": "uint256"
        }
      ],
      "name": "frames",
      "outputs": [
        {
          "internalType": "uint256",
          "name": "frameKey",
          "type": "uint256"
        },
        {
          "internalType": "uint256",
          "name": "rate",
          "type": "uint256"
        },
        {
          "internalType": "address",
          "name": "claimedBy",
          "type": "address"
        },
        {
          "internalType": "uint256",
          "name": "rateSettle",
          "type": "uint256"
        },
        {
          "internalType": "uint256",
          "name": "feeSettle",
          "type": "uint256"
        },
        {
          "internalType": "uint256",
          "name": "rewardSettle",
          "type": "uint256"
        },
        {
          "internalType": "uint256",
          "name": "feeReferral",
          "type": "uint256"
        }
      ],
      "stateMutability": "view",
      "type": "function"
    },
    {
      "inputs": [
        {
          "internalType": "uint256",
          "name": "",
          "type": "uint256"
        }
      ],
      "name": "framesKeys",
      "outputs": [
        {
          "internalType": "uint256",
          "name": "",
          "type": "uint256"
        }
      ],
      "stateMutability": "view",
      "type": "function"
    },
    {
      "inputs": [
        {
          "internalType": "uint256",
          "name": "frameKey",
          "type": "uint256"
        }
      ],
      "name": "getFrame",
      "outputs": [
        {
          "components": [
            {
              "internalType": "uint256",
              "name": "frameKey",
              "type": "uint256"
            },
            {
              "internalType": "uint256",
              "name": "rate",
              "type": "uint256"
            },
            {
              "internalType": "uint256[]",
              "name": "lotKeys",
              "type": "uint256[]"
            },
            {
              "internalType": "address",
              "name": "claimedBy",
              "type": "address"
            },
            {
              "internalType": "uint256",
              "name": "rateSettle",
              "type": "uint256"
            },
            {
              "internalType": "uint256",
              "name": "feeSettle",
              "type": "uint256"
            },
            {
              "internalType": "uint256",
              "name": "rewardSettle",
              "type": "uint256"
            },
            {
              "internalType": "uint256",
              "name": "feeReferral",
              "type": "uint256"
            }
          ],
          "internalType": "struct Market.Frame",
          "name": "",
          "type": "tuple"
        }
      ],
      "stateMutability": "view",
      "type": "function"
    },
    {
      "inputs": [
        {
          "internalType": "uint256",
          "name": "frameKey",
          "type": "uint256"
        }
      ],
      "name": "getFrameLotKeys",
      "outputs": [
        {
          "internalType": "uint256[]",
          "name": "",
          "type": "uint256[]"
        }
      ],
      "stateMutability": "view",
      "type": "function"
    },
    {
      "inputs": [
        {
          "internalType": "uint256",
          "name": "frameKey",
          "type": "uint256"
        },
        {
          "internalType": "uint256",
          "name": "lotKey",
          "type": "uint256"
        }
      ],
      "name": "getLot",
      "outputs": [
        {
          "components": [
            {
              "internalType": "uint256",
              "name": "frameKey",
              "type": "uint256"
            },
            {
              "internalType": "uint256",
              "name": "lotKey",
              "type": "uint256"
            },
            {
              "components": [
                {
                  "internalType": "uint256",
                  "name": "blockNumber",
                  "type": "uint256"
                },
                {
                  "internalType": "uint256",
                  "name": "blockTimestamp",
                  "type": "uint256"
                },
                {
                  "internalType": "address",
                  "name": "owner",
                  "type": "address"
                },
                {
                  "internalType": "uint256",
                  "name": "acquisitionPrice",
                  "type": "uint256"
                },
                {
                  "internalType": "uint256",
                  "name": "taxCharged",
                  "type": "uint256"
                },
                {
                  "internalType": "uint256",
                  "name": "taxRefunded",
                  "type": "uint256"
                }
              ],
              "internalType": "struct Market.LotState[]",
              "name": "states",
              "type": "tuple[]"
            }
          ],
          "internalType": "struct Market.Lot",
          "name": "",
          "type": "tuple"
        }
      ],
      "stateMutability": "view",
      "type": "function"
    },
    {
      "inputs": [
        {
          "internalType": "uint256",
          "name": "frameKey",
          "type": "uint256"
        },
        {
          "internalType": "uint256",
          "name": "lotKey",
          "type": "uint256"
        }
      ],
      "name": "getLotStates",
      "outputs": [
        {
          "components": [
            {
              "internalType": "uint256",
              "name": "blockNumber",
              "type": "uint256"
            },
            {
              "internalType": "uint256",
              "name": "blockTimestamp",
              "type": "uint256"
            },
            {
              "internalType": "address",
              "name": "owner",
              "type": "address"
            },
            {
              "internalType": "uint256",
              "name": "acquisitionPrice",
              "type": "uint256"
            },
            {
              "internalType": "uint256",
              "name": "taxCharged",
              "type": "uint256"
            },
            {
              "internalType": "uint256",
              "name": "taxRefunded",
              "type": "uint256"
            }
          ],
          "internalType": "struct Market.LotState[]",
          "name": "",
          "type": "tuple[]"
        }
      ],
      "stateMutability": "view",
      "type": "function"
    },
    {
      "inputs": [
        {
          "internalType": "uint256",
          "name": "frameKey",
          "type": "uint256"
        }
      ],
      "name": "getLotsKeysInFrame",
      "outputs": [
        {
          "internalType": "uint256[]",
          "name": "",
          "type": "uint256[]"
        }
      ],
      "stateMutability": "view",
      "type": "function"
    },
    {
      "inputs": [
        {
          "internalType": "uint256",
          "name": "frameKey",
          "type": "uint256"
        }
      ],
      "name": "getStateFrame",
      "outputs": [
        {
          "internalType": "enum Market.SFrame",
          "name": "",
          "type": "uint8"
        }
      ],
      "stateMutability": "view",
      "type": "function"
    },
    {
      "inputs": [
        {
          "internalType": "uint256",
          "name": "frameKey",
          "type": "uint256"
        },
        {
          "internalType": "uint256",
          "name": "lotKey",
          "type": "uint256"
        }
      ],
      "name": "getStateLot",
      "outputs": [
        {
          "internalType": "enum Market.SLot",
          "name": "",
          "type": "uint8"
        }
      ],
      "stateMutability": "view",
      "type": "function"
    },
    {
      "inputs": [],
      "name": "getUncollectedRewards",
      "outputs": [
        {
          "internalType": "uint256",
          "name": "",
          "type": "uint256"
        }
      ],
      "stateMutability": "view",
      "type": "function"
    },
    {
      "inputs": [
        {
          "internalType": "address",
          "name": "user",
          "type": "address"
        },
        {
          "internalType": "uint256",
          "name": "frameKey",
          "type": "uint256"
        }
      ],
      "name": "getUserReward",
      "outputs": [
        {
          "internalType": "uint256",
          "name": "",
          "type": "uint256"
        }
      ],
      "stateMutability": "view",
      "type": "function"
    },
    {
      "inputs": [],
      "name": "initTimestamp",
      "outputs": [
        {
          "internalType": "uint256",
          "name": "",
          "type": "uint256"
        }
      ],
      "stateMutability": "view",
      "type": "function"
    },
    {
      "inputs": [
        {
          "internalType": "uint256",
          "name": "",
          "type": "uint256"
        },
        {
          "internalType": "uint256",
          "name": "",
          "type": "uint256"
        }
      ],
      "name": "lots",
      "outputs": [
        {
          "internalType": "uint256",
          "name": "frameKey",
          "type": "uint256"
        },
        {
          "internalType": "uint256",
          "name": "lotKey",
          "type": "uint256"
        }
      ],
      "stateMutability": "view",
      "type": "function"
    },
    {
      "inputs": [
        {
          "components": [
            {
              "internalType": "uint256",
              "name": "frameKey",
              "type": "uint256"
            },
            {
              "internalType": "uint256",
              "name": "rate",
              "type": "uint256"
            },
            {
              "internalType": "uint256[]",
              "name": "lotKeys",
              "type": "uint256[]"
            },
            {
              "internalType": "address",
              "name": "claimedBy",
              "type": "address"
            },
            {
              "internalType": "uint256",
              "name": "rateSettle",
              "type": "uint256"
            },
            {
              "internalType": "uint256",
              "name": "feeSettle",
              "type": "uint256"
            },
            {
              "internalType": "uint256",
              "name": "rewardSettle",
              "type": "uint256"
            },
            {
              "internalType": "uint256",
              "name": "feeReferral",
              "type": "uint256"
            }
          ],
          "internalType": "struct Market.Frame",
          "name": "frame",
          "type": "tuple"
        },
        {
          "internalType": "uint256",
          "name": "avgPrice",
          "type": "uint256"
        }
      ],
      "name": "overrideFrameRate",
      "outputs": [],
      "stateMutability": "nonpayable",
      "type": "function"
    },
    {
      "inputs": [],
      "name": "owner",
      "outputs": [
        {
          "internalType": "address",
          "name": "",
          "type": "address"
        }
      ],
      "stateMutability": "view",
      "type": "function"
    },
    {
      "inputs": [],
      "name": "period",
      "outputs": [
        {
          "internalType": "uint256",
          "name": "",
          "type": "uint256"
        }
      ],
      "stateMutability": "view",
      "type": "function"
    },
    {
      "inputs": [],
      "name": "referralPct",
      "outputs": [
        {
          "internalType": "uint256",
          "name": "",
          "type": "uint256"
        }
      ],
      "stateMutability": "view",
      "type": "function"
    },
    {
      "inputs": [
        {
          "internalType": "address",
          "name": "user",
          "type": "address"
        }
      ],
      "name": "referredBy",
      "outputs": [
        {
          "internalType": "address",
          "name": "",
          "type": "address"
        }
      ],
      "stateMutability": "view",
      "type": "function"
    },
    {
      "inputs": [
        {
          "internalType": "uint256",
          "name": "frameKey",
          "type": "uint256"
        }
      ],
      "name": "setFrameRate",
      "outputs": [],
      "stateMutability": "nonpayable",
      "type": "function"
    },
    {
      "inputs": [
        {
          "internalType": "uint256",
          "name": "frameKey",
          "type": "uint256"
        }
      ],
      "name": "settleFrame",
      "outputs": [
        {
          "internalType": "uint256",
          "name": "",
          "type": "uint256"
        }
      ],
      "stateMutability": "nonpayable",
      "type": "function"
    },
    {
      "inputs": [],
      "name": "tSettle",
      "outputs": [
        {
          "internalType": "uint256",
          "name": "",
          "type": "uint256"
        }
      ],
      "stateMutability": "view",
      "type": "function"
    },
    {
      "inputs": [],
      "name": "taxMarket",
      "outputs": [
        {
          "internalType": "uint256",
          "name": "",
          "type": "uint256"
        }
      ],
      "stateMutability": "view",
      "type": "function"
    },
    {
      "inputs": [
        {
          "internalType": "uint256",
          "name": "timestamp",
          "type": "uint256"
        },
        {
          "internalType": "uint256",
          "name": "rate",
          "type": "uint256"
        },
        {
          "internalType": "uint256",
          "name": "acquisitionPrice",
          "type": "uint256"
        },
        {
          "internalType": "address",
          "name": "referrer",
          "type": "address"
        }
      ],
      "name": "tradeLot",
      "outputs": [],
      "stateMutability": "nonpayable",
      "type": "function"
    },
    {
      "inputs": [],
      "name": "uniswapPool",
      "outputs": [
        {
          "internalType": "contract IUniswapV3Pool",
          "name": "",
          "type": "address"
        }
      ],
      "stateMutability": "view",
      "type": "function"
    },
    {
      "inputs": [
        {
          "internalType": "address",
          "name": "user",
          "type": "address"
        }
      ],
      "name": "userExists",
      "outputs": [
        {
          "internalType": "bool",
          "name": "",
          "type": "bool"
        }
      ],
      "stateMutability": "view",
      "type": "function"
    },
    {
      "inputs": [
        {
          "internalType": "address",
          "name": "",
          "type": "address"
        }
      ],
      "name": "users",
      "outputs": [
        {
          "internalType": "bool",
          "name": "exists",
          "type": "bool"
        },
        {
          "internalType": "address",
          "name": "referredBy",
          "type": "address"
        }
      ],
      "stateMutability": "view",
      "type": "function"
    },
    {
      "inputs": [
        {
          "internalType": "uint256",
          "name": "amount",
          "type": "uint256"
        }
      ],
      "name": "withdrawAccountingToken",
      "outputs": [],
      "stateMutability": "nonpayable",
      "type": "function"
    }
  ],
  "bytecode": "0x608060405262015180600055636592e180600155666a94d74f430000600255610258600355600480546001600160a01b03199081167367a9fe12fa6082d9d0203c84c6c56d3c4b269f281790915568056bc75e2d63100000600555662386f26fc1000060065560078054909116738f3cf7ad23cd3cadbd9735aff958023239c6a0631790556611c37937e0800060095534801561009b57600080fd5b50600880546001600160a01b0319163317905561418f806100bd6000396000f3fe608060405234801561001057600080fd5b50600436106102275760003560e01c80638da5cb5b11610130578063ba4e137f116100b8578063da68cf8b1161007c578063da68cf8b146105c9578063e107fb4f146105dc578063ef78d4fd146105ef578063fb0d5e09146105f8578063ffdabe2d1461061857600080fd5b8063ba4e137f14610568578063bad1265314610570578063bdd3d82514610590578063d18743dd146105a3578063d8d50008146105b657600080fd5b8063a10340bc116100ff578063a10340bc146103f3578063a87430ba1461048b578063a90f8e9a146104dd578063b866debb1461050e578063b93dafa91461052157600080fd5b80638da5cb5b1461039957806391a0846d146103c45780639592de18146103d75780639e9c4f08146103ea57600080fd5b80634c73884f116101b35780636f1aefc3116101825780636f1aefc31461033e5780637358c57a1461035e578063773d51eb146103675780637e996639146103875780638a5779c81461039057600080fd5b80634c73884f146102ef578063527eb4bc1461030f57806361eee2cb1461031857806369ca9e051461032b57600080fd5b806311235818116101fa57806311235818146102b85780632457e6201461025c57806339a6a489146102c05780633baf1587146102d3578063499a0fc4146102e657600080fd5b8063050e88401461022c57806305eaab4b146102525780630d0a1c1a1461025c5780630e666e491461027c575b600080fd5b61023f61023a36600461370b565b61062b565b6040519081526020015b60405180910390f35b61025a61064c565b005b61026f61026a36600461370b565b6109a6565b6040516102499190613724565b6102a861028a366004613790565b6001600160a01b03166000908152600c602052604090205460ff1690565b6040519015158152602001610249565b61023f610a0b565b61023f6102ce36600461370b565b610c27565b61025a6102e136600461370b565b610df4565b61023f60055481565b6103026102fd3660046137b4565b610ebe565b60405161024991906137ec565b61023f60025481565b61023f61032636600461370b565b610feb565b61025a610339366004613906565b611022565b61035161034c3660046137b4565b61111e565b6040516102499190613a45565b61023f60015481565b61037a61037536600461370b565b611275565b6040516102499190613a74565b61023f60065481565b61023f60035481565b6008546103ac906001600160a01b031681565b6040516001600160a01b039091168152602001610249565b61023f6103d2366004613b20565b6113b1565b61023f6103e536600461370b565b611416565b61023f60095481565b61044861040136600461370b565b600a602052600090815260409020805460018201546003830154600484015460058501546006860154600790960154949593946001600160a01b0390931693919290919087565b6040805197885260208801969096526001600160a01b03909416948601949094526060850191909152608084015260a083019190915260c082015260e001610249565b6104be610499366004613790565b600c6020526000908152604090205460ff81169061010090046001600160a01b031682565b6040805192151583526001600160a01b03909116602083015201610249565b6103ac6104eb366004613790565b6001600160a01b039081166000908152600c602052604090205461010090041690565b61023f61051c36600461370b565b611441565b61055361052f3660046137b4565b600d6020908152600092835260408084209091529082529020805460019091015482565b60408051928352602083019190915201610249565b61023f61198e565b61058361057e36600461370b565b611a5d565b6040516102499190613b4c565b6004546103ac906001600160a01b031681565b61025a6105b136600461370b565b611af4565b61025a6105c4366004613b60565b611bdc565b6007546103ac906001600160a01b031681565b61023f6105ea3660046137b4565b611d1b565b61023f60005481565b61060b6106063660046137b4565b611ddd565b6040516102499190613ba1565b61023f61062636600461370b565b611e93565b600b818154811061063b57600080fd5b600091825260209091200154905081565b336000908152600c602052604090205460ff166106845760405162461bcd60e51b815260040161067b90613bb4565b60405180910390fd5b600b5460009067ffffffffffffffff8111156106a2576106a2613806565b6040519080825280602002602001820160405280156106cb578160200160208202803683370190505b5090506000805b600b54811015610775576004610704600b83815481106106f4576106f4613be1565b9060005260206000200154611a5d565b6004811115610715576107156137d6565b0361076357600b818154811061072d5761072d613be1565b906000526020600020015483838151811061074a5761074a613be1565b60209081029190910101528161075f81613c0d565b9250505b8061076d81613c0d565b9150506106d2565b50600081116107ba5760405162461bcd60e51b81526020600482015260116024820152704e6f20736574746c6564206672616d657360781b604482015260640161067b565b6000805b828110156108e457336000908152600c602052604081208551600290910191908690849081106107f0576107f0613be1565b602090810291909101810151825281019190915260400160009081205460ff16151590036108d257336000908152600c6020526040812085516001909101919086908490811061084257610842613be1565b6020026020010151815260200190815260200160002054826108649190613c26565b91506001600c6000336001600160a01b03166001600160a01b0316815260200190815260200160002060020160008684815181106108a4576108a4613be1565b6020026020010151815260200190815260200160002060006101000a81548160ff0219169083151502179055505b806108dc81613c0d565b9150506107be565b506000811161092b5760405162461bcd60e51b81526020600482015260136024820152724e6f207265776172647320746f20636c61696d60681b604482015260640161067b565b60075460405163a9059cbb60e01b8152336004820152602481018390526001600160a01b039091169063a9059cbb906044016020604051808303816000875af115801561097c573d6000803e3d6000fd5b505050506040513d601f19601f820116820180604052508101906109a09190613c49565b50505050565b6000818152600a60209081526040918290206002018054835181840281018401909452808452606093928301828280156109ff57602002820191906000526020600020905b8154815260200190600101908083116109eb575b50505050509050919050565b336000908152600c602052604081205460ff16610a3a5760405162461bcd60e51b815260040161067b90613bb4565b600b5460009067ffffffffffffffff811115610a5857610a58613806565b604051908082528060200260200182016040528015610a81578160200160208202803683370190505b5090506000805b600b54811015610b1b576004610aaa600b83815481106106f4576106f4613be1565b6004811115610abb57610abb6137d6565b03610b0957600b8181548110610ad357610ad3613be1565b9060005260206000200154838381518110610af057610af0613be1565b602090810291909101015281610b0581613c0d565b9250505b80610b1381613c0d565b915050610a88565b5060008111610b605760405162461bcd60e51b81526020600482015260116024820152704e6f20736574746c6564206672616d657360781b604482015260640161067b565b6000805b82811015610c1f57336000908152600c60205260408120855160029091019190869084908110610b9657610b96613be1565b602090810291909101810151825281019190915260400160009081205460ff1615159003610c0d57336000908152600c60205260408120855160019091019190869084908110610be857610be8613be1565b602002602001015181526020019081526020016000205482610c0a9190613c26565b91505b80610c1781613c0d565b915050610b64565b509392505050565b600080805b6000848152600a6020526040902060020154811015610ded576000848152600a6020818152604080842080548552600d835290842088855292909152600201805483919085908110610c8057610c80613be1565b90600052602060002001548152602001908152602001600020604051806060016040529081600082015481526020016001820154815260200160028201805480602002602001604051908101604052809291908181526020016000905b82821015610d4e5760008481526020908190206040805160c08101825260068602909201805483526001808201548486015260028201546001600160a01b03169284019290925260038101546060840152600481015460808401526005015460a08301529083529092019101610cdd565b5050505081525050905060005b816040015151811015610dd85781604001518181518110610d7e57610d7e613be1565b60200260200101516080015184610d959190613c26565b935081604001518181518110610dad57610dad613be1565b602002602001015160a0015184610dc49190613c64565b935080610dd081613c0d565b915050610d5b565b50508080610de590613c0d565b915050610c2c565b5092915050565b60008054828252600a6020526040909120544291610e1191613c26565b1115610e5f5760405162461bcd60e51b815260206004820152601b60248201527f4672616d652068617320746f20626520696e2074686520706173740000000000604482015260640161067b565b6000610e6a82611e93565b6000838152600a6020526040908190206001810183905590519192507f929af310c689982c60d4ec73c6e4b602e89c6f6a31da7c2df4888fb0627cb2b191610eb29190613cac565b60405180910390a15050565b6000828152600d602090815260408083208484529091528120600101548103610ee957506000610fe5565b6000610ef484611a5d565b6004811115610f0557610f056137d6565b03610f1257506000610fe5565b6001610f1d84611a5d565b6004811115610f2e57610f2e6137d6565b1480610f5357506002610f4084611a5d565b6004811115610f5157610f516137d6565b145b15610f6057506001610fe5565b6000838152600d602090815260408083208584528252808320600190810154878552600a90935292209091015410801590610fd457506005546000848152600d60209081526040808320868452909152902060010154610fc09190613c26565b6000848152600a6020526040902060010154105b15610fe157506002610fe5565b5060035b92915050565b60006001548211610ffe57505060015490565b60005460015461100e9084613c64565b6110189190613d34565b610fe59083613c64565b6008546001600160a01b0316331461108c5760405162461bcd60e51b815260206004820152602760248201527f4f6e6c79206f776e65722063616e20757064617465206672616d6520636c6f736044820152666520707269636560c81b606482015260840161067b565b81516000036110ad5760405162461bcd60e51b815260040161067b90613d48565b60608201516001600160a01b0316156111085760405162461bcd60e51b815260206004820181905260248201527f4672616d65207265776172642077617320616c726561647920636c61696d6564604482015260640161067b565b90516000908152600a6020526040902060010155565b61114260405180606001604052806000815260200160008152602001606081525090565b6000838152600d6020908152604080832085845290915281206001015490036111a15760405162461bcd60e51b8152602060048201526011602482015270131bdd08191bd95cdb89dd08195e1a5cdd607a1b604482015260640161067b565b6000838152600d602090815260408083208584528252808320815160608101835281548152600182015481850152600282018054845181870281018701865281815292969395948701949293919290919084015b828210156112665760008481526020908190206040805160c08101825260068602909201805483526001808201548486015260028201546001600160a01b03169284019290925260038101546060840152600481015460808401526005015460a083015290835290920191016111f5565b50505091525090949350505050565b6112c660405180610100016040528060008152602001600081526020016060815260200160006001600160a01b03168152602001600081526020016000815260200160008152602001600081525090565b6000828152600a602052604081205490036112f35760405162461bcd60e51b815260040161067b90613d48565b6000828152600a6020908152604091829020825161010081018452815481526001820154818401526002820180548551818602810186018752818152929593949386019383018282801561136657602002820191906000526020600020905b815481526020019060010190808311611352575b505050918352505060038201546001600160a01b0316602082015260048201546040820152600582015460608201526006820154608082015260079091015460a09091015292915050565b6001600160a01b0382166000908152600c602052604081205460ff166113e95760405162461bcd60e51b815260040161067b90613bb4565b506001600160a01b03919091166000908152600c6020908152604080832093835260019093019052205490565b600060055482101561142a57505060055490565b6005546114378184613d75565b610fe59190613d89565b6000818152600a6020526040812054810361146e5760405162461bcd60e51b815260040161067b90613d48565b600361147983611a5d565b600481111561148a5761148a6137d6565b146114e35760405162461bcd60e51b8152602060048201526024808201527f4672616d6520646f6573206e6f742068617665206120636c6f73652072617465604482015263081cd95d60e21b606482015260840161067b565b6000828152600a60205260408120600101546114fe90611416565b6000848152600d60209081526040808320848452825280832081516060810183528154815260018201548185015260028201805484518187028101870186528181529798509596919592949386019391929091879084015b828210156115c75760008481526020908190206040805160c08101825260068602909201805483526001808201548486015260028201546001600160a01b03169284019290925260038101546060840152600481015460808401526005015460a08301529083529092019101611556565b5050505081525050905060006115dc85610c27565b90506000670de0b6b3a7640000600254836115f79190613d89565b6116019190613d75565b6000878152600a6020526040902060058101829055600701549091506116278284613c64565b6116319190613c64565b6000878152600a60205260409081902060060191909155830151511561180057600754604084015180516001600160a01b039092169163a9059cbb919061167a90600190613c64565b8151811061168a5761168a613be1565b602002602001015160400151600a60008a8152602001908152602001600020600601546040518363ffffffff1660e01b81526004016116de9291906001600160a01b03929092168252602082015260400190565b6020604051808303816000875af11580156116fd573d6000803e3d6000fd5b505050506040513d601f19601f820116820180604052508101906117219190613c49565b506040830151805161173590600190613c64565b8151811061174557611745613be1565b6020908102919091018101516040908101516000898152600a909352918190206003810180546001600160a01b0319166001600160a01b03948516179055600754600854600590920154925163a9059cbb60e01b81529184166004830152602482019290925291169063a9059cbb906044016020604051808303816000875af11580156117d6573d6000803e3d6000fd5b505050506040513d601f19601f820116820180604052508101906117fa9190613c49565b506118de565b6007546008546000888152600a6020526040902060058101546006909101546001600160a01b039384169363a9059cbb93169161183c91613c26565b6040516001600160e01b031960e085901b1681526001600160a01b03909216600483015260248201526044016020604051808303816000875af1158015611887573d6000803e3d6000fd5b505050506040513d601f19601f820116820180604052508101906118ab9190613c49565b506008546000878152600a6020526040902060030180546001600160a01b0319166001600160a01b039092169190911790555b6000868152600a6020526040908190206001810154600490910155517f906ff162b3f2709ab28fb678d43913964434148dd206e9b17adb3c1255090cb190611927908590613a45565b60405180910390a16000868152600a60205260409081902090517f929af310c689982c60d4ec73c6e4b602e89c6f6a31da7c2df4888fb0627cb2b19161196c91613cac565b60405180910390a150505060009283525050600a602052604090206006015490565b6004805460408051633850c7bd60e01b8152905160009384936001600160a01b031692633850c7bd928183019260e0928290030181865afa1580156119d7573d6000803e3d6000fd5b505050506040513d601f19601f820116820180604052508101906119fb9190613db2565b50505050505090506000816001600160a01b031690506000600160601b82670de0b6b3a7640000611a2c9190613d89565b611a369190613d75565b9050670de0b6b3a7640000611a4b8280613d89565b611a559190613d75565b949350505050565b6000818152600a60205260408120548103611a7a57506000919050565b6000828152600a60205260409020600301546001600160a01b031615611aa257506004919050565b60008054838252600a602052604090912054611abe9190613c26565b421015611acd57506001919050565b6000828152600a602052604090206001015415611aec57506003919050565b506002919050565b6008546001600160a01b03163314611b5f5760405162461bcd60e51b815260206004820152602860248201527f4f6e6c79206f776e65722063616e207769746864726177206163636f756e74696044820152673733903a37b5b2b760c11b606482015260840161067b565b60075460085460405163a9059cbb60e01b81526001600160a01b0391821660048201526024810184905291169063a9059cbb906044016020604051808303816000875af1158015611bb4573d6000803e3d6000fd5b505050506040513d601f19601f82011682018060405250810190611bd89190613c49565b5050565b6000611be785610feb565b90506000611bf485611416565b6000838152600d6020908152604080832084845290915281206001015491925003611c4c576000828152600a60205260408120549003611c3957611c37866120d9565b505b611c4582828686612216565b50506109a0565b6000828152600d6020908152604080832084845290915290206002018054339190611c7990600190613c64565b81548110611c8957611c89613be1565b60009182526020909120600260069092020101546001600160a01b031603611cb757611c4582828686612526565b611cc3828286866129d1565b6000828152600d602090815260408083208484529091529081902090517f906ff162b3f2709ab28fb678d43913964434148dd206e9b17adb3c1255090cb191611d0b91613e4c565b60405180910390a1505050505050565b60004260005484611d2c9190613c26565b11611d795760405162461bcd60e51b815260206004820152601d60248201527f4672616d652068617320746f20626520696e2074686520667574757265000000604482015260640161067b565b60008054600654611d8a9190613d75565b905060004260005486611d9d9190613c26565b611da79190613c64565b90506000670de0b6b3a764000085611dbf8585613d89565b611dc99190613d89565b611dd39190613d75565b9695505050505050565b6000828152600d602090815260408083208484528252808320600201805482518185028101850190935280835260609492939192909184015b82821015611e875760008481526020908190206040805160c08101825260068602909201805483526001808201548486015260028201546001600160a01b03169284019290925260038101546060840152600481015460808401526005015460a08301529083529092019101611e16565b50505050905092915050565b6000806003548342611ea59190613c64565b611eaf9190613c26565b90506000611ebd8442613c64565b60408051600280825260608201835292935060009290916020830190803683370190505090508281600081518110611ef757611ef7613be1565b602002602001019063ffffffff16908163ffffffff16815250508181600181518110611f2557611f25613be1565b63ffffffff909216602092830291909101909101526004805460405163883bdbfd60e01b81526000926001600160a01b039092169163883bdbfd91611f6c91869101613efa565b600060405180830381865afa158015611f89573d6000803e3d6000fd5b505050506040513d6000823e601f3d908101601f19168201604052611fb19190810190613f9c565b509050600081600081518110611fc957611fc9613be1565b602002602001015160060b82600181518110611fe757611fe7613be1565b602002602001015160060b611ffc9190614068565b905060008112156120455760405162461bcd60e51b81526020600482015260136024820152724e65676174697665207469636b2064656c746160681b604482015260640161067b565b80600061205b63ffffffff808816908916613c64565b905060006120698284613d75565b9050600061207682612f83565b9050600061209466010000000000006001600160a01b038416613d75565b905060006120a28280613d89565b90506000600160601b6120bd83670de0b6b3a7640000613d89565b6120c79190613d75565b9e9d5050505050505050505050505050565b6000806120e583610feb565b6000818152600a60205260409020549091501561213b5760405162461bcd60e51b81526020600482015260146024820152734672616d6520616c72656164792065786973747360601b604482015260640161067b565b426000548261214a9190613c26565b10156121985760405162461bcd60e51b815260206004820152601d60248201527f4672616d652068617320746f20626520696e2074686520667574757265000000604482015260640161067b565b6000818152600a602052604090819020828155600b8054600181019091557f0175b7a638427703f0dbe7bb9bbf987a2551717b34e79f33b5b1008d1fa01db90183905590517f929af310c689982c60d4ec73c6e4b602e89c6f6a31da7c2df4888fb0627cb2b19161220891613cac565b60405180910390a192915050565b60006122228584611d1b565b9050600081116122445760405162461bcd60e51b815260040161067b90614088565b600754604051636eb1769f60e11b815233600482015230602482015282916001600160a01b03169063dd62ed3e90604401602060405180830381865afa158015612292573d6000803e3d6000fd5b505050506040513d601f19601f820116820180604052508101906122b691906140e5565b10156122d45760405162461bcd60e51b815260040161067b906140fe565b6000858152600d60209081526040808320878452909152902060010154156123335760405162461bcd60e51b81526020600482015260126024820152714c6f7420616c72656164792065786973747360701b604482015260640161067b565b6040805160c081018252438152426020808301918252338385019081526060840188815260808501878152600060a087018181528d8252600d86528882208d835286529781208d815560018082018e90556002808301805480840182558186529885208b516006909a0201988955985191880191909155945194860180546001600160a01b0319166001600160a01b0390961695909517909455915160038501555160048401559451600590920191909155928790528054919291829182916123fe91908190613625565b5050506000878152600a602090815260408083206001808601546002909201805491820181558552929093209091019190915560075490516323b872dd60e01b81526001600160a01b03909116906323b872dd9061246490339030908890600401614135565b6020604051808303816000875af1158015612483573d6000803e3d6000fd5b505050506040513d601f19601f820116820180604052508101906124a79190613c49565b50336000908152600c602052604090205460ff166124c8576124c884613366565b336000908152600c60205260408082205461010090046001600160a01b0316825290205460ff161561251d57336000908152600c602052604090205461251d9061010090046001600160a01b031684896134a2565b50505050505050565b6000848152600d602090815260408083208684529091528120600201805461257d91879161255690600190613c64565b8154811061256657612566613be1565b906000526020600020906006020160030154611d1b565b9050600061258b8685611d1b565b9050808211156127985760006125a18284613c64565b6007546000898152600d602090815260408083208b8452909152902060020180549293506001600160a01b039091169163a9059cbb91906125e490600190613c64565b815481106125f4576125f4613be1565b600091825260209091206006909102016002015460405160e083901b6001600160e01b03191681526001600160a01b039091166004820152602481018490526044016020604051808303816000875af1158015612655573d6000803e3d6000fd5b505050506040513d601f19601f820116820180604052508101906126799190613c49565b506000878152600d602090815260408083208984528252808320815160c0810183524381524281850190815233828501818152606084018d81526080850189815260a086018b81526002978801805460018082018355918d528b8d2098516006909102909801978855955195870195909555915195850180546001600160a01b0319166001600160a01b03909716969096179095559351600384015592516004830155516005909101558352600c90915290205460ff1661273d5761273d84613366565b336000908152600c60205260408082205461010090046001600160a01b0316825290205460ff161561279257336000908152600c60205260409020546127929061010090046001600160a01b03168289613569565b506129c9565b60006127a48383613c64565b600754604051636eb1769f60e11b815233600482015230602482015291925082916001600160a01b039091169063dd62ed3e90604401602060405180830381865afa1580156127f7573d6000803e3d6000fd5b505050506040513d601f19601f8201168201806040525081019061281b91906140e5565b10156128395760405162461bcd60e51b815260040161067b906140fe565b6007546040516323b872dd60e01b81526001600160a01b03909116906323b872dd9061286d90339030908690600401614135565b6020604051808303816000875af115801561288c573d6000803e3d6000fd5b505050506040513d601f19601f820116820180604052508101906128b09190613c49565b506000878152600d602090815260408083208984528252808320815160c0810183524381524281850190815233828501818152606084018d8152608085018a815260a086018a81526002978801805460018082018355918d528b8d2098516006909102909801978855955195870195909555915195850180546001600160a01b0319166001600160a01b03909716969096179095559351600384015592516004830155516005909101558352600c90915290205460ff166129745761297484613366565b336000908152600c60205260408082205461010090046001600160a01b0316825290205460ff161561251d57336000908152600c602052604090205461251d9061010090046001600160a01b031682896134a2565b505050505050565b6000848152600d60209081526040808320868452909152812060020180546129fb90600190613c64565b81548110612a0b57612a0b613be1565b600091825260208220600260069092020101546001600160a01b03169150612a338685611d1b565b905060008111612a555760405162461bcd60e51b815260040161067b90614088565b6000868152600d6020908152604080832088845290915281206002018054612a7f90600190613c64565b81548110612a8f57612a8f613be1565b90600052602060002090600602016003015490508082612aaf9190613c26565b600754604051636eb1769f60e11b81523360048201523060248201526001600160a01b039091169063dd62ed3e90604401602060405180830381865afa158015612afd573d6000803e3d6000fd5b505050506040513d601f19601f82011682018060405250810190612b2191906140e5565b1015612b3f5760405162461bcd60e51b815260040161067b906140fe565b6007546040516323b872dd60e01b81526001600160a01b03909116906323b872dd90612b7390339030908790600401614135565b6020604051808303816000875af1158015612b92573d6000803e3d6000fd5b505050506040513d601f19601f82011682018060405250810190612bb69190613c49565b506007546040516323b872dd60e01b81526001600160a01b03909116906323b872dd90612beb90339087908690600401614135565b6020604051808303816000875af1158015612c0a573d6000803e3d6000fd5b505050506040513d601f19601f82011682018060405250810190612c2e9190613c49565b506000878152600d6020908152604080832089845290915281206002018054612c5f918a9161255690600190613c64565b60075460405163a9059cbb60e01b81526001600160a01b0387811660048301526024820184905292935091169063a9059cbb906044016020604051808303816000875af1158015612cb4573d6000803e3d6000fd5b505050506040513d601f19601f82011682018060405250810190612cd89190613c49565b50336000908152600c602052604090205460ff16612cf957612cf985613366565b336000908152600c60205260408082205461010090046001600160a01b0316825290205460ff1615612d4e57336000908152600c6020526040902054612d4e9061010090046001600160a01b0316848a6134a2565b6001600160a01b038085166000908152600c60205260408082205461010090049092168152205460ff1615612da9576001600160a01b038085166000908152600c6020526040902054612da99161010090910416828a613569565b600d600089815260200190815260200160002060008881526020019081526020016000206002016040518060c00160405280438152602001428152602001866001600160a01b0316815260200184815260200160008152602001838152509080600181540180825580915050600190039060005260206000209060060201600090919091909150600082015181600001556020820151816001015560408201518160020160006101000a8154816001600160a01b0302191690836001600160a01b03160217905550606082015181600301556080820151816004015560a082015181600501555050600d600089815260200190815260200160002060008881526020019081526020016000206002016040518060c00160405280438152602001428152602001336001600160a01b0316815260200188815260200185815260200160008152509080600181540180825580915050600190039060005260206000209060060201600090919091909150600082015181600001556020820151816001015560408201518160020160006101000a8154816001600160a01b0302191690836001600160a01b03160217905550606082015181600301556080820151816004015560a0820151816005015550505050505050505050565b600081620d89e8811115612fbd5760405162461bcd60e51b81526020600482015260016024820152601560fa1b604482015260640161067b565b600081600116600003612fd457600160801b612fe6565b6ffffcb933bd6fad37aa2d162d1a5940015b70ffffffffffffffffffffffffffffffffff1690506002821615613025576080613020826ffff97272373d413259a46990580e213a613d89565b901c90505b600482161561304f57608061304a826ffff2e50f5f656932ef12357cf3c7fdcc613d89565b901c90505b6008821615613079576080613074826fffe5caca7e10e4e61c3624eaa0941cd0613d89565b901c90505b60108216156130a357608061309e826fffcb9843d60f6159c9db58835c926644613d89565b901c90505b60208216156130cd5760806130c8826fff973b41fa98c081472e6896dfb254c0613d89565b901c90505b60408216156130f75760806130f2826fff2ea16466c96a3843ec78b326b52861613d89565b901c90505b608082161561312157608061311c826ffe5dee046a99a2a811c461f1969c3053613d89565b901c90505b61010082161561314c576080613147826ffcbe86c7900a88aedcffc83b479aa3a4613d89565b901c90505b610200821615613177576080613172826ff987a7253ac413176f2b074cf7815e54613d89565b901c90505b6104008216156131a257608061319d826ff3392b0822b70005940c7a398e4b70f3613d89565b901c90505b6108008216156131cd5760806131c8826fe7159475a2c29b7443b29c7fa6e889d9613d89565b901c90505b6110008216156131f85760806131f3826fd097f3bdfd2022b8845ad8f792aa5825613d89565b901c90505b61200082161561322357608061321e826fa9f746462d870fdf8a65dc1f90e061e5613d89565b901c90505b61400082161561324e576080613249826f70d869a156d2a1b890bb3df62baf32f7613d89565b901c90505b618000821615613279576080613274826f31be135f97d08fd981231505542fcfa6613d89565b901c90505b620100008216156132a55760806132a0826f09aa508b5b7a84e1c677de54f3e99bc9613d89565b901c90505b620200008216156132d05760806132cb826e5d6af8dedb81196699c329225ee604613d89565b901c90505b620400008216156132fa5760806132f5826d2216e584f5fa1ea926041bedfe98613d89565b901c90505b6208000082161561332257608061331d826b048a170391f7dc42444e8fa2613d89565b901c90505b83156133375761333481600019613d75565b90505b61334664010000000082613d34565b15613352576001613355565b60005b611a559060ff16602083901c613c26565b336000908152600c602052604090205460ff16156133bc5760405162461bcd60e51b81526020600482015260136024820152725573657220616c72656164792065786973747360681b604482015260640161067b565b6001600160a01b03811661340257336000908152600c6020526040902080546001600160a01b0392909216610100026001600160a81b0319909216919091176001179055565b6001600160a01b0381166000908152600c602052604090205460ff1661346a5760405162461bcd60e51b815260206004820152601760248201527f526566657272657220646f6573206e6f74206578697374000000000000000000604482015260640161067b565b336000908152600c6020526040902080546001600160a01b0392909216610100026001600160a81b0319909216919091176001179055565b6001600160a01b0383166000908152600c602052604090205460ff166134da5760405162461bcd60e51b815260040161067b90613bb4565b6000670de0b6b3a7640000600954846134f39190613d89565b6134fd9190613d75565b6001600160a01b0385166000908152600c60209081526040808320868452600101909152812080549293508392909190613538908490613c26565b90915550506000828152600a60205260408120600701805483929061355e908490613c26565b909155505050505050565b6001600160a01b0383166000908152600c602052604090205460ff166135a15760405162461bcd60e51b815260040161067b90613bb4565b6000670de0b6b3a7640000600954846135ba9190613d89565b6135c49190613d75565b6001600160a01b0385166000908152600c602090815260408083208684526001019091528120805492935083929091906135ff908490613c64565b90915550506000828152600a60205260408120600701805483929061355e908490613c64565b8280548282559060005260206000209060060281019282156136b95760005260206000209160060282015b828111156136b957825482556001808401549083015560028084015490830180546001600160a01b0319166001600160a01b0390921691909117905560038084015490830155600480840154908301556005808401549083015560069283019290910190613650565b506136c59291506136c9565b5090565b5b808211156136c5576000808255600182018190556002820180546001600160a01b0319169055600382018190556004820181905560058201556006016136ca565b60006020828403121561371d57600080fd5b5035919050565b6020808252825182820181905260009190848201906040850190845b8181101561375c57835183529284019291840191600101613740565b50909695505050505050565b6001600160a01b038116811461377d57600080fd5b50565b803561378b81613768565b919050565b6000602082840312156137a257600080fd5b81356137ad81613768565b9392505050565b600080604083850312156137c757600080fd5b50508035926020909101359150565b634e487b7160e01b600052602160045260246000fd5b6020810160048310613800576138006137d6565b91905290565b634e487b7160e01b600052604160045260246000fd5b604051610100810167ffffffffffffffff8111828210171561384057613840613806565b60405290565b604051601f8201601f1916810167ffffffffffffffff8111828210171561386f5761386f613806565b604052919050565b600067ffffffffffffffff82111561389157613891613806565b5060051b60200190565b600082601f8301126138ac57600080fd5b813560206138c16138bc83613877565b613846565b82815260059290921b840181019181810190868411156138e057600080fd5b8286015b848110156138fb57803583529183019183016138e4565b509695505050505050565b6000806040838503121561391957600080fd5b823567ffffffffffffffff8082111561393157600080fd5b90840190610100828703121561394657600080fd5b61394e61381c565b823581526020830135602082015260408301358281111561396e57600080fd5b61397a8882860161389b565b60408301525061398c60608401613780565b60608201526080830135608082015260a083013560a082015260c083013560c082015260e083013560e0820152809450505050602083013590509250929050565b600081518084526020808501945080840160005b83811015613a3a5781518051885283810151848901526040808201516001600160a01b031690890152606080820151908901526080808201519089015260a0908101519088015260c090960195908201906001016139e1565b509495945050505050565b60208152815160208201526020820151604082015260006040830151606080840152611a5560808401826139cd565b6000602080835261012083018451828501528185015160408501526040850151610100806060870152828251808552610140880191508584019450600093505b80841015613ad45784518252938501936001939093019290850190613ab4565b5060608801516001600160a01b03811660808901529450608088015160a088015260a088015160c088015260c088015160e088015260e088015182880152809550505050505092915050565b60008060408385031215613b3357600080fd5b8235613b3e81613768565b946020939093013593505050565b6020810160058310613800576138006137d6565b60008060008060808587031215613b7657600080fd5b8435935060208501359250604085013591506060850135613b9681613768565b939692955090935050565b6020815260006137ad60208301846139cd565b602080825260139082015272155cd95c88191bd95cc81b9bdd08195e1a5cdd606a1b604082015260600190565b634e487b7160e01b600052603260045260246000fd5b634e487b7160e01b600052601160045260246000fd5b600060018201613c1f57613c1f613bf7565b5060010190565b80820180821115610fe557610fe5613bf7565b8051801515811461378b57600080fd5b600060208284031215613c5b57600080fd5b6137ad82613c39565b81810381811115610fe557610fe5613bf7565b6000815480845260208085019450836000528060002060005b83811015613a3a57815487529582019560019182019101613c90565b6020815281546020820152600182015460408201526000610100806060840152613cdd610120840160028601613c77565b60038501546001600160a01b03166080850152600485015460a0850152600585015460c0850152600685015460e08501526007909401549201919091525090565b634e487b7160e01b600052601260045260246000fd5b600082613d4357613d43613d1e565b500690565b602080825260139082015272119c985b5948191bd95cdb89dd08195e1a5cdd606a1b604082015260600190565b600082613d8457613d84613d1e565b500490565b8082028115828204841417610fe557610fe5613bf7565b805161ffff8116811461378b57600080fd5b600080600080600080600060e0888a031215613dcd57600080fd5b8751613dd881613768565b8097505060208801518060020b8114613df057600080fd5b9550613dfe60408901613da0565b9450613e0c60608901613da0565b9350613e1a60808901613da0565b925060a088015160ff81168114613e3057600080fd5b9150613e3e60c08901613c39565b905092959891949750929550565b6000602080835260808084018554838601526001808701546040818189015260029150818901606080818b015285825480885260a09750878c0191508360005289600020935060005b81811015613ee85784548352878501548b840152868501546001600160a01b03168684015260038501548484015260048501548a84015260058501548984015260069094019360c0909201918701613e95565b50909c9b505050505050505050505050565b6020808252825182820181905260009190848201906040850190845b8181101561375c57835163ffffffff1683529284019291840191600101613f16565b600082601f830112613f4957600080fd5b81516020613f596138bc83613877565b82815260059290921b84018101918181019086841115613f7857600080fd5b8286015b848110156138fb578051613f8f81613768565b8352918301918301613f7c565b60008060408385031215613faf57600080fd5b825167ffffffffffffffff80821115613fc757600080fd5b818501915085601f830112613fdb57600080fd5b81516020613feb6138bc83613877565b82815260059290921b8401810191818101908984111561400a57600080fd5b948201945b838610156140385785518060060b81146140295760008081fd5b8252948201949082019061400f565b9188015191965090935050508082111561405157600080fd5b5061405e85828601613f38565b9150509250929050565b8181036000831280158383131683831282161715610ded57610ded613bf7565b6020808252603c908201527f5461782068617320746f2062652067726561746572207468616e20302e20496e60408201527f63726561736520746865206163717569736974696f6e20707269636500000000606082015260800190565b6000602082840312156140f757600080fd5b5051919050565b6020808252601e908201527f416c6c6f77616e636520746f207370656e642073657420746f6f206c6f770000604082015260600190565b6001600160a01b03938416815291909216602082015260408101919091526060019056fea2646970667358221220ea79142afa7cc0ecb460a1aed36305a170f81502feab2e1f4853ebdffe93daa464736f6c63430008140033",
  "linkReferences": {},
  "deployedLinkReferences": {}
}