{
  "_format": "hh-sol-artifact-1",
  "contractName": "Market",
  "sourceName": "contracts/Market.sol",
  "abi": [
    {
      "inputs": [
        {
          "internalType": "contract MarketFactory",
          "name": "_factory",
          "type": "address"
        },
        {
          "internalType": "contract IERC20",
          "name": "_token",
          "type": "address"
        },
        {
          "internalType": "contract IUniswapV2Pair",
          "name": "_uniswapPair",
          "type": "address"
        },
        {
          "internalType": "uint256",
          "name": "_period",
          "type": "uint256"
        },
        {
          "internalType": "uint256",
          "name": "_initTimestamp",
          "type": "uint256"
        },
        {
          "internalType": "uint256",
          "name": "_taxMarket",
          "type": "uint256"
        },
        {
          "internalType": "uint256",
          "name": "_feeMarket",
          "type": "uint256"
        },
        {
          "internalType": "uint256",
          "name": "_dPrice",
          "type": "uint256"
        },
        {
          "internalType": "uint256",
          "name": "_tReporting",
          "type": "uint256"
        },
        {
          "internalType": "uint256",
          "name": "_minTax",
          "type": "uint256"
        },
        {
          "internalType": "bool",
          "name": "_avgPriceSwitch",
          "type": "bool"
        }
      ],
      "stateMutability": "nonpayable",
      "type": "constructor"
    },
    {
      "anonymous": false,
      "inputs": [
        {
          "indexed": false,
          "internalType": "uint256",
          "name": "frameKey",
          "type": "uint256"
        },
        {
          "indexed": false,
          "internalType": "uint256",
          "name": "oracleTimestampStart",
          "type": "uint256"
        },
        {
          "indexed": false,
          "internalType": "uint256",
          "name": "oracleTimestampEnd",
          "type": "uint256"
        },
        {
          "indexed": false,
          "internalType": "uint256",
          "name": "oraclePrice0CumulativeStart",
          "type": "uint256"
        },
        {
          "indexed": false,
          "internalType": "uint256",
          "name": "oraclePrice0CumulativeEnd",
          "type": "uint256"
        },
        {
          "indexed": false,
          "internalType": "uint256",
          "name": "oraclePrice1CumulativeStart",
          "type": "uint256"
        },
        {
          "indexed": false,
          "internalType": "uint256",
          "name": "oraclePrice1CumulativeEnd",
          "type": "uint256"
        },
        {
          "indexed": false,
          "internalType": "uint256",
          "name": "rewardFund",
          "type": "uint256"
        }
      ],
      "name": "FrameUpdate",
      "type": "event"
    },
    {
      "anonymous": false,
      "inputs": [
        {
          "indexed": false,
          "internalType": "uint256",
          "name": "frameKey",
          "type": "uint256"
        },
        {
          "components": [
            {
              "internalType": "uint256",
              "name": "frameKey",
              "type": "uint256"
            },
            {
              "internalType": "uint256",
              "name": "lotKey",
              "type": "uint256"
            },
            {
              "internalType": "address",
              "name": "lotOwner",
              "type": "address"
            },
            {
              "internalType": "uint256",
              "name": "acquisitionPrice",
              "type": "uint256"
            },
            {
              "internalType": "enum MLib.SLot",
              "name": "state",
              "type": "uint8"
            }
          ],
          "indexed": false,
          "internalType": "struct MLib.Lot",
          "name": "lotStruct",
          "type": "tuple"
        }
      ],
      "name": "LotUpdate",
      "type": "event"
    },
    {
      "inputs": [
        {
          "internalType": "uint256",
          "name": "frameKey",
          "type": "uint256"
        },
        {
          "internalType": "uint256",
          "name": "avgPrice",
          "type": "uint256"
        }
      ],
      "name": "UpdateAvgPrice",
      "outputs": [],
      "stateMutability": "nonpayable",
      "type": "function"
    },
    {
      "inputs": [],
      "name": "accountingToken",
      "outputs": [
        {
          "internalType": "contract IERC20",
          "name": "",
          "type": "address"
        }
      ],
      "stateMutability": "view",
      "type": "function"
    },
    {
      "inputs": [
        {
          "internalType": "address",
          "name": "ownerPublicKey",
          "type": "address"
        },
        {
          "internalType": "address",
          "name": "referralPublicKey",
          "type": "address"
        },
        {
          "internalType": "string",
          "name": "message",
          "type": "string"
        }
      ],
      "name": "addReferral",
      "outputs": [],
      "stateMutability": "nonpayable",
      "type": "function"
    },
    {
      "inputs": [],
      "name": "avgPriceSwitch",
      "outputs": [
        {
          "internalType": "bool",
          "name": "",
          "type": "bool"
        }
      ],
      "stateMutability": "view",
      "type": "function"
    },
    {
      "inputs": [
        {
          "internalType": "uint256",
          "name": "timestamp",
          "type": "uint256"
        },
        {
          "internalType": "uint256",
          "name": "pairPrice",
          "type": "uint256"
        },
        {
          "internalType": "uint256",
          "name": "acqPrice",
          "type": "uint256"
        }
      ],
      "name": "buyLot",
      "outputs": [],
      "stateMutability": "nonpayable",
      "type": "function"
    },
    {
      "inputs": [
        {
          "internalType": "uint256",
          "name": "frameKey",
          "type": "uint256"
        }
      ],
      "name": "claimReward",
      "outputs": [],
      "stateMutability": "nonpayable",
      "type": "function"
    },
    {
      "inputs": [
        {
          "internalType": "uint256",
          "name": "timestamp",
          "type": "uint256"
        }
      ],
      "name": "clcFrameTimestamp",
      "outputs": [
        {
          "internalType": "uint256",
          "name": "",
          "type": "uint256"
        }
      ],
      "stateMutability": "view",
      "type": "function"
    },
    {
      "inputs": [
        {
          "internalType": "uint256",
          "name": "value",
          "type": "uint256"
        }
      ],
      "name": "clcLotKey",
      "outputs": [
        {
          "internalType": "uint256",
          "name": "",
          "type": "uint256"
        }
      ],
      "stateMutability": "view",
      "type": "function"
    },
    {
      "inputs": [
        {
          "internalType": "uint256",
          "name": "frameKey",
          "type": "uint256"
        },
        {
          "internalType": "uint256",
          "name": "acquisitionPrice",
          "type": "uint256"
        }
      ],
      "name": "clcTax",
      "outputs": [
        {
          "internalType": "uint256",
          "name": "tax",
          "type": "uint256"
        }
      ],
      "stateMutability": "view",
      "type": "function"
    },
    {
      "inputs": [],
      "name": "dPrice",
      "outputs": [
        {
          "internalType": "uint256",
          "name": "",
          "type": "uint256"
        }
      ],
      "stateMutability": "view",
      "type": "function"
    },
    {
      "inputs": [],
      "name": "factory",
      "outputs": [
        {
          "internalType": "contract MarketFactory",
          "name": "",
          "type": "address"
        }
      ],
      "stateMutability": "view",
      "type": "function"
    },
    {
      "inputs": [],
      "name": "feeMarket",
      "outputs": [
        {
          "internalType": "uint256",
          "name": "",
          "type": "uint256"
        }
      ],
      "stateMutability": "view",
      "type": "function"
    },
    {
      "inputs": [],
      "name": "feeProtocol",
      "outputs": [
        {
          "internalType": "uint256",
          "name": "",
          "type": "uint256"
        }
      ],
      "stateMutability": "view",
      "type": "function"
    },
    {
      "inputs": [
        {
          "internalType": "uint256",
          "name": "",
          "type": "uint256"
        }
      ],
      "name": "frames",
      "outputs": [
        {
          "internalType": "uint256",
          "name": "frameKey",
          "type": "uint256"
        },
        {
          "internalType": "uint256",
          "name": "oracleTimestampStart",
          "type": "uint256"
        },
        {
          "internalType": "uint256",
          "name": "oracleTimestampEnd",
          "type": "uint256"
        },
        {
          "internalType": "uint256",
          "name": "rewardFund",
          "type": "uint256"
        },
        {
          "internalType": "uint256",
          "name": "priceAverage",
          "type": "uint256"
        },
        {
          "internalType": "uint256",
          "name": "oraclePrice0CumulativeStart",
          "type": "uint256"
        },
        {
          "internalType": "uint256",
          "name": "oraclePrice0CumulativeEnd",
          "type": "uint256"
        },
        {
          "internalType": "uint256",
          "name": "oraclePrice1CumulativeStart",
          "type": "uint256"
        },
        {
          "internalType": "uint256",
          "name": "oraclePrice1CumulativeEnd",
          "type": "uint256"
        },
        {
          "internalType": "enum MLib.SFrame",
          "name": "state",
          "type": "uint8"
        }
      ],
      "stateMutability": "view",
      "type": "function"
    },
    {
      "inputs": [
        {
          "internalType": "uint256",
          "name": "",
          "type": "uint256"
        }
      ],
      "name": "framesKeys",
      "outputs": [
        {
          "internalType": "uint256",
          "name": "",
          "type": "uint256"
        }
      ],
      "stateMutability": "view",
      "type": "function"
    },
    {
      "inputs": [
        {
          "internalType": "uint256",
          "name": "frameKey",
          "type": "uint256"
        }
      ],
      "name": "getFrame",
      "outputs": [
        {
          "components": [
            {
              "internalType": "uint256",
              "name": "frameKey",
              "type": "uint256"
            },
            {
              "internalType": "uint256",
              "name": "oracleTimestampStart",
              "type": "uint256"
            },
            {
              "internalType": "uint256",
              "name": "oracleTimestampEnd",
              "type": "uint256"
            },
            {
              "internalType": "uint256",
              "name": "rewardFund",
              "type": "uint256"
            },
            {
              "internalType": "uint256",
              "name": "priceAverage",
              "type": "uint256"
            },
            {
              "internalType": "uint256",
              "name": "oraclePrice0CumulativeStart",
              "type": "uint256"
            },
            {
              "internalType": "uint256",
              "name": "oraclePrice0CumulativeEnd",
              "type": "uint256"
            },
            {
              "internalType": "uint256",
              "name": "oraclePrice1CumulativeStart",
              "type": "uint256"
            },
            {
              "internalType": "uint256",
              "name": "oraclePrice1CumulativeEnd",
              "type": "uint256"
            },
            {
              "internalType": "enum MLib.SFrame",
              "name": "state",
              "type": "uint8"
            },
            {
              "internalType": "uint256[]",
              "name": "lotKeys",
              "type": "uint256[]"
            }
          ],
          "internalType": "struct MLib.Frame",
          "name": "",
          "type": "tuple"
        }
      ],
      "stateMutability": "view",
      "type": "function"
    },
    {
      "inputs": [
        {
          "internalType": "uint256",
          "name": "frameKey",
          "type": "uint256"
        }
      ],
      "name": "getFrameState",
      "outputs": [
        {
          "internalType": "enum MLib.SFrame",
          "name": "",
          "type": "uint8"
        }
      ],
      "stateMutability": "view",
      "type": "function"
    },
    {
      "inputs": [
        {
          "internalType": "uint256",
          "name": "frameKey",
          "type": "uint256"
        },
        {
          "internalType": "uint256",
          "name": "lotKey",
          "type": "uint256"
        }
      ],
      "name": "getLot",
      "outputs": [
        {
          "components": [
            {
              "internalType": "uint256",
              "name": "frameKey",
              "type": "uint256"
            },
            {
              "internalType": "uint256",
              "name": "lotKey",
              "type": "uint256"
            },
            {
              "internalType": "address",
              "name": "lotOwner",
              "type": "address"
            },
            {
              "internalType": "uint256",
              "name": "acquisitionPrice",
              "type": "uint256"
            },
            {
              "internalType": "enum MLib.SLot",
              "name": "state",
              "type": "uint8"
            }
          ],
          "internalType": "struct MLib.Lot",
          "name": "",
          "type": "tuple"
        }
      ],
      "stateMutability": "view",
      "type": "function"
    },
    {
      "inputs": [
        {
          "internalType": "uint256",
          "name": "frameKey",
          "type": "uint256"
        }
      ],
      "name": "getLotKeys",
      "outputs": [
        {
          "internalType": "uint256[]",
          "name": "",
          "type": "uint256[]"
        }
      ],
      "stateMutability": "view",
      "type": "function"
    },
    {
      "inputs": [],
      "name": "getNumberOfFrameKeys",
      "outputs": [
        {
          "internalType": "uint256",
          "name": "",
          "type": "uint256"
        }
      ],
      "stateMutability": "view",
      "type": "function"
    },
    {
      "inputs": [
        {
          "internalType": "address",
          "name": "",
          "type": "address"
        }
      ],
      "name": "hasBoughtLot",
      "outputs": [
        {
          "internalType": "bool",
          "name": "",
          "type": "bool"
        }
      ],
      "stateMutability": "view",
      "type": "function"
    },
    {
      "inputs": [
        {
          "internalType": "uint256",
          "name": "frameKey",
          "type": "uint256"
        }
      ],
      "name": "hasValidPrices",
      "outputs": [],
      "stateMutability": "view",
      "type": "function"
    },
    {
      "inputs": [],
      "name": "initTimestamp",
      "outputs": [
        {
          "internalType": "uint256",
          "name": "",
          "type": "uint256"
        }
      ],
      "stateMutability": "view",
      "type": "function"
    },
    {
      "inputs": [
        {
          "internalType": "uint256",
          "name": "",
          "type": "uint256"
        },
        {
          "internalType": "uint256",
          "name": "",
          "type": "uint256"
        }
      ],
      "name": "lots",
      "outputs": [
        {
          "internalType": "uint256",
          "name": "frameKey",
          "type": "uint256"
        },
        {
          "internalType": "uint256",
          "name": "lotKey",
          "type": "uint256"
        },
        {
          "internalType": "address",
          "name": "lotOwner",
          "type": "address"
        },
        {
          "internalType": "uint256",
          "name": "acquisitionPrice",
          "type": "uint256"
        },
        {
          "internalType": "enum MLib.SLot",
          "name": "state",
          "type": "uint8"
        }
      ],
      "stateMutability": "view",
      "type": "function"
    },
    {
      "inputs": [],
      "name": "minTax",
      "outputs": [
        {
          "internalType": "uint256",
          "name": "",
          "type": "uint256"
        }
      ],
      "stateMutability": "view",
      "type": "function"
    },
    {
      "inputs": [],
      "name": "ownerMarket",
      "outputs": [
        {
          "internalType": "address",
          "name": "",
          "type": "address"
        }
      ],
      "stateMutability": "view",
      "type": "function"
    },
    {
      "inputs": [],
      "name": "period",
      "outputs": [
        {
          "internalType": "uint256",
          "name": "",
          "type": "uint256"
        }
      ],
      "stateMutability": "view",
      "type": "function"
    },
    {
      "inputs": [
        {
          "internalType": "uint256",
          "name": "",
          "type": "uint256"
        }
      ],
      "name": "referals",
      "outputs": [
        {
          "internalType": "address",
          "name": "ownerPublicKey",
          "type": "address"
        },
        {
          "internalType": "address",
          "name": "referralPublicKey",
          "type": "address"
        },
        {
          "internalType": "string",
          "name": "message",
          "type": "string"
        }
      ],
      "stateMutability": "view",
      "type": "function"
    },
    {
      "inputs": [],
      "name": "scalar",
      "outputs": [
        {
          "internalType": "uint256",
          "name": "",
          "type": "uint256"
        }
      ],
      "stateMutability": "view",
      "type": "function"
    },
    {
      "inputs": [],
      "name": "tReporting",
      "outputs": [
        {
          "internalType": "uint256",
          "name": "",
          "type": "uint256"
        }
      ],
      "stateMutability": "view",
      "type": "function"
    },
    {
      "inputs": [],
      "name": "taxMarket",
      "outputs": [
        {
          "internalType": "uint256",
          "name": "",
          "type": "uint256"
        }
      ],
      "stateMutability": "view",
      "type": "function"
    },
    {
      "inputs": [],
      "name": "uniswapPair",
      "outputs": [
        {
          "internalType": "contract IUniswapV2Pair",
          "name": "",
          "type": "address"
        }
      ],
      "stateMutability": "view",
      "type": "function"
    },
    {
      "inputs": [],
      "name": "updateFramePrices",
      "outputs": [],
      "stateMutability": "nonpayable",
      "type": "function"
    },
    {
      "inputs": [
        {
          "internalType": "uint256",
          "name": "timestamp",
          "type": "uint256"
        },
        {
          "internalType": "uint256",
          "name": "pairPrice",
          "type": "uint256"
        },
        {
          "internalType": "uint256",
          "name": "acqPrice",
          "type": "uint256"
        }
      ],
      "name": "updateLotPrice",
      "outputs": [],
      "stateMutability": "nonpayable",
      "type": "function"
    },
    {
      "inputs": [
        {
          "internalType": "address",
          "name": "",
          "type": "address"
        },
        {
          "internalType": "uint256",
          "name": "",
          "type": "uint256"
        }
      ],
      "name": "userFrames",
      "outputs": [
        {
          "internalType": "uint256",
          "name": "",
          "type": "uint256"
        }
      ],
      "stateMutability": "view",
      "type": "function"
    }
  ],
  "bytecode": "0x608060405260646002556000600c60006101000a81548160ff02191690831515021790555069d3c21bcecceda1000000600d553480156200003f57600080fd5b506040516200517e3803806200517e833981810160405281019062000065919062000238565b89600960006101000a81548173ffffffffffffffffffffffffffffffffffffffff021916908373ffffffffffffffffffffffffffffffffffffffff16021790555033600a60006101000a81548173ffffffffffffffffffffffffffffffffffffffff021916908373ffffffffffffffffffffffffffffffffffffffff1602179055508760008190555086600181905550856007819055508460068190555088600460006101000a81548173ffffffffffffffffffffffffffffffffffffffff021916908373ffffffffffffffffffffffffffffffffffffffff160217905550836005819055508a600860006101000a81548173ffffffffffffffffffffffffffffffffffffffff021916908373ffffffffffffffffffffffffffffffffffffffff1602179055508260038190555081600b8190555080600c60006101000a81548160ff021916908315150217905550505050505050505050505062000447565b600081519050620001d681620003c5565b92915050565b600081519050620001ed81620003df565b92915050565b6000815190506200020481620003f9565b92915050565b6000815190506200021b8162000413565b92915050565b60008151905062000232816200042d565b92915050565b60008060008060008060008060008060006101608c8e0312156200025b57600080fd5b60006200026b8e828f016200020a565b9b505060206200027e8e828f01620001dc565b9a50506040620002918e828f01620001f3565b9950506060620002a48e828f0162000221565b9850506080620002b78e828f0162000221565b97505060a0620002ca8e828f0162000221565b96505060c0620002dd8e828f0162000221565b95505060e0620002f08e828f0162000221565b945050610100620003048e828f0162000221565b935050610120620003188e828f0162000221565b9250506101406200032c8e828f01620001c5565b9150509295989b509295989b9093969950565b60006200034c826200039b565b9050919050565b60008115159050919050565b60006200036c826200033f565b9050919050565b600062000380826200033f565b9050919050565b600062000394826200033f565b9050919050565b600073ffffffffffffffffffffffffffffffffffffffff82169050919050565b6000819050919050565b620003d08162000353565b8114620003dc57600080fd5b50565b620003ea816200035f565b8114620003f657600080fd5b50565b620004048162000373565b81146200041057600080fd5b50565b6200041e8162000387565b81146200042a57600080fd5b50565b6200043881620003bb565b81146200044457600080fd5b50565b614d2780620004576000396000f3fe608060405234801561001057600080fd5b50600436106102115760003560e01c806396b2c6f311610125578063d529a396116100ad578063e107fb4f1161007c578063e107fb4f1461064f578063ef78d4fd1461067f578063f109db841461069d578063f45e65d8146106cd578063ff5c86b0146106eb57610211565b8063d529a396146105c9578063d98716c4146105e5578063d9ab597e14610601578063da68cf8b1461063157610211565b8063b93dafa9116100f4578063b93dafa91461050b578063bb15d2dd1461053f578063c45a01551461055b578063c816841b14610579578063cb9674d31461059757610211565b806396b2c6f31461047c578063a10340bc14610486578063ab02f2a9146104bf578063ae169a50146104ef57610211565b806360f65c60116101a8578063773d51eb11610177578063773d51eb146103c25780637e996639146103f257806389da88a3146104105780638f9eca821461042e5780639592de181461044c57610211565b806360f65c6014610328578063652c8ded146103585780636f1aefc3146103745780637358c57a146103a457610211565b806345084775116101e4578063450847751461029e578063499a0fc4146102bc578063527eb4bc146102da5780635b3ad63e146102f857610211565b8063050e8840146102165780633c80d8ea146102465780633d09a82a14610262578063410f071014610280575b600080fd5b610230600480360381019061022b9190613886565b610709565b60405161023d91906144a5565b60405180910390f35b610260600480360381019061025b9190613914565b61072d565b005b61026a610fa9565b60405161027791906144a5565b60405180910390f35b610288610faf565b60405161029591906144a5565b60405180910390f35b6102a6610fb5565b6040516102b3919061411d565b60405180910390f35b6102c4610fdb565b6040516102d191906144a5565b60405180910390f35b6102e2610fe1565b6040516102ef91906144a5565b60405180910390f35b610312600480360381019061030d9190613886565b610fe7565b60405161031f91906144a5565b60405180910390f35b610342600480360381019061033d91906137d2565b61102a565b60405161034f91906144a5565b60405180910390f35b610372600480360381019061036d9190613886565b61105b565b005b61038e600480360381019061038991906138d8565b6111c4565b60405161039b919061448a565b60405180910390f35b6103ac6112fe565b6040516103b991906144a5565b60405180910390f35b6103dc60048036038101906103d79190613886565b611304565b6040516103e99190614468565b60405180910390f35b6103fa61146b565b60405161040791906144a5565b60405180910390f35b610418611471565b60405161042591906144a5565b60405180910390f35b61043661147e565b6040516104439190614221565b60405180910390f35b61046660048036038101906104619190613886565b611491565b60405161047391906144a5565b60405180910390f35b6104846114c7565b005b6104a0600480360381019061049b9190613886565b6117bb565b6040516104b69a999897969594939291906145ba565b60405180910390f35b6104d960048036038101906104d49190613886565b61181c565b6040516104e691906141ff565b60405180910390f35b61050960048036038101906105049190613886565b61188a565b005b610525600480360381019061052091906138d8565b61189f565b6040516105369594939291906144e9565b60405180910390f35b61055960048036038101906105549190613914565b61190f565b005b610563611e27565b6040516105709190614272565b60405180910390f35b610581611e4d565b60405161058e9190614257565b60405180910390f35b6105b160048036038101906105ac9190613886565b611e73565b6040516105c093929190614161565b60405180910390f35b6105e360048036038101906105de91906138d8565b611f65565b005b6105ff60048036038101906105fa919061376b565b611fe9565b005b61061b60048036038101906106169190613719565b612183565b6040516106289190614221565b60405180910390f35b6106396121a3565b604051610646919061423c565b60405180910390f35b610669600480360381019061066491906138d8565b6121c9565b60405161067691906144a5565b60405180910390f35b61068761223e565b60405161069491906144a5565b60405180910390f35b6106b760048036038101906106b29190613886565b612244565b6040516106c4919061428d565b60405180910390f35b6106d5612271565b6040516106e291906144a5565b60405180910390f35b6106f3612277565b60405161070091906144a5565b60405180910390f35b6013818154811061071957600080fd5b906000526020600020016000915090505481565b60006107388461227d565b9050610744818361242d565b60006107508285612485565b905061075b42610fe7565b82101561079d576040517f08c379a0000000000000000000000000000000000000000000000000000000008152600401610794906142c8565b60405180910390fd5b600e6000838152602001908152602001600020600082815260200190815260200160002060020160009054906101000a900473ffffffffffffffffffffffffffffffffffffffff1673ffffffffffffffffffffffffffffffffffffffff163373ffffffffffffffffffffffffffffffffffffffff161415610853576040517f08c379a000000000000000000000000000000000000000000000000000000000815260040161084a906143a8565b60405180910390fd5b600061085f83856121c9565b905080600e60008581526020019081526020016000206000848152602001908152602001600020600301546108949190614728565b600960009054906101000a900473ffffffffffffffffffffffffffffffffffffffff1673ffffffffffffffffffffffffffffffffffffffff1663dd62ed3e33306040518363ffffffff1660e01b81526004016108f1929190614138565b60206040518083038186803b15801561090957600080fd5b505afa15801561091d573d6000803e3d6000fd5b505050506040513d601f19601f8201168201806040525081019061094191906138af565b1015610982576040517f08c379a0000000000000000000000000000000000000000000000000000000008152600401610979906143c8565b60405180910390fd5b600960009054906101000a900473ffffffffffffffffffffffffffffffffffffffff1673ffffffffffffffffffffffffffffffffffffffff166323b872dd333084600e60008981526020019081526020016000206000888152602001908152602001600020600301546109f59190614728565b6040518463ffffffff1660e01b8152600401610a139392919061419f565b602060405180830381600087803b158015610a2d57600080fd5b505af1158015610a41573d6000803e3d6000fd5b505050506040513d601f19601f82011682018060405250810190610a65919061380e565b5080600f600085815260200190815260200160002060030154610a889190614728565b600f60008581526020019081526020016000206003018190555060016002811115610adc577f4e487b7100000000000000000000000000000000000000000000000000000000600052602160045260246000fd5b600e6000858152602001908152602001600020600084815260200190815260200160002060040160009054906101000a900460ff166002811115610b49577f4e487b7100000000000000000000000000000000000000000000000000000000600052602160045260246000fd5b1415610cef576000610b8284600e60008781526020019081526020016000206000868152602001908152602001600020600301546121c9565b9050600960009054906101000a900473ffffffffffffffffffffffffffffffffffffffff1673ffffffffffffffffffffffffffffffffffffffff1663a9059cbb600e6000878152602001908152602001600020600086815260200190815260200160002060020160009054906101000a900473ffffffffffffffffffffffffffffffffffffffff16600e600088815260200190815260200160002060008781526020019081526020016000206003015484610c3d9190614728565b6040518363ffffffff1660e01b8152600401610c5a9291906141d6565b602060405180830381600087803b158015610c7457600080fd5b505af1158015610c88573d6000803e3d6000fd5b505050506040513d601f19601f82011682018060405250810190610cac919061380e565b5080600f600086815260200190815260200160002060030154610ccf919061483a565b600f60008681526020019081526020016000206003018190555050610d66565b6001600e6000858152602001908152602001600020600084815260200190815260200160002060040160006101000a81548160ff02191690836002811115610d60577f4e487b7100000000000000000000000000000000000000000000000000000000600052602160045260246000fd5b02179055505b33600e6000858152602001908152602001600020600084815260200190815260200160002060020160006101000a81548173ffffffffffffffffffffffffffffffffffffffff021916908373ffffffffffffffffffffffffffffffffffffffff16021790555083600e6000858152602001908152602001600020600084815260200190815260200160002060030181905550601060003373ffffffffffffffffffffffffffffffffffffffff1673ffffffffffffffffffffffffffffffffffffffff168152602001908152602001600020839080600181540180825580915050600190039060005260206000200160009091909190915055610e666114c7565b7ff733bd7f4402cb7d331b34d5cd22f432b9bf71a833f786974545860d74976af283600f600086815260200190815260200160002060010154600f600087815260200190815260200160002060020154600f600088815260200190815260200160002060050154600f600089815260200190815260200160002060060154600f60008a815260200190815260200160002060070154600f60008b815260200190815260200160002060080154600f60008c815260200190815260200160002060030154604051610f3d98979695949392919061453c565b60405180910390a17f74c5c6f5cd4370cc0ab554a1afdb2b24b051b40c99102354ef424aed5cd6409d83600e60008681526020019081526020016000206000858152602001908152602001600020604051610f999291906144c0565b60405180910390a1505050505050565b600b5481565b60065481565b600a60009054906101000a900473ffffffffffffffffffffffffffffffffffffffff1681565b60055481565b60025481565b60006001548211610ffc576001549050611025565b6000546001548361100d919061483a565b6110179190614b0f565b82611022919061483a565b90505b919050565b6010602052816000526040600020818154811061104657600080fd5b90600052602060002001600091509150505481565b6000600f60008381526020019081526020016000206005015411158061109857506000600f60008381526020019081526020016000206006015411155b806110ba57506000600f60008381526020019081526020016000206007015411155b806110dc57506000600f60008381526020019081526020016000206008015411155b1561111c576040517f08c379a000000000000000000000000000000000000000000000000000000000815260040161111390614348565b60405180910390fd5b600f600082815260200190815260200160002060060154600f60008381526020019081526020016000206005015414806111815750600f600082815260200190815260200160002060080154600f600083815260200190815260200160002060070154145b156111c1576040517f08c379a00000000000000000000000000000000000000000000000000000000081526004016111b890614348565b60405180910390fd5b50565b6111cc61343b565b600e600084815260200190815260200160002060008381526020019081526020016000206040518060a001604052908160008201548152602001600182015481526020016002820160009054906101000a900473ffffffffffffffffffffffffffffffffffffffff1673ffffffffffffffffffffffffffffffffffffffff1673ffffffffffffffffffffffffffffffffffffffff168152602001600382015481526020016004820160009054906101000a900460ff1660028111156112ba577f4e487b7100000000000000000000000000000000000000000000000000000000600052602160045260246000fd5b60028111156112f2577f4e487b7100000000000000000000000000000000000000000000000000000000600052602160045260246000fd5b81525050905092915050565b60015481565b61130c6134b8565b600f6000838152602001908152602001600020604051806101600160405290816000820154815260200160018201548152602001600282015481526020016003820154815260200160048201548152602001600582015481526020016006820154815260200160078201548152602001600882015481526020016009820160009054906101000a900460ff1660028111156113d0577f4e487b7100000000000000000000000000000000000000000000000000000000600052602160045260246000fd5b6002811115611408577f4e487b7100000000000000000000000000000000000000000000000000000000600052602160045260246000fd5b8152602001600a820180548060200260200160405190810160405280929190818152602001828054801561145b57602002820191906000526020600020905b815481526020019060010190808311611447575b5050505050815250509050919050565b60075481565b6000601380549050905090565b600c60009054906101000a900460ff1681565b60008082116114a45760055490506114c2565b600554600554836114b591906147af565b6114bf91906147e0565b90505b919050565b60006114d242610fe7565b9050600354600054826114e59190614728565b6114ef919061483a565b42101561162857611521600460009054906101000a900473ffffffffffffffffffffffffffffffffffffffff166125e8565b8063ffffffff169050600f60008581526020019081526020016000206005016000600f60008781526020019081526020016000206007016000600f60008981526020019081526020016000206001016000869190505585919050558491905055505050600f600082815260200190815260200160002060050154600f600083815260200190815260200160002060070154600f600084815260200190815260200160002060010154600f60008581526020019081526020016000206006016000600f60008781526020019081526020016000206008016000600f600089815260200190815260200160002060020160008691905055859190505584919050555050506116d9565b600354600054826116399190614728565b611643919061483a565b42106116d857611674600460009054906101000a900473ffffffffffffffffffffffffffffffffffffffff166125e8565b8063ffffffff169050600f60008581526020019081526020016000206006016000600f60008781526020019081526020016000206008016000600f600089815260200190815260200160002060020160008691905055859190505584919050555050505b5b7ff733bd7f4402cb7d331b34d5cd22f432b9bf71a833f786974545860d74976af281600f600084815260200190815260200160002060010154600f600085815260200190815260200160002060020154600f600086815260200190815260200160002060050154600f600087815260200190815260200160002060060154600f600088815260200190815260200160002060070154600f600089815260200190815260200160002060080154600f60008a8152602001908152602001600020600301546040516117b098979695949392919061453c565b60405180910390a150565b600f6020528060005260406000206000915090508060000154908060010154908060020154908060030154908060040154908060050154908060060154908060070154908060080154908060090160009054906101000a900460ff1690508a565b6060600f6000838152602001908152602001600020600a0180548060200260200160405190810160405280929190818152602001828054801561187e57602002820191906000526020600020905b81548152602001906001019080831161186a575b50505050509050919050565b61189381612843565b61189c81612e97565b50565b600e602052816000526040600020602052806000526040600020600091509150508060000154908060010154908060020160009054906101000a900473ffffffffffffffffffffffffffffffffffffffff16908060030154908060040160009054906101000a900460ff16905085565b600061191a8461227d565b9050611926818361242d565b60006119328285612485565b90503373ffffffffffffffffffffffffffffffffffffffff16600e6000848152602001908152602001600020600083815260200190815260200160002060020160009054906101000a900473ffffffffffffffffffffffffffffffffffffffff1673ffffffffffffffffffffffffffffffffffffffff16146119e9576040517f08c379a00000000000000000000000000000000000000000000000000000000081526004016119e0906142e8565b60405180910390fd5b6119f242610fe7565b821015611a34576040517f08c379a0000000000000000000000000000000000000000000000000000000008152600401611a2b90614428565b60405180910390fd5b6000611a4083856121c9565b90506000611a7584600e60008781526020019081526020016000206000868152602001908152602001600020600301546121c9565b905080821115611c82578082611a8b919061483a565b600960009054906101000a900473ffffffffffffffffffffffffffffffffffffffff1673ffffffffffffffffffffffffffffffffffffffff1663dd62ed3e33306040518363ffffffff1660e01b8152600401611ae8929190614138565b60206040518083038186803b158015611b0057600080fd5b505afa158015611b14573d6000803e3d6000fd5b505050506040513d601f19601f82011682018060405250810190611b3891906138af565b1015611b79576040517f08c379a0000000000000000000000000000000000000000000000000000000008152600401611b70906143c8565b60405180910390fd5b600960009054906101000a900473ffffffffffffffffffffffffffffffffffffffff1673ffffffffffffffffffffffffffffffffffffffff166323b872dd33308486611bc5919061483a565b6040518463ffffffff1660e01b8152600401611be39392919061419f565b602060405180830381600087803b158015611bfd57600080fd5b505af1158015611c11573d6000803e3d6000fd5b505050506040513d601f19601f82011682018060405250810190611c35919061380e565b508082611c42919061483a565b600f600086815260200190815260200160002060030154611c639190614728565b600f600086815260200190815260200160002060030181905550611d8e565b80821015611d8d57600960009054906101000a900473ffffffffffffffffffffffffffffffffffffffff1673ffffffffffffffffffffffffffffffffffffffff1663a9059cbb338484611cd5919061483a565b6040518363ffffffff1660e01b8152600401611cf29291906141d6565b602060405180830381600087803b158015611d0c57600080fd5b505af1158015611d20573d6000803e3d6000fd5b505050506040513d601f19601f82011682018060405250810190611d44919061380e565b508181611d51919061483a565b600f600086815260200190815260200160002060030154611d72919061483a565b600f6000868152602001908152602001600020600301819055505b5b84600e6000868152602001908152602001600020600085815260200190815260200160002060030181905550611dc26114c7565b7f74c5c6f5cd4370cc0ab554a1afdb2b24b051b40c99102354ef424aed5cd6409d84600e60008781526020019081526020016000206000868152602001908152602001600020604051611e169291906144c0565b60405180910390a150505050505050565b600860009054906101000a900473ffffffffffffffffffffffffffffffffffffffff1681565b600460009054906101000a900473ffffffffffffffffffffffffffffffffffffffff1681565b60116020528060005260406000206000915090508060000160009054906101000a900473ffffffffffffffffffffffffffffffffffffffff16908060010160009054906101000a900473ffffffffffffffffffffffffffffffffffffffff1690806002018054611ee290614a6b565b80601f0160208091040260200160405190810160405280929190818152602001828054611f0e90614a6b565b8015611f5b5780601f10611f3057610100808354040283529160200191611f5b565b820191906000526020600020905b815481529060010190602001808311611f3e57829003601f168201915b5050505050905083565b6001600f600084815260200190815260200160002060090160006101000a81548160ff02191690836002811115611fc5577f4e487b7100000000000000000000000000000000000000000000000000000000600052602160045260246000fd5b021790555080600f6000848152602001908152602001600020600401819055505050565b601260003373ffffffffffffffffffffffffffffffffffffffff1673ffffffffffffffffffffffffffffffffffffffff16815260200190815260200160002060009054906101000a900460ff1615612076576040517f08c379a000000000000000000000000000000000000000000000000000000000815260040161206d90614308565b60405180910390fd5b600083838360405160200161208d939291906140e4565b6040516020818303038152906040528051906020012060001c9050836011600083815260200190815260200160002060000160006101000a81548173ffffffffffffffffffffffffffffffffffffffff021916908373ffffffffffffffffffffffffffffffffffffffff160217905550826011600083815260200190815260200160002060010160006101000a81548173ffffffffffffffffffffffffffffffffffffffff021916908373ffffffffffffffffffffffffffffffffffffffff1602179055508160116000838152602001908152602001600020600201908051906020019061217c92919061354a565b5050505050565b60126020528060005260406000206000915054906101000a900460ff1681565b600960009054906101000a900473ffffffffffffffffffffffffffffffffffffffff1681565b600080600054620186a060075485600d546121e491906147e0565b6121ee91906147e0565b6121f891906147af565b61220291906147af565b9050600d548142600054876122179190614728565b612221919061483a565b61222b91906147e0565b61223591906147af565b91505092915050565b60005481565b6000600f600083815260200190815260200160002060090160009054906101000a900460ff169050919050565b600d5481565b60035481565b60008061228983610fe7565b9050600060028111156122c5577f4e487b7100000000000000000000000000000000000000000000000000000000600052602160045260246000fd5b600f600083815260200190815260200160002060090160009054906101000a900460ff166002811115612321577f4e487b7100000000000000000000000000000000000000000000000000000000600052602160045260246000fd5b1461232f5780915050612428565b61233842610fe7565b81101561237a576040517f08c379a000000000000000000000000000000000000000000000000000000000815260040161237190614408565b60405180910390fd5b80600f6000838152602001908152602001600020600001819055506001600f600083815260200190815260200160002060090160006101000a81548160ff021916908360028111156123f5577f4e487b7100000000000000000000000000000000000000000000000000000000600052602160045260246000fd5b02179055506013819080600181540180825580915050600190039060005260206000200160009091909190915055809150505b919050565b600061243983836121c9565b9050600b54811015612480576040517f08c379a000000000000000000000000000000000000000000000000000000000815260040161247790614388565b60405180910390fd5b505050565b60008061249183611491565b9050600060028111156124cd577f4e487b7100000000000000000000000000000000000000000000000000000000600052602160045260246000fd5b600e6000868152602001908152602001600020600083815260200190815260200160002060040160009054906101000a900460ff16600281111561253a577f4e487b7100000000000000000000000000000000000000000000000000000000600052602160045260246000fd5b1461254857809150506125e2565b83600e600086815260200190815260200160002060008381526020019081526020016000206000018190555080600e6000868152602001908152602001600020600083815260200190815260200160002060010181905550600f6000858152602001908152602001600020600a01819080600181540180825580915050600190039060005260206000200160009091909190915055809150505b92915050565b60008060006125f5613310565b90508373ffffffffffffffffffffffffffffffffffffffff16635909c0d56040518163ffffffff1660e01b815260040160206040518083038186803b15801561263d57600080fd5b505afa158015612651573d6000803e3d6000fd5b505050506040513d601f19601f8201168201806040525081019061267591906138af565b92508373ffffffffffffffffffffffffffffffffffffffff16635a3d54936040518163ffffffff1660e01b815260040160206040518083038186803b1580156126bd57600080fd5b505afa1580156126d1573d6000803e3d6000fd5b505050506040513d601f19601f820116820180604052508101906126f591906138af565b915060008060008673ffffffffffffffffffffffffffffffffffffffff16630902f1ac6040518163ffffffff1660e01b815260040160606040518083038186803b15801561274257600080fd5b505afa158015612756573d6000803e3d6000fd5b505050506040513d601f19601f8201168201806040525081019061277a9190613837565b9250925092508363ffffffff168163ffffffff161461283957600081856127a1919061486e565b90508063ffffffff166127b48486613328565b600001517bffffffffffffffffffffffffffffffffffffffffffffffffffffffff166127e091906147e0565b876127eb9190614728565b96508063ffffffff166127fe8585613328565b600001517bffffffffffffffffffffffffffffffffffffffffffffffffffffffff1661282a91906147e0565b866128359190614728565b9550505b5050509193909250565b61284c8161105b565b426000548261285b9190614728565b111561289c576040517f08c379a0000000000000000000000000000000000000000000000000000000008152600401612893906142a8565b60405180910390fd5b6002600f600083815260200190815260200160002060090160006101000a81548160ff021916908360028111156128fc577f4e487b7100000000000000000000000000000000000000000000000000000000600052602160045260246000fd5b02179055506000600860009054906101000a900473ffffffffffffffffffffffffffffffffffffffff1673ffffffffffffffffffffffffffffffffffffffff16638da5cb5b6040518163ffffffff1660e01b815260040160206040518083038186803b15801561296b57600080fd5b505afa15801561297f573d6000803e3d6000fd5b505050506040513d601f19601f820116820180604052508101906129a39190613742565b90506000600f600084815260200190815260200160002060010154600f6000858152602001908152602001600020600201546129df919061483a565b9050600c60009054906101000a900460ff1615612a9c57612a6d604051806020016040528083600f600088815260200190815260200160002060050154600f600089815260200190815260200160002060060154612a3d919061483a565b612a4791906147af565b7bffffffffffffffffffffffffffffffffffffffffffffffffffffffff16815250613408565b6dffffffffffffffffffffffffffff16600f600085815260200190815260200160002060040181905550612b3e565b612b13604051806020016040528083600f600088815260200190815260200160002060070154600f600089815260200190815260200160002060080154612ae3919061483a565b612aed91906147af565b7bffffffffffffffffffffffffffffffffffffffffffffffffffffffff16815250613408565b6dffffffffffffffffffffffffffff16600f6000858152602001908152602001600020600401819055505b600d54600f600085815260200190815260200160002060040154612b6291906147e0565b600f6000858152602001908152602001600020600401819055506000620186a0600654600f600087815260200190815260200160002060030154612ba691906147e0565b612bb091906147af565b90506000620186a0600254600f600088815260200190815260200160002060030154612bdc91906147e0565b612be691906147af565b90508082600f600088815260200190815260200160002060030154612c0b919061483a565b612c15919061483a565b600f600087815260200190815260200160002060030181905550600960009054906101000a900473ffffffffffffffffffffffffffffffffffffffff1673ffffffffffffffffffffffffffffffffffffffff1663a9059cbb600a60009054906101000a900473ffffffffffffffffffffffffffffffffffffffff16846040518363ffffffff1660e01b8152600401612cae9291906141d6565b602060405180830381600087803b158015612cc857600080fd5b505af1158015612cdc573d6000803e3d6000fd5b505050506040513d601f19601f82011682018060405250810190612d00919061380e565b50600960009054906101000a900473ffffffffffffffffffffffffffffffffffffffff1673ffffffffffffffffffffffffffffffffffffffff1663a9059cbb85836040518363ffffffff1660e01b8152600401612d5e9291906141d6565b602060405180830381600087803b158015612d7857600080fd5b505af1158015612d8c573d6000803e3d6000fd5b505050506040513d601f19601f82011682018060405250810190612db0919061380e565b507ff733bd7f4402cb7d331b34d5cd22f432b9bf71a833f786974545860d74976af285600f600088815260200190815260200160002060010154600f600089815260200190815260200160002060020154600f60008a815260200190815260200160002060050154600f60008b815260200190815260200160002060060154600f60008c815260200190815260200160002060070154600f60008d815260200190815260200160002060080154600f60008e815260200190815260200160002060030154604051612e8898979695949392919061453c565b60405180910390a15050505050565b600280811115612ed0577f4e487b7100000000000000000000000000000000000000000000000000000000600052602160045260246000fd5b600f600083815260200190815260200160002060090160009054906101000a900460ff166002811115612f2c577f4e487b7100000000000000000000000000000000000000000000000000000000600052602160045260246000fd5b14612f6c576040517f08c379a0000000000000000000000000000000000000000000000000000000008152600401612f63906143e8565b60405180910390fd5b6000612f8d600f600084815260200190815260200160002060040154611491565b9050600280811115612fc8577f4e487b7100000000000000000000000000000000000000000000000000000000600052602160045260246000fd5b600e6000848152602001908152602001600020600083815260200190815260200160002060040160009054906101000a900460ff166002811115613035577f4e487b7100000000000000000000000000000000000000000000000000000000600052602160045260246000fd5b1415613076576040517f08c379a000000000000000000000000000000000000000000000000000000000815260040161306d90614368565b60405180910390fd5b600073ffffffffffffffffffffffffffffffffffffffff16600e6000848152602001908152602001600020600083815260200190815260200160002060020160009054906101000a900473ffffffffffffffffffffffffffffffffffffffff1673ffffffffffffffffffffffffffffffffffffffff16141561312d576040517f08c379a000000000000000000000000000000000000000000000000000000000815260040161312490614328565b60405180910390fd5b600960009054906101000a900473ffffffffffffffffffffffffffffffffffffffff1673ffffffffffffffffffffffffffffffffffffffff1663a9059cbb600e6000858152602001908152602001600020600084815260200190815260200160002060020160009054906101000a900473ffffffffffffffffffffffffffffffffffffffff16600f6000868152602001908152602001600020600301546040518363ffffffff1660e01b81526004016131e79291906141d6565b602060405180830381600087803b15801561320157600080fd5b505af1158015613215573d6000803e3d6000fd5b505050506040513d601f19601f82011682018060405250810190613239919061380e565b506002600e6000848152602001908152602001600020600083815260200190815260200160002060040160006101000a81548160ff021916908360028111156132ab577f4e487b7100000000000000000000000000000000000000000000000000000000600052602160045260246000fd5b02179055507f74c5c6f5cd4370cc0ab554a1afdb2b24b051b40c99102354ef424aed5cd6409d82600e600085815260200190815260200160002060008481526020019081526020016000206040516133049291906144c0565b60405180910390a15050565b6000640100000000426133239190614b0f565b905090565b6133306135d0565b6000826dffffffffffffffffffffffffffff1611613383576040517f08c379a000000000000000000000000000000000000000000000000000000000815260040161337a90614448565b60405180910390fd5b6040518060200160405280836dffffffffffffffffffffffffffff16607060ff16866dffffffffffffffffffffffffffff167bffffffffffffffffffffffffffffffffffffffffffffffffffffffff16901b6133df919061477e565b7bffffffffffffffffffffffffffffffffffffffffffffffffffffffff16815250905092915050565b6000607060ff1682600001517bffffffffffffffffffffffffffffffffffffffffffffffffffffffff16901c9050919050565b6040518060a001604052806000815260200160008152602001600073ffffffffffffffffffffffffffffffffffffffff16815260200160008152602001600060028111156134b2577f4e487b7100000000000000000000000000000000000000000000000000000000600052602160045260246000fd5b81525090565b6040518061016001604052806000815260200160008152602001600081526020016000815260200160008152602001600081526020016000815260200160008152602001600081526020016000600281111561353d577f4e487b7100000000000000000000000000000000000000000000000000000000600052602160045260246000fd5b8152602001606081525090565b82805461355690614a6b565b90600052602060002090601f01602090048101928261357857600085556135bf565b82601f1061359157805160ff19168380011785556135bf565b828001600101855582156135bf579182015b828111156135be5782518255916020019190600101906135a3565b5b5090506135cc9190613601565b5090565b604051806020016040528060007bffffffffffffffffffffffffffffffffffffffffffffffffffffffff1681525090565b5b8082111561361a576000816000905550600101613602565b5090565b600061363161362c84614687565b614656565b90508281526020810184848401111561364957600080fd5b613654848285614a29565b509392505050565b60008135905061366b81614c7e565b92915050565b60008151905061368081614c7e565b92915050565b60008151905061369581614c95565b92915050565b600082601f8301126136ac57600080fd5b81356136bc84826020860161361e565b91505092915050565b6000815190506136d481614cac565b92915050565b6000813590506136e981614cc3565b92915050565b6000815190506136fe81614cc3565b92915050565b60008151905061371381614cda565b92915050565b60006020828403121561372b57600080fd5b60006137398482850161365c565b91505092915050565b60006020828403121561375457600080fd5b600061376284828501613671565b91505092915050565b60008060006060848603121561378057600080fd5b600061378e8682870161365c565b935050602061379f8682870161365c565b925050604084013567ffffffffffffffff8111156137bc57600080fd5b6137c88682870161369b565b9150509250925092565b600080604083850312156137e557600080fd5b60006137f38582860161365c565b9250506020613804858286016136da565b9150509250929050565b60006020828403121561382057600080fd5b600061382e84828501613686565b91505092915050565b60008060006060848603121561384c57600080fd5b600061385a868287016136c5565b935050602061386b868287016136c5565b925050604061387c86828701613704565b9150509250925092565b60006020828403121561389857600080fd5b60006138a6848285016136da565b91505092915050565b6000602082840312156138c157600080fd5b60006138cf848285016136ef565b91505092915050565b600080604083850312156138eb57600080fd5b60006138f9858286016136da565b925050602061390a858286016136da565b9150509250929050565b60008060006060848603121561392957600080fd5b6000613937868287016136da565b9350506020613948868287016136da565b9250506040613959868287016136da565b9150509250925092565b600061396f83836140c6565b60208301905092915050565b613984816148d9565b82525050565b613993816148d9565b82525050565b6139aa6139a5826148d9565b614aeb565b82525050565b60006139bb826146c7565b6139c581856146ea565b93506139d0836146b7565b8060005b83811015613a015781516139e88882613963565b97506139f3836146dd565b9250506001810190506139d4565b5085935050505092915050565b6000613a19826146c7565b613a2381856146fb565b9350613a2e836146b7565b8060005b83811015613a5f578151613a468882613963565b9750613a51836146dd565b925050600181019050613a32565b5085935050505092915050565b613a75816148eb565b82525050565b613a8481614999565b82525050565b613a93816149bd565b82525050565b613aa2816149e1565b82525050565b613ab181614a05565b82525050565b613ac081614a05565b82525050565b613acf81614a17565b82525050565b613ade81614a17565b82525050565b6000613aef826146d2565b613af9818561470c565b9350613b09818560208601614a38565b613b1281614c2b565b840191505092915050565b6000613b28826146d2565b613b32818561471d565b9350613b42818560208601614a38565b80840191505092915050565b6000613b5b601a8361470c565b91507f4652414d4520454e442054494d45204e4f5420524541434845440000000000006000830152602082019050919050565b6000613b9b600b8361470c565b91507f4c4f5420494e20504153540000000000000000000000000000000000000000006000830152602082019050919050565b6000613bdb600d8361470c565b91507f4e4f54204c4f54204f574e4552000000000000000000000000000000000000006000830152602082019050919050565b6000613c1b601e8361470c565b91507f596f75206861766520616c726561647920626f756768742061206c6f742e00006000830152602082019050919050565b6000613c5b60088361470c565b91507f4e4f204f574e45520000000000000000000000000000000000000000000000006000830152602082019050919050565b6000613c9b60138361470c565b91507f494e56414c4944204652414d45205052494345000000000000000000000000006000830152602082019050919050565b6000613cdb60138361470c565b91507f4c4f5420414c524541445920534554544c4544000000000000000000000000006000830152602082019050919050565b6000613d1b60108361470c565b91507f505249434520495320544f4f204c4f57000000000000000000000000000000006000830152602082019050919050565b6000613d5b600d8361470c565b91507f414c5245414459204f574e4552000000000000000000000000000000000000006000830152602082019050919050565b6000613d9b60198361470c565b91507f415050524f56454420414d4f554e5420544f4f20534d414c4c000000000000006000830152602082019050919050565b6000613ddb60108361470c565b91507f4652414d45204e4f5420434c4f534544000000000000000000000000000000006000830152602082019050919050565b6000613e1b600d8361470c565b91507f4652414d4520494e2050415354000000000000000000000000000000000000006000830152602082019050919050565b6000613e5b60118361470c565b91507f4c4f5420494e2050415354204652414d450000000000000000000000000000006000830152602082019050919050565b6000613e9b60178361470c565b91507f4669786564506f696e743a204449565f42595f5a45524f0000000000000000006000830152602082019050919050565b600061016083016000830151613ee760008601826140c6565b506020830151613efa60208601826140c6565b506040830151613f0d60408601826140c6565b506060830151613f2060608601826140c6565b506080830151613f3360808601826140c6565b5060a0830151613f4660a08601826140c6565b5060c0830151613f5960c08601826140c6565b5060e0830151613f6c60e08601826140c6565b50610100830151613f816101008601826140c6565b50610120830151613f96610120860182613aa8565b50610140830151848203610140860152613fb082826139b0565b9150508091505092915050565b60a082016000820151613fd360008501826140c6565b506020820151613fe660208501826140c6565b506040820151613ff9604085018261397b565b50606082015161400c60608501826140c6565b50608082015161401f6080850182613ac6565b50505050565b60a08201600080830154905061403a81614ad1565b61404760008601826140c6565b506001830154905061405881614ad1565b61406560208601826140c6565b506002830154905061407681614a9d565b614083604086018261397b565b506003830154905061409481614ad1565b6140a160608601826140c6565b50600483015490506140b281614ab7565b6140bf6080860182613ac6565b5050505050565b6140cf8161497f565b82525050565b6140de8161497f565b82525050565b60006140f08286613999565b6014820191506141008285613999565b6014820191506141108284613b1d565b9150819050949350505050565b6000602082019050614132600083018461398a565b92915050565b600060408201905061414d600083018561398a565b61415a602083018461398a565b9392505050565b6000606082019050614176600083018661398a565b614183602083018561398a565b81810360408301526141958184613ae4565b9050949350505050565b60006060820190506141b4600083018661398a565b6141c1602083018561398a565b6141ce60408301846140d5565b949350505050565b60006040820190506141eb600083018561398a565b6141f860208301846140d5565b9392505050565b600060208201905081810360008301526142198184613a0e565b905092915050565b60006020820190506142366000830184613a6c565b92915050565b60006020820190506142516000830184613a7b565b92915050565b600060208201905061426c6000830184613a8a565b92915050565b60006020820190506142876000830184613a99565b92915050565b60006020820190506142a26000830184613ab7565b92915050565b600060208201905081810360008301526142c181613b4e565b9050919050565b600060208201905081810360008301526142e181613b8e565b9050919050565b6000602082019050818103600083015261430181613bce565b9050919050565b6000602082019050818103600083015261432181613c0e565b9050919050565b6000602082019050818103600083015261434181613c4e565b9050919050565b6000602082019050818103600083015261436181613c8e565b9050919050565b6000602082019050818103600083015261438181613cce565b9050919050565b600060208201905081810360008301526143a181613d0e565b9050919050565b600060208201905081810360008301526143c181613d4e565b9050919050565b600060208201905081810360008301526143e181613d8e565b9050919050565b6000602082019050818103600083015261440181613dce565b9050919050565b6000602082019050818103600083015261442181613e0e565b9050919050565b6000602082019050818103600083015261444181613e4e565b9050919050565b6000602082019050818103600083015261446181613e8e565b9050919050565b600060208201905081810360008301526144828184613ece565b905092915050565b600060a08201905061449f6000830184613fbd565b92915050565b60006020820190506144ba60008301846140d5565b92915050565b600060c0820190506144d560008301856140d5565b6144e26020830184614025565b9392505050565b600060a0820190506144fe60008301886140d5565b61450b60208301876140d5565b614518604083018661398a565b61452560608301856140d5565b6145326080830184613ad5565b9695505050505050565b600061010082019050614552600083018b6140d5565b61455f602083018a6140d5565b61456c60408301896140d5565b61457960608301886140d5565b61458660808301876140d5565b61459360a08301866140d5565b6145a060c08301856140d5565b6145ad60e08301846140d5565b9998505050505050505050565b6000610140820190506145d0600083018d6140d5565b6145dd602083018c6140d5565b6145ea604083018b6140d5565b6145f7606083018a6140d5565b61460460808301896140d5565b61461160a08301886140d5565b61461e60c08301876140d5565b61462b60e08301866140d5565b6146396101008301856140d5565b614647610120830184613ab7565b9b9a5050505050505050505050565b6000604051905081810181811067ffffffffffffffff8211171561467d5761467c614bfc565b5b8060405250919050565b600067ffffffffffffffff8211156146a2576146a1614bfc565b5b601f19601f8301169050602081019050919050565b6000819050602082019050919050565b600081519050919050565b600081519050919050565b6000602082019050919050565b600082825260208201905092915050565b600082825260208201905092915050565b600082825260208201905092915050565b600081905092915050565b60006147338261497f565b915061473e8361497f565b9250827fffffffffffffffffffffffffffffffffffffffffffffffffffffffffffffffff0382111561477357614772614b40565b5b828201905092915050565b600061478982614957565b915061479483614957565b9250826147a4576147a3614b6f565b5b828204905092915050565b60006147ba8261497f565b91506147c58361497f565b9250826147d5576147d4614b6f565b5b828204905092915050565b60006147eb8261497f565b91506147f68361497f565b9250817fffffffffffffffffffffffffffffffffffffffffffffffffffffffffffffffff048311821515161561482f5761482e614b40565b5b828202905092915050565b60006148458261497f565b91506148508361497f565b92508282101561486357614862614b40565b5b828203905092915050565b600061487982614989565b915061488483614989565b92508282101561489757614896614b40565b5b828203905092915050565b600073ffffffffffffffffffffffffffffffffffffffff82169050919050565b600060ff82169050919050565b6000819050919050565b60006148e482614937565b9050919050565b60008115159050919050565b600081905061490582614c56565b919050565b600081905061491882614c6a565b919050565b60006dffffffffffffffffffffffffffff82169050919050565b600073ffffffffffffffffffffffffffffffffffffffff82169050919050565b60007bffffffffffffffffffffffffffffffffffffffffffffffffffffffff82169050919050565b6000819050919050565b600063ffffffff82169050919050565b60006149a4826149ab565b9050919050565b60006149b682614937565b9050919050565b60006149c8826149cf565b9050919050565b60006149da82614937565b9050919050565b60006149ec826149f3565b9050919050565b60006149fe82614937565b9050919050565b6000614a10826148f7565b9050919050565b6000614a228261490a565b9050919050565b82818337600083830152505050565b60005b83811015614a56578082015181840152602081019050614a3b565b83811115614a65576000848401525b50505050565b60006002820490506001821680614a8357607f821691505b60208210811415614a9757614a96614bcd565b5b50919050565b6000614ab0614aab83614c49565b6148a2565b9050919050565b6000614aca614ac583614c49565b6148c2565b9050919050565b6000614ae4614adf83614c49565b6148cf565b9050919050565b6000614af682614afd565b9050919050565b6000614b0882614c3c565b9050919050565b6000614b1a8261497f565b9150614b258361497f565b925082614b3557614b34614b6f565b5b828206905092915050565b7f4e487b7100000000000000000000000000000000000000000000000000000000600052601160045260246000fd5b7f4e487b7100000000000000000000000000000000000000000000000000000000600052601260045260246000fd5b7f4e487b7100000000000000000000000000000000000000000000000000000000600052602160045260246000fd5b7f4e487b7100000000000000000000000000000000000000000000000000000000600052602260045260246000fd5b7f4e487b7100000000000000000000000000000000000000000000000000000000600052604160045260246000fd5b6000601f19601f8301169050919050565b60008160601b9050919050565b60008160001c9050919050565b60038110614c6757614c66614b9e565b5b50565b60038110614c7b57614c7a614b9e565b5b50565b614c87816148d9565b8114614c9257600080fd5b50565b614c9e816148eb565b8114614ca957600080fd5b50565b614cb58161491d565b8114614cc057600080fd5b50565b614ccc8161497f565b8114614cd757600080fd5b50565b614ce381614989565b8114614cee57600080fd5b5056fea2646970667358221220d2ad1e2893faea8cf1f2f97b54536358f972e2ee259e96eedda999af100ef61d64736f6c63430008000033",
  "linkReferences": {},
  "deployedLinkReferences": {}
}