{
  "_format": "hh-sol-artifact-1",
  "contractName": "Market",
  "sourceName": "contracts/Market.sol",
  "abi": [
    {
      "inputs": [],
      "stateMutability": "nonpayable",
      "type": "constructor"
    },
    {
      "anonymous": false,
      "inputs": [
        {
          "components": [
            {
              "internalType": "uint256",
              "name": "frameKey",
              "type": "uint256"
            },
            {
              "internalType": "uint256",
              "name": "rate",
              "type": "uint256"
            },
            {
              "internalType": "uint256[]",
              "name": "lotKeys",
              "type": "uint256[]"
            },
            {
              "internalType": "address",
              "name": "claimedBy",
              "type": "address"
            },
            {
              "internalType": "uint256",
              "name": "rateSettle",
              "type": "uint256"
            },
            {
              "internalType": "uint256",
              "name": "feeSettle",
              "type": "uint256"
            },
            {
              "internalType": "uint256",
              "name": "rewardSettle",
              "type": "uint256"
            },
            {
              "internalType": "uint256",
              "name": "feeReferral",
              "type": "uint256"
            }
          ],
          "indexed": false,
          "internalType": "struct Market.Frame",
          "name": "frame",
          "type": "tuple"
        }
      ],
      "name": "FrameUpdate",
      "type": "event"
    },
    {
      "anonymous": false,
      "inputs": [
        {
          "components": [
            {
              "internalType": "uint256",
              "name": "frameKey",
              "type": "uint256"
            },
            {
              "internalType": "uint256",
              "name": "lotKey",
              "type": "uint256"
            },
            {
              "components": [
                {
                  "internalType": "uint256",
                  "name": "blockNumber",
                  "type": "uint256"
                },
                {
                  "internalType": "uint256",
                  "name": "blockTimestamp",
                  "type": "uint256"
                },
                {
                  "internalType": "address",
                  "name": "owner",
                  "type": "address"
                },
                {
                  "internalType": "uint256",
                  "name": "acquisitionPrice",
                  "type": "uint256"
                },
                {
                  "internalType": "uint256",
                  "name": "taxCharged",
                  "type": "uint256"
                },
                {
                  "internalType": "uint256",
                  "name": "taxRefunded",
                  "type": "uint256"
                }
              ],
              "internalType": "struct Market.LotState[]",
              "name": "states",
              "type": "tuple[]"
            }
          ],
          "indexed": false,
          "internalType": "struct Market.Lot",
          "name": "lot",
          "type": "tuple"
        }
      ],
      "name": "LotUpdate",
      "type": "event"
    },
    {
      "inputs": [],
      "name": "accountingToken",
      "outputs": [
        {
          "internalType": "contract IERC20",
          "name": "",
          "type": "address"
        }
      ],
      "stateMutability": "view",
      "type": "function"
    },
    {
      "inputs": [],
      "name": "claimReferralRewards",
      "outputs": [],
      "stateMutability": "nonpayable",
      "type": "function"
    },
    {
      "inputs": [
        {
          "internalType": "uint256",
          "name": "timestamp",
          "type": "uint256"
        }
      ],
      "name": "clcFrameKey",
      "outputs": [
        {
          "internalType": "uint256",
          "name": "",
          "type": "uint256"
        }
      ],
      "stateMutability": "view",
      "type": "function"
    },
    {
      "inputs": [
        {
          "internalType": "uint256",
          "name": "value",
          "type": "uint256"
        }
      ],
      "name": "clcLotKey",
      "outputs": [
        {
          "internalType": "uint256",
          "name": "",
          "type": "uint256"
        }
      ],
      "stateMutability": "view",
      "type": "function"
    },
    {
      "inputs": [],
      "name": "clcRate",
      "outputs": [
        {
          "internalType": "uint256",
          "name": "",
          "type": "uint256"
        }
      ],
      "stateMutability": "view",
      "type": "function"
    },
    {
      "inputs": [
        {
          "internalType": "uint256",
          "name": "timestamp",
          "type": "uint256"
        }
      ],
      "name": "clcRateAvg",
      "outputs": [
        {
          "internalType": "uint256",
          "name": "",
          "type": "uint256"
        }
      ],
      "stateMutability": "view",
      "type": "function"
    },
    {
      "inputs": [
        {
          "internalType": "uint256",
          "name": "frameKey",
          "type": "uint256"
        }
      ],
      "name": "clcRewardFund",
      "outputs": [
        {
          "internalType": "uint256",
          "name": "",
          "type": "uint256"
        }
      ],
      "stateMutability": "view",
      "type": "function"
    },
    {
      "inputs": [
        {
          "internalType": "uint256",
          "name": "frameKey",
          "type": "uint256"
        },
        {
          "internalType": "uint256",
          "name": "acquisitionPrice",
          "type": "uint256"
        }
      ],
      "name": "clcTax",
      "outputs": [
        {
          "internalType": "uint256",
          "name": "",
          "type": "uint256"
        }
      ],
      "stateMutability": "view",
      "type": "function"
    },
    {
      "inputs": [
        {
          "internalType": "uint256",
          "name": "frameKey",
          "type": "uint256"
        },
        {
          "internalType": "uint256",
          "name": "lotKey",
          "type": "uint256"
        }
      ],
      "name": "concatenate",
      "outputs": [
        {
          "internalType": "uint256",
          "name": "concatenated",
          "type": "uint256"
        }
      ],
      "stateMutability": "pure",
      "type": "function"
    },
    {
      "inputs": [],
      "name": "dPrice",
      "outputs": [
        {
          "internalType": "uint256",
          "name": "",
          "type": "uint256"
        }
      ],
      "stateMutability": "view",
      "type": "function"
    },
    {
      "inputs": [],
      "name": "feeProtocol",
      "outputs": [
        {
          "internalType": "uint256",
          "name": "",
          "type": "uint256"
        }
      ],
      "stateMutability": "view",
      "type": "function"
    },
    {
      "inputs": [
        {
          "internalType": "uint256",
          "name": "",
          "type": "uint256"
        }
      ],
      "name": "frames",
      "outputs": [
        {
          "internalType": "uint256",
          "name": "frameKey",
          "type": "uint256"
        },
        {
          "internalType": "uint256",
          "name": "rate",
          "type": "uint256"
        },
        {
          "internalType": "address",
          "name": "claimedBy",
          "type": "address"
        },
        {
          "internalType": "uint256",
          "name": "rateSettle",
          "type": "uint256"
        },
        {
          "internalType": "uint256",
          "name": "feeSettle",
          "type": "uint256"
        },
        {
          "internalType": "uint256",
          "name": "rewardSettle",
          "type": "uint256"
        },
        {
          "internalType": "uint256",
          "name": "feeReferral",
          "type": "uint256"
        }
      ],
      "stateMutability": "view",
      "type": "function"
    },
    {
      "inputs": [
        {
          "internalType": "uint256",
          "name": "",
          "type": "uint256"
        }
      ],
      "name": "framesKeys",
      "outputs": [
        {
          "internalType": "uint256",
          "name": "",
          "type": "uint256"
        }
      ],
      "stateMutability": "view",
      "type": "function"
    },
    {
      "inputs": [
        {
          "internalType": "uint256",
          "name": "frameKey",
          "type": "uint256"
        }
      ],
      "name": "getFrame",
      "outputs": [
        {
          "components": [
            {
              "internalType": "uint256",
              "name": "frameKey",
              "type": "uint256"
            },
            {
              "internalType": "uint256",
              "name": "rate",
              "type": "uint256"
            },
            {
              "internalType": "uint256[]",
              "name": "lotKeys",
              "type": "uint256[]"
            },
            {
              "internalType": "address",
              "name": "claimedBy",
              "type": "address"
            },
            {
              "internalType": "uint256",
              "name": "rateSettle",
              "type": "uint256"
            },
            {
              "internalType": "uint256",
              "name": "feeSettle",
              "type": "uint256"
            },
            {
              "internalType": "uint256",
              "name": "rewardSettle",
              "type": "uint256"
            },
            {
              "internalType": "uint256",
              "name": "feeReferral",
              "type": "uint256"
            }
          ],
          "internalType": "struct Market.Frame",
          "name": "",
          "type": "tuple"
        }
      ],
      "stateMutability": "view",
      "type": "function"
    },
    {
      "inputs": [
        {
          "internalType": "uint256",
          "name": "frameKey",
          "type": "uint256"
        }
      ],
      "name": "getFrameLotKeys",
      "outputs": [
        {
          "internalType": "uint256[]",
          "name": "",
          "type": "uint256[]"
        }
      ],
      "stateMutability": "view",
      "type": "function"
    },
    {
      "inputs": [],
      "name": "getFramesLength",
      "outputs": [
        {
          "internalType": "uint256",
          "name": "",
          "type": "uint256"
        }
      ],
      "stateMutability": "view",
      "type": "function"
    },
    {
      "inputs": [
        {
          "internalType": "uint256",
          "name": "frameKey",
          "type": "uint256"
        },
        {
          "internalType": "uint256",
          "name": "lotKey",
          "type": "uint256"
        }
      ],
      "name": "getLot",
      "outputs": [
        {
          "components": [
            {
              "internalType": "uint256",
              "name": "frameKey",
              "type": "uint256"
            },
            {
              "internalType": "uint256",
              "name": "lotKey",
              "type": "uint256"
            },
            {
              "components": [
                {
                  "internalType": "uint256",
                  "name": "blockNumber",
                  "type": "uint256"
                },
                {
                  "internalType": "uint256",
                  "name": "blockTimestamp",
                  "type": "uint256"
                },
                {
                  "internalType": "address",
                  "name": "owner",
                  "type": "address"
                },
                {
                  "internalType": "uint256",
                  "name": "acquisitionPrice",
                  "type": "uint256"
                },
                {
                  "internalType": "uint256",
                  "name": "taxCharged",
                  "type": "uint256"
                },
                {
                  "internalType": "uint256",
                  "name": "taxRefunded",
                  "type": "uint256"
                }
              ],
              "internalType": "struct Market.LotState[]",
              "name": "states",
              "type": "tuple[]"
            }
          ],
          "internalType": "struct Market.Lot",
          "name": "",
          "type": "tuple"
        }
      ],
      "stateMutability": "view",
      "type": "function"
    },
    {
      "inputs": [
        {
          "internalType": "uint256",
          "name": "frameKey",
          "type": "uint256"
        },
        {
          "internalType": "uint256",
          "name": "lotKey",
          "type": "uint256"
        }
      ],
      "name": "getLotStates",
      "outputs": [
        {
          "components": [
            {
              "internalType": "uint256",
              "name": "blockNumber",
              "type": "uint256"
            },
            {
              "internalType": "uint256",
              "name": "blockTimestamp",
              "type": "uint256"
            },
            {
              "internalType": "address",
              "name": "owner",
              "type": "address"
            },
            {
              "internalType": "uint256",
              "name": "acquisitionPrice",
              "type": "uint256"
            },
            {
              "internalType": "uint256",
              "name": "taxCharged",
              "type": "uint256"
            },
            {
              "internalType": "uint256",
              "name": "taxRefunded",
              "type": "uint256"
            }
          ],
          "internalType": "struct Market.LotState[]",
          "name": "",
          "type": "tuple[]"
        }
      ],
      "stateMutability": "view",
      "type": "function"
    },
    {
      "inputs": [],
      "name": "getLotsArray",
      "outputs": [
        {
          "internalType": "uint256[]",
          "name": "",
          "type": "uint256[]"
        }
      ],
      "stateMutability": "view",
      "type": "function"
    },
    {
      "inputs": [],
      "name": "getLotsArrayLength",
      "outputs": [
        {
          "internalType": "uint256",
          "name": "",
          "type": "uint256"
        }
      ],
      "stateMutability": "view",
      "type": "function"
    },
    {
      "inputs": [
        {
          "internalType": "uint256",
          "name": "frameKey",
          "type": "uint256"
        }
      ],
      "name": "getLotsKeysInFrame",
      "outputs": [
        {
          "internalType": "uint256[]",
          "name": "",
          "type": "uint256[]"
        }
      ],
      "stateMutability": "view",
      "type": "function"
    },
    {
      "inputs": [
        {
          "internalType": "uint256",
          "name": "frameKey",
          "type": "uint256"
        }
      ],
      "name": "getLotsLength",
      "outputs": [
        {
          "internalType": "uint256",
          "name": "",
          "type": "uint256"
        }
      ],
      "stateMutability": "view",
      "type": "function"
    },
    {
      "inputs": [
        {
          "internalType": "uint256",
          "name": "frameKey",
          "type": "uint256"
        }
      ],
      "name": "getStateFrame",
      "outputs": [
        {
          "internalType": "enum Market.SFrame",
          "name": "",
          "type": "uint8"
        }
      ],
      "stateMutability": "view",
      "type": "function"
    },
    {
      "inputs": [
        {
          "internalType": "uint256",
          "name": "frameKey",
          "type": "uint256"
        },
        {
          "internalType": "uint256",
          "name": "lotKey",
          "type": "uint256"
        }
      ],
      "name": "getStateLot",
      "outputs": [
        {
          "internalType": "enum Market.SLot",
          "name": "",
          "type": "uint8"
        }
      ],
      "stateMutability": "view",
      "type": "function"
    },
    {
      "inputs": [],
      "name": "getUncollectedRewards",
      "outputs": [
        {
          "internalType": "uint256",
          "name": "",
          "type": "uint256"
        }
      ],
      "stateMutability": "view",
      "type": "function"
    },
    {
      "inputs": [
        {
          "internalType": "address",
          "name": "user",
          "type": "address"
        },
        {
          "internalType": "uint256",
          "name": "frameKey",
          "type": "uint256"
        }
      ],
      "name": "getUserReward",
      "outputs": [
        {
          "internalType": "uint256",
          "name": "",
          "type": "uint256"
        }
      ],
      "stateMutability": "view",
      "type": "function"
    },
    {
      "inputs": [],
      "name": "getUsersArray",
      "outputs": [
        {
          "internalType": "address[]",
          "name": "",
          "type": "address[]"
        }
      ],
      "stateMutability": "view",
      "type": "function"
    },
    {
      "inputs": [],
      "name": "getUsersArrayLength",
      "outputs": [
        {
          "internalType": "uint256",
          "name": "",
          "type": "uint256"
        }
      ],
      "stateMutability": "view",
      "type": "function"
    },
    {
      "inputs": [
        {
          "internalType": "address",
          "name": "user",
          "type": "address"
        }
      ],
      "name": "getUsersRewardArrays",
      "outputs": [
        {
          "internalType": "uint256[]",
          "name": "rewards",
          "type": "uint256[]"
        },
        {
          "internalType": "uint256[]",
          "name": "collected",
          "type": "uint256[]"
        }
      ],
      "stateMutability": "view",
      "type": "function"
    },
    {
      "inputs": [],
      "name": "initTimestamp",
      "outputs": [
        {
          "internalType": "uint256",
          "name": "",
          "type": "uint256"
        }
      ],
      "stateMutability": "view",
      "type": "function"
    },
    {
      "inputs": [
        {
          "internalType": "uint256",
          "name": "",
          "type": "uint256"
        },
        {
          "internalType": "uint256",
          "name": "",
          "type": "uint256"
        }
      ],
      "name": "lots",
      "outputs": [
        {
          "internalType": "uint256",
          "name": "frameKey",
          "type": "uint256"
        },
        {
          "internalType": "uint256",
          "name": "lotKey",
          "type": "uint256"
        }
      ],
      "stateMutability": "view",
      "type": "function"
    },
    {
      "inputs": [
        {
          "internalType": "uint256",
          "name": "",
          "type": "uint256"
        }
      ],
      "name": "lotsArray",
      "outputs": [
        {
          "internalType": "uint256",
          "name": "",
          "type": "uint256"
        }
      ],
      "stateMutability": "view",
      "type": "function"
    },
    {
      "inputs": [
        {
          "components": [
            {
              "internalType": "uint256",
              "name": "frameKey",
              "type": "uint256"
            },
            {
              "internalType": "uint256",
              "name": "rate",
              "type": "uint256"
            },
            {
              "internalType": "uint256[]",
              "name": "lotKeys",
              "type": "uint256[]"
            },
            {
              "internalType": "address",
              "name": "claimedBy",
              "type": "address"
            },
            {
              "internalType": "uint256",
              "name": "rateSettle",
              "type": "uint256"
            },
            {
              "internalType": "uint256",
              "name": "feeSettle",
              "type": "uint256"
            },
            {
              "internalType": "uint256",
              "name": "rewardSettle",
              "type": "uint256"
            },
            {
              "internalType": "uint256",
              "name": "feeReferral",
              "type": "uint256"
            }
          ],
          "internalType": "struct Market.Frame",
          "name": "frame",
          "type": "tuple"
        },
        {
          "internalType": "uint256",
          "name": "avgPrice",
          "type": "uint256"
        }
      ],
      "name": "overrideFrameRate",
      "outputs": [],
      "stateMutability": "nonpayable",
      "type": "function"
    },
    {
      "inputs": [],
      "name": "owner",
      "outputs": [
        {
          "internalType": "address",
          "name": "",
          "type": "address"
        }
      ],
      "stateMutability": "view",
      "type": "function"
    },
    {
      "inputs": [],
      "name": "period",
      "outputs": [
        {
          "internalType": "uint256",
          "name": "",
          "type": "uint256"
        }
      ],
      "stateMutability": "view",
      "type": "function"
    },
    {
      "inputs": [],
      "name": "referralPct",
      "outputs": [
        {
          "internalType": "uint256",
          "name": "",
          "type": "uint256"
        }
      ],
      "stateMutability": "view",
      "type": "function"
    },
    {
      "inputs": [
        {
          "internalType": "address",
          "name": "user",
          "type": "address"
        }
      ],
      "name": "referredBy",
      "outputs": [
        {
          "internalType": "address",
          "name": "",
          "type": "address"
        }
      ],
      "stateMutability": "view",
      "type": "function"
    },
    {
      "inputs": [
        {
          "internalType": "uint256",
          "name": "frameKey",
          "type": "uint256"
        }
      ],
      "name": "setFrameRate",
      "outputs": [],
      "stateMutability": "nonpayable",
      "type": "function"
    },
    {
      "inputs": [
        {
          "internalType": "uint256",
          "name": "frameKey",
          "type": "uint256"
        }
      ],
      "name": "settleFrame",
      "outputs": [
        {
          "internalType": "uint256",
          "name": "",
          "type": "uint256"
        }
      ],
      "stateMutability": "nonpayable",
      "type": "function"
    },
    {
      "inputs": [],
      "name": "tSettle",
      "outputs": [
        {
          "internalType": "uint256",
          "name": "",
          "type": "uint256"
        }
      ],
      "stateMutability": "view",
      "type": "function"
    },
    {
      "inputs": [],
      "name": "taxMarket",
      "outputs": [
        {
          "internalType": "uint256",
          "name": "",
          "type": "uint256"
        }
      ],
      "stateMutability": "view",
      "type": "function"
    },
    {
      "inputs": [
        {
          "internalType": "uint256",
          "name": "timestamp",
          "type": "uint256"
        },
        {
          "internalType": "uint256",
          "name": "rate",
          "type": "uint256"
        },
        {
          "internalType": "uint256",
          "name": "acquisitionPrice",
          "type": "uint256"
        },
        {
          "internalType": "address",
          "name": "referrer",
          "type": "address"
        }
      ],
      "name": "tradeLot",
      "outputs": [],
      "stateMutability": "nonpayable",
      "type": "function"
    },
    {
      "inputs": [],
      "name": "uniswapPool",
      "outputs": [
        {
          "internalType": "contract IUniswapV3Pool",
          "name": "",
          "type": "address"
        }
      ],
      "stateMutability": "view",
      "type": "function"
    },
    {
      "inputs": [
        {
          "internalType": "address",
          "name": "user",
          "type": "address"
        }
      ],
      "name": "userExists",
      "outputs": [
        {
          "internalType": "bool",
          "name": "",
          "type": "bool"
        }
      ],
      "stateMutability": "view",
      "type": "function"
    },
    {
      "inputs": [
        {
          "internalType": "address",
          "name": "",
          "type": "address"
        }
      ],
      "name": "users",
      "outputs": [
        {
          "internalType": "bool",
          "name": "exists",
          "type": "bool"
        },
        {
          "internalType": "address",
          "name": "referredBy",
          "type": "address"
        }
      ],
      "stateMutability": "view",
      "type": "function"
    },
    {
      "inputs": [
        {
          "internalType": "uint256",
          "name": "",
          "type": "uint256"
        }
      ],
      "name": "usersArray",
      "outputs": [
        {
          "internalType": "address",
          "name": "",
          "type": "address"
        }
      ],
      "stateMutability": "view",
      "type": "function"
    },
    {
      "inputs": [
        {
          "internalType": "uint256",
          "name": "amount",
          "type": "uint256"
        }
      ],
      "name": "withdrawAccountingToken",
      "outputs": [],
      "stateMutability": "nonpayable",
      "type": "function"
    }
  ],
  "bytecode": "0x608060405262015180600055636592e180600155666a94d74f430000600255610258600355600480546001600160a01b03199081167367a9fe12fa6082d9d0203c84c6c56d3c4b269f281790915568056bc75e2d63100000600555662386f26fc1000060065560078054909116738f3cf7ad23cd3cadbd9735aff958023239c6a0631790556611c37937e0800060095534801561009b57600080fd5b50600880546001600160a01b03191633179055614985806100bd6000396000f3fe608060405234801561001057600080fd5b50600436106102955760003560e01c806391bb686511610167578063bad12653116100ce578063e107fb4f11610087578063e107fb4f146106ec578063ed320aa8146106ff578063ef78d4fd14610707578063fb0d5e0914610710578063ffdabe2d14610730578063ffde58621461074357600080fd5b8063bad1265314610678578063bdd3d82514610698578063c0423f2e146106ab578063d18743dd146106b3578063d8d50008146106c6578063da68cf8b146106d957600080fd5b8063a87430ba11610120578063a87430ba14610580578063a90f8e9a146105d2578063b866debb14610603578063b93dafa914610616578063ba4e137f1461065d578063ba52f3421461066557600080fd5b806391bb6865146104835780639592de18146104a457806399fe71ef146104b75780639e9c4f08146104cc578063a10340bc146104d5578063a73482f61461056d57600080fd5b80634c73884f1161020b578063773d51eb116101c4578063773d51eb146104085780637e996639146104285780638a5779c8146104315780638da5cb5b1461043a5780638edc6a2c1461044d57806391a0846d1461047057600080fd5b80634c73884f14610390578063527eb4bc146103b057806361eee2cb146103b957806369ca9e05146103cc5780636f1aefc3146103df5780637358c57a146103ff57600080fd5b8063197c4e781161025d578063197c4e781461032e5780632457e620146102ca5780632fae35c01461033657806339a6a489146103615780633baf158714610374578063499a0fc41461038757600080fd5b8063050e88401461029a57806305eaab4b146102c05780630d0a1c1a146102ca5780630e666e49146102ea5780631123581814610326575b600080fd5b6102ad6102a8366004613e35565b61074b565b6040519081526020015b60405180910390f35b6102c861076c565b005b6102dd6102d8366004613e35565b610ac6565b6040516102b79190613e89565b6103166102f8366004613ec8565b6001600160a01b03166000908152600c602052604090205460ff1690565b60405190151581526020016102b7565b6102ad610b2b565b600f546102ad565b610349610344366004613e35565b610d47565b6040516001600160a01b0390911681526020016102b7565b6102ad61036f366004613e35565b610d71565b6102c8610382366004613e35565b610f3e565b6102ad60055481565b6103a361039e366004613ee5565b61107b565b6040516102b79190613f1d565b6102ad60025481565b6102ad6103c7366004613e35565b6111a8565b6102c86103da366004614037565b6111df565b6103f26103ed366004613ee5565b6112db565b6040516102b7919061416b565b6102ad60015481565b61041b610416366004613e35565b611432565b6040516102b7919061419a565b6102ad60065481565b6102ad60035481565b600854610349906001600160a01b031681565b6102ad61045b366004613e35565b6000908152600a602052604090206002015490565b6102ad61047e366004614246565b61156e565b610496610491366004613ec8565b6115d3565b6040516102b7929190614272565b6102ad6104b2366004613e35565b6117d8565b6104bf611803565b6040516102b791906142a0565b6102ad60095481565b61052a6104e3366004613e35565b600a602052600090815260409020805460018201546003830154600484015460058501546006860154600790960154949593946001600160a01b0390931693919290919087565b6040805197885260208801969096526001600160a01b03909416948601949094526060850191909152608084015260a083019190915260c082015260e0016102b7565b6102ad61057b366004613ee5565b611865565b6105b361058e366004613ec8565b600c6020526000908152604090205460ff81169061010090046001600160a01b031682565b6040805192151583526001600160a01b039091166020830152016102b7565b6103496105e0366004613ec8565b6001600160a01b039081166000908152600c602052604090205461010090041690565b6102ad610611366004613e35565b61192f565b610648610624366004613ee5565b600e6020908152600092835260408084209091529082529020805460019091015482565b604080519283526020830191909152016102b7565b6102ad611e7c565b6102ad610673366004613e35565b611f4b565b61068b610686366004613e35565b611f5b565b6040516102b791906142ed565b600454610349906001600160a01b031681565b6102dd611ff2565b6102c86106c1366004613e35565b612049565b6102c86106d4366004614301565b612131565b600754610349906001600160a01b031681565b6102ad6106fa366004613ee5565b61226f565b600b546102ad565b6102ad60005481565b61072361071e366004613ee5565b612331565b6040516102b79190614342565b6102ad61073e366004613e35565b6123e7565b600d546102ad565b600b818154811061075b57600080fd5b600091825260209091200154905081565b336000908152600c602052604090205460ff166107a45760405162461bcd60e51b815260040161079b90614355565b60405180910390fd5b600b5460009067ffffffffffffffff8111156107c2576107c2613f37565b6040519080825280602002602001820160405280156107eb578160200160208202803683370190505b5090506000805b600b54811015610895576004610824600b838154811061081457610814614382565b9060005260206000200154611f5b565b600481111561083557610835613f07565b0361088357600b818154811061084d5761084d614382565b906000526020600020015483838151811061086a5761086a614382565b60209081029190910101528161087f816143ae565b9250505b8061088d816143ae565b9150506107f2565b50600081116108da5760405162461bcd60e51b81526020600482015260116024820152704e6f20736574746c6564206672616d657360781b604482015260640161079b565b6000805b82811015610a0457336000908152600c6020526040812085516002909101919086908490811061091057610910614382565b602090810291909101810151825281019190915260400160009081205460ff16151590036109f257336000908152600c6020526040812085516001909101919086908490811061096257610962614382565b60200260200101518152602001908152602001600020548261098491906143c7565b91506001600c6000336001600160a01b03166001600160a01b0316815260200190815260200160002060020160008684815181106109c4576109c4614382565b6020026020010151815260200190815260200160002060006101000a81548160ff0219169083151502179055505b806109fc816143ae565b9150506108de565b5060008111610a4b5760405162461bcd60e51b81526020600482015260136024820152724e6f207265776172647320746f20636c61696d60681b604482015260640161079b565b60075460405163a9059cbb60e01b8152336004820152602481018390526001600160a01b039091169063a9059cbb906044016020604051808303816000875af1158015610a9c573d6000803e3d6000fd5b505050506040513d601f19601f82011682018060405250810190610ac091906143ea565b50505050565b6000818152600a6020908152604091829020600201805483518184028101840190945280845260609392830182828015610b1f57602002820191906000526020600020905b815481526020019060010190808311610b0b575b50505050509050919050565b336000908152600c602052604081205460ff16610b5a5760405162461bcd60e51b815260040161079b90614355565b600b5460009067ffffffffffffffff811115610b7857610b78613f37565b604051908082528060200260200182016040528015610ba1578160200160208202803683370190505b5090506000805b600b54811015610c3b576004610bca600b838154811061081457610814614382565b6004811115610bdb57610bdb613f07565b03610c2957600b8181548110610bf357610bf3614382565b9060005260206000200154838381518110610c1057610c10614382565b602090810291909101015281610c25816143ae565b9250505b80610c33816143ae565b915050610ba8565b5060008111610c805760405162461bcd60e51b81526020600482015260116024820152704e6f20736574746c6564206672616d657360781b604482015260640161079b565b6000805b82811015610d3f57336000908152600c60205260408120855160029091019190869084908110610cb657610cb6614382565b602090810291909101810151825281019190915260400160009081205460ff1615159003610d2d57336000908152600c60205260408120855160019091019190869084908110610d0857610d08614382565b602002602001015181526020019081526020016000205482610d2a91906143c7565b91505b80610d37816143ae565b915050610c84565b509392505050565b600d8181548110610d5757600080fd5b6000918252602090912001546001600160a01b0316905081565b600080805b6000848152600a6020526040902060020154811015610f37576000848152600a6020818152604080842080548552600e835290842088855292909152600201805483919085908110610dca57610dca614382565b90600052602060002001548152602001908152602001600020604051806060016040529081600082015481526020016001820154815260200160028201805480602002602001604051908101604052809291908181526020016000905b82821015610e985760008481526020908190206040805160c08101825260068602909201805483526001808201548486015260028201546001600160a01b03169284019290925260038101546060840152600481015460808401526005015460a08301529083529092019101610e27565b5050505081525050905060005b816040015151811015610f225781604001518181518110610ec857610ec8614382565b60200260200101516080015184610edf91906143c7565b935081604001518181518110610ef757610ef7614382565b602002602001015160a0015184610f0e9190614405565b935080610f1a816143ae565b915050610ea5565b50508080610f2f906143ae565b915050610d76565b5092915050565b610f7f60405180604001604052806012815260200171333930b6b2a5b2bc9015903832b934b7b21d60711b81525060005483610f7a91906143c7565b61262d565b610fb16040518060400160405280601081526020016f313637b1b5973a34b6b2b9ba30b6b81d60811b8152504261262d565b60008054828252600a6020526040909120544291610fce916143c7565b111561101c5760405162461bcd60e51b815260206004820152601b60248201527f4672616d652068617320746f20626520696e2074686520706173740000000000604482015260640161079b565b6000611027826123e7565b6000838152600a6020526040908190206001810183905590519192507f929af310c689982c60d4ec73c6e4b602e89c6f6a31da7c2df4888fb0627cb2b19161106f919061444d565b60405180910390a15050565b6000828152600e6020908152604080832084845290915281206001015481036110a6575060006111a2565b60006110b184611f5b565b60048111156110c2576110c2613f07565b036110cf575060006111a2565b60016110da84611f5b565b60048111156110eb576110eb613f07565b1480611110575060026110fd84611f5b565b600481111561110e5761110e613f07565b145b1561111d575060016111a2565b6000838152600e602090815260408083208584528252808320600190810154878552600a9093529220909101541080159061119157506005546000848152600e6020908152604080832086845290915290206001015461117d91906143c7565b6000848152600a6020526040902060010154105b1561119e575060026111a2565b5060035b92915050565b600060015482116111bb57505060015490565b6000546001546111cb9084614405565b6111d591906144d5565b6111a29083614405565b6008546001600160a01b031633146112495760405162461bcd60e51b815260206004820152602760248201527f4f6e6c79206f776e65722063616e20757064617465206672616d6520636c6f736044820152666520707269636560c81b606482015260840161079b565b815160000361126a5760405162461bcd60e51b815260040161079b906144e9565b60608201516001600160a01b0316156112c55760405162461bcd60e51b815260206004820181905260248201527f4672616d65207265776172642077617320616c726561647920636c61696d6564604482015260640161079b565b90516000908152600a6020526040902060010155565b6112ff60405180606001604052806000815260200160008152602001606081525090565b6000838152600e60209081526040808320858452909152812060010154900361135e5760405162461bcd60e51b8152602060048201526011602482015270131bdd08191bd95cdb89dd08195e1a5cdd607a1b604482015260640161079b565b6000838152600e602090815260408083208584528252808320815160608101835281548152600182015481850152600282018054845181870281018701865281815292969395948701949293919290919084015b828210156114235760008481526020908190206040805160c08101825260068602909201805483526001808201548486015260028201546001600160a01b03169284019290925260038101546060840152600481015460808401526005015460a083015290835290920191016113b2565b50505091525090949350505050565b61148360405180610100016040528060008152602001600081526020016060815260200160006001600160a01b03168152602001600081526020016000815260200160008152602001600081525090565b6000828152600a602052604081205490036114b05760405162461bcd60e51b815260040161079b906144e9565b6000828152600a6020908152604091829020825161010081018452815481526001820154818401526002820180548551818602810186018752818152929593949386019383018282801561152357602002820191906000526020600020905b81548152602001906001019080831161150f575b505050918352505060038201546001600160a01b0316602082015260048201546040820152600582015460608201526006820154608082015260079091015460a09091015292915050565b6001600160a01b0382166000908152600c602052604081205460ff166115a65760405162461bcd60e51b815260040161079b90614355565b506001600160a01b03919091166000908152600c6020908152604080832093835260019093019052205490565b600b54606090819067ffffffffffffffff8111156115f3576115f3613f37565b60405190808252806020026020018201604052801561161c578160200160208202803683370190505b50600b5490925067ffffffffffffffff81111561163b5761163b613f37565b604051908082528060200260200182016040528015611664578160200160208202803683370190505b50905060005b600b548110156117d2576001600160a01b0384166000908152600c60205260408120600b805460019092019291849081106116a7576116a7614382565b9060005260206000200154815260200190815260200160002054600003156117c0576001600160a01b0384166000908152600c60205260408120600b805460019092019291849081106116fc576116fc614382565b906000526020600020015481526020019081526020016000205483828151811061172857611728614382565b602002602001018181525050600c6000856001600160a01b03166001600160a01b031681526020019081526020016000206002016000600b838154811061177157611771614382565b6000918252602080832090910154835282019290925260400190205460ff1661179b57600061179e565b60015b60ff168282815181106117b3576117b3614382565b6020026020010181815250505b806117ca816143ae565b91505061166a565b50915091565b60006005548210156117ec57505060055490565b6005546117f98184614516565b6111a2919061452a565b6060600d80548060200260200160405190810160405280929190818152602001828054801561185b57602002820191906000526020600020905b81546001600160a01b0316815260019091019060200180831161183d575b5050505050905090565b6000611876826402540be40061452a565b91506118af6040518060400160405280601581526020017429a7a61021a7a721a0aa1d10333930b6b2a5b2bc9d60591b8152508461262d565b6118e46040518060400160405280601381526020017229a7a61021a7a721a0aa1d103637ba25b2bc9d60691b8152508361262d565b6118ee83836143c7565b90506111a26040518060400160405280601981526020017f534f4c20434f4e4341543a20636f6e636174656e617465643a000000000000008152508261262d565b6000818152600a6020526040812054810361195c5760405162461bcd60e51b815260040161079b906144e9565b600361196783611f5b565b600481111561197857611978613f07565b146119d15760405162461bcd60e51b8152602060048201526024808201527f4672616d6520646f6573206e6f742068617665206120636c6f73652072617465604482015263081cd95d60e21b606482015260840161079b565b6000828152600a60205260408120600101546119ec906117d8565b6000848152600e60209081526040808320848452825280832081516060810183528154815260018201548185015260028201805484518187028101870186528181529798509596919592949386019391929091879084015b82821015611ab55760008481526020908190206040805160c08101825260068602909201805483526001808201548486015260028201546001600160a01b03169284019290925260038101546060840152600481015460808401526005015460a08301529083529092019101611a44565b505050508152505090506000611aca85610d71565b90506000670de0b6b3a764000060025483611ae5919061452a565b611aef9190614516565b6000878152600a602052604090206005810182905560070154909150611b158284614405565b611b1f9190614405565b6000878152600a602052604090819020600601919091558301515115611cee57600754604084015180516001600160a01b039092169163a9059cbb9190611b6890600190614405565b81518110611b7857611b78614382565b602002602001015160400151600a60008a8152602001908152602001600020600601546040518363ffffffff1660e01b8152600401611bcc9291906001600160a01b03929092168252602082015260400190565b6020604051808303816000875af1158015611beb573d6000803e3d6000fd5b505050506040513d601f19601f82011682018060405250810190611c0f91906143ea565b5060408301518051611c2390600190614405565b81518110611c3357611c33614382565b6020908102919091018101516040908101516000898152600a909352918190206003810180546001600160a01b0319166001600160a01b03948516179055600754600854600590920154925163a9059cbb60e01b81529184166004830152602482019290925291169063a9059cbb906044016020604051808303816000875af1158015611cc4573d6000803e3d6000fd5b505050506040513d601f19601f82011682018060405250810190611ce891906143ea565b50611dcc565b6007546008546000888152600a6020526040902060058101546006909101546001600160a01b039384169363a9059cbb931691611d2a916143c7565b6040516001600160e01b031960e085901b1681526001600160a01b03909216600483015260248201526044016020604051808303816000875af1158015611d75573d6000803e3d6000fd5b505050506040513d601f19601f82011682018060405250810190611d9991906143ea565b506008546000878152600a6020526040902060030180546001600160a01b0319166001600160a01b039092169190911790555b6000868152600a6020526040908190206001810154600490910155517f906ff162b3f2709ab28fb678d43913964434148dd206e9b17adb3c1255090cb190611e1590859061416b565b60405180910390a16000868152600a60205260409081902090517f929af310c689982c60d4ec73c6e4b602e89c6f6a31da7c2df4888fb0627cb2b191611e5a9161444d565b60405180910390a150505060009283525050600a602052604090206006015490565b6004805460408051633850c7bd60e01b8152905160009384936001600160a01b031692633850c7bd928183019260e0928290030181865afa158015611ec5573d6000803e3d6000fd5b505050506040513d601f19601f82011682018060405250810190611ee99190614553565b50505050505090506000816001600160a01b031690506000600160601b82670de0b6b3a7640000611f1a919061452a565b611f249190614516565b9050670de0b6b3a7640000611f39828061452a565b611f439190614516565b949350505050565b600f818154811061075b57600080fd5b6000818152600a60205260408120548103611f7857506000919050565b6000828152600a60205260409020600301546001600160a01b031615611fa057506004919050565b60008054838252600a602052604090912054611fbc91906143c7565b421015611fcb57506001919050565b6000828152600a602052604090206001015415611fea57506003919050565b506002919050565b6060600f80548060200260200160405190810160405280929190818152602001828054801561185b57602002820191906000526020600020905b81548152602001906001019080831161202c575050505050905090565b6008546001600160a01b031633146120b45760405162461bcd60e51b815260206004820152602860248201527f4f6e6c79206f776e65722063616e207769746864726177206163636f756e74696044820152673733903a37b5b2b760c11b606482015260840161079b565b60075460085460405163a9059cbb60e01b81526001600160a01b0391821660048201526024810184905291169063a9059cbb906044016020604051808303816000875af1158015612109573d6000803e3d6000fd5b505050506040513d601f19601f8201168201806040525081019061212d91906143ea565b5050565b600061213c856111a8565b90506000612149856117d8565b6000838152600e60209081526040808320848452909152812060010154919250036121a1576000828152600a6020526040812054900361218e5761218c86612672565b505b61219a828286866127af565b5050610ac0565b6000828152600e60209081526040808320848452909152902060020180543391906121ce90600190614405565b815481106121de576121de614382565b60009182526020909120600260069092020101546001600160a01b03160361220b5761219a828286612bf1565b6122178282868661304d565b6000828152600e602090815260408083208484529091529081902090517f906ff162b3f2709ab28fb678d43913964434148dd206e9b17adb3c1255090cb19161225f916145ed565b60405180910390a1505050505050565b6000426000548461228091906143c7565b116122cd5760405162461bcd60e51b815260206004820152601d60248201527f4672616d652068617320746f20626520696e2074686520667574757265000000604482015260640161079b565b600080546006546122de9190614516565b9050600042600054866122f191906143c7565b6122fb9190614405565b90506000670de0b6b3a764000085612313858561452a565b61231d919061452a565b6123279190614516565b9695505050505050565b6000828152600e602090815260408083208484528252808320600201805482518185028101850190935280835260609492939192909184015b828210156123db5760008481526020908190206040805160c08101825260068602909201805483526001808201548486015260028201546001600160a01b03169284019290925260038101546060840152600481015460808401526005015460a0830152908352909201910161236a565b50505050905092915050565b60008060035483426123f99190614405565b61240391906143c7565b905060006124118442614405565b6040805160028082526060820183529293506000929091602083019080368337019050509050828160008151811061244b5761244b614382565b602002602001019063ffffffff16908163ffffffff1681525050818160018151811061247957612479614382565b63ffffffff909216602092830291909101909101526004805460405163883bdbfd60e01b81526000926001600160a01b039092169163883bdbfd916124c09186910161469b565b600060405180830381865afa1580156124dd573d6000803e3d6000fd5b505050506040513d6000823e601f3d908101601f19168201604052612505919081019061473d565b50905060008160008151811061251d5761251d614382565b602002602001015160060b8260018151811061253b5761253b614382565b602002602001015160060b6125509190614809565b905060008112156125995760405162461bcd60e51b81526020600482015260136024820152724e65676174697665207469636b2064656c746160681b604482015260640161079b565b8060006125af63ffffffff808816908916614405565b905060006125bd8284614516565b905060006125ca826135ff565b905060006125e866010000000000006001600160a01b038416614516565b905060006125f6828061452a565b90506000600160601b61261183670de0b6b3a764000061452a565b61261b9190614516565b9e9d5050505050505050505050505050565b61212d8282604051602401612643929190614829565b60408051601f198184030181529190526020810180516001600160e01b0316632d839cb360e21b1790526139e2565b60008061267e836111a8565b6000818152600a6020526040902054909150156126d45760405162461bcd60e51b81526020600482015260146024820152734672616d6520616c72656164792065786973747360601b604482015260640161079b565b42600054826126e391906143c7565b10156127315760405162461bcd60e51b815260206004820152601d60248201527f4672616d652068617320746f20626520696e2074686520667574757265000000604482015260640161079b565b6000818152600a602052604090819020828155600b8054600181019091557f0175b7a638427703f0dbe7bb9bbf987a2551717b34e79f33b5b1008d1fa01db90183905590517f929af310c689982c60d4ec73c6e4b602e89c6f6a31da7c2df4888fb0627cb2b1916127a19161444d565b60405180910390a192915050565b60006127bb858461226f565b9050600081116127dd5760405162461bcd60e51b815260040161079b9061487e565b600754604051636eb1769f60e11b815233600482015230602482015282916001600160a01b03169063dd62ed3e90604401602060405180830381865afa15801561282b573d6000803e3d6000fd5b505050506040513d601f19601f8201168201806040525081019061284f91906148db565b101561286d5760405162461bcd60e51b815260040161079b906148f4565b7f161bcca7119915b50764b4abe86529797775a5f171951000000000000000000084106128ce5760405162461bcd60e51b815260206004820152600f60248201526e4c6f74206b657920746f6f2062696760881b604482015260640161079b565b6000858152600e602090815260408083208784529091529020600101541561292d5760405162461bcd60e51b81526020600482015260126024820152714c6f7420616c72656164792065786973747360701b604482015260640161079b565b6040805160c081018252438152426020808301918252338385019081526060840188815260808501878152600060a087018181528d8252600e86528882208d835286529781208d815560018082018e90556002808301805480840182558186529885208b516006909a0201988955985191880191909155945194860180546001600160a01b0319166001600160a01b0390961695909517909455915160038501555160048401559451600590920191909155928790528054919291829182916129f891908190613d4f565b50905050612a2a6040518060400160405280600c81526020016b29a7a61d103637ba35b2bc9d60a11b8152508761262d565b612a5a6040518060400160405280600e81526020016d29a7a61d10333930b6b2a5b2bc9d60911b8152508861262d565b6000612a668888611865565b9050612a9c6040518060400160405280601281526020017129a7a61d103637ba25b2bca1b7b731b0ba1d60711b8152508261262d565b600f805460018181019092557f8d1108e10bcb7c27dddfc02ed9d693a074039d026cf4ea4240b40f7d581ac802018290556000898152600a60209081526040808320868501546002909101805495860181558452919092209092019190915560075490516323b872dd60e01b81526001600160a01b03909116906323b872dd90612b2e9033903090899060040161492b565b6020604051808303816000875af1158015612b4d573d6000803e3d6000fd5b505050506040513d601f19601f82011682018060405250810190612b7191906143ea565b50336000908152600c602052604090205460ff16612b9257612b92856139ee565b336000908152600c60205260408082205461010090046001600160a01b0316825290205460ff1615612be757336000908152600c6020526040902054612be79061010090046001600160a01b0316858a613bab565b5050505050505050565b6000838152600e6020908152604080832085845290915281206002018054612c48918691612c2190600190614405565b81548110612c3157612c31614382565b90600052602060002090600602016003015461226f565b90506000612c56858461226f565b905080821115612e3b576000612c6c8284614405565b6007546000888152600e602090815260408083208a8452909152902060020180549293506001600160a01b039091169163a9059cbb9190612caf90600190614405565b81548110612cbf57612cbf614382565b600091825260209091206006909102016002015460405160e083901b6001600160e01b03191681526001600160a01b039091166004820152602481018490526044016020604051808303816000875af1158015612d20573d6000803e3d6000fd5b505050506040513d601f19601f82011682018060405250810190612d4491906143ea565b506000868152600e602090815260408083208884528252808320815160c0810183524381524281850190815233828501818152606084018c81526080850189815260a086018b81526002978801805460018082018355918d528b8d2098516006909102909801978855955195870195909555915195850180546001600160a01b0319166001600160a01b0397881617905551600385015551600484015590516005909201919091558452600c909252808320546101009004909116825290205460ff1615612e3557336000908152600c6020526040902054612e359061010090046001600160a01b03168288613c72565b50613046565b6000612e478383614405565b600754604051636eb1769f60e11b815233600482015230602482015291925082916001600160a01b039091169063dd62ed3e90604401602060405180830381865afa158015612e9a573d6000803e3d6000fd5b505050506040513d601f19601f82011682018060405250810190612ebe91906148db565b1015612edc5760405162461bcd60e51b815260040161079b906148f4565b6007546040516323b872dd60e01b81526001600160a01b03909116906323b872dd90612f109033903090869060040161492b565b6020604051808303816000875af1158015612f2f573d6000803e3d6000fd5b505050506040513d601f19601f82011682018060405250810190612f5391906143ea565b506000868152600e602090815260408083208884528252808320815160c0810183524381524281850190815233828501818152606084018c8152608085018a815260a086018a81526002978801805460018082018355918d528b8d2098516006909102909801978855955195870195909555915195850180546001600160a01b0319166001600160a01b0397881617905551600385015551600484015590516005909201919091558452600c909252808320546101009004909116825290205460ff161561304457336000908152600c60205260409020546130449061010090046001600160a01b03168288613bab565b505b5050505050565b6000848152600e602090815260408083208684529091528120600201805461307790600190614405565b8154811061308757613087614382565b600091825260208220600260069092020101546001600160a01b031691506130af868561226f565b9050600081116130d15760405162461bcd60e51b815260040161079b9061487e565b6000868152600e60209081526040808320888452909152812060020180546130fb90600190614405565b8154811061310b5761310b614382565b9060005260206000209060060201600301549050808261312b91906143c7565b600754604051636eb1769f60e11b81523360048201523060248201526001600160a01b039091169063dd62ed3e90604401602060405180830381865afa158015613179573d6000803e3d6000fd5b505050506040513d601f19601f8201168201806040525081019061319d91906148db565b10156131bb5760405162461bcd60e51b815260040161079b906148f4565b6007546040516323b872dd60e01b81526001600160a01b03909116906323b872dd906131ef9033903090879060040161492b565b6020604051808303816000875af115801561320e573d6000803e3d6000fd5b505050506040513d601f19601f8201168201806040525081019061323291906143ea565b506007546040516323b872dd60e01b81526001600160a01b03909116906323b872dd906132679033908790869060040161492b565b6020604051808303816000875af1158015613286573d6000803e3d6000fd5b505050506040513d601f19601f820116820180604052508101906132aa91906143ea565b506000878152600e60209081526040808320898452909152812060020180546132db918a91612c2190600190614405565b60075460405163a9059cbb60e01b81526001600160a01b0387811660048301526024820184905292935091169063a9059cbb906044016020604051808303816000875af1158015613330573d6000803e3d6000fd5b505050506040513d601f19601f8201168201806040525081019061335491906143ea565b50336000908152600c602052604090205460ff1661337557613375856139ee565b336000908152600c60205260408082205461010090046001600160a01b0316825290205460ff16156133ca57336000908152600c60205260409020546133ca9061010090046001600160a01b0316848a613bab565b6001600160a01b038085166000908152600c60205260408082205461010090049092168152205460ff1615613425576001600160a01b038085166000908152600c60205260409020546134259161010090910416828a613c72565b600e600089815260200190815260200160002060008881526020019081526020016000206002016040518060c00160405280438152602001428152602001866001600160a01b0316815260200184815260200160008152602001838152509080600181540180825580915050600190039060005260206000209060060201600090919091909150600082015181600001556020820151816001015560408201518160020160006101000a8154816001600160a01b0302191690836001600160a01b03160217905550606082015181600301556080820151816004015560a082015181600501555050600e600089815260200190815260200160002060008881526020019081526020016000206002016040518060c00160405280438152602001428152602001336001600160a01b0316815260200188815260200185815260200160008152509080600181540180825580915050600190039060005260206000209060060201600090919091909150600082015181600001556020820151816001015560408201518160020160006101000a8154816001600160a01b0302191690836001600160a01b03160217905550606082015181600301556080820151816004015560a0820151816005015550505050505050505050565b600081620d89e88111156136395760405162461bcd60e51b81526020600482015260016024820152601560fa1b604482015260640161079b565b60008160011660000361365057600160801b613662565b6ffffcb933bd6fad37aa2d162d1a5940015b70ffffffffffffffffffffffffffffffffff16905060028216156136a157608061369c826ffff97272373d413259a46990580e213a61452a565b901c90505b60048216156136cb5760806136c6826ffff2e50f5f656932ef12357cf3c7fdcc61452a565b901c90505b60088216156136f55760806136f0826fffe5caca7e10e4e61c3624eaa0941cd061452a565b901c90505b601082161561371f57608061371a826fffcb9843d60f6159c9db58835c92664461452a565b901c90505b6020821615613749576080613744826fff973b41fa98c081472e6896dfb254c061452a565b901c90505b604082161561377357608061376e826fff2ea16466c96a3843ec78b326b5286161452a565b901c90505b608082161561379d576080613798826ffe5dee046a99a2a811c461f1969c305361452a565b901c90505b6101008216156137c85760806137c3826ffcbe86c7900a88aedcffc83b479aa3a461452a565b901c90505b6102008216156137f35760806137ee826ff987a7253ac413176f2b074cf7815e5461452a565b901c90505b61040082161561381e576080613819826ff3392b0822b70005940c7a398e4b70f361452a565b901c90505b610800821615613849576080613844826fe7159475a2c29b7443b29c7fa6e889d961452a565b901c90505b61100082161561387457608061386f826fd097f3bdfd2022b8845ad8f792aa582561452a565b901c90505b61200082161561389f57608061389a826fa9f746462d870fdf8a65dc1f90e061e561452a565b901c90505b6140008216156138ca5760806138c5826f70d869a156d2a1b890bb3df62baf32f761452a565b901c90505b6180008216156138f55760806138f0826f31be135f97d08fd981231505542fcfa661452a565b901c90505b6201000082161561392157608061391c826f09aa508b5b7a84e1c677de54f3e99bc961452a565b901c90505b6202000082161561394c576080613947826e5d6af8dedb81196699c329225ee60461452a565b901c90505b62040000821615613976576080613971826d2216e584f5fa1ea926041bedfe9861452a565b901c90505b6208000082161561399e576080613999826b048a170391f7dc42444e8fa261452a565b901c90505b83156139b3576139b081600019614516565b90505b6139c2640100000000826144d5565b156139ce5760016139d1565b60005b611f439060ff16602083901c6143c7565b6139eb81613d2e565b50565b336000908152600c602052604090205460ff1615613a445760405162461bcd60e51b81526020600482015260136024820152725573657220616c72656164792065786973747360681b604482015260640161079b565b6001600160a01b038116613acd57336000818152600c6020526040812080546001600160a01b0394909416610100026001600160a81b0319909416939093176001908117909355600d8054938401815590527fd7b6990105719101dabeb77144f2a3385c8033acd3af97e9423a695e81ad1eb590910180546001600160a01b0319169091179055565b6001600160a01b0381166000908152600c602052604090205460ff16613b355760405162461bcd60e51b815260206004820152601760248201527f526566657272657220646f6573206e6f74206578697374000000000000000000604482015260640161079b565b600d805460018181019092557fd7b6990105719101dabeb77144f2a3385c8033acd3af97e9423a695e81ad1eb50180546001600160a01b031916339081179091556000908152600c6020526040902080546001600160a01b0393909316610100026001600160a81b031990931692909217179055565b6001600160a01b0383166000908152600c602052604090205460ff16613be35760405162461bcd60e51b815260040161079b90614355565b6000670de0b6b3a764000060095484613bfc919061452a565b613c069190614516565b6001600160a01b0385166000908152600c60209081526040808320868452600101909152812080549293508392909190613c419084906143c7565b90915550506000828152600a602052604081206007018054839290613c679084906143c7565b909155505050505050565b6001600160a01b0383166000908152600c602052604090205460ff16613caa5760405162461bcd60e51b815260040161079b90614355565b6000670de0b6b3a764000060095484613cc3919061452a565b613ccd9190614516565b6001600160a01b0385166000908152600c60209081526040808320868452600101909152812080549293508392909190613d08908490614405565b90915550506000828152600a602052604081206007018054839290613c67908490614405565b60006a636f6e736f6c652e6c6f679050600080835160208501845afa505050565b828054828255906000526020600020906006028101928215613de35760005260206000209160060282015b82811115613de357825482556001808401549083015560028084015490830180546001600160a01b0319166001600160a01b0390921691909117905560038084015490830155600480840154908301556005808401549083015560069283019290910190613d7a565b50613def929150613df3565b5090565b5b80821115613def576000808255600182018190556002820180546001600160a01b031916905560038201819055600482018190556005820155600601613df4565b600060208284031215613e4757600080fd5b5035919050565b600081518084526020808501945080840160005b83811015613e7e57815187529582019590820190600101613e62565b509495945050505050565b602081526000613e9c6020830184613e4e565b9392505050565b6001600160a01b03811681146139eb57600080fd5b8035613ec381613ea3565b919050565b600060208284031215613eda57600080fd5b8135613e9c81613ea3565b60008060408385031215613ef857600080fd5b50508035926020909101359150565b634e487b7160e01b600052602160045260246000fd5b6020810160048310613f3157613f31613f07565b91905290565b634e487b7160e01b600052604160045260246000fd5b604051610100810167ffffffffffffffff81118282101715613f7157613f71613f37565b60405290565b604051601f8201601f1916810167ffffffffffffffff81118282101715613fa057613fa0613f37565b604052919050565b600067ffffffffffffffff821115613fc257613fc2613f37565b5060051b60200190565b600082601f830112613fdd57600080fd5b81356020613ff2613fed83613fa8565b613f77565b82815260059290921b8401810191818101908684111561401157600080fd5b8286015b8481101561402c5780358352918301918301614015565b509695505050505050565b6000806040838503121561404a57600080fd5b823567ffffffffffffffff8082111561406257600080fd5b90840190610100828703121561407757600080fd5b61407f613f4d565b823581526020830135602082015260408301358281111561409f57600080fd5b6140ab88828601613fcc565b6040830152506140bd60608401613eb8565b60608201526080830135608082015260a083013560a082015260c083013560c082015260e083013560e0820152809450505050602083013590509250929050565b600081518084526020808501945080840160005b83811015613e7e5781518051885283810151848901526040808201516001600160a01b031690890152606080820151908901526080808201519089015260a0908101519088015260c09096019590820190600101614112565b60208152815160208201526020820151604082015260006040830151606080840152611f4360808401826140fe565b6000602080835261012083018451828501528185015160408501526040850151610100806060870152828251808552610140880191508584019450600093505b808410156141fa57845182529385019360019390930192908501906141da565b5060608801516001600160a01b03811660808901529450608088015160a088015260a088015160c088015260c088015160e088015260e088015182880152809550505050505092915050565b6000806040838503121561425957600080fd5b823561426481613ea3565b946020939093013593505050565b6040815260006142856040830185613e4e565b82810360208401526142978185613e4e565b95945050505050565b6020808252825182820181905260009190848201906040850190845b818110156142e15783516001600160a01b0316835292840192918401916001016142bc565b50909695505050505050565b6020810160058310613f3157613f31613f07565b6000806000806080858703121561431757600080fd5b843593506020850135925060408501359150606085013561433781613ea3565b939692955090935050565b602081526000613e9c60208301846140fe565b602080825260139082015272155cd95c88191bd95cc81b9bdd08195e1a5cdd606a1b604082015260600190565b634e487b7160e01b600052603260045260246000fd5b634e487b7160e01b600052601160045260246000fd5b6000600182016143c0576143c0614398565b5060010190565b808201808211156111a2576111a2614398565b80518015158114613ec357600080fd5b6000602082840312156143fc57600080fd5b613e9c826143da565b818103818111156111a2576111a2614398565b6000815480845260208085019450836000528060002060005b83811015613e7e57815487529582019560019182019101614431565b602081528154602082015260018201546040820152600061010080606084015261447e610120840160028601614418565b60038501546001600160a01b03166080850152600485015460a0850152600585015460c0850152600685015460e08501526007909401549201919091525090565b634e487b7160e01b600052601260045260246000fd5b6000826144e4576144e46144bf565b500690565b602080825260139082015272119c985b5948191bd95cdb89dd08195e1a5cdd606a1b604082015260600190565b600082614525576145256144bf565b500490565b80820281158282048414176111a2576111a2614398565b805161ffff81168114613ec357600080fd5b600080600080600080600060e0888a03121561456e57600080fd5b875161457981613ea3565b8097505060208801518060020b811461459157600080fd5b955061459f60408901614541565b94506145ad60608901614541565b93506145bb60808901614541565b925060a088015160ff811681146145d157600080fd5b91506145df60c089016143da565b905092959891949750929550565b6000602080835260808084018554838601526001808701546040818189015260029150818901606080818b015285825480885260a09750878c0191508360005289600020935060005b818110156146895784548352878501548b840152868501546001600160a01b03168684015260038501548484015260048501548a84015260058501548984015260069094019360c0909201918701614636565b50909c9b505050505050505050505050565b6020808252825182820181905260009190848201906040850190845b818110156142e157835163ffffffff16835292840192918401916001016146b7565b600082601f8301126146ea57600080fd5b815160206146fa613fed83613fa8565b82815260059290921b8401810191818101908684111561471957600080fd5b8286015b8481101561402c57805161473081613ea3565b835291830191830161471d565b6000806040838503121561475057600080fd5b825167ffffffffffffffff8082111561476857600080fd5b818501915085601f83011261477c57600080fd5b8151602061478c613fed83613fa8565b82815260059290921b840181019181810190898411156147ab57600080fd5b948201945b838610156147d95785518060060b81146147ca5760008081fd5b825294820194908201906147b0565b918801519196509093505050808211156147f257600080fd5b506147ff858286016146d9565b9150509250929050565b8181036000831280158383131683831282161715610f3757610f37614398565b604081526000835180604084015260005b81811015614857576020818701810151606086840101520161483a565b506000606082850101526060601f19601f8301168401019150508260208301529392505050565b6020808252603c908201527f5461782068617320746f2062652067726561746572207468616e20302e20496e60408201527f63726561736520746865206163717569736974696f6e20707269636500000000606082015260800190565b6000602082840312156148ed57600080fd5b5051919050565b6020808252601e908201527f416c6c6f77616e636520746f207370656e642073657420746f6f206c6f770000604082015260600190565b6001600160a01b03938416815291909216602082015260408101919091526060019056fea2646970667358221220ccfdaed71fcc4116fc0265281839f89963e4ef77ce04a39fe228e7576d79ec6f64736f6c63430008140033",
  "linkReferences": {},
  "deployedLinkReferences": {}
}