{
  "_format": "hh-sol-artifact-1",
  "contractName": "Market",
  "sourceName": "contracts/Market.sol",
  "abi": [
    {
      "inputs": [],
      "stateMutability": "nonpayable",
      "type": "constructor"
    },
    {
      "anonymous": false,
      "inputs": [
        {
          "components": [
            {
              "internalType": "uint256",
              "name": "frameKey",
              "type": "uint256"
            },
            {
              "internalType": "uint256",
              "name": "rate",
              "type": "uint256"
            },
            {
              "internalType": "uint256[]",
              "name": "lotKeys",
              "type": "uint256[]"
            },
            {
              "internalType": "address",
              "name": "claimedBy",
              "type": "address"
            },
            {
              "internalType": "uint256",
              "name": "rateSettle",
              "type": "uint256"
            },
            {
              "internalType": "uint256",
              "name": "feeSettle",
              "type": "uint256"
            },
            {
              "internalType": "uint256",
              "name": "rewardSettle",
              "type": "uint256"
            },
            {
              "internalType": "uint256",
              "name": "feeReferral",
              "type": "uint256"
            }
          ],
          "indexed": false,
          "internalType": "struct Market.Frame",
          "name": "frame",
          "type": "tuple"
        }
      ],
      "name": "FrameUpdate",
      "type": "event"
    },
    {
      "anonymous": false,
      "inputs": [
        {
          "components": [
            {
              "internalType": "uint256",
              "name": "frameKey",
              "type": "uint256"
            },
            {
              "internalType": "uint256",
              "name": "lotKey",
              "type": "uint256"
            },
            {
              "components": [
                {
                  "internalType": "uint256",
                  "name": "blockNumber",
                  "type": "uint256"
                },
                {
                  "internalType": "uint256",
                  "name": "blockTimestamp",
                  "type": "uint256"
                },
                {
                  "internalType": "address",
                  "name": "owner",
                  "type": "address"
                },
                {
                  "internalType": "uint256",
                  "name": "acquisitionPrice",
                  "type": "uint256"
                },
                {
                  "internalType": "uint256",
                  "name": "taxCharged",
                  "type": "uint256"
                },
                {
                  "internalType": "uint256",
                  "name": "taxRefunded",
                  "type": "uint256"
                }
              ],
              "internalType": "struct Market.LotState[]",
              "name": "states",
              "type": "tuple[]"
            }
          ],
          "indexed": false,
          "internalType": "struct Market.Lot",
          "name": "lot",
          "type": "tuple"
        }
      ],
      "name": "LotUpdate",
      "type": "event"
    },
    {
      "inputs": [],
      "name": "accountingToken",
      "outputs": [
        {
          "internalType": "contract IERC20",
          "name": "",
          "type": "address"
        }
      ],
      "stateMutability": "view",
      "type": "function"
    },
    {
      "inputs": [],
      "name": "claimReferralRewards",
      "outputs": [],
      "stateMutability": "nonpayable",
      "type": "function"
    },
    {
      "inputs": [
        {
          "internalType": "uint256",
          "name": "timestamp",
          "type": "uint256"
        }
      ],
      "name": "clcFrameKey",
      "outputs": [
        {
          "internalType": "uint256",
          "name": "",
          "type": "uint256"
        }
      ],
      "stateMutability": "view",
      "type": "function"
    },
    {
      "inputs": [
        {
          "internalType": "uint256",
          "name": "value",
          "type": "uint256"
        }
      ],
      "name": "clcLotKey",
      "outputs": [
        {
          "internalType": "uint256",
          "name": "",
          "type": "uint256"
        }
      ],
      "stateMutability": "view",
      "type": "function"
    },
    {
      "inputs": [],
      "name": "clcRate",
      "outputs": [
        {
          "internalType": "uint256",
          "name": "",
          "type": "uint256"
        }
      ],
      "stateMutability": "view",
      "type": "function"
    },
    {
      "inputs": [
        {
          "internalType": "uint256",
          "name": "timestamp",
          "type": "uint256"
        }
      ],
      "name": "clcRateAvg",
      "outputs": [
        {
          "internalType": "uint256",
          "name": "",
          "type": "uint256"
        }
      ],
      "stateMutability": "view",
      "type": "function"
    },
    {
      "inputs": [
        {
          "internalType": "uint256",
          "name": "frameKey",
          "type": "uint256"
        }
      ],
      "name": "clcRewardFund",
      "outputs": [
        {
          "internalType": "uint256",
          "name": "",
          "type": "uint256"
        }
      ],
      "stateMutability": "view",
      "type": "function"
    },
    {
      "inputs": [
        {
          "internalType": "uint256",
          "name": "frameKey",
          "type": "uint256"
        },
        {
          "internalType": "uint256",
          "name": "acquisitionPrice",
          "type": "uint256"
        }
      ],
      "name": "clcTax",
      "outputs": [
        {
          "internalType": "uint256",
          "name": "",
          "type": "uint256"
        }
      ],
      "stateMutability": "view",
      "type": "function"
    },
    {
      "inputs": [],
      "name": "clcUnClaimableFunds",
      "outputs": [
        {
          "internalType": "uint256",
          "name": "",
          "type": "uint256"
        }
      ],
      "stateMutability": "view",
      "type": "function"
    },
    {
      "inputs": [],
      "name": "dPrice",
      "outputs": [
        {
          "internalType": "uint256",
          "name": "",
          "type": "uint256"
        }
      ],
      "stateMutability": "view",
      "type": "function"
    },
    {
      "inputs": [],
      "name": "feeProtocol",
      "outputs": [
        {
          "internalType": "uint256",
          "name": "",
          "type": "uint256"
        }
      ],
      "stateMutability": "view",
      "type": "function"
    },
    {
      "inputs": [
        {
          "internalType": "uint256",
          "name": "",
          "type": "uint256"
        }
      ],
      "name": "frames",
      "outputs": [
        {
          "internalType": "uint256",
          "name": "frameKey",
          "type": "uint256"
        },
        {
          "internalType": "uint256",
          "name": "rate",
          "type": "uint256"
        },
        {
          "internalType": "address",
          "name": "claimedBy",
          "type": "address"
        },
        {
          "internalType": "uint256",
          "name": "rateSettle",
          "type": "uint256"
        },
        {
          "internalType": "uint256",
          "name": "feeSettle",
          "type": "uint256"
        },
        {
          "internalType": "uint256",
          "name": "rewardSettle",
          "type": "uint256"
        },
        {
          "internalType": "uint256",
          "name": "feeReferral",
          "type": "uint256"
        }
      ],
      "stateMutability": "view",
      "type": "function"
    },
    {
      "inputs": [
        {
          "internalType": "uint256",
          "name": "",
          "type": "uint256"
        }
      ],
      "name": "framesKeys",
      "outputs": [
        {
          "internalType": "uint256",
          "name": "",
          "type": "uint256"
        }
      ],
      "stateMutability": "view",
      "type": "function"
    },
    {
      "inputs": [
        {
          "internalType": "uint256",
          "name": "frameKey",
          "type": "uint256"
        }
      ],
      "name": "getFrame",
      "outputs": [
        {
          "components": [
            {
              "internalType": "uint256",
              "name": "frameKey",
              "type": "uint256"
            },
            {
              "internalType": "uint256",
              "name": "rate",
              "type": "uint256"
            },
            {
              "internalType": "uint256[]",
              "name": "lotKeys",
              "type": "uint256[]"
            },
            {
              "internalType": "address",
              "name": "claimedBy",
              "type": "address"
            },
            {
              "internalType": "uint256",
              "name": "rateSettle",
              "type": "uint256"
            },
            {
              "internalType": "uint256",
              "name": "feeSettle",
              "type": "uint256"
            },
            {
              "internalType": "uint256",
              "name": "rewardSettle",
              "type": "uint256"
            },
            {
              "internalType": "uint256",
              "name": "feeReferral",
              "type": "uint256"
            }
          ],
          "internalType": "struct Market.Frame",
          "name": "",
          "type": "tuple"
        }
      ],
      "stateMutability": "view",
      "type": "function"
    },
    {
      "inputs": [
        {
          "internalType": "uint256",
          "name": "frameKey",
          "type": "uint256"
        }
      ],
      "name": "getFrameLotKeys",
      "outputs": [
        {
          "internalType": "uint256[]",
          "name": "",
          "type": "uint256[]"
        }
      ],
      "stateMutability": "view",
      "type": "function"
    },
    {
      "inputs": [
        {
          "internalType": "uint256",
          "name": "frameKey",
          "type": "uint256"
        },
        {
          "internalType": "uint256",
          "name": "lotKey",
          "type": "uint256"
        }
      ],
      "name": "getLot",
      "outputs": [
        {
          "components": [
            {
              "internalType": "uint256",
              "name": "frameKey",
              "type": "uint256"
            },
            {
              "internalType": "uint256",
              "name": "lotKey",
              "type": "uint256"
            },
            {
              "components": [
                {
                  "internalType": "uint256",
                  "name": "blockNumber",
                  "type": "uint256"
                },
                {
                  "internalType": "uint256",
                  "name": "blockTimestamp",
                  "type": "uint256"
                },
                {
                  "internalType": "address",
                  "name": "owner",
                  "type": "address"
                },
                {
                  "internalType": "uint256",
                  "name": "acquisitionPrice",
                  "type": "uint256"
                },
                {
                  "internalType": "uint256",
                  "name": "taxCharged",
                  "type": "uint256"
                },
                {
                  "internalType": "uint256",
                  "name": "taxRefunded",
                  "type": "uint256"
                }
              ],
              "internalType": "struct Market.LotState[]",
              "name": "states",
              "type": "tuple[]"
            }
          ],
          "internalType": "struct Market.Lot",
          "name": "",
          "type": "tuple"
        }
      ],
      "stateMutability": "view",
      "type": "function"
    },
    {
      "inputs": [
        {
          "internalType": "uint256",
          "name": "frameKey",
          "type": "uint256"
        },
        {
          "internalType": "uint256",
          "name": "lotKey",
          "type": "uint256"
        }
      ],
      "name": "getLotStates",
      "outputs": [
        {
          "components": [
            {
              "internalType": "uint256",
              "name": "blockNumber",
              "type": "uint256"
            },
            {
              "internalType": "uint256",
              "name": "blockTimestamp",
              "type": "uint256"
            },
            {
              "internalType": "address",
              "name": "owner",
              "type": "address"
            },
            {
              "internalType": "uint256",
              "name": "acquisitionPrice",
              "type": "uint256"
            },
            {
              "internalType": "uint256",
              "name": "taxCharged",
              "type": "uint256"
            },
            {
              "internalType": "uint256",
              "name": "taxRefunded",
              "type": "uint256"
            }
          ],
          "internalType": "struct Market.LotState[]",
          "name": "",
          "type": "tuple[]"
        }
      ],
      "stateMutability": "view",
      "type": "function"
    },
    {
      "inputs": [
        {
          "internalType": "uint256",
          "name": "frameKey",
          "type": "uint256"
        }
      ],
      "name": "getLotsKeysInFrame",
      "outputs": [
        {
          "internalType": "uint256[]",
          "name": "",
          "type": "uint256[]"
        }
      ],
      "stateMutability": "view",
      "type": "function"
    },
    {
      "inputs": [
        {
          "internalType": "uint256",
          "name": "frameKey",
          "type": "uint256"
        }
      ],
      "name": "getStateFrame",
      "outputs": [
        {
          "internalType": "enum Market.SFrame",
          "name": "",
          "type": "uint8"
        }
      ],
      "stateMutability": "view",
      "type": "function"
    },
    {
      "inputs": [
        {
          "internalType": "uint256",
          "name": "frameKey",
          "type": "uint256"
        },
        {
          "internalType": "uint256",
          "name": "lotKey",
          "type": "uint256"
        }
      ],
      "name": "getStateLot",
      "outputs": [
        {
          "internalType": "enum Market.SLot",
          "name": "",
          "type": "uint8"
        }
      ],
      "stateMutability": "view",
      "type": "function"
    },
    {
      "inputs": [],
      "name": "getUncollectedRewards",
      "outputs": [
        {
          "internalType": "uint256",
          "name": "",
          "type": "uint256"
        }
      ],
      "stateMutability": "view",
      "type": "function"
    },
    {
      "inputs": [
        {
          "internalType": "address",
          "name": "user",
          "type": "address"
        },
        {
          "internalType": "uint256",
          "name": "frameKey",
          "type": "uint256"
        }
      ],
      "name": "getUserReward",
      "outputs": [
        {
          "internalType": "uint256",
          "name": "",
          "type": "uint256"
        }
      ],
      "stateMutability": "view",
      "type": "function"
    },
    {
      "inputs": [],
      "name": "initTimestamp",
      "outputs": [
        {
          "internalType": "uint256",
          "name": "",
          "type": "uint256"
        }
      ],
      "stateMutability": "view",
      "type": "function"
    },
    {
      "inputs": [
        {
          "internalType": "uint256",
          "name": "",
          "type": "uint256"
        },
        {
          "internalType": "uint256",
          "name": "",
          "type": "uint256"
        }
      ],
      "name": "lots",
      "outputs": [
        {
          "internalType": "uint256",
          "name": "frameKey",
          "type": "uint256"
        },
        {
          "internalType": "uint256",
          "name": "lotKey",
          "type": "uint256"
        }
      ],
      "stateMutability": "view",
      "type": "function"
    },
    {
      "inputs": [
        {
          "components": [
            {
              "internalType": "uint256",
              "name": "frameKey",
              "type": "uint256"
            },
            {
              "internalType": "uint256",
              "name": "rate",
              "type": "uint256"
            },
            {
              "internalType": "uint256[]",
              "name": "lotKeys",
              "type": "uint256[]"
            },
            {
              "internalType": "address",
              "name": "claimedBy",
              "type": "address"
            },
            {
              "internalType": "uint256",
              "name": "rateSettle",
              "type": "uint256"
            },
            {
              "internalType": "uint256",
              "name": "feeSettle",
              "type": "uint256"
            },
            {
              "internalType": "uint256",
              "name": "rewardSettle",
              "type": "uint256"
            },
            {
              "internalType": "uint256",
              "name": "feeReferral",
              "type": "uint256"
            }
          ],
          "internalType": "struct Market.Frame",
          "name": "frame",
          "type": "tuple"
        },
        {
          "internalType": "uint256",
          "name": "avgPrice",
          "type": "uint256"
        }
      ],
      "name": "overrideFrameRate",
      "outputs": [],
      "stateMutability": "nonpayable",
      "type": "function"
    },
    {
      "inputs": [],
      "name": "owner",
      "outputs": [
        {
          "internalType": "address",
          "name": "",
          "type": "address"
        }
      ],
      "stateMutability": "view",
      "type": "function"
    },
    {
      "inputs": [],
      "name": "period",
      "outputs": [
        {
          "internalType": "uint256",
          "name": "",
          "type": "uint256"
        }
      ],
      "stateMutability": "view",
      "type": "function"
    },
    {
      "inputs": [],
      "name": "referralPct",
      "outputs": [
        {
          "internalType": "uint256",
          "name": "",
          "type": "uint256"
        }
      ],
      "stateMutability": "view",
      "type": "function"
    },
    {
      "inputs": [
        {
          "internalType": "address",
          "name": "user",
          "type": "address"
        }
      ],
      "name": "referredBy",
      "outputs": [
        {
          "internalType": "address",
          "name": "",
          "type": "address"
        }
      ],
      "stateMutability": "view",
      "type": "function"
    },
    {
      "inputs": [
        {
          "internalType": "uint256",
          "name": "frameKey",
          "type": "uint256"
        }
      ],
      "name": "setFrameRate",
      "outputs": [],
      "stateMutability": "nonpayable",
      "type": "function"
    },
    {
      "inputs": [
        {
          "internalType": "uint256",
          "name": "frameKey",
          "type": "uint256"
        }
      ],
      "name": "settleFrame",
      "outputs": [
        {
          "internalType": "uint256",
          "name": "",
          "type": "uint256"
        }
      ],
      "stateMutability": "nonpayable",
      "type": "function"
    },
    {
      "inputs": [],
      "name": "tSettle",
      "outputs": [
        {
          "internalType": "uint256",
          "name": "",
          "type": "uint256"
        }
      ],
      "stateMutability": "view",
      "type": "function"
    },
    {
      "inputs": [],
      "name": "taxMarket",
      "outputs": [
        {
          "internalType": "uint256",
          "name": "",
          "type": "uint256"
        }
      ],
      "stateMutability": "view",
      "type": "function"
    },
    {
      "inputs": [
        {
          "internalType": "uint256",
          "name": "timestamp",
          "type": "uint256"
        },
        {
          "internalType": "uint256",
          "name": "rate",
          "type": "uint256"
        },
        {
          "internalType": "uint256",
          "name": "acquisitionPrice",
          "type": "uint256"
        },
        {
          "internalType": "address",
          "name": "referrer",
          "type": "address"
        }
      ],
      "name": "tradeLot",
      "outputs": [],
      "stateMutability": "nonpayable",
      "type": "function"
    },
    {
      "inputs": [],
      "name": "uniswapPool",
      "outputs": [
        {
          "internalType": "contract IUniswapV3Pool",
          "name": "",
          "type": "address"
        }
      ],
      "stateMutability": "view",
      "type": "function"
    },
    {
      "inputs": [
        {
          "internalType": "address",
          "name": "user",
          "type": "address"
        }
      ],
      "name": "userExists",
      "outputs": [
        {
          "internalType": "bool",
          "name": "",
          "type": "bool"
        }
      ],
      "stateMutability": "view",
      "type": "function"
    },
    {
      "inputs": [
        {
          "internalType": "address",
          "name": "",
          "type": "address"
        }
      ],
      "name": "users",
      "outputs": [
        {
          "internalType": "bool",
          "name": "exists",
          "type": "bool"
        },
        {
          "internalType": "address",
          "name": "referredBy",
          "type": "address"
        }
      ],
      "stateMutability": "view",
      "type": "function"
    },
    {
      "inputs": [
        {
          "internalType": "uint256",
          "name": "amount",
          "type": "uint256"
        }
      ],
      "name": "withdrawAccountingToken",
      "outputs": [],
      "stateMutability": "nonpayable",
      "type": "function"
    }
  ],
  "bytecode": "0x608060405262015180600055636592e180600155666a94d74f430000600255610258600355600480546001600160a01b03199081167367a9fe12fa6082d9d0203c84c6c56d3c4b269f281790915568056bc75e2d63100000600555662386f26fc1000060065560078054909116738f3cf7ad23cd3cadbd9735aff958023239c6a0631790556611c37937e0800060095534801561009b57600080fd5b50600880546001600160a01b0319163317905561443b806100bd6000396000f3fe608060405234801561001057600080fd5b50600436106102325760003560e01c806391a0846d11610130578063ba4e137f116100b8578063da68cf8b1161007c578063da68cf8b146105dc578063e107fb4f146105ef578063ef78d4fd14610602578063fb0d5e091461060b578063ffdabe2d1461062b57600080fd5b8063ba4e137f1461057b578063bad1265314610583578063bdd3d825146105a3578063d18743dd146105b6578063d8d50008146105c957600080fd5b8063a87430ba116100ff578063a87430ba14610496578063a90f8e9a146104e8578063a9a578ee14610519578063b866debb14610521578063b93dafa91461053457600080fd5b806391a0846d146103cf5780639592de18146103e25780639e9c4f08146103f5578063a10340bc146103fe57600080fd5b80634c73884f116101be5780637358c57a116101825780637358c57a14610369578063773d51eb146103725780637e996639146103925780638a5779c81461039b5780638da5cb5b146103a457600080fd5b80634c73884f146102fa578063527eb4bc1461031a57806361eee2cb1461032357806369ca9e05146103365780636f1aefc31461034957600080fd5b8063112358181161020557806311235818146102c35780632457e6201461026757806339a6a489146102cb5780633baf1587146102de578063499a0fc4146102f157600080fd5b8063050e88401461023757806305eaab4b1461025d5780630d0a1c1a146102675780630e666e4914610287575b600080fd5b61024a6102453660046139b7565b61063e565b6040519081526020015b60405180910390f35b61026561065f565b005b61027a6102753660046139b7565b6109b9565b60405161025491906139d0565b6102b3610295366004613a3c565b6001600160a01b03166000908152600c602052604090205460ff1690565b6040519015158152602001610254565b61024a610a1e565b61024a6102d93660046139b7565b610c3a565b6102656102ec3660046139b7565b610e07565b61024a60055481565b61030d610308366004613a60565b610ed1565b6040516102549190613a98565b61024a60025481565b61024a6103313660046139b7565b610ffe565b610265610344366004613bb2565b611035565b61035c610357366004613a60565b611131565b6040516102549190613cf1565b61024a60015481565b6103856103803660046139b7565b611288565b6040516102549190613d20565b61024a60065481565b61024a60035481565b6008546103b7906001600160a01b031681565b6040516001600160a01b039091168152602001610254565b61024a6103dd366004613dcc565b6113c4565b61024a6103f03660046139b7565b611429565b61024a60095481565b61045361040c3660046139b7565b600a602052600090815260409020805460018201546003830154600484015460058501546006860154600790960154949593946001600160a01b0390931693919290919087565b6040805197885260208801969096526001600160a01b03909416948601949094526060850191909152608084015260a083019190915260c082015260e001610254565b6104c96104a4366004613a3c565b600c6020526000908152604090205460ff81169061010090046001600160a01b031682565b6040805192151583526001600160a01b03909116602083015201610254565b6103b76104f6366004613a3c565b6001600160a01b039081166000908152600c602052604090205461010090041690565b61024a611454565b61024a61052f3660046139b7565b6116ba565b610566610542366004613a60565b600d6020908152600092835260408084209091529082529020805460019091015482565b60408051928352602083019190915201610254565b61024a611bed565b6105966105913660046139b7565b611cbc565b6040516102549190613df8565b6004546103b7906001600160a01b031681565b6102656105c43660046139b7565b611d53565b6102656105d7366004613e0c565b611e3b565b6007546103b7906001600160a01b031681565b61024a6105fd366004613a60565b611f7a565b61024a60005481565b61061e610619366004613a60565b61203c565b6040516102549190613e4d565b61024a6106393660046139b7565b6120f2565b600b818154811061064e57600080fd5b600091825260209091200154905081565b336000908152600c602052604090205460ff166106975760405162461bcd60e51b815260040161068e90613e60565b60405180910390fd5b600b5460009067ffffffffffffffff8111156106b5576106b5613ab2565b6040519080825280602002602001820160405280156106de578160200160208202803683370190505b5090506000805b600b54811015610788576004610717600b838154811061070757610707613e8d565b9060005260206000200154611cbc565b600481111561072857610728613a82565b0361077657600b818154811061074057610740613e8d565b906000526020600020015483838151811061075d5761075d613e8d565b60209081029190910101528161077281613eb9565b9250505b8061078081613eb9565b9150506106e5565b50600081116107cd5760405162461bcd60e51b81526020600482015260116024820152704e6f20736574746c6564206672616d657360781b604482015260640161068e565b6000805b828110156108f757336000908152600c6020526040812085516002909101919086908490811061080357610803613e8d565b602090810291909101810151825281019190915260400160009081205460ff16151590036108e557336000908152600c6020526040812085516001909101919086908490811061085557610855613e8d565b6020026020010151815260200190815260200160002054826108779190613ed2565b91506001600c6000336001600160a01b03166001600160a01b0316815260200190815260200160002060020160008684815181106108b7576108b7613e8d565b6020026020010151815260200190815260200160002060006101000a81548160ff0219169083151502179055505b806108ef81613eb9565b9150506107d1565b506000811161093e5760405162461bcd60e51b81526020600482015260136024820152724e6f207265776172647320746f20636c61696d60681b604482015260640161068e565b60075460405163a9059cbb60e01b8152336004820152602481018390526001600160a01b039091169063a9059cbb906044016020604051808303816000875af115801561098f573d6000803e3d6000fd5b505050506040513d601f19601f820116820180604052508101906109b39190613ef5565b50505050565b6000818152600a6020908152604091829020600201805483518184028101840190945280845260609392830182828015610a1257602002820191906000526020600020905b8154815260200190600101908083116109fe575b50505050509050919050565b336000908152600c602052604081205460ff16610a4d5760405162461bcd60e51b815260040161068e90613e60565b600b5460009067ffffffffffffffff811115610a6b57610a6b613ab2565b604051908082528060200260200182016040528015610a94578160200160208202803683370190505b5090506000805b600b54811015610b2e576004610abd600b838154811061070757610707613e8d565b6004811115610ace57610ace613a82565b03610b1c57600b8181548110610ae657610ae6613e8d565b9060005260206000200154838381518110610b0357610b03613e8d565b602090810291909101015281610b1881613eb9565b9250505b80610b2681613eb9565b915050610a9b565b5060008111610b735760405162461bcd60e51b81526020600482015260116024820152704e6f20736574746c6564206672616d657360781b604482015260640161068e565b6000805b82811015610c3257336000908152600c60205260408120855160029091019190869084908110610ba957610ba9613e8d565b602090810291909101810151825281019190915260400160009081205460ff1615159003610c2057336000908152600c60205260408120855160019091019190869084908110610bfb57610bfb613e8d565b602002602001015181526020019081526020016000205482610c1d9190613ed2565b91505b80610c2a81613eb9565b915050610b77565b509392505050565b600080805b6000848152600a6020526040902060020154811015610e00576000848152600a6020818152604080842080548552600d835290842088855292909152600201805483919085908110610c9357610c93613e8d565b90600052602060002001548152602001908152602001600020604051806060016040529081600082015481526020016001820154815260200160028201805480602002602001604051908101604052809291908181526020016000905b82821015610d615760008481526020908190206040805160c08101825260068602909201805483526001808201548486015260028201546001600160a01b03169284019290925260038101546060840152600481015460808401526005015460a08301529083529092019101610cf0565b5050505081525050905060005b816040015151811015610deb5781604001518181518110610d9157610d91613e8d565b60200260200101516080015184610da89190613ed2565b935081604001518181518110610dc057610dc0613e8d565b602002602001015160a0015184610dd79190613f10565b935080610de381613eb9565b915050610d6e565b50508080610df890613eb9565b915050610c3f565b5092915050565b60008054828252600a6020526040909120544291610e2491613ed2565b1115610e725760405162461bcd60e51b815260206004820152601b60248201527f4672616d652068617320746f20626520696e2074686520706173740000000000604482015260640161068e565b6000610e7d826120f2565b6000838152600a6020526040908190206001810183905590519192507f929af310c689982c60d4ec73c6e4b602e89c6f6a31da7c2df4888fb0627cb2b191610ec59190613f58565b60405180910390a15050565b6000828152600d602090815260408083208484529091528120600101548103610efc57506000610ff8565b6000610f0784611cbc565b6004811115610f1857610f18613a82565b03610f2557506000610ff8565b6001610f3084611cbc565b6004811115610f4157610f41613a82565b1480610f6657506002610f5384611cbc565b6004811115610f6457610f64613a82565b145b15610f7357506001610ff8565b6000838152600d602090815260408083208584528252808320600190810154878552600a90935292209091015410801590610fe757506005546000848152600d60209081526040808320868452909152902060010154610fd39190613ed2565b6000848152600a6020526040902060010154105b15610ff457506002610ff8565b5060035b92915050565b6000600154821161101157505060015490565b6000546001546110219084613f10565b61102b9190613fe0565b610ff89083613f10565b6008546001600160a01b0316331461109f5760405162461bcd60e51b815260206004820152602760248201527f4f6e6c79206f776e65722063616e20757064617465206672616d6520636c6f736044820152666520707269636560c81b606482015260840161068e565b81516000036110c05760405162461bcd60e51b815260040161068e90613ff4565b60608201516001600160a01b03161561111b5760405162461bcd60e51b815260206004820181905260248201527f4672616d65207265776172642077617320616c726561647920636c61696d6564604482015260640161068e565b90516000908152600a6020526040902060010155565b61115560405180606001604052806000815260200160008152602001606081525090565b6000838152600d6020908152604080832085845290915281206001015490036111b45760405162461bcd60e51b8152602060048201526011602482015270131bdd08191bd95cdb89dd08195e1a5cdd607a1b604482015260640161068e565b6000838152600d602090815260408083208584528252808320815160608101835281548152600182015481850152600282018054845181870281018701865281815292969395948701949293919290919084015b828210156112795760008481526020908190206040805160c08101825260068602909201805483526001808201548486015260028201546001600160a01b03169284019290925260038101546060840152600481015460808401526005015460a08301529083529092019101611208565b50505091525090949350505050565b6112d960405180610100016040528060008152602001600081526020016060815260200160006001600160a01b03168152602001600081526020016000815260200160008152602001600081525090565b6000828152600a602052604081205490036113065760405162461bcd60e51b815260040161068e90613ff4565b6000828152600a6020908152604091829020825161010081018452815481526001820154818401526002820180548551818602810186018752818152929593949386019383018282801561137957602002820191906000526020600020905b815481526020019060010190808311611365575b505050918352505060038201546001600160a01b0316602082015260048201546040820152600582015460608201526006820154608082015260079091015460a09091015292915050565b6001600160a01b0382166000908152600c602052604081205460ff166113fc5760405162461bcd60e51b815260040161068e90613e60565b506001600160a01b03919091166000908152600c6020908152604080832093835260019093019052205490565b600060055482101561143d57505060055490565b60055461144a8184614021565b610ff89190614035565b600080805b600b548110156116b4576000600a6000600b848154811061147c5761147c613e8d565b906000526020600020015481526020019081526020016000206040518061010001604052908160008201548152602001600182015481526020016002820180548060200260200160405190810160405280929190818152602001828054801561150457602002820191906000526020600020905b8154815260200190600101908083116114f0575b50505091835250506003828101546001600160a01b0316602083015260048301546040830152600583015460608301526006830154608083015260079092015460a090910152909150815161155890611cbc565b600481111561156957611569613a82565b036116a15780516000908152600d60209081526040822090830151829061158f90611429565b8152602001908152602001600020604051806060016040529081600082015481526020016001820154815260200160028201805480602002602001604051908101604052809291908181526020016000905b828210156116525760008481526020908190206040805160c08101825260068602909201805483526001808201548486015260028201546001600160a01b03169284019290925260038101546060840152600481015460808401526005015460a083015290835290920191016115e1565b5050509152509091506002905061167183600001518360200151610ed1565b600381111561168257611682613a82565b1461169f57815161169290610c3a565b61169c9085613ed2565b93505b505b50806116ac81613eb9565b915050611459565b50919050565b6000818152600a602052604081205481036116e75760405162461bcd60e51b815260040161068e90613ff4565b60036116f283611cbc565b600481111561170357611703613a82565b1461175c5760405162461bcd60e51b8152602060048201526024808201527f4672616d6520646f6573206e6f742068617665206120636c6f73652072617465604482015263081cd95d60e21b606482015260840161068e565b6000828152600a602052604081206001015461177790611429565b6000848152600d60209081526040808320848452825280832081516060810183528154815260018201548185015260028201805484518187028101870186528181529798509596919592949386019391929091879084015b828210156118405760008481526020908190206040805160c08101825260068602909201805483526001808201548486015260028201546001600160a01b03169284019290925260038101546060840152600481015460808401526005015460a083015290835290920191016117cf565b50505050815250509050600061185585610c3a565b90506000670de0b6b3a7640000600254836118709190614035565b61187a9190614021565b6000878152600a6020526040902060058101829055600701549091506118a08284613f10565b6118aa9190613f10565b6000878152600a602052604090819020600601919091558301515115611a7957600754604084015180516001600160a01b039092169163a9059cbb91906118f390600190613f10565b8151811061190357611903613e8d565b602002602001015160400151600a60008a8152602001908152602001600020600601546040518363ffffffff1660e01b81526004016119579291906001600160a01b03929092168252602082015260400190565b6020604051808303816000875af1158015611976573d6000803e3d6000fd5b505050506040513d601f19601f8201168201806040525081019061199a9190613ef5565b50604083015180516119ae90600190613f10565b815181106119be576119be613e8d565b6020908102919091018101516040908101516000898152600a909352918190206003810180546001600160a01b0319166001600160a01b03948516179055600754600854600590920154925163a9059cbb60e01b81529184166004830152602482019290925291169063a9059cbb906044016020604051808303816000875af1158015611a4f573d6000803e3d6000fd5b505050506040513d601f19601f82011682018060405250810190611a739190613ef5565b50611b57565b6007546008546000888152600a6020526040902060058101546006909101546001600160a01b039384169363a9059cbb931691611ab591613ed2565b6040516001600160e01b031960e085901b1681526001600160a01b03909216600483015260248201526044016020604051808303816000875af1158015611b00573d6000803e3d6000fd5b505050506040513d601f19601f82011682018060405250810190611b249190613ef5565b506008546000878152600a6020526040902060030180546001600160a01b0319166001600160a01b039092169190911790555b7f906ff162b3f2709ab28fb678d43913964434148dd206e9b17adb3c1255090cb183604051611b869190613cf1565b60405180910390a16000868152600a60205260409081902090517f929af310c689982c60d4ec73c6e4b602e89c6f6a31da7c2df4888fb0627cb2b191611bcb91613f58565b60405180910390a150505060009283525050600a602052604090206006015490565b6004805460408051633850c7bd60e01b8152905160009384936001600160a01b031692633850c7bd928183019260e0928290030181865afa158015611c36573d6000803e3d6000fd5b505050506040513d601f19601f82011682018060405250810190611c5a919061405e565b50505050505090506000816001600160a01b031690506000600160601b82670de0b6b3a7640000611c8b9190614035565b611c959190614021565b9050670de0b6b3a7640000611caa8280614035565b611cb49190614021565b949350505050565b6000818152600a60205260408120548103611cd957506000919050565b6000828152600a60205260409020600301546001600160a01b031615611d0157506004919050565b60008054838252600a602052604090912054611d1d9190613ed2565b421015611d2c57506001919050565b6000828152600a602052604090206001015415611d4b57506003919050565b506002919050565b6008546001600160a01b03163314611dbe5760405162461bcd60e51b815260206004820152602860248201527f4f6e6c79206f776e65722063616e207769746864726177206163636f756e74696044820152673733903a37b5b2b760c11b606482015260840161068e565b60075460085460405163a9059cbb60e01b81526001600160a01b0391821660048201526024810184905291169063a9059cbb906044016020604051808303816000875af1158015611e13573d6000803e3d6000fd5b505050506040513d601f19601f82011682018060405250810190611e379190613ef5565b5050565b6000611e4685610ffe565b90506000611e5385611429565b6000838152600d6020908152604080832084845290915281206001015491925003611eab576000828152600a60205260408120549003611e9857611e9686612338565b505b611ea482828686612475565b50506109b3565b6000828152600d6020908152604080832084845290915290206002018054339190611ed890600190613f10565b81548110611ee857611ee8613e8d565b60009182526020909120600260069092020101546001600160a01b031603611f1657611ea482828686612785565b611f2282828686612c30565b6000828152600d602090815260408083208484529091529081902090517f906ff162b3f2709ab28fb678d43913964434148dd206e9b17adb3c1255090cb191611f6a916140f8565b60405180910390a1505050505050565b60004260005484611f8b9190613ed2565b11611fd85760405162461bcd60e51b815260206004820152601d60248201527f4672616d652068617320746f20626520696e2074686520667574757265000000604482015260640161068e565b60008054600654611fe99190614021565b905060004260005486611ffc9190613ed2565b6120069190613f10565b90506000670de0b6b3a76400008561201e8585614035565b6120289190614035565b6120329190614021565b9695505050505050565b6000828152600d602090815260408083208484528252808320600201805482518185028101850190935280835260609492939192909184015b828210156120e65760008481526020908190206040805160c08101825260068602909201805483526001808201548486015260028201546001600160a01b03169284019290925260038101546060840152600481015460808401526005015460a08301529083529092019101612075565b50505050905092915050565b60008060035483426121049190613f10565b61210e9190613ed2565b9050600061211c8442613f10565b6040805160028082526060820183529293506000929091602083019080368337019050509050828160008151811061215657612156613e8d565b602002602001019063ffffffff16908163ffffffff1681525050818160018151811061218457612184613e8d565b63ffffffff909216602092830291909101909101526004805460405163883bdbfd60e01b81526000926001600160a01b039092169163883bdbfd916121cb918691016141a6565b600060405180830381865afa1580156121e8573d6000803e3d6000fd5b505050506040513d6000823e601f3d908101601f191682016040526122109190810190614248565b50905060008160008151811061222857612228613e8d565b602002602001015160060b8260018151811061224657612246613e8d565b602002602001015160060b61225b9190614314565b905060008112156122a45760405162461bcd60e51b81526020600482015260136024820152724e65676174697665207469636b2064656c746160681b604482015260640161068e565b8060006122ba63ffffffff808816908916613f10565b905060006122c88284614021565b905060006122d5826131e2565b905060006122f366010000000000006001600160a01b038416614021565b905060006123018280614035565b90506000600160601b61231c83670de0b6b3a7640000614035565b6123269190614021565b9e9d5050505050505050505050505050565b60008061234483610ffe565b6000818152600a60205260409020549091501561239a5760405162461bcd60e51b81526020600482015260146024820152734672616d6520616c72656164792065786973747360601b604482015260640161068e565b42600054826123a99190613ed2565b10156123f75760405162461bcd60e51b815260206004820152601d60248201527f4672616d652068617320746f20626520696e2074686520667574757265000000604482015260640161068e565b6000818152600a602052604090819020828155600b8054600181019091557f0175b7a638427703f0dbe7bb9bbf987a2551717b34e79f33b5b1008d1fa01db90183905590517f929af310c689982c60d4ec73c6e4b602e89c6f6a31da7c2df4888fb0627cb2b19161246791613f58565b60405180910390a192915050565b60006124818584611f7a565b9050600081116124a35760405162461bcd60e51b815260040161068e90614334565b600754604051636eb1769f60e11b815233600482015230602482015282916001600160a01b03169063dd62ed3e90604401602060405180830381865afa1580156124f1573d6000803e3d6000fd5b505050506040513d601f19601f820116820180604052508101906125159190614391565b10156125335760405162461bcd60e51b815260040161068e906143aa565b6000858152600d60209081526040808320878452909152902060010154156125925760405162461bcd60e51b81526020600482015260126024820152714c6f7420616c72656164792065786973747360701b604482015260640161068e565b6040805160c081018252438152426020808301918252338385019081526060840188815260808501878152600060a087018181528d8252600d86528882208d835286529781208d815560018082018e90556002808301805480840182558186529885208b516006909a0201988955985191880191909155945194860180546001600160a01b0319166001600160a01b03909616959095179094559151600385015551600484015594516005909201919091559287905280549192918291829161265d919081906138d1565b5050506000878152600a602090815260408083206001808601546002909201805491820181558552929093209091019190915560075490516323b872dd60e01b81526001600160a01b03909116906323b872dd906126c3903390309088906004016143e1565b6020604051808303816000875af11580156126e2573d6000803e3d6000fd5b505050506040513d601f19601f820116820180604052508101906127069190613ef5565b50336000908152600c602052604090205460ff1661272757612727846135c5565b336000908152600c60205260408082205461010090046001600160a01b0316825290205460ff161561277c57336000908152600c602052604090205461277c9061010090046001600160a01b0316848961374e565b50505050505050565b6000848152600d60209081526040808320868452909152812060020180546127dc9187916127b590600190613f10565b815481106127c5576127c5613e8d565b906000526020600020906006020160030154611f7a565b905060006127ea8685611f7a565b9050808211156129f75760006128008284613f10565b6007546000898152600d602090815260408083208b8452909152902060020180549293506001600160a01b039091169163a9059cbb919061284390600190613f10565b8154811061285357612853613e8d565b600091825260209091206006909102016002015460405160e083901b6001600160e01b03191681526001600160a01b039091166004820152602481018490526044016020604051808303816000875af11580156128b4573d6000803e3d6000fd5b505050506040513d601f19601f820116820180604052508101906128d89190613ef5565b506000878152600d602090815260408083208984528252808320815160c0810183524381524281850190815233828501818152606084018d81526080850189815260a086018b81526002978801805460018082018355918d528b8d2098516006909102909801978855955195870195909555915195850180546001600160a01b0319166001600160a01b03909716969096179095559351600384015592516004830155516005909101558352600c90915290205460ff1661299c5761299c846135c5565b336000908152600c60205260408082205461010090046001600160a01b0316825290205460ff16156129f157336000908152600c60205260409020546129f19061010090046001600160a01b03168289613815565b50612c28565b6000612a038383613f10565b600754604051636eb1769f60e11b815233600482015230602482015291925082916001600160a01b039091169063dd62ed3e90604401602060405180830381865afa158015612a56573d6000803e3d6000fd5b505050506040513d601f19601f82011682018060405250810190612a7a9190614391565b1015612a985760405162461bcd60e51b815260040161068e906143aa565b6007546040516323b872dd60e01b81526001600160a01b03909116906323b872dd90612acc903390309086906004016143e1565b6020604051808303816000875af1158015612aeb573d6000803e3d6000fd5b505050506040513d601f19601f82011682018060405250810190612b0f9190613ef5565b506000878152600d602090815260408083208984528252808320815160c0810183524381524281850190815233828501818152606084018d8152608085018a815260a086018a81526002978801805460018082018355918d528b8d2098516006909102909801978855955195870195909555915195850180546001600160a01b0319166001600160a01b03909716969096179095559351600384015592516004830155516005909101558352600c90915290205460ff16612bd357612bd3846135c5565b336000908152600c60205260408082205461010090046001600160a01b0316825290205460ff161561277c57336000908152600c602052604090205461277c9061010090046001600160a01b0316828961374e565b505050505050565b6000848152600d6020908152604080832086845290915281206002018054612c5a90600190613f10565b81548110612c6a57612c6a613e8d565b600091825260208220600260069092020101546001600160a01b03169150612c928685611f7a565b905060008111612cb45760405162461bcd60e51b815260040161068e90614334565b6000868152600d6020908152604080832088845290915281206002018054612cde90600190613f10565b81548110612cee57612cee613e8d565b90600052602060002090600602016003015490508082612d0e9190613ed2565b600754604051636eb1769f60e11b81523360048201523060248201526001600160a01b039091169063dd62ed3e90604401602060405180830381865afa158015612d5c573d6000803e3d6000fd5b505050506040513d601f19601f82011682018060405250810190612d809190614391565b1015612d9e5760405162461bcd60e51b815260040161068e906143aa565b6007546040516323b872dd60e01b81526001600160a01b03909116906323b872dd90612dd2903390309087906004016143e1565b6020604051808303816000875af1158015612df1573d6000803e3d6000fd5b505050506040513d601f19601f82011682018060405250810190612e159190613ef5565b506007546040516323b872dd60e01b81526001600160a01b03909116906323b872dd90612e4a903390879086906004016143e1565b6020604051808303816000875af1158015612e69573d6000803e3d6000fd5b505050506040513d601f19601f82011682018060405250810190612e8d9190613ef5565b506000878152600d6020908152604080832089845290915281206002018054612ebe918a916127b590600190613f10565b60075460405163a9059cbb60e01b81526001600160a01b0387811660048301526024820184905292935091169063a9059cbb906044016020604051808303816000875af1158015612f13573d6000803e3d6000fd5b505050506040513d601f19601f82011682018060405250810190612f379190613ef5565b50336000908152600c602052604090205460ff16612f5857612f58856135c5565b336000908152600c60205260408082205461010090046001600160a01b0316825290205460ff1615612fad57336000908152600c6020526040902054612fad9061010090046001600160a01b0316848a61374e565b6001600160a01b038085166000908152600c60205260408082205461010090049092168152205460ff1615613008576001600160a01b038085166000908152600c60205260409020546130089161010090910416828a613815565b600d600089815260200190815260200160002060008881526020019081526020016000206002016040518060c00160405280438152602001428152602001866001600160a01b0316815260200184815260200160008152602001838152509080600181540180825580915050600190039060005260206000209060060201600090919091909150600082015181600001556020820151816001015560408201518160020160006101000a8154816001600160a01b0302191690836001600160a01b03160217905550606082015181600301556080820151816004015560a082015181600501555050600d600089815260200190815260200160002060008881526020019081526020016000206002016040518060c00160405280438152602001428152602001336001600160a01b0316815260200188815260200185815260200160008152509080600181540180825580915050600190039060005260206000209060060201600090919091909150600082015181600001556020820151816001015560408201518160020160006101000a8154816001600160a01b0302191690836001600160a01b03160217905550606082015181600301556080820151816004015560a0820151816005015550505050505050505050565b600081620d89e881111561321c5760405162461bcd60e51b81526020600482015260016024820152601560fa1b604482015260640161068e565b60008160011660000361323357600160801b613245565b6ffffcb933bd6fad37aa2d162d1a5940015b70ffffffffffffffffffffffffffffffffff169050600282161561328457608061327f826ffff97272373d413259a46990580e213a614035565b901c90505b60048216156132ae5760806132a9826ffff2e50f5f656932ef12357cf3c7fdcc614035565b901c90505b60088216156132d85760806132d3826fffe5caca7e10e4e61c3624eaa0941cd0614035565b901c90505b60108216156133025760806132fd826fffcb9843d60f6159c9db58835c926644614035565b901c90505b602082161561332c576080613327826fff973b41fa98c081472e6896dfb254c0614035565b901c90505b6040821615613356576080613351826fff2ea16466c96a3843ec78b326b52861614035565b901c90505b608082161561338057608061337b826ffe5dee046a99a2a811c461f1969c3053614035565b901c90505b6101008216156133ab5760806133a6826ffcbe86c7900a88aedcffc83b479aa3a4614035565b901c90505b6102008216156133d65760806133d1826ff987a7253ac413176f2b074cf7815e54614035565b901c90505b6104008216156134015760806133fc826ff3392b0822b70005940c7a398e4b70f3614035565b901c90505b61080082161561342c576080613427826fe7159475a2c29b7443b29c7fa6e889d9614035565b901c90505b611000821615613457576080613452826fd097f3bdfd2022b8845ad8f792aa5825614035565b901c90505b61200082161561348257608061347d826fa9f746462d870fdf8a65dc1f90e061e5614035565b901c90505b6140008216156134ad5760806134a8826f70d869a156d2a1b890bb3df62baf32f7614035565b901c90505b6180008216156134d85760806134d3826f31be135f97d08fd981231505542fcfa6614035565b901c90505b620100008216156135045760806134ff826f09aa508b5b7a84e1c677de54f3e99bc9614035565b901c90505b6202000082161561352f57608061352a826e5d6af8dedb81196699c329225ee604614035565b901c90505b62040000821615613559576080613554826d2216e584f5fa1ea926041bedfe98614035565b901c90505b6208000082161561358157608061357c826b048a170391f7dc42444e8fa2614035565b901c90505b83156135965761359381600019614021565b90505b6135a564010000000082613fe0565b156135b15760016135b4565b60005b611cb49060ff16602083901c613ed2565b336000908152600c602052604090205460ff161561361b5760405162461bcd60e51b81526020600482015260136024820152725573657220616c72656164792065786973747360681b604482015260640161068e565b336136685760405162461bcd60e51b815260206004820152601960248201527f526566657272616c206164647265737320697320656d70747900000000000000604482015260640161068e565b6001600160a01b0381166136ae57336000908152600c6020526040902080546001600160a01b0392909216610100026001600160a81b0319909216919091176001179055565b6001600160a01b0381166000908152600c602052604090205460ff166137165760405162461bcd60e51b815260206004820152601760248201527f526566657272657220646f6573206e6f74206578697374000000000000000000604482015260640161068e565b336000908152600c6020526040902080546001600160a01b0392909216610100026001600160a81b0319909216919091176001179055565b6001600160a01b0383166000908152600c602052604090205460ff166137865760405162461bcd60e51b815260040161068e90613e60565b6000670de0b6b3a76400006009548461379f9190614035565b6137a99190614021565b6001600160a01b0385166000908152600c602090815260408083208684526001019091528120805492935083929091906137e4908490613ed2565b90915550506000828152600a60205260408120600701805483929061380a908490613ed2565b909155505050505050565b6001600160a01b0383166000908152600c602052604090205460ff1661384d5760405162461bcd60e51b815260040161068e90613e60565b6000670de0b6b3a7640000600954846138669190614035565b6138709190614021565b6001600160a01b0385166000908152600c602090815260408083208684526001019091528120805492935083929091906138ab908490613f10565b90915550506000828152600a60205260408120600701805483929061380a908490613f10565b8280548282559060005260206000209060060281019282156139655760005260206000209160060282015b8281111561396557825482556001808401549083015560028084015490830180546001600160a01b0319166001600160a01b03909216919091179055600380840154908301556004808401549083015560058084015490830155600692830192909101906138fc565b50613971929150613975565b5090565b5b80821115613971576000808255600182018190556002820180546001600160a01b031916905560038201819055600482018190556005820155600601613976565b6000602082840312156139c957600080fd5b5035919050565b6020808252825182820181905260009190848201906040850190845b81811015613a08578351835292840192918401916001016139ec565b50909695505050505050565b6001600160a01b0381168114613a2957600080fd5b50565b8035613a3781613a14565b919050565b600060208284031215613a4e57600080fd5b8135613a5981613a14565b9392505050565b60008060408385031215613a7357600080fd5b50508035926020909101359150565b634e487b7160e01b600052602160045260246000fd5b6020810160048310613aac57613aac613a82565b91905290565b634e487b7160e01b600052604160045260246000fd5b604051610100810167ffffffffffffffff81118282101715613aec57613aec613ab2565b60405290565b604051601f8201601f1916810167ffffffffffffffff81118282101715613b1b57613b1b613ab2565b604052919050565b600067ffffffffffffffff821115613b3d57613b3d613ab2565b5060051b60200190565b600082601f830112613b5857600080fd5b81356020613b6d613b6883613b23565b613af2565b82815260059290921b84018101918181019086841115613b8c57600080fd5b8286015b84811015613ba75780358352918301918301613b90565b509695505050505050565b60008060408385031215613bc557600080fd5b823567ffffffffffffffff80821115613bdd57600080fd5b908401906101008287031215613bf257600080fd5b613bfa613ac8565b8235815260208301356020820152604083013582811115613c1a57600080fd5b613c2688828601613b47565b604083015250613c3860608401613a2c565b60608201526080830135608082015260a083013560a082015260c083013560c082015260e083013560e0820152809450505050602083013590509250929050565b600081518084526020808501945080840160005b83811015613ce65781518051885283810151848901526040808201516001600160a01b031690890152606080820151908901526080808201519089015260a0908101519088015260c09096019590820190600101613c8d565b509495945050505050565b60208152815160208201526020820151604082015260006040830151606080840152611cb46080840182613c79565b6000602080835261012083018451828501528185015160408501526040850151610100806060870152828251808552610140880191508584019450600093505b80841015613d805784518252938501936001939093019290850190613d60565b5060608801516001600160a01b03811660808901529450608088015160a088015260a088015160c088015260c088015160e088015260e088015182880152809550505050505092915050565b60008060408385031215613ddf57600080fd5b8235613dea81613a14565b946020939093013593505050565b6020810160058310613aac57613aac613a82565b60008060008060808587031215613e2257600080fd5b8435935060208501359250604085013591506060850135613e4281613a14565b939692955090935050565b602081526000613a596020830184613c79565b602080825260139082015272155cd95c88191bd95cc81b9bdd08195e1a5cdd606a1b604082015260600190565b634e487b7160e01b600052603260045260246000fd5b634e487b7160e01b600052601160045260246000fd5b600060018201613ecb57613ecb613ea3565b5060010190565b80820180821115610ff857610ff8613ea3565b80518015158114613a3757600080fd5b600060208284031215613f0757600080fd5b613a5982613ee5565b81810381811115610ff857610ff8613ea3565b6000815480845260208085019450836000528060002060005b83811015613ce657815487529582019560019182019101613f3c565b6020815281546020820152600182015460408201526000610100806060840152613f89610120840160028601613f23565b60038501546001600160a01b03166080850152600485015460a0850152600585015460c0850152600685015460e08501526007909401549201919091525090565b634e487b7160e01b600052601260045260246000fd5b600082613fef57613fef613fca565b500690565b602080825260139082015272119c985b5948191bd95cdb89dd08195e1a5cdd606a1b604082015260600190565b60008261403057614030613fca565b500490565b8082028115828204841417610ff857610ff8613ea3565b805161ffff81168114613a3757600080fd5b600080600080600080600060e0888a03121561407957600080fd5b875161408481613a14565b8097505060208801518060020b811461409c57600080fd5b95506140aa6040890161404c565b94506140b86060890161404c565b93506140c66080890161404c565b925060a088015160ff811681146140dc57600080fd5b91506140ea60c08901613ee5565b905092959891949750929550565b6000602080835260808084018554838601526001808701546040818189015260029150818901606080818b015285825480885260a09750878c0191508360005289600020935060005b818110156141945784548352878501548b840152868501546001600160a01b03168684015260038501548484015260048501548a84015260058501548984015260069094019360c0909201918701614141565b50909c9b505050505050505050505050565b6020808252825182820181905260009190848201906040850190845b81811015613a0857835163ffffffff16835292840192918401916001016141c2565b600082601f8301126141f557600080fd5b81516020614205613b6883613b23565b82815260059290921b8401810191818101908684111561422457600080fd5b8286015b84811015613ba757805161423b81613a14565b8352918301918301614228565b6000806040838503121561425b57600080fd5b825167ffffffffffffffff8082111561427357600080fd5b818501915085601f83011261428757600080fd5b81516020614297613b6883613b23565b82815260059290921b840181019181810190898411156142b657600080fd5b948201945b838610156142e45785518060060b81146142d55760008081fd5b825294820194908201906142bb565b918801519196509093505050808211156142fd57600080fd5b5061430a858286016141e4565b9150509250929050565b8181036000831280158383131683831282161715610e0057610e00613ea3565b6020808252603c908201527f5461782068617320746f2062652067726561746572207468616e20302e20496e60408201527f63726561736520746865206163717569736974696f6e20707269636500000000606082015260800190565b6000602082840312156143a357600080fd5b5051919050565b6020808252601e908201527f416c6c6f77616e636520746f207370656e642073657420746f6f206c6f770000604082015260600190565b6001600160a01b03938416815291909216602082015260408101919091526060019056fea2646970667358221220c337d5310ae32c2cebef08d2bcc77fb30045bf0a5e161105164f322c454af5fe64736f6c63430008140033",
  "linkReferences": {},
  "deployedLinkReferences": {}
}