{
  "_format": "hh-sol-artifact-1",
  "contractName": "Market",
  "sourceName": "contracts/Market.sol",
  "abi": [
    {
      "inputs": [],
      "stateMutability": "nonpayable",
      "type": "constructor"
    },
    {
      "anonymous": false,
      "inputs": [
        {
          "components": [
            {
              "internalType": "uint256",
              "name": "frameKey",
              "type": "uint256"
            },
            {
              "internalType": "uint256",
              "name": "rate",
              "type": "uint256"
            },
            {
              "internalType": "uint256[]",
              "name": "lotKeys",
              "type": "uint256[]"
            },
            {
              "internalType": "address",
              "name": "claimedBy",
              "type": "address"
            },
            {
              "internalType": "uint256",
              "name": "rateSettle",
              "type": "uint256"
            },
            {
              "internalType": "uint256",
              "name": "feeSettle",
              "type": "uint256"
            },
            {
              "internalType": "uint256",
              "name": "rewardSettle",
              "type": "uint256"
            }
          ],
          "indexed": false,
          "internalType": "struct Market.Frame",
          "name": "frame",
          "type": "tuple"
        }
      ],
      "name": "FrameUpdate",
      "type": "event"
    },
    {
      "anonymous": false,
      "inputs": [
        {
          "components": [
            {
              "internalType": "uint256",
              "name": "frameKey",
              "type": "uint256"
            },
            {
              "internalType": "uint256",
              "name": "lotKey",
              "type": "uint256"
            },
            {
              "components": [
                {
                  "internalType": "uint256",
                  "name": "blockNumber",
                  "type": "uint256"
                },
                {
                  "internalType": "uint256",
                  "name": "blockTimestamp",
                  "type": "uint256"
                },
                {
                  "internalType": "address",
                  "name": "owner",
                  "type": "address"
                },
                {
                  "internalType": "uint256",
                  "name": "acquisitionPrice",
                  "type": "uint256"
                },
                {
                  "internalType": "uint256",
                  "name": "taxCharged",
                  "type": "uint256"
                },
                {
                  "internalType": "uint256",
                  "name": "taxRefunded",
                  "type": "uint256"
                }
              ],
              "internalType": "struct Market.LotState[]",
              "name": "states",
              "type": "tuple[]"
            }
          ],
          "indexed": false,
          "internalType": "struct Market.Lot",
          "name": "lot",
          "type": "tuple"
        }
      ],
      "name": "LotUpdate",
      "type": "event"
    },
    {
      "inputs": [],
      "name": "accountingToken",
      "outputs": [
        {
          "internalType": "contract IERC20",
          "name": "",
          "type": "address"
        }
      ],
      "stateMutability": "view",
      "type": "function"
    },
    {
      "inputs": [
        {
          "internalType": "uint256",
          "name": "timestamp",
          "type": "uint256"
        }
      ],
      "name": "clcFrameKey",
      "outputs": [
        {
          "internalType": "uint256",
          "name": "",
          "type": "uint256"
        }
      ],
      "stateMutability": "view",
      "type": "function"
    },
    {
      "inputs": [
        {
          "internalType": "uint256",
          "name": "value",
          "type": "uint256"
        }
      ],
      "name": "clcLotKey",
      "outputs": [
        {
          "internalType": "uint256",
          "name": "",
          "type": "uint256"
        }
      ],
      "stateMutability": "view",
      "type": "function"
    },
    {
      "inputs": [],
      "name": "clcRate",
      "outputs": [
        {
          "internalType": "uint256",
          "name": "",
          "type": "uint256"
        }
      ],
      "stateMutability": "view",
      "type": "function"
    },
    {
      "inputs": [
        {
          "internalType": "uint256",
          "name": "timestamp",
          "type": "uint256"
        }
      ],
      "name": "clcRateAvg",
      "outputs": [
        {
          "internalType": "uint256",
          "name": "",
          "type": "uint256"
        }
      ],
      "stateMutability": "view",
      "type": "function"
    },
    {
      "inputs": [
        {
          "internalType": "uint256",
          "name": "frameKey",
          "type": "uint256"
        }
      ],
      "name": "clcRewardFund",
      "outputs": [
        {
          "internalType": "uint256",
          "name": "",
          "type": "uint256"
        }
      ],
      "stateMutability": "view",
      "type": "function"
    },
    {
      "inputs": [
        {
          "internalType": "uint256",
          "name": "frameKey",
          "type": "uint256"
        },
        {
          "internalType": "uint256",
          "name": "acquisitionPrice",
          "type": "uint256"
        }
      ],
      "name": "clcTax",
      "outputs": [
        {
          "internalType": "uint256",
          "name": "",
          "type": "uint256"
        }
      ],
      "stateMutability": "view",
      "type": "function"
    },
    {
      "inputs": [
        {
          "internalType": "uint256",
          "name": "frameKey",
          "type": "uint256"
        },
        {
          "internalType": "uint256",
          "name": "lotKey",
          "type": "uint256"
        }
      ],
      "name": "concatenate",
      "outputs": [
        {
          "internalType": "uint256",
          "name": "concatenated",
          "type": "uint256"
        }
      ],
      "stateMutability": "pure",
      "type": "function"
    },
    {
      "inputs": [],
      "name": "dPrice",
      "outputs": [
        {
          "internalType": "uint256",
          "name": "",
          "type": "uint256"
        }
      ],
      "stateMutability": "view",
      "type": "function"
    },
    {
      "inputs": [],
      "name": "feeProtocol",
      "outputs": [
        {
          "internalType": "uint256",
          "name": "",
          "type": "uint256"
        }
      ],
      "stateMutability": "view",
      "type": "function"
    },
    {
      "inputs": [
        {
          "internalType": "uint256",
          "name": "",
          "type": "uint256"
        }
      ],
      "name": "frames",
      "outputs": [
        {
          "internalType": "uint256",
          "name": "frameKey",
          "type": "uint256"
        },
        {
          "internalType": "uint256",
          "name": "rate",
          "type": "uint256"
        },
        {
          "internalType": "address",
          "name": "claimedBy",
          "type": "address"
        },
        {
          "internalType": "uint256",
          "name": "rateSettle",
          "type": "uint256"
        },
        {
          "internalType": "uint256",
          "name": "feeSettle",
          "type": "uint256"
        },
        {
          "internalType": "uint256",
          "name": "rewardSettle",
          "type": "uint256"
        }
      ],
      "stateMutability": "view",
      "type": "function"
    },
    {
      "inputs": [
        {
          "internalType": "uint256",
          "name": "",
          "type": "uint256"
        }
      ],
      "name": "framesKeys",
      "outputs": [
        {
          "internalType": "uint256",
          "name": "",
          "type": "uint256"
        }
      ],
      "stateMutability": "view",
      "type": "function"
    },
    {
      "inputs": [
        {
          "internalType": "uint256",
          "name": "frameKey",
          "type": "uint256"
        }
      ],
      "name": "getFrame",
      "outputs": [
        {
          "components": [
            {
              "internalType": "uint256",
              "name": "frameKey",
              "type": "uint256"
            },
            {
              "internalType": "uint256",
              "name": "rate",
              "type": "uint256"
            },
            {
              "internalType": "uint256[]",
              "name": "lotKeys",
              "type": "uint256[]"
            },
            {
              "internalType": "address",
              "name": "claimedBy",
              "type": "address"
            },
            {
              "internalType": "uint256",
              "name": "rateSettle",
              "type": "uint256"
            },
            {
              "internalType": "uint256",
              "name": "feeSettle",
              "type": "uint256"
            },
            {
              "internalType": "uint256",
              "name": "rewardSettle",
              "type": "uint256"
            }
          ],
          "internalType": "struct Market.Frame",
          "name": "",
          "type": "tuple"
        }
      ],
      "stateMutability": "view",
      "type": "function"
    },
    {
      "inputs": [
        {
          "internalType": "uint256",
          "name": "frameKey",
          "type": "uint256"
        }
      ],
      "name": "getFrameLotKeys",
      "outputs": [
        {
          "internalType": "uint256[]",
          "name": "",
          "type": "uint256[]"
        }
      ],
      "stateMutability": "view",
      "type": "function"
    },
    {
      "inputs": [],
      "name": "getFramesLength",
      "outputs": [
        {
          "internalType": "uint256",
          "name": "",
          "type": "uint256"
        }
      ],
      "stateMutability": "view",
      "type": "function"
    },
    {
      "inputs": [
        {
          "internalType": "uint256",
          "name": "frameKey",
          "type": "uint256"
        },
        {
          "internalType": "uint256",
          "name": "lotKey",
          "type": "uint256"
        }
      ],
      "name": "getLot",
      "outputs": [
        {
          "components": [
            {
              "internalType": "uint256",
              "name": "frameKey",
              "type": "uint256"
            },
            {
              "internalType": "uint256",
              "name": "lotKey",
              "type": "uint256"
            },
            {
              "components": [
                {
                  "internalType": "uint256",
                  "name": "blockNumber",
                  "type": "uint256"
                },
                {
                  "internalType": "uint256",
                  "name": "blockTimestamp",
                  "type": "uint256"
                },
                {
                  "internalType": "address",
                  "name": "owner",
                  "type": "address"
                },
                {
                  "internalType": "uint256",
                  "name": "acquisitionPrice",
                  "type": "uint256"
                },
                {
                  "internalType": "uint256",
                  "name": "taxCharged",
                  "type": "uint256"
                },
                {
                  "internalType": "uint256",
                  "name": "taxRefunded",
                  "type": "uint256"
                }
              ],
              "internalType": "struct Market.LotState[]",
              "name": "states",
              "type": "tuple[]"
            }
          ],
          "internalType": "struct Market.Lot",
          "name": "",
          "type": "tuple"
        }
      ],
      "stateMutability": "view",
      "type": "function"
    },
    {
      "inputs": [
        {
          "internalType": "uint256",
          "name": "frameKey",
          "type": "uint256"
        },
        {
          "internalType": "uint256",
          "name": "lotKey",
          "type": "uint256"
        }
      ],
      "name": "getLotStates",
      "outputs": [
        {
          "components": [
            {
              "internalType": "uint256",
              "name": "blockNumber",
              "type": "uint256"
            },
            {
              "internalType": "uint256",
              "name": "blockTimestamp",
              "type": "uint256"
            },
            {
              "internalType": "address",
              "name": "owner",
              "type": "address"
            },
            {
              "internalType": "uint256",
              "name": "acquisitionPrice",
              "type": "uint256"
            },
            {
              "internalType": "uint256",
              "name": "taxCharged",
              "type": "uint256"
            },
            {
              "internalType": "uint256",
              "name": "taxRefunded",
              "type": "uint256"
            }
          ],
          "internalType": "struct Market.LotState[]",
          "name": "",
          "type": "tuple[]"
        }
      ],
      "stateMutability": "view",
      "type": "function"
    },
    {
      "inputs": [],
      "name": "getLotsArray",
      "outputs": [
        {
          "internalType": "uint256[]",
          "name": "",
          "type": "uint256[]"
        }
      ],
      "stateMutability": "view",
      "type": "function"
    },
    {
      "inputs": [],
      "name": "getLotsArrayLength",
      "outputs": [
        {
          "internalType": "uint256",
          "name": "",
          "type": "uint256"
        }
      ],
      "stateMutability": "view",
      "type": "function"
    },
    {
      "inputs": [
        {
          "internalType": "uint256",
          "name": "frameKey",
          "type": "uint256"
        }
      ],
      "name": "getLotsKeysInFrame",
      "outputs": [
        {
          "internalType": "uint256[]",
          "name": "",
          "type": "uint256[]"
        }
      ],
      "stateMutability": "view",
      "type": "function"
    },
    {
      "inputs": [
        {
          "internalType": "uint256",
          "name": "frameKey",
          "type": "uint256"
        }
      ],
      "name": "getLotsLength",
      "outputs": [
        {
          "internalType": "uint256",
          "name": "",
          "type": "uint256"
        }
      ],
      "stateMutability": "view",
      "type": "function"
    },
    {
      "inputs": [
        {
          "internalType": "uint256",
          "name": "frameKey",
          "type": "uint256"
        }
      ],
      "name": "getStateFrame",
      "outputs": [
        {
          "internalType": "enum Market.SFrame",
          "name": "",
          "type": "uint8"
        }
      ],
      "stateMutability": "view",
      "type": "function"
    },
    {
      "inputs": [
        {
          "internalType": "uint256",
          "name": "frameKey",
          "type": "uint256"
        },
        {
          "internalType": "uint256",
          "name": "lotKey",
          "type": "uint256"
        }
      ],
      "name": "getStateLot",
      "outputs": [
        {
          "internalType": "enum Market.SLot",
          "name": "",
          "type": "uint8"
        }
      ],
      "stateMutability": "view",
      "type": "function"
    },
    {
      "inputs": [],
      "name": "initTimestamp",
      "outputs": [
        {
          "internalType": "uint256",
          "name": "",
          "type": "uint256"
        }
      ],
      "stateMutability": "view",
      "type": "function"
    },
    {
      "inputs": [
        {
          "internalType": "uint256",
          "name": "",
          "type": "uint256"
        },
        {
          "internalType": "uint256",
          "name": "",
          "type": "uint256"
        }
      ],
      "name": "lots",
      "outputs": [
        {
          "internalType": "uint256",
          "name": "frameKey",
          "type": "uint256"
        },
        {
          "internalType": "uint256",
          "name": "lotKey",
          "type": "uint256"
        }
      ],
      "stateMutability": "view",
      "type": "function"
    },
    {
      "inputs": [
        {
          "internalType": "uint256",
          "name": "",
          "type": "uint256"
        }
      ],
      "name": "lotsArray",
      "outputs": [
        {
          "internalType": "uint256",
          "name": "",
          "type": "uint256"
        }
      ],
      "stateMutability": "view",
      "type": "function"
    },
    {
      "inputs": [
        {
          "internalType": "uint256",
          "name": "frameKey",
          "type": "uint256"
        },
        {
          "internalType": "uint256",
          "name": "avgPrice",
          "type": "uint256"
        }
      ],
      "name": "overrideFrameRate",
      "outputs": [],
      "stateMutability": "nonpayable",
      "type": "function"
    },
    {
      "inputs": [],
      "name": "owner",
      "outputs": [
        {
          "internalType": "address",
          "name": "",
          "type": "address"
        }
      ],
      "stateMutability": "view",
      "type": "function"
    },
    {
      "inputs": [],
      "name": "period",
      "outputs": [
        {
          "internalType": "uint256",
          "name": "",
          "type": "uint256"
        }
      ],
      "stateMutability": "view",
      "type": "function"
    },
    {
      "inputs": [
        {
          "internalType": "uint256",
          "name": "frameKey",
          "type": "uint256"
        }
      ],
      "name": "setFrameRate",
      "outputs": [],
      "stateMutability": "nonpayable",
      "type": "function"
    },
    {
      "inputs": [
        {
          "internalType": "uint256",
          "name": "frameKey",
          "type": "uint256"
        }
      ],
      "name": "settleFrame",
      "outputs": [
        {
          "internalType": "uint256",
          "name": "",
          "type": "uint256"
        }
      ],
      "stateMutability": "nonpayable",
      "type": "function"
    },
    {
      "inputs": [],
      "name": "tSettle",
      "outputs": [
        {
          "internalType": "uint256",
          "name": "",
          "type": "uint256"
        }
      ],
      "stateMutability": "view",
      "type": "function"
    },
    {
      "inputs": [],
      "name": "taxMarket",
      "outputs": [
        {
          "internalType": "uint256",
          "name": "",
          "type": "uint256"
        }
      ],
      "stateMutability": "view",
      "type": "function"
    },
    {
      "inputs": [
        {
          "internalType": "uint256",
          "name": "timestamp",
          "type": "uint256"
        },
        {
          "internalType": "uint256",
          "name": "rate",
          "type": "uint256"
        },
        {
          "internalType": "uint256",
          "name": "acquisitionPrice",
          "type": "uint256"
        }
      ],
      "name": "tradeLot",
      "outputs": [],
      "stateMutability": "nonpayable",
      "type": "function"
    },
    {
      "inputs": [],
      "name": "uniswapPool",
      "outputs": [
        {
          "internalType": "contract IUniswapV3Pool",
          "name": "",
          "type": "address"
        }
      ],
      "stateMutability": "view",
      "type": "function"
    },
    {
      "inputs": [
        {
          "internalType": "uint256",
          "name": "amount",
          "type": "uint256"
        }
      ],
      "name": "withdrawAccountingToken",
      "outputs": [],
      "stateMutability": "nonpayable",
      "type": "function"
    }
  ],
  "bytecode": "0x608060405262015180600055636592e180600155666a94d74f430000600255610258600355600480546001600160a01b03199081167367a9fe12fa6082d9d0203c84c6c56d3c4b269f281790915568056bc75e2d63100000600555662386f26fc1000060065560078054909116738f3cf7ad23cd3cadbd9735aff958023239c6a06317905534801561009057600080fd5b50600880546001600160a01b03191633179055613573806100b26000396000f3fe608060405234801561001057600080fd5b506004361061021c5760003560e01c80638edc6a2c11610125578063bdd3d825116100ad578063e107fb4f1161007c578063e107fb4f1461052f578063ed320aa814610542578063ef78d4fd1461054a578063fb0d5e0914610553578063ffdabe2d1461057357600080fd5b8063bdd3d825146104ee578063c0423f2e14610501578063d18743dd14610509578063da68cf8b1461051c57600080fd5b8063b866debb116100f4578063b866debb14610459578063b93dafa91461046c578063ba4e137f146104b3578063ba52f342146104bb578063bad12653146104ce57600080fd5b80638edc6a2c146103885780639592de18146103ab578063a10340bc146103be578063a73482f61461044657600080fd5b8063527eb4bc116101a85780637358c57a116101775780637358c57a14610322578063773d51eb1461032b5780637e9966391461034b5780638a5779c8146103545780638da5cb5b1461035d57600080fd5b8063527eb4bc146102d357806361eee2cb146102dc57806364772f21146102ef5780636f1aefc31461030257600080fd5b80632457e620116101ef5780632457e6201461024757806339a6a489146102845780633baf158714610297578063499a0fc4146102aa5780634c73884f146102b357600080fd5b8063050e8840146102215780630d0a1c1a1461024757806318d13d8714610267578063197c4e781461027c575b600080fd5b61023461022f366004612ccc565b610586565b6040519081526020015b60405180910390f35b61025a610255366004612ccc565b6105a7565b60405161023e9190612ce5565b61027a610275366004612d29565b61060c565b005b600c54610234565b610234610292366004612ccc565b61072b565b61027a6102a5366004612ccc565b6108f8565b61023460055481565b6102c66102c1366004612d29565b6109c2565b60405161023e9190612d61565b61023460025481565b6102346102ea366004612ccc565b610aef565b61027a6102fd366004612d7b565b610b26565b610315610310366004612d29565b610c5f565b60405161023e9190612dec565b61023460015481565b61033e610339366004612ccc565b610db6565b60405161023e9190612e57565b61023460065481565b61023460035481565b600854610370906001600160a01b031681565b6040516001600160a01b03909116815260200161023e565b610234610396366004612ccc565b60009081526009602052604090206002015490565b6102346103b9366004612ccc565b610edf565b61040b6103cc366004612ccc565b600960205260009081526040902080546001820154600383015460048401546005850154600690950154939492936001600160a01b0390921692909186565b6040805196875260208701959095526001600160a01b03909316938501939093526060840152608083019190915260a082015260c00161023e565b610234610454366004612d29565b610f0a565b610234610467366004612ccc565b610f2e565b61049e61047a366004612d29565b600b6020908152600092835260408084209091529082529020805460019091015482565b6040805192835260208301919091520161023e565b61023461146b565b6102346104c9366004612ccc565b61153a565b6104e16104dc366004612ccc565b61154a565b60405161023e9190612ef7565b600454610370906001600160a01b031681565b61025a6115e1565b61027a610517366004612ccc565b611639565b600754610370906001600160a01b031681565b61023461053d366004612d29565b611721565b600a54610234565b61023460005481565b610566610561366004612d29565b6117e3565b60405161023e9190612f0b565b610234610581366004612ccc565b611899565b600a818154811061059657600080fd5b600091825260209091200154905081565b60008181526009602090815260409182902060020180548351818402810184019094528084526060939283018282801561060057602002820191906000526020600020905b8154815260200190600101908083116105ec575b50505050509050919050565b6008546001600160a01b0316331461067b5760405162461bcd60e51b815260206004820152602760248201527f4f6e6c79206f776e65722063616e20757064617465206672616d6520636c6f736044820152666520707269636560c81b60648201526084015b60405180910390fd5b60008281526009602052604081205490036106a85760405162461bcd60e51b815260040161067290612f48565b6000828152600960205260409020600301546001600160a01b0316156107105760405162461bcd60e51b815260206004820181905260248201527f4672616d65207265776172642077617320616c726561647920636c61696d65646044820152606401610672565b60009182526009602052604080832054835290912060010155565b600080805b6000848152600960205260409020600201548110156108f157600084815260096020818152604080842080548552600b83529084208885529290915260020180548391908590811061078457610784612f75565b90600052602060002001548152602001908152602001600020604051806060016040529081600082015481526020016001820154815260200160028201805480602002602001604051908101604052809291908181526020016000905b828210156108525760008481526020908190206040805160c08101825260068602909201805483526001808201548486015260028201546001600160a01b03169284019290925260038101546060840152600481015460808401526005015460a083015290835290920191016107e1565b5050505081525050905060005b8160400151518110156108dc578160400151818151811061088257610882612f75565b602002602001015160800151846108999190612fa1565b9350816040015181815181106108b1576108b1612f75565b602002602001015160a00151846108c89190612fb4565b9350806108d481612fc7565b91505061085f565b505080806108e990612fc7565b915050610730565b5092915050565b600080548282526009602052604090912054429161091591612fa1565b11156109635760405162461bcd60e51b815260206004820152601b60248201527f4672616d652068617320746f20626520696e20746865207061737400000000006044820152606401610672565b600061096e82611899565b600083815260096020526040908190206001810183905590519192507f861dcb88c2eea524dd3c4d2026fc29c39249f4d090843bcc78037879d296c452916109b69190612fe0565b60405180910390a15050565b6000828152600b6020908152604080832084845290915281206001015481036109ed57506000610ae9565b60006109f88461154a565b6004811115610a0957610a09612d4b565b03610a1657506000610ae9565b6001610a218461154a565b6004811115610a3257610a32612d4b565b1480610a5757506002610a448461154a565b6004811115610a5557610a55612d4b565b145b15610a6457506001610ae9565b6000838152600b602090815260408083208584528252808320600190810154878552600990935292209091015410801590610ad857506005546000848152600b60209081526040808320868452909152902060010154610ac49190612fa1565b600084815260096020526040902060010154105b15610ae557506002610ae9565b5060035b92915050565b60006001548211610b0257505060015490565b600054600154610b129084612fb4565b610b1c9190613094565b610ae99083612fb4565b6000610b3184610aef565b90506000610b3e84610edf565b6000838152600b6020908152604080832084845290915281206001015491925003610b93576000828152600960205260408120549003610b8357610b8185611adf565b505b610b8e828285611c1c565b610c08565b6000828152600b6020908152604080832084845290915290206002018054339190610bc090600190612fb4565b81548110610bd057610bd0612f75565b60009182526020909120600260069092020101546001600160a01b031603610bfd57610b8e828285611f55565b610c08828285612322565b6000828152600b602090815260408083208484529091529081902090517f906ff162b3f2709ab28fb678d43913964434148dd206e9b17adb3c1255090cb191610c50916130a8565b60405180910390a15050505050565b610c8360405180606001604052806000815260200160008152602001606081525090565b6000838152600b602090815260408083208584529091528120600101549003610ce25760405162461bcd60e51b8152602060048201526011602482015270131bdd08191bd95cdb89dd08195e1a5cdd607a1b6044820152606401610672565b6000838152600b602090815260408083208584528252808320815160608101835281548152600182015481850152600282018054845181870281018701865281815292969395948701949293919290919084015b82821015610da75760008481526020908190206040805160c08101825260068602909201805483526001808201548486015260028201546001600160a01b03169284019290925260038101546060840152600481015460808401526005015460a08301529083529092019101610d36565b50505091525090949350505050565b610dff6040518060e0016040528060008152602001600081526020016060815260200160006001600160a01b031681526020016000815260200160008152602001600081525090565b6000828152600960205260408120549003610e2c5760405162461bcd60e51b815260040161067290612f48565b600082815260096020908152604091829020825160e0810184528154815260018201548184015260028201805485518186028101860187528181529295939493860193830182828015610e9e57602002820191906000526020600020905b815481526020019060010190808311610e8a575b505050918352505060038201546001600160a01b03166020820152600482015460408201526005820154606082015260069091015460809091015292915050565b6000600554821015610ef357505060055490565b600554610f008184613156565b610ae9919061316a565b6000610f1b826402540be40061316a565b9150610f278383612fa1565b9392505050565b6000818152600960205260408120548103610f5b5760405162461bcd60e51b815260040161067290612f48565b6003610f668361154a565b6004811115610f7757610f77612d4b565b14610fd05760405162461bcd60e51b8152602060048201526024808201527f4672616d6520646f6573206e6f742068617665206120636c6f73652072617465604482015263081cd95d60e21b6064820152608401610672565b600082815260096020526040812060010154610feb90610edf565b6000848152600b60209081526040808320848452825280832081516060810183528154815260018201548185015260028201805484518187028101870186528181529798509596919592949386019391929091879084015b828210156110b45760008481526020908190206040805160c08101825260068602909201805483526001808201548486015260028201546001600160a01b03169284019290925260038101546060840152600481015460808401526005015460a08301529083529092019101611043565b5050505081525050905060006110c98561072b565b90506000670de0b6b3a7640000600254836110e4919061316a565b6110ee9190613156565b6000878152600960205260409020600501819055905061110e8183612fb4565b600087815260096020526040908190206006019190915583015151156112dd57600754604084015180516001600160a01b039092169163a9059cbb919061115790600190612fb4565b8151811061116757611167612f75565b602002602001015160400151600960008a8152602001908152602001600020600601546040518363ffffffff1660e01b81526004016111bb9291906001600160a01b03929092168252602082015260400190565b6020604051808303816000875af11580156111da573d6000803e3d6000fd5b505050506040513d601f19601f820116820180604052508101906111fe9190613196565b506040830151805161121290600190612fb4565b8151811061122257611222612f75565b60209081029190910181015160409081015160008981526009909352918190206003810180546001600160a01b0319166001600160a01b03948516179055600754600854600590920154925163a9059cbb60e01b81529184166004830152602482019290925291169063a9059cbb906044016020604051808303816000875af11580156112b3573d6000803e3d6000fd5b505050506040513d601f19601f820116820180604052508101906112d79190613196565b506113bb565b600754600854600088815260096020526040902060058101546006909101546001600160a01b039384169363a9059cbb93169161131991612fa1565b6040516001600160e01b031960e085901b1681526001600160a01b03909216600483015260248201526044016020604051808303816000875af1158015611364573d6000803e3d6000fd5b505050506040513d601f19601f820116820180604052508101906113889190613196565b50600854600087815260096020526040902060030180546001600160a01b0319166001600160a01b039092169190911790555b600086815260096020526040908190206001810154600490910155517f906ff162b3f2709ab28fb678d43913964434148dd206e9b17adb3c1255090cb190611404908590612dec565b60405180910390a16000868152600960205260409081902090517f861dcb88c2eea524dd3c4d2026fc29c39249f4d090843bcc78037879d296c4529161144991612fe0565b60405180910390a1505050600092835250506009602052604090206006015490565b6004805460408051633850c7bd60e01b8152905160009384936001600160a01b031692633850c7bd928183019260e0928290030181865afa1580156114b4573d6000803e3d6000fd5b505050506040513d601f19601f820116820180604052508101906114d891906131da565b50505050505090506000816001600160a01b031690506000600160601b82670de0b6b3a7640000611509919061316a565b6115139190613156565b9050670de0b6b3a7640000611528828061316a565b6115329190613156565b949350505050565b600c818154811061059657600080fd5b600081815260096020526040812054810361156757506000919050565b6000828152600960205260409020600301546001600160a01b03161561158f57506004919050565b6000805483825260096020526040909120546115ab9190612fa1565b4210156115ba57506001919050565b600082815260096020526040902060010154156115d957506003919050565b506002919050565b6060600c80548060200260200160405190810160405280929190818152602001828054801561162f57602002820191906000526020600020905b81548152602001906001019080831161161b575b5050505050905090565b6008546001600160a01b031633146116a45760405162461bcd60e51b815260206004820152602860248201527f4f6e6c79206f776e65722063616e207769746864726177206163636f756e74696044820152673733903a37b5b2b760c11b6064820152608401610672565b60075460085460405163a9059cbb60e01b81526001600160a01b0391821660048201526024810184905291169063a9059cbb906044016020604051808303816000875af11580156116f9573d6000803e3d6000fd5b505050506040513d601f19601f8201168201806040525081019061171d9190613196565b5050565b600042600054846117329190612fa1565b1161177f5760405162461bcd60e51b815260206004820152601d60248201527f4672616d652068617320746f20626520696e20746865206675747572650000006044820152606401610672565b600080546006546117909190613156565b9050600042600054866117a39190612fa1565b6117ad9190612fb4565b90506000670de0b6b3a7640000856117c5858561316a565b6117cf919061316a565b6117d99190613156565b9695505050505050565b6000828152600b602090815260408083208484528252808320600201805482518185028101850190935280835260609492939192909184015b8282101561188d5760008481526020908190206040805160c08101825260068602909201805483526001808201548486015260028201546001600160a01b03169284019290925260038101546060840152600481015460808401526005015460a0830152908352909201910161181c565b50505050905092915050565b60008060035483426118ab9190612fb4565b6118b59190612fa1565b905060006118c38442612fb4565b604080516002808252606082018352929350600092909160208301908036833701905050905082816000815181106118fd576118fd612f75565b602002602001019063ffffffff16908163ffffffff1681525050818160018151811061192b5761192b612f75565b63ffffffff909216602092830291909101909101526004805460405163883bdbfd60e01b81526000926001600160a01b039092169163883bdbfd9161197291869101613286565b600060405180830381865afa15801561198f573d6000803e3d6000fd5b505050506040513d6000823e601f3d908101601f191682016040526119b79190810190613380565b5090506000816000815181106119cf576119cf612f75565b602002602001015160060b826001815181106119ed576119ed612f75565b602002602001015160060b611a02919061344c565b90506000811215611a4b5760405162461bcd60e51b81526020600482015260136024820152724e65676174697665207469636b2064656c746160681b6044820152606401610672565b806000611a6163ffffffff808816908916612fb4565b90506000611a6f8284613156565b90506000611a7c82612803565b90506000611a9a66010000000000006001600160a01b038416613156565b90506000611aa8828061316a565b90506000600160601b611ac383670de0b6b3a764000061316a565b611acd9190613156565b9e9d5050505050505050505050505050565b600080611aeb83610aef565b60008181526009602052604090205490915015611b415760405162461bcd60e51b81526020600482015260146024820152734672616d6520616c72656164792065786973747360601b6044820152606401610672565b4260005482611b509190612fa1565b1015611b9e5760405162461bcd60e51b815260206004820152601d60248201527f4672616d652068617320746f20626520696e20746865206675747572650000006044820152606401610672565b60008181526009602052604090819020828155600a8054600181019091557fc65a7bb8d6351c1cf70c95a316cc6a92839c986682d98bc35f958f4883f9d2a80183905590517f861dcb88c2eea524dd3c4d2026fc29c39249f4d090843bcc78037879d296c45291611c0e91612fe0565b60405180910390a192915050565b6000611c288483611721565b905060008111611c4a5760405162461bcd60e51b81526004016106729061346c565b600754604051636eb1769f60e11b815233600482015230602482015282916001600160a01b03169063dd62ed3e90604401602060405180830381865afa158015611c98573d6000803e3d6000fd5b505050506040513d601f19601f82011682018060405250810190611cbc91906134c9565b1015611cda5760405162461bcd60e51b8152600401610672906134e2565b7f161bcca7119915b50764b4abe86529797775a5f17195100000000000000000008310611d3b5760405162461bcd60e51b815260206004820152600f60248201526e4c6f74206b657920746f6f2062696760881b6044820152606401610672565b6000848152600b6020908152604080832086845290915290206001015415611d9a5760405162461bcd60e51b81526020600482015260126024820152714c6f7420616c72656164792065786973747360701b6044820152606401610672565b6040805160c081018252438152426020808301918252338385019081526060840187815260808501878152600060a087018181528c8252600b86528882208c835286529781208c815560018082018d90556002808301805480840182558186529885208b516006909a0201988955985191880191909155945194860180546001600160a01b0319166001600160a01b039096169590951790945591516003850155516004840155945160059092019190915592869052805491929182918291611e6591908190612be6565b509050506000611e758787610f0a565b600c805460018181019092557fdf6966c971051c3d54ec59162606531493a51404a002842f56009d7e5cf4a8c7018290556000898152600960209081526040808320878501546002909101805495860181558452919092209092019190915560075490516323b872dd60e01b81529192506001600160a01b0316906323b872dd90611f0890339030908990600401613519565b6020604051808303816000875af1158015611f27573d6000803e3d6000fd5b505050506040513d601f19601f82011682018060405250810190611f4b9190613196565b5050505050505050565b6000838152600b6020908152604080832085845290915281206002018054611fac918691611f8590600190612fb4565b81548110611f9557611f95612f75565b906000526020600020906006020160030154611721565b90506000611fba8584611721565b905080821115612158576000611fd08284612fb4565b6007546000888152600b602090815260408083208a8452909152902060020180549293506001600160a01b039091169163a9059cbb919061201390600190612fb4565b8154811061202357612023612f75565b600091825260209091206006909102016002015460405160e083901b6001600160e01b03191681526001600160a01b039091166004820152602481018490526044016020604051808303816000875af1158015612084573d6000803e3d6000fd5b505050506040513d601f19601f820116820180604052508101906120a89190613196565b506000868152600b602090815260408083208884528252808320815160c0810183524381524281850190815233938201938452606082018a81526080830187815260a084019889526002948501805460018082018355918a529790982093516006909702909301958655905195850195909555915190830180546001600160a01b0319166001600160a01b039092169190911790559151600382015590516004820155905160059091015561231b565b60006121648383612fb4565b600754604051636eb1769f60e11b815233600482015230602482015291925082916001600160a01b039091169063dd62ed3e90604401602060405180830381865afa1580156121b7573d6000803e3d6000fd5b505050506040513d601f19601f820116820180604052508101906121db91906134c9565b10156121f95760405162461bcd60e51b8152600401610672906134e2565b6007546040516323b872dd60e01b81526001600160a01b03909116906323b872dd9061222d90339030908690600401613519565b6020604051808303816000875af115801561224c573d6000803e3d6000fd5b505050506040513d601f19601f820116820180604052508101906122709190613196565b506000868152600b602090815260408083208884528252808320815160c0810183524381524281850190815233938201938452606082018a81526080830197885260a083018781526002948501805460018082018355918a529790982093516006909702909301958655905195850195909555915190830180546001600160a01b0319166001600160a01b039092169190911790559151600382015591516004830155516005909101555b5050505050565b6000838152600b602090815260408083208584529091528120600201805461234c90600190612fb4565b8154811061235c5761235c612f75565b600091825260208220600260069092020101546001600160a01b031691506123848584611721565b9050600081116123a65760405162461bcd60e51b81526004016106729061346c565b6000858152600b60209081526040808320878452909152812060020180546123d090600190612fb4565b815481106123e0576123e0612f75565b906000526020600020906006020160030154905080826124009190612fa1565b600754604051636eb1769f60e11b81523360048201523060248201526001600160a01b039091169063dd62ed3e90604401602060405180830381865afa15801561244e573d6000803e3d6000fd5b505050506040513d601f19601f8201168201806040525081019061247291906134c9565b10156124905760405162461bcd60e51b8152600401610672906134e2565b6007546040516323b872dd60e01b81526001600160a01b03909116906323b872dd906124c490339030908790600401613519565b6020604051808303816000875af11580156124e3573d6000803e3d6000fd5b505050506040513d601f19601f820116820180604052508101906125079190613196565b506007546040516323b872dd60e01b81526001600160a01b03909116906323b872dd9061253c90339087908690600401613519565b6020604051808303816000875af115801561255b573d6000803e3d6000fd5b505050506040513d601f19601f8201168201806040525081019061257f9190613196565b506000868152600b60209081526040808320888452909152812060020180546125b0918991611f8590600190612fb4565b60075460405163a9059cbb60e01b81526001600160a01b0387811660048301526024820184905292935091169063a9059cbb906044016020604051808303816000875af1158015612605573d6000803e3d6000fd5b505050506040513d601f19601f820116820180604052508101906126299190613196565b50600b600088815260200190815260200160002060008781526020019081526020016000206002016040518060c00160405280438152602001428152602001866001600160a01b0316815260200184815260200160008152602001838152509080600181540180825580915050600190039060005260206000209060060201600090919091909150600082015181600001556020820151816001015560408201518160020160006101000a8154816001600160a01b0302191690836001600160a01b03160217905550606082015181600301556080820151816004015560a082015181600501555050600b600088815260200190815260200160002060008781526020019081526020016000206002016040518060c00160405280438152602001428152602001336001600160a01b0316815260200187815260200185815260200160008152509080600181540180825580915050600190039060005260206000209060060201600090919091909150600082015181600001556020820151816001015560408201518160020160006101000a8154816001600160a01b0302191690836001600160a01b03160217905550606082015181600301556080820151816004015560a08201518160050155505050505050505050565b600081620d89e881111561283d5760405162461bcd60e51b81526020600482015260016024820152601560fa1b6044820152606401610672565b60008160011660000361285457600160801b612866565b6ffffcb933bd6fad37aa2d162d1a5940015b70ffffffffffffffffffffffffffffffffff16905060028216156128a55760806128a0826ffff97272373d413259a46990580e213a61316a565b901c90505b60048216156128cf5760806128ca826ffff2e50f5f656932ef12357cf3c7fdcc61316a565b901c90505b60088216156128f95760806128f4826fffe5caca7e10e4e61c3624eaa0941cd061316a565b901c90505b601082161561292357608061291e826fffcb9843d60f6159c9db58835c92664461316a565b901c90505b602082161561294d576080612948826fff973b41fa98c081472e6896dfb254c061316a565b901c90505b6040821615612977576080612972826fff2ea16466c96a3843ec78b326b5286161316a565b901c90505b60808216156129a157608061299c826ffe5dee046a99a2a811c461f1969c305361316a565b901c90505b6101008216156129cc5760806129c7826ffcbe86c7900a88aedcffc83b479aa3a461316a565b901c90505b6102008216156129f75760806129f2826ff987a7253ac413176f2b074cf7815e5461316a565b901c90505b610400821615612a22576080612a1d826ff3392b0822b70005940c7a398e4b70f361316a565b901c90505b610800821615612a4d576080612a48826fe7159475a2c29b7443b29c7fa6e889d961316a565b901c90505b611000821615612a78576080612a73826fd097f3bdfd2022b8845ad8f792aa582561316a565b901c90505b612000821615612aa3576080612a9e826fa9f746462d870fdf8a65dc1f90e061e561316a565b901c90505b614000821615612ace576080612ac9826f70d869a156d2a1b890bb3df62baf32f761316a565b901c90505b618000821615612af9576080612af4826f31be135f97d08fd981231505542fcfa661316a565b901c90505b62010000821615612b25576080612b20826f09aa508b5b7a84e1c677de54f3e99bc961316a565b901c90505b62020000821615612b50576080612b4b826e5d6af8dedb81196699c329225ee60461316a565b901c90505b62040000821615612b7a576080612b75826d2216e584f5fa1ea926041bedfe9861316a565b901c90505b62080000821615612ba2576080612b9d826b048a170391f7dc42444e8fa261316a565b901c90505b8315612bb757612bb481600019613156565b90505b612bc664010000000082613094565b15612bd2576001612bd5565b60005b6115329060ff16602083901c612fa1565b828054828255906000526020600020906006028101928215612c7a5760005260206000209160060282015b82811115612c7a57825482556001808401549083015560028084015490830180546001600160a01b0319166001600160a01b0390921691909117905560038084015490830155600480840154908301556005808401549083015560069283019290910190612c11565b50612c86929150612c8a565b5090565b5b80821115612c86576000808255600182018190556002820180546001600160a01b031916905560038201819055600482018190556005820155600601612c8b565b600060208284031215612cde57600080fd5b5035919050565b6020808252825182820181905260009190848201906040850190845b81811015612d1d57835183529284019291840191600101612d01565b50909695505050505050565b60008060408385031215612d3c57600080fd5b50508035926020909101359150565b634e487b7160e01b600052602160045260246000fd5b6020810160048310612d7557612d75612d4b565b91905290565b600080600060608486031215612d9057600080fd5b505081359360208301359350604090920135919050565b80518252602080820151908301526040808201516001600160a01b031690830152606080820151908301526080808201519083015260a0908101519082015260c00190565b6000602080835260808301845182850152818501516040850152604085015160608086015281815180845260a0870191508483019350600092505b80831015612e4c57612e3a828551612da7565b91508484019350600183019250612e27565b509695505050505050565b600060208083526101008301845182850152818501516040850152604085015160e06060860152818151808452610120870191508483019350600092505b80831015612eb55783518252928401926001929092019190840190612e95565b5060608701516001600160a01b03811660808801529350608087015160a087015260a087015160c087015260c087015160e08701528094505050505092915050565b6020810160058310612d7557612d75612d4b565b6020808252825182820181905260009190848201906040850190845b81811015612d1d57612f3a838551612da7565b938501939250600101612f27565b602080825260139082015272119c985b5948191bd95cdb89dd08195e1a5cdd606a1b604082015260600190565b634e487b7160e01b600052603260045260246000fd5b634e487b7160e01b600052601160045260246000fd5b80820180821115610ae957610ae9612f8b565b81810381811115610ae957610ae9612f8b565b600060018201612fd957612fd9612f8b565b5060010190565b6020808252825482820152600180840154604084015260e06060840152600284018054610100850181905260009182528382209193929084906101208701905b8083101561303d5784548252938301939183019190850190613020565b5060038801546001600160a01b03166080880152600488015460a0880152600588015460c088015260069097015460e0909601959095525093949350505050565b634e487b7160e01b600052601260045260246000fd5b6000826130a3576130a361307e565b500690565b6000602080835260808084018554838601526001808701546040818189015260029150818901606080818b015285825480885260a09750878c0191508360005289600020935060005b818110156131445784548352878501548b840152868501546001600160a01b03168684015260038501548484015260048501548a84015260058501548984015260069094019360c09092019187016130f1565b50909c9b505050505050505050505050565b6000826131655761316561307e565b500490565b8082028115828204841417610ae957610ae9612f8b565b8051801515811461319157600080fd5b919050565b6000602082840312156131a857600080fd5b610f2782613181565b80516001600160a01b038116811461319157600080fd5b805161ffff8116811461319157600080fd5b600080600080600080600060e0888a0312156131f557600080fd5b6131fe886131b1565b965060208801518060020b811461321457600080fd5b9550613222604089016131c8565b9450613230606089016131c8565b935061323e608089016131c8565b925060a088015160ff8116811461325457600080fd5b915061326260c08901613181565b905092959891949750929550565b634e487b7160e01b600052604160045260246000fd5b6020808252825182820181905260009190848201906040850190845b81811015612d1d57835163ffffffff16835292840192918401916001016132a2565b604051601f8201601f1916810167ffffffffffffffff811182821017156132ed576132ed613270565b604052919050565b600067ffffffffffffffff82111561330f5761330f613270565b5060051b60200190565b600082601f83011261332a57600080fd5b8151602061333f61333a836132f5565b6132c4565b82815260059290921b8401810191818101908684111561335e57600080fd5b8286015b84811015612e4c57613373816131b1565b8352918301918301613362565b6000806040838503121561339357600080fd5b825167ffffffffffffffff808211156133ab57600080fd5b818501915085601f8301126133bf57600080fd5b815160206133cf61333a836132f5565b82815260059290921b840181019181810190898411156133ee57600080fd5b948201945b8386101561341c5785518060060b811461340d5760008081fd5b825294820194908201906133f3565b9188015191965090935050508082111561343557600080fd5b5061344285828601613319565b9150509250929050565b81810360008312801583831316838312821617156108f1576108f1612f8b565b6020808252603c908201527f5461782068617320746f2062652067726561746572207468616e20302e20496e60408201527f63726561736520746865206163717569736974696f6e20707269636500000000606082015260800190565b6000602082840312156134db57600080fd5b5051919050565b6020808252601e908201527f416c6c6f77616e636520746f207370656e642073657420746f6f206c6f770000604082015260600190565b6001600160a01b03938416815291909216602082015260408101919091526060019056fea264697066735822122049bb8ee43dbc59ac7ceec2e72d6be234164f93be6072a95a6408dbf560b63d8d64736f6c63430008140033",
  "linkReferences": {},
  "deployedLinkReferences": {}
}