{
  "_format": "hh-sol-artifact-1",
  "contractName": "Market",
  "sourceName": "contracts/Market.sol",
  "abi": [
    {
      "inputs": [],
      "stateMutability": "nonpayable",
      "type": "constructor"
    },
    {
      "anonymous": false,
      "inputs": [
        {
          "components": [
            {
              "internalType": "uint256",
              "name": "frameKey",
              "type": "uint256"
            },
            {
              "internalType": "uint256",
              "name": "rate",
              "type": "uint256"
            },
            {
              "internalType": "uint256[]",
              "name": "lotKeys",
              "type": "uint256[]"
            },
            {
              "internalType": "address",
              "name": "claimedBy",
              "type": "address"
            },
            {
              "internalType": "uint256",
              "name": "rateSettle",
              "type": "uint256"
            },
            {
              "internalType": "uint256",
              "name": "feeSettle",
              "type": "uint256"
            },
            {
              "internalType": "uint256",
              "name": "rewardSettle",
              "type": "uint256"
            }
          ],
          "indexed": false,
          "internalType": "struct Market.Frame",
          "name": "frame",
          "type": "tuple"
        }
      ],
      "name": "FrameUpdate",
      "type": "event"
    },
    {
      "anonymous": false,
      "inputs": [
        {
          "components": [
            {
              "internalType": "uint256",
              "name": "frameKey",
              "type": "uint256"
            },
            {
              "internalType": "uint256",
              "name": "lotKey",
              "type": "uint256"
            },
            {
              "components": [
                {
                  "internalType": "uint256",
                  "name": "blockNumber",
                  "type": "uint256"
                },
                {
                  "internalType": "uint256",
                  "name": "blockTimestamp",
                  "type": "uint256"
                },
                {
                  "internalType": "address",
                  "name": "owner",
                  "type": "address"
                },
                {
                  "internalType": "uint256",
                  "name": "acquisitionPrice",
                  "type": "uint256"
                },
                {
                  "internalType": "uint256",
                  "name": "taxCharged",
                  "type": "uint256"
                },
                {
                  "internalType": "uint256",
                  "name": "taxRefunded",
                  "type": "uint256"
                }
              ],
              "internalType": "struct Market.LotState[]",
              "name": "states",
              "type": "tuple[]"
            }
          ],
          "indexed": false,
          "internalType": "struct Market.Lot",
          "name": "lot",
          "type": "tuple"
        }
      ],
      "name": "LotUpdate",
      "type": "event"
    },
    {
      "inputs": [],
      "name": "accountingToken",
      "outputs": [
        {
          "internalType": "contract IERC20",
          "name": "",
          "type": "address"
        }
      ],
      "stateMutability": "view",
      "type": "function"
    },
    {
      "inputs": [
        {
          "internalType": "uint256",
          "name": "timestamp",
          "type": "uint256"
        }
      ],
      "name": "clcFrameKey",
      "outputs": [
        {
          "internalType": "uint256",
          "name": "",
          "type": "uint256"
        }
      ],
      "stateMutability": "view",
      "type": "function"
    },
    {
      "inputs": [
        {
          "internalType": "uint256",
          "name": "value",
          "type": "uint256"
        }
      ],
      "name": "clcLotKey",
      "outputs": [
        {
          "internalType": "uint256",
          "name": "",
          "type": "uint256"
        }
      ],
      "stateMutability": "view",
      "type": "function"
    },
    {
      "inputs": [],
      "name": "clcRate",
      "outputs": [
        {
          "internalType": "uint256",
          "name": "",
          "type": "uint256"
        }
      ],
      "stateMutability": "view",
      "type": "function"
    },
    {
      "inputs": [
        {
          "internalType": "uint256",
          "name": "timestamp",
          "type": "uint256"
        }
      ],
      "name": "clcRateAvg",
      "outputs": [
        {
          "internalType": "uint256",
          "name": "",
          "type": "uint256"
        }
      ],
      "stateMutability": "view",
      "type": "function"
    },
    {
      "inputs": [
        {
          "internalType": "uint256",
          "name": "frameKey",
          "type": "uint256"
        }
      ],
      "name": "clcRewardFund",
      "outputs": [
        {
          "internalType": "uint256",
          "name": "",
          "type": "uint256"
        }
      ],
      "stateMutability": "view",
      "type": "function"
    },
    {
      "inputs": [
        {
          "internalType": "uint256",
          "name": "frameKey",
          "type": "uint256"
        },
        {
          "internalType": "uint256",
          "name": "acquisitionPrice",
          "type": "uint256"
        }
      ],
      "name": "clcTax",
      "outputs": [
        {
          "internalType": "uint256",
          "name": "",
          "type": "uint256"
        }
      ],
      "stateMutability": "view",
      "type": "function"
    },
    {
      "inputs": [],
      "name": "clcUnClaimableFunds",
      "outputs": [
        {
          "internalType": "uint256",
          "name": "",
          "type": "uint256"
        }
      ],
      "stateMutability": "view",
      "type": "function"
    },
    {
      "inputs": [],
      "name": "dPrice",
      "outputs": [
        {
          "internalType": "uint256",
          "name": "",
          "type": "uint256"
        }
      ],
      "stateMutability": "view",
      "type": "function"
    },
    {
      "inputs": [],
      "name": "feeProtocol",
      "outputs": [
        {
          "internalType": "uint256",
          "name": "",
          "type": "uint256"
        }
      ],
      "stateMutability": "view",
      "type": "function"
    },
    {
      "inputs": [
        {
          "internalType": "uint256",
          "name": "",
          "type": "uint256"
        }
      ],
      "name": "frames",
      "outputs": [
        {
          "internalType": "uint256",
          "name": "frameKey",
          "type": "uint256"
        },
        {
          "internalType": "uint256",
          "name": "rate",
          "type": "uint256"
        },
        {
          "internalType": "address",
          "name": "claimedBy",
          "type": "address"
        },
        {
          "internalType": "uint256",
          "name": "rateSettle",
          "type": "uint256"
        },
        {
          "internalType": "uint256",
          "name": "feeSettle",
          "type": "uint256"
        },
        {
          "internalType": "uint256",
          "name": "rewardSettle",
          "type": "uint256"
        }
      ],
      "stateMutability": "view",
      "type": "function"
    },
    {
      "inputs": [
        {
          "internalType": "uint256",
          "name": "",
          "type": "uint256"
        }
      ],
      "name": "framesKeys",
      "outputs": [
        {
          "internalType": "uint256",
          "name": "",
          "type": "uint256"
        }
      ],
      "stateMutability": "view",
      "type": "function"
    },
    {
      "inputs": [
        {
          "internalType": "uint256",
          "name": "frameKey",
          "type": "uint256"
        }
      ],
      "name": "getFrame",
      "outputs": [
        {
          "components": [
            {
              "internalType": "uint256",
              "name": "frameKey",
              "type": "uint256"
            },
            {
              "internalType": "uint256",
              "name": "rate",
              "type": "uint256"
            },
            {
              "internalType": "uint256[]",
              "name": "lotKeys",
              "type": "uint256[]"
            },
            {
              "internalType": "address",
              "name": "claimedBy",
              "type": "address"
            },
            {
              "internalType": "uint256",
              "name": "rateSettle",
              "type": "uint256"
            },
            {
              "internalType": "uint256",
              "name": "feeSettle",
              "type": "uint256"
            },
            {
              "internalType": "uint256",
              "name": "rewardSettle",
              "type": "uint256"
            }
          ],
          "internalType": "struct Market.Frame",
          "name": "",
          "type": "tuple"
        }
      ],
      "stateMutability": "view",
      "type": "function"
    },
    {
      "inputs": [
        {
          "internalType": "uint256",
          "name": "frameKey",
          "type": "uint256"
        }
      ],
      "name": "getFrameLotKeys",
      "outputs": [
        {
          "internalType": "uint256[]",
          "name": "",
          "type": "uint256[]"
        }
      ],
      "stateMutability": "view",
      "type": "function"
    },
    {
      "inputs": [
        {
          "internalType": "uint256",
          "name": "frameKey",
          "type": "uint256"
        },
        {
          "internalType": "uint256",
          "name": "lotKey",
          "type": "uint256"
        }
      ],
      "name": "getLot",
      "outputs": [
        {
          "components": [
            {
              "internalType": "uint256",
              "name": "frameKey",
              "type": "uint256"
            },
            {
              "internalType": "uint256",
              "name": "lotKey",
              "type": "uint256"
            },
            {
              "components": [
                {
                  "internalType": "uint256",
                  "name": "blockNumber",
                  "type": "uint256"
                },
                {
                  "internalType": "uint256",
                  "name": "blockTimestamp",
                  "type": "uint256"
                },
                {
                  "internalType": "address",
                  "name": "owner",
                  "type": "address"
                },
                {
                  "internalType": "uint256",
                  "name": "acquisitionPrice",
                  "type": "uint256"
                },
                {
                  "internalType": "uint256",
                  "name": "taxCharged",
                  "type": "uint256"
                },
                {
                  "internalType": "uint256",
                  "name": "taxRefunded",
                  "type": "uint256"
                }
              ],
              "internalType": "struct Market.LotState[]",
              "name": "states",
              "type": "tuple[]"
            }
          ],
          "internalType": "struct Market.Lot",
          "name": "",
          "type": "tuple"
        }
      ],
      "stateMutability": "view",
      "type": "function"
    },
    {
      "inputs": [
        {
          "internalType": "uint256",
          "name": "frameKey",
          "type": "uint256"
        },
        {
          "internalType": "uint256",
          "name": "lotKey",
          "type": "uint256"
        }
      ],
      "name": "getLotStates",
      "outputs": [
        {
          "components": [
            {
              "internalType": "uint256",
              "name": "blockNumber",
              "type": "uint256"
            },
            {
              "internalType": "uint256",
              "name": "blockTimestamp",
              "type": "uint256"
            },
            {
              "internalType": "address",
              "name": "owner",
              "type": "address"
            },
            {
              "internalType": "uint256",
              "name": "acquisitionPrice",
              "type": "uint256"
            },
            {
              "internalType": "uint256",
              "name": "taxCharged",
              "type": "uint256"
            },
            {
              "internalType": "uint256",
              "name": "taxRefunded",
              "type": "uint256"
            }
          ],
          "internalType": "struct Market.LotState[]",
          "name": "",
          "type": "tuple[]"
        }
      ],
      "stateMutability": "view",
      "type": "function"
    },
    {
      "inputs": [
        {
          "internalType": "uint256",
          "name": "frameKey",
          "type": "uint256"
        }
      ],
      "name": "getLotsKeysInFrame",
      "outputs": [
        {
          "internalType": "uint256[]",
          "name": "",
          "type": "uint256[]"
        }
      ],
      "stateMutability": "view",
      "type": "function"
    },
    {
      "inputs": [
        {
          "internalType": "uint256",
          "name": "frameKey",
          "type": "uint256"
        }
      ],
      "name": "getStateFrame",
      "outputs": [
        {
          "internalType": "enum Market.SFrame",
          "name": "",
          "type": "uint8"
        }
      ],
      "stateMutability": "view",
      "type": "function"
    },
    {
      "inputs": [
        {
          "internalType": "uint256",
          "name": "frameKey",
          "type": "uint256"
        },
        {
          "internalType": "uint256",
          "name": "lotKey",
          "type": "uint256"
        }
      ],
      "name": "getStateLot",
      "outputs": [
        {
          "internalType": "enum Market.SLot",
          "name": "",
          "type": "uint8"
        }
      ],
      "stateMutability": "view",
      "type": "function"
    },
    {
      "inputs": [],
      "name": "initTimestamp",
      "outputs": [
        {
          "internalType": "uint256",
          "name": "",
          "type": "uint256"
        }
      ],
      "stateMutability": "view",
      "type": "function"
    },
    {
      "inputs": [
        {
          "internalType": "uint256",
          "name": "",
          "type": "uint256"
        },
        {
          "internalType": "uint256",
          "name": "",
          "type": "uint256"
        }
      ],
      "name": "lots",
      "outputs": [
        {
          "internalType": "uint256",
          "name": "frameKey",
          "type": "uint256"
        },
        {
          "internalType": "uint256",
          "name": "lotKey",
          "type": "uint256"
        }
      ],
      "stateMutability": "view",
      "type": "function"
    },
    {
      "inputs": [
        {
          "components": [
            {
              "internalType": "uint256",
              "name": "frameKey",
              "type": "uint256"
            },
            {
              "internalType": "uint256",
              "name": "rate",
              "type": "uint256"
            },
            {
              "internalType": "uint256[]",
              "name": "lotKeys",
              "type": "uint256[]"
            },
            {
              "internalType": "address",
              "name": "claimedBy",
              "type": "address"
            },
            {
              "internalType": "uint256",
              "name": "rateSettle",
              "type": "uint256"
            },
            {
              "internalType": "uint256",
              "name": "feeSettle",
              "type": "uint256"
            },
            {
              "internalType": "uint256",
              "name": "rewardSettle",
              "type": "uint256"
            }
          ],
          "internalType": "struct Market.Frame",
          "name": "frame",
          "type": "tuple"
        },
        {
          "internalType": "uint256",
          "name": "avgPrice",
          "type": "uint256"
        }
      ],
      "name": "overrideFrameRate",
      "outputs": [],
      "stateMutability": "nonpayable",
      "type": "function"
    },
    {
      "inputs": [],
      "name": "owner",
      "outputs": [
        {
          "internalType": "address",
          "name": "",
          "type": "address"
        }
      ],
      "stateMutability": "view",
      "type": "function"
    },
    {
      "inputs": [],
      "name": "period",
      "outputs": [
        {
          "internalType": "uint256",
          "name": "",
          "type": "uint256"
        }
      ],
      "stateMutability": "view",
      "type": "function"
    },
    {
      "inputs": [
        {
          "internalType": "uint256",
          "name": "frameKey",
          "type": "uint256"
        }
      ],
      "name": "setFrameRate",
      "outputs": [],
      "stateMutability": "nonpayable",
      "type": "function"
    },
    {
      "inputs": [
        {
          "internalType": "uint256",
          "name": "frameKey",
          "type": "uint256"
        }
      ],
      "name": "settleFrame",
      "outputs": [
        {
          "internalType": "uint256",
          "name": "",
          "type": "uint256"
        }
      ],
      "stateMutability": "nonpayable",
      "type": "function"
    },
    {
      "inputs": [],
      "name": "tSettle",
      "outputs": [
        {
          "internalType": "uint256",
          "name": "",
          "type": "uint256"
        }
      ],
      "stateMutability": "view",
      "type": "function"
    },
    {
      "inputs": [],
      "name": "taxMarket",
      "outputs": [
        {
          "internalType": "uint256",
          "name": "",
          "type": "uint256"
        }
      ],
      "stateMutability": "view",
      "type": "function"
    },
    {
      "inputs": [
        {
          "internalType": "uint256",
          "name": "timestamp",
          "type": "uint256"
        },
        {
          "internalType": "uint256",
          "name": "rate",
          "type": "uint256"
        },
        {
          "internalType": "uint256",
          "name": "acquisitionPrice",
          "type": "uint256"
        }
      ],
      "name": "tradeLot",
      "outputs": [],
      "stateMutability": "nonpayable",
      "type": "function"
    },
    {
      "inputs": [],
      "name": "uniswapPool",
      "outputs": [
        {
          "internalType": "contract IUniswapV3Pool",
          "name": "",
          "type": "address"
        }
      ],
      "stateMutability": "view",
      "type": "function"
    },
    {
      "inputs": [
        {
          "internalType": "uint256",
          "name": "amount",
          "type": "uint256"
        }
      ],
      "name": "withdrawAccountingToken",
      "outputs": [],
      "stateMutability": "nonpayable",
      "type": "function"
    }
  ],
  "bytecode": "0x608060405262015180600055636592e18060015566b1a2bc2ec50000600255610258600355600480546001600160a01b03199081167367a9fe12fa6082d9d0203c84c6c56d3c4b269f281790915568056bc75e2d631000006005556611c37937e0800060065560078054909116738f3cf7ad23cd3cadbd9735aff958023239c6a06317905534801561009057600080fd5b50600880546001600160a01b031916331790556135ca806100b26000396000f3fe608060405234801561001057600080fd5b50600436106101e55760003560e01c80638a5779c81161010f578063bad12653116100a2578063e107fb4f11610071578063e107fb4f146104a7578063ef78d4fd146104ba578063fb0d5e09146104c3578063ffdabe2d146104e357600080fd5b8063bad126531461044e578063bdd3d8251461046e578063d18743dd14610481578063da68cf8b1461049457600080fd5b8063a9a578ee116100de578063a9a578ee146103e4578063b866debb146103ec578063b93dafa9146103ff578063ba4e137f1461044657600080fd5b80638a5779c8146103155780638da5cb5b1461031e5780639592de1814610349578063a10340bc1461035c57600080fd5b80634c73884f116101875780636f1aefc3116101565780636f1aefc3146102c35780637358c57a146102e3578063773d51eb146102ec5780637e9966391461030c57600080fd5b80634c73884f14610274578063527eb4bc1461029457806361eee2cb1461029d57806364772f21146102b057600080fd5b80632457e620116101c35780632457e6201461021057806339a6a489146102455780633baf158714610258578063499a0fc41461026b57600080fd5b8063050e8840146101ea5780630d0a1c1a1461021057806321934d6914610230575b600080fd5b6101fd6101f8366004612bc4565b6104f6565b6040519081526020015b60405180910390f35b61022361021e366004612bc4565b610517565b6040516102079190612bdd565b61024361023e366004612d45565b61057c565b005b6101fd610253366004612bc4565b61067d565b610243610266366004612bc4565b61084a565b6101fd60055481565b610287610282366004612e01565b610914565b6040516102079190612e39565b6101fd60025481565b6101fd6102ab366004612bc4565b610a41565b6102436102be366004612e53565b610a78565b6102d66102d1366004612e01565b610bb4565b6040516102079190612ef7565b6101fd60015481565b6102ff6102fa366004612bc4565b610d0b565b6040516102079190612f26565b6101fd60065481565b6101fd60035481565b600854610331906001600160a01b031681565b6040516001600160a01b039091168152602001610207565b6101fd610357366004612bc4565b610e34565b6103a961036a366004612bc4565b600960205260009081526040902080546001820154600383015460048401546005850154600690950154939492936001600160a01b0390921692909186565b6040805196875260208701959095526001600160a01b03909316938501939093526060840152608083019190915260a082015260c001610207565b6101fd610e5f565b6101fd6103fa366004612bc4565b6110ba565b61043161040d366004612e01565b600b6020908152600092835260408084209091529082529020805460019091015482565b60408051928352602083019190915201610207565b6101fd61155b565b61046161045c366004612bc4565b61162a565b6040516102079190612fc6565b600454610331906001600160a01b031681565b61024361048f366004612bc4565b6116c1565b600754610331906001600160a01b031681565b6101fd6104b5366004612e01565b6117a9565b6101fd60005481565b6104d66104d1366004612e01565b61186b565b6040516102079190612fda565b6101fd6104f1366004612bc4565b611921565b600a818154811061050657600080fd5b600091825260209091200154905081565b60008181526009602090815260409182902060020180548351818402810184019094528084526060939283018282801561057057602002820191906000526020600020905b81548152602001906001019080831161055c575b50505050509050919050565b6008546001600160a01b031633146105eb5760405162461bcd60e51b815260206004820152602760248201527f4f6e6c79206f776e65722063616e20757064617465206672616d6520636c6f736044820152666520707269636560c81b60648201526084015b60405180910390fd5b815160000361060c5760405162461bcd60e51b81526004016105e290612ff4565b60608201516001600160a01b0316156106675760405162461bcd60e51b815260206004820181905260248201527f4672616d65207265776172642077617320616c726561647920636c61696d656460448201526064016105e2565b9051600090815260096020526040902060010155565b600080805b60008481526009602052604090206002015481101561084357600084815260096020818152604080842080548552600b8352908420888552929091526002018054839190859081106106d6576106d6613021565b90600052602060002001548152602001908152602001600020604051806060016040529081600082015481526020016001820154815260200160028201805480602002602001604051908101604052809291908181526020016000905b828210156107a45760008481526020908190206040805160c08101825260068602909201805483526001808201548486015260028201546001600160a01b03169284019290925260038101546060840152600481015460808401526005015460a08301529083529092019101610733565b5050505081525050905060005b81604001515181101561082e57816040015181815181106107d4576107d4613021565b602002602001015160800151846107eb919061304d565b93508160400151818151811061080357610803613021565b602002602001015160a001518461081a9190613060565b93508061082681613073565b9150506107b1565b5050808061083b90613073565b915050610682565b5092915050565b60008054828252600960205260409091205442916108679161304d565b11156108b55760405162461bcd60e51b815260206004820152601b60248201527f4672616d652068617320746f20626520696e207468652070617374000000000060448201526064016105e2565b60006108c082611921565b600083815260096020526040908190206001810183905590519192507f861dcb88c2eea524dd3c4d2026fc29c39249f4d090843bcc78037879d296c45291610908919061308c565b60405180910390a15050565b6000828152600b60209081526040808320848452909152812060010154810361093f57506000610a3b565b600061094a8461162a565b600481111561095b5761095b612e23565b0361096857506000610a3b565b60016109738461162a565b600481111561098457610984612e23565b14806109a9575060026109968461162a565b60048111156109a7576109a7612e23565b145b156109b657506001610a3b565b6000838152600b602090815260408083208584528252808320600190810154878552600990935292209091015410801590610a2a57506005546000848152600b60209081526040808320868452909152902060010154610a16919061304d565b600084815260096020526040902060010154105b15610a3757506002610a3b565b5060035b92915050565b60006001548211610a5457505060015490565b600054600154610a649084613060565b610a6e9190613140565b610a3b9083613060565b6000610a8384610a41565b90506000610a9084610e34565b6000838152600b6020908152604080832084845290915281206001015491925003610ae7576000828152600960205260408120549003610ad557610ad385611b67565b505b610ae0828285611ca4565b5050505050565b6000828152600b6020908152604080832084845290915290206002018054339190610b1490600190613060565b81548110610b2457610b24613021565b60009182526020909120600260069092020101546001600160a01b031603610b5157610ae082828561207d565b610b5d8282338661244b565b6000828152600b602090815260408083208484529091529081902090517f906ff162b3f2709ab28fb678d43913964434148dd206e9b17adb3c1255090cb191610ba591613154565b60405180910390a15050505050565b610bd860405180606001604052806000815260200160008152602001606081525090565b6000838152600b602090815260408083208584529091528120600101549003610c375760405162461bcd60e51b8152602060048201526011602482015270131bdd08191bd95cdb89dd08195e1a5cdd607a1b60448201526064016105e2565b6000838152600b602090815260408083208584528252808320815160608101835281548152600182015481850152600282018054845181870281018701865281815292969395948701949293919290919084015b82821015610cfc5760008481526020908190206040805160c08101825260068602909201805483526001808201548486015260028201546001600160a01b03169284019290925260038101546060840152600481015460808401526005015460a08301529083529092019101610c8b565b50505091525090949350505050565b610d546040518060e0016040528060008152602001600081526020016060815260200160006001600160a01b031681526020016000815260200160008152602001600081525090565b6000828152600960205260408120549003610d815760405162461bcd60e51b81526004016105e290612ff4565b600082815260096020908152604091829020825160e0810184528154815260018201548184015260028201805485518186028101860187528181529295939493860193830182828015610df357602002820191906000526020600020905b815481526020019060010190808311610ddf575b505050918352505060038201546001600160a01b03166020820152600482015460408201526005820154606082015260069091015460809091015292915050565b6000600554821015610e4857505060055490565b600554610e558184613202565b610a3b9190613216565b600080805b600a548110156110b457600060096000600a8481548110610e8757610e87613021565b906000526020600020015481526020019081526020016000206040518060e0016040529081600082015481526020016001820154815260200160028201805480602002602001604051908101604052809291908181526020018280548015610f0e57602002820191906000526020600020905b815481526020019060010190808311610efa575b50505091835250506003828101546001600160a01b0316602083015260048301546040830152600583015460608301526006909201546080909101529091508151610f589061162a565b6004811115610f6957610f69612e23565b036110a15780516000908152600b602090815260408220908301518290610f8f90610e34565b8152602001908152602001600020604051806060016040529081600082015481526020016001820154815260200160028201805480602002602001604051908101604052809291908181526020016000905b828210156110525760008481526020908190206040805160c08101825260068602909201805483526001808201548486015260028201546001600160a01b03169284019290925260038101546060840152600481015460808401526005015460a08301529083529092019101610fe1565b5050509152509091506002905061107183600001518360200151610914565b600381111561108257611082612e23565b1461109f5781516110929061067d565b61109c908561304d565b93505b505b50806110ac81613073565b915050610e64565b50919050565b60008181526009602052604081205481036110e75760405162461bcd60e51b81526004016105e290612ff4565b60036110f28361162a565b600481111561110357611103612e23565b1461115c5760405162461bcd60e51b8152602060048201526024808201527f4672616d6520646f6573206e6f742068617665206120636c6f73652072617465604482015263081cd95d60e21b60648201526084016105e2565b60008281526009602052604081206001015461117790610e34565b6000848152600b60209081526040808320848452825280832081516060810183528154815260018201548185015260028201805484518187028101870186528181529798509596919592949386019391929091879084015b828210156112405760008481526020908190206040805160c08101825260068602909201805483526001808201548486015260028201546001600160a01b03169284019290925260038101546060840152600481015460808401526005015460a083015290835290920191016111cf565b505050915250909150600290506112578584610914565b600381111561126857611268612e23565b146112b55760405162461bcd60e51b815260206004820152601c60248201527f4e6f2077696e6e696e67206c6f7420696e2074686973206672616d650000000060448201526064016105e2565b60006112c08561067d565b90506000670de0b6b3a7640000600254836112db9190613216565b6112e59190613202565b600087815260096020526040902060050181905590506113058183613060565b60008781526009602052604090819020600601919091556007549084015180516001600160a01b039092169163a9059cbb919061134490600190613060565b8151811061135457611354613021565b602002602001015160400151600960008a8152602001908152602001600020600601546040518363ffffffff1660e01b81526004016113a89291906001600160a01b03929092168252602082015260400190565b6020604051808303816000875af11580156113c7573d6000803e3d6000fd5b505050506040513d601f19601f820116820180604052508101906113eb919061323d565b50604083015180516113ff90600190613060565b8151811061140f5761140f613021565b60209081029190910181015160409081015160008981526009909352918190206003810180546001600160a01b0319166001600160a01b03948516179055600754600854600590920154925163a9059cbb60e01b81529184166004830152602482019290925291169063a9059cbb906044016020604051808303816000875af11580156114a0573d6000803e3d6000fd5b505050506040513d601f19601f820116820180604052508101906114c4919061323d565b507f906ff162b3f2709ab28fb678d43913964434148dd206e9b17adb3c1255090cb1836040516114f49190612ef7565b60405180910390a16000868152600960205260409081902090517f861dcb88c2eea524dd3c4d2026fc29c39249f4d090843bcc78037879d296c452916115399161308c565b60405180910390a1505050600092835250506009602052604090206006015490565b6004805460408051633850c7bd60e01b8152905160009384936001600160a01b031692633850c7bd928183019260e0928290030181865afa1580156115a4573d6000803e3d6000fd5b505050506040513d601f19601f820116820180604052508101906115c8919061326a565b50505050505090506000816001600160a01b031690506000600160601b82670de0b6b3a76400006115f99190613216565b6116039190613202565b9050670de0b6b3a76400006116188280613216565b6116229190613202565b949350505050565b600081815260096020526040812054810361164757506000919050565b6000828152600960205260409020600301546001600160a01b03161561166f57506004919050565b60008054838252600960205260409091205461168b919061304d565b42101561169a57506001919050565b600082815260096020526040902060010154156116b957506003919050565b506002919050565b6008546001600160a01b0316331461172c5760405162461bcd60e51b815260206004820152602860248201527f4f6e6c79206f776e65722063616e207769746864726177206163636f756e74696044820152673733903a37b5b2b760c11b60648201526084016105e2565b60075460085460405163a9059cbb60e01b81526001600160a01b0391821660048201526024810184905291169063a9059cbb906044016020604051808303816000875af1158015611781573d6000803e3d6000fd5b505050506040513d601f19601f820116820180604052508101906117a5919061323d565b5050565b600042600054846117ba919061304d565b116118075760405162461bcd60e51b815260206004820152601d60248201527f4672616d652068617320746f20626520696e207468652066757475726500000060448201526064016105e2565b600080546006546118189190613202565b90506000426000548661182b919061304d565b6118359190613060565b90506000670de0b6b3a76400008561184d8585613216565b6118579190613216565b6118619190613202565b9695505050505050565b6000828152600b602090815260408083208484528252808320600201805482518185028101850190935280835260609492939192909184015b828210156119155760008481526020908190206040805160c08101825260068602909201805483526001808201548486015260028201546001600160a01b03169284019290925260038101546060840152600481015460808401526005015460a083015290835290920191016118a4565b50505050905092915050565b60008060035483426119339190613060565b61193d919061304d565b9050600061194b8442613060565b6040805160028082526060820183529293506000929091602083019080368337019050509050828160008151811061198557611985613021565b602002602001019063ffffffff16908163ffffffff168152505081816001815181106119b3576119b3613021565b63ffffffff909216602092830291909101909101526004805460405163883bdbfd60e01b81526000926001600160a01b039092169163883bdbfd916119fa91869101613304565b600060405180830381865afa158015611a17573d6000803e3d6000fd5b505050506040513d6000823e601f3d908101601f19168201604052611a3f91908101906133a6565b509050600081600081518110611a5757611a57613021565b602002602001015160060b82600181518110611a7557611a75613021565b602002602001015160060b611a8a9190613472565b90506000811215611ad35760405162461bcd60e51b81526020600482015260136024820152724e65676174697665207469636b2064656c746160681b60448201526064016105e2565b806000611ae963ffffffff808816908916613060565b90506000611af78284613202565b90506000611b048261268e565b90506000611b2266010000000000006001600160a01b038416613202565b90506000611b308280613216565b90506000600160601b611b4b83670de0b6b3a7640000613216565b611b559190613202565b9e9d5050505050505050505050505050565b600080611b7383610a41565b60008181526009602052604090205490915015611bc95760405162461bcd60e51b81526020600482015260146024820152734672616d6520616c72656164792065786973747360601b60448201526064016105e2565b4260005482611bd8919061304d565b1015611c265760405162461bcd60e51b815260206004820152601d60248201527f4672616d652068617320746f20626520696e207468652066757475726500000060448201526064016105e2565b60008181526009602052604090819020828155600a8054600181019091557fc65a7bb8d6351c1cf70c95a316cc6a92839c986682d98bc35f958f4883f9d2a80183905590517f861dcb88c2eea524dd3c4d2026fc29c39249f4d090843bcc78037879d296c45291611c969161308c565b60405180910390a192915050565b6000611cb084836117a9565b905060008111611cd25760405162461bcd60e51b81526004016105e290613492565b604080518082018252601781527f534f4c3a2062616c616e6365206f662073656e6465723a000000000000000000602082015260075491516370a0823160e01b8152336004820152611d78926001600160a01b0316906370a08231906024015b602060405180830381865afa158015611d4f573d6000803e3d6000fd5b505050506040513d601f19601f82011682018060405250810190611d7391906134ef565b612a71565b604080518082018252601881527f534f4c3a20416c6c6f77616e636520746f207370656e643a000000000000000060208201526007549151636eb1769f60e11b8152336004820152306024820152611de2926001600160a01b03169063dd62ed3e90604401611d32565b611e0d6040518060400160405280600981526020016829a7a61d103a30bc1d60b91b81525082612a71565b600754604051636eb1769f60e11b815233600482015230602482015282916001600160a01b03169063dd62ed3e90604401602060405180830381865afa158015611e5b573d6000803e3d6000fd5b505050506040513d601f19601f82011682018060405250810190611e7f91906134ef565b1015611e9d5760405162461bcd60e51b81526004016105e290613508565b6000848152600b6020908152604080832086845290915290206001015415611efc5760405162461bcd60e51b81526020600482015260126024820152714c6f7420616c72656164792065786973747360701b60448201526064016105e2565b6040805160c081018252438152426020808301918252338385019081526060840187815260808501878152600060a087018181528c8252600b86528882208c835286529781208c815560018082018d90556002808301805480840182558186529885208b516006909a0201988955985191880191909155945194860180546001600160a01b0319166001600160a01b039096169590951790945591516003850155516004840155945160059092019190915592869052805491929182918291611fc791908190612ade565b50505060008681526009602090815260408083206001858101546002909201805491820181558552929093209091019190915560075490516323b872dd60e01b8152336004820152306024820152604481018590526001600160a01b03909116906323b872dd906064016020604051808303816000875af1158015612050573d6000803e3d6000fd5b505050506040513d601f19601f82011682018060405250810190612074919061323d565b50505050505050565b6000838152600b60209081526040808320858452909152812060020180546120d49186916120ad90600190613060565b815481106120bd576120bd613021565b9060005260206000209060060201600301546117a9565b905060006120e285846117a9565b9050808211156122805760006120f88284613060565b6007546000888152600b602090815260408083208a8452909152902060020180549293506001600160a01b039091169163a9059cbb919061213b90600190613060565b8154811061214b5761214b613021565b600091825260209091206006909102016002015460405160e083901b6001600160e01b03191681526001600160a01b039091166004820152602481018490526044016020604051808303816000875af11580156121ac573d6000803e3d6000fd5b505050506040513d601f19601f820116820180604052508101906121d0919061323d565b506000868152600b602090815260408083208884528252808320815160c0810183524381524281850190815233938201938452606082018a81526080830187815260a084019889526002948501805460018082018355918a529790982093516006909702909301958655905195850195909555915190830180546001600160a01b0319166001600160a01b0390921691909117905591516003820155905160048201559051600590910155610ae0565b600061228c8383613060565b600754604051636eb1769f60e11b815233600482015230602482015291925082916001600160a01b039091169063dd62ed3e90604401602060405180830381865afa1580156122df573d6000803e3d6000fd5b505050506040513d601f19601f8201168201806040525081019061230391906134ef565b10156123215760405162461bcd60e51b81526004016105e290613508565b6007546040516323b872dd60e01b8152336004820152306024820152604481018390526001600160a01b03909116906323b872dd906064016020604051808303816000875af1158015612378573d6000803e3d6000fd5b505050506040513d601f19601f8201168201806040525081019061239c919061323d565b506000958652600b60209081526040808820968852958152858720865160c0810188524381524281840190815233988201988952606082019788526080820194855260a082018a81526002938401805460018082018355918d5295909b20925160069095029092019384555198830198909855955195810180546001600160a01b0319166001600160a01b03909716969096179095559251600385015550505160048201559051600590910155565b600061245785836117a9565b9050600081116124795760405162461bcd60e51b81526004016105e290613492565b6000858152600b60209081526040808320878452909152812060020180546124a390600190613060565b815481106124b3576124b3613021565b906000526020600020906006020160030154905080826124d3919061304d565b600754604051636eb1769f60e11b81523360048201523060248201526001600160a01b039091169063dd62ed3e90604401602060405180830381865afa158015612521573d6000803e3d6000fd5b505050506040513d601f19601f8201168201806040525081019061254591906134ef565b10156125635760405162461bcd60e51b81526004016105e290613508565b6007546040516323b872dd60e01b8152336004820152306024820152604481018490526001600160a01b03909116906323b872dd906064016020604051808303816000875af11580156125ba573d6000803e3d6000fd5b505050506040513d601f19601f820116820180604052508101906125de919061323d565b50506000948552600b60209081526040808720958752948152848620855160c081018752438152428184019081526001600160a01b03968716978201978852606082019586526080820194855260a082018981526002938401805460018082018355918c5295909a20925160069095029092019384555197830197909755945194810180546001600160a01b03191695909416949094179092555160038301555160048201559051600590910155565b600081620d89e88111156126c85760405162461bcd60e51b81526020600482015260016024820152601560fa1b60448201526064016105e2565b6000816001166000036126df57600160801b6126f1565b6ffffcb933bd6fad37aa2d162d1a5940015b70ffffffffffffffffffffffffffffffffff169050600282161561273057608061272b826ffff97272373d413259a46990580e213a613216565b901c90505b600482161561275a576080612755826ffff2e50f5f656932ef12357cf3c7fdcc613216565b901c90505b600882161561278457608061277f826fffe5caca7e10e4e61c3624eaa0941cd0613216565b901c90505b60108216156127ae5760806127a9826fffcb9843d60f6159c9db58835c926644613216565b901c90505b60208216156127d85760806127d3826fff973b41fa98c081472e6896dfb254c0613216565b901c90505b60408216156128025760806127fd826fff2ea16466c96a3843ec78b326b52861613216565b901c90505b608082161561282c576080612827826ffe5dee046a99a2a811c461f1969c3053613216565b901c90505b610100821615612857576080612852826ffcbe86c7900a88aedcffc83b479aa3a4613216565b901c90505b61020082161561288257608061287d826ff987a7253ac413176f2b074cf7815e54613216565b901c90505b6104008216156128ad5760806128a8826ff3392b0822b70005940c7a398e4b70f3613216565b901c90505b6108008216156128d85760806128d3826fe7159475a2c29b7443b29c7fa6e889d9613216565b901c90505b6110008216156129035760806128fe826fd097f3bdfd2022b8845ad8f792aa5825613216565b901c90505b61200082161561292e576080612929826fa9f746462d870fdf8a65dc1f90e061e5613216565b901c90505b614000821615612959576080612954826f70d869a156d2a1b890bb3df62baf32f7613216565b901c90505b61800082161561298457608061297f826f31be135f97d08fd981231505542fcfa6613216565b901c90505b620100008216156129b05760806129ab826f09aa508b5b7a84e1c677de54f3e99bc9613216565b901c90505b620200008216156129db5760806129d6826e5d6af8dedb81196699c329225ee604613216565b901c90505b62040000821615612a05576080612a00826d2216e584f5fa1ea926041bedfe98613216565b901c90505b62080000821615612a2d576080612a28826b048a170391f7dc42444e8fa2613216565b901c90505b8315612a4257612a3f81600019613202565b90505b612a5164010000000082613140565b15612a5d576001612a60565b60005b6116229060ff16602083901c61304d565b6117a58282604051602401612a8792919061353f565b60408051601f198184030181529190526020810180516001600160e01b0316632d839cb360e21b179052612aba81612abd565b50565b60006a636f6e736f6c652e6c6f679050600080835160208501845afa505050565b828054828255906000526020600020906006028101928215612b725760005260206000209160060282015b82811115612b7257825482556001808401549083015560028084015490830180546001600160a01b0319166001600160a01b0390921691909117905560038084015490830155600480840154908301556005808401549083015560069283019290910190612b09565b50612b7e929150612b82565b5090565b5b80821115612b7e576000808255600182018190556002820180546001600160a01b031916905560038201819055600482018190556005820155600601612b83565b600060208284031215612bd657600080fd5b5035919050565b6020808252825182820181905260009190848201906040850190845b81811015612c1557835183529284019291840191600101612bf9565b50909695505050505050565b634e487b7160e01b600052604160045260246000fd5b60405160e0810167ffffffffffffffff81118282101715612c5a57612c5a612c21565b60405290565b604051601f8201601f1916810167ffffffffffffffff81118282101715612c8957612c89612c21565b604052919050565b600067ffffffffffffffff821115612cab57612cab612c21565b5060051b60200190565b600082601f830112612cc657600080fd5b81356020612cdb612cd683612c91565b612c60565b82815260059290921b84018101918181019086841115612cfa57600080fd5b8286015b84811015612d155780358352918301918301612cfe565b509695505050505050565b6001600160a01b0381168114612aba57600080fd5b8035612d4081612d20565b919050565b60008060408385031215612d5857600080fd5b823567ffffffffffffffff80821115612d7057600080fd5b9084019060e08287031215612d8457600080fd5b612d8c612c37565b8235815260208301356020820152604083013582811115612dac57600080fd5b612db888828601612cb5565b604083015250612dca60608401612d35565b60608201526080830135608082015260a083013560a082015260c083013560c0820152809450505050602083013590509250929050565b60008060408385031215612e1457600080fd5b50508035926020909101359150565b634e487b7160e01b600052602160045260246000fd5b6020810160048310612e4d57612e4d612e23565b91905290565b600080600060608486031215612e6857600080fd5b505081359360208301359350604090920135919050565b600081518084526020808501945080840160005b83811015612eec5781518051885283810151848901526040808201516001600160a01b031690890152606080820151908901526080808201519089015260a0908101519088015260c09096019590820190600101612e93565b509495945050505050565b602081528151602082015260208201516040820152600060408301516060808401526116226080840182612e7f565b600060208083526101008301845182850152818501516040850152604085015160e06060860152818151808452610120870191508483019350600092505b80831015612f845783518252928401926001929092019190840190612f64565b5060608701516001600160a01b03811660808801529350608087015160a087015260a087015160c087015260c087015160e08701528094505050505092915050565b6020810160058310612e4d57612e4d612e23565b602081526000612fed6020830184612e7f565b9392505050565b602080825260139082015272119c985b5948191bd95cdb89dd08195e1a5cdd606a1b604082015260600190565b634e487b7160e01b600052603260045260246000fd5b634e487b7160e01b600052601160045260246000fd5b80820180821115610a3b57610a3b613037565b81810381811115610a3b57610a3b613037565b60006001820161308557613085613037565b5060010190565b6020808252825482820152600180840154604084015260e06060840152600284018054610100850181905260009182528382209193929084906101208701905b808310156130e957845482529383019391830191908501906130cc565b5060038801546001600160a01b03166080880152600488015460a0880152600588015460c088015260069097015460e0909601959095525093949350505050565b634e487b7160e01b600052601260045260246000fd5b60008261314f5761314f61312a565b500690565b6000602080835260808084018554838601526001808701546040818189015260029150818901606080818b015285825480885260a09750878c0191508360005289600020935060005b818110156131f05784548352878501548b840152868501546001600160a01b03168684015260038501548484015260048501548a84015260058501548984015260069094019360c090920191870161319d565b50909c9b505050505050505050505050565b6000826132115761321161312a565b500490565b8082028115828204841417610a3b57610a3b613037565b80518015158114612d4057600080fd5b60006020828403121561324f57600080fd5b612fed8261322d565b805161ffff81168114612d4057600080fd5b600080600080600080600060e0888a03121561328557600080fd5b875161329081612d20565b8097505060208801518060020b81146132a857600080fd5b95506132b660408901613258565b94506132c460608901613258565b93506132d260808901613258565b925060a088015160ff811681146132e857600080fd5b91506132f660c0890161322d565b905092959891949750929550565b6020808252825182820181905260009190848201906040850190845b81811015612c1557835163ffffffff1683529284019291840191600101613320565b600082601f83011261335357600080fd5b81516020613363612cd683612c91565b82815260059290921b8401810191818101908684111561338257600080fd5b8286015b84811015612d1557805161339981612d20565b8352918301918301613386565b600080604083850312156133b957600080fd5b825167ffffffffffffffff808211156133d157600080fd5b818501915085601f8301126133e557600080fd5b815160206133f5612cd683612c91565b82815260059290921b8401810191818101908984111561341457600080fd5b948201945b838610156134425785518060060b81146134335760008081fd5b82529482019490820190613419565b9188015191965090935050508082111561345b57600080fd5b5061346885828601613342565b9150509250929050565b818103600083128015838313168383128216171561084357610843613037565b6020808252603c908201527f5461782068617320746f2062652067726561746572207468616e20302e20496e60408201527f63726561736520746865206163717569736974696f6e20707269636500000000606082015260800190565b60006020828403121561350157600080fd5b5051919050565b6020808252601e908201527f416c6c6f77616e636520746f207370656e642073657420746f6f206c6f770000604082015260600190565b604081526000835180604084015260005b8181101561356d5760208187018101516060868401015201613550565b506000606082850101526060601f19601f830116840101915050826020830152939250505056fea2646970667358221220cd4043d213a6c9628dfbfe87c73c0f02d79c592de60d4fac6e7f5b32751d7bb064736f6c63430008140033",
  "linkReferences": {},
  "deployedLinkReferences": {}
}