{
  "_format": "hh-sol-artifact-1",
  "contractName": "Market",
  "sourceName": "contracts/Market.sol",
  "abi": [
    {
      "inputs": [
        {
          "internalType": "contract MarketFactory",
          "name": "_factory",
          "type": "address"
        },
        {
          "internalType": "contract IERC20",
          "name": "_token",
          "type": "address"
        },
        {
          "internalType": "contract IUniswapV2Pair",
          "name": "_uniswapPair",
          "type": "address"
        },
        {
          "internalType": "uint64",
          "name": "_period",
          "type": "uint64"
        },
        {
          "internalType": "uint64",
          "name": "_initTimestamp",
          "type": "uint64"
        },
        {
          "internalType": "uint256",
          "name": "_taxMarket",
          "type": "uint256"
        },
        {
          "internalType": "uint256",
          "name": "_feeMarket",
          "type": "uint256"
        },
        {
          "internalType": "uint256",
          "name": "_dPrice",
          "type": "uint256"
        },
        {
          "internalType": "uint64",
          "name": "_tReporting",
          "type": "uint64"
        },
        {
          "internalType": "uint256",
          "name": "_minTax",
          "type": "uint256"
        }
      ],
      "stateMutability": "nonpayable",
      "type": "constructor"
    },
    {
      "anonymous": false,
      "inputs": [
        {
          "indexed": false,
          "internalType": "uint64",
          "name": "frameKey",
          "type": "uint64"
        }
      ],
      "name": "FrameUpdate",
      "type": "event"
    },
    {
      "anonymous": false,
      "inputs": [
        {
          "indexed": false,
          "internalType": "uint64",
          "name": "frameKey",
          "type": "uint64"
        },
        {
          "indexed": false,
          "internalType": "uint256",
          "name": "lotKey",
          "type": "uint256"
        }
      ],
      "name": "LotUpdate",
      "type": "event"
    },
    {
      "inputs": [],
      "name": "accountingToken",
      "outputs": [
        {
          "internalType": "contract IERC20",
          "name": "",
          "type": "address"
        }
      ],
      "stateMutability": "view",
      "type": "function"
    },
    {
      "inputs": [
        {
          "internalType": "uint64",
          "name": "timestamp",
          "type": "uint64"
        },
        {
          "internalType": "uint256",
          "name": "pairPrice",
          "type": "uint256"
        },
        {
          "internalType": "uint256",
          "name": "acqPrice",
          "type": "uint256"
        }
      ],
      "name": "buyLot",
      "outputs": [],
      "stateMutability": "nonpayable",
      "type": "function"
    },
    {
      "inputs": [
        {
          "internalType": "uint64",
          "name": "timestamp",
          "type": "uint64"
        },
        {
          "internalType": "uint256",
          "name": "pairPrice",
          "type": "uint256"
        },
        {
          "internalType": "uint256",
          "name": "acqPrice",
          "type": "uint256"
        }
      ],
      "name": "clcAmountToApprove",
      "outputs": [
        {
          "internalType": "uint256",
          "name": "cmpltAmnt",
          "type": "uint256"
        }
      ],
      "stateMutability": "view",
      "type": "function"
    },
    {
      "inputs": [
        {
          "internalType": "uint64",
          "name": "timestamp",
          "type": "uint64"
        }
      ],
      "name": "clcFrameTimestamp",
      "outputs": [
        {
          "internalType": "uint64",
          "name": "",
          "type": "uint64"
        }
      ],
      "stateMutability": "view",
      "type": "function"
    },
    {
      "inputs": [
        {
          "internalType": "uint64",
          "name": "frameKey",
          "type": "uint64"
        }
      ],
      "name": "clcFramesLeft",
      "outputs": [
        {
          "internalType": "uint64",
          "name": "",
          "type": "uint64"
        }
      ],
      "stateMutability": "view",
      "type": "function"
    },
    {
      "inputs": [
        {
          "internalType": "uint256",
          "name": "value",
          "type": "uint256"
        }
      ],
      "name": "clcLotInterval",
      "outputs": [
        {
          "internalType": "uint256",
          "name": "",
          "type": "uint256"
        }
      ],
      "stateMutability": "view",
      "type": "function"
    },
    {
      "inputs": [
        {
          "internalType": "uint64",
          "name": "frameKey",
          "type": "uint64"
        },
        {
          "internalType": "uint256",
          "name": "acquisitionPrice",
          "type": "uint256"
        }
      ],
      "name": "clcTax",
      "outputs": [
        {
          "internalType": "uint256",
          "name": "tax",
          "type": "uint256"
        }
      ],
      "stateMutability": "view",
      "type": "function"
    },
    {
      "inputs": [
        {
          "internalType": "uint64",
          "name": "frameKey",
          "type": "uint64"
        }
      ],
      "name": "closeFrame",
      "outputs": [],
      "stateMutability": "nonpayable",
      "type": "function"
    },
    {
      "inputs": [],
      "name": "dPrice",
      "outputs": [
        {
          "internalType": "uint256",
          "name": "",
          "type": "uint256"
        }
      ],
      "stateMutability": "view",
      "type": "function"
    },
    {
      "inputs": [
        {
          "internalType": "uint256",
          "name": "amount",
          "type": "uint256"
        }
      ],
      "name": "emptyFunds",
      "outputs": [],
      "stateMutability": "nonpayable",
      "type": "function"
    },
    {
      "inputs": [],
      "name": "factory",
      "outputs": [
        {
          "internalType": "contract MarketFactory",
          "name": "",
          "type": "address"
        }
      ],
      "stateMutability": "view",
      "type": "function"
    },
    {
      "inputs": [],
      "name": "feeMarket",
      "outputs": [
        {
          "internalType": "uint256",
          "name": "",
          "type": "uint256"
        }
      ],
      "stateMutability": "view",
      "type": "function"
    },
    {
      "inputs": [],
      "name": "feeProtocol",
      "outputs": [
        {
          "internalType": "uint64",
          "name": "",
          "type": "uint64"
        }
      ],
      "stateMutability": "view",
      "type": "function"
    },
    {
      "inputs": [
        {
          "internalType": "uint256",
          "name": "",
          "type": "uint256"
        }
      ],
      "name": "frames",
      "outputs": [
        {
          "internalType": "uint64",
          "name": "frameKey",
          "type": "uint64"
        },
        {
          "internalType": "uint64",
          "name": "oracleTimestampStart",
          "type": "uint64"
        },
        {
          "internalType": "uint64",
          "name": "oracleTimestampEnd",
          "type": "uint64"
        },
        {
          "internalType": "uint64",
          "name": "lastBlockNum",
          "type": "uint64"
        },
        {
          "internalType": "uint256",
          "name": "priceAverage",
          "type": "uint256"
        },
        {
          "internalType": "uint256",
          "name": "rewardFund",
          "type": "uint256"
        },
        {
          "internalType": "uint256",
          "name": "oraclePrice0CumulativeStart",
          "type": "uint256"
        },
        {
          "internalType": "uint256",
          "name": "oraclePrice0CumulativeEnd",
          "type": "uint256"
        },
        {
          "internalType": "enum Market.SFrame",
          "name": "state",
          "type": "uint8"
        }
      ],
      "stateMutability": "view",
      "type": "function"
    },
    {
      "inputs": [
        {
          "internalType": "uint256",
          "name": "",
          "type": "uint256"
        }
      ],
      "name": "framesKeys",
      "outputs": [
        {
          "internalType": "uint256",
          "name": "",
          "type": "uint256"
        }
      ],
      "stateMutability": "view",
      "type": "function"
    },
    {
      "inputs": [
        {
          "internalType": "uint64",
          "name": "frameKey",
          "type": "uint64"
        },
        {
          "internalType": "uint256",
          "name": "lotKey",
          "type": "uint256"
        }
      ],
      "name": "getLot",
      "outputs": [
        {
          "components": [
            {
              "internalType": "uint256",
              "name": "lotKey",
              "type": "uint256"
            },
            {
              "internalType": "address",
              "name": "lotOwner",
              "type": "address"
            },
            {
              "internalType": "uint256",
              "name": "acquisitionPrice",
              "type": "uint256"
            },
            {
              "internalType": "enum Market.SLot",
              "name": "state",
              "type": "uint8"
            }
          ],
          "internalType": "struct Market.Lot",
          "name": "",
          "type": "tuple"
        }
      ],
      "stateMutability": "view",
      "type": "function"
    },
    {
      "inputs": [
        {
          "internalType": "uint64",
          "name": "frameKey",
          "type": "uint64"
        },
        {
          "internalType": "uint256",
          "name": "index",
          "type": "uint256"
        }
      ],
      "name": "getLotKey",
      "outputs": [
        {
          "internalType": "uint256",
          "name": "",
          "type": "uint256"
        }
      ],
      "stateMutability": "view",
      "type": "function"
    },
    {
      "inputs": [
        {
          "internalType": "uint64",
          "name": "frameKey",
          "type": "uint64"
        }
      ],
      "name": "getLotsCount",
      "outputs": [
        {
          "internalType": "uint256",
          "name": "",
          "type": "uint256"
        }
      ],
      "stateMutability": "view",
      "type": "function"
    },
    {
      "inputs": [
        {
          "internalType": "address",
          "name": "user",
          "type": "address"
        }
      ],
      "name": "getNumOfUserFrames",
      "outputs": [
        {
          "internalType": "uint256",
          "name": "",
          "type": "uint256"
        }
      ],
      "stateMutability": "view",
      "type": "function"
    },
    {
      "inputs": [],
      "name": "getNumberOfFrameKeys",
      "outputs": [
        {
          "internalType": "uint256",
          "name": "",
          "type": "uint256"
        }
      ],
      "stateMutability": "view",
      "type": "function"
    },
    {
      "inputs": [
        {
          "internalType": "uint64",
          "name": "timestamp",
          "type": "uint64"
        }
      ],
      "name": "getOrCreateFrame",
      "outputs": [
        {
          "internalType": "uint64",
          "name": "",
          "type": "uint64"
        }
      ],
      "stateMutability": "nonpayable",
      "type": "function"
    },
    {
      "inputs": [
        {
          "internalType": "uint64",
          "name": "frameKey",
          "type": "uint64"
        }
      ],
      "name": "getRewardAmount",
      "outputs": [
        {
          "internalType": "uint256",
          "name": "",
          "type": "uint256"
        }
      ],
      "stateMutability": "view",
      "type": "function"
    },
    {
      "inputs": [
        {
          "internalType": "address",
          "name": "user",
          "type": "address"
        }
      ],
      "name": "getUserFrames",
      "outputs": [
        {
          "internalType": "uint256[]",
          "name": "",
          "type": "uint256[]"
        }
      ],
      "stateMutability": "view",
      "type": "function"
    },
    {
      "inputs": [],
      "name": "initTimestamp",
      "outputs": [
        {
          "internalType": "uint64",
          "name": "",
          "type": "uint64"
        }
      ],
      "stateMutability": "view",
      "type": "function"
    },
    {
      "inputs": [],
      "name": "minTax",
      "outputs": [
        {
          "internalType": "uint256",
          "name": "",
          "type": "uint256"
        }
      ],
      "stateMutability": "view",
      "type": "function"
    },
    {
      "inputs": [],
      "name": "ownerMarket",
      "outputs": [
        {
          "internalType": "address",
          "name": "",
          "type": "address"
        }
      ],
      "stateMutability": "view",
      "type": "function"
    },
    {
      "inputs": [],
      "name": "period",
      "outputs": [
        {
          "internalType": "uint64",
          "name": "",
          "type": "uint64"
        }
      ],
      "stateMutability": "view",
      "type": "function"
    },
    {
      "inputs": [
        {
          "internalType": "uint64",
          "name": "frameKey",
          "type": "uint64"
        }
      ],
      "name": "settleLot",
      "outputs": [],
      "stateMutability": "nonpayable",
      "type": "function"
    },
    {
      "inputs": [],
      "name": "tReporting",
      "outputs": [
        {
          "internalType": "uint64",
          "name": "",
          "type": "uint64"
        }
      ],
      "stateMutability": "view",
      "type": "function"
    },
    {
      "inputs": [],
      "name": "taxMarket",
      "outputs": [
        {
          "internalType": "uint256",
          "name": "",
          "type": "uint256"
        }
      ],
      "stateMutability": "view",
      "type": "function"
    },
    {
      "inputs": [],
      "name": "uniswapPair",
      "outputs": [
        {
          "internalType": "contract IUniswapV2Pair",
          "name": "",
          "type": "address"
        }
      ],
      "stateMutability": "view",
      "type": "function"
    },
    {
      "inputs": [],
      "name": "updateFramePrices",
      "outputs": [],
      "stateMutability": "nonpayable",
      "type": "function"
    },
    {
      "inputs": [
        {
          "internalType": "uint64",
          "name": "timestamp",
          "type": "uint64"
        },
        {
          "internalType": "uint256",
          "name": "pairPrice",
          "type": "uint256"
        },
        {
          "internalType": "uint256",
          "name": "acqPrice",
          "type": "uint256"
        }
      ],
      "name": "updateLotPrice",
      "outputs": [],
      "stateMutability": "nonpayable",
      "type": "function"
    },
    {
      "inputs": [
        {
          "internalType": "address",
          "name": "",
          "type": "address"
        },
        {
          "internalType": "uint256",
          "name": "",
          "type": "uint256"
        }
      ],
      "name": "userFrames",
      "outputs": [
        {
          "internalType": "uint256",
          "name": "",
          "type": "uint256"
        }
      ],
      "stateMutability": "view",
      "type": "function"
    }
  ],
  "bytecode": "0x60806040526064600060106101000a81548167ffffffffffffffff021916908367ffffffffffffffff16021790555069d3c21bcecceda10000006009553480156200004957600080fd5b5060405162004ccf38038062004ccf83398181016040528101906200006f91906200028c565b88600660006101000a81548173ffffffffffffffffffffffffffffffffffffffff021916908373ffffffffffffffffffffffffffffffffffffffff16021790555033600760006101000a81548173ffffffffffffffffffffffffffffffffffffffff021916908373ffffffffffffffffffffffffffffffffffffffff160217905550866000806101000a81548167ffffffffffffffff021916908367ffffffffffffffff16021790555085600060086101000a81548167ffffffffffffffff021916908367ffffffffffffffff160217905550846004819055508360038190555087600160006101000a81548173ffffffffffffffffffffffffffffffffffffffff021916908373ffffffffffffffffffffffffffffffffffffffff1602179055508260028190555089600560006101000a81548173ffffffffffffffffffffffffffffffffffffffff021916908373ffffffffffffffffffffffffffffffffffffffff16021790555081600060186101000a81548167ffffffffffffffff021916908367ffffffffffffffff16021790555080600881905550505050505050505050506200048c565b6000815190506200022a816200040a565b92915050565b600081519050620002418162000424565b92915050565b60008151905062000258816200043e565b92915050565b6000815190506200026f8162000458565b92915050565b600081519050620002868162000472565b92915050565b6000806000806000806000806000806101408b8d031215620002ad57600080fd5b6000620002bd8d828e0162000247565b9a50506020620002d08d828e0162000219565b9950506040620002e38d828e0162000230565b9850506060620002f68d828e0162000275565b9750506080620003098d828e0162000275565b96505060a06200031c8d828e016200025e565b95505060c06200032f8d828e016200025e565b94505060e0620003428d828e016200025e565b935050610100620003568d828e0162000275565b9250506101206200036a8d828e016200025e565b9150509295989b9194979a5092959850565b60006200038982620003cc565b9050919050565b60006200039d826200037c565b9050919050565b6000620003b1826200037c565b9050919050565b6000620003c5826200037c565b9050919050565b600073ffffffffffffffffffffffffffffffffffffffff82169050919050565b6000819050919050565b600067ffffffffffffffff82169050919050565b620004158162000390565b81146200042157600080fd5b50565b6200042f81620003a4565b81146200043b57600080fd5b50565b6200044981620003b8565b81146200045557600080fd5b50565b6200046381620003ec565b81146200046f57600080fd5b50565b6200047d81620003f6565b81146200048957600080fd5b50565b614833806200049c6000396000f3fe608060405234801561001057600080fd5b50600436106102065760003560e01c80637f85de671161011a578063a10340bc116100ad578063c816841b1161007c578063c816841b14610657578063da68cf8b14610675578063ef78d4fd14610693578063f3f11b9d146106b1578063ff5c86b0146106e157610206565b8063a10340bc146105b5578063aea0b20f146105ed578063b1eb840514610609578063c45a01551461063957610206565b806389da88a3116100e957806389da88a31461052d5780639495833c1461054b57806396b2c6f31461057b578063a00398861461058557610206565b80637f85de671461046d5780638608fe351461049d578063888bdbcd146104cd5780638949f08f146104fd57610206565b8063450847751161019d57806360f65c601161016c57806360f65c60146103b557806361e92d5b146103e55780636f7cb60b146104155780637358c57a146104315780637e9966391461044f57610206565b8063450847751461032b578063499a0fc414610349578063527eb4bc146103675780635455a4501461038557610206565b80631dec988e116101d95780631dec988e146102a35780632f3dc5d4146102bf5780633d09a82a146102ef578063410f07101461030d57610206565b8063050e88401461020b57806307576b9f1461023b5780630b508641146102575780630ef1927314610273575b600080fd5b61022560048036038101906102209190613890565b6106ff565b6040516102329190613f90565b60405180910390f35b61025560048036038101906102509190613947565b610723565b005b610271600480360381019061026c91906138e2565b610fbb565b005b61028d6004803603810190610288919061378a565b6113a0565b60405161029a9190613f90565b60405180910390f35b6102bd60048036038101906102b89190613947565b6113ec565b005b6102d960048036038101906102d491906138e2565b61193b565b6040516102e69190613fab565b60405180910390f35b6102f76119df565b6040516103049190613f90565b60405180910390f35b6103156119e5565b6040516103229190613f90565b60405180910390f35b6103336119eb565b6040516103409190613cbe565b60405180910390f35b610351611a11565b60405161035e9190613f90565b60405180910390f35b61036f611a17565b60405161037c9190613fab565b60405180910390f35b61039f600480360381019061039a919061390b565b611a31565b6040516103ac9190613f90565b60405180910390f35b6103cf60048036038101906103ca91906137dc565b611b42565b6040516103dc9190613f90565b60405180910390f35b6103ff60048036038101906103fa91906138e2565b611b73565b60405161040c9190613f90565b60405180910390f35b61042f600480360381019061042a9190613890565b611ba0565b005b610439611dff565b6040516104469190613fab565b60405180910390f35b610457611e19565b6040516104649190613f90565b60405180910390f35b610487600480360381019061048291906138e2565b611e1f565b6040516104949190613fab565b60405180910390f35b6104b760048036038101906104b2919061390b565b611e5f565b6040516104c49190613f90565b60405180910390f35b6104e760048036038101906104e29190613890565b611ecc565b6040516104f49190613f90565b60405180910390f35b61051760048036038101906105129190613947565b611f0f565b6040516105249190613f90565b60405180910390f35b610535611f84565b6040516105429190613f90565b60405180910390f35b6105656004803603810190610560919061378a565b611f91565b6040516105729190613d62565b60405180910390f35b610583612028565b005b61059f600480360381019061059a91906138e2565b61231a565b6040516105ac9190613fab565b60405180910390f35b6105cf60048036038101906105ca9190613890565b61255f565b6040516105e499989796959493929190613fef565b60405180910390f35b610607600480360381019061060291906138e2565b61260a565b005b610623600480360381019061061e91906138e2565b612ed2565b6040516106309190613f90565b60405180910390f35b610641612efc565b60405161064e9190613dba565b60405180910390f35b61065f612f22565b60405161066c9190613d9f565b60405180910390f35b61067d612f48565b60405161068a9190613d84565b60405180910390f35b61069b612f6e565b6040516106a89190613fab565b60405180910390f35b6106cb60048036038101906106c6919061390b565b612f86565b6040516106d89190613f75565b60405180910390f35b6106e96130c3565b6040516106f69190613fab565b60405180910390f35b600c818154811061070f57600080fd5b906000526020600020016000915090505481565b806000620186a06004548361073891906141ed565b610742919061418b565b9050600854811015610789576040517f08c379a000000000000000000000000000000000000000000000000000000000815260040161078090613e95565b60405180910390fd5b60006107948661231a565b905060006107a282876130dd565b90506107ad4261193b565b67ffffffffffffffff168267ffffffffffffffff161015610803576040517f08c379a00000000000000000000000000000000000000000000000000000000081526004016107fa90613f35565b60405180910390fd5b600a60008367ffffffffffffffff168152602001908152602001600020600701600082815260200190815260200160002060010160009054906101000a900473ffffffffffffffffffffffffffffffffffffffff1673ffffffffffffffffffffffffffffffffffffffff163373ffffffffffffffffffffffffffffffffffffffff1614156108c6576040517f08c379a00000000000000000000000000000000000000000000000000000000081526004016108bd90613f15565b60405180910390fd5b60006108d28387611a31565b905080600a60008567ffffffffffffffff16815260200190815260200160002060070160008481526020019081526020016000206002015461091491906140c6565b600660009054906101000a900473ffffffffffffffffffffffffffffffffffffffff1673ffffffffffffffffffffffffffffffffffffffff1663dd62ed3e33306040518363ffffffff1660e01b8152600401610971929190613cd9565b60206040518083038186803b15801561098957600080fd5b505afa15801561099d573d6000803e3d6000fd5b505050506040513d601f19601f820116820180604052508101906109c191906138b9565b1015610a02576040517f08c379a00000000000000000000000000000000000000000000000000000000081526004016109f990613eb5565b60405180910390fd5b600660009054906101000a900473ffffffffffffffffffffffffffffffffffffffff1673ffffffffffffffffffffffffffffffffffffffff166323b872dd333084600a60008967ffffffffffffffff168152602001908152602001600020600701600088815260200190815260200160002060020154610a8291906140c6565b6040518463ffffffff1660e01b8152600401610aa093929190613d02565b602060405180830381600087803b158015610aba57600080fd5b505af1158015610ace573d6000803e3d6000fd5b505050506040513d601f19601f82011682018060405250810190610af29190613818565b5080600a60008567ffffffffffffffff16815260200190815260200160002060020154610b1f91906140c6565b600a60008567ffffffffffffffff1681526020019081526020016000206002018190555060016002811115610b7d577f4e487b7100000000000000000000000000000000000000000000000000000000600052602160045260246000fd5b600a60008567ffffffffffffffff168152602001908152602001600020600701600084815260200190815260200160002060030160009054906101000a900460ff166002811115610bf7577f4e487b7100000000000000000000000000000000000000000000000000000000600052602160045260246000fd5b1415610dd8576000610c3d84600a60008767ffffffffffffffff168152602001908152602001600020600701600086815260200190815260200160002060020154611a31565b9050600660009054906101000a900473ffffffffffffffffffffffffffffffffffffffff1673ffffffffffffffffffffffffffffffffffffffff1663a9059cbb600a60008767ffffffffffffffff168152602001908152602001600020600701600086815260200190815260200160002060010160009054906101000a900473ffffffffffffffffffffffffffffffffffffffff16600a60008867ffffffffffffffff16815260200190815260200160002060070160008781526020019081526020016000206002015484610d1291906140c6565b6040518363ffffffff1660e01b8152600401610d2f929190613d39565b602060405180830381600087803b158015610d4957600080fd5b505af1158015610d5d573d6000803e3d6000fd5b505050506040513d601f19601f82011682018060405250810190610d819190613818565b5080600a60008667ffffffffffffffff16815260200190815260200160002060020154610dae9190614247565b600a60008667ffffffffffffffff1681526020019081526020016000206002018190555050610e5c565b6001600a60008567ffffffffffffffff168152602001908152602001600020600701600084815260200190815260200160002060030160006101000a81548160ff02191690836002811115610e56577f4e487b7100000000000000000000000000000000000000000000000000000000600052602160045260246000fd5b02179055505b33600a60008567ffffffffffffffff168152602001908152602001600020600701600084815260200190815260200160002060010160006101000a81548173ffffffffffffffffffffffffffffffffffffffff021916908373ffffffffffffffffffffffffffffffffffffffff16021790555085600a60008567ffffffffffffffff168152602001908152602001600020600701600084815260200190815260200160002060020181905550600b60003373ffffffffffffffffffffffffffffffffffffffff1673ffffffffffffffffffffffffffffffffffffffff16815260200190815260200160002083908060018154018082558091505060019003906000526020600020016000909167ffffffffffffffff169091909150557f1971c2bc6c1c3b3c45e5176a769c713f43492ad3c45a830be5a38d27dfa1c4cb8383604051610fa9929190613fc6565b60405180910390a15050505050505050565b60026003811115610ff5577f4e487b7100000000000000000000000000000000000000000000000000000000600052602160045260246000fd5b600a60008367ffffffffffffffff16815260200190815260200160002060050160009054906101000a900460ff16600381111561105b577f4e487b7100000000000000000000000000000000000000000000000000000000600052602160045260246000fd5b1461109b576040517f08c379a000000000000000000000000000000000000000000000000000000000815260040161109290613ef5565b60405180910390fd5b60006110c6600a60008467ffffffffffffffff16815260200190815260200160002060010154611ecc565b9050600280811115611101577f4e487b7100000000000000000000000000000000000000000000000000000000600052602160045260246000fd5b600a60008467ffffffffffffffff168152602001908152602001600020600701600083815260200190815260200160002060030160009054906101000a900460ff16600281111561117b577f4e487b7100000000000000000000000000000000000000000000000000000000600052602160045260246000fd5b14156111bc576040517f08c379a00000000000000000000000000000000000000000000000000000000081526004016111b390613e75565b60405180910390fd5b600660009054906101000a900473ffffffffffffffffffffffffffffffffffffffff1673ffffffffffffffffffffffffffffffffffffffff1663a9059cbb600a60008567ffffffffffffffff168152602001908152602001600020600701600084815260200190815260200160002060010160009054906101000a900473ffffffffffffffffffffffffffffffffffffffff16600a60008667ffffffffffffffff168152602001908152602001600020600201546040518363ffffffff1660e01b815260040161128d929190613d39565b602060405180830381600087803b1580156112a757600080fd5b505af11580156112bb573d6000803e3d6000fd5b505050506040513d601f19601f820116820180604052508101906112df9190613818565b506002600a60008467ffffffffffffffff168152602001908152602001600020600701600083815260200190815260200160002060030160006101000a81548160ff0219169083600281111561135e577f4e487b7100000000000000000000000000000000000000000000000000000000600052602160045260246000fd5b02179055507f1971c2bc6c1c3b3c45e5176a769c713f43492ad3c45a830be5a38d27dfa1c4cb8282604051611394929190613fc6565b60405180910390a15050565b6000600b60008373ffffffffffffffffffffffffffffffffffffffff1673ffffffffffffffffffffffffffffffffffffffff168152602001908152602001600020805490509050919050565b806000620186a06004548361140191906141ed565b61140b919061418b565b9050600854811015611452576040517f08c379a000000000000000000000000000000000000000000000000000000000815260040161144990613e95565b60405180910390fd5b600061145d8661231a565b9050600061146b82876130dd565b90503373ffffffffffffffffffffffffffffffffffffffff16600a60008467ffffffffffffffff168152602001908152602001600020600701600083815260200190815260200160002060010160009054906101000a900473ffffffffffffffffffffffffffffffffffffffff1673ffffffffffffffffffffffffffffffffffffffff161461152f576040517f08c379a000000000000000000000000000000000000000000000000000000000815260040161152690613ed5565b60405180910390fd5b600061153b8387611a31565b9050600061157d84600a60008767ffffffffffffffff168152602001908152602001600020600701600086815260200190815260200160002060020154611a31565b90508082111561179e5780826115939190614247565b600660009054906101000a900473ffffffffffffffffffffffffffffffffffffffff1673ffffffffffffffffffffffffffffffffffffffff1663dd62ed3e33306040518363ffffffff1660e01b81526004016115f0929190613cd9565b60206040518083038186803b15801561160857600080fd5b505afa15801561161c573d6000803e3d6000fd5b505050506040513d601f19601f8201168201806040525081019061164091906138b9565b1015611681576040517f08c379a000000000000000000000000000000000000000000000000000000000815260040161167890613eb5565b60405180910390fd5b600660009054906101000a900473ffffffffffffffffffffffffffffffffffffffff1673ffffffffffffffffffffffffffffffffffffffff166323b872dd333084866116cd9190614247565b6040518463ffffffff1660e01b81526004016116eb93929190613d02565b602060405180830381600087803b15801561170557600080fd5b505af1158015611719573d6000803e3d6000fd5b505050506040513d601f19601f8201168201806040525081019061173d9190613818565b50808261174a9190614247565b600a60008667ffffffffffffffff1681526020019081526020016000206002015461177591906140c6565b600a60008667ffffffffffffffff168152602001908152602001600020600201819055506118be565b808210156118bd57600660009054906101000a900473ffffffffffffffffffffffffffffffffffffffff1673ffffffffffffffffffffffffffffffffffffffff1663a9059cbb3384846117f19190614247565b6040518363ffffffff1660e01b815260040161180e929190613d39565b602060405180830381600087803b15801561182857600080fd5b505af115801561183c573d6000803e3d6000fd5b505050506040513d601f19601f820116820180604052508101906118609190613818565b50818161186d9190614247565b600a60008667ffffffffffffffff168152602001908152602001600020600201546118989190614247565b600a60008667ffffffffffffffff168152602001908152602001600020600201819055505b5b86600a60008667ffffffffffffffff1681526020019081526020016000206007016000858152602001908152602001600020600201819055507f1971c2bc6c1c3b3c45e5176a769c713f43492ad3c45a830be5a38d27dfa1c4cb8484604051611928929190613fc6565b60405180910390a1505050505050505050565b60008060089054906101000a900467ffffffffffffffff1667ffffffffffffffff168267ffffffffffffffff161161198b57600060089054906101000a900467ffffffffffffffff1690506119da565b60008054906101000a900467ffffffffffffffff16600060089054906101000a900467ffffffffffffffff16836119c291906142af565b6119cc9190614478565b826119d791906142af565b90505b919050565b60085481565b60035481565b600760009054906101000a900473ffffffffffffffffffffffffffffffffffffffff1681565b60025481565b600060109054906101000a900467ffffffffffffffff1681565b60008042611a5d60008054906101000a900467ffffffffffffffff1642611a58919061411c565b61193b565b67ffffffffffffffff16611a719190614247565b905060008060009054906101000a900467ffffffffffffffff1667ffffffffffffffff1682600954611aa391906141ed565b611aad919061418b565b90506000611aba86611e1f565b90508067ffffffffffffffff16620186a060045487611ad991906141ed565b611ae3919061418b565b611aed91906141ed565b93506000620186a060045487611b0391906141ed565b611b0d919061418b565b90506009548382611b1e91906141ed565b611b28919061418b565b90508085611b3691906140c6565b94505050505092915050565b600b6020528160005260406000208181548110611b5e57600080fd5b90600052602060002001600091509150505481565b6000600a60008367ffffffffffffffff168152602001908152602001600020600601805490509050919050565b600560009054906101000a900473ffffffffffffffffffffffffffffffffffffffff1673ffffffffffffffffffffffffffffffffffffffff16638da5cb5b6040518163ffffffff1660e01b815260040160206040518083038186803b158015611c0857600080fd5b505afa158015611c1c573d6000803e3d6000fd5b505050506040513d601f19601f82011682018060405250810190611c4091906137b3565b73ffffffffffffffffffffffffffffffffffffffff163373ffffffffffffffffffffffffffffffffffffffff1614611cad576040517f08c379a0000000000000000000000000000000000000000000000000000000008152600401611ca490613df5565b60405180910390fd5b600660009054906101000a900473ffffffffffffffffffffffffffffffffffffffff1673ffffffffffffffffffffffffffffffffffffffff1663a9059cbb600560009054906101000a900473ffffffffffffffffffffffffffffffffffffffff1673ffffffffffffffffffffffffffffffffffffffff16638da5cb5b6040518163ffffffff1660e01b815260040160206040518083038186803b158015611d5357600080fd5b505afa158015611d67573d6000803e3d6000fd5b505050506040513d601f19601f82011682018060405250810190611d8b91906137b3565b836040518363ffffffff1660e01b8152600401611da9929190613d39565b602060405180830381600087803b158015611dc357600080fd5b505af1158015611dd7573d6000803e3d6000fd5b505050506040513d601f19601f82011682018060405250810190611dfb9190613818565b5050565b600060089054906101000a900467ffffffffffffffff1681565b60045481565b6000600160008054906101000a900467ffffffffffffffff164284611e4491906142af565b611e4e91906141bc565b611e58919061411c565b9050919050565b6000600a60008467ffffffffffffffff1681526020019081526020016000206006018281548110611eb9577f4e487b7100000000000000000000000000000000000000000000000000000000600052603260045260246000fd5b9060005260206000200154905092915050565b6000808211611edf576002549050611f0a565b60025460025460025484611ef3919061418b565b611efd91906141ed565b611f0791906140c6565b90505b919050565b600080611f1b8561193b565b90506000611f2885611ecc565b90506000611f368386611a31565b905080600a60008567ffffffffffffffff168152602001908152602001600020600701600084815260200190815260200160002060020154611f7891906140c6565b93505050509392505050565b6000600c80549050905090565b6060600b60008373ffffffffffffffffffffffffffffffffffffffff1673ffffffffffffffffffffffffffffffffffffffff16815260200190815260200160002080548060200260200160405190810160405280929190818152602001828054801561201c57602002820191906000526020600020905b815481526020019060010190808311612008575b50505050509050919050565b6000806120344261193b565b905043600a60008367ffffffffffffffff16815260200190815260200160002060000160186101000a81548167ffffffffffffffff021916908367ffffffffffffffff160217905550600060189054906101000a900467ffffffffffffffff1660008054906101000a900467ffffffffffffffff16826120b4919061411c565b6120be91906142af565b67ffffffffffffffff1642101580156120f757506000600a60008367ffffffffffffffff16815260200190815260200160002060030154145b156121e257612127600160009054906101000a900473ffffffffffffffffffffffffffffffffffffffff16613238565b8063ffffffff169050600a60008567ffffffffffffffff1681526020019081526020016000206003016000600a60008767ffffffffffffffff16815260200190815260200160002060000160088491906101000a81548167ffffffffffffffff021916908367ffffffffffffffff16021790555083965084919050555050507f7b82e6c3260c9e2f54af2895ca2e183fab07f3ff1cba1c9aa5b8b956897d9334816040516121d59190613fab565b60405180910390a1612316565b600060189054906101000a900467ffffffffffffffff1660008054906101000a900467ffffffffffffffff1682612219919061411c565b61222391906142af565b67ffffffffffffffff1642106123155761225e600160009054906101000a900473ffffffffffffffffffffffffffffffffffffffff16613238565b8063ffffffff169050600a60008567ffffffffffffffff1681526020019081526020016000206004016000600a60008767ffffffffffffffff16815260200190815260200160002060000160108491906101000a81548167ffffffffffffffff021916908367ffffffffffffffff16021790555083965084919050555050507f7b82e6c3260c9e2f54af2895ca2e183fab07f3ff1cba1c9aa5b8b956897d93348160405161230c9190613fab565b60405180910390a15b5b5050565b6000806123268361193b565b905060006003811115612362577f4e487b7100000000000000000000000000000000000000000000000000000000600052602160045260246000fd5b600a60008367ffffffffffffffff16815260200190815260200160002060050160009054906101000a900460ff1660038111156123c8577f4e487b7100000000000000000000000000000000000000000000000000000000600052602160045260246000fd5b146123d6578091505061255a565b6123df4261193b565b67ffffffffffffffff168167ffffffffffffffff161015612435576040517f08c379a000000000000000000000000000000000000000000000000000000000815260040161242c90613e35565b60405180910390fd5b80600a60008367ffffffffffffffff16815260200190815260200160002060000160006101000a81548167ffffffffffffffff021916908367ffffffffffffffff1602179055506001600a60008367ffffffffffffffff16815260200190815260200160002060050160006101000a81548160ff021916908360038111156124e6577f4e487b7100000000000000000000000000000000000000000000000000000000600052602160045260246000fd5b0217905550600c81908060018154018082558091505060019003906000526020600020016000909167ffffffffffffffff169091909150557f7b82e6c3260c9e2f54af2895ca2e183fab07f3ff1cba1c9aa5b8b956897d93348160405161254d9190613fab565b60405180910390a1809150505b919050565b600a6020528060005260406000206000915090508060000160009054906101000a900467ffffffffffffffff16908060000160089054906101000a900467ffffffffffffffff16908060000160109054906101000a900467ffffffffffffffff16908060000160189054906101000a900467ffffffffffffffff16908060010154908060020154908060030154908060040154908060050160009054906101000a900460ff16905089565b8067ffffffffffffffff166000600a60008381526020019081526020016000206003015411158061265257506000600a60008381526020019081526020016000206004015411155b156126f7576003600a600083815260200190815260200160002060050160006101000a81548160ff021916908360038111156126b7577f4e487b7100000000000000000000000000000000000000000000000000000000600052602160045260246000fd5b02179055506040517f08c379a00000000000000000000000000000000000000000000000000000000081526004016126ee90613e55565b60405180910390fd5b600a600082815260200190815260200160002060040154600a60008381526020019081526020016000206003015414156127cb576003600a600083815260200190815260200160002060050160006101000a81548160ff0219169083600381111561278b577f4e487b7100000000000000000000000000000000000000000000000000000000600052602160045260246000fd5b02179055506040517f08c379a00000000000000000000000000000000000000000000000000000000081526004016127c290613e55565b60405180910390fd5b60016003811115612805577f4e487b7100000000000000000000000000000000000000000000000000000000600052602160045260246000fd5b600a60008467ffffffffffffffff16815260200190815260200160002060050160009054906101000a900460ff16600381111561286b577f4e487b7100000000000000000000000000000000000000000000000000000000600052602160045260246000fd5b146128ab576040517f08c379a00000000000000000000000000000000000000000000000000000000081526004016128a290613e15565b60405180910390fd5b4260008054906101000a900467ffffffffffffffff16836128cc919061411c565b67ffffffffffffffff161115612917576040517f08c379a000000000000000000000000000000000000000000000000000000000815260040161290e90613dd5565b60405180910390fd5b6002600a60008467ffffffffffffffff16815260200190815260200160002060050160006101000a81548160ff02191690836003811115612981577f4e487b7100000000000000000000000000000000000000000000000000000000600052602160045260246000fd5b02179055506000600a60008467ffffffffffffffff16815260200190815260200160002060030154600a60008567ffffffffffffffff168152602001908152602001600020600401546129d49190614247565b90506000600a60008567ffffffffffffffff16815260200190815260200160002060000160089054906101000a900467ffffffffffffffff16600a60008667ffffffffffffffff16815260200190815260200160002060000160109054906101000a900467ffffffffffffffff16612a4c91906142af565b67ffffffffffffffff169050612a8e6040518060200160405280847bffffffffffffffffffffffffffffffffffffffffffffffffffffffff1681525082613493565b600001517bffffffffffffffffffffffffffffffffffffffffffffffffffffffff16600a60008667ffffffffffffffff168152602001908152602001600020600101819055507406d79f82328ea3da61e066ebb2f88a0000000000006070600a60008767ffffffffffffffff16815260200190815260200160002060010154901b612b19919061418b565b6009546070600a60008867ffffffffffffffff16815260200190815260200160002060010154901c612b4b91906141ed565b612b5591906140c6565b600a60008667ffffffffffffffff168152602001908152602001600020600101819055506000620186a0600354600a60008867ffffffffffffffff16815260200190815260200160002060020154612bad91906141ed565b612bb7919061418b565b90506000620186a0600060109054906101000a900467ffffffffffffffff1667ffffffffffffffff16600a60008967ffffffffffffffff16815260200190815260200160002060020154612c0b91906141ed565b612c15919061418b565b90508082600a60008967ffffffffffffffff16815260200190815260200160002060020154612c449190614247565b612c4e9190614247565b600a60008867ffffffffffffffff16815260200190815260200160002060020181905550600660009054906101000a900473ffffffffffffffffffffffffffffffffffffffff1673ffffffffffffffffffffffffffffffffffffffff1663a9059cbb600760009054906101000a900473ffffffffffffffffffffffffffffffffffffffff16846040518363ffffffff1660e01b8152600401612cf1929190613d39565b602060405180830381600087803b158015612d0b57600080fd5b505af1158015612d1f573d6000803e3d6000fd5b505050506040513d601f19601f82011682018060405250810190612d439190613818565b50600660009054906101000a900473ffffffffffffffffffffffffffffffffffffffff1673ffffffffffffffffffffffffffffffffffffffff1663a9059cbb600560009054906101000a900473ffffffffffffffffffffffffffffffffffffffff1673ffffffffffffffffffffffffffffffffffffffff16638da5cb5b6040518163ffffffff1660e01b815260040160206040518083038186803b158015612dea57600080fd5b505afa158015612dfe573d6000803e3d6000fd5b505050506040513d601f19601f82011682018060405250810190612e2291906137b3565b836040518363ffffffff1660e01b8152600401612e40929190613d39565b602060405180830381600087803b158015612e5a57600080fd5b505af1158015612e6e573d6000803e3d6000fd5b505050506040513d601f19601f82011682018060405250810190612e929190613818565b507f7b82e6c3260c9e2f54af2895ca2e183fab07f3ff1cba1c9aa5b8b956897d933486604051612ec29190613fab565b60405180910390a1505050505050565b6000600a60008367ffffffffffffffff168152602001908152602001600020600201549050919050565b600560009054906101000a900473ffffffffffffffffffffffffffffffffffffffff1681565b600160009054906101000a900473ffffffffffffffffffffffffffffffffffffffff1681565b600660009054906101000a900473ffffffffffffffffffffffffffffffffffffffff1681565b60008054906101000a900467ffffffffffffffff1681565b612f8e61363b565b600a60008467ffffffffffffffff1681526020019081526020016000206007016000838152602001908152602001600020604051806080016040529081600082015481526020016001820160009054906101000a900473ffffffffffffffffffffffffffffffffffffffff1673ffffffffffffffffffffffffffffffffffffffff1673ffffffffffffffffffffffffffffffffffffffff168152602001600282015481526020016003820160009054906101000a900460ff16600281111561307f577f4e487b7100000000000000000000000000000000000000000000000000000000600052602160045260246000fd5b60028111156130b7577f4e487b7100000000000000000000000000000000000000000000000000000000600052602160045260246000fd5b81525050905092915050565b600060189054906101000a900467ffffffffffffffff1681565b6000806130e983611ecc565b905060006002811115613125577f4e487b7100000000000000000000000000000000000000000000000000000000600052602160045260246000fd5b600a60008667ffffffffffffffff168152602001908152602001600020600701600083815260200190815260200160002060030160009054906101000a900460ff16600281111561319f577f4e487b7100000000000000000000000000000000000000000000000000000000600052602160045260246000fd5b146131ad5780915050613232565b80600a60008667ffffffffffffffff168152602001908152602001600020600701600083815260200190815260200160002060000181905550600a60008567ffffffffffffffff168152602001908152602001600020600601819080600181540180825580915050600190039060005260206000200160009091909190915055809150505b92915050565b6000806000613245613543565b90508373ffffffffffffffffffffffffffffffffffffffff16635909c0d56040518163ffffffff1660e01b815260040160206040518083038186803b15801561328d57600080fd5b505afa1580156132a1573d6000803e3d6000fd5b505050506040513d601f19601f820116820180604052508101906132c591906138b9565b92508373ffffffffffffffffffffffffffffffffffffffff16635a3d54936040518163ffffffff1660e01b815260040160206040518083038186803b15801561330d57600080fd5b505afa158015613321573d6000803e3d6000fd5b505050506040513d601f19601f8201168201806040525081019061334591906138b9565b915060008060008673ffffffffffffffffffffffffffffffffffffffff16630902f1ac6040518163ffffffff1660e01b815260040160606040518083038186803b15801561339257600080fd5b505afa1580156133a6573d6000803e3d6000fd5b505050506040513d601f19601f820116820180604052508101906133ca9190613841565b9250925092508363ffffffff168163ffffffff161461348957600081856133f1919061427b565b90508063ffffffff16613404848661355b565b600001517bffffffffffffffffffffffffffffffffffffffffffffffffffffffff1661343091906141ed565b8761343b91906140c6565b96508063ffffffff1661344e858561355b565b600001517bffffffffffffffffffffffffffffffffffffffffffffffffffffffff1661347a91906141ed565b8661348591906140c6565b9550505b5050509193909250565b61349b6136b1565b6000826dffffffffffffffffffffffffffff1614156134ef576040517f08c379a00000000000000000000000000000000000000000000000000000000081526004016134e690613f55565b60405180910390fd5b6040518060200160405280836dffffffffffffffffffffffffffff16856000015161351a919061415a565b7bffffffffffffffffffffffffffffffffffffffffffffffffffffffff16815250905092915050565b6000640100000000426135569190614447565b905090565b6135636136b1565b6000826dffffffffffffffffffffffffffff16116135b6576040517f08c379a00000000000000000000000000000000000000000000000000000000081526004016135ad90613f55565b60405180910390fd5b6040518060200160405280836dffffffffffffffffffffffffffff16607060ff16866dffffffffffffffffffffffffffff167bffffffffffffffffffffffffffffffffffffffffffffffffffffffff16901b613612919061415a565b7bffffffffffffffffffffffffffffffffffffffffffffffffffffffff16815250905092915050565b604051806080016040528060008152602001600073ffffffffffffffffffffffffffffffffffffffff16815260200160008152602001600060028111156136ab577f4e487b7100000000000000000000000000000000000000000000000000000000600052602160045260246000fd5b81525090565b604051806020016040528060007bffffffffffffffffffffffffffffffffffffffffffffffffffffffff1681525090565b6000813590506136f181614773565b92915050565b60008151905061370681614773565b92915050565b60008151905061371b8161478a565b92915050565b600081519050613730816147a1565b92915050565b600081359050613745816147b8565b92915050565b60008151905061375a816147b8565b92915050565b60008151905061376f816147cf565b92915050565b600081359050613784816147e6565b92915050565b60006020828403121561379c57600080fd5b60006137aa848285016136e2565b91505092915050565b6000602082840312156137c557600080fd5b60006137d3848285016136f7565b91505092915050565b600080604083850312156137ef57600080fd5b60006137fd858286016136e2565b925050602061380e85828601613736565b9150509250929050565b60006020828403121561382a57600080fd5b60006138388482850161370c565b91505092915050565b60008060006060848603121561385657600080fd5b600061386486828701613721565b935050602061387586828701613721565b925050604061388686828701613760565b9150509250925092565b6000602082840312156138a257600080fd5b60006138b084828501613736565b91505092915050565b6000602082840312156138cb57600080fd5b60006138d98482850161374b565b91505092915050565b6000602082840312156138f457600080fd5b600061390284828501613775565b91505092915050565b6000806040838503121561391e57600080fd5b600061392c85828601613775565b925050602061393d85828601613736565b9150509250929050565b60008060006060848603121561395c57600080fd5b600061396a86828701613775565b935050602061397b86828701613736565b925050604061398c86828701613736565b9150509250925092565b60006139a28383613c91565b60208301905092915050565b6139b7816142e3565b82525050565b6139c6816142e3565b82525050565b60006139d78261408c565b6139e181856140a4565b93506139ec8361407c565b8060005b83811015613a1d578151613a048882613996565b9750613a0f83614097565b9250506001810190506139f0565b5085935050505092915050565b613a33816143b7565b82525050565b613a42816143db565b82525050565b613a51816143ff565b82525050565b613a6081614423565b82525050565b613a6f81614435565b82525050565b6000613a82601a836140b5565b9150613a8d82614536565b602082019050919050565b6000613aa56015836140b5565b9150613ab08261455f565b602082019050919050565b6000613ac86010836140b5565b9150613ad382614588565b602082019050919050565b6000613aeb601a836140b5565b9150613af6826145b1565b602082019050919050565b6000613b0e6013836140b5565b9150613b19826145da565b602082019050919050565b6000613b316013836140b5565b9150613b3c82614603565b602082019050919050565b6000613b546010836140b5565b9150613b5f8261462c565b602082019050919050565b6000613b776019836140b5565b9150613b8282614655565b602082019050919050565b6000613b9a6011836140b5565b9150613ba58261467e565b602082019050919050565b6000613bbd6010836140b5565b9150613bc8826146a7565b602082019050919050565b6000613be0601f836140b5565b9150613beb826146d0565b602082019050919050565b6000613c03601d836140b5565b9150613c0e826146f9565b602082019050919050565b6000613c266017836140b5565b9150613c3182614722565b602082019050919050565b608082016000820151613c526000850182613c91565b506020820151613c6560208501826139ae565b506040820151613c786040850182613c91565b506060820151613c8b6060850182613a66565b50505050565b613c9a81614389565b82525050565b613ca981614389565b82525050565b613cb8816143a3565b82525050565b6000602082019050613cd360008301846139bd565b92915050565b6000604082019050613cee60008301856139bd565b613cfb60208301846139bd565b9392505050565b6000606082019050613d1760008301866139bd565b613d2460208301856139bd565b613d316040830184613ca0565b949350505050565b6000604082019050613d4e60008301856139bd565b613d5b6020830184613ca0565b9392505050565b60006020820190508181036000830152613d7c81846139cc565b905092915050565b6000602082019050613d996000830184613a2a565b92915050565b6000602082019050613db46000830184613a39565b92915050565b6000602082019050613dcf6000830184613a48565b92915050565b60006020820190508181036000830152613dee81613a75565b9050919050565b60006020820190508181036000830152613e0e81613a98565b9050919050565b60006020820190508181036000830152613e2e81613abb565b9050919050565b60006020820190508181036000830152613e4e81613ade565b9050919050565b60006020820190508181036000830152613e6e81613b01565b9050919050565b60006020820190508181036000830152613e8e81613b24565b9050919050565b60006020820190508181036000830152613eae81613b47565b9050919050565b60006020820190508181036000830152613ece81613b6a565b9050919050565b60006020820190508181036000830152613eee81613b8d565b9050919050565b60006020820190508181036000830152613f0e81613bb0565b9050919050565b60006020820190508181036000830152613f2e81613bd3565b9050919050565b60006020820190508181036000830152613f4e81613bf6565b9050919050565b60006020820190508181036000830152613f6e81613c19565b9050919050565b6000608082019050613f8a6000830184613c3c565b92915050565b6000602082019050613fa56000830184613ca0565b92915050565b6000602082019050613fc06000830184613caf565b92915050565b6000604082019050613fdb6000830185613caf565b613fe86020830184613ca0565b9392505050565b600061012082019050614005600083018c613caf565b614012602083018b613caf565b61401f604083018a613caf565b61402c6060830189613caf565b6140396080830188613ca0565b61404660a0830187613ca0565b61405360c0830186613ca0565b61406060e0830185613ca0565b61406e610100830184613a57565b9a9950505050505050505050565b6000819050602082019050919050565b600081519050919050565b6000602082019050919050565b600082825260208201905092915050565b600082825260208201905092915050565b60006140d182614389565b91506140dc83614389565b9250827fffffffffffffffffffffffffffffffffffffffffffffffffffffffffffffffff03821115614111576141106144a9565b5b828201905092915050565b6000614127826143a3565b9150614132836143a3565b92508267ffffffffffffffff0382111561414f5761414e6144a9565b5b828201905092915050565b600061416582614361565b915061417083614361565b9250826141805761417f6144d8565b5b828204905092915050565b600061419682614389565b91506141a183614389565b9250826141b1576141b06144d8565b5b828204905092915050565b60006141c7826143a3565b91506141d2836143a3565b9250826141e2576141e16144d8565b5b828204905092915050565b60006141f882614389565b915061420383614389565b9250817fffffffffffffffffffffffffffffffffffffffffffffffffffffffffffffffff048311821515161561423c5761423b6144a9565b5b828202905092915050565b600061425282614389565b915061425d83614389565b9250828210156142705761426f6144a9565b5b828203905092915050565b600061428682614393565b915061429183614393565b9250828210156142a4576142a36144a9565b5b828203905092915050565b60006142ba826143a3565b91506142c5836143a3565b9250828210156142d8576142d76144a9565b5b828203905092915050565b60006142ee82614341565b9050919050565b60008115159050919050565b600081905061430f8261474b565b919050565b60008190506143228261475f565b919050565b60006dffffffffffffffffffffffffffff82169050919050565b600073ffffffffffffffffffffffffffffffffffffffff82169050919050565b60007bffffffffffffffffffffffffffffffffffffffffffffffffffffffff82169050919050565b6000819050919050565b600063ffffffff82169050919050565b600067ffffffffffffffff82169050919050565b60006143c2826143c9565b9050919050565b60006143d482614341565b9050919050565b60006143e6826143ed565b9050919050565b60006143f882614341565b9050919050565b600061440a82614411565b9050919050565b600061441c82614341565b9050919050565b600061442e82614301565b9050919050565b600061444082614314565b9050919050565b600061445282614389565b915061445d83614389565b92508261446d5761446c6144d8565b5b828206905092915050565b6000614483826143a3565b915061448e836143a3565b92508261449e5761449d6144d8565b5b828206905092915050565b7f4e487b7100000000000000000000000000000000000000000000000000000000600052601160045260246000fd5b7f4e487b7100000000000000000000000000000000000000000000000000000000600052601260045260246000fd5b7f4e487b7100000000000000000000000000000000000000000000000000000000600052602160045260246000fd5b7f4652414d4520454e442054494d45204e4f542052454143484544000000000000600082015250565b7f4e4f542054484520464143544f5259204f574e45520000000000000000000000600082015250565b7f4652414d45204e4f54204f50454e454400000000000000000000000000000000600082015250565b7f43414e275420435245415445204652414d4520494e2050415354000000000000600082015250565b7f494e56414c4944204652414d4520505249434500000000000000000000000000600082015250565b7f4c4f5420414c524541445920534554544c454400000000000000000000000000600082015250565b7f505249434520495320544f4f204c4f5700000000000000000000000000000000600082015250565b7f415050524f56454420414d4f554e5420544f4f20534d414c4c00000000000000600082015250565b7f4d555354204245204c4f54204f574e4552000000000000000000000000000000600082015250565b7f4652414d45204e4f5420434c4f53454400000000000000000000000000000000600082015250565b7f4144445245535320414c5245414459204f574e53205448452050415243454c00600082015250565b7f43414e2754204255592041204c4f542046524f4d205448452050415354000000600082015250565b7f4669786564506f696e743a204449565f42595f5a45524f000000000000000000600082015250565b6004811061475c5761475b614507565b5b50565b600381106147705761476f614507565b5b50565b61477c816142e3565b811461478757600080fd5b50565b614793816142f5565b811461479e57600080fd5b50565b6147aa81614327565b81146147b557600080fd5b50565b6147c181614389565b81146147cc57600080fd5b50565b6147d881614393565b81146147e357600080fd5b50565b6147ef816143a3565b81146147fa57600080fd5b5056fea26469706673582212207bfcf723514149113c931c2f0cefd0ef93122117179472cb1b27973f2f5bcb5364736f6c63430008040033",
  "linkReferences": {},
  "deployedLinkReferences": {}
}