{
  "_format": "hh-sol-artifact-1",
  "contractName": "Market",
  "sourceName": "contracts/Market.sol",
  "abi": [
    {
      "inputs": [
        {
          "internalType": "address",
          "name": "_acct",
          "type": "address"
        },
        {
          "internalType": "uint256",
          "name": "_feeProtocol",
          "type": "uint256"
        },
        {
          "internalType": "uint256",
          "name": "_taxMarket",
          "type": "uint256"
        },
        {
          "internalType": "uint256",
          "name": "_dPrice",
          "type": "uint256"
        },
        {
          "internalType": "address",
          "name": "_uniswapPool",
          "type": "address"
        }
      ],
      "stateMutability": "nonpayable",
      "type": "constructor"
    },
    {
      "anonymous": false,
      "inputs": [
        {
          "indexed": false,
          "internalType": "uint256",
          "name": "fromFrame",
          "type": "uint256"
        },
        {
          "indexed": false,
          "internalType": "uint256",
          "name": "toFrame",
          "type": "uint256"
        },
        {
          "indexed": false,
          "internalType": "uint256",
          "name": "amount",
          "type": "uint256"
        }
      ],
      "name": "FrameRollover",
      "type": "event"
    },
    {
      "anonymous": false,
      "inputs": [
        {
          "components": [
            {
              "internalType": "uint256",
              "name": "frameKey",
              "type": "uint256"
            },
            {
              "internalType": "uint256",
              "name": "rate",
              "type": "uint256"
            },
            {
              "internalType": "uint256[]",
              "name": "lotKeys",
              "type": "uint256[]"
            },
            {
              "internalType": "address",
              "name": "claimedBy",
              "type": "address"
            },
            {
              "internalType": "uint256",
              "name": "rateSettle",
              "type": "uint256"
            },
            {
              "internalType": "uint256",
              "name": "feeSettle",
              "type": "uint256"
            },
            {
              "internalType": "uint256",
              "name": "rewardSettle",
              "type": "uint256"
            },
            {
              "internalType": "uint256",
              "name": "rewardPool",
              "type": "uint256"
            }
          ],
          "indexed": false,
          "internalType": "struct Market.Frame",
          "name": "frame",
          "type": "tuple"
        }
      ],
      "name": "FrameUpdate",
      "type": "event"
    },
    {
      "anonymous": false,
      "inputs": [
        {
          "components": [
            {
              "internalType": "uint256",
              "name": "frameKey",
              "type": "uint256"
            },
            {
              "internalType": "uint256",
              "name": "lotKey",
              "type": "uint256"
            },
            {
              "components": [
                {
                  "internalType": "uint256",
                  "name": "blockNumber",
                  "type": "uint256"
                },
                {
                  "internalType": "uint256",
                  "name": "blockTimestamp",
                  "type": "uint256"
                },
                {
                  "internalType": "address",
                  "name": "owner",
                  "type": "address"
                },
                {
                  "internalType": "uint256",
                  "name": "acquisitionPrice",
                  "type": "uint256"
                },
                {
                  "internalType": "uint256",
                  "name": "taxCharged",
                  "type": "uint256"
                }
              ],
              "internalType": "struct Market.LotState[]",
              "name": "states",
              "type": "tuple[]"
            }
          ],
          "indexed": false,
          "internalType": "struct Market.Lot",
          "name": "lot",
          "type": "tuple"
        }
      ],
      "name": "LotUpdate",
      "type": "event"
    },
    {
      "anonymous": false,
      "inputs": [
        {
          "indexed": true,
          "internalType": "address",
          "name": "winner",
          "type": "address"
        },
        {
          "indexed": false,
          "internalType": "uint256",
          "name": "amount",
          "type": "uint256"
        },
        {
          "indexed": false,
          "internalType": "uint256",
          "name": "frameKey",
          "type": "uint256"
        }
      ],
      "name": "RewardDistributed",
      "type": "event"
    },
    {
      "anonymous": false,
      "inputs": [
        {
          "indexed": true,
          "internalType": "address",
          "name": "user",
          "type": "address"
        },
        {
          "indexed": false,
          "internalType": "uint256",
          "name": "amount",
          "type": "uint256"
        },
        {
          "indexed": false,
          "internalType": "uint256",
          "name": "frameKey",
          "type": "uint256"
        }
      ],
      "name": "TaxCollected",
      "type": "event"
    },
    {
      "inputs": [],
      "name": "accountingToken",
      "outputs": [
        {
          "internalType": "contract IERC20Metadata",
          "name": "",
          "type": "address"
        }
      ],
      "stateMutability": "view",
      "type": "function"
    },
    {
      "inputs": [],
      "name": "accountingTokenDecimals",
      "outputs": [
        {
          "internalType": "uint8",
          "name": "",
          "type": "uint8"
        }
      ],
      "stateMutability": "view",
      "type": "function"
    },
    {
      "inputs": [],
      "name": "baseUnit",
      "outputs": [
        {
          "internalType": "uint256",
          "name": "",
          "type": "uint256"
        }
      ],
      "stateMutability": "view",
      "type": "function"
    },
    {
      "inputs": [
        {
          "internalType": "uint256",
          "name": "newFee",
          "type": "uint256"
        }
      ],
      "name": "changeProtocolFee",
      "outputs": [],
      "stateMutability": "nonpayable",
      "type": "function"
    },
    {
      "inputs": [
        {
          "internalType": "uint256",
          "name": "newTax",
          "type": "uint256"
        }
      ],
      "name": "changeTaxPercentage",
      "outputs": [],
      "stateMutability": "nonpayable",
      "type": "function"
    },
    {
      "inputs": [
        {
          "internalType": "uint256",
          "name": "timestamp",
          "type": "uint256"
        }
      ],
      "name": "clcFrameKey",
      "outputs": [
        {
          "internalType": "uint256",
          "name": "",
          "type": "uint256"
        }
      ],
      "stateMutability": "view",
      "type": "function"
    },
    {
      "inputs": [
        {
          "internalType": "uint256",
          "name": "valueQ96",
          "type": "uint256"
        }
      ],
      "name": "clcLotKey",
      "outputs": [
        {
          "internalType": "uint256",
          "name": "",
          "type": "uint256"
        }
      ],
      "stateMutability": "view",
      "type": "function"
    },
    {
      "inputs": [],
      "name": "clcRate",
      "outputs": [
        {
          "internalType": "uint256",
          "name": "",
          "type": "uint256"
        }
      ],
      "stateMutability": "view",
      "type": "function"
    },
    {
      "inputs": [
        {
          "internalType": "uint256",
          "name": "timestamp",
          "type": "uint256"
        }
      ],
      "name": "clcRateAvg",
      "outputs": [
        {
          "internalType": "uint256",
          "name": "",
          "type": "uint256"
        }
      ],
      "stateMutability": "view",
      "type": "function"
    },
    {
      "inputs": [
        {
          "internalType": "uint256",
          "name": "frameKey",
          "type": "uint256"
        },
        {
          "internalType": "uint256",
          "name": "acquisitionPriceQ96",
          "type": "uint256"
        }
      ],
      "name": "clcTax",
      "outputs": [
        {
          "internalType": "uint256",
          "name": "",
          "type": "uint256"
        }
      ],
      "stateMutability": "view",
      "type": "function"
    },
    {
      "inputs": [
        {
          "internalType": "uint256",
          "name": "frameKey",
          "type": "uint256"
        },
        {
          "internalType": "uint256",
          "name": "lotKey",
          "type": "uint256"
        }
      ],
      "name": "concatenate",
      "outputs": [
        {
          "internalType": "uint256",
          "name": "concatenated",
          "type": "uint256"
        }
      ],
      "stateMutability": "pure",
      "type": "function"
    },
    {
      "inputs": [
        {
          "internalType": "uint256",
          "name": "amount18Dec",
          "type": "uint256"
        },
        {
          "internalType": "bool",
          "name": "round",
          "type": "bool"
        }
      ],
      "name": "convertToTokenDecimals",
      "outputs": [
        {
          "internalType": "uint256",
          "name": "",
          "type": "uint256"
        }
      ],
      "stateMutability": "view",
      "type": "function"
    },
    {
      "inputs": [],
      "name": "dPrice",
      "outputs": [
        {
          "internalType": "uint256",
          "name": "",
          "type": "uint256"
        }
      ],
      "stateMutability": "view",
      "type": "function"
    },
    {
      "inputs": [],
      "name": "feeProtocol",
      "outputs": [
        {
          "internalType": "uint256",
          "name": "",
          "type": "uint256"
        }
      ],
      "stateMutability": "view",
      "type": "function"
    },
    {
      "inputs": [
        {
          "internalType": "uint256",
          "name": "",
          "type": "uint256"
        }
      ],
      "name": "frameKeyToIndex",
      "outputs": [
        {
          "internalType": "uint256",
          "name": "",
          "type": "uint256"
        }
      ],
      "stateMutability": "view",
      "type": "function"
    },
    {
      "inputs": [
        {
          "internalType": "uint256",
          "name": "",
          "type": "uint256"
        }
      ],
      "name": "frames",
      "outputs": [
        {
          "internalType": "uint256",
          "name": "frameKey",
          "type": "uint256"
        },
        {
          "internalType": "uint256",
          "name": "rate",
          "type": "uint256"
        },
        {
          "internalType": "address",
          "name": "claimedBy",
          "type": "address"
        },
        {
          "internalType": "uint256",
          "name": "rateSettle",
          "type": "uint256"
        },
        {
          "internalType": "uint256",
          "name": "feeSettle",
          "type": "uint256"
        },
        {
          "internalType": "uint256",
          "name": "rewardSettle",
          "type": "uint256"
        },
        {
          "internalType": "uint256",
          "name": "rewardPool",
          "type": "uint256"
        }
      ],
      "stateMutability": "view",
      "type": "function"
    },
    {
      "inputs": [
        {
          "internalType": "uint256",
          "name": "",
          "type": "uint256"
        }
      ],
      "name": "framesKeys",
      "outputs": [
        {
          "internalType": "uint256",
          "name": "",
          "type": "uint256"
        }
      ],
      "stateMutability": "view",
      "type": "function"
    },
    {
      "inputs": [
        {
          "internalType": "uint256",
          "name": "x96",
          "type": "uint256"
        }
      ],
      "name": "fromQ96",
      "outputs": [
        {
          "internalType": "uint256",
          "name": "",
          "type": "uint256"
        }
      ],
      "stateMutability": "view",
      "type": "function"
    },
    {
      "inputs": [
        {
          "internalType": "uint256",
          "name": "frameKey",
          "type": "uint256"
        }
      ],
      "name": "getFrame",
      "outputs": [
        {
          "components": [
            {
              "internalType": "uint256",
              "name": "frameKey",
              "type": "uint256"
            },
            {
              "internalType": "uint256",
              "name": "rate",
              "type": "uint256"
            },
            {
              "internalType": "uint256[]",
              "name": "lotKeys",
              "type": "uint256[]"
            },
            {
              "internalType": "address",
              "name": "claimedBy",
              "type": "address"
            },
            {
              "internalType": "uint256",
              "name": "rateSettle",
              "type": "uint256"
            },
            {
              "internalType": "uint256",
              "name": "feeSettle",
              "type": "uint256"
            },
            {
              "internalType": "uint256",
              "name": "rewardSettle",
              "type": "uint256"
            },
            {
              "internalType": "uint256",
              "name": "rewardPool",
              "type": "uint256"
            }
          ],
          "internalType": "struct Market.Frame",
          "name": "",
          "type": "tuple"
        }
      ],
      "stateMutability": "view",
      "type": "function"
    },
    {
      "inputs": [
        {
          "internalType": "uint256",
          "name": "frameKey",
          "type": "uint256"
        }
      ],
      "name": "getFrameIndex",
      "outputs": [
        {
          "internalType": "uint256",
          "name": "",
          "type": "uint256"
        }
      ],
      "stateMutability": "view",
      "type": "function"
    },
    {
      "inputs": [
        {
          "internalType": "uint256",
          "name": "frameKey",
          "type": "uint256"
        }
      ],
      "name": "getFrameLotKeys",
      "outputs": [
        {
          "internalType": "uint256[]",
          "name": "",
          "type": "uint256[]"
        }
      ],
      "stateMutability": "view",
      "type": "function"
    },
    {
      "inputs": [],
      "name": "getFramesLength",
      "outputs": [
        {
          "internalType": "uint256",
          "name": "",
          "type": "uint256"
        }
      ],
      "stateMutability": "view",
      "type": "function"
    },
    {
      "inputs": [],
      "name": "getGlobalRewardPool",
      "outputs": [
        {
          "internalType": "uint256",
          "name": "",
          "type": "uint256"
        }
      ],
      "stateMutability": "view",
      "type": "function"
    },
    {
      "inputs": [
        {
          "internalType": "uint256",
          "name": "frameKey",
          "type": "uint256"
        },
        {
          "internalType": "uint256",
          "name": "lotKey",
          "type": "uint256"
        }
      ],
      "name": "getLot",
      "outputs": [
        {
          "components": [
            {
              "internalType": "uint256",
              "name": "frameKey",
              "type": "uint256"
            },
            {
              "internalType": "uint256",
              "name": "lotKey",
              "type": "uint256"
            },
            {
              "components": [
                {
                  "internalType": "uint256",
                  "name": "blockNumber",
                  "type": "uint256"
                },
                {
                  "internalType": "uint256",
                  "name": "blockTimestamp",
                  "type": "uint256"
                },
                {
                  "internalType": "address",
                  "name": "owner",
                  "type": "address"
                },
                {
                  "internalType": "uint256",
                  "name": "acquisitionPrice",
                  "type": "uint256"
                },
                {
                  "internalType": "uint256",
                  "name": "taxCharged",
                  "type": "uint256"
                }
              ],
              "internalType": "struct Market.LotState[]",
              "name": "states",
              "type": "tuple[]"
            }
          ],
          "internalType": "struct Market.Lot",
          "name": "",
          "type": "tuple"
        }
      ],
      "stateMutability": "view",
      "type": "function"
    },
    {
      "inputs": [
        {
          "internalType": "uint256",
          "name": "frameKey",
          "type": "uint256"
        },
        {
          "internalType": "uint256",
          "name": "lotKey",
          "type": "uint256"
        }
      ],
      "name": "getLotStates",
      "outputs": [
        {
          "components": [
            {
              "internalType": "uint256",
              "name": "blockNumber",
              "type": "uint256"
            },
            {
              "internalType": "uint256",
              "name": "blockTimestamp",
              "type": "uint256"
            },
            {
              "internalType": "address",
              "name": "owner",
              "type": "address"
            },
            {
              "internalType": "uint256",
              "name": "acquisitionPrice",
              "type": "uint256"
            },
            {
              "internalType": "uint256",
              "name": "taxCharged",
              "type": "uint256"
            }
          ],
          "internalType": "struct Market.LotState[]",
          "name": "",
          "type": "tuple[]"
        }
      ],
      "stateMutability": "view",
      "type": "function"
    },
    {
      "inputs": [],
      "name": "getLotsArray",
      "outputs": [
        {
          "internalType": "uint256[]",
          "name": "",
          "type": "uint256[]"
        }
      ],
      "stateMutability": "view",
      "type": "function"
    },
    {
      "inputs": [],
      "name": "getLotsArrayLength",
      "outputs": [
        {
          "internalType": "uint256",
          "name": "",
          "type": "uint256"
        }
      ],
      "stateMutability": "view",
      "type": "function"
    },
    {
      "inputs": [
        {
          "internalType": "uint256",
          "name": "frameKey",
          "type": "uint256"
        }
      ],
      "name": "getLotsKeysInFrame",
      "outputs": [
        {
          "internalType": "uint256[]",
          "name": "",
          "type": "uint256[]"
        }
      ],
      "stateMutability": "view",
      "type": "function"
    },
    {
      "inputs": [
        {
          "internalType": "uint256",
          "name": "frameKey",
          "type": "uint256"
        }
      ],
      "name": "getLotsLength",
      "outputs": [
        {
          "internalType": "uint256",
          "name": "",
          "type": "uint256"
        }
      ],
      "stateMutability": "view",
      "type": "function"
    },
    {
      "inputs": [],
      "name": "getPendingRewardForNextSettlement",
      "outputs": [
        {
          "internalType": "uint256",
          "name": "",
          "type": "uint256"
        }
      ],
      "stateMutability": "view",
      "type": "function"
    },
    {
      "inputs": [
        {
          "internalType": "uint256",
          "name": "frameKey",
          "type": "uint256"
        }
      ],
      "name": "getStateFrame",
      "outputs": [
        {
          "internalType": "enum Market.SFrame",
          "name": "",
          "type": "uint8"
        }
      ],
      "stateMutability": "view",
      "type": "function"
    },
    {
      "inputs": [
        {
          "internalType": "uint256",
          "name": "frameKey",
          "type": "uint256"
        },
        {
          "internalType": "uint256",
          "name": "lotKey",
          "type": "uint256"
        }
      ],
      "name": "getStateLot",
      "outputs": [
        {
          "internalType": "enum Market.SLot",
          "name": "",
          "type": "uint8"
        }
      ],
      "stateMutability": "view",
      "type": "function"
    },
    {
      "inputs": [
        {
          "internalType": "address",
          "name": "user",
          "type": "address"
        }
      ],
      "name": "getUserStats",
      "outputs": [
        {
          "internalType": "uint256",
          "name": "totalTaxPaid",
          "type": "uint256"
        },
        {
          "internalType": "uint256",
          "name": "totalWinnings",
          "type": "uint256"
        },
        {
          "internalType": "uint256",
          "name": "netPosition",
          "type": "uint256"
        }
      ],
      "stateMutability": "view",
      "type": "function"
    },
    {
      "inputs": [],
      "name": "initTimestamp",
      "outputs": [
        {
          "internalType": "uint256",
          "name": "",
          "type": "uint256"
        }
      ],
      "stateMutability": "view",
      "type": "function"
    },
    {
      "inputs": [],
      "name": "lastActiveFrameKey",
      "outputs": [
        {
          "internalType": "uint256",
          "name": "",
          "type": "uint256"
        }
      ],
      "stateMutability": "view",
      "type": "function"
    },
    {
      "inputs": [],
      "name": "lastSettledFrameIndex",
      "outputs": [
        {
          "internalType": "uint256",
          "name": "",
          "type": "uint256"
        }
      ],
      "stateMutability": "view",
      "type": "function"
    },
    {
      "inputs": [
        {
          "internalType": "uint256",
          "name": "",
          "type": "uint256"
        },
        {
          "internalType": "uint256",
          "name": "",
          "type": "uint256"
        }
      ],
      "name": "lots",
      "outputs": [
        {
          "internalType": "uint256",
          "name": "frameKey",
          "type": "uint256"
        },
        {
          "internalType": "uint256",
          "name": "lotKey",
          "type": "uint256"
        }
      ],
      "stateMutability": "view",
      "type": "function"
    },
    {
      "inputs": [
        {
          "internalType": "uint256",
          "name": "",
          "type": "uint256"
        }
      ],
      "name": "lotsArray",
      "outputs": [
        {
          "internalType": "uint256",
          "name": "",
          "type": "uint256"
        }
      ],
      "stateMutability": "view",
      "type": "function"
    },
    {
      "inputs": [
        {
          "internalType": "uint256",
          "name": "frameKey",
          "type": "uint256"
        },
        {
          "internalType": "uint256",
          "name": "avgPrice",
          "type": "uint256"
        }
      ],
      "name": "overrideFrameRate",
      "outputs": [],
      "stateMutability": "nonpayable",
      "type": "function"
    },
    {
      "inputs": [],
      "name": "owner",
      "outputs": [
        {
          "internalType": "address",
          "name": "",
          "type": "address"
        }
      ],
      "stateMutability": "view",
      "type": "function"
    },
    {
      "inputs": [],
      "name": "period",
      "outputs": [
        {
          "internalType": "uint256",
          "name": "",
          "type": "uint256"
        }
      ],
      "stateMutability": "view",
      "type": "function"
    },
    {
      "inputs": [],
      "name": "rewardPool",
      "outputs": [
        {
          "internalType": "uint256",
          "name": "",
          "type": "uint256"
        }
      ],
      "stateMutability": "view",
      "type": "function"
    },
    {
      "inputs": [],
      "name": "rolloverPercentage",
      "outputs": [
        {
          "internalType": "uint256",
          "name": "",
          "type": "uint256"
        }
      ],
      "stateMutability": "view",
      "type": "function"
    },
    {
      "inputs": [
        {
          "internalType": "uint256",
          "name": "amount",
          "type": "uint256"
        }
      ],
      "name": "seedRewardPool",
      "outputs": [],
      "stateMutability": "nonpayable",
      "type": "function"
    },
    {
      "inputs": [
        {
          "internalType": "uint256",
          "name": "frameKey",
          "type": "uint256"
        }
      ],
      "name": "setFrameRate",
      "outputs": [],
      "stateMutability": "nonpayable",
      "type": "function"
    },
    {
      "inputs": [
        {
          "internalType": "uint256",
          "name": "newRolloverPercentage",
          "type": "uint256"
        }
      ],
      "name": "setRolloverPercentage",
      "outputs": [],
      "stateMutability": "nonpayable",
      "type": "function"
    },
    {
      "inputs": [],
      "name": "settleFrame",
      "outputs": [
        {
          "internalType": "uint256",
          "name": "",
          "type": "uint256"
        }
      ],
      "stateMutability": "nonpayable",
      "type": "function"
    },
    {
      "inputs": [],
      "name": "tSettle",
      "outputs": [
        {
          "internalType": "uint256",
          "name": "",
          "type": "uint256"
        }
      ],
      "stateMutability": "view",
      "type": "function"
    },
    {
      "inputs": [],
      "name": "taxMarket",
      "outputs": [
        {
          "internalType": "uint256",
          "name": "",
          "type": "uint256"
        }
      ],
      "stateMutability": "view",
      "type": "function"
    },
    {
      "inputs": [
        {
          "internalType": "uint256",
          "name": "",
          "type": "uint256"
        }
      ],
      "name": "taxesCollectedInFrame",
      "outputs": [
        {
          "internalType": "uint256",
          "name": "",
          "type": "uint256"
        }
      ],
      "stateMutability": "view",
      "type": "function"
    },
    {
      "inputs": [
        {
          "internalType": "uint256",
          "name": "amount",
          "type": "uint256"
        }
      ],
      "name": "toQ96",
      "outputs": [
        {
          "internalType": "uint256",
          "name": "",
          "type": "uint256"
        }
      ],
      "stateMutability": "view",
      "type": "function"
    },
    {
      "inputs": [],
      "name": "totalRewardsDistributed",
      "outputs": [
        {
          "internalType": "uint256",
          "name": "",
          "type": "uint256"
        }
      ],
      "stateMutability": "view",
      "type": "function"
    },
    {
      "inputs": [],
      "name": "totalTaxesCollected",
      "outputs": [
        {
          "internalType": "uint256",
          "name": "",
          "type": "uint256"
        }
      ],
      "stateMutability": "view",
      "type": "function"
    },
    {
      "inputs": [
        {
          "internalType": "uint256",
          "name": "timestamp",
          "type": "uint256"
        },
        {
          "internalType": "uint256",
          "name": "rate",
          "type": "uint256"
        },
        {
          "internalType": "uint256",
          "name": "acquisitionPrice",
          "type": "uint256"
        }
      ],
      "name": "tradeLot",
      "outputs": [],
      "stateMutability": "nonpayable",
      "type": "function"
    },
    {
      "inputs": [],
      "name": "uniswapPool",
      "outputs": [
        {
          "internalType": "contract IUniswapV3Pool",
          "name": "",
          "type": "address"
        }
      ],
      "stateMutability": "view",
      "type": "function"
    },
    {
      "inputs": [
        {
          "internalType": "address",
          "name": "",
          "type": "address"
        }
      ],
      "name": "userTotalTaxPaid",
      "outputs": [
        {
          "internalType": "uint256",
          "name": "",
          "type": "uint256"
        }
      ],
      "stateMutability": "view",
      "type": "function"
    },
    {
      "inputs": [
        {
          "internalType": "address",
          "name": "",
          "type": "address"
        }
      ],
      "name": "userTotalWinnings",
      "outputs": [
        {
          "internalType": "uint256",
          "name": "",
          "type": "uint256"
        }
      ],
      "stateMutability": "view",
      "type": "function"
    },
    {
      "inputs": [
        {
          "internalType": "uint256",
          "name": "amount",
          "type": "uint256"
        }
      ],
      "name": "withdrawAccountingToken",
      "outputs": [],
      "stateMutability": "nonpayable",
      "type": "function"
    }
  ],
  "bytecode": "0x60a060405262015180600055636592e180600155600060025561025860035560006005556000600655612328600e553480156200003b57600080fd5b5060405162004ff838038062004ff88339810160408190526200005e9162000384565b600a80546101003302610100600160a81b0319909116179055600480546001600160a01b038381166001600160a01b0319928316178355600780549189169190921681179091556040805163313ce56760e01b81529051919263313ce5679282820192602092908290030181865afa158015620000df573d6000803e3d6000fd5b505050506040513d601f19601f82011682018060405250810190620001059190620003d9565b600a805460ff191660ff92909216918217815562000124919062000511565b608081905262000150906064906200013e9087906200051f565b6200014a919062000539565b62000192565b6002556080516200016b906064906200013e9086906200051f565b60065560805162000183906200014a9084906200051f565b60055550620005889350505050565b6000620001b6826c01000000000000000000000000608051620001bc60201b60201c565b92915050565b6000808060001985870985870292508281108382030391505080600003620001f85760008411620001ec57600080fd5b50829004905062000360565b8084116200020557600080fd5b60008486880980840393811190920391905060008562000228811960016200055c565b169586900495938490049360008190030460010190506200024a81846200051f565b9093179260006200025d8760036200051f565b60021890506200026e81886200051f565b6200027b90600262000572565b6200028790826200051f565b90506200029581886200051f565b620002a290600262000572565b620002ae90826200051f565b9050620002bc81886200051f565b620002c990600262000572565b620002d590826200051f565b9050620002e381886200051f565b620002f090600262000572565b620002fc90826200051f565b90506200030a81886200051f565b6200031790600262000572565b6200032390826200051f565b90506200033181886200051f565b6200033e90600262000572565b6200034a90826200051f565b90506200035881866200051f565b955050505050505b9392505050565b80516001600160a01b03811681146200037f57600080fd5b919050565b600080600080600060a086880312156200039d57600080fd5b620003a88662000367565b9450602086015193506040860151925060608601519150620003cd6080870162000367565b90509295509295909350565b600060208284031215620003ec57600080fd5b815160ff811681146200036057600080fd5b634e487b7160e01b600052601160045260246000fd5b600181815b8085111562000455578160001904821115620004395762000439620003fe565b808516156200044757918102915b93841c939080029062000419565b509250929050565b6000826200046e57506001620001b6565b816200047d57506000620001b6565b8160018114620004965760028114620004a157620004c1565b6001915050620001b6565b60ff841115620004b557620004b5620003fe565b50506001821b620001b6565b5060208310610133831016604e8410600b8410161715620004e6575081810a620001b6565b620004f2838362000414565b8060001904821115620005095762000509620003fe565b029392505050565b60006200036083836200045d565b8082028115828204841417620001b657620001b6620003fe565b6000826200055757634e487b7160e01b600052601260045260246000fd5b500490565b80820180821115620001b657620001b6620003fe565b81810381811115620001b657620001b6620003fe565b608051614a46620005b2600039600081816107c401528181610b6001526115a70152614a466000f3fe608060405234801561001057600080fd5b506004361061038e5760003560e01c80638a5779c8116101de578063c0423f2e1161010f578063ee172546116100ad578063f601d5101161007c578063f601d5101461085c578063fb0d5e091461087b578063fe6874751461089b578063ffdabe2d146108ae57600080fd5b8063ee1725461461082f578063ef78d4fd14610838578063f0bdaf5814610841578063f3517fef1461085457600080fd5b8063d18743dd116100e9578063d18743dd146107ee578063da68cf8b14610801578063e107fb4f14610814578063ed320aa81461082757600080fd5b8063c0423f2e146107b7578063c2930f91146107bf578063ca7d5dce146107e657600080fd5b8063b067f42d1161017c578063ba4e137f11610156578063ba4e137f14610769578063ba52f34214610771578063bad1265314610784578063bdd3d825146107a457600080fd5b8063b067f42d14610706578063b254eb171461070f578063b93dafa91461072257600080fd5b80639592de18116101b85780639592de1814610635578063997d459414610648578063a10340bc1461065b578063a73482f6146106f357600080fd5b80638a5779c8146105d95780638da5cb5b146105e25780638edc6a2c1461061257600080fd5b80634e43603a116102c35780636fcc0c97116102615780637beffb82116102305780637beffb82146105ab5780637e996639146105b457806386e670cb146105bd578063884133e6146105d057600080fd5b80636fcc0c971461054f5780637358c57a1461056f578063773d51eb1461057857806378328a171461059857600080fd5b806361eee2cb1161029d57806361eee2cb1461050057806364772f211461051357806366666aa9146105265780636f1aefc31461052f57600080fd5b80634e43603a146104c05780634ef9d585146104ee578063527eb4bc146104f757600080fd5b80632457e620116103305780633baf15871161030a5780633baf158714610471578063499a0fc4146104845780634a00521f1461048d5780634c73884f146104a057600080fd5b80632457e620146103d95780632c4387171461043e578063301f7ac81461045157600080fd5b806317e9b6d51161036c57806317e9b6d5146103f957806318d13d8714610401578063197c4e78146104165780631b7be2121461041e57600080fd5b8063050e88401461039357806308857442146103b95780630d0a1c1a146103d9575b600080fd5b6103a66103a1366004613f6a565b6108c1565b6040519081526020015b60405180910390f35b6103a66103c7366004613f98565b60166020526000908152604090205481565b6103ec6103e7366004613f6a565b6108e2565b6040516103b09190613fb5565b6103a6610947565b61041461040f366004613ff9565b610a34565b005b6014546103a6565b6103a661042c366004613f6a565b600f6020526000908152604090205481565b6103a661044c366004613f6a565b610b58565b6103a661045f366004613f6a565b60126020526000908152604090205481565b61041461047f366004613f6a565b610b8f565b6103a660055481565b6103a661049b366004613f6a565b610c86565b6104b36104ae366004613ff9565b610cc6565b6040516103b09190614031565b6104d36104ce366004613f98565b610df2565b604080519384526020840192909252908201526060016103b0565b6103a6600e5481565b6103a660025481565b6103a661050e366004613f6a565b610e38565b61041461052136600461404b565b610e6f565b6103a660085481565b61054261053d366004613ff9565b611043565b6040516103b091906140b2565b6103a661055d366004613f98565b60156020526000908152604090205481565b6103a660015481565b61058b610586366004613f6a565b611190565b6040516103b0919061411d565b6103a66105a63660046141d7565b6112cc565b6103a6600d5481565b6103a660065481565b6104146105cb366004613f6a565b61132e565b6103a6600b5481565b6103a660035481565b600a546105fa9061010090046001600160a01b031681565b6040516001600160a01b0390911681526020016103b0565b6103a6610620366004613f6a565b60009081526010602052604090206002015490565b6103a6610643366004613f6a565b61139e565b610414610656366004613f6a565b6113d9565b6106b0610669366004613f6a565b6010602052600090815260409020805460018201546003830154600484015460058501546006860154600790960154949593946001600160a01b0390931693919290919087565b6040805197885260208801969096526001600160a01b03909416948601949094526060850191909152608084015260a083019190915260c082015260e0016103b0565b6103a6610701366004613ff9565b61157d565b6103a660095481565b6103a661071d366004613f6a565b61159a565b610754610730366004613ff9565b60136020908152600092835260408084209091529082529020805460019091015482565b604080519283526020830191909152016103b0565b6103a66115cb565b6103a661077f366004613f6a565b6118a2565b610797610792366004613f6a565b6118b2565b6040516103b09190614207565b6004546105fa906001600160a01b031681565b6103ec611949565b6103a67f000000000000000000000000000000000000000000000000000000000000000081565b6103a66119a1565b6104146107fc366004613f6a565b611aae565b6007546105fa906001600160a01b031681565b6103a6610822366004613ff9565b611ba0565b6011546103a6565b6103a6600c5481565b6103a660005481565b61041461084f366004613f6a565b611eb2565b6103a6611f88565b600a546108699060ff1681565b60405160ff90911681526020016103b0565b61088e610889366004613ff9565b612616565b6040516103b0919061421b565b6104146108a9366004613f6a565b6126c2565b6103a66108bc366004613f6a565b612731565b601181815481106108d157600080fd5b600091825260209091200154905081565b60008181526010602090815260409182902060020180548351818402810184019094528084526060939283018282801561093b57602002820191906000526020600020905b815481526020019060010190808311610927575b50505050509050919050565b600954600090819015801590610961575060115460095411155b156109c957600060116001600954610979919061426e565b8154811061098957610989614281565b906000526020600020015490506109bb6010600083815260200190815260200160002060070154600e54612710612b58565b6109c59083614297565b9150505b6009545b601154811015610a2e576000601182815481106109ec576109ec614281565b90600052602060002001549050600f60008281526020019081526020016000205483610a189190614297565b9250508080610a26906142aa565b9150506109cd565b50919050565b600a5461010090046001600160a01b03163314610aa85760405162461bcd60e51b815260206004820152602760248201527f4f6e6c79206f776e65722063616e20757064617465206672616d6520636c6f736044820152666520707269636560c81b60648201526084015b60405180910390fd5b6000828152601060205260408120549003610ad55760405162461bcd60e51b8152600401610a9f906142c3565b6000828152601060205260409020600301546001600160a01b031615610b3d5760405162461bcd60e51b815260206004820181905260248201527f4672616d65207265776172642077617320616c726561647920636c61696d65646044820152606401610a9f565b60009182526010602052604080832054835290912060010155565b6000610b89827f0000000000000000000000000000000000000000000000000000000000000000600160601b612b58565b92915050565b6000818152601060205260408120549003610bbc5760405162461bcd60e51b8152600401610a9f906142c3565b6000805482825260106020526040909120544291610bd991614297565b1115610c275760405162461bcd60e51b815260206004820152601b60248201527f4672616d652068617320746f20626520696e20746865207061737400000000006044820152606401610a9f565b6000610c3282612731565b600083815260106020526040908190206001810183905590519192507f929af310c689982c60d4ec73c6e4b602e89c6f6a31da7c2df4888fb0627cb2b191610c7a9190614330565b60405180910390a15050565b6000818152601060205260408120548103610cb35760405162461bcd60e51b8152600401610a9f906142c3565b5060009081526012602052604090205490565b60008281526013602090815260408083208484529091528120600101548103610cf157506000610b89565b6000610cfc846118b2565b6004811115610d0d57610d0d61401b565b03610d1a57506000610b89565b6001610d25846118b2565b6004811115610d3657610d3661401b565b1480610d5b57506002610d48846118b2565b6004811115610d5957610d5961401b565b145b15610d6857506001610b89565b60008381526013602090815260408083208584528252808320600190810154878552601090935292209091015410801590610ddc57506005546000848152601360209081526040808320868452909152902060010154610dc89190614297565b600084815260106020526040902060010154105b15610de957506002610b89565b50600392915050565b6001600160a01b03811660009081526015602090815260408083205460169092528220549091828211610e26576000610e30565b610e30838361426e565b929491935050565b60006001548211610e4b57505060015490565b600054600154610e5b908461426e565b610e6591906143b8565b610b89908361426e565b6000610e7a84610e38565b905060005481610e8a9190614297565b4210610ed85760405162461bcd60e51b815260206004820152601d60248201527f4672616d65206973206e6f74206f70656e20666f722074726164696e670000006044820152606401610a9f565b6000610ee38461139e565b90506000610ef042610e38565b9050600d548114610f2057600d8190556000818152601060205260408120549003610f2057610f1e42612cd1565b505b60008381526013602090815260408083208584529091528120600101549003610f74576000838152601060205260408120549003610f6357610f6186612cd1565b505b610f6f83838684612e1f565b610feb565b600083815260136020908152604080832085845290915290206002018054339190610fa19060019061426e565b81548110610fb157610fb1614281565b60009182526020909120600260059092020101546001600160a01b031603610fdf57610f6f838386846132e7565b610feb8383868461358c565b60008381526013602090815260408083208584529091529081902090517f782b1e1b5d0c69f9f4c1e43a846c9ce710491a77f5adb86c3fe465f2cc9bfab99161103391614469565b60405180910390a1505050505050565b61106760405180606001604052806000815260200160008152602001606081525090565b600083815260136020908152604080832085845290915281206001015490036110c65760405162461bcd60e51b8152602060048201526011602482015270131bdd08191bd95cdb89dd08195e1a5cdd607a1b6044820152606401610a9f565b60008381526013602090815260408083208584528252808320815160608101835281548152600182015481850152600282018054845181870281018701865281815292969395948701949293919290919084015b828210156111815760008481526020908190206040805160a08101825260058602909201805483526001808201548486015260028201546001600160a01b03169284019290925260038101546060840152600401546080830152908352909201910161111a565b50505091525090949350505050565b6111e160405180610100016040528060008152602001600081526020016060815260200160006001600160a01b03168152602001600081526020016000815260200160008152602001600081525090565b600082815260106020526040812054900361120e5760405162461bcd60e51b8152600401610a9f906142c3565b600082815260106020908152604091829020825161010081018452815481526001820154818401526002820180548551818602810186018752818152929593949386019383018282801561128157602002820191906000526020600020905b81548152602001906001019080831161126d575b505050918352505060038201546001600160a01b0316602082015260048201546040820152600582015460608201526006820154608082015260079091015460a09091015292915050565b600a5460009081906112e29060ff16601261447c565b6112ed90600a614579565b9050821561131d5780611301600282614588565b61130b9086614297565b6113159190614588565b915050610b89565b6113158185614588565b5092915050565b600a5461010090046001600160a01b031633146113995760405162461bcd60e51b8152602060048201526024808201527f4f6e6c79206f776e65722063616e206368616e6765207461782070657263656e6044820152637461676560e01b6064820152608401610a9f565b600655565b60006005548210156113b257505060055490565b6000600554836113c29190614588565b90506113d2816005546001612b58565b9392505050565b600a5461010090046001600160a01b031633146114385760405162461bcd60e51b815260206004820152601f60248201527f4f6e6c79206f776e65722063616e20736565642072657761726420706f6f6c006044820152606401610a9f565b600081116114885760405162461bcd60e51b815260206004820152601d60248201527f416d6f756e74206d7573742062652067726561746572207468616e20300000006044820152606401610a9f565b6007546040516323b872dd60e01b81526001600160a01b03909116906323b872dd906114bc9033903090869060040161459c565b6020604051808303816000875af11580156114db573d6000803e3d6000fd5b505050506040513d601f19601f820116820180604052508101906114ff91906145c0565b50600061150b42610e38565b6000818152601060205260408120549192500361152d5761152b42612cd1565b505b6115368261159a565b6000828152600f602052604081208054909190611554908490614297565b9091555061156390508261159a565b600b60008282546115749190614297565b90915550505050565b600061158e826402540be4006145dd565b91506113d28383614297565b6000610b8982600160601b7f0000000000000000000000000000000000000000000000000000000000000000612b58565b6004805460408051633850c7bd60e01b8152905160009384936001600160a01b031692633850c7bd928183019260e0928290030181865afa158015611614573d6000803e3d6000fd5b505050506040513d601f19601f82011682018060405250810190611638919061461c565b50505050505090506000816001600160a01b0316826001600160a01b031661166091906145dd565b6004805460408051630dfe168160e01b81529051939450606085901c936000936001600160a01b0390931692630dfe1681928082019260209290918290030181865afa1580156116b4573d6000803e3d6000fd5b505050506040513d601f19601f820116820180604052508101906116d891906146b2565b90506000600460009054906101000a90046001600160a01b03166001600160a01b031663d21220a76040518163ffffffff1660e01b8152600401602060405180830381865afa15801561172f573d6000803e3d6000fd5b505050506040513d601f19601f8201168201806040525081019061175391906146b2565b90506000826001600160a01b031663313ce5676040518163ffffffff1660e01b8152600401602060405180830381865afa158015611795573d6000803e3d6000fd5b505050506040513d601f19601f820116820180604052508101906117b991906146cf565b90506000826001600160a01b031663313ce5676040518163ffffffff1660e01b8152600401602060405180830381865afa1580156117fb573d6000803e3d6000fd5b505050506040513d601f19601f8201168201806040525081019061181f91906146cf565b90508060ff168260ff1611156118565761184f8561183d838561447c565b61184890600a614579565b6001612b58565b9450611887565b8160ff168160ff16111561188757611884856001611874858561447c565b61187f90600a614579565b612b58565b94505b611896600160601b8087612b58565b98975050505050505050565b601481815481106108d157600080fd5b60008181526010602052604081205481036118cf57506000919050565b6000828152601060205260409020600301546001600160a01b0316156118f757506004919050565b6000805483825260106020526040909120546119139190614297565b42101561192257506001919050565b6000828152601060205260409020600101541561194157506003919050565b506002919050565b6060601480548060200260200160405190810160405280929190818152602001828054801561199757602002820191906000526020600020905b815481526020019060010190808311611983575b5050505050905090565b601154600954600091116119b55750600090565b60006011600954815481106119cc576119cc614281565b600091825260209091200154905060036119e5826118b2565b60048111156119f6576119f661401b565b03611aa6576000818152600f6020526040902054600954819015611a8257600060116001600954611a27919061426e565b81548110611a3757611a37614281565b906000526020600020015490506000601060008381526020019081526020016000206007015490506000611a7082600e54612710612b58565b9050611a7c8185614297565b93505050505b611a9e81600e54612710611a96919061426e565b612710612b58565b935050505090565b600091505090565b600a5461010090046001600160a01b03163314611b1e5760405162461bcd60e51b815260206004820152602860248201527f4f6e6c79206f776e65722063616e207769746864726177206163636f756e74696044820152673733903a37b5b2b760c11b6064820152608401610a9f565b600754600a5460405163a9059cbb60e01b81526001600160a01b03610100909204821660048201526024810184905291169063a9059cbb906044016020604051808303816000875af1158015611b78573d6000803e3d6000fd5b505050506040513d601f19601f82011682018060405250810190611b9c91906145c0565b5050565b60008060005484611bb19190614297565b9050428111611c025760405162461bcd60e51b815260206004820152601d60248201527f4672616d652068617320746f20626520696e20746865206675747572650000006044820152606401610a9f565b611c406040518060400160405280601d81526020017f3d3d3d205441582043414c43554c4154494f4e204445425547203d3d3d000000815250613976565b611c6c6040518060400160405280600a815260200169233930b6b29035b2bc9d60b11b815250856139bc565b611c97604051806040016040528060078152602001662832b934b7b21d60c91b8152506000546139bc565b611cce6040518060400160405280601581526020017429b2ba3a3632b6b2b73a103a34b6b2b9ba30b6b81d60591b815250826139bc565b611d026040518060400160405280601281526020017121bab93932b73a103a34b6b2b9ba30b6b81d60711b815250426139bc565b6040805180820190915260118152702930bb9039b2b1b7b73239903632b33a1d60791b6020820152611d3d90611d38428461426e565b6139bc565b60408051808201909152601a81527f536574746c656d656e7420646179732072656d61696e696e673a0000000000006020820152611d8d9062015180611d83428561426e565b611d389190614588565b6000611d99428361426e565b90506000611daa6201518083614588565b90506000611db9826001614297565b9050611dec6040518060400160405280600f81526020016e2230bcb9903932b6b0b4b734b7339d60891b815250836139bc565b611e16604051806040016040528060088152602001672437b934bd37b71d60c11b815250826139bc565b611e48604051806040016040528060118152602001703d3d3d20454e44204445425547203d3d3d60781b815250613976565b64e8d4a510006000611e5a82846145dd565b90506000611e6782613a01565b90506000611e7a6004600160601b614588565b9050620f42406000611e8d838386612b58565b90506000611ea0828e600160601b612b58565b9e9d5050505050505050505050505050565b600a5461010090046001600160a01b03163314611f235760405162461bcd60e51b815260206004820152602960248201527f4f6e6c79206f776e65722063616e206368616e676520726f6c6c6f7665722070604482015268657263656e7461676560b81b6064820152608401610a9f565b612328811115611f835760405162461bcd60e51b815260206004820152602560248201527f526f6c6c6f7665722070657263656e746167652063616e6e6f74206578636565604482015264642039302560d81b6064820152608401610a9f565b600e55565b60115460095460009111611fd35760405162461bcd60e51b81526020600482015260126024820152714e6f206672616d6520746f20736574746c6560701b6044820152606401610a9f565b6009546000199081905b60115481101561205157600060118281548110611ffc57611ffc614281565b60009182526020909120015490506003612015826118b2565b60048111156120265761202661401b565b14801561203257508381105b1561203e578093508192505b5080612049816142aa565b915050611fdd565b5060001981036120a35760405162461bcd60e51b815260206004820152601d60248201527f4e6f206672616d6520726561647920666f7220736574746c656d656e740000006044820152606401610a9f565b6000601182815481106120b8576120b8614281565b60009182526020808320909101548083526010909152604082205490925090036120f45760405162461bcd60e51b8152600401610a9f906142c3565b60036120ff826118b2565b60048111156121105761211061401b565b1461215d5760405162461bcd60e51b815260206004820152601b60248201527f4672616d65206973206e6f7420696e20524154454420737461746500000000006044820152606401610a9f565b6000818152600f60205260409020546009548190156121e457600060116001600954612189919061426e565b8154811061219957612199614281565b9060005260206000200154905060006010600083815260200190815260200160002060070154905060006121d282600e54612710612b58565b90506121de8185614297565b93505050505b6000838152601060205260408120600701829055600e5461220d908390611a969061271061426e565b9050600061222282600254600160601b612b58565b90506000612230828461426e565b60008781526010602052604081206005810185905560068101839055600101549192509061225d9061139e565b600088815260136020908152604080832084845290915290206002810154919250901561241f576002810180546000919061229a9060019061426e565b815481106122aa576122aa614281565b60009182526020909120600260059092020101546007546001600160a01b0391821692501663a9059cbb826122de87610b58565b6040516001600160e01b031960e085901b1681526001600160a01b03909216600483015260248201526044016020604051808303816000875af1158015612329573d6000803e3d6000fd5b505050506040513d601f19601f8201168201806040525081019061234d91906145c0565b50600089815260106020526040902060030180546001600160a01b0319166001600160a01b03831617905561238184610b58565b600c60008282546123929190614297565b909155506123a1905084610b58565b6001600160a01b038216600090815260166020526040812080549091906123c9908490614297565b90915550506001600160a01b0381167f53118bff2fb56701752f5bf54053d24fb83cec92f9f6ce664b90c38a2991caa461240286610b58565b60408051918252602082018d90520160405180910390a2506124a6565b600088815260106020526040812060030180546001600160a01b031916600117905561244b858861426e565b90507f0496d42696345a1fb843aab6a5a68c62c8a5d3dbcf758a40953e662be46a2bb4896000548b61247d9190614297565b61248684610b58565b6040805193845260208401929092529082015260600160405180910390a1505b600754600a546001600160a01b039182169163a9059cbb916101009004166124cd87610b58565b6040516001600160e01b031960e085901b1681526001600160a01b03909216600483015260248201526044016020604051808303816000875af1158015612518573d6000803e3d6000fd5b505050506040513d601f19601f8201168201806040525081019061253c91906145c0565b5060008881526010602052604090206001810154600490910155600281015415612598577f782b1e1b5d0c69f9f4c1e43a846c9ce710491a77f5adb86c3fe465f2cc9bfab98160405161258f9190614469565b60405180910390a15b6000888152601060205260409081902090517f929af310c689982c60d4ec73c6e4b602e89c6f6a31da7c2df4888fb0627cb2b1916125d591614330565b60405180910390a16001600960008282546125f09190614297565b909155505050600096875250506010602052505060409092206006015495945050505050565b60008281526013602090815260408083208484528252808320600201805482518185028101850190935280835260609492939192909184015b828210156126b65760008481526020908190206040805160a08101825260058602909201805483526001808201548486015260028201546001600160a01b03169284019290925260038101546060840152600401546080830152908352909201910161264f565b50505050905092915050565b600a5461010090046001600160a01b0316331461272c5760405162461bcd60e51b815260206004820152602260248201527f4f6e6c79206f776e65722063616e206368616e67652070726f746f636f6c2066604482015261656560f01b6064820152608401610a9f565b600255565b6000806003548342612743919061426e565b61274d9190614297565b9050600061275b844261426e565b6040805160028082526060820183529293506000929091602083019080368337019050509050828160008151811061279557612795614281565b602002602001019063ffffffff16908163ffffffff168152505081816001815181106127c3576127c3614281565b63ffffffff909216602092830291909101909101526004805460405163883bdbfd60e01b81526000926001600160a01b039092169163883bdbfd9161280a91869101614700565b600060405180830381865afa158015612827573d6000803e3d6000fd5b505050506040513d6000823e601f3d908101601f1916820160405261284f91908101906147fc565b50905060008160008151811061286757612867614281565b602002602001015160060b8260018151811061288557612885614281565b602002602001015160060b61289a91906148c8565b905060008112156128e35760405162461bcd60e51b81526020600482015260136024820152724e65676174697665207469636b2064656c746160681b6044820152606401610a9f565b8060006128f963ffffffff80881690891661426e565b905060006129078284614588565b9050600061291482613b5a565b9050600061292b6001600160a01b038316806145dd565b6004805460408051630dfe168160e01b81529051939450606085901c936000936001600160a01b0390931692630dfe1681928082019260209290918290030181865afa15801561297f573d6000803e3d6000fd5b505050506040513d601f19601f820116820180604052508101906129a391906146b2565b90506000600460009054906101000a90046001600160a01b03166001600160a01b031663d21220a76040518163ffffffff1660e01b8152600401602060405180830381865afa1580156129fa573d6000803e3d6000fd5b505050506040513d601f19601f82011682018060405250810190612a1e91906146b2565b90506000826001600160a01b031663313ce5676040518163ffffffff1660e01b8152600401602060405180830381865afa158015612a60573d6000803e3d6000fd5b505050506040513d601f19601f82011682018060405250810190612a8491906146cf565b90506000826001600160a01b031663313ce5676040518163ffffffff1660e01b8152600401602060405180830381865afa158015612ac6573d6000803e3d6000fd5b505050506040513d601f19601f82011682018060405250810190612aea91906146cf565b90508060ff168260ff161115612b0f57612b088561183d838561447c565b9450612b30565b8160ff168160ff161115612b3057612b2d856001611874858561447c565b94505b612b3f600160601b8087612b58565b9450849f50505050505050505050505050505050919050565b6000808060001985870985870292508281108382030391505080600003612b915760008411612b8657600080fd5b5082900490506113d2565b808411612b9d57600080fd5b600084868809808403938111909203919050600085612bbe81196001614297565b16958690049593849004936000819003046001019050612bde81846145dd565b909317926000612bef8760036145dd565b6002189050612bfe81886145dd565b612c0990600261426e565b612c1390826145dd565b9050612c1f81886145dd565b612c2a90600261426e565b612c3490826145dd565b9050612c4081886145dd565b612c4b90600261426e565b612c5590826145dd565b9050612c6181886145dd565b612c6c90600261426e565b612c7690826145dd565b9050612c8281886145dd565b612c8d90600261426e565b612c9790826145dd565b9050612ca381886145dd565b612cae90600261426e565b612cb890826145dd565b9050612cc481866145dd565b9998505050505050505050565b600080612cdd83610e38565b60008181526010602052604090205490915015612d335760405162461bcd60e51b81526020600482015260146024820152734672616d6520616c72656164792065786973747360601b6044820152606401610a9f565b4260005482612d429190614297565b1015612d905760405162461bcd60e51b815260206004820152601d60248201527f4672616d652068617320746f20626520696e20746865206675747572650000006044820152606401610a9f565b600081815260106020818152604080842085815560118054600181019091557f31ecc21a745e3968a04e9570e4425bc18fa8019c68028196b546d1669c200c688101879055601284529482902085905592909152517f929af310c689982c60d4ec73c6e4b602e89c6f6a31da7c2df4888fb0627cb2b191612e1091614330565b60405180910390a15092915050565b6000612e2b8584611ba0565b90506000612e3882610b58565b9050612e796040518060400160405280601c81526020017f54617820616d6f756e7420696e20746f6b656e20646563696d616c7300000000815250826139bc565b60008111612e995760405162461bcd60e51b8152600401610a9f906148e8565b6040805180820182526012815271105b1b1bddd85b98d9481d1bc81cdc195b9960721b60208201526007549151636eb1769f60e11b8152336004820152306024820152612f34926001600160a01b03169063dd62ed3e90604401602060405180830381865afa158015612f10573d6000803e3d6000fd5b505050506040513d601f19601f82011682018060405250810190611d389190614945565b600754604051636eb1769f60e11b815233600482015230602482015282916001600160a01b03169063dd62ed3e90604401602060405180830381865afa158015612f82573d6000803e3d6000fd5b505050506040513d601f19601f82011682018060405250810190612fa69190614945565b1015612fc45760405162461bcd60e51b8152600401610a9f9061495e565b7f161bcca7119915b50764b4abe86529797775a5f171951000000000000000000085106130255760405162461bcd60e51b815260206004820152600f60248201526e4c6f74206b657920746f6f2062696760881b6044820152606401610a9f565b6000868152601360209081526040808320888452909152902060010154156130845760405162461bcd60e51b81526020600482015260126024820152714c6f7420616c72656164792065786973747360701b6044820152606401610a9f565b60006040518060a00160405280438152602001428152602001336001600160a01b031681526020018681526020016130bb8461159a565b905260008881526013602090815260408083208a845282528083208b815560018082018c9055600280830180548084018255908752858720885160059092020190815594870151918501919091559185015191830180546001600160a01b0319166001600160a01b0390931692909217909155606084015160038301556080840151600490920191909155919250613153898961157d565b6014805460018181019092557fce6d7b5282bd9a3661ae061feed1dbda4e52ab073b1f9285be6e155d9c38d4ec0182905560008b8152601060209081526040822086840154600290910180549485018155835291209091015590506131b78461159a565b6000878152600f6020526040812080549091906131d5908490614297565b909155506131e490508461159a565b600b60008282546131f59190614297565b9091555061320490508461159a565b3360009081526015602052604081208054909190613223908490614297565b90915550506007546040516323b872dd60e01b81526001600160a01b03909116906323b872dd9061325c9033903090899060040161459c565b6020604051808303816000875af115801561327b573d6000803e3d6000fd5b505050506040513d601f19601f8201168201806040525081019061329f91906145c0565b50604080518581526020810188905233917f1137290ec9b1f9c41fb72a212c58301a6eda3b23bc43c0e528f6d21216d593b891015b60405180910390a2505050505050505050565b60006132f38584611ba0565b9050600061330082610b58565b600754604051636eb1769f60e11b815233600482015230602482015291925082916001600160a01b039091169063dd62ed3e90604401602060405180830381865afa158015613353573d6000803e3d6000fd5b505050506040513d601f19601f820116820180604052508101906133779190614945565b10156133955760405162461bcd60e51b8152600401610a9f9061495e565b6007546040516323b872dd60e01b81526001600160a01b03909116906323b872dd906133c99033903090869060040161459c565b6020604051808303816000875af11580156133e8573d6000803e3d6000fd5b505050506040513d601f19601f8201168201806040525081019061340c91906145c0565b506013600087815260200190815260200160002060008681526020019081526020016000206002016040518060a00160405280438152602001428152602001336001600160a01b031681526020018681526020016134698461159a565b905281546001808201845560009384526020938490208351600590930201918255928201519281019290925560408101516002830180546001600160a01b0319166001600160a01b0390921691909117905560608101516003830155608001516004909101556134d88161159a565b6000848152600f6020526040812080549091906134f6908490614297565b9091555061350590508161159a565b600b60008282546135169190614297565b9091555061352590508161159a565b3360009081526015602052604081208054909190613544908490614297565b9091555050604080518281526020810185905233917f1137290ec9b1f9c41fb72a212c58301a6eda3b23bc43c0e528f6d21216d593b8910160405180910390a2505050505050565b6000848152601360209081526040808320868452909152812060020180546135b69060019061426e565b815481106135c6576135c6614281565b600091825260208220600260059092020101546001600160a01b031691506135ee8685611ba0565b9050600081116136105760405162461bcd60e51b8152600401610a9f906148e8565b60008681526013602090815260408083208884529091528120600201805461363a9060019061426e565b8154811061364a5761364a614281565b9060005260206000209060050201600301549050600061366982610b58565b9050600061367684610b58565b90506136828282614297565b600754604051636eb1769f60e11b81523360048201523060248201526001600160a01b039091169063dd62ed3e90604401602060405180830381865afa1580156136d0573d6000803e3d6000fd5b505050506040513d601f19601f820116820180604052508101906136f49190614945565b10156137125760405162461bcd60e51b8152600401610a9f9061495e565b6007546040516323b872dd60e01b81526001600160a01b03909116906323b872dd906137469033903090869060040161459c565b6020604051808303816000875af1158015613765573d6000803e3d6000fd5b505050506040513d601f19601f8201168201806040525081019061378991906145c0565b506007546040516323b872dd60e01b81526001600160a01b03909116906323b872dd906137be9033908990879060040161459c565b6020604051808303816000875af11580156137dd573d6000803e3d6000fd5b505050506040513d601f19601f8201168201806040525081019061380191906145c0565b50601360008a815260200190815260200160002060008981526020019081526020016000206002016040518060a00160405280438152602001428152602001336001600160a01b0316815260200189815260200161385e8461159a565b905281546001808201845560009384526020938490208351600590930201918255928201519281019290925560408101516002830180546001600160a01b0319166001600160a01b0390921691909117905560608101516003830155608001516004909101556138cd8161159a565b6000878152600f6020526040812080549091906138eb908490614297565b909155506138fa90508161159a565b600b600082825461390b9190614297565b9091555061391a90508161159a565b3360009081526015602052604081208054909190613939908490614297565b9091555050604080518281526020810188905233917f1137290ec9b1f9c41fb72a212c58301a6eda3b23bc43c0e528f6d21216d593b891016132d4565b6139b98160405160240161398a91906149db565b60408051601f198184030181529190526020810180516001600160e01b031663104c13eb60e21b179052613f45565b50565b611b9c82826040516024016139d29291906149ee565b60408051601f198184030181529190526020810180516001600160e01b0316632d839cb360e21b179052613f45565b600060018211613a0f575090565b816001600160801b8210613a285760809190911c9060401b5b680100000000000000008210613a435760409190911c9060201b5b6401000000008210613a5a5760209190911c9060101b5b620100008210613a6f5760109190911c9060081b5b6101008210613a835760089190911c9060041b5b60108210613a965760049190911c9060021b5b60048210613aa25760011b5b600302600190811c90818581613aba57613aba6143a2565b048201901c90506001818581613ad257613ad26143a2565b048201901c90506001818581613aea57613aea6143a2565b048201901c90506001818581613b0257613b026143a2565b048201901c90506001818581613b1a57613b1a6143a2565b048201901c90506001818581613b3257613b326143a2565b048201901c9050613b51818581613b4b57613b4b6143a2565b04821190565b90039392505050565b600081620d89e8811115613b945760405162461bcd60e51b81526020600482015260016024820152601560fa1b6044820152606401610a9f565b600081600116600003613bab57600160801b613bbd565b6ffffcb933bd6fad37aa2d162d1a5940015b70ffffffffffffffffffffffffffffffffff1690506002821615613bfc576080613bf7826ffff97272373d413259a46990580e213a6145dd565b901c90505b6004821615613c26576080613c21826ffff2e50f5f656932ef12357cf3c7fdcc6145dd565b901c90505b6008821615613c50576080613c4b826fffe5caca7e10e4e61c3624eaa0941cd06145dd565b901c90505b6010821615613c7a576080613c75826fffcb9843d60f6159c9db58835c9266446145dd565b901c90505b6020821615613ca4576080613c9f826fff973b41fa98c081472e6896dfb254c06145dd565b901c90505b6040821615613cce576080613cc9826fff2ea16466c96a3843ec78b326b528616145dd565b901c90505b6080821615613cf8576080613cf3826ffe5dee046a99a2a811c461f1969c30536145dd565b901c90505b610100821615613d23576080613d1e826ffcbe86c7900a88aedcffc83b479aa3a46145dd565b901c90505b610200821615613d4e576080613d49826ff987a7253ac413176f2b074cf7815e546145dd565b901c90505b610400821615613d79576080613d74826ff3392b0822b70005940c7a398e4b70f36145dd565b901c90505b610800821615613da4576080613d9f826fe7159475a2c29b7443b29c7fa6e889d96145dd565b901c90505b611000821615613dcf576080613dca826fd097f3bdfd2022b8845ad8f792aa58256145dd565b901c90505b612000821615613dfa576080613df5826fa9f746462d870fdf8a65dc1f90e061e56145dd565b901c90505b614000821615613e25576080613e20826f70d869a156d2a1b890bb3df62baf32f76145dd565b901c90505b618000821615613e50576080613e4b826f31be135f97d08fd981231505542fcfa66145dd565b901c90505b62010000821615613e7c576080613e77826f09aa508b5b7a84e1c677de54f3e99bc96145dd565b901c90505b62020000821615613ea7576080613ea2826e5d6af8dedb81196699c329225ee6046145dd565b901c90505b62040000821615613ed1576080613ecc826d2216e584f5fa1ea926041bedfe986145dd565b901c90505b62080000821615613ef9576080613ef4826b048a170391f7dc42444e8fa26145dd565b901c90505b8315613f0e57613f0b81600019614588565b90505b613f1d640100000000826143b8565b15613f29576001613f2c565b60005b613f3d9060ff16602083901c614297565b949350505050565b6139b98160006a636f6e736f6c652e6c6f679050600080835160208501845afa505050565b600060208284031215613f7c57600080fd5b5035919050565b6001600160a01b03811681146139b957600080fd5b600060208284031215613faa57600080fd5b81356113d281613f83565b6020808252825182820181905260009190848201906040850190845b81811015613fed57835183529284019291840191600101613fd1565b50909695505050505050565b6000806040838503121561400c57600080fd5b50508035926020909101359150565b634e487b7160e01b600052602160045260246000fd5b60208101600483106140455761404561401b565b91905290565b60008060006060848603121561406057600080fd5b505081359360208301359350604090920135919050565b80518252602080820151908301526040808201516001600160a01b031690830152606080820151908301526080908101519082015260a00190565b6000602080835260808301845182850152818501516040850152604085015160608086015281815180845260a0870191508483019350600092505b8083101561411257614100828551614077565b915084840193506001830192506140ed565b509695505050505050565b6000602080835261012083018451828501528185015160408501526040850151610100806060870152828251808552610140880191508584019450600093505b8084101561417d578451825293850193600193909301929085019061415d565b5060608801516001600160a01b03811660808901529450608088015160a088015260a088015160c088015260c088015160e088015260e088015182880152809550505050505092915050565b80151581146139b957600080fd5b600080604083850312156141ea57600080fd5b8235915060208301356141fc816141c9565b809150509250929050565b60208101600583106140455761404561401b565b6020808252825182820181905260009190848201906040850190845b81811015613fed5761424a838551614077565b938501939250600101614237565b634e487b7160e01b600052601160045260246000fd5b81810381811115610b8957610b89614258565b634e487b7160e01b600052603260045260246000fd5b80820180821115610b8957610b89614258565b6000600182016142bc576142bc614258565b5060010190565b602080825260139082015272119c985b5948191bd95cdb89dd08195e1a5cdd606a1b604082015260600190565b6000815480845260208085019450836000528060002060005b8381101561432557815487529582019560019182019101614309565b509495945050505050565b60208152815460208201526001820154604082015260006101008060608401526143616101208401600286016142f0565b60038501546001600160a01b03166080850152600485015460a0850152600585015460c0850152600685015460e08501526007909401549201919091525090565b634e487b7160e01b600052601260045260246000fd5b6000826143c7576143c76143a2565b500690565b60006060808401835485526001808501546020818189015260029150818701604086818b015285825480885260809750878c0191508360005284600020935060005b8181101561445857845483528785015486840152868501546001600160a01b03168484015260038501548a84015260048501548984015260059094019360a090920191870161440e565b50909b9a5050505050505050505050565b6020815260006113d260208301846143cc565b60ff8281168282160390811115610b8957610b89614258565b600181815b808511156144d05781600019048211156144b6576144b6614258565b808516156144c357918102915b93841c939080029061449a565b509250929050565b6000826144e757506001610b89565b816144f457506000610b89565b816001811461450a576002811461451457614530565b6001915050610b89565b60ff84111561452557614525614258565b50506001821b610b89565b5060208310610133831016604e8410600b8410161715614553575081810a610b89565b61455d8383614495565b806000190482111561457157614571614258565b029392505050565b60006113d260ff8416836144d8565b600082614597576145976143a2565b500490565b6001600160a01b039384168152919092166020820152604081019190915260600190565b6000602082840312156145d257600080fd5b81516113d2816141c9565b8082028115828204841417610b8957610b89614258565b805161ffff8116811461460657600080fd5b919050565b805160ff8116811461460657600080fd5b600080600080600080600060e0888a03121561463757600080fd5b875161464281613f83565b8097505060208801518060020b811461465a57600080fd5b9550614668604089016145f4565b9450614676606089016145f4565b9350614684608089016145f4565b925061469260a0890161460b565b915060c08801516146a2816141c9565b8091505092959891949750929550565b6000602082840312156146c457600080fd5b81516113d281613f83565b6000602082840312156146e157600080fd5b6113d28261460b565b634e487b7160e01b600052604160045260246000fd5b6020808252825182820181905260009190848201906040850190845b81811015613fed57835163ffffffff168352928401929184019160010161471c565b604051601f8201601f1916810167ffffffffffffffff81118282101715614767576147676146ea565b604052919050565b600067ffffffffffffffff821115614789576147896146ea565b5060051b60200190565b600082601f8301126147a457600080fd5b815160206147b96147b48361476f565b61473e565b82815260059290921b840181019181810190868411156147d857600080fd5b8286015b848110156141125780516147ef81613f83565b83529183019183016147dc565b6000806040838503121561480f57600080fd5b825167ffffffffffffffff8082111561482757600080fd5b818501915085601f83011261483b57600080fd5b8151602061484b6147b48361476f565b82815260059290921b8401810191818101908984111561486a57600080fd5b948201945b838610156148985785518060060b81146148895760008081fd5b8252948201949082019061486f565b918801519196509093505050808211156148b157600080fd5b506148be85828601614793565b9150509250929050565b818103600083128015838313168383128216171561132757611327614258565b6020808252603c908201527f5461782068617320746f2062652067726561746572207468616e20302e20496e60408201527f63726561736520746865206163717569736974696f6e20707269636500000000606082015260800190565b60006020828403121561495757600080fd5b5051919050565b6020808252601e908201527f416c6c6f77616e636520746f207370656e642073657420746f6f206c6f770000604082015260600190565b6000815180845260005b818110156149bb5760208185018101518683018201520161499f565b506000602082860101526020601f19601f83011685010191505092915050565b6020815260006113d26020830184614995565b604081526000614a016040830185614995565b9050826020830152939250505056fea2646970667358221220931b20daf46f237af98e37fd7fe34ba03986a533994b3bda87b7d236e9f071f464736f6c63430008140033",
  "linkReferences": {},
  "deployedLinkReferences": {}
}