{
  "_format": "hh-sol-artifact-1",
  "contractName": "Token",
  "sourceName": "contracts/Token.sol",
  "abi": [
    {
      "inputs": [],
      "stateMutability": "nonpayable",
      "type": "constructor"
    },
    {
      "inputs": [
        {
          "internalType": "address",
          "name": "spender",
          "type": "address"
        },
        {
          "internalType": "uint256",
          "name": "allowance",
          "type": "uint256"
        },
        {
          "internalType": "uint256",
          "name": "needed",
          "type": "uint256"
        }
      ],
      "name": "ERC20InsufficientAllowance",
      "type": "error"
    },
    {
      "inputs": [
        {
          "internalType": "address",
          "name": "sender",
          "type": "address"
        },
        {
          "internalType": "uint256",
          "name": "balance",
          "type": "uint256"
        },
        {
          "internalType": "uint256",
          "name": "needed",
          "type": "uint256"
        }
      ],
      "name": "ERC20InsufficientBalance",
      "type": "error"
    },
    {
      "inputs": [
        {
          "internalType": "address",
          "name": "approver",
          "type": "address"
        }
      ],
      "name": "ERC20InvalidApprover",
      "type": "error"
    },
    {
      "inputs": [
        {
          "internalType": "address",
          "name": "receiver",
          "type": "address"
        }
      ],
      "name": "ERC20InvalidReceiver",
      "type": "error"
    },
    {
      "inputs": [
        {
          "internalType": "address",
          "name": "sender",
          "type": "address"
        }
      ],
      "name": "ERC20InvalidSender",
      "type": "error"
    },
    {
      "inputs": [
        {
          "internalType": "address",
          "name": "spender",
          "type": "address"
        }
      ],
      "name": "ERC20InvalidSpender",
      "type": "error"
    },
    {
      "anonymous": false,
      "inputs": [
        {
          "indexed": true,
          "internalType": "address",
          "name": "owner",
          "type": "address"
        },
        {
          "indexed": true,
          "internalType": "address",
          "name": "spender",
          "type": "address"
        },
        {
          "indexed": false,
          "internalType": "uint256",
          "name": "value",
          "type": "uint256"
        }
      ],
      "name": "Approval",
      "type": "event"
    },
    {
      "anonymous": false,
      "inputs": [
        {
          "indexed": true,
          "internalType": "address",
          "name": "from",
          "type": "address"
        },
        {
          "indexed": true,
          "internalType": "address",
          "name": "to",
          "type": "address"
        },
        {
          "indexed": false,
          "internalType": "uint256",
          "name": "value",
          "type": "uint256"
        }
      ],
      "name": "Transfer",
      "type": "event"
    },
    {
      "inputs": [
        {
          "internalType": "address",
          "name": "owner",
          "type": "address"
        },
        {
          "internalType": "address",
          "name": "spender",
          "type": "address"
        }
      ],
      "name": "allowance",
      "outputs": [
        {
          "internalType": "uint256",
          "name": "",
          "type": "uint256"
        }
      ],
      "stateMutability": "view",
      "type": "function"
    },
    {
      "inputs": [
        {
          "internalType": "address",
          "name": "spender",
          "type": "address"
        },
        {
          "internalType": "uint256",
          "name": "value",
          "type": "uint256"
        }
      ],
      "name": "approve",
      "outputs": [
        {
          "internalType": "bool",
          "name": "",
          "type": "bool"
        }
      ],
      "stateMutability": "nonpayable",
      "type": "function"
    },
    {
      "inputs": [
        {
          "internalType": "address",
          "name": "account",
          "type": "address"
        }
      ],
      "name": "balanceOf",
      "outputs": [
        {
          "internalType": "uint256",
          "name": "",
          "type": "uint256"
        }
      ],
      "stateMutability": "view",
      "type": "function"
    },
    {
      "inputs": [
        {
          "internalType": "address",
          "name": "owner",
          "type": "address"
        }
      ],
      "name": "burn",
      "outputs": [],
      "stateMutability": "nonpayable",
      "type": "function"
    },
    {
      "inputs": [],
      "name": "decimals",
      "outputs": [
        {
          "internalType": "uint8",
          "name": "",
          "type": "uint8"
        }
      ],
      "stateMutability": "view",
      "type": "function"
    },
    {
      "inputs": [],
      "name": "loadMore",
      "outputs": [],
      "stateMutability": "nonpayable",
      "type": "function"
    },
    {
      "inputs": [],
      "name": "name",
      "outputs": [
        {
          "internalType": "string",
          "name": "",
          "type": "string"
        }
      ],
      "stateMutability": "view",
      "type": "function"
    },
    {
      "inputs": [],
      "name": "symbol",
      "outputs": [
        {
          "internalType": "string",
          "name": "",
          "type": "string"
        }
      ],
      "stateMutability": "view",
      "type": "function"
    },
    {
      "inputs": [],
      "name": "totalSupply",
      "outputs": [
        {
          "internalType": "uint256",
          "name": "",
          "type": "uint256"
        }
      ],
      "stateMutability": "view",
      "type": "function"
    },
    {
      "inputs": [
        {
          "internalType": "address",
          "name": "to",
          "type": "address"
        },
        {
          "internalType": "uint256",
          "name": "value",
          "type": "uint256"
        }
      ],
      "name": "transfer",
      "outputs": [
        {
          "internalType": "bool",
          "name": "",
          "type": "bool"
        }
      ],
      "stateMutability": "nonpayable",
      "type": "function"
    },
    {
      "inputs": [
        {
          "internalType": "address",
          "name": "from",
          "type": "address"
        },
        {
          "internalType": "address",
          "name": "to",
          "type": "address"
        },
        {
          "internalType": "uint256",
          "name": "value",
          "type": "uint256"
        }
      ],
      "name": "transferFrom",
      "outputs": [
        {
          "internalType": "bool",
          "name": "",
          "type": "bool"
        }
      ],
      "stateMutability": "nonpayable",
      "type": "function"
    }
  ],
  "bytecode": "0x60806040523480156200001157600080fd5b50604051806040016040528060098152602001682a32b9ba2a37b5b2b760b91b815250604051806040016040528060038152602001622a35b760e91b8152508160039081620000619190620002af565b506004620000708282620002af565b5050506200008f3369021e19e0c9bab24000006200009560201b60201c565b620003a3565b6001600160a01b038216620000c55760405163ec442f0560e01b8152600060048201526024015b60405180910390fd5b620000d360008383620000d7565b5050565b6001600160a01b03831662000106578060026000828254620000fa91906200037b565b909155506200017a9050565b6001600160a01b038316600090815260208190526040902054818110156200015b5760405163391434e360e21b81526001600160a01b03851660048201526024810182905260448101839052606401620000bc565b6001600160a01b03841660009081526020819052604090209082900390555b6001600160a01b0382166200019857600280548290039055620001b7565b6001600160a01b03821660009081526020819052604090208054820190555b816001600160a01b0316836001600160a01b03167fddf252ad1be2c89b69c2b068fc378daa952ba7f163c4a11628f55a4df523b3ef83604051620001fd91815260200190565b60405180910390a3505050565b634e487b7160e01b600052604160045260246000fd5b600181811c908216806200023557607f821691505b6020821081036200025657634e487b7160e01b600052602260045260246000fd5b50919050565b601f821115620002aa57600081815260208120601f850160051c81016020861015620002855750805b601f850160051c820191505b81811015620002a65782815560010162000291565b5050505b505050565b81516001600160401b03811115620002cb57620002cb6200020a565b620002e381620002dc845462000220565b846200025c565b602080601f8311600181146200031b5760008415620003025750858301515b600019600386901b1c1916600185901b178555620002a6565b600085815260208120601f198616915b828110156200034c578886015182559484019460019091019084016200032b565b50858210156200036b5787850151600019600388901b60f8161c191681555b5050505050600190811b01905550565b808201808211156200039d57634e487b7160e01b600052601160045260246000fd5b92915050565b61080380620003b36000396000f3fe608060405234801561001057600080fd5b50600436106100a95760003560e01c8063313ce56711610071578063313ce5671461011e57806370a082311461012d57806389afcb441461015657806395d89b4114610169578063a9059cbb14610171578063dd62ed3e1461018457600080fd5b806306fdde03146100ae578063095ea7b3146100cc578063173e1d68146100ef57806318160ddd146100f957806323b872dd1461010b575b600080fd5b6100b66101bd565b6040516100c3919061064d565b60405180910390f35b6100df6100da3660046106b7565b61024f565b60405190151581526020016100c3565b6100f7610269565b005b6002545b6040519081526020016100c3565b6100df6101193660046106e1565b61027e565b604051601281526020016100c3565b6100fd61013b36600461071d565b6001600160a01b031660009081526020819052604090205490565b6100f761016436600461071d565b6102a2565b6100b66102cd565b6100df61017f3660046106b7565b6102dc565b6100fd61019236600461073f565b6001600160a01b03918216600090815260016020908152604080832093909416825291909152205490565b6060600380546101cc90610772565b80601f01602080910402602001604051908101604052809291908181526020018280546101f890610772565b80156102455780601f1061021a57610100808354040283529160200191610245565b820191906000526020600020905b81548152906001019060200180831161022857829003601f168201915b5050505050905090565b60003361025d8185856102ea565b60019150505b92915050565b61027c33683635c9adc5dea000006102fc565b565b60003361028c85828561033b565b6102978585856103b9565b506001949350505050565b6102ca816102c5836001600160a01b031660009081526020819052604090205490565b610418565b50565b6060600480546101cc90610772565b60003361025d8185856103b9565b6102f7838383600161044e565b505050565b6001600160a01b03821661032b5760405163ec442f0560e01b8152600060048201526024015b60405180910390fd5b61033760008383610523565b5050565b6001600160a01b0383811660009081526001602090815260408083209386168352929052205460001981146103b357818110156103a457604051637dc7a0d960e11b81526001600160a01b03841660048201526024810182905260448101839052606401610322565b6103b38484848403600061044e565b50505050565b6001600160a01b0383166103e357604051634b637e8f60e11b815260006004820152602401610322565b6001600160a01b03821661040d5760405163ec442f0560e01b815260006004820152602401610322565b6102f7838383610523565b6001600160a01b03821661044257604051634b637e8f60e11b815260006004820152602401610322565b61033782600083610523565b6001600160a01b0384166104785760405163e602df0560e01b815260006004820152602401610322565b6001600160a01b0383166104a257604051634a1406b160e11b815260006004820152602401610322565b6001600160a01b03808516600090815260016020908152604080832093871683529290522082905580156103b357826001600160a01b0316846001600160a01b03167f8c5be1e5ebec7d5bd14f71427d1e84f3dd0314c0f7b2291e5b200ac8c7c3b9258460405161051591815260200190565b60405180910390a350505050565b6001600160a01b03831661054e57806002600082825461054391906107ac565b909155506105c09050565b6001600160a01b038316600090815260208190526040902054818110156105a15760405163391434e360e21b81526001600160a01b03851660048201526024810182905260448101839052606401610322565b6001600160a01b03841660009081526020819052604090209082900390555b6001600160a01b0382166105dc576002805482900390556105fb565b6001600160a01b03821660009081526020819052604090208054820190555b816001600160a01b0316836001600160a01b03167fddf252ad1be2c89b69c2b068fc378daa952ba7f163c4a11628f55a4df523b3ef8360405161064091815260200190565b60405180910390a3505050565b600060208083528351808285015260005b8181101561067a5785810183015185820160400152820161065e565b506000604082860101526040601f19601f8301168501019250505092915050565b80356001600160a01b03811681146106b257600080fd5b919050565b600080604083850312156106ca57600080fd5b6106d38361069b565b946020939093013593505050565b6000806000606084860312156106f657600080fd5b6106ff8461069b565b925061070d6020850161069b565b9150604084013590509250925092565b60006020828403121561072f57600080fd5b6107388261069b565b9392505050565b6000806040838503121561075257600080fd5b61075b8361069b565b91506107696020840161069b565b90509250929050565b600181811c9082168061078657607f821691505b6020821081036107a657634e487b7160e01b600052602260045260246000fd5b50919050565b8082018082111561026357634e487b7160e01b600052601160045260246000fdfea2646970667358221220166e1bce9ebc7039ef195093c326034070e65ec9df275aec40707f013384723464736f6c63430008140033",
  "linkReferences": {},
  "deployedLinkReferences": {}
}