{
  "_format": "hh-sol-artifact-1",
  "contractName": "priceOracles",
  "sourceName": "contracts/priceOracles.sol",
  "abi": [
    {
      "inputs": [
        {
          "internalType": "uint256",
          "name": "price1",
          "type": "uint256"
        },
        {
          "internalType": "uint256",
          "name": "t1",
          "type": "uint256"
        },
        {
          "internalType": "uint256",
          "name": "price2",
          "type": "uint256"
        },
        {
          "internalType": "uint256",
          "name": "t2",
          "type": "uint256"
        }
      ],
      "name": "clcAveragePrice",
      "outputs": [
        {
          "internalType": "uint256",
          "name": "",
          "type": "uint256"
        }
      ],
      "stateMutability": "view",
      "type": "function"
    },
    {
      "inputs": [
        {
          "internalType": "contract IUniswapV2Pair",
          "name": "uniswapPair",
          "type": "address"
        }
      ],
      "name": "getOracleAccPrice",
      "outputs": [
        {
          "components": [
            {
              "internalType": "uint256",
              "name": "oraclePriceCumulative",
              "type": "uint256"
            },
            {
              "internalType": "uint256",
              "name": "oracleTimestamp",
              "type": "uint256"
            }
          ],
          "internalType": "struct priceOracles.Frame",
          "name": "",
          "type": "tuple"
        }
      ],
      "stateMutability": "view",
      "type": "function"
    }
  ],
  "bytecode": "0x608060405269d3c21bcecceda100000060005534801561001e57600080fd5b50610bf58061002e6000396000f3fe608060405234801561001057600080fd5b50600436106100365760003560e01c8063643542921461003b578063c30b96811461006b575b600080fd5b610055600480360381019061005091906106c2565b61009b565b6040516100629190610873565b60405180910390f35b61008560048036038101906100809190610763565b6100df565b604051610092919061088e565b60405180910390f35b6100a361060e565b6100ab61060e565b60006100b6846101c9565b8063ffffffff169050846000018560200182815250829450838152505050508192505050919050565b6000806100f5868561042490919063ffffffff16565b9050600061010c868561042490919063ffffffff16565b905060006101466040518060200160405280857bffffffffffffffffffffffffffffffffffffffffffffffffffffffff168152508361043a565b600001517bffffffffffffffffffffffffffffffffffffffffffffffffffffffff1690506101967406d79f82328ea3da61e066ebb2f88a000000000000607083901b6104ea90919063ffffffff16565b6101af600054607084901c61050090919063ffffffff16565b6101b991906108ba565b9050809350505050949350505050565b60008060006101d6610516565b90508373ffffffffffffffffffffffffffffffffffffffff16635909c0d56040518163ffffffff1660e01b815260040160206040518083038186803b15801561021e57600080fd5b505afa158015610232573d6000803e3d6000fd5b505050506040513d601f19601f82011682018060405250810190610256919061073a565b92508373ffffffffffffffffffffffffffffffffffffffff16635a3d54936040518163ffffffff1660e01b815260040160206040518083038186803b15801561029e57600080fd5b505afa1580156102b2573d6000803e3d6000fd5b505050506040513d601f19601f820116820180604052508101906102d6919061073a565b915060008060008673ffffffffffffffffffffffffffffffffffffffff16630902f1ac6040518163ffffffff1660e01b815260040160606040518083038186803b15801561032357600080fd5b505afa158015610337573d6000803e3d6000fd5b505050506040513d601f19601f8201168201806040525081019061035b91906106eb565b9250925092508363ffffffff168163ffffffff161461041a57600081856103829190610a00565b90508063ffffffff16610395848661052e565b600001517bffffffffffffffffffffffffffffffffffffffffffffffffffffffff166103c19190610972565b876103cc91906108ba565b96508063ffffffff166103df858561052e565b600001517bffffffffffffffffffffffffffffffffffffffffffffffffffffffff1661040b9190610972565b8661041691906108ba565b9550505b5050509193909250565b6000818361043291906109cc565b905092915050565b610442610628565b6000826dffffffffffffffffffffffffffff161415610496576040517f08c379a000000000000000000000000000000000000000000000000000000000815260040161048d90610853565b60405180910390fd5b6040518060200160405280836dffffffffffffffffffffffffffff1685600001516104c19190610910565b7bffffffffffffffffffffffffffffffffffffffffffffffffffffffff16815250905092915050565b600081836104f89190610941565b905092915050565b6000818361050e9190610972565b905092915050565b6000640100000000426105299190610ad4565b905090565b610536610628565b6000826dffffffffffffffffffffffffffff1611610589576040517f08c379a000000000000000000000000000000000000000000000000000000000815260040161058090610853565b60405180910390fd5b6040518060200160405280836dffffffffffffffffffffffffffff16607060ff16866dffffffffffffffffffffffffffff167bffffffffffffffffffffffffffffffffffffffffffffffffffffffff16901b6105e59190610910565b7bffffffffffffffffffffffffffffffffffffffffffffffffffffffff16815250905092915050565b604051806040016040528060008152602001600081525090565b604051806020016040528060007bffffffffffffffffffffffffffffffffffffffffffffffffffffffff1681525090565b60008135905061066881610b63565b92915050565b60008151905061067d81610b7a565b92915050565b60008135905061069281610b91565b92915050565b6000815190506106a781610b91565b92915050565b6000815190506106bc81610ba8565b92915050565b6000602082840312156106d457600080fd5b60006106e284828501610659565b91505092915050565b60008060006060848603121561070057600080fd5b600061070e8682870161066e565b935050602061071f8682870161066e565b9250506040610730868287016106ad565b9150509250925092565b60006020828403121561074c57600080fd5b600061075a84828501610698565b91505092915050565b6000806000806080858703121561077957600080fd5b600061078787828801610683565b945050602061079887828801610683565b93505060406107a987828801610683565b92505060606107ba87828801610683565b91505092959194509250565b60006107d36017836108a9565b91507f4669786564506f696e743a204449565f42595f5a45524f0000000000000000006000830152602082019050919050565b60408201600082015161081c6000850182610835565b50602082015161082f6020850182610835565b50505050565b61083e81610aba565b82525050565b61084d81610aba565b82525050565b6000602082019050818103600083015261086c816107c6565b9050919050565b60006040820190506108886000830184610806565b92915050565b60006020820190506108a36000830184610844565b92915050565b600082825260208201905092915050565b60006108c582610aba565b91506108d083610aba565b9250827fffffffffffffffffffffffffffffffffffffffffffffffffffffffffffffffff0382111561090557610904610b05565b5b828201905092915050565b600061091b82610a92565b915061092683610a92565b92508261093657610935610b34565b5b828204905092915050565b600061094c82610aba565b915061095783610aba565b92508261096757610966610b34565b5b828204905092915050565b600061097d82610aba565b915061098883610aba565b9250817fffffffffffffffffffffffffffffffffffffffffffffffffffffffffffffffff04831182151516156109c1576109c0610b05565b5b828202905092915050565b60006109d782610aba565b91506109e283610aba565b9250828210156109f5576109f4610b05565b5b828203905092915050565b6000610a0b82610ac4565b9150610a1683610ac4565b925082821015610a2957610a28610b05565b5b828203905092915050565b6000610a3f82610a72565b9050919050565b6000610a5182610a34565b9050919050565b60006dffffffffffffffffffffffffffff82169050919050565b600073ffffffffffffffffffffffffffffffffffffffff82169050919050565b60007bffffffffffffffffffffffffffffffffffffffffffffffffffffffff82169050919050565b6000819050919050565b600063ffffffff82169050919050565b6000610adf82610aba565b9150610aea83610aba565b925082610afa57610af9610b34565b5b828206905092915050565b7f4e487b7100000000000000000000000000000000000000000000000000000000600052601160045260246000fd5b7f4e487b7100000000000000000000000000000000000000000000000000000000600052601260045260246000fd5b610b6c81610a46565b8114610b7757600080fd5b50565b610b8381610a58565b8114610b8e57600080fd5b50565b610b9a81610aba565b8114610ba557600080fd5b50565b610bb181610ac4565b8114610bbc57600080fd5b5056fea2646970667358221220d041d9a3d95d9c076518c297634780a839da78fc25f9be5531c9bfea42bb1cec64736f6c63430008000033",
  "linkReferences": {},
  "deployedLinkReferences": {}
}