{
  "_format": "hh-sol-artifact-1",
  "contractName": "MarketFactory",
  "sourceName": "contracts/MarketFactory.sol",
  "abi": [
    {
      "inputs": [
        {
          "internalType": "address",
          "name": "_uniswapFactory",
          "type": "address"
        }
      ],
      "stateMutability": "nonpayable",
      "type": "constructor"
    },
    {
      "inputs": [
        {
          "internalType": "address",
          "name": "_token",
          "type": "address"
        },
        {
          "internalType": "address",
          "name": "_uniswapPair",
          "type": "address"
        },
        {
          "internalType": "uint64",
          "name": "_period",
          "type": "uint64"
        },
        {
          "internalType": "uint64",
          "name": "_initTimestamp",
          "type": "uint64"
        },
        {
          "internalType": "uint256",
          "name": "_tax",
          "type": "uint256"
        },
        {
          "internalType": "uint256",
          "name": "_fee",
          "type": "uint256"
        },
        {
          "internalType": "uint256",
          "name": "_dPrice",
          "type": "uint256"
        },
        {
          "internalType": "uint64",
          "name": "_tReporting",
          "type": "uint64"
        },
        {
          "internalType": "uint256",
          "name": "_minTax",
          "type": "uint256"
        },
        {
          "internalType": "bool",
          "name": "_avgPriceSwitch",
          "type": "bool"
        }
      ],
      "name": "addMarket",
      "outputs": [],
      "stateMutability": "nonpayable",
      "type": "function"
    },
    {
      "inputs": [],
      "name": "getMarketsCount",
      "outputs": [
        {
          "internalType": "uint256",
          "name": "",
          "type": "uint256"
        }
      ],
      "stateMutability": "view",
      "type": "function"
    },
    {
      "inputs": [
        {
          "internalType": "address",
          "name": "",
          "type": "address"
        }
      ],
      "name": "markets",
      "outputs": [
        {
          "internalType": "contract Market",
          "name": "",
          "type": "address"
        }
      ],
      "stateMutability": "view",
      "type": "function"
    },
    {
      "inputs": [
        {
          "internalType": "uint256",
          "name": "",
          "type": "uint256"
        }
      ],
      "name": "marketsKeys",
      "outputs": [
        {
          "internalType": "address",
          "name": "",
          "type": "address"
        }
      ],
      "stateMutability": "view",
      "type": "function"
    },
    {
      "inputs": [],
      "name": "owner",
      "outputs": [
        {
          "internalType": "address",
          "name": "",
          "type": "address"
        }
      ],
      "stateMutability": "view",
      "type": "function"
    },
    {
      "inputs": [],
      "name": "uniswapFactory",
      "outputs": [
        {
          "internalType": "contract IUniswapV2Factory",
          "name": "",
          "type": "address"
        }
      ],
      "stateMutability": "view",
      "type": "function"
    }
  ],
  "bytecode": "0x608060405234801561001057600080fd5b50604051615f4f380380615f4f833981810160405281019061003291906100ce565b33600360006101000a81548173ffffffffffffffffffffffffffffffffffffffff021916908373ffffffffffffffffffffffffffffffffffffffff160217905550806000806101000a81548173ffffffffffffffffffffffffffffffffffffffff021916908373ffffffffffffffffffffffffffffffffffffffff16021790555050610140565b6000815190506100c881610129565b92915050565b6000602082840312156100e057600080fd5b60006100ee848285016100b9565b91505092915050565b600061010282610109565b9050919050565b600073ffffffffffffffffffffffffffffffffffffffff82169050919050565b610132816100f7565b811461013d57600080fd5b50565b615e008061014f6000396000f3fe60806040523480156200001157600080fd5b50600436106200006a5760003560e01c806313afc618146200006f57806327fa35c3146200008f57806346a81c0014620000b15780638bdb2afa14620000e75780638da5cb5b14620001095780638e8f294b146200012b575b600080fd5b6200008d600480360381019062000087919062000400565b62000161565b005b62000099620002a0565b604051620000a89190620006cd565b60405180910390f35b620000cf6004803603810190620000c99190620004f0565b620002ad565b604051620000de9190620005b5565b60405180910390f35b620000f1620002ed565b604051620001009190620005d2565b60405180910390f35b6200011362000311565b604051620001229190620005b5565b60405180910390f35b620001496004803603810190620001439190620003d4565b62000337565b604051620001589190620006b0565b60405180910390f35b6000308b8b8b8b8b8b8b8b8b8b6040516200017c906200036a565b620001929b9a99989796959493929190620005ef565b604051809103906000f080158015620001af573d6000803e3d6000fd5b50905080600160008373ffffffffffffffffffffffffffffffffffffffff1673ffffffffffffffffffffffffffffffffffffffff16815260200190815260200160002060006101000a81548173ffffffffffffffffffffffffffffffffffffffff021916908373ffffffffffffffffffffffffffffffffffffffff1602179055506002819080600181540180825580915050600190039060005260206000200160009091909190916101000a81548173ffffffffffffffffffffffffffffffffffffffff021916908373ffffffffffffffffffffffffffffffffffffffff1602179055505050505050505050505050565b6000600280549050905090565b60028181548110620002be57600080fd5b906000526020600020016000915054906101000a900473ffffffffffffffffffffffffffffffffffffffff1681565b60008054906101000a900473ffffffffffffffffffffffffffffffffffffffff1681565b600360009054906101000a900473ffffffffffffffffffffffffffffffffffffffff1681565b60016020528060005260406000206000915054906101000a900473ffffffffffffffffffffffffffffffffffffffff1681565b61553e806200088d83390190565b600081359050620003898162000824565b92915050565b600081359050620003a0816200083e565b92915050565b600081359050620003b78162000858565b92915050565b600081359050620003ce8162000872565b92915050565b600060208284031215620003e757600080fd5b6000620003f78482850162000378565b91505092915050565b6000806000806000806000806000806101408b8d0312156200042157600080fd5b6000620004318d828e0162000378565b9a50506020620004448d828e0162000378565b9950506040620004578d828e01620003bd565b98505060606200046a8d828e01620003bd565b97505060806200047d8d828e01620003a6565b96505060a0620004908d828e01620003a6565b95505060c0620004a38d828e01620003a6565b94505060e0620004b68d828e01620003bd565b935050610100620004ca8d828e01620003a6565b925050610120620004de8d828e016200038f565b9150509295989b9194979a5092959850565b6000602082840312156200050357600080fd5b60006200051384828501620003a6565b91505092915050565b6200052781620006ea565b82525050565b6200053881620006fe565b82525050565b620005498162000748565b82525050565b6200055a8162000770565b82525050565b6200056b8162000798565b82525050565b6200057c81620007c0565b82525050565b6200058d81620007e8565b82525050565b6200059e816200072a565b82525050565b620005af8162000810565b82525050565b6000602082019050620005cc60008301846200051c565b92915050565b6000602082019050620005e960008301846200054f565b92915050565b60006101608201905062000607600083018e62000571565b62000616602083018d6200053e565b62000625604083018c62000560565b62000634606083018b620005a4565b62000643608083018a620005a4565b6200065260a083018962000593565b6200066160c083018862000593565b6200067060e083018762000593565b62000680610100830186620005a4565b6200069061012083018562000593565b620006a06101408301846200052d565b9c9b505050505050505050505050565b6000602082019050620006c7600083018462000582565b92915050565b6000602082019050620006e4600083018462000593565b92915050565b6000620006f7826200070a565b9050919050565b60008115159050919050565b600073ffffffffffffffffffffffffffffffffffffffff82169050919050565b6000819050919050565b600067ffffffffffffffff82169050919050565b600062000755826200075c565b9050919050565b600062000769826200070a565b9050919050565b60006200077d8262000784565b9050919050565b600062000791826200070a565b9050919050565b6000620007a582620007ac565b9050919050565b6000620007b9826200070a565b9050919050565b6000620007cd82620007d4565b9050919050565b6000620007e1826200070a565b9050919050565b6000620007f582620007fc565b9050919050565b600062000809826200070a565b9050919050565b60006200081d8262000734565b9050919050565b6200082f81620006ea565b81146200083b57600080fd5b50565b6200084981620006fe565b81146200085557600080fd5b50565b62000863816200072a565b81146200086f57600080fd5b50565b6200087d8162000734565b81146200088957600080fd5b5056fe608060405260646002556000600c60006101000a81548160ff02191690831515021790555069d3c21bcecceda1000000600d553480156200003f57600080fd5b506040516200553e3803806200553e833981810160405281019062000065919062000238565b89600960006101000a81548173ffffffffffffffffffffffffffffffffffffffff021916908373ffffffffffffffffffffffffffffffffffffffff16021790555033600a60006101000a81548173ffffffffffffffffffffffffffffffffffffffff021916908373ffffffffffffffffffffffffffffffffffffffff1602179055508760008190555086600181905550856007819055508460068190555088600460006101000a81548173ffffffffffffffffffffffffffffffffffffffff021916908373ffffffffffffffffffffffffffffffffffffffff160217905550836005819055508a600860006101000a81548173ffffffffffffffffffffffffffffffffffffffff021916908373ffffffffffffffffffffffffffffffffffffffff1602179055508260038190555081600b8190555080600c60006101000a81548160ff021916908315150217905550505050505050505050505062000447565b600081519050620001d681620003c5565b92915050565b600081519050620001ed81620003df565b92915050565b6000815190506200020481620003f9565b92915050565b6000815190506200021b8162000413565b92915050565b60008151905062000232816200042d565b92915050565b60008060008060008060008060008060006101608c8e0312156200025b57600080fd5b60006200026b8e828f016200020a565b9b505060206200027e8e828f01620001dc565b9a50506040620002918e828f01620001f3565b9950506060620002a48e828f0162000221565b9850506080620002b78e828f0162000221565b97505060a0620002ca8e828f0162000221565b96505060c0620002dd8e828f0162000221565b95505060e0620002f08e828f0162000221565b945050610100620003048e828f0162000221565b935050610120620003188e828f0162000221565b9250506101406200032c8e828f01620001c5565b9150509295989b509295989b9093969950565b60006200034c826200039b565b9050919050565b60008115159050919050565b60006200036c826200033f565b9050919050565b600062000380826200033f565b9050919050565b600062000394826200033f565b9050919050565b600073ffffffffffffffffffffffffffffffffffffffff82169050919050565b6000819050919050565b620003d08162000353565b8114620003dc57600080fd5b50565b620003ea816200035f565b8114620003f657600080fd5b50565b620004048162000373565b81146200041057600080fd5b50565b6200041e8162000387565b81146200042a57600080fd5b50565b6200043881620003bb565b81146200044457600080fd5b50565b6150e780620004576000396000f3fe608060405234801561001057600080fd5b50600436106102065760003560e01c80637e9966391161011a578063a4d246ff116100ad578063c816841b1161007c578063c816841b1461066e578063c84993af1461068c578063da68cf8b146106bc578063ef78d4fd146106da578063ff5c86b0146106f857610206565b8063a4d246ff146105e8578063ae169a5014610618578063bb15d2dd14610634578063c45a01551461065057610206565b80639495833c116100e95780639495833c146105455780639592de181461057557806396b2c6f3146105a5578063a10340bc146105af57610206565b80637e996639146104bb578063830ab119146104d957806389da88a3146105095780638f9eca821461052757610206565b806341a8b6f81161019d5780635b3ad63e1161016c5780635b3ad63e146103dd57806360f65c601461040d578063659d0ca01461043d5780636f1aefc31461046d5780637358c57a1461049d57610206565b806341a8b6f8146103535780634508477514610383578063499a0fc4146103a1578063527eb4bc146103bf57610206565b80633c80d8ea116101d95780633c80d8ea146102cb5780633d09a82a146102e75780633e16bc2014610305578063410f07101461033557610206565b8063050e88401461020b5780630ef192731461023b57806314aa5a991461026b5780633656d5ee1461029b575b600080fd5b61022560048036038101906102209190613eab565b610716565b6040516102329190614794565b60405180910390f35b61025560048036038101906102509190613da5565b61073a565b6040516102629190614794565b60405180910390f35b61028560048036038101906102809190613efd565b610786565b604051610292919061452b565b60405180910390f35b6102b560048036038101906102b09190613f39565b61091d565b6040516102c29190614794565b60405180910390f35b6102e560048036038101906102e09190613f39565b6109a2565b005b6102ef61123f565b6040516102fc9190614794565b60405180910390f35b61031f600480360381019061031a9190613efd565b611245565b60405161032c9190614794565b60405180910390f35b61033d6112a8565b60405161034a9190614794565b60405180910390f35b61036d60048036038101906103689190613eab565b6112ae565b60405161037a9190614794565b60405180910390f35b61038b61147f565b6040516103989190614465565b60405180910390f35b6103a96114a5565b6040516103b69190614794565b60405180910390f35b6103c76114ab565b6040516103d49190614794565b60405180910390f35b6103f760048036038101906103f29190613eab565b6114b1565b6040516104049190614794565b60405180910390f35b61042760048036038101906104229190613df7565b6114f4565b6040516104349190614794565b60405180910390f35b61045760048036038101906104529190613da5565b611525565b6040516104649190614509565b60405180910390f35b61048760048036038101906104829190613efd565b611c61565b6040516104949190614779565b60405180910390f35b6104a5611d9e565b6040516104b29190614794565b60405180910390f35b6104c3611da4565b6040516104d09190614794565b60405180910390f35b6104f360048036038101906104ee9190613eab565b611daa565b6040516105009190614794565b60405180910390f35b610511611dcd565b60405161051e9190614794565b60405180910390f35b61052f611dda565b60405161053c919061454d565b60405180910390f35b61055f600480360381019061055a9190613da5565b611ded565b60405161056c919061452b565b60405180910390f35b61058f600480360381019061058a9190613eab565b611e84565b60405161059c9190614794565b60405180910390f35b6105ad611eba565b005b6105c960048036038101906105c49190613eab565b6121ae565b6040516105df9a99989796959493929190614856565b60405180910390f35b61060260048036038101906105fd9190613f39565b61220f565b60405161060f9190614794565b60405180910390f35b610632600480360381019061062d9190613eab565b6122c5565b005b61064e60048036038101906106499190613f39565b6122da565b005b6106586127fe565b604051610665919061459e565b60405180910390f35b610676612824565b6040516106839190614583565b60405180910390f35b6106a660048036038101906106a19190613eab565b61284a565b6040516106b39190614794565b60405180910390f35b6106c461286a565b6040516106d19190614568565b60405180910390f35b6106e2612890565b6040516106ef9190614794565b60405180910390f35b610700612896565b60405161070d9190614794565b60405180910390f35b6010818154811061072657600080fd5b906000526020600020016000915090505481565b6000600f60008373ffffffffffffffffffffffffffffffffffffffff1673ffffffffffffffffffffffffffffffffffffffff168152602001908152602001600020805490509050919050565b60608167ffffffffffffffff8111156107c8577f4e487b7100000000000000000000000000000000000000000000000000000000600052604160045260246000fd5b6040519080825280602002602001820160405280156107f65781602001602082028036833780820191505090505b50905060005b828111610916576000816000546108139190614a2d565b8561081e9190614975565b90506000600281111561085a577f4e487b7100000000000000000000000000000000000000000000000000000000600052602160045260246000fd5b600e600083815260200190815260200160002060090160009054906101000a900460ff1660028111156108b6577f4e487b7100000000000000000000000000000000000000000000000000000000600052602160045260246000fd5b1461090257808383815181106108f5577f4e487b7100000000000000000000000000000000000000000000000000000000600052603260045260246000fd5b6020026020010181815250505b50808061090e90614cc4565b9150506107fc565b5092915050565b600080610929856114b1565b9050600061096982600e6000858152602001908152602001600020600b01600061095289611e84565b81526020019081526020016000206003015461289c565b90506000610977838661289c565b90508082106109895760009350610998565b81816109959190614a87565b93505b5050509392505050565b60006109ad8461293f565b90506109b98183612aef565b60006109c58285612b47565b90506109d0426114b1565b821015610a12576040517f08c379a0000000000000000000000000000000000000000000000000000000008152600401610a09906145d9565b60405180910390fd5b600e6000838152602001908152602001600020600b01600082815260200190815260200160002060020160009054906101000a900473ffffffffffffffffffffffffffffffffffffffff1673ffffffffffffffffffffffffffffffffffffffff163373ffffffffffffffffffffffffffffffffffffffff161415610acb576040517f08c379a0000000000000000000000000000000000000000000000000000000008152600401610ac2906146b9565b60405180910390fd5b6000610ad7838561289c565b905080600e6000858152602001908152602001600020600b01600084815260200190815260200160002060030154610b0f9190614975565b600960009054906101000a900473ffffffffffffffffffffffffffffffffffffffff1673ffffffffffffffffffffffffffffffffffffffff1663dd62ed3e33306040518363ffffffff1660e01b8152600401610b6c929190614480565b60206040518083038186803b158015610b8457600080fd5b505afa158015610b98573d6000803e3d6000fd5b505050506040513d601f19601f82011682018060405250810190610bbc9190613ed4565b1015610bfd576040517f08c379a0000000000000000000000000000000000000000000000000000000008152600401610bf4906146d9565b60405180910390fd5b600960009054906101000a900473ffffffffffffffffffffffffffffffffffffffff1673ffffffffffffffffffffffffffffffffffffffff166323b872dd333084600e6000898152602001908152602001600020600b01600088815260200190815260200160002060030154610c739190614975565b6040518463ffffffff1660e01b8152600401610c91939291906144a9565b602060405180830381600087803b158015610cab57600080fd5b505af1158015610cbf573d6000803e3d6000fd5b505050506040513d601f19601f82011682018060405250810190610ce39190613e33565b5080600e600085815260200190815260200160002060030154610d069190614975565b600e60008581526020019081526020016000206003018190555060016002811115610d5a577f4e487b7100000000000000000000000000000000000000000000000000000000600052602160045260246000fd5b600e6000858152602001908152602001600020600b01600084815260200190815260200160002060040160009054906101000a900460ff166002811115610dca577f4e487b7100000000000000000000000000000000000000000000000000000000600052602160045260246000fd5b1415610f79576000610e0684600e6000878152602001908152602001600020600b0160008681526020019081526020016000206003015461289c565b9050600960009054906101000a900473ffffffffffffffffffffffffffffffffffffffff1673ffffffffffffffffffffffffffffffffffffffff1663a9059cbb600e6000878152602001908152602001600020600b01600086815260200190815260200160002060020160009054906101000a900473ffffffffffffffffffffffffffffffffffffffff16600e6000888152602001908152602001600020600b0160008781526020019081526020016000206003015484610ec79190614975565b6040518363ffffffff1660e01b8152600401610ee49291906144e0565b602060405180830381600087803b158015610efe57600080fd5b505af1158015610f12573d6000803e3d6000fd5b505050506040513d601f19601f82011682018060405250810190610f369190613e33565b5080600e600086815260200190815260200160002060030154610f599190614a87565b600e60008681526020019081526020016000206003018190555050610ff3565b6001600e6000858152602001908152602001600020600b01600084815260200190815260200160002060040160006101000a81548160ff02191690836002811115610fed577f4e487b7100000000000000000000000000000000000000000000000000000000600052602160045260246000fd5b02179055505b33600e6000858152602001908152602001600020600b01600084815260200190815260200160002060020160006101000a81548173ffffffffffffffffffffffffffffffffffffffff021916908373ffffffffffffffffffffffffffffffffffffffff16021790555083600e6000858152602001908152602001600020600b01600084815260200190815260200160002060030181905550600f60003373ffffffffffffffffffffffffffffffffffffffff1673ffffffffffffffffffffffffffffffffffffffff1681526020019081526020016000208390806001815401808255809150506001900390600052602060002001600090919091909150556110f9611eba565b7ff733bd7f4402cb7d331b34d5cd22f432b9bf71a833f786974545860d74976af283600e600086815260200190815260200160002060010154600e600087815260200190815260200160002060020154600e600088815260200190815260200160002060050154600e600089815260200190815260200160002060060154600e60008a815260200190815260200160002060070154600e60008b815260200190815260200160002060080154600e60008c8152602001908152602001600020600301546040516111d09897969594939291906147d8565b60405180910390a17f74c5c6f5cd4370cc0ab554a1afdb2b24b051b40c99102354ef424aed5cd6409d83600e6000868152602001908152602001600020600b01600085815260200190815260200160002060405161122f9291906147af565b60405180910390a1505050505050565b600b5481565b6000600e6000848152602001908152602001600020600a018281548110611295577f4e487b7100000000000000000000000000000000000000000000000000000000600052603260045260246000fd5b9060005260206000200154905092915050565b60065481565b60006112b982612cb3565b6000600e600084815260200190815260200160002060010154600e6000858152602001908152602001600020600201546112f39190614a87565b9050600c60009054906101000a900460ff16156113a257604051806020016040528082600e600087815260200190815260200160002060050154600e60008881526020019081526020016000206006015461134e9190614a87565b61135891906149fc565b7bffffffffffffffffffffffffffffffffffffffffffffffffffffffff16815250600001517bffffffffffffffffffffffffffffffffffffffffffffffffffffffff169150611436565b604051806020016040528082600e600087815260200190815260200160002060070154600e6000888152602001908152602001600020600801546113e69190614a87565b6113f091906149fc565b7bffffffffffffffffffffffffffffffffffffffffffffffffffffffff16815250600001517bffffffffffffffffffffffffffffffffffffffffffffffffffffffff1691505b7406d79f82328ea3da61e066ebb2f88a000000000000607083901b61145b91906149fc565b600d54607084901c61146d9190614a2d565b6114779190614975565b915050919050565b600a60009054906101000a900473ffffffffffffffffffffffffffffffffffffffff1681565b60055481565b60025481565b600060015482116114c65760015490506114ef565b600054600154836114d79190614a87565b6114e19190614d0d565b826114ec9190614a87565b90505b919050565b600f602052816000526040600020818154811061151057600080fd5b90600052602060002001600091509150505481565b60606000611532426114b1565b90506107d067ffffffffffffffff811115611576577f4e487b7100000000000000000000000000000000000000000000000000000000600052604160045260246000fd5b6040519080825280602002602001820160405280156115af57816020015b61159c613c64565b8152602001906001900390816115945790505b5091506115ba613c64565b60008080600190505b6064811161192457603281106115ff576032816115e09190614a87565b6000546115ed9190614a2d565b856115f89190614975565b915061161b565b8060005461160d9190614a2d565b856116189190614a87565b91505b60016002811115611655577f4e487b7100000000000000000000000000000000000000000000000000000000600052602160045260246000fd5b600e600084815260200190815260200160002060090160009054906101000a900460ff1660028111156116b1577f4e487b7100000000000000000000000000000000000000000000000000000000600052602160045260246000fd5b14156119115760005b600e6000848152602001908152602001600020600a018054905081101561190f57600e6000848152602001908152602001600020600b016000600e6000868152602001908152602001600020600a018381548110611741577f4e487b7100000000000000000000000000000000000000000000000000000000600052603260045260246000fd5b906000526020600020015481526020019081526020016000206040518060a001604052908160008201548152602001600182015481526020016002820160009054906101000a900473ffffffffffffffffffffffffffffffffffffffff1673ffffffffffffffffffffffffffffffffffffffff1673ffffffffffffffffffffffffffffffffffffffff168152602001600382015481526020016004820160009054906101000a900460ff166002811115611824577f4e487b7100000000000000000000000000000000000000000000000000000000600052602160045260246000fd5b600281111561185c577f4e487b7100000000000000000000000000000000000000000000000000000000600052602160045260246000fd5b8152505094508773ffffffffffffffffffffffffffffffffffffffff16856040015173ffffffffffffffffffffffffffffffffffffffff1614156118fc57848785815181106118d4577f4e487b7100000000000000000000000000000000000000000000000000000000600052603260045260246000fd5b602002602001018190525083806118ea90614cc4565b9450506107d084106118fb5761190f565b5b808061190790614cc4565b9150506116ba565b505b808061191c90614cc4565b9150506115c3565b506000600190505b60318111611c5757806000546119429190614a2d565b8561194d9190614a87565b9150600280811115611988577f4e487b7100000000000000000000000000000000000000000000000000000000600052602160045260246000fd5b600e600084815260200190815260200160002060090160009054906101000a900460ff1660028111156119e4577f4e487b7100000000000000000000000000000000000000000000000000000000600052602160045260246000fd5b1415611c445760005b600e6000848152602001908152602001600020600a0180549050811015611c4257600e6000848152602001908152602001600020600b016000600e6000868152602001908152602001600020600a018381548110611a74577f4e487b7100000000000000000000000000000000000000000000000000000000600052603260045260246000fd5b906000526020600020015481526020019081526020016000206040518060a001604052908160008201548152602001600182015481526020016002820160009054906101000a900473ffffffffffffffffffffffffffffffffffffffff1673ffffffffffffffffffffffffffffffffffffffff1673ffffffffffffffffffffffffffffffffffffffff168152602001600382015481526020016004820160009054906101000a900460ff166002811115611b57577f4e487b7100000000000000000000000000000000000000000000000000000000600052602160045260246000fd5b6002811115611b8f577f4e487b7100000000000000000000000000000000000000000000000000000000600052602160045260246000fd5b8152505094508773ffffffffffffffffffffffffffffffffffffffff16856040015173ffffffffffffffffffffffffffffffffffffffff161415611c2f576107d08410611bdb57611c42565b84878581518110611c15577f4e487b7100000000000000000000000000000000000000000000000000000000600052603260045260246000fd5b60200260200101819052508380611c2b90614cc4565b9450505b8080611c3a90614cc4565b9150506119ed565b505b8080611c4f90614cc4565b91505061192c565b5050505050919050565b611c69613c64565b600e6000848152602001908152602001600020600b0160008381526020019081526020016000206040518060a001604052908160008201548152602001600182015481526020016002820160009054906101000a900473ffffffffffffffffffffffffffffffffffffffff1673ffffffffffffffffffffffffffffffffffffffff1673ffffffffffffffffffffffffffffffffffffffff168152602001600382015481526020016004820160009054906101000a900460ff166002811115611d5a577f4e487b7100000000000000000000000000000000000000000000000000000000600052602160045260246000fd5b6002811115611d92577f4e487b7100000000000000000000000000000000000000000000000000000000600052602160045260246000fd5b81525050905092915050565b60015481565b60075481565b6000600e6000838152602001908152602001600020600a01805490509050919050565b6000601080549050905090565b600c60009054906101000a900460ff1681565b6060600f60008373ffffffffffffffffffffffffffffffffffffffff1673ffffffffffffffffffffffffffffffffffffffff168152602001908152602001600020805480602002602001604051908101604052809291908181526020018280548015611e7857602002820191906000526020600020905b815481526020019060010190808311611e64575b50505050509050919050565b6000808211611e97576005549050611eb5565b60055460055483611ea891906149fc565b611eb29190614a2d565b90505b919050565b6000611ec5426114b1565b905060035460005482611ed89190614975565b611ee29190614a87565b42101561201b57611f14600460009054906101000a900473ffffffffffffffffffffffffffffffffffffffff16612da2565b8063ffffffff169050600e60008581526020019081526020016000206005016000600e60008781526020019081526020016000206007016000600e60008981526020019081526020016000206001016000869190505585919050558491905055505050600e600082815260200190815260200160002060050154600e600083815260200190815260200160002060070154600e600084815260200190815260200160002060010154600e60008581526020019081526020016000206006016000600e60008781526020019081526020016000206008016000600e600089815260200190815260200160002060020160008691905055859190505584919050555050506120cc565b6003546000548261202c9190614975565b6120369190614a87565b42106120cb57612067600460009054906101000a900473ffffffffffffffffffffffffffffffffffffffff16612da2565b8063ffffffff169050600e60008581526020019081526020016000206006016000600e60008781526020019081526020016000206008016000600e600089815260200190815260200160002060020160008691905055859190505584919050555050505b5b7ff733bd7f4402cb7d331b34d5cd22f432b9bf71a833f786974545860d74976af281600e600084815260200190815260200160002060010154600e600085815260200190815260200160002060020154600e600086815260200190815260200160002060050154600e600087815260200190815260200160002060060154600e600088815260200190815260200160002060070154600e600089815260200190815260200160002060080154600e60008a8152602001908152602001600020600301546040516121a39897969594939291906147d8565b60405180910390a150565b600e6020528060005260406000206000915090508060000154908060010154908060020154908060030154908060040154908060050154908060060154908060070154908060080154908060090160009054906101000a900460ff1690508a565b60008061221b856114b1565b9050612226426114b1565b811015612268576040517f08c379a000000000000000000000000000000000000000000000000000000000815260040161225f90614699565b60405180910390fd5b600061227385611e84565b90506000612281838661289c565b905080600e6000858152602001908152602001600020600b016000848152602001908152602001600020600301546122b99190614975565b93505050509392505050565b6122ce81612ffd565b6122d7816136a8565b50565b60006122e58461293f565b90506122f18183612aef565b60006122fd8285612b47565b90503373ffffffffffffffffffffffffffffffffffffffff16600e6000848152602001908152602001600020600b01600083815260200190815260200160002060020160009054906101000a900473ffffffffffffffffffffffffffffffffffffffff1673ffffffffffffffffffffffffffffffffffffffff16146123b7576040517f08c379a00000000000000000000000000000000000000000000000000000000081526004016123ae906145f9565b60405180910390fd5b6123c0426114b1565b821015612402576040517f08c379a00000000000000000000000000000000000000000000000000000000081526004016123f990614739565b60405180910390fd5b600061240e838561289c565b9050600061244684600e6000878152602001908152602001600020600b0160008681526020019081526020016000206003015461289c565b90508082111561265357808261245c9190614a87565b600960009054906101000a900473ffffffffffffffffffffffffffffffffffffffff1673ffffffffffffffffffffffffffffffffffffffff1663dd62ed3e33306040518363ffffffff1660e01b81526004016124b9929190614480565b60206040518083038186803b1580156124d157600080fd5b505afa1580156124e5573d6000803e3d6000fd5b505050506040513d601f19601f820116820180604052508101906125099190613ed4565b101561254a576040517f08c379a0000000000000000000000000000000000000000000000000000000008152600401612541906146d9565b60405180910390fd5b600960009054906101000a900473ffffffffffffffffffffffffffffffffffffffff1673ffffffffffffffffffffffffffffffffffffffff166323b872dd333084866125969190614a87565b6040518463ffffffff1660e01b81526004016125b4939291906144a9565b602060405180830381600087803b1580156125ce57600080fd5b505af11580156125e2573d6000803e3d6000fd5b505050506040513d601f19601f820116820180604052508101906126069190613e33565b5080826126139190614a87565b600e6000868152602001908152602001600020600301546126349190614975565b600e60008681526020019081526020016000206003018190555061275f565b8082101561275e57600960009054906101000a900473ffffffffffffffffffffffffffffffffffffffff1673ffffffffffffffffffffffffffffffffffffffff1663a9059cbb3384846126a69190614a87565b6040518363ffffffff1660e01b81526004016126c39291906144e0565b602060405180830381600087803b1580156126dd57600080fd5b505af11580156126f1573d6000803e3d6000fd5b505050506040513d601f19601f820116820180604052508101906127159190613e33565b5081816127229190614a87565b600e6000868152602001908152602001600020600301546127439190614a87565b600e6000868152602001908152602001600020600301819055505b5b84600e6000868152602001908152602001600020600b01600085815260200190815260200160002060030181905550612796611eba565b7f74c5c6f5cd4370cc0ab554a1afdb2b24b051b40c99102354ef424aed5cd6409d84600e6000878152602001908152602001600020600b0160008681526020019081526020016000206040516127ed9291906147af565b60405180910390a150505050505050565b600860009054906101000a900473ffffffffffffffffffffffffffffffffffffffff1681565b600460009054906101000a900473ffffffffffffffffffffffffffffffffffffffff1681565b6000600e6000838152602001908152602001600020600301549050919050565b600960009054906101000a900473ffffffffffffffffffffffffffffffffffffffff1681565b60005481565b60035481565b600080426000546128ac426114b1565b6128b69190614975565b6128c09190614a87565b90506000805482600d546128d49190614a2d565b6128de91906149fc565b9050620186a0600754856128f29190614a2d565b6128fc91906149fc565b9250600d54818461290d9190614a2d565b61291791906149fc565b61292086613b30565b8461292b9190614a2d565b6129359190614975565b9250505092915050565b60008061294b836114b1565b905060006002811115612987577f4e487b7100000000000000000000000000000000000000000000000000000000600052602160045260246000fd5b600e600083815260200190815260200160002060090160009054906101000a900460ff1660028111156129e3577f4e487b7100000000000000000000000000000000000000000000000000000000600052602160045260246000fd5b146129f15780915050612aea565b6129fa426114b1565b811015612a3c576040517f08c379a0000000000000000000000000000000000000000000000000000000008152600401612a3390614719565b60405180910390fd5b80600e6000838152602001908152602001600020600001819055506001600e600083815260200190815260200160002060090160006101000a81548160ff02191690836002811115612ab7577f4e487b7100000000000000000000000000000000000000000000000000000000600052602160045260246000fd5b02179055506010819080600181540180825580915050600190039060005260206000200160009091909190915055809150505b919050565b6000612afb838361289c565b9050600b54811015612b42576040517f08c379a0000000000000000000000000000000000000000000000000000000008152600401612b3990614679565b60405180910390fd5b505050565b600080612b5383611e84565b905060006002811115612b8f577f4e487b7100000000000000000000000000000000000000000000000000000000600052602160045260246000fd5b600e6000868152602001908152602001600020600b01600083815260200190815260200160002060040160009054906101000a900460ff166002811115612bff577f4e487b7100000000000000000000000000000000000000000000000000000000600052602160045260246000fd5b14612c0d5780915050612cad565b83600e6000868152602001908152602001600020600b0160008381526020019081526020016000206000018190555080600e6000868152602001908152602001600020600b01600083815260200190815260200160002060010181905550600e6000858152602001908152602001600020600a01819080600181540180825580915050600190039060005260206000200160009091909190915055809150505b92915050565b6000600e600083815260200190815260200160002060050154111580612cf057506000600e60008381526020019081526020016000206006015411155b15612d30576040517f08c379a0000000000000000000000000000000000000000000000000000000008152600401612d2790614639565b60405180910390fd5b600e600082815260200190815260200160002060060154600e6000838152602001908152602001600020600501541415612d9f576040517f08c379a0000000000000000000000000000000000000000000000000000000008152600401612d9690614639565b60405180910390fd5b50565b6000806000612daf613b6c565b90508373ffffffffffffffffffffffffffffffffffffffff16635909c0d56040518163ffffffff1660e01b815260040160206040518083038186803b158015612df757600080fd5b505afa158015612e0b573d6000803e3d6000fd5b505050506040513d601f19601f82011682018060405250810190612e2f9190613ed4565b92508373ffffffffffffffffffffffffffffffffffffffff16635a3d54936040518163ffffffff1660e01b815260040160206040518083038186803b158015612e7757600080fd5b505afa158015612e8b573d6000803e3d6000fd5b505050506040513d601f19601f82011682018060405250810190612eaf9190613ed4565b915060008060008673ffffffffffffffffffffffffffffffffffffffff16630902f1ac6040518163ffffffff1660e01b815260040160606040518083038186803b158015612efc57600080fd5b505afa158015612f10573d6000803e3d6000fd5b505050506040513d601f19601f82011682018060405250810190612f349190613e5c565b9250925092508363ffffffff168163ffffffff1614612ff35760008185612f5b9190614abb565b90508063ffffffff16612f6e8486613b84565b600001517bffffffffffffffffffffffffffffffffffffffffffffffffffffffff16612f9a9190614a2d565b87612fa59190614975565b96508063ffffffff16612fb88585613b84565b600001517bffffffffffffffffffffffffffffffffffffffffffffffffffffffff16612fe49190614a2d565b86612fef9190614975565b9550505b5050509193909250565b61300681612cb3565b42600054826130159190614975565b1115613056576040517f08c379a000000000000000000000000000000000000000000000000000000000815260040161304d906145b9565b60405180910390fd5b6002600e600083815260200190815260200160002060090160006101000a81548160ff021916908360028111156130b6577f4e487b7100000000000000000000000000000000000000000000000000000000600052602160045260246000fd5b02179055506000600e600083815260200190815260200160002060010154600e6000848152602001908152602001600020600201546130f59190614a87565b9050600c60009054906101000a900460ff16156131bc57604051806020016040528082600e600086815260200190815260200160002060050154600e6000878152602001908152602001600020600601546131509190614a87565b61315a91906149fc565b7bffffffffffffffffffffffffffffffffffffffffffffffffffffffff16815250600001517bffffffffffffffffffffffffffffffffffffffffffffffffffffffff16600e600084815260200190815260200160002060040181905550613268565b604051806020016040528082600e600086815260200190815260200160002060070154600e6000878152602001908152602001600020600801546132009190614a87565b61320a91906149fc565b7bffffffffffffffffffffffffffffffffffffffffffffffffffffffff16815250600001517bffffffffffffffffffffffffffffffffffffffffffffffffffffffff16600e6000848152602001908152602001600020600401819055505b7406d79f82328ea3da61e066ebb2f88a0000000000006070600e600085815260200190815260200160002060040154901b6132a391906149fc565b600d546070600e600086815260200190815260200160002060040154901c6132cb9190614a2d565b6132d59190614975565b600e6000848152602001908152602001600020600401819055506000620186a0600654600e6000868152602001908152602001600020600301546133199190614a2d565b61332391906149fc565b90506000620186a0600254600e60008781526020019081526020016000206003015461334f9190614a2d565b61335991906149fc565b90508082600e60008781526020019081526020016000206003015461337e9190614a87565b6133889190614a87565b600e600086815260200190815260200160002060030181905550600960009054906101000a900473ffffffffffffffffffffffffffffffffffffffff1673ffffffffffffffffffffffffffffffffffffffff1663a9059cbb600a60009054906101000a900473ffffffffffffffffffffffffffffffffffffffff16846040518363ffffffff1660e01b81526004016134219291906144e0565b602060405180830381600087803b15801561343b57600080fd5b505af115801561344f573d6000803e3d6000fd5b505050506040513d601f19601f820116820180604052508101906134739190613e33565b50600960009054906101000a900473ffffffffffffffffffffffffffffffffffffffff1673ffffffffffffffffffffffffffffffffffffffff1663a9059cbb600860009054906101000a900473ffffffffffffffffffffffffffffffffffffffff1673ffffffffffffffffffffffffffffffffffffffff16638da5cb5b6040518163ffffffff1660e01b815260040160206040518083038186803b15801561351a57600080fd5b505afa15801561352e573d6000803e3d6000fd5b505050506040513d601f19601f820116820180604052508101906135529190613dce565b836040518363ffffffff1660e01b81526004016135709291906144e0565b602060405180830381600087803b15801561358a57600080fd5b505af115801561359e573d6000803e3d6000fd5b505050506040513d601f19601f820116820180604052508101906135c29190613e33565b507ff733bd7f4402cb7d331b34d5cd22f432b9bf71a833f786974545860d74976af284600e600087815260200190815260200160002060010154600e600088815260200190815260200160002060020154600e600089815260200190815260200160002060050154600e60008a815260200190815260200160002060060154600e60008b815260200190815260200160002060070154600e60008c815260200190815260200160002060080154600e60008d81526020019081526020016000206003015460405161369a9897969594939291906147d8565b60405180910390a150505050565b6002808111156136e1577f4e487b7100000000000000000000000000000000000000000000000000000000600052602160045260246000fd5b600e600083815260200190815260200160002060090160009054906101000a900460ff16600281111561373d577f4e487b7100000000000000000000000000000000000000000000000000000000600052602160045260246000fd5b1461377d576040517f08c379a0000000000000000000000000000000000000000000000000000000008152600401613774906146f9565b60405180910390fd5b600061379e600e600084815260200190815260200160002060040154611e84565b90506002808111156137d9577f4e487b7100000000000000000000000000000000000000000000000000000000600052602160045260246000fd5b600e6000848152602001908152602001600020600b01600083815260200190815260200160002060040160009054906101000a900460ff166002811115613849577f4e487b7100000000000000000000000000000000000000000000000000000000600052602160045260246000fd5b141561388a576040517f08c379a000000000000000000000000000000000000000000000000000000000815260040161388190614659565b60405180910390fd5b600073ffffffffffffffffffffffffffffffffffffffff16600e6000848152602001908152602001600020600b01600083815260200190815260200160002060020160009054906101000a900473ffffffffffffffffffffffffffffffffffffffff1673ffffffffffffffffffffffffffffffffffffffff161415613944576040517f08c379a000000000000000000000000000000000000000000000000000000000815260040161393b90614619565b60405180910390fd5b600960009054906101000a900473ffffffffffffffffffffffffffffffffffffffff1673ffffffffffffffffffffffffffffffffffffffff1663a9059cbb600e6000858152602001908152602001600020600b01600084815260200190815260200160002060020160009054906101000a900473ffffffffffffffffffffffffffffffffffffffff16600e6000868152602001908152602001600020600301546040518363ffffffff1660e01b8152600401613a019291906144e0565b602060405180830381600087803b158015613a1b57600080fd5b505af1158015613a2f573d6000803e3d6000fd5b505050506040513d601f19601f82011682018060405250810190613a539190613e33565b506002600e6000848152602001908152602001600020600b01600083815260200190815260200160002060040160006101000a81548160ff02191690836002811115613ac8577f4e487b7100000000000000000000000000000000000000000000000000000000600052602160045260246000fd5b02179055507f74c5c6f5cd4370cc0ab554a1afdb2b24b051b40c99102354ef424aed5cd6409d82600e6000858152602001908152602001600020600b016000848152602001908152602001600020604051613b249291906147af565b60405180910390a15050565b6000613b3b426114b1565b821415613b4b5760009050613b67565b6000544283613b5a9190614a87565b613b6491906149fc565b90505b919050565b600064010000000042613b7f9190614d0d565b905090565b613b8c613ce1565b6000826dffffffffffffffffffffffffffff1611613bdf576040517f08c379a0000000000000000000000000000000000000000000000000000000008152600401613bd690614759565b60405180910390fd5b6040518060200160405280836dffffffffffffffffffffffffffff16607060ff16866dffffffffffffffffffffffffffff167bffffffffffffffffffffffffffffffffffffffffffffffffffffffff16901b613c3b91906149cb565b7bffffffffffffffffffffffffffffffffffffffffffffffffffffffff16815250905092915050565b6040518060a001604052806000815260200160008152602001600073ffffffffffffffffffffffffffffffffffffffff1681526020016000815260200160006002811115613cdb577f4e487b7100000000000000000000000000000000000000000000000000000000600052602160045260246000fd5b81525090565b604051806020016040528060007bffffffffffffffffffffffffffffffffffffffffffffffffffffffff1681525090565b600081359050613d218161503e565b92915050565b600081519050613d368161503e565b92915050565b600081519050613d4b81615055565b92915050565b600081519050613d608161506c565b92915050565b600081359050613d7581615083565b92915050565b600081519050613d8a81615083565b92915050565b600081519050613d9f8161509a565b92915050565b600060208284031215613db757600080fd5b6000613dc584828501613d12565b91505092915050565b600060208284031215613de057600080fd5b6000613dee84828501613d27565b91505092915050565b60008060408385031215613e0a57600080fd5b6000613e1885828601613d12565b9250506020613e2985828601613d66565b9150509250929050565b600060208284031215613e4557600080fd5b6000613e5384828501613d3c565b91505092915050565b600080600060608486031215613e7157600080fd5b6000613e7f86828701613d51565b9350506020613e9086828701613d51565b9250506040613ea186828701613d90565b9150509250925092565b600060208284031215613ebd57600080fd5b6000613ecb84828501613d66565b91505092915050565b600060208284031215613ee657600080fd5b6000613ef484828501613d7b565b91505092915050565b60008060408385031215613f1057600080fd5b6000613f1e85828601613d66565b9250506020613f2f85828601613d66565b9150509250929050565b600080600060608486031215613f4e57600080fd5b6000613f5c86828701613d66565b9350506020613f6d86828701613d66565b9250506040613f7e86828701613d66565b9150509250925092565b6000613f9483836142d6565b60a08301905092915050565b6000613fac8383614447565b60208301905092915050565b613fc181614b26565b82525050565b613fd081614b26565b82525050565b6000613fe182614912565b613feb8185614942565b9350613ff6836148f2565b8060005b8381101561402757815161400e8882613f88565b975061401983614928565b925050600181019050613ffa565b5085935050505092915050565b600061403f8261491d565b6140498185614953565b935061405483614902565b8060005b8381101561408557815161406c8882613fa0565b975061407783614935565b925050600181019050614058565b5085935050505092915050565b61409b81614b38565b82525050565b6140aa81614be6565b82525050565b6140b981614c0a565b82525050565b6140c881614c2e565b82525050565b6140d781614c52565b82525050565b6140e681614c64565b82525050565b60006140f9601a83614964565b915061410482614dd8565b602082019050919050565b600061411c600b83614964565b915061412782614e01565b602082019050919050565b600061413f600d83614964565b915061414a82614e2a565b602082019050919050565b6000614162600883614964565b915061416d82614e53565b602082019050919050565b6000614185601383614964565b915061419082614e7c565b602082019050919050565b60006141a8601383614964565b91506141b382614ea5565b602082019050919050565b60006141cb601083614964565b91506141d682614ece565b602082019050919050565b60006141ee601b83614964565b91506141f982614ef7565b602082019050919050565b6000614211600d83614964565b915061421c82614f20565b602082019050919050565b6000614234601983614964565b915061423f82614f49565b602082019050919050565b6000614257601083614964565b915061426282614f72565b602082019050919050565b600061427a600d83614964565b915061428582614f9b565b602082019050919050565b600061429d601183614964565b91506142a882614fc4565b602082019050919050565b60006142c0601783614964565b91506142cb82614fed565b602082019050919050565b60a0820160008201516142ec6000850182614447565b5060208201516142ff6020850182614447565b5060408201516143126040850182613fb8565b5060608201516143256060850182614447565b50608082015161433860808501826140dd565b50505050565b60a0820160008201516143546000850182614447565b5060208201516143676020850182614447565b50604082015161437a6040850182613fb8565b50606082015161438d6060850182614447565b5060808201516143a060808501826140dd565b50505050565b60a0820160008083015490506143bb81614caa565b6143c86000860182614447565b50600183015490506143d981614caa565b6143e66020860182614447565b50600283015490506143f781614c76565b6144046040860182613fb8565b506003830154905061441581614caa565b6144226060860182614447565b506004830154905061443381614c90565b61444060808601826140dd565b5050505050565b61445081614bcc565b82525050565b61445f81614bcc565b82525050565b600060208201905061447a6000830184613fc7565b92915050565b60006040820190506144956000830185613fc7565b6144a26020830184613fc7565b9392505050565b60006060820190506144be6000830186613fc7565b6144cb6020830185613fc7565b6144d86040830184614456565b949350505050565b60006040820190506144f56000830185613fc7565b6145026020830184614456565b9392505050565b600060208201905081810360008301526145238184613fd6565b905092915050565b600060208201905081810360008301526145458184614034565b905092915050565b60006020820190506145626000830184614092565b92915050565b600060208201905061457d60008301846140a1565b92915050565b600060208201905061459860008301846140b0565b92915050565b60006020820190506145b360008301846140bf565b92915050565b600060208201905081810360008301526145d2816140ec565b9050919050565b600060208201905081810360008301526145f28161410f565b9050919050565b6000602082019050818103600083015261461281614132565b9050919050565b6000602082019050818103600083015261463281614155565b9050919050565b6000602082019050818103600083015261465281614178565b9050919050565b600060208201905081810360008301526146728161419b565b9050919050565b60006020820190508181036000830152614692816141be565b9050919050565b600060208201905081810360008301526146b2816141e1565b9050919050565b600060208201905081810360008301526146d281614204565b9050919050565b600060208201905081810360008301526146f281614227565b9050919050565b600060208201905081810360008301526147128161424a565b9050919050565b600060208201905081810360008301526147328161426d565b9050919050565b6000602082019050818103600083015261475281614290565b9050919050565b60006020820190508181036000830152614772816142b3565b9050919050565b600060a08201905061478e600083018461433e565b92915050565b60006020820190506147a96000830184614456565b92915050565b600060c0820190506147c46000830185614456565b6147d160208301846143a6565b9392505050565b6000610100820190506147ee600083018b614456565b6147fb602083018a614456565b6148086040830189614456565b6148156060830188614456565b6148226080830187614456565b61482f60a0830186614456565b61483c60c0830185614456565b61484960e0830184614456565b9998505050505050505050565b60006101408201905061486c600083018d614456565b614879602083018c614456565b614886604083018b614456565b614893606083018a614456565b6148a06080830189614456565b6148ad60a0830188614456565b6148ba60c0830187614456565b6148c760e0830186614456565b6148d5610100830185614456565b6148e36101208301846140ce565b9b9a5050505050505050505050565b6000819050602082019050919050565b6000819050602082019050919050565b600081519050919050565b600081519050919050565b6000602082019050919050565b6000602082019050919050565b600082825260208201905092915050565b600082825260208201905092915050565b600082825260208201905092915050565b600061498082614bcc565b915061498b83614bcc565b9250827fffffffffffffffffffffffffffffffffffffffffffffffffffffffffffffffff038211156149c0576149bf614d3e565b5b828201905092915050565b60006149d682614ba4565b91506149e183614ba4565b9250826149f1576149f0614d6d565b5b828204905092915050565b6000614a0782614bcc565b9150614a1283614bcc565b925082614a2257614a21614d6d565b5b828204905092915050565b6000614a3882614bcc565b9150614a4383614bcc565b9250817fffffffffffffffffffffffffffffffffffffffffffffffffffffffffffffffff0483118215151615614a7c57614a7b614d3e565b5b828202905092915050565b6000614a9282614bcc565b9150614a9d83614bcc565b925082821015614ab057614aaf614d3e565b5b828203905092915050565b6000614ac682614bd6565b9150614ad183614bd6565b925082821015614ae457614ae3614d3e565b5b828203905092915050565b600073ffffffffffffffffffffffffffffffffffffffff82169050919050565b600060ff82169050919050565b6000819050919050565b6000614b3182614b84565b9050919050565b60008115159050919050565b6000819050614b5282615016565b919050565b6000819050614b658261502a565b919050565b60006dffffffffffffffffffffffffffff82169050919050565b600073ffffffffffffffffffffffffffffffffffffffff82169050919050565b60007bffffffffffffffffffffffffffffffffffffffffffffffffffffffff82169050919050565b6000819050919050565b600063ffffffff82169050919050565b6000614bf182614bf8565b9050919050565b6000614c0382614b84565b9050919050565b6000614c1582614c1c565b9050919050565b6000614c2782614b84565b9050919050565b6000614c3982614c40565b9050919050565b6000614c4b82614b84565b9050919050565b6000614c5d82614b44565b9050919050565b6000614c6f82614b57565b9050919050565b6000614c89614c8483614dcb565b614aef565b9050919050565b6000614ca3614c9e83614dcb565b614b0f565b9050919050565b6000614cbd614cb883614dcb565b614b1c565b9050919050565b6000614ccf82614bcc565b91507fffffffffffffffffffffffffffffffffffffffffffffffffffffffffffffffff821415614d0257614d01614d3e565b5b600182019050919050565b6000614d1882614bcc565b9150614d2383614bcc565b925082614d3357614d32614d6d565b5b828206905092915050565b7f4e487b7100000000000000000000000000000000000000000000000000000000600052601160045260246000fd5b7f4e487b7100000000000000000000000000000000000000000000000000000000600052601260045260246000fd5b7f4e487b7100000000000000000000000000000000000000000000000000000000600052602160045260246000fd5b60008160001c9050919050565b7f4652414d4520454e442054494d45204e4f542052454143484544000000000000600082015250565b7f4c4f5420494e2050415354000000000000000000000000000000000000000000600082015250565b7f4e4f54204c4f54204f574e455200000000000000000000000000000000000000600082015250565b7f4e4f204f574e4552000000000000000000000000000000000000000000000000600082015250565b7f494e56414c4944204652414d4520505249434500000000000000000000000000600082015250565b7f4c4f5420414c524541445920534554544c454400000000000000000000000000600082015250565b7f505249434520495320544f4f204c4f5700000000000000000000000000000000600082015250565b7f54484953204c4f5420495320494e20412050415354204652414d450000000000600082015250565b7f414c5245414459204f574e455200000000000000000000000000000000000000600082015250565b7f415050524f56454420414d4f554e5420544f4f20534d414c4c00000000000000600082015250565b7f4652414d45204e4f5420434c4f53454400000000000000000000000000000000600082015250565b7f4652414d4520494e205041535400000000000000000000000000000000000000600082015250565b7f4c4f5420494e2050415354204652414d45000000000000000000000000000000600082015250565b7f4669786564506f696e743a204449565f42595f5a45524f000000000000000000600082015250565b6003811061502757615026614d9c565b5b50565b6003811061503b5761503a614d9c565b5b50565b61504781614b26565b811461505257600080fd5b50565b61505e81614b38565b811461506957600080fd5b50565b61507581614b6a565b811461508057600080fd5b50565b61508c81614bcc565b811461509757600080fd5b50565b6150a381614bd6565b81146150ae57600080fd5b5056fea2646970667358221220a69a5c580305c28d4490cfad717b5c9a9f000750ae43f3cfee4af82739bc7ca264736f6c63430008040033a2646970667358221220203898612f890410fb226a940d835ab134783542a9bba862634a94c82556101c64736f6c63430008040033",
  "linkReferences": {},
  "deployedLinkReferences": {}
}