{
  "_format": "hh-sol-artifact-1",
  "contractName": "MarketFactory",
  "sourceName": "contracts/MarketFactory.sol",
  "abi": [
    {
      "inputs": [
        {
          "internalType": "address",
          "name": "_uniswapFactory",
          "type": "address"
        }
      ],
      "stateMutability": "nonpayable",
      "type": "constructor"
    },
    {
      "inputs": [
        {
          "internalType": "address",
          "name": "_token",
          "type": "address"
        },
        {
          "internalType": "address",
          "name": "_uniswapPair",
          "type": "address"
        },
        {
          "internalType": "uint64",
          "name": "_period",
          "type": "uint64"
        },
        {
          "internalType": "uint64",
          "name": "_initTimestamp",
          "type": "uint64"
        },
        {
          "internalType": "uint256",
          "name": "_tax",
          "type": "uint256"
        },
        {
          "internalType": "uint256",
          "name": "_fee",
          "type": "uint256"
        },
        {
          "internalType": "uint256",
          "name": "_dPrice",
          "type": "uint256"
        },
        {
          "internalType": "uint64",
          "name": "_tReporting",
          "type": "uint64"
        },
        {
          "internalType": "uint256",
          "name": "_minTax",
          "type": "uint256"
        }
      ],
      "name": "addMarket",
      "outputs": [],
      "stateMutability": "nonpayable",
      "type": "function"
    },
    {
      "inputs": [],
      "name": "getMarketsCount",
      "outputs": [
        {
          "internalType": "uint256",
          "name": "",
          "type": "uint256"
        }
      ],
      "stateMutability": "view",
      "type": "function"
    },
    {
      "inputs": [
        {
          "internalType": "address",
          "name": "",
          "type": "address"
        }
      ],
      "name": "markets",
      "outputs": [
        {
          "internalType": "contract Market",
          "name": "",
          "type": "address"
        }
      ],
      "stateMutability": "view",
      "type": "function"
    },
    {
      "inputs": [
        {
          "internalType": "uint256",
          "name": "",
          "type": "uint256"
        }
      ],
      "name": "marketsKeys",
      "outputs": [
        {
          "internalType": "address",
          "name": "",
          "type": "address"
        }
      ],
      "stateMutability": "view",
      "type": "function"
    },
    {
      "inputs": [],
      "name": "owner",
      "outputs": [
        {
          "internalType": "address",
          "name": "",
          "type": "address"
        }
      ],
      "stateMutability": "view",
      "type": "function"
    },
    {
      "inputs": [],
      "name": "uniswapFactory",
      "outputs": [
        {
          "internalType": "contract IUniswapV2Factory",
          "name": "",
          "type": "address"
        }
      ],
      "stateMutability": "view",
      "type": "function"
    }
  ],
  "bytecode": "0x608060405234801561001057600080fd5b50604051614efe380380614efe833981810160405281019061003291906100ce565b33600360006101000a81548173ffffffffffffffffffffffffffffffffffffffff021916908373ffffffffffffffffffffffffffffffffffffffff160217905550806000806101000a81548173ffffffffffffffffffffffffffffffffffffffff021916908373ffffffffffffffffffffffffffffffffffffffff16021790555050610140565b6000815190506100c881610129565b92915050565b6000602082840312156100e057600080fd5b60006100ee848285016100b9565b91505092915050565b600061010282610109565b9050919050565b600073ffffffffffffffffffffffffffffffffffffffff82169050919050565b610132816100f7565b811461013d57600080fd5b50565b614daf8061014f6000396000f3fe60806040523480156200001157600080fd5b50600436106200006a5760003560e01c806327fa35c3146200006f57806346a81c0014620000915780638bdb2afa14620000c75780638da5cb5b14620000e95780638e8f294b146200010b57806396a1a9ca1462000141575b600080fd5b6200007962000161565b6040516200008891906200067a565b60405180910390f35b620000af6004803603810190620000a99190620004bf565b6200016e565b604051620000be919062000573565b60405180910390f35b620000d1620001ae565b604051620000e0919062000590565b60405180910390f35b620000f3620001d2565b60405162000102919062000573565b60405180910390f35b620001296004803603810190620001239190620003ba565b620001f8565b6040516200013891906200065d565b60405180910390f35b6200015f6004803603810190620001599190620003e6565b6200022b565b005b6000600280549050905090565b600281815481106200017f57600080fd5b906000526020600020016000915054906101000a900473ffffffffffffffffffffffffffffffffffffffff1681565b60008054906101000a900473ffffffffffffffffffffffffffffffffffffffff1681565b600360009054906101000a900473ffffffffffffffffffffffffffffffffffffffff1681565b60016020528060005260406000206000915054906101000a900473ffffffffffffffffffffffffffffffffffffffff1681565b6000308a8a8a8a8a8a8a8a8a604051620002459062000367565b6200025a9a99989796959493929190620005ad565b604051809103906000f08015801562000277573d6000803e3d6000fd5b50905080600160008373ffffffffffffffffffffffffffffffffffffffff1673ffffffffffffffffffffffffffffffffffffffff16815260200190815260200160002060006101000a81548173ffffffffffffffffffffffffffffffffffffffff021916908373ffffffffffffffffffffffffffffffffffffffff1602179055506002819080600181540180825580915050600190039060005260206000200160009091909190916101000a81548173ffffffffffffffffffffffffffffffffffffffff021916908373ffffffffffffffffffffffffffffffffffffffff16021790555050505050505050505050565b614566806200081483390190565b6000813590506200038681620007c5565b92915050565b6000813590506200039d81620007df565b92915050565b600081359050620003b481620007f9565b92915050565b600060208284031215620003cd57600080fd5b6000620003dd8482850162000375565b91505092915050565b60008060008060008060008060006101208a8c0312156200040657600080fd5b6000620004168c828d0162000375565b9950506020620004298c828d0162000375565b98505060406200043c8c828d01620003a3565b97505060606200044f8c828d01620003a3565b9650506080620004628c828d016200038c565b95505060a0620004758c828d016200038c565b94505060c0620004888c828d016200038c565b93505060e06200049b8c828d01620003a3565b925050610100620004af8c828d016200038c565b9150509295985092959850929598565b600060208284031215620004d257600080fd5b6000620004e2848285016200038c565b91505092915050565b620004f68162000697565b82525050565b6200050781620006e9565b82525050565b620005188162000711565b82525050565b620005298162000739565b82525050565b6200053a8162000761565b82525050565b6200054b8162000789565b82525050565b6200055c81620006cb565b82525050565b6200056d81620007b1565b82525050565b60006020820190506200058a6000830184620004eb565b92915050565b6000602082019050620005a760008301846200050d565b92915050565b600061014082019050620005c5600083018d6200052f565b620005d4602083018c620004fc565b620005e3604083018b6200051e565b620005f2606083018a62000562565b62000601608083018962000562565b6200061060a083018862000551565b6200061f60c083018762000551565b6200062e60e083018662000551565b6200063e61010083018562000562565b6200064e61012083018462000551565b9b9a5050505050505050505050565b600060208201905062000674600083018462000540565b92915050565b600060208201905062000691600083018462000551565b92915050565b6000620006a482620006ab565b9050919050565b600073ffffffffffffffffffffffffffffffffffffffff82169050919050565b6000819050919050565b600067ffffffffffffffff82169050919050565b6000620006f682620006fd565b9050919050565b60006200070a82620006ab565b9050919050565b60006200071e8262000725565b9050919050565b60006200073282620006ab565b9050919050565b600062000746826200074d565b9050919050565b60006200075a82620006ab565b9050919050565b60006200076e8262000775565b9050919050565b60006200078282620006ab565b9050919050565b600062000796826200079d565b9050919050565b6000620007aa82620006ab565b9050919050565b6000620007be82620006d5565b9050919050565b620007d08162000697565b8114620007dc57600080fd5b50565b620007ea81620006cb565b8114620007f657600080fd5b50565b6200080481620006d5565b81146200081057600080fd5b5056fe6080604052606460025569d3c21bcecceda1000000600c553480156200002457600080fd5b50604051620045663803806200456683398181016040528101906200004a9190620001eb565b88600960006101000a81548173ffffffffffffffffffffffffffffffffffffffff021916908373ffffffffffffffffffffffffffffffffffffffff16021790555033600a60006101000a81548173ffffffffffffffffffffffffffffffffffffffff021916908373ffffffffffffffffffffffffffffffffffffffff1602179055508660008190555085600181905550846007819055508360068190555087600460006101000a81548173ffffffffffffffffffffffffffffffffffffffff021916908373ffffffffffffffffffffffffffffffffffffffff1602179055508260058190555089600860006101000a81548173ffffffffffffffffffffffffffffffffffffffff021916908373ffffffffffffffffffffffffffffffffffffffff1602179055508160038190555080600b8190555050505050505050505050620003bd565b600081519050620001a08162000355565b92915050565b600081519050620001b7816200036f565b92915050565b600081519050620001ce8162000389565b92915050565b600081519050620001e581620003a3565b92915050565b6000806000806000806000806000806101408b8d0312156200020c57600080fd5b60006200021c8d828e01620001bd565b9a505060206200022f8d828e016200018f565b9950506040620002428d828e01620001a6565b9850506060620002558d828e01620001d4565b9750506080620002688d828e01620001d4565b96505060a06200027b8d828e01620001d4565b95505060c06200028e8d828e01620001d4565b94505060e0620002a18d828e01620001d4565b935050610100620002b58d828e01620001d4565b925050610120620002c98d828e01620001d4565b9150509295989b9194979a5092959850565b6000620002e8826200032b565b9050919050565b6000620002fc82620002db565b9050919050565b60006200031082620002db565b9050919050565b60006200032482620002db565b9050919050565b600073ffffffffffffffffffffffffffffffffffffffff82169050919050565b6000819050919050565b6200036081620002ef565b81146200036c57600080fd5b50565b6200037a8162000303565b81146200038657600080fd5b50565b620003948162000317565b8114620003a057600080fd5b50565b620003ae816200034b565b8114620003ba57600080fd5b50565b61419980620003cd6000396000f3fe608060405234801561001057600080fd5b50600436106102065760003560e01c80637e9966391161011a578063bb15d2dd116100ad578063da68cf8b1161007c578063da68cf8b14610659578063e107fb4f14610677578063ef78d4fd146106a7578063fc950702146106c5578063ff5c86b0146106e157610206565b8063bb15d2dd146105d1578063c45a0155146105ed578063c816841b1461060b578063c84993af1461062957610206565b80639495833c116100e95780639495833c1461052f57806396b2c6f31461055f578063a10340bc14610569578063a4d246ff146105a157610206565b80637e99663914610493578063830ab119146104b1578063888bdbcd146104e157806389da88a31461051157610206565b8063499a0fc41161019d57806360f65c601161016c57806360f65c60146103c95780636f1aefc3146103f95780636f7cb60b146104295780637358c57a146104455780637d6ae6a01461046357610206565b8063499a0fc4146103415780634d3ee2dc1461035f578063527eb4bc1461037b5780635b3ad63e1461039957610206565b80633d09a82a116101d95780633d09a82a146102b75780633e16bc20146102d5578063410f071014610305578063450847751461032357610206565b8063050e88401461020b5780630cbcff8f1461023b5780630ef192731461026b5780633c80d8ea1461029b575b600080fd5b61022560048036038101906102209190613348565b6106ff565b6040516102329190613a10565b60405180910390f35b61025560048036038101906102509190613348565b610723565b6040516102629190613a10565b60405180910390f35b61028560048036038101906102809190613242565b61090a565b6040516102929190613a10565b60405180910390f35b6102b560048036038101906102b091906133d6565b610956565b005b6102bf611144565b6040516102cc9190613a10565b60405180910390f35b6102ef60048036038101906102ea919061339a565b61114a565b6040516102fc9190613a10565b60405180910390f35b61030d6111ad565b60405161031a9190613a10565b60405180910390f35b61032b6111b3565b604051610338919061373e565b60405180910390f35b6103496111d9565b6040516103569190613a10565b60405180910390f35b61037960048036038101906103749190613348565b6111df565b005b610383611588565b6040516103909190613a10565b60405180910390f35b6103b360048036038101906103ae9190613348565b61158e565b6040516103c09190613a10565b60405180910390f35b6103e360048036038101906103de9190613294565b6115d1565b6040516103f09190613a10565b60405180910390f35b610413600480360381019061040e919061339a565b611602565b60405161042091906139f5565b60405180910390f35b610443600480360381019061043e9190613348565b611735565b005b61044d611994565b60405161045a9190613a10565b60405180910390f35b61047d60048036038101906104789190613348565b61199a565b60405161048a9190613a10565b60405180910390f35b61049b6119c8565b6040516104a89190613a10565b60405180910390f35b6104cb60048036038101906104c69190613348565b6119ce565b6040516104d89190613a10565b60405180910390f35b6104fb60048036038101906104f69190613348565b6119f1565b6040516105089190613a10565b60405180910390f35b610519611a34565b6040516105269190613a10565b60405180910390f35b61054960048036038101906105449190613242565b611a41565b60405161055691906137e2565b60405180910390f35b610567611ad8565b005b610583600480360381019061057e9190613348565b611cc8565b60405161059899989796959493929190613a54565b60405180910390f35b6105bb60048036038101906105b691906133d6565b611d23565b6040516105c89190613a10565b60405180910390f35b6105eb60048036038101906105e691906133d6565b611d8e565b005b6105f5612297565b604051610602919061383a565b60405180910390f35b6106136122bd565b604051610620919061381f565b60405180910390f35b610643600480360381019061063e9190613348565b6122e3565b6040516106509190613a10565b60405180910390f35b610661612303565b60405161066e9190613804565b60405180910390f35b610691600480360381019061068c919061339a565b612329565b60405161069e9190613a10565b60405180910390f35b6106af6123f6565b6040516106bc9190613a10565b60405180910390f35b6106df60048036038101906106da9190613348565b6123fc565b005b6106e9612bc2565b6040516106f69190613a10565b60405180910390f35b600f818154811061070f57600080fd5b906000526020600020016000915090505481565b60008061072f8361158e565b90506000600381111561076b577f4e487b7100000000000000000000000000000000000000000000000000000000600052602160045260246000fd5b600d600083815260200190815260200160002060080160009054906101000a900460ff1660038111156107c7577f4e487b7100000000000000000000000000000000000000000000000000000000600052602160045260246000fd5b146107d55780915050610905565b6107de4261158e565b811015610820576040517f08c379a0000000000000000000000000000000000000000000000000000000008152600401610817906138b5565b60405180910390fd5b80600d6000838152602001908152602001600020600001819055506001600d600083815260200190815260200160002060080160006101000a81548160ff0219169083600381111561089b577f4e487b7100000000000000000000000000000000000000000000000000000000600052602160045260246000fd5b0217905550600f8190806001815401808255809150506001900390600052602060002001600090919091909150557f163614e6e9ce9df7687928015fd2c748b69c5136db886e57f09170b251b58e87816040516108f89190613a10565b60405180910390a1809150505b919050565b6000600e60008373ffffffffffffffffffffffffffffffffffffffff1673ffffffffffffffffffffffffffffffffffffffff168152602001908152602001600020805490509050919050565b806000620186a06007548361096b9190613be3565b6109759190613bb2565b9050600b548110156109bc576040517f08c379a00000000000000000000000000000000000000000000000000000000081526004016109b390613915565b60405180910390fd5b60006109c786610723565b905060006109d58287612bc8565b90506109e04261158e565b821015610a22576040517f08c379a0000000000000000000000000000000000000000000000000000000008152600401610a19906139b5565b60405180910390fd5b600d6000838152602001908152602001600020600a01600082815260200190815260200160002060010160009054906101000a900473ffffffffffffffffffffffffffffffffffffffff1673ffffffffffffffffffffffffffffffffffffffff163373ffffffffffffffffffffffffffffffffffffffff161415610adb576040517f08c379a0000000000000000000000000000000000000000000000000000000008152600401610ad290613995565b60405180910390fd5b6000610ae78387612329565b905080600d6000858152602001908152602001600020600a01600084815260200190815260200160002060020154610b1f9190613b2b565b600960009054906101000a900473ffffffffffffffffffffffffffffffffffffffff1673ffffffffffffffffffffffffffffffffffffffff1663dd62ed3e33306040518363ffffffff1660e01b8152600401610b7c929190613759565b60206040518083038186803b158015610b9457600080fd5b505afa158015610ba8573d6000803e3d6000fd5b505050506040513d601f19601f82011682018060405250810190610bcc9190613371565b1015610c0d576040517f08c379a0000000000000000000000000000000000000000000000000000000008152600401610c0490613935565b60405180910390fd5b600960009054906101000a900473ffffffffffffffffffffffffffffffffffffffff1673ffffffffffffffffffffffffffffffffffffffff166323b872dd333084600d6000898152602001908152602001600020600a01600088815260200190815260200160002060020154610c839190613b2b565b6040518463ffffffff1660e01b8152600401610ca193929190613782565b602060405180830381600087803b158015610cbb57600080fd5b505af1158015610ccf573d6000803e3d6000fd5b505050506040513d601f19601f82011682018060405250810190610cf391906132d0565b5080600d600085815260200190815260200160002060050154610d169190613b2b565b600d60008581526020019081526020016000206005018190555060016002811115610d6a577f4e487b7100000000000000000000000000000000000000000000000000000000600052602160045260246000fd5b600d6000858152602001908152602001600020600a01600084815260200190815260200160002060030160009054906101000a900460ff166002811115610dda577f4e487b7100000000000000000000000000000000000000000000000000000000600052602160045260246000fd5b1415610f89576000610e1684600d6000878152602001908152602001600020600a01600086815260200190815260200160002060020154612329565b9050600960009054906101000a900473ffffffffffffffffffffffffffffffffffffffff1673ffffffffffffffffffffffffffffffffffffffff1663a9059cbb600d6000878152602001908152602001600020600a01600086815260200190815260200160002060010160009054906101000a900473ffffffffffffffffffffffffffffffffffffffff16600d6000888152602001908152602001600020600a0160008781526020019081526020016000206002015484610ed79190613b2b565b6040518363ffffffff1660e01b8152600401610ef49291906137b9565b602060405180830381600087803b158015610f0e57600080fd5b505af1158015610f22573d6000803e3d6000fd5b505050506040513d601f19601f82011682018060405250810190610f4691906132d0565b5080600d600086815260200190815260200160002060050154610f699190613c3d565b600d60008681526020019081526020016000206005018190555050611003565b6001600d6000858152602001908152602001600020600a01600084815260200190815260200160002060030160006101000a81548160ff02191690836002811115610ffd577f4e487b7100000000000000000000000000000000000000000000000000000000600052602160045260246000fd5b02179055505b33600d6000858152602001908152602001600020600a01600084815260200190815260200160002060010160006101000a81548173ffffffffffffffffffffffffffffffffffffffff021916908373ffffffffffffffffffffffffffffffffffffffff16021790555085600d6000858152602001908152602001600020600a01600084815260200190815260200160002060020181905550600e60003373ffffffffffffffffffffffffffffffffffffffff1673ffffffffffffffffffffffffffffffffffffffff1681526020019081526020016000208390806001815401808255809150506001900390600052602060002001600090919091909150557fd0d6f900b5096e8e38e0b13b83d7ac826d0c461a139f26a9bfbee4b4d3d1e9198383604051611132929190613a2b565b60405180910390a15050505050505050565b600b5481565b6000600d6000848152602001908152602001600020600901828154811061119a577f4e487b7100000000000000000000000000000000000000000000000000000000600052603260045260246000fd5b9060005260206000200154905092915050565b60065481565b600a60009054906101000a900473ffffffffffffffffffffffffffffffffffffffff1681565b60055481565b60026003811115611219577f4e487b7100000000000000000000000000000000000000000000000000000000600052602160045260246000fd5b600d600083815260200190815260200160002060080160009054906101000a900460ff166003811115611275577f4e487b7100000000000000000000000000000000000000000000000000000000600052602160045260246000fd5b146112b5576040517f08c379a00000000000000000000000000000000000000000000000000000000081526004016112ac90613975565b60405180910390fd5b60006112d6600d6000848152602001908152602001600020600401546119f1565b9050600280811115611311577f4e487b7100000000000000000000000000000000000000000000000000000000600052602160045260246000fd5b600d6000848152602001908152602001600020600a01600083815260200190815260200160002060030160009054906101000a900460ff166002811115611381577f4e487b7100000000000000000000000000000000000000000000000000000000600052602160045260246000fd5b14156113c2576040517f08c379a00000000000000000000000000000000000000000000000000000000081526004016113b9906138f5565b60405180910390fd5b600960009054906101000a900473ffffffffffffffffffffffffffffffffffffffff1673ffffffffffffffffffffffffffffffffffffffff1663a9059cbb600d6000858152602001908152602001600020600a01600084815260200190815260200160002060010160009054906101000a900473ffffffffffffffffffffffffffffffffffffffff16600d6000868152602001908152602001600020600501546040518363ffffffff1660e01b815260040161147f9291906137b9565b602060405180830381600087803b15801561149957600080fd5b505af11580156114ad573d6000803e3d6000fd5b505050506040513d601f19601f820116820180604052508101906114d191906132d0565b506002600d6000848152602001908152602001600020600a01600083815260200190815260200160002060030160006101000a81548160ff02191690836002811115611546577f4e487b7100000000000000000000000000000000000000000000000000000000600052602160045260246000fd5b02179055507fd0d6f900b5096e8e38e0b13b83d7ac826d0c461a139f26a9bfbee4b4d3d1e919828260405161157c929190613a2b565b60405180910390a15050565b60025481565b600060015482116115a35760015490506115cc565b600054600154836115b49190613c3d565b6115be9190613df5565b826115c99190613c3d565b90505b919050565b600e60205281600052604060002081815481106115ed57600080fd5b90600052602060002001600091509150505481565b61160a613108565b600d6000848152602001908152602001600020600a016000838152602001908152602001600020604051806080016040529081600082015481526020016001820160009054906101000a900473ffffffffffffffffffffffffffffffffffffffff1673ffffffffffffffffffffffffffffffffffffffff1673ffffffffffffffffffffffffffffffffffffffff168152602001600282015481526020016003820160009054906101000a900460ff1660028111156116f1577f4e487b7100000000000000000000000000000000000000000000000000000000600052602160045260246000fd5b6002811115611729577f4e487b7100000000000000000000000000000000000000000000000000000000600052602160045260246000fd5b81525050905092915050565b600860009054906101000a900473ffffffffffffffffffffffffffffffffffffffff1673ffffffffffffffffffffffffffffffffffffffff16638da5cb5b6040518163ffffffff1660e01b815260040160206040518083038186803b15801561179d57600080fd5b505afa1580156117b1573d6000803e3d6000fd5b505050506040513d601f19601f820116820180604052508101906117d5919061326b565b73ffffffffffffffffffffffffffffffffffffffff163373ffffffffffffffffffffffffffffffffffffffff1614611842576040517f08c379a000000000000000000000000000000000000000000000000000000000815260040161183990613875565b60405180910390fd5b600960009054906101000a900473ffffffffffffffffffffffffffffffffffffffff1673ffffffffffffffffffffffffffffffffffffffff1663a9059cbb600860009054906101000a900473ffffffffffffffffffffffffffffffffffffffff1673ffffffffffffffffffffffffffffffffffffffff16638da5cb5b6040518163ffffffff1660e01b815260040160206040518083038186803b1580156118e857600080fd5b505afa1580156118fc573d6000803e3d6000fd5b505050506040513d601f19601f82011682018060405250810190611920919061326b565b836040518363ffffffff1660e01b815260040161193e9291906137b9565b602060405180830381600087803b15801561195857600080fd5b505af115801561196c573d6000803e3d6000fd5b505050506040513d601f19601f8201168201806040525081019061199091906132d0565b5050565b60015481565b6000600160005442846119ad9190613c3d565b6119b79190613bb2565b6119c19190613b2b565b9050919050565b60075481565b6000600d6000838152602001908152602001600020600901805490509050919050565b6000808211611a04576005549050611a2f565b60055460055460055484611a189190613bb2565b611a229190613be3565b611a2c9190613b2b565b90505b919050565b6000600f80549050905090565b6060600e60008373ffffffffffffffffffffffffffffffffffffffff1673ffffffffffffffffffffffffffffffffffffffff168152602001908152602001600020805480602002602001604051908101604052809291908181526020018280548015611acc57602002820191906000526020600020905b815481526020019060010190808311611ab8575b50505050509050919050565b600080611ae44261158e565b905043600d60008381526020019081526020016000206003018190555060035460005482611b129190613b2b565b611b1c9190613c3d565b4210158015611b4157506000600d600083815260200190815260200160002060060154145b15611bf657611b71600460009054906101000a900473ffffffffffffffffffffffffffffffffffffffff16612d05565b8063ffffffff169050600d60008581526020019081526020016000206006016000600d60008781526020019081526020016000206001016000849190505583965084919050555050507f163614e6e9ce9df7687928015fd2c748b69c5136db886e57f09170b251b58e8781604051611be99190613a10565b60405180910390a1611cc4565b60035460005482611c079190613b2b565b611c119190613c3d565b4210611cc357611c42600460009054906101000a900473ffffffffffffffffffffffffffffffffffffffff16612d05565b8063ffffffff169050600d60008581526020019081526020016000206007016000600d60008781526020019081526020016000206002016000849190505583965084919050555050507f163614e6e9ce9df7687928015fd2c748b69c5136db886e57f09170b251b58e8781604051611cba9190613a10565b60405180910390a15b5b5050565b600d6020528060005260406000206000915090508060000154908060010154908060020154908060030154908060040154908060050154908060060154908060070154908060080160009054906101000a900460ff16905089565b600080611d2f8561158e565b90506000611d3c856119f1565b90506000611d4a8386612329565b905080600d6000858152602001908152602001600020600a01600084815260200190815260200160002060020154611d829190613b2b565b93505050509392505050565b806000620186a060075483611da39190613be3565b611dad9190613bb2565b9050600b54811015611df4576040517f08c379a0000000000000000000000000000000000000000000000000000000008152600401611deb90613915565b60405180910390fd5b6000611dff86610723565b90506000611e0d8287612bc8565b90503373ffffffffffffffffffffffffffffffffffffffff16600d6000848152602001908152602001600020600a01600083815260200190815260200160002060010160009054906101000a900473ffffffffffffffffffffffffffffffffffffffff1673ffffffffffffffffffffffffffffffffffffffff1614611ec7576040517f08c379a0000000000000000000000000000000000000000000000000000000008152600401611ebe90613955565b60405180910390fd5b6000611ed38387612329565b90506000611f0b84600d6000878152602001908152602001600020600a01600086815260200190815260200160002060020154612329565b905080821115612118578082611f219190613c3d565b600960009054906101000a900473ffffffffffffffffffffffffffffffffffffffff1673ffffffffffffffffffffffffffffffffffffffff1663dd62ed3e33306040518363ffffffff1660e01b8152600401611f7e929190613759565b60206040518083038186803b158015611f9657600080fd5b505afa158015611faa573d6000803e3d6000fd5b505050506040513d601f19601f82011682018060405250810190611fce9190613371565b101561200f576040517f08c379a000000000000000000000000000000000000000000000000000000000815260040161200690613935565b60405180910390fd5b600960009054906101000a900473ffffffffffffffffffffffffffffffffffffffff1673ffffffffffffffffffffffffffffffffffffffff166323b872dd3330848661205b9190613c3d565b6040518463ffffffff1660e01b815260040161207993929190613782565b602060405180830381600087803b15801561209357600080fd5b505af11580156120a7573d6000803e3d6000fd5b505050506040513d601f19601f820116820180604052508101906120cb91906132d0565b5080826120d89190613c3d565b600d6000868152602001908152602001600020600501546120f99190613b2b565b600d600086815260200190815260200160002060050181905550612224565b8082101561222357600960009054906101000a900473ffffffffffffffffffffffffffffffffffffffff1673ffffffffffffffffffffffffffffffffffffffff1663a9059cbb33848461216b9190613c3d565b6040518363ffffffff1660e01b81526004016121889291906137b9565b602060405180830381600087803b1580156121a257600080fd5b505af11580156121b6573d6000803e3d6000fd5b505050506040513d601f19601f820116820180604052508101906121da91906132d0565b5081816121e79190613c3d565b600d6000868152602001908152602001600020600501546122089190613c3d565b600d6000868152602001908152602001600020600501819055505b5b86600d6000868152602001908152602001600020600a016000858152602001908152602001600020600201819055507fd0d6f900b5096e8e38e0b13b83d7ac826d0c461a139f26a9bfbee4b4d3d1e9198484604051612284929190613a2b565b60405180910390a1505050505050505050565b600860009054906101000a900473ffffffffffffffffffffffffffffffffffffffff1681565b600460009054906101000a900473ffffffffffffffffffffffffffffffffffffffff1681565b6000600d6000838152602001908152602001600020600501549050919050565b600960009054906101000a900473ffffffffffffffffffffffffffffffffffffffff1681565b600080426123436000544261233e9190613b2b565b61158e565b61234d9190613c3d565b90506000805482600c546123619190613be3565b61236b9190613bb2565b905060006123788661199a565b905080620186a06007548761238d9190613be3565b6123979190613bb2565b6123a19190613be3565b93506000620186a0600754876123b79190613be3565b6123c19190613bb2565b9050600c5483826123d29190613be3565b6123dc9190613bb2565b905080856123ea9190613b2b565b94505050505092915050565b60005481565b806000600d60008381526020019081526020016000206006015411158061243a57506000600d60008381526020019081526020016000206007015411155b156124df576003600d600083815260200190815260200160002060080160006101000a81548160ff0219169083600381111561249f577f4e487b7100000000000000000000000000000000000000000000000000000000600052602160045260246000fd5b02179055506040517f08c379a00000000000000000000000000000000000000000000000000000000081526004016124d6906138d5565b60405180910390fd5b600d600082815260200190815260200160002060070154600d60008381526020019081526020016000206006015414156125b3576003600d600083815260200190815260200160002060080160006101000a81548160ff02191690836003811115612573577f4e487b7100000000000000000000000000000000000000000000000000000000600052602160045260246000fd5b02179055506040517f08c379a00000000000000000000000000000000000000000000000000000000081526004016125aa906138d5565b60405180910390fd5b600160038111156125ed577f4e487b7100000000000000000000000000000000000000000000000000000000600052602160045260246000fd5b600d600084815260200190815260200160002060080160009054906101000a900460ff166003811115612649577f4e487b7100000000000000000000000000000000000000000000000000000000600052602160045260246000fd5b14612689576040517f08c379a000000000000000000000000000000000000000000000000000000000815260040161268090613895565b60405180910390fd5b42600054836126989190613b2b565b11156126d9576040517f08c379a00000000000000000000000000000000000000000000000000000000081526004016126d090613855565b60405180910390fd5b6002600d600084815260200190815260200160002060080160006101000a81548160ff02191690836003811115612739577f4e487b7100000000000000000000000000000000000000000000000000000000600052602160045260246000fd5b02179055506000600d600084815260200190815260200160002060060154600d6000858152602001908152602001600020600701546127789190613c3d565b90506000600d600085815260200190815260200160002060010154600d6000868152602001908152602001600020600201546127b49190613c3d565b90506127ec6040518060200160405280847bffffffffffffffffffffffffffffffffffffffffffffffffffffffff1681525082612f60565b600001517bffffffffffffffffffffffffffffffffffffffffffffffffffffffff16600d6000868152602001908152602001600020600401819055507406d79f82328ea3da61e066ebb2f88a0000000000006070600d600087815260200190815260200160002060040154901b6128639190613bb2565b600c546070600d600088815260200190815260200160002060040154901c61288b9190613be3565b6128959190613b2b565b600d6000868152602001908152602001600020600401819055506000620186a0600654600d6000888152602001908152602001600020600501546128d99190613be3565b6128e39190613bb2565b90506000620186a0600254600d60008981526020019081526020016000206005015461290f9190613be3565b6129199190613bb2565b90508082600d60008981526020019081526020016000206005015461293e9190613c3d565b6129489190613c3d565b600d600088815260200190815260200160002060050181905550600960009054906101000a900473ffffffffffffffffffffffffffffffffffffffff1673ffffffffffffffffffffffffffffffffffffffff1663a9059cbb600a60009054906101000a900473ffffffffffffffffffffffffffffffffffffffff16846040518363ffffffff1660e01b81526004016129e19291906137b9565b602060405180830381600087803b1580156129fb57600080fd5b505af1158015612a0f573d6000803e3d6000fd5b505050506040513d601f19601f82011682018060405250810190612a3391906132d0565b50600960009054906101000a900473ffffffffffffffffffffffffffffffffffffffff1673ffffffffffffffffffffffffffffffffffffffff1663a9059cbb600860009054906101000a900473ffffffffffffffffffffffffffffffffffffffff1673ffffffffffffffffffffffffffffffffffffffff16638da5cb5b6040518163ffffffff1660e01b815260040160206040518083038186803b158015612ada57600080fd5b505afa158015612aee573d6000803e3d6000fd5b505050506040513d601f19601f82011682018060405250810190612b12919061326b565b836040518363ffffffff1660e01b8152600401612b309291906137b9565b602060405180830381600087803b158015612b4a57600080fd5b505af1158015612b5e573d6000803e3d6000fd5b505050506040513d601f19601f82011682018060405250810190612b8291906132d0565b507f163614e6e9ce9df7687928015fd2c748b69c5136db886e57f09170b251b58e8786604051612bb29190613a10565b60405180910390a1505050505050565b60035481565b600080612bd4836119f1565b905060006002811115612c10577f4e487b7100000000000000000000000000000000000000000000000000000000600052602160045260246000fd5b600d6000868152602001908152602001600020600a01600083815260200190815260200160002060030160009054906101000a900460ff166002811115612c80577f4e487b7100000000000000000000000000000000000000000000000000000000600052602160045260246000fd5b14612c8e5780915050612cff565b80600d6000868152602001908152602001600020600a01600083815260200190815260200160002060000181905550600d6000858152602001908152602001600020600901819080600181540180825580915050600190039060005260206000200160009091909190915055809150505b92915050565b6000806000612d12613010565b90508373ffffffffffffffffffffffffffffffffffffffff16635909c0d56040518163ffffffff1660e01b815260040160206040518083038186803b158015612d5a57600080fd5b505afa158015612d6e573d6000803e3d6000fd5b505050506040513d601f19601f82011682018060405250810190612d929190613371565b92508373ffffffffffffffffffffffffffffffffffffffff16635a3d54936040518163ffffffff1660e01b815260040160206040518083038186803b158015612dda57600080fd5b505afa158015612dee573d6000803e3d6000fd5b505050506040513d601f19601f82011682018060405250810190612e129190613371565b915060008060008673ffffffffffffffffffffffffffffffffffffffff16630902f1ac6040518163ffffffff1660e01b815260040160606040518083038186803b158015612e5f57600080fd5b505afa158015612e73573d6000803e3d6000fd5b505050506040513d601f19601f82011682018060405250810190612e9791906132f9565b9250925092508363ffffffff168163ffffffff1614612f565760008185612ebe9190613c71565b90508063ffffffff16612ed18486613028565b600001517bffffffffffffffffffffffffffffffffffffffffffffffffffffffff16612efd9190613be3565b87612f089190613b2b565b96508063ffffffff16612f1b8585613028565b600001517bffffffffffffffffffffffffffffffffffffffffffffffffffffffff16612f479190613be3565b86612f529190613b2b565b9550505b5050509193909250565b612f6861317e565b6000826dffffffffffffffffffffffffffff161415612fbc576040517f08c379a0000000000000000000000000000000000000000000000000000000008152600401612fb3906139d5565b60405180910390fd5b6040518060200160405280836dffffffffffffffffffffffffffff168560000151612fe79190613b81565b7bffffffffffffffffffffffffffffffffffffffffffffffffffffffff16815250905092915050565b6000640100000000426130239190613df5565b905090565b61303061317e565b6000826dffffffffffffffffffffffffffff1611613083576040517f08c379a000000000000000000000000000000000000000000000000000000000815260040161307a906139d5565b60405180910390fd5b6040518060200160405280836dffffffffffffffffffffffffffff16607060ff16866dffffffffffffffffffffffffffff167bffffffffffffffffffffffffffffffffffffffffffffffffffffffff16901b6130df9190613b81565b7bffffffffffffffffffffffffffffffffffffffffffffffffffffffff16815250905092915050565b604051806080016040528060008152602001600073ffffffffffffffffffffffffffffffffffffffff1681526020016000815260200160006002811115613178577f4e487b7100000000000000000000000000000000000000000000000000000000600052602160045260246000fd5b81525090565b604051806020016040528060007bffffffffffffffffffffffffffffffffffffffffffffffffffffffff1681525090565b6000813590506131be816140f0565b92915050565b6000815190506131d3816140f0565b92915050565b6000815190506131e881614107565b92915050565b6000815190506131fd8161411e565b92915050565b60008135905061321281614135565b92915050565b60008151905061322781614135565b92915050565b60008151905061323c8161414c565b92915050565b60006020828403121561325457600080fd5b6000613262848285016131af565b91505092915050565b60006020828403121561327d57600080fd5b600061328b848285016131c4565b91505092915050565b600080604083850312156132a757600080fd5b60006132b5858286016131af565b92505060206132c685828601613203565b9150509250929050565b6000602082840312156132e257600080fd5b60006132f0848285016131d9565b91505092915050565b60008060006060848603121561330e57600080fd5b600061331c868287016131ee565b935050602061332d868287016131ee565b925050604061333e8682870161322d565b9150509250925092565b60006020828403121561335a57600080fd5b600061336884828501613203565b91505092915050565b60006020828403121561338357600080fd5b600061339184828501613218565b91505092915050565b600080604083850312156133ad57600080fd5b60006133bb85828601613203565b92505060206133cc85828601613203565b9150509250929050565b6000806000606084860312156133eb57600080fd5b60006133f986828701613203565b935050602061340a86828701613203565b925050604061341b86828701613203565b9150509250925092565b60006134318383613720565b60208301905092915050565b61344681613ca5565b82525050565b61345581613ca5565b82525050565b600061346682613af1565b6134708185613b09565b935061347b83613ae1565b8060005b838110156134ac5781516134938882613425565b975061349e83613afc565b92505060018101905061347f565b5085935050505092915050565b6134c281613d65565b82525050565b6134d181613d89565b82525050565b6134e081613dad565b82525050565b6134ef81613dd1565b82525050565b6134fe81613de3565b82525050565b6000613511601a83613b1a565b915061351c82613eb3565b602082019050919050565b6000613534601583613b1a565b915061353f82613edc565b602082019050919050565b6000613557601083613b1a565b915061356282613f05565b602082019050919050565b600061357a601a83613b1a565b915061358582613f2e565b602082019050919050565b600061359d601383613b1a565b91506135a882613f57565b602082019050919050565b60006135c0601383613b1a565b91506135cb82613f80565b602082019050919050565b60006135e3601083613b1a565b91506135ee82613fa9565b602082019050919050565b6000613606601983613b1a565b915061361182613fd2565b602082019050919050565b6000613629601183613b1a565b915061363482613ffb565b602082019050919050565b600061364c601083613b1a565b915061365782614024565b602082019050919050565b600061366f601f83613b1a565b915061367a8261404d565b602082019050919050565b6000613692601d83613b1a565b915061369d82614076565b602082019050919050565b60006136b5601783613b1a565b91506136c08261409f565b602082019050919050565b6080820160008201516136e16000850182613720565b5060208201516136f4602085018261343d565b5060408201516137076040850182613720565b50606082015161371a60608501826134f5565b50505050565b61372981613d4b565b82525050565b61373881613d4b565b82525050565b6000602082019050613753600083018461344c565b92915050565b600060408201905061376e600083018561344c565b61377b602083018461344c565b9392505050565b6000606082019050613797600083018661344c565b6137a4602083018561344c565b6137b1604083018461372f565b949350505050565b60006040820190506137ce600083018561344c565b6137db602083018461372f565b9392505050565b600060208201905081810360008301526137fc818461345b565b905092915050565b600060208201905061381960008301846134b9565b92915050565b600060208201905061383460008301846134c8565b92915050565b600060208201905061384f60008301846134d7565b92915050565b6000602082019050818103600083015261386e81613504565b9050919050565b6000602082019050818103600083015261388e81613527565b9050919050565b600060208201905081810360008301526138ae8161354a565b9050919050565b600060208201905081810360008301526138ce8161356d565b9050919050565b600060208201905081810360008301526138ee81613590565b9050919050565b6000602082019050818103600083015261390e816135b3565b9050919050565b6000602082019050818103600083015261392e816135d6565b9050919050565b6000602082019050818103600083015261394e816135f9565b9050919050565b6000602082019050818103600083015261396e8161361c565b9050919050565b6000602082019050818103600083015261398e8161363f565b9050919050565b600060208201905081810360008301526139ae81613662565b9050919050565b600060208201905081810360008301526139ce81613685565b9050919050565b600060208201905081810360008301526139ee816136a8565b9050919050565b6000608082019050613a0a60008301846136cb565b92915050565b6000602082019050613a25600083018461372f565b92915050565b6000604082019050613a40600083018561372f565b613a4d602083018461372f565b9392505050565b600061012082019050613a6a600083018c61372f565b613a77602083018b61372f565b613a84604083018a61372f565b613a91606083018961372f565b613a9e608083018861372f565b613aab60a083018761372f565b613ab860c083018661372f565b613ac560e083018561372f565b613ad36101008301846134e6565b9a9950505050505050505050565b6000819050602082019050919050565b600081519050919050565b6000602082019050919050565b600082825260208201905092915050565b600082825260208201905092915050565b6000613b3682613d4b565b9150613b4183613d4b565b9250827fffffffffffffffffffffffffffffffffffffffffffffffffffffffffffffffff03821115613b7657613b75613e26565b5b828201905092915050565b6000613b8c82613d23565b9150613b9783613d23565b925082613ba757613ba6613e55565b5b828204905092915050565b6000613bbd82613d4b565b9150613bc883613d4b565b925082613bd857613bd7613e55565b5b828204905092915050565b6000613bee82613d4b565b9150613bf983613d4b565b9250817fffffffffffffffffffffffffffffffffffffffffffffffffffffffffffffffff0483118215151615613c3257613c31613e26565b5b828202905092915050565b6000613c4882613d4b565b9150613c5383613d4b565b925082821015613c6657613c65613e26565b5b828203905092915050565b6000613c7c82613d55565b9150613c8783613d55565b925082821015613c9a57613c99613e26565b5b828203905092915050565b6000613cb082613d03565b9050919050565b60008115159050919050565b6000819050613cd1826140c8565b919050565b6000819050613ce4826140dc565b919050565b60006dffffffffffffffffffffffffffff82169050919050565b600073ffffffffffffffffffffffffffffffffffffffff82169050919050565b60007bffffffffffffffffffffffffffffffffffffffffffffffffffffffff82169050919050565b6000819050919050565b600063ffffffff82169050919050565b6000613d7082613d77565b9050919050565b6000613d8282613d03565b9050919050565b6000613d9482613d9b565b9050919050565b6000613da682613d03565b9050919050565b6000613db882613dbf565b9050919050565b6000613dca82613d03565b9050919050565b6000613ddc82613cc3565b9050919050565b6000613dee82613cd6565b9050919050565b6000613e0082613d4b565b9150613e0b83613d4b565b925082613e1b57613e1a613e55565b5b828206905092915050565b7f4e487b7100000000000000000000000000000000000000000000000000000000600052601160045260246000fd5b7f4e487b7100000000000000000000000000000000000000000000000000000000600052601260045260246000fd5b7f4e487b7100000000000000000000000000000000000000000000000000000000600052602160045260246000fd5b7f4652414d4520454e442054494d45204e4f542052454143484544000000000000600082015250565b7f4e4f542054484520464143544f5259204f574e45520000000000000000000000600082015250565b7f4652414d45204e4f54204f50454e454400000000000000000000000000000000600082015250565b7f43414e275420435245415445204652414d4520494e2050415354000000000000600082015250565b7f494e56414c4944204652414d4520505249434500000000000000000000000000600082015250565b7f4c4f5420414c524541445920534554544c454400000000000000000000000000600082015250565b7f505249434520495320544f4f204c4f5700000000000000000000000000000000600082015250565b7f415050524f56454420414d4f554e5420544f4f20534d414c4c00000000000000600082015250565b7f4d555354204245204c4f54204f574e4552000000000000000000000000000000600082015250565b7f4652414d45204e4f5420434c4f53454400000000000000000000000000000000600082015250565b7f4144445245535320414c5245414459204f574e53205448452050415243454c00600082015250565b7f43414e2754204255592041204c4f542046524f4d205448452050415354000000600082015250565b7f4669786564506f696e743a204449565f42595f5a45524f000000000000000000600082015250565b600481106140d9576140d8613e84565b5b50565b600381106140ed576140ec613e84565b5b50565b6140f981613ca5565b811461410457600080fd5b50565b61411081613cb7565b811461411b57600080fd5b50565b61412781613ce9565b811461413257600080fd5b50565b61413e81613d4b565b811461414957600080fd5b50565b61415581613d55565b811461416057600080fd5b5056fea26469706673582212200d47d46e7a66ddd37507ff901136d635c7ad70cc828f33176bb787e1a7048baa64736f6c63430008040033a26469706673582212207307a96debefe64920e4b8e18c4113c79983d7f1d9366955fe5bb1e9cdff57ed64736f6c63430008040033",
  "linkReferences": {},
  "deployedLinkReferences": {}
}