{
  "_format": "hh-sol-artifact-1",
  "contractName": "MarketFactory",
  "sourceName": "contracts/MarketFactory.sol",
  "abi": [
    {
      "inputs": [
        {
          "internalType": "address",
          "name": "_uniswapFactory",
          "type": "address"
        }
      ],
      "stateMutability": "nonpayable",
      "type": "constructor"
    },
    {
      "inputs": [
        {
          "internalType": "address",
          "name": "_token",
          "type": "address"
        },
        {
          "internalType": "address",
          "name": "_uniswapPair",
          "type": "address"
        },
        {
          "internalType": "uint64",
          "name": "_period",
          "type": "uint64"
        },
        {
          "internalType": "uint64",
          "name": "_initTimestamp",
          "type": "uint64"
        },
        {
          "internalType": "uint256",
          "name": "_tax",
          "type": "uint256"
        },
        {
          "internalType": "uint256",
          "name": "_fee",
          "type": "uint256"
        },
        {
          "internalType": "uint256",
          "name": "_dPrice",
          "type": "uint256"
        },
        {
          "internalType": "uint64",
          "name": "_tReporting",
          "type": "uint64"
        },
        {
          "internalType": "uint256",
          "name": "_minTax",
          "type": "uint256"
        }
      ],
      "name": "addMarket",
      "outputs": [],
      "stateMutability": "nonpayable",
      "type": "function"
    },
    {
      "inputs": [],
      "name": "getMarketsCount",
      "outputs": [
        {
          "internalType": "uint256",
          "name": "",
          "type": "uint256"
        }
      ],
      "stateMutability": "view",
      "type": "function"
    },
    {
      "inputs": [
        {
          "internalType": "address",
          "name": "",
          "type": "address"
        }
      ],
      "name": "markets",
      "outputs": [
        {
          "internalType": "contract Market",
          "name": "",
          "type": "address"
        }
      ],
      "stateMutability": "view",
      "type": "function"
    },
    {
      "inputs": [
        {
          "internalType": "uint256",
          "name": "",
          "type": "uint256"
        }
      ],
      "name": "marketsKeys",
      "outputs": [
        {
          "internalType": "address",
          "name": "",
          "type": "address"
        }
      ],
      "stateMutability": "view",
      "type": "function"
    },
    {
      "inputs": [],
      "name": "owner",
      "outputs": [
        {
          "internalType": "address",
          "name": "",
          "type": "address"
        }
      ],
      "stateMutability": "view",
      "type": "function"
    },
    {
      "inputs": [],
      "name": "uniswapFactory",
      "outputs": [
        {
          "internalType": "contract IUniswapV2Factory",
          "name": "",
          "type": "address"
        }
      ],
      "stateMutability": "view",
      "type": "function"
    }
  ],
  "bytecode": "0x608060405234801561001057600080fd5b50604051614e80380380614e80833981810160405281019061003291906100ce565b33600360006101000a81548173ffffffffffffffffffffffffffffffffffffffff021916908373ffffffffffffffffffffffffffffffffffffffff160217905550806000806101000a81548173ffffffffffffffffffffffffffffffffffffffff021916908373ffffffffffffffffffffffffffffffffffffffff16021790555050610140565b6000815190506100c881610129565b92915050565b6000602082840312156100e057600080fd5b60006100ee848285016100b9565b91505092915050565b600061010282610109565b9050919050565b600073ffffffffffffffffffffffffffffffffffffffff82169050919050565b610132816100f7565b811461013d57600080fd5b50565b614d318061014f6000396000f3fe60806040523480156200001157600080fd5b50600436106200006a5760003560e01c806327fa35c3146200006f57806346a81c0014620000915780638bdb2afa14620000c75780638da5cb5b14620000e95780638e8f294b146200010b57806396a1a9ca1462000141575b600080fd5b6200007962000161565b6040516200008891906200067a565b60405180910390f35b620000af6004803603810190620000a99190620004bf565b6200016e565b604051620000be919062000573565b60405180910390f35b620000d1620001ae565b604051620000e0919062000590565b60405180910390f35b620000f3620001d2565b60405162000102919062000573565b60405180910390f35b620001296004803603810190620001239190620003ba565b620001f8565b6040516200013891906200065d565b60405180910390f35b6200015f6004803603810190620001599190620003e6565b6200022b565b005b6000600280549050905090565b600281815481106200017f57600080fd5b906000526020600020016000915054906101000a900473ffffffffffffffffffffffffffffffffffffffff1681565b60008054906101000a900473ffffffffffffffffffffffffffffffffffffffff1681565b600360009054906101000a900473ffffffffffffffffffffffffffffffffffffffff1681565b60016020528060005260406000206000915054906101000a900473ffffffffffffffffffffffffffffffffffffffff1681565b6000308a8a8a8a8a8a8a8a8a604051620002459062000367565b6200025a9a99989796959493929190620005ad565b604051809103906000f08015801562000277573d6000803e3d6000fd5b50905080600160008373ffffffffffffffffffffffffffffffffffffffff1673ffffffffffffffffffffffffffffffffffffffff16815260200190815260200160002060006101000a81548173ffffffffffffffffffffffffffffffffffffffff021916908373ffffffffffffffffffffffffffffffffffffffff1602179055506002819080600181540180825580915050600190039060005260206000200160009091909190916101000a81548173ffffffffffffffffffffffffffffffffffffffff021916908373ffffffffffffffffffffffffffffffffffffffff16021790555050505050505050505050565b6144e8806200081483390190565b6000813590506200038681620007c5565b92915050565b6000813590506200039d81620007df565b92915050565b600081359050620003b481620007f9565b92915050565b600060208284031215620003cd57600080fd5b6000620003dd8482850162000375565b91505092915050565b60008060008060008060008060006101208a8c0312156200040657600080fd5b6000620004168c828d0162000375565b9950506020620004298c828d0162000375565b98505060406200043c8c828d01620003a3565b97505060606200044f8c828d01620003a3565b9650506080620004628c828d016200038c565b95505060a0620004758c828d016200038c565b94505060c0620004888c828d016200038c565b93505060e06200049b8c828d01620003a3565b925050610100620004af8c828d016200038c565b9150509295985092959850929598565b600060208284031215620004d257600080fd5b6000620004e2848285016200038c565b91505092915050565b620004f68162000697565b82525050565b6200050781620006e9565b82525050565b620005188162000711565b82525050565b620005298162000739565b82525050565b6200053a8162000761565b82525050565b6200054b8162000789565b82525050565b6200055c81620006cb565b82525050565b6200056d81620007b1565b82525050565b60006020820190506200058a6000830184620004eb565b92915050565b6000602082019050620005a760008301846200050d565b92915050565b600061014082019050620005c5600083018d6200052f565b620005d4602083018c620004fc565b620005e3604083018b6200051e565b620005f2606083018a62000562565b62000601608083018962000562565b6200061060a083018862000551565b6200061f60c083018762000551565b6200062e60e083018662000551565b6200063e61010083018562000562565b6200064e61012083018462000551565b9b9a5050505050505050505050565b600060208201905062000674600083018462000540565b92915050565b600060208201905062000691600083018462000551565b92915050565b6000620006a482620006ab565b9050919050565b600073ffffffffffffffffffffffffffffffffffffffff82169050919050565b6000819050919050565b600067ffffffffffffffff82169050919050565b6000620006f682620006fd565b9050919050565b60006200070a82620006ab565b9050919050565b60006200071e8262000725565b9050919050565b60006200073282620006ab565b9050919050565b600062000746826200074d565b9050919050565b60006200075a82620006ab565b9050919050565b60006200076e8262000775565b9050919050565b60006200078282620006ab565b9050919050565b600062000796826200079d565b9050919050565b6000620007aa82620006ab565b9050919050565b6000620007be82620006d5565b9050919050565b620007d08162000697565b8114620007dc57600080fd5b50565b620007ea81620006cb565b8114620007f657600080fd5b50565b6200080481620006d5565b81146200081057600080fd5b5056fe6080604052606460025569d3c21bcecceda1000000600c553480156200002457600080fd5b50604051620044e8380380620044e883398181016040528101906200004a9190620001eb565b88600960006101000a81548173ffffffffffffffffffffffffffffffffffffffff021916908373ffffffffffffffffffffffffffffffffffffffff16021790555033600a60006101000a81548173ffffffffffffffffffffffffffffffffffffffff021916908373ffffffffffffffffffffffffffffffffffffffff1602179055508660008190555085600181905550846007819055508360068190555087600460006101000a81548173ffffffffffffffffffffffffffffffffffffffff021916908373ffffffffffffffffffffffffffffffffffffffff1602179055508260058190555089600860006101000a81548173ffffffffffffffffffffffffffffffffffffffff021916908373ffffffffffffffffffffffffffffffffffffffff1602179055508160038190555080600b8190555050505050505050505050620003bd565b600081519050620001a08162000355565b92915050565b600081519050620001b7816200036f565b92915050565b600081519050620001ce8162000389565b92915050565b600081519050620001e581620003a3565b92915050565b6000806000806000806000806000806101408b8d0312156200020c57600080fd5b60006200021c8d828e01620001bd565b9a505060206200022f8d828e016200018f565b9950506040620002428d828e01620001a6565b9850506060620002558d828e01620001d4565b9750506080620002688d828e01620001d4565b96505060a06200027b8d828e01620001d4565b95505060c06200028e8d828e01620001d4565b94505060e0620002a18d828e01620001d4565b935050610100620002b58d828e01620001d4565b925050610120620002c98d828e01620001d4565b9150509295989b9194979a5092959850565b6000620002e8826200032b565b9050919050565b6000620002fc82620002db565b9050919050565b60006200031082620002db565b9050919050565b60006200032482620002db565b9050919050565b600073ffffffffffffffffffffffffffffffffffffffff82169050919050565b6000819050919050565b6200036081620002ef565b81146200036c57600080fd5b50565b6200037a8162000303565b81146200038657600080fd5b50565b620003948162000317565b8114620003a057600080fd5b50565b620003ae816200034b565b8114620003ba57600080fd5b50565b61411b80620003cd6000396000f3fe608060405234801561001057600080fd5b50600436106102275760003560e01c80637358c57a11610130578063ae169a50116100b8578063da68cf8b1161007c578063da68cf8b14610708578063e107fb4f14610726578063ef78d4fd14610756578063fc95070214610774578063ff5c86b01461079057610227565b8063ae169a5014610664578063bb15d2dd14610680578063c45a01551461069c578063c816841b146106ba578063c84993af146106d857610227565b8063888bdbcd116100ff578063888bdbcd1461057e57806389da88a3146105ae5780639495833c146105cc578063a10340bc146105fc578063a4d246ff1461063457610227565b80637358c57a146104e25780637d6ae6a0146105005780637e99663914610530578063830ab1191461054e57610227565b806341a8b6f8116101b3578063527eb4bc11610182578063527eb4bc146104185780635b3ad63e1461043657806360f65c60146104665780636f1aefc3146104965780636f7cb60b146104c657610227565b806341a8b6f81461039057806345084775146103c0578063499a0fc4146103de5780634d3ee2dc146103fc57610227565b80633656d5ee116101fa5780633656d5ee146102d85780633c80d8ea146103085780633d09a82a146103245780633e16bc2014610342578063410f07101461037257610227565b8063050e88401461022c5780630cbcff8f1461025c5780630ef192731461028c5780632a0efd44146102bc575b600080fd5b61024660048036038101906102419190613258565b6107ae565b60405161025391906139a6565b60405180910390f35b61027660048036038101906102719190613258565b6107d2565b60405161028391906139a6565b60405180910390f35b6102a660048036038101906102a191906131a1565b6109b9565b6040516102b391906139a6565b60405180910390f35b6102d660048036038101906102d19190613258565b610a05565b005b6102f260048036038101906102ed91906132e6565b610b8b565b6040516102ff91906139a6565b60405180910390f35b610322600480360381019061031d91906132e6565b610c61565b005b61032c61144f565b60405161033991906139a6565b60405180910390f35b61035c600480360381019061035791906132aa565b611455565b60405161036991906139a6565b60405180910390f35b61037a6114b8565b60405161038791906139a6565b60405180910390f35b6103aa60048036038101906103a59190613258565b6114be565b6040516103b791906139a6565b60405180910390f35b6103c86116ca565b6040516103d59190613694565b60405180910390f35b6103e66116f0565b6040516103f391906139a6565b60405180910390f35b61041660048036038101906104119190613258565b6116f6565b005b610420611b56565b60405161042d91906139a6565b60405180910390f35b610450600480360381019061044b9190613258565b611b5c565b60405161045d91906139a6565b60405180910390f35b610480600480360381019061047b91906131f3565b611b9f565b60405161048d91906139a6565b60405180910390f35b6104b060048036038101906104ab91906132aa565b611bd0565b6040516104bd919061398b565b60405180910390f35b6104e060048036038101906104db9190613258565b611d03565b005b6104ea611f62565b6040516104f791906139a6565b60405180910390f35b61051a60048036038101906105159190613258565b611f68565b60405161052791906139a6565b60405180910390f35b610538611f96565b60405161054591906139a6565b60405180910390f35b61056860048036038101906105639190613258565b611f9c565b60405161057591906139a6565b60405180910390f35b61059860048036038101906105939190613258565b611fbf565b6040516105a591906139a6565b60405180910390f35b6105b6611ff5565b6040516105c391906139a6565b60405180910390f35b6105e660048036038101906105e191906131a1565b612002565b6040516105f39190613738565b60405180910390f35b61061660048036038101906106119190613258565b612099565b60405161062b999897969594939291906139ea565b60405180910390f35b61064e600480360381019061064991906132e6565b6120f4565b60405161065b91906139a6565b60405180910390f35b61067e60048036038101906106799190613258565b6121aa565b005b61069a600480360381019061069591906132e6565b6121bf565b005b6106a4612713565b6040516106b19190613790565b60405180910390f35b6106c2612739565b6040516106cf9190613775565b60405180910390f35b6106f260048036038101906106ed9190613258565b61275f565b6040516106ff91906139a6565b60405180910390f35b61071061277f565b60405161071d919061375a565b60405180910390f35b610740600480360381019061073b91906132aa565b6127a5565b60405161074d91906139a6565b60405180910390f35b61075e612872565b60405161076b91906139a6565b60405180910390f35b61078e60048036038101906107899190613258565b612878565b005b610798612e9e565b6040516107a591906139a6565b60405180910390f35b600f81815481106107be57600080fd5b906000526020600020016000915090505481565b6000806107de83611b5c565b90506000600281111561081a577f4e487b7100000000000000000000000000000000000000000000000000000000600052602160045260246000fd5b600d600083815260200190815260200160002060080160009054906101000a900460ff166002811115610876577f4e487b7100000000000000000000000000000000000000000000000000000000600052602160045260246000fd5b1461088457809150506109b4565b61088d42611b5c565b8110156108cf576040517f08c379a00000000000000000000000000000000000000000000000000000000081526004016108c6906137eb565b60405180910390fd5b80600d6000838152602001908152602001600020600001819055506001600d600083815260200190815260200160002060080160006101000a81548160ff0219169083600281111561094a577f4e487b7100000000000000000000000000000000000000000000000000000000600052602160045260246000fd5b0217905550600f8190806001815401808255809150506001900390600052602060002001600090919091909150557f163614e6e9ce9df7687928015fd2c748b69c5136db886e57f09170b251b58e87816040516109a791906139a6565b60405180910390a1809150505b919050565b6000600e60008373ffffffffffffffffffffffffffffffffffffffff1673ffffffffffffffffffffffffffffffffffffffff168152602001908152602001600020805490509050919050565b6000610a1042611b5c565b905043600d60008381526020019081526020016000206003018190555060035460005482610a3e9190613ac1565b610a489190613bd3565b421015610af75781600d60008381526020019081526020016000206006018190555042600d60008381526020019081526020016000206001018190555081600d60008381526020019081526020016000206007018190555042600d6000838152602001908152602001600020600201819055507f163614e6e9ce9df7687928015fd2c748b69c5136db886e57f09170b251b58e8781604051610aea91906139a6565b60405180910390a1610b87565b60035460005482610b089190613ac1565b610b129190613bd3565b4210610b865781600d60008381526020019081526020016000206007018190555042600d6000838152602001908152602001600020600201819055507f163614e6e9ce9df7687928015fd2c748b69c5136db886e57f09170b251b58e8781604051610b7d91906139a6565b60405180910390a15b5b5050565b600080610b9785611b5c565b9050610ba242611b5c565b811015610be4576040517f08c379a0000000000000000000000000000000000000000000000000000000008152600401610bdb9061388b565b60405180910390fd5b6000610bef85611fbf565b90506000610c2783600d6000868152602001908152602001600020600a016000858152602001908152602001600020600201546127a5565b90506000610c3584876127a5565b9050808210610c475760009450610c56565b8181610c539190613bd3565b94505b505050509392505050565b806000620186a060075483610c769190613b79565b610c809190613b48565b9050600b54811015610cc7576040517f08c379a0000000000000000000000000000000000000000000000000000000008152600401610cbe9061386b565b60405180910390fd5b6000610cd2866107d2565b90506000610ce08287612ea4565b9050610ceb42611b5c565b821015610d2d576040517f08c379a0000000000000000000000000000000000000000000000000000000008152600401610d249061394b565b60405180910390fd5b600d6000838152602001908152602001600020600a01600082815260200190815260200160002060010160009054906101000a900473ffffffffffffffffffffffffffffffffffffffff1673ffffffffffffffffffffffffffffffffffffffff163373ffffffffffffffffffffffffffffffffffffffff161415610de6576040517f08c379a0000000000000000000000000000000000000000000000000000000008152600401610ddd9061390b565b60405180910390fd5b6000610df283876127a5565b905080600d6000858152602001908152602001600020600a01600084815260200190815260200160002060020154610e2a9190613ac1565b600960009054906101000a900473ffffffffffffffffffffffffffffffffffffffff1673ffffffffffffffffffffffffffffffffffffffff1663dd62ed3e33306040518363ffffffff1660e01b8152600401610e879291906136af565b60206040518083038186803b158015610e9f57600080fd5b505afa158015610eb3573d6000803e3d6000fd5b505050506040513d601f19601f82011682018060405250810190610ed79190613281565b1015610f18576040517f08c379a0000000000000000000000000000000000000000000000000000000008152600401610f0f9061392b565b60405180910390fd5b600960009054906101000a900473ffffffffffffffffffffffffffffffffffffffff1673ffffffffffffffffffffffffffffffffffffffff166323b872dd333084600d6000898152602001908152602001600020600a01600088815260200190815260200160002060020154610f8e9190613ac1565b6040518463ffffffff1660e01b8152600401610fac939291906136d8565b602060405180830381600087803b158015610fc657600080fd5b505af1158015610fda573d6000803e3d6000fd5b505050506040513d601f19601f82011682018060405250810190610ffe919061322f565b5080600d6000858152602001908152602001600020600501546110219190613ac1565b600d60008581526020019081526020016000206005018190555060016002811115611075577f4e487b7100000000000000000000000000000000000000000000000000000000600052602160045260246000fd5b600d6000858152602001908152602001600020600a01600084815260200190815260200160002060030160009054906101000a900460ff1660028111156110e5577f4e487b7100000000000000000000000000000000000000000000000000000000600052602160045260246000fd5b141561129457600061112184600d6000878152602001908152602001600020600a016000868152602001908152602001600020600201546127a5565b9050600960009054906101000a900473ffffffffffffffffffffffffffffffffffffffff1673ffffffffffffffffffffffffffffffffffffffff1663a9059cbb600d6000878152602001908152602001600020600a01600086815260200190815260200160002060010160009054906101000a900473ffffffffffffffffffffffffffffffffffffffff16600d6000888152602001908152602001600020600a01600087815260200190815260200160002060020154846111e29190613ac1565b6040518363ffffffff1660e01b81526004016111ff92919061370f565b602060405180830381600087803b15801561121957600080fd5b505af115801561122d573d6000803e3d6000fd5b505050506040513d601f19601f82011682018060405250810190611251919061322f565b5080600d6000868152602001908152602001600020600501546112749190613bd3565b600d6000868152602001908152602001600020600501819055505061130e565b6001600d6000858152602001908152602001600020600a01600084815260200190815260200160002060030160006101000a81548160ff02191690836002811115611308577f4e487b7100000000000000000000000000000000000000000000000000000000600052602160045260246000fd5b02179055505b33600d6000858152602001908152602001600020600a01600084815260200190815260200160002060010160006101000a81548173ffffffffffffffffffffffffffffffffffffffff021916908373ffffffffffffffffffffffffffffffffffffffff16021790555085600d6000858152602001908152602001600020600a01600084815260200190815260200160002060020181905550600e60003373ffffffffffffffffffffffffffffffffffffffff1673ffffffffffffffffffffffffffffffffffffffff1681526020019081526020016000208390806001815401808255809150506001900390600052602060002001600090919091909150557fd0d6f900b5096e8e38e0b13b83d7ac826d0c461a139f26a9bfbee4b4d3d1e919838360405161143d9291906139c1565b60405180910390a15050505050505050565b600b5481565b6000600d600084815260200190815260200160002060090182815481106114a5577f4e487b7100000000000000000000000000000000000000000000000000000000600052603260045260246000fd5b9060005260206000200154905092915050565b60065481565b6000816000600d6000838152602001908152602001600020600601541115806114fe57506000600d60008381526020019081526020016000206007015411155b1561153e576040517f08c379a00000000000000000000000000000000000000000000000000000000081526004016115359061382b565b60405180910390fd5b600d600082815260200190815260200160002060070154600d60008381526020019081526020016000206006015414156115ad576040517f08c379a00000000000000000000000000000000000000000000000000000000081526004016115a49061382b565b60405180910390fd5b6000600d600085815260200190815260200160002060060154600d6000868152602001908152602001600020600701546115e79190613bd3565b90506000600d600086815260200190815260200160002060010154600d6000878152602001908152602001600020600201546116239190613bd3565b905061165b6040518060200160405280847bffffffffffffffffffffffffffffffffffffffffffffffffffffffff1681525082612fe1565b600001517bffffffffffffffffffffffffffffffffffffffffffffffffffffffff1693507406d79f82328ea3da61e066ebb2f88a000000000000607085901b6116a49190613b48565b600c54607086901c6116b69190613b79565b6116c09190613ac1565b9350505050919050565b600a60009054906101000a900473ffffffffffffffffffffffffffffffffffffffff1681565b60055481565b60028081111561172f577f4e487b7100000000000000000000000000000000000000000000000000000000600052602160045260246000fd5b600d600083815260200190815260200160002060080160009054906101000a900460ff16600281111561178b577f4e487b7100000000000000000000000000000000000000000000000000000000600052602160045260246000fd5b146117cb576040517f08c379a00000000000000000000000000000000000000000000000000000000081526004016117c2906138cb565b60405180910390fd5b60006117ec600d600084815260200190815260200160002060040154611fbf565b9050600280811115611827577f4e487b7100000000000000000000000000000000000000000000000000000000600052602160045260246000fd5b600d6000848152602001908152602001600020600a01600083815260200190815260200160002060030160009054906101000a900460ff166002811115611897577f4e487b7100000000000000000000000000000000000000000000000000000000600052602160045260246000fd5b14156118d8576040517f08c379a00000000000000000000000000000000000000000000000000000000081526004016118cf9061384b565b60405180910390fd5b3373ffffffffffffffffffffffffffffffffffffffff16600d6000848152602001908152602001600020600a01600083815260200190815260200160002060010160009054906101000a900473ffffffffffffffffffffffffffffffffffffffff1673ffffffffffffffffffffffffffffffffffffffff1614611990576040517f08c379a00000000000000000000000000000000000000000000000000000000081526004016119879061380b565b60405180910390fd5b600960009054906101000a900473ffffffffffffffffffffffffffffffffffffffff1673ffffffffffffffffffffffffffffffffffffffff1663a9059cbb600d6000858152602001908152602001600020600a01600084815260200190815260200160002060010160009054906101000a900473ffffffffffffffffffffffffffffffffffffffff16600d6000868152602001908152602001600020600501546040518363ffffffff1660e01b8152600401611a4d92919061370f565b602060405180830381600087803b158015611a6757600080fd5b505af1158015611a7b573d6000803e3d6000fd5b505050506040513d601f19601f82011682018060405250810190611a9f919061322f565b506002600d6000848152602001908152602001600020600a01600083815260200190815260200160002060030160006101000a81548160ff02191690836002811115611b14577f4e487b7100000000000000000000000000000000000000000000000000000000600052602160045260246000fd5b02179055507fd0d6f900b5096e8e38e0b13b83d7ac826d0c461a139f26a9bfbee4b4d3d1e9198282604051611b4a9291906139c1565b60405180910390a15050565b60025481565b60006001548211611b71576001549050611b9a565b60005460015483611b829190613bd3565b611b8c9190613d2d565b82611b979190613bd3565b90505b919050565b600e6020528160005260406000208181548110611bbb57600080fd5b90600052602060002001600091509150505481565b611bd8613091565b600d6000848152602001908152602001600020600a016000838152602001908152602001600020604051806080016040529081600082015481526020016001820160009054906101000a900473ffffffffffffffffffffffffffffffffffffffff1673ffffffffffffffffffffffffffffffffffffffff1673ffffffffffffffffffffffffffffffffffffffff168152602001600282015481526020016003820160009054906101000a900460ff166002811115611cbf577f4e487b7100000000000000000000000000000000000000000000000000000000600052602160045260246000fd5b6002811115611cf7577f4e487b7100000000000000000000000000000000000000000000000000000000600052602160045260246000fd5b81525050905092915050565b600860009054906101000a900473ffffffffffffffffffffffffffffffffffffffff1673ffffffffffffffffffffffffffffffffffffffff16638da5cb5b6040518163ffffffff1660e01b815260040160206040518083038186803b158015611d6b57600080fd5b505afa158015611d7f573d6000803e3d6000fd5b505050506040513d601f19601f82011682018060405250810190611da391906131ca565b73ffffffffffffffffffffffffffffffffffffffff163373ffffffffffffffffffffffffffffffffffffffff1614611e10576040517f08c379a0000000000000000000000000000000000000000000000000000000008152600401611e07906137cb565b60405180910390fd5b600960009054906101000a900473ffffffffffffffffffffffffffffffffffffffff1673ffffffffffffffffffffffffffffffffffffffff1663a9059cbb600860009054906101000a900473ffffffffffffffffffffffffffffffffffffffff1673ffffffffffffffffffffffffffffffffffffffff16638da5cb5b6040518163ffffffff1660e01b815260040160206040518083038186803b158015611eb657600080fd5b505afa158015611eca573d6000803e3d6000fd5b505050506040513d601f19601f82011682018060405250810190611eee91906131ca565b836040518363ffffffff1660e01b8152600401611f0c92919061370f565b602060405180830381600087803b158015611f2657600080fd5b505af1158015611f3a573d6000803e3d6000fd5b505050506040513d601f19601f82011682018060405250810190611f5e919061322f565b5050565b60015481565b600060016000544284611f7b9190613bd3565b611f859190613b48565b611f8f9190613ac1565b9050919050565b60075481565b6000600d6000838152602001908152602001600020600901805490509050919050565b6000808211611fd2576005549050611ff0565b60055460055483611fe39190613b48565b611fed9190613b79565b90505b919050565b6000600f80549050905090565b6060600e60008373ffffffffffffffffffffffffffffffffffffffff1673ffffffffffffffffffffffffffffffffffffffff16815260200190815260200160002080548060200260200160405190810160405280929190818152602001828054801561208d57602002820191906000526020600020905b815481526020019060010190808311612079575b50505050509050919050565b600d6020528060005260406000206000915090508060000154908060010154908060020154908060030154908060040154908060050154908060060154908060070154908060080160009054906101000a900460ff16905089565b60008061210085611b5c565b905061210b42611b5c565b81101561214d576040517f08c379a00000000000000000000000000000000000000000000000000000000081526004016121449061388b565b60405180910390fd5b600061215885611fbf565b9050600061216683866127a5565b905080600d6000858152602001908152602001600020600a0160008481526020019081526020016000206002015461219e9190613ac1565b93505050509392505050565b6121b381612878565b6121bc816116f6565b50565b806000620186a0600754836121d49190613b79565b6121de9190613b48565b9050600b54811015612225576040517f08c379a000000000000000000000000000000000000000000000000000000000815260040161221c9061386b565b60405180910390fd5b6000612230866107d2565b9050600061223e8287612ea4565b90503373ffffffffffffffffffffffffffffffffffffffff16600d6000848152602001908152602001600020600a01600083815260200190815260200160002060010160009054906101000a900473ffffffffffffffffffffffffffffffffffffffff1673ffffffffffffffffffffffffffffffffffffffff16146122f8576040517f08c379a00000000000000000000000000000000000000000000000000000000081526004016122ef906138ab565b60405180910390fd5b61230142611b5c565b821015612343576040517f08c379a000000000000000000000000000000000000000000000000000000000815260040161233a906138eb565b60405180910390fd5b600061234f83876127a5565b9050600061238784600d6000878152602001908152602001600020600a016000868152602001908152602001600020600201546127a5565b90508082111561259457808261239d9190613bd3565b600960009054906101000a900473ffffffffffffffffffffffffffffffffffffffff1673ffffffffffffffffffffffffffffffffffffffff1663dd62ed3e33306040518363ffffffff1660e01b81526004016123fa9291906136af565b60206040518083038186803b15801561241257600080fd5b505afa158015612426573d6000803e3d6000fd5b505050506040513d601f19601f8201168201806040525081019061244a9190613281565b101561248b576040517f08c379a00000000000000000000000000000000000000000000000000000000081526004016124829061392b565b60405180910390fd5b600960009054906101000a900473ffffffffffffffffffffffffffffffffffffffff1673ffffffffffffffffffffffffffffffffffffffff166323b872dd333084866124d79190613bd3565b6040518463ffffffff1660e01b81526004016124f5939291906136d8565b602060405180830381600087803b15801561250f57600080fd5b505af1158015612523573d6000803e3d6000fd5b505050506040513d601f19601f82011682018060405250810190612547919061322f565b5080826125549190613bd3565b600d6000868152602001908152602001600020600501546125759190613ac1565b600d6000868152602001908152602001600020600501819055506126a0565b8082101561269f57600960009054906101000a900473ffffffffffffffffffffffffffffffffffffffff1673ffffffffffffffffffffffffffffffffffffffff1663a9059cbb3384846125e79190613bd3565b6040518363ffffffff1660e01b815260040161260492919061370f565b602060405180830381600087803b15801561261e57600080fd5b505af1158015612632573d6000803e3d6000fd5b505050506040513d601f19601f82011682018060405250810190612656919061322f565b5081816126639190613bd3565b600d6000868152602001908152602001600020600501546126849190613bd3565b600d6000868152602001908152602001600020600501819055505b5b86600d6000868152602001908152602001600020600a016000858152602001908152602001600020600201819055507fd0d6f900b5096e8e38e0b13b83d7ac826d0c461a139f26a9bfbee4b4d3d1e91984846040516127009291906139c1565b60405180910390a1505050505050505050565b600860009054906101000a900473ffffffffffffffffffffffffffffffffffffffff1681565b600460009054906101000a900473ffffffffffffffffffffffffffffffffffffffff1681565b6000600d6000838152602001908152602001600020600501549050919050565b600960009054906101000a900473ffffffffffffffffffffffffffffffffffffffff1681565b600080426127bf600054426127ba9190613ac1565b611b5c565b6127c99190613bd3565b90506000805482600c546127dd9190613b79565b6127e79190613b48565b905060006127f486611f68565b905080620186a0600754876128099190613b79565b6128139190613b48565b61281d9190613b79565b93506000620186a0600754876128339190613b79565b61283d9190613b48565b9050600c54838261284e9190613b79565b6128589190613b48565b905080856128669190613ac1565b94505050505092915050565b60005481565b806000600d6000838152602001908152602001600020600601541115806128b657506000600d60008381526020019081526020016000206007015411155b156128f6576040517f08c379a00000000000000000000000000000000000000000000000000000000081526004016128ed9061382b565b60405180910390fd5b600d600082815260200190815260200160002060070154600d6000838152602001908152602001600020600601541415612965576040517f08c379a000000000000000000000000000000000000000000000000000000000815260040161295c9061382b565b60405180910390fd5b42600054836129749190613ac1565b11156129b5576040517f08c379a00000000000000000000000000000000000000000000000000000000081526004016129ac906137ab565b60405180910390fd5b6002600d600084815260200190815260200160002060080160006101000a81548160ff02191690836002811115612a15577f4e487b7100000000000000000000000000000000000000000000000000000000600052602160045260246000fd5b02179055506000600d600084815260200190815260200160002060060154600d600085815260200190815260200160002060070154612a549190613bd3565b90506000600d600085815260200190815260200160002060010154600d600086815260200190815260200160002060020154612a909190613bd3565b9050612ac86040518060200160405280847bffffffffffffffffffffffffffffffffffffffffffffffffffffffff1681525082612fe1565b600001517bffffffffffffffffffffffffffffffffffffffffffffffffffffffff16600d6000868152602001908152602001600020600401819055507406d79f82328ea3da61e066ebb2f88a0000000000006070600d600087815260200190815260200160002060040154901b612b3f9190613b48565b600c546070600d600088815260200190815260200160002060040154901c612b679190613b79565b612b719190613ac1565b600d6000868152602001908152602001600020600401819055506000620186a0600654600d600088815260200190815260200160002060050154612bb59190613b79565b612bbf9190613b48565b90506000620186a0600254600d600089815260200190815260200160002060050154612beb9190613b79565b612bf59190613b48565b90508082600d600089815260200190815260200160002060050154612c1a9190613bd3565b612c249190613bd3565b600d600088815260200190815260200160002060050181905550600960009054906101000a900473ffffffffffffffffffffffffffffffffffffffff1673ffffffffffffffffffffffffffffffffffffffff1663a9059cbb600a60009054906101000a900473ffffffffffffffffffffffffffffffffffffffff16846040518363ffffffff1660e01b8152600401612cbd92919061370f565b602060405180830381600087803b158015612cd757600080fd5b505af1158015612ceb573d6000803e3d6000fd5b505050506040513d601f19601f82011682018060405250810190612d0f919061322f565b50600960009054906101000a900473ffffffffffffffffffffffffffffffffffffffff1673ffffffffffffffffffffffffffffffffffffffff1663a9059cbb600860009054906101000a900473ffffffffffffffffffffffffffffffffffffffff1673ffffffffffffffffffffffffffffffffffffffff16638da5cb5b6040518163ffffffff1660e01b815260040160206040518083038186803b158015612db657600080fd5b505afa158015612dca573d6000803e3d6000fd5b505050506040513d601f19601f82011682018060405250810190612dee91906131ca565b836040518363ffffffff1660e01b8152600401612e0c92919061370f565b602060405180830381600087803b158015612e2657600080fd5b505af1158015612e3a573d6000803e3d6000fd5b505050506040513d601f19601f82011682018060405250810190612e5e919061322f565b507f163614e6e9ce9df7687928015fd2c748b69c5136db886e57f09170b251b58e8786604051612e8e91906139a6565b60405180910390a1505050505050565b60035481565b600080612eb083611fbf565b905060006002811115612eec577f4e487b7100000000000000000000000000000000000000000000000000000000600052602160045260246000fd5b600d6000868152602001908152602001600020600a01600083815260200190815260200160002060030160009054906101000a900460ff166002811115612f5c577f4e487b7100000000000000000000000000000000000000000000000000000000600052602160045260246000fd5b14612f6a5780915050612fdb565b80600d6000868152602001908152602001600020600a01600083815260200190815260200160002060000181905550600d6000858152602001908152602001600020600901819080600181540180825580915050600190039060005260206000200160009091909190915055809150505b92915050565b612fe9613107565b6000826dffffffffffffffffffffffffffff16141561303d576040517f08c379a00000000000000000000000000000000000000000000000000000000081526004016130349061396b565b60405180910390fd5b6040518060200160405280836dffffffffffffffffffffffffffff1685600001516130689190613b17565b7bffffffffffffffffffffffffffffffffffffffffffffffffffffffff16815250905092915050565b604051806080016040528060008152602001600073ffffffffffffffffffffffffffffffffffffffff1681526020016000815260200160006002811115613101577f4e487b7100000000000000000000000000000000000000000000000000000000600052602160045260246000fd5b81525090565b604051806020016040528060007bffffffffffffffffffffffffffffffffffffffffffffffffffffffff1681525090565b600081359050613147816140a0565b92915050565b60008151905061315c816140a0565b92915050565b600081519050613171816140b7565b92915050565b600081359050613186816140ce565b92915050565b60008151905061319b816140ce565b92915050565b6000602082840312156131b357600080fd5b60006131c184828501613138565b91505092915050565b6000602082840312156131dc57600080fd5b60006131ea8482850161314d565b91505092915050565b6000806040838503121561320657600080fd5b600061321485828601613138565b925050602061322585828601613177565b9150509250929050565b60006020828403121561324157600080fd5b600061324f84828501613162565b91505092915050565b60006020828403121561326a57600080fd5b600061327884828501613177565b91505092915050565b60006020828403121561329357600080fd5b60006132a18482850161318c565b91505092915050565b600080604083850312156132bd57600080fd5b60006132cb85828601613177565b92505060206132dc85828601613177565b9150509250929050565b6000806000606084860312156132fb57600080fd5b600061330986828701613177565b935050602061331a86828701613177565b925050604061332b86828701613177565b9150509250925092565b60006133418383613676565b60208301905092915050565b61335681613c07565b82525050565b61336581613c07565b82525050565b600061337682613a87565b6133808185613a9f565b935061338b83613a77565b8060005b838110156133bc5781516133a38882613335565b97506133ae83613a92565b92505060018101905061338f565b5085935050505092915050565b6133d281613c9d565b82525050565b6133e181613cc1565b82525050565b6133f081613ce5565b82525050565b6133ff81613d09565b82525050565b61340e81613d1b565b82525050565b6000613421601a83613ab0565b915061342c82613deb565b602082019050919050565b6000613444601583613ab0565b915061344f82613e14565b602082019050919050565b6000613467601a83613ab0565b915061347282613e3d565b602082019050919050565b600061348a601f83613ab0565b915061349582613e66565b602082019050919050565b60006134ad601383613ab0565b91506134b882613e8f565b602082019050919050565b60006134d0601383613ab0565b91506134db82613eb8565b602082019050919050565b60006134f3601083613ab0565b91506134fe82613ee1565b602082019050919050565b6000613516601b83613ab0565b915061352182613f0a565b602082019050919050565b6000613539601183613ab0565b915061354482613f33565b602082019050919050565b600061355c601083613ab0565b915061356782613f5c565b602082019050919050565b600061357f602983613ab0565b915061358a82613f85565b604082019050919050565b60006135a2601f83613ab0565b91506135ad82613fd4565b602082019050919050565b60006135c5601c83613ab0565b91506135d082613ffd565b602082019050919050565b60006135e8601d83613ab0565b91506135f382614026565b602082019050919050565b600061360b601783613ab0565b91506136168261404f565b602082019050919050565b6080820160008201516136376000850182613676565b50602082015161364a602085018261334d565b50604082015161365d6040850182613676565b5060608201516136706060850182613405565b50505050565b61367f81613c93565b82525050565b61368e81613c93565b82525050565b60006020820190506136a9600083018461335c565b92915050565b60006040820190506136c4600083018561335c565b6136d1602083018461335c565b9392505050565b60006060820190506136ed600083018661335c565b6136fa602083018561335c565b6137076040830184613685565b949350505050565b6000604082019050613724600083018561335c565b6137316020830184613685565b9392505050565b60006020820190508181036000830152613752818461336b565b905092915050565b600060208201905061376f60008301846133c9565b92915050565b600060208201905061378a60008301846133d8565b92915050565b60006020820190506137a560008301846133e7565b92915050565b600060208201905081810360008301526137c481613414565b9050919050565b600060208201905081810360008301526137e481613437565b9050919050565b600060208201905081810360008301526138048161345a565b9050919050565b600060208201905081810360008301526138248161347d565b9050919050565b60006020820190508181036000830152613844816134a0565b9050919050565b60006020820190508181036000830152613864816134c3565b9050919050565b60006020820190508181036000830152613884816134e6565b9050919050565b600060208201905081810360008301526138a481613509565b9050919050565b600060208201905081810360008301526138c48161352c565b9050919050565b600060208201905081810360008301526138e48161354f565b9050919050565b6000602082019050818103600083015261390481613572565b9050919050565b6000602082019050818103600083015261392481613595565b9050919050565b60006020820190508181036000830152613944816135b8565b9050919050565b60006020820190508181036000830152613964816135db565b9050919050565b60006020820190508181036000830152613984816135fe565b9050919050565b60006080820190506139a06000830184613621565b92915050565b60006020820190506139bb6000830184613685565b92915050565b60006040820190506139d66000830185613685565b6139e36020830184613685565b9392505050565b600061012082019050613a00600083018c613685565b613a0d602083018b613685565b613a1a604083018a613685565b613a276060830189613685565b613a346080830188613685565b613a4160a0830187613685565b613a4e60c0830186613685565b613a5b60e0830185613685565b613a696101008301846133f6565b9a9950505050505050505050565b6000819050602082019050919050565b600081519050919050565b6000602082019050919050565b600082825260208201905092915050565b600082825260208201905092915050565b6000613acc82613c93565b9150613ad783613c93565b9250827fffffffffffffffffffffffffffffffffffffffffffffffffffffffffffffffff03821115613b0c57613b0b613d5e565b5b828201905092915050565b6000613b2282613c6b565b9150613b2d83613c6b565b925082613b3d57613b3c613d8d565b5b828204905092915050565b6000613b5382613c93565b9150613b5e83613c93565b925082613b6e57613b6d613d8d565b5b828204905092915050565b6000613b8482613c93565b9150613b8f83613c93565b9250817fffffffffffffffffffffffffffffffffffffffffffffffffffffffffffffffff0483118215151615613bc857613bc7613d5e565b5b828202905092915050565b6000613bde82613c93565b9150613be983613c93565b925082821015613bfc57613bfb613d5e565b5b828203905092915050565b6000613c1282613c4b565b9050919050565b60008115159050919050565b6000819050613c3382614078565b919050565b6000819050613c468261408c565b919050565b600073ffffffffffffffffffffffffffffffffffffffff82169050919050565b60007bffffffffffffffffffffffffffffffffffffffffffffffffffffffff82169050919050565b6000819050919050565b6000613ca882613caf565b9050919050565b6000613cba82613c4b565b9050919050565b6000613ccc82613cd3565b9050919050565b6000613cde82613c4b565b9050919050565b6000613cf082613cf7565b9050919050565b6000613d0282613c4b565b9050919050565b6000613d1482613c25565b9050919050565b6000613d2682613c38565b9050919050565b6000613d3882613c93565b9150613d4383613c93565b925082613d5357613d52613d8d565b5b828206905092915050565b7f4e487b7100000000000000000000000000000000000000000000000000000000600052601160045260246000fd5b7f4e487b7100000000000000000000000000000000000000000000000000000000600052601260045260246000fd5b7f4e487b7100000000000000000000000000000000000000000000000000000000600052602160045260246000fd5b7f4652414d4520454e442054494d45204e4f542052454143484544000000000000600082015250565b7f4e4f542054484520464143544f5259204f574e45520000000000000000000000600082015250565b7f43414e275420435245415445204652414d4520494e2050415354000000000000600082015250565b7f594f5520444f204e4f54204f574e205448452057494e4e494e47204c4f542100600082015250565b7f494e56414c4944204652414d4520505249434500000000000000000000000000600082015250565b7f4c4f5420414c524541445920534554544c454400000000000000000000000000600082015250565b7f505249434520495320544f4f204c4f5700000000000000000000000000000000600082015250565b7f54484953204c4f5420495320494e20412050415354204652414d450000000000600082015250565b7f4d555354204245204c4f54204f574e4552000000000000000000000000000000600082015250565b7f4652414d45204e4f5420434c4f53454400000000000000000000000000000000600082015250565b7f54484953204c4f5420495320494e20412054494d45204652414d452046524f4d60008201527f2054484520504153540000000000000000000000000000000000000000000000602082015250565b7f4144445245535320414c5245414459204f574e53205448452050415243454c00600082015250565b7f415050524f56454420414d4f554e5420495320544f4f20534d414c4c00000000600082015250565b7f43414e2754204255592041204c4f542046524f4d205448452050415354000000600082015250565b7f4669786564506f696e743a204449565f42595f5a45524f000000000000000000600082015250565b6003811061408957614088613dbc565b5b50565b6003811061409d5761409c613dbc565b5b50565b6140a981613c07565b81146140b457600080fd5b50565b6140c081613c19565b81146140cb57600080fd5b50565b6140d781613c93565b81146140e257600080fd5b5056fea26469706673582212208440f981a58b520bf9047226511419b8691ef626b3f9e06f6b78e42efb59703664736f6c63430008040033a2646970667358221220068f54b4241ce3698dac2f25c64509159d73595803de831d1bc2fd6e5a5a2fbe64736f6c63430008040033",
  "linkReferences": {},
  "deployedLinkReferences": {}
}