{
  "_format": "hh-sol-artifact-1",
  "contractName": "MarketGetter",
  "sourceName": "contracts/MarketGetter.sol",
  "abi": [
    {
      "inputs": [
        {
          "internalType": "contract Market",
          "name": "market",
          "type": "address"
        },
        {
          "internalType": "uint256",
          "name": "timestamp",
          "type": "uint256"
        },
        {
          "internalType": "uint256",
          "name": "pairPrice",
          "type": "uint256"
        },
        {
          "internalType": "uint256",
          "name": "acqPrice",
          "type": "uint256"
        }
      ],
      "name": "clcAmountToApprove",
      "outputs": [
        {
          "internalType": "uint256",
          "name": "approvalAmnt",
          "type": "uint256"
        }
      ],
      "stateMutability": "view",
      "type": "function"
    },
    {
      "inputs": [
        {
          "internalType": "contract Market",
          "name": "market",
          "type": "address"
        },
        {
          "internalType": "uint256",
          "name": "timestamp",
          "type": "uint256"
        },
        {
          "internalType": "uint256",
          "name": "pairPrice",
          "type": "uint256"
        },
        {
          "internalType": "uint256",
          "name": "acqPrice",
          "type": "uint256"
        }
      ],
      "name": "clcAmountToApproveForUpdate",
      "outputs": [
        {
          "internalType": "uint256",
          "name": "amnt",
          "type": "uint256"
        }
      ],
      "stateMutability": "view",
      "type": "function"
    },
    {
      "inputs": [
        {
          "internalType": "contract Market",
          "name": "market",
          "type": "address"
        },
        {
          "internalType": "uint256",
          "name": "frameKey",
          "type": "uint256"
        }
      ],
      "name": "getFrameStruct",
      "outputs": [
        {
          "components": [
            {
              "internalType": "uint256",
              "name": "frameKey",
              "type": "uint256"
            },
            {
              "internalType": "uint256",
              "name": "rate",
              "type": "uint256"
            },
            {
              "internalType": "uint256[]",
              "name": "lotKeys",
              "type": "uint256[]"
            },
            {
              "internalType": "address",
              "name": "claimedBy",
              "type": "address"
            },
            {
              "internalType": "uint256",
              "name": "rateSettle",
              "type": "uint256"
            },
            {
              "internalType": "uint256",
              "name": "feeSettle",
              "type": "uint256"
            },
            {
              "internalType": "uint256",
              "name": "rewardSettle",
              "type": "uint256"
            },
            {
              "internalType": "uint256",
              "name": "rewardPool",
              "type": "uint256"
            }
          ],
          "internalType": "struct Market.Frame",
          "name": "",
          "type": "tuple"
        }
      ],
      "stateMutability": "view",
      "type": "function"
    },
    {
      "inputs": [
        {
          "internalType": "contract Market",
          "name": "market",
          "type": "address"
        },
        {
          "internalType": "uint256",
          "name": "frameKey_start",
          "type": "uint256"
        },
        {
          "internalType": "uint256",
          "name": "frameKey_end",
          "type": "uint256"
        },
        {
          "internalType": "uint256",
          "name": "page",
          "type": "uint256"
        },
        {
          "internalType": "uint256",
          "name": "perPage",
          "type": "uint256"
        }
      ],
      "name": "getFrames",
      "outputs": [
        {
          "components": [
            {
              "internalType": "uint256",
              "name": "frameKey",
              "type": "uint256"
            },
            {
              "internalType": "uint256",
              "name": "rate",
              "type": "uint256"
            },
            {
              "internalType": "uint256[]",
              "name": "lotKeys",
              "type": "uint256[]"
            },
            {
              "internalType": "address",
              "name": "claimedBy",
              "type": "address"
            },
            {
              "internalType": "uint256",
              "name": "rateSettle",
              "type": "uint256"
            },
            {
              "internalType": "uint256",
              "name": "feeSettle",
              "type": "uint256"
            },
            {
              "internalType": "uint256",
              "name": "rewardSettle",
              "type": "uint256"
            },
            {
              "internalType": "uint256",
              "name": "rewardPool",
              "type": "uint256"
            }
          ],
          "internalType": "struct Market.Frame[]",
          "name": "frames",
          "type": "tuple[]"
        },
        {
          "internalType": "uint256",
          "name": "pagesLeft",
          "type": "uint256"
        }
      ],
      "stateMutability": "view",
      "type": "function"
    },
    {
      "inputs": [
        {
          "internalType": "contract Market",
          "name": "market",
          "type": "address"
        },
        {
          "internalType": "uint256",
          "name": "startIndex",
          "type": "uint256"
        },
        {
          "internalType": "uint256",
          "name": "endIndex",
          "type": "uint256"
        }
      ],
      "name": "getFramesByIndex",
      "outputs": [
        {
          "components": [
            {
              "internalType": "uint256",
              "name": "frameKey",
              "type": "uint256"
            },
            {
              "internalType": "uint256",
              "name": "rate",
              "type": "uint256"
            },
            {
              "internalType": "uint256[]",
              "name": "lotKeys",
              "type": "uint256[]"
            },
            {
              "internalType": "address",
              "name": "claimedBy",
              "type": "address"
            },
            {
              "internalType": "uint256",
              "name": "rateSettle",
              "type": "uint256"
            },
            {
              "internalType": "uint256",
              "name": "feeSettle",
              "type": "uint256"
            },
            {
              "internalType": "uint256",
              "name": "rewardSettle",
              "type": "uint256"
            },
            {
              "internalType": "uint256",
              "name": "rewardPool",
              "type": "uint256"
            }
          ],
          "internalType": "struct Market.Frame[]",
          "name": "frames",
          "type": "tuple[]"
        }
      ],
      "stateMutability": "view",
      "type": "function"
    },
    {
      "inputs": [
        {
          "internalType": "contract Market",
          "name": "market",
          "type": "address"
        },
        {
          "internalType": "address",
          "name": "user",
          "type": "address"
        },
        {
          "internalType": "uint256",
          "name": "frameKey_start",
          "type": "uint256"
        },
        {
          "internalType": "uint256",
          "name": "frameKey_end",
          "type": "uint256"
        },
        {
          "internalType": "uint256",
          "name": "page",
          "type": "uint256"
        },
        {
          "internalType": "uint256",
          "name": "perPage",
          "type": "uint256"
        }
      ],
      "name": "getFramesUser",
      "outputs": [
        {
          "components": [
            {
              "internalType": "uint256",
              "name": "frameKey",
              "type": "uint256"
            },
            {
              "internalType": "uint256",
              "name": "rate",
              "type": "uint256"
            },
            {
              "internalType": "uint256[]",
              "name": "lotKeys",
              "type": "uint256[]"
            },
            {
              "internalType": "address",
              "name": "claimedBy",
              "type": "address"
            },
            {
              "internalType": "uint256",
              "name": "rateSettle",
              "type": "uint256"
            },
            {
              "internalType": "uint256",
              "name": "feeSettle",
              "type": "uint256"
            },
            {
              "internalType": "uint256",
              "name": "rewardSettle",
              "type": "uint256"
            },
            {
              "internalType": "uint256",
              "name": "rewardPool",
              "type": "uint256"
            }
          ],
          "internalType": "struct Market.Frame[]",
          "name": "userFrames",
          "type": "tuple[]"
        },
        {
          "internalType": "uint256",
          "name": "pagesLeft",
          "type": "uint256"
        }
      ],
      "stateMutability": "view",
      "type": "function"
    },
    {
      "inputs": [
        {
          "internalType": "contract Market",
          "name": "market",
          "type": "address"
        },
        {
          "internalType": "uint256",
          "name": "frameKey",
          "type": "uint256"
        },
        {
          "internalType": "uint256",
          "name": "index",
          "type": "uint256"
        }
      ],
      "name": "getLotKey",
      "outputs": [
        {
          "internalType": "uint256",
          "name": "",
          "type": "uint256"
        }
      ],
      "stateMutability": "view",
      "type": "function"
    },
    {
      "inputs": [
        {
          "internalType": "contract Market",
          "name": "market",
          "type": "address"
        },
        {
          "internalType": "uint256",
          "name": "frameKey",
          "type": "uint256"
        },
        {
          "internalType": "uint256",
          "name": "lotKey",
          "type": "uint256"
        }
      ],
      "name": "getLotStruct",
      "outputs": [
        {
          "components": [
            {
              "internalType": "uint256",
              "name": "frameKey",
              "type": "uint256"
            },
            {
              "internalType": "uint256",
              "name": "lotKey",
              "type": "uint256"
            },
            {
              "components": [
                {
                  "internalType": "uint256",
                  "name": "blockNumber",
                  "type": "uint256"
                },
                {
                  "internalType": "uint256",
                  "name": "blockTimestamp",
                  "type": "uint256"
                },
                {
                  "internalType": "address",
                  "name": "owner",
                  "type": "address"
                },
                {
                  "internalType": "uint256",
                  "name": "acquisitionPrice",
                  "type": "uint256"
                },
                {
                  "internalType": "uint256",
                  "name": "taxCharged",
                  "type": "uint256"
                }
              ],
              "internalType": "struct Market.LotState[]",
              "name": "states",
              "type": "tuple[]"
            }
          ],
          "internalType": "struct Market.Lot",
          "name": "",
          "type": "tuple"
        }
      ],
      "stateMutability": "view",
      "type": "function"
    },
    {
      "inputs": [
        {
          "internalType": "contract Market",
          "name": "market",
          "type": "address"
        },
        {
          "internalType": "uint256",
          "name": "frameKey_start",
          "type": "uint256"
        },
        {
          "internalType": "uint256",
          "name": "frameKey_end",
          "type": "uint256"
        },
        {
          "internalType": "uint256",
          "name": "page",
          "type": "uint256"
        },
        {
          "internalType": "uint256",
          "name": "perPage",
          "type": "uint256"
        }
      ],
      "name": "getLots",
      "outputs": [
        {
          "components": [
            {
              "internalType": "uint256",
              "name": "frameKey",
              "type": "uint256"
            },
            {
              "internalType": "uint256",
              "name": "lotKey",
              "type": "uint256"
            },
            {
              "components": [
                {
                  "internalType": "uint256",
                  "name": "blockNumber",
                  "type": "uint256"
                },
                {
                  "internalType": "uint256",
                  "name": "blockTimestamp",
                  "type": "uint256"
                },
                {
                  "internalType": "address",
                  "name": "owner",
                  "type": "address"
                },
                {
                  "internalType": "uint256",
                  "name": "acquisitionPrice",
                  "type": "uint256"
                },
                {
                  "internalType": "uint256",
                  "name": "taxCharged",
                  "type": "uint256"
                }
              ],
              "internalType": "struct Market.LotState[]",
              "name": "states",
              "type": "tuple[]"
            }
          ],
          "internalType": "struct Market.Lot[]",
          "name": "lots",
          "type": "tuple[]"
        },
        {
          "internalType": "uint256",
          "name": "pagesLeft",
          "type": "uint256"
        }
      ],
      "stateMutability": "view",
      "type": "function"
    },
    {
      "inputs": [
        {
          "internalType": "contract Market",
          "name": "market",
          "type": "address"
        },
        {
          "internalType": "uint256",
          "name": "startIndex",
          "type": "uint256"
        },
        {
          "internalType": "uint256",
          "name": "endIndex",
          "type": "uint256"
        }
      ],
      "name": "getLotsByIndex",
      "outputs": [
        {
          "components": [
            {
              "internalType": "uint256",
              "name": "frameKey",
              "type": "uint256"
            },
            {
              "internalType": "uint256",
              "name": "lotKey",
              "type": "uint256"
            },
            {
              "components": [
                {
                  "internalType": "uint256",
                  "name": "blockNumber",
                  "type": "uint256"
                },
                {
                  "internalType": "uint256",
                  "name": "blockTimestamp",
                  "type": "uint256"
                },
                {
                  "internalType": "address",
                  "name": "owner",
                  "type": "address"
                },
                {
                  "internalType": "uint256",
                  "name": "acquisitionPrice",
                  "type": "uint256"
                },
                {
                  "internalType": "uint256",
                  "name": "taxCharged",
                  "type": "uint256"
                }
              ],
              "internalType": "struct Market.LotState[]",
              "name": "states",
              "type": "tuple[]"
            }
          ],
          "internalType": "struct Market.Lot[]",
          "name": "lots",
          "type": "tuple[]"
        }
      ],
      "stateMutability": "view",
      "type": "function"
    },
    {
      "inputs": [
        {
          "internalType": "contract Market",
          "name": "market",
          "type": "address"
        },
        {
          "internalType": "uint256",
          "name": "frameKey",
          "type": "uint256"
        }
      ],
      "name": "getLotsCount",
      "outputs": [
        {
          "internalType": "uint256",
          "name": "",
          "type": "uint256"
        }
      ],
      "stateMutability": "view",
      "type": "function"
    },
    {
      "inputs": [
        {
          "internalType": "contract Market",
          "name": "market",
          "type": "address"
        },
        {
          "internalType": "address",
          "name": "user",
          "type": "address"
        },
        {
          "internalType": "uint256",
          "name": "mode",
          "type": "uint256"
        },
        {
          "internalType": "uint256",
          "name": "frameKey_start",
          "type": "uint256"
        },
        {
          "internalType": "uint256",
          "name": "frameKey_end",
          "type": "uint256"
        },
        {
          "internalType": "uint256",
          "name": "page",
          "type": "uint256"
        },
        {
          "internalType": "uint256",
          "name": "perPage",
          "type": "uint256"
        }
      ],
      "name": "getLotsSoldUser",
      "outputs": [
        {
          "components": [
            {
              "internalType": "uint256",
              "name": "frameKey",
              "type": "uint256"
            },
            {
              "internalType": "uint256",
              "name": "lotKey",
              "type": "uint256"
            },
            {
              "components": [
                {
                  "internalType": "uint256",
                  "name": "blockNumber",
                  "type": "uint256"
                },
                {
                  "internalType": "uint256",
                  "name": "blockTimestamp",
                  "type": "uint256"
                },
                {
                  "internalType": "address",
                  "name": "owner",
                  "type": "address"
                },
                {
                  "internalType": "uint256",
                  "name": "acquisitionPrice",
                  "type": "uint256"
                },
                {
                  "internalType": "uint256",
                  "name": "taxCharged",
                  "type": "uint256"
                }
              ],
              "internalType": "struct Market.LotState[]",
              "name": "states",
              "type": "tuple[]"
            }
          ],
          "internalType": "struct Market.Lot[]",
          "name": "userLots",
          "type": "tuple[]"
        },
        {
          "internalType": "uint256",
          "name": "pagesLeft",
          "type": "uint256"
        }
      ],
      "stateMutability": "view",
      "type": "function"
    },
    {
      "inputs": [
        {
          "internalType": "contract Market",
          "name": "market",
          "type": "address"
        },
        {
          "internalType": "address",
          "name": "user",
          "type": "address"
        },
        {
          "internalType": "uint256",
          "name": "mode",
          "type": "uint256"
        },
        {
          "internalType": "uint256",
          "name": "frameKey_start",
          "type": "uint256"
        },
        {
          "internalType": "uint256",
          "name": "frameKey_end",
          "type": "uint256"
        },
        {
          "internalType": "uint256",
          "name": "page",
          "type": "uint256"
        },
        {
          "internalType": "uint256",
          "name": "perPage",
          "type": "uint256"
        }
      ],
      "name": "getLotsUser",
      "outputs": [
        {
          "components": [
            {
              "internalType": "uint256",
              "name": "frameKey",
              "type": "uint256"
            },
            {
              "internalType": "uint256",
              "name": "lotKey",
              "type": "uint256"
            },
            {
              "components": [
                {
                  "internalType": "uint256",
                  "name": "blockNumber",
                  "type": "uint256"
                },
                {
                  "internalType": "uint256",
                  "name": "blockTimestamp",
                  "type": "uint256"
                },
                {
                  "internalType": "address",
                  "name": "owner",
                  "type": "address"
                },
                {
                  "internalType": "uint256",
                  "name": "acquisitionPrice",
                  "type": "uint256"
                },
                {
                  "internalType": "uint256",
                  "name": "taxCharged",
                  "type": "uint256"
                }
              ],
              "internalType": "struct Market.LotState[]",
              "name": "states",
              "type": "tuple[]"
            }
          ],
          "internalType": "struct Market.Lot[]",
          "name": "userLots",
          "type": "tuple[]"
        },
        {
          "internalType": "uint256",
          "name": "pagesLeft",
          "type": "uint256"
        }
      ],
      "stateMutability": "view",
      "type": "function"
    },
    {
      "inputs": [
        {
          "internalType": "contract Market",
          "name": "market",
          "type": "address"
        },
        {
          "internalType": "uint256",
          "name": "startFrame",
          "type": "uint256"
        },
        {
          "internalType": "uint256",
          "name": "numOfFrames",
          "type": "uint256"
        }
      ],
      "name": "getOpenFrameKeys",
      "outputs": [
        {
          "internalType": "uint256[]",
          "name": "openFrames",
          "type": "uint256[]"
        }
      ],
      "stateMutability": "view",
      "type": "function"
    },
    {
      "inputs": [
        {
          "internalType": "contract Market",
          "name": "market",
          "type": "address"
        },
        {
          "internalType": "uint256",
          "name": "frameKey",
          "type": "uint256"
        }
      ],
      "name": "getRewardAmount",
      "outputs": [
        {
          "internalType": "uint256",
          "name": "",
          "type": "uint256"
        }
      ],
      "stateMutability": "view",
      "type": "function"
    },
    {
      "inputs": [
        {
          "internalType": "contract Market",
          "name": "market",
          "type": "address"
        },
        {
          "internalType": "uint256",
          "name": "frameKey",
          "type": "uint256"
        }
      ],
      "name": "getRewardAmountMin",
      "outputs": [
        {
          "internalType": "uint256",
          "name": "rewardFund",
          "type": "uint256"
        }
      ],
      "stateMutability": "view",
      "type": "function"
    },
    {
      "inputs": [
        {
          "internalType": "uint256",
          "name": "concatenated",
          "type": "uint256"
        }
      ],
      "name": "splitLotsArrayElement",
      "outputs": [
        {
          "internalType": "uint256",
          "name": "frameKey",
          "type": "uint256"
        },
        {
          "internalType": "uint256",
          "name": "lotKey",
          "type": "uint256"
        }
      ],
      "stateMutability": "pure",
      "type": "function"
    }
  ],
  "bytecode": "0x608060405234801561001057600080fd5b50613f61806100206000396000f3fe608060405234801561001057600080fd5b506004361061010b5760003560e01c8063ae370f6d116100a2578063dbd20a8811610071578063dbd20a8814610270578063de73259514610290578063f2580f26146102a3578063f6eb9ee7146102b6578063f91cbebe146102c957600080fd5b8063ae370f6d14610202578063c1d013951461022a578063d00d7b191461023d578063da4e85561461025d57600080fd5b8063612d8b50116100de578063612d8b501461019b57806371b08d89146101bc5780637f424a37146101cf5780639291178e146101ef57600080fd5b8063281e8068146101105780632c79854f1461013a5780633191b50e1461015b5780634314b84f1461017b575b600080fd5b61012361011e36600461364a565b6102dc565b604051610131929190613792565b60405180910390f35b61014d6101483660046137b4565b610c67565b604051908152602001610131565b61016e6101693660046137b4565b610d00565b60405161013191906138ea565b61018e6101893660046137b4565b610f68565b60405161013191906138fd565b6101ae6101a9366004613910565b611135565b604051610131929190613954565b6101236101ca36600461364a565b6114ab565b6101e26101dd366004613967565b611d66565b6040516101319190613993565b61014d6101fd366004613967565b611e82565b6102156102103660046139a6565b611efd565b60408051928352602083019190915201610131565b61014d6102383660046139bf565b611f27565b61025061024b3660046137b4565b612217565b60405161013191906139fa565b61014d61026b366004613967565b612626565b61028361027e3660046137b4565b612712565b6040516101319190613a0d565b61014d61029e3660046139bf565b6128dc565b61014d6102b1366004613967565b612b43565b6101ae6102c4366004613a20565b612c80565b6101236102d7366004613910565b6131a5565b606060006102eb836001613a8f565b6001600160401b0381111561030257610302613aa2565b60405190808252806020026020018201604052801561035757816020015b61034460405180606001604052806000815260200160008152602001606081525090565b8152602001906001900390816103205790505b50604080516003808252608082019092529193506000916060918391906020820184803683370190505090508b6001600160a01b031663ef78d4fd6040518163ffffffff1660e01b8152600401602060405180830381865afa1580156103c1573d6000803e3d6000fd5b505050506040513d601f19601f820116820180604052508101906103e59190613ab8565b816002815181106103f8576103f8613ad1565b60200260200101818152505060018a116107d957885b8881116107d75760405163bad1265360e01b8152600481018290526001600160a01b038e169063bad1265390602401602060405180830381865afa15801561045a573d6000803e3d6000fd5b505050506040513d601f19601f8201168201806040525081019061047e9190613ae7565b9350600184600481111561049457610494613b08565b036107aa57604051630122bf3160e51b8152600481018290526001600160a01b038e1690632457e62090602401600060405180830381865afa1580156104de573d6000803e3d6000fd5b505050506040513d6000823e601f3d908101601f191682016040526105069190810190613b99565b925060005b83518110156107a8576105388e8386848151811061052b5761052b613ad1565b6020026020010151610f68565b87898151811061054a5761054a613ad1565b602002602001018190525060008e6001600160a01b031663fb0d5e098487858151811061057957610579613ad1565b60200260200101516040518363ffffffff1660e01b81526004016105a7929190918252602082015260400190565b600060405180830381865afa1580156105c4573d6000803e3d6000fd5b505050506040513d6000823e601f3d908101601f191682016040526105ec9190810190613cd2565b905060005b600182516105ff9190613d0e565b811015610793578e6001600160a01b031682828151811061062257610622613ad1565b6020026020010151604001516001600160a01b031603610781576106468a8c613d21565b8560008151811061065957610659613ad1565b60200260200101511015801561069d5750896106768c6001613a8f565b6106809190613d21565b8560008151811061069357610693613ad1565b6020026020010151105b1561073a57888a815181106106b4576106b4613ad1565b602002602001015189866001815181106106d0576106d0613ad1565b6020026020010151815181106106e8576106e8613ad1565b60200260200101819052508460018151811061070657610706613ad1565b6020026020010151600161071a9190613a8f565b8560018151811061072d5761072d613ad1565b6020026020010181815250505b8460008151811061074d5761074d613ad1565b602002602001015160016107619190613a8f565b8560008151811061077457610774613ad1565b6020026020010181815250505b8061078b81613d38565b9150506105f1565b505080806107a090613d38565b91505061050b565b505b816002815181106107bd576107bd613ad1565b6020026020010151816107d09190613a8f565b905061040e565b505b89600214806107e6575089155b15610be457885b888111610be25760405163bad1265360e01b8152600481018290526001600160a01b038e169063bad1265390602401602060405180830381865afa158015610839573d6000803e3d6000fd5b505050506040513d601f19601f8201168201806040525081019061085d9190613ae7565b9350600284600481111561087357610873613b08565b14806108905750600484600481111561088e5761088e613b08565b145b806108ac575060038460048111156108aa576108aa613b08565b145b15610bb557604051630122bf3160e51b8152600481018290526001600160a01b038e1690632457e62090602401600060405180830381865afa1580156108f6573d6000803e3d6000fd5b505050506040513d6000823e601f3d908101601f1916820160405261091e9190810190613b99565b925060005b8351811015610bb3576109438e8386848151811061052b5761052b613ad1565b87898151811061095557610955613ad1565b602002602001018190525060008e6001600160a01b031663fb0d5e098487858151811061098457610984613ad1565b60200260200101516040518363ffffffff1660e01b81526004016109b2929190918252602082015260400190565b600060405180830381865afa1580156109cf573d6000803e3d6000fd5b505050506040513d6000823e601f3d908101601f191682016040526109f79190810190613cd2565b905060005b60018251610a0a9190613d0e565b811015610b9e578e6001600160a01b0316828281518110610a2d57610a2d613ad1565b6020026020010151604001516001600160a01b031603610b8c57610a518a8c613d21565b85600081518110610a6457610a64613ad1565b602002602001015110158015610aa8575089610a818c6001613a8f565b610a8b9190613d21565b85600081518110610a9e57610a9e613ad1565b6020026020010151105b15610b4557888a81518110610abf57610abf613ad1565b60200260200101518986600181518110610adb57610adb613ad1565b602002602001015181518110610af357610af3613ad1565b602002602001018190525084600181518110610b1157610b11613ad1565b60200260200101516001610b259190613a8f565b85600181518110610b3857610b38613ad1565b6020026020010181815250505b84600081518110610b5857610b58613ad1565b60200260200101516001610b6c9190613a8f565b85600081518110610b7f57610b7f613ad1565b6020026020010181815250505b80610b9681613d38565b9150506109fc565b50508080610bab90613d38565b915050610923565b505b81600281518110610bc857610bc8613ad1565b602002602001015181610bdb9190613a8f565b90506107ed565b505b85610bf0886001613a8f565b610bfa9190613d21565b81600081518110610c0d57610c0d613ad1565b60200260200101511115610c5357868682600081518110610c3057610c30613ad1565b6020026020010151610c429190613d67565b610c4c9190613d0e565b9350610c58565b600093505b50505097509795505050505050565b604051630122bf3160e51b81526004810183905260009081906001600160a01b03861690632457e62090602401600060405180830381865afa158015610cb1573d6000803e3d6000fd5b505050506040513d6000823e601f3d908101601f19168201604052610cd99190810190613b99565b9050808381518110610ced57610ced613ad1565b60200260200101519150505b9392505050565b606081831115610d2b5760405162461bcd60e51b8152600401610d2290613d7b565b60405180910390fd5b6000846001600160a01b031663ed320aa86040518163ffffffff1660e01b8152600401602060405180830381865afa158015610d6b573d6000803e3d6000fd5b505050506040513d601f19601f82011682018060405250810190610d8f9190613ab8565b905060008111610de15760405162461bcd60e51b815260206004820152601760248201527f4e6f206672616d657320696e20746865206d61726b65740000000000000000006044820152606401610d22565b838111610e305760405162461bcd60e51b815260206004820152601b60248201527f7374617274496e646578206973206f7574206f6620626f756e647300000000006044820152606401610d22565b82811015610e4657610e43600182613d0e565b92505b610e508484613d0e565b610e5b906001613a8f565b6001600160401b03811115610e7257610e72613aa2565b604051908082528060200260200182016040528015610eab57816020015b610e986135af565b815260200190600190039081610e905790505b509150835b838111610f5f5760405162143a2160e61b8152600481018290526000906001600160a01b0388169063050e884090602401602060405180830381865afa158015610efe573d6000803e3d6000fd5b505050506040513d601f19601f82011682018060405250810190610f229190613ab8565b9050610f2e8782611d66565b848381518110610f4057610f40613ad1565b6020026020010181905250508080610f5790613d38565b915050610eb0565b50509392505050565b610f8c60405180606001604052806000815260200160008152602001606081525090565b610fb060405180606001604052806000815260200160008152602001606081525090565b8381526020810183905260405163fb0d5e0960e01b815260048101859052602481018490526000906001600160a01b0387169063fb0d5e0990604401600060405180830381865afa158015611009573d6000803e3d6000fd5b505050506040513d6000823e601f3d908101601f191682016040526110319190810190613cd2565b905080516000036110785760408051600180825281830190925290816020015b6110596135fd565b8152602001906001900390816110515750506040830152509050610cf9565b80516001600160401b0381111561109157611091613aa2565b6040519080825280602002602001820160405280156110ca57816020015b6110b76135fd565b8152602001906001900390816110af5790505b50604083015260005b815181101561112a578181815181106110ee576110ee613ad1565b60200260200101518360400151828151811061110c5761110c613ad1565b6020026020010181905250808061112290613d38565b9150506110d3565b509095945050505050565b60606000826001600160401b0381111561115157611151613aa2565b60405190808252806020026020018201604052801561118a57816020015b6111776135af565b81526020019060019003908161116f5790505b5091506111956135af565b6040805160038082526080820190925260009160208201606080368337019050509050886001600160a01b031663ef78d4fd6040518163ffffffff1660e01b8152600401602060405180830381865afa1580156111f6573d6000803e3d6000fd5b505050506040513d601f19601f8201168201806040525081019061121a9190613ab8565b8160028151811061122d5761122d613ad1565b6020908102919091010152875b87811161142a5761124b8a82611d66565b92506000835160405163bad1265360e01b815260048101919091526001600160a01b038c169063bad1265390602401602060405180830381865afa158015611297573d6000803e3d6000fd5b505050506040513d601f19601f820116820180604052508101906112bb9190613ae7565b60048111156112cc576112cc613b08565b146113fd576112db8688613d21565b826000815181106112ee576112ee613ad1565b60200260200101511015801561133257508561130b886001613a8f565b6113159190613d21565b8260008151811061132857611328613ad1565b6020026020010151105b156113b65782858360018151811061134c5761134c613ad1565b60200260200101518151811061136457611364613ad1565b60200260200101819052508160018151811061138257611382613ad1565b602002602001015160016113969190613a8f565b826001815181106113a9576113a9613ad1565b6020026020010181815250505b816000815181106113c9576113c9613ad1565b602002602001015160016113dd9190613a8f565b826000815181106113f0576113f0613ad1565b6020026020010181815250505b8160028151811061141057611410613ad1565b6020026020010151816114239190613a8f565b905061123a565b5084611437876001613a8f565b6114419190613d21565b8160008151811061145457611454613ad1565b6020026020010151111561149a5785858260008151811061147757611477613ad1565b60200260200101516114899190613d67565b6114939190613d0e565b925061149f565b600092505b50509550959350505050565b606060006114ba836001613a8f565b6001600160401b038111156114d1576114d1613aa2565b60405190808252806020026020018201604052801561152657816020015b61151360405180606001604052806000815260200160008152602001606081525090565b8152602001906001900390816114ef5790505b50604080516003808252608082019092529193506000916060918391906020820184803683370190505090508b6001600160a01b031663ef78d4fd6040518163ffffffff1660e01b8152600401602060405180830381865afa158015611590573d6000803e3d6000fd5b505050506040513d601f19601f820116820180604052508101906115b49190613ab8565b816002815181106115c7576115c7613ad1565b60200260200101818152505060018a1161197c57885b88811161197a5760405163bad1265360e01b8152600481018290526001600160a01b038e169063bad1265390602401602060405180830381865afa158015611629573d6000803e3d6000fd5b505050506040513d601f19601f8201168201806040525081019061164d9190613ae7565b9350600184600481111561166357611663613b08565b0361194d57604051630122bf3160e51b8152600481018290526001600160a01b038e1690632457e62090602401600060405180830381865afa1580156116ad573d6000803e3d6000fd5b505050506040513d6000823e601f3d908101601f191682016040526116d59190810190613b99565b925060005b835181101561194b576116fa8e8386848151811061052b5761052b613ad1565b87898151811061170c5761170c613ad1565b602002602001018190525060008e6001600160a01b031663fb0d5e098487858151811061173b5761173b613ad1565b60200260200101516040518363ffffffff1660e01b8152600401611769929190918252602082015260400190565b600060405180830381865afa158015611786573d6000803e3d6000fd5b505050506040513d6000823e601f3d908101601f191682016040526117ae9190810190613cd2565b90508d6001600160a01b031681600183516117c99190613d0e565b815181106117d9576117d9613ad1565b6020026020010151604001516001600160a01b031603611938576117fd898b613d21565b8460008151811061181057611810613ad1565b60200260200101511015801561185457508861182d8b6001613a8f565b6118379190613d21565b8460008151811061184a5761184a613ad1565b6020026020010151105b156118f15787898151811061186b5761186b613ad1565b6020026020010151888560018151811061188757611887613ad1565b60200260200101518151811061189f5761189f613ad1565b6020026020010181905250836001815181106118bd576118bd613ad1565b602002602001015160016118d19190613a8f565b846001815181106118e4576118e4613ad1565b6020026020010181815250505b8360008151811061190457611904613ad1565b602002602001015160016119189190613a8f565b8460008151811061192b5761192b613ad1565b6020026020010181815250505b508061194381613d38565b9150506116da565b505b8160028151811061196057611960613ad1565b6020026020010151816119739190613a8f565b90506115dd565b505b8960021480611989575089155b15610be457885b888111610be25760405163bad1265360e01b8152600481018290526001600160a01b038e169063bad1265390602401602060405180830381865afa1580156119dc573d6000803e3d6000fd5b505050506040513d601f19601f82011682018060405250810190611a009190613ae7565b93506002846004811115611a1657611a16613b08565b1480611a3357506004846004811115611a3157611a31613b08565b145b80611a4f57506003846004811115611a4d57611a4d613b08565b145b15611d3957604051630122bf3160e51b8152600481018290526001600160a01b038e1690632457e62090602401600060405180830381865afa158015611a99573d6000803e3d6000fd5b505050506040513d6000823e601f3d908101601f19168201604052611ac19190810190613b99565b925060005b8351811015611d3757611ae68e8386848151811061052b5761052b613ad1565b878981518110611af857611af8613ad1565b602002602001018190525060008e6001600160a01b031663fb0d5e0984878581518110611b2757611b27613ad1565b60200260200101516040518363ffffffff1660e01b8152600401611b55929190918252602082015260400190565b600060405180830381865afa158015611b72573d6000803e3d6000fd5b505050506040513d6000823e601f3d908101601f19168201604052611b9a9190810190613cd2565b90508d6001600160a01b03168160018351611bb59190613d0e565b81518110611bc557611bc5613ad1565b6020026020010151604001516001600160a01b031603611d2457611be9898b613d21565b84600081518110611bfc57611bfc613ad1565b602002602001015110158015611c40575088611c198b6001613a8f565b611c239190613d21565b84600081518110611c3657611c36613ad1565b6020026020010151105b15611cdd57878981518110611c5757611c57613ad1565b60200260200101518885600181518110611c7357611c73613ad1565b602002602001015181518110611c8b57611c8b613ad1565b602002602001018190525083600181518110611ca957611ca9613ad1565b60200260200101516001611cbd9190613a8f565b84600181518110611cd057611cd0613ad1565b6020026020010181815250505b83600081518110611cf057611cf0613ad1565b60200260200101516001611d049190613a8f565b84600081518110611d1757611d17613ad1565b6020026020010181815250505b5080611d2f81613d38565b915050611ac6565b505b81600281518110611d4c57611d4c613ad1565b602002602001015181611d5f9190613a8f565b9050611990565b611d6e6135af565b611d766135af565b604051632840d02f60e21b8152600481018490526001600160a01b0385169063a10340bc9060240160e060405180830381865afa158015611dbb573d6000803e3d6000fd5b505050506040513d601f19601f82011682018060405250810190611ddf9190613dca565b60e088015260c087015260a086015260808501526001600160a01b0390811660608501526020840191909152908252604051630122bf3160e51b81526004810185905290851690632457e62090602401600060405180830381865afa158015611e4c573d6000803e3d6000fd5b505050506040513d6000823e601f3d908101601f19168201604052611e749190810190613b99565b604082015290505b92915050565b604051630122bf3160e51b81526004810182905260009081906001600160a01b03851690632457e62090602401600060405180830381865afa158015611ecc573d6000803e3d6000fd5b505050506040513d6000823e601f3d908101601f19168201604052611ef49190810190613b99565b51949350505050565b600080611f0f6402540be40084613e2a565b9150611f206402540be40084613d67565b9050915091565b6040516361eee2cb60e01b81526004810184905260009081906001600160a01b038716906361eee2cb90602401602060405180830381865afa158015611f71573d6000803e3d6000fd5b505050506040513d601f19601f82011682018060405250810190611f959190613ab8565b6040516361eee2cb60e01b81524260048201529091506001600160a01b038716906361eee2cb90602401602060405180830381865afa158015611fdc573d6000803e3d6000fd5b505050506040513d601f19601f820116820180604052508101906120009190613ab8565b81101561204f5760405162461bcd60e51b815260206004820152601b60248201527f54484953204c4f5420495320494e20412050415354204652414d4500000000006044820152606401610d22565b6000806120c688848a6001600160a01b0316639592de188a6040518263ffffffff1660e01b815260040161208591815260200190565b602060405180830381865afa1580156120a2573d6000803e3d6000fd5b505050506040513d601f19601f820116820180604052508101906101899190613ab8565b60408101518051919250906120dd90600190613d0e565b815181106120ed576120ed613ad1565b60200260200101516060015191506000886001600160a01b031663e107fb4f85856040518363ffffffff1660e01b8152600401612134929190918252602082015260400190565b602060405180830381865afa158015612151573d6000803e3d6000fd5b505050506040513d601f19601f820116820180604052508101906121759190613ab8565b60405163e107fb4f60e01b815260048101869052602481018890529091506000906001600160a01b038b169063e107fb4f90604401602060405180830381865afa1580156121c7573d6000803e3d6000fd5b505050506040513d601f19601f820116820180604052508101906121eb9190613ab8565b90508082106121fd576000955061220a565b6122078282613d0e565b95505b5050505050949350505050565b6060818311156122395760405162461bcd60e51b8152600401610d2290613d7b565b6000846001600160a01b031663197c4e786040518163ffffffff1660e01b8152600401602060405180830381865afa158015612279573d6000803e3d6000fd5b505050506040513d601f19601f8201168201806040525081019061229d9190613ab8565b9050600081116122e75760405162461bcd60e51b8152602060048201526015602482015274139bc81b1bdd1cc81a5b881d1a19481b585c9ad95d605a1b6044820152606401610d22565b6000816001600160401b0381111561230157612301613aa2565b60405190808252806020026020018201604052801561232a578160200160208202803683370190505b509050856001600160a01b031663c0423f2e6040518163ffffffff1660e01b8152600401600060405180830381865afa15801561236b573d6000803e3d6000fd5b505050506040513d6000823e601f3d908101601f191682016040526123939190810190613b99565b90508185106123e45760405162461bcd60e51b815260206004820152601b60248201527f7374617274496e646578206973206f7574206f6620626f756e647300000000006044820152606401610d22565b8184106123f9576123f6600183613d0e565b93505b6124038585613d0e565b61240e906001613a8f565b6001600160401b0381111561242557612425613aa2565b60405190808252806020026020018201604052801561247a57816020015b61246760405180606001604052806000815260200160008152602001606081525090565b8152602001906001900390816124435790505b509250845b84811161261c576000806124d760405180604001604052806013815260200172029a7a61d103637ba39a0b93930bcadb4ae9d1606d1b8152508585815181106124ca576124ca613ad1565b6020026020010151613539565b6124f98484815181106124ec576124ec613ad1565b6020026020010151611efd565b60408051808201909152600f81526e029a7a61d10333930b6b2a5b2bc9d1608d1b6020820152919350915061252e9083613539565b61255d6040518060400160405280600d81526020016c029a7a61d103637ba25b2bc9d1609d1b81525082613539565b604051636f1aefc360e01b815260048101839052602481018290526000906001600160a01b038b1690636f1aefc390604401600060405180830381865afa1580156125ac573d6000803e3d6000fd5b505050506040513d6000823e601f3d908101601f191682016040526125d49190810190613e3e565b90506125e98a82600001518360200151610f68565b8785815181106125fb576125fb613ad1565b6020026020010181905250505050808061261490613d38565b91505061247f565b5050509392505050565b6040516339a6a48960e01b81526004810182905260009081906001600160a01b038516906339a6a48990602401602060405180830381865afa158015612670573d6000803e3d6000fd5b505050506040513d601f19601f820116820180604052508101906126949190613ab8565b90506000846001600160a01b031663527eb4bc6040518163ffffffff1660e01b8152600401602060405180830381865afa1580156126d6573d6000803e3d6000fd5b505050506040513d601f19601f820116820180604052508101906126fa9190613ab8565b905060006127088284613d0e565b9695505050505050565b6060816001600160401b0381111561272c5761272c613aa2565b604051908082528060200260200182016040528015612755578160200160208202803683370190505b50905060006127626135af565b60005b84811161261c57600081886001600160a01b031663ef78d4fd6040518163ffffffff1660e01b8152600401602060405180830381865afa1580156127ad573d6000803e3d6000fd5b505050506040513d601f19601f820116820180604052508101906127d19190613ab8565b6127db9190613d21565b6127e59088613a8f565b90506127f18882611d66565b805160405163bad1265360e01b815260048101919091529093506000906001600160a01b038a169063bad1265390602401602060405180830381865afa15801561283f573d6000803e3d6000fd5b505050506040513d601f19601f820116820180604052508101906128639190613ae7565b9050600181600481111561287957612879613b08565b14806128965750600381600481111561289457612894613b08565b145b156128c757818686815181106128ae576128ae613ad1565b6020908102919091010152846128c381613d38565b9550505b505080806128d490613d38565b915050612765565b6040516361eee2cb60e01b81526004810184905260009081906001600160a01b038716906361eee2cb90602401602060405180830381865afa158015612926573d6000803e3d6000fd5b505050506040513d601f19601f8201168201806040525081019061294a9190613ab8565b905042866001600160a01b031663ef78d4fd6040518163ffffffff1660e01b8152600401602060405180830381865afa15801561298b573d6000803e3d6000fd5b505050506040513d601f19601f820116820180604052508101906129af9190613ab8565b6129b99083613a8f565b1015612a075760405162461bcd60e51b815260206004820152601d60248201527f4672616d652068617320746f20626520696e20746865206675747572650000006044820152606401610d22565b6040516312b25bc360e31b8152600481018590526000906001600160a01b03881690639592de1890602401602060405180830381865afa158015612a4f573d6000803e3d6000fd5b505050506040513d601f19601f82011682018060405250810190612a739190613ab8565b60405163e107fb4f60e01b815260048101849052602481018690529091506000906001600160a01b0389169063e107fb4f90604401602060405180830381865afa158015612ac5573d6000803e3d6000fd5b505050506040513d601f19601f82011682018060405250810190612ae99190613ab8565b90506000612af8898585610f68565b604081015180519192508391612b1090600190613d0e565b81518110612b2057612b20613ad1565b602002602001015160600151612b369190613a8f565b9998505050505050505050565b600080612b508484611d66565b604051634a00521f60e01b8152600481018590529091506000906001600160a01b03861690634a00521f90602401602060405180830381865afa158015612b9b573d6000803e3d6000fd5b505050506040513d601f19601f82011682018060405250810190612bbf9190613ab8565b90508015612c70576000612c46866001600160a01b03811663050e8840612be7600187613d0e565b6040518263ffffffff1660e01b8152600401612c0591815260200190565b602060405180830381865afa158015612c22573d6000803e3d6000fd5b505050506040513d601f19601f820116820180604052508101906101dd9190613ab8565b90508260e0015160028260e00151612c5e9190613d67565b612c689190613a8f565b935050612c78565b8160e0015192505b505092915050565b60606000826001600160401b03811115612c9c57612c9c613aa2565b604051908082528060200260200182016040528015612cd557816020015b612cc26135af565b815260200190600190039081612cba5790505b5060408051600480825260a08201909252919350600091829160208201608080368337019050509050896001600160a01b031663ef78d4fd6040518163ffffffff1660e01b8152600401602060405180830381865afa158015612d3c573d6000803e3d6000fd5b505050506040513d601f19601f82011682018060405250810190612d609190613ab8565b81600281518110612d7357612d73613ad1565b60209081029190910101526060885b8881116131225760405163bad1265360e01b8152600481018290526001600160a01b038d169063bad1265390602401602060405180830381865afa158015612dce573d6000803e3d6000fd5b505050506040513d601f19601f82011682018060405250810190612df29190613ae7565b93506000846004811115612e0857612e08613b08565b146130f557604051630122bf3160e51b8152600481018290526001600160a01b038d1690632457e62090602401600060405180830381865afa158015612e52573d6000803e3d6000fd5b505050506040513d6000823e601f3d908101601f19168201604052612e7a9190810190613b99565b915060005b82518110156130f35760008d6001600160a01b031663fb0d5e0984868581518110612eac57612eac613ad1565b60200260200101516040518363ffffffff1660e01b8152600401612eda929190918252602082015260400190565b600060405180830381865afa158015612ef7573d6000803e3d6000fd5b505050506040513d6000823e601f3d908101601f19168201604052612f1f9190810190613cd2565b90508c6001600160a01b03168160018351612f3a9190613d0e565b81518110612f4a57612f4a613ad1565b6020026020010151604001516001600160a01b0316148015612f8657508285600381518110612f7b57612f7b613ad1565b602002602001015114155b156130e057612f95898b613d21565b85600081518110612fa857612fa8613ad1565b602002602001015110158015612fec575088612fc58b6001613a8f565b612fcf9190613d21565b85600081518110612fe257612fe2613ad1565b6020026020010151105b1561307957612ffb8e84611d66565b888660018151811061300f5761300f613ad1565b60200260200101518151811061302757613027613ad1565b60200260200101819052508460018151811061304557613045613ad1565b602002602001015160016130599190613a8f565b8560018151811061306c5761306c613ad1565b6020026020010181815250505b8460008151811061308c5761308c613ad1565b602002602001015160016130a09190613a8f565b856000815181106130b3576130b3613ad1565b60200260200101818152505082856003815181106130d3576130d3613ad1565b6020026020010181815250505b50806130eb81613d38565b915050612e7f565b505b8260028151811061310857613108613ad1565b60200260200101518161311b9190613a8f565b9050612d82565b508561312f886001613a8f565b6131399190613d21565b8260008151811061314c5761314c613ad1565b602002602001015111156131925786868360008151811061316f5761316f613ad1565b60200260200101516131819190613d67565b61318b9190613d0e565b9350613197565b600093505b505050965096945050505050565b606060008486111561321f5760405162461bcd60e51b815260206004820152603760248201527f6672616d654b65795f7374617274206d75737420626520736d616c6c6572206f60448201527f7220657175616c20746f206672616d654b65795f656e640000000000000000006064820152608401610d22565b826001600160401b0381111561323757613237613aa2565b60405190808252806020026020018201604052801561328c57816020015b61327960405180606001604052806000815260200160008152602001606081525090565b8152602001906001900390816132555790505b5060408051600380825260808201909252919350606091600091602082018480368337019050509050886001600160a01b031663ef78d4fd6040518163ffffffff1660e01b8152600401602060405180830381865afa1580156132f3573d6000803e3d6000fd5b505050506040513d601f19601f820116820180604052508101906133179190613ab8565b8160028151811061332a5761332a613ad1565b6020908102919091010152875b87811161142a57604051630122bf3160e51b8152600481018290526001600160a01b038b1690632457e62090602401600060405180830381865afa158015613383573d6000803e3d6000fd5b505050506040513d6000823e601f3d908101601f191682016040526133ab9190810190613b99565b925060005b835181101561350b576133c38789613d21565b836000815181106133d6576133d6613ad1565b60200260200101511015801561341a5750866133f3896001613a8f565b6133fd9190613d21565b8360008151811061341057613410613ad1565b6020026020010151105b156134b4576134368b8386848151811061052b5761052b613ad1565b868460018151811061344a5761344a613ad1565b60200260200101518151811061346257613462613ad1565b60200260200101819052508260018151811061348057613480613ad1565b602002602001015160016134949190613a8f565b836001815181106134a7576134a7613ad1565b6020026020010181815250505b826000815181106134c7576134c7613ad1565b602002602001015160016134db9190613a8f565b836000815181106134ee576134ee613ad1565b60209081029190910101528061350381613d38565b9150506133b0565b508160028151811061351f5761351f613ad1565b6020026020010151816135329190613a8f565b9050613337565b61357e828260405160240161354f929190613ed6565b60408051601f198184030181529190526020810180516001600160e01b0316632d839cb360e21b179052613582565b5050565b61358b8161358e565b50565b60006a636f6e736f6c652e6c6f679050600080835160208501845afa505050565b60405180610100016040528060008152602001600081526020016060815260200160006001600160a01b03168152602001600081526020016000815260200160008152602001600081525090565b6040518060a00160405280600081526020016000815260200160006001600160a01b0316815260200160008152602001600081525090565b6001600160a01b038116811461358b57600080fd5b600080600080600080600060e0888a03121561366557600080fd5b873561367081613635565b9650602088013561368081613635565b96999698505050506040850135946060810135946080820135945060a0820135935060c0909101359150565b600060608084018351855260208085015181870152604080860151848289015283815180865260809550858a019150848301925060005b8181101561372b578351805184528681015187850152858101516001600160a01b0316868501528881015189850152870151878401529285019260a0909201916001016136e3565b50909998505050505050505050565b600082825180855260208086019550808260051b84010181860160005b8481101561378557601f198684030189526137738383516136ac565b98840198925090830190600101613757565b5090979650505050505050565b6040815260006137a5604083018561373a565b90508260208301529392505050565b6000806000606084860312156137c957600080fd5b83356137d481613635565b95602085013595506040909401359392505050565b600081518084526020808501945080840160005b83811015613819578151875295820195908201906001016137fd565b509495945050505050565b60006101008251845260208301516020850152604083015181604086015261384e828601826137e9565b91505060018060a01b0360608401511660608501526080830151608085015260a083015160a085015260c083015160c085015260e083015160e08501528091505092915050565b600081518084526020808501808196508360051b8101915082860160005b858110156138dd5782840389526138cb848351613824565b988501989350908401906001016138b3565b5091979650505050505050565b602081526000610cf96020830184613895565b602081526000610cf960208301846136ac565b600080600080600060a0868803121561392857600080fd5b853561393381613635565b97602087013597506040870135966060810135965060800135945092505050565b6040815260006137a56040830185613895565b6000806040838503121561397a57600080fd5b823561398581613635565b946020939093013593505050565b602081526000610cf96020830184613824565b6000602082840312156139b857600080fd5b5035919050565b600080600080608085870312156139d557600080fd5b84356139e081613635565b966020860135965060408601359560600135945092505050565b602081526000610cf9602083018461373a565b602081526000610cf960208301846137e9565b60008060008060008060c08789031215613a3957600080fd5b8635613a4481613635565b95506020870135613a5481613635565b95989597505050506040840135936060810135936080820135935060a0909101359150565b634e487b7160e01b600052601160045260246000fd5b80820180821115611e7c57611e7c613a79565b634e487b7160e01b600052604160045260246000fd5b600060208284031215613aca57600080fd5b5051919050565b634e487b7160e01b600052603260045260246000fd5b600060208284031215613af957600080fd5b815160058110610cf957600080fd5b634e487b7160e01b600052602160045260246000fd5b60405160a081016001600160401b0381118282101715613b4057613b40613aa2565b60405290565b604051601f8201601f191681016001600160401b0381118282101715613b6e57613b6e613aa2565b604052919050565b60006001600160401b03821115613b8f57613b8f613aa2565b5060051b60200190565b60006020808385031215613bac57600080fd5b82516001600160401b03811115613bc257600080fd5b8301601f81018513613bd357600080fd5b8051613be6613be182613b76565b613b46565b81815260059190911b82018301908381019087831115613c0557600080fd5b928401925b82841015613c2357835182529284019290840190613c0a565b979650505050505050565b600082601f830112613c3f57600080fd5b81516020613c4f613be183613b76565b82815260a09283028501820192828201919087851115613c6e57600080fd5b8387015b858110156137855781818a031215613c8a5760008081fd5b613c92613b1e565b815181528582015186820152604080830151613cad81613635565b9082015260608281015190820152608080830151908201528452928401928101613c72565b600060208284031215613ce457600080fd5b81516001600160401b03811115613cfa57600080fd5b613d0684828501613c2e565b949350505050565b81810381811115611e7c57611e7c613a79565b8082028115828204841417611e7c57611e7c613a79565b600060018201613d4a57613d4a613a79565b5060010190565b634e487b7160e01b600052601260045260246000fd5b600082613d7657613d76613d51565b500490565b6020808252602f908201527f7374617274496e646578206d75737420626520736d616c6c6572206f7220657160408201526e0eac2d840e8de40cadcc892dcc8caf608b1b606082015260800190565b600080600080600080600060e0888a031215613de557600080fd5b87519650602088015195506040880151613dfe81613635565b80955050606088015193506080880151925060a0880151915060c0880151905092959891949750929550565b600082613e3957613e39613d51565b500690565b600060208284031215613e5057600080fd5b81516001600160401b0380821115613e6757600080fd5b9083019060608286031215613e7b57600080fd5b604051606081018181108382111715613e9657613e96613aa2565b80604052508251815260208301516020820152604083015182811115613ebb57600080fd5b613ec787828601613c2e565b60408301525095945050505050565b604081526000835180604084015260005b81811015613f045760208187018101516060868401015201613ee7565b506000606082850101526060601f19601f830116840101915050826020830152939250505056fea2646970667358221220072529d97048b34babba794b574a76724da91c7a5455624522dc1b010932a31b64736f6c63430008140033",
  "linkReferences": {},
  "deployedLinkReferences": {}
}