{
  "_format": "hh-sol-artifact-1",
  "contractName": "MarketGetter",
  "sourceName": "contracts/MarketGetter.sol",
  "abi": [
    {
      "inputs": [
        {
          "internalType": "contract Market",
          "name": "market",
          "type": "address"
        },
        {
          "internalType": "uint256",
          "name": "timestamp",
          "type": "uint256"
        },
        {
          "internalType": "uint256",
          "name": "pairPrice",
          "type": "uint256"
        },
        {
          "internalType": "uint256",
          "name": "acqPrice",
          "type": "uint256"
        }
      ],
      "name": "clcAmountToApprove",
      "outputs": [
        {
          "internalType": "uint256",
          "name": "cmpltAmnt",
          "type": "uint256"
        }
      ],
      "stateMutability": "view",
      "type": "function"
    },
    {
      "inputs": [
        {
          "internalType": "contract Market",
          "name": "market",
          "type": "address"
        },
        {
          "internalType": "uint256",
          "name": "timestamp",
          "type": "uint256"
        },
        {
          "internalType": "uint256",
          "name": "pairPrice",
          "type": "uint256"
        },
        {
          "internalType": "uint256",
          "name": "acqPrice",
          "type": "uint256"
        }
      ],
      "name": "clcAmountToApproveForUpdate",
      "outputs": [
        {
          "internalType": "uint256",
          "name": "amnt",
          "type": "uint256"
        }
      ],
      "stateMutability": "view",
      "type": "function"
    },
    {
      "inputs": [
        {
          "internalType": "contract Market",
          "name": "market",
          "type": "address"
        },
        {
          "internalType": "uint256",
          "name": "frameKey",
          "type": "uint256"
        }
      ],
      "name": "clcPrice",
      "outputs": [
        {
          "internalType": "uint256",
          "name": "avgPrice",
          "type": "uint256"
        }
      ],
      "stateMutability": "view",
      "type": "function"
    },
    {
      "inputs": [
        {
          "internalType": "contract Market",
          "name": "market",
          "type": "address"
        },
        {
          "internalType": "uint256",
          "name": "frameKey",
          "type": "uint256"
        }
      ],
      "name": "getFrameStruct",
      "outputs": [
        {
          "components": [
            {
              "internalType": "uint256",
              "name": "frameKey",
              "type": "uint256"
            },
            {
              "internalType": "uint256",
              "name": "oracleTimestampStart",
              "type": "uint256"
            },
            {
              "internalType": "uint256",
              "name": "oracleTimestampEnd",
              "type": "uint256"
            },
            {
              "internalType": "uint256",
              "name": "rewardFund",
              "type": "uint256"
            },
            {
              "internalType": "uint256",
              "name": "priceAverage",
              "type": "uint256"
            },
            {
              "internalType": "uint256",
              "name": "oraclePrice0CumulativeStart",
              "type": "uint256"
            },
            {
              "internalType": "uint256",
              "name": "oraclePrice0CumulativeEnd",
              "type": "uint256"
            },
            {
              "internalType": "uint256",
              "name": "oraclePrice1CumulativeStart",
              "type": "uint256"
            },
            {
              "internalType": "uint256",
              "name": "oraclePrice1CumulativeEnd",
              "type": "uint256"
            },
            {
              "internalType": "enum MLib.SFrame",
              "name": "state",
              "type": "uint8"
            },
            {
              "internalType": "uint256[]",
              "name": "lotKeys",
              "type": "uint256[]"
            }
          ],
          "internalType": "struct MLib.Frame",
          "name": "",
          "type": "tuple"
        }
      ],
      "stateMutability": "view",
      "type": "function"
    },
    {
      "inputs": [
        {
          "internalType": "contract Market",
          "name": "market",
          "type": "address"
        },
        {
          "internalType": "uint256",
          "name": "frameKey_start",
          "type": "uint256"
        },
        {
          "internalType": "uint256",
          "name": "frameKey_end",
          "type": "uint256"
        },
        {
          "internalType": "uint256",
          "name": "page",
          "type": "uint256"
        },
        {
          "internalType": "uint256",
          "name": "perPage",
          "type": "uint256"
        }
      ],
      "name": "getFrames",
      "outputs": [
        {
          "components": [
            {
              "internalType": "uint256",
              "name": "frameKey",
              "type": "uint256"
            },
            {
              "internalType": "uint256",
              "name": "oracleTimestampStart",
              "type": "uint256"
            },
            {
              "internalType": "uint256",
              "name": "oracleTimestampEnd",
              "type": "uint256"
            },
            {
              "internalType": "uint256",
              "name": "rewardFund",
              "type": "uint256"
            },
            {
              "internalType": "uint256",
              "name": "priceAverage",
              "type": "uint256"
            },
            {
              "internalType": "uint256",
              "name": "oraclePrice0CumulativeStart",
              "type": "uint256"
            },
            {
              "internalType": "uint256",
              "name": "oraclePrice0CumulativeEnd",
              "type": "uint256"
            },
            {
              "internalType": "uint256",
              "name": "oraclePrice1CumulativeStart",
              "type": "uint256"
            },
            {
              "internalType": "uint256",
              "name": "oraclePrice1CumulativeEnd",
              "type": "uint256"
            },
            {
              "internalType": "enum MLib.SFrame",
              "name": "state",
              "type": "uint8"
            },
            {
              "internalType": "uint256[]",
              "name": "lotKeys",
              "type": "uint256[]"
            }
          ],
          "internalType": "struct MLib.Frame[]",
          "name": "frames",
          "type": "tuple[]"
        },
        {
          "internalType": "uint256",
          "name": "pagesLeft",
          "type": "uint256"
        }
      ],
      "stateMutability": "view",
      "type": "function"
    },
    {
      "inputs": [
        {
          "internalType": "contract Market",
          "name": "market",
          "type": "address"
        },
        {
          "internalType": "uint256",
          "name": "frameKey",
          "type": "uint256"
        },
        {
          "internalType": "uint256",
          "name": "index",
          "type": "uint256"
        }
      ],
      "name": "getLotKey",
      "outputs": [
        {
          "internalType": "uint256",
          "name": "",
          "type": "uint256"
        }
      ],
      "stateMutability": "view",
      "type": "function"
    },
    {
      "inputs": [
        {
          "internalType": "contract Market",
          "name": "market",
          "type": "address"
        },
        {
          "internalType": "uint256",
          "name": "frameKey",
          "type": "uint256"
        },
        {
          "internalType": "uint256",
          "name": "lotKey",
          "type": "uint256"
        }
      ],
      "name": "getLotStruct",
      "outputs": [
        {
          "components": [
            {
              "internalType": "uint256",
              "name": "frameKey",
              "type": "uint256"
            },
            {
              "internalType": "uint256",
              "name": "lotKey",
              "type": "uint256"
            },
            {
              "internalType": "address",
              "name": "lotOwner",
              "type": "address"
            },
            {
              "internalType": "uint256",
              "name": "acquisitionPrice",
              "type": "uint256"
            },
            {
              "internalType": "enum MLib.SLot",
              "name": "state",
              "type": "uint8"
            }
          ],
          "internalType": "struct MLib.Lot",
          "name": "",
          "type": "tuple"
        }
      ],
      "stateMutability": "view",
      "type": "function"
    },
    {
      "inputs": [
        {
          "internalType": "contract Market",
          "name": "market",
          "type": "address"
        },
        {
          "internalType": "uint256",
          "name": "frameKey",
          "type": "uint256"
        }
      ],
      "name": "getLotsCount",
      "outputs": [
        {
          "internalType": "uint256",
          "name": "",
          "type": "uint256"
        }
      ],
      "stateMutability": "view",
      "type": "function"
    },
    {
      "inputs": [
        {
          "internalType": "contract Market",
          "name": "market",
          "type": "address"
        },
        {
          "internalType": "address",
          "name": "user",
          "type": "address"
        },
        {
          "internalType": "uint256",
          "name": "mode",
          "type": "uint256"
        },
        {
          "internalType": "uint256",
          "name": "frameKey_start",
          "type": "uint256"
        },
        {
          "internalType": "uint256",
          "name": "frameKey_end",
          "type": "uint256"
        },
        {
          "internalType": "uint256",
          "name": "page",
          "type": "uint256"
        },
        {
          "internalType": "uint256",
          "name": "perPage",
          "type": "uint256"
        }
      ],
      "name": "getLotsUser",
      "outputs": [
        {
          "components": [
            {
              "internalType": "uint256",
              "name": "frameKey",
              "type": "uint256"
            },
            {
              "internalType": "uint256",
              "name": "lotKey",
              "type": "uint256"
            },
            {
              "internalType": "address",
              "name": "lotOwner",
              "type": "address"
            },
            {
              "internalType": "uint256",
              "name": "acquisitionPrice",
              "type": "uint256"
            },
            {
              "internalType": "enum MLib.SLot",
              "name": "state",
              "type": "uint8"
            }
          ],
          "internalType": "struct MLib.Lot[]",
          "name": "userLots",
          "type": "tuple[]"
        },
        {
          "internalType": "uint256",
          "name": "pagesLeft",
          "type": "uint256"
        }
      ],
      "stateMutability": "view",
      "type": "function"
    },
    {
      "inputs": [
        {
          "internalType": "contract Market",
          "name": "market",
          "type": "address"
        },
        {
          "internalType": "address",
          "name": "user",
          "type": "address"
        }
      ],
      "name": "getNumOfUserFrames",
      "outputs": [
        {
          "internalType": "uint256",
          "name": "",
          "type": "uint256"
        }
      ],
      "stateMutability": "view",
      "type": "function"
    },
    {
      "inputs": [
        {
          "internalType": "contract Market",
          "name": "market",
          "type": "address"
        },
        {
          "internalType": "uint256",
          "name": "startFrame",
          "type": "uint256"
        },
        {
          "internalType": "uint256",
          "name": "numOfFrames",
          "type": "uint256"
        }
      ],
      "name": "getOpenFrameKeys",
      "outputs": [
        {
          "internalType": "uint256[]",
          "name": "openFrames",
          "type": "uint256[]"
        }
      ],
      "stateMutability": "view",
      "type": "function"
    },
    {
      "inputs": [
        {
          "internalType": "contract Market",
          "name": "market",
          "type": "address"
        },
        {
          "internalType": "address",
          "name": "user",
          "type": "address"
        }
      ],
      "name": "getUserFrames",
      "outputs": [
        {
          "internalType": "uint256[]",
          "name": "",
          "type": "uint256[]"
        }
      ],
      "stateMutability": "view",
      "type": "function"
    }
  ],
  "bytecode": "0x608060405234801561001057600080fd5b50613ba6806100206000396000f3fe608060405234801561001057600080fd5b50600436106100b45760003560e01c80639291178e116100715780639291178e146101db578063b90953be1461020b578063c1d013951461023b578063dbd20a881461026b578063de7325951461029b578063ee707ed9146102cb576100b4565b80631f021a61146100b95780632c79854f146100e95780634314b84f14610119578063612d8b501461014957806371b08d891461017a5780637f424a37146101ab575b600080fd5b6100d360048036038101906100ce9190612ca8565b6102fb565b6040516100e09190613621565b60405180910390f35b61010360048036038101906100fe9190612dbe565b610393565b60405161011091906136a0565b60405180910390f35b610133600480360381019061012e9190612dbe565b610471565b6040516101409190613685565b60405180910390f35b610163600480360381019061015e9190612e70565b6105e0565b6040516101719291906135c1565b60405180910390f35b610194600480360381019061018f9190612ce4565b610b85565b6040516101a29291906135f1565b60405180910390f35b6101c560048036038101906101c09190612d82565b6119c9565b6040516101d29190613663565b60405180910390f35b6101f560048036038101906101f09190612d82565b611d8c565b60405161020291906136a0565b60405180910390f35b61022560048036038101906102209190612ca8565b611e2a565b60405161023291906136a0565b60405180910390f35b61025560048036038101906102509190612e0d565b611ec8565b60405161026291906136a0565b60405180910390f35b61028560048036038101906102809190612dbe565b61229a565b6040516102929190613621565b60405180910390f35b6102b560048036038101906102b09190612e0d565b6124a4565b6040516102c291906136a0565b60405180910390f35b6102e560048036038101906102e09190612d82565b612746565b6040516102f291906136a0565b60405180910390f35b60608273ffffffffffffffffffffffffffffffffffffffff16639495833c836040518263ffffffff1660e01b815260040161033691906135a6565b60006040518083038186803b15801561034e57600080fd5b505afa158015610362573d6000803e3d6000fd5b505050506040513d6000823e3d601f19601f8201168201806040525081019061038b9190612c3e565b905092915050565b6000808473ffffffffffffffffffffffffffffffffffffffff1663ab02f2a9856040518263ffffffff1660e01b81526004016103cf91906136a0565b60006040518083038186803b1580156103e757600080fd5b505afa1580156103fb573d6000803e3d6000fd5b505050506040513d6000823e3d601f19601f820116820180604052508101906104249190612c3e565b905080838151811061045f577f4e487b7100000000000000000000000000000000000000000000000000000000600052603260045260246000fd5b60200260200101519150509392505050565b6104796129f1565b6104816129f1565b8473ffffffffffffffffffffffffffffffffffffffff1663b93dafa985856040518363ffffffff1660e01b81526004016104bc9291906136bb565b60a06040518083038186803b1580156104d457600080fd5b505afa1580156104e8573d6000803e3d6000fd5b505050506040513d601f19601f8201168201806040525081019061050c9190612f39565b8560000186602001876040018860600189608001856002811115610559577f4e487b7100000000000000000000000000000000000000000000000000000000600052602160045260246000fd5b6002811115610591577f4e487b7100000000000000000000000000000000000000000000000000000000600052602160045260246000fd5b815250858152508573ffffffffffffffffffffffffffffffffffffffff1673ffffffffffffffffffffffffffffffffffffffff1681525085815250858152505050505050809150509392505050565b606060008267ffffffffffffffff811115610624577f4e487b7100000000000000000000000000000000000000000000000000000000600052604160045260246000fd5b60405190808252806020026020018201604052801561065d57816020015b61064a612a6e565b8152602001906001900390816106425790505b509150610668612a6e565b600080600367ffffffffffffffff8111156106ac577f4e487b7100000000000000000000000000000000000000000000000000000000600052604160045260246000fd5b6040519080825280602002602001820160405280156106da5781602001602082028036833780820191505090505b5090508973ffffffffffffffffffffffffffffffffffffffff1663ef78d4fd6040518163ffffffff1660e01b815260040160206040518083038186803b15801561072357600080fd5b505afa158015610737573d6000803e3d6000fd5b505050506040513d601f19601f8201168201806040525081019061075b9190612f10565b81600281518110610795577f4e487b7100000000000000000000000000000000000000000000000000000000600052603260045260246000fd5b60200260200101818152505060008990505b888111610ab3576107b88b826119c9565b9350600160028111156107f4577f4e487b7100000000000000000000000000000000000000000000000000000000600052602160045260246000fd5b8461012001516002811115610832577f4e487b7100000000000000000000000000000000000000000000000000000000600052602160045260246000fd5b1415610a5f5786886108449190613895565b8260008151811061087e577f4e487b7100000000000000000000000000000000000000000000000000000000600052603260045260246000fd5b6020026020010151101580156108eb57508660018961089d919061380e565b6108a79190613895565b826000815181106108e1577f4e487b7100000000000000000000000000000000000000000000000000000000600052603260045260246000fd5b6020026020010151105b156109ca578386848151811061092a577f4e487b7100000000000000000000000000000000000000000000000000000000600052603260045260246000fd5b6020026020010181905250600182600181518110610971577f4e487b7100000000000000000000000000000000000000000000000000000000600052603260045260246000fd5b6020026020010151610983919061380e565b826001815181106109bd577f4e487b7100000000000000000000000000000000000000000000000000000000600052603260045260246000fd5b6020026020010181815250505b600182600081518110610a06577f4e487b7100000000000000000000000000000000000000000000000000000000600052603260045260246000fd5b6020026020010151610a18919061380e565b82600081518110610a52577f4e487b7100000000000000000000000000000000000000000000000000000000600052603260045260246000fd5b6020026020010181815250505b81600281518110610a99577f4e487b7100000000000000000000000000000000000000000000000000000000600052603260045260246000fd5b602002602001015181610aac919061380e565b90506107a7565b5085600188610ac2919061380e565b610acc9190613895565b81600081518110610b06577f4e487b7100000000000000000000000000000000000000000000000000000000600052603260045260246000fd5b60200260200101511115610b7357868682600081518110610b50577f4e487b7100000000000000000000000000000000000000000000000000000000600052603260045260246000fd5b6020026020010151610b629190613864565b610b6c91906138ef565b9350610b78565b600093505b5050509550959350505050565b60606000600183610b96919061380e565b67ffffffffffffffff811115610bd5577f4e487b7100000000000000000000000000000000000000000000000000000000600052604160045260246000fd5b604051908082528060200260200182016040528015610c0e57816020015b610bfb6129f1565b815260200190600190039081610bf35790505b509150600060606000600367ffffffffffffffff811115610c58577f4e487b7100000000000000000000000000000000000000000000000000000000600052604160045260246000fd5b604051908082528060200260200182016040528015610c865781602001602082028036833780820191505090505b5090508b73ffffffffffffffffffffffffffffffffffffffff1663ef78d4fd6040518163ffffffff1660e01b815260040160206040518083038186803b158015610ccf57600080fd5b505afa158015610ce3573d6000803e3d6000fd5b505050506040513d601f19601f82011682018060405250810190610d079190612f10565b81600281518110610d41577f4e487b7100000000000000000000000000000000000000000000000000000000600052603260045260246000fd5b60200260200101818152505060018a1161131c5760008990505b88811161131a578c73ffffffffffffffffffffffffffffffffffffffff1663f109db84826040518263ffffffff1660e01b8152600401610d9b91906136a0565b60206040518083038186803b158015610db357600080fd5b505afa158015610dc7573d6000803e3d6000fd5b505050506040513d601f19601f82011682018060405250810190610deb9190612ee7565b935060016002811115610e27577f4e487b7100000000000000000000000000000000000000000000000000000000600052602160045260246000fd5b846002811115610e60577f4e487b7100000000000000000000000000000000000000000000000000000000600052602160045260246000fd5b14156112c6578c73ffffffffffffffffffffffffffffffffffffffff1663ab02f2a9826040518263ffffffff1660e01b8152600401610e9f91906136a0565b60006040518083038186803b158015610eb757600080fd5b505afa158015610ecb573d6000803e3d6000fd5b505050506040513d6000823e3d601f19601f82011682018060405250810190610ef49190612c3e565b925060005b83518110156112c457610f4d8e83868481518110610f40577f4e487b7100000000000000000000000000000000000000000000000000000000600052603260045260246000fd5b6020026020010151610471565b878981518110610f86577f4e487b7100000000000000000000000000000000000000000000000000000000600052603260045260246000fd5b60200260200101819052508c73ffffffffffffffffffffffffffffffffffffffff16878981518110610fe1577f4e487b7100000000000000000000000000000000000000000000000000000000600052603260045260246000fd5b60200260200101516040015173ffffffffffffffffffffffffffffffffffffffff1614156112b15787896110159190613895565b8360008151811061104f577f4e487b7100000000000000000000000000000000000000000000000000000000600052603260045260246000fd5b6020026020010151101580156110bc57508760018a61106e919061380e565b6110789190613895565b836000815181106110b2577f4e487b7100000000000000000000000000000000000000000000000000000000600052603260045260246000fd5b6020026020010151105b1561121c578688815181106110fa577f4e487b7100000000000000000000000000000000000000000000000000000000600052603260045260246000fd5b6020026020010151878460018151811061113d577f4e487b7100000000000000000000000000000000000000000000000000000000600052603260045260246000fd5b60200260200101518151811061117c577f4e487b7100000000000000000000000000000000000000000000000000000000600052603260045260246000fd5b60200260200101819052506001836001815181106111c3577f4e487b7100000000000000000000000000000000000000000000000000000000600052603260045260246000fd5b60200260200101516111d5919061380e565b8360018151811061120f577f4e487b7100000000000000000000000000000000000000000000000000000000600052603260045260246000fd5b6020026020010181815250505b600183600081518110611258577f4e487b7100000000000000000000000000000000000000000000000000000000600052603260045260246000fd5b602002602001015161126a919061380e565b836000815181106112a4577f4e487b7100000000000000000000000000000000000000000000000000000000600052603260045260246000fd5b6020026020010181815250505b80806112bc906139c7565b915050610ef9565b505b81600281518110611300577f4e487b7100000000000000000000000000000000000000000000000000000000600052603260045260246000fd5b602002602001015181611313919061380e565b9050610d5b565b505b60028a148061132b575060008a145b156118f65760008990505b8881116118f4578c73ffffffffffffffffffffffffffffffffffffffff1663f109db84826040518263ffffffff1660e01b815260040161137691906136a0565b60206040518083038186803b15801561138e57600080fd5b505afa1580156113a2573d6000803e3d6000fd5b505050506040513d601f19601f820116820180604052508101906113c69190612ee7565b9350600280811115611401577f4e487b7100000000000000000000000000000000000000000000000000000000600052602160045260246000fd5b84600281111561143a577f4e487b7100000000000000000000000000000000000000000000000000000000600052602160045260246000fd5b14156118a0578c73ffffffffffffffffffffffffffffffffffffffff1663ab02f2a9826040518263ffffffff1660e01b815260040161147991906136a0565b60006040518083038186803b15801561149157600080fd5b505afa1580156114a5573d6000803e3d6000fd5b505050506040513d6000823e3d601f19601f820116820180604052508101906114ce9190612c3e565b925060005b835181101561189e576115278e8386848151811061151a577f4e487b7100000000000000000000000000000000000000000000000000000000600052603260045260246000fd5b6020026020010151610471565b878981518110611560577f4e487b7100000000000000000000000000000000000000000000000000000000600052603260045260246000fd5b60200260200101819052508c73ffffffffffffffffffffffffffffffffffffffff168789815181106115bb577f4e487b7100000000000000000000000000000000000000000000000000000000600052603260045260246000fd5b60200260200101516040015173ffffffffffffffffffffffffffffffffffffffff16141561188b5787896115ef9190613895565b83600081518110611629577f4e487b7100000000000000000000000000000000000000000000000000000000600052603260045260246000fd5b60200260200101511015801561169657508760018a611648919061380e565b6116529190613895565b8360008151811061168c577f4e487b7100000000000000000000000000000000000000000000000000000000600052603260045260246000fd5b6020026020010151105b156117f6578688815181106116d4577f4e487b7100000000000000000000000000000000000000000000000000000000600052603260045260246000fd5b60200260200101518784600181518110611717577f4e487b7100000000000000000000000000000000000000000000000000000000600052603260045260246000fd5b602002602001015181518110611756577f4e487b7100000000000000000000000000000000000000000000000000000000600052603260045260246000fd5b602002602001018190525060018360018151811061179d577f4e487b7100000000000000000000000000000000000000000000000000000000600052603260045260246000fd5b60200260200101516117af919061380e565b836001815181106117e9577f4e487b7100000000000000000000000000000000000000000000000000000000600052603260045260246000fd5b6020026020010181815250505b600183600081518110611832577f4e487b7100000000000000000000000000000000000000000000000000000000600052603260045260246000fd5b6020026020010151611844919061380e565b8360008151811061187e577f4e487b7100000000000000000000000000000000000000000000000000000000600052603260045260246000fd5b6020026020010181815250505b8080611896906139c7565b9150506114d3565b505b816002815181106118da577f4e487b7100000000000000000000000000000000000000000000000000000000600052603260045260246000fd5b6020026020010151816118ed919061380e565b9050611336565b505b85600188611904919061380e565b61190e9190613895565b81600081518110611948577f4e487b7100000000000000000000000000000000000000000000000000000000600052603260045260246000fd5b602002602001015111156119b557868682600081518110611992577f4e487b7100000000000000000000000000000000000000000000000000000000600052603260045260246000fd5b60200260200101516119a49190613864565b6119ae91906138ef565b93506119ba565b600093505b50505097509795505050505050565b6119d1612a6e565b6119d9612a6e565b60008473ffffffffffffffffffffffffffffffffffffffff1663a10340bc856040518263ffffffff1660e01b8152600401611a1491906136a0565b6101406040518083038186803b158015611a2d57600080fd5b505afa158015611a41573d6000803e3d6000fd5b505050506040513d601f19601f82011682018060405250810190611a659190612fb0565b8b6000018c6020018d6040018e61012001846002811115611aaf577f4e487b7100000000000000000000000000000000000000000000000000000000600052602160045260246000fd5b6002811115611ae7577f4e487b7100000000000000000000000000000000000000000000000000000000600052602160045260246000fd5b815250849d50859d50869d50879d50889d50899d508a8152508a8152508a815250505050505050505050508473ffffffffffffffffffffffffffffffffffffffff1663a10340bc856040518263ffffffff1660e01b8152600401611b4b91906136a0565b6101406040518083038186803b158015611b6457600080fd5b505afa158015611b78573d6000803e3d6000fd5b505050506040513d601f19601f82011682018060405250810190611b9c9190612fb0565b8b6060018c6080018d60a0018e60c0018f61012001856002811115611bea577f4e487b7100000000000000000000000000000000000000000000000000000000600052602160045260246000fd5b6002811115611c22577f4e487b7100000000000000000000000000000000000000000000000000000000600052602160045260246000fd5b815250859e50869e5087815250878152508781525087815250879a50889a50899a50505050505050505050508473ffffffffffffffffffffffffffffffffffffffff1663a10340bc856040518263ffffffff1660e01b8152600401611c8791906136a0565b6101406040518083038186803b158015611ca057600080fd5b505afa158015611cb4573d6000803e3d6000fd5b505050506040513d601f19601f82011682018060405250810190611cd89190612fb0565b8b60e0018c610100018d61012001836002811115611d1f577f4e487b7100000000000000000000000000000000000000000000000000000000600052602160045260246000fd5b6002811115611d57577f4e487b7100000000000000000000000000000000000000000000000000000000600052602160045260246000fd5b8152508381525083815250839a50849a50859a50869a50879a50889a50899a5050505050505050505050819250505092915050565b6000808373ffffffffffffffffffffffffffffffffffffffff1663ab02f2a9846040518263ffffffff1660e01b8152600401611dc891906136a0565b60006040518083038186803b158015611de057600080fd5b505afa158015611df4573d6000803e3d6000fd5b505050506040513d6000823e3d601f19601f82011682018060405250810190611e1d9190612c3e565b9050805191505092915050565b6000808373ffffffffffffffffffffffffffffffffffffffff16639495833c846040518263ffffffff1660e01b8152600401611e6691906135a6565b60006040518083038186803b158015611e7e57600080fd5b505afa158015611e92573d6000803e3d6000fd5b505050506040513d6000823e3d601f19601f82011682018060405250810190611ebb9190612c3e565b9050805191505092915050565b6000808573ffffffffffffffffffffffffffffffffffffffff16635b3ad63e866040518263ffffffff1660e01b8152600401611f0491906136a0565b60206040518083038186803b158015611f1c57600080fd5b505afa158015611f30573d6000803e3d6000fd5b505050506040513d601f19601f82011682018060405250810190611f549190612f10565b90508573ffffffffffffffffffffffffffffffffffffffff16635b3ad63e426040518263ffffffff1660e01b8152600401611f8f91906136a0565b60206040518083038186803b158015611fa757600080fd5b505afa158015611fbb573d6000803e3d6000fd5b505050506040513d601f19601f82011682018060405250810190611fdf9190612f10565b811015612021576040517f08c379a000000000000000000000000000000000000000000000000000000000815260040161201890613643565b60405180910390fd5b6000806000808973ffffffffffffffffffffffffffffffffffffffff1663b93dafa9868c73ffffffffffffffffffffffffffffffffffffffff16639592de188c6040518263ffffffff1660e01b815260040161207d91906136a0565b60206040518083038186803b15801561209557600080fd5b505afa1580156120a9573d6000803e3d6000fd5b505050506040513d601f19601f820116820180604052508101906120cd9190612f10565b6040518363ffffffff1660e01b81526004016120ea9291906136bb565b60a06040518083038186803b15801561210257600080fd5b505afa158015612116573d6000803e3d6000fd5b505050506040513d601f19601f8201168201806040525081019061213a9190612f39565b809750819550829650839850849850505050505060008a73ffffffffffffffffffffffffffffffffffffffff1663e107fb4f87846040518363ffffffff1660e01b815260040161218b9291906136bb565b60206040518083038186803b1580156121a357600080fd5b505afa1580156121b7573d6000803e3d6000fd5b505050506040513d601f19601f820116820180604052508101906121db9190612f10565b905060008b73ffffffffffffffffffffffffffffffffffffffff1663e107fb4f888b6040518363ffffffff1660e01b815260040161221a9291906136bb565b60206040518083038186803b15801561223257600080fd5b505afa158015612246573d6000803e3d6000fd5b505050506040513d601f19601f8201168201806040525081019061226a9190612f10565b905080821061227c576000975061228b565b818161228891906138ef565b97505b50505050505050949350505050565b60608167ffffffffffffffff8111156122dc577f4e487b7100000000000000000000000000000000000000000000000000000000600052604160045260246000fd5b60405190808252806020026020018201604052801561230a5781602001602082028036833780820191505090505b509050612315612a6e565b60005b83811161249b576000818773ffffffffffffffffffffffffffffffffffffffff1663ef78d4fd6040518163ffffffff1660e01b815260040160206040518083038186803b15801561236857600080fd5b505afa15801561237c573d6000803e3d6000fd5b505050506040513d601f19601f820116820180604052508101906123a09190612f10565b6123aa9190613895565b866123b5919061380e565b90506123c187826119c9565b9250600060028111156123fd577f4e487b7100000000000000000000000000000000000000000000000000000000600052602160045260246000fd5b836101200151600281111561243b577f4e487b7100000000000000000000000000000000000000000000000000000000600052602160045260246000fd5b14612487578084838151811061247a577f4e487b7100000000000000000000000000000000000000000000000000000000600052603260045260246000fd5b6020026020010181815250505b508080612493906139c7565b915050612318565b50509392505050565b6000808573ffffffffffffffffffffffffffffffffffffffff16635b3ad63e866040518263ffffffff1660e01b81526004016124e091906136a0565b60206040518083038186803b1580156124f857600080fd5b505afa15801561250c573d6000803e3d6000fd5b505050506040513d601f19601f820116820180604052508101906125309190612f10565b90508573ffffffffffffffffffffffffffffffffffffffff16635b3ad63e426040518263ffffffff1660e01b815260040161256b91906136a0565b60206040518083038186803b15801561258357600080fd5b505afa158015612597573d6000803e3d6000fd5b505050506040513d601f19601f820116820180604052508101906125bb9190612f10565b8110156125fd576040517f08c379a00000000000000000000000000000000000000000000000000000000081526004016125f490613643565b60405180910390fd5b60008673ffffffffffffffffffffffffffffffffffffffff16639592de18866040518263ffffffff1660e01b815260040161263891906136a0565b60206040518083038186803b15801561265057600080fd5b505afa158015612664573d6000803e3d6000fd5b505050506040513d601f19601f820116820180604052508101906126889190612f10565b905060008773ffffffffffffffffffffffffffffffffffffffff1663e107fb4f84876040518363ffffffff1660e01b81526004016126c79291906136bb565b60206040518083038186803b1580156126df57600080fd5b505afa1580156126f3573d6000803e3d6000fd5b505050506040513d601f19601f820116820180604052508101906127179190612f10565b90506000612726898585610471565b9050818160600151612738919061380e565b945050505050949350505050565b60008273ffffffffffffffffffffffffffffffffffffffff1663652c8ded836040518263ffffffff1660e01b815260040161278191906136a0565b60006040518083038186803b15801561279957600080fd5b505afa1580156127ad573d6000803e3d6000fd5b5050505060006127bd84846119c9565b90506000816020015182604001516127d591906138ef565b90508473ffffffffffffffffffffffffffffffffffffffff16638f9eca826040518163ffffffff1660e01b815260040160206040518083038186803b15801561281d57600080fd5b505afa158015612831573d6000803e3d6000fd5b505050506040513d601f19601f820116820180604052508101906128559190612c7f565b156128c4576128ad6040518060200160405280838560a001518660c0015161287d91906138ef565b6128879190613864565b7bffffffffffffffffffffffffffffffffffffffffffffffffffffffff168152506129be565b6dffffffffffffffffffffffffffff16925061292b565b6129186040518060200160405280838560e001518661010001516128e891906138ef565b6128f29190613864565b7bffffffffffffffffffffffffffffffffffffffffffffffffffffffff168152506129be565b6dffffffffffffffffffffffffffff1692505b8473ffffffffffffffffffffffffffffffffffffffff1663f45e65d86040518163ffffffff1660e01b815260040160206040518083038186803b15801561297157600080fd5b505afa158015612985573d6000803e3d6000fd5b505050506040513d601f19601f820116820180604052508101906129a99190612f10565b836129b49190613895565b9250505092915050565b6000607060ff1682600001517bffffffffffffffffffffffffffffffffffffffffffffffffffffffff16901c9050919050565b6040518060a001604052806000815260200160008152602001600073ffffffffffffffffffffffffffffffffffffffff1681526020016000815260200160006002811115612a68577f4e487b7100000000000000000000000000000000000000000000000000000000600052602160045260246000fd5b81525090565b60405180610160016040528060008152602001600081526020016000815260200160008152602001600081526020016000815260200160008152602001600081526020016000815260200160006002811115612af3577f4e487b7100000000000000000000000000000000000000000000000000000000600052602160045260246000fd5b8152602001606081525090565b6000612b13612b0e84613715565b6136e4565b90508083825260208201905082856020860282011115612b3257600080fd5b60005b85811015612b625781612b488882612c29565b845260208401935060208301925050600181019050612b35565b5050509392505050565b600081359050612b7b81613af4565b92915050565b600081519050612b9081613af4565b92915050565b600082601f830112612ba757600080fd5b8151612bb7848260208601612b00565b91505092915050565b600081519050612bcf81613b0b565b92915050565b600081359050612be481613b22565b92915050565b600081519050612bf981613b39565b92915050565b600081519050612c0e81613b49565b92915050565b600081359050612c2381613b59565b92915050565b600081519050612c3881613b59565b92915050565b600060208284031215612c5057600080fd5b600082015167ffffffffffffffff811115612c6a57600080fd5b612c7684828501612b96565b91505092915050565b600060208284031215612c9157600080fd5b6000612c9f84828501612bc0565b91505092915050565b60008060408385031215612cbb57600080fd5b6000612cc985828601612bd5565b9250506020612cda85828601612b6c565b9150509250929050565b600080600080600080600060e0888a031215612cff57600080fd5b6000612d0d8a828b01612bd5565b9750506020612d1e8a828b01612b6c565b9650506040612d2f8a828b01612c14565b9550506060612d408a828b01612c14565b9450506080612d518a828b01612c14565b93505060a0612d628a828b01612c14565b92505060c0612d738a828b01612c14565b91505092959891949750929550565b60008060408385031215612d9557600080fd5b6000612da385828601612bd5565b9250506020612db485828601612c14565b9150509250929050565b600080600060608486031215612dd357600080fd5b6000612de186828701612bd5565b9350506020612df286828701612c14565b9250506040612e0386828701612c14565b9150509250925092565b60008060008060808587031215612e2357600080fd5b6000612e3187828801612bd5565b9450506020612e4287828801612c14565b9350506040612e5387828801612c14565b9250506060612e6487828801612c14565b91505092959194509250565b600080600080600060a08688031215612e8857600080fd5b6000612e9688828901612bd5565b9550506020612ea788828901612c14565b9450506040612eb888828901612c14565b9350506060612ec988828901612c14565b9250506080612eda88828901612c14565b9150509295509295909350565b600060208284031215612ef957600080fd5b6000612f0784828501612bea565b91505092915050565b600060208284031215612f2257600080fd5b6000612f3084828501612c29565b91505092915050565b600080600080600060a08688031215612f5157600080fd5b6000612f5f88828901612c29565b9550506020612f7088828901612c29565b9450506040612f8188828901612b81565b9350506060612f9288828901612c29565b9250506080612fa388828901612bff565b9150509295509295909350565b6000806000806000806000806000806101408b8d031215612fd057600080fd5b6000612fde8d828e01612c29565b9a50506020612fef8d828e01612c29565b99505060406130008d828e01612c29565b98505060606130118d828e01612c29565b97505060806130228d828e01612c29565b96505060a06130338d828e01612c29565b95505060c06130448d828e01612c29565b94505060e06130558d828e01612c29565b9350506101006130678d828e01612c29565b9250506101206130798d828e01612bea565b9150509295989b9194979a5092959850565b600061309783836132da565b905092915050565b60006130ab83836134b8565b60a08301905092915050565b60006130c38383613588565b60208301905092915050565b6130d881613923565b82525050565b6130e781613923565b82525050565b60006130f882613771565b61310281856137b9565b93508360208202850161311485613741565b8060005b858110156131505784840389528151613131858261308b565b945061313c83613792565b925060208a01995050600181019050613118565b50829750879550505050505092915050565b600061316d8261377c565b61317781856137ca565b935061318283613751565b8060005b838110156131b357815161319a888261309f565b97506131a58361379f565b925050600181019050613186565b5085935050505092915050565b60006131cb82613787565b6131d581856137db565b93506131e083613761565b8060005b838110156132115781516131f888826130b7565b9750613203836137ac565b9250506001810190506131e4565b5085935050505092915050565b600061322982613787565b61323381856137ec565b935061323e83613761565b8060005b8381101561326f57815161325688826130b7565b9750613261836137ac565b925050600181019050613242565b5085935050505092915050565b613285816139a3565b82525050565b613294816139b5565b82525050565b60006132a7601b836137fd565b91507f54484953204c4f5420495320494e20412050415354204652414d4500000000006000830152602082019050919050565b6000610160830160008301516132f36000860182613588565b5060208301516133066020860182613588565b5060408301516133196040860182613588565b50606083015161332c6060860182613588565b50608083015161333f6080860182613588565b5060a083015161335260a0860182613588565b5060c083015161336560c0860182613588565b5060e083015161337860e0860182613588565b5061010083015161338d610100860182613588565b506101208301516133a261012086018261327c565b506101408301518482036101408601526133bc82826131c0565b9150508091505092915050565b6000610160830160008301516133e26000860182613588565b5060208301516133f56020860182613588565b5060408301516134086040860182613588565b50606083015161341b6060860182613588565b50608083015161342e6080860182613588565b5060a083015161344160a0860182613588565b5060c083015161345460c0860182613588565b5060e083015161346760e0860182613588565b5061010083015161347c610100860182613588565b5061012083015161349161012086018261327c565b506101408301518482036101408601526134ab82826131c0565b9150508091505092915050565b60a0820160008201516134ce6000850182613588565b5060208201516134e16020850182613588565b5060408201516134f460408501826130cf565b5060608201516135076060850182613588565b50608082015161351a608085018261328b565b50505050565b60a0820160008201516135366000850182613588565b5060208201516135496020850182613588565b50604082015161355c60408501826130cf565b50606082015161356f6060850182613588565b506080820151613582608085018261328b565b50505050565b61359181613999565b82525050565b6135a081613999565b82525050565b60006020820190506135bb60008301846130de565b92915050565b600060408201905081810360008301526135db81856130ed565b90506135ea6020830184613597565b9392505050565b6000604082019050818103600083015261360b8185613162565b905061361a6020830184613597565b9392505050565b6000602082019050818103600083015261363b818461321e565b905092915050565b6000602082019050818103600083015261365c8161329a565b9050919050565b6000602082019050818103600083015261367d81846133c9565b905092915050565b600060a08201905061369a6000830184613520565b92915050565b60006020820190506136b56000830184613597565b92915050565b60006040820190506136d06000830185613597565b6136dd6020830184613597565b9392505050565b6000604051905081810181811067ffffffffffffffff8211171561370b5761370a613a9d565b5b8060405250919050565b600067ffffffffffffffff8211156137305761372f613a9d565b5b602082029050602081019050919050565b6000819050602082019050919050565b6000819050602082019050919050565b6000819050602082019050919050565b600081519050919050565b600081519050919050565b600081519050919050565b6000602082019050919050565b6000602082019050919050565b6000602082019050919050565b600082825260208201905092915050565b600082825260208201905092915050565b600082825260208201905092915050565b600082825260208201905092915050565b600082825260208201905092915050565b600061381982613999565b915061382483613999565b9250827fffffffffffffffffffffffffffffffffffffffffffffffffffffffffffffffff0382111561385957613858613a10565b5b828201905092915050565b600061386f82613999565b915061387a83613999565b92508261388a57613889613a3f565b5b828204905092915050565b60006138a082613999565b91506138ab83613999565b9250817fffffffffffffffffffffffffffffffffffffffffffffffffffffffffffffffff04831182151516156138e4576138e3613a10565b5b828202905092915050565b60006138fa82613999565b915061390583613999565b92508282101561391857613917613a10565b5b828203905092915050565b600061392e82613979565b9050919050565b60008115159050919050565b600061394c82613923565b9050919050565b600081905061396182613acc565b919050565b600081905061397482613ae0565b919050565b600073ffffffffffffffffffffffffffffffffffffffff82169050919050565b6000819050919050565b60006139ae82613953565b9050919050565b60006139c082613966565b9050919050565b60006139d282613999565b91507fffffffffffffffffffffffffffffffffffffffffffffffffffffffffffffffff821415613a0557613a04613a10565b5b600182019050919050565b7f4e487b7100000000000000000000000000000000000000000000000000000000600052601160045260246000fd5b7f4e487b7100000000000000000000000000000000000000000000000000000000600052601260045260246000fd5b7f4e487b7100000000000000000000000000000000000000000000000000000000600052602160045260246000fd5b7f4e487b7100000000000000000000000000000000000000000000000000000000600052604160045260246000fd5b60038110613add57613adc613a6e565b5b50565b60038110613af157613af0613a6e565b5b50565b613afd81613923565b8114613b0857600080fd5b50565b613b1481613935565b8114613b1f57600080fd5b50565b613b2b81613941565b8114613b3657600080fd5b50565b60038110613b4657600080fd5b50565b60038110613b5657600080fd5b50565b613b6281613999565b8114613b6d57600080fd5b5056fea26469706673582212202898e2019bb118e36f43330f40ce04602b1361b87b04c0724ae1b3417fd7356664736f6c63430008000033",
  "linkReferences": {},
  "deployedLinkReferences": {}
}