{
  "_format": "hh-sol-artifact-1",
  "contractName": "MarketGetter",
  "sourceName": "contracts/MarketGetter.sol",
  "abi": [
    {
      "inputs": [
        {
          "internalType": "contract Market",
          "name": "market",
          "type": "address"
        },
        {
          "internalType": "uint256",
          "name": "timestamp",
          "type": "uint256"
        },
        {
          "internalType": "uint256",
          "name": "pairPrice",
          "type": "uint256"
        },
        {
          "internalType": "uint256",
          "name": "acqPrice",
          "type": "uint256"
        }
      ],
      "name": "clcAmountToApprove",
      "outputs": [
        {
          "internalType": "uint256",
          "name": "cmpltAmnt",
          "type": "uint256"
        }
      ],
      "stateMutability": "view",
      "type": "function"
    },
    {
      "inputs": [
        {
          "internalType": "contract Market",
          "name": "market",
          "type": "address"
        },
        {
          "internalType": "uint256",
          "name": "timestamp",
          "type": "uint256"
        },
        {
          "internalType": "uint256",
          "name": "pairPrice",
          "type": "uint256"
        },
        {
          "internalType": "uint256",
          "name": "acqPrice",
          "type": "uint256"
        }
      ],
      "name": "clcAmountToApproveForUpdate",
      "outputs": [
        {
          "internalType": "uint256",
          "name": "amnt",
          "type": "uint256"
        }
      ],
      "stateMutability": "view",
      "type": "function"
    },
    {
      "inputs": [
        {
          "internalType": "contract Market",
          "name": "market",
          "type": "address"
        },
        {
          "internalType": "uint256",
          "name": "frameKey",
          "type": "uint256"
        }
      ],
      "name": "clcPrice",
      "outputs": [
        {
          "internalType": "uint256",
          "name": "avgPrice",
          "type": "uint256"
        }
      ],
      "stateMutability": "view",
      "type": "function"
    },
    {
      "inputs": [
        {
          "internalType": "contract Market",
          "name": "market",
          "type": "address"
        },
        {
          "internalType": "uint256",
          "name": "frameKey",
          "type": "uint256"
        }
      ],
      "name": "getFrameStruct",
      "outputs": [
        {
          "components": [
            {
              "internalType": "uint256",
              "name": "frameKey",
              "type": "uint256"
            },
            {
              "internalType": "uint256",
              "name": "oracleTimestampStart",
              "type": "uint256"
            },
            {
              "internalType": "uint256",
              "name": "oracleTimestampEnd",
              "type": "uint256"
            },
            {
              "internalType": "uint256",
              "name": "rewardFund",
              "type": "uint256"
            },
            {
              "internalType": "uint256",
              "name": "priceAverage",
              "type": "uint256"
            },
            {
              "internalType": "uint256",
              "name": "oraclePrice0CumulativeStart",
              "type": "uint256"
            },
            {
              "internalType": "uint256",
              "name": "oraclePrice0CumulativeEnd",
              "type": "uint256"
            },
            {
              "internalType": "uint256",
              "name": "oraclePrice1CumulativeStart",
              "type": "uint256"
            },
            {
              "internalType": "uint256",
              "name": "oraclePrice1CumulativeEnd",
              "type": "uint256"
            },
            {
              "internalType": "enum MLib.SFrame",
              "name": "state",
              "type": "uint8"
            },
            {
              "internalType": "uint256[]",
              "name": "lotKeys",
              "type": "uint256[]"
            }
          ],
          "internalType": "struct MLib.Frame",
          "name": "",
          "type": "tuple"
        }
      ],
      "stateMutability": "view",
      "type": "function"
    },
    {
      "inputs": [
        {
          "internalType": "contract Market",
          "name": "market",
          "type": "address"
        },
        {
          "internalType": "uint256",
          "name": "frameKey_start",
          "type": "uint256"
        },
        {
          "internalType": "uint256",
          "name": "frameKey_end",
          "type": "uint256"
        },
        {
          "internalType": "uint256",
          "name": "page",
          "type": "uint256"
        },
        {
          "internalType": "uint256",
          "name": "perPage",
          "type": "uint256"
        }
      ],
      "name": "getFrames",
      "outputs": [
        {
          "components": [
            {
              "internalType": "uint256",
              "name": "frameKey",
              "type": "uint256"
            },
            {
              "internalType": "uint256",
              "name": "oracleTimestampStart",
              "type": "uint256"
            },
            {
              "internalType": "uint256",
              "name": "oracleTimestampEnd",
              "type": "uint256"
            },
            {
              "internalType": "uint256",
              "name": "rewardFund",
              "type": "uint256"
            },
            {
              "internalType": "uint256",
              "name": "priceAverage",
              "type": "uint256"
            },
            {
              "internalType": "uint256",
              "name": "oraclePrice0CumulativeStart",
              "type": "uint256"
            },
            {
              "internalType": "uint256",
              "name": "oraclePrice0CumulativeEnd",
              "type": "uint256"
            },
            {
              "internalType": "uint256",
              "name": "oraclePrice1CumulativeStart",
              "type": "uint256"
            },
            {
              "internalType": "uint256",
              "name": "oraclePrice1CumulativeEnd",
              "type": "uint256"
            },
            {
              "internalType": "enum MLib.SFrame",
              "name": "state",
              "type": "uint8"
            },
            {
              "internalType": "uint256[]",
              "name": "lotKeys",
              "type": "uint256[]"
            }
          ],
          "internalType": "struct MLib.Frame[]",
          "name": "frames",
          "type": "tuple[]"
        },
        {
          "internalType": "uint256",
          "name": "pagesLeft",
          "type": "uint256"
        }
      ],
      "stateMutability": "view",
      "type": "function"
    },
    {
      "inputs": [
        {
          "internalType": "contract Market",
          "name": "market",
          "type": "address"
        },
        {
          "internalType": "address",
          "name": "user",
          "type": "address"
        },
        {
          "internalType": "uint256",
          "name": "frameKey_start",
          "type": "uint256"
        },
        {
          "internalType": "uint256",
          "name": "frameKey_end",
          "type": "uint256"
        },
        {
          "internalType": "uint256",
          "name": "page",
          "type": "uint256"
        },
        {
          "internalType": "uint256",
          "name": "perPage",
          "type": "uint256"
        }
      ],
      "name": "getFramesUser",
      "outputs": [
        {
          "components": [
            {
              "internalType": "uint256",
              "name": "frameKey",
              "type": "uint256"
            },
            {
              "internalType": "uint256",
              "name": "oracleTimestampStart",
              "type": "uint256"
            },
            {
              "internalType": "uint256",
              "name": "oracleTimestampEnd",
              "type": "uint256"
            },
            {
              "internalType": "uint256",
              "name": "rewardFund",
              "type": "uint256"
            },
            {
              "internalType": "uint256",
              "name": "priceAverage",
              "type": "uint256"
            },
            {
              "internalType": "uint256",
              "name": "oraclePrice0CumulativeStart",
              "type": "uint256"
            },
            {
              "internalType": "uint256",
              "name": "oraclePrice0CumulativeEnd",
              "type": "uint256"
            },
            {
              "internalType": "uint256",
              "name": "oraclePrice1CumulativeStart",
              "type": "uint256"
            },
            {
              "internalType": "uint256",
              "name": "oraclePrice1CumulativeEnd",
              "type": "uint256"
            },
            {
              "internalType": "enum MLib.SFrame",
              "name": "state",
              "type": "uint8"
            },
            {
              "internalType": "uint256[]",
              "name": "lotKeys",
              "type": "uint256[]"
            }
          ],
          "internalType": "struct MLib.Frame[]",
          "name": "userFrames",
          "type": "tuple[]"
        },
        {
          "internalType": "uint256",
          "name": "pagesLeft",
          "type": "uint256"
        }
      ],
      "stateMutability": "view",
      "type": "function"
    },
    {
      "inputs": [
        {
          "internalType": "contract Market",
          "name": "market",
          "type": "address"
        },
        {
          "internalType": "uint256",
          "name": "frameKey",
          "type": "uint256"
        },
        {
          "internalType": "uint256",
          "name": "index",
          "type": "uint256"
        }
      ],
      "name": "getLotKey",
      "outputs": [
        {
          "internalType": "uint256",
          "name": "",
          "type": "uint256"
        }
      ],
      "stateMutability": "view",
      "type": "function"
    },
    {
      "inputs": [
        {
          "internalType": "contract Market",
          "name": "market",
          "type": "address"
        },
        {
          "internalType": "uint256",
          "name": "frameKey",
          "type": "uint256"
        },
        {
          "internalType": "uint256",
          "name": "lotKey",
          "type": "uint256"
        }
      ],
      "name": "getLotStruct",
      "outputs": [
        {
          "components": [
            {
              "internalType": "uint256",
              "name": "frameKey",
              "type": "uint256"
            },
            {
              "internalType": "uint256",
              "name": "lotKey",
              "type": "uint256"
            },
            {
              "internalType": "address",
              "name": "lotOwner",
              "type": "address"
            },
            {
              "internalType": "uint256",
              "name": "acquisitionPrice",
              "type": "uint256"
            },
            {
              "internalType": "enum MLib.SLot",
              "name": "state",
              "type": "uint8"
            }
          ],
          "internalType": "struct MLib.Lot",
          "name": "",
          "type": "tuple"
        }
      ],
      "stateMutability": "view",
      "type": "function"
    },
    {
      "inputs": [
        {
          "internalType": "contract Market",
          "name": "market",
          "type": "address"
        },
        {
          "internalType": "uint256",
          "name": "frameKey_start",
          "type": "uint256"
        },
        {
          "internalType": "uint256",
          "name": "frameKey_end",
          "type": "uint256"
        },
        {
          "internalType": "uint256",
          "name": "page",
          "type": "uint256"
        },
        {
          "internalType": "uint256",
          "name": "perPage",
          "type": "uint256"
        }
      ],
      "name": "getLots",
      "outputs": [
        {
          "components": [
            {
              "internalType": "uint256",
              "name": "frameKey",
              "type": "uint256"
            },
            {
              "internalType": "uint256",
              "name": "lotKey",
              "type": "uint256"
            },
            {
              "internalType": "address",
              "name": "lotOwner",
              "type": "address"
            },
            {
              "internalType": "uint256",
              "name": "acquisitionPrice",
              "type": "uint256"
            },
            {
              "internalType": "enum MLib.SLot",
              "name": "state",
              "type": "uint8"
            }
          ],
          "internalType": "struct MLib.Lot[]",
          "name": "lots",
          "type": "tuple[]"
        },
        {
          "internalType": "uint256",
          "name": "pagesLeft",
          "type": "uint256"
        }
      ],
      "stateMutability": "view",
      "type": "function"
    },
    {
      "inputs": [
        {
          "internalType": "contract Market",
          "name": "market",
          "type": "address"
        },
        {
          "internalType": "uint256",
          "name": "frameKey",
          "type": "uint256"
        }
      ],
      "name": "getLotsCount",
      "outputs": [
        {
          "internalType": "uint256",
          "name": "",
          "type": "uint256"
        }
      ],
      "stateMutability": "view",
      "type": "function"
    },
    {
      "inputs": [
        {
          "internalType": "contract Market",
          "name": "market",
          "type": "address"
        },
        {
          "internalType": "address",
          "name": "user",
          "type": "address"
        },
        {
          "internalType": "uint256",
          "name": "mode",
          "type": "uint256"
        },
        {
          "internalType": "uint256",
          "name": "frameKey_start",
          "type": "uint256"
        },
        {
          "internalType": "uint256",
          "name": "frameKey_end",
          "type": "uint256"
        },
        {
          "internalType": "uint256",
          "name": "page",
          "type": "uint256"
        },
        {
          "internalType": "uint256",
          "name": "perPage",
          "type": "uint256"
        }
      ],
      "name": "getLotsUser",
      "outputs": [
        {
          "components": [
            {
              "internalType": "uint256",
              "name": "frameKey",
              "type": "uint256"
            },
            {
              "internalType": "uint256",
              "name": "lotKey",
              "type": "uint256"
            },
            {
              "internalType": "address",
              "name": "lotOwner",
              "type": "address"
            },
            {
              "internalType": "uint256",
              "name": "acquisitionPrice",
              "type": "uint256"
            },
            {
              "internalType": "enum MLib.SLot",
              "name": "state",
              "type": "uint8"
            }
          ],
          "internalType": "struct MLib.Lot[]",
          "name": "userLots",
          "type": "tuple[]"
        },
        {
          "internalType": "uint256",
          "name": "pagesLeft",
          "type": "uint256"
        }
      ],
      "stateMutability": "view",
      "type": "function"
    },
    {
      "inputs": [
        {
          "internalType": "contract Market",
          "name": "market",
          "type": "address"
        },
        {
          "internalType": "uint256",
          "name": "startFrame",
          "type": "uint256"
        },
        {
          "internalType": "uint256",
          "name": "numOfFrames",
          "type": "uint256"
        }
      ],
      "name": "getOpenFrameKeys",
      "outputs": [
        {
          "internalType": "uint256[]",
          "name": "openFrames",
          "type": "uint256[]"
        }
      ],
      "stateMutability": "view",
      "type": "function"
    },
    {
      "inputs": [
        {
          "internalType": "contract Market",
          "name": "market",
          "type": "address"
        },
        {
          "internalType": "uint256",
          "name": "frameKey",
          "type": "uint256"
        }
      ],
      "name": "getRewardAmount",
      "outputs": [
        {
          "internalType": "uint256",
          "name": "",
          "type": "uint256"
        }
      ],
      "stateMutability": "view",
      "type": "function"
    }
  ],
  "bytecode": "0x608060405234801561001057600080fd5b50614991806100206000396000f3fe608060405234801561001057600080fd5b50600436106100cf5760003560e01c8063c1d013951161008c578063de73259511610066578063de73259514610286578063ee707ed9146102b6578063f6eb9ee7146102e6578063f91cbebe14610317576100cf565b8063c1d01395146101f6578063da4e855614610226578063dbd20a8814610256576100cf565b80632c79854f146100d45780634314b84f14610104578063612d8b501461013457806371b08d89146101655780637f424a37146101965780639291178e146101c6575b600080fd5b6100ee60048036038101906100e99190613bd3565b610348565b6040516100fb919061448b565b60405180910390f35b61011e60048036038101906101199190613bd3565b610426565b60405161012b9190614470565b60405180910390f35b61014e60048036038101906101499190613c85565b610595565b60405161015c9291906143ac565b60405180910390f35b61017f600480360381019061017a9190613af9565b610b78565b60405161018d9291906143dc565b60405180910390f35b6101b060048036038101906101ab9190613b97565b6119bc565b6040516101bd919061444e565b60405180910390f35b6101e060048036038101906101db9190613b97565b611cb1565b6040516101ed919061448b565b60405180910390f35b610210600480360381019061020b9190613c22565b611d4f565b60405161021d919061448b565b60405180910390f35b610240600480360381019061023b9190613b97565b612117565b60405161024d919061448b565b60405180910390f35b610270600480360381019061026b9190613bd3565b6121e2565b60405161027d919061440c565b60405180910390f35b6102a0600480360381019061029b9190613c22565b6123ec565b6040516102ad919061448b565b60405180910390f35b6102d060048036038101906102cb9190613b97565b61268e565b6040516102dd919061448b565b60405180910390f35b61030060048036038101906102fb9190613a70565b612912565b60405161030e9291906143ac565b60405180910390f35b610331600480360381019061032c9190613c85565b613139565b60405161033f9291906143dc565b60405180910390f35b6000808473ffffffffffffffffffffffffffffffffffffffff1663ab02f2a9856040518263ffffffff1660e01b8152600401610384919061448b565b60006040518083038186803b15801561039c57600080fd5b505afa1580156103b0573d6000803e3d6000fd5b505050506040513d6000823e3d601f19601f820116820180604052508101906103d99190613a06565b9050808381518110610414577f4e487b7100000000000000000000000000000000000000000000000000000000600052603260045260246000fd5b60200260200101519150509392505050565b61042e6137b9565b6104366137b9565b8473ffffffffffffffffffffffffffffffffffffffff1663b93dafa985856040518363ffffffff1660e01b81526004016104719291906144a6565b60a06040518083038186803b15801561048957600080fd5b505afa15801561049d573d6000803e3d6000fd5b505050506040513d601f19601f820116820180604052508101906104c19190613d4e565b856000018660200187604001886060018960800185600281111561050e577f4e487b7100000000000000000000000000000000000000000000000000000000600052602160045260246000fd5b6002811115610546577f4e487b7100000000000000000000000000000000000000000000000000000000600052602160045260246000fd5b815250858152508573ffffffffffffffffffffffffffffffffffffffff1673ffffffffffffffffffffffffffffffffffffffff1681525085815250858152505050505050809150509392505050565b606060008267ffffffffffffffff8111156105d9577f4e487b7100000000000000000000000000000000000000000000000000000000600052604160045260246000fd5b60405190808252806020026020018201604052801561061257816020015b6105ff613836565b8152602001906001900390816105f75790505b50915061061d613836565b6000600367ffffffffffffffff811115610660577f4e487b7100000000000000000000000000000000000000000000000000000000600052604160045260246000fd5b60405190808252806020026020018201604052801561068e5781602001602082028036833780820191505090505b5090508873ffffffffffffffffffffffffffffffffffffffff1663ef78d4fd6040518163ffffffff1660e01b815260040160206040518083038186803b1580156106d757600080fd5b505afa1580156106eb573d6000803e3d6000fd5b505050506040513d601f19601f8201168201806040525081019061070f9190613d25565b81600281518110610749577f4e487b7100000000000000000000000000000000000000000000000000000000600052603260045260246000fd5b60200260200101818152505060008890505b878111610aa75761076c8a826119bc565b9250600060028111156107a8577f4e487b7100000000000000000000000000000000000000000000000000000000600052602160045260246000fd5b83610120015160028111156107e6577f4e487b7100000000000000000000000000000000000000000000000000000000600052602160045260246000fd5b14610a535785876107f79190614680565b82600081518110610831577f4e487b7100000000000000000000000000000000000000000000000000000000600052603260045260246000fd5b60200260200101511015801561089e57508560018861085091906145f9565b61085a9190614680565b82600081518110610894577f4e487b7100000000000000000000000000000000000000000000000000000000600052603260045260246000fd5b6020026020010151105b156109be578285836001815181106108df577f4e487b7100000000000000000000000000000000000000000000000000000000600052603260045260246000fd5b60200260200101518151811061091e577f4e487b7100000000000000000000000000000000000000000000000000000000600052603260045260246000fd5b6020026020010181905250600182600181518110610965577f4e487b7100000000000000000000000000000000000000000000000000000000600052603260045260246000fd5b602002602001015161097791906145f9565b826001815181106109b1577f4e487b7100000000000000000000000000000000000000000000000000000000600052603260045260246000fd5b6020026020010181815250505b6001826000815181106109fa577f4e487b7100000000000000000000000000000000000000000000000000000000600052603260045260246000fd5b6020026020010151610a0c91906145f9565b82600081518110610a46577f4e487b7100000000000000000000000000000000000000000000000000000000600052603260045260246000fd5b6020026020010181815250505b81600281518110610a8d577f4e487b7100000000000000000000000000000000000000000000000000000000600052603260045260246000fd5b602002602001015181610aa091906145f9565b905061075b565b5084600187610ab691906145f9565b610ac09190614680565b81600081518110610afa577f4e487b7100000000000000000000000000000000000000000000000000000000600052603260045260246000fd5b60200260200101511115610b6757858582600081518110610b44577f4e487b7100000000000000000000000000000000000000000000000000000000600052603260045260246000fd5b6020026020010151610b56919061464f565b610b6091906146da565b9250610b6c565b600092505b50509550959350505050565b60606000600183610b8991906145f9565b67ffffffffffffffff811115610bc8577f4e487b7100000000000000000000000000000000000000000000000000000000600052604160045260246000fd5b604051908082528060200260200182016040528015610c0157816020015b610bee6137b9565b815260200190600190039081610be65790505b509150600060606000600367ffffffffffffffff811115610c4b577f4e487b7100000000000000000000000000000000000000000000000000000000600052604160045260246000fd5b604051908082528060200260200182016040528015610c795781602001602082028036833780820191505090505b5090508b73ffffffffffffffffffffffffffffffffffffffff1663ef78d4fd6040518163ffffffff1660e01b815260040160206040518083038186803b158015610cc257600080fd5b505afa158015610cd6573d6000803e3d6000fd5b505050506040513d601f19601f82011682018060405250810190610cfa9190613d25565b81600281518110610d34577f4e487b7100000000000000000000000000000000000000000000000000000000600052603260045260246000fd5b60200260200101818152505060018a1161130f5760008990505b88811161130d578c73ffffffffffffffffffffffffffffffffffffffff1663f109db84826040518263ffffffff1660e01b8152600401610d8e919061448b565b60206040518083038186803b158015610da657600080fd5b505afa158015610dba573d6000803e3d6000fd5b505050506040513d601f19601f82011682018060405250810190610dde9190613cfc565b935060016002811115610e1a577f4e487b7100000000000000000000000000000000000000000000000000000000600052602160045260246000fd5b846002811115610e53577f4e487b7100000000000000000000000000000000000000000000000000000000600052602160045260246000fd5b14156112b9578c73ffffffffffffffffffffffffffffffffffffffff1663ab02f2a9826040518263ffffffff1660e01b8152600401610e92919061448b565b60006040518083038186803b158015610eaa57600080fd5b505afa158015610ebe573d6000803e3d6000fd5b505050506040513d6000823e3d601f19601f82011682018060405250810190610ee79190613a06565b925060005b83518110156112b757610f408e83868481518110610f33577f4e487b7100000000000000000000000000000000000000000000000000000000600052603260045260246000fd5b6020026020010151610426565b878981518110610f79577f4e487b7100000000000000000000000000000000000000000000000000000000600052603260045260246000fd5b60200260200101819052508c73ffffffffffffffffffffffffffffffffffffffff16878981518110610fd4577f4e487b7100000000000000000000000000000000000000000000000000000000600052603260045260246000fd5b60200260200101516040015173ffffffffffffffffffffffffffffffffffffffff1614156112a45787896110089190614680565b83600081518110611042577f4e487b7100000000000000000000000000000000000000000000000000000000600052603260045260246000fd5b6020026020010151101580156110af57508760018a61106191906145f9565b61106b9190614680565b836000815181106110a5577f4e487b7100000000000000000000000000000000000000000000000000000000600052603260045260246000fd5b6020026020010151105b1561120f578688815181106110ed577f4e487b7100000000000000000000000000000000000000000000000000000000600052603260045260246000fd5b60200260200101518784600181518110611130577f4e487b7100000000000000000000000000000000000000000000000000000000600052603260045260246000fd5b60200260200101518151811061116f577f4e487b7100000000000000000000000000000000000000000000000000000000600052603260045260246000fd5b60200260200101819052506001836001815181106111b6577f4e487b7100000000000000000000000000000000000000000000000000000000600052603260045260246000fd5b60200260200101516111c891906145f9565b83600181518110611202577f4e487b7100000000000000000000000000000000000000000000000000000000600052603260045260246000fd5b6020026020010181815250505b60018360008151811061124b577f4e487b7100000000000000000000000000000000000000000000000000000000600052603260045260246000fd5b602002602001015161125d91906145f9565b83600081518110611297577f4e487b7100000000000000000000000000000000000000000000000000000000600052603260045260246000fd5b6020026020010181815250505b80806112af906147b2565b915050610eec565b505b816002815181106112f3577f4e487b7100000000000000000000000000000000000000000000000000000000600052603260045260246000fd5b60200260200101518161130691906145f9565b9050610d4e565b505b60028a148061131e575060008a145b156118e95760008990505b8881116118e7578c73ffffffffffffffffffffffffffffffffffffffff1663f109db84826040518263ffffffff1660e01b8152600401611369919061448b565b60206040518083038186803b15801561138157600080fd5b505afa158015611395573d6000803e3d6000fd5b505050506040513d601f19601f820116820180604052508101906113b99190613cfc565b93506002808111156113f4577f4e487b7100000000000000000000000000000000000000000000000000000000600052602160045260246000fd5b84600281111561142d577f4e487b7100000000000000000000000000000000000000000000000000000000600052602160045260246000fd5b1415611893578c73ffffffffffffffffffffffffffffffffffffffff1663ab02f2a9826040518263ffffffff1660e01b815260040161146c919061448b565b60006040518083038186803b15801561148457600080fd5b505afa158015611498573d6000803e3d6000fd5b505050506040513d6000823e3d601f19601f820116820180604052508101906114c19190613a06565b925060005b83518110156118915761151a8e8386848151811061150d577f4e487b7100000000000000000000000000000000000000000000000000000000600052603260045260246000fd5b6020026020010151610426565b878981518110611553577f4e487b7100000000000000000000000000000000000000000000000000000000600052603260045260246000fd5b60200260200101819052508c73ffffffffffffffffffffffffffffffffffffffff168789815181106115ae577f4e487b7100000000000000000000000000000000000000000000000000000000600052603260045260246000fd5b60200260200101516040015173ffffffffffffffffffffffffffffffffffffffff16141561187e5787896115e29190614680565b8360008151811061161c577f4e487b7100000000000000000000000000000000000000000000000000000000600052603260045260246000fd5b60200260200101511015801561168957508760018a61163b91906145f9565b6116459190614680565b8360008151811061167f577f4e487b7100000000000000000000000000000000000000000000000000000000600052603260045260246000fd5b6020026020010151105b156117e9578688815181106116c7577f4e487b7100000000000000000000000000000000000000000000000000000000600052603260045260246000fd5b6020026020010151878460018151811061170a577f4e487b7100000000000000000000000000000000000000000000000000000000600052603260045260246000fd5b602002602001015181518110611749577f4e487b7100000000000000000000000000000000000000000000000000000000600052603260045260246000fd5b6020026020010181905250600183600181518110611790577f4e487b7100000000000000000000000000000000000000000000000000000000600052603260045260246000fd5b60200260200101516117a291906145f9565b836001815181106117dc577f4e487b7100000000000000000000000000000000000000000000000000000000600052603260045260246000fd5b6020026020010181815250505b600183600081518110611825577f4e487b7100000000000000000000000000000000000000000000000000000000600052603260045260246000fd5b602002602001015161183791906145f9565b83600081518110611871577f4e487b7100000000000000000000000000000000000000000000000000000000600052603260045260246000fd5b6020026020010181815250505b8080611889906147b2565b9150506114c6565b505b816002815181106118cd577f4e487b7100000000000000000000000000000000000000000000000000000000600052603260045260246000fd5b6020026020010151816118e091906145f9565b9050611329565b505b856001886118f791906145f9565b6119019190614680565b8160008151811061193b577f4e487b7100000000000000000000000000000000000000000000000000000000600052603260045260246000fd5b602002602001015111156119a857868682600081518110611985577f4e487b7100000000000000000000000000000000000000000000000000000000600052603260045260246000fd5b6020026020010151611997919061464f565b6119a191906146da565b93506119ad565b600093505b50505097509795505050505050565b6119c4613836565b6119cc613836565b60008473ffffffffffffffffffffffffffffffffffffffff1663a10340bc856040518263ffffffff1660e01b8152600401611a07919061448b565b6101406040518083038186803b158015611a2057600080fd5b505afa158015611a34573d6000803e3d6000fd5b505050506040513d601f19601f82011682018060405250810190611a589190613dc5565b909192939495509091929394509091929350909192509091509050508460000185602001866040018381525083815250838152505050508473ffffffffffffffffffffffffffffffffffffffff1663a10340bc856040518263ffffffff1660e01b8152600401611ac8919061448b565b6101406040518083038186803b158015611ae157600080fd5b505afa158015611af5573d6000803e3d6000fd5b505050506040513d601f19601f82011682018060405250810190611b199190613dc5565b90919293949596979850909192939495969750909192939495965090915090505085606001866080018760a0018860c00184815250848152508481525084815250505050508473ffffffffffffffffffffffffffffffffffffffff1663a10340bc856040518263ffffffff1660e01b8152600401611b97919061448b565b6101406040518083038186803b158015611bb057600080fd5b505afa158015611bc4573d6000803e3d6000fd5b505050506040513d601f19601f82011682018060405250810190611be89190613dc5565b909192939495969798509091929394959697509091929394959650909192939495509091929394509091929350909192508460e00185610100018661012001836002811115611c60577f4e487b7100000000000000000000000000000000000000000000000000000000600052602160045260246000fd5b6002811115611c98577f4e487b7100000000000000000000000000000000000000000000000000000000600052602160045260246000fd5b8152508381525083815250505050819250505092915050565b6000808373ffffffffffffffffffffffffffffffffffffffff1663ab02f2a9846040518263ffffffff1660e01b8152600401611ced919061448b565b60006040518083038186803b158015611d0557600080fd5b505afa158015611d19573d6000803e3d6000fd5b505050506040513d6000823e3d601f19601f82011682018060405250810190611d429190613a06565b9050805191505092915050565b6000808573ffffffffffffffffffffffffffffffffffffffff16635b3ad63e866040518263ffffffff1660e01b8152600401611d8b919061448b565b60206040518083038186803b158015611da357600080fd5b505afa158015611db7573d6000803e3d6000fd5b505050506040513d601f19601f82011682018060405250810190611ddb9190613d25565b90508573ffffffffffffffffffffffffffffffffffffffff16635b3ad63e426040518263ffffffff1660e01b8152600401611e16919061448b565b60206040518083038186803b158015611e2e57600080fd5b505afa158015611e42573d6000803e3d6000fd5b505050506040513d601f19601f82011682018060405250810190611e669190613d25565b811015611ea8576040517f08c379a0000000000000000000000000000000000000000000000000000000008152600401611e9f9061442e565b60405180910390fd5b60008673ffffffffffffffffffffffffffffffffffffffff1663b93dafa9838973ffffffffffffffffffffffffffffffffffffffff16639592de18896040518263ffffffff1660e01b8152600401611f00919061448b565b60206040518083038186803b158015611f1857600080fd5b505afa158015611f2c573d6000803e3d6000fd5b505050506040513d601f19601f82011682018060405250810190611f509190613d25565b6040518363ffffffff1660e01b8152600401611f6d9291906144a6565b60a06040518083038186803b158015611f8557600080fd5b505afa158015611f99573d6000803e3d6000fd5b505050506040513d601f19601f82011682018060405250810190611fbd9190613d4e565b909192935090919250909150508091505060008773ffffffffffffffffffffffffffffffffffffffff1663e107fb4f84846040518363ffffffff1660e01b815260040161200b9291906144a6565b60206040518083038186803b15801561202357600080fd5b505afa158015612037573d6000803e3d6000fd5b505050506040513d601f19601f8201168201806040525081019061205b9190613d25565b905060008873ffffffffffffffffffffffffffffffffffffffff1663e107fb4f85886040518363ffffffff1660e01b815260040161209a9291906144a6565b60206040518083038186803b1580156120b257600080fd5b505afa1580156120c6573d6000803e3d6000fd5b505050506040513d601f19601f820116820180604052508101906120ea9190613d25565b90508082106120fc576000945061210b565b818161210891906146da565b94505b50505050949350505050565b6000808373ffffffffffffffffffffffffffffffffffffffff1663a10340bc846040518263ffffffff1660e01b8152600401612153919061448b565b6101406040518083038186803b15801561216c57600080fd5b505afa158015612180573d6000803e3d6000fd5b505050506040513d601f19601f820116820180604052508101906121a49190613dc5565b909192939495969798509091929394959697509091929394959650909192939450909192935090919250909150905050809150508091505092915050565b60608167ffffffffffffffff811115612224577f4e487b7100000000000000000000000000000000000000000000000000000000600052604160045260246000fd5b6040519080825280602002602001820160405280156122525781602001602082028036833780820191505090505b50905061225d613836565b60005b8381116123e3576000818773ffffffffffffffffffffffffffffffffffffffff1663ef78d4fd6040518163ffffffff1660e01b815260040160206040518083038186803b1580156122b057600080fd5b505afa1580156122c4573d6000803e3d6000fd5b505050506040513d601f19601f820116820180604052508101906122e89190613d25565b6122f29190614680565b866122fd91906145f9565b905061230987826119bc565b925060006002811115612345577f4e487b7100000000000000000000000000000000000000000000000000000000600052602160045260246000fd5b8361012001516002811115612383577f4e487b7100000000000000000000000000000000000000000000000000000000600052602160045260246000fd5b146123cf57808483815181106123c2577f4e487b7100000000000000000000000000000000000000000000000000000000600052603260045260246000fd5b6020026020010181815250505b5080806123db906147b2565b915050612260565b50509392505050565b6000808573ffffffffffffffffffffffffffffffffffffffff16635b3ad63e866040518263ffffffff1660e01b8152600401612428919061448b565b60206040518083038186803b15801561244057600080fd5b505afa158015612454573d6000803e3d6000fd5b505050506040513d601f19601f820116820180604052508101906124789190613d25565b90508573ffffffffffffffffffffffffffffffffffffffff16635b3ad63e426040518263ffffffff1660e01b81526004016124b3919061448b565b60206040518083038186803b1580156124cb57600080fd5b505afa1580156124df573d6000803e3d6000fd5b505050506040513d601f19601f820116820180604052508101906125039190613d25565b811015612545576040517f08c379a000000000000000000000000000000000000000000000000000000000815260040161253c9061442e565b60405180910390fd5b60008673ffffffffffffffffffffffffffffffffffffffff16639592de18866040518263ffffffff1660e01b8152600401612580919061448b565b60206040518083038186803b15801561259857600080fd5b505afa1580156125ac573d6000803e3d6000fd5b505050506040513d601f19601f820116820180604052508101906125d09190613d25565b905060008773ffffffffffffffffffffffffffffffffffffffff1663e107fb4f84876040518363ffffffff1660e01b815260040161260f9291906144a6565b60206040518083038186803b15801561262757600080fd5b505afa15801561263b573d6000803e3d6000fd5b505050506040513d601f19601f8201168201806040525081019061265f9190613d25565b9050600061266e898585610426565b905081816060015161268091906145f9565b945050505050949350505050565b60008273ffffffffffffffffffffffffffffffffffffffff1663652c8ded836040518263ffffffff1660e01b81526004016126c9919061448b565b60006040518083038186803b1580156126e157600080fd5b505afa1580156126f5573d6000803e3d6000fd5b5050505060008373ffffffffffffffffffffffffffffffffffffffff16638f9eca826040518163ffffffff1660e01b815260040160206040518083038186803b15801561274157600080fd5b505afa158015612755573d6000803e3d6000fd5b505050506040513d601f19601f820116820180604052508101906127799190613a47565b905060008473ffffffffffffffffffffffffffffffffffffffff1663f45e65d86040518163ffffffff1660e01b815260040160206040518083038186803b1580156127c357600080fd5b505afa1580156127d7573d6000803e3d6000fd5b505050506040513d601f19601f820116820180604052508101906127fb9190613d25565b9050600061280986866119bc565b905060008160200151826040015161282191906146da565b905083156128935761287c6040518060200160405280838560a001518660c0015161284c91906146da565b612856919061464f565b7bffffffffffffffffffffffffffffffffffffffffffffffffffffffff16815250613786565b6dffffffffffffffffffffffffffff1694506128fa565b6128e76040518060200160405280838560e001518661010001516128b791906146da565b6128c1919061464f565b7bffffffffffffffffffffffffffffffffffffffffffffffffffffffff16815250613786565b6dffffffffffffffffffffffffffff1694505b82856129069190614680565b94505050505092915050565b606060008267ffffffffffffffff811115612956577f4e487b7100000000000000000000000000000000000000000000000000000000600052604160045260246000fd5b60405190808252806020026020018201604052801561298f57816020015b61297c613836565b8152602001906001900390816129745790505b5091506000806000600367ffffffffffffffff8111156129d8577f4e487b7100000000000000000000000000000000000000000000000000000000600052604160045260246000fd5b604051908082528060200260200182016040528015612a065781602001602082028036833780820191505090505b5090508a73ffffffffffffffffffffffffffffffffffffffff1663ef78d4fd6040518163ffffffff1660e01b815260040160206040518083038186803b158015612a4f57600080fd5b505afa158015612a63573d6000803e3d6000fd5b505050506040513d601f19601f82011682018060405250810190612a879190613d25565b81600281518110612ac1577f4e487b7100000000000000000000000000000000000000000000000000000000600052603260045260246000fd5b602002602001018181525050606060008a90505b898111613065578c73ffffffffffffffffffffffffffffffffffffffff1663f109db84826040518263ffffffff1660e01b8152600401612b15919061448b565b60206040518083038186803b158015612b2d57600080fd5b505afa158015612b41573d6000803e3d6000fd5b505050506040513d601f19601f82011682018060405250810190612b659190613cfc565b935060016002811115612ba1577f4e487b7100000000000000000000000000000000000000000000000000000000600052602160045260246000fd5b846002811115612bda577f4e487b7100000000000000000000000000000000000000000000000000000000600052602160045260246000fd5b1415613011578c73ffffffffffffffffffffffffffffffffffffffff1663ab02f2a9826040518263ffffffff1660e01b8152600401612c19919061448b565b60006040518083038186803b158015612c3157600080fd5b505afa158015612c45573d6000803e3d6000fd5b505050506040513d6000823e3d601f19601f82011682018060405250810190612c6e9190613a06565b915060005b825181101561300f578d73ffffffffffffffffffffffffffffffffffffffff1663b93dafa983858481518110612cd2577f4e487b7100000000000000000000000000000000000000000000000000000000600052603260045260246000fd5b60200260200101516040518363ffffffff1660e01b8152600401612cf79291906144a6565b60a06040518083038186803b158015612d0f57600080fd5b505afa158015612d23573d6000803e3d6000fd5b505050506040513d601f19601f82011682018060405250810190612d479190613d4e565b909192935090919250905050809650508c73ffffffffffffffffffffffffffffffffffffffff168673ffffffffffffffffffffffffffffffffffffffff161415612ffc57888a612d979190614680565b84600081518110612dd1577f4e487b7100000000000000000000000000000000000000000000000000000000600052603260045260246000fd5b602002602001015110158015612e3e57508860018b612df091906145f9565b612dfa9190614680565b84600081518110612e34577f4e487b7100000000000000000000000000000000000000000000000000000000600052603260045260246000fd5b6020026020010151105b15612f6757612e4d8e836119bc565b8885600181518110612e88577f4e487b7100000000000000000000000000000000000000000000000000000000600052603260045260246000fd5b602002602001015181518110612ec7577f4e487b7100000000000000000000000000000000000000000000000000000000600052603260045260246000fd5b6020026020010181905250600184600181518110612f0e577f4e487b7100000000000000000000000000000000000000000000000000000000600052603260045260246000fd5b6020026020010151612f2091906145f9565b84600181518110612f5a577f4e487b7100000000000000000000000000000000000000000000000000000000600052603260045260246000fd5b6020026020010181815250505b600184600081518110612fa3577f4e487b7100000000000000000000000000000000000000000000000000000000600052603260045260246000fd5b6020026020010151612fb591906145f9565b84600081518110612fef577f4e487b7100000000000000000000000000000000000000000000000000000000600052603260045260246000fd5b6020026020010181815250505b8080613007906147b2565b915050612c73565b505b8260028151811061304b577f4e487b7100000000000000000000000000000000000000000000000000000000600052603260045260246000fd5b60200260200101518161305e91906145f9565b9050612ad5565b508660018961307491906145f9565b61307e9190614680565b826000815181106130b8577f4e487b7100000000000000000000000000000000000000000000000000000000600052603260045260246000fd5b6020026020010151111561312557878783600081518110613102577f4e487b7100000000000000000000000000000000000000000000000000000000600052603260045260246000fd5b6020026020010151613114919061464f565b61311e91906146da565b945061312a565b600094505b50505050965096945050505050565b606060008267ffffffffffffffff81111561317d577f4e487b7100000000000000000000000000000000000000000000000000000000600052604160045260246000fd5b6040519080825280602002602001820160405280156131b657816020015b6131a36137b9565b81526020019060019003908161319b5790505b50915060606000600367ffffffffffffffff8111156131fe577f4e487b7100000000000000000000000000000000000000000000000000000000600052604160045260246000fd5b60405190808252806020026020018201604052801561322c5781602001602082028036833780820191505090505b5090508873ffffffffffffffffffffffffffffffffffffffff1663ef78d4fd6040518163ffffffff1660e01b815260040160206040518083038186803b15801561327557600080fd5b505afa158015613289573d6000803e3d6000fd5b505050506040513d601f19601f820116820180604052508101906132ad9190613d25565b816002815181106132e7577f4e487b7100000000000000000000000000000000000000000000000000000000600052603260045260246000fd5b60200260200101818152505060008890505b8781116136b5578973ffffffffffffffffffffffffffffffffffffffff1663ab02f2a9826040518263ffffffff1660e01b8152600401613339919061448b565b60006040518083038186803b15801561335157600080fd5b505afa158015613365573d6000803e3d6000fd5b505050506040513d6000823e3d601f19601f8201168201806040525081019061338e9190613a06565b925060005b83518110156136605786886133a89190614680565b836000815181106133e2577f4e487b7100000000000000000000000000000000000000000000000000000000600052603260045260246000fd5b60200260200101511015801561344f57508660018961340191906145f9565b61340b9190614680565b83600081518110613445577f4e487b7100000000000000000000000000000000000000000000000000000000600052603260045260246000fd5b6020026020010151105b156135b95761349f8b83868481518110613492577f4e487b7100000000000000000000000000000000000000000000000000000000600052603260045260246000fd5b6020026020010151610426565b86846001815181106134da577f4e487b7100000000000000000000000000000000000000000000000000000000600052603260045260246000fd5b602002602001015181518110613519577f4e487b7100000000000000000000000000000000000000000000000000000000600052603260045260246000fd5b6020026020010181905250600183600181518110613560577f4e487b7100000000000000000000000000000000000000000000000000000000600052603260045260246000fd5b602002602001015161357291906145f9565b836001815181106135ac577f4e487b7100000000000000000000000000000000000000000000000000000000600052603260045260246000fd5b6020026020010181815250505b6001836000815181106135f5577f4e487b7100000000000000000000000000000000000000000000000000000000600052603260045260246000fd5b602002602001015161360791906145f9565b83600081518110613641577f4e487b7100000000000000000000000000000000000000000000000000000000600052603260045260246000fd5b6020026020010181815250508080613658906147b2565b915050613393565b508160028151811061369b577f4e487b7100000000000000000000000000000000000000000000000000000000600052603260045260246000fd5b6020026020010151816136ae91906145f9565b90506132f9565b50846001876136c491906145f9565b6136ce9190614680565b81600081518110613708577f4e487b7100000000000000000000000000000000000000000000000000000000600052603260045260246000fd5b6020026020010151111561377557858582600081518110613752577f4e487b7100000000000000000000000000000000000000000000000000000000600052603260045260246000fd5b6020026020010151613764919061464f565b61376e91906146da565b925061377a565b600092505b50509550959350505050565b6000607060ff1682600001517bffffffffffffffffffffffffffffffffffffffffffffffffffffffff16901c9050919050565b6040518060a001604052806000815260200160008152602001600073ffffffffffffffffffffffffffffffffffffffff1681526020016000815260200160006002811115613830577f4e487b7100000000000000000000000000000000000000000000000000000000600052602160045260246000fd5b81525090565b604051806101600160405280600081526020016000815260200160008152602001600081526020016000815260200160008152602001600081526020016000815260200160008152602001600060028111156138bb577f4e487b7100000000000000000000000000000000000000000000000000000000600052602160045260246000fd5b8152602001606081525090565b60006138db6138d684614500565b6144cf565b905080838252602082019050828560208602820111156138fa57600080fd5b60005b8581101561392a578161391088826139f1565b8452602084019350602083019250506001810190506138fd565b5050509392505050565b600081359050613943816148df565b92915050565b600081519050613958816148df565b92915050565b600082601f83011261396f57600080fd5b815161397f8482602086016138c8565b91505092915050565b600081519050613997816148f6565b92915050565b6000813590506139ac8161490d565b92915050565b6000815190506139c181614924565b92915050565b6000815190506139d681614934565b92915050565b6000813590506139eb81614944565b92915050565b600081519050613a0081614944565b92915050565b600060208284031215613a1857600080fd5b600082015167ffffffffffffffff811115613a3257600080fd5b613a3e8482850161395e565b91505092915050565b600060208284031215613a5957600080fd5b6000613a6784828501613988565b91505092915050565b60008060008060008060c08789031215613a8957600080fd5b6000613a9789828a0161399d565b9650506020613aa889828a01613934565b9550506040613ab989828a016139dc565b9450506060613aca89828a016139dc565b9350506080613adb89828a016139dc565b92505060a0613aec89828a016139dc565b9150509295509295509295565b600080600080600080600060e0888a031215613b1457600080fd5b6000613b228a828b0161399d565b9750506020613b338a828b01613934565b9650506040613b448a828b016139dc565b9550506060613b558a828b016139dc565b9450506080613b668a828b016139dc565b93505060a0613b778a828b016139dc565b92505060c0613b888a828b016139dc565b91505092959891949750929550565b60008060408385031215613baa57600080fd5b6000613bb88582860161399d565b9250506020613bc9858286016139dc565b9150509250929050565b600080600060608486031215613be857600080fd5b6000613bf68682870161399d565b9350506020613c07868287016139dc565b9250506040613c18868287016139dc565b9150509250925092565b60008060008060808587031215613c3857600080fd5b6000613c468782880161399d565b9450506020613c57878288016139dc565b9350506040613c68878288016139dc565b9250506060613c79878288016139dc565b91505092959194509250565b600080600080600060a08688031215613c9d57600080fd5b6000613cab8882890161399d565b9550506020613cbc888289016139dc565b9450506040613ccd888289016139dc565b9350506060613cde888289016139dc565b9250506080613cef888289016139dc565b9150509295509295909350565b600060208284031215613d0e57600080fd5b6000613d1c848285016139b2565b91505092915050565b600060208284031215613d3757600080fd5b6000613d45848285016139f1565b91505092915050565b600080600080600060a08688031215613d6657600080fd5b6000613d74888289016139f1565b9550506020613d85888289016139f1565b9450506040613d9688828901613949565b9350506060613da7888289016139f1565b9250506080613db8888289016139c7565b9150509295509295909350565b6000806000806000806000806000806101408b8d031215613de557600080fd5b6000613df38d828e016139f1565b9a50506020613e048d828e016139f1565b9950506040613e158d828e016139f1565b9850506060613e268d828e016139f1565b9750506080613e378d828e016139f1565b96505060a0613e488d828e016139f1565b95505060c0613e598d828e016139f1565b94505060e0613e6a8d828e016139f1565b935050610100613e7c8d828e016139f1565b925050610120613e8e8d828e016139b2565b9150509295989b9194979a5092959850565b6000613eac83836140e0565b905092915050565b6000613ec083836142be565b60a08301905092915050565b6000613ed8838361438e565b60208301905092915050565b613eed8161470e565b82525050565b6000613efe8261455c565b613f0881856145a4565b935083602082028501613f1a8561452c565b8060005b85811015613f565784840389528151613f378582613ea0565b9450613f428361457d565b925060208a01995050600181019050613f1e565b50829750879550505050505092915050565b6000613f7382614567565b613f7d81856145b5565b9350613f888361453c565b8060005b83811015613fb9578151613fa08882613eb4565b9750613fab8361458a565b925050600181019050613f8c565b5085935050505092915050565b6000613fd182614572565b613fdb81856145c6565b9350613fe68361454c565b8060005b83811015614017578151613ffe8882613ecc565b975061400983614597565b925050600181019050613fea565b5085935050505092915050565b600061402f82614572565b61403981856145d7565b93506140448361454c565b8060005b8381101561407557815161405c8882613ecc565b975061406783614597565b925050600181019050614048565b5085935050505092915050565b61408b8161478e565b82525050565b61409a816147a0565b82525050565b60006140ad601b836145e8565b91507f54484953204c4f5420495320494e20412050415354204652414d4500000000006000830152602082019050919050565b6000610160830160008301516140f9600086018261438e565b50602083015161410c602086018261438e565b50604083015161411f604086018261438e565b506060830151614132606086018261438e565b506080830151614145608086018261438e565b5060a083015161415860a086018261438e565b5060c083015161416b60c086018261438e565b5060e083015161417e60e086018261438e565b5061010083015161419361010086018261438e565b506101208301516141a8610120860182614082565b506101408301518482036101408601526141c28282613fc6565b9150508091505092915050565b6000610160830160008301516141e8600086018261438e565b5060208301516141fb602086018261438e565b50604083015161420e604086018261438e565b506060830151614221606086018261438e565b506080830151614234608086018261438e565b5060a083015161424760a086018261438e565b5060c083015161425a60c086018261438e565b5060e083015161426d60e086018261438e565b5061010083015161428261010086018261438e565b50610120830151614297610120860182614082565b506101408301518482036101408601526142b18282613fc6565b9150508091505092915050565b60a0820160008201516142d4600085018261438e565b5060208201516142e7602085018261438e565b5060408201516142fa6040850182613ee4565b50606082015161430d606085018261438e565b5060808201516143206080850182614091565b50505050565b60a08201600082015161433c600085018261438e565b50602082015161434f602085018261438e565b5060408201516143626040850182613ee4565b506060820151614375606085018261438e565b5060808201516143886080850182614091565b50505050565b61439781614784565b82525050565b6143a681614784565b82525050565b600060408201905081810360008301526143c68185613ef3565b90506143d5602083018461439d565b9392505050565b600060408201905081810360008301526143f68185613f68565b9050614405602083018461439d565b9392505050565b600060208201905081810360008301526144268184614024565b905092915050565b60006020820190508181036000830152614447816140a0565b9050919050565b6000602082019050818103600083015261446881846141cf565b905092915050565b600060a0820190506144856000830184614326565b92915050565b60006020820190506144a0600083018461439d565b92915050565b60006040820190506144bb600083018561439d565b6144c8602083018461439d565b9392505050565b6000604051905081810181811067ffffffffffffffff821117156144f6576144f5614888565b5b8060405250919050565b600067ffffffffffffffff82111561451b5761451a614888565b5b602082029050602081019050919050565b6000819050602082019050919050565b6000819050602082019050919050565b6000819050602082019050919050565b600081519050919050565b600081519050919050565b600081519050919050565b6000602082019050919050565b6000602082019050919050565b6000602082019050919050565b600082825260208201905092915050565b600082825260208201905092915050565b600082825260208201905092915050565b600082825260208201905092915050565b600082825260208201905092915050565b600061460482614784565b915061460f83614784565b9250827fffffffffffffffffffffffffffffffffffffffffffffffffffffffffffffffff03821115614644576146436147fb565b5b828201905092915050565b600061465a82614784565b915061466583614784565b9250826146755761467461482a565b5b828204905092915050565b600061468b82614784565b915061469683614784565b9250817fffffffffffffffffffffffffffffffffffffffffffffffffffffffffffffffff04831182151516156146cf576146ce6147fb565b5b828202905092915050565b60006146e582614784565b91506146f083614784565b925082821015614703576147026147fb565b5b828203905092915050565b600061471982614764565b9050919050565b60008115159050919050565b60006147378261470e565b9050919050565b600081905061474c826148b7565b919050565b600081905061475f826148cb565b919050565b600073ffffffffffffffffffffffffffffffffffffffff82169050919050565b6000819050919050565b60006147998261473e565b9050919050565b60006147ab82614751565b9050919050565b60006147bd82614784565b91507fffffffffffffffffffffffffffffffffffffffffffffffffffffffffffffffff8214156147f0576147ef6147fb565b5b600182019050919050565b7f4e487b7100000000000000000000000000000000000000000000000000000000600052601160045260246000fd5b7f4e487b7100000000000000000000000000000000000000000000000000000000600052601260045260246000fd5b7f4e487b7100000000000000000000000000000000000000000000000000000000600052602160045260246000fd5b7f4e487b7100000000000000000000000000000000000000000000000000000000600052604160045260246000fd5b600381106148c8576148c7614859565b5b50565b600381106148dc576148db614859565b5b50565b6148e88161470e565b81146148f357600080fd5b50565b6148ff81614720565b811461490a57600080fd5b50565b6149168161472c565b811461492157600080fd5b50565b6003811061493157600080fd5b50565b6003811061494157600080fd5b50565b61494d81614784565b811461495857600080fd5b5056fea2646970667358221220d181878144fc41dedc150dcf46c43df7f6f47358af7ea2ad56645f096c469fa464736f6c63430008000033",
  "linkReferences": {},
  "deployedLinkReferences": {}
}