{
  "_format": "hh-sol-artifact-1",
  "contractName": "MarketGetter",
  "sourceName": "contracts/MarketGetter.sol",
  "abi": [
    {
      "inputs": [
        {
          "internalType": "contract Market",
          "name": "market",
          "type": "address"
        },
        {
          "internalType": "uint256",
          "name": "timestamp",
          "type": "uint256"
        },
        {
          "internalType": "uint256",
          "name": "pairPrice",
          "type": "uint256"
        },
        {
          "internalType": "uint256",
          "name": "acqPrice",
          "type": "uint256"
        }
      ],
      "name": "clcAmountToApprove",
      "outputs": [
        {
          "internalType": "uint256",
          "name": "approvalAmnt",
          "type": "uint256"
        }
      ],
      "stateMutability": "view",
      "type": "function"
    },
    {
      "inputs": [
        {
          "internalType": "contract Market",
          "name": "market",
          "type": "address"
        },
        {
          "internalType": "uint256",
          "name": "timestamp",
          "type": "uint256"
        },
        {
          "internalType": "uint256",
          "name": "pairPrice",
          "type": "uint256"
        },
        {
          "internalType": "uint256",
          "name": "acqPrice",
          "type": "uint256"
        }
      ],
      "name": "clcAmountToApproveForUpdate",
      "outputs": [
        {
          "internalType": "uint256",
          "name": "amnt",
          "type": "uint256"
        }
      ],
      "stateMutability": "view",
      "type": "function"
    },
    {
      "inputs": [
        {
          "internalType": "contract Market",
          "name": "market",
          "type": "address"
        },
        {
          "internalType": "uint256",
          "name": "frameKey",
          "type": "uint256"
        }
      ],
      "name": "getFrameStruct",
      "outputs": [
        {
          "components": [
            {
              "internalType": "uint256",
              "name": "frameKey",
              "type": "uint256"
            },
            {
              "internalType": "uint256",
              "name": "rate",
              "type": "uint256"
            },
            {
              "internalType": "uint256[]",
              "name": "lotKeys",
              "type": "uint256[]"
            },
            {
              "internalType": "address",
              "name": "claimedBy",
              "type": "address"
            },
            {
              "internalType": "uint256",
              "name": "rateSettle",
              "type": "uint256"
            },
            {
              "internalType": "uint256",
              "name": "feeSettle",
              "type": "uint256"
            },
            {
              "internalType": "uint256",
              "name": "rewardSettle",
              "type": "uint256"
            },
            {
              "internalType": "uint256",
              "name": "feeReferral",
              "type": "uint256"
            }
          ],
          "internalType": "struct Market.Frame",
          "name": "",
          "type": "tuple"
        }
      ],
      "stateMutability": "view",
      "type": "function"
    },
    {
      "inputs": [
        {
          "internalType": "contract Market",
          "name": "market",
          "type": "address"
        },
        {
          "internalType": "uint256",
          "name": "frameKey_start",
          "type": "uint256"
        },
        {
          "internalType": "uint256",
          "name": "frameKey_end",
          "type": "uint256"
        },
        {
          "internalType": "uint256",
          "name": "page",
          "type": "uint256"
        },
        {
          "internalType": "uint256",
          "name": "perPage",
          "type": "uint256"
        }
      ],
      "name": "getFrames",
      "outputs": [
        {
          "components": [
            {
              "internalType": "uint256",
              "name": "frameKey",
              "type": "uint256"
            },
            {
              "internalType": "uint256",
              "name": "rate",
              "type": "uint256"
            },
            {
              "internalType": "uint256[]",
              "name": "lotKeys",
              "type": "uint256[]"
            },
            {
              "internalType": "address",
              "name": "claimedBy",
              "type": "address"
            },
            {
              "internalType": "uint256",
              "name": "rateSettle",
              "type": "uint256"
            },
            {
              "internalType": "uint256",
              "name": "feeSettle",
              "type": "uint256"
            },
            {
              "internalType": "uint256",
              "name": "rewardSettle",
              "type": "uint256"
            },
            {
              "internalType": "uint256",
              "name": "feeReferral",
              "type": "uint256"
            }
          ],
          "internalType": "struct Market.Frame[]",
          "name": "frames",
          "type": "tuple[]"
        },
        {
          "internalType": "uint256",
          "name": "pagesLeft",
          "type": "uint256"
        }
      ],
      "stateMutability": "view",
      "type": "function"
    },
    {
      "inputs": [
        {
          "internalType": "contract Market",
          "name": "market",
          "type": "address"
        },
        {
          "internalType": "uint256",
          "name": "startIndex",
          "type": "uint256"
        },
        {
          "internalType": "uint256",
          "name": "endIndex",
          "type": "uint256"
        }
      ],
      "name": "getFramesByIndex",
      "outputs": [
        {
          "components": [
            {
              "internalType": "uint256",
              "name": "frameKey",
              "type": "uint256"
            },
            {
              "internalType": "uint256",
              "name": "rate",
              "type": "uint256"
            },
            {
              "internalType": "uint256[]",
              "name": "lotKeys",
              "type": "uint256[]"
            },
            {
              "internalType": "address",
              "name": "claimedBy",
              "type": "address"
            },
            {
              "internalType": "uint256",
              "name": "rateSettle",
              "type": "uint256"
            },
            {
              "internalType": "uint256",
              "name": "feeSettle",
              "type": "uint256"
            },
            {
              "internalType": "uint256",
              "name": "rewardSettle",
              "type": "uint256"
            },
            {
              "internalType": "uint256",
              "name": "feeReferral",
              "type": "uint256"
            }
          ],
          "internalType": "struct Market.Frame[]",
          "name": "frames",
          "type": "tuple[]"
        }
      ],
      "stateMutability": "view",
      "type": "function"
    },
    {
      "inputs": [
        {
          "internalType": "contract Market",
          "name": "market",
          "type": "address"
        },
        {
          "internalType": "address",
          "name": "user",
          "type": "address"
        },
        {
          "internalType": "uint256",
          "name": "frameKey_start",
          "type": "uint256"
        },
        {
          "internalType": "uint256",
          "name": "frameKey_end",
          "type": "uint256"
        },
        {
          "internalType": "uint256",
          "name": "page",
          "type": "uint256"
        },
        {
          "internalType": "uint256",
          "name": "perPage",
          "type": "uint256"
        }
      ],
      "name": "getFramesUser",
      "outputs": [
        {
          "components": [
            {
              "internalType": "uint256",
              "name": "frameKey",
              "type": "uint256"
            },
            {
              "internalType": "uint256",
              "name": "rate",
              "type": "uint256"
            },
            {
              "internalType": "uint256[]",
              "name": "lotKeys",
              "type": "uint256[]"
            },
            {
              "internalType": "address",
              "name": "claimedBy",
              "type": "address"
            },
            {
              "internalType": "uint256",
              "name": "rateSettle",
              "type": "uint256"
            },
            {
              "internalType": "uint256",
              "name": "feeSettle",
              "type": "uint256"
            },
            {
              "internalType": "uint256",
              "name": "rewardSettle",
              "type": "uint256"
            },
            {
              "internalType": "uint256",
              "name": "feeReferral",
              "type": "uint256"
            }
          ],
          "internalType": "struct Market.Frame[]",
          "name": "userFrames",
          "type": "tuple[]"
        },
        {
          "internalType": "uint256",
          "name": "pagesLeft",
          "type": "uint256"
        }
      ],
      "stateMutability": "view",
      "type": "function"
    },
    {
      "inputs": [
        {
          "internalType": "contract Market",
          "name": "market",
          "type": "address"
        },
        {
          "internalType": "uint256",
          "name": "frameKey",
          "type": "uint256"
        },
        {
          "internalType": "uint256",
          "name": "index",
          "type": "uint256"
        }
      ],
      "name": "getLotKey",
      "outputs": [
        {
          "internalType": "uint256",
          "name": "",
          "type": "uint256"
        }
      ],
      "stateMutability": "view",
      "type": "function"
    },
    {
      "inputs": [
        {
          "internalType": "contract Market",
          "name": "market",
          "type": "address"
        },
        {
          "internalType": "uint256",
          "name": "frameKey",
          "type": "uint256"
        },
        {
          "internalType": "uint256",
          "name": "lotKey",
          "type": "uint256"
        }
      ],
      "name": "getLotStruct",
      "outputs": [
        {
          "components": [
            {
              "internalType": "uint256",
              "name": "frameKey",
              "type": "uint256"
            },
            {
              "internalType": "uint256",
              "name": "lotKey",
              "type": "uint256"
            },
            {
              "components": [
                {
                  "internalType": "uint256",
                  "name": "blockNumber",
                  "type": "uint256"
                },
                {
                  "internalType": "uint256",
                  "name": "blockTimestamp",
                  "type": "uint256"
                },
                {
                  "internalType": "address",
                  "name": "owner",
                  "type": "address"
                },
                {
                  "internalType": "uint256",
                  "name": "acquisitionPrice",
                  "type": "uint256"
                },
                {
                  "internalType": "uint256",
                  "name": "taxCharged",
                  "type": "uint256"
                },
                {
                  "internalType": "uint256",
                  "name": "taxRefunded",
                  "type": "uint256"
                }
              ],
              "internalType": "struct Market.LotState[]",
              "name": "states",
              "type": "tuple[]"
            }
          ],
          "internalType": "struct Market.Lot",
          "name": "",
          "type": "tuple"
        }
      ],
      "stateMutability": "view",
      "type": "function"
    },
    {
      "inputs": [
        {
          "internalType": "contract Market",
          "name": "market",
          "type": "address"
        },
        {
          "internalType": "uint256",
          "name": "frameKey_start",
          "type": "uint256"
        },
        {
          "internalType": "uint256",
          "name": "frameKey_end",
          "type": "uint256"
        },
        {
          "internalType": "uint256",
          "name": "page",
          "type": "uint256"
        },
        {
          "internalType": "uint256",
          "name": "perPage",
          "type": "uint256"
        }
      ],
      "name": "getLots",
      "outputs": [
        {
          "components": [
            {
              "internalType": "uint256",
              "name": "frameKey",
              "type": "uint256"
            },
            {
              "internalType": "uint256",
              "name": "lotKey",
              "type": "uint256"
            },
            {
              "components": [
                {
                  "internalType": "uint256",
                  "name": "blockNumber",
                  "type": "uint256"
                },
                {
                  "internalType": "uint256",
                  "name": "blockTimestamp",
                  "type": "uint256"
                },
                {
                  "internalType": "address",
                  "name": "owner",
                  "type": "address"
                },
                {
                  "internalType": "uint256",
                  "name": "acquisitionPrice",
                  "type": "uint256"
                },
                {
                  "internalType": "uint256",
                  "name": "taxCharged",
                  "type": "uint256"
                },
                {
                  "internalType": "uint256",
                  "name": "taxRefunded",
                  "type": "uint256"
                }
              ],
              "internalType": "struct Market.LotState[]",
              "name": "states",
              "type": "tuple[]"
            }
          ],
          "internalType": "struct Market.Lot[]",
          "name": "lots",
          "type": "tuple[]"
        },
        {
          "internalType": "uint256",
          "name": "pagesLeft",
          "type": "uint256"
        }
      ],
      "stateMutability": "view",
      "type": "function"
    },
    {
      "inputs": [
        {
          "internalType": "contract Market",
          "name": "market",
          "type": "address"
        },
        {
          "internalType": "uint256",
          "name": "frameKey",
          "type": "uint256"
        },
        {
          "internalType": "uint256",
          "name": "startIndex",
          "type": "uint256"
        },
        {
          "internalType": "uint256",
          "name": "endIndex",
          "type": "uint256"
        }
      ],
      "name": "getLotsByIndex",
      "outputs": [
        {
          "components": [
            {
              "internalType": "uint256",
              "name": "frameKey",
              "type": "uint256"
            },
            {
              "internalType": "uint256",
              "name": "lotKey",
              "type": "uint256"
            },
            {
              "components": [
                {
                  "internalType": "uint256",
                  "name": "blockNumber",
                  "type": "uint256"
                },
                {
                  "internalType": "uint256",
                  "name": "blockTimestamp",
                  "type": "uint256"
                },
                {
                  "internalType": "address",
                  "name": "owner",
                  "type": "address"
                },
                {
                  "internalType": "uint256",
                  "name": "acquisitionPrice",
                  "type": "uint256"
                },
                {
                  "internalType": "uint256",
                  "name": "taxCharged",
                  "type": "uint256"
                },
                {
                  "internalType": "uint256",
                  "name": "taxRefunded",
                  "type": "uint256"
                }
              ],
              "internalType": "struct Market.LotState[]",
              "name": "states",
              "type": "tuple[]"
            }
          ],
          "internalType": "struct Market.Lot[]",
          "name": "lots",
          "type": "tuple[]"
        }
      ],
      "stateMutability": "view",
      "type": "function"
    },
    {
      "inputs": [
        {
          "internalType": "contract Market",
          "name": "market",
          "type": "address"
        },
        {
          "internalType": "uint256",
          "name": "frameKey",
          "type": "uint256"
        }
      ],
      "name": "getLotsCount",
      "outputs": [
        {
          "internalType": "uint256",
          "name": "",
          "type": "uint256"
        }
      ],
      "stateMutability": "view",
      "type": "function"
    },
    {
      "inputs": [
        {
          "internalType": "contract Market",
          "name": "market",
          "type": "address"
        },
        {
          "internalType": "address",
          "name": "user",
          "type": "address"
        },
        {
          "internalType": "uint256",
          "name": "mode",
          "type": "uint256"
        },
        {
          "internalType": "uint256",
          "name": "frameKey_start",
          "type": "uint256"
        },
        {
          "internalType": "uint256",
          "name": "frameKey_end",
          "type": "uint256"
        },
        {
          "internalType": "uint256",
          "name": "page",
          "type": "uint256"
        },
        {
          "internalType": "uint256",
          "name": "perPage",
          "type": "uint256"
        }
      ],
      "name": "getLotsSoldUser",
      "outputs": [
        {
          "components": [
            {
              "internalType": "uint256",
              "name": "frameKey",
              "type": "uint256"
            },
            {
              "internalType": "uint256",
              "name": "lotKey",
              "type": "uint256"
            },
            {
              "components": [
                {
                  "internalType": "uint256",
                  "name": "blockNumber",
                  "type": "uint256"
                },
                {
                  "internalType": "uint256",
                  "name": "blockTimestamp",
                  "type": "uint256"
                },
                {
                  "internalType": "address",
                  "name": "owner",
                  "type": "address"
                },
                {
                  "internalType": "uint256",
                  "name": "acquisitionPrice",
                  "type": "uint256"
                },
                {
                  "internalType": "uint256",
                  "name": "taxCharged",
                  "type": "uint256"
                },
                {
                  "internalType": "uint256",
                  "name": "taxRefunded",
                  "type": "uint256"
                }
              ],
              "internalType": "struct Market.LotState[]",
              "name": "states",
              "type": "tuple[]"
            }
          ],
          "internalType": "struct Market.Lot[]",
          "name": "userLots",
          "type": "tuple[]"
        },
        {
          "internalType": "uint256",
          "name": "pagesLeft",
          "type": "uint256"
        }
      ],
      "stateMutability": "view",
      "type": "function"
    },
    {
      "inputs": [
        {
          "internalType": "contract Market",
          "name": "market",
          "type": "address"
        },
        {
          "internalType": "address",
          "name": "user",
          "type": "address"
        },
        {
          "internalType": "uint256",
          "name": "mode",
          "type": "uint256"
        },
        {
          "internalType": "uint256",
          "name": "frameKey_start",
          "type": "uint256"
        },
        {
          "internalType": "uint256",
          "name": "frameKey_end",
          "type": "uint256"
        },
        {
          "internalType": "uint256",
          "name": "page",
          "type": "uint256"
        },
        {
          "internalType": "uint256",
          "name": "perPage",
          "type": "uint256"
        }
      ],
      "name": "getLotsUser",
      "outputs": [
        {
          "components": [
            {
              "internalType": "uint256",
              "name": "frameKey",
              "type": "uint256"
            },
            {
              "internalType": "uint256",
              "name": "lotKey",
              "type": "uint256"
            },
            {
              "components": [
                {
                  "internalType": "uint256",
                  "name": "blockNumber",
                  "type": "uint256"
                },
                {
                  "internalType": "uint256",
                  "name": "blockTimestamp",
                  "type": "uint256"
                },
                {
                  "internalType": "address",
                  "name": "owner",
                  "type": "address"
                },
                {
                  "internalType": "uint256",
                  "name": "acquisitionPrice",
                  "type": "uint256"
                },
                {
                  "internalType": "uint256",
                  "name": "taxCharged",
                  "type": "uint256"
                },
                {
                  "internalType": "uint256",
                  "name": "taxRefunded",
                  "type": "uint256"
                }
              ],
              "internalType": "struct Market.LotState[]",
              "name": "states",
              "type": "tuple[]"
            }
          ],
          "internalType": "struct Market.Lot[]",
          "name": "userLots",
          "type": "tuple[]"
        },
        {
          "internalType": "uint256",
          "name": "pagesLeft",
          "type": "uint256"
        }
      ],
      "stateMutability": "view",
      "type": "function"
    },
    {
      "inputs": [
        {
          "internalType": "contract Market",
          "name": "market",
          "type": "address"
        },
        {
          "internalType": "uint256",
          "name": "firstUserIndex",
          "type": "uint256"
        },
        {
          "internalType": "uint256",
          "name": "lastUserIndex",
          "type": "uint256"
        },
        {
          "internalType": "uint256",
          "name": "frameKeyStart",
          "type": "uint256"
        },
        {
          "internalType": "uint256",
          "name": "frameKeyEnd",
          "type": "uint256"
        }
      ],
      "name": "getMultipleUsersRewards",
      "outputs": [
        {
          "internalType": "uint256",
          "name": "comulativeReward",
          "type": "uint256"
        },
        {
          "internalType": "uint256[]",
          "name": "rewards",
          "type": "uint256[]"
        }
      ],
      "stateMutability": "view",
      "type": "function"
    },
    {
      "inputs": [
        {
          "internalType": "contract Market",
          "name": "market",
          "type": "address"
        },
        {
          "internalType": "uint256",
          "name": "startFrame",
          "type": "uint256"
        },
        {
          "internalType": "uint256",
          "name": "numOfFrames",
          "type": "uint256"
        }
      ],
      "name": "getOpenFrameKeys",
      "outputs": [
        {
          "internalType": "uint256[]",
          "name": "openFrames",
          "type": "uint256[]"
        }
      ],
      "stateMutability": "view",
      "type": "function"
    },
    {
      "inputs": [
        {
          "internalType": "contract Market",
          "name": "market",
          "type": "address"
        },
        {
          "internalType": "uint256",
          "name": "frameKey",
          "type": "uint256"
        }
      ],
      "name": "getRewardAmount",
      "outputs": [
        {
          "internalType": "uint256",
          "name": "",
          "type": "uint256"
        }
      ],
      "stateMutability": "view",
      "type": "function"
    },
    {
      "inputs": [
        {
          "internalType": "contract Market",
          "name": "market",
          "type": "address"
        },
        {
          "internalType": "uint256",
          "name": "frameKey",
          "type": "uint256"
        }
      ],
      "name": "getRewardAmountMin",
      "outputs": [
        {
          "internalType": "uint256",
          "name": "rewardFund",
          "type": "uint256"
        }
      ],
      "stateMutability": "view",
      "type": "function"
    },
    {
      "inputs": [
        {
          "internalType": "contract Market",
          "name": "market",
          "type": "address"
        },
        {
          "internalType": "address",
          "name": "user",
          "type": "address"
        },
        {
          "internalType": "uint256",
          "name": "frameKeyStart",
          "type": "uint256"
        },
        {
          "internalType": "uint256",
          "name": "frameKeyEnd",
          "type": "uint256"
        }
      ],
      "name": "getUserRewards",
      "outputs": [
        {
          "internalType": "uint256",
          "name": "reward",
          "type": "uint256"
        }
      ],
      "stateMutability": "view",
      "type": "function"
    },
    {
      "inputs": [
        {
          "internalType": "contract Market",
          "name": "market",
          "type": "address"
        },
        {
          "internalType": "address",
          "name": "user",
          "type": "address"
        }
      ],
      "name": "getUsersReferrals",
      "outputs": [
        {
          "internalType": "address[]",
          "name": "referrals",
          "type": "address[]"
        },
        {
          "internalType": "uint16",
          "name": "length",
          "type": "uint16"
        }
      ],
      "stateMutability": "view",
      "type": "function"
    }
  ],
  "bytecode": "0x608060405234801561001057600080fd5b50614a5a806100206000396000f3fe608060405234801561001057600080fd5b50600436106101215760003560e01c80639291178e116100ad578063de73259511610071578063de732595146102c0578063e32ed3cc146102d3578063f2580f26146102e6578063f6eb9ee7146102f9578063f91cbebe1461030c57600080fd5b80639291178e1461024657806398820b2214610259578063c1d013951461027a578063da4e85561461028d578063dbd20a88146102a057600080fd5b8063612d8b50116100f4578063612d8b50146101b15780636184c030146101d257806371b08d89146101f25780637f424a37146102055780638522bc381461022557600080fd5b8063281e8068146101265780632c79854f146101505780633191b50e146101715780634314b84f14610191575b600080fd5b61013961013436600461403d565b61031f565b604051610147929190614190565b60405180910390f35b61016361015e3660046141b2565b610caa565b604051908152602001610147565b61018461017f3660046141b2565b610d43565b60405161014791906142e8565b6101a461019f3660046141b2565b610fab565b60405161014791906142fb565b6101c46101bf36600461430e565b6111e4565b604051610147929190614352565b6101e56101e0366004614365565b61155a565b60405161014791906143a0565b61013961020036600461403d565b61172e565b6102186102133660046143b3565b611fe9565b60405161014791906143df565b6102386102333660046143f2565b612105565b60405161014792919061442b565b6101636102543660046143b3565b61241c565b61026c61026736600461430e565b612497565b604051610147929190614483565b610163610288366004614365565b612959565b61016361029b3660046143b3565b612c49565b6102b36102ae3660046141b2565b612d55565b60405161014791906144a4565b6101636102ce366004614365565b612f29565b6101636102e13660046144b7565b613190565b6101636102f43660046143b3565b61328e565b6101c46103073660046144fd565b6135e9565b61013961031a36600461430e565b613b0e565b6060600061032e83600161456c565b6001600160401b038111156103455761034561457f565b60405190808252806020026020018201604052801561039a57816020015b61038760405180606001604052806000815260200160008152602001606081525090565b8152602001906001900390816103635790505b50604080516003808252608082019092529193506000916060918391906020820184803683370190505090508b6001600160a01b031663ef78d4fd6040518163ffffffff1660e01b8152600401602060405180830381865afa158015610404573d6000803e3d6000fd5b505050506040513d601f19601f820116820180604052508101906104289190614595565b8160028151811061043b5761043b6145ae565b60200260200101818152505060018a1161081c57885b88811161081a5760405163bad1265360e01b8152600481018290526001600160a01b038e169063bad1265390602401602060405180830381865afa15801561049d573d6000803e3d6000fd5b505050506040513d601f19601f820116820180604052508101906104c191906145c4565b935060018460048111156104d7576104d76145e5565b036107ed57604051630122bf3160e51b8152600481018290526001600160a01b038e1690632457e62090602401600060405180830381865afa158015610521573d6000803e3d6000fd5b505050506040513d6000823e601f3d908101601f191682016040526105499190810190614676565b925060005b83518110156107eb5761057b8e8386848151811061056e5761056e6145ae565b6020026020010151610fab565b87898151811061058d5761058d6145ae565b602002602001018190525060008e6001600160a01b031663fb0d5e09848785815181106105bc576105bc6145ae565b60200260200101516040518363ffffffff1660e01b81526004016105ea929190918252602082015260400190565b600060405180830381865afa158015610607573d6000803e3d6000fd5b505050506040513d6000823e601f3d908101601f1916820160405261062f9190810190614700565b905060005b6001825161064291906147e4565b8110156107d6578e6001600160a01b0316828281518110610665576106656145ae565b6020026020010151604001516001600160a01b0316036107c4576106898a8c6147f7565b8560008151811061069c5761069c6145ae565b6020026020010151101580156106e05750896106b98c600161456c565b6106c391906147f7565b856000815181106106d6576106d66145ae565b6020026020010151105b1561077d57888a815181106106f7576106f76145ae565b60200260200101518986600181518110610713576107136145ae565b60200260200101518151811061072b5761072b6145ae565b602002602001018190525084600181518110610749576107496145ae565b6020026020010151600161075d919061456c565b85600181518110610770576107706145ae565b6020026020010181815250505b84600081518110610790576107906145ae565b602002602001015160016107a4919061456c565b856000815181106107b7576107b76145ae565b6020026020010181815250505b806107ce8161480e565b915050610634565b505080806107e39061480e565b91505061054e565b505b81600281518110610800576108006145ae565b602002602001015181610813919061456c565b9050610451565b505b8960021480610829575089155b15610c2757885b888111610c255760405163bad1265360e01b8152600481018290526001600160a01b038e169063bad1265390602401602060405180830381865afa15801561087c573d6000803e3d6000fd5b505050506040513d601f19601f820116820180604052508101906108a091906145c4565b935060028460048111156108b6576108b66145e5565b14806108d3575060048460048111156108d1576108d16145e5565b145b806108ef575060038460048111156108ed576108ed6145e5565b145b15610bf857604051630122bf3160e51b8152600481018290526001600160a01b038e1690632457e62090602401600060405180830381865afa158015610939573d6000803e3d6000fd5b505050506040513d6000823e601f3d908101601f191682016040526109619190810190614676565b925060005b8351811015610bf6576109868e8386848151811061056e5761056e6145ae565b878981518110610998576109986145ae565b602002602001018190525060008e6001600160a01b031663fb0d5e09848785815181106109c7576109c76145ae565b60200260200101516040518363ffffffff1660e01b81526004016109f5929190918252602082015260400190565b600060405180830381865afa158015610a12573d6000803e3d6000fd5b505050506040513d6000823e601f3d908101601f19168201604052610a3a9190810190614700565b905060005b60018251610a4d91906147e4565b811015610be1578e6001600160a01b0316828281518110610a7057610a706145ae565b6020026020010151604001516001600160a01b031603610bcf57610a948a8c6147f7565b85600081518110610aa757610aa76145ae565b602002602001015110158015610aeb575089610ac48c600161456c565b610ace91906147f7565b85600081518110610ae157610ae16145ae565b6020026020010151105b15610b8857888a81518110610b0257610b026145ae565b60200260200101518986600181518110610b1e57610b1e6145ae565b602002602001015181518110610b3657610b366145ae565b602002602001018190525084600181518110610b5457610b546145ae565b60200260200101516001610b68919061456c565b85600181518110610b7b57610b7b6145ae565b6020026020010181815250505b84600081518110610b9b57610b9b6145ae565b60200260200101516001610baf919061456c565b85600081518110610bc257610bc26145ae565b6020026020010181815250505b80610bd98161480e565b915050610a3f565b50508080610bee9061480e565b915050610966565b505b81600281518110610c0b57610c0b6145ae565b602002602001015181610c1e919061456c565b9050610830565b505b85610c3388600161456c565b610c3d91906147f7565b81600081518110610c5057610c506145ae565b60200260200101511115610c9657868682600081518110610c7357610c736145ae565b6020026020010151610c859190614827565b610c8f91906147e4565b9350610c9b565b600093505b50505097509795505050505050565b604051630122bf3160e51b81526004810183905260009081906001600160a01b03861690632457e62090602401600060405180830381865afa158015610cf4573d6000803e3d6000fd5b505050506040513d6000823e601f3d908101601f19168201604052610d1c9190810190614676565b9050808381518110610d3057610d306145ae565b60200260200101519150505b9392505050565b606081831115610d6e5760405162461bcd60e51b8152600401610d6590614849565b60405180910390fd5b6000846001600160a01b031663ed320aa86040518163ffffffff1660e01b8152600401602060405180830381865afa158015610dae573d6000803e3d6000fd5b505050506040513d601f19601f82011682018060405250810190610dd29190614595565b905060008111610e245760405162461bcd60e51b815260206004820152601760248201527f4e6f206672616d657320696e20746865206d61726b65740000000000000000006044820152606401610d65565b838111610e735760405162461bcd60e51b815260206004820152601b60248201527f7374617274496e646578206973206f7574206f6620626f756e647300000000006044820152606401610d65565b82811015610e8957610e866001826147e4565b92505b610e9384846147e4565b610e9e90600161456c565b6001600160401b03811115610eb557610eb561457f565b604051908082528060200260200182016040528015610eee57816020015b610edb613f9b565b815260200190600190039081610ed35790505b509150835b848111610fa25760405162143a2160e61b8152600481018290526000906001600160a01b0388169063050e884090602401602060405180830381865afa158015610f41573d6000803e3d6000fd5b505050506040513d601f19601f82011682018060405250810190610f659190614595565b9050610f718782611fe9565b848381518110610f8357610f836145ae565b6020026020010181905250508080610f9a9061480e565b915050610ef3565b50509392505050565b610fcf60405180606001604052806000815260200160008152602001606081525090565b610ff360405180606001604052806000815260200160008152602001606081525090565b60405163b93dafa960e01b815260048101859052602481018490526001600160a01b0386169063b93dafa9906044016040805180830381865afa15801561103e573d6000803e3d6000fd5b505050506040513d601f19601f820116820180604052508101906110629190614898565b6020830152815260405163fb0d5e0960e01b815260048101859052602481018490526000906001600160a01b0387169063fb0d5e0990604401600060405180830381865afa1580156110b8573d6000803e3d6000fd5b505050506040513d6000823e601f3d908101601f191682016040526110e09190810190614700565b905080516000036111275760408051600180825281830190925290816020015b611108613fe9565b8152602001906001900390816111005750506040830152509050610d3c565b80516001600160401b038111156111405761114061457f565b60405190808252806020026020018201604052801561117957816020015b611166613fe9565b81526020019060019003908161115e5790505b50604083015260005b81518110156111d95781818151811061119d5761119d6145ae565b6020026020010151836040015182815181106111bb576111bb6145ae565b602002602001018190525080806111d19061480e565b915050611182565b509095945050505050565b60606000826001600160401b038111156112005761120061457f565b60405190808252806020026020018201604052801561123957816020015b611226613f9b565b81526020019060019003908161121e5790505b509150611244613f9b565b6040805160038082526080820190925260009160208201606080368337019050509050886001600160a01b031663ef78d4fd6040518163ffffffff1660e01b8152600401602060405180830381865afa1580156112a5573d6000803e3d6000fd5b505050506040513d601f19601f820116820180604052508101906112c99190614595565b816002815181106112dc576112dc6145ae565b6020908102919091010152875b8781116114d9576112fa8a82611fe9565b92506000835160405163bad1265360e01b815260048101919091526001600160a01b038c169063bad1265390602401602060405180830381865afa158015611346573d6000803e3d6000fd5b505050506040513d601f19601f8201168201806040525081019061136a91906145c4565b600481111561137b5761137b6145e5565b146114ac5761138a86886147f7565b8260008151811061139d5761139d6145ae565b6020026020010151101580156113e15750856113ba88600161456c565b6113c491906147f7565b826000815181106113d7576113d76145ae565b6020026020010151105b15611465578285836001815181106113fb576113fb6145ae565b602002602001015181518110611413576114136145ae565b602002602001018190525081600181518110611431576114316145ae565b60200260200101516001611445919061456c565b82600181518110611458576114586145ae565b6020026020010181815250505b81600081518110611478576114786145ae565b6020026020010151600161148c919061456c565b8260008151811061149f5761149f6145ae565b6020026020010181815250505b816002815181106114bf576114bf6145ae565b6020026020010151816114d2919061456c565b90506112e9565b50846114e687600161456c565b6114f091906147f7565b81600081518110611503576115036145ae565b6020026020010151111561154957858582600081518110611526576115266145ae565b60200260200101516115389190614827565b61154291906147e4565b925061154e565b600092505b50509550959350505050565b60608183111561157c5760405162461bcd60e51b8152600401610d6590614849565b60006115888686611fe9565b90506000816040015151116115d65760405162461bcd60e51b81526020600482015260146024820152734e6f206c6f747320696e20746865206672616d6560601b6044820152606401610d65565b838160400151511161162a5760405162461bcd60e51b815260206004820152601b60248201527f7374617274496e646578206973206f7574206f6620626f756e647300000000006044820152606401610d65565b82816040015151101561164c57600181604001515161164991906147e4565b92505b61165684846147e4565b61166190600161456c565b6001600160401b038111156116785761167861457f565b6040519080825280602002602001820160405280156116cd57816020015b6116ba60405180606001604052806000815260200160008152602001606081525090565b8152602001906001900390816116965790505b509150835b848111611724576116f487878460400151848151811061056e5761056e6145ae565b838281518110611706576117066145ae565b6020026020010181905250808061171c9061480e565b9150506116d2565b5050949350505050565b6060600061173d83600161456c565b6001600160401b038111156117545761175461457f565b6040519080825280602002602001820160405280156117a957816020015b61179660405180606001604052806000815260200160008152602001606081525090565b8152602001906001900390816117725790505b50604080516003808252608082019092529193506000916060918391906020820184803683370190505090508b6001600160a01b031663ef78d4fd6040518163ffffffff1660e01b8152600401602060405180830381865afa158015611813573d6000803e3d6000fd5b505050506040513d601f19601f820116820180604052508101906118379190614595565b8160028151811061184a5761184a6145ae565b60200260200101818152505060018a11611bff57885b888111611bfd5760405163bad1265360e01b8152600481018290526001600160a01b038e169063bad1265390602401602060405180830381865afa1580156118ac573d6000803e3d6000fd5b505050506040513d601f19601f820116820180604052508101906118d091906145c4565b935060018460048111156118e6576118e66145e5565b03611bd057604051630122bf3160e51b8152600481018290526001600160a01b038e1690632457e62090602401600060405180830381865afa158015611930573d6000803e3d6000fd5b505050506040513d6000823e601f3d908101601f191682016040526119589190810190614676565b925060005b8351811015611bce5761197d8e8386848151811061056e5761056e6145ae565b87898151811061198f5761198f6145ae565b602002602001018190525060008e6001600160a01b031663fb0d5e09848785815181106119be576119be6145ae565b60200260200101516040518363ffffffff1660e01b81526004016119ec929190918252602082015260400190565b600060405180830381865afa158015611a09573d6000803e3d6000fd5b505050506040513d6000823e601f3d908101601f19168201604052611a319190810190614700565b90508d6001600160a01b03168160018351611a4c91906147e4565b81518110611a5c57611a5c6145ae565b6020026020010151604001516001600160a01b031603611bbb57611a80898b6147f7565b84600081518110611a9357611a936145ae565b602002602001015110158015611ad7575088611ab08b600161456c565b611aba91906147f7565b84600081518110611acd57611acd6145ae565b6020026020010151105b15611b7457878981518110611aee57611aee6145ae565b60200260200101518885600181518110611b0a57611b0a6145ae565b602002602001015181518110611b2257611b226145ae565b602002602001018190525083600181518110611b4057611b406145ae565b60200260200101516001611b54919061456c565b84600181518110611b6757611b676145ae565b6020026020010181815250505b83600081518110611b8757611b876145ae565b60200260200101516001611b9b919061456c565b84600081518110611bae57611bae6145ae565b6020026020010181815250505b5080611bc68161480e565b91505061195d565b505b81600281518110611be357611be36145ae565b602002602001015181611bf6919061456c565b9050611860565b505b8960021480611c0c575089155b15610c2757885b888111610c255760405163bad1265360e01b8152600481018290526001600160a01b038e169063bad1265390602401602060405180830381865afa158015611c5f573d6000803e3d6000fd5b505050506040513d601f19601f82011682018060405250810190611c8391906145c4565b93506002846004811115611c9957611c996145e5565b1480611cb657506004846004811115611cb457611cb46145e5565b145b80611cd257506003846004811115611cd057611cd06145e5565b145b15611fbc57604051630122bf3160e51b8152600481018290526001600160a01b038e1690632457e62090602401600060405180830381865afa158015611d1c573d6000803e3d6000fd5b505050506040513d6000823e601f3d908101601f19168201604052611d449190810190614676565b925060005b8351811015611fba57611d698e8386848151811061056e5761056e6145ae565b878981518110611d7b57611d7b6145ae565b602002602001018190525060008e6001600160a01b031663fb0d5e0984878581518110611daa57611daa6145ae565b60200260200101516040518363ffffffff1660e01b8152600401611dd8929190918252602082015260400190565b600060405180830381865afa158015611df5573d6000803e3d6000fd5b505050506040513d6000823e601f3d908101601f19168201604052611e1d9190810190614700565b90508d6001600160a01b03168160018351611e3891906147e4565b81518110611e4857611e486145ae565b6020026020010151604001516001600160a01b031603611fa757611e6c898b6147f7565b84600081518110611e7f57611e7f6145ae565b602002602001015110158015611ec3575088611e9c8b600161456c565b611ea691906147f7565b84600081518110611eb957611eb96145ae565b6020026020010151105b15611f6057878981518110611eda57611eda6145ae565b60200260200101518885600181518110611ef657611ef66145ae565b602002602001015181518110611f0e57611f0e6145ae565b602002602001018190525083600181518110611f2c57611f2c6145ae565b60200260200101516001611f40919061456c565b84600181518110611f5357611f536145ae565b6020026020010181815250505b83600081518110611f7357611f736145ae565b60200260200101516001611f87919061456c565b84600081518110611f9a57611f9a6145ae565b6020026020010181815250505b5080611fb28161480e565b915050611d49565b505b81600281518110611fcf57611fcf6145ae565b602002602001015181611fe2919061456c565b9050611c13565b611ff1613f9b565b611ff9613f9b565b604051632840d02f60e21b8152600481018490526001600160a01b0385169063a10340bc9060240160e060405180830381865afa15801561203e573d6000803e3d6000fd5b505050506040513d601f19601f8201168201806040525081019061206291906148bc565b60e088015260c087015260a086015260808501526001600160a01b0390811660608501526020840191909152908252604051630122bf3160e51b81526004810185905290851690632457e62090602401600060405180830381865afa1580156120cf573d6000803e3d6000fd5b505050506040513d6000823e601f3d908101601f191682016040526120f79190810190614676565b604082015290505b92915050565b6060600080846001600160a01b031663ffde58626040518163ffffffff1660e01b8152600401602060405180830381865afa158015612148573d6000803e3d6000fd5b505050506040513d601f19601f8201168201806040525081019061216c9190614595565b6001600160401b038111156121835761218361457f565b6040519080825280602002602001820160405280156121ac578160200160208202803683370190505b5090506000805b866001600160a01b031663ffde58626040518163ffffffff1660e01b8152600401602060405180830381865afa1580156121f1573d6000803e3d6000fd5b505050506040513d601f19601f820116820180604052508101906122159190614595565b8110156123645760405162beb8d760e61b8152600481018290526000906001600160a01b03891690632fae35c090602401602060405180830381865afa158015612263573d6000803e3d6000fd5b505050506040513d601f19601f82011682018060405250810190612287919061491c565b60405163543a185d60e11b81526001600160a01b0380831660048301529192506000918a169063a87430ba906024016040805180830381865afa1580156122d2573d6000803e3d6000fd5b505050506040513d601f19601f820116820180604052508101906122f69190614939565b915050876001600160a01b0316816001600160a01b03160361234f5781858561ffff1681518110612329576123296145ae565b6001600160a01b03909216602092830291909101909101528361234b8161496d565b9450505b5050808061235c9061480e565b9150506121b3565b508061ffff166001600160401b038111156123815761238161457f565b6040519080825280602002602001820160405280156123aa578160200160208202803683370190505b50935060005b8161ffff16811015612412578281815181106123ce576123ce6145ae565b60200260200101518582815181106123e8576123e86145ae565b6001600160a01b03909216602092830291909101909101528061240a8161480e565b9150506123b0565b5050509250929050565b604051630122bf3160e51b81526004810182905260009081906001600160a01b03851690632457e62090602401600060405180830381865afa158015612466573d6000803e3d6000fd5b505050506040513d6000823e601f3d908101601f1916820160405261248e9190810190614676565b51949350505050565b600060608486106125105760405162461bcd60e51b815260206004820152603860248201527f666972737455736572496e646578206d75737420626520736d616c6c6572206f60448201527f7220657175616c20746f206c61737455736572496e64657800000000000000006064820152608401610d65565b6000876001600160a01b031663ffde58626040518163ffffffff1660e01b8152600401602060405180830381865afa158015612550573d6000803e3d6000fd5b505050506040513d601f19601f820116820180604052508101906125749190614595565b90508087106125c55760405162461bcd60e51b815260206004820152601f60248201527f666972737455736572496e646578206973206f7574206f6620626f756e6473006044820152606401610d65565b6125f46040518060400160405280600d81526020016c03ab9b2b939a632b733ba341d1609d1b81525082613ea2565b80861115612600578095505b6126316040518060400160405280600f81526020016e03630b9ba2ab9b2b924b73232bc1d1608d1b81525087613ea2565b61263b87876147e4565b6001600160401b038111156126525761265261457f565b60405190808252806020026020018201604052801561267b578160200160208202803683370190505b5091506000886001600160a01b031663ef78d4fd6040518163ffffffff1660e01b8152600401602060405180830381865afa1580156126be573d6000803e3d6000fd5b505050506040513d601f19601f820116820180604052508101906126e29190614595565b905061270e6040518060400160405280600881526020016703832b934b7b21d160c51b81525082613ea2565b875b61271b6001896147e4565b8110156129245760405162beb8d760e61b8152600481018290526000906001600160a01b038c1690632fae35c090602401602060405180830381865afa158015612769573d6000803e3d6000fd5b505050506040513d601f19601f8201168201806040525081019061278d919061491c565b90506127b76040518060400160405280600681526020016503ab9b2b91d160d51b81525082613eeb565b875b8781101561290f576040516391a0846d60e01b81526001600160a01b038381166004830152602482018390528d16906391a0846d90604401602060405180830381865afa15801561280e573d6000803e3d6000fd5b505050506040513d601f19601f820116820180604052508101906128329190614595565b868481518110612844576128446145ae565b60200260200101818151612858919061456c565b915081815250506128a36040518060400160405280600981526020016803932bbb0b932399d160bd1b815250878581518110612896576128966145ae565b6020026020010151613ea2565b8583815181106128b5576128b56145ae565b6020026020010151876128c8919061456c565b96506128fe60405180604001604052806012815260200171031b7b6bab630ba34bb32a932bbb0b9321d160751b81525088613ea2565b612908848261456c565b90506127b9565b5050808061291c9061480e565b915050612710565b5061154e6040518060400160405280601381526020017202932ba3ab93734b733903932bbb0b932399d1606d1b815250613f30565b6040516361eee2cb60e01b81526004810184905260009081906001600160a01b038716906361eee2cb90602401602060405180830381865afa1580156129a3573d6000803e3d6000fd5b505050506040513d601f19601f820116820180604052508101906129c79190614595565b6040516361eee2cb60e01b81524260048201529091506001600160a01b038716906361eee2cb90602401602060405180830381865afa158015612a0e573d6000803e3d6000fd5b505050506040513d601f19601f82011682018060405250810190612a329190614595565b811015612a815760405162461bcd60e51b815260206004820152601b60248201527f54484953204c4f5420495320494e20412050415354204652414d4500000000006044820152606401610d65565b600080612af888848a6001600160a01b0316639592de188a6040518263ffffffff1660e01b8152600401612ab791815260200190565b602060405180830381865afa158015612ad4573d6000803e3d6000fd5b505050506040513d601f19601f8201168201806040525081019061019f9190614595565b6040810151805191925090612b0f906001906147e4565b81518110612b1f57612b1f6145ae565b60200260200101516060015191506000886001600160a01b031663e107fb4f85856040518363ffffffff1660e01b8152600401612b66929190918252602082015260400190565b602060405180830381865afa158015612b83573d6000803e3d6000fd5b505050506040513d601f19601f82011682018060405250810190612ba79190614595565b60405163e107fb4f60e01b815260048101869052602481018890529091506000906001600160a01b038b169063e107fb4f90604401602060405180830381865afa158015612bf9573d6000803e3d6000fd5b505050506040513d601f19601f82011682018060405250810190612c1d9190614595565b9050808210612c2f5760009550612c3c565b612c3982826147e4565b95505b5050505050949350505050565b600080612c568484611fe9565b6040516339a6a48960e01b8152600481018590529091506000906001600160a01b038616906339a6a48990602401602060405180830381865afa158015612ca1573d6000803e3d6000fd5b505050506040513d601f19601f82011682018060405250810190612cc59190614595565b90506000856001600160a01b031663527eb4bc6040518163ffffffff1660e01b8152600401602060405180830381865afa158015612d07573d6000803e3d6000fd5b505050506040513d601f19601f82011682018060405250810190612d2b9190614595565b905060008360e001518284612d4091906147e4565b612d4a91906147e4565b979650505050505050565b6060816001600160401b03811115612d6f57612d6f61457f565b604051908082528060200260200182016040528015612d98578160200160208202803683370190505b5090506000612da5613f9b565b60005b848111612f1f57600081886001600160a01b031663ef78d4fd6040518163ffffffff1660e01b8152600401602060405180830381865afa158015612df0573d6000803e3d6000fd5b505050506040513d601f19601f82011682018060405250810190612e149190614595565b612e1e91906147f7565b612e28908861456c565b9050612e348882611fe9565b805160405163bad1265360e01b815260048101919091529093506000906001600160a01b038a169063bad1265390602401602060405180830381865afa158015612e82573d6000803e3d6000fd5b505050506040513d601f19601f82011682018060405250810190612ea691906145c4565b90506001816004811115612ebc57612ebc6145e5565b1480612ed957506003816004811115612ed757612ed76145e5565b145b15612f0a5781868681518110612ef157612ef16145ae565b602090810291909101015284612f068161480e565b9550505b50508080612f179061480e565b915050612da8565b5050509392505050565b6040516361eee2cb60e01b81526004810184905260009081906001600160a01b038716906361eee2cb90602401602060405180830381865afa158015612f73573d6000803e3d6000fd5b505050506040513d601f19601f82011682018060405250810190612f979190614595565b905042866001600160a01b031663ef78d4fd6040518163ffffffff1660e01b8152600401602060405180830381865afa158015612fd8573d6000803e3d6000fd5b505050506040513d601f19601f82011682018060405250810190612ffc9190614595565b613006908361456c565b10156130545760405162461bcd60e51b815260206004820152601d60248201527f4672616d652068617320746f20626520696e20746865206675747572650000006044820152606401610d65565b6040516312b25bc360e31b8152600481018590526000906001600160a01b03881690639592de1890602401602060405180830381865afa15801561309c573d6000803e3d6000fd5b505050506040513d601f19601f820116820180604052508101906130c09190614595565b60405163e107fb4f60e01b815260048101849052602481018690529091506000906001600160a01b0389169063e107fb4f90604401602060405180830381865afa158015613112573d6000803e3d6000fd5b505050506040513d601f19601f820116820180604052508101906131369190614595565b90506000613145898585610fab565b60408101518051919250839161315d906001906147e4565b8151811061316d5761316d6145ae565b602002602001015160600151613183919061456c565b9998505050505050505050565b600080856001600160a01b031663ef78d4fd6040518163ffffffff1660e01b8152600401602060405180830381865afa1580156131d1573d6000803e3d6000fd5b505050506040513d601f19601f820116820180604052508101906131f59190614595565b9050835b838111611724576040516391a0846d60e01b81526001600160a01b038781166004830152602482018390528816906391a0846d90604401602060405180830381865afa15801561324d573d6000803e3d6000fd5b505050506040513d601f19601f820116820180604052508101906132719190614595565b61327b908461456c565b9250613287828261456c565b90506131f9565b60008061329b8484611fe9565b60e081015190915060005b8260400151518110156135d55760006132d087878660400151858151811061056e5761056e6145ae565b905060005b8160400151518110156135c057816040015181815181106132f8576132f86145ae565b6020026020010151608001518661330f919061456c565b955081604001518181518110613327576133276145ae565b602002602001015160a001518661333e91906147e4565b9550600182604001515161335291906147e4565b81036135ae576000886001600160a01b031663e107fb4f8985604001518581518110613380576133806145ae565b6020026020010151606001516040518363ffffffff1660e01b81526004016133b2929190918252602082015260400190565b602060405180830381865afa1580156133cf573d6000803e3d6000fd5b505050506040513d601f19601f820116820180604052508101906133f39190614595565b90506133ff81886147e4565b96506000896001600160a01b031663a87430ba85604001518581518110613428576134286145ae565b6020026020010151604001516040518263ffffffff1660e01b815260040161345f91906001600160a01b0391909116815260200190565b6040805180830381865afa15801561347b573d6000803e3d6000fd5b505050506040513d601f19601f8201168201806040525081019061349f9190614939565b60405163543a185d60e11b81526001600160a01b03808316600483015291935060009250908c169063a87430ba906024016040805180830381865afa1580156134ec573d6000803e3d6000fd5b505050506040513d601f19601f820116820180604052508101906135109190614939565b50905080156135aa5760008b6001600160a01b0316639e9c4f086040518163ffffffff1660e01b8152600401602060405180830381865afa158015613559573d6000803e3d6000fd5b505050506040513d601f19601f8201168201806040525081019061357d9190614595565b9050670de0b6b3a764000061359282866147f7565b61359c9190614827565b6135a6908961456c565b9750505b5050505b806135b88161480e565b9150506132d5565b505080806135cd9061480e565b9150506132a6565b506135e081846147e4565b95945050505050565b60606000826001600160401b038111156136055761360561457f565b60405190808252806020026020018201604052801561363e57816020015b61362b613f9b565b8152602001906001900390816136235790505b5060408051600480825260a08201909252919350600091829160208201608080368337019050509050896001600160a01b031663ef78d4fd6040518163ffffffff1660e01b8152600401602060405180830381865afa1580156136a5573d6000803e3d6000fd5b505050506040513d601f19601f820116820180604052508101906136c99190614595565b816002815181106136dc576136dc6145ae565b60209081029190910101526060885b888111613a8b5760405163bad1265360e01b8152600481018290526001600160a01b038d169063bad1265390602401602060405180830381865afa158015613737573d6000803e3d6000fd5b505050506040513d601f19601f8201168201806040525081019061375b91906145c4565b93506000846004811115613771576137716145e5565b14613a5e57604051630122bf3160e51b8152600481018290526001600160a01b038d1690632457e62090602401600060405180830381865afa1580156137bb573d6000803e3d6000fd5b505050506040513d6000823e601f3d908101601f191682016040526137e39190810190614676565b915060005b8251811015613a5c5760008d6001600160a01b031663fb0d5e0984868581518110613815576138156145ae565b60200260200101516040518363ffffffff1660e01b8152600401613843929190918252602082015260400190565b600060405180830381865afa158015613860573d6000803e3d6000fd5b505050506040513d6000823e601f3d908101601f191682016040526138889190810190614700565b90508c6001600160a01b031681600183516138a391906147e4565b815181106138b3576138b36145ae565b6020026020010151604001516001600160a01b03161480156138ef575082856003815181106138e4576138e46145ae565b602002602001015114155b15613a49576138fe898b6147f7565b85600081518110613911576139116145ae565b60200260200101511015801561395557508861392e8b600161456c565b61393891906147f7565b8560008151811061394b5761394b6145ae565b6020026020010151105b156139e2576139648e84611fe9565b8886600181518110613978576139786145ae565b602002602001015181518110613990576139906145ae565b6020026020010181905250846001815181106139ae576139ae6145ae565b602002602001015160016139c2919061456c565b856001815181106139d5576139d56145ae565b6020026020010181815250505b846000815181106139f5576139f56145ae565b60200260200101516001613a09919061456c565b85600081518110613a1c57613a1c6145ae565b6020026020010181815250508285600381518110613a3c57613a3c6145ae565b6020026020010181815250505b5080613a548161480e565b9150506137e8565b505b82600281518110613a7157613a716145ae565b602002602001015181613a84919061456c565b90506136eb565b5085613a9888600161456c565b613aa291906147f7565b82600081518110613ab557613ab56145ae565b60200260200101511115613afb57868683600081518110613ad857613ad86145ae565b6020026020010151613aea9190614827565b613af491906147e4565b9350613b00565b600093505b505050965096945050505050565b6060600084861115613b885760405162461bcd60e51b815260206004820152603760248201527f6672616d654b65795f7374617274206d75737420626520736d616c6c6572206f60448201527f7220657175616c20746f206672616d654b65795f656e640000000000000000006064820152608401610d65565b826001600160401b03811115613ba057613ba061457f565b604051908082528060200260200182016040528015613bf557816020015b613be260405180606001604052806000815260200160008152602001606081525090565b815260200190600190039081613bbe5790505b5060408051600380825260808201909252919350606091600091602082018480368337019050509050886001600160a01b031663ef78d4fd6040518163ffffffff1660e01b8152600401602060405180830381865afa158015613c5c573d6000803e3d6000fd5b505050506040513d601f19601f82011682018060405250810190613c809190614595565b81600281518110613c9357613c936145ae565b6020908102919091010152875b8781116114d957604051630122bf3160e51b8152600481018290526001600160a01b038b1690632457e62090602401600060405180830381865afa158015613cec573d6000803e3d6000fd5b505050506040513d6000823e601f3d908101601f19168201604052613d149190810190614676565b925060005b8351811015613e7457613d2c87896147f7565b83600081518110613d3f57613d3f6145ae565b602002602001015110158015613d83575086613d5c89600161456c565b613d6691906147f7565b83600081518110613d7957613d796145ae565b6020026020010151105b15613e1d57613d9f8b8386848151811061056e5761056e6145ae565b8684600181518110613db357613db36145ae565b602002602001015181518110613dcb57613dcb6145ae565b602002602001018190525082600181518110613de957613de96145ae565b60200260200101516001613dfd919061456c565b83600181518110613e1057613e106145ae565b6020026020010181815250505b82600081518110613e3057613e306145ae565b60200260200101516001613e44919061456c565b83600081518110613e5757613e576145ae565b602090810291909101015280613e6c8161480e565b915050613d19565b5081600281518110613e8857613e886145ae565b602002602001015181613e9b919061456c565b9050613ca0565b613ee78282604051602401613eb89291906149d4565b60408051601f198184030181529190526020810180516001600160e01b0316632d839cb360e21b179052613f76565b5050565b613ee78282604051602401613f019291906149e7565b60408051601f198184030181529190526020810180516001600160e01b031663319af33360e01b179052613f76565b613f7381604051602401613f449190614a11565b60408051601f198184030181529190526020810180516001600160e01b031663104c13eb60e21b179052613f76565b50565b613f738160006a636f6e736f6c652e6c6f679050600080835160208501845afa505050565b60405180610100016040528060008152602001600081526020016060815260200160006001600160a01b03168152602001600081526020016000815260200160008152602001600081525090565b6040518060c00160405280600081526020016000815260200160006001600160a01b031681526020016000815260200160008152602001600081525090565b6001600160a01b0381168114613f7357600080fd5b600080600080600080600060e0888a03121561405857600080fd5b873561406381614028565b9650602088013561407381614028565b96999698505050506040850135946060810135946080820135945060a0820135935060c0909101359150565b600060608084018351855260208085015181870152604080860151848289015283815180865260809550858a019150848301925060005b81811015614129578351805184528681015187850152858101516001600160a01b0316868501528881015189850152878101518885015260a090810151908401529285019260c0909201916001016140d6565b50909998505050505050505050565b600082825180855260208086019550808260051b84010181860160005b8481101561418357601f1986840301895261417183835161409f565b98840198925090830190600101614155565b5090979650505050505050565b6040815260006141a36040830185614138565b90508260208301529392505050565b6000806000606084860312156141c757600080fd5b83356141d281614028565b95602085013595506040909401359392505050565b600081518084526020808501945080840160005b83811015614217578151875295820195908201906001016141fb565b509495945050505050565b60006101008251845260208301516020850152604083015181604086015261424c828601826141e7565b91505060018060a01b0360608401511660608501526080830151608085015260a083015160a085015260c083015160c085015260e083015160e08501528091505092915050565b600081518084526020808501808196508360051b8101915082860160005b858110156142db5782840389526142c9848351614222565b988501989350908401906001016142b1565b5091979650505050505050565b602081526000610d3c6020830184614293565b602081526000610d3c602083018461409f565b600080600080600060a0868803121561432657600080fd5b853561433181614028565b97602087013597506040870135966060810135965060800135945092505050565b6040815260006141a36040830185614293565b6000806000806080858703121561437b57600080fd5b843561438681614028565b966020860135965060408601359560600135945092505050565b602081526000610d3c6020830184614138565b600080604083850312156143c657600080fd5b82356143d181614028565b946020939093013593505050565b602081526000610d3c6020830184614222565b6000806040838503121561440557600080fd5b823561441081614028565b9150602083013561442081614028565b809150509250929050565b604080825283519082018190526000906020906060840190828701845b8281101561446d5781516001600160a01b031684529284019290840190600101614448565b50505061ffff9490941692019190915250919050565b82815260406020820152600061449c60408301846141e7565b949350505050565b602081526000610d3c60208301846141e7565b600080600080608085870312156144cd57600080fd5b84356144d881614028565b935060208501356144e881614028565b93969395505050506040820135916060013590565b60008060008060008060c0878903121561451657600080fd5b863561452181614028565b9550602087013561453181614028565b95989597505050506040840135936060810135936080820135935060a0909101359150565b634e487b7160e01b600052601160045260246000fd5b808201808211156120ff576120ff614556565b634e487b7160e01b600052604160045260246000fd5b6000602082840312156145a757600080fd5b5051919050565b634e487b7160e01b600052603260045260246000fd5b6000602082840312156145d657600080fd5b815160058110610d3c57600080fd5b634e487b7160e01b600052602160045260246000fd5b60405160c081016001600160401b038111828210171561461d5761461d61457f565b60405290565b604051601f8201601f191681016001600160401b038111828210171561464b5761464b61457f565b604052919050565b60006001600160401b0382111561466c5761466c61457f565b5060051b60200190565b6000602080838503121561468957600080fd5b82516001600160401b0381111561469f57600080fd5b8301601f810185136146b057600080fd5b80516146c36146be82614653565b614623565b81815260059190911b820183019083810190878311156146e257600080fd5b928401925b82841015612d4a578351825292840192908401906146e7565b6000602080838503121561471357600080fd5b82516001600160401b0381111561472957600080fd5b8301601f8101851361473a57600080fd5b80516147486146be82614653565b81815260c0918202830184019184820191908884111561476757600080fd5b938501935b838510156147d85780858a0312156147845760008081fd5b61478c6145fb565b8551815286860151878201526040808701516147a781614028565b90820152606086810151908201526080808701519082015260a080870151908201528352938401939185019161476c565b50979650505050505050565b818103818111156120ff576120ff614556565b80820281158282048414176120ff576120ff614556565b60006001820161482057614820614556565b5060010190565b60008261484457634e487b7160e01b600052601260045260246000fd5b500490565b6020808252602f908201527f7374617274496e646578206d75737420626520736d616c6c6572206f7220657160408201526e0eac2d840e8de40cadcc892dcc8caf608b1b606082015260800190565b600080604083850312156148ab57600080fd5b505080516020909101519092909150565b600080600080600080600060e0888a0312156148d757600080fd5b875196506020880151955060408801516148f081614028565b80955050606088015193506080880151925060a0880151915060c0880151905092959891949750929550565b60006020828403121561492e57600080fd5b8151610d3c81614028565b6000806040838503121561494c57600080fd5b8251801515811461495c57600080fd5b602084015190925061442081614028565b600061ffff80831681810361498457614984614556565b6001019392505050565b6000815180845260005b818110156149b457602081850181015186830182015201614998565b506000602082860101526020601f19601f83011685010191505092915050565b6040815260006141a3604083018561498e565b6040815260006149fa604083018561498e565b905060018060a01b03831660208301529392505050565b602081526000610d3c602083018461498e56fea2646970667358221220d7a9906ccdd55f8371e585634ef2d543c09fd3a23a4052cd1bad867b268bc3bb64736f6c63430008140033",
  "linkReferences": {},
  "deployedLinkReferences": {}
}