{
  "_format": "hh-sol-artifact-1",
  "contractName": "MarketGetter",
  "sourceName": "contracts/MarketGetter.sol",
  "abi": [
    {
      "inputs": [
        {
          "internalType": "contract Market",
          "name": "market",
          "type": "address"
        },
        {
          "internalType": "uint256",
          "name": "timestamp",
          "type": "uint256"
        },
        {
          "internalType": "uint256",
          "name": "pairPrice",
          "type": "uint256"
        },
        {
          "internalType": "uint256",
          "name": "acqPrice",
          "type": "uint256"
        }
      ],
      "name": "clcAmountToApprove",
      "outputs": [
        {
          "internalType": "uint256",
          "name": "approvalAmnt",
          "type": "uint256"
        }
      ],
      "stateMutability": "view",
      "type": "function"
    },
    {
      "inputs": [
        {
          "internalType": "contract Market",
          "name": "market",
          "type": "address"
        },
        {
          "internalType": "uint256",
          "name": "timestamp",
          "type": "uint256"
        },
        {
          "internalType": "uint256",
          "name": "pairPrice",
          "type": "uint256"
        },
        {
          "internalType": "uint256",
          "name": "acqPrice",
          "type": "uint256"
        }
      ],
      "name": "clcAmountToApproveForUpdate",
      "outputs": [
        {
          "internalType": "uint256",
          "name": "amnt",
          "type": "uint256"
        }
      ],
      "stateMutability": "view",
      "type": "function"
    },
    {
      "inputs": [
        {
          "internalType": "contract Market",
          "name": "market",
          "type": "address"
        },
        {
          "internalType": "uint256",
          "name": "frameKey",
          "type": "uint256"
        }
      ],
      "name": "getFrameStruct",
      "outputs": [
        {
          "components": [
            {
              "internalType": "uint256",
              "name": "frameKey",
              "type": "uint256"
            },
            {
              "internalType": "uint256",
              "name": "rate",
              "type": "uint256"
            },
            {
              "internalType": "uint256[]",
              "name": "lotKeys",
              "type": "uint256[]"
            },
            {
              "internalType": "address",
              "name": "claimedBy",
              "type": "address"
            },
            {
              "internalType": "uint256",
              "name": "rateSettle",
              "type": "uint256"
            },
            {
              "internalType": "uint256",
              "name": "feeSettle",
              "type": "uint256"
            },
            {
              "internalType": "uint256",
              "name": "rewardSettle",
              "type": "uint256"
            },
            {
              "internalType": "uint256",
              "name": "feeReferral",
              "type": "uint256"
            }
          ],
          "internalType": "struct Market.Frame",
          "name": "",
          "type": "tuple"
        }
      ],
      "stateMutability": "view",
      "type": "function"
    },
    {
      "inputs": [
        {
          "internalType": "contract Market",
          "name": "market",
          "type": "address"
        },
        {
          "internalType": "uint256",
          "name": "frameKey_start",
          "type": "uint256"
        },
        {
          "internalType": "uint256",
          "name": "frameKey_end",
          "type": "uint256"
        },
        {
          "internalType": "uint256",
          "name": "page",
          "type": "uint256"
        },
        {
          "internalType": "uint256",
          "name": "perPage",
          "type": "uint256"
        }
      ],
      "name": "getFrames",
      "outputs": [
        {
          "components": [
            {
              "internalType": "uint256",
              "name": "frameKey",
              "type": "uint256"
            },
            {
              "internalType": "uint256",
              "name": "rate",
              "type": "uint256"
            },
            {
              "internalType": "uint256[]",
              "name": "lotKeys",
              "type": "uint256[]"
            },
            {
              "internalType": "address",
              "name": "claimedBy",
              "type": "address"
            },
            {
              "internalType": "uint256",
              "name": "rateSettle",
              "type": "uint256"
            },
            {
              "internalType": "uint256",
              "name": "feeSettle",
              "type": "uint256"
            },
            {
              "internalType": "uint256",
              "name": "rewardSettle",
              "type": "uint256"
            },
            {
              "internalType": "uint256",
              "name": "feeReferral",
              "type": "uint256"
            }
          ],
          "internalType": "struct Market.Frame[]",
          "name": "frames",
          "type": "tuple[]"
        },
        {
          "internalType": "uint256",
          "name": "pagesLeft",
          "type": "uint256"
        }
      ],
      "stateMutability": "view",
      "type": "function"
    },
    {
      "inputs": [
        {
          "internalType": "contract Market",
          "name": "market",
          "type": "address"
        },
        {
          "internalType": "address",
          "name": "user",
          "type": "address"
        },
        {
          "internalType": "uint256",
          "name": "frameKey_start",
          "type": "uint256"
        },
        {
          "internalType": "uint256",
          "name": "frameKey_end",
          "type": "uint256"
        },
        {
          "internalType": "uint256",
          "name": "page",
          "type": "uint256"
        },
        {
          "internalType": "uint256",
          "name": "perPage",
          "type": "uint256"
        }
      ],
      "name": "getFramesUser",
      "outputs": [
        {
          "components": [
            {
              "internalType": "uint256",
              "name": "frameKey",
              "type": "uint256"
            },
            {
              "internalType": "uint256",
              "name": "rate",
              "type": "uint256"
            },
            {
              "internalType": "uint256[]",
              "name": "lotKeys",
              "type": "uint256[]"
            },
            {
              "internalType": "address",
              "name": "claimedBy",
              "type": "address"
            },
            {
              "internalType": "uint256",
              "name": "rateSettle",
              "type": "uint256"
            },
            {
              "internalType": "uint256",
              "name": "feeSettle",
              "type": "uint256"
            },
            {
              "internalType": "uint256",
              "name": "rewardSettle",
              "type": "uint256"
            },
            {
              "internalType": "uint256",
              "name": "feeReferral",
              "type": "uint256"
            }
          ],
          "internalType": "struct Market.Frame[]",
          "name": "userFrames",
          "type": "tuple[]"
        },
        {
          "internalType": "uint256",
          "name": "pagesLeft",
          "type": "uint256"
        }
      ],
      "stateMutability": "view",
      "type": "function"
    },
    {
      "inputs": [
        {
          "internalType": "contract Market",
          "name": "market",
          "type": "address"
        },
        {
          "internalType": "uint256",
          "name": "frameKey",
          "type": "uint256"
        },
        {
          "internalType": "uint256",
          "name": "index",
          "type": "uint256"
        }
      ],
      "name": "getLotKey",
      "outputs": [
        {
          "internalType": "uint256",
          "name": "",
          "type": "uint256"
        }
      ],
      "stateMutability": "view",
      "type": "function"
    },
    {
      "inputs": [
        {
          "internalType": "contract Market",
          "name": "market",
          "type": "address"
        },
        {
          "internalType": "uint256",
          "name": "frameKey",
          "type": "uint256"
        },
        {
          "internalType": "uint256",
          "name": "lotKey",
          "type": "uint256"
        }
      ],
      "name": "getLotStruct",
      "outputs": [
        {
          "components": [
            {
              "internalType": "uint256",
              "name": "frameKey",
              "type": "uint256"
            },
            {
              "internalType": "uint256",
              "name": "lotKey",
              "type": "uint256"
            },
            {
              "components": [
                {
                  "internalType": "uint256",
                  "name": "blockNumber",
                  "type": "uint256"
                },
                {
                  "internalType": "uint256",
                  "name": "blockTimestamp",
                  "type": "uint256"
                },
                {
                  "internalType": "address",
                  "name": "owner",
                  "type": "address"
                },
                {
                  "internalType": "uint256",
                  "name": "acquisitionPrice",
                  "type": "uint256"
                },
                {
                  "internalType": "uint256",
                  "name": "taxCharged",
                  "type": "uint256"
                },
                {
                  "internalType": "uint256",
                  "name": "taxRefunded",
                  "type": "uint256"
                }
              ],
              "internalType": "struct Market.LotState[]",
              "name": "states",
              "type": "tuple[]"
            }
          ],
          "internalType": "struct Market.Lot",
          "name": "",
          "type": "tuple"
        }
      ],
      "stateMutability": "view",
      "type": "function"
    },
    {
      "inputs": [
        {
          "internalType": "contract Market",
          "name": "market",
          "type": "address"
        },
        {
          "internalType": "uint256",
          "name": "frameKey_start",
          "type": "uint256"
        },
        {
          "internalType": "uint256",
          "name": "frameKey_end",
          "type": "uint256"
        },
        {
          "internalType": "uint256",
          "name": "page",
          "type": "uint256"
        },
        {
          "internalType": "uint256",
          "name": "perPage",
          "type": "uint256"
        }
      ],
      "name": "getLots",
      "outputs": [
        {
          "components": [
            {
              "internalType": "uint256",
              "name": "frameKey",
              "type": "uint256"
            },
            {
              "internalType": "uint256",
              "name": "lotKey",
              "type": "uint256"
            },
            {
              "components": [
                {
                  "internalType": "uint256",
                  "name": "blockNumber",
                  "type": "uint256"
                },
                {
                  "internalType": "uint256",
                  "name": "blockTimestamp",
                  "type": "uint256"
                },
                {
                  "internalType": "address",
                  "name": "owner",
                  "type": "address"
                },
                {
                  "internalType": "uint256",
                  "name": "acquisitionPrice",
                  "type": "uint256"
                },
                {
                  "internalType": "uint256",
                  "name": "taxCharged",
                  "type": "uint256"
                },
                {
                  "internalType": "uint256",
                  "name": "taxRefunded",
                  "type": "uint256"
                }
              ],
              "internalType": "struct Market.LotState[]",
              "name": "states",
              "type": "tuple[]"
            }
          ],
          "internalType": "struct Market.Lot[]",
          "name": "lots",
          "type": "tuple[]"
        },
        {
          "internalType": "uint256",
          "name": "pagesLeft",
          "type": "uint256"
        }
      ],
      "stateMutability": "view",
      "type": "function"
    },
    {
      "inputs": [
        {
          "internalType": "contract Market",
          "name": "market",
          "type": "address"
        },
        {
          "internalType": "uint256",
          "name": "frameKey",
          "type": "uint256"
        }
      ],
      "name": "getLotsCount",
      "outputs": [
        {
          "internalType": "uint256",
          "name": "",
          "type": "uint256"
        }
      ],
      "stateMutability": "view",
      "type": "function"
    },
    {
      "inputs": [
        {
          "internalType": "contract Market",
          "name": "market",
          "type": "address"
        },
        {
          "internalType": "address",
          "name": "user",
          "type": "address"
        },
        {
          "internalType": "uint256",
          "name": "mode",
          "type": "uint256"
        },
        {
          "internalType": "uint256",
          "name": "frameKey_start",
          "type": "uint256"
        },
        {
          "internalType": "uint256",
          "name": "frameKey_end",
          "type": "uint256"
        },
        {
          "internalType": "uint256",
          "name": "page",
          "type": "uint256"
        },
        {
          "internalType": "uint256",
          "name": "perPage",
          "type": "uint256"
        }
      ],
      "name": "getLotsUser",
      "outputs": [
        {
          "components": [
            {
              "internalType": "uint256",
              "name": "frameKey",
              "type": "uint256"
            },
            {
              "internalType": "uint256",
              "name": "lotKey",
              "type": "uint256"
            },
            {
              "components": [
                {
                  "internalType": "uint256",
                  "name": "blockNumber",
                  "type": "uint256"
                },
                {
                  "internalType": "uint256",
                  "name": "blockTimestamp",
                  "type": "uint256"
                },
                {
                  "internalType": "address",
                  "name": "owner",
                  "type": "address"
                },
                {
                  "internalType": "uint256",
                  "name": "acquisitionPrice",
                  "type": "uint256"
                },
                {
                  "internalType": "uint256",
                  "name": "taxCharged",
                  "type": "uint256"
                },
                {
                  "internalType": "uint256",
                  "name": "taxRefunded",
                  "type": "uint256"
                }
              ],
              "internalType": "struct Market.LotState[]",
              "name": "states",
              "type": "tuple[]"
            }
          ],
          "internalType": "struct Market.Lot[]",
          "name": "userLots",
          "type": "tuple[]"
        },
        {
          "internalType": "uint256",
          "name": "pagesLeft",
          "type": "uint256"
        }
      ],
      "stateMutability": "view",
      "type": "function"
    },
    {
      "inputs": [
        {
          "internalType": "contract Market",
          "name": "market",
          "type": "address"
        },
        {
          "internalType": "uint256",
          "name": "startFrame",
          "type": "uint256"
        },
        {
          "internalType": "uint256",
          "name": "numOfFrames",
          "type": "uint256"
        }
      ],
      "name": "getOpenFrameKeys",
      "outputs": [
        {
          "internalType": "uint256[]",
          "name": "openFrames",
          "type": "uint256[]"
        }
      ],
      "stateMutability": "view",
      "type": "function"
    },
    {
      "inputs": [
        {
          "internalType": "contract Market",
          "name": "market",
          "type": "address"
        },
        {
          "internalType": "uint256",
          "name": "frameKey",
          "type": "uint256"
        }
      ],
      "name": "getRewardAmount",
      "outputs": [
        {
          "internalType": "uint256",
          "name": "",
          "type": "uint256"
        }
      ],
      "stateMutability": "view",
      "type": "function"
    }
  ],
  "bytecode": "0x608060405234801561001057600080fd5b50613296806100206000396000f3fe608060405234801561001057600080fd5b50600436106100b45760003560e01c8063c1d0139511610071578063c1d0139514610174578063da4e855614610187578063dbd20a881461019a578063de732595146101ba578063f6eb9ee7146101cd578063f91cbebe146101e057600080fd5b80632c79854f146100b95780634314b84f146100df578063612d8b50146100ff57806371b08d89146101205780637f424a37146101415780639291178e14610161575b600080fd5b6100cc6100c7366004612a5a565b6101f3565b6040519081526020015b60405180910390f35b6100f26100ed366004612a5a565b61028c565b6040516100d69190612b28565b61011261010d366004612b3b565b610592565b6040516100d6929190612c25565b61013361012e366004612c8e565b610909565b6040516100d6929190612cf0565b61015461014f366004612d47565b61154c565b6040516100d69190612d73565b6100cc61016f366004612d47565b611668565b6100cc610182366004612d86565b6116e3565b6100cc610195366004612d47565b6119d8565b6101ad6101a8366004612a5a565b611ac4565b6040516100d69190612dc1565b6100cc6101c8366004612d86565b611d13565b6101126101db366004612e05565b611f7a565b6101336101ee366004612b3b565b6124a0565b604051630122bf3160e51b81526004810183905260009081906001600160a01b03861690632457e62090602401600060405180830381865afa15801561023d573d6000803e3d6000fd5b505050506040513d6000823e601f3d908101601f191682016040526102659190810190612ef2565b905080838151811061027957610279612f88565b60200260200101519150505b9392505050565b6102b060405180606001604052806000815260200160008152602001606081525090565b6102dd6040518060400160405280600c81526020016b19d95d131bdd14dd1c9d58dd60a21b815250612904565b61030160405180606001604052806000815260200160008152602001606081525090565b61032f6040518060400160405280600c81526020016b6672616d654b65793a20257360a01b8152508561294a565b60405163b93dafa960e01b815260048101859052602481018490526001600160a01b0386169063b93dafa9906044016040805180830381865afa15801561037a573d6000803e3d6000fd5b505050506040513d601f19601f8201168201806040525081019061039e9190612f9e565b60208084019190915290825260408051808201909152601081526f6c6f742e6672616d654b65793a20257360801b9181019190915281516103df919061294a565b60405163fb0d5e0960e01b815260048101859052602481018490526000906001600160a01b0387169063fb0d5e0990604401600060405180830381865afa15801561042e573d6000803e3d6000fd5b505050506040513d6000823e601f3d908101601f191682016040526104569190810190612fc2565b905061048f604051806040016040528060148152602001736c6f745374617465732e6c656e6774683a20257360601b815250825161294a565b80516000036104d45760408051600180825281830190925290816020015b6104b56129b8565b8152602001906001900390816104ad5750506040830152509050610285565b805167ffffffffffffffff8111156104ee576104ee612e5e565b60405190808252806020026020018201604052801561052757816020015b6105146129b8565b81526020019060019003908161050c5790505b50604083015260005b81518110156105875781818151811061054b5761054b612f88565b60200260200101518360400151828151811061056957610569612f88565b6020026020010181905250808061057f906130bd565b915050610530565b509095945050505050565b606060008267ffffffffffffffff8111156105af576105af612e5e565b6040519080825280602002602001820160405280156105e857816020015b6105d56129f7565b8152602001906001900390816105cd5790505b5091506105f36129f7565b6040805160038082526080820190925260009160208201606080368337019050509050886001600160a01b031663ef78d4fd6040518163ffffffff1660e01b8152600401602060405180830381865afa158015610654573d6000803e3d6000fd5b505050506040513d601f19601f8201168201806040525081019061067891906130d6565b8160028151811061068b5761068b612f88565b6020908102919091010152875b878111610888576106a98a8261154c565b92506000835160405163bad1265360e01b815260048101919091526001600160a01b038c169063bad1265390602401602060405180830381865afa1580156106f5573d6000803e3d6000fd5b505050506040513d601f19601f820116820180604052508101906107199190613105565b600481111561072a5761072a6130ef565b1461085b576107398688613126565b8260008151811061074c5761074c612f88565b60200260200101511015801561079057508561076988600161313d565b6107739190613126565b8260008151811061078657610786612f88565b6020026020010151105b15610814578285836001815181106107aa576107aa612f88565b6020026020010151815181106107c2576107c2612f88565b6020026020010181905250816001815181106107e0576107e0612f88565b602002602001015160016107f4919061313d565b8260018151811061080757610807612f88565b6020026020010181815250505b8160008151811061082757610827612f88565b6020026020010151600161083b919061313d565b8260008151811061084e5761084e612f88565b6020026020010181815250505b8160028151811061086e5761086e612f88565b602002602001015181610881919061313d565b9050610698565b508461089587600161313d565b61089f9190613126565b816000815181106108b2576108b2612f88565b602002602001015111156108f8578585826000815181106108d5576108d5612f88565b60200260200101516108e79190613150565b6108f19190613172565b92506108fd565b600092505b50509550959350505050565b6060600061091883600161313d565b67ffffffffffffffff81111561093057610930612e5e565b60405190808252806020026020018201604052801561098557816020015b61097260405180606001604052806000815260200160008152602001606081525090565b81526020019060019003908161094e5790505b50604080516003808252608082019092529193506000916060918391906020820184803683370190505090508b6001600160a01b031663ef78d4fd6040518163ffffffff1660e01b8152600401602060405180830381865afa1580156109ef573d6000803e3d6000fd5b505050506040513d601f19601f82011682018060405250810190610a1391906130d6565b81600281518110610a2657610a26612f88565b60200260200101818152505060018a11610f5657885b888111610f545760405163bad1265360e01b8152600481018290526001600160a01b038e169063bad1265390602401602060405180830381865afa158015610a88573d6000803e3d6000fd5b505050506040513d601f19601f82011682018060405250810190610aac9190613105565b93506001846004811115610ac257610ac26130ef565b03610afa57610af56040518060400160405280600d81526020016c333930b6b29034b99037b832b760991b815250612904565b610c1c565b6002846004811115610b0e57610b0e6130ef565b03610b4357610af56040518060400160405280600f81526020016e199c985b59481a5cc818db1bdcd959608a1b815250612904565b6004846004811115610b5757610b576130ef565b03610b8d57610af56040518060400160405280601081526020016f199c985b59481a5cc81cd95d1d1b195960821b815250612904565b6003846004811115610ba157610ba16130ef565b03610bd557610af56040518060400160405280600e81526020016d199c985b59481a5cc81c985d195960921b815250612904565b6000846004811115610be957610be96130ef565b03610c1c57610c1c6040518060400160405280600d81526020016c199c985b59481a5cc81b9d5b1b609a1b815250612904565b6001846004811115610c3057610c306130ef565b03610f2757604051630122bf3160e51b8152600481018290526001600160a01b038e1690632457e62090602401600060405180830381865afa158015610c7a573d6000803e3d6000fd5b505050506040513d6000823e601f3d908101601f19168201604052610ca29190810190612ef2565b925060005b8351811015610f2557610cd48e83868481518110610cc757610cc7612f88565b602002602001015161028c565b878981518110610ce657610ce6612f88565b602002602001018190525060008e6001600160a01b031663fb0d5e0984878581518110610d1557610d15612f88565b60200260200101516040518363ffffffff1660e01b8152600401610d43929190918252602082015260400190565b600060405180830381865afa158015610d60573d6000803e3d6000fd5b505050506040513d6000823e601f3d908101601f19168201604052610d889190810190612fc2565b90508d6001600160a01b03168160018351610da39190613172565b81518110610db357610db3612f88565b6020026020010151604001516001600160a01b031603610f1257610dd7898b613126565b84600081518110610dea57610dea612f88565b602002602001015110158015610e2e575088610e078b600161313d565b610e119190613126565b84600081518110610e2457610e24612f88565b6020026020010151105b15610ecb57878981518110610e4557610e45612f88565b60200260200101518885600181518110610e6157610e61612f88565b602002602001015181518110610e7957610e79612f88565b602002602001018190525083600181518110610e9757610e97612f88565b60200260200101516001610eab919061313d565b84600181518110610ebe57610ebe612f88565b6020026020010181815250505b83600081518110610ede57610ede612f88565b60200260200101516001610ef2919061313d565b84600081518110610f0557610f05612f88565b6020026020010181815250505b5080610f1d816130bd565b915050610ca7565b505b81600281518110610f3a57610f3a612f88565b602002602001015181610f4d919061313d565b9050610a3c565b505b8960021480610f63575089155b156114c957885b8881116114c75760405163bad1265360e01b8152600481018290526001600160a01b038e169063bad1265390602401602060405180830381865afa158015610fb6573d6000803e3d6000fd5b505050506040513d601f19601f82011682018060405250810190610fda9190613105565b93506001846004811115610ff057610ff06130ef565b0361102d576110286040518060400160405280601281526020017129a7a61d10333930b6b29034b99037b832b760711b815250612904565b611163565b6002846004811115611041576110416130ef565b0361107b576110286040518060400160405280601481526020017314d3d30e88199c985b59481a5cc818db1bdcd95960621b815250612904565b600484600481111561108f5761108f6130ef565b036110ca576110286040518060400160405280601581526020017414d3d30e88199c985b59481a5cc81cd95d1d1b1959605a1b815250612904565b60038460048111156110de576110de6130ef565b03611117576110286040518060400160405280601381526020017214d3d30e88199c985b59481a5cc81c985d1959606a1b815250612904565b600084600481111561112b5761112b6130ef565b03611163576111636040518060400160405280601281526020017114d3d30e88199c985b59481a5cc81b9d5b1b60721b815250612904565b6002846004811115611177576111776130ef565b148061119457506004846004811115611192576111926130ef565b145b806111b0575060038460048111156111ae576111ae6130ef565b145b1561149a57604051630122bf3160e51b8152600481018290526001600160a01b038e1690632457e62090602401600060405180830381865afa1580156111fa573d6000803e3d6000fd5b505050506040513d6000823e601f3d908101601f191682016040526112229190810190612ef2565b925060005b8351811015611498576112478e83868481518110610cc757610cc7612f88565b87898151811061125957611259612f88565b602002602001018190525060008e6001600160a01b031663fb0d5e098487858151811061128857611288612f88565b60200260200101516040518363ffffffff1660e01b81526004016112b6929190918252602082015260400190565b600060405180830381865afa1580156112d3573d6000803e3d6000fd5b505050506040513d6000823e601f3d908101601f191682016040526112fb9190810190612fc2565b90508d6001600160a01b031681600183516113169190613172565b8151811061132657611326612f88565b6020026020010151604001516001600160a01b0316036114855761134a898b613126565b8460008151811061135d5761135d612f88565b6020026020010151101580156113a157508861137a8b600161313d565b6113849190613126565b8460008151811061139757611397612f88565b6020026020010151105b1561143e578789815181106113b8576113b8612f88565b602002602001015188856001815181106113d4576113d4612f88565b6020026020010151815181106113ec576113ec612f88565b60200260200101819052508360018151811061140a5761140a612f88565b6020026020010151600161141e919061313d565b8460018151811061143157611431612f88565b6020026020010181815250505b8360008151811061145157611451612f88565b60200260200101516001611465919061313d565b8460008151811061147857611478612f88565b6020026020010181815250505b5080611490816130bd565b915050611227565b505b816002815181106114ad576114ad612f88565b6020026020010151816114c0919061313d565b9050610f6a565b505b856114d588600161313d565b6114df9190613126565b816000815181106114f2576114f2612f88565b602002602001015111156115385786868260008151811061151557611515612f88565b60200260200101516115279190613150565b6115319190613172565b935061153d565b600093505b50505097509795505050505050565b6115546129f7565b61155c6129f7565b604051632840d02f60e21b8152600481018490526001600160a01b0385169063a10340bc9060240160e060405180830381865afa1580156115a1573d6000803e3d6000fd5b505050506040513d601f19601f820116820180604052508101906115c59190613185565b60e088015260c087015260a086015260808501526001600160a01b0390811660608501526020840191909152908252604051630122bf3160e51b81526004810185905290851690632457e62090602401600060405180830381865afa158015611632573d6000803e3d6000fd5b505050506040513d6000823e601f3d908101601f1916820160405261165a9190810190612ef2565b604082015290505b92915050565b604051630122bf3160e51b81526004810182905260009081906001600160a01b03851690632457e62090602401600060405180830381865afa1580156116b2573d6000803e3d6000fd5b505050506040513d6000823e601f3d908101601f191682016040526116da9190810190612ef2565b51949350505050565b6040516361eee2cb60e01b81526004810184905260009081906001600160a01b038716906361eee2cb90602401602060405180830381865afa15801561172d573d6000803e3d6000fd5b505050506040513d601f19601f8201168201806040525081019061175191906130d6565b6040516361eee2cb60e01b81524260048201529091506001600160a01b038716906361eee2cb90602401602060405180830381865afa158015611798573d6000803e3d6000fd5b505050506040513d601f19601f820116820180604052508101906117bc91906130d6565b8110156118105760405162461bcd60e51b815260206004820152601b60248201527f54484953204c4f5420495320494e20412050415354204652414d45000000000060448201526064015b60405180910390fd5b60008061188788848a6001600160a01b0316639592de188a6040518263ffffffff1660e01b815260040161184691815260200190565b602060405180830381865afa158015611863573d6000803e3d6000fd5b505050506040513d601f19601f820116820180604052508101906100ed91906130d6565b604081015180519192509061189e90600190613172565b815181106118ae576118ae612f88565b60200260200101516060015191506000886001600160a01b031663e107fb4f85856040518363ffffffff1660e01b81526004016118f5929190918252602082015260400190565b602060405180830381865afa158015611912573d6000803e3d6000fd5b505050506040513d601f19601f8201168201806040525081019061193691906130d6565b60405163e107fb4f60e01b815260048101869052602481018890529091506000906001600160a01b038b169063e107fb4f90604401602060405180830381865afa158015611988573d6000803e3d6000fd5b505050506040513d601f19601f820116820180604052508101906119ac91906130d6565b90508082106119be57600095506119cb565b6119c88282613172565b95505b5050505050949350505050565b6040516339a6a48960e01b81526004810182905260009081906001600160a01b038516906339a6a48990602401602060405180830381865afa158015611a22573d6000803e3d6000fd5b505050506040513d601f19601f82011682018060405250810190611a4691906130d6565b90506000846001600160a01b031663527eb4bc6040518163ffffffff1660e01b8152600401602060405180830381865afa158015611a88573d6000803e3d6000fd5b505050506040513d601f19601f82011682018060405250810190611aac91906130d6565b90506000611aba8284613172565b9695505050505050565b60608167ffffffffffffffff811115611adf57611adf612e5e565b604051908082528060200260200182016040528015611b08578160200160208202803683370190505b5090506000611b156129f7565b60005b848111611d0957600081886001600160a01b031663ef78d4fd6040518163ffffffff1660e01b8152600401602060405180830381865afa158015611b60573d6000803e3d6000fd5b505050506040513d601f19601f82011682018060405250810190611b8491906130d6565b611b8e9190613126565b611b98908861313d565b9050611ba4888261154c565b9250611be96040518060400160405280601781526020017f534f4c3a206672616d652e6672616d654b65793a202573000000000000000000815250846000015161294a565b825160405163bad1265360e01b81526000916001600160a01b038b169163bad1265391611c1c9160040190815260200190565b602060405180830381865afa158015611c39573d6000803e3d6000fd5b505050506040513d601f19601f82011682018060405250810190611c5d9190613105565b90506001816004811115611c7357611c736130ef565b1480611c9057506003816004811115611c8e57611c8e6130ef565b145b15611cf457611cc86040518060400160405280601281526020017129a7a61d10333930b6b29034b99037b832b760711b815250612904565b81868681518110611cdb57611cdb612f88565b602090810291909101015284611cf0816130bd565b9550505b50508080611d01906130bd565b915050611b18565b5050509392505050565b6040516361eee2cb60e01b81526004810184905260009081906001600160a01b038716906361eee2cb90602401602060405180830381865afa158015611d5d573d6000803e3d6000fd5b505050506040513d601f19601f82011682018060405250810190611d8191906130d6565b905042866001600160a01b031663ef78d4fd6040518163ffffffff1660e01b8152600401602060405180830381865afa158015611dc2573d6000803e3d6000fd5b505050506040513d601f19601f82011682018060405250810190611de691906130d6565b611df0908361313d565b1015611e3e5760405162461bcd60e51b815260206004820152601d60248201527f4672616d652068617320746f20626520696e20746865206675747572650000006044820152606401611807565b6040516312b25bc360e31b8152600481018590526000906001600160a01b03881690639592de1890602401602060405180830381865afa158015611e86573d6000803e3d6000fd5b505050506040513d601f19601f82011682018060405250810190611eaa91906130d6565b60405163e107fb4f60e01b815260048101849052602481018690529091506000906001600160a01b0389169063e107fb4f90604401602060405180830381865afa158015611efc573d6000803e3d6000fd5b505050506040513d601f19601f82011682018060405250810190611f2091906130d6565b90506000611f2f89858561028c565b604081015180519192508391611f4790600190613172565b81518110611f5757611f57612f88565b602002602001015160600151611f6d919061313d565b9998505050505050505050565b606060008267ffffffffffffffff811115611f9757611f97612e5e565b604051908082528060200260200182016040528015611fd057816020015b611fbd6129f7565b815260200190600190039081611fb55790505b5060408051600480825260a08201909252919350600091829160208201608080368337019050509050896001600160a01b031663ef78d4fd6040518163ffffffff1660e01b8152600401602060405180830381865afa158015612037573d6000803e3d6000fd5b505050506040513d601f19601f8201168201806040525081019061205b91906130d6565b8160028151811061206e5761206e612f88565b60209081029190910101526060885b88811161241d5760405163bad1265360e01b8152600481018290526001600160a01b038d169063bad1265390602401602060405180830381865afa1580156120c9573d6000803e3d6000fd5b505050506040513d601f19601f820116820180604052508101906120ed9190613105565b93506000846004811115612103576121036130ef565b146123f057604051630122bf3160e51b8152600481018290526001600160a01b038d1690632457e62090602401600060405180830381865afa15801561214d573d6000803e3d6000fd5b505050506040513d6000823e601f3d908101601f191682016040526121759190810190612ef2565b915060005b82518110156123ee5760008d6001600160a01b031663fb0d5e09848685815181106121a7576121a7612f88565b60200260200101516040518363ffffffff1660e01b81526004016121d5929190918252602082015260400190565b600060405180830381865afa1580156121f2573d6000803e3d6000fd5b505050506040513d6000823e601f3d908101601f1916820160405261221a9190810190612fc2565b90508c6001600160a01b031681600183516122359190613172565b8151811061224557612245612f88565b6020026020010151604001516001600160a01b03161480156122815750828560038151811061227657612276612f88565b602002602001015114155b156123db57612290898b613126565b856000815181106122a3576122a3612f88565b6020026020010151101580156122e75750886122c08b600161313d565b6122ca9190613126565b856000815181106122dd576122dd612f88565b6020026020010151105b15612374576122f68e8461154c565b888660018151811061230a5761230a612f88565b60200260200101518151811061232257612322612f88565b60200260200101819052508460018151811061234057612340612f88565b60200260200101516001612354919061313d565b8560018151811061236757612367612f88565b6020026020010181815250505b8460008151811061238757612387612f88565b6020026020010151600161239b919061313d565b856000815181106123ae576123ae612f88565b60200260200101818152505082856003815181106123ce576123ce612f88565b6020026020010181815250505b50806123e6816130bd565b91505061217a565b505b8260028151811061240357612403612f88565b602002602001015181612416919061313d565b905061207d565b508561242a88600161313d565b6124349190613126565b8260008151811061244757612447612f88565b6020026020010151111561248d5786868360008151811061246a5761246a612f88565b602002602001015161247c9190613150565b6124869190613172565b9350612492565b600093505b505050965096945050505050565b606060006124cc604051806040016040528060078152602001666765744c6f747360c81b815250612904565b848611156125425760405162461bcd60e51b815260206004820152603760248201527f6672616d654b65795f7374617274206d75737420626520736d616c6c6572206f60448201527f7220657175616c20746f206672616d654b65795f656e640000000000000000006064820152608401611807565b8267ffffffffffffffff81111561255b5761255b612e5e565b6040519080825280602002602001820160405280156125b057816020015b61259d60405180606001604052806000815260200160008152602001606081525090565b8152602001906001900390816125795790505b5060408051600380825260808201909252919350606091600091602082018480368337019050509050886001600160a01b031663ef78d4fd6040518163ffffffff1660e01b8152600401602060405180830381865afa158015612617573d6000803e3d6000fd5b505050506040513d601f19601f8201168201806040525081019061263b91906130d6565b8160028151811061264e5761264e612f88565b60200260200101818152505061268d604051806040016040528060128152602001710534f4c3a205374617274696e67206c6f6f760741b815250612904565b875b878111610888576126c46040518060400160405280600c81526020016b6672616d654b65793a20257360a01b8152508261294a565b604051630122bf3160e51b8152600481018290526001600160a01b038b1690632457e62090602401600060405180830381865afa158015612709573d6000803e3d6000fd5b505050506040513d6000823e601f3d908101601f191682016040526127319190810190612ef2565b925060005b83518110156128d6576127846040518060400160405280600a8152602001696c6f744b65793a20257360b01b81525085838151811061277757612777612f88565b602002602001015161294a565b61278e8789613126565b836000815181106127a1576127a1612f88565b6020026020010151101580156127e55750866127be89600161313d565b6127c89190613126565b836000815181106127db576127db612f88565b6020026020010151105b1561287f576128018b83868481518110610cc757610cc7612f88565b868460018151811061281557612815612f88565b60200260200101518151811061282d5761282d612f88565b60200260200101819052508260018151811061284b5761284b612f88565b6020026020010151600161285f919061313d565b8360018151811061287257612872612f88565b6020026020010181815250505b8260008151811061289257612892612f88565b602002602001015160016128a6919061313d565b836000815181106128b9576128b9612f88565b6020908102919091010152806128ce816130bd565b915050612736565b50816002815181106128ea576128ea612f88565b6020026020010151816128fd919061313d565b905061268f565b61294781604051602401612918919061322b565b60408051601f198184030181529190526020810180516001600160e01b031663104c13eb60e21b179052612993565b50565b61298f828260405160240161296092919061323e565b60408051601f198184030181529190526020810180516001600160e01b0316632d839cb360e21b179052612993565b5050565b6129478160006a636f6e736f6c652e6c6f679050600080835160208501845afa505050565b6040518060c00160405280600081526020016000815260200160006001600160a01b031681526020016000815260200160008152602001600081525090565b60405180610100016040528060008152602001600081526020016060815260200160006001600160a01b03168152602001600081526020016000815260200160008152602001600081525090565b6001600160a01b038116811461294757600080fd5b600080600060608486031215612a6f57600080fd5b8335612a7a81612a45565b95602085013595506040909401359392505050565b600060608084018351855260208085015181870152604080860151848289015283815180865260809550858a019150848301925060005b81811015612b19578351805184528681015187850152858101516001600160a01b0316868501528881015189850152878101518885015260a090810151908401529285019260c090920191600101612ac6565b50909998505050505050505050565b6020815260006102856020830184612a8f565b600080600080600060a08688031215612b5357600080fd5b8535612b5e81612a45565b97602087013597506040870135966060810135965060800135945092505050565b805182526020808201518184015260408083015161010091850182905280519185018290526000926101208601929181019184905b80821015612bd45783518552938201939282019260019190910190612bb4565b505050506060830151612bf260608601826001600160a01b03169052565b506080830151608085015260a083015160a085015260c083015160c085015260e083015160e08501528091505092915050565b6000604082016040835280855180835260608501915060608160051b8601019250602080880160005b83811015612c7c57605f19888703018552612c6a868351612b7f565b95509382019390820190600101612c4e565b50509490940194909452949350505050565b600080600080600080600060e0888a031215612ca957600080fd5b8735612cb481612a45565b96506020880135612cc481612a45565b96999698505050506040850135946060810135946080820135945060a0820135935060c0909101359150565b6000604082016040835280855180835260608501915060608160051b8601019250602080880160005b83811015612c7c57605f19888703018552612d35868351612a8f565b95509382019390820190600101612d19565b60008060408385031215612d5a57600080fd5b8235612d6581612a45565b946020939093013593505050565b6020815260006102856020830184612b7f565b60008060008060808587031215612d9c57600080fd5b8435612da781612a45565b966020860135965060408601359560600135945092505050565b6020808252825182820181905260009190848201906040850190845b81811015612df957835183529284019291840191600101612ddd565b50909695505050505050565b60008060008060008060c08789031215612e1e57600080fd5b8635612e2981612a45565b95506020870135612e3981612a45565b95989597505050506040840135936060810135936080820135935060a0909101359150565b634e487b7160e01b600052604160045260246000fd5b60405160c0810167ffffffffffffffff81118282101715612e9757612e97612e5e565b60405290565b604051601f8201601f1916810167ffffffffffffffff81118282101715612ec657612ec6612e5e565b604052919050565b600067ffffffffffffffff821115612ee857612ee8612e5e565b5060051b60200190565b60006020808385031215612f0557600080fd5b825167ffffffffffffffff811115612f1c57600080fd5b8301601f81018513612f2d57600080fd5b8051612f40612f3b82612ece565b612e9d565b81815260059190911b82018301908381019087831115612f5f57600080fd5b928401925b82841015612f7d57835182529284019290840190612f64565b979650505050505050565b634e487b7160e01b600052603260045260246000fd5b60008060408385031215612fb157600080fd5b505080516020909101519092909150565b60006020808385031215612fd557600080fd5b825167ffffffffffffffff811115612fec57600080fd5b8301601f81018513612ffd57600080fd5b805161300b612f3b82612ece565b81815260c0918202830184019184820191908884111561302a57600080fd5b938501935b8385101561309b5780858a0312156130475760008081fd5b61304f612e74565b85518152868601518782015260408087015161306a81612a45565b90820152606086810151908201526080808701519082015260a080870151908201528352938401939185019161302f565b50979650505050505050565b634e487b7160e01b600052601160045260246000fd5b6000600182016130cf576130cf6130a7565b5060010190565b6000602082840312156130e857600080fd5b5051919050565b634e487b7160e01b600052602160045260246000fd5b60006020828403121561311757600080fd5b81516005811061028557600080fd5b8082028115828204841417611662576116626130a7565b80820180821115611662576116626130a7565b60008261316d57634e487b7160e01b600052601260045260246000fd5b500490565b81810381811115611662576116626130a7565b600080600080600080600060e0888a0312156131a057600080fd5b875196506020880151955060408801516131b981612a45565b80955050606088015193506080880151925060a0880151915060c0880151905092959891949750929550565b6000815180845260005b8181101561320b576020818501810151868301820152016131ef565b506000602082860101526020601f19601f83011685010191505092915050565b60208152600061028560208301846131e5565b60408152600061325160408301856131e5565b9050826020830152939250505056fea26469706673582212205b11e3ef7675f7b81000367d3470bbf4c209b26e424e38f9fc709bc4047c7d2664736f6c63430008140033",
  "linkReferences": {},
  "deployedLinkReferences": {}
}