{
  "_format": "hh-sol-artifact-1",
  "contractName": "MarketGetter",
  "sourceName": "contracts/MarketGetter.sol",
  "abi": [
    {
      "inputs": [
        {
          "internalType": "contract Market",
          "name": "market",
          "type": "address"
        },
        {
          "internalType": "uint256",
          "name": "timestamp",
          "type": "uint256"
        },
        {
          "internalType": "uint256",
          "name": "pairPrice",
          "type": "uint256"
        },
        {
          "internalType": "uint256",
          "name": "acqPrice",
          "type": "uint256"
        }
      ],
      "name": "clcAmountToApprove",
      "outputs": [
        {
          "internalType": "uint256",
          "name": "cmpltAmnt",
          "type": "uint256"
        }
      ],
      "stateMutability": "view",
      "type": "function"
    },
    {
      "inputs": [
        {
          "internalType": "contract Market",
          "name": "market",
          "type": "address"
        },
        {
          "internalType": "uint256",
          "name": "timestamp",
          "type": "uint256"
        },
        {
          "internalType": "uint256",
          "name": "pairPrice",
          "type": "uint256"
        },
        {
          "internalType": "uint256",
          "name": "acqPrice",
          "type": "uint256"
        }
      ],
      "name": "clcAmountToApproveForUpdate",
      "outputs": [
        {
          "internalType": "uint256",
          "name": "amnt",
          "type": "uint256"
        }
      ],
      "stateMutability": "view",
      "type": "function"
    },
    {
      "inputs": [
        {
          "internalType": "contract Market",
          "name": "market",
          "type": "address"
        },
        {
          "internalType": "uint256",
          "name": "frameKey",
          "type": "uint256"
        }
      ],
      "name": "clcPrice",
      "outputs": [
        {
          "internalType": "uint256",
          "name": "avgPrice",
          "type": "uint256"
        }
      ],
      "stateMutability": "view",
      "type": "function"
    },
    {
      "inputs": [
        {
          "internalType": "contract Market",
          "name": "market",
          "type": "address"
        },
        {
          "internalType": "uint256",
          "name": "frameKey",
          "type": "uint256"
        }
      ],
      "name": "getFrameStruct",
      "outputs": [
        {
          "components": [
            {
              "internalType": "uint256",
              "name": "frameKey",
              "type": "uint256"
            },
            {
              "internalType": "uint256",
              "name": "oracleTimestampStart",
              "type": "uint256"
            },
            {
              "internalType": "uint256",
              "name": "oracleTimestampEnd",
              "type": "uint256"
            },
            {
              "internalType": "uint256",
              "name": "rewardFund",
              "type": "uint256"
            },
            {
              "internalType": "uint256",
              "name": "priceAverage",
              "type": "uint256"
            },
            {
              "internalType": "uint256",
              "name": "oraclePrice0CumulativeStart",
              "type": "uint256"
            },
            {
              "internalType": "uint256",
              "name": "oraclePrice0CumulativeEnd",
              "type": "uint256"
            },
            {
              "internalType": "uint256",
              "name": "oraclePrice1CumulativeStart",
              "type": "uint256"
            },
            {
              "internalType": "uint256",
              "name": "oraclePrice1CumulativeEnd",
              "type": "uint256"
            },
            {
              "internalType": "enum MLib.SFrame",
              "name": "state",
              "type": "uint8"
            },
            {
              "internalType": "uint256[]",
              "name": "lotKeys",
              "type": "uint256[]"
            }
          ],
          "internalType": "struct MLib.Frame",
          "name": "",
          "type": "tuple"
        }
      ],
      "stateMutability": "view",
      "type": "function"
    },
    {
      "inputs": [
        {
          "internalType": "contract Market",
          "name": "market",
          "type": "address"
        },
        {
          "internalType": "uint256",
          "name": "frameKey_start",
          "type": "uint256"
        },
        {
          "internalType": "uint256",
          "name": "frameKey_end",
          "type": "uint256"
        },
        {
          "internalType": "uint256",
          "name": "page",
          "type": "uint256"
        },
        {
          "internalType": "uint256",
          "name": "perPage",
          "type": "uint256"
        }
      ],
      "name": "getFrames",
      "outputs": [
        {
          "components": [
            {
              "internalType": "uint256",
              "name": "frameKey",
              "type": "uint256"
            },
            {
              "internalType": "uint256",
              "name": "oracleTimestampStart",
              "type": "uint256"
            },
            {
              "internalType": "uint256",
              "name": "oracleTimestampEnd",
              "type": "uint256"
            },
            {
              "internalType": "uint256",
              "name": "rewardFund",
              "type": "uint256"
            },
            {
              "internalType": "uint256",
              "name": "priceAverage",
              "type": "uint256"
            },
            {
              "internalType": "uint256",
              "name": "oraclePrice0CumulativeStart",
              "type": "uint256"
            },
            {
              "internalType": "uint256",
              "name": "oraclePrice0CumulativeEnd",
              "type": "uint256"
            },
            {
              "internalType": "uint256",
              "name": "oraclePrice1CumulativeStart",
              "type": "uint256"
            },
            {
              "internalType": "uint256",
              "name": "oraclePrice1CumulativeEnd",
              "type": "uint256"
            },
            {
              "internalType": "enum MLib.SFrame",
              "name": "state",
              "type": "uint8"
            },
            {
              "internalType": "uint256[]",
              "name": "lotKeys",
              "type": "uint256[]"
            }
          ],
          "internalType": "struct MLib.Frame[]",
          "name": "frames",
          "type": "tuple[]"
        },
        {
          "internalType": "uint256",
          "name": "pagesLeft",
          "type": "uint256"
        }
      ],
      "stateMutability": "view",
      "type": "function"
    },
    {
      "inputs": [
        {
          "internalType": "contract Market",
          "name": "market",
          "type": "address"
        },
        {
          "internalType": "address",
          "name": "user",
          "type": "address"
        },
        {
          "internalType": "uint256",
          "name": "frameKey_start",
          "type": "uint256"
        },
        {
          "internalType": "uint256",
          "name": "frameKey_end",
          "type": "uint256"
        },
        {
          "internalType": "uint256",
          "name": "page",
          "type": "uint256"
        },
        {
          "internalType": "uint256",
          "name": "perPage",
          "type": "uint256"
        }
      ],
      "name": "getFramesUser",
      "outputs": [
        {
          "components": [
            {
              "internalType": "uint256",
              "name": "frameKey",
              "type": "uint256"
            },
            {
              "internalType": "uint256",
              "name": "oracleTimestampStart",
              "type": "uint256"
            },
            {
              "internalType": "uint256",
              "name": "oracleTimestampEnd",
              "type": "uint256"
            },
            {
              "internalType": "uint256",
              "name": "rewardFund",
              "type": "uint256"
            },
            {
              "internalType": "uint256",
              "name": "priceAverage",
              "type": "uint256"
            },
            {
              "internalType": "uint256",
              "name": "oraclePrice0CumulativeStart",
              "type": "uint256"
            },
            {
              "internalType": "uint256",
              "name": "oraclePrice0CumulativeEnd",
              "type": "uint256"
            },
            {
              "internalType": "uint256",
              "name": "oraclePrice1CumulativeStart",
              "type": "uint256"
            },
            {
              "internalType": "uint256",
              "name": "oraclePrice1CumulativeEnd",
              "type": "uint256"
            },
            {
              "internalType": "enum MLib.SFrame",
              "name": "state",
              "type": "uint8"
            },
            {
              "internalType": "uint256[]",
              "name": "lotKeys",
              "type": "uint256[]"
            }
          ],
          "internalType": "struct MLib.Frame[]",
          "name": "userFrames",
          "type": "tuple[]"
        },
        {
          "internalType": "uint256",
          "name": "pagesLeft",
          "type": "uint256"
        }
      ],
      "stateMutability": "view",
      "type": "function"
    },
    {
      "inputs": [
        {
          "internalType": "contract Market",
          "name": "market",
          "type": "address"
        },
        {
          "internalType": "uint256",
          "name": "frameKey",
          "type": "uint256"
        },
        {
          "internalType": "uint256",
          "name": "index",
          "type": "uint256"
        }
      ],
      "name": "getLotKey",
      "outputs": [
        {
          "internalType": "uint256",
          "name": "",
          "type": "uint256"
        }
      ],
      "stateMutability": "view",
      "type": "function"
    },
    {
      "inputs": [
        {
          "internalType": "contract Market",
          "name": "market",
          "type": "address"
        },
        {
          "internalType": "uint256",
          "name": "frameKey",
          "type": "uint256"
        },
        {
          "internalType": "uint256",
          "name": "lotKey",
          "type": "uint256"
        }
      ],
      "name": "getLotStruct",
      "outputs": [
        {
          "components": [
            {
              "internalType": "uint256",
              "name": "frameKey",
              "type": "uint256"
            },
            {
              "internalType": "uint256",
              "name": "lotKey",
              "type": "uint256"
            },
            {
              "internalType": "address",
              "name": "lotOwner",
              "type": "address"
            },
            {
              "internalType": "uint256",
              "name": "acquisitionPrice",
              "type": "uint256"
            },
            {
              "internalType": "enum MLib.SLot",
              "name": "state",
              "type": "uint8"
            }
          ],
          "internalType": "struct MLib.Lot",
          "name": "",
          "type": "tuple"
        }
      ],
      "stateMutability": "view",
      "type": "function"
    },
    {
      "inputs": [
        {
          "internalType": "contract Market",
          "name": "market",
          "type": "address"
        },
        {
          "internalType": "uint256",
          "name": "frameKey_start",
          "type": "uint256"
        },
        {
          "internalType": "uint256",
          "name": "frameKey_end",
          "type": "uint256"
        },
        {
          "internalType": "uint256",
          "name": "page",
          "type": "uint256"
        },
        {
          "internalType": "uint256",
          "name": "perPage",
          "type": "uint256"
        }
      ],
      "name": "getLots",
      "outputs": [
        {
          "components": [
            {
              "internalType": "uint256",
              "name": "frameKey",
              "type": "uint256"
            },
            {
              "internalType": "uint256",
              "name": "lotKey",
              "type": "uint256"
            },
            {
              "internalType": "address",
              "name": "lotOwner",
              "type": "address"
            },
            {
              "internalType": "uint256",
              "name": "acquisitionPrice",
              "type": "uint256"
            },
            {
              "internalType": "enum MLib.SLot",
              "name": "state",
              "type": "uint8"
            }
          ],
          "internalType": "struct MLib.Lot[]",
          "name": "lots",
          "type": "tuple[]"
        },
        {
          "internalType": "uint256",
          "name": "pagesLeft",
          "type": "uint256"
        }
      ],
      "stateMutability": "view",
      "type": "function"
    },
    {
      "inputs": [
        {
          "internalType": "contract Market",
          "name": "market",
          "type": "address"
        },
        {
          "internalType": "uint256",
          "name": "frameKey",
          "type": "uint256"
        }
      ],
      "name": "getLotsCount",
      "outputs": [
        {
          "internalType": "uint256",
          "name": "",
          "type": "uint256"
        }
      ],
      "stateMutability": "view",
      "type": "function"
    },
    {
      "inputs": [
        {
          "internalType": "contract Market",
          "name": "market",
          "type": "address"
        },
        {
          "internalType": "address",
          "name": "user",
          "type": "address"
        },
        {
          "internalType": "uint256",
          "name": "mode",
          "type": "uint256"
        },
        {
          "internalType": "uint256",
          "name": "frameKey_start",
          "type": "uint256"
        },
        {
          "internalType": "uint256",
          "name": "frameKey_end",
          "type": "uint256"
        },
        {
          "internalType": "uint256",
          "name": "page",
          "type": "uint256"
        },
        {
          "internalType": "uint256",
          "name": "perPage",
          "type": "uint256"
        }
      ],
      "name": "getLotsUser",
      "outputs": [
        {
          "components": [
            {
              "internalType": "uint256",
              "name": "frameKey",
              "type": "uint256"
            },
            {
              "internalType": "uint256",
              "name": "lotKey",
              "type": "uint256"
            },
            {
              "internalType": "address",
              "name": "lotOwner",
              "type": "address"
            },
            {
              "internalType": "uint256",
              "name": "acquisitionPrice",
              "type": "uint256"
            },
            {
              "internalType": "enum MLib.SLot",
              "name": "state",
              "type": "uint8"
            }
          ],
          "internalType": "struct MLib.Lot[]",
          "name": "userLots",
          "type": "tuple[]"
        },
        {
          "internalType": "uint256",
          "name": "pagesLeft",
          "type": "uint256"
        }
      ],
      "stateMutability": "view",
      "type": "function"
    },
    {
      "inputs": [
        {
          "internalType": "contract Market",
          "name": "market",
          "type": "address"
        },
        {
          "internalType": "uint256",
          "name": "startFrame",
          "type": "uint256"
        },
        {
          "internalType": "uint256",
          "name": "numOfFrames",
          "type": "uint256"
        }
      ],
      "name": "getOpenFrameKeys",
      "outputs": [
        {
          "internalType": "uint256[]",
          "name": "openFrames",
          "type": "uint256[]"
        }
      ],
      "stateMutability": "view",
      "type": "function"
    },
    {
      "inputs": [
        {
          "internalType": "contract Market",
          "name": "market",
          "type": "address"
        },
        {
          "internalType": "uint256",
          "name": "frameKey",
          "type": "uint256"
        }
      ],
      "name": "getRewardAmount",
      "outputs": [
        {
          "internalType": "uint256",
          "name": "",
          "type": "uint256"
        }
      ],
      "stateMutability": "view",
      "type": "function"
    }
  ],
  "bytecode": "0x608060405234801561001057600080fd5b5061498e806100206000396000f3fe608060405234801561001057600080fd5b50600436106100cf5760003560e01c8063c1d013951161008c578063de73259511610066578063de73259514610286578063ee707ed9146102b6578063f6eb9ee7146102e6578063f91cbebe14610317576100cf565b8063c1d01395146101f6578063da4e855614610226578063dbd20a8814610256576100cf565b80632c79854f146100d45780634314b84f14610104578063612d8b501461013457806371b08d89146101655780637f424a37146101965780639291178e146101c6575b600080fd5b6100ee60048036038101906100e99190613bd0565b610348565b6040516100fb9190614488565b60405180910390f35b61011e60048036038101906101199190613bd0565b610426565b60405161012b919061446d565b60405180910390f35b61014e60048036038101906101499190613c82565b610595565b60405161015c9291906143a9565b60405180910390f35b61017f600480360381019061017a9190613af6565b610b78565b60405161018d9291906143d9565b60405180910390f35b6101b060048036038101906101ab9190613b94565b6119bc565b6040516101bd919061444b565b60405180910390f35b6101e060048036038101906101db9190613b94565b611cae565b6040516101ed9190614488565b60405180910390f35b610210600480360381019061020b9190613c1f565b611d4c565b60405161021d9190614488565b60405180910390f35b610240600480360381019061023b9190613b94565b612114565b60405161024d9190614488565b60405180910390f35b610270600480360381019061026b9190613bd0565b6121df565b60405161027d9190614409565b60405180910390f35b6102a0600480360381019061029b9190613c1f565b6123e9565b6040516102ad9190614488565b60405180910390f35b6102d060048036038101906102cb9190613b94565b61268b565b6040516102dd9190614488565b60405180910390f35b61030060048036038101906102fb9190613a6d565b61290f565b60405161030e9291906143a9565b60405180910390f35b610331600480360381019061032c9190613c82565b613136565b60405161033f9291906143d9565b60405180910390f35b6000808473ffffffffffffffffffffffffffffffffffffffff1663ab02f2a9856040518263ffffffff1660e01b81526004016103849190614488565b60006040518083038186803b15801561039c57600080fd5b505afa1580156103b0573d6000803e3d6000fd5b505050506040513d6000823e3d601f19601f820116820180604052508101906103d99190613a03565b9050808381518110610414577f4e487b7100000000000000000000000000000000000000000000000000000000600052603260045260246000fd5b60200260200101519150509392505050565b61042e6137b6565b6104366137b6565b8473ffffffffffffffffffffffffffffffffffffffff1663b93dafa985856040518363ffffffff1660e01b81526004016104719291906144a3565b60a06040518083038186803b15801561048957600080fd5b505afa15801561049d573d6000803e3d6000fd5b505050506040513d601f19601f820116820180604052508101906104c19190613d4b565b856000018660200187604001886060018960800185600281111561050e577f4e487b7100000000000000000000000000000000000000000000000000000000600052602160045260246000fd5b6002811115610546577f4e487b7100000000000000000000000000000000000000000000000000000000600052602160045260246000fd5b815250858152508573ffffffffffffffffffffffffffffffffffffffff1673ffffffffffffffffffffffffffffffffffffffff1681525085815250858152505050505050809150509392505050565b606060008267ffffffffffffffff8111156105d9577f4e487b7100000000000000000000000000000000000000000000000000000000600052604160045260246000fd5b60405190808252806020026020018201604052801561061257816020015b6105ff613833565b8152602001906001900390816105f75790505b50915061061d613833565b6000600367ffffffffffffffff811115610660577f4e487b7100000000000000000000000000000000000000000000000000000000600052604160045260246000fd5b60405190808252806020026020018201604052801561068e5781602001602082028036833780820191505090505b5090508873ffffffffffffffffffffffffffffffffffffffff1663ef78d4fd6040518163ffffffff1660e01b815260040160206040518083038186803b1580156106d757600080fd5b505afa1580156106eb573d6000803e3d6000fd5b505050506040513d601f19601f8201168201806040525081019061070f9190613d22565b81600281518110610749577f4e487b7100000000000000000000000000000000000000000000000000000000600052603260045260246000fd5b60200260200101818152505060008890505b878111610aa75761076c8a826119bc565b9250600060028111156107a8577f4e487b7100000000000000000000000000000000000000000000000000000000600052602160045260246000fd5b83610120015160028111156107e6577f4e487b7100000000000000000000000000000000000000000000000000000000600052602160045260246000fd5b14610a535785876107f7919061467d565b82600081518110610831577f4e487b7100000000000000000000000000000000000000000000000000000000600052603260045260246000fd5b60200260200101511015801561089e57508560018861085091906145f6565b61085a919061467d565b82600081518110610894577f4e487b7100000000000000000000000000000000000000000000000000000000600052603260045260246000fd5b6020026020010151105b156109be578285836001815181106108df577f4e487b7100000000000000000000000000000000000000000000000000000000600052603260045260246000fd5b60200260200101518151811061091e577f4e487b7100000000000000000000000000000000000000000000000000000000600052603260045260246000fd5b6020026020010181905250600182600181518110610965577f4e487b7100000000000000000000000000000000000000000000000000000000600052603260045260246000fd5b602002602001015161097791906145f6565b826001815181106109b1577f4e487b7100000000000000000000000000000000000000000000000000000000600052603260045260246000fd5b6020026020010181815250505b6001826000815181106109fa577f4e487b7100000000000000000000000000000000000000000000000000000000600052603260045260246000fd5b6020026020010151610a0c91906145f6565b82600081518110610a46577f4e487b7100000000000000000000000000000000000000000000000000000000600052603260045260246000fd5b6020026020010181815250505b81600281518110610a8d577f4e487b7100000000000000000000000000000000000000000000000000000000600052603260045260246000fd5b602002602001015181610aa091906145f6565b905061075b565b5084600187610ab691906145f6565b610ac0919061467d565b81600081518110610afa577f4e487b7100000000000000000000000000000000000000000000000000000000600052603260045260246000fd5b60200260200101511115610b6757858582600081518110610b44577f4e487b7100000000000000000000000000000000000000000000000000000000600052603260045260246000fd5b6020026020010151610b56919061464c565b610b6091906146d7565b9250610b6c565b600092505b50509550959350505050565b60606000600183610b8991906145f6565b67ffffffffffffffff811115610bc8577f4e487b7100000000000000000000000000000000000000000000000000000000600052604160045260246000fd5b604051908082528060200260200182016040528015610c0157816020015b610bee6137b6565b815260200190600190039081610be65790505b509150600060606000600367ffffffffffffffff811115610c4b577f4e487b7100000000000000000000000000000000000000000000000000000000600052604160045260246000fd5b604051908082528060200260200182016040528015610c795781602001602082028036833780820191505090505b5090508b73ffffffffffffffffffffffffffffffffffffffff1663ef78d4fd6040518163ffffffff1660e01b815260040160206040518083038186803b158015610cc257600080fd5b505afa158015610cd6573d6000803e3d6000fd5b505050506040513d601f19601f82011682018060405250810190610cfa9190613d22565b81600281518110610d34577f4e487b7100000000000000000000000000000000000000000000000000000000600052603260045260246000fd5b60200260200101818152505060018a1161130f5760008990505b88811161130d578c73ffffffffffffffffffffffffffffffffffffffff1663f109db84826040518263ffffffff1660e01b8152600401610d8e9190614488565b60206040518083038186803b158015610da657600080fd5b505afa158015610dba573d6000803e3d6000fd5b505050506040513d601f19601f82011682018060405250810190610dde9190613cf9565b935060016002811115610e1a577f4e487b7100000000000000000000000000000000000000000000000000000000600052602160045260246000fd5b846002811115610e53577f4e487b7100000000000000000000000000000000000000000000000000000000600052602160045260246000fd5b14156112b9578c73ffffffffffffffffffffffffffffffffffffffff1663ab02f2a9826040518263ffffffff1660e01b8152600401610e929190614488565b60006040518083038186803b158015610eaa57600080fd5b505afa158015610ebe573d6000803e3d6000fd5b505050506040513d6000823e3d601f19601f82011682018060405250810190610ee79190613a03565b925060005b83518110156112b757610f408e83868481518110610f33577f4e487b7100000000000000000000000000000000000000000000000000000000600052603260045260246000fd5b6020026020010151610426565b878981518110610f79577f4e487b7100000000000000000000000000000000000000000000000000000000600052603260045260246000fd5b60200260200101819052508c73ffffffffffffffffffffffffffffffffffffffff16878981518110610fd4577f4e487b7100000000000000000000000000000000000000000000000000000000600052603260045260246000fd5b60200260200101516040015173ffffffffffffffffffffffffffffffffffffffff1614156112a4578789611008919061467d565b83600081518110611042577f4e487b7100000000000000000000000000000000000000000000000000000000600052603260045260246000fd5b6020026020010151101580156110af57508760018a61106191906145f6565b61106b919061467d565b836000815181106110a5577f4e487b7100000000000000000000000000000000000000000000000000000000600052603260045260246000fd5b6020026020010151105b1561120f578688815181106110ed577f4e487b7100000000000000000000000000000000000000000000000000000000600052603260045260246000fd5b60200260200101518784600181518110611130577f4e487b7100000000000000000000000000000000000000000000000000000000600052603260045260246000fd5b60200260200101518151811061116f577f4e487b7100000000000000000000000000000000000000000000000000000000600052603260045260246000fd5b60200260200101819052506001836001815181106111b6577f4e487b7100000000000000000000000000000000000000000000000000000000600052603260045260246000fd5b60200260200101516111c891906145f6565b83600181518110611202577f4e487b7100000000000000000000000000000000000000000000000000000000600052603260045260246000fd5b6020026020010181815250505b60018360008151811061124b577f4e487b7100000000000000000000000000000000000000000000000000000000600052603260045260246000fd5b602002602001015161125d91906145f6565b83600081518110611297577f4e487b7100000000000000000000000000000000000000000000000000000000600052603260045260246000fd5b6020026020010181815250505b80806112af906147af565b915050610eec565b505b816002815181106112f3577f4e487b7100000000000000000000000000000000000000000000000000000000600052603260045260246000fd5b60200260200101518161130691906145f6565b9050610d4e565b505b60028a148061131e575060008a145b156118e95760008990505b8881116118e7578c73ffffffffffffffffffffffffffffffffffffffff1663f109db84826040518263ffffffff1660e01b81526004016113699190614488565b60206040518083038186803b15801561138157600080fd5b505afa158015611395573d6000803e3d6000fd5b505050506040513d601f19601f820116820180604052508101906113b99190613cf9565b93506002808111156113f4577f4e487b7100000000000000000000000000000000000000000000000000000000600052602160045260246000fd5b84600281111561142d577f4e487b7100000000000000000000000000000000000000000000000000000000600052602160045260246000fd5b1415611893578c73ffffffffffffffffffffffffffffffffffffffff1663ab02f2a9826040518263ffffffff1660e01b815260040161146c9190614488565b60006040518083038186803b15801561148457600080fd5b505afa158015611498573d6000803e3d6000fd5b505050506040513d6000823e3d601f19601f820116820180604052508101906114c19190613a03565b925060005b83518110156118915761151a8e8386848151811061150d577f4e487b7100000000000000000000000000000000000000000000000000000000600052603260045260246000fd5b6020026020010151610426565b878981518110611553577f4e487b7100000000000000000000000000000000000000000000000000000000600052603260045260246000fd5b60200260200101819052508c73ffffffffffffffffffffffffffffffffffffffff168789815181106115ae577f4e487b7100000000000000000000000000000000000000000000000000000000600052603260045260246000fd5b60200260200101516040015173ffffffffffffffffffffffffffffffffffffffff16141561187e5787896115e2919061467d565b8360008151811061161c577f4e487b7100000000000000000000000000000000000000000000000000000000600052603260045260246000fd5b60200260200101511015801561168957508760018a61163b91906145f6565b611645919061467d565b8360008151811061167f577f4e487b7100000000000000000000000000000000000000000000000000000000600052603260045260246000fd5b6020026020010151105b156117e9578688815181106116c7577f4e487b7100000000000000000000000000000000000000000000000000000000600052603260045260246000fd5b6020026020010151878460018151811061170a577f4e487b7100000000000000000000000000000000000000000000000000000000600052603260045260246000fd5b602002602001015181518110611749577f4e487b7100000000000000000000000000000000000000000000000000000000600052603260045260246000fd5b6020026020010181905250600183600181518110611790577f4e487b7100000000000000000000000000000000000000000000000000000000600052603260045260246000fd5b60200260200101516117a291906145f6565b836001815181106117dc577f4e487b7100000000000000000000000000000000000000000000000000000000600052603260045260246000fd5b6020026020010181815250505b600183600081518110611825577f4e487b7100000000000000000000000000000000000000000000000000000000600052603260045260246000fd5b602002602001015161183791906145f6565b83600081518110611871577f4e487b7100000000000000000000000000000000000000000000000000000000600052603260045260246000fd5b6020026020010181815250505b8080611889906147af565b9150506114c6565b505b816002815181106118cd577f4e487b7100000000000000000000000000000000000000000000000000000000600052603260045260246000fd5b6020026020010151816118e091906145f6565b9050611329565b505b856001886118f791906145f6565b611901919061467d565b8160008151811061193b577f4e487b7100000000000000000000000000000000000000000000000000000000600052603260045260246000fd5b602002602001015111156119a857868682600081518110611985577f4e487b7100000000000000000000000000000000000000000000000000000000600052603260045260246000fd5b6020026020010151611997919061464c565b6119a191906146d7565b93506119ad565b600093505b50505097509795505050505050565b6119c4613833565b6119cc613833565b8373ffffffffffffffffffffffffffffffffffffffff1663a10340bc846040518263ffffffff1660e01b8152600401611a059190614488565b6101406040518083038186803b158015611a1e57600080fd5b505afa158015611a32573d6000803e3d6000fd5b505050506040513d601f19601f82011682018060405250810190611a569190613dc2565b909192939495509091929394509091929350909192509091509050508360000184602001856040018381525083815250838152505050508373ffffffffffffffffffffffffffffffffffffffff1663a10340bc846040518263ffffffff1660e01b8152600401611ac69190614488565b6101406040518083038186803b158015611adf57600080fd5b505afa158015611af3573d6000803e3d6000fd5b505050506040513d601f19601f82011682018060405250810190611b179190613dc2565b90919293949596979850909192939495969750909192939495965090915090505084606001856080018660a0018760c00184815250848152508481525084815250505050508373ffffffffffffffffffffffffffffffffffffffff1663a10340bc846040518263ffffffff1660e01b8152600401611b959190614488565b6101406040518083038186803b158015611bae57600080fd5b505afa158015611bc2573d6000803e3d6000fd5b505050506040513d601f19601f82011682018060405250810190611be69190613dc2565b909192939495969798509091929394959697509091929394959650909192939495509091929394509091929350909192508360e00184610100018561012001836002811115611c5e577f4e487b7100000000000000000000000000000000000000000000000000000000600052602160045260246000fd5b6002811115611c96577f4e487b7100000000000000000000000000000000000000000000000000000000600052602160045260246000fd5b81525083815250838152505050508091505092915050565b6000808373ffffffffffffffffffffffffffffffffffffffff1663ab02f2a9846040518263ffffffff1660e01b8152600401611cea9190614488565b60006040518083038186803b158015611d0257600080fd5b505afa158015611d16573d6000803e3d6000fd5b505050506040513d6000823e3d601f19601f82011682018060405250810190611d3f9190613a03565b9050805191505092915050565b6000808573ffffffffffffffffffffffffffffffffffffffff16635b3ad63e866040518263ffffffff1660e01b8152600401611d889190614488565b60206040518083038186803b158015611da057600080fd5b505afa158015611db4573d6000803e3d6000fd5b505050506040513d601f19601f82011682018060405250810190611dd89190613d22565b90508573ffffffffffffffffffffffffffffffffffffffff16635b3ad63e426040518263ffffffff1660e01b8152600401611e139190614488565b60206040518083038186803b158015611e2b57600080fd5b505afa158015611e3f573d6000803e3d6000fd5b505050506040513d601f19601f82011682018060405250810190611e639190613d22565b811015611ea5576040517f08c379a0000000000000000000000000000000000000000000000000000000008152600401611e9c9061442b565b60405180910390fd5b60008673ffffffffffffffffffffffffffffffffffffffff1663b93dafa9838973ffffffffffffffffffffffffffffffffffffffff16639592de18896040518263ffffffff1660e01b8152600401611efd9190614488565b60206040518083038186803b158015611f1557600080fd5b505afa158015611f29573d6000803e3d6000fd5b505050506040513d601f19601f82011682018060405250810190611f4d9190613d22565b6040518363ffffffff1660e01b8152600401611f6a9291906144a3565b60a06040518083038186803b158015611f8257600080fd5b505afa158015611f96573d6000803e3d6000fd5b505050506040513d601f19601f82011682018060405250810190611fba9190613d4b565b909192935090919250909150508091505060008773ffffffffffffffffffffffffffffffffffffffff1663e107fb4f84846040518363ffffffff1660e01b81526004016120089291906144a3565b60206040518083038186803b15801561202057600080fd5b505afa158015612034573d6000803e3d6000fd5b505050506040513d601f19601f820116820180604052508101906120589190613d22565b905060008873ffffffffffffffffffffffffffffffffffffffff1663e107fb4f85886040518363ffffffff1660e01b81526004016120979291906144a3565b60206040518083038186803b1580156120af57600080fd5b505afa1580156120c3573d6000803e3d6000fd5b505050506040513d601f19601f820116820180604052508101906120e79190613d22565b90508082106120f95760009450612108565b818161210591906146d7565b94505b50505050949350505050565b6000808373ffffffffffffffffffffffffffffffffffffffff1663a10340bc846040518263ffffffff1660e01b81526004016121509190614488565b6101406040518083038186803b15801561216957600080fd5b505afa15801561217d573d6000803e3d6000fd5b505050506040513d601f19601f820116820180604052508101906121a19190613dc2565b909192939495969798509091929394959697509091929394959650909192939450909192935090919250909150905050809150508091505092915050565b60608167ffffffffffffffff811115612221577f4e487b7100000000000000000000000000000000000000000000000000000000600052604160045260246000fd5b60405190808252806020026020018201604052801561224f5781602001602082028036833780820191505090505b50905061225a613833565b60005b8381116123e0576000818773ffffffffffffffffffffffffffffffffffffffff1663ef78d4fd6040518163ffffffff1660e01b815260040160206040518083038186803b1580156122ad57600080fd5b505afa1580156122c1573d6000803e3d6000fd5b505050506040513d601f19601f820116820180604052508101906122e59190613d22565b6122ef919061467d565b866122fa91906145f6565b905061230687826119bc565b925060006002811115612342577f4e487b7100000000000000000000000000000000000000000000000000000000600052602160045260246000fd5b8361012001516002811115612380577f4e487b7100000000000000000000000000000000000000000000000000000000600052602160045260246000fd5b146123cc57808483815181106123bf577f4e487b7100000000000000000000000000000000000000000000000000000000600052603260045260246000fd5b6020026020010181815250505b5080806123d8906147af565b91505061225d565b50509392505050565b6000808573ffffffffffffffffffffffffffffffffffffffff16635b3ad63e866040518263ffffffff1660e01b81526004016124259190614488565b60206040518083038186803b15801561243d57600080fd5b505afa158015612451573d6000803e3d6000fd5b505050506040513d601f19601f820116820180604052508101906124759190613d22565b90508573ffffffffffffffffffffffffffffffffffffffff16635b3ad63e426040518263ffffffff1660e01b81526004016124b09190614488565b60206040518083038186803b1580156124c857600080fd5b505afa1580156124dc573d6000803e3d6000fd5b505050506040513d601f19601f820116820180604052508101906125009190613d22565b811015612542576040517f08c379a00000000000000000000000000000000000000000000000000000000081526004016125399061442b565b60405180910390fd5b60008673ffffffffffffffffffffffffffffffffffffffff16639592de18866040518263ffffffff1660e01b815260040161257d9190614488565b60206040518083038186803b15801561259557600080fd5b505afa1580156125a9573d6000803e3d6000fd5b505050506040513d601f19601f820116820180604052508101906125cd9190613d22565b905060008773ffffffffffffffffffffffffffffffffffffffff1663e107fb4f84876040518363ffffffff1660e01b815260040161260c9291906144a3565b60206040518083038186803b15801561262457600080fd5b505afa158015612638573d6000803e3d6000fd5b505050506040513d601f19601f8201168201806040525081019061265c9190613d22565b9050600061266b898585610426565b905081816060015161267d91906145f6565b945050505050949350505050565b60008273ffffffffffffffffffffffffffffffffffffffff1663652c8ded836040518263ffffffff1660e01b81526004016126c69190614488565b60006040518083038186803b1580156126de57600080fd5b505afa1580156126f2573d6000803e3d6000fd5b5050505060008373ffffffffffffffffffffffffffffffffffffffff16638f9eca826040518163ffffffff1660e01b815260040160206040518083038186803b15801561273e57600080fd5b505afa158015612752573d6000803e3d6000fd5b505050506040513d601f19601f820116820180604052508101906127769190613a44565b905060008473ffffffffffffffffffffffffffffffffffffffff1663f45e65d86040518163ffffffff1660e01b815260040160206040518083038186803b1580156127c057600080fd5b505afa1580156127d4573d6000803e3d6000fd5b505050506040513d601f19601f820116820180604052508101906127f89190613d22565b9050600061280686866119bc565b905060008160200151826040015161281e91906146d7565b90508315612890576128796040518060200160405280838560a001518660c0015161284991906146d7565b612853919061464c565b7bffffffffffffffffffffffffffffffffffffffffffffffffffffffff16815250613783565b6dffffffffffffffffffffffffffff1694506128f7565b6128e46040518060200160405280838560e001518661010001516128b491906146d7565b6128be919061464c565b7bffffffffffffffffffffffffffffffffffffffffffffffffffffffff16815250613783565b6dffffffffffffffffffffffffffff1694505b8285612903919061467d565b94505050505092915050565b606060008267ffffffffffffffff811115612953577f4e487b7100000000000000000000000000000000000000000000000000000000600052604160045260246000fd5b60405190808252806020026020018201604052801561298c57816020015b612979613833565b8152602001906001900390816129715790505b5091506000806000600367ffffffffffffffff8111156129d5577f4e487b7100000000000000000000000000000000000000000000000000000000600052604160045260246000fd5b604051908082528060200260200182016040528015612a035781602001602082028036833780820191505090505b5090508a73ffffffffffffffffffffffffffffffffffffffff1663ef78d4fd6040518163ffffffff1660e01b815260040160206040518083038186803b158015612a4c57600080fd5b505afa158015612a60573d6000803e3d6000fd5b505050506040513d601f19601f82011682018060405250810190612a849190613d22565b81600281518110612abe577f4e487b7100000000000000000000000000000000000000000000000000000000600052603260045260246000fd5b602002602001018181525050606060008a90505b898111613062578c73ffffffffffffffffffffffffffffffffffffffff1663f109db84826040518263ffffffff1660e01b8152600401612b129190614488565b60206040518083038186803b158015612b2a57600080fd5b505afa158015612b3e573d6000803e3d6000fd5b505050506040513d601f19601f82011682018060405250810190612b629190613cf9565b935060016002811115612b9e577f4e487b7100000000000000000000000000000000000000000000000000000000600052602160045260246000fd5b846002811115612bd7577f4e487b7100000000000000000000000000000000000000000000000000000000600052602160045260246000fd5b141561300e578c73ffffffffffffffffffffffffffffffffffffffff1663ab02f2a9826040518263ffffffff1660e01b8152600401612c169190614488565b60006040518083038186803b158015612c2e57600080fd5b505afa158015612c42573d6000803e3d6000fd5b505050506040513d6000823e3d601f19601f82011682018060405250810190612c6b9190613a03565b915060005b825181101561300c578d73ffffffffffffffffffffffffffffffffffffffff1663b93dafa983858481518110612ccf577f4e487b7100000000000000000000000000000000000000000000000000000000600052603260045260246000fd5b60200260200101516040518363ffffffff1660e01b8152600401612cf49291906144a3565b60a06040518083038186803b158015612d0c57600080fd5b505afa158015612d20573d6000803e3d6000fd5b505050506040513d601f19601f82011682018060405250810190612d449190613d4b565b909192935090919250905050809650508c73ffffffffffffffffffffffffffffffffffffffff168673ffffffffffffffffffffffffffffffffffffffff161415612ff957888a612d94919061467d565b84600081518110612dce577f4e487b7100000000000000000000000000000000000000000000000000000000600052603260045260246000fd5b602002602001015110158015612e3b57508860018b612ded91906145f6565b612df7919061467d565b84600081518110612e31577f4e487b7100000000000000000000000000000000000000000000000000000000600052603260045260246000fd5b6020026020010151105b15612f6457612e4a8e836119bc565b8885600181518110612e85577f4e487b7100000000000000000000000000000000000000000000000000000000600052603260045260246000fd5b602002602001015181518110612ec4577f4e487b7100000000000000000000000000000000000000000000000000000000600052603260045260246000fd5b6020026020010181905250600184600181518110612f0b577f4e487b7100000000000000000000000000000000000000000000000000000000600052603260045260246000fd5b6020026020010151612f1d91906145f6565b84600181518110612f57577f4e487b7100000000000000000000000000000000000000000000000000000000600052603260045260246000fd5b6020026020010181815250505b600184600081518110612fa0577f4e487b7100000000000000000000000000000000000000000000000000000000600052603260045260246000fd5b6020026020010151612fb291906145f6565b84600081518110612fec577f4e487b7100000000000000000000000000000000000000000000000000000000600052603260045260246000fd5b6020026020010181815250505b8080613004906147af565b915050612c70565b505b82600281518110613048577f4e487b7100000000000000000000000000000000000000000000000000000000600052603260045260246000fd5b60200260200101518161305b91906145f6565b9050612ad2565b508660018961307191906145f6565b61307b919061467d565b826000815181106130b5577f4e487b7100000000000000000000000000000000000000000000000000000000600052603260045260246000fd5b60200260200101511115613122578787836000815181106130ff577f4e487b7100000000000000000000000000000000000000000000000000000000600052603260045260246000fd5b6020026020010151613111919061464c565b61311b91906146d7565b9450613127565b600094505b50505050965096945050505050565b606060008267ffffffffffffffff81111561317a577f4e487b7100000000000000000000000000000000000000000000000000000000600052604160045260246000fd5b6040519080825280602002602001820160405280156131b357816020015b6131a06137b6565b8152602001906001900390816131985790505b50915060606000600367ffffffffffffffff8111156131fb577f4e487b7100000000000000000000000000000000000000000000000000000000600052604160045260246000fd5b6040519080825280602002602001820160405280156132295781602001602082028036833780820191505090505b5090508873ffffffffffffffffffffffffffffffffffffffff1663ef78d4fd6040518163ffffffff1660e01b815260040160206040518083038186803b15801561327257600080fd5b505afa158015613286573d6000803e3d6000fd5b505050506040513d601f19601f820116820180604052508101906132aa9190613d22565b816002815181106132e4577f4e487b7100000000000000000000000000000000000000000000000000000000600052603260045260246000fd5b60200260200101818152505060008890505b8781116136b2578973ffffffffffffffffffffffffffffffffffffffff1663ab02f2a9826040518263ffffffff1660e01b81526004016133369190614488565b60006040518083038186803b15801561334e57600080fd5b505afa158015613362573d6000803e3d6000fd5b505050506040513d6000823e3d601f19601f8201168201806040525081019061338b9190613a03565b925060005b835181101561365d5786886133a5919061467d565b836000815181106133df577f4e487b7100000000000000000000000000000000000000000000000000000000600052603260045260246000fd5b60200260200101511015801561344c5750866001896133fe91906145f6565b613408919061467d565b83600081518110613442577f4e487b7100000000000000000000000000000000000000000000000000000000600052603260045260246000fd5b6020026020010151105b156135b65761349c8b8386848151811061348f577f4e487b7100000000000000000000000000000000000000000000000000000000600052603260045260246000fd5b6020026020010151610426565b86846001815181106134d7577f4e487b7100000000000000000000000000000000000000000000000000000000600052603260045260246000fd5b602002602001015181518110613516577f4e487b7100000000000000000000000000000000000000000000000000000000600052603260045260246000fd5b602002602001018190525060018360018151811061355d577f4e487b7100000000000000000000000000000000000000000000000000000000600052603260045260246000fd5b602002602001015161356f91906145f6565b836001815181106135a9577f4e487b7100000000000000000000000000000000000000000000000000000000600052603260045260246000fd5b6020026020010181815250505b6001836000815181106135f2577f4e487b7100000000000000000000000000000000000000000000000000000000600052603260045260246000fd5b602002602001015161360491906145f6565b8360008151811061363e577f4e487b7100000000000000000000000000000000000000000000000000000000600052603260045260246000fd5b6020026020010181815250508080613655906147af565b915050613390565b5081600281518110613698577f4e487b7100000000000000000000000000000000000000000000000000000000600052603260045260246000fd5b6020026020010151816136ab91906145f6565b90506132f6565b50846001876136c191906145f6565b6136cb919061467d565b81600081518110613705577f4e487b7100000000000000000000000000000000000000000000000000000000600052603260045260246000fd5b602002602001015111156137725785858260008151811061374f577f4e487b7100000000000000000000000000000000000000000000000000000000600052603260045260246000fd5b6020026020010151613761919061464c565b61376b91906146d7565b9250613777565b600092505b50509550959350505050565b6000607060ff1682600001517bffffffffffffffffffffffffffffffffffffffffffffffffffffffff16901c9050919050565b6040518060a001604052806000815260200160008152602001600073ffffffffffffffffffffffffffffffffffffffff168152602001600081526020016000600281111561382d577f4e487b7100000000000000000000000000000000000000000000000000000000600052602160045260246000fd5b81525090565b604051806101600160405280600081526020016000815260200160008152602001600081526020016000815260200160008152602001600081526020016000815260200160008152602001600060028111156138b8577f4e487b7100000000000000000000000000000000000000000000000000000000600052602160045260246000fd5b8152602001606081525090565b60006138d86138d3846144fd565b6144cc565b905080838252602082019050828560208602820111156138f757600080fd5b60005b85811015613927578161390d88826139ee565b8452602084019350602083019250506001810190506138fa565b5050509392505050565b600081359050613940816148dc565b92915050565b600081519050613955816148dc565b92915050565b600082601f83011261396c57600080fd5b815161397c8482602086016138c5565b91505092915050565b600081519050613994816148f3565b92915050565b6000813590506139a98161490a565b92915050565b6000815190506139be81614921565b92915050565b6000815190506139d381614931565b92915050565b6000813590506139e881614941565b92915050565b6000815190506139fd81614941565b92915050565b600060208284031215613a1557600080fd5b600082015167ffffffffffffffff811115613a2f57600080fd5b613a3b8482850161395b565b91505092915050565b600060208284031215613a5657600080fd5b6000613a6484828501613985565b91505092915050565b60008060008060008060c08789031215613a8657600080fd5b6000613a9489828a0161399a565b9650506020613aa589828a01613931565b9550506040613ab689828a016139d9565b9450506060613ac789828a016139d9565b9350506080613ad889828a016139d9565b92505060a0613ae989828a016139d9565b9150509295509295509295565b600080600080600080600060e0888a031215613b1157600080fd5b6000613b1f8a828b0161399a565b9750506020613b308a828b01613931565b9650506040613b418a828b016139d9565b9550506060613b528a828b016139d9565b9450506080613b638a828b016139d9565b93505060a0613b748a828b016139d9565b92505060c0613b858a828b016139d9565b91505092959891949750929550565b60008060408385031215613ba757600080fd5b6000613bb58582860161399a565b9250506020613bc6858286016139d9565b9150509250929050565b600080600060608486031215613be557600080fd5b6000613bf38682870161399a565b9350506020613c04868287016139d9565b9250506040613c15868287016139d9565b9150509250925092565b60008060008060808587031215613c3557600080fd5b6000613c438782880161399a565b9450506020613c54878288016139d9565b9350506040613c65878288016139d9565b9250506060613c76878288016139d9565b91505092959194509250565b600080600080600060a08688031215613c9a57600080fd5b6000613ca88882890161399a565b9550506020613cb9888289016139d9565b9450506040613cca888289016139d9565b9350506060613cdb888289016139d9565b9250506080613cec888289016139d9565b9150509295509295909350565b600060208284031215613d0b57600080fd5b6000613d19848285016139af565b91505092915050565b600060208284031215613d3457600080fd5b6000613d42848285016139ee565b91505092915050565b600080600080600060a08688031215613d6357600080fd5b6000613d71888289016139ee565b9550506020613d82888289016139ee565b9450506040613d9388828901613946565b9350506060613da4888289016139ee565b9250506080613db5888289016139c4565b9150509295509295909350565b6000806000806000806000806000806101408b8d031215613de257600080fd5b6000613df08d828e016139ee565b9a50506020613e018d828e016139ee565b9950506040613e128d828e016139ee565b9850506060613e238d828e016139ee565b9750506080613e348d828e016139ee565b96505060a0613e458d828e016139ee565b95505060c0613e568d828e016139ee565b94505060e0613e678d828e016139ee565b935050610100613e798d828e016139ee565b925050610120613e8b8d828e016139af565b9150509295989b9194979a5092959850565b6000613ea983836140dd565b905092915050565b6000613ebd83836142bb565b60a08301905092915050565b6000613ed5838361438b565b60208301905092915050565b613eea8161470b565b82525050565b6000613efb82614559565b613f0581856145a1565b935083602082028501613f1785614529565b8060005b85811015613f535784840389528151613f348582613e9d565b9450613f3f8361457a565b925060208a01995050600181019050613f1b565b50829750879550505050505092915050565b6000613f7082614564565b613f7a81856145b2565b9350613f8583614539565b8060005b83811015613fb6578151613f9d8882613eb1565b9750613fa883614587565b925050600181019050613f89565b5085935050505092915050565b6000613fce8261456f565b613fd881856145c3565b9350613fe383614549565b8060005b83811015614014578151613ffb8882613ec9565b975061400683614594565b925050600181019050613fe7565b5085935050505092915050565b600061402c8261456f565b61403681856145d4565b935061404183614549565b8060005b838110156140725781516140598882613ec9565b975061406483614594565b925050600181019050614045565b5085935050505092915050565b6140888161478b565b82525050565b6140978161479d565b82525050565b60006140aa601b836145e5565b91507f54484953204c4f5420495320494e20412050415354204652414d4500000000006000830152602082019050919050565b6000610160830160008301516140f6600086018261438b565b506020830151614109602086018261438b565b50604083015161411c604086018261438b565b50606083015161412f606086018261438b565b506080830151614142608086018261438b565b5060a083015161415560a086018261438b565b5060c083015161416860c086018261438b565b5060e083015161417b60e086018261438b565b5061010083015161419061010086018261438b565b506101208301516141a561012086018261407f565b506101408301518482036101408601526141bf8282613fc3565b9150508091505092915050565b6000610160830160008301516141e5600086018261438b565b5060208301516141f8602086018261438b565b50604083015161420b604086018261438b565b50606083015161421e606086018261438b565b506080830151614231608086018261438b565b5060a083015161424460a086018261438b565b5060c083015161425760c086018261438b565b5060e083015161426a60e086018261438b565b5061010083015161427f61010086018261438b565b5061012083015161429461012086018261407f565b506101408301518482036101408601526142ae8282613fc3565b9150508091505092915050565b60a0820160008201516142d1600085018261438b565b5060208201516142e4602085018261438b565b5060408201516142f76040850182613ee1565b50606082015161430a606085018261438b565b50608082015161431d608085018261408e565b50505050565b60a082016000820151614339600085018261438b565b50602082015161434c602085018261438b565b50604082015161435f6040850182613ee1565b506060820151614372606085018261438b565b506080820151614385608085018261408e565b50505050565b61439481614781565b82525050565b6143a381614781565b82525050565b600060408201905081810360008301526143c38185613ef0565b90506143d2602083018461439a565b9392505050565b600060408201905081810360008301526143f38185613f65565b9050614402602083018461439a565b9392505050565b600060208201905081810360008301526144238184614021565b905092915050565b600060208201905081810360008301526144448161409d565b9050919050565b6000602082019050818103600083015261446581846141cc565b905092915050565b600060a0820190506144826000830184614323565b92915050565b600060208201905061449d600083018461439a565b92915050565b60006040820190506144b8600083018561439a565b6144c5602083018461439a565b9392505050565b6000604051905081810181811067ffffffffffffffff821117156144f3576144f2614885565b5b8060405250919050565b600067ffffffffffffffff82111561451857614517614885565b5b602082029050602081019050919050565b6000819050602082019050919050565b6000819050602082019050919050565b6000819050602082019050919050565b600081519050919050565b600081519050919050565b600081519050919050565b6000602082019050919050565b6000602082019050919050565b6000602082019050919050565b600082825260208201905092915050565b600082825260208201905092915050565b600082825260208201905092915050565b600082825260208201905092915050565b600082825260208201905092915050565b600061460182614781565b915061460c83614781565b9250827fffffffffffffffffffffffffffffffffffffffffffffffffffffffffffffffff03821115614641576146406147f8565b5b828201905092915050565b600061465782614781565b915061466283614781565b92508261467257614671614827565b5b828204905092915050565b600061468882614781565b915061469383614781565b9250817fffffffffffffffffffffffffffffffffffffffffffffffffffffffffffffffff04831182151516156146cc576146cb6147f8565b5b828202905092915050565b60006146e282614781565b91506146ed83614781565b925082821015614700576146ff6147f8565b5b828203905092915050565b600061471682614761565b9050919050565b60008115159050919050565b60006147348261470b565b9050919050565b6000819050614749826148b4565b919050565b600081905061475c826148c8565b919050565b600073ffffffffffffffffffffffffffffffffffffffff82169050919050565b6000819050919050565b60006147968261473b565b9050919050565b60006147a88261474e565b9050919050565b60006147ba82614781565b91507fffffffffffffffffffffffffffffffffffffffffffffffffffffffffffffffff8214156147ed576147ec6147f8565b5b600182019050919050565b7f4e487b7100000000000000000000000000000000000000000000000000000000600052601160045260246000fd5b7f4e487b7100000000000000000000000000000000000000000000000000000000600052601260045260246000fd5b7f4e487b7100000000000000000000000000000000000000000000000000000000600052602160045260246000fd5b7f4e487b7100000000000000000000000000000000000000000000000000000000600052604160045260246000fd5b600381106148c5576148c4614856565b5b50565b600381106148d9576148d8614856565b5b50565b6148e58161470b565b81146148f057600080fd5b50565b6148fc8161471d565b811461490757600080fd5b50565b61491381614729565b811461491e57600080fd5b50565b6003811061492e57600080fd5b50565b6003811061493e57600080fd5b50565b61494a81614781565b811461495557600080fd5b5056fea2646970667358221220b1bdd910f083d701844505ba20203ae9754a80b1a2280c135be9d5d9f5e97b7f64736f6c63430008000033",
  "linkReferences": {},
  "deployedLinkReferences": {}
}