{
  "_format": "hh-sol-artifact-1",
  "contractName": "MarketGetter",
  "sourceName": "contracts/MarketGetter.sol",
  "abi": [
    {
      "inputs": [
        {
          "internalType": "contract Market",
          "name": "market",
          "type": "address"
        },
        {
          "internalType": "uint256",
          "name": "timestamp",
          "type": "uint256"
        },
        {
          "internalType": "uint256",
          "name": "pairPrice",
          "type": "uint256"
        },
        {
          "internalType": "uint256",
          "name": "acqPrice",
          "type": "uint256"
        }
      ],
      "name": "clcAmountToApprove",
      "outputs": [
        {
          "internalType": "uint256",
          "name": "approvalAmnt",
          "type": "uint256"
        }
      ],
      "stateMutability": "view",
      "type": "function"
    },
    {
      "inputs": [
        {
          "internalType": "contract Market",
          "name": "market",
          "type": "address"
        },
        {
          "internalType": "uint256",
          "name": "timestamp",
          "type": "uint256"
        },
        {
          "internalType": "uint256",
          "name": "pairPrice",
          "type": "uint256"
        },
        {
          "internalType": "uint256",
          "name": "acqPrice",
          "type": "uint256"
        }
      ],
      "name": "clcAmountToApproveForUpdate",
      "outputs": [
        {
          "internalType": "uint256",
          "name": "amnt",
          "type": "uint256"
        }
      ],
      "stateMutability": "view",
      "type": "function"
    },
    {
      "inputs": [
        {
          "internalType": "contract Market",
          "name": "market",
          "type": "address"
        },
        {
          "internalType": "uint256",
          "name": "frameKey",
          "type": "uint256"
        }
      ],
      "name": "getFrameStruct",
      "outputs": [
        {
          "components": [
            {
              "internalType": "uint256",
              "name": "frameKey",
              "type": "uint256"
            },
            {
              "internalType": "uint256",
              "name": "rate",
              "type": "uint256"
            },
            {
              "internalType": "uint256[]",
              "name": "lotKeys",
              "type": "uint256[]"
            },
            {
              "internalType": "address",
              "name": "claimedBy",
              "type": "address"
            },
            {
              "internalType": "uint256",
              "name": "rateSettle",
              "type": "uint256"
            },
            {
              "internalType": "uint256",
              "name": "feeSettle",
              "type": "uint256"
            },
            {
              "internalType": "uint256",
              "name": "rewardSettle",
              "type": "uint256"
            },
            {
              "internalType": "uint256",
              "name": "feeReferral",
              "type": "uint256"
            }
          ],
          "internalType": "struct Market.Frame",
          "name": "",
          "type": "tuple"
        }
      ],
      "stateMutability": "view",
      "type": "function"
    },
    {
      "inputs": [
        {
          "internalType": "contract Market",
          "name": "market",
          "type": "address"
        },
        {
          "internalType": "uint256",
          "name": "frameKey_start",
          "type": "uint256"
        },
        {
          "internalType": "uint256",
          "name": "frameKey_end",
          "type": "uint256"
        },
        {
          "internalType": "uint256",
          "name": "page",
          "type": "uint256"
        },
        {
          "internalType": "uint256",
          "name": "perPage",
          "type": "uint256"
        }
      ],
      "name": "getFrames",
      "outputs": [
        {
          "components": [
            {
              "internalType": "uint256",
              "name": "frameKey",
              "type": "uint256"
            },
            {
              "internalType": "uint256",
              "name": "rate",
              "type": "uint256"
            },
            {
              "internalType": "uint256[]",
              "name": "lotKeys",
              "type": "uint256[]"
            },
            {
              "internalType": "address",
              "name": "claimedBy",
              "type": "address"
            },
            {
              "internalType": "uint256",
              "name": "rateSettle",
              "type": "uint256"
            },
            {
              "internalType": "uint256",
              "name": "feeSettle",
              "type": "uint256"
            },
            {
              "internalType": "uint256",
              "name": "rewardSettle",
              "type": "uint256"
            },
            {
              "internalType": "uint256",
              "name": "feeReferral",
              "type": "uint256"
            }
          ],
          "internalType": "struct Market.Frame[]",
          "name": "frames",
          "type": "tuple[]"
        },
        {
          "internalType": "uint256",
          "name": "pagesLeft",
          "type": "uint256"
        }
      ],
      "stateMutability": "view",
      "type": "function"
    },
    {
      "inputs": [
        {
          "internalType": "contract Market",
          "name": "market",
          "type": "address"
        },
        {
          "internalType": "uint256",
          "name": "startIndex",
          "type": "uint256"
        },
        {
          "internalType": "uint256",
          "name": "endIndex",
          "type": "uint256"
        }
      ],
      "name": "getFramesByIndex",
      "outputs": [
        {
          "components": [
            {
              "internalType": "uint256",
              "name": "frameKey",
              "type": "uint256"
            },
            {
              "internalType": "uint256",
              "name": "rate",
              "type": "uint256"
            },
            {
              "internalType": "uint256[]",
              "name": "lotKeys",
              "type": "uint256[]"
            },
            {
              "internalType": "address",
              "name": "claimedBy",
              "type": "address"
            },
            {
              "internalType": "uint256",
              "name": "rateSettle",
              "type": "uint256"
            },
            {
              "internalType": "uint256",
              "name": "feeSettle",
              "type": "uint256"
            },
            {
              "internalType": "uint256",
              "name": "rewardSettle",
              "type": "uint256"
            },
            {
              "internalType": "uint256",
              "name": "feeReferral",
              "type": "uint256"
            }
          ],
          "internalType": "struct Market.Frame[]",
          "name": "frames",
          "type": "tuple[]"
        }
      ],
      "stateMutability": "view",
      "type": "function"
    },
    {
      "inputs": [
        {
          "internalType": "contract Market",
          "name": "market",
          "type": "address"
        },
        {
          "internalType": "address",
          "name": "user",
          "type": "address"
        },
        {
          "internalType": "uint256",
          "name": "frameKey_start",
          "type": "uint256"
        },
        {
          "internalType": "uint256",
          "name": "frameKey_end",
          "type": "uint256"
        },
        {
          "internalType": "uint256",
          "name": "page",
          "type": "uint256"
        },
        {
          "internalType": "uint256",
          "name": "perPage",
          "type": "uint256"
        }
      ],
      "name": "getFramesUser",
      "outputs": [
        {
          "components": [
            {
              "internalType": "uint256",
              "name": "frameKey",
              "type": "uint256"
            },
            {
              "internalType": "uint256",
              "name": "rate",
              "type": "uint256"
            },
            {
              "internalType": "uint256[]",
              "name": "lotKeys",
              "type": "uint256[]"
            },
            {
              "internalType": "address",
              "name": "claimedBy",
              "type": "address"
            },
            {
              "internalType": "uint256",
              "name": "rateSettle",
              "type": "uint256"
            },
            {
              "internalType": "uint256",
              "name": "feeSettle",
              "type": "uint256"
            },
            {
              "internalType": "uint256",
              "name": "rewardSettle",
              "type": "uint256"
            },
            {
              "internalType": "uint256",
              "name": "feeReferral",
              "type": "uint256"
            }
          ],
          "internalType": "struct Market.Frame[]",
          "name": "userFrames",
          "type": "tuple[]"
        },
        {
          "internalType": "uint256",
          "name": "pagesLeft",
          "type": "uint256"
        }
      ],
      "stateMutability": "view",
      "type": "function"
    },
    {
      "inputs": [
        {
          "internalType": "contract Market",
          "name": "market",
          "type": "address"
        },
        {
          "internalType": "uint256",
          "name": "frameKey",
          "type": "uint256"
        },
        {
          "internalType": "uint256",
          "name": "index",
          "type": "uint256"
        }
      ],
      "name": "getLotKey",
      "outputs": [
        {
          "internalType": "uint256",
          "name": "",
          "type": "uint256"
        }
      ],
      "stateMutability": "view",
      "type": "function"
    },
    {
      "inputs": [
        {
          "internalType": "contract Market",
          "name": "market",
          "type": "address"
        },
        {
          "internalType": "uint256",
          "name": "frameKey",
          "type": "uint256"
        },
        {
          "internalType": "uint256",
          "name": "lotKey",
          "type": "uint256"
        }
      ],
      "name": "getLotStruct",
      "outputs": [
        {
          "components": [
            {
              "internalType": "uint256",
              "name": "frameKey",
              "type": "uint256"
            },
            {
              "internalType": "uint256",
              "name": "lotKey",
              "type": "uint256"
            },
            {
              "components": [
                {
                  "internalType": "uint256",
                  "name": "blockNumber",
                  "type": "uint256"
                },
                {
                  "internalType": "uint256",
                  "name": "blockTimestamp",
                  "type": "uint256"
                },
                {
                  "internalType": "address",
                  "name": "owner",
                  "type": "address"
                },
                {
                  "internalType": "uint256",
                  "name": "acquisitionPrice",
                  "type": "uint256"
                },
                {
                  "internalType": "uint256",
                  "name": "taxCharged",
                  "type": "uint256"
                },
                {
                  "internalType": "uint256",
                  "name": "taxRefunded",
                  "type": "uint256"
                }
              ],
              "internalType": "struct Market.LotState[]",
              "name": "states",
              "type": "tuple[]"
            }
          ],
          "internalType": "struct Market.Lot",
          "name": "",
          "type": "tuple"
        }
      ],
      "stateMutability": "view",
      "type": "function"
    },
    {
      "inputs": [
        {
          "internalType": "contract Market",
          "name": "market",
          "type": "address"
        },
        {
          "internalType": "uint256",
          "name": "frameKey_start",
          "type": "uint256"
        },
        {
          "internalType": "uint256",
          "name": "frameKey_end",
          "type": "uint256"
        },
        {
          "internalType": "uint256",
          "name": "page",
          "type": "uint256"
        },
        {
          "internalType": "uint256",
          "name": "perPage",
          "type": "uint256"
        }
      ],
      "name": "getLots",
      "outputs": [
        {
          "components": [
            {
              "internalType": "uint256",
              "name": "frameKey",
              "type": "uint256"
            },
            {
              "internalType": "uint256",
              "name": "lotKey",
              "type": "uint256"
            },
            {
              "components": [
                {
                  "internalType": "uint256",
                  "name": "blockNumber",
                  "type": "uint256"
                },
                {
                  "internalType": "uint256",
                  "name": "blockTimestamp",
                  "type": "uint256"
                },
                {
                  "internalType": "address",
                  "name": "owner",
                  "type": "address"
                },
                {
                  "internalType": "uint256",
                  "name": "acquisitionPrice",
                  "type": "uint256"
                },
                {
                  "internalType": "uint256",
                  "name": "taxCharged",
                  "type": "uint256"
                },
                {
                  "internalType": "uint256",
                  "name": "taxRefunded",
                  "type": "uint256"
                }
              ],
              "internalType": "struct Market.LotState[]",
              "name": "states",
              "type": "tuple[]"
            }
          ],
          "internalType": "struct Market.Lot[]",
          "name": "lots",
          "type": "tuple[]"
        },
        {
          "internalType": "uint256",
          "name": "pagesLeft",
          "type": "uint256"
        }
      ],
      "stateMutability": "view",
      "type": "function"
    },
    {
      "inputs": [
        {
          "internalType": "contract Market",
          "name": "market",
          "type": "address"
        },
        {
          "internalType": "uint256",
          "name": "startIndex",
          "type": "uint256"
        },
        {
          "internalType": "uint256",
          "name": "endIndex",
          "type": "uint256"
        }
      ],
      "name": "getLotsByIndex",
      "outputs": [
        {
          "components": [
            {
              "internalType": "uint256",
              "name": "frameKey",
              "type": "uint256"
            },
            {
              "internalType": "uint256",
              "name": "lotKey",
              "type": "uint256"
            },
            {
              "components": [
                {
                  "internalType": "uint256",
                  "name": "blockNumber",
                  "type": "uint256"
                },
                {
                  "internalType": "uint256",
                  "name": "blockTimestamp",
                  "type": "uint256"
                },
                {
                  "internalType": "address",
                  "name": "owner",
                  "type": "address"
                },
                {
                  "internalType": "uint256",
                  "name": "acquisitionPrice",
                  "type": "uint256"
                },
                {
                  "internalType": "uint256",
                  "name": "taxCharged",
                  "type": "uint256"
                },
                {
                  "internalType": "uint256",
                  "name": "taxRefunded",
                  "type": "uint256"
                }
              ],
              "internalType": "struct Market.LotState[]",
              "name": "states",
              "type": "tuple[]"
            }
          ],
          "internalType": "struct Market.Lot[]",
          "name": "lots",
          "type": "tuple[]"
        }
      ],
      "stateMutability": "view",
      "type": "function"
    },
    {
      "inputs": [
        {
          "internalType": "contract Market",
          "name": "market",
          "type": "address"
        },
        {
          "internalType": "uint256",
          "name": "frameKey",
          "type": "uint256"
        }
      ],
      "name": "getLotsCount",
      "outputs": [
        {
          "internalType": "uint256",
          "name": "",
          "type": "uint256"
        }
      ],
      "stateMutability": "view",
      "type": "function"
    },
    {
      "inputs": [
        {
          "internalType": "contract Market",
          "name": "market",
          "type": "address"
        },
        {
          "internalType": "address",
          "name": "user",
          "type": "address"
        },
        {
          "internalType": "uint256",
          "name": "mode",
          "type": "uint256"
        },
        {
          "internalType": "uint256",
          "name": "frameKey_start",
          "type": "uint256"
        },
        {
          "internalType": "uint256",
          "name": "frameKey_end",
          "type": "uint256"
        },
        {
          "internalType": "uint256",
          "name": "page",
          "type": "uint256"
        },
        {
          "internalType": "uint256",
          "name": "perPage",
          "type": "uint256"
        }
      ],
      "name": "getLotsSoldUser",
      "outputs": [
        {
          "components": [
            {
              "internalType": "uint256",
              "name": "frameKey",
              "type": "uint256"
            },
            {
              "internalType": "uint256",
              "name": "lotKey",
              "type": "uint256"
            },
            {
              "components": [
                {
                  "internalType": "uint256",
                  "name": "blockNumber",
                  "type": "uint256"
                },
                {
                  "internalType": "uint256",
                  "name": "blockTimestamp",
                  "type": "uint256"
                },
                {
                  "internalType": "address",
                  "name": "owner",
                  "type": "address"
                },
                {
                  "internalType": "uint256",
                  "name": "acquisitionPrice",
                  "type": "uint256"
                },
                {
                  "internalType": "uint256",
                  "name": "taxCharged",
                  "type": "uint256"
                },
                {
                  "internalType": "uint256",
                  "name": "taxRefunded",
                  "type": "uint256"
                }
              ],
              "internalType": "struct Market.LotState[]",
              "name": "states",
              "type": "tuple[]"
            }
          ],
          "internalType": "struct Market.Lot[]",
          "name": "userLots",
          "type": "tuple[]"
        },
        {
          "internalType": "uint256",
          "name": "pagesLeft",
          "type": "uint256"
        }
      ],
      "stateMutability": "view",
      "type": "function"
    },
    {
      "inputs": [
        {
          "internalType": "contract Market",
          "name": "market",
          "type": "address"
        },
        {
          "internalType": "address",
          "name": "user",
          "type": "address"
        },
        {
          "internalType": "uint256",
          "name": "mode",
          "type": "uint256"
        },
        {
          "internalType": "uint256",
          "name": "frameKey_start",
          "type": "uint256"
        },
        {
          "internalType": "uint256",
          "name": "frameKey_end",
          "type": "uint256"
        },
        {
          "internalType": "uint256",
          "name": "page",
          "type": "uint256"
        },
        {
          "internalType": "uint256",
          "name": "perPage",
          "type": "uint256"
        }
      ],
      "name": "getLotsUser",
      "outputs": [
        {
          "components": [
            {
              "internalType": "uint256",
              "name": "frameKey",
              "type": "uint256"
            },
            {
              "internalType": "uint256",
              "name": "lotKey",
              "type": "uint256"
            },
            {
              "components": [
                {
                  "internalType": "uint256",
                  "name": "blockNumber",
                  "type": "uint256"
                },
                {
                  "internalType": "uint256",
                  "name": "blockTimestamp",
                  "type": "uint256"
                },
                {
                  "internalType": "address",
                  "name": "owner",
                  "type": "address"
                },
                {
                  "internalType": "uint256",
                  "name": "acquisitionPrice",
                  "type": "uint256"
                },
                {
                  "internalType": "uint256",
                  "name": "taxCharged",
                  "type": "uint256"
                },
                {
                  "internalType": "uint256",
                  "name": "taxRefunded",
                  "type": "uint256"
                }
              ],
              "internalType": "struct Market.LotState[]",
              "name": "states",
              "type": "tuple[]"
            }
          ],
          "internalType": "struct Market.Lot[]",
          "name": "userLots",
          "type": "tuple[]"
        },
        {
          "internalType": "uint256",
          "name": "pagesLeft",
          "type": "uint256"
        }
      ],
      "stateMutability": "view",
      "type": "function"
    },
    {
      "inputs": [
        {
          "internalType": "contract Market",
          "name": "market",
          "type": "address"
        },
        {
          "internalType": "uint256",
          "name": "firstUserIndex",
          "type": "uint256"
        },
        {
          "internalType": "uint256",
          "name": "lastUserIndex",
          "type": "uint256"
        },
        {
          "internalType": "uint256",
          "name": "frameKeyStart",
          "type": "uint256"
        },
        {
          "internalType": "uint256",
          "name": "frameKeyEnd",
          "type": "uint256"
        }
      ],
      "name": "getMultipleUsersRewards",
      "outputs": [
        {
          "internalType": "uint256",
          "name": "comulativeReward",
          "type": "uint256"
        },
        {
          "internalType": "uint256[]",
          "name": "rewards",
          "type": "uint256[]"
        }
      ],
      "stateMutability": "view",
      "type": "function"
    },
    {
      "inputs": [
        {
          "internalType": "contract Market",
          "name": "market",
          "type": "address"
        },
        {
          "internalType": "uint256",
          "name": "startFrame",
          "type": "uint256"
        },
        {
          "internalType": "uint256",
          "name": "numOfFrames",
          "type": "uint256"
        }
      ],
      "name": "getOpenFrameKeys",
      "outputs": [
        {
          "internalType": "uint256[]",
          "name": "openFrames",
          "type": "uint256[]"
        }
      ],
      "stateMutability": "view",
      "type": "function"
    },
    {
      "inputs": [
        {
          "internalType": "contract Market",
          "name": "market",
          "type": "address"
        },
        {
          "internalType": "uint256",
          "name": "frameKey",
          "type": "uint256"
        }
      ],
      "name": "getRewardAmount",
      "outputs": [
        {
          "internalType": "uint256",
          "name": "",
          "type": "uint256"
        }
      ],
      "stateMutability": "view",
      "type": "function"
    },
    {
      "inputs": [
        {
          "internalType": "contract Market",
          "name": "market",
          "type": "address"
        },
        {
          "internalType": "uint256",
          "name": "frameKey",
          "type": "uint256"
        }
      ],
      "name": "getRewardAmountMin",
      "outputs": [
        {
          "internalType": "uint256",
          "name": "rewardFund",
          "type": "uint256"
        }
      ],
      "stateMutability": "view",
      "type": "function"
    },
    {
      "inputs": [
        {
          "internalType": "contract Market",
          "name": "market",
          "type": "address"
        },
        {
          "internalType": "address",
          "name": "user",
          "type": "address"
        },
        {
          "internalType": "uint256",
          "name": "frameKeyStart",
          "type": "uint256"
        },
        {
          "internalType": "uint256",
          "name": "frameKeyEnd",
          "type": "uint256"
        }
      ],
      "name": "getUserRewards",
      "outputs": [
        {
          "internalType": "uint256",
          "name": "reward",
          "type": "uint256"
        }
      ],
      "stateMutability": "view",
      "type": "function"
    },
    {
      "inputs": [
        {
          "internalType": "contract Market",
          "name": "market",
          "type": "address"
        },
        {
          "internalType": "address",
          "name": "user",
          "type": "address"
        }
      ],
      "name": "getUsersReferrals",
      "outputs": [
        {
          "internalType": "address[]",
          "name": "referrals",
          "type": "address[]"
        },
        {
          "internalType": "uint16",
          "name": "length",
          "type": "uint16"
        }
      ],
      "stateMutability": "view",
      "type": "function"
    },
    {
      "inputs": [
        {
          "internalType": "uint256",
          "name": "concatenated",
          "type": "uint256"
        }
      ],
      "name": "splitLotsArrayElement",
      "outputs": [
        {
          "internalType": "uint256",
          "name": "frameKey",
          "type": "uint256"
        },
        {
          "internalType": "uint256",
          "name": "lotKey",
          "type": "uint256"
        }
      ],
      "stateMutability": "pure",
      "type": "function"
    }
  ],
  "bytecode": "0x608060405234801561001057600080fd5b50614d20806100206000396000f3fe608060405234801561001057600080fd5b506004361061012c5760003560e01c8063ae370f6d116100ad578063de73259511610071578063de732595146102f3578063e32ed3cc14610306578063f2580f2614610319578063f6eb9ee71461032c578063f91cbebe1461033f57600080fd5b8063ae370f6d14610265578063c1d013951461028d578063d00d7b19146102a0578063da4e8556146102c0578063dbd20a88146102d357600080fd5b806371b08d89116100f457806371b08d89146101dd5780637f424a37146101f05780638522bc38146102105780639291178e1461023157806398820b221461024457600080fd5b8063281e8068146101315780632c79854f1461015b5780633191b50e1461017c5780634314b84f1461019c578063612d8b50146101bc575b600080fd5b61014461013f36600461425c565b610352565b6040516101529291906143af565b60405180910390f35b61016e6101693660046143d1565b610cdd565b604051908152602001610152565b61018f61018a3660046143d1565b610d76565b6040516101529190614507565b6101af6101aa3660046143d1565b610fde565b604051610152919061451a565b6101cf6101ca36600461452d565b6111ab565b604051610152929190614571565b6101446101eb36600461425c565b611521565b6102036101fe366004614584565b611ddc565b60405161015291906145b0565b61022361021e3660046145c3565b611ef8565b6040516101529291906145fc565b61016e61023f366004614584565b61220f565b61025761025236600461452d565b61228a565b604051610152929190614654565b610278610273366004614675565b61274c565b60408051928352602083019190915201610152565b61016e61029b36600461468e565b612776565b6102b36102ae3660046143d1565b612a66565b60405161015291906146c9565b61016e6102ce366004614584565b612e68565b6102e66102e13660046143d1565b612f74565b60405161015291906146dc565b61016e61030136600461468e565b61313e565b61016e6103143660046146ef565b6133a5565b61016e610327366004614584565b6134ad565b6101cf61033a366004614735565b613808565b61014461034d36600461452d565b613d2d565b606060006103618360016147a4565b6001600160401b03811115610378576103786147b7565b6040519080825280602002602001820160405280156103cd57816020015b6103ba60405180606001604052806000815260200160008152602001606081525090565b8152602001906001900390816103965790505b50604080516003808252608082019092529193506000916060918391906020820184803683370190505090508b6001600160a01b031663ef78d4fd6040518163ffffffff1660e01b8152600401602060405180830381865afa158015610437573d6000803e3d6000fd5b505050506040513d601f19601f8201168201806040525081019061045b91906147cd565b8160028151811061046e5761046e6147e6565b60200260200101818152505060018a1161084f57885b88811161084d5760405163bad1265360e01b8152600481018290526001600160a01b038e169063bad1265390602401602060405180830381865afa1580156104d0573d6000803e3d6000fd5b505050506040513d601f19601f820116820180604052508101906104f491906147fc565b9350600184600481111561050a5761050a61481d565b0361082057604051630122bf3160e51b8152600481018290526001600160a01b038e1690632457e62090602401600060405180830381865afa158015610554573d6000803e3d6000fd5b505050506040513d6000823e601f3d908101601f1916820160405261057c91908101906148ae565b925060005b835181101561081e576105ae8e838684815181106105a1576105a16147e6565b6020026020010151610fde565b8789815181106105c0576105c06147e6565b602002602001018190525060008e6001600160a01b031663fb0d5e09848785815181106105ef576105ef6147e6565b60200260200101516040518363ffffffff1660e01b815260040161061d929190918252602082015260400190565b600060405180830381865afa15801561063a573d6000803e3d6000fd5b505050506040513d6000823e601f3d908101601f1916820160405261066291908101906149e6565b905060005b600182516106759190614a1a565b811015610809578e6001600160a01b0316828281518110610698576106986147e6565b6020026020010151604001516001600160a01b0316036107f7576106bc8a8c614a2d565b856000815181106106cf576106cf6147e6565b6020026020010151101580156107135750896106ec8c60016147a4565b6106f69190614a2d565b85600081518110610709576107096147e6565b6020026020010151105b156107b057888a8151811061072a5761072a6147e6565b60200260200101518986600181518110610746576107466147e6565b60200260200101518151811061075e5761075e6147e6565b60200260200101819052508460018151811061077c5761077c6147e6565b6020026020010151600161079091906147a4565b856001815181106107a3576107a36147e6565b6020026020010181815250505b846000815181106107c3576107c36147e6565b602002602001015160016107d791906147a4565b856000815181106107ea576107ea6147e6565b6020026020010181815250505b8061080181614a44565b915050610667565b5050808061081690614a44565b915050610581565b505b81600281518110610833576108336147e6565b60200260200101518161084691906147a4565b9050610484565b505b896002148061085c575089155b15610c5a57885b888111610c585760405163bad1265360e01b8152600481018290526001600160a01b038e169063bad1265390602401602060405180830381865afa1580156108af573d6000803e3d6000fd5b505050506040513d601f19601f820116820180604052508101906108d391906147fc565b935060028460048111156108e9576108e961481d565b1480610906575060048460048111156109045761090461481d565b145b80610922575060038460048111156109205761092061481d565b145b15610c2b57604051630122bf3160e51b8152600481018290526001600160a01b038e1690632457e62090602401600060405180830381865afa15801561096c573d6000803e3d6000fd5b505050506040513d6000823e601f3d908101601f1916820160405261099491908101906148ae565b925060005b8351811015610c29576109b98e838684815181106105a1576105a16147e6565b8789815181106109cb576109cb6147e6565b602002602001018190525060008e6001600160a01b031663fb0d5e09848785815181106109fa576109fa6147e6565b60200260200101516040518363ffffffff1660e01b8152600401610a28929190918252602082015260400190565b600060405180830381865afa158015610a45573d6000803e3d6000fd5b505050506040513d6000823e601f3d908101601f19168201604052610a6d91908101906149e6565b905060005b60018251610a809190614a1a565b811015610c14578e6001600160a01b0316828281518110610aa357610aa36147e6565b6020026020010151604001516001600160a01b031603610c0257610ac78a8c614a2d565b85600081518110610ada57610ada6147e6565b602002602001015110158015610b1e575089610af78c60016147a4565b610b019190614a2d565b85600081518110610b1457610b146147e6565b6020026020010151105b15610bbb57888a81518110610b3557610b356147e6565b60200260200101518986600181518110610b5157610b516147e6565b602002602001015181518110610b6957610b696147e6565b602002602001018190525084600181518110610b8757610b876147e6565b60200260200101516001610b9b91906147a4565b85600181518110610bae57610bae6147e6565b6020026020010181815250505b84600081518110610bce57610bce6147e6565b60200260200101516001610be291906147a4565b85600081518110610bf557610bf56147e6565b6020026020010181815250505b80610c0c81614a44565b915050610a72565b50508080610c2190614a44565b915050610999565b505b81600281518110610c3e57610c3e6147e6565b602002602001015181610c5191906147a4565b9050610863565b505b85610c668860016147a4565b610c709190614a2d565b81600081518110610c8357610c836147e6565b60200260200101511115610cc957868682600081518110610ca657610ca66147e6565b6020026020010151610cb89190614a73565b610cc29190614a1a565b9350610cce565b600093505b50505097509795505050505050565b604051630122bf3160e51b81526004810183905260009081906001600160a01b03861690632457e62090602401600060405180830381865afa158015610d27573d6000803e3d6000fd5b505050506040513d6000823e601f3d908101601f19168201604052610d4f91908101906148ae565b9050808381518110610d6357610d636147e6565b60200260200101519150505b9392505050565b606081831115610da15760405162461bcd60e51b8152600401610d9890614a87565b60405180910390fd5b6000846001600160a01b031663ed320aa86040518163ffffffff1660e01b8152600401602060405180830381865afa158015610de1573d6000803e3d6000fd5b505050506040513d601f19601f82011682018060405250810190610e0591906147cd565b905060008111610e575760405162461bcd60e51b815260206004820152601760248201527f4e6f206672616d657320696e20746865206d61726b65740000000000000000006044820152606401610d98565b838111610ea65760405162461bcd60e51b815260206004820152601b60248201527f7374617274496e646578206973206f7574206f6620626f756e647300000000006044820152606401610d98565b82811015610ebc57610eb9600182614a1a565b92505b610ec68484614a1a565b610ed19060016147a4565b6001600160401b03811115610ee857610ee86147b7565b604051908082528060200260200182016040528015610f2157816020015b610f0e6141ba565b815260200190600190039081610f065790505b509150835b838111610fd55760405162143a2160e61b8152600481018290526000906001600160a01b0388169063050e884090602401602060405180830381865afa158015610f74573d6000803e3d6000fd5b505050506040513d601f19601f82011682018060405250810190610f9891906147cd565b9050610fa48782611ddc565b848381518110610fb657610fb66147e6565b6020026020010181905250508080610fcd90614a44565b915050610f26565b50509392505050565b61100260405180606001604052806000815260200160008152602001606081525090565b61102660405180606001604052806000815260200160008152602001606081525090565b8381526020810183905260405163fb0d5e0960e01b815260048101859052602481018490526000906001600160a01b0387169063fb0d5e0990604401600060405180830381865afa15801561107f573d6000803e3d6000fd5b505050506040513d6000823e601f3d908101601f191682016040526110a791908101906149e6565b905080516000036110ee5760408051600180825281830190925290816020015b6110cf614208565b8152602001906001900390816110c75750506040830152509050610d6f565b80516001600160401b03811115611107576111076147b7565b60405190808252806020026020018201604052801561114057816020015b61112d614208565b8152602001906001900390816111255790505b50604083015260005b81518110156111a057818181518110611164576111646147e6565b602002602001015183604001518281518110611182576111826147e6565b6020026020010181905250808061119890614a44565b915050611149565b509095945050505050565b60606000826001600160401b038111156111c7576111c76147b7565b60405190808252806020026020018201604052801561120057816020015b6111ed6141ba565b8152602001906001900390816111e55790505b50915061120b6141ba565b6040805160038082526080820190925260009160208201606080368337019050509050886001600160a01b031663ef78d4fd6040518163ffffffff1660e01b8152600401602060405180830381865afa15801561126c573d6000803e3d6000fd5b505050506040513d601f19601f8201168201806040525081019061129091906147cd565b816002815181106112a3576112a36147e6565b6020908102919091010152875b8781116114a0576112c18a82611ddc565b92506000835160405163bad1265360e01b815260048101919091526001600160a01b038c169063bad1265390602401602060405180830381865afa15801561130d573d6000803e3d6000fd5b505050506040513d601f19601f8201168201806040525081019061133191906147fc565b60048111156113425761134261481d565b14611473576113518688614a2d565b82600081518110611364576113646147e6565b6020026020010151101580156113a85750856113818860016147a4565b61138b9190614a2d565b8260008151811061139e5761139e6147e6565b6020026020010151105b1561142c578285836001815181106113c2576113c26147e6565b6020026020010151815181106113da576113da6147e6565b6020026020010181905250816001815181106113f8576113f86147e6565b6020026020010151600161140c91906147a4565b8260018151811061141f5761141f6147e6565b6020026020010181815250505b8160008151811061143f5761143f6147e6565b6020026020010151600161145391906147a4565b82600081518110611466576114666147e6565b6020026020010181815250505b81600281518110611486576114866147e6565b60200260200101518161149991906147a4565b90506112b0565b50846114ad8760016147a4565b6114b79190614a2d565b816000815181106114ca576114ca6147e6565b60200260200101511115611510578585826000815181106114ed576114ed6147e6565b60200260200101516114ff9190614a73565b6115099190614a1a565b9250611515565b600092505b50509550959350505050565b606060006115308360016147a4565b6001600160401b03811115611547576115476147b7565b60405190808252806020026020018201604052801561159c57816020015b61158960405180606001604052806000815260200160008152602001606081525090565b8152602001906001900390816115655790505b50604080516003808252608082019092529193506000916060918391906020820184803683370190505090508b6001600160a01b031663ef78d4fd6040518163ffffffff1660e01b8152600401602060405180830381865afa158015611606573d6000803e3d6000fd5b505050506040513d601f19601f8201168201806040525081019061162a91906147cd565b8160028151811061163d5761163d6147e6565b60200260200101818152505060018a116119f257885b8881116119f05760405163bad1265360e01b8152600481018290526001600160a01b038e169063bad1265390602401602060405180830381865afa15801561169f573d6000803e3d6000fd5b505050506040513d601f19601f820116820180604052508101906116c391906147fc565b935060018460048111156116d9576116d961481d565b036119c357604051630122bf3160e51b8152600481018290526001600160a01b038e1690632457e62090602401600060405180830381865afa158015611723573d6000803e3d6000fd5b505050506040513d6000823e601f3d908101601f1916820160405261174b91908101906148ae565b925060005b83518110156119c1576117708e838684815181106105a1576105a16147e6565b878981518110611782576117826147e6565b602002602001018190525060008e6001600160a01b031663fb0d5e09848785815181106117b1576117b16147e6565b60200260200101516040518363ffffffff1660e01b81526004016117df929190918252602082015260400190565b600060405180830381865afa1580156117fc573d6000803e3d6000fd5b505050506040513d6000823e601f3d908101601f1916820160405261182491908101906149e6565b90508d6001600160a01b0316816001835161183f9190614a1a565b8151811061184f5761184f6147e6565b6020026020010151604001516001600160a01b0316036119ae57611873898b614a2d565b84600081518110611886576118866147e6565b6020026020010151101580156118ca5750886118a38b60016147a4565b6118ad9190614a2d565b846000815181106118c0576118c06147e6565b6020026020010151105b15611967578789815181106118e1576118e16147e6565b602002602001015188856001815181106118fd576118fd6147e6565b602002602001015181518110611915576119156147e6565b602002602001018190525083600181518110611933576119336147e6565b6020026020010151600161194791906147a4565b8460018151811061195a5761195a6147e6565b6020026020010181815250505b8360008151811061197a5761197a6147e6565b6020026020010151600161198e91906147a4565b846000815181106119a1576119a16147e6565b6020026020010181815250505b50806119b981614a44565b915050611750565b505b816002815181106119d6576119d66147e6565b6020026020010151816119e991906147a4565b9050611653565b505b89600214806119ff575089155b15610c5a57885b888111610c585760405163bad1265360e01b8152600481018290526001600160a01b038e169063bad1265390602401602060405180830381865afa158015611a52573d6000803e3d6000fd5b505050506040513d601f19601f82011682018060405250810190611a7691906147fc565b93506002846004811115611a8c57611a8c61481d565b1480611aa957506004846004811115611aa757611aa761481d565b145b80611ac557506003846004811115611ac357611ac361481d565b145b15611daf57604051630122bf3160e51b8152600481018290526001600160a01b038e1690632457e62090602401600060405180830381865afa158015611b0f573d6000803e3d6000fd5b505050506040513d6000823e601f3d908101601f19168201604052611b3791908101906148ae565b925060005b8351811015611dad57611b5c8e838684815181106105a1576105a16147e6565b878981518110611b6e57611b6e6147e6565b602002602001018190525060008e6001600160a01b031663fb0d5e0984878581518110611b9d57611b9d6147e6565b60200260200101516040518363ffffffff1660e01b8152600401611bcb929190918252602082015260400190565b600060405180830381865afa158015611be8573d6000803e3d6000fd5b505050506040513d6000823e601f3d908101601f19168201604052611c1091908101906149e6565b90508d6001600160a01b03168160018351611c2b9190614a1a565b81518110611c3b57611c3b6147e6565b6020026020010151604001516001600160a01b031603611d9a57611c5f898b614a2d565b84600081518110611c7257611c726147e6565b602002602001015110158015611cb6575088611c8f8b60016147a4565b611c999190614a2d565b84600081518110611cac57611cac6147e6565b6020026020010151105b15611d5357878981518110611ccd57611ccd6147e6565b60200260200101518885600181518110611ce957611ce96147e6565b602002602001015181518110611d0157611d016147e6565b602002602001018190525083600181518110611d1f57611d1f6147e6565b60200260200101516001611d3391906147a4565b84600181518110611d4657611d466147e6565b6020026020010181815250505b83600081518110611d6657611d666147e6565b60200260200101516001611d7a91906147a4565b84600081518110611d8d57611d8d6147e6565b6020026020010181815250505b5080611da581614a44565b915050611b3c565b505b81600281518110611dc257611dc26147e6565b602002602001015181611dd591906147a4565b9050611a06565b611de46141ba565b611dec6141ba565b604051632840d02f60e21b8152600481018490526001600160a01b0385169063a10340bc9060240160e060405180830381865afa158015611e31573d6000803e3d6000fd5b505050506040513d601f19601f82011682018060405250810190611e559190614ad6565b60e088015260c087015260a086015260808501526001600160a01b0390811660608501526020840191909152908252604051630122bf3160e51b81526004810185905290851690632457e62090602401600060405180830381865afa158015611ec2573d6000803e3d6000fd5b505050506040513d6000823e601f3d908101601f19168201604052611eea91908101906148ae565b604082015290505b92915050565b6060600080846001600160a01b031663ffde58626040518163ffffffff1660e01b8152600401602060405180830381865afa158015611f3b573d6000803e3d6000fd5b505050506040513d601f19601f82011682018060405250810190611f5f91906147cd565b6001600160401b03811115611f7657611f766147b7565b604051908082528060200260200182016040528015611f9f578160200160208202803683370190505b5090506000805b866001600160a01b031663ffde58626040518163ffffffff1660e01b8152600401602060405180830381865afa158015611fe4573d6000803e3d6000fd5b505050506040513d601f19601f8201168201806040525081019061200891906147cd565b8110156121575760405162beb8d760e61b8152600481018290526000906001600160a01b03891690632fae35c090602401602060405180830381865afa158015612056573d6000803e3d6000fd5b505050506040513d601f19601f8201168201806040525081019061207a9190614b36565b60405163543a185d60e11b81526001600160a01b0380831660048301529192506000918a169063a87430ba906024016040805180830381865afa1580156120c5573d6000803e3d6000fd5b505050506040513d601f19601f820116820180604052508101906120e99190614b53565b915050876001600160a01b0316816001600160a01b0316036121425781858561ffff168151811061211c5761211c6147e6565b6001600160a01b03909216602092830291909101909101528361213e81614b87565b9450505b5050808061214f90614a44565b915050611fa6565b508061ffff166001600160401b03811115612174576121746147b7565b60405190808252806020026020018201604052801561219d578160200160208202803683370190505b50935060005b8161ffff16811015612205578281815181106121c1576121c16147e6565b60200260200101518582815181106121db576121db6147e6565b6001600160a01b0390921660209283029190910190910152806121fd81614a44565b9150506121a3565b5050509250929050565b604051630122bf3160e51b81526004810182905260009081906001600160a01b03851690632457e62090602401600060405180830381865afa158015612259573d6000803e3d6000fd5b505050506040513d6000823e601f3d908101601f1916820160405261228191908101906148ae565b51949350505050565b600060608486106123035760405162461bcd60e51b815260206004820152603860248201527f666972737455736572496e646578206d75737420626520736d616c6c6572206f60448201527f7220657175616c20746f206c61737455736572496e64657800000000000000006064820152608401610d98565b6000876001600160a01b031663ffde58626040518163ffffffff1660e01b8152600401602060405180830381865afa158015612343573d6000803e3d6000fd5b505050506040513d601f19601f8201168201806040525081019061236791906147cd565b90508087106123b85760405162461bcd60e51b815260206004820152601f60248201527f666972737455736572496e646578206973206f7574206f6620626f756e6473006044820152606401610d98565b6123e76040518060400160405280600d81526020016c03ab9b2b939a632b733ba341d1609d1b815250826140c1565b808611156123f3578095505b6124246040518060400160405280600f81526020016e03630b9ba2ab9b2b924b73232bc1d1608d1b815250876140c1565b61242e8787614a1a565b6001600160401b03811115612445576124456147b7565b60405190808252806020026020018201604052801561246e578160200160208202803683370190505b5091506000886001600160a01b031663ef78d4fd6040518163ffffffff1660e01b8152600401602060405180830381865afa1580156124b1573d6000803e3d6000fd5b505050506040513d601f19601f820116820180604052508101906124d591906147cd565b90506125016040518060400160405280600881526020016703832b934b7b21d160c51b815250826140c1565b875b61250e600189614a1a565b8110156127175760405162beb8d760e61b8152600481018290526000906001600160a01b038c1690632fae35c090602401602060405180830381865afa15801561255c573d6000803e3d6000fd5b505050506040513d601f19601f820116820180604052508101906125809190614b36565b90506125aa6040518060400160405280600681526020016503ab9b2b91d160d51b8152508261410a565b875b87811015612702576040516391a0846d60e01b81526001600160a01b038381166004830152602482018390528d16906391a0846d90604401602060405180830381865afa158015612601573d6000803e3d6000fd5b505050506040513d601f19601f8201168201806040525081019061262591906147cd565b868481518110612637576126376147e6565b6020026020010181815161264b91906147a4565b915081815250506126966040518060400160405280600981526020016803932bbb0b932399d160bd1b815250878581518110612689576126896147e6565b60200260200101516140c1565b8583815181106126a8576126a86147e6565b6020026020010151876126bb91906147a4565b96506126f160405180604001604052806012815260200171031b7b6bab630ba34bb32a932bbb0b9321d160751b815250886140c1565b6126fb84826147a4565b90506125ac565b5050808061270f90614a44565b915050612503565b506115156040518060400160405280601381526020017202932ba3ab93734b733903932bbb0b932399d1606d1b81525061414f565b60008061275e6402540be40084614ba8565b915061276f6402540be40084614a73565b9050915091565b6040516361eee2cb60e01b81526004810184905260009081906001600160a01b038716906361eee2cb90602401602060405180830381865afa1580156127c0573d6000803e3d6000fd5b505050506040513d601f19601f820116820180604052508101906127e491906147cd565b6040516361eee2cb60e01b81524260048201529091506001600160a01b038716906361eee2cb90602401602060405180830381865afa15801561282b573d6000803e3d6000fd5b505050506040513d601f19601f8201168201806040525081019061284f91906147cd565b81101561289e5760405162461bcd60e51b815260206004820152601b60248201527f54484953204c4f5420495320494e20412050415354204652414d4500000000006044820152606401610d98565b60008061291588848a6001600160a01b0316639592de188a6040518263ffffffff1660e01b81526004016128d491815260200190565b602060405180830381865afa1580156128f1573d6000803e3d6000fd5b505050506040513d601f19601f820116820180604052508101906101aa91906147cd565b604081015180519192509061292c90600190614a1a565b8151811061293c5761293c6147e6565b60200260200101516060015191506000886001600160a01b031663e107fb4f85856040518363ffffffff1660e01b8152600401612983929190918252602082015260400190565b602060405180830381865afa1580156129a0573d6000803e3d6000fd5b505050506040513d601f19601f820116820180604052508101906129c491906147cd565b60405163e107fb4f60e01b815260048101869052602481018890529091506000906001600160a01b038b169063e107fb4f90604401602060405180830381865afa158015612a16573d6000803e3d6000fd5b505050506040513d601f19601f82011682018060405250810190612a3a91906147cd565b9050808210612a4c5760009550612a59565b612a568282614a1a565b95505b5050505050949350505050565b606081831115612a885760405162461bcd60e51b8152600401610d9890614a87565b6000846001600160a01b031663197c4e786040518163ffffffff1660e01b8152600401602060405180830381865afa158015612ac8573d6000803e3d6000fd5b505050506040513d601f19601f82011682018060405250810190612aec91906147cd565b905060008111612b365760405162461bcd60e51b8152602060048201526015602482015274139bc81b1bdd1cc81a5b881d1a19481b585c9ad95d605a1b6044820152606401610d98565b6000816001600160401b03811115612b5057612b506147b7565b604051908082528060200260200182016040528015612b79578160200160208202803683370190505b509050856001600160a01b031663c0423f2e6040518163ffffffff1660e01b8152600401600060405180830381865afa158015612bba573d6000803e3d6000fd5b505050506040513d6000823e601f3d908101601f19168201604052612be291908101906148ae565b9050818510612c335760405162461bcd60e51b815260206004820152601b60248201527f7374617274496e646578206973206f7574206f6620626f756e647300000000006044820152606401610d98565b818410612c4857612c45600183614a1a565b93505b612c528585614a1a565b612c5d9060016147a4565b6001600160401b03811115612c7457612c746147b7565b604051908082528060200260200182016040528015612cc957816020015b612cb660405180606001604052806000815260200160008152602001606081525090565b815260200190600190039081612c925790505b509250845b848111612e5e57600080612d1960405180604001604052806013815260200172029a7a61d103637ba39a0b93930bcadb4ae9d1606d1b815250858581518110612689576126896147e6565b612d3b848481518110612d2e57612d2e6147e6565b602002602001015161274c565b60408051808201909152600f81526e029a7a61d10333930b6b2a5b2bc9d1608d1b60208201529193509150612d7090836140c1565b612d9f6040518060400160405280600d81526020016c029a7a61d103637ba25b2bc9d1609d1b815250826140c1565b604051636f1aefc360e01b815260048101839052602481018290526000906001600160a01b038b1690636f1aefc390604401600060405180830381865afa158015612dee573d6000803e3d6000fd5b505050506040513d6000823e601f3d908101601f19168201604052612e169190810190614bbc565b9050612e2b8a82600001518360200151610fde565b878581518110612e3d57612e3d6147e6565b60200260200101819052505050508080612e5690614a44565b915050612cce565b5050509392505050565b600080612e758484611ddc565b6040516339a6a48960e01b8152600481018590529091506000906001600160a01b038616906339a6a48990602401602060405180830381865afa158015612ec0573d6000803e3d6000fd5b505050506040513d601f19601f82011682018060405250810190612ee491906147cd565b90506000856001600160a01b031663527eb4bc6040518163ffffffff1660e01b8152600401602060405180830381865afa158015612f26573d6000803e3d6000fd5b505050506040513d601f19601f82011682018060405250810190612f4a91906147cd565b905060008360e001518284612f5f9190614a1a565b612f699190614a1a565b979650505050505050565b6060816001600160401b03811115612f8e57612f8e6147b7565b604051908082528060200260200182016040528015612fb7578160200160208202803683370190505b5090506000612fc46141ba565b60005b848111612e5e57600081886001600160a01b031663ef78d4fd6040518163ffffffff1660e01b8152600401602060405180830381865afa15801561300f573d6000803e3d6000fd5b505050506040513d601f19601f8201168201806040525081019061303391906147cd565b61303d9190614a2d565b61304790886147a4565b90506130538882611ddc565b805160405163bad1265360e01b815260048101919091529093506000906001600160a01b038a169063bad1265390602401602060405180830381865afa1580156130a1573d6000803e3d6000fd5b505050506040513d601f19601f820116820180604052508101906130c591906147fc565b905060018160048111156130db576130db61481d565b14806130f8575060038160048111156130f6576130f661481d565b145b156131295781868681518110613110576131106147e6565b60209081029190910101528461312581614a44565b9550505b5050808061313690614a44565b915050612fc7565b6040516361eee2cb60e01b81526004810184905260009081906001600160a01b038716906361eee2cb90602401602060405180830381865afa158015613188573d6000803e3d6000fd5b505050506040513d601f19601f820116820180604052508101906131ac91906147cd565b905042866001600160a01b031663ef78d4fd6040518163ffffffff1660e01b8152600401602060405180830381865afa1580156131ed573d6000803e3d6000fd5b505050506040513d601f19601f8201168201806040525081019061321191906147cd565b61321b90836147a4565b10156132695760405162461bcd60e51b815260206004820152601d60248201527f4672616d652068617320746f20626520696e20746865206675747572650000006044820152606401610d98565b6040516312b25bc360e31b8152600481018590526000906001600160a01b03881690639592de1890602401602060405180830381865afa1580156132b1573d6000803e3d6000fd5b505050506040513d601f19601f820116820180604052508101906132d591906147cd565b60405163e107fb4f60e01b815260048101849052602481018690529091506000906001600160a01b0389169063e107fb4f90604401602060405180830381865afa158015613327573d6000803e3d6000fd5b505050506040513d601f19601f8201168201806040525081019061334b91906147cd565b9050600061335a898585610fde565b60408101518051919250839161337290600190614a1a565b81518110613382576133826147e6565b60200260200101516060015161339891906147a4565b9998505050505050505050565b600080856001600160a01b031663ef78d4fd6040518163ffffffff1660e01b8152600401602060405180830381865afa1580156133e6573d6000803e3d6000fd5b505050506040513d601f19601f8201168201806040525081019061340a91906147cd565b9050835b8381116134a3576040516391a0846d60e01b81526001600160a01b038781166004830152602482018390528816906391a0846d90604401602060405180830381865afa158015613462573d6000803e3d6000fd5b505050506040513d601f19601f8201168201806040525081019061348691906147cd565b61349090846147a4565b925061349c82826147a4565b905061340e565b5050949350505050565b6000806134ba8484611ddc565b60e081015190915060005b8260400151518110156137f45760006134ef8787866040015185815181106105a1576105a16147e6565b905060005b8160400151518110156137df5781604001518181518110613517576135176147e6565b6020026020010151608001518661352e91906147a4565b955081604001518181518110613546576135466147e6565b602002602001015160a001518661355d9190614a1a565b955060018260400151516135719190614a1a565b81036137cd576000886001600160a01b031663e107fb4f898560400151858151811061359f5761359f6147e6565b6020026020010151606001516040518363ffffffff1660e01b81526004016135d1929190918252602082015260400190565b602060405180830381865afa1580156135ee573d6000803e3d6000fd5b505050506040513d601f19601f8201168201806040525081019061361291906147cd565b905061361e8188614a1a565b96506000896001600160a01b031663a87430ba85604001518581518110613647576136476147e6565b6020026020010151604001516040518263ffffffff1660e01b815260040161367e91906001600160a01b0391909116815260200190565b6040805180830381865afa15801561369a573d6000803e3d6000fd5b505050506040513d601f19601f820116820180604052508101906136be9190614b53565b60405163543a185d60e11b81526001600160a01b03808316600483015291935060009250908c169063a87430ba906024016040805180830381865afa15801561370b573d6000803e3d6000fd5b505050506040513d601f19601f8201168201806040525081019061372f9190614b53565b50905080156137c95760008b6001600160a01b0316639e9c4f086040518163ffffffff1660e01b8152600401602060405180830381865afa158015613778573d6000803e3d6000fd5b505050506040513d601f19601f8201168201806040525081019061379c91906147cd565b9050670de0b6b3a76400006137b18286614a2d565b6137bb9190614a73565b6137c590896147a4565b9750505b5050505b806137d781614a44565b9150506134f4565b505080806137ec90614a44565b9150506134c5565b506137ff8184614a1a565b95945050505050565b60606000826001600160401b03811115613824576138246147b7565b60405190808252806020026020018201604052801561385d57816020015b61384a6141ba565b8152602001906001900390816138425790505b5060408051600480825260a08201909252919350600091829160208201608080368337019050509050896001600160a01b031663ef78d4fd6040518163ffffffff1660e01b8152600401602060405180830381865afa1580156138c4573d6000803e3d6000fd5b505050506040513d601f19601f820116820180604052508101906138e891906147cd565b816002815181106138fb576138fb6147e6565b60209081029190910101526060885b888111613caa5760405163bad1265360e01b8152600481018290526001600160a01b038d169063bad1265390602401602060405180830381865afa158015613956573d6000803e3d6000fd5b505050506040513d601f19601f8201168201806040525081019061397a91906147fc565b935060008460048111156139905761399061481d565b14613c7d57604051630122bf3160e51b8152600481018290526001600160a01b038d1690632457e62090602401600060405180830381865afa1580156139da573d6000803e3d6000fd5b505050506040513d6000823e601f3d908101601f19168201604052613a0291908101906148ae565b915060005b8251811015613c7b5760008d6001600160a01b031663fb0d5e0984868581518110613a3457613a346147e6565b60200260200101516040518363ffffffff1660e01b8152600401613a62929190918252602082015260400190565b600060405180830381865afa158015613a7f573d6000803e3d6000fd5b505050506040513d6000823e601f3d908101601f19168201604052613aa791908101906149e6565b90508c6001600160a01b03168160018351613ac29190614a1a565b81518110613ad257613ad26147e6565b6020026020010151604001516001600160a01b0316148015613b0e57508285600381518110613b0357613b036147e6565b602002602001015114155b15613c6857613b1d898b614a2d565b85600081518110613b3057613b306147e6565b602002602001015110158015613b74575088613b4d8b60016147a4565b613b579190614a2d565b85600081518110613b6a57613b6a6147e6565b6020026020010151105b15613c0157613b838e84611ddc565b8886600181518110613b9757613b976147e6565b602002602001015181518110613baf57613baf6147e6565b602002602001018190525084600181518110613bcd57613bcd6147e6565b60200260200101516001613be191906147a4565b85600181518110613bf457613bf46147e6565b6020026020010181815250505b84600081518110613c1457613c146147e6565b60200260200101516001613c2891906147a4565b85600081518110613c3b57613c3b6147e6565b6020026020010181815250508285600381518110613c5b57613c5b6147e6565b6020026020010181815250505b5080613c7381614a44565b915050613a07565b505b82600281518110613c9057613c906147e6565b602002602001015181613ca391906147a4565b905061390a565b5085613cb78860016147a4565b613cc19190614a2d565b82600081518110613cd457613cd46147e6565b60200260200101511115613d1a57868683600081518110613cf757613cf76147e6565b6020026020010151613d099190614a73565b613d139190614a1a565b9350613d1f565b600093505b505050965096945050505050565b6060600084861115613da75760405162461bcd60e51b815260206004820152603760248201527f6672616d654b65795f7374617274206d75737420626520736d616c6c6572206f60448201527f7220657175616c20746f206672616d654b65795f656e640000000000000000006064820152608401610d98565b826001600160401b03811115613dbf57613dbf6147b7565b604051908082528060200260200182016040528015613e1457816020015b613e0160405180606001604052806000815260200160008152602001606081525090565b815260200190600190039081613ddd5790505b5060408051600380825260808201909252919350606091600091602082018480368337019050509050886001600160a01b031663ef78d4fd6040518163ffffffff1660e01b8152600401602060405180830381865afa158015613e7b573d6000803e3d6000fd5b505050506040513d601f19601f82011682018060405250810190613e9f91906147cd565b81600281518110613eb257613eb26147e6565b6020908102919091010152875b8781116114a057604051630122bf3160e51b8152600481018290526001600160a01b038b1690632457e62090602401600060405180830381865afa158015613f0b573d6000803e3d6000fd5b505050506040513d6000823e601f3d908101601f19168201604052613f3391908101906148ae565b925060005b835181101561409357613f4b8789614a2d565b83600081518110613f5e57613f5e6147e6565b602002602001015110158015613fa2575086613f7b8960016147a4565b613f859190614a2d565b83600081518110613f9857613f986147e6565b6020026020010151105b1561403c57613fbe8b838684815181106105a1576105a16147e6565b8684600181518110613fd257613fd26147e6565b602002602001015181518110613fea57613fea6147e6565b602002602001018190525082600181518110614008576140086147e6565b6020026020010151600161401c91906147a4565b8360018151811061402f5761402f6147e6565b6020026020010181815250505b8260008151811061404f5761404f6147e6565b6020026020010151600161406391906147a4565b83600081518110614076576140766147e6565b60209081029190910101528061408b81614a44565b915050613f38565b50816002815181106140a7576140a76147e6565b6020026020010151816140ba91906147a4565b9050613ebf565b61410682826040516024016140d7929190614c9a565b60408051601f198184030181529190526020810180516001600160e01b0316632d839cb360e21b179052614195565b5050565b6141068282604051602401614120929190614cad565b60408051601f198184030181529190526020810180516001600160e01b031663319af33360e01b179052614195565b614192816040516024016141639190614cd7565b60408051601f198184030181529190526020810180516001600160e01b031663104c13eb60e21b179052614195565b50565b6141928160006a636f6e736f6c652e6c6f679050600080835160208501845afa505050565b60405180610100016040528060008152602001600081526020016060815260200160006001600160a01b03168152602001600081526020016000815260200160008152602001600081525090565b6040518060c00160405280600081526020016000815260200160006001600160a01b031681526020016000815260200160008152602001600081525090565b6001600160a01b038116811461419257600080fd5b600080600080600080600060e0888a03121561427757600080fd5b873561428281614247565b9650602088013561429281614247565b96999698505050506040850135946060810135946080820135945060a0820135935060c0909101359150565b600060608084018351855260208085015181870152604080860151848289015283815180865260809550858a019150848301925060005b81811015614348578351805184528681015187850152858101516001600160a01b0316868501528881015189850152878101518885015260a090810151908401529285019260c0909201916001016142f5565b50909998505050505050505050565b600082825180855260208086019550808260051b84010181860160005b848110156143a257601f198684030189526143908383516142be565b98840198925090830190600101614374565b5090979650505050505050565b6040815260006143c26040830185614357565b90508260208301529392505050565b6000806000606084860312156143e657600080fd5b83356143f181614247565b95602085013595506040909401359392505050565b600081518084526020808501945080840160005b838110156144365781518752958201959082019060010161441a565b509495945050505050565b60006101008251845260208301516020850152604083015181604086015261446b82860182614406565b91505060018060a01b0360608401511660608501526080830151608085015260a083015160a085015260c083015160c085015260e083015160e08501528091505092915050565b600081518084526020808501808196508360051b8101915082860160005b858110156144fa5782840389526144e8848351614441565b988501989350908401906001016144d0565b5091979650505050505050565b602081526000610d6f60208301846144b2565b602081526000610d6f60208301846142be565b600080600080600060a0868803121561454557600080fd5b853561455081614247565b97602087013597506040870135966060810135965060800135945092505050565b6040815260006143c260408301856144b2565b6000806040838503121561459757600080fd5b82356145a281614247565b946020939093013593505050565b602081526000610d6f6020830184614441565b600080604083850312156145d657600080fd5b82356145e181614247565b915060208301356145f181614247565b809150509250929050565b604080825283519082018190526000906020906060840190828701845b8281101561463e5781516001600160a01b031684529284019290840190600101614619565b50505061ffff9490941692019190915250919050565b82815260406020820152600061466d6040830184614406565b949350505050565b60006020828403121561468757600080fd5b5035919050565b600080600080608085870312156146a457600080fd5b84356146af81614247565b966020860135965060408601359560600135945092505050565b602081526000610d6f6020830184614357565b602081526000610d6f6020830184614406565b6000806000806080858703121561470557600080fd5b843561471081614247565b9350602085013561472081614247565b93969395505050506040820135916060013590565b60008060008060008060c0878903121561474e57600080fd5b863561475981614247565b9550602087013561476981614247565b95989597505050506040840135936060810135936080820135935060a0909101359150565b634e487b7160e01b600052601160045260246000fd5b80820180821115611ef257611ef261478e565b634e487b7160e01b600052604160045260246000fd5b6000602082840312156147df57600080fd5b5051919050565b634e487b7160e01b600052603260045260246000fd5b60006020828403121561480e57600080fd5b815160058110610d6f57600080fd5b634e487b7160e01b600052602160045260246000fd5b60405160c081016001600160401b0381118282101715614855576148556147b7565b60405290565b604051601f8201601f191681016001600160401b0381118282101715614883576148836147b7565b604052919050565b60006001600160401b038211156148a4576148a46147b7565b5060051b60200190565b600060208083850312156148c157600080fd5b82516001600160401b038111156148d757600080fd5b8301601f810185136148e857600080fd5b80516148fb6148f68261488b565b61485b565b81815260059190911b8201830190838101908783111561491a57600080fd5b928401925b82841015612f695783518252928401929084019061491f565b600082601f83011261494957600080fd5b815160206149596148f68361488b565b82815260c0928302850182019282820191908785111561497857600080fd5b8387015b858110156143a25781818a0312156149945760008081fd5b61499c614833565b8151815285820151868201526040808301516149b781614247565b90820152606082810151908201526080808301519082015260a08083015190820152845292840192810161497c565b6000602082840312156149f857600080fd5b81516001600160401b03811115614a0e57600080fd5b61466d84828501614938565b81810381811115611ef257611ef261478e565b8082028115828204841417611ef257611ef261478e565b600060018201614a5657614a5661478e565b5060010190565b634e487b7160e01b600052601260045260246000fd5b600082614a8257614a82614a5d565b500490565b6020808252602f908201527f7374617274496e646578206d75737420626520736d616c6c6572206f7220657160408201526e0eac2d840e8de40cadcc892dcc8caf608b1b606082015260800190565b600080600080600080600060e0888a031215614af157600080fd5b87519650602088015195506040880151614b0a81614247565b80955050606088015193506080880151925060a0880151915060c0880151905092959891949750929550565b600060208284031215614b4857600080fd5b8151610d6f81614247565b60008060408385031215614b6657600080fd5b82518015158114614b7657600080fd5b60208401519092506145f181614247565b600061ffff808316818103614b9e57614b9e61478e565b6001019392505050565b600082614bb757614bb7614a5d565b500690565b600060208284031215614bce57600080fd5b81516001600160401b0380821115614be557600080fd5b9083019060608286031215614bf957600080fd5b604051606081018181108382111715614c1457614c146147b7565b80604052508251815260208301516020820152604083015182811115614c3957600080fd5b614c4587828601614938565b60408301525095945050505050565b6000815180845260005b81811015614c7a57602081850181015186830182015201614c5e565b506000602082860101526020601f19601f83011685010191505092915050565b6040815260006143c26040830185614c54565b604081526000614cc06040830185614c54565b905060018060a01b03831660208301529392505050565b602081526000610d6f6020830184614c5456fea264697066735822122048e3268be6eb9c72cae84451500ed0406b7813b14b053936a0b1b932ce5668d864736f6c63430008140033",
  "linkReferences": {},
  "deployedLinkReferences": {}
}