{
  "_format": "hh-sol-artifact-1",
  "contractName": "MarketGetter",
  "sourceName": "contracts/MarketGetter.sol",
  "abi": [
    {
      "inputs": [
        {
          "internalType": "contract Market",
          "name": "market",
          "type": "address"
        },
        {
          "internalType": "uint256",
          "name": "timestamp",
          "type": "uint256"
        },
        {
          "internalType": "uint256",
          "name": "pairPrice",
          "type": "uint256"
        },
        {
          "internalType": "uint256",
          "name": "acqPrice",
          "type": "uint256"
        }
      ],
      "name": "clcAmountToApprove",
      "outputs": [
        {
          "internalType": "uint256",
          "name": "approvalAmnt",
          "type": "uint256"
        }
      ],
      "stateMutability": "view",
      "type": "function"
    },
    {
      "inputs": [
        {
          "internalType": "contract Market",
          "name": "market",
          "type": "address"
        },
        {
          "internalType": "uint256",
          "name": "timestamp",
          "type": "uint256"
        },
        {
          "internalType": "uint256",
          "name": "pairPrice",
          "type": "uint256"
        },
        {
          "internalType": "uint256",
          "name": "acqPrice",
          "type": "uint256"
        }
      ],
      "name": "clcAmountToApproveForUpdate",
      "outputs": [
        {
          "internalType": "uint256",
          "name": "amnt",
          "type": "uint256"
        }
      ],
      "stateMutability": "view",
      "type": "function"
    },
    {
      "inputs": [
        {
          "internalType": "contract Market",
          "name": "market",
          "type": "address"
        },
        {
          "internalType": "uint256",
          "name": "frameKey",
          "type": "uint256"
        }
      ],
      "name": "getFrameStruct",
      "outputs": [
        {
          "components": [
            {
              "internalType": "uint256",
              "name": "frameKey",
              "type": "uint256"
            },
            {
              "internalType": "uint256",
              "name": "rate",
              "type": "uint256"
            },
            {
              "internalType": "uint256[]",
              "name": "lotKeys",
              "type": "uint256[]"
            },
            {
              "internalType": "address",
              "name": "claimedBy",
              "type": "address"
            },
            {
              "internalType": "uint256",
              "name": "rateSettle",
              "type": "uint256"
            },
            {
              "internalType": "uint256",
              "name": "feeSettle",
              "type": "uint256"
            },
            {
              "internalType": "uint256",
              "name": "rewardSettle",
              "type": "uint256"
            },
            {
              "internalType": "uint256",
              "name": "feeReferral",
              "type": "uint256"
            }
          ],
          "internalType": "struct Market.Frame",
          "name": "",
          "type": "tuple"
        }
      ],
      "stateMutability": "view",
      "type": "function"
    },
    {
      "inputs": [
        {
          "internalType": "contract Market",
          "name": "market",
          "type": "address"
        },
        {
          "internalType": "uint256",
          "name": "frameKey_start",
          "type": "uint256"
        },
        {
          "internalType": "uint256",
          "name": "frameKey_end",
          "type": "uint256"
        },
        {
          "internalType": "uint256",
          "name": "page",
          "type": "uint256"
        },
        {
          "internalType": "uint256",
          "name": "perPage",
          "type": "uint256"
        }
      ],
      "name": "getFrames",
      "outputs": [
        {
          "components": [
            {
              "internalType": "uint256",
              "name": "frameKey",
              "type": "uint256"
            },
            {
              "internalType": "uint256",
              "name": "rate",
              "type": "uint256"
            },
            {
              "internalType": "uint256[]",
              "name": "lotKeys",
              "type": "uint256[]"
            },
            {
              "internalType": "address",
              "name": "claimedBy",
              "type": "address"
            },
            {
              "internalType": "uint256",
              "name": "rateSettle",
              "type": "uint256"
            },
            {
              "internalType": "uint256",
              "name": "feeSettle",
              "type": "uint256"
            },
            {
              "internalType": "uint256",
              "name": "rewardSettle",
              "type": "uint256"
            },
            {
              "internalType": "uint256",
              "name": "feeReferral",
              "type": "uint256"
            }
          ],
          "internalType": "struct Market.Frame[]",
          "name": "frames",
          "type": "tuple[]"
        },
        {
          "internalType": "uint256",
          "name": "pagesLeft",
          "type": "uint256"
        }
      ],
      "stateMutability": "view",
      "type": "function"
    },
    {
      "inputs": [
        {
          "internalType": "contract Market",
          "name": "market",
          "type": "address"
        },
        {
          "internalType": "uint256",
          "name": "startIndex",
          "type": "uint256"
        },
        {
          "internalType": "uint256",
          "name": "endIndex",
          "type": "uint256"
        }
      ],
      "name": "getFramesByIndex",
      "outputs": [
        {
          "components": [
            {
              "internalType": "uint256",
              "name": "frameKey",
              "type": "uint256"
            },
            {
              "internalType": "uint256",
              "name": "rate",
              "type": "uint256"
            },
            {
              "internalType": "uint256[]",
              "name": "lotKeys",
              "type": "uint256[]"
            },
            {
              "internalType": "address",
              "name": "claimedBy",
              "type": "address"
            },
            {
              "internalType": "uint256",
              "name": "rateSettle",
              "type": "uint256"
            },
            {
              "internalType": "uint256",
              "name": "feeSettle",
              "type": "uint256"
            },
            {
              "internalType": "uint256",
              "name": "rewardSettle",
              "type": "uint256"
            },
            {
              "internalType": "uint256",
              "name": "feeReferral",
              "type": "uint256"
            }
          ],
          "internalType": "struct Market.Frame[]",
          "name": "frames",
          "type": "tuple[]"
        }
      ],
      "stateMutability": "view",
      "type": "function"
    },
    {
      "inputs": [
        {
          "internalType": "contract Market",
          "name": "market",
          "type": "address"
        },
        {
          "internalType": "address",
          "name": "user",
          "type": "address"
        },
        {
          "internalType": "uint256",
          "name": "frameKey_start",
          "type": "uint256"
        },
        {
          "internalType": "uint256",
          "name": "frameKey_end",
          "type": "uint256"
        },
        {
          "internalType": "uint256",
          "name": "page",
          "type": "uint256"
        },
        {
          "internalType": "uint256",
          "name": "perPage",
          "type": "uint256"
        }
      ],
      "name": "getFramesUser",
      "outputs": [
        {
          "components": [
            {
              "internalType": "uint256",
              "name": "frameKey",
              "type": "uint256"
            },
            {
              "internalType": "uint256",
              "name": "rate",
              "type": "uint256"
            },
            {
              "internalType": "uint256[]",
              "name": "lotKeys",
              "type": "uint256[]"
            },
            {
              "internalType": "address",
              "name": "claimedBy",
              "type": "address"
            },
            {
              "internalType": "uint256",
              "name": "rateSettle",
              "type": "uint256"
            },
            {
              "internalType": "uint256",
              "name": "feeSettle",
              "type": "uint256"
            },
            {
              "internalType": "uint256",
              "name": "rewardSettle",
              "type": "uint256"
            },
            {
              "internalType": "uint256",
              "name": "feeReferral",
              "type": "uint256"
            }
          ],
          "internalType": "struct Market.Frame[]",
          "name": "userFrames",
          "type": "tuple[]"
        },
        {
          "internalType": "uint256",
          "name": "pagesLeft",
          "type": "uint256"
        }
      ],
      "stateMutability": "view",
      "type": "function"
    },
    {
      "inputs": [
        {
          "internalType": "contract Market",
          "name": "market",
          "type": "address"
        },
        {
          "internalType": "uint256",
          "name": "frameKey",
          "type": "uint256"
        },
        {
          "internalType": "uint256",
          "name": "index",
          "type": "uint256"
        }
      ],
      "name": "getLotKey",
      "outputs": [
        {
          "internalType": "uint256",
          "name": "",
          "type": "uint256"
        }
      ],
      "stateMutability": "view",
      "type": "function"
    },
    {
      "inputs": [
        {
          "internalType": "contract Market",
          "name": "market",
          "type": "address"
        },
        {
          "internalType": "uint256",
          "name": "frameKey",
          "type": "uint256"
        },
        {
          "internalType": "uint256",
          "name": "lotKey",
          "type": "uint256"
        }
      ],
      "name": "getLotStruct",
      "outputs": [
        {
          "components": [
            {
              "internalType": "uint256",
              "name": "frameKey",
              "type": "uint256"
            },
            {
              "internalType": "uint256",
              "name": "lotKey",
              "type": "uint256"
            },
            {
              "components": [
                {
                  "internalType": "uint256",
                  "name": "blockNumber",
                  "type": "uint256"
                },
                {
                  "internalType": "uint256",
                  "name": "blockTimestamp",
                  "type": "uint256"
                },
                {
                  "internalType": "address",
                  "name": "owner",
                  "type": "address"
                },
                {
                  "internalType": "uint256",
                  "name": "acquisitionPrice",
                  "type": "uint256"
                },
                {
                  "internalType": "uint256",
                  "name": "taxCharged",
                  "type": "uint256"
                },
                {
                  "internalType": "uint256",
                  "name": "taxRefunded",
                  "type": "uint256"
                }
              ],
              "internalType": "struct Market.LotState[]",
              "name": "states",
              "type": "tuple[]"
            }
          ],
          "internalType": "struct Market.Lot",
          "name": "",
          "type": "tuple"
        }
      ],
      "stateMutability": "view",
      "type": "function"
    },
    {
      "inputs": [
        {
          "internalType": "contract Market",
          "name": "market",
          "type": "address"
        },
        {
          "internalType": "uint256",
          "name": "frameKey_start",
          "type": "uint256"
        },
        {
          "internalType": "uint256",
          "name": "frameKey_end",
          "type": "uint256"
        },
        {
          "internalType": "uint256",
          "name": "page",
          "type": "uint256"
        },
        {
          "internalType": "uint256",
          "name": "perPage",
          "type": "uint256"
        }
      ],
      "name": "getLots",
      "outputs": [
        {
          "components": [
            {
              "internalType": "uint256",
              "name": "frameKey",
              "type": "uint256"
            },
            {
              "internalType": "uint256",
              "name": "lotKey",
              "type": "uint256"
            },
            {
              "components": [
                {
                  "internalType": "uint256",
                  "name": "blockNumber",
                  "type": "uint256"
                },
                {
                  "internalType": "uint256",
                  "name": "blockTimestamp",
                  "type": "uint256"
                },
                {
                  "internalType": "address",
                  "name": "owner",
                  "type": "address"
                },
                {
                  "internalType": "uint256",
                  "name": "acquisitionPrice",
                  "type": "uint256"
                },
                {
                  "internalType": "uint256",
                  "name": "taxCharged",
                  "type": "uint256"
                },
                {
                  "internalType": "uint256",
                  "name": "taxRefunded",
                  "type": "uint256"
                }
              ],
              "internalType": "struct Market.LotState[]",
              "name": "states",
              "type": "tuple[]"
            }
          ],
          "internalType": "struct Market.Lot[]",
          "name": "lots",
          "type": "tuple[]"
        },
        {
          "internalType": "uint256",
          "name": "pagesLeft",
          "type": "uint256"
        }
      ],
      "stateMutability": "view",
      "type": "function"
    },
    {
      "inputs": [
        {
          "internalType": "contract Market",
          "name": "market",
          "type": "address"
        },
        {
          "internalType": "uint256",
          "name": "startIndex",
          "type": "uint256"
        },
        {
          "internalType": "uint256",
          "name": "endIndex",
          "type": "uint256"
        }
      ],
      "name": "getLotsByIndex",
      "outputs": [
        {
          "components": [
            {
              "internalType": "uint256",
              "name": "frameKey",
              "type": "uint256"
            },
            {
              "internalType": "uint256",
              "name": "lotKey",
              "type": "uint256"
            },
            {
              "components": [
                {
                  "internalType": "uint256",
                  "name": "blockNumber",
                  "type": "uint256"
                },
                {
                  "internalType": "uint256",
                  "name": "blockTimestamp",
                  "type": "uint256"
                },
                {
                  "internalType": "address",
                  "name": "owner",
                  "type": "address"
                },
                {
                  "internalType": "uint256",
                  "name": "acquisitionPrice",
                  "type": "uint256"
                },
                {
                  "internalType": "uint256",
                  "name": "taxCharged",
                  "type": "uint256"
                },
                {
                  "internalType": "uint256",
                  "name": "taxRefunded",
                  "type": "uint256"
                }
              ],
              "internalType": "struct Market.LotState[]",
              "name": "states",
              "type": "tuple[]"
            }
          ],
          "internalType": "struct Market.Lot[]",
          "name": "lots",
          "type": "tuple[]"
        }
      ],
      "stateMutability": "view",
      "type": "function"
    },
    {
      "inputs": [
        {
          "internalType": "contract Market",
          "name": "market",
          "type": "address"
        },
        {
          "internalType": "uint256",
          "name": "frameKey",
          "type": "uint256"
        }
      ],
      "name": "getLotsCount",
      "outputs": [
        {
          "internalType": "uint256",
          "name": "",
          "type": "uint256"
        }
      ],
      "stateMutability": "view",
      "type": "function"
    },
    {
      "inputs": [
        {
          "internalType": "contract Market",
          "name": "market",
          "type": "address"
        },
        {
          "internalType": "address",
          "name": "user",
          "type": "address"
        },
        {
          "internalType": "uint256",
          "name": "mode",
          "type": "uint256"
        },
        {
          "internalType": "uint256",
          "name": "frameKey_start",
          "type": "uint256"
        },
        {
          "internalType": "uint256",
          "name": "frameKey_end",
          "type": "uint256"
        },
        {
          "internalType": "uint256",
          "name": "page",
          "type": "uint256"
        },
        {
          "internalType": "uint256",
          "name": "perPage",
          "type": "uint256"
        }
      ],
      "name": "getLotsSoldUser",
      "outputs": [
        {
          "components": [
            {
              "internalType": "uint256",
              "name": "frameKey",
              "type": "uint256"
            },
            {
              "internalType": "uint256",
              "name": "lotKey",
              "type": "uint256"
            },
            {
              "components": [
                {
                  "internalType": "uint256",
                  "name": "blockNumber",
                  "type": "uint256"
                },
                {
                  "internalType": "uint256",
                  "name": "blockTimestamp",
                  "type": "uint256"
                },
                {
                  "internalType": "address",
                  "name": "owner",
                  "type": "address"
                },
                {
                  "internalType": "uint256",
                  "name": "acquisitionPrice",
                  "type": "uint256"
                },
                {
                  "internalType": "uint256",
                  "name": "taxCharged",
                  "type": "uint256"
                },
                {
                  "internalType": "uint256",
                  "name": "taxRefunded",
                  "type": "uint256"
                }
              ],
              "internalType": "struct Market.LotState[]",
              "name": "states",
              "type": "tuple[]"
            }
          ],
          "internalType": "struct Market.Lot[]",
          "name": "userLots",
          "type": "tuple[]"
        },
        {
          "internalType": "uint256",
          "name": "pagesLeft",
          "type": "uint256"
        }
      ],
      "stateMutability": "view",
      "type": "function"
    },
    {
      "inputs": [
        {
          "internalType": "contract Market",
          "name": "market",
          "type": "address"
        },
        {
          "internalType": "address",
          "name": "user",
          "type": "address"
        },
        {
          "internalType": "uint256",
          "name": "mode",
          "type": "uint256"
        },
        {
          "internalType": "uint256",
          "name": "frameKey_start",
          "type": "uint256"
        },
        {
          "internalType": "uint256",
          "name": "frameKey_end",
          "type": "uint256"
        },
        {
          "internalType": "uint256",
          "name": "page",
          "type": "uint256"
        },
        {
          "internalType": "uint256",
          "name": "perPage",
          "type": "uint256"
        }
      ],
      "name": "getLotsUser",
      "outputs": [
        {
          "components": [
            {
              "internalType": "uint256",
              "name": "frameKey",
              "type": "uint256"
            },
            {
              "internalType": "uint256",
              "name": "lotKey",
              "type": "uint256"
            },
            {
              "components": [
                {
                  "internalType": "uint256",
                  "name": "blockNumber",
                  "type": "uint256"
                },
                {
                  "internalType": "uint256",
                  "name": "blockTimestamp",
                  "type": "uint256"
                },
                {
                  "internalType": "address",
                  "name": "owner",
                  "type": "address"
                },
                {
                  "internalType": "uint256",
                  "name": "acquisitionPrice",
                  "type": "uint256"
                },
                {
                  "internalType": "uint256",
                  "name": "taxCharged",
                  "type": "uint256"
                },
                {
                  "internalType": "uint256",
                  "name": "taxRefunded",
                  "type": "uint256"
                }
              ],
              "internalType": "struct Market.LotState[]",
              "name": "states",
              "type": "tuple[]"
            }
          ],
          "internalType": "struct Market.Lot[]",
          "name": "userLots",
          "type": "tuple[]"
        },
        {
          "internalType": "uint256",
          "name": "pagesLeft",
          "type": "uint256"
        }
      ],
      "stateMutability": "view",
      "type": "function"
    },
    {
      "inputs": [
        {
          "internalType": "contract Market",
          "name": "market",
          "type": "address"
        },
        {
          "internalType": "uint256",
          "name": "firstUserIndex",
          "type": "uint256"
        },
        {
          "internalType": "uint256",
          "name": "lastUserIndex",
          "type": "uint256"
        },
        {
          "internalType": "uint256",
          "name": "frameKeyStart",
          "type": "uint256"
        },
        {
          "internalType": "uint256",
          "name": "frameKeyEnd",
          "type": "uint256"
        }
      ],
      "name": "getMultipleUsersRewards",
      "outputs": [
        {
          "internalType": "uint256",
          "name": "comulativeReward",
          "type": "uint256"
        },
        {
          "internalType": "uint256[]",
          "name": "rewards",
          "type": "uint256[]"
        }
      ],
      "stateMutability": "view",
      "type": "function"
    },
    {
      "inputs": [
        {
          "internalType": "contract Market",
          "name": "market",
          "type": "address"
        },
        {
          "internalType": "uint256",
          "name": "startFrame",
          "type": "uint256"
        },
        {
          "internalType": "uint256",
          "name": "numOfFrames",
          "type": "uint256"
        }
      ],
      "name": "getOpenFrameKeys",
      "outputs": [
        {
          "internalType": "uint256[]",
          "name": "openFrames",
          "type": "uint256[]"
        }
      ],
      "stateMutability": "view",
      "type": "function"
    },
    {
      "inputs": [
        {
          "internalType": "contract Market",
          "name": "market",
          "type": "address"
        },
        {
          "internalType": "uint256",
          "name": "frameKey",
          "type": "uint256"
        }
      ],
      "name": "getRewardAmount",
      "outputs": [
        {
          "internalType": "uint256",
          "name": "",
          "type": "uint256"
        }
      ],
      "stateMutability": "view",
      "type": "function"
    },
    {
      "inputs": [
        {
          "internalType": "contract Market",
          "name": "market",
          "type": "address"
        },
        {
          "internalType": "uint256",
          "name": "frameKey",
          "type": "uint256"
        }
      ],
      "name": "getRewardAmountMin",
      "outputs": [
        {
          "internalType": "uint256",
          "name": "rewardFund",
          "type": "uint256"
        }
      ],
      "stateMutability": "view",
      "type": "function"
    },
    {
      "inputs": [
        {
          "internalType": "contract Market",
          "name": "market",
          "type": "address"
        },
        {
          "internalType": "address",
          "name": "user",
          "type": "address"
        },
        {
          "internalType": "uint256",
          "name": "startIndex",
          "type": "uint256"
        },
        {
          "internalType": "uint256",
          "name": "endIndex",
          "type": "uint256"
        }
      ],
      "name": "getUserCollectedByIndex",
      "outputs": [
        {
          "internalType": "uint256[]",
          "name": "collected",
          "type": "uint256[]"
        }
      ],
      "stateMutability": "view",
      "type": "function"
    },
    {
      "inputs": [
        {
          "internalType": "contract Market",
          "name": "market",
          "type": "address"
        },
        {
          "internalType": "address",
          "name": "user",
          "type": "address"
        },
        {
          "internalType": "uint256",
          "name": "frameKeyStart",
          "type": "uint256"
        },
        {
          "internalType": "uint256",
          "name": "frameKeyEnd",
          "type": "uint256"
        }
      ],
      "name": "getUserRewards",
      "outputs": [
        {
          "internalType": "uint256",
          "name": "reward",
          "type": "uint256"
        }
      ],
      "stateMutability": "view",
      "type": "function"
    },
    {
      "inputs": [
        {
          "internalType": "contract Market",
          "name": "market",
          "type": "address"
        },
        {
          "internalType": "address",
          "name": "user",
          "type": "address"
        },
        {
          "internalType": "uint256",
          "name": "startIndex",
          "type": "uint256"
        },
        {
          "internalType": "uint256",
          "name": "endIndex",
          "type": "uint256"
        }
      ],
      "name": "getUserRewardsByIndex",
      "outputs": [
        {
          "internalType": "uint256[]",
          "name": "rewards",
          "type": "uint256[]"
        }
      ],
      "stateMutability": "view",
      "type": "function"
    },
    {
      "inputs": [
        {
          "internalType": "contract Market",
          "name": "market",
          "type": "address"
        },
        {
          "internalType": "address",
          "name": "user",
          "type": "address"
        }
      ],
      "name": "getUserRewardsLength",
      "outputs": [
        {
          "internalType": "uint256",
          "name": "",
          "type": "uint256"
        }
      ],
      "stateMutability": "view",
      "type": "function"
    },
    {
      "inputs": [
        {
          "internalType": "contract Market",
          "name": "market",
          "type": "address"
        },
        {
          "internalType": "address",
          "name": "user",
          "type": "address"
        }
      ],
      "name": "getUserStruct",
      "outputs": [
        {
          "components": [
            {
              "internalType": "address",
              "name": "user",
              "type": "address"
            },
            {
              "internalType": "address",
              "name": "referredBy",
              "type": "address"
            },
            {
              "internalType": "uint256[]",
              "name": "rewards",
              "type": "uint256[]"
            },
            {
              "internalType": "uint256[]",
              "name": "collected",
              "type": "uint256[]"
            }
          ],
          "internalType": "struct MarketGetter.User",
          "name": "",
          "type": "tuple"
        }
      ],
      "stateMutability": "view",
      "type": "function"
    },
    {
      "inputs": [
        {
          "internalType": "contract Market",
          "name": "market",
          "type": "address"
        },
        {
          "internalType": "uint256",
          "name": "startIndex",
          "type": "uint256"
        },
        {
          "internalType": "uint256",
          "name": "endIndex",
          "type": "uint256"
        },
        {
          "internalType": "uint256",
          "name": "startIndexArray",
          "type": "uint256"
        },
        {
          "internalType": "uint256",
          "name": "endIndexArray",
          "type": "uint256"
        }
      ],
      "name": "getUsersByIndex",
      "outputs": [
        {
          "components": [
            {
              "internalType": "address",
              "name": "user",
              "type": "address"
            },
            {
              "internalType": "address",
              "name": "referredBy",
              "type": "address"
            },
            {
              "internalType": "uint256[]",
              "name": "rewards",
              "type": "uint256[]"
            },
            {
              "internalType": "uint256[]",
              "name": "collected",
              "type": "uint256[]"
            }
          ],
          "internalType": "struct MarketGetter.User[]",
          "name": "users",
          "type": "tuple[]"
        }
      ],
      "stateMutability": "view",
      "type": "function"
    },
    {
      "inputs": [
        {
          "internalType": "contract Market",
          "name": "market",
          "type": "address"
        },
        {
          "internalType": "address",
          "name": "user",
          "type": "address"
        }
      ],
      "name": "getUsersReferrals",
      "outputs": [
        {
          "internalType": "address[]",
          "name": "referrals",
          "type": "address[]"
        },
        {
          "internalType": "uint16",
          "name": "length",
          "type": "uint16"
        }
      ],
      "stateMutability": "view",
      "type": "function"
    },
    {
      "inputs": [
        {
          "internalType": "uint256",
          "name": "concatenated",
          "type": "uint256"
        }
      ],
      "name": "splitLotsArrayElement",
      "outputs": [
        {
          "internalType": "uint256",
          "name": "frameKey",
          "type": "uint256"
        },
        {
          "internalType": "uint256",
          "name": "lotKey",
          "type": "uint256"
        }
      ],
      "stateMutability": "pure",
      "type": "function"
    }
  ],
  "bytecode": "0x608060405234801561001057600080fd5b50615531806100206000396000f3fe608060405234801561001057600080fd5b50600436106101735760003560e01c8063ae370f6d116100de578063dbd20a8811610097578063f2580f2611610071578063f2580f26146103c6578063f579a2d1146103d9578063f6eb9ee7146103ec578063f91cbebe146103ff57600080fd5b8063dbd20a881461038d578063de732595146103a0578063e32ed3cc146103b357600080fd5b8063ae370f6d146102df578063c1d0139514610307578063c8ddd5211461031a578063cff9e83c1461033a578063d00d7b191461035a578063da4e85561461037a57600080fd5b80636d03471b116101305780636d03471b1461023757806371b08d89146102575780637f424a371461026a5780638522bc381461028a5780639291178e146102ab57806398820b22146102be57600080fd5b8063281e8068146101785780632c79854f146101a25780633191b50e146101c357806334d186aa146101e35780634314b84f146101f6578063612d8b5014610216575b600080fd5b61018b6101863660046148b9565b610412565b604051610199929190614a09565b60405180910390f35b6101b56101b0366004614a2b565b610d9d565b604051908152602001610199565b6101d66101d1366004614a2b565b610e36565b6040516101999190614b54565b6101b56101f1366004614b67565b61106e565b610209610204366004614a2b565b6110ee565b6040516101999190614ba0565b610229610224366004614bb3565b6112bb565b604051610199929190614bf7565b61024a610245366004614bb3565b611631565b6040516101999190614c58565b61018b6102653660046148b9565b611a05565b61027d610278366004614cba565b6122c0565b6040516101999190614ce6565b61029d610298366004614b67565b6123da565b604051610199929190614cf9565b6101b56102b9366004614cba565b6126f1565b6102d16102cc366004614bb3565b61276c565b604051610199929190614d51565b6102f26102ed366004614d6a565b612ada565b60408051928352602083019190915201610199565b6101b5610315366004614d83565b612b04565b61032d610328366004614b67565b612df4565b6040516101999190614dbe565b61034d610348366004614dd1565b612f2f565b6040516101999190614e17565b61036d610368366004614a2b565b613057565b6040516101999190614e2a565b6101b5610388366004614cba565b613436565b61034d61039b366004614a2b565b613542565b6101b56103ae366004614d83565b61370c565b6101b56103c1366004614dd1565b613973565b6101b56103d4366004614cba565b613a7b565b61034d6103e7366004614dd1565b613dd6565b6102296103fa366004614e3d565b613ee8565b61018b61040d366004614bb3565b61440d565b60606000610421836001614eac565b6001600160401b0381111561043857610438614ebf565b60405190808252806020026020018201604052801561048d57816020015b61047a60405180606001604052806000815260200160008152602001606081525090565b8152602001906001900390816104565790505b50604080516003808252608082019092529193506000916060918391906020820184803683370190505090508b6001600160a01b031663ef78d4fd6040518163ffffffff1660e01b8152600401602060405180830381865afa1580156104f7573d6000803e3d6000fd5b505050506040513d601f19601f8201168201806040525081019061051b9190614ed5565b8160028151811061052e5761052e614eee565b60200260200101818152505060018a1161090f57885b88811161090d5760405163bad1265360e01b8152600481018290526001600160a01b038e169063bad1265390602401602060405180830381865afa158015610590573d6000803e3d6000fd5b505050506040513d601f19601f820116820180604052508101906105b49190614f04565b935060018460048111156105ca576105ca614f25565b036108e057604051630122bf3160e51b8152600481018290526001600160a01b038e1690632457e62090602401600060405180830381865afa158015610614573d6000803e3d6000fd5b505050506040513d6000823e601f3d908101601f1916820160405261063c9190810190615021565b925060005b83518110156108de5761066e8e8386848151811061066157610661614eee565b60200260200101516110ee565b87898151811061068057610680614eee565b602002602001018190525060008e6001600160a01b031663fb0d5e09848785815181106106af576106af614eee565b60200260200101516040518363ffffffff1660e01b81526004016106dd929190918252602082015260400190565b600060405180830381865afa1580156106fa573d6000803e3d6000fd5b505050506040513d6000823e601f3d908101601f191682016040526107229190810190615110565b905060005b600182516107359190615144565b8110156108c9578e6001600160a01b031682828151811061075857610758614eee565b6020026020010151604001516001600160a01b0316036108b75761077c8a8c615157565b8560008151811061078f5761078f614eee565b6020026020010151101580156107d35750896107ac8c6001614eac565b6107b69190615157565b856000815181106107c9576107c9614eee565b6020026020010151105b1561087057888a815181106107ea576107ea614eee565b6020026020010151898660018151811061080657610806614eee565b60200260200101518151811061081e5761081e614eee565b60200260200101819052508460018151811061083c5761083c614eee565b602002602001015160016108509190614eac565b8560018151811061086357610863614eee565b6020026020010181815250505b8460008151811061088357610883614eee565b602002602001015160016108979190614eac565b856000815181106108aa576108aa614eee565b6020026020010181815250505b806108c18161516e565b915050610727565b505080806108d69061516e565b915050610641565b505b816002815181106108f3576108f3614eee565b6020026020010151816109069190614eac565b9050610544565b505b896002148061091c575089155b15610d1a57885b888111610d185760405163bad1265360e01b8152600481018290526001600160a01b038e169063bad1265390602401602060405180830381865afa15801561096f573d6000803e3d6000fd5b505050506040513d601f19601f820116820180604052508101906109939190614f04565b935060028460048111156109a9576109a9614f25565b14806109c6575060048460048111156109c4576109c4614f25565b145b806109e2575060038460048111156109e0576109e0614f25565b145b15610ceb57604051630122bf3160e51b8152600481018290526001600160a01b038e1690632457e62090602401600060405180830381865afa158015610a2c573d6000803e3d6000fd5b505050506040513d6000823e601f3d908101601f19168201604052610a549190810190615021565b925060005b8351811015610ce957610a798e8386848151811061066157610661614eee565b878981518110610a8b57610a8b614eee565b602002602001018190525060008e6001600160a01b031663fb0d5e0984878581518110610aba57610aba614eee565b60200260200101516040518363ffffffff1660e01b8152600401610ae8929190918252602082015260400190565b600060405180830381865afa158015610b05573d6000803e3d6000fd5b505050506040513d6000823e601f3d908101601f19168201604052610b2d9190810190615110565b905060005b60018251610b409190615144565b811015610cd4578e6001600160a01b0316828281518110610b6357610b63614eee565b6020026020010151604001516001600160a01b031603610cc257610b878a8c615157565b85600081518110610b9a57610b9a614eee565b602002602001015110158015610bde575089610bb78c6001614eac565b610bc19190615157565b85600081518110610bd457610bd4614eee565b6020026020010151105b15610c7b57888a81518110610bf557610bf5614eee565b60200260200101518986600181518110610c1157610c11614eee565b602002602001015181518110610c2957610c29614eee565b602002602001018190525084600181518110610c4757610c47614eee565b60200260200101516001610c5b9190614eac565b85600181518110610c6e57610c6e614eee565b6020026020010181815250505b84600081518110610c8e57610c8e614eee565b60200260200101516001610ca29190614eac565b85600081518110610cb557610cb5614eee565b6020026020010181815250505b80610ccc8161516e565b915050610b32565b50508080610ce19061516e565b915050610a59565b505b81600281518110610cfe57610cfe614eee565b602002602001015181610d119190614eac565b9050610923565b505b85610d26886001614eac565b610d309190615157565b81600081518110610d4357610d43614eee565b60200260200101511115610d8957868682600081518110610d6657610d66614eee565b6020026020010151610d78919061519d565b610d829190615144565b9350610d8e565b600093505b50505097509795505050505050565b604051630122bf3160e51b81526004810183905260009081906001600160a01b03861690632457e62090602401600060405180830381865afa158015610de7573d6000803e3d6000fd5b505050506040513d6000823e601f3d908101601f19168201604052610e0f9190810190615021565b9050808381518110610e2357610e23614eee565b60200260200101519150505b9392505050565b606081831115610e615760405162461bcd60e51b8152600401610e58906151b1565b60405180910390fd5b6000846001600160a01b031663ed320aa86040518163ffffffff1660e01b8152600401602060405180830381865afa158015610ea1573d6000803e3d6000fd5b505050506040513d601f19601f82011682018060405250810190610ec59190614ed5565b905060008111610f175760405162461bcd60e51b815260206004820152601760248201527f4e6f206672616d657320696e20746865206d61726b65740000000000000000006044820152606401610e58565b838111610f365760405162461bcd60e51b8152600401610e5890615200565b82811015610f4c57610f49600182615144565b92505b610f568484615144565b610f61906001614eac565b6001600160401b03811115610f7857610f78614ebf565b604051908082528060200260200182016040528015610fb157816020015b610f9e614817565b815260200190600190039081610f965790505b509150835b8381116110655760405162143a2160e61b8152600481018290526000906001600160a01b0388169063050e884090602401602060405180830381865afa158015611004573d6000803e3d6000fd5b505050506040513d601f19601f820116820180604052508101906110289190614ed5565b905061103487826122c0565b84838151811061104657611046614eee565b602002602001018190525050808061105d9061516e565b915050610fb6565b50509392505050565b6040516391bb686560e01b81526001600160a01b0382811660048301526000916060918516906391bb686590602401600060405180830381865afa1580156110ba573d6000803e3d6000fd5b505050506040513d6000823e601f3d908101601f191682016040526110e29190810190615237565b50519150505b92915050565b61111260405180606001604052806000815260200160008152602001606081525090565b61113660405180606001604052806000815260200160008152602001606081525090565b8381526020810183905260405163fb0d5e0960e01b815260048101859052602481018490526000906001600160a01b0387169063fb0d5e0990604401600060405180830381865afa15801561118f573d6000803e3d6000fd5b505050506040513d6000823e601f3d908101601f191682016040526111b79190810190615110565b905080516000036111fe5760408051600180825281830190925290816020015b6111df614865565b8152602001906001900390816111d75750506040830152509050610e2f565b80516001600160401b0381111561121757611217614ebf565b60405190808252806020026020018201604052801561125057816020015b61123d614865565b8152602001906001900390816112355790505b50604083015260005b81518110156112b05781818151811061127457611274614eee565b60200260200101518360400151828151811061129257611292614eee565b602002602001018190525080806112a89061516e565b915050611259565b509095945050505050565b60606000826001600160401b038111156112d7576112d7614ebf565b60405190808252806020026020018201604052801561131057816020015b6112fd614817565b8152602001906001900390816112f55790505b50915061131b614817565b6040805160038082526080820190925260009160208201606080368337019050509050886001600160a01b031663ef78d4fd6040518163ffffffff1660e01b8152600401602060405180830381865afa15801561137c573d6000803e3d6000fd5b505050506040513d601f19601f820116820180604052508101906113a09190614ed5565b816002815181106113b3576113b3614eee565b6020908102919091010152875b8781116115b0576113d18a826122c0565b92506000835160405163bad1265360e01b815260048101919091526001600160a01b038c169063bad1265390602401602060405180830381865afa15801561141d573d6000803e3d6000fd5b505050506040513d601f19601f820116820180604052508101906114419190614f04565b600481111561145257611452614f25565b14611583576114618688615157565b8260008151811061147457611474614eee565b6020026020010151101580156114b8575085611491886001614eac565b61149b9190615157565b826000815181106114ae576114ae614eee565b6020026020010151105b1561153c578285836001815181106114d2576114d2614eee565b6020026020010151815181106114ea576114ea614eee565b60200260200101819052508160018151811061150857611508614eee565b6020026020010151600161151c9190614eac565b8260018151811061152f5761152f614eee565b6020026020010181815250505b8160008151811061154f5761154f614eee565b602002602001015160016115639190614eac565b8260008151811061157657611576614eee565b6020026020010181815250505b8160028151811061159657611596614eee565b6020026020010151816115a99190614eac565b90506113c0565b50846115bd876001614eac565b6115c79190615157565b816000815181106115da576115da614eee565b60200260200101511115611620578585826000815181106115fd576115fd614eee565b602002602001015161160f919061519d565b6116199190615144565b9250611625565b600092505b50509550959350505050565b6060838511156116535760405162461bcd60e51b8152600401610e58906151b1565b6000866001600160a01b031663ffde58626040518163ffffffff1660e01b8152600401602060405180830381865afa158015611693573d6000803e3d6000fd5b505050506040513d601f19601f820116820180604052508101906116b79190614ed5565b9050600081116117025760405162461bcd60e51b8152602060048201526016602482015275139bc81d5cd95c9cc81a5b881d1a19481b585c9ad95d60521b6044820152606401610e58565b600061170e8787615144565b611719906001614eac565b6001600160401b0381111561173057611730614ebf565b604051908082528060200260200182016040528015611759578160200160208202803683370190505b509050876001600160a01b03166399fe71ef6040518163ffffffff1660e01b8152600401600060405180830381865afa15801561179a573d6000803e3d6000fd5b505050506040513d6000823e601f3d908101601f191682016040526117c2919081019061529a565b90508187106117e35760405162461bcd60e51b8152600401610e5890615200565b8186106117f8576117f5600183615144565b95505b6118028787615144565b61180d906001614eac565b6001600160401b0381111561182457611824614ebf565b60405190808252806020026020018201604052801561187857816020015b60408051608081018252600080825260208201526060918101829052818101919091528152602001906001900390816118425790505b509250865b8681116119f9576000896001600160a01b031663a87430ba8484815181106118a7576118a7614eee565b60200260200101516040518263ffffffff1660e01b81526004016118da91906001600160a01b0391909116815260200190565b6040805180830381865afa1580156118f6573d6000803e3d6000fd5b505050506040513d601f19601f8201168201806040525081019061191a9190615328565b91505060006119448b85858151811061193557611935614eee565b60200260200101518a8a613dd6565b9050600061196d8c86868151811061195e5761195e614eee565b60200260200101518b8b612f2f565b9050604051806080016040528086868151811061198c5761198c614eee565b60200260200101516001600160a01b03168152602001846001600160a01b0316815260200183815260200182815250878c866119c89190615144565b815181106119d8576119d8614eee565b602002602001018190525050505080806119f19061516e565b91505061187d565b50505095945050505050565b60606000611a14836001614eac565b6001600160401b03811115611a2b57611a2b614ebf565b604051908082528060200260200182016040528015611a8057816020015b611a6d60405180606001604052806000815260200160008152602001606081525090565b815260200190600190039081611a495790505b50604080516003808252608082019092529193506000916060918391906020820184803683370190505090508b6001600160a01b031663ef78d4fd6040518163ffffffff1660e01b8152600401602060405180830381865afa158015611aea573d6000803e3d6000fd5b505050506040513d601f19601f82011682018060405250810190611b0e9190614ed5565b81600281518110611b2157611b21614eee565b60200260200101818152505060018a11611ed657885b888111611ed45760405163bad1265360e01b8152600481018290526001600160a01b038e169063bad1265390602401602060405180830381865afa158015611b83573d6000803e3d6000fd5b505050506040513d601f19601f82011682018060405250810190611ba79190614f04565b93506001846004811115611bbd57611bbd614f25565b03611ea757604051630122bf3160e51b8152600481018290526001600160a01b038e1690632457e62090602401600060405180830381865afa158015611c07573d6000803e3d6000fd5b505050506040513d6000823e601f3d908101601f19168201604052611c2f9190810190615021565b925060005b8351811015611ea557611c548e8386848151811061066157610661614eee565b878981518110611c6657611c66614eee565b602002602001018190525060008e6001600160a01b031663fb0d5e0984878581518110611c9557611c95614eee565b60200260200101516040518363ffffffff1660e01b8152600401611cc3929190918252602082015260400190565b600060405180830381865afa158015611ce0573d6000803e3d6000fd5b505050506040513d6000823e601f3d908101601f19168201604052611d089190810190615110565b90508d6001600160a01b03168160018351611d239190615144565b81518110611d3357611d33614eee565b6020026020010151604001516001600160a01b031603611e9257611d57898b615157565b84600081518110611d6a57611d6a614eee565b602002602001015110158015611dae575088611d878b6001614eac565b611d919190615157565b84600081518110611da457611da4614eee565b6020026020010151105b15611e4b57878981518110611dc557611dc5614eee565b60200260200101518885600181518110611de157611de1614eee565b602002602001015181518110611df957611df9614eee565b602002602001018190525083600181518110611e1757611e17614eee565b60200260200101516001611e2b9190614eac565b84600181518110611e3e57611e3e614eee565b6020026020010181815250505b83600081518110611e5e57611e5e614eee565b60200260200101516001611e729190614eac565b84600081518110611e8557611e85614eee565b6020026020010181815250505b5080611e9d8161516e565b915050611c34565b505b81600281518110611eba57611eba614eee565b602002602001015181611ecd9190614eac565b9050611b37565b505b8960021480611ee3575089155b15610d1a57885b888111610d185760405163bad1265360e01b8152600481018290526001600160a01b038e169063bad1265390602401602060405180830381865afa158015611f36573d6000803e3d6000fd5b505050506040513d601f19601f82011682018060405250810190611f5a9190614f04565b93506002846004811115611f7057611f70614f25565b1480611f8d57506004846004811115611f8b57611f8b614f25565b145b80611fa957506003846004811115611fa757611fa7614f25565b145b1561229357604051630122bf3160e51b8152600481018290526001600160a01b038e1690632457e62090602401600060405180830381865afa158015611ff3573d6000803e3d6000fd5b505050506040513d6000823e601f3d908101601f1916820160405261201b9190810190615021565b925060005b8351811015612291576120408e8386848151811061066157610661614eee565b87898151811061205257612052614eee565b602002602001018190525060008e6001600160a01b031663fb0d5e098487858151811061208157612081614eee565b60200260200101516040518363ffffffff1660e01b81526004016120af929190918252602082015260400190565b600060405180830381865afa1580156120cc573d6000803e3d6000fd5b505050506040513d6000823e601f3d908101601f191682016040526120f49190810190615110565b90508d6001600160a01b0316816001835161210f9190615144565b8151811061211f5761211f614eee565b6020026020010151604001516001600160a01b03160361227e57612143898b615157565b8460008151811061215657612156614eee565b60200260200101511015801561219a5750886121738b6001614eac565b61217d9190615157565b8460008151811061219057612190614eee565b6020026020010151105b15612237578789815181106121b1576121b1614eee565b602002602001015188856001815181106121cd576121cd614eee565b6020026020010151815181106121e5576121e5614eee565b60200260200101819052508360018151811061220357612203614eee565b602002602001015160016122179190614eac565b8460018151811061222a5761222a614eee565b6020026020010181815250505b8360008151811061224a5761224a614eee565b6020026020010151600161225e9190614eac565b8460008151811061227157612271614eee565b6020026020010181815250505b50806122898161516e565b915050612020565b505b816002815181106122a6576122a6614eee565b6020026020010151816122b99190614eac565b9050611eea565b6122c8614817565b6122d0614817565b604051632840d02f60e21b8152600481018490526001600160a01b0385169063a10340bc9060240160e060405180830381865afa158015612315573d6000803e3d6000fd5b505050506040513d601f19601f82011682018060405250810190612339919061535c565b60e088015260c087015260a086015260808501526001600160a01b0390811660608501526020840191909152908252604051630122bf3160e51b81526004810185905290851690632457e62090602401600060405180830381865afa1580156123a6573d6000803e3d6000fd5b505050506040513d6000823e601f3d908101601f191682016040526123ce9190810190615021565b60408201529392505050565b6060600080846001600160a01b031663ffde58626040518163ffffffff1660e01b8152600401602060405180830381865afa15801561241d573d6000803e3d6000fd5b505050506040513d601f19601f820116820180604052508101906124419190614ed5565b6001600160401b0381111561245857612458614ebf565b604051908082528060200260200182016040528015612481578160200160208202803683370190505b5090506000805b866001600160a01b031663ffde58626040518163ffffffff1660e01b8152600401602060405180830381865afa1580156124c6573d6000803e3d6000fd5b505050506040513d601f19601f820116820180604052508101906124ea9190614ed5565b8110156126395760405162beb8d760e61b8152600481018290526000906001600160a01b03891690632fae35c090602401602060405180830381865afa158015612538573d6000803e3d6000fd5b505050506040513d601f19601f8201168201806040525081019061255c91906153bc565b60405163543a185d60e11b81526001600160a01b0380831660048301529192506000918a169063a87430ba906024016040805180830381865afa1580156125a7573d6000803e3d6000fd5b505050506040513d601f19601f820116820180604052508101906125cb9190615328565b915050876001600160a01b0316816001600160a01b0316036126245781858561ffff16815181106125fe576125fe614eee565b6001600160a01b039092166020928302919091019091015283612620816153d9565b9450505b505080806126319061516e565b915050612488565b508061ffff166001600160401b0381111561265657612656614ebf565b60405190808252806020026020018201604052801561267f578160200160208202803683370190505b50935060005b8161ffff168110156126e7578281815181106126a3576126a3614eee565b60200260200101518582815181106126bd576126bd614eee565b6001600160a01b0390921660209283029190910190910152806126df8161516e565b915050612685565b5050509250929050565b604051630122bf3160e51b81526004810182905260009081906001600160a01b03851690632457e62090602401600060405180830381865afa15801561273b573d6000803e3d6000fd5b505050506040513d6000823e601f3d908101601f191682016040526127639190810190615021565b51949350505050565b600060608486106127e55760405162461bcd60e51b815260206004820152603860248201527f666972737455736572496e646578206d75737420626520736d616c6c6572206f60448201527f7220657175616c20746f206c61737455736572496e64657800000000000000006064820152608401610e58565b6000876001600160a01b031663ffde58626040518163ffffffff1660e01b8152600401602060405180830381865afa158015612825573d6000803e3d6000fd5b505050506040513d601f19601f820116820180604052508101906128499190614ed5565b905080871061289a5760405162461bcd60e51b815260206004820152601f60248201527f666972737455736572496e646578206973206f7574206f6620626f756e6473006044820152606401610e58565b808611156128a6578095505b6128b08787615144565b6001600160401b038111156128c7576128c7614ebf565b6040519080825280602002602001820160405280156128f0578160200160208202803683370190505b5091506000886001600160a01b031663ef78d4fd6040518163ffffffff1660e01b8152600401602060405180830381865afa158015612933573d6000803e3d6000fd5b505050506040513d601f19601f820116820180604052508101906129579190614ed5565b9050875b612966600189615144565b811015612acd5760405162beb8d760e61b8152600481018290526000906001600160a01b038c1690632fae35c090602401602060405180830381865afa1580156129b4573d6000803e3d6000fd5b505050506040513d601f19601f820116820180604052508101906129d891906153bc565b9050875b87811015612ab8576040516391a0846d60e01b81526001600160a01b038381166004830152602482018390528d16906391a0846d90604401602060405180830381865afa158015612a31573d6000803e3d6000fd5b505050506040513d601f19601f82011682018060405250810190612a559190614ed5565b868481518110612a6757612a67614eee565b60200260200101818151612a7b9190614eac565b9052508551869084908110612a9257612a92614eee565b602002602001015187612aa59190614eac565b9650612ab18482614eac565b90506129dc565b50508080612ac59061516e565b91505061295b565b5050509550959350505050565b600080612aec6402540be400846153fa565b9150612afd6402540be4008461519d565b9050915091565b6040516361eee2cb60e01b81526004810184905260009081906001600160a01b038716906361eee2cb90602401602060405180830381865afa158015612b4e573d6000803e3d6000fd5b505050506040513d601f19601f82011682018060405250810190612b729190614ed5565b6040516361eee2cb60e01b81524260048201529091506001600160a01b038716906361eee2cb90602401602060405180830381865afa158015612bb9573d6000803e3d6000fd5b505050506040513d601f19601f82011682018060405250810190612bdd9190614ed5565b811015612c2c5760405162461bcd60e51b815260206004820152601b60248201527f54484953204c4f5420495320494e20412050415354204652414d4500000000006044820152606401610e58565b600080612ca388848a6001600160a01b0316639592de188a6040518263ffffffff1660e01b8152600401612c6291815260200190565b602060405180830381865afa158015612c7f573d6000803e3d6000fd5b505050506040513d601f19601f820116820180604052508101906102049190614ed5565b6040810151805191925090612cba90600190615144565b81518110612cca57612cca614eee565b60200260200101516060015191506000886001600160a01b031663e107fb4f85856040518363ffffffff1660e01b8152600401612d11929190918252602082015260400190565b602060405180830381865afa158015612d2e573d6000803e3d6000fd5b505050506040513d601f19601f82011682018060405250810190612d529190614ed5565b60405163e107fb4f60e01b815260048101869052602481018890529091506000906001600160a01b038b169063e107fb4f90604401602060405180830381865afa158015612da4573d6000803e3d6000fd5b505050506040513d601f19601f82011682018060405250810190612dc89190614ed5565b9050808210612dda5760009550612de7565b612de48282615144565b95505b5050505050949350505050565b604080516080810182526000808252602082015260609181018290528181019190915260405163543a185d60e11b81526001600160a01b0383811660048301526000919085169063a87430ba906024016040805180830381865afa158015612e60573d6000803e3d6000fd5b505050506040513d601f19601f82011682018060405250810190612e849190615328565b6040516391bb686560e01b81526001600160a01b0386811660048301529193506000925082918716906391bb686590602401600060405180830381865afa158015612ed3573d6000803e3d6000fd5b505050506040513d6000823e601f3d908101601f19168201604052612efb9190810190615237565b604080516080810182526001600160a01b039889168152959097166020860152958401525050606081019290925250919050565b606081831115612f515760405162461bcd60e51b8152600401610e58906151b1565b6040516391bb686560e01b81526001600160a01b0385811660048301528616906391bb686590602401600060405180830381865afa158015612f97573d6000803e3d6000fd5b505050506040513d6000823e601f3d908101601f19168201604052612fbf9190810190615237565b805190925015905080612fd3575080518310155b61304f5780518210612ff05760018151612fed9190615144565b91505b825b82811161304d5781818151811061300b5761300b614eee565b60200260200101518285836130209190615144565b8151811061303057613030614eee565b6020908102919091010152806130458161516e565b915050612ff2565b505b949350505050565b6060818311156130795760405162461bcd60e51b8152600401610e58906151b1565b6000846001600160a01b031663197c4e786040518163ffffffff1660e01b8152600401602060405180830381865afa1580156130b9573d6000803e3d6000fd5b505050506040513d601f19601f820116820180604052508101906130dd9190614ed5565b9050600081116131275760405162461bcd60e51b8152602060048201526015602482015274139bc81b1bdd1cc81a5b881d1a19481b585c9ad95d605a1b6044820152606401610e58565b6000816001600160401b0381111561314157613141614ebf565b60405190808252806020026020018201604052801561316a578160200160208202803683370190505b509050856001600160a01b031663c0423f2e6040518163ffffffff1660e01b8152600401600060405180830381865afa1580156131ab573d6000803e3d6000fd5b505050506040513d6000823e601f3d908101601f191682016040526131d39190810190615021565b90508185106131f45760405162461bcd60e51b8152600401610e5890615200565b81841061320957613206600183615144565b93505b6132138585615144565b61321e906001614eac565b6001600160401b0381111561323557613235614ebf565b60405190808252806020026020018201604052801561328a57816020015b61327760405180606001604052806000815260200160008152602001606081525090565b8152602001906001900390816132535790505b509250845b84811161342c576000806132e760405180604001604052806013815260200172029a7a61d103637ba39a0b93930bcadb4ae9d1606d1b8152508585815181106132da576132da614eee565b60200260200101516147a1565b6133098484815181106132fc576132fc614eee565b6020026020010151612ada565b60408051808201909152600f81526e029a7a61d10333930b6b2a5b2bc9d1608d1b6020820152919350915061333e90836147a1565b61336d6040518060400160405280600d81526020016c029a7a61d103637ba25b2bc9d1609d1b815250826147a1565b604051636f1aefc360e01b815260048101839052602481018290526000906001600160a01b038b1690636f1aefc390604401600060405180830381865afa1580156133bc573d6000803e3d6000fd5b505050506040513d6000823e601f3d908101601f191682016040526133e4919081019061540e565b90506133f98a826000015183602001516110ee565b87858151811061340b5761340b614eee565b602002602001018190525050505080806134249061516e565b91505061328f565b5050509392505050565b60008061344384846122c0565b6040516339a6a48960e01b8152600481018590529091506000906001600160a01b038616906339a6a48990602401602060405180830381865afa15801561348e573d6000803e3d6000fd5b505050506040513d601f19601f820116820180604052508101906134b29190614ed5565b90506000856001600160a01b031663527eb4bc6040518163ffffffff1660e01b8152600401602060405180830381865afa1580156134f4573d6000803e3d6000fd5b505050506040513d601f19601f820116820180604052508101906135189190614ed5565b905060008360e00151828461352d9190615144565b6135379190615144565b979650505050505050565b6060816001600160401b0381111561355c5761355c614ebf565b604051908082528060200260200182016040528015613585578160200160208202803683370190505b5090506000613592614817565b60005b84811161342c57600081886001600160a01b031663ef78d4fd6040518163ffffffff1660e01b8152600401602060405180830381865afa1580156135dd573d6000803e3d6000fd5b505050506040513d601f19601f820116820180604052508101906136019190614ed5565b61360b9190615157565b6136159088614eac565b905061362188826122c0565b805160405163bad1265360e01b815260048101919091529093506000906001600160a01b038a169063bad1265390602401602060405180830381865afa15801561366f573d6000803e3d6000fd5b505050506040513d601f19601f820116820180604052508101906136939190614f04565b905060018160048111156136a9576136a9614f25565b14806136c6575060038160048111156136c4576136c4614f25565b145b156136f757818686815181106136de576136de614eee565b6020908102919091010152846136f38161516e565b9550505b505080806137049061516e565b915050613595565b6040516361eee2cb60e01b81526004810184905260009081906001600160a01b038716906361eee2cb90602401602060405180830381865afa158015613756573d6000803e3d6000fd5b505050506040513d601f19601f8201168201806040525081019061377a9190614ed5565b905042866001600160a01b031663ef78d4fd6040518163ffffffff1660e01b8152600401602060405180830381865afa1580156137bb573d6000803e3d6000fd5b505050506040513d601f19601f820116820180604052508101906137df9190614ed5565b6137e99083614eac565b10156138375760405162461bcd60e51b815260206004820152601d60248201527f4672616d652068617320746f20626520696e20746865206675747572650000006044820152606401610e58565b6040516312b25bc360e31b8152600481018590526000906001600160a01b03881690639592de1890602401602060405180830381865afa15801561387f573d6000803e3d6000fd5b505050506040513d601f19601f820116820180604052508101906138a39190614ed5565b60405163e107fb4f60e01b815260048101849052602481018690529091506000906001600160a01b0389169063e107fb4f90604401602060405180830381865afa1580156138f5573d6000803e3d6000fd5b505050506040513d601f19601f820116820180604052508101906139199190614ed5565b905060006139288985856110ee565b60408101518051919250839161394090600190615144565b8151811061395057613950614eee565b6020026020010151606001516139669190614eac565b9998505050505050505050565b600080856001600160a01b031663ef78d4fd6040518163ffffffff1660e01b8152600401602060405180830381865afa1580156139b4573d6000803e3d6000fd5b505050506040513d601f19601f820116820180604052508101906139d89190614ed5565b9050835b838111613a71576040516391a0846d60e01b81526001600160a01b038781166004830152602482018390528816906391a0846d90604401602060405180830381865afa158015613a30573d6000803e3d6000fd5b505050506040513d601f19601f82011682018060405250810190613a549190614ed5565b613a5e9084614eac565b9250613a6a8282614eac565b90506139dc565b5050949350505050565b600080613a8884846122c0565b60e081015190915060005b826040015151811015613dc2576000613abd87878660400151858151811061066157610661614eee565b905060005b816040015151811015613dad5781604001518181518110613ae557613ae5614eee565b60200260200101516080015186613afc9190614eac565b955081604001518181518110613b1457613b14614eee565b602002602001015160a0015186613b2b9190615144565b95506001826040015151613b3f9190615144565b8103613d9b576000886001600160a01b031663e107fb4f8985604001518581518110613b6d57613b6d614eee565b6020026020010151606001516040518363ffffffff1660e01b8152600401613b9f929190918252602082015260400190565b602060405180830381865afa158015613bbc573d6000803e3d6000fd5b505050506040513d601f19601f82011682018060405250810190613be09190614ed5565b9050613bec8188615144565b96506000896001600160a01b031663a87430ba85604001518581518110613c1557613c15614eee565b6020026020010151604001516040518263ffffffff1660e01b8152600401613c4c91906001600160a01b0391909116815260200190565b6040805180830381865afa158015613c68573d6000803e3d6000fd5b505050506040513d601f19601f82011682018060405250810190613c8c9190615328565b60405163543a185d60e11b81526001600160a01b03808316600483015291935060009250908c169063a87430ba906024016040805180830381865afa158015613cd9573d6000803e3d6000fd5b505050506040513d601f19601f82011682018060405250810190613cfd9190615328565b5090508015613d975760008b6001600160a01b0316639e9c4f086040518163ffffffff1660e01b8152600401602060405180830381865afa158015613d46573d6000803e3d6000fd5b505050506040513d601f19601f82011682018060405250810190613d6a9190614ed5565b9050670de0b6b3a7640000613d7f8286615157565b613d89919061519d565b613d939089614eac565b9750505b5050505b80613da58161516e565b915050613ac2565b50508080613dba9061516e565b915050613a93565b50613dcd8184615144565b95945050505050565b606081831115613df85760405162461bcd60e51b8152600401610e58906151b1565b6040516391bb686560e01b81526001600160a01b0385811660048301528616906391bb686590602401600060405180830381865afa158015613e3e573d6000803e3d6000fd5b505050506040513d6000823e601f3d908101601f19168201604052613e669190810190615237565b5080519091501580613e79575080518310155b61304f5780518210613e965760018151613e939190615144565b91505b825b82811161304d57818181518110613eb157613eb1614eee565b6020026020010151828281518110613ecb57613ecb614eee565b602090810291909101015280613ee08161516e565b915050613e98565b60606000826001600160401b03811115613f0457613f04614ebf565b604051908082528060200260200182016040528015613f3d57816020015b613f2a614817565b815260200190600190039081613f225790505b5060408051600480825260a08201909252919350600091829160208201608080368337019050509050896001600160a01b031663ef78d4fd6040518163ffffffff1660e01b8152600401602060405180830381865afa158015613fa4573d6000803e3d6000fd5b505050506040513d601f19601f82011682018060405250810190613fc89190614ed5565b81600281518110613fdb57613fdb614eee565b60209081029190910101526060885b88811161438a5760405163bad1265360e01b8152600481018290526001600160a01b038d169063bad1265390602401602060405180830381865afa158015614036573d6000803e3d6000fd5b505050506040513d601f19601f8201168201806040525081019061405a9190614f04565b9350600084600481111561407057614070614f25565b1461435d57604051630122bf3160e51b8152600481018290526001600160a01b038d1690632457e62090602401600060405180830381865afa1580156140ba573d6000803e3d6000fd5b505050506040513d6000823e601f3d908101601f191682016040526140e29190810190615021565b915060005b825181101561435b5760008d6001600160a01b031663fb0d5e098486858151811061411457614114614eee565b60200260200101516040518363ffffffff1660e01b8152600401614142929190918252602082015260400190565b600060405180830381865afa15801561415f573d6000803e3d6000fd5b505050506040513d6000823e601f3d908101601f191682016040526141879190810190615110565b90508c6001600160a01b031681600183516141a29190615144565b815181106141b2576141b2614eee565b6020026020010151604001516001600160a01b03161480156141ee575082856003815181106141e3576141e3614eee565b602002602001015114155b15614348576141fd898b615157565b8560008151811061421057614210614eee565b60200260200101511015801561425457508861422d8b6001614eac565b6142379190615157565b8560008151811061424a5761424a614eee565b6020026020010151105b156142e1576142638e846122c0565b888660018151811061427757614277614eee565b60200260200101518151811061428f5761428f614eee565b6020026020010181905250846001815181106142ad576142ad614eee565b602002602001015160016142c19190614eac565b856001815181106142d4576142d4614eee565b6020026020010181815250505b846000815181106142f4576142f4614eee565b602002602001015160016143089190614eac565b8560008151811061431b5761431b614eee565b602002602001018181525050828560038151811061433b5761433b614eee565b6020026020010181815250505b50806143538161516e565b9150506140e7565b505b8260028151811061437057614370614eee565b6020026020010151816143839190614eac565b9050613fea565b5085614397886001614eac565b6143a19190615157565b826000815181106143b4576143b4614eee565b602002602001015111156143fa578686836000815181106143d7576143d7614eee565b60200260200101516143e9919061519d565b6143f39190615144565b93506143ff565b600093505b505050965096945050505050565b60606000848611156144875760405162461bcd60e51b815260206004820152603760248201527f6672616d654b65795f7374617274206d75737420626520736d616c6c6572206f60448201527f7220657175616c20746f206672616d654b65795f656e640000000000000000006064820152608401610e58565b826001600160401b0381111561449f5761449f614ebf565b6040519080825280602002602001820160405280156144f457816020015b6144e160405180606001604052806000815260200160008152602001606081525090565b8152602001906001900390816144bd5790505b5060408051600380825260808201909252919350606091600091602082018480368337019050509050886001600160a01b031663ef78d4fd6040518163ffffffff1660e01b8152600401602060405180830381865afa15801561455b573d6000803e3d6000fd5b505050506040513d601f19601f8201168201806040525081019061457f9190614ed5565b8160028151811061459257614592614eee565b6020908102919091010152875b8781116115b057604051630122bf3160e51b8152600481018290526001600160a01b038b1690632457e62090602401600060405180830381865afa1580156145eb573d6000803e3d6000fd5b505050506040513d6000823e601f3d908101601f191682016040526146139190810190615021565b925060005b83518110156147735761462b8789615157565b8360008151811061463e5761463e614eee565b60200260200101511015801561468257508661465b896001614eac565b6146659190615157565b8360008151811061467857614678614eee565b6020026020010151105b1561471c5761469e8b8386848151811061066157610661614eee565b86846001815181106146b2576146b2614eee565b6020026020010151815181106146ca576146ca614eee565b6020026020010181905250826001815181106146e8576146e8614eee565b602002602001015160016146fc9190614eac565b8360018151811061470f5761470f614eee565b6020026020010181815250505b8260008151811061472f5761472f614eee565b602002602001015160016147439190614eac565b8360008151811061475657614756614eee565b60209081029190910101528061476b8161516e565b915050614618565b508160028151811061478757614787614eee565b60200260200101518161479a9190614eac565b905061459f565b6147e682826040516024016147b79291906154a6565b60408051601f198184030181529190526020810180516001600160e01b0316632d839cb360e21b1790526147ea565b5050565b6147f3816147f6565b50565b60006a636f6e736f6c652e6c6f679050600080835160208501845afa505050565b60405180610100016040528060008152602001600081526020016060815260200160006001600160a01b03168152602001600081526020016000815260200160008152602001600081525090565b6040518060c00160405280600081526020016000815260200160006001600160a01b031681526020016000815260200160008152602001600081525090565b6001600160a01b03811681146147f357600080fd5b600080600080600080600060e0888a0312156148d457600080fd5b87356148df816148a4565b965060208801356148ef816148a4565b96999698505050506040850135946060810135946080820135945060a0820135935060c0909101359150565b600060608084018351855260208085015181870152604080860151848289015283815180865260809550858a019150848301925060005b818110156149a5578351805184528681015187850152858101516001600160a01b0316868501528881015189850152878101518885015260a090810151908401529285019260c090920191600101614952565b50909998505050505050505050565b600081518084526020808501808196508360051b8101915082860160005b858110156149fc5782840389526149ea84835161491b565b988501989350908401906001016149d2565b5091979650505050505050565b604081526000614a1c60408301856149b4565b90508260208301529392505050565b600080600060608486031215614a4057600080fd5b8335614a4b816148a4565b95602085013595506040909401359392505050565b600081518084526020808501945080840160005b83811015614a9057815187529582019590820190600101614a74565b509495945050505050565b600061010082518452602083015160208501526040830151816040860152614ac582860182614a60565b91505060018060a01b0360608401511660608501526080830151608085015260a083015160a085015260c083015160c085015260e083015160e08501528091505092915050565b600081518084526020808501808196508360051b8101915082860160005b858110156149fc578284038952614b42848351614a9b565b98850198935090840190600101614b2a565b602081526000610e2f6020830184614b0c565b60008060408385031215614b7a57600080fd5b8235614b85816148a4565b91506020830135614b95816148a4565b809150509250929050565b602081526000610e2f602083018461491b565b600080600080600060a08688031215614bcb57600080fd5b8535614bd6816148a4565b97602087013597506040870135966060810135965060800135945092505050565b604081526000614a1c6040830185614b0c565b600060018060a01b0380835116845280602084015116602085015250604082015160806040850152614c3f6080850182614a60565b905060608301518482036060860152613dcd8282614a60565b6000602080830181845280855180835260408601915060408160051b870101925083870160005b82811015614cad57603f19888603018452614c9b858351614c0a565b94509285019290850190600101614c7f565b5092979650505050505050565b60008060408385031215614ccd57600080fd5b8235614cd8816148a4565b946020939093013593505050565b602081526000610e2f6020830184614a9b565b604080825283519082018190526000906020906060840190828701845b82811015614d3b5781516001600160a01b031684529284019290840190600101614d16565b50505061ffff9490941692019190915250919050565b82815260406020820152600061304f6040830184614a60565b600060208284031215614d7c57600080fd5b5035919050565b60008060008060808587031215614d9957600080fd5b8435614da4816148a4565b966020860135965060408601359560600135945092505050565b602081526000610e2f6020830184614c0a565b60008060008060808587031215614de757600080fd5b8435614df2816148a4565b93506020850135614e02816148a4565b93969395505050506040820135916060013590565b602081526000610e2f6020830184614a60565b602081526000610e2f60208301846149b4565b60008060008060008060c08789031215614e5657600080fd5b8635614e61816148a4565b95506020870135614e71816148a4565b95989597505050506040840135936060810135936080820135935060a0909101359150565b634e487b7160e01b600052601160045260246000fd5b808201808211156110e8576110e8614e96565b634e487b7160e01b600052604160045260246000fd5b600060208284031215614ee757600080fd5b5051919050565b634e487b7160e01b600052603260045260246000fd5b600060208284031215614f1657600080fd5b815160058110610e2f57600080fd5b634e487b7160e01b600052602160045260246000fd5b60405160c081016001600160401b0381118282101715614f5d57614f5d614ebf565b60405290565b604051601f8201601f191681016001600160401b0381118282101715614f8b57614f8b614ebf565b604052919050565b60006001600160401b03821115614fac57614fac614ebf565b5060051b60200190565b600082601f830112614fc757600080fd5b81516020614fdc614fd783614f93565b614f63565b82815260059290921b84018101918181019086841115614ffb57600080fd5b8286015b848110156150165780518352918301918301614fff565b509695505050505050565b60006020828403121561503357600080fd5b81516001600160401b0381111561504957600080fd5b61304f84828501614fb6565b600082601f83011261506657600080fd5b81516020615076614fd783614f93565b82815260c0928302850182019282820191908785111561509557600080fd5b8387015b858110156151035781818a0312156150b15760008081fd5b6150b9614f3b565b8151815285820151868201526040808301516150d4816148a4565b90820152606082810151908201526080808301519082015260a080830151908201528452928401928101615099565b5090979650505050505050565b60006020828403121561512257600080fd5b81516001600160401b0381111561513857600080fd5b61304f84828501615055565b818103818111156110e8576110e8614e96565b80820281158282048414176110e8576110e8614e96565b60006001820161518057615180614e96565b5060010190565b634e487b7160e01b600052601260045260246000fd5b6000826151ac576151ac615187565b500490565b6020808252602f908201527f7374617274496e646578206d75737420626520736d616c6c6572206f7220657160408201526e0eac2d840e8de40cadcc892dcc8caf608b1b606082015260800190565b6020808252601b908201527f7374617274496e646578206973206f7574206f6620626f756e64730000000000604082015260600190565b6000806040838503121561524a57600080fd5b82516001600160401b038082111561526157600080fd5b61526d86838701614fb6565b9350602085015191508082111561528357600080fd5b5061529085828601614fb6565b9150509250929050565b600060208083850312156152ad57600080fd5b82516001600160401b038111156152c357600080fd5b8301601f810185136152d457600080fd5b80516152e2614fd782614f93565b81815260059190911b8201830190838101908783111561530157600080fd5b928401925b82841015613537578351615319816148a4565b82529284019290840190615306565b6000806040838503121561533b57600080fd5b8251801515811461534b57600080fd5b6020840151909250614b95816148a4565b600080600080600080600060e0888a03121561537757600080fd5b87519650602088015195506040880151615390816148a4565b80955050606088015193506080880151925060a0880151915060c0880151905092959891949750929550565b6000602082840312156153ce57600080fd5b8151610e2f816148a4565b600061ffff8083168181036153f0576153f0614e96565b6001019392505050565b60008261540957615409615187565b500690565b60006020828403121561542057600080fd5b81516001600160401b038082111561543757600080fd5b908301906060828603121561544b57600080fd5b60405160608101818110838211171561546657615466614ebf565b8060405250825181526020830151602082015260408301518281111561548b57600080fd5b61549787828601615055565b60408301525095945050505050565b604081526000835180604084015260005b818110156154d457602081870181015160608684010152016154b7565b506000606082850101526060601f19601f830116840101915050826020830152939250505056fea26469706673582212204fc7884736d810ec74c46a51f40f9bb6110e8ec06ce88d99fbf6319054765add64736f6c63430008140033",
  "linkReferences": {},
  "deployedLinkReferences": {}
}