{
  "_format": "hh-sol-artifact-1",
  "contractName": "MarketGetter",
  "sourceName": "contracts/MarketGetter.sol",
  "abi": [
    {
      "inputs": [
        {
          "internalType": "contract Market",
          "name": "market",
          "type": "address"
        },
        {
          "internalType": "uint256",
          "name": "timestamp",
          "type": "uint256"
        },
        {
          "internalType": "uint256",
          "name": "pairPrice",
          "type": "uint256"
        },
        {
          "internalType": "uint256",
          "name": "acqPrice",
          "type": "uint256"
        }
      ],
      "name": "clcAmountToApprove",
      "outputs": [
        {
          "internalType": "uint256",
          "name": "approvalAmnt",
          "type": "uint256"
        }
      ],
      "stateMutability": "view",
      "type": "function"
    },
    {
      "inputs": [
        {
          "internalType": "contract Market",
          "name": "market",
          "type": "address"
        },
        {
          "internalType": "uint256",
          "name": "timestamp",
          "type": "uint256"
        },
        {
          "internalType": "uint256",
          "name": "pairPrice",
          "type": "uint256"
        },
        {
          "internalType": "uint256",
          "name": "acqPrice",
          "type": "uint256"
        }
      ],
      "name": "clcAmountToApproveForUpdate",
      "outputs": [
        {
          "internalType": "uint256",
          "name": "amnt",
          "type": "uint256"
        }
      ],
      "stateMutability": "view",
      "type": "function"
    },
    {
      "inputs": [
        {
          "internalType": "contract Market",
          "name": "market",
          "type": "address"
        },
        {
          "internalType": "uint256",
          "name": "frameKey",
          "type": "uint256"
        }
      ],
      "name": "getFrameStruct",
      "outputs": [
        {
          "components": [
            {
              "internalType": "uint256",
              "name": "frameKey",
              "type": "uint256"
            },
            {
              "internalType": "uint256",
              "name": "rate",
              "type": "uint256"
            },
            {
              "internalType": "uint256[]",
              "name": "lotKeys",
              "type": "uint256[]"
            },
            {
              "internalType": "address",
              "name": "claimedBy",
              "type": "address"
            },
            {
              "internalType": "uint256",
              "name": "rateSettle",
              "type": "uint256"
            },
            {
              "internalType": "uint256",
              "name": "feeSettle",
              "type": "uint256"
            },
            {
              "internalType": "uint256",
              "name": "rewardSettle",
              "type": "uint256"
            },
            {
              "internalType": "uint256",
              "name": "feeReferral",
              "type": "uint256"
            }
          ],
          "internalType": "struct Market.Frame",
          "name": "",
          "type": "tuple"
        }
      ],
      "stateMutability": "view",
      "type": "function"
    },
    {
      "inputs": [
        {
          "internalType": "contract Market",
          "name": "market",
          "type": "address"
        },
        {
          "internalType": "uint256",
          "name": "frameKey_start",
          "type": "uint256"
        },
        {
          "internalType": "uint256",
          "name": "frameKey_end",
          "type": "uint256"
        },
        {
          "internalType": "uint256",
          "name": "page",
          "type": "uint256"
        },
        {
          "internalType": "uint256",
          "name": "perPage",
          "type": "uint256"
        }
      ],
      "name": "getFrames",
      "outputs": [
        {
          "components": [
            {
              "internalType": "uint256",
              "name": "frameKey",
              "type": "uint256"
            },
            {
              "internalType": "uint256",
              "name": "rate",
              "type": "uint256"
            },
            {
              "internalType": "uint256[]",
              "name": "lotKeys",
              "type": "uint256[]"
            },
            {
              "internalType": "address",
              "name": "claimedBy",
              "type": "address"
            },
            {
              "internalType": "uint256",
              "name": "rateSettle",
              "type": "uint256"
            },
            {
              "internalType": "uint256",
              "name": "feeSettle",
              "type": "uint256"
            },
            {
              "internalType": "uint256",
              "name": "rewardSettle",
              "type": "uint256"
            },
            {
              "internalType": "uint256",
              "name": "feeReferral",
              "type": "uint256"
            }
          ],
          "internalType": "struct Market.Frame[]",
          "name": "frames",
          "type": "tuple[]"
        },
        {
          "internalType": "uint256",
          "name": "pagesLeft",
          "type": "uint256"
        }
      ],
      "stateMutability": "view",
      "type": "function"
    },
    {
      "inputs": [
        {
          "internalType": "contract Market",
          "name": "market",
          "type": "address"
        },
        {
          "internalType": "uint256",
          "name": "startIndex",
          "type": "uint256"
        },
        {
          "internalType": "uint256",
          "name": "endIndex",
          "type": "uint256"
        }
      ],
      "name": "getFramesByIndex",
      "outputs": [
        {
          "components": [
            {
              "internalType": "uint256",
              "name": "frameKey",
              "type": "uint256"
            },
            {
              "internalType": "uint256",
              "name": "rate",
              "type": "uint256"
            },
            {
              "internalType": "uint256[]",
              "name": "lotKeys",
              "type": "uint256[]"
            },
            {
              "internalType": "address",
              "name": "claimedBy",
              "type": "address"
            },
            {
              "internalType": "uint256",
              "name": "rateSettle",
              "type": "uint256"
            },
            {
              "internalType": "uint256",
              "name": "feeSettle",
              "type": "uint256"
            },
            {
              "internalType": "uint256",
              "name": "rewardSettle",
              "type": "uint256"
            },
            {
              "internalType": "uint256",
              "name": "feeReferral",
              "type": "uint256"
            }
          ],
          "internalType": "struct Market.Frame[]",
          "name": "frames",
          "type": "tuple[]"
        }
      ],
      "stateMutability": "view",
      "type": "function"
    },
    {
      "inputs": [
        {
          "internalType": "contract Market",
          "name": "market",
          "type": "address"
        },
        {
          "internalType": "address",
          "name": "user",
          "type": "address"
        },
        {
          "internalType": "uint256",
          "name": "frameKey_start",
          "type": "uint256"
        },
        {
          "internalType": "uint256",
          "name": "frameKey_end",
          "type": "uint256"
        },
        {
          "internalType": "uint256",
          "name": "page",
          "type": "uint256"
        },
        {
          "internalType": "uint256",
          "name": "perPage",
          "type": "uint256"
        }
      ],
      "name": "getFramesUser",
      "outputs": [
        {
          "components": [
            {
              "internalType": "uint256",
              "name": "frameKey",
              "type": "uint256"
            },
            {
              "internalType": "uint256",
              "name": "rate",
              "type": "uint256"
            },
            {
              "internalType": "uint256[]",
              "name": "lotKeys",
              "type": "uint256[]"
            },
            {
              "internalType": "address",
              "name": "claimedBy",
              "type": "address"
            },
            {
              "internalType": "uint256",
              "name": "rateSettle",
              "type": "uint256"
            },
            {
              "internalType": "uint256",
              "name": "feeSettle",
              "type": "uint256"
            },
            {
              "internalType": "uint256",
              "name": "rewardSettle",
              "type": "uint256"
            },
            {
              "internalType": "uint256",
              "name": "feeReferral",
              "type": "uint256"
            }
          ],
          "internalType": "struct Market.Frame[]",
          "name": "userFrames",
          "type": "tuple[]"
        },
        {
          "internalType": "uint256",
          "name": "pagesLeft",
          "type": "uint256"
        }
      ],
      "stateMutability": "view",
      "type": "function"
    },
    {
      "inputs": [
        {
          "internalType": "contract Market",
          "name": "market",
          "type": "address"
        },
        {
          "internalType": "uint256",
          "name": "frameKey",
          "type": "uint256"
        },
        {
          "internalType": "uint256",
          "name": "index",
          "type": "uint256"
        }
      ],
      "name": "getLotKey",
      "outputs": [
        {
          "internalType": "uint256",
          "name": "",
          "type": "uint256"
        }
      ],
      "stateMutability": "view",
      "type": "function"
    },
    {
      "inputs": [
        {
          "internalType": "contract Market",
          "name": "market",
          "type": "address"
        },
        {
          "internalType": "uint256",
          "name": "frameKey",
          "type": "uint256"
        },
        {
          "internalType": "uint256",
          "name": "lotKey",
          "type": "uint256"
        }
      ],
      "name": "getLotStruct",
      "outputs": [
        {
          "components": [
            {
              "internalType": "uint256",
              "name": "frameKey",
              "type": "uint256"
            },
            {
              "internalType": "uint256",
              "name": "lotKey",
              "type": "uint256"
            },
            {
              "components": [
                {
                  "internalType": "uint256",
                  "name": "blockNumber",
                  "type": "uint256"
                },
                {
                  "internalType": "uint256",
                  "name": "blockTimestamp",
                  "type": "uint256"
                },
                {
                  "internalType": "address",
                  "name": "owner",
                  "type": "address"
                },
                {
                  "internalType": "uint256",
                  "name": "acquisitionPrice",
                  "type": "uint256"
                },
                {
                  "internalType": "uint256",
                  "name": "taxCharged",
                  "type": "uint256"
                },
                {
                  "internalType": "uint256",
                  "name": "taxRefunded",
                  "type": "uint256"
                }
              ],
              "internalType": "struct Market.LotState[]",
              "name": "states",
              "type": "tuple[]"
            }
          ],
          "internalType": "struct Market.Lot",
          "name": "",
          "type": "tuple"
        }
      ],
      "stateMutability": "view",
      "type": "function"
    },
    {
      "inputs": [
        {
          "internalType": "contract Market",
          "name": "market",
          "type": "address"
        },
        {
          "internalType": "uint256",
          "name": "frameKey_start",
          "type": "uint256"
        },
        {
          "internalType": "uint256",
          "name": "frameKey_end",
          "type": "uint256"
        },
        {
          "internalType": "uint256",
          "name": "page",
          "type": "uint256"
        },
        {
          "internalType": "uint256",
          "name": "perPage",
          "type": "uint256"
        }
      ],
      "name": "getLots",
      "outputs": [
        {
          "components": [
            {
              "internalType": "uint256",
              "name": "frameKey",
              "type": "uint256"
            },
            {
              "internalType": "uint256",
              "name": "lotKey",
              "type": "uint256"
            },
            {
              "components": [
                {
                  "internalType": "uint256",
                  "name": "blockNumber",
                  "type": "uint256"
                },
                {
                  "internalType": "uint256",
                  "name": "blockTimestamp",
                  "type": "uint256"
                },
                {
                  "internalType": "address",
                  "name": "owner",
                  "type": "address"
                },
                {
                  "internalType": "uint256",
                  "name": "acquisitionPrice",
                  "type": "uint256"
                },
                {
                  "internalType": "uint256",
                  "name": "taxCharged",
                  "type": "uint256"
                },
                {
                  "internalType": "uint256",
                  "name": "taxRefunded",
                  "type": "uint256"
                }
              ],
              "internalType": "struct Market.LotState[]",
              "name": "states",
              "type": "tuple[]"
            }
          ],
          "internalType": "struct Market.Lot[]",
          "name": "lots",
          "type": "tuple[]"
        },
        {
          "internalType": "uint256",
          "name": "pagesLeft",
          "type": "uint256"
        }
      ],
      "stateMutability": "view",
      "type": "function"
    },
    {
      "inputs": [
        {
          "internalType": "contract Market",
          "name": "market",
          "type": "address"
        },
        {
          "internalType": "uint256",
          "name": "startIndex",
          "type": "uint256"
        },
        {
          "internalType": "uint256",
          "name": "endIndex",
          "type": "uint256"
        }
      ],
      "name": "getLotsByIndex",
      "outputs": [
        {
          "components": [
            {
              "internalType": "uint256",
              "name": "frameKey",
              "type": "uint256"
            },
            {
              "internalType": "uint256",
              "name": "lotKey",
              "type": "uint256"
            },
            {
              "components": [
                {
                  "internalType": "uint256",
                  "name": "blockNumber",
                  "type": "uint256"
                },
                {
                  "internalType": "uint256",
                  "name": "blockTimestamp",
                  "type": "uint256"
                },
                {
                  "internalType": "address",
                  "name": "owner",
                  "type": "address"
                },
                {
                  "internalType": "uint256",
                  "name": "acquisitionPrice",
                  "type": "uint256"
                },
                {
                  "internalType": "uint256",
                  "name": "taxCharged",
                  "type": "uint256"
                },
                {
                  "internalType": "uint256",
                  "name": "taxRefunded",
                  "type": "uint256"
                }
              ],
              "internalType": "struct Market.LotState[]",
              "name": "states",
              "type": "tuple[]"
            }
          ],
          "internalType": "struct Market.Lot[]",
          "name": "lots",
          "type": "tuple[]"
        }
      ],
      "stateMutability": "view",
      "type": "function"
    },
    {
      "inputs": [
        {
          "internalType": "contract Market",
          "name": "market",
          "type": "address"
        },
        {
          "internalType": "uint256",
          "name": "frameKey",
          "type": "uint256"
        }
      ],
      "name": "getLotsCount",
      "outputs": [
        {
          "internalType": "uint256",
          "name": "",
          "type": "uint256"
        }
      ],
      "stateMutability": "view",
      "type": "function"
    },
    {
      "inputs": [
        {
          "internalType": "contract Market",
          "name": "market",
          "type": "address"
        },
        {
          "internalType": "address",
          "name": "user",
          "type": "address"
        },
        {
          "internalType": "uint256",
          "name": "mode",
          "type": "uint256"
        },
        {
          "internalType": "uint256",
          "name": "frameKey_start",
          "type": "uint256"
        },
        {
          "internalType": "uint256",
          "name": "frameKey_end",
          "type": "uint256"
        },
        {
          "internalType": "uint256",
          "name": "page",
          "type": "uint256"
        },
        {
          "internalType": "uint256",
          "name": "perPage",
          "type": "uint256"
        }
      ],
      "name": "getLotsSoldUser",
      "outputs": [
        {
          "components": [
            {
              "internalType": "uint256",
              "name": "frameKey",
              "type": "uint256"
            },
            {
              "internalType": "uint256",
              "name": "lotKey",
              "type": "uint256"
            },
            {
              "components": [
                {
                  "internalType": "uint256",
                  "name": "blockNumber",
                  "type": "uint256"
                },
                {
                  "internalType": "uint256",
                  "name": "blockTimestamp",
                  "type": "uint256"
                },
                {
                  "internalType": "address",
                  "name": "owner",
                  "type": "address"
                },
                {
                  "internalType": "uint256",
                  "name": "acquisitionPrice",
                  "type": "uint256"
                },
                {
                  "internalType": "uint256",
                  "name": "taxCharged",
                  "type": "uint256"
                },
                {
                  "internalType": "uint256",
                  "name": "taxRefunded",
                  "type": "uint256"
                }
              ],
              "internalType": "struct Market.LotState[]",
              "name": "states",
              "type": "tuple[]"
            }
          ],
          "internalType": "struct Market.Lot[]",
          "name": "userLots",
          "type": "tuple[]"
        },
        {
          "internalType": "uint256",
          "name": "pagesLeft",
          "type": "uint256"
        }
      ],
      "stateMutability": "view",
      "type": "function"
    },
    {
      "inputs": [
        {
          "internalType": "contract Market",
          "name": "market",
          "type": "address"
        },
        {
          "internalType": "address",
          "name": "user",
          "type": "address"
        },
        {
          "internalType": "uint256",
          "name": "mode",
          "type": "uint256"
        },
        {
          "internalType": "uint256",
          "name": "frameKey_start",
          "type": "uint256"
        },
        {
          "internalType": "uint256",
          "name": "frameKey_end",
          "type": "uint256"
        },
        {
          "internalType": "uint256",
          "name": "page",
          "type": "uint256"
        },
        {
          "internalType": "uint256",
          "name": "perPage",
          "type": "uint256"
        }
      ],
      "name": "getLotsUser",
      "outputs": [
        {
          "components": [
            {
              "internalType": "uint256",
              "name": "frameKey",
              "type": "uint256"
            },
            {
              "internalType": "uint256",
              "name": "lotKey",
              "type": "uint256"
            },
            {
              "components": [
                {
                  "internalType": "uint256",
                  "name": "blockNumber",
                  "type": "uint256"
                },
                {
                  "internalType": "uint256",
                  "name": "blockTimestamp",
                  "type": "uint256"
                },
                {
                  "internalType": "address",
                  "name": "owner",
                  "type": "address"
                },
                {
                  "internalType": "uint256",
                  "name": "acquisitionPrice",
                  "type": "uint256"
                },
                {
                  "internalType": "uint256",
                  "name": "taxCharged",
                  "type": "uint256"
                },
                {
                  "internalType": "uint256",
                  "name": "taxRefunded",
                  "type": "uint256"
                }
              ],
              "internalType": "struct Market.LotState[]",
              "name": "states",
              "type": "tuple[]"
            }
          ],
          "internalType": "struct Market.Lot[]",
          "name": "userLots",
          "type": "tuple[]"
        },
        {
          "internalType": "uint256",
          "name": "pagesLeft",
          "type": "uint256"
        }
      ],
      "stateMutability": "view",
      "type": "function"
    },
    {
      "inputs": [
        {
          "internalType": "contract Market",
          "name": "market",
          "type": "address"
        },
        {
          "internalType": "uint256",
          "name": "firstUserIndex",
          "type": "uint256"
        },
        {
          "internalType": "uint256",
          "name": "lastUserIndex",
          "type": "uint256"
        },
        {
          "internalType": "uint256",
          "name": "frameKeyStart",
          "type": "uint256"
        },
        {
          "internalType": "uint256",
          "name": "frameKeyEnd",
          "type": "uint256"
        }
      ],
      "name": "getMultipleUsersRewards",
      "outputs": [
        {
          "internalType": "uint256",
          "name": "comulativeReward",
          "type": "uint256"
        },
        {
          "internalType": "uint256[]",
          "name": "rewards",
          "type": "uint256[]"
        }
      ],
      "stateMutability": "view",
      "type": "function"
    },
    {
      "inputs": [
        {
          "internalType": "contract Market",
          "name": "market",
          "type": "address"
        },
        {
          "internalType": "uint256",
          "name": "startFrame",
          "type": "uint256"
        },
        {
          "internalType": "uint256",
          "name": "numOfFrames",
          "type": "uint256"
        }
      ],
      "name": "getOpenFrameKeys",
      "outputs": [
        {
          "internalType": "uint256[]",
          "name": "openFrames",
          "type": "uint256[]"
        }
      ],
      "stateMutability": "view",
      "type": "function"
    },
    {
      "inputs": [
        {
          "internalType": "contract Market",
          "name": "market",
          "type": "address"
        },
        {
          "internalType": "uint256",
          "name": "frameKey",
          "type": "uint256"
        }
      ],
      "name": "getRewardAmount",
      "outputs": [
        {
          "internalType": "uint256",
          "name": "",
          "type": "uint256"
        }
      ],
      "stateMutability": "view",
      "type": "function"
    },
    {
      "inputs": [
        {
          "internalType": "contract Market",
          "name": "market",
          "type": "address"
        },
        {
          "internalType": "uint256",
          "name": "frameKey",
          "type": "uint256"
        }
      ],
      "name": "getRewardAmountMin",
      "outputs": [
        {
          "internalType": "uint256",
          "name": "rewardFund",
          "type": "uint256"
        }
      ],
      "stateMutability": "view",
      "type": "function"
    },
    {
      "inputs": [
        {
          "internalType": "contract Market",
          "name": "market",
          "type": "address"
        },
        {
          "internalType": "address",
          "name": "user",
          "type": "address"
        },
        {
          "internalType": "uint256",
          "name": "frameKeyStart",
          "type": "uint256"
        },
        {
          "internalType": "uint256",
          "name": "frameKeyEnd",
          "type": "uint256"
        }
      ],
      "name": "getUserRewards",
      "outputs": [
        {
          "internalType": "uint256",
          "name": "reward",
          "type": "uint256"
        }
      ],
      "stateMutability": "view",
      "type": "function"
    },
    {
      "inputs": [
        {
          "internalType": "contract Market",
          "name": "market",
          "type": "address"
        },
        {
          "internalType": "address",
          "name": "user",
          "type": "address"
        }
      ],
      "name": "getUsersReferrals",
      "outputs": [
        {
          "internalType": "address[]",
          "name": "referrals",
          "type": "address[]"
        },
        {
          "internalType": "uint16",
          "name": "length",
          "type": "uint16"
        }
      ],
      "stateMutability": "view",
      "type": "function"
    }
  ],
  "bytecode": "0x608060405234801561001057600080fd5b50614bd2806100206000396000f3fe608060405234801561001057600080fd5b50600436106101215760003560e01c806398820b22116100ad578063de73259511610071578063de732595146102c0578063e32ed3cc146102d3578063f2580f26146102e6578063f6eb9ee7146102f9578063f91cbebe1461030c57600080fd5b806398820b2214610239578063c1d013951461025a578063d00d7b191461026d578063da4e85561461028d578063dbd20a88146102a057600080fd5b8063612d8b50116100f4578063612d8b50146101b157806371b08d89146101d25780637f424a37146101e55780638522bc38146102055780639291178e1461022657600080fd5b8063281e8068146101265780632c79854f146101505780633191b50e146101715780634314b84f14610191575b600080fd5b6101396101343660046140a0565b61031f565b6040516101479291906141f0565b60405180910390f35b61016361015e366004614212565b610caa565b604051908152602001610147565b61018461017f366004614212565b610d43565b604051610147919061433b565b6101a461019f366004614212565b610fab565b604051610147919061434e565b6101c46101bf366004614361565b6111e4565b6040516101479291906143a5565b6101396101e03660046140a0565b61155a565b6101f86101f33660046143b8565b611e15565b60405161014791906143e4565b6102186102133660046143f7565b611f31565b604051610147929190614430565b6101636102343660046143b8565b612248565b61024c610247366004614361565b6122c3565b604051610147929190614488565b6101636102683660046144a9565b612785565b61028061027b366004614212565b612a75565b60405161014791906144e4565b61016361029b3660046143b8565b612ca2565b6102b36102ae366004614212565b612dae565b60405161014791906144f7565b6101636102ce3660046144a9565b612f82565b6101636102e136600461450a565b6131e9565b6101636102f43660046143b8565b6132f1565b6101c4610307366004614550565b61364c565b61013961031a366004614361565b613b71565b6060600061032e8360016145bf565b6001600160401b03811115610345576103456145d2565b60405190808252806020026020018201604052801561039a57816020015b61038760405180606001604052806000815260200160008152602001606081525090565b8152602001906001900390816103635790505b50604080516003808252608082019092529193506000916060918391906020820184803683370190505090508b6001600160a01b031663ef78d4fd6040518163ffffffff1660e01b8152600401602060405180830381865afa158015610404573d6000803e3d6000fd5b505050506040513d601f19601f8201168201806040525081019061042891906145e8565b8160028151811061043b5761043b614601565b60200260200101818152505060018a1161081c57885b88811161081a5760405163bad1265360e01b8152600481018290526001600160a01b038e169063bad1265390602401602060405180830381865afa15801561049d573d6000803e3d6000fd5b505050506040513d601f19601f820116820180604052508101906104c19190614617565b935060018460048111156104d7576104d7614638565b036107ed57604051630122bf3160e51b8152600481018290526001600160a01b038e1690632457e62090602401600060405180830381865afa158015610521573d6000803e3d6000fd5b505050506040513d6000823e601f3d908101601f1916820160405261054991908101906146eb565b925060005b83518110156107eb5761057b8e8386848151811061056e5761056e614601565b6020026020010151610fab565b87898151811061058d5761058d614601565b602002602001018190525060008e6001600160a01b031663fb0d5e09848785815181106105bc576105bc614601565b60200260200101516040518363ffffffff1660e01b81526004016105ea929190918252602082015260400190565b600060405180830381865afa158015610607573d6000803e3d6000fd5b505050506040513d6000823e601f3d908101601f1916820160405261062f9190810190614830565b905060005b600182516106429190614864565b8110156107d6578e6001600160a01b031682828151811061066557610665614601565b6020026020010151604001516001600160a01b0316036107c4576106898a8c614877565b8560008151811061069c5761069c614601565b6020026020010151101580156106e05750896106b98c60016145bf565b6106c39190614877565b856000815181106106d6576106d6614601565b6020026020010151105b1561077d57888a815181106106f7576106f7614601565b6020026020010151898660018151811061071357610713614601565b60200260200101518151811061072b5761072b614601565b60200260200101819052508460018151811061074957610749614601565b6020026020010151600161075d91906145bf565b8560018151811061077057610770614601565b6020026020010181815250505b8460008151811061079057610790614601565b602002602001015160016107a491906145bf565b856000815181106107b7576107b7614601565b6020026020010181815250505b806107ce8161488e565b915050610634565b505080806107e39061488e565b91505061054e565b505b8160028151811061080057610800614601565b60200260200101518161081391906145bf565b9050610451565b505b8960021480610829575089155b15610c2757885b888111610c255760405163bad1265360e01b8152600481018290526001600160a01b038e169063bad1265390602401602060405180830381865afa15801561087c573d6000803e3d6000fd5b505050506040513d601f19601f820116820180604052508101906108a09190614617565b935060028460048111156108b6576108b6614638565b14806108d3575060048460048111156108d1576108d1614638565b145b806108ef575060038460048111156108ed576108ed614638565b145b15610bf857604051630122bf3160e51b8152600481018290526001600160a01b038e1690632457e62090602401600060405180830381865afa158015610939573d6000803e3d6000fd5b505050506040513d6000823e601f3d908101601f1916820160405261096191908101906146eb565b925060005b8351811015610bf6576109868e8386848151811061056e5761056e614601565b87898151811061099857610998614601565b602002602001018190525060008e6001600160a01b031663fb0d5e09848785815181106109c7576109c7614601565b60200260200101516040518363ffffffff1660e01b81526004016109f5929190918252602082015260400190565b600060405180830381865afa158015610a12573d6000803e3d6000fd5b505050506040513d6000823e601f3d908101601f19168201604052610a3a9190810190614830565b905060005b60018251610a4d9190614864565b811015610be1578e6001600160a01b0316828281518110610a7057610a70614601565b6020026020010151604001516001600160a01b031603610bcf57610a948a8c614877565b85600081518110610aa757610aa7614601565b602002602001015110158015610aeb575089610ac48c60016145bf565b610ace9190614877565b85600081518110610ae157610ae1614601565b6020026020010151105b15610b8857888a81518110610b0257610b02614601565b60200260200101518986600181518110610b1e57610b1e614601565b602002602001015181518110610b3657610b36614601565b602002602001018190525084600181518110610b5457610b54614601565b60200260200101516001610b6891906145bf565b85600181518110610b7b57610b7b614601565b6020026020010181815250505b84600081518110610b9b57610b9b614601565b60200260200101516001610baf91906145bf565b85600081518110610bc257610bc2614601565b6020026020010181815250505b80610bd98161488e565b915050610a3f565b50508080610bee9061488e565b915050610966565b505b81600281518110610c0b57610c0b614601565b602002602001015181610c1e91906145bf565b9050610830565b505b85610c338860016145bf565b610c3d9190614877565b81600081518110610c5057610c50614601565b60200260200101511115610c9657868682600081518110610c7357610c73614601565b6020026020010151610c8591906148a7565b610c8f9190614864565b9350610c9b565b600093505b50505097509795505050505050565b604051630122bf3160e51b81526004810183905260009081906001600160a01b03861690632457e62090602401600060405180830381865afa158015610cf4573d6000803e3d6000fd5b505050506040513d6000823e601f3d908101601f19168201604052610d1c91908101906146eb565b9050808381518110610d3057610d30614601565b60200260200101519150505b9392505050565b606081831115610d6e5760405162461bcd60e51b8152600401610d65906148c9565b60405180910390fd5b6000846001600160a01b031663ed320aa86040518163ffffffff1660e01b8152600401602060405180830381865afa158015610dae573d6000803e3d6000fd5b505050506040513d601f19601f82011682018060405250810190610dd291906145e8565b905060008111610e245760405162461bcd60e51b815260206004820152601760248201527f4e6f206672616d657320696e20746865206d61726b65740000000000000000006044820152606401610d65565b838111610e735760405162461bcd60e51b815260206004820152601b60248201527f7374617274496e646578206973206f7574206f6620626f756e647300000000006044820152606401610d65565b82811015610e8957610e86600182614864565b92505b610e938484614864565b610e9e9060016145bf565b6001600160401b03811115610eb557610eb56145d2565b604051908082528060200260200182016040528015610eee57816020015b610edb613ffe565b815260200190600190039081610ed35790505b509150835b838111610fa25760405162143a2160e61b8152600481018290526000906001600160a01b0388169063050e884090602401602060405180830381865afa158015610f41573d6000803e3d6000fd5b505050506040513d601f19601f82011682018060405250810190610f6591906145e8565b9050610f718782611e15565b848381518110610f8357610f83614601565b6020026020010181905250508080610f9a9061488e565b915050610ef3565b50509392505050565b610fcf60405180606001604052806000815260200160008152602001606081525090565b610ff360405180606001604052806000815260200160008152602001606081525090565b60405163b93dafa960e01b815260048101859052602481018490526001600160a01b0386169063b93dafa9906044016040805180830381865afa15801561103e573d6000803e3d6000fd5b505050506040513d601f19601f820116820180604052508101906110629190614918565b6020830152815260405163fb0d5e0960e01b815260048101859052602481018490526000906001600160a01b0387169063fb0d5e0990604401600060405180830381865afa1580156110b8573d6000803e3d6000fd5b505050506040513d6000823e601f3d908101601f191682016040526110e09190810190614830565b905080516000036111275760408051600180825281830190925290816020015b61110861404c565b8152602001906001900390816111005750506040830152509050610d3c565b80516001600160401b03811115611140576111406145d2565b60405190808252806020026020018201604052801561117957816020015b61116661404c565b81526020019060019003908161115e5790505b50604083015260005b81518110156111d95781818151811061119d5761119d614601565b6020026020010151836040015182815181106111bb576111bb614601565b602002602001018190525080806111d19061488e565b915050611182565b509095945050505050565b60606000826001600160401b03811115611200576112006145d2565b60405190808252806020026020018201604052801561123957816020015b611226613ffe565b81526020019060019003908161121e5790505b509150611244613ffe565b6040805160038082526080820190925260009160208201606080368337019050509050886001600160a01b031663ef78d4fd6040518163ffffffff1660e01b8152600401602060405180830381865afa1580156112a5573d6000803e3d6000fd5b505050506040513d601f19601f820116820180604052508101906112c991906145e8565b816002815181106112dc576112dc614601565b6020908102919091010152875b8781116114d9576112fa8a82611e15565b92506000835160405163bad1265360e01b815260048101919091526001600160a01b038c169063bad1265390602401602060405180830381865afa158015611346573d6000803e3d6000fd5b505050506040513d601f19601f8201168201806040525081019061136a9190614617565b600481111561137b5761137b614638565b146114ac5761138a8688614877565b8260008151811061139d5761139d614601565b6020026020010151101580156113e15750856113ba8860016145bf565b6113c49190614877565b826000815181106113d7576113d7614601565b6020026020010151105b15611465578285836001815181106113fb576113fb614601565b60200260200101518151811061141357611413614601565b60200260200101819052508160018151811061143157611431614601565b6020026020010151600161144591906145bf565b8260018151811061145857611458614601565b6020026020010181815250505b8160008151811061147857611478614601565b6020026020010151600161148c91906145bf565b8260008151811061149f5761149f614601565b6020026020010181815250505b816002815181106114bf576114bf614601565b6020026020010151816114d291906145bf565b90506112e9565b50846114e68760016145bf565b6114f09190614877565b8160008151811061150357611503614601565b602002602001015111156115495785858260008151811061152657611526614601565b602002602001015161153891906148a7565b6115429190614864565b925061154e565b600092505b50509550959350505050565b606060006115698360016145bf565b6001600160401b03811115611580576115806145d2565b6040519080825280602002602001820160405280156115d557816020015b6115c260405180606001604052806000815260200160008152602001606081525090565b81526020019060019003908161159e5790505b50604080516003808252608082019092529193506000916060918391906020820184803683370190505090508b6001600160a01b031663ef78d4fd6040518163ffffffff1660e01b8152600401602060405180830381865afa15801561163f573d6000803e3d6000fd5b505050506040513d601f19601f8201168201806040525081019061166391906145e8565b8160028151811061167657611676614601565b60200260200101818152505060018a11611a2b57885b888111611a295760405163bad1265360e01b8152600481018290526001600160a01b038e169063bad1265390602401602060405180830381865afa1580156116d8573d6000803e3d6000fd5b505050506040513d601f19601f820116820180604052508101906116fc9190614617565b9350600184600481111561171257611712614638565b036119fc57604051630122bf3160e51b8152600481018290526001600160a01b038e1690632457e62090602401600060405180830381865afa15801561175c573d6000803e3d6000fd5b505050506040513d6000823e601f3d908101601f1916820160405261178491908101906146eb565b925060005b83518110156119fa576117a98e8386848151811061056e5761056e614601565b8789815181106117bb576117bb614601565b602002602001018190525060008e6001600160a01b031663fb0d5e09848785815181106117ea576117ea614601565b60200260200101516040518363ffffffff1660e01b8152600401611818929190918252602082015260400190565b600060405180830381865afa158015611835573d6000803e3d6000fd5b505050506040513d6000823e601f3d908101601f1916820160405261185d9190810190614830565b90508d6001600160a01b031681600183516118789190614864565b8151811061188857611888614601565b6020026020010151604001516001600160a01b0316036119e7576118ac898b614877565b846000815181106118bf576118bf614601565b6020026020010151101580156119035750886118dc8b60016145bf565b6118e69190614877565b846000815181106118f9576118f9614601565b6020026020010151105b156119a05787898151811061191a5761191a614601565b6020026020010151888560018151811061193657611936614601565b60200260200101518151811061194e5761194e614601565b60200260200101819052508360018151811061196c5761196c614601565b6020026020010151600161198091906145bf565b8460018151811061199357611993614601565b6020026020010181815250505b836000815181106119b3576119b3614601565b602002602001015160016119c791906145bf565b846000815181106119da576119da614601565b6020026020010181815250505b50806119f28161488e565b915050611789565b505b81600281518110611a0f57611a0f614601565b602002602001015181611a2291906145bf565b905061168c565b505b8960021480611a38575089155b15610c2757885b888111610c255760405163bad1265360e01b8152600481018290526001600160a01b038e169063bad1265390602401602060405180830381865afa158015611a8b573d6000803e3d6000fd5b505050506040513d601f19601f82011682018060405250810190611aaf9190614617565b93506002846004811115611ac557611ac5614638565b1480611ae257506004846004811115611ae057611ae0614638565b145b80611afe57506003846004811115611afc57611afc614638565b145b15611de857604051630122bf3160e51b8152600481018290526001600160a01b038e1690632457e62090602401600060405180830381865afa158015611b48573d6000803e3d6000fd5b505050506040513d6000823e601f3d908101601f19168201604052611b7091908101906146eb565b925060005b8351811015611de657611b958e8386848151811061056e5761056e614601565b878981518110611ba757611ba7614601565b602002602001018190525060008e6001600160a01b031663fb0d5e0984878581518110611bd657611bd6614601565b60200260200101516040518363ffffffff1660e01b8152600401611c04929190918252602082015260400190565b600060405180830381865afa158015611c21573d6000803e3d6000fd5b505050506040513d6000823e601f3d908101601f19168201604052611c499190810190614830565b90508d6001600160a01b03168160018351611c649190614864565b81518110611c7457611c74614601565b6020026020010151604001516001600160a01b031603611dd357611c98898b614877565b84600081518110611cab57611cab614601565b602002602001015110158015611cef575088611cc88b60016145bf565b611cd29190614877565b84600081518110611ce557611ce5614601565b6020026020010151105b15611d8c57878981518110611d0657611d06614601565b60200260200101518885600181518110611d2257611d22614601565b602002602001015181518110611d3a57611d3a614601565b602002602001018190525083600181518110611d5857611d58614601565b60200260200101516001611d6c91906145bf565b84600181518110611d7f57611d7f614601565b6020026020010181815250505b83600081518110611d9f57611d9f614601565b60200260200101516001611db391906145bf565b84600081518110611dc657611dc6614601565b6020026020010181815250505b5080611dde8161488e565b915050611b75565b505b81600281518110611dfb57611dfb614601565b602002602001015181611e0e91906145bf565b9050611a3f565b611e1d613ffe565b611e25613ffe565b604051632840d02f60e21b8152600481018490526001600160a01b0385169063a10340bc9060240160e060405180830381865afa158015611e6a573d6000803e3d6000fd5b505050506040513d601f19601f82011682018060405250810190611e8e919061493c565b60e088015260c087015260a086015260808501526001600160a01b0390811660608501526020840191909152908252604051630122bf3160e51b81526004810185905290851690632457e62090602401600060405180830381865afa158015611efb573d6000803e3d6000fd5b505050506040513d6000823e601f3d908101601f19168201604052611f2391908101906146eb565b604082015290505b92915050565b6060600080846001600160a01b031663ffde58626040518163ffffffff1660e01b8152600401602060405180830381865afa158015611f74573d6000803e3d6000fd5b505050506040513d601f19601f82011682018060405250810190611f9891906145e8565b6001600160401b03811115611faf57611faf6145d2565b604051908082528060200260200182016040528015611fd8578160200160208202803683370190505b5090506000805b866001600160a01b031663ffde58626040518163ffffffff1660e01b8152600401602060405180830381865afa15801561201d573d6000803e3d6000fd5b505050506040513d601f19601f8201168201806040525081019061204191906145e8565b8110156121905760405162beb8d760e61b8152600481018290526000906001600160a01b03891690632fae35c090602401602060405180830381865afa15801561208f573d6000803e3d6000fd5b505050506040513d601f19601f820116820180604052508101906120b3919061499c565b60405163543a185d60e11b81526001600160a01b0380831660048301529192506000918a169063a87430ba906024016040805180830381865afa1580156120fe573d6000803e3d6000fd5b505050506040513d601f19601f8201168201806040525081019061212291906149b9565b915050876001600160a01b0316816001600160a01b03160361217b5781858561ffff168151811061215557612155614601565b6001600160a01b039092166020928302919091019091015283612177816149ed565b9450505b505080806121889061488e565b915050611fdf565b508061ffff166001600160401b038111156121ad576121ad6145d2565b6040519080825280602002602001820160405280156121d6578160200160208202803683370190505b50935060005b8161ffff1681101561223e578281815181106121fa576121fa614601565b602002602001015185828151811061221457612214614601565b6001600160a01b0390921660209283029190910190910152806122368161488e565b9150506121dc565b5050509250929050565b604051630122bf3160e51b81526004810182905260009081906001600160a01b03851690632457e62090602401600060405180830381865afa158015612292573d6000803e3d6000fd5b505050506040513d6000823e601f3d908101601f191682016040526122ba91908101906146eb565b51949350505050565b6000606084861061233c5760405162461bcd60e51b815260206004820152603860248201527f666972737455736572496e646578206d75737420626520736d616c6c6572206f60448201527f7220657175616c20746f206c61737455736572496e64657800000000000000006064820152608401610d65565b6000876001600160a01b031663ffde58626040518163ffffffff1660e01b8152600401602060405180830381865afa15801561237c573d6000803e3d6000fd5b505050506040513d601f19601f820116820180604052508101906123a091906145e8565b90508087106123f15760405162461bcd60e51b815260206004820152601f60248201527f666972737455736572496e646578206973206f7574206f6620626f756e6473006044820152606401610d65565b6124206040518060400160405280600d81526020016c03ab9b2b939a632b733ba341d1609d1b81525082613f05565b8086111561242c578095505b61245d6040518060400160405280600f81526020016e03630b9ba2ab9b2b924b73232bc1d1608d1b81525087613f05565b6124678787614864565b6001600160401b0381111561247e5761247e6145d2565b6040519080825280602002602001820160405280156124a7578160200160208202803683370190505b5091506000886001600160a01b031663ef78d4fd6040518163ffffffff1660e01b8152600401602060405180830381865afa1580156124ea573d6000803e3d6000fd5b505050506040513d601f19601f8201168201806040525081019061250e91906145e8565b905061253a6040518060400160405280600881526020016703832b934b7b21d160c51b81525082613f05565b875b612547600189614864565b8110156127505760405162beb8d760e61b8152600481018290526000906001600160a01b038c1690632fae35c090602401602060405180830381865afa158015612595573d6000803e3d6000fd5b505050506040513d601f19601f820116820180604052508101906125b9919061499c565b90506125e36040518060400160405280600681526020016503ab9b2b91d160d51b81525082613f4e565b875b8781101561273b576040516391a0846d60e01b81526001600160a01b038381166004830152602482018390528d16906391a0846d90604401602060405180830381865afa15801561263a573d6000803e3d6000fd5b505050506040513d601f19601f8201168201806040525081019061265e91906145e8565b86848151811061267057612670614601565b6020026020010181815161268491906145bf565b915081815250506126cf6040518060400160405280600981526020016803932bbb0b932399d160bd1b8152508785815181106126c2576126c2614601565b6020026020010151613f05565b8583815181106126e1576126e1614601565b6020026020010151876126f491906145bf565b965061272a60405180604001604052806012815260200171031b7b6bab630ba34bb32a932bbb0b9321d160751b81525088613f05565b61273484826145bf565b90506125e5565b505080806127489061488e565b91505061253c565b5061154e6040518060400160405280601381526020017202932ba3ab93734b733903932bbb0b932399d1606d1b815250613f93565b6040516361eee2cb60e01b81526004810184905260009081906001600160a01b038716906361eee2cb90602401602060405180830381865afa1580156127cf573d6000803e3d6000fd5b505050506040513d601f19601f820116820180604052508101906127f391906145e8565b6040516361eee2cb60e01b81524260048201529091506001600160a01b038716906361eee2cb90602401602060405180830381865afa15801561283a573d6000803e3d6000fd5b505050506040513d601f19601f8201168201806040525081019061285e91906145e8565b8110156128ad5760405162461bcd60e51b815260206004820152601b60248201527f54484953204c4f5420495320494e20412050415354204652414d4500000000006044820152606401610d65565b60008061292488848a6001600160a01b0316639592de188a6040518263ffffffff1660e01b81526004016128e391815260200190565b602060405180830381865afa158015612900573d6000803e3d6000fd5b505050506040513d601f19601f8201168201806040525081019061019f91906145e8565b604081015180519192509061293b90600190614864565b8151811061294b5761294b614601565b60200260200101516060015191506000886001600160a01b031663e107fb4f85856040518363ffffffff1660e01b8152600401612992929190918252602082015260400190565b602060405180830381865afa1580156129af573d6000803e3d6000fd5b505050506040513d601f19601f820116820180604052508101906129d391906145e8565b60405163e107fb4f60e01b815260048101869052602481018890529091506000906001600160a01b038b169063e107fb4f90604401602060405180830381865afa158015612a25573d6000803e3d6000fd5b505050506040513d601f19601f82011682018060405250810190612a4991906145e8565b9050808210612a5b5760009550612a68565b612a658282614864565b95505b5050505050949350505050565b606081831115612a975760405162461bcd60e51b8152600401610d65906148c9565b6000846001600160a01b031663c0423f2e6040518163ffffffff1660e01b8152600401600060405180830381865afa158015612ad7573d6000803e3d6000fd5b505050506040513d6000823e601f3d908101601f19168201604052612aff9190810190614a0e565b90506000815111612b4a5760405162461bcd60e51b8152602060048201526015602482015274139bc81b1bdd1cc81a5b881d1a19481b585c9ad95d605a1b6044820152606401610d65565b80518410612b9a5760405162461bcd60e51b815260206004820152601b60248201527f7374617274496e646578206973206f7574206f6620626f756e647300000000006044820152606401610d65565b80518310612bb35760018151612bb09190614864565b92505b612bbd8484614864565b612bc89060016145bf565b6001600160401b03811115612bdf57612bdf6145d2565b604051908082528060200260200182016040528015612c3457816020015b612c2160405180606001604052806000815260200160008152602001606081525090565b815260200190600190039081612bfd5790505b509150835b838111610fa2576000828281518110612c5457612c54614601565b60200260200101519050612c718782600001518360200151610fab565b848381518110612c8357612c83614601565b6020026020010181905250508080612c9a9061488e565b915050612c39565b600080612caf8484611e15565b6040516339a6a48960e01b8152600481018590529091506000906001600160a01b038616906339a6a48990602401602060405180830381865afa158015612cfa573d6000803e3d6000fd5b505050506040513d601f19601f82011682018060405250810190612d1e91906145e8565b90506000856001600160a01b031663527eb4bc6040518163ffffffff1660e01b8152600401602060405180830381865afa158015612d60573d6000803e3d6000fd5b505050506040513d601f19601f82011682018060405250810190612d8491906145e8565b905060008360e001518284612d999190614864565b612da39190614864565b979650505050505050565b6060816001600160401b03811115612dc857612dc86145d2565b604051908082528060200260200182016040528015612df1578160200160208202803683370190505b5090506000612dfe613ffe565b60005b848111612f7857600081886001600160a01b031663ef78d4fd6040518163ffffffff1660e01b8152600401602060405180830381865afa158015612e49573d6000803e3d6000fd5b505050506040513d601f19601f82011682018060405250810190612e6d91906145e8565b612e779190614877565b612e8190886145bf565b9050612e8d8882611e15565b805160405163bad1265360e01b815260048101919091529093506000906001600160a01b038a169063bad1265390602401602060405180830381865afa158015612edb573d6000803e3d6000fd5b505050506040513d601f19601f82011682018060405250810190612eff9190614617565b90506001816004811115612f1557612f15614638565b1480612f3257506003816004811115612f3057612f30614638565b145b15612f635781868681518110612f4a57612f4a614601565b602090810291909101015284612f5f8161488e565b9550505b50508080612f709061488e565b915050612e01565b5050509392505050565b6040516361eee2cb60e01b81526004810184905260009081906001600160a01b038716906361eee2cb90602401602060405180830381865afa158015612fcc573d6000803e3d6000fd5b505050506040513d601f19601f82011682018060405250810190612ff091906145e8565b905042866001600160a01b031663ef78d4fd6040518163ffffffff1660e01b8152600401602060405180830381865afa158015613031573d6000803e3d6000fd5b505050506040513d601f19601f8201168201806040525081019061305591906145e8565b61305f90836145bf565b10156130ad5760405162461bcd60e51b815260206004820152601d60248201527f4672616d652068617320746f20626520696e20746865206675747572650000006044820152606401610d65565b6040516312b25bc360e31b8152600481018590526000906001600160a01b03881690639592de1890602401602060405180830381865afa1580156130f5573d6000803e3d6000fd5b505050506040513d601f19601f8201168201806040525081019061311991906145e8565b60405163e107fb4f60e01b815260048101849052602481018690529091506000906001600160a01b0389169063e107fb4f90604401602060405180830381865afa15801561316b573d6000803e3d6000fd5b505050506040513d601f19601f8201168201806040525081019061318f91906145e8565b9050600061319e898585610fab565b6040810151805191925083916131b690600190614864565b815181106131c6576131c6614601565b6020026020010151606001516131dc91906145bf565b9998505050505050505050565b600080856001600160a01b031663ef78d4fd6040518163ffffffff1660e01b8152600401602060405180830381865afa15801561322a573d6000803e3d6000fd5b505050506040513d601f19601f8201168201806040525081019061324e91906145e8565b9050835b8381116132e7576040516391a0846d60e01b81526001600160a01b038781166004830152602482018390528816906391a0846d90604401602060405180830381865afa1580156132a6573d6000803e3d6000fd5b505050506040513d601f19601f820116820180604052508101906132ca91906145e8565b6132d490846145bf565b92506132e082826145bf565b9050613252565b5050949350505050565b6000806132fe8484611e15565b60e081015190915060005b82604001515181101561363857600061333387878660400151858151811061056e5761056e614601565b905060005b816040015151811015613623578160400151818151811061335b5761335b614601565b6020026020010151608001518661337291906145bf565b95508160400151818151811061338a5761338a614601565b602002602001015160a00151866133a19190614864565b955060018260400151516133b59190614864565b8103613611576000886001600160a01b031663e107fb4f89856040015185815181106133e3576133e3614601565b6020026020010151606001516040518363ffffffff1660e01b8152600401613415929190918252602082015260400190565b602060405180830381865afa158015613432573d6000803e3d6000fd5b505050506040513d601f19601f8201168201806040525081019061345691906145e8565b90506134628188614864565b96506000896001600160a01b031663a87430ba8560400151858151811061348b5761348b614601565b6020026020010151604001516040518263ffffffff1660e01b81526004016134c291906001600160a01b0391909116815260200190565b6040805180830381865afa1580156134de573d6000803e3d6000fd5b505050506040513d601f19601f8201168201806040525081019061350291906149b9565b60405163543a185d60e11b81526001600160a01b03808316600483015291935060009250908c169063a87430ba906024016040805180830381865afa15801561354f573d6000803e3d6000fd5b505050506040513d601f19601f8201168201806040525081019061357391906149b9565b509050801561360d5760008b6001600160a01b0316639e9c4f086040518163ffffffff1660e01b8152600401602060405180830381865afa1580156135bc573d6000803e3d6000fd5b505050506040513d601f19601f820116820180604052508101906135e091906145e8565b9050670de0b6b3a76400006135f58286614877565b6135ff91906148a7565b61360990896145bf565b9750505b5050505b8061361b8161488e565b915050613338565b505080806136309061488e565b915050613309565b506136438184614864565b95945050505050565b60606000826001600160401b03811115613668576136686145d2565b6040519080825280602002602001820160405280156136a157816020015b61368e613ffe565b8152602001906001900390816136865790505b5060408051600480825260a08201909252919350600091829160208201608080368337019050509050896001600160a01b031663ef78d4fd6040518163ffffffff1660e01b8152600401602060405180830381865afa158015613708573d6000803e3d6000fd5b505050506040513d601f19601f8201168201806040525081019061372c91906145e8565b8160028151811061373f5761373f614601565b60209081029190910101526060885b888111613aee5760405163bad1265360e01b8152600481018290526001600160a01b038d169063bad1265390602401602060405180830381865afa15801561379a573d6000803e3d6000fd5b505050506040513d601f19601f820116820180604052508101906137be9190614617565b935060008460048111156137d4576137d4614638565b14613ac157604051630122bf3160e51b8152600481018290526001600160a01b038d1690632457e62090602401600060405180830381865afa15801561381e573d6000803e3d6000fd5b505050506040513d6000823e601f3d908101601f1916820160405261384691908101906146eb565b915060005b8251811015613abf5760008d6001600160a01b031663fb0d5e098486858151811061387857613878614601565b60200260200101516040518363ffffffff1660e01b81526004016138a6929190918252602082015260400190565b600060405180830381865afa1580156138c3573d6000803e3d6000fd5b505050506040513d6000823e601f3d908101601f191682016040526138eb9190810190614830565b90508c6001600160a01b031681600183516139069190614864565b8151811061391657613916614601565b6020026020010151604001516001600160a01b03161480156139525750828560038151811061394757613947614601565b602002602001015114155b15613aac57613961898b614877565b8560008151811061397457613974614601565b6020026020010151101580156139b85750886139918b60016145bf565b61399b9190614877565b856000815181106139ae576139ae614601565b6020026020010151105b15613a45576139c78e84611e15565b88866001815181106139db576139db614601565b6020026020010151815181106139f3576139f3614601565b602002602001018190525084600181518110613a1157613a11614601565b60200260200101516001613a2591906145bf565b85600181518110613a3857613a38614601565b6020026020010181815250505b84600081518110613a5857613a58614601565b60200260200101516001613a6c91906145bf565b85600081518110613a7f57613a7f614601565b6020026020010181815250508285600381518110613a9f57613a9f614601565b6020026020010181815250505b5080613ab78161488e565b91505061384b565b505b82600281518110613ad457613ad4614601565b602002602001015181613ae791906145bf565b905061374e565b5085613afb8860016145bf565b613b059190614877565b82600081518110613b1857613b18614601565b60200260200101511115613b5e57868683600081518110613b3b57613b3b614601565b6020026020010151613b4d91906148a7565b613b579190614864565b9350613b63565b600093505b505050965096945050505050565b6060600084861115613beb5760405162461bcd60e51b815260206004820152603760248201527f6672616d654b65795f7374617274206d75737420626520736d616c6c6572206f60448201527f7220657175616c20746f206672616d654b65795f656e640000000000000000006064820152608401610d65565b826001600160401b03811115613c0357613c036145d2565b604051908082528060200260200182016040528015613c5857816020015b613c4560405180606001604052806000815260200160008152602001606081525090565b815260200190600190039081613c215790505b5060408051600380825260808201909252919350606091600091602082018480368337019050509050886001600160a01b031663ef78d4fd6040518163ffffffff1660e01b8152600401602060405180830381865afa158015613cbf573d6000803e3d6000fd5b505050506040513d601f19601f82011682018060405250810190613ce391906145e8565b81600281518110613cf657613cf6614601565b6020908102919091010152875b8781116114d957604051630122bf3160e51b8152600481018290526001600160a01b038b1690632457e62090602401600060405180830381865afa158015613d4f573d6000803e3d6000fd5b505050506040513d6000823e601f3d908101601f19168201604052613d7791908101906146eb565b925060005b8351811015613ed757613d8f8789614877565b83600081518110613da257613da2614601565b602002602001015110158015613de6575086613dbf8960016145bf565b613dc99190614877565b83600081518110613ddc57613ddc614601565b6020026020010151105b15613e8057613e028b8386848151811061056e5761056e614601565b8684600181518110613e1657613e16614601565b602002602001015181518110613e2e57613e2e614601565b602002602001018190525082600181518110613e4c57613e4c614601565b60200260200101516001613e6091906145bf565b83600181518110613e7357613e73614601565b6020026020010181815250505b82600081518110613e9357613e93614601565b60200260200101516001613ea791906145bf565b83600081518110613eba57613eba614601565b602090810291909101015280613ecf8161488e565b915050613d7c565b5081600281518110613eeb57613eeb614601565b602002602001015181613efe91906145bf565b9050613d03565b613f4a8282604051602401613f1b929190614b4c565b60408051601f198184030181529190526020810180516001600160e01b0316632d839cb360e21b179052613fd9565b5050565b613f4a8282604051602401613f64929190614b5f565b60408051601f198184030181529190526020810180516001600160e01b031663319af33360e01b179052613fd9565b613fd681604051602401613fa79190614b89565b60408051601f198184030181529190526020810180516001600160e01b031663104c13eb60e21b179052613fd9565b50565b613fd68160006a636f6e736f6c652e6c6f679050600080835160208501845afa505050565b60405180610100016040528060008152602001600081526020016060815260200160006001600160a01b03168152602001600081526020016000815260200160008152602001600081525090565b6040518060c00160405280600081526020016000815260200160006001600160a01b031681526020016000815260200160008152602001600081525090565b6001600160a01b0381168114613fd657600080fd5b600080600080600080600060e0888a0312156140bb57600080fd5b87356140c68161408b565b965060208801356140d68161408b565b96999698505050506040850135946060810135946080820135945060a0820135935060c0909101359150565b600060608084018351855260208085015181870152604080860151848289015283815180865260809550858a019150848301925060005b8181101561418c578351805184528681015187850152858101516001600160a01b0316868501528881015189850152878101518885015260a090810151908401529285019260c090920191600101614139565b50909998505050505050505050565b600081518084526020808501808196508360051b8101915082860160005b858110156141e35782840389526141d1848351614102565b988501989350908401906001016141b9565b5091979650505050505050565b604081526000614203604083018561419b565b90508260208301529392505050565b60008060006060848603121561422757600080fd5b83356142328161408b565b95602085013595506040909401359392505050565b600081518084526020808501945080840160005b838110156142775781518752958201959082019060010161425b565b509495945050505050565b6000610100825184526020830151602085015260408301518160408601526142ac82860182614247565b91505060018060a01b0360608401511660608501526080830151608085015260a083015160a085015260c083015160c085015260e083015160e08501528091505092915050565b600081518084526020808501808196508360051b8101915082860160005b858110156141e3578284038952614329848351614282565b98850198935090840190600101614311565b602081526000610d3c60208301846142f3565b602081526000610d3c6020830184614102565b600080600080600060a0868803121561437957600080fd5b85356143848161408b565b97602087013597506040870135966060810135965060800135945092505050565b60408152600061420360408301856142f3565b600080604083850312156143cb57600080fd5b82356143d68161408b565b946020939093013593505050565b602081526000610d3c6020830184614282565b6000806040838503121561440a57600080fd5b82356144158161408b565b915060208301356144258161408b565b809150509250929050565b604080825283519082018190526000906020906060840190828701845b828110156144725781516001600160a01b03168452928401929084019060010161444d565b50505061ffff9490941692019190915250919050565b8281526040602082015260006144a16040830184614247565b949350505050565b600080600080608085870312156144bf57600080fd5b84356144ca8161408b565b966020860135965060408601359560600135945092505050565b602081526000610d3c602083018461419b565b602081526000610d3c6020830184614247565b6000806000806080858703121561452057600080fd5b843561452b8161408b565b9350602085013561453b8161408b565b93969395505050506040820135916060013590565b60008060008060008060c0878903121561456957600080fd5b86356145748161408b565b955060208701356145848161408b565b95989597505050506040840135936060810135936080820135935060a0909101359150565b634e487b7160e01b600052601160045260246000fd5b80820180821115611f2b57611f2b6145a9565b634e487b7160e01b600052604160045260246000fd5b6000602082840312156145fa57600080fd5b5051919050565b634e487b7160e01b600052603260045260246000fd5b60006020828403121561462957600080fd5b815160058110610d3c57600080fd5b634e487b7160e01b600052602160045260246000fd5b60405160c081016001600160401b0381118282101715614670576146706145d2565b60405290565b604051606081016001600160401b0381118282101715614670576146706145d2565b604051601f8201601f191681016001600160401b03811182821017156146c0576146c06145d2565b604052919050565b60006001600160401b038211156146e1576146e16145d2565b5060051b60200190565b600060208083850312156146fe57600080fd5b82516001600160401b0381111561471457600080fd5b8301601f8101851361472557600080fd5b8051614738614733826146c8565b614698565b81815260059190911b8201830190838101908783111561475757600080fd5b928401925b82841015612da35783518252928401929084019061475c565b600082601f83011261478657600080fd5b81516020614796614733836146c8565b82815260c092830285018201928282019190878511156147b557600080fd5b8387015b858110156148235781818a0312156147d15760008081fd5b6147d961464e565b8151815285820151868201526040808301516147f48161408b565b90820152606082810151908201526080808301519082015260a0808301519082015284529284019281016147b9565b5090979650505050505050565b60006020828403121561484257600080fd5b81516001600160401b0381111561485857600080fd5b6144a184828501614775565b81810381811115611f2b57611f2b6145a9565b8082028115828204841417611f2b57611f2b6145a9565b6000600182016148a0576148a06145a9565b5060010190565b6000826148c457634e487b7160e01b600052601260045260246000fd5b500490565b6020808252602f908201527f7374617274496e646578206d75737420626520736d616c6c6572206f7220657160408201526e0eac2d840e8de40cadcc892dcc8caf608b1b606082015260800190565b6000806040838503121561492b57600080fd5b505080516020909101519092909150565b600080600080600080600060e0888a03121561495757600080fd5b875196506020880151955060408801516149708161408b565b80955050606088015193506080880151925060a0880151915060c0880151905092959891949750929550565b6000602082840312156149ae57600080fd5b8151610d3c8161408b565b600080604083850312156149cc57600080fd5b825180151581146149dc57600080fd5b60208401519092506144258161408b565b600061ffff808316818103614a0457614a046145a9565b6001019392505050565b60006020808385031215614a2157600080fd5b82516001600160401b0380821115614a3857600080fd5b818501915085601f830112614a4c57600080fd5b8151614a5a614733826146c8565b81815260059190911b83018401908481019088831115614a7957600080fd5b8585015b83811015614af957805185811115614a955760008081fd5b86016060818c03601f1901811315614aad5760008081fd5b614ab5614676565b828a01518152604080840151828c0152918301519188831115614ad85760008081fd5b614ae68e8c85870101614775565b9082015285525050918601918601614a7d565b5098975050505050505050565b6000815180845260005b81811015614b2c57602081850181015186830182015201614b10565b506000602082860101526020601f19601f83011685010191505092915050565b6040815260006142036040830185614b06565b604081526000614b726040830185614b06565b905060018060a01b03831660208301529392505050565b602081526000610d3c6020830184614b0656fea26469706673582212205d8d5a7ec1c7df75f112e97f8158437dfe0335ab55d652e2e8464955ba34210b64736f6c63430008140033",
  "linkReferences": {},
  "deployedLinkReferences": {}
}