{
  "_format": "hh-sol-artifact-1",
  "contractName": "MarketGetter",
  "sourceName": "contracts/MarketGetter.sol",
  "abi": [
    {
      "inputs": [
        {
          "internalType": "contract Market",
          "name": "market",
          "type": "address"
        },
        {
          "internalType": "uint256",
          "name": "timestamp",
          "type": "uint256"
        },
        {
          "internalType": "uint256",
          "name": "pairPrice",
          "type": "uint256"
        },
        {
          "internalType": "uint256",
          "name": "acqPrice",
          "type": "uint256"
        }
      ],
      "name": "clcAmountToApprove",
      "outputs": [
        {
          "internalType": "uint256",
          "name": "approvalAmnt",
          "type": "uint256"
        }
      ],
      "stateMutability": "view",
      "type": "function"
    },
    {
      "inputs": [
        {
          "internalType": "contract Market",
          "name": "market",
          "type": "address"
        },
        {
          "internalType": "uint256",
          "name": "timestamp",
          "type": "uint256"
        },
        {
          "internalType": "uint256",
          "name": "pairPrice",
          "type": "uint256"
        },
        {
          "internalType": "uint256",
          "name": "acqPrice",
          "type": "uint256"
        }
      ],
      "name": "clcAmountToApproveForUpdate",
      "outputs": [
        {
          "internalType": "uint256",
          "name": "amnt",
          "type": "uint256"
        }
      ],
      "stateMutability": "view",
      "type": "function"
    },
    {
      "inputs": [
        {
          "internalType": "contract Market",
          "name": "market",
          "type": "address"
        },
        {
          "internalType": "uint256",
          "name": "frameKey",
          "type": "uint256"
        }
      ],
      "name": "getFrameStruct",
      "outputs": [
        {
          "components": [
            {
              "internalType": "uint256",
              "name": "frameKey",
              "type": "uint256"
            },
            {
              "internalType": "uint256",
              "name": "rate",
              "type": "uint256"
            },
            {
              "internalType": "uint256[]",
              "name": "lotKeys",
              "type": "uint256[]"
            },
            {
              "internalType": "address",
              "name": "claimedBy",
              "type": "address"
            },
            {
              "internalType": "uint256",
              "name": "rateSettle",
              "type": "uint256"
            },
            {
              "internalType": "uint256",
              "name": "feeSettle",
              "type": "uint256"
            },
            {
              "internalType": "uint256",
              "name": "rewardSettle",
              "type": "uint256"
            },
            {
              "internalType": "uint256",
              "name": "feeReferral",
              "type": "uint256"
            }
          ],
          "internalType": "struct Market.Frame",
          "name": "",
          "type": "tuple"
        }
      ],
      "stateMutability": "view",
      "type": "function"
    },
    {
      "inputs": [
        {
          "internalType": "contract Market",
          "name": "market",
          "type": "address"
        },
        {
          "internalType": "uint256",
          "name": "frameKey_start",
          "type": "uint256"
        },
        {
          "internalType": "uint256",
          "name": "frameKey_end",
          "type": "uint256"
        },
        {
          "internalType": "uint256",
          "name": "page",
          "type": "uint256"
        },
        {
          "internalType": "uint256",
          "name": "perPage",
          "type": "uint256"
        }
      ],
      "name": "getFrames",
      "outputs": [
        {
          "components": [
            {
              "internalType": "uint256",
              "name": "frameKey",
              "type": "uint256"
            },
            {
              "internalType": "uint256",
              "name": "rate",
              "type": "uint256"
            },
            {
              "internalType": "uint256[]",
              "name": "lotKeys",
              "type": "uint256[]"
            },
            {
              "internalType": "address",
              "name": "claimedBy",
              "type": "address"
            },
            {
              "internalType": "uint256",
              "name": "rateSettle",
              "type": "uint256"
            },
            {
              "internalType": "uint256",
              "name": "feeSettle",
              "type": "uint256"
            },
            {
              "internalType": "uint256",
              "name": "rewardSettle",
              "type": "uint256"
            },
            {
              "internalType": "uint256",
              "name": "feeReferral",
              "type": "uint256"
            }
          ],
          "internalType": "struct Market.Frame[]",
          "name": "frames",
          "type": "tuple[]"
        },
        {
          "internalType": "uint256",
          "name": "pagesLeft",
          "type": "uint256"
        }
      ],
      "stateMutability": "view",
      "type": "function"
    },
    {
      "inputs": [
        {
          "internalType": "contract Market",
          "name": "market",
          "type": "address"
        },
        {
          "internalType": "address",
          "name": "user",
          "type": "address"
        },
        {
          "internalType": "uint256",
          "name": "frameKey_start",
          "type": "uint256"
        },
        {
          "internalType": "uint256",
          "name": "frameKey_end",
          "type": "uint256"
        },
        {
          "internalType": "uint256",
          "name": "page",
          "type": "uint256"
        },
        {
          "internalType": "uint256",
          "name": "perPage",
          "type": "uint256"
        }
      ],
      "name": "getFramesUser",
      "outputs": [
        {
          "components": [
            {
              "internalType": "uint256",
              "name": "frameKey",
              "type": "uint256"
            },
            {
              "internalType": "uint256",
              "name": "rate",
              "type": "uint256"
            },
            {
              "internalType": "uint256[]",
              "name": "lotKeys",
              "type": "uint256[]"
            },
            {
              "internalType": "address",
              "name": "claimedBy",
              "type": "address"
            },
            {
              "internalType": "uint256",
              "name": "rateSettle",
              "type": "uint256"
            },
            {
              "internalType": "uint256",
              "name": "feeSettle",
              "type": "uint256"
            },
            {
              "internalType": "uint256",
              "name": "rewardSettle",
              "type": "uint256"
            },
            {
              "internalType": "uint256",
              "name": "feeReferral",
              "type": "uint256"
            }
          ],
          "internalType": "struct Market.Frame[]",
          "name": "userFrames",
          "type": "tuple[]"
        },
        {
          "internalType": "uint256",
          "name": "pagesLeft",
          "type": "uint256"
        }
      ],
      "stateMutability": "view",
      "type": "function"
    },
    {
      "inputs": [
        {
          "internalType": "contract Market",
          "name": "market",
          "type": "address"
        },
        {
          "internalType": "uint256",
          "name": "frameKey",
          "type": "uint256"
        },
        {
          "internalType": "uint256",
          "name": "index",
          "type": "uint256"
        }
      ],
      "name": "getLotKey",
      "outputs": [
        {
          "internalType": "uint256",
          "name": "",
          "type": "uint256"
        }
      ],
      "stateMutability": "view",
      "type": "function"
    },
    {
      "inputs": [
        {
          "internalType": "contract Market",
          "name": "market",
          "type": "address"
        },
        {
          "internalType": "uint256",
          "name": "frameKey",
          "type": "uint256"
        },
        {
          "internalType": "uint256",
          "name": "lotKey",
          "type": "uint256"
        }
      ],
      "name": "getLotStruct",
      "outputs": [
        {
          "components": [
            {
              "internalType": "uint256",
              "name": "frameKey",
              "type": "uint256"
            },
            {
              "internalType": "uint256",
              "name": "lotKey",
              "type": "uint256"
            },
            {
              "components": [
                {
                  "internalType": "uint256",
                  "name": "blockNumber",
                  "type": "uint256"
                },
                {
                  "internalType": "uint256",
                  "name": "blockTimestamp",
                  "type": "uint256"
                },
                {
                  "internalType": "address",
                  "name": "owner",
                  "type": "address"
                },
                {
                  "internalType": "uint256",
                  "name": "acquisitionPrice",
                  "type": "uint256"
                },
                {
                  "internalType": "uint256",
                  "name": "taxCharged",
                  "type": "uint256"
                },
                {
                  "internalType": "uint256",
                  "name": "taxRefunded",
                  "type": "uint256"
                }
              ],
              "internalType": "struct Market.LotState[]",
              "name": "states",
              "type": "tuple[]"
            }
          ],
          "internalType": "struct Market.Lot",
          "name": "",
          "type": "tuple"
        }
      ],
      "stateMutability": "view",
      "type": "function"
    },
    {
      "inputs": [
        {
          "internalType": "contract Market",
          "name": "market",
          "type": "address"
        },
        {
          "internalType": "uint256",
          "name": "frameKey_start",
          "type": "uint256"
        },
        {
          "internalType": "uint256",
          "name": "frameKey_end",
          "type": "uint256"
        },
        {
          "internalType": "uint256",
          "name": "page",
          "type": "uint256"
        },
        {
          "internalType": "uint256",
          "name": "perPage",
          "type": "uint256"
        }
      ],
      "name": "getLots",
      "outputs": [
        {
          "components": [
            {
              "internalType": "uint256",
              "name": "frameKey",
              "type": "uint256"
            },
            {
              "internalType": "uint256",
              "name": "lotKey",
              "type": "uint256"
            },
            {
              "components": [
                {
                  "internalType": "uint256",
                  "name": "blockNumber",
                  "type": "uint256"
                },
                {
                  "internalType": "uint256",
                  "name": "blockTimestamp",
                  "type": "uint256"
                },
                {
                  "internalType": "address",
                  "name": "owner",
                  "type": "address"
                },
                {
                  "internalType": "uint256",
                  "name": "acquisitionPrice",
                  "type": "uint256"
                },
                {
                  "internalType": "uint256",
                  "name": "taxCharged",
                  "type": "uint256"
                },
                {
                  "internalType": "uint256",
                  "name": "taxRefunded",
                  "type": "uint256"
                }
              ],
              "internalType": "struct Market.LotState[]",
              "name": "states",
              "type": "tuple[]"
            }
          ],
          "internalType": "struct Market.Lot[]",
          "name": "lots",
          "type": "tuple[]"
        },
        {
          "internalType": "uint256",
          "name": "pagesLeft",
          "type": "uint256"
        }
      ],
      "stateMutability": "view",
      "type": "function"
    },
    {
      "inputs": [
        {
          "internalType": "contract Market",
          "name": "market",
          "type": "address"
        },
        {
          "internalType": "uint256",
          "name": "frameKey",
          "type": "uint256"
        }
      ],
      "name": "getLotsCount",
      "outputs": [
        {
          "internalType": "uint256",
          "name": "",
          "type": "uint256"
        }
      ],
      "stateMutability": "view",
      "type": "function"
    },
    {
      "inputs": [
        {
          "internalType": "contract Market",
          "name": "market",
          "type": "address"
        },
        {
          "internalType": "address",
          "name": "user",
          "type": "address"
        },
        {
          "internalType": "uint256",
          "name": "mode",
          "type": "uint256"
        },
        {
          "internalType": "uint256",
          "name": "frameKey_start",
          "type": "uint256"
        },
        {
          "internalType": "uint256",
          "name": "frameKey_end",
          "type": "uint256"
        },
        {
          "internalType": "uint256",
          "name": "page",
          "type": "uint256"
        },
        {
          "internalType": "uint256",
          "name": "perPage",
          "type": "uint256"
        }
      ],
      "name": "getLotsUser",
      "outputs": [
        {
          "components": [
            {
              "internalType": "uint256",
              "name": "frameKey",
              "type": "uint256"
            },
            {
              "internalType": "uint256",
              "name": "lotKey",
              "type": "uint256"
            },
            {
              "components": [
                {
                  "internalType": "uint256",
                  "name": "blockNumber",
                  "type": "uint256"
                },
                {
                  "internalType": "uint256",
                  "name": "blockTimestamp",
                  "type": "uint256"
                },
                {
                  "internalType": "address",
                  "name": "owner",
                  "type": "address"
                },
                {
                  "internalType": "uint256",
                  "name": "acquisitionPrice",
                  "type": "uint256"
                },
                {
                  "internalType": "uint256",
                  "name": "taxCharged",
                  "type": "uint256"
                },
                {
                  "internalType": "uint256",
                  "name": "taxRefunded",
                  "type": "uint256"
                }
              ],
              "internalType": "struct Market.LotState[]",
              "name": "states",
              "type": "tuple[]"
            }
          ],
          "internalType": "struct Market.Lot[]",
          "name": "userLots",
          "type": "tuple[]"
        },
        {
          "internalType": "uint256",
          "name": "pagesLeft",
          "type": "uint256"
        }
      ],
      "stateMutability": "view",
      "type": "function"
    },
    {
      "inputs": [
        {
          "internalType": "contract Market",
          "name": "market",
          "type": "address"
        },
        {
          "internalType": "uint256",
          "name": "startFrame",
          "type": "uint256"
        },
        {
          "internalType": "uint256",
          "name": "numOfFrames",
          "type": "uint256"
        }
      ],
      "name": "getOpenFrameKeys",
      "outputs": [
        {
          "internalType": "uint256[]",
          "name": "openFrames",
          "type": "uint256[]"
        }
      ],
      "stateMutability": "view",
      "type": "function"
    },
    {
      "inputs": [
        {
          "internalType": "contract Market",
          "name": "market",
          "type": "address"
        },
        {
          "internalType": "uint256",
          "name": "frameKey",
          "type": "uint256"
        }
      ],
      "name": "getRewardAmount",
      "outputs": [
        {
          "internalType": "uint256",
          "name": "",
          "type": "uint256"
        }
      ],
      "stateMutability": "view",
      "type": "function"
    },
    {
      "inputs": [
        {
          "internalType": "contract Market",
          "name": "market",
          "type": "address"
        },
        {
          "internalType": "uint256",
          "name": "frameKey",
          "type": "uint256"
        }
      ],
      "name": "getRewardAmountMin",
      "outputs": [
        {
          "internalType": "uint256",
          "name": "rewardFund",
          "type": "uint256"
        }
      ],
      "stateMutability": "view",
      "type": "function"
    }
  ],
  "bytecode": "0x608060405234801561001057600080fd5b5061303d806100206000396000f3fe608060405234801561001057600080fd5b50600436106100cf5760003560e01c8063c1d013951161008c578063de73259511610066578063de732595146101d5578063f2580f26146101e8578063f6eb9ee7146101fb578063f91cbebe1461020e57600080fd5b8063c1d013951461018f578063da4e8556146101a2578063dbd20a88146101b557600080fd5b80632c79854f146100d45780634314b84f146100fa578063612d8b501461011a57806371b08d891461013b5780637f424a371461015c5780639291178e1461017c575b600080fd5b6100e76100e2366004612848565b610221565b6040519081526020015b60405180910390f35b61010d610108366004612848565b6102ba565b6040516100f19190612916565b61012d610128366004612929565b6104f4565b6040516100f1929190612a13565b61014e610149366004612a7c565b61086b565b6040516100f1929190612ade565b61016f61016a366004612b35565b6111b9565b6040516100f19190612b61565b6100e761018a366004612b35565b6112d5565b6100e761019d366004612b74565b611350565b6100e76101b0366004612b35565b611645565b6101c86101c3366004612848565b611751565b6040516100f19190612baf565b6100e76101e3366004612b74565b611926565b6100e76101f6366004612b35565b611b8d565b61012d610209366004612bf3565b611ee8565b61014e61021c366004612929565b61240e565b604051630122bf3160e51b81526004810183905260009081906001600160a01b03861690632457e62090602401600060405180830381865afa15801561026b573d6000803e3d6000fd5b505050506040513d6000823e601f3d908101601f191682016040526102939190810190612ce0565b90508083815181106102a7576102a7612d6b565b60200260200101519150505b9392505050565b6102de60405180606001604052806000815260200160008152602001606081525090565b61030260405180606001604052806000815260200160008152602001606081525090565b60405163b93dafa960e01b815260048101859052602481018490526001600160a01b0386169063b93dafa9906044016040805180830381865afa15801561034d573d6000803e3d6000fd5b505050506040513d601f19601f820116820180604052508101906103719190612d81565b6020830152815260405163fb0d5e0960e01b815260048101859052602481018490526000906001600160a01b0387169063fb0d5e0990604401600060405180830381865afa1580156103c7573d6000803e3d6000fd5b505050506040513d6000823e601f3d908101601f191682016040526103ef9190810190612da5565b905080516000036104365760408051600180825281830190925290816020015b6104176127a3565b81526020019060019003908161040f57505060408301525090506102b3565b805167ffffffffffffffff81111561045057610450612c4c565b60405190808252806020026020018201604052801561048957816020015b6104766127a3565b81526020019060019003908161046e5790505b50604083015260005b81518110156104e9578181815181106104ad576104ad612d6b565b6020026020010151836040015182815181106104cb576104cb612d6b565b602002602001018190525080806104e190612ea0565b915050610492565b509095945050505050565b606060008267ffffffffffffffff81111561051157610511612c4c565b60405190808252806020026020018201604052801561054a57816020015b6105376127e2565b81526020019060019003908161052f5790505b5091506105556127e2565b6040805160038082526080820190925260009160208201606080368337019050509050886001600160a01b031663ef78d4fd6040518163ffffffff1660e01b8152600401602060405180830381865afa1580156105b6573d6000803e3d6000fd5b505050506040513d601f19601f820116820180604052508101906105da9190612eb9565b816002815181106105ed576105ed612d6b565b6020908102919091010152875b8781116107ea5761060b8a826111b9565b92506000835160405163bad1265360e01b815260048101919091526001600160a01b038c169063bad1265390602401602060405180830381865afa158015610657573d6000803e3d6000fd5b505050506040513d601f19601f8201168201806040525081019061067b9190612ee8565b600481111561068c5761068c612ed2565b146107bd5761069b8688612f09565b826000815181106106ae576106ae612d6b565b6020026020010151101580156106f25750856106cb886001612f20565b6106d59190612f09565b826000815181106106e8576106e8612d6b565b6020026020010151105b156107765782858360018151811061070c5761070c612d6b565b60200260200101518151811061072457610724612d6b565b60200260200101819052508160018151811061074257610742612d6b565b602002602001015160016107569190612f20565b8260018151811061076957610769612d6b565b6020026020010181815250505b8160008151811061078957610789612d6b565b6020026020010151600161079d9190612f20565b826000815181106107b0576107b0612d6b565b6020026020010181815250505b816002815181106107d0576107d0612d6b565b6020026020010151816107e39190612f20565b90506105fa565b50846107f7876001612f20565b6108019190612f09565b8160008151811061081457610814612d6b565b6020026020010151111561085a5785858260008151811061083757610837612d6b565b60200260200101516108499190612f33565b6108539190612f55565b925061085f565b600092505b50509550959350505050565b6060600061087a836001612f20565b67ffffffffffffffff81111561089257610892612c4c565b6040519080825280602002602001820160405280156108e757816020015b6108d460405180606001604052806000815260200160008152602001606081525090565b8152602001906001900390816108b05790505b50604080516003808252608082019092529193506000916060918391906020820184803683370190505090508b6001600160a01b031663ef78d4fd6040518163ffffffff1660e01b8152600401602060405180830381865afa158015610951573d6000803e3d6000fd5b505050506040513d601f19601f820116820180604052508101906109759190612eb9565b8160028151811061098857610988612d6b565b60200260200101818152505060018a11610d4a57885b888111610d485760405163bad1265360e01b8152600481018290526001600160a01b038e169063bad1265390602401602060405180830381865afa1580156109ea573d6000803e3d6000fd5b505050506040513d601f19601f82011682018060405250810190610a0e9190612ee8565b93506001846004811115610a2457610a24612ed2565b03610d1b57604051630122bf3160e51b8152600481018290526001600160a01b038e1690632457e62090602401600060405180830381865afa158015610a6e573d6000803e3d6000fd5b505050506040513d6000823e601f3d908101601f19168201604052610a969190810190612ce0565b925060005b8351811015610d1957610ac88e83868481518110610abb57610abb612d6b565b60200260200101516102ba565b878981518110610ada57610ada612d6b565b602002602001018190525060008e6001600160a01b031663fb0d5e0984878581518110610b0957610b09612d6b565b60200260200101516040518363ffffffff1660e01b8152600401610b37929190918252602082015260400190565b600060405180830381865afa158015610b54573d6000803e3d6000fd5b505050506040513d6000823e601f3d908101601f19168201604052610b7c9190810190612da5565b90508d6001600160a01b03168160018351610b979190612f55565b81518110610ba757610ba7612d6b565b6020026020010151604001516001600160a01b031603610d0657610bcb898b612f09565b84600081518110610bde57610bde612d6b565b602002602001015110158015610c22575088610bfb8b6001612f20565b610c059190612f09565b84600081518110610c1857610c18612d6b565b6020026020010151105b15610cbf57878981518110610c3957610c39612d6b565b60200260200101518885600181518110610c5557610c55612d6b565b602002602001015181518110610c6d57610c6d612d6b565b602002602001018190525083600181518110610c8b57610c8b612d6b565b60200260200101516001610c9f9190612f20565b84600181518110610cb257610cb2612d6b565b6020026020010181815250505b83600081518110610cd257610cd2612d6b565b60200260200101516001610ce69190612f20565b84600081518110610cf957610cf9612d6b565b6020026020010181815250505b5080610d1181612ea0565b915050610a9b565b505b81600281518110610d2e57610d2e612d6b565b602002602001015181610d419190612f20565b905061099e565b505b8960021480610d57575089155b1561113657885b8881116111345760405163bad1265360e01b8152600481018290526001600160a01b038e169063bad1265390602401602060405180830381865afa158015610daa573d6000803e3d6000fd5b505050506040513d601f19601f82011682018060405250810190610dce9190612ee8565b93506002846004811115610de457610de4612ed2565b1480610e0157506004846004811115610dff57610dff612ed2565b145b80610e1d57506003846004811115610e1b57610e1b612ed2565b145b1561110757604051630122bf3160e51b8152600481018290526001600160a01b038e1690632457e62090602401600060405180830381865afa158015610e67573d6000803e3d6000fd5b505050506040513d6000823e601f3d908101601f19168201604052610e8f9190810190612ce0565b925060005b835181101561110557610eb48e83868481518110610abb57610abb612d6b565b878981518110610ec657610ec6612d6b565b602002602001018190525060008e6001600160a01b031663fb0d5e0984878581518110610ef557610ef5612d6b565b60200260200101516040518363ffffffff1660e01b8152600401610f23929190918252602082015260400190565b600060405180830381865afa158015610f40573d6000803e3d6000fd5b505050506040513d6000823e601f3d908101601f19168201604052610f689190810190612da5565b90508d6001600160a01b03168160018351610f839190612f55565b81518110610f9357610f93612d6b565b6020026020010151604001516001600160a01b0316036110f257610fb7898b612f09565b84600081518110610fca57610fca612d6b565b60200260200101511015801561100e575088610fe78b6001612f20565b610ff19190612f09565b8460008151811061100457611004612d6b565b6020026020010151105b156110ab5787898151811061102557611025612d6b565b6020026020010151888560018151811061104157611041612d6b565b60200260200101518151811061105957611059612d6b565b60200260200101819052508360018151811061107757611077612d6b565b6020026020010151600161108b9190612f20565b8460018151811061109e5761109e612d6b565b6020026020010181815250505b836000815181106110be576110be612d6b565b602002602001015160016110d29190612f20565b846000815181106110e5576110e5612d6b565b6020026020010181815250505b50806110fd81612ea0565b915050610e94565b505b8160028151811061111a5761111a612d6b565b60200260200101518161112d9190612f20565b9050610d5e565b505b85611142886001612f20565b61114c9190612f09565b8160008151811061115f5761115f612d6b565b602002602001015111156111a55786868260008151811061118257611182612d6b565b60200260200101516111949190612f33565b61119e9190612f55565b93506111aa565b600093505b50505097509795505050505050565b6111c16127e2565b6111c96127e2565b604051632840d02f60e21b8152600481018490526001600160a01b0385169063a10340bc9060240160e060405180830381865afa15801561120e573d6000803e3d6000fd5b505050506040513d601f19601f820116820180604052508101906112329190612f68565b60e088015260c087015260a086015260808501526001600160a01b0390811660608501526020840191909152908252604051630122bf3160e51b81526004810185905290851690632457e62090602401600060405180830381865afa15801561129f573d6000803e3d6000fd5b505050506040513d6000823e601f3d908101601f191682016040526112c79190810190612ce0565b604082015290505b92915050565b604051630122bf3160e51b81526004810182905260009081906001600160a01b03851690632457e62090602401600060405180830381865afa15801561131f573d6000803e3d6000fd5b505050506040513d6000823e601f3d908101601f191682016040526113479190810190612ce0565b51949350505050565b6040516361eee2cb60e01b81526004810184905260009081906001600160a01b038716906361eee2cb90602401602060405180830381865afa15801561139a573d6000803e3d6000fd5b505050506040513d601f19601f820116820180604052508101906113be9190612eb9565b6040516361eee2cb60e01b81524260048201529091506001600160a01b038716906361eee2cb90602401602060405180830381865afa158015611405573d6000803e3d6000fd5b505050506040513d601f19601f820116820180604052508101906114299190612eb9565b81101561147d5760405162461bcd60e51b815260206004820152601b60248201527f54484953204c4f5420495320494e20412050415354204652414d45000000000060448201526064015b60405180910390fd5b6000806114f488848a6001600160a01b0316639592de188a6040518263ffffffff1660e01b81526004016114b391815260200190565b602060405180830381865afa1580156114d0573d6000803e3d6000fd5b505050506040513d601f19601f820116820180604052508101906101089190612eb9565b604081015180519192509061150b90600190612f55565b8151811061151b5761151b612d6b565b60200260200101516060015191506000886001600160a01b031663e107fb4f85856040518363ffffffff1660e01b8152600401611562929190918252602082015260400190565b602060405180830381865afa15801561157f573d6000803e3d6000fd5b505050506040513d601f19601f820116820180604052508101906115a39190612eb9565b60405163e107fb4f60e01b815260048101869052602481018890529091506000906001600160a01b038b169063e107fb4f90604401602060405180830381865afa1580156115f5573d6000803e3d6000fd5b505050506040513d601f19601f820116820180604052508101906116199190612eb9565b905080821061162b5760009550611638565b6116358282612f55565b95505b5050505050949350505050565b60008061165284846111b9565b6040516339a6a48960e01b8152600481018590529091506000906001600160a01b038616906339a6a48990602401602060405180830381865afa15801561169d573d6000803e3d6000fd5b505050506040513d601f19601f820116820180604052508101906116c19190612eb9565b90506000856001600160a01b031663527eb4bc6040518163ffffffff1660e01b8152600401602060405180830381865afa158015611703573d6000803e3d6000fd5b505050506040513d601f19601f820116820180604052508101906117279190612eb9565b905060008360e00151828461173c9190612f55565b6117469190612f55565b979650505050505050565b60608167ffffffffffffffff81111561176c5761176c612c4c565b604051908082528060200260200182016040528015611795578160200160208202803683370190505b50905060006117a26127e2565b60005b84811161191c57600081886001600160a01b031663ef78d4fd6040518163ffffffff1660e01b8152600401602060405180830381865afa1580156117ed573d6000803e3d6000fd5b505050506040513d601f19601f820116820180604052508101906118119190612eb9565b61181b9190612f09565b6118259088612f20565b905061183188826111b9565b805160405163bad1265360e01b815260048101919091529093506000906001600160a01b038a169063bad1265390602401602060405180830381865afa15801561187f573d6000803e3d6000fd5b505050506040513d601f19601f820116820180604052508101906118a39190612ee8565b905060018160048111156118b9576118b9612ed2565b14806118d6575060038160048111156118d4576118d4612ed2565b145b1561190757818686815181106118ee576118ee612d6b565b60209081029190910101528461190381612ea0565b9550505b5050808061191490612ea0565b9150506117a5565b5050509392505050565b6040516361eee2cb60e01b81526004810184905260009081906001600160a01b038716906361eee2cb90602401602060405180830381865afa158015611970573d6000803e3d6000fd5b505050506040513d601f19601f820116820180604052508101906119949190612eb9565b905042866001600160a01b031663ef78d4fd6040518163ffffffff1660e01b8152600401602060405180830381865afa1580156119d5573d6000803e3d6000fd5b505050506040513d601f19601f820116820180604052508101906119f99190612eb9565b611a039083612f20565b1015611a515760405162461bcd60e51b815260206004820152601d60248201527f4672616d652068617320746f20626520696e20746865206675747572650000006044820152606401611474565b6040516312b25bc360e31b8152600481018590526000906001600160a01b03881690639592de1890602401602060405180830381865afa158015611a99573d6000803e3d6000fd5b505050506040513d601f19601f82011682018060405250810190611abd9190612eb9565b60405163e107fb4f60e01b815260048101849052602481018690529091506000906001600160a01b0389169063e107fb4f90604401602060405180830381865afa158015611b0f573d6000803e3d6000fd5b505050506040513d601f19601f82011682018060405250810190611b339190612eb9565b90506000611b428985856102ba565b604081015180519192508391611b5a90600190612f55565b81518110611b6a57611b6a612d6b565b602002602001015160600151611b809190612f20565b9998505050505050505050565b600080611b9a84846111b9565b60e081015190915060005b826040015151811015611ed4576000611bcf878786604001518581518110610abb57610abb612d6b565b905060005b816040015151811015611ebf5781604001518181518110611bf757611bf7612d6b565b60200260200101516080015186611c0e9190612f20565b955081604001518181518110611c2657611c26612d6b565b602002602001015160a0015186611c3d9190612f55565b95506001826040015151611c519190612f55565b8103611ead576000886001600160a01b031663e107fb4f8985604001518581518110611c7f57611c7f612d6b565b6020026020010151606001516040518363ffffffff1660e01b8152600401611cb1929190918252602082015260400190565b602060405180830381865afa158015611cce573d6000803e3d6000fd5b505050506040513d601f19601f82011682018060405250810190611cf29190612eb9565b9050611cfe8188612f55565b96506000896001600160a01b031663a87430ba85604001518581518110611d2757611d27612d6b565b6020026020010151604001516040518263ffffffff1660e01b8152600401611d5e91906001600160a01b0391909116815260200190565b6040805180830381865afa158015611d7a573d6000803e3d6000fd5b505050506040513d601f19601f82011682018060405250810190611d9e9190612fc8565b60405163543a185d60e11b81526001600160a01b03808316600483015291935060009250908c169063a87430ba906024016040805180830381865afa158015611deb573d6000803e3d6000fd5b505050506040513d601f19601f82011682018060405250810190611e0f9190612fc8565b5090508015611ea95760008b6001600160a01b0316639e9c4f086040518163ffffffff1660e01b8152600401602060405180830381865afa158015611e58573d6000803e3d6000fd5b505050506040513d601f19601f82011682018060405250810190611e7c9190612eb9565b9050670de0b6b3a7640000611e918286612f09565b611e9b9190612f33565b611ea59089612f20565b9750505b5050505b80611eb781612ea0565b915050611bd4565b50508080611ecc90612ea0565b915050611ba5565b50611edf8184612f55565b95945050505050565b606060008267ffffffffffffffff811115611f0557611f05612c4c565b604051908082528060200260200182016040528015611f3e57816020015b611f2b6127e2565b815260200190600190039081611f235790505b5060408051600480825260a08201909252919350600091829160208201608080368337019050509050896001600160a01b031663ef78d4fd6040518163ffffffff1660e01b8152600401602060405180830381865afa158015611fa5573d6000803e3d6000fd5b505050506040513d601f19601f82011682018060405250810190611fc99190612eb9565b81600281518110611fdc57611fdc612d6b565b60209081029190910101526060885b88811161238b5760405163bad1265360e01b8152600481018290526001600160a01b038d169063bad1265390602401602060405180830381865afa158015612037573d6000803e3d6000fd5b505050506040513d601f19601f8201168201806040525081019061205b9190612ee8565b9350600084600481111561207157612071612ed2565b1461235e57604051630122bf3160e51b8152600481018290526001600160a01b038d1690632457e62090602401600060405180830381865afa1580156120bb573d6000803e3d6000fd5b505050506040513d6000823e601f3d908101601f191682016040526120e39190810190612ce0565b915060005b825181101561235c5760008d6001600160a01b031663fb0d5e098486858151811061211557612115612d6b565b60200260200101516040518363ffffffff1660e01b8152600401612143929190918252602082015260400190565b600060405180830381865afa158015612160573d6000803e3d6000fd5b505050506040513d6000823e601f3d908101601f191682016040526121889190810190612da5565b90508c6001600160a01b031681600183516121a39190612f55565b815181106121b3576121b3612d6b565b6020026020010151604001516001600160a01b03161480156121ef575082856003815181106121e4576121e4612d6b565b602002602001015114155b15612349576121fe898b612f09565b8560008151811061221157612211612d6b565b60200260200101511015801561225557508861222e8b6001612f20565b6122389190612f09565b8560008151811061224b5761224b612d6b565b6020026020010151105b156122e2576122648e846111b9565b888660018151811061227857612278612d6b565b60200260200101518151811061229057612290612d6b565b6020026020010181905250846001815181106122ae576122ae612d6b565b602002602001015160016122c29190612f20565b856001815181106122d5576122d5612d6b565b6020026020010181815250505b846000815181106122f5576122f5612d6b565b602002602001015160016123099190612f20565b8560008151811061231c5761231c612d6b565b602002602001018181525050828560038151811061233c5761233c612d6b565b6020026020010181815250505b508061235481612ea0565b9150506120e8565b505b8260028151811061237157612371612d6b565b6020026020010151816123849190612f20565b9050611feb565b5085612398886001612f20565b6123a29190612f09565b826000815181106123b5576123b5612d6b565b602002602001015111156123fb578686836000815181106123d8576123d8612d6b565b60200260200101516123ea9190612f33565b6123f49190612f55565b9350612400565b600093505b505050965096945050505050565b60606000848611156124885760405162461bcd60e51b815260206004820152603760248201527f6672616d654b65795f7374617274206d75737420626520736d616c6c6572206f60448201527f7220657175616c20746f206672616d654b65795f656e640000000000000000006064820152608401611474565b8267ffffffffffffffff8111156124a1576124a1612c4c565b6040519080825280602002602001820160405280156124f657816020015b6124e360405180606001604052806000815260200160008152602001606081525090565b8152602001906001900390816124bf5790505b5060408051600380825260808201909252919350606091600091602082018480368337019050509050886001600160a01b031663ef78d4fd6040518163ffffffff1660e01b8152600401602060405180830381865afa15801561255d573d6000803e3d6000fd5b505050506040513d601f19601f820116820180604052508101906125819190612eb9565b8160028151811061259457612594612d6b565b6020908102919091010152875b8781116107ea57604051630122bf3160e51b8152600481018290526001600160a01b038b1690632457e62090602401600060405180830381865afa1580156125ed573d6000803e3d6000fd5b505050506040513d6000823e601f3d908101601f191682016040526126159190810190612ce0565b925060005b83518110156127755761262d8789612f09565b8360008151811061264057612640612d6b565b60200260200101511015801561268457508661265d896001612f20565b6126679190612f09565b8360008151811061267a5761267a612d6b565b6020026020010151105b1561271e576126a08b83868481518110610abb57610abb612d6b565b86846001815181106126b4576126b4612d6b565b6020026020010151815181106126cc576126cc612d6b565b6020026020010181905250826001815181106126ea576126ea612d6b565b602002602001015160016126fe9190612f20565b8360018151811061271157612711612d6b565b6020026020010181815250505b8260008151811061273157612731612d6b565b602002602001015160016127459190612f20565b8360008151811061275857612758612d6b565b60209081029190910101528061276d81612ea0565b91505061261a565b508160028151811061278957612789612d6b565b60200260200101518161279c9190612f20565b90506125a1565b6040518060c00160405280600081526020016000815260200160006001600160a01b031681526020016000815260200160008152602001600081525090565b60405180610100016040528060008152602001600081526020016060815260200160006001600160a01b03168152602001600081526020016000815260200160008152602001600081525090565b6001600160a01b038116811461284557600080fd5b50565b60008060006060848603121561285d57600080fd5b833561286881612830565b95602085013595506040909401359392505050565b600060608084018351855260208085015181870152604080860151848289015283815180865260809550858a019150848301925060005b81811015612907578351805184528681015187850152858101516001600160a01b0316868501528881015189850152878101518885015260a090810151908401529285019260c0909201916001016128b4565b50909998505050505050505050565b6020815260006102b3602083018461287d565b600080600080600060a0868803121561294157600080fd5b853561294c81612830565b97602087013597506040870135966060810135965060800135945092505050565b805182526020808201518184015260408083015161010091850182905280519185018290526000926101208601929181019184905b808210156129c257835185529382019392820192600191909101906129a2565b5050505060608301516129e060608601826001600160a01b03169052565b506080830151608085015260a083015160a085015260c083015160c085015260e083015160e08501528091505092915050565b6000604082016040835280855180835260608501915060608160051b8601019250602080880160005b83811015612a6a57605f19888703018552612a5886835161296d565b95509382019390820190600101612a3c565b50509490940194909452949350505050565b600080600080600080600060e0888a031215612a9757600080fd5b8735612aa281612830565b96506020880135612ab281612830565b96999698505050506040850135946060810135946080820135945060a0820135935060c0909101359150565b6000604082016040835280855180835260608501915060608160051b8601019250602080880160005b83811015612a6a57605f19888703018552612b2386835161287d565b95509382019390820190600101612b07565b60008060408385031215612b4857600080fd5b8235612b5381612830565b946020939093013593505050565b6020815260006102b3602083018461296d565b60008060008060808587031215612b8a57600080fd5b8435612b9581612830565b966020860135965060408601359560600135945092505050565b6020808252825182820181905260009190848201906040850190845b81811015612be757835183529284019291840191600101612bcb565b50909695505050505050565b60008060008060008060c08789031215612c0c57600080fd5b8635612c1781612830565b95506020870135612c2781612830565b95989597505050506040840135936060810135936080820135935060a0909101359150565b634e487b7160e01b600052604160045260246000fd5b60405160c0810167ffffffffffffffff81118282101715612c8557612c85612c4c565b60405290565b604051601f8201601f1916810167ffffffffffffffff81118282101715612cb457612cb4612c4c565b604052919050565b600067ffffffffffffffff821115612cd657612cd6612c4c565b5060051b60200190565b60006020808385031215612cf357600080fd5b825167ffffffffffffffff811115612d0a57600080fd5b8301601f81018513612d1b57600080fd5b8051612d2e612d2982612cbc565b612c8b565b81815260059190911b82018301908381019087831115612d4d57600080fd5b928401925b8284101561174657835182529284019290840190612d52565b634e487b7160e01b600052603260045260246000fd5b60008060408385031215612d9457600080fd5b505080516020909101519092909150565b60006020808385031215612db857600080fd5b825167ffffffffffffffff811115612dcf57600080fd5b8301601f81018513612de057600080fd5b8051612dee612d2982612cbc565b81815260c09182028301840191848201919088841115612e0d57600080fd5b938501935b83851015612e7e5780858a031215612e2a5760008081fd5b612e32612c62565b855181528686015187820152604080870151612e4d81612830565b90820152606086810151908201526080808701519082015260a0808701519082015283529384019391850191612e12565b50979650505050505050565b634e487b7160e01b600052601160045260246000fd5b600060018201612eb257612eb2612e8a565b5060010190565b600060208284031215612ecb57600080fd5b5051919050565b634e487b7160e01b600052602160045260246000fd5b600060208284031215612efa57600080fd5b8151600581106102b357600080fd5b80820281158282048414176112cf576112cf612e8a565b808201808211156112cf576112cf612e8a565b600082612f5057634e487b7160e01b600052601260045260246000fd5b500490565b818103818111156112cf576112cf612e8a565b600080600080600080600060e0888a031215612f8357600080fd5b87519650602088015195506040880151612f9c81612830565b80955050606088015193506080880151925060a0880151915060c0880151905092959891949750929550565b60008060408385031215612fdb57600080fd5b82518015158114612feb57600080fd5b6020840151909250612ffc81612830565b80915050925092905056fea2646970667358221220b349240bfee63dd2075536f399e23495ff61e1a07f3be82096061d997d6b6d0264736f6c63430008140033",
  "linkReferences": {},
  "deployedLinkReferences": {}
}