{
  "_format": "hh-sol-artifact-1",
  "contractName": "MarketGetter",
  "sourceName": "contracts/MarketGetter.sol",
  "abi": [
    {
      "inputs": [
        {
          "internalType": "contract Market",
          "name": "market",
          "type": "address"
        },
        {
          "internalType": "uint256",
          "name": "timestamp",
          "type": "uint256"
        },
        {
          "internalType": "uint256",
          "name": "pairPrice",
          "type": "uint256"
        },
        {
          "internalType": "uint256",
          "name": "acqPrice",
          "type": "uint256"
        }
      ],
      "name": "clcAmountToApprove",
      "outputs": [
        {
          "internalType": "uint256",
          "name": "approvalAmnt",
          "type": "uint256"
        }
      ],
      "stateMutability": "view",
      "type": "function"
    },
    {
      "inputs": [
        {
          "internalType": "contract Market",
          "name": "market",
          "type": "address"
        },
        {
          "internalType": "uint256",
          "name": "timestamp",
          "type": "uint256"
        },
        {
          "internalType": "uint256",
          "name": "pairPrice",
          "type": "uint256"
        },
        {
          "internalType": "uint256",
          "name": "acqPrice",
          "type": "uint256"
        }
      ],
      "name": "clcAmountToApproveForUpdate",
      "outputs": [
        {
          "internalType": "uint256",
          "name": "amnt",
          "type": "uint256"
        }
      ],
      "stateMutability": "view",
      "type": "function"
    },
    {
      "inputs": [
        {
          "internalType": "contract Market",
          "name": "market",
          "type": "address"
        },
        {
          "internalType": "uint256",
          "name": "frameKey",
          "type": "uint256"
        }
      ],
      "name": "getFrameStruct",
      "outputs": [
        {
          "components": [
            {
              "internalType": "uint256",
              "name": "frameKey",
              "type": "uint256"
            },
            {
              "internalType": "uint256",
              "name": "rate",
              "type": "uint256"
            },
            {
              "internalType": "uint256[]",
              "name": "lotKeys",
              "type": "uint256[]"
            },
            {
              "internalType": "address",
              "name": "claimedBy",
              "type": "address"
            },
            {
              "internalType": "uint256",
              "name": "rateSettle",
              "type": "uint256"
            },
            {
              "internalType": "uint256",
              "name": "feeSettle",
              "type": "uint256"
            },
            {
              "internalType": "uint256",
              "name": "rewardSettle",
              "type": "uint256"
            },
            {
              "internalType": "uint256",
              "name": "feeReferral",
              "type": "uint256"
            }
          ],
          "internalType": "struct Market.Frame",
          "name": "",
          "type": "tuple"
        }
      ],
      "stateMutability": "view",
      "type": "function"
    },
    {
      "inputs": [
        {
          "internalType": "contract Market",
          "name": "market",
          "type": "address"
        },
        {
          "internalType": "uint256",
          "name": "frameKey_start",
          "type": "uint256"
        },
        {
          "internalType": "uint256",
          "name": "frameKey_end",
          "type": "uint256"
        },
        {
          "internalType": "uint256",
          "name": "page",
          "type": "uint256"
        },
        {
          "internalType": "uint256",
          "name": "perPage",
          "type": "uint256"
        }
      ],
      "name": "getFrames",
      "outputs": [
        {
          "components": [
            {
              "internalType": "uint256",
              "name": "frameKey",
              "type": "uint256"
            },
            {
              "internalType": "uint256",
              "name": "rate",
              "type": "uint256"
            },
            {
              "internalType": "uint256[]",
              "name": "lotKeys",
              "type": "uint256[]"
            },
            {
              "internalType": "address",
              "name": "claimedBy",
              "type": "address"
            },
            {
              "internalType": "uint256",
              "name": "rateSettle",
              "type": "uint256"
            },
            {
              "internalType": "uint256",
              "name": "feeSettle",
              "type": "uint256"
            },
            {
              "internalType": "uint256",
              "name": "rewardSettle",
              "type": "uint256"
            },
            {
              "internalType": "uint256",
              "name": "feeReferral",
              "type": "uint256"
            }
          ],
          "internalType": "struct Market.Frame[]",
          "name": "frames",
          "type": "tuple[]"
        },
        {
          "internalType": "uint256",
          "name": "pagesLeft",
          "type": "uint256"
        }
      ],
      "stateMutability": "view",
      "type": "function"
    },
    {
      "inputs": [
        {
          "internalType": "contract Market",
          "name": "market",
          "type": "address"
        },
        {
          "internalType": "address",
          "name": "user",
          "type": "address"
        },
        {
          "internalType": "uint256",
          "name": "frameKey_start",
          "type": "uint256"
        },
        {
          "internalType": "uint256",
          "name": "frameKey_end",
          "type": "uint256"
        },
        {
          "internalType": "uint256",
          "name": "page",
          "type": "uint256"
        },
        {
          "internalType": "uint256",
          "name": "perPage",
          "type": "uint256"
        }
      ],
      "name": "getFramesUser",
      "outputs": [
        {
          "components": [
            {
              "internalType": "uint256",
              "name": "frameKey",
              "type": "uint256"
            },
            {
              "internalType": "uint256",
              "name": "rate",
              "type": "uint256"
            },
            {
              "internalType": "uint256[]",
              "name": "lotKeys",
              "type": "uint256[]"
            },
            {
              "internalType": "address",
              "name": "claimedBy",
              "type": "address"
            },
            {
              "internalType": "uint256",
              "name": "rateSettle",
              "type": "uint256"
            },
            {
              "internalType": "uint256",
              "name": "feeSettle",
              "type": "uint256"
            },
            {
              "internalType": "uint256",
              "name": "rewardSettle",
              "type": "uint256"
            },
            {
              "internalType": "uint256",
              "name": "feeReferral",
              "type": "uint256"
            }
          ],
          "internalType": "struct Market.Frame[]",
          "name": "userFrames",
          "type": "tuple[]"
        },
        {
          "internalType": "uint256",
          "name": "pagesLeft",
          "type": "uint256"
        }
      ],
      "stateMutability": "view",
      "type": "function"
    },
    {
      "inputs": [
        {
          "internalType": "contract Market",
          "name": "market",
          "type": "address"
        },
        {
          "internalType": "uint256",
          "name": "frameKey",
          "type": "uint256"
        },
        {
          "internalType": "uint256",
          "name": "index",
          "type": "uint256"
        }
      ],
      "name": "getLotKey",
      "outputs": [
        {
          "internalType": "uint256",
          "name": "",
          "type": "uint256"
        }
      ],
      "stateMutability": "view",
      "type": "function"
    },
    {
      "inputs": [
        {
          "internalType": "contract Market",
          "name": "market",
          "type": "address"
        },
        {
          "internalType": "uint256",
          "name": "frameKey",
          "type": "uint256"
        },
        {
          "internalType": "uint256",
          "name": "lotKey",
          "type": "uint256"
        }
      ],
      "name": "getLotStruct",
      "outputs": [
        {
          "components": [
            {
              "internalType": "uint256",
              "name": "frameKey",
              "type": "uint256"
            },
            {
              "internalType": "uint256",
              "name": "lotKey",
              "type": "uint256"
            },
            {
              "components": [
                {
                  "internalType": "uint256",
                  "name": "blockNumber",
                  "type": "uint256"
                },
                {
                  "internalType": "uint256",
                  "name": "blockTimestamp",
                  "type": "uint256"
                },
                {
                  "internalType": "address",
                  "name": "owner",
                  "type": "address"
                },
                {
                  "internalType": "uint256",
                  "name": "acquisitionPrice",
                  "type": "uint256"
                },
                {
                  "internalType": "uint256",
                  "name": "taxCharged",
                  "type": "uint256"
                },
                {
                  "internalType": "uint256",
                  "name": "taxRefunded",
                  "type": "uint256"
                }
              ],
              "internalType": "struct Market.LotState[]",
              "name": "states",
              "type": "tuple[]"
            }
          ],
          "internalType": "struct Market.Lot",
          "name": "",
          "type": "tuple"
        }
      ],
      "stateMutability": "view",
      "type": "function"
    },
    {
      "inputs": [
        {
          "internalType": "contract Market",
          "name": "market",
          "type": "address"
        },
        {
          "internalType": "uint256",
          "name": "frameKey_start",
          "type": "uint256"
        },
        {
          "internalType": "uint256",
          "name": "frameKey_end",
          "type": "uint256"
        },
        {
          "internalType": "uint256",
          "name": "page",
          "type": "uint256"
        },
        {
          "internalType": "uint256",
          "name": "perPage",
          "type": "uint256"
        }
      ],
      "name": "getLots",
      "outputs": [
        {
          "components": [
            {
              "internalType": "uint256",
              "name": "frameKey",
              "type": "uint256"
            },
            {
              "internalType": "uint256",
              "name": "lotKey",
              "type": "uint256"
            },
            {
              "components": [
                {
                  "internalType": "uint256",
                  "name": "blockNumber",
                  "type": "uint256"
                },
                {
                  "internalType": "uint256",
                  "name": "blockTimestamp",
                  "type": "uint256"
                },
                {
                  "internalType": "address",
                  "name": "owner",
                  "type": "address"
                },
                {
                  "internalType": "uint256",
                  "name": "acquisitionPrice",
                  "type": "uint256"
                },
                {
                  "internalType": "uint256",
                  "name": "taxCharged",
                  "type": "uint256"
                },
                {
                  "internalType": "uint256",
                  "name": "taxRefunded",
                  "type": "uint256"
                }
              ],
              "internalType": "struct Market.LotState[]",
              "name": "states",
              "type": "tuple[]"
            }
          ],
          "internalType": "struct Market.Lot[]",
          "name": "lots",
          "type": "tuple[]"
        },
        {
          "internalType": "uint256",
          "name": "pagesLeft",
          "type": "uint256"
        }
      ],
      "stateMutability": "view",
      "type": "function"
    },
    {
      "inputs": [
        {
          "internalType": "contract Market",
          "name": "market",
          "type": "address"
        },
        {
          "internalType": "uint256",
          "name": "frameKey",
          "type": "uint256"
        }
      ],
      "name": "getLotsCount",
      "outputs": [
        {
          "internalType": "uint256",
          "name": "",
          "type": "uint256"
        }
      ],
      "stateMutability": "view",
      "type": "function"
    },
    {
      "inputs": [
        {
          "internalType": "contract Market",
          "name": "market",
          "type": "address"
        },
        {
          "internalType": "address",
          "name": "user",
          "type": "address"
        },
        {
          "internalType": "uint256",
          "name": "mode",
          "type": "uint256"
        },
        {
          "internalType": "uint256",
          "name": "frameKey_start",
          "type": "uint256"
        },
        {
          "internalType": "uint256",
          "name": "frameKey_end",
          "type": "uint256"
        },
        {
          "internalType": "uint256",
          "name": "page",
          "type": "uint256"
        },
        {
          "internalType": "uint256",
          "name": "perPage",
          "type": "uint256"
        }
      ],
      "name": "getLotsUser",
      "outputs": [
        {
          "components": [
            {
              "internalType": "uint256",
              "name": "frameKey",
              "type": "uint256"
            },
            {
              "internalType": "uint256",
              "name": "lotKey",
              "type": "uint256"
            },
            {
              "components": [
                {
                  "internalType": "uint256",
                  "name": "blockNumber",
                  "type": "uint256"
                },
                {
                  "internalType": "uint256",
                  "name": "blockTimestamp",
                  "type": "uint256"
                },
                {
                  "internalType": "address",
                  "name": "owner",
                  "type": "address"
                },
                {
                  "internalType": "uint256",
                  "name": "acquisitionPrice",
                  "type": "uint256"
                },
                {
                  "internalType": "uint256",
                  "name": "taxCharged",
                  "type": "uint256"
                },
                {
                  "internalType": "uint256",
                  "name": "taxRefunded",
                  "type": "uint256"
                }
              ],
              "internalType": "struct Market.LotState[]",
              "name": "states",
              "type": "tuple[]"
            }
          ],
          "internalType": "struct Market.Lot[]",
          "name": "userLots",
          "type": "tuple[]"
        },
        {
          "internalType": "uint256",
          "name": "pagesLeft",
          "type": "uint256"
        }
      ],
      "stateMutability": "view",
      "type": "function"
    },
    {
      "inputs": [
        {
          "internalType": "contract Market",
          "name": "market",
          "type": "address"
        },
        {
          "internalType": "uint256",
          "name": "startFrame",
          "type": "uint256"
        },
        {
          "internalType": "uint256",
          "name": "numOfFrames",
          "type": "uint256"
        }
      ],
      "name": "getOpenFrameKeys",
      "outputs": [
        {
          "internalType": "uint256[]",
          "name": "openFrames",
          "type": "uint256[]"
        }
      ],
      "stateMutability": "view",
      "type": "function"
    },
    {
      "inputs": [
        {
          "internalType": "contract Market",
          "name": "market",
          "type": "address"
        },
        {
          "internalType": "uint256",
          "name": "frameKey",
          "type": "uint256"
        }
      ],
      "name": "getRewardAmount",
      "outputs": [
        {
          "internalType": "uint256",
          "name": "",
          "type": "uint256"
        }
      ],
      "stateMutability": "view",
      "type": "function"
    },
    {
      "inputs": [
        {
          "internalType": "contract Market",
          "name": "market",
          "type": "address"
        },
        {
          "internalType": "uint256",
          "name": "frameKey",
          "type": "uint256"
        }
      ],
      "name": "getRewardAmountMin",
      "outputs": [
        {
          "internalType": "uint256",
          "name": "",
          "type": "uint256"
        }
      ],
      "stateMutability": "view",
      "type": "function"
    }
  ],
  "bytecode": "0x608060405234801561001057600080fd5b50612fe7806100206000396000f3fe608060405234801561001057600080fd5b50600436106100cf5760003560e01c8063c1d013951161008c578063de73259511610066578063de732595146101d5578063f2580f26146101e8578063f6eb9ee7146101fe578063f91cbebe1461021157600080fd5b8063c1d013951461018f578063da4e8556146101a2578063dbd20a88146101b557600080fd5b80632c79854f146100d45780634314b84f146100fa578063612d8b501461011a57806371b08d891461013b5780637f424a371461015c5780639291178e1461017c575b600080fd5b6100e76100e23660046127b6565b610224565b6040519081526020015b60405180910390f35b61010d6101083660046127b6565b6102bd565b6040516100f19190612884565b61012d610128366004612897565b6105c3565b6040516100f1929190612981565b61014e6101493660046129ea565b61093a565b6040516100f1929190612a4c565b61016f61016a366004612aa3565b611288565b6040516100f19190612acf565b6100e761018a366004612aa3565b6113a4565b6100e761019d366004612ae2565b61141f565b6100e76101b0366004612aa3565b611714565b6101c86101c33660046127b6565b611820565b6040516100f19190612b1d565b6100e76101e3366004612ae2565b611a6f565b6100e76101f6366004612aa3565b600092915050565b61012d61020c366004612b61565b611cd6565b61014e61021f366004612897565b6121fc565b604051630122bf3160e51b81526004810183905260009081906001600160a01b03861690632457e62090602401600060405180830381865afa15801561026e573d6000803e3d6000fd5b505050506040513d6000823e601f3d908101601f191682016040526102969190810190612c4e565b90508083815181106102aa576102aa612cd9565b60200260200101519150505b9392505050565b6102e160405180606001604052806000815260200160008152602001606081525090565b61030e6040518060400160405280600c81526020016b19d95d131bdd14dd1c9d58dd60a21b815250612660565b61033260405180606001604052806000815260200160008152602001606081525090565b6103606040518060400160405280600c81526020016b6672616d654b65793a20257360a01b815250856126a6565b60405163b93dafa960e01b815260048101859052602481018490526001600160a01b0386169063b93dafa9906044016040805180830381865afa1580156103ab573d6000803e3d6000fd5b505050506040513d601f19601f820116820180604052508101906103cf9190612cef565b60208084019190915290825260408051808201909152601081526f6c6f742e6672616d654b65793a20257360801b91810191909152815161041091906126a6565b60405163fb0d5e0960e01b815260048101859052602481018490526000906001600160a01b0387169063fb0d5e0990604401600060405180830381865afa15801561045f573d6000803e3d6000fd5b505050506040513d6000823e601f3d908101601f191682016040526104879190810190612d13565b90506104c0604051806040016040528060148152602001736c6f745374617465732e6c656e6774683a20257360601b81525082516126a6565b80516000036105055760408051600180825281830190925290816020015b6104e6612714565b8152602001906001900390816104de57505060408301525090506102b6565b805167ffffffffffffffff81111561051f5761051f612bba565b60405190808252806020026020018201604052801561055857816020015b610545612714565b81526020019060019003908161053d5790505b50604083015260005b81518110156105b85781818151811061057c5761057c612cd9565b60200260200101518360400151828151811061059a5761059a612cd9565b602002602001018190525080806105b090612e0e565b915050610561565b509095945050505050565b606060008267ffffffffffffffff8111156105e0576105e0612bba565b60405190808252806020026020018201604052801561061957816020015b610606612753565b8152602001906001900390816105fe5790505b509150610624612753565b6040805160038082526080820190925260009160208201606080368337019050509050886001600160a01b031663ef78d4fd6040518163ffffffff1660e01b8152600401602060405180830381865afa158015610685573d6000803e3d6000fd5b505050506040513d601f19601f820116820180604052508101906106a99190612e27565b816002815181106106bc576106bc612cd9565b6020908102919091010152875b8781116108b9576106da8a82611288565b92506000835160405163bad1265360e01b815260048101919091526001600160a01b038c169063bad1265390602401602060405180830381865afa158015610726573d6000803e3d6000fd5b505050506040513d601f19601f8201168201806040525081019061074a9190612e56565b600481111561075b5761075b612e40565b1461088c5761076a8688612e77565b8260008151811061077d5761077d612cd9565b6020026020010151101580156107c157508561079a886001612e8e565b6107a49190612e77565b826000815181106107b7576107b7612cd9565b6020026020010151105b15610845578285836001815181106107db576107db612cd9565b6020026020010151815181106107f3576107f3612cd9565b60200260200101819052508160018151811061081157610811612cd9565b602002602001015160016108259190612e8e565b8260018151811061083857610838612cd9565b6020026020010181815250505b8160008151811061085857610858612cd9565b6020026020010151600161086c9190612e8e565b8260008151811061087f5761087f612cd9565b6020026020010181815250505b8160028151811061089f5761089f612cd9565b6020026020010151816108b29190612e8e565b90506106c9565b50846108c6876001612e8e565b6108d09190612e77565b816000815181106108e3576108e3612cd9565b602002602001015111156109295785858260008151811061090657610906612cd9565b60200260200101516109189190612ea1565b6109229190612ec3565b925061092e565b600092505b50509550959350505050565b60606000610949836001612e8e565b67ffffffffffffffff81111561096157610961612bba565b6040519080825280602002602001820160405280156109b657816020015b6109a360405180606001604052806000815260200160008152602001606081525090565b81526020019060019003908161097f5790505b50604080516003808252608082019092529193506000916060918391906020820184803683370190505090508b6001600160a01b031663ef78d4fd6040518163ffffffff1660e01b8152600401602060405180830381865afa158015610a20573d6000803e3d6000fd5b505050506040513d601f19601f82011682018060405250810190610a449190612e27565b81600281518110610a5757610a57612cd9565b60200260200101818152505060018a11610e1957885b888111610e175760405163bad1265360e01b8152600481018290526001600160a01b038e169063bad1265390602401602060405180830381865afa158015610ab9573d6000803e3d6000fd5b505050506040513d601f19601f82011682018060405250810190610add9190612e56565b93506001846004811115610af357610af3612e40565b03610dea57604051630122bf3160e51b8152600481018290526001600160a01b038e1690632457e62090602401600060405180830381865afa158015610b3d573d6000803e3d6000fd5b505050506040513d6000823e601f3d908101601f19168201604052610b659190810190612c4e565b925060005b8351811015610de857610b978e83868481518110610b8a57610b8a612cd9565b60200260200101516102bd565b878981518110610ba957610ba9612cd9565b602002602001018190525060008e6001600160a01b031663fb0d5e0984878581518110610bd857610bd8612cd9565b60200260200101516040518363ffffffff1660e01b8152600401610c06929190918252602082015260400190565b600060405180830381865afa158015610c23573d6000803e3d6000fd5b505050506040513d6000823e601f3d908101601f19168201604052610c4b9190810190612d13565b90508d6001600160a01b03168160018351610c669190612ec3565b81518110610c7657610c76612cd9565b6020026020010151604001516001600160a01b031603610dd557610c9a898b612e77565b84600081518110610cad57610cad612cd9565b602002602001015110158015610cf1575088610cca8b6001612e8e565b610cd49190612e77565b84600081518110610ce757610ce7612cd9565b6020026020010151105b15610d8e57878981518110610d0857610d08612cd9565b60200260200101518885600181518110610d2457610d24612cd9565b602002602001015181518110610d3c57610d3c612cd9565b602002602001018190525083600181518110610d5a57610d5a612cd9565b60200260200101516001610d6e9190612e8e565b84600181518110610d8157610d81612cd9565b6020026020010181815250505b83600081518110610da157610da1612cd9565b60200260200101516001610db59190612e8e565b84600081518110610dc857610dc8612cd9565b6020026020010181815250505b5080610de081612e0e565b915050610b6a565b505b81600281518110610dfd57610dfd612cd9565b602002602001015181610e109190612e8e565b9050610a6d565b505b8960021480610e26575089155b1561120557885b8881116112035760405163bad1265360e01b8152600481018290526001600160a01b038e169063bad1265390602401602060405180830381865afa158015610e79573d6000803e3d6000fd5b505050506040513d601f19601f82011682018060405250810190610e9d9190612e56565b93506002846004811115610eb357610eb3612e40565b1480610ed057506004846004811115610ece57610ece612e40565b145b80610eec57506003846004811115610eea57610eea612e40565b145b156111d657604051630122bf3160e51b8152600481018290526001600160a01b038e1690632457e62090602401600060405180830381865afa158015610f36573d6000803e3d6000fd5b505050506040513d6000823e601f3d908101601f19168201604052610f5e9190810190612c4e565b925060005b83518110156111d457610f838e83868481518110610b8a57610b8a612cd9565b878981518110610f9557610f95612cd9565b602002602001018190525060008e6001600160a01b031663fb0d5e0984878581518110610fc457610fc4612cd9565b60200260200101516040518363ffffffff1660e01b8152600401610ff2929190918252602082015260400190565b600060405180830381865afa15801561100f573d6000803e3d6000fd5b505050506040513d6000823e601f3d908101601f191682016040526110379190810190612d13565b90508d6001600160a01b031681600183516110529190612ec3565b8151811061106257611062612cd9565b6020026020010151604001516001600160a01b0316036111c157611086898b612e77565b8460008151811061109957611099612cd9565b6020026020010151101580156110dd5750886110b68b6001612e8e565b6110c09190612e77565b846000815181106110d3576110d3612cd9565b6020026020010151105b1561117a578789815181106110f4576110f4612cd9565b6020026020010151888560018151811061111057611110612cd9565b60200260200101518151811061112857611128612cd9565b60200260200101819052508360018151811061114657611146612cd9565b6020026020010151600161115a9190612e8e565b8460018151811061116d5761116d612cd9565b6020026020010181815250505b8360008151811061118d5761118d612cd9565b602002602001015160016111a19190612e8e565b846000815181106111b4576111b4612cd9565b6020026020010181815250505b50806111cc81612e0e565b915050610f63565b505b816002815181106111e9576111e9612cd9565b6020026020010151816111fc9190612e8e565b9050610e2d565b505b85611211886001612e8e565b61121b9190612e77565b8160008151811061122e5761122e612cd9565b602002602001015111156112745786868260008151811061125157611251612cd9565b60200260200101516112639190612ea1565b61126d9190612ec3565b9350611279565b600093505b50505097509795505050505050565b611290612753565b611298612753565b604051632840d02f60e21b8152600481018490526001600160a01b0385169063a10340bc9060240160e060405180830381865afa1580156112dd573d6000803e3d6000fd5b505050506040513d601f19601f820116820180604052508101906113019190612ed6565b60e088015260c087015260a086015260808501526001600160a01b0390811660608501526020840191909152908252604051630122bf3160e51b81526004810185905290851690632457e62090602401600060405180830381865afa15801561136e573d6000803e3d6000fd5b505050506040513d6000823e601f3d908101601f191682016040526113969190810190612c4e565b604082015290505b92915050565b604051630122bf3160e51b81526004810182905260009081906001600160a01b03851690632457e62090602401600060405180830381865afa1580156113ee573d6000803e3d6000fd5b505050506040513d6000823e601f3d908101601f191682016040526114169190810190612c4e565b51949350505050565b6040516361eee2cb60e01b81526004810184905260009081906001600160a01b038716906361eee2cb90602401602060405180830381865afa158015611469573d6000803e3d6000fd5b505050506040513d601f19601f8201168201806040525081019061148d9190612e27565b6040516361eee2cb60e01b81524260048201529091506001600160a01b038716906361eee2cb90602401602060405180830381865afa1580156114d4573d6000803e3d6000fd5b505050506040513d601f19601f820116820180604052508101906114f89190612e27565b81101561154c5760405162461bcd60e51b815260206004820152601b60248201527f54484953204c4f5420495320494e20412050415354204652414d45000000000060448201526064015b60405180910390fd5b6000806115c388848a6001600160a01b0316639592de188a6040518263ffffffff1660e01b815260040161158291815260200190565b602060405180830381865afa15801561159f573d6000803e3d6000fd5b505050506040513d601f19601f820116820180604052508101906101089190612e27565b60408101518051919250906115da90600190612ec3565b815181106115ea576115ea612cd9565b60200260200101516060015191506000886001600160a01b031663e107fb4f85856040518363ffffffff1660e01b8152600401611631929190918252602082015260400190565b602060405180830381865afa15801561164e573d6000803e3d6000fd5b505050506040513d601f19601f820116820180604052508101906116729190612e27565b60405163e107fb4f60e01b815260048101869052602481018890529091506000906001600160a01b038b169063e107fb4f90604401602060405180830381865afa1580156116c4573d6000803e3d6000fd5b505050506040513d601f19601f820116820180604052508101906116e89190612e27565b90508082106116fa5760009550611707565b6117048282612ec3565b95505b5050505050949350505050565b6000806117218484611288565b6040516339a6a48960e01b8152600481018590529091506000906001600160a01b038616906339a6a48990602401602060405180830381865afa15801561176c573d6000803e3d6000fd5b505050506040513d601f19601f820116820180604052508101906117909190612e27565b90506000856001600160a01b031663527eb4bc6040518163ffffffff1660e01b8152600401602060405180830381865afa1580156117d2573d6000803e3d6000fd5b505050506040513d601f19601f820116820180604052508101906117f69190612e27565b905060008360e00151828461180b9190612ec3565b6118159190612ec3565b979650505050505050565b60608167ffffffffffffffff81111561183b5761183b612bba565b604051908082528060200260200182016040528015611864578160200160208202803683370190505b5090506000611871612753565b60005b848111611a6557600081886001600160a01b031663ef78d4fd6040518163ffffffff1660e01b8152600401602060405180830381865afa1580156118bc573d6000803e3d6000fd5b505050506040513d601f19601f820116820180604052508101906118e09190612e27565b6118ea9190612e77565b6118f49088612e8e565b90506119008882611288565b92506119456040518060400160405280601781526020017f534f4c3a206672616d652e6672616d654b65793a20257300000000000000000081525084600001516126a6565b825160405163bad1265360e01b81526000916001600160a01b038b169163bad12653916119789160040190815260200190565b602060405180830381865afa158015611995573d6000803e3d6000fd5b505050506040513d601f19601f820116820180604052508101906119b99190612e56565b905060018160048111156119cf576119cf612e40565b14806119ec575060038160048111156119ea576119ea612e40565b145b15611a5057611a246040518060400160405280601281526020017129a7a61d10333930b6b29034b99037b832b760711b815250612660565b81868681518110611a3757611a37612cd9565b602090810291909101015284611a4c81612e0e565b9550505b50508080611a5d90612e0e565b915050611874565b5050509392505050565b6040516361eee2cb60e01b81526004810184905260009081906001600160a01b038716906361eee2cb90602401602060405180830381865afa158015611ab9573d6000803e3d6000fd5b505050506040513d601f19601f82011682018060405250810190611add9190612e27565b905042866001600160a01b031663ef78d4fd6040518163ffffffff1660e01b8152600401602060405180830381865afa158015611b1e573d6000803e3d6000fd5b505050506040513d601f19601f82011682018060405250810190611b429190612e27565b611b4c9083612e8e565b1015611b9a5760405162461bcd60e51b815260206004820152601d60248201527f4672616d652068617320746f20626520696e20746865206675747572650000006044820152606401611543565b6040516312b25bc360e31b8152600481018590526000906001600160a01b03881690639592de1890602401602060405180830381865afa158015611be2573d6000803e3d6000fd5b505050506040513d601f19601f82011682018060405250810190611c069190612e27565b60405163e107fb4f60e01b815260048101849052602481018690529091506000906001600160a01b0389169063e107fb4f90604401602060405180830381865afa158015611c58573d6000803e3d6000fd5b505050506040513d601f19601f82011682018060405250810190611c7c9190612e27565b90506000611c8b8985856102bd565b604081015180519192508391611ca390600190612ec3565b81518110611cb357611cb3612cd9565b602002602001015160600151611cc99190612e8e565b9998505050505050505050565b606060008267ffffffffffffffff811115611cf357611cf3612bba565b604051908082528060200260200182016040528015611d2c57816020015b611d19612753565b815260200190600190039081611d115790505b5060408051600480825260a08201909252919350600091829160208201608080368337019050509050896001600160a01b031663ef78d4fd6040518163ffffffff1660e01b8152600401602060405180830381865afa158015611d93573d6000803e3d6000fd5b505050506040513d601f19601f82011682018060405250810190611db79190612e27565b81600281518110611dca57611dca612cd9565b60209081029190910101526060885b8881116121795760405163bad1265360e01b8152600481018290526001600160a01b038d169063bad1265390602401602060405180830381865afa158015611e25573d6000803e3d6000fd5b505050506040513d601f19601f82011682018060405250810190611e499190612e56565b93506000846004811115611e5f57611e5f612e40565b1461214c57604051630122bf3160e51b8152600481018290526001600160a01b038d1690632457e62090602401600060405180830381865afa158015611ea9573d6000803e3d6000fd5b505050506040513d6000823e601f3d908101601f19168201604052611ed19190810190612c4e565b915060005b825181101561214a5760008d6001600160a01b031663fb0d5e0984868581518110611f0357611f03612cd9565b60200260200101516040518363ffffffff1660e01b8152600401611f31929190918252602082015260400190565b600060405180830381865afa158015611f4e573d6000803e3d6000fd5b505050506040513d6000823e601f3d908101601f19168201604052611f769190810190612d13565b90508c6001600160a01b03168160018351611f919190612ec3565b81518110611fa157611fa1612cd9565b6020026020010151604001516001600160a01b0316148015611fdd57508285600381518110611fd257611fd2612cd9565b602002602001015114155b1561213757611fec898b612e77565b85600081518110611fff57611fff612cd9565b60200260200101511015801561204357508861201c8b6001612e8e565b6120269190612e77565b8560008151811061203957612039612cd9565b6020026020010151105b156120d0576120528e84611288565b888660018151811061206657612066612cd9565b60200260200101518151811061207e5761207e612cd9565b60200260200101819052508460018151811061209c5761209c612cd9565b602002602001015160016120b09190612e8e565b856001815181106120c3576120c3612cd9565b6020026020010181815250505b846000815181106120e3576120e3612cd9565b602002602001015160016120f79190612e8e565b8560008151811061210a5761210a612cd9565b602002602001018181525050828560038151811061212a5761212a612cd9565b6020026020010181815250505b508061214281612e0e565b915050611ed6565b505b8260028151811061215f5761215f612cd9565b6020026020010151816121729190612e8e565b9050611dd9565b5085612186886001612e8e565b6121909190612e77565b826000815181106121a3576121a3612cd9565b602002602001015111156121e9578686836000815181106121c6576121c6612cd9565b60200260200101516121d89190612ea1565b6121e29190612ec3565b93506121ee565b600093505b505050965096945050505050565b60606000612228604051806040016040528060078152602001666765744c6f747360c81b815250612660565b8486111561229e5760405162461bcd60e51b815260206004820152603760248201527f6672616d654b65795f7374617274206d75737420626520736d616c6c6572206f60448201527f7220657175616c20746f206672616d654b65795f656e640000000000000000006064820152608401611543565b8267ffffffffffffffff8111156122b7576122b7612bba565b60405190808252806020026020018201604052801561230c57816020015b6122f960405180606001604052806000815260200160008152602001606081525090565b8152602001906001900390816122d55790505b5060408051600380825260808201909252919350606091600091602082018480368337019050509050886001600160a01b031663ef78d4fd6040518163ffffffff1660e01b8152600401602060405180830381865afa158015612373573d6000803e3d6000fd5b505050506040513d601f19601f820116820180604052508101906123979190612e27565b816002815181106123aa576123aa612cd9565b6020026020010181815250506123e9604051806040016040528060128152602001710534f4c3a205374617274696e67206c6f6f760741b815250612660565b875b8781116108b9576124206040518060400160405280600c81526020016b6672616d654b65793a20257360a01b815250826126a6565b604051630122bf3160e51b8152600481018290526001600160a01b038b1690632457e62090602401600060405180830381865afa158015612465573d6000803e3d6000fd5b505050506040513d6000823e601f3d908101601f1916820160405261248d9190810190612c4e565b925060005b8351811015612632576124e06040518060400160405280600a8152602001696c6f744b65793a20257360b01b8152508583815181106124d3576124d3612cd9565b60200260200101516126a6565b6124ea8789612e77565b836000815181106124fd576124fd612cd9565b60200260200101511015801561254157508661251a896001612e8e565b6125249190612e77565b8360008151811061253757612537612cd9565b6020026020010151105b156125db5761255d8b83868481518110610b8a57610b8a612cd9565b868460018151811061257157612571612cd9565b60200260200101518151811061258957612589612cd9565b6020026020010181905250826001815181106125a7576125a7612cd9565b602002602001015160016125bb9190612e8e565b836001815181106125ce576125ce612cd9565b6020026020010181815250505b826000815181106125ee576125ee612cd9565b602002602001015160016126029190612e8e565b8360008151811061261557612615612cd9565b60209081029190910101528061262a81612e0e565b915050612492565b508160028151811061264657612646612cd9565b6020026020010151816126599190612e8e565b90506123eb565b6126a3816040516024016126749190612f7c565b60408051601f198184030181529190526020810180516001600160e01b031663104c13eb60e21b1790526126ef565b50565b6126eb82826040516024016126bc929190612f8f565b60408051601f198184030181529190526020810180516001600160e01b0316632d839cb360e21b1790526126ef565b5050565b6126a38160006a636f6e736f6c652e6c6f679050600080835160208501845afa505050565b6040518060c00160405280600081526020016000815260200160006001600160a01b031681526020016000815260200160008152602001600081525090565b60405180610100016040528060008152602001600081526020016060815260200160006001600160a01b03168152602001600081526020016000815260200160008152602001600081525090565b6001600160a01b03811681146126a357600080fd5b6000806000606084860312156127cb57600080fd5b83356127d6816127a1565b95602085013595506040909401359392505050565b600060608084018351855260208085015181870152604080860151848289015283815180865260809550858a019150848301925060005b81811015612875578351805184528681015187850152858101516001600160a01b0316868501528881015189850152878101518885015260a090810151908401529285019260c090920191600101612822565b50909998505050505050505050565b6020815260006102b660208301846127eb565b600080600080600060a086880312156128af57600080fd5b85356128ba816127a1565b97602087013597506040870135966060810135965060800135945092505050565b805182526020808201518184015260408083015161010091850182905280519185018290526000926101208601929181019184905b808210156129305783518552938201939282019260019190910190612910565b50505050606083015161294e60608601826001600160a01b03169052565b506080830151608085015260a083015160a085015260c083015160c085015260e083015160e08501528091505092915050565b6000604082016040835280855180835260608501915060608160051b8601019250602080880160005b838110156129d857605f198887030185526129c68683516128db565b955093820193908201906001016129aa565b50509490940194909452949350505050565b600080600080600080600060e0888a031215612a0557600080fd5b8735612a10816127a1565b96506020880135612a20816127a1565b96999698505050506040850135946060810135946080820135945060a0820135935060c0909101359150565b6000604082016040835280855180835260608501915060608160051b8601019250602080880160005b838110156129d857605f19888703018552612a918683516127eb565b95509382019390820190600101612a75565b60008060408385031215612ab657600080fd5b8235612ac1816127a1565b946020939093013593505050565b6020815260006102b660208301846128db565b60008060008060808587031215612af857600080fd5b8435612b03816127a1565b966020860135965060408601359560600135945092505050565b6020808252825182820181905260009190848201906040850190845b81811015612b5557835183529284019291840191600101612b39565b50909695505050505050565b60008060008060008060c08789031215612b7a57600080fd5b8635612b85816127a1565b95506020870135612b95816127a1565b95989597505050506040840135936060810135936080820135935060a0909101359150565b634e487b7160e01b600052604160045260246000fd5b60405160c0810167ffffffffffffffff81118282101715612bf357612bf3612bba565b60405290565b604051601f8201601f1916810167ffffffffffffffff81118282101715612c2257612c22612bba565b604052919050565b600067ffffffffffffffff821115612c4457612c44612bba565b5060051b60200190565b60006020808385031215612c6157600080fd5b825167ffffffffffffffff811115612c7857600080fd5b8301601f81018513612c8957600080fd5b8051612c9c612c9782612c2a565b612bf9565b81815260059190911b82018301908381019087831115612cbb57600080fd5b928401925b8284101561181557835182529284019290840190612cc0565b634e487b7160e01b600052603260045260246000fd5b60008060408385031215612d0257600080fd5b505080516020909101519092909150565b60006020808385031215612d2657600080fd5b825167ffffffffffffffff811115612d3d57600080fd5b8301601f81018513612d4e57600080fd5b8051612d5c612c9782612c2a565b81815260c09182028301840191848201919088841115612d7b57600080fd5b938501935b83851015612dec5780858a031215612d985760008081fd5b612da0612bd0565b855181528686015187820152604080870151612dbb816127a1565b90820152606086810151908201526080808701519082015260a0808701519082015283529384019391850191612d80565b50979650505050505050565b634e487b7160e01b600052601160045260246000fd5b600060018201612e2057612e20612df8565b5060010190565b600060208284031215612e3957600080fd5b5051919050565b634e487b7160e01b600052602160045260246000fd5b600060208284031215612e6857600080fd5b8151600581106102b657600080fd5b808202811582820484141761139e5761139e612df8565b8082018082111561139e5761139e612df8565b600082612ebe57634e487b7160e01b600052601260045260246000fd5b500490565b8181038181111561139e5761139e612df8565b600080600080600080600060e0888a031215612ef157600080fd5b87519650602088015195506040880151612f0a816127a1565b80955050606088015193506080880151925060a0880151915060c0880151905092959891949750929550565b6000815180845260005b81811015612f5c57602081850181015186830182015201612f40565b506000602082860101526020601f19601f83011685010191505092915050565b6020815260006102b66020830184612f36565b604081526000612fa26040830185612f36565b9050826020830152939250505056fea2646970667358221220429c247829aff89358ce809d921d96e163d56cf072835118644d952d3db766fc64736f6c63430008140033",
  "linkReferences": {},
  "deployedLinkReferences": {}
}