{
  "_format": "hh-sol-artifact-1",
  "contractName": "MarketGetter",
  "sourceName": "contracts/MarketGetter.sol",
  "abi": [
    {
      "inputs": [
        {
          "internalType": "contract Market",
          "name": "market",
          "type": "address"
        },
        {
          "internalType": "uint256",
          "name": "timestamp",
          "type": "uint256"
        },
        {
          "internalType": "uint256",
          "name": "pairPrice",
          "type": "uint256"
        },
        {
          "internalType": "uint256",
          "name": "acqPrice",
          "type": "uint256"
        }
      ],
      "name": "clcAmountToApprove",
      "outputs": [
        {
          "internalType": "uint256",
          "name": "cmpltAmnt",
          "type": "uint256"
        }
      ],
      "stateMutability": "view",
      "type": "function"
    },
    {
      "inputs": [
        {
          "internalType": "contract Market",
          "name": "market",
          "type": "address"
        },
        {
          "internalType": "uint256",
          "name": "timestamp",
          "type": "uint256"
        },
        {
          "internalType": "uint256",
          "name": "pairPrice",
          "type": "uint256"
        },
        {
          "internalType": "uint256",
          "name": "acqPrice",
          "type": "uint256"
        }
      ],
      "name": "clcAmountToApproveForUpdate",
      "outputs": [
        {
          "internalType": "uint256",
          "name": "amnt",
          "type": "uint256"
        }
      ],
      "stateMutability": "view",
      "type": "function"
    },
    {
      "inputs": [
        {
          "internalType": "contract Market",
          "name": "market",
          "type": "address"
        },
        {
          "internalType": "uint256",
          "name": "frameKey",
          "type": "uint256"
        }
      ],
      "name": "clcPrice",
      "outputs": [
        {
          "internalType": "uint256",
          "name": "avgPrice",
          "type": "uint256"
        }
      ],
      "stateMutability": "view",
      "type": "function"
    },
    {
      "inputs": [
        {
          "internalType": "contract Market",
          "name": "market",
          "type": "address"
        },
        {
          "internalType": "uint256",
          "name": "frameKey",
          "type": "uint256"
        }
      ],
      "name": "getFrameStruct",
      "outputs": [
        {
          "components": [
            {
              "internalType": "uint256",
              "name": "frameKey",
              "type": "uint256"
            },
            {
              "internalType": "uint256",
              "name": "oracleTimestampStart",
              "type": "uint256"
            },
            {
              "internalType": "uint256",
              "name": "oracleTimestampEnd",
              "type": "uint256"
            },
            {
              "internalType": "uint256",
              "name": "rewardFund",
              "type": "uint256"
            },
            {
              "internalType": "uint256",
              "name": "priceAverage",
              "type": "uint256"
            },
            {
              "internalType": "uint256",
              "name": "oraclePrice0CumulativeStart",
              "type": "uint256"
            },
            {
              "internalType": "uint256",
              "name": "oraclePrice0CumulativeEnd",
              "type": "uint256"
            },
            {
              "internalType": "uint256",
              "name": "oraclePrice1CumulativeStart",
              "type": "uint256"
            },
            {
              "internalType": "uint256",
              "name": "oraclePrice1CumulativeEnd",
              "type": "uint256"
            },
            {
              "internalType": "enum MLib.SFrame",
              "name": "state",
              "type": "uint8"
            },
            {
              "internalType": "uint256[]",
              "name": "lotKeys",
              "type": "uint256[]"
            }
          ],
          "internalType": "struct MLib.Frame",
          "name": "",
          "type": "tuple"
        }
      ],
      "stateMutability": "view",
      "type": "function"
    },
    {
      "inputs": [
        {
          "internalType": "contract Market",
          "name": "market",
          "type": "address"
        },
        {
          "internalType": "uint256",
          "name": "timestamp_start",
          "type": "uint256"
        },
        {
          "internalType": "uint256",
          "name": "timestamp_end",
          "type": "uint256"
        },
        {
          "internalType": "uint256",
          "name": "page",
          "type": "uint256"
        },
        {
          "internalType": "uint256",
          "name": "perPage",
          "type": "uint256"
        }
      ],
      "name": "getFrames",
      "outputs": [
        {
          "components": [
            {
              "internalType": "uint256",
              "name": "frameKey",
              "type": "uint256"
            },
            {
              "internalType": "uint256",
              "name": "oracleTimestampStart",
              "type": "uint256"
            },
            {
              "internalType": "uint256",
              "name": "oracleTimestampEnd",
              "type": "uint256"
            },
            {
              "internalType": "uint256",
              "name": "rewardFund",
              "type": "uint256"
            },
            {
              "internalType": "uint256",
              "name": "priceAverage",
              "type": "uint256"
            },
            {
              "internalType": "uint256",
              "name": "oraclePrice0CumulativeStart",
              "type": "uint256"
            },
            {
              "internalType": "uint256",
              "name": "oraclePrice0CumulativeEnd",
              "type": "uint256"
            },
            {
              "internalType": "uint256",
              "name": "oraclePrice1CumulativeStart",
              "type": "uint256"
            },
            {
              "internalType": "uint256",
              "name": "oraclePrice1CumulativeEnd",
              "type": "uint256"
            },
            {
              "internalType": "enum MLib.SFrame",
              "name": "state",
              "type": "uint8"
            },
            {
              "internalType": "uint256[]",
              "name": "lotKeys",
              "type": "uint256[]"
            }
          ],
          "internalType": "struct MLib.Frame[]",
          "name": "frames",
          "type": "tuple[]"
        },
        {
          "internalType": "uint256",
          "name": "pagesLeft",
          "type": "uint256"
        }
      ],
      "stateMutability": "view",
      "type": "function"
    },
    {
      "inputs": [
        {
          "internalType": "contract Market",
          "name": "market",
          "type": "address"
        },
        {
          "internalType": "uint256",
          "name": "frameKey",
          "type": "uint256"
        },
        {
          "internalType": "uint256",
          "name": "index",
          "type": "uint256"
        }
      ],
      "name": "getLotKey",
      "outputs": [
        {
          "internalType": "uint256",
          "name": "",
          "type": "uint256"
        }
      ],
      "stateMutability": "view",
      "type": "function"
    },
    {
      "inputs": [
        {
          "internalType": "contract Market",
          "name": "market",
          "type": "address"
        },
        {
          "internalType": "uint256",
          "name": "frameKey",
          "type": "uint256"
        },
        {
          "internalType": "uint256",
          "name": "lotKey",
          "type": "uint256"
        }
      ],
      "name": "getLotStruct",
      "outputs": [
        {
          "components": [
            {
              "internalType": "uint256",
              "name": "frameKey",
              "type": "uint256"
            },
            {
              "internalType": "uint256",
              "name": "lotKey",
              "type": "uint256"
            },
            {
              "internalType": "address",
              "name": "lotOwner",
              "type": "address"
            },
            {
              "internalType": "uint256",
              "name": "acquisitionPrice",
              "type": "uint256"
            },
            {
              "internalType": "enum MLib.SLot",
              "name": "state",
              "type": "uint8"
            }
          ],
          "internalType": "struct MLib.Lot",
          "name": "",
          "type": "tuple"
        }
      ],
      "stateMutability": "view",
      "type": "function"
    },
    {
      "inputs": [
        {
          "internalType": "contract Market",
          "name": "market",
          "type": "address"
        },
        {
          "internalType": "uint256",
          "name": "frameKey",
          "type": "uint256"
        }
      ],
      "name": "getLotsCount",
      "outputs": [
        {
          "internalType": "uint256",
          "name": "",
          "type": "uint256"
        }
      ],
      "stateMutability": "view",
      "type": "function"
    },
    {
      "inputs": [
        {
          "internalType": "contract Market",
          "name": "market",
          "type": "address"
        },
        {
          "internalType": "address",
          "name": "user",
          "type": "address"
        }
      ],
      "name": "getNumOfUserFrames",
      "outputs": [
        {
          "internalType": "uint256",
          "name": "",
          "type": "uint256"
        }
      ],
      "stateMutability": "view",
      "type": "function"
    },
    {
      "inputs": [
        {
          "internalType": "contract Market",
          "name": "market",
          "type": "address"
        },
        {
          "internalType": "uint256",
          "name": "startFrame",
          "type": "uint256"
        },
        {
          "internalType": "uint256",
          "name": "numOfFrames",
          "type": "uint256"
        }
      ],
      "name": "getOpenFrameKeys",
      "outputs": [
        {
          "internalType": "uint256[]",
          "name": "openFrames",
          "type": "uint256[]"
        }
      ],
      "stateMutability": "view",
      "type": "function"
    },
    {
      "inputs": [
        {
          "internalType": "contract Market",
          "name": "market",
          "type": "address"
        },
        {
          "internalType": "address",
          "name": "user",
          "type": "address"
        }
      ],
      "name": "getUserFrames",
      "outputs": [
        {
          "internalType": "uint256[]",
          "name": "",
          "type": "uint256[]"
        }
      ],
      "stateMutability": "view",
      "type": "function"
    },
    {
      "inputs": [
        {
          "internalType": "contract Market",
          "name": "market",
          "type": "address"
        },
        {
          "internalType": "address",
          "name": "user",
          "type": "address"
        }
      ],
      "name": "getUserLots",
      "outputs": [
        {
          "components": [
            {
              "internalType": "uint256",
              "name": "frameKey",
              "type": "uint256"
            },
            {
              "internalType": "uint256",
              "name": "lotKey",
              "type": "uint256"
            },
            {
              "internalType": "address",
              "name": "lotOwner",
              "type": "address"
            },
            {
              "internalType": "uint256",
              "name": "acquisitionPrice",
              "type": "uint256"
            },
            {
              "internalType": "enum MLib.SLot",
              "name": "state",
              "type": "uint8"
            }
          ],
          "internalType": "struct MLib.Lot[]",
          "name": "userLots",
          "type": "tuple[]"
        }
      ],
      "stateMutability": "view",
      "type": "function"
    }
  ],
  "bytecode": "0x608060405234801561001057600080fd5b5061305d806100206000396000f3fe608060405234801561001057600080fd5b50600436106100b45760003560e01c80639291178e116100715780639291178e146101da578063b90953be1461020a578063c1d013951461023a578063dbd20a881461026a578063de7325951461029a578063ee707ed9146102ca576100b4565b80631f021a61146100b95780632c79854f146100e95780634314b84f14610119578063612d8b5014610149578063725d9a611461017a5780637f424a37146101aa575b600080fd5b6100d360048036038101906100ce91906121f2565b6102fa565b6040516100e09190612a79565b60405180910390f35b61010360048036038101906100fe919061226a565b610392565b6040516101109190612af8565b60405180910390f35b610133600480360381019061012e919061226a565b610470565b6040516101409190612add565b60405180910390f35b610163600480360381019061015e919061231c565b6105df565b604051610171929190612a27565b60405180910390f35b610194600480360381019061018f91906121f2565b610874565b6040516101a19190612a57565b60405180910390f35b6101c460048036038101906101bf919061222e565b610f13565b6040516101d19190612abb565b60405180910390f35b6101f460048036038101906101ef919061222e565b6112d6565b6040516102019190612af8565b60405180910390f35b610224600480360381019061021f91906121f2565b611374565b6040516102319190612af8565b60405180910390f35b610254600480360381019061024f91906122b9565b611412565b6040516102619190612af8565b60405180910390f35b610284600480360381019061027f919061226a565b6117e4565b6040516102919190612a79565b60405180910390f35b6102b460048036038101906102af91906122b9565b6119ee565b6040516102c19190612af8565b60405180910390f35b6102e460048036038101906102df919061222e565b611c90565b6040516102f19190612af8565b60405180910390f35b60608273ffffffffffffffffffffffffffffffffffffffff16639495833c836040518263ffffffff1660e01b81526004016103359190612a0c565b60006040518083038186803b15801561034d57600080fd5b505afa158015610361573d6000803e3d6000fd5b505050506040513d6000823e3d601f19601f8201168201806040525081019061038a9190612188565b905092915050565b6000808473ffffffffffffffffffffffffffffffffffffffff1663ab02f2a9856040518263ffffffff1660e01b81526004016103ce9190612af8565b60006040518083038186803b1580156103e657600080fd5b505afa1580156103fa573d6000803e3d6000fd5b505050506040513d6000823e3d601f19601f820116820180604052508101906104239190612188565b905080838151811061045e577f4e487b7100000000000000000000000000000000000000000000000000000000600052603260045260246000fd5b60200260200101519150509392505050565b610478611f3b565b610480611f3b565b8473ffffffffffffffffffffffffffffffffffffffff1663b93dafa985856040518363ffffffff1660e01b81526004016104bb929190612b13565b60a06040518083038186803b1580156104d357600080fd5b505afa1580156104e7573d6000803e3d6000fd5b505050506040513d601f19601f8201168201806040525081019061050b91906123bc565b8560000186602001876040018860600189608001856002811115610558577f4e487b7100000000000000000000000000000000000000000000000000000000600052602160045260246000fd5b6002811115610590577f4e487b7100000000000000000000000000000000000000000000000000000000600052602160045260246000fd5b815250858152508573ffffffffffffffffffffffffffffffffffffffff1673ffffffffffffffffffffffffffffffffffffffff1681525085815250858152505050505050809150509392505050565b606060008267ffffffffffffffff811115610623577f4e487b7100000000000000000000000000000000000000000000000000000000600052604160045260246000fd5b60405190808252806020026020018201604052801561065c57816020015b610649611fb8565b8152602001906001900390816106415790505b5091506000610669611fb8565b60008973ffffffffffffffffffffffffffffffffffffffff1663ef78d4fd6040518163ffffffff1660e01b815260040160206040518083038186803b1580156106b157600080fd5b505afa1580156106c5573d6000803e3d6000fd5b505050506040513d601f19601f820116820180604052508101906106e99190612393565b90506000808a90505b89811161082f576107038c82610f13565b93506001600281111561073f577f4e487b7100000000000000000000000000000000000000000000000000000000600052602160045260246000fd5b846101200151600281111561077d577f4e487b7100000000000000000000000000000000000000000000000000000000600052602160045260246000fd5b141561081c578760018a6107919190612d3b565b61079b9190612ce1565b85101580156107b4575087896107b19190612ce1565b85105b1561080d57838783815181106107f3577f4e487b7100000000000000000000000000000000000000000000000000000000600052603260045260246000fd5b6020026020010181905250818061080990612e44565b9250505b848061081890612e44565b9550505b82816108289190612c5a565b90506106f2565b50868861083c9190612ce1565b841115610861578787856108509190612cb0565b61085a9190612d3b565b9450610866565b600094505b505050509550959350505050565b606060008373ffffffffffffffffffffffffffffffffffffffff16635b3ad63e426040518263ffffffff1660e01b81526004016108b19190612af8565b60206040518083038186803b1580156108c957600080fd5b505afa1580156108dd573d6000803e3d6000fd5b505050506040513d601f19601f820116820180604052508101906109019190612393565b90506107d067ffffffffffffffff811115610945577f4e487b7100000000000000000000000000000000000000000000000000000000600052604160045260246000fd5b60405190808252806020026020018201604052801561097e57816020015b61096b611f3b565b8152602001906001900390816109635790505b509150610989611f3b565b600080610994611fb8565b606060008973ffffffffffffffffffffffffffffffffffffffff1663ef78d4fd6040518163ffffffff1660e01b815260040160206040518083038186803b1580156109de57600080fd5b505afa1580156109f2573d6000803e3d6000fd5b505050506040513d601f19601f82011682018060405250810190610a169190612393565b90506000600190505b60648111610ca85760328110610a5957603281610a3c9190612d3b565b82610a479190612ce1565b88610a529190612c5a565b9450610a73565b8082610a659190612ce1565b88610a709190612d3b565b94505b610a7d8b86610f13565b935060016002811115610ab9577f4e487b7100000000000000000000000000000000000000000000000000000000600052602160045260246000fd5b8461012001516002811115610af7577f4e487b7100000000000000000000000000000000000000000000000000000000600052602160045260246000fd5b1415610c95578a73ffffffffffffffffffffffffffffffffffffffff1663ab02f2a9866040518263ffffffff1660e01b8152600401610b369190612af8565b60006040518083038186803b158015610b4e57600080fd5b505afa158015610b62573d6000803e3d6000fd5b505050506040513d6000823e3d601f19601f82011682018060405250810190610b8b9190612188565b925060005b8351811015610c9357610be48c87868481518110610bd7577f4e487b7100000000000000000000000000000000000000000000000000000000600052603260045260246000fd5b6020026020010151610470565b97508a73ffffffffffffffffffffffffffffffffffffffff16886040015173ffffffffffffffffffffffffffffffffffffffff161415610c8057878a8881518110610c58577f4e487b7100000000000000000000000000000000000000000000000000000000600052603260045260246000fd5b60200260200101819052508680610c6e90612e44565b9750506107d08710610c7f57610c93565b5b8080610c8b90612e44565b915050610b90565b505b8080610ca090612e44565b915050610a1f565b506000600190505b60318111610f05578082610cc49190612ce1565b88610ccf9190612d3b565b9450610cdb8b86610f13565b9350600280811115610d16577f4e487b7100000000000000000000000000000000000000000000000000000000600052602160045260246000fd5b8461012001516002811115610d54577f4e487b7100000000000000000000000000000000000000000000000000000000600052602160045260246000fd5b1415610ef2578a73ffffffffffffffffffffffffffffffffffffffff1663ab02f2a9866040518263ffffffff1660e01b8152600401610d939190612af8565b60006040518083038186803b158015610dab57600080fd5b505afa158015610dbf573d6000803e3d6000fd5b505050506040513d6000823e3d601f19601f82011682018060405250810190610de89190612188565b925060005b8351811015610ef057610e418c87868481518110610e34577f4e487b7100000000000000000000000000000000000000000000000000000000600052603260045260246000fd5b6020026020010151610470565b97508a73ffffffffffffffffffffffffffffffffffffffff16886040015173ffffffffffffffffffffffffffffffffffffffff161415610edd576107d08710610e8957610ef0565b878a8881518110610ec3577f4e487b7100000000000000000000000000000000000000000000000000000000600052603260045260246000fd5b60200260200101819052508680610ed990612e44565b9750505b8080610ee890612e44565b915050610ded565b505b8080610efd90612e44565b915050610cb0565b505050505050505092915050565b610f1b611fb8565b610f23611fb8565b60008473ffffffffffffffffffffffffffffffffffffffff1663a10340bc856040518263ffffffff1660e01b8152600401610f5e9190612af8565b6101406040518083038186803b158015610f7757600080fd5b505afa158015610f8b573d6000803e3d6000fd5b505050506040513d601f19601f82011682018060405250810190610faf9190612433565b8b6000018c6020018d6040018e61012001846002811115610ff9577f4e487b7100000000000000000000000000000000000000000000000000000000600052602160045260246000fd5b6002811115611031577f4e487b7100000000000000000000000000000000000000000000000000000000600052602160045260246000fd5b815250849d50859d50869d50879d50889d50899d508a8152508a8152508a815250505050505050505050508473ffffffffffffffffffffffffffffffffffffffff1663a10340bc856040518263ffffffff1660e01b81526004016110959190612af8565b6101406040518083038186803b1580156110ae57600080fd5b505afa1580156110c2573d6000803e3d6000fd5b505050506040513d601f19601f820116820180604052508101906110e69190612433565b8b6060018c6080018d60a0018e60c0018f61012001856002811115611134577f4e487b7100000000000000000000000000000000000000000000000000000000600052602160045260246000fd5b600281111561116c577f4e487b7100000000000000000000000000000000000000000000000000000000600052602160045260246000fd5b815250859e50869e5087815250878152508781525087815250879a50889a50899a50505050505050505050508473ffffffffffffffffffffffffffffffffffffffff1663a10340bc856040518263ffffffff1660e01b81526004016111d19190612af8565b6101406040518083038186803b1580156111ea57600080fd5b505afa1580156111fe573d6000803e3d6000fd5b505050506040513d601f19601f820116820180604052508101906112229190612433565b8b60e0018c610100018d61012001836002811115611269577f4e487b7100000000000000000000000000000000000000000000000000000000600052602160045260246000fd5b60028111156112a1577f4e487b7100000000000000000000000000000000000000000000000000000000600052602160045260246000fd5b8152508381525083815250839a50849a50859a50869a50879a50889a50899a5050505050505050505050819250505092915050565b6000808373ffffffffffffffffffffffffffffffffffffffff1663ab02f2a9846040518263ffffffff1660e01b81526004016113129190612af8565b60006040518083038186803b15801561132a57600080fd5b505afa15801561133e573d6000803e3d6000fd5b505050506040513d6000823e3d601f19601f820116820180604052508101906113679190612188565b9050805191505092915050565b6000808373ffffffffffffffffffffffffffffffffffffffff16639495833c846040518263ffffffff1660e01b81526004016113b09190612a0c565b60006040518083038186803b1580156113c857600080fd5b505afa1580156113dc573d6000803e3d6000fd5b505050506040513d6000823e3d601f19601f820116820180604052508101906114059190612188565b9050805191505092915050565b6000808573ffffffffffffffffffffffffffffffffffffffff16635b3ad63e866040518263ffffffff1660e01b815260040161144e9190612af8565b60206040518083038186803b15801561146657600080fd5b505afa15801561147a573d6000803e3d6000fd5b505050506040513d601f19601f8201168201806040525081019061149e9190612393565b90508573ffffffffffffffffffffffffffffffffffffffff16635b3ad63e426040518263ffffffff1660e01b81526004016114d99190612af8565b60206040518083038186803b1580156114f157600080fd5b505afa158015611505573d6000803e3d6000fd5b505050506040513d601f19601f820116820180604052508101906115299190612393565b81101561156b576040517f08c379a000000000000000000000000000000000000000000000000000000000815260040161156290612a9b565b60405180910390fd5b6000806000808973ffffffffffffffffffffffffffffffffffffffff1663b93dafa9868c73ffffffffffffffffffffffffffffffffffffffff16639592de188c6040518263ffffffff1660e01b81526004016115c79190612af8565b60206040518083038186803b1580156115df57600080fd5b505afa1580156115f3573d6000803e3d6000fd5b505050506040513d601f19601f820116820180604052508101906116179190612393565b6040518363ffffffff1660e01b8152600401611634929190612b13565b60a06040518083038186803b15801561164c57600080fd5b505afa158015611660573d6000803e3d6000fd5b505050506040513d601f19601f8201168201806040525081019061168491906123bc565b809750819550829650839850849850505050505060008a73ffffffffffffffffffffffffffffffffffffffff1663e107fb4f87846040518363ffffffff1660e01b81526004016116d5929190612b13565b60206040518083038186803b1580156116ed57600080fd5b505afa158015611701573d6000803e3d6000fd5b505050506040513d601f19601f820116820180604052508101906117259190612393565b905060008b73ffffffffffffffffffffffffffffffffffffffff1663e107fb4f888b6040518363ffffffff1660e01b8152600401611764929190612b13565b60206040518083038186803b15801561177c57600080fd5b505afa158015611790573d6000803e3d6000fd5b505050506040513d601f19601f820116820180604052508101906117b49190612393565b90508082106117c657600097506117d5565b81816117d29190612d3b565b97505b50505050505050949350505050565b60608167ffffffffffffffff811115611826577f4e487b7100000000000000000000000000000000000000000000000000000000600052604160045260246000fd5b6040519080825280602002602001820160405280156118545781602001602082028036833780820191505090505b50905061185f611fb8565b60005b8381116119e5576000818773ffffffffffffffffffffffffffffffffffffffff1663ef78d4fd6040518163ffffffff1660e01b815260040160206040518083038186803b1580156118b257600080fd5b505afa1580156118c6573d6000803e3d6000fd5b505050506040513d601f19601f820116820180604052508101906118ea9190612393565b6118f49190612ce1565b866118ff9190612c5a565b905061190b8782610f13565b925060006002811115611947577f4e487b7100000000000000000000000000000000000000000000000000000000600052602160045260246000fd5b8361012001516002811115611985577f4e487b7100000000000000000000000000000000000000000000000000000000600052602160045260246000fd5b146119d157808483815181106119c4577f4e487b7100000000000000000000000000000000000000000000000000000000600052603260045260246000fd5b6020026020010181815250505b5080806119dd90612e44565b915050611862565b50509392505050565b6000808573ffffffffffffffffffffffffffffffffffffffff16635b3ad63e866040518263ffffffff1660e01b8152600401611a2a9190612af8565b60206040518083038186803b158015611a4257600080fd5b505afa158015611a56573d6000803e3d6000fd5b505050506040513d601f19601f82011682018060405250810190611a7a9190612393565b90508573ffffffffffffffffffffffffffffffffffffffff16635b3ad63e426040518263ffffffff1660e01b8152600401611ab59190612af8565b60206040518083038186803b158015611acd57600080fd5b505afa158015611ae1573d6000803e3d6000fd5b505050506040513d601f19601f82011682018060405250810190611b059190612393565b811015611b47576040517f08c379a0000000000000000000000000000000000000000000000000000000008152600401611b3e90612a9b565b60405180910390fd5b60008673ffffffffffffffffffffffffffffffffffffffff16639592de18866040518263ffffffff1660e01b8152600401611b829190612af8565b60206040518083038186803b158015611b9a57600080fd5b505afa158015611bae573d6000803e3d6000fd5b505050506040513d601f19601f82011682018060405250810190611bd29190612393565b905060008773ffffffffffffffffffffffffffffffffffffffff1663e107fb4f84876040518363ffffffff1660e01b8152600401611c11929190612b13565b60206040518083038186803b158015611c2957600080fd5b505afa158015611c3d573d6000803e3d6000fd5b505050506040513d601f19601f82011682018060405250810190611c619190612393565b90506000611c70898585610470565b9050818160600151611c829190612c5a565b945050505050949350505050565b60008273ffffffffffffffffffffffffffffffffffffffff1663652c8ded836040518263ffffffff1660e01b8152600401611ccb9190612af8565b60006040518083038186803b158015611ce357600080fd5b505afa158015611cf7573d6000803e3d6000fd5b505050506000611d078484610f13565b9050600081602001518260400151611d1f9190612d3b565b90508473ffffffffffffffffffffffffffffffffffffffff16638f9eca826040518163ffffffff1660e01b815260040160206040518083038186803b158015611d6757600080fd5b505afa158015611d7b573d6000803e3d6000fd5b505050506040513d601f19601f82011682018060405250810190611d9f91906121c9565b15611e0e57611df76040518060200160405280838560a001518660c00151611dc79190612d3b565b611dd19190612cb0565b7bffffffffffffffffffffffffffffffffffffffffffffffffffffffff16815250611f08565b6dffffffffffffffffffffffffffff169250611e75565b611e626040518060200160405280838560e00151866101000151611e329190612d3b565b611e3c9190612cb0565b7bffffffffffffffffffffffffffffffffffffffffffffffffffffffff16815250611f08565b6dffffffffffffffffffffffffffff1692505b8473ffffffffffffffffffffffffffffffffffffffff1663f45e65d86040518163ffffffff1660e01b815260040160206040518083038186803b158015611ebb57600080fd5b505afa158015611ecf573d6000803e3d6000fd5b505050506040513d601f19601f82011682018060405250810190611ef39190612393565b83611efe9190612ce1565b9250505092915050565b6000607060ff1682600001517bffffffffffffffffffffffffffffffffffffffffffffffffffffffff16901c9050919050565b6040518060a001604052806000815260200160008152602001600073ffffffffffffffffffffffffffffffffffffffff1681526020016000815260200160006002811115611fb2577f4e487b7100000000000000000000000000000000000000000000000000000000600052602160045260246000fd5b81525090565b6040518061016001604052806000815260200160008152602001600081526020016000815260200160008152602001600081526020016000815260200160008152602001600081526020016000600281111561203d577f4e487b7100000000000000000000000000000000000000000000000000000000600052602160045260246000fd5b8152602001606081525090565b600061205d61205884612b61565b612b3c565b9050808382526020820190508285602086028201111561207c57600080fd5b60005b858110156120ac57816120928882612173565b84526020840193506020830192505060018101905061207f565b5050509392505050565b6000813590506120c581612fab565b92915050565b6000815190506120da81612fab565b92915050565b600082601f8301126120f157600080fd5b815161210184826020860161204a565b91505092915050565b60008151905061211981612fc2565b92915050565b60008135905061212e81612fd9565b92915050565b60008151905061214381612ff0565b92915050565b60008151905061215881613000565b92915050565b60008135905061216d81613010565b92915050565b60008151905061218281613010565b92915050565b60006020828403121561219a57600080fd5b600082015167ffffffffffffffff8111156121b457600080fd5b6121c0848285016120e0565b91505092915050565b6000602082840312156121db57600080fd5b60006121e98482850161210a565b91505092915050565b6000806040838503121561220557600080fd5b60006122138582860161211f565b9250506020612224858286016120b6565b9150509250929050565b6000806040838503121561224157600080fd5b600061224f8582860161211f565b92505060206122608582860161215e565b9150509250929050565b60008060006060848603121561227f57600080fd5b600061228d8682870161211f565b935050602061229e8682870161215e565b92505060406122af8682870161215e565b9150509250925092565b600080600080608085870312156122cf57600080fd5b60006122dd8782880161211f565b94505060206122ee8782880161215e565b93505060406122ff8782880161215e565b92505060606123108782880161215e565b91505092959194509250565b600080600080600060a0868803121561233457600080fd5b60006123428882890161211f565b95505060206123538882890161215e565b94505060406123648882890161215e565b93505060606123758882890161215e565b92505060806123868882890161215e565b9150509295509295909350565b6000602082840312156123a557600080fd5b60006123b384828501612173565b91505092915050565b600080600080600060a086880312156123d457600080fd5b60006123e288828901612173565b95505060206123f388828901612173565b9450506040612404888289016120cb565b935050606061241588828901612173565b925050608061242688828901612149565b9150509295509295909350565b6000806000806000806000806000806101408b8d03121561245357600080fd5b60006124618d828e01612173565b9a505060206124728d828e01612173565b99505060406124838d828e01612173565b98505060606124948d828e01612173565b97505060806124a58d828e01612173565b96505060a06124b68d828e01612173565b95505060c06124c78d828e01612173565b94505060e06124d88d828e01612173565b9350506101006124ea8d828e01612173565b9250506101206124fc8d828e01612134565b9150509295989b9194979a5092959850565b600061251a8383612740565b905092915050565b600061252e838361291e565b60a08301905092915050565b600061254683836129ee565b60208301905092915050565b61255b81612d6f565b82525050565b61256a81612d6f565b82525050565b600061257b82612bbd565b6125858185612c05565b93508360208202850161259785612b8d565b8060005b858110156125d357848403895281516125b4858261250e565b94506125bf83612bde565b925060208a0199505060018101905061259b565b50829750879550505050505092915050565b60006125f082612bc8565b6125fa8185612c16565b935061260583612b9d565b8060005b8381101561263657815161261d8882612522565b975061262883612beb565b925050600181019050612609565b5085935050505092915050565b600061264e82612bd3565b6126588185612c27565b935061266383612bad565b8060005b8381101561269457815161267b888261253a565b975061268683612bf8565b925050600181019050612667565b5085935050505092915050565b60006126ac82612bd3565b6126b68185612c38565b93506126c183612bad565b8060005b838110156126f25781516126d9888261253a565b97506126e483612bf8565b9250506001810190506126c5565b5085935050505092915050565b61270881612def565b82525050565b61271781612e01565b82525050565b600061272a601b83612c49565b915061273582612f5a565b602082019050919050565b60006101608301600083015161275960008601826129ee565b50602083015161276c60208601826129ee565b50604083015161277f60408601826129ee565b50606083015161279260608601826129ee565b5060808301516127a560808601826129ee565b5060a08301516127b860a08601826129ee565b5060c08301516127cb60c08601826129ee565b5060e08301516127de60e08601826129ee565b506101008301516127f36101008601826129ee565b506101208301516128086101208601826126ff565b506101408301518482036101408601526128228282612643565b9150508091505092915050565b60006101608301600083015161284860008601826129ee565b50602083015161285b60208601826129ee565b50604083015161286e60408601826129ee565b50606083015161288160608601826129ee565b50608083015161289460808601826129ee565b5060a08301516128a760a08601826129ee565b5060c08301516128ba60c08601826129ee565b5060e08301516128cd60e08601826129ee565b506101008301516128e26101008601826129ee565b506101208301516128f76101208601826126ff565b506101408301518482036101408601526129118282612643565b9150508091505092915050565b60a08201600082015161293460008501826129ee565b50602082015161294760208501826129ee565b50604082015161295a6040850182612552565b50606082015161296d60608501826129ee565b506080820151612980608085018261270e565b50505050565b60a08201600082015161299c60008501826129ee565b5060208201516129af60208501826129ee565b5060408201516129c26040850182612552565b5060608201516129d560608501826129ee565b5060808201516129e8608085018261270e565b50505050565b6129f781612de5565b82525050565b612a0681612de5565b82525050565b6000602082019050612a216000830184612561565b92915050565b60006040820190508181036000830152612a418185612570565b9050612a5060208301846129fd565b9392505050565b60006020820190508181036000830152612a7181846125e5565b905092915050565b60006020820190508181036000830152612a9381846126a1565b905092915050565b60006020820190508181036000830152612ab48161271d565b9050919050565b60006020820190508181036000830152612ad5818461282f565b905092915050565b600060a082019050612af26000830184612986565b92915050565b6000602082019050612b0d60008301846129fd565b92915050565b6000604082019050612b2860008301856129fd565b612b3560208301846129fd565b9392505050565b6000612b46612b57565b9050612b528282612e13565b919050565b6000604051905090565b600067ffffffffffffffff821115612b7c57612b7b612f1a565b5b602082029050602081019050919050565b6000819050602082019050919050565b6000819050602082019050919050565b6000819050602082019050919050565b600081519050919050565b600081519050919050565b600081519050919050565b6000602082019050919050565b6000602082019050919050565b6000602082019050919050565b600082825260208201905092915050565b600082825260208201905092915050565b600082825260208201905092915050565b600082825260208201905092915050565b600082825260208201905092915050565b6000612c6582612de5565b9150612c7083612de5565b9250827fffffffffffffffffffffffffffffffffffffffffffffffffffffffffffffffff03821115612ca557612ca4612e8d565b5b828201905092915050565b6000612cbb82612de5565b9150612cc683612de5565b925082612cd657612cd5612ebc565b5b828204905092915050565b6000612cec82612de5565b9150612cf783612de5565b9250817fffffffffffffffffffffffffffffffffffffffffffffffffffffffffffffffff0483118215151615612d3057612d2f612e8d565b5b828202905092915050565b6000612d4682612de5565b9150612d5183612de5565b925082821015612d6457612d63612e8d565b5b828203905092915050565b6000612d7a82612dc5565b9050919050565b60008115159050919050565b6000612d9882612d6f565b9050919050565b6000819050612dad82612f83565b919050565b6000819050612dc082612f97565b919050565b600073ffffffffffffffffffffffffffffffffffffffff82169050919050565b6000819050919050565b6000612dfa82612d9f565b9050919050565b6000612e0c82612db2565b9050919050565b612e1c82612f49565b810181811067ffffffffffffffff82111715612e3b57612e3a612f1a565b5b80604052505050565b6000612e4f82612de5565b91507fffffffffffffffffffffffffffffffffffffffffffffffffffffffffffffffff821415612e8257612e81612e8d565b5b600182019050919050565b7f4e487b7100000000000000000000000000000000000000000000000000000000600052601160045260246000fd5b7f4e487b7100000000000000000000000000000000000000000000000000000000600052601260045260246000fd5b7f4e487b7100000000000000000000000000000000000000000000000000000000600052602160045260246000fd5b7f4e487b7100000000000000000000000000000000000000000000000000000000600052604160045260246000fd5b6000601f19601f8301169050919050565b7f54484953204c4f5420495320494e20412050415354204652414d450000000000600082015250565b60038110612f9457612f93612eeb565b5b50565b60038110612fa857612fa7612eeb565b5b50565b612fb481612d6f565b8114612fbf57600080fd5b50565b612fcb81612d81565b8114612fd657600080fd5b50565b612fe281612d8d565b8114612fed57600080fd5b50565b60038110612ffd57600080fd5b50565b6003811061300d57600080fd5b50565b61301981612de5565b811461302457600080fd5b5056fea2646970667358221220921024d7765cc2f4dc5178e605a46482f5e415e0b0bc4d54f6a887191529d79064736f6c63430008040033",
  "linkReferences": {},
  "deployedLinkReferences": {}
}