{
  "_format": "hh-sol-artifact-1",
  "contractName": "MarketGetter",
  "sourceName": "contracts/MarketGetter.sol",
  "abi": [
    {
      "inputs": [
        {
          "internalType": "contract Market",
          "name": "market",
          "type": "address"
        },
        {
          "internalType": "uint256",
          "name": "timestamp",
          "type": "uint256"
        },
        {
          "internalType": "uint256",
          "name": "pairPrice",
          "type": "uint256"
        },
        {
          "internalType": "uint256",
          "name": "acqPrice",
          "type": "uint256"
        }
      ],
      "name": "clcAmountToApprove",
      "outputs": [
        {
          "internalType": "uint256",
          "name": "approvalAmnt",
          "type": "uint256"
        }
      ],
      "stateMutability": "view",
      "type": "function"
    },
    {
      "inputs": [
        {
          "internalType": "contract Market",
          "name": "market",
          "type": "address"
        },
        {
          "internalType": "uint256",
          "name": "timestamp",
          "type": "uint256"
        },
        {
          "internalType": "uint256",
          "name": "pairPrice",
          "type": "uint256"
        },
        {
          "internalType": "uint256",
          "name": "acqPrice",
          "type": "uint256"
        }
      ],
      "name": "clcAmountToApproveForUpdate",
      "outputs": [
        {
          "internalType": "uint256",
          "name": "amnt",
          "type": "uint256"
        }
      ],
      "stateMutability": "view",
      "type": "function"
    },
    {
      "inputs": [
        {
          "internalType": "contract Market",
          "name": "market",
          "type": "address"
        },
        {
          "internalType": "uint256",
          "name": "frameKey",
          "type": "uint256"
        }
      ],
      "name": "getFrameStruct",
      "outputs": [
        {
          "components": [
            {
              "internalType": "uint256",
              "name": "frameKey",
              "type": "uint256"
            },
            {
              "internalType": "uint256",
              "name": "rate",
              "type": "uint256"
            },
            {
              "internalType": "uint256[]",
              "name": "lotKeys",
              "type": "uint256[]"
            },
            {
              "internalType": "address",
              "name": "claimedBy",
              "type": "address"
            },
            {
              "internalType": "uint256",
              "name": "rateSettle",
              "type": "uint256"
            },
            {
              "internalType": "uint256",
              "name": "feeSettle",
              "type": "uint256"
            },
            {
              "internalType": "uint256",
              "name": "rewardSettle",
              "type": "uint256"
            },
            {
              "internalType": "uint256",
              "name": "feeReferral",
              "type": "uint256"
            }
          ],
          "internalType": "struct Market.Frame",
          "name": "",
          "type": "tuple"
        }
      ],
      "stateMutability": "view",
      "type": "function"
    },
    {
      "inputs": [
        {
          "internalType": "contract Market",
          "name": "market",
          "type": "address"
        },
        {
          "internalType": "uint256",
          "name": "frameKey_start",
          "type": "uint256"
        },
        {
          "internalType": "uint256",
          "name": "frameKey_end",
          "type": "uint256"
        },
        {
          "internalType": "uint256",
          "name": "page",
          "type": "uint256"
        },
        {
          "internalType": "uint256",
          "name": "perPage",
          "type": "uint256"
        }
      ],
      "name": "getFrames",
      "outputs": [
        {
          "components": [
            {
              "internalType": "uint256",
              "name": "frameKey",
              "type": "uint256"
            },
            {
              "internalType": "uint256",
              "name": "rate",
              "type": "uint256"
            },
            {
              "internalType": "uint256[]",
              "name": "lotKeys",
              "type": "uint256[]"
            },
            {
              "internalType": "address",
              "name": "claimedBy",
              "type": "address"
            },
            {
              "internalType": "uint256",
              "name": "rateSettle",
              "type": "uint256"
            },
            {
              "internalType": "uint256",
              "name": "feeSettle",
              "type": "uint256"
            },
            {
              "internalType": "uint256",
              "name": "rewardSettle",
              "type": "uint256"
            },
            {
              "internalType": "uint256",
              "name": "feeReferral",
              "type": "uint256"
            }
          ],
          "internalType": "struct Market.Frame[]",
          "name": "frames",
          "type": "tuple[]"
        },
        {
          "internalType": "uint256",
          "name": "pagesLeft",
          "type": "uint256"
        }
      ],
      "stateMutability": "view",
      "type": "function"
    },
    {
      "inputs": [
        {
          "internalType": "contract Market",
          "name": "market",
          "type": "address"
        },
        {
          "internalType": "uint256",
          "name": "startIndex",
          "type": "uint256"
        },
        {
          "internalType": "uint256",
          "name": "endIndex",
          "type": "uint256"
        }
      ],
      "name": "getFramesByIndex",
      "outputs": [
        {
          "components": [
            {
              "internalType": "uint256",
              "name": "frameKey",
              "type": "uint256"
            },
            {
              "internalType": "uint256",
              "name": "rate",
              "type": "uint256"
            },
            {
              "internalType": "uint256[]",
              "name": "lotKeys",
              "type": "uint256[]"
            },
            {
              "internalType": "address",
              "name": "claimedBy",
              "type": "address"
            },
            {
              "internalType": "uint256",
              "name": "rateSettle",
              "type": "uint256"
            },
            {
              "internalType": "uint256",
              "name": "feeSettle",
              "type": "uint256"
            },
            {
              "internalType": "uint256",
              "name": "rewardSettle",
              "type": "uint256"
            },
            {
              "internalType": "uint256",
              "name": "feeReferral",
              "type": "uint256"
            }
          ],
          "internalType": "struct Market.Frame[]",
          "name": "frames",
          "type": "tuple[]"
        }
      ],
      "stateMutability": "view",
      "type": "function"
    },
    {
      "inputs": [
        {
          "internalType": "contract Market",
          "name": "market",
          "type": "address"
        },
        {
          "internalType": "address",
          "name": "user",
          "type": "address"
        },
        {
          "internalType": "uint256",
          "name": "frameKey_start",
          "type": "uint256"
        },
        {
          "internalType": "uint256",
          "name": "frameKey_end",
          "type": "uint256"
        },
        {
          "internalType": "uint256",
          "name": "page",
          "type": "uint256"
        },
        {
          "internalType": "uint256",
          "name": "perPage",
          "type": "uint256"
        }
      ],
      "name": "getFramesUser",
      "outputs": [
        {
          "components": [
            {
              "internalType": "uint256",
              "name": "frameKey",
              "type": "uint256"
            },
            {
              "internalType": "uint256",
              "name": "rate",
              "type": "uint256"
            },
            {
              "internalType": "uint256[]",
              "name": "lotKeys",
              "type": "uint256[]"
            },
            {
              "internalType": "address",
              "name": "claimedBy",
              "type": "address"
            },
            {
              "internalType": "uint256",
              "name": "rateSettle",
              "type": "uint256"
            },
            {
              "internalType": "uint256",
              "name": "feeSettle",
              "type": "uint256"
            },
            {
              "internalType": "uint256",
              "name": "rewardSettle",
              "type": "uint256"
            },
            {
              "internalType": "uint256",
              "name": "feeReferral",
              "type": "uint256"
            }
          ],
          "internalType": "struct Market.Frame[]",
          "name": "userFrames",
          "type": "tuple[]"
        },
        {
          "internalType": "uint256",
          "name": "pagesLeft",
          "type": "uint256"
        }
      ],
      "stateMutability": "view",
      "type": "function"
    },
    {
      "inputs": [
        {
          "internalType": "contract Market",
          "name": "market",
          "type": "address"
        },
        {
          "internalType": "uint256",
          "name": "frameKey",
          "type": "uint256"
        },
        {
          "internalType": "uint256",
          "name": "index",
          "type": "uint256"
        }
      ],
      "name": "getLotKey",
      "outputs": [
        {
          "internalType": "uint256",
          "name": "",
          "type": "uint256"
        }
      ],
      "stateMutability": "view",
      "type": "function"
    },
    {
      "inputs": [
        {
          "internalType": "contract Market",
          "name": "market",
          "type": "address"
        },
        {
          "internalType": "uint256",
          "name": "frameKey",
          "type": "uint256"
        },
        {
          "internalType": "uint256",
          "name": "lotKey",
          "type": "uint256"
        }
      ],
      "name": "getLotStruct",
      "outputs": [
        {
          "components": [
            {
              "internalType": "uint256",
              "name": "frameKey",
              "type": "uint256"
            },
            {
              "internalType": "uint256",
              "name": "lotKey",
              "type": "uint256"
            },
            {
              "components": [
                {
                  "internalType": "uint256",
                  "name": "blockNumber",
                  "type": "uint256"
                },
                {
                  "internalType": "uint256",
                  "name": "blockTimestamp",
                  "type": "uint256"
                },
                {
                  "internalType": "address",
                  "name": "owner",
                  "type": "address"
                },
                {
                  "internalType": "uint256",
                  "name": "acquisitionPrice",
                  "type": "uint256"
                },
                {
                  "internalType": "uint256",
                  "name": "taxCharged",
                  "type": "uint256"
                },
                {
                  "internalType": "uint256",
                  "name": "taxRefunded",
                  "type": "uint256"
                }
              ],
              "internalType": "struct Market.LotState[]",
              "name": "states",
              "type": "tuple[]"
            }
          ],
          "internalType": "struct Market.Lot",
          "name": "",
          "type": "tuple"
        }
      ],
      "stateMutability": "view",
      "type": "function"
    },
    {
      "inputs": [
        {
          "internalType": "contract Market",
          "name": "market",
          "type": "address"
        },
        {
          "internalType": "uint256",
          "name": "frameKey_start",
          "type": "uint256"
        },
        {
          "internalType": "uint256",
          "name": "frameKey_end",
          "type": "uint256"
        },
        {
          "internalType": "uint256",
          "name": "page",
          "type": "uint256"
        },
        {
          "internalType": "uint256",
          "name": "perPage",
          "type": "uint256"
        }
      ],
      "name": "getLots",
      "outputs": [
        {
          "components": [
            {
              "internalType": "uint256",
              "name": "frameKey",
              "type": "uint256"
            },
            {
              "internalType": "uint256",
              "name": "lotKey",
              "type": "uint256"
            },
            {
              "components": [
                {
                  "internalType": "uint256",
                  "name": "blockNumber",
                  "type": "uint256"
                },
                {
                  "internalType": "uint256",
                  "name": "blockTimestamp",
                  "type": "uint256"
                },
                {
                  "internalType": "address",
                  "name": "owner",
                  "type": "address"
                },
                {
                  "internalType": "uint256",
                  "name": "acquisitionPrice",
                  "type": "uint256"
                },
                {
                  "internalType": "uint256",
                  "name": "taxCharged",
                  "type": "uint256"
                },
                {
                  "internalType": "uint256",
                  "name": "taxRefunded",
                  "type": "uint256"
                }
              ],
              "internalType": "struct Market.LotState[]",
              "name": "states",
              "type": "tuple[]"
            }
          ],
          "internalType": "struct Market.Lot[]",
          "name": "lots",
          "type": "tuple[]"
        },
        {
          "internalType": "uint256",
          "name": "pagesLeft",
          "type": "uint256"
        }
      ],
      "stateMutability": "view",
      "type": "function"
    },
    {
      "inputs": [
        {
          "internalType": "contract Market",
          "name": "market",
          "type": "address"
        },
        {
          "internalType": "uint256",
          "name": "startIndex",
          "type": "uint256"
        },
        {
          "internalType": "uint256",
          "name": "endIndex",
          "type": "uint256"
        }
      ],
      "name": "getLotsByIndex",
      "outputs": [
        {
          "components": [
            {
              "internalType": "uint256",
              "name": "frameKey",
              "type": "uint256"
            },
            {
              "internalType": "uint256",
              "name": "lotKey",
              "type": "uint256"
            },
            {
              "components": [
                {
                  "internalType": "uint256",
                  "name": "blockNumber",
                  "type": "uint256"
                },
                {
                  "internalType": "uint256",
                  "name": "blockTimestamp",
                  "type": "uint256"
                },
                {
                  "internalType": "address",
                  "name": "owner",
                  "type": "address"
                },
                {
                  "internalType": "uint256",
                  "name": "acquisitionPrice",
                  "type": "uint256"
                },
                {
                  "internalType": "uint256",
                  "name": "taxCharged",
                  "type": "uint256"
                },
                {
                  "internalType": "uint256",
                  "name": "taxRefunded",
                  "type": "uint256"
                }
              ],
              "internalType": "struct Market.LotState[]",
              "name": "states",
              "type": "tuple[]"
            }
          ],
          "internalType": "struct Market.Lot[]",
          "name": "lots",
          "type": "tuple[]"
        }
      ],
      "stateMutability": "view",
      "type": "function"
    },
    {
      "inputs": [
        {
          "internalType": "contract Market",
          "name": "market",
          "type": "address"
        },
        {
          "internalType": "uint256",
          "name": "frameKey",
          "type": "uint256"
        }
      ],
      "name": "getLotsCount",
      "outputs": [
        {
          "internalType": "uint256",
          "name": "",
          "type": "uint256"
        }
      ],
      "stateMutability": "view",
      "type": "function"
    },
    {
      "inputs": [
        {
          "internalType": "contract Market",
          "name": "market",
          "type": "address"
        },
        {
          "internalType": "address",
          "name": "user",
          "type": "address"
        },
        {
          "internalType": "uint256",
          "name": "mode",
          "type": "uint256"
        },
        {
          "internalType": "uint256",
          "name": "frameKey_start",
          "type": "uint256"
        },
        {
          "internalType": "uint256",
          "name": "frameKey_end",
          "type": "uint256"
        },
        {
          "internalType": "uint256",
          "name": "page",
          "type": "uint256"
        },
        {
          "internalType": "uint256",
          "name": "perPage",
          "type": "uint256"
        }
      ],
      "name": "getLotsSoldUser",
      "outputs": [
        {
          "components": [
            {
              "internalType": "uint256",
              "name": "frameKey",
              "type": "uint256"
            },
            {
              "internalType": "uint256",
              "name": "lotKey",
              "type": "uint256"
            },
            {
              "components": [
                {
                  "internalType": "uint256",
                  "name": "blockNumber",
                  "type": "uint256"
                },
                {
                  "internalType": "uint256",
                  "name": "blockTimestamp",
                  "type": "uint256"
                },
                {
                  "internalType": "address",
                  "name": "owner",
                  "type": "address"
                },
                {
                  "internalType": "uint256",
                  "name": "acquisitionPrice",
                  "type": "uint256"
                },
                {
                  "internalType": "uint256",
                  "name": "taxCharged",
                  "type": "uint256"
                },
                {
                  "internalType": "uint256",
                  "name": "taxRefunded",
                  "type": "uint256"
                }
              ],
              "internalType": "struct Market.LotState[]",
              "name": "states",
              "type": "tuple[]"
            }
          ],
          "internalType": "struct Market.Lot[]",
          "name": "userLots",
          "type": "tuple[]"
        },
        {
          "internalType": "uint256",
          "name": "pagesLeft",
          "type": "uint256"
        }
      ],
      "stateMutability": "view",
      "type": "function"
    },
    {
      "inputs": [
        {
          "internalType": "contract Market",
          "name": "market",
          "type": "address"
        },
        {
          "internalType": "address",
          "name": "user",
          "type": "address"
        },
        {
          "internalType": "uint256",
          "name": "mode",
          "type": "uint256"
        },
        {
          "internalType": "uint256",
          "name": "frameKey_start",
          "type": "uint256"
        },
        {
          "internalType": "uint256",
          "name": "frameKey_end",
          "type": "uint256"
        },
        {
          "internalType": "uint256",
          "name": "page",
          "type": "uint256"
        },
        {
          "internalType": "uint256",
          "name": "perPage",
          "type": "uint256"
        }
      ],
      "name": "getLotsUser",
      "outputs": [
        {
          "components": [
            {
              "internalType": "uint256",
              "name": "frameKey",
              "type": "uint256"
            },
            {
              "internalType": "uint256",
              "name": "lotKey",
              "type": "uint256"
            },
            {
              "components": [
                {
                  "internalType": "uint256",
                  "name": "blockNumber",
                  "type": "uint256"
                },
                {
                  "internalType": "uint256",
                  "name": "blockTimestamp",
                  "type": "uint256"
                },
                {
                  "internalType": "address",
                  "name": "owner",
                  "type": "address"
                },
                {
                  "internalType": "uint256",
                  "name": "acquisitionPrice",
                  "type": "uint256"
                },
                {
                  "internalType": "uint256",
                  "name": "taxCharged",
                  "type": "uint256"
                },
                {
                  "internalType": "uint256",
                  "name": "taxRefunded",
                  "type": "uint256"
                }
              ],
              "internalType": "struct Market.LotState[]",
              "name": "states",
              "type": "tuple[]"
            }
          ],
          "internalType": "struct Market.Lot[]",
          "name": "userLots",
          "type": "tuple[]"
        },
        {
          "internalType": "uint256",
          "name": "pagesLeft",
          "type": "uint256"
        }
      ],
      "stateMutability": "view",
      "type": "function"
    },
    {
      "inputs": [
        {
          "internalType": "contract Market",
          "name": "market",
          "type": "address"
        },
        {
          "internalType": "uint256",
          "name": "firstUserIndex",
          "type": "uint256"
        },
        {
          "internalType": "uint256",
          "name": "lastUserIndex",
          "type": "uint256"
        },
        {
          "internalType": "uint256",
          "name": "frameKeyStart",
          "type": "uint256"
        },
        {
          "internalType": "uint256",
          "name": "frameKeyEnd",
          "type": "uint256"
        }
      ],
      "name": "getMultipleUsersRewards",
      "outputs": [
        {
          "internalType": "uint256",
          "name": "comulativeReward",
          "type": "uint256"
        },
        {
          "internalType": "uint256[]",
          "name": "rewards",
          "type": "uint256[]"
        }
      ],
      "stateMutability": "view",
      "type": "function"
    },
    {
      "inputs": [
        {
          "internalType": "contract Market",
          "name": "market",
          "type": "address"
        },
        {
          "internalType": "uint256",
          "name": "startFrame",
          "type": "uint256"
        },
        {
          "internalType": "uint256",
          "name": "numOfFrames",
          "type": "uint256"
        }
      ],
      "name": "getOpenFrameKeys",
      "outputs": [
        {
          "internalType": "uint256[]",
          "name": "openFrames",
          "type": "uint256[]"
        }
      ],
      "stateMutability": "view",
      "type": "function"
    },
    {
      "inputs": [
        {
          "internalType": "contract Market",
          "name": "market",
          "type": "address"
        },
        {
          "internalType": "uint256",
          "name": "frameKey",
          "type": "uint256"
        }
      ],
      "name": "getRewardAmount",
      "outputs": [
        {
          "internalType": "uint256",
          "name": "",
          "type": "uint256"
        }
      ],
      "stateMutability": "view",
      "type": "function"
    },
    {
      "inputs": [
        {
          "internalType": "contract Market",
          "name": "market",
          "type": "address"
        },
        {
          "internalType": "uint256",
          "name": "frameKey",
          "type": "uint256"
        }
      ],
      "name": "getRewardAmountMin",
      "outputs": [
        {
          "internalType": "uint256",
          "name": "rewardFund",
          "type": "uint256"
        }
      ],
      "stateMutability": "view",
      "type": "function"
    },
    {
      "inputs": [
        {
          "internalType": "contract Market",
          "name": "market",
          "type": "address"
        },
        {
          "internalType": "address",
          "name": "user",
          "type": "address"
        },
        {
          "internalType": "uint256",
          "name": "startIndex",
          "type": "uint256"
        },
        {
          "internalType": "uint256",
          "name": "endIndex",
          "type": "uint256"
        }
      ],
      "name": "getUserCollectedByIndex",
      "outputs": [
        {
          "internalType": "uint256[]",
          "name": "collected",
          "type": "uint256[]"
        }
      ],
      "stateMutability": "view",
      "type": "function"
    },
    {
      "inputs": [
        {
          "internalType": "contract Market",
          "name": "market",
          "type": "address"
        },
        {
          "internalType": "address",
          "name": "user",
          "type": "address"
        },
        {
          "internalType": "uint256",
          "name": "frameKeyStart",
          "type": "uint256"
        },
        {
          "internalType": "uint256",
          "name": "frameKeyEnd",
          "type": "uint256"
        }
      ],
      "name": "getUserRewards",
      "outputs": [
        {
          "internalType": "uint256",
          "name": "reward",
          "type": "uint256"
        }
      ],
      "stateMutability": "view",
      "type": "function"
    },
    {
      "inputs": [
        {
          "internalType": "contract Market",
          "name": "market",
          "type": "address"
        },
        {
          "internalType": "address",
          "name": "user",
          "type": "address"
        },
        {
          "internalType": "uint256",
          "name": "startIndex",
          "type": "uint256"
        },
        {
          "internalType": "uint256",
          "name": "endIndex",
          "type": "uint256"
        }
      ],
      "name": "getUserRewardsByIndex",
      "outputs": [
        {
          "internalType": "uint256[]",
          "name": "rewards",
          "type": "uint256[]"
        }
      ],
      "stateMutability": "view",
      "type": "function"
    },
    {
      "inputs": [
        {
          "internalType": "contract Market",
          "name": "market",
          "type": "address"
        },
        {
          "internalType": "address",
          "name": "user",
          "type": "address"
        }
      ],
      "name": "getUserRewardsLength",
      "outputs": [
        {
          "internalType": "uint256",
          "name": "",
          "type": "uint256"
        }
      ],
      "stateMutability": "view",
      "type": "function"
    },
    {
      "inputs": [
        {
          "internalType": "contract Market",
          "name": "market",
          "type": "address"
        },
        {
          "internalType": "address",
          "name": "user",
          "type": "address"
        }
      ],
      "name": "getUserStruct",
      "outputs": [
        {
          "components": [
            {
              "internalType": "address",
              "name": "user",
              "type": "address"
            },
            {
              "internalType": "address",
              "name": "referredBy",
              "type": "address"
            },
            {
              "internalType": "uint256[]",
              "name": "rewards",
              "type": "uint256[]"
            },
            {
              "internalType": "uint256[]",
              "name": "collected",
              "type": "uint256[]"
            }
          ],
          "internalType": "struct MarketGetter.User",
          "name": "",
          "type": "tuple"
        }
      ],
      "stateMutability": "view",
      "type": "function"
    },
    {
      "inputs": [
        {
          "internalType": "contract Market",
          "name": "market",
          "type": "address"
        },
        {
          "internalType": "uint256",
          "name": "startIndex",
          "type": "uint256"
        },
        {
          "internalType": "uint256",
          "name": "endIndex",
          "type": "uint256"
        },
        {
          "internalType": "uint256",
          "name": "startIndexArray",
          "type": "uint256"
        },
        {
          "internalType": "uint256",
          "name": "endIndexArray",
          "type": "uint256"
        }
      ],
      "name": "getUsersByIndex",
      "outputs": [
        {
          "components": [
            {
              "internalType": "address",
              "name": "user",
              "type": "address"
            },
            {
              "internalType": "address",
              "name": "referredBy",
              "type": "address"
            },
            {
              "internalType": "uint256[]",
              "name": "rewards",
              "type": "uint256[]"
            },
            {
              "internalType": "uint256[]",
              "name": "collected",
              "type": "uint256[]"
            }
          ],
          "internalType": "struct MarketGetter.User[]",
          "name": "users",
          "type": "tuple[]"
        }
      ],
      "stateMutability": "view",
      "type": "function"
    },
    {
      "inputs": [
        {
          "internalType": "contract Market",
          "name": "market",
          "type": "address"
        },
        {
          "internalType": "address",
          "name": "user",
          "type": "address"
        }
      ],
      "name": "getUsersReferrals",
      "outputs": [
        {
          "internalType": "address[]",
          "name": "referrals",
          "type": "address[]"
        },
        {
          "internalType": "uint16",
          "name": "length",
          "type": "uint16"
        }
      ],
      "stateMutability": "view",
      "type": "function"
    },
    {
      "inputs": [
        {
          "internalType": "uint256",
          "name": "concatenated",
          "type": "uint256"
        }
      ],
      "name": "splitLotsArrayElement",
      "outputs": [
        {
          "internalType": "uint256",
          "name": "frameKey",
          "type": "uint256"
        },
        {
          "internalType": "uint256",
          "name": "lotKey",
          "type": "uint256"
        }
      ],
      "stateMutability": "pure",
      "type": "function"
    }
  ],
  "bytecode": "0x608060405234801561001057600080fd5b5061572480620000216000396000f3fe608060405234801561001057600080fd5b50600436106101735760003560e01c8063ae370f6d116100de578063dbd20a8811610097578063f2580f2611610071578063f2580f26146103c6578063f579a2d1146103d9578063f6eb9ee7146103ec578063f91cbebe146103ff57600080fd5b8063dbd20a881461038d578063de732595146103a0578063e32ed3cc146103b357600080fd5b8063ae370f6d146102df578063c1d0139514610307578063c8ddd5211461031a578063cff9e83c1461033a578063d00d7b191461035a578063da4e85561461037a57600080fd5b80636d03471b116101305780636d03471b1461023757806371b08d89146102575780637f424a371461026a5780638522bc381461028a5780639291178e146102ab57806398820b22146102be57600080fd5b8063281e8068146101785780632c79854f146101a25780633191b50e146101c357806334d186aa146101e35780634314b84f146101f6578063612d8b5014610216575b600080fd5b61018b610186366004614a6b565b610412565b604051610199929190614bbb565b60405180910390f35b6101b56101b0366004614bdd565b610d9d565b604051908152602001610199565b6101d66101d1366004614bdd565b610e36565b6040516101999190614d06565b6101b56101f1366004614d19565b61106e565b610209610204366004614bdd565b6110ee565b6040516101999190614d52565b610229610224366004614d65565b6112bb565b604051610199929190614da9565b61024a610245366004614d65565b611631565b6040516101999190614e0a565b61018b610265366004614a6b565b611a05565b61027d610278366004614e6c565b6122c0565b6040516101999190614e98565b61029d610298366004614d19565b6123da565b604051610199929190614eab565b6101b56102b9366004614e6c565b6126f1565b6102d16102cc366004614d65565b61276c565b604051610199929190614f03565b6102f26102ed366004614f1c565b612c2e565b60408051928352602083019190915201610199565b6101b5610315366004614f35565b612c58565b61032d610328366004614d19565b612f48565b6040516101999190614f70565b61034d610348366004614f83565b613083565b6040516101999190614fc9565b61036d610368366004614bdd565b61319f565b6040516101999190614fdc565b6101b5610388366004614e6c565b613571565b61034d61039b366004614bdd565b61367d565b6101b56103ae366004614f35565b613847565b6101b56103c1366004614f83565b613aae565b6101b56103d4366004614e6c565b613bb6565b61034d6103e7366004614f83565b613f11565b6102296103fa366004614fef565b614017565b61018b61040d366004614d65565b61453c565b6060600061042183600161505e565b6001600160401b0381111561043857610438615071565b60405190808252806020026020018201604052801561048d57816020015b61047a60405180606001604052806000815260200160008152602001606081525090565b8152602001906001900390816104565790505b50604080516003808252608082019092529193506000916060918391906020820184803683370190505090508b6001600160a01b031663ef78d4fd6040518163ffffffff1660e01b8152600401602060405180830381865afa1580156104f7573d6000803e3d6000fd5b505050506040513d601f19601f8201168201806040525081019061051b9190615087565b8160028151811061052e5761052e6150a0565b60200260200101818152505060018a1161090f57885b88811161090d5760405163bad1265360e01b8152600481018290526001600160a01b038e169063bad1265390602401602060405180830381865afa158015610590573d6000803e3d6000fd5b505050506040513d601f19601f820116820180604052508101906105b491906150b6565b935060018460048111156105ca576105ca6150d7565b036108e057604051630122bf3160e51b8152600481018290526001600160a01b038e1690632457e62090602401600060405180830381865afa158015610614573d6000803e3d6000fd5b505050506040513d6000823e601f3d908101601f1916820160405261063c91908101906151d3565b925060005b83518110156108de5761066e8e83868481518110610661576106616150a0565b60200260200101516110ee565b878981518110610680576106806150a0565b602002602001018190525060008e6001600160a01b031663fb0d5e09848785815181106106af576106af6150a0565b60200260200101516040518363ffffffff1660e01b81526004016106dd929190918252602082015260400190565b600060405180830381865afa1580156106fa573d6000803e3d6000fd5b505050506040513d6000823e601f3d908101601f1916820160405261072291908101906152c2565b905060005b6001825161073591906152f6565b8110156108c9578e6001600160a01b0316828281518110610758576107586150a0565b6020026020010151604001516001600160a01b0316036108b75761077c8a8c615309565b8560008151811061078f5761078f6150a0565b6020026020010151101580156107d35750896107ac8c600161505e565b6107b69190615309565b856000815181106107c9576107c96150a0565b6020026020010151105b1561087057888a815181106107ea576107ea6150a0565b60200260200101518986600181518110610806576108066150a0565b60200260200101518151811061081e5761081e6150a0565b60200260200101819052508460018151811061083c5761083c6150a0565b60200260200101516001610850919061505e565b85600181518110610863576108636150a0565b6020026020010181815250505b84600081518110610883576108836150a0565b60200260200101516001610897919061505e565b856000815181106108aa576108aa6150a0565b6020026020010181815250505b806108c181615320565b915050610727565b505080806108d690615320565b915050610641565b505b816002815181106108f3576108f36150a0565b602002602001015181610906919061505e565b9050610544565b505b896002148061091c575089155b15610d1a57885b888111610d185760405163bad1265360e01b8152600481018290526001600160a01b038e169063bad1265390602401602060405180830381865afa15801561096f573d6000803e3d6000fd5b505050506040513d601f19601f8201168201806040525081019061099391906150b6565b935060028460048111156109a9576109a96150d7565b14806109c6575060048460048111156109c4576109c46150d7565b145b806109e2575060038460048111156109e0576109e06150d7565b145b15610ceb57604051630122bf3160e51b8152600481018290526001600160a01b038e1690632457e62090602401600060405180830381865afa158015610a2c573d6000803e3d6000fd5b505050506040513d6000823e601f3d908101601f19168201604052610a5491908101906151d3565b925060005b8351811015610ce957610a798e83868481518110610661576106616150a0565b878981518110610a8b57610a8b6150a0565b602002602001018190525060008e6001600160a01b031663fb0d5e0984878581518110610aba57610aba6150a0565b60200260200101516040518363ffffffff1660e01b8152600401610ae8929190918252602082015260400190565b600060405180830381865afa158015610b05573d6000803e3d6000fd5b505050506040513d6000823e601f3d908101601f19168201604052610b2d91908101906152c2565b905060005b60018251610b4091906152f6565b811015610cd4578e6001600160a01b0316828281518110610b6357610b636150a0565b6020026020010151604001516001600160a01b031603610cc257610b878a8c615309565b85600081518110610b9a57610b9a6150a0565b602002602001015110158015610bde575089610bb78c600161505e565b610bc19190615309565b85600081518110610bd457610bd46150a0565b6020026020010151105b15610c7b57888a81518110610bf557610bf56150a0565b60200260200101518986600181518110610c1157610c116150a0565b602002602001015181518110610c2957610c296150a0565b602002602001018190525084600181518110610c4757610c476150a0565b60200260200101516001610c5b919061505e565b85600181518110610c6e57610c6e6150a0565b6020026020010181815250505b84600081518110610c8e57610c8e6150a0565b60200260200101516001610ca2919061505e565b85600081518110610cb557610cb56150a0565b6020026020010181815250505b80610ccc81615320565b915050610b32565b50508080610ce190615320565b915050610a59565b505b81600281518110610cfe57610cfe6150a0565b602002602001015181610d11919061505e565b9050610923565b505b85610d2688600161505e565b610d309190615309565b81600081518110610d4357610d436150a0565b60200260200101511115610d8957868682600081518110610d6657610d666150a0565b6020026020010151610d78919061534f565b610d8291906152f6565b9350610d8e565b600093505b50505097509795505050505050565b604051630122bf3160e51b81526004810183905260009081906001600160a01b03861690632457e62090602401600060405180830381865afa158015610de7573d6000803e3d6000fd5b505050506040513d6000823e601f3d908101601f19168201604052610e0f91908101906151d3565b9050808381518110610e2357610e236150a0565b60200260200101519150505b9392505050565b606081831115610e615760405162461bcd60e51b8152600401610e5890615363565b60405180910390fd5b6000846001600160a01b031663ed320aa86040518163ffffffff1660e01b8152600401602060405180830381865afa158015610ea1573d6000803e3d6000fd5b505050506040513d601f19601f82011682018060405250810190610ec59190615087565b905060008111610f175760405162461bcd60e51b815260206004820152601760248201527f4e6f206672616d657320696e20746865206d61726b65740000000000000000006044820152606401610e58565b838111610f365760405162461bcd60e51b8152600401610e58906153b2565b82811015610f4c57610f496001826152f6565b92505b610f5684846152f6565b610f6190600161505e565b6001600160401b03811115610f7857610f78615071565b604051908082528060200260200182016040528015610fb157816020015b610f9e6149c9565b815260200190600190039081610f965790505b509150835b8381116110655760405162143a2160e61b8152600481018290526000906001600160a01b0388169063050e884090602401602060405180830381865afa158015611004573d6000803e3d6000fd5b505050506040513d601f19601f820116820180604052508101906110289190615087565b905061103487826122c0565b848381518110611046576110466150a0565b602002602001018190525050808061105d90615320565b915050610fb6565b50509392505050565b6040516391bb686560e01b81526001600160a01b0382811660048301526000916060918516906391bb686590602401600060405180830381865afa1580156110ba573d6000803e3d6000fd5b505050506040513d6000823e601f3d908101601f191682016040526110e291908101906153e9565b50519150505b92915050565b61111260405180606001604052806000815260200160008152602001606081525090565b61113660405180606001604052806000815260200160008152602001606081525090565b8381526020810183905260405163fb0d5e0960e01b815260048101859052602481018490526000906001600160a01b0387169063fb0d5e0990604401600060405180830381865afa15801561118f573d6000803e3d6000fd5b505050506040513d6000823e601f3d908101601f191682016040526111b791908101906152c2565b905080516000036111fe5760408051600180825281830190925290816020015b6111df614a17565b8152602001906001900390816111d75750506040830152509050610e2f565b80516001600160401b0381111561121757611217615071565b60405190808252806020026020018201604052801561125057816020015b61123d614a17565b8152602001906001900390816112355790505b50604083015260005b81518110156112b057818181518110611274576112746150a0565b602002602001015183604001518281518110611292576112926150a0565b602002602001018190525080806112a890615320565b915050611259565b509095945050505050565b60606000826001600160401b038111156112d7576112d7615071565b60405190808252806020026020018201604052801561131057816020015b6112fd6149c9565b8152602001906001900390816112f55790505b50915061131b6149c9565b6040805160038082526080820190925260009160208201606080368337019050509050886001600160a01b031663ef78d4fd6040518163ffffffff1660e01b8152600401602060405180830381865afa15801561137c573d6000803e3d6000fd5b505050506040513d601f19601f820116820180604052508101906113a09190615087565b816002815181106113b3576113b36150a0565b6020908102919091010152875b8781116115b0576113d18a826122c0565b92506000835160405163bad1265360e01b815260048101919091526001600160a01b038c169063bad1265390602401602060405180830381865afa15801561141d573d6000803e3d6000fd5b505050506040513d601f19601f8201168201806040525081019061144191906150b6565b6004811115611452576114526150d7565b14611583576114618688615309565b82600081518110611474576114746150a0565b6020026020010151101580156114b857508561149188600161505e565b61149b9190615309565b826000815181106114ae576114ae6150a0565b6020026020010151105b1561153c578285836001815181106114d2576114d26150a0565b6020026020010151815181106114ea576114ea6150a0565b602002602001018190525081600181518110611508576115086150a0565b6020026020010151600161151c919061505e565b8260018151811061152f5761152f6150a0565b6020026020010181815250505b8160008151811061154f5761154f6150a0565b60200260200101516001611563919061505e565b82600081518110611576576115766150a0565b6020026020010181815250505b81600281518110611596576115966150a0565b6020026020010151816115a9919061505e565b90506113c0565b50846115bd87600161505e565b6115c79190615309565b816000815181106115da576115da6150a0565b60200260200101511115611620578585826000815181106115fd576115fd6150a0565b602002602001015161160f919061534f565b61161991906152f6565b9250611625565b600092505b50509550959350505050565b6060838511156116535760405162461bcd60e51b8152600401610e5890615363565b6000866001600160a01b031663ffde58626040518163ffffffff1660e01b8152600401602060405180830381865afa158015611693573d6000803e3d6000fd5b505050506040513d601f19601f820116820180604052508101906116b79190615087565b9050600081116117025760405162461bcd60e51b8152602060048201526016602482015275139bc81d5cd95c9cc81a5b881d1a19481b585c9ad95d60521b6044820152606401610e58565b600061170e87876152f6565b61171990600161505e565b6001600160401b0381111561173057611730615071565b604051908082528060200260200182016040528015611759578160200160208202803683370190505b509050876001600160a01b03166399fe71ef6040518163ffffffff1660e01b8152600401600060405180830381865afa15801561179a573d6000803e3d6000fd5b505050506040513d6000823e601f3d908101601f191682016040526117c2919081019061544c565b90508187106117e35760405162461bcd60e51b8152600401610e58906153b2565b8186106117f8576117f56001836152f6565b95505b61180287876152f6565b61180d90600161505e565b6001600160401b0381111561182457611824615071565b60405190808252806020026020018201604052801561187857816020015b60408051608081018252600080825260208201526060918101829052818101919091528152602001906001900390816118425790505b509250865b8681116119f9576000896001600160a01b031663a87430ba8484815181106118a7576118a76150a0565b60200260200101516040518263ffffffff1660e01b81526004016118da91906001600160a01b0391909116815260200190565b6040805180830381865afa1580156118f6573d6000803e3d6000fd5b505050506040513d601f19601f8201168201806040525081019061191a91906154da565b91505060006119448b858581518110611935576119356150a0565b60200260200101518a8a613f11565b9050600061196d8c86868151811061195e5761195e6150a0565b60200260200101518b8b613083565b9050604051806080016040528086868151811061198c5761198c6150a0565b60200260200101516001600160a01b03168152602001846001600160a01b0316815260200183815260200182815250878c866119c891906152f6565b815181106119d8576119d86150a0565b602002602001018190525050505080806119f190615320565b91505061187d565b50505095945050505050565b60606000611a1483600161505e565b6001600160401b03811115611a2b57611a2b615071565b604051908082528060200260200182016040528015611a8057816020015b611a6d60405180606001604052806000815260200160008152602001606081525090565b815260200190600190039081611a495790505b50604080516003808252608082019092529193506000916060918391906020820184803683370190505090508b6001600160a01b031663ef78d4fd6040518163ffffffff1660e01b8152600401602060405180830381865afa158015611aea573d6000803e3d6000fd5b505050506040513d601f19601f82011682018060405250810190611b0e9190615087565b81600281518110611b2157611b216150a0565b60200260200101818152505060018a11611ed657885b888111611ed45760405163bad1265360e01b8152600481018290526001600160a01b038e169063bad1265390602401602060405180830381865afa158015611b83573d6000803e3d6000fd5b505050506040513d601f19601f82011682018060405250810190611ba791906150b6565b93506001846004811115611bbd57611bbd6150d7565b03611ea757604051630122bf3160e51b8152600481018290526001600160a01b038e1690632457e62090602401600060405180830381865afa158015611c07573d6000803e3d6000fd5b505050506040513d6000823e601f3d908101601f19168201604052611c2f91908101906151d3565b925060005b8351811015611ea557611c548e83868481518110610661576106616150a0565b878981518110611c6657611c666150a0565b602002602001018190525060008e6001600160a01b031663fb0d5e0984878581518110611c9557611c956150a0565b60200260200101516040518363ffffffff1660e01b8152600401611cc3929190918252602082015260400190565b600060405180830381865afa158015611ce0573d6000803e3d6000fd5b505050506040513d6000823e601f3d908101601f19168201604052611d0891908101906152c2565b90508d6001600160a01b03168160018351611d2391906152f6565b81518110611d3357611d336150a0565b6020026020010151604001516001600160a01b031603611e9257611d57898b615309565b84600081518110611d6a57611d6a6150a0565b602002602001015110158015611dae575088611d878b600161505e565b611d919190615309565b84600081518110611da457611da46150a0565b6020026020010151105b15611e4b57878981518110611dc557611dc56150a0565b60200260200101518885600181518110611de157611de16150a0565b602002602001015181518110611df957611df96150a0565b602002602001018190525083600181518110611e1757611e176150a0565b60200260200101516001611e2b919061505e565b84600181518110611e3e57611e3e6150a0565b6020026020010181815250505b83600081518110611e5e57611e5e6150a0565b60200260200101516001611e72919061505e565b84600081518110611e8557611e856150a0565b6020026020010181815250505b5080611e9d81615320565b915050611c34565b505b81600281518110611eba57611eba6150a0565b602002602001015181611ecd919061505e565b9050611b37565b505b8960021480611ee3575089155b15610d1a57885b888111610d185760405163bad1265360e01b8152600481018290526001600160a01b038e169063bad1265390602401602060405180830381865afa158015611f36573d6000803e3d6000fd5b505050506040513d601f19601f82011682018060405250810190611f5a91906150b6565b93506002846004811115611f7057611f706150d7565b1480611f8d57506004846004811115611f8b57611f8b6150d7565b145b80611fa957506003846004811115611fa757611fa76150d7565b145b1561229357604051630122bf3160e51b8152600481018290526001600160a01b038e1690632457e62090602401600060405180830381865afa158015611ff3573d6000803e3d6000fd5b505050506040513d6000823e601f3d908101601f1916820160405261201b91908101906151d3565b925060005b8351811015612291576120408e83868481518110610661576106616150a0565b878981518110612052576120526150a0565b602002602001018190525060008e6001600160a01b031663fb0d5e0984878581518110612081576120816150a0565b60200260200101516040518363ffffffff1660e01b81526004016120af929190918252602082015260400190565b600060405180830381865afa1580156120cc573d6000803e3d6000fd5b505050506040513d6000823e601f3d908101601f191682016040526120f491908101906152c2565b90508d6001600160a01b0316816001835161210f91906152f6565b8151811061211f5761211f6150a0565b6020026020010151604001516001600160a01b03160361227e57612143898b615309565b84600081518110612156576121566150a0565b60200260200101511015801561219a5750886121738b600161505e565b61217d9190615309565b84600081518110612190576121906150a0565b6020026020010151105b15612237578789815181106121b1576121b16150a0565b602002602001015188856001815181106121cd576121cd6150a0565b6020026020010151815181106121e5576121e56150a0565b602002602001018190525083600181518110612203576122036150a0565b60200260200101516001612217919061505e565b8460018151811061222a5761222a6150a0565b6020026020010181815250505b8360008151811061224a5761224a6150a0565b6020026020010151600161225e919061505e565b84600081518110612271576122716150a0565b6020026020010181815250505b508061228981615320565b915050612020565b505b816002815181106122a6576122a66150a0565b6020026020010151816122b9919061505e565b9050611eea565b6122c86149c9565b6122d06149c9565b604051632840d02f60e21b8152600481018490526001600160a01b0385169063a10340bc9060240160e060405180830381865afa158015612315573d6000803e3d6000fd5b505050506040513d601f19601f82011682018060405250810190612339919061550e565b60e088015260c087015260a086015260808501526001600160a01b0390811660608501526020840191909152908252604051630122bf3160e51b81526004810185905290851690632457e62090602401600060405180830381865afa1580156123a6573d6000803e3d6000fd5b505050506040513d6000823e601f3d908101601f191682016040526123ce91908101906151d3565b60408201529392505050565b6060600080846001600160a01b031663ffde58626040518163ffffffff1660e01b8152600401602060405180830381865afa15801561241d573d6000803e3d6000fd5b505050506040513d601f19601f820116820180604052508101906124419190615087565b6001600160401b0381111561245857612458615071565b604051908082528060200260200182016040528015612481578160200160208202803683370190505b5090506000805b866001600160a01b031663ffde58626040518163ffffffff1660e01b8152600401602060405180830381865afa1580156124c6573d6000803e3d6000fd5b505050506040513d601f19601f820116820180604052508101906124ea9190615087565b8110156126395760405162beb8d760e61b8152600481018290526000906001600160a01b03891690632fae35c090602401602060405180830381865afa158015612538573d6000803e3d6000fd5b505050506040513d601f19601f8201168201806040525081019061255c919061556e565b60405163543a185d60e11b81526001600160a01b0380831660048301529192506000918a169063a87430ba906024016040805180830381865afa1580156125a7573d6000803e3d6000fd5b505050506040513d601f19601f820116820180604052508101906125cb91906154da565b915050876001600160a01b0316816001600160a01b0316036126245781858561ffff16815181106125fe576125fe6150a0565b6001600160a01b0390921660209283029190910190910152836126208161558b565b9450505b5050808061263190615320565b915050612488565b508061ffff166001600160401b0381111561265657612656615071565b60405190808252806020026020018201604052801561267f578160200160208202803683370190505b50935060005b8161ffff168110156126e7578281815181106126a3576126a36150a0565b60200260200101518582815181106126bd576126bd6150a0565b6001600160a01b0390921660209283029190910190910152806126df81615320565b915050612685565b5050509250929050565b604051630122bf3160e51b81526004810182905260009081906001600160a01b03851690632457e62090602401600060405180830381865afa15801561273b573d6000803e3d6000fd5b505050506040513d6000823e601f3d908101601f1916820160405261276391908101906151d3565b51949350505050565b600060608486106127e55760405162461bcd60e51b815260206004820152603860248201527f666972737455736572496e646578206d75737420626520736d616c6c6572206f60448201527f7220657175616c20746f206c61737455736572496e64657800000000000000006064820152608401610e58565b6000876001600160a01b031663ffde58626040518163ffffffff1660e01b8152600401602060405180830381865afa158015612825573d6000803e3d6000fd5b505050506040513d601f19601f820116820180604052508101906128499190615087565b905080871061289a5760405162461bcd60e51b815260206004820152601f60248201527f666972737455736572496e646578206973206f7574206f6620626f756e6473006044820152606401610e58565b6128c96040518060400160405280600d81526020016c03ab9b2b939a632b733ba341d1609d1b815250826148d0565b808611156128d5578095505b6129066040518060400160405280600f81526020016e03630b9ba2ab9b2b924b73232bc1d1608d1b815250876148d0565b61291087876152f6565b6001600160401b0381111561292757612927615071565b604051908082528060200260200182016040528015612950578160200160208202803683370190505b5091506000886001600160a01b031663ef78d4fd6040518163ffffffff1660e01b8152600401602060405180830381865afa158015612993573d6000803e3d6000fd5b505050506040513d601f19601f820116820180604052508101906129b79190615087565b90506129e36040518060400160405280600881526020016703832b934b7b21d160c51b815250826148d0565b875b6129f06001896152f6565b811015612bf95760405162beb8d760e61b8152600481018290526000906001600160a01b038c1690632fae35c090602401602060405180830381865afa158015612a3e573d6000803e3d6000fd5b505050506040513d601f19601f82011682018060405250810190612a62919061556e565b9050612a8c6040518060400160405280600681526020016503ab9b2b91d160d51b81525082614919565b875b87811015612be4576040516391a0846d60e01b81526001600160a01b038381166004830152602482018390528d16906391a0846d90604401602060405180830381865afa158015612ae3573d6000803e3d6000fd5b505050506040513d601f19601f82011682018060405250810190612b079190615087565b868481518110612b1957612b196150a0565b60200260200101818151612b2d919061505e565b91508181525050612b786040518060400160405280600981526020016803932bbb0b932399d160bd1b815250878581518110612b6b57612b6b6150a0565b60200260200101516148d0565b858381518110612b8a57612b8a6150a0565b602002602001015187612b9d919061505e565b9650612bd360405180604001604052806012815260200171031b7b6bab630ba34bb32a932bbb0b9321d160751b815250886148d0565b612bdd848261505e565b9050612a8e565b50508080612bf190615320565b9150506129e5565b506116256040518060400160405280601381526020017202932ba3ab93734b733903932bbb0b932399d1606d1b81525061495e565b600080612c406402540be400846155ac565b9150612c516402540be4008461534f565b9050915091565b6040516361eee2cb60e01b81526004810184905260009081906001600160a01b038716906361eee2cb90602401602060405180830381865afa158015612ca2573d6000803e3d6000fd5b505050506040513d601f19601f82011682018060405250810190612cc69190615087565b6040516361eee2cb60e01b81524260048201529091506001600160a01b038716906361eee2cb90602401602060405180830381865afa158015612d0d573d6000803e3d6000fd5b505050506040513d601f19601f82011682018060405250810190612d319190615087565b811015612d805760405162461bcd60e51b815260206004820152601b60248201527f54484953204c4f5420495320494e20412050415354204652414d4500000000006044820152606401610e58565b600080612df788848a6001600160a01b0316639592de188a6040518263ffffffff1660e01b8152600401612db691815260200190565b602060405180830381865afa158015612dd3573d6000803e3d6000fd5b505050506040513d601f19601f820116820180604052508101906102049190615087565b6040810151805191925090612e0e906001906152f6565b81518110612e1e57612e1e6150a0565b60200260200101516060015191506000886001600160a01b031663e107fb4f85856040518363ffffffff1660e01b8152600401612e65929190918252602082015260400190565b602060405180830381865afa158015612e82573d6000803e3d6000fd5b505050506040513d601f19601f82011682018060405250810190612ea69190615087565b60405163e107fb4f60e01b815260048101869052602481018890529091506000906001600160a01b038b169063e107fb4f90604401602060405180830381865afa158015612ef8573d6000803e3d6000fd5b505050506040513d601f19601f82011682018060405250810190612f1c9190615087565b9050808210612f2e5760009550612f3b565b612f3882826152f6565b95505b5050505050949350505050565b604080516080810182526000808252602082015260609181018290528181019190915260405163543a185d60e11b81526001600160a01b0383811660048301526000919085169063a87430ba906024016040805180830381865afa158015612fb4573d6000803e3d6000fd5b505050506040513d601f19601f82011682018060405250810190612fd891906154da565b6040516391bb686560e01b81526001600160a01b0386811660048301529193506000925082918716906391bb686590602401600060405180830381865afa158015613027573d6000803e3d6000fd5b505050506040513d6000823e601f3d908101601f1916820160405261304f91908101906153e9565b604080516080810182526001600160a01b039889168152959097166020860152958401525050606081019290925250919050565b6060818311156130a55760405162461bcd60e51b8152600401610e5890615363565b6040516391bb686560e01b81526001600160a01b0385811660048301528616906391bb686590602401600060405180830381865afa1580156130eb573d6000803e3d6000fd5b505050506040513d6000823e601f3d908101601f1916820160405261311391908101906153e9565b80519092501590506131975780518210613138576001815161313591906152f6565b91505b825b82811161319557818181518110613153576131536150a0565b602002602001015182858361316891906152f6565b81518110613178576131786150a0565b60209081029190910101528061318d81615320565b91505061313a565b505b949350505050565b6060818311156131c15760405162461bcd60e51b8152600401610e5890615363565b6000846001600160a01b031663197c4e786040518163ffffffff1660e01b8152600401602060405180830381865afa158015613201573d6000803e3d6000fd5b505050506040513d601f19601f820116820180604052508101906132259190615087565b90506000811161326f5760405162461bcd60e51b8152602060048201526015602482015274139bc81b1bdd1cc81a5b881d1a19481b585c9ad95d605a1b6044820152606401610e58565b6000816001600160401b0381111561328957613289615071565b6040519080825280602002602001820160405280156132b2578160200160208202803683370190505b509050856001600160a01b031663c0423f2e6040518163ffffffff1660e01b8152600401600060405180830381865afa1580156132f3573d6000803e3d6000fd5b505050506040513d6000823e601f3d908101601f1916820160405261331b91908101906151d3565b905081851061333c5760405162461bcd60e51b8152600401610e58906153b2565b8184106133515761334e6001836152f6565b93505b61335b85856152f6565b61336690600161505e565b6001600160401b0381111561337d5761337d615071565b6040519080825280602002602001820160405280156133d257816020015b6133bf60405180606001604052806000815260200160008152602001606081525090565b81526020019060019003908161339b5790505b509250845b8481116135675760008061342260405180604001604052806013815260200172029a7a61d103637ba39a0b93930bcadb4ae9d1606d1b815250858581518110612b6b57612b6b6150a0565b613444848481518110613437576134376150a0565b6020026020010151612c2e565b60408051808201909152600f81526e029a7a61d10333930b6b2a5b2bc9d1608d1b6020820152919350915061347990836148d0565b6134a86040518060400160405280600d81526020016c029a7a61d103637ba25b2bc9d1609d1b815250826148d0565b604051636f1aefc360e01b815260048101839052602481018290526000906001600160a01b038b1690636f1aefc390604401600060405180830381865afa1580156134f7573d6000803e3d6000fd5b505050506040513d6000823e601f3d908101601f1916820160405261351f91908101906155c0565b90506135348a826000015183602001516110ee565b878581518110613546576135466150a0565b6020026020010181905250505050808061355f90615320565b9150506133d7565b5050509392505050565b60008061357e84846122c0565b6040516339a6a48960e01b8152600481018590529091506000906001600160a01b038616906339a6a48990602401602060405180830381865afa1580156135c9573d6000803e3d6000fd5b505050506040513d601f19601f820116820180604052508101906135ed9190615087565b90506000856001600160a01b031663527eb4bc6040518163ffffffff1660e01b8152600401602060405180830381865afa15801561362f573d6000803e3d6000fd5b505050506040513d601f19601f820116820180604052508101906136539190615087565b905060008360e00151828461366891906152f6565b61367291906152f6565b979650505050505050565b6060816001600160401b0381111561369757613697615071565b6040519080825280602002602001820160405280156136c0578160200160208202803683370190505b50905060006136cd6149c9565b60005b84811161356757600081886001600160a01b031663ef78d4fd6040518163ffffffff1660e01b8152600401602060405180830381865afa158015613718573d6000803e3d6000fd5b505050506040513d601f19601f8201168201806040525081019061373c9190615087565b6137469190615309565b613750908861505e565b905061375c88826122c0565b805160405163bad1265360e01b815260048101919091529093506000906001600160a01b038a169063bad1265390602401602060405180830381865afa1580156137aa573d6000803e3d6000fd5b505050506040513d601f19601f820116820180604052508101906137ce91906150b6565b905060018160048111156137e4576137e46150d7565b1480613801575060038160048111156137ff576137ff6150d7565b145b156138325781868681518110613819576138196150a0565b60209081029190910101528461382e81615320565b9550505b5050808061383f90615320565b9150506136d0565b6040516361eee2cb60e01b81526004810184905260009081906001600160a01b038716906361eee2cb90602401602060405180830381865afa158015613891573d6000803e3d6000fd5b505050506040513d601f19601f820116820180604052508101906138b59190615087565b905042866001600160a01b031663ef78d4fd6040518163ffffffff1660e01b8152600401602060405180830381865afa1580156138f6573d6000803e3d6000fd5b505050506040513d601f19601f8201168201806040525081019061391a9190615087565b613924908361505e565b10156139725760405162461bcd60e51b815260206004820152601d60248201527f4672616d652068617320746f20626520696e20746865206675747572650000006044820152606401610e58565b6040516312b25bc360e31b8152600481018590526000906001600160a01b03881690639592de1890602401602060405180830381865afa1580156139ba573d6000803e3d6000fd5b505050506040513d601f19601f820116820180604052508101906139de9190615087565b60405163e107fb4f60e01b815260048101849052602481018690529091506000906001600160a01b0389169063e107fb4f90604401602060405180830381865afa158015613a30573d6000803e3d6000fd5b505050506040513d601f19601f82011682018060405250810190613a549190615087565b90506000613a638985856110ee565b604081015180519192508391613a7b906001906152f6565b81518110613a8b57613a8b6150a0565b602002602001015160600151613aa1919061505e565b9998505050505050505050565b600080856001600160a01b031663ef78d4fd6040518163ffffffff1660e01b8152600401602060405180830381865afa158015613aef573d6000803e3d6000fd5b505050506040513d601f19601f82011682018060405250810190613b139190615087565b9050835b838111613bac576040516391a0846d60e01b81526001600160a01b038781166004830152602482018390528816906391a0846d90604401602060405180830381865afa158015613b6b573d6000803e3d6000fd5b505050506040513d601f19601f82011682018060405250810190613b8f9190615087565b613b99908461505e565b9250613ba5828261505e565b9050613b17565b5050949350505050565b600080613bc384846122c0565b60e081015190915060005b826040015151811015613efd576000613bf8878786604001518581518110610661576106616150a0565b905060005b816040015151811015613ee85781604001518181518110613c2057613c206150a0565b60200260200101516080015186613c37919061505e565b955081604001518181518110613c4f57613c4f6150a0565b602002602001015160a0015186613c6691906152f6565b95506001826040015151613c7a91906152f6565b8103613ed6576000886001600160a01b031663e107fb4f8985604001518581518110613ca857613ca86150a0565b6020026020010151606001516040518363ffffffff1660e01b8152600401613cda929190918252602082015260400190565b602060405180830381865afa158015613cf7573d6000803e3d6000fd5b505050506040513d601f19601f82011682018060405250810190613d1b9190615087565b9050613d2781886152f6565b96506000896001600160a01b031663a87430ba85604001518581518110613d5057613d506150a0565b6020026020010151604001516040518263ffffffff1660e01b8152600401613d8791906001600160a01b0391909116815260200190565b6040805180830381865afa158015613da3573d6000803e3d6000fd5b505050506040513d601f19601f82011682018060405250810190613dc791906154da565b60405163543a185d60e11b81526001600160a01b03808316600483015291935060009250908c169063a87430ba906024016040805180830381865afa158015613e14573d6000803e3d6000fd5b505050506040513d601f19601f82011682018060405250810190613e3891906154da565b5090508015613ed25760008b6001600160a01b0316639e9c4f086040518163ffffffff1660e01b8152600401602060405180830381865afa158015613e81573d6000803e3d6000fd5b505050506040513d601f19601f82011682018060405250810190613ea59190615087565b9050670de0b6b3a7640000613eba8286615309565b613ec4919061534f565b613ece908961505e565b9750505b5050505b80613ee081615320565b915050613bfd565b50508080613ef590615320565b915050613bce565b50613f0881846152f6565b95945050505050565b606081831115613f335760405162461bcd60e51b8152600401610e5890615363565b6040516391bb686560e01b81526001600160a01b0385811660048301528616906391bb686590602401600060405180830381865afa158015613f79573d6000803e3d6000fd5b505050506040513d6000823e601f3d908101601f19168201604052613fa191908101906153e9565b508051909150156131975780518210613fc55760018151613fc291906152f6565b91505b825b82811161319557818181518110613fe057613fe06150a0565b6020026020010151828281518110613ffa57613ffa6150a0565b60209081029190910101528061400f81615320565b915050613fc7565b60606000826001600160401b0381111561403357614033615071565b60405190808252806020026020018201604052801561406c57816020015b6140596149c9565b8152602001906001900390816140515790505b5060408051600480825260a08201909252919350600091829160208201608080368337019050509050896001600160a01b031663ef78d4fd6040518163ffffffff1660e01b8152600401602060405180830381865afa1580156140d3573d6000803e3d6000fd5b505050506040513d601f19601f820116820180604052508101906140f79190615087565b8160028151811061410a5761410a6150a0565b60209081029190910101526060885b8881116144b95760405163bad1265360e01b8152600481018290526001600160a01b038d169063bad1265390602401602060405180830381865afa158015614165573d6000803e3d6000fd5b505050506040513d601f19601f8201168201806040525081019061418991906150b6565b9350600084600481111561419f5761419f6150d7565b1461448c57604051630122bf3160e51b8152600481018290526001600160a01b038d1690632457e62090602401600060405180830381865afa1580156141e9573d6000803e3d6000fd5b505050506040513d6000823e601f3d908101601f1916820160405261421191908101906151d3565b915060005b825181101561448a5760008d6001600160a01b031663fb0d5e0984868581518110614243576142436150a0565b60200260200101516040518363ffffffff1660e01b8152600401614271929190918252602082015260400190565b600060405180830381865afa15801561428e573d6000803e3d6000fd5b505050506040513d6000823e601f3d908101601f191682016040526142b691908101906152c2565b90508c6001600160a01b031681600183516142d191906152f6565b815181106142e1576142e16150a0565b6020026020010151604001516001600160a01b031614801561431d57508285600381518110614312576143126150a0565b602002602001015114155b156144775761432c898b615309565b8560008151811061433f5761433f6150a0565b60200260200101511015801561438357508861435c8b600161505e565b6143669190615309565b85600081518110614379576143796150a0565b6020026020010151105b15614410576143928e846122c0565b88866001815181106143a6576143a66150a0565b6020026020010151815181106143be576143be6150a0565b6020026020010181905250846001815181106143dc576143dc6150a0565b602002602001015160016143f0919061505e565b85600181518110614403576144036150a0565b6020026020010181815250505b84600081518110614423576144236150a0565b60200260200101516001614437919061505e565b8560008151811061444a5761444a6150a0565b602002602001018181525050828560038151811061446a5761446a6150a0565b6020026020010181815250505b508061448281615320565b915050614216565b505b8260028151811061449f5761449f6150a0565b6020026020010151816144b2919061505e565b9050614119565b50856144c688600161505e565b6144d09190615309565b826000815181106144e3576144e36150a0565b6020026020010151111561452957868683600081518110614506576145066150a0565b6020026020010151614518919061534f565b61452291906152f6565b935061452e565b600093505b505050965096945050505050565b60606000848611156145b65760405162461bcd60e51b815260206004820152603760248201527f6672616d654b65795f7374617274206d75737420626520736d616c6c6572206f60448201527f7220657175616c20746f206672616d654b65795f656e640000000000000000006064820152608401610e58565b826001600160401b038111156145ce576145ce615071565b60405190808252806020026020018201604052801561462357816020015b61461060405180606001604052806000815260200160008152602001606081525090565b8152602001906001900390816145ec5790505b5060408051600380825260808201909252919350606091600091602082018480368337019050509050886001600160a01b031663ef78d4fd6040518163ffffffff1660e01b8152600401602060405180830381865afa15801561468a573d6000803e3d6000fd5b505050506040513d601f19601f820116820180604052508101906146ae9190615087565b816002815181106146c1576146c16150a0565b6020908102919091010152875b8781116115b057604051630122bf3160e51b8152600481018290526001600160a01b038b1690632457e62090602401600060405180830381865afa15801561471a573d6000803e3d6000fd5b505050506040513d6000823e601f3d908101601f1916820160405261474291908101906151d3565b925060005b83518110156148a25761475a8789615309565b8360008151811061476d5761476d6150a0565b6020026020010151101580156147b157508661478a89600161505e565b6147949190615309565b836000815181106147a7576147a76150a0565b6020026020010151105b1561484b576147cd8b83868481518110610661576106616150a0565b86846001815181106147e1576147e16150a0565b6020026020010151815181106147f9576147f96150a0565b602002602001018190525082600181518110614817576148176150a0565b6020026020010151600161482b919061505e565b8360018151811061483e5761483e6150a0565b6020026020010181815250505b8260008151811061485e5761485e6150a0565b60200260200101516001614872919061505e565b83600081518110614885576148856150a0565b60209081029190910101528061489a81615320565b915050614747565b50816002815181106148b6576148b66150a0565b6020026020010151816148c9919061505e565b90506146ce565b61491582826040516024016148e692919061569e565b60408051601f198184030181529190526020810180516001600160e01b0316632d839cb360e21b1790526149a4565b5050565b614915828260405160240161492f9291906156b1565b60408051601f198184030181529190526020810180516001600160e01b031663319af33360e01b1790526149a4565b6149a18160405160240161497291906156db565b60408051601f198184030181529190526020810180516001600160e01b031663104c13eb60e21b1790526149a4565b50565b6149a18160006a636f6e736f6c652e6c6f679050600080835160208501845afa505050565b60405180610100016040528060008152602001600081526020016060815260200160006001600160a01b03168152602001600081526020016000815260200160008152602001600081525090565b6040518060c00160405280600081526020016000815260200160006001600160a01b031681526020016000815260200160008152602001600081525090565b6001600160a01b03811681146149a157600080fd5b600080600080600080600060e0888a031215614a8657600080fd5b8735614a9181614a56565b96506020880135614aa181614a56565b96999698505050506040850135946060810135946080820135945060a0820135935060c0909101359150565b600060608084018351855260208085015181870152604080860151848289015283815180865260809550858a019150848301925060005b81811015614b57578351805184528681015187850152858101516001600160a01b0316868501528881015189850152878101518885015260a090810151908401529285019260c090920191600101614b04565b50909998505050505050505050565b600081518084526020808501808196508360051b8101915082860160005b85811015614bae578284038952614b9c848351614acd565b98850198935090840190600101614b84565b5091979650505050505050565b604081526000614bce6040830185614b66565b90508260208301529392505050565b600080600060608486031215614bf257600080fd5b8335614bfd81614a56565b95602085013595506040909401359392505050565b600081518084526020808501945080840160005b83811015614c4257815187529582019590820190600101614c26565b509495945050505050565b600061010082518452602083015160208501526040830151816040860152614c7782860182614c12565b91505060018060a01b0360608401511660608501526080830151608085015260a083015160a085015260c083015160c085015260e083015160e08501528091505092915050565b600081518084526020808501808196508360051b8101915082860160005b85811015614bae578284038952614cf4848351614c4d565b98850198935090840190600101614cdc565b602081526000610e2f6020830184614cbe565b60008060408385031215614d2c57600080fd5b8235614d3781614a56565b91506020830135614d4781614a56565b809150509250929050565b602081526000610e2f6020830184614acd565b600080600080600060a08688031215614d7d57600080fd5b8535614d8881614a56565b97602087013597506040870135966060810135965060800135945092505050565b604081526000614bce6040830185614cbe565b600060018060a01b0380835116845280602084015116602085015250604082015160806040850152614df16080850182614c12565b905060608301518482036060860152613f088282614c12565b6000602080830181845280855180835260408601915060408160051b870101925083870160005b82811015614e5f57603f19888603018452614e4d858351614dbc565b94509285019290850190600101614e31565b5092979650505050505050565b60008060408385031215614e7f57600080fd5b8235614e8a81614a56565b946020939093013593505050565b602081526000610e2f6020830184614c4d565b604080825283519082018190526000906020906060840190828701845b82811015614eed5781516001600160a01b031684529284019290840190600101614ec8565b50505061ffff9490941692019190915250919050565b8281526040602082015260006131976040830184614c12565b600060208284031215614f2e57600080fd5b5035919050565b60008060008060808587031215614f4b57600080fd5b8435614f5681614a56565b966020860135965060408601359560600135945092505050565b602081526000610e2f6020830184614dbc565b60008060008060808587031215614f9957600080fd5b8435614fa481614a56565b93506020850135614fb481614a56565b93969395505050506040820135916060013590565b602081526000610e2f6020830184614c12565b602081526000610e2f6020830184614b66565b60008060008060008060c0878903121561500857600080fd5b863561501381614a56565b9550602087013561502381614a56565b95989597505050506040840135936060810135936080820135935060a0909101359150565b634e487b7160e01b600052601160045260246000fd5b808201808211156110e8576110e8615048565b634e487b7160e01b600052604160045260246000fd5b60006020828403121561509957600080fd5b5051919050565b634e487b7160e01b600052603260045260246000fd5b6000602082840312156150c857600080fd5b815160058110610e2f57600080fd5b634e487b7160e01b600052602160045260246000fd5b60405160c081016001600160401b038111828210171561510f5761510f615071565b60405290565b604051601f8201601f191681016001600160401b038111828210171561513d5761513d615071565b604052919050565b60006001600160401b0382111561515e5761515e615071565b5060051b60200190565b600082601f83011261517957600080fd5b8151602061518e61518983615145565b615115565b82815260059290921b840181019181810190868411156151ad57600080fd5b8286015b848110156151c857805183529183019183016151b1565b509695505050505050565b6000602082840312156151e557600080fd5b81516001600160401b038111156151fb57600080fd5b61319784828501615168565b600082601f83011261521857600080fd5b8151602061522861518983615145565b82815260c0928302850182019282820191908785111561524757600080fd5b8387015b858110156152b55781818a0312156152635760008081fd5b61526b6150ed565b81518152858201518682015260408083015161528681614a56565b90820152606082810151908201526080808301519082015260a08083015190820152845292840192810161524b565b5090979650505050505050565b6000602082840312156152d457600080fd5b81516001600160401b038111156152ea57600080fd5b61319784828501615207565b818103818111156110e8576110e8615048565b80820281158282048414176110e8576110e8615048565b60006001820161533257615332615048565b5060010190565b634e487b7160e01b600052601260045260246000fd5b60008261535e5761535e615339565b500490565b6020808252602f908201527f7374617274496e646578206d75737420626520736d616c6c6572206f7220657160408201526e0eac2d840e8de40cadcc892dcc8caf608b1b606082015260800190565b6020808252601b908201527f7374617274496e646578206973206f7574206f6620626f756e64730000000000604082015260600190565b600080604083850312156153fc57600080fd5b82516001600160401b038082111561541357600080fd5b61541f86838701615168565b9350602085015191508082111561543557600080fd5b5061544285828601615168565b9150509250929050565b6000602080838503121561545f57600080fd5b82516001600160401b0381111561547557600080fd5b8301601f8101851361548657600080fd5b805161549461518982615145565b81815260059190911b820183019083810190878311156154b357600080fd5b928401925b828410156136725783516154cb81614a56565b825292840192908401906154b8565b600080604083850312156154ed57600080fd5b825180151581146154fd57600080fd5b6020840151909250614d4781614a56565b600080600080600080600060e0888a03121561552957600080fd5b8751965060208801519550604088015161554281614a56565b80955050606088015193506080880151925060a0880151915060c0880151905092959891949750929550565b60006020828403121561558057600080fd5b8151610e2f81614a56565b600061ffff8083168181036155a2576155a2615048565b6001019392505050565b6000826155bb576155bb615339565b500690565b6000602082840312156155d257600080fd5b81516001600160401b03808211156155e957600080fd5b90830190606082860312156155fd57600080fd5b60405160608101818110838211171561561857615618615071565b8060405250825181526020830151602082015260408301518281111561563d57600080fd5b61564987828601615207565b60408301525095945050505050565b6000815180845260005b8181101561567e57602081850181015186830182015201615662565b506000602082860101526020601f19601f83011685010191505092915050565b604081526000614bce6040830185615658565b6040815260006156c46040830185615658565b905060018060a01b03831660208301529392505050565b602081526000610e2f602083018461565856fea26469706673582212207ebb0ed107b4682fbfee0b608c0da2d5627f26b8fd95f2692c0873f55330930d64736f6c63430008140033",
  "linkReferences": {},
  "deployedLinkReferences": {}
}