{
  "_format": "hh-sol-artifact-1",
  "contractName": "MarketGetter",
  "sourceName": "contracts/MarketGetter.sol",
  "abi": [
    {
      "inputs": [
        {
          "internalType": "contract Market",
          "name": "market",
          "type": "address"
        },
        {
          "internalType": "uint256",
          "name": "timestamp",
          "type": "uint256"
        },
        {
          "internalType": "uint256",
          "name": "pairPrice",
          "type": "uint256"
        },
        {
          "internalType": "uint256",
          "name": "acqPrice",
          "type": "uint256"
        }
      ],
      "name": "clcAmountToApprove",
      "outputs": [
        {
          "internalType": "uint256",
          "name": "approvalAmnt",
          "type": "uint256"
        }
      ],
      "stateMutability": "view",
      "type": "function"
    },
    {
      "inputs": [
        {
          "internalType": "contract Market",
          "name": "market",
          "type": "address"
        },
        {
          "internalType": "uint256",
          "name": "timestamp",
          "type": "uint256"
        },
        {
          "internalType": "uint256",
          "name": "pairPrice",
          "type": "uint256"
        },
        {
          "internalType": "uint256",
          "name": "acqPrice",
          "type": "uint256"
        }
      ],
      "name": "clcAmountToApproveForUpdate",
      "outputs": [
        {
          "internalType": "uint256",
          "name": "amnt",
          "type": "uint256"
        }
      ],
      "stateMutability": "view",
      "type": "function"
    },
    {
      "inputs": [
        {
          "internalType": "contract Market",
          "name": "market",
          "type": "address"
        },
        {
          "internalType": "uint256",
          "name": "frameKey",
          "type": "uint256"
        }
      ],
      "name": "getFrameStruct",
      "outputs": [
        {
          "components": [
            {
              "internalType": "uint256",
              "name": "frameKey",
              "type": "uint256"
            },
            {
              "internalType": "uint256",
              "name": "rate",
              "type": "uint256"
            },
            {
              "internalType": "uint256[]",
              "name": "lotKeys",
              "type": "uint256[]"
            },
            {
              "internalType": "address",
              "name": "claimedBy",
              "type": "address"
            },
            {
              "internalType": "uint256",
              "name": "rateSettle",
              "type": "uint256"
            },
            {
              "internalType": "uint256",
              "name": "feeSettle",
              "type": "uint256"
            },
            {
              "internalType": "uint256",
              "name": "rewardSettle",
              "type": "uint256"
            },
            {
              "internalType": "uint256",
              "name": "feeReferral",
              "type": "uint256"
            }
          ],
          "internalType": "struct Market.Frame",
          "name": "",
          "type": "tuple"
        }
      ],
      "stateMutability": "view",
      "type": "function"
    },
    {
      "inputs": [
        {
          "internalType": "contract Market",
          "name": "market",
          "type": "address"
        },
        {
          "internalType": "uint256",
          "name": "frameKey_start",
          "type": "uint256"
        },
        {
          "internalType": "uint256",
          "name": "frameKey_end",
          "type": "uint256"
        },
        {
          "internalType": "uint256",
          "name": "page",
          "type": "uint256"
        },
        {
          "internalType": "uint256",
          "name": "perPage",
          "type": "uint256"
        }
      ],
      "name": "getFrames",
      "outputs": [
        {
          "components": [
            {
              "internalType": "uint256",
              "name": "frameKey",
              "type": "uint256"
            },
            {
              "internalType": "uint256",
              "name": "rate",
              "type": "uint256"
            },
            {
              "internalType": "uint256[]",
              "name": "lotKeys",
              "type": "uint256[]"
            },
            {
              "internalType": "address",
              "name": "claimedBy",
              "type": "address"
            },
            {
              "internalType": "uint256",
              "name": "rateSettle",
              "type": "uint256"
            },
            {
              "internalType": "uint256",
              "name": "feeSettle",
              "type": "uint256"
            },
            {
              "internalType": "uint256",
              "name": "rewardSettle",
              "type": "uint256"
            },
            {
              "internalType": "uint256",
              "name": "feeReferral",
              "type": "uint256"
            }
          ],
          "internalType": "struct Market.Frame[]",
          "name": "frames",
          "type": "tuple[]"
        },
        {
          "internalType": "uint256",
          "name": "pagesLeft",
          "type": "uint256"
        }
      ],
      "stateMutability": "view",
      "type": "function"
    },
    {
      "inputs": [
        {
          "internalType": "contract Market",
          "name": "market",
          "type": "address"
        },
        {
          "internalType": "uint256",
          "name": "startIndex",
          "type": "uint256"
        },
        {
          "internalType": "uint256",
          "name": "endIndex",
          "type": "uint256"
        }
      ],
      "name": "getFramesByIndex",
      "outputs": [
        {
          "components": [
            {
              "internalType": "uint256",
              "name": "frameKey",
              "type": "uint256"
            },
            {
              "internalType": "uint256",
              "name": "rate",
              "type": "uint256"
            },
            {
              "internalType": "uint256[]",
              "name": "lotKeys",
              "type": "uint256[]"
            },
            {
              "internalType": "address",
              "name": "claimedBy",
              "type": "address"
            },
            {
              "internalType": "uint256",
              "name": "rateSettle",
              "type": "uint256"
            },
            {
              "internalType": "uint256",
              "name": "feeSettle",
              "type": "uint256"
            },
            {
              "internalType": "uint256",
              "name": "rewardSettle",
              "type": "uint256"
            },
            {
              "internalType": "uint256",
              "name": "feeReferral",
              "type": "uint256"
            }
          ],
          "internalType": "struct Market.Frame[]",
          "name": "frames",
          "type": "tuple[]"
        }
      ],
      "stateMutability": "view",
      "type": "function"
    },
    {
      "inputs": [
        {
          "internalType": "contract Market",
          "name": "market",
          "type": "address"
        },
        {
          "internalType": "address",
          "name": "user",
          "type": "address"
        },
        {
          "internalType": "uint256",
          "name": "frameKey_start",
          "type": "uint256"
        },
        {
          "internalType": "uint256",
          "name": "frameKey_end",
          "type": "uint256"
        },
        {
          "internalType": "uint256",
          "name": "page",
          "type": "uint256"
        },
        {
          "internalType": "uint256",
          "name": "perPage",
          "type": "uint256"
        }
      ],
      "name": "getFramesUser",
      "outputs": [
        {
          "components": [
            {
              "internalType": "uint256",
              "name": "frameKey",
              "type": "uint256"
            },
            {
              "internalType": "uint256",
              "name": "rate",
              "type": "uint256"
            },
            {
              "internalType": "uint256[]",
              "name": "lotKeys",
              "type": "uint256[]"
            },
            {
              "internalType": "address",
              "name": "claimedBy",
              "type": "address"
            },
            {
              "internalType": "uint256",
              "name": "rateSettle",
              "type": "uint256"
            },
            {
              "internalType": "uint256",
              "name": "feeSettle",
              "type": "uint256"
            },
            {
              "internalType": "uint256",
              "name": "rewardSettle",
              "type": "uint256"
            },
            {
              "internalType": "uint256",
              "name": "feeReferral",
              "type": "uint256"
            }
          ],
          "internalType": "struct Market.Frame[]",
          "name": "userFrames",
          "type": "tuple[]"
        },
        {
          "internalType": "uint256",
          "name": "pagesLeft",
          "type": "uint256"
        }
      ],
      "stateMutability": "view",
      "type": "function"
    },
    {
      "inputs": [
        {
          "internalType": "contract Market",
          "name": "market",
          "type": "address"
        },
        {
          "internalType": "uint256",
          "name": "frameKey",
          "type": "uint256"
        },
        {
          "internalType": "uint256",
          "name": "index",
          "type": "uint256"
        }
      ],
      "name": "getLotKey",
      "outputs": [
        {
          "internalType": "uint256",
          "name": "",
          "type": "uint256"
        }
      ],
      "stateMutability": "view",
      "type": "function"
    },
    {
      "inputs": [
        {
          "internalType": "contract Market",
          "name": "market",
          "type": "address"
        },
        {
          "internalType": "uint256",
          "name": "frameKey",
          "type": "uint256"
        },
        {
          "internalType": "uint256",
          "name": "lotKey",
          "type": "uint256"
        }
      ],
      "name": "getLotStruct",
      "outputs": [
        {
          "components": [
            {
              "internalType": "uint256",
              "name": "frameKey",
              "type": "uint256"
            },
            {
              "internalType": "uint256",
              "name": "lotKey",
              "type": "uint256"
            },
            {
              "components": [
                {
                  "internalType": "uint256",
                  "name": "blockNumber",
                  "type": "uint256"
                },
                {
                  "internalType": "uint256",
                  "name": "blockTimestamp",
                  "type": "uint256"
                },
                {
                  "internalType": "address",
                  "name": "owner",
                  "type": "address"
                },
                {
                  "internalType": "uint256",
                  "name": "acquisitionPrice",
                  "type": "uint256"
                },
                {
                  "internalType": "uint256",
                  "name": "taxCharged",
                  "type": "uint256"
                },
                {
                  "internalType": "uint256",
                  "name": "taxRefunded",
                  "type": "uint256"
                }
              ],
              "internalType": "struct Market.LotState[]",
              "name": "states",
              "type": "tuple[]"
            }
          ],
          "internalType": "struct Market.Lot",
          "name": "",
          "type": "tuple"
        }
      ],
      "stateMutability": "view",
      "type": "function"
    },
    {
      "inputs": [
        {
          "internalType": "contract Market",
          "name": "market",
          "type": "address"
        },
        {
          "internalType": "uint256",
          "name": "frameKey_start",
          "type": "uint256"
        },
        {
          "internalType": "uint256",
          "name": "frameKey_end",
          "type": "uint256"
        },
        {
          "internalType": "uint256",
          "name": "page",
          "type": "uint256"
        },
        {
          "internalType": "uint256",
          "name": "perPage",
          "type": "uint256"
        }
      ],
      "name": "getLots",
      "outputs": [
        {
          "components": [
            {
              "internalType": "uint256",
              "name": "frameKey",
              "type": "uint256"
            },
            {
              "internalType": "uint256",
              "name": "lotKey",
              "type": "uint256"
            },
            {
              "components": [
                {
                  "internalType": "uint256",
                  "name": "blockNumber",
                  "type": "uint256"
                },
                {
                  "internalType": "uint256",
                  "name": "blockTimestamp",
                  "type": "uint256"
                },
                {
                  "internalType": "address",
                  "name": "owner",
                  "type": "address"
                },
                {
                  "internalType": "uint256",
                  "name": "acquisitionPrice",
                  "type": "uint256"
                },
                {
                  "internalType": "uint256",
                  "name": "taxCharged",
                  "type": "uint256"
                },
                {
                  "internalType": "uint256",
                  "name": "taxRefunded",
                  "type": "uint256"
                }
              ],
              "internalType": "struct Market.LotState[]",
              "name": "states",
              "type": "tuple[]"
            }
          ],
          "internalType": "struct Market.Lot[]",
          "name": "lots",
          "type": "tuple[]"
        },
        {
          "internalType": "uint256",
          "name": "pagesLeft",
          "type": "uint256"
        }
      ],
      "stateMutability": "view",
      "type": "function"
    },
    {
      "inputs": [
        {
          "internalType": "contract Market",
          "name": "market",
          "type": "address"
        },
        {
          "internalType": "uint256",
          "name": "startIndex",
          "type": "uint256"
        },
        {
          "internalType": "uint256",
          "name": "endIndex",
          "type": "uint256"
        }
      ],
      "name": "getLotsByIndex",
      "outputs": [
        {
          "components": [
            {
              "internalType": "uint256",
              "name": "frameKey",
              "type": "uint256"
            },
            {
              "internalType": "uint256",
              "name": "lotKey",
              "type": "uint256"
            },
            {
              "components": [
                {
                  "internalType": "uint256",
                  "name": "blockNumber",
                  "type": "uint256"
                },
                {
                  "internalType": "uint256",
                  "name": "blockTimestamp",
                  "type": "uint256"
                },
                {
                  "internalType": "address",
                  "name": "owner",
                  "type": "address"
                },
                {
                  "internalType": "uint256",
                  "name": "acquisitionPrice",
                  "type": "uint256"
                },
                {
                  "internalType": "uint256",
                  "name": "taxCharged",
                  "type": "uint256"
                },
                {
                  "internalType": "uint256",
                  "name": "taxRefunded",
                  "type": "uint256"
                }
              ],
              "internalType": "struct Market.LotState[]",
              "name": "states",
              "type": "tuple[]"
            }
          ],
          "internalType": "struct Market.Lot[]",
          "name": "lots",
          "type": "tuple[]"
        }
      ],
      "stateMutability": "view",
      "type": "function"
    },
    {
      "inputs": [
        {
          "internalType": "contract Market",
          "name": "market",
          "type": "address"
        },
        {
          "internalType": "uint256",
          "name": "frameKey",
          "type": "uint256"
        }
      ],
      "name": "getLotsCount",
      "outputs": [
        {
          "internalType": "uint256",
          "name": "",
          "type": "uint256"
        }
      ],
      "stateMutability": "view",
      "type": "function"
    },
    {
      "inputs": [
        {
          "internalType": "contract Market",
          "name": "market",
          "type": "address"
        },
        {
          "internalType": "address",
          "name": "user",
          "type": "address"
        },
        {
          "internalType": "uint256",
          "name": "mode",
          "type": "uint256"
        },
        {
          "internalType": "uint256",
          "name": "frameKey_start",
          "type": "uint256"
        },
        {
          "internalType": "uint256",
          "name": "frameKey_end",
          "type": "uint256"
        },
        {
          "internalType": "uint256",
          "name": "page",
          "type": "uint256"
        },
        {
          "internalType": "uint256",
          "name": "perPage",
          "type": "uint256"
        }
      ],
      "name": "getLotsSoldUser",
      "outputs": [
        {
          "components": [
            {
              "internalType": "uint256",
              "name": "frameKey",
              "type": "uint256"
            },
            {
              "internalType": "uint256",
              "name": "lotKey",
              "type": "uint256"
            },
            {
              "components": [
                {
                  "internalType": "uint256",
                  "name": "blockNumber",
                  "type": "uint256"
                },
                {
                  "internalType": "uint256",
                  "name": "blockTimestamp",
                  "type": "uint256"
                },
                {
                  "internalType": "address",
                  "name": "owner",
                  "type": "address"
                },
                {
                  "internalType": "uint256",
                  "name": "acquisitionPrice",
                  "type": "uint256"
                },
                {
                  "internalType": "uint256",
                  "name": "taxCharged",
                  "type": "uint256"
                },
                {
                  "internalType": "uint256",
                  "name": "taxRefunded",
                  "type": "uint256"
                }
              ],
              "internalType": "struct Market.LotState[]",
              "name": "states",
              "type": "tuple[]"
            }
          ],
          "internalType": "struct Market.Lot[]",
          "name": "userLots",
          "type": "tuple[]"
        },
        {
          "internalType": "uint256",
          "name": "pagesLeft",
          "type": "uint256"
        }
      ],
      "stateMutability": "view",
      "type": "function"
    },
    {
      "inputs": [
        {
          "internalType": "contract Market",
          "name": "market",
          "type": "address"
        },
        {
          "internalType": "address",
          "name": "user",
          "type": "address"
        },
        {
          "internalType": "uint256",
          "name": "mode",
          "type": "uint256"
        },
        {
          "internalType": "uint256",
          "name": "frameKey_start",
          "type": "uint256"
        },
        {
          "internalType": "uint256",
          "name": "frameKey_end",
          "type": "uint256"
        },
        {
          "internalType": "uint256",
          "name": "page",
          "type": "uint256"
        },
        {
          "internalType": "uint256",
          "name": "perPage",
          "type": "uint256"
        }
      ],
      "name": "getLotsUser",
      "outputs": [
        {
          "components": [
            {
              "internalType": "uint256",
              "name": "frameKey",
              "type": "uint256"
            },
            {
              "internalType": "uint256",
              "name": "lotKey",
              "type": "uint256"
            },
            {
              "components": [
                {
                  "internalType": "uint256",
                  "name": "blockNumber",
                  "type": "uint256"
                },
                {
                  "internalType": "uint256",
                  "name": "blockTimestamp",
                  "type": "uint256"
                },
                {
                  "internalType": "address",
                  "name": "owner",
                  "type": "address"
                },
                {
                  "internalType": "uint256",
                  "name": "acquisitionPrice",
                  "type": "uint256"
                },
                {
                  "internalType": "uint256",
                  "name": "taxCharged",
                  "type": "uint256"
                },
                {
                  "internalType": "uint256",
                  "name": "taxRefunded",
                  "type": "uint256"
                }
              ],
              "internalType": "struct Market.LotState[]",
              "name": "states",
              "type": "tuple[]"
            }
          ],
          "internalType": "struct Market.Lot[]",
          "name": "userLots",
          "type": "tuple[]"
        },
        {
          "internalType": "uint256",
          "name": "pagesLeft",
          "type": "uint256"
        }
      ],
      "stateMutability": "view",
      "type": "function"
    },
    {
      "inputs": [
        {
          "internalType": "contract Market",
          "name": "market",
          "type": "address"
        },
        {
          "internalType": "uint256",
          "name": "firstUserIndex",
          "type": "uint256"
        },
        {
          "internalType": "uint256",
          "name": "lastUserIndex",
          "type": "uint256"
        },
        {
          "internalType": "uint256",
          "name": "frameKeyStart",
          "type": "uint256"
        },
        {
          "internalType": "uint256",
          "name": "frameKeyEnd",
          "type": "uint256"
        }
      ],
      "name": "getMultipleUsersRewards",
      "outputs": [
        {
          "internalType": "uint256",
          "name": "comulativeReward",
          "type": "uint256"
        },
        {
          "internalType": "uint256[]",
          "name": "rewards",
          "type": "uint256[]"
        }
      ],
      "stateMutability": "view",
      "type": "function"
    },
    {
      "inputs": [
        {
          "internalType": "contract Market",
          "name": "market",
          "type": "address"
        },
        {
          "internalType": "uint256",
          "name": "startFrame",
          "type": "uint256"
        },
        {
          "internalType": "uint256",
          "name": "numOfFrames",
          "type": "uint256"
        }
      ],
      "name": "getOpenFrameKeys",
      "outputs": [
        {
          "internalType": "uint256[]",
          "name": "openFrames",
          "type": "uint256[]"
        }
      ],
      "stateMutability": "view",
      "type": "function"
    },
    {
      "inputs": [
        {
          "internalType": "contract Market",
          "name": "market",
          "type": "address"
        },
        {
          "internalType": "uint256",
          "name": "frameKey",
          "type": "uint256"
        }
      ],
      "name": "getRewardAmount",
      "outputs": [
        {
          "internalType": "uint256",
          "name": "",
          "type": "uint256"
        }
      ],
      "stateMutability": "view",
      "type": "function"
    },
    {
      "inputs": [
        {
          "internalType": "contract Market",
          "name": "market",
          "type": "address"
        },
        {
          "internalType": "uint256",
          "name": "frameKey",
          "type": "uint256"
        }
      ],
      "name": "getRewardAmountMin",
      "outputs": [
        {
          "internalType": "uint256",
          "name": "rewardFund",
          "type": "uint256"
        }
      ],
      "stateMutability": "view",
      "type": "function"
    },
    {
      "inputs": [
        {
          "internalType": "contract Market",
          "name": "market",
          "type": "address"
        },
        {
          "internalType": "address",
          "name": "user",
          "type": "address"
        },
        {
          "internalType": "uint256",
          "name": "startIndex",
          "type": "uint256"
        },
        {
          "internalType": "uint256",
          "name": "endIndex",
          "type": "uint256"
        }
      ],
      "name": "getUserCollectedByIndex",
      "outputs": [
        {
          "internalType": "uint256[]",
          "name": "collected",
          "type": "uint256[]"
        }
      ],
      "stateMutability": "view",
      "type": "function"
    },
    {
      "inputs": [
        {
          "internalType": "contract Market",
          "name": "market",
          "type": "address"
        },
        {
          "internalType": "address",
          "name": "user",
          "type": "address"
        },
        {
          "internalType": "uint256",
          "name": "frameKeyStart",
          "type": "uint256"
        },
        {
          "internalType": "uint256",
          "name": "frameKeyEnd",
          "type": "uint256"
        }
      ],
      "name": "getUserRewards",
      "outputs": [
        {
          "internalType": "uint256",
          "name": "reward",
          "type": "uint256"
        }
      ],
      "stateMutability": "view",
      "type": "function"
    },
    {
      "inputs": [
        {
          "internalType": "contract Market",
          "name": "market",
          "type": "address"
        },
        {
          "internalType": "address",
          "name": "user",
          "type": "address"
        },
        {
          "internalType": "uint256",
          "name": "startIndex",
          "type": "uint256"
        },
        {
          "internalType": "uint256",
          "name": "endIndex",
          "type": "uint256"
        }
      ],
      "name": "getUserRewardsByIndex",
      "outputs": [
        {
          "internalType": "uint256[]",
          "name": "rewards",
          "type": "uint256[]"
        }
      ],
      "stateMutability": "view",
      "type": "function"
    },
    {
      "inputs": [
        {
          "internalType": "contract Market",
          "name": "market",
          "type": "address"
        },
        {
          "internalType": "address",
          "name": "user",
          "type": "address"
        }
      ],
      "name": "getUserRewardsLength",
      "outputs": [
        {
          "internalType": "uint256",
          "name": "",
          "type": "uint256"
        }
      ],
      "stateMutability": "view",
      "type": "function"
    },
    {
      "inputs": [
        {
          "internalType": "contract Market",
          "name": "market",
          "type": "address"
        },
        {
          "internalType": "address",
          "name": "user",
          "type": "address"
        }
      ],
      "name": "getUserStruct",
      "outputs": [
        {
          "components": [
            {
              "internalType": "address",
              "name": "user",
              "type": "address"
            },
            {
              "internalType": "address",
              "name": "referredBy",
              "type": "address"
            },
            {
              "internalType": "uint256[]",
              "name": "rewards",
              "type": "uint256[]"
            },
            {
              "internalType": "uint256[]",
              "name": "collected",
              "type": "uint256[]"
            }
          ],
          "internalType": "struct MarketGetter.User",
          "name": "",
          "type": "tuple"
        }
      ],
      "stateMutability": "view",
      "type": "function"
    },
    {
      "inputs": [
        {
          "internalType": "contract Market",
          "name": "market",
          "type": "address"
        },
        {
          "internalType": "uint256",
          "name": "startIndex",
          "type": "uint256"
        },
        {
          "internalType": "uint256",
          "name": "endIndex",
          "type": "uint256"
        },
        {
          "internalType": "uint256",
          "name": "startIndexArray",
          "type": "uint256"
        },
        {
          "internalType": "uint256",
          "name": "endIndexArray",
          "type": "uint256"
        }
      ],
      "name": "getUsersByIndex",
      "outputs": [
        {
          "components": [
            {
              "internalType": "address",
              "name": "user",
              "type": "address"
            },
            {
              "internalType": "address",
              "name": "referredBy",
              "type": "address"
            },
            {
              "internalType": "uint256[]",
              "name": "rewards",
              "type": "uint256[]"
            },
            {
              "internalType": "uint256[]",
              "name": "collected",
              "type": "uint256[]"
            }
          ],
          "internalType": "struct MarketGetter.User[]",
          "name": "users",
          "type": "tuple[]"
        }
      ],
      "stateMutability": "view",
      "type": "function"
    },
    {
      "inputs": [
        {
          "internalType": "contract Market",
          "name": "market",
          "type": "address"
        },
        {
          "internalType": "uint256",
          "name": "startIndex",
          "type": "uint256"
        },
        {
          "internalType": "uint256",
          "name": "endIndex",
          "type": "uint256"
        }
      ],
      "name": "getUsersByIndexFull",
      "outputs": [
        {
          "components": [
            {
              "internalType": "address",
              "name": "user",
              "type": "address"
            },
            {
              "internalType": "address",
              "name": "referredBy",
              "type": "address"
            },
            {
              "internalType": "uint256[]",
              "name": "rewards",
              "type": "uint256[]"
            },
            {
              "internalType": "uint256[]",
              "name": "collected",
              "type": "uint256[]"
            }
          ],
          "internalType": "struct MarketGetter.User[]",
          "name": "users",
          "type": "tuple[]"
        }
      ],
      "stateMutability": "view",
      "type": "function"
    },
    {
      "inputs": [
        {
          "internalType": "contract Market",
          "name": "market",
          "type": "address"
        },
        {
          "internalType": "address",
          "name": "user",
          "type": "address"
        }
      ],
      "name": "getUsersReferrals",
      "outputs": [
        {
          "internalType": "address[]",
          "name": "referrals",
          "type": "address[]"
        },
        {
          "internalType": "uint16",
          "name": "length",
          "type": "uint16"
        }
      ],
      "stateMutability": "view",
      "type": "function"
    },
    {
      "inputs": [
        {
          "internalType": "uint256",
          "name": "concatenated",
          "type": "uint256"
        }
      ],
      "name": "splitLotsArrayElement",
      "outputs": [
        {
          "internalType": "uint256",
          "name": "frameKey",
          "type": "uint256"
        },
        {
          "internalType": "uint256",
          "name": "lotKey",
          "type": "uint256"
        }
      ],
      "stateMutability": "pure",
      "type": "function"
    }
  ],
  "bytecode": "0x608060405234801561001057600080fd5b5061597580620000216000396000f3fe608060405234801561001057600080fd5b506004361061018e5760003560e01c8063c1d01395116100de578063de73259511610097578063f2e2417d11610071578063f2e2417d146103f4578063f579a2d114610407578063f6eb9ee71461041a578063f91cbebe1461042d57600080fd5b8063de732595146103bb578063e32ed3cc146103ce578063f2580f26146103e157600080fd5b8063c1d0139514610322578063c8ddd52114610335578063cff9e83c14610355578063d00d7b1914610375578063da4e855614610395578063dbd20a88146103a857600080fd5b80636d03471b1161014b5780638522bc38116101255780638522bc38146102a55780639291178e146102c657806398820b22146102d9578063ae370f6d146102fa57600080fd5b80636d03471b1461025257806371b08d89146102725780637f424a371461028557600080fd5b8063281e8068146101935780632c79854f146101bd5780633191b50e146101de57806334d186aa146101fe5780634314b84f14610211578063612d8b5014610231575b600080fd5b6101a66101a1366004614cfd565b610440565b6040516101b4929190614e4d565b60405180910390f35b6101d06101cb366004614e6f565b610dcb565b6040519081526020016101b4565b6101f16101ec366004614e6f565b610e64565b6040516101b49190614f98565b6101d061020c366004614fab565b61109c565b61022461021f366004614e6f565b61111c565b6040516101b49190614fe4565b61024461023f366004614ff7565b6112e9565b6040516101b492919061503b565b610265610260366004614ff7565b61165f565b6040516101b4919061509c565b6101a6610280366004614cfd565b611a33565b6102986102933660046150fe565b6122ee565b6040516101b4919061512a565b6102b86102b3366004614fab565b612408565b6040516101b492919061513d565b6101d06102d43660046150fe565b61271f565b6102ec6102e7366004614ff7565b61279a565b6040516101b4929190615195565b61030d6103083660046151ae565b612b08565b604080519283526020830191909152016101b4565b6101d06103303660046151c7565b612b32565b610348610343366004614fab565b612e22565b6040516101b49190615202565b610368610363366004615215565b612f5d565b6040516101b4919061525b565b610388610383366004614e6f565b613085565b6040516101b4919061526e565b6101d06103a33660046150fe565b613464565b6103686103b6366004614e6f565b613570565b6101d06103c93660046151c7565b61373a565b6101d06103dc366004615215565b6139a1565b6101d06103ef3660046150fe565b613aa9565b610265610402366004614e6f565b613e04565b610368610415366004615215565b61421a565b610244610428366004615281565b61432c565b6101a661043b366004614ff7565b614851565b6060600061044f8360016152f0565b6001600160401b0381111561046657610466615303565b6040519080825280602002602001820160405280156104bb57816020015b6104a860405180606001604052806000815260200160008152602001606081525090565b8152602001906001900390816104845790505b50604080516003808252608082019092529193506000916060918391906020820184803683370190505090508b6001600160a01b031663ef78d4fd6040518163ffffffff1660e01b8152600401602060405180830381865afa158015610525573d6000803e3d6000fd5b505050506040513d601f19601f820116820180604052508101906105499190615319565b8160028151811061055c5761055c615332565b60200260200101818152505060018a1161093d57885b88811161093b5760405163bad1265360e01b8152600481018290526001600160a01b038e169063bad1265390602401602060405180830381865afa1580156105be573d6000803e3d6000fd5b505050506040513d601f19601f820116820180604052508101906105e29190615348565b935060018460048111156105f8576105f8615369565b0361090e57604051630122bf3160e51b8152600481018290526001600160a01b038e1690632457e62090602401600060405180830381865afa158015610642573d6000803e3d6000fd5b505050506040513d6000823e601f3d908101601f1916820160405261066a9190810190615465565b925060005b835181101561090c5761069c8e8386848151811061068f5761068f615332565b602002602001015161111c565b8789815181106106ae576106ae615332565b602002602001018190525060008e6001600160a01b031663fb0d5e09848785815181106106dd576106dd615332565b60200260200101516040518363ffffffff1660e01b815260040161070b929190918252602082015260400190565b600060405180830381865afa158015610728573d6000803e3d6000fd5b505050506040513d6000823e601f3d908101601f191682016040526107509190810190615554565b905060005b600182516107639190615588565b8110156108f7578e6001600160a01b031682828151811061078657610786615332565b6020026020010151604001516001600160a01b0316036108e5576107aa8a8c61559b565b856000815181106107bd576107bd615332565b6020026020010151101580156108015750896107da8c60016152f0565b6107e4919061559b565b856000815181106107f7576107f7615332565b6020026020010151105b1561089e57888a8151811061081857610818615332565b6020026020010151898660018151811061083457610834615332565b60200260200101518151811061084c5761084c615332565b60200260200101819052508460018151811061086a5761086a615332565b6020026020010151600161087e91906152f0565b8560018151811061089157610891615332565b6020026020010181815250505b846000815181106108b1576108b1615332565b602002602001015160016108c591906152f0565b856000815181106108d8576108d8615332565b6020026020010181815250505b806108ef816155b2565b915050610755565b50508080610904906155b2565b91505061066f565b505b8160028151811061092157610921615332565b60200260200101518161093491906152f0565b9050610572565b505b896002148061094a575089155b15610d4857885b888111610d465760405163bad1265360e01b8152600481018290526001600160a01b038e169063bad1265390602401602060405180830381865afa15801561099d573d6000803e3d6000fd5b505050506040513d601f19601f820116820180604052508101906109c19190615348565b935060028460048111156109d7576109d7615369565b14806109f4575060048460048111156109f2576109f2615369565b145b80610a1057506003846004811115610a0e57610a0e615369565b145b15610d1957604051630122bf3160e51b8152600481018290526001600160a01b038e1690632457e62090602401600060405180830381865afa158015610a5a573d6000803e3d6000fd5b505050506040513d6000823e601f3d908101601f19168201604052610a829190810190615465565b925060005b8351811015610d1757610aa78e8386848151811061068f5761068f615332565b878981518110610ab957610ab9615332565b602002602001018190525060008e6001600160a01b031663fb0d5e0984878581518110610ae857610ae8615332565b60200260200101516040518363ffffffff1660e01b8152600401610b16929190918252602082015260400190565b600060405180830381865afa158015610b33573d6000803e3d6000fd5b505050506040513d6000823e601f3d908101601f19168201604052610b5b9190810190615554565b905060005b60018251610b6e9190615588565b811015610d02578e6001600160a01b0316828281518110610b9157610b91615332565b6020026020010151604001516001600160a01b031603610cf057610bb58a8c61559b565b85600081518110610bc857610bc8615332565b602002602001015110158015610c0c575089610be58c60016152f0565b610bef919061559b565b85600081518110610c0257610c02615332565b6020026020010151105b15610ca957888a81518110610c2357610c23615332565b60200260200101518986600181518110610c3f57610c3f615332565b602002602001015181518110610c5757610c57615332565b602002602001018190525084600181518110610c7557610c75615332565b60200260200101516001610c8991906152f0565b85600181518110610c9c57610c9c615332565b6020026020010181815250505b84600081518110610cbc57610cbc615332565b60200260200101516001610cd091906152f0565b85600081518110610ce357610ce3615332565b6020026020010181815250505b80610cfa816155b2565b915050610b60565b50508080610d0f906155b2565b915050610a87565b505b81600281518110610d2c57610d2c615332565b602002602001015181610d3f91906152f0565b9050610951565b505b85610d548860016152f0565b610d5e919061559b565b81600081518110610d7157610d71615332565b60200260200101511115610db757868682600081518110610d9457610d94615332565b6020026020010151610da691906155e1565b610db09190615588565b9350610dbc565b600093505b50505097509795505050505050565b604051630122bf3160e51b81526004810183905260009081906001600160a01b03861690632457e62090602401600060405180830381865afa158015610e15573d6000803e3d6000fd5b505050506040513d6000823e601f3d908101601f19168201604052610e3d9190810190615465565b9050808381518110610e5157610e51615332565b60200260200101519150505b9392505050565b606081831115610e8f5760405162461bcd60e51b8152600401610e86906155f5565b60405180910390fd5b6000846001600160a01b031663ed320aa86040518163ffffffff1660e01b8152600401602060405180830381865afa158015610ecf573d6000803e3d6000fd5b505050506040513d601f19601f82011682018060405250810190610ef39190615319565b905060008111610f455760405162461bcd60e51b815260206004820152601760248201527f4e6f206672616d657320696e20746865206d61726b65740000000000000000006044820152606401610e86565b838111610f645760405162461bcd60e51b8152600401610e8690615644565b82811015610f7a57610f77600182615588565b92505b610f848484615588565b610f8f9060016152f0565b6001600160401b03811115610fa657610fa6615303565b604051908082528060200260200182016040528015610fdf57816020015b610fcc614c5b565b815260200190600190039081610fc45790505b509150835b8381116110935760405162143a2160e61b8152600481018290526000906001600160a01b0388169063050e884090602401602060405180830381865afa158015611032573d6000803e3d6000fd5b505050506040513d601f19601f820116820180604052508101906110569190615319565b905061106287826122ee565b84838151811061107457611074615332565b602002602001018190525050808061108b906155b2565b915050610fe4565b50509392505050565b6040516391bb686560e01b81526001600160a01b0382811660048301526000916060918516906391bb686590602401600060405180830381865afa1580156110e8573d6000803e3d6000fd5b505050506040513d6000823e601f3d908101601f19168201604052611110919081019061567b565b50519150505b92915050565b61114060405180606001604052806000815260200160008152602001606081525090565b61116460405180606001604052806000815260200160008152602001606081525090565b8381526020810183905260405163fb0d5e0960e01b815260048101859052602481018490526000906001600160a01b0387169063fb0d5e0990604401600060405180830381865afa1580156111bd573d6000803e3d6000fd5b505050506040513d6000823e601f3d908101601f191682016040526111e59190810190615554565b9050805160000361122c5760408051600180825281830190925290816020015b61120d614ca9565b8152602001906001900390816112055750506040830152509050610e5d565b80516001600160401b0381111561124557611245615303565b60405190808252806020026020018201604052801561127e57816020015b61126b614ca9565b8152602001906001900390816112635790505b50604083015260005b81518110156112de578181815181106112a2576112a2615332565b6020026020010151836040015182815181106112c0576112c0615332565b602002602001018190525080806112d6906155b2565b915050611287565b509095945050505050565b60606000826001600160401b0381111561130557611305615303565b60405190808252806020026020018201604052801561133e57816020015b61132b614c5b565b8152602001906001900390816113235790505b509150611349614c5b565b6040805160038082526080820190925260009160208201606080368337019050509050886001600160a01b031663ef78d4fd6040518163ffffffff1660e01b8152600401602060405180830381865afa1580156113aa573d6000803e3d6000fd5b505050506040513d601f19601f820116820180604052508101906113ce9190615319565b816002815181106113e1576113e1615332565b6020908102919091010152875b8781116115de576113ff8a826122ee565b92506000835160405163bad1265360e01b815260048101919091526001600160a01b038c169063bad1265390602401602060405180830381865afa15801561144b573d6000803e3d6000fd5b505050506040513d601f19601f8201168201806040525081019061146f9190615348565b600481111561148057611480615369565b146115b15761148f868861559b565b826000815181106114a2576114a2615332565b6020026020010151101580156114e65750856114bf8860016152f0565b6114c9919061559b565b826000815181106114dc576114dc615332565b6020026020010151105b1561156a5782858360018151811061150057611500615332565b60200260200101518151811061151857611518615332565b60200260200101819052508160018151811061153657611536615332565b6020026020010151600161154a91906152f0565b8260018151811061155d5761155d615332565b6020026020010181815250505b8160008151811061157d5761157d615332565b6020026020010151600161159191906152f0565b826000815181106115a4576115a4615332565b6020026020010181815250505b816002815181106115c4576115c4615332565b6020026020010151816115d791906152f0565b90506113ee565b50846115eb8760016152f0565b6115f5919061559b565b8160008151811061160857611608615332565b6020026020010151111561164e5785858260008151811061162b5761162b615332565b602002602001015161163d91906155e1565b6116479190615588565b9250611653565b600092505b50509550959350505050565b6060838511156116815760405162461bcd60e51b8152600401610e86906155f5565b6000866001600160a01b031663ffde58626040518163ffffffff1660e01b8152600401602060405180830381865afa1580156116c1573d6000803e3d6000fd5b505050506040513d601f19601f820116820180604052508101906116e59190615319565b9050600081116117305760405162461bcd60e51b8152602060048201526016602482015275139bc81d5cd95c9cc81a5b881d1a19481b585c9ad95d60521b6044820152606401610e86565b600061173c8787615588565b6117479060016152f0565b6001600160401b0381111561175e5761175e615303565b604051908082528060200260200182016040528015611787578160200160208202803683370190505b509050876001600160a01b03166399fe71ef6040518163ffffffff1660e01b8152600401600060405180830381865afa1580156117c8573d6000803e3d6000fd5b505050506040513d6000823e601f3d908101601f191682016040526117f091908101906156de565b90508187106118115760405162461bcd60e51b8152600401610e8690615644565b81861061182657611823600183615588565b95505b6118308787615588565b61183b9060016152f0565b6001600160401b0381111561185257611852615303565b6040519080825280602002602001820160405280156118a657816020015b60408051608081018252600080825260208201526060918101829052818101919091528152602001906001900390816118705790505b509250865b868111611a27576000896001600160a01b031663a87430ba8484815181106118d5576118d5615332565b60200260200101516040518263ffffffff1660e01b815260040161190891906001600160a01b0391909116815260200190565b6040805180830381865afa158015611924573d6000803e3d6000fd5b505050506040513d601f19601f82011682018060405250810190611948919061576c565b91505060006119728b85858151811061196357611963615332565b60200260200101518a8a61421a565b9050600061199b8c86868151811061198c5761198c615332565b60200260200101518b8b612f5d565b905060405180608001604052808686815181106119ba576119ba615332565b60200260200101516001600160a01b03168152602001846001600160a01b0316815260200183815260200182815250878c866119f69190615588565b81518110611a0657611a06615332565b60200260200101819052505050508080611a1f906155b2565b9150506118ab565b50505095945050505050565b60606000611a428360016152f0565b6001600160401b03811115611a5957611a59615303565b604051908082528060200260200182016040528015611aae57816020015b611a9b60405180606001604052806000815260200160008152602001606081525090565b815260200190600190039081611a775790505b50604080516003808252608082019092529193506000916060918391906020820184803683370190505090508b6001600160a01b031663ef78d4fd6040518163ffffffff1660e01b8152600401602060405180830381865afa158015611b18573d6000803e3d6000fd5b505050506040513d601f19601f82011682018060405250810190611b3c9190615319565b81600281518110611b4f57611b4f615332565b60200260200101818152505060018a11611f0457885b888111611f025760405163bad1265360e01b8152600481018290526001600160a01b038e169063bad1265390602401602060405180830381865afa158015611bb1573d6000803e3d6000fd5b505050506040513d601f19601f82011682018060405250810190611bd59190615348565b93506001846004811115611beb57611beb615369565b03611ed557604051630122bf3160e51b8152600481018290526001600160a01b038e1690632457e62090602401600060405180830381865afa158015611c35573d6000803e3d6000fd5b505050506040513d6000823e601f3d908101601f19168201604052611c5d9190810190615465565b925060005b8351811015611ed357611c828e8386848151811061068f5761068f615332565b878981518110611c9457611c94615332565b602002602001018190525060008e6001600160a01b031663fb0d5e0984878581518110611cc357611cc3615332565b60200260200101516040518363ffffffff1660e01b8152600401611cf1929190918252602082015260400190565b600060405180830381865afa158015611d0e573d6000803e3d6000fd5b505050506040513d6000823e601f3d908101601f19168201604052611d369190810190615554565b90508d6001600160a01b03168160018351611d519190615588565b81518110611d6157611d61615332565b6020026020010151604001516001600160a01b031603611ec057611d85898b61559b565b84600081518110611d9857611d98615332565b602002602001015110158015611ddc575088611db58b60016152f0565b611dbf919061559b565b84600081518110611dd257611dd2615332565b6020026020010151105b15611e7957878981518110611df357611df3615332565b60200260200101518885600181518110611e0f57611e0f615332565b602002602001015181518110611e2757611e27615332565b602002602001018190525083600181518110611e4557611e45615332565b60200260200101516001611e5991906152f0565b84600181518110611e6c57611e6c615332565b6020026020010181815250505b83600081518110611e8c57611e8c615332565b60200260200101516001611ea091906152f0565b84600081518110611eb357611eb3615332565b6020026020010181815250505b5080611ecb816155b2565b915050611c62565b505b81600281518110611ee857611ee8615332565b602002602001015181611efb91906152f0565b9050611b65565b505b8960021480611f11575089155b15610d4857885b888111610d465760405163bad1265360e01b8152600481018290526001600160a01b038e169063bad1265390602401602060405180830381865afa158015611f64573d6000803e3d6000fd5b505050506040513d601f19601f82011682018060405250810190611f889190615348565b93506002846004811115611f9e57611f9e615369565b1480611fbb57506004846004811115611fb957611fb9615369565b145b80611fd757506003846004811115611fd557611fd5615369565b145b156122c157604051630122bf3160e51b8152600481018290526001600160a01b038e1690632457e62090602401600060405180830381865afa158015612021573d6000803e3d6000fd5b505050506040513d6000823e601f3d908101601f191682016040526120499190810190615465565b925060005b83518110156122bf5761206e8e8386848151811061068f5761068f615332565b87898151811061208057612080615332565b602002602001018190525060008e6001600160a01b031663fb0d5e09848785815181106120af576120af615332565b60200260200101516040518363ffffffff1660e01b81526004016120dd929190918252602082015260400190565b600060405180830381865afa1580156120fa573d6000803e3d6000fd5b505050506040513d6000823e601f3d908101601f191682016040526121229190810190615554565b90508d6001600160a01b0316816001835161213d9190615588565b8151811061214d5761214d615332565b6020026020010151604001516001600160a01b0316036122ac57612171898b61559b565b8460008151811061218457612184615332565b6020026020010151101580156121c85750886121a18b60016152f0565b6121ab919061559b565b846000815181106121be576121be615332565b6020026020010151105b15612265578789815181106121df576121df615332565b602002602001015188856001815181106121fb576121fb615332565b60200260200101518151811061221357612213615332565b60200260200101819052508360018151811061223157612231615332565b6020026020010151600161224591906152f0565b8460018151811061225857612258615332565b6020026020010181815250505b8360008151811061227857612278615332565b6020026020010151600161228c91906152f0565b8460008151811061229f5761229f615332565b6020026020010181815250505b50806122b7816155b2565b91505061204e565b505b816002815181106122d4576122d4615332565b6020026020010151816122e791906152f0565b9050611f18565b6122f6614c5b565b6122fe614c5b565b604051632840d02f60e21b8152600481018490526001600160a01b0385169063a10340bc9060240160e060405180830381865afa158015612343573d6000803e3d6000fd5b505050506040513d601f19601f8201168201806040525081019061236791906157a0565b60e088015260c087015260a086015260808501526001600160a01b0390811660608501526020840191909152908252604051630122bf3160e51b81526004810185905290851690632457e62090602401600060405180830381865afa1580156123d4573d6000803e3d6000fd5b505050506040513d6000823e601f3d908101601f191682016040526123fc9190810190615465565b60408201529392505050565b6060600080846001600160a01b031663ffde58626040518163ffffffff1660e01b8152600401602060405180830381865afa15801561244b573d6000803e3d6000fd5b505050506040513d601f19601f8201168201806040525081019061246f9190615319565b6001600160401b0381111561248657612486615303565b6040519080825280602002602001820160405280156124af578160200160208202803683370190505b5090506000805b866001600160a01b031663ffde58626040518163ffffffff1660e01b8152600401602060405180830381865afa1580156124f4573d6000803e3d6000fd5b505050506040513d601f19601f820116820180604052508101906125189190615319565b8110156126675760405162beb8d760e61b8152600481018290526000906001600160a01b03891690632fae35c090602401602060405180830381865afa158015612566573d6000803e3d6000fd5b505050506040513d601f19601f8201168201806040525081019061258a9190615800565b60405163543a185d60e11b81526001600160a01b0380831660048301529192506000918a169063a87430ba906024016040805180830381865afa1580156125d5573d6000803e3d6000fd5b505050506040513d601f19601f820116820180604052508101906125f9919061576c565b915050876001600160a01b0316816001600160a01b0316036126525781858561ffff168151811061262c5761262c615332565b6001600160a01b03909216602092830291909101909101528361264e8161581d565b9450505b5050808061265f906155b2565b9150506124b6565b508061ffff166001600160401b0381111561268457612684615303565b6040519080825280602002602001820160405280156126ad578160200160208202803683370190505b50935060005b8161ffff16811015612715578281815181106126d1576126d1615332565b60200260200101518582815181106126eb576126eb615332565b6001600160a01b03909216602092830291909101909101528061270d816155b2565b9150506126b3565b5050509250929050565b604051630122bf3160e51b81526004810182905260009081906001600160a01b03851690632457e62090602401600060405180830381865afa158015612769573d6000803e3d6000fd5b505050506040513d6000823e601f3d908101601f191682016040526127919190810190615465565b51949350505050565b600060608486106128135760405162461bcd60e51b815260206004820152603860248201527f666972737455736572496e646578206d75737420626520736d616c6c6572206f60448201527f7220657175616c20746f206c61737455736572496e64657800000000000000006064820152608401610e86565b6000876001600160a01b031663ffde58626040518163ffffffff1660e01b8152600401602060405180830381865afa158015612853573d6000803e3d6000fd5b505050506040513d601f19601f820116820180604052508101906128779190615319565b90508087106128c85760405162461bcd60e51b815260206004820152601f60248201527f666972737455736572496e646578206973206f7574206f6620626f756e6473006044820152606401610e86565b808611156128d4578095505b6128de8787615588565b6001600160401b038111156128f5576128f5615303565b60405190808252806020026020018201604052801561291e578160200160208202803683370190505b5091506000886001600160a01b031663ef78d4fd6040518163ffffffff1660e01b8152600401602060405180830381865afa158015612961573d6000803e3d6000fd5b505050506040513d601f19601f820116820180604052508101906129859190615319565b9050875b612994600189615588565b811015612afb5760405162beb8d760e61b8152600481018290526000906001600160a01b038c1690632fae35c090602401602060405180830381865afa1580156129e2573d6000803e3d6000fd5b505050506040513d601f19601f82011682018060405250810190612a069190615800565b9050875b87811015612ae6576040516391a0846d60e01b81526001600160a01b038381166004830152602482018390528d16906391a0846d90604401602060405180830381865afa158015612a5f573d6000803e3d6000fd5b505050506040513d601f19601f82011682018060405250810190612a839190615319565b868481518110612a9557612a95615332565b60200260200101818151612aa991906152f0565b9052508551869084908110612ac057612ac0615332565b602002602001015187612ad391906152f0565b9650612adf84826152f0565b9050612a0a565b50508080612af3906155b2565b915050612989565b5050509550959350505050565b600080612b1a6402540be4008461583e565b9150612b2b6402540be400846155e1565b9050915091565b6040516361eee2cb60e01b81526004810184905260009081906001600160a01b038716906361eee2cb90602401602060405180830381865afa158015612b7c573d6000803e3d6000fd5b505050506040513d601f19601f82011682018060405250810190612ba09190615319565b6040516361eee2cb60e01b81524260048201529091506001600160a01b038716906361eee2cb90602401602060405180830381865afa158015612be7573d6000803e3d6000fd5b505050506040513d601f19601f82011682018060405250810190612c0b9190615319565b811015612c5a5760405162461bcd60e51b815260206004820152601b60248201527f54484953204c4f5420495320494e20412050415354204652414d4500000000006044820152606401610e86565b600080612cd188848a6001600160a01b0316639592de188a6040518263ffffffff1660e01b8152600401612c9091815260200190565b602060405180830381865afa158015612cad573d6000803e3d6000fd5b505050506040513d601f19601f8201168201806040525081019061021f9190615319565b6040810151805191925090612ce890600190615588565b81518110612cf857612cf8615332565b60200260200101516060015191506000886001600160a01b031663e107fb4f85856040518363ffffffff1660e01b8152600401612d3f929190918252602082015260400190565b602060405180830381865afa158015612d5c573d6000803e3d6000fd5b505050506040513d601f19601f82011682018060405250810190612d809190615319565b60405163e107fb4f60e01b815260048101869052602481018890529091506000906001600160a01b038b169063e107fb4f90604401602060405180830381865afa158015612dd2573d6000803e3d6000fd5b505050506040513d601f19601f82011682018060405250810190612df69190615319565b9050808210612e085760009550612e15565b612e128282615588565b95505b5050505050949350505050565b604080516080810182526000808252602082015260609181018290528181019190915260405163543a185d60e11b81526001600160a01b0383811660048301526000919085169063a87430ba906024016040805180830381865afa158015612e8e573d6000803e3d6000fd5b505050506040513d601f19601f82011682018060405250810190612eb2919061576c565b6040516391bb686560e01b81526001600160a01b0386811660048301529193506000925082918716906391bb686590602401600060405180830381865afa158015612f01573d6000803e3d6000fd5b505050506040513d6000823e601f3d908101601f19168201604052612f29919081019061567b565b604080516080810182526001600160a01b039889168152959097166020860152958401525050606081019290925250919050565b606081831115612f7f5760405162461bcd60e51b8152600401610e86906155f5565b6040516391bb686560e01b81526001600160a01b0385811660048301528616906391bb686590602401600060405180830381865afa158015612fc5573d6000803e3d6000fd5b505050506040513d6000823e601f3d908101601f19168201604052612fed919081019061567b565b805190925015905080613001575080518310155b61307d578051821061301e576001815161301b9190615588565b91505b825b82811161307b5781818151811061303957613039615332565b602002602001015182858361304e9190615588565b8151811061305e5761305e615332565b602090810291909101015280613073816155b2565b915050613020565b505b949350505050565b6060818311156130a75760405162461bcd60e51b8152600401610e86906155f5565b6000846001600160a01b031663197c4e786040518163ffffffff1660e01b8152600401602060405180830381865afa1580156130e7573d6000803e3d6000fd5b505050506040513d601f19601f8201168201806040525081019061310b9190615319565b9050600081116131555760405162461bcd60e51b8152602060048201526015602482015274139bc81b1bdd1cc81a5b881d1a19481b585c9ad95d605a1b6044820152606401610e86565b6000816001600160401b0381111561316f5761316f615303565b604051908082528060200260200182016040528015613198578160200160208202803683370190505b509050856001600160a01b031663c0423f2e6040518163ffffffff1660e01b8152600401600060405180830381865afa1580156131d9573d6000803e3d6000fd5b505050506040513d6000823e601f3d908101601f191682016040526132019190810190615465565b90508185106132225760405162461bcd60e51b8152600401610e8690615644565b81841061323757613234600183615588565b93505b6132418585615588565b61324c9060016152f0565b6001600160401b0381111561326357613263615303565b6040519080825280602002602001820160405280156132b857816020015b6132a560405180606001604052806000815260200160008152602001606081525090565b8152602001906001900390816132815790505b509250845b84811161345a5760008061331560405180604001604052806013815260200172029a7a61d103637ba39a0b93930bcadb4ae9d1606d1b81525085858151811061330857613308615332565b6020026020010151614be5565b61333784848151811061332a5761332a615332565b6020026020010151612b08565b60408051808201909152600f81526e029a7a61d10333930b6b2a5b2bc9d1608d1b6020820152919350915061336c9083614be5565b61339b6040518060400160405280600d81526020016c029a7a61d103637ba25b2bc9d1609d1b81525082614be5565b604051636f1aefc360e01b815260048101839052602481018290526000906001600160a01b038b1690636f1aefc390604401600060405180830381865afa1580156133ea573d6000803e3d6000fd5b505050506040513d6000823e601f3d908101601f191682016040526134129190810190615852565b90506134278a8260000151836020015161111c565b87858151811061343957613439615332565b60200260200101819052505050508080613452906155b2565b9150506132bd565b5050509392505050565b60008061347184846122ee565b6040516339a6a48960e01b8152600481018590529091506000906001600160a01b038616906339a6a48990602401602060405180830381865afa1580156134bc573d6000803e3d6000fd5b505050506040513d601f19601f820116820180604052508101906134e09190615319565b90506000856001600160a01b031663527eb4bc6040518163ffffffff1660e01b8152600401602060405180830381865afa158015613522573d6000803e3d6000fd5b505050506040513d601f19601f820116820180604052508101906135469190615319565b905060008360e00151828461355b9190615588565b6135659190615588565b979650505050505050565b6060816001600160401b0381111561358a5761358a615303565b6040519080825280602002602001820160405280156135b3578160200160208202803683370190505b50905060006135c0614c5b565b60005b84811161345a57600081886001600160a01b031663ef78d4fd6040518163ffffffff1660e01b8152600401602060405180830381865afa15801561360b573d6000803e3d6000fd5b505050506040513d601f19601f8201168201806040525081019061362f9190615319565b613639919061559b565b61364390886152f0565b905061364f88826122ee565b805160405163bad1265360e01b815260048101919091529093506000906001600160a01b038a169063bad1265390602401602060405180830381865afa15801561369d573d6000803e3d6000fd5b505050506040513d601f19601f820116820180604052508101906136c19190615348565b905060018160048111156136d7576136d7615369565b14806136f4575060038160048111156136f2576136f2615369565b145b15613725578186868151811061370c5761370c615332565b602090810291909101015284613721816155b2565b9550505b50508080613732906155b2565b9150506135c3565b6040516361eee2cb60e01b81526004810184905260009081906001600160a01b038716906361eee2cb90602401602060405180830381865afa158015613784573d6000803e3d6000fd5b505050506040513d601f19601f820116820180604052508101906137a89190615319565b905042866001600160a01b031663ef78d4fd6040518163ffffffff1660e01b8152600401602060405180830381865afa1580156137e9573d6000803e3d6000fd5b505050506040513d601f19601f8201168201806040525081019061380d9190615319565b61381790836152f0565b10156138655760405162461bcd60e51b815260206004820152601d60248201527f4672616d652068617320746f20626520696e20746865206675747572650000006044820152606401610e86565b6040516312b25bc360e31b8152600481018590526000906001600160a01b03881690639592de1890602401602060405180830381865afa1580156138ad573d6000803e3d6000fd5b505050506040513d601f19601f820116820180604052508101906138d19190615319565b60405163e107fb4f60e01b815260048101849052602481018690529091506000906001600160a01b0389169063e107fb4f90604401602060405180830381865afa158015613923573d6000803e3d6000fd5b505050506040513d601f19601f820116820180604052508101906139479190615319565b9050600061395689858561111c565b60408101518051919250839161396e90600190615588565b8151811061397e5761397e615332565b60200260200101516060015161399491906152f0565b9998505050505050505050565b600080856001600160a01b031663ef78d4fd6040518163ffffffff1660e01b8152600401602060405180830381865afa1580156139e2573d6000803e3d6000fd5b505050506040513d601f19601f82011682018060405250810190613a069190615319565b9050835b838111613a9f576040516391a0846d60e01b81526001600160a01b038781166004830152602482018390528816906391a0846d90604401602060405180830381865afa158015613a5e573d6000803e3d6000fd5b505050506040513d601f19601f82011682018060405250810190613a829190615319565b613a8c90846152f0565b9250613a9882826152f0565b9050613a0a565b5050949350505050565b600080613ab684846122ee565b60e081015190915060005b826040015151811015613df0576000613aeb87878660400151858151811061068f5761068f615332565b905060005b816040015151811015613ddb5781604001518181518110613b1357613b13615332565b60200260200101516080015186613b2a91906152f0565b955081604001518181518110613b4257613b42615332565b602002602001015160a0015186613b599190615588565b95506001826040015151613b6d9190615588565b8103613dc9576000886001600160a01b031663e107fb4f8985604001518581518110613b9b57613b9b615332565b6020026020010151606001516040518363ffffffff1660e01b8152600401613bcd929190918252602082015260400190565b602060405180830381865afa158015613bea573d6000803e3d6000fd5b505050506040513d601f19601f82011682018060405250810190613c0e9190615319565b9050613c1a8188615588565b96506000896001600160a01b031663a87430ba85604001518581518110613c4357613c43615332565b6020026020010151604001516040518263ffffffff1660e01b8152600401613c7a91906001600160a01b0391909116815260200190565b6040805180830381865afa158015613c96573d6000803e3d6000fd5b505050506040513d601f19601f82011682018060405250810190613cba919061576c565b60405163543a185d60e11b81526001600160a01b03808316600483015291935060009250908c169063a87430ba906024016040805180830381865afa158015613d07573d6000803e3d6000fd5b505050506040513d601f19601f82011682018060405250810190613d2b919061576c565b5090508015613dc55760008b6001600160a01b0316639e9c4f086040518163ffffffff1660e01b8152600401602060405180830381865afa158015613d74573d6000803e3d6000fd5b505050506040513d601f19601f82011682018060405250810190613d989190615319565b9050670de0b6b3a7640000613dad828661559b565b613db791906155e1565b613dc190896152f0565b9750505b5050505b80613dd3816155b2565b915050613af0565b50508080613de8906155b2565b915050613ac1565b50613dfb8184615588565b95945050505050565b606081831115613e265760405162461bcd60e51b8152600401610e86906155f5565b6000846001600160a01b031663ffde58626040518163ffffffff1660e01b8152600401602060405180830381865afa158015613e66573d6000803e3d6000fd5b505050506040513d601f19601f82011682018060405250810190613e8a9190615319565b905060008111613ed55760405162461bcd60e51b8152602060048201526016602482015275139bc81d5cd95c9cc81a5b881d1a19481b585c9ad95d60521b6044820152606401610e86565b6000613ee18585615588565b613eec9060016152f0565b6001600160401b03811115613f0357613f03615303565b604051908082528060200260200182016040528015613f2c578160200160208202803683370190505b509050856001600160a01b03166399fe71ef6040518163ffffffff1660e01b8152600401600060405180830381865afa158015613f6d573d6000803e3d6000fd5b505050506040513d6000823e601f3d908101601f19168201604052613f9591908101906156de565b9050818510613fb65760405162461bcd60e51b8152600401610e8690615644565b818410613fcb57613fc8600183615588565b93505b613fd58585615588565b613fe09060016152f0565b6001600160401b03811115613ff757613ff7615303565b60405190808252806020026020018201604052801561404b57816020015b60408051608081018252600080825260208201526060918101829052818101919091528152602001906001900390816140155790505b509250845b84811161345a576000876001600160a01b031663a87430ba84848151811061407a5761407a615332565b60200260200101516040518263ffffffff1660e01b81526004016140ad91906001600160a01b0391909116815260200190565b6040805180830381865afa1580156140c9573d6000803e3d6000fd5b505050506040513d601f19601f820116820180604052508101906140ed919061576c565b915050600080896001600160a01b03166391bb686586868151811061411457614114615332565b60200260200101516040518263ffffffff1660e01b815260040161414791906001600160a01b0391909116815260200190565b600060405180830381865afa158015614164573d6000803e3d6000fd5b505050506040513d6000823e601f3d908101601f1916820160405261418c919081019061567b565b9150915060405180608001604052808686815181106141ad576141ad615332565b60200260200101516001600160a01b03168152602001846001600160a01b0316815260200183815260200182815250878a866141e99190615588565b815181106141f9576141f9615332565b60200260200101819052505050508080614212906155b2565b915050614050565b60608183111561423c5760405162461bcd60e51b8152600401610e86906155f5565b6040516391bb686560e01b81526001600160a01b0385811660048301528616906391bb686590602401600060405180830381865afa158015614282573d6000803e3d6000fd5b505050506040513d6000823e601f3d908101601f191682016040526142aa919081019061567b565b50805190915015806142bd575080518310155b61307d57805182106142da57600181516142d79190615588565b91505b825b82811161307b578181815181106142f5576142f5615332565b602002602001015182828151811061430f5761430f615332565b602090810291909101015280614324816155b2565b9150506142dc565b60606000826001600160401b0381111561434857614348615303565b60405190808252806020026020018201604052801561438157816020015b61436e614c5b565b8152602001906001900390816143665790505b5060408051600480825260a08201909252919350600091829160208201608080368337019050509050896001600160a01b031663ef78d4fd6040518163ffffffff1660e01b8152600401602060405180830381865afa1580156143e8573d6000803e3d6000fd5b505050506040513d601f19601f8201168201806040525081019061440c9190615319565b8160028151811061441f5761441f615332565b60209081029190910101526060885b8881116147ce5760405163bad1265360e01b8152600481018290526001600160a01b038d169063bad1265390602401602060405180830381865afa15801561447a573d6000803e3d6000fd5b505050506040513d601f19601f8201168201806040525081019061449e9190615348565b935060008460048111156144b4576144b4615369565b146147a157604051630122bf3160e51b8152600481018290526001600160a01b038d1690632457e62090602401600060405180830381865afa1580156144fe573d6000803e3d6000fd5b505050506040513d6000823e601f3d908101601f191682016040526145269190810190615465565b915060005b825181101561479f5760008d6001600160a01b031663fb0d5e098486858151811061455857614558615332565b60200260200101516040518363ffffffff1660e01b8152600401614586929190918252602082015260400190565b600060405180830381865afa1580156145a3573d6000803e3d6000fd5b505050506040513d6000823e601f3d908101601f191682016040526145cb9190810190615554565b90508c6001600160a01b031681600183516145e69190615588565b815181106145f6576145f6615332565b6020026020010151604001516001600160a01b03161480156146325750828560038151811061462757614627615332565b602002602001015114155b1561478c57614641898b61559b565b8560008151811061465457614654615332565b6020026020010151101580156146985750886146718b60016152f0565b61467b919061559b565b8560008151811061468e5761468e615332565b6020026020010151105b15614725576146a78e846122ee565b88866001815181106146bb576146bb615332565b6020026020010151815181106146d3576146d3615332565b6020026020010181905250846001815181106146f1576146f1615332565b6020026020010151600161470591906152f0565b8560018151811061471857614718615332565b6020026020010181815250505b8460008151811061473857614738615332565b6020026020010151600161474c91906152f0565b8560008151811061475f5761475f615332565b602002602001018181525050828560038151811061477f5761477f615332565b6020026020010181815250505b5080614797816155b2565b91505061452b565b505b826002815181106147b4576147b4615332565b6020026020010151816147c791906152f0565b905061442e565b50856147db8860016152f0565b6147e5919061559b565b826000815181106147f8576147f8615332565b6020026020010151111561483e5786868360008151811061481b5761481b615332565b602002602001015161482d91906155e1565b6148379190615588565b9350614843565b600093505b505050965096945050505050565b60606000848611156148cb5760405162461bcd60e51b815260206004820152603760248201527f6672616d654b65795f7374617274206d75737420626520736d616c6c6572206f60448201527f7220657175616c20746f206672616d654b65795f656e640000000000000000006064820152608401610e86565b826001600160401b038111156148e3576148e3615303565b60405190808252806020026020018201604052801561493857816020015b61492560405180606001604052806000815260200160008152602001606081525090565b8152602001906001900390816149015790505b5060408051600380825260808201909252919350606091600091602082018480368337019050509050886001600160a01b031663ef78d4fd6040518163ffffffff1660e01b8152600401602060405180830381865afa15801561499f573d6000803e3d6000fd5b505050506040513d601f19601f820116820180604052508101906149c39190615319565b816002815181106149d6576149d6615332565b6020908102919091010152875b8781116115de57604051630122bf3160e51b8152600481018290526001600160a01b038b1690632457e62090602401600060405180830381865afa158015614a2f573d6000803e3d6000fd5b505050506040513d6000823e601f3d908101601f19168201604052614a579190810190615465565b925060005b8351811015614bb757614a6f878961559b565b83600081518110614a8257614a82615332565b602002602001015110158015614ac6575086614a9f8960016152f0565b614aa9919061559b565b83600081518110614abc57614abc615332565b6020026020010151105b15614b6057614ae28b8386848151811061068f5761068f615332565b8684600181518110614af657614af6615332565b602002602001015181518110614b0e57614b0e615332565b602002602001018190525082600181518110614b2c57614b2c615332565b60200260200101516001614b4091906152f0565b83600181518110614b5357614b53615332565b6020026020010181815250505b82600081518110614b7357614b73615332565b60200260200101516001614b8791906152f0565b83600081518110614b9a57614b9a615332565b602090810291909101015280614baf816155b2565b915050614a5c565b5081600281518110614bcb57614bcb615332565b602002602001015181614bde91906152f0565b90506149e3565b614c2a8282604051602401614bfb9291906158ea565b60408051601f198184030181529190526020810180516001600160e01b0316632d839cb360e21b179052614c2e565b5050565b614c3781614c3a565b50565b60006a636f6e736f6c652e6c6f679050600080835160208501845afa505050565b60405180610100016040528060008152602001600081526020016060815260200160006001600160a01b03168152602001600081526020016000815260200160008152602001600081525090565b6040518060c00160405280600081526020016000815260200160006001600160a01b031681526020016000815260200160008152602001600081525090565b6001600160a01b0381168114614c3757600080fd5b600080600080600080600060e0888a031215614d1857600080fd5b8735614d2381614ce8565b96506020880135614d3381614ce8565b96999698505050506040850135946060810135946080820135945060a0820135935060c0909101359150565b600060608084018351855260208085015181870152604080860151848289015283815180865260809550858a019150848301925060005b81811015614de9578351805184528681015187850152858101516001600160a01b0316868501528881015189850152878101518885015260a090810151908401529285019260c090920191600101614d96565b50909998505050505050505050565b600081518084526020808501808196508360051b8101915082860160005b85811015614e40578284038952614e2e848351614d5f565b98850198935090840190600101614e16565b5091979650505050505050565b604081526000614e606040830185614df8565b90508260208301529392505050565b600080600060608486031215614e8457600080fd5b8335614e8f81614ce8565b95602085013595506040909401359392505050565b600081518084526020808501945080840160005b83811015614ed457815187529582019590820190600101614eb8565b509495945050505050565b600061010082518452602083015160208501526040830151816040860152614f0982860182614ea4565b91505060018060a01b0360608401511660608501526080830151608085015260a083015160a085015260c083015160c085015260e083015160e08501528091505092915050565b600081518084526020808501808196508360051b8101915082860160005b85811015614e40578284038952614f86848351614edf565b98850198935090840190600101614f6e565b602081526000610e5d6020830184614f50565b60008060408385031215614fbe57600080fd5b8235614fc981614ce8565b91506020830135614fd981614ce8565b809150509250929050565b602081526000610e5d6020830184614d5f565b600080600080600060a0868803121561500f57600080fd5b853561501a81614ce8565b97602087013597506040870135966060810135965060800135945092505050565b604081526000614e606040830185614f50565b600060018060a01b03808351168452806020840151166020850152506040820151608060408501526150836080850182614ea4565b905060608301518482036060860152613dfb8282614ea4565b6000602080830181845280855180835260408601915060408160051b870101925083870160005b828110156150f157603f198886030184526150df85835161504e565b945092850192908501906001016150c3565b5092979650505050505050565b6000806040838503121561511157600080fd5b823561511c81614ce8565b946020939093013593505050565b602081526000610e5d6020830184614edf565b604080825283519082018190526000906020906060840190828701845b8281101561517f5781516001600160a01b03168452928401929084019060010161515a565b50505061ffff9490941692019190915250919050565b82815260406020820152600061307d6040830184614ea4565b6000602082840312156151c057600080fd5b5035919050565b600080600080608085870312156151dd57600080fd5b84356151e881614ce8565b966020860135965060408601359560600135945092505050565b602081526000610e5d602083018461504e565b6000806000806080858703121561522b57600080fd5b843561523681614ce8565b9350602085013561524681614ce8565b93969395505050506040820135916060013590565b602081526000610e5d6020830184614ea4565b602081526000610e5d6020830184614df8565b60008060008060008060c0878903121561529a57600080fd5b86356152a581614ce8565b955060208701356152b581614ce8565b95989597505050506040840135936060810135936080820135935060a0909101359150565b634e487b7160e01b600052601160045260246000fd5b80820180821115611116576111166152da565b634e487b7160e01b600052604160045260246000fd5b60006020828403121561532b57600080fd5b5051919050565b634e487b7160e01b600052603260045260246000fd5b60006020828403121561535a57600080fd5b815160058110610e5d57600080fd5b634e487b7160e01b600052602160045260246000fd5b60405160c081016001600160401b03811182821017156153a1576153a1615303565b60405290565b604051601f8201601f191681016001600160401b03811182821017156153cf576153cf615303565b604052919050565b60006001600160401b038211156153f0576153f0615303565b5060051b60200190565b600082601f83011261540b57600080fd5b8151602061542061541b836153d7565b6153a7565b82815260059290921b8401810191818101908684111561543f57600080fd5b8286015b8481101561545a5780518352918301918301615443565b509695505050505050565b60006020828403121561547757600080fd5b81516001600160401b0381111561548d57600080fd5b61307d848285016153fa565b600082601f8301126154aa57600080fd5b815160206154ba61541b836153d7565b82815260c092830285018201928282019190878511156154d957600080fd5b8387015b858110156155475781818a0312156154f55760008081fd5b6154fd61537f565b81518152858201518682015260408083015161551881614ce8565b90820152606082810151908201526080808301519082015260a0808301519082015284529284019281016154dd565b5090979650505050505050565b60006020828403121561556657600080fd5b81516001600160401b0381111561557c57600080fd5b61307d84828501615499565b81810381811115611116576111166152da565b8082028115828204841417611116576111166152da565b6000600182016155c4576155c46152da565b5060010190565b634e487b7160e01b600052601260045260246000fd5b6000826155f0576155f06155cb565b500490565b6020808252602f908201527f7374617274496e646578206d75737420626520736d616c6c6572206f7220657160408201526e0eac2d840e8de40cadcc892dcc8caf608b1b606082015260800190565b6020808252601b908201527f7374617274496e646578206973206f7574206f6620626f756e64730000000000604082015260600190565b6000806040838503121561568e57600080fd5b82516001600160401b03808211156156a557600080fd5b6156b1868387016153fa565b935060208501519150808211156156c757600080fd5b506156d4858286016153fa565b9150509250929050565b600060208083850312156156f157600080fd5b82516001600160401b0381111561570757600080fd5b8301601f8101851361571857600080fd5b805161572661541b826153d7565b81815260059190911b8201830190838101908783111561574557600080fd5b928401925b8284101561356557835161575d81614ce8565b8252928401929084019061574a565b6000806040838503121561577f57600080fd5b8251801515811461578f57600080fd5b6020840151909250614fd981614ce8565b600080600080600080600060e0888a0312156157bb57600080fd5b875196506020880151955060408801516157d481614ce8565b80955050606088015193506080880151925060a0880151915060c0880151905092959891949750929550565b60006020828403121561581257600080fd5b8151610e5d81614ce8565b600061ffff808316818103615834576158346152da565b6001019392505050565b60008261584d5761584d6155cb565b500690565b60006020828403121561586457600080fd5b81516001600160401b038082111561587b57600080fd5b908301906060828603121561588f57600080fd5b6040516060810181811083821117156158aa576158aa615303565b806040525082518152602083015160208201526040830151828111156158cf57600080fd5b6158db87828601615499565b60408301525095945050505050565b604081526000835180604084015260005b8181101561591857602081870181015160608684010152016158fb565b506000606082850101526060601f19601f830116840101915050826020830152939250505056fea2646970667358221220ece66b018f16e2eb22972c6a7fb81d163e21b6129b04fe7c2d7a16411e70ac1964736f6c63430008140033",
  "linkReferences": {},
  "deployedLinkReferences": {}
}