{
  "_format": "hh-sol-artifact-1",
  "contractName": "MarketGetter",
  "sourceName": "contracts/MarketGetter.sol",
  "abi": [
    {
      "inputs": [
        {
          "internalType": "contract Market",
          "name": "market",
          "type": "address"
        },
        {
          "internalType": "uint256",
          "name": "timestamp",
          "type": "uint256"
        },
        {
          "internalType": "uint256",
          "name": "pairPrice",
          "type": "uint256"
        },
        {
          "internalType": "uint256",
          "name": "acqPrice",
          "type": "uint256"
        }
      ],
      "name": "clcAmountToApprove",
      "outputs": [
        {
          "internalType": "uint256",
          "name": "approvalAmnt",
          "type": "uint256"
        }
      ],
      "stateMutability": "view",
      "type": "function"
    },
    {
      "inputs": [
        {
          "internalType": "contract Market",
          "name": "market",
          "type": "address"
        },
        {
          "internalType": "uint256",
          "name": "timestamp",
          "type": "uint256"
        },
        {
          "internalType": "uint256",
          "name": "pairPrice",
          "type": "uint256"
        },
        {
          "internalType": "uint256",
          "name": "acqPrice",
          "type": "uint256"
        }
      ],
      "name": "clcAmountToApproveForUpdate",
      "outputs": [
        {
          "internalType": "uint256",
          "name": "amnt",
          "type": "uint256"
        }
      ],
      "stateMutability": "view",
      "type": "function"
    },
    {
      "inputs": [
        {
          "internalType": "contract Market",
          "name": "market",
          "type": "address"
        },
        {
          "internalType": "uint256",
          "name": "frameKey",
          "type": "uint256"
        }
      ],
      "name": "getFrameStruct",
      "outputs": [
        {
          "components": [
            {
              "internalType": "uint256",
              "name": "frameKey",
              "type": "uint256"
            },
            {
              "internalType": "uint256",
              "name": "rate",
              "type": "uint256"
            },
            {
              "internalType": "uint256[]",
              "name": "lotKeys",
              "type": "uint256[]"
            },
            {
              "internalType": "address",
              "name": "claimedBy",
              "type": "address"
            },
            {
              "internalType": "uint256",
              "name": "rateSettle",
              "type": "uint256"
            },
            {
              "internalType": "uint256",
              "name": "feeSettle",
              "type": "uint256"
            },
            {
              "internalType": "uint256",
              "name": "rewardSettle",
              "type": "uint256"
            },
            {
              "internalType": "uint256",
              "name": "feeReferral",
              "type": "uint256"
            }
          ],
          "internalType": "struct Market.Frame",
          "name": "",
          "type": "tuple"
        }
      ],
      "stateMutability": "view",
      "type": "function"
    },
    {
      "inputs": [
        {
          "internalType": "contract Market",
          "name": "market",
          "type": "address"
        },
        {
          "internalType": "uint256",
          "name": "frameKey_start",
          "type": "uint256"
        },
        {
          "internalType": "uint256",
          "name": "frameKey_end",
          "type": "uint256"
        },
        {
          "internalType": "uint256",
          "name": "page",
          "type": "uint256"
        },
        {
          "internalType": "uint256",
          "name": "perPage",
          "type": "uint256"
        }
      ],
      "name": "getFrames",
      "outputs": [
        {
          "components": [
            {
              "internalType": "uint256",
              "name": "frameKey",
              "type": "uint256"
            },
            {
              "internalType": "uint256",
              "name": "rate",
              "type": "uint256"
            },
            {
              "internalType": "uint256[]",
              "name": "lotKeys",
              "type": "uint256[]"
            },
            {
              "internalType": "address",
              "name": "claimedBy",
              "type": "address"
            },
            {
              "internalType": "uint256",
              "name": "rateSettle",
              "type": "uint256"
            },
            {
              "internalType": "uint256",
              "name": "feeSettle",
              "type": "uint256"
            },
            {
              "internalType": "uint256",
              "name": "rewardSettle",
              "type": "uint256"
            },
            {
              "internalType": "uint256",
              "name": "feeReferral",
              "type": "uint256"
            }
          ],
          "internalType": "struct Market.Frame[]",
          "name": "frames",
          "type": "tuple[]"
        },
        {
          "internalType": "uint256",
          "name": "pagesLeft",
          "type": "uint256"
        }
      ],
      "stateMutability": "view",
      "type": "function"
    },
    {
      "inputs": [
        {
          "internalType": "contract Market",
          "name": "market",
          "type": "address"
        },
        {
          "internalType": "address",
          "name": "user",
          "type": "address"
        },
        {
          "internalType": "uint256",
          "name": "frameKey_start",
          "type": "uint256"
        },
        {
          "internalType": "uint256",
          "name": "frameKey_end",
          "type": "uint256"
        },
        {
          "internalType": "uint256",
          "name": "page",
          "type": "uint256"
        },
        {
          "internalType": "uint256",
          "name": "perPage",
          "type": "uint256"
        }
      ],
      "name": "getFramesUser",
      "outputs": [
        {
          "components": [
            {
              "internalType": "uint256",
              "name": "frameKey",
              "type": "uint256"
            },
            {
              "internalType": "uint256",
              "name": "rate",
              "type": "uint256"
            },
            {
              "internalType": "uint256[]",
              "name": "lotKeys",
              "type": "uint256[]"
            },
            {
              "internalType": "address",
              "name": "claimedBy",
              "type": "address"
            },
            {
              "internalType": "uint256",
              "name": "rateSettle",
              "type": "uint256"
            },
            {
              "internalType": "uint256",
              "name": "feeSettle",
              "type": "uint256"
            },
            {
              "internalType": "uint256",
              "name": "rewardSettle",
              "type": "uint256"
            },
            {
              "internalType": "uint256",
              "name": "feeReferral",
              "type": "uint256"
            }
          ],
          "internalType": "struct Market.Frame[]",
          "name": "userFrames",
          "type": "tuple[]"
        },
        {
          "internalType": "uint256",
          "name": "pagesLeft",
          "type": "uint256"
        }
      ],
      "stateMutability": "view",
      "type": "function"
    },
    {
      "inputs": [
        {
          "internalType": "contract Market",
          "name": "market",
          "type": "address"
        },
        {
          "internalType": "uint256",
          "name": "frameKey",
          "type": "uint256"
        },
        {
          "internalType": "uint256",
          "name": "index",
          "type": "uint256"
        }
      ],
      "name": "getLotKey",
      "outputs": [
        {
          "internalType": "uint256",
          "name": "",
          "type": "uint256"
        }
      ],
      "stateMutability": "view",
      "type": "function"
    },
    {
      "inputs": [
        {
          "internalType": "contract Market",
          "name": "market",
          "type": "address"
        },
        {
          "internalType": "uint256",
          "name": "frameKey",
          "type": "uint256"
        },
        {
          "internalType": "uint256",
          "name": "lotKey",
          "type": "uint256"
        }
      ],
      "name": "getLotStruct",
      "outputs": [
        {
          "components": [
            {
              "internalType": "uint256",
              "name": "frameKey",
              "type": "uint256"
            },
            {
              "internalType": "uint256",
              "name": "lotKey",
              "type": "uint256"
            },
            {
              "components": [
                {
                  "internalType": "uint256",
                  "name": "blockNumber",
                  "type": "uint256"
                },
                {
                  "internalType": "uint256",
                  "name": "blockTimestamp",
                  "type": "uint256"
                },
                {
                  "internalType": "address",
                  "name": "owner",
                  "type": "address"
                },
                {
                  "internalType": "uint256",
                  "name": "acquisitionPrice",
                  "type": "uint256"
                },
                {
                  "internalType": "uint256",
                  "name": "taxCharged",
                  "type": "uint256"
                },
                {
                  "internalType": "uint256",
                  "name": "taxRefunded",
                  "type": "uint256"
                }
              ],
              "internalType": "struct Market.LotState[]",
              "name": "states",
              "type": "tuple[]"
            }
          ],
          "internalType": "struct Market.Lot",
          "name": "",
          "type": "tuple"
        }
      ],
      "stateMutability": "view",
      "type": "function"
    },
    {
      "inputs": [
        {
          "internalType": "contract Market",
          "name": "market",
          "type": "address"
        },
        {
          "internalType": "uint256",
          "name": "frameKey_start",
          "type": "uint256"
        },
        {
          "internalType": "uint256",
          "name": "frameKey_end",
          "type": "uint256"
        },
        {
          "internalType": "uint256",
          "name": "page",
          "type": "uint256"
        },
        {
          "internalType": "uint256",
          "name": "perPage",
          "type": "uint256"
        }
      ],
      "name": "getLots",
      "outputs": [
        {
          "components": [
            {
              "internalType": "uint256",
              "name": "frameKey",
              "type": "uint256"
            },
            {
              "internalType": "uint256",
              "name": "lotKey",
              "type": "uint256"
            },
            {
              "components": [
                {
                  "internalType": "uint256",
                  "name": "blockNumber",
                  "type": "uint256"
                },
                {
                  "internalType": "uint256",
                  "name": "blockTimestamp",
                  "type": "uint256"
                },
                {
                  "internalType": "address",
                  "name": "owner",
                  "type": "address"
                },
                {
                  "internalType": "uint256",
                  "name": "acquisitionPrice",
                  "type": "uint256"
                },
                {
                  "internalType": "uint256",
                  "name": "taxCharged",
                  "type": "uint256"
                },
                {
                  "internalType": "uint256",
                  "name": "taxRefunded",
                  "type": "uint256"
                }
              ],
              "internalType": "struct Market.LotState[]",
              "name": "states",
              "type": "tuple[]"
            }
          ],
          "internalType": "struct Market.Lot[]",
          "name": "lots",
          "type": "tuple[]"
        },
        {
          "internalType": "uint256",
          "name": "pagesLeft",
          "type": "uint256"
        }
      ],
      "stateMutability": "view",
      "type": "function"
    },
    {
      "inputs": [
        {
          "internalType": "contract Market",
          "name": "market",
          "type": "address"
        },
        {
          "internalType": "uint256",
          "name": "frameKey",
          "type": "uint256"
        }
      ],
      "name": "getLotsCount",
      "outputs": [
        {
          "internalType": "uint256",
          "name": "",
          "type": "uint256"
        }
      ],
      "stateMutability": "view",
      "type": "function"
    },
    {
      "inputs": [
        {
          "internalType": "contract Market",
          "name": "market",
          "type": "address"
        },
        {
          "internalType": "address",
          "name": "user",
          "type": "address"
        },
        {
          "internalType": "uint256",
          "name": "mode",
          "type": "uint256"
        },
        {
          "internalType": "uint256",
          "name": "frameKey_start",
          "type": "uint256"
        },
        {
          "internalType": "uint256",
          "name": "frameKey_end",
          "type": "uint256"
        },
        {
          "internalType": "uint256",
          "name": "page",
          "type": "uint256"
        },
        {
          "internalType": "uint256",
          "name": "perPage",
          "type": "uint256"
        }
      ],
      "name": "getLotsUser",
      "outputs": [
        {
          "components": [
            {
              "internalType": "uint256",
              "name": "frameKey",
              "type": "uint256"
            },
            {
              "internalType": "uint256",
              "name": "lotKey",
              "type": "uint256"
            },
            {
              "components": [
                {
                  "internalType": "uint256",
                  "name": "blockNumber",
                  "type": "uint256"
                },
                {
                  "internalType": "uint256",
                  "name": "blockTimestamp",
                  "type": "uint256"
                },
                {
                  "internalType": "address",
                  "name": "owner",
                  "type": "address"
                },
                {
                  "internalType": "uint256",
                  "name": "acquisitionPrice",
                  "type": "uint256"
                },
                {
                  "internalType": "uint256",
                  "name": "taxCharged",
                  "type": "uint256"
                },
                {
                  "internalType": "uint256",
                  "name": "taxRefunded",
                  "type": "uint256"
                }
              ],
              "internalType": "struct Market.LotState[]",
              "name": "states",
              "type": "tuple[]"
            }
          ],
          "internalType": "struct Market.Lot[]",
          "name": "userLots",
          "type": "tuple[]"
        },
        {
          "internalType": "uint256",
          "name": "pagesLeft",
          "type": "uint256"
        }
      ],
      "stateMutability": "view",
      "type": "function"
    },
    {
      "inputs": [
        {
          "internalType": "contract Market",
          "name": "market",
          "type": "address"
        },
        {
          "internalType": "uint256",
          "name": "startFrame",
          "type": "uint256"
        },
        {
          "internalType": "uint256",
          "name": "numOfFrames",
          "type": "uint256"
        }
      ],
      "name": "getOpenFrameKeys",
      "outputs": [
        {
          "internalType": "uint256[]",
          "name": "openFrames",
          "type": "uint256[]"
        }
      ],
      "stateMutability": "view",
      "type": "function"
    },
    {
      "inputs": [
        {
          "internalType": "contract Market",
          "name": "market",
          "type": "address"
        },
        {
          "internalType": "uint256",
          "name": "frameKey",
          "type": "uint256"
        }
      ],
      "name": "getRewardAmount",
      "outputs": [
        {
          "internalType": "uint256",
          "name": "",
          "type": "uint256"
        }
      ],
      "stateMutability": "view",
      "type": "function"
    }
  ],
  "bytecode": "0x608060405234801561001057600080fd5b50612fa1806100206000396000f3fe608060405234801561001057600080fd5b50600436106100b45760003560e01c8063c1d0139511610071578063c1d0139514610174578063da4e855614610187578063dbd20a881461019a578063de732595146101ba578063f6eb9ee7146101cd578063f91cbebe146101e057600080fd5b80632c79854f146100b95780634314b84f146100df578063612d8b50146100ff57806371b08d89146101205780637f424a37146101415780639291178e14610161575b600080fd5b6100cc6100c7366004612765565b6101f3565b6040519081526020015b60405180910390f35b6100f26100ed366004612765565b61028c565b6040516100d69190612833565b61011261010d366004612846565b610592565b6040516100d6929190612930565b61013361012e366004612999565b610909565b6040516100d69291906129fb565b61015461014f366004612a52565b611257565b6040516100d69190612a7e565b6100cc61016f366004612a52565b611373565b6100cc610182366004612a91565b6113ee565b6100cc610195366004612a52565b6116e3565b6101ad6101a8366004612765565b6117cf565b6040516100d69190612acc565b6100cc6101c8366004612a91565b611a1e565b6101126101db366004612b10565b611c85565b6101336101ee366004612846565b6121ab565b604051630122bf3160e51b81526004810183905260009081906001600160a01b03861690632457e62090602401600060405180830381865afa15801561023d573d6000803e3d6000fd5b505050506040513d6000823e601f3d908101601f191682016040526102659190810190612bfd565b905080838151811061027957610279612c93565b60200260200101519150505b9392505050565b6102b060405180606001604052806000815260200160008152602001606081525090565b6102dd6040518060400160405280600c81526020016b19d95d131bdd14dd1c9d58dd60a21b81525061260f565b61030160405180606001604052806000815260200160008152602001606081525090565b61032f6040518060400160405280600c81526020016b6672616d654b65793a20257360a01b81525085612655565b60405163b93dafa960e01b815260048101859052602481018490526001600160a01b0386169063b93dafa9906044016040805180830381865afa15801561037a573d6000803e3d6000fd5b505050506040513d601f19601f8201168201806040525081019061039e9190612ca9565b60208084019190915290825260408051808201909152601081526f6c6f742e6672616d654b65793a20257360801b9181019190915281516103df9190612655565b60405163fb0d5e0960e01b815260048101859052602481018490526000906001600160a01b0387169063fb0d5e0990604401600060405180830381865afa15801561042e573d6000803e3d6000fd5b505050506040513d6000823e601f3d908101601f191682016040526104569190810190612ccd565b905061048f604051806040016040528060148152602001736c6f745374617465732e6c656e6774683a20257360601b8152508251612655565b80516000036104d45760408051600180825281830190925290816020015b6104b56126c3565b8152602001906001900390816104ad5750506040830152509050610285565b805167ffffffffffffffff8111156104ee576104ee612b69565b60405190808252806020026020018201604052801561052757816020015b6105146126c3565b81526020019060019003908161050c5790505b50604083015260005b81518110156105875781818151811061054b5761054b612c93565b60200260200101518360400151828151811061056957610569612c93565b6020026020010181905250808061057f90612dc8565b915050610530565b509095945050505050565b606060008267ffffffffffffffff8111156105af576105af612b69565b6040519080825280602002602001820160405280156105e857816020015b6105d5612702565b8152602001906001900390816105cd5790505b5091506105f3612702565b6040805160038082526080820190925260009160208201606080368337019050509050886001600160a01b031663ef78d4fd6040518163ffffffff1660e01b8152600401602060405180830381865afa158015610654573d6000803e3d6000fd5b505050506040513d601f19601f820116820180604052508101906106789190612de1565b8160028151811061068b5761068b612c93565b6020908102919091010152875b878111610888576106a98a82611257565b92506000835160405163bad1265360e01b815260048101919091526001600160a01b038c169063bad1265390602401602060405180830381865afa1580156106f5573d6000803e3d6000fd5b505050506040513d601f19601f820116820180604052508101906107199190612e10565b600481111561072a5761072a612dfa565b1461085b576107398688612e31565b8260008151811061074c5761074c612c93565b602002602001015110158015610790575085610769886001612e48565b6107739190612e31565b8260008151811061078657610786612c93565b6020026020010151105b15610814578285836001815181106107aa576107aa612c93565b6020026020010151815181106107c2576107c2612c93565b6020026020010181905250816001815181106107e0576107e0612c93565b602002602001015160016107f49190612e48565b8260018151811061080757610807612c93565b6020026020010181815250505b8160008151811061082757610827612c93565b6020026020010151600161083b9190612e48565b8260008151811061084e5761084e612c93565b6020026020010181815250505b8160028151811061086e5761086e612c93565b6020026020010151816108819190612e48565b9050610698565b5084610895876001612e48565b61089f9190612e31565b816000815181106108b2576108b2612c93565b602002602001015111156108f8578585826000815181106108d5576108d5612c93565b60200260200101516108e79190612e5b565b6108f19190612e7d565b92506108fd565b600092505b50509550959350505050565b60606000610918836001612e48565b67ffffffffffffffff81111561093057610930612b69565b60405190808252806020026020018201604052801561098557816020015b61097260405180606001604052806000815260200160008152602001606081525090565b81526020019060019003908161094e5790505b50604080516003808252608082019092529193506000916060918391906020820184803683370190505090508b6001600160a01b031663ef78d4fd6040518163ffffffff1660e01b8152600401602060405180830381865afa1580156109ef573d6000803e3d6000fd5b505050506040513d601f19601f82011682018060405250810190610a139190612de1565b81600281518110610a2657610a26612c93565b60200260200101818152505060018a11610de857885b888111610de65760405163bad1265360e01b8152600481018290526001600160a01b038e169063bad1265390602401602060405180830381865afa158015610a88573d6000803e3d6000fd5b505050506040513d601f19601f82011682018060405250810190610aac9190612e10565b93506001846004811115610ac257610ac2612dfa565b03610db957604051630122bf3160e51b8152600481018290526001600160a01b038e1690632457e62090602401600060405180830381865afa158015610b0c573d6000803e3d6000fd5b505050506040513d6000823e601f3d908101601f19168201604052610b349190810190612bfd565b925060005b8351811015610db757610b668e83868481518110610b5957610b59612c93565b602002602001015161028c565b878981518110610b7857610b78612c93565b602002602001018190525060008e6001600160a01b031663fb0d5e0984878581518110610ba757610ba7612c93565b60200260200101516040518363ffffffff1660e01b8152600401610bd5929190918252602082015260400190565b600060405180830381865afa158015610bf2573d6000803e3d6000fd5b505050506040513d6000823e601f3d908101601f19168201604052610c1a9190810190612ccd565b90508d6001600160a01b03168160018351610c359190612e7d565b81518110610c4557610c45612c93565b6020026020010151604001516001600160a01b031603610da457610c69898b612e31565b84600081518110610c7c57610c7c612c93565b602002602001015110158015610cc0575088610c998b6001612e48565b610ca39190612e31565b84600081518110610cb657610cb6612c93565b6020026020010151105b15610d5d57878981518110610cd757610cd7612c93565b60200260200101518885600181518110610cf357610cf3612c93565b602002602001015181518110610d0b57610d0b612c93565b602002602001018190525083600181518110610d2957610d29612c93565b60200260200101516001610d3d9190612e48565b84600181518110610d5057610d50612c93565b6020026020010181815250505b83600081518110610d7057610d70612c93565b60200260200101516001610d849190612e48565b84600081518110610d9757610d97612c93565b6020026020010181815250505b5080610daf81612dc8565b915050610b39565b505b81600281518110610dcc57610dcc612c93565b602002602001015181610ddf9190612e48565b9050610a3c565b505b8960021480610df5575089155b156111d457885b8881116111d25760405163bad1265360e01b8152600481018290526001600160a01b038e169063bad1265390602401602060405180830381865afa158015610e48573d6000803e3d6000fd5b505050506040513d601f19601f82011682018060405250810190610e6c9190612e10565b93506002846004811115610e8257610e82612dfa565b1480610e9f57506004846004811115610e9d57610e9d612dfa565b145b80610ebb57506003846004811115610eb957610eb9612dfa565b145b156111a557604051630122bf3160e51b8152600481018290526001600160a01b038e1690632457e62090602401600060405180830381865afa158015610f05573d6000803e3d6000fd5b505050506040513d6000823e601f3d908101601f19168201604052610f2d9190810190612bfd565b925060005b83518110156111a357610f528e83868481518110610b5957610b59612c93565b878981518110610f6457610f64612c93565b602002602001018190525060008e6001600160a01b031663fb0d5e0984878581518110610f9357610f93612c93565b60200260200101516040518363ffffffff1660e01b8152600401610fc1929190918252602082015260400190565b600060405180830381865afa158015610fde573d6000803e3d6000fd5b505050506040513d6000823e601f3d908101601f191682016040526110069190810190612ccd565b90508d6001600160a01b031681600183516110219190612e7d565b8151811061103157611031612c93565b6020026020010151604001516001600160a01b03160361119057611055898b612e31565b8460008151811061106857611068612c93565b6020026020010151101580156110ac5750886110858b6001612e48565b61108f9190612e31565b846000815181106110a2576110a2612c93565b6020026020010151105b15611149578789815181106110c3576110c3612c93565b602002602001015188856001815181106110df576110df612c93565b6020026020010151815181106110f7576110f7612c93565b60200260200101819052508360018151811061111557611115612c93565b602002602001015160016111299190612e48565b8460018151811061113c5761113c612c93565b6020026020010181815250505b8360008151811061115c5761115c612c93565b602002602001015160016111709190612e48565b8460008151811061118357611183612c93565b6020026020010181815250505b508061119b81612dc8565b915050610f32565b505b816002815181106111b8576111b8612c93565b6020026020010151816111cb9190612e48565b9050610dfc565b505b856111e0886001612e48565b6111ea9190612e31565b816000815181106111fd576111fd612c93565b602002602001015111156112435786868260008151811061122057611220612c93565b60200260200101516112329190612e5b565b61123c9190612e7d565b9350611248565b600093505b50505097509795505050505050565b61125f612702565b611267612702565b604051632840d02f60e21b8152600481018490526001600160a01b0385169063a10340bc9060240160e060405180830381865afa1580156112ac573d6000803e3d6000fd5b505050506040513d601f19601f820116820180604052508101906112d09190612e90565b60e088015260c087015260a086015260808501526001600160a01b0390811660608501526020840191909152908252604051630122bf3160e51b81526004810185905290851690632457e62090602401600060405180830381865afa15801561133d573d6000803e3d6000fd5b505050506040513d6000823e601f3d908101601f191682016040526113659190810190612bfd565b604082015290505b92915050565b604051630122bf3160e51b81526004810182905260009081906001600160a01b03851690632457e62090602401600060405180830381865afa1580156113bd573d6000803e3d6000fd5b505050506040513d6000823e601f3d908101601f191682016040526113e59190810190612bfd565b51949350505050565b6040516361eee2cb60e01b81526004810184905260009081906001600160a01b038716906361eee2cb90602401602060405180830381865afa158015611438573d6000803e3d6000fd5b505050506040513d601f19601f8201168201806040525081019061145c9190612de1565b6040516361eee2cb60e01b81524260048201529091506001600160a01b038716906361eee2cb90602401602060405180830381865afa1580156114a3573d6000803e3d6000fd5b505050506040513d601f19601f820116820180604052508101906114c79190612de1565b81101561151b5760405162461bcd60e51b815260206004820152601b60248201527f54484953204c4f5420495320494e20412050415354204652414d45000000000060448201526064015b60405180910390fd5b60008061159288848a6001600160a01b0316639592de188a6040518263ffffffff1660e01b815260040161155191815260200190565b602060405180830381865afa15801561156e573d6000803e3d6000fd5b505050506040513d601f19601f820116820180604052508101906100ed9190612de1565b60408101518051919250906115a990600190612e7d565b815181106115b9576115b9612c93565b60200260200101516060015191506000886001600160a01b031663e107fb4f85856040518363ffffffff1660e01b8152600401611600929190918252602082015260400190565b602060405180830381865afa15801561161d573d6000803e3d6000fd5b505050506040513d601f19601f820116820180604052508101906116419190612de1565b60405163e107fb4f60e01b815260048101869052602481018890529091506000906001600160a01b038b169063e107fb4f90604401602060405180830381865afa158015611693573d6000803e3d6000fd5b505050506040513d601f19601f820116820180604052508101906116b79190612de1565b90508082106116c957600095506116d6565b6116d38282612e7d565b95505b5050505050949350505050565b6040516339a6a48960e01b81526004810182905260009081906001600160a01b038516906339a6a48990602401602060405180830381865afa15801561172d573d6000803e3d6000fd5b505050506040513d601f19601f820116820180604052508101906117519190612de1565b90506000846001600160a01b031663527eb4bc6040518163ffffffff1660e01b8152600401602060405180830381865afa158015611793573d6000803e3d6000fd5b505050506040513d601f19601f820116820180604052508101906117b79190612de1565b905060006117c58284612e7d565b9695505050505050565b60608167ffffffffffffffff8111156117ea576117ea612b69565b604051908082528060200260200182016040528015611813578160200160208202803683370190505b5090506000611820612702565b60005b848111611a1457600081886001600160a01b031663ef78d4fd6040518163ffffffff1660e01b8152600401602060405180830381865afa15801561186b573d6000803e3d6000fd5b505050506040513d601f19601f8201168201806040525081019061188f9190612de1565b6118999190612e31565b6118a39088612e48565b90506118af8882611257565b92506118f46040518060400160405280601781526020017f534f4c3a206672616d652e6672616d654b65793a2025730000000000000000008152508460000151612655565b825160405163bad1265360e01b81526000916001600160a01b038b169163bad12653916119279160040190815260200190565b602060405180830381865afa158015611944573d6000803e3d6000fd5b505050506040513d601f19601f820116820180604052508101906119689190612e10565b9050600181600481111561197e5761197e612dfa565b148061199b5750600381600481111561199957611999612dfa565b145b156119ff576119d36040518060400160405280601281526020017129a7a61d10333930b6b29034b99037b832b760711b81525061260f565b818686815181106119e6576119e6612c93565b6020908102919091010152846119fb81612dc8565b9550505b50508080611a0c90612dc8565b915050611823565b5050509392505050565b6040516361eee2cb60e01b81526004810184905260009081906001600160a01b038716906361eee2cb90602401602060405180830381865afa158015611a68573d6000803e3d6000fd5b505050506040513d601f19601f82011682018060405250810190611a8c9190612de1565b905042866001600160a01b031663ef78d4fd6040518163ffffffff1660e01b8152600401602060405180830381865afa158015611acd573d6000803e3d6000fd5b505050506040513d601f19601f82011682018060405250810190611af19190612de1565b611afb9083612e48565b1015611b495760405162461bcd60e51b815260206004820152601d60248201527f4672616d652068617320746f20626520696e20746865206675747572650000006044820152606401611512565b6040516312b25bc360e31b8152600481018590526000906001600160a01b03881690639592de1890602401602060405180830381865afa158015611b91573d6000803e3d6000fd5b505050506040513d601f19601f82011682018060405250810190611bb59190612de1565b60405163e107fb4f60e01b815260048101849052602481018690529091506000906001600160a01b0389169063e107fb4f90604401602060405180830381865afa158015611c07573d6000803e3d6000fd5b505050506040513d601f19601f82011682018060405250810190611c2b9190612de1565b90506000611c3a89858561028c565b604081015180519192508391611c5290600190612e7d565b81518110611c6257611c62612c93565b602002602001015160600151611c789190612e48565b9998505050505050505050565b606060008267ffffffffffffffff811115611ca257611ca2612b69565b604051908082528060200260200182016040528015611cdb57816020015b611cc8612702565b815260200190600190039081611cc05790505b5060408051600480825260a08201909252919350600091829160208201608080368337019050509050896001600160a01b031663ef78d4fd6040518163ffffffff1660e01b8152600401602060405180830381865afa158015611d42573d6000803e3d6000fd5b505050506040513d601f19601f82011682018060405250810190611d669190612de1565b81600281518110611d7957611d79612c93565b60209081029190910101526060885b8881116121285760405163bad1265360e01b8152600481018290526001600160a01b038d169063bad1265390602401602060405180830381865afa158015611dd4573d6000803e3d6000fd5b505050506040513d601f19601f82011682018060405250810190611df89190612e10565b93506000846004811115611e0e57611e0e612dfa565b146120fb57604051630122bf3160e51b8152600481018290526001600160a01b038d1690632457e62090602401600060405180830381865afa158015611e58573d6000803e3d6000fd5b505050506040513d6000823e601f3d908101601f19168201604052611e809190810190612bfd565b915060005b82518110156120f95760008d6001600160a01b031663fb0d5e0984868581518110611eb257611eb2612c93565b60200260200101516040518363ffffffff1660e01b8152600401611ee0929190918252602082015260400190565b600060405180830381865afa158015611efd573d6000803e3d6000fd5b505050506040513d6000823e601f3d908101601f19168201604052611f259190810190612ccd565b90508c6001600160a01b03168160018351611f409190612e7d565b81518110611f5057611f50612c93565b6020026020010151604001516001600160a01b0316148015611f8c57508285600381518110611f8157611f81612c93565b602002602001015114155b156120e657611f9b898b612e31565b85600081518110611fae57611fae612c93565b602002602001015110158015611ff2575088611fcb8b6001612e48565b611fd59190612e31565b85600081518110611fe857611fe8612c93565b6020026020010151105b1561207f576120018e84611257565b888660018151811061201557612015612c93565b60200260200101518151811061202d5761202d612c93565b60200260200101819052508460018151811061204b5761204b612c93565b6020026020010151600161205f9190612e48565b8560018151811061207257612072612c93565b6020026020010181815250505b8460008151811061209257612092612c93565b602002602001015160016120a69190612e48565b856000815181106120b9576120b9612c93565b60200260200101818152505082856003815181106120d9576120d9612c93565b6020026020010181815250505b50806120f181612dc8565b915050611e85565b505b8260028151811061210e5761210e612c93565b6020026020010151816121219190612e48565b9050611d88565b5085612135886001612e48565b61213f9190612e31565b8260008151811061215257612152612c93565b602002602001015111156121985786868360008151811061217557612175612c93565b60200260200101516121879190612e5b565b6121919190612e7d565b935061219d565b600093505b505050965096945050505050565b606060006121d7604051806040016040528060078152602001666765744c6f747360c81b81525061260f565b8486111561224d5760405162461bcd60e51b815260206004820152603760248201527f6672616d654b65795f7374617274206d75737420626520736d616c6c6572206f60448201527f7220657175616c20746f206672616d654b65795f656e640000000000000000006064820152608401611512565b8267ffffffffffffffff81111561226657612266612b69565b6040519080825280602002602001820160405280156122bb57816020015b6122a860405180606001604052806000815260200160008152602001606081525090565b8152602001906001900390816122845790505b5060408051600380825260808201909252919350606091600091602082018480368337019050509050886001600160a01b031663ef78d4fd6040518163ffffffff1660e01b8152600401602060405180830381865afa158015612322573d6000803e3d6000fd5b505050506040513d601f19601f820116820180604052508101906123469190612de1565b8160028151811061235957612359612c93565b602002602001018181525050612398604051806040016040528060128152602001710534f4c3a205374617274696e67206c6f6f760741b81525061260f565b875b878111610888576123cf6040518060400160405280600c81526020016b6672616d654b65793a20257360a01b81525082612655565b604051630122bf3160e51b8152600481018290526001600160a01b038b1690632457e62090602401600060405180830381865afa158015612414573d6000803e3d6000fd5b505050506040513d6000823e601f3d908101601f1916820160405261243c9190810190612bfd565b925060005b83518110156125e15761248f6040518060400160405280600a8152602001696c6f744b65793a20257360b01b81525085838151811061248257612482612c93565b6020026020010151612655565b6124998789612e31565b836000815181106124ac576124ac612c93565b6020026020010151101580156124f05750866124c9896001612e48565b6124d39190612e31565b836000815181106124e6576124e6612c93565b6020026020010151105b1561258a5761250c8b83868481518110610b5957610b59612c93565b868460018151811061252057612520612c93565b60200260200101518151811061253857612538612c93565b60200260200101819052508260018151811061255657612556612c93565b6020026020010151600161256a9190612e48565b8360018151811061257d5761257d612c93565b6020026020010181815250505b8260008151811061259d5761259d612c93565b602002602001015160016125b19190612e48565b836000815181106125c4576125c4612c93565b6020908102919091010152806125d981612dc8565b915050612441565b50816002815181106125f5576125f5612c93565b6020026020010151816126089190612e48565b905061239a565b612652816040516024016126239190612f36565b60408051601f198184030181529190526020810180516001600160e01b031663104c13eb60e21b17905261269e565b50565b61269a828260405160240161266b929190612f49565b60408051601f198184030181529190526020810180516001600160e01b0316632d839cb360e21b17905261269e565b5050565b6126528160006a636f6e736f6c652e6c6f679050600080835160208501845afa505050565b6040518060c00160405280600081526020016000815260200160006001600160a01b031681526020016000815260200160008152602001600081525090565b60405180610100016040528060008152602001600081526020016060815260200160006001600160a01b03168152602001600081526020016000815260200160008152602001600081525090565b6001600160a01b038116811461265257600080fd5b60008060006060848603121561277a57600080fd5b833561278581612750565b95602085013595506040909401359392505050565b600060608084018351855260208085015181870152604080860151848289015283815180865260809550858a019150848301925060005b81811015612824578351805184528681015187850152858101516001600160a01b0316868501528881015189850152878101518885015260a090810151908401529285019260c0909201916001016127d1565b50909998505050505050505050565b602081526000610285602083018461279a565b600080600080600060a0868803121561285e57600080fd5b853561286981612750565b97602087013597506040870135966060810135965060800135945092505050565b805182526020808201518184015260408083015161010091850182905280519185018290526000926101208601929181019184905b808210156128df57835185529382019392820192600191909101906128bf565b5050505060608301516128fd60608601826001600160a01b03169052565b506080830151608085015260a083015160a085015260c083015160c085015260e083015160e08501528091505092915050565b6000604082016040835280855180835260608501915060608160051b8601019250602080880160005b8381101561298757605f1988870301855261297586835161288a565b95509382019390820190600101612959565b50509490940194909452949350505050565b600080600080600080600060e0888a0312156129b457600080fd5b87356129bf81612750565b965060208801356129cf81612750565b96999698505050506040850135946060810135946080820135945060a0820135935060c0909101359150565b6000604082016040835280855180835260608501915060608160051b8601019250602080880160005b8381101561298757605f19888703018552612a4086835161279a565b95509382019390820190600101612a24565b60008060408385031215612a6557600080fd5b8235612a7081612750565b946020939093013593505050565b602081526000610285602083018461288a565b60008060008060808587031215612aa757600080fd5b8435612ab281612750565b966020860135965060408601359560600135945092505050565b6020808252825182820181905260009190848201906040850190845b81811015612b0457835183529284019291840191600101612ae8565b50909695505050505050565b60008060008060008060c08789031215612b2957600080fd5b8635612b3481612750565b95506020870135612b4481612750565b95989597505050506040840135936060810135936080820135935060a0909101359150565b634e487b7160e01b600052604160045260246000fd5b60405160c0810167ffffffffffffffff81118282101715612ba257612ba2612b69565b60405290565b604051601f8201601f1916810167ffffffffffffffff81118282101715612bd157612bd1612b69565b604052919050565b600067ffffffffffffffff821115612bf357612bf3612b69565b5060051b60200190565b60006020808385031215612c1057600080fd5b825167ffffffffffffffff811115612c2757600080fd5b8301601f81018513612c3857600080fd5b8051612c4b612c4682612bd9565b612ba8565b81815260059190911b82018301908381019087831115612c6a57600080fd5b928401925b82841015612c8857835182529284019290840190612c6f565b979650505050505050565b634e487b7160e01b600052603260045260246000fd5b60008060408385031215612cbc57600080fd5b505080516020909101519092909150565b60006020808385031215612ce057600080fd5b825167ffffffffffffffff811115612cf757600080fd5b8301601f81018513612d0857600080fd5b8051612d16612c4682612bd9565b81815260c09182028301840191848201919088841115612d3557600080fd5b938501935b83851015612da65780858a031215612d525760008081fd5b612d5a612b7f565b855181528686015187820152604080870151612d7581612750565b90820152606086810151908201526080808701519082015260a0808701519082015283529384019391850191612d3a565b50979650505050505050565b634e487b7160e01b600052601160045260246000fd5b600060018201612dda57612dda612db2565b5060010190565b600060208284031215612df357600080fd5b5051919050565b634e487b7160e01b600052602160045260246000fd5b600060208284031215612e2257600080fd5b81516005811061028557600080fd5b808202811582820484141761136d5761136d612db2565b8082018082111561136d5761136d612db2565b600082612e7857634e487b7160e01b600052601260045260246000fd5b500490565b8181038181111561136d5761136d612db2565b600080600080600080600060e0888a031215612eab57600080fd5b87519650602088015195506040880151612ec481612750565b80955050606088015193506080880151925060a0880151915060c0880151905092959891949750929550565b6000815180845260005b81811015612f1657602081850181015186830182015201612efa565b506000602082860101526020601f19601f83011685010191505092915050565b6020815260006102856020830184612ef0565b604081526000612f5c6040830185612ef0565b9050826020830152939250505056fea26469706673582212207799c745dc5619c242df7bab78cd9e52c2172f13f46aca41882e233c0240d27864736f6c63430008140033",
  "linkReferences": {},
  "deployedLinkReferences": {}
}