{
  "_format": "hh-sol-artifact-1",
  "contractName": "MarketGetter",
  "sourceName": "contracts/MarketGetter.sol",
  "abi": [
    {
      "inputs": [
        {
          "internalType": "contract Market",
          "name": "market",
          "type": "address"
        },
        {
          "internalType": "uint256",
          "name": "timestamp",
          "type": "uint256"
        },
        {
          "internalType": "uint256",
          "name": "pairPrice",
          "type": "uint256"
        },
        {
          "internalType": "uint256",
          "name": "acqPrice",
          "type": "uint256"
        }
      ],
      "name": "clcAmountToApprove",
      "outputs": [
        {
          "internalType": "uint256",
          "name": "approvalAmnt",
          "type": "uint256"
        }
      ],
      "stateMutability": "view",
      "type": "function"
    },
    {
      "inputs": [
        {
          "internalType": "contract Market",
          "name": "market",
          "type": "address"
        },
        {
          "internalType": "uint256",
          "name": "timestamp",
          "type": "uint256"
        },
        {
          "internalType": "uint256",
          "name": "pairPrice",
          "type": "uint256"
        },
        {
          "internalType": "uint256",
          "name": "acqPrice",
          "type": "uint256"
        }
      ],
      "name": "clcAmountToApproveForUpdate",
      "outputs": [
        {
          "internalType": "uint256",
          "name": "amnt",
          "type": "uint256"
        }
      ],
      "stateMutability": "view",
      "type": "function"
    },
    {
      "inputs": [
        {
          "internalType": "contract Market",
          "name": "market",
          "type": "address"
        },
        {
          "internalType": "uint256",
          "name": "frameKey",
          "type": "uint256"
        }
      ],
      "name": "getFrameStruct",
      "outputs": [
        {
          "components": [
            {
              "internalType": "uint256",
              "name": "frameKey",
              "type": "uint256"
            },
            {
              "internalType": "uint256",
              "name": "rate",
              "type": "uint256"
            },
            {
              "internalType": "uint256[]",
              "name": "lotKeys",
              "type": "uint256[]"
            },
            {
              "internalType": "address",
              "name": "claimedBy",
              "type": "address"
            },
            {
              "internalType": "uint256",
              "name": "rateSettle",
              "type": "uint256"
            },
            {
              "internalType": "uint256",
              "name": "feeSettle",
              "type": "uint256"
            },
            {
              "internalType": "uint256",
              "name": "rewardSettle",
              "type": "uint256"
            }
          ],
          "internalType": "struct Market.Frame",
          "name": "",
          "type": "tuple"
        }
      ],
      "stateMutability": "view",
      "type": "function"
    },
    {
      "inputs": [
        {
          "internalType": "contract Market",
          "name": "market",
          "type": "address"
        },
        {
          "internalType": "uint256",
          "name": "frameKey_start",
          "type": "uint256"
        },
        {
          "internalType": "uint256",
          "name": "frameKey_end",
          "type": "uint256"
        },
        {
          "internalType": "uint256",
          "name": "page",
          "type": "uint256"
        },
        {
          "internalType": "uint256",
          "name": "perPage",
          "type": "uint256"
        }
      ],
      "name": "getFrames",
      "outputs": [
        {
          "components": [
            {
              "internalType": "uint256",
              "name": "frameKey",
              "type": "uint256"
            },
            {
              "internalType": "uint256",
              "name": "rate",
              "type": "uint256"
            },
            {
              "internalType": "uint256[]",
              "name": "lotKeys",
              "type": "uint256[]"
            },
            {
              "internalType": "address",
              "name": "claimedBy",
              "type": "address"
            },
            {
              "internalType": "uint256",
              "name": "rateSettle",
              "type": "uint256"
            },
            {
              "internalType": "uint256",
              "name": "feeSettle",
              "type": "uint256"
            },
            {
              "internalType": "uint256",
              "name": "rewardSettle",
              "type": "uint256"
            }
          ],
          "internalType": "struct Market.Frame[]",
          "name": "frames",
          "type": "tuple[]"
        },
        {
          "internalType": "uint256",
          "name": "pagesLeft",
          "type": "uint256"
        }
      ],
      "stateMutability": "view",
      "type": "function"
    },
    {
      "inputs": [
        {
          "internalType": "contract Market",
          "name": "market",
          "type": "address"
        },
        {
          "internalType": "uint256",
          "name": "startIndex",
          "type": "uint256"
        },
        {
          "internalType": "uint256",
          "name": "endIndex",
          "type": "uint256"
        }
      ],
      "name": "getFramesByIndex",
      "outputs": [
        {
          "components": [
            {
              "internalType": "uint256",
              "name": "frameKey",
              "type": "uint256"
            },
            {
              "internalType": "uint256",
              "name": "rate",
              "type": "uint256"
            },
            {
              "internalType": "uint256[]",
              "name": "lotKeys",
              "type": "uint256[]"
            },
            {
              "internalType": "address",
              "name": "claimedBy",
              "type": "address"
            },
            {
              "internalType": "uint256",
              "name": "rateSettle",
              "type": "uint256"
            },
            {
              "internalType": "uint256",
              "name": "feeSettle",
              "type": "uint256"
            },
            {
              "internalType": "uint256",
              "name": "rewardSettle",
              "type": "uint256"
            }
          ],
          "internalType": "struct Market.Frame[]",
          "name": "frames",
          "type": "tuple[]"
        }
      ],
      "stateMutability": "view",
      "type": "function"
    },
    {
      "inputs": [
        {
          "internalType": "contract Market",
          "name": "market",
          "type": "address"
        },
        {
          "internalType": "address",
          "name": "user",
          "type": "address"
        },
        {
          "internalType": "uint256",
          "name": "frameKey_start",
          "type": "uint256"
        },
        {
          "internalType": "uint256",
          "name": "frameKey_end",
          "type": "uint256"
        },
        {
          "internalType": "uint256",
          "name": "page",
          "type": "uint256"
        },
        {
          "internalType": "uint256",
          "name": "perPage",
          "type": "uint256"
        }
      ],
      "name": "getFramesUser",
      "outputs": [
        {
          "components": [
            {
              "internalType": "uint256",
              "name": "frameKey",
              "type": "uint256"
            },
            {
              "internalType": "uint256",
              "name": "rate",
              "type": "uint256"
            },
            {
              "internalType": "uint256[]",
              "name": "lotKeys",
              "type": "uint256[]"
            },
            {
              "internalType": "address",
              "name": "claimedBy",
              "type": "address"
            },
            {
              "internalType": "uint256",
              "name": "rateSettle",
              "type": "uint256"
            },
            {
              "internalType": "uint256",
              "name": "feeSettle",
              "type": "uint256"
            },
            {
              "internalType": "uint256",
              "name": "rewardSettle",
              "type": "uint256"
            }
          ],
          "internalType": "struct Market.Frame[]",
          "name": "userFrames",
          "type": "tuple[]"
        },
        {
          "internalType": "uint256",
          "name": "pagesLeft",
          "type": "uint256"
        }
      ],
      "stateMutability": "view",
      "type": "function"
    },
    {
      "inputs": [
        {
          "internalType": "contract Market",
          "name": "market",
          "type": "address"
        },
        {
          "internalType": "uint256",
          "name": "frameKey",
          "type": "uint256"
        },
        {
          "internalType": "uint256",
          "name": "index",
          "type": "uint256"
        }
      ],
      "name": "getLotKey",
      "outputs": [
        {
          "internalType": "uint256",
          "name": "",
          "type": "uint256"
        }
      ],
      "stateMutability": "view",
      "type": "function"
    },
    {
      "inputs": [
        {
          "internalType": "contract Market",
          "name": "market",
          "type": "address"
        },
        {
          "internalType": "uint256",
          "name": "frameKey",
          "type": "uint256"
        },
        {
          "internalType": "uint256",
          "name": "lotKey",
          "type": "uint256"
        }
      ],
      "name": "getLotStruct",
      "outputs": [
        {
          "components": [
            {
              "internalType": "uint256",
              "name": "frameKey",
              "type": "uint256"
            },
            {
              "internalType": "uint256",
              "name": "lotKey",
              "type": "uint256"
            },
            {
              "components": [
                {
                  "internalType": "uint256",
                  "name": "blockNumber",
                  "type": "uint256"
                },
                {
                  "internalType": "uint256",
                  "name": "blockTimestamp",
                  "type": "uint256"
                },
                {
                  "internalType": "address",
                  "name": "owner",
                  "type": "address"
                },
                {
                  "internalType": "uint256",
                  "name": "acquisitionPrice",
                  "type": "uint256"
                },
                {
                  "internalType": "uint256",
                  "name": "taxCharged",
                  "type": "uint256"
                },
                {
                  "internalType": "uint256",
                  "name": "taxRefunded",
                  "type": "uint256"
                }
              ],
              "internalType": "struct Market.LotState[]",
              "name": "states",
              "type": "tuple[]"
            }
          ],
          "internalType": "struct Market.Lot",
          "name": "",
          "type": "tuple"
        }
      ],
      "stateMutability": "view",
      "type": "function"
    },
    {
      "inputs": [
        {
          "internalType": "contract Market",
          "name": "market",
          "type": "address"
        },
        {
          "internalType": "uint256",
          "name": "frameKey_start",
          "type": "uint256"
        },
        {
          "internalType": "uint256",
          "name": "frameKey_end",
          "type": "uint256"
        },
        {
          "internalType": "uint256",
          "name": "page",
          "type": "uint256"
        },
        {
          "internalType": "uint256",
          "name": "perPage",
          "type": "uint256"
        }
      ],
      "name": "getLots",
      "outputs": [
        {
          "components": [
            {
              "internalType": "uint256",
              "name": "frameKey",
              "type": "uint256"
            },
            {
              "internalType": "uint256",
              "name": "lotKey",
              "type": "uint256"
            },
            {
              "components": [
                {
                  "internalType": "uint256",
                  "name": "blockNumber",
                  "type": "uint256"
                },
                {
                  "internalType": "uint256",
                  "name": "blockTimestamp",
                  "type": "uint256"
                },
                {
                  "internalType": "address",
                  "name": "owner",
                  "type": "address"
                },
                {
                  "internalType": "uint256",
                  "name": "acquisitionPrice",
                  "type": "uint256"
                },
                {
                  "internalType": "uint256",
                  "name": "taxCharged",
                  "type": "uint256"
                },
                {
                  "internalType": "uint256",
                  "name": "taxRefunded",
                  "type": "uint256"
                }
              ],
              "internalType": "struct Market.LotState[]",
              "name": "states",
              "type": "tuple[]"
            }
          ],
          "internalType": "struct Market.Lot[]",
          "name": "lots",
          "type": "tuple[]"
        },
        {
          "internalType": "uint256",
          "name": "pagesLeft",
          "type": "uint256"
        }
      ],
      "stateMutability": "view",
      "type": "function"
    },
    {
      "inputs": [
        {
          "internalType": "contract Market",
          "name": "market",
          "type": "address"
        },
        {
          "internalType": "uint256",
          "name": "startIndex",
          "type": "uint256"
        },
        {
          "internalType": "uint256",
          "name": "endIndex",
          "type": "uint256"
        }
      ],
      "name": "getLotsByIndex",
      "outputs": [
        {
          "components": [
            {
              "internalType": "uint256",
              "name": "frameKey",
              "type": "uint256"
            },
            {
              "internalType": "uint256",
              "name": "lotKey",
              "type": "uint256"
            },
            {
              "components": [
                {
                  "internalType": "uint256",
                  "name": "blockNumber",
                  "type": "uint256"
                },
                {
                  "internalType": "uint256",
                  "name": "blockTimestamp",
                  "type": "uint256"
                },
                {
                  "internalType": "address",
                  "name": "owner",
                  "type": "address"
                },
                {
                  "internalType": "uint256",
                  "name": "acquisitionPrice",
                  "type": "uint256"
                },
                {
                  "internalType": "uint256",
                  "name": "taxCharged",
                  "type": "uint256"
                },
                {
                  "internalType": "uint256",
                  "name": "taxRefunded",
                  "type": "uint256"
                }
              ],
              "internalType": "struct Market.LotState[]",
              "name": "states",
              "type": "tuple[]"
            }
          ],
          "internalType": "struct Market.Lot[]",
          "name": "lots",
          "type": "tuple[]"
        }
      ],
      "stateMutability": "view",
      "type": "function"
    },
    {
      "inputs": [
        {
          "internalType": "contract Market",
          "name": "market",
          "type": "address"
        },
        {
          "internalType": "uint256",
          "name": "frameKey",
          "type": "uint256"
        }
      ],
      "name": "getLotsCount",
      "outputs": [
        {
          "internalType": "uint256",
          "name": "",
          "type": "uint256"
        }
      ],
      "stateMutability": "view",
      "type": "function"
    },
    {
      "inputs": [
        {
          "internalType": "contract Market",
          "name": "market",
          "type": "address"
        },
        {
          "internalType": "address",
          "name": "user",
          "type": "address"
        },
        {
          "internalType": "uint256",
          "name": "mode",
          "type": "uint256"
        },
        {
          "internalType": "uint256",
          "name": "frameKey_start",
          "type": "uint256"
        },
        {
          "internalType": "uint256",
          "name": "frameKey_end",
          "type": "uint256"
        },
        {
          "internalType": "uint256",
          "name": "page",
          "type": "uint256"
        },
        {
          "internalType": "uint256",
          "name": "perPage",
          "type": "uint256"
        }
      ],
      "name": "getLotsSoldUser",
      "outputs": [
        {
          "components": [
            {
              "internalType": "uint256",
              "name": "frameKey",
              "type": "uint256"
            },
            {
              "internalType": "uint256",
              "name": "lotKey",
              "type": "uint256"
            },
            {
              "components": [
                {
                  "internalType": "uint256",
                  "name": "blockNumber",
                  "type": "uint256"
                },
                {
                  "internalType": "uint256",
                  "name": "blockTimestamp",
                  "type": "uint256"
                },
                {
                  "internalType": "address",
                  "name": "owner",
                  "type": "address"
                },
                {
                  "internalType": "uint256",
                  "name": "acquisitionPrice",
                  "type": "uint256"
                },
                {
                  "internalType": "uint256",
                  "name": "taxCharged",
                  "type": "uint256"
                },
                {
                  "internalType": "uint256",
                  "name": "taxRefunded",
                  "type": "uint256"
                }
              ],
              "internalType": "struct Market.LotState[]",
              "name": "states",
              "type": "tuple[]"
            }
          ],
          "internalType": "struct Market.Lot[]",
          "name": "userLots",
          "type": "tuple[]"
        },
        {
          "internalType": "uint256",
          "name": "pagesLeft",
          "type": "uint256"
        }
      ],
      "stateMutability": "view",
      "type": "function"
    },
    {
      "inputs": [
        {
          "internalType": "contract Market",
          "name": "market",
          "type": "address"
        },
        {
          "internalType": "address",
          "name": "user",
          "type": "address"
        },
        {
          "internalType": "uint256",
          "name": "mode",
          "type": "uint256"
        },
        {
          "internalType": "uint256",
          "name": "frameKey_start",
          "type": "uint256"
        },
        {
          "internalType": "uint256",
          "name": "frameKey_end",
          "type": "uint256"
        },
        {
          "internalType": "uint256",
          "name": "page",
          "type": "uint256"
        },
        {
          "internalType": "uint256",
          "name": "perPage",
          "type": "uint256"
        }
      ],
      "name": "getLotsUser",
      "outputs": [
        {
          "components": [
            {
              "internalType": "uint256",
              "name": "frameKey",
              "type": "uint256"
            },
            {
              "internalType": "uint256",
              "name": "lotKey",
              "type": "uint256"
            },
            {
              "components": [
                {
                  "internalType": "uint256",
                  "name": "blockNumber",
                  "type": "uint256"
                },
                {
                  "internalType": "uint256",
                  "name": "blockTimestamp",
                  "type": "uint256"
                },
                {
                  "internalType": "address",
                  "name": "owner",
                  "type": "address"
                },
                {
                  "internalType": "uint256",
                  "name": "acquisitionPrice",
                  "type": "uint256"
                },
                {
                  "internalType": "uint256",
                  "name": "taxCharged",
                  "type": "uint256"
                },
                {
                  "internalType": "uint256",
                  "name": "taxRefunded",
                  "type": "uint256"
                }
              ],
              "internalType": "struct Market.LotState[]",
              "name": "states",
              "type": "tuple[]"
            }
          ],
          "internalType": "struct Market.Lot[]",
          "name": "userLots",
          "type": "tuple[]"
        },
        {
          "internalType": "uint256",
          "name": "pagesLeft",
          "type": "uint256"
        }
      ],
      "stateMutability": "view",
      "type": "function"
    },
    {
      "inputs": [
        {
          "internalType": "contract Market",
          "name": "market",
          "type": "address"
        },
        {
          "internalType": "uint256",
          "name": "startFrame",
          "type": "uint256"
        },
        {
          "internalType": "uint256",
          "name": "numOfFrames",
          "type": "uint256"
        }
      ],
      "name": "getOpenFrameKeys",
      "outputs": [
        {
          "internalType": "uint256[]",
          "name": "openFrames",
          "type": "uint256[]"
        }
      ],
      "stateMutability": "view",
      "type": "function"
    },
    {
      "inputs": [
        {
          "internalType": "contract Market",
          "name": "market",
          "type": "address"
        },
        {
          "internalType": "uint256",
          "name": "frameKey",
          "type": "uint256"
        }
      ],
      "name": "getRewardAmount",
      "outputs": [
        {
          "internalType": "uint256",
          "name": "",
          "type": "uint256"
        }
      ],
      "stateMutability": "view",
      "type": "function"
    },
    {
      "inputs": [
        {
          "internalType": "contract Market",
          "name": "market",
          "type": "address"
        },
        {
          "internalType": "uint256",
          "name": "frameKey",
          "type": "uint256"
        }
      ],
      "name": "getRewardAmountMin",
      "outputs": [
        {
          "internalType": "uint256",
          "name": "rewardFund",
          "type": "uint256"
        }
      ],
      "stateMutability": "view",
      "type": "function"
    },
    {
      "inputs": [
        {
          "internalType": "uint256",
          "name": "concatenated",
          "type": "uint256"
        }
      ],
      "name": "splitLotsArrayElement",
      "outputs": [
        {
          "internalType": "uint256",
          "name": "frameKey",
          "type": "uint256"
        },
        {
          "internalType": "uint256",
          "name": "lotKey",
          "type": "uint256"
        }
      ],
      "stateMutability": "pure",
      "type": "function"
    }
  ],
  "bytecode": "0x608060405234801561001057600080fd5b50613fba806100206000396000f3fe608060405234801561001057600080fd5b506004361061010b5760003560e01c8063ae370f6d116100a2578063dbd20a8811610071578063dbd20a8814610270578063de73259514610290578063f2580f26146102a3578063f6eb9ee7146102b6578063f91cbebe146102c957600080fd5b8063ae370f6d14610202578063c1d013951461022a578063d00d7b191461023d578063da4e85561461025d57600080fd5b8063612d8b50116100de578063612d8b501461019b57806371b08d89146101bc5780637f424a37146101cf5780639291178e146101ef57600080fd5b8063281e8068146101105780632c79854f1461013a5780633191b50e1461015b5780634314b84f1461017b575b600080fd5b61012361011e3660046136a5565b6102dc565b6040516101319291906137f8565b60405180910390f35b61014d61014836600461381a565b610c67565b604051908152602001610131565b61016e61016936600461381a565b610d00565b6040516101319190613944565b61018e61018936600461381a565b610f68565b6040516101319190613957565b6101ae6101a936600461396a565b611135565b6040516101319291906139ae565b6101236101ca3660046136a5565b6114ab565b6101e26101dd3660046139c1565b611d66565b60405161013191906139ed565b61014d6101fd3660046139c1565b611e7d565b610215610210366004613a00565b611ef8565b60408051928352602083019190915201610131565b61014d610238366004613a19565b611f22565b61025061024b36600461381a565b612212565b6040516101319190613a54565b61014d61026b3660046139c1565b612621565b61028361027e36600461381a565b61270d565b6040516101319190613a67565b61014d61029e366004613a19565b6128d7565b61014d6102b13660046139c1565b612b3e565b6101ae6102c4366004613a7a565b612cdc565b6101236102d736600461396a565b613201565b606060006102eb836001613ae9565b6001600160401b0381111561030257610302613afc565b60405190808252806020026020018201604052801561035757816020015b61034460405180606001604052806000815260200160008152602001606081525090565b8152602001906001900390816103205790505b50604080516003808252608082019092529193506000916060918391906020820184803683370190505090508b6001600160a01b031663ef78d4fd6040518163ffffffff1660e01b8152600401602060405180830381865afa1580156103c1573d6000803e3d6000fd5b505050506040513d601f19601f820116820180604052508101906103e59190613b12565b816002815181106103f8576103f8613b2b565b60200260200101818152505060018a116107d957885b8881116107d75760405163bad1265360e01b8152600481018290526001600160a01b038e169063bad1265390602401602060405180830381865afa15801561045a573d6000803e3d6000fd5b505050506040513d601f19601f8201168201806040525081019061047e9190613b41565b9350600184600481111561049457610494613b62565b036107aa57604051630122bf3160e51b8152600481018290526001600160a01b038e1690632457e62090602401600060405180830381865afa1580156104de573d6000803e3d6000fd5b505050506040513d6000823e601f3d908101601f191682016040526105069190810190613bf3565b925060005b83518110156107a8576105388e8386848151811061052b5761052b613b2b565b6020026020010151610f68565b87898151811061054a5761054a613b2b565b602002602001018190525060008e6001600160a01b031663fb0d5e098487858151811061057957610579613b2b565b60200260200101516040518363ffffffff1660e01b81526004016105a7929190918252602082015260400190565b600060405180830381865afa1580156105c4573d6000803e3d6000fd5b505050506040513d6000823e601f3d908101601f191682016040526105ec9190810190613d36565b905060005b600182516105ff9190613d72565b811015610793578e6001600160a01b031682828151811061062257610622613b2b565b6020026020010151604001516001600160a01b031603610781576106468a8c613d85565b8560008151811061065957610659613b2b565b60200260200101511015801561069d5750896106768c6001613ae9565b6106809190613d85565b8560008151811061069357610693613b2b565b6020026020010151105b1561073a57888a815181106106b4576106b4613b2b565b602002602001015189866001815181106106d0576106d0613b2b565b6020026020010151815181106106e8576106e8613b2b565b60200260200101819052508460018151811061070657610706613b2b565b6020026020010151600161071a9190613ae9565b8560018151811061072d5761072d613b2b565b6020026020010181815250505b8460008151811061074d5761074d613b2b565b602002602001015160016107619190613ae9565b8560008151811061077457610774613b2b565b6020026020010181815250505b8061078b81613d9c565b9150506105f1565b505080806107a090613d9c565b91505061050b565b505b816002815181106107bd576107bd613b2b565b6020026020010151816107d09190613ae9565b905061040e565b505b89600214806107e6575089155b15610be457885b888111610be25760405163bad1265360e01b8152600481018290526001600160a01b038e169063bad1265390602401602060405180830381865afa158015610839573d6000803e3d6000fd5b505050506040513d601f19601f8201168201806040525081019061085d9190613b41565b9350600284600481111561087357610873613b62565b14806108905750600484600481111561088e5761088e613b62565b145b806108ac575060038460048111156108aa576108aa613b62565b145b15610bb557604051630122bf3160e51b8152600481018290526001600160a01b038e1690632457e62090602401600060405180830381865afa1580156108f6573d6000803e3d6000fd5b505050506040513d6000823e601f3d908101601f1916820160405261091e9190810190613bf3565b925060005b8351811015610bb3576109438e8386848151811061052b5761052b613b2b565b87898151811061095557610955613b2b565b602002602001018190525060008e6001600160a01b031663fb0d5e098487858151811061098457610984613b2b565b60200260200101516040518363ffffffff1660e01b81526004016109b2929190918252602082015260400190565b600060405180830381865afa1580156109cf573d6000803e3d6000fd5b505050506040513d6000823e601f3d908101601f191682016040526109f79190810190613d36565b905060005b60018251610a0a9190613d72565b811015610b9e578e6001600160a01b0316828281518110610a2d57610a2d613b2b565b6020026020010151604001516001600160a01b031603610b8c57610a518a8c613d85565b85600081518110610a6457610a64613b2b565b602002602001015110158015610aa8575089610a818c6001613ae9565b610a8b9190613d85565b85600081518110610a9e57610a9e613b2b565b6020026020010151105b15610b4557888a81518110610abf57610abf613b2b565b60200260200101518986600181518110610adb57610adb613b2b565b602002602001015181518110610af357610af3613b2b565b602002602001018190525084600181518110610b1157610b11613b2b565b60200260200101516001610b259190613ae9565b85600181518110610b3857610b38613b2b565b6020026020010181815250505b84600081518110610b5857610b58613b2b565b60200260200101516001610b6c9190613ae9565b85600081518110610b7f57610b7f613b2b565b6020026020010181815250505b80610b9681613d9c565b9150506109fc565b50508080610bab90613d9c565b915050610923565b505b81600281518110610bc857610bc8613b2b565b602002602001015181610bdb9190613ae9565b90506107ed565b505b85610bf0886001613ae9565b610bfa9190613d85565b81600081518110610c0d57610c0d613b2b565b60200260200101511115610c5357868682600081518110610c3057610c30613b2b565b6020026020010151610c429190613dcb565b610c4c9190613d72565b9350610c58565b600093505b50505097509795505050505050565b604051630122bf3160e51b81526004810183905260009081906001600160a01b03861690632457e62090602401600060405180830381865afa158015610cb1573d6000803e3d6000fd5b505050506040513d6000823e601f3d908101601f19168201604052610cd99190810190613bf3565b9050808381518110610ced57610ced613b2b565b60200260200101519150505b9392505050565b606081831115610d2b5760405162461bcd60e51b8152600401610d2290613ddf565b60405180910390fd5b6000846001600160a01b031663ed320aa86040518163ffffffff1660e01b8152600401602060405180830381865afa158015610d6b573d6000803e3d6000fd5b505050506040513d601f19601f82011682018060405250810190610d8f9190613b12565b905060008111610de15760405162461bcd60e51b815260206004820152601760248201527f4e6f206672616d657320696e20746865206d61726b65740000000000000000006044820152606401610d22565b838111610e305760405162461bcd60e51b815260206004820152601b60248201527f7374617274496e646578206973206f7574206f6620626f756e647300000000006044820152606401610d22565b82811015610e4657610e43600182613d72565b92505b610e508484613d72565b610e5b906001613ae9565b6001600160401b03811115610e7257610e72613afc565b604051908082528060200260200182016040528015610eab57816020015b610e9861360b565b815260200190600190039081610e905790505b509150835b838111610f5f5760405162143a2160e61b8152600481018290526000906001600160a01b0388169063050e884090602401602060405180830381865afa158015610efe573d6000803e3d6000fd5b505050506040513d601f19601f82011682018060405250810190610f229190613b12565b9050610f2e8782611d66565b848381518110610f4057610f40613b2b565b6020026020010181905250508080610f5790613d9c565b915050610eb0565b50509392505050565b610f8c60405180606001604052806000815260200160008152602001606081525090565b610fb060405180606001604052806000815260200160008152602001606081525090565b8381526020810183905260405163fb0d5e0960e01b815260048101859052602481018490526000906001600160a01b0387169063fb0d5e0990604401600060405180830381865afa158015611009573d6000803e3d6000fd5b505050506040513d6000823e601f3d908101601f191682016040526110319190810190613d36565b905080516000036110785760408051600180825281830190925290816020015b611059613651565b8152602001906001900390816110515750506040830152509050610cf9565b80516001600160401b0381111561109157611091613afc565b6040519080825280602002602001820160405280156110ca57816020015b6110b7613651565b8152602001906001900390816110af5790505b50604083015260005b815181101561112a578181815181106110ee576110ee613b2b565b60200260200101518360400151828151811061110c5761110c613b2b565b6020026020010181905250808061112290613d9c565b9150506110d3565b509095945050505050565b60606000826001600160401b0381111561115157611151613afc565b60405190808252806020026020018201604052801561118a57816020015b61117761360b565b81526020019060019003908161116f5790505b50915061119561360b565b6040805160038082526080820190925260009160208201606080368337019050509050886001600160a01b031663ef78d4fd6040518163ffffffff1660e01b8152600401602060405180830381865afa1580156111f6573d6000803e3d6000fd5b505050506040513d601f19601f8201168201806040525081019061121a9190613b12565b8160028151811061122d5761122d613b2b565b6020908102919091010152875b87811161142a5761124b8a82611d66565b92506000835160405163bad1265360e01b815260048101919091526001600160a01b038c169063bad1265390602401602060405180830381865afa158015611297573d6000803e3d6000fd5b505050506040513d601f19601f820116820180604052508101906112bb9190613b41565b60048111156112cc576112cc613b62565b146113fd576112db8688613d85565b826000815181106112ee576112ee613b2b565b60200260200101511015801561133257508561130b886001613ae9565b6113159190613d85565b8260008151811061132857611328613b2b565b6020026020010151105b156113b65782858360018151811061134c5761134c613b2b565b60200260200101518151811061136457611364613b2b565b60200260200101819052508160018151811061138257611382613b2b565b602002602001015160016113969190613ae9565b826001815181106113a9576113a9613b2b565b6020026020010181815250505b816000815181106113c9576113c9613b2b565b602002602001015160016113dd9190613ae9565b826000815181106113f0576113f0613b2b565b6020026020010181815250505b8160028151811061141057611410613b2b565b6020026020010151816114239190613ae9565b905061123a565b5084611437876001613ae9565b6114419190613d85565b8160008151811061145457611454613b2b565b6020026020010151111561149a5785858260008151811061147757611477613b2b565b60200260200101516114899190613dcb565b6114939190613d72565b925061149f565b600092505b50509550959350505050565b606060006114ba836001613ae9565b6001600160401b038111156114d1576114d1613afc565b60405190808252806020026020018201604052801561152657816020015b61151360405180606001604052806000815260200160008152602001606081525090565b8152602001906001900390816114ef5790505b50604080516003808252608082019092529193506000916060918391906020820184803683370190505090508b6001600160a01b031663ef78d4fd6040518163ffffffff1660e01b8152600401602060405180830381865afa158015611590573d6000803e3d6000fd5b505050506040513d601f19601f820116820180604052508101906115b49190613b12565b816002815181106115c7576115c7613b2b565b60200260200101818152505060018a1161197c57885b88811161197a5760405163bad1265360e01b8152600481018290526001600160a01b038e169063bad1265390602401602060405180830381865afa158015611629573d6000803e3d6000fd5b505050506040513d601f19601f8201168201806040525081019061164d9190613b41565b9350600184600481111561166357611663613b62565b0361194d57604051630122bf3160e51b8152600481018290526001600160a01b038e1690632457e62090602401600060405180830381865afa1580156116ad573d6000803e3d6000fd5b505050506040513d6000823e601f3d908101601f191682016040526116d59190810190613bf3565b925060005b835181101561194b576116fa8e8386848151811061052b5761052b613b2b565b87898151811061170c5761170c613b2b565b602002602001018190525060008e6001600160a01b031663fb0d5e098487858151811061173b5761173b613b2b565b60200260200101516040518363ffffffff1660e01b8152600401611769929190918252602082015260400190565b600060405180830381865afa158015611786573d6000803e3d6000fd5b505050506040513d6000823e601f3d908101601f191682016040526117ae9190810190613d36565b90508d6001600160a01b031681600183516117c99190613d72565b815181106117d9576117d9613b2b565b6020026020010151604001516001600160a01b031603611938576117fd898b613d85565b8460008151811061181057611810613b2b565b60200260200101511015801561185457508861182d8b6001613ae9565b6118379190613d85565b8460008151811061184a5761184a613b2b565b6020026020010151105b156118f15787898151811061186b5761186b613b2b565b6020026020010151888560018151811061188757611887613b2b565b60200260200101518151811061189f5761189f613b2b565b6020026020010181905250836001815181106118bd576118bd613b2b565b602002602001015160016118d19190613ae9565b846001815181106118e4576118e4613b2b565b6020026020010181815250505b8360008151811061190457611904613b2b565b602002602001015160016119189190613ae9565b8460008151811061192b5761192b613b2b565b6020026020010181815250505b508061194381613d9c565b9150506116da565b505b8160028151811061196057611960613b2b565b6020026020010151816119739190613ae9565b90506115dd565b505b8960021480611989575089155b15610be457885b888111610be25760405163bad1265360e01b8152600481018290526001600160a01b038e169063bad1265390602401602060405180830381865afa1580156119dc573d6000803e3d6000fd5b505050506040513d601f19601f82011682018060405250810190611a009190613b41565b93506002846004811115611a1657611a16613b62565b1480611a3357506004846004811115611a3157611a31613b62565b145b80611a4f57506003846004811115611a4d57611a4d613b62565b145b15611d3957604051630122bf3160e51b8152600481018290526001600160a01b038e1690632457e62090602401600060405180830381865afa158015611a99573d6000803e3d6000fd5b505050506040513d6000823e601f3d908101601f19168201604052611ac19190810190613bf3565b925060005b8351811015611d3757611ae68e8386848151811061052b5761052b613b2b565b878981518110611af857611af8613b2b565b602002602001018190525060008e6001600160a01b031663fb0d5e0984878581518110611b2757611b27613b2b565b60200260200101516040518363ffffffff1660e01b8152600401611b55929190918252602082015260400190565b600060405180830381865afa158015611b72573d6000803e3d6000fd5b505050506040513d6000823e601f3d908101601f19168201604052611b9a9190810190613d36565b90508d6001600160a01b03168160018351611bb59190613d72565b81518110611bc557611bc5613b2b565b6020026020010151604001516001600160a01b031603611d2457611be9898b613d85565b84600081518110611bfc57611bfc613b2b565b602002602001015110158015611c40575088611c198b6001613ae9565b611c239190613d85565b84600081518110611c3657611c36613b2b565b6020026020010151105b15611cdd57878981518110611c5757611c57613b2b565b60200260200101518885600181518110611c7357611c73613b2b565b602002602001015181518110611c8b57611c8b613b2b565b602002602001018190525083600181518110611ca957611ca9613b2b565b60200260200101516001611cbd9190613ae9565b84600181518110611cd057611cd0613b2b565b6020026020010181815250505b83600081518110611cf057611cf0613b2b565b60200260200101516001611d049190613ae9565b84600081518110611d1757611d17613b2b565b6020026020010181815250505b5080611d2f81613d9c565b915050611ac6565b505b81600281518110611d4c57611d4c613b2b565b602002602001015181611d5f9190613ae9565b9050611990565b611d6e61360b565b611d7661360b565b604051632840d02f60e21b8152600481018490526001600160a01b0385169063a10340bc9060240160c060405180830381865afa158015611dbb573d6000803e3d6000fd5b505050506040513d601f19601f82011682018060405250810190611ddf9190613e2e565b60c087015260a086015260808501526001600160a01b0390811660608501526020840191909152908252604051630122bf3160e51b81526004810185905290851690632457e62090602401600060405180830381865afa158015611e47573d6000803e3d6000fd5b505050506040513d6000823e601f3d908101601f19168201604052611e6f9190810190613bf3565b604082015290505b92915050565b604051630122bf3160e51b81526004810182905260009081906001600160a01b03851690632457e62090602401600060405180830381865afa158015611ec7573d6000803e3d6000fd5b505050506040513d6000823e601f3d908101601f19168201604052611eef9190810190613bf3565b51949350505050565b600080611f0a6402540be40084613e83565b9150611f1b6402540be40084613dcb565b9050915091565b6040516361eee2cb60e01b81526004810184905260009081906001600160a01b038716906361eee2cb90602401602060405180830381865afa158015611f6c573d6000803e3d6000fd5b505050506040513d601f19601f82011682018060405250810190611f909190613b12565b6040516361eee2cb60e01b81524260048201529091506001600160a01b038716906361eee2cb90602401602060405180830381865afa158015611fd7573d6000803e3d6000fd5b505050506040513d601f19601f82011682018060405250810190611ffb9190613b12565b81101561204a5760405162461bcd60e51b815260206004820152601b60248201527f54484953204c4f5420495320494e20412050415354204652414d4500000000006044820152606401610d22565b6000806120c188848a6001600160a01b0316639592de188a6040518263ffffffff1660e01b815260040161208091815260200190565b602060405180830381865afa15801561209d573d6000803e3d6000fd5b505050506040513d601f19601f820116820180604052508101906101899190613b12565b60408101518051919250906120d890600190613d72565b815181106120e8576120e8613b2b565b60200260200101516060015191506000886001600160a01b031663e107fb4f85856040518363ffffffff1660e01b815260040161212f929190918252602082015260400190565b602060405180830381865afa15801561214c573d6000803e3d6000fd5b505050506040513d601f19601f820116820180604052508101906121709190613b12565b60405163e107fb4f60e01b815260048101869052602481018890529091506000906001600160a01b038b169063e107fb4f90604401602060405180830381865afa1580156121c2573d6000803e3d6000fd5b505050506040513d601f19601f820116820180604052508101906121e69190613b12565b90508082106121f85760009550612205565b6122028282613d72565b95505b5050505050949350505050565b6060818311156122345760405162461bcd60e51b8152600401610d2290613ddf565b6000846001600160a01b031663197c4e786040518163ffffffff1660e01b8152600401602060405180830381865afa158015612274573d6000803e3d6000fd5b505050506040513d601f19601f820116820180604052508101906122989190613b12565b9050600081116122e25760405162461bcd60e51b8152602060048201526015602482015274139bc81b1bdd1cc81a5b881d1a19481b585c9ad95d605a1b6044820152606401610d22565b6000816001600160401b038111156122fc576122fc613afc565b604051908082528060200260200182016040528015612325578160200160208202803683370190505b509050856001600160a01b031663c0423f2e6040518163ffffffff1660e01b8152600401600060405180830381865afa158015612366573d6000803e3d6000fd5b505050506040513d6000823e601f3d908101601f1916820160405261238e9190810190613bf3565b90508185106123df5760405162461bcd60e51b815260206004820152601b60248201527f7374617274496e646578206973206f7574206f6620626f756e647300000000006044820152606401610d22565b8184106123f4576123f1600183613d72565b93505b6123fe8585613d72565b612409906001613ae9565b6001600160401b0381111561242057612420613afc565b60405190808252806020026020018201604052801561247557816020015b61246260405180606001604052806000815260200160008152602001606081525090565b81526020019060019003908161243e5790505b509250845b848111612617576000806124d260405180604001604052806013815260200172029a7a61d103637ba39a0b93930bcadb4ae9d1606d1b8152508585815181106124c5576124c5613b2b565b6020026020010151613595565b6124f48484815181106124e7576124e7613b2b565b6020026020010151611ef8565b60408051808201909152600f81526e029a7a61d10333930b6b2a5b2bc9d1608d1b602082015291935091506125299083613595565b6125586040518060400160405280600d81526020016c029a7a61d103637ba25b2bc9d1609d1b81525082613595565b604051636f1aefc360e01b815260048101839052602481018290526000906001600160a01b038b1690636f1aefc390604401600060405180830381865afa1580156125a7573d6000803e3d6000fd5b505050506040513d6000823e601f3d908101601f191682016040526125cf9190810190613e97565b90506125e48a82600001518360200151610f68565b8785815181106125f6576125f6613b2b565b6020026020010181905250505050808061260f90613d9c565b91505061247a565b5050509392505050565b6040516339a6a48960e01b81526004810182905260009081906001600160a01b038516906339a6a48990602401602060405180830381865afa15801561266b573d6000803e3d6000fd5b505050506040513d601f19601f8201168201806040525081019061268f9190613b12565b90506000846001600160a01b031663527eb4bc6040518163ffffffff1660e01b8152600401602060405180830381865afa1580156126d1573d6000803e3d6000fd5b505050506040513d601f19601f820116820180604052508101906126f59190613b12565b905060006127038284613d72565b9695505050505050565b6060816001600160401b0381111561272757612727613afc565b604051908082528060200260200182016040528015612750578160200160208202803683370190505b509050600061275d61360b565b60005b84811161261757600081886001600160a01b031663ef78d4fd6040518163ffffffff1660e01b8152600401602060405180830381865afa1580156127a8573d6000803e3d6000fd5b505050506040513d601f19601f820116820180604052508101906127cc9190613b12565b6127d69190613d85565b6127e09088613ae9565b90506127ec8882611d66565b805160405163bad1265360e01b815260048101919091529093506000906001600160a01b038a169063bad1265390602401602060405180830381865afa15801561283a573d6000803e3d6000fd5b505050506040513d601f19601f8201168201806040525081019061285e9190613b41565b9050600181600481111561287457612874613b62565b14806128915750600381600481111561288f5761288f613b62565b145b156128c257818686815181106128a9576128a9613b2b565b6020908102919091010152846128be81613d9c565b9550505b505080806128cf90613d9c565b915050612760565b6040516361eee2cb60e01b81526004810184905260009081906001600160a01b038716906361eee2cb90602401602060405180830381865afa158015612921573d6000803e3d6000fd5b505050506040513d601f19601f820116820180604052508101906129459190613b12565b905042866001600160a01b031663ef78d4fd6040518163ffffffff1660e01b8152600401602060405180830381865afa158015612986573d6000803e3d6000fd5b505050506040513d601f19601f820116820180604052508101906129aa9190613b12565b6129b49083613ae9565b1015612a025760405162461bcd60e51b815260206004820152601d60248201527f4672616d652068617320746f20626520696e20746865206675747572650000006044820152606401610d22565b6040516312b25bc360e31b8152600481018590526000906001600160a01b03881690639592de1890602401602060405180830381865afa158015612a4a573d6000803e3d6000fd5b505050506040513d601f19601f82011682018060405250810190612a6e9190613b12565b60405163e107fb4f60e01b815260048101849052602481018690529091506000906001600160a01b0389169063e107fb4f90604401602060405180830381865afa158015612ac0573d6000803e3d6000fd5b505050506040513d601f19601f82011682018060405250810190612ae49190613b12565b90506000612af3898585610f68565b604081015180519192508391612b0b90600190613d72565b81518110612b1b57612b1b613b2b565b602002602001015160600151612b319190613ae9565b9998505050505050505050565b600080612b4b8484611d66565b905060005b816040015151811015612cd4576000612b7a86868560400151858151811061052b5761052b613b2b565b905060005b816040015151811015612cbf5781604001518181518110612ba257612ba2613b2b565b60200260200101516080015185612bb99190613ae9565b945081604001518181518110612bd157612bd1613b2b565b602002602001015160a0015185612be89190613d72565b94506001826040015151612bfc9190613d72565b8103612cad576000876001600160a01b031663e107fb4f8885604001518581518110612c2a57612c2a613b2b565b6020026020010151606001516040518363ffffffff1660e01b8152600401612c5c929190918252602082015260400190565b602060405180830381865afa158015612c79573d6000803e3d6000fd5b505050506040513d601f19601f82011682018060405250810190612c9d9190613b12565b9050612ca98187613d72565b9550505b80612cb781613d9c565b915050612b7f565b50508080612ccc90613d9c565b915050612b50565b505092915050565b60606000826001600160401b03811115612cf857612cf8613afc565b604051908082528060200260200182016040528015612d3157816020015b612d1e61360b565b815260200190600190039081612d165790505b5060408051600480825260a08201909252919350600091829160208201608080368337019050509050896001600160a01b031663ef78d4fd6040518163ffffffff1660e01b8152600401602060405180830381865afa158015612d98573d6000803e3d6000fd5b505050506040513d601f19601f82011682018060405250810190612dbc9190613b12565b81600281518110612dcf57612dcf613b2b565b60209081029190910101526060885b88811161317e5760405163bad1265360e01b8152600481018290526001600160a01b038d169063bad1265390602401602060405180830381865afa158015612e2a573d6000803e3d6000fd5b505050506040513d601f19601f82011682018060405250810190612e4e9190613b41565b93506000846004811115612e6457612e64613b62565b1461315157604051630122bf3160e51b8152600481018290526001600160a01b038d1690632457e62090602401600060405180830381865afa158015612eae573d6000803e3d6000fd5b505050506040513d6000823e601f3d908101601f19168201604052612ed69190810190613bf3565b915060005b825181101561314f5760008d6001600160a01b031663fb0d5e0984868581518110612f0857612f08613b2b565b60200260200101516040518363ffffffff1660e01b8152600401612f36929190918252602082015260400190565b600060405180830381865afa158015612f53573d6000803e3d6000fd5b505050506040513d6000823e601f3d908101601f19168201604052612f7b9190810190613d36565b90508c6001600160a01b03168160018351612f969190613d72565b81518110612fa657612fa6613b2b565b6020026020010151604001516001600160a01b0316148015612fe257508285600381518110612fd757612fd7613b2b565b602002602001015114155b1561313c57612ff1898b613d85565b8560008151811061300457613004613b2b565b6020026020010151101580156130485750886130218b6001613ae9565b61302b9190613d85565b8560008151811061303e5761303e613b2b565b6020026020010151105b156130d5576130578e84611d66565b888660018151811061306b5761306b613b2b565b60200260200101518151811061308357613083613b2b565b6020026020010181905250846001815181106130a1576130a1613b2b565b602002602001015160016130b59190613ae9565b856001815181106130c8576130c8613b2b565b6020026020010181815250505b846000815181106130e8576130e8613b2b565b602002602001015160016130fc9190613ae9565b8560008151811061310f5761310f613b2b565b602002602001018181525050828560038151811061312f5761312f613b2b565b6020026020010181815250505b508061314781613d9c565b915050612edb565b505b8260028151811061316457613164613b2b565b6020026020010151816131779190613ae9565b9050612dde565b508561318b886001613ae9565b6131959190613d85565b826000815181106131a8576131a8613b2b565b602002602001015111156131ee578686836000815181106131cb576131cb613b2b565b60200260200101516131dd9190613dcb565b6131e79190613d72565b93506131f3565b600093505b505050965096945050505050565b606060008486111561327b5760405162461bcd60e51b815260206004820152603760248201527f6672616d654b65795f7374617274206d75737420626520736d616c6c6572206f60448201527f7220657175616c20746f206672616d654b65795f656e640000000000000000006064820152608401610d22565b826001600160401b0381111561329357613293613afc565b6040519080825280602002602001820160405280156132e857816020015b6132d560405180606001604052806000815260200160008152602001606081525090565b8152602001906001900390816132b15790505b5060408051600380825260808201909252919350606091600091602082018480368337019050509050886001600160a01b031663ef78d4fd6040518163ffffffff1660e01b8152600401602060405180830381865afa15801561334f573d6000803e3d6000fd5b505050506040513d601f19601f820116820180604052508101906133739190613b12565b8160028151811061338657613386613b2b565b6020908102919091010152875b87811161142a57604051630122bf3160e51b8152600481018290526001600160a01b038b1690632457e62090602401600060405180830381865afa1580156133df573d6000803e3d6000fd5b505050506040513d6000823e601f3d908101601f191682016040526134079190810190613bf3565b925060005b83518110156135675761341f8789613d85565b8360008151811061343257613432613b2b565b60200260200101511015801561347657508661344f896001613ae9565b6134599190613d85565b8360008151811061346c5761346c613b2b565b6020026020010151105b15613510576134928b8386848151811061052b5761052b613b2b565b86846001815181106134a6576134a6613b2b565b6020026020010151815181106134be576134be613b2b565b6020026020010181905250826001815181106134dc576134dc613b2b565b602002602001015160016134f09190613ae9565b8360018151811061350357613503613b2b565b6020026020010181815250505b8260008151811061352357613523613b2b565b602002602001015160016135379190613ae9565b8360008151811061354a5761354a613b2b565b60209081029190910101528061355f81613d9c565b91505061340c565b508160028151811061357b5761357b613b2b565b60200260200101518161358e9190613ae9565b9050613393565b6135da82826040516024016135ab929190613f2f565b60408051601f198184030181529190526020810180516001600160e01b0316632d839cb360e21b1790526135de565b5050565b6135e7816135ea565b50565b60006a636f6e736f6c652e6c6f679050600080835160208501845afa505050565b6040518060e0016040528060008152602001600081526020016060815260200160006001600160a01b031681526020016000815260200160008152602001600081525090565b6040518060c00160405280600081526020016000815260200160006001600160a01b031681526020016000815260200160008152602001600081525090565b6001600160a01b03811681146135e757600080fd5b600080600080600080600060e0888a0312156136c057600080fd5b87356136cb81613690565b965060208801356136db81613690565b96999698505050506040850135946060810135946080820135945060a0820135935060c0909101359150565b600060608084018351855260208085015181870152604080860151848289015283815180865260809550858a019150848301925060005b81811015613791578351805184528681015187850152858101516001600160a01b0316868501528881015189850152878101518885015260a090810151908401529285019260c09092019160010161373e565b50909998505050505050505050565b600082825180855260208086019550808260051b84010181860160005b848110156137eb57601f198684030189526137d9838351613707565b988401989250908301906001016137bd565b5090979650505050505050565b60408152600061380b60408301856137a0565b90508260208301529392505050565b60008060006060848603121561382f57600080fd5b833561383a81613690565b95602085013595506040909401359392505050565b600081518084526020808501945080840160005b8381101561387f57815187529582019590820190600101613863565b509495945050505050565b80518252602081015160208301526000604082015160e060408501526138b360e085018261384f565b6060848101516001600160a01b0316908601526080808501519086015260a0848101519086015260c09384015193909401929092525090919050565b600081518084526020808501808196508360051b8101915082860160005b8581101561393757828403895261392584835161388a565b9885019893509084019060010161390d565b5091979650505050505050565b602081526000610cf960208301846138ef565b602081526000610cf96020830184613707565b600080600080600060a0868803121561398257600080fd5b853561398d81613690565b97602087013597506040870135966060810135965060800135945092505050565b60408152600061380b60408301856138ef565b600080604083850312156139d457600080fd5b82356139df81613690565b946020939093013593505050565b602081526000610cf9602083018461388a565b600060208284031215613a1257600080fd5b5035919050565b60008060008060808587031215613a2f57600080fd5b8435613a3a81613690565b966020860135965060408601359560600135945092505050565b602081526000610cf960208301846137a0565b602081526000610cf9602083018461384f565b60008060008060008060c08789031215613a9357600080fd5b8635613a9e81613690565b95506020870135613aae81613690565b95989597505050506040840135936060810135936080820135935060a0909101359150565b634e487b7160e01b600052601160045260246000fd5b80820180821115611e7757611e77613ad3565b634e487b7160e01b600052604160045260246000fd5b600060208284031215613b2457600080fd5b5051919050565b634e487b7160e01b600052603260045260246000fd5b600060208284031215613b5357600080fd5b815160058110610cf957600080fd5b634e487b7160e01b600052602160045260246000fd5b60405160c081016001600160401b0381118282101715613b9a57613b9a613afc565b60405290565b604051601f8201601f191681016001600160401b0381118282101715613bc857613bc8613afc565b604052919050565b60006001600160401b03821115613be957613be9613afc565b5060051b60200190565b60006020808385031215613c0657600080fd5b82516001600160401b03811115613c1c57600080fd5b8301601f81018513613c2d57600080fd5b8051613c40613c3b82613bd0565b613ba0565b81815260059190911b82018301908381019087831115613c5f57600080fd5b928401925b82841015613c7d57835182529284019290840190613c64565b979650505050505050565b600082601f830112613c9957600080fd5b81516020613ca9613c3b83613bd0565b82815260c09283028501820192828201919087851115613cc857600080fd5b8387015b858110156137eb5781818a031215613ce45760008081fd5b613cec613b78565b815181528582015186820152604080830151613d0781613690565b90820152606082810151908201526080808301519082015260a080830151908201528452928401928101613ccc565b600060208284031215613d4857600080fd5b81516001600160401b03811115613d5e57600080fd5b613d6a84828501613c88565b949350505050565b81810381811115611e7757611e77613ad3565b8082028115828204841417611e7757611e77613ad3565b600060018201613dae57613dae613ad3565b5060010190565b634e487b7160e01b600052601260045260246000fd5b600082613dda57613dda613db5565b500490565b6020808252602f908201527f7374617274496e646578206d75737420626520736d616c6c6572206f7220657160408201526e0eac2d840e8de40cadcc892dcc8caf608b1b606082015260800190565b60008060008060008060c08789031215613e4757600080fd5b86519550602087015194506040870151613e6081613690565b80945050606087015192506080870151915060a087015190509295509295509295565b600082613e9257613e92613db5565b500690565b600060208284031215613ea957600080fd5b81516001600160401b0380821115613ec057600080fd5b9083019060608286031215613ed457600080fd5b604051606081018181108382111715613eef57613eef613afc565b80604052508251815260208301516020820152604083015182811115613f1457600080fd5b613f2087828601613c88565b60408301525095945050505050565b604081526000835180604084015260005b81811015613f5d5760208187018101516060868401015201613f40565b506000606082850101526060601f19601f830116840101915050826020830152939250505056fea264697066735822122016d15bc89ed0d4a9f10463644bdf5cbbb1e53a9ff672785d190ffd323ccd370564736f6c63430008140033",
  "linkReferences": {},
  "deployedLinkReferences": {}
}