{
  "_format": "hh-sol-artifact-1",
  "contractName": "MarketGetter",
  "sourceName": "contracts/MarketGetter.sol",
  "abi": [
    {
      "inputs": [
        {
          "internalType": "contract Market",
          "name": "market",
          "type": "address"
        },
        {
          "internalType": "uint256",
          "name": "timestamp",
          "type": "uint256"
        },
        {
          "internalType": "uint256",
          "name": "pairPrice",
          "type": "uint256"
        },
        {
          "internalType": "uint256",
          "name": "acqPrice",
          "type": "uint256"
        }
      ],
      "name": "clcAmountToApprove",
      "outputs": [
        {
          "internalType": "uint256",
          "name": "cmpltAmnt",
          "type": "uint256"
        }
      ],
      "stateMutability": "view",
      "type": "function"
    },
    {
      "inputs": [
        {
          "internalType": "contract Market",
          "name": "market",
          "type": "address"
        },
        {
          "internalType": "uint256",
          "name": "timestamp",
          "type": "uint256"
        },
        {
          "internalType": "uint256",
          "name": "pairPrice",
          "type": "uint256"
        },
        {
          "internalType": "uint256",
          "name": "acqPrice",
          "type": "uint256"
        }
      ],
      "name": "clcAmountToApproveForUpdate",
      "outputs": [
        {
          "internalType": "uint256",
          "name": "amnt",
          "type": "uint256"
        }
      ],
      "stateMutability": "view",
      "type": "function"
    },
    {
      "inputs": [
        {
          "internalType": "contract Market",
          "name": "market",
          "type": "address"
        },
        {
          "internalType": "uint256",
          "name": "frameKey",
          "type": "uint256"
        }
      ],
      "name": "clcPrice",
      "outputs": [
        {
          "internalType": "uint256",
          "name": "avgPrice",
          "type": "uint256"
        }
      ],
      "stateMutability": "view",
      "type": "function"
    },
    {
      "inputs": [
        {
          "internalType": "contract Market",
          "name": "market",
          "type": "address"
        },
        {
          "internalType": "uint256",
          "name": "frameKey",
          "type": "uint256"
        }
      ],
      "name": "getFrameStruct",
      "outputs": [
        {
          "components": [
            {
              "internalType": "uint256",
              "name": "frameKey",
              "type": "uint256"
            },
            {
              "internalType": "uint256",
              "name": "oracleTimestampStart",
              "type": "uint256"
            },
            {
              "internalType": "uint256",
              "name": "oracleTimestampEnd",
              "type": "uint256"
            },
            {
              "internalType": "uint256",
              "name": "rewardFund",
              "type": "uint256"
            },
            {
              "internalType": "uint256",
              "name": "priceAverage",
              "type": "uint256"
            },
            {
              "internalType": "uint256",
              "name": "oraclePrice0CumulativeStart",
              "type": "uint256"
            },
            {
              "internalType": "uint256",
              "name": "oraclePrice0CumulativeEnd",
              "type": "uint256"
            },
            {
              "internalType": "uint256",
              "name": "oraclePrice1CumulativeStart",
              "type": "uint256"
            },
            {
              "internalType": "uint256",
              "name": "oraclePrice1CumulativeEnd",
              "type": "uint256"
            },
            {
              "internalType": "enum MLib.SFrame",
              "name": "state",
              "type": "uint8"
            },
            {
              "internalType": "uint256[]",
              "name": "lotKeys",
              "type": "uint256[]"
            }
          ],
          "internalType": "struct MLib.Frame",
          "name": "",
          "type": "tuple"
        }
      ],
      "stateMutability": "view",
      "type": "function"
    },
    {
      "inputs": [
        {
          "internalType": "contract Market",
          "name": "market",
          "type": "address"
        },
        {
          "internalType": "uint256",
          "name": "timestamp_start",
          "type": "uint256"
        },
        {
          "internalType": "uint256",
          "name": "timestamp_end",
          "type": "uint256"
        },
        {
          "internalType": "uint256",
          "name": "page",
          "type": "uint256"
        },
        {
          "internalType": "uint256",
          "name": "perPage",
          "type": "uint256"
        }
      ],
      "name": "getFrames",
      "outputs": [
        {
          "components": [
            {
              "internalType": "uint256",
              "name": "frameKey",
              "type": "uint256"
            },
            {
              "internalType": "uint256",
              "name": "oracleTimestampStart",
              "type": "uint256"
            },
            {
              "internalType": "uint256",
              "name": "oracleTimestampEnd",
              "type": "uint256"
            },
            {
              "internalType": "uint256",
              "name": "rewardFund",
              "type": "uint256"
            },
            {
              "internalType": "uint256",
              "name": "priceAverage",
              "type": "uint256"
            },
            {
              "internalType": "uint256",
              "name": "oraclePrice0CumulativeStart",
              "type": "uint256"
            },
            {
              "internalType": "uint256",
              "name": "oraclePrice0CumulativeEnd",
              "type": "uint256"
            },
            {
              "internalType": "uint256",
              "name": "oraclePrice1CumulativeStart",
              "type": "uint256"
            },
            {
              "internalType": "uint256",
              "name": "oraclePrice1CumulativeEnd",
              "type": "uint256"
            },
            {
              "internalType": "enum MLib.SFrame",
              "name": "state",
              "type": "uint8"
            },
            {
              "internalType": "uint256[]",
              "name": "lotKeys",
              "type": "uint256[]"
            }
          ],
          "internalType": "struct MLib.Frame[]",
          "name": "frames",
          "type": "tuple[]"
        },
        {
          "internalType": "uint256",
          "name": "pagesLeft",
          "type": "uint256"
        }
      ],
      "stateMutability": "view",
      "type": "function"
    },
    {
      "inputs": [
        {
          "internalType": "contract Market",
          "name": "market",
          "type": "address"
        },
        {
          "internalType": "uint256",
          "name": "frameKey",
          "type": "uint256"
        },
        {
          "internalType": "uint256",
          "name": "index",
          "type": "uint256"
        }
      ],
      "name": "getLotKey",
      "outputs": [
        {
          "internalType": "uint256",
          "name": "",
          "type": "uint256"
        }
      ],
      "stateMutability": "view",
      "type": "function"
    },
    {
      "inputs": [
        {
          "internalType": "contract Market",
          "name": "market",
          "type": "address"
        },
        {
          "internalType": "uint256",
          "name": "frameKey",
          "type": "uint256"
        },
        {
          "internalType": "uint256",
          "name": "lotKey",
          "type": "uint256"
        }
      ],
      "name": "getLotStruct",
      "outputs": [
        {
          "components": [
            {
              "internalType": "uint256",
              "name": "frameKey",
              "type": "uint256"
            },
            {
              "internalType": "uint256",
              "name": "lotKey",
              "type": "uint256"
            },
            {
              "internalType": "address",
              "name": "lotOwner",
              "type": "address"
            },
            {
              "internalType": "uint256",
              "name": "acquisitionPrice",
              "type": "uint256"
            },
            {
              "internalType": "enum MLib.SLot",
              "name": "state",
              "type": "uint8"
            }
          ],
          "internalType": "struct MLib.Lot",
          "name": "",
          "type": "tuple"
        }
      ],
      "stateMutability": "view",
      "type": "function"
    },
    {
      "inputs": [
        {
          "internalType": "contract Market",
          "name": "market",
          "type": "address"
        },
        {
          "internalType": "uint256",
          "name": "frameKey",
          "type": "uint256"
        }
      ],
      "name": "getLotsCount",
      "outputs": [
        {
          "internalType": "uint256",
          "name": "",
          "type": "uint256"
        }
      ],
      "stateMutability": "view",
      "type": "function"
    },
    {
      "inputs": [
        {
          "internalType": "contract Market",
          "name": "market",
          "type": "address"
        },
        {
          "internalType": "address",
          "name": "user",
          "type": "address"
        },
        {
          "internalType": "uint256",
          "name": "mode",
          "type": "uint256"
        },
        {
          "internalType": "uint256",
          "name": "timestamp_start",
          "type": "uint256"
        },
        {
          "internalType": "uint256",
          "name": "timestamp_end",
          "type": "uint256"
        },
        {
          "internalType": "uint256",
          "name": "page",
          "type": "uint256"
        },
        {
          "internalType": "uint256",
          "name": "perPage",
          "type": "uint256"
        }
      ],
      "name": "getLotsUser",
      "outputs": [
        {
          "components": [
            {
              "internalType": "uint256",
              "name": "frameKey",
              "type": "uint256"
            },
            {
              "internalType": "uint256",
              "name": "lotKey",
              "type": "uint256"
            },
            {
              "internalType": "address",
              "name": "lotOwner",
              "type": "address"
            },
            {
              "internalType": "uint256",
              "name": "acquisitionPrice",
              "type": "uint256"
            },
            {
              "internalType": "enum MLib.SLot",
              "name": "state",
              "type": "uint8"
            }
          ],
          "internalType": "struct MLib.Lot[]",
          "name": "userLots",
          "type": "tuple[]"
        },
        {
          "internalType": "uint256",
          "name": "pagesLeft",
          "type": "uint256"
        }
      ],
      "stateMutability": "view",
      "type": "function"
    },
    {
      "inputs": [
        {
          "internalType": "contract Market",
          "name": "market",
          "type": "address"
        },
        {
          "internalType": "address",
          "name": "user",
          "type": "address"
        }
      ],
      "name": "getNumOfUserFrames",
      "outputs": [
        {
          "internalType": "uint256",
          "name": "",
          "type": "uint256"
        }
      ],
      "stateMutability": "view",
      "type": "function"
    },
    {
      "inputs": [
        {
          "internalType": "contract Market",
          "name": "market",
          "type": "address"
        },
        {
          "internalType": "uint256",
          "name": "startFrame",
          "type": "uint256"
        },
        {
          "internalType": "uint256",
          "name": "numOfFrames",
          "type": "uint256"
        }
      ],
      "name": "getOpenFrameKeys",
      "outputs": [
        {
          "internalType": "uint256[]",
          "name": "openFrames",
          "type": "uint256[]"
        }
      ],
      "stateMutability": "view",
      "type": "function"
    },
    {
      "inputs": [
        {
          "internalType": "contract Market",
          "name": "market",
          "type": "address"
        },
        {
          "internalType": "address",
          "name": "user",
          "type": "address"
        }
      ],
      "name": "getUserFrames",
      "outputs": [
        {
          "internalType": "uint256[]",
          "name": "",
          "type": "uint256[]"
        }
      ],
      "stateMutability": "view",
      "type": "function"
    }
  ],
  "bytecode": "0x608060405234801561001057600080fd5b50613755806100206000396000f3fe608060405234801561001057600080fd5b50600436106100b45760003560e01c80639291178e116100715780639291178e146101db578063b90953be1461020b578063c1d013951461023b578063dbd20a881461026b578063de7325951461029b578063ee707ed9146102cb576100b4565b80631f021a61146100b95780632c79854f146100e95780634314b84f14610119578063612d8b501461014957806371b08d891461017a5780637f424a37146101ab575b600080fd5b6100d360048036038101906100ce9190612815565b6102fb565b6040516100e09190613171565b60405180910390f35b61010360048036038101906100fe919061292b565b610393565b60405161011091906131f0565b60405180910390f35b610133600480360381019061012e919061292b565b610471565b60405161014091906131d5565b60405180910390f35b610163600480360381019061015e91906129dd565b6105e0565b604051610171929190613111565b60405180910390f35b610194600480360381019061018f9190612851565b610875565b6040516101a2929190613141565b60405180910390f35b6101c560048036038101906101c091906128ef565b611536565b6040516101d291906131b3565b60405180910390f35b6101f560048036038101906101f091906128ef565b6118f9565b60405161020291906131f0565b60405180910390f35b61022560048036038101906102209190612815565b611997565b60405161023291906131f0565b60405180910390f35b6102556004803603810190610250919061297a565b611a35565b60405161026291906131f0565b60405180910390f35b6102856004803603810190610280919061292b565b611e07565b6040516102929190613171565b60405180910390f35b6102b560048036038101906102b0919061297a565b612011565b6040516102c291906131f0565b60405180910390f35b6102e560048036038101906102e091906128ef565b6122b3565b6040516102f291906131f0565b60405180910390f35b60608273ffffffffffffffffffffffffffffffffffffffff16639495833c836040518263ffffffff1660e01b815260040161033691906130f6565b60006040518083038186803b15801561034e57600080fd5b505afa158015610362573d6000803e3d6000fd5b505050506040513d6000823e3d601f19601f8201168201806040525081019061038b91906127ab565b905092915050565b6000808473ffffffffffffffffffffffffffffffffffffffff1663ab02f2a9856040518263ffffffff1660e01b81526004016103cf91906131f0565b60006040518083038186803b1580156103e757600080fd5b505afa1580156103fb573d6000803e3d6000fd5b505050506040513d6000823e3d601f19601f8201168201806040525081019061042491906127ab565b905080838151811061045f577f4e487b7100000000000000000000000000000000000000000000000000000000600052603260045260246000fd5b60200260200101519150509392505050565b61047961255e565b61048161255e565b8473ffffffffffffffffffffffffffffffffffffffff1663b93dafa985856040518363ffffffff1660e01b81526004016104bc92919061320b565b60a06040518083038186803b1580156104d457600080fd5b505afa1580156104e8573d6000803e3d6000fd5b505050506040513d601f19601f8201168201806040525081019061050c9190612aa6565b8560000186602001876040018860600189608001856002811115610559577f4e487b7100000000000000000000000000000000000000000000000000000000600052602160045260246000fd5b6002811115610591577f4e487b7100000000000000000000000000000000000000000000000000000000600052602160045260246000fd5b815250858152508573ffffffffffffffffffffffffffffffffffffffff1673ffffffffffffffffffffffffffffffffffffffff1681525085815250858152505050505050809150509392505050565b606060008267ffffffffffffffff811115610624577f4e487b7100000000000000000000000000000000000000000000000000000000600052604160045260246000fd5b60405190808252806020026020018201604052801561065d57816020015b61064a6125db565b8152602001906001900390816106425790505b509150600061066a6125db565b60008973ffffffffffffffffffffffffffffffffffffffff1663ef78d4fd6040518163ffffffff1660e01b815260040160206040518083038186803b1580156106b257600080fd5b505afa1580156106c6573d6000803e3d6000fd5b505050506040513d601f19601f820116820180604052508101906106ea9190612a7d565b90506000808a90505b898111610830576107048c82611536565b935060016002811115610740577f4e487b7100000000000000000000000000000000000000000000000000000000600052602160045260246000fd5b846101200151600281111561077e577f4e487b7100000000000000000000000000000000000000000000000000000000600052602160045260246000fd5b141561081d578760018a6107929190613433565b61079c91906133d9565b85101580156107b5575087896107b291906133d9565b85105b1561080e57838783815181106107f4577f4e487b7100000000000000000000000000000000000000000000000000000000600052603260045260246000fd5b6020026020010181905250818061080a9061353c565b9250505b84806108199061353c565b9550505b82816108299190613352565b90506106f3565b50868861083d91906133d9565b8411156108625787878561085191906133a8565b61085b9190613433565b9450610867565b600094505b505050509550959350505050565b606060006001836108869190613352565b67ffffffffffffffff8111156108c5577f4e487b7100000000000000000000000000000000000000000000000000000000600052604160045260246000fd5b6040519080825280602002602001820160405280156108fe57816020015b6108eb61255e565b8152602001906001900390816108e35790505b50915060006060808b73ffffffffffffffffffffffffffffffffffffffff1663ef78d4fd6040518163ffffffff1660e01b815260040160206040518083038186803b15801561094c57600080fd5b505afa158015610960573d6000803e3d6000fd5b505050506040513d601f19601f820116820180604052508101906109849190612a7d565b816002815181106109be577f4e487b7100000000000000000000000000000000000000000000000000000000600052603260045260246000fd5b60200260200101818152505060018a11610f175760008990505b888111610f15578c73ffffffffffffffffffffffffffffffffffffffff1663f109db84826040518263ffffffff1660e01b8152600401610a1891906131f0565b60206040518083038186803b158015610a3057600080fd5b505afa158015610a44573d6000803e3d6000fd5b505050506040513d601f19601f82011682018060405250810190610a689190612a54565b935060016002811115610aa4577f4e487b7100000000000000000000000000000000000000000000000000000000600052602160045260246000fd5b846002811115610add577f4e487b7100000000000000000000000000000000000000000000000000000000600052602160045260246000fd5b1415610ec1578c73ffffffffffffffffffffffffffffffffffffffff1663ab02f2a9826040518263ffffffff1660e01b8152600401610b1c91906131f0565b60006040518083038186803b158015610b3457600080fd5b505afa158015610b48573d6000803e3d6000fd5b505050506040513d6000823e3d601f19601f82011682018060405250810190610b7191906127ab565b925060005b8351811015610ebf57610bca8e83868481518110610bbd577f4e487b7100000000000000000000000000000000000000000000000000000000600052603260045260246000fd5b6020026020010151610471565b878981518110610c03577f4e487b7100000000000000000000000000000000000000000000000000000000600052603260045260246000fd5b60200260200101819052508c73ffffffffffffffffffffffffffffffffffffffff16878981518110610c5e577f4e487b7100000000000000000000000000000000000000000000000000000000600052603260045260246000fd5b60200260200101516040015173ffffffffffffffffffffffffffffffffffffffff161415610eac578760018a610c949190613433565b610c9e91906133d9565b83600081518110610cd8577f4e487b7100000000000000000000000000000000000000000000000000000000600052603260045260246000fd5b602002602001015110158015610d3957508789610cf591906133d9565b83600081518110610d2f577f4e487b7100000000000000000000000000000000000000000000000000000000600052603260045260246000fd5b6020026020010151105b15610e5857868881518110610d77577f4e487b7100000000000000000000000000000000000000000000000000000000600052603260045260246000fd5b60200260200101518784600181518110610dba577f4e487b7100000000000000000000000000000000000000000000000000000000600052603260045260246000fd5b602002602001015181518110610df9577f4e487b7100000000000000000000000000000000000000000000000000000000600052603260045260246000fd5b602002602001018190525082600181518110610e3e577f4e487b7100000000000000000000000000000000000000000000000000000000600052603260045260246000fd5b602002602001018051809190610e539061353c565b815250505b82600081518110610e92577f4e487b7100000000000000000000000000000000000000000000000000000000600052603260045260246000fd5b602002602001018051809190610ea79061353c565b815250505b8080610eb79061353c565b915050610b76565b505b81600281518110610efb577f4e487b7100000000000000000000000000000000000000000000000000000000600052603260045260246000fd5b602002602001015181610f0e9190613352565b90506109d8565b505b60028a1480610f26575060008a145b1561146f5760008990505b88811161146d578c73ffffffffffffffffffffffffffffffffffffffff1663f109db84826040518263ffffffff1660e01b8152600401610f7191906131f0565b60206040518083038186803b158015610f8957600080fd5b505afa158015610f9d573d6000803e3d6000fd5b505050506040513d601f19601f82011682018060405250810190610fc19190612a54565b9350600280811115610ffc577f4e487b7100000000000000000000000000000000000000000000000000000000600052602160045260246000fd5b846002811115611035577f4e487b7100000000000000000000000000000000000000000000000000000000600052602160045260246000fd5b1415611419578c73ffffffffffffffffffffffffffffffffffffffff1663ab02f2a9826040518263ffffffff1660e01b815260040161107491906131f0565b60006040518083038186803b15801561108c57600080fd5b505afa1580156110a0573d6000803e3d6000fd5b505050506040513d6000823e3d601f19601f820116820180604052508101906110c991906127ab565b925060005b8351811015611417576111228e83868481518110611115577f4e487b7100000000000000000000000000000000000000000000000000000000600052603260045260246000fd5b6020026020010151610471565b87898151811061115b577f4e487b7100000000000000000000000000000000000000000000000000000000600052603260045260246000fd5b60200260200101819052508c73ffffffffffffffffffffffffffffffffffffffff168789815181106111b6577f4e487b7100000000000000000000000000000000000000000000000000000000600052603260045260246000fd5b60200260200101516040015173ffffffffffffffffffffffffffffffffffffffff161415611404578760018a6111ec9190613433565b6111f691906133d9565b83600081518110611230577f4e487b7100000000000000000000000000000000000000000000000000000000600052603260045260246000fd5b6020026020010151101580156112915750878961124d91906133d9565b83600081518110611287577f4e487b7100000000000000000000000000000000000000000000000000000000600052603260045260246000fd5b6020026020010151105b156113b0578688815181106112cf577f4e487b7100000000000000000000000000000000000000000000000000000000600052603260045260246000fd5b60200260200101518784600181518110611312577f4e487b7100000000000000000000000000000000000000000000000000000000600052603260045260246000fd5b602002602001015181518110611351577f4e487b7100000000000000000000000000000000000000000000000000000000600052603260045260246000fd5b602002602001018190525082600181518110611396577f4e487b7100000000000000000000000000000000000000000000000000000000600052603260045260246000fd5b6020026020010180518091906113ab9061353c565b815250505b826000815181106113ea577f4e487b7100000000000000000000000000000000000000000000000000000000600052603260045260246000fd5b6020026020010180518091906113ff9061353c565b815250505b808061140f9061353c565b9150506110ce565b505b81600281518110611453577f4e487b7100000000000000000000000000000000000000000000000000000000600052603260045260246000fd5b6020026020010151816114669190613352565b9050610f31565b505b858761147b91906133d9565b816000815181106114b5577f4e487b7100000000000000000000000000000000000000000000000000000000600052603260045260246000fd5b60200260200101511115611522578686826000815181106114ff577f4e487b7100000000000000000000000000000000000000000000000000000000600052603260045260246000fd5b602002602001015161151191906133a8565b61151b9190613433565b9350611527565b600093505b50505097509795505050505050565b61153e6125db565b6115466125db565b60008473ffffffffffffffffffffffffffffffffffffffff1663a10340bc856040518263ffffffff1660e01b815260040161158191906131f0565b6101406040518083038186803b15801561159a57600080fd5b505afa1580156115ae573d6000803e3d6000fd5b505050506040513d601f19601f820116820180604052508101906115d29190612b1d565b8b6000018c6020018d6040018e6101200184600281111561161c577f4e487b7100000000000000000000000000000000000000000000000000000000600052602160045260246000fd5b6002811115611654577f4e487b7100000000000000000000000000000000000000000000000000000000600052602160045260246000fd5b815250849d50859d50869d50879d50889d50899d508a8152508a8152508a815250505050505050505050508473ffffffffffffffffffffffffffffffffffffffff1663a10340bc856040518263ffffffff1660e01b81526004016116b891906131f0565b6101406040518083038186803b1580156116d157600080fd5b505afa1580156116e5573d6000803e3d6000fd5b505050506040513d601f19601f820116820180604052508101906117099190612b1d565b8b6060018c6080018d60a0018e60c0018f61012001856002811115611757577f4e487b7100000000000000000000000000000000000000000000000000000000600052602160045260246000fd5b600281111561178f577f4e487b7100000000000000000000000000000000000000000000000000000000600052602160045260246000fd5b815250859e50869e5087815250878152508781525087815250879a50889a50899a50505050505050505050508473ffffffffffffffffffffffffffffffffffffffff1663a10340bc856040518263ffffffff1660e01b81526004016117f491906131f0565b6101406040518083038186803b15801561180d57600080fd5b505afa158015611821573d6000803e3d6000fd5b505050506040513d601f19601f820116820180604052508101906118459190612b1d565b8b60e0018c610100018d6101200183600281111561188c577f4e487b7100000000000000000000000000000000000000000000000000000000600052602160045260246000fd5b60028111156118c4577f4e487b7100000000000000000000000000000000000000000000000000000000600052602160045260246000fd5b8152508381525083815250839a50849a50859a50869a50879a50889a50899a5050505050505050505050819250505092915050565b6000808373ffffffffffffffffffffffffffffffffffffffff1663ab02f2a9846040518263ffffffff1660e01b815260040161193591906131f0565b60006040518083038186803b15801561194d57600080fd5b505afa158015611961573d6000803e3d6000fd5b505050506040513d6000823e3d601f19601f8201168201806040525081019061198a91906127ab565b9050805191505092915050565b6000808373ffffffffffffffffffffffffffffffffffffffff16639495833c846040518263ffffffff1660e01b81526004016119d391906130f6565b60006040518083038186803b1580156119eb57600080fd5b505afa1580156119ff573d6000803e3d6000fd5b505050506040513d6000823e3d601f19601f82011682018060405250810190611a2891906127ab565b9050805191505092915050565b6000808573ffffffffffffffffffffffffffffffffffffffff16635b3ad63e866040518263ffffffff1660e01b8152600401611a7191906131f0565b60206040518083038186803b158015611a8957600080fd5b505afa158015611a9d573d6000803e3d6000fd5b505050506040513d601f19601f82011682018060405250810190611ac19190612a7d565b90508573ffffffffffffffffffffffffffffffffffffffff16635b3ad63e426040518263ffffffff1660e01b8152600401611afc91906131f0565b60206040518083038186803b158015611b1457600080fd5b505afa158015611b28573d6000803e3d6000fd5b505050506040513d601f19601f82011682018060405250810190611b4c9190612a7d565b811015611b8e576040517f08c379a0000000000000000000000000000000000000000000000000000000008152600401611b8590613193565b60405180910390fd5b6000806000808973ffffffffffffffffffffffffffffffffffffffff1663b93dafa9868c73ffffffffffffffffffffffffffffffffffffffff16639592de188c6040518263ffffffff1660e01b8152600401611bea91906131f0565b60206040518083038186803b158015611c0257600080fd5b505afa158015611c16573d6000803e3d6000fd5b505050506040513d601f19601f82011682018060405250810190611c3a9190612a7d565b6040518363ffffffff1660e01b8152600401611c5792919061320b565b60a06040518083038186803b158015611c6f57600080fd5b505afa158015611c83573d6000803e3d6000fd5b505050506040513d601f19601f82011682018060405250810190611ca79190612aa6565b809750819550829650839850849850505050505060008a73ffffffffffffffffffffffffffffffffffffffff1663e107fb4f87846040518363ffffffff1660e01b8152600401611cf892919061320b565b60206040518083038186803b158015611d1057600080fd5b505afa158015611d24573d6000803e3d6000fd5b505050506040513d601f19601f82011682018060405250810190611d489190612a7d565b905060008b73ffffffffffffffffffffffffffffffffffffffff1663e107fb4f888b6040518363ffffffff1660e01b8152600401611d8792919061320b565b60206040518083038186803b158015611d9f57600080fd5b505afa158015611db3573d6000803e3d6000fd5b505050506040513d601f19601f82011682018060405250810190611dd79190612a7d565b9050808210611de95760009750611df8565b8181611df59190613433565b97505b50505050505050949350505050565b60608167ffffffffffffffff811115611e49577f4e487b7100000000000000000000000000000000000000000000000000000000600052604160045260246000fd5b604051908082528060200260200182016040528015611e775781602001602082028036833780820191505090505b509050611e826125db565b60005b838111612008576000818773ffffffffffffffffffffffffffffffffffffffff1663ef78d4fd6040518163ffffffff1660e01b815260040160206040518083038186803b158015611ed557600080fd5b505afa158015611ee9573d6000803e3d6000fd5b505050506040513d601f19601f82011682018060405250810190611f0d9190612a7d565b611f1791906133d9565b86611f229190613352565b9050611f2e8782611536565b925060006002811115611f6a577f4e487b7100000000000000000000000000000000000000000000000000000000600052602160045260246000fd5b8361012001516002811115611fa8577f4e487b7100000000000000000000000000000000000000000000000000000000600052602160045260246000fd5b14611ff45780848381518110611fe7577f4e487b7100000000000000000000000000000000000000000000000000000000600052603260045260246000fd5b6020026020010181815250505b5080806120009061353c565b915050611e85565b50509392505050565b6000808573ffffffffffffffffffffffffffffffffffffffff16635b3ad63e866040518263ffffffff1660e01b815260040161204d91906131f0565b60206040518083038186803b15801561206557600080fd5b505afa158015612079573d6000803e3d6000fd5b505050506040513d601f19601f8201168201806040525081019061209d9190612a7d565b90508573ffffffffffffffffffffffffffffffffffffffff16635b3ad63e426040518263ffffffff1660e01b81526004016120d891906131f0565b60206040518083038186803b1580156120f057600080fd5b505afa158015612104573d6000803e3d6000fd5b505050506040513d601f19601f820116820180604052508101906121289190612a7d565b81101561216a576040517f08c379a000000000000000000000000000000000000000000000000000000000815260040161216190613193565b60405180910390fd5b60008673ffffffffffffffffffffffffffffffffffffffff16639592de18866040518263ffffffff1660e01b81526004016121a591906131f0565b60206040518083038186803b1580156121bd57600080fd5b505afa1580156121d1573d6000803e3d6000fd5b505050506040513d601f19601f820116820180604052508101906121f59190612a7d565b905060008773ffffffffffffffffffffffffffffffffffffffff1663e107fb4f84876040518363ffffffff1660e01b815260040161223492919061320b565b60206040518083038186803b15801561224c57600080fd5b505afa158015612260573d6000803e3d6000fd5b505050506040513d601f19601f820116820180604052508101906122849190612a7d565b90506000612293898585610471565b90508181606001516122a59190613352565b945050505050949350505050565b60008273ffffffffffffffffffffffffffffffffffffffff1663652c8ded836040518263ffffffff1660e01b81526004016122ee91906131f0565b60006040518083038186803b15801561230657600080fd5b505afa15801561231a573d6000803e3d6000fd5b50505050600061232a8484611536565b90506000816020015182604001516123429190613433565b90508473ffffffffffffffffffffffffffffffffffffffff16638f9eca826040518163ffffffff1660e01b815260040160206040518083038186803b15801561238a57600080fd5b505afa15801561239e573d6000803e3d6000fd5b505050506040513d601f19601f820116820180604052508101906123c291906127ec565b156124315761241a6040518060200160405280838560a001518660c001516123ea9190613433565b6123f491906133a8565b7bffffffffffffffffffffffffffffffffffffffffffffffffffffffff1681525061252b565b6dffffffffffffffffffffffffffff169250612498565b6124856040518060200160405280838560e001518661010001516124559190613433565b61245f91906133a8565b7bffffffffffffffffffffffffffffffffffffffffffffffffffffffff1681525061252b565b6dffffffffffffffffffffffffffff1692505b8473ffffffffffffffffffffffffffffffffffffffff1663f45e65d86040518163ffffffff1660e01b815260040160206040518083038186803b1580156124de57600080fd5b505afa1580156124f2573d6000803e3d6000fd5b505050506040513d601f19601f820116820180604052508101906125169190612a7d565b8361252191906133d9565b9250505092915050565b6000607060ff1682600001517bffffffffffffffffffffffffffffffffffffffffffffffffffffffff16901c9050919050565b6040518060a001604052806000815260200160008152602001600073ffffffffffffffffffffffffffffffffffffffff16815260200160008152602001600060028111156125d5577f4e487b7100000000000000000000000000000000000000000000000000000000600052602160045260246000fd5b81525090565b60405180610160016040528060008152602001600081526020016000815260200160008152602001600081526020016000815260200160008152602001600081526020016000815260200160006002811115612660577f4e487b7100000000000000000000000000000000000000000000000000000000600052602160045260246000fd5b8152602001606081525090565b600061268061267b84613259565b613234565b9050808382526020820190508285602086028201111561269f57600080fd5b60005b858110156126cf57816126b58882612796565b8452602084019350602083019250506001810190506126a2565b5050509392505050565b6000813590506126e8816136a3565b92915050565b6000815190506126fd816136a3565b92915050565b600082601f83011261271457600080fd5b815161272484826020860161266d565b91505092915050565b60008151905061273c816136ba565b92915050565b600081359050612751816136d1565b92915050565b600081519050612766816136e8565b92915050565b60008151905061277b816136f8565b92915050565b60008135905061279081613708565b92915050565b6000815190506127a581613708565b92915050565b6000602082840312156127bd57600080fd5b600082015167ffffffffffffffff8111156127d757600080fd5b6127e384828501612703565b91505092915050565b6000602082840312156127fe57600080fd5b600061280c8482850161272d565b91505092915050565b6000806040838503121561282857600080fd5b600061283685828601612742565b9250506020612847858286016126d9565b9150509250929050565b600080600080600080600060e0888a03121561286c57600080fd5b600061287a8a828b01612742565b975050602061288b8a828b016126d9565b965050604061289c8a828b01612781565b95505060606128ad8a828b01612781565b94505060806128be8a828b01612781565b93505060a06128cf8a828b01612781565b92505060c06128e08a828b01612781565b91505092959891949750929550565b6000806040838503121561290257600080fd5b600061291085828601612742565b925050602061292185828601612781565b9150509250929050565b60008060006060848603121561294057600080fd5b600061294e86828701612742565b935050602061295f86828701612781565b925050604061297086828701612781565b9150509250925092565b6000806000806080858703121561299057600080fd5b600061299e87828801612742565b94505060206129af87828801612781565b93505060406129c087828801612781565b92505060606129d187828801612781565b91505092959194509250565b600080600080600060a086880312156129f557600080fd5b6000612a0388828901612742565b9550506020612a1488828901612781565b9450506040612a2588828901612781565b9350506060612a3688828901612781565b9250506080612a4788828901612781565b9150509295509295909350565b600060208284031215612a6657600080fd5b6000612a7484828501612757565b91505092915050565b600060208284031215612a8f57600080fd5b6000612a9d84828501612796565b91505092915050565b600080600080600060a08688031215612abe57600080fd5b6000612acc88828901612796565b9550506020612add88828901612796565b9450506040612aee888289016126ee565b9350506060612aff88828901612796565b9250506080612b108882890161276c565b9150509295509295909350565b6000806000806000806000806000806101408b8d031215612b3d57600080fd5b6000612b4b8d828e01612796565b9a50506020612b5c8d828e01612796565b9950506040612b6d8d828e01612796565b9850506060612b7e8d828e01612796565b9750506080612b8f8d828e01612796565b96505060a0612ba08d828e01612796565b95505060c0612bb18d828e01612796565b94505060e0612bc28d828e01612796565b935050610100612bd48d828e01612796565b925050610120612be68d828e01612757565b9150509295989b9194979a5092959850565b6000612c048383612e2a565b905092915050565b6000612c188383613008565b60a08301905092915050565b6000612c3083836130d8565b60208301905092915050565b612c4581613467565b82525050565b612c5481613467565b82525050565b6000612c65826132b5565b612c6f81856132fd565b935083602082028501612c8185613285565b8060005b85811015612cbd5784840389528151612c9e8582612bf8565b9450612ca9836132d6565b925060208a01995050600181019050612c85565b50829750879550505050505092915050565b6000612cda826132c0565b612ce4818561330e565b9350612cef83613295565b8060005b83811015612d20578151612d078882612c0c565b9750612d12836132e3565b925050600181019050612cf3565b5085935050505092915050565b6000612d38826132cb565b612d42818561331f565b9350612d4d836132a5565b8060005b83811015612d7e578151612d658882612c24565b9750612d70836132f0565b925050600181019050612d51565b5085935050505092915050565b6000612d96826132cb565b612da08185613330565b9350612dab836132a5565b8060005b83811015612ddc578151612dc38882612c24565b9750612dce836132f0565b925050600181019050612daf565b5085935050505092915050565b612df2816134e7565b82525050565b612e01816134f9565b82525050565b6000612e14601b83613341565b9150612e1f82613652565b602082019050919050565b600061016083016000830151612e4360008601826130d8565b506020830151612e5660208601826130d8565b506040830151612e6960408601826130d8565b506060830151612e7c60608601826130d8565b506080830151612e8f60808601826130d8565b5060a0830151612ea260a08601826130d8565b5060c0830151612eb560c08601826130d8565b5060e0830151612ec860e08601826130d8565b50610100830151612edd6101008601826130d8565b50610120830151612ef2610120860182612de9565b50610140830151848203610140860152612f0c8282612d2d565b9150508091505092915050565b600061016083016000830151612f3260008601826130d8565b506020830151612f4560208601826130d8565b506040830151612f5860408601826130d8565b506060830151612f6b60608601826130d8565b506080830151612f7e60808601826130d8565b5060a0830151612f9160a08601826130d8565b5060c0830151612fa460c08601826130d8565b5060e0830151612fb760e08601826130d8565b50610100830151612fcc6101008601826130d8565b50610120830151612fe1610120860182612de9565b50610140830151848203610140860152612ffb8282612d2d565b9150508091505092915050565b60a08201600082015161301e60008501826130d8565b50602082015161303160208501826130d8565b5060408201516130446040850182612c3c565b50606082015161305760608501826130d8565b50608082015161306a6080850182612df8565b50505050565b60a08201600082015161308660008501826130d8565b50602082015161309960208501826130d8565b5060408201516130ac6040850182612c3c565b5060608201516130bf60608501826130d8565b5060808201516130d26080850182612df8565b50505050565b6130e1816134dd565b82525050565b6130f0816134dd565b82525050565b600060208201905061310b6000830184612c4b565b92915050565b6000604082019050818103600083015261312b8185612c5a565b905061313a60208301846130e7565b9392505050565b6000604082019050818103600083015261315b8185612ccf565b905061316a60208301846130e7565b9392505050565b6000602082019050818103600083015261318b8184612d8b565b905092915050565b600060208201905081810360008301526131ac81612e07565b9050919050565b600060208201905081810360008301526131cd8184612f19565b905092915050565b600060a0820190506131ea6000830184613070565b92915050565b600060208201905061320560008301846130e7565b92915050565b600060408201905061322060008301856130e7565b61322d60208301846130e7565b9392505050565b600061323e61324f565b905061324a828261350b565b919050565b6000604051905090565b600067ffffffffffffffff82111561327457613273613612565b5b602082029050602081019050919050565b6000819050602082019050919050565b6000819050602082019050919050565b6000819050602082019050919050565b600081519050919050565b600081519050919050565b600081519050919050565b6000602082019050919050565b6000602082019050919050565b6000602082019050919050565b600082825260208201905092915050565b600082825260208201905092915050565b600082825260208201905092915050565b600082825260208201905092915050565b600082825260208201905092915050565b600061335d826134dd565b9150613368836134dd565b9250827fffffffffffffffffffffffffffffffffffffffffffffffffffffffffffffffff0382111561339d5761339c613585565b5b828201905092915050565b60006133b3826134dd565b91506133be836134dd565b9250826133ce576133cd6135b4565b5b828204905092915050565b60006133e4826134dd565b91506133ef836134dd565b9250817fffffffffffffffffffffffffffffffffffffffffffffffffffffffffffffffff048311821515161561342857613427613585565b5b828202905092915050565b600061343e826134dd565b9150613449836134dd565b92508282101561345c5761345b613585565b5b828203905092915050565b6000613472826134bd565b9050919050565b60008115159050919050565b600061349082613467565b9050919050565b60008190506134a58261367b565b919050565b60008190506134b88261368f565b919050565b600073ffffffffffffffffffffffffffffffffffffffff82169050919050565b6000819050919050565b60006134f282613497565b9050919050565b6000613504826134aa565b9050919050565b61351482613641565b810181811067ffffffffffffffff8211171561353357613532613612565b5b80604052505050565b6000613547826134dd565b91507fffffffffffffffffffffffffffffffffffffffffffffffffffffffffffffffff82141561357a57613579613585565b5b600182019050919050565b7f4e487b7100000000000000000000000000000000000000000000000000000000600052601160045260246000fd5b7f4e487b7100000000000000000000000000000000000000000000000000000000600052601260045260246000fd5b7f4e487b7100000000000000000000000000000000000000000000000000000000600052602160045260246000fd5b7f4e487b7100000000000000000000000000000000000000000000000000000000600052604160045260246000fd5b6000601f19601f8301169050919050565b7f54484953204c4f5420495320494e20412050415354204652414d450000000000600082015250565b6003811061368c5761368b6135e3565b5b50565b600381106136a05761369f6135e3565b5b50565b6136ac81613467565b81146136b757600080fd5b50565b6136c381613479565b81146136ce57600080fd5b50565b6136da81613485565b81146136e557600080fd5b50565b600381106136f557600080fd5b50565b6003811061370557600080fd5b50565b613711816134dd565b811461371c57600080fd5b5056fea26469706673582212205a8ef33195033f3a85bb8099598ba5214abafbc83304804936c43eebaf75f2ed64736f6c63430008040033",
  "linkReferences": {},
  "deployedLinkReferences": {}
}