{
  "_format": "hh-sol-artifact-1",
  "contractName": "MarketGetter",
  "sourceName": "contracts/MarketGetter.sol",
  "abi": [
    {
      "inputs": [
        {
          "internalType": "contract Market",
          "name": "market",
          "type": "address"
        },
        {
          "internalType": "uint256",
          "name": "targetFrameKey",
          "type": "uint256"
        }
      ],
      "name": "calculateMinimalReward",
      "outputs": [
        {
          "internalType": "uint256",
          "name": "",
          "type": "uint256"
        }
      ],
      "stateMutability": "view",
      "type": "function"
    },
    {
      "inputs": [
        {
          "internalType": "contract Market",
          "name": "market",
          "type": "address"
        },
        {
          "internalType": "uint256",
          "name": "timestamp",
          "type": "uint256"
        },
        {
          "internalType": "uint256",
          "name": "pairPrice",
          "type": "uint256"
        },
        {
          "internalType": "uint256",
          "name": "acqPrice",
          "type": "uint256"
        }
      ],
      "name": "clcAmountToApprove",
      "outputs": [
        {
          "internalType": "uint256",
          "name": "approvalAmnt",
          "type": "uint256"
        }
      ],
      "stateMutability": "view",
      "type": "function"
    },
    {
      "inputs": [
        {
          "internalType": "contract Market",
          "name": "market",
          "type": "address"
        },
        {
          "internalType": "uint256",
          "name": "timestamp",
          "type": "uint256"
        },
        {
          "internalType": "uint256",
          "name": "pairPrice",
          "type": "uint256"
        },
        {
          "internalType": "uint256",
          "name": "acqPrice",
          "type": "uint256"
        }
      ],
      "name": "clcAmountToApproveForUpdate",
      "outputs": [
        {
          "internalType": "uint256",
          "name": "amnt",
          "type": "uint256"
        }
      ],
      "stateMutability": "view",
      "type": "function"
    },
    {
      "inputs": [
        {
          "internalType": "contract Market",
          "name": "market",
          "type": "address"
        },
        {
          "internalType": "uint256",
          "name": "frameKey",
          "type": "uint256"
        }
      ],
      "name": "getFrameStruct",
      "outputs": [
        {
          "components": [
            {
              "internalType": "uint256",
              "name": "frameKey",
              "type": "uint256"
            },
            {
              "internalType": "uint256",
              "name": "rate",
              "type": "uint256"
            },
            {
              "internalType": "uint256[]",
              "name": "lotKeys",
              "type": "uint256[]"
            },
            {
              "internalType": "address",
              "name": "claimedBy",
              "type": "address"
            },
            {
              "internalType": "uint256",
              "name": "rateSettle",
              "type": "uint256"
            },
            {
              "internalType": "uint256",
              "name": "feeSettle",
              "type": "uint256"
            },
            {
              "internalType": "uint256",
              "name": "rewardSettle",
              "type": "uint256"
            },
            {
              "internalType": "uint256",
              "name": "rewardPool",
              "type": "uint256"
            }
          ],
          "internalType": "struct Market.Frame",
          "name": "",
          "type": "tuple"
        }
      ],
      "stateMutability": "view",
      "type": "function"
    },
    {
      "inputs": [
        {
          "internalType": "contract Market",
          "name": "market",
          "type": "address"
        },
        {
          "internalType": "uint256",
          "name": "frameKey_start",
          "type": "uint256"
        },
        {
          "internalType": "uint256",
          "name": "frameKey_end",
          "type": "uint256"
        },
        {
          "internalType": "uint256",
          "name": "page",
          "type": "uint256"
        },
        {
          "internalType": "uint256",
          "name": "perPage",
          "type": "uint256"
        }
      ],
      "name": "getFrames",
      "outputs": [
        {
          "components": [
            {
              "internalType": "uint256",
              "name": "frameKey",
              "type": "uint256"
            },
            {
              "internalType": "uint256",
              "name": "rate",
              "type": "uint256"
            },
            {
              "internalType": "uint256[]",
              "name": "lotKeys",
              "type": "uint256[]"
            },
            {
              "internalType": "address",
              "name": "claimedBy",
              "type": "address"
            },
            {
              "internalType": "uint256",
              "name": "rateSettle",
              "type": "uint256"
            },
            {
              "internalType": "uint256",
              "name": "feeSettle",
              "type": "uint256"
            },
            {
              "internalType": "uint256",
              "name": "rewardSettle",
              "type": "uint256"
            },
            {
              "internalType": "uint256",
              "name": "rewardPool",
              "type": "uint256"
            }
          ],
          "internalType": "struct Market.Frame[]",
          "name": "frames",
          "type": "tuple[]"
        },
        {
          "internalType": "uint256",
          "name": "pagesLeft",
          "type": "uint256"
        }
      ],
      "stateMutability": "view",
      "type": "function"
    },
    {
      "inputs": [
        {
          "internalType": "contract Market",
          "name": "market",
          "type": "address"
        },
        {
          "internalType": "uint256",
          "name": "startIndex",
          "type": "uint256"
        },
        {
          "internalType": "uint256",
          "name": "endIndex",
          "type": "uint256"
        }
      ],
      "name": "getFramesByIndex",
      "outputs": [
        {
          "components": [
            {
              "internalType": "uint256",
              "name": "frameKey",
              "type": "uint256"
            },
            {
              "internalType": "uint256",
              "name": "rate",
              "type": "uint256"
            },
            {
              "internalType": "uint256[]",
              "name": "lotKeys",
              "type": "uint256[]"
            },
            {
              "internalType": "address",
              "name": "claimedBy",
              "type": "address"
            },
            {
              "internalType": "uint256",
              "name": "rateSettle",
              "type": "uint256"
            },
            {
              "internalType": "uint256",
              "name": "feeSettle",
              "type": "uint256"
            },
            {
              "internalType": "uint256",
              "name": "rewardSettle",
              "type": "uint256"
            },
            {
              "internalType": "uint256",
              "name": "rewardPool",
              "type": "uint256"
            }
          ],
          "internalType": "struct Market.Frame[]",
          "name": "frames",
          "type": "tuple[]"
        }
      ],
      "stateMutability": "view",
      "type": "function"
    },
    {
      "inputs": [
        {
          "internalType": "contract Market",
          "name": "market",
          "type": "address"
        },
        {
          "internalType": "address",
          "name": "user",
          "type": "address"
        },
        {
          "internalType": "uint256",
          "name": "frameKey_start",
          "type": "uint256"
        },
        {
          "internalType": "uint256",
          "name": "frameKey_end",
          "type": "uint256"
        },
        {
          "internalType": "uint256",
          "name": "page",
          "type": "uint256"
        },
        {
          "internalType": "uint256",
          "name": "perPage",
          "type": "uint256"
        }
      ],
      "name": "getFramesUser",
      "outputs": [
        {
          "components": [
            {
              "internalType": "uint256",
              "name": "frameKey",
              "type": "uint256"
            },
            {
              "internalType": "uint256",
              "name": "rate",
              "type": "uint256"
            },
            {
              "internalType": "uint256[]",
              "name": "lotKeys",
              "type": "uint256[]"
            },
            {
              "internalType": "address",
              "name": "claimedBy",
              "type": "address"
            },
            {
              "internalType": "uint256",
              "name": "rateSettle",
              "type": "uint256"
            },
            {
              "internalType": "uint256",
              "name": "feeSettle",
              "type": "uint256"
            },
            {
              "internalType": "uint256",
              "name": "rewardSettle",
              "type": "uint256"
            },
            {
              "internalType": "uint256",
              "name": "rewardPool",
              "type": "uint256"
            }
          ],
          "internalType": "struct Market.Frame[]",
          "name": "userFrames",
          "type": "tuple[]"
        },
        {
          "internalType": "uint256",
          "name": "pagesLeft",
          "type": "uint256"
        }
      ],
      "stateMutability": "view",
      "type": "function"
    },
    {
      "inputs": [
        {
          "internalType": "contract Market",
          "name": "market",
          "type": "address"
        },
        {
          "internalType": "uint256",
          "name": "frameKey",
          "type": "uint256"
        },
        {
          "internalType": "uint256",
          "name": "index",
          "type": "uint256"
        }
      ],
      "name": "getLotKey",
      "outputs": [
        {
          "internalType": "uint256",
          "name": "",
          "type": "uint256"
        }
      ],
      "stateMutability": "view",
      "type": "function"
    },
    {
      "inputs": [
        {
          "internalType": "contract Market",
          "name": "market",
          "type": "address"
        },
        {
          "internalType": "uint256",
          "name": "frameKey",
          "type": "uint256"
        },
        {
          "internalType": "uint256",
          "name": "lotKey",
          "type": "uint256"
        }
      ],
      "name": "getLotStruct",
      "outputs": [
        {
          "components": [
            {
              "internalType": "uint256",
              "name": "frameKey",
              "type": "uint256"
            },
            {
              "internalType": "uint256",
              "name": "lotKey",
              "type": "uint256"
            },
            {
              "components": [
                {
                  "internalType": "uint256",
                  "name": "blockNumber",
                  "type": "uint256"
                },
                {
                  "internalType": "uint256",
                  "name": "blockTimestamp",
                  "type": "uint256"
                },
                {
                  "internalType": "address",
                  "name": "owner",
                  "type": "address"
                },
                {
                  "internalType": "uint256",
                  "name": "acquisitionPrice",
                  "type": "uint256"
                },
                {
                  "internalType": "uint256",
                  "name": "taxCharged",
                  "type": "uint256"
                }
              ],
              "internalType": "struct Market.LotState[]",
              "name": "states",
              "type": "tuple[]"
            }
          ],
          "internalType": "struct Market.Lot",
          "name": "",
          "type": "tuple"
        }
      ],
      "stateMutability": "view",
      "type": "function"
    },
    {
      "inputs": [
        {
          "internalType": "contract Market",
          "name": "market",
          "type": "address"
        },
        {
          "internalType": "uint256",
          "name": "frameKey_start",
          "type": "uint256"
        },
        {
          "internalType": "uint256",
          "name": "frameKey_end",
          "type": "uint256"
        },
        {
          "internalType": "uint256",
          "name": "page",
          "type": "uint256"
        },
        {
          "internalType": "uint256",
          "name": "perPage",
          "type": "uint256"
        }
      ],
      "name": "getLots",
      "outputs": [
        {
          "components": [
            {
              "internalType": "uint256",
              "name": "frameKey",
              "type": "uint256"
            },
            {
              "internalType": "uint256",
              "name": "lotKey",
              "type": "uint256"
            },
            {
              "components": [
                {
                  "internalType": "uint256",
                  "name": "blockNumber",
                  "type": "uint256"
                },
                {
                  "internalType": "uint256",
                  "name": "blockTimestamp",
                  "type": "uint256"
                },
                {
                  "internalType": "address",
                  "name": "owner",
                  "type": "address"
                },
                {
                  "internalType": "uint256",
                  "name": "acquisitionPrice",
                  "type": "uint256"
                },
                {
                  "internalType": "uint256",
                  "name": "taxCharged",
                  "type": "uint256"
                }
              ],
              "internalType": "struct Market.LotState[]",
              "name": "states",
              "type": "tuple[]"
            }
          ],
          "internalType": "struct Market.Lot[]",
          "name": "lots",
          "type": "tuple[]"
        },
        {
          "internalType": "uint256",
          "name": "pagesLeft",
          "type": "uint256"
        }
      ],
      "stateMutability": "view",
      "type": "function"
    },
    {
      "inputs": [
        {
          "internalType": "contract Market",
          "name": "market",
          "type": "address"
        },
        {
          "internalType": "uint256",
          "name": "startIndex",
          "type": "uint256"
        },
        {
          "internalType": "uint256",
          "name": "endIndex",
          "type": "uint256"
        }
      ],
      "name": "getLotsByIndex",
      "outputs": [
        {
          "components": [
            {
              "internalType": "uint256",
              "name": "frameKey",
              "type": "uint256"
            },
            {
              "internalType": "uint256",
              "name": "lotKey",
              "type": "uint256"
            },
            {
              "components": [
                {
                  "internalType": "uint256",
                  "name": "blockNumber",
                  "type": "uint256"
                },
                {
                  "internalType": "uint256",
                  "name": "blockTimestamp",
                  "type": "uint256"
                },
                {
                  "internalType": "address",
                  "name": "owner",
                  "type": "address"
                },
                {
                  "internalType": "uint256",
                  "name": "acquisitionPrice",
                  "type": "uint256"
                },
                {
                  "internalType": "uint256",
                  "name": "taxCharged",
                  "type": "uint256"
                }
              ],
              "internalType": "struct Market.LotState[]",
              "name": "states",
              "type": "tuple[]"
            }
          ],
          "internalType": "struct Market.Lot[]",
          "name": "lots",
          "type": "tuple[]"
        }
      ],
      "stateMutability": "view",
      "type": "function"
    },
    {
      "inputs": [
        {
          "internalType": "contract Market",
          "name": "market",
          "type": "address"
        },
        {
          "internalType": "uint256",
          "name": "frameKey",
          "type": "uint256"
        }
      ],
      "name": "getLotsCount",
      "outputs": [
        {
          "internalType": "uint256",
          "name": "",
          "type": "uint256"
        }
      ],
      "stateMutability": "view",
      "type": "function"
    },
    {
      "inputs": [
        {
          "internalType": "contract Market",
          "name": "market",
          "type": "address"
        },
        {
          "internalType": "address",
          "name": "user",
          "type": "address"
        },
        {
          "internalType": "uint256",
          "name": "mode",
          "type": "uint256"
        },
        {
          "internalType": "uint256",
          "name": "frameKey_start",
          "type": "uint256"
        },
        {
          "internalType": "uint256",
          "name": "frameKey_end",
          "type": "uint256"
        },
        {
          "internalType": "uint256",
          "name": "page",
          "type": "uint256"
        },
        {
          "internalType": "uint256",
          "name": "perPage",
          "type": "uint256"
        }
      ],
      "name": "getLotsSoldUser",
      "outputs": [
        {
          "components": [
            {
              "internalType": "uint256",
              "name": "frameKey",
              "type": "uint256"
            },
            {
              "internalType": "uint256",
              "name": "lotKey",
              "type": "uint256"
            },
            {
              "components": [
                {
                  "internalType": "uint256",
                  "name": "blockNumber",
                  "type": "uint256"
                },
                {
                  "internalType": "uint256",
                  "name": "blockTimestamp",
                  "type": "uint256"
                },
                {
                  "internalType": "address",
                  "name": "owner",
                  "type": "address"
                },
                {
                  "internalType": "uint256",
                  "name": "acquisitionPrice",
                  "type": "uint256"
                },
                {
                  "internalType": "uint256",
                  "name": "taxCharged",
                  "type": "uint256"
                }
              ],
              "internalType": "struct Market.LotState[]",
              "name": "states",
              "type": "tuple[]"
            }
          ],
          "internalType": "struct Market.Lot[]",
          "name": "userLots",
          "type": "tuple[]"
        },
        {
          "internalType": "uint256",
          "name": "pagesLeft",
          "type": "uint256"
        }
      ],
      "stateMutability": "view",
      "type": "function"
    },
    {
      "inputs": [
        {
          "internalType": "contract Market",
          "name": "market",
          "type": "address"
        },
        {
          "internalType": "address",
          "name": "user",
          "type": "address"
        },
        {
          "internalType": "uint256",
          "name": "mode",
          "type": "uint256"
        },
        {
          "internalType": "uint256",
          "name": "frameKey_start",
          "type": "uint256"
        },
        {
          "internalType": "uint256",
          "name": "frameKey_end",
          "type": "uint256"
        },
        {
          "internalType": "uint256",
          "name": "page",
          "type": "uint256"
        },
        {
          "internalType": "uint256",
          "name": "perPage",
          "type": "uint256"
        }
      ],
      "name": "getLotsUser",
      "outputs": [
        {
          "components": [
            {
              "internalType": "uint256",
              "name": "frameKey",
              "type": "uint256"
            },
            {
              "internalType": "uint256",
              "name": "lotKey",
              "type": "uint256"
            },
            {
              "components": [
                {
                  "internalType": "uint256",
                  "name": "blockNumber",
                  "type": "uint256"
                },
                {
                  "internalType": "uint256",
                  "name": "blockTimestamp",
                  "type": "uint256"
                },
                {
                  "internalType": "address",
                  "name": "owner",
                  "type": "address"
                },
                {
                  "internalType": "uint256",
                  "name": "acquisitionPrice",
                  "type": "uint256"
                },
                {
                  "internalType": "uint256",
                  "name": "taxCharged",
                  "type": "uint256"
                }
              ],
              "internalType": "struct Market.LotState[]",
              "name": "states",
              "type": "tuple[]"
            }
          ],
          "internalType": "struct Market.Lot[]",
          "name": "userLots",
          "type": "tuple[]"
        },
        {
          "internalType": "uint256",
          "name": "pagesLeft",
          "type": "uint256"
        }
      ],
      "stateMutability": "view",
      "type": "function"
    },
    {
      "inputs": [
        {
          "internalType": "contract Market",
          "name": "market",
          "type": "address"
        },
        {
          "internalType": "uint256",
          "name": "startFrame",
          "type": "uint256"
        },
        {
          "internalType": "uint256",
          "name": "numOfFrames",
          "type": "uint256"
        }
      ],
      "name": "getOpenFrameKeys",
      "outputs": [
        {
          "internalType": "uint256[]",
          "name": "openFrames",
          "type": "uint256[]"
        }
      ],
      "stateMutability": "view",
      "type": "function"
    },
    {
      "inputs": [
        {
          "internalType": "contract Market",
          "name": "market",
          "type": "address"
        },
        {
          "internalType": "uint256",
          "name": "frameKey",
          "type": "uint256"
        }
      ],
      "name": "getRewardAmountMin",
      "outputs": [
        {
          "internalType": "uint256",
          "name": "rewardFund",
          "type": "uint256"
        }
      ],
      "stateMutability": "view",
      "type": "function"
    },
    {
      "inputs": [
        {
          "internalType": "uint256",
          "name": "concatenated",
          "type": "uint256"
        }
      ],
      "name": "splitLotsArrayElement",
      "outputs": [
        {
          "internalType": "uint256",
          "name": "frameKey",
          "type": "uint256"
        },
        {
          "internalType": "uint256",
          "name": "lotKey",
          "type": "uint256"
        }
      ],
      "stateMutability": "pure",
      "type": "function"
    }
  ],
  "bytecode": "0x608060405234801561001057600080fd5b50614408806100206000396000f3fe608060405234801561001057600080fd5b506004361061010b5760003560e01c8063ad175f1b116100a2578063dbd20a8811610071578063dbd20a8814610270578063de73259514610290578063f2580f26146102a3578063f6eb9ee7146102b6578063f91cbebe146102c957600080fd5b8063ad175f1b14610202578063ae370f6d14610215578063c1d013951461023d578063d00d7b191461025057600080fd5b8063612d8b50116100de578063612d8b501461019b57806371b08d89146101bc5780637f424a37146101cf5780639291178e146101ef57600080fd5b8063281e8068146101105780632c79854f1461013a5780633191b50e1461015b5780634314b84f1461017b575b600080fd5b61012361011e366004613afc565b6102dc565b604051610131929190613c44565b60405180910390f35b61014d610148366004613c66565b610c67565b604051908152602001610131565b61016e610169366004613c66565b610d00565b6040516101319190613d9c565b61018e610189366004613c66565b610f68565b6040516101319190613daf565b6101ae6101a9366004613dc2565b611135565b604051610131929190613e06565b6101236101ca366004613afc565b6114ab565b6101e26101dd366004613e19565b611d66565b6040516101319190613e45565b61014d6101fd366004613e19565b611e82565b61014d610210366004613e19565b611efd565b610228610223366004613e58565b612294565b60408051928352602083019190915201610131565b61014d61024b366004613e71565b6122be565b61026361025e366004613c66565b6125ae565b6040516101319190613eac565b61028361027e366004613c66565b6129bd565b6040516101319190613ebf565b61014d61029e366004613e71565b612b87565b61014d6102b1366004613e19565b612dee565b6101ae6102c4366004613ed2565b612fc6565b6101236102d7366004613dc2565b6134eb565b606060006102eb836001613f41565b6001600160401b0381111561030257610302613f54565b60405190808252806020026020018201604052801561035757816020015b61034460405180606001604052806000815260200160008152602001606081525090565b8152602001906001900390816103205790505b50604080516003808252608082019092529193506000916060918391906020820184803683370190505090508b6001600160a01b031663ef78d4fd6040518163ffffffff1660e01b8152600401602060405180830381865afa1580156103c1573d6000803e3d6000fd5b505050506040513d601f19601f820116820180604052508101906103e59190613f6a565b816002815181106103f8576103f8613f83565b60200260200101818152505060018a116107d957885b8881116107d75760405163bad1265360e01b8152600481018290526001600160a01b038e169063bad1265390602401602060405180830381865afa15801561045a573d6000803e3d6000fd5b505050506040513d601f19601f8201168201806040525081019061047e9190613f99565b9350600184600481111561049457610494613fba565b036107aa57604051630122bf3160e51b8152600481018290526001600160a01b038e1690632457e62090602401600060405180830381865afa1580156104de573d6000803e3d6000fd5b505050506040513d6000823e601f3d908101601f19168201604052610506919081019061404b565b925060005b83518110156107a8576105388e8386848151811061052b5761052b613f83565b6020026020010151610f68565b87898151811061054a5761054a613f83565b602002602001018190525060008e6001600160a01b031663fb0d5e098487858151811061057957610579613f83565b60200260200101516040518363ffffffff1660e01b81526004016105a7929190918252602082015260400190565b600060405180830381865afa1580156105c4573d6000803e3d6000fd5b505050506040513d6000823e601f3d908101601f191682016040526105ec9190810190614179565b905060005b600182516105ff91906141b5565b811015610793578e6001600160a01b031682828151811061062257610622613f83565b6020026020010151604001516001600160a01b031603610781576106468a8c6141c8565b8560008151811061065957610659613f83565b60200260200101511015801561069d5750896106768c6001613f41565b61068091906141c8565b8560008151811061069357610693613f83565b6020026020010151105b1561073a57888a815181106106b4576106b4613f83565b602002602001015189866001815181106106d0576106d0613f83565b6020026020010151815181106106e8576106e8613f83565b60200260200101819052508460018151811061070657610706613f83565b6020026020010151600161071a9190613f41565b8560018151811061072d5761072d613f83565b6020026020010181815250505b8460008151811061074d5761074d613f83565b602002602001015160016107619190613f41565b8560008151811061077457610774613f83565b6020026020010181815250505b8061078b816141df565b9150506105f1565b505080806107a0906141df565b91505061050b565b505b816002815181106107bd576107bd613f83565b6020026020010151816107d09190613f41565b905061040e565b505b89600214806107e6575089155b15610be457885b888111610be25760405163bad1265360e01b8152600481018290526001600160a01b038e169063bad1265390602401602060405180830381865afa158015610839573d6000803e3d6000fd5b505050506040513d601f19601f8201168201806040525081019061085d9190613f99565b9350600284600481111561087357610873613fba565b14806108905750600484600481111561088e5761088e613fba565b145b806108ac575060038460048111156108aa576108aa613fba565b145b15610bb557604051630122bf3160e51b8152600481018290526001600160a01b038e1690632457e62090602401600060405180830381865afa1580156108f6573d6000803e3d6000fd5b505050506040513d6000823e601f3d908101601f1916820160405261091e919081019061404b565b925060005b8351811015610bb3576109438e8386848151811061052b5761052b613f83565b87898151811061095557610955613f83565b602002602001018190525060008e6001600160a01b031663fb0d5e098487858151811061098457610984613f83565b60200260200101516040518363ffffffff1660e01b81526004016109b2929190918252602082015260400190565b600060405180830381865afa1580156109cf573d6000803e3d6000fd5b505050506040513d6000823e601f3d908101601f191682016040526109f79190810190614179565b905060005b60018251610a0a91906141b5565b811015610b9e578e6001600160a01b0316828281518110610a2d57610a2d613f83565b6020026020010151604001516001600160a01b031603610b8c57610a518a8c6141c8565b85600081518110610a6457610a64613f83565b602002602001015110158015610aa8575089610a818c6001613f41565b610a8b91906141c8565b85600081518110610a9e57610a9e613f83565b6020026020010151105b15610b4557888a81518110610abf57610abf613f83565b60200260200101518986600181518110610adb57610adb613f83565b602002602001015181518110610af357610af3613f83565b602002602001018190525084600181518110610b1157610b11613f83565b60200260200101516001610b259190613f41565b85600181518110610b3857610b38613f83565b6020026020010181815250505b84600081518110610b5857610b58613f83565b60200260200101516001610b6c9190613f41565b85600081518110610b7f57610b7f613f83565b6020026020010181815250505b80610b96816141df565b9150506109fc565b50508080610bab906141df565b915050610923565b505b81600281518110610bc857610bc8613f83565b602002602001015181610bdb9190613f41565b90506107ed565b505b85610bf0886001613f41565b610bfa91906141c8565b81600081518110610c0d57610c0d613f83565b60200260200101511115610c5357868682600081518110610c3057610c30613f83565b6020026020010151610c42919061420e565b610c4c91906141b5565b9350610c58565b600093505b50505097509795505050505050565b604051630122bf3160e51b81526004810183905260009081906001600160a01b03861690632457e62090602401600060405180830381865afa158015610cb1573d6000803e3d6000fd5b505050506040513d6000823e601f3d908101601f19168201604052610cd9919081019061404b565b9050808381518110610ced57610ced613f83565b60200260200101519150505b9392505050565b606081831115610d2b5760405162461bcd60e51b8152600401610d2290614222565b60405180910390fd5b6000846001600160a01b031663ed320aa86040518163ffffffff1660e01b8152600401602060405180830381865afa158015610d6b573d6000803e3d6000fd5b505050506040513d601f19601f82011682018060405250810190610d8f9190613f6a565b905060008111610de15760405162461bcd60e51b815260206004820152601760248201527f4e6f206672616d657320696e20746865206d61726b65740000000000000000006044820152606401610d22565b838111610e305760405162461bcd60e51b815260206004820152601b60248201527f7374617274496e646578206973206f7574206f6620626f756e647300000000006044820152606401610d22565b82811015610e4657610e436001826141b5565b92505b610e5084846141b5565b610e5b906001613f41565b6001600160401b03811115610e7257610e72613f54565b604051908082528060200260200182016040528015610eab57816020015b610e98613a61565b815260200190600190039081610e905790505b509150835b838111610f5f5760405162143a2160e61b8152600481018290526000906001600160a01b0388169063050e884090602401602060405180830381865afa158015610efe573d6000803e3d6000fd5b505050506040513d601f19601f82011682018060405250810190610f229190613f6a565b9050610f2e8782611d66565b848381518110610f4057610f40613f83565b6020026020010181905250508080610f57906141df565b915050610eb0565b50509392505050565b610f8c60405180606001604052806000815260200160008152602001606081525090565b610fb060405180606001604052806000815260200160008152602001606081525090565b8381526020810183905260405163fb0d5e0960e01b815260048101859052602481018490526000906001600160a01b0387169063fb0d5e0990604401600060405180830381865afa158015611009573d6000803e3d6000fd5b505050506040513d6000823e601f3d908101601f191682016040526110319190810190614179565b905080516000036110785760408051600180825281830190925290816020015b611059613aaf565b8152602001906001900390816110515750506040830152509050610cf9565b80516001600160401b0381111561109157611091613f54565b6040519080825280602002602001820160405280156110ca57816020015b6110b7613aaf565b8152602001906001900390816110af5790505b50604083015260005b815181101561112a578181815181106110ee576110ee613f83565b60200260200101518360400151828151811061110c5761110c613f83565b60200260200101819052508080611122906141df565b9150506110d3565b509095945050505050565b60606000826001600160401b0381111561115157611151613f54565b60405190808252806020026020018201604052801561118a57816020015b611177613a61565b81526020019060019003908161116f5790505b509150611195613a61565b6040805160038082526080820190925260009160208201606080368337019050509050886001600160a01b031663ef78d4fd6040518163ffffffff1660e01b8152600401602060405180830381865afa1580156111f6573d6000803e3d6000fd5b505050506040513d601f19601f8201168201806040525081019061121a9190613f6a565b8160028151811061122d5761122d613f83565b6020908102919091010152875b87811161142a5761124b8a82611d66565b92506000835160405163bad1265360e01b815260048101919091526001600160a01b038c169063bad1265390602401602060405180830381865afa158015611297573d6000803e3d6000fd5b505050506040513d601f19601f820116820180604052508101906112bb9190613f99565b60048111156112cc576112cc613fba565b146113fd576112db86886141c8565b826000815181106112ee576112ee613f83565b60200260200101511015801561133257508561130b886001613f41565b61131591906141c8565b8260008151811061132857611328613f83565b6020026020010151105b156113b65782858360018151811061134c5761134c613f83565b60200260200101518151811061136457611364613f83565b60200260200101819052508160018151811061138257611382613f83565b602002602001015160016113969190613f41565b826001815181106113a9576113a9613f83565b6020026020010181815250505b816000815181106113c9576113c9613f83565b602002602001015160016113dd9190613f41565b826000815181106113f0576113f0613f83565b6020026020010181815250505b8160028151811061141057611410613f83565b6020026020010151816114239190613f41565b905061123a565b5084611437876001613f41565b61144191906141c8565b8160008151811061145457611454613f83565b6020026020010151111561149a5785858260008151811061147757611477613f83565b6020026020010151611489919061420e565b61149391906141b5565b925061149f565b600092505b50509550959350505050565b606060006114ba836001613f41565b6001600160401b038111156114d1576114d1613f54565b60405190808252806020026020018201604052801561152657816020015b61151360405180606001604052806000815260200160008152602001606081525090565b8152602001906001900390816114ef5790505b50604080516003808252608082019092529193506000916060918391906020820184803683370190505090508b6001600160a01b031663ef78d4fd6040518163ffffffff1660e01b8152600401602060405180830381865afa158015611590573d6000803e3d6000fd5b505050506040513d601f19601f820116820180604052508101906115b49190613f6a565b816002815181106115c7576115c7613f83565b60200260200101818152505060018a1161197c57885b88811161197a5760405163bad1265360e01b8152600481018290526001600160a01b038e169063bad1265390602401602060405180830381865afa158015611629573d6000803e3d6000fd5b505050506040513d601f19601f8201168201806040525081019061164d9190613f99565b9350600184600481111561166357611663613fba565b0361194d57604051630122bf3160e51b8152600481018290526001600160a01b038e1690632457e62090602401600060405180830381865afa1580156116ad573d6000803e3d6000fd5b505050506040513d6000823e601f3d908101601f191682016040526116d5919081019061404b565b925060005b835181101561194b576116fa8e8386848151811061052b5761052b613f83565b87898151811061170c5761170c613f83565b602002602001018190525060008e6001600160a01b031663fb0d5e098487858151811061173b5761173b613f83565b60200260200101516040518363ffffffff1660e01b8152600401611769929190918252602082015260400190565b600060405180830381865afa158015611786573d6000803e3d6000fd5b505050506040513d6000823e601f3d908101601f191682016040526117ae9190810190614179565b90508d6001600160a01b031681600183516117c991906141b5565b815181106117d9576117d9613f83565b6020026020010151604001516001600160a01b031603611938576117fd898b6141c8565b8460008151811061181057611810613f83565b60200260200101511015801561185457508861182d8b6001613f41565b61183791906141c8565b8460008151811061184a5761184a613f83565b6020026020010151105b156118f15787898151811061186b5761186b613f83565b6020026020010151888560018151811061188757611887613f83565b60200260200101518151811061189f5761189f613f83565b6020026020010181905250836001815181106118bd576118bd613f83565b602002602001015160016118d19190613f41565b846001815181106118e4576118e4613f83565b6020026020010181815250505b8360008151811061190457611904613f83565b602002602001015160016119189190613f41565b8460008151811061192b5761192b613f83565b6020026020010181815250505b5080611943816141df565b9150506116da565b505b8160028151811061196057611960613f83565b6020026020010151816119739190613f41565b90506115dd565b505b8960021480611989575089155b15610be457885b888111610be25760405163bad1265360e01b8152600481018290526001600160a01b038e169063bad1265390602401602060405180830381865afa1580156119dc573d6000803e3d6000fd5b505050506040513d601f19601f82011682018060405250810190611a009190613f99565b93506002846004811115611a1657611a16613fba565b1480611a3357506004846004811115611a3157611a31613fba565b145b80611a4f57506003846004811115611a4d57611a4d613fba565b145b15611d3957604051630122bf3160e51b8152600481018290526001600160a01b038e1690632457e62090602401600060405180830381865afa158015611a99573d6000803e3d6000fd5b505050506040513d6000823e601f3d908101601f19168201604052611ac1919081019061404b565b925060005b8351811015611d3757611ae68e8386848151811061052b5761052b613f83565b878981518110611af857611af8613f83565b602002602001018190525060008e6001600160a01b031663fb0d5e0984878581518110611b2757611b27613f83565b60200260200101516040518363ffffffff1660e01b8152600401611b55929190918252602082015260400190565b600060405180830381865afa158015611b72573d6000803e3d6000fd5b505050506040513d6000823e601f3d908101601f19168201604052611b9a9190810190614179565b90508d6001600160a01b03168160018351611bb591906141b5565b81518110611bc557611bc5613f83565b6020026020010151604001516001600160a01b031603611d2457611be9898b6141c8565b84600081518110611bfc57611bfc613f83565b602002602001015110158015611c40575088611c198b6001613f41565b611c2391906141c8565b84600081518110611c3657611c36613f83565b6020026020010151105b15611cdd57878981518110611c5757611c57613f83565b60200260200101518885600181518110611c7357611c73613f83565b602002602001015181518110611c8b57611c8b613f83565b602002602001018190525083600181518110611ca957611ca9613f83565b60200260200101516001611cbd9190613f41565b84600181518110611cd057611cd0613f83565b6020026020010181815250505b83600081518110611cf057611cf0613f83565b60200260200101516001611d049190613f41565b84600081518110611d1757611d17613f83565b6020026020010181815250505b5080611d2f816141df565b915050611ac6565b505b81600281518110611d4c57611d4c613f83565b602002602001015181611d5f9190613f41565b9050611990565b611d6e613a61565b611d76613a61565b604051632840d02f60e21b8152600481018490526001600160a01b0385169063a10340bc9060240160e060405180830381865afa158015611dbb573d6000803e3d6000fd5b505050506040513d601f19601f82011682018060405250810190611ddf9190614271565b60e088015260c087015260a086015260808501526001600160a01b0390811660608501526020840191909152908252604051630122bf3160e51b81526004810185905290851690632457e62090602401600060405180830381865afa158015611e4c573d6000803e3d6000fd5b505050506040513d6000823e601f3d908101601f19168201604052611e74919081019061404b565b604082015290505b92915050565b604051630122bf3160e51b81526004810182905260009081906001600160a01b03851690632457e62090602401600060405180830381865afa158015611ecc573d6000803e3d6000fd5b505050506040513d6000823e601f3d908101601f19168201604052611ef4919081019061404b565b51949350505050565b6040516361eee2cb60e01b8152426004820181905260009182906001600160a01b038616906361eee2cb90602401602060405180830381865afa158015611f48573d6000803e3d6000fd5b505050506040513d601f19601f82011682018060405250810190611f6c9190613f6a565b905080841015611fbe5760405162461bcd60e51b815260206004820152601f60248201527f4672616d65206d7573742062652063757272656e74206f7220667574757265006044820152606401610d22565b6000856001600160a01b031663b067f42d6040518163ffffffff1660e01b8152600401602060405180830381865afa158015611ffe573d6000803e3d6000fd5b505050506040513d601f19601f820116820180604052508101906120229190613f6a565b90506000866001600160a01b031663ed320aa86040518163ffffffff1660e01b8152600401602060405180830381865afa158015612064573d6000803e3d6000fd5b505050506040513d601f19601f820116820180604052508101906120889190613f6a565b90506000808311801561209b5750818311155b1561214a5760006001600160a01b03891663050e88406120bc6001876141b5565b6040518263ffffffff1660e01b81526004016120da91815260200190565b602060405180830381865afa1580156120f7573d6000803e3d6000fd5b505050506040513d601f19601f8201168201806040525081019061211b9190613f6a565b905060006121298a83611d66565b8051909150156121475760028160e00151612144919061420e565b92505b50505b60008490506000896001600160a01b031663ef78d4fd6040518163ffffffff1660e01b8152600401602060405180830381865afa15801561218f573d6000803e3d6000fd5b505050506040513d601f19601f820116820180604052508101906121b39190613f6a565b90505b88821161227b57604051630dbdf10960e11b8152600481018390526000906001600160a01b038c1690631b7be21290602401602060405180830381865afa158015612205573d6000803e3d6000fd5b505050506040513d601f19601f820116820180604052508101906122299190613f6a565b905060006122378583613f41565b90508a840361225b5761224b60028261420e565b9950505050505050505050611e7c565b61226660028261420e565b94506122728385613f41565b935050506121b6565b61228660028461420e565b9a9950505050505050505050565b6000806122a66402540be400846142d1565b91506122b76402540be4008461420e565b9050915091565b6040516361eee2cb60e01b81526004810184905260009081906001600160a01b038716906361eee2cb90602401602060405180830381865afa158015612308573d6000803e3d6000fd5b505050506040513d601f19601f8201168201806040525081019061232c9190613f6a565b6040516361eee2cb60e01b81524260048201529091506001600160a01b038716906361eee2cb90602401602060405180830381865afa158015612373573d6000803e3d6000fd5b505050506040513d601f19601f820116820180604052508101906123979190613f6a565b8110156123e65760405162461bcd60e51b815260206004820152601b60248201527f54484953204c4f5420495320494e20412050415354204652414d4500000000006044820152606401610d22565b60008061245d88848a6001600160a01b0316639592de188a6040518263ffffffff1660e01b815260040161241c91815260200190565b602060405180830381865afa158015612439573d6000803e3d6000fd5b505050506040513d601f19601f820116820180604052508101906101899190613f6a565b6040810151805191925090612474906001906141b5565b8151811061248457612484613f83565b60200260200101516060015191506000886001600160a01b031663e107fb4f85856040518363ffffffff1660e01b81526004016124cb929190918252602082015260400190565b602060405180830381865afa1580156124e8573d6000803e3d6000fd5b505050506040513d601f19601f8201168201806040525081019061250c9190613f6a565b60405163e107fb4f60e01b815260048101869052602481018890529091506000906001600160a01b038b169063e107fb4f90604401602060405180830381865afa15801561255e573d6000803e3d6000fd5b505050506040513d601f19601f820116820180604052508101906125829190613f6a565b905080821061259457600095506125a1565b61259e82826141b5565b95505b5050505050949350505050565b6060818311156125d05760405162461bcd60e51b8152600401610d2290614222565b6000846001600160a01b031663197c4e786040518163ffffffff1660e01b8152600401602060405180830381865afa158015612610573d6000803e3d6000fd5b505050506040513d601f19601f820116820180604052508101906126349190613f6a565b90506000811161267e5760405162461bcd60e51b8152602060048201526015602482015274139bc81b1bdd1cc81a5b881d1a19481b585c9ad95d605a1b6044820152606401610d22565b6000816001600160401b0381111561269857612698613f54565b6040519080825280602002602001820160405280156126c1578160200160208202803683370190505b509050856001600160a01b031663c0423f2e6040518163ffffffff1660e01b8152600401600060405180830381865afa158015612702573d6000803e3d6000fd5b505050506040513d6000823e601f3d908101601f1916820160405261272a919081019061404b565b905081851061277b5760405162461bcd60e51b815260206004820152601b60248201527f7374617274496e646578206973206f7574206f6620626f756e647300000000006044820152606401610d22565b8184106127905761278d6001836141b5565b93505b61279a85856141b5565b6127a5906001613f41565b6001600160401b038111156127bc576127bc613f54565b60405190808252806020026020018201604052801561281157816020015b6127fe60405180606001604052806000815260200160008152602001606081525090565b8152602001906001900390816127da5790505b509250845b8481116129b35760008061286e60405180604001604052806013815260200172029a7a61d103637ba39a0b93930bcadb4ae9d1606d1b81525085858151811061286157612861613f83565b602002602001015161387f565b61289084848151811061288357612883613f83565b6020026020010151612294565b60408051808201909152600f81526e029a7a61d10333930b6b2a5b2bc9d1608d1b602082015291935091506128c5908361387f565b6128f46040518060400160405280600d81526020016c029a7a61d103637ba25b2bc9d1609d1b8152508261387f565b604051636f1aefc360e01b815260048101839052602481018290526000906001600160a01b038b1690636f1aefc390604401600060405180830381865afa158015612943573d6000803e3d6000fd5b505050506040513d6000823e601f3d908101601f1916820160405261296b91908101906142e5565b90506129808a82600001518360200151610f68565b87858151811061299257612992613f83565b602002602001018190525050505080806129ab906141df565b915050612816565b5050509392505050565b6060816001600160401b038111156129d7576129d7613f54565b604051908082528060200260200182016040528015612a00578160200160208202803683370190505b5090506000612a0d613a61565b60005b8481116129b357600081886001600160a01b031663ef78d4fd6040518163ffffffff1660e01b8152600401602060405180830381865afa158015612a58573d6000803e3d6000fd5b505050506040513d601f19601f82011682018060405250810190612a7c9190613f6a565b612a8691906141c8565b612a909088613f41565b9050612a9c8882611d66565b805160405163bad1265360e01b815260048101919091529093506000906001600160a01b038a169063bad1265390602401602060405180830381865afa158015612aea573d6000803e3d6000fd5b505050506040513d601f19601f82011682018060405250810190612b0e9190613f99565b90506001816004811115612b2457612b24613fba565b1480612b4157506003816004811115612b3f57612b3f613fba565b145b15612b725781868681518110612b5957612b59613f83565b602090810291909101015284612b6e816141df565b9550505b50508080612b7f906141df565b915050612a10565b6040516361eee2cb60e01b81526004810184905260009081906001600160a01b038716906361eee2cb90602401602060405180830381865afa158015612bd1573d6000803e3d6000fd5b505050506040513d601f19601f82011682018060405250810190612bf59190613f6a565b905042866001600160a01b031663ef78d4fd6040518163ffffffff1660e01b8152600401602060405180830381865afa158015612c36573d6000803e3d6000fd5b505050506040513d601f19601f82011682018060405250810190612c5a9190613f6a565b612c649083613f41565b1015612cb25760405162461bcd60e51b815260206004820152601d60248201527f4672616d652068617320746f20626520696e20746865206675747572650000006044820152606401610d22565b6040516312b25bc360e31b8152600481018590526000906001600160a01b03881690639592de1890602401602060405180830381865afa158015612cfa573d6000803e3d6000fd5b505050506040513d601f19601f82011682018060405250810190612d1e9190613f6a565b60405163e107fb4f60e01b815260048101849052602481018690529091506000906001600160a01b0389169063e107fb4f90604401602060405180830381865afa158015612d70573d6000803e3d6000fd5b505050506040513d601f19601f82011682018060405250810190612d949190613f6a565b90506000612da3898585610f68565b604081015180519192508391612dbb906001906141b5565b81518110612dcb57612dcb613f83565b602002602001015160600151612de19190613f41565b9998505050505050505050565b600080612dfb8484611d66565b604051634a00521f60e01b8152600481018590529091506000906001600160a01b03861690634a00521f90602401602060405180830381865afa158015612e46573d6000803e3d6000fd5b505050506040513d601f19601f82011682018060405250810190612e6a9190613f6a565b905060008115612f29576000612ef3876001600160a01b03811663050e8840612e946001886141b5565b6040518263ffffffff1660e01b8152600401612eb291815260200190565b602060405180830381865afa158015612ecf573d6000803e3d6000fd5b505050506040513d601f19601f820116820180604052508101906101dd9190613f6a565b905060028460e0015160028360e00151612f0d919061420e565b612f179190613f41565b612f21919061420e565b915050612f3d565b60028360e00151612f3a919061420e565b90505b6000612faf82886001600160a01b031663527eb4bc6040518163ffffffff1660e01b8152600401602060405180830381865afa158015612f81573d6000803e3d6000fd5b505050506040513d601f19601f82011682018060405250810190612fa59190613f6a565b600160601b6138c8565b9050612fbb81836141b5565b979650505050505050565b60606000826001600160401b03811115612fe257612fe2613f54565b60405190808252806020026020018201604052801561301b57816020015b613008613a61565b8152602001906001900390816130005790505b5060408051600480825260a08201909252919350600091829160208201608080368337019050509050896001600160a01b031663ef78d4fd6040518163ffffffff1660e01b8152600401602060405180830381865afa158015613082573d6000803e3d6000fd5b505050506040513d601f19601f820116820180604052508101906130a69190613f6a565b816002815181106130b9576130b9613f83565b60209081029190910101526060885b8881116134685760405163bad1265360e01b8152600481018290526001600160a01b038d169063bad1265390602401602060405180830381865afa158015613114573d6000803e3d6000fd5b505050506040513d601f19601f820116820180604052508101906131389190613f99565b9350600084600481111561314e5761314e613fba565b1461343b57604051630122bf3160e51b8152600481018290526001600160a01b038d1690632457e62090602401600060405180830381865afa158015613198573d6000803e3d6000fd5b505050506040513d6000823e601f3d908101601f191682016040526131c0919081019061404b565b915060005b82518110156134395760008d6001600160a01b031663fb0d5e09848685815181106131f2576131f2613f83565b60200260200101516040518363ffffffff1660e01b8152600401613220929190918252602082015260400190565b600060405180830381865afa15801561323d573d6000803e3d6000fd5b505050506040513d6000823e601f3d908101601f191682016040526132659190810190614179565b90508c6001600160a01b0316816001835161328091906141b5565b8151811061329057613290613f83565b6020026020010151604001516001600160a01b03161480156132cc575082856003815181106132c1576132c1613f83565b602002602001015114155b15613426576132db898b6141c8565b856000815181106132ee576132ee613f83565b60200260200101511015801561333257508861330b8b6001613f41565b61331591906141c8565b8560008151811061332857613328613f83565b6020026020010151105b156133bf576133418e84611d66565b888660018151811061335557613355613f83565b60200260200101518151811061336d5761336d613f83565b60200260200101819052508460018151811061338b5761338b613f83565b6020026020010151600161339f9190613f41565b856001815181106133b2576133b2613f83565b6020026020010181815250505b846000815181106133d2576133d2613f83565b602002602001015160016133e69190613f41565b856000815181106133f9576133f9613f83565b602002602001018181525050828560038151811061341957613419613f83565b6020026020010181815250505b5080613431816141df565b9150506131c5565b505b8260028151811061344e5761344e613f83565b6020026020010151816134619190613f41565b90506130c8565b5085613475886001613f41565b61347f91906141c8565b8260008151811061349257613492613f83565b602002602001015111156134d8578686836000815181106134b5576134b5613f83565b60200260200101516134c7919061420e565b6134d191906141b5565b93506134dd565b600093505b505050965096945050505050565b60606000848611156135655760405162461bcd60e51b815260206004820152603760248201527f6672616d654b65795f7374617274206d75737420626520736d616c6c6572206f60448201527f7220657175616c20746f206672616d654b65795f656e640000000000000000006064820152608401610d22565b826001600160401b0381111561357d5761357d613f54565b6040519080825280602002602001820160405280156135d257816020015b6135bf60405180606001604052806000815260200160008152602001606081525090565b81526020019060019003908161359b5790505b5060408051600380825260808201909252919350606091600091602082018480368337019050509050886001600160a01b031663ef78d4fd6040518163ffffffff1660e01b8152600401602060405180830381865afa158015613639573d6000803e3d6000fd5b505050506040513d601f19601f8201168201806040525081019061365d9190613f6a565b8160028151811061367057613670613f83565b6020908102919091010152875b87811161142a57604051630122bf3160e51b8152600481018290526001600160a01b038b1690632457e62090602401600060405180830381865afa1580156136c9573d6000803e3d6000fd5b505050506040513d6000823e601f3d908101601f191682016040526136f1919081019061404b565b925060005b83518110156138515761370987896141c8565b8360008151811061371c5761371c613f83565b602002602001015110158015613760575086613739896001613f41565b61374391906141c8565b8360008151811061375657613756613f83565b6020026020010151105b156137fa5761377c8b8386848151811061052b5761052b613f83565b868460018151811061379057613790613f83565b6020026020010151815181106137a8576137a8613f83565b6020026020010181905250826001815181106137c6576137c6613f83565b602002602001015160016137da9190613f41565b836001815181106137ed576137ed613f83565b6020026020010181815250505b8260008151811061380d5761380d613f83565b602002602001015160016138219190613f41565b8360008151811061383457613834613f83565b602090810291909101015280613849816141df565b9150506136f6565b508160028151811061386557613865613f83565b6020026020010151816138789190613f41565b905061367d565b6138c4828260405160240161389592919061437d565b60408051601f198184030181529190526020810180516001600160e01b0316632d839cb360e21b179052613a34565b5050565b600080806000198587098587029250828110838203039150508060000361390157600084116138f657600080fd5b508290049050610cf9565b80841161390d57600080fd5b60008486880980840393811190920391905060008561392e81196001613f41565b1695869004959384900493600081900304600101905061394e81846141c8565b90931792600061395f8760036141c8565b600218905061396e81886141c8565b6139799060026141b5565b61398390826141c8565b905061398f81886141c8565b61399a9060026141b5565b6139a490826141c8565b90506139b081886141c8565b6139bb9060026141b5565b6139c590826141c8565b90506139d181886141c8565b6139dc9060026141b5565b6139e690826141c8565b90506139f281886141c8565b6139fd9060026141b5565b613a0790826141c8565b9050613a1381886141c8565b613a1e9060026141b5565b613a2890826141c8565b9050612de181866141c8565b613a3d81613a40565b50565b60006a636f6e736f6c652e6c6f679050600080835160208501845afa505050565b60405180610100016040528060008152602001600081526020016060815260200160006001600160a01b03168152602001600081526020016000815260200160008152602001600081525090565b6040518060a00160405280600081526020016000815260200160006001600160a01b0316815260200160008152602001600081525090565b6001600160a01b0381168114613a3d57600080fd5b600080600080600080600060e0888a031215613b1757600080fd5b8735613b2281613ae7565b96506020880135613b3281613ae7565b96999698505050506040850135946060810135946080820135945060a0820135935060c0909101359150565b600060608084018351855260208085015181870152604080860151848289015283815180865260809550858a019150848301925060005b81811015613bdd578351805184528681015187850152858101516001600160a01b0316868501528881015189850152870151878401529285019260a090920191600101613b95565b50909998505050505050505050565b600082825180855260208086019550808260051b84010181860160005b84811015613c3757601f19868403018952613c25838351613b5e565b98840198925090830190600101613c09565b5090979650505050505050565b604081526000613c576040830185613bec565b90508260208301529392505050565b600080600060608486031215613c7b57600080fd5b8335613c8681613ae7565b95602085013595506040909401359392505050565b600081518084526020808501945080840160005b83811015613ccb57815187529582019590820190600101613caf565b509495945050505050565b600061010082518452602083015160208501526040830151816040860152613d0082860182613c9b565b91505060018060a01b0360608401511660608501526080830151608085015260a083015160a085015260c083015160c085015260e083015160e08501528091505092915050565b600081518084526020808501808196508360051b8101915082860160005b85811015613d8f578284038952613d7d848351613cd6565b98850198935090840190600101613d65565b5091979650505050505050565b602081526000610cf96020830184613d47565b602081526000610cf96020830184613b5e565b600080600080600060a08688031215613dda57600080fd5b8535613de581613ae7565b97602087013597506040870135966060810135965060800135945092505050565b604081526000613c576040830185613d47565b60008060408385031215613e2c57600080fd5b8235613e3781613ae7565b946020939093013593505050565b602081526000610cf96020830184613cd6565b600060208284031215613e6a57600080fd5b5035919050565b60008060008060808587031215613e8757600080fd5b8435613e9281613ae7565b966020860135965060408601359560600135945092505050565b602081526000610cf96020830184613bec565b602081526000610cf96020830184613c9b565b60008060008060008060c08789031215613eeb57600080fd5b8635613ef681613ae7565b95506020870135613f0681613ae7565b95989597505050506040840135936060810135936080820135935060a0909101359150565b634e487b7160e01b600052601160045260246000fd5b80820180821115611e7c57611e7c613f2b565b634e487b7160e01b600052604160045260246000fd5b600060208284031215613f7c57600080fd5b5051919050565b634e487b7160e01b600052603260045260246000fd5b600060208284031215613fab57600080fd5b815160058110610cf957600080fd5b634e487b7160e01b600052602160045260246000fd5b60405160a081016001600160401b0381118282101715613ff257613ff2613f54565b60405290565b604051601f8201601f191681016001600160401b038111828210171561402057614020613f54565b604052919050565b60006001600160401b0382111561404157614041613f54565b5060051b60200190565b6000602080838503121561405e57600080fd5b82516001600160401b0381111561407457600080fd5b8301601f8101851361408557600080fd5b805161409861409382614028565b613ff8565b81815260059190911b820183019083810190878311156140b757600080fd5b928401925b82841015612fbb578351825292840192908401906140bc565b600082601f8301126140e657600080fd5b815160206140f661409383614028565b82815260a0928302850182019282820191908785111561411557600080fd5b8387015b85811015613c375781818a0312156141315760008081fd5b614139613fd0565b81518152858201518682015260408083015161415481613ae7565b9082015260608281015190820152608080830151908201528452928401928101614119565b60006020828403121561418b57600080fd5b81516001600160401b038111156141a157600080fd5b6141ad848285016140d5565b949350505050565b81810381811115611e7c57611e7c613f2b565b8082028115828204841417611e7c57611e7c613f2b565b6000600182016141f1576141f1613f2b565b5060010190565b634e487b7160e01b600052601260045260246000fd5b60008261421d5761421d6141f8565b500490565b6020808252602f908201527f7374617274496e646578206d75737420626520736d616c6c6572206f7220657160408201526e0eac2d840e8de40cadcc892dcc8caf608b1b606082015260800190565b600080600080600080600060e0888a03121561428c57600080fd5b875196506020880151955060408801516142a581613ae7565b80955050606088015193506080880151925060a0880151915060c0880151905092959891949750929550565b6000826142e0576142e06141f8565b500690565b6000602082840312156142f757600080fd5b81516001600160401b038082111561430e57600080fd5b908301906060828603121561432257600080fd5b60405160608101818110838211171561433d5761433d613f54565b8060405250825181526020830151602082015260408301518281111561436257600080fd5b61436e878286016140d5565b60408301525095945050505050565b604081526000835180604084015260005b818110156143ab576020818701810151606086840101520161438e565b506000606082850101526060601f19601f830116840101915050826020830152939250505056fea264697066735822122054d970a0e49dee2b012090a0f72344485ca7e51c7e3b55cb9efeeaec4f914ec964736f6c63430008140033",
  "linkReferences": {},
  "deployedLinkReferences": {}
}