{
  "_format": "hh-sol-artifact-1",
  "contractName": "MarketGetter",
  "sourceName": "contracts/MarketGetter.sol",
  "abi": [
    {
      "inputs": [
        {
          "internalType": "contract Market",
          "name": "market",
          "type": "address"
        },
        {
          "internalType": "uint256",
          "name": "targetFrameKey",
          "type": "uint256"
        }
      ],
      "name": "calculateMinimalReward",
      "outputs": [
        {
          "internalType": "uint256",
          "name": "",
          "type": "uint256"
        }
      ],
      "stateMutability": "view",
      "type": "function"
    },
    {
      "inputs": [
        {
          "internalType": "contract Market",
          "name": "market",
          "type": "address"
        },
        {
          "internalType": "uint256",
          "name": "timestamp",
          "type": "uint256"
        },
        {
          "internalType": "uint256",
          "name": "pairPrice",
          "type": "uint256"
        },
        {
          "internalType": "uint256",
          "name": "acqPrice",
          "type": "uint256"
        }
      ],
      "name": "clcAmountToApprove",
      "outputs": [
        {
          "internalType": "uint256",
          "name": "approvalAmnt",
          "type": "uint256"
        }
      ],
      "stateMutability": "view",
      "type": "function"
    },
    {
      "inputs": [
        {
          "internalType": "contract Market",
          "name": "market",
          "type": "address"
        },
        {
          "internalType": "uint256",
          "name": "timestamp",
          "type": "uint256"
        },
        {
          "internalType": "uint256",
          "name": "pairPrice",
          "type": "uint256"
        },
        {
          "internalType": "uint256",
          "name": "acqPrice",
          "type": "uint256"
        }
      ],
      "name": "clcAmountToApproveForUpdate",
      "outputs": [
        {
          "internalType": "uint256",
          "name": "amnt",
          "type": "uint256"
        }
      ],
      "stateMutability": "view",
      "type": "function"
    },
    {
      "inputs": [
        {
          "internalType": "contract Market",
          "name": "market",
          "type": "address"
        },
        {
          "internalType": "uint256",
          "name": "frameKey",
          "type": "uint256"
        }
      ],
      "name": "getFrameStruct",
      "outputs": [
        {
          "components": [
            {
              "internalType": "uint256",
              "name": "frameKey",
              "type": "uint256"
            },
            {
              "internalType": "uint256",
              "name": "rate",
              "type": "uint256"
            },
            {
              "internalType": "uint256[]",
              "name": "lotKeys",
              "type": "uint256[]"
            },
            {
              "internalType": "address",
              "name": "claimedBy",
              "type": "address"
            },
            {
              "internalType": "uint256",
              "name": "rateSettle",
              "type": "uint256"
            },
            {
              "internalType": "uint256",
              "name": "feeSettle",
              "type": "uint256"
            },
            {
              "internalType": "uint256",
              "name": "rewardSettle",
              "type": "uint256"
            },
            {
              "internalType": "uint256",
              "name": "rewardPool",
              "type": "uint256"
            }
          ],
          "internalType": "struct Market.Frame",
          "name": "",
          "type": "tuple"
        }
      ],
      "stateMutability": "view",
      "type": "function"
    },
    {
      "inputs": [
        {
          "internalType": "contract Market",
          "name": "market",
          "type": "address"
        },
        {
          "internalType": "uint256",
          "name": "frameKey_start",
          "type": "uint256"
        },
        {
          "internalType": "uint256",
          "name": "frameKey_end",
          "type": "uint256"
        },
        {
          "internalType": "uint256",
          "name": "page",
          "type": "uint256"
        },
        {
          "internalType": "uint256",
          "name": "perPage",
          "type": "uint256"
        }
      ],
      "name": "getFrames",
      "outputs": [
        {
          "components": [
            {
              "internalType": "uint256",
              "name": "frameKey",
              "type": "uint256"
            },
            {
              "internalType": "uint256",
              "name": "rate",
              "type": "uint256"
            },
            {
              "internalType": "uint256[]",
              "name": "lotKeys",
              "type": "uint256[]"
            },
            {
              "internalType": "address",
              "name": "claimedBy",
              "type": "address"
            },
            {
              "internalType": "uint256",
              "name": "rateSettle",
              "type": "uint256"
            },
            {
              "internalType": "uint256",
              "name": "feeSettle",
              "type": "uint256"
            },
            {
              "internalType": "uint256",
              "name": "rewardSettle",
              "type": "uint256"
            },
            {
              "internalType": "uint256",
              "name": "rewardPool",
              "type": "uint256"
            }
          ],
          "internalType": "struct Market.Frame[]",
          "name": "frames",
          "type": "tuple[]"
        },
        {
          "internalType": "uint256",
          "name": "pagesLeft",
          "type": "uint256"
        }
      ],
      "stateMutability": "view",
      "type": "function"
    },
    {
      "inputs": [
        {
          "internalType": "contract Market",
          "name": "market",
          "type": "address"
        },
        {
          "internalType": "uint256",
          "name": "startIndex",
          "type": "uint256"
        },
        {
          "internalType": "uint256",
          "name": "endIndex",
          "type": "uint256"
        }
      ],
      "name": "getFramesByIndex",
      "outputs": [
        {
          "components": [
            {
              "internalType": "uint256",
              "name": "frameKey",
              "type": "uint256"
            },
            {
              "internalType": "uint256",
              "name": "rate",
              "type": "uint256"
            },
            {
              "internalType": "uint256[]",
              "name": "lotKeys",
              "type": "uint256[]"
            },
            {
              "internalType": "address",
              "name": "claimedBy",
              "type": "address"
            },
            {
              "internalType": "uint256",
              "name": "rateSettle",
              "type": "uint256"
            },
            {
              "internalType": "uint256",
              "name": "feeSettle",
              "type": "uint256"
            },
            {
              "internalType": "uint256",
              "name": "rewardSettle",
              "type": "uint256"
            },
            {
              "internalType": "uint256",
              "name": "rewardPool",
              "type": "uint256"
            }
          ],
          "internalType": "struct Market.Frame[]",
          "name": "frames",
          "type": "tuple[]"
        }
      ],
      "stateMutability": "view",
      "type": "function"
    },
    {
      "inputs": [
        {
          "internalType": "contract Market",
          "name": "market",
          "type": "address"
        },
        {
          "internalType": "address",
          "name": "user",
          "type": "address"
        },
        {
          "internalType": "uint256",
          "name": "frameKey_start",
          "type": "uint256"
        },
        {
          "internalType": "uint256",
          "name": "frameKey_end",
          "type": "uint256"
        },
        {
          "internalType": "uint256",
          "name": "page",
          "type": "uint256"
        },
        {
          "internalType": "uint256",
          "name": "perPage",
          "type": "uint256"
        }
      ],
      "name": "getFramesUser",
      "outputs": [
        {
          "components": [
            {
              "internalType": "uint256",
              "name": "frameKey",
              "type": "uint256"
            },
            {
              "internalType": "uint256",
              "name": "rate",
              "type": "uint256"
            },
            {
              "internalType": "uint256[]",
              "name": "lotKeys",
              "type": "uint256[]"
            },
            {
              "internalType": "address",
              "name": "claimedBy",
              "type": "address"
            },
            {
              "internalType": "uint256",
              "name": "rateSettle",
              "type": "uint256"
            },
            {
              "internalType": "uint256",
              "name": "feeSettle",
              "type": "uint256"
            },
            {
              "internalType": "uint256",
              "name": "rewardSettle",
              "type": "uint256"
            },
            {
              "internalType": "uint256",
              "name": "rewardPool",
              "type": "uint256"
            }
          ],
          "internalType": "struct Market.Frame[]",
          "name": "userFrames",
          "type": "tuple[]"
        },
        {
          "internalType": "uint256",
          "name": "pagesLeft",
          "type": "uint256"
        }
      ],
      "stateMutability": "view",
      "type": "function"
    },
    {
      "inputs": [
        {
          "internalType": "contract Market",
          "name": "market",
          "type": "address"
        },
        {
          "internalType": "uint256",
          "name": "frameKey",
          "type": "uint256"
        },
        {
          "internalType": "uint256",
          "name": "index",
          "type": "uint256"
        }
      ],
      "name": "getLotKey",
      "outputs": [
        {
          "internalType": "uint256",
          "name": "",
          "type": "uint256"
        }
      ],
      "stateMutability": "view",
      "type": "function"
    },
    {
      "inputs": [
        {
          "internalType": "contract Market",
          "name": "market",
          "type": "address"
        },
        {
          "internalType": "uint256",
          "name": "frameKey",
          "type": "uint256"
        },
        {
          "internalType": "uint256",
          "name": "lotKey",
          "type": "uint256"
        }
      ],
      "name": "getLotStruct",
      "outputs": [
        {
          "components": [
            {
              "internalType": "uint256",
              "name": "frameKey",
              "type": "uint256"
            },
            {
              "internalType": "uint256",
              "name": "lotKey",
              "type": "uint256"
            },
            {
              "components": [
                {
                  "internalType": "uint256",
                  "name": "blockNumber",
                  "type": "uint256"
                },
                {
                  "internalType": "uint256",
                  "name": "blockTimestamp",
                  "type": "uint256"
                },
                {
                  "internalType": "address",
                  "name": "owner",
                  "type": "address"
                },
                {
                  "internalType": "uint256",
                  "name": "acquisitionPrice",
                  "type": "uint256"
                },
                {
                  "internalType": "uint256",
                  "name": "taxCharged",
                  "type": "uint256"
                }
              ],
              "internalType": "struct Market.LotState[]",
              "name": "states",
              "type": "tuple[]"
            }
          ],
          "internalType": "struct Market.Lot",
          "name": "",
          "type": "tuple"
        }
      ],
      "stateMutability": "view",
      "type": "function"
    },
    {
      "inputs": [
        {
          "internalType": "contract Market",
          "name": "market",
          "type": "address"
        },
        {
          "internalType": "uint256",
          "name": "frameKey_start",
          "type": "uint256"
        },
        {
          "internalType": "uint256",
          "name": "frameKey_end",
          "type": "uint256"
        },
        {
          "internalType": "uint256",
          "name": "page",
          "type": "uint256"
        },
        {
          "internalType": "uint256",
          "name": "perPage",
          "type": "uint256"
        }
      ],
      "name": "getLots",
      "outputs": [
        {
          "components": [
            {
              "internalType": "uint256",
              "name": "frameKey",
              "type": "uint256"
            },
            {
              "internalType": "uint256",
              "name": "lotKey",
              "type": "uint256"
            },
            {
              "components": [
                {
                  "internalType": "uint256",
                  "name": "blockNumber",
                  "type": "uint256"
                },
                {
                  "internalType": "uint256",
                  "name": "blockTimestamp",
                  "type": "uint256"
                },
                {
                  "internalType": "address",
                  "name": "owner",
                  "type": "address"
                },
                {
                  "internalType": "uint256",
                  "name": "acquisitionPrice",
                  "type": "uint256"
                },
                {
                  "internalType": "uint256",
                  "name": "taxCharged",
                  "type": "uint256"
                }
              ],
              "internalType": "struct Market.LotState[]",
              "name": "states",
              "type": "tuple[]"
            }
          ],
          "internalType": "struct Market.Lot[]",
          "name": "lots",
          "type": "tuple[]"
        },
        {
          "internalType": "uint256",
          "name": "pagesLeft",
          "type": "uint256"
        }
      ],
      "stateMutability": "view",
      "type": "function"
    },
    {
      "inputs": [
        {
          "internalType": "contract Market",
          "name": "market",
          "type": "address"
        },
        {
          "internalType": "uint256",
          "name": "startIndex",
          "type": "uint256"
        },
        {
          "internalType": "uint256",
          "name": "endIndex",
          "type": "uint256"
        }
      ],
      "name": "getLotsByIndex",
      "outputs": [
        {
          "components": [
            {
              "internalType": "uint256",
              "name": "frameKey",
              "type": "uint256"
            },
            {
              "internalType": "uint256",
              "name": "lotKey",
              "type": "uint256"
            },
            {
              "components": [
                {
                  "internalType": "uint256",
                  "name": "blockNumber",
                  "type": "uint256"
                },
                {
                  "internalType": "uint256",
                  "name": "blockTimestamp",
                  "type": "uint256"
                },
                {
                  "internalType": "address",
                  "name": "owner",
                  "type": "address"
                },
                {
                  "internalType": "uint256",
                  "name": "acquisitionPrice",
                  "type": "uint256"
                },
                {
                  "internalType": "uint256",
                  "name": "taxCharged",
                  "type": "uint256"
                }
              ],
              "internalType": "struct Market.LotState[]",
              "name": "states",
              "type": "tuple[]"
            }
          ],
          "internalType": "struct Market.Lot[]",
          "name": "lots",
          "type": "tuple[]"
        }
      ],
      "stateMutability": "view",
      "type": "function"
    },
    {
      "inputs": [
        {
          "internalType": "contract Market",
          "name": "market",
          "type": "address"
        },
        {
          "internalType": "uint256",
          "name": "frameKey",
          "type": "uint256"
        }
      ],
      "name": "getLotsCount",
      "outputs": [
        {
          "internalType": "uint256",
          "name": "",
          "type": "uint256"
        }
      ],
      "stateMutability": "view",
      "type": "function"
    },
    {
      "inputs": [
        {
          "internalType": "contract Market",
          "name": "market",
          "type": "address"
        },
        {
          "internalType": "address",
          "name": "user",
          "type": "address"
        },
        {
          "internalType": "uint256",
          "name": "mode",
          "type": "uint256"
        },
        {
          "internalType": "uint256",
          "name": "frameKey_start",
          "type": "uint256"
        },
        {
          "internalType": "uint256",
          "name": "frameKey_end",
          "type": "uint256"
        },
        {
          "internalType": "uint256",
          "name": "page",
          "type": "uint256"
        },
        {
          "internalType": "uint256",
          "name": "perPage",
          "type": "uint256"
        }
      ],
      "name": "getLotsSoldUser",
      "outputs": [
        {
          "components": [
            {
              "internalType": "uint256",
              "name": "frameKey",
              "type": "uint256"
            },
            {
              "internalType": "uint256",
              "name": "lotKey",
              "type": "uint256"
            },
            {
              "components": [
                {
                  "internalType": "uint256",
                  "name": "blockNumber",
                  "type": "uint256"
                },
                {
                  "internalType": "uint256",
                  "name": "blockTimestamp",
                  "type": "uint256"
                },
                {
                  "internalType": "address",
                  "name": "owner",
                  "type": "address"
                },
                {
                  "internalType": "uint256",
                  "name": "acquisitionPrice",
                  "type": "uint256"
                },
                {
                  "internalType": "uint256",
                  "name": "taxCharged",
                  "type": "uint256"
                }
              ],
              "internalType": "struct Market.LotState[]",
              "name": "states",
              "type": "tuple[]"
            }
          ],
          "internalType": "struct Market.Lot[]",
          "name": "userLots",
          "type": "tuple[]"
        },
        {
          "internalType": "uint256",
          "name": "pagesLeft",
          "type": "uint256"
        }
      ],
      "stateMutability": "view",
      "type": "function"
    },
    {
      "inputs": [
        {
          "internalType": "contract Market",
          "name": "market",
          "type": "address"
        },
        {
          "internalType": "address",
          "name": "user",
          "type": "address"
        },
        {
          "internalType": "uint256",
          "name": "mode",
          "type": "uint256"
        },
        {
          "internalType": "uint256",
          "name": "frameKey_start",
          "type": "uint256"
        },
        {
          "internalType": "uint256",
          "name": "frameKey_end",
          "type": "uint256"
        },
        {
          "internalType": "uint256",
          "name": "page",
          "type": "uint256"
        },
        {
          "internalType": "uint256",
          "name": "perPage",
          "type": "uint256"
        }
      ],
      "name": "getLotsUser",
      "outputs": [
        {
          "components": [
            {
              "internalType": "uint256",
              "name": "frameKey",
              "type": "uint256"
            },
            {
              "internalType": "uint256",
              "name": "lotKey",
              "type": "uint256"
            },
            {
              "components": [
                {
                  "internalType": "uint256",
                  "name": "blockNumber",
                  "type": "uint256"
                },
                {
                  "internalType": "uint256",
                  "name": "blockTimestamp",
                  "type": "uint256"
                },
                {
                  "internalType": "address",
                  "name": "owner",
                  "type": "address"
                },
                {
                  "internalType": "uint256",
                  "name": "acquisitionPrice",
                  "type": "uint256"
                },
                {
                  "internalType": "uint256",
                  "name": "taxCharged",
                  "type": "uint256"
                }
              ],
              "internalType": "struct Market.LotState[]",
              "name": "states",
              "type": "tuple[]"
            }
          ],
          "internalType": "struct Market.Lot[]",
          "name": "userLots",
          "type": "tuple[]"
        },
        {
          "internalType": "uint256",
          "name": "pagesLeft",
          "type": "uint256"
        }
      ],
      "stateMutability": "view",
      "type": "function"
    },
    {
      "inputs": [
        {
          "internalType": "contract Market",
          "name": "market",
          "type": "address"
        },
        {
          "internalType": "uint256",
          "name": "startFrame",
          "type": "uint256"
        },
        {
          "internalType": "uint256",
          "name": "numOfFrames",
          "type": "uint256"
        }
      ],
      "name": "getOpenFrameKeys",
      "outputs": [
        {
          "internalType": "uint256[]",
          "name": "openFrames",
          "type": "uint256[]"
        }
      ],
      "stateMutability": "view",
      "type": "function"
    },
    {
      "inputs": [
        {
          "internalType": "contract Market",
          "name": "market",
          "type": "address"
        },
        {
          "internalType": "uint256",
          "name": "frameKey",
          "type": "uint256"
        }
      ],
      "name": "getRewardAmountMin",
      "outputs": [
        {
          "internalType": "uint256",
          "name": "rewardFund",
          "type": "uint256"
        }
      ],
      "stateMutability": "view",
      "type": "function"
    },
    {
      "inputs": [
        {
          "internalType": "uint256",
          "name": "concatenated",
          "type": "uint256"
        }
      ],
      "name": "splitLotsArrayElement",
      "outputs": [
        {
          "internalType": "uint256",
          "name": "frameKey",
          "type": "uint256"
        },
        {
          "internalType": "uint256",
          "name": "lotKey",
          "type": "uint256"
        }
      ],
      "stateMutability": "pure",
      "type": "function"
    }
  ],
  "bytecode": "0x608060405234801561001057600080fd5b5061437b806100206000396000f3fe608060405234801561001057600080fd5b506004361061010b5760003560e01c8063ad175f1b116100a2578063dbd20a8811610071578063dbd20a8814610270578063de73259514610290578063f2580f26146102a3578063f6eb9ee7146102b6578063f91cbebe146102c957600080fd5b8063ad175f1b14610202578063ae370f6d14610215578063c1d013951461023d578063d00d7b191461025057600080fd5b8063612d8b50116100de578063612d8b501461019b57806371b08d89146101bc5780637f424a37146101cf5780639291178e146101ef57600080fd5b8063281e8068146101105780632c79854f1461013a5780633191b50e1461015b5780634314b84f1461017b575b600080fd5b61012361011e366004613a6f565b6102dc565b604051610131929190613bb7565b60405180910390f35b61014d610148366004613bd9565b610c67565b604051908152602001610131565b61016e610169366004613bd9565b610d00565b6040516101319190613d0f565b61018e610189366004613bd9565b610f68565b6040516101319190613d22565b6101ae6101a9366004613d35565b611135565b604051610131929190613d79565b6101236101ca366004613a6f565b6114ab565b6101e26101dd366004613d8c565b611d66565b6040516101319190613db8565b61014d6101fd366004613d8c565b611e82565b61014d610210366004613d8c565b611efd565b610228610223366004613dcb565b612207565b60408051928352602083019190915201610131565b61014d61024b366004613de4565b612231565b61026361025e366004613bd9565b612521565b6040516101319190613e1f565b61028361027e366004613bd9565b612930565b6040516101319190613e32565b61014d61029e366004613de4565b612afa565b61014d6102b1366004613d8c565b612d61565b6101ae6102c4366004613e45565b612f39565b6101236102d7366004613d35565b61345e565b606060006102eb836001613eb4565b6001600160401b0381111561030257610302613ec7565b60405190808252806020026020018201604052801561035757816020015b61034460405180606001604052806000815260200160008152602001606081525090565b8152602001906001900390816103205790505b50604080516003808252608082019092529193506000916060918391906020820184803683370190505090508b6001600160a01b031663ef78d4fd6040518163ffffffff1660e01b8152600401602060405180830381865afa1580156103c1573d6000803e3d6000fd5b505050506040513d601f19601f820116820180604052508101906103e59190613edd565b816002815181106103f8576103f8613ef6565b60200260200101818152505060018a116107d957885b8881116107d75760405163bad1265360e01b8152600481018290526001600160a01b038e169063bad1265390602401602060405180830381865afa15801561045a573d6000803e3d6000fd5b505050506040513d601f19601f8201168201806040525081019061047e9190613f0c565b9350600184600481111561049457610494613f2d565b036107aa57604051630122bf3160e51b8152600481018290526001600160a01b038e1690632457e62090602401600060405180830381865afa1580156104de573d6000803e3d6000fd5b505050506040513d6000823e601f3d908101601f191682016040526105069190810190613fbe565b925060005b83518110156107a8576105388e8386848151811061052b5761052b613ef6565b6020026020010151610f68565b87898151811061054a5761054a613ef6565b602002602001018190525060008e6001600160a01b031663fb0d5e098487858151811061057957610579613ef6565b60200260200101516040518363ffffffff1660e01b81526004016105a7929190918252602082015260400190565b600060405180830381865afa1580156105c4573d6000803e3d6000fd5b505050506040513d6000823e601f3d908101601f191682016040526105ec91908101906140ec565b905060005b600182516105ff9190614128565b811015610793578e6001600160a01b031682828151811061062257610622613ef6565b6020026020010151604001516001600160a01b031603610781576106468a8c61413b565b8560008151811061065957610659613ef6565b60200260200101511015801561069d5750896106768c6001613eb4565b610680919061413b565b8560008151811061069357610693613ef6565b6020026020010151105b1561073a57888a815181106106b4576106b4613ef6565b602002602001015189866001815181106106d0576106d0613ef6565b6020026020010151815181106106e8576106e8613ef6565b60200260200101819052508460018151811061070657610706613ef6565b6020026020010151600161071a9190613eb4565b8560018151811061072d5761072d613ef6565b6020026020010181815250505b8460008151811061074d5761074d613ef6565b602002602001015160016107619190613eb4565b8560008151811061077457610774613ef6565b6020026020010181815250505b8061078b81614152565b9150506105f1565b505080806107a090614152565b91505061050b565b505b816002815181106107bd576107bd613ef6565b6020026020010151816107d09190613eb4565b905061040e565b505b89600214806107e6575089155b15610be457885b888111610be25760405163bad1265360e01b8152600481018290526001600160a01b038e169063bad1265390602401602060405180830381865afa158015610839573d6000803e3d6000fd5b505050506040513d601f19601f8201168201806040525081019061085d9190613f0c565b9350600284600481111561087357610873613f2d565b14806108905750600484600481111561088e5761088e613f2d565b145b806108ac575060038460048111156108aa576108aa613f2d565b145b15610bb557604051630122bf3160e51b8152600481018290526001600160a01b038e1690632457e62090602401600060405180830381865afa1580156108f6573d6000803e3d6000fd5b505050506040513d6000823e601f3d908101601f1916820160405261091e9190810190613fbe565b925060005b8351811015610bb3576109438e8386848151811061052b5761052b613ef6565b87898151811061095557610955613ef6565b602002602001018190525060008e6001600160a01b031663fb0d5e098487858151811061098457610984613ef6565b60200260200101516040518363ffffffff1660e01b81526004016109b2929190918252602082015260400190565b600060405180830381865afa1580156109cf573d6000803e3d6000fd5b505050506040513d6000823e601f3d908101601f191682016040526109f791908101906140ec565b905060005b60018251610a0a9190614128565b811015610b9e578e6001600160a01b0316828281518110610a2d57610a2d613ef6565b6020026020010151604001516001600160a01b031603610b8c57610a518a8c61413b565b85600081518110610a6457610a64613ef6565b602002602001015110158015610aa8575089610a818c6001613eb4565b610a8b919061413b565b85600081518110610a9e57610a9e613ef6565b6020026020010151105b15610b4557888a81518110610abf57610abf613ef6565b60200260200101518986600181518110610adb57610adb613ef6565b602002602001015181518110610af357610af3613ef6565b602002602001018190525084600181518110610b1157610b11613ef6565b60200260200101516001610b259190613eb4565b85600181518110610b3857610b38613ef6565b6020026020010181815250505b84600081518110610b5857610b58613ef6565b60200260200101516001610b6c9190613eb4565b85600081518110610b7f57610b7f613ef6565b6020026020010181815250505b80610b9681614152565b9150506109fc565b50508080610bab90614152565b915050610923565b505b81600281518110610bc857610bc8613ef6565b602002602001015181610bdb9190613eb4565b90506107ed565b505b85610bf0886001613eb4565b610bfa919061413b565b81600081518110610c0d57610c0d613ef6565b60200260200101511115610c5357868682600081518110610c3057610c30613ef6565b6020026020010151610c429190614181565b610c4c9190614128565b9350610c58565b600093505b50505097509795505050505050565b604051630122bf3160e51b81526004810183905260009081906001600160a01b03861690632457e62090602401600060405180830381865afa158015610cb1573d6000803e3d6000fd5b505050506040513d6000823e601f3d908101601f19168201604052610cd99190810190613fbe565b9050808381518110610ced57610ced613ef6565b60200260200101519150505b9392505050565b606081831115610d2b5760405162461bcd60e51b8152600401610d2290614195565b60405180910390fd5b6000846001600160a01b031663ed320aa86040518163ffffffff1660e01b8152600401602060405180830381865afa158015610d6b573d6000803e3d6000fd5b505050506040513d601f19601f82011682018060405250810190610d8f9190613edd565b905060008111610de15760405162461bcd60e51b815260206004820152601760248201527f4e6f206672616d657320696e20746865206d61726b65740000000000000000006044820152606401610d22565b838111610e305760405162461bcd60e51b815260206004820152601b60248201527f7374617274496e646578206973206f7574206f6620626f756e647300000000006044820152606401610d22565b82811015610e4657610e43600182614128565b92505b610e508484614128565b610e5b906001613eb4565b6001600160401b03811115610e7257610e72613ec7565b604051908082528060200260200182016040528015610eab57816020015b610e986139d4565b815260200190600190039081610e905790505b509150835b838111610f5f5760405162143a2160e61b8152600481018290526000906001600160a01b0388169063050e884090602401602060405180830381865afa158015610efe573d6000803e3d6000fd5b505050506040513d601f19601f82011682018060405250810190610f229190613edd565b9050610f2e8782611d66565b848381518110610f4057610f40613ef6565b6020026020010181905250508080610f5790614152565b915050610eb0565b50509392505050565b610f8c60405180606001604052806000815260200160008152602001606081525090565b610fb060405180606001604052806000815260200160008152602001606081525090565b8381526020810183905260405163fb0d5e0960e01b815260048101859052602481018490526000906001600160a01b0387169063fb0d5e0990604401600060405180830381865afa158015611009573d6000803e3d6000fd5b505050506040513d6000823e601f3d908101601f1916820160405261103191908101906140ec565b905080516000036110785760408051600180825281830190925290816020015b611059613a22565b8152602001906001900390816110515750506040830152509050610cf9565b80516001600160401b0381111561109157611091613ec7565b6040519080825280602002602001820160405280156110ca57816020015b6110b7613a22565b8152602001906001900390816110af5790505b50604083015260005b815181101561112a578181815181106110ee576110ee613ef6565b60200260200101518360400151828151811061110c5761110c613ef6565b6020026020010181905250808061112290614152565b9150506110d3565b509095945050505050565b60606000826001600160401b0381111561115157611151613ec7565b60405190808252806020026020018201604052801561118a57816020015b6111776139d4565b81526020019060019003908161116f5790505b5091506111956139d4565b6040805160038082526080820190925260009160208201606080368337019050509050886001600160a01b031663ef78d4fd6040518163ffffffff1660e01b8152600401602060405180830381865afa1580156111f6573d6000803e3d6000fd5b505050506040513d601f19601f8201168201806040525081019061121a9190613edd565b8160028151811061122d5761122d613ef6565b6020908102919091010152875b87811161142a5761124b8a82611d66565b92506000835160405163bad1265360e01b815260048101919091526001600160a01b038c169063bad1265390602401602060405180830381865afa158015611297573d6000803e3d6000fd5b505050506040513d601f19601f820116820180604052508101906112bb9190613f0c565b60048111156112cc576112cc613f2d565b146113fd576112db868861413b565b826000815181106112ee576112ee613ef6565b60200260200101511015801561133257508561130b886001613eb4565b611315919061413b565b8260008151811061132857611328613ef6565b6020026020010151105b156113b65782858360018151811061134c5761134c613ef6565b60200260200101518151811061136457611364613ef6565b60200260200101819052508160018151811061138257611382613ef6565b602002602001015160016113969190613eb4565b826001815181106113a9576113a9613ef6565b6020026020010181815250505b816000815181106113c9576113c9613ef6565b602002602001015160016113dd9190613eb4565b826000815181106113f0576113f0613ef6565b6020026020010181815250505b8160028151811061141057611410613ef6565b6020026020010151816114239190613eb4565b905061123a565b5084611437876001613eb4565b611441919061413b565b8160008151811061145457611454613ef6565b6020026020010151111561149a5785858260008151811061147757611477613ef6565b60200260200101516114899190614181565b6114939190614128565b925061149f565b600092505b50509550959350505050565b606060006114ba836001613eb4565b6001600160401b038111156114d1576114d1613ec7565b60405190808252806020026020018201604052801561152657816020015b61151360405180606001604052806000815260200160008152602001606081525090565b8152602001906001900390816114ef5790505b50604080516003808252608082019092529193506000916060918391906020820184803683370190505090508b6001600160a01b031663ef78d4fd6040518163ffffffff1660e01b8152600401602060405180830381865afa158015611590573d6000803e3d6000fd5b505050506040513d601f19601f820116820180604052508101906115b49190613edd565b816002815181106115c7576115c7613ef6565b60200260200101818152505060018a1161197c57885b88811161197a5760405163bad1265360e01b8152600481018290526001600160a01b038e169063bad1265390602401602060405180830381865afa158015611629573d6000803e3d6000fd5b505050506040513d601f19601f8201168201806040525081019061164d9190613f0c565b9350600184600481111561166357611663613f2d565b0361194d57604051630122bf3160e51b8152600481018290526001600160a01b038e1690632457e62090602401600060405180830381865afa1580156116ad573d6000803e3d6000fd5b505050506040513d6000823e601f3d908101601f191682016040526116d59190810190613fbe565b925060005b835181101561194b576116fa8e8386848151811061052b5761052b613ef6565b87898151811061170c5761170c613ef6565b602002602001018190525060008e6001600160a01b031663fb0d5e098487858151811061173b5761173b613ef6565b60200260200101516040518363ffffffff1660e01b8152600401611769929190918252602082015260400190565b600060405180830381865afa158015611786573d6000803e3d6000fd5b505050506040513d6000823e601f3d908101601f191682016040526117ae91908101906140ec565b90508d6001600160a01b031681600183516117c99190614128565b815181106117d9576117d9613ef6565b6020026020010151604001516001600160a01b031603611938576117fd898b61413b565b8460008151811061181057611810613ef6565b60200260200101511015801561185457508861182d8b6001613eb4565b611837919061413b565b8460008151811061184a5761184a613ef6565b6020026020010151105b156118f15787898151811061186b5761186b613ef6565b6020026020010151888560018151811061188757611887613ef6565b60200260200101518151811061189f5761189f613ef6565b6020026020010181905250836001815181106118bd576118bd613ef6565b602002602001015160016118d19190613eb4565b846001815181106118e4576118e4613ef6565b6020026020010181815250505b8360008151811061190457611904613ef6565b602002602001015160016119189190613eb4565b8460008151811061192b5761192b613ef6565b6020026020010181815250505b508061194381614152565b9150506116da565b505b8160028151811061196057611960613ef6565b6020026020010151816119739190613eb4565b90506115dd565b505b8960021480611989575089155b15610be457885b888111610be25760405163bad1265360e01b8152600481018290526001600160a01b038e169063bad1265390602401602060405180830381865afa1580156119dc573d6000803e3d6000fd5b505050506040513d601f19601f82011682018060405250810190611a009190613f0c565b93506002846004811115611a1657611a16613f2d565b1480611a3357506004846004811115611a3157611a31613f2d565b145b80611a4f57506003846004811115611a4d57611a4d613f2d565b145b15611d3957604051630122bf3160e51b8152600481018290526001600160a01b038e1690632457e62090602401600060405180830381865afa158015611a99573d6000803e3d6000fd5b505050506040513d6000823e601f3d908101601f19168201604052611ac19190810190613fbe565b925060005b8351811015611d3757611ae68e8386848151811061052b5761052b613ef6565b878981518110611af857611af8613ef6565b602002602001018190525060008e6001600160a01b031663fb0d5e0984878581518110611b2757611b27613ef6565b60200260200101516040518363ffffffff1660e01b8152600401611b55929190918252602082015260400190565b600060405180830381865afa158015611b72573d6000803e3d6000fd5b505050506040513d6000823e601f3d908101601f19168201604052611b9a91908101906140ec565b90508d6001600160a01b03168160018351611bb59190614128565b81518110611bc557611bc5613ef6565b6020026020010151604001516001600160a01b031603611d2457611be9898b61413b565b84600081518110611bfc57611bfc613ef6565b602002602001015110158015611c40575088611c198b6001613eb4565b611c23919061413b565b84600081518110611c3657611c36613ef6565b6020026020010151105b15611cdd57878981518110611c5757611c57613ef6565b60200260200101518885600181518110611c7357611c73613ef6565b602002602001015181518110611c8b57611c8b613ef6565b602002602001018190525083600181518110611ca957611ca9613ef6565b60200260200101516001611cbd9190613eb4565b84600181518110611cd057611cd0613ef6565b6020026020010181815250505b83600081518110611cf057611cf0613ef6565b60200260200101516001611d049190613eb4565b84600081518110611d1757611d17613ef6565b6020026020010181815250505b5080611d2f81614152565b915050611ac6565b505b81600281518110611d4c57611d4c613ef6565b602002602001015181611d5f9190613eb4565b9050611990565b611d6e6139d4565b611d766139d4565b604051632840d02f60e21b8152600481018490526001600160a01b0385169063a10340bc9060240160e060405180830381865afa158015611dbb573d6000803e3d6000fd5b505050506040513d601f19601f82011682018060405250810190611ddf91906141e4565b60e088015260c087015260a086015260808501526001600160a01b0390811660608501526020840191909152908252604051630122bf3160e51b81526004810185905290851690632457e62090602401600060405180830381865afa158015611e4c573d6000803e3d6000fd5b505050506040513d6000823e601f3d908101601f19168201604052611e749190810190613fbe565b604082015290505b92915050565b604051630122bf3160e51b81526004810182905260009081906001600160a01b03851690632457e62090602401600060405180830381865afa158015611ecc573d6000803e3d6000fd5b505050506040513d6000823e601f3d908101601f19168201604052611ef49190810190613fbe565b51949350505050565b6040516361eee2cb60e01b8152426004820181905260009182906001600160a01b038616906361eee2cb90602401602060405180830381865afa158015611f48573d6000803e3d6000fd5b505050506040513d601f19601f82011682018060405250810190611f6c9190613edd565b905080841015611fbe5760405162461bcd60e51b815260206004820152601f60248201527f4672616d65206d7573742062652063757272656e74206f7220667574757265006044820152606401610d22565b6000856001600160a01b031663b067f42d6040518163ffffffff1660e01b8152600401602060405180830381865afa158015611ffe573d6000803e3d6000fd5b505050506040513d601f19601f820116820180604052508101906120229190613edd565b90506000866001600160a01b031663ed320aa86040518163ffffffff1660e01b8152600401602060405180830381865afa158015612064573d6000803e3d6000fd5b505050506040513d601f19601f820116820180604052508101906120889190613edd565b905080821061209e576000945050505050611e7c565b60405162143a2160e61b8152600481018390526000906001600160a01b0389169063050e884090602401602060405180830381865afa1580156120e5573d6000803e3d6000fd5b505050506040513d601f19601f820116820180604052508101906121099190613edd565b905060008082905060008a6001600160a01b031663ef78d4fd6040518163ffffffff1660e01b8152600401602060405180830381865afa158015612151573d6000803e3d6000fd5b505050506040513d601f19601f820116820180604052508101906121759190613edd565b90505b8982116121ed5760008061218c8d85611d66565b80519091501561219e578060e0015191505b6121a88583613eb4565b91508b84036121cd576121bc600283614181565b9a5050505050505050505050611e7c565b6121d8600283614181565b94506121e48385613eb4565b93505050612178565b6121f8600284614181565b9b9a5050505050505050505050565b6000806122196402540be40084614244565b915061222a6402540be40084614181565b9050915091565b6040516361eee2cb60e01b81526004810184905260009081906001600160a01b038716906361eee2cb90602401602060405180830381865afa15801561227b573d6000803e3d6000fd5b505050506040513d601f19601f8201168201806040525081019061229f9190613edd565b6040516361eee2cb60e01b81524260048201529091506001600160a01b038716906361eee2cb90602401602060405180830381865afa1580156122e6573d6000803e3d6000fd5b505050506040513d601f19601f8201168201806040525081019061230a9190613edd565b8110156123595760405162461bcd60e51b815260206004820152601b60248201527f54484953204c4f5420495320494e20412050415354204652414d4500000000006044820152606401610d22565b6000806123d088848a6001600160a01b0316639592de188a6040518263ffffffff1660e01b815260040161238f91815260200190565b602060405180830381865afa1580156123ac573d6000803e3d6000fd5b505050506040513d601f19601f820116820180604052508101906101899190613edd565b60408101518051919250906123e790600190614128565b815181106123f7576123f7613ef6565b60200260200101516060015191506000886001600160a01b031663e107fb4f85856040518363ffffffff1660e01b815260040161243e929190918252602082015260400190565b602060405180830381865afa15801561245b573d6000803e3d6000fd5b505050506040513d601f19601f8201168201806040525081019061247f9190613edd565b60405163e107fb4f60e01b815260048101869052602481018890529091506000906001600160a01b038b169063e107fb4f90604401602060405180830381865afa1580156124d1573d6000803e3d6000fd5b505050506040513d601f19601f820116820180604052508101906124f59190613edd565b90508082106125075760009550612514565b6125118282614128565b95505b5050505050949350505050565b6060818311156125435760405162461bcd60e51b8152600401610d2290614195565b6000846001600160a01b031663197c4e786040518163ffffffff1660e01b8152600401602060405180830381865afa158015612583573d6000803e3d6000fd5b505050506040513d601f19601f820116820180604052508101906125a79190613edd565b9050600081116125f15760405162461bcd60e51b8152602060048201526015602482015274139bc81b1bdd1cc81a5b881d1a19481b585c9ad95d605a1b6044820152606401610d22565b6000816001600160401b0381111561260b5761260b613ec7565b604051908082528060200260200182016040528015612634578160200160208202803683370190505b509050856001600160a01b031663c0423f2e6040518163ffffffff1660e01b8152600401600060405180830381865afa158015612675573d6000803e3d6000fd5b505050506040513d6000823e601f3d908101601f1916820160405261269d9190810190613fbe565b90508185106126ee5760405162461bcd60e51b815260206004820152601b60248201527f7374617274496e646578206973206f7574206f6620626f756e647300000000006044820152606401610d22565b81841061270357612700600183614128565b93505b61270d8585614128565b612718906001613eb4565b6001600160401b0381111561272f5761272f613ec7565b60405190808252806020026020018201604052801561278457816020015b61277160405180606001604052806000815260200160008152602001606081525090565b81526020019060019003908161274d5790505b509250845b848111612926576000806127e160405180604001604052806013815260200172029a7a61d103637ba39a0b93930bcadb4ae9d1606d1b8152508585815181106127d4576127d4613ef6565b60200260200101516137f2565b6128038484815181106127f6576127f6613ef6565b6020026020010151612207565b60408051808201909152600f81526e029a7a61d10333930b6b2a5b2bc9d1608d1b6020820152919350915061283890836137f2565b6128676040518060400160405280600d81526020016c029a7a61d103637ba25b2bc9d1609d1b815250826137f2565b604051636f1aefc360e01b815260048101839052602481018290526000906001600160a01b038b1690636f1aefc390604401600060405180830381865afa1580156128b6573d6000803e3d6000fd5b505050506040513d6000823e601f3d908101601f191682016040526128de9190810190614258565b90506128f38a82600001518360200151610f68565b87858151811061290557612905613ef6565b6020026020010181905250505050808061291e90614152565b915050612789565b5050509392505050565b6060816001600160401b0381111561294a5761294a613ec7565b604051908082528060200260200182016040528015612973578160200160208202803683370190505b50905060006129806139d4565b60005b84811161292657600081886001600160a01b031663ef78d4fd6040518163ffffffff1660e01b8152600401602060405180830381865afa1580156129cb573d6000803e3d6000fd5b505050506040513d601f19601f820116820180604052508101906129ef9190613edd565b6129f9919061413b565b612a039088613eb4565b9050612a0f8882611d66565b805160405163bad1265360e01b815260048101919091529093506000906001600160a01b038a169063bad1265390602401602060405180830381865afa158015612a5d573d6000803e3d6000fd5b505050506040513d601f19601f82011682018060405250810190612a819190613f0c565b90506001816004811115612a9757612a97613f2d565b1480612ab457506003816004811115612ab257612ab2613f2d565b145b15612ae55781868681518110612acc57612acc613ef6565b602090810291909101015284612ae181614152565b9550505b50508080612af290614152565b915050612983565b6040516361eee2cb60e01b81526004810184905260009081906001600160a01b038716906361eee2cb90602401602060405180830381865afa158015612b44573d6000803e3d6000fd5b505050506040513d601f19601f82011682018060405250810190612b689190613edd565b905042866001600160a01b031663ef78d4fd6040518163ffffffff1660e01b8152600401602060405180830381865afa158015612ba9573d6000803e3d6000fd5b505050506040513d601f19601f82011682018060405250810190612bcd9190613edd565b612bd79083613eb4565b1015612c255760405162461bcd60e51b815260206004820152601d60248201527f4672616d652068617320746f20626520696e20746865206675747572650000006044820152606401610d22565b6040516312b25bc360e31b8152600481018590526000906001600160a01b03881690639592de1890602401602060405180830381865afa158015612c6d573d6000803e3d6000fd5b505050506040513d601f19601f82011682018060405250810190612c919190613edd565b60405163e107fb4f60e01b815260048101849052602481018690529091506000906001600160a01b0389169063e107fb4f90604401602060405180830381865afa158015612ce3573d6000803e3d6000fd5b505050506040513d601f19601f82011682018060405250810190612d079190613edd565b90506000612d16898585610f68565b604081015180519192508391612d2e90600190614128565b81518110612d3e57612d3e613ef6565b602002602001015160600151612d549190613eb4565b9998505050505050505050565b600080612d6e8484611d66565b604051634a00521f60e01b8152600481018590529091506000906001600160a01b03861690634a00521f90602401602060405180830381865afa158015612db9573d6000803e3d6000fd5b505050506040513d601f19601f82011682018060405250810190612ddd9190613edd565b905060008115612e9c576000612e66876001600160a01b03811663050e8840612e07600188614128565b6040518263ffffffff1660e01b8152600401612e2591815260200190565b602060405180830381865afa158015612e42573d6000803e3d6000fd5b505050506040513d601f19601f820116820180604052508101906101dd9190613edd565b905060028460e0015160028360e00151612e809190614181565b612e8a9190613eb4565b612e949190614181565b915050612eb0565b60028360e00151612ead9190614181565b90505b6000612f2282886001600160a01b031663527eb4bc6040518163ffffffff1660e01b8152600401602060405180830381865afa158015612ef4573d6000803e3d6000fd5b505050506040513d601f19601f82011682018060405250810190612f189190613edd565b600160601b61383b565b9050612f2e8183614128565b979650505050505050565b60606000826001600160401b03811115612f5557612f55613ec7565b604051908082528060200260200182016040528015612f8e57816020015b612f7b6139d4565b815260200190600190039081612f735790505b5060408051600480825260a08201909252919350600091829160208201608080368337019050509050896001600160a01b031663ef78d4fd6040518163ffffffff1660e01b8152600401602060405180830381865afa158015612ff5573d6000803e3d6000fd5b505050506040513d601f19601f820116820180604052508101906130199190613edd565b8160028151811061302c5761302c613ef6565b60209081029190910101526060885b8881116133db5760405163bad1265360e01b8152600481018290526001600160a01b038d169063bad1265390602401602060405180830381865afa158015613087573d6000803e3d6000fd5b505050506040513d601f19601f820116820180604052508101906130ab9190613f0c565b935060008460048111156130c1576130c1613f2d565b146133ae57604051630122bf3160e51b8152600481018290526001600160a01b038d1690632457e62090602401600060405180830381865afa15801561310b573d6000803e3d6000fd5b505050506040513d6000823e601f3d908101601f191682016040526131339190810190613fbe565b915060005b82518110156133ac5760008d6001600160a01b031663fb0d5e098486858151811061316557613165613ef6565b60200260200101516040518363ffffffff1660e01b8152600401613193929190918252602082015260400190565b600060405180830381865afa1580156131b0573d6000803e3d6000fd5b505050506040513d6000823e601f3d908101601f191682016040526131d891908101906140ec565b90508c6001600160a01b031681600183516131f39190614128565b8151811061320357613203613ef6565b6020026020010151604001516001600160a01b031614801561323f5750828560038151811061323457613234613ef6565b602002602001015114155b156133995761324e898b61413b565b8560008151811061326157613261613ef6565b6020026020010151101580156132a557508861327e8b6001613eb4565b613288919061413b565b8560008151811061329b5761329b613ef6565b6020026020010151105b15613332576132b48e84611d66565b88866001815181106132c8576132c8613ef6565b6020026020010151815181106132e0576132e0613ef6565b6020026020010181905250846001815181106132fe576132fe613ef6565b602002602001015160016133129190613eb4565b8560018151811061332557613325613ef6565b6020026020010181815250505b8460008151811061334557613345613ef6565b602002602001015160016133599190613eb4565b8560008151811061336c5761336c613ef6565b602002602001018181525050828560038151811061338c5761338c613ef6565b6020026020010181815250505b50806133a481614152565b915050613138565b505b826002815181106133c1576133c1613ef6565b6020026020010151816133d49190613eb4565b905061303b565b50856133e8886001613eb4565b6133f2919061413b565b8260008151811061340557613405613ef6565b6020026020010151111561344b5786868360008151811061342857613428613ef6565b602002602001015161343a9190614181565b6134449190614128565b9350613450565b600093505b505050965096945050505050565b60606000848611156134d85760405162461bcd60e51b815260206004820152603760248201527f6672616d654b65795f7374617274206d75737420626520736d616c6c6572206f60448201527f7220657175616c20746f206672616d654b65795f656e640000000000000000006064820152608401610d22565b826001600160401b038111156134f0576134f0613ec7565b60405190808252806020026020018201604052801561354557816020015b61353260405180606001604052806000815260200160008152602001606081525090565b81526020019060019003908161350e5790505b5060408051600380825260808201909252919350606091600091602082018480368337019050509050886001600160a01b031663ef78d4fd6040518163ffffffff1660e01b8152600401602060405180830381865afa1580156135ac573d6000803e3d6000fd5b505050506040513d601f19601f820116820180604052508101906135d09190613edd565b816002815181106135e3576135e3613ef6565b6020908102919091010152875b87811161142a57604051630122bf3160e51b8152600481018290526001600160a01b038b1690632457e62090602401600060405180830381865afa15801561363c573d6000803e3d6000fd5b505050506040513d6000823e601f3d908101601f191682016040526136649190810190613fbe565b925060005b83518110156137c45761367c878961413b565b8360008151811061368f5761368f613ef6565b6020026020010151101580156136d35750866136ac896001613eb4565b6136b6919061413b565b836000815181106136c9576136c9613ef6565b6020026020010151105b1561376d576136ef8b8386848151811061052b5761052b613ef6565b868460018151811061370357613703613ef6565b60200260200101518151811061371b5761371b613ef6565b60200260200101819052508260018151811061373957613739613ef6565b6020026020010151600161374d9190613eb4565b8360018151811061376057613760613ef6565b6020026020010181815250505b8260008151811061378057613780613ef6565b602002602001015160016137949190613eb4565b836000815181106137a7576137a7613ef6565b6020908102919091010152806137bc81614152565b915050613669565b50816002815181106137d8576137d8613ef6565b6020026020010151816137eb9190613eb4565b90506135f0565b61383782826040516024016138089291906142f0565b60408051601f198184030181529190526020810180516001600160e01b0316632d839cb360e21b1790526139a7565b5050565b6000808060001985870985870292508281108382030391505080600003613874576000841161386957600080fd5b508290049050610cf9565b80841161388057600080fd5b6000848688098084039381119092039190506000856138a181196001613eb4565b169586900495938490049360008190030460010190506138c1818461413b565b9093179260006138d287600361413b565b60021890506138e1818861413b565b6138ec906002614128565b6138f6908261413b565b9050613902818861413b565b61390d906002614128565b613917908261413b565b9050613923818861413b565b61392e906002614128565b613938908261413b565b9050613944818861413b565b61394f906002614128565b613959908261413b565b9050613965818861413b565b613970906002614128565b61397a908261413b565b9050613986818861413b565b613991906002614128565b61399b908261413b565b9050612d54818661413b565b6139b0816139b3565b50565b60006a636f6e736f6c652e6c6f679050600080835160208501845afa505050565b60405180610100016040528060008152602001600081526020016060815260200160006001600160a01b03168152602001600081526020016000815260200160008152602001600081525090565b6040518060a00160405280600081526020016000815260200160006001600160a01b0316815260200160008152602001600081525090565b6001600160a01b03811681146139b057600080fd5b600080600080600080600060e0888a031215613a8a57600080fd5b8735613a9581613a5a565b96506020880135613aa581613a5a565b96999698505050506040850135946060810135946080820135945060a0820135935060c0909101359150565b600060608084018351855260208085015181870152604080860151848289015283815180865260809550858a019150848301925060005b81811015613b50578351805184528681015187850152858101516001600160a01b0316868501528881015189850152870151878401529285019260a090920191600101613b08565b50909998505050505050505050565b600082825180855260208086019550808260051b84010181860160005b84811015613baa57601f19868403018952613b98838351613ad1565b98840198925090830190600101613b7c565b5090979650505050505050565b604081526000613bca6040830185613b5f565b90508260208301529392505050565b600080600060608486031215613bee57600080fd5b8335613bf981613a5a565b95602085013595506040909401359392505050565b600081518084526020808501945080840160005b83811015613c3e57815187529582019590820190600101613c22565b509495945050505050565b600061010082518452602083015160208501526040830151816040860152613c7382860182613c0e565b91505060018060a01b0360608401511660608501526080830151608085015260a083015160a085015260c083015160c085015260e083015160e08501528091505092915050565b600081518084526020808501808196508360051b8101915082860160005b85811015613d02578284038952613cf0848351613c49565b98850198935090840190600101613cd8565b5091979650505050505050565b602081526000610cf96020830184613cba565b602081526000610cf96020830184613ad1565b600080600080600060a08688031215613d4d57600080fd5b8535613d5881613a5a565b97602087013597506040870135966060810135965060800135945092505050565b604081526000613bca6040830185613cba565b60008060408385031215613d9f57600080fd5b8235613daa81613a5a565b946020939093013593505050565b602081526000610cf96020830184613c49565b600060208284031215613ddd57600080fd5b5035919050565b60008060008060808587031215613dfa57600080fd5b8435613e0581613a5a565b966020860135965060408601359560600135945092505050565b602081526000610cf96020830184613b5f565b602081526000610cf96020830184613c0e565b60008060008060008060c08789031215613e5e57600080fd5b8635613e6981613a5a565b95506020870135613e7981613a5a565b95989597505050506040840135936060810135936080820135935060a0909101359150565b634e487b7160e01b600052601160045260246000fd5b80820180821115611e7c57611e7c613e9e565b634e487b7160e01b600052604160045260246000fd5b600060208284031215613eef57600080fd5b5051919050565b634e487b7160e01b600052603260045260246000fd5b600060208284031215613f1e57600080fd5b815160058110610cf957600080fd5b634e487b7160e01b600052602160045260246000fd5b60405160a081016001600160401b0381118282101715613f6557613f65613ec7565b60405290565b604051601f8201601f191681016001600160401b0381118282101715613f9357613f93613ec7565b604052919050565b60006001600160401b03821115613fb457613fb4613ec7565b5060051b60200190565b60006020808385031215613fd157600080fd5b82516001600160401b03811115613fe757600080fd5b8301601f81018513613ff857600080fd5b805161400b61400682613f9b565b613f6b565b81815260059190911b8201830190838101908783111561402a57600080fd5b928401925b82841015612f2e5783518252928401929084019061402f565b600082601f83011261405957600080fd5b8151602061406961400683613f9b565b82815260a0928302850182019282820191908785111561408857600080fd5b8387015b85811015613baa5781818a0312156140a45760008081fd5b6140ac613f43565b8151815285820151868201526040808301516140c781613a5a565b908201526060828101519082015260808083015190820152845292840192810161408c565b6000602082840312156140fe57600080fd5b81516001600160401b0381111561411457600080fd5b61412084828501614048565b949350505050565b81810381811115611e7c57611e7c613e9e565b8082028115828204841417611e7c57611e7c613e9e565b60006001820161416457614164613e9e565b5060010190565b634e487b7160e01b600052601260045260246000fd5b6000826141905761419061416b565b500490565b6020808252602f908201527f7374617274496e646578206d75737420626520736d616c6c6572206f7220657160408201526e0eac2d840e8de40cadcc892dcc8caf608b1b606082015260800190565b600080600080600080600060e0888a0312156141ff57600080fd5b8751965060208801519550604088015161421881613a5a565b80955050606088015193506080880151925060a0880151915060c0880151905092959891949750929550565b6000826142535761425361416b565b500690565b60006020828403121561426a57600080fd5b81516001600160401b038082111561428157600080fd5b908301906060828603121561429557600080fd5b6040516060810181811083821117156142b0576142b0613ec7565b806040525082518152602083015160208201526040830151828111156142d557600080fd5b6142e187828601614048565b60408301525095945050505050565b604081526000835180604084015260005b8181101561431e5760208187018101516060868401015201614301565b506000606082850101526060601f19601f830116840101915050826020830152939250505056fea2646970667358221220ecbdcc1bb57ecc8eedf9027437aa92145b6eeb115d6343550aa16eadd33224ca64736f6c63430008140033",
  "linkReferences": {},
  "deployedLinkReferences": {}
}