{
  "_format": "hh-sol-artifact-1",
  "contractName": "MarketGetter",
  "sourceName": "contracts/MarketGetter.sol",
  "abi": [
    {
      "inputs": [
        {
          "internalType": "contract Market",
          "name": "market",
          "type": "address"
        },
        {
          "internalType": "uint256",
          "name": "frameKey",
          "type": "uint256"
        }
      ],
      "name": "clcPrice",
      "outputs": [
        {
          "internalType": "uint256",
          "name": "avgPrice",
          "type": "uint256"
        }
      ],
      "stateMutability": "view",
      "type": "function"
    },
    {
      "inputs": [
        {
          "internalType": "contract Market",
          "name": "market",
          "type": "address"
        },
        {
          "internalType": "uint256",
          "name": "frameKey",
          "type": "uint256"
        }
      ],
      "name": "getFrameStruct",
      "outputs": [
        {
          "components": [
            {
              "internalType": "uint256",
              "name": "frameKey",
              "type": "uint256"
            },
            {
              "internalType": "uint256",
              "name": "oracleTimestampStart",
              "type": "uint256"
            },
            {
              "internalType": "uint256",
              "name": "oracleTimestampEnd",
              "type": "uint256"
            },
            {
              "internalType": "uint256",
              "name": "rewardFund",
              "type": "uint256"
            },
            {
              "internalType": "uint256",
              "name": "priceAverage",
              "type": "uint256"
            },
            {
              "internalType": "uint256",
              "name": "oraclePrice0CumulativeStart",
              "type": "uint256"
            },
            {
              "internalType": "uint256",
              "name": "oraclePrice0CumulativeEnd",
              "type": "uint256"
            },
            {
              "internalType": "uint256",
              "name": "oraclePrice1CumulativeStart",
              "type": "uint256"
            },
            {
              "internalType": "uint256",
              "name": "oraclePrice1CumulativeEnd",
              "type": "uint256"
            },
            {
              "internalType": "enum MLib.SFrame",
              "name": "state",
              "type": "uint8"
            },
            {
              "internalType": "uint256[]",
              "name": "lotKeys",
              "type": "uint256[]"
            }
          ],
          "internalType": "struct MLib.Frame",
          "name": "",
          "type": "tuple"
        }
      ],
      "stateMutability": "view",
      "type": "function"
    },
    {
      "inputs": [
        {
          "internalType": "contract Market",
          "name": "market",
          "type": "address"
        },
        {
          "internalType": "uint256",
          "name": "frameKey_start",
          "type": "uint256"
        },
        {
          "internalType": "uint256",
          "name": "frameKey_end",
          "type": "uint256"
        },
        {
          "internalType": "uint256",
          "name": "page",
          "type": "uint256"
        },
        {
          "internalType": "uint256",
          "name": "perPage",
          "type": "uint256"
        }
      ],
      "name": "getFrames",
      "outputs": [
        {
          "components": [
            {
              "internalType": "uint256",
              "name": "frameKey",
              "type": "uint256"
            },
            {
              "internalType": "uint256",
              "name": "oracleTimestampStart",
              "type": "uint256"
            },
            {
              "internalType": "uint256",
              "name": "oracleTimestampEnd",
              "type": "uint256"
            },
            {
              "internalType": "uint256",
              "name": "rewardFund",
              "type": "uint256"
            },
            {
              "internalType": "uint256",
              "name": "priceAverage",
              "type": "uint256"
            },
            {
              "internalType": "uint256",
              "name": "oraclePrice0CumulativeStart",
              "type": "uint256"
            },
            {
              "internalType": "uint256",
              "name": "oraclePrice0CumulativeEnd",
              "type": "uint256"
            },
            {
              "internalType": "uint256",
              "name": "oraclePrice1CumulativeStart",
              "type": "uint256"
            },
            {
              "internalType": "uint256",
              "name": "oraclePrice1CumulativeEnd",
              "type": "uint256"
            },
            {
              "internalType": "enum MLib.SFrame",
              "name": "state",
              "type": "uint8"
            },
            {
              "internalType": "uint256[]",
              "name": "lotKeys",
              "type": "uint256[]"
            }
          ],
          "internalType": "struct MLib.Frame[]",
          "name": "frames",
          "type": "tuple[]"
        },
        {
          "internalType": "uint256",
          "name": "pagesLeft",
          "type": "uint256"
        }
      ],
      "stateMutability": "view",
      "type": "function"
    },
    {
      "inputs": [
        {
          "internalType": "contract Market",
          "name": "market",
          "type": "address"
        },
        {
          "internalType": "uint256",
          "name": "frameKey",
          "type": "uint256"
        },
        {
          "internalType": "uint256",
          "name": "index",
          "type": "uint256"
        }
      ],
      "name": "getLotKey",
      "outputs": [
        {
          "internalType": "uint256",
          "name": "",
          "type": "uint256"
        }
      ],
      "stateMutability": "view",
      "type": "function"
    },
    {
      "inputs": [
        {
          "internalType": "contract Market",
          "name": "market",
          "type": "address"
        },
        {
          "internalType": "uint256",
          "name": "frameKey",
          "type": "uint256"
        },
        {
          "internalType": "uint256",
          "name": "lotKey",
          "type": "uint256"
        },
        {
          "internalType": "uint256",
          "name": "lotVer",
          "type": "uint256"
        }
      ],
      "name": "getLotStruct",
      "outputs": [
        {
          "components": [
            {
              "internalType": "uint256",
              "name": "frameKey",
              "type": "uint256"
            },
            {
              "internalType": "uint256",
              "name": "lotKey",
              "type": "uint256"
            },
            {
              "internalType": "address",
              "name": "lotOwner",
              "type": "address"
            },
            {
              "internalType": "uint256",
              "name": "acquisitionPrice",
              "type": "uint256"
            },
            {
              "internalType": "uint256",
              "name": "taxPaid",
              "type": "uint256"
            },
            {
              "internalType": "enum MLib.SLot",
              "name": "state",
              "type": "uint8"
            }
          ],
          "internalType": "struct MLib.Lot",
          "name": "",
          "type": "tuple"
        }
      ],
      "stateMutability": "view",
      "type": "function"
    },
    {
      "inputs": [
        {
          "internalType": "contract Market",
          "name": "market",
          "type": "address"
        },
        {
          "internalType": "uint256",
          "name": "frameKey",
          "type": "uint256"
        }
      ],
      "name": "getLotsCount",
      "outputs": [
        {
          "internalType": "uint256",
          "name": "",
          "type": "uint256"
        }
      ],
      "stateMutability": "view",
      "type": "function"
    },
    {
      "inputs": [
        {
          "internalType": "contract Market",
          "name": "market",
          "type": "address"
        },
        {
          "internalType": "uint256",
          "name": "startFrame",
          "type": "uint256"
        },
        {
          "internalType": "uint256",
          "name": "numOfFrames",
          "type": "uint256"
        }
      ],
      "name": "getOpenFrameKeys",
      "outputs": [
        {
          "internalType": "uint256[]",
          "name": "openFrames",
          "type": "uint256[]"
        }
      ],
      "stateMutability": "view",
      "type": "function"
    },
    {
      "inputs": [
        {
          "internalType": "contract Market",
          "name": "market",
          "type": "address"
        },
        {
          "internalType": "uint256",
          "name": "frameKey",
          "type": "uint256"
        }
      ],
      "name": "getRewardAmount",
      "outputs": [
        {
          "internalType": "uint256",
          "name": "",
          "type": "uint256"
        }
      ],
      "stateMutability": "view",
      "type": "function"
    },
    {
      "inputs": [
        {
          "internalType": "contract Market",
          "name": "market",
          "type": "address"
        },
        {
          "internalType": "uint256",
          "name": "startIndex",
          "type": "uint256"
        },
        {
          "internalType": "uint256",
          "name": "endIndex",
          "type": "uint256"
        }
      ],
      "name": "getUserAddressesPaginated",
      "outputs": [
        {
          "internalType": "address[]",
          "name": "",
          "type": "address[]"
        }
      ],
      "stateMutability": "view",
      "type": "function"
    },
    {
      "inputs": [
        {
          "internalType": "contract Market",
          "name": "market",
          "type": "address"
        },
        {
          "internalType": "address",
          "name": "userPubKey",
          "type": "address"
        }
      ],
      "name": "getUserStruct",
      "outputs": [
        {
          "components": [
            {
              "internalType": "address",
              "name": "userPublicKey",
              "type": "address"
            },
            {
              "internalType": "uint256",
              "name": "commulativeTax",
              "type": "uint256"
            },
            {
              "internalType": "address[]",
              "name": "referrals",
              "type": "address[]"
            },
            {
              "internalType": "address",
              "name": "referredBy",
              "type": "address"
            }
          ],
          "internalType": "struct MLib.User",
          "name": "user",
          "type": "tuple"
        }
      ],
      "stateMutability": "view",
      "type": "function"
    },
    {
      "inputs": [
        {
          "internalType": "contract Market",
          "name": "market",
          "type": "address"
        },
        {
          "internalType": "uint256",
          "name": "endIndex",
          "type": "uint256"
        },
        {
          "internalType": "uint256",
          "name": "startIndex",
          "type": "uint256"
        }
      ],
      "name": "getUserStructs",
      "outputs": [
        {
          "components": [
            {
              "internalType": "address",
              "name": "userPublicKey",
              "type": "address"
            },
            {
              "internalType": "uint256",
              "name": "commulativeTax",
              "type": "uint256"
            },
            {
              "internalType": "address[]",
              "name": "referrals",
              "type": "address[]"
            },
            {
              "internalType": "address",
              "name": "referredBy",
              "type": "address"
            }
          ],
          "internalType": "struct MLib.User[]",
          "name": "users",
          "type": "tuple[]"
        }
      ],
      "stateMutability": "view",
      "type": "function"
    }
  ],
  "bytecode": "0x608060405234801561001057600080fd5b50612fc7806100206000396000f3fe608060405234801561001057600080fd5b50600436106100a95760003560e01c8063a514723f11610071578063a514723f1461019f578063a859a121146101cf578063c8ddd521146101ff578063da4e85561461022f578063dbd20a881461025f578063ee707ed91461028f576100a9565b80632c79854f146100ae578063612d8b50146100de5780637f424a371461010f5780639291178e1461013f57806398857eaf1461016f575b600080fd5b6100c860048036038101906100c39190611fe4565b6102bf565b6040516100d59190612a3d565b60405180910390f35b6100f860048036038101906100f39190612096565b61039d565b60405161010692919061294a565b60405180910390f35b61012960048036038101906101249190611fa8565b610980565b60405161013691906129de565b60405180910390f35b61015960048036038101906101549190611fa8565b610c72565b6040516101669190612a3d565b60405180910390f35b61018960048036038101906101849190611fe4565b610d10565b6040516101969190612928565b60405180910390f35b6101b960048036038101906101b49190612033565b610f5a565b6040516101c69190612a00565b60405180910390f35b6101e960048036038101906101e49190611fe4565b6110d5565b6040516101f6919061297a565b60405180910390f35b61021960048036038101906102149190611f6c565b611421565b6040516102269190612a1b565b60405180910390f35b61024960048036038101906102449190611fa8565b6115a8565b6040516102569190612a3d565b60405180910390f35b61027960048036038101906102749190611fe4565b611673565b604051610286919061299c565b60405180910390f35b6102a960048036038101906102a49190611fa8565b61187d565b6040516102b69190612a3d565b60405180910390f35b6000808473ffffffffffffffffffffffffffffffffffffffff1663ab02f2a9856040518263ffffffff1660e01b81526004016102fb9190612a3d565b60006040518083038186803b15801561031357600080fd5b505afa158015610327573d6000803e3d6000fd5b505050506040513d6000823e3d601f19601f820116820180604052508101906103509190611f02565b905080838151811061038b577f4e487b7100000000000000000000000000000000000000000000000000000000600052603260045260246000fd5b60200260200101519150509392505050565b606060008267ffffffffffffffff8111156103e1577f4e487b7100000000000000000000000000000000000000000000000000000000600052604160045260246000fd5b60405190808252806020026020018201604052801561041a57816020015b610407611b34565b8152602001906001900390816103ff5790505b509150610425611b34565b6000600367ffffffffffffffff811115610468577f4e487b7100000000000000000000000000000000000000000000000000000000600052604160045260246000fd5b6040519080825280602002602001820160405280156104965781602001602082028036833780820191505090505b5090508873ffffffffffffffffffffffffffffffffffffffff1663ef78d4fd6040518163ffffffff1660e01b815260040160206040518083038186803b1580156104df57600080fd5b505afa1580156104f3573d6000803e3d6000fd5b505050506040513d601f19601f82011682018060405250810190610517919061210d565b81600281518110610551577f4e487b7100000000000000000000000000000000000000000000000000000000600052603260045260246000fd5b60200260200101818152505060008890505b8781116108af576105748a82610980565b9250600060028111156105b0577f4e487b7100000000000000000000000000000000000000000000000000000000600052602160045260246000fd5b83610120015160028111156105ee577f4e487b7100000000000000000000000000000000000000000000000000000000600052602160045260246000fd5b1461085b5785876105ff9190612cb6565b82600081518110610639577f4e487b7100000000000000000000000000000000000000000000000000000000600052603260045260246000fd5b6020026020010151101580156106a65750856001886106589190612c2f565b6106629190612cb6565b8260008151811061069c577f4e487b7100000000000000000000000000000000000000000000000000000000600052603260045260246000fd5b6020026020010151105b156107c6578285836001815181106106e7577f4e487b7100000000000000000000000000000000000000000000000000000000600052603260045260246000fd5b602002602001015181518110610726577f4e487b7100000000000000000000000000000000000000000000000000000000600052603260045260246000fd5b602002602001018190525060018260018151811061076d577f4e487b7100000000000000000000000000000000000000000000000000000000600052603260045260246000fd5b602002602001015161077f9190612c2f565b826001815181106107b9577f4e487b7100000000000000000000000000000000000000000000000000000000600052603260045260246000fd5b6020026020010181815250505b600182600081518110610802577f4e487b7100000000000000000000000000000000000000000000000000000000600052603260045260246000fd5b60200260200101516108149190612c2f565b8260008151811061084e577f4e487b7100000000000000000000000000000000000000000000000000000000600052603260045260246000fd5b6020026020010181815250505b81600281518110610895577f4e487b7100000000000000000000000000000000000000000000000000000000600052603260045260246000fd5b6020026020010151816108a89190612c2f565b9050610563565b50846001876108be9190612c2f565b6108c89190612cb6565b81600081518110610902577f4e487b7100000000000000000000000000000000000000000000000000000000600052603260045260246000fd5b6020026020010151111561096f5785858260008151811061094c577f4e487b7100000000000000000000000000000000000000000000000000000000600052603260045260246000fd5b602002602001015161095e9190612c85565b6109689190612d10565b9250610974565b600092505b50509550959350505050565b610988611b34565b610990611b34565b8373ffffffffffffffffffffffffffffffffffffffff1663a10340bc846040518263ffffffff1660e01b81526004016109c99190612a3d565b6101406040518083038186803b1580156109e257600080fd5b505afa1580156109f6573d6000803e3d6000fd5b505050506040513d601f19601f82011682018060405250810190610a1a91906121bf565b909192939495509091929394509091929350909192509091509050508360000184602001856040018381525083815250838152505050508373ffffffffffffffffffffffffffffffffffffffff1663a10340bc846040518263ffffffff1660e01b8152600401610a8a9190612a3d565b6101406040518083038186803b158015610aa357600080fd5b505afa158015610ab7573d6000803e3d6000fd5b505050506040513d601f19601f82011682018060405250810190610adb91906121bf565b90919293949596979850909192939495969750909192939495965090915090505084606001856080018660a0018760c00184815250848152508481525084815250505050508373ffffffffffffffffffffffffffffffffffffffff1663a10340bc846040518263ffffffff1660e01b8152600401610b599190612a3d565b6101406040518083038186803b158015610b7257600080fd5b505afa158015610b86573d6000803e3d6000fd5b505050506040513d601f19601f82011682018060405250810190610baa91906121bf565b909192939495969798509091929394959697509091929394959650909192939495509091929394509091929350909192508360e00184610100018561012001836002811115610c22577f4e487b7100000000000000000000000000000000000000000000000000000000600052602160045260246000fd5b6002811115610c5a577f4e487b7100000000000000000000000000000000000000000000000000000000600052602160045260246000fd5b81525083815250838152505050508091505092915050565b6000808373ffffffffffffffffffffffffffffffffffffffff1663ab02f2a9846040518263ffffffff1660e01b8152600401610cae9190612a3d565b60006040518083038186803b158015610cc657600080fd5b505afa158015610cda573d6000803e3d6000fd5b505050506040513d6000823e3d601f19601f82011682018060405250810190610d039190611f02565b9050805191505092915050565b606060008473ffffffffffffffffffffffffffffffffffffffff1663a591efde6040518163ffffffff1660e01b815260040160006040518083038186803b158015610d5a57600080fd5b505afa158015610d6e573d6000803e3d6000fd5b505050506040513d6000823e3d601f19601f82011682018060405250810190610d979190611ec1565b905080518311158015610daa5750828411155b610de9576040517f08c379a0000000000000000000000000000000000000000000000000000000008152600401610de0906129be565b60405180910390fd5b60008484610df79190612d10565b905060008167ffffffffffffffff811115610e3b577f4e487b7100000000000000000000000000000000000000000000000000000000600052604160045260246000fd5b604051908082528060200260200182016040528015610e695781602001602082028036833780820191505090505b50905060008690505b85811015610f4c57838181518110610eb3577f4e487b7100000000000000000000000000000000000000000000000000000000600052603260045260246000fd5b6020026020010151828883610ec89190612d10565b81518110610eff577f4e487b7100000000000000000000000000000000000000000000000000000000600052603260045260246000fd5b602002602001019073ffffffffffffffffffffffffffffffffffffffff16908173ffffffffffffffffffffffffffffffffffffffff16815250508080610f4490612de8565b915050610e72565b508093505050509392505050565b610f62611bc6565b610f6a611bc6565b8573ffffffffffffffffffffffffffffffffffffffff1663c106c1f68686866040518463ffffffff1660e01b8152600401610fa793929190612a58565b60c06040518083038186803b158015610fbf57600080fd5b505afa158015610fd3573d6000803e3d6000fd5b505050506040513d601f19601f82011682018060405250810190610ff79190612136565b866000018760200188604001896060018a6080018b60a001866002811115611048577f4e487b7100000000000000000000000000000000000000000000000000000000600052602160045260246000fd5b6002811115611080577f4e487b7100000000000000000000000000000000000000000000000000000000600052602160045260246000fd5b81525086815250868152508673ffffffffffffffffffffffffffffffffffffffff1673ffffffffffffffffffffffffffffffffffffffff16815250868152508681525050505050505080915050949350505050565b606060008473ffffffffffffffffffffffffffffffffffffffff1663a591efde6040518163ffffffff1660e01b815260040160006040518083038186803b15801561111f57600080fd5b505afa158015611133573d6000803e3d6000fd5b505050506040513d6000823e3d601f19601f8201168201806040525081019061115c9190611ec1565b90506000838561116c9190612d10565b90508067ffffffffffffffff8111156111ae577f4e487b7100000000000000000000000000000000000000000000000000000000600052604160045260246000fd5b6040519080825280602002602001820160405280156111e757816020015b6111d4611c4a565b8152602001906001900390816111cc5790505b50925060008490505b85811015611417576000838281518110611233577f4e487b7100000000000000000000000000000000000000000000000000000000600052603260045260246000fd5b6020026020010151905060008060008a73ffffffffffffffffffffffffffffffffffffffff1663a87430ba856040518263ffffffff1660e01b815260040161127b919061290d565b60606040518083038186803b15801561129357600080fd5b505afa1580156112a7573d6000803e3d6000fd5b505050506040513d601f19601f820116820180604052508101906112cb9190611e72565b92509250925060008b73ffffffffffffffffffffffffffffffffffffffff1663575cea6b866040518263ffffffff1660e01b815260040161130c919061290d565b60006040518083038186803b15801561132457600080fd5b505afa158015611338573d6000803e3d6000fd5b505050506040513d6000823e3d601f19601f820116820180604052508101906113619190611ec1565b905060405180608001604052808573ffffffffffffffffffffffffffffffffffffffff1681526020018481526020018281526020018373ffffffffffffffffffffffffffffffffffffffff16815250898b886113bd9190612d10565b815181106113f4577f4e487b7100000000000000000000000000000000000000000000000000000000600052603260045260246000fd5b60200260200101819052505050505050808061140f90612de8565b9150506111f0565b5050509392505050565b611429611c4a565b60008060008573ffffffffffffffffffffffffffffffffffffffff1663a87430ba866040518263ffffffff1660e01b8152600401611467919061290d565b60606040518083038186803b15801561147f57600080fd5b505afa158015611493573d6000803e3d6000fd5b505050506040513d601f19601f820116820180604052508101906114b79190611e72565b92509250925060008673ffffffffffffffffffffffffffffffffffffffff1663575cea6b876040518263ffffffff1660e01b81526004016114f8919061290d565b60006040518083038186803b15801561151057600080fd5b505afa158015611524573d6000803e3d6000fd5b505050506040513d6000823e3d601f19601f8201168201806040525081019061154d9190611ec1565b905060405180608001604052808573ffffffffffffffffffffffffffffffffffffffff1681526020018481526020018281526020018373ffffffffffffffffffffffffffffffffffffffff1681525094505050505092915050565b6000808373ffffffffffffffffffffffffffffffffffffffff1663a10340bc846040518263ffffffff1660e01b81526004016115e49190612a3d565b6101406040518083038186803b1580156115fd57600080fd5b505afa158015611611573d6000803e3d6000fd5b505050506040513d601f19601f8201168201806040525081019061163591906121bf565b909192939495969798509091929394959697509091929394959650909192939450909192935090919250909150905050809150508091505092915050565b60608167ffffffffffffffff8111156116b5577f4e487b7100000000000000000000000000000000000000000000000000000000600052604160045260246000fd5b6040519080825280602002602001820160405280156116e35781602001602082028036833780820191505090505b5090506116ee611b34565b60005b838111611874576000818773ffffffffffffffffffffffffffffffffffffffff1663ef78d4fd6040518163ffffffff1660e01b815260040160206040518083038186803b15801561174157600080fd5b505afa158015611755573d6000803e3d6000fd5b505050506040513d601f19601f82011682018060405250810190611779919061210d565b6117839190612cb6565b8661178e9190612c2f565b905061179a8782610980565b9250600060028111156117d6577f4e487b7100000000000000000000000000000000000000000000000000000000600052602160045260246000fd5b8361012001516002811115611814577f4e487b7100000000000000000000000000000000000000000000000000000000600052602160045260246000fd5b146118605780848381518110611853577f4e487b7100000000000000000000000000000000000000000000000000000000600052603260045260246000fd5b6020026020010181815250505b50808061186c90612de8565b9150506116f1565b50509392505050565b60008273ffffffffffffffffffffffffffffffffffffffff1663652c8ded836040518263ffffffff1660e01b81526004016118b89190612a3d565b60006040518083038186803b1580156118d057600080fd5b505afa1580156118e4573d6000803e3d6000fd5b5050505060008373ffffffffffffffffffffffffffffffffffffffff16638f9eca826040518163ffffffff1660e01b815260040160206040518083038186803b15801561193057600080fd5b505afa158015611944573d6000803e3d6000fd5b505050506040513d601f19601f820116820180604052508101906119689190611f43565b905060008473ffffffffffffffffffffffffffffffffffffffff1663f45e65d86040518163ffffffff1660e01b815260040160206040518083038186803b1580156119b257600080fd5b505afa1580156119c6573d6000803e3d6000fd5b505050506040513d601f19601f820116820180604052508101906119ea919061210d565b905060006119f88686610980565b9050600081602001518260400151611a109190612d10565b90508315611a8257611a6b6040518060200160405280838560a001518660c00151611a3b9190612d10565b611a459190612c85565b7bffffffffffffffffffffffffffffffffffffffffffffffffffffffff16815250611b01565b6dffffffffffffffffffffffffffff169450611ae9565b611ad66040518060200160405280838560e00151866101000151611aa69190612d10565b611ab09190612c85565b7bffffffffffffffffffffffffffffffffffffffffffffffffffffffff16815250611b01565b6dffffffffffffffffffffffffffff1694505b8285611af59190612cb6565b94505050505092915050565b6000607060ff1682600001517bffffffffffffffffffffffffffffffffffffffffffffffffffffffff16901c9050919050565b60405180610160016040528060008152602001600081526020016000815260200160008152602001600081526020016000815260200160008152602001600081526020016000815260200160006002811115611bb9577f4e487b7100000000000000000000000000000000000000000000000000000000600052602160045260246000fd5b8152602001606081525090565b6040518060c001604052806000815260200160008152602001600073ffffffffffffffffffffffffffffffffffffffff168152602001600081526020016000815260200160006002811115611c44577f4e487b7100000000000000000000000000000000000000000000000000000000600052602160045260246000fd5b81525090565b6040518060800160405280600073ffffffffffffffffffffffffffffffffffffffff1681526020016000815260200160608152602001600073ffffffffffffffffffffffffffffffffffffffff1681525090565b6000611cb1611cac84612ac0565b612a8f565b90508083825260208201905082856020860282011115611cd057600080fd5b60005b85811015611d005781611ce68882611d8b565b845260208401935060208301925050600181019050611cd3565b5050509392505050565b6000611d1d611d1884612aec565b612a8f565b90508083825260208201905082856020860282011115611d3c57600080fd5b60005b85811015611d6c5781611d528882611e5d565b845260208401935060208301925050600181019050611d3f565b5050509392505050565b600081359050611d8581612f15565b92915050565b600081519050611d9a81612f15565b92915050565b600082601f830112611db157600080fd5b8151611dc1848260208601611c9e565b91505092915050565b600082601f830112611ddb57600080fd5b8151611deb848260208601611d0a565b91505092915050565b600081519050611e0381612f2c565b92915050565b600081359050611e1881612f43565b92915050565b600081519050611e2d81612f5a565b92915050565b600081519050611e4281612f6a565b92915050565b600081359050611e5781612f7a565b92915050565b600081519050611e6c81612f7a565b92915050565b600080600060608486031215611e8757600080fd5b6000611e9586828701611d8b565b9350506020611ea686828701611e5d565b9250506040611eb786828701611d8b565b9150509250925092565b600060208284031215611ed357600080fd5b600082015167ffffffffffffffff811115611eed57600080fd5b611ef984828501611da0565b91505092915050565b600060208284031215611f1457600080fd5b600082015167ffffffffffffffff811115611f2e57600080fd5b611f3a84828501611dca565b91505092915050565b600060208284031215611f5557600080fd5b6000611f6384828501611df4565b91505092915050565b60008060408385031215611f7f57600080fd5b6000611f8d85828601611e09565b9250506020611f9e85828601611d76565b9150509250929050565b60008060408385031215611fbb57600080fd5b6000611fc985828601611e09565b9250506020611fda85828601611e48565b9150509250929050565b600080600060608486031215611ff957600080fd5b600061200786828701611e09565b935050602061201886828701611e48565b925050604061202986828701611e48565b9150509250925092565b6000806000806080858703121561204957600080fd5b600061205787828801611e09565b945050602061206887828801611e48565b935050604061207987828801611e48565b925050606061208a87828801611e48565b91505092959194509250565b600080600080600060a086880312156120ae57600080fd5b60006120bc88828901611e09565b95505060206120cd88828901611e48565b94505060406120de88828901611e48565b93505060606120ef88828901611e48565b925050608061210088828901611e48565b9150509295509295909350565b60006020828403121561211f57600080fd5b600061212d84828501611e5d565b91505092915050565b60008060008060008060c0878903121561214f57600080fd5b600061215d89828a01611e5d565b965050602061216e89828a01611e5d565b955050604061217f89828a01611d8b565b945050606061219089828a01611e5d565b93505060806121a189828a01611e5d565b92505060a06121b289828a01611e33565b9150509295509295509295565b6000806000806000806000806000806101408b8d0312156121df57600080fd5b60006121ed8d828e01611e5d565b9a505060206121fe8d828e01611e5d565b995050604061220f8d828e01611e5d565b98505060606122208d828e01611e5d565b97505060806122318d828e01611e5d565b96505060a06122428d828e01611e5d565b95505060c06122538d828e01611e5d565b94505060e06122648d828e01611e5d565b9350506101006122768d828e01611e5d565b9250506101206122888d828e01611e1e565b9150509295989b9194979a5092959850565b60006122a683836122f2565b60208301905092915050565b60006122be83836125d0565b905092915050565b60006122d28383612829565b905092915050565b60006122e683836128ef565b60208301905092915050565b6122fb81612d44565b82525050565b61230a81612d44565b82525050565b600061231b82612b58565b6123258185612bb8565b935061233083612b18565b8060005b83811015612361578151612348888261229a565b975061235383612b84565b925050600181019050612334565b5085935050505092915050565b600061237982612b58565b6123838185612bc9565b935061238e83612b18565b8060005b838110156123bf5781516123a6888261229a565b97506123b183612b84565b925050600181019050612392565b5085935050505092915050565b60006123d782612b63565b6123e18185612bda565b9350836020820285016123f385612b28565b8060005b8581101561242f578484038952815161241085826122b2565b945061241b83612b91565b925060208a019950506001810190506123f7565b50829750879550505050505092915050565b600061244c82612b6e565b6124568185612beb565b93508360208202850161246885612b38565b8060005b858110156124a4578484038952815161248585826122c6565b945061249083612b9e565b925060208a0199505060018101905061246c565b50829750879550505050505092915050565b60006124c182612b79565b6124cb8185612bfc565b93506124d683612b48565b8060005b838110156125075781516124ee88826122da565b97506124f983612bab565b9250506001810190506124da565b5085935050505092915050565b600061251f82612b79565b6125298185612c0d565b935061253483612b48565b8060005b8381101561256557815161254c88826122da565b975061255783612bab565b925050600181019050612538565b5085935050505092915050565b61257b81612dc4565b82525050565b61258a81612dd6565b82525050565b600061259d600d83612c1e565b91507f496e76616c696420696e646578000000000000000000000000000000000000006000830152602082019050919050565b6000610160830160008301516125e960008601826128ef565b5060208301516125fc60208601826128ef565b50604083015161260f60408601826128ef565b50606083015161262260608601826128ef565b50608083015161263560808601826128ef565b5060a083015161264860a08601826128ef565b5060c083015161265b60c08601826128ef565b5060e083015161266e60e08601826128ef565b506101008301516126836101008601826128ef565b50610120830151612698610120860182612572565b506101408301518482036101408601526126b282826124b6565b9150508091505092915050565b6000610160830160008301516126d860008601826128ef565b5060208301516126eb60208601826128ef565b5060408301516126fe60408601826128ef565b50606083015161271160608601826128ef565b50608083015161272460808601826128ef565b5060a083015161273760a08601826128ef565b5060c083015161274a60c08601826128ef565b5060e083015161275d60e08601826128ef565b506101008301516127726101008601826128ef565b50610120830151612787610120860182612572565b506101408301518482036101408601526127a182826124b6565b9150508091505092915050565b60c0820160008201516127c460008501826128ef565b5060208201516127d760208501826128ef565b5060408201516127ea60408501826122f2565b5060608201516127fd60608501826128ef565b50608082015161281060808501826128ef565b5060a082015161282360a0850182612581565b50505050565b600060808301600083015161284160008601826122f2565b50602083015161285460208601826128ef565b506040830151848203604086015261286c8282612310565b915050606083015161288160608601826122f2565b508091505092915050565b60006080830160008301516128a460008601826122f2565b5060208301516128b760208601826128ef565b50604083015184820360408601526128cf8282612310565b91505060608301516128e460608601826122f2565b508091505092915050565b6128f881612dba565b82525050565b61290781612dba565b82525050565b60006020820190506129226000830184612301565b92915050565b60006020820190508181036000830152612942818461236e565b905092915050565b6000604082019050818103600083015261296481856123cc565b905061297360208301846128fe565b9392505050565b600060208201905081810360008301526129948184612441565b905092915050565b600060208201905081810360008301526129b68184612514565b905092915050565b600060208201905081810360008301526129d781612590565b9050919050565b600060208201905081810360008301526129f881846126bf565b905092915050565b600060c082019050612a1560008301846127ae565b92915050565b60006020820190508181036000830152612a35818461288c565b905092915050565b6000602082019050612a5260008301846128fe565b92915050565b6000606082019050612a6d60008301866128fe565b612a7a60208301856128fe565b612a8760408301846128fe565b949350505050565b6000604051905081810181811067ffffffffffffffff82111715612ab657612ab5612ebe565b5b8060405250919050565b600067ffffffffffffffff821115612adb57612ada612ebe565b5b602082029050602081019050919050565b600067ffffffffffffffff821115612b0757612b06612ebe565b5b602082029050602081019050919050565b6000819050602082019050919050565b6000819050602082019050919050565b6000819050602082019050919050565b6000819050602082019050919050565b600081519050919050565b600081519050919050565b600081519050919050565b600081519050919050565b6000602082019050919050565b6000602082019050919050565b6000602082019050919050565b6000602082019050919050565b600082825260208201905092915050565b600082825260208201905092915050565b600082825260208201905092915050565b600082825260208201905092915050565b600082825260208201905092915050565b600082825260208201905092915050565b600082825260208201905092915050565b6000612c3a82612dba565b9150612c4583612dba565b9250827fffffffffffffffffffffffffffffffffffffffffffffffffffffffffffffffff03821115612c7a57612c79612e31565b5b828201905092915050565b6000612c9082612dba565b9150612c9b83612dba565b925082612cab57612caa612e60565b5b828204905092915050565b6000612cc182612dba565b9150612ccc83612dba565b9250817fffffffffffffffffffffffffffffffffffffffffffffffffffffffffffffffff0483118215151615612d0557612d04612e31565b5b828202905092915050565b6000612d1b82612dba565b9150612d2683612dba565b925082821015612d3957612d38612e31565b5b828203905092915050565b6000612d4f82612d9a565b9050919050565b60008115159050919050565b6000612d6d82612d44565b9050919050565b6000819050612d8282612eed565b919050565b6000819050612d9582612f01565b919050565b600073ffffffffffffffffffffffffffffffffffffffff82169050919050565b6000819050919050565b6000612dcf82612d74565b9050919050565b6000612de182612d87565b9050919050565b6000612df382612dba565b91507fffffffffffffffffffffffffffffffffffffffffffffffffffffffffffffffff821415612e2657612e25612e31565b5b600182019050919050565b7f4e487b7100000000000000000000000000000000000000000000000000000000600052601160045260246000fd5b7f4e487b7100000000000000000000000000000000000000000000000000000000600052601260045260246000fd5b7f4e487b7100000000000000000000000000000000000000000000000000000000600052602160045260246000fd5b7f4e487b7100000000000000000000000000000000000000000000000000000000600052604160045260246000fd5b60038110612efe57612efd612e8f565b5b50565b60038110612f1257612f11612e8f565b5b50565b612f1e81612d44565b8114612f2957600080fd5b50565b612f3581612d56565b8114612f4057600080fd5b50565b612f4c81612d62565b8114612f5757600080fd5b50565b60038110612f6757600080fd5b50565b60038110612f7757600080fd5b50565b612f8381612dba565b8114612f8e57600080fd5b5056fea2646970667358221220407cae43405a84e27218065fa5d4b7ea0c4a7b4075de09316236889f1f1e733764736f6c63430008000033",
  "linkReferences": {},
  "deployedLinkReferences": {}
}