{
  "_format": "hh-sol-artifact-1",
  "contractName": "MarketGetter",
  "sourceName": "contracts/MarketGetter.sol",
  "abi": [
    {
      "inputs": [
        {
          "internalType": "contract Market",
          "name": "market",
          "type": "address"
        },
        {
          "internalType": "uint256",
          "name": "timestamp",
          "type": "uint256"
        },
        {
          "internalType": "uint256",
          "name": "pairPrice",
          "type": "uint256"
        },
        {
          "internalType": "uint256",
          "name": "acqPrice",
          "type": "uint256"
        }
      ],
      "name": "clcAmountToApprove",
      "outputs": [
        {
          "internalType": "uint256",
          "name": "cmpltAmnt",
          "type": "uint256"
        }
      ],
      "stateMutability": "view",
      "type": "function"
    },
    {
      "inputs": [
        {
          "internalType": "contract Market",
          "name": "market",
          "type": "address"
        },
        {
          "internalType": "uint256",
          "name": "timestamp",
          "type": "uint256"
        },
        {
          "internalType": "uint256",
          "name": "pairPrice",
          "type": "uint256"
        },
        {
          "internalType": "uint256",
          "name": "acqPrice",
          "type": "uint256"
        }
      ],
      "name": "clcAmountToApproveForUpdate",
      "outputs": [
        {
          "internalType": "uint256",
          "name": "amnt",
          "type": "uint256"
        }
      ],
      "stateMutability": "view",
      "type": "function"
    },
    {
      "inputs": [
        {
          "internalType": "contract Market",
          "name": "market",
          "type": "address"
        },
        {
          "internalType": "uint256",
          "name": "frameKey",
          "type": "uint256"
        }
      ],
      "name": "clcPrice",
      "outputs": [
        {
          "internalType": "uint256",
          "name": "avgPrice",
          "type": "uint256"
        }
      ],
      "stateMutability": "view",
      "type": "function"
    },
    {
      "inputs": [
        {
          "internalType": "contract Market",
          "name": "market",
          "type": "address"
        },
        {
          "internalType": "uint256",
          "name": "frameKey",
          "type": "uint256"
        }
      ],
      "name": "getFrameStruct",
      "outputs": [
        {
          "components": [
            {
              "internalType": "uint256",
              "name": "frameKey",
              "type": "uint256"
            },
            {
              "internalType": "uint256",
              "name": "oracleTimestampStart",
              "type": "uint256"
            },
            {
              "internalType": "uint256",
              "name": "oracleTimestampEnd",
              "type": "uint256"
            },
            {
              "internalType": "uint256",
              "name": "rewardFund",
              "type": "uint256"
            },
            {
              "internalType": "uint256",
              "name": "priceAverage",
              "type": "uint256"
            },
            {
              "internalType": "uint256",
              "name": "oraclePrice0CumulativeStart",
              "type": "uint256"
            },
            {
              "internalType": "uint256",
              "name": "oraclePrice0CumulativeEnd",
              "type": "uint256"
            },
            {
              "internalType": "uint256",
              "name": "oraclePrice1CumulativeStart",
              "type": "uint256"
            },
            {
              "internalType": "uint256",
              "name": "oraclePrice1CumulativeEnd",
              "type": "uint256"
            },
            {
              "internalType": "enum MLib.SFrame",
              "name": "state",
              "type": "uint8"
            },
            {
              "internalType": "uint256[]",
              "name": "lotKeys",
              "type": "uint256[]"
            }
          ],
          "internalType": "struct MLib.Frame",
          "name": "",
          "type": "tuple"
        }
      ],
      "stateMutability": "view",
      "type": "function"
    },
    {
      "inputs": [
        {
          "internalType": "contract Market",
          "name": "market",
          "type": "address"
        },
        {
          "internalType": "uint256",
          "name": "frameKey_start",
          "type": "uint256"
        },
        {
          "internalType": "uint256",
          "name": "frameKey_end",
          "type": "uint256"
        },
        {
          "internalType": "uint256",
          "name": "page",
          "type": "uint256"
        },
        {
          "internalType": "uint256",
          "name": "perPage",
          "type": "uint256"
        }
      ],
      "name": "getFrames",
      "outputs": [
        {
          "components": [
            {
              "internalType": "uint256",
              "name": "frameKey",
              "type": "uint256"
            },
            {
              "internalType": "uint256",
              "name": "oracleTimestampStart",
              "type": "uint256"
            },
            {
              "internalType": "uint256",
              "name": "oracleTimestampEnd",
              "type": "uint256"
            },
            {
              "internalType": "uint256",
              "name": "rewardFund",
              "type": "uint256"
            },
            {
              "internalType": "uint256",
              "name": "priceAverage",
              "type": "uint256"
            },
            {
              "internalType": "uint256",
              "name": "oraclePrice0CumulativeStart",
              "type": "uint256"
            },
            {
              "internalType": "uint256",
              "name": "oraclePrice0CumulativeEnd",
              "type": "uint256"
            },
            {
              "internalType": "uint256",
              "name": "oraclePrice1CumulativeStart",
              "type": "uint256"
            },
            {
              "internalType": "uint256",
              "name": "oraclePrice1CumulativeEnd",
              "type": "uint256"
            },
            {
              "internalType": "enum MLib.SFrame",
              "name": "state",
              "type": "uint8"
            },
            {
              "internalType": "uint256[]",
              "name": "lotKeys",
              "type": "uint256[]"
            }
          ],
          "internalType": "struct MLib.Frame[]",
          "name": "frames",
          "type": "tuple[]"
        },
        {
          "internalType": "uint256",
          "name": "pagesLeft",
          "type": "uint256"
        }
      ],
      "stateMutability": "view",
      "type": "function"
    },
    {
      "inputs": [
        {
          "internalType": "contract Market",
          "name": "market",
          "type": "address"
        },
        {
          "internalType": "address",
          "name": "user",
          "type": "address"
        },
        {
          "internalType": "uint256",
          "name": "frameKey_start",
          "type": "uint256"
        },
        {
          "internalType": "uint256",
          "name": "frameKey_end",
          "type": "uint256"
        },
        {
          "internalType": "uint256",
          "name": "page",
          "type": "uint256"
        },
        {
          "internalType": "uint256",
          "name": "perPage",
          "type": "uint256"
        }
      ],
      "name": "getFramesUser",
      "outputs": [
        {
          "components": [
            {
              "internalType": "uint256",
              "name": "frameKey",
              "type": "uint256"
            },
            {
              "internalType": "uint256",
              "name": "oracleTimestampStart",
              "type": "uint256"
            },
            {
              "internalType": "uint256",
              "name": "oracleTimestampEnd",
              "type": "uint256"
            },
            {
              "internalType": "uint256",
              "name": "rewardFund",
              "type": "uint256"
            },
            {
              "internalType": "uint256",
              "name": "priceAverage",
              "type": "uint256"
            },
            {
              "internalType": "uint256",
              "name": "oraclePrice0CumulativeStart",
              "type": "uint256"
            },
            {
              "internalType": "uint256",
              "name": "oraclePrice0CumulativeEnd",
              "type": "uint256"
            },
            {
              "internalType": "uint256",
              "name": "oraclePrice1CumulativeStart",
              "type": "uint256"
            },
            {
              "internalType": "uint256",
              "name": "oraclePrice1CumulativeEnd",
              "type": "uint256"
            },
            {
              "internalType": "enum MLib.SFrame",
              "name": "state",
              "type": "uint8"
            },
            {
              "internalType": "uint256[]",
              "name": "lotKeys",
              "type": "uint256[]"
            }
          ],
          "internalType": "struct MLib.Frame[]",
          "name": "userFrames",
          "type": "tuple[]"
        },
        {
          "internalType": "uint256",
          "name": "pagesLeft",
          "type": "uint256"
        }
      ],
      "stateMutability": "view",
      "type": "function"
    },
    {
      "inputs": [
        {
          "internalType": "contract Market",
          "name": "market",
          "type": "address"
        },
        {
          "internalType": "uint256",
          "name": "frameKey",
          "type": "uint256"
        },
        {
          "internalType": "uint256",
          "name": "index",
          "type": "uint256"
        }
      ],
      "name": "getLotKey",
      "outputs": [
        {
          "internalType": "uint256",
          "name": "",
          "type": "uint256"
        }
      ],
      "stateMutability": "view",
      "type": "function"
    },
    {
      "inputs": [
        {
          "internalType": "contract Market",
          "name": "market",
          "type": "address"
        },
        {
          "internalType": "uint256",
          "name": "frameKey",
          "type": "uint256"
        },
        {
          "internalType": "uint256",
          "name": "lotKey",
          "type": "uint256"
        }
      ],
      "name": "getLotStruct",
      "outputs": [
        {
          "components": [
            {
              "internalType": "uint256",
              "name": "frameKey",
              "type": "uint256"
            },
            {
              "internalType": "uint256",
              "name": "lotKey",
              "type": "uint256"
            },
            {
              "internalType": "address",
              "name": "lotOwner",
              "type": "address"
            },
            {
              "internalType": "uint256",
              "name": "acquisitionPrice",
              "type": "uint256"
            },
            {
              "internalType": "enum MLib.SLot",
              "name": "state",
              "type": "uint8"
            }
          ],
          "internalType": "struct MLib.Lot",
          "name": "",
          "type": "tuple"
        }
      ],
      "stateMutability": "view",
      "type": "function"
    },
    {
      "inputs": [
        {
          "internalType": "contract Market",
          "name": "market",
          "type": "address"
        },
        {
          "internalType": "uint256",
          "name": "frameKey_start",
          "type": "uint256"
        },
        {
          "internalType": "uint256",
          "name": "frameKey_end",
          "type": "uint256"
        },
        {
          "internalType": "uint256",
          "name": "page",
          "type": "uint256"
        },
        {
          "internalType": "uint256",
          "name": "perPage",
          "type": "uint256"
        }
      ],
      "name": "getLots",
      "outputs": [
        {
          "components": [
            {
              "internalType": "uint256",
              "name": "frameKey",
              "type": "uint256"
            },
            {
              "internalType": "uint256",
              "name": "lotKey",
              "type": "uint256"
            },
            {
              "internalType": "address",
              "name": "lotOwner",
              "type": "address"
            },
            {
              "internalType": "uint256",
              "name": "acquisitionPrice",
              "type": "uint256"
            },
            {
              "internalType": "enum MLib.SLot",
              "name": "state",
              "type": "uint8"
            }
          ],
          "internalType": "struct MLib.Lot[]",
          "name": "lots",
          "type": "tuple[]"
        },
        {
          "internalType": "uint256",
          "name": "pagesLeft",
          "type": "uint256"
        }
      ],
      "stateMutability": "view",
      "type": "function"
    },
    {
      "inputs": [
        {
          "internalType": "contract Market",
          "name": "market",
          "type": "address"
        },
        {
          "internalType": "uint256",
          "name": "frameKey",
          "type": "uint256"
        }
      ],
      "name": "getLotsCount",
      "outputs": [
        {
          "internalType": "uint256",
          "name": "",
          "type": "uint256"
        }
      ],
      "stateMutability": "view",
      "type": "function"
    },
    {
      "inputs": [
        {
          "internalType": "contract Market",
          "name": "market",
          "type": "address"
        },
        {
          "internalType": "address",
          "name": "user",
          "type": "address"
        },
        {
          "internalType": "uint256",
          "name": "mode",
          "type": "uint256"
        },
        {
          "internalType": "uint256",
          "name": "frameKey_start",
          "type": "uint256"
        },
        {
          "internalType": "uint256",
          "name": "frameKey_end",
          "type": "uint256"
        },
        {
          "internalType": "uint256",
          "name": "page",
          "type": "uint256"
        },
        {
          "internalType": "uint256",
          "name": "perPage",
          "type": "uint256"
        }
      ],
      "name": "getLotsUser",
      "outputs": [
        {
          "components": [
            {
              "internalType": "uint256",
              "name": "frameKey",
              "type": "uint256"
            },
            {
              "internalType": "uint256",
              "name": "lotKey",
              "type": "uint256"
            },
            {
              "internalType": "address",
              "name": "lotOwner",
              "type": "address"
            },
            {
              "internalType": "uint256",
              "name": "acquisitionPrice",
              "type": "uint256"
            },
            {
              "internalType": "enum MLib.SLot",
              "name": "state",
              "type": "uint8"
            }
          ],
          "internalType": "struct MLib.Lot[]",
          "name": "userLots",
          "type": "tuple[]"
        },
        {
          "internalType": "uint256",
          "name": "pagesLeft",
          "type": "uint256"
        }
      ],
      "stateMutability": "view",
      "type": "function"
    },
    {
      "inputs": [
        {
          "internalType": "contract Market",
          "name": "market",
          "type": "address"
        },
        {
          "internalType": "uint256",
          "name": "startFrame",
          "type": "uint256"
        },
        {
          "internalType": "uint256",
          "name": "numOfFrames",
          "type": "uint256"
        }
      ],
      "name": "getOpenFrameKeys",
      "outputs": [
        {
          "internalType": "uint256[]",
          "name": "openFrames",
          "type": "uint256[]"
        }
      ],
      "stateMutability": "view",
      "type": "function"
    },
    {
      "inputs": [
        {
          "internalType": "contract Market",
          "name": "market",
          "type": "address"
        },
        {
          "internalType": "uint256",
          "name": "frameKey",
          "type": "uint256"
        }
      ],
      "name": "getRewardAmount",
      "outputs": [
        {
          "internalType": "uint256",
          "name": "",
          "type": "uint256"
        }
      ],
      "stateMutability": "view",
      "type": "function"
    },
    {
      "inputs": [
        {
          "internalType": "contract Market",
          "name": "market",
          "type": "address"
        },
        {
          "internalType": "uint256",
          "name": "startIndex",
          "type": "uint256"
        },
        {
          "internalType": "uint256",
          "name": "endIndex",
          "type": "uint256"
        }
      ],
      "name": "getUserAddressesPaginated",
      "outputs": [
        {
          "internalType": "address[]",
          "name": "",
          "type": "address[]"
        }
      ],
      "stateMutability": "view",
      "type": "function"
    },
    {
      "inputs": [
        {
          "internalType": "contract Market",
          "name": "market",
          "type": "address"
        },
        {
          "internalType": "address",
          "name": "userPubKey",
          "type": "address"
        }
      ],
      "name": "getUserStruct",
      "outputs": [
        {
          "components": [
            {
              "internalType": "address",
              "name": "userPublicKey",
              "type": "address"
            },
            {
              "internalType": "uint256",
              "name": "commulativeTax",
              "type": "uint256"
            },
            {
              "internalType": "address[]",
              "name": "referrals",
              "type": "address[]"
            },
            {
              "internalType": "address",
              "name": "referredBy",
              "type": "address"
            }
          ],
          "internalType": "struct MLib.User",
          "name": "user",
          "type": "tuple"
        }
      ],
      "stateMutability": "view",
      "type": "function"
    },
    {
      "inputs": [
        {
          "internalType": "contract Market",
          "name": "market",
          "type": "address"
        },
        {
          "internalType": "uint256",
          "name": "endIndex",
          "type": "uint256"
        },
        {
          "internalType": "uint256",
          "name": "startIndex",
          "type": "uint256"
        }
      ],
      "name": "getUserStructs",
      "outputs": [
        {
          "components": [
            {
              "internalType": "address",
              "name": "userPublicKey",
              "type": "address"
            },
            {
              "internalType": "uint256",
              "name": "commulativeTax",
              "type": "uint256"
            },
            {
              "internalType": "address[]",
              "name": "referrals",
              "type": "address[]"
            },
            {
              "internalType": "address",
              "name": "referredBy",
              "type": "address"
            }
          ],
          "internalType": "struct MLib.User[]",
          "name": "users",
          "type": "tuple[]"
        }
      ],
      "stateMutability": "view",
      "type": "function"
    }
  ],
  "bytecode": "0x608060405234801561001057600080fd5b506156e480620000216000396000f3fe608060405234801561001057600080fd5b50600436106101005760003560e01c8063c1d0139511610097578063de73259511610066578063de73259514610347578063ee707ed914610377578063f6eb9ee7146103a7578063f91cbebe146103d857610100565b8063c1d0139514610287578063c8ddd521146102b7578063da4e8556146102e7578063dbd20a881461031757610100565b80637f424a37116100d35780637f424a37146101c75780639291178e146101f757806398857eaf14610227578063a859a1211461025757610100565b80632c79854f146101055780634314b84f14610135578063612d8b501461016557806371b08d8914610196575b600080fd5b61011f600480360381019061011a9190614564565b610409565b60405161012c919061512f565b60405180910390f35b61014f600480360381019061014a9190614564565b6104e7565b60405161015c91906150f2565b60405180910390f35b61017f600480360381019061017a9190614616565b610656565b60405161018d929190614fec565b60405180910390f35b6101b060048036038101906101ab919061448a565b610c39565b6040516101be92919061501c565b60405180910390f35b6101e160048036038101906101dc9190614528565b611a7d565b6040516101ee91906150d0565b60405180910390f35b610211600480360381019061020c9190614528565b611d6f565b60405161021e919061512f565b60405180910390f35b610241600480360381019061023c9190614564565b611e0d565b60405161024e9190614fca565b60405180910390f35b610271600480360381019061026c9190614564565b612057565b60405161027e919061504c565b60405180910390f35b6102a1600480360381019061029c91906145b3565b6123a3565b6040516102ae919061512f565b60405180910390f35b6102d160048036038101906102cc91906143c5565b61276b565b6040516102de919061510d565b60405180910390f35b61030160048036038101906102fc9190614528565b6128f2565b60405161030e919061512f565b60405180910390f35b610331600480360381019061032c9190614564565b6129bd565b60405161033e919061506e565b60405180910390f35b610361600480360381019061035c91906145b3565b612bc7565b60405161036e919061512f565b60405180910390f35b610391600480360381019061038c9190614528565b612e69565b60405161039e919061512f565b60405180910390f35b6103c160048036038101906103bc9190614401565b6130ed565b6040516103cf929190614fec565b60405180910390f35b6103f260048036038101906103ed9190614616565b613914565b60405161040092919061501c565b60405180910390f35b6000808473ffffffffffffffffffffffffffffffffffffffff1663ab02f2a9856040518263ffffffff1660e01b8152600401610445919061512f565b60006040518083038186803b15801561045d57600080fd5b505afa158015610471573d6000803e3d6000fd5b505050506040513d6000823e3d601f19601f8201168201806040525081019061049a919061435b565b90508083815181106104d5577f4e487b7100000000000000000000000000000000000000000000000000000000600052603260045260246000fd5b60200260200101519150509392505050565b6104ef613f94565b6104f7613f94565b8473ffffffffffffffffffffffffffffffffffffffff1663b93dafa985856040518363ffffffff1660e01b815260040161053292919061514a565b60a06040518083038186803b15801561054a57600080fd5b505afa15801561055e573d6000803e3d6000fd5b505050506040513d601f19601f8201168201806040525081019061058291906146df565b85600001866020018760400188606001896080018560028111156105cf577f4e487b7100000000000000000000000000000000000000000000000000000000600052602160045260246000fd5b6002811115610607577f4e487b7100000000000000000000000000000000000000000000000000000000600052602160045260246000fd5b815250858152508573ffffffffffffffffffffffffffffffffffffffff1673ffffffffffffffffffffffffffffffffffffffff1681525085815250858152505050505050809150509392505050565b606060008267ffffffffffffffff81111561069a577f4e487b7100000000000000000000000000000000000000000000000000000000600052604160045260246000fd5b6040519080825280602002602001820160405280156106d357816020015b6106c0614011565b8152602001906001900390816106b85790505b5091506106de614011565b6000600367ffffffffffffffff811115610721577f4e487b7100000000000000000000000000000000000000000000000000000000600052604160045260246000fd5b60405190808252806020026020018201604052801561074f5781602001602082028036833780820191505090505b5090508873ffffffffffffffffffffffffffffffffffffffff1663ef78d4fd6040518163ffffffff1660e01b815260040160206040518083038186803b15801561079857600080fd5b505afa1580156107ac573d6000803e3d6000fd5b505050506040513d601f19601f820116820180604052508101906107d091906146b6565b8160028151811061080a577f4e487b7100000000000000000000000000000000000000000000000000000000600052603260045260246000fd5b60200260200101818152505060008890505b878111610b685761082d8a82611a7d565b925060006002811115610869577f4e487b7100000000000000000000000000000000000000000000000000000000600052602160045260246000fd5b83610120015160028111156108a7577f4e487b7100000000000000000000000000000000000000000000000000000000600052602160045260246000fd5b14610b145785876108b891906153d3565b826000815181106108f2577f4e487b7100000000000000000000000000000000000000000000000000000000600052603260045260246000fd5b60200260200101511015801561095f575085600188610911919061534c565b61091b91906153d3565b82600081518110610955577f4e487b7100000000000000000000000000000000000000000000000000000000600052603260045260246000fd5b6020026020010151105b15610a7f578285836001815181106109a0577f4e487b7100000000000000000000000000000000000000000000000000000000600052603260045260246000fd5b6020026020010151815181106109df577f4e487b7100000000000000000000000000000000000000000000000000000000600052603260045260246000fd5b6020026020010181905250600182600181518110610a26577f4e487b7100000000000000000000000000000000000000000000000000000000600052603260045260246000fd5b6020026020010151610a38919061534c565b82600181518110610a72577f4e487b7100000000000000000000000000000000000000000000000000000000600052603260045260246000fd5b6020026020010181815250505b600182600081518110610abb577f4e487b7100000000000000000000000000000000000000000000000000000000600052603260045260246000fd5b6020026020010151610acd919061534c565b82600081518110610b07577f4e487b7100000000000000000000000000000000000000000000000000000000600052603260045260246000fd5b6020026020010181815250505b81600281518110610b4e577f4e487b7100000000000000000000000000000000000000000000000000000000600052603260045260246000fd5b602002602001015181610b61919061534c565b905061081c565b5084600187610b77919061534c565b610b8191906153d3565b81600081518110610bbb577f4e487b7100000000000000000000000000000000000000000000000000000000600052603260045260246000fd5b60200260200101511115610c2857858582600081518110610c05577f4e487b7100000000000000000000000000000000000000000000000000000000600052603260045260246000fd5b6020026020010151610c1791906153a2565b610c21919061542d565b9250610c2d565b600092505b50509550959350505050565b60606000600183610c4a919061534c565b67ffffffffffffffff811115610c89577f4e487b7100000000000000000000000000000000000000000000000000000000600052604160045260246000fd5b604051908082528060200260200182016040528015610cc257816020015b610caf613f94565b815260200190600190039081610ca75790505b509150600060606000600367ffffffffffffffff811115610d0c577f4e487b7100000000000000000000000000000000000000000000000000000000600052604160045260246000fd5b604051908082528060200260200182016040528015610d3a5781602001602082028036833780820191505090505b5090508b73ffffffffffffffffffffffffffffffffffffffff1663ef78d4fd6040518163ffffffff1660e01b815260040160206040518083038186803b158015610d8357600080fd5b505afa158015610d97573d6000803e3d6000fd5b505050506040513d601f19601f82011682018060405250810190610dbb91906146b6565b81600281518110610df5577f4e487b7100000000000000000000000000000000000000000000000000000000600052603260045260246000fd5b60200260200101818152505060018a116113d05760008990505b8881116113ce578c73ffffffffffffffffffffffffffffffffffffffff1663f109db84826040518263ffffffff1660e01b8152600401610e4f919061512f565b60206040518083038186803b158015610e6757600080fd5b505afa158015610e7b573d6000803e3d6000fd5b505050506040513d601f19601f82011682018060405250810190610e9f919061468d565b935060016002811115610edb577f4e487b7100000000000000000000000000000000000000000000000000000000600052602160045260246000fd5b846002811115610f14577f4e487b7100000000000000000000000000000000000000000000000000000000600052602160045260246000fd5b141561137a578c73ffffffffffffffffffffffffffffffffffffffff1663ab02f2a9826040518263ffffffff1660e01b8152600401610f53919061512f565b60006040518083038186803b158015610f6b57600080fd5b505afa158015610f7f573d6000803e3d6000fd5b505050506040513d6000823e3d601f19601f82011682018060405250810190610fa8919061435b565b925060005b8351811015611378576110018e83868481518110610ff4577f4e487b7100000000000000000000000000000000000000000000000000000000600052603260045260246000fd5b60200260200101516104e7565b87898151811061103a577f4e487b7100000000000000000000000000000000000000000000000000000000600052603260045260246000fd5b60200260200101819052508c73ffffffffffffffffffffffffffffffffffffffff16878981518110611095577f4e487b7100000000000000000000000000000000000000000000000000000000600052603260045260246000fd5b60200260200101516040015173ffffffffffffffffffffffffffffffffffffffff1614156113655787896110c991906153d3565b83600081518110611103577f4e487b7100000000000000000000000000000000000000000000000000000000600052603260045260246000fd5b60200260200101511015801561117057508760018a611122919061534c565b61112c91906153d3565b83600081518110611166577f4e487b7100000000000000000000000000000000000000000000000000000000600052603260045260246000fd5b6020026020010151105b156112d0578688815181106111ae577f4e487b7100000000000000000000000000000000000000000000000000000000600052603260045260246000fd5b602002602001015187846001815181106111f1577f4e487b7100000000000000000000000000000000000000000000000000000000600052603260045260246000fd5b602002602001015181518110611230577f4e487b7100000000000000000000000000000000000000000000000000000000600052603260045260246000fd5b6020026020010181905250600183600181518110611277577f4e487b7100000000000000000000000000000000000000000000000000000000600052603260045260246000fd5b6020026020010151611289919061534c565b836001815181106112c3577f4e487b7100000000000000000000000000000000000000000000000000000000600052603260045260246000fd5b6020026020010181815250505b60018360008151811061130c577f4e487b7100000000000000000000000000000000000000000000000000000000600052603260045260246000fd5b602002602001015161131e919061534c565b83600081518110611358577f4e487b7100000000000000000000000000000000000000000000000000000000600052603260045260246000fd5b6020026020010181815250505b808061137090615505565b915050610fad565b505b816002815181106113b4577f4e487b7100000000000000000000000000000000000000000000000000000000600052603260045260246000fd5b6020026020010151816113c7919061534c565b9050610e0f565b505b60028a14806113df575060008a145b156119aa5760008990505b8881116119a8578c73ffffffffffffffffffffffffffffffffffffffff1663f109db84826040518263ffffffff1660e01b815260040161142a919061512f565b60206040518083038186803b15801561144257600080fd5b505afa158015611456573d6000803e3d6000fd5b505050506040513d601f19601f8201168201806040525081019061147a919061468d565b93506002808111156114b5577f4e487b7100000000000000000000000000000000000000000000000000000000600052602160045260246000fd5b8460028111156114ee577f4e487b7100000000000000000000000000000000000000000000000000000000600052602160045260246000fd5b1415611954578c73ffffffffffffffffffffffffffffffffffffffff1663ab02f2a9826040518263ffffffff1660e01b815260040161152d919061512f565b60006040518083038186803b15801561154557600080fd5b505afa158015611559573d6000803e3d6000fd5b505050506040513d6000823e3d601f19601f82011682018060405250810190611582919061435b565b925060005b8351811015611952576115db8e838684815181106115ce577f4e487b7100000000000000000000000000000000000000000000000000000000600052603260045260246000fd5b60200260200101516104e7565b878981518110611614577f4e487b7100000000000000000000000000000000000000000000000000000000600052603260045260246000fd5b60200260200101819052508c73ffffffffffffffffffffffffffffffffffffffff1687898151811061166f577f4e487b7100000000000000000000000000000000000000000000000000000000600052603260045260246000fd5b60200260200101516040015173ffffffffffffffffffffffffffffffffffffffff16141561193f5787896116a391906153d3565b836000815181106116dd577f4e487b7100000000000000000000000000000000000000000000000000000000600052603260045260246000fd5b60200260200101511015801561174a57508760018a6116fc919061534c565b61170691906153d3565b83600081518110611740577f4e487b7100000000000000000000000000000000000000000000000000000000600052603260045260246000fd5b6020026020010151105b156118aa57868881518110611788577f4e487b7100000000000000000000000000000000000000000000000000000000600052603260045260246000fd5b602002602001015187846001815181106117cb577f4e487b7100000000000000000000000000000000000000000000000000000000600052603260045260246000fd5b60200260200101518151811061180a577f4e487b7100000000000000000000000000000000000000000000000000000000600052603260045260246000fd5b6020026020010181905250600183600181518110611851577f4e487b7100000000000000000000000000000000000000000000000000000000600052603260045260246000fd5b6020026020010151611863919061534c565b8360018151811061189d577f4e487b7100000000000000000000000000000000000000000000000000000000600052603260045260246000fd5b6020026020010181815250505b6001836000815181106118e6577f4e487b7100000000000000000000000000000000000000000000000000000000600052603260045260246000fd5b60200260200101516118f8919061534c565b83600081518110611932577f4e487b7100000000000000000000000000000000000000000000000000000000600052603260045260246000fd5b6020026020010181815250505b808061194a90615505565b915050611587565b505b8160028151811061198e577f4e487b7100000000000000000000000000000000000000000000000000000000600052603260045260246000fd5b6020026020010151816119a1919061534c565b90506113ea565b505b856001886119b8919061534c565b6119c291906153d3565b816000815181106119fc577f4e487b7100000000000000000000000000000000000000000000000000000000600052603260045260246000fd5b60200260200101511115611a6957868682600081518110611a46577f4e487b7100000000000000000000000000000000000000000000000000000000600052603260045260246000fd5b6020026020010151611a5891906153a2565b611a62919061542d565b9350611a6e565b600093505b50505097509795505050505050565b611a85614011565b611a8d614011565b8373ffffffffffffffffffffffffffffffffffffffff1663a10340bc846040518263ffffffff1660e01b8152600401611ac6919061512f565b6101406040518083038186803b158015611adf57600080fd5b505afa158015611af3573d6000803e3d6000fd5b505050506040513d601f19601f82011682018060405250810190611b179190614756565b909192939495509091929394509091929350909192509091509050508360000184602001856040018381525083815250838152505050508373ffffffffffffffffffffffffffffffffffffffff1663a10340bc846040518263ffffffff1660e01b8152600401611b87919061512f565b6101406040518083038186803b158015611ba057600080fd5b505afa158015611bb4573d6000803e3d6000fd5b505050506040513d601f19601f82011682018060405250810190611bd89190614756565b90919293949596979850909192939495969750909192939495965090915090505084606001856080018660a0018760c00184815250848152508481525084815250505050508373ffffffffffffffffffffffffffffffffffffffff1663a10340bc846040518263ffffffff1660e01b8152600401611c56919061512f565b6101406040518083038186803b158015611c6f57600080fd5b505afa158015611c83573d6000803e3d6000fd5b505050506040513d601f19601f82011682018060405250810190611ca79190614756565b909192939495969798509091929394959697509091929394959650909192939495509091929394509091929350909192508360e00184610100018561012001836002811115611d1f577f4e487b7100000000000000000000000000000000000000000000000000000000600052602160045260246000fd5b6002811115611d57577f4e487b7100000000000000000000000000000000000000000000000000000000600052602160045260246000fd5b81525083815250838152505050508091505092915050565b6000808373ffffffffffffffffffffffffffffffffffffffff1663ab02f2a9846040518263ffffffff1660e01b8152600401611dab919061512f565b60006040518083038186803b158015611dc357600080fd5b505afa158015611dd7573d6000803e3d6000fd5b505050506040513d6000823e3d601f19601f82011682018060405250810190611e00919061435b565b9050805191505092915050565b606060008473ffffffffffffffffffffffffffffffffffffffff1663a591efde6040518163ffffffff1660e01b815260040160006040518083038186803b158015611e5757600080fd5b505afa158015611e6b573d6000803e3d6000fd5b505050506040513d6000823e3d601f19601f82011682018060405250810190611e94919061431a565b905080518311158015611ea75750828411155b611ee6576040517f08c379a0000000000000000000000000000000000000000000000000000000008152600401611edd90615090565b60405180910390fd5b60008484611ef4919061542d565b905060008167ffffffffffffffff811115611f38577f4e487b7100000000000000000000000000000000000000000000000000000000600052604160045260246000fd5b604051908082528060200260200182016040528015611f665781602001602082028036833780820191505090505b50905060008690505b8581101561204957838181518110611fb0577f4e487b7100000000000000000000000000000000000000000000000000000000600052603260045260246000fd5b6020026020010151828883611fc5919061542d565b81518110611ffc577f4e487b7100000000000000000000000000000000000000000000000000000000600052603260045260246000fd5b602002602001019073ffffffffffffffffffffffffffffffffffffffff16908173ffffffffffffffffffffffffffffffffffffffff1681525050808061204190615505565b915050611f6f565b508093505050509392505050565b606060008473ffffffffffffffffffffffffffffffffffffffff1663a591efde6040518163ffffffff1660e01b815260040160006040518083038186803b1580156120a157600080fd5b505afa1580156120b5573d6000803e3d6000fd5b505050506040513d6000823e3d601f19601f820116820180604052508101906120de919061431a565b9050600083856120ee919061542d565b90508067ffffffffffffffff811115612130577f4e487b7100000000000000000000000000000000000000000000000000000000600052604160045260246000fd5b60405190808252806020026020018201604052801561216957816020015b6121566140a3565b81526020019060019003908161214e5790505b50925060008490505b858110156123995760008382815181106121b5577f4e487b7100000000000000000000000000000000000000000000000000000000600052603260045260246000fd5b6020026020010151905060008060008a73ffffffffffffffffffffffffffffffffffffffff1663a87430ba856040518263ffffffff1660e01b81526004016121fd9190614faf565b60606040518083038186803b15801561221557600080fd5b505afa158015612229573d6000803e3d6000fd5b505050506040513d601f19601f8201168201806040525081019061224d91906142cb565b92509250925060008b73ffffffffffffffffffffffffffffffffffffffff1663575cea6b866040518263ffffffff1660e01b815260040161228e9190614faf565b60006040518083038186803b1580156122a657600080fd5b505afa1580156122ba573d6000803e3d6000fd5b505050506040513d6000823e3d601f19601f820116820180604052508101906122e3919061431a565b905060405180608001604052808573ffffffffffffffffffffffffffffffffffffffff1681526020018481526020018281526020018373ffffffffffffffffffffffffffffffffffffffff16815250898b8861233f919061542d565b81518110612376577f4e487b7100000000000000000000000000000000000000000000000000000000600052603260045260246000fd5b60200260200101819052505050505050808061239190615505565b915050612172565b5050509392505050565b6000808573ffffffffffffffffffffffffffffffffffffffff16635b3ad63e866040518263ffffffff1660e01b81526004016123df919061512f565b60206040518083038186803b1580156123f757600080fd5b505afa15801561240b573d6000803e3d6000fd5b505050506040513d601f19601f8201168201806040525081019061242f91906146b6565b90508573ffffffffffffffffffffffffffffffffffffffff16635b3ad63e426040518263ffffffff1660e01b815260040161246a919061512f565b60206040518083038186803b15801561248257600080fd5b505afa158015612496573d6000803e3d6000fd5b505050506040513d601f19601f820116820180604052508101906124ba91906146b6565b8110156124fc576040517f08c379a00000000000000000000000000000000000000000000000000000000081526004016124f3906150b0565b60405180910390fd5b60008673ffffffffffffffffffffffffffffffffffffffff1663b93dafa9838973ffffffffffffffffffffffffffffffffffffffff16639592de18896040518263ffffffff1660e01b8152600401612554919061512f565b60206040518083038186803b15801561256c57600080fd5b505afa158015612580573d6000803e3d6000fd5b505050506040513d601f19601f820116820180604052508101906125a491906146b6565b6040518363ffffffff1660e01b81526004016125c192919061514a565b60a06040518083038186803b1580156125d957600080fd5b505afa1580156125ed573d6000803e3d6000fd5b505050506040513d601f19601f8201168201806040525081019061261191906146df565b909192935090919250909150508091505060008773ffffffffffffffffffffffffffffffffffffffff1663e107fb4f84846040518363ffffffff1660e01b815260040161265f92919061514a565b60206040518083038186803b15801561267757600080fd5b505afa15801561268b573d6000803e3d6000fd5b505050506040513d601f19601f820116820180604052508101906126af91906146b6565b905060008873ffffffffffffffffffffffffffffffffffffffff1663e107fb4f85886040518363ffffffff1660e01b81526004016126ee92919061514a565b60206040518083038186803b15801561270657600080fd5b505afa15801561271a573d6000803e3d6000fd5b505050506040513d601f19601f8201168201806040525081019061273e91906146b6565b9050808210612750576000945061275f565b818161275c919061542d565b94505b50505050949350505050565b6127736140a3565b60008060008573ffffffffffffffffffffffffffffffffffffffff1663a87430ba866040518263ffffffff1660e01b81526004016127b19190614faf565b60606040518083038186803b1580156127c957600080fd5b505afa1580156127dd573d6000803e3d6000fd5b505050506040513d601f19601f8201168201806040525081019061280191906142cb565b92509250925060008673ffffffffffffffffffffffffffffffffffffffff1663575cea6b876040518263ffffffff1660e01b81526004016128429190614faf565b60006040518083038186803b15801561285a57600080fd5b505afa15801561286e573d6000803e3d6000fd5b505050506040513d6000823e3d601f19601f82011682018060405250810190612897919061431a565b905060405180608001604052808573ffffffffffffffffffffffffffffffffffffffff1681526020018481526020018281526020018373ffffffffffffffffffffffffffffffffffffffff1681525094505050505092915050565b6000808373ffffffffffffffffffffffffffffffffffffffff1663a10340bc846040518263ffffffff1660e01b815260040161292e919061512f565b6101406040518083038186803b15801561294757600080fd5b505afa15801561295b573d6000803e3d6000fd5b505050506040513d601f19601f8201168201806040525081019061297f9190614756565b909192939495969798509091929394959697509091929394959650909192939450909192935090919250909150905050809150508091505092915050565b60608167ffffffffffffffff8111156129ff577f4e487b7100000000000000000000000000000000000000000000000000000000600052604160045260246000fd5b604051908082528060200260200182016040528015612a2d5781602001602082028036833780820191505090505b509050612a38614011565b60005b838111612bbe576000818773ffffffffffffffffffffffffffffffffffffffff1663ef78d4fd6040518163ffffffff1660e01b815260040160206040518083038186803b158015612a8b57600080fd5b505afa158015612a9f573d6000803e3d6000fd5b505050506040513d601f19601f82011682018060405250810190612ac391906146b6565b612acd91906153d3565b86612ad8919061534c565b9050612ae48782611a7d565b925060006002811115612b20577f4e487b7100000000000000000000000000000000000000000000000000000000600052602160045260246000fd5b8361012001516002811115612b5e577f4e487b7100000000000000000000000000000000000000000000000000000000600052602160045260246000fd5b14612baa5780848381518110612b9d577f4e487b7100000000000000000000000000000000000000000000000000000000600052603260045260246000fd5b6020026020010181815250505b508080612bb690615505565b915050612a3b565b50509392505050565b6000808573ffffffffffffffffffffffffffffffffffffffff16635b3ad63e866040518263ffffffff1660e01b8152600401612c03919061512f565b60206040518083038186803b158015612c1b57600080fd5b505afa158015612c2f573d6000803e3d6000fd5b505050506040513d601f19601f82011682018060405250810190612c5391906146b6565b90508573ffffffffffffffffffffffffffffffffffffffff16635b3ad63e426040518263ffffffff1660e01b8152600401612c8e919061512f565b60206040518083038186803b158015612ca657600080fd5b505afa158015612cba573d6000803e3d6000fd5b505050506040513d601f19601f82011682018060405250810190612cde91906146b6565b811015612d20576040517f08c379a0000000000000000000000000000000000000000000000000000000008152600401612d17906150b0565b60405180910390fd5b60008673ffffffffffffffffffffffffffffffffffffffff16639592de18866040518263ffffffff1660e01b8152600401612d5b919061512f565b60206040518083038186803b158015612d7357600080fd5b505afa158015612d87573d6000803e3d6000fd5b505050506040513d601f19601f82011682018060405250810190612dab91906146b6565b905060008773ffffffffffffffffffffffffffffffffffffffff1663e107fb4f84876040518363ffffffff1660e01b8152600401612dea92919061514a565b60206040518083038186803b158015612e0257600080fd5b505afa158015612e16573d6000803e3d6000fd5b505050506040513d601f19601f82011682018060405250810190612e3a91906146b6565b90506000612e498985856104e7565b9050818160600151612e5b919061534c565b945050505050949350505050565b60008273ffffffffffffffffffffffffffffffffffffffff1663652c8ded836040518263ffffffff1660e01b8152600401612ea4919061512f565b60006040518083038186803b158015612ebc57600080fd5b505afa158015612ed0573d6000803e3d6000fd5b5050505060008373ffffffffffffffffffffffffffffffffffffffff16638f9eca826040518163ffffffff1660e01b815260040160206040518083038186803b158015612f1c57600080fd5b505afa158015612f30573d6000803e3d6000fd5b505050506040513d601f19601f82011682018060405250810190612f54919061439c565b905060008473ffffffffffffffffffffffffffffffffffffffff1663f45e65d86040518163ffffffff1660e01b815260040160206040518083038186803b158015612f9e57600080fd5b505afa158015612fb2573d6000803e3d6000fd5b505050506040513d601f19601f82011682018060405250810190612fd691906146b6565b90506000612fe48686611a7d565b9050600081602001518260400151612ffc919061542d565b9050831561306e576130576040518060200160405280838560a001518660c00151613027919061542d565b61303191906153a2565b7bffffffffffffffffffffffffffffffffffffffffffffffffffffffff16815250613f61565b6dffffffffffffffffffffffffffff1694506130d5565b6130c26040518060200160405280838560e00151866101000151613092919061542d565b61309c91906153a2565b7bffffffffffffffffffffffffffffffffffffffffffffffffffffffff16815250613f61565b6dffffffffffffffffffffffffffff1694505b82856130e191906153d3565b94505050505092915050565b606060008267ffffffffffffffff811115613131577f4e487b7100000000000000000000000000000000000000000000000000000000600052604160045260246000fd5b60405190808252806020026020018201604052801561316a57816020015b613157614011565b81526020019060019003908161314f5790505b5091506000806000600367ffffffffffffffff8111156131b3577f4e487b7100000000000000000000000000000000000000000000000000000000600052604160045260246000fd5b6040519080825280602002602001820160405280156131e15781602001602082028036833780820191505090505b5090508a73ffffffffffffffffffffffffffffffffffffffff1663ef78d4fd6040518163ffffffff1660e01b815260040160206040518083038186803b15801561322a57600080fd5b505afa15801561323e573d6000803e3d6000fd5b505050506040513d601f19601f8201168201806040525081019061326291906146b6565b8160028151811061329c577f4e487b7100000000000000000000000000000000000000000000000000000000600052603260045260246000fd5b602002602001018181525050606060008a90505b898111613840578c73ffffffffffffffffffffffffffffffffffffffff1663f109db84826040518263ffffffff1660e01b81526004016132f0919061512f565b60206040518083038186803b15801561330857600080fd5b505afa15801561331c573d6000803e3d6000fd5b505050506040513d601f19601f82011682018060405250810190613340919061468d565b93506001600281111561337c577f4e487b7100000000000000000000000000000000000000000000000000000000600052602160045260246000fd5b8460028111156133b5577f4e487b7100000000000000000000000000000000000000000000000000000000600052602160045260246000fd5b14156137ec578c73ffffffffffffffffffffffffffffffffffffffff1663ab02f2a9826040518263ffffffff1660e01b81526004016133f4919061512f565b60006040518083038186803b15801561340c57600080fd5b505afa158015613420573d6000803e3d6000fd5b505050506040513d6000823e3d601f19601f82011682018060405250810190613449919061435b565b915060005b82518110156137ea578d73ffffffffffffffffffffffffffffffffffffffff1663b93dafa9838584815181106134ad577f4e487b7100000000000000000000000000000000000000000000000000000000600052603260045260246000fd5b60200260200101516040518363ffffffff1660e01b81526004016134d292919061514a565b60a06040518083038186803b1580156134ea57600080fd5b505afa1580156134fe573d6000803e3d6000fd5b505050506040513d601f19601f8201168201806040525081019061352291906146df565b909192935090919250905050809650508c73ffffffffffffffffffffffffffffffffffffffff168673ffffffffffffffffffffffffffffffffffffffff1614156137d757888a61357291906153d3565b846000815181106135ac577f4e487b7100000000000000000000000000000000000000000000000000000000600052603260045260246000fd5b60200260200101511015801561361957508860018b6135cb919061534c565b6135d591906153d3565b8460008151811061360f577f4e487b7100000000000000000000000000000000000000000000000000000000600052603260045260246000fd5b6020026020010151105b15613742576136288e83611a7d565b8885600181518110613663577f4e487b7100000000000000000000000000000000000000000000000000000000600052603260045260246000fd5b6020026020010151815181106136a2577f4e487b7100000000000000000000000000000000000000000000000000000000600052603260045260246000fd5b60200260200101819052506001846001815181106136e9577f4e487b7100000000000000000000000000000000000000000000000000000000600052603260045260246000fd5b60200260200101516136fb919061534c565b84600181518110613735577f4e487b7100000000000000000000000000000000000000000000000000000000600052603260045260246000fd5b6020026020010181815250505b60018460008151811061377e577f4e487b7100000000000000000000000000000000000000000000000000000000600052603260045260246000fd5b6020026020010151613790919061534c565b846000815181106137ca577f4e487b7100000000000000000000000000000000000000000000000000000000600052603260045260246000fd5b6020026020010181815250505b80806137e290615505565b91505061344e565b505b82600281518110613826577f4e487b7100000000000000000000000000000000000000000000000000000000600052603260045260246000fd5b602002602001015181613839919061534c565b90506132b0565b508660018961384f919061534c565b61385991906153d3565b82600081518110613893577f4e487b7100000000000000000000000000000000000000000000000000000000600052603260045260246000fd5b60200260200101511115613900578787836000815181106138dd577f4e487b7100000000000000000000000000000000000000000000000000000000600052603260045260246000fd5b60200260200101516138ef91906153a2565b6138f9919061542d565b9450613905565b600094505b50505050965096945050505050565b606060008267ffffffffffffffff811115613958577f4e487b7100000000000000000000000000000000000000000000000000000000600052604160045260246000fd5b60405190808252806020026020018201604052801561399157816020015b61397e613f94565b8152602001906001900390816139765790505b50915060606000600367ffffffffffffffff8111156139d9577f4e487b7100000000000000000000000000000000000000000000000000000000600052604160045260246000fd5b604051908082528060200260200182016040528015613a075781602001602082028036833780820191505090505b5090508873ffffffffffffffffffffffffffffffffffffffff1663ef78d4fd6040518163ffffffff1660e01b815260040160206040518083038186803b158015613a5057600080fd5b505afa158015613a64573d6000803e3d6000fd5b505050506040513d601f19601f82011682018060405250810190613a8891906146b6565b81600281518110613ac2577f4e487b7100000000000000000000000000000000000000000000000000000000600052603260045260246000fd5b60200260200101818152505060008890505b878111613e90578973ffffffffffffffffffffffffffffffffffffffff1663ab02f2a9826040518263ffffffff1660e01b8152600401613b14919061512f565b60006040518083038186803b158015613b2c57600080fd5b505afa158015613b40573d6000803e3d6000fd5b505050506040513d6000823e3d601f19601f82011682018060405250810190613b69919061435b565b925060005b8351811015613e3b578688613b8391906153d3565b83600081518110613bbd577f4e487b7100000000000000000000000000000000000000000000000000000000600052603260045260246000fd5b602002602001015110158015613c2a575086600189613bdc919061534c565b613be691906153d3565b83600081518110613c20577f4e487b7100000000000000000000000000000000000000000000000000000000600052603260045260246000fd5b6020026020010151105b15613d9457613c7a8b83868481518110613c6d577f4e487b7100000000000000000000000000000000000000000000000000000000600052603260045260246000fd5b60200260200101516104e7565b8684600181518110613cb5577f4e487b7100000000000000000000000000000000000000000000000000000000600052603260045260246000fd5b602002602001015181518110613cf4577f4e487b7100000000000000000000000000000000000000000000000000000000600052603260045260246000fd5b6020026020010181905250600183600181518110613d3b577f4e487b7100000000000000000000000000000000000000000000000000000000600052603260045260246000fd5b6020026020010151613d4d919061534c565b83600181518110613d87577f4e487b7100000000000000000000000000000000000000000000000000000000600052603260045260246000fd5b6020026020010181815250505b600183600081518110613dd0577f4e487b7100000000000000000000000000000000000000000000000000000000600052603260045260246000fd5b6020026020010151613de2919061534c565b83600081518110613e1c577f4e487b7100000000000000000000000000000000000000000000000000000000600052603260045260246000fd5b6020026020010181815250508080613e3390615505565b915050613b6e565b5081600281518110613e76577f4e487b7100000000000000000000000000000000000000000000000000000000600052603260045260246000fd5b602002602001015181613e89919061534c565b9050613ad4565b5084600187613e9f919061534c565b613ea991906153d3565b81600081518110613ee3577f4e487b7100000000000000000000000000000000000000000000000000000000600052603260045260246000fd5b60200260200101511115613f5057858582600081518110613f2d577f4e487b7100000000000000000000000000000000000000000000000000000000600052603260045260246000fd5b6020026020010151613f3f91906153a2565b613f49919061542d565b9250613f55565b600092505b50509550959350505050565b6000607060ff1682600001517bffffffffffffffffffffffffffffffffffffffffffffffffffffffff16901c9050919050565b6040518060a001604052806000815260200160008152602001600073ffffffffffffffffffffffffffffffffffffffff168152602001600081526020016000600281111561400b577f4e487b7100000000000000000000000000000000000000000000000000000000600052602160045260246000fd5b81525090565b60405180610160016040528060008152602001600081526020016000815260200160008152602001600081526020016000815260200160008152602001600081526020016000815260200160006002811115614096577f4e487b7100000000000000000000000000000000000000000000000000000000600052602160045260246000fd5b8152602001606081525090565b6040518060800160405280600073ffffffffffffffffffffffffffffffffffffffff1681526020016000815260200160608152602001600073ffffffffffffffffffffffffffffffffffffffff1681525090565b600061410a614105846151a4565b615173565b9050808382526020820190508285602086028201111561412957600080fd5b60005b85811015614159578161413f88826141e4565b84526020840193506020830192505060018101905061412c565b5050509392505050565b6000614176614171846151d0565b615173565b9050808382526020820190508285602086028201111561419557600080fd5b60005b858110156141c557816141ab88826142b6565b845260208401935060208301925050600181019050614198565b5050509392505050565b6000813590506141de81615632565b92915050565b6000815190506141f381615632565b92915050565b600082601f83011261420a57600080fd5b815161421a8482602086016140f7565b91505092915050565b600082601f83011261423457600080fd5b8151614244848260208601614163565b91505092915050565b60008151905061425c81615649565b92915050565b60008135905061427181615660565b92915050565b60008151905061428681615677565b92915050565b60008151905061429b81615687565b92915050565b6000813590506142b081615697565b92915050565b6000815190506142c581615697565b92915050565b6000806000606084860312156142e057600080fd5b60006142ee868287016141e4565b93505060206142ff868287016142b6565b9250506040614310868287016141e4565b9150509250925092565b60006020828403121561432c57600080fd5b600082015167ffffffffffffffff81111561434657600080fd5b614352848285016141f9565b91505092915050565b60006020828403121561436d57600080fd5b600082015167ffffffffffffffff81111561438757600080fd5b61439384828501614223565b91505092915050565b6000602082840312156143ae57600080fd5b60006143bc8482850161424d565b91505092915050565b600080604083850312156143d857600080fd5b60006143e685828601614262565b92505060206143f7858286016141cf565b9150509250929050565b60008060008060008060c0878903121561441a57600080fd5b600061442889828a01614262565b965050602061443989828a016141cf565b955050604061444a89828a016142a1565b945050606061445b89828a016142a1565b935050608061446c89828a016142a1565b92505060a061447d89828a016142a1565b9150509295509295509295565b600080600080600080600060e0888a0312156144a557600080fd5b60006144b38a828b01614262565b97505060206144c48a828b016141cf565b96505060406144d58a828b016142a1565b95505060606144e68a828b016142a1565b94505060806144f78a828b016142a1565b93505060a06145088a828b016142a1565b92505060c06145198a828b016142a1565b91505092959891949750929550565b6000806040838503121561453b57600080fd5b600061454985828601614262565b925050602061455a858286016142a1565b9150509250929050565b60008060006060848603121561457957600080fd5b600061458786828701614262565b9350506020614598868287016142a1565b92505060406145a9868287016142a1565b9150509250925092565b600080600080608085870312156145c957600080fd5b60006145d787828801614262565b94505060206145e8878288016142a1565b93505060406145f9878288016142a1565b925050606061460a878288016142a1565b91505092959194509250565b600080600080600060a0868803121561462e57600080fd5b600061463c88828901614262565b955050602061464d888289016142a1565b945050604061465e888289016142a1565b935050606061466f888289016142a1565b9250506080614680888289016142a1565b9150509295509295909350565b60006020828403121561469f57600080fd5b60006146ad84828501614277565b91505092915050565b6000602082840312156146c857600080fd5b60006146d6848285016142b6565b91505092915050565b600080600080600060a086880312156146f757600080fd5b6000614705888289016142b6565b9550506020614716888289016142b6565b9450506040614727888289016141e4565b9350506060614738888289016142b6565b92505060806147498882890161428c565b9150509295509295909350565b6000806000806000806000806000806101408b8d03121561477657600080fd5b60006147848d828e016142b6565b9a505060206147958d828e016142b6565b99505060406147a68d828e016142b6565b98505060606147b78d828e016142b6565b97505060806147c88d828e016142b6565b96505060a06147d98d828e016142b6565b95505060c06147ea8d828e016142b6565b94505060e06147fb8d828e016142b6565b93505061010061480d8d828e016142b6565b92505061012061481f8d828e01614277565b9150509295989b9194979a5092959850565b600061483d83836148a1565b60208301905092915050565b60006148558383614c1d565b905092915050565b60006148698383614dfb565b60a08301905092915050565b60006148818383614ecb565b905092915050565b60006148958383614f91565b60208301905092915050565b6148aa81615461565b82525050565b6148b981615461565b82525050565b60006148ca8261524c565b6148d481856152c4565b93506148df836151fc565b8060005b838110156149105781516148f78882614831565b975061490283615283565b9250506001810190506148e3565b5085935050505092915050565b60006149288261524c565b61493281856152d5565b935061493d836151fc565b8060005b8381101561496e5781516149558882614831565b975061496083615283565b925050600181019050614941565b5085935050505092915050565b600061498682615257565b61499081856152e6565b9350836020820285016149a28561520c565b8060005b858110156149de57848403895281516149bf8582614849565b94506149ca83615290565b925060208a019950506001810190506149a6565b50829750879550505050505092915050565b60006149fb82615262565b614a0581856152f7565b9350614a108361521c565b8060005b83811015614a41578151614a28888261485d565b9750614a338361529d565b925050600181019050614a14565b5085935050505092915050565b6000614a598261526d565b614a638185615308565b935083602082028501614a758561522c565b8060005b85811015614ab15784840389528151614a928582614875565b9450614a9d836152aa565b925060208a01995050600181019050614a79565b50829750879550505050505092915050565b6000614ace82615278565b614ad88185615319565b9350614ae38361523c565b8060005b83811015614b14578151614afb8882614889565b9750614b06836152b7565b925050600181019050614ae7565b5085935050505092915050565b6000614b2c82615278565b614b36818561532a565b9350614b418361523c565b8060005b83811015614b72578151614b598882614889565b9750614b64836152b7565b925050600181019050614b45565b5085935050505092915050565b614b88816154e1565b82525050565b614b97816154f3565b82525050565b6000614baa600d8361533b565b91507f496e76616c696420696e646578000000000000000000000000000000000000006000830152602082019050919050565b6000614bea601b8361533b565b91507f54484953204c4f5420495320494e20412050415354204652414d4500000000006000830152602082019050919050565b600061016083016000830151614c366000860182614f91565b506020830151614c496020860182614f91565b506040830151614c5c6040860182614f91565b506060830151614c6f6060860182614f91565b506080830151614c826080860182614f91565b5060a0830151614c9560a0860182614f91565b5060c0830151614ca860c0860182614f91565b5060e0830151614cbb60e0860182614f91565b50610100830151614cd0610100860182614f91565b50610120830151614ce5610120860182614b7f565b50610140830151848203610140860152614cff8282614ac3565b9150508091505092915050565b600061016083016000830151614d256000860182614f91565b506020830151614d386020860182614f91565b506040830151614d4b6040860182614f91565b506060830151614d5e6060860182614f91565b506080830151614d716080860182614f91565b5060a0830151614d8460a0860182614f91565b5060c0830151614d9760c0860182614f91565b5060e0830151614daa60e0860182614f91565b50610100830151614dbf610100860182614f91565b50610120830151614dd4610120860182614b7f565b50610140830151848203610140860152614dee8282614ac3565b9150508091505092915050565b60a082016000820151614e116000850182614f91565b506020820151614e246020850182614f91565b506040820151614e3760408501826148a1565b506060820151614e4a6060850182614f91565b506080820151614e5d6080850182614b8e565b50505050565b60a082016000820151614e796000850182614f91565b506020820151614e8c6020850182614f91565b506040820151614e9f60408501826148a1565b506060820151614eb26060850182614f91565b506080820151614ec56080850182614b8e565b50505050565b6000608083016000830151614ee360008601826148a1565b506020830151614ef66020860182614f91565b5060408301518482036040860152614f0e82826148bf565b9150506060830151614f2360608601826148a1565b508091505092915050565b6000608083016000830151614f4660008601826148a1565b506020830151614f596020860182614f91565b5060408301518482036040860152614f7182826148bf565b9150506060830151614f8660608601826148a1565b508091505092915050565b614f9a816154d7565b82525050565b614fa9816154d7565b82525050565b6000602082019050614fc460008301846148b0565b92915050565b60006020820190508181036000830152614fe4818461491d565b905092915050565b60006040820190508181036000830152615006818561497b565b90506150156020830184614fa0565b9392505050565b6000604082019050818103600083015261503681856149f0565b90506150456020830184614fa0565b9392505050565b600060208201905081810360008301526150668184614a4e565b905092915050565b600060208201905081810360008301526150888184614b21565b905092915050565b600060208201905081810360008301526150a981614b9d565b9050919050565b600060208201905081810360008301526150c981614bdd565b9050919050565b600060208201905081810360008301526150ea8184614d0c565b905092915050565b600060a0820190506151076000830184614e63565b92915050565b600060208201905081810360008301526151278184614f2e565b905092915050565b60006020820190506151446000830184614fa0565b92915050565b600060408201905061515f6000830185614fa0565b61516c6020830184614fa0565b9392505050565b6000604051905081810181811067ffffffffffffffff8211171561519a576151996155db565b5b8060405250919050565b600067ffffffffffffffff8211156151bf576151be6155db565b5b602082029050602081019050919050565b600067ffffffffffffffff8211156151eb576151ea6155db565b5b602082029050602081019050919050565b6000819050602082019050919050565b6000819050602082019050919050565b6000819050602082019050919050565b6000819050602082019050919050565b6000819050602082019050919050565b600081519050919050565b600081519050919050565b600081519050919050565b600081519050919050565b600081519050919050565b6000602082019050919050565b6000602082019050919050565b6000602082019050919050565b6000602082019050919050565b6000602082019050919050565b600082825260208201905092915050565b600082825260208201905092915050565b600082825260208201905092915050565b600082825260208201905092915050565b600082825260208201905092915050565b600082825260208201905092915050565b600082825260208201905092915050565b600082825260208201905092915050565b6000615357826154d7565b9150615362836154d7565b9250827fffffffffffffffffffffffffffffffffffffffffffffffffffffffffffffffff038211156153975761539661554e565b5b828201905092915050565b60006153ad826154d7565b91506153b8836154d7565b9250826153c8576153c761557d565b5b828204905092915050565b60006153de826154d7565b91506153e9836154d7565b9250817fffffffffffffffffffffffffffffffffffffffffffffffffffffffffffffffff04831182151516156154225761542161554e565b5b828202905092915050565b6000615438826154d7565b9150615443836154d7565b9250828210156154565761545561554e565b5b828203905092915050565b600061546c826154b7565b9050919050565b60008115159050919050565b600061548a82615461565b9050919050565b600081905061549f8261560a565b919050565b60008190506154b28261561e565b919050565b600073ffffffffffffffffffffffffffffffffffffffff82169050919050565b6000819050919050565b60006154ec82615491565b9050919050565b60006154fe826154a4565b9050919050565b6000615510826154d7565b91507fffffffffffffffffffffffffffffffffffffffffffffffffffffffffffffffff8214156155435761554261554e565b5b600182019050919050565b7f4e487b7100000000000000000000000000000000000000000000000000000000600052601160045260246000fd5b7f4e487b7100000000000000000000000000000000000000000000000000000000600052601260045260246000fd5b7f4e487b7100000000000000000000000000000000000000000000000000000000600052602160045260246000fd5b7f4e487b7100000000000000000000000000000000000000000000000000000000600052604160045260246000fd5b6003811061561b5761561a6155ac565b5b50565b6003811061562f5761562e6155ac565b5b50565b61563b81615461565b811461564657600080fd5b50565b61565281615473565b811461565d57600080fd5b50565b6156698161547f565b811461567457600080fd5b50565b6003811061568457600080fd5b50565b6003811061569457600080fd5b50565b6156a0816154d7565b81146156ab57600080fd5b5056fea264697066735822122023cfaa92754d74a853c4183d89c679d3f4e0a12628e22ec3fc22f4acf7f6addc64736f6c63430008000033",
  "linkReferences": {},
  "deployedLinkReferences": {}
}