{
  "contractName": "Factory",
  "abi": [
    {
      "inputs": [
        {
          "internalType": "address",
          "name": "_uniswapFactory",
          "type": "address"
        }
      ],
      "stateMutability": "nonpayable",
      "type": "constructor"
    },
    {
      "inputs": [
        {
          "internalType": "address",
          "name": "",
          "type": "address"
        }
      ],
      "name": "markets",
      "outputs": [
        {
          "internalType": "contract Market",
          "name": "",
          "type": "address"
        }
      ],
      "stateMutability": "view",
      "type": "function"
    },
    {
      "inputs": [
        {
          "internalType": "uint256",
          "name": "",
          "type": "uint256"
        }
      ],
      "name": "marketsKeys",
      "outputs": [
        {
          "internalType": "address",
          "name": "",
          "type": "address"
        }
      ],
      "stateMutability": "view",
      "type": "function"
    },
    {
      "inputs": [],
      "name": "owner",
      "outputs": [
        {
          "internalType": "address",
          "name": "",
          "type": "address"
        }
      ],
      "stateMutability": "view",
      "type": "function"
    },
    {
      "inputs": [],
      "name": "uniswapFactory",
      "outputs": [
        {
          "internalType": "contract IUniswapV2Factory",
          "name": "",
          "type": "address"
        }
      ],
      "stateMutability": "view",
      "type": "function"
    },
    {
      "inputs": [
        {
          "internalType": "address",
          "name": "_token",
          "type": "address"
        },
        {
          "internalType": "address",
          "name": "_uniswapPair",
          "type": "address"
        },
        {
          "internalType": "uint256",
          "name": "_period",
          "type": "uint256"
        },
        {
          "internalType": "uint256",
          "name": "_initTimestamp",
          "type": "uint256"
        },
        {
          "internalType": "uint256",
          "name": "_tax",
          "type": "uint256"
        },
        {
          "internalType": "uint256",
          "name": "_fee",
          "type": "uint256"
        },
        {
          "internalType": "uint256",
          "name": "_dPrice",
          "type": "uint256"
        }
      ],
      "name": "addMarket",
      "outputs": [],
      "stateMutability": "nonpayable",
      "type": "function"
    },
    {
      "inputs": [],
      "name": "getMarketsCount",
      "outputs": [
        {
          "internalType": "uint256",
          "name": "",
          "type": "uint256"
        }
      ],
      "stateMutability": "view",
      "type": "function"
    }
  ],
  "bytecode": "0x608060405234801561001057600080fd5b50604051613dcc380380613dcc833981810160405281019061003291906100ce565b33600360006101000a81548173ffffffffffffffffffffffffffffffffffffffff021916908373ffffffffffffffffffffffffffffffffffffffff160217905550806000806101000a81548173ffffffffffffffffffffffffffffffffffffffff021916908373ffffffffffffffffffffffffffffffffffffffff16021790555050610149565b6000815190506100c881610132565b92915050565b6000602082840312156100e4576100e361012d565b5b60006100f2848285016100b9565b91505092915050565b60006101068261010d565b9050919050565b600073ffffffffffffffffffffffffffffffffffffffff82169050919050565b600080fd5b61013b816100fb565b811461014657600080fd5b50565b613c74806101586000396000f3fe60806040523480156200001157600080fd5b50600436106200006a5760003560e01c806327fa35c3146200006f57806346a81c0014620000915780638bdb2afa14620000c75780638da5cb5b14620000e95780638e8f294b146200010b578063df9200341462000141575b600080fd5b6200007962000161565b60405162000088919062000610565b60405180910390f35b620000af6004803603810190620000a9919062000482565b6200016e565b604051620000be91906200052b565b60405180910390f35b620000d1620001ae565b604051620000e09190620005d6565b60405180910390f35b620000f3620001d2565b6040516200010291906200052b565b60405180910390f35b6200012960048036038101906200012391906200039d565b620001f8565b604051620001389190620005f3565b60405180910390f35b6200015f6004803603810190620001599190620003cf565b6200022b565b005b6000600280549050905090565b600281815481106200017f57600080fd5b906000526020600020016000915054906101000a900473ffffffffffffffffffffffffffffffffffffffff1681565b60008054906101000a900473ffffffffffffffffffffffffffffffffffffffff1681565b600360009054906101000a900473ffffffffffffffffffffffffffffffffffffffff1681565b60016020528060005260406000206000915054906101000a900473ffffffffffffffffffffffffffffffffffffffff1681565b60003088888888888888604051620002439062000361565b6200025698979695949392919062000548565b604051809103906000f08015801562000273573d6000803e3d6000fd5b50905080600160008373ffffffffffffffffffffffffffffffffffffffff1673ffffffffffffffffffffffffffffffffffffffff16815260200190815260200160002060006101000a81548173ffffffffffffffffffffffffffffffffffffffff021916908373ffffffffffffffffffffffffffffffffffffffff1602179055506002819080600181540180825580915050600190039060005260206000200160009091909190916101000a81548173ffffffffffffffffffffffffffffffffffffffff021916908373ffffffffffffffffffffffffffffffffffffffff1602179055505050505050505050565b6134d2806200076d83390190565b600081359050620003808162000738565b92915050565b600081359050620003978162000752565b92915050565b600060208284031215620003b657620003b562000733565b5b6000620003c6848285016200036f565b91505092915050565b600080600080600080600060e0888a031215620003f157620003f062000733565b5b6000620004018a828b016200036f565b9750506020620004148a828b016200036f565b9650506040620004278a828b0162000386565b95505060606200043a8a828b0162000386565b94505060806200044d8a828b0162000386565b93505060a0620004608a828b0162000386565b92505060c0620004738a828b0162000386565b91505092959891949750929550565b6000602082840312156200049b576200049a62000733565b5b6000620004ab8482850162000386565b91505092915050565b620004bf816200062d565b82525050565b620004d0816200066b565b82525050565b620004e18162000693565b82525050565b620004f281620006bb565b82525050565b6200050381620006e3565b82525050565b62000514816200070b565b82525050565b620005258162000661565b82525050565b6000602082019050620005426000830184620004b4565b92915050565b60006101008201905062000560600083018b620004c5565b6200056f602083018a620004d6565b6200057e6040830189620004f8565b6200058d60608301886200051a565b6200059c60808301876200051a565b620005ab60a08301866200051a565b620005ba60c08301856200051a565b620005c960e08301846200051a565b9998505050505050505050565b6000602082019050620005ed6000830184620004e7565b92915050565b60006020820190506200060a600083018462000509565b92915050565b60006020820190506200062760008301846200051a565b92915050565b60006200063a8262000641565b9050919050565b600073ffffffffffffffffffffffffffffffffffffffff82169050919050565b6000819050919050565b600062000678826200067f565b9050919050565b60006200068c8262000641565b9050919050565b6000620006a082620006a7565b9050919050565b6000620006b48262000641565b9050919050565b6000620006c882620006cf565b9050919050565b6000620006dc8262000641565b9050919050565b6000620006f082620006f7565b9050919050565b6000620007048262000641565b9050919050565b600062000718826200071f565b9050919050565b60006200072c8262000641565b9050919050565b600080fd5b62000743816200062d565b81146200074f57600080fd5b50565b6200075d8162000661565b81146200076957600080fd5b5056fe6080604052606460095569d3c21bcecceda1000000600a55620186a0600b553480156200002b57600080fd5b50604051620034d2380380620034d28339818101604052810190620000519190620001e1565b86600160006101000a81548173ffffffffffffffffffffffffffffffffffffffff021916908373ffffffffffffffffffffffffffffffffffffffff16021790555033600260006101000a81548173ffffffffffffffffffffffffffffffffffffffff021916908373ffffffffffffffffffffffffffffffffffffffff1602179055508460038190555083600481905550826008819055508160078190555085600560006101000a81548173ffffffffffffffffffffffffffffffffffffffff021916908373ffffffffffffffffffffffffffffffffffffffff16021790555080600681905550876000806101000a81548173ffffffffffffffffffffffffffffffffffffffff021916908373ffffffffffffffffffffffffffffffffffffffff160217905550505050505050505062000391565b600081519050620001968162000329565b92915050565b600081519050620001ad8162000343565b92915050565b600081519050620001c4816200035d565b92915050565b600081519050620001db8162000377565b92915050565b600080600080600080600080610100898b03121562000205576200020462000324565b5b6000620002158b828c0162000185565b9850506020620002288b828c016200019c565b97505060406200023b8b828c01620001b3565b96505060606200024e8b828c01620001ca565b9550506080620002618b828c01620001ca565b94505060a0620002748b828c01620001ca565b93505060c0620002878b828c01620001ca565b92505060e06200029a8b828c01620001ca565b9150509295985092959890939650565b6000620002b782620002fa565b9050919050565b6000620002cb82620002aa565b9050919050565b6000620002df82620002aa565b9050919050565b6000620002f382620002aa565b9050919050565b600073ffffffffffffffffffffffffffffffffffffffff82169050919050565b6000819050919050565b600080fd5b6200033481620002be565b81146200034057600080fd5b50565b6200034e81620002d2565b81146200035a57600080fd5b50565b6200036881620002e6565b81146200037457600080fd5b50565b62000382816200031a565b81146200038e57600080fd5b50565b61313180620003a16000396000f3fe6080604052600436106101d85760003560e01c80635619e1f5116101025780639d750e3211610095578063c84993af11610064578063c84993af14610746578063da68cf8b14610783578063ef78d4fd146107ae578063fc950702146107d9576101d8565b80639d750e321461067f578063a10340bc146106aa578063c45a0155146106f0578063c816841b1461071b576101d8565b80637d6ae6a0116100d15780637d6ae6a0146105d05780637e9966391461060d5780637f6c6f10146106385780639533319414610663576101d8565b80635619e1f5146104ee5780635b3ad63e1461052b57806370b9f358146105685780637358c57a146105a5576101d8565b806331cf77b41161017a578063499a0fc411610149578063499a0fc4146104305780634f3ab71f1461045b578063527eb4bc1461049857806352a7494d146104c3576101d8565b806331cf77b41461037457806331e592e2146103b1578063410f0710146103da5780634508477514610405576101d8565b806318ff0e07116101b657806318ff0e07146102945780631e501486146102d15780632a0efd441461030e5780632a3dbdb614610337576101d8565b806304673368146101dd578063050e88401461021a5780630cbcff8f14610257575b600080fd5b3480156101e957600080fd5b5061020460048036038101906101ff919061263f565b610802565b6040516102119190612ad3565b60405180910390f35b34801561022657600080fd5b50610241600480360381019061023c91906125a5565b610837565b60405161024e9190612ad3565b60405180910390f35b34801561026357600080fd5b5061027e600480360381019061027991906125a5565b61085b565b60405161028b9190612ad3565b60405180910390f35b3480156102a057600080fd5b506102bb60048036038101906102b691906125a5565b610a16565b6040516102c89190612ad3565b60405180910390f35b3480156102dd57600080fd5b506102f860048036038101906102f3919061267f565b610a6e565b6040516103059190612ad3565b60405180910390f35b34801561031a57600080fd5b50610335600480360381019061033091906125a5565b610d4a565b005b34801561034357600080fd5b5061035e600480360381019061035991906126d2565b610ea1565b60405161036b9190612ad3565b60405180910390f35b34801561038057600080fd5b5061039b6004803603810190610396919061263f565b610f3d565b6040516103a89190612ad3565b60405180910390f35b3480156103bd57600080fd5b506103d860048036038101906103d391906125ff565b610f75565b005b3480156103e657600080fd5b506103ef6110e7565b6040516103fc9190612ad3565b60405180910390f35b34801561041157600080fd5b5061041a6110ed565b60405161042791906128b5565b60405180910390f35b34801561043c57600080fd5b50610445611113565b6040516104529190612ad3565b60405180910390f35b34801561046757600080fd5b50610482600480360381019061047d919061267f565b611119565b60405161048f9190612ad3565b60405180910390f35b3480156104a457600080fd5b506104ad611204565b6040516104ba9190612ad3565b60405180910390f35b3480156104cf57600080fd5b506104d861120a565b6040516104e59190612ad3565b60405180910390f35b3480156104fa57600080fd5b506105156004803603810190610510919061267f565b611217565b6040516105229190612ad3565b60405180910390f35b34801561053757600080fd5b50610552600480360381019061054d91906125a5565b611269565b60405161055f9190612ad3565b60405180910390f35b34801561057457600080fd5b5061058f600480360381019061058a91906125a5565b6112d7565b60405161059c9190612ad3565b60405180910390f35b3480156105b157600080fd5b506105ba6112fb565b6040516105c79190612ad3565b60405180910390f35b3480156105dc57600080fd5b506105f760048036038101906105f291906125a5565b611301565b6040516106049190612ad3565b60405180910390f35b34801561061957600080fd5b50610622611344565b60405161062f9190612ad3565b60405180910390f35b34801561064457600080fd5b5061064d61134a565b60405161065a9190612ad3565b60405180910390f35b61067d600480360381019061067891906126d2565b611352565b005b34801561068b57600080fd5b50610694611a00565b6040516106a19190612ad3565b60405180910390f35b3480156106b657600080fd5b506106d160048036038101906106cc91906125a5565b611ab9565b6040516106e79a99989796959493929190612aee565b60405180910390f35b3480156106fc57600080fd5b50610705611b1a565b6040516107129190612982565b60405180910390f35b34801561072757600080fd5b50610730611b3e565b60405161073d91906129b8565b60405180910390f35b34801561075257600080fd5b5061076d600480360381019061076891906125a5565b611b64565b60405161077a9190612ad3565b60405180910390f35b34801561078f57600080fd5b50610798611b84565b6040516107a5919061299d565b60405180910390f35b3480156107ba57600080fd5b506107c3611baa565b6040516107d09190612ad3565b60405180910390f35b3480156107e557600080fd5b5061080060048036038101906107fb91906125a5565b611bb0565b005b6000600c6000848152602001908152602001600020600a01600083815260200190815260200160002060030154905092915050565b600d818154811061084757600080fd5b906000526020600020016000915090505481565b60006004548210156108a2576040517f08c379a000000000000000000000000000000000000000000000000000000000815260040161089990612a33565b60405180910390fd5b60006108ad83611269565b9050600060038111156108c3576108c2612ed1565b5b600c600083815260200190815260200160002060010160009054906101000a900460ff1660038111156108f9576108f8612ed1565b5b146109075780915050610a11565b61091042611269565b811015610952576040517f08c379a000000000000000000000000000000000000000000000000000000000815260040161094990612a13565b60405180910390fd5b80600c6000838152602001908152602001600020600001819055506001600c600083815260200190815260200160002060010160006101000a81548160ff021916908360038111156109a7576109a6612ed1565b5b0217905550600d8190806001815401808255809150506001900390600052602060002001600090919091909150557f163614e6e9ce9df7687928015fd2c748b69c5136db886e57f09170b251b58e8781604051610a049190612ad3565b60405180910390a1809150505b919050565b6000808211610a29576006549050610a69565b610a66600654610a58600654610a4a6006548761229d90919063ffffffff16565b6122b390919063ffffffff16565b6122c990919063ffffffff16565b90505b919050565b600080610a7c858585611119565b9050610a888585610f3d565b8110610ac9576040517f08c379a0000000000000000000000000000000000000000000000000000000008152600401610ac090612a93565b60405180910390fd5b6000600c6000878152602001908152602001600020600a0160008681526020019081526020016000206040518060a0016040529081600082015481526020016001820154815260200160028201805480602002602001604051908101604052809291908181526020016000905b82821015610bc857838290600052602060002090600202016040518060400160405290816000820160009054906101000a900473ffffffffffffffffffffffffffffffffffffffff1673ffffffffffffffffffffffffffffffffffffffff1673ffffffffffffffffffffffffffffffffffffffff16815260200160018201548152505081526020019060010190610b36565b505050508152602001600382015481526020016004820160009054906101000a900460ff166002811115610bff57610bfe612ed1565b5b6002811115610c1157610c10612ed1565b5b815250509050600081604001518381518110610c3057610c2f612f00565b5b60200260200101516020015190506000600c60008460000151815260200190815260200160002060090154905060008360400151600081518110610c7757610c76612f00565b5b60200260200101516020015190506000856001610c948c8c610f3d565b610c9e9190612cad565b1415610cac57829050610cde565b8460400151600187610cbe9190612b9b565b81518110610ccf57610cce612f00565b5b60200260200101516020015190505b6000610cf385836122df90919063ffffffff16565b90506000610d0a84866122df90919063ffffffff16565b90506000610d3582610d27600a54866122b390919063ffffffff16565b61229d90919063ffffffff16565b90508099505050505050505050509392505050565b6000610d5542611269565b905043600c600083815260200190815260200160002060090181905550610d9b615460610d8d600354846122c990919063ffffffff16565b6122df90919063ffffffff16565b4211610e135781600c60008381526020019081526020016000206004018190555042600c6000838152602001908152602001600020600701819055507f163614e6e9ce9df7687928015fd2c748b69c5136db886e57f09170b251b58e8781604051610e069190612ad3565b60405180910390a1610e9d565b610e28600354826122c990919063ffffffff16565b4211610e9c5781600c60008381526020019081526020016000206005018190555042600c6000838152602001908152602001600020600801819055507f163614e6e9ce9df7687928015fd2c748b69c5136db886e57f09170b251b58e8781604051610e939190612ad3565b60405180910390a15b5b5050565b600080610ead85611301565b90506000610eed82610edf620186a0610ed1600854896122b390919063ffffffff16565b61229d90919063ffffffff16565b6122b390919063ffffffff16565b90506000610f2e82600c60008a8152602001908152602001600020600a016000898152602001908152602001600020600301546122c990919063ffffffff16565b90508093505050509392505050565b6000600c6000848152602001908152602001600020600a01600083815260200190815260200160002060020180549050905092915050565b60026003811115610f8957610f88612ed1565b5b600c600084815260200190815260200160002060010160009054906101000a900460ff166003811115610fbf57610fbe612ed1565b5b14610fff576040517f08c379a0000000000000000000000000000000000000000000000000000000008152600401610ff690612a53565b60405180910390fd5b6000611020600c600085815260200190815260200160002060020154610a16565b9050600061102f848385611217565b9050600160009054906101000a900473ffffffffffffffffffffffffffffffffffffffff1673ffffffffffffffffffffffffffffffffffffffff1663a9059cbb84836040518363ffffffff1660e01b815260040161108e929190612959565b602060405180830381600087803b1580156110a857600080fd5b505af11580156110bc573d6000803e3d6000fd5b505050506040513d601f19601f820116820180604052508101906110e09190612578565b5050505050565b60075481565b600260009054906101000a900473ffffffffffffffffffffffffffffffffffffffff1681565b60065481565b600080600090505b61112b8585610f3d565b8110156111ef578273ffffffffffffffffffffffffffffffffffffffff16600c6000878152602001908152602001600020600a016000868152602001908152602001600020600201828154811061118557611184612f00565b5b906000526020600020906002020160000160009054906101000a900473ffffffffffffffffffffffffffffffffffffffff1673ffffffffffffffffffffffffffffffffffffffff1614156111dc57809150506111fd565b80806111e790612e2a565b915050611121565b506111fa8484610f3d565b90505b9392505050565b60095481565b6000600e80549050905090565b6000611260600a54611252600c600088815260200190815260200160002060030154611244888888610a6e565b6122b390919063ffffffff16565b61229d90919063ffffffff16565b90509392505050565b6000600454821161127e5760045490506112d2565b6112cf6004546112c16003546112b36003546112a5600454896122df90919063ffffffff16565b61229d90919063ffffffff16565b6122b390919063ffffffff16565b6122c990919063ffffffff16565b90505b919050565b600e81815481106112e757600080fd5b906000526020600020016000915090505481565b60045481565b600061133d600161132f60035461132142876122df90919063ffffffff16565b61229d90919063ffffffff16565b6122c990919063ffffffff16565b9050919050565b60085481565b600043905090565b600061135d8461085b565b9050600061136b82856122f5565b9050600061137886611301565b905060006113b8826113aa620186a061139c6008548a6122b390919063ffffffff16565b61229d90919063ffffffff16565b6122b390919063ffffffff16565b90506113f781600c6000878152602001908152602001600020600a016000868152602001908152602001600020600301546122c990919063ffffffff16565b600160009054906101000a900473ffffffffffffffffffffffffffffffffffffffff1673ffffffffffffffffffffffffffffffffffffffff1663dd62ed3e33306040518363ffffffff1660e01b81526004016114549291906128f9565b60206040518083038186803b15801561146c57600080fd5b505afa158015611480573d6000803e3d6000fd5b505050506040513d601f19601f820116820180604052508101906114a491906125d2565b10156114e5576040517f08c379a00000000000000000000000000000000000000000000000000000000081526004016114dc90612ab3565b60405180910390fd5b600160009054906101000a900473ffffffffffffffffffffffffffffffffffffffff1673ffffffffffffffffffffffffffffffffffffffff166323b872dd333061156285600c60008b8152602001908152602001600020600a0160008a8152602001908152602001600020600301546122c990919063ffffffff16565b6040518463ffffffff1660e01b815260040161158093929190612922565b602060405180830381600087803b15801561159a57600080fd5b505af11580156115ae573d6000803e3d6000fd5b505050506040513d601f19601f820116820180604052508101906115d29190612578565b506115fc81600c6000878152602001908152602001600020600301546122c990919063ffffffff16565b600c6000868152602001908152602001600020600301819055506001600281111561162a57611629612ed1565b5b600c6000868152602001908152602001600020600a01600085815260200190815260200160002060040160009054906101000a900460ff16600281111561167457611673612ed1565b5b14156118a45760006116e2836116d4620186a06116c6600854600c60008c8152602001908152602001600020600a0160008b8152602001908152602001600020600301546122b390919063ffffffff16565b61229d90919063ffffffff16565b6122b390919063ffffffff16565b90506000611723600c6000888152602001908152602001600020600a01600087815260200190815260200160002060030154836122c990919063ffffffff16565b9050600160009054906101000a900473ffffffffffffffffffffffffffffffffffffffff1673ffffffffffffffffffffffffffffffffffffffff1663a9059cbb600c6000898152602001908152602001600020600a0160008881526020019081526020016000206002016117aa600161179c8b8b610f3d565b6122df90919063ffffffff16565b815481106117bb576117ba612f00565b5b906000526020600020906002020160000160009054906101000a900473ffffffffffffffffffffffffffffffffffffffff16836040518363ffffffff1660e01b815260040161180b9291906128d0565b602060405180830381600087803b15801561182557600080fd5b505af1158015611839573d6000803e3d6000fd5b505050506040513d601f19601f8201168201806040525081019061185d9190612578565b5061188782600c6000898152602001908152602001600020600301546122df90919063ffffffff16565b600c60008881526020019081526020016000206003018190555050505b600c6000858152602001908152602001600020600a01600084815260200190815260200160002060020160405180604001604052803373ffffffffffffffffffffffffffffffffffffffff16815260200143815250908060018154018082558091505060019003906000526020600020906002020160009091909190915060008201518160000160006101000a81548173ffffffffffffffffffffffffffffffffffffffff021916908373ffffffffffffffffffffffffffffffffffffffff1602179055506020820151816001015550506001600c6000868152602001908152602001600020600a01600085815260200190815260200160002060040160006101000a81548160ff021916908360028111156119c3576119c2612ed1565b5b021790555084600c6000868152602001908152602001600020600a0160008581526020019081526020016000206003018190555050505050505050565b600080600160009054906101000a900473ffffffffffffffffffffffffffffffffffffffff1673ffffffffffffffffffffffffffffffffffffffff1663dd62ed3e33306040518363ffffffff1660e01b8152600401611a609291906128f9565b60206040518083038186803b158015611a7857600080fd5b505afa158015611a8c573d6000803e3d6000fd5b505050506040513d601f19601f82011682018060405250810190611ab091906125d2565b90508091505090565b600c6020528060005260406000206000915090508060000154908060010160009054906101000a900460ff1690806002015490806003015490806004015490806005015490806006015490806007015490806008015490806009015490508a565b60008054906101000a900473ffffffffffffffffffffffffffffffffffffffff1681565b600560009054906101000a900473ffffffffffffffffffffffffffffffffffffffff1681565b6000600c6000838152602001908152602001600020600301549050919050565b600160009054906101000a900473ffffffffffffffffffffffffffffffffffffffff1681565b60035481565b60016003811115611bc457611bc3612ed1565b5b600c600083815260200190815260200160002060010160009054906101000a900460ff166003811115611bfa57611bf9612ed1565b5b14611c3a576040517f08c379a0000000000000000000000000000000000000000000000000000000008152600401611c31906129f3565b60405180910390fd5b42611c50600354836122c990919063ffffffff16565b1115611c91576040517f08c379a0000000000000000000000000000000000000000000000000000000008152600401611c88906129d3565b60405180910390fd5b6000600c600083815260200190815260200160002060040154111580611cce57506000600c60008381526020019081526020016000206005015411155b15611d13576003600c600083815260200190815260200160002060010160006101000a81548160ff02191690836003811115611d0d57611d0c612ed1565b5b02179055505b600c600082815260200190815260200160002060050154600c6000838152602001908152602001600020600401541415611d87576003600c600083815260200190815260200160002060010160006101000a81548160ff02191690836003811115611d8157611d80612ed1565b5b02179055505b6002600c600083815260200190815260200160002060010160006101000a81548160ff02191690836003811115611dc157611dc0612ed1565b5b02179055506000611e07600c600084815260200190815260200160002060040154600c6000858152602001908152602001600020600501546122df90919063ffffffff16565b90506000611e4a600c600085815260200190815260200160002060070154600c6000868152602001908152602001600020600801546122df90919063ffffffff16565b9050611e826040518060200160405280847bffffffffffffffffffffffffffffffffffffffffffffffffffffffff1681525082612401565b600001517bffffffffffffffffffffffffffffffffffffffffffffffffffffffff16600c600085815260200190815260200160002060020181905550611eed600a546070600c600087815260200190815260200160002060020154901c6122b390919063ffffffff16565b600c600085815260200190815260200160002060020181905550611f497406d79f82328ea3da61e066ebb2f88a0000000000006070600c600087815260200190815260200160002060020154901b61229d90919063ffffffff16565b600c6000858152602001908152602001600020600201819055506000611fa5620186a0611f97600754600c6000898152602001908152602001600020600301546122b390919063ffffffff16565b61229d90919063ffffffff16565b90506000611fe9620186a0611fdb600954600c60008a8152602001908152602001600020600301546122b390919063ffffffff16565b61229d90919063ffffffff16565b90506120268161201884600c60008a8152602001908152602001600020600301546122df90919063ffffffff16565b6122df90919063ffffffff16565b600c600087815260200190815260200160002060030181905550600160009054906101000a900473ffffffffffffffffffffffffffffffffffffffff1673ffffffffffffffffffffffffffffffffffffffff1663a9059cbb600260009054906101000a900473ffffffffffffffffffffffffffffffffffffffff16846040518363ffffffff1660e01b81526004016120bf9291906128d0565b602060405180830381600087803b1580156120d957600080fd5b505af11580156120ed573d6000803e3d6000fd5b505050506040513d601f19601f820116820180604052508101906121119190612578565b50600160009054906101000a900473ffffffffffffffffffffffffffffffffffffffff1673ffffffffffffffffffffffffffffffffffffffff1663a9059cbb60008054906101000a900473ffffffffffffffffffffffffffffffffffffffff1673ffffffffffffffffffffffffffffffffffffffff16638da5cb5b6040518163ffffffff1660e01b815260040160206040518083038186803b1580156121b657600080fd5b505afa1580156121ca573d6000803e3d6000fd5b505050506040513d601f19601f820116820180604052508101906121ee919061254b565b836040518363ffffffff1660e01b815260040161220c929190612959565b602060405180830381600087803b15801561222657600080fd5b505af115801561223a573d6000803e3d6000fd5b505050506040513d601f19601f8201168201806040525081019061225e9190612578565b507f163614e6e9ce9df7687928015fd2c748b69c5136db886e57f09170b251b58e878560405161228e9190612ad3565b60405180910390a15050505050565b600081836122ab9190612c22565b905092915050565b600081836122c19190612c53565b905092915050565b600081836122d79190612b9b565b905092915050565b600081836122ed9190612cad565b905092915050565b60008061230183610a16565b90506000600281111561231757612316612ed1565b5b600c6000868152602001908152602001600020600a01600083815260200190815260200160002060040160009054906101000a900460ff16600281111561236157612360612ed1565b5b1461236f57809150506123fb565b80600c6000868152602001908152602001600020600a0160008381526020019081526020016000206001018190555083600c6000868152602001908152602001600020600a01600083815260200190815260200160002060000181905550600e819080600181540180825580915050600190039060005260206000200160009091909190915055809150505b92915050565b6124096124b1565b6000826dffffffffffffffffffffffffffff16141561245d576040517f08c379a000000000000000000000000000000000000000000000000000000000815260040161245490612a73565b60405180910390fd5b6040518060200160405280836dffffffffffffffffffffffffffff1685600001516124889190612bf1565b7bffffffffffffffffffffffffffffffffffffffffffffffffffffffff16815250905092915050565b604051806020016040528060007bffffffffffffffffffffffffffffffffffffffffffffffffffffffff1681525090565b6000813590506124f1816130b6565b92915050565b600081519050612506816130b6565b92915050565b60008151905061251b816130cd565b92915050565b600081359050612530816130e4565b92915050565b600081519050612545816130e4565b92915050565b60006020828403121561256157612560612f2f565b5b600061256f848285016124f7565b91505092915050565b60006020828403121561258e5761258d612f2f565b5b600061259c8482850161250c565b91505092915050565b6000602082840312156125bb576125ba612f2f565b5b60006125c984828501612521565b91505092915050565b6000602082840312156125e8576125e7612f2f565b5b60006125f684828501612536565b91505092915050565b6000806040838503121561261657612615612f2f565b5b600061262485828601612521565b9250506020612635858286016124e2565b9150509250929050565b6000806040838503121561265657612655612f2f565b5b600061266485828601612521565b925050602061267585828601612521565b9150509250929050565b60008060006060848603121561269857612697612f2f565b5b60006126a686828701612521565b93505060206126b786828701612521565b92505060406126c8868287016124e2565b9150509250925092565b6000806000606084860312156126eb576126ea612f2f565b5b60006126f986828701612521565b935050602061270a86828701612521565b925050604061271b86828701612521565b9150509250925092565b61272e81612d76565b82525050565b61273d81612cf3565b82525050565b61274c81612ce1565b82525050565b61275b81612d88565b82525050565b61276a81612dac565b82525050565b61277981612dd0565b82525050565b61278881612df4565b82525050565b600061279b601a83612b8a565b91506127a682612f34565b602082019050919050565b60006127be601083612b8a565b91506127c982612f5d565b602082019050919050565b60006127e1601a83612b8a565b91506127ec82612f86565b602082019050919050565b6000612804602c83612b8a565b915061280f82612faf565b604082019050919050565b6000612827601083612b8a565b915061283282612ffe565b602082019050919050565b600061284a601783612b8a565b915061285582613027565b602082019050919050565b600061286d601483612b8a565b915061287882613050565b602082019050919050565b6000612890601d83612b8a565b915061289b82613079565b602082019050919050565b6128af81612d6c565b82525050565b60006020820190506128ca6000830184612734565b92915050565b60006040820190506128e56000830185612725565b6128f260208301846128a6565b9392505050565b600060408201905061290e6000830185612743565b61291b6020830184612743565b9392505050565b60006060820190506129376000830186612743565b6129446020830185612743565b61295160408301846128a6565b949350505050565b600060408201905061296e6000830185612743565b61297b60208301846128a6565b9392505050565b60006020820190506129976000830184612752565b92915050565b60006020820190506129b26000830184612761565b92915050565b60006020820190506129cd6000830184612770565b92915050565b600060208201905081810360008301526129ec8161278e565b9050919050565b60006020820190508181036000830152612a0c816127b1565b9050919050565b60006020820190508181036000830152612a2c816127d4565b9050919050565b60006020820190508181036000830152612a4c816127f7565b9050919050565b60006020820190508181036000830152612a6c8161281a565b9050919050565b60006020820190508181036000830152612a8c8161283d565b9050919050565b60006020820190508181036000830152612aac81612860565b9050919050565b60006020820190508181036000830152612acc81612883565b9050919050565b6000602082019050612ae860008301846128a6565b92915050565b600061014082019050612b04600083018d6128a6565b612b11602083018c61277f565b612b1e604083018b6128a6565b612b2b606083018a6128a6565b612b3860808301896128a6565b612b4560a08301886128a6565b612b5260c08301876128a6565b612b5f60e08301866128a6565b612b6d6101008301856128a6565b612b7b6101208301846128a6565b9b9a5050505050505050505050565b600082825260208201905092915050565b6000612ba682612d6c565b9150612bb183612d6c565b9250827fffffffffffffffffffffffffffffffffffffffffffffffffffffffffffffffff03821115612be657612be5612e73565b5b828201905092915050565b6000612bfc82612d44565b9150612c0783612d44565b925082612c1757612c16612ea2565b5b828204905092915050565b6000612c2d82612d6c565b9150612c3883612d6c565b925082612c4857612c47612ea2565b5b828204905092915050565b6000612c5e82612d6c565b9150612c6983612d6c565b9250817fffffffffffffffffffffffffffffffffffffffffffffffffffffffffffffffff0483118215151615612ca257612ca1612e73565b5b828202905092915050565b6000612cb882612d6c565b9150612cc383612d6c565b925082821015612cd657612cd5612e73565b5b828203905092915050565b6000612cec82612d24565b9050919050565b6000612cfe82612d24565b9050919050565b60008115159050919050565b6000819050612d1f826130a2565b919050565b600073ffffffffffffffffffffffffffffffffffffffff82169050919050565b60007bffffffffffffffffffffffffffffffffffffffffffffffffffffffff82169050919050565b6000819050919050565b6000612d8182612e06565b9050919050565b6000612d9382612d9a565b9050919050565b6000612da582612d24565b9050919050565b6000612db782612dbe565b9050919050565b6000612dc982612d24565b9050919050565b6000612ddb82612de2565b9050919050565b6000612ded82612d24565b9050919050565b6000612dff82612d11565b9050919050565b6000612e1182612e18565b9050919050565b6000612e2382612d24565b9050919050565b6000612e3582612d6c565b91507fffffffffffffffffffffffffffffffffffffffffffffffffffffffffffffffff821415612e6857612e67612e73565b5b600182019050919050565b7f4e487b7100000000000000000000000000000000000000000000000000000000600052601160045260246000fd5b7f4e487b7100000000000000000000000000000000000000000000000000000000600052601260045260246000fd5b7f4e487b7100000000000000000000000000000000000000000000000000000000600052602160045260246000fd5b7f4e487b7100000000000000000000000000000000000000000000000000000000600052603260045260246000fd5b600080fd5b7f4652414d4520454e442054494d45204e4f542052454143484544000000000000600082015250565b7f4652414d45204e4f54204f50454e454400000000000000000000000000000000600082015250565b7f43414e275420435245415445204652414d4520494e2050415354000000000000600082015250565b7f54494d455354414d50204245464f524520494e495449414c2054494d4553544160008201527f4d50204f46204d41524b45540000000000000000000000000000000000000000602082015250565b7f4652414d45204e4f5420434c4f53454400000000000000000000000000000000600082015250565b7f4669786564506f696e743a204449565f42595f5a45524f000000000000000000600082015250565b7f4f574e455220444f4553204e4f54204558495354000000000000000000000000600082015250565b7f415050524f56454420414d4f554e54204953204e4f5420454e4f554748000000600082015250565b600481106130b3576130b2612ed1565b5b50565b6130bf81612ce1565b81146130ca57600080fd5b50565b6130d681612d05565b81146130e157600080fd5b50565b6130ed81612d6c565b81146130f857600080fd5b5056fea2646970667358221220a6a8e9b5e5b3f68896fa16638f55a7418d76ab0a25f8bdd6f6c3a617683a574d64736f6c63430008060033a264697066735822122060170a1e314731ffd11c5106b23af6028720daa2d03a6be7ded3ad46a5aa38b064736f6c63430008060033",
  "immutableReferences": {},
  "source": "// SPDX-License-Identifier: MIT\r\npragma solidity >=0.5.0;\r\n\r\nimport \"./Market.sol\";\r\nimport \"@uniswap/v2-core/contracts/interfaces/IUniswapV2Factory.sol\";\r\nimport \"@uniswap/v2-core/contracts/interfaces/IUniswapV2Pair.sol\";\r\nimport \"@openzeppelin/contracts/token/ERC20/IERC20.sol\";\r\n\r\ncontract Factory {\r\n\r\n    IUniswapV2Factory public uniswapFactory;\r\n    mapping(address => Market) public markets;\r\n    address[] public marketsKeys;\r\n    address public owner;\r\n\r\n    constructor(address _uniswapFactory) {\r\n        owner = msg.sender;\r\n        uniswapFactory = IUniswapV2Factory(_uniswapFactory);\r\n    }\r\n\r\n    function addMarket(address _token, address _uniswapPair, uint _period, uint _initTimestamp, uint _tax, uint _fee, uint _dPrice) external {\r\n        Market market = new Market(this, IERC20(_token), IUniswapV2Pair(_uniswapPair), _period, _initTimestamp, _tax, _fee, _dPrice);\r\n        markets[address(market)] = market;\r\n        marketsKeys.push(address(market));\r\n    }\r\n\r\n    function getMarketsCount() public view returns (uint){\r\n        return marketsKeys.length;\r\n    }\r\n}\r\n",
  "sourcePath": "D:/prog/UniHedge/core/contracts/MarketFactory.sol",
  "compiler": {
    "name": "solc",
    "version": "0.8.6+commit.11564f7e.Emscripten.clang"
  },
  "schemaVersion": "3.4.1",
  "updatedAt": "2021-07-04T17:25:47.435Z",
  "devdoc": {
    "kind": "dev",
    "methods": {},
    "version": 1
  },
  "userdoc": {
    "kind": "user",
    "methods": {},
    "version": 1
  }
}