{
  "contractName": "Market",
  "abi": [
    {
      "inputs": [
        {
          "internalType": "contract MarketFactory",
          "name": "_factory",
          "type": "address"
        },
        {
          "internalType": "contract IERC20",
          "name": "_token",
          "type": "address"
        },
        {
          "internalType": "contract IUniswapV2Pair",
          "name": "_uniswapPair",
          "type": "address"
        },
        {
          "internalType": "uint256",
          "name": "_period",
          "type": "uint256"
        },
        {
          "internalType": "uint256",
          "name": "_initTimestamp",
          "type": "uint256"
        },
        {
          "internalType": "uint256",
          "name": "_taxMarket",
          "type": "uint256"
        },
        {
          "internalType": "uint256",
          "name": "_feeMarket",
          "type": "uint256"
        },
        {
          "internalType": "uint256",
          "name": "_dPrice",
          "type": "uint256"
        }
      ],
      "stateMutability": "nonpayable",
      "type": "constructor"
    },
    {
      "anonymous": false,
      "inputs": [
        {
          "indexed": false,
          "internalType": "uint256",
          "name": "frameKey",
          "type": "uint256"
        }
      ],
      "name": "FrameUpdate",
      "type": "event"
    },
    {
      "anonymous": false,
      "inputs": [
        {
          "indexed": false,
          "internalType": "uint256",
          "name": "frameKey",
          "type": "uint256"
        },
        {
          "indexed": false,
          "internalType": "uint256",
          "name": "parcelKey",
          "type": "uint256"
        }
      ],
      "name": "ParcelUpdate",
      "type": "event"
    },
    {
      "inputs": [],
      "name": "accountingToken",
      "outputs": [
        {
          "internalType": "contract IERC20",
          "name": "",
          "type": "address"
        }
      ],
      "stateMutability": "view",
      "type": "function"
    },
    {
      "inputs": [],
      "name": "dPrice",
      "outputs": [
        {
          "internalType": "uint256",
          "name": "",
          "type": "uint256"
        }
      ],
      "stateMutability": "view",
      "type": "function"
    },
    {
      "inputs": [],
      "name": "factory",
      "outputs": [
        {
          "internalType": "contract MarketFactory",
          "name": "",
          "type": "address"
        }
      ],
      "stateMutability": "view",
      "type": "function"
    },
    {
      "inputs": [],
      "name": "feeMarket",
      "outputs": [
        {
          "internalType": "uint256",
          "name": "",
          "type": "uint256"
        }
      ],
      "stateMutability": "view",
      "type": "function"
    },
    {
      "inputs": [],
      "name": "feeProtocol",
      "outputs": [
        {
          "internalType": "uint256",
          "name": "",
          "type": "uint256"
        }
      ],
      "stateMutability": "view",
      "type": "function"
    },
    {
      "inputs": [
        {
          "internalType": "uint256",
          "name": "",
          "type": "uint256"
        }
      ],
      "name": "frames",
      "outputs": [
        {
          "internalType": "uint256",
          "name": "frameKey",
          "type": "uint256"
        },
        {
          "internalType": "enum Market.SFrame",
          "name": "state",
          "type": "uint8"
        },
        {
          "internalType": "uint256",
          "name": "priceAverage",
          "type": "uint256"
        },
        {
          "internalType": "uint256",
          "name": "rewardFund",
          "type": "uint256"
        },
        {
          "internalType": "uint256",
          "name": "oraclePrice0CumulativeStart",
          "type": "uint256"
        },
        {
          "internalType": "uint256",
          "name": "oraclePrice0CumulativeEnd",
          "type": "uint256"
        },
        {
          "internalType": "uint256",
          "name": "price0CumulativeEnd",
          "type": "uint256"
        },
        {
          "internalType": "uint256",
          "name": "oracleTimestampStart",
          "type": "uint256"
        },
        {
          "internalType": "uint256",
          "name": "oracleTimestampEnd",
          "type": "uint256"
        },
        {
          "internalType": "uint256",
          "name": "lastBlockNum",
          "type": "uint256"
        }
      ],
      "stateMutability": "view",
      "type": "function"
    },
    {
      "inputs": [
        {
          "internalType": "uint256",
          "name": "",
          "type": "uint256"
        }
      ],
      "name": "framesKeys",
      "outputs": [
        {
          "internalType": "uint256",
          "name": "",
          "type": "uint256"
        }
      ],
      "stateMutability": "view",
      "type": "function"
    },
    {
      "inputs": [],
      "name": "initTimestamp",
      "outputs": [
        {
          "internalType": "uint256",
          "name": "",
          "type": "uint256"
        }
      ],
      "stateMutability": "view",
      "type": "function"
    },
    {
      "inputs": [],
      "name": "ownerMarket",
      "outputs": [
        {
          "internalType": "address payable",
          "name": "",
          "type": "address"
        }
      ],
      "stateMutability": "view",
      "type": "function"
    },
    {
      "inputs": [],
      "name": "period",
      "outputs": [
        {
          "internalType": "uint256",
          "name": "",
          "type": "uint256"
        }
      ],
      "stateMutability": "view",
      "type": "function"
    },
    {
      "inputs": [],
      "name": "taxMarket",
      "outputs": [
        {
          "internalType": "uint256",
          "name": "",
          "type": "uint256"
        }
      ],
      "stateMutability": "view",
      "type": "function"
    },
    {
      "inputs": [],
      "name": "uniswapPair",
      "outputs": [
        {
          "internalType": "contract IUniswapV2Pair",
          "name": "",
          "type": "address"
        }
      ],
      "stateMutability": "view",
      "type": "function"
    },
    {
      "inputs": [
        {
          "internalType": "uint256",
          "name": "timestamp",
          "type": "uint256"
        }
      ],
      "name": "getOrCreateFrame",
      "outputs": [
        {
          "internalType": "uint256",
          "name": "",
          "type": "uint256"
        }
      ],
      "stateMutability": "nonpayable",
      "type": "function"
    },
    {
      "inputs": [
        {
          "internalType": "uint256",
          "name": "timestamp",
          "type": "uint256"
        }
      ],
      "name": "clcFrameTimestamp",
      "outputs": [
        {
          "internalType": "uint256",
          "name": "",
          "type": "uint256"
        }
      ],
      "stateMutability": "view",
      "type": "function"
    },
    {
      "inputs": [
        {
          "internalType": "uint256",
          "name": "value",
          "type": "uint256"
        }
      ],
      "name": "clcParcelInterval",
      "outputs": [
        {
          "internalType": "uint256",
          "name": "",
          "type": "uint256"
        }
      ],
      "stateMutability": "view",
      "type": "function"
    },
    {
      "inputs": [
        {
          "internalType": "uint256",
          "name": "frameKey",
          "type": "uint256"
        }
      ],
      "name": "clcFramesLeft",
      "outputs": [
        {
          "internalType": "uint256",
          "name": "",
          "type": "uint256"
        }
      ],
      "stateMutability": "view",
      "type": "function"
    },
    {
      "inputs": [
        {
          "internalType": "uint256",
          "name": "frameKey",
          "type": "uint256"
        },
        {
          "internalType": "uint256",
          "name": "parcelKey",
          "type": "uint256"
        }
      ],
      "name": "getCurrentPrice",
      "outputs": [
        {
          "internalType": "uint256",
          "name": "",
          "type": "uint256"
        }
      ],
      "stateMutability": "view",
      "type": "function"
    },
    {
      "inputs": [],
      "name": "getApprovedAmount",
      "outputs": [
        {
          "internalType": "uint256",
          "name": "",
          "type": "uint256"
        }
      ],
      "stateMutability": "view",
      "type": "function"
    },
    {
      "inputs": [
        {
          "internalType": "uint256",
          "name": "frameKey",
          "type": "uint256"
        }
      ],
      "name": "getRewardAmount",
      "outputs": [
        {
          "internalType": "uint256",
          "name": "",
          "type": "uint256"
        }
      ],
      "stateMutability": "view",
      "type": "function"
    },
    {
      "inputs": [
        {
          "internalType": "uint256",
          "name": "frameKey",
          "type": "uint256"
        },
        {
          "internalType": "uint256",
          "name": "parcelKey",
          "type": "uint256"
        }
      ],
      "name": "getNumberOfParcelOwners",
      "outputs": [
        {
          "internalType": "uint256",
          "name": "",
          "type": "uint256"
        }
      ],
      "stateMutability": "view",
      "type": "function"
    },
    {
      "inputs": [],
      "name": "getNumberOfFrameKeys",
      "outputs": [
        {
          "internalType": "uint256",
          "name": "",
          "type": "uint256"
        }
      ],
      "stateMutability": "view",
      "type": "function"
    },
    {
      "inputs": [
        {
          "internalType": "uint256",
          "name": "frameKey",
          "type": "uint256"
        },
        {
          "internalType": "uint256",
          "name": "parcelKey",
          "type": "uint256"
        },
        {
          "internalType": "address",
          "name": "owner",
          "type": "address"
        }
      ],
      "name": "getParcelOwnerIndex",
      "outputs": [
        {
          "internalType": "uint256",
          "name": "",
          "type": "uint256"
        }
      ],
      "stateMutability": "view",
      "type": "function"
    },
    {
      "inputs": [
        {
          "internalType": "uint256",
          "name": "frameKey",
          "type": "uint256"
        },
        {
          "internalType": "uint256",
          "name": "pairPrice",
          "type": "uint256"
        },
        {
          "internalType": "uint256",
          "name": "newSellPrice",
          "type": "uint256"
        },
        {
          "internalType": "uint256",
          "name": "timestamp",
          "type": "uint256"
        }
      ],
      "name": "AmountToApprove",
      "outputs": [
        {
          "internalType": "uint256",
          "name": "",
          "type": "uint256"
        }
      ],
      "stateMutability": "view",
      "type": "function"
    },
    {
      "inputs": [
        {
          "internalType": "uint256",
          "name": "timestamp",
          "type": "uint256"
        },
        {
          "internalType": "uint256",
          "name": "pairPrice",
          "type": "uint256"
        },
        {
          "internalType": "uint256",
          "name": "newSellPrice",
          "type": "uint256"
        }
      ],
      "name": "buyParcel",
      "outputs": [],
      "stateMutability": "payable",
      "type": "function"
    },
    {
      "inputs": [
        {
          "internalType": "uint256",
          "name": "timestamp",
          "type": "uint256"
        },
        {
          "internalType": "uint256",
          "name": "pairPrice",
          "type": "uint256"
        },
        {
          "internalType": "uint256",
          "name": "acquisitionPrice",
          "type": "uint256"
        }
      ],
      "name": "updateParcelPrice",
      "outputs": [],
      "stateMutability": "payable",
      "type": "function"
    },
    {
      "inputs": [
        {
          "internalType": "uint256",
          "name": "PriceCumulative",
          "type": "uint256"
        }
      ],
      "name": "updateFramePrices",
      "outputs": [],
      "stateMutability": "nonpayable",
      "type": "function"
    },
    {
      "inputs": [
        {
          "internalType": "uint256",
          "name": "frameKey",
          "type": "uint256"
        }
      ],
      "name": "closeFrame",
      "outputs": [],
      "stateMutability": "nonpayable",
      "type": "function"
    },
    {
      "inputs": [
        {
          "internalType": "uint256",
          "name": "frameKey",
          "type": "uint256"
        },
        {
          "internalType": "address",
          "name": "owner",
          "type": "address"
        }
      ],
      "name": "settleParcel",
      "outputs": [],
      "stateMutability": "nonpayable",
      "type": "function"
    },
    {
      "inputs": [
        {
          "internalType": "uint256",
          "name": "frameKey",
          "type": "uint256"
        },
        {
          "internalType": "uint256",
          "name": "parcelKey",
          "type": "uint256"
        },
        {
          "internalType": "address",
          "name": "owner",
          "type": "address"
        }
      ],
      "name": "clcShare",
      "outputs": [
        {
          "internalType": "uint256",
          "name": "",
          "type": "uint256"
        }
      ],
      "stateMutability": "view",
      "type": "function"
    },
    {
      "inputs": [
        {
          "internalType": "uint256",
          "name": "frameKey",
          "type": "uint256"
        },
        {
          "internalType": "uint256",
          "name": "parcelKey",
          "type": "uint256"
        },
        {
          "internalType": "address",
          "name": "owner",
          "type": "address"
        }
      ],
      "name": "clcSettleAmount",
      "outputs": [
        {
          "internalType": "uint256",
          "name": "",
          "type": "uint256"
        }
      ],
      "stateMutability": "view",
      "type": "function"
    }
  ],
  "bytecode": "0x6080604052606460095569d3c21bcecceda1000000600a553480156200002457600080fd5b5060405162003cb738038062003cb783398181016040528101906200004a9190620001da565b86600160006101000a81548173ffffffffffffffffffffffffffffffffffffffff021916908373ffffffffffffffffffffffffffffffffffffffff16021790555033600260006101000a81548173ffffffffffffffffffffffffffffffffffffffff021916908373ffffffffffffffffffffffffffffffffffffffff1602179055508460038190555083600481905550826008819055508160078190555085600560006101000a81548173ffffffffffffffffffffffffffffffffffffffff021916908373ffffffffffffffffffffffffffffffffffffffff16021790555080600681905550876000806101000a81548173ffffffffffffffffffffffffffffffffffffffff021916908373ffffffffffffffffffffffffffffffffffffffff16021790555050505050505050506200038a565b6000815190506200018f8162000322565b92915050565b600081519050620001a6816200033c565b92915050565b600081519050620001bd8162000356565b92915050565b600081519050620001d48162000370565b92915050565b600080600080600080600080610100898b031215620001fe57620001fd6200031d565b5b60006200020e8b828c01620001ac565b9850506020620002218b828c016200017e565b9750506040620002348b828c0162000195565b9650506060620002478b828c01620001c3565b95505060806200025a8b828c01620001c3565b94505060a06200026d8b828c01620001c3565b93505060c0620002808b828c01620001c3565b92505060e0620002938b828c01620001c3565b9150509295985092959890939650565b6000620002b082620002f3565b9050919050565b6000620002c482620002a3565b9050919050565b6000620002d882620002a3565b9050919050565b6000620002ec82620002a3565b9050919050565b600073ffffffffffffffffffffffffffffffffffffffff82169050919050565b6000819050919050565b600080fd5b6200032d81620002b7565b81146200033957600080fd5b50565b6200034781620002cb565b81146200035357600080fd5b50565b6200036181620002df565b81146200036d57600080fd5b50565b6200037b8162000313565b81146200038757600080fd5b50565b61391d806200039a6000396000f3fe6080604052600436106101cd5760003560e01c80635b3ad63e116100f7578063a10340bc11610095578063da68cf8b11610064578063da68cf8b14610710578063ec77fe111461073b578063ef78d4fd14610757578063fc95070214610782576101cd565b8063a10340bc14610637578063c45a01551461067d578063c816841b146106a8578063c84993af146106d3576101cd565b80637e996639116100d15780637e9966391461059a57806389da88a3146105c557806395333194146105f05780639d750e321461060c576101cd565b80635b3ad63e146104f55780637358c57a146105325780637d6ae6a01461055d576101cd565b806331e592e21161016f578063499a0fc41161013e578063499a0fc4146104255780634f3ab71f14610450578063527eb4bc1461048d5780635619e1f5146104b8576101cd565b806331e592e2146103695780633d7a7eac14610392578063410f0710146103cf57806345084775146103fa576101cd565b806318ff0e07116101ab57806318ff0e07146102895780631e501486146102c65780632a0efd441461030357806331cf77b41461032c576101cd565b806304673368146101d2578063050e88401461020f5780630cbcff8f1461024c575b600080fd5b3480156101de57600080fd5b506101f960048036038101906101f49190612dc4565b6107ab565b60405161020691906132bf565b60405180910390f35b34801561021b57600080fd5b5061023660048036038101906102319190612d2a565b6107e0565b60405161024391906132bf565b60405180910390f35b34801561025857600080fd5b50610273600480360381019061026e9190612d2a565b610804565b60405161028091906132bf565b60405180910390f35b34801561029557600080fd5b506102b060048036038101906102ab9190612d2a565b6109bf565b6040516102bd91906132bf565b60405180910390f35b3480156102d257600080fd5b506102ed60048036038101906102e89190612e04565b610a17565b6040516102fa91906132bf565b60405180910390f35b34801561030f57600080fd5b5061032a60048036038101906103259190612d2a565b610ce5565b005b34801561033857600080fd5b50610353600480360381019061034e9190612dc4565b610e3c565b60405161036091906132bf565b60405180910390f35b34801561037557600080fd5b50610390600480360381019061038b9190612d84565b610e74565b005b34801561039e57600080fd5b506103b960048036038101906103b49190612eaa565b610fe6565b6040516103c691906132bf565b60405180910390f35b3480156103db57600080fd5b506103e461114c565b6040516103f191906132bf565b60405180910390f35b34801561040657600080fd5b5061040f611152565b60405161041c91906130a1565b60405180910390f35b34801561043157600080fd5b5061043a611178565b60405161044791906132bf565b60405180910390f35b34801561045c57600080fd5b5061047760048036038101906104729190612e04565b61117e565b60405161048491906132bf565b60405180910390f35b34801561049957600080fd5b506104a2611269565b6040516104af91906132bf565b60405180910390f35b3480156104c457600080fd5b506104df60048036038101906104da9190612e04565b61126f565b6040516104ec91906132bf565b60405180910390f35b34801561050157600080fd5b5061051c60048036038101906105179190612d2a565b6112c1565b60405161052991906132bf565b60405180910390f35b34801561053e57600080fd5b5061054761132f565b60405161055491906132bf565b60405180910390f35b34801561056957600080fd5b50610584600480360381019061057f9190612d2a565b611335565b60405161059191906132bf565b60405180910390f35b3480156105a657600080fd5b506105af611378565b6040516105bc91906132bf565b60405180910390f35b3480156105d157600080fd5b506105da61137e565b6040516105e791906132bf565b60405180910390f35b61060a60048036038101906106059190612e57565b61138b565b005b34801561061857600080fd5b50610621611b67565b60405161062e91906132bf565b60405180910390f35b34801561064357600080fd5b5061065e60048036038101906106599190612d2a565b611c20565b6040516106749a999897969594939291906132da565b60405180910390f35b34801561068957600080fd5b50610692611c81565b60405161069f91906131a4565b60405180910390f35b3480156106b457600080fd5b506106bd611ca5565b6040516106ca9190613189565b60405180910390f35b3480156106df57600080fd5b506106fa60048036038101906106f59190612d2a565b611ccb565b60405161070791906132bf565b60405180910390f35b34801561071c57600080fd5b50610725611ceb565b604051610732919061316e565b60405180910390f35b61075560048036038101906107509190612e57565b611d11565b005b34801561076357600080fd5b5061076c61234a565b60405161077991906132bf565b60405180910390f35b34801561078e57600080fd5b506107a960048036038101906107a49190612d2a565b612350565b005b6000600b6000848152602001908152602001600020600a01600083815260200190815260200160002060020154905092915050565b600c81815481106107f057600080fd5b906000526020600020016000915090505481565b600060045482101561084b576040517f08c379a00000000000000000000000000000000000000000000000000000000081526004016108429061321f565b60405180910390fd5b6000610856836112c1565b90506000600381111561086c5761086b6136bd565b5b600b600083815260200190815260200160002060010160009054906101000a900460ff1660038111156108a2576108a16136bd565b5b146108b057809150506109ba565b6108b9426112c1565b8110156108fb576040517f08c379a00000000000000000000000000000000000000000000000000000000081526004016108f2906131ff565b60405180910390fd5b80600b6000838152602001908152602001600020600001819055506001600b600083815260200190815260200160002060010160006101000a81548160ff021916908360038111156109505761094f6136bd565b5b0217905550600c8190806001815401808255809150506001900390600052602060002001600090919091909150557f163614e6e9ce9df7687928015fd2c748b69c5136db886e57f09170b251b58e87816040516109ad91906132bf565b60405180910390a1809150505b919050565b60008082116109d2576006549050610a12565b610a0f600654610a016006546109f360065487612a3d90919063ffffffff16565b612a5390919063ffffffff16565b612a6990919063ffffffff16565b90505b919050565b600080610a2585858561117e565b9050610a318585610e3c565b8110610a72576040517f08c379a0000000000000000000000000000000000000000000000000000000008152600401610a699061329f565b60405180910390fd5b6000600b6000878152602001908152602001600020600a0160008681526020019081526020016000206040518060800160405290816000820154815260200160018201805480602002602001604051908101604052809291908181526020016000905b82821015610b6757838290600052602060002090600202016040518060400160405290816000820160009054906101000a900473ffffffffffffffffffffffffffffffffffffffff1673ffffffffffffffffffffffffffffffffffffffff1673ffffffffffffffffffffffffffffffffffffffff16815260200160018201548152505081526020019060010190610ad5565b505050508152602001600282015481526020016003820160009054906101000a900460ff166002811115610b9e57610b9d6136bd565b5b6002811115610bb057610baf6136bd565b5b815250509050600081602001518381518110610bcf57610bce6136ec565b5b60200260200101516020015190506000600b600089815260200190815260200160002060090154905060008360200151600081518110610c1257610c116136ec565b5b60200260200101516020015190506000856001610c2f8c8c610e3c565b610c399190613499565b1415610c4757829050610c79565b8460200151600187610c599190613387565b81518110610c6a57610c696136ec565b5b60200260200101516020015190505b6000610c8e8583612a7f90919063ffffffff16565b90506000610ca58486612a7f90919063ffffffff16565b90506000610cd082610cc2600a5486612a5390919063ffffffff16565b612a3d90919063ffffffff16565b90508099505050505050505050509392505050565b6000610cf0426112c1565b905043600b600083815260200190815260200160002060090181905550610d36615460610d2860035484612a6990919063ffffffff16565b612a7f90919063ffffffff16565b4211610dae5781600b60008381526020019081526020016000206004018190555042600b6000838152602001908152602001600020600701819055507f163614e6e9ce9df7687928015fd2c748b69c5136db886e57f09170b251b58e8781604051610da191906132bf565b60405180910390a1610e38565b610dc360035482612a6990919063ffffffff16565b4211610e375781600b60008381526020019081526020016000206005018190555042600b6000838152602001908152602001600020600801819055507f163614e6e9ce9df7687928015fd2c748b69c5136db886e57f09170b251b58e8781604051610e2e91906132bf565b60405180910390a15b5b5050565b6000600b6000848152602001908152602001600020600a01600083815260200190815260200160002060010180549050905092915050565b60026003811115610e8857610e876136bd565b5b600b600084815260200190815260200160002060010160009054906101000a900460ff166003811115610ebe57610ebd6136bd565b5b14610efe576040517f08c379a0000000000000000000000000000000000000000000000000000000008152600401610ef59061323f565b60405180910390fd5b6000610f1f600b6000858152602001908152602001600020600201546109bf565b90506000610f2e84838561126f565b9050600160009054906101000a900473ffffffffffffffffffffffffffffffffffffffff1673ffffffffffffffffffffffffffffffffffffffff1663a9059cbb84836040518363ffffffff1660e01b8152600401610f8d929190613145565b602060405180830381600087803b158015610fa757600080fd5b505af1158015610fbb573d6000803e3d6000fd5b505050506040513d601f19601f82011682018060405250810190610fdf9190612cfd565b5050505050565b600080610ff2856109bf565b90506000611011611002856112c1565b85612a7f90919063ffffffff16565b9050600061103e60035461103084600a54612a5390919063ffffffff16565b612a3d90919063ffffffff16565b9050600061104b89611335565b9050600061108b8261107d620186a061106f6008548d612a5390919063ffffffff16565b612a3d90919063ffffffff16565b612a5390919063ffffffff16565b905060006110b9620186a06110ab6008548c612a5390919063ffffffff16565b612a3d90919063ffffffff16565b90506110e2600a546110d48684612a5390919063ffffffff16565b612a3d90919063ffffffff16565b90506110f78183612a6990919063ffffffff16565b9150600061113883600b60008f8152602001908152602001600020600a0160008a815260200190815260200160002060020154612a6990919063ffffffff16565b905080975050505050505050949350505050565b60075481565b600260009054906101000a900473ffffffffffffffffffffffffffffffffffffffff1681565b60065481565b600080600090505b6111908585610e3c565b811015611254578273ffffffffffffffffffffffffffffffffffffffff16600b6000878152602001908152602001600020600a01600086815260200190815260200160002060010182815481106111ea576111e96136ec565b5b906000526020600020906002020160000160009054906101000a900473ffffffffffffffffffffffffffffffffffffffff1673ffffffffffffffffffffffffffffffffffffffff1614156112415780915050611262565b808061124c90613616565b915050611186565b5061125f8484610e3c565b90505b9392505050565b60095481565b60006112b8600a546112aa600b60008881526020019081526020016000206003015461129c888888610a17565b612a5390919063ffffffff16565b612a3d90919063ffffffff16565b90509392505050565b600060045482116112d657600454905061132a565b61132760045461131960035461130b6003546112fd60045489612a7f90919063ffffffff16565b612a3d90919063ffffffff16565b612a5390919063ffffffff16565b612a6990919063ffffffff16565b90505b919050565b60045481565b600061137160016113636003546113554287612a7f90919063ffffffff16565b612a3d90919063ffffffff16565b612a6990919063ffffffff16565b9050919050565b60085481565b6000600c80549050905090565b600061139684610804565b905060006113a48285612a95565b905060006113c36113b4426112c1565b42612a7f90919063ffffffff16565b905060006113f06003546113e284600a54612a5390919063ffffffff16565b612a3d90919063ffffffff16565b90506000611444600a5461143684611428620186a061141a6008548d612a5390919063ffffffff16565b612a3d90919063ffffffff16565b612a5390919063ffffffff16565b612a3d90919063ffffffff16565b9050600061145189611335565b9050600061149182611483620186a06114756008548d612a5390919063ffffffff16565b612a3d90919063ffffffff16565b612a5390919063ffffffff16565b90506114a68382612a6990919063ffffffff16565b90506114e581600b60008a8152602001908152602001600020600a01600089815260200190815260200160002060020154612a6990919063ffffffff16565b600160009054906101000a900473ffffffffffffffffffffffffffffffffffffffff1673ffffffffffffffffffffffffffffffffffffffff1663dd62ed3e33306040518363ffffffff1660e01b81526004016115429291906130e5565b60206040518083038186803b15801561155a57600080fd5b505afa15801561156e573d6000803e3d6000fd5b505050506040513d601f19601f820116820180604052508101906115929190612d57565b10156115d3576040517f08c379a00000000000000000000000000000000000000000000000000000000081526004016115ca9061325f565b60405180910390fd5b600160009054906101000a900473ffffffffffffffffffffffffffffffffffffffff1673ffffffffffffffffffffffffffffffffffffffff166323b872dd333061165085600b60008e8152602001908152602001600020600a0160008d815260200190815260200160002060020154612a6990919063ffffffff16565b6040518463ffffffff1660e01b815260040161166e9392919061310e565b602060405180830381600087803b15801561168857600080fd5b505af115801561169c573d6000803e3d6000fd5b505050506040513d601f19601f820116820180604052508101906116c09190612cfd565b506116ea81600b60008a815260200190815260200160002060030154612a6990919063ffffffff16565b600b60008981526020019081526020016000206003018190555060016002811115611718576117176136bd565b5b600b6000898152602001908152602001600020600a01600088815260200190815260200160002060030160009054906101000a900460ff166002811115611762576117616136bd565b5b1415611a08576000600b6000898152602001908152602001600020600a01600088815260200190815260200160002060020154905060006117e9600a546117db886117cd620186a06117bf60085489612a5390919063ffffffff16565b612a3d90919063ffffffff16565b612a5390919063ffffffff16565b612a3d90919063ffffffff16565b905060006118298561181b620186a061180d60085488612a5390919063ffffffff16565b612a3d90919063ffffffff16565b612a5390919063ffffffff16565b905061183e8282612a6990919063ffffffff16565b9050600061187f600b60008d8152602001908152602001600020600a0160008c81526020019081526020016000206002015483612a6990919063ffffffff16565b905060006118a060016118928e8e610e3c565b612a7f90919063ffffffff16565b9050600160009054906101000a900473ffffffffffffffffffffffffffffffffffffffff1673ffffffffffffffffffffffffffffffffffffffff1663a9059cbb600b60008f8152602001908152602001600020600a0160008e8152602001908152602001600020600101838154811061191c5761191b6136ec565b5b906000526020600020906002020160000160009054906101000a900473ffffffffffffffffffffffffffffffffffffffff16846040518363ffffffff1660e01b815260040161196c9291906130bc565b602060405180830381600087803b15801561198657600080fd5b505af115801561199a573d6000803e3d6000fd5b505050506040513d601f19601f820116820180604052508101906119be9190612cfd565b506119e883600b60008f815260200190815260200160002060030154612a7f90919063ffffffff16565b600b60008e81526020019081526020016000206003018190555050505050505b600b6000888152602001908152602001600020600a01600087815260200190815260200160002060010160405180604001604052803373ffffffffffffffffffffffffffffffffffffffff16815260200143815250908060018154018082558091505060019003906000526020600020906002020160009091909190915060008201518160000160006101000a81548173ffffffffffffffffffffffffffffffffffffffff021916908373ffffffffffffffffffffffffffffffffffffffff1602179055506020820151816001015550506001600b6000898152602001908152602001600020600a01600088815260200190815260200160002060030160006101000a81548160ff02191690836002811115611b2757611b266136bd565b5b021790555087600b6000898152602001908152602001600020600a0160008881526020019081526020016000206002018190555050505050505050505050565b600080600160009054906101000a900473ffffffffffffffffffffffffffffffffffffffff1673ffffffffffffffffffffffffffffffffffffffff1663dd62ed3e33306040518363ffffffff1660e01b8152600401611bc79291906130e5565b60206040518083038186803b158015611bdf57600080fd5b505afa158015611bf3573d6000803e3d6000fd5b505050506040513d601f19601f82011682018060405250810190611c179190612d57565b90508091505090565b600b6020528060005260406000206000915090508060000154908060010160009054906101000a900460ff1690806002015490806003015490806004015490806005015490806006015490806007015490806008015490806009015490508a565b60008054906101000a900473ffffffffffffffffffffffffffffffffffffffff1681565b600560009054906101000a900473ffffffffffffffffffffffffffffffffffffffff1681565b6000600b6000838152602001908152602001600020600301549050919050565b600160009054906101000a900473ffffffffffffffffffffffffffffffffffffffff1681565b6000611d1c84610804565b90506000611d2a8285612a95565b90503373ffffffffffffffffffffffffffffffffffffffff16600b6000848152602001908152602001600020600a016000838152602001908152602001600020600101611d8a6001611d7c8686610e3c565b612a7f90919063ffffffff16565b81548110611d9b57611d9a6136ec565b5b906000526020600020906002020160000160009054906101000a900473ffffffffffffffffffffffffffffffffffffffff1673ffffffffffffffffffffffffffffffffffffffff1614611ded57600080fd5b6000611df886611335565b90506000611e17611e08426112c1565b42612a7f90919063ffffffff16565b90506000611e44600354611e3684600a54612a5390919063ffffffff16565b612a3d90919063ffffffff16565b90506000611e98600a54611e8a84611e7c620186a0611e6e6008548e612a5390919063ffffffff16565b612a3d90919063ffffffff16565b612a5390919063ffffffff16565b612a3d90919063ffffffff16565b90506000611ed885611eca620186a0611ebc6008548d612a5390919063ffffffff16565b612a3d90919063ffffffff16565b612a5390919063ffffffff16565b9050611eed8282612a6990919063ffffffff16565b90506000600b6000898152602001908152602001600020600a016000888152602001908152602001600020600201549050611f6e600a54611f6086611f52620186a0611f4460085488612a5390919063ffffffff16565b612a3d90919063ffffffff16565b612a5390919063ffffffff16565b612a3d90919063ffffffff16565b92506000611fae87611fa0620186a0611f926008548f612a5390919063ffffffff16565b612a3d90919063ffffffff16565b612a5390919063ffffffff16565b9050611fc38482612a6990919063ffffffff16565b9050808311156121ec57611fe08184612a7f90919063ffffffff16565b600160009054906101000a900473ffffffffffffffffffffffffffffffffffffffff1673ffffffffffffffffffffffffffffffffffffffff1663dd62ed3e33306040518363ffffffff1660e01b815260040161203d9291906130e5565b60206040518083038186803b15801561205557600080fd5b505afa158015612069573d6000803e3d6000fd5b505050506040513d601f19601f8201168201806040525081019061208d9190612d57565b10156120ce576040517f08c379a00000000000000000000000000000000000000000000000000000000081526004016120c59061325f565b60405180910390fd5b600160009054906101000a900473ffffffffffffffffffffffffffffffffffffffff1673ffffffffffffffffffffffffffffffffffffffff166323b872dd33306121218588612a7f90919063ffffffff16565b6040518463ffffffff1660e01b815260040161213f9392919061310e565b602060405180830381600087803b15801561215957600080fd5b505af115801561216d573d6000803e3d6000fd5b505050506040513d601f19601f820116820180604052508101906121919190612cfd565b506121cd6121a88285612a7f90919063ffffffff16565b600b60008c815260200190815260200160002060030154612a6990919063ffffffff16565b600b60008b81526020019081526020016000206003018190555061230d565b8083101561230c57600160009054906101000a900473ffffffffffffffffffffffffffffffffffffffff1673ffffffffffffffffffffffffffffffffffffffff1663a9059cbb336122468685612a7f90919063ffffffff16565b6040518363ffffffff1660e01b8152600401612263929190613145565b602060405180830381600087803b15801561227d57600080fd5b505af1158015612291573d6000803e3d6000fd5b505050506040513d601f19601f820116820180604052508101906122b59190612cfd565b506122f16122cc8483612a7f90919063ffffffff16565b600b60008c815260200190815260200160002060030154612a7f90919063ffffffff16565b600b60008b8152602001908152602001600020600301819055505b5b89600b60008b8152602001908152602001600020600a0160008a815260200190815260200160002060020181905550505050505050505050505050565b60035481565b60016003811115612364576123636136bd565b5b600b600083815260200190815260200160002060010160009054906101000a900460ff16600381111561239a576123996136bd565b5b146123da576040517f08c379a00000000000000000000000000000000000000000000000000000000081526004016123d1906131df565b60405180910390fd5b426123f060035483612a6990919063ffffffff16565b1115612431576040517f08c379a0000000000000000000000000000000000000000000000000000000008152600401612428906131bf565b60405180910390fd5b6000600b60008381526020019081526020016000206004015411158061246e57506000600b60008381526020019081526020016000206005015411155b156124b3576003600b600083815260200190815260200160002060010160006101000a81548160ff021916908360038111156124ad576124ac6136bd565b5b02179055505b600b600082815260200190815260200160002060050154600b6000838152602001908152602001600020600401541415612527576003600b600083815260200190815260200160002060010160006101000a81548160ff02191690836003811115612521576125206136bd565b5b02179055505b6002600b600083815260200190815260200160002060010160006101000a81548160ff02191690836003811115612561576125606136bd565b5b021790555060006125a7600b600084815260200190815260200160002060040154600b600085815260200190815260200160002060050154612a7f90919063ffffffff16565b905060006125ea600b600085815260200190815260200160002060070154600b600086815260200190815260200160002060080154612a7f90919063ffffffff16565b90506126226040518060200160405280847bffffffffffffffffffffffffffffffffffffffffffffffffffffffff1681525082612b86565b600001517bffffffffffffffffffffffffffffffffffffffffffffffffffffffff16600b60008581526020019081526020016000206002018190555061268d600a546070600b600087815260200190815260200160002060020154901c612a5390919063ffffffff16565b600b6000858152602001908152602001600020600201819055506126e97406d79f82328ea3da61e066ebb2f88a0000000000006070600b600087815260200190815260200160002060020154901b612a3d90919063ffffffff16565b600b6000858152602001908152602001600020600201819055506000612745620186a0612737600754600b600089815260200190815260200160002060030154612a5390919063ffffffff16565b612a3d90919063ffffffff16565b90506000612789620186a061277b600954600b60008a815260200190815260200160002060030154612a5390919063ffffffff16565b612a3d90919063ffffffff16565b90506127c6816127b884600b60008a815260200190815260200160002060030154612a7f90919063ffffffff16565b612a7f90919063ffffffff16565b600b600087815260200190815260200160002060030181905550600160009054906101000a900473ffffffffffffffffffffffffffffffffffffffff1673ffffffffffffffffffffffffffffffffffffffff1663a9059cbb600260009054906101000a900473ffffffffffffffffffffffffffffffffffffffff16846040518363ffffffff1660e01b815260040161285f9291906130bc565b602060405180830381600087803b15801561287957600080fd5b505af115801561288d573d6000803e3d6000fd5b505050506040513d601f19601f820116820180604052508101906128b19190612cfd565b50600160009054906101000a900473ffffffffffffffffffffffffffffffffffffffff1673ffffffffffffffffffffffffffffffffffffffff1663a9059cbb60008054906101000a900473ffffffffffffffffffffffffffffffffffffffff1673ffffffffffffffffffffffffffffffffffffffff16638da5cb5b6040518163ffffffff1660e01b815260040160206040518083038186803b15801561295657600080fd5b505afa15801561296a573d6000803e3d6000fd5b505050506040513d601f19601f8201168201806040525081019061298e9190612cd0565b836040518363ffffffff1660e01b81526004016129ac929190613145565b602060405180830381600087803b1580156129c657600080fd5b505af11580156129da573d6000803e3d6000fd5b505050506040513d601f19601f820116820180604052508101906129fe9190612cfd565b507f163614e6e9ce9df7687928015fd2c748b69c5136db886e57f09170b251b58e8785604051612a2e91906132bf565b60405180910390a15050505050565b60008183612a4b919061340e565b905092915050565b60008183612a61919061343f565b905092915050565b60008183612a779190613387565b905092915050565b60008183612a8d9190613499565b905092915050565b600080612aa1836109bf565b905060006002811115612ab757612ab66136bd565b5b600b6000868152602001908152602001600020600a01600083815260200190815260200160002060030160009054906101000a900460ff166002811115612b0157612b006136bd565b5b14612b0f5780915050612b80565b80600b6000868152602001908152602001600020600a01600083815260200190815260200160002060000181905550600b6000858152602001908152602001600020600b01819080600181540180825580915050600190039060005260206000200160009091909190915055809150505b92915050565b612b8e612c36565b6000826dffffffffffffffffffffffffffff161415612be2576040517f08c379a0000000000000000000000000000000000000000000000000000000008152600401612bd99061327f565b60405180910390fd5b6040518060200160405280836dffffffffffffffffffffffffffff168560000151612c0d91906133dd565b7bffffffffffffffffffffffffffffffffffffffffffffffffffffffff16815250905092915050565b604051806020016040528060007bffffffffffffffffffffffffffffffffffffffffffffffffffffffff1681525090565b600081359050612c76816138a2565b92915050565b600081519050612c8b816138a2565b92915050565b600081519050612ca0816138b9565b92915050565b600081359050612cb5816138d0565b92915050565b600081519050612cca816138d0565b92915050565b600060208284031215612ce657612ce561371b565b5b6000612cf484828501612c7c565b91505092915050565b600060208284031215612d1357612d1261371b565b5b6000612d2184828501612c91565b91505092915050565b600060208284031215612d4057612d3f61371b565b5b6000612d4e84828501612ca6565b91505092915050565b600060208284031215612d6d57612d6c61371b565b5b6000612d7b84828501612cbb565b91505092915050565b60008060408385031215612d9b57612d9a61371b565b5b6000612da985828601612ca6565b9250506020612dba85828601612c67565b9150509250929050565b60008060408385031215612ddb57612dda61371b565b5b6000612de985828601612ca6565b9250506020612dfa85828601612ca6565b9150509250929050565b600080600060608486031215612e1d57612e1c61371b565b5b6000612e2b86828701612ca6565b9350506020612e3c86828701612ca6565b9250506040612e4d86828701612c67565b9150509250925092565b600080600060608486031215612e7057612e6f61371b565b5b6000612e7e86828701612ca6565b9350506020612e8f86828701612ca6565b9250506040612ea086828701612ca6565b9150509250925092565b60008060008060808587031215612ec457612ec361371b565b5b6000612ed287828801612ca6565b9450506020612ee387828801612ca6565b9350506040612ef487828801612ca6565b9250506060612f0587828801612ca6565b91505092959194509250565b612f1a81613562565b82525050565b612f29816134df565b82525050565b612f38816134cd565b82525050565b612f4781613574565b82525050565b612f5681613598565b82525050565b612f65816135bc565b82525050565b612f74816135e0565b82525050565b6000612f87601a83613376565b9150612f9282613720565b602082019050919050565b6000612faa601083613376565b9150612fb582613749565b602082019050919050565b6000612fcd601a83613376565b9150612fd882613772565b602082019050919050565b6000612ff0602c83613376565b9150612ffb8261379b565b604082019050919050565b6000613013601083613376565b915061301e826137ea565b602082019050919050565b6000613036601c83613376565b915061304182613813565b602082019050919050565b6000613059601783613376565b91506130648261383c565b602082019050919050565b600061307c601483613376565b915061308782613865565b602082019050919050565b61309b81613558565b82525050565b60006020820190506130b66000830184612f20565b92915050565b60006040820190506130d16000830185612f11565b6130de6020830184613092565b9392505050565b60006040820190506130fa6000830185612f2f565b6131076020830184612f2f565b9392505050565b60006060820190506131236000830186612f2f565b6131306020830185612f2f565b61313d6040830184613092565b949350505050565b600060408201905061315a6000830185612f2f565b6131676020830184613092565b9392505050565b60006020820190506131836000830184612f3e565b92915050565b600060208201905061319e6000830184612f4d565b92915050565b60006020820190506131b96000830184612f5c565b92915050565b600060208201905081810360008301526131d881612f7a565b9050919050565b600060208201905081810360008301526131f881612f9d565b9050919050565b6000602082019050818103600083015261321881612fc0565b9050919050565b6000602082019050818103600083015261323881612fe3565b9050919050565b6000602082019050818103600083015261325881613006565b9050919050565b6000602082019050818103600083015261327881613029565b9050919050565b600060208201905081810360008301526132988161304c565b9050919050565b600060208201905081810360008301526132b88161306f565b9050919050565b60006020820190506132d46000830184613092565b92915050565b6000610140820190506132f0600083018d613092565b6132fd602083018c612f6b565b61330a604083018b613092565b613317606083018a613092565b6133246080830189613092565b61333160a0830188613092565b61333e60c0830187613092565b61334b60e0830186613092565b613359610100830185613092565b613367610120830184613092565b9b9a5050505050505050505050565b600082825260208201905092915050565b600061339282613558565b915061339d83613558565b9250827fffffffffffffffffffffffffffffffffffffffffffffffffffffffffffffffff038211156133d2576133d161365f565b5b828201905092915050565b60006133e882613530565b91506133f383613530565b9250826134035761340261368e565b5b828204905092915050565b600061341982613558565b915061342483613558565b9250826134345761343361368e565b5b828204905092915050565b600061344a82613558565b915061345583613558565b9250817fffffffffffffffffffffffffffffffffffffffffffffffffffffffffffffffff048311821515161561348e5761348d61365f565b5b828202905092915050565b60006134a482613558565b91506134af83613558565b9250828210156134c2576134c161365f565b5b828203905092915050565b60006134d882613510565b9050919050565b60006134ea82613510565b9050919050565b60008115159050919050565b600081905061350b8261388e565b919050565b600073ffffffffffffffffffffffffffffffffffffffff82169050919050565b60007bffffffffffffffffffffffffffffffffffffffffffffffffffffffff82169050919050565b6000819050919050565b600061356d826135f2565b9050919050565b600061357f82613586565b9050919050565b600061359182613510565b9050919050565b60006135a3826135aa565b9050919050565b60006135b582613510565b9050919050565b60006135c7826135ce565b9050919050565b60006135d982613510565b9050919050565b60006135eb826134fd565b9050919050565b60006135fd82613604565b9050919050565b600061360f82613510565b9050919050565b600061362182613558565b91507fffffffffffffffffffffffffffffffffffffffffffffffffffffffffffffffff8214156136545761365361365f565b5b600182019050919050565b7f4e487b7100000000000000000000000000000000000000000000000000000000600052601160045260246000fd5b7f4e487b7100000000000000000000000000000000000000000000000000000000600052601260045260246000fd5b7f4e487b7100000000000000000000000000000000000000000000000000000000600052602160045260246000fd5b7f4e487b7100000000000000000000000000000000000000000000000000000000600052603260045260246000fd5b600080fd5b7f4652414d4520454e442054494d45204e4f542052454143484544000000000000600082015250565b7f4652414d45204e4f54204f50454e454400000000000000000000000000000000600082015250565b7f43414e275420435245415445204652414d4520494e2050415354000000000000600082015250565b7f54494d455354414d50204245464f524520494e495449414c2054494d4553544160008201527f4d50204f46204d41524b45540000000000000000000000000000000000000000602082015250565b7f4652414d45204e4f5420434c4f53454400000000000000000000000000000000600082015250565b7f415050524f56454420414d4f554e5420495320544f4f20534d414c4c00000000600082015250565b7f4669786564506f696e743a204449565f42595f5a45524f000000000000000000600082015250565b7f4f574e455220444f4553204e4f54204558495354000000000000000000000000600082015250565b6004811061389f5761389e6136bd565b5b50565b6138ab816134cd565b81146138b657600080fd5b50565b6138c2816134f1565b81146138cd57600080fd5b50565b6138d981613558565b81146138e457600080fd5b5056fea2646970667358221220bbd0186ade8bbac4d3167d170ffc6a5c5998523048581a78fcbc35bab78b95e364736f6c63430008060033",
  "immutableReferences": {},
  "source": "// SPDX-License-Identifier: MIT\r\npragma solidity >=0.5.0;\r\n//pragma experimental ABIEncoderV2;\r\n\r\nimport \"./MarketFactory.sol\";\r\nimport \"@uniswap/v2-core/contracts/interfaces/IUniswapV2Pair.sol\";\r\nimport \"@uniswap/v2-periphery/contracts/libraries/UniswapV2OracleLibrary.sol\";\r\nimport \"@uniswap/lib/contracts/libraries/FixedPoint.sol\";\r\nimport \"@openzeppelin/contracts/token/ERC20/IERC20.sol\";\r\nimport \"@openzeppelin/contracts/utils/math/SafeMath.sol\";\r\n\r\n/// @title TWPM Market\r\n/// @author UniHedge\r\n/// @dev All function calls are currently implemented without side effects\r\ncontract Market {\r\n\r\n    using SafeMath for uint;\r\n    //Contract for creating markets\r\n    MarketFactory public factory;\r\n    //ERC20 token used for buyng parcels in this contract \r\n    IERC20 public accountingToken;\r\n    //Owner of this market\r\n    address payable public ownerMarket;\r\n    //Length of a frame\r\n    uint public period;\r\n    //Contract creation time\r\n    uint public initTimestamp; \r\n    //Token pair on Uniswap\r\n    IUniswapV2Pair public uniswapPair;\r\n    //Range of a parcel\r\n    uint public dPrice;\r\n    //Fee that gets to market owner\r\n    uint public feeMarket;\r\n    //Tax on parcels\r\n    uint public taxMarket;\r\n    //Protocol fee\r\n    uint public feeProtocol = 100;\r\n    //Scalar number used for calculating precentages\r\n    uint scalar = 1e24;\r\n\r\n\r\n    enum SFrame {NULL, OPENED, CLOSED, INVALID}\r\n    struct Frame {\r\n        uint frameKey;\r\n        SFrame state;\r\n        uint priceAverage;\r\n        uint rewardFund;\r\n        uint oraclePrice0CumulativeStart;\r\n        uint oraclePrice0CumulativeEnd;\r\n        uint price0CumulativeEnd;\r\n        uint oracleTimestampStart;\r\n        uint oracleTimestampEnd;\r\n        uint lastBlockNum;\r\n        mapping(uint => Parcel) parcels;\r\n        uint[] parcelKeys;\r\n    }\r\n\r\n    event FrameUpdate(uint frameKey);\r\n\r\n    mapping(uint => Frame) public frames;\r\n    uint[] public framesKeys;\r\n\r\n    struct ParcelOwner {\r\n        address payable owner;\r\n        uint blockNum;\r\n    }\r\n\r\n    enum SParcel {NULL, BOUGHT, RESOLVED}\r\n    struct Parcel {\r\n        uint parcelKey;\r\n        ParcelOwner[] parcelOwners;\r\n        uint acquisitionPrice;\r\n        SParcel state;\r\n    }\r\n\r\n    event ParcelUpdate(uint frameKey, uint parcelKey);\r\n\r\n    constructor(MarketFactory _factory, IERC20 _token, IUniswapV2Pair _uniswapPair, uint _period, uint _initTimestamp, uint _taxMarket, uint _feeMarket, uint _dPrice ) {\r\n        accountingToken = _token;\r\n        ownerMarket = payable(msg.sender);\r\n        period = _period;\r\n        initTimestamp = _initTimestamp; \r\n        taxMarket = _taxMarket;\r\n        feeMarket = _feeMarket;\r\n        uniswapPair = _uniswapPair;\r\n        dPrice = _dPrice;\r\n        factory = _factory;\r\n    }\r\n\r\n\r\n    /// @notice Create a frame\r\n    /// @param timestamp In second.\r\n    /// @return frameTimestamp Frame's key (timestamp that indicated the beggining of a frame).\r\n    function getOrCreateFrame(uint timestamp) public returns (uint){\r\n        require(timestamp >= initTimestamp, \"TIMESTAMP BEFORE INITIAL TIMESTAMP OF MARKET\");\r\n        //Get start timestamp of a frame\r\n        uint frameTimestamp = clcFrameTimestamp(timestamp);\r\n        //Check if frame exists\r\n        if (frames[frameTimestamp].state != SFrame.NULL) return frameTimestamp;\r\n        //Check if frame startParcel number is before current Parcel number\r\n        require(frameTimestamp >= clcFrameTimestamp(block.timestamp), \"CAN'T CREATE FRAME IN PAST\");\r\n        //Add frame\r\n        frames[frameTimestamp].frameKey = frameTimestamp;\r\n        frames[frameTimestamp].state = SFrame.OPENED; //check if other parameters are at zero\r\n        framesKeys.push(frameTimestamp);\r\n        emit FrameUpdate(frameTimestamp);\r\n        return frameTimestamp;\r\n    }\r\n\r\n    /// @notice Calculate frames timestamp (beggining of frame)\r\n    /// @param timestamp In seconds\r\n    /// @return frame's timestamp (key)\r\n    function clcFrameTimestamp(uint timestamp) public view returns (uint){\r\n        if (timestamp <= initTimestamp) return initTimestamp;\r\n        return ((timestamp.sub(initTimestamp)).div(period)).mul(period).add(initTimestamp);\r\n    }\r\n\r\n    /// @notice Calculate bottom boundary of a parcel\r\n    /// @param value Arbitary price of market's Uniswap pair\r\n    /// @return parcel key (bottom boundary)\r\n    function clcParcelInterval(uint value) public view returns (uint){\r\n        if (value <= 0) return dPrice;\r\n        return value.div(dPrice).mul(dPrice).add(dPrice);\r\n    }\r\n\r\n    /// @notice Calculate how many frames there are left untill given frame in input\r\n    /// @param frameKey Timestamp of an arbitary frame in the future\r\n    /// @return number of frames (whole numbers: n=0,1,2...)\r\n    function clcFramesLeft(uint frameKey) public view returns (uint){                      \r\n        return (frameKey.sub(block.timestamp)).div(period).add(1);\r\n    }\r\n\r\n    /// @notice Get current price of a parcel in a frame\r\n    /// @param frameKey Frame's timestamp\r\n    /// @param parcelKey Parcel's key \r\n    /// @return price that the current owner set\r\n    function getCurrentPrice(uint frameKey, uint parcelKey) public view returns (uint){                 \r\n        return frames[frameKey].parcels[parcelKey].acquisitionPrice;\r\n    }\r\n\r\n    /// @notice Get msg senders approved amount of accounting token to this contract (market)\r\n    /// @return approved amount\r\n    function getApprovedAmount() public view returns (uint) {                         \r\n        uint approvedAmount = accountingToken.allowance(msg.sender, address(this));\r\n        return approvedAmount;\r\n    }\r\n\r\n    /// @notice Get frame's award amount (accumulation of different parcel taxes)\r\n    /// @notice Remaining tax of a parcel owner get's returned after a sale (change of ownership). So the award amount isn't for sure untill the frame get's closed.\r\n    /// @param frameKey Frame's timestamp\r\n    /// @return award amount\r\n    function getRewardAmount(uint frameKey) public view returns (uint) {                         \r\n        return frames[frameKey].rewardFund;\r\n    }\r\n\r\n    /// @notice Get number of accounts that owned a specific parcel\r\n    /// @param frameKey Frame's timestamp\r\n    /// @param parcelKey Parcel's key \r\n    /// @return number of owners\r\n    function getNumberOfParcelOwners(uint frameKey, uint parcelKey) public view returns (uint){\r\n        return frames[frameKey].parcels[parcelKey].parcelOwners.length ;\r\n    }\r\n\r\n    /// @notice Get number of frames\r\n    /// @return number frames\r\n    function getNumberOfFrameKeys() public view returns (uint){\r\n        return framesKeys.length ;\r\n    }\r\n\r\n    /// @notice Calculate parcel owner's index in the array of owners of the parcel\r\n    /// @param frameKey Frame's timestamp\r\n    /// @param parcelKey Parcel's key \r\n    /// @param owner Owners account address\r\n    /// @return owner's index\r\n    function getParcelOwnerIndex(uint frameKey, uint parcelKey, address owner) public view returns (uint) {   \r\n\r\n        //if (parcelCount == 0) return 0;\r\n\r\n        for (uint i=0; i< getNumberOfParcelOwners(frameKey, parcelKey); i++) {\r\n            if (frames[frameKey].parcels[parcelKey].parcelOwners[i].owner == owner) return i;\r\n        }\r\n\r\n        return getNumberOfParcelOwners(frameKey, parcelKey); \r\n    }\r\n\r\n    /// @notice Create a parcel\r\n    /// @param frameKey Frame's timestamp\r\n    /// @param pairPrice Price is the trading pair's price\r\n    /// @return parcelKey\r\n    function getOrCreateParcel(uint frameKey, uint pairPrice) internal returns(uint){\r\n\r\n        uint parcelKey = clcParcelInterval(pairPrice);\r\n\r\n        if (frames[frameKey].parcels[parcelKey].state != SParcel.NULL) return parcelKey;\r\n        \r\n        frames[frameKey].parcels[parcelKey].parcelKey = parcelKey;\r\n        frames[frameKey].parcelKeys.push(parcelKey);\r\n        return parcelKey;\r\n    }\r\n\r\n    /// @notice Calculate amout required to approve to buy a parcel\r\n    /// @param frameKey Frame's timestamp\r\n    /// @param pairPrice Value is trading pair's price (to get correct parcel key) \r\n    /// @param newSellPrice New sell price is required to calculate tax\r\n    /// @return amoun to approve\r\n    function AmountToApprove(uint frameKey, uint pairPrice, uint newSellPrice, uint timestamp) public view returns (uint) {             \r\n\r\n        uint parcelKey = clcParcelInterval(pairPrice);\r\n        \r\n       /*  uint numOfFrames = clcFramesLeft(frameKey);\r\n        uint tax = newSellPrice.mul(taxMarket).div(100000).mul(numOfFrames); */\r\n\r\n        uint dFrame = timestamp.sub(clcFrameTimestamp(timestamp));\r\n        uint dFrameP = scalar.mul(dFrame).div(period);\r\n\r\n        //Calculate tax from the propoed new price (newSellPrice)\r\n        uint numOfFramesLeft = clcFramesLeft(frameKey);\r\n        uint tax = newSellPrice.mul(taxMarket).div(100000).mul(numOfFramesLeft);\r\n        uint dtax = newSellPrice.mul(taxMarket).div(100000);\r\n        dtax = dtax.mul(dFrameP).div(scalar);\r\n        tax = tax.add(dtax);\r\n\r\n        uint amount = frames[frameKey].parcels[parcelKey].acquisitionPrice.add(tax);\r\n\r\n        return amount;\r\n    }\r\n\r\n    /// @notice Calculate amout required to approve to buy a parcel\r\n    /// @param timestamp Frame's timestamp get's calculated from this value\r\n    /// @param pairPrice Is trading pair's price (to get correct parcel key) \r\n    /// @param newSellPrice New sell price is required to calculate tax\r\n    function buyParcel(uint timestamp, uint pairPrice, uint newSellPrice) public payable {\r\n        uint frameKey =  getOrCreateFrame(timestamp);                          \r\n        \r\n        uint parcelKey = getOrCreateParcel(frameKey, pairPrice);\r\n\r\n        uint dFrame = block.timestamp.sub(clcFrameTimestamp(block.timestamp));\r\n        uint dFrameP = scalar.mul(dFrame).div(period);\r\n        uint dtax = newSellPrice.mul(taxMarket).div(100000).mul(dFrameP).div(scalar);\r\n\r\n        //Calculate tax from the proposed new price (newSellPrice)\r\n        uint numOfFramesLeft = clcFramesLeft(timestamp);\r\n        uint tax = newSellPrice.mul(taxMarket).div(100000).mul(numOfFramesLeft);\r\n        \r\n        tax = tax.add(dtax);\r\n\r\n        //Approved amount has to be at leat equal to price of the Parcel(with tax)\r\n        require(accountingToken.allowance(msg.sender, address(this)) >= frames[frameKey].parcels[parcelKey].acquisitionPrice.add(tax), \"APPROVED AMOUNT IS TOO SMALL\");\r\n        \r\n        //Transfer complete tax amount to the frame rewardFund\r\n        accountingToken.transferFrom(msg.sender, address(this), frames[frameKey].parcels[parcelKey].acquisitionPrice.add(tax));\r\n        frames[frameKey].rewardFund = frames[frameKey].rewardFund.add(tax);\r\n\r\n\r\n        //Pay the Parcel price to current owner + return tax\r\n        if (frames[frameKey].parcels[parcelKey].state == SParcel.BOUGHT) {\r\n            //Calculate tax to return. acquisitionPrice/marketTax * number_of_frames_left:\r\n            //uint oldTaxToReturn = frames[frameKey].parcels[parcelKey].acquisitionPrice.mul(taxMarket).div(100000).mul(numOfFramesLeft);\r\n            uint aPrice = frames[frameKey].parcels[parcelKey].acquisitionPrice;\r\n            uint dFrameTax = aPrice.mul(taxMarket).div(100000).mul(dFrameP).div(scalar);\r\n            uint taxToReturn = aPrice.mul(taxMarket).div(100000).mul(numOfFramesLeft);\r\n            taxToReturn = taxToReturn.add(dFrameTax);\r\n            //add acquisition price valut to left over tax\r\n            uint amount = (taxToReturn.add(frames[frameKey].parcels[parcelKey].acquisitionPrice));\r\n            //transfer funds\r\n            uint previousOwner = getNumberOfParcelOwners(frameKey, parcelKey).sub(1);\r\n            accountingToken.transfer(frames[frameKey].parcels[parcelKey].parcelOwners[previousOwner].owner, amount);\r\n            //change reward value\r\n            frames[frameKey].rewardFund = frames[frameKey].rewardFund.sub(taxToReturn);\r\n        }\r\n       \r\n        frames[frameKey].parcels[parcelKey].parcelOwners.push(ParcelOwner(payable(msg.sender), block.number));\r\n        frames[frameKey].parcels[parcelKey].state = SParcel.BOUGHT;\r\n        frames[frameKey].parcels[parcelKey].acquisitionPrice = newSellPrice;\r\n    }\r\n\r\n    function updateParcelPrice(uint timestamp, uint pairPrice, uint acquisitionPrice) public payable {\r\n        uint frameKey =  getOrCreateFrame(timestamp); \r\n        uint parcelKey = getOrCreateParcel(frameKey, pairPrice); \r\n        \r\n        require(frames[frameKey].parcels[parcelKey].parcelOwners[getNumberOfParcelOwners(frameKey, parcelKey).sub(1)].owner == msg.sender);\r\n                      \r\n        uint numOfFramesLeft = clcFramesLeft(timestamp);\r\n\r\n        uint dFrame = block.timestamp.sub(clcFrameTimestamp(block.timestamp));\r\n        uint dFrameP = scalar.mul(dFrame).div(period);\r\n        uint dtax = acquisitionPrice.mul(taxMarket).div(100000).mul(dFrameP).div(scalar);\r\n        uint taxNew = acquisitionPrice.mul(taxMarket).div(100000).mul(numOfFramesLeft);\r\n        taxNew = taxNew.add(dtax);\r\n\r\n        uint oldPrice = frames[frameKey].parcels[parcelKey].acquisitionPrice;\r\n        dtax = oldPrice.mul(taxMarket).div(100000).mul(dFrameP).div(scalar);\r\n        uint taxOld = acquisitionPrice.mul(taxMarket).div(100000).mul(numOfFramesLeft);\r\n        taxOld = taxOld.add(dtax);\r\n\r\n        if (taxNew > taxOld) {\r\n            require(accountingToken.allowance(msg.sender, address(this)) >= (taxNew.sub(taxOld)), \"APPROVED AMOUNT IS TOO SMALL\");\r\n        \r\n            //Transfer complete tax amount to the frame rewardFund\r\n            accountingToken.transferFrom(msg.sender, address(this), (taxNew.sub(taxOld)));\r\n            frames[frameKey].rewardFund = frames[frameKey].rewardFund.add(taxNew.sub(taxOld));\r\n        }\r\n        else if (taxNew < taxOld) {\r\n            \r\n            accountingToken.transfer(msg.sender, taxOld.sub(taxNew));\r\n            frames[frameKey].rewardFund = frames[frameKey].rewardFund.sub(taxOld.sub(taxNew));\r\n        }\r\n\r\n        frames[frameKey].parcels[parcelKey].acquisitionPrice = acquisitionPrice;\r\n    }\r\n\r\n    /// @notice Update trading pair's prices in the frame\r\n    /// @param PriceCumulative Cumulative price\r\n    /// @dev For developement purposes the new price is added as an input\r\n    /// @dev Final version should use uniswap's oracles\r\n    function updateFramePrices(uint PriceCumulative) public {\r\n        uint frameKey = clcFrameTimestamp(block.timestamp);\r\n        frames[frameKey].lastBlockNum = block.number;\r\n        //Correct price if outside settle interval\r\n        if (block.timestamp <= ((frameKey.add(period)).sub(21600))) {\r\n            frames[frameKey].oraclePrice0CumulativeStart = PriceCumulative;\r\n            frames[frameKey].oracleTimestampStart = block.timestamp;\r\n            emit FrameUpdate(frameKey);\r\n        }\r\n        else if (block.timestamp <= frameKey.add(period)) {\r\n            frames[frameKey].oraclePrice0CumulativeEnd = PriceCumulative;\r\n            frames[frameKey].oracleTimestampEnd = block.timestamp;\r\n            emit FrameUpdate(frameKey);\r\n        }\r\n    }\r\n\r\n    /// @notice Close frame\r\n    /// @param frameKey Frame's timestamp\r\n    function closeFrame(uint frameKey) public {\r\n        //Check if frame is opened\r\n        require(frames[frameKey].state == SFrame.OPENED, \"FRAME NOT OPENED\");\r\n        //Check if frame timing is correct\r\n        require(frameKey.add(period) <= block.timestamp, \"FRAME END TIME NOT REACHED\");\r\n        //Check if frame has valid prices\r\n        if (frames[frameKey].oraclePrice0CumulativeStart <= 0 || frames[frameKey].oraclePrice0CumulativeEnd <= 0) {\r\n            frames[frameKey].state = SFrame.INVALID;\r\n        }\r\n        if (frames[frameKey].oraclePrice0CumulativeStart == frames[frameKey].oraclePrice0CumulativeEnd) {\r\n            frames[frameKey].state = SFrame.INVALID;\r\n        }\r\n        frames[frameKey].state = SFrame.CLOSED;\r\n\r\n        //UQ112x112 encoded\r\n        uint priceDiff = frames[frameKey].oraclePrice0CumulativeEnd.sub(frames[frameKey].oraclePrice0CumulativeStart);\r\n        uint timeDiff = frames[frameKey].oracleTimestampEnd.sub(frames[frameKey].oracleTimestampStart);\r\n        //Calculate time-weighted average price -- UQ112x112 encoded\r\n        frames[frameKey].priceAverage = uint(((FixedPoint.div(FixedPoint.uq112x112(uint224(priceDiff)), (uint112(timeDiff)))))._x);\r\n\r\n        //Decode to scalar value\r\n        frames[frameKey].priceAverage = (frames[frameKey].priceAverage >> 112).mul(scalar); \r\n        frames[frameKey].priceAverage = (frames[frameKey].priceAverage << 112).div(1e49);\r\n\r\n        //Subtract fees from the reward amount and send them to Owners of the market and protocol\r\n        uint marketOwnerFees = frames[frameKey].rewardFund.mul(feeMarket).div(100000);\r\n        uint protocolOwnerFees = frames[frameKey].rewardFund.mul(feeProtocol).div(100000);\r\n\r\n        frames[frameKey].rewardFund = frames[frameKey].rewardFund.sub(marketOwnerFees).sub(protocolOwnerFees);\r\n        accountingToken.transfer(ownerMarket, marketOwnerFees);\r\n        accountingToken.transfer(factory.owner(), protocolOwnerFees);\r\n\r\n        emit FrameUpdate(frameKey);\r\n    }\r\n\r\n    /// @notice Settle parcel for a owner. Owner's share of the reward amount get's transfered to owner's account\r\n    /// @param frameKey Frame's timestamp\r\n    /// @param owner Owner's address\r\n    function settleParcel(uint frameKey, address owner) public {  \r\n        //Check if frame is closed\r\n        require(frames[frameKey].state == SFrame.CLOSED, \"FRAME NOT CLOSED\");    \r\n        uint parcelKeyWin = (clcParcelInterval(frames[frameKey].priceAverage));\r\n\r\n        uint amount = clcSettleAmount(frameKey, parcelKeyWin, owner);\r\n        accountingToken.transfer(owner, amount);\r\n    }\r\n\r\n    /// @notice Calculate owner's share based on the number of blocks the account owned the parcel\r\n    /// @param frameKey Frame's timestamp\r\n    /// @param parcelKey Parcel's key\r\n    /// @param owner Owner's address\r\n    /// @return Owner's precentage\r\n    function clcShare(uint frameKey, uint parcelKey, address owner) public view returns (uint) {\r\n        uint ownerIndex = getParcelOwnerIndex(frameKey, parcelKey, owner);\r\n        require(ownerIndex < getNumberOfParcelOwners(frameKey, parcelKey), \"OWNER DOES NOT EXIST\"); \r\n\r\n        Parcel memory parcel = frames[frameKey].parcels[parcelKey];\r\n\r\n        uint ownerBlock= parcel.parcelOwners[ownerIndex].blockNum;\r\n        uint endBlock = frames[frameKey].lastBlockNum;\r\n        uint firstOwnerBlock= parcel.parcelOwners[0].blockNum;\r\n        uint nextOwnerBlock;\r\n\r\n        if (getNumberOfParcelOwners(frameKey, parcelKey)-1 == ownerIndex) nextOwnerBlock = endBlock;\r\n        else nextOwnerBlock = parcel.parcelOwners[ownerIndex + 1].blockNum;\r\n\r\n        //nextOwnerBlock = parcels[parcelIndex].parcelOwners[ownerIndex + 1].blockNum;\r\n    \r\n        uint ownerBlocks = nextOwnerBlock.sub(ownerBlock);\r\n        uint allBlocks = endBlock.sub(firstOwnerBlock);\r\n\r\n        uint share = ownerBlocks.mul(scalar).div(allBlocks);\r\n        return share;     \r\n    }\r\n\r\n    /// @notice Calculate owner's winning amount\r\n    /// @param frameKey Frame's timestamp\r\n    /// @param parcelKey Parcel's key\r\n    /// @param owner Owner's address\r\n    /// @return Owner's winnings\r\n    function clcSettleAmount(uint frameKey, uint parcelKey, address owner) public view returns (uint){\r\n        \r\n        return clcShare(frameKey, parcelKey, owner).mul(frames[frameKey].rewardFund).div(scalar);\r\n\r\n    }\r\n\r\n\r\n\r\n\r\n}",
  "sourcePath": "D:/prog/UniHedge/core/contracts/Market.sol",
  "compiler": {
    "name": "solc",
    "version": "0.8.6+commit.11564f7e.Emscripten.clang"
  },
  "schemaVersion": "3.4.1",
  "updatedAt": "2021-07-23T07:32:28.203Z",
  "devdoc": {
    "author": "UniHedge",
    "details": "All function calls are currently implemented without side effects",
    "kind": "dev",
    "methods": {
      "AmountToApprove(uint256,uint256,uint256,uint256)": {
        "params": {
          "frameKey": "Frame's timestamp",
          "newSellPrice": "New sell price is required to calculate tax",
          "pairPrice": "Value is trading pair's price (to get correct parcel key) "
        },
        "returns": {
          "_0": "amoun to approve"
        }
      },
      "buyParcel(uint256,uint256,uint256)": {
        "params": {
          "newSellPrice": "New sell price is required to calculate tax",
          "pairPrice": "Is trading pair's price (to get correct parcel key) ",
          "timestamp": "Frame's timestamp get's calculated from this value"
        }
      },
      "clcFrameTimestamp(uint256)": {
        "params": {
          "timestamp": "In seconds"
        },
        "returns": {
          "_0": "frame's timestamp (key)"
        }
      },
      "clcFramesLeft(uint256)": {
        "params": {
          "frameKey": "Timestamp of an arbitary frame in the future"
        },
        "returns": {
          "_0": "number of frames (whole numbers: n=0,1,2...)"
        }
      },
      "clcParcelInterval(uint256)": {
        "params": {
          "value": "Arbitary price of market's Uniswap pair"
        },
        "returns": {
          "_0": "parcel key (bottom boundary)"
        }
      },
      "clcSettleAmount(uint256,uint256,address)": {
        "params": {
          "frameKey": "Frame's timestamp",
          "owner": "Owner's address",
          "parcelKey": "Parcel's key"
        },
        "returns": {
          "_0": "Owner's winnings"
        }
      },
      "clcShare(uint256,uint256,address)": {
        "params": {
          "frameKey": "Frame's timestamp",
          "owner": "Owner's address",
          "parcelKey": "Parcel's key"
        },
        "returns": {
          "_0": "Owner's precentage"
        }
      },
      "closeFrame(uint256)": {
        "params": {
          "frameKey": "Frame's timestamp"
        }
      },
      "getApprovedAmount()": {
        "returns": {
          "_0": "approved amount"
        }
      },
      "getCurrentPrice(uint256,uint256)": {
        "params": {
          "frameKey": "Frame's timestamp",
          "parcelKey": "Parcel's key "
        },
        "returns": {
          "_0": "price that the current owner set"
        }
      },
      "getNumberOfFrameKeys()": {
        "returns": {
          "_0": "number frames"
        }
      },
      "getNumberOfParcelOwners(uint256,uint256)": {
        "params": {
          "frameKey": "Frame's timestamp",
          "parcelKey": "Parcel's key "
        },
        "returns": {
          "_0": "number of owners"
        }
      },
      "getOrCreateFrame(uint256)": {
        "params": {
          "timestamp": "In second."
        },
        "returns": {
          "_0": "frameTimestamp Frame's key (timestamp that indicated the beggining of a frame)."
        }
      },
      "getParcelOwnerIndex(uint256,uint256,address)": {
        "params": {
          "frameKey": "Frame's timestamp",
          "owner": "Owners account address",
          "parcelKey": "Parcel's key "
        },
        "returns": {
          "_0": "owner's index"
        }
      },
      "getRewardAmount(uint256)": {
        "params": {
          "frameKey": "Frame's timestamp"
        },
        "returns": {
          "_0": "award amount"
        }
      },
      "settleParcel(uint256,address)": {
        "params": {
          "frameKey": "Frame's timestamp",
          "owner": "Owner's address"
        }
      },
      "updateFramePrices(uint256)": {
        "details": "For developement purposes the new price is added as an inputFinal version should use uniswap's oracles",
        "params": {
          "PriceCumulative": "Cumulative price"
        }
      }
    },
    "title": "TWPM Market",
    "version": 1
  },
  "userdoc": {
    "kind": "user",
    "methods": {
      "AmountToApprove(uint256,uint256,uint256,uint256)": {
        "notice": "Calculate amout required to approve to buy a parcel"
      },
      "buyParcel(uint256,uint256,uint256)": {
        "notice": "Calculate amout required to approve to buy a parcel"
      },
      "clcFrameTimestamp(uint256)": {
        "notice": "Calculate frames timestamp (beggining of frame)"
      },
      "clcFramesLeft(uint256)": {
        "notice": "Calculate how many frames there are left untill given frame in input"
      },
      "clcParcelInterval(uint256)": {
        "notice": "Calculate bottom boundary of a parcel"
      },
      "clcSettleAmount(uint256,uint256,address)": {
        "notice": "Calculate owner's winning amount"
      },
      "clcShare(uint256,uint256,address)": {
        "notice": "Calculate owner's share based on the number of blocks the account owned the parcel"
      },
      "closeFrame(uint256)": {
        "notice": "Close frame"
      },
      "getApprovedAmount()": {
        "notice": "Get msg senders approved amount of accounting token to this contract (market)"
      },
      "getCurrentPrice(uint256,uint256)": {
        "notice": "Get current price of a parcel in a frame"
      },
      "getNumberOfFrameKeys()": {
        "notice": "Get number of frames"
      },
      "getNumberOfParcelOwners(uint256,uint256)": {
        "notice": "Get number of accounts that owned a specific parcel"
      },
      "getOrCreateFrame(uint256)": {
        "notice": "Create a frame"
      },
      "getParcelOwnerIndex(uint256,uint256,address)": {
        "notice": "Calculate parcel owner's index in the array of owners of the parcel"
      },
      "getRewardAmount(uint256)": {
        "notice": "Get frame's award amount (accumulation of different parcel taxes)Remaining tax of a parcel owner get's returned after a sale (change of ownership). So the award amount isn't for sure untill the frame get's closed."
      },
      "settleParcel(uint256,address)": {
        "notice": "Settle parcel for a owner. Owner's share of the reward amount get's transfered to owner's account"
      },
      "updateFramePrices(uint256)": {
        "notice": "Update trading pair's prices in the frame"
      }
    },
    "version": 1
  }
}