{
  "contractName": "MarketFactory",
  "abi": [
    {
      "inputs": [
        {
          "internalType": "address",
          "name": "_uniswapFactory",
          "type": "address"
        }
      ],
      "stateMutability": "nonpayable",
      "type": "constructor"
    },
    {
      "inputs": [
        {
          "internalType": "address",
          "name": "",
          "type": "address"
        }
      ],
      "name": "markets",
      "outputs": [
        {
          "internalType": "contract Market",
          "name": "",
          "type": "address"
        }
      ],
      "stateMutability": "view",
      "type": "function",
      "constant": true
    },
    {
      "inputs": [
        {
          "internalType": "uint256",
          "name": "",
          "type": "uint256"
        }
      ],
      "name": "marketsKeys",
      "outputs": [
        {
          "internalType": "address",
          "name": "",
          "type": "address"
        }
      ],
      "stateMutability": "view",
      "type": "function",
      "constant": true
    },
    {
      "inputs": [],
      "name": "owner",
      "outputs": [
        {
          "internalType": "address",
          "name": "",
          "type": "address"
        }
      ],
      "stateMutability": "view",
      "type": "function",
      "constant": true
    },
    {
      "inputs": [],
      "name": "uniswapFactory",
      "outputs": [
        {
          "internalType": "contract IUniswapV2Factory",
          "name": "",
          "type": "address"
        }
      ],
      "stateMutability": "view",
      "type": "function",
      "constant": true
    },
    {
      "inputs": [
        {
          "internalType": "address",
          "name": "_token",
          "type": "address"
        },
        {
          "internalType": "address",
          "name": "_uniswapPair",
          "type": "address"
        },
        {
          "internalType": "uint256",
          "name": "_period",
          "type": "uint256"
        },
        {
          "internalType": "uint256",
          "name": "_initTimestamp",
          "type": "uint256"
        },
        {
          "internalType": "uint256",
          "name": "_tax",
          "type": "uint256"
        },
        {
          "internalType": "uint256",
          "name": "_fee",
          "type": "uint256"
        },
        {
          "internalType": "uint256",
          "name": "_dPrice",
          "type": "uint256"
        }
      ],
      "name": "addMarket",
      "outputs": [],
      "stateMutability": "nonpayable",
      "type": "function"
    },
    {
      "inputs": [],
      "name": "getMarketsCount",
      "outputs": [
        {
          "internalType": "uint256",
          "name": "",
          "type": "uint256"
        }
      ],
      "stateMutability": "view",
      "type": "function",
      "constant": true
    }
  ],
  "bytecode": "0x608060405234801561001057600080fd5b506040516145b13803806145b1833981810160405281019061003291906100ce565b33600360006101000a81548173ffffffffffffffffffffffffffffffffffffffff021916908373ffffffffffffffffffffffffffffffffffffffff160217905550806000806101000a81548173ffffffffffffffffffffffffffffffffffffffff021916908373ffffffffffffffffffffffffffffffffffffffff16021790555050610149565b6000815190506100c881610132565b92915050565b6000602082840312156100e4576100e361012d565b5b60006100f2848285016100b9565b91505092915050565b60006101068261010d565b9050919050565b600073ffffffffffffffffffffffffffffffffffffffff82169050919050565b600080fd5b61013b816100fb565b811461014657600080fd5b50565b614459806101586000396000f3fe60806040523480156200001157600080fd5b50600436106200006a5760003560e01c806327fa35c3146200006f57806346a81c0014620000915780638bdb2afa14620000c75780638da5cb5b14620000e95780638e8f294b146200010b578063df9200341462000141575b600080fd5b6200007962000161565b60405162000088919062000610565b60405180910390f35b620000af6004803603810190620000a9919062000482565b6200016e565b604051620000be91906200052b565b60405180910390f35b620000d1620001ae565b604051620000e0919062000548565b60405180910390f35b620000f3620001d2565b6040516200010291906200052b565b60405180910390f35b6200012960048036038101906200012391906200039d565b620001f8565b604051620001389190620005f3565b60405180910390f35b6200015f6004803603810190620001599190620003cf565b6200022b565b005b6000600280549050905090565b600281815481106200017f57600080fd5b906000526020600020016000915054906101000a900473ffffffffffffffffffffffffffffffffffffffff1681565b60008054906101000a900473ffffffffffffffffffffffffffffffffffffffff1681565b600360009054906101000a900473ffffffffffffffffffffffffffffffffffffffff1681565b60016020528060005260406000206000915054906101000a900473ffffffffffffffffffffffffffffffffffffffff1681565b60003088888888888888604051620002439062000361565b6200025698979695949392919062000565565b604051809103906000f08015801562000273573d6000803e3d6000fd5b50905080600160008373ffffffffffffffffffffffffffffffffffffffff1673ffffffffffffffffffffffffffffffffffffffff16815260200190815260200160002060006101000a81548173ffffffffffffffffffffffffffffffffffffffff021916908373ffffffffffffffffffffffffffffffffffffffff1602179055506002819080600181540180825580915050600190039060005260206000200160009091909190916101000a81548173ffffffffffffffffffffffffffffffffffffffff021916908373ffffffffffffffffffffffffffffffffffffffff1602179055505050505050505050565b613cb7806200076d83390190565b600081359050620003808162000738565b92915050565b600081359050620003978162000752565b92915050565b600060208284031215620003b657620003b562000733565b5b6000620003c6848285016200036f565b91505092915050565b600080600080600080600060e0888a031215620003f157620003f062000733565b5b6000620004018a828b016200036f565b9750506020620004148a828b016200036f565b9650506040620004278a828b0162000386565b95505060606200043a8a828b0162000386565b94505060806200044d8a828b0162000386565b93505060a0620004608a828b0162000386565b92505060c0620004738a828b0162000386565b91505092959891949750929550565b6000602082840312156200049b576200049a62000733565b5b6000620004ab8482850162000386565b91505092915050565b620004bf816200062d565b82525050565b620004d0816200066b565b82525050565b620004e18162000693565b82525050565b620004f281620006bb565b82525050565b6200050381620006e3565b82525050565b62000514816200070b565b82525050565b620005258162000661565b82525050565b6000602082019050620005426000830184620004b4565b92915050565b60006020820190506200055f6000830184620004d6565b92915050565b6000610100820190506200057d600083018b620004f8565b6200058c602083018a620004c5565b6200059b6040830189620004e7565b620005aa60608301886200051a565b620005b960808301876200051a565b620005c860a08301866200051a565b620005d760c08301856200051a565b620005e660e08301846200051a565b9998505050505050505050565b60006020820190506200060a600083018462000509565b92915050565b60006020820190506200062760008301846200051a565b92915050565b60006200063a8262000641565b9050919050565b600073ffffffffffffffffffffffffffffffffffffffff82169050919050565b6000819050919050565b600062000678826200067f565b9050919050565b60006200068c8262000641565b9050919050565b6000620006a082620006a7565b9050919050565b6000620006b48262000641565b9050919050565b6000620006c882620006cf565b9050919050565b6000620006dc8262000641565b9050919050565b6000620006f082620006f7565b9050919050565b6000620007048262000641565b9050919050565b600062000718826200071f565b9050919050565b60006200072c8262000641565b9050919050565b600080fd5b62000743816200062d565b81146200074f57600080fd5b50565b6200075d8162000661565b81146200076957600080fd5b5056fe6080604052606460095569d3c21bcecceda1000000600a553480156200002457600080fd5b5060405162003cb738038062003cb783398181016040528101906200004a9190620001da565b86600160006101000a81548173ffffffffffffffffffffffffffffffffffffffff021916908373ffffffffffffffffffffffffffffffffffffffff16021790555033600260006101000a81548173ffffffffffffffffffffffffffffffffffffffff021916908373ffffffffffffffffffffffffffffffffffffffff1602179055508460038190555083600481905550826008819055508160078190555085600560006101000a81548173ffffffffffffffffffffffffffffffffffffffff021916908373ffffffffffffffffffffffffffffffffffffffff16021790555080600681905550876000806101000a81548173ffffffffffffffffffffffffffffffffffffffff021916908373ffffffffffffffffffffffffffffffffffffffff16021790555050505050505050506200038a565b6000815190506200018f8162000322565b92915050565b600081519050620001a6816200033c565b92915050565b600081519050620001bd8162000356565b92915050565b600081519050620001d48162000370565b92915050565b600080600080600080600080610100898b031215620001fe57620001fd6200031d565b5b60006200020e8b828c01620001ac565b9850506020620002218b828c016200017e565b9750506040620002348b828c0162000195565b9650506060620002478b828c01620001c3565b95505060806200025a8b828c01620001c3565b94505060a06200026d8b828c01620001c3565b93505060c0620002808b828c01620001c3565b92505060e0620002938b828c01620001c3565b9150509295985092959890939650565b6000620002b082620002f3565b9050919050565b6000620002c482620002a3565b9050919050565b6000620002d882620002a3565b9050919050565b6000620002ec82620002a3565b9050919050565b600073ffffffffffffffffffffffffffffffffffffffff82169050919050565b6000819050919050565b600080fd5b6200032d81620002b7565b81146200033957600080fd5b50565b6200034781620002cb565b81146200035357600080fd5b50565b6200036181620002df565b81146200036d57600080fd5b50565b6200037b8162000313565b81146200038757600080fd5b50565b61391d806200039a6000396000f3fe6080604052600436106101cd5760003560e01c80635b3ad63e116100f7578063a10340bc11610095578063da68cf8b11610064578063da68cf8b14610710578063ec77fe111461073b578063ef78d4fd14610757578063fc95070214610782576101cd565b8063a10340bc14610637578063c45a01551461067d578063c816841b146106a8578063c84993af146106d3576101cd565b80637e996639116100d15780637e9966391461059a57806389da88a3146105c557806395333194146105f05780639d750e321461060c576101cd565b80635b3ad63e146104f55780637358c57a146105325780637d6ae6a01461055d576101cd565b806331e592e21161016f578063499a0fc41161013e578063499a0fc4146104255780634f3ab71f14610450578063527eb4bc1461048d5780635619e1f5146104b8576101cd565b806331e592e2146103695780633d7a7eac14610392578063410f0710146103cf57806345084775146103fa576101cd565b806318ff0e07116101ab57806318ff0e07146102895780631e501486146102c65780632a0efd441461030357806331cf77b41461032c576101cd565b806304673368146101d2578063050e88401461020f5780630cbcff8f1461024c575b600080fd5b3480156101de57600080fd5b506101f960048036038101906101f49190612dc4565b6107ab565b60405161020691906132bf565b60405180910390f35b34801561021b57600080fd5b5061023660048036038101906102319190612d2a565b6107e0565b60405161024391906132bf565b60405180910390f35b34801561025857600080fd5b50610273600480360381019061026e9190612d2a565b610804565b60405161028091906132bf565b60405180910390f35b34801561029557600080fd5b506102b060048036038101906102ab9190612d2a565b6109bf565b6040516102bd91906132bf565b60405180910390f35b3480156102d257600080fd5b506102ed60048036038101906102e89190612e04565b610a17565b6040516102fa91906132bf565b60405180910390f35b34801561030f57600080fd5b5061032a60048036038101906103259190612d2a565b610ce5565b005b34801561033857600080fd5b50610353600480360381019061034e9190612dc4565b610e3c565b60405161036091906132bf565b60405180910390f35b34801561037557600080fd5b50610390600480360381019061038b9190612d84565b610e74565b005b34801561039e57600080fd5b506103b960048036038101906103b49190612eaa565b610fe6565b6040516103c691906132bf565b60405180910390f35b3480156103db57600080fd5b506103e461114c565b6040516103f191906132bf565b60405180910390f35b34801561040657600080fd5b5061040f611152565b60405161041c91906130a1565b60405180910390f35b34801561043157600080fd5b5061043a611178565b60405161044791906132bf565b60405180910390f35b34801561045c57600080fd5b5061047760048036038101906104729190612e04565b61117e565b60405161048491906132bf565b60405180910390f35b34801561049957600080fd5b506104a2611269565b6040516104af91906132bf565b60405180910390f35b3480156104c457600080fd5b506104df60048036038101906104da9190612e04565b61126f565b6040516104ec91906132bf565b60405180910390f35b34801561050157600080fd5b5061051c60048036038101906105179190612d2a565b6112c1565b60405161052991906132bf565b60405180910390f35b34801561053e57600080fd5b5061054761132f565b60405161055491906132bf565b60405180910390f35b34801561056957600080fd5b50610584600480360381019061057f9190612d2a565b611335565b60405161059191906132bf565b60405180910390f35b3480156105a657600080fd5b506105af611378565b6040516105bc91906132bf565b60405180910390f35b3480156105d157600080fd5b506105da61137e565b6040516105e791906132bf565b60405180910390f35b61060a60048036038101906106059190612e57565b61138b565b005b34801561061857600080fd5b50610621611b67565b60405161062e91906132bf565b60405180910390f35b34801561064357600080fd5b5061065e60048036038101906106599190612d2a565b611c20565b6040516106749a999897969594939291906132da565b60405180910390f35b34801561068957600080fd5b50610692611c81565b60405161069f91906131a4565b60405180910390f35b3480156106b457600080fd5b506106bd611ca5565b6040516106ca9190613189565b60405180910390f35b3480156106df57600080fd5b506106fa60048036038101906106f59190612d2a565b611ccb565b60405161070791906132bf565b60405180910390f35b34801561071c57600080fd5b50610725611ceb565b604051610732919061316e565b60405180910390f35b61075560048036038101906107509190612e57565b611d11565b005b34801561076357600080fd5b5061076c61234a565b60405161077991906132bf565b60405180910390f35b34801561078e57600080fd5b506107a960048036038101906107a49190612d2a565b612350565b005b6000600b6000848152602001908152602001600020600a01600083815260200190815260200160002060020154905092915050565b600c81815481106107f057600080fd5b906000526020600020016000915090505481565b600060045482101561084b576040517f08c379a00000000000000000000000000000000000000000000000000000000081526004016108429061321f565b60405180910390fd5b6000610856836112c1565b90506000600381111561086c5761086b6136bd565b5b600b600083815260200190815260200160002060010160009054906101000a900460ff1660038111156108a2576108a16136bd565b5b146108b057809150506109ba565b6108b9426112c1565b8110156108fb576040517f08c379a00000000000000000000000000000000000000000000000000000000081526004016108f2906131ff565b60405180910390fd5b80600b6000838152602001908152602001600020600001819055506001600b600083815260200190815260200160002060010160006101000a81548160ff021916908360038111156109505761094f6136bd565b5b0217905550600c8190806001815401808255809150506001900390600052602060002001600090919091909150557f163614e6e9ce9df7687928015fd2c748b69c5136db886e57f09170b251b58e87816040516109ad91906132bf565b60405180910390a1809150505b919050565b60008082116109d2576006549050610a12565b610a0f600654610a016006546109f360065487612a3d90919063ffffffff16565b612a5390919063ffffffff16565b612a6990919063ffffffff16565b90505b919050565b600080610a2585858561117e565b9050610a318585610e3c565b8110610a72576040517f08c379a0000000000000000000000000000000000000000000000000000000008152600401610a699061329f565b60405180910390fd5b6000600b6000878152602001908152602001600020600a0160008681526020019081526020016000206040518060800160405290816000820154815260200160018201805480602002602001604051908101604052809291908181526020016000905b82821015610b6757838290600052602060002090600202016040518060400160405290816000820160009054906101000a900473ffffffffffffffffffffffffffffffffffffffff1673ffffffffffffffffffffffffffffffffffffffff1673ffffffffffffffffffffffffffffffffffffffff16815260200160018201548152505081526020019060010190610ad5565b505050508152602001600282015481526020016003820160009054906101000a900460ff166002811115610b9e57610b9d6136bd565b5b6002811115610bb057610baf6136bd565b5b815250509050600081602001518381518110610bcf57610bce6136ec565b5b60200260200101516020015190506000600b600089815260200190815260200160002060090154905060008360200151600081518110610c1257610c116136ec565b5b60200260200101516020015190506000856001610c2f8c8c610e3c565b610c399190613499565b1415610c4757829050610c79565b8460200151600187610c599190613387565b81518110610c6a57610c696136ec565b5b60200260200101516020015190505b6000610c8e8583612a7f90919063ffffffff16565b90506000610ca58486612a7f90919063ffffffff16565b90506000610cd082610cc2600a5486612a5390919063ffffffff16565b612a3d90919063ffffffff16565b90508099505050505050505050509392505050565b6000610cf0426112c1565b905043600b600083815260200190815260200160002060090181905550610d36615460610d2860035484612a6990919063ffffffff16565b612a7f90919063ffffffff16565b4211610dae5781600b60008381526020019081526020016000206004018190555042600b6000838152602001908152602001600020600701819055507f163614e6e9ce9df7687928015fd2c748b69c5136db886e57f09170b251b58e8781604051610da191906132bf565b60405180910390a1610e38565b610dc360035482612a6990919063ffffffff16565b4211610e375781600b60008381526020019081526020016000206005018190555042600b6000838152602001908152602001600020600801819055507f163614e6e9ce9df7687928015fd2c748b69c5136db886e57f09170b251b58e8781604051610e2e91906132bf565b60405180910390a15b5b5050565b6000600b6000848152602001908152602001600020600a01600083815260200190815260200160002060010180549050905092915050565b60026003811115610e8857610e876136bd565b5b600b600084815260200190815260200160002060010160009054906101000a900460ff166003811115610ebe57610ebd6136bd565b5b14610efe576040517f08c379a0000000000000000000000000000000000000000000000000000000008152600401610ef59061323f565b60405180910390fd5b6000610f1f600b6000858152602001908152602001600020600201546109bf565b90506000610f2e84838561126f565b9050600160009054906101000a900473ffffffffffffffffffffffffffffffffffffffff1673ffffffffffffffffffffffffffffffffffffffff1663a9059cbb84836040518363ffffffff1660e01b8152600401610f8d929190613145565b602060405180830381600087803b158015610fa757600080fd5b505af1158015610fbb573d6000803e3d6000fd5b505050506040513d601f19601f82011682018060405250810190610fdf9190612cfd565b5050505050565b600080610ff2856109bf565b90506000611011611002856112c1565b85612a7f90919063ffffffff16565b9050600061103e60035461103084600a54612a5390919063ffffffff16565b612a3d90919063ffffffff16565b9050600061104b89611335565b9050600061108b8261107d620186a061106f6008548d612a5390919063ffffffff16565b612a3d90919063ffffffff16565b612a5390919063ffffffff16565b905060006110b9620186a06110ab6008548c612a5390919063ffffffff16565b612a3d90919063ffffffff16565b90506110e2600a546110d48684612a5390919063ffffffff16565b612a3d90919063ffffffff16565b90506110f78183612a6990919063ffffffff16565b9150600061113883600b60008f8152602001908152602001600020600a0160008a815260200190815260200160002060020154612a6990919063ffffffff16565b905080975050505050505050949350505050565b60075481565b600260009054906101000a900473ffffffffffffffffffffffffffffffffffffffff1681565b60065481565b600080600090505b6111908585610e3c565b811015611254578273ffffffffffffffffffffffffffffffffffffffff16600b6000878152602001908152602001600020600a01600086815260200190815260200160002060010182815481106111ea576111e96136ec565b5b906000526020600020906002020160000160009054906101000a900473ffffffffffffffffffffffffffffffffffffffff1673ffffffffffffffffffffffffffffffffffffffff1614156112415780915050611262565b808061124c90613616565b915050611186565b5061125f8484610e3c565b90505b9392505050565b60095481565b60006112b8600a546112aa600b60008881526020019081526020016000206003015461129c888888610a17565b612a5390919063ffffffff16565b612a3d90919063ffffffff16565b90509392505050565b600060045482116112d657600454905061132a565b61132760045461131960035461130b6003546112fd60045489612a7f90919063ffffffff16565b612a3d90919063ffffffff16565b612a5390919063ffffffff16565b612a6990919063ffffffff16565b90505b919050565b60045481565b600061137160016113636003546113554287612a7f90919063ffffffff16565b612a3d90919063ffffffff16565b612a6990919063ffffffff16565b9050919050565b60085481565b6000600c80549050905090565b600061139684610804565b905060006113a48285612a95565b905060006113c36113b4426112c1565b42612a7f90919063ffffffff16565b905060006113f06003546113e284600a54612a5390919063ffffffff16565b612a3d90919063ffffffff16565b90506000611444600a5461143684611428620186a061141a6008548d612a5390919063ffffffff16565b612a3d90919063ffffffff16565b612a5390919063ffffffff16565b612a3d90919063ffffffff16565b9050600061145189611335565b9050600061149182611483620186a06114756008548d612a5390919063ffffffff16565b612a3d90919063ffffffff16565b612a5390919063ffffffff16565b90506114a68382612a6990919063ffffffff16565b90506114e581600b60008a8152602001908152602001600020600a01600089815260200190815260200160002060020154612a6990919063ffffffff16565b600160009054906101000a900473ffffffffffffffffffffffffffffffffffffffff1673ffffffffffffffffffffffffffffffffffffffff1663dd62ed3e33306040518363ffffffff1660e01b81526004016115429291906130e5565b60206040518083038186803b15801561155a57600080fd5b505afa15801561156e573d6000803e3d6000fd5b505050506040513d601f19601f820116820180604052508101906115929190612d57565b10156115d3576040517f08c379a00000000000000000000000000000000000000000000000000000000081526004016115ca9061325f565b60405180910390fd5b600160009054906101000a900473ffffffffffffffffffffffffffffffffffffffff1673ffffffffffffffffffffffffffffffffffffffff166323b872dd333061165085600b60008e8152602001908152602001600020600a0160008d815260200190815260200160002060020154612a6990919063ffffffff16565b6040518463ffffffff1660e01b815260040161166e9392919061310e565b602060405180830381600087803b15801561168857600080fd5b505af115801561169c573d6000803e3d6000fd5b505050506040513d601f19601f820116820180604052508101906116c09190612cfd565b506116ea81600b60008a815260200190815260200160002060030154612a6990919063ffffffff16565b600b60008981526020019081526020016000206003018190555060016002811115611718576117176136bd565b5b600b6000898152602001908152602001600020600a01600088815260200190815260200160002060030160009054906101000a900460ff166002811115611762576117616136bd565b5b1415611a08576000600b6000898152602001908152602001600020600a01600088815260200190815260200160002060020154905060006117e9600a546117db886117cd620186a06117bf60085489612a5390919063ffffffff16565b612a3d90919063ffffffff16565b612a5390919063ffffffff16565b612a3d90919063ffffffff16565b905060006118298561181b620186a061180d60085488612a5390919063ffffffff16565b612a3d90919063ffffffff16565b612a5390919063ffffffff16565b905061183e8282612a6990919063ffffffff16565b9050600061187f600b60008d8152602001908152602001600020600a0160008c81526020019081526020016000206002015483612a6990919063ffffffff16565b905060006118a060016118928e8e610e3c565b612a7f90919063ffffffff16565b9050600160009054906101000a900473ffffffffffffffffffffffffffffffffffffffff1673ffffffffffffffffffffffffffffffffffffffff1663a9059cbb600b60008f8152602001908152602001600020600a0160008e8152602001908152602001600020600101838154811061191c5761191b6136ec565b5b906000526020600020906002020160000160009054906101000a900473ffffffffffffffffffffffffffffffffffffffff16846040518363ffffffff1660e01b815260040161196c9291906130bc565b602060405180830381600087803b15801561198657600080fd5b505af115801561199a573d6000803e3d6000fd5b505050506040513d601f19601f820116820180604052508101906119be9190612cfd565b506119e883600b60008f815260200190815260200160002060030154612a7f90919063ffffffff16565b600b60008e81526020019081526020016000206003018190555050505050505b600b6000888152602001908152602001600020600a01600087815260200190815260200160002060010160405180604001604052803373ffffffffffffffffffffffffffffffffffffffff16815260200143815250908060018154018082558091505060019003906000526020600020906002020160009091909190915060008201518160000160006101000a81548173ffffffffffffffffffffffffffffffffffffffff021916908373ffffffffffffffffffffffffffffffffffffffff1602179055506020820151816001015550506001600b6000898152602001908152602001600020600a01600088815260200190815260200160002060030160006101000a81548160ff02191690836002811115611b2757611b266136bd565b5b021790555087600b6000898152602001908152602001600020600a0160008881526020019081526020016000206002018190555050505050505050505050565b600080600160009054906101000a900473ffffffffffffffffffffffffffffffffffffffff1673ffffffffffffffffffffffffffffffffffffffff1663dd62ed3e33306040518363ffffffff1660e01b8152600401611bc79291906130e5565b60206040518083038186803b158015611bdf57600080fd5b505afa158015611bf3573d6000803e3d6000fd5b505050506040513d601f19601f82011682018060405250810190611c179190612d57565b90508091505090565b600b6020528060005260406000206000915090508060000154908060010160009054906101000a900460ff1690806002015490806003015490806004015490806005015490806006015490806007015490806008015490806009015490508a565b60008054906101000a900473ffffffffffffffffffffffffffffffffffffffff1681565b600560009054906101000a900473ffffffffffffffffffffffffffffffffffffffff1681565b6000600b6000838152602001908152602001600020600301549050919050565b600160009054906101000a900473ffffffffffffffffffffffffffffffffffffffff1681565b6000611d1c84610804565b90506000611d2a8285612a95565b90503373ffffffffffffffffffffffffffffffffffffffff16600b6000848152602001908152602001600020600a016000838152602001908152602001600020600101611d8a6001611d7c8686610e3c565b612a7f90919063ffffffff16565b81548110611d9b57611d9a6136ec565b5b906000526020600020906002020160000160009054906101000a900473ffffffffffffffffffffffffffffffffffffffff1673ffffffffffffffffffffffffffffffffffffffff1614611ded57600080fd5b6000611df886611335565b90506000611e17611e08426112c1565b42612a7f90919063ffffffff16565b90506000611e44600354611e3684600a54612a5390919063ffffffff16565b612a3d90919063ffffffff16565b90506000611e98600a54611e8a84611e7c620186a0611e6e6008548e612a5390919063ffffffff16565b612a3d90919063ffffffff16565b612a5390919063ffffffff16565b612a3d90919063ffffffff16565b90506000611ed885611eca620186a0611ebc6008548d612a5390919063ffffffff16565b612a3d90919063ffffffff16565b612a5390919063ffffffff16565b9050611eed8282612a6990919063ffffffff16565b90506000600b6000898152602001908152602001600020600a016000888152602001908152602001600020600201549050611f6e600a54611f6086611f52620186a0611f4460085488612a5390919063ffffffff16565b612a3d90919063ffffffff16565b612a5390919063ffffffff16565b612a3d90919063ffffffff16565b92506000611fae87611fa0620186a0611f926008548f612a5390919063ffffffff16565b612a3d90919063ffffffff16565b612a5390919063ffffffff16565b9050611fc38482612a6990919063ffffffff16565b9050808311156121ec57611fe08184612a7f90919063ffffffff16565b600160009054906101000a900473ffffffffffffffffffffffffffffffffffffffff1673ffffffffffffffffffffffffffffffffffffffff1663dd62ed3e33306040518363ffffffff1660e01b815260040161203d9291906130e5565b60206040518083038186803b15801561205557600080fd5b505afa158015612069573d6000803e3d6000fd5b505050506040513d601f19601f8201168201806040525081019061208d9190612d57565b10156120ce576040517f08c379a00000000000000000000000000000000000000000000000000000000081526004016120c59061325f565b60405180910390fd5b600160009054906101000a900473ffffffffffffffffffffffffffffffffffffffff1673ffffffffffffffffffffffffffffffffffffffff166323b872dd33306121218588612a7f90919063ffffffff16565b6040518463ffffffff1660e01b815260040161213f9392919061310e565b602060405180830381600087803b15801561215957600080fd5b505af115801561216d573d6000803e3d6000fd5b505050506040513d601f19601f820116820180604052508101906121919190612cfd565b506121cd6121a88285612a7f90919063ffffffff16565b600b60008c815260200190815260200160002060030154612a6990919063ffffffff16565b600b60008b81526020019081526020016000206003018190555061230d565b8083101561230c57600160009054906101000a900473ffffffffffffffffffffffffffffffffffffffff1673ffffffffffffffffffffffffffffffffffffffff1663a9059cbb336122468685612a7f90919063ffffffff16565b6040518363ffffffff1660e01b8152600401612263929190613145565b602060405180830381600087803b15801561227d57600080fd5b505af1158015612291573d6000803e3d6000fd5b505050506040513d601f19601f820116820180604052508101906122b59190612cfd565b506122f16122cc8483612a7f90919063ffffffff16565b600b60008c815260200190815260200160002060030154612a7f90919063ffffffff16565b600b60008b8152602001908152602001600020600301819055505b5b89600b60008b8152602001908152602001600020600a0160008a815260200190815260200160002060020181905550505050505050505050505050565b60035481565b60016003811115612364576123636136bd565b5b600b600083815260200190815260200160002060010160009054906101000a900460ff16600381111561239a576123996136bd565b5b146123da576040517f08c379a00000000000000000000000000000000000000000000000000000000081526004016123d1906131df565b60405180910390fd5b426123f060035483612a6990919063ffffffff16565b1115612431576040517f08c379a0000000000000000000000000000000000000000000000000000000008152600401612428906131bf565b60405180910390fd5b6000600b60008381526020019081526020016000206004015411158061246e57506000600b60008381526020019081526020016000206005015411155b156124b3576003600b600083815260200190815260200160002060010160006101000a81548160ff021916908360038111156124ad576124ac6136bd565b5b02179055505b600b600082815260200190815260200160002060050154600b6000838152602001908152602001600020600401541415612527576003600b600083815260200190815260200160002060010160006101000a81548160ff02191690836003811115612521576125206136bd565b5b02179055505b6002600b600083815260200190815260200160002060010160006101000a81548160ff02191690836003811115612561576125606136bd565b5b021790555060006125a7600b600084815260200190815260200160002060040154600b600085815260200190815260200160002060050154612a7f90919063ffffffff16565b905060006125ea600b600085815260200190815260200160002060070154600b600086815260200190815260200160002060080154612a7f90919063ffffffff16565b90506126226040518060200160405280847bffffffffffffffffffffffffffffffffffffffffffffffffffffffff1681525082612b86565b600001517bffffffffffffffffffffffffffffffffffffffffffffffffffffffff16600b60008581526020019081526020016000206002018190555061268d600a546070600b600087815260200190815260200160002060020154901c612a5390919063ffffffff16565b600b6000858152602001908152602001600020600201819055506126e97406d79f82328ea3da61e066ebb2f88a0000000000006070600b600087815260200190815260200160002060020154901b612a3d90919063ffffffff16565b600b6000858152602001908152602001600020600201819055506000612745620186a0612737600754600b600089815260200190815260200160002060030154612a5390919063ffffffff16565b612a3d90919063ffffffff16565b90506000612789620186a061277b600954600b60008a815260200190815260200160002060030154612a5390919063ffffffff16565b612a3d90919063ffffffff16565b90506127c6816127b884600b60008a815260200190815260200160002060030154612a7f90919063ffffffff16565b612a7f90919063ffffffff16565b600b600087815260200190815260200160002060030181905550600160009054906101000a900473ffffffffffffffffffffffffffffffffffffffff1673ffffffffffffffffffffffffffffffffffffffff1663a9059cbb600260009054906101000a900473ffffffffffffffffffffffffffffffffffffffff16846040518363ffffffff1660e01b815260040161285f9291906130bc565b602060405180830381600087803b15801561287957600080fd5b505af115801561288d573d6000803e3d6000fd5b505050506040513d601f19601f820116820180604052508101906128b19190612cfd565b50600160009054906101000a900473ffffffffffffffffffffffffffffffffffffffff1673ffffffffffffffffffffffffffffffffffffffff1663a9059cbb60008054906101000a900473ffffffffffffffffffffffffffffffffffffffff1673ffffffffffffffffffffffffffffffffffffffff16638da5cb5b6040518163ffffffff1660e01b815260040160206040518083038186803b15801561295657600080fd5b505afa15801561296a573d6000803e3d6000fd5b505050506040513d601f19601f8201168201806040525081019061298e9190612cd0565b836040518363ffffffff1660e01b81526004016129ac929190613145565b602060405180830381600087803b1580156129c657600080fd5b505af11580156129da573d6000803e3d6000fd5b505050506040513d601f19601f820116820180604052508101906129fe9190612cfd565b507f163614e6e9ce9df7687928015fd2c748b69c5136db886e57f09170b251b58e8785604051612a2e91906132bf565b60405180910390a15050505050565b60008183612a4b919061340e565b905092915050565b60008183612a61919061343f565b905092915050565b60008183612a779190613387565b905092915050565b60008183612a8d9190613499565b905092915050565b600080612aa1836109bf565b905060006002811115612ab757612ab66136bd565b5b600b6000868152602001908152602001600020600a01600083815260200190815260200160002060030160009054906101000a900460ff166002811115612b0157612b006136bd565b5b14612b0f5780915050612b80565b80600b6000868152602001908152602001600020600a01600083815260200190815260200160002060000181905550600b6000858152602001908152602001600020600b01819080600181540180825580915050600190039060005260206000200160009091909190915055809150505b92915050565b612b8e612c36565b6000826dffffffffffffffffffffffffffff161415612be2576040517f08c379a0000000000000000000000000000000000000000000000000000000008152600401612bd99061327f565b60405180910390fd5b6040518060200160405280836dffffffffffffffffffffffffffff168560000151612c0d91906133dd565b7bffffffffffffffffffffffffffffffffffffffffffffffffffffffff16815250905092915050565b604051806020016040528060007bffffffffffffffffffffffffffffffffffffffffffffffffffffffff1681525090565b600081359050612c76816138a2565b92915050565b600081519050612c8b816138a2565b92915050565b600081519050612ca0816138b9565b92915050565b600081359050612cb5816138d0565b92915050565b600081519050612cca816138d0565b92915050565b600060208284031215612ce657612ce561371b565b5b6000612cf484828501612c7c565b91505092915050565b600060208284031215612d1357612d1261371b565b5b6000612d2184828501612c91565b91505092915050565b600060208284031215612d4057612d3f61371b565b5b6000612d4e84828501612ca6565b91505092915050565b600060208284031215612d6d57612d6c61371b565b5b6000612d7b84828501612cbb565b91505092915050565b60008060408385031215612d9b57612d9a61371b565b5b6000612da985828601612ca6565b9250506020612dba85828601612c67565b9150509250929050565b60008060408385031215612ddb57612dda61371b565b5b6000612de985828601612ca6565b9250506020612dfa85828601612ca6565b9150509250929050565b600080600060608486031215612e1d57612e1c61371b565b5b6000612e2b86828701612ca6565b9350506020612e3c86828701612ca6565b9250506040612e4d86828701612c67565b9150509250925092565b600080600060608486031215612e7057612e6f61371b565b5b6000612e7e86828701612ca6565b9350506020612e8f86828701612ca6565b9250506040612ea086828701612ca6565b9150509250925092565b60008060008060808587031215612ec457612ec361371b565b5b6000612ed287828801612ca6565b9450506020612ee387828801612ca6565b9350506040612ef487828801612ca6565b9250506060612f0587828801612ca6565b91505092959194509250565b612f1a81613562565b82525050565b612f29816134df565b82525050565b612f38816134cd565b82525050565b612f4781613574565b82525050565b612f5681613598565b82525050565b612f65816135bc565b82525050565b612f74816135e0565b82525050565b6000612f87601a83613376565b9150612f9282613720565b602082019050919050565b6000612faa601083613376565b9150612fb582613749565b602082019050919050565b6000612fcd601a83613376565b9150612fd882613772565b602082019050919050565b6000612ff0602c83613376565b9150612ffb8261379b565b604082019050919050565b6000613013601083613376565b915061301e826137ea565b602082019050919050565b6000613036601c83613376565b915061304182613813565b602082019050919050565b6000613059601783613376565b91506130648261383c565b602082019050919050565b600061307c601483613376565b915061308782613865565b602082019050919050565b61309b81613558565b82525050565b60006020820190506130b66000830184612f20565b92915050565b60006040820190506130d16000830185612f11565b6130de6020830184613092565b9392505050565b60006040820190506130fa6000830185612f2f565b6131076020830184612f2f565b9392505050565b60006060820190506131236000830186612f2f565b6131306020830185612f2f565b61313d6040830184613092565b949350505050565b600060408201905061315a6000830185612f2f565b6131676020830184613092565b9392505050565b60006020820190506131836000830184612f3e565b92915050565b600060208201905061319e6000830184612f4d565b92915050565b60006020820190506131b96000830184612f5c565b92915050565b600060208201905081810360008301526131d881612f7a565b9050919050565b600060208201905081810360008301526131f881612f9d565b9050919050565b6000602082019050818103600083015261321881612fc0565b9050919050565b6000602082019050818103600083015261323881612fe3565b9050919050565b6000602082019050818103600083015261325881613006565b9050919050565b6000602082019050818103600083015261327881613029565b9050919050565b600060208201905081810360008301526132988161304c565b9050919050565b600060208201905081810360008301526132b88161306f565b9050919050565b60006020820190506132d46000830184613092565b92915050565b6000610140820190506132f0600083018d613092565b6132fd602083018c612f6b565b61330a604083018b613092565b613317606083018a613092565b6133246080830189613092565b61333160a0830188613092565b61333e60c0830187613092565b61334b60e0830186613092565b613359610100830185613092565b613367610120830184613092565b9b9a5050505050505050505050565b600082825260208201905092915050565b600061339282613558565b915061339d83613558565b9250827fffffffffffffffffffffffffffffffffffffffffffffffffffffffffffffffff038211156133d2576133d161365f565b5b828201905092915050565b60006133e882613530565b91506133f383613530565b9250826134035761340261368e565b5b828204905092915050565b600061341982613558565b915061342483613558565b9250826134345761343361368e565b5b828204905092915050565b600061344a82613558565b915061345583613558565b9250817fffffffffffffffffffffffffffffffffffffffffffffffffffffffffffffffff048311821515161561348e5761348d61365f565b5b828202905092915050565b60006134a482613558565b91506134af83613558565b9250828210156134c2576134c161365f565b5b828203905092915050565b60006134d882613510565b9050919050565b60006134ea82613510565b9050919050565b60008115159050919050565b600081905061350b8261388e565b919050565b600073ffffffffffffffffffffffffffffffffffffffff82169050919050565b60007bffffffffffffffffffffffffffffffffffffffffffffffffffffffff82169050919050565b6000819050919050565b600061356d826135f2565b9050919050565b600061357f82613586565b9050919050565b600061359182613510565b9050919050565b60006135a3826135aa565b9050919050565b60006135b582613510565b9050919050565b60006135c7826135ce565b9050919050565b60006135d982613510565b9050919050565b60006135eb826134fd565b9050919050565b60006135fd82613604565b9050919050565b600061360f82613510565b9050919050565b600061362182613558565b91507fffffffffffffffffffffffffffffffffffffffffffffffffffffffffffffffff8214156136545761365361365f565b5b600182019050919050565b7f4e487b7100000000000000000000000000000000000000000000000000000000600052601160045260246000fd5b7f4e487b7100000000000000000000000000000000000000000000000000000000600052601260045260246000fd5b7f4e487b7100000000000000000000000000000000000000000000000000000000600052602160045260246000fd5b7f4e487b7100000000000000000000000000000000000000000000000000000000600052603260045260246000fd5b600080fd5b7f4652414d4520454e442054494d45204e4f542052454143484544000000000000600082015250565b7f4652414d45204e4f54204f50454e454400000000000000000000000000000000600082015250565b7f43414e275420435245415445204652414d4520494e2050415354000000000000600082015250565b7f54494d455354414d50204245464f524520494e495449414c2054494d4553544160008201527f4d50204f46204d41524b45540000000000000000000000000000000000000000602082015250565b7f4652414d45204e4f5420434c4f53454400000000000000000000000000000000600082015250565b7f415050524f56454420414d4f554e5420495320544f4f20534d414c4c00000000600082015250565b7f4669786564506f696e743a204449565f42595f5a45524f000000000000000000600082015250565b7f4f574e455220444f4553204e4f54204558495354000000000000000000000000600082015250565b6004811061389f5761389e6136bd565b5b50565b6138ab816134cd565b81146138b657600080fd5b50565b6138c2816134f1565b81146138cd57600080fd5b50565b6138d981613558565b81146138e457600080fd5b5056fea264697066735822122045761804e7a2f3ce9b2919f81780a8828052371b26dd2da4fd29364369309c4664736f6c63430008060033a26469706673582212209a352875a3c763befcfee9756239861e6ecd0bc0303d091918a2ec3b395f784764736f6c63430008060033",
  "immutableReferences": {},
  "source": "// SPDX-License-Identifier: MIT\r\npragma solidity >=0.5.0;\r\n\r\nimport \"./Market.sol\";\r\nimport \"@uniswap/v2-core/contracts/interfaces/IUniswapV2Factory.sol\";\r\nimport \"@uniswap/v2-core/contracts/interfaces/IUniswapV2Pair.sol\";\r\nimport \"@openzeppelin/contracts/token/ERC20/IERC20.sol\";\r\n\r\ncontract MarketFactory {\r\n\r\n    IUniswapV2Factory public uniswapFactory;\r\n    mapping(address => Market) public markets;\r\n    address[] public marketsKeys;\r\n    address public owner;\r\n\r\n    constructor(address _uniswapFactory) {\r\n        owner = msg.sender;\r\n        uniswapFactory = IUniswapV2Factory(_uniswapFactory);\r\n    }\r\n\r\n    function addMarket(address _token, address _uniswapPair, uint _period, uint _initTimestamp, uint _tax, uint _fee, uint _dPrice) external {\r\n        Market market = new Market(this, IERC20(_token), IUniswapV2Pair(_uniswapPair), _period, _initTimestamp, _tax, _fee, _dPrice);\r\n        markets[address(market)] = market;\r\n        marketsKeys.push(address(market));\r\n    }\r\n\r\n    function getMarketsCount() public view returns (uint){\r\n        return marketsKeys.length;\r\n    }\r\n}\r\n",
  "sourcePath": "D:/prog/UniHedge/core/contracts/MarketFactory.sol",
  "compiler": {
    "name": "solc",
    "version": "0.8.6+commit.11564f7e.Emscripten.clang"
  },
  "schemaVersion": "3.4.1",
  "updatedAt": "2021-07-22T13:04:33.196Z",
  "networkType": "ethereum",
  "devdoc": {
    "kind": "dev",
    "methods": {},
    "version": 1
  },
  "userdoc": {
    "kind": "user",
    "methods": {},
    "version": 1
  }
}