{
  "contractName": "Market",
  "abi": [
    {
      "inputs": [
        {
          "internalType": "contract MarketFactory",
          "name": "_factory",
          "type": "address"
        },
        {
          "internalType": "contract IERC20",
          "name": "_token",
          "type": "address"
        },
        {
          "internalType": "contract IUniswapV2Pair",
          "name": "_uniswapPair",
          "type": "address"
        },
        {
          "internalType": "uint256",
          "name": "_period",
          "type": "uint256"
        },
        {
          "internalType": "uint256",
          "name": "_initTimestamp",
          "type": "uint256"
        },
        {
          "internalType": "uint256",
          "name": "_taxMarket",
          "type": "uint256"
        },
        {
          "internalType": "uint256",
          "name": "_feeMarket",
          "type": "uint256"
        },
        {
          "internalType": "uint256",
          "name": "_dPrice",
          "type": "uint256"
        },
        {
          "internalType": "uint256",
          "name": "_tReporting",
          "type": "uint256"
        },
        {
          "internalType": "uint256",
          "name": "_minTax",
          "type": "uint256"
        }
      ],
      "stateMutability": "nonpayable",
      "type": "constructor"
    },
    {
      "anonymous": false,
      "inputs": [
        {
          "indexed": false,
          "internalType": "uint256",
          "name": "frameKey",
          "type": "uint256"
        }
      ],
      "name": "FrameUpdate",
      "type": "event"
    },
    {
      "anonymous": false,
      "inputs": [
        {
          "indexed": false,
          "internalType": "uint256",
          "name": "frameKey",
          "type": "uint256"
        },
        {
          "indexed": false,
          "internalType": "uint256",
          "name": "lotKey",
          "type": "uint256"
        }
      ],
      "name": "LotUpdate",
      "type": "event"
    },
    {
      "inputs": [],
      "name": "accountingToken",
      "outputs": [
        {
          "internalType": "contract IERC20",
          "name": "",
          "type": "address"
        }
      ],
      "stateMutability": "view",
      "type": "function"
    },
    {
      "inputs": [],
      "name": "dPrice",
      "outputs": [
        {
          "internalType": "uint256",
          "name": "",
          "type": "uint256"
        }
      ],
      "stateMutability": "view",
      "type": "function"
    },
    {
      "inputs": [],
      "name": "factory",
      "outputs": [
        {
          "internalType": "contract MarketFactory",
          "name": "",
          "type": "address"
        }
      ],
      "stateMutability": "view",
      "type": "function"
    },
    {
      "inputs": [],
      "name": "feeMarket",
      "outputs": [
        {
          "internalType": "uint256",
          "name": "",
          "type": "uint256"
        }
      ],
      "stateMutability": "view",
      "type": "function"
    },
    {
      "inputs": [],
      "name": "feeProtocol",
      "outputs": [
        {
          "internalType": "uint256",
          "name": "",
          "type": "uint256"
        }
      ],
      "stateMutability": "view",
      "type": "function"
    },
    {
      "inputs": [
        {
          "internalType": "uint256",
          "name": "",
          "type": "uint256"
        }
      ],
      "name": "frames",
      "outputs": [
        {
          "internalType": "uint256",
          "name": "frameKey",
          "type": "uint256"
        },
        {
          "internalType": "enum Market.SFrame",
          "name": "state",
          "type": "uint8"
        },
        {
          "internalType": "uint256",
          "name": "priceAverage",
          "type": "uint256"
        },
        {
          "internalType": "uint256",
          "name": "rewardFund",
          "type": "uint256"
        },
        {
          "internalType": "uint256",
          "name": "oraclePrice0CumulativeStart",
          "type": "uint256"
        },
        {
          "internalType": "uint256",
          "name": "oraclePrice0CumulativeEnd",
          "type": "uint256"
        },
        {
          "internalType": "uint256",
          "name": "oracleTimestampStart",
          "type": "uint256"
        },
        {
          "internalType": "uint256",
          "name": "oracleTimestampEnd",
          "type": "uint256"
        },
        {
          "internalType": "uint256",
          "name": "lastBlockNum",
          "type": "uint256"
        }
      ],
      "stateMutability": "view",
      "type": "function"
    },
    {
      "inputs": [
        {
          "internalType": "uint256",
          "name": "",
          "type": "uint256"
        }
      ],
      "name": "framesKeys",
      "outputs": [
        {
          "internalType": "uint256",
          "name": "",
          "type": "uint256"
        }
      ],
      "stateMutability": "view",
      "type": "function"
    },
    {
      "inputs": [],
      "name": "initTimestamp",
      "outputs": [
        {
          "internalType": "uint256",
          "name": "",
          "type": "uint256"
        }
      ],
      "stateMutability": "view",
      "type": "function"
    },
    {
      "inputs": [],
      "name": "minTax",
      "outputs": [
        {
          "internalType": "uint256",
          "name": "",
          "type": "uint256"
        }
      ],
      "stateMutability": "view",
      "type": "function"
    },
    {
      "inputs": [],
      "name": "ownerMarket",
      "outputs": [
        {
          "internalType": "address payable",
          "name": "",
          "type": "address"
        }
      ],
      "stateMutability": "view",
      "type": "function"
    },
    {
      "inputs": [],
      "name": "period",
      "outputs": [
        {
          "internalType": "uint256",
          "name": "",
          "type": "uint256"
        }
      ],
      "stateMutability": "view",
      "type": "function"
    },
    {
      "inputs": [],
      "name": "tReporting",
      "outputs": [
        {
          "internalType": "uint256",
          "name": "",
          "type": "uint256"
        }
      ],
      "stateMutability": "view",
      "type": "function"
    },
    {
      "inputs": [],
      "name": "taxMarket",
      "outputs": [
        {
          "internalType": "uint256",
          "name": "",
          "type": "uint256"
        }
      ],
      "stateMutability": "view",
      "type": "function"
    },
    {
      "inputs": [],
      "name": "uniswapPair",
      "outputs": [
        {
          "internalType": "contract IUniswapV2Pair",
          "name": "",
          "type": "address"
        }
      ],
      "stateMutability": "view",
      "type": "function"
    },
    {
      "inputs": [
        {
          "internalType": "uint256",
          "name": "timestamp",
          "type": "uint256"
        }
      ],
      "name": "clcFrameTimestamp",
      "outputs": [
        {
          "internalType": "uint256",
          "name": "",
          "type": "uint256"
        }
      ],
      "stateMutability": "view",
      "type": "function"
    },
    {
      "inputs": [
        {
          "internalType": "uint256",
          "name": "value",
          "type": "uint256"
        }
      ],
      "name": "clcLotInterval",
      "outputs": [
        {
          "internalType": "uint256",
          "name": "",
          "type": "uint256"
        }
      ],
      "stateMutability": "view",
      "type": "function"
    },
    {
      "inputs": [
        {
          "internalType": "uint256",
          "name": "frameKey",
          "type": "uint256"
        }
      ],
      "name": "clcFramesLeft",
      "outputs": [
        {
          "internalType": "uint256",
          "name": "",
          "type": "uint256"
        }
      ],
      "stateMutability": "view",
      "type": "function"
    },
    {
      "inputs": [
        {
          "internalType": "uint256",
          "name": "frameKey",
          "type": "uint256"
        },
        {
          "internalType": "uint256",
          "name": "lotKey",
          "type": "uint256"
        }
      ],
      "name": "getLot",
      "outputs": [
        {
          "components": [
            {
              "internalType": "uint256",
              "name": "lotKey",
              "type": "uint256"
            },
            {
              "internalType": "address",
              "name": "lotOwner",
              "type": "address"
            },
            {
              "internalType": "uint256",
              "name": "acquisitionPrice",
              "type": "uint256"
            },
            {
              "internalType": "enum Market.SLot",
              "name": "state",
              "type": "uint8"
            }
          ],
          "internalType": "struct Market.Lot",
          "name": "",
          "type": "tuple"
        }
      ],
      "stateMutability": "view",
      "type": "function"
    },
    {
      "inputs": [
        {
          "internalType": "uint256",
          "name": "frameKey",
          "type": "uint256"
        }
      ],
      "name": "getLotsCount",
      "outputs": [
        {
          "internalType": "uint256",
          "name": "",
          "type": "uint256"
        }
      ],
      "stateMutability": "view",
      "type": "function"
    },
    {
      "inputs": [
        {
          "internalType": "uint256",
          "name": "frameKey",
          "type": "uint256"
        },
        {
          "internalType": "uint256",
          "name": "index",
          "type": "uint256"
        }
      ],
      "name": "getLotKey",
      "outputs": [
        {
          "internalType": "uint256",
          "name": "",
          "type": "uint256"
        }
      ],
      "stateMutability": "view",
      "type": "function"
    },
    {
      "inputs": [
        {
          "internalType": "uint256",
          "name": "frameKey",
          "type": "uint256"
        }
      ],
      "name": "getRewardAmount",
      "outputs": [
        {
          "internalType": "uint256",
          "name": "",
          "type": "uint256"
        }
      ],
      "stateMutability": "view",
      "type": "function"
    },
    {
      "inputs": [],
      "name": "getNumberOfFrameKeys",
      "outputs": [
        {
          "internalType": "uint256",
          "name": "",
          "type": "uint256"
        }
      ],
      "stateMutability": "view",
      "type": "function"
    },
    {
      "inputs": [
        {
          "internalType": "uint256",
          "name": "timestamp",
          "type": "uint256"
        }
      ],
      "name": "getOrCreateFrame",
      "outputs": [
        {
          "internalType": "uint256",
          "name": "",
          "type": "uint256"
        }
      ],
      "stateMutability": "nonpayable",
      "type": "function"
    },
    {
      "inputs": [
        {
          "internalType": "uint256",
          "name": "frameKey",
          "type": "uint256"
        },
        {
          "internalType": "uint256",
          "name": "pairPrice",
          "type": "uint256"
        },
        {
          "internalType": "uint256",
          "name": "acquisitionPrice",
          "type": "uint256"
        }
      ],
      "name": "AmountToApprove",
      "outputs": [
        {
          "internalType": "uint256",
          "name": "",
          "type": "uint256"
        }
      ],
      "stateMutability": "view",
      "type": "function"
    },
    {
      "inputs": [
        {
          "internalType": "uint256",
          "name": "timestamp",
          "type": "uint256"
        },
        {
          "internalType": "uint256",
          "name": "pairPrice",
          "type": "uint256"
        },
        {
          "internalType": "uint256",
          "name": "acquisitionPrice",
          "type": "uint256"
        }
      ],
      "name": "buyLot",
      "outputs": [],
      "stateMutability": "payable",
      "type": "function"
    },
    {
      "inputs": [
        {
          "internalType": "uint256",
          "name": "timestamp",
          "type": "uint256"
        },
        {
          "internalType": "uint256",
          "name": "pairPrice",
          "type": "uint256"
        },
        {
          "internalType": "uint256",
          "name": "acquisitionPrice",
          "type": "uint256"
        }
      ],
      "name": "updateLotPrice",
      "outputs": [],
      "stateMutability": "payable",
      "type": "function"
    },
    {
      "inputs": [
        {
          "internalType": "uint256",
          "name": "PriceCumulative",
          "type": "uint256"
        }
      ],
      "name": "updateFramePrices",
      "outputs": [],
      "stateMutability": "nonpayable",
      "type": "function"
    },
    {
      "inputs": [
        {
          "internalType": "uint256",
          "name": "frameKey",
          "type": "uint256"
        }
      ],
      "name": "closeFrame",
      "outputs": [],
      "stateMutability": "payable",
      "type": "function"
    },
    {
      "inputs": [
        {
          "internalType": "uint256",
          "name": "frameKey",
          "type": "uint256"
        }
      ],
      "name": "settleLot",
      "outputs": [],
      "stateMutability": "payable",
      "type": "function"
    },
    {
      "inputs": [
        {
          "internalType": "uint256",
          "name": "amount",
          "type": "uint256"
        }
      ],
      "name": "emptyFuds",
      "outputs": [],
      "stateMutability": "payable",
      "type": "function"
    }
  ],
  "bytecode": "0x6080604052606460095569d3c21bcecceda1000000600c553480156200002457600080fd5b506040516200401e3803806200401e83398181016040528101906200004a9190620002d1565b88600160006101000a81548173ffffffffffffffffffffffffffffffffffffffff021916908373ffffffffffffffffffffffffffffffffffffffff16021790555033600260006101000a81548173ffffffffffffffffffffffffffffffffffffffff021916908373ffffffffffffffffffffffffffffffffffffffff1602179055508660038190555085600481905550846008819055508360078190555087600560006101000a81548173ffffffffffffffffffffffffffffffffffffffff021916908373ffffffffffffffffffffffffffffffffffffffff16021790555082600681905550896000806101000a81548173ffffffffffffffffffffffffffffffffffffffff021916908373ffffffffffffffffffffffffffffffffffffffff16021790555081600a8190555080600b8190555050505050505050505050620003c7565b600080fd5b600073ffffffffffffffffffffffffffffffffffffffff82169050919050565b6000620001c08262000193565b9050919050565b6000620001d482620001b3565b9050919050565b620001e681620001c7565b8114620001f257600080fd5b50565b6000815190506200020681620001db565b92915050565b60006200021982620001b3565b9050919050565b6200022b816200020c565b81146200023757600080fd5b50565b6000815190506200024b8162000220565b92915050565b60006200025e82620001b3565b9050919050565b620002708162000251565b81146200027c57600080fd5b50565b600081519050620002908162000265565b92915050565b6000819050919050565b620002ab8162000296565b8114620002b757600080fd5b50565b600081519050620002cb81620002a0565b92915050565b6000806000806000806000806000806101408b8d031215620002f857620002f76200018e565b5b6000620003088d828e01620001f5565b9a505060206200031b8d828e016200023a565b99505060406200032e8d828e016200027f565b9850506060620003418d828e01620002ba565b9750506080620003548d828e01620002ba565b96505060a0620003678d828e01620002ba565b95505060c06200037a8d828e01620002ba565b94505060e06200038d8d828e01620002ba565b935050610100620003a18d828e01620002ba565b925050610120620003b58d828e01620002ba565b9150509295989b9194979a5092959850565b613c4780620003d76000396000f3fe6080604052600436106101cd5760003560e01c80637d6ae6a0116100f7578063c45a015511610095578063ec18e28711610064578063ec18e287146106cf578063ef78d4fd146106eb578063fc95070214610716578063ff5c86b014610732576101cd565b8063c45a015514610611578063c816841b1461063c578063c84993af14610667578063da68cf8b146106a4576101cd565b8063888bdbcd116100d1578063888bdbcd1461054857806389da88a314610585578063a10340bc146105b0578063bb15d2dd146105f5576101cd565b80637d6ae6a0146104a35780637e996639146104e0578063830ab1191461050b576101cd565b8063410f07101161016f578063527eb4bc1161013e578063527eb4bc146103d35780635b3ad63e146103fe5780636f1aefc31461043b5780637358c57a14610478576101cd565b8063410f0710146103365780634508477514610361578063499a0fc41461038c5780634d3ee2dc146103b7576101cd565b80632a3dbdb6116101ab5780632a3dbdb6146102755780633c80d8ea146102b25780633d09a82a146102ce5780633e16bc20146102f9576101cd565b8063050e8840146101d25780630cbcff8f1461020f5780632a0efd441461024c575b600080fd5b3480156101de57600080fd5b506101f960048036038101906101f49190612e6f565b61075d565b6040516102069190612eab565b60405180910390f35b34801561021b57600080fd5b5061023660048036038101906102319190612e6f565b610781565b6040516102439190612eab565b60405180910390f35b34801561025857600080fd5b50610273600480360381019061026e9190612e6f565b61093c565b005b34801561028157600080fd5b5061029c60048036038101906102979190612ec6565b610aed565b6040516102a99190612eab565b60405180910390f35b6102cc60048036038101906102c79190612ec6565b610c66565b005b3480156102da57600080fd5b506102e3611511565b6040516102f09190612eab565b60405180910390f35b34801561030557600080fd5b50610320600480360381019061031b9190612f19565b611517565b60405161032d9190612eab565b60405180910390f35b34801561034257600080fd5b5061034b611554565b6040516103589190612eab565b60405180910390f35b34801561036d57600080fd5b5061037661155a565b6040516103839190612f9a565b60405180910390f35b34801561039857600080fd5b506103a1611580565b6040516103ae9190612eab565b60405180910390f35b6103d160048036038101906103cc9190612e6f565b611586565b005b3480156103df57600080fd5b506103e8611871565b6040516103f59190612eab565b60405180910390f35b34801561040a57600080fd5b5061042560048036038101906104209190612e6f565b611877565b6040516104329190612eab565b60405180910390f35b34801561044757600080fd5b50610462600480360381019061045d9190612f19565b6118cf565b60405161046f91906130b1565b60405180910390f35b34801561048457600080fd5b5061048d6119b6565b60405161049a9190612eab565b60405180910390f35b3480156104af57600080fd5b506104ca60048036038101906104c59190612e6f565b6119bc565b6040516104d79190612eab565b60405180910390f35b3480156104ec57600080fd5b506104f56119ff565b6040516105029190612eab565b60405180910390f35b34801561051757600080fd5b50610532600480360381019061052d9190612e6f565b611a05565b60405161053f9190612eab565b60405180910390f35b34801561055457600080fd5b5061056f600480360381019061056a9190612e6f565b611a28565b60405161057c9190612eab565b60405180910390f35b34801561059157600080fd5b5061059a611a80565b6040516105a79190612eab565b60405180910390f35b3480156105bc57600080fd5b506105d760048036038101906105d29190612e6f565b611a8d565b6040516105ec99989796959493929190613114565b60405180910390f35b61060f600480360381019061060a9190612ec6565b611ae8565b005b34801561061d57600080fd5b506106266121d0565b6040516106339190613200565b60405180910390f35b34801561064857600080fd5b506106516121f4565b60405161065e919061323c565b60405180910390f35b34801561067357600080fd5b5061068e60048036038101906106899190612e6f565b61221a565b60405161069b9190612eab565b60405180910390f35b3480156106b057600080fd5b506106b961223a565b6040516106c69190613278565b60405180910390f35b6106e960048036038101906106e49190612e6f565b612260565b005b3480156106f757600080fd5b506107006124bb565b60405161070d9190612eab565b60405180910390f35b610730600480360381019061072b9190612e6f565b6124c1565b005b34801561073e57600080fd5b50610747612b9e565b6040516107549190612eab565b60405180910390f35b600e818154811061076d57600080fd5b906000526020600020016000915090505481565b60006004548210156107c8576040517f08c379a00000000000000000000000000000000000000000000000000000000081526004016107bf90613316565b60405180910390fd5b60006107d383611877565b9050600060038111156107e9576107e8612fe5565b5b600d600083815260200190815260200160002060010160009054906101000a900460ff16600381111561081f5761081e612fe5565b5b1461082d5780915050610937565b61083642611877565b811015610878576040517f08c379a000000000000000000000000000000000000000000000000000000000815260040161086f90613382565b60405180910390fd5b80600d6000838152602001908152602001600020600001819055506001600d600083815260200190815260200160002060010160006101000a81548160ff021916908360038111156108cd576108cc612fe5565b5b0217905550600e8190806001815401808255809150506001900390600052602060002001600090919091909150557f163614e6e9ce9df7687928015fd2c748b69c5136db886e57f09170b251b58e878160405161092a9190612eab565b60405180910390a1809150505b919050565b600061094742611877565b905043600d60008381526020019081526020016000206008018190555061098d600a5461097f60035484612ba490919063ffffffff16565b612bba90919063ffffffff16565b42101580156109b257506000600d600083815260200190815260200160002060040154145b15610a295781600d60008381526020019081526020016000206004018190555042600d6000838152602001908152602001600020600601819055507f163614e6e9ce9df7687928015fd2c748b69c5136db886e57f09170b251b58e8781604051610a1c9190612eab565b60405180910390a1610ae9565b610a3e60035482612ba490919063ffffffff16565b4211158015610a755750610a71600a54610a6360035484612ba490919063ffffffff16565b612bba90919063ffffffff16565b4210155b15610ae85781600d60008381526020019081526020016000206005018190555042600d6000838152602001908152602001600020600701819055507f163614e6e9ce9df7687928015fd2c748b69c5136db886e57f09170b251b58e8781604051610adf9190612eab565b60405180910390a15b5b5050565b600080610af984611a28565b90506000610b2c42610b1e610b1960035442612ba490919063ffffffff16565b611877565b612bba90919063ffffffff16565b90506000610b59600354610b4b84600c54612bd090919063ffffffff16565b612be690919063ffffffff16565b90506000610b66886119bc565b90506000610ba682610b98620186a0610b8a6008548c612bd090919063ffffffff16565b612be690919063ffffffff16565b612bd090919063ffffffff16565b90506000610bd4620186a0610bc66008548b612bd090919063ffffffff16565b612be690919063ffffffff16565b9050610bfd600c54610bef8684612bd090919063ffffffff16565b612be690919063ffffffff16565b9050610c128183612ba490919063ffffffff16565b91506000610c5383600d60008e815260200190815260200160002060090160008a815260200190815260200160002060020154612ba490919063ffffffff16565b9050809750505050505050509392505050565b806000610c93620186a0610c8560085485612bd090919063ffffffff16565b612be690919063ffffffff16565b9050600b54811015610cda576040517f08c379a0000000000000000000000000000000000000000000000000000000008152600401610cd1906133ee565b60405180910390fd5b6000610ce586610781565b90506000610cf38287612bfc565b9050600d6000838152602001908152602001600020600901600082815260200190815260200160002060010160009054906101000a900473ffffffffffffffffffffffffffffffffffffffff1673ffffffffffffffffffffffffffffffffffffffff163373ffffffffffffffffffffffffffffffffffffffff161415610dae576040517f08c379a0000000000000000000000000000000000000000000000000000000008152600401610da59061345a565b60405180910390fd5b6000610ddf42610dd1610dcc60035442612ba490919063ffffffff16565b611877565b612bba90919063ffffffff16565b90506000610e0c600354610dfe84600c54612bd090919063ffffffff16565b612be690919063ffffffff16565b90506000610e60600c54610e5284610e44620186a0610e366008548f612bd090919063ffffffff16565b612be690919063ffffffff16565b612bd090919063ffffffff16565b612be690919063ffffffff16565b90506000610e6d8b6119bc565b90506000610ead82610e9f620186a0610e916008548f612bd090919063ffffffff16565b612be690919063ffffffff16565b612bd090919063ffffffff16565b9050610ec28382612ba490919063ffffffff16565b9050610f0181600d60008a8152602001908152602001600020600901600089815260200190815260200160002060020154612ba490919063ffffffff16565b600160009054906101000a900473ffffffffffffffffffffffffffffffffffffffff1673ffffffffffffffffffffffffffffffffffffffff1663dd62ed3e33306040518363ffffffff1660e01b8152600401610f5e929190613489565b60206040518083038186803b158015610f7657600080fd5b505afa158015610f8a573d6000803e3d6000fd5b505050506040513d601f19601f82011682018060405250810190610fae91906134c7565b1015610fef576040517f08c379a0000000000000000000000000000000000000000000000000000000008152600401610fe690613540565b60405180910390fd5b600160009054906101000a900473ffffffffffffffffffffffffffffffffffffffff1673ffffffffffffffffffffffffffffffffffffffff166323b872dd333061106c85600d60008e815260200190815260200160002060090160008d815260200190815260200160002060020154612ba490919063ffffffff16565b6040518463ffffffff1660e01b815260040161108a93929190613560565b602060405180830381600087803b1580156110a457600080fd5b505af11580156110b8573d6000803e3d6000fd5b505050506040513d601f19601f820116820180604052508101906110dc91906135cf565b5061110681600d60008a815260200190815260200160002060030154612ba490919063ffffffff16565b600d6000898152602001908152602001600020600301819055506001600281111561113457611133612fe5565b5b600d6000898152602001908152602001600020600901600088815260200190815260200160002060030160009054906101000a900460ff16600281111561117e5761117d612fe5565b5b14156113df576000600d600089815260200190815260200160002060090160008881526020019081526020016000206002015490506000611205600c546111f7886111e9620186a06111db60085489612bd090919063ffffffff16565b612be690919063ffffffff16565b612bd090919063ffffffff16565b612be690919063ffffffff16565b9050600061124585611237620186a061122960085488612bd090919063ffffffff16565b612be690919063ffffffff16565b612bd090919063ffffffff16565b905061125a8282612ba490919063ffffffff16565b9050600061129b600d60008d815260200190815260200160002060090160008c81526020019081526020016000206002015483612ba490919063ffffffff16565b9050600160009054906101000a900473ffffffffffffffffffffffffffffffffffffffff1673ffffffffffffffffffffffffffffffffffffffff1663a9059cbb600d60008e815260200190815260200160002060090160008d815260200190815260200160002060010160009054906101000a900473ffffffffffffffffffffffffffffffffffffffff16836040518363ffffffff1660e01b81526004016113449291906135fc565b602060405180830381600087803b15801561135e57600080fd5b505af1158015611372573d6000803e3d6000fd5b505050506040513d601f19601f8201168201806040525081019061139691906135cf565b506113c082600d60008e815260200190815260200160002060030154612bba90919063ffffffff16565b600d60008d815260200190815260200160002060030181905550505050505b33600d6000898152602001908152602001600020600901600088815260200190815260200160002060010160006101000a81548173ffffffffffffffffffffffffffffffffffffffff021916908373ffffffffffffffffffffffffffffffffffffffff1602179055506001600d6000898152602001908152602001600020600901600088815260200190815260200160002060030160006101000a81548160ff0219169083600281111561149657611495612fe5565b5b021790555089600d60008981526020019081526020016000206009016000888152602001908152602001600020600201819055507fd0d6f900b5096e8e38e0b13b83d7ac826d0c461a139f26a9bfbee4b4d3d1e91987876040516114fb929190613625565b60405180910390a1505050505050505050505050565b600b5481565b6000600d6000848152602001908152602001600020600a0182815481106115415761154061364e565b5b9060005260206000200154905092915050565b60075481565b600260009054906101000a900473ffffffffffffffffffffffffffffffffffffffff1681565b60065481565b6002600381111561159a57611599612fe5565b5b600d600083815260200190815260200160002060010160009054906101000a900460ff1660038111156115d0576115cf612fe5565b5b14611610576040517f08c379a0000000000000000000000000000000000000000000000000000000008152600401611607906136c9565b60405180910390fd5b6000611631600d600084815260200190815260200160002060020154611a28565b905060028081111561164657611645612fe5565b5b600d6000848152602001908152602001600020600901600083815260200190815260200160002060030160009054906101000a900460ff1660028111156116905761168f612fe5565b5b14156116d1576040517f08c379a00000000000000000000000000000000000000000000000000000000081526004016116c890613735565b60405180910390fd5b600160009054906101000a900473ffffffffffffffffffffffffffffffffffffffff1673ffffffffffffffffffffffffffffffffffffffff1663a9059cbb600d6000858152602001908152602001600020600901600084815260200190815260200160002060010160009054906101000a900473ffffffffffffffffffffffffffffffffffffffff16600d6000868152602001908152602001600020600301546040518363ffffffff1660e01b815260040161178e9291906135fc565b602060405180830381600087803b1580156117a857600080fd5b505af11580156117bc573d6000803e3d6000fd5b505050506040513d601f19601f820116820180604052508101906117e091906135cf565b506002600d6000848152602001908152602001600020600901600083815260200190815260200160002060030160006101000a81548160ff0219169083600281111561182f5761182e612fe5565b5b02179055507fd0d6f900b5096e8e38e0b13b83d7ac826d0c461a139f26a9bfbee4b4d3d1e9198282604051611865929190613625565b60405180910390a15050565b60095481565b6000600454821161188c5760045490506118ca565b6118c76118b86003546118aa60045486612bba90919063ffffffff16565b612ced90919063ffffffff16565b83612bba90919063ffffffff16565b90505b919050565b6118d7612db3565b600d60008481526020019081526020016000206009016000838152602001908152602001600020604051806080016040529081600082015481526020016001820160009054906101000a900473ffffffffffffffffffffffffffffffffffffffff1673ffffffffffffffffffffffffffffffffffffffff1673ffffffffffffffffffffffffffffffffffffffff168152602001600282015481526020016003820160009054906101000a900460ff16600281111561199857611997612fe5565b5b60028111156119aa576119a9612fe5565b5b81525050905092915050565b60045481565b60006119f860016119ea6003546119dc4287612bba90919063ffffffff16565b612be690919063ffffffff16565b612ba490919063ffffffff16565b9050919050565b60085481565b6000600d6000838152602001908152602001600020600a01805490509050919050565b6000808211611a3b576006549050611a7b565b611a78600654611a6a600654611a5c60065487612be690919063ffffffff16565b612bd090919063ffffffff16565b612ba490919063ffffffff16565b90505b919050565b6000600e80549050905090565b600d6020528060005260406000206000915090508060000154908060010160009054906101000a900460ff16908060020154908060030154908060040154908060050154908060060154908060070154908060080154905089565b806000611b15620186a0611b0760085485612bd090919063ffffffff16565b612be690919063ffffffff16565b9050600b54811015611b5c576040517f08c379a0000000000000000000000000000000000000000000000000000000008152600401611b53906133ee565b60405180910390fd5b6000611b6786610781565b90506000611b758287612bfc565b90503373ffffffffffffffffffffffffffffffffffffffff16600d6000848152602001908152602001600020600901600083815260200190815260200160002060010160009054906101000a900473ffffffffffffffffffffffffffffffffffffffff1673ffffffffffffffffffffffffffffffffffffffff1614611c2f576040517f08c379a0000000000000000000000000000000000000000000000000000000008152600401611c26906137a1565b60405180910390fd5b6000611c3a886119bc565b90506000611c59611c4a42611877565b42612bba90919063ffffffff16565b90506000611c86600354611c7884600c54612bd090919063ffffffff16565b612be690919063ffffffff16565b90506000611cc682611cb8620186a0611caa6008548e612bd090919063ffffffff16565b612be690919063ffffffff16565b612bd090919063ffffffff16565b9050611cdd600c5482612be690919063ffffffff16565b90506000611d0b620186a0611cfd6008548d612bd090919063ffffffff16565b612be690919063ffffffff16565b9050611d208582612bd090919063ffffffff16565b9050611d358282612ba490919063ffffffff16565b90506000600d60008981526020019081526020016000206009016000888152602001908152602001600020600201549050611db6600c54611da886611d9a620186a0611d8c60085488612bd090919063ffffffff16565b612be690919063ffffffff16565b612bd090919063ffffffff16565b612be690919063ffffffff16565b92506000611de4620186a0611dd66008548f612bd090919063ffffffff16565b612be690919063ffffffff16565b9050611df98782612bd090919063ffffffff16565b9050611e0e8482612ba490919063ffffffff16565b90508083111561203757611e2b8184612bba90919063ffffffff16565b600160009054906101000a900473ffffffffffffffffffffffffffffffffffffffff1673ffffffffffffffffffffffffffffffffffffffff1663dd62ed3e33306040518363ffffffff1660e01b8152600401611e88929190613489565b60206040518083038186803b158015611ea057600080fd5b505afa158015611eb4573d6000803e3d6000fd5b505050506040513d601f19601f82011682018060405250810190611ed891906134c7565b1015611f19576040517f08c379a0000000000000000000000000000000000000000000000000000000008152600401611f1090613540565b60405180910390fd5b600160009054906101000a900473ffffffffffffffffffffffffffffffffffffffff1673ffffffffffffffffffffffffffffffffffffffff166323b872dd3330611f6c8588612bba90919063ffffffff16565b6040518463ffffffff1660e01b8152600401611f8a93929190613560565b602060405180830381600087803b158015611fa457600080fd5b505af1158015611fb8573d6000803e3d6000fd5b505050506040513d601f19601f82011682018060405250810190611fdc91906135cf565b50612018611ff38285612bba90919063ffffffff16565b600d60008c815260200190815260200160002060030154612ba490919063ffffffff16565b600d60008b815260200190815260200160002060030181905550612158565b8083101561215757600160009054906101000a900473ffffffffffffffffffffffffffffffffffffffff1673ffffffffffffffffffffffffffffffffffffffff1663a9059cbb336120918685612bba90919063ffffffff16565b6040518363ffffffff1660e01b81526004016120ae9291906135fc565b602060405180830381600087803b1580156120c857600080fd5b505af11580156120dc573d6000803e3d6000fd5b505050506040513d601f19601f8201168201806040525081019061210091906135cf565b5061213c6121178483612bba90919063ffffffff16565b600d60008c815260200190815260200160002060030154612bba90919063ffffffff16565b600d60008b8152602001908152602001600020600301819055505b5b8b600d60008b815260200190815260200160002060090160008a8152602001908152602001600020600201819055507fd0d6f900b5096e8e38e0b13b83d7ac826d0c461a139f26a9bfbee4b4d3d1e91989896040516121b8929190613625565b60405180910390a15050505050505050505050505050565b60008054906101000a900473ffffffffffffffffffffffffffffffffffffffff1681565b600560009054906101000a900473ffffffffffffffffffffffffffffffffffffffff1681565b6000600d6000838152602001908152602001600020600301549050919050565b600160009054906101000a900473ffffffffffffffffffffffffffffffffffffffff1681565b60008054906101000a900473ffffffffffffffffffffffffffffffffffffffff1673ffffffffffffffffffffffffffffffffffffffff16638da5cb5b6040518163ffffffff1660e01b815260040160206040518083038186803b1580156122c657600080fd5b505afa1580156122da573d6000803e3d6000fd5b505050506040513d601f19601f820116820180604052508101906122fe91906137ed565b73ffffffffffffffffffffffffffffffffffffffff163373ffffffffffffffffffffffffffffffffffffffff161461236b576040517f08c379a000000000000000000000000000000000000000000000000000000000815260040161236290613866565b60405180910390fd5b600160009054906101000a900473ffffffffffffffffffffffffffffffffffffffff1673ffffffffffffffffffffffffffffffffffffffff1663a9059cbb60008054906101000a900473ffffffffffffffffffffffffffffffffffffffff1673ffffffffffffffffffffffffffffffffffffffff16638da5cb5b6040518163ffffffff1660e01b815260040160206040518083038186803b15801561240f57600080fd5b505afa158015612423573d6000803e3d6000fd5b505050506040513d601f19601f8201168201806040525081019061244791906137ed565b836040518363ffffffff1660e01b81526004016124659291906135fc565b602060405180830381600087803b15801561247f57600080fd5b505af1158015612493573d6000803e3d6000fd5b505050506040513d601f19601f820116820180604052508101906124b791906135cf565b5050565b60035481565b600160038111156124d5576124d4612fe5565b5b600d600083815260200190815260200160002060010160009054906101000a900460ff16600381111561250b5761250a612fe5565b5b1461254b576040517f08c379a0000000000000000000000000000000000000000000000000000000008152600401612542906138d2565b60405180910390fd5b4261256160035483612ba490919063ffffffff16565b11156125a2576040517f08c379a00000000000000000000000000000000000000000000000000000000081526004016125999061393e565b60405180910390fd5b6000600d6000838152602001908152602001600020600401541115806125df57506000600d60008381526020019081526020016000206005015411155b15612624576003600d600083815260200190815260200160002060010160006101000a81548160ff0219169083600381111561261e5761261d612fe5565b5b02179055505b600d600082815260200190815260200160002060050154600d6000838152602001908152602001600020600401541415612698576003600d600083815260200190815260200160002060010160006101000a81548160ff0219169083600381111561269257612691612fe5565b5b02179055505b6002600d600083815260200190815260200160002060010160006101000a81548160ff021916908360038111156126d2576126d1612fe5565b5b02179055506000612718600d600084815260200190815260200160002060040154600d600085815260200190815260200160002060050154612bba90919063ffffffff16565b9050600061275b600d600085815260200190815260200160002060060154600d600086815260200190815260200160002060070154612bba90919063ffffffff16565b90506127936040518060200160405280847bffffffffffffffffffffffffffffffffffffffffffffffffffffffff1681525082612d03565b600001517bffffffffffffffffffffffffffffffffffffffffffffffffffffffff16600d6000858152602001908152602001600020600201819055506128117406d79f82328ea3da61e066ebb2f88a0000000000006070600d600087815260200190815260200160002060020154901b612be690919063ffffffff16565b612840600c546070600d600088815260200190815260200160002060020154901c612bd090919063ffffffff16565b61284a919061398d565b600d60008581526020019081526020016000206002018190555060006128a6620186a0612898600754600d600089815260200190815260200160002060030154612bd090919063ffffffff16565b612be690919063ffffffff16565b905060006128ea620186a06128dc600954600d60008a815260200190815260200160002060030154612bd090919063ffffffff16565b612be690919063ffffffff16565b90506129278161291984600d60008a815260200190815260200160002060030154612bba90919063ffffffff16565b612bba90919063ffffffff16565b600d600087815260200190815260200160002060030181905550600160009054906101000a900473ffffffffffffffffffffffffffffffffffffffff1673ffffffffffffffffffffffffffffffffffffffff1663a9059cbb600260009054906101000a900473ffffffffffffffffffffffffffffffffffffffff16846040518363ffffffff1660e01b81526004016129c0929190613a04565b602060405180830381600087803b1580156129da57600080fd5b505af11580156129ee573d6000803e3d6000fd5b505050506040513d601f19601f82011682018060405250810190612a1291906135cf565b50600160009054906101000a900473ffffffffffffffffffffffffffffffffffffffff1673ffffffffffffffffffffffffffffffffffffffff1663a9059cbb60008054906101000a900473ffffffffffffffffffffffffffffffffffffffff1673ffffffffffffffffffffffffffffffffffffffff16638da5cb5b6040518163ffffffff1660e01b815260040160206040518083038186803b158015612ab757600080fd5b505afa158015612acb573d6000803e3d6000fd5b505050506040513d601f19601f82011682018060405250810190612aef91906137ed565b836040518363ffffffff1660e01b8152600401612b0d9291906135fc565b602060405180830381600087803b158015612b2757600080fd5b505af1158015612b3b573d6000803e3d6000fd5b505050506040513d601f19601f82011682018060405250810190612b5f91906135cf565b507f163614e6e9ce9df7687928015fd2c748b69c5136db886e57f09170b251b58e8785604051612b8f9190612eab565b60405180910390a15050505050565b600a5481565b60008183612bb2919061398d565b905092915050565b60008183612bc89190613a2d565b905092915050565b60008183612bde9190613a61565b905092915050565b60008183612bf49190613aea565b905092915050565b600080612c0883611a28565b905060006002811115612c1e57612c1d612fe5565b5b600d6000868152602001908152602001600020600901600083815260200190815260200160002060030160009054906101000a900460ff166002811115612c6857612c67612fe5565b5b14612c765780915050612ce7565b80600d6000868152602001908152602001600020600901600083815260200190815260200160002060000181905550600d6000858152602001908152602001600020600a01819080600181540180825580915050600190039060005260206000200160009091909190915055809150505b92915050565b60008183612cfb9190613b1b565b905092915050565b612d0b612e03565b6000826dffffffffffffffffffffffffffff161415612d5f576040517f08c379a0000000000000000000000000000000000000000000000000000000008152600401612d5690613b98565b60405180910390fd5b6040518060200160405280836dffffffffffffffffffffffffffff168560000151612d8a9190613be0565b7bffffffffffffffffffffffffffffffffffffffffffffffffffffffff16815250905092915050565b604051806080016040528060008152602001600073ffffffffffffffffffffffffffffffffffffffff1681526020016000815260200160006002811115612dfd57612dfc612fe5565b5b81525090565b604051806020016040528060007bffffffffffffffffffffffffffffffffffffffffffffffffffffffff1681525090565b600080fd5b6000819050919050565b612e4c81612e39565b8114612e5757600080fd5b50565b600081359050612e6981612e43565b92915050565b600060208284031215612e8557612e84612e34565b5b6000612e9384828501612e5a565b91505092915050565b612ea581612e39565b82525050565b6000602082019050612ec06000830184612e9c565b92915050565b600080600060608486031215612edf57612ede612e34565b5b6000612eed86828701612e5a565b9350506020612efe86828701612e5a565b9250506040612f0f86828701612e5a565b9150509250925092565b60008060408385031215612f3057612f2f612e34565b5b6000612f3e85828601612e5a565b9250506020612f4f85828601612e5a565b9150509250929050565b600073ffffffffffffffffffffffffffffffffffffffff82169050919050565b6000612f8482612f59565b9050919050565b612f9481612f79565b82525050565b6000602082019050612faf6000830184612f8b565b92915050565b612fbe81612e39565b82525050565b6000612fcf82612f59565b9050919050565b612fdf81612fc4565b82525050565b7f4e487b7100000000000000000000000000000000000000000000000000000000600052602160045260246000fd5b6003811061302557613024612fe5565b5b50565b600081905061303682613014565b919050565b600061304682613028565b9050919050565b6130568161303b565b82525050565b6080820160008201516130726000850182612fb5565b5060208201516130856020850182612fd6565b5060408201516130986040850182612fb5565b5060608201516130ab606085018261304d565b50505050565b60006080820190506130c6600083018461305c565b92915050565b600481106130dd576130dc612fe5565b5b50565b60008190506130ee826130cc565b919050565b60006130fe826130e0565b9050919050565b61310e816130f3565b82525050565b60006101208201905061312a600083018c612e9c565b613137602083018b613105565b613144604083018a612e9c565b6131516060830189612e9c565b61315e6080830188612e9c565b61316b60a0830187612e9c565b61317860c0830186612e9c565b61318560e0830185612e9c565b613193610100830184612e9c565b9a9950505050505050505050565b6000819050919050565b60006131c66131c16131bc84612f59565b6131a1565b612f59565b9050919050565b60006131d8826131ab565b9050919050565b60006131ea826131cd565b9050919050565b6131fa816131df565b82525050565b600060208201905061321560008301846131f1565b92915050565b6000613226826131cd565b9050919050565b6132368161321b565b82525050565b6000602082019050613251600083018461322d565b92915050565b6000613262826131cd565b9050919050565b61327281613257565b82525050565b600060208201905061328d6000830184613269565b92915050565b600082825260208201905092915050565b7f54494d455354414d50204245464f524520494e495449414c2054494d4553544160008201527f4d50204f46204d41524b45540000000000000000000000000000000000000000602082015250565b6000613300602c83613293565b915061330b826132a4565b604082019050919050565b6000602082019050818103600083015261332f816132f3565b9050919050565b7f43414e275420435245415445204652414d4520494e2050415354000000000000600082015250565b600061336c601a83613293565b915061337782613336565b602082019050919050565b6000602082019050818103600083015261339b8161335f565b9050919050565b7f505249434520495320544f4f204c4f5700000000000000000000000000000000600082015250565b60006133d8601083613293565b91506133e3826133a2565b602082019050919050565b60006020820190508181036000830152613407816133cb565b9050919050565b7f4144445245535320414c5245414459204f574e53205448452050415243454c00600082015250565b6000613444601f83613293565b915061344f8261340e565b602082019050919050565b6000602082019050818103600083015261347381613437565b9050919050565b61348381612fc4565b82525050565b600060408201905061349e600083018561347a565b6134ab602083018461347a565b9392505050565b6000815190506134c181612e43565b92915050565b6000602082840312156134dd576134dc612e34565b5b60006134eb848285016134b2565b91505092915050565b7f415050524f56454420414d4f554e5420495320544f4f20534d414c4c00000000600082015250565b600061352a601c83613293565b9150613535826134f4565b602082019050919050565b600060208201905081810360008301526135598161351d565b9050919050565b6000606082019050613575600083018661347a565b613582602083018561347a565b61358f6040830184612e9c565b949350505050565b60008115159050919050565b6135ac81613597565b81146135b757600080fd5b50565b6000815190506135c9816135a3565b92915050565b6000602082840312156135e5576135e4612e34565b5b60006135f3848285016135ba565b91505092915050565b6000604082019050613611600083018561347a565b61361e6020830184612e9c565b9392505050565b600060408201905061363a6000830185612e9c565b6136476020830184612e9c565b9392505050565b7f4e487b7100000000000000000000000000000000000000000000000000000000600052603260045260246000fd5b7f4652414d45204e4f5420434c4f53454400000000000000000000000000000000600082015250565b60006136b3601083613293565b91506136be8261367d565b602082019050919050565b600060208201905081810360008301526136e2816136a6565b9050919050565b7f4c4f5420414c524541445920534554544c454400000000000000000000000000600082015250565b600061371f601383613293565b915061372a826136e9565b602082019050919050565b6000602082019050818103600083015261374e81613712565b9050919050565b7f544849532041444452455353204953204e4f5420544845204f574e4552000000600082015250565b600061378b601d83613293565b915061379682613755565b602082019050919050565b600060208201905081810360008301526137ba8161377e565b9050919050565b6137ca81612fc4565b81146137d557600080fd5b50565b6000815190506137e7816137c1565b92915050565b60006020828403121561380357613802612e34565b5b6000613811848285016137d8565b91505092915050565b7f594f5520415245204e4f542054484520464143544f5259204f574e4552000000600082015250565b6000613850601d83613293565b915061385b8261381a565b602082019050919050565b6000602082019050818103600083015261387f81613843565b9050919050565b7f4652414d45204e4f54204f50454e454400000000000000000000000000000000600082015250565b60006138bc601083613293565b91506138c782613886565b602082019050919050565b600060208201905081810360008301526138eb816138af565b9050919050565b7f4652414d4520454e442054494d45204e4f542052454143484544000000000000600082015250565b6000613928601a83613293565b9150613933826138f2565b602082019050919050565b600060208201905081810360008301526139578161391b565b9050919050565b7f4e487b7100000000000000000000000000000000000000000000000000000000600052601160045260246000fd5b600061399882612e39565b91506139a383612e39565b9250827fffffffffffffffffffffffffffffffffffffffffffffffffffffffffffffffff038211156139d8576139d761395e565b5b828201905092915050565b60006139ee826131cd565b9050919050565b6139fe816139e3565b82525050565b6000604082019050613a1960008301856139f5565b613a266020830184612e9c565b9392505050565b6000613a3882612e39565b9150613a4383612e39565b925082821015613a5657613a5561395e565b5b828203905092915050565b6000613a6c82612e39565b9150613a7783612e39565b9250817fffffffffffffffffffffffffffffffffffffffffffffffffffffffffffffffff0483118215151615613ab057613aaf61395e565b5b828202905092915050565b7f4e487b7100000000000000000000000000000000000000000000000000000000600052601260045260246000fd5b6000613af582612e39565b9150613b0083612e39565b925082613b1057613b0f613abb565b5b828204905092915050565b6000613b2682612e39565b9150613b3183612e39565b925082613b4157613b40613abb565b5b828206905092915050565b7f4669786564506f696e743a204449565f42595f5a45524f000000000000000000600082015250565b6000613b82601783613293565b9150613b8d82613b4c565b602082019050919050565b60006020820190508181036000830152613bb181613b75565b9050919050565b60007bffffffffffffffffffffffffffffffffffffffffffffffffffffffff82169050919050565b6000613beb82613bb8565b9150613bf683613bb8565b925082613c0657613c05613abb565b5b82820490509291505056fea2646970667358221220a37b2631bb865fc1a60c3bfc170051af7e95264816038ba328c9468ece9a330a64736f6c63430008080033",
  "immutableReferences": {},
  "source": "// SPDX-License-Identifier: MIT\r\npragma solidity ^0.8.0;\r\n//pragma experimental ABIEncoderV2;\r\n\r\nimport \"./MarketFactory.sol\";\r\nimport \"@uniswap/v2-core/contracts/interfaces/IUniswapV2Pair.sol\";\r\nimport \"@uniswap/v2-periphery/contracts/libraries/UniswapV2OracleLibrary.sol\";\r\nimport \"@uniswap/lib/contracts/libraries/FixedPoint.sol\";\r\nimport \"@openzeppelin/contracts/token/ERC20/IERC20.sol\";\r\nimport \"@openzeppelin/contracts/utils/math/SafeMath.sol\";\r\n\r\n/// @title TWPM Market\r\n/// @author UniHedge\r\n/// @dev All function calls are currently implemented without side effects\r\ncontract Market {\r\n    //Safe math is reduntatn in version 0.8 and higher\r\n    //TODO: remove safemath and run tests that everything is ok\r\n    using SafeMath for uint;\r\n    //Contract for creating markets\r\n    MarketFactory public factory;\r\n    //ERC20 token used for buyng lots in this contract \r\n    IERC20 public accountingToken;\r\n    //Owner of this market\r\n    address payable public ownerMarket;\r\n    //Length of a frame\r\n    uint public period;\r\n    //Contract creation time\r\n    uint public initTimestamp; \r\n    //Token pair on Uniswap\r\n    IUniswapV2Pair public uniswapPair;\r\n    //Range of a lot\r\n    uint public dPrice;\r\n    //Fee that gets to market owner\r\n    uint public feeMarket;\r\n    //Tax on lots\r\n    uint public taxMarket;\r\n    //Protocol fee\r\n    uint public feeProtocol = 100;\r\n    //Reporting time for pair price\r\n    uint public tReporting;\r\n    //Minimal lot tax per frame\r\n    uint public minTax;\r\n    //Scalar number used for calculating precentages\r\n    uint scalar = 1e24;\r\n\r\n    enum SFrame {NULL, OPENED, CLOSED, INVALID}\r\n    struct Frame {\r\n        uint frameKey;\r\n        SFrame state;\r\n        uint priceAverage;\r\n        uint rewardFund;\r\n        uint oraclePrice0CumulativeStart;\r\n        uint oraclePrice0CumulativeEnd;\r\n        uint oracleTimestampStart;\r\n        uint oracleTimestampEnd;\r\n        uint lastBlockNum;\r\n        mapping(uint => Lot) lots;\r\n        uint[] lotKeys;\r\n    }\r\n\r\n    event FrameUpdate(uint frameKey);\r\n\r\n    mapping(uint => Frame) public frames;\r\n    uint[] public framesKeys;\r\n\r\n    enum SLot {NULL, BOUGHT, SETTLED}\r\n    struct Lot {\r\n        uint lotKey;\r\n        address lotOwner;\r\n        uint acquisitionPrice;\r\n        SLot state;\r\n    }\r\n\r\n    event LotUpdate(uint frameKey, uint lotKey);\r\n\r\n    constructor(MarketFactory _factory, IERC20 _token, IUniswapV2Pair _uniswapPair, uint _period, uint _initTimestamp, uint _taxMarket, uint _feeMarket, uint _dPrice, uint _tReporting, uint _minTax) {\r\n        accountingToken = _token;\r\n        ownerMarket = payable(msg.sender);\r\n        period = _period;\r\n        initTimestamp = _initTimestamp; \r\n        taxMarket = _taxMarket;\r\n        feeMarket = _feeMarket;\r\n        uniswapPair = _uniswapPair;\r\n        dPrice = _dPrice;\r\n        factory = _factory;\r\n        tReporting = _tReporting;\r\n        minTax = _minTax;\r\n    }\r\n\r\n    modifier minTaxCheck(uint acqPrice) {\r\n        uint tax = acqPrice.mul(taxMarket).div(100000);\r\n        require(tax >= minTax, \"PRICE IS TOO LOW\");\r\n        _;\r\n    }\r\n\r\n    modifier isFactoryOwner() {\r\n        require(msg.sender == factory.owner(), \"YOU ARE NOT THE FACTORY OWNER\");\r\n        _;\r\n    }\r\n\r\n\r\n    /// @notice Calculate frames timestamp (beggining of frame)\r\n    /// @param timestamp In seconds\r\n    /// @return frame's timestamp (key)\r\n    function clcFrameTimestamp(uint timestamp) public view returns (uint){\r\n        if (timestamp <= initTimestamp) return initTimestamp;\r\n        return timestamp.sub((timestamp.sub(initTimestamp)).mod(period));\r\n    }\r\n\r\n    /// @notice Calculate top boundary of a lot\r\n    /// @param value Arbitary price of market's Uniswap pair\r\n    /// @return lot key (top boundary)\r\n    function clcLotInterval(uint value) public view returns (uint){\r\n        if (value <= 0) return dPrice;\r\n        return value.div(dPrice).mul(dPrice).add(dPrice);\r\n    }\r\n\r\n    /// @notice Calculate how many frames there are left untill given frame in input\r\n    /// @param frameKey Timestamp of an arbitary frame in the future\r\n    /// @return number of frames (whole numbers: n=0,1,2...)\r\n    function clcFramesLeft(uint frameKey) public view returns (uint){                      \r\n        return (frameKey.sub(block.timestamp)).div(period).add(1);\r\n    }\r\n\r\n    /// @notice Get lot struct\r\n    /// @param frameKey Frame's timestamp\r\n    /// @param lotKey lot's key \r\n    /// @return lot struct\r\n    function getLot(uint frameKey, uint lotKey) public view returns (Lot memory){                 \r\n        return frames[frameKey].lots[lotKey];\r\n    }\r\n\r\n    /// @notice Get no. of created lots in a frame \r\n    /// @param frameKey Frame's timestamp\r\n    /// @return lot count\r\n    function getLotsCount(uint frameKey) public view returns (uint){                 \r\n        return frames[frameKey].lotKeys.length;\r\n    }\r\n\r\n    /// @notice Get lotKey from index in lotKeys array\r\n    /// @param frameKey Frame's timestamp\r\n    /// @param index frameKeys array index \r\n    /// @return lotKey\r\n    function getLotKey(uint frameKey, uint index) public view returns (uint){                 \r\n        return frames[frameKey].lotKeys[index];\r\n    }\r\n\r\n    /// @notice Get frame's award amount (accumulation of different lot taxes)\r\n    /// @notice Remaining tax of a lot owner get's returned after a sale (change of ownership). So the award amount isn't for sure untill the frame get's closed.\r\n    /// @param frameKey Frame's timestamp\r\n    /// @return award amount\r\n    function getRewardAmount(uint frameKey) public view returns (uint) {                         \r\n        return frames[frameKey].rewardFund; \r\n    }\r\n\r\n    /// @notice Get number of frames\r\n    /// @return number frames\r\n    function getNumberOfFrameKeys() public view returns (uint){\r\n        return framesKeys.length;\r\n    }\r\n\r\n    /// @notice Create a frame\r\n    /// @param timestamp In second.\r\n    /// @return frameTimestamp Frame's key (timestamp that indicated the beggining of a frame).\r\n    function getOrCreateFrame(uint timestamp) public returns (uint){\r\n        require(timestamp >= initTimestamp, \"TIMESTAMP BEFORE INITIAL TIMESTAMP OF MARKET\");\r\n        //Get start timestamp of a frame\r\n        uint frameTimestamp = clcFrameTimestamp(timestamp);\r\n        //Check if frame exists\r\n        if (frames[frameTimestamp].state != SFrame.NULL) return frameTimestamp;\r\n        //Check if frame startLot number is before current Lot number\r\n        require(frameTimestamp >= clcFrameTimestamp(block.timestamp), \"CAN'T CREATE FRAME IN PAST\");\r\n        //Add frame\r\n        frames[frameTimestamp].frameKey = frameTimestamp;\r\n        frames[frameTimestamp].state = SFrame.OPENED; //check if other parameters are at zero\r\n        framesKeys.push(frameTimestamp);\r\n        emit FrameUpdate(frameTimestamp);\r\n        return frameTimestamp;\r\n    }\r\n\r\n    /// @notice Create a lot\r\n    /// @param frameKey Frame's timestamp\r\n    /// @param pairPrice Price is the trading pair's price\r\n    /// @return lotKey\r\n    function getOrCreateLot(uint frameKey, uint pairPrice) internal returns(uint){\r\n        uint lotKey = clcLotInterval(pairPrice);\r\n        if (frames[frameKey].lots[lotKey].state != SLot.NULL) return lotKey;\r\n        frames[frameKey].lots[lotKey].lotKey = lotKey;\r\n        frames[frameKey].lotKeys.push(lotKey);\r\n        return lotKey;\r\n    }\r\n\r\n    //TODO: Run extensive tests on tax calculations\r\n    /// @notice Calculate amout required to approve to buy a lot\r\n    /// @param frameKey Frame's timestamp\r\n    /// @param pairPrice Value is trading pair's price (to get correct lot key) \r\n    /// @param acquisitionPrice New sell price is required to calculate tax\r\n    /// @return amount to approve\r\n    function AmountToApprove(uint frameKey, uint pairPrice, uint acquisitionPrice) public view returns (uint) {             \r\n        uint lotKey = clcLotInterval(pairPrice);\r\n        uint dFrame = (clcFrameTimestamp(block.timestamp.add(period))).sub(block.timestamp); \r\n        uint dFrameP = scalar.mul(dFrame).div(period);\r\n        //Calculate tax from the proposed acquisition price \r\n        uint numOfFramesLeft = clcFramesLeft(frameKey);\r\n        uint tax = acquisitionPrice.mul(taxMarket).div(100000).mul(numOfFramesLeft);\r\n        uint dtax = acquisitionPrice.mul(taxMarket).div(100000);\r\n        dtax = dtax.mul(dFrameP).div(scalar);\r\n        tax = tax.add(dtax);\r\n        uint amount = frames[frameKey].lots[lotKey].acquisitionPrice.add(tax);\r\n        return amount;\r\n    }\r\n\r\n    /// @notice Calculate amout required to approve to buy a lot\r\n    /// @param timestamp Frame's timestamp get's calculated from this value\r\n    /// @param pairPrice Is trading pair's price (to get correct lot key) \r\n    /// @param acquisitionPrice New sell price is required to calculate tax\r\n    function buyLot(uint timestamp, uint pairPrice, uint acquisitionPrice) public payable minTaxCheck(acquisitionPrice) {\r\n        //Get specified frameKey and lotKey\r\n        uint frameKey =  getOrCreateFrame(timestamp);                          \r\n        uint lotKey = getOrCreateLot(frameKey, pairPrice);\r\n        //Msg.sender shouldn't own the parcel\r\n        require(msg.sender != frames[frameKey].lots[lotKey].lotOwner, \"ADDRESS ALREADY OWNS THE PARCEL\");\r\n\r\n        //------------------------------------->Calculate tax<---------------------------------------------------------\r\n\r\n        uint dFrame = (clcFrameTimestamp(block.timestamp.add(period))).sub(block.timestamp); \r\n        uint dFrameP = scalar.mul(dFrame).div(period);\r\n        uint dtax = acquisitionPrice.mul(taxMarket).div(100000).mul(dFrameP).div(scalar);\r\n        uint numOfFramesLeft = clcFramesLeft(timestamp);\r\n        uint tax = acquisitionPrice.mul(taxMarket).div(100000).mul(numOfFramesLeft);\r\n        tax = tax.add(dtax);\r\n        \r\n        //--------------------------------------------------------------------------------------------------------------\r\n        //Approved amount has to be at leat equal to price of the Lot(with tax)\r\n        require(accountingToken.allowance(msg.sender, address(this)) >= frames[frameKey].lots[lotKey].acquisitionPrice.add(tax), \"APPROVED AMOUNT IS TOO SMALL\");\r\n        //Transfer tax amount to the market contract\r\n        accountingToken.transferFrom(msg.sender, address(this), frames[frameKey].lots[lotKey].acquisitionPrice.add(tax));\r\n        frames[frameKey].rewardFund = frames[frameKey].rewardFund.add(tax);\r\n\r\n        //Pay the Lot price to current owner + return tax\r\n        if (frames[frameKey].lots[lotKey].state == SLot.BOUGHT) {\r\n            //----------------------------->Calculate leftover tax to return to the previous owner<-------------------------\r\n            //acquisitionPrice/marketTax * number_of_frames_left:\r\n            uint aPrice = frames[frameKey].lots[lotKey].acquisitionPrice;\r\n            uint dFrameTax = aPrice.mul(taxMarket).div(100000).mul(dFrameP).div(scalar);\r\n            uint taxToReturn = aPrice.mul(taxMarket).div(100000).mul(numOfFramesLeft);\r\n            taxToReturn = taxToReturn.add(dFrameTax);\r\n            //--------------------------------------------------------------------------------------------------------------\r\n            //add acquisition price value to left over tax\r\n            uint amount = (taxToReturn.add(frames[frameKey].lots[lotKey].acquisitionPrice));\r\n            //transfer funds\r\n            accountingToken.transfer(frames[frameKey].lots[lotKey].lotOwner, amount);\r\n            //change reward value\r\n            frames[frameKey].rewardFund = frames[frameKey].rewardFund.sub(taxToReturn);\r\n        }\r\n       \r\n       //Update lotKey values\r\n        frames[frameKey].lots[lotKey].lotOwner = (payable(msg.sender));\r\n        frames[frameKey].lots[lotKey].state = SLot.BOUGHT;\r\n        frames[frameKey].lots[lotKey].acquisitionPrice = acquisitionPrice;\r\n\r\n        emit LotUpdate(frameKey, lotKey);\r\n    }\r\n\r\n    /// @notice Owner can update lot's price. Has to pay additional tax, or leftover tax gets' returned to him if the new price is lower\r\n    /// @param timestamp Frame's timestamp get's calculated from this value\r\n    /// @param pairPrice Is trading pair's price (to get correct lot key) \r\n    /// @param acquisitionPrice New acquisition price\r\n    function updateLotPrice(uint timestamp, uint pairPrice, uint acquisitionPrice) public payable minTaxCheck(acquisitionPrice) {\r\n        uint frameKey =  getOrCreateFrame(timestamp); \r\n        uint lotKey = getOrCreateLot(frameKey, pairPrice); \r\n        \r\n        require(frames[frameKey].lots[lotKey].lotOwner == msg.sender, \"THIS ADDRESS IS NOT THE OWNER\");\r\n                      \r\n        uint numOfFramesLeft = clcFramesLeft(timestamp);\r\n\r\n        uint dFrame = block.timestamp.sub(clcFrameTimestamp(block.timestamp));\r\n        uint dFrameP = scalar.mul(dFrame).div(period);\r\n        uint dtax = acquisitionPrice.mul(taxMarket).div(100000).mul(dFrameP);\r\n        dtax = dtax.div(scalar);\r\n\r\n        uint taxNew = acquisitionPrice.mul(taxMarket).div(100000);\r\n        taxNew = taxNew.mul(numOfFramesLeft);\r\n        taxNew = taxNew.add(dtax);\r\n\r\n        uint oldPrice = frames[frameKey].lots[lotKey].acquisitionPrice;\r\n        dtax = oldPrice.mul(taxMarket).div(100000).mul(dFrameP).div(scalar);\r\n        uint taxOld = acquisitionPrice.mul(taxMarket).div(100000);\r\n        taxOld = taxOld.mul(numOfFramesLeft);\r\n        taxOld = taxOld.add(dtax);\r\n\r\n        if (taxNew > taxOld) {\r\n            require(accountingToken.allowance(msg.sender, address(this)) >= (taxNew.sub(taxOld)), \"APPROVED AMOUNT IS TOO SMALL\");\r\n            //Transfer complete tax amount to the frame rewardFund\r\n            accountingToken.transferFrom(msg.sender, address(this), (taxNew.sub(taxOld)));\r\n            frames[frameKey].rewardFund = frames[frameKey].rewardFund.add(taxNew.sub(taxOld));\r\n        }\r\n        else if (taxNew < taxOld) {\r\n            accountingToken.transfer(msg.sender, taxOld.sub(taxNew));\r\n            frames[frameKey].rewardFund = frames[frameKey].rewardFund.sub(taxOld.sub(taxNew));\r\n        }\r\n        frames[frameKey].lots[lotKey].acquisitionPrice = acquisitionPrice;\r\n\r\n        emit LotUpdate(frameKey, lotKey);\r\n    }\r\n\r\n    // // /// @notice Update trading pair's prices in the frame\r\n    // function updateFramePrices() public {\r\n    //     uint tmp;\r\n    //     uint frameKey = clcFrameTimestamp(block.timestamp);\r\n    //     frames[frameKey].lastBlockNum = block.number;\r\n    //     //Correct price if outside settle interval\r\n    //     if (block.timestamp >= ((frameKey.add(period)).sub(tReporting)) && frames[frameKey].oraclePrice0CumulativeStart == 0) {\r\n    //         (frames[frameKey].oraclePrice0CumulativeStart, tmp, frames[frameKey].oracleTimestampStart) = UniswapV2OracleLibrary.currentCumulativePrices(address(uniswapPair));\r\n    //         emit FrameUpdate(frameKey);\r\n    //     }\r\n    //     else if (block.timestamp <= frameKey.add(period) && block.timestamp >= ((frameKey.add(period)).sub(tReporting))) {\r\n    //         (frames[frameKey].oraclePrice0CumulativeEnd, tmp, frames[frameKey].oracleTimestampEnd) = UniswapV2OracleLibrary.currentCumulativePrices(address(uniswapPair));\r\n    //         emit FrameUpdate(frameKey);\r\n    //     }\r\n    // }\r\n\r\n    /// @notice Update trading pair's prices in the frame\r\n    /// @param PriceCumulative Cumulative price\r\n    /// @dev For developement purposes the new price is added as an input\r\n    /// @dev Final version should use uniswap's oracles\r\n    function updateFramePrices(uint PriceCumulative) public {\r\n        uint frameKey = clcFrameTimestamp(block.timestamp);\r\n        frames[frameKey].lastBlockNum = block.number;\r\n        //Correct price if outside settle interval\r\n        if (block.timestamp >= ((frameKey.add(period)).sub(tReporting)) && frames[frameKey].oraclePrice0CumulativeStart == 0) {\r\n            frames[frameKey].oraclePrice0CumulativeStart = PriceCumulative;\r\n            frames[frameKey].oracleTimestampStart = block.timestamp;\r\n            emit FrameUpdate(frameKey);\r\n        }\r\n        else if (block.timestamp <= frameKey.add(period) && block.timestamp >= ((frameKey.add(period)).sub(tReporting))) {\r\n            frames[frameKey].oraclePrice0CumulativeEnd = PriceCumulative;\r\n            frames[frameKey].oracleTimestampEnd = block.timestamp;\r\n            emit FrameUpdate(frameKey);\r\n        }\r\n    }\r\n\r\n    /// @notice Close frame\r\n    /// @param frameKey Frame's timestamp\r\n    function closeFrame(uint frameKey) public payable {\r\n        //Check if frame is opened\r\n        require(frames[frameKey].state == SFrame.OPENED, \"FRAME NOT OPENED\");\r\n        //Check if frame end has been reached\r\n        require(frameKey.add(period) <= block.timestamp, \"FRAME END TIME NOT REACHED\");\r\n        //Check if frame has valid prices\r\n        if (frames[frameKey].oraclePrice0CumulativeStart <= 0 || frames[frameKey].oraclePrice0CumulativeEnd <= 0) {\r\n            frames[frameKey].state = SFrame.INVALID;\r\n        }\r\n        if (frames[frameKey].oraclePrice0CumulativeStart == frames[frameKey].oraclePrice0CumulativeEnd) {\r\n            frames[frameKey].state = SFrame.INVALID;\r\n        }\r\n        frames[frameKey].state = SFrame.CLOSED;\r\n\r\n        //UQ112x112 encoded\r\n        uint priceDiff = frames[frameKey].oraclePrice0CumulativeEnd.sub(frames[frameKey].oraclePrice0CumulativeStart);\r\n        uint timeDiff = frames[frameKey].oracleTimestampEnd.sub(frames[frameKey].oracleTimestampStart);\r\n        //Calculate time-weighted average price -- UQ112x112 encoded\r\n        frames[frameKey].priceAverage = uint(((FixedPoint.div(FixedPoint.uq112x112(uint224(priceDiff)), (uint112(timeDiff)))))._x);\r\n\r\n        //Decode to scalar value\r\n        frames[frameKey].priceAverage = (frames[frameKey].priceAverage >> 112).mul(scalar) + (frames[frameKey].priceAverage << 112).div(1e49); \r\n        //frames[frameKey].priceAverage = (frames[frameKey].priceAverage << 112).div(1e49);\r\n\r\n        //Subtract fees from the reward amount \r\n        uint marketOwnerFees = frames[frameKey].rewardFund.mul(feeMarket).div(100000);\r\n        uint protocolOwnerFees = frames[frameKey].rewardFund.mul(feeProtocol).div(100000);\r\n        frames[frameKey].rewardFund = frames[frameKey].rewardFund.sub(marketOwnerFees).sub(protocolOwnerFees);\r\n\r\n        //Transfer fees to owners\r\n        accountingToken.transfer(ownerMarket, marketOwnerFees);\r\n        accountingToken.transfer(factory.owner(), protocolOwnerFees);\r\n\r\n        emit FrameUpdate(frameKey);\r\n    }\r\n\r\n    /// @notice Settle lot for a owner. Owner's share of the reward amount get's transfered to owner's account\r\n    /// @param frameKey Frame's timestamp\r\n    function settleLot(uint frameKey) public payable {  \r\n        //Check if frame is closed\r\n        require(frames[frameKey].state == SFrame.CLOSED, \"FRAME NOT CLOSED\");    \r\n        //Calcualte the winning lot key\r\n        uint lotKeyWin = (clcLotInterval(frames[frameKey].priceAverage));\r\n        //Check if the lot is already settled\r\n        require(frames[frameKey].lots[lotKeyWin].state != SLot.SETTLED, \"LOT ALREADY SETTLED\");\r\n        //Transfer winnings to last owner \r\n        accountingToken.transfer(frames[frameKey].lots[lotKeyWin].lotOwner, frames[frameKey].rewardFund);\r\n        //State is changed to settled\r\n        frames[frameKey].lots[lotKeyWin].state = SLot.SETTLED;\r\n\r\n        emit LotUpdate(frameKey, lotKeyWin);\r\n    }\r\n\r\n    /// @notice Withdraw any amount out of the contract. Only to be used in extreme cases!\r\n    /// @param amount Amount you want to withdraw\r\n    function emptyFuds(uint amount) public payable isFactoryOwner {  \r\n        accountingToken.transfer(factory.owner(), amount);\r\n    }\r\n\r\n\r\n}",
  "sourcePath": "D:\\prog\\UniHedge\\core\\contracts\\Market.sol",
  "compiler": {
    "name": "solc",
    "version": "0.8.8+commit.dddeac2f.Emscripten.clang"
  },
  "schemaVersion": "3.4.3",
  "updatedAt": "2021-09-28T09:35:18.242Z",
  "devdoc": {
    "author": "UniHedge",
    "details": "All function calls are currently implemented without side effects",
    "kind": "dev",
    "methods": {
      "AmountToApprove(uint256,uint256,uint256)": {
        "params": {
          "acquisitionPrice": "New sell price is required to calculate tax",
          "frameKey": "Frame's timestamp",
          "pairPrice": "Value is trading pair's price (to get correct lot key) "
        },
        "returns": {
          "_0": "amount to approve"
        }
      },
      "buyLot(uint256,uint256,uint256)": {
        "params": {
          "acquisitionPrice": "New sell price is required to calculate tax",
          "pairPrice": "Is trading pair's price (to get correct lot key) ",
          "timestamp": "Frame's timestamp get's calculated from this value"
        }
      },
      "clcFrameTimestamp(uint256)": {
        "params": {
          "timestamp": "In seconds"
        },
        "returns": {
          "_0": "frame's timestamp (key)"
        }
      },
      "clcFramesLeft(uint256)": {
        "params": {
          "frameKey": "Timestamp of an arbitary frame in the future"
        },
        "returns": {
          "_0": "number of frames (whole numbers: n=0,1,2...)"
        }
      },
      "clcLotInterval(uint256)": {
        "params": {
          "value": "Arbitary price of market's Uniswap pair"
        },
        "returns": {
          "_0": "lot key (top boundary)"
        }
      },
      "closeFrame(uint256)": {
        "params": {
          "frameKey": "Frame's timestamp"
        }
      },
      "emptyFuds(uint256)": {
        "params": {
          "amount": "Amount you want to withdraw"
        }
      },
      "getLot(uint256,uint256)": {
        "params": {
          "frameKey": "Frame's timestamp",
          "lotKey": "lot's key "
        },
        "returns": {
          "_0": "lot struct"
        }
      },
      "getLotKey(uint256,uint256)": {
        "params": {
          "frameKey": "Frame's timestamp",
          "index": "frameKeys array index "
        },
        "returns": {
          "_0": "lotKey"
        }
      },
      "getLotsCount(uint256)": {
        "params": {
          "frameKey": "Frame's timestamp"
        },
        "returns": {
          "_0": "lot count"
        }
      },
      "getNumberOfFrameKeys()": {
        "returns": {
          "_0": "number frames"
        }
      },
      "getOrCreateFrame(uint256)": {
        "params": {
          "timestamp": "In second."
        },
        "returns": {
          "_0": "frameTimestamp Frame's key (timestamp that indicated the beggining of a frame)."
        }
      },
      "getRewardAmount(uint256)": {
        "params": {
          "frameKey": "Frame's timestamp"
        },
        "returns": {
          "_0": "award amount"
        }
      },
      "settleLot(uint256)": {
        "params": {
          "frameKey": "Frame's timestamp"
        }
      },
      "updateFramePrices(uint256)": {
        "details": "For developement purposes the new price is added as an inputFinal version should use uniswap's oracles",
        "params": {
          "PriceCumulative": "Cumulative price"
        }
      },
      "updateLotPrice(uint256,uint256,uint256)": {
        "params": {
          "acquisitionPrice": "New acquisition price",
          "pairPrice": "Is trading pair's price (to get correct lot key) ",
          "timestamp": "Frame's timestamp get's calculated from this value"
        }
      }
    },
    "title": "TWPM Market",
    "version": 1
  },
  "userdoc": {
    "kind": "user",
    "methods": {
      "AmountToApprove(uint256,uint256,uint256)": {
        "notice": "Calculate amout required to approve to buy a lot"
      },
      "buyLot(uint256,uint256,uint256)": {
        "notice": "Calculate amout required to approve to buy a lot"
      },
      "clcFrameTimestamp(uint256)": {
        "notice": "Calculate frames timestamp (beggining of frame)"
      },
      "clcFramesLeft(uint256)": {
        "notice": "Calculate how many frames there are left untill given frame in input"
      },
      "clcLotInterval(uint256)": {
        "notice": "Calculate top boundary of a lot"
      },
      "closeFrame(uint256)": {
        "notice": "Close frame"
      },
      "emptyFuds(uint256)": {
        "notice": "Withdraw any amount out of the contract. Only to be used in extreme cases!"
      },
      "getLot(uint256,uint256)": {
        "notice": "Get lot struct"
      },
      "getLotKey(uint256,uint256)": {
        "notice": "Get lotKey from index in lotKeys array"
      },
      "getLotsCount(uint256)": {
        "notice": "Get no. of created lots in a frame "
      },
      "getNumberOfFrameKeys()": {
        "notice": "Get number of frames"
      },
      "getOrCreateFrame(uint256)": {
        "notice": "Create a frame"
      },
      "getRewardAmount(uint256)": {
        "notice": "Get frame's award amount (accumulation of different lot taxes)Remaining tax of a lot owner get's returned after a sale (change of ownership). So the award amount isn't for sure untill the frame get's closed."
      },
      "settleLot(uint256)": {
        "notice": "Settle lot for a owner. Owner's share of the reward amount get's transfered to owner's account"
      },
      "updateFramePrices(uint256)": {
        "notice": "Update trading pair's prices in the frame"
      },
      "updateLotPrice(uint256,uint256,uint256)": {
        "notice": "Owner can update lot's price. Has to pay additional tax, or leftover tax gets' returned to him if the new price is lower"
      }
    },
    "version": 1
  }
}