{
  "contractName": "MarketContract",
  "abi": [
    {
      "inputs": [
        {
          "internalType": "contract MarketFactory",
          "name": "_factory",
          "type": "address"
        },
        {
          "internalType": "contract IERC20",
          "name": "_token",
          "type": "address"
        },
        {
          "internalType": "contract IUniswapV2Pair",
          "name": "_uniswapPair",
          "type": "address"
        },
        {
          "internalType": "uint256",
          "name": "_period",
          "type": "uint256"
        },
        {
          "internalType": "uint256",
          "name": "_initTimestamp",
          "type": "uint256"
        },
        {
          "internalType": "uint256",
          "name": "_taxMarket",
          "type": "uint256"
        },
        {
          "internalType": "uint256",
          "name": "_feeMarket",
          "type": "uint256"
        },
        {
          "internalType": "uint256",
          "name": "_dPrice",
          "type": "uint256"
        }
      ],
      "stateMutability": "nonpayable",
      "type": "constructor"
    },
    {
      "anonymous": false,
      "inputs": [
        {
          "indexed": false,
          "internalType": "uint256",
          "name": "frameKey",
          "type": "uint256"
        }
      ],
      "name": "FrameUpdate",
      "type": "event"
    },
    {
      "anonymous": false,
      "inputs": [
        {
          "indexed": false,
          "internalType": "uint256",
          "name": "frameKey",
          "type": "uint256"
        },
        {
          "indexed": false,
          "internalType": "uint256",
          "name": "parcelKey",
          "type": "uint256"
        }
      ],
      "name": "ParcelUpdate",
      "type": "event"
    },
    {
      "inputs": [],
      "name": "accountingToken",
      "outputs": [
        {
          "internalType": "contract IERC20",
          "name": "",
          "type": "address"
        }
      ],
      "stateMutability": "view",
      "type": "function"
    },
    {
      "inputs": [],
      "name": "dPrice",
      "outputs": [
        {
          "internalType": "uint256",
          "name": "",
          "type": "uint256"
        }
      ],
      "stateMutability": "view",
      "type": "function"
    },
    {
      "inputs": [],
      "name": "factory",
      "outputs": [
        {
          "internalType": "contract MarketFactory",
          "name": "",
          "type": "address"
        }
      ],
      "stateMutability": "view",
      "type": "function"
    },
    {
      "inputs": [],
      "name": "feeMarket",
      "outputs": [
        {
          "internalType": "uint256",
          "name": "",
          "type": "uint256"
        }
      ],
      "stateMutability": "view",
      "type": "function"
    },
    {
      "inputs": [],
      "name": "feeProtocol",
      "outputs": [
        {
          "internalType": "uint256",
          "name": "",
          "type": "uint256"
        }
      ],
      "stateMutability": "view",
      "type": "function"
    },
    {
      "inputs": [
        {
          "internalType": "uint256",
          "name": "",
          "type": "uint256"
        }
      ],
      "name": "frames",
      "outputs": [
        {
          "internalType": "uint256",
          "name": "frameKey",
          "type": "uint256"
        },
        {
          "internalType": "enum MarketContract.SFrame",
          "name": "state",
          "type": "uint8"
        },
        {
          "internalType": "uint256",
          "name": "priceAverage",
          "type": "uint256"
        },
        {
          "internalType": "uint256",
          "name": "rewardFund",
          "type": "uint256"
        },
        {
          "internalType": "uint256",
          "name": "oraclePrice0CumulativeStart",
          "type": "uint256"
        },
        {
          "internalType": "uint256",
          "name": "oraclePrice0CumulativeEnd",
          "type": "uint256"
        },
        {
          "internalType": "uint256",
          "name": "price0CumulativeEnd",
          "type": "uint256"
        },
        {
          "internalType": "uint256",
          "name": "oracleTimestampStart",
          "type": "uint256"
        },
        {
          "internalType": "uint256",
          "name": "oracleTimestampEnd",
          "type": "uint256"
        },
        {
          "internalType": "uint256",
          "name": "lastBlockNum",
          "type": "uint256"
        }
      ],
      "stateMutability": "view",
      "type": "function"
    },
    {
      "inputs": [
        {
          "internalType": "uint256",
          "name": "",
          "type": "uint256"
        }
      ],
      "name": "framesKeys",
      "outputs": [
        {
          "internalType": "uint256",
          "name": "",
          "type": "uint256"
        }
      ],
      "stateMutability": "view",
      "type": "function"
    },
    {
      "inputs": [],
      "name": "initTimestamp",
      "outputs": [
        {
          "internalType": "uint256",
          "name": "",
          "type": "uint256"
        }
      ],
      "stateMutability": "view",
      "type": "function"
    },
    {
      "inputs": [],
      "name": "ownerMarket",
      "outputs": [
        {
          "internalType": "address payable",
          "name": "",
          "type": "address"
        }
      ],
      "stateMutability": "view",
      "type": "function"
    },
    {
      "inputs": [],
      "name": "period",
      "outputs": [
        {
          "internalType": "uint256",
          "name": "",
          "type": "uint256"
        }
      ],
      "stateMutability": "view",
      "type": "function"
    },
    {
      "inputs": [],
      "name": "taxMarket",
      "outputs": [
        {
          "internalType": "uint256",
          "name": "",
          "type": "uint256"
        }
      ],
      "stateMutability": "view",
      "type": "function"
    },
    {
      "inputs": [],
      "name": "uniswapPair",
      "outputs": [
        {
          "internalType": "contract IUniswapV2Pair",
          "name": "",
          "type": "address"
        }
      ],
      "stateMutability": "view",
      "type": "function"
    },
    {
      "inputs": [
        {
          "internalType": "uint256",
          "name": "timestamp",
          "type": "uint256"
        }
      ],
      "name": "getOrCreateFrame",
      "outputs": [
        {
          "internalType": "uint256",
          "name": "",
          "type": "uint256"
        }
      ],
      "stateMutability": "nonpayable",
      "type": "function"
    },
    {
      "inputs": [
        {
          "internalType": "uint256",
          "name": "timestamp",
          "type": "uint256"
        }
      ],
      "name": "clcFrameTimestamp",
      "outputs": [
        {
          "internalType": "uint256",
          "name": "",
          "type": "uint256"
        }
      ],
      "stateMutability": "view",
      "type": "function"
    },
    {
      "inputs": [
        {
          "internalType": "uint256",
          "name": "value",
          "type": "uint256"
        }
      ],
      "name": "clcParcelInterval",
      "outputs": [
        {
          "internalType": "uint256",
          "name": "",
          "type": "uint256"
        }
      ],
      "stateMutability": "view",
      "type": "function"
    },
    {
      "inputs": [
        {
          "internalType": "uint256",
          "name": "frameKey",
          "type": "uint256"
        }
      ],
      "name": "clcFramesLeft",
      "outputs": [
        {
          "internalType": "uint256",
          "name": "",
          "type": "uint256"
        }
      ],
      "stateMutability": "view",
      "type": "function"
    },
    {
      "inputs": [
        {
          "internalType": "uint256",
          "name": "frameKey",
          "type": "uint256"
        },
        {
          "internalType": "uint256",
          "name": "parcelKey",
          "type": "uint256"
        }
      ],
      "name": "getCurrentPrice",
      "outputs": [
        {
          "internalType": "uint256",
          "name": "",
          "type": "uint256"
        }
      ],
      "stateMutability": "view",
      "type": "function"
    },
    {
      "inputs": [],
      "name": "getApprovedAmount",
      "outputs": [
        {
          "internalType": "uint256",
          "name": "",
          "type": "uint256"
        }
      ],
      "stateMutability": "view",
      "type": "function"
    },
    {
      "inputs": [
        {
          "internalType": "uint256",
          "name": "frameKey",
          "type": "uint256"
        }
      ],
      "name": "getRewardAmount",
      "outputs": [
        {
          "internalType": "uint256",
          "name": "",
          "type": "uint256"
        }
      ],
      "stateMutability": "view",
      "type": "function"
    },
    {
      "inputs": [
        {
          "internalType": "uint256",
          "name": "frameKey",
          "type": "uint256"
        },
        {
          "internalType": "uint256",
          "name": "parcelKey",
          "type": "uint256"
        }
      ],
      "name": "getNumberOfParcelOwners",
      "outputs": [
        {
          "internalType": "uint256",
          "name": "",
          "type": "uint256"
        }
      ],
      "stateMutability": "view",
      "type": "function"
    },
    {
      "inputs": [],
      "name": "getNumberOfFrameKeys",
      "outputs": [
        {
          "internalType": "uint256",
          "name": "",
          "type": "uint256"
        }
      ],
      "stateMutability": "view",
      "type": "function"
    },
    {
      "inputs": [
        {
          "internalType": "uint256",
          "name": "frameKey",
          "type": "uint256"
        },
        {
          "internalType": "uint256",
          "name": "parcelKey",
          "type": "uint256"
        },
        {
          "internalType": "address",
          "name": "owner",
          "type": "address"
        }
      ],
      "name": "getParcelOwnerIndex",
      "outputs": [
        {
          "internalType": "uint256",
          "name": "",
          "type": "uint256"
        }
      ],
      "stateMutability": "view",
      "type": "function"
    },
    {
      "inputs": [
        {
          "internalType": "uint256",
          "name": "frameKey",
          "type": "uint256"
        },
        {
          "internalType": "uint256",
          "name": "pairPrice",
          "type": "uint256"
        },
        {
          "internalType": "uint256",
          "name": "newSellPrice",
          "type": "uint256"
        }
      ],
      "name": "AmountToApprove",
      "outputs": [
        {
          "internalType": "uint256",
          "name": "",
          "type": "uint256"
        }
      ],
      "stateMutability": "view",
      "type": "function"
    },
    {
      "inputs": [
        {
          "internalType": "uint256",
          "name": "timestamp",
          "type": "uint256"
        },
        {
          "internalType": "uint256",
          "name": "pairPrice",
          "type": "uint256"
        },
        {
          "internalType": "uint256",
          "name": "newSellPrice",
          "type": "uint256"
        }
      ],
      "name": "buyParcel",
      "outputs": [],
      "stateMutability": "payable",
      "type": "function"
    },
    {
      "inputs": [
        {
          "internalType": "uint256",
          "name": "PriceCumulative",
          "type": "uint256"
        }
      ],
      "name": "updateFramePrices",
      "outputs": [],
      "stateMutability": "nonpayable",
      "type": "function"
    },
    {
      "inputs": [
        {
          "internalType": "uint256",
          "name": "frameKey",
          "type": "uint256"
        }
      ],
      "name": "closeFrame",
      "outputs": [],
      "stateMutability": "nonpayable",
      "type": "function"
    },
    {
      "inputs": [
        {
          "internalType": "uint256",
          "name": "frameKey",
          "type": "uint256"
        },
        {
          "internalType": "address",
          "name": "owner",
          "type": "address"
        }
      ],
      "name": "settleParcel",
      "outputs": [],
      "stateMutability": "nonpayable",
      "type": "function"
    },
    {
      "inputs": [
        {
          "internalType": "uint256",
          "name": "frameKey",
          "type": "uint256"
        },
        {
          "internalType": "uint256",
          "name": "parcelKey",
          "type": "uint256"
        },
        {
          "internalType": "address",
          "name": "owner",
          "type": "address"
        }
      ],
      "name": "clcShare",
      "outputs": [
        {
          "internalType": "uint256",
          "name": "",
          "type": "uint256"
        }
      ],
      "stateMutability": "view",
      "type": "function"
    },
    {
      "inputs": [
        {
          "internalType": "uint256",
          "name": "frameKey",
          "type": "uint256"
        },
        {
          "internalType": "uint256",
          "name": "parcelKey",
          "type": "uint256"
        },
        {
          "internalType": "address",
          "name": "owner",
          "type": "address"
        }
      ],
      "name": "clcSettleAmount",
      "outputs": [
        {
          "internalType": "uint256",
          "name": "",
          "type": "uint256"
        }
      ],
      "stateMutability": "view",
      "type": "function"
    }
  ],
  "bytecode": "0x6080604052606460095569d3c21bcecceda1000000600a553480156200002457600080fd5b50604051620034063803806200340683398181016040528101906200004a9190620001da565b86600160006101000a81548173ffffffffffffffffffffffffffffffffffffffff021916908373ffffffffffffffffffffffffffffffffffffffff16021790555033600260006101000a81548173ffffffffffffffffffffffffffffffffffffffff021916908373ffffffffffffffffffffffffffffffffffffffff1602179055508460038190555083600481905550826008819055508160078190555085600560006101000a81548173ffffffffffffffffffffffffffffffffffffffff021916908373ffffffffffffffffffffffffffffffffffffffff16021790555080600681905550876000806101000a81548173ffffffffffffffffffffffffffffffffffffffff021916908373ffffffffffffffffffffffffffffffffffffffff16021790555050505050505050506200038a565b6000815190506200018f8162000322565b92915050565b600081519050620001a6816200033c565b92915050565b600081519050620001bd8162000356565b92915050565b600081519050620001d48162000370565b92915050565b600080600080600080600080610100898b031215620001fe57620001fd6200031d565b5b60006200020e8b828c01620001ac565b9850506020620002218b828c016200017e565b9750506040620002348b828c0162000195565b9650506060620002478b828c01620001c3565b95505060806200025a8b828c01620001c3565b94505060a06200026d8b828c01620001c3565b93505060c0620002808b828c01620001c3565b92505060e0620002938b828c01620001c3565b9150509295985092959890939650565b6000620002b082620002f3565b9050919050565b6000620002c482620002a3565b9050919050565b6000620002d882620002a3565b9050919050565b6000620002ec82620002a3565b9050919050565b600073ffffffffffffffffffffffffffffffffffffffff82169050919050565b6000819050919050565b600080fd5b6200032d81620002b7565b81146200033957600080fd5b50565b6200034781620002cb565b81146200035357600080fd5b50565b6200036181620002df565b81146200036d57600080fd5b50565b6200037b8162000313565b81146200038757600080fd5b50565b61306c806200039a6000396000f3fe6080604052600436106101c25760003560e01c80635619e1f5116100f75780639d750e3211610095578063c84993af11610064578063c84993af146106c8578063da68cf8b14610705578063ef78d4fd14610730578063fc9507021461075b576101c2565b80639d750e3214610601578063a10340bc1461062c578063c45a015514610672578063c816841b1461069d576101c2565b80637d6ae6a0116100d15780637d6ae6a0146105525780637e9966391461058f57806389da88a3146105ba57806395333194146105e5576101c2565b80635619e1f5146104ad5780635b3ad63e146104ea5780637358c57a14610527576101c2565b806331cf77b411610164578063450847751161013e57806345084775146103ef578063499a0fc41461041a5780634f3ab71f14610445578063527eb4bc14610482576101c2565b806331cf77b41461035e57806331e592e21461039b578063410f0710146103c4576101c2565b806318ff0e07116101a057806318ff0e071461027e5780631e501486146102bb5780632a0efd44146102f85780632a3dbdb614610321576101c2565b806304673368146101c7578063050e8840146102045780630cbcff8f14610241575b600080fd5b3480156101d357600080fd5b506101ee60048036038101906101e9919061257a565b610784565b6040516101fb9190612a0e565b60405180910390f35b34801561021057600080fd5b5061022b600480360381019061022691906124e0565b6107b9565b6040516102389190612a0e565b60405180910390f35b34801561024d57600080fd5b50610268600480360381019061026391906124e0565b6107dd565b6040516102759190612a0e565b60405180910390f35b34801561028a57600080fd5b506102a560048036038101906102a091906124e0565b610998565b6040516102b29190612a0e565b60405180910390f35b3480156102c757600080fd5b506102e260048036038101906102dd91906125ba565b6109f0565b6040516102ef9190612a0e565b60405180910390f35b34801561030457600080fd5b5061031f600480360381019061031a91906124e0565b610cbe565b005b34801561032d57600080fd5b506103486004803603810190610343919061260d565b610e15565b6040516103559190612a0e565b60405180910390f35b34801561036a57600080fd5b506103856004803603810190610380919061257a565b610ebf565b6040516103929190612a0e565b60405180910390f35b3480156103a757600080fd5b506103c260048036038101906103bd919061253a565b610ef7565b005b3480156103d057600080fd5b506103d9611069565b6040516103e69190612a0e565b60405180910390f35b3480156103fb57600080fd5b5061040461106f565b60405161041191906127f0565b60405180910390f35b34801561042657600080fd5b5061042f611095565b60405161043c9190612a0e565b60405180910390f35b34801561045157600080fd5b5061046c600480360381019061046791906125ba565b61109b565b6040516104799190612a0e565b60405180910390f35b34801561048e57600080fd5b50610497611186565b6040516104a49190612a0e565b60405180910390f35b3480156104b957600080fd5b506104d460048036038101906104cf91906125ba565b61118c565b6040516104e19190612a0e565b60405180910390f35b3480156104f657600080fd5b50610511600480360381019061050c91906124e0565b6111de565b60405161051e9190612a0e565b60405180910390f35b34801561053357600080fd5b5061053c61124c565b6040516105499190612a0e565b60405180910390f35b34801561055e57600080fd5b50610579600480360381019061057491906124e0565b611252565b6040516105869190612a0e565b60405180910390f35b34801561059b57600080fd5b506105a4611295565b6040516105b19190612a0e565b60405180910390f35b3480156105c657600080fd5b506105cf61129b565b6040516105dc9190612a0e565b60405180910390f35b6105ff60048036038101906105fa919061260d565b6112a8565b005b34801561060d57600080fd5b50610616611956565b6040516106239190612a0e565b60405180910390f35b34801561063857600080fd5b50610653600480360381019061064e91906124e0565b611a0f565b6040516106699a99989796959493929190612a29565b60405180910390f35b34801561067e57600080fd5b50610687611a70565b60405161069491906128f3565b60405180910390f35b3480156106a957600080fd5b506106b2611a94565b6040516106bf91906128d8565b60405180910390f35b3480156106d457600080fd5b506106ef60048036038101906106ea91906124e0565b611aba565b6040516106fc9190612a0e565b60405180910390f35b34801561071157600080fd5b5061071a611ada565b60405161072791906128bd565b60405180910390f35b34801561073c57600080fd5b50610745611b00565b6040516107529190612a0e565b60405180910390f35b34801561076757600080fd5b50610782600480360381019061077d91906124e0565b611b06565b005b6000600b6000848152602001908152602001600020600a01600083815260200190815260200160002060020154905092915050565b600c81815481106107c957600080fd5b906000526020600020016000915090505481565b6000600454821015610824576040517f08c379a000000000000000000000000000000000000000000000000000000000815260040161081b9061296e565b60405180910390fd5b600061082f836111de565b90506000600381111561084557610844612e0c565b5b600b600083815260200190815260200160002060010160009054906101000a900460ff16600381111561087b5761087a612e0c565b5b146108895780915050610993565b610892426111de565b8110156108d4576040517f08c379a00000000000000000000000000000000000000000000000000000000081526004016108cb9061294e565b60405180910390fd5b80600b6000838152602001908152602001600020600001819055506001600b600083815260200190815260200160002060010160006101000a81548160ff0219169083600381111561092957610928612e0c565b5b0217905550600c8190806001815401808255809150506001900390600052602060002001600090919091909150557f163614e6e9ce9df7687928015fd2c748b69c5136db886e57f09170b251b58e87816040516109869190612a0e565b60405180910390a1809150505b919050565b60008082116109ab5760065490506109eb565b6109e86006546109da6006546109cc600654876121f390919063ffffffff16565b61220990919063ffffffff16565b61221f90919063ffffffff16565b90505b919050565b6000806109fe85858561109b565b9050610a0a8585610ebf565b8110610a4b576040517f08c379a0000000000000000000000000000000000000000000000000000000008152600401610a42906129ce565b60405180910390fd5b6000600b6000878152602001908152602001600020600a0160008681526020019081526020016000206040518060800160405290816000820154815260200160018201805480602002602001604051908101604052809291908181526020016000905b82821015610b4057838290600052602060002090600202016040518060400160405290816000820160009054906101000a900473ffffffffffffffffffffffffffffffffffffffff1673ffffffffffffffffffffffffffffffffffffffff1673ffffffffffffffffffffffffffffffffffffffff16815260200160018201548152505081526020019060010190610aae565b505050508152602001600282015481526020016003820160009054906101000a900460ff166002811115610b7757610b76612e0c565b5b6002811115610b8957610b88612e0c565b5b815250509050600081602001518381518110610ba857610ba7612e3b565b5b60200260200101516020015190506000600b600089815260200190815260200160002060090154905060008360200151600081518110610beb57610bea612e3b565b5b60200260200101516020015190506000856001610c088c8c610ebf565b610c129190612be8565b1415610c2057829050610c52565b8460200151600187610c329190612ad6565b81518110610c4357610c42612e3b565b5b60200260200101516020015190505b6000610c67858361223590919063ffffffff16565b90506000610c7e848661223590919063ffffffff16565b90506000610ca982610c9b600a548661220990919063ffffffff16565b6121f390919063ffffffff16565b90508099505050505050505050509392505050565b6000610cc9426111de565b905043600b600083815260200190815260200160002060090181905550610d0f615460610d016003548461221f90919063ffffffff16565b61223590919063ffffffff16565b4211610d875781600b60008381526020019081526020016000206004018190555042600b6000838152602001908152602001600020600701819055507f163614e6e9ce9df7687928015fd2c748b69c5136db886e57f09170b251b58e8781604051610d7a9190612a0e565b60405180910390a1610e11565b610d9c6003548261221f90919063ffffffff16565b4211610e105781600b60008381526020019081526020016000206005018190555042600b6000838152602001908152602001600020600801819055507f163614e6e9ce9df7687928015fd2c748b69c5136db886e57f09170b251b58e8781604051610e079190612a0e565b60405180910390a15b5b5050565b600080610e2184610998565b90506000610e2e86611252565b90506000610e6e82610e60620186a0610e526008548a61220990919063ffffffff16565b6121f390919063ffffffff16565b61220990919063ffffffff16565b90506000610eaf82600b60008b8152602001908152602001600020600a0160008781526020019081526020016000206002015461221f90919063ffffffff16565b9050809450505050509392505050565b6000600b6000848152602001908152602001600020600a01600083815260200190815260200160002060010180549050905092915050565b60026003811115610f0b57610f0a612e0c565b5b600b600084815260200190815260200160002060010160009054906101000a900460ff166003811115610f4157610f40612e0c565b5b14610f81576040517f08c379a0000000000000000000000000000000000000000000000000000000008152600401610f789061298e565b60405180910390fd5b6000610fa2600b600085815260200190815260200160002060020154610998565b90506000610fb184838561118c565b9050600160009054906101000a900473ffffffffffffffffffffffffffffffffffffffff1673ffffffffffffffffffffffffffffffffffffffff1663a9059cbb84836040518363ffffffff1660e01b8152600401611010929190612894565b602060405180830381600087803b15801561102a57600080fd5b505af115801561103e573d6000803e3d6000fd5b505050506040513d601f19601f8201168201806040525081019061106291906124b3565b5050505050565b60075481565b600260009054906101000a900473ffffffffffffffffffffffffffffffffffffffff1681565b60065481565b600080600090505b6110ad8585610ebf565b811015611171578273ffffffffffffffffffffffffffffffffffffffff16600b6000878152602001908152602001600020600a016000868152602001908152602001600020600101828154811061110757611106612e3b565b5b906000526020600020906002020160000160009054906101000a900473ffffffffffffffffffffffffffffffffffffffff1673ffffffffffffffffffffffffffffffffffffffff16141561115e578091505061117f565b808061116990612d65565b9150506110a3565b5061117c8484610ebf565b90505b9392505050565b60095481565b60006111d5600a546111c7600b6000888152602001908152602001600020600301546111b98888886109f0565b61220990919063ffffffff16565b6121f390919063ffffffff16565b90509392505050565b600060045482116111f3576004549050611247565b61124460045461123660035461122860035461121a6004548961223590919063ffffffff16565b6121f390919063ffffffff16565b61220990919063ffffffff16565b61221f90919063ffffffff16565b90505b919050565b60045481565b600061128e6001611280600354611272428761223590919063ffffffff16565b6121f390919063ffffffff16565b61221f90919063ffffffff16565b9050919050565b60085481565b6000600c80549050905090565b60006112b3846107dd565b905060006112c1828561224b565b905060006112ce86611252565b9050600061130e82611300620186a06112f26008548a61220990919063ffffffff16565b6121f390919063ffffffff16565b61220990919063ffffffff16565b905061134d81600b6000878152602001908152602001600020600a0160008681526020019081526020016000206002015461221f90919063ffffffff16565b600160009054906101000a900473ffffffffffffffffffffffffffffffffffffffff1673ffffffffffffffffffffffffffffffffffffffff1663dd62ed3e33306040518363ffffffff1660e01b81526004016113aa929190612834565b60206040518083038186803b1580156113c257600080fd5b505afa1580156113d6573d6000803e3d6000fd5b505050506040513d601f19601f820116820180604052508101906113fa919061250d565b101561143b576040517f08c379a0000000000000000000000000000000000000000000000000000000008152600401611432906129ee565b60405180910390fd5b600160009054906101000a900473ffffffffffffffffffffffffffffffffffffffff1673ffffffffffffffffffffffffffffffffffffffff166323b872dd33306114b885600b60008b8152602001908152602001600020600a0160008a81526020019081526020016000206002015461221f90919063ffffffff16565b6040518463ffffffff1660e01b81526004016114d69392919061285d565b602060405180830381600087803b1580156114f057600080fd5b505af1158015611504573d6000803e3d6000fd5b505050506040513d601f19601f8201168201806040525081019061152891906124b3565b5061155281600b60008781526020019081526020016000206003015461221f90919063ffffffff16565b600b600086815260200190815260200160002060030181905550600160028111156115805761157f612e0c565b5b600b6000868152602001908152602001600020600a01600085815260200190815260200160002060030160009054906101000a900460ff1660028111156115ca576115c9612e0c565b5b14156117fa5760006116388361162a620186a061161c600854600b60008c8152602001908152602001600020600a0160008b81526020019081526020016000206002015461220990919063ffffffff16565b6121f390919063ffffffff16565b61220990919063ffffffff16565b90506000611679600b6000888152602001908152602001600020600a016000878152602001908152602001600020600201548361221f90919063ffffffff16565b9050600160009054906101000a900473ffffffffffffffffffffffffffffffffffffffff1673ffffffffffffffffffffffffffffffffffffffff1663a9059cbb600b6000898152602001908152602001600020600a01600088815260200190815260200160002060010161170060016116f28b8b610ebf565b61223590919063ffffffff16565b8154811061171157611710612e3b565b5b906000526020600020906002020160000160009054906101000a900473ffffffffffffffffffffffffffffffffffffffff16836040518363ffffffff1660e01b815260040161176192919061280b565b602060405180830381600087803b15801561177b57600080fd5b505af115801561178f573d6000803e3d6000fd5b505050506040513d601f19601f820116820180604052508101906117b391906124b3565b506117dd82600b60008981526020019081526020016000206003015461223590919063ffffffff16565b600b60008881526020019081526020016000206003018190555050505b600b6000858152602001908152602001600020600a01600084815260200190815260200160002060010160405180604001604052803373ffffffffffffffffffffffffffffffffffffffff16815260200143815250908060018154018082558091505060019003906000526020600020906002020160009091909190915060008201518160000160006101000a81548173ffffffffffffffffffffffffffffffffffffffff021916908373ffffffffffffffffffffffffffffffffffffffff1602179055506020820151816001015550506001600b6000868152602001908152602001600020600a01600085815260200190815260200160002060030160006101000a81548160ff0219169083600281111561191957611918612e0c565b5b021790555084600b6000868152602001908152602001600020600a0160008581526020019081526020016000206002018190555050505050505050565b600080600160009054906101000a900473ffffffffffffffffffffffffffffffffffffffff1673ffffffffffffffffffffffffffffffffffffffff1663dd62ed3e33306040518363ffffffff1660e01b81526004016119b6929190612834565b60206040518083038186803b1580156119ce57600080fd5b505afa1580156119e2573d6000803e3d6000fd5b505050506040513d601f19601f82011682018060405250810190611a06919061250d565b90508091505090565b600b6020528060005260406000206000915090508060000154908060010160009054906101000a900460ff1690806002015490806003015490806004015490806005015490806006015490806007015490806008015490806009015490508a565b60008054906101000a900473ffffffffffffffffffffffffffffffffffffffff1681565b600560009054906101000a900473ffffffffffffffffffffffffffffffffffffffff1681565b6000600b6000838152602001908152602001600020600301549050919050565b600160009054906101000a900473ffffffffffffffffffffffffffffffffffffffff1681565b60035481565b60016003811115611b1a57611b19612e0c565b5b600b600083815260200190815260200160002060010160009054906101000a900460ff166003811115611b5057611b4f612e0c565b5b14611b90576040517f08c379a0000000000000000000000000000000000000000000000000000000008152600401611b879061292e565b60405180910390fd5b42611ba66003548361221f90919063ffffffff16565b1115611be7576040517f08c379a0000000000000000000000000000000000000000000000000000000008152600401611bde9061290e565b60405180910390fd5b6000600b600083815260200190815260200160002060040154111580611c2457506000600b60008381526020019081526020016000206005015411155b15611c69576003600b600083815260200190815260200160002060010160006101000a81548160ff02191690836003811115611c6357611c62612e0c565b5b02179055505b600b600082815260200190815260200160002060050154600b6000838152602001908152602001600020600401541415611cdd576003600b600083815260200190815260200160002060010160006101000a81548160ff02191690836003811115611cd757611cd6612e0c565b5b02179055505b6002600b600083815260200190815260200160002060010160006101000a81548160ff02191690836003811115611d1757611d16612e0c565b5b02179055506000611d5d600b600084815260200190815260200160002060040154600b60008581526020019081526020016000206005015461223590919063ffffffff16565b90506000611da0600b600085815260200190815260200160002060070154600b60008681526020019081526020016000206008015461223590919063ffffffff16565b9050611dd86040518060200160405280847bffffffffffffffffffffffffffffffffffffffffffffffffffffffff168152508261233c565b600001517bffffffffffffffffffffffffffffffffffffffffffffffffffffffff16600b600085815260200190815260200160002060020181905550611e43600a546070600b600087815260200190815260200160002060020154901c61220990919063ffffffff16565b600b600085815260200190815260200160002060020181905550611e9f7406d79f82328ea3da61e066ebb2f88a0000000000006070600b600087815260200190815260200160002060020154901b6121f390919063ffffffff16565b600b6000858152602001908152602001600020600201819055506000611efb620186a0611eed600754600b60008981526020019081526020016000206003015461220990919063ffffffff16565b6121f390919063ffffffff16565b90506000611f3f620186a0611f31600954600b60008a81526020019081526020016000206003015461220990919063ffffffff16565b6121f390919063ffffffff16565b9050611f7c81611f6e84600b60008a81526020019081526020016000206003015461223590919063ffffffff16565b61223590919063ffffffff16565b600b600087815260200190815260200160002060030181905550600160009054906101000a900473ffffffffffffffffffffffffffffffffffffffff1673ffffffffffffffffffffffffffffffffffffffff1663a9059cbb600260009054906101000a900473ffffffffffffffffffffffffffffffffffffffff16846040518363ffffffff1660e01b815260040161201592919061280b565b602060405180830381600087803b15801561202f57600080fd5b505af1158015612043573d6000803e3d6000fd5b505050506040513d601f19601f8201168201806040525081019061206791906124b3565b50600160009054906101000a900473ffffffffffffffffffffffffffffffffffffffff1673ffffffffffffffffffffffffffffffffffffffff1663a9059cbb60008054906101000a900473ffffffffffffffffffffffffffffffffffffffff1673ffffffffffffffffffffffffffffffffffffffff16638da5cb5b6040518163ffffffff1660e01b815260040160206040518083038186803b15801561210c57600080fd5b505afa158015612120573d6000803e3d6000fd5b505050506040513d601f19601f820116820180604052508101906121449190612486565b836040518363ffffffff1660e01b8152600401612162929190612894565b602060405180830381600087803b15801561217c57600080fd5b505af1158015612190573d6000803e3d6000fd5b505050506040513d601f19601f820116820180604052508101906121b491906124b3565b507f163614e6e9ce9df7687928015fd2c748b69c5136db886e57f09170b251b58e87856040516121e49190612a0e565b60405180910390a15050505050565b600081836122019190612b5d565b905092915050565b600081836122179190612b8e565b905092915050565b6000818361222d9190612ad6565b905092915050565b600081836122439190612be8565b905092915050565b60008061225783610998565b90506000600281111561226d5761226c612e0c565b5b600b6000868152602001908152602001600020600a01600083815260200190815260200160002060030160009054906101000a900460ff1660028111156122b7576122b6612e0c565b5b146122c55780915050612336565b80600b6000868152602001908152602001600020600a01600083815260200190815260200160002060000181905550600b6000858152602001908152602001600020600b01819080600181540180825580915050600190039060005260206000200160009091909190915055809150505b92915050565b6123446123ec565b6000826dffffffffffffffffffffffffffff161415612398576040517f08c379a000000000000000000000000000000000000000000000000000000000815260040161238f906129ae565b60405180910390fd5b6040518060200160405280836dffffffffffffffffffffffffffff1685600001516123c39190612b2c565b7bffffffffffffffffffffffffffffffffffffffffffffffffffffffff16815250905092915050565b604051806020016040528060007bffffffffffffffffffffffffffffffffffffffffffffffffffffffff1681525090565b60008135905061242c81612ff1565b92915050565b60008151905061244181612ff1565b92915050565b60008151905061245681613008565b92915050565b60008135905061246b8161301f565b92915050565b6000815190506124808161301f565b92915050565b60006020828403121561249c5761249b612e6a565b5b60006124aa84828501612432565b91505092915050565b6000602082840312156124c9576124c8612e6a565b5b60006124d784828501612447565b91505092915050565b6000602082840312156124f6576124f5612e6a565b5b60006125048482850161245c565b91505092915050565b60006020828403121561252357612522612e6a565b5b600061253184828501612471565b91505092915050565b6000806040838503121561255157612550612e6a565b5b600061255f8582860161245c565b92505060206125708582860161241d565b9150509250929050565b6000806040838503121561259157612590612e6a565b5b600061259f8582860161245c565b92505060206125b08582860161245c565b9150509250929050565b6000806000606084860312156125d3576125d2612e6a565b5b60006125e18682870161245c565b93505060206125f28682870161245c565b92505060406126038682870161241d565b9150509250925092565b60008060006060848603121561262657612625612e6a565b5b60006126348682870161245c565b93505060206126458682870161245c565b92505060406126568682870161245c565b9150509250925092565b61266981612cb1565b82525050565b61267881612c2e565b82525050565b61268781612c1c565b82525050565b61269681612cc3565b82525050565b6126a581612ce7565b82525050565b6126b481612d0b565b82525050565b6126c381612d2f565b82525050565b60006126d6601a83612ac5565b91506126e182612e6f565b602082019050919050565b60006126f9601083612ac5565b915061270482612e98565b602082019050919050565b600061271c601a83612ac5565b915061272782612ec1565b602082019050919050565b600061273f602c83612ac5565b915061274a82612eea565b604082019050919050565b6000612762601083612ac5565b915061276d82612f39565b602082019050919050565b6000612785601783612ac5565b915061279082612f62565b602082019050919050565b60006127a8601483612ac5565b91506127b382612f8b565b602082019050919050565b60006127cb601d83612ac5565b91506127d682612fb4565b602082019050919050565b6127ea81612ca7565b82525050565b6000602082019050612805600083018461266f565b92915050565b60006040820190506128206000830185612660565b61282d60208301846127e1565b9392505050565b6000604082019050612849600083018561267e565b612856602083018461267e565b9392505050565b6000606082019050612872600083018661267e565b61287f602083018561267e565b61288c60408301846127e1565b949350505050565b60006040820190506128a9600083018561267e565b6128b660208301846127e1565b9392505050565b60006020820190506128d2600083018461268d565b92915050565b60006020820190506128ed600083018461269c565b92915050565b600060208201905061290860008301846126ab565b92915050565b60006020820190508181036000830152612927816126c9565b9050919050565b60006020820190508181036000830152612947816126ec565b9050919050565b600060208201905081810360008301526129678161270f565b9050919050565b6000602082019050818103600083015261298781612732565b9050919050565b600060208201905081810360008301526129a781612755565b9050919050565b600060208201905081810360008301526129c781612778565b9050919050565b600060208201905081810360008301526129e78161279b565b9050919050565b60006020820190508181036000830152612a07816127be565b9050919050565b6000602082019050612a2360008301846127e1565b92915050565b600061014082019050612a3f600083018d6127e1565b612a4c602083018c6126ba565b612a59604083018b6127e1565b612a66606083018a6127e1565b612a7360808301896127e1565b612a8060a08301886127e1565b612a8d60c08301876127e1565b612a9a60e08301866127e1565b612aa86101008301856127e1565b612ab66101208301846127e1565b9b9a5050505050505050505050565b600082825260208201905092915050565b6000612ae182612ca7565b9150612aec83612ca7565b9250827fffffffffffffffffffffffffffffffffffffffffffffffffffffffffffffffff03821115612b2157612b20612dae565b5b828201905092915050565b6000612b3782612c7f565b9150612b4283612c7f565b925082612b5257612b51612ddd565b5b828204905092915050565b6000612b6882612ca7565b9150612b7383612ca7565b925082612b8357612b82612ddd565b5b828204905092915050565b6000612b9982612ca7565b9150612ba483612ca7565b9250817fffffffffffffffffffffffffffffffffffffffffffffffffffffffffffffffff0483118215151615612bdd57612bdc612dae565b5b828202905092915050565b6000612bf382612ca7565b9150612bfe83612ca7565b925082821015612c1157612c10612dae565b5b828203905092915050565b6000612c2782612c5f565b9050919050565b6000612c3982612c5f565b9050919050565b60008115159050919050565b6000819050612c5a82612fdd565b919050565b600073ffffffffffffffffffffffffffffffffffffffff82169050919050565b60007bffffffffffffffffffffffffffffffffffffffffffffffffffffffff82169050919050565b6000819050919050565b6000612cbc82612d41565b9050919050565b6000612cce82612cd5565b9050919050565b6000612ce082612c5f565b9050919050565b6000612cf282612cf9565b9050919050565b6000612d0482612c5f565b9050919050565b6000612d1682612d1d565b9050919050565b6000612d2882612c5f565b9050919050565b6000612d3a82612c4c565b9050919050565b6000612d4c82612d53565b9050919050565b6000612d5e82612c5f565b9050919050565b6000612d7082612ca7565b91507fffffffffffffffffffffffffffffffffffffffffffffffffffffffffffffffff821415612da357612da2612dae565b5b600182019050919050565b7f4e487b7100000000000000000000000000000000000000000000000000000000600052601160045260246000fd5b7f4e487b7100000000000000000000000000000000000000000000000000000000600052601260045260246000fd5b7f4e487b7100000000000000000000000000000000000000000000000000000000600052602160045260246000fd5b7f4e487b7100000000000000000000000000000000000000000000000000000000600052603260045260246000fd5b600080fd5b7f4652414d4520454e442054494d45204e4f542052454143484544000000000000600082015250565b7f4652414d45204e4f54204f50454e454400000000000000000000000000000000600082015250565b7f43414e275420435245415445204652414d4520494e2050415354000000000000600082015250565b7f54494d455354414d50204245464f524520494e495449414c2054494d4553544160008201527f4d50204f46204d41524b45540000000000000000000000000000000000000000602082015250565b7f4652414d45204e4f5420434c4f53454400000000000000000000000000000000600082015250565b7f4669786564506f696e743a204449565f42595f5a45524f000000000000000000600082015250565b7f4f574e455220444f4553204e4f54204558495354000000000000000000000000600082015250565b7f415050524f56454420414d4f554e54204953204e4f5420454e4f554748000000600082015250565b60048110612fee57612fed612e0c565b5b50565b612ffa81612c1c565b811461300557600080fd5b50565b61301181612c40565b811461301c57600080fd5b50565b61302881612ca7565b811461303357600080fd5b5056fea26469706673582212209c3e5f0ba7027c95ee4f16fda221e55e59c62ecfeb3e1678d553427330ac8f0764736f6c63430008060033",
  "immutableReferences": {},
  "source": "// SPDX-License-Identifier: MIT\r\npragma solidity >=0.5.0;\r\n//pragma experimental ABIEncoderV2;\r\n\r\nimport \"./MarketFactory.sol\";\r\nimport \"@uniswap/v2-core/contracts/interfaces/IUniswapV2Pair.sol\";\r\nimport \"@uniswap/v2-periphery/contracts/libraries/UniswapV2OracleLibrary.sol\";\r\nimport \"@uniswap/lib/contracts/libraries/FixedPoint.sol\";\r\nimport \"@openzeppelin/contracts/token/ERC20/IERC20.sol\";\r\nimport \"@openzeppelin/contracts/utils/math/SafeMath.sol\";\r\n\r\n/// @title TWPM Market\r\n/// @author UniHedge\r\n/// @dev All function calls are currently implemented without side effects\r\ncontract MarketContract {\r\n\r\n    using SafeMath for uint;\r\n    //Contract for creating markets\r\n    MarketFactory public factory;\r\n    //ERC20 token used for buyng parcels in this contract \r\n    IERC20 public accountingToken;\r\n    //Owner of this market\r\n    address payable public ownerMarket;\r\n    //Length of a frame\r\n    uint public period;\r\n    //Contract creation time\r\n    uint public initTimestamp; \r\n    //Token pair on Uniswap\r\n    IUniswapV2Pair public uniswapPair;\r\n    //Range of a parcel\r\n    uint public dPrice;\r\n    //Fee that gets to market owner\r\n    uint public feeMarket;\r\n    //Tax on parcels\r\n    uint public taxMarket;\r\n    //Protocol fee\r\n    uint public feeProtocol = 100;\r\n    //Scalar number used for calculating precentages\r\n    uint scalar = 1e24;\r\n\r\n\r\n    enum SFrame {NULL, OPENED, CLOSED, INVALID}\r\n    struct Frame {\r\n        uint frameKey;\r\n        SFrame state;\r\n        uint priceAverage;\r\n        uint rewardFund;\r\n        uint oraclePrice0CumulativeStart;\r\n        uint oraclePrice0CumulativeEnd;\r\n        uint price0CumulativeEnd;\r\n        uint oracleTimestampStart;\r\n        uint oracleTimestampEnd;\r\n        uint lastBlockNum;\r\n        mapping(uint => Parcel) parcels;\r\n        uint[] parcelKeys;\r\n    }\r\n\r\n    event FrameUpdate(uint frameKey);\r\n\r\n    mapping(uint => Frame) public frames;\r\n    uint[] public framesKeys;\r\n\r\n    struct ParcelOwner {\r\n        address payable owner;\r\n        uint blockNum;\r\n    }\r\n\r\n    enum SParcel {NULL, BOUGHT, RESOLVED}\r\n    struct Parcel {\r\n        uint parcelKey;\r\n        ParcelOwner[] parcelOwners;\r\n        uint currentPrice;\r\n        SParcel state;\r\n    }\r\n\r\n    event ParcelUpdate(uint frameKey, uint parcelKey);\r\n\r\n    constructor(MarketFactory _factory, IERC20 _token, IUniswapV2Pair _uniswapPair, uint _period, uint _initTimestamp, uint _taxMarket, uint _feeMarket, uint _dPrice ) {\r\n        accountingToken = _token;\r\n        ownerMarket = payable(msg.sender);\r\n        period = _period;\r\n        initTimestamp = _initTimestamp; \r\n        taxMarket = _taxMarket;\r\n        feeMarket = _feeMarket;\r\n        uniswapPair = _uniswapPair;\r\n        dPrice = _dPrice;\r\n        factory = _factory;\r\n    }\r\n\r\n\r\n    /// @notice Create a frame\r\n    /// @param timestamp In second.\r\n    /// @return frameTimestamp Frame's key (timestamp that indicated the beggining of a frame).\r\n    function getOrCreateFrame(uint timestamp) public returns (uint){\r\n        require(timestamp >= initTimestamp, \"TIMESTAMP BEFORE INITIAL TIMESTAMP OF MARKET\");\r\n        //Get start timestamp of a frame\r\n        uint frameTimestamp = clcFrameTimestamp(timestamp);\r\n        //Check if frame exists\r\n        if (frames[frameTimestamp].state != SFrame.NULL) return frameTimestamp;\r\n        //Check if frame startParcel number is before current Parcel number\r\n        require(frameTimestamp >= clcFrameTimestamp(block.timestamp), \"CAN'T CREATE FRAME IN PAST\");\r\n        //Add frame\r\n        frames[frameTimestamp].frameKey = frameTimestamp;\r\n        frames[frameTimestamp].state = SFrame.OPENED; //check if other parameters are at zero\r\n        framesKeys.push(frameTimestamp);\r\n        emit FrameUpdate(frameTimestamp);\r\n        return frameTimestamp;\r\n    }\r\n\r\n    /// @notice Calculate frames timestamp (beggining of frame)\r\n    /// @param timestamp In seconds\r\n    /// @return frame's timestamp (key)\r\n    function clcFrameTimestamp(uint timestamp) public view returns (uint){\r\n        if (timestamp <= initTimestamp) return initTimestamp;\r\n        return ((timestamp.sub(initTimestamp)).div(period)).mul(period).add(initTimestamp);\r\n    }\r\n\r\n    /// @notice Calculate bottom boundary of a parcel\r\n    /// @param value Arbitary price of market's Uniswap pair\r\n    /// @return parcel key (bottom boundary)\r\n    function clcParcelInterval(uint value) public view returns (uint){\r\n        if (value <= 0) return dPrice;\r\n        return value.div(dPrice).mul(dPrice).add(dPrice);\r\n    }\r\n\r\n    /// @notice Calculate how many frames there are left untill given frame in input\r\n    /// @param frameKey Timestamp of an arbitary frame in the future\r\n    /// @return number of frames (whole numbers: n=0,1,2...)\r\n    function clcFramesLeft(uint frameKey) public view returns (uint){                      \r\n        return (frameKey.sub(block.timestamp)).div(period).add(1);\r\n    }\r\n\r\n    /// @notice Get current price of a parcel in a frame\r\n    /// @param frameKey Frame's timestamp\r\n    /// @param parcelKey Parcel's key \r\n    /// @return price that the current owner set\r\n    function getCurrentPrice(uint frameKey, uint parcelKey) public view returns (uint){                 \r\n        return frames[frameKey].parcels[parcelKey].currentPrice;\r\n    }\r\n\r\n    /// @notice Get msg senders approved amount of accounting token to this contract (market)\r\n    /// @return approved amount\r\n    function getApprovedAmount() public view returns (uint) {                         \r\n        uint approvedAmount = accountingToken.allowance(msg.sender, address(this));\r\n        return approvedAmount;\r\n    }\r\n\r\n    /// @notice Get frame's award amount (accumulation of different parcel taxes)\r\n    /// @notice Remaining tax of a parcel owner get's returned after a sale (change of ownership). So the award amount isn't for sure untill the frame get's closed.\r\n    /// @param frameKey Frame's timestamp\r\n    /// @return award amount\r\n    function getRewardAmount(uint frameKey) public view returns (uint) {                         \r\n        return frames[frameKey].rewardFund;\r\n    }\r\n\r\n    /// @notice Get number of accounts that owned a specific parcel\r\n    /// @param frameKey Frame's timestamp\r\n    /// @param parcelKey Parcel's key \r\n    /// @return number of owners\r\n    function getNumberOfParcelOwners(uint frameKey, uint parcelKey) public view returns (uint){\r\n        return frames[frameKey].parcels[parcelKey].parcelOwners.length ;\r\n    }\r\n\r\n    /// @notice Get number of frames\r\n    /// @return number frames\r\n    function getNumberOfFrameKeys() public view returns (uint){\r\n        return framesKeys.length ;\r\n    }\r\n\r\n    /// @notice Calculate parcel owner's index in the array of owners of the parcel\r\n    /// @param frameKey Frame's timestamp\r\n    /// @param parcelKey Parcel's key \r\n    /// @param owner Owners account address\r\n    /// @return owner's index\r\n    function getParcelOwnerIndex(uint frameKey, uint parcelKey, address owner) public view returns (uint) {   \r\n\r\n        //if (parcelCount == 0) return 0;\r\n\r\n        for (uint i=0; i< getNumberOfParcelOwners(frameKey, parcelKey); i++) {\r\n            if (frames[frameKey].parcels[parcelKey].parcelOwners[i].owner == owner) return i;\r\n        }\r\n\r\n        return getNumberOfParcelOwners(frameKey, parcelKey); \r\n    }\r\n\r\n    /// @notice Create a parcel\r\n    /// @param frameKey Frame's timestamp\r\n    /// @param pairPrice Price is the trading pair's price\r\n    /// @return parcelKey\r\n    function getOrCreateParcel(uint frameKey, uint pairPrice) internal returns(uint){\r\n\r\n        uint parcelKey = clcParcelInterval(pairPrice);\r\n\r\n        if (frames[frameKey].parcels[parcelKey].state != SParcel.NULL) return parcelKey;\r\n        \r\n        frames[frameKey].parcels[parcelKey].parcelKey = parcelKey;\r\n        frames[frameKey].parcelKeys.push(parcelKey);\r\n        return parcelKey;\r\n    }\r\n\r\n    /// @notice Calculate amout required to approve to buy a parcel\r\n    /// @param frameKey Frame's timestamp\r\n    /// @param pairPrice Value is trading pair's price (to get correct parcel key) \r\n    /// @param newSellPrice New sell price is required to calculate tax\r\n    /// @return amoun to approve\r\n    function AmountToApprove(uint frameKey, uint pairPrice, uint newSellPrice) public view returns (uint) {             \r\n\r\n        uint parcelKey = clcParcelInterval(pairPrice);\r\n        \r\n        uint numOfFrames = clcFramesLeft(frameKey);\r\n        uint tax = newSellPrice.mul(taxMarket).div(100000).mul(numOfFrames);\r\n\r\n        uint price = frames[frameKey].parcels[parcelKey].currentPrice.add(tax);\r\n\r\n        return price;\r\n    }\r\n\r\n    /// @notice Calculate amout required to approve to buy a parcel\r\n    /// @param timestamp Frame's timestamp get's calculated from this value\r\n    /// @param pairPrice Is trading pair's price (to get correct parcel key) \r\n    /// @param newSellPrice New sell price is required to calculate tax\r\n    function buyParcel(uint timestamp, uint pairPrice, uint newSellPrice) public payable {\r\n        uint frameKey =  getOrCreateFrame(timestamp);                          \r\n        \r\n        uint parcelKey = getOrCreateParcel(frameKey, pairPrice);\r\n\r\n        //Calculate tax from the propoed new price (newSellPrice)\r\n        uint numOfFramesLeft = clcFramesLeft(timestamp);\r\n        uint tax = newSellPrice.mul(taxMarket).div(100000).mul(numOfFramesLeft);\r\n\r\n        //Approved amount has to be at leat equal to price of the Parcel(with tax)\r\n        require(accountingToken.allowance(msg.sender, address(this)) >= frames[frameKey].parcels[parcelKey].currentPrice.add(tax), \"APPROVED AMOUNT IS NOT ENOUGH\");\r\n        \r\n        //Transfer complete tax amount to the frame rewardFund\r\n        accountingToken.transferFrom(msg.sender, address(this), frames[frameKey].parcels[parcelKey].currentPrice.add(tax));\r\n        frames[frameKey].rewardFund = frames[frameKey].rewardFund.add(tax);\r\n\r\n\r\n\r\n        if (frames[frameKey].parcels[parcelKey].state == SParcel.BOUGHT) {\r\n            //Pay the Parcel price to current owner + return tax\r\n            uint oldTaxToReturn = frames[frameKey].parcels[parcelKey].currentPrice.mul(taxMarket).div(100000).mul(numOfFramesLeft);\r\n            uint amount = (oldTaxToReturn.add(frames[frameKey].parcels[parcelKey].currentPrice));\r\n            accountingToken.transfer(frames[frameKey].parcels[parcelKey].parcelOwners[getNumberOfParcelOwners(frameKey, parcelKey).sub(1)].owner, amount);\r\n            frames[frameKey].rewardFund = frames[frameKey].rewardFund.sub(oldTaxToReturn);\r\n        }\r\n       \r\n        frames[frameKey].parcels[parcelKey].parcelOwners.push(ParcelOwner(payable(msg.sender), block.number));\r\n        frames[frameKey].parcels[parcelKey].state = SParcel.BOUGHT;\r\n        frames[frameKey].parcels[parcelKey].currentPrice = newSellPrice;\r\n    }\r\n\r\n    /// @notice Update trading pair's prices in the frame\r\n    /// @param PriceCumulative Cumulative price\r\n    /// @dev For developement purposes the new price is added as an input\r\n    /// @dev Final version should use uniswap's oracles\r\n    function updateFramePrices(uint PriceCumulative) public {\r\n        uint frameKey = clcFrameTimestamp(block.timestamp);\r\n        frames[frameKey].lastBlockNum = block.number;\r\n        //Correct price if outside settle interval\r\n        if (block.timestamp <= ((frameKey.add(period)).sub(21600))) {\r\n            frames[frameKey].oraclePrice0CumulativeStart = PriceCumulative;\r\n            frames[frameKey].oracleTimestampStart = block.timestamp;\r\n            emit FrameUpdate(frameKey);\r\n        }\r\n        else if (block.timestamp <= frameKey.add(period)) {\r\n            frames[frameKey].oraclePrice0CumulativeEnd = PriceCumulative;\r\n            frames[frameKey].oracleTimestampEnd = block.timestamp;\r\n            emit FrameUpdate(frameKey);\r\n        }\r\n    }\r\n\r\n    /// @notice Close frame\r\n    /// @param frameKey Frame's timestamp\r\n    function closeFrame(uint frameKey) public {\r\n        //Check if frame is opened\r\n        require(frames[frameKey].state == SFrame.OPENED, \"FRAME NOT OPENED\");\r\n        //Check if frame timing is correct\r\n        require(frameKey.add(period) <= block.timestamp, \"FRAME END TIME NOT REACHED\");\r\n        //Check if frame has valid prices\r\n        if (frames[frameKey].oraclePrice0CumulativeStart <= 0 || frames[frameKey].oraclePrice0CumulativeEnd <= 0) {\r\n            frames[frameKey].state = SFrame.INVALID;\r\n        }\r\n        if (frames[frameKey].oraclePrice0CumulativeStart == frames[frameKey].oraclePrice0CumulativeEnd) {\r\n            frames[frameKey].state = SFrame.INVALID;\r\n        }\r\n        frames[frameKey].state = SFrame.CLOSED;\r\n\r\n        //UQ112x112 encoded\r\n        uint priceDiff = frames[frameKey].oraclePrice0CumulativeEnd.sub(frames[frameKey].oraclePrice0CumulativeStart);\r\n        uint timeDiff = frames[frameKey].oracleTimestampEnd.sub(frames[frameKey].oracleTimestampStart);\r\n        //Calculate time-weighted average price -- UQ112x112 encoded\r\n        frames[frameKey].priceAverage = uint(((FixedPoint.div(FixedPoint.uq112x112(uint224(priceDiff)), (uint112(timeDiff)))))._x);\r\n\r\n        //Decode to scalar value\r\n        frames[frameKey].priceAverage = (frames[frameKey].priceAverage >> 112).mul(scalar); \r\n        frames[frameKey].priceAverage = (frames[frameKey].priceAverage << 112).div(1e49);\r\n\r\n        //Subtract fees from the reward amount and send them to Owners of the market and protocol\r\n        uint marketOwnerFees = frames[frameKey].rewardFund.mul(feeMarket).div(100000);\r\n        uint protocolOwnerFees = frames[frameKey].rewardFund.mul(feeProtocol).div(100000);\r\n\r\n        frames[frameKey].rewardFund = frames[frameKey].rewardFund.sub(marketOwnerFees).sub(protocolOwnerFees);\r\n        accountingToken.transfer(ownerMarket, marketOwnerFees);\r\n        accountingToken.transfer(factory.owner(), protocolOwnerFees);\r\n\r\n        emit FrameUpdate(frameKey);\r\n    }\r\n\r\n    /// @notice Settle parcel for a owner. Owner's share of the reward amount get's transfered to owner's account\r\n    /// @param frameKey Frame's timestamp\r\n    /// @param owner Owner's address\r\n    function settleParcel(uint frameKey, address owner) public {  \r\n        //Check if frame is closed\r\n        require(frames[frameKey].state == SFrame.CLOSED, \"FRAME NOT CLOSED\");    \r\n        uint parcelKeyWin = (clcParcelInterval(frames[frameKey].priceAverage));\r\n\r\n        uint amount = clcSettleAmount(frameKey, parcelKeyWin, owner);\r\n        accountingToken.transfer(owner, amount);\r\n    }\r\n\r\n    /// @notice Calculate owner's share based on the number of blocks the account owned the parcel\r\n    /// @param frameKey Frame's timestamp\r\n    /// @param parcelKey Parcel's key\r\n    /// @param owner Owner's address\r\n    /// @return Owner's precentage\r\n    function clcShare(uint frameKey, uint parcelKey, address owner) public view returns (uint) {\r\n        uint ownerIndex = getParcelOwnerIndex(frameKey, parcelKey, owner);\r\n        require(ownerIndex < getNumberOfParcelOwners(frameKey, parcelKey), \"OWNER DOES NOT EXIST\"); \r\n\r\n        Parcel memory parcel = frames[frameKey].parcels[parcelKey];\r\n\r\n        uint ownerBlock= parcel.parcelOwners[ownerIndex].blockNum;\r\n        uint endBlock = frames[frameKey].lastBlockNum;\r\n        uint firstOwnerBlock= parcel.parcelOwners[0].blockNum;\r\n        uint nextOwnerBlock;\r\n\r\n        if (getNumberOfParcelOwners(frameKey, parcelKey)-1 == ownerIndex) nextOwnerBlock = endBlock;\r\n        else nextOwnerBlock = parcel.parcelOwners[ownerIndex + 1].blockNum;\r\n\r\n        //nextOwnerBlock = parcels[parcelIndex].parcelOwners[ownerIndex + 1].blockNum;\r\n    \r\n        uint ownerBlocks = nextOwnerBlock.sub(ownerBlock);\r\n        uint allBlocks = endBlock.sub(firstOwnerBlock);\r\n\r\n        uint share = ownerBlocks.mul(scalar).div(allBlocks);\r\n        return share;     \r\n    }\r\n\r\n    /// @notice Calculate owner's winning amount\r\n    /// @param frameKey Frame's timestamp\r\n    /// @param parcelKey Parcel's key\r\n    /// @param owner Owner's address\r\n    /// @return Owner's winnings\r\n    function clcSettleAmount(uint frameKey, uint parcelKey, address owner) public view returns (uint){\r\n        \r\n        return clcShare(frameKey, parcelKey, owner).mul(frames[frameKey].rewardFund).div(scalar);\r\n\r\n    }\r\n\r\n\r\n\r\n\r\n}",
  "sourcePath": "D:/prog/UniHedge/core/contracts/Market.sol",
  "compiler": {
    "name": "solc",
    "version": "0.8.6+commit.11564f7e.Emscripten.clang"
  },
  "schemaVersion": "3.4.1",
  "updatedAt": "2021-07-06T07:47:31.753Z",
  "devdoc": {
    "author": "UniHedge",
    "details": "All function calls are currently implemented without side effects",
    "kind": "dev",
    "methods": {
      "AmountToApprove(uint256,uint256,uint256)": {
        "params": {
          "frameKey": "Frame's timestamp",
          "newSellPrice": "New sell price is required to calculate tax",
          "pairPrice": "Value is trading pair's price (to get correct parcel key) "
        },
        "returns": {
          "_0": "amoun to approve"
        }
      },
      "buyParcel(uint256,uint256,uint256)": {
        "params": {
          "newSellPrice": "New sell price is required to calculate tax",
          "pairPrice": "Is trading pair's price (to get correct parcel key) ",
          "timestamp": "Frame's timestamp get's calculated from this value"
        }
      },
      "clcFrameTimestamp(uint256)": {
        "params": {
          "timestamp": "In seconds"
        },
        "returns": {
          "_0": "frame's timestamp (key)"
        }
      },
      "clcFramesLeft(uint256)": {
        "params": {
          "frameKey": "Timestamp of an arbitary frame in the future"
        },
        "returns": {
          "_0": "number of frames (whole numbers: n=0,1,2...)"
        }
      },
      "clcParcelInterval(uint256)": {
        "params": {
          "value": "Arbitary price of market's Uniswap pair"
        },
        "returns": {
          "_0": "parcel key (bottom boundary)"
        }
      },
      "clcSettleAmount(uint256,uint256,address)": {
        "params": {
          "frameKey": "Frame's timestamp",
          "owner": "Owner's address",
          "parcelKey": "Parcel's key"
        },
        "returns": {
          "_0": "Owner's winnings"
        }
      },
      "clcShare(uint256,uint256,address)": {
        "params": {
          "frameKey": "Frame's timestamp",
          "owner": "Owner's address",
          "parcelKey": "Parcel's key"
        },
        "returns": {
          "_0": "Owner's precentage"
        }
      },
      "closeFrame(uint256)": {
        "params": {
          "frameKey": "Frame's timestamp"
        }
      },
      "getApprovedAmount()": {
        "returns": {
          "_0": "approved amount"
        }
      },
      "getCurrentPrice(uint256,uint256)": {
        "params": {
          "frameKey": "Frame's timestamp",
          "parcelKey": "Parcel's key "
        },
        "returns": {
          "_0": "price that the current owner set"
        }
      },
      "getNumberOfFrameKeys()": {
        "returns": {
          "_0": "number frames"
        }
      },
      "getNumberOfParcelOwners(uint256,uint256)": {
        "params": {
          "frameKey": "Frame's timestamp",
          "parcelKey": "Parcel's key "
        },
        "returns": {
          "_0": "number of owners"
        }
      },
      "getOrCreateFrame(uint256)": {
        "params": {
          "timestamp": "In second."
        },
        "returns": {
          "_0": "frameTimestamp Frame's key (timestamp that indicated the beggining of a frame)."
        }
      },
      "getParcelOwnerIndex(uint256,uint256,address)": {
        "params": {
          "frameKey": "Frame's timestamp",
          "owner": "Owners account address",
          "parcelKey": "Parcel's key "
        },
        "returns": {
          "_0": "owner's index"
        }
      },
      "getRewardAmount(uint256)": {
        "params": {
          "frameKey": "Frame's timestamp"
        },
        "returns": {
          "_0": "award amount"
        }
      },
      "settleParcel(uint256,address)": {
        "params": {
          "frameKey": "Frame's timestamp",
          "owner": "Owner's address"
        }
      },
      "updateFramePrices(uint256)": {
        "details": "For developement purposes the new price is added as an inputFinal version should use uniswap's oracles",
        "params": {
          "PriceCumulative": "Cumulative price"
        }
      }
    },
    "title": "TWPM Market",
    "version": 1
  },
  "userdoc": {
    "kind": "user",
    "methods": {
      "AmountToApprove(uint256,uint256,uint256)": {
        "notice": "Calculate amout required to approve to buy a parcel"
      },
      "buyParcel(uint256,uint256,uint256)": {
        "notice": "Calculate amout required to approve to buy a parcel"
      },
      "clcFrameTimestamp(uint256)": {
        "notice": "Calculate frames timestamp (beggining of frame)"
      },
      "clcFramesLeft(uint256)": {
        "notice": "Calculate how many frames there are left untill given frame in input"
      },
      "clcParcelInterval(uint256)": {
        "notice": "Calculate bottom boundary of a parcel"
      },
      "clcSettleAmount(uint256,uint256,address)": {
        "notice": "Calculate owner's winning amount"
      },
      "clcShare(uint256,uint256,address)": {
        "notice": "Calculate owner's share based on the number of blocks the account owned the parcel"
      },
      "closeFrame(uint256)": {
        "notice": "Close frame"
      },
      "getApprovedAmount()": {
        "notice": "Get msg senders approved amount of accounting token to this contract (market)"
      },
      "getCurrentPrice(uint256,uint256)": {
        "notice": "Get current price of a parcel in a frame"
      },
      "getNumberOfFrameKeys()": {
        "notice": "Get number of frames"
      },
      "getNumberOfParcelOwners(uint256,uint256)": {
        "notice": "Get number of accounts that owned a specific parcel"
      },
      "getOrCreateFrame(uint256)": {
        "notice": "Create a frame"
      },
      "getParcelOwnerIndex(uint256,uint256,address)": {
        "notice": "Calculate parcel owner's index in the array of owners of the parcel"
      },
      "getRewardAmount(uint256)": {
        "notice": "Get frame's award amount (accumulation of different parcel taxes)Remaining tax of a parcel owner get's returned after a sale (change of ownership). So the award amount isn't for sure untill the frame get's closed."
      },
      "settleParcel(uint256,address)": {
        "notice": "Settle parcel for a owner. Owner's share of the reward amount get's transfered to owner's account"
      },
      "updateFramePrices(uint256)": {
        "notice": "Update trading pair's prices in the frame"
      }
    },
    "version": 1
  }
}