{
  "contractName": "MarketFactory",
  "abi": [
    {
      "inputs": [
        {
          "internalType": "address",
          "name": "_uniswapFactory",
          "type": "address"
        }
      ],
      "stateMutability": "nonpayable",
      "type": "constructor"
    },
    {
      "inputs": [
        {
          "internalType": "address",
          "name": "",
          "type": "address"
        }
      ],
      "name": "markets",
      "outputs": [
        {
          "internalType": "contract Market",
          "name": "",
          "type": "address"
        }
      ],
      "stateMutability": "view",
      "type": "function",
      "constant": true
    },
    {
      "inputs": [
        {
          "internalType": "uint256",
          "name": "",
          "type": "uint256"
        }
      ],
      "name": "marketsKeys",
      "outputs": [
        {
          "internalType": "address",
          "name": "",
          "type": "address"
        }
      ],
      "stateMutability": "view",
      "type": "function",
      "constant": true
    },
    {
      "inputs": [],
      "name": "owner",
      "outputs": [
        {
          "internalType": "address",
          "name": "",
          "type": "address"
        }
      ],
      "stateMutability": "view",
      "type": "function",
      "constant": true
    },
    {
      "inputs": [],
      "name": "uniswapFactory",
      "outputs": [
        {
          "internalType": "contract IUniswapV2Factory",
          "name": "",
          "type": "address"
        }
      ],
      "stateMutability": "view",
      "type": "function",
      "constant": true
    },
    {
      "inputs": [
        {
          "internalType": "address",
          "name": "_token",
          "type": "address"
        },
        {
          "internalType": "address",
          "name": "_uniswapPair",
          "type": "address"
        },
        {
          "internalType": "uint256",
          "name": "_period",
          "type": "uint256"
        },
        {
          "internalType": "uint256",
          "name": "_initTimestamp",
          "type": "uint256"
        },
        {
          "internalType": "uint256",
          "name": "_tax",
          "type": "uint256"
        },
        {
          "internalType": "uint256",
          "name": "_fee",
          "type": "uint256"
        },
        {
          "internalType": "uint256",
          "name": "_dPrice",
          "type": "uint256"
        },
        {
          "internalType": "uint256",
          "name": "_tReporting",
          "type": "uint256"
        }
      ],
      "name": "addMarket",
      "outputs": [],
      "stateMutability": "nonpayable",
      "type": "function"
    },
    {
      "inputs": [],
      "name": "getMarketsCount",
      "outputs": [
        {
          "internalType": "uint256",
          "name": "",
          "type": "uint256"
        }
      ],
      "stateMutability": "view",
      "type": "function",
      "constant": true
    }
  ],
  "bytecode": "0x608060405234801561001057600080fd5b50604051614e1c380380614e1c833981810160405281019061003291906100ce565b33600360006101000a81548173ffffffffffffffffffffffffffffffffffffffff021916908373ffffffffffffffffffffffffffffffffffffffff160217905550806000806101000a81548173ffffffffffffffffffffffffffffffffffffffff021916908373ffffffffffffffffffffffffffffffffffffffff16021790555050610149565b6000815190506100c881610132565b92915050565b6000602082840312156100e4576100e361012d565b5b60006100f2848285016100b9565b91505092915050565b60006101068261010d565b9050919050565b600073ffffffffffffffffffffffffffffffffffffffff82169050919050565b600080fd5b61013b816100fb565b811461014657600080fd5b50565b614cc4806101586000396000f3fe60806040523480156200001157600080fd5b50600436106200006a5760003560e01c806327fa35c3146200006f57806346a81c00146200009157806365dedacd14620000c75780638bdb2afa14620000e75780638da5cb5b14620001095780638e8f294b146200012b575b600080fd5b6200007962000161565b6040516200008891906200063a565b60405180910390f35b620000af6004803603810190620000a991906200049b565b6200016e565b604051620000be919062000544565b60405180910390f35b620000e56004803603810190620000df9190620003d2565b620001ae565b005b620000f1620002e7565b60405162000100919062000561565b60405180910390f35b620001136200030b565b60405162000122919062000544565b60405180910390f35b620001496004803603810190620001439190620003a0565b62000331565b6040516200015891906200061d565b60405180910390f35b6000600280549050905090565b600281815481106200017f57600080fd5b906000526020600020016000915054906101000a900473ffffffffffffffffffffffffffffffffffffffff1681565b6000308989898989898989604051620001c79062000364565b620001db999897969594939291906200057e565b604051809103906000f080158015620001f8573d6000803e3d6000fd5b50905080600160008373ffffffffffffffffffffffffffffffffffffffff1673ffffffffffffffffffffffffffffffffffffffff16815260200190815260200160002060006101000a81548173ffffffffffffffffffffffffffffffffffffffff021916908373ffffffffffffffffffffffffffffffffffffffff1602179055506002819080600181540180825580915050600190039060005260206000200160009091909190916101000a81548173ffffffffffffffffffffffffffffffffffffffff021916908373ffffffffffffffffffffffffffffffffffffffff160217905550505050505050505050565b60008054906101000a900473ffffffffffffffffffffffffffffffffffffffff1681565b600360009054906101000a900473ffffffffffffffffffffffffffffffffffffffff1681565b60016020528060005260406000206000915054906101000a900473ffffffffffffffffffffffffffffffffffffffff1681565b6144f8806200079783390190565b600081359050620003838162000762565b92915050565b6000813590506200039a816200077c565b92915050565b600060208284031215620003b957620003b86200075d565b5b6000620003c98482850162000372565b91505092915050565b600080600080600080600080610100898b031215620003f657620003f56200075d565b5b6000620004068b828c0162000372565b9850506020620004198b828c0162000372565b97505060406200042c8b828c0162000389565b96505060606200043f8b828c0162000389565b9550506080620004528b828c0162000389565b94505060a0620004658b828c0162000389565b93505060c0620004788b828c0162000389565b92505060e06200048b8b828c0162000389565b9150509295985092959890939650565b600060208284031215620004b457620004b36200075d565b5b6000620004c48482850162000389565b91505092915050565b620004d88162000657565b82525050565b620004e98162000695565b82525050565b620004fa81620006bd565b82525050565b6200050b81620006e5565b82525050565b6200051c816200070d565b82525050565b6200052d8162000735565b82525050565b6200053e816200068b565b82525050565b60006020820190506200055b6000830184620004cd565b92915050565b6000602082019050620005786000830184620004ef565b92915050565b60006101208201905062000596600083018c62000511565b620005a5602083018b620004de565b620005b4604083018a62000500565b620005c3606083018962000533565b620005d2608083018862000533565b620005e160a083018762000533565b620005f060c083018662000533565b620005ff60e083018562000533565b6200060f61010083018462000533565b9a9950505050505050505050565b600060208201905062000634600083018462000522565b92915050565b600060208201905062000651600083018462000533565b92915050565b600062000664826200066b565b9050919050565b600073ffffffffffffffffffffffffffffffffffffffff82169050919050565b6000819050919050565b6000620006a282620006a9565b9050919050565b6000620006b6826200066b565b9050919050565b6000620006ca82620006d1565b9050919050565b6000620006de826200066b565b9050919050565b6000620006f282620006f9565b9050919050565b600062000706826200066b565b9050919050565b60006200071a8262000721565b9050919050565b60006200072e826200066b565b9050919050565b6000620007428262000749565b9050919050565b600062000756826200066b565b9050919050565b600080fd5b6200076d8162000657565b81146200077957600080fd5b50565b62000787816200068b565b81146200079357600080fd5b5056fe6080604052606460095569d3c21bcecceda1000000600b553480156200002457600080fd5b50604051620044f8380380620044f883398181016040528101906200004a9190620001e2565b87600160006101000a81548173ffffffffffffffffffffffffffffffffffffffff021916908373ffffffffffffffffffffffffffffffffffffffff16021790555033600260006101000a81548173ffffffffffffffffffffffffffffffffffffffff021916908373ffffffffffffffffffffffffffffffffffffffff1602179055508560038190555084600481905550836008819055508260078190555086600560006101000a81548173ffffffffffffffffffffffffffffffffffffffff021916908373ffffffffffffffffffffffffffffffffffffffff16021790555081600681905550886000806101000a81548173ffffffffffffffffffffffffffffffffffffffff021916908373ffffffffffffffffffffffffffffffffffffffff16021790555080600a81905550505050505050505050620003a8565b600081519050620001978162000340565b92915050565b600081519050620001ae816200035a565b92915050565b600081519050620001c58162000374565b92915050565b600081519050620001dc816200038e565b92915050565b60008060008060008060008060006101208a8c0312156200020857620002076200033b565b5b6000620002188c828d01620001b4565b99505060206200022b8c828d0162000186565b98505060406200023e8c828d016200019d565b9750506060620002518c828d01620001cb565b9650506080620002648c828d01620001cb565b95505060a0620002778c828d01620001cb565b94505060c06200028a8c828d01620001cb565b93505060e06200029d8c828d01620001cb565b925050610100620002b18c828d01620001cb565b9150509295985092959850929598565b6000620002ce8262000311565b9050919050565b6000620002e282620002c1565b9050919050565b6000620002f682620002c1565b9050919050565b60006200030a82620002c1565b9050919050565b600073ffffffffffffffffffffffffffffffffffffffff82169050919050565b6000819050919050565b600080fd5b6200034b81620002d5565b81146200035757600080fd5b50565b6200036581620002e9565b81146200037157600080fd5b50565b6200037f81620002fd565b81146200038b57600080fd5b50565b620003998162000331565b8114620003a557600080fd5b50565b61414080620003b86000396000f3fe6080604052600436106101ee5760003560e01c80635b3ad63e1161010d578063c45a0155116100a0578063ec77fe111161006f578063ec77fe11146107ab578063ef78d4fd146107c7578063f27da3ac146107f2578063fc9507021461082f578063ff5c86b014610858576101ee565b8063c45a0155146106ed578063c816841b14610718578063c84993af14610743578063da68cf8b14610780576101ee565b806389da88a3116100dc57806389da88a314610623578063953331941461064e578063a10340bc1461066a578063ba9d1d68146106b0576101ee565b80635b3ad63e146105535780637358c57a146105905780637d6ae6a0146105bb5780637e996639146105f8576101ee565b8063410f0710116101855780634f3ab71f116101545780634f3ab71f14610471578063527eb4bc146104ae57806354bc7f6c146104d95780635619e1f514610516576101ee565b8063410f0710146103b357806342d3da1d146103de578063450847751461041b578063499a0fc414610446576101ee565b80632a0efd44116101c15780632a0efd44146102e757806331cf77b41461031057806331e592e21461034d5780633d7a7eac14610376576101ee565b8063050e8840146101f35780630cbcff8f1461023057806318ff0e071461026d5780631e501486146102aa575b600080fd5b3480156101ff57600080fd5b5061021a60048036038101906102159190613260565b610883565b60405161022791906139ed565b60405180910390f35b34801561023c57600080fd5b5061025760048036038101906102529190613260565b6108a7565b60405161026491906139ed565b60405180910390f35b34801561027957600080fd5b50610294600480360381019061028f9190613260565b610a62565b6040516102a191906139ed565b60405180910390f35b3480156102b657600080fd5b506102d160048036038101906102cc919061333a565b610aba565b6040516102de91906139ed565b60405180910390f35b3480156102f357600080fd5b5061030e60048036038101906103099190613260565b610ca3565b005b34801561031c57600080fd5b50610337600480360381019061033291906132fa565b610e54565b60405161034491906139ed565b60405180910390f35b34801561035957600080fd5b50610374600480360381019061036f91906132ba565b610e8c565b005b34801561038257600080fd5b5061039d600480360381019061039891906133e0565b610ffe565b6040516103aa91906139ed565b60405180910390f35b3480156103bf57600080fd5b506103c8611164565b6040516103d591906139ed565b60405180910390f35b3480156103ea57600080fd5b50610405600480360381019061040091906132fa565b61116a565b60405161041291906139cb565b60405180910390f35b34801561042757600080fd5b506104306112ba565b60405161043d919061376d565b60405180910390f35b34801561045257600080fd5b5061045b6112e0565b60405161046891906139ed565b60405180910390f35b34801561047d57600080fd5b506104986004803603810190610493919061333a565b6112e6565b6040516104a591906139ed565b60405180910390f35b3480156104ba57600080fd5b506104c36113f5565b6040516104d091906139ed565b60405180910390f35b3480156104e557600080fd5b5061050060048036038101906104fb9190613260565b6113fb565b60405161050d91906139ed565b60405180910390f35b34801561052257600080fd5b5061053d6004803603810190610538919061333a565b61141e565b60405161054a91906139ed565b60405180910390f35b34801561055f57600080fd5b5061057a60048036038101906105759190613260565b611470565b60405161058791906139ed565b60405180910390f35b34801561059c57600080fd5b506105a56114c8565b6040516105b291906139ed565b60405180910390f35b3480156105c757600080fd5b506105e260048036038101906105dd9190613260565b6114ce565b6040516105ef91906139ed565b60405180910390f35b34801561060457600080fd5b5061060d611511565b60405161061a91906139ed565b60405180910390f35b34801561062f57600080fd5b50610638611517565b60405161064591906139ed565b60405180910390f35b6106686004803603810190610663919061338d565b611524565b005b34801561067657600080fd5b50610691600480360381019061068c9190613260565b611d78565b6040516106a79a99989796959493929190613a08565b60405180910390f35b3480156106bc57600080fd5b506106d760048036038101906106d291906132fa565b611dd9565b6040516106e49190613752565b60405180910390f35b3480156106f957600080fd5b50610702611e87565b60405161070f9190613870565b60405180910390f35b34801561072457600080fd5b5061072d611eab565b60405161073a9190613855565b60405180910390f35b34801561074f57600080fd5b5061076a60048036038101906107659190613260565b611ed1565b60405161077791906139ed565b60405180910390f35b34801561078c57600080fd5b50610795611ef1565b6040516107a2919061383a565b60405180910390f35b6107c560048036038101906107c0919061338d565b611f17565b005b3480156107d357600080fd5b506107dc612506565b6040516107e991906139ed565b60405180910390f35b3480156107fe57600080fd5b50610819600480360381019061081491906132fa565b61250c565b60405161082691906139ed565b60405180910390f35b34801561083b57600080fd5b5061085660048036038101906108519190613260565b612549565b005b34801561086457600080fd5b5061086d612c36565b60405161087a91906139ed565b60405180910390f35b600d818154811061089357600080fd5b906000526020600020016000915090505481565b60006004548210156108ee576040517f08c379a00000000000000000000000000000000000000000000000000000000081526004016108e59061390b565b60405180910390fd5b60006108f983611470565b90506000600381111561090f5761090e613e7a565b5b600c600083815260200190815260200160002060010160009054906101000a900460ff16600381111561094557610944613e7a565b5b146109535780915050610a5d565b61095c42611470565b81101561099e576040517f08c379a0000000000000000000000000000000000000000000000000000000008152600401610995906138cb565b60405180910390fd5b80600c6000838152602001908152602001600020600001819055506001600c600083815260200190815260200160002060010160006101000a81548160ff021916908360038111156109f3576109f2613e7a565b5b0217905550600d8190806001815401808255809150506001900390600052602060002001600090919091909150557f163614e6e9ce9df7687928015fd2c748b69c5136db886e57f09170b251b58e8781604051610a5091906139ed565b60405180910390a1809150505b919050565b6000808211610a75576006549050610ab5565b610ab2600654610aa4600654610a9660065487612c3c90919063ffffffff16565b612c5290919063ffffffff16565b612c6890919063ffffffff16565b90505b919050565b600080600c60008681526020019081526020016000206009015490506000600c6000878152602001908152602001600020600a0160008681526020019081526020016000206040518060800160405290816000820154815260200160018201805480602002602001604051908101604052809291908181526020016000905b82821015610bcb57838290600052602060002090600202016040518060400160405290816000820160009054906101000a900473ffffffffffffffffffffffffffffffffffffffff1673ffffffffffffffffffffffffffffffffffffffff1673ffffffffffffffffffffffffffffffffffffffff16815260200160018201548152505081526020019060010190610b39565b505050508152602001600282015481526020016003820160009054906101000a900460ff166002811115610c0257610c01613e7a565b5b6002811115610c1457610c13613e7a565b5b81525050905060008160200151600081518110610c3457610c33613ea9565b5b60200260200101516020015190506000610c4f888888612c7e565b90506000610c668386612f6590919063ffffffff16565b90506000610c9182610c83600b5486612c5290919063ffffffff16565b612c3c90919063ffffffff16565b90508096505050505050509392505050565b6000610cae42611470565b905043600c600083815260200190815260200160002060090181905550610cf4600a54610ce660035484612c6890919063ffffffff16565b612f6590919063ffffffff16565b4210158015610d1957506000600c600083815260200190815260200160002060040154145b15610d905781600c60008381526020019081526020016000206004018190555042600c6000838152602001908152602001600020600701819055507f163614e6e9ce9df7687928015fd2c748b69c5136db886e57f09170b251b58e8781604051610d8391906139ed565b60405180910390a1610e50565b610da560035482612c6890919063ffffffff16565b4211158015610ddc5750610dd8600a54610dca60035484612c6890919063ffffffff16565b612f6590919063ffffffff16565b4210155b15610e4f5781600c60008381526020019081526020016000206005018190555042600c6000838152602001908152602001600020600801819055507f163614e6e9ce9df7687928015fd2c748b69c5136db886e57f09170b251b58e8781604051610e4691906139ed565b60405180910390a15b5b5050565b6000600c6000848152602001908152602001600020600a01600083815260200190815260200160002060010180549050905092915050565b60026003811115610ea057610e9f613e7a565b5b600c600084815260200190815260200160002060010160009054906101000a900460ff166003811115610ed657610ed5613e7a565b5b14610f16576040517f08c379a0000000000000000000000000000000000000000000000000000000008152600401610f0d9061392b565b60405180910390fd5b6000610f37600c600085815260200190815260200160002060020154610a62565b90506000610f4684838561141e565b9050600160009054906101000a900473ffffffffffffffffffffffffffffffffffffffff1673ffffffffffffffffffffffffffffffffffffffff1663a9059cbb84836040518363ffffffff1660e01b8152600401610fa5929190613811565b602060405180830381600087803b158015610fbf57600080fd5b505af1158015610fd3573d6000803e3d6000fd5b505050506040513d601f19601f82011682018060405250810190610ff79190613233565b5050505050565b60008061100a85610a62565b9050600061102961101a85611470565b85612f6590919063ffffffff16565b9050600061105660035461104884600b54612c5290919063ffffffff16565b612c3c90919063ffffffff16565b90506000611063896114ce565b905060006110a382611095620186a06110876008548d612c5290919063ffffffff16565b612c3c90919063ffffffff16565b612c5290919063ffffffff16565b905060006110d1620186a06110c36008548c612c5290919063ffffffff16565b612c3c90919063ffffffff16565b90506110fa600b546110ec8684612c5290919063ffffffff16565b612c3c90919063ffffffff16565b905061110f8183612c6890919063ffffffff16565b9150600061115083600c60008f8152602001908152602001600020600a0160008a815260200190815260200160002060020154612c6890919063ffffffff16565b905080975050505050505050949350505050565b60075481565b611172613132565b600c6000848152602001908152602001600020600a0160008381526020019081526020016000206040518060800160405290816000820154815260200160018201805480602002602001604051908101604052809291908181526020016000905b8282101561126557838290600052602060002090600202016040518060400160405290816000820160009054906101000a900473ffffffffffffffffffffffffffffffffffffffff1673ffffffffffffffffffffffffffffffffffffffff1673ffffffffffffffffffffffffffffffffffffffff168152602001600182015481525050815260200190600101906111d3565b505050508152602001600282015481526020016003820160009054906101000a900460ff16600281111561129c5761129b613e7a565b5b60028111156112ae576112ad613e7a565b5b81525050905092915050565b600260009054906101000a900473ffffffffffffffffffffffffffffffffffffffff1681565b60065481565b60005b6112f38484610e54565b8110156113b3578173ffffffffffffffffffffffffffffffffffffffff16600c6000868152602001908152602001600020600a016000858152602001908152602001600020600101828154811061134d5761134c613ea9565b5b906000526020600020906002020160000160009054906101000a900473ffffffffffffffffffffffffffffffffffffffff1673ffffffffffffffffffffffffffffffffffffffff1614156113a0576113ee565b80806113ab90613da2565b9150506112e9565b6040517f08c379a00000000000000000000000000000000000000000000000000000000081526004016113e5906139ab565b60405180910390fd5b9392505050565b60095481565b6000600c6000838152602001908152602001600020600b01805490509050919050565b6000611467600b54611459600c60008881526020019081526020016000206003015461144b888888610aba565b612c5290919063ffffffff16565b612c3c90919063ffffffff16565b90509392505050565b600060045482116114855760045490506114c3565b6114c06114b16003546114a360045486612f6590919063ffffffff16565b612f7b90919063ffffffff16565b83612f6590919063ffffffff16565b90505b919050565b60045481565b600061150a60016114fc6003546114ee4287612f6590919063ffffffff16565b612c3c90919063ffffffff16565b612c6890919063ffffffff16565b9050919050565b60085481565b6000600d80549050905090565b600061152f846108a7565b9050600061153d8285612f91565b90506115498282611dd9565b73ffffffffffffffffffffffffffffffffffffffff163373ffffffffffffffffffffffffffffffffffffffff1614156115b7576040517f08c379a00000000000000000000000000000000000000000000000000000000081526004016115ae9061394b565b60405180910390fd5b60006115d46115c542611470565b42612f6590919063ffffffff16565b905060006116016003546115f384600b54612c5290919063ffffffff16565b612c3c90919063ffffffff16565b90506000611655600b5461164784611639620186a061162b6008548d612c5290919063ffffffff16565b612c3c90919063ffffffff16565b612c5290919063ffffffff16565b612c3c90919063ffffffff16565b90506000611662896114ce565b905060006116a282611694620186a06116866008548d612c5290919063ffffffff16565b612c3c90919063ffffffff16565b612c5290919063ffffffff16565b90506116b78382612c6890919063ffffffff16565b90506116f681600c60008a8152602001908152602001600020600a01600089815260200190815260200160002060020154612c6890919063ffffffff16565b600160009054906101000a900473ffffffffffffffffffffffffffffffffffffffff1673ffffffffffffffffffffffffffffffffffffffff1663dd62ed3e33306040518363ffffffff1660e01b81526004016117539291906137b1565b60206040518083038186803b15801561176b57600080fd5b505afa15801561177f573d6000803e3d6000fd5b505050506040513d601f19601f820116820180604052508101906117a3919061328d565b10156117e4576040517f08c379a00000000000000000000000000000000000000000000000000000000081526004016117db9061396b565b60405180910390fd5b600160009054906101000a900473ffffffffffffffffffffffffffffffffffffffff1673ffffffffffffffffffffffffffffffffffffffff166323b872dd333061186185600c60008e8152602001908152602001600020600a0160008d815260200190815260200160002060020154612c6890919063ffffffff16565b6040518463ffffffff1660e01b815260040161187f939291906137da565b602060405180830381600087803b15801561189957600080fd5b505af11580156118ad573d6000803e3d6000fd5b505050506040513d601f19601f820116820180604052508101906118d19190613233565b506118fb81600c60008a815260200190815260200160002060030154612c6890919063ffffffff16565b600c6000898152602001908152602001600020600301819055506001600281111561192957611928613e7a565b5b600c6000898152602001908152602001600020600a01600088815260200190815260200160002060030160009054906101000a900460ff16600281111561197357611972613e7a565b5b1415611c19576000600c6000898152602001908152602001600020600a01600088815260200190815260200160002060020154905060006119fa600b546119ec886119de620186a06119d060085489612c5290919063ffffffff16565b612c3c90919063ffffffff16565b612c5290919063ffffffff16565b612c3c90919063ffffffff16565b90506000611a3a85611a2c620186a0611a1e60085488612c5290919063ffffffff16565b612c3c90919063ffffffff16565b612c5290919063ffffffff16565b9050611a4f8282612c6890919063ffffffff16565b90506000611a90600c60008d8152602001908152602001600020600a0160008c81526020019081526020016000206002015483612c6890919063ffffffff16565b90506000611ab16001611aa38e8e610e54565b612f6590919063ffffffff16565b9050600160009054906101000a900473ffffffffffffffffffffffffffffffffffffffff1673ffffffffffffffffffffffffffffffffffffffff1663a9059cbb600c60008f8152602001908152602001600020600a0160008e81526020019081526020016000206001018381548110611b2d57611b2c613ea9565b5b906000526020600020906002020160000160009054906101000a900473ffffffffffffffffffffffffffffffffffffffff16846040518363ffffffff1660e01b8152600401611b7d929190613788565b602060405180830381600087803b158015611b9757600080fd5b505af1158015611bab573d6000803e3d6000fd5b505050506040513d601f19601f82011682018060405250810190611bcf9190613233565b50611bf983600c60008f815260200190815260200160002060030154612f6590919063ffffffff16565b600c60008e81526020019081526020016000206003018190555050505050505b600c6000888152602001908152602001600020600a01600087815260200190815260200160002060010160405180604001604052803373ffffffffffffffffffffffffffffffffffffffff16815260200143815250908060018154018082558091505060019003906000526020600020906002020160009091909190915060008201518160000160006101000a81548173ffffffffffffffffffffffffffffffffffffffff021916908373ffffffffffffffffffffffffffffffffffffffff1602179055506020820151816001015550506001600c6000898152602001908152602001600020600a01600088815260200190815260200160002060030160006101000a81548160ff02191690836002811115611d3857611d37613e7a565b5b021790555087600c6000898152602001908152602001600020600a0160008881526020019081526020016000206002018190555050505050505050505050565b600c6020528060005260406000206000915090508060000154908060010160009054906101000a900460ff1690806002015490806003015490806004015490806005015490806006015490806007015490806008015490806009015490508a565b600080611de68484610e54565b1415611df457309050611e81565b600c6000848152602001908152602001600020600a016000838152602001908152602001600020600101611e3b6001611e2d8686610e54565b612f6590919063ffffffff16565b81548110611e4c57611e4b613ea9565b5b906000526020600020906002020160000160009054906101000a900473ffffffffffffffffffffffffffffffffffffffff1690505b92915050565b60008054906101000a900473ffffffffffffffffffffffffffffffffffffffff1681565b600560009054906101000a900473ffffffffffffffffffffffffffffffffffffffff1681565b6000600c6000838152602001908152602001600020600301549050919050565b600160009054906101000a900473ffffffffffffffffffffffffffffffffffffffff1681565b6000611f22846108a7565b90506000611f308285612f91565b90503373ffffffffffffffffffffffffffffffffffffffff16611f538383611dd9565b73ffffffffffffffffffffffffffffffffffffffff1614611fa9576040517f08c379a0000000000000000000000000000000000000000000000000000000008152600401611fa0906138eb565b60405180910390fd5b6000611fb4866114ce565b90506000611fd3611fc442611470565b42612f6590919063ffffffff16565b90506000612000600354611ff284600b54612c5290919063ffffffff16565b612c3c90919063ffffffff16565b90506000612054600b5461204684612038620186a061202a6008548e612c5290919063ffffffff16565b612c3c90919063ffffffff16565b612c5290919063ffffffff16565b612c3c90919063ffffffff16565b9050600061209485612086620186a06120786008548d612c5290919063ffffffff16565b612c3c90919063ffffffff16565b612c5290919063ffffffff16565b90506120a98282612c6890919063ffffffff16565b90506000600c6000898152602001908152602001600020600a01600088815260200190815260200160002060020154905061212a600b5461211c8661210e620186a061210060085488612c5290919063ffffffff16565b612c3c90919063ffffffff16565b612c5290919063ffffffff16565b612c3c90919063ffffffff16565b9250600061216a8761215c620186a061214e6008548f612c5290919063ffffffff16565b612c3c90919063ffffffff16565b612c5290919063ffffffff16565b905061217f8482612c6890919063ffffffff16565b9050808311156123a85761219c8184612f6590919063ffffffff16565b600160009054906101000a900473ffffffffffffffffffffffffffffffffffffffff1673ffffffffffffffffffffffffffffffffffffffff1663dd62ed3e33306040518363ffffffff1660e01b81526004016121f99291906137b1565b60206040518083038186803b15801561221157600080fd5b505afa158015612225573d6000803e3d6000fd5b505050506040513d601f19601f82011682018060405250810190612249919061328d565b101561228a576040517f08c379a00000000000000000000000000000000000000000000000000000000081526004016122819061396b565b60405180910390fd5b600160009054906101000a900473ffffffffffffffffffffffffffffffffffffffff1673ffffffffffffffffffffffffffffffffffffffff166323b872dd33306122dd8588612f6590919063ffffffff16565b6040518463ffffffff1660e01b81526004016122fb939291906137da565b602060405180830381600087803b15801561231557600080fd5b505af1158015612329573d6000803e3d6000fd5b505050506040513d601f19601f8201168201806040525081019061234d9190613233565b506123896123648285612f6590919063ffffffff16565b600c60008c815260200190815260200160002060030154612c6890919063ffffffff16565b600c60008b8152602001908152602001600020600301819055506124c9565b808310156124c857600160009054906101000a900473ffffffffffffffffffffffffffffffffffffffff1673ffffffffffffffffffffffffffffffffffffffff1663a9059cbb336124028685612f6590919063ffffffff16565b6040518363ffffffff1660e01b815260040161241f929190613811565b602060405180830381600087803b15801561243957600080fd5b505af115801561244d573d6000803e3d6000fd5b505050506040513d601f19601f820116820180604052508101906124719190613233565b506124ad6124888483612f6590919063ffffffff16565b600c60008c815260200190815260200160002060030154612f6590919063ffffffff16565b600c60008b8152602001908152602001600020600301819055505b5b89600c60008b8152602001908152602001600020600a0160008a815260200190815260200160002060020181905550505050505050505050505050565b60035481565b6000600c6000848152602001908152602001600020600b01828154811061253657612535613ea9565b5b9060005260206000200154905092915050565b6001600381111561255d5761255c613e7a565b5b600c600083815260200190815260200160002060010160009054906101000a900460ff16600381111561259357612592613e7a565b5b146125d3576040517f08c379a00000000000000000000000000000000000000000000000000000000081526004016125ca906138ab565b60405180910390fd5b426125e960035483612c6890919063ffffffff16565b111561262a576040517f08c379a00000000000000000000000000000000000000000000000000000000081526004016126219061388b565b60405180910390fd5b6000600c60008381526020019081526020016000206004015411158061266757506000600c60008381526020019081526020016000206005015411155b156126ac576003600c600083815260200190815260200160002060010160006101000a81548160ff021916908360038111156126a6576126a5613e7a565b5b02179055505b600c600082815260200190815260200160002060050154600c6000838152602001908152602001600020600401541415612720576003600c600083815260200190815260200160002060010160006101000a81548160ff0219169083600381111561271a57612719613e7a565b5b02179055505b6002600c600083815260200190815260200160002060010160006101000a81548160ff0219169083600381111561275a57612759613e7a565b5b021790555060006127a0600c600084815260200190815260200160002060040154600c600085815260200190815260200160002060050154612f6590919063ffffffff16565b905060006127e3600c600085815260200190815260200160002060070154600c600086815260200190815260200160002060080154612f6590919063ffffffff16565b905061281b6040518060200160405280847bffffffffffffffffffffffffffffffffffffffffffffffffffffffff1681525082613082565b600001517bffffffffffffffffffffffffffffffffffffffffffffffffffffffff16600c600085815260200190815260200160002060020181905550612886600b546070600c600087815260200190815260200160002060020154901c612c5290919063ffffffff16565b600c6000858152602001908152602001600020600201819055506128e27406d79f82328ea3da61e066ebb2f88a0000000000006070600c600087815260200190815260200160002060020154901b612c3c90919063ffffffff16565b600c600085815260200190815260200160002060020181905550600061293e620186a0612930600754600c600089815260200190815260200160002060030154612c5290919063ffffffff16565b612c3c90919063ffffffff16565b90506000612982620186a0612974600954600c60008a815260200190815260200160002060030154612c5290919063ffffffff16565b612c3c90919063ffffffff16565b90506129bf816129b184600c60008a815260200190815260200160002060030154612f6590919063ffffffff16565b612f6590919063ffffffff16565b600c600087815260200190815260200160002060030181905550600160009054906101000a900473ffffffffffffffffffffffffffffffffffffffff1673ffffffffffffffffffffffffffffffffffffffff1663a9059cbb600260009054906101000a900473ffffffffffffffffffffffffffffffffffffffff16846040518363ffffffff1660e01b8152600401612a58929190613788565b602060405180830381600087803b158015612a7257600080fd5b505af1158015612a86573d6000803e3d6000fd5b505050506040513d601f19601f82011682018060405250810190612aaa9190613233565b50600160009054906101000a900473ffffffffffffffffffffffffffffffffffffffff1673ffffffffffffffffffffffffffffffffffffffff1663a9059cbb60008054906101000a900473ffffffffffffffffffffffffffffffffffffffff1673ffffffffffffffffffffffffffffffffffffffff16638da5cb5b6040518163ffffffff1660e01b815260040160206040518083038186803b158015612b4f57600080fd5b505afa158015612b63573d6000803e3d6000fd5b505050506040513d601f19601f82011682018060405250810190612b879190613206565b836040518363ffffffff1660e01b8152600401612ba5929190613811565b602060405180830381600087803b158015612bbf57600080fd5b505af1158015612bd3573d6000803e3d6000fd5b505050506040513d601f19601f82011682018060405250810190612bf79190613233565b507f163614e6e9ce9df7687928015fd2c748b69c5136db886e57f09170b251b58e8785604051612c2791906139ed565b60405180910390a15050505050565b600a5481565b60008183612c4a9190613b75565b905092915050565b60008183612c609190613ba6565b905092915050565b60008183612c769190613aee565b905092915050565b600080600c6000868152602001908152602001600020600a0160008581526020019081526020016000206040518060800160405290816000820154815260200160018201805480602002602001604051908101604052809291908181526020016000905b82821015612d7457838290600052602060002090600202016040518060400160405290816000820160009054906101000a900473ffffffffffffffffffffffffffffffffffffffff1673ffffffffffffffffffffffffffffffffffffffff1673ffffffffffffffffffffffffffffffffffffffff16815260200160018201548152505081526020019060010190612ce2565b505050508152602001600282015481526020016003820160009054906101000a900460ff166002811115612dab57612daa613e7a565b5b6002811115612dbd57612dbc613e7a565b5b8152505090506000600c60008781526020019081526020016000206009015490506000806000805b612def8a8a610e54565b811015612f55578773ffffffffffffffffffffffffffffffffffffffff16600c60008c8152602001908152602001600020600a0160008b81526020019081526020016000206001018281548110612e4957612e48613ea9565b5b906000526020600020906002020160000160009054906101000a900473ffffffffffffffffffffffffffffffffffffffff1673ffffffffffffffffffffffffffffffffffffffff161415612f425785602001518181518110612eae57612ead613ea9565b5b6020026020010151602001519350806001612ec98c8c610e54565b612ed39190613c00565b1415612ee157849250612f1a565b8560200151612efa600183612c6890919063ffffffff16565b81518110612f0b57612f0a613ea9565b5b60200260200101516020015192505b612f3f612f308585612f6590919063ffffffff16565b83612c6890919063ffffffff16565b91505b8080612f4d90613da2565b915050612de5565b5080955050505050509392505050565b60008183612f739190613c00565b905092915050565b60008183612f899190613deb565b905092915050565b600080612f9d83610a62565b905060006002811115612fb357612fb2613e7a565b5b600c6000868152602001908152602001600020600a01600083815260200190815260200160002060030160009054906101000a900460ff166002811115612ffd57612ffc613e7a565b5b1461300b578091505061307c565b80600c6000868152602001908152602001600020600a01600083815260200190815260200160002060000181905550600c6000858152602001908152602001600020600b01819080600181540180825580915050600190039060005260206000200160009091909190915055809150505b92915050565b61308a61316c565b6000826dffffffffffffffffffffffffffff1614156130de576040517f08c379a00000000000000000000000000000000000000000000000000000000081526004016130d59061398b565b60405180910390fd5b6040518060200160405280836dffffffffffffffffffffffffffff1685600001516131099190613b44565b7bffffffffffffffffffffffffffffffffffffffffffffffffffffffff16815250905092915050565b60405180608001604052806000815260200160608152602001600081526020016000600281111561316657613165613e7a565b5b81525090565b604051806020016040528060007bffffffffffffffffffffffffffffffffffffffffffffffffffffffff1681525090565b6000813590506131ac816140c5565b92915050565b6000815190506131c1816140c5565b92915050565b6000815190506131d6816140dc565b92915050565b6000813590506131eb816140f3565b92915050565b600081519050613200816140f3565b92915050565b60006020828403121561321c5761321b613ed8565b5b600061322a848285016131b2565b91505092915050565b60006020828403121561324957613248613ed8565b5b6000613257848285016131c7565b91505092915050565b60006020828403121561327657613275613ed8565b5b6000613284848285016131dc565b91505092915050565b6000602082840312156132a3576132a2613ed8565b5b60006132b1848285016131f1565b91505092915050565b600080604083850312156132d1576132d0613ed8565b5b60006132df858286016131dc565b92505060206132f08582860161319d565b9150509250929050565b6000806040838503121561331157613310613ed8565b5b600061331f858286016131dc565b9250506020613330858286016131dc565b9150509250929050565b60008060006060848603121561335357613352613ed8565b5b6000613361868287016131dc565b9350506020613372868287016131dc565b92505060406133838682870161319d565b9150509250925092565b6000806000606084860312156133a6576133a5613ed8565b5b60006133b4868287016131dc565b93505060206133c5868287016131dc565b92505060406133d6868287016131dc565b9150509250925092565b600080600080608085870312156133fa576133f9613ed8565b5b6000613408878288016131dc565b9450506020613419878288016131dc565b935050604061342a878288016131dc565b925050606061343b878288016131dc565b91505092959194509250565b600061345383836136a2565b60408301905092915050565b61346881613cdc565b82525050565b61347781613c46565b82525050565b61348681613c46565b82525050565b61349581613c34565b82525050565b60006134a682613ab4565b6134b08185613acc565b93506134bb83613aa4565b8060005b838110156134ec5781516134d38882613447565b97506134de83613abf565b9250506001810190506134bf565b5085935050505092915050565b61350281613cee565b82525050565b61351181613d12565b82525050565b61352081613d36565b82525050565b61352f81613d5a565b82525050565b61353e81613d6c565b82525050565b6000613551601a83613add565b915061355c82613edd565b602082019050919050565b6000613574601083613add565b915061357f82613f06565b602082019050919050565b6000613597601a83613add565b91506135a282613f2f565b602082019050919050565b60006135ba601d83613add565b91506135c582613f58565b602082019050919050565b60006135dd602c83613add565b91506135e882613f81565b604082019050919050565b6000613600601083613add565b915061360b82613fd0565b602082019050919050565b6000613623601f83613add565b915061362e82613ff9565b602082019050919050565b6000613646601c83613add565b915061365182614022565b602082019050919050565b6000613669601783613add565b91506136748261404b565b602082019050919050565b600061368c601483613add565b915061369782614074565b602082019050919050565b6040820160008201516136b8600085018261346e565b5060208201516136cb6020850182613734565b50505050565b60006080830160008301516136e96000860182613734565b5060208301518482036020860152613701828261349b565b91505060408301516137166040860182613734565b5060608301516137296060860182613535565b508091505092915050565b61373d81613cd2565b82525050565b61374c81613cd2565b82525050565b6000602082019050613767600083018461348c565b92915050565b6000602082019050613782600083018461347d565b92915050565b600060408201905061379d600083018561345f565b6137aa6020830184613743565b9392505050565b60006040820190506137c6600083018561348c565b6137d3602083018461348c565b9392505050565b60006060820190506137ef600083018661348c565b6137fc602083018561348c565b6138096040830184613743565b949350505050565b6000604082019050613826600083018561348c565b6138336020830184613743565b9392505050565b600060208201905061384f60008301846134f9565b92915050565b600060208201905061386a6000830184613508565b92915050565b60006020820190506138856000830184613517565b92915050565b600060208201905081810360008301526138a481613544565b9050919050565b600060208201905081810360008301526138c481613567565b9050919050565b600060208201905081810360008301526138e48161358a565b9050919050565b60006020820190508181036000830152613904816135ad565b9050919050565b60006020820190508181036000830152613924816135d0565b9050919050565b60006020820190508181036000830152613944816135f3565b9050919050565b6000602082019050818103600083015261396481613616565b9050919050565b6000602082019050818103600083015261398481613639565b9050919050565b600060208201905081810360008301526139a48161365c565b9050919050565b600060208201905081810360008301526139c48161367f565b9050919050565b600060208201905081810360008301526139e581846136d1565b905092915050565b6000602082019050613a026000830184613743565b92915050565b600061014082019050613a1e600083018d613743565b613a2b602083018c613526565b613a38604083018b613743565b613a45606083018a613743565b613a526080830189613743565b613a5f60a0830188613743565b613a6c60c0830187613743565b613a7960e0830186613743565b613a87610100830185613743565b613a95610120830184613743565b9b9a5050505050505050505050565b6000819050602082019050919050565b600081519050919050565b6000602082019050919050565b600082825260208201905092915050565b600082825260208201905092915050565b6000613af982613cd2565b9150613b0483613cd2565b9250827fffffffffffffffffffffffffffffffffffffffffffffffffffffffffffffffff03821115613b3957613b38613e1c565b5b828201905092915050565b6000613b4f82613caa565b9150613b5a83613caa565b925082613b6a57613b69613e4b565b5b828204905092915050565b6000613b8082613cd2565b9150613b8b83613cd2565b925082613b9b57613b9a613e4b565b5b828204905092915050565b6000613bb182613cd2565b9150613bbc83613cd2565b9250817fffffffffffffffffffffffffffffffffffffffffffffffffffffffffffffffff0483118215151615613bf557613bf4613e1c565b5b828202905092915050565b6000613c0b82613cd2565b9150613c1683613cd2565b925082821015613c2957613c28613e1c565b5b828203905092915050565b6000613c3f82613c8a565b9050919050565b6000613c5182613c8a565b9050919050565b60008115159050919050565b6000819050613c728261409d565b919050565b6000819050613c85826140b1565b919050565b600073ffffffffffffffffffffffffffffffffffffffff82169050919050565b60007bffffffffffffffffffffffffffffffffffffffffffffffffffffffff82169050919050565b6000819050919050565b6000613ce782613d7e565b9050919050565b6000613cf982613d00565b9050919050565b6000613d0b82613c8a565b9050919050565b6000613d1d82613d24565b9050919050565b6000613d2f82613c8a565b9050919050565b6000613d4182613d48565b9050919050565b6000613d5382613c8a565b9050919050565b6000613d6582613c64565b9050919050565b6000613d7782613c77565b9050919050565b6000613d8982613d90565b9050919050565b6000613d9b82613c8a565b9050919050565b6000613dad82613cd2565b91507fffffffffffffffffffffffffffffffffffffffffffffffffffffffffffffffff821415613de057613ddf613e1c565b5b600182019050919050565b6000613df682613cd2565b9150613e0183613cd2565b925082613e1157613e10613e4b565b5b828206905092915050565b7f4e487b7100000000000000000000000000000000000000000000000000000000600052601160045260246000fd5b7f4e487b7100000000000000000000000000000000000000000000000000000000600052601260045260246000fd5b7f4e487b7100000000000000000000000000000000000000000000000000000000600052602160045260246000fd5b7f4e487b7100000000000000000000000000000000000000000000000000000000600052603260045260246000fd5b600080fd5b7f4652414d4520454e442054494d45204e4f542052454143484544000000000000600082015250565b7f4652414d45204e4f54204f50454e454400000000000000000000000000000000600082015250565b7f43414e275420435245415445204652414d4520494e2050415354000000000000600082015250565b7f544849532041444452455353204953204e4f5420544845204f574e4552000000600082015250565b7f54494d455354414d50204245464f524520494e495449414c2054494d4553544160008201527f4d50204f46204d41524b45540000000000000000000000000000000000000000602082015250565b7f4652414d45204e4f5420434c4f53454400000000000000000000000000000000600082015250565b7f4144445245535320414c5245414459204f574e53205448452050415243454c00600082015250565b7f415050524f56454420414d4f554e5420495320544f4f20534d414c4c00000000600082015250565b7f4669786564506f696e743a204449565f42595f5a45524f000000000000000000600082015250565b7f4f574e455220444f4553204e4f54204558495354000000000000000000000000600082015250565b600481106140ae576140ad613e7a565b5b50565b600381106140c2576140c1613e7a565b5b50565b6140ce81613c34565b81146140d957600080fd5b50565b6140e581613c58565b81146140f057600080fd5b50565b6140fc81613cd2565b811461410757600080fd5b5056fea26469706673582212200bdc9cf0503f0427861a4fb872d15ac17e3544a48dfabde30f216816189c696764736f6c63430008060033a2646970667358221220ec944b483a206d452992d42d3825ec6355f68aee24ae2424911c879750769c9664736f6c63430008060033",
  "immutableReferences": {},
  "source": "// SPDX-License-Identifier: MIT\r\npragma solidity ^0.8.0;\r\n\r\nimport \"./Market.sol\";\r\nimport \"@uniswap/v2-core/contracts/interfaces/IUniswapV2Factory.sol\";\r\nimport \"@uniswap/v2-core/contracts/interfaces/IUniswapV2Pair.sol\";\r\nimport \"@openzeppelin/contracts/token/ERC20/IERC20.sol\";\r\n\r\ncontract MarketFactory {\r\n\r\n    IUniswapV2Factory public uniswapFactory;\r\n    mapping(address => Market) public markets;\r\n    address[] public marketsKeys;\r\n    address public owner;\r\n\r\n    constructor(address _uniswapFactory) {\r\n        owner = msg.sender;\r\n        uniswapFactory = IUniswapV2Factory(_uniswapFactory);\r\n    }\r\n\r\n    function addMarket(address _token, address _uniswapPair, uint _period, uint _initTimestamp, uint _tax, uint _fee, uint _dPrice, uint _tReporting) external {\r\n        Market market = new Market(this, IERC20(_token), IUniswapV2Pair(_uniswapPair), _period, _initTimestamp, _tax, _fee, _dPrice, _tReporting);\r\n        markets[address(market)] = market;\r\n        marketsKeys.push(address(market));\r\n    }\r\n\r\n    function getMarketsCount() public view returns (uint){\r\n        return marketsKeys.length;\r\n    }\r\n}\r\n",
  "sourcePath": "D:/prog/UniHedge/core/contracts/MarketFactory.sol",
  "compiler": {
    "name": "solc",
    "version": "0.8.6+commit.11564f7e.Emscripten.clang"
  },
  "schemaVersion": "3.4.1",
  "updatedAt": "2021-08-09T07:45:55.294Z",
  "networkType": "ethereum",
  "devdoc": {
    "kind": "dev",
    "methods": {},
    "version": 1
  },
  "userdoc": {
    "kind": "user",
    "methods": {},
    "version": 1
  }
}