{
  "contractName": "Market",
  "abi": [
    {
      "inputs": [
        {
          "internalType": "contract MarketFactory",
          "name": "_factory",
          "type": "address"
        },
        {
          "internalType": "contract IERC20",
          "name": "_token",
          "type": "address"
        },
        {
          "internalType": "contract IUniswapV2Pair",
          "name": "_uniswapPair",
          "type": "address"
        },
        {
          "internalType": "uint256",
          "name": "_period",
          "type": "uint256"
        },
        {
          "internalType": "uint256",
          "name": "_initTimestamp",
          "type": "uint256"
        },
        {
          "internalType": "uint256",
          "name": "_taxMarket",
          "type": "uint256"
        },
        {
          "internalType": "uint256",
          "name": "_feeMarket",
          "type": "uint256"
        },
        {
          "internalType": "uint256",
          "name": "_dPrice",
          "type": "uint256"
        },
        {
          "internalType": "uint256",
          "name": "_tReporting",
          "type": "uint256"
        },
        {
          "internalType": "uint256",
          "name": "_minAcquisitionP",
          "type": "uint256"
        }
      ],
      "stateMutability": "nonpayable",
      "type": "constructor"
    },
    {
      "anonymous": false,
      "inputs": [
        {
          "indexed": false,
          "internalType": "uint256",
          "name": "frameKey",
          "type": "uint256"
        }
      ],
      "name": "FrameUpdate",
      "type": "event"
    },
    {
      "anonymous": false,
      "inputs": [
        {
          "indexed": false,
          "internalType": "uint256",
          "name": "frameKey",
          "type": "uint256"
        },
        {
          "indexed": false,
          "internalType": "uint256",
          "name": "parcelKey",
          "type": "uint256"
        }
      ],
      "name": "ParcelUpdate",
      "type": "event"
    },
    {
      "inputs": [],
      "name": "accountingToken",
      "outputs": [
        {
          "internalType": "contract IERC20",
          "name": "",
          "type": "address"
        }
      ],
      "stateMutability": "view",
      "type": "function"
    },
    {
      "inputs": [],
      "name": "dPrice",
      "outputs": [
        {
          "internalType": "uint256",
          "name": "",
          "type": "uint256"
        }
      ],
      "stateMutability": "view",
      "type": "function"
    },
    {
      "inputs": [],
      "name": "factory",
      "outputs": [
        {
          "internalType": "contract MarketFactory",
          "name": "",
          "type": "address"
        }
      ],
      "stateMutability": "view",
      "type": "function"
    },
    {
      "inputs": [],
      "name": "feeMarket",
      "outputs": [
        {
          "internalType": "uint256",
          "name": "",
          "type": "uint256"
        }
      ],
      "stateMutability": "view",
      "type": "function"
    },
    {
      "inputs": [],
      "name": "feeProtocol",
      "outputs": [
        {
          "internalType": "uint256",
          "name": "",
          "type": "uint256"
        }
      ],
      "stateMutability": "view",
      "type": "function"
    },
    {
      "inputs": [
        {
          "internalType": "uint256",
          "name": "",
          "type": "uint256"
        }
      ],
      "name": "frames",
      "outputs": [
        {
          "internalType": "uint256",
          "name": "frameKey",
          "type": "uint256"
        },
        {
          "internalType": "enum Market.SFrame",
          "name": "state",
          "type": "uint8"
        },
        {
          "internalType": "uint256",
          "name": "priceAverage",
          "type": "uint256"
        },
        {
          "internalType": "uint256",
          "name": "rewardFund",
          "type": "uint256"
        },
        {
          "internalType": "uint256",
          "name": "oraclePrice0CumulativeStart",
          "type": "uint256"
        },
        {
          "internalType": "uint256",
          "name": "oraclePrice0CumulativeEnd",
          "type": "uint256"
        },
        {
          "internalType": "uint256",
          "name": "price0CumulativeEnd",
          "type": "uint256"
        },
        {
          "internalType": "uint256",
          "name": "oracleTimestampStart",
          "type": "uint256"
        },
        {
          "internalType": "uint256",
          "name": "oracleTimestampEnd",
          "type": "uint256"
        },
        {
          "internalType": "uint256",
          "name": "lastBlockNum",
          "type": "uint256"
        }
      ],
      "stateMutability": "view",
      "type": "function"
    },
    {
      "inputs": [
        {
          "internalType": "uint256",
          "name": "",
          "type": "uint256"
        }
      ],
      "name": "framesKeys",
      "outputs": [
        {
          "internalType": "uint256",
          "name": "",
          "type": "uint256"
        }
      ],
      "stateMutability": "view",
      "type": "function"
    },
    {
      "inputs": [],
      "name": "initTimestamp",
      "outputs": [
        {
          "internalType": "uint256",
          "name": "",
          "type": "uint256"
        }
      ],
      "stateMutability": "view",
      "type": "function"
    },
    {
      "inputs": [],
      "name": "minAcquisitionP",
      "outputs": [
        {
          "internalType": "uint256",
          "name": "",
          "type": "uint256"
        }
      ],
      "stateMutability": "view",
      "type": "function"
    },
    {
      "inputs": [],
      "name": "ownerMarket",
      "outputs": [
        {
          "internalType": "address payable",
          "name": "",
          "type": "address"
        }
      ],
      "stateMutability": "view",
      "type": "function"
    },
    {
      "inputs": [],
      "name": "period",
      "outputs": [
        {
          "internalType": "uint256",
          "name": "",
          "type": "uint256"
        }
      ],
      "stateMutability": "view",
      "type": "function"
    },
    {
      "inputs": [],
      "name": "tReporting",
      "outputs": [
        {
          "internalType": "uint256",
          "name": "",
          "type": "uint256"
        }
      ],
      "stateMutability": "view",
      "type": "function"
    },
    {
      "inputs": [],
      "name": "taxMarket",
      "outputs": [
        {
          "internalType": "uint256",
          "name": "",
          "type": "uint256"
        }
      ],
      "stateMutability": "view",
      "type": "function"
    },
    {
      "inputs": [],
      "name": "uniswapPair",
      "outputs": [
        {
          "internalType": "contract IUniswapV2Pair",
          "name": "",
          "type": "address"
        }
      ],
      "stateMutability": "view",
      "type": "function"
    },
    {
      "inputs": [
        {
          "internalType": "uint256",
          "name": "timestamp",
          "type": "uint256"
        }
      ],
      "name": "getOrCreateFrame",
      "outputs": [
        {
          "internalType": "uint256",
          "name": "",
          "type": "uint256"
        }
      ],
      "stateMutability": "nonpayable",
      "type": "function"
    },
    {
      "inputs": [
        {
          "internalType": "uint256",
          "name": "timestamp",
          "type": "uint256"
        }
      ],
      "name": "clcFrameTimestamp",
      "outputs": [
        {
          "internalType": "uint256",
          "name": "",
          "type": "uint256"
        }
      ],
      "stateMutability": "view",
      "type": "function"
    },
    {
      "inputs": [
        {
          "internalType": "uint256",
          "name": "value",
          "type": "uint256"
        }
      ],
      "name": "clcParcelInterval",
      "outputs": [
        {
          "internalType": "uint256",
          "name": "",
          "type": "uint256"
        }
      ],
      "stateMutability": "view",
      "type": "function"
    },
    {
      "inputs": [
        {
          "internalType": "uint256",
          "name": "frameKey",
          "type": "uint256"
        }
      ],
      "name": "clcFramesLeft",
      "outputs": [
        {
          "internalType": "uint256",
          "name": "",
          "type": "uint256"
        }
      ],
      "stateMutability": "view",
      "type": "function"
    },
    {
      "inputs": [
        {
          "internalType": "uint256",
          "name": "frameKey",
          "type": "uint256"
        },
        {
          "internalType": "uint256",
          "name": "parcelKey",
          "type": "uint256"
        }
      ],
      "name": "getParcel",
      "outputs": [
        {
          "components": [
            {
              "internalType": "uint256",
              "name": "parcelKey",
              "type": "uint256"
            },
            {
              "components": [
                {
                  "internalType": "address payable",
                  "name": "owner",
                  "type": "address"
                },
                {
                  "internalType": "uint256",
                  "name": "blockNum",
                  "type": "uint256"
                }
              ],
              "internalType": "struct Market.ParcelOwner[]",
              "name": "parcelOwners",
              "type": "tuple[]"
            },
            {
              "internalType": "uint256",
              "name": "acquisitionPrice",
              "type": "uint256"
            },
            {
              "internalType": "enum Market.SParcel",
              "name": "state",
              "type": "uint8"
            }
          ],
          "internalType": "struct Market.Parcel",
          "name": "",
          "type": "tuple"
        }
      ],
      "stateMutability": "view",
      "type": "function"
    },
    {
      "inputs": [
        {
          "internalType": "uint256",
          "name": "frameKey",
          "type": "uint256"
        }
      ],
      "name": "getParcelsCount",
      "outputs": [
        {
          "internalType": "uint256",
          "name": "",
          "type": "uint256"
        }
      ],
      "stateMutability": "view",
      "type": "function"
    },
    {
      "inputs": [
        {
          "internalType": "uint256",
          "name": "frameKey",
          "type": "uint256"
        },
        {
          "internalType": "uint256",
          "name": "index",
          "type": "uint256"
        }
      ],
      "name": "getParcelKey",
      "outputs": [
        {
          "internalType": "uint256",
          "name": "",
          "type": "uint256"
        }
      ],
      "stateMutability": "view",
      "type": "function"
    },
    {
      "inputs": [
        {
          "internalType": "uint256",
          "name": "frameKey",
          "type": "uint256"
        },
        {
          "internalType": "uint256",
          "name": "parcelKey",
          "type": "uint256"
        }
      ],
      "name": "getParcelOwner",
      "outputs": [
        {
          "internalType": "address",
          "name": "",
          "type": "address"
        }
      ],
      "stateMutability": "view",
      "type": "function"
    },
    {
      "inputs": [
        {
          "internalType": "uint256",
          "name": "frameKey",
          "type": "uint256"
        }
      ],
      "name": "getRewardAmount",
      "outputs": [
        {
          "internalType": "uint256",
          "name": "",
          "type": "uint256"
        }
      ],
      "stateMutability": "view",
      "type": "function"
    },
    {
      "inputs": [
        {
          "internalType": "uint256",
          "name": "frameKey",
          "type": "uint256"
        },
        {
          "internalType": "uint256",
          "name": "parcelKey",
          "type": "uint256"
        }
      ],
      "name": "getNumberOfParcelOwners",
      "outputs": [
        {
          "internalType": "uint256",
          "name": "",
          "type": "uint256"
        }
      ],
      "stateMutability": "view",
      "type": "function"
    },
    {
      "inputs": [],
      "name": "getNumberOfFrameKeys",
      "outputs": [
        {
          "internalType": "uint256",
          "name": "",
          "type": "uint256"
        }
      ],
      "stateMutability": "view",
      "type": "function"
    },
    {
      "inputs": [
        {
          "internalType": "uint256",
          "name": "frameKey",
          "type": "uint256"
        },
        {
          "internalType": "uint256",
          "name": "parcelKey",
          "type": "uint256"
        },
        {
          "internalType": "address",
          "name": "owner",
          "type": "address"
        }
      ],
      "name": "getParcelOwnerIndex",
      "outputs": [
        {
          "internalType": "uint256",
          "name": "i",
          "type": "uint256"
        }
      ],
      "stateMutability": "view",
      "type": "function"
    },
    {
      "inputs": [
        {
          "internalType": "uint256",
          "name": "frameKey",
          "type": "uint256"
        },
        {
          "internalType": "uint256",
          "name": "pairPrice",
          "type": "uint256"
        },
        {
          "internalType": "uint256",
          "name": "acquisitionPrice",
          "type": "uint256"
        },
        {
          "internalType": "uint256",
          "name": "timestamp",
          "type": "uint256"
        }
      ],
      "name": "AmountToApprove",
      "outputs": [
        {
          "internalType": "uint256",
          "name": "",
          "type": "uint256"
        }
      ],
      "stateMutability": "view",
      "type": "function"
    },
    {
      "inputs": [
        {
          "internalType": "uint256",
          "name": "timestamp",
          "type": "uint256"
        },
        {
          "internalType": "uint256",
          "name": "pairPrice",
          "type": "uint256"
        },
        {
          "internalType": "uint256",
          "name": "acquisitionPrice",
          "type": "uint256"
        }
      ],
      "name": "buyParcel",
      "outputs": [],
      "stateMutability": "payable",
      "type": "function"
    },
    {
      "inputs": [
        {
          "internalType": "uint256",
          "name": "timestamp",
          "type": "uint256"
        },
        {
          "internalType": "uint256",
          "name": "pairPrice",
          "type": "uint256"
        },
        {
          "internalType": "uint256",
          "name": "acquisitionPrice",
          "type": "uint256"
        }
      ],
      "name": "updateParcelPrice",
      "outputs": [],
      "stateMutability": "payable",
      "type": "function"
    },
    {
      "inputs": [
        {
          "internalType": "uint256",
          "name": "PriceCumulative",
          "type": "uint256"
        }
      ],
      "name": "updateFramePrices",
      "outputs": [],
      "stateMutability": "nonpayable",
      "type": "function"
    },
    {
      "inputs": [
        {
          "internalType": "uint256",
          "name": "frameKey",
          "type": "uint256"
        }
      ],
      "name": "closeFrame",
      "outputs": [],
      "stateMutability": "nonpayable",
      "type": "function"
    },
    {
      "inputs": [
        {
          "internalType": "uint256",
          "name": "frameKey",
          "type": "uint256"
        },
        {
          "internalType": "address",
          "name": "owner",
          "type": "address"
        }
      ],
      "name": "settleParcel",
      "outputs": [],
      "stateMutability": "nonpayable",
      "type": "function"
    },
    {
      "inputs": [
        {
          "internalType": "uint256",
          "name": "frameKey",
          "type": "uint256"
        },
        {
          "internalType": "uint256",
          "name": "parcelKey",
          "type": "uint256"
        },
        {
          "internalType": "address",
          "name": "owner",
          "type": "address"
        }
      ],
      "name": "clcShare",
      "outputs": [
        {
          "internalType": "uint256",
          "name": "",
          "type": "uint256"
        }
      ],
      "stateMutability": "view",
      "type": "function"
    },
    {
      "inputs": [
        {
          "internalType": "uint256",
          "name": "frameKey",
          "type": "uint256"
        },
        {
          "internalType": "uint256",
          "name": "parcelKey",
          "type": "uint256"
        },
        {
          "internalType": "address",
          "name": "owner",
          "type": "address"
        }
      ],
      "name": "clcSettleAmount",
      "outputs": [
        {
          "internalType": "uint256",
          "name": "",
          "type": "uint256"
        }
      ],
      "stateMutability": "view",
      "type": "function"
    }
  ],
  "bytecode": "0x6080604052606460095569d3c21bcecceda1000000600c553480156200002457600080fd5b50604051620046133803806200461383398181016040528101906200004a9190620001ea565b88600160006101000a81548173ffffffffffffffffffffffffffffffffffffffff021916908373ffffffffffffffffffffffffffffffffffffffff16021790555033600260006101000a81548173ffffffffffffffffffffffffffffffffffffffff021916908373ffffffffffffffffffffffffffffffffffffffff1602179055508660038190555085600481905550846008819055508360078190555087600560006101000a81548173ffffffffffffffffffffffffffffffffffffffff021916908373ffffffffffffffffffffffffffffffffffffffff16021790555082600681905550896000806101000a81548173ffffffffffffffffffffffffffffffffffffffff021916908373ffffffffffffffffffffffffffffffffffffffff16021790555081600a8190555080600b8190555050505050505050505050620003c7565b6000815190506200019f816200035f565b92915050565b600081519050620001b68162000379565b92915050565b600081519050620001cd8162000393565b92915050565b600081519050620001e481620003ad565b92915050565b6000806000806000806000806000806101408b8d0312156200021157620002106200035a565b5b6000620002218d828e01620001bc565b9a50506020620002348d828e016200018e565b9950506040620002478d828e01620001a5565b98505060606200025a8d828e01620001d3565b97505060806200026d8d828e01620001d3565b96505060a0620002808d828e01620001d3565b95505060c0620002938d828e01620001d3565b94505060e0620002a68d828e01620001d3565b935050610100620002ba8d828e01620001d3565b925050610120620002ce8d828e01620001d3565b9150509295989b9194979a5092959850565b6000620002ed8262000330565b9050919050565b60006200030182620002e0565b9050919050565b60006200031582620002e0565b9050919050565b60006200032982620002e0565b9050919050565b600073ffffffffffffffffffffffffffffffffffffffff82169050919050565b6000819050919050565b600080fd5b6200036a81620002f4565b81146200037657600080fd5b50565b620003848162000308565b81146200039057600080fd5b50565b6200039e816200031c565b8114620003aa57600080fd5b50565b620003b88162000350565b8114620003c457600080fd5b50565b61423c80620003d76000396000f3fe6080604052600436106101f95760003560e01c80637358c57a1161010d578063c45a0155116100a0578063ec77fe111161006f578063ec77fe11146107e1578063ef78d4fd146107fd578063f27da3ac14610828578063fc95070214610865578063ff5c86b01461088e576101f9565b8063c45a015514610723578063c816841b1461074e578063c84993af14610779578063da68cf8b146107b6576101f9565b806389da88a3116100dc57806389da88a3146106595780639533319414610684578063a10340bc146106a0578063ba9d1d68146106e6576101f9565b80637358c57a1461059b5780637d6ae6a0146105c65780637e9966391461060357806388d487881461062e576101f9565b8063410f0710116101905780634f3ab71f1161015f5780634f3ab71f1461047c578063527eb4bc146104b957806354bc7f6c146104e45780635619e1f5146105215780635b3ad63e1461055e576101f9565b8063410f0710146103be57806342d3da1d146103e95780634508477514610426578063499a0fc414610451576101f9565b80632a0efd44116101cc5780632a0efd44146102f257806331cf77b41461031b57806331e592e2146103585780633d7a7eac14610381576101f9565b8063050e8840146101fe5780630cbcff8f1461023b57806318ff0e07146102785780631e501486146102b5575b600080fd5b34801561020a57600080fd5b5061022560048036038101906102209190613326565b6108b9565b6040516102329190613af6565b60405180910390f35b34801561024757600080fd5b50610262600480360381019061025d9190613326565b6108dd565b60405161026f9190613af6565b60405180910390f35b34801561028457600080fd5b5061029f600480360381019061029a9190613326565b610a98565b6040516102ac9190613af6565b60405180910390f35b3480156102c157600080fd5b506102dc60048036038101906102d79190613400565b610af0565b6040516102e99190613af6565b60405180910390f35b3480156102fe57600080fd5b5061031960048036038101906103149190613326565b610cd9565b005b34801561032757600080fd5b50610342600480360381019061033d91906133c0565b610e8a565b60405161034f9190613af6565b60405180910390f35b34801561036457600080fd5b5061037f600480360381019061037a9190613380565b610ec2565b005b34801561038d57600080fd5b506103a860048036038101906103a391906134a6565b611034565b6040516103b59190613af6565b60405180910390f35b3480156103ca57600080fd5b506103d361119a565b6040516103e09190613af6565b60405180910390f35b3480156103f557600080fd5b50610410600480360381019061040b91906133c0565b6111a0565b60405161041d9190613ad4565b60405180910390f35b34801561043257600080fd5b5061043b6112f0565b6040516104489190613856565b60405180910390f35b34801561045d57600080fd5b50610466611316565b6040516104739190613af6565b60405180910390f35b34801561048857600080fd5b506104a3600480360381019061049e9190613400565b61131c565b6040516104b09190613af6565b60405180910390f35b3480156104c557600080fd5b506104ce61142b565b6040516104db9190613af6565b60405180910390f35b3480156104f057600080fd5b5061050b60048036038101906105069190613326565b611431565b6040516105189190613af6565b60405180910390f35b34801561052d57600080fd5b5061054860048036038101906105439190613400565b611454565b6040516105559190613af6565b60405180910390f35b34801561056a57600080fd5b5061058560048036038101906105809190613326565b6114a6565b6040516105929190613af6565b60405180910390f35b3480156105a757600080fd5b506105b06114fe565b6040516105bd9190613af6565b60405180910390f35b3480156105d257600080fd5b506105ed60048036038101906105e89190613326565b611504565b6040516105fa9190613af6565b60405180910390f35b34801561060f57600080fd5b50610618611547565b6040516106259190613af6565b60405180910390f35b34801561063a57600080fd5b5061064361154d565b6040516106509190613af6565b60405180910390f35b34801561066557600080fd5b5061066e611553565b60405161067b9190613af6565b60405180910390f35b61069e60048036038101906106999190613453565b611560565b005b3480156106ac57600080fd5b506106c760048036038101906106c29190613326565b611df9565b6040516106dd9a99989796959493929190613b11565b60405180910390f35b3480156106f257600080fd5b5061070d600480360381019061070891906133c0565b611e5a565b60405161071a919061383b565b60405180910390f35b34801561072f57600080fd5b50610738611f08565b6040516107459190613959565b60405180910390f35b34801561075a57600080fd5b50610763611f2c565b604051610770919061393e565b60405180910390f35b34801561078557600080fd5b506107a0600480360381019061079b9190613326565b611f52565b6040516107ad9190613af6565b60405180910390f35b3480156107c257600080fd5b506107cb611f72565b6040516107d89190613923565b60405180910390f35b6107fb60048036038101906107f69190613453565b611f98565b005b34801561080957600080fd5b506108126125cc565b60405161081f9190613af6565b60405180910390f35b34801561083457600080fd5b5061084f600480360381019061084a91906133c0565b6125d2565b60405161085c9190613af6565b60405180910390f35b34801561087157600080fd5b5061088c60048036038101906108879190613326565b61260f565b005b34801561089a57600080fd5b506108a3612cfc565b6040516108b09190613af6565b60405180910390f35b600e81815481106108c957600080fd5b906000526020600020016000915090505481565b6000600454821015610924576040517f08c379a000000000000000000000000000000000000000000000000000000000815260040161091b90613a14565b60405180910390fd5b600061092f836114a6565b90506000600381111561094557610944613f4d565b5b600d600083815260200190815260200160002060010160009054906101000a900460ff16600381111561097b5761097a613f4d565b5b146109895780915050610a93565b610992426114a6565b8110156109d4576040517f08c379a00000000000000000000000000000000000000000000000000000000081526004016109cb906139b4565b60405180910390fd5b80600d6000838152602001908152602001600020600001819055506001600d600083815260200190815260200160002060010160006101000a81548160ff02191690836003811115610a2957610a28613f4d565b5b0217905550600e8190806001815401808255809150506001900390600052602060002001600090919091909150557f163614e6e9ce9df7687928015fd2c748b69c5136db886e57f09170b251b58e8781604051610a869190613af6565b60405180910390a1809150505b919050565b6000808211610aab576006549050610aeb565b610ae8600654610ada600654610acc60065487612d0290919063ffffffff16565b612d1890919063ffffffff16565b612d2e90919063ffffffff16565b90505b919050565b600080600d60008681526020019081526020016000206009015490506000600d6000878152602001908152602001600020600a0160008681526020019081526020016000206040518060800160405290816000820154815260200160018201805480602002602001604051908101604052809291908181526020016000905b82821015610c0157838290600052602060002090600202016040518060400160405290816000820160009054906101000a900473ffffffffffffffffffffffffffffffffffffffff1673ffffffffffffffffffffffffffffffffffffffff1673ffffffffffffffffffffffffffffffffffffffff16815260200160018201548152505081526020019060010190610b6f565b505050508152602001600282015481526020016003820160009054906101000a900460ff166002811115610c3857610c37613f4d565b5b6002811115610c4a57610c49613f4d565b5b81525050905060008160200151600081518110610c6a57610c69613f7c565b5b60200260200101516020015190506000610c85888888612d44565b90506000610c9c838661302b90919063ffffffff16565b90506000610cc782610cb9600c5486612d1890919063ffffffff16565b612d0290919063ffffffff16565b90508096505050505050509392505050565b6000610ce4426114a6565b905043600d600083815260200190815260200160002060090181905550610d2a600a54610d1c60035484612d2e90919063ffffffff16565b61302b90919063ffffffff16565b4210158015610d4f57506000600d600083815260200190815260200160002060040154145b15610dc65781600d60008381526020019081526020016000206004018190555042600d6000838152602001908152602001600020600701819055507f163614e6e9ce9df7687928015fd2c748b69c5136db886e57f09170b251b58e8781604051610db99190613af6565b60405180910390a1610e86565b610ddb60035482612d2e90919063ffffffff16565b4211158015610e125750610e0e600a54610e0060035484612d2e90919063ffffffff16565b61302b90919063ffffffff16565b4210155b15610e855781600d60008381526020019081526020016000206005018190555042600d6000838152602001908152602001600020600801819055507f163614e6e9ce9df7687928015fd2c748b69c5136db886e57f09170b251b58e8781604051610e7c9190613af6565b60405180910390a15b5b5050565b6000600d6000848152602001908152602001600020600a01600083815260200190815260200160002060010180549050905092915050565b60026003811115610ed657610ed5613f4d565b5b600d600084815260200190815260200160002060010160009054906101000a900460ff166003811115610f0c57610f0b613f4d565b5b14610f4c576040517f08c379a0000000000000000000000000000000000000000000000000000000008152600401610f4390613a34565b60405180910390fd5b6000610f6d600d600085815260200190815260200160002060020154610a98565b90506000610f7c848385611454565b9050600160009054906101000a900473ffffffffffffffffffffffffffffffffffffffff1673ffffffffffffffffffffffffffffffffffffffff1663a9059cbb84836040518363ffffffff1660e01b8152600401610fdb9291906138fa565b602060405180830381600087803b158015610ff557600080fd5b505af1158015611009573d6000803e3d6000fd5b505050506040513d601f19601f8201168201806040525081019061102d91906132f9565b5050505050565b60008061104085610a98565b9050600061105f611050856114a6565b8561302b90919063ffffffff16565b9050600061108c60035461107e84600c54612d1890919063ffffffff16565b612d0290919063ffffffff16565b9050600061109989611504565b905060006110d9826110cb620186a06110bd6008548d612d1890919063ffffffff16565b612d0290919063ffffffff16565b612d1890919063ffffffff16565b90506000611107620186a06110f96008548c612d1890919063ffffffff16565b612d0290919063ffffffff16565b9050611130600c546111228684612d1890919063ffffffff16565b612d0290919063ffffffff16565b90506111458183612d2e90919063ffffffff16565b9150600061118683600d60008f8152602001908152602001600020600a0160008a815260200190815260200160002060020154612d2e90919063ffffffff16565b905080975050505050505050949350505050565b60075481565b6111a86131f8565b600d6000848152602001908152602001600020600a0160008381526020019081526020016000206040518060800160405290816000820154815260200160018201805480602002602001604051908101604052809291908181526020016000905b8282101561129b57838290600052602060002090600202016040518060400160405290816000820160009054906101000a900473ffffffffffffffffffffffffffffffffffffffff1673ffffffffffffffffffffffffffffffffffffffff1673ffffffffffffffffffffffffffffffffffffffff16815260200160018201548152505081526020019060010190611209565b505050508152602001600282015481526020016003820160009054906101000a900460ff1660028111156112d2576112d1613f4d565b5b60028111156112e4576112e3613f4d565b5b81525050905092915050565b600260009054906101000a900473ffffffffffffffffffffffffffffffffffffffff1681565b60065481565b60005b6113298484610e8a565b8110156113e9578173ffffffffffffffffffffffffffffffffffffffff16600d6000868152602001908152602001600020600a016000858152602001908152602001600020600101828154811061138357611382613f7c565b5b906000526020600020906002020160000160009054906101000a900473ffffffffffffffffffffffffffffffffffffffff1673ffffffffffffffffffffffffffffffffffffffff1614156113d657611424565b80806113e190613e75565b91505061131f565b6040517f08c379a000000000000000000000000000000000000000000000000000000000815260040161141b90613ab4565b60405180910390fd5b9392505050565b60095481565b6000600d6000838152602001908152602001600020600b01805490509050919050565b600061149d600c5461148f600d600088815260200190815260200160002060030154611481888888610af0565b612d1890919063ffffffff16565b612d0290919063ffffffff16565b90509392505050565b600060045482116114bb5760045490506114f9565b6114f66114e76003546114d96004548661302b90919063ffffffff16565b61304190919063ffffffff16565b8361302b90919063ffffffff16565b90505b919050565b60045481565b60006115406001611532600354611524428761302b90919063ffffffff16565b612d0290919063ffffffff16565b612d2e90919063ffffffff16565b9050919050565b60085481565b600b5481565b6000600e80549050905090565b600b548110156115a5576040517f08c379a000000000000000000000000000000000000000000000000000000000815260040161159c906139d4565b60405180910390fd5b60006115b0846108dd565b905060006115be8285613057565b90506115ca8282611e5a565b73ffffffffffffffffffffffffffffffffffffffff163373ffffffffffffffffffffffffffffffffffffffff161415611638576040517f08c379a000000000000000000000000000000000000000000000000000000000815260040161162f90613a54565b60405180910390fd5b6000611655611646426114a6565b4261302b90919063ffffffff16565b9050600061168260035461167484600c54612d1890919063ffffffff16565b612d0290919063ffffffff16565b905060006116d6600c546116c8846116ba620186a06116ac6008548d612d1890919063ffffffff16565b612d0290919063ffffffff16565b612d1890919063ffffffff16565b612d0290919063ffffffff16565b905060006116e389611504565b9050600061172382611715620186a06117076008548d612d1890919063ffffffff16565b612d0290919063ffffffff16565b612d1890919063ffffffff16565b90506117388382612d2e90919063ffffffff16565b905061177781600d60008a8152602001908152602001600020600a01600089815260200190815260200160002060020154612d2e90919063ffffffff16565b600160009054906101000a900473ffffffffffffffffffffffffffffffffffffffff1673ffffffffffffffffffffffffffffffffffffffff1663dd62ed3e33306040518363ffffffff1660e01b81526004016117d492919061389a565b60206040518083038186803b1580156117ec57600080fd5b505afa158015611800573d6000803e3d6000fd5b505050506040513d601f19601f820116820180604052508101906118249190613353565b1015611865576040517f08c379a000000000000000000000000000000000000000000000000000000000815260040161185c90613a74565b60405180910390fd5b600160009054906101000a900473ffffffffffffffffffffffffffffffffffffffff1673ffffffffffffffffffffffffffffffffffffffff166323b872dd33306118e285600d60008e8152602001908152602001600020600a0160008d815260200190815260200160002060020154612d2e90919063ffffffff16565b6040518463ffffffff1660e01b8152600401611900939291906138c3565b602060405180830381600087803b15801561191a57600080fd5b505af115801561192e573d6000803e3d6000fd5b505050506040513d601f19601f8201168201806040525081019061195291906132f9565b5061197c81600d60008a815260200190815260200160002060030154612d2e90919063ffffffff16565b600d600089815260200190815260200160002060030181905550600160028111156119aa576119a9613f4d565b5b600d6000898152602001908152602001600020600a01600088815260200190815260200160002060030160009054906101000a900460ff1660028111156119f4576119f3613f4d565b5b1415611c9a576000600d6000898152602001908152602001600020600a0160008881526020019081526020016000206002015490506000611a7b600c54611a6d88611a5f620186a0611a5160085489612d1890919063ffffffff16565b612d0290919063ffffffff16565b612d1890919063ffffffff16565b612d0290919063ffffffff16565b90506000611abb85611aad620186a0611a9f60085488612d1890919063ffffffff16565b612d0290919063ffffffff16565b612d1890919063ffffffff16565b9050611ad08282612d2e90919063ffffffff16565b90506000611b11600d60008d8152602001908152602001600020600a0160008c81526020019081526020016000206002015483612d2e90919063ffffffff16565b90506000611b326001611b248e8e610e8a565b61302b90919063ffffffff16565b9050600160009054906101000a900473ffffffffffffffffffffffffffffffffffffffff1673ffffffffffffffffffffffffffffffffffffffff1663a9059cbb600d60008f8152602001908152602001600020600a0160008e81526020019081526020016000206001018381548110611bae57611bad613f7c565b5b906000526020600020906002020160000160009054906101000a900473ffffffffffffffffffffffffffffffffffffffff16846040518363ffffffff1660e01b8152600401611bfe929190613871565b602060405180830381600087803b158015611c1857600080fd5b505af1158015611c2c573d6000803e3d6000fd5b505050506040513d601f19601f82011682018060405250810190611c5091906132f9565b50611c7a83600d60008f81526020019081526020016000206003015461302b90919063ffffffff16565b600d60008e81526020019081526020016000206003018190555050505050505b600d6000888152602001908152602001600020600a01600087815260200190815260200160002060010160405180604001604052803373ffffffffffffffffffffffffffffffffffffffff16815260200143815250908060018154018082558091505060019003906000526020600020906002020160009091909190915060008201518160000160006101000a81548173ffffffffffffffffffffffffffffffffffffffff021916908373ffffffffffffffffffffffffffffffffffffffff1602179055506020820151816001015550506001600d6000898152602001908152602001600020600a01600088815260200190815260200160002060030160006101000a81548160ff02191690836002811115611db957611db8613f4d565b5b021790555087600d6000898152602001908152602001600020600a0160008881526020019081526020016000206002018190555050505050505050505050565b600d6020528060005260406000206000915090508060000154908060010160009054906101000a900460ff1690806002015490806003015490806004015490806005015490806006015490806007015490806008015490806009015490508a565b600080611e678484610e8a565b1415611e7557309050611f02565b600d6000848152602001908152602001600020600a016000838152602001908152602001600020600101611ebc6001611eae8686610e8a565b61302b90919063ffffffff16565b81548110611ecd57611ecc613f7c565b5b906000526020600020906002020160000160009054906101000a900473ffffffffffffffffffffffffffffffffffffffff1690505b92915050565b60008054906101000a900473ffffffffffffffffffffffffffffffffffffffff1681565b600560009054906101000a900473ffffffffffffffffffffffffffffffffffffffff1681565b6000600d6000838152602001908152602001600020600301549050919050565b600160009054906101000a900473ffffffffffffffffffffffffffffffffffffffff1681565b600b54811015611fdd576040517f08c379a0000000000000000000000000000000000000000000000000000000008152600401611fd4906139d4565b60405180910390fd5b6000611fe8846108dd565b90506000611ff68285613057565b90503373ffffffffffffffffffffffffffffffffffffffff166120198383611e5a565b73ffffffffffffffffffffffffffffffffffffffff161461206f576040517f08c379a0000000000000000000000000000000000000000000000000000000008152600401612066906139f4565b60405180910390fd5b600061207a86611504565b9050600061209961208a426114a6565b4261302b90919063ffffffff16565b905060006120c66003546120b884600c54612d1890919063ffffffff16565b612d0290919063ffffffff16565b9050600061211a600c5461210c846120fe620186a06120f06008548e612d1890919063ffffffff16565b612d0290919063ffffffff16565b612d1890919063ffffffff16565b612d0290919063ffffffff16565b9050600061215a8561214c620186a061213e6008548d612d1890919063ffffffff16565b612d0290919063ffffffff16565b612d1890919063ffffffff16565b905061216f8282612d2e90919063ffffffff16565b90506000600d6000898152602001908152602001600020600a0160008881526020019081526020016000206002015490506121f0600c546121e2866121d4620186a06121c660085488612d1890919063ffffffff16565b612d0290919063ffffffff16565b612d1890919063ffffffff16565b612d0290919063ffffffff16565b9250600061223087612222620186a06122146008548f612d1890919063ffffffff16565b612d0290919063ffffffff16565b612d1890919063ffffffff16565b90506122458482612d2e90919063ffffffff16565b90508083111561246e57612262818461302b90919063ffffffff16565b600160009054906101000a900473ffffffffffffffffffffffffffffffffffffffff1673ffffffffffffffffffffffffffffffffffffffff1663dd62ed3e33306040518363ffffffff1660e01b81526004016122bf92919061389a565b60206040518083038186803b1580156122d757600080fd5b505afa1580156122eb573d6000803e3d6000fd5b505050506040513d601f19601f8201168201806040525081019061230f9190613353565b1015612350576040517f08c379a000000000000000000000000000000000000000000000000000000000815260040161234790613a74565b60405180910390fd5b600160009054906101000a900473ffffffffffffffffffffffffffffffffffffffff1673ffffffffffffffffffffffffffffffffffffffff166323b872dd33306123a3858861302b90919063ffffffff16565b6040518463ffffffff1660e01b81526004016123c1939291906138c3565b602060405180830381600087803b1580156123db57600080fd5b505af11580156123ef573d6000803e3d6000fd5b505050506040513d601f19601f8201168201806040525081019061241391906132f9565b5061244f61242a828561302b90919063ffffffff16565b600d60008c815260200190815260200160002060030154612d2e90919063ffffffff16565b600d60008b81526020019081526020016000206003018190555061258f565b8083101561258e57600160009054906101000a900473ffffffffffffffffffffffffffffffffffffffff1673ffffffffffffffffffffffffffffffffffffffff1663a9059cbb336124c8868561302b90919063ffffffff16565b6040518363ffffffff1660e01b81526004016124e59291906138fa565b602060405180830381600087803b1580156124ff57600080fd5b505af1158015612513573d6000803e3d6000fd5b505050506040513d601f19601f8201168201806040525081019061253791906132f9565b5061257361254e848361302b90919063ffffffff16565b600d60008c81526020019081526020016000206003015461302b90919063ffffffff16565b600d60008b8152602001908152602001600020600301819055505b5b89600d60008b8152602001908152602001600020600a0160008a815260200190815260200160002060020181905550505050505050505050505050565b60035481565b6000600d6000848152602001908152602001600020600b0182815481106125fc576125fb613f7c565b5b9060005260206000200154905092915050565b6001600381111561262357612622613f4d565b5b600d600083815260200190815260200160002060010160009054906101000a900460ff16600381111561265957612658613f4d565b5b14612699576040517f08c379a000000000000000000000000000000000000000000000000000000000815260040161269090613994565b60405180910390fd5b426126af60035483612d2e90919063ffffffff16565b11156126f0576040517f08c379a00000000000000000000000000000000000000000000000000000000081526004016126e790613974565b60405180910390fd5b6000600d60008381526020019081526020016000206004015411158061272d57506000600d60008381526020019081526020016000206005015411155b15612772576003600d600083815260200190815260200160002060010160006101000a81548160ff0219169083600381111561276c5761276b613f4d565b5b02179055505b600d600082815260200190815260200160002060050154600d60008381526020019081526020016000206004015414156127e6576003600d600083815260200190815260200160002060010160006101000a81548160ff021916908360038111156127e0576127df613f4d565b5b02179055505b6002600d600083815260200190815260200160002060010160006101000a81548160ff021916908360038111156128205761281f613f4d565b5b02179055506000612866600d600084815260200190815260200160002060040154600d60008581526020019081526020016000206005015461302b90919063ffffffff16565b905060006128a9600d600085815260200190815260200160002060070154600d60008681526020019081526020016000206008015461302b90919063ffffffff16565b90506128e16040518060200160405280847bffffffffffffffffffffffffffffffffffffffffffffffffffffffff1681525082613148565b600001517bffffffffffffffffffffffffffffffffffffffffffffffffffffffff16600d60008581526020019081526020016000206002018190555061294c600c546070600d600087815260200190815260200160002060020154901c612d1890919063ffffffff16565b600d6000858152602001908152602001600020600201819055506129a87406d79f82328ea3da61e066ebb2f88a0000000000006070600d600087815260200190815260200160002060020154901b612d0290919063ffffffff16565b600d6000858152602001908152602001600020600201819055506000612a04620186a06129f6600754600d600089815260200190815260200160002060030154612d1890919063ffffffff16565b612d0290919063ffffffff16565b90506000612a48620186a0612a3a600954600d60008a815260200190815260200160002060030154612d1890919063ffffffff16565b612d0290919063ffffffff16565b9050612a8581612a7784600d60008a81526020019081526020016000206003015461302b90919063ffffffff16565b61302b90919063ffffffff16565b600d600087815260200190815260200160002060030181905550600160009054906101000a900473ffffffffffffffffffffffffffffffffffffffff1673ffffffffffffffffffffffffffffffffffffffff1663a9059cbb600260009054906101000a900473ffffffffffffffffffffffffffffffffffffffff16846040518363ffffffff1660e01b8152600401612b1e929190613871565b602060405180830381600087803b158015612b3857600080fd5b505af1158015612b4c573d6000803e3d6000fd5b505050506040513d601f19601f82011682018060405250810190612b7091906132f9565b50600160009054906101000a900473ffffffffffffffffffffffffffffffffffffffff1673ffffffffffffffffffffffffffffffffffffffff1663a9059cbb60008054906101000a900473ffffffffffffffffffffffffffffffffffffffff1673ffffffffffffffffffffffffffffffffffffffff16638da5cb5b6040518163ffffffff1660e01b815260040160206040518083038186803b158015612c1557600080fd5b505afa158015612c29573d6000803e3d6000fd5b505050506040513d601f19601f82011682018060405250810190612c4d91906132cc565b836040518363ffffffff1660e01b8152600401612c6b9291906138fa565b602060405180830381600087803b158015612c8557600080fd5b505af1158015612c99573d6000803e3d6000fd5b505050506040513d601f19601f82011682018060405250810190612cbd91906132f9565b507f163614e6e9ce9df7687928015fd2c748b69c5136db886e57f09170b251b58e8785604051612ced9190613af6565b60405180910390a15050505050565b600a5481565b60008183612d109190613c7e565b905092915050565b60008183612d269190613caf565b905092915050565b60008183612d3c9190613bf7565b905092915050565b600080600d6000868152602001908152602001600020600a0160008581526020019081526020016000206040518060800160405290816000820154815260200160018201805480602002602001604051908101604052809291908181526020016000905b82821015612e3a57838290600052602060002090600202016040518060400160405290816000820160009054906101000a900473ffffffffffffffffffffffffffffffffffffffff1673ffffffffffffffffffffffffffffffffffffffff1673ffffffffffffffffffffffffffffffffffffffff16815260200160018201548152505081526020019060010190612da8565b505050508152602001600282015481526020016003820160009054906101000a900460ff166002811115612e7157612e70613f4d565b5b6002811115612e8357612e82613f4d565b5b8152505090506000600d60008781526020019081526020016000206009015490506000806000805b612eb58a8a610e8a565b81101561301b578773ffffffffffffffffffffffffffffffffffffffff16600d60008c8152602001908152602001600020600a0160008b81526020019081526020016000206001018281548110612f0f57612f0e613f7c565b5b906000526020600020906002020160000160009054906101000a900473ffffffffffffffffffffffffffffffffffffffff1673ffffffffffffffffffffffffffffffffffffffff1614156130085785602001518181518110612f7457612f73613f7c565b5b6020026020010151602001519350806001612f8f8c8c610e8a565b612f999190613d09565b1415612fa757849250612fe0565b8560200151612fc0600183612d2e90919063ffffffff16565b81518110612fd157612fd0613f7c565b5b60200260200101516020015192505b613005612ff6858561302b90919063ffffffff16565b83612d2e90919063ffffffff16565b91505b808061301390613e75565b915050612eab565b5080955050505050509392505050565b600081836130399190613d09565b905092915050565b6000818361304f9190613ebe565b905092915050565b60008061306383610a98565b90506000600281111561307957613078613f4d565b5b600d6000868152602001908152602001600020600a01600083815260200190815260200160002060030160009054906101000a900460ff1660028111156130c3576130c2613f4d565b5b146130d15780915050613142565b80600d6000868152602001908152602001600020600a01600083815260200190815260200160002060000181905550600d6000858152602001908152602001600020600b01819080600181540180825580915050600190039060005260206000200160009091909190915055809150505b92915050565b613150613232565b6000826dffffffffffffffffffffffffffff1614156131a4576040517f08c379a000000000000000000000000000000000000000000000000000000000815260040161319b90613a94565b60405180910390fd5b6040518060200160405280836dffffffffffffffffffffffffffff1685600001516131cf9190613c4d565b7bffffffffffffffffffffffffffffffffffffffffffffffffffffffff16815250905092915050565b60405180608001604052806000815260200160608152602001600081526020016000600281111561322c5761322b613f4d565b5b81525090565b604051806020016040528060007bffffffffffffffffffffffffffffffffffffffffffffffffffffffff1681525090565b600081359050613272816141c1565b92915050565b600081519050613287816141c1565b92915050565b60008151905061329c816141d8565b92915050565b6000813590506132b1816141ef565b92915050565b6000815190506132c6816141ef565b92915050565b6000602082840312156132e2576132e1613fab565b5b60006132f084828501613278565b91505092915050565b60006020828403121561330f5761330e613fab565b5b600061331d8482850161328d565b91505092915050565b60006020828403121561333c5761333b613fab565b5b600061334a848285016132a2565b91505092915050565b60006020828403121561336957613368613fab565b5b6000613377848285016132b7565b91505092915050565b6000806040838503121561339757613396613fab565b5b60006133a5858286016132a2565b92505060206133b685828601613263565b9150509250929050565b600080604083850312156133d7576133d6613fab565b5b60006133e5858286016132a2565b92505060206133f6858286016132a2565b9150509250929050565b60008060006060848603121561341957613418613fab565b5b6000613427868287016132a2565b9350506020613438868287016132a2565b925050604061344986828701613263565b9150509250925092565b60008060006060848603121561346c5761346b613fab565b5b600061347a868287016132a2565b935050602061348b868287016132a2565b925050604061349c868287016132a2565b9150509250925092565b600080600080608085870312156134c0576134bf613fab565b5b60006134ce878288016132a2565b94505060206134df878288016132a2565b93505060406134f0878288016132a2565b9250506060613501878288016132a2565b91505092959194509250565b6000613519838361378b565b60408301905092915050565b61352e81613de5565b82525050565b61353d81613d4f565b82525050565b61354c81613d4f565b82525050565b61355b81613d3d565b82525050565b600061356c82613bbd565b6135768185613bd5565b935061358183613bad565b8060005b838110156135b2578151613599888261350d565b97506135a483613bc8565b925050600181019050613585565b5085935050505092915050565b6135c881613df7565b82525050565b6135d781613e09565b82525050565b6135e681613e1b565b82525050565b6135f581613e2d565b82525050565b61360481613e3f565b82525050565b6000613617601a83613be6565b915061362282613fb0565b602082019050919050565b600061363a601083613be6565b915061364582613fd9565b602082019050919050565b600061365d601a83613be6565b915061366882614002565b602082019050919050565b6000613680601083613be6565b915061368b8261402b565b602082019050919050565b60006136a3601d83613be6565b91506136ae82614054565b602082019050919050565b60006136c6602c83613be6565b91506136d18261407d565b604082019050919050565b60006136e9601083613be6565b91506136f4826140cc565b602082019050919050565b600061370c601f83613be6565b9150613717826140f5565b602082019050919050565b600061372f601c83613be6565b915061373a8261411e565b602082019050919050565b6000613752601783613be6565b915061375d82614147565b602082019050919050565b6000613775601483613be6565b915061378082614170565b602082019050919050565b6040820160008201516137a16000850182613534565b5060208201516137b4602085018261381d565b50505050565b60006080830160008301516137d2600086018261381d565b50602083015184820360208601526137ea8282613561565b91505060408301516137ff604086018261381d565b50606083015161381260608601826135fb565b508091505092915050565b61382681613ddb565b82525050565b61383581613ddb565b82525050565b60006020820190506138506000830184613552565b92915050565b600060208201905061386b6000830184613543565b92915050565b60006040820190506138866000830185613525565b613893602083018461382c565b9392505050565b60006040820190506138af6000830185613552565b6138bc6020830184613552565b9392505050565b60006060820190506138d86000830186613552565b6138e56020830185613552565b6138f2604083018461382c565b949350505050565b600060408201905061390f6000830185613552565b61391c602083018461382c565b9392505050565b600060208201905061393860008301846135bf565b92915050565b600060208201905061395360008301846135ce565b92915050565b600060208201905061396e60008301846135dd565b92915050565b6000602082019050818103600083015261398d8161360a565b9050919050565b600060208201905081810360008301526139ad8161362d565b9050919050565b600060208201905081810360008301526139cd81613650565b9050919050565b600060208201905081810360008301526139ed81613673565b9050919050565b60006020820190508181036000830152613a0d81613696565b9050919050565b60006020820190508181036000830152613a2d816136b9565b9050919050565b60006020820190508181036000830152613a4d816136dc565b9050919050565b60006020820190508181036000830152613a6d816136ff565b9050919050565b60006020820190508181036000830152613a8d81613722565b9050919050565b60006020820190508181036000830152613aad81613745565b9050919050565b60006020820190508181036000830152613acd81613768565b9050919050565b60006020820190508181036000830152613aee81846137ba565b905092915050565b6000602082019050613b0b600083018461382c565b92915050565b600061014082019050613b27600083018d61382c565b613b34602083018c6135ec565b613b41604083018b61382c565b613b4e606083018a61382c565b613b5b608083018961382c565b613b6860a083018861382c565b613b7560c083018761382c565b613b8260e083018661382c565b613b9061010083018561382c565b613b9e61012083018461382c565b9b9a5050505050505050505050565b6000819050602082019050919050565b600081519050919050565b6000602082019050919050565b600082825260208201905092915050565b600082825260208201905092915050565b6000613c0282613ddb565b9150613c0d83613ddb565b9250827fffffffffffffffffffffffffffffffffffffffffffffffffffffffffffffffff03821115613c4257613c41613eef565b5b828201905092915050565b6000613c5882613db3565b9150613c6383613db3565b925082613c7357613c72613f1e565b5b828204905092915050565b6000613c8982613ddb565b9150613c9483613ddb565b925082613ca457613ca3613f1e565b5b828204905092915050565b6000613cba82613ddb565b9150613cc583613ddb565b9250817fffffffffffffffffffffffffffffffffffffffffffffffffffffffffffffffff0483118215151615613cfe57613cfd613eef565b5b828202905092915050565b6000613d1482613ddb565b9150613d1f83613ddb565b925082821015613d3257613d31613eef565b5b828203905092915050565b6000613d4882613d93565b9050919050565b6000613d5a82613d93565b9050919050565b60008115159050919050565b6000819050613d7b82614199565b919050565b6000819050613d8e826141ad565b919050565b600073ffffffffffffffffffffffffffffffffffffffff82169050919050565b60007bffffffffffffffffffffffffffffffffffffffffffffffffffffffff82169050919050565b6000819050919050565b6000613df082613e51565b9050919050565b6000613e0282613e51565b9050919050565b6000613e1482613e51565b9050919050565b6000613e2682613e51565b9050919050565b6000613e3882613d6d565b9050919050565b6000613e4a82613d80565b9050919050565b6000613e5c82613e63565b9050919050565b6000613e6e82613d93565b9050919050565b6000613e8082613ddb565b91507fffffffffffffffffffffffffffffffffffffffffffffffffffffffffffffffff821415613eb357613eb2613eef565b5b600182019050919050565b6000613ec982613ddb565b9150613ed483613ddb565b925082613ee457613ee3613f1e565b5b828206905092915050565b7f4e487b7100000000000000000000000000000000000000000000000000000000600052601160045260246000fd5b7f4e487b7100000000000000000000000000000000000000000000000000000000600052601260045260246000fd5b7f4e487b7100000000000000000000000000000000000000000000000000000000600052602160045260246000fd5b7f4e487b7100000000000000000000000000000000000000000000000000000000600052603260045260246000fd5b600080fd5b7f4652414d4520454e442054494d45204e4f542052454143484544000000000000600082015250565b7f4652414d45204e4f54204f50454e454400000000000000000000000000000000600082015250565b7f43414e275420435245415445204652414d4520494e2050415354000000000000600082015250565b7f505249434520495320544f4f204c4f5700000000000000000000000000000000600082015250565b7f544849532041444452455353204953204e4f5420544845204f574e4552000000600082015250565b7f54494d455354414d50204245464f524520494e495449414c2054494d4553544160008201527f4d50204f46204d41524b45540000000000000000000000000000000000000000602082015250565b7f4652414d45204e4f5420434c4f53454400000000000000000000000000000000600082015250565b7f4144445245535320414c5245414459204f574e53205448452050415243454c00600082015250565b7f415050524f56454420414d4f554e5420495320544f4f20534d414c4c00000000600082015250565b7f4669786564506f696e743a204449565f42595f5a45524f000000000000000000600082015250565b7f4f574e455220444f4553204e4f54204558495354000000000000000000000000600082015250565b600481106141aa576141a9613f4d565b5b50565b600381106141be576141bd613f4d565b5b50565b6141ca81613d3d565b81146141d557600080fd5b50565b6141e181613d61565b81146141ec57600080fd5b50565b6141f881613ddb565b811461420357600080fd5b5056fea2646970667358221220751ca3c2465dd7cbe67f6357f77f2e2d46b51c4da56de9caecabce0ca5f9ee4f64736f6c63430008070033",
  "immutableReferences": {},
  "source": "// SPDX-License-Identifier: MIT\r\npragma solidity ^0.8.0;\r\n//pragma experimental ABIEncoderV2;\r\n\r\nimport \"./MarketFactory.sol\";\r\nimport \"@uniswap/v2-core/contracts/interfaces/IUniswapV2Pair.sol\";\r\nimport \"@uniswap/v2-periphery/contracts/libraries/UniswapV2OracleLibrary.sol\";\r\nimport \"@uniswap/lib/contracts/libraries/FixedPoint.sol\";\r\nimport \"@openzeppelin/contracts/token/ERC20/IERC20.sol\";\r\nimport \"@openzeppelin/contracts/utils/math/SafeMath.sol\";\r\n\r\n/// @title TWPM Market\r\n/// @author UniHedge\r\n/// @dev All function calls are currently implemented without side effects\r\ncontract Market {\r\n\r\n    using SafeMath for uint;\r\n    //Contract for creating markets\r\n    MarketFactory public factory;\r\n    //ERC20 token used for buyng parcels in this contract \r\n    IERC20 public accountingToken;\r\n    //Owner of this market\r\n    address payable public ownerMarket;\r\n    //Length of a frame\r\n    uint public period;\r\n    //Contract creation time\r\n    uint public initTimestamp; \r\n    //Token pair on Uniswap\r\n    IUniswapV2Pair public uniswapPair;\r\n    //Range of a parcel\r\n    uint public dPrice;\r\n    //Fee that gets to market owner\r\n    uint public feeMarket;\r\n    //Tax on parcels\r\n    uint public taxMarket;\r\n    //Protocol fee\r\n    uint public feeProtocol = 100;\r\n    //Reporting time for pair price\r\n    uint public tReporting;\r\n    //Minimal acquisition price\r\n    uint public minAcquisitionP;\r\n    //Scalar number used for calculating precentages\r\n    uint scalar = 1e24;\r\n\r\n    enum SFrame {NULL, OPENED, CLOSED, INVALID}\r\n    struct Frame {\r\n        uint frameKey;\r\n        SFrame state;\r\n        uint priceAverage;\r\n        uint rewardFund;\r\n        uint oraclePrice0CumulativeStart;\r\n        uint oraclePrice0CumulativeEnd;\r\n        uint price0CumulativeEnd;\r\n        uint oracleTimestampStart;\r\n        uint oracleTimestampEnd;\r\n        uint lastBlockNum;\r\n        mapping(uint => Parcel) parcels;\r\n        uint[] parcelKeys;\r\n    }\r\n\r\n    event FrameUpdate(uint frameKey);\r\n\r\n    mapping(uint => Frame) public frames;\r\n    uint[] public framesKeys;\r\n\r\n    struct ParcelOwner {\r\n        address payable owner;\r\n        uint blockNum;\r\n    }\r\n\r\n    enum SParcel {NULL, BOUGHT, RESOLVED}\r\n    struct Parcel {\r\n        uint parcelKey;\r\n        ParcelOwner[] parcelOwners;\r\n        uint acquisitionPrice;\r\n        SParcel state;\r\n    }\r\n\r\n    event ParcelUpdate(uint frameKey, uint parcelKey);\r\n\r\n    constructor(MarketFactory _factory, IERC20 _token, IUniswapV2Pair _uniswapPair, uint _period, uint _initTimestamp, uint _taxMarket, uint _feeMarket, uint _dPrice, uint _tReporting, uint _minAcquisitionP) {\r\n        accountingToken = _token;\r\n        ownerMarket = payable(msg.sender);\r\n        period = _period;\r\n        initTimestamp = _initTimestamp; \r\n        taxMarket = _taxMarket;\r\n        feeMarket = _feeMarket;\r\n        uniswapPair = _uniswapPair;\r\n        dPrice = _dPrice;\r\n        factory = _factory;\r\n        tReporting = _tReporting;\r\n        minAcquisitionP = _minAcquisitionP;\r\n    }\r\n\r\n\r\n    /// @notice Create a frame\r\n    /// @param timestamp In second.\r\n    /// @return frameTimestamp Frame's key (timestamp that indicated the beggining of a frame).\r\n    function getOrCreateFrame(uint timestamp) public returns (uint){\r\n        require(timestamp >= initTimestamp, \"TIMESTAMP BEFORE INITIAL TIMESTAMP OF MARKET\");\r\n        //Get start timestamp of a frame\r\n        uint frameTimestamp = clcFrameTimestamp(timestamp);\r\n        //Check if frame exists\r\n        if (frames[frameTimestamp].state != SFrame.NULL) return frameTimestamp;\r\n        //Check if frame startParcel number is before current Parcel number\r\n        require(frameTimestamp >= clcFrameTimestamp(block.timestamp), \"CAN'T CREATE FRAME IN PAST\");\r\n        //Add frame\r\n        frames[frameTimestamp].frameKey = frameTimestamp;\r\n        frames[frameTimestamp].state = SFrame.OPENED; //check if other parameters are at zero\r\n        framesKeys.push(frameTimestamp);\r\n        emit FrameUpdate(frameTimestamp);\r\n        return frameTimestamp;\r\n    }\r\n\r\n    /// @notice Calculate frames timestamp (beggining of frame)\r\n    /// @param timestamp In seconds\r\n    /// @return frame's timestamp (key)\r\n    // function clcFrameTimestamp(uint timestamp) public view returns (uint){\r\n    //     if (timestamp <= initTimestamp) return initTimestamp;\r\n    //     return ((timestamp.sub(initTimestamp)).div(period)).mul(period).add(initTimestamp);\r\n    // }\r\n    function clcFrameTimestamp(uint timestamp) public view returns (uint){\r\n        if (timestamp <= initTimestamp) return initTimestamp;\r\n        return timestamp.sub((timestamp.sub(initTimestamp)).mod(period));\r\n    }\r\n\r\n    /// @notice Calculate bottom boundary of a parcel\r\n    /// @param value Arbitary price of market's Uniswap pair\r\n    /// @return parcel key (bottom boundary)\r\n    function clcParcelInterval(uint value) public view returns (uint){\r\n        if (value <= 0) return dPrice;\r\n        return value.div(dPrice).mul(dPrice).add(dPrice);\r\n    }\r\n\r\n    /// @notice Calculate how many frames there are left untill given frame in input\r\n    /// @param frameKey Timestamp of an arbitary frame in the future\r\n    /// @return number of frames (whole numbers: n=0,1,2...)\r\n    function clcFramesLeft(uint frameKey) public view returns (uint){                      \r\n        return (frameKey.sub(block.timestamp)).div(period).add(1);\r\n    }\r\n\r\n    /// @notice Get parcel struct\r\n    /// @param frameKey Frame's timestamp\r\n    /// @param parcelKey parcel's key \r\n    /// @return parcel struct\r\n    function getParcel(uint frameKey, uint parcelKey) public view returns (Parcel memory){                 \r\n        return frames[frameKey].parcels[parcelKey];\r\n    }\r\n\r\n    /// @notice Get no. of created parcels in a frame \r\n    /// @param frameKey Frame's timestamp\r\n    /// @return parcel count\r\n    function getParcelsCount(uint frameKey) public view returns (uint){                 \r\n        return frames[frameKey].parcelKeys.length;\r\n    }\r\n\r\n    /// @notice Get parcelKey from index in parcelKeys array\r\n    /// @param frameKey Frame's timestamp\r\n    /// @param index frameKeys array index \r\n    /// @return parcelKey\r\n    function getParcelKey(uint frameKey, uint index) public view returns (uint){                 \r\n        return frames[frameKey].parcelKeys[index];\r\n    }\r\n\r\n    /// @notice Get parcel's owner\r\n    /// @param frameKey Frame's timestamp\r\n    /// @param parcelKey Parcel's key \r\n    /// @return parcel's owner\r\n    function getParcelOwner(uint frameKey, uint parcelKey) public view returns (address){ \r\n        if (getNumberOfParcelOwners(frameKey, parcelKey) == 0) return address(this);\r\n        return frames[frameKey].parcels[parcelKey].parcelOwners[getNumberOfParcelOwners(frameKey, parcelKey).sub(1)].owner;\r\n    }\r\n\r\n    /// @notice Get frame's award amount (accumulation of different parcel taxes)\r\n    /// @notice Remaining tax of a parcel owner get's returned after a sale (change of ownership). So the award amount isn't for sure untill the frame get's closed.\r\n    /// @param frameKey Frame's timestamp\r\n    /// @return award amount\r\n    function getRewardAmount(uint frameKey) public view returns (uint) {                         \r\n        return frames[frameKey].rewardFund; \r\n    }\r\n\r\n    /// @notice Get number of accounts that owned a specific parcel\r\n    /// @param frameKey Frame's timestamp\r\n    /// @param parcelKey Parcel's key \r\n    /// @return number of owners\r\n    function getNumberOfParcelOwners(uint frameKey, uint parcelKey) public view returns (uint){\r\n        return frames[frameKey].parcels[parcelKey].parcelOwners.length;\r\n    }\r\n\r\n    /// @notice Get number of frames\r\n    /// @return number frames\r\n    function getNumberOfFrameKeys() public view returns (uint){\r\n        return framesKeys.length ;\r\n    }\r\n\r\n    /// @notice Calculate parcel owner's index in the array of owners of the parcel\r\n    /// @param frameKey Frame's timestamp\r\n    /// @param parcelKey Parcel's key \r\n    /// @param owner Owners account address\r\n    /// @return i owner's index\r\n    function getParcelOwnerIndex(uint frameKey, uint parcelKey, address owner) public view returns (uint i) {   \r\n        for (i=0; i< getNumberOfParcelOwners(frameKey, parcelKey); i++) {\r\n            if (frames[frameKey].parcels[parcelKey].parcelOwners[i].owner == owner) return i;\r\n        }\r\n        revert(\"OWNER DOES NOT EXIST\");\r\n    }\r\n\r\n    /// @notice Create a parcel\r\n    /// @param frameKey Frame's timestamp\r\n    /// @param pairPrice Price is the trading pair's price\r\n    /// @return parcelKey\r\n    function getOrCreateParcel(uint frameKey, uint pairPrice) internal returns(uint){\r\n        uint parcelKey = clcParcelInterval(pairPrice);\r\n        if (frames[frameKey].parcels[parcelKey].state != SParcel.NULL) return parcelKey;\r\n        frames[frameKey].parcels[parcelKey].parcelKey = parcelKey;\r\n        frames[frameKey].parcelKeys.push(parcelKey);\r\n        return parcelKey;\r\n    }\r\n\r\n    /// @notice Calculate amout required to approve to buy a parcel\r\n    /// @param frameKey Frame's timestamp\r\n    /// @param pairPrice Value is trading pair's price (to get correct parcel key) \r\n    /// @param acquisitionPrice New sell price is required to calculate tax\r\n    /// @return amoun to approve\r\n    function AmountToApprove(uint frameKey, uint pairPrice, uint acquisitionPrice, uint timestamp) public view returns (uint) {             \r\n        uint parcelKey = clcParcelInterval(pairPrice);\r\n        uint dFrame = timestamp.sub(clcFrameTimestamp(timestamp));\r\n        uint dFrameP = scalar.mul(dFrame).div(period);\r\n        //Calculate tax from the propoed new price (acquisitionPrice)\r\n        uint numOfFramesLeft = clcFramesLeft(frameKey);\r\n        uint tax = acquisitionPrice.mul(taxMarket).div(100000).mul(numOfFramesLeft);\r\n        uint dtax = acquisitionPrice.mul(taxMarket).div(100000);\r\n        dtax = dtax.mul(dFrameP).div(scalar);\r\n        tax = tax.add(dtax);\r\n        uint amount = frames[frameKey].parcels[parcelKey].acquisitionPrice.add(tax);\r\n        return amount;\r\n    }\r\n\r\n    /// @notice Calculate amout required to approve to buy a parcel\r\n    /// @param timestamp Frame's timestamp get's calculated from this value\r\n    /// @param pairPrice Is trading pair's price (to get correct parcel key) \r\n    /// @param acquisitionPrice New sell price is required to calculate tax\r\n    function buyParcel(uint timestamp, uint pairPrice, uint acquisitionPrice) public payable {\r\n        require(acquisitionPrice >= minAcquisitionP, \"PRICE IS TOO LOW\");\r\n        uint frameKey =  getOrCreateFrame(timestamp);                          \r\n        uint parcelKey = getOrCreateParcel(frameKey, pairPrice);\r\n        require(msg.sender != getParcelOwner(frameKey, parcelKey), \"ADDRESS ALREADY OWNS THE PARCEL\");\r\n        uint dFrame = block.timestamp.sub(clcFrameTimestamp(block.timestamp));\r\n        uint dFrameP = scalar.mul(dFrame).div(period);\r\n        uint dtax = acquisitionPrice.mul(taxMarket).div(100000).mul(dFrameP).div(scalar);\r\n        //Calculate tax from the proposed new price (acquisitionPrice)\r\n        uint numOfFramesLeft = clcFramesLeft(timestamp);\r\n        uint tax = acquisitionPrice.mul(taxMarket).div(100000).mul(numOfFramesLeft);\r\n        tax = tax.add(dtax);\r\n        //Approved amount has to be at leat equal to price of the Parcel(with tax)\r\n        require(accountingToken.allowance(msg.sender, address(this)) >= frames[frameKey].parcels[parcelKey].acquisitionPrice.add(tax), \"APPROVED AMOUNT IS TOO SMALL\");\r\n        //Transfer complete tax amount to the frame rewardFund\r\n        accountingToken.transferFrom(msg.sender, address(this), frames[frameKey].parcels[parcelKey].acquisitionPrice.add(tax));\r\n        frames[frameKey].rewardFund = frames[frameKey].rewardFund.add(tax);\r\n\r\n        //Pay the Parcel price to current owner + return tax\r\n        if (frames[frameKey].parcels[parcelKey].state == SParcel.BOUGHT) {\r\n            //Calculate tax to return. acquisitionPrice/marketTax * number_of_frames_left:\r\n            uint aPrice = frames[frameKey].parcels[parcelKey].acquisitionPrice;\r\n            uint dFrameTax = aPrice.mul(taxMarket).div(100000).mul(dFrameP).div(scalar);\r\n            uint taxToReturn = aPrice.mul(taxMarket).div(100000).mul(numOfFramesLeft);\r\n            taxToReturn = taxToReturn.add(dFrameTax);\r\n            //add acquisition price valut to left over tax\r\n            uint amount = (taxToReturn.add(frames[frameKey].parcels[parcelKey].acquisitionPrice));\r\n            //transfer funds\r\n            uint previousOwner = getNumberOfParcelOwners(frameKey, parcelKey).sub(1);\r\n            accountingToken.transfer(frames[frameKey].parcels[parcelKey].parcelOwners[previousOwner].owner, amount);\r\n            //change reward value\r\n            frames[frameKey].rewardFund = frames[frameKey].rewardFund.sub(taxToReturn);\r\n        }\r\n       \r\n        frames[frameKey].parcels[parcelKey].parcelOwners.push(ParcelOwner(payable(msg.sender), block.number));\r\n        frames[frameKey].parcels[parcelKey].state = SParcel.BOUGHT;\r\n        frames[frameKey].parcels[parcelKey].acquisitionPrice = acquisitionPrice;\r\n    }\r\n\r\n    /// @notice Owner can update parcel's price. Has to pay additional tax, or leftover tax gets' returned to him if the new price is lower\r\n    /// @param timestamp Frame's timestamp get's calculated from this value\r\n    /// @param pairPrice Is trading pair's price (to get correct parcel key) \r\n    /// @param acquisitionPrice New acquisition price\r\n    function updateParcelPrice(uint timestamp, uint pairPrice, uint acquisitionPrice) public payable {\r\n        require(acquisitionPrice >= minAcquisitionP, \"PRICE IS TOO LOW\");\r\n        uint frameKey =  getOrCreateFrame(timestamp); \r\n        uint parcelKey = getOrCreateParcel(frameKey, pairPrice); \r\n        \r\n        require(getParcelOwner(frameKey, parcelKey) == msg.sender, \"THIS ADDRESS IS NOT THE OWNER\");\r\n                      \r\n        uint numOfFramesLeft = clcFramesLeft(timestamp);\r\n\r\n        uint dFrame = block.timestamp.sub(clcFrameTimestamp(block.timestamp));\r\n        uint dFrameP = scalar.mul(dFrame).div(period);\r\n        uint dtax = acquisitionPrice.mul(taxMarket).div(100000).mul(dFrameP).div(scalar);\r\n        uint taxNew = acquisitionPrice.mul(taxMarket).div(100000).mul(numOfFramesLeft);\r\n        taxNew = taxNew.add(dtax);\r\n\r\n        uint oldPrice = frames[frameKey].parcels[parcelKey].acquisitionPrice;\r\n        dtax = oldPrice.mul(taxMarket).div(100000).mul(dFrameP).div(scalar);\r\n        uint taxOld = acquisitionPrice.mul(taxMarket).div(100000).mul(numOfFramesLeft);\r\n        taxOld = taxOld.add(dtax);\r\n\r\n        if (taxNew > taxOld) {\r\n            require(accountingToken.allowance(msg.sender, address(this)) >= (taxNew.sub(taxOld)), \"APPROVED AMOUNT IS TOO SMALL\");\r\n            //Transfer complete tax amount to the frame rewardFund\r\n            accountingToken.transferFrom(msg.sender, address(this), (taxNew.sub(taxOld)));\r\n            frames[frameKey].rewardFund = frames[frameKey].rewardFund.add(taxNew.sub(taxOld));\r\n        }\r\n        else if (taxNew < taxOld) {\r\n            accountingToken.transfer(msg.sender, taxOld.sub(taxNew));\r\n            frames[frameKey].rewardFund = frames[frameKey].rewardFund.sub(taxOld.sub(taxNew));\r\n        }\r\n        frames[frameKey].parcels[parcelKey].acquisitionPrice = acquisitionPrice;\r\n    }\r\n\r\n    /// @notice Update trading pair's prices in the frame\r\n    /// @param PriceCumulative Cumulative price\r\n    /// @dev For developement purposes the new price is added as an input\r\n    /// @dev Final version should use uniswap's oracles\r\n    function updateFramePrices(uint PriceCumulative) public {\r\n        uint frameKey = clcFrameTimestamp(block.timestamp);\r\n        frames[frameKey].lastBlockNum = block.number;\r\n        //Correct price if outside settle interval\r\n        if (block.timestamp >= ((frameKey.add(period)).sub(tReporting)) && frames[frameKey].oraclePrice0CumulativeStart == 0) {\r\n            frames[frameKey].oraclePrice0CumulativeStart = PriceCumulative;\r\n            frames[frameKey].oracleTimestampStart = block.timestamp;\r\n            emit FrameUpdate(frameKey);\r\n        }\r\n        else if (block.timestamp <= frameKey.add(period) && block.timestamp >= ((frameKey.add(period)).sub(tReporting))) {\r\n            frames[frameKey].oraclePrice0CumulativeEnd = PriceCumulative;\r\n            frames[frameKey].oracleTimestampEnd = block.timestamp;\r\n            emit FrameUpdate(frameKey);\r\n        }\r\n    }\r\n\r\n    /// @notice Close frame\r\n    /// @param frameKey Frame's timestamp\r\n    function closeFrame(uint frameKey) public {\r\n        //Check if frame is opened\r\n        require(frames[frameKey].state == SFrame.OPENED, \"FRAME NOT OPENED\");\r\n        //Check if frame timing is correct\r\n        require(frameKey.add(period) <= block.timestamp, \"FRAME END TIME NOT REACHED\");\r\n        //Check if frame has valid prices\r\n        if (frames[frameKey].oraclePrice0CumulativeStart <= 0 || frames[frameKey].oraclePrice0CumulativeEnd <= 0) {\r\n            frames[frameKey].state = SFrame.INVALID;\r\n        }\r\n        if (frames[frameKey].oraclePrice0CumulativeStart == frames[frameKey].oraclePrice0CumulativeEnd) {\r\n            frames[frameKey].state = SFrame.INVALID;\r\n        }\r\n        frames[frameKey].state = SFrame.CLOSED;\r\n\r\n        //UQ112x112 encoded\r\n        uint priceDiff = frames[frameKey].oraclePrice0CumulativeEnd.sub(frames[frameKey].oraclePrice0CumulativeStart);\r\n        uint timeDiff = frames[frameKey].oracleTimestampEnd.sub(frames[frameKey].oracleTimestampStart);\r\n        //Calculate time-weighted average price -- UQ112x112 encoded\r\n        frames[frameKey].priceAverage = uint(((FixedPoint.div(FixedPoint.uq112x112(uint224(priceDiff)), (uint112(timeDiff)))))._x);\r\n\r\n        //Decode to scalar value\r\n        frames[frameKey].priceAverage = (frames[frameKey].priceAverage >> 112).mul(scalar); \r\n        frames[frameKey].priceAverage = (frames[frameKey].priceAverage << 112).div(1e49);\r\n\r\n        //Subtract fees from the reward amount and send them to Owners of the market and protocol\r\n        uint marketOwnerFees = frames[frameKey].rewardFund.mul(feeMarket).div(100000);\r\n        uint protocolOwnerFees = frames[frameKey].rewardFund.mul(feeProtocol).div(100000);\r\n\r\n        frames[frameKey].rewardFund = frames[frameKey].rewardFund.sub(marketOwnerFees).sub(protocolOwnerFees);\r\n        accountingToken.transfer(ownerMarket, marketOwnerFees);\r\n        accountingToken.transfer(factory.owner(), protocolOwnerFees);\r\n\r\n        emit FrameUpdate(frameKey);\r\n    }\r\n\r\n    /// @notice Settle parcel for a owner. Owner's share of the reward amount get's transfered to owner's account\r\n    /// @param frameKey Frame's timestamp\r\n    /// @param owner Owner's address\r\n    function settleParcel(uint frameKey, address owner) public {  \r\n        //Check if frame is closed\r\n        require(frames[frameKey].state == SFrame.CLOSED, \"FRAME NOT CLOSED\");    \r\n        uint parcelKeyWin = (clcParcelInterval(frames[frameKey].priceAverage));\r\n\r\n        uint amount = clcSettleAmount(frameKey, parcelKeyWin, owner);\r\n        accountingToken.transfer(owner, amount);\r\n    }\r\n\r\n    /// @notice Calculate how many blocks the owner, owned the parcel\r\n    /// @param frameKey Frame's timestamp\r\n    /// @param parcelKey parcel's key\r\n    /// @param owner Owner's address\r\n    function clcOwnerBlocks(uint frameKey, uint parcelKey, address owner) internal view returns (uint) {\r\n        Parcel memory parcel = frames[frameKey].parcels[parcelKey];\r\n        uint endBlock = frames[frameKey].lastBlockNum;\r\n        uint ownerBlckNum = 0;\r\n        uint nextOwnerBlock = 0; \r\n        uint ownerBlocks = 0;\r\n\r\n        for (uint i=0; i< getNumberOfParcelOwners(frameKey, parcelKey); i++) {\r\n            if (frames[frameKey].parcels[parcelKey].parcelOwners[i].owner == owner) {\r\n                ownerBlckNum = parcel.parcelOwners[i].blockNum;\r\n\r\n                if (getNumberOfParcelOwners(frameKey, parcelKey)-1 == i) nextOwnerBlock = endBlock;\r\n                else nextOwnerBlock = parcel.parcelOwners[i.add(1)].blockNum;\r\n\r\n                ownerBlocks = ownerBlocks.add(nextOwnerBlock.sub(ownerBlckNum));\r\n            }\r\n        }\r\n        return ownerBlocks;\r\n    }\r\n\r\n    /// @notice Calculate owner's share based on the number of blocks the account owned the parcel\r\n    /// @param frameKey Frame's timestamp\r\n    /// @param parcelKey Parcel's key\r\n    /// @param owner Owner's address\r\n    /// @return Owner's precentage\r\n    function clcShare(uint frameKey, uint parcelKey, address owner) public view returns (uint) {\r\n        uint endBlock = frames[frameKey].lastBlockNum;\r\n\r\n        Parcel memory parcel = frames[frameKey].parcels[parcelKey];\r\n        uint firstOwnerBlock= parcel.parcelOwners[0].blockNum;\r\n\r\n        uint ownerBlocks = clcOwnerBlocks(frameKey, parcelKey, owner);\r\n        uint allBlocks = endBlock.sub(firstOwnerBlock);\r\n\r\n        uint share = ownerBlocks.mul(scalar).div(allBlocks);\r\n        return share;     \r\n    }\r\n\r\n    /// @notice Calculate owner's winning amount\r\n    /// @param frameKey Frame's timestamp\r\n    /// @param parcelKey Parcel's key\r\n    /// @param owner Owner's address\r\n    /// @return Owner's winnings\r\n    function clcSettleAmount(uint frameKey, uint parcelKey, address owner) public view returns (uint){\r\n        return clcShare(frameKey, parcelKey, owner).mul(frames[frameKey].rewardFund).div(scalar);\r\n    }\r\n\r\n}",
  "sourcePath": "D:/prog/UniHedge/core/contracts/Market.sol",
  "compiler": {
    "name": "solc",
    "version": "0.8.7+commit.e28d00a7.Emscripten.clang"
  },
  "schemaVersion": "3.4.1",
  "updatedAt": "2021-08-16T16:01:26.594Z",
  "devdoc": {
    "author": "UniHedge",
    "details": "All function calls are currently implemented without side effects",
    "kind": "dev",
    "methods": {
      "AmountToApprove(uint256,uint256,uint256,uint256)": {
        "params": {
          "acquisitionPrice": "New sell price is required to calculate tax",
          "frameKey": "Frame's timestamp",
          "pairPrice": "Value is trading pair's price (to get correct parcel key) "
        },
        "returns": {
          "_0": "amoun to approve"
        }
      },
      "buyParcel(uint256,uint256,uint256)": {
        "params": {
          "acquisitionPrice": "New sell price is required to calculate tax",
          "pairPrice": "Is trading pair's price (to get correct parcel key) ",
          "timestamp": "Frame's timestamp get's calculated from this value"
        }
      },
      "clcFrameTimestamp(uint256)": {
        "params": {
          "timestamp": "In seconds"
        },
        "returns": {
          "_0": "frame's timestamp (key)"
        }
      },
      "clcFramesLeft(uint256)": {
        "params": {
          "frameKey": "Timestamp of an arbitary frame in the future"
        },
        "returns": {
          "_0": "number of frames (whole numbers: n=0,1,2...)"
        }
      },
      "clcParcelInterval(uint256)": {
        "params": {
          "value": "Arbitary price of market's Uniswap pair"
        },
        "returns": {
          "_0": "parcel key (bottom boundary)"
        }
      },
      "clcSettleAmount(uint256,uint256,address)": {
        "params": {
          "frameKey": "Frame's timestamp",
          "owner": "Owner's address",
          "parcelKey": "Parcel's key"
        },
        "returns": {
          "_0": "Owner's winnings"
        }
      },
      "clcShare(uint256,uint256,address)": {
        "params": {
          "frameKey": "Frame's timestamp",
          "owner": "Owner's address",
          "parcelKey": "Parcel's key"
        },
        "returns": {
          "_0": "Owner's precentage"
        }
      },
      "closeFrame(uint256)": {
        "params": {
          "frameKey": "Frame's timestamp"
        }
      },
      "getNumberOfFrameKeys()": {
        "returns": {
          "_0": "number frames"
        }
      },
      "getNumberOfParcelOwners(uint256,uint256)": {
        "params": {
          "frameKey": "Frame's timestamp",
          "parcelKey": "Parcel's key "
        },
        "returns": {
          "_0": "number of owners"
        }
      },
      "getOrCreateFrame(uint256)": {
        "params": {
          "timestamp": "In second."
        },
        "returns": {
          "_0": "frameTimestamp Frame's key (timestamp that indicated the beggining of a frame)."
        }
      },
      "getParcel(uint256,uint256)": {
        "params": {
          "frameKey": "Frame's timestamp",
          "parcelKey": "parcel's key "
        },
        "returns": {
          "_0": "parcel struct"
        }
      },
      "getParcelKey(uint256,uint256)": {
        "params": {
          "frameKey": "Frame's timestamp",
          "index": "frameKeys array index "
        },
        "returns": {
          "_0": "parcelKey"
        }
      },
      "getParcelOwner(uint256,uint256)": {
        "params": {
          "frameKey": "Frame's timestamp",
          "parcelKey": "Parcel's key "
        },
        "returns": {
          "_0": "parcel's owner"
        }
      },
      "getParcelOwnerIndex(uint256,uint256,address)": {
        "params": {
          "frameKey": "Frame's timestamp",
          "owner": "Owners account address",
          "parcelKey": "Parcel's key "
        },
        "returns": {
          "i": "owner's index"
        }
      },
      "getParcelsCount(uint256)": {
        "params": {
          "frameKey": "Frame's timestamp"
        },
        "returns": {
          "_0": "parcel count"
        }
      },
      "getRewardAmount(uint256)": {
        "params": {
          "frameKey": "Frame's timestamp"
        },
        "returns": {
          "_0": "award amount"
        }
      },
      "settleParcel(uint256,address)": {
        "params": {
          "frameKey": "Frame's timestamp",
          "owner": "Owner's address"
        }
      },
      "updateFramePrices(uint256)": {
        "details": "For developement purposes the new price is added as an inputFinal version should use uniswap's oracles",
        "params": {
          "PriceCumulative": "Cumulative price"
        }
      },
      "updateParcelPrice(uint256,uint256,uint256)": {
        "params": {
          "acquisitionPrice": "New acquisition price",
          "pairPrice": "Is trading pair's price (to get correct parcel key) ",
          "timestamp": "Frame's timestamp get's calculated from this value"
        }
      }
    },
    "title": "TWPM Market",
    "version": 1
  },
  "userdoc": {
    "kind": "user",
    "methods": {
      "AmountToApprove(uint256,uint256,uint256,uint256)": {
        "notice": "Calculate amout required to approve to buy a parcel"
      },
      "buyParcel(uint256,uint256,uint256)": {
        "notice": "Calculate amout required to approve to buy a parcel"
      },
      "clcFrameTimestamp(uint256)": {
        "notice": "Calculate frames timestamp (beggining of frame)"
      },
      "clcFramesLeft(uint256)": {
        "notice": "Calculate how many frames there are left untill given frame in input"
      },
      "clcParcelInterval(uint256)": {
        "notice": "Calculate bottom boundary of a parcel"
      },
      "clcSettleAmount(uint256,uint256,address)": {
        "notice": "Calculate owner's winning amount"
      },
      "clcShare(uint256,uint256,address)": {
        "notice": "Calculate owner's share based on the number of blocks the account owned the parcel"
      },
      "closeFrame(uint256)": {
        "notice": "Close frame"
      },
      "getNumberOfFrameKeys()": {
        "notice": "Get number of frames"
      },
      "getNumberOfParcelOwners(uint256,uint256)": {
        "notice": "Get number of accounts that owned a specific parcel"
      },
      "getOrCreateFrame(uint256)": {
        "notice": "Create a frame"
      },
      "getParcel(uint256,uint256)": {
        "notice": "Get parcel struct"
      },
      "getParcelKey(uint256,uint256)": {
        "notice": "Get parcelKey from index in parcelKeys array"
      },
      "getParcelOwner(uint256,uint256)": {
        "notice": "Get parcel's owner"
      },
      "getParcelOwnerIndex(uint256,uint256,address)": {
        "notice": "Calculate parcel owner's index in the array of owners of the parcel"
      },
      "getParcelsCount(uint256)": {
        "notice": "Get no. of created parcels in a frame "
      },
      "getRewardAmount(uint256)": {
        "notice": "Get frame's award amount (accumulation of different parcel taxes)Remaining tax of a parcel owner get's returned after a sale (change of ownership). So the award amount isn't for sure untill the frame get's closed."
      },
      "settleParcel(uint256,address)": {
        "notice": "Settle parcel for a owner. Owner's share of the reward amount get's transfered to owner's account"
      },
      "updateFramePrices(uint256)": {
        "notice": "Update trading pair's prices in the frame"
      },
      "updateParcelPrice(uint256,uint256,uint256)": {
        "notice": "Owner can update parcel's price. Has to pay additional tax, or leftover tax gets' returned to him if the new price is lower"
      }
    },
    "version": 1
  }
}