{
  "contractName": "Market",
  "abi": [
    {
      "inputs": [
        {
          "internalType": "contract MarketFactory",
          "name": "_factory",
          "type": "address"
        },
        {
          "internalType": "contract IERC20",
          "name": "_token",
          "type": "address"
        },
        {
          "internalType": "contract IUniswapV2Pair",
          "name": "_uniswapPair",
          "type": "address"
        },
        {
          "internalType": "uint256",
          "name": "_period",
          "type": "uint256"
        },
        {
          "internalType": "uint256",
          "name": "_initTimestamp",
          "type": "uint256"
        },
        {
          "internalType": "uint256",
          "name": "_taxMarket",
          "type": "uint256"
        },
        {
          "internalType": "uint256",
          "name": "_feeMarket",
          "type": "uint256"
        },
        {
          "internalType": "uint256",
          "name": "_dPrice",
          "type": "uint256"
        },
        {
          "internalType": "uint256",
          "name": "_tReporting",
          "type": "uint256"
        },
        {
          "internalType": "uint256",
          "name": "_minTax",
          "type": "uint256"
        }
      ],
      "stateMutability": "nonpayable",
      "type": "constructor"
    },
    {
      "anonymous": false,
      "inputs": [
        {
          "indexed": false,
          "internalType": "uint256",
          "name": "frameKey",
          "type": "uint256"
        }
      ],
      "name": "FrameUpdate",
      "type": "event"
    },
    {
      "anonymous": false,
      "inputs": [
        {
          "indexed": false,
          "internalType": "uint256",
          "name": "frameKey",
          "type": "uint256"
        },
        {
          "indexed": false,
          "internalType": "uint256",
          "name": "lotKey",
          "type": "uint256"
        }
      ],
      "name": "LotUpdate",
      "type": "event"
    },
    {
      "inputs": [],
      "name": "accountingToken",
      "outputs": [
        {
          "internalType": "contract IERC20",
          "name": "",
          "type": "address"
        }
      ],
      "stateMutability": "view",
      "type": "function"
    },
    {
      "inputs": [],
      "name": "dPrice",
      "outputs": [
        {
          "internalType": "uint256",
          "name": "",
          "type": "uint256"
        }
      ],
      "stateMutability": "view",
      "type": "function"
    },
    {
      "inputs": [],
      "name": "factory",
      "outputs": [
        {
          "internalType": "contract MarketFactory",
          "name": "",
          "type": "address"
        }
      ],
      "stateMutability": "view",
      "type": "function"
    },
    {
      "inputs": [],
      "name": "feeMarket",
      "outputs": [
        {
          "internalType": "uint256",
          "name": "",
          "type": "uint256"
        }
      ],
      "stateMutability": "view",
      "type": "function"
    },
    {
      "inputs": [],
      "name": "feeProtocol",
      "outputs": [
        {
          "internalType": "uint256",
          "name": "",
          "type": "uint256"
        }
      ],
      "stateMutability": "view",
      "type": "function"
    },
    {
      "inputs": [
        {
          "internalType": "uint256",
          "name": "",
          "type": "uint256"
        }
      ],
      "name": "frames",
      "outputs": [
        {
          "internalType": "uint256",
          "name": "frameKey",
          "type": "uint256"
        },
        {
          "internalType": "enum Market.SFrame",
          "name": "state",
          "type": "uint8"
        },
        {
          "internalType": "uint256",
          "name": "priceAverage",
          "type": "uint256"
        },
        {
          "internalType": "uint256",
          "name": "rewardFund",
          "type": "uint256"
        },
        {
          "internalType": "uint256",
          "name": "oraclePrice0CumulativeStart",
          "type": "uint256"
        },
        {
          "internalType": "uint256",
          "name": "oraclePrice0CumulativeEnd",
          "type": "uint256"
        },
        {
          "internalType": "uint256",
          "name": "oracleTimestampStart",
          "type": "uint256"
        },
        {
          "internalType": "uint256",
          "name": "oracleTimestampEnd",
          "type": "uint256"
        },
        {
          "internalType": "uint256",
          "name": "lastBlockNum",
          "type": "uint256"
        }
      ],
      "stateMutability": "view",
      "type": "function"
    },
    {
      "inputs": [
        {
          "internalType": "uint256",
          "name": "",
          "type": "uint256"
        }
      ],
      "name": "framesKeys",
      "outputs": [
        {
          "internalType": "uint256",
          "name": "",
          "type": "uint256"
        }
      ],
      "stateMutability": "view",
      "type": "function"
    },
    {
      "inputs": [],
      "name": "initTimestamp",
      "outputs": [
        {
          "internalType": "uint256",
          "name": "",
          "type": "uint256"
        }
      ],
      "stateMutability": "view",
      "type": "function"
    },
    {
      "inputs": [],
      "name": "minTax",
      "outputs": [
        {
          "internalType": "uint256",
          "name": "",
          "type": "uint256"
        }
      ],
      "stateMutability": "view",
      "type": "function"
    },
    {
      "inputs": [],
      "name": "ownerMarket",
      "outputs": [
        {
          "internalType": "address payable",
          "name": "",
          "type": "address"
        }
      ],
      "stateMutability": "view",
      "type": "function"
    },
    {
      "inputs": [],
      "name": "period",
      "outputs": [
        {
          "internalType": "uint256",
          "name": "",
          "type": "uint256"
        }
      ],
      "stateMutability": "view",
      "type": "function"
    },
    {
      "inputs": [],
      "name": "tReporting",
      "outputs": [
        {
          "internalType": "uint256",
          "name": "",
          "type": "uint256"
        }
      ],
      "stateMutability": "view",
      "type": "function"
    },
    {
      "inputs": [],
      "name": "taxMarket",
      "outputs": [
        {
          "internalType": "uint256",
          "name": "",
          "type": "uint256"
        }
      ],
      "stateMutability": "view",
      "type": "function"
    },
    {
      "inputs": [],
      "name": "uniswapPair",
      "outputs": [
        {
          "internalType": "contract IUniswapV2Pair",
          "name": "",
          "type": "address"
        }
      ],
      "stateMutability": "view",
      "type": "function"
    },
    {
      "inputs": [
        {
          "internalType": "uint256",
          "name": "timestamp",
          "type": "uint256"
        }
      ],
      "name": "clcFrameTimestamp",
      "outputs": [
        {
          "internalType": "uint256",
          "name": "",
          "type": "uint256"
        }
      ],
      "stateMutability": "view",
      "type": "function"
    },
    {
      "inputs": [
        {
          "internalType": "uint256",
          "name": "value",
          "type": "uint256"
        }
      ],
      "name": "clcLotInterval",
      "outputs": [
        {
          "internalType": "uint256",
          "name": "",
          "type": "uint256"
        }
      ],
      "stateMutability": "view",
      "type": "function"
    },
    {
      "inputs": [
        {
          "internalType": "uint256",
          "name": "frameKey",
          "type": "uint256"
        }
      ],
      "name": "clcFramesLeft",
      "outputs": [
        {
          "internalType": "uint256",
          "name": "",
          "type": "uint256"
        }
      ],
      "stateMutability": "view",
      "type": "function"
    },
    {
      "inputs": [
        {
          "internalType": "uint256",
          "name": "frameKey",
          "type": "uint256"
        },
        {
          "internalType": "uint256",
          "name": "lotKey",
          "type": "uint256"
        }
      ],
      "name": "getLot",
      "outputs": [
        {
          "components": [
            {
              "internalType": "uint256",
              "name": "lotKey",
              "type": "uint256"
            },
            {
              "internalType": "address",
              "name": "lotOwner",
              "type": "address"
            },
            {
              "internalType": "uint256",
              "name": "acquisitionPrice",
              "type": "uint256"
            },
            {
              "internalType": "enum Market.SLot",
              "name": "state",
              "type": "uint8"
            }
          ],
          "internalType": "struct Market.Lot",
          "name": "",
          "type": "tuple"
        }
      ],
      "stateMutability": "view",
      "type": "function"
    },
    {
      "inputs": [
        {
          "internalType": "uint256",
          "name": "frameKey",
          "type": "uint256"
        }
      ],
      "name": "getLotsCount",
      "outputs": [
        {
          "internalType": "uint256",
          "name": "",
          "type": "uint256"
        }
      ],
      "stateMutability": "view",
      "type": "function"
    },
    {
      "inputs": [
        {
          "internalType": "uint256",
          "name": "frameKey",
          "type": "uint256"
        },
        {
          "internalType": "uint256",
          "name": "index",
          "type": "uint256"
        }
      ],
      "name": "getLotKey",
      "outputs": [
        {
          "internalType": "uint256",
          "name": "",
          "type": "uint256"
        }
      ],
      "stateMutability": "view",
      "type": "function"
    },
    {
      "inputs": [
        {
          "internalType": "uint256",
          "name": "frameKey",
          "type": "uint256"
        }
      ],
      "name": "getRewardAmount",
      "outputs": [
        {
          "internalType": "uint256",
          "name": "",
          "type": "uint256"
        }
      ],
      "stateMutability": "view",
      "type": "function"
    },
    {
      "inputs": [],
      "name": "getNumberOfFrameKeys",
      "outputs": [
        {
          "internalType": "uint256",
          "name": "",
          "type": "uint256"
        }
      ],
      "stateMutability": "view",
      "type": "function"
    },
    {
      "inputs": [
        {
          "internalType": "uint256",
          "name": "timestamp",
          "type": "uint256"
        }
      ],
      "name": "getOrCreateFrame",
      "outputs": [
        {
          "internalType": "uint256",
          "name": "",
          "type": "uint256"
        }
      ],
      "stateMutability": "nonpayable",
      "type": "function"
    },
    {
      "inputs": [
        {
          "internalType": "uint256",
          "name": "frameKey",
          "type": "uint256"
        },
        {
          "internalType": "uint256",
          "name": "acquisitionPrice",
          "type": "uint256"
        }
      ],
      "name": "clcTax",
      "outputs": [
        {
          "internalType": "uint256",
          "name": "tax",
          "type": "uint256"
        }
      ],
      "stateMutability": "view",
      "type": "function"
    },
    {
      "inputs": [
        {
          "internalType": "uint256",
          "name": "timestamp",
          "type": "uint256"
        },
        {
          "internalType": "uint256",
          "name": "pairPrice",
          "type": "uint256"
        },
        {
          "internalType": "uint256",
          "name": "acqPrice",
          "type": "uint256"
        }
      ],
      "name": "clcAmountToApprove",
      "outputs": [
        {
          "internalType": "uint256",
          "name": "cmpltAmnt",
          "type": "uint256"
        }
      ],
      "stateMutability": "view",
      "type": "function"
    },
    {
      "inputs": [
        {
          "internalType": "uint256",
          "name": "timestamp",
          "type": "uint256"
        },
        {
          "internalType": "uint256",
          "name": "pairPrice",
          "type": "uint256"
        },
        {
          "internalType": "uint256",
          "name": "acqPrice",
          "type": "uint256"
        }
      ],
      "name": "buyLot",
      "outputs": [],
      "stateMutability": "nonpayable",
      "type": "function"
    },
    {
      "inputs": [
        {
          "internalType": "uint256",
          "name": "timestamp",
          "type": "uint256"
        },
        {
          "internalType": "uint256",
          "name": "pairPrice",
          "type": "uint256"
        },
        {
          "internalType": "uint256",
          "name": "acqPrice",
          "type": "uint256"
        }
      ],
      "name": "updateLotPrice",
      "outputs": [],
      "stateMutability": "nonpayable",
      "type": "function"
    },
    {
      "inputs": [],
      "name": "updateFramePrices",
      "outputs": [],
      "stateMutability": "nonpayable",
      "type": "function"
    },
    {
      "inputs": [
        {
          "internalType": "uint256",
          "name": "frameKey",
          "type": "uint256"
        }
      ],
      "name": "closeFrame",
      "outputs": [],
      "stateMutability": "nonpayable",
      "type": "function"
    },
    {
      "inputs": [
        {
          "internalType": "uint256",
          "name": "frameKey",
          "type": "uint256"
        }
      ],
      "name": "settleLot",
      "outputs": [],
      "stateMutability": "nonpayable",
      "type": "function"
    },
    {
      "inputs": [
        {
          "internalType": "uint256",
          "name": "amount",
          "type": "uint256"
        }
      ],
      "name": "emptyFunds",
      "outputs": [],
      "stateMutability": "nonpayable",
      "type": "function"
    }
  ],
  "bytecode": "0x6080604052606460095569d3c21bcecceda1000000600c553480156200002457600080fd5b5060405162003ebb38038062003ebb83398181016040528101906200004a9190620002d1565b88600160006101000a81548173ffffffffffffffffffffffffffffffffffffffff021916908373ffffffffffffffffffffffffffffffffffffffff16021790555033600260006101000a81548173ffffffffffffffffffffffffffffffffffffffff021916908373ffffffffffffffffffffffffffffffffffffffff1602179055508660038190555085600481905550846008819055508360078190555087600560006101000a81548173ffffffffffffffffffffffffffffffffffffffff021916908373ffffffffffffffffffffffffffffffffffffffff16021790555082600681905550896000806101000a81548173ffffffffffffffffffffffffffffffffffffffff021916908373ffffffffffffffffffffffffffffffffffffffff16021790555081600a8190555080600b8190555050505050505050505050620003c7565b600080fd5b600073ffffffffffffffffffffffffffffffffffffffff82169050919050565b6000620001c08262000193565b9050919050565b6000620001d482620001b3565b9050919050565b620001e681620001c7565b8114620001f257600080fd5b50565b6000815190506200020681620001db565b92915050565b60006200021982620001b3565b9050919050565b6200022b816200020c565b81146200023757600080fd5b50565b6000815190506200024b8162000220565b92915050565b60006200025e82620001b3565b9050919050565b620002708162000251565b81146200027c57600080fd5b50565b600081519050620002908162000265565b92915050565b6000819050919050565b620002ab8162000296565b8114620002b757600080fd5b50565b600081519050620002cb81620002a0565b92915050565b6000806000806000806000806000806101408b8d031215620002f857620002f76200018e565b5b6000620003088d828e01620001f5565b9a505060206200031b8d828e016200023a565b99505060406200032e8d828e016200027f565b9850506060620003418d828e01620002ba565b9750506080620003548d828e01620002ba565b96505060a0620003678d828e01620002ba565b95505060c06200037a8d828e01620002ba565b94505060e06200038d8d828e01620002ba565b935050610100620003a18d828e01620002ba565b925050610120620003b58d828e01620002ba565b9150509295989b9194979a5092959850565b613ae480620003d76000396000f3fe608060405234801561001057600080fd5b50600436106101e55760003560e01c80637e9966391161010f578063c45a0155116100a2578063e107fb4f11610071578063e107fb4f146105c6578063ef78d4fd146105f6578063fc95070214610614578063ff5c86b014610630576101e5565b8063c45a01551461053c578063c816841b1461055a578063c84993af14610578578063da68cf8b146105a8576101e5565b806396b2c6f3116100de57806396b2c6f3146104ae578063a10340bc146104b8578063a4d246ff146104f0578063bb15d2dd14610520576101e5565b80637e99663914610412578063830ab11914610430578063888bdbcd1461046057806389da88a314610490576101e5565b8063499a0fc4116101875780636f1aefc3116101565780636f1aefc3146103785780636f7cb60b146103a85780637358c57a146103c45780637d6ae6a0146103e2576101e5565b8063499a0fc4146102f05780634d3ee2dc1461030e578063527eb4bc1461032a5780635b3ad63e14610348576101e5565b80633d09a82a116101c35780633d09a82a146102665780633e16bc2014610284578063410f0710146102b457806345084775146102d2576101e5565b8063050e8840146101ea5780630cbcff8f1461021a5780633c80d8ea1461024a575b600080fd5b61020460048036038101906101ff9190612c29565b61064e565b6040516102119190612c65565b60405180910390f35b610234600480360381019061022f9190612c29565b610672565b6040516102419190612c65565b60405180910390f35b610264600480360381019061025f9190612c80565b6107e7565b005b61026e610eb2565b60405161027b9190612c65565b60405180910390f35b61029e60048036038101906102999190612cd3565b610eb8565b6040516102ab9190612c65565b60405180910390f35b6102bc610ef5565b6040516102c99190612c65565b60405180910390f35b6102da610efb565b6040516102e79190612d54565b60405180910390f35b6102f8610f21565b6040516103059190612c65565b60405180910390f35b61032860048036038101906103239190612c29565b610f27565b005b610332611212565b60405161033f9190612c65565b60405180910390f35b610362600480360381019061035d9190612c29565b611218565b60405161036f9190612c65565b60405180910390f35b610392600480360381019061038d9190612cd3565b61125b565b60405161039f9190612e6b565b60405180910390f35b6103c260048036038101906103bd9190612c29565b611342565b005b6103cc61159d565b6040516103d99190612c65565b60405180910390f35b6103fc60048036038101906103f79190612c29565b6115a3565b6040516104099190612c65565b60405180910390f35b61041a6115d1565b6040516104279190612c65565b60405180910390f35b61044a60048036038101906104459190612c29565b6115d7565b6040516104579190612c65565b60405180910390f35b61047a60048036038101906104759190612c29565b6115fa565b6040516104879190612c65565b60405180910390f35b61049861163d565b6040516104a59190612c65565b60405180910390f35b6104b661164a565b005b6104d260048036038101906104cd9190612c29565b61183a565b6040516104e799989796959493929190612ece565b60405180910390f35b61050a60048036038101906105059190612c80565b611895565b6040516105179190612c65565b60405180910390f35b61053a60048036038101906105359190612c80565b611900565b005b610544611e09565b6040516105519190612fba565b60405180910390f35b610562611e2d565b60405161056f9190612ff6565b60405180910390f35b610592600480360381019061058d9190612c29565b611e53565b60405161059f9190612c65565b60405180910390f35b6105b0611e73565b6040516105bd9190613032565b60405180910390f35b6105e060048036038101906105db9190612cd3565b611e99565b6040516105ed9190612c65565b60405180910390f35b6105fe611f67565b60405161060b9190612c65565b60405180910390f35b61062e60048036038101906106299190612c29565b611f6d565b005b610638612673565b6040516106459190612c65565b60405180910390f35b600e818154811061065e57600080fd5b906000526020600020016000915090505481565b60008061067e83611218565b90506000600381111561069457610693612d9f565b5b600d600083815260200190815260200160002060010160009054906101000a900460ff1660038111156106ca576106c9612d9f565b5b146106d857809150506107e2565b6106e142611218565b811015610723576040517f08c379a000000000000000000000000000000000000000000000000000000000815260040161071a906130aa565b60405180910390fd5b80600d6000838152602001908152602001600020600001819055506001600d600083815260200190815260200160002060010160006101000a81548160ff0219169083600381111561077857610777612d9f565b5b0217905550600e8190806001815401808255809150506001900390600052602060002001600090919091909150557f163614e6e9ce9df7687928015fd2c748b69c5136db886e57f09170b251b58e87816040516107d59190612c65565b60405180910390a1809150505b919050565b806000620186a0600854836107fc91906130f9565b6108069190613182565b9050600b5481101561084d576040517f08c379a0000000000000000000000000000000000000000000000000000000008152600401610844906131ff565b60405180910390fd5b600061085886610672565b905060006108668287612679565b9050600d6000838152602001908152602001600020600901600082815260200190815260200160002060010160009054906101000a900473ffffffffffffffffffffffffffffffffffffffff1673ffffffffffffffffffffffffffffffffffffffff163373ffffffffffffffffffffffffffffffffffffffff161415610921576040517f08c379a00000000000000000000000000000000000000000000000000000000081526004016109189061326b565b60405180910390fd5b600061092d8387611e99565b905080600d6000858152602001908152602001600020600901600084815260200190815260200160002060020154610965919061328b565b600160009054906101000a900473ffffffffffffffffffffffffffffffffffffffff1673ffffffffffffffffffffffffffffffffffffffff1663dd62ed3e33306040518363ffffffff1660e01b81526004016109c29291906132f0565b60206040518083038186803b1580156109da57600080fd5b505afa1580156109ee573d6000803e3d6000fd5b505050506040513d601f19601f82011682018060405250810190610a12919061332e565b1015610a53576040517f08c379a0000000000000000000000000000000000000000000000000000000008152600401610a4a906133a7565b60405180910390fd5b600160009054906101000a900473ffffffffffffffffffffffffffffffffffffffff1673ffffffffffffffffffffffffffffffffffffffff166323b872dd333084600d6000898152602001908152602001600020600901600088815260200190815260200160002060020154610ac9919061328b565b6040518463ffffffff1660e01b8152600401610ae7939291906133c7565b602060405180830381600087803b158015610b0157600080fd5b505af1158015610b15573d6000803e3d6000fd5b505050506040513d601f19601f82011682018060405250810190610b399190613436565b5080600d600085815260200190815260200160002060030154610b5c919061328b565b600d60008581526020019081526020016000206003018190555060016002811115610b8a57610b89612d9f565b5b600d6000858152602001908152602001600020600901600084815260200190815260200160002060030160009054906101000a900460ff166002811115610bd457610bd3612d9f565b5b1415610d83576000610c1084600d6000878152602001908152602001600020600901600086815260200190815260200160002060020154611e99565b9050600160009054906101000a900473ffffffffffffffffffffffffffffffffffffffff1673ffffffffffffffffffffffffffffffffffffffff1663a9059cbb600d6000878152602001908152602001600020600901600086815260200190815260200160002060010160009054906101000a900473ffffffffffffffffffffffffffffffffffffffff16600d600088815260200190815260200160002060090160008781526020019081526020016000206002015484610cd1919061328b565b6040518363ffffffff1660e01b8152600401610cee929190613463565b602060405180830381600087803b158015610d0857600080fd5b505af1158015610d1c573d6000803e3d6000fd5b505050506040513d601f19601f82011682018060405250810190610d409190613436565b5080600d600086815260200190815260200160002060030154610d63919061348c565b600d60008681526020019081526020016000206003018190555050610dd7565b6001600d6000858152602001908152602001600020600901600084815260200190815260200160002060030160006101000a81548160ff02191690836002811115610dd157610dd0612d9f565b5b02179055505b33600d6000858152602001908152602001600020600901600084815260200190815260200160002060010160006101000a81548173ffffffffffffffffffffffffffffffffffffffff021916908373ffffffffffffffffffffffffffffffffffffffff16021790555085600d60008581526020019081526020016000206009016000848152602001908152602001600020600201819055507fd0d6f900b5096e8e38e0b13b83d7ac826d0c461a139f26a9bfbee4b4d3d1e9198383604051610ea09291906134c0565b60405180910390a15050505050505050565b600b5481565b6000600d6000848152602001908152602001600020600a018281548110610ee257610ee16134e9565b5b9060005260206000200154905092915050565b60075481565b600260009054906101000a900473ffffffffffffffffffffffffffffffffffffffff1681565b60065481565b60026003811115610f3b57610f3a612d9f565b5b600d600083815260200190815260200160002060010160009054906101000a900460ff166003811115610f7157610f70612d9f565b5b14610fb1576040517f08c379a0000000000000000000000000000000000000000000000000000000008152600401610fa890613564565b60405180910390fd5b6000610fd2600d6000848152602001908152602001600020600201546115fa565b9050600280811115610fe757610fe6612d9f565b5b600d6000848152602001908152602001600020600901600083815260200190815260200160002060030160009054906101000a900460ff16600281111561103157611030612d9f565b5b1415611072576040517f08c379a0000000000000000000000000000000000000000000000000000000008152600401611069906135d0565b60405180910390fd5b600160009054906101000a900473ffffffffffffffffffffffffffffffffffffffff1673ffffffffffffffffffffffffffffffffffffffff1663a9059cbb600d6000858152602001908152602001600020600901600084815260200190815260200160002060010160009054906101000a900473ffffffffffffffffffffffffffffffffffffffff16600d6000868152602001908152602001600020600301546040518363ffffffff1660e01b815260040161112f929190613463565b602060405180830381600087803b15801561114957600080fd5b505af115801561115d573d6000803e3d6000fd5b505050506040513d601f19601f820116820180604052508101906111819190613436565b506002600d6000848152602001908152602001600020600901600083815260200190815260200160002060030160006101000a81548160ff021916908360028111156111d0576111cf612d9f565b5b02179055507fd0d6f900b5096e8e38e0b13b83d7ac826d0c461a139f26a9bfbee4b4d3d1e91982826040516112069291906134c0565b60405180910390a15050565b60095481565b6000600454821161122d576004549050611256565b6003546004548361123e919061348c565b61124891906135f0565b82611253919061348c565b90505b919050565b611263612b6d565b600d60008481526020019081526020016000206009016000838152602001908152602001600020604051806080016040529081600082015481526020016001820160009054906101000a900473ffffffffffffffffffffffffffffffffffffffff1673ffffffffffffffffffffffffffffffffffffffff1673ffffffffffffffffffffffffffffffffffffffff168152602001600282015481526020016003820160009054906101000a900460ff16600281111561132457611323612d9f565b5b600281111561133657611335612d9f565b5b81525050905092915050565b60008054906101000a900473ffffffffffffffffffffffffffffffffffffffff1673ffffffffffffffffffffffffffffffffffffffff16638da5cb5b6040518163ffffffff1660e01b815260040160206040518083038186803b1580156113a857600080fd5b505afa1580156113bc573d6000803e3d6000fd5b505050506040513d601f19601f820116820180604052508101906113e0919061364d565b73ffffffffffffffffffffffffffffffffffffffff163373ffffffffffffffffffffffffffffffffffffffff161461144d576040517f08c379a0000000000000000000000000000000000000000000000000000000008152600401611444906136c6565b60405180910390fd5b600160009054906101000a900473ffffffffffffffffffffffffffffffffffffffff1673ffffffffffffffffffffffffffffffffffffffff1663a9059cbb60008054906101000a900473ffffffffffffffffffffffffffffffffffffffff1673ffffffffffffffffffffffffffffffffffffffff16638da5cb5b6040518163ffffffff1660e01b815260040160206040518083038186803b1580156114f157600080fd5b505afa158015611505573d6000803e3d6000fd5b505050506040513d601f19601f82011682018060405250810190611529919061364d565b836040518363ffffffff1660e01b8152600401611547929190613463565b602060405180830381600087803b15801561156157600080fd5b505af1158015611575573d6000803e3d6000fd5b505050506040513d601f19601f820116820180604052508101906115999190613436565b5050565b60045481565b6000600160035442846115b6919061348c565b6115c09190613182565b6115ca919061328b565b9050919050565b60085481565b6000600d6000838152602001908152602001600020600a01805490509050919050565b600080821161160d576006549050611638565b600654600654600654846116219190613182565b61162b91906130f9565b611635919061328b565b90505b919050565b6000600e80549050905090565b60008061165642611218565b905043600d600083815260200190815260200160002060080181905550600a5460035482611684919061328b565b61168e919061348c565b42101580156116b357506000600d600083815260200190815260200160002060040154145b15611768576116e3600560009054906101000a900473ffffffffffffffffffffffffffffffffffffffff1661276a565b8063ffffffff169050600d60008581526020019081526020016000206004016000600d60008781526020019081526020016000206006016000849190505583965084919050555050507f163614e6e9ce9df7687928015fd2c748b69c5136db886e57f09170b251b58e878160405161175b9190612c65565b60405180910390a1611836565b600a5460035482611779919061328b565b611783919061348c565b4210611835576117b4600560009054906101000a900473ffffffffffffffffffffffffffffffffffffffff1661276a565b8063ffffffff169050600d60008581526020019081526020016000206005016000600d60008781526020019081526020016000206007016000849190505583965084919050555050507f163614e6e9ce9df7687928015fd2c748b69c5136db886e57f09170b251b58e878160405161182c9190612c65565b60405180910390a15b5b5050565b600d6020528060005260406000206000915090508060000154908060010160009054906101000a900460ff16908060020154908060030154908060040154908060050154908060060154908060070154908060080154905089565b6000806118a185611218565b905060006118ae856115fa565b905060006118bc8386611e99565b905080600d60008581526020019081526020016000206009016000848152602001908152602001600020600201546118f4919061328b565b93505050509392505050565b806000620186a06008548361191591906130f9565b61191f9190613182565b9050600b54811015611966576040517f08c379a000000000000000000000000000000000000000000000000000000000815260040161195d906131ff565b60405180910390fd5b600061197186610672565b9050600061197f8287612679565b90503373ffffffffffffffffffffffffffffffffffffffff16600d6000848152602001908152602001600020600901600083815260200190815260200160002060010160009054906101000a900473ffffffffffffffffffffffffffffffffffffffff1673ffffffffffffffffffffffffffffffffffffffff1614611a39576040517f08c379a0000000000000000000000000000000000000000000000000000000008152600401611a3090613732565b60405180910390fd5b6000611a458387611e99565b90506000611a7d84600d6000878152602001908152602001600020600901600086815260200190815260200160002060020154611e99565b905080821115611c8a578082611a93919061348c565b600160009054906101000a900473ffffffffffffffffffffffffffffffffffffffff1673ffffffffffffffffffffffffffffffffffffffff1663dd62ed3e33306040518363ffffffff1660e01b8152600401611af09291906132f0565b60206040518083038186803b158015611b0857600080fd5b505afa158015611b1c573d6000803e3d6000fd5b505050506040513d601f19601f82011682018060405250810190611b40919061332e565b1015611b81576040517f08c379a0000000000000000000000000000000000000000000000000000000008152600401611b78906133a7565b60405180910390fd5b600160009054906101000a900473ffffffffffffffffffffffffffffffffffffffff1673ffffffffffffffffffffffffffffffffffffffff166323b872dd33308486611bcd919061348c565b6040518463ffffffff1660e01b8152600401611beb939291906133c7565b602060405180830381600087803b158015611c0557600080fd5b505af1158015611c19573d6000803e3d6000fd5b505050506040513d601f19601f82011682018060405250810190611c3d9190613436565b508082611c4a919061348c565b600d600086815260200190815260200160002060030154611c6b919061328b565b600d600086815260200190815260200160002060030181905550611d96565b80821015611d9557600160009054906101000a900473ffffffffffffffffffffffffffffffffffffffff1673ffffffffffffffffffffffffffffffffffffffff1663a9059cbb338484611cdd919061348c565b6040518363ffffffff1660e01b8152600401611cfa929190613463565b602060405180830381600087803b158015611d1457600080fd5b505af1158015611d28573d6000803e3d6000fd5b505050506040513d601f19601f82011682018060405250810190611d4c9190613436565b508181611d59919061348c565b600d600086815260200190815260200160002060030154611d7a919061348c565b600d6000868152602001908152602001600020600301819055505b5b86600d60008681526020019081526020016000206009016000858152602001908152602001600020600201819055507fd0d6f900b5096e8e38e0b13b83d7ac826d0c461a139f26a9bfbee4b4d3d1e9198484604051611df69291906134c0565b60405180910390a1505050505050505050565b60008054906101000a900473ffffffffffffffffffffffffffffffffffffffff1681565b600560009054906101000a900473ffffffffffffffffffffffffffffffffffffffff1681565b6000600d6000838152602001908152602001600020600301549050919050565b600160009054906101000a900473ffffffffffffffffffffffffffffffffffffffff1681565b60008042611eb360035442611eae919061328b565b611218565b611ebd919061348c565b9050600060035482600c54611ed291906130f9565b611edc9190613182565b90506000611ee9866115a3565b905080620186a060085487611efe91906130f9565b611f089190613182565b611f1291906130f9565b93506000620186a060085487611f2891906130f9565b611f329190613182565b9050600c548382611f4391906130f9565b611f4d9190613182565b90508085611f5b919061328b565b94505050505092915050565b60035481565b806000600d600083815260200190815260200160002060040154111580611fab57506000600d60008381526020019081526020016000206005015411155b1561202a576003600d600083815260200190815260200160002060010160006101000a81548160ff02191690836003811115611fea57611fe9612d9f565b5b02179055506040517f08c379a00000000000000000000000000000000000000000000000000000000081526004016120219061379e565b60405180910390fd5b600d600082815260200190815260200160002060050154600d60008381526020019081526020016000206004015414156120d8576003600d600083815260200190815260200160002060010160006101000a81548160ff0219169083600381111561209857612097612d9f565b5b02179055506040517f08c379a00000000000000000000000000000000000000000000000000000000081526004016120cf9061379e565b60405180910390fd5b600160038111156120ec576120eb612d9f565b5b600d600084815260200190815260200160002060010160009054906101000a900460ff16600381111561212257612121612d9f565b5b14612162576040517f08c379a00000000000000000000000000000000000000000000000000000000081526004016121599061380a565b60405180910390fd5b4260035483612171919061328b565b11156121b2576040517f08c379a00000000000000000000000000000000000000000000000000000000081526004016121a990613876565b60405180910390fd5b6002600d600084815260200190815260200160002060010160006101000a81548160ff021916908360038111156121ec576121eb612d9f565b5b02179055506000600d600084815260200190815260200160002060040154600d60008581526020019081526020016000206005015461222b919061348c565b90506000600d600085815260200190815260200160002060060154600d600086815260200190815260200160002060070154612267919061348c565b905061229f6040518060200160405280847bffffffffffffffffffffffffffffffffffffffffffffffffffffffff16815250826129c5565b600001517bffffffffffffffffffffffffffffffffffffffffffffffffffffffff16600d6000868152602001908152602001600020600201819055507406d79f82328ea3da61e066ebb2f88a0000000000006070600d600087815260200190815260200160002060020154901b6123169190613182565b600c546070600d600088815260200190815260200160002060020154901c61233e91906130f9565b612348919061328b565b600d6000868152602001908152602001600020600201819055506000620186a0600754600d60008881526020019081526020016000206003015461238c91906130f9565b6123969190613182565b90506000620186a0600954600d6000898152602001908152602001600020600301546123c291906130f9565b6123cc9190613182565b90508082600d6000898152602001908152602001600020600301546123f1919061348c565b6123fb919061348c565b600d600088815260200190815260200160002060030181905550600160009054906101000a900473ffffffffffffffffffffffffffffffffffffffff1673ffffffffffffffffffffffffffffffffffffffff1663a9059cbb600260009054906101000a900473ffffffffffffffffffffffffffffffffffffffff16846040518363ffffffff1660e01b81526004016124949291906138b7565b602060405180830381600087803b1580156124ae57600080fd5b505af11580156124c2573d6000803e3d6000fd5b505050506040513d601f19601f820116820180604052508101906124e69190613436565b50600160009054906101000a900473ffffffffffffffffffffffffffffffffffffffff1673ffffffffffffffffffffffffffffffffffffffff1663a9059cbb60008054906101000a900473ffffffffffffffffffffffffffffffffffffffff1673ffffffffffffffffffffffffffffffffffffffff16638da5cb5b6040518163ffffffff1660e01b815260040160206040518083038186803b15801561258b57600080fd5b505afa15801561259f573d6000803e3d6000fd5b505050506040513d601f19601f820116820180604052508101906125c3919061364d565b836040518363ffffffff1660e01b81526004016125e1929190613463565b602060405180830381600087803b1580156125fb57600080fd5b505af115801561260f573d6000803e3d6000fd5b505050506040513d601f19601f820116820180604052508101906126339190613436565b507f163614e6e9ce9df7687928015fd2c748b69c5136db886e57f09170b251b58e87866040516126639190612c65565b60405180910390a1505050505050565b600a5481565b600080612685836115fa565b90506000600281111561269b5761269a612d9f565b5b600d6000868152602001908152602001600020600901600083815260200190815260200160002060030160009054906101000a900460ff1660028111156126e5576126e4612d9f565b5b146126f35780915050612764565b80600d6000868152602001908152602001600020600901600083815260200190815260200160002060000181905550600d6000858152602001908152602001600020600a01819080600181540180825580915050600190039060005260206000200160009091909190915055809150505b92915050565b6000806000612777612a75565b90508373ffffffffffffffffffffffffffffffffffffffff16635909c0d56040518163ffffffff1660e01b815260040160206040518083038186803b1580156127bf57600080fd5b505afa1580156127d3573d6000803e3d6000fd5b505050506040513d601f19601f820116820180604052508101906127f7919061332e565b92508373ffffffffffffffffffffffffffffffffffffffff16635a3d54936040518163ffffffff1660e01b815260040160206040518083038186803b15801561283f57600080fd5b505afa158015612853573d6000803e3d6000fd5b505050506040513d601f19601f82011682018060405250810190612877919061332e565b915060008060008673ffffffffffffffffffffffffffffffffffffffff16630902f1ac6040518163ffffffff1660e01b815260040160606040518083038186803b1580156128c457600080fd5b505afa1580156128d8573d6000803e3d6000fd5b505050506040513d601f19601f820116820180604052508101906128fc9190613962565b9250925092508363ffffffff168163ffffffff16146129bb576000818561292391906139b5565b90508063ffffffff166129368486612a8d565b600001517bffffffffffffffffffffffffffffffffffffffffffffffffffffffff1661296291906130f9565b8761296d919061328b565b96508063ffffffff166129808585612a8d565b600001517bffffffffffffffffffffffffffffffffffffffffffffffffffffffff166129ac91906130f9565b866129b7919061328b565b9550505b5050509193909250565b6129cd612bbd565b6000826dffffffffffffffffffffffffffff161415612a21576040517f08c379a0000000000000000000000000000000000000000000000000000000008152600401612a1890613a35565b60405180910390fd5b6040518060200160405280836dffffffffffffffffffffffffffff168560000151612a4c9190613a7d565b7bffffffffffffffffffffffffffffffffffffffffffffffffffffffff16815250905092915050565b600064010000000042612a8891906135f0565b905090565b612a95612bbd565b6000826dffffffffffffffffffffffffffff1611612ae8576040517f08c379a0000000000000000000000000000000000000000000000000000000008152600401612adf90613a35565b60405180910390fd5b6040518060200160405280836dffffffffffffffffffffffffffff16607060ff16866dffffffffffffffffffffffffffff167bffffffffffffffffffffffffffffffffffffffffffffffffffffffff16901b612b449190613a7d565b7bffffffffffffffffffffffffffffffffffffffffffffffffffffffff16815250905092915050565b604051806080016040528060008152602001600073ffffffffffffffffffffffffffffffffffffffff1681526020016000815260200160006002811115612bb757612bb6612d9f565b5b81525090565b604051806020016040528060007bffffffffffffffffffffffffffffffffffffffffffffffffffffffff1681525090565b600080fd5b6000819050919050565b612c0681612bf3565b8114612c1157600080fd5b50565b600081359050612c2381612bfd565b92915050565b600060208284031215612c3f57612c3e612bee565b5b6000612c4d84828501612c14565b91505092915050565b612c5f81612bf3565b82525050565b6000602082019050612c7a6000830184612c56565b92915050565b600080600060608486031215612c9957612c98612bee565b5b6000612ca786828701612c14565b9350506020612cb886828701612c14565b9250506040612cc986828701612c14565b9150509250925092565b60008060408385031215612cea57612ce9612bee565b5b6000612cf885828601612c14565b9250506020612d0985828601612c14565b9150509250929050565b600073ffffffffffffffffffffffffffffffffffffffff82169050919050565b6000612d3e82612d13565b9050919050565b612d4e81612d33565b82525050565b6000602082019050612d696000830184612d45565b92915050565b612d7881612bf3565b82525050565b6000612d8982612d13565b9050919050565b612d9981612d7e565b82525050565b7f4e487b7100000000000000000000000000000000000000000000000000000000600052602160045260246000fd5b60038110612ddf57612dde612d9f565b5b50565b6000819050612df082612dce565b919050565b6000612e0082612de2565b9050919050565b612e1081612df5565b82525050565b608082016000820151612e2c6000850182612d6f565b506020820151612e3f6020850182612d90565b506040820151612e526040850182612d6f565b506060820151612e656060850182612e07565b50505050565b6000608082019050612e806000830184612e16565b92915050565b60048110612e9757612e96612d9f565b5b50565b6000819050612ea882612e86565b919050565b6000612eb882612e9a565b9050919050565b612ec881612ead565b82525050565b600061012082019050612ee4600083018c612c56565b612ef1602083018b612ebf565b612efe604083018a612c56565b612f0b6060830189612c56565b612f186080830188612c56565b612f2560a0830187612c56565b612f3260c0830186612c56565b612f3f60e0830185612c56565b612f4d610100830184612c56565b9a9950505050505050505050565b6000819050919050565b6000612f80612f7b612f7684612d13565b612f5b565b612d13565b9050919050565b6000612f9282612f65565b9050919050565b6000612fa482612f87565b9050919050565b612fb481612f99565b82525050565b6000602082019050612fcf6000830184612fab565b92915050565b6000612fe082612f87565b9050919050565b612ff081612fd5565b82525050565b600060208201905061300b6000830184612fe7565b92915050565b600061301c82612f87565b9050919050565b61302c81613011565b82525050565b60006020820190506130476000830184613023565b92915050565b600082825260208201905092915050565b7f43414e275420435245415445204652414d4520494e2050415354000000000000600082015250565b6000613094601a8361304d565b915061309f8261305e565b602082019050919050565b600060208201905081810360008301526130c381613087565b9050919050565b7f4e487b7100000000000000000000000000000000000000000000000000000000600052601160045260246000fd5b600061310482612bf3565b915061310f83612bf3565b9250817fffffffffffffffffffffffffffffffffffffffffffffffffffffffffffffffff0483118215151615613148576131476130ca565b5b828202905092915050565b7f4e487b7100000000000000000000000000000000000000000000000000000000600052601260045260246000fd5b600061318d82612bf3565b915061319883612bf3565b9250826131a8576131a7613153565b5b828204905092915050565b7f505249434520495320544f4f204c4f5700000000000000000000000000000000600082015250565b60006131e960108361304d565b91506131f4826131b3565b602082019050919050565b60006020820190508181036000830152613218816131dc565b9050919050565b7f4144445245535320414c5245414459204f574e53205448452050415243454c00600082015250565b6000613255601f8361304d565b91506132608261321f565b602082019050919050565b6000602082019050818103600083015261328481613248565b9050919050565b600061329682612bf3565b91506132a183612bf3565b9250827fffffffffffffffffffffffffffffffffffffffffffffffffffffffffffffffff038211156132d6576132d56130ca565b5b828201905092915050565b6132ea81612d7e565b82525050565b600060408201905061330560008301856132e1565b61331260208301846132e1565b9392505050565b60008151905061332881612bfd565b92915050565b60006020828403121561334457613343612bee565b5b600061335284828501613319565b91505092915050565b7f415050524f56454420414d4f554e5420495320544f4f20534d414c4c00000000600082015250565b6000613391601c8361304d565b915061339c8261335b565b602082019050919050565b600060208201905081810360008301526133c081613384565b9050919050565b60006060820190506133dc60008301866132e1565b6133e960208301856132e1565b6133f66040830184612c56565b949350505050565b60008115159050919050565b613413816133fe565b811461341e57600080fd5b50565b6000815190506134308161340a565b92915050565b60006020828403121561344c5761344b612bee565b5b600061345a84828501613421565b91505092915050565b600060408201905061347860008301856132e1565b6134856020830184612c56565b9392505050565b600061349782612bf3565b91506134a283612bf3565b9250828210156134b5576134b46130ca565b5b828203905092915050565b60006040820190506134d56000830185612c56565b6134e26020830184612c56565b9392505050565b7f4e487b7100000000000000000000000000000000000000000000000000000000600052603260045260246000fd5b7f4652414d45204e4f5420434c4f53454400000000000000000000000000000000600082015250565b600061354e60108361304d565b915061355982613518565b602082019050919050565b6000602082019050818103600083015261357d81613541565b9050919050565b7f4c4f5420414c524541445920534554544c454400000000000000000000000000600082015250565b60006135ba60138361304d565b91506135c582613584565b602082019050919050565b600060208201905081810360008301526135e9816135ad565b9050919050565b60006135fb82612bf3565b915061360683612bf3565b92508261361657613615613153565b5b828206905092915050565b61362a81612d7e565b811461363557600080fd5b50565b60008151905061364781613621565b92915050565b60006020828403121561366357613662612bee565b5b600061367184828501613638565b91505092915050565b7f594f5520415245204e4f542054484520464143544f5259204f574e4552000000600082015250565b60006136b0601d8361304d565b91506136bb8261367a565b602082019050919050565b600060208201905081810360008301526136df816136a3565b9050919050565b7f544849532041444452455353204953204e4f5420544845204f574e4552000000600082015250565b600061371c601d8361304d565b9150613727826136e6565b602082019050919050565b6000602082019050818103600083015261374b8161370f565b9050919050565b7f494e56414c494420505249434553000000000000000000000000000000000000600082015250565b6000613788600e8361304d565b915061379382613752565b602082019050919050565b600060208201905081810360008301526137b78161377b565b9050919050565b7f4652414d45204e4f54204f50454e454400000000000000000000000000000000600082015250565b60006137f460108361304d565b91506137ff826137be565b602082019050919050565b60006020820190508181036000830152613823816137e7565b9050919050565b7f4652414d4520454e442054494d45204e4f542052454143484544000000000000600082015250565b6000613860601a8361304d565b915061386b8261382a565b602082019050919050565b6000602082019050818103600083015261388f81613853565b9050919050565b60006138a182612f87565b9050919050565b6138b181613896565b82525050565b60006040820190506138cc60008301856138a8565b6138d96020830184612c56565b9392505050565b60006dffffffffffffffffffffffffffff82169050919050565b613903816138e0565b811461390e57600080fd5b50565b600081519050613920816138fa565b92915050565b600063ffffffff82169050919050565b61393f81613926565b811461394a57600080fd5b50565b60008151905061395c81613936565b92915050565b60008060006060848603121561397b5761397a612bee565b5b600061398986828701613911565b935050602061399a86828701613911565b92505060406139ab8682870161394d565b9150509250925092565b60006139c082613926565b91506139cb83613926565b9250828210156139de576139dd6130ca565b5b828203905092915050565b7f4669786564506f696e743a204449565f42595f5a45524f000000000000000000600082015250565b6000613a1f60178361304d565b9150613a2a826139e9565b602082019050919050565b60006020820190508181036000830152613a4e81613a12565b9050919050565b60007bffffffffffffffffffffffffffffffffffffffffffffffffffffffff82169050919050565b6000613a8882613a55565b9150613a9383613a55565b925082613aa357613aa2613153565b5b82820490509291505056fea26469706673582212206e28632fd5b2a767871b03c8c369008dada8122dfaa612167c4ff867be77740b64736f6c63430008090033",
  "immutableReferences": {},
  "source": "// SPDX-License-Identifier: MIT\r\npragma solidity ^0.8.0;\r\n//pragma experimental ABIEncoderV2;\r\n\r\nimport \"./MarketFactory.sol\";\r\nimport \"@uniswap/v2-core/contracts/interfaces/IUniswapV2Pair.sol\";\r\nimport \"@uniswap/v2-periphery/contracts/libraries/UniswapV2OracleLibrary.sol\";\r\nimport \"@uniswap/lib/contracts/libraries/FixedPoint.sol\";\r\nimport \"@openzeppelin/contracts/token/ERC20/IERC20.sol\";\r\n\r\n/// @title TWPM Market\r\n/// @author UniHedge\r\n/// @dev All function calls are currently implemented without side effects\r\ncontract Market {\r\n    //Contract for creating markets\r\n    MarketFactory public factory;\r\n    //ERC20 token used for buyng lots in this contract \r\n    IERC20 public accountingToken;\r\n    //Owner of this market\r\n    address payable public ownerMarket;\r\n    //Length of a frame\r\n    uint public period;\r\n    //Contract creation time\r\n    uint public initTimestamp; \r\n    //Token pair on Uniswap\r\n    IUniswapV2Pair public uniswapPair;\r\n    //Range of a lot\r\n    uint public dPrice;\r\n    //Fee that gets to market owner\r\n    uint public feeMarket;\r\n    //Tax on lots\r\n    uint public taxMarket;\r\n    //Protocol fee\r\n    uint public feeProtocol = 100;\r\n    //Reporting time for pair price\r\n    uint public tReporting;\r\n    //Minimal lot tax per frame\r\n    uint public minTax;\r\n    //Scalar number used for calculating precentages\r\n    uint scalar = 1e24;\r\n\r\n    enum SFrame {NULL, OPENED, CLOSED, INVALID}\r\n    struct Frame {\r\n        uint frameKey;\r\n        SFrame state;\r\n        uint priceAverage;\r\n        uint rewardFund;\r\n        uint oraclePrice0CumulativeStart;\r\n        uint oraclePrice0CumulativeEnd;\r\n        uint oracleTimestampStart;\r\n        uint oracleTimestampEnd;\r\n        uint lastBlockNum;\r\n        mapping(uint => Lot) lots;\r\n        uint[] lotKeys;\r\n    }\r\n\r\n    event FrameUpdate(uint frameKey);\r\n\r\n    mapping(uint => Frame) public frames;\r\n    uint[] public framesKeys;\r\n\r\n    enum SLot {NULL, BOUGHT, SETTLED}\r\n    struct Lot {\r\n        uint lotKey;\r\n        address lotOwner;\r\n        uint acquisitionPrice;\r\n        SLot state;\r\n    }\r\n\r\n    event LotUpdate(uint frameKey, uint lotKey);\r\n\r\n    constructor(MarketFactory _factory, IERC20 _token, IUniswapV2Pair _uniswapPair, uint _period, uint _initTimestamp, uint _taxMarket, uint _feeMarket, uint _dPrice, uint _tReporting, uint _minTax) {\r\n        accountingToken = _token;\r\n        ownerMarket = payable(msg.sender);\r\n        period = _period;\r\n        initTimestamp = _initTimestamp; \r\n        taxMarket = _taxMarket;\r\n        feeMarket = _feeMarket;\r\n        uniswapPair = _uniswapPair;\r\n        dPrice = _dPrice;\r\n        factory = _factory;\r\n        tReporting = _tReporting;\r\n        minTax = _minTax;\r\n    }\r\n\r\n    modifier minTaxCheck(uint acqPrice) {\r\n        uint tax = acqPrice * (taxMarket) / (100000);\r\n        require(tax >= minTax, \"PRICE IS TOO LOW\");\r\n        _;\r\n    }\r\n\r\n    modifier isFactoryOwner() {\r\n        require(msg.sender == factory.owner(), \"YOU ARE NOT THE FACTORY OWNER\");\r\n        _;\r\n    }\r\n\r\n    modifier hasValidPrices(uint framekey) {\r\n        if (frames[framekey].oraclePrice0CumulativeStart <= 0 || frames[framekey].oraclePrice0CumulativeEnd <= 0) {\r\n            frames[framekey].state = SFrame.INVALID;\r\n            revert(\"INVALID PRICES\");\r\n        }\r\n        if (frames[framekey].oraclePrice0CumulativeStart == frames[framekey].oraclePrice0CumulativeEnd) {\r\n            frames[framekey].state = SFrame.INVALID;\r\n            revert(\"INVALID PRICES\");\r\n        }\r\n        _;\r\n    }\r\n\r\n    /// @notice Calculate frames timestamp (beggining of frame)\r\n    /// @param timestamp In seconds\r\n    /// @return frame's timestamp (key)\r\n    function clcFrameTimestamp(uint timestamp) public view returns (uint){\r\n        if (timestamp <= initTimestamp) return initTimestamp;\r\n        return timestamp - ((timestamp - (initTimestamp)) % (period));\r\n    }\r\n\r\n    /// @notice Calculate top boundary of a lot\r\n    /// @param value Arbitary price of market's Uniswap pair\r\n    /// @return lot key (top boundary)\r\n    function clcLotInterval(uint value) public view returns (uint){\r\n        if (value <= 0) return dPrice;\r\n        return value / (dPrice) * (dPrice) + (dPrice);\r\n    }\r\n\r\n    /// @notice Calculate how many frames there are left untill given frame in input\r\n    /// @param frameKey Timestamp of an arbitary frame in the future\r\n    /// @return number of frames (whole numbers: n=0,1,2...)\r\n    function clcFramesLeft(uint frameKey) public view returns (uint){                      \r\n        return (((frameKey - (block.timestamp)) / period) + 1);\r\n    }\r\n\r\n    /// @notice Get lot struct\r\n    /// @param frameKey Frame's timestamp\r\n    /// @param lotKey lot's key \r\n    /// @return lot struct\r\n    function getLot(uint frameKey, uint lotKey) public view returns (Lot memory){                 \r\n        return frames[frameKey].lots[lotKey];\r\n    }\r\n\r\n    /// @notice Get no. of created lots in a frame \r\n    /// @param frameKey Frame's timestamp\r\n    /// @return lot count\r\n    function getLotsCount(uint frameKey) public view returns (uint){                 \r\n        return frames[frameKey].lotKeys.length;\r\n    }\r\n\r\n    /// @notice Get lotKey from index in lotKeys array\r\n    /// @param frameKey Frame's timestamp\r\n    /// @param index frameKeys array index \r\n    /// @return lotKey\r\n    function getLotKey(uint frameKey, uint index) public view returns (uint){                 \r\n        return frames[frameKey].lotKeys[index];\r\n    }\r\n\r\n    /// @notice Get frame's award amount (accumulation of different lot taxes)\r\n    /// @notice Remaining tax of a lot owner get's returned after a sale (change of ownership). So the award amount isn't for sure untill the frame get's closed.\r\n    /// @param frameKey Frame's timestamp\r\n    /// @return award amount\r\n    function getRewardAmount(uint frameKey) public view returns (uint) {                         \r\n        return frames[frameKey].rewardFund; \r\n    }\r\n\r\n    /// @notice Get number of frames\r\n    /// @return number frames\r\n    function getNumberOfFrameKeys() public view returns (uint){\r\n        return framesKeys.length;\r\n    }\r\n\r\n    /// @notice Create a frame\r\n    /// @param timestamp In second.\r\n    /// @return frameTimestamp Frame's key (timestamp that indicated the beggining of a frame).\r\n    function getOrCreateFrame(uint timestamp) public returns (uint){\r\n        //Get frame's timestamp - frame key\r\n        uint frameKey = clcFrameTimestamp(timestamp);\r\n        //Check if frame exists\r\n        if (frames[frameKey].state != SFrame.NULL) return frameKey;\r\n        require(frameKey >= clcFrameTimestamp(block.timestamp), \"CAN'T CREATE FRAME IN PAST\");\r\n        //Add frame\r\n        frames[frameKey].frameKey = frameKey;\r\n        frames[frameKey].state = SFrame.OPENED;\r\n        framesKeys.push(frameKey);\r\n        emit FrameUpdate(frameKey);\r\n        return frameKey;\r\n    }\r\n\r\n    /// @notice Create a lot\r\n    /// @param frameKey Frame's timestamp\r\n    /// @param pairPrice Price is the trading pair's price\r\n    /// @return lotKey\r\n    function getOrCreateLot(uint frameKey, uint pairPrice) internal returns(uint){\r\n        uint lotKey = clcLotInterval(pairPrice);\r\n        if (frames[frameKey].lots[lotKey].state != SLot.NULL) return lotKey;\r\n        frames[frameKey].lots[lotKey].lotKey = lotKey;\r\n        frames[frameKey].lotKeys.push(lotKey);\r\n        return lotKey;\r\n    }\r\n\r\n    function clcTax(uint frameKey, uint acquisitionPrice) public view returns (uint tax) {             \r\n        uint dFrame = (clcFrameTimestamp(block.timestamp + (period))) - (block.timestamp); \r\n        uint dFrameP = scalar * dFrame / (period);\r\n        //Calculate tax from the proposed acquisition price \r\n        uint numOfFramesLeft = clcFramesLeft(frameKey);\r\n        tax = acquisitionPrice * taxMarket / 100000 * numOfFramesLeft;\r\n        uint dtax = acquisitionPrice * taxMarket / 100000;\r\n        dtax = dtax * dFrameP / scalar;\r\n        tax = tax + dtax;\r\n        return tax;\r\n    }\r\n\r\n    /// @notice Calculate amout required to approve to buy a lot\r\n    /// @param timestamp Timestamp that determins which frame it is\r\n    /// @param pairPrice Value is trading pair's price (to get correct lot key) \r\n    /// @param acqPrice New sell price is required to calculate tax\r\n    /// @return cmpltAmnt complete price of a lot\r\n    function clcAmountToApprove(uint timestamp, uint pairPrice, uint acqPrice) public view returns (uint cmpltAmnt) {    \r\n        uint frameKey = clcFrameTimestamp(timestamp);         \r\n        uint lotKey = clcLotInterval(pairPrice);\r\n        uint tax = clcTax(frameKey, acqPrice);\r\n        cmpltAmnt = frames[frameKey].lots[lotKey].acquisitionPrice + tax;\r\n        return cmpltAmnt;\r\n    }\r\n\r\n    /// @notice Calculate amout required to approve to buy a lot\r\n    /// @param timestamp Frame's timestamp get's calculated from this value\r\n    /// @param pairPrice Is trading pair's price (to get correct lot key) \r\n    /// @param acqPrice New sell price is required to calculate tax\r\n    function buyLot(uint timestamp, uint pairPrice, uint acqPrice) public minTaxCheck(acqPrice) {\r\n        //Get frameKey and lotKey values\r\n        uint frameKey =  getOrCreateFrame(timestamp);                          \r\n        uint lotKey = getOrCreateLot(frameKey, pairPrice);\r\n        require(msg.sender != frames[frameKey].lots[lotKey].lotOwner, \"ADDRESS ALREADY OWNS THE PARCEL\");\r\n\r\n        uint tax = clcTax(frameKey, acqPrice);\r\n\r\n        //Approved amount has to be at leat equal to price of the Lot(with tax)\r\n        require(accountingToken.allowance(msg.sender, address(this)) >= (frames[frameKey].lots[lotKey].acquisitionPrice + tax), \"APPROVED AMOUNT IS TOO SMALL\");\r\n        //Transfer tax amount to the market contract\r\n        accountingToken.transferFrom(msg.sender, address(this), (frames[frameKey].lots[lotKey].acquisitionPrice + tax));\r\n        frames[frameKey].rewardFund = (frames[frameKey].rewardFund + tax);\r\n\r\n        //Pay the current owner + return leftover tax\r\n        if (frames[frameKey].lots[lotKey].state == SLot.BOUGHT) {\r\n            uint taxRetrn = clcTax(frameKey, frames[frameKey].lots[lotKey].acquisitionPrice);\r\n            //transfer funds\r\n            accountingToken.transfer(frames[frameKey].lots[lotKey].lotOwner, (taxRetrn + frames[frameKey].lots[lotKey].acquisitionPrice));\r\n            //update reward fund\r\n            frames[frameKey].rewardFund = frames[frameKey].rewardFund - taxRetrn;\r\n        }\r\n        else {\r\n            frames[frameKey].lots[lotKey].state = SLot.BOUGHT;\r\n        }\r\n       //Update lotKey values\r\n        frames[frameKey].lots[lotKey].lotOwner = msg.sender;\r\n        frames[frameKey].lots[lotKey].acquisitionPrice = acqPrice;\r\n\r\n        //updateFramePrices();\r\n        emit LotUpdate(frameKey, lotKey);\r\n    }\r\n\r\n    /// @notice Owner can update lot's price. Has to pay additional tax, or leftover tax gets' returned to him if the new price is lower\r\n    /// @param timestamp Frame's timestamp get's calculated from this value\r\n    /// @param pairPrice Is trading pair's price (to get correct lot key) \r\n    /// @param acqPrice New acquisition price\r\n    function updateLotPrice(uint timestamp, uint pairPrice, uint acqPrice) public minTaxCheck(acqPrice) {\r\n        uint frameKey = getOrCreateFrame(timestamp); \r\n        uint lotKey = getOrCreateLot(frameKey, pairPrice); \r\n        require(frames[frameKey].lots[lotKey].lotOwner == msg.sender, \"THIS ADDRESS IS NOT THE OWNER\");\r\n\r\n        uint taxNew = clcTax(frameKey, acqPrice);\r\n        uint taxOld = clcTax(frameKey, frames[frameKey].lots[lotKey].acquisitionPrice);\r\n\r\n        if (taxNew > taxOld) {\r\n            require(accountingToken.allowance(msg.sender, address(this)) >= (taxNew - taxOld), \"APPROVED AMOUNT IS TOO SMALL\");\r\n            //Transfer complete tax amount to the frame rewardFund\r\n            accountingToken.transferFrom(msg.sender, address(this), (taxNew - taxOld));\r\n            frames[frameKey].rewardFund = frames[frameKey].rewardFund + (taxNew- taxOld);\r\n        }\r\n        else if (taxNew < taxOld) {\r\n            accountingToken.transfer(msg.sender, taxOld - taxNew);\r\n            frames[frameKey].rewardFund = frames[frameKey].rewardFund - (taxOld - taxNew);\r\n        }\r\n        frames[frameKey].lots[lotKey].acquisitionPrice = acqPrice;\r\n\r\n        //updateFramePrices();\r\n        emit LotUpdate(frameKey, lotKey);\r\n    }\r\n\r\n    /// @notice Update trading pair's prices in the frame\r\n    function updateFramePrices() public {\r\n        uint tmp;\r\n        uint frameKey = clcFrameTimestamp(block.timestamp);\r\n        frames[frameKey].lastBlockNum = block.number;\r\n        //Correct price if outside settle interval\r\n        if (block.timestamp >= ((frameKey + (period)) - (tReporting)) && frames[frameKey].oraclePrice0CumulativeStart == 0) {\r\n            (frames[frameKey].oraclePrice0CumulativeStart, tmp, frames[frameKey].oracleTimestampStart) = UniswapV2OracleLibrary.currentCumulativePrices(address(uniswapPair));\r\n            emit FrameUpdate(frameKey);\r\n        }\r\n        else if (block.timestamp >= ((frameKey + (period)) - (tReporting))) {\r\n            (frames[frameKey].oraclePrice0CumulativeEnd, tmp, frames[frameKey].oracleTimestampEnd) = UniswapV2OracleLibrary.currentCumulativePrices(address(uniswapPair));\r\n            emit FrameUpdate(frameKey);\r\n        }\r\n    }\r\n\r\n    // /// @notice Update trading pair's prices in the frame\r\n    // /// @param PriceCumulative Cumulative price\r\n    // /// @dev For developement purposes the new price is added as an input\r\n    // /// @dev Final version should use uniswap's oracles\r\n    // function updateFramePrices(uint PriceCumulative) public {\r\n    //     uint frameKey = clcFrameTimestamp(block.timestamp);\r\n    //     frames[frameKey].lastBlockNum = block.number;\r\n    //     //Correct price if outside settle interval\r\n    //     if (block.timestamp >= ((frameKey + period) - tReporting) && frames[frameKey].oraclePrice0CumulativeStart == 0) {\r\n    //         frames[frameKey].oraclePrice0CumulativeStart = PriceCumulative;\r\n    //         frames[frameKey].oracleTimestampStart = block.timestamp;\r\n    //         emit FrameUpdate(frameKey);\r\n    //     }\r\n    //     else if (block.timestamp >= ((frameKey + period) - tReporting)) {\r\n    //         frames[frameKey].oraclePrice0CumulativeEnd = PriceCumulative;\r\n    //         frames[frameKey].oracleTimestampEnd = block.timestamp;\r\n    //         emit FrameUpdate(frameKey);\r\n    //     }\r\n    // }\r\n\r\n    /// @notice Close frame\r\n    /// @param frameKey Frame's timestamp\r\n    function closeFrame(uint frameKey) public hasValidPrices(frameKey) {\r\n        require(frames[frameKey].state == SFrame.OPENED, \"FRAME NOT OPENED\");\r\n        require( (frameKey + period) <= block.timestamp, \"FRAME END TIME NOT REACHED\");\r\n        frames[frameKey].state = SFrame.CLOSED;\r\n        //UQ112x112 encoded\r\n        uint priceDiff = frames[frameKey].oraclePrice0CumulativeEnd - frames[frameKey].oraclePrice0CumulativeStart;\r\n        uint timeDiff = frames[frameKey].oracleTimestampEnd - frames[frameKey].oracleTimestampStart;\r\n        //Calculate time-weighted average price -- UQ112x112 encoded\r\n        frames[frameKey].priceAverage = uint(((FixedPoint.div(FixedPoint.uq112x112(uint224(priceDiff)), (uint112(timeDiff)))))._x);\r\n        //Decode to scalar value\r\n        frames[frameKey].priceAverage = (frames[frameKey].priceAverage >> 112) * scalar + (frames[frameKey].priceAverage << 112) / (1e49); \r\n        //Subtract fees from the reward amount \r\n        uint marketOwnerFees = frames[frameKey].rewardFund * (feeMarket) / 100000;\r\n        uint protocolOwnerFees = frames[frameKey].rewardFund * (feeProtocol) / 100000;\r\n        frames[frameKey].rewardFund = frames[frameKey].rewardFund - marketOwnerFees - protocolOwnerFees;\r\n        //Transfer fees to owners\r\n        accountingToken.transfer(ownerMarket, marketOwnerFees);\r\n        accountingToken.transfer(factory.owner(), protocolOwnerFees);\r\n        emit FrameUpdate(frameKey);\r\n    }\r\n\r\n    /// @notice Settle lot for a owner. Owner's share of the reward amount get's transfered to owner's account\r\n    /// @param frameKey Frame's timestamp\r\n    function settleLot(uint frameKey) public {  \r\n        //Check if frame is closed\r\n        require(frames[frameKey].state == SFrame.CLOSED, \"FRAME NOT CLOSED\");    \r\n        //Calcualte the winning lot key\r\n        uint lotKeyWin = (clcLotInterval(frames[frameKey].priceAverage));\r\n        //Check if the lot is already settled\r\n        require(frames[frameKey].lots[lotKeyWin].state != SLot.SETTLED, \"LOT ALREADY SETTLED\");\r\n        //Transfer winnings to last owner \r\n        accountingToken.transfer(frames[frameKey].lots[lotKeyWin].lotOwner, frames[frameKey].rewardFund);\r\n        //State is changed to settled\r\n        frames[frameKey].lots[lotKeyWin].state = SLot.SETTLED;\r\n\r\n        emit LotUpdate(frameKey, lotKeyWin);\r\n    }\r\n\r\n    /// TODO: edit the frame fund value if that money is taken \r\n    /// @notice Withdraw any amount out of the contract. Only to be used in extreme cases!\r\n    /// @param amount Amount you want to withdraw\r\n    function emptyFunds(uint amount) public isFactoryOwner {  \r\n        accountingToken.transfer(factory.owner(), amount);\r\n    }\r\n\r\n\r\n}",
  "sourcePath": "D:\\prog\\UniHedge\\core\\contracts\\Market.sol",
  "compiler": {
    "name": "solc",
    "version": "0.8.9+commit.e5eed63a.Emscripten.clang"
  },
  "schemaVersion": "3.4.3",
  "updatedAt": "2021-10-02T20:36:37.776Z",
  "devdoc": {
    "author": "UniHedge",
    "details": "All function calls are currently implemented without side effects",
    "kind": "dev",
    "methods": {
      "buyLot(uint256,uint256,uint256)": {
        "params": {
          "acqPrice": "New sell price is required to calculate tax",
          "pairPrice": "Is trading pair's price (to get correct lot key) ",
          "timestamp": "Frame's timestamp get's calculated from this value"
        }
      },
      "clcAmountToApprove(uint256,uint256,uint256)": {
        "params": {
          "acqPrice": "New sell price is required to calculate tax",
          "pairPrice": "Value is trading pair's price (to get correct lot key) ",
          "timestamp": "Timestamp that determins which frame it is"
        },
        "returns": {
          "cmpltAmnt": "complete price of a lot"
        }
      },
      "clcFrameTimestamp(uint256)": {
        "params": {
          "timestamp": "In seconds"
        },
        "returns": {
          "_0": "frame's timestamp (key)"
        }
      },
      "clcFramesLeft(uint256)": {
        "params": {
          "frameKey": "Timestamp of an arbitary frame in the future"
        },
        "returns": {
          "_0": "number of frames (whole numbers: n=0,1,2...)"
        }
      },
      "clcLotInterval(uint256)": {
        "params": {
          "value": "Arbitary price of market's Uniswap pair"
        },
        "returns": {
          "_0": "lot key (top boundary)"
        }
      },
      "closeFrame(uint256)": {
        "params": {
          "frameKey": "Frame's timestamp"
        }
      },
      "emptyFunds(uint256)": {
        "params": {
          "amount": "Amount you want to withdraw"
        }
      },
      "getLot(uint256,uint256)": {
        "params": {
          "frameKey": "Frame's timestamp",
          "lotKey": "lot's key "
        },
        "returns": {
          "_0": "lot struct"
        }
      },
      "getLotKey(uint256,uint256)": {
        "params": {
          "frameKey": "Frame's timestamp",
          "index": "frameKeys array index "
        },
        "returns": {
          "_0": "lotKey"
        }
      },
      "getLotsCount(uint256)": {
        "params": {
          "frameKey": "Frame's timestamp"
        },
        "returns": {
          "_0": "lot count"
        }
      },
      "getNumberOfFrameKeys()": {
        "returns": {
          "_0": "number frames"
        }
      },
      "getOrCreateFrame(uint256)": {
        "params": {
          "timestamp": "In second."
        },
        "returns": {
          "_0": "frameTimestamp Frame's key (timestamp that indicated the beggining of a frame)."
        }
      },
      "getRewardAmount(uint256)": {
        "params": {
          "frameKey": "Frame's timestamp"
        },
        "returns": {
          "_0": "award amount"
        }
      },
      "settleLot(uint256)": {
        "params": {
          "frameKey": "Frame's timestamp"
        }
      },
      "updateLotPrice(uint256,uint256,uint256)": {
        "params": {
          "acqPrice": "New acquisition price",
          "pairPrice": "Is trading pair's price (to get correct lot key) ",
          "timestamp": "Frame's timestamp get's calculated from this value"
        }
      }
    },
    "title": "TWPM Market",
    "version": 1
  },
  "userdoc": {
    "kind": "user",
    "methods": {
      "buyLot(uint256,uint256,uint256)": {
        "notice": "Calculate amout required to approve to buy a lot"
      },
      "clcAmountToApprove(uint256,uint256,uint256)": {
        "notice": "Calculate amout required to approve to buy a lot"
      },
      "clcFrameTimestamp(uint256)": {
        "notice": "Calculate frames timestamp (beggining of frame)"
      },
      "clcFramesLeft(uint256)": {
        "notice": "Calculate how many frames there are left untill given frame in input"
      },
      "clcLotInterval(uint256)": {
        "notice": "Calculate top boundary of a lot"
      },
      "closeFrame(uint256)": {
        "notice": "Close frame"
      },
      "emptyFunds(uint256)": {
        "notice": "TODO: edit the frame fund value if that money is taken Withdraw any amount out of the contract. Only to be used in extreme cases!"
      },
      "getLot(uint256,uint256)": {
        "notice": "Get lot struct"
      },
      "getLotKey(uint256,uint256)": {
        "notice": "Get lotKey from index in lotKeys array"
      },
      "getLotsCount(uint256)": {
        "notice": "Get no. of created lots in a frame "
      },
      "getNumberOfFrameKeys()": {
        "notice": "Get number of frames"
      },
      "getOrCreateFrame(uint256)": {
        "notice": "Create a frame"
      },
      "getRewardAmount(uint256)": {
        "notice": "Get frame's award amount (accumulation of different lot taxes)Remaining tax of a lot owner get's returned after a sale (change of ownership). So the award amount isn't for sure untill the frame get's closed."
      },
      "settleLot(uint256)": {
        "notice": "Settle lot for a owner. Owner's share of the reward amount get's transfered to owner's account"
      },
      "updateFramePrices()": {
        "notice": "Update trading pair's prices in the frame"
      },
      "updateLotPrice(uint256,uint256,uint256)": {
        "notice": "Owner can update lot's price. Has to pay additional tax, or leftover tax gets' returned to him if the new price is lower"
      }
    },
    "version": 1
  }
}