{
  "contractName": "Market",
  "abi": [
    {
      "inputs": [
        {
          "internalType": "contract MarketFactory",
          "name": "_factory",
          "type": "address"
        },
        {
          "internalType": "contract IERC20",
          "name": "_token",
          "type": "address"
        },
        {
          "internalType": "contract IUniswapV2Pair",
          "name": "_uniswapPair",
          "type": "address"
        },
        {
          "internalType": "uint256",
          "name": "_period",
          "type": "uint256"
        },
        {
          "internalType": "uint256",
          "name": "_initTimestamp",
          "type": "uint256"
        },
        {
          "internalType": "uint256",
          "name": "_taxMarket",
          "type": "uint256"
        },
        {
          "internalType": "uint256",
          "name": "_feeMarket",
          "type": "uint256"
        },
        {
          "internalType": "uint256",
          "name": "_dPrice",
          "type": "uint256"
        },
        {
          "internalType": "uint256",
          "name": "_tReporting",
          "type": "uint256"
        },
        {
          "internalType": "uint256",
          "name": "_minTax",
          "type": "uint256"
        }
      ],
      "stateMutability": "nonpayable",
      "type": "constructor"
    },
    {
      "anonymous": false,
      "inputs": [
        {
          "indexed": false,
          "internalType": "uint256",
          "name": "frameKey",
          "type": "uint256"
        }
      ],
      "name": "FrameUpdate",
      "type": "event"
    },
    {
      "anonymous": false,
      "inputs": [
        {
          "indexed": false,
          "internalType": "uint256",
          "name": "frameKey",
          "type": "uint256"
        },
        {
          "indexed": false,
          "internalType": "uint256",
          "name": "lotKey",
          "type": "uint256"
        }
      ],
      "name": "LotUpdate",
      "type": "event"
    },
    {
      "inputs": [],
      "name": "accountingToken",
      "outputs": [
        {
          "internalType": "contract IERC20",
          "name": "",
          "type": "address"
        }
      ],
      "stateMutability": "view",
      "type": "function"
    },
    {
      "inputs": [],
      "name": "dPrice",
      "outputs": [
        {
          "internalType": "uint256",
          "name": "",
          "type": "uint256"
        }
      ],
      "stateMutability": "view",
      "type": "function"
    },
    {
      "inputs": [],
      "name": "factory",
      "outputs": [
        {
          "internalType": "contract MarketFactory",
          "name": "",
          "type": "address"
        }
      ],
      "stateMutability": "view",
      "type": "function"
    },
    {
      "inputs": [],
      "name": "feeMarket",
      "outputs": [
        {
          "internalType": "uint256",
          "name": "",
          "type": "uint256"
        }
      ],
      "stateMutability": "view",
      "type": "function"
    },
    {
      "inputs": [],
      "name": "feeProtocol",
      "outputs": [
        {
          "internalType": "uint256",
          "name": "",
          "type": "uint256"
        }
      ],
      "stateMutability": "view",
      "type": "function"
    },
    {
      "inputs": [
        {
          "internalType": "uint256",
          "name": "",
          "type": "uint256"
        }
      ],
      "name": "frames",
      "outputs": [
        {
          "internalType": "uint256",
          "name": "frameKey",
          "type": "uint256"
        },
        {
          "internalType": "enum Market.SFrame",
          "name": "state",
          "type": "uint8"
        },
        {
          "internalType": "uint256",
          "name": "priceAverage",
          "type": "uint256"
        },
        {
          "internalType": "uint256",
          "name": "rewardFund",
          "type": "uint256"
        },
        {
          "internalType": "uint256",
          "name": "oraclePrice0CumulativeStart",
          "type": "uint256"
        },
        {
          "internalType": "uint256",
          "name": "oraclePrice0CumulativeEnd",
          "type": "uint256"
        },
        {
          "internalType": "uint256",
          "name": "oracleTimestampStart",
          "type": "uint256"
        },
        {
          "internalType": "uint256",
          "name": "oracleTimestampEnd",
          "type": "uint256"
        },
        {
          "internalType": "uint256",
          "name": "lastBlockNum",
          "type": "uint256"
        }
      ],
      "stateMutability": "view",
      "type": "function"
    },
    {
      "inputs": [
        {
          "internalType": "uint256",
          "name": "",
          "type": "uint256"
        }
      ],
      "name": "framesKeys",
      "outputs": [
        {
          "internalType": "uint256",
          "name": "",
          "type": "uint256"
        }
      ],
      "stateMutability": "view",
      "type": "function"
    },
    {
      "inputs": [],
      "name": "initTimestamp",
      "outputs": [
        {
          "internalType": "uint256",
          "name": "",
          "type": "uint256"
        }
      ],
      "stateMutability": "view",
      "type": "function"
    },
    {
      "inputs": [],
      "name": "minTax",
      "outputs": [
        {
          "internalType": "uint256",
          "name": "",
          "type": "uint256"
        }
      ],
      "stateMutability": "view",
      "type": "function"
    },
    {
      "inputs": [],
      "name": "ownerMarket",
      "outputs": [
        {
          "internalType": "address payable",
          "name": "",
          "type": "address"
        }
      ],
      "stateMutability": "view",
      "type": "function"
    },
    {
      "inputs": [],
      "name": "period",
      "outputs": [
        {
          "internalType": "uint256",
          "name": "",
          "type": "uint256"
        }
      ],
      "stateMutability": "view",
      "type": "function"
    },
    {
      "inputs": [],
      "name": "tReporting",
      "outputs": [
        {
          "internalType": "uint256",
          "name": "",
          "type": "uint256"
        }
      ],
      "stateMutability": "view",
      "type": "function"
    },
    {
      "inputs": [],
      "name": "taxMarket",
      "outputs": [
        {
          "internalType": "uint256",
          "name": "",
          "type": "uint256"
        }
      ],
      "stateMutability": "view",
      "type": "function"
    },
    {
      "inputs": [],
      "name": "uniswapPair",
      "outputs": [
        {
          "internalType": "contract IUniswapV2Pair",
          "name": "",
          "type": "address"
        }
      ],
      "stateMutability": "view",
      "type": "function"
    },
    {
      "inputs": [
        {
          "internalType": "uint256",
          "name": "timestamp",
          "type": "uint256"
        }
      ],
      "name": "getOrCreateFrame",
      "outputs": [
        {
          "internalType": "uint256",
          "name": "",
          "type": "uint256"
        }
      ],
      "stateMutability": "nonpayable",
      "type": "function"
    },
    {
      "inputs": [
        {
          "internalType": "uint256",
          "name": "timestamp",
          "type": "uint256"
        }
      ],
      "name": "clcFrameTimestamp",
      "outputs": [
        {
          "internalType": "uint256",
          "name": "",
          "type": "uint256"
        }
      ],
      "stateMutability": "view",
      "type": "function"
    },
    {
      "inputs": [
        {
          "internalType": "uint256",
          "name": "value",
          "type": "uint256"
        }
      ],
      "name": "clcLotInterval",
      "outputs": [
        {
          "internalType": "uint256",
          "name": "",
          "type": "uint256"
        }
      ],
      "stateMutability": "view",
      "type": "function"
    },
    {
      "inputs": [
        {
          "internalType": "uint256",
          "name": "frameKey",
          "type": "uint256"
        }
      ],
      "name": "clcFramesLeft",
      "outputs": [
        {
          "internalType": "uint256",
          "name": "",
          "type": "uint256"
        }
      ],
      "stateMutability": "view",
      "type": "function"
    },
    {
      "inputs": [
        {
          "internalType": "uint256",
          "name": "frameKey",
          "type": "uint256"
        },
        {
          "internalType": "uint256",
          "name": "lotKey",
          "type": "uint256"
        }
      ],
      "name": "getLot",
      "outputs": [
        {
          "components": [
            {
              "internalType": "uint256",
              "name": "lotKey",
              "type": "uint256"
            },
            {
              "components": [
                {
                  "internalType": "address payable",
                  "name": "owner",
                  "type": "address"
                },
                {
                  "internalType": "uint256",
                  "name": "blockNum",
                  "type": "uint256"
                }
              ],
              "internalType": "struct Market.LotOwner[]",
              "name": "lotOwners",
              "type": "tuple[]"
            },
            {
              "internalType": "uint256",
              "name": "acquisitionPrice",
              "type": "uint256"
            },
            {
              "internalType": "enum Market.SLot",
              "name": "state",
              "type": "uint8"
            }
          ],
          "internalType": "struct Market.Lot",
          "name": "",
          "type": "tuple"
        }
      ],
      "stateMutability": "view",
      "type": "function"
    },
    {
      "inputs": [
        {
          "internalType": "uint256",
          "name": "frameKey",
          "type": "uint256"
        }
      ],
      "name": "getLotsCount",
      "outputs": [
        {
          "internalType": "uint256",
          "name": "",
          "type": "uint256"
        }
      ],
      "stateMutability": "view",
      "type": "function"
    },
    {
      "inputs": [
        {
          "internalType": "uint256",
          "name": "frameKey",
          "type": "uint256"
        },
        {
          "internalType": "uint256",
          "name": "index",
          "type": "uint256"
        }
      ],
      "name": "getLotKey",
      "outputs": [
        {
          "internalType": "uint256",
          "name": "",
          "type": "uint256"
        }
      ],
      "stateMutability": "view",
      "type": "function"
    },
    {
      "inputs": [
        {
          "internalType": "uint256",
          "name": "frameKey",
          "type": "uint256"
        },
        {
          "internalType": "uint256",
          "name": "lotKey",
          "type": "uint256"
        }
      ],
      "name": "getLotOwner",
      "outputs": [
        {
          "internalType": "address",
          "name": "",
          "type": "address"
        }
      ],
      "stateMutability": "view",
      "type": "function"
    },
    {
      "inputs": [
        {
          "internalType": "uint256",
          "name": "frameKey",
          "type": "uint256"
        }
      ],
      "name": "getRewardAmount",
      "outputs": [
        {
          "internalType": "uint256",
          "name": "",
          "type": "uint256"
        }
      ],
      "stateMutability": "view",
      "type": "function"
    },
    {
      "inputs": [
        {
          "internalType": "uint256",
          "name": "frameKey",
          "type": "uint256"
        },
        {
          "internalType": "uint256",
          "name": "lotKey",
          "type": "uint256"
        }
      ],
      "name": "getNumberOfLotOwners",
      "outputs": [
        {
          "internalType": "uint256",
          "name": "",
          "type": "uint256"
        }
      ],
      "stateMutability": "view",
      "type": "function"
    },
    {
      "inputs": [],
      "name": "getNumberOfFrameKeys",
      "outputs": [
        {
          "internalType": "uint256",
          "name": "",
          "type": "uint256"
        }
      ],
      "stateMutability": "view",
      "type": "function"
    },
    {
      "inputs": [
        {
          "internalType": "uint256",
          "name": "frameKey",
          "type": "uint256"
        },
        {
          "internalType": "uint256",
          "name": "lotKey",
          "type": "uint256"
        },
        {
          "internalType": "address",
          "name": "owner",
          "type": "address"
        }
      ],
      "name": "getLotOwnerIndex",
      "outputs": [
        {
          "internalType": "uint256",
          "name": "i",
          "type": "uint256"
        }
      ],
      "stateMutability": "view",
      "type": "function"
    },
    {
      "inputs": [
        {
          "internalType": "uint256",
          "name": "frameKey",
          "type": "uint256"
        },
        {
          "internalType": "uint256",
          "name": "pairPrice",
          "type": "uint256"
        },
        {
          "internalType": "uint256",
          "name": "acquisitionPrice",
          "type": "uint256"
        }
      ],
      "name": "AmountToApprove",
      "outputs": [
        {
          "internalType": "uint256",
          "name": "",
          "type": "uint256"
        }
      ],
      "stateMutability": "view",
      "type": "function"
    },
    {
      "inputs": [
        {
          "internalType": "uint256",
          "name": "timestamp",
          "type": "uint256"
        },
        {
          "internalType": "uint256",
          "name": "pairPrice",
          "type": "uint256"
        },
        {
          "internalType": "uint256",
          "name": "acquisitionPrice",
          "type": "uint256"
        }
      ],
      "name": "buyLot",
      "outputs": [],
      "stateMutability": "payable",
      "type": "function"
    },
    {
      "inputs": [
        {
          "internalType": "uint256",
          "name": "timestamp",
          "type": "uint256"
        },
        {
          "internalType": "uint256",
          "name": "pairPrice",
          "type": "uint256"
        },
        {
          "internalType": "uint256",
          "name": "acquisitionPrice",
          "type": "uint256"
        }
      ],
      "name": "updateLotPrice",
      "outputs": [],
      "stateMutability": "payable",
      "type": "function"
    },
    {
      "inputs": [],
      "name": "updateFramePrices",
      "outputs": [],
      "stateMutability": "nonpayable",
      "type": "function"
    },
    {
      "inputs": [
        {
          "internalType": "uint256",
          "name": "frameKey",
          "type": "uint256"
        }
      ],
      "name": "closeFrame",
      "outputs": [],
      "stateMutability": "payable",
      "type": "function"
    },
    {
      "inputs": [
        {
          "internalType": "uint256",
          "name": "frameKey",
          "type": "uint256"
        }
      ],
      "name": "settleLot",
      "outputs": [],
      "stateMutability": "payable",
      "type": "function"
    }
  ],
  "bytecode": "0x6080604052606460095569d3c21bcecceda1000000600c553480156200002457600080fd5b50604051620047243803806200472483398181016040528101906200004a9190620001ea565b88600160006101000a81548173ffffffffffffffffffffffffffffffffffffffff021916908373ffffffffffffffffffffffffffffffffffffffff16021790555033600260006101000a81548173ffffffffffffffffffffffffffffffffffffffff021916908373ffffffffffffffffffffffffffffffffffffffff1602179055508660038190555085600481905550846008819055508360078190555087600560006101000a81548173ffffffffffffffffffffffffffffffffffffffff021916908373ffffffffffffffffffffffffffffffffffffffff16021790555082600681905550896000806101000a81548173ffffffffffffffffffffffffffffffffffffffff021916908373ffffffffffffffffffffffffffffffffffffffff16021790555081600a8190555080600b8190555050505050505050505050620003c7565b6000815190506200019f816200035f565b92915050565b600081519050620001b68162000379565b92915050565b600081519050620001cd8162000393565b92915050565b600081519050620001e481620003ad565b92915050565b6000806000806000806000806000806101408b8d0312156200021157620002106200035a565b5b6000620002218d828e01620001bc565b9a50506020620002348d828e016200018e565b9950506040620002478d828e01620001a5565b98505060606200025a8d828e01620001d3565b97505060806200026d8d828e01620001d3565b96505060a0620002808d828e01620001d3565b95505060c0620002938d828e01620001d3565b94505060e0620002a68d828e01620001d3565b935050610100620002ba8d828e01620001d3565b925050610120620002ce8d828e01620001d3565b9150509295989b9194979a5092959850565b6000620002ed8262000330565b9050919050565b60006200030182620002e0565b9050919050565b60006200031582620002e0565b9050919050565b60006200032982620002e0565b9050919050565b600073ffffffffffffffffffffffffffffffffffffffff82169050919050565b6000819050919050565b600080fd5b6200036a81620002f4565b81146200037657600080fd5b50565b620003848162000308565b81146200039057600080fd5b50565b6200039e816200031c565b8114620003aa57600080fd5b50565b620003b88162000350565b8114620003c457600080fd5b50565b61434d80620003d76000396000f3fe6080604052600436106101e35760003560e01c80637d6ae6a011610102578063bb15d2dd11610095578063da68cf8b11610064578063da68cf8b1461075f578063ef78d4fd1461078a578063fc950702146107b5578063ff5c86b0146107d1576101e3565b8063bb15d2dd146106b0578063c45a0155146106cc578063c816841b146106f7578063c84993af14610722576101e3565b806389da88a3116100d157806389da88a3146105ec57806396b2c6f314610617578063a10340bc1461062e578063b7e536cc14610673576101e3565b80637d6ae6a01461050a5780637e99663914610547578063830ab11914610572578063888bdbcd146105af576101e3565b8063450847751161017a57806359eb1de81161014957806359eb1de8146104285780635b3ad63e146104655780636f1aefc3146104a25780637358c57a146104df576101e3565b8063450847751461038b578063499a0fc4146103b65780634d3ee2dc146103e1578063527eb4bc146103fd576101e3565b80633c80d8ea116101b65780633c80d8ea146102dc5780633d09a82a146102f85780633e16bc2014610323578063410f071014610360576101e3565b8063043de5a5146101e8578063050e8840146102255780630cbcff8f146102625780632a3dbdb61461029f575b600080fd5b3480156101f457600080fd5b5061020f600480360381019061020a919061348f565b6107fc565b60405161021c9190613b61565b60405180910390f35b34801561023157600080fd5b5061024c600480360381019061024791906133f5565b61090b565b6040516102599190613b61565b60405180910390f35b34801561026e57600080fd5b50610289600480360381019061028491906133f5565b61092f565b6040516102969190613b61565b60405180910390f35b3480156102ab57600080fd5b506102c660048036038101906102c191906134e2565b610aea565b6040516102d39190613b61565b60405180910390f35b6102f660048036038101906102f191906134e2565b610c63565b005b34801561030457600080fd5b5061030d61152d565b60405161031a9190613b61565b60405180910390f35b34801561032f57600080fd5b5061034a6004803603810190610345919061344f565b611533565b6040516103579190613b61565b60405180910390f35b34801561036c57600080fd5b50610375611570565b6040516103829190613b61565b60405180910390f35b34801561039757600080fd5b506103a0611576565b6040516103ad91906138a1565b60405180910390f35b3480156103c257600080fd5b506103cb61159c565b6040516103d89190613b61565b60405180910390f35b6103fb60048036038101906103f691906133f5565b6115a2565b005b34801561040957600080fd5b5061041261190d565b60405161041f9190613b61565b60405180910390f35b34801561043457600080fd5b5061044f600480360381019061044a919061344f565b611913565b60405161045c9190613886565b60405180910390f35b34801561047157600080fd5b5061048c600480360381019061048791906133f5565b6119c1565b6040516104999190613b61565b60405180910390f35b3480156104ae57600080fd5b506104c960048036038101906104c4919061344f565b611a19565b6040516104d69190613b3f565b60405180910390f35b3480156104eb57600080fd5b506104f4611b69565b6040516105019190613b61565b60405180910390f35b34801561051657600080fd5b50610531600480360381019061052c91906133f5565b611b6f565b60405161053e9190613b61565b60405180910390f35b34801561055357600080fd5b5061055c611bb2565b6040516105699190613b61565b60405180910390f35b34801561057e57600080fd5b50610599600480360381019061059491906133f5565b611bb8565b6040516105a69190613b61565b60405180910390f35b3480156105bb57600080fd5b506105d660048036038101906105d191906133f5565b611bdb565b6040516105e39190613b61565b60405180910390f35b3480156105f857600080fd5b50610601611c33565b60405161060e9190613b61565b60405180910390f35b34801561062357600080fd5b5061062c611c40565b005b34801561063a57600080fd5b50610655600480360381019061065091906133f5565b611e6e565b60405161066a99989796959493929190613b7c565b60405180910390f35b34801561067f57600080fd5b5061069a6004803603810190610695919061344f565b611ec9565b6040516106a79190613b61565b60405180910390f35b6106ca60048036038101906106c591906134e2565b611f01565b005b3480156106d857600080fd5b506106e161256f565b6040516106ee91906139a4565b60405180910390f35b34801561070357600080fd5b5061070c612593565b6040516107199190613989565b60405180910390f35b34801561072e57600080fd5b50610749600480360381019061074491906133f5565b6125b9565b6040516107569190613b61565b60405180910390f35b34801561076b57600080fd5b506107746125d9565b604051610781919061396e565b60405180910390f35b34801561079657600080fd5b5061079f6125ff565b6040516107ac9190613b61565b60405180910390f35b6107cf60048036038101906107ca91906133f5565b612605565b005b3480156107dd57600080fd5b506107e6612ce2565b6040516107f39190613b61565b60405180910390f35b60005b6108098484611ec9565b8110156108c9578173ffffffffffffffffffffffffffffffffffffffff16600d60008681526020019081526020016000206009016000858152602001908152602001600020600101828154811061086357610862614036565b5b906000526020600020906002020160000160009054906101000a900473ffffffffffffffffffffffffffffffffffffffff1673ffffffffffffffffffffffffffffffffffffffff1614156108b657610904565b80806108c190613f2f565b9150506107ff565b6040517f08c379a00000000000000000000000000000000000000000000000000000000081526004016108fb90613b1f565b60405180910390fd5b9392505050565b600e818154811061091b57600080fd5b906000526020600020016000915090505481565b6000600454821015610976576040517f08c379a000000000000000000000000000000000000000000000000000000000815260040161096d90613a5f565b60405180910390fd5b6000610981836119c1565b90506000600381111561099757610996614007565b5b600d600083815260200190815260200160002060010160009054906101000a900460ff1660038111156109cd576109cc614007565b5b146109db5780915050610ae5565b6109e4426119c1565b811015610a26576040517f08c379a0000000000000000000000000000000000000000000000000000000008152600401610a1d906139ff565b60405180910390fd5b80600d6000838152602001908152602001600020600001819055506001600d600083815260200190815260200160002060010160006101000a81548160ff02191690836003811115610a7b57610a7a614007565b5b0217905550600e8190806001815401808255809150506001900390600052602060002001600090919091909150557f163614e6e9ce9df7687928015fd2c748b69c5136db886e57f09170b251b58e8781604051610ad89190613b61565b60405180910390a1809150505b919050565b600080610af684611bdb565b90506000610b2942610b1b610b1660035442612ce890919063ffffffff16565b6119c1565b612cfe90919063ffffffff16565b90506000610b56600354610b4884600c54612d1490919063ffffffff16565b612d2a90919063ffffffff16565b90506000610b6388611b6f565b90506000610ba382610b95620186a0610b876008548c612d1490919063ffffffff16565b612d2a90919063ffffffff16565b612d1490919063ffffffff16565b90506000610bd1620186a0610bc36008548b612d1490919063ffffffff16565b612d2a90919063ffffffff16565b9050610bfa600c54610bec8684612d1490919063ffffffff16565b612d2a90919063ffffffff16565b9050610c0f8183612ce890919063ffffffff16565b91506000610c5083600d60008e815260200190815260200160002060090160008a815260200190815260200160002060020154612ce890919063ffffffff16565b9050809750505050505050509392505050565b806000610c90620186a0610c8260085485612d1490919063ffffffff16565b612d2a90919063ffffffff16565b9050600b54811015610cd7576040517f08c379a0000000000000000000000000000000000000000000000000000000008152600401610cce90613a1f565b60405180910390fd5b6000610ce28661092f565b90506000610cf08287612d40565b9050610cfc8282611913565b73ffffffffffffffffffffffffffffffffffffffff163373ffffffffffffffffffffffffffffffffffffffff161415610d6a576040517f08c379a0000000000000000000000000000000000000000000000000000000008152600401610d6190613abf565b60405180910390fd5b6000610d87610d78426119c1565b42612cfe90919063ffffffff16565b90506000610db4600354610da684600c54612d1490919063ffffffff16565b612d2a90919063ffffffff16565b90506000610e08600c54610dfa84610dec620186a0610dde6008548f612d1490919063ffffffff16565b612d2a90919063ffffffff16565b612d1490919063ffffffff16565b612d2a90919063ffffffff16565b90506000610e158b611b6f565b90506000610e5582610e47620186a0610e396008548f612d1490919063ffffffff16565b612d2a90919063ffffffff16565b612d1490919063ffffffff16565b9050610e6a8382612ce890919063ffffffff16565b9050610ea981600d60008a8152602001908152602001600020600901600089815260200190815260200160002060020154612ce890919063ffffffff16565b600160009054906101000a900473ffffffffffffffffffffffffffffffffffffffff1673ffffffffffffffffffffffffffffffffffffffff1663dd62ed3e33306040518363ffffffff1660e01b8152600401610f069291906138e5565b60206040518083038186803b158015610f1e57600080fd5b505afa158015610f32573d6000803e3d6000fd5b505050506040513d601f19601f82011682018060405250810190610f569190613422565b1015610f97576040517f08c379a0000000000000000000000000000000000000000000000000000000008152600401610f8e90613adf565b60405180910390fd5b600160009054906101000a900473ffffffffffffffffffffffffffffffffffffffff1673ffffffffffffffffffffffffffffffffffffffff166323b872dd333061101485600d60008e815260200190815260200160002060090160008d815260200190815260200160002060020154612ce890919063ffffffff16565b6040518463ffffffff1660e01b81526004016110329392919061390e565b602060405180830381600087803b15801561104c57600080fd5b505af1158015611060573d6000803e3d6000fd5b505050506040513d601f19601f820116820180604052508101906110849190613375565b506110ae81600d60008a815260200190815260200160002060030154612ce890919063ffffffff16565b600d600089815260200190815260200160002060030181905550600160028111156110dc576110db614007565b5b600d6000898152602001908152602001600020600901600088815260200190815260200160002060030160009054906101000a900460ff16600281111561112657611125614007565b5b14156113cc576000600d6000898152602001908152602001600020600901600088815260200190815260200160002060020154905060006111ad600c5461119f88611191620186a061118360085489612d1490919063ffffffff16565b612d2a90919063ffffffff16565b612d1490919063ffffffff16565b612d2a90919063ffffffff16565b905060006111ed856111df620186a06111d160085488612d1490919063ffffffff16565b612d2a90919063ffffffff16565b612d1490919063ffffffff16565b90506112028282612ce890919063ffffffff16565b90506000611243600d60008d815260200190815260200160002060090160008c81526020019081526020016000206002015483612ce890919063ffffffff16565b9050600061126460016112568e8e611ec9565b612cfe90919063ffffffff16565b9050600160009054906101000a900473ffffffffffffffffffffffffffffffffffffffff1673ffffffffffffffffffffffffffffffffffffffff1663a9059cbb600d60008f815260200190815260200160002060090160008e815260200190815260200160002060010183815481106112e0576112df614036565b5b906000526020600020906002020160000160009054906101000a900473ffffffffffffffffffffffffffffffffffffffff16846040518363ffffffff1660e01b81526004016113309291906138bc565b602060405180830381600087803b15801561134a57600080fd5b505af115801561135e573d6000803e3d6000fd5b505050506040513d601f19601f820116820180604052508101906113829190613375565b506113ac83600d60008f815260200190815260200160002060030154612cfe90919063ffffffff16565b600d60008e81526020019081526020016000206003018190555050505050505b600d6000888152602001908152602001600020600901600087815260200190815260200160002060010160405180604001604052803373ffffffffffffffffffffffffffffffffffffffff16815260200143815250908060018154018082558091505060019003906000526020600020906002020160009091909190915060008201518160000160006101000a81548173ffffffffffffffffffffffffffffffffffffffff021916908373ffffffffffffffffffffffffffffffffffffffff1602179055506020820151816001015550506001600d6000898152602001908152602001600020600901600088815260200190815260200160002060030160006101000a81548160ff021916908360028111156114eb576114ea614007565b5b021790555089600d6000898152602001908152602001600020600901600088815260200190815260200160002060020181905550505050505050505050505050565b600b5481565b6000600d6000848152602001908152602001600020600a01828154811061155d5761155c614036565b5b9060005260206000200154905092915050565b60075481565b600260009054906101000a900473ffffffffffffffffffffffffffffffffffffffff1681565b60065481565b600260038111156115b6576115b5614007565b5b600d600083815260200190815260200160002060010160009054906101000a900460ff1660038111156115ec576115eb614007565b5b1461162c576040517f08c379a000000000000000000000000000000000000000000000000000000000815260040161162390613a7f565b60405180910390fd5b600061164d600d600084815260200190815260200160002060020154611bdb565b90506000600d600084815260200190815260200160002060090160008381526020019081526020016000206040518060800160405290816000820154815260200160018201805480602002602001604051908101604052809291908181526020016000905b8282101561174457838290600052602060002090600202016040518060400160405290816000820160009054906101000a900473ffffffffffffffffffffffffffffffffffffffff1673ffffffffffffffffffffffffffffffffffffffff1673ffffffffffffffffffffffffffffffffffffffff168152602001600182015481525050815260200190600101906116b2565b505050508152602001600282015481526020016003820160009054906101000a900460ff16600281111561177b5761177a614007565b5b600281111561178d5761178c614007565b5b8152505090506002808111156117a6576117a5614007565b5b816060015160028111156117bd576117bc614007565b5b14156117fe576040517f08c379a00000000000000000000000000000000000000000000000000000000081526004016117f590613a9f565b60405180910390fd5b600061180a8484611ec9565b9050600160009054906101000a900473ffffffffffffffffffffffffffffffffffffffff1673ffffffffffffffffffffffffffffffffffffffff1663a9059cbb8360200151611863600185612cfe90919063ffffffff16565b8151811061187457611873614036565b5b602002602001015160000151600d6000888152602001908152602001600020600301546040518363ffffffff1660e01b81526004016118b49291906138bc565b602060405180830381600087803b1580156118ce57600080fd5b505af11580156118e2573d6000803e3d6000fd5b505050506040513d601f19601f820116820180604052508101906119069190613375565b5050505050565b60095481565b6000806119208484611ec9565b141561192e573090506119bb565b600d6000848152602001908152602001600020600901600083815260200190815260200160002060010161197560016119678686611ec9565b612cfe90919063ffffffff16565b8154811061198657611985614036565b5b906000526020600020906002020160000160009054906101000a900473ffffffffffffffffffffffffffffffffffffffff1690505b92915050565b600060045482116119d6576004549050611a14565b611a11611a026003546119f460045486612cfe90919063ffffffff16565b612e3190919063ffffffff16565b83612cfe90919063ffffffff16565b90505b919050565b611a2161324a565b600d600084815260200190815260200160002060090160008381526020019081526020016000206040518060800160405290816000820154815260200160018201805480602002602001604051908101604052809291908181526020016000905b82821015611b1457838290600052602060002090600202016040518060400160405290816000820160009054906101000a900473ffffffffffffffffffffffffffffffffffffffff1673ffffffffffffffffffffffffffffffffffffffff1673ffffffffffffffffffffffffffffffffffffffff16815260200160018201548152505081526020019060010190611a82565b505050508152602001600282015481526020016003820160009054906101000a900460ff166002811115611b4b57611b4a614007565b5b6002811115611b5d57611b5c614007565b5b81525050905092915050565b60045481565b6000611bab6001611b9d600354611b8f4287612cfe90919063ffffffff16565b612d2a90919063ffffffff16565b612ce890919063ffffffff16565b9050919050565b60085481565b6000600d6000838152602001908152602001600020600a01805490509050919050565b6000808211611bee576006549050611c2e565b611c2b600654611c1d600654611c0f60065487612d2a90919063ffffffff16565b612d1490919063ffffffff16565b612ce890919063ffffffff16565b90505b919050565b6000600e80549050905090565b600080611c4c426119c1565b905043600d600083815260200190815260200160002060080181905550611c92600a54611c8460035484612ce890919063ffffffff16565b612cfe90919063ffffffff16565b4210158015611cb757506000600d600083815260200190815260200160002060040154145b15611d6c57611ce7600560009054906101000a900473ffffffffffffffffffffffffffffffffffffffff16612e47565b8063ffffffff169050600d60008581526020019081526020016000206004016000600d60008781526020019081526020016000206006016000849190505583965084919050555050507f163614e6e9ce9df7687928015fd2c748b69c5136db886e57f09170b251b58e8781604051611d5f9190613b61565b60405180910390a1611e6a565b611d8160035482612ce890919063ffffffff16565b4211158015611db85750611db4600a54611da660035484612ce890919063ffffffff16565b612cfe90919063ffffffff16565b4210155b15611e6957611de8600560009054906101000a900473ffffffffffffffffffffffffffffffffffffffff16612e47565b8063ffffffff169050600d60008581526020019081526020016000206005016000600d60008781526020019081526020016000206007016000849190505583965084919050555050507f163614e6e9ce9df7687928015fd2c748b69c5136db886e57f09170b251b58e8781604051611e609190613b61565b60405180910390a15b5b5050565b600d6020528060005260406000206000915090508060000154908060010160009054906101000a900460ff16908060020154908060030154908060040154908060050154908060060154908060070154908060080154905089565b6000600d6000848152602001908152602001600020600901600083815260200190815260200160002060010180549050905092915050565b806000611f2e620186a0611f2060085485612d1490919063ffffffff16565b612d2a90919063ffffffff16565b9050600b54811015611f75576040517f08c379a0000000000000000000000000000000000000000000000000000000008152600401611f6c90613a1f565b60405180910390fd5b6000611f808661092f565b90506000611f8e8287612d40565b90503373ffffffffffffffffffffffffffffffffffffffff16611fb18383611913565b73ffffffffffffffffffffffffffffffffffffffff1614612007576040517f08c379a0000000000000000000000000000000000000000000000000000000008152600401611ffe90613a3f565b60405180910390fd5b600061201288611b6f565b90506000612031612022426119c1565b42612cfe90919063ffffffff16565b9050600061205e60035461205084600c54612d1490919063ffffffff16565b612d2a90919063ffffffff16565b9050600061209e82612090620186a06120826008548e612d1490919063ffffffff16565b612d2a90919063ffffffff16565b612d1490919063ffffffff16565b90506120b5600c5482612d2a90919063ffffffff16565b905060006120e3620186a06120d56008548d612d1490919063ffffffff16565b612d2a90919063ffffffff16565b90506120f88582612d1490919063ffffffff16565b905061210d8282612ce890919063ffffffff16565b90506000600d6000898152602001908152602001600020600901600088815260200190815260200160002060020154905061218e600c5461218086612172620186a061216460085488612d1490919063ffffffff16565b612d2a90919063ffffffff16565b612d1490919063ffffffff16565b612d2a90919063ffffffff16565b925060006121bc620186a06121ae6008548f612d1490919063ffffffff16565b612d2a90919063ffffffff16565b90506121d18782612d1490919063ffffffff16565b90506121e68482612ce890919063ffffffff16565b90508083111561240f576122038184612cfe90919063ffffffff16565b600160009054906101000a900473ffffffffffffffffffffffffffffffffffffffff1673ffffffffffffffffffffffffffffffffffffffff1663dd62ed3e33306040518363ffffffff1660e01b81526004016122609291906138e5565b60206040518083038186803b15801561227857600080fd5b505afa15801561228c573d6000803e3d6000fd5b505050506040513d601f19601f820116820180604052508101906122b09190613422565b10156122f1576040517f08c379a00000000000000000000000000000000000000000000000000000000081526004016122e890613adf565b60405180910390fd5b600160009054906101000a900473ffffffffffffffffffffffffffffffffffffffff1673ffffffffffffffffffffffffffffffffffffffff166323b872dd33306123448588612cfe90919063ffffffff16565b6040518463ffffffff1660e01b81526004016123629392919061390e565b602060405180830381600087803b15801561237c57600080fd5b505af1158015612390573d6000803e3d6000fd5b505050506040513d601f19601f820116820180604052508101906123b49190613375565b506123f06123cb8285612cfe90919063ffffffff16565b600d60008c815260200190815260200160002060030154612ce890919063ffffffff16565b600d60008b815260200190815260200160002060030181905550612530565b8083101561252f57600160009054906101000a900473ffffffffffffffffffffffffffffffffffffffff1673ffffffffffffffffffffffffffffffffffffffff1663a9059cbb336124698685612cfe90919063ffffffff16565b6040518363ffffffff1660e01b8152600401612486929190613945565b602060405180830381600087803b1580156124a057600080fd5b505af11580156124b4573d6000803e3d6000fd5b505050506040513d601f19601f820116820180604052508101906124d89190613375565b506125146124ef8483612cfe90919063ffffffff16565b600d60008c815260200190815260200160002060030154612cfe90919063ffffffff16565b600d60008b8152602001908152602001600020600301819055505b5b8b600d60008b815260200190815260200160002060090160008a8152602001908152602001600020600201819055505050505050505050505050505050565b60008054906101000a900473ffffffffffffffffffffffffffffffffffffffff1681565b600560009054906101000a900473ffffffffffffffffffffffffffffffffffffffff1681565b6000600d6000838152602001908152602001600020600301549050919050565b600160009054906101000a900473ffffffffffffffffffffffffffffffffffffffff1681565b60035481565b6001600381111561261957612618614007565b5b600d600083815260200190815260200160002060010160009054906101000a900460ff16600381111561264f5761264e614007565b5b1461268f576040517f08c379a0000000000000000000000000000000000000000000000000000000008152600401612686906139df565b60405180910390fd5b426126a560035483612ce890919063ffffffff16565b11156126e6576040517f08c379a00000000000000000000000000000000000000000000000000000000081526004016126dd906139bf565b60405180910390fd5b6000600d60008381526020019081526020016000206004015411158061272357506000600d60008381526020019081526020016000206005015411155b15612768576003600d600083815260200190815260200160002060010160006101000a81548160ff0219169083600381111561276257612761614007565b5b02179055505b600d600082815260200190815260200160002060050154600d60008381526020019081526020016000206004015414156127dc576003600d600083815260200190815260200160002060010160006101000a81548160ff021916908360038111156127d6576127d5614007565b5b02179055505b6002600d600083815260200190815260200160002060010160006101000a81548160ff0219169083600381111561281657612815614007565b5b0217905550600061285c600d600084815260200190815260200160002060040154600d600085815260200190815260200160002060050154612cfe90919063ffffffff16565b9050600061289f600d600085815260200190815260200160002060060154600d600086815260200190815260200160002060070154612cfe90919063ffffffff16565b90506128d76040518060200160405280847bffffffffffffffffffffffffffffffffffffffffffffffffffffffff16815250826130a2565b600001517bffffffffffffffffffffffffffffffffffffffffffffffffffffffff16600d6000858152602001908152602001600020600201819055506129557406d79f82328ea3da61e066ebb2f88a0000000000006070600d600087815260200190815260200160002060020154901b612d2a90919063ffffffff16565b612984600c546070600d600088815260200190815260200160002060020154901c612d1490919063ffffffff16565b61298e9190613c53565b600d60008581526020019081526020016000206002018190555060006129ea620186a06129dc600754600d600089815260200190815260200160002060030154612d1490919063ffffffff16565b612d2a90919063ffffffff16565b90506000612a2e620186a0612a20600954600d60008a815260200190815260200160002060030154612d1490919063ffffffff16565b612d2a90919063ffffffff16565b9050612a6b81612a5d84600d60008a815260200190815260200160002060030154612cfe90919063ffffffff16565b612cfe90919063ffffffff16565b600d600087815260200190815260200160002060030181905550600160009054906101000a900473ffffffffffffffffffffffffffffffffffffffff1673ffffffffffffffffffffffffffffffffffffffff1663a9059cbb600260009054906101000a900473ffffffffffffffffffffffffffffffffffffffff16846040518363ffffffff1660e01b8152600401612b049291906138bc565b602060405180830381600087803b158015612b1e57600080fd5b505af1158015612b32573d6000803e3d6000fd5b505050506040513d601f19601f82011682018060405250810190612b569190613375565b50600160009054906101000a900473ffffffffffffffffffffffffffffffffffffffff1673ffffffffffffffffffffffffffffffffffffffff1663a9059cbb60008054906101000a900473ffffffffffffffffffffffffffffffffffffffff1673ffffffffffffffffffffffffffffffffffffffff16638da5cb5b6040518163ffffffff1660e01b815260040160206040518083038186803b158015612bfb57600080fd5b505afa158015612c0f573d6000803e3d6000fd5b505050506040513d601f19601f82011682018060405250810190612c339190613348565b836040518363ffffffff1660e01b8152600401612c51929190613945565b602060405180830381600087803b158015612c6b57600080fd5b505af1158015612c7f573d6000803e3d6000fd5b505050506040513d601f19601f82011682018060405250810190612ca39190613375565b507f163614e6e9ce9df7687928015fd2c748b69c5136db886e57f09170b251b58e8785604051612cd39190613b61565b60405180910390a15050505050565b600a5481565b60008183612cf69190613c53565b905092915050565b60008183612d0c9190613d65565b905092915050565b60008183612d229190613d0b565b905092915050565b60008183612d389190613cda565b905092915050565b600080612d4c83611bdb565b905060006002811115612d6257612d61614007565b5b600d6000868152602001908152602001600020600901600083815260200190815260200160002060030160009054906101000a900460ff166002811115612dac57612dab614007565b5b14612dba5780915050612e2b565b80600d6000868152602001908152602001600020600901600083815260200190815260200160002060000181905550600d6000858152602001908152602001600020600a01819080600181540180825580915050600190039060005260206000200160009091909190915055809150505b92915050565b60008183612e3f9190613f78565b905092915050565b6000806000612e54613152565b90508373ffffffffffffffffffffffffffffffffffffffff16635909c0d56040518163ffffffff1660e01b815260040160206040518083038186803b158015612e9c57600080fd5b505afa158015612eb0573d6000803e3d6000fd5b505050506040513d601f19601f82011682018060405250810190612ed49190613422565b92508373ffffffffffffffffffffffffffffffffffffffff16635a3d54936040518163ffffffff1660e01b815260040160206040518083038186803b158015612f1c57600080fd5b505afa158015612f30573d6000803e3d6000fd5b505050506040513d601f19601f82011682018060405250810190612f549190613422565b915060008060008673ffffffffffffffffffffffffffffffffffffffff16630902f1ac6040518163ffffffff1660e01b815260040160606040518083038186803b158015612fa157600080fd5b505afa158015612fb5573d6000803e3d6000fd5b505050506040513d601f19601f82011682018060405250810190612fd991906133a2565b9250925092508363ffffffff168163ffffffff161461309857600081856130009190613d99565b90508063ffffffff16613013848661316a565b600001517bffffffffffffffffffffffffffffffffffffffffffffffffffffffff1661303f9190613d0b565b8761304a9190613c53565b96508063ffffffff1661305d858561316a565b600001517bffffffffffffffffffffffffffffffffffffffffffffffffffffffff166130899190613d0b565b866130949190613c53565b9550505b5050509193909250565b6130aa613284565b6000826dffffffffffffffffffffffffffff1614156130fe576040517f08c379a00000000000000000000000000000000000000000000000000000000081526004016130f590613aff565b60405180910390fd5b6040518060200160405280836dffffffffffffffffffffffffffff1685600001516131299190613ca9565b7bffffffffffffffffffffffffffffffffffffffffffffffffffffffff16815250905092915050565b6000640100000000426131659190613f78565b905090565b613172613284565b6000826dffffffffffffffffffffffffffff16116131c5576040517f08c379a00000000000000000000000000000000000000000000000000000000081526004016131bc90613aff565b60405180910390fd5b6040518060200160405280836dffffffffffffffffffffffffffff16607060ff16866dffffffffffffffffffffffffffff167bffffffffffffffffffffffffffffffffffffffffffffffffffffffff16901b6132219190613ca9565b7bffffffffffffffffffffffffffffffffffffffffffffffffffffffff16815250905092915050565b60405180608001604052806000815260200160608152602001600081526020016000600281111561327e5761327d614007565b5b81525090565b604051806020016040528060007bffffffffffffffffffffffffffffffffffffffffffffffffffffffff1681525090565b6000813590506132c4816142a4565b92915050565b6000815190506132d9816142a4565b92915050565b6000815190506132ee816142bb565b92915050565b600081519050613303816142d2565b92915050565b600081359050613318816142e9565b92915050565b60008151905061332d816142e9565b92915050565b60008151905061334281614300565b92915050565b60006020828403121561335e5761335d614065565b5b600061336c848285016132ca565b91505092915050565b60006020828403121561338b5761338a614065565b5b6000613399848285016132df565b91505092915050565b6000806000606084860312156133bb576133ba614065565b5b60006133c9868287016132f4565b93505060206133da868287016132f4565b92505060406133eb86828701613333565b9150509250925092565b60006020828403121561340b5761340a614065565b5b600061341984828501613309565b91505092915050565b60006020828403121561343857613437614065565b5b60006134468482850161331e565b91505092915050565b6000806040838503121561346657613465614065565b5b600061347485828601613309565b925050602061348585828601613309565b9150509250929050565b6000806000606084860312156134a8576134a7614065565b5b60006134b686828701613309565b93505060206134c786828701613309565b92505060406134d8868287016132b5565b9150509250925092565b6000806000606084860312156134fb576134fa614065565b5b600061350986828701613309565b935050602061351a86828701613309565b925050604061352b86828701613309565b9150509250925092565b600061354183836137d6565b60408301905092915050565b61355681613e9f565b82525050565b61356581613ddf565b82525050565b61357481613ddf565b82525050565b61358381613dcd565b82525050565b600061359482613c19565b61359e8185613c31565b93506135a983613c09565b8060005b838110156135da5781516135c18882613535565b97506135cc83613c24565b9250506001810190506135ad565b5085935050505092915050565b6135f081613eb1565b82525050565b6135ff81613ec3565b82525050565b61360e81613ed5565b82525050565b61361d81613ee7565b82525050565b61362c81613ef9565b82525050565b600061363f601a83613c42565b915061364a8261406a565b602082019050919050565b6000613662601083613c42565b915061366d82614093565b602082019050919050565b6000613685601a83613c42565b9150613690826140bc565b602082019050919050565b60006136a8601083613c42565b91506136b3826140e5565b602082019050919050565b60006136cb601d83613c42565b91506136d68261410e565b602082019050919050565b60006136ee602c83613c42565b91506136f982614137565b604082019050919050565b6000613711601083613c42565b915061371c82614186565b602082019050919050565b6000613734601683613c42565b915061373f826141af565b602082019050919050565b6000613757601f83613c42565b9150613762826141d8565b602082019050919050565b600061377a601c83613c42565b915061378582614201565b602082019050919050565b600061379d601783613c42565b91506137a88261422a565b602082019050919050565b60006137c0601483613c42565b91506137cb82614253565b602082019050919050565b6040820160008201516137ec600085018261355c565b5060208201516137ff6020850182613868565b50505050565b600060808301600083015161381d6000860182613868565b50602083015184820360208601526138358282613589565b915050604083015161384a6040860182613868565b50606083015161385d6060860182613623565b508091505092915050565b61387181613e85565b82525050565b61388081613e85565b82525050565b600060208201905061389b600083018461357a565b92915050565b60006020820190506138b6600083018461356b565b92915050565b60006040820190506138d1600083018561354d565b6138de6020830184613877565b9392505050565b60006040820190506138fa600083018561357a565b613907602083018461357a565b9392505050565b6000606082019050613923600083018661357a565b613930602083018561357a565b61393d6040830184613877565b949350505050565b600060408201905061395a600083018561357a565b6139676020830184613877565b9392505050565b600060208201905061398360008301846135e7565b92915050565b600060208201905061399e60008301846135f6565b92915050565b60006020820190506139b96000830184613605565b92915050565b600060208201905081810360008301526139d881613632565b9050919050565b600060208201905081810360008301526139f881613655565b9050919050565b60006020820190508181036000830152613a1881613678565b9050919050565b60006020820190508181036000830152613a388161369b565b9050919050565b60006020820190508181036000830152613a58816136be565b9050919050565b60006020820190508181036000830152613a78816136e1565b9050919050565b60006020820190508181036000830152613a9881613704565b9050919050565b60006020820190508181036000830152613ab881613727565b9050919050565b60006020820190508181036000830152613ad88161374a565b9050919050565b60006020820190508181036000830152613af88161376d565b9050919050565b60006020820190508181036000830152613b1881613790565b9050919050565b60006020820190508181036000830152613b38816137b3565b9050919050565b60006020820190508181036000830152613b598184613805565b905092915050565b6000602082019050613b766000830184613877565b92915050565b600061012082019050613b92600083018c613877565b613b9f602083018b613614565b613bac604083018a613877565b613bb96060830189613877565b613bc66080830188613877565b613bd360a0830187613877565b613be060c0830186613877565b613bed60e0830185613877565b613bfb610100830184613877565b9a9950505050505050505050565b6000819050602082019050919050565b600081519050919050565b6000602082019050919050565b600082825260208201905092915050565b600082825260208201905092915050565b6000613c5e82613e85565b9150613c6983613e85565b9250827fffffffffffffffffffffffffffffffffffffffffffffffffffffffffffffffff03821115613c9e57613c9d613fa9565b5b828201905092915050565b6000613cb482613e5d565b9150613cbf83613e5d565b925082613ccf57613cce613fd8565b5b828204905092915050565b6000613ce582613e85565b9150613cf083613e85565b925082613d0057613cff613fd8565b5b828204905092915050565b6000613d1682613e85565b9150613d2183613e85565b9250817fffffffffffffffffffffffffffffffffffffffffffffffffffffffffffffffff0483118215151615613d5a57613d59613fa9565b5b828202905092915050565b6000613d7082613e85565b9150613d7b83613e85565b925082821015613d8e57613d8d613fa9565b5b828203905092915050565b6000613da482613e8f565b9150613daf83613e8f565b925082821015613dc257613dc1613fa9565b5b828203905092915050565b6000613dd882613e3d565b9050919050565b6000613dea82613e3d565b9050919050565b60008115159050919050565b6000819050613e0b8261427c565b919050565b6000819050613e1e82614290565b919050565b60006dffffffffffffffffffffffffffff82169050919050565b600073ffffffffffffffffffffffffffffffffffffffff82169050919050565b60007bffffffffffffffffffffffffffffffffffffffffffffffffffffffff82169050919050565b6000819050919050565b600063ffffffff82169050919050565b6000613eaa82613f0b565b9050919050565b6000613ebc82613f0b565b9050919050565b6000613ece82613f0b565b9050919050565b6000613ee082613f0b565b9050919050565b6000613ef282613dfd565b9050919050565b6000613f0482613e10565b9050919050565b6000613f1682613f1d565b9050919050565b6000613f2882613e3d565b9050919050565b6000613f3a82613e85565b91507fffffffffffffffffffffffffffffffffffffffffffffffffffffffffffffffff821415613f6d57613f6c613fa9565b5b600182019050919050565b6000613f8382613e85565b9150613f8e83613e85565b925082613f9e57613f9d613fd8565b5b828206905092915050565b7f4e487b7100000000000000000000000000000000000000000000000000000000600052601160045260246000fd5b7f4e487b7100000000000000000000000000000000000000000000000000000000600052601260045260246000fd5b7f4e487b7100000000000000000000000000000000000000000000000000000000600052602160045260246000fd5b7f4e487b7100000000000000000000000000000000000000000000000000000000600052603260045260246000fd5b600080fd5b7f4652414d4520454e442054494d45204e4f542052454143484544000000000000600082015250565b7f4652414d45204e4f54204f50454e454400000000000000000000000000000000600082015250565b7f43414e275420435245415445204652414d4520494e2050415354000000000000600082015250565b7f505249434520495320544f4f204c4f5700000000000000000000000000000000600082015250565b7f544849532041444452455353204953204e4f5420544845204f574e4552000000600082015250565b7f54494d455354414d50204245464f524520494e495449414c2054494d4553544160008201527f4d50204f46204d41524b45540000000000000000000000000000000000000000602082015250565b7f4652414d45204e4f5420434c4f53454400000000000000000000000000000000600082015250565b7f50415243454c20414c524541445920534554544c454400000000000000000000600082015250565b7f4144445245535320414c5245414459204f574e53205448452050415243454c00600082015250565b7f415050524f56454420414d4f554e5420495320544f4f20534d414c4c00000000600082015250565b7f4669786564506f696e743a204449565f42595f5a45524f000000000000000000600082015250565b7f4f574e455220444f4553204e4f54204558495354000000000000000000000000600082015250565b6004811061428d5761428c614007565b5b50565b600381106142a1576142a0614007565b5b50565b6142ad81613dcd565b81146142b857600080fd5b50565b6142c481613df1565b81146142cf57600080fd5b50565b6142db81613e23565b81146142e657600080fd5b50565b6142f281613e85565b81146142fd57600080fd5b50565b61430981613e8f565b811461431457600080fd5b5056fea2646970667358221220bda16a92d07de6fad50b831416b718e6a492f318f76f8cb53a79c85d5fe90d9764736f6c63430008070033",
  "immutableReferences": {},
  "source": "// SPDX-License-Identifier: MIT\r\npragma solidity ^0.8.0;\r\n//pragma experimental ABIEncoderV2;\r\n\r\nimport \"./MarketFactory.sol\";\r\nimport \"@uniswap/v2-core/contracts/interfaces/IUniswapV2Pair.sol\";\r\nimport \"@uniswap/v2-periphery/contracts/libraries/UniswapV2OracleLibrary.sol\";\r\nimport \"@uniswap/lib/contracts/libraries/FixedPoint.sol\";\r\nimport \"@openzeppelin/contracts/token/ERC20/IERC20.sol\";\r\nimport \"@openzeppelin/contracts/utils/math/SafeMath.sol\";\r\n\r\n/// @title TWPM Market\r\n/// @author UniHedge\r\n/// @dev All function calls are currently implemented without side effects\r\ncontract Market {\r\n\r\n    using SafeMath for uint;\r\n    //Contract for creating markets\r\n    MarketFactory public factory;\r\n    //ERC20 token used for buyng lots in this contract \r\n    IERC20 public accountingToken;\r\n    //Owner of this market\r\n    address payable public ownerMarket;\r\n    //Length of a frame\r\n    uint public period;\r\n    //Contract creation time\r\n    uint public initTimestamp; \r\n    //Token pair on Uniswap\r\n    IUniswapV2Pair public uniswapPair;\r\n    //Range of a lot\r\n    uint public dPrice;\r\n    //Fee that gets to market owner\r\n    uint public feeMarket;\r\n    //Tax on lots\r\n    uint public taxMarket;\r\n    //Protocol fee\r\n    uint public feeProtocol = 100;\r\n    //Reporting time for pair price\r\n    uint public tReporting;\r\n    //Minimal lot tax per frame\r\n    uint public minTax;\r\n    //Scalar number used for calculating precentages\r\n    uint scalar = 1e24;\r\n\r\n    enum SFrame {NULL, OPENED, CLOSED, INVALID}\r\n    struct Frame {\r\n        uint frameKey;\r\n        SFrame state;\r\n        uint priceAverage;\r\n        uint rewardFund;\r\n        uint oraclePrice0CumulativeStart;\r\n        uint oraclePrice0CumulativeEnd;\r\n        uint oracleTimestampStart;\r\n        uint oracleTimestampEnd;\r\n        uint lastBlockNum;\r\n        mapping(uint => Lot) lots;\r\n        uint[] lotKeys;\r\n    }\r\n\r\n    event FrameUpdate(uint frameKey);\r\n\r\n    mapping(uint => Frame) public frames;\r\n    uint[] public framesKeys;\r\n\r\n    struct LotOwner {\r\n        address payable owner;\r\n        uint blockNum;\r\n    }\r\n\r\n    enum SLot {NULL, BOUGHT, SETTLED}\r\n    struct Lot {\r\n        uint lotKey;\r\n        LotOwner[] lotOwners;\r\n        uint acquisitionPrice;\r\n        SLot state;\r\n    }\r\n\r\n    event LotUpdate(uint frameKey, uint lotKey);\r\n\r\n    constructor(MarketFactory _factory, IERC20 _token, IUniswapV2Pair _uniswapPair, uint _period, uint _initTimestamp, uint _taxMarket, uint _feeMarket, uint _dPrice, uint _tReporting, uint _minTax) {\r\n        accountingToken = _token;\r\n        ownerMarket = payable(msg.sender);\r\n        period = _period;\r\n        initTimestamp = _initTimestamp; \r\n        taxMarket = _taxMarket;\r\n        feeMarket = _feeMarket;\r\n        uniswapPair = _uniswapPair;\r\n        dPrice = _dPrice;\r\n        factory = _factory;\r\n        tReporting = _tReporting;\r\n        minTax = _minTax;\r\n    }\r\n\r\n    modifier minTaxCheck(uint acqPrice) {\r\n        uint tax = acqPrice.mul(taxMarket).div(100000);\r\n        require(tax >= minTax, \"PRICE IS TOO LOW\");\r\n        _;\r\n    }\r\n\r\n    /// @notice Create a frame\r\n    /// @param timestamp In second.\r\n    /// @return frameTimestamp Frame's key (timestamp that indicated the beggining of a frame).\r\n    function getOrCreateFrame(uint timestamp) public returns (uint){\r\n        require(timestamp >= initTimestamp, \"TIMESTAMP BEFORE INITIAL TIMESTAMP OF MARKET\");\r\n        //Get start timestamp of a frame\r\n        uint frameTimestamp = clcFrameTimestamp(timestamp);\r\n        //Check if frame exists\r\n        if (frames[frameTimestamp].state != SFrame.NULL) return frameTimestamp;\r\n        //Check if frame startLot number is before current Lot number\r\n        require(frameTimestamp >= clcFrameTimestamp(block.timestamp), \"CAN'T CREATE FRAME IN PAST\");\r\n        //Add frame\r\n        frames[frameTimestamp].frameKey = frameTimestamp;\r\n        frames[frameTimestamp].state = SFrame.OPENED; //check if other parameters are at zero\r\n        framesKeys.push(frameTimestamp);\r\n        emit FrameUpdate(frameTimestamp);\r\n        return frameTimestamp;\r\n    }\r\n\r\n    /// @notice Calculate frames timestamp (beggining of frame)\r\n    /// @param timestamp In seconds\r\n    /// @return frame's timestamp (key)\r\n    function clcFrameTimestamp(uint timestamp) public view returns (uint){\r\n        if (timestamp <= initTimestamp) return initTimestamp;\r\n        return timestamp.sub((timestamp.sub(initTimestamp)).mod(period));\r\n    }\r\n\r\n    /// @notice Calculate top boundary of a lot\r\n    /// @param value Arbitary price of market's Uniswap pair\r\n    /// @return lot key (top boundary)\r\n    function clcLotInterval(uint value) public view returns (uint){\r\n        if (value <= 0) return dPrice;\r\n        return value.div(dPrice).mul(dPrice).add(dPrice);\r\n    }\r\n\r\n    /// @notice Calculate how many frames there are left untill given frame in input\r\n    /// @param frameKey Timestamp of an arbitary frame in the future\r\n    /// @return number of frames (whole numbers: n=0,1,2...)\r\n    function clcFramesLeft(uint frameKey) public view returns (uint){                      \r\n        return (frameKey.sub(block.timestamp)).div(period).add(1);\r\n    }\r\n\r\n    /// @notice Get lot struct\r\n    /// @param frameKey Frame's timestamp\r\n    /// @param lotKey lot's key \r\n    /// @return lot struct\r\n    function getLot(uint frameKey, uint lotKey) public view returns (Lot memory){                 \r\n        return frames[frameKey].lots[lotKey];\r\n    }\r\n\r\n    /// @notice Get no. of created lots in a frame \r\n    /// @param frameKey Frame's timestamp\r\n    /// @return lot count\r\n    function getLotsCount(uint frameKey) public view returns (uint){                 \r\n        return frames[frameKey].lotKeys.length;\r\n    }\r\n\r\n    /// @notice Get lotKey from index in lotKeys array\r\n    /// @param frameKey Frame's timestamp\r\n    /// @param index frameKeys array index \r\n    /// @return lotKey\r\n    function getLotKey(uint frameKey, uint index) public view returns (uint){                 \r\n        return frames[frameKey].lotKeys[index];\r\n    }\r\n\r\n    /// @notice Get lot's owner\r\n    /// @param frameKey Frame's timestamp\r\n    /// @param lotKey Lot's key \r\n    /// @return lot's owner\r\n    function getLotOwner(uint frameKey, uint lotKey) public view returns (address){ \r\n        if (getNumberOfLotOwners(frameKey, lotKey) == 0) return address(this);\r\n        return frames[frameKey].lots[lotKey].lotOwners[getNumberOfLotOwners(frameKey, lotKey).sub(1)].owner;\r\n    }\r\n\r\n    /// @notice Get frame's award amount (accumulation of different lot taxes)\r\n    /// @notice Remaining tax of a lot owner get's returned after a sale (change of ownership). So the award amount isn't for sure untill the frame get's closed.\r\n    /// @param frameKey Frame's timestamp\r\n    /// @return award amount\r\n    function getRewardAmount(uint frameKey) public view returns (uint) {                         \r\n        return frames[frameKey].rewardFund; \r\n    }\r\n\r\n    /// @notice Get number of accounts that owned a specific lot\r\n    /// @param frameKey Frame's timestamp\r\n    /// @param lotKey Lot's key \r\n    /// @return number of owners\r\n    function getNumberOfLotOwners(uint frameKey, uint lotKey) public view returns (uint){\r\n        return frames[frameKey].lots[lotKey].lotOwners.length;\r\n    }\r\n\r\n    /// @notice Get number of frames\r\n    /// @return number frames\r\n    function getNumberOfFrameKeys() public view returns (uint){\r\n        return framesKeys.length ;\r\n    }\r\n\r\n    /// @notice Calculate lot owner's index in the array of owners of the lot\r\n    /// @param frameKey Frame's timestamp\r\n    /// @param lotKey Lot's key \r\n    /// @param owner Owners account address\r\n    /// @return i owner's index\r\n    function getLotOwnerIndex(uint frameKey, uint lotKey, address owner) public view returns (uint i) {   \r\n        for (i=0; i< getNumberOfLotOwners(frameKey, lotKey); i++) {\r\n            if (frames[frameKey].lots[lotKey].lotOwners[i].owner == owner) return i;\r\n        }\r\n        revert(\"OWNER DOES NOT EXIST\");\r\n    }\r\n\r\n    /// @notice Create a lot\r\n    /// @param frameKey Frame's timestamp\r\n    /// @param pairPrice Price is the trading pair's price\r\n    /// @return lotKey\r\n    function getOrCreateLot(uint frameKey, uint pairPrice) internal returns(uint){\r\n        uint lotKey = clcLotInterval(pairPrice);\r\n        if (frames[frameKey].lots[lotKey].state != SLot.NULL) return lotKey;\r\n        frames[frameKey].lots[lotKey].lotKey = lotKey;\r\n        frames[frameKey].lotKeys.push(lotKey);\r\n        return lotKey;\r\n    }\r\n\r\n    /// @notice Calculate amout required to approve to buy a lot\r\n    /// @param frameKey Frame's timestamp\r\n    /// @param pairPrice Value is trading pair's price (to get correct lot key) \r\n    /// @param acquisitionPrice New sell price is required to calculate tax\r\n    /// @return amoun to approve\r\n    function AmountToApprove(uint frameKey, uint pairPrice, uint acquisitionPrice) public view returns (uint) {             \r\n        uint lotKey = clcLotInterval(pairPrice);\r\n        uint dFrame = (clcFrameTimestamp(block.timestamp.add(period))).sub(block.timestamp); \r\n        uint dFrameP = scalar.mul(dFrame).div(period);\r\n        //Calculate tax from the propoed new price (acquisitionPrice)\r\n        uint numOfFramesLeft = clcFramesLeft(frameKey);\r\n        uint tax = acquisitionPrice.mul(taxMarket).div(100000).mul(numOfFramesLeft);\r\n        uint dtax = acquisitionPrice.mul(taxMarket).div(100000);\r\n        dtax = dtax.mul(dFrameP).div(scalar);\r\n        tax = tax.add(dtax);\r\n        uint amount = frames[frameKey].lots[lotKey].acquisitionPrice.add(tax);\r\n        return amount;\r\n    }\r\n\r\n    /// @notice Calculate amout required to approve to buy a lot\r\n    /// @param timestamp Frame's timestamp get's calculated from this value\r\n    /// @param pairPrice Is trading pair's price (to get correct lot key) \r\n    /// @param acquisitionPrice New sell price is required to calculate tax\r\n    function buyLot(uint timestamp, uint pairPrice, uint acquisitionPrice) public payable minTaxCheck(acquisitionPrice) {\r\n        uint frameKey =  getOrCreateFrame(timestamp);                          \r\n        uint lotKey = getOrCreateLot(frameKey, pairPrice);\r\n        require(msg.sender != getLotOwner(frameKey, lotKey), \"ADDRESS ALREADY OWNS THE PARCEL\");\r\n        uint dFrame = block.timestamp.sub(clcFrameTimestamp(block.timestamp));\r\n        uint dFrameP = scalar.mul(dFrame).div(period);\r\n        uint dtax = acquisitionPrice.mul(taxMarket).div(100000).mul(dFrameP).div(scalar);\r\n        //Calculate tax from the proposed new price (acquisitionPrice)\r\n        uint numOfFramesLeft = clcFramesLeft(timestamp);\r\n        uint tax = acquisitionPrice.mul(taxMarket).div(100000).mul(numOfFramesLeft);\r\n        tax = tax.add(dtax);\r\n        //Approved amount has to be at leat equal to price of the Lot(with tax)\r\n        require(accountingToken.allowance(msg.sender, address(this)) >= frames[frameKey].lots[lotKey].acquisitionPrice.add(tax), \"APPROVED AMOUNT IS TOO SMALL\");\r\n        //Transfer complete tax amount to the frame rewardFund\r\n        accountingToken.transferFrom(msg.sender, address(this), frames[frameKey].lots[lotKey].acquisitionPrice.add(tax));\r\n        frames[frameKey].rewardFund = frames[frameKey].rewardFund.add(tax);\r\n\r\n        //Pay the Lot price to current owner + return tax\r\n        if (frames[frameKey].lots[lotKey].state == SLot.BOUGHT) {\r\n            //Calculate tax to return. acquisitionPrice/marketTax * number_of_frames_left:\r\n            uint aPrice = frames[frameKey].lots[lotKey].acquisitionPrice;\r\n            uint dFrameTax = aPrice.mul(taxMarket).div(100000).mul(dFrameP).div(scalar);\r\n            uint taxToReturn = aPrice.mul(taxMarket).div(100000).mul(numOfFramesLeft);\r\n            taxToReturn = taxToReturn.add(dFrameTax);\r\n            //add acquisition price valut to left over tax\r\n            uint amount = (taxToReturn.add(frames[frameKey].lots[lotKey].acquisitionPrice));\r\n            //transfer funds\r\n            uint previousOwner = getNumberOfLotOwners(frameKey, lotKey).sub(1);\r\n            accountingToken.transfer(frames[frameKey].lots[lotKey].lotOwners[previousOwner].owner, amount);\r\n            //change reward value\r\n            frames[frameKey].rewardFund = frames[frameKey].rewardFund.sub(taxToReturn);\r\n        }\r\n       \r\n        frames[frameKey].lots[lotKey].lotOwners.push(LotOwner(payable(msg.sender), block.number));\r\n        frames[frameKey].lots[lotKey].state = SLot.BOUGHT;\r\n        frames[frameKey].lots[lotKey].acquisitionPrice = acquisitionPrice;\r\n    }\r\n\r\n    /// @notice Owner can update lot's price. Has to pay additional tax, or leftover tax gets' returned to him if the new price is lower\r\n    /// @param timestamp Frame's timestamp get's calculated from this value\r\n    /// @param pairPrice Is trading pair's price (to get correct lot key) \r\n    /// @param acquisitionPrice New acquisition price\r\n    function updateLotPrice(uint timestamp, uint pairPrice, uint acquisitionPrice) public payable minTaxCheck(acquisitionPrice) {\r\n        uint frameKey =  getOrCreateFrame(timestamp); \r\n        uint lotKey = getOrCreateLot(frameKey, pairPrice); \r\n        \r\n        require(getLotOwner(frameKey, lotKey) == msg.sender, \"THIS ADDRESS IS NOT THE OWNER\");\r\n                      \r\n        uint numOfFramesLeft = clcFramesLeft(timestamp);\r\n\r\n        uint dFrame = block.timestamp.sub(clcFrameTimestamp(block.timestamp));\r\n        uint dFrameP = scalar.mul(dFrame).div(period);\r\n        uint dtax = acquisitionPrice.mul(taxMarket).div(100000).mul(dFrameP);\r\n        dtax = dtax.div(scalar);\r\n\r\n        uint taxNew = acquisitionPrice.mul(taxMarket).div(100000);\r\n        taxNew = taxNew.mul(numOfFramesLeft);\r\n        taxNew = taxNew.add(dtax);\r\n\r\n        uint oldPrice = frames[frameKey].lots[lotKey].acquisitionPrice;\r\n        dtax = oldPrice.mul(taxMarket).div(100000).mul(dFrameP).div(scalar);\r\n        uint taxOld = acquisitionPrice.mul(taxMarket).div(100000);\r\n        taxOld = taxOld.mul(numOfFramesLeft);\r\n        taxOld = taxOld.add(dtax);\r\n\r\n        if (taxNew > taxOld) {\r\n            require(accountingToken.allowance(msg.sender, address(this)) >= (taxNew.sub(taxOld)), \"APPROVED AMOUNT IS TOO SMALL\");\r\n            //Transfer complete tax amount to the frame rewardFund\r\n            accountingToken.transferFrom(msg.sender, address(this), (taxNew.sub(taxOld)));\r\n            frames[frameKey].rewardFund = frames[frameKey].rewardFund.add(taxNew.sub(taxOld));\r\n        }\r\n        else if (taxNew < taxOld) {\r\n            accountingToken.transfer(msg.sender, taxOld.sub(taxNew));\r\n            frames[frameKey].rewardFund = frames[frameKey].rewardFund.sub(taxOld.sub(taxNew));\r\n        }\r\n        frames[frameKey].lots[lotKey].acquisitionPrice = acquisitionPrice;\r\n    }\r\n\r\n    // /// @notice Update trading pair's prices in the frame\r\n    function updateFramePrices() public {\r\n        uint tmp;\r\n        uint frameKey = clcFrameTimestamp(block.timestamp);\r\n        frames[frameKey].lastBlockNum = block.number;\r\n        //Correct price if outside settle interval\r\n        if (block.timestamp >= ((frameKey.add(period)).sub(tReporting)) && frames[frameKey].oraclePrice0CumulativeStart == 0) {\r\n            (frames[frameKey].oraclePrice0CumulativeStart, tmp, frames[frameKey].oracleTimestampStart) = UniswapV2OracleLibrary.currentCumulativePrices(address(uniswapPair));\r\n            emit FrameUpdate(frameKey);\r\n        }\r\n        else if (block.timestamp <= frameKey.add(period) && block.timestamp >= ((frameKey.add(period)).sub(tReporting))) {\r\n            (frames[frameKey].oraclePrice0CumulativeEnd, tmp, frames[frameKey].oracleTimestampEnd) = UniswapV2OracleLibrary.currentCumulativePrices(address(uniswapPair));\r\n            emit FrameUpdate(frameKey);\r\n        }\r\n    }\r\n\r\n    // /// @notice Update trading pair's prices in the frame\r\n    // /// @param PriceCumulative Cumulative price\r\n    // /// @dev For developement purposes the new price is added as an input\r\n    // /// @dev Final version should use uniswap's oracles\r\n    // function updateFramePrices(uint PriceCumulative) public {\r\n    //     uint frameKey = clcFrameTimestamp(block.timestamp);\r\n    //     frames[frameKey].lastBlockNum = block.number;\r\n    //     //Correct price if outside settle interval\r\n    //     if (block.timestamp >= ((frameKey.add(period)).sub(tReporting)) && frames[frameKey].oraclePrice0CumulativeStart == 0) {\r\n    //         frames[frameKey].oraclePrice0CumulativeStart = PriceCumulative;\r\n    //         frames[frameKey].oracleTimestampStart = block.timestamp;\r\n    //         emit FrameUpdate(frameKey);\r\n    //     }\r\n    //     else if (block.timestamp <= frameKey.add(period) && block.timestamp >= ((frameKey.add(period)).sub(tReporting))) {\r\n    //         frames[frameKey].oraclePrice0CumulativeEnd = PriceCumulative;\r\n    //         frames[frameKey].oracleTimestampEnd = block.timestamp;\r\n    //         emit FrameUpdate(frameKey);\r\n    //     }\r\n    // }\r\n\r\n    /// @notice Close frame\r\n    /// @param frameKey Frame's timestamp\r\n    function closeFrame(uint frameKey) public payable {\r\n        //Check if frame is opened\r\n        require(frames[frameKey].state == SFrame.OPENED, \"FRAME NOT OPENED\");\r\n        //Check if frame timing is correct\r\n        require(frameKey.add(period) <= block.timestamp, \"FRAME END TIME NOT REACHED\");\r\n        //Check if frame has valid prices\r\n        if (frames[frameKey].oraclePrice0CumulativeStart <= 0 || frames[frameKey].oraclePrice0CumulativeEnd <= 0) {\r\n            frames[frameKey].state = SFrame.INVALID;\r\n        }\r\n        if (frames[frameKey].oraclePrice0CumulativeStart == frames[frameKey].oraclePrice0CumulativeEnd) {\r\n            frames[frameKey].state = SFrame.INVALID;\r\n        }\r\n        frames[frameKey].state = SFrame.CLOSED;\r\n\r\n        //UQ112x112 encoded\r\n        uint priceDiff = frames[frameKey].oraclePrice0CumulativeEnd.sub(frames[frameKey].oraclePrice0CumulativeStart);\r\n        uint timeDiff = frames[frameKey].oracleTimestampEnd.sub(frames[frameKey].oracleTimestampStart);\r\n        //Calculate time-weighted average price -- UQ112x112 encoded\r\n        frames[frameKey].priceAverage = uint(((FixedPoint.div(FixedPoint.uq112x112(uint224(priceDiff)), (uint112(timeDiff)))))._x);\r\n\r\n        //Decode to scalar value\r\n        frames[frameKey].priceAverage = (frames[frameKey].priceAverage >> 112).mul(scalar) + (frames[frameKey].priceAverage << 112).div(1e49); \r\n        //frames[frameKey].priceAverage = (frames[frameKey].priceAverage << 112).div(1e49);\r\n\r\n        //Subtract fees from the reward amount and send them to Owners of the market and protocol\r\n        uint marketOwnerFees = frames[frameKey].rewardFund.mul(feeMarket).div(100000);\r\n        uint protocolOwnerFees = frames[frameKey].rewardFund.mul(feeProtocol).div(100000);\r\n\r\n        frames[frameKey].rewardFund = frames[frameKey].rewardFund.sub(marketOwnerFees).sub(protocolOwnerFees);\r\n        accountingToken.transfer(ownerMarket, marketOwnerFees);\r\n        accountingToken.transfer(factory.owner(), protocolOwnerFees);\r\n\r\n        emit FrameUpdate(frameKey);\r\n    }\r\n\r\n    /// @notice Settle lot for a owner. Owner's share of the reward amount get's transfered to owner's account\r\n    /// @param frameKey Frame's timestamp\r\n    function settleLot(uint frameKey) public payable {  \r\n        //Check if frame is closed\r\n        require(frames[frameKey].state == SFrame.CLOSED, \"FRAME NOT CLOSED\");    \r\n        //Get winning lot key\r\n        uint lotKeyWin = (clcLotInterval(frames[frameKey].priceAverage));\r\n        Lot memory lot = frames[frameKey].lots[lotKeyWin];\r\n        require(lot.state != SLot.SETTLED, \"PARCEL ALREADY SETTLED\");\r\n        //Get last owners index in the lot owner array\r\n        uint ownerIndex = getNumberOfLotOwners(frameKey, lotKeyWin);\r\n        //Transfer winnings to last owner \r\n        accountingToken.transfer(lot.lotOwners[ownerIndex.sub(1)].owner, frames[frameKey].rewardFund);\r\n        // frames[frameKey].lots[lotKeyWin].state = SLot.SETTLED;\r\n    }\r\n\r\n}",
  "sourcePath": "D:\\prog\\UniHedge\\core\\contracts\\Market.sol",
  "compiler": {
    "name": "solc",
    "version": "0.8.7+commit.e28d00a7.Emscripten.clang"
  },
  "schemaVersion": "3.4.3",
  "updatedAt": "2021-09-19T18:53:59.539Z",
  "devdoc": {
    "author": "UniHedge",
    "details": "All function calls are currently implemented without side effects",
    "kind": "dev",
    "methods": {
      "AmountToApprove(uint256,uint256,uint256)": {
        "params": {
          "acquisitionPrice": "New sell price is required to calculate tax",
          "frameKey": "Frame's timestamp",
          "pairPrice": "Value is trading pair's price (to get correct lot key) "
        },
        "returns": {
          "_0": "amoun to approve"
        }
      },
      "buyLot(uint256,uint256,uint256)": {
        "params": {
          "acquisitionPrice": "New sell price is required to calculate tax",
          "pairPrice": "Is trading pair's price (to get correct lot key) ",
          "timestamp": "Frame's timestamp get's calculated from this value"
        }
      },
      "clcFrameTimestamp(uint256)": {
        "params": {
          "timestamp": "In seconds"
        },
        "returns": {
          "_0": "frame's timestamp (key)"
        }
      },
      "clcFramesLeft(uint256)": {
        "params": {
          "frameKey": "Timestamp of an arbitary frame in the future"
        },
        "returns": {
          "_0": "number of frames (whole numbers: n=0,1,2...)"
        }
      },
      "clcLotInterval(uint256)": {
        "params": {
          "value": "Arbitary price of market's Uniswap pair"
        },
        "returns": {
          "_0": "lot key (top boundary)"
        }
      },
      "closeFrame(uint256)": {
        "params": {
          "frameKey": "Frame's timestamp"
        }
      },
      "getLot(uint256,uint256)": {
        "params": {
          "frameKey": "Frame's timestamp",
          "lotKey": "lot's key "
        },
        "returns": {
          "_0": "lot struct"
        }
      },
      "getLotKey(uint256,uint256)": {
        "params": {
          "frameKey": "Frame's timestamp",
          "index": "frameKeys array index "
        },
        "returns": {
          "_0": "lotKey"
        }
      },
      "getLotOwner(uint256,uint256)": {
        "params": {
          "frameKey": "Frame's timestamp",
          "lotKey": "Lot's key "
        },
        "returns": {
          "_0": "lot's owner"
        }
      },
      "getLotOwnerIndex(uint256,uint256,address)": {
        "params": {
          "frameKey": "Frame's timestamp",
          "lotKey": "Lot's key ",
          "owner": "Owners account address"
        },
        "returns": {
          "i": "owner's index"
        }
      },
      "getLotsCount(uint256)": {
        "params": {
          "frameKey": "Frame's timestamp"
        },
        "returns": {
          "_0": "lot count"
        }
      },
      "getNumberOfFrameKeys()": {
        "returns": {
          "_0": "number frames"
        }
      },
      "getNumberOfLotOwners(uint256,uint256)": {
        "params": {
          "frameKey": "Frame's timestamp",
          "lotKey": "Lot's key "
        },
        "returns": {
          "_0": "number of owners"
        }
      },
      "getOrCreateFrame(uint256)": {
        "params": {
          "timestamp": "In second."
        },
        "returns": {
          "_0": "frameTimestamp Frame's key (timestamp that indicated the beggining of a frame)."
        }
      },
      "getRewardAmount(uint256)": {
        "params": {
          "frameKey": "Frame's timestamp"
        },
        "returns": {
          "_0": "award amount"
        }
      },
      "settleLot(uint256)": {
        "params": {
          "frameKey": "Frame's timestamp"
        }
      },
      "updateLotPrice(uint256,uint256,uint256)": {
        "params": {
          "acquisitionPrice": "New acquisition price",
          "pairPrice": "Is trading pair's price (to get correct lot key) ",
          "timestamp": "Frame's timestamp get's calculated from this value"
        }
      }
    },
    "title": "TWPM Market",
    "version": 1
  },
  "userdoc": {
    "kind": "user",
    "methods": {
      "AmountToApprove(uint256,uint256,uint256)": {
        "notice": "Calculate amout required to approve to buy a lot"
      },
      "buyLot(uint256,uint256,uint256)": {
        "notice": "Calculate amout required to approve to buy a lot"
      },
      "clcFrameTimestamp(uint256)": {
        "notice": "Calculate frames timestamp (beggining of frame)"
      },
      "clcFramesLeft(uint256)": {
        "notice": "Calculate how many frames there are left untill given frame in input"
      },
      "clcLotInterval(uint256)": {
        "notice": "Calculate top boundary of a lot"
      },
      "closeFrame(uint256)": {
        "notice": "Close frame"
      },
      "getLot(uint256,uint256)": {
        "notice": "Get lot struct"
      },
      "getLotKey(uint256,uint256)": {
        "notice": "Get lotKey from index in lotKeys array"
      },
      "getLotOwner(uint256,uint256)": {
        "notice": "Get lot's owner"
      },
      "getLotOwnerIndex(uint256,uint256,address)": {
        "notice": "Calculate lot owner's index in the array of owners of the lot"
      },
      "getLotsCount(uint256)": {
        "notice": "Get no. of created lots in a frame "
      },
      "getNumberOfFrameKeys()": {
        "notice": "Get number of frames"
      },
      "getNumberOfLotOwners(uint256,uint256)": {
        "notice": "Get number of accounts that owned a specific lot"
      },
      "getOrCreateFrame(uint256)": {
        "notice": "Create a frame"
      },
      "getRewardAmount(uint256)": {
        "notice": "Get frame's award amount (accumulation of different lot taxes)Remaining tax of a lot owner get's returned after a sale (change of ownership). So the award amount isn't for sure untill the frame get's closed."
      },
      "settleLot(uint256)": {
        "notice": "Settle lot for a owner. Owner's share of the reward amount get's transfered to owner's account"
      },
      "updateLotPrice(uint256,uint256,uint256)": {
        "notice": "Owner can update lot's price. Has to pay additional tax, or leftover tax gets' returned to him if the new price is lower"
      }
    },
    "version": 1
  }
}