{
  "contractName": "MarketFactory",
  "abi": [
    {
      "inputs": [
        {
          "internalType": "address",
          "name": "_uniswapFactory",
          "type": "address"
        }
      ],
      "stateMutability": "nonpayable",
      "type": "constructor"
    },
    {
      "inputs": [
        {
          "internalType": "address",
          "name": "",
          "type": "address"
        }
      ],
      "name": "markets",
      "outputs": [
        {
          "internalType": "contract Market",
          "name": "",
          "type": "address"
        }
      ],
      "stateMutability": "view",
      "type": "function",
      "constant": true
    },
    {
      "inputs": [
        {
          "internalType": "uint256",
          "name": "",
          "type": "uint256"
        }
      ],
      "name": "marketsKeys",
      "outputs": [
        {
          "internalType": "address",
          "name": "",
          "type": "address"
        }
      ],
      "stateMutability": "view",
      "type": "function",
      "constant": true
    },
    {
      "inputs": [],
      "name": "owner",
      "outputs": [
        {
          "internalType": "address",
          "name": "",
          "type": "address"
        }
      ],
      "stateMutability": "view",
      "type": "function",
      "constant": true
    },
    {
      "inputs": [],
      "name": "uniswapFactory",
      "outputs": [
        {
          "internalType": "contract IUniswapV2Factory",
          "name": "",
          "type": "address"
        }
      ],
      "stateMutability": "view",
      "type": "function",
      "constant": true
    },
    {
      "inputs": [
        {
          "internalType": "address",
          "name": "_token",
          "type": "address"
        },
        {
          "internalType": "address",
          "name": "_uniswapPair",
          "type": "address"
        },
        {
          "internalType": "uint256",
          "name": "_period",
          "type": "uint256"
        },
        {
          "internalType": "uint256",
          "name": "_initTimestamp",
          "type": "uint256"
        },
        {
          "internalType": "uint256",
          "name": "_tax",
          "type": "uint256"
        },
        {
          "internalType": "uint256",
          "name": "_fee",
          "type": "uint256"
        },
        {
          "internalType": "uint256",
          "name": "_dPrice",
          "type": "uint256"
        },
        {
          "internalType": "uint256",
          "name": "_tReporting",
          "type": "uint256"
        },
        {
          "internalType": "uint256",
          "name": "_minTax",
          "type": "uint256"
        }
      ],
      "name": "addMarket",
      "outputs": [],
      "stateMutability": "nonpayable",
      "type": "function"
    },
    {
      "inputs": [],
      "name": "getMarketsCount",
      "outputs": [
        {
          "internalType": "uint256",
          "name": "",
          "type": "uint256"
        }
      ],
      "stateMutability": "view",
      "type": "function",
      "constant": true
    }
  ],
  "bytecode": "0x608060405234801561001057600080fd5b50604051614bd9380380614bd9833981810160405281019061003291906100ce565b33600360006101000a81548173ffffffffffffffffffffffffffffffffffffffff021916908373ffffffffffffffffffffffffffffffffffffffff160217905550806000806101000a81548173ffffffffffffffffffffffffffffffffffffffff021916908373ffffffffffffffffffffffffffffffffffffffff16021790555050610149565b6000815190506100c881610132565b92915050565b6000602082840312156100e4576100e361012d565b5b60006100f2848285016100b9565b91505092915050565b60006101068261010d565b9050919050565b600073ffffffffffffffffffffffffffffffffffffffff82169050919050565b600080fd5b61013b816100fb565b811461014657600080fd5b50565b614a81806101586000396000f3fe60806040523480156200001157600080fd5b50600436106200006a5760003560e01c806327fa35c3146200006f57806346a81c0014620000915780638bdb2afa14620000c75780638da5cb5b14620000e95780638e8f294b146200010b578063f4541da51462000141575b600080fd5b6200007962000161565b60405162000088919062000664565b60405180910390f35b620000af6004803603810190620000a99190620004b4565b6200016e565b604051620000be91906200055d565b60405180910390f35b620000d1620001ae565b604051620000e091906200057a565b60405180910390f35b620000f3620001d2565b6040516200010291906200055d565b60405180910390f35b620001296004803603810190620001239190620003a3565b620001f8565b60405162000138919062000647565b60405180910390f35b6200015f6004803603810190620001599190620003d5565b6200022b565b005b6000600280549050905090565b600281815481106200017f57600080fd5b906000526020600020016000915054906101000a900473ffffffffffffffffffffffffffffffffffffffff1681565b60008054906101000a900473ffffffffffffffffffffffffffffffffffffffff1681565b600360009054906101000a900473ffffffffffffffffffffffffffffffffffffffff1681565b60016020528060005260406000206000915054906101000a900473ffffffffffffffffffffffffffffffffffffffff1681565b6000308a8a8a8a8a8a8a8a8a604051620002459062000367565b6200025a9a9998979695949392919062000597565b604051809103906000f08015801562000277573d6000803e3d6000fd5b50905080600160008373ffffffffffffffffffffffffffffffffffffffff1673ffffffffffffffffffffffffffffffffffffffff16815260200190815260200160002060006101000a81548173ffffffffffffffffffffffffffffffffffffffff021916908373ffffffffffffffffffffffffffffffffffffffff1602179055506002819080600181540180825580915050600190039060005260206000200160009091909190916101000a81548173ffffffffffffffffffffffffffffffffffffffff021916908373ffffffffffffffffffffffffffffffffffffffff16021790555050505050505050505050565b6142c7806200078583390190565b600081359050620003868162000750565b92915050565b6000813590506200039d816200076a565b92915050565b600060208284031215620003bc57620003bb6200074b565b5b6000620003cc8482850162000375565b91505092915050565b60008060008060008060008060006101208a8c031215620003fb57620003fa6200074b565b5b60006200040b8c828d0162000375565b99505060206200041e8c828d0162000375565b9850506040620004318c828d016200038c565b9750506060620004448c828d016200038c565b9650506080620004578c828d016200038c565b95505060a06200046a8c828d016200038c565b94505060c06200047d8c828d016200038c565b93505060e0620004908c828d016200038c565b925050610100620004a48c828d016200038c565b9150509295985092959850929598565b600060208284031215620004cd57620004cc6200074b565b5b6000620004dd848285016200038c565b91505092915050565b620004f18162000681565b82525050565b6200050281620006bf565b82525050565b6200051381620006d3565b82525050565b6200052481620006e7565b82525050565b6200053581620006fb565b82525050565b62000546816200070f565b82525050565b6200055781620006b5565b82525050565b6000602082019050620005746000830184620004e6565b92915050565b600060208201905062000591600083018462000508565b92915050565b600061014082019050620005af600083018d6200052a565b620005be602083018c620004f7565b620005cd604083018b62000519565b620005dc606083018a6200054c565b620005eb60808301896200054c565b620005fa60a08301886200054c565b6200060960c08301876200054c565b6200061860e08301866200054c565b620006286101008301856200054c565b620006386101208301846200054c565b9b9a5050505050505050505050565b60006020820190506200065e60008301846200053b565b92915050565b60006020820190506200067b60008301846200054c565b92915050565b60006200068e8262000695565b9050919050565b600073ffffffffffffffffffffffffffffffffffffffff82169050919050565b6000819050919050565b6000620006cc8262000723565b9050919050565b6000620006e08262000723565b9050919050565b6000620006f48262000723565b9050919050565b6000620007088262000723565b9050919050565b60006200071c8262000723565b9050919050565b6000620007308262000737565b9050919050565b6000620007448262000695565b9050919050565b600080fd5b6200075b8162000681565b81146200076757600080fd5b50565b6200077581620006b5565b81146200078157600080fd5b5056fe6080604052606460095569d3c21bcecceda1000000600c553480156200002457600080fd5b50604051620042c7380380620042c783398181016040528101906200004a9190620001ea565b88600160006101000a81548173ffffffffffffffffffffffffffffffffffffffff021916908373ffffffffffffffffffffffffffffffffffffffff16021790555033600260006101000a81548173ffffffffffffffffffffffffffffffffffffffff021916908373ffffffffffffffffffffffffffffffffffffffff1602179055508660038190555085600481905550846008819055508360078190555087600560006101000a81548173ffffffffffffffffffffffffffffffffffffffff021916908373ffffffffffffffffffffffffffffffffffffffff16021790555082600681905550896000806101000a81548173ffffffffffffffffffffffffffffffffffffffff021916908373ffffffffffffffffffffffffffffffffffffffff16021790555081600a8190555080600b8190555050505050505050505050620003c7565b6000815190506200019f816200035f565b92915050565b600081519050620001b68162000379565b92915050565b600081519050620001cd8162000393565b92915050565b600081519050620001e481620003ad565b92915050565b6000806000806000806000806000806101408b8d0312156200021157620002106200035a565b5b6000620002218d828e01620001bc565b9a50506020620002348d828e016200018e565b9950506040620002478d828e01620001a5565b98505060606200025a8d828e01620001d3565b97505060806200026d8d828e01620001d3565b96505060a0620002808d828e01620001d3565b95505060c0620002938d828e01620001d3565b94505060e0620002a68d828e01620001d3565b935050610100620002ba8d828e01620001d3565b925050610120620002ce8d828e01620001d3565b9150509295989b9194979a5092959850565b6000620002ed8262000330565b9050919050565b60006200030182620002e0565b9050919050565b60006200031582620002e0565b9050919050565b60006200032982620002e0565b9050919050565b600073ffffffffffffffffffffffffffffffffffffffff82169050919050565b6000819050919050565b600080fd5b6200036a81620002f4565b81146200037657600080fd5b50565b620003848162000308565b81146200039057600080fd5b50565b6200039e816200031c565b8114620003aa57600080fd5b50565b620003b88162000350565b8114620003c457600080fd5b50565b613ef080620003d76000396000f3fe6080604052600436106101e35760003560e01c80637b836a2b11610102578063c816841b11610095578063ef78d4fd11610064578063ef78d4fd14610760578063f27da3ac1461078b578063fc950702146107c8578063ff5c86b0146107e4576101e3565b8063c816841b146106b1578063c84993af146106dc578063da68cf8b14610719578063ec77fe1114610744576101e3565b806395333194116100d157806395333194146105e7578063a10340bc14610603578063ba9d1d6814610649578063c45a015514610686576101e3565b80637b836a2b146105385780637d6ae6a0146105545780637e9966391461059157806389da88a3146105bc576101e3565b806342d3da1d1161017a578063527eb4bc11610149578063527eb4bc1461046857806354bc7f6c146104935780635b3ad63e146104d05780637358c57a1461050d576101e3565b806342d3da1d1461039857806345084775146103d5578063499a0fc4146104005780634f3ab71f1461042b576101e3565b806331cf77b4116101b657806331cf77b4146102c85780633d09a82a146103055780633d7a7eac14610330578063410f07101461036d576101e3565b8063050e8840146101e85780630cbcff8f1461022557806318ff0e07146102625780632a0efd441461029f575b600080fd5b3480156101f457600080fd5b5061020f600480360381019061020a9190612fae565b61080f565b60405161021c9190613781565b60405180910390f35b34801561023157600080fd5b5061024c60048036038101906102479190612fae565b610833565b6040516102599190613781565b60405180910390f35b34801561026e57600080fd5b5061028960048036038101906102849190612fae565b6109ee565b6040516102969190613781565b60405180910390f35b3480156102ab57600080fd5b506102c660048036038101906102c19190612fae565b610a46565b005b3480156102d457600080fd5b506102ef60048036038101906102ea9190613008565b610bf7565b6040516102fc9190613781565b60405180910390f35b34801561031157600080fd5b5061031a610c2f565b6040516103279190613781565b60405180910390f35b34801561033c57600080fd5b50610357600480360381019061035291906130ee565b610c35565b6040516103649190613781565b60405180910390f35b34801561037957600080fd5b50610382610d9b565b60405161038f9190613781565b60405180910390f35b3480156103a457600080fd5b506103bf60048036038101906103ba9190613008565b610da1565b6040516103cc919061375f565b60405180910390f35b3480156103e157600080fd5b506103ea610ef1565b6040516103f791906134c1565b60405180910390f35b34801561040c57600080fd5b50610415610f17565b6040516104229190613781565b60405180910390f35b34801561043757600080fd5b50610452600480360381019061044d9190613048565b610f1d565b60405161045f9190613781565b60405180910390f35b34801561047457600080fd5b5061047d61102c565b60405161048a9190613781565b60405180910390f35b34801561049f57600080fd5b506104ba60048036038101906104b59190612fae565b611032565b6040516104c79190613781565b60405180910390f35b3480156104dc57600080fd5b506104f760048036038101906104f29190612fae565b611055565b6040516105049190613781565b60405180910390f35b34801561051957600080fd5b506105226110ad565b60405161052f9190613781565b60405180910390f35b610552600480360381019061054d9190612fae565b6110b3565b005b34801561056057600080fd5b5061057b60048036038101906105769190612fae565b61141e565b6040516105889190613781565b60405180910390f35b34801561059d57600080fd5b506105a6611461565b6040516105b39190613781565b60405180910390f35b3480156105c857600080fd5b506105d1611467565b6040516105de9190613781565b60405180910390f35b61060160048036038101906105fc919061309b565b611474565b005b34801561060f57600080fd5b5061062a60048036038101906106259190612fae565b611d3e565b6040516106409a9998979695949392919061379c565b60405180910390f35b34801561065557600080fd5b50610670600480360381019061066b9190613008565b611d9f565b60405161067d91906134a6565b60405180910390f35b34801561069257600080fd5b5061069b611e4d565b6040516106a891906135c4565b60405180910390f35b3480156106bd57600080fd5b506106c6611e71565b6040516106d391906135a9565b60405180910390f35b3480156106e857600080fd5b5061070360048036038101906106fe9190612fae565b611e97565b6040516107109190613781565b60405180910390f35b34801561072557600080fd5b5061072e611eb7565b60405161073b919061358e565b60405180910390f35b61075e6004803603810190610759919061309b565b611edd565b005b34801561076c57600080fd5b5061077561254b565b6040516107829190613781565b60405180910390f35b34801561079757600080fd5b506107b260048036038101906107ad9190613008565b612551565b6040516107bf9190613781565b60405180910390f35b6107e260048036038101906107dd9190612fae565b61258e565b005b3480156107f057600080fd5b506107f9612c6b565b6040516108069190613781565b60405180910390f35b600e818154811061081f57600080fd5b906000526020600020016000915090505481565b600060045482101561087a576040517f08c379a00000000000000000000000000000000000000000000000000000000081526004016108719061367f565b60405180910390fd5b600061088583611055565b90506000600381111561089b5761089a613bd8565b5b600d600083815260200190815260200160002060010160009054906101000a900460ff1660038111156108d1576108d0613bd8565b5b146108df57809150506109e9565b6108e842611055565b81101561092a576040517f08c379a00000000000000000000000000000000000000000000000000000000081526004016109219061361f565b60405180910390fd5b80600d6000838152602001908152602001600020600001819055506001600d600083815260200190815260200160002060010160006101000a81548160ff0219169083600381111561097f5761097e613bd8565b5b0217905550600e8190806001815401808255809150506001900390600052602060002001600090919091909150557f163614e6e9ce9df7687928015fd2c748b69c5136db886e57f09170b251b58e87816040516109dc9190613781565b60405180910390a1809150505b919050565b6000808211610a01576006549050610a41565b610a3e600654610a30600654610a2260065487612c7190919063ffffffff16565b612c8790919063ffffffff16565b612c9d90919063ffffffff16565b90505b919050565b6000610a5142611055565b905043600d600083815260200190815260200160002060090181905550610a97600a54610a8960035484612c9d90919063ffffffff16565b612cb390919063ffffffff16565b4210158015610abc57506000600d600083815260200190815260200160002060040154145b15610b335781600d60008381526020019081526020016000206004018190555042600d6000838152602001908152602001600020600701819055507f163614e6e9ce9df7687928015fd2c748b69c5136db886e57f09170b251b58e8781604051610b269190613781565b60405180910390a1610bf3565b610b4860035482612c9d90919063ffffffff16565b4211158015610b7f5750610b7b600a54610b6d60035484612c9d90919063ffffffff16565b612cb390919063ffffffff16565b4210155b15610bf25781600d60008381526020019081526020016000206005018190555042600d6000838152602001908152602001600020600801819055507f163614e6e9ce9df7687928015fd2c748b69c5136db886e57f09170b251b58e8781604051610be99190613781565b60405180910390a15b5b5050565b6000600d6000848152602001908152602001600020600a01600083815260200190815260200160002060010180549050905092915050565b600b5481565b600080610c41856109ee565b90506000610c60610c5185611055565b85612cb390919063ffffffff16565b90506000610c8d600354610c7f84600c54612c8790919063ffffffff16565b612c7190919063ffffffff16565b90506000610c9a8961141e565b90506000610cda82610ccc620186a0610cbe6008548d612c8790919063ffffffff16565b612c7190919063ffffffff16565b612c8790919063ffffffff16565b90506000610d08620186a0610cfa6008548c612c8790919063ffffffff16565b612c7190919063ffffffff16565b9050610d31600c54610d238684612c8790919063ffffffff16565b612c7190919063ffffffff16565b9050610d468183612c9d90919063ffffffff16565b91506000610d8783600d60008f8152602001908152602001600020600a0160008a815260200190815260200160002060020154612c9d90919063ffffffff16565b905080975050505050505050949350505050565b60075481565b610da9612e80565b600d6000848152602001908152602001600020600a0160008381526020019081526020016000206040518060800160405290816000820154815260200160018201805480602002602001604051908101604052809291908181526020016000905b82821015610e9c57838290600052602060002090600202016040518060400160405290816000820160009054906101000a900473ffffffffffffffffffffffffffffffffffffffff1673ffffffffffffffffffffffffffffffffffffffff1673ffffffffffffffffffffffffffffffffffffffff16815260200160018201548152505081526020019060010190610e0a565b505050508152602001600282015481526020016003820160009054906101000a900460ff166002811115610ed357610ed2613bd8565b5b6002811115610ee557610ee4613bd8565b5b81525050905092915050565b600260009054906101000a900473ffffffffffffffffffffffffffffffffffffffff1681565b60065481565b60005b610f2a8484610bf7565b811015610fea578173ffffffffffffffffffffffffffffffffffffffff16600d6000868152602001908152602001600020600a0160008581526020019081526020016000206001018281548110610f8457610f83613c07565b5b906000526020600020906002020160000160009054906101000a900473ffffffffffffffffffffffffffffffffffffffff1673ffffffffffffffffffffffffffffffffffffffff161415610fd757611025565b8080610fe290613b00565b915050610f20565b6040517f08c379a000000000000000000000000000000000000000000000000000000000815260040161101c9061373f565b60405180910390fd5b9392505050565b60095481565b6000600d6000838152602001908152602001600020600b01805490509050919050565b6000600454821161106a5760045490506110a8565b6110a561109660035461108860045486612cb390919063ffffffff16565b612cc990919063ffffffff16565b83612cb390919063ffffffff16565b90505b919050565b60045481565b600260038111156110c7576110c6613bd8565b5b600d600083815260200190815260200160002060010160009054906101000a900460ff1660038111156110fd576110fc613bd8565b5b1461113d576040517f08c379a00000000000000000000000000000000000000000000000000000000081526004016111349061369f565b60405180910390fd5b600061115e600d6000848152602001908152602001600020600201546109ee565b90506000600d6000848152602001908152602001600020600a0160008381526020019081526020016000206040518060800160405290816000820154815260200160018201805480602002602001604051908101604052809291908181526020016000905b8282101561125557838290600052602060002090600202016040518060400160405290816000820160009054906101000a900473ffffffffffffffffffffffffffffffffffffffff1673ffffffffffffffffffffffffffffffffffffffff1673ffffffffffffffffffffffffffffffffffffffff168152602001600182015481525050815260200190600101906111c3565b505050508152602001600282015481526020016003820160009054906101000a900460ff16600281111561128c5761128b613bd8565b5b600281111561129e5761129d613bd8565b5b8152505090506002808111156112b7576112b6613bd8565b5b816060015160028111156112ce576112cd613bd8565b5b141561130f576040517f08c379a0000000000000000000000000000000000000000000000000000000008152600401611306906136bf565b60405180910390fd5b600061131b8484610bf7565b9050600160009054906101000a900473ffffffffffffffffffffffffffffffffffffffff1673ffffffffffffffffffffffffffffffffffffffff1663a9059cbb8360200151611374600185612cb390919063ffffffff16565b8151811061138557611384613c07565b5b602002602001015160000151600d6000888152602001908152602001600020600301546040518363ffffffff1660e01b81526004016113c59291906134dc565b602060405180830381600087803b1580156113df57600080fd5b505af11580156113f3573d6000803e3d6000fd5b505050506040513d601f19601f820116820180604052508101906114179190612f81565b5050505050565b600061145a600161144c60035461143e4287612cb390919063ffffffff16565b612c7190919063ffffffff16565b612c9d90919063ffffffff16565b9050919050565b60085481565b6000600e80549050905090565b8060006114a1620186a061149360085485612c8790919063ffffffff16565b612c7190919063ffffffff16565b9050600b548110156114e8576040517f08c379a00000000000000000000000000000000000000000000000000000000081526004016114df9061363f565b60405180910390fd5b60006114f386610833565b905060006115018287612cdf565b905061150d8282611d9f565b73ffffffffffffffffffffffffffffffffffffffff163373ffffffffffffffffffffffffffffffffffffffff16141561157b576040517f08c379a0000000000000000000000000000000000000000000000000000000008152600401611572906136df565b60405180910390fd5b600061159861158942611055565b42612cb390919063ffffffff16565b905060006115c56003546115b784600c54612c8790919063ffffffff16565b612c7190919063ffffffff16565b90506000611619600c5461160b846115fd620186a06115ef6008548f612c8790919063ffffffff16565b612c7190919063ffffffff16565b612c8790919063ffffffff16565b612c7190919063ffffffff16565b905060006116268b61141e565b9050600061166682611658620186a061164a6008548f612c8790919063ffffffff16565b612c7190919063ffffffff16565b612c8790919063ffffffff16565b905061167b8382612c9d90919063ffffffff16565b90506116ba81600d60008a8152602001908152602001600020600a01600089815260200190815260200160002060020154612c9d90919063ffffffff16565b600160009054906101000a900473ffffffffffffffffffffffffffffffffffffffff1673ffffffffffffffffffffffffffffffffffffffff1663dd62ed3e33306040518363ffffffff1660e01b8152600401611717929190613505565b60206040518083038186803b15801561172f57600080fd5b505afa158015611743573d6000803e3d6000fd5b505050506040513d601f19601f820116820180604052508101906117679190612fdb565b10156117a8576040517f08c379a000000000000000000000000000000000000000000000000000000000815260040161179f906136ff565b60405180910390fd5b600160009054906101000a900473ffffffffffffffffffffffffffffffffffffffff1673ffffffffffffffffffffffffffffffffffffffff166323b872dd333061182585600d60008e8152602001908152602001600020600a0160008d815260200190815260200160002060020154612c9d90919063ffffffff16565b6040518463ffffffff1660e01b81526004016118439392919061352e565b602060405180830381600087803b15801561185d57600080fd5b505af1158015611871573d6000803e3d6000fd5b505050506040513d601f19601f820116820180604052508101906118959190612f81565b506118bf81600d60008a815260200190815260200160002060030154612c9d90919063ffffffff16565b600d600089815260200190815260200160002060030181905550600160028111156118ed576118ec613bd8565b5b600d6000898152602001908152602001600020600a01600088815260200190815260200160002060030160009054906101000a900460ff16600281111561193757611936613bd8565b5b1415611bdd576000600d6000898152602001908152602001600020600a01600088815260200190815260200160002060020154905060006119be600c546119b0886119a2620186a061199460085489612c8790919063ffffffff16565b612c7190919063ffffffff16565b612c8790919063ffffffff16565b612c7190919063ffffffff16565b905060006119fe856119f0620186a06119e260085488612c8790919063ffffffff16565b612c7190919063ffffffff16565b612c8790919063ffffffff16565b9050611a138282612c9d90919063ffffffff16565b90506000611a54600d60008d8152602001908152602001600020600a0160008c81526020019081526020016000206002015483612c9d90919063ffffffff16565b90506000611a756001611a678e8e610bf7565b612cb390919063ffffffff16565b9050600160009054906101000a900473ffffffffffffffffffffffffffffffffffffffff1673ffffffffffffffffffffffffffffffffffffffff1663a9059cbb600d60008f8152602001908152602001600020600a0160008e81526020019081526020016000206001018381548110611af157611af0613c07565b5b906000526020600020906002020160000160009054906101000a900473ffffffffffffffffffffffffffffffffffffffff16846040518363ffffffff1660e01b8152600401611b419291906134dc565b602060405180830381600087803b158015611b5b57600080fd5b505af1158015611b6f573d6000803e3d6000fd5b505050506040513d601f19601f82011682018060405250810190611b939190612f81565b50611bbd83600d60008f815260200190815260200160002060030154612cb390919063ffffffff16565b600d60008e81526020019081526020016000206003018190555050505050505b600d6000888152602001908152602001600020600a01600087815260200190815260200160002060010160405180604001604052803373ffffffffffffffffffffffffffffffffffffffff16815260200143815250908060018154018082558091505060019003906000526020600020906002020160009091909190915060008201518160000160006101000a81548173ffffffffffffffffffffffffffffffffffffffff021916908373ffffffffffffffffffffffffffffffffffffffff1602179055506020820151816001015550506001600d6000898152602001908152602001600020600a01600088815260200190815260200160002060030160006101000a81548160ff02191690836002811115611cfc57611cfb613bd8565b5b021790555089600d6000898152602001908152602001600020600a01600088815260200190815260200160002060020181905550505050505050505050505050565b600d6020528060005260406000206000915090508060000154908060010160009054906101000a900460ff1690806002015490806003015490806004015490806005015490806006015490806007015490806008015490806009015490508a565b600080611dac8484610bf7565b1415611dba57309050611e47565b600d6000848152602001908152602001600020600a016000838152602001908152602001600020600101611e016001611df38686610bf7565b612cb390919063ffffffff16565b81548110611e1257611e11613c07565b5b906000526020600020906002020160000160009054906101000a900473ffffffffffffffffffffffffffffffffffffffff1690505b92915050565b60008054906101000a900473ffffffffffffffffffffffffffffffffffffffff1681565b600560009054906101000a900473ffffffffffffffffffffffffffffffffffffffff1681565b6000600d6000838152602001908152602001600020600301549050919050565b600160009054906101000a900473ffffffffffffffffffffffffffffffffffffffff1681565b806000611f0a620186a0611efc60085485612c8790919063ffffffff16565b612c7190919063ffffffff16565b9050600b54811015611f51576040517f08c379a0000000000000000000000000000000000000000000000000000000008152600401611f489061363f565b60405180910390fd5b6000611f5c86610833565b90506000611f6a8287612cdf565b90503373ffffffffffffffffffffffffffffffffffffffff16611f8d8383611d9f565b73ffffffffffffffffffffffffffffffffffffffff1614611fe3576040517f08c379a0000000000000000000000000000000000000000000000000000000008152600401611fda9061365f565b60405180910390fd5b6000611fee8861141e565b9050600061200d611ffe42611055565b42612cb390919063ffffffff16565b9050600061203a60035461202c84600c54612c8790919063ffffffff16565b612c7190919063ffffffff16565b9050600061207a8261206c620186a061205e6008548e612c8790919063ffffffff16565b612c7190919063ffffffff16565b612c8790919063ffffffff16565b9050612091600c5482612c7190919063ffffffff16565b905060006120bf620186a06120b16008548d612c8790919063ffffffff16565b612c7190919063ffffffff16565b90506120d48582612c8790919063ffffffff16565b90506120e98282612c9d90919063ffffffff16565b90506000600d6000898152602001908152602001600020600a01600088815260200190815260200160002060020154905061216a600c5461215c8661214e620186a061214060085488612c8790919063ffffffff16565b612c7190919063ffffffff16565b612c8790919063ffffffff16565b612c7190919063ffffffff16565b92506000612198620186a061218a6008548f612c8790919063ffffffff16565b612c7190919063ffffffff16565b90506121ad8782612c8790919063ffffffff16565b90506121c28482612c9d90919063ffffffff16565b9050808311156123eb576121df8184612cb390919063ffffffff16565b600160009054906101000a900473ffffffffffffffffffffffffffffffffffffffff1673ffffffffffffffffffffffffffffffffffffffff1663dd62ed3e33306040518363ffffffff1660e01b815260040161223c929190613505565b60206040518083038186803b15801561225457600080fd5b505afa158015612268573d6000803e3d6000fd5b505050506040513d601f19601f8201168201806040525081019061228c9190612fdb565b10156122cd576040517f08c379a00000000000000000000000000000000000000000000000000000000081526004016122c4906136ff565b60405180910390fd5b600160009054906101000a900473ffffffffffffffffffffffffffffffffffffffff1673ffffffffffffffffffffffffffffffffffffffff166323b872dd33306123208588612cb390919063ffffffff16565b6040518463ffffffff1660e01b815260040161233e9392919061352e565b602060405180830381600087803b15801561235857600080fd5b505af115801561236c573d6000803e3d6000fd5b505050506040513d601f19601f820116820180604052508101906123909190612f81565b506123cc6123a78285612cb390919063ffffffff16565b600d60008c815260200190815260200160002060030154612c9d90919063ffffffff16565b600d60008b81526020019081526020016000206003018190555061250c565b8083101561250b57600160009054906101000a900473ffffffffffffffffffffffffffffffffffffffff1673ffffffffffffffffffffffffffffffffffffffff1663a9059cbb336124458685612cb390919063ffffffff16565b6040518363ffffffff1660e01b8152600401612462929190613565565b602060405180830381600087803b15801561247c57600080fd5b505af1158015612490573d6000803e3d6000fd5b505050506040513d601f19601f820116820180604052508101906124b49190612f81565b506124f06124cb8483612cb390919063ffffffff16565b600d60008c815260200190815260200160002060030154612cb390919063ffffffff16565b600d60008b8152602001908152602001600020600301819055505b5b8b600d60008b8152602001908152602001600020600a0160008a8152602001908152602001600020600201819055505050505050505050505050505050565b60035481565b6000600d6000848152602001908152602001600020600b01828154811061257b5761257a613c07565b5b9060005260206000200154905092915050565b600160038111156125a2576125a1613bd8565b5b600d600083815260200190815260200160002060010160009054906101000a900460ff1660038111156125d8576125d7613bd8565b5b14612618576040517f08c379a000000000000000000000000000000000000000000000000000000000815260040161260f906135ff565b60405180910390fd5b4261262e60035483612c9d90919063ffffffff16565b111561266f576040517f08c379a0000000000000000000000000000000000000000000000000000000008152600401612666906135df565b60405180910390fd5b6000600d6000838152602001908152602001600020600401541115806126ac57506000600d60008381526020019081526020016000206005015411155b156126f1576003600d600083815260200190815260200160002060010160006101000a81548160ff021916908360038111156126eb576126ea613bd8565b5b02179055505b600d600082815260200190815260200160002060050154600d6000838152602001908152602001600020600401541415612765576003600d600083815260200190815260200160002060010160006101000a81548160ff0219169083600381111561275f5761275e613bd8565b5b02179055505b6002600d600083815260200190815260200160002060010160006101000a81548160ff0219169083600381111561279f5761279e613bd8565b5b021790555060006127e5600d600084815260200190815260200160002060040154600d600085815260200190815260200160002060050154612cb390919063ffffffff16565b90506000612828600d600085815260200190815260200160002060070154600d600086815260200190815260200160002060080154612cb390919063ffffffff16565b90506128606040518060200160405280847bffffffffffffffffffffffffffffffffffffffffffffffffffffffff1681525082612dd0565b600001517bffffffffffffffffffffffffffffffffffffffffffffffffffffffff16600d6000858152602001908152602001600020600201819055506128de7406d79f82328ea3da61e066ebb2f88a0000000000006070600d600087815260200190815260200160002060020154901b612c7190919063ffffffff16565b61290d600c546070600d600088815260200190815260200160002060020154901c612c8790919063ffffffff16565b6129179190613882565b600d6000858152602001908152602001600020600201819055506000612973620186a0612965600754600d600089815260200190815260200160002060030154612c8790919063ffffffff16565b612c7190919063ffffffff16565b905060006129b7620186a06129a9600954600d60008a815260200190815260200160002060030154612c8790919063ffffffff16565b612c7190919063ffffffff16565b90506129f4816129e684600d60008a815260200190815260200160002060030154612cb390919063ffffffff16565b612cb390919063ffffffff16565b600d600087815260200190815260200160002060030181905550600160009054906101000a900473ffffffffffffffffffffffffffffffffffffffff1673ffffffffffffffffffffffffffffffffffffffff1663a9059cbb600260009054906101000a900473ffffffffffffffffffffffffffffffffffffffff16846040518363ffffffff1660e01b8152600401612a8d9291906134dc565b602060405180830381600087803b158015612aa757600080fd5b505af1158015612abb573d6000803e3d6000fd5b505050506040513d601f19601f82011682018060405250810190612adf9190612f81565b50600160009054906101000a900473ffffffffffffffffffffffffffffffffffffffff1673ffffffffffffffffffffffffffffffffffffffff1663a9059cbb60008054906101000a900473ffffffffffffffffffffffffffffffffffffffff1673ffffffffffffffffffffffffffffffffffffffff16638da5cb5b6040518163ffffffff1660e01b815260040160206040518083038186803b158015612b8457600080fd5b505afa158015612b98573d6000803e3d6000fd5b505050506040513d601f19601f82011682018060405250810190612bbc9190612f54565b836040518363ffffffff1660e01b8152600401612bda929190613565565b602060405180830381600087803b158015612bf457600080fd5b505af1158015612c08573d6000803e3d6000fd5b505050506040513d601f19601f82011682018060405250810190612c2c9190612f81565b507f163614e6e9ce9df7687928015fd2c748b69c5136db886e57f09170b251b58e8785604051612c5c9190613781565b60405180910390a15050505050565b600a5481565b60008183612c7f9190613909565b905092915050565b60008183612c95919061393a565b905092915050565b60008183612cab9190613882565b905092915050565b60008183612cc19190613994565b905092915050565b60008183612cd79190613b49565b905092915050565b600080612ceb836109ee565b905060006002811115612d0157612d00613bd8565b5b600d6000868152602001908152602001600020600a01600083815260200190815260200160002060030160009054906101000a900460ff166002811115612d4b57612d4a613bd8565b5b14612d595780915050612dca565b80600d6000868152602001908152602001600020600a01600083815260200190815260200160002060000181905550600d6000858152602001908152602001600020600b01819080600181540180825580915050600190039060005260206000200160009091909190915055809150505b92915050565b612dd8612eba565b6000826dffffffffffffffffffffffffffff161415612e2c576040517f08c379a0000000000000000000000000000000000000000000000000000000008152600401612e239061371f565b60405180910390fd5b6040518060200160405280836dffffffffffffffffffffffffffff168560000151612e5791906138d8565b7bffffffffffffffffffffffffffffffffffffffffffffffffffffffff16815250905092915050565b604051806080016040528060008152602001606081526020016000815260200160006002811115612eb457612eb3613bd8565b5b81525090565b604051806020016040528060007bffffffffffffffffffffffffffffffffffffffffffffffffffffffff1681525090565b600081359050612efa81613e75565b92915050565b600081519050612f0f81613e75565b92915050565b600081519050612f2481613e8c565b92915050565b600081359050612f3981613ea3565b92915050565b600081519050612f4e81613ea3565b92915050565b600060208284031215612f6a57612f69613c36565b5b6000612f7884828501612f00565b91505092915050565b600060208284031215612f9757612f96613c36565b5b6000612fa584828501612f15565b91505092915050565b600060208284031215612fc457612fc3613c36565b5b6000612fd284828501612f2a565b91505092915050565b600060208284031215612ff157612ff0613c36565b5b6000612fff84828501612f3f565b91505092915050565b6000806040838503121561301f5761301e613c36565b5b600061302d85828601612f2a565b925050602061303e85828601612f2a565b9150509250929050565b60008060006060848603121561306157613060613c36565b5b600061306f86828701612f2a565b935050602061308086828701612f2a565b925050604061309186828701612eeb565b9150509250925092565b6000806000606084860312156130b4576130b3613c36565b5b60006130c286828701612f2a565b93505060206130d386828701612f2a565b92505060406130e486828701612f2a565b9150509250925092565b6000806000806080858703121561310857613107613c36565b5b600061311687828801612f2a565b945050602061312787828801612f2a565b935050604061313887828801612f2a565b925050606061314987828801612f2a565b91505092959194509250565b600061316183836133f6565b60408301905092915050565b61317681613a70565b82525050565b613185816139da565b82525050565b613194816139da565b82525050565b6131a3816139c8565b82525050565b60006131b482613848565b6131be8185613860565b93506131c983613838565b8060005b838110156131fa5781516131e18882613155565b97506131ec83613853565b9250506001810190506131cd565b5085935050505092915050565b61321081613a82565b82525050565b61321f81613a94565b82525050565b61322e81613aa6565b82525050565b61323d81613ab8565b82525050565b61324c81613aca565b82525050565b600061325f601a83613871565b915061326a82613c3b565b602082019050919050565b6000613282601083613871565b915061328d82613c64565b602082019050919050565b60006132a5601a83613871565b91506132b082613c8d565b602082019050919050565b60006132c8601083613871565b91506132d382613cb6565b602082019050919050565b60006132eb601d83613871565b91506132f682613cdf565b602082019050919050565b600061330e602c83613871565b915061331982613d08565b604082019050919050565b6000613331601083613871565b915061333c82613d57565b602082019050919050565b6000613354601683613871565b915061335f82613d80565b602082019050919050565b6000613377601f83613871565b915061338282613da9565b602082019050919050565b600061339a601c83613871565b91506133a582613dd2565b602082019050919050565b60006133bd601783613871565b91506133c882613dfb565b602082019050919050565b60006133e0601483613871565b91506133eb82613e24565b602082019050919050565b60408201600082015161340c600085018261317c565b50602082015161341f6020850182613488565b50505050565b600060808301600083015161343d6000860182613488565b506020830151848203602086015261345582826131a9565b915050604083015161346a6040860182613488565b50606083015161347d6060860182613243565b508091505092915050565b61349181613a66565b82525050565b6134a081613a66565b82525050565b60006020820190506134bb600083018461319a565b92915050565b60006020820190506134d6600083018461318b565b92915050565b60006040820190506134f1600083018561316d565b6134fe6020830184613497565b9392505050565b600060408201905061351a600083018561319a565b613527602083018461319a565b9392505050565b6000606082019050613543600083018661319a565b613550602083018561319a565b61355d6040830184613497565b949350505050565b600060408201905061357a600083018561319a565b6135876020830184613497565b9392505050565b60006020820190506135a36000830184613207565b92915050565b60006020820190506135be6000830184613216565b92915050565b60006020820190506135d96000830184613225565b92915050565b600060208201905081810360008301526135f881613252565b9050919050565b6000602082019050818103600083015261361881613275565b9050919050565b6000602082019050818103600083015261363881613298565b9050919050565b60006020820190508181036000830152613658816132bb565b9050919050565b60006020820190508181036000830152613678816132de565b9050919050565b6000602082019050818103600083015261369881613301565b9050919050565b600060208201905081810360008301526136b881613324565b9050919050565b600060208201905081810360008301526136d881613347565b9050919050565b600060208201905081810360008301526136f88161336a565b9050919050565b600060208201905081810360008301526137188161338d565b9050919050565b60006020820190508181036000830152613738816133b0565b9050919050565b60006020820190508181036000830152613758816133d3565b9050919050565b600060208201905081810360008301526137798184613425565b905092915050565b60006020820190506137966000830184613497565b92915050565b6000610140820190506137b2600083018d613497565b6137bf602083018c613234565b6137cc604083018b613497565b6137d9606083018a613497565b6137e66080830189613497565b6137f360a0830188613497565b61380060c0830187613497565b61380d60e0830186613497565b61381b610100830185613497565b613829610120830184613497565b9b9a5050505050505050505050565b6000819050602082019050919050565b600081519050919050565b6000602082019050919050565b600082825260208201905092915050565b600082825260208201905092915050565b600061388d82613a66565b915061389883613a66565b9250827fffffffffffffffffffffffffffffffffffffffffffffffffffffffffffffffff038211156138cd576138cc613b7a565b5b828201905092915050565b60006138e382613a3e565b91506138ee83613a3e565b9250826138fe576138fd613ba9565b5b828204905092915050565b600061391482613a66565b915061391f83613a66565b92508261392f5761392e613ba9565b5b828204905092915050565b600061394582613a66565b915061395083613a66565b9250817fffffffffffffffffffffffffffffffffffffffffffffffffffffffffffffffff048311821515161561398957613988613b7a565b5b828202905092915050565b600061399f82613a66565b91506139aa83613a66565b9250828210156139bd576139bc613b7a565b5b828203905092915050565b60006139d382613a1e565b9050919050565b60006139e582613a1e565b9050919050565b60008115159050919050565b6000819050613a0682613e4d565b919050565b6000819050613a1982613e61565b919050565b600073ffffffffffffffffffffffffffffffffffffffff82169050919050565b60007bffffffffffffffffffffffffffffffffffffffffffffffffffffffff82169050919050565b6000819050919050565b6000613a7b82613adc565b9050919050565b6000613a8d82613adc565b9050919050565b6000613a9f82613adc565b9050919050565b6000613ab182613adc565b9050919050565b6000613ac3826139f8565b9050919050565b6000613ad582613a0b565b9050919050565b6000613ae782613aee565b9050919050565b6000613af982613a1e565b9050919050565b6000613b0b82613a66565b91507fffffffffffffffffffffffffffffffffffffffffffffffffffffffffffffffff821415613b3e57613b3d613b7a565b5b600182019050919050565b6000613b5482613a66565b9150613b5f83613a66565b925082613b6f57613b6e613ba9565b5b828206905092915050565b7f4e487b7100000000000000000000000000000000000000000000000000000000600052601160045260246000fd5b7f4e487b7100000000000000000000000000000000000000000000000000000000600052601260045260246000fd5b7f4e487b7100000000000000000000000000000000000000000000000000000000600052602160045260246000fd5b7f4e487b7100000000000000000000000000000000000000000000000000000000600052603260045260246000fd5b600080fd5b7f4652414d4520454e442054494d45204e4f542052454143484544000000000000600082015250565b7f4652414d45204e4f54204f50454e454400000000000000000000000000000000600082015250565b7f43414e275420435245415445204652414d4520494e2050415354000000000000600082015250565b7f505249434520495320544f4f204c4f5700000000000000000000000000000000600082015250565b7f544849532041444452455353204953204e4f5420544845204f574e4552000000600082015250565b7f54494d455354414d50204245464f524520494e495449414c2054494d4553544160008201527f4d50204f46204d41524b45540000000000000000000000000000000000000000602082015250565b7f4652414d45204e4f5420434c4f53454400000000000000000000000000000000600082015250565b7f50415243454c20414c524541445920534554544c454400000000000000000000600082015250565b7f4144445245535320414c5245414459204f574e53205448452050415243454c00600082015250565b7f415050524f56454420414d4f554e5420495320544f4f20534d414c4c00000000600082015250565b7f4669786564506f696e743a204449565f42595f5a45524f000000000000000000600082015250565b7f4f574e455220444f4553204e4f54204558495354000000000000000000000000600082015250565b60048110613e5e57613e5d613bd8565b5b50565b60038110613e7257613e71613bd8565b5b50565b613e7e816139c8565b8114613e8957600080fd5b50565b613e95816139ec565b8114613ea057600080fd5b50565b613eac81613a66565b8114613eb757600080fd5b5056fea26469706673582212209a2eda3f42c9a79d4c01dd01d3f599e6b70b0358a23343d124ac0588dc5be75b64736f6c63430008070033a264697066735822122014c2c2e3ade85974d3b287a8a27d1bf0b870b9b175c1aee4f2dfcba43841f10f64736f6c63430008070033",
  "immutableReferences": {},
  "source": "// SPDX-License-Identifier: MIT\r\npragma solidity ^0.8.0;\r\n\r\nimport \"./Market.sol\";\r\nimport \"@uniswap/v2-core/contracts/interfaces/IUniswapV2Factory.sol\";\r\nimport \"@uniswap/v2-core/contracts/interfaces/IUniswapV2Pair.sol\";\r\nimport \"@openzeppelin/contracts/token/ERC20/IERC20.sol\";\r\n\r\ncontract MarketFactory {\r\n\r\n    IUniswapV2Factory public uniswapFactory;\r\n    mapping(address => Market) public markets;\r\n    address[] public marketsKeys;\r\n    address public owner;\r\n\r\n    constructor(address _uniswapFactory) {\r\n        owner = msg.sender;\r\n        uniswapFactory = IUniswapV2Factory(_uniswapFactory);\r\n    }\r\n\r\n    function addMarket(address _token, address _uniswapPair, uint _period, uint _initTimestamp, uint _tax, uint _fee, uint _dPrice, uint _tReporting, uint _minTax) external {\r\n        Market market = new Market(this, IERC20(_token), IUniswapV2Pair(_uniswapPair), _period, _initTimestamp, _tax, _fee, _dPrice, _tReporting, _minTax);\r\n        markets[address(market)] = market;\r\n        marketsKeys.push(address(market));\r\n    }\r\n\r\n    function getMarketsCount() public view returns (uint){\r\n        return marketsKeys.length;\r\n    }\r\n}\r\n",
  "sourcePath": "D:/prog/UniHedge/core/contracts/MarketFactory.sol",
  "compiler": {
    "name": "solc",
    "version": "0.8.7+commit.e28d00a7.Emscripten.clang"
  },
  "schemaVersion": "3.4.1",
  "updatedAt": "2021-08-31T20:23:07.501Z",
  "networkType": "ethereum",
  "devdoc": {
    "kind": "dev",
    "methods": {},
    "version": 1
  },
  "userdoc": {
    "kind": "user",
    "methods": {},
    "version": 1
  }
}