{
  "contractName": "Market",
  "abi": [
    {
      "inputs": [
        {
          "internalType": "contract MarketFactory",
          "name": "_factory",
          "type": "address"
        },
        {
          "internalType": "contract IERC20",
          "name": "_token",
          "type": "address"
        },
        {
          "internalType": "contract IUniswapV2Pair",
          "name": "_uniswapPair",
          "type": "address"
        },
        {
          "internalType": "uint256",
          "name": "_period",
          "type": "uint256"
        },
        {
          "internalType": "uint256",
          "name": "_initTimestamp",
          "type": "uint256"
        },
        {
          "internalType": "uint256",
          "name": "_taxMarket",
          "type": "uint256"
        },
        {
          "internalType": "uint256",
          "name": "_feeMarket",
          "type": "uint256"
        },
        {
          "internalType": "uint256",
          "name": "_dPrice",
          "type": "uint256"
        }
      ],
      "stateMutability": "nonpayable",
      "type": "constructor"
    },
    {
      "anonymous": false,
      "inputs": [
        {
          "indexed": false,
          "internalType": "uint256",
          "name": "frameKey",
          "type": "uint256"
        }
      ],
      "name": "FrameUpdate",
      "type": "event"
    },
    {
      "anonymous": false,
      "inputs": [
        {
          "indexed": false,
          "internalType": "uint256",
          "name": "frameKey",
          "type": "uint256"
        },
        {
          "indexed": false,
          "internalType": "uint256",
          "name": "parcelKey",
          "type": "uint256"
        }
      ],
      "name": "ParcelUpdate",
      "type": "event"
    },
    {
      "inputs": [],
      "name": "accountingToken",
      "outputs": [
        {
          "internalType": "contract IERC20",
          "name": "",
          "type": "address"
        }
      ],
      "stateMutability": "view",
      "type": "function"
    },
    {
      "inputs": [],
      "name": "dPrice",
      "outputs": [
        {
          "internalType": "uint256",
          "name": "",
          "type": "uint256"
        }
      ],
      "stateMutability": "view",
      "type": "function"
    },
    {
      "inputs": [],
      "name": "factory",
      "outputs": [
        {
          "internalType": "contract MarketFactory",
          "name": "",
          "type": "address"
        }
      ],
      "stateMutability": "view",
      "type": "function"
    },
    {
      "inputs": [],
      "name": "feeMarket",
      "outputs": [
        {
          "internalType": "uint256",
          "name": "",
          "type": "uint256"
        }
      ],
      "stateMutability": "view",
      "type": "function"
    },
    {
      "inputs": [],
      "name": "feeProtocol",
      "outputs": [
        {
          "internalType": "uint256",
          "name": "",
          "type": "uint256"
        }
      ],
      "stateMutability": "view",
      "type": "function"
    },
    {
      "inputs": [
        {
          "internalType": "uint256",
          "name": "",
          "type": "uint256"
        }
      ],
      "name": "frames",
      "outputs": [
        {
          "internalType": "uint256",
          "name": "frameKey",
          "type": "uint256"
        },
        {
          "internalType": "enum Market.SFrame",
          "name": "state",
          "type": "uint8"
        },
        {
          "internalType": "uint256",
          "name": "priceAverage",
          "type": "uint256"
        },
        {
          "internalType": "uint256",
          "name": "rewardFund",
          "type": "uint256"
        },
        {
          "internalType": "uint256",
          "name": "oraclePrice0CumulativeStart",
          "type": "uint256"
        },
        {
          "internalType": "uint256",
          "name": "oraclePrice0CumulativeEnd",
          "type": "uint256"
        },
        {
          "internalType": "uint256",
          "name": "price0CumulativeEnd",
          "type": "uint256"
        },
        {
          "internalType": "uint256",
          "name": "oracleTimestampStart",
          "type": "uint256"
        },
        {
          "internalType": "uint256",
          "name": "oracleTimestampEnd",
          "type": "uint256"
        },
        {
          "internalType": "uint256",
          "name": "lastBlockNum",
          "type": "uint256"
        }
      ],
      "stateMutability": "view",
      "type": "function"
    },
    {
      "inputs": [
        {
          "internalType": "uint256",
          "name": "",
          "type": "uint256"
        }
      ],
      "name": "framesKeys",
      "outputs": [
        {
          "internalType": "uint256",
          "name": "",
          "type": "uint256"
        }
      ],
      "stateMutability": "view",
      "type": "function"
    },
    {
      "inputs": [],
      "name": "initTimestamp",
      "outputs": [
        {
          "internalType": "uint256",
          "name": "",
          "type": "uint256"
        }
      ],
      "stateMutability": "view",
      "type": "function"
    },
    {
      "inputs": [],
      "name": "ownerMarket",
      "outputs": [
        {
          "internalType": "address payable",
          "name": "",
          "type": "address"
        }
      ],
      "stateMutability": "view",
      "type": "function"
    },
    {
      "inputs": [],
      "name": "period",
      "outputs": [
        {
          "internalType": "uint256",
          "name": "",
          "type": "uint256"
        }
      ],
      "stateMutability": "view",
      "type": "function"
    },
    {
      "inputs": [],
      "name": "taxMarket",
      "outputs": [
        {
          "internalType": "uint256",
          "name": "",
          "type": "uint256"
        }
      ],
      "stateMutability": "view",
      "type": "function"
    },
    {
      "inputs": [],
      "name": "uniswapPair",
      "outputs": [
        {
          "internalType": "contract IUniswapV2Pair",
          "name": "",
          "type": "address"
        }
      ],
      "stateMutability": "view",
      "type": "function"
    },
    {
      "inputs": [
        {
          "internalType": "uint256",
          "name": "timestamp",
          "type": "uint256"
        }
      ],
      "name": "getOrCreateFrame",
      "outputs": [
        {
          "internalType": "uint256",
          "name": "",
          "type": "uint256"
        }
      ],
      "stateMutability": "nonpayable",
      "type": "function"
    },
    {
      "inputs": [
        {
          "internalType": "uint256",
          "name": "timestamp",
          "type": "uint256"
        }
      ],
      "name": "clcFrameTimestamp",
      "outputs": [
        {
          "internalType": "uint256",
          "name": "",
          "type": "uint256"
        }
      ],
      "stateMutability": "view",
      "type": "function"
    },
    {
      "inputs": [
        {
          "internalType": "uint256",
          "name": "value",
          "type": "uint256"
        }
      ],
      "name": "clcParcelInterval",
      "outputs": [
        {
          "internalType": "uint256",
          "name": "",
          "type": "uint256"
        }
      ],
      "stateMutability": "view",
      "type": "function"
    },
    {
      "inputs": [
        {
          "internalType": "uint256",
          "name": "frameKey",
          "type": "uint256"
        }
      ],
      "name": "clcFramesLeft",
      "outputs": [
        {
          "internalType": "uint256",
          "name": "",
          "type": "uint256"
        }
      ],
      "stateMutability": "view",
      "type": "function"
    },
    {
      "inputs": [
        {
          "internalType": "uint256",
          "name": "frameKey",
          "type": "uint256"
        },
        {
          "internalType": "uint256",
          "name": "parcelKey",
          "type": "uint256"
        }
      ],
      "name": "getParcelPrice",
      "outputs": [
        {
          "internalType": "uint256",
          "name": "",
          "type": "uint256"
        }
      ],
      "stateMutability": "view",
      "type": "function"
    },
    {
      "inputs": [
        {
          "internalType": "uint256",
          "name": "frameKey",
          "type": "uint256"
        }
      ],
      "name": "getParcelsCount",
      "outputs": [
        {
          "internalType": "uint256",
          "name": "",
          "type": "uint256"
        }
      ],
      "stateMutability": "view",
      "type": "function"
    },
    {
      "inputs": [
        {
          "internalType": "uint256",
          "name": "frameKey",
          "type": "uint256"
        },
        {
          "internalType": "uint256",
          "name": "index",
          "type": "uint256"
        }
      ],
      "name": "getParcelKey",
      "outputs": [
        {
          "internalType": "uint256",
          "name": "",
          "type": "uint256"
        }
      ],
      "stateMutability": "view",
      "type": "function"
    },
    {
      "inputs": [
        {
          "internalType": "uint256",
          "name": "frameKey",
          "type": "uint256"
        },
        {
          "internalType": "uint256",
          "name": "parcelKey",
          "type": "uint256"
        }
      ],
      "name": "getParcelState",
      "outputs": [
        {
          "internalType": "enum Market.SParcel",
          "name": "",
          "type": "uint8"
        }
      ],
      "stateMutability": "view",
      "type": "function"
    },
    {
      "inputs": [
        {
          "internalType": "uint256",
          "name": "frameKey",
          "type": "uint256"
        },
        {
          "internalType": "uint256",
          "name": "parcelKey",
          "type": "uint256"
        }
      ],
      "name": "getParcelOwner",
      "outputs": [
        {
          "internalType": "address",
          "name": "",
          "type": "address"
        }
      ],
      "stateMutability": "view",
      "type": "function"
    },
    {
      "inputs": [],
      "name": "getApprovedAmount",
      "outputs": [
        {
          "internalType": "uint256",
          "name": "",
          "type": "uint256"
        }
      ],
      "stateMutability": "view",
      "type": "function"
    },
    {
      "inputs": [
        {
          "internalType": "uint256",
          "name": "frameKey",
          "type": "uint256"
        }
      ],
      "name": "getRewardAmount",
      "outputs": [
        {
          "internalType": "uint256",
          "name": "",
          "type": "uint256"
        }
      ],
      "stateMutability": "view",
      "type": "function"
    },
    {
      "inputs": [
        {
          "internalType": "uint256",
          "name": "frameKey",
          "type": "uint256"
        },
        {
          "internalType": "uint256",
          "name": "parcelKey",
          "type": "uint256"
        }
      ],
      "name": "getNumberOfParcelOwners",
      "outputs": [
        {
          "internalType": "uint256",
          "name": "",
          "type": "uint256"
        }
      ],
      "stateMutability": "view",
      "type": "function"
    },
    {
      "inputs": [],
      "name": "getNumberOfFrameKeys",
      "outputs": [
        {
          "internalType": "uint256",
          "name": "",
          "type": "uint256"
        }
      ],
      "stateMutability": "view",
      "type": "function"
    },
    {
      "inputs": [
        {
          "internalType": "uint256",
          "name": "frameKey",
          "type": "uint256"
        },
        {
          "internalType": "uint256",
          "name": "parcelKey",
          "type": "uint256"
        },
        {
          "internalType": "address",
          "name": "owner",
          "type": "address"
        }
      ],
      "name": "getParcelOwnerIndex",
      "outputs": [
        {
          "internalType": "uint256",
          "name": "",
          "type": "uint256"
        }
      ],
      "stateMutability": "view",
      "type": "function"
    },
    {
      "inputs": [
        {
          "internalType": "uint256",
          "name": "frameKey",
          "type": "uint256"
        },
        {
          "internalType": "uint256",
          "name": "pairPrice",
          "type": "uint256"
        },
        {
          "internalType": "uint256",
          "name": "newSellPrice",
          "type": "uint256"
        },
        {
          "internalType": "uint256",
          "name": "timestamp",
          "type": "uint256"
        }
      ],
      "name": "AmountToApprove",
      "outputs": [
        {
          "internalType": "uint256",
          "name": "",
          "type": "uint256"
        }
      ],
      "stateMutability": "view",
      "type": "function"
    },
    {
      "inputs": [
        {
          "internalType": "uint256",
          "name": "timestamp",
          "type": "uint256"
        },
        {
          "internalType": "uint256",
          "name": "pairPrice",
          "type": "uint256"
        },
        {
          "internalType": "uint256",
          "name": "newSellPrice",
          "type": "uint256"
        }
      ],
      "name": "buyParcel",
      "outputs": [],
      "stateMutability": "payable",
      "type": "function"
    },
    {
      "inputs": [
        {
          "internalType": "uint256",
          "name": "timestamp",
          "type": "uint256"
        },
        {
          "internalType": "uint256",
          "name": "pairPrice",
          "type": "uint256"
        },
        {
          "internalType": "uint256",
          "name": "acquisitionPrice",
          "type": "uint256"
        }
      ],
      "name": "updateParcelPrice",
      "outputs": [],
      "stateMutability": "payable",
      "type": "function"
    },
    {
      "inputs": [
        {
          "internalType": "uint256",
          "name": "PriceCumulative",
          "type": "uint256"
        }
      ],
      "name": "updateFramePrices",
      "outputs": [],
      "stateMutability": "nonpayable",
      "type": "function"
    },
    {
      "inputs": [
        {
          "internalType": "uint256",
          "name": "frameKey",
          "type": "uint256"
        }
      ],
      "name": "closeFrame",
      "outputs": [],
      "stateMutability": "nonpayable",
      "type": "function"
    },
    {
      "inputs": [
        {
          "internalType": "uint256",
          "name": "frameKey",
          "type": "uint256"
        },
        {
          "internalType": "address",
          "name": "owner",
          "type": "address"
        }
      ],
      "name": "settleParcel",
      "outputs": [],
      "stateMutability": "nonpayable",
      "type": "function"
    },
    {
      "inputs": [
        {
          "internalType": "uint256",
          "name": "frameKey",
          "type": "uint256"
        },
        {
          "internalType": "uint256",
          "name": "parcelKey",
          "type": "uint256"
        },
        {
          "internalType": "address",
          "name": "owner",
          "type": "address"
        }
      ],
      "name": "clcShare",
      "outputs": [
        {
          "internalType": "uint256",
          "name": "",
          "type": "uint256"
        }
      ],
      "stateMutability": "view",
      "type": "function"
    },
    {
      "inputs": [
        {
          "internalType": "uint256",
          "name": "frameKey",
          "type": "uint256"
        },
        {
          "internalType": "uint256",
          "name": "parcelKey",
          "type": "uint256"
        },
        {
          "internalType": "address",
          "name": "owner",
          "type": "address"
        }
      ],
      "name": "clcSettleAmount",
      "outputs": [
        {
          "internalType": "uint256",
          "name": "",
          "type": "uint256"
        }
      ],
      "stateMutability": "view",
      "type": "function"
    }
  ],
  "bytecode": "0x6080604052606460095569d3c21bcecceda1000000600a553480156200002457600080fd5b506040516200403a3803806200403a83398181016040528101906200004a9190620001da565b86600160006101000a81548173ffffffffffffffffffffffffffffffffffffffff021916908373ffffffffffffffffffffffffffffffffffffffff16021790555033600260006101000a81548173ffffffffffffffffffffffffffffffffffffffff021916908373ffffffffffffffffffffffffffffffffffffffff1602179055508460038190555083600481905550826008819055508160078190555085600560006101000a81548173ffffffffffffffffffffffffffffffffffffffff021916908373ffffffffffffffffffffffffffffffffffffffff16021790555080600681905550876000806101000a81548173ffffffffffffffffffffffffffffffffffffffff021916908373ffffffffffffffffffffffffffffffffffffffff16021790555050505050505050506200038a565b6000815190506200018f8162000322565b92915050565b600081519050620001a6816200033c565b92915050565b600081519050620001bd8162000356565b92915050565b600081519050620001d48162000370565b92915050565b600080600080600080600080610100898b031215620001fe57620001fd6200031d565b5b60006200020e8b828c01620001ac565b9850506020620002218b828c016200017e565b9750506040620002348b828c0162000195565b9650506060620002478b828c01620001c3565b95505060806200025a8b828c01620001c3565b94505060a06200026d8b828c01620001c3565b93505060c0620002808b828c01620001c3565b92505060e0620002938b828c01620001c3565b9150509295985092959890939650565b6000620002b082620002f3565b9050919050565b6000620002c482620002a3565b9050919050565b6000620002d882620002a3565b9050919050565b6000620002ec82620002a3565b9050919050565b600073ffffffffffffffffffffffffffffffffffffffff82169050919050565b6000819050919050565b600080fd5b6200032d81620002b7565b81146200033957600080fd5b50565b6200034781620002cb565b81146200035357600080fd5b50565b6200036181620002df565b81146200036d57600080fd5b50565b6200037b8162000313565b81146200038757600080fd5b50565b613ca0806200039a6000396000f3fe6080604052600436106101f95760003560e01c80637358c57a1161010d578063ba9d1d68116100a0578063da68cf8b1161006f578063da68cf8b146107f3578063ec77fe111461081e578063ef78d4fd1461083a578063f27da3ac14610865578063fc950702146108a2576101f9565b8063ba9d1d6814610723578063c45a015514610760578063c816841b1461078b578063c84993af146107b6576101f9565b806395333194116100dc57806395333194146106595780639d750e3214610675578063a10340bc146106a0578063b5cb1c63146106e6576101f9565b80637358c57a1461059b5780637d6ae6a0146105c65780637e9966391461060357806389da88a31461062e576101f9565b80633d7a7eac116101905780634f3ab71f1161015f5780634f3ab71f1461047c578063527eb4bc146104b957806354bc7f6c146104e45780635619e1f5146105215780635b3ad63e1461055e576101f9565b80633d7a7eac146103be578063410f0710146103fb5780634508477514610426578063499a0fc414610451576101f9565b806326269536116101cc57806326269536146102f25780632a0efd441461032f57806331cf77b41461035857806331e592e214610395576101f9565b8063050e8840146101fe5780630cbcff8f1461023b57806318ff0e07146102785780631e501486146102b5575b600080fd5b34801561020a57600080fd5b5061022560048036038101906102209190612f92565b6108cb565b60405161023291906135af565b60405180910390f35b34801561024757600080fd5b50610262600480360381019061025d9190612f92565b6108ef565b60405161026f91906135af565b60405180910390f35b34801561028457600080fd5b5061029f600480360381019061029a9190612f92565b610aaa565b6040516102ac91906135af565b60405180910390f35b3480156102c157600080fd5b506102dc60048036038101906102d7919061306c565b610b02565b6040516102e991906135af565b60405180910390f35b3480156102fe57600080fd5b506103196004803603810190610314919061302c565b610dd0565b6040516103269190613474565b60405180910390f35b34801561033b57600080fd5b5061035660048036038101906103519190612f92565b610e12565b005b34801561036457600080fd5b5061037f600480360381019061037a919061302c565b610f69565b60405161038c91906135af565b60405180910390f35b3480156103a157600080fd5b506103bc60048036038101906103b79190612fec565b610fa1565b005b3480156103ca57600080fd5b506103e560048036038101906103e09190613112565b611113565b6040516103f291906135af565b60405180910390f35b34801561040757600080fd5b50610410611279565b60405161041d91906135af565b60405180910390f35b34801561043257600080fd5b5061043b61127f565b6040516104489190613356565b60405180910390f35b34801561045d57600080fd5b506104666112a5565b60405161047391906135af565b60405180910390f35b34801561048857600080fd5b506104a3600480360381019061049e919061306c565b6112ab565b6040516104b091906135af565b60405180910390f35b3480156104c557600080fd5b506104ce611396565b6040516104db91906135af565b60405180910390f35b3480156104f057600080fd5b5061050b60048036038101906105069190612f92565b61139c565b60405161051891906135af565b60405180910390f35b34801561052d57600080fd5b506105486004803603810190610543919061306c565b6113bf565b60405161055591906135af565b60405180910390f35b34801561056a57600080fd5b5061058560048036038101906105809190612f92565b611411565b60405161059291906135af565b60405180910390f35b3480156105a757600080fd5b506105b0611469565b6040516105bd91906135af565b60405180910390f35b3480156105d257600080fd5b506105ed60048036038101906105e89190612f92565b61146f565b6040516105fa91906135af565b60405180910390f35b34801561060f57600080fd5b506106186114b2565b60405161062591906135af565b60405180910390f35b34801561063a57600080fd5b506106436114b8565b60405161065091906135af565b60405180910390f35b610673600480360381019061066e91906130bf565b6114c5565b005b34801561068157600080fd5b5061068a611d19565b60405161069791906135af565b60405180910390f35b3480156106ac57600080fd5b506106c760048036038101906106c29190612f92565b611dd2565b6040516106dd9a999897969594939291906135ca565b60405180910390f35b3480156106f257600080fd5b5061070d6004803603810190610708919061302c565b611e33565b60405161071a91906135af565b60405180910390f35b34801561072f57600080fd5b5061074a6004803603810190610745919061302c565b611e68565b604051610757919061333b565b60405180910390f35b34801561076c57600080fd5b50610775611f16565b6040516107829190613459565b60405180910390f35b34801561079757600080fd5b506107a0611f3a565b6040516107ad919061343e565b60405180910390f35b3480156107c257600080fd5b506107dd60048036038101906107d89190612f92565b611f60565b6040516107ea91906135af565b60405180910390f35b3480156107ff57600080fd5b50610808611f80565b6040516108159190613423565b60405180910390f35b610838600480360381019061083391906130bf565b611fa6565b005b34801561084657600080fd5b5061084f61255f565b60405161085c91906135af565b60405180910390f35b34801561087157600080fd5b5061088c6004803603810190610887919061302c565b612565565b60405161089991906135af565b60405180910390f35b3480156108ae57600080fd5b506108c960048036038101906108c49190612f92565b6125a2565b005b600c81815481106108db57600080fd5b906000526020600020016000915090505481565b6000600454821015610936576040517f08c379a000000000000000000000000000000000000000000000000000000000815260040161092d906134ef565b60405180910390fd5b600061094183611411565b90506000600381111561095757610956613a03565b5b600b600083815260200190815260200160002060010160009054906101000a900460ff16600381111561098d5761098c613a03565b5b1461099b5780915050610aa5565b6109a442611411565b8110156109e6576040517f08c379a00000000000000000000000000000000000000000000000000000000081526004016109dd906134cf565b60405180910390fd5b80600b6000838152602001908152602001600020600001819055506001600b600083815260200190815260200160002060010160006101000a81548160ff02191690836003811115610a3b57610a3a613a03565b5b0217905550600c8190806001815401808255809150506001900390600052602060002001600090919091909150557f163614e6e9ce9df7687928015fd2c748b69c5136db886e57f09170b251b58e8781604051610a9891906135af565b60405180910390a1809150505b919050565b6000808211610abd576006549050610afd565b610afa600654610aec600654610ade60065487612c8f90919063ffffffff16565b612ca590919063ffffffff16565b612cbb90919063ffffffff16565b90505b919050565b600080610b108585856112ab565b9050610b1c8585610f69565b8110610b5d576040517f08c379a0000000000000000000000000000000000000000000000000000000008152600401610b549061358f565b60405180910390fd5b6000600b6000878152602001908152602001600020600a0160008681526020019081526020016000206040518060800160405290816000820154815260200160018201805480602002602001604051908101604052809291908181526020016000905b82821015610c5257838290600052602060002090600202016040518060400160405290816000820160009054906101000a900473ffffffffffffffffffffffffffffffffffffffff1673ffffffffffffffffffffffffffffffffffffffff1673ffffffffffffffffffffffffffffffffffffffff16815260200160018201548152505081526020019060010190610bc0565b505050508152602001600282015481526020016003820160009054906101000a900460ff166002811115610c8957610c88613a03565b5b6002811115610c9b57610c9a613a03565b5b815250509050600081602001518381518110610cba57610cb9613a32565b5b60200260200101516020015190506000600b600089815260200190815260200160002060090154905060008360200151600081518110610cfd57610cfc613a32565b5b60200260200101516020015190506000856001610d1a8c8c610f69565b610d249190613789565b1415610d3257829050610d64565b8460200151600187610d449190613677565b81518110610d5557610d54613a32565b5b60200260200101516020015190505b6000610d798583612cd190919063ffffffff16565b90506000610d908486612cd190919063ffffffff16565b90506000610dbb82610dad600a5486612ca590919063ffffffff16565b612c8f90919063ffffffff16565b90508099505050505050505050509392505050565b6000600b6000848152602001908152602001600020600a01600083815260200190815260200160002060030160009054906101000a900460ff16905092915050565b6000610e1d42611411565b905043600b600083815260200190815260200160002060090181905550610e63615460610e5560035484612cbb90919063ffffffff16565b612cd190919063ffffffff16565b4211610edb5781600b60008381526020019081526020016000206004018190555042600b6000838152602001908152602001600020600701819055507f163614e6e9ce9df7687928015fd2c748b69c5136db886e57f09170b251b58e8781604051610ece91906135af565b60405180910390a1610f65565b610ef060035482612cbb90919063ffffffff16565b4211610f645781600b60008381526020019081526020016000206005018190555042600b6000838152602001908152602001600020600801819055507f163614e6e9ce9df7687928015fd2c748b69c5136db886e57f09170b251b58e8781604051610f5b91906135af565b60405180910390a15b5b5050565b6000600b6000848152602001908152602001600020600a01600083815260200190815260200160002060010180549050905092915050565b60026003811115610fb557610fb4613a03565b5b600b600084815260200190815260200160002060010160009054906101000a900460ff166003811115610feb57610fea613a03565b5b1461102b576040517f08c379a00000000000000000000000000000000000000000000000000000000081526004016110229061350f565b60405180910390fd5b600061104c600b600085815260200190815260200160002060020154610aaa565b9050600061105b8483856113bf565b9050600160009054906101000a900473ffffffffffffffffffffffffffffffffffffffff1673ffffffffffffffffffffffffffffffffffffffff1663a9059cbb84836040518363ffffffff1660e01b81526004016110ba9291906133fa565b602060405180830381600087803b1580156110d457600080fd5b505af11580156110e8573d6000803e3d6000fd5b505050506040513d601f19601f8201168201806040525081019061110c9190612f65565b5050505050565b60008061111f85610aaa565b9050600061113e61112f85611411565b85612cd190919063ffffffff16565b9050600061116b60035461115d84600a54612ca590919063ffffffff16565b612c8f90919063ffffffff16565b905060006111788961146f565b905060006111b8826111aa620186a061119c6008548d612ca590919063ffffffff16565b612c8f90919063ffffffff16565b612ca590919063ffffffff16565b905060006111e6620186a06111d86008548c612ca590919063ffffffff16565b612c8f90919063ffffffff16565b905061120f600a546112018684612ca590919063ffffffff16565b612c8f90919063ffffffff16565b90506112248183612cbb90919063ffffffff16565b9150600061126583600b60008f8152602001908152602001600020600a0160008a815260200190815260200160002060020154612cbb90919063ffffffff16565b905080975050505050505050949350505050565b60075481565b600260009054906101000a900473ffffffffffffffffffffffffffffffffffffffff1681565b60065481565b600080600090505b6112bd8585610f69565b811015611381578273ffffffffffffffffffffffffffffffffffffffff16600b6000878152602001908152602001600020600a016000868152602001908152602001600020600101828154811061131757611316613a32565b5b906000526020600020906002020160000160009054906101000a900473ffffffffffffffffffffffffffffffffffffffff1673ffffffffffffffffffffffffffffffffffffffff16141561136e578091505061138f565b80806113799061392b565b9150506112b3565b5061138c8484610f69565b90505b9392505050565b60095481565b6000600b6000838152602001908152602001600020600b01805490509050919050565b6000611408600a546113fa600b6000888152602001908152602001600020600301546113ec888888610b02565b612ca590919063ffffffff16565b612c8f90919063ffffffff16565b90509392505050565b60006004548211611426576004549050611464565b61146161145260035461144460045486612cd190919063ffffffff16565b612ce790919063ffffffff16565b83612cd190919063ffffffff16565b90505b919050565b60045481565b60006114ab600161149d60035461148f4287612cd190919063ffffffff16565b612c8f90919063ffffffff16565b612cbb90919063ffffffff16565b9050919050565b60085481565b6000600c80549050905090565b60006114d0846108ef565b905060006114de8285612cfd565b90506114ea8282611e68565b73ffffffffffffffffffffffffffffffffffffffff163373ffffffffffffffffffffffffffffffffffffffff161415611558576040517f08c379a000000000000000000000000000000000000000000000000000000000815260040161154f9061352f565b60405180910390fd5b600061157561156642611411565b42612cd190919063ffffffff16565b905060006115a260035461159484600a54612ca590919063ffffffff16565b612c8f90919063ffffffff16565b905060006115f6600a546115e8846115da620186a06115cc6008548d612ca590919063ffffffff16565b612c8f90919063ffffffff16565b612ca590919063ffffffff16565b612c8f90919063ffffffff16565b905060006116038961146f565b9050600061164382611635620186a06116276008548d612ca590919063ffffffff16565b612c8f90919063ffffffff16565b612ca590919063ffffffff16565b90506116588382612cbb90919063ffffffff16565b905061169781600b60008a8152602001908152602001600020600a01600089815260200190815260200160002060020154612cbb90919063ffffffff16565b600160009054906101000a900473ffffffffffffffffffffffffffffffffffffffff1673ffffffffffffffffffffffffffffffffffffffff1663dd62ed3e33306040518363ffffffff1660e01b81526004016116f492919061339a565b60206040518083038186803b15801561170c57600080fd5b505afa158015611720573d6000803e3d6000fd5b505050506040513d601f19601f820116820180604052508101906117449190612fbf565b1015611785576040517f08c379a000000000000000000000000000000000000000000000000000000000815260040161177c9061354f565b60405180910390fd5b600160009054906101000a900473ffffffffffffffffffffffffffffffffffffffff1673ffffffffffffffffffffffffffffffffffffffff166323b872dd333061180285600b60008e8152602001908152602001600020600a0160008d815260200190815260200160002060020154612cbb90919063ffffffff16565b6040518463ffffffff1660e01b8152600401611820939291906133c3565b602060405180830381600087803b15801561183a57600080fd5b505af115801561184e573d6000803e3d6000fd5b505050506040513d601f19601f820116820180604052508101906118729190612f65565b5061189c81600b60008a815260200190815260200160002060030154612cbb90919063ffffffff16565b600b600089815260200190815260200160002060030181905550600160028111156118ca576118c9613a03565b5b600b6000898152602001908152602001600020600a01600088815260200190815260200160002060030160009054906101000a900460ff16600281111561191457611913613a03565b5b1415611bba576000600b6000898152602001908152602001600020600a016000888152602001908152602001600020600201549050600061199b600a5461198d8861197f620186a061197160085489612ca590919063ffffffff16565b612c8f90919063ffffffff16565b612ca590919063ffffffff16565b612c8f90919063ffffffff16565b905060006119db856119cd620186a06119bf60085488612ca590919063ffffffff16565b612c8f90919063ffffffff16565b612ca590919063ffffffff16565b90506119f08282612cbb90919063ffffffff16565b90506000611a31600b60008d8152602001908152602001600020600a0160008c81526020019081526020016000206002015483612cbb90919063ffffffff16565b90506000611a526001611a448e8e610f69565b612cd190919063ffffffff16565b9050600160009054906101000a900473ffffffffffffffffffffffffffffffffffffffff1673ffffffffffffffffffffffffffffffffffffffff1663a9059cbb600b60008f8152602001908152602001600020600a0160008e81526020019081526020016000206001018381548110611ace57611acd613a32565b5b906000526020600020906002020160000160009054906101000a900473ffffffffffffffffffffffffffffffffffffffff16846040518363ffffffff1660e01b8152600401611b1e929190613371565b602060405180830381600087803b158015611b3857600080fd5b505af1158015611b4c573d6000803e3d6000fd5b505050506040513d601f19601f82011682018060405250810190611b709190612f65565b50611b9a83600b60008f815260200190815260200160002060030154612cd190919063ffffffff16565b600b60008e81526020019081526020016000206003018190555050505050505b600b6000888152602001908152602001600020600a01600087815260200190815260200160002060010160405180604001604052803373ffffffffffffffffffffffffffffffffffffffff16815260200143815250908060018154018082558091505060019003906000526020600020906002020160009091909190915060008201518160000160006101000a81548173ffffffffffffffffffffffffffffffffffffffff021916908373ffffffffffffffffffffffffffffffffffffffff1602179055506020820151816001015550506001600b6000898152602001908152602001600020600a01600088815260200190815260200160002060030160006101000a81548160ff02191690836002811115611cd957611cd8613a03565b5b021790555087600b6000898152602001908152602001600020600a0160008881526020019081526020016000206002018190555050505050505050505050565b600080600160009054906101000a900473ffffffffffffffffffffffffffffffffffffffff1673ffffffffffffffffffffffffffffffffffffffff1663dd62ed3e33306040518363ffffffff1660e01b8152600401611d7992919061339a565b60206040518083038186803b158015611d9157600080fd5b505afa158015611da5573d6000803e3d6000fd5b505050506040513d601f19601f82011682018060405250810190611dc99190612fbf565b90508091505090565b600b6020528060005260406000206000915090508060000154908060010160009054906101000a900460ff1690806002015490806003015490806004015490806005015490806006015490806007015490806008015490806009015490508a565b6000600b6000848152602001908152602001600020600a01600083815260200190815260200160002060020154905092915050565b600080611e758484610f69565b1415611e8357309050611f10565b600b6000848152602001908152602001600020600a016000838152602001908152602001600020600101611eca6001611ebc8686610f69565b612cd190919063ffffffff16565b81548110611edb57611eda613a32565b5b906000526020600020906002020160000160009054906101000a900473ffffffffffffffffffffffffffffffffffffffff1690505b92915050565b60008054906101000a900473ffffffffffffffffffffffffffffffffffffffff1681565b600560009054906101000a900473ffffffffffffffffffffffffffffffffffffffff1681565b6000600b6000838152602001908152602001600020600301549050919050565b600160009054906101000a900473ffffffffffffffffffffffffffffffffffffffff1681565b6000611fb1846108ef565b90506000611fbf8285612cfd565b90503373ffffffffffffffffffffffffffffffffffffffff16611fe28383611e68565b73ffffffffffffffffffffffffffffffffffffffff161461200257600080fd5b600061200d8661146f565b9050600061202c61201d42611411565b42612cd190919063ffffffff16565b9050600061205960035461204b84600a54612ca590919063ffffffff16565b612c8f90919063ffffffff16565b905060006120ad600a5461209f84612091620186a06120836008548e612ca590919063ffffffff16565b612c8f90919063ffffffff16565b612ca590919063ffffffff16565b612c8f90919063ffffffff16565b905060006120ed856120df620186a06120d16008548d612ca590919063ffffffff16565b612c8f90919063ffffffff16565b612ca590919063ffffffff16565b90506121028282612cbb90919063ffffffff16565b90506000600b6000898152602001908152602001600020600a016000888152602001908152602001600020600201549050612183600a5461217586612167620186a061215960085488612ca590919063ffffffff16565b612c8f90919063ffffffff16565b612ca590919063ffffffff16565b612c8f90919063ffffffff16565b925060006121c3876121b5620186a06121a76008548f612ca590919063ffffffff16565b612c8f90919063ffffffff16565b612ca590919063ffffffff16565b90506121d88482612cbb90919063ffffffff16565b905080831115612401576121f58184612cd190919063ffffffff16565b600160009054906101000a900473ffffffffffffffffffffffffffffffffffffffff1673ffffffffffffffffffffffffffffffffffffffff1663dd62ed3e33306040518363ffffffff1660e01b815260040161225292919061339a565b60206040518083038186803b15801561226a57600080fd5b505afa15801561227e573d6000803e3d6000fd5b505050506040513d601f19601f820116820180604052508101906122a29190612fbf565b10156122e3576040517f08c379a00000000000000000000000000000000000000000000000000000000081526004016122da9061354f565b60405180910390fd5b600160009054906101000a900473ffffffffffffffffffffffffffffffffffffffff1673ffffffffffffffffffffffffffffffffffffffff166323b872dd33306123368588612cd190919063ffffffff16565b6040518463ffffffff1660e01b8152600401612354939291906133c3565b602060405180830381600087803b15801561236e57600080fd5b505af1158015612382573d6000803e3d6000fd5b505050506040513d601f19601f820116820180604052508101906123a69190612f65565b506123e26123bd8285612cd190919063ffffffff16565b600b60008c815260200190815260200160002060030154612cbb90919063ffffffff16565b600b60008b815260200190815260200160002060030181905550612522565b8083101561252157600160009054906101000a900473ffffffffffffffffffffffffffffffffffffffff1673ffffffffffffffffffffffffffffffffffffffff1663a9059cbb3361245b8685612cd190919063ffffffff16565b6040518363ffffffff1660e01b81526004016124789291906133fa565b602060405180830381600087803b15801561249257600080fd5b505af11580156124a6573d6000803e3d6000fd5b505050506040513d601f19601f820116820180604052508101906124ca9190612f65565b506125066124e18483612cd190919063ffffffff16565b600b60008c815260200190815260200160002060030154612cd190919063ffffffff16565b600b60008b8152602001908152602001600020600301819055505b5b89600b60008b8152602001908152602001600020600a0160008a815260200190815260200160002060020181905550505050505050505050505050565b60035481565b6000600b6000848152602001908152602001600020600b01828154811061258f5761258e613a32565b5b9060005260206000200154905092915050565b600160038111156125b6576125b5613a03565b5b600b600083815260200190815260200160002060010160009054906101000a900460ff1660038111156125ec576125eb613a03565b5b1461262c576040517f08c379a0000000000000000000000000000000000000000000000000000000008152600401612623906134af565b60405180910390fd5b4261264260035483612cbb90919063ffffffff16565b1115612683576040517f08c379a000000000000000000000000000000000000000000000000000000000815260040161267a9061348f565b60405180910390fd5b6000600b6000838152602001908152602001600020600401541115806126c057506000600b60008381526020019081526020016000206005015411155b15612705576003600b600083815260200190815260200160002060010160006101000a81548160ff021916908360038111156126ff576126fe613a03565b5b02179055505b600b600082815260200190815260200160002060050154600b6000838152602001908152602001600020600401541415612779576003600b600083815260200190815260200160002060010160006101000a81548160ff0219169083600381111561277357612772613a03565b5b02179055505b6002600b600083815260200190815260200160002060010160006101000a81548160ff021916908360038111156127b3576127b2613a03565b5b021790555060006127f9600b600084815260200190815260200160002060040154600b600085815260200190815260200160002060050154612cd190919063ffffffff16565b9050600061283c600b600085815260200190815260200160002060070154600b600086815260200190815260200160002060080154612cd190919063ffffffff16565b90506128746040518060200160405280847bffffffffffffffffffffffffffffffffffffffffffffffffffffffff1681525082612dee565b600001517bffffffffffffffffffffffffffffffffffffffffffffffffffffffff16600b6000858152602001908152602001600020600201819055506128df600a546070600b600087815260200190815260200160002060020154901c612ca590919063ffffffff16565b600b60008581526020019081526020016000206002018190555061293b7406d79f82328ea3da61e066ebb2f88a0000000000006070600b600087815260200190815260200160002060020154901b612c8f90919063ffffffff16565b600b6000858152602001908152602001600020600201819055506000612997620186a0612989600754600b600089815260200190815260200160002060030154612ca590919063ffffffff16565b612c8f90919063ffffffff16565b905060006129db620186a06129cd600954600b60008a815260200190815260200160002060030154612ca590919063ffffffff16565b612c8f90919063ffffffff16565b9050612a1881612a0a84600b60008a815260200190815260200160002060030154612cd190919063ffffffff16565b612cd190919063ffffffff16565b600b600087815260200190815260200160002060030181905550600160009054906101000a900473ffffffffffffffffffffffffffffffffffffffff1673ffffffffffffffffffffffffffffffffffffffff1663a9059cbb600260009054906101000a900473ffffffffffffffffffffffffffffffffffffffff16846040518363ffffffff1660e01b8152600401612ab1929190613371565b602060405180830381600087803b158015612acb57600080fd5b505af1158015612adf573d6000803e3d6000fd5b505050506040513d601f19601f82011682018060405250810190612b039190612f65565b50600160009054906101000a900473ffffffffffffffffffffffffffffffffffffffff1673ffffffffffffffffffffffffffffffffffffffff1663a9059cbb60008054906101000a900473ffffffffffffffffffffffffffffffffffffffff1673ffffffffffffffffffffffffffffffffffffffff16638da5cb5b6040518163ffffffff1660e01b815260040160206040518083038186803b158015612ba857600080fd5b505afa158015612bbc573d6000803e3d6000fd5b505050506040513d601f19601f82011682018060405250810190612be09190612f38565b836040518363ffffffff1660e01b8152600401612bfe9291906133fa565b602060405180830381600087803b158015612c1857600080fd5b505af1158015612c2c573d6000803e3d6000fd5b505050506040513d601f19601f82011682018060405250810190612c509190612f65565b507f163614e6e9ce9df7687928015fd2c748b69c5136db886e57f09170b251b58e8785604051612c8091906135af565b60405180910390a15050505050565b60008183612c9d91906136fe565b905092915050565b60008183612cb3919061372f565b905092915050565b60008183612cc99190613677565b905092915050565b60008183612cdf9190613789565b905092915050565b60008183612cf59190613974565b905092915050565b600080612d0983610aaa565b905060006002811115612d1f57612d1e613a03565b5b600b6000868152602001908152602001600020600a01600083815260200190815260200160002060030160009054906101000a900460ff166002811115612d6957612d68613a03565b5b14612d775780915050612de8565b80600b6000868152602001908152602001600020600a01600083815260200190815260200160002060000181905550600b6000858152602001908152602001600020600b01819080600181540180825580915050600190039060005260206000200160009091909190915055809150505b92915050565b612df6612e9e565b6000826dffffffffffffffffffffffffffff161415612e4a576040517f08c379a0000000000000000000000000000000000000000000000000000000008152600401612e419061356f565b60405180910390fd5b6040518060200160405280836dffffffffffffffffffffffffffff168560000151612e7591906136cd565b7bffffffffffffffffffffffffffffffffffffffffffffffffffffffff16815250905092915050565b604051806020016040528060007bffffffffffffffffffffffffffffffffffffffffffffffffffffffff1681525090565b600081359050612ede81613c25565b92915050565b600081519050612ef381613c25565b92915050565b600081519050612f0881613c3c565b92915050565b600081359050612f1d81613c53565b92915050565b600081519050612f3281613c53565b92915050565b600060208284031215612f4e57612f4d613a61565b5b6000612f5c84828501612ee4565b91505092915050565b600060208284031215612f7b57612f7a613a61565b5b6000612f8984828501612ef9565b91505092915050565b600060208284031215612fa857612fa7613a61565b5b6000612fb684828501612f0e565b91505092915050565b600060208284031215612fd557612fd4613a61565b5b6000612fe384828501612f23565b91505092915050565b6000806040838503121561300357613002613a61565b5b600061301185828601612f0e565b925050602061302285828601612ecf565b9150509250929050565b6000806040838503121561304357613042613a61565b5b600061305185828601612f0e565b925050602061306285828601612f0e565b9150509250929050565b60008060006060848603121561308557613084613a61565b5b600061309386828701612f0e565b93505060206130a486828701612f0e565b92505060406130b586828701612ecf565b9150509250925092565b6000806000606084860312156130d8576130d7613a61565b5b60006130e686828701612f0e565b93505060206130f786828701612f0e565b925050604061310886828701612f0e565b9150509250925092565b6000806000806080858703121561312c5761312b613a61565b5b600061313a87828801612f0e565b945050602061314b87828801612f0e565b935050604061315c87828801612f0e565b925050606061316d87828801612f0e565b91505092959194509250565b61318281613865565b82525050565b613191816137cf565b82525050565b6131a0816137bd565b82525050565b6131af81613877565b82525050565b6131be8161389b565b82525050565b6131cd816138bf565b82525050565b6131dc816138e3565b82525050565b6131eb816138f5565b82525050565b60006131fe601a83613666565b915061320982613a66565b602082019050919050565b6000613221601083613666565b915061322c82613a8f565b602082019050919050565b6000613244601a83613666565b915061324f82613ab8565b602082019050919050565b6000613267602c83613666565b915061327282613ae1565b604082019050919050565b600061328a601083613666565b915061329582613b30565b602082019050919050565b60006132ad601f83613666565b91506132b882613b59565b602082019050919050565b60006132d0601c83613666565b91506132db82613b82565b602082019050919050565b60006132f3601783613666565b91506132fe82613bab565b602082019050919050565b6000613316601483613666565b915061332182613bd4565b602082019050919050565b6133358161385b565b82525050565b60006020820190506133506000830184613197565b92915050565b600060208201905061336b6000830184613188565b92915050565b60006040820190506133866000830185613179565b613393602083018461332c565b9392505050565b60006040820190506133af6000830185613197565b6133bc6020830184613197565b9392505050565b60006060820190506133d86000830186613197565b6133e56020830185613197565b6133f2604083018461332c565b949350505050565b600060408201905061340f6000830185613197565b61341c602083018461332c565b9392505050565b600060208201905061343860008301846131a6565b92915050565b600060208201905061345360008301846131b5565b92915050565b600060208201905061346e60008301846131c4565b92915050565b600060208201905061348960008301846131e2565b92915050565b600060208201905081810360008301526134a8816131f1565b9050919050565b600060208201905081810360008301526134c881613214565b9050919050565b600060208201905081810360008301526134e881613237565b9050919050565b600060208201905081810360008301526135088161325a565b9050919050565b600060208201905081810360008301526135288161327d565b9050919050565b60006020820190508181036000830152613548816132a0565b9050919050565b60006020820190508181036000830152613568816132c3565b9050919050565b60006020820190508181036000830152613588816132e6565b9050919050565b600060208201905081810360008301526135a881613309565b9050919050565b60006020820190506135c4600083018461332c565b92915050565b6000610140820190506135e0600083018d61332c565b6135ed602083018c6131d3565b6135fa604083018b61332c565b613607606083018a61332c565b613614608083018961332c565b61362160a083018861332c565b61362e60c083018761332c565b61363b60e083018661332c565b61364961010083018561332c565b61365761012083018461332c565b9b9a5050505050505050505050565b600082825260208201905092915050565b60006136828261385b565b915061368d8361385b565b9250827fffffffffffffffffffffffffffffffffffffffffffffffffffffffffffffffff038211156136c2576136c16139a5565b5b828201905092915050565b60006136d882613833565b91506136e383613833565b9250826136f3576136f26139d4565b5b828204905092915050565b60006137098261385b565b91506137148361385b565b925082613724576137236139d4565b5b828204905092915050565b600061373a8261385b565b91506137458361385b565b9250817fffffffffffffffffffffffffffffffffffffffffffffffffffffffffffffffff048311821515161561377e5761377d6139a5565b5b828202905092915050565b60006137948261385b565b915061379f8361385b565b9250828210156137b2576137b16139a5565b5b828203905092915050565b60006137c882613813565b9050919050565b60006137da82613813565b9050919050565b60008115159050919050565b60008190506137fb82613bfd565b919050565b600081905061380e82613c11565b919050565b600073ffffffffffffffffffffffffffffffffffffffff82169050919050565b60007bffffffffffffffffffffffffffffffffffffffffffffffffffffffff82169050919050565b6000819050919050565b600061387082613907565b9050919050565b600061388282613889565b9050919050565b600061389482613813565b9050919050565b60006138a6826138ad565b9050919050565b60006138b882613813565b9050919050565b60006138ca826138d1565b9050919050565b60006138dc82613813565b9050919050565b60006138ee826137ed565b9050919050565b600061390082613800565b9050919050565b600061391282613919565b9050919050565b600061392482613813565b9050919050565b60006139368261385b565b91507fffffffffffffffffffffffffffffffffffffffffffffffffffffffffffffffff821415613969576139686139a5565b5b600182019050919050565b600061397f8261385b565b915061398a8361385b565b92508261399a576139996139d4565b5b828206905092915050565b7f4e487b7100000000000000000000000000000000000000000000000000000000600052601160045260246000fd5b7f4e487b7100000000000000000000000000000000000000000000000000000000600052601260045260246000fd5b7f4e487b7100000000000000000000000000000000000000000000000000000000600052602160045260246000fd5b7f4e487b7100000000000000000000000000000000000000000000000000000000600052603260045260246000fd5b600080fd5b7f4652414d4520454e442054494d45204e4f542052454143484544000000000000600082015250565b7f4652414d45204e4f54204f50454e454400000000000000000000000000000000600082015250565b7f43414e275420435245415445204652414d4520494e2050415354000000000000600082015250565b7f54494d455354414d50204245464f524520494e495449414c2054494d4553544160008201527f4d50204f46204d41524b45540000000000000000000000000000000000000000602082015250565b7f4652414d45204e4f5420434c4f53454400000000000000000000000000000000600082015250565b7f4144445245535320414c5245414459204f574e53205448452050415243454c00600082015250565b7f415050524f56454420414d4f554e5420495320544f4f20534d414c4c00000000600082015250565b7f4669786564506f696e743a204449565f42595f5a45524f000000000000000000600082015250565b7f4f574e455220444f4553204e4f54204558495354000000000000000000000000600082015250565b60048110613c0e57613c0d613a03565b5b50565b60038110613c2257613c21613a03565b5b50565b613c2e816137bd565b8114613c3957600080fd5b50565b613c45816137e1565b8114613c5057600080fd5b50565b613c5c8161385b565b8114613c6757600080fd5b5056fea264697066735822122036ccfb4e26a4370735e5eff897e99f5991f67b64b9aa0b7a2801ac190834faa364736f6c63430008060033",
  "immutableReferences": {},
  "source": "// SPDX-License-Identifier: MIT\r\npragma solidity >=0.5.0;\r\n//pragma experimental ABIEncoderV2;\r\n\r\nimport \"./MarketFactory.sol\";\r\nimport \"@uniswap/v2-core/contracts/interfaces/IUniswapV2Pair.sol\";\r\nimport \"@uniswap/v2-periphery/contracts/libraries/UniswapV2OracleLibrary.sol\";\r\nimport \"@uniswap/lib/contracts/libraries/FixedPoint.sol\";\r\nimport \"@openzeppelin/contracts/token/ERC20/IERC20.sol\";\r\nimport \"@openzeppelin/contracts/utils/math/SafeMath.sol\";\r\n\r\n/// @title TWPM Market\r\n/// @author UniHedge\r\n/// @dev All function calls are currently implemented without side effects\r\ncontract Market {\r\n\r\n    using SafeMath for uint;\r\n    //Contract for creating markets\r\n    MarketFactory public factory;\r\n    //ERC20 token used for buyng parcels in this contract \r\n    IERC20 public accountingToken;\r\n    //Owner of this market\r\n    address payable public ownerMarket;\r\n    //Length of a frame\r\n    uint public period;\r\n    //Contract creation time\r\n    uint public initTimestamp; \r\n    //Token pair on Uniswap\r\n    IUniswapV2Pair public uniswapPair;\r\n    //Range of a parcel\r\n    uint public dPrice;\r\n    //Fee that gets to market owner\r\n    uint public feeMarket;\r\n    //Tax on parcels\r\n    uint public taxMarket;\r\n    //Protocol fee\r\n    uint public feeProtocol = 100;\r\n    //Scalar number used for calculating precentages\r\n    uint scalar = 1e24;\r\n\r\n\r\n    enum SFrame {NULL, OPENED, CLOSED, INVALID}\r\n    struct Frame {\r\n        uint frameKey;\r\n        SFrame state;\r\n        uint priceAverage;\r\n        uint rewardFund;\r\n        uint oraclePrice0CumulativeStart;\r\n        uint oraclePrice0CumulativeEnd;\r\n        uint price0CumulativeEnd;\r\n        uint oracleTimestampStart;\r\n        uint oracleTimestampEnd;\r\n        uint lastBlockNum;\r\n        mapping(uint => Parcel) parcels;\r\n        uint[] parcelKeys;\r\n    }\r\n\r\n    event FrameUpdate(uint frameKey);\r\n\r\n    mapping(uint => Frame) public frames;\r\n    uint[] public framesKeys;\r\n\r\n    struct ParcelOwner {\r\n        address payable owner;\r\n        uint blockNum;\r\n    }\r\n\r\n    enum SParcel {NULL, BOUGHT, RESOLVED}\r\n    struct Parcel {\r\n        uint parcelKey;\r\n        ParcelOwner[] parcelOwners;\r\n        uint acquisitionPrice;\r\n        SParcel state;\r\n    }\r\n\r\n    event ParcelUpdate(uint frameKey, uint parcelKey);\r\n\r\n    constructor(MarketFactory _factory, IERC20 _token, IUniswapV2Pair _uniswapPair, uint _period, uint _initTimestamp, uint _taxMarket, uint _feeMarket, uint _dPrice ) {\r\n        accountingToken = _token;\r\n        ownerMarket = payable(msg.sender);\r\n        period = _period;\r\n        initTimestamp = _initTimestamp; \r\n        taxMarket = _taxMarket;\r\n        feeMarket = _feeMarket;\r\n        uniswapPair = _uniswapPair;\r\n        dPrice = _dPrice;\r\n        factory = _factory;\r\n    }\r\n\r\n\r\n    /// @notice Create a frame\r\n    /// @param timestamp In second.\r\n    /// @return frameTimestamp Frame's key (timestamp that indicated the beggining of a frame).\r\n    function getOrCreateFrame(uint timestamp) public returns (uint){\r\n        require(timestamp >= initTimestamp, \"TIMESTAMP BEFORE INITIAL TIMESTAMP OF MARKET\");\r\n        //Get start timestamp of a frame\r\n        uint frameTimestamp = clcFrameTimestamp(timestamp);\r\n        //Check if frame exists\r\n        if (frames[frameTimestamp].state != SFrame.NULL) return frameTimestamp;\r\n        //Check if frame startParcel number is before current Parcel number\r\n        require(frameTimestamp >= clcFrameTimestamp(block.timestamp), \"CAN'T CREATE FRAME IN PAST\");\r\n        //Add frame\r\n        frames[frameTimestamp].frameKey = frameTimestamp;\r\n        frames[frameTimestamp].state = SFrame.OPENED; //check if other parameters are at zero\r\n        framesKeys.push(frameTimestamp);\r\n        emit FrameUpdate(frameTimestamp);\r\n        return frameTimestamp;\r\n    }\r\n\r\n    /// @notice Calculate frames timestamp (beggining of frame)\r\n    /// @param timestamp In seconds\r\n    /// @return frame's timestamp (key)\r\n    // function clcFrameTimestamp(uint timestamp) public view returns (uint){\r\n    //     if (timestamp <= initTimestamp) return initTimestamp;\r\n    //     return ((timestamp.sub(initTimestamp)).div(period)).mul(period).add(initTimestamp);\r\n    // }\r\n    function clcFrameTimestamp(uint timestamp) public view returns (uint){\r\n        if (timestamp <= initTimestamp) return initTimestamp;\r\n        return timestamp.sub((timestamp.sub(initTimestamp)).mod(period));\r\n    }\r\n\r\n    /// @notice Calculate bottom boundary of a parcel\r\n    /// @param value Arbitary price of market's Uniswap pair\r\n    /// @return parcel key (bottom boundary)\r\n    function clcParcelInterval(uint value) public view returns (uint){\r\n        if (value <= 0) return dPrice;\r\n        return value.div(dPrice).mul(dPrice).add(dPrice);\r\n    }\r\n\r\n    /// @notice Calculate how many frames there are left untill given frame in input\r\n    /// @param frameKey Timestamp of an arbitary frame in the future\r\n    /// @return number of frames (whole numbers: n=0,1,2...)\r\n    function clcFramesLeft(uint frameKey) public view returns (uint){                      \r\n        return (frameKey.sub(block.timestamp)).div(period).add(1);\r\n    }\r\n\r\n    /// @notice Get current price of a parcel in a frame\r\n    /// @param frameKey Frame's timestamp\r\n    /// @param parcelKey Parcel's key \r\n    /// @return price that the current owner set\r\n    function getParcelPrice(uint frameKey, uint parcelKey) public view returns (uint){                 \r\n        return frames[frameKey].parcels[parcelKey].acquisitionPrice;\r\n    }\r\n\r\n    /// @notice Get no. of created parcels in a frame \r\n    /// @param frameKey Frame's timestamp\r\n    /// @return parcel count\r\n    function getParcelsCount(uint frameKey) public view returns (uint){                 \r\n        return frames[frameKey].parcelKeys.length;\r\n    }\r\n\r\n    /// @notice Get parcelKey from index in parcelKeys array\r\n    /// @param frameKey Frame's timestamp\r\n    /// @param index frameKeys array index \r\n    /// @return parcelKey\r\n    function getParcelKey(uint frameKey, uint index) public view returns (uint){                 \r\n        return frames[frameKey].parcelKeys[index];\r\n    }\r\n\r\n    /// @notice Get parcel's state\r\n    /// @param frameKey Frame's timestamp\r\n    /// @param parcelKey Parcel's key \r\n    /// @return state of parcel\r\n    function getParcelState(uint frameKey, uint parcelKey) public view returns (SParcel){                 \r\n        return frames[frameKey].parcels[parcelKey].state;\r\n    }\r\n\r\n    /// @notice Get parcel's owner\r\n    /// @param frameKey Frame's timestamp\r\n    /// @param parcelKey Parcel's key \r\n    /// @return parcel's owner\r\n    function getParcelOwner(uint frameKey, uint parcelKey) public view returns (address){ \r\n        if (getNumberOfParcelOwners(frameKey, parcelKey) == 0) return address(this);\r\n        return frames[frameKey].parcels[parcelKey].parcelOwners[getNumberOfParcelOwners(frameKey, parcelKey).sub(1)].owner;\r\n    }\r\n\r\n    /// @notice Get msg senders approved amount of accounting token to this contract (market)\r\n    /// @return approved amount\r\n    function getApprovedAmount() public view returns (uint) {                         \r\n        uint approvedAmount = accountingToken.allowance(msg.sender, address(this));\r\n        return approvedAmount;\r\n    }\r\n\r\n    /// @notice Get frame's award amount (accumulation of different parcel taxes)\r\n    /// @notice Remaining tax of a parcel owner get's returned after a sale (change of ownership). So the award amount isn't for sure untill the frame get's closed.\r\n    /// @param frameKey Frame's timestamp\r\n    /// @return award amount\r\n    function getRewardAmount(uint frameKey) public view returns (uint) {                         \r\n        return frames[frameKey].rewardFund;\r\n    }\r\n\r\n    /// @notice Get number of accounts that owned a specific parcel\r\n    /// @param frameKey Frame's timestamp\r\n    /// @param parcelKey Parcel's key \r\n    /// @return number of owners\r\n    function getNumberOfParcelOwners(uint frameKey, uint parcelKey) public view returns (uint){\r\n        return frames[frameKey].parcels[parcelKey].parcelOwners.length;\r\n    }\r\n\r\n    /// @notice Get number of frames\r\n    /// @return number frames\r\n    function getNumberOfFrameKeys() public view returns (uint){\r\n        return framesKeys.length ;\r\n    }\r\n\r\n    /// @notice Calculate parcel owner's index in the array of owners of the parcel\r\n    /// @param frameKey Frame's timestamp\r\n    /// @param parcelKey Parcel's key \r\n    /// @param owner Owners account address\r\n    /// @return owner's index\r\n    function getParcelOwnerIndex(uint frameKey, uint parcelKey, address owner) public view returns (uint) {   \r\n\r\n        //if (parcelCount == 0) return 0;\r\n\r\n        for (uint i=0; i< getNumberOfParcelOwners(frameKey, parcelKey); i++) {\r\n            if (frames[frameKey].parcels[parcelKey].parcelOwners[i].owner == owner) return i;\r\n        }\r\n\r\n        return getNumberOfParcelOwners(frameKey, parcelKey); \r\n    }\r\n\r\n    /// @notice Create a parcel\r\n    /// @param frameKey Frame's timestamp\r\n    /// @param pairPrice Price is the trading pair's price\r\n    /// @return parcelKey\r\n    function getOrCreateParcel(uint frameKey, uint pairPrice) internal returns(uint){\r\n\r\n        uint parcelKey = clcParcelInterval(pairPrice);\r\n\r\n        if (frames[frameKey].parcels[parcelKey].state != SParcel.NULL) return parcelKey;\r\n        \r\n        frames[frameKey].parcels[parcelKey].parcelKey = parcelKey;\r\n        frames[frameKey].parcelKeys.push(parcelKey);\r\n        return parcelKey;\r\n    }\r\n\r\n    /// @notice Calculate amout required to approve to buy a parcel\r\n    /// @param frameKey Frame's timestamp\r\n    /// @param pairPrice Value is trading pair's price (to get correct parcel key) \r\n    /// @param newSellPrice New sell price is required to calculate tax\r\n    /// @return amoun to approve\r\n    function AmountToApprove(uint frameKey, uint pairPrice, uint newSellPrice, uint timestamp) public view returns (uint) {             \r\n        uint parcelKey = clcParcelInterval(pairPrice);\r\n\r\n        uint dFrame = timestamp.sub(clcFrameTimestamp(timestamp));\r\n        uint dFrameP = scalar.mul(dFrame).div(period);\r\n\r\n        //Calculate tax from the propoed new price (newSellPrice)\r\n        uint numOfFramesLeft = clcFramesLeft(frameKey);\r\n        uint tax = newSellPrice.mul(taxMarket).div(100000).mul(numOfFramesLeft);\r\n        uint dtax = newSellPrice.mul(taxMarket).div(100000);\r\n        dtax = dtax.mul(dFrameP).div(scalar);\r\n        tax = tax.add(dtax);\r\n\r\n        uint amount = frames[frameKey].parcels[parcelKey].acquisitionPrice.add(tax);\r\n\r\n        return amount;\r\n    }\r\n\r\n    /// @notice Calculate amout required to approve to buy a parcel\r\n    /// @param timestamp Frame's timestamp get's calculated from this value\r\n    /// @param pairPrice Is trading pair's price (to get correct parcel key) \r\n    /// @param newSellPrice New sell price is required to calculate tax\r\n    function buyParcel(uint timestamp, uint pairPrice, uint newSellPrice) public payable {\r\n        uint frameKey =  getOrCreateFrame(timestamp);                          \r\n        \r\n        uint parcelKey = getOrCreateParcel(frameKey, pairPrice);\r\n\r\n        require(msg.sender != getParcelOwner(frameKey, parcelKey), \"ADDRESS ALREADY OWNS THE PARCEL\");\r\n\r\n        uint dFrame = block.timestamp.sub(clcFrameTimestamp(block.timestamp));\r\n        uint dFrameP = scalar.mul(dFrame).div(period);\r\n        uint dtax = newSellPrice.mul(taxMarket).div(100000).mul(dFrameP).div(scalar);\r\n\r\n        //Calculate tax from the proposed new price (newSellPrice)\r\n        uint numOfFramesLeft = clcFramesLeft(timestamp);\r\n        uint tax = newSellPrice.mul(taxMarket).div(100000).mul(numOfFramesLeft);\r\n        \r\n        tax = tax.add(dtax);\r\n\r\n        //Approved amount has to be at leat equal to price of the Parcel(with tax)\r\n        require(accountingToken.allowance(msg.sender, address(this)) >= frames[frameKey].parcels[parcelKey].acquisitionPrice.add(tax), \"APPROVED AMOUNT IS TOO SMALL\");\r\n        \r\n        //Transfer complete tax amount to the frame rewardFund\r\n        accountingToken.transferFrom(msg.sender, address(this), frames[frameKey].parcels[parcelKey].acquisitionPrice.add(tax));\r\n        frames[frameKey].rewardFund = frames[frameKey].rewardFund.add(tax);\r\n\r\n\r\n        //Pay the Parcel price to current owner + return tax\r\n        if (frames[frameKey].parcels[parcelKey].state == SParcel.BOUGHT) {\r\n            //Calculate tax to return. acquisitionPrice/marketTax * number_of_frames_left:\r\n            uint aPrice = frames[frameKey].parcels[parcelKey].acquisitionPrice;\r\n            uint dFrameTax = aPrice.mul(taxMarket).div(100000).mul(dFrameP).div(scalar);\r\n            uint taxToReturn = aPrice.mul(taxMarket).div(100000).mul(numOfFramesLeft);\r\n            taxToReturn = taxToReturn.add(dFrameTax);\r\n            //add acquisition price valut to left over tax\r\n            uint amount = (taxToReturn.add(frames[frameKey].parcels[parcelKey].acquisitionPrice));\r\n            //transfer funds\r\n            uint previousOwner = getNumberOfParcelOwners(frameKey, parcelKey).sub(1);\r\n            accountingToken.transfer(frames[frameKey].parcels[parcelKey].parcelOwners[previousOwner].owner, amount);\r\n            //change reward value\r\n            frames[frameKey].rewardFund = frames[frameKey].rewardFund.sub(taxToReturn);\r\n        }\r\n       \r\n        frames[frameKey].parcels[parcelKey].parcelOwners.push(ParcelOwner(payable(msg.sender), block.number));\r\n        frames[frameKey].parcels[parcelKey].state = SParcel.BOUGHT;\r\n        frames[frameKey].parcels[parcelKey].acquisitionPrice = newSellPrice;\r\n    }\r\n\r\n    /// @notice Owner can update parcel's price. Has to pay additional tax, or leftover tax gets' returned to him if the new price is lower\r\n    /// @param timestamp Frame's timestamp get's calculated from this value\r\n    /// @param pairPrice Is trading pair's price (to get correct parcel key) \r\n    /// @param acquisitionPrice New acquisition price\r\n    function updateParcelPrice(uint timestamp, uint pairPrice, uint acquisitionPrice) public payable {\r\n        uint frameKey =  getOrCreateFrame(timestamp); \r\n        uint parcelKey = getOrCreateParcel(frameKey, pairPrice); \r\n        \r\n        require(getParcelOwner(frameKey, parcelKey) == msg.sender);\r\n                      \r\n        uint numOfFramesLeft = clcFramesLeft(timestamp);\r\n\r\n        uint dFrame = block.timestamp.sub(clcFrameTimestamp(block.timestamp));\r\n        uint dFrameP = scalar.mul(dFrame).div(period);\r\n        uint dtax = acquisitionPrice.mul(taxMarket).div(100000).mul(dFrameP).div(scalar);\r\n        uint taxNew = acquisitionPrice.mul(taxMarket).div(100000).mul(numOfFramesLeft);\r\n        taxNew = taxNew.add(dtax);\r\n\r\n        uint oldPrice = frames[frameKey].parcels[parcelKey].acquisitionPrice;\r\n        dtax = oldPrice.mul(taxMarket).div(100000).mul(dFrameP).div(scalar);\r\n        uint taxOld = acquisitionPrice.mul(taxMarket).div(100000).mul(numOfFramesLeft);\r\n        taxOld = taxOld.add(dtax);\r\n\r\n        if (taxNew > taxOld) {\r\n            require(accountingToken.allowance(msg.sender, address(this)) >= (taxNew.sub(taxOld)), \"APPROVED AMOUNT IS TOO SMALL\");\r\n            //Transfer complete tax amount to the frame rewardFund\r\n            accountingToken.transferFrom(msg.sender, address(this), (taxNew.sub(taxOld)));\r\n            frames[frameKey].rewardFund = frames[frameKey].rewardFund.add(taxNew.sub(taxOld));\r\n        }\r\n        else if (taxNew < taxOld) {\r\n            accountingToken.transfer(msg.sender, taxOld.sub(taxNew));\r\n            frames[frameKey].rewardFund = frames[frameKey].rewardFund.sub(taxOld.sub(taxNew));\r\n        }\r\n        frames[frameKey].parcels[parcelKey].acquisitionPrice = acquisitionPrice;\r\n    }\r\n\r\n    /// @notice Update trading pair's prices in the frame\r\n    /// @param PriceCumulative Cumulative price\r\n    /// @dev For developement purposes the new price is added as an input\r\n    /// @dev Final version should use uniswap's oracles\r\n    function updateFramePrices(uint PriceCumulative) public {\r\n        uint frameKey = clcFrameTimestamp(block.timestamp);\r\n        frames[frameKey].lastBlockNum = block.number;\r\n        //Correct price if outside settle interval\r\n        if (block.timestamp <= ((frameKey.add(period)).sub(21600))) {\r\n            frames[frameKey].oraclePrice0CumulativeStart = PriceCumulative;\r\n            frames[frameKey].oracleTimestampStart = block.timestamp;\r\n            emit FrameUpdate(frameKey);\r\n        }\r\n        else if (block.timestamp <= frameKey.add(period)) {\r\n            frames[frameKey].oraclePrice0CumulativeEnd = PriceCumulative;\r\n            frames[frameKey].oracleTimestampEnd = block.timestamp;\r\n            emit FrameUpdate(frameKey);\r\n        }\r\n    }\r\n\r\n    /// @notice Close frame\r\n    /// @param frameKey Frame's timestamp\r\n    function closeFrame(uint frameKey) public {\r\n        //Check if frame is opened\r\n        require(frames[frameKey].state == SFrame.OPENED, \"FRAME NOT OPENED\");\r\n        //Check if frame timing is correct\r\n        require(frameKey.add(period) <= block.timestamp, \"FRAME END TIME NOT REACHED\");\r\n        //Check if frame has valid prices\r\n        if (frames[frameKey].oraclePrice0CumulativeStart <= 0 || frames[frameKey].oraclePrice0CumulativeEnd <= 0) {\r\n            frames[frameKey].state = SFrame.INVALID;\r\n        }\r\n        if (frames[frameKey].oraclePrice0CumulativeStart == frames[frameKey].oraclePrice0CumulativeEnd) {\r\n            frames[frameKey].state = SFrame.INVALID;\r\n        }\r\n        frames[frameKey].state = SFrame.CLOSED;\r\n\r\n        //UQ112x112 encoded\r\n        uint priceDiff = frames[frameKey].oraclePrice0CumulativeEnd.sub(frames[frameKey].oraclePrice0CumulativeStart);\r\n        uint timeDiff = frames[frameKey].oracleTimestampEnd.sub(frames[frameKey].oracleTimestampStart);\r\n        //Calculate time-weighted average price -- UQ112x112 encoded\r\n        frames[frameKey].priceAverage = uint(((FixedPoint.div(FixedPoint.uq112x112(uint224(priceDiff)), (uint112(timeDiff)))))._x);\r\n\r\n        //Decode to scalar value\r\n        frames[frameKey].priceAverage = (frames[frameKey].priceAverage >> 112).mul(scalar); \r\n        frames[frameKey].priceAverage = (frames[frameKey].priceAverage << 112).div(1e49);\r\n\r\n        //Subtract fees from the reward amount and send them to Owners of the market and protocol\r\n        uint marketOwnerFees = frames[frameKey].rewardFund.mul(feeMarket).div(100000);\r\n        uint protocolOwnerFees = frames[frameKey].rewardFund.mul(feeProtocol).div(100000);\r\n\r\n        frames[frameKey].rewardFund = frames[frameKey].rewardFund.sub(marketOwnerFees).sub(protocolOwnerFees);\r\n        accountingToken.transfer(ownerMarket, marketOwnerFees);\r\n        accountingToken.transfer(factory.owner(), protocolOwnerFees);\r\n\r\n        emit FrameUpdate(frameKey);\r\n    }\r\n\r\n    /// @notice Settle parcel for a owner. Owner's share of the reward amount get's transfered to owner's account\r\n    /// @param frameKey Frame's timestamp\r\n    /// @param owner Owner's address\r\n    function settleParcel(uint frameKey, address owner) public {  \r\n        //Check if frame is closed\r\n        require(frames[frameKey].state == SFrame.CLOSED, \"FRAME NOT CLOSED\");    \r\n        uint parcelKeyWin = (clcParcelInterval(frames[frameKey].priceAverage));\r\n\r\n        uint amount = clcSettleAmount(frameKey, parcelKeyWin, owner);\r\n        accountingToken.transfer(owner, amount);\r\n    }\r\n\r\n    /// @notice Calculate owner's share based on the number of blocks the account owned the parcel\r\n    /// @param frameKey Frame's timestamp\r\n    /// @param parcelKey Parcel's key\r\n    /// @param owner Owner's address\r\n    /// @return Owner's precentage\r\n    function clcShare(uint frameKey, uint parcelKey, address owner) public view returns (uint) {\r\n        uint ownerIndex = getParcelOwnerIndex(frameKey, parcelKey, owner);\r\n        require(ownerIndex < getNumberOfParcelOwners(frameKey, parcelKey), \"OWNER DOES NOT EXIST\"); \r\n\r\n        Parcel memory parcel = frames[frameKey].parcels[parcelKey];\r\n\r\n        uint ownerBlock= parcel.parcelOwners[ownerIndex].blockNum;\r\n        uint endBlock = frames[frameKey].lastBlockNum;\r\n        uint firstOwnerBlock= parcel.parcelOwners[0].blockNum;\r\n        uint nextOwnerBlock;\r\n\r\n        if (getNumberOfParcelOwners(frameKey, parcelKey)-1 == ownerIndex) nextOwnerBlock = endBlock;\r\n        else nextOwnerBlock = parcel.parcelOwners[ownerIndex + 1].blockNum;\r\n\r\n        //nextOwnerBlock = parcels[parcelIndex].parcelOwners[ownerIndex + 1].blockNum;\r\n    \r\n        uint ownerBlocks = nextOwnerBlock.sub(ownerBlock);\r\n        uint allBlocks = endBlock.sub(firstOwnerBlock);\r\n\r\n        uint share = ownerBlocks.mul(scalar).div(allBlocks);\r\n        return share;     \r\n    }\r\n\r\n    /// @notice Calculate owner's winning amount\r\n    /// @param frameKey Frame's timestamp\r\n    /// @param parcelKey Parcel's key\r\n    /// @param owner Owner's address\r\n    /// @return Owner's winnings\r\n    function clcSettleAmount(uint frameKey, uint parcelKey, address owner) public view returns (uint){\r\n        return clcShare(frameKey, parcelKey, owner).mul(frames[frameKey].rewardFund).div(scalar);\r\n    }\r\n\r\n}",
  "sourcePath": "D:/prog/UniHedge/core/contracts/Market.sol",
  "compiler": {
    "name": "solc",
    "version": "0.8.6+commit.11564f7e.Emscripten.clang"
  },
  "schemaVersion": "3.4.1",
  "updatedAt": "2021-07-26T17:41:47.722Z",
  "devdoc": {
    "author": "UniHedge",
    "details": "All function calls are currently implemented without side effects",
    "kind": "dev",
    "methods": {
      "AmountToApprove(uint256,uint256,uint256,uint256)": {
        "params": {
          "frameKey": "Frame's timestamp",
          "newSellPrice": "New sell price is required to calculate tax",
          "pairPrice": "Value is trading pair's price (to get correct parcel key) "
        },
        "returns": {
          "_0": "amoun to approve"
        }
      },
      "buyParcel(uint256,uint256,uint256)": {
        "params": {
          "newSellPrice": "New sell price is required to calculate tax",
          "pairPrice": "Is trading pair's price (to get correct parcel key) ",
          "timestamp": "Frame's timestamp get's calculated from this value"
        }
      },
      "clcFrameTimestamp(uint256)": {
        "params": {
          "timestamp": "In seconds"
        },
        "returns": {
          "_0": "frame's timestamp (key)"
        }
      },
      "clcFramesLeft(uint256)": {
        "params": {
          "frameKey": "Timestamp of an arbitary frame in the future"
        },
        "returns": {
          "_0": "number of frames (whole numbers: n=0,1,2...)"
        }
      },
      "clcParcelInterval(uint256)": {
        "params": {
          "value": "Arbitary price of market's Uniswap pair"
        },
        "returns": {
          "_0": "parcel key (bottom boundary)"
        }
      },
      "clcSettleAmount(uint256,uint256,address)": {
        "params": {
          "frameKey": "Frame's timestamp",
          "owner": "Owner's address",
          "parcelKey": "Parcel's key"
        },
        "returns": {
          "_0": "Owner's winnings"
        }
      },
      "clcShare(uint256,uint256,address)": {
        "params": {
          "frameKey": "Frame's timestamp",
          "owner": "Owner's address",
          "parcelKey": "Parcel's key"
        },
        "returns": {
          "_0": "Owner's precentage"
        }
      },
      "closeFrame(uint256)": {
        "params": {
          "frameKey": "Frame's timestamp"
        }
      },
      "getApprovedAmount()": {
        "returns": {
          "_0": "approved amount"
        }
      },
      "getNumberOfFrameKeys()": {
        "returns": {
          "_0": "number frames"
        }
      },
      "getNumberOfParcelOwners(uint256,uint256)": {
        "params": {
          "frameKey": "Frame's timestamp",
          "parcelKey": "Parcel's key "
        },
        "returns": {
          "_0": "number of owners"
        }
      },
      "getOrCreateFrame(uint256)": {
        "params": {
          "timestamp": "In second."
        },
        "returns": {
          "_0": "frameTimestamp Frame's key (timestamp that indicated the beggining of a frame)."
        }
      },
      "getParcelKey(uint256,uint256)": {
        "params": {
          "frameKey": "Frame's timestamp",
          "index": "frameKeys array index "
        },
        "returns": {
          "_0": "parcelKey"
        }
      },
      "getParcelOwner(uint256,uint256)": {
        "params": {
          "frameKey": "Frame's timestamp",
          "parcelKey": "Parcel's key "
        },
        "returns": {
          "_0": "parcel's owner"
        }
      },
      "getParcelOwnerIndex(uint256,uint256,address)": {
        "params": {
          "frameKey": "Frame's timestamp",
          "owner": "Owners account address",
          "parcelKey": "Parcel's key "
        },
        "returns": {
          "_0": "owner's index"
        }
      },
      "getParcelPrice(uint256,uint256)": {
        "params": {
          "frameKey": "Frame's timestamp",
          "parcelKey": "Parcel's key "
        },
        "returns": {
          "_0": "price that the current owner set"
        }
      },
      "getParcelState(uint256,uint256)": {
        "params": {
          "frameKey": "Frame's timestamp",
          "parcelKey": "Parcel's key "
        },
        "returns": {
          "_0": "state of parcel"
        }
      },
      "getParcelsCount(uint256)": {
        "params": {
          "frameKey": "Frame's timestamp"
        },
        "returns": {
          "_0": "parcel count"
        }
      },
      "getRewardAmount(uint256)": {
        "params": {
          "frameKey": "Frame's timestamp"
        },
        "returns": {
          "_0": "award amount"
        }
      },
      "settleParcel(uint256,address)": {
        "params": {
          "frameKey": "Frame's timestamp",
          "owner": "Owner's address"
        }
      },
      "updateFramePrices(uint256)": {
        "details": "For developement purposes the new price is added as an inputFinal version should use uniswap's oracles",
        "params": {
          "PriceCumulative": "Cumulative price"
        }
      },
      "updateParcelPrice(uint256,uint256,uint256)": {
        "params": {
          "acquisitionPrice": "New acquisition price",
          "pairPrice": "Is trading pair's price (to get correct parcel key) ",
          "timestamp": "Frame's timestamp get's calculated from this value"
        }
      }
    },
    "title": "TWPM Market",
    "version": 1
  },
  "userdoc": {
    "kind": "user",
    "methods": {
      "AmountToApprove(uint256,uint256,uint256,uint256)": {
        "notice": "Calculate amout required to approve to buy a parcel"
      },
      "buyParcel(uint256,uint256,uint256)": {
        "notice": "Calculate amout required to approve to buy a parcel"
      },
      "clcFrameTimestamp(uint256)": {
        "notice": "Calculate frames timestamp (beggining of frame)"
      },
      "clcFramesLeft(uint256)": {
        "notice": "Calculate how many frames there are left untill given frame in input"
      },
      "clcParcelInterval(uint256)": {
        "notice": "Calculate bottom boundary of a parcel"
      },
      "clcSettleAmount(uint256,uint256,address)": {
        "notice": "Calculate owner's winning amount"
      },
      "clcShare(uint256,uint256,address)": {
        "notice": "Calculate owner's share based on the number of blocks the account owned the parcel"
      },
      "closeFrame(uint256)": {
        "notice": "Close frame"
      },
      "getApprovedAmount()": {
        "notice": "Get msg senders approved amount of accounting token to this contract (market)"
      },
      "getNumberOfFrameKeys()": {
        "notice": "Get number of frames"
      },
      "getNumberOfParcelOwners(uint256,uint256)": {
        "notice": "Get number of accounts that owned a specific parcel"
      },
      "getOrCreateFrame(uint256)": {
        "notice": "Create a frame"
      },
      "getParcelKey(uint256,uint256)": {
        "notice": "Get parcelKey from index in parcelKeys array"
      },
      "getParcelOwner(uint256,uint256)": {
        "notice": "Get parcel's owner"
      },
      "getParcelOwnerIndex(uint256,uint256,address)": {
        "notice": "Calculate parcel owner's index in the array of owners of the parcel"
      },
      "getParcelPrice(uint256,uint256)": {
        "notice": "Get current price of a parcel in a frame"
      },
      "getParcelState(uint256,uint256)": {
        "notice": "Get parcel's state"
      },
      "getParcelsCount(uint256)": {
        "notice": "Get no. of created parcels in a frame "
      },
      "getRewardAmount(uint256)": {
        "notice": "Get frame's award amount (accumulation of different parcel taxes)Remaining tax of a parcel owner get's returned after a sale (change of ownership). So the award amount isn't for sure untill the frame get's closed."
      },
      "settleParcel(uint256,address)": {
        "notice": "Settle parcel for a owner. Owner's share of the reward amount get's transfered to owner's account"
      },
      "updateFramePrices(uint256)": {
        "notice": "Update trading pair's prices in the frame"
      },
      "updateParcelPrice(uint256,uint256,uint256)": {
        "notice": "Owner can update parcel's price. Has to pay additional tax, or leftover tax gets' returned to him if the new price is lower"
      }
    },
    "version": 1
  }
}