{
  "contractName": "Market",
  "abi": [
    {
      "inputs": [
        {
          "internalType": "contract MarketFactory",
          "name": "_factory",
          "type": "address"
        },
        {
          "internalType": "contract IERC20",
          "name": "_token",
          "type": "address"
        },
        {
          "internalType": "contract IUniswapV2Pair",
          "name": "_uniswapPair",
          "type": "address"
        },
        {
          "internalType": "uint256",
          "name": "_period",
          "type": "uint256"
        },
        {
          "internalType": "uint256",
          "name": "_initTimestamp",
          "type": "uint256"
        },
        {
          "internalType": "uint256",
          "name": "_taxMarket",
          "type": "uint256"
        },
        {
          "internalType": "uint256",
          "name": "_feeMarket",
          "type": "uint256"
        },
        {
          "internalType": "uint256",
          "name": "_dPrice",
          "type": "uint256"
        }
      ],
      "stateMutability": "nonpayable",
      "type": "constructor"
    },
    {
      "anonymous": false,
      "inputs": [
        {
          "indexed": false,
          "internalType": "uint256",
          "name": "frameKey",
          "type": "uint256"
        }
      ],
      "name": "FrameUpdate",
      "type": "event"
    },
    {
      "anonymous": false,
      "inputs": [
        {
          "indexed": false,
          "internalType": "uint256",
          "name": "frameKey",
          "type": "uint256"
        },
        {
          "indexed": false,
          "internalType": "uint256",
          "name": "parcelKey",
          "type": "uint256"
        }
      ],
      "name": "ParcelUpdate",
      "type": "event"
    },
    {
      "inputs": [],
      "name": "accountingToken",
      "outputs": [
        {
          "internalType": "contract IERC20",
          "name": "",
          "type": "address"
        }
      ],
      "stateMutability": "view",
      "type": "function"
    },
    {
      "inputs": [],
      "name": "dPrice",
      "outputs": [
        {
          "internalType": "uint256",
          "name": "",
          "type": "uint256"
        }
      ],
      "stateMutability": "view",
      "type": "function"
    },
    {
      "inputs": [],
      "name": "factory",
      "outputs": [
        {
          "internalType": "contract MarketFactory",
          "name": "",
          "type": "address"
        }
      ],
      "stateMutability": "view",
      "type": "function"
    },
    {
      "inputs": [],
      "name": "feeMarket",
      "outputs": [
        {
          "internalType": "uint256",
          "name": "",
          "type": "uint256"
        }
      ],
      "stateMutability": "view",
      "type": "function"
    },
    {
      "inputs": [],
      "name": "feeProtocol",
      "outputs": [
        {
          "internalType": "uint256",
          "name": "",
          "type": "uint256"
        }
      ],
      "stateMutability": "view",
      "type": "function"
    },
    {
      "inputs": [
        {
          "internalType": "uint256",
          "name": "",
          "type": "uint256"
        }
      ],
      "name": "frames",
      "outputs": [
        {
          "internalType": "uint256",
          "name": "frameKey",
          "type": "uint256"
        },
        {
          "internalType": "enum Market.SFrame",
          "name": "state",
          "type": "uint8"
        },
        {
          "internalType": "uint256",
          "name": "priceAverage",
          "type": "uint256"
        },
        {
          "internalType": "uint256",
          "name": "rewardFund",
          "type": "uint256"
        },
        {
          "internalType": "uint256",
          "name": "oraclePrice0CumulativeStart",
          "type": "uint256"
        },
        {
          "internalType": "uint256",
          "name": "oraclePrice0CumulativeEnd",
          "type": "uint256"
        },
        {
          "internalType": "uint256",
          "name": "price0CumulativeEnd",
          "type": "uint256"
        },
        {
          "internalType": "uint256",
          "name": "oracleTimestampStart",
          "type": "uint256"
        },
        {
          "internalType": "uint256",
          "name": "oracleTimestampEnd",
          "type": "uint256"
        },
        {
          "internalType": "uint256",
          "name": "lastBlockNum",
          "type": "uint256"
        }
      ],
      "stateMutability": "view",
      "type": "function"
    },
    {
      "inputs": [
        {
          "internalType": "uint256",
          "name": "",
          "type": "uint256"
        }
      ],
      "name": "framesKeys",
      "outputs": [
        {
          "internalType": "uint256",
          "name": "",
          "type": "uint256"
        }
      ],
      "stateMutability": "view",
      "type": "function"
    },
    {
      "inputs": [],
      "name": "initTimestamp",
      "outputs": [
        {
          "internalType": "uint256",
          "name": "",
          "type": "uint256"
        }
      ],
      "stateMutability": "view",
      "type": "function"
    },
    {
      "inputs": [],
      "name": "ownerMarket",
      "outputs": [
        {
          "internalType": "address payable",
          "name": "",
          "type": "address"
        }
      ],
      "stateMutability": "view",
      "type": "function"
    },
    {
      "inputs": [],
      "name": "period",
      "outputs": [
        {
          "internalType": "uint256",
          "name": "",
          "type": "uint256"
        }
      ],
      "stateMutability": "view",
      "type": "function"
    },
    {
      "inputs": [],
      "name": "taxMarket",
      "outputs": [
        {
          "internalType": "uint256",
          "name": "",
          "type": "uint256"
        }
      ],
      "stateMutability": "view",
      "type": "function"
    },
    {
      "inputs": [],
      "name": "uniswapPair",
      "outputs": [
        {
          "internalType": "contract IUniswapV2Pair",
          "name": "",
          "type": "address"
        }
      ],
      "stateMutability": "view",
      "type": "function"
    },
    {
      "inputs": [
        {
          "internalType": "uint256",
          "name": "timestamp",
          "type": "uint256"
        }
      ],
      "name": "getOrCreateFrame",
      "outputs": [
        {
          "internalType": "uint256",
          "name": "",
          "type": "uint256"
        }
      ],
      "stateMutability": "nonpayable",
      "type": "function"
    },
    {
      "inputs": [
        {
          "internalType": "uint256",
          "name": "timestamp",
          "type": "uint256"
        }
      ],
      "name": "clcFrameTimestamp",
      "outputs": [
        {
          "internalType": "uint256",
          "name": "",
          "type": "uint256"
        }
      ],
      "stateMutability": "view",
      "type": "function"
    },
    {
      "inputs": [
        {
          "internalType": "uint256",
          "name": "value",
          "type": "uint256"
        }
      ],
      "name": "clcParcelInterval",
      "outputs": [
        {
          "internalType": "uint256",
          "name": "",
          "type": "uint256"
        }
      ],
      "stateMutability": "view",
      "type": "function"
    },
    {
      "inputs": [
        {
          "internalType": "uint256",
          "name": "frameKey",
          "type": "uint256"
        }
      ],
      "name": "clcFramesLeft",
      "outputs": [
        {
          "internalType": "uint256",
          "name": "",
          "type": "uint256"
        }
      ],
      "stateMutability": "view",
      "type": "function"
    },
    {
      "inputs": [
        {
          "internalType": "uint256",
          "name": "frameKey",
          "type": "uint256"
        },
        {
          "internalType": "uint256",
          "name": "parcelKey",
          "type": "uint256"
        }
      ],
      "name": "getCurrentPrice",
      "outputs": [
        {
          "internalType": "uint256",
          "name": "",
          "type": "uint256"
        }
      ],
      "stateMutability": "view",
      "type": "function"
    },
    {
      "inputs": [],
      "name": "getApprovedAmount",
      "outputs": [
        {
          "internalType": "uint256",
          "name": "",
          "type": "uint256"
        }
      ],
      "stateMutability": "view",
      "type": "function"
    },
    {
      "inputs": [
        {
          "internalType": "uint256",
          "name": "frameKey",
          "type": "uint256"
        }
      ],
      "name": "getRewardAmount",
      "outputs": [
        {
          "internalType": "uint256",
          "name": "",
          "type": "uint256"
        }
      ],
      "stateMutability": "view",
      "type": "function"
    },
    {
      "inputs": [
        {
          "internalType": "uint256",
          "name": "frameKey",
          "type": "uint256"
        },
        {
          "internalType": "uint256",
          "name": "parcelKey",
          "type": "uint256"
        }
      ],
      "name": "getNumberOfParcelOwners",
      "outputs": [
        {
          "internalType": "uint256",
          "name": "",
          "type": "uint256"
        }
      ],
      "stateMutability": "view",
      "type": "function"
    },
    {
      "inputs": [],
      "name": "getNumberOfFrameKeys",
      "outputs": [
        {
          "internalType": "uint256",
          "name": "",
          "type": "uint256"
        }
      ],
      "stateMutability": "view",
      "type": "function"
    },
    {
      "inputs": [
        {
          "internalType": "uint256",
          "name": "frameKey",
          "type": "uint256"
        },
        {
          "internalType": "uint256",
          "name": "parcelKey",
          "type": "uint256"
        },
        {
          "internalType": "address",
          "name": "owner",
          "type": "address"
        }
      ],
      "name": "getParcelOwnerIndex",
      "outputs": [
        {
          "internalType": "uint256",
          "name": "",
          "type": "uint256"
        }
      ],
      "stateMutability": "view",
      "type": "function"
    },
    {
      "inputs": [
        {
          "internalType": "uint256",
          "name": "frameKey",
          "type": "uint256"
        },
        {
          "internalType": "uint256",
          "name": "pairPrice",
          "type": "uint256"
        },
        {
          "internalType": "uint256",
          "name": "newSellPrice",
          "type": "uint256"
        },
        {
          "internalType": "uint256",
          "name": "timestamp",
          "type": "uint256"
        }
      ],
      "name": "AmountToApprove",
      "outputs": [
        {
          "internalType": "uint256",
          "name": "",
          "type": "uint256"
        }
      ],
      "stateMutability": "view",
      "type": "function"
    },
    {
      "inputs": [
        {
          "internalType": "uint256",
          "name": "timestamp",
          "type": "uint256"
        },
        {
          "internalType": "uint256",
          "name": "pairPrice",
          "type": "uint256"
        },
        {
          "internalType": "uint256",
          "name": "newSellPrice",
          "type": "uint256"
        }
      ],
      "name": "buyParcel",
      "outputs": [],
      "stateMutability": "payable",
      "type": "function"
    },
    {
      "inputs": [
        {
          "internalType": "uint256",
          "name": "PriceCumulative",
          "type": "uint256"
        }
      ],
      "name": "updateFramePrices",
      "outputs": [],
      "stateMutability": "nonpayable",
      "type": "function"
    },
    {
      "inputs": [
        {
          "internalType": "uint256",
          "name": "frameKey",
          "type": "uint256"
        }
      ],
      "name": "closeFrame",
      "outputs": [],
      "stateMutability": "nonpayable",
      "type": "function"
    },
    {
      "inputs": [
        {
          "internalType": "uint256",
          "name": "frameKey",
          "type": "uint256"
        },
        {
          "internalType": "address",
          "name": "owner",
          "type": "address"
        }
      ],
      "name": "settleParcel",
      "outputs": [],
      "stateMutability": "nonpayable",
      "type": "function"
    },
    {
      "inputs": [
        {
          "internalType": "uint256",
          "name": "frameKey",
          "type": "uint256"
        },
        {
          "internalType": "uint256",
          "name": "parcelKey",
          "type": "uint256"
        },
        {
          "internalType": "address",
          "name": "owner",
          "type": "address"
        }
      ],
      "name": "clcShare",
      "outputs": [
        {
          "internalType": "uint256",
          "name": "",
          "type": "uint256"
        }
      ],
      "stateMutability": "view",
      "type": "function"
    },
    {
      "inputs": [
        {
          "internalType": "uint256",
          "name": "frameKey",
          "type": "uint256"
        },
        {
          "internalType": "uint256",
          "name": "parcelKey",
          "type": "uint256"
        },
        {
          "internalType": "address",
          "name": "owner",
          "type": "address"
        }
      ],
      "name": "clcSettleAmount",
      "outputs": [
        {
          "internalType": "uint256",
          "name": "",
          "type": "uint256"
        }
      ],
      "stateMutability": "view",
      "type": "function"
    }
  ],
  "bytecode": "0x6080604052606460095569d3c21bcecceda1000000600a553480156200002457600080fd5b50604051620036573803806200365783398181016040528101906200004a9190620001da565b86600160006101000a81548173ffffffffffffffffffffffffffffffffffffffff021916908373ffffffffffffffffffffffffffffffffffffffff16021790555033600260006101000a81548173ffffffffffffffffffffffffffffffffffffffff021916908373ffffffffffffffffffffffffffffffffffffffff1602179055508460038190555083600481905550826008819055508160078190555085600560006101000a81548173ffffffffffffffffffffffffffffffffffffffff021916908373ffffffffffffffffffffffffffffffffffffffff16021790555080600681905550876000806101000a81548173ffffffffffffffffffffffffffffffffffffffff021916908373ffffffffffffffffffffffffffffffffffffffff16021790555050505050505050506200038a565b6000815190506200018f8162000322565b92915050565b600081519050620001a6816200033c565b92915050565b600081519050620001bd8162000356565b92915050565b600081519050620001d48162000370565b92915050565b600080600080600080600080610100898b031215620001fe57620001fd6200031d565b5b60006200020e8b828c01620001ac565b9850506020620002218b828c016200017e565b9750506040620002348b828c0162000195565b9650506060620002478b828c01620001c3565b95505060806200025a8b828c01620001c3565b94505060a06200026d8b828c01620001c3565b93505060c0620002808b828c01620001c3565b92505060e0620002938b828c01620001c3565b9150509295985092959890939650565b6000620002b082620002f3565b9050919050565b6000620002c482620002a3565b9050919050565b6000620002d882620002a3565b9050919050565b6000620002ec82620002a3565b9050919050565b600073ffffffffffffffffffffffffffffffffffffffff82169050919050565b6000819050919050565b600080fd5b6200032d81620002b7565b81146200033957600080fd5b50565b6200034781620002cb565b81146200035357600080fd5b50565b6200036181620002df565b81146200036d57600080fd5b50565b6200037b8162000313565b81146200038757600080fd5b50565b6132bd806200039a6000396000f3fe6080604052600436106101c25760003560e01c80635619e1f5116100f75780639d750e3211610095578063c84993af11610064578063c84993af146106c8578063da68cf8b14610705578063ef78d4fd14610730578063fc9507021461075b576101c2565b80639d750e3214610601578063a10340bc1461062c578063c45a015514610672578063c816841b1461069d576101c2565b80637d6ae6a0116100d15780637d6ae6a0146105525780637e9966391461058f57806389da88a3146105ba57806395333194146105e5576101c2565b80635619e1f5146104ad5780635b3ad63e146104ea5780637358c57a14610527576101c2565b806331e592e211610164578063450847751161013e57806345084775146103ef578063499a0fc41461041a5780634f3ab71f14610445578063527eb4bc14610482576101c2565b806331e592e21461035e5780633d7a7eac14610387578063410f0710146103c4576101c2565b806318ff0e07116101a057806318ff0e071461027e5780631e501486146102bb5780632a0efd44146102f857806331cf77b414610321576101c2565b806304673368146101c7578063050e8840146102045780630cbcff8f14610241575b600080fd5b3480156101d357600080fd5b506101ee60048036038101906101e99190612764565b610784565b6040516101fb9190612c5f565b60405180910390f35b34801561021057600080fd5b5061022b600480360381019061022691906126ca565b6107b9565b6040516102389190612c5f565b60405180910390f35b34801561024d57600080fd5b50610268600480360381019061026391906126ca565b6107dd565b6040516102759190612c5f565b60405180910390f35b34801561028a57600080fd5b506102a560048036038101906102a091906126ca565b610998565b6040516102b29190612c5f565b60405180910390f35b3480156102c757600080fd5b506102e260048036038101906102dd91906127a4565b6109f0565b6040516102ef9190612c5f565b60405180910390f35b34801561030457600080fd5b5061031f600480360381019061031a91906126ca565b610cbe565b005b34801561032d57600080fd5b5061034860048036038101906103439190612764565b610e15565b6040516103559190612c5f565b60405180910390f35b34801561036a57600080fd5b5061038560048036038101906103809190612724565b610e4d565b005b34801561039357600080fd5b506103ae60048036038101906103a9919061284a565b610fbf565b6040516103bb9190612c5f565b60405180910390f35b3480156103d057600080fd5b506103d9611125565b6040516103e69190612c5f565b60405180910390f35b3480156103fb57600080fd5b5061040461112b565b6040516104119190612a41565b60405180910390f35b34801561042657600080fd5b5061042f611151565b60405161043c9190612c5f565b60405180910390f35b34801561045157600080fd5b5061046c600480360381019061046791906127a4565b611157565b6040516104799190612c5f565b60405180910390f35b34801561048e57600080fd5b50610497611242565b6040516104a49190612c5f565b60405180910390f35b3480156104b957600080fd5b506104d460048036038101906104cf91906127a4565b611248565b6040516104e19190612c5f565b60405180910390f35b3480156104f657600080fd5b50610511600480360381019061050c91906126ca565b61129a565b60405161051e9190612c5f565b60405180910390f35b34801561053357600080fd5b5061053c611308565b6040516105499190612c5f565b60405180910390f35b34801561055e57600080fd5b50610579600480360381019061057491906126ca565b61130e565b6040516105869190612c5f565b60405180910390f35b34801561059b57600080fd5b506105a4611351565b6040516105b19190612c5f565b60405180910390f35b3480156105c657600080fd5b506105cf611357565b6040516105dc9190612c5f565b60405180910390f35b6105ff60048036038101906105fa91906127f7565b611364565b005b34801561060d57600080fd5b50610616611b40565b6040516106239190612c5f565b60405180910390f35b34801561063857600080fd5b50610653600480360381019061064e91906126ca565b611bf9565b6040516106699a99989796959493929190612c7a565b60405180910390f35b34801561067e57600080fd5b50610687611c5a565b6040516106949190612b44565b60405180910390f35b3480156106a957600080fd5b506106b2611c7e565b6040516106bf9190612b29565b60405180910390f35b3480156106d457600080fd5b506106ef60048036038101906106ea91906126ca565b611ca4565b6040516106fc9190612c5f565b60405180910390f35b34801561071157600080fd5b5061071a611cc4565b6040516107279190612b0e565b60405180910390f35b34801561073c57600080fd5b50610745611cea565b6040516107529190612c5f565b60405180910390f35b34801561076757600080fd5b50610782600480360381019061077d91906126ca565b611cf0565b005b6000600b6000848152602001908152602001600020600a01600083815260200190815260200160002060020154905092915050565b600c81815481106107c957600080fd5b906000526020600020016000915090505481565b6000600454821015610824576040517f08c379a000000000000000000000000000000000000000000000000000000000815260040161081b90612bbf565b60405180910390fd5b600061082f8361129a565b9050600060038111156108455761084461305d565b5b600b600083815260200190815260200160002060010160009054906101000a900460ff16600381111561087b5761087a61305d565b5b146108895780915050610993565b6108924261129a565b8110156108d4576040517f08c379a00000000000000000000000000000000000000000000000000000000081526004016108cb90612b9f565b60405180910390fd5b80600b6000838152602001908152602001600020600001819055506001600b600083815260200190815260200160002060010160006101000a81548160ff021916908360038111156109295761092861305d565b5b0217905550600c8190806001815401808255809150506001900390600052602060002001600090919091909150557f163614e6e9ce9df7687928015fd2c748b69c5136db886e57f09170b251b58e87816040516109869190612c5f565b60405180910390a1809150505b919050565b60008082116109ab5760065490506109eb565b6109e86006546109da6006546109cc600654876123dd90919063ffffffff16565b6123f390919063ffffffff16565b61240990919063ffffffff16565b90505b919050565b6000806109fe858585611157565b9050610a0a8585610e15565b8110610a4b576040517f08c379a0000000000000000000000000000000000000000000000000000000008152600401610a4290612c3f565b60405180910390fd5b6000600b6000878152602001908152602001600020600a0160008681526020019081526020016000206040518060800160405290816000820154815260200160018201805480602002602001604051908101604052809291908181526020016000905b82821015610b4057838290600052602060002090600202016040518060400160405290816000820160009054906101000a900473ffffffffffffffffffffffffffffffffffffffff1673ffffffffffffffffffffffffffffffffffffffff1673ffffffffffffffffffffffffffffffffffffffff16815260200160018201548152505081526020019060010190610aae565b505050508152602001600282015481526020016003820160009054906101000a900460ff166002811115610b7757610b7661305d565b5b6002811115610b8957610b8861305d565b5b815250509050600081602001518381518110610ba857610ba761308c565b5b60200260200101516020015190506000600b600089815260200190815260200160002060090154905060008360200151600081518110610beb57610bea61308c565b5b60200260200101516020015190506000856001610c088c8c610e15565b610c129190612e39565b1415610c2057829050610c52565b8460200151600187610c329190612d27565b81518110610c4357610c4261308c565b5b60200260200101516020015190505b6000610c67858361241f90919063ffffffff16565b90506000610c7e848661241f90919063ffffffff16565b90506000610ca982610c9b600a54866123f390919063ffffffff16565b6123dd90919063ffffffff16565b90508099505050505050505050509392505050565b6000610cc94261129a565b905043600b600083815260200190815260200160002060090181905550610d0f615460610d016003548461240990919063ffffffff16565b61241f90919063ffffffff16565b4211610d875781600b60008381526020019081526020016000206004018190555042600b6000838152602001908152602001600020600701819055507f163614e6e9ce9df7687928015fd2c748b69c5136db886e57f09170b251b58e8781604051610d7a9190612c5f565b60405180910390a1610e11565b610d9c6003548261240990919063ffffffff16565b4211610e105781600b60008381526020019081526020016000206005018190555042600b6000838152602001908152602001600020600801819055507f163614e6e9ce9df7687928015fd2c748b69c5136db886e57f09170b251b58e8781604051610e079190612c5f565b60405180910390a15b5b5050565b6000600b6000848152602001908152602001600020600a01600083815260200190815260200160002060010180549050905092915050565b60026003811115610e6157610e6061305d565b5b600b600084815260200190815260200160002060010160009054906101000a900460ff166003811115610e9757610e9661305d565b5b14610ed7576040517f08c379a0000000000000000000000000000000000000000000000000000000008152600401610ece90612bdf565b60405180910390fd5b6000610ef8600b600085815260200190815260200160002060020154610998565b90506000610f07848385611248565b9050600160009054906101000a900473ffffffffffffffffffffffffffffffffffffffff1673ffffffffffffffffffffffffffffffffffffffff1663a9059cbb84836040518363ffffffff1660e01b8152600401610f66929190612ae5565b602060405180830381600087803b158015610f8057600080fd5b505af1158015610f94573d6000803e3d6000fd5b505050506040513d601f19601f82011682018060405250810190610fb8919061269d565b5050505050565b600080610fcb85610998565b90506000610fea610fdb8561129a565b8561241f90919063ffffffff16565b9050600061101760035461100984600a546123f390919063ffffffff16565b6123dd90919063ffffffff16565b905060006110248961130e565b9050600061106482611056620186a06110486008548d6123f390919063ffffffff16565b6123dd90919063ffffffff16565b6123f390919063ffffffff16565b90506000611092620186a06110846008548c6123f390919063ffffffff16565b6123dd90919063ffffffff16565b90506110bb600a546110ad86846123f390919063ffffffff16565b6123dd90919063ffffffff16565b90506110d0818361240990919063ffffffff16565b9150600061111183600b60008f8152602001908152602001600020600a0160008a81526020019081526020016000206002015461240990919063ffffffff16565b905080975050505050505050949350505050565b60075481565b600260009054906101000a900473ffffffffffffffffffffffffffffffffffffffff1681565b60065481565b600080600090505b6111698585610e15565b81101561122d578273ffffffffffffffffffffffffffffffffffffffff16600b6000878152602001908152602001600020600a01600086815260200190815260200160002060010182815481106111c3576111c261308c565b5b906000526020600020906002020160000160009054906101000a900473ffffffffffffffffffffffffffffffffffffffff1673ffffffffffffffffffffffffffffffffffffffff16141561121a578091505061123b565b808061122590612fb6565b91505061115f565b506112388484610e15565b90505b9392505050565b60095481565b6000611291600a54611283600b6000888152602001908152602001600020600301546112758888886109f0565b6123f390919063ffffffff16565b6123dd90919063ffffffff16565b90509392505050565b600060045482116112af576004549050611303565b6113006004546112f26003546112e46003546112d66004548961241f90919063ffffffff16565b6123dd90919063ffffffff16565b6123f390919063ffffffff16565b61240990919063ffffffff16565b90505b919050565b60045481565b600061134a600161133c60035461132e428761241f90919063ffffffff16565b6123dd90919063ffffffff16565b61240990919063ffffffff16565b9050919050565b60085481565b6000600c80549050905090565b600061136f846107dd565b9050600061137d8285612435565b9050600061139c61138d4261129a565b4261241f90919063ffffffff16565b905060006113c96003546113bb84600a546123f390919063ffffffff16565b6123dd90919063ffffffff16565b905060006113d68861130e565b9050600061141682611408620186a06113fa6008548c6123f390919063ffffffff16565b6123dd90919063ffffffff16565b6123f390919063ffffffff16565b9050600061146a600a5461145c8661144e620186a06114406008548f6123f390919063ffffffff16565b6123dd90919063ffffffff16565b6123f390919063ffffffff16565b6123dd90919063ffffffff16565b905061147f818361240990919063ffffffff16565b91506114be82600b60008a8152602001908152602001600020600a0160008981526020019081526020016000206002015461240990919063ffffffff16565b600160009054906101000a900473ffffffffffffffffffffffffffffffffffffffff1673ffffffffffffffffffffffffffffffffffffffff1663dd62ed3e33306040518363ffffffff1660e01b815260040161151b929190612a85565b60206040518083038186803b15801561153357600080fd5b505afa158015611547573d6000803e3d6000fd5b505050506040513d601f19601f8201168201806040525081019061156b91906126f7565b10156115ac576040517f08c379a00000000000000000000000000000000000000000000000000000000081526004016115a390612bff565b60405180910390fd5b600160009054906101000a900473ffffffffffffffffffffffffffffffffffffffff1673ffffffffffffffffffffffffffffffffffffffff166323b872dd333061162986600b60008e8152602001908152602001600020600a0160008d81526020019081526020016000206002015461240990919063ffffffff16565b6040518463ffffffff1660e01b815260040161164793929190612aae565b602060405180830381600087803b15801561166157600080fd5b505af1158015611675573d6000803e3d6000fd5b505050506040513d601f19601f82011682018060405250810190611699919061269d565b506116c382600b60008a81526020019081526020016000206003015461240990919063ffffffff16565b600b600089815260200190815260200160002060030181905550600160028111156116f1576116f061305d565b5b600b6000898152602001908152602001600020600a01600088815260200190815260200160002060030160009054906101000a900460ff16600281111561173b5761173a61305d565b5b14156119e1576000600b6000898152602001908152602001600020600a01600088815260200190815260200160002060020154905060006117c2600a546117b4886117a6620186a0611798600854896123f390919063ffffffff16565b6123dd90919063ffffffff16565b6123f390919063ffffffff16565b6123dd90919063ffffffff16565b90506000611802866117f4620186a06117e6600854886123f390919063ffffffff16565b6123dd90919063ffffffff16565b6123f390919063ffffffff16565b9050611817828261240990919063ffffffff16565b90506000611858600b60008d8152602001908152602001600020600a0160008c8152602001908152602001600020600201548361240990919063ffffffff16565b90506000611879600161186b8e8e610e15565b61241f90919063ffffffff16565b9050600160009054906101000a900473ffffffffffffffffffffffffffffffffffffffff1673ffffffffffffffffffffffffffffffffffffffff1663a9059cbb600b60008f8152602001908152602001600020600a0160008e815260200190815260200160002060010183815481106118f5576118f461308c565b5b906000526020600020906002020160000160009054906101000a900473ffffffffffffffffffffffffffffffffffffffff16846040518363ffffffff1660e01b8152600401611945929190612a5c565b602060405180830381600087803b15801561195f57600080fd5b505af1158015611973573d6000803e3d6000fd5b505050506040513d601f19601f82011682018060405250810190611997919061269d565b506119c183600b60008f81526020019081526020016000206003015461241f90919063ffffffff16565b600b60008e81526020019081526020016000206003018190555050505050505b600b6000888152602001908152602001600020600a01600087815260200190815260200160002060010160405180604001604052803373ffffffffffffffffffffffffffffffffffffffff16815260200143815250908060018154018082558091505060019003906000526020600020906002020160009091909190915060008201518160000160006101000a81548173ffffffffffffffffffffffffffffffffffffffff021916908373ffffffffffffffffffffffffffffffffffffffff1602179055506020820151816001015550506001600b6000898152602001908152602001600020600a01600088815260200190815260200160002060030160006101000a81548160ff02191690836002811115611b0057611aff61305d565b5b021790555087600b6000898152602001908152602001600020600a0160008881526020019081526020016000206002018190555050505050505050505050565b600080600160009054906101000a900473ffffffffffffffffffffffffffffffffffffffff1673ffffffffffffffffffffffffffffffffffffffff1663dd62ed3e33306040518363ffffffff1660e01b8152600401611ba0929190612a85565b60206040518083038186803b158015611bb857600080fd5b505afa158015611bcc573d6000803e3d6000fd5b505050506040513d601f19601f82011682018060405250810190611bf091906126f7565b90508091505090565b600b6020528060005260406000206000915090508060000154908060010160009054906101000a900460ff1690806002015490806003015490806004015490806005015490806006015490806007015490806008015490806009015490508a565b60008054906101000a900473ffffffffffffffffffffffffffffffffffffffff1681565b600560009054906101000a900473ffffffffffffffffffffffffffffffffffffffff1681565b6000600b6000838152602001908152602001600020600301549050919050565b600160009054906101000a900473ffffffffffffffffffffffffffffffffffffffff1681565b60035481565b60016003811115611d0457611d0361305d565b5b600b600083815260200190815260200160002060010160009054906101000a900460ff166003811115611d3a57611d3961305d565b5b14611d7a576040517f08c379a0000000000000000000000000000000000000000000000000000000008152600401611d7190612b7f565b60405180910390fd5b42611d906003548361240990919063ffffffff16565b1115611dd1576040517f08c379a0000000000000000000000000000000000000000000000000000000008152600401611dc890612b5f565b60405180910390fd5b6000600b600083815260200190815260200160002060040154111580611e0e57506000600b60008381526020019081526020016000206005015411155b15611e53576003600b600083815260200190815260200160002060010160006101000a81548160ff02191690836003811115611e4d57611e4c61305d565b5b02179055505b600b600082815260200190815260200160002060050154600b6000838152602001908152602001600020600401541415611ec7576003600b600083815260200190815260200160002060010160006101000a81548160ff02191690836003811115611ec157611ec061305d565b5b02179055505b6002600b600083815260200190815260200160002060010160006101000a81548160ff02191690836003811115611f0157611f0061305d565b5b02179055506000611f47600b600084815260200190815260200160002060040154600b60008581526020019081526020016000206005015461241f90919063ffffffff16565b90506000611f8a600b600085815260200190815260200160002060070154600b60008681526020019081526020016000206008015461241f90919063ffffffff16565b9050611fc26040518060200160405280847bffffffffffffffffffffffffffffffffffffffffffffffffffffffff1681525082612526565b600001517bffffffffffffffffffffffffffffffffffffffffffffffffffffffff16600b60008581526020019081526020016000206002018190555061202d600a546070600b600087815260200190815260200160002060020154901c6123f390919063ffffffff16565b600b6000858152602001908152602001600020600201819055506120897406d79f82328ea3da61e066ebb2f88a0000000000006070600b600087815260200190815260200160002060020154901b6123dd90919063ffffffff16565b600b60008581526020019081526020016000206002018190555060006120e5620186a06120d7600754600b6000898152602001908152602001600020600301546123f390919063ffffffff16565b6123dd90919063ffffffff16565b90506000612129620186a061211b600954600b60008a8152602001908152602001600020600301546123f390919063ffffffff16565b6123dd90919063ffffffff16565b90506121668161215884600b60008a81526020019081526020016000206003015461241f90919063ffffffff16565b61241f90919063ffffffff16565b600b600087815260200190815260200160002060030181905550600160009054906101000a900473ffffffffffffffffffffffffffffffffffffffff1673ffffffffffffffffffffffffffffffffffffffff1663a9059cbb600260009054906101000a900473ffffffffffffffffffffffffffffffffffffffff16846040518363ffffffff1660e01b81526004016121ff929190612a5c565b602060405180830381600087803b15801561221957600080fd5b505af115801561222d573d6000803e3d6000fd5b505050506040513d601f19601f82011682018060405250810190612251919061269d565b50600160009054906101000a900473ffffffffffffffffffffffffffffffffffffffff1673ffffffffffffffffffffffffffffffffffffffff1663a9059cbb60008054906101000a900473ffffffffffffffffffffffffffffffffffffffff1673ffffffffffffffffffffffffffffffffffffffff16638da5cb5b6040518163ffffffff1660e01b815260040160206040518083038186803b1580156122f657600080fd5b505afa15801561230a573d6000803e3d6000fd5b505050506040513d601f19601f8201168201806040525081019061232e9190612670565b836040518363ffffffff1660e01b815260040161234c929190612ae5565b602060405180830381600087803b15801561236657600080fd5b505af115801561237a573d6000803e3d6000fd5b505050506040513d601f19601f8201168201806040525081019061239e919061269d565b507f163614e6e9ce9df7687928015fd2c748b69c5136db886e57f09170b251b58e87856040516123ce9190612c5f565b60405180910390a15050505050565b600081836123eb9190612dae565b905092915050565b600081836124019190612ddf565b905092915050565b600081836124179190612d27565b905092915050565b6000818361242d9190612e39565b905092915050565b60008061244183610998565b9050600060028111156124575761245661305d565b5b600b6000868152602001908152602001600020600a01600083815260200190815260200160002060030160009054906101000a900460ff1660028111156124a1576124a061305d565b5b146124af5780915050612520565b80600b6000868152602001908152602001600020600a01600083815260200190815260200160002060000181905550600b6000858152602001908152602001600020600b01819080600181540180825580915050600190039060005260206000200160009091909190915055809150505b92915050565b61252e6125d6565b6000826dffffffffffffffffffffffffffff161415612582576040517f08c379a000000000000000000000000000000000000000000000000000000000815260040161257990612c1f565b60405180910390fd5b6040518060200160405280836dffffffffffffffffffffffffffff1685600001516125ad9190612d7d565b7bffffffffffffffffffffffffffffffffffffffffffffffffffffffff16815250905092915050565b604051806020016040528060007bffffffffffffffffffffffffffffffffffffffffffffffffffffffff1681525090565b60008135905061261681613242565b92915050565b60008151905061262b81613242565b92915050565b60008151905061264081613259565b92915050565b60008135905061265581613270565b92915050565b60008151905061266a81613270565b92915050565b600060208284031215612686576126856130bb565b5b60006126948482850161261c565b91505092915050565b6000602082840312156126b3576126b26130bb565b5b60006126c184828501612631565b91505092915050565b6000602082840312156126e0576126df6130bb565b5b60006126ee84828501612646565b91505092915050565b60006020828403121561270d5761270c6130bb565b5b600061271b8482850161265b565b91505092915050565b6000806040838503121561273b5761273a6130bb565b5b600061274985828601612646565b925050602061275a85828601612607565b9150509250929050565b6000806040838503121561277b5761277a6130bb565b5b600061278985828601612646565b925050602061279a85828601612646565b9150509250929050565b6000806000606084860312156127bd576127bc6130bb565b5b60006127cb86828701612646565b93505060206127dc86828701612646565b92505060406127ed86828701612607565b9150509250925092565b6000806000606084860312156128105761280f6130bb565b5b600061281e86828701612646565b935050602061282f86828701612646565b925050604061284086828701612646565b9150509250925092565b60008060008060808587031215612864576128636130bb565b5b600061287287828801612646565b945050602061288387828801612646565b935050604061289487828801612646565b92505060606128a587828801612646565b91505092959194509250565b6128ba81612f02565b82525050565b6128c981612e7f565b82525050565b6128d881612e6d565b82525050565b6128e781612f14565b82525050565b6128f681612f38565b82525050565b61290581612f5c565b82525050565b61291481612f80565b82525050565b6000612927601a83612d16565b9150612932826130c0565b602082019050919050565b600061294a601083612d16565b9150612955826130e9565b602082019050919050565b600061296d601a83612d16565b915061297882613112565b602082019050919050565b6000612990602c83612d16565b915061299b8261313b565b604082019050919050565b60006129b3601083612d16565b91506129be8261318a565b602082019050919050565b60006129d6601c83612d16565b91506129e1826131b3565b602082019050919050565b60006129f9601783612d16565b9150612a04826131dc565b602082019050919050565b6000612a1c601483612d16565b9150612a2782613205565b602082019050919050565b612a3b81612ef8565b82525050565b6000602082019050612a5660008301846128c0565b92915050565b6000604082019050612a7160008301856128b1565b612a7e6020830184612a32565b9392505050565b6000604082019050612a9a60008301856128cf565b612aa760208301846128cf565b9392505050565b6000606082019050612ac360008301866128cf565b612ad060208301856128cf565b612add6040830184612a32565b949350505050565b6000604082019050612afa60008301856128cf565b612b076020830184612a32565b9392505050565b6000602082019050612b2360008301846128de565b92915050565b6000602082019050612b3e60008301846128ed565b92915050565b6000602082019050612b5960008301846128fc565b92915050565b60006020820190508181036000830152612b788161291a565b9050919050565b60006020820190508181036000830152612b988161293d565b9050919050565b60006020820190508181036000830152612bb881612960565b9050919050565b60006020820190508181036000830152612bd881612983565b9050919050565b60006020820190508181036000830152612bf8816129a6565b9050919050565b60006020820190508181036000830152612c18816129c9565b9050919050565b60006020820190508181036000830152612c38816129ec565b9050919050565b60006020820190508181036000830152612c5881612a0f565b9050919050565b6000602082019050612c746000830184612a32565b92915050565b600061014082019050612c90600083018d612a32565b612c9d602083018c61290b565b612caa604083018b612a32565b612cb7606083018a612a32565b612cc46080830189612a32565b612cd160a0830188612a32565b612cde60c0830187612a32565b612ceb60e0830186612a32565b612cf9610100830185612a32565b612d07610120830184612a32565b9b9a5050505050505050505050565b600082825260208201905092915050565b6000612d3282612ef8565b9150612d3d83612ef8565b9250827fffffffffffffffffffffffffffffffffffffffffffffffffffffffffffffffff03821115612d7257612d71612fff565b5b828201905092915050565b6000612d8882612ed0565b9150612d9383612ed0565b925082612da357612da261302e565b5b828204905092915050565b6000612db982612ef8565b9150612dc483612ef8565b925082612dd457612dd361302e565b5b828204905092915050565b6000612dea82612ef8565b9150612df583612ef8565b9250817fffffffffffffffffffffffffffffffffffffffffffffffffffffffffffffffff0483118215151615612e2e57612e2d612fff565b5b828202905092915050565b6000612e4482612ef8565b9150612e4f83612ef8565b925082821015612e6257612e61612fff565b5b828203905092915050565b6000612e7882612eb0565b9050919050565b6000612e8a82612eb0565b9050919050565b60008115159050919050565b6000819050612eab8261322e565b919050565b600073ffffffffffffffffffffffffffffffffffffffff82169050919050565b60007bffffffffffffffffffffffffffffffffffffffffffffffffffffffff82169050919050565b6000819050919050565b6000612f0d82612f92565b9050919050565b6000612f1f82612f26565b9050919050565b6000612f3182612eb0565b9050919050565b6000612f4382612f4a565b9050919050565b6000612f5582612eb0565b9050919050565b6000612f6782612f6e565b9050919050565b6000612f7982612eb0565b9050919050565b6000612f8b82612e9d565b9050919050565b6000612f9d82612fa4565b9050919050565b6000612faf82612eb0565b9050919050565b6000612fc182612ef8565b91507fffffffffffffffffffffffffffffffffffffffffffffffffffffffffffffffff821415612ff457612ff3612fff565b5b600182019050919050565b7f4e487b7100000000000000000000000000000000000000000000000000000000600052601160045260246000fd5b7f4e487b7100000000000000000000000000000000000000000000000000000000600052601260045260246000fd5b7f4e487b7100000000000000000000000000000000000000000000000000000000600052602160045260246000fd5b7f4e487b7100000000000000000000000000000000000000000000000000000000600052603260045260246000fd5b600080fd5b7f4652414d4520454e442054494d45204e4f542052454143484544000000000000600082015250565b7f4652414d45204e4f54204f50454e454400000000000000000000000000000000600082015250565b7f43414e275420435245415445204652414d4520494e2050415354000000000000600082015250565b7f54494d455354414d50204245464f524520494e495449414c2054494d4553544160008201527f4d50204f46204d41524b45540000000000000000000000000000000000000000602082015250565b7f4652414d45204e4f5420434c4f53454400000000000000000000000000000000600082015250565b7f415050524f56454420414d4f554e5420495320544f4f20534d414c4c00000000600082015250565b7f4669786564506f696e743a204449565f42595f5a45524f000000000000000000600082015250565b7f4f574e455220444f4553204e4f54204558495354000000000000000000000000600082015250565b6004811061323f5761323e61305d565b5b50565b61324b81612e6d565b811461325657600080fd5b50565b61326281612e91565b811461326d57600080fd5b50565b61327981612ef8565b811461328457600080fd5b5056fea264697066735822122068b0fc3de239507372816bf00490703c5083291c8c91d20978ccdf286ddb733764736f6c63430008060033",
  "immutableReferences": {},
  "source": "// SPDX-License-Identifier: MIT\r\npragma solidity >=0.5.0;\r\n//pragma experimental ABIEncoderV2;\r\n\r\nimport \"./MarketFactory.sol\";\r\nimport \"@uniswap/v2-core/contracts/interfaces/IUniswapV2Pair.sol\";\r\nimport \"@uniswap/v2-periphery/contracts/libraries/UniswapV2OracleLibrary.sol\";\r\nimport \"@uniswap/lib/contracts/libraries/FixedPoint.sol\";\r\nimport \"@openzeppelin/contracts/token/ERC20/IERC20.sol\";\r\nimport \"@openzeppelin/contracts/utils/math/SafeMath.sol\";\r\n\r\n/// @title TWPM Market\r\n/// @author UniHedge\r\n/// @dev All function calls are currently implemented without side effects\r\ncontract Market {\r\n\r\n    using SafeMath for uint;\r\n    //Contract for creating markets\r\n    MarketFactory public factory;\r\n    //ERC20 token used for buyng parcels in this contract \r\n    IERC20 public accountingToken;\r\n    //Owner of this market\r\n    address payable public ownerMarket;\r\n    //Length of a frame\r\n    uint public period;\r\n    //Contract creation time\r\n    uint public initTimestamp; \r\n    //Token pair on Uniswap\r\n    IUniswapV2Pair public uniswapPair;\r\n    //Range of a parcel\r\n    uint public dPrice;\r\n    //Fee that gets to market owner\r\n    uint public feeMarket;\r\n    //Tax on parcels\r\n    uint public taxMarket;\r\n    //Protocol fee\r\n    uint public feeProtocol = 100;\r\n    //Scalar number used for calculating precentages\r\n    uint scalar = 1e24;\r\n\r\n\r\n    enum SFrame {NULL, OPENED, CLOSED, INVALID}\r\n    struct Frame {\r\n        uint frameKey;\r\n        SFrame state;\r\n        uint priceAverage;\r\n        uint rewardFund;\r\n        uint oraclePrice0CumulativeStart;\r\n        uint oraclePrice0CumulativeEnd;\r\n        uint price0CumulativeEnd;\r\n        uint oracleTimestampStart;\r\n        uint oracleTimestampEnd;\r\n        uint lastBlockNum;\r\n        mapping(uint => Parcel) parcels;\r\n        uint[] parcelKeys;\r\n    }\r\n\r\n    event FrameUpdate(uint frameKey);\r\n\r\n    mapping(uint => Frame) public frames;\r\n    uint[] public framesKeys;\r\n\r\n    struct ParcelOwner {\r\n        address payable owner;\r\n        uint blockNum;\r\n    }\r\n\r\n    enum SParcel {NULL, BOUGHT, RESOLVED}\r\n    struct Parcel {\r\n        uint parcelKey;\r\n        ParcelOwner[] parcelOwners;\r\n        uint acquisitionPrice;\r\n        SParcel state;\r\n    }\r\n\r\n    event ParcelUpdate(uint frameKey, uint parcelKey);\r\n\r\n    constructor(MarketFactory _factory, IERC20 _token, IUniswapV2Pair _uniswapPair, uint _period, uint _initTimestamp, uint _taxMarket, uint _feeMarket, uint _dPrice ) {\r\n        accountingToken = _token;\r\n        ownerMarket = payable(msg.sender);\r\n        period = _period;\r\n        initTimestamp = _initTimestamp; \r\n        taxMarket = _taxMarket;\r\n        feeMarket = _feeMarket;\r\n        uniswapPair = _uniswapPair;\r\n        dPrice = _dPrice;\r\n        factory = _factory;\r\n    }\r\n\r\n\r\n    /// @notice Create a frame\r\n    /// @param timestamp In second.\r\n    /// @return frameTimestamp Frame's key (timestamp that indicated the beggining of a frame).\r\n    function getOrCreateFrame(uint timestamp) public returns (uint){\r\n        require(timestamp >= initTimestamp, \"TIMESTAMP BEFORE INITIAL TIMESTAMP OF MARKET\");\r\n        //Get start timestamp of a frame\r\n        uint frameTimestamp = clcFrameTimestamp(timestamp);\r\n        //Check if frame exists\r\n        if (frames[frameTimestamp].state != SFrame.NULL) return frameTimestamp;\r\n        //Check if frame startParcel number is before current Parcel number\r\n        require(frameTimestamp >= clcFrameTimestamp(block.timestamp), \"CAN'T CREATE FRAME IN PAST\");\r\n        //Add frame\r\n        frames[frameTimestamp].frameKey = frameTimestamp;\r\n        frames[frameTimestamp].state = SFrame.OPENED; //check if other parameters are at zero\r\n        framesKeys.push(frameTimestamp);\r\n        emit FrameUpdate(frameTimestamp);\r\n        return frameTimestamp;\r\n    }\r\n\r\n    /// @notice Calculate frames timestamp (beggining of frame)\r\n    /// @param timestamp In seconds\r\n    /// @return frame's timestamp (key)\r\n    function clcFrameTimestamp(uint timestamp) public view returns (uint){\r\n        if (timestamp <= initTimestamp) return initTimestamp;\r\n        return ((timestamp.sub(initTimestamp)).div(period)).mul(period).add(initTimestamp);\r\n    }\r\n\r\n    /// @notice Calculate bottom boundary of a parcel\r\n    /// @param value Arbitary price of market's Uniswap pair\r\n    /// @return parcel key (bottom boundary)\r\n    function clcParcelInterval(uint value) public view returns (uint){\r\n        if (value <= 0) return dPrice;\r\n        return value.div(dPrice).mul(dPrice).add(dPrice);\r\n    }\r\n\r\n    /// @notice Calculate how many frames there are left untill given frame in input\r\n    /// @param frameKey Timestamp of an arbitary frame in the future\r\n    /// @return number of frames (whole numbers: n=0,1,2...)\r\n    function clcFramesLeft(uint frameKey) public view returns (uint){                      \r\n        return (frameKey.sub(block.timestamp)).div(period).add(1);\r\n    }\r\n\r\n    /// @notice Get current price of a parcel in a frame\r\n    /// @param frameKey Frame's timestamp\r\n    /// @param parcelKey Parcel's key \r\n    /// @return price that the current owner set\r\n    function getCurrentPrice(uint frameKey, uint parcelKey) public view returns (uint){                 \r\n        return frames[frameKey].parcels[parcelKey].acquisitionPrice;\r\n    }\r\n\r\n    /// @notice Get msg senders approved amount of accounting token to this contract (market)\r\n    /// @return approved amount\r\n    function getApprovedAmount() public view returns (uint) {                         \r\n        uint approvedAmount = accountingToken.allowance(msg.sender, address(this));\r\n        return approvedAmount;\r\n    }\r\n\r\n    /// @notice Get frame's award amount (accumulation of different parcel taxes)\r\n    /// @notice Remaining tax of a parcel owner get's returned after a sale (change of ownership). So the award amount isn't for sure untill the frame get's closed.\r\n    /// @param frameKey Frame's timestamp\r\n    /// @return award amount\r\n    function getRewardAmount(uint frameKey) public view returns (uint) {                         \r\n        return frames[frameKey].rewardFund;\r\n    }\r\n\r\n    /// @notice Get number of accounts that owned a specific parcel\r\n    /// @param frameKey Frame's timestamp\r\n    /// @param parcelKey Parcel's key \r\n    /// @return number of owners\r\n    function getNumberOfParcelOwners(uint frameKey, uint parcelKey) public view returns (uint){\r\n        return frames[frameKey].parcels[parcelKey].parcelOwners.length ;\r\n    }\r\n\r\n    /// @notice Get number of frames\r\n    /// @return number frames\r\n    function getNumberOfFrameKeys() public view returns (uint){\r\n        return framesKeys.length ;\r\n    }\r\n\r\n    /// @notice Calculate parcel owner's index in the array of owners of the parcel\r\n    /// @param frameKey Frame's timestamp\r\n    /// @param parcelKey Parcel's key \r\n    /// @param owner Owners account address\r\n    /// @return owner's index\r\n    function getParcelOwnerIndex(uint frameKey, uint parcelKey, address owner) public view returns (uint) {   \r\n\r\n        //if (parcelCount == 0) return 0;\r\n\r\n        for (uint i=0; i< getNumberOfParcelOwners(frameKey, parcelKey); i++) {\r\n            if (frames[frameKey].parcels[parcelKey].parcelOwners[i].owner == owner) return i;\r\n        }\r\n\r\n        return getNumberOfParcelOwners(frameKey, parcelKey); \r\n    }\r\n\r\n    /// @notice Create a parcel\r\n    /// @param frameKey Frame's timestamp\r\n    /// @param pairPrice Price is the trading pair's price\r\n    /// @return parcelKey\r\n    function getOrCreateParcel(uint frameKey, uint pairPrice) internal returns(uint){\r\n\r\n        uint parcelKey = clcParcelInterval(pairPrice);\r\n\r\n        if (frames[frameKey].parcels[parcelKey].state != SParcel.NULL) return parcelKey;\r\n        \r\n        frames[frameKey].parcels[parcelKey].parcelKey = parcelKey;\r\n        frames[frameKey].parcelKeys.push(parcelKey);\r\n        return parcelKey;\r\n    }\r\n\r\n    /// @notice Calculate amout required to approve to buy a parcel\r\n    /// @param frameKey Frame's timestamp\r\n    /// @param pairPrice Value is trading pair's price (to get correct parcel key) \r\n    /// @param newSellPrice New sell price is required to calculate tax\r\n    /// @return amoun to approve\r\n    function AmountToApprove(uint frameKey, uint pairPrice, uint newSellPrice, uint timestamp) public view returns (uint) {             \r\n\r\n        uint parcelKey = clcParcelInterval(pairPrice);\r\n        \r\n       /*  uint numOfFrames = clcFramesLeft(frameKey);\r\n        uint tax = newSellPrice.mul(taxMarket).div(100000).mul(numOfFrames); */\r\n\r\n        uint dFrame = timestamp.sub(clcFrameTimestamp(timestamp));\r\n        uint dFrameP = scalar.mul(dFrame).div(period);\r\n\r\n        //Calculate tax from the propoed new price (newSellPrice)\r\n        uint numOfFramesLeft = clcFramesLeft(frameKey);\r\n        uint tax = newSellPrice.mul(taxMarket).div(100000).mul(numOfFramesLeft);\r\n        uint dtax = newSellPrice.mul(taxMarket).div(100000);\r\n        dtax = dtax.mul(dFrameP).div(scalar);\r\n        tax = tax.add(dtax);\r\n\r\n        uint amount = frames[frameKey].parcels[parcelKey].acquisitionPrice.add(tax);\r\n\r\n        return amount;\r\n    }\r\n\r\n    /// @notice Calculate amout required to approve to buy a parcel\r\n    /// @param timestamp Frame's timestamp get's calculated from this value\r\n    /// @param pairPrice Is trading pair's price (to get correct parcel key) \r\n    /// @param newSellPrice New sell price is required to calculate tax\r\n    function buyParcel(uint timestamp, uint pairPrice, uint newSellPrice) public payable {\r\n        uint frameKey =  getOrCreateFrame(timestamp);                          \r\n        \r\n        uint parcelKey = getOrCreateParcel(frameKey, pairPrice);\r\n\r\n        uint dFrame = block.timestamp.sub(clcFrameTimestamp(block.timestamp));\r\n        uint dFrameP = scalar.mul(dFrame).div(period);\r\n\r\n        //Calculate tax from the propoed new price (newSellPrice)\r\n        uint numOfFramesLeft = clcFramesLeft(timestamp);\r\n        uint tax = newSellPrice.mul(taxMarket).div(100000).mul(numOfFramesLeft);\r\n        uint dtax = newSellPrice.mul(taxMarket).div(100000).mul(dFrameP).div(scalar);\r\n        tax = tax.add(dtax);\r\n\r\n        //Approved amount has to be at leat equal to price of the Parcel(with tax)\r\n        require(accountingToken.allowance(msg.sender, address(this)) >= frames[frameKey].parcels[parcelKey].acquisitionPrice.add(tax), \"APPROVED AMOUNT IS TOO SMALL\");\r\n        \r\n        //Transfer complete tax amount to the frame rewardFund\r\n        accountingToken.transferFrom(msg.sender, address(this), frames[frameKey].parcels[parcelKey].acquisitionPrice.add(tax));\r\n        frames[frameKey].rewardFund = frames[frameKey].rewardFund.add(tax);\r\n\r\n\r\n        //Pay the Parcel price to current owner + return tax\r\n        if (frames[frameKey].parcels[parcelKey].state == SParcel.BOUGHT) {\r\n            //Calculate tax to return. acquisitionPrice/marketTax * number_of_frames_left:\r\n            //uint oldTaxToReturn = frames[frameKey].parcels[parcelKey].acquisitionPrice.mul(taxMarket).div(100000).mul(numOfFramesLeft);\r\n            uint aPrice = frames[frameKey].parcels[parcelKey].acquisitionPrice;\r\n            uint dFrameTax = aPrice.mul(taxMarket).div(100000).mul(dFrameP).div(scalar);\r\n            uint taxToReturn = aPrice.mul(taxMarket).div(100000).mul(numOfFramesLeft);\r\n            taxToReturn = taxToReturn.add(dFrameTax);\r\n            //add acquisition price valut to left over tax\r\n            uint amount = (taxToReturn.add(frames[frameKey].parcels[parcelKey].acquisitionPrice));\r\n            //transfer funds\r\n            uint previousOwner = getNumberOfParcelOwners(frameKey, parcelKey).sub(1);\r\n            accountingToken.transfer(frames[frameKey].parcels[parcelKey].parcelOwners[previousOwner].owner, amount);\r\n            //change reward value\r\n            frames[frameKey].rewardFund = frames[frameKey].rewardFund.sub(taxToReturn);\r\n        }\r\n       \r\n        frames[frameKey].parcels[parcelKey].parcelOwners.push(ParcelOwner(payable(msg.sender), block.number));\r\n        frames[frameKey].parcels[parcelKey].state = SParcel.BOUGHT;\r\n        frames[frameKey].parcels[parcelKey].acquisitionPrice = newSellPrice;\r\n    }\r\n\r\n    /// @notice Update trading pair's prices in the frame\r\n    /// @param PriceCumulative Cumulative price\r\n    /// @dev For developement purposes the new price is added as an input\r\n    /// @dev Final version should use uniswap's oracles\r\n    function updateFramePrices(uint PriceCumulative) public {\r\n        uint frameKey = clcFrameTimestamp(block.timestamp);\r\n        frames[frameKey].lastBlockNum = block.number;\r\n        //Correct price if outside settle interval\r\n        if (block.timestamp <= ((frameKey.add(period)).sub(21600))) {\r\n            frames[frameKey].oraclePrice0CumulativeStart = PriceCumulative;\r\n            frames[frameKey].oracleTimestampStart = block.timestamp;\r\n            emit FrameUpdate(frameKey);\r\n        }\r\n        else if (block.timestamp <= frameKey.add(period)) {\r\n            frames[frameKey].oraclePrice0CumulativeEnd = PriceCumulative;\r\n            frames[frameKey].oracleTimestampEnd = block.timestamp;\r\n            emit FrameUpdate(frameKey);\r\n        }\r\n    }\r\n\r\n    /// @notice Close frame\r\n    /// @param frameKey Frame's timestamp\r\n    function closeFrame(uint frameKey) public {\r\n        //Check if frame is opened\r\n        require(frames[frameKey].state == SFrame.OPENED, \"FRAME NOT OPENED\");\r\n        //Check if frame timing is correct\r\n        require(frameKey.add(period) <= block.timestamp, \"FRAME END TIME NOT REACHED\");\r\n        //Check if frame has valid prices\r\n        if (frames[frameKey].oraclePrice0CumulativeStart <= 0 || frames[frameKey].oraclePrice0CumulativeEnd <= 0) {\r\n            frames[frameKey].state = SFrame.INVALID;\r\n        }\r\n        if (frames[frameKey].oraclePrice0CumulativeStart == frames[frameKey].oraclePrice0CumulativeEnd) {\r\n            frames[frameKey].state = SFrame.INVALID;\r\n        }\r\n        frames[frameKey].state = SFrame.CLOSED;\r\n\r\n        //UQ112x112 encoded\r\n        uint priceDiff = frames[frameKey].oraclePrice0CumulativeEnd.sub(frames[frameKey].oraclePrice0CumulativeStart);\r\n        uint timeDiff = frames[frameKey].oracleTimestampEnd.sub(frames[frameKey].oracleTimestampStart);\r\n        //Calculate time-weighted average price -- UQ112x112 encoded\r\n        frames[frameKey].priceAverage = uint(((FixedPoint.div(FixedPoint.uq112x112(uint224(priceDiff)), (uint112(timeDiff)))))._x);\r\n\r\n        //Decode to scalar value\r\n        frames[frameKey].priceAverage = (frames[frameKey].priceAverage >> 112).mul(scalar); \r\n        frames[frameKey].priceAverage = (frames[frameKey].priceAverage << 112).div(1e49);\r\n\r\n        //Subtract fees from the reward amount and send them to Owners of the market and protocol\r\n        uint marketOwnerFees = frames[frameKey].rewardFund.mul(feeMarket).div(100000);\r\n        uint protocolOwnerFees = frames[frameKey].rewardFund.mul(feeProtocol).div(100000);\r\n\r\n        frames[frameKey].rewardFund = frames[frameKey].rewardFund.sub(marketOwnerFees).sub(protocolOwnerFees);\r\n        accountingToken.transfer(ownerMarket, marketOwnerFees);\r\n        accountingToken.transfer(factory.owner(), protocolOwnerFees);\r\n\r\n        emit FrameUpdate(frameKey);\r\n    }\r\n\r\n    /// @notice Settle parcel for a owner. Owner's share of the reward amount get's transfered to owner's account\r\n    /// @param frameKey Frame's timestamp\r\n    /// @param owner Owner's address\r\n    function settleParcel(uint frameKey, address owner) public {  \r\n        //Check if frame is closed\r\n        require(frames[frameKey].state == SFrame.CLOSED, \"FRAME NOT CLOSED\");    \r\n        uint parcelKeyWin = (clcParcelInterval(frames[frameKey].priceAverage));\r\n\r\n        uint amount = clcSettleAmount(frameKey, parcelKeyWin, owner);\r\n        accountingToken.transfer(owner, amount);\r\n    }\r\n\r\n    /// @notice Calculate owner's share based on the number of blocks the account owned the parcel\r\n    /// @param frameKey Frame's timestamp\r\n    /// @param parcelKey Parcel's key\r\n    /// @param owner Owner's address\r\n    /// @return Owner's precentage\r\n    function clcShare(uint frameKey, uint parcelKey, address owner) public view returns (uint) {\r\n        uint ownerIndex = getParcelOwnerIndex(frameKey, parcelKey, owner);\r\n        require(ownerIndex < getNumberOfParcelOwners(frameKey, parcelKey), \"OWNER DOES NOT EXIST\"); \r\n\r\n        Parcel memory parcel = frames[frameKey].parcels[parcelKey];\r\n\r\n        uint ownerBlock= parcel.parcelOwners[ownerIndex].blockNum;\r\n        uint endBlock = frames[frameKey].lastBlockNum;\r\n        uint firstOwnerBlock= parcel.parcelOwners[0].blockNum;\r\n        uint nextOwnerBlock;\r\n\r\n        if (getNumberOfParcelOwners(frameKey, parcelKey)-1 == ownerIndex) nextOwnerBlock = endBlock;\r\n        else nextOwnerBlock = parcel.parcelOwners[ownerIndex + 1].blockNum;\r\n\r\n        //nextOwnerBlock = parcels[parcelIndex].parcelOwners[ownerIndex + 1].blockNum;\r\n    \r\n        uint ownerBlocks = nextOwnerBlock.sub(ownerBlock);\r\n        uint allBlocks = endBlock.sub(firstOwnerBlock);\r\n\r\n        uint share = ownerBlocks.mul(scalar).div(allBlocks);\r\n        return share;     \r\n    }\r\n\r\n    /// @notice Calculate owner's winning amount\r\n    /// @param frameKey Frame's timestamp\r\n    /// @param parcelKey Parcel's key\r\n    /// @param owner Owner's address\r\n    /// @return Owner's winnings\r\n    function clcSettleAmount(uint frameKey, uint parcelKey, address owner) public view returns (uint){\r\n        \r\n        return clcShare(frameKey, parcelKey, owner).mul(frames[frameKey].rewardFund).div(scalar);\r\n\r\n    }\r\n\r\n\r\n\r\n\r\n}",
  "sourcePath": "D:/prog/UniHedge/core/contracts/Market.sol",
  "compiler": {
    "name": "solc",
    "version": "0.8.6+commit.11564f7e.Emscripten.clang"
  },
  "schemaVersion": "3.4.1",
  "updatedAt": "2021-07-11T14:24:34.043Z",
  "devdoc": {
    "author": "UniHedge",
    "details": "All function calls are currently implemented without side effects",
    "kind": "dev",
    "methods": {
      "AmountToApprove(uint256,uint256,uint256,uint256)": {
        "params": {
          "frameKey": "Frame's timestamp",
          "newSellPrice": "New sell price is required to calculate tax",
          "pairPrice": "Value is trading pair's price (to get correct parcel key) "
        },
        "returns": {
          "_0": "amoun to approve"
        }
      },
      "buyParcel(uint256,uint256,uint256)": {
        "params": {
          "newSellPrice": "New sell price is required to calculate tax",
          "pairPrice": "Is trading pair's price (to get correct parcel key) ",
          "timestamp": "Frame's timestamp get's calculated from this value"
        }
      },
      "clcFrameTimestamp(uint256)": {
        "params": {
          "timestamp": "In seconds"
        },
        "returns": {
          "_0": "frame's timestamp (key)"
        }
      },
      "clcFramesLeft(uint256)": {
        "params": {
          "frameKey": "Timestamp of an arbitary frame in the future"
        },
        "returns": {
          "_0": "number of frames (whole numbers: n=0,1,2...)"
        }
      },
      "clcParcelInterval(uint256)": {
        "params": {
          "value": "Arbitary price of market's Uniswap pair"
        },
        "returns": {
          "_0": "parcel key (bottom boundary)"
        }
      },
      "clcSettleAmount(uint256,uint256,address)": {
        "params": {
          "frameKey": "Frame's timestamp",
          "owner": "Owner's address",
          "parcelKey": "Parcel's key"
        },
        "returns": {
          "_0": "Owner's winnings"
        }
      },
      "clcShare(uint256,uint256,address)": {
        "params": {
          "frameKey": "Frame's timestamp",
          "owner": "Owner's address",
          "parcelKey": "Parcel's key"
        },
        "returns": {
          "_0": "Owner's precentage"
        }
      },
      "closeFrame(uint256)": {
        "params": {
          "frameKey": "Frame's timestamp"
        }
      },
      "getApprovedAmount()": {
        "returns": {
          "_0": "approved amount"
        }
      },
      "getCurrentPrice(uint256,uint256)": {
        "params": {
          "frameKey": "Frame's timestamp",
          "parcelKey": "Parcel's key "
        },
        "returns": {
          "_0": "price that the current owner set"
        }
      },
      "getNumberOfFrameKeys()": {
        "returns": {
          "_0": "number frames"
        }
      },
      "getNumberOfParcelOwners(uint256,uint256)": {
        "params": {
          "frameKey": "Frame's timestamp",
          "parcelKey": "Parcel's key "
        },
        "returns": {
          "_0": "number of owners"
        }
      },
      "getOrCreateFrame(uint256)": {
        "params": {
          "timestamp": "In second."
        },
        "returns": {
          "_0": "frameTimestamp Frame's key (timestamp that indicated the beggining of a frame)."
        }
      },
      "getParcelOwnerIndex(uint256,uint256,address)": {
        "params": {
          "frameKey": "Frame's timestamp",
          "owner": "Owners account address",
          "parcelKey": "Parcel's key "
        },
        "returns": {
          "_0": "owner's index"
        }
      },
      "getRewardAmount(uint256)": {
        "params": {
          "frameKey": "Frame's timestamp"
        },
        "returns": {
          "_0": "award amount"
        }
      },
      "settleParcel(uint256,address)": {
        "params": {
          "frameKey": "Frame's timestamp",
          "owner": "Owner's address"
        }
      },
      "updateFramePrices(uint256)": {
        "details": "For developement purposes the new price is added as an inputFinal version should use uniswap's oracles",
        "params": {
          "PriceCumulative": "Cumulative price"
        }
      }
    },
    "title": "TWPM Market",
    "version": 1
  },
  "userdoc": {
    "kind": "user",
    "methods": {
      "AmountToApprove(uint256,uint256,uint256,uint256)": {
        "notice": "Calculate amout required to approve to buy a parcel"
      },
      "buyParcel(uint256,uint256,uint256)": {
        "notice": "Calculate amout required to approve to buy a parcel"
      },
      "clcFrameTimestamp(uint256)": {
        "notice": "Calculate frames timestamp (beggining of frame)"
      },
      "clcFramesLeft(uint256)": {
        "notice": "Calculate how many frames there are left untill given frame in input"
      },
      "clcParcelInterval(uint256)": {
        "notice": "Calculate bottom boundary of a parcel"
      },
      "clcSettleAmount(uint256,uint256,address)": {
        "notice": "Calculate owner's winning amount"
      },
      "clcShare(uint256,uint256,address)": {
        "notice": "Calculate owner's share based on the number of blocks the account owned the parcel"
      },
      "closeFrame(uint256)": {
        "notice": "Close frame"
      },
      "getApprovedAmount()": {
        "notice": "Get msg senders approved amount of accounting token to this contract (market)"
      },
      "getCurrentPrice(uint256,uint256)": {
        "notice": "Get current price of a parcel in a frame"
      },
      "getNumberOfFrameKeys()": {
        "notice": "Get number of frames"
      },
      "getNumberOfParcelOwners(uint256,uint256)": {
        "notice": "Get number of accounts that owned a specific parcel"
      },
      "getOrCreateFrame(uint256)": {
        "notice": "Create a frame"
      },
      "getParcelOwnerIndex(uint256,uint256,address)": {
        "notice": "Calculate parcel owner's index in the array of owners of the parcel"
      },
      "getRewardAmount(uint256)": {
        "notice": "Get frame's award amount (accumulation of different parcel taxes)Remaining tax of a parcel owner get's returned after a sale (change of ownership). So the award amount isn't for sure untill the frame get's closed."
      },
      "settleParcel(uint256,address)": {
        "notice": "Settle parcel for a owner. Owner's share of the reward amount get's transfered to owner's account"
      },
      "updateFramePrices(uint256)": {
        "notice": "Update trading pair's prices in the frame"
      }
    },
    "version": 1
  }
}