{
  "contractName": "Market",
  "abi": [
    {
      "inputs": [
        {
          "internalType": "contract MarketFactory",
          "name": "_factory",
          "type": "address"
        },
        {
          "internalType": "contract IERC20",
          "name": "_token",
          "type": "address"
        },
        {
          "internalType": "contract IUniswapV2Pair",
          "name": "_uniswapPair",
          "type": "address"
        },
        {
          "internalType": "uint256",
          "name": "_period",
          "type": "uint256"
        },
        {
          "internalType": "uint256",
          "name": "_initTimestamp",
          "type": "uint256"
        },
        {
          "internalType": "uint256",
          "name": "_taxMarket",
          "type": "uint256"
        },
        {
          "internalType": "uint256",
          "name": "_feeMarket",
          "type": "uint256"
        },
        {
          "internalType": "uint256",
          "name": "_dPrice",
          "type": "uint256"
        },
        {
          "internalType": "uint256",
          "name": "_tReporting",
          "type": "uint256"
        },
        {
          "internalType": "uint256",
          "name": "_minTax",
          "type": "uint256"
        }
      ],
      "stateMutability": "nonpayable",
      "type": "constructor"
    },
    {
      "anonymous": false,
      "inputs": [
        {
          "indexed": false,
          "internalType": "uint256",
          "name": "frameKey",
          "type": "uint256"
        }
      ],
      "name": "FrameUpdate",
      "type": "event"
    },
    {
      "anonymous": false,
      "inputs": [
        {
          "indexed": false,
          "internalType": "uint256",
          "name": "frameKey",
          "type": "uint256"
        },
        {
          "indexed": false,
          "internalType": "uint256",
          "name": "lotKey",
          "type": "uint256"
        }
      ],
      "name": "LotUpdate",
      "type": "event"
    },
    {
      "inputs": [],
      "name": "accountingToken",
      "outputs": [
        {
          "internalType": "contract IERC20",
          "name": "",
          "type": "address"
        }
      ],
      "stateMutability": "view",
      "type": "function"
    },
    {
      "inputs": [],
      "name": "dPrice",
      "outputs": [
        {
          "internalType": "uint256",
          "name": "",
          "type": "uint256"
        }
      ],
      "stateMutability": "view",
      "type": "function"
    },
    {
      "inputs": [],
      "name": "factory",
      "outputs": [
        {
          "internalType": "contract MarketFactory",
          "name": "",
          "type": "address"
        }
      ],
      "stateMutability": "view",
      "type": "function"
    },
    {
      "inputs": [],
      "name": "feeMarket",
      "outputs": [
        {
          "internalType": "uint256",
          "name": "",
          "type": "uint256"
        }
      ],
      "stateMutability": "view",
      "type": "function"
    },
    {
      "inputs": [],
      "name": "feeProtocol",
      "outputs": [
        {
          "internalType": "uint256",
          "name": "",
          "type": "uint256"
        }
      ],
      "stateMutability": "view",
      "type": "function"
    },
    {
      "inputs": [
        {
          "internalType": "uint256",
          "name": "",
          "type": "uint256"
        }
      ],
      "name": "frames",
      "outputs": [
        {
          "internalType": "uint256",
          "name": "frameKey",
          "type": "uint256"
        },
        {
          "internalType": "enum Market.SFrame",
          "name": "state",
          "type": "uint8"
        },
        {
          "internalType": "uint256",
          "name": "priceAverage",
          "type": "uint256"
        },
        {
          "internalType": "uint256",
          "name": "rewardFund",
          "type": "uint256"
        },
        {
          "internalType": "uint256",
          "name": "oraclePrice0CumulativeStart",
          "type": "uint256"
        },
        {
          "internalType": "uint256",
          "name": "oraclePrice0CumulativeEnd",
          "type": "uint256"
        },
        {
          "internalType": "uint256",
          "name": "oracleTimestampStart",
          "type": "uint256"
        },
        {
          "internalType": "uint256",
          "name": "oracleTimestampEnd",
          "type": "uint256"
        },
        {
          "internalType": "uint256",
          "name": "lastBlockNum",
          "type": "uint256"
        }
      ],
      "stateMutability": "view",
      "type": "function"
    },
    {
      "inputs": [
        {
          "internalType": "uint256",
          "name": "",
          "type": "uint256"
        }
      ],
      "name": "framesKeys",
      "outputs": [
        {
          "internalType": "uint256",
          "name": "",
          "type": "uint256"
        }
      ],
      "stateMutability": "view",
      "type": "function"
    },
    {
      "inputs": [],
      "name": "initTimestamp",
      "outputs": [
        {
          "internalType": "uint256",
          "name": "",
          "type": "uint256"
        }
      ],
      "stateMutability": "view",
      "type": "function"
    },
    {
      "inputs": [],
      "name": "minTax",
      "outputs": [
        {
          "internalType": "uint256",
          "name": "",
          "type": "uint256"
        }
      ],
      "stateMutability": "view",
      "type": "function"
    },
    {
      "inputs": [],
      "name": "ownerMarket",
      "outputs": [
        {
          "internalType": "address payable",
          "name": "",
          "type": "address"
        }
      ],
      "stateMutability": "view",
      "type": "function"
    },
    {
      "inputs": [],
      "name": "period",
      "outputs": [
        {
          "internalType": "uint256",
          "name": "",
          "type": "uint256"
        }
      ],
      "stateMutability": "view",
      "type": "function"
    },
    {
      "inputs": [],
      "name": "tReporting",
      "outputs": [
        {
          "internalType": "uint256",
          "name": "",
          "type": "uint256"
        }
      ],
      "stateMutability": "view",
      "type": "function"
    },
    {
      "inputs": [],
      "name": "taxMarket",
      "outputs": [
        {
          "internalType": "uint256",
          "name": "",
          "type": "uint256"
        }
      ],
      "stateMutability": "view",
      "type": "function"
    },
    {
      "inputs": [],
      "name": "uniswapPair",
      "outputs": [
        {
          "internalType": "contract IUniswapV2Pair",
          "name": "",
          "type": "address"
        }
      ],
      "stateMutability": "view",
      "type": "function"
    },
    {
      "inputs": [
        {
          "internalType": "uint256",
          "name": "timestamp",
          "type": "uint256"
        }
      ],
      "name": "clcFrameTimestamp",
      "outputs": [
        {
          "internalType": "uint256",
          "name": "",
          "type": "uint256"
        }
      ],
      "stateMutability": "view",
      "type": "function"
    },
    {
      "inputs": [
        {
          "internalType": "uint256",
          "name": "value",
          "type": "uint256"
        }
      ],
      "name": "clcLotInterval",
      "outputs": [
        {
          "internalType": "uint256",
          "name": "",
          "type": "uint256"
        }
      ],
      "stateMutability": "view",
      "type": "function"
    },
    {
      "inputs": [
        {
          "internalType": "uint256",
          "name": "frameKey",
          "type": "uint256"
        }
      ],
      "name": "clcFramesLeft",
      "outputs": [
        {
          "internalType": "uint256",
          "name": "",
          "type": "uint256"
        }
      ],
      "stateMutability": "view",
      "type": "function"
    },
    {
      "inputs": [
        {
          "internalType": "uint256",
          "name": "frameKey",
          "type": "uint256"
        },
        {
          "internalType": "uint256",
          "name": "lotKey",
          "type": "uint256"
        }
      ],
      "name": "getLot",
      "outputs": [
        {
          "components": [
            {
              "internalType": "uint256",
              "name": "lotKey",
              "type": "uint256"
            },
            {
              "internalType": "address",
              "name": "lotOwner",
              "type": "address"
            },
            {
              "internalType": "uint256",
              "name": "acquisitionPrice",
              "type": "uint256"
            },
            {
              "internalType": "enum Market.SLot",
              "name": "state",
              "type": "uint8"
            }
          ],
          "internalType": "struct Market.Lot",
          "name": "",
          "type": "tuple"
        }
      ],
      "stateMutability": "view",
      "type": "function"
    },
    {
      "inputs": [
        {
          "internalType": "uint256",
          "name": "frameKey",
          "type": "uint256"
        }
      ],
      "name": "getLotsCount",
      "outputs": [
        {
          "internalType": "uint256",
          "name": "",
          "type": "uint256"
        }
      ],
      "stateMutability": "view",
      "type": "function"
    },
    {
      "inputs": [
        {
          "internalType": "uint256",
          "name": "frameKey",
          "type": "uint256"
        },
        {
          "internalType": "uint256",
          "name": "index",
          "type": "uint256"
        }
      ],
      "name": "getLotKey",
      "outputs": [
        {
          "internalType": "uint256",
          "name": "",
          "type": "uint256"
        }
      ],
      "stateMutability": "view",
      "type": "function"
    },
    {
      "inputs": [
        {
          "internalType": "uint256",
          "name": "frameKey",
          "type": "uint256"
        }
      ],
      "name": "getRewardAmount",
      "outputs": [
        {
          "internalType": "uint256",
          "name": "",
          "type": "uint256"
        }
      ],
      "stateMutability": "view",
      "type": "function"
    },
    {
      "inputs": [],
      "name": "getNumberOfFrameKeys",
      "outputs": [
        {
          "internalType": "uint256",
          "name": "",
          "type": "uint256"
        }
      ],
      "stateMutability": "view",
      "type": "function"
    },
    {
      "inputs": [
        {
          "internalType": "uint256",
          "name": "timestamp",
          "type": "uint256"
        }
      ],
      "name": "getOrCreateFrame",
      "outputs": [
        {
          "internalType": "uint256",
          "name": "",
          "type": "uint256"
        }
      ],
      "stateMutability": "nonpayable",
      "type": "function"
    },
    {
      "inputs": [
        {
          "internalType": "uint256",
          "name": "frameKey",
          "type": "uint256"
        },
        {
          "internalType": "uint256",
          "name": "acquisitionPrice",
          "type": "uint256"
        }
      ],
      "name": "clcTax",
      "outputs": [
        {
          "internalType": "uint256",
          "name": "tax",
          "type": "uint256"
        }
      ],
      "stateMutability": "view",
      "type": "function"
    },
    {
      "inputs": [
        {
          "internalType": "uint256",
          "name": "timestamp",
          "type": "uint256"
        },
        {
          "internalType": "uint256",
          "name": "pairPrice",
          "type": "uint256"
        },
        {
          "internalType": "uint256",
          "name": "acqPrice",
          "type": "uint256"
        }
      ],
      "name": "clcAmountToApprove",
      "outputs": [
        {
          "internalType": "uint256",
          "name": "cmpltAmnt",
          "type": "uint256"
        }
      ],
      "stateMutability": "view",
      "type": "function"
    },
    {
      "inputs": [
        {
          "internalType": "uint256",
          "name": "timestamp",
          "type": "uint256"
        },
        {
          "internalType": "uint256",
          "name": "pairPrice",
          "type": "uint256"
        },
        {
          "internalType": "uint256",
          "name": "acqPrice",
          "type": "uint256"
        }
      ],
      "name": "buyLot",
      "outputs": [],
      "stateMutability": "nonpayable",
      "type": "function"
    },
    {
      "inputs": [
        {
          "internalType": "uint256",
          "name": "timestamp",
          "type": "uint256"
        },
        {
          "internalType": "uint256",
          "name": "pairPrice",
          "type": "uint256"
        },
        {
          "internalType": "uint256",
          "name": "acqPrice",
          "type": "uint256"
        }
      ],
      "name": "updateLotPrice",
      "outputs": [],
      "stateMutability": "nonpayable",
      "type": "function"
    },
    {
      "inputs": [],
      "name": "updateFramePrices",
      "outputs": [],
      "stateMutability": "nonpayable",
      "type": "function"
    },
    {
      "inputs": [
        {
          "internalType": "uint256",
          "name": "frameKey",
          "type": "uint256"
        }
      ],
      "name": "closeFrame",
      "outputs": [],
      "stateMutability": "nonpayable",
      "type": "function"
    },
    {
      "inputs": [
        {
          "internalType": "uint256",
          "name": "frameKey",
          "type": "uint256"
        }
      ],
      "name": "settleLot",
      "outputs": [],
      "stateMutability": "nonpayable",
      "type": "function"
    },
    {
      "inputs": [
        {
          "internalType": "uint256",
          "name": "amount",
          "type": "uint256"
        }
      ],
      "name": "emptyFunds",
      "outputs": [],
      "stateMutability": "nonpayable",
      "type": "function"
    }
  ],
  "bytecode": "0x6080604052606460095569d3c21bcecceda1000000600c553480156200002457600080fd5b5060405162003f1138038062003f1183398181016040528101906200004a9190620002d1565b88600160006101000a81548173ffffffffffffffffffffffffffffffffffffffff021916908373ffffffffffffffffffffffffffffffffffffffff16021790555033600260006101000a81548173ffffffffffffffffffffffffffffffffffffffff021916908373ffffffffffffffffffffffffffffffffffffffff1602179055508660038190555085600481905550846008819055508360078190555087600560006101000a81548173ffffffffffffffffffffffffffffffffffffffff021916908373ffffffffffffffffffffffffffffffffffffffff16021790555082600681905550896000806101000a81548173ffffffffffffffffffffffffffffffffffffffff021916908373ffffffffffffffffffffffffffffffffffffffff16021790555081600a8190555080600b8190555050505050505050505050620003c7565b600080fd5b600073ffffffffffffffffffffffffffffffffffffffff82169050919050565b6000620001c08262000193565b9050919050565b6000620001d482620001b3565b9050919050565b620001e681620001c7565b8114620001f257600080fd5b50565b6000815190506200020681620001db565b92915050565b60006200021982620001b3565b9050919050565b6200022b816200020c565b81146200023757600080fd5b50565b6000815190506200024b8162000220565b92915050565b60006200025e82620001b3565b9050919050565b620002708162000251565b81146200027c57600080fd5b50565b600081519050620002908162000265565b92915050565b6000819050919050565b620002ab8162000296565b8114620002b757600080fd5b50565b600081519050620002cb81620002a0565b92915050565b6000806000806000806000806000806101408b8d031215620002f857620002f76200018e565b5b6000620003088d828e01620001f5565b9a505060206200031b8d828e016200023a565b99505060406200032e8d828e016200027f565b9850506060620003418d828e01620002ba565b9750506080620003548d828e01620002ba565b96505060a0620003678d828e01620002ba565b95505060c06200037a8d828e01620002ba565b94505060e06200038d8d828e01620002ba565b935050610100620003a18d828e01620002ba565b925050610120620003b58d828e01620002ba565b9150509295989b9194979a5092959850565b613b3a80620003d76000396000f3fe608060405234801561001057600080fd5b50600436106101e55760003560e01c80637e9966391161010f578063c45a0155116100a2578063e107fb4f11610071578063e107fb4f146105c6578063ef78d4fd146105f6578063fc95070214610614578063ff5c86b014610630576101e5565b8063c45a01551461053c578063c816841b1461055a578063c84993af14610578578063da68cf8b146105a8576101e5565b806396b2c6f3116100de57806396b2c6f3146104ae578063a10340bc146104b8578063a4d246ff146104f0578063bb15d2dd14610520576101e5565b80637e99663914610412578063830ab11914610430578063888bdbcd1461046057806389da88a314610490576101e5565b8063499a0fc4116101875780636f1aefc3116101565780636f1aefc3146103785780636f7cb60b146103a85780637358c57a146103c45780637d6ae6a0146103e2576101e5565b8063499a0fc4146102f05780634d3ee2dc1461030e578063527eb4bc1461032a5780635b3ad63e14610348576101e5565b80633d09a82a116101c35780633d09a82a146102665780633e16bc2014610284578063410f0710146102b457806345084775146102d2576101e5565b8063050e8840146101ea5780630cbcff8f1461021a5780633c80d8ea1461024a575b600080fd5b61020460048036038101906101ff9190612c7f565b61064e565b6040516102119190612cbb565b60405180910390f35b610234600480360381019061022f9190612c7f565b610672565b6040516102419190612cbb565b60405180910390f35b610264600480360381019061025f9190612cd6565b6107e7565b005b61026e610eb2565b60405161027b9190612cbb565b60405180910390f35b61029e60048036038101906102999190612d29565b610eb8565b6040516102ab9190612cbb565b60405180910390f35b6102bc610ef5565b6040516102c99190612cbb565b60405180910390f35b6102da610efb565b6040516102e79190612daa565b60405180910390f35b6102f8610f21565b6040516103059190612cbb565b60405180910390f35b61032860048036038101906103239190612c7f565b610f27565b005b610332611212565b60405161033f9190612cbb565b60405180910390f35b610362600480360381019061035d9190612c7f565b611218565b60405161036f9190612cbb565b60405180910390f35b610392600480360381019061038d9190612d29565b61125b565b60405161039f9190612ec1565b60405180910390f35b6103c260048036038101906103bd9190612c7f565b611342565b005b6103cc61159d565b6040516103d99190612cbb565b60405180910390f35b6103fc60048036038101906103f79190612c7f565b6115a3565b6040516104099190612cbb565b60405180910390f35b61041a6115d1565b6040516104279190612cbb565b60405180910390f35b61044a60048036038101906104459190612c7f565b6115d7565b6040516104579190612cbb565b60405180910390f35b61047a60048036038101906104759190612c7f565b6115fa565b6040516104879190612cbb565b60405180910390f35b61049861163d565b6040516104a59190612cbb565b60405180910390f35b6104b661164a565b005b6104d260048036038101906104cd9190612c7f565b611856565b6040516104e799989796959493929190612f24565b60405180910390f35b61050a60048036038101906105059190612cd6565b6118b1565b6040516105179190612cbb565b60405180910390f35b61053a60048036038101906105359190612cd6565b61191c565b005b610544611e25565b6040516105519190613010565b60405180910390f35b610562611e49565b60405161056f919061304c565b60405180910390f35b610592600480360381019061058d9190612c7f565b611e6f565b60405161059f9190612cbb565b60405180910390f35b6105b0611e8f565b6040516105bd9190613088565b60405180910390f35b6105e060048036038101906105db9190612d29565b611eb5565b6040516105ed9190612cbb565b60405180910390f35b6105fe611f91565b60405161060b9190612cbb565b60405180910390f35b61062e60048036038101906106299190612c7f565b611f97565b005b61063861269d565b6040516106459190612cbb565b60405180910390f35b600e818154811061065e57600080fd5b906000526020600020016000915090505481565b60008061067e83611218565b90506000600381111561069457610693612df5565b5b600d600083815260200190815260200160002060010160009054906101000a900460ff1660038111156106ca576106c9612df5565b5b146106d857809150506107e2565b6106e142611218565b811015610723576040517f08c379a000000000000000000000000000000000000000000000000000000000815260040161071a90613100565b60405180910390fd5b80600d6000838152602001908152602001600020600001819055506001600d600083815260200190815260200160002060010160006101000a81548160ff0219169083600381111561077857610777612df5565b5b0217905550600e8190806001815401808255809150506001900390600052602060002001600090919091909150557f163614e6e9ce9df7687928015fd2c748b69c5136db886e57f09170b251b58e87816040516107d59190612cbb565b60405180910390a1809150505b919050565b806000620186a0600854836107fc919061314f565b61080691906131d8565b9050600b5481101561084d576040517f08c379a000000000000000000000000000000000000000000000000000000000815260040161084490613255565b60405180910390fd5b600061085886610672565b9050600061086682876126a3565b9050600d6000838152602001908152602001600020600901600082815260200190815260200160002060010160009054906101000a900473ffffffffffffffffffffffffffffffffffffffff1673ffffffffffffffffffffffffffffffffffffffff163373ffffffffffffffffffffffffffffffffffffffff161415610921576040517f08c379a0000000000000000000000000000000000000000000000000000000008152600401610918906132c1565b60405180910390fd5b600061092d8387611eb5565b905080600d600085815260200190815260200160002060090160008481526020019081526020016000206002015461096591906132e1565b600160009054906101000a900473ffffffffffffffffffffffffffffffffffffffff1673ffffffffffffffffffffffffffffffffffffffff1663dd62ed3e33306040518363ffffffff1660e01b81526004016109c2929190613346565b60206040518083038186803b1580156109da57600080fd5b505afa1580156109ee573d6000803e3d6000fd5b505050506040513d601f19601f82011682018060405250810190610a129190613384565b1015610a53576040517f08c379a0000000000000000000000000000000000000000000000000000000008152600401610a4a906133fd565b60405180910390fd5b600160009054906101000a900473ffffffffffffffffffffffffffffffffffffffff1673ffffffffffffffffffffffffffffffffffffffff166323b872dd333084600d6000898152602001908152602001600020600901600088815260200190815260200160002060020154610ac991906132e1565b6040518463ffffffff1660e01b8152600401610ae79392919061341d565b602060405180830381600087803b158015610b0157600080fd5b505af1158015610b15573d6000803e3d6000fd5b505050506040513d601f19601f82011682018060405250810190610b39919061348c565b5080600d600085815260200190815260200160002060030154610b5c91906132e1565b600d60008581526020019081526020016000206003018190555060016002811115610b8a57610b89612df5565b5b600d6000858152602001908152602001600020600901600084815260200190815260200160002060030160009054906101000a900460ff166002811115610bd457610bd3612df5565b5b1415610d83576000610c1084600d6000878152602001908152602001600020600901600086815260200190815260200160002060020154611eb5565b9050600160009054906101000a900473ffffffffffffffffffffffffffffffffffffffff1673ffffffffffffffffffffffffffffffffffffffff1663a9059cbb600d6000878152602001908152602001600020600901600086815260200190815260200160002060010160009054906101000a900473ffffffffffffffffffffffffffffffffffffffff16600d600088815260200190815260200160002060090160008781526020019081526020016000206002015484610cd191906132e1565b6040518363ffffffff1660e01b8152600401610cee9291906134b9565b602060405180830381600087803b158015610d0857600080fd5b505af1158015610d1c573d6000803e3d6000fd5b505050506040513d601f19601f82011682018060405250810190610d40919061348c565b5080600d600086815260200190815260200160002060030154610d6391906134e2565b600d60008681526020019081526020016000206003018190555050610dd7565b6001600d6000858152602001908152602001600020600901600084815260200190815260200160002060030160006101000a81548160ff02191690836002811115610dd157610dd0612df5565b5b02179055505b33600d6000858152602001908152602001600020600901600084815260200190815260200160002060010160006101000a81548173ffffffffffffffffffffffffffffffffffffffff021916908373ffffffffffffffffffffffffffffffffffffffff16021790555085600d60008581526020019081526020016000206009016000848152602001908152602001600020600201819055507fd0d6f900b5096e8e38e0b13b83d7ac826d0c461a139f26a9bfbee4b4d3d1e9198383604051610ea0929190613516565b60405180910390a15050505050505050565b600b5481565b6000600d6000848152602001908152602001600020600a018281548110610ee257610ee161353f565b5b9060005260206000200154905092915050565b60075481565b600260009054906101000a900473ffffffffffffffffffffffffffffffffffffffff1681565b60065481565b60026003811115610f3b57610f3a612df5565b5b600d600083815260200190815260200160002060010160009054906101000a900460ff166003811115610f7157610f70612df5565b5b14610fb1576040517f08c379a0000000000000000000000000000000000000000000000000000000008152600401610fa8906135ba565b60405180910390fd5b6000610fd2600d6000848152602001908152602001600020600201546115fa565b9050600280811115610fe757610fe6612df5565b5b600d6000848152602001908152602001600020600901600083815260200190815260200160002060030160009054906101000a900460ff16600281111561103157611030612df5565b5b1415611072576040517f08c379a000000000000000000000000000000000000000000000000000000000815260040161106990613626565b60405180910390fd5b600160009054906101000a900473ffffffffffffffffffffffffffffffffffffffff1673ffffffffffffffffffffffffffffffffffffffff1663a9059cbb600d6000858152602001908152602001600020600901600084815260200190815260200160002060010160009054906101000a900473ffffffffffffffffffffffffffffffffffffffff16600d6000868152602001908152602001600020600301546040518363ffffffff1660e01b815260040161112f9291906134b9565b602060405180830381600087803b15801561114957600080fd5b505af115801561115d573d6000803e3d6000fd5b505050506040513d601f19601f82011682018060405250810190611181919061348c565b506002600d6000848152602001908152602001600020600901600083815260200190815260200160002060030160006101000a81548160ff021916908360028111156111d0576111cf612df5565b5b02179055507fd0d6f900b5096e8e38e0b13b83d7ac826d0c461a139f26a9bfbee4b4d3d1e9198282604051611206929190613516565b60405180910390a15050565b60095481565b6000600454821161122d576004549050611256565b6003546004548361123e91906134e2565b6112489190613646565b8261125391906134e2565b90505b919050565b611263612bc3565b600d60008481526020019081526020016000206009016000838152602001908152602001600020604051806080016040529081600082015481526020016001820160009054906101000a900473ffffffffffffffffffffffffffffffffffffffff1673ffffffffffffffffffffffffffffffffffffffff1673ffffffffffffffffffffffffffffffffffffffff168152602001600282015481526020016003820160009054906101000a900460ff16600281111561132457611323612df5565b5b600281111561133657611335612df5565b5b81525050905092915050565b60008054906101000a900473ffffffffffffffffffffffffffffffffffffffff1673ffffffffffffffffffffffffffffffffffffffff16638da5cb5b6040518163ffffffff1660e01b815260040160206040518083038186803b1580156113a857600080fd5b505afa1580156113bc573d6000803e3d6000fd5b505050506040513d601f19601f820116820180604052508101906113e091906136a3565b73ffffffffffffffffffffffffffffffffffffffff163373ffffffffffffffffffffffffffffffffffffffff161461144d576040517f08c379a00000000000000000000000000000000000000000000000000000000081526004016114449061371c565b60405180910390fd5b600160009054906101000a900473ffffffffffffffffffffffffffffffffffffffff1673ffffffffffffffffffffffffffffffffffffffff1663a9059cbb60008054906101000a900473ffffffffffffffffffffffffffffffffffffffff1673ffffffffffffffffffffffffffffffffffffffff16638da5cb5b6040518163ffffffff1660e01b815260040160206040518083038186803b1580156114f157600080fd5b505afa158015611505573d6000803e3d6000fd5b505050506040513d601f19601f8201168201806040525081019061152991906136a3565b836040518363ffffffff1660e01b81526004016115479291906134b9565b602060405180830381600087803b15801561156157600080fd5b505af1158015611575573d6000803e3d6000fd5b505050506040513d601f19601f82011682018060405250810190611599919061348c565b5050565b60045481565b6000600160035442846115b691906134e2565b6115c091906131d8565b6115ca91906132e1565b9050919050565b60085481565b6000600d6000838152602001908152602001600020600a01805490509050919050565b600080821161160d576006549050611638565b6006546006546006548461162191906131d8565b61162b919061314f565b61163591906132e1565b90505b919050565b6000600e80549050905090565b60008061165642611218565b905043600d60008381526020019081526020016000206008018190555061169c600a5461168e6003548461279490919063ffffffff16565b6127aa90919063ffffffff16565b42101580156116c157506000600d600083815260200190815260200160002060040154145b15611776576116f1600560009054906101000a900473ffffffffffffffffffffffffffffffffffffffff166127c0565b8063ffffffff169050600d60008581526020019081526020016000206004016000600d60008781526020019081526020016000206006016000849190505583965084919050555050507f163614e6e9ce9df7687928015fd2c748b69c5136db886e57f09170b251b58e87816040516117699190612cbb565b60405180910390a1611852565b61179f600a546117916003548461279490919063ffffffff16565b6127aa90919063ffffffff16565b4210611851576117d0600560009054906101000a900473ffffffffffffffffffffffffffffffffffffffff166127c0565b8063ffffffff169050600d60008581526020019081526020016000206005016000600d60008781526020019081526020016000206007016000849190505583965084919050555050507f163614e6e9ce9df7687928015fd2c748b69c5136db886e57f09170b251b58e87816040516118489190612cbb565b60405180910390a15b5b5050565b600d6020528060005260406000206000915090508060000154908060010160009054906101000a900460ff16908060020154908060030154908060040154908060050154908060060154908060070154908060080154905089565b6000806118bd85611218565b905060006118ca856115fa565b905060006118d88386611eb5565b905080600d600085815260200190815260200160002060090160008481526020019081526020016000206002015461191091906132e1565b93505050509392505050565b806000620186a060085483611931919061314f565b61193b91906131d8565b9050600b54811015611982576040517f08c379a000000000000000000000000000000000000000000000000000000000815260040161197990613255565b60405180910390fd5b600061198d86610672565b9050600061199b82876126a3565b90503373ffffffffffffffffffffffffffffffffffffffff16600d6000848152602001908152602001600020600901600083815260200190815260200160002060010160009054906101000a900473ffffffffffffffffffffffffffffffffffffffff1673ffffffffffffffffffffffffffffffffffffffff1614611a55576040517f08c379a0000000000000000000000000000000000000000000000000000000008152600401611a4c90613788565b60405180910390fd5b6000611a618387611eb5565b90506000611a9984600d6000878152602001908152602001600020600901600086815260200190815260200160002060020154611eb5565b905080821115611ca6578082611aaf91906134e2565b600160009054906101000a900473ffffffffffffffffffffffffffffffffffffffff1673ffffffffffffffffffffffffffffffffffffffff1663dd62ed3e33306040518363ffffffff1660e01b8152600401611b0c929190613346565b60206040518083038186803b158015611b2457600080fd5b505afa158015611b38573d6000803e3d6000fd5b505050506040513d601f19601f82011682018060405250810190611b5c9190613384565b1015611b9d576040517f08c379a0000000000000000000000000000000000000000000000000000000008152600401611b94906133fd565b60405180910390fd5b600160009054906101000a900473ffffffffffffffffffffffffffffffffffffffff1673ffffffffffffffffffffffffffffffffffffffff166323b872dd33308486611be991906134e2565b6040518463ffffffff1660e01b8152600401611c079392919061341d565b602060405180830381600087803b158015611c2157600080fd5b505af1158015611c35573d6000803e3d6000fd5b505050506040513d601f19601f82011682018060405250810190611c59919061348c565b508082611c6691906134e2565b600d600086815260200190815260200160002060030154611c8791906132e1565b600d600086815260200190815260200160002060030181905550611db2565b80821015611db157600160009054906101000a900473ffffffffffffffffffffffffffffffffffffffff1673ffffffffffffffffffffffffffffffffffffffff1663a9059cbb338484611cf991906134e2565b6040518363ffffffff1660e01b8152600401611d169291906134b9565b602060405180830381600087803b158015611d3057600080fd5b505af1158015611d44573d6000803e3d6000fd5b505050506040513d601f19601f82011682018060405250810190611d68919061348c565b508181611d7591906134e2565b600d600086815260200190815260200160002060030154611d9691906134e2565b600d6000868152602001908152602001600020600301819055505b5b86600d60008681526020019081526020016000206009016000858152602001908152602001600020600201819055507fd0d6f900b5096e8e38e0b13b83d7ac826d0c461a139f26a9bfbee4b4d3d1e9198484604051611e12929190613516565b60405180910390a1505050505050505050565b60008054906101000a900473ffffffffffffffffffffffffffffffffffffffff1681565b600560009054906101000a900473ffffffffffffffffffffffffffffffffffffffff1681565b6000600d6000838152602001908152602001600020600301549050919050565b600160009054906101000a900473ffffffffffffffffffffffffffffffffffffffff1681565b600080611ee742611ed9611ed46003544261279490919063ffffffff16565b611218565b6127aa90919063ffffffff16565b9050600060035482600c54611efc919061314f565b611f0691906131d8565b90506000611f13866115a3565b905080620186a060085487611f28919061314f565b611f3291906131d8565b611f3c919061314f565b93506000620186a060085487611f52919061314f565b611f5c91906131d8565b9050600c548382611f6d919061314f565b611f7791906131d8565b90508085611f8591906132e1565b94505050505092915050565b60035481565b806000600d600083815260200190815260200160002060040154111580611fd557506000600d60008381526020019081526020016000206005015411155b15612054576003600d600083815260200190815260200160002060010160006101000a81548160ff0219169083600381111561201457612013612df5565b5b02179055506040517f08c379a000000000000000000000000000000000000000000000000000000000815260040161204b906137f4565b60405180910390fd5b600d600082815260200190815260200160002060050154600d6000838152602001908152602001600020600401541415612102576003600d600083815260200190815260200160002060010160006101000a81548160ff021916908360038111156120c2576120c1612df5565b5b02179055506040517f08c379a00000000000000000000000000000000000000000000000000000000081526004016120f9906137f4565b60405180910390fd5b6001600381111561211657612115612df5565b5b600d600084815260200190815260200160002060010160009054906101000a900460ff16600381111561214c5761214b612df5565b5b1461218c576040517f08c379a000000000000000000000000000000000000000000000000000000000815260040161218390613860565b60405180910390fd5b426003548361219b91906132e1565b11156121dc576040517f08c379a00000000000000000000000000000000000000000000000000000000081526004016121d3906138cc565b60405180910390fd5b6002600d600084815260200190815260200160002060010160006101000a81548160ff0219169083600381111561221657612215612df5565b5b02179055506000600d600084815260200190815260200160002060040154600d60008581526020019081526020016000206005015461225591906134e2565b90506000600d600085815260200190815260200160002060060154600d60008681526020019081526020016000206007015461229191906134e2565b90506122c96040518060200160405280847bffffffffffffffffffffffffffffffffffffffffffffffffffffffff1681525082612a1b565b600001517bffffffffffffffffffffffffffffffffffffffffffffffffffffffff16600d6000868152602001908152602001600020600201819055507406d79f82328ea3da61e066ebb2f88a0000000000006070600d600087815260200190815260200160002060020154901b61234091906131d8565b600c546070600d600088815260200190815260200160002060020154901c612368919061314f565b61237291906132e1565b600d6000868152602001908152602001600020600201819055506000620186a0600754600d6000888152602001908152602001600020600301546123b6919061314f565b6123c091906131d8565b90506000620186a0600954600d6000898152602001908152602001600020600301546123ec919061314f565b6123f691906131d8565b90508082600d60008981526020019081526020016000206003015461241b91906134e2565b61242591906134e2565b600d600088815260200190815260200160002060030181905550600160009054906101000a900473ffffffffffffffffffffffffffffffffffffffff1673ffffffffffffffffffffffffffffffffffffffff1663a9059cbb600260009054906101000a900473ffffffffffffffffffffffffffffffffffffffff16846040518363ffffffff1660e01b81526004016124be92919061390d565b602060405180830381600087803b1580156124d857600080fd5b505af11580156124ec573d6000803e3d6000fd5b505050506040513d601f19601f82011682018060405250810190612510919061348c565b50600160009054906101000a900473ffffffffffffffffffffffffffffffffffffffff1673ffffffffffffffffffffffffffffffffffffffff1663a9059cbb60008054906101000a900473ffffffffffffffffffffffffffffffffffffffff1673ffffffffffffffffffffffffffffffffffffffff16638da5cb5b6040518163ffffffff1660e01b815260040160206040518083038186803b1580156125b557600080fd5b505afa1580156125c9573d6000803e3d6000fd5b505050506040513d601f19601f820116820180604052508101906125ed91906136a3565b836040518363ffffffff1660e01b815260040161260b9291906134b9565b602060405180830381600087803b15801561262557600080fd5b505af1158015612639573d6000803e3d6000fd5b505050506040513d601f19601f8201168201806040525081019061265d919061348c565b507f163614e6e9ce9df7687928015fd2c748b69c5136db886e57f09170b251b58e878660405161268d9190612cbb565b60405180910390a1505050505050565b600a5481565b6000806126af836115fa565b9050600060028111156126c5576126c4612df5565b5b600d6000868152602001908152602001600020600901600083815260200190815260200160002060030160009054906101000a900460ff16600281111561270f5761270e612df5565b5b1461271d578091505061278e565b80600d6000868152602001908152602001600020600901600083815260200190815260200160002060000181905550600d6000858152602001908152602001600020600a01819080600181540180825580915050600190039060005260206000200160009091909190915055809150505b92915050565b600081836127a291906132e1565b905092915050565b600081836127b891906134e2565b905092915050565b60008060006127cd612acb565b90508373ffffffffffffffffffffffffffffffffffffffff16635909c0d56040518163ffffffff1660e01b815260040160206040518083038186803b15801561281557600080fd5b505afa158015612829573d6000803e3d6000fd5b505050506040513d601f19601f8201168201806040525081019061284d9190613384565b92508373ffffffffffffffffffffffffffffffffffffffff16635a3d54936040518163ffffffff1660e01b815260040160206040518083038186803b15801561289557600080fd5b505afa1580156128a9573d6000803e3d6000fd5b505050506040513d601f19601f820116820180604052508101906128cd9190613384565b915060008060008673ffffffffffffffffffffffffffffffffffffffff16630902f1ac6040518163ffffffff1660e01b815260040160606040518083038186803b15801561291a57600080fd5b505afa15801561292e573d6000803e3d6000fd5b505050506040513d601f19601f8201168201806040525081019061295291906139b8565b9250925092508363ffffffff168163ffffffff1614612a1157600081856129799190613a0b565b90508063ffffffff1661298c8486612ae3565b600001517bffffffffffffffffffffffffffffffffffffffffffffffffffffffff166129b8919061314f565b876129c391906132e1565b96508063ffffffff166129d68585612ae3565b600001517bffffffffffffffffffffffffffffffffffffffffffffffffffffffff16612a02919061314f565b86612a0d91906132e1565b9550505b5050509193909250565b612a23612c13565b6000826dffffffffffffffffffffffffffff161415612a77576040517f08c379a0000000000000000000000000000000000000000000000000000000008152600401612a6e90613a8b565b60405180910390fd5b6040518060200160405280836dffffffffffffffffffffffffffff168560000151612aa29190613ad3565b7bffffffffffffffffffffffffffffffffffffffffffffffffffffffff16815250905092915050565b600064010000000042612ade9190613646565b905090565b612aeb612c13565b6000826dffffffffffffffffffffffffffff1611612b3e576040517f08c379a0000000000000000000000000000000000000000000000000000000008152600401612b3590613a8b565b60405180910390fd5b6040518060200160405280836dffffffffffffffffffffffffffff16607060ff16866dffffffffffffffffffffffffffff167bffffffffffffffffffffffffffffffffffffffffffffffffffffffff16901b612b9a9190613ad3565b7bffffffffffffffffffffffffffffffffffffffffffffffffffffffff16815250905092915050565b604051806080016040528060008152602001600073ffffffffffffffffffffffffffffffffffffffff1681526020016000815260200160006002811115612c0d57612c0c612df5565b5b81525090565b604051806020016040528060007bffffffffffffffffffffffffffffffffffffffffffffffffffffffff1681525090565b600080fd5b6000819050919050565b612c5c81612c49565b8114612c6757600080fd5b50565b600081359050612c7981612c53565b92915050565b600060208284031215612c9557612c94612c44565b5b6000612ca384828501612c6a565b91505092915050565b612cb581612c49565b82525050565b6000602082019050612cd06000830184612cac565b92915050565b600080600060608486031215612cef57612cee612c44565b5b6000612cfd86828701612c6a565b9350506020612d0e86828701612c6a565b9250506040612d1f86828701612c6a565b9150509250925092565b60008060408385031215612d4057612d3f612c44565b5b6000612d4e85828601612c6a565b9250506020612d5f85828601612c6a565b9150509250929050565b600073ffffffffffffffffffffffffffffffffffffffff82169050919050565b6000612d9482612d69565b9050919050565b612da481612d89565b82525050565b6000602082019050612dbf6000830184612d9b565b92915050565b612dce81612c49565b82525050565b6000612ddf82612d69565b9050919050565b612def81612dd4565b82525050565b7f4e487b7100000000000000000000000000000000000000000000000000000000600052602160045260246000fd5b60038110612e3557612e34612df5565b5b50565b6000819050612e4682612e24565b919050565b6000612e5682612e38565b9050919050565b612e6681612e4b565b82525050565b608082016000820151612e826000850182612dc5565b506020820151612e956020850182612de6565b506040820151612ea86040850182612dc5565b506060820151612ebb6060850182612e5d565b50505050565b6000608082019050612ed66000830184612e6c565b92915050565b60048110612eed57612eec612df5565b5b50565b6000819050612efe82612edc565b919050565b6000612f0e82612ef0565b9050919050565b612f1e81612f03565b82525050565b600061012082019050612f3a600083018c612cac565b612f47602083018b612f15565b612f54604083018a612cac565b612f616060830189612cac565b612f6e6080830188612cac565b612f7b60a0830187612cac565b612f8860c0830186612cac565b612f9560e0830185612cac565b612fa3610100830184612cac565b9a9950505050505050505050565b6000819050919050565b6000612fd6612fd1612fcc84612d69565b612fb1565b612d69565b9050919050565b6000612fe882612fbb565b9050919050565b6000612ffa82612fdd565b9050919050565b61300a81612fef565b82525050565b60006020820190506130256000830184613001565b92915050565b600061303682612fdd565b9050919050565b6130468161302b565b82525050565b6000602082019050613061600083018461303d565b92915050565b600061307282612fdd565b9050919050565b61308281613067565b82525050565b600060208201905061309d6000830184613079565b92915050565b600082825260208201905092915050565b7f43414e275420435245415445204652414d4520494e2050415354000000000000600082015250565b60006130ea601a836130a3565b91506130f5826130b4565b602082019050919050565b60006020820190508181036000830152613119816130dd565b9050919050565b7f4e487b7100000000000000000000000000000000000000000000000000000000600052601160045260246000fd5b600061315a82612c49565b915061316583612c49565b9250817fffffffffffffffffffffffffffffffffffffffffffffffffffffffffffffffff048311821515161561319e5761319d613120565b5b828202905092915050565b7f4e487b7100000000000000000000000000000000000000000000000000000000600052601260045260246000fd5b60006131e382612c49565b91506131ee83612c49565b9250826131fe576131fd6131a9565b5b828204905092915050565b7f505249434520495320544f4f204c4f5700000000000000000000000000000000600082015250565b600061323f6010836130a3565b915061324a82613209565b602082019050919050565b6000602082019050818103600083015261326e81613232565b9050919050565b7f4144445245535320414c5245414459204f574e53205448452050415243454c00600082015250565b60006132ab601f836130a3565b91506132b682613275565b602082019050919050565b600060208201905081810360008301526132da8161329e565b9050919050565b60006132ec82612c49565b91506132f783612c49565b9250827fffffffffffffffffffffffffffffffffffffffffffffffffffffffffffffffff0382111561332c5761332b613120565b5b828201905092915050565b61334081612dd4565b82525050565b600060408201905061335b6000830185613337565b6133686020830184613337565b9392505050565b60008151905061337e81612c53565b92915050565b60006020828403121561339a57613399612c44565b5b60006133a88482850161336f565b91505092915050565b7f415050524f56454420414d4f554e5420495320544f4f20534d414c4c00000000600082015250565b60006133e7601c836130a3565b91506133f2826133b1565b602082019050919050565b60006020820190508181036000830152613416816133da565b9050919050565b60006060820190506134326000830186613337565b61343f6020830185613337565b61344c6040830184612cac565b949350505050565b60008115159050919050565b61346981613454565b811461347457600080fd5b50565b60008151905061348681613460565b92915050565b6000602082840312156134a2576134a1612c44565b5b60006134b084828501613477565b91505092915050565b60006040820190506134ce6000830185613337565b6134db6020830184612cac565b9392505050565b60006134ed82612c49565b91506134f883612c49565b92508282101561350b5761350a613120565b5b828203905092915050565b600060408201905061352b6000830185612cac565b6135386020830184612cac565b9392505050565b7f4e487b7100000000000000000000000000000000000000000000000000000000600052603260045260246000fd5b7f4652414d45204e4f5420434c4f53454400000000000000000000000000000000600082015250565b60006135a46010836130a3565b91506135af8261356e565b602082019050919050565b600060208201905081810360008301526135d381613597565b9050919050565b7f4c4f5420414c524541445920534554544c454400000000000000000000000000600082015250565b60006136106013836130a3565b915061361b826135da565b602082019050919050565b6000602082019050818103600083015261363f81613603565b9050919050565b600061365182612c49565b915061365c83612c49565b92508261366c5761366b6131a9565b5b828206905092915050565b61368081612dd4565b811461368b57600080fd5b50565b60008151905061369d81613677565b92915050565b6000602082840312156136b9576136b8612c44565b5b60006136c78482850161368e565b91505092915050565b7f594f5520415245204e4f542054484520464143544f5259204f574e4552000000600082015250565b6000613706601d836130a3565b9150613711826136d0565b602082019050919050565b60006020820190508181036000830152613735816136f9565b9050919050565b7f544849532041444452455353204953204e4f5420544845204f574e4552000000600082015250565b6000613772601d836130a3565b915061377d8261373c565b602082019050919050565b600060208201905081810360008301526137a181613765565b9050919050565b7f494e56414c494420505249434553000000000000000000000000000000000000600082015250565b60006137de600e836130a3565b91506137e9826137a8565b602082019050919050565b6000602082019050818103600083015261380d816137d1565b9050919050565b7f4652414d45204e4f54204f50454e454400000000000000000000000000000000600082015250565b600061384a6010836130a3565b915061385582613814565b602082019050919050565b600060208201905081810360008301526138798161383d565b9050919050565b7f4652414d4520454e442054494d45204e4f542052454143484544000000000000600082015250565b60006138b6601a836130a3565b91506138c182613880565b602082019050919050565b600060208201905081810360008301526138e5816138a9565b9050919050565b60006138f782612fdd565b9050919050565b613907816138ec565b82525050565b600060408201905061392260008301856138fe565b61392f6020830184612cac565b9392505050565b60006dffffffffffffffffffffffffffff82169050919050565b61395981613936565b811461396457600080fd5b50565b60008151905061397681613950565b92915050565b600063ffffffff82169050919050565b6139958161397c565b81146139a057600080fd5b50565b6000815190506139b28161398c565b92915050565b6000806000606084860312156139d1576139d0612c44565b5b60006139df86828701613967565b93505060206139f086828701613967565b9250506040613a01868287016139a3565b9150509250925092565b6000613a168261397c565b9150613a218361397c565b925082821015613a3457613a33613120565b5b828203905092915050565b7f4669786564506f696e743a204449565f42595f5a45524f000000000000000000600082015250565b6000613a756017836130a3565b9150613a8082613a3f565b602082019050919050565b60006020820190508181036000830152613aa481613a68565b9050919050565b60007bffffffffffffffffffffffffffffffffffffffffffffffffffffffff82169050919050565b6000613ade82613aab565b9150613ae983613aab565b925082613af957613af86131a9565b5b82820490509291505056fea26469706673582212209b4b5833d9dbd1fa6e91974322496798eeeddfb6d45e0daa7c7225799380aad864736f6c63430008090033",
  "immutableReferences": {},
  "source": "// SPDX-License-Identifier: MIT\r\npragma solidity ^0.8.0;\r\n//pragma experimental ABIEncoderV2;\r\n\r\nimport \"./MarketFactory.sol\";\r\nimport \"@uniswap/v2-core/contracts/interfaces/IUniswapV2Pair.sol\";\r\nimport \"@uniswap/v2-periphery/contracts/libraries/UniswapV2OracleLibrary.sol\";\r\nimport \"@uniswap/lib/contracts/libraries/FixedPoint.sol\";\r\nimport \"@openzeppelin/contracts/token/ERC20/IERC20.sol\";\r\nimport \"@openzeppelin/contracts/utils/math/SafeMath.sol\";\r\n\r\n/// @title TWPM Market\r\n/// @author UniHedge\r\n/// @dev All function calls are currently implemented without side effects\r\ncontract Market {\r\n    //Safe math is reduntatn in version 0.8 and higher\r\n    //TODO: remove safemath and run tests that everything is ok\r\n    using SafeMath for uint;\r\n    //Contract for creating markets\r\n    MarketFactory public factory;\r\n    //ERC20 token used for buyng lots in this contract \r\n    IERC20 public accountingToken;\r\n    //Owner of this market\r\n    address payable public ownerMarket;\r\n    //Length of a frame\r\n    uint public period;\r\n    //Contract creation time\r\n    uint public initTimestamp; \r\n    //Token pair on Uniswap\r\n    IUniswapV2Pair public uniswapPair;\r\n    //Range of a lot\r\n    uint public dPrice;\r\n    //Fee that gets to market owner\r\n    uint public feeMarket;\r\n    //Tax on lots\r\n    uint public taxMarket;\r\n    //Protocol fee\r\n    uint public feeProtocol = 100;\r\n    //Reporting time for pair price\r\n    uint public tReporting;\r\n    //Minimal lot tax per frame\r\n    uint public minTax;\r\n    //Scalar number used for calculating precentages\r\n    uint scalar = 1e24;\r\n\r\n    enum SFrame {NULL, OPENED, CLOSED, INVALID}\r\n    struct Frame {\r\n        uint frameKey;\r\n        SFrame state;\r\n        uint priceAverage;\r\n        uint rewardFund;\r\n        uint oraclePrice0CumulativeStart;\r\n        uint oraclePrice0CumulativeEnd;\r\n        uint oracleTimestampStart;\r\n        uint oracleTimestampEnd;\r\n        uint lastBlockNum;\r\n        mapping(uint => Lot) lots;\r\n        uint[] lotKeys;\r\n    }\r\n\r\n    event FrameUpdate(uint frameKey);\r\n\r\n    mapping(uint => Frame) public frames;\r\n    uint[] public framesKeys;\r\n\r\n    enum SLot {NULL, BOUGHT, SETTLED}\r\n    struct Lot {\r\n        uint lotKey;\r\n        address lotOwner;\r\n        uint acquisitionPrice;\r\n        SLot state;\r\n    }\r\n\r\n    event LotUpdate(uint frameKey, uint lotKey);\r\n\r\n    constructor(MarketFactory _factory, IERC20 _token, IUniswapV2Pair _uniswapPair, uint _period, uint _initTimestamp, uint _taxMarket, uint _feeMarket, uint _dPrice, uint _tReporting, uint _minTax) {\r\n        accountingToken = _token;\r\n        ownerMarket = payable(msg.sender);\r\n        period = _period;\r\n        initTimestamp = _initTimestamp; \r\n        taxMarket = _taxMarket;\r\n        feeMarket = _feeMarket;\r\n        uniswapPair = _uniswapPair;\r\n        dPrice = _dPrice;\r\n        factory = _factory;\r\n        tReporting = _tReporting;\r\n        minTax = _minTax;\r\n    }\r\n\r\n    modifier minTaxCheck(uint acqPrice) {\r\n        uint tax = acqPrice * (taxMarket) / (100000);\r\n        require(tax >= minTax, \"PRICE IS TOO LOW\");\r\n        _;\r\n    }\r\n\r\n    modifier isFactoryOwner() {\r\n        require(msg.sender == factory.owner(), \"YOU ARE NOT THE FACTORY OWNER\");\r\n        _;\r\n    }\r\n\r\n    modifier hasValidPrices(uint framekey) {\r\n        if (frames[framekey].oraclePrice0CumulativeStart <= 0 || frames[framekey].oraclePrice0CumulativeEnd <= 0) {\r\n            frames[framekey].state = SFrame.INVALID;\r\n            revert(\"INVALID PRICES\");\r\n        }\r\n        if (frames[framekey].oraclePrice0CumulativeStart == frames[framekey].oraclePrice0CumulativeEnd) {\r\n            frames[framekey].state = SFrame.INVALID;\r\n            revert(\"INVALID PRICES\");\r\n        }\r\n        _;\r\n    }\r\n\r\n    /// @notice Calculate frames timestamp (beggining of frame)\r\n    /// @param timestamp In seconds\r\n    /// @return frame's timestamp (key)\r\n    function clcFrameTimestamp(uint timestamp) public view returns (uint){\r\n        if (timestamp <= initTimestamp) return initTimestamp;\r\n        return timestamp - ((timestamp - (initTimestamp)) % (period));\r\n    }\r\n\r\n    /// @notice Calculate top boundary of a lot\r\n    /// @param value Arbitary price of market's Uniswap pair\r\n    /// @return lot key (top boundary)\r\n    function clcLotInterval(uint value) public view returns (uint){\r\n        if (value <= 0) return dPrice;\r\n        return value / (dPrice) * (dPrice) + (dPrice);\r\n    }\r\n\r\n    /// @notice Calculate how many frames there are left untill given frame in input\r\n    /// @param frameKey Timestamp of an arbitary frame in the future\r\n    /// @return number of frames (whole numbers: n=0,1,2...)\r\n    function clcFramesLeft(uint frameKey) public view returns (uint){                      \r\n        return (((frameKey - (block.timestamp)) / period) + 1);\r\n    }\r\n\r\n    /// @notice Get lot struct\r\n    /// @param frameKey Frame's timestamp\r\n    /// @param lotKey lot's key \r\n    /// @return lot struct\r\n    function getLot(uint frameKey, uint lotKey) public view returns (Lot memory){                 \r\n        return frames[frameKey].lots[lotKey];\r\n    }\r\n\r\n    /// @notice Get no. of created lots in a frame \r\n    /// @param frameKey Frame's timestamp\r\n    /// @return lot count\r\n    function getLotsCount(uint frameKey) public view returns (uint){                 \r\n        return frames[frameKey].lotKeys.length;\r\n    }\r\n\r\n    /// @notice Get lotKey from index in lotKeys array\r\n    /// @param frameKey Frame's timestamp\r\n    /// @param index frameKeys array index \r\n    /// @return lotKey\r\n    function getLotKey(uint frameKey, uint index) public view returns (uint){                 \r\n        return frames[frameKey].lotKeys[index];\r\n    }\r\n\r\n    /// @notice Get frame's award amount (accumulation of different lot taxes)\r\n    /// @notice Remaining tax of a lot owner get's returned after a sale (change of ownership). So the award amount isn't for sure untill the frame get's closed.\r\n    /// @param frameKey Frame's timestamp\r\n    /// @return award amount\r\n    function getRewardAmount(uint frameKey) public view returns (uint) {                         \r\n        return frames[frameKey].rewardFund; \r\n    }\r\n\r\n    /// @notice Get number of frames\r\n    /// @return number frames\r\n    function getNumberOfFrameKeys() public view returns (uint){\r\n        return framesKeys.length;\r\n    }\r\n\r\n    /// @notice Create a frame\r\n    /// @param timestamp In second.\r\n    /// @return frameTimestamp Frame's key (timestamp that indicated the beggining of a frame).\r\n    function getOrCreateFrame(uint timestamp) public returns (uint){\r\n        //Get frame's timestamp - frame key\r\n        uint frameKey = clcFrameTimestamp(timestamp);\r\n        //Check if frame exists\r\n        if (frames[frameKey].state != SFrame.NULL) return frameKey;\r\n        require(frameKey >= clcFrameTimestamp(block.timestamp), \"CAN'T CREATE FRAME IN PAST\");\r\n        //Add frame\r\n        frames[frameKey].frameKey = frameKey;\r\n        frames[frameKey].state = SFrame.OPENED;\r\n        framesKeys.push(frameKey);\r\n        emit FrameUpdate(frameKey);\r\n        return frameKey;\r\n    }\r\n\r\n    /// @notice Create a lot\r\n    /// @param frameKey Frame's timestamp\r\n    /// @param pairPrice Price is the trading pair's price\r\n    /// @return lotKey\r\n    function getOrCreateLot(uint frameKey, uint pairPrice) internal returns(uint){\r\n        uint lotKey = clcLotInterval(pairPrice);\r\n        if (frames[frameKey].lots[lotKey].state != SLot.NULL) return lotKey;\r\n        frames[frameKey].lots[lotKey].lotKey = lotKey;\r\n        frames[frameKey].lotKeys.push(lotKey);\r\n        return lotKey;\r\n    }\r\n\r\n    function clcTax(uint frameKey, uint acquisitionPrice) public view returns (uint tax) {             \r\n        uint dFrame = (clcFrameTimestamp(block.timestamp.add(period))).sub(block.timestamp); \r\n        uint dFrameP = scalar * dFrame / (period);\r\n        //Calculate tax from the proposed acquisition price \r\n        uint numOfFramesLeft = clcFramesLeft(frameKey);\r\n        tax = acquisitionPrice * taxMarket / 100000 * numOfFramesLeft;\r\n        uint dtax = acquisitionPrice * taxMarket / 100000;\r\n        dtax = dtax * dFrameP / scalar;\r\n        tax = tax + dtax;\r\n        return tax;\r\n    }\r\n\r\n    /// @notice Calculate amout required to approve to buy a lot\r\n    /// @param timestamp Timestamp that determins which frame it is\r\n    /// @param pairPrice Value is trading pair's price (to get correct lot key) \r\n    /// @param acqPrice New sell price is required to calculate tax\r\n    /// @return cmpltAmnt complete price of a lot\r\n    function clcAmountToApprove(uint timestamp, uint pairPrice, uint acqPrice) public view returns (uint cmpltAmnt) {    \r\n        uint frameKey = clcFrameTimestamp(timestamp);         \r\n        uint lotKey = clcLotInterval(pairPrice);\r\n        uint tax = clcTax(frameKey, acqPrice);\r\n        cmpltAmnt = frames[frameKey].lots[lotKey].acquisitionPrice + tax;\r\n        return cmpltAmnt;\r\n    }\r\n\r\n    /// @notice Calculate amout required to approve to buy a lot\r\n    /// @param timestamp Frame's timestamp get's calculated from this value\r\n    /// @param pairPrice Is trading pair's price (to get correct lot key) \r\n    /// @param acqPrice New sell price is required to calculate tax\r\n    function buyLot(uint timestamp, uint pairPrice, uint acqPrice) public minTaxCheck(acqPrice) {\r\n        //Get frameKey and lotKey values\r\n        uint frameKey =  getOrCreateFrame(timestamp);                          \r\n        uint lotKey = getOrCreateLot(frameKey, pairPrice);\r\n        require(msg.sender != frames[frameKey].lots[lotKey].lotOwner, \"ADDRESS ALREADY OWNS THE PARCEL\");\r\n\r\n        uint tax = clcTax(frameKey, acqPrice);\r\n\r\n        //Approved amount has to be at leat equal to price of the Lot(with tax)\r\n        require(accountingToken.allowance(msg.sender, address(this)) >= (frames[frameKey].lots[lotKey].acquisitionPrice + tax), \"APPROVED AMOUNT IS TOO SMALL\");\r\n        //Transfer tax amount to the market contract\r\n        accountingToken.transferFrom(msg.sender, address(this), (frames[frameKey].lots[lotKey].acquisitionPrice + tax));\r\n        frames[frameKey].rewardFund = (frames[frameKey].rewardFund + tax);\r\n\r\n        //Pay the current owner + return leftover tax\r\n        if (frames[frameKey].lots[lotKey].state == SLot.BOUGHT) {\r\n            uint taxRetrn = clcTax(frameKey, frames[frameKey].lots[lotKey].acquisitionPrice);\r\n            //transfer funds\r\n            accountingToken.transfer(frames[frameKey].lots[lotKey].lotOwner, (taxRetrn + frames[frameKey].lots[lotKey].acquisitionPrice));\r\n            //update reward fund\r\n            frames[frameKey].rewardFund = frames[frameKey].rewardFund - taxRetrn;\r\n        }\r\n        else {\r\n            frames[frameKey].lots[lotKey].state = SLot.BOUGHT;\r\n        }\r\n       //Update lotKey values\r\n        frames[frameKey].lots[lotKey].lotOwner = msg.sender;\r\n        frames[frameKey].lots[lotKey].acquisitionPrice = acqPrice;\r\n\r\n        //updateFramePrices();\r\n        emit LotUpdate(frameKey, lotKey);\r\n    }\r\n\r\n    /// @notice Owner can update lot's price. Has to pay additional tax, or leftover tax gets' returned to him if the new price is lower\r\n    /// @param timestamp Frame's timestamp get's calculated from this value\r\n    /// @param pairPrice Is trading pair's price (to get correct lot key) \r\n    /// @param acqPrice New acquisition price\r\n    function updateLotPrice(uint timestamp, uint pairPrice, uint acqPrice) public minTaxCheck(acqPrice) {\r\n        uint frameKey = getOrCreateFrame(timestamp); \r\n        uint lotKey = getOrCreateLot(frameKey, pairPrice); \r\n        require(frames[frameKey].lots[lotKey].lotOwner == msg.sender, \"THIS ADDRESS IS NOT THE OWNER\");\r\n\r\n        uint taxNew = clcTax(frameKey, acqPrice);\r\n        uint taxOld = clcTax(frameKey, frames[frameKey].lots[lotKey].acquisitionPrice);\r\n\r\n        if (taxNew > taxOld) {\r\n            require(accountingToken.allowance(msg.sender, address(this)) >= (taxNew - taxOld), \"APPROVED AMOUNT IS TOO SMALL\");\r\n            //Transfer complete tax amount to the frame rewardFund\r\n            accountingToken.transferFrom(msg.sender, address(this), (taxNew - taxOld));\r\n            frames[frameKey].rewardFund = frames[frameKey].rewardFund + (taxNew- taxOld);\r\n        }\r\n        else if (taxNew < taxOld) {\r\n            accountingToken.transfer(msg.sender, taxOld - taxNew);\r\n            frames[frameKey].rewardFund = frames[frameKey].rewardFund - (taxOld - taxNew);\r\n        }\r\n        frames[frameKey].lots[lotKey].acquisitionPrice = acqPrice;\r\n\r\n        //updateFramePrices();\r\n        emit LotUpdate(frameKey, lotKey);\r\n    }\r\n\r\n    /// @notice Update trading pair's prices in the frame\r\n    function updateFramePrices() public {\r\n        uint tmp;\r\n        uint frameKey = clcFrameTimestamp(block.timestamp);\r\n        frames[frameKey].lastBlockNum = block.number;\r\n        //Correct price if outside settle interval\r\n        if (block.timestamp >= ((frameKey.add(period)).sub(tReporting)) && frames[frameKey].oraclePrice0CumulativeStart == 0) {\r\n            (frames[frameKey].oraclePrice0CumulativeStart, tmp, frames[frameKey].oracleTimestampStart) = UniswapV2OracleLibrary.currentCumulativePrices(address(uniswapPair));\r\n            emit FrameUpdate(frameKey);\r\n        }\r\n        else if (block.timestamp >= ((frameKey.add(period)).sub(tReporting))) {\r\n            (frames[frameKey].oraclePrice0CumulativeEnd, tmp, frames[frameKey].oracleTimestampEnd) = UniswapV2OracleLibrary.currentCumulativePrices(address(uniswapPair));\r\n            emit FrameUpdate(frameKey);\r\n        }\r\n    }\r\n\r\n    // /// @notice Update trading pair's prices in the frame\r\n    // /// @param PriceCumulative Cumulative price\r\n    // /// @dev For developement purposes the new price is added as an input\r\n    // /// @dev Final version should use uniswap's oracles\r\n    // function updateFramePrices(uint PriceCumulative) public {\r\n    //     uint frameKey = clcFrameTimestamp(block.timestamp);\r\n    //     frames[frameKey].lastBlockNum = block.number;\r\n    //     //Correct price if outside settle interval\r\n    //     if (block.timestamp >= ((frameKey + period) - tReporting) && frames[frameKey].oraclePrice0CumulativeStart == 0) {\r\n    //         frames[frameKey].oraclePrice0CumulativeStart = PriceCumulative;\r\n    //         frames[frameKey].oracleTimestampStart = block.timestamp;\r\n    //         emit FrameUpdate(frameKey);\r\n    //     }\r\n    //     else if (block.timestamp >= ((frameKey + period) - tReporting)) {\r\n    //         frames[frameKey].oraclePrice0CumulativeEnd = PriceCumulative;\r\n    //         frames[frameKey].oracleTimestampEnd = block.timestamp;\r\n    //         emit FrameUpdate(frameKey);\r\n    //     }\r\n    // }\r\n\r\n    /// @notice Close frame\r\n    /// @param frameKey Frame's timestamp\r\n    function closeFrame(uint frameKey) public hasValidPrices(frameKey) {\r\n        require(frames[frameKey].state == SFrame.OPENED, \"FRAME NOT OPENED\");\r\n        require( (frameKey + period) <= block.timestamp, \"FRAME END TIME NOT REACHED\");\r\n        frames[frameKey].state = SFrame.CLOSED;\r\n        //UQ112x112 encoded\r\n        uint priceDiff = frames[frameKey].oraclePrice0CumulativeEnd - frames[frameKey].oraclePrice0CumulativeStart;\r\n        uint timeDiff = frames[frameKey].oracleTimestampEnd - frames[frameKey].oracleTimestampStart;\r\n        //Calculate time-weighted average price -- UQ112x112 encoded\r\n        frames[frameKey].priceAverage = uint(((FixedPoint.div(FixedPoint.uq112x112(uint224(priceDiff)), (uint112(timeDiff)))))._x);\r\n        //Decode to scalar value\r\n        frames[frameKey].priceAverage = (frames[frameKey].priceAverage >> 112) * scalar + (frames[frameKey].priceAverage << 112) / (1e49); \r\n        //Subtract fees from the reward amount \r\n        uint marketOwnerFees = frames[frameKey].rewardFund * (feeMarket) / 100000;\r\n        uint protocolOwnerFees = frames[frameKey].rewardFund * (feeProtocol) / 100000;\r\n        frames[frameKey].rewardFund = frames[frameKey].rewardFund - marketOwnerFees - protocolOwnerFees;\r\n        //Transfer fees to owners\r\n        accountingToken.transfer(ownerMarket, marketOwnerFees);\r\n        accountingToken.transfer(factory.owner(), protocolOwnerFees);\r\n        emit FrameUpdate(frameKey);\r\n    }\r\n\r\n    /// @notice Settle lot for a owner. Owner's share of the reward amount get's transfered to owner's account\r\n    /// @param frameKey Frame's timestamp\r\n    function settleLot(uint frameKey) public {  \r\n        //Check if frame is closed\r\n        require(frames[frameKey].state == SFrame.CLOSED, \"FRAME NOT CLOSED\");    \r\n        //Calcualte the winning lot key\r\n        uint lotKeyWin = (clcLotInterval(frames[frameKey].priceAverage));\r\n        //Check if the lot is already settled\r\n        require(frames[frameKey].lots[lotKeyWin].state != SLot.SETTLED, \"LOT ALREADY SETTLED\");\r\n        //Transfer winnings to last owner \r\n        accountingToken.transfer(frames[frameKey].lots[lotKeyWin].lotOwner, frames[frameKey].rewardFund);\r\n        //State is changed to settled\r\n        frames[frameKey].lots[lotKeyWin].state = SLot.SETTLED;\r\n\r\n        emit LotUpdate(frameKey, lotKeyWin);\r\n    }\r\n\r\n    /// TODO: edit the frame fund value if that money is taken \r\n    /// @notice Withdraw any amount out of the contract. Only to be used in extreme cases!\r\n    /// @param amount Amount you want to withdraw\r\n    function emptyFunds(uint amount) public isFactoryOwner {  \r\n        accountingToken.transfer(factory.owner(), amount);\r\n    }\r\n\r\n\r\n}",
  "sourcePath": "D:\\prog\\UniHedge\\core\\contracts\\Market.sol",
  "compiler": {
    "name": "solc",
    "version": "0.8.9+commit.e5eed63a.Emscripten.clang"
  },
  "schemaVersion": "3.4.3",
  "updatedAt": "2021-10-01T13:23:27.231Z",
  "devdoc": {
    "author": "UniHedge",
    "details": "All function calls are currently implemented without side effects",
    "kind": "dev",
    "methods": {
      "buyLot(uint256,uint256,uint256)": {
        "params": {
          "acqPrice": "New sell price is required to calculate tax",
          "pairPrice": "Is trading pair's price (to get correct lot key) ",
          "timestamp": "Frame's timestamp get's calculated from this value"
        }
      },
      "clcAmountToApprove(uint256,uint256,uint256)": {
        "params": {
          "acqPrice": "New sell price is required to calculate tax",
          "pairPrice": "Value is trading pair's price (to get correct lot key) ",
          "timestamp": "Timestamp that determins which frame it is"
        },
        "returns": {
          "cmpltAmnt": "complete price of a lot"
        }
      },
      "clcFrameTimestamp(uint256)": {
        "params": {
          "timestamp": "In seconds"
        },
        "returns": {
          "_0": "frame's timestamp (key)"
        }
      },
      "clcFramesLeft(uint256)": {
        "params": {
          "frameKey": "Timestamp of an arbitary frame in the future"
        },
        "returns": {
          "_0": "number of frames (whole numbers: n=0,1,2...)"
        }
      },
      "clcLotInterval(uint256)": {
        "params": {
          "value": "Arbitary price of market's Uniswap pair"
        },
        "returns": {
          "_0": "lot key (top boundary)"
        }
      },
      "closeFrame(uint256)": {
        "params": {
          "frameKey": "Frame's timestamp"
        }
      },
      "emptyFunds(uint256)": {
        "params": {
          "amount": "Amount you want to withdraw"
        }
      },
      "getLot(uint256,uint256)": {
        "params": {
          "frameKey": "Frame's timestamp",
          "lotKey": "lot's key "
        },
        "returns": {
          "_0": "lot struct"
        }
      },
      "getLotKey(uint256,uint256)": {
        "params": {
          "frameKey": "Frame's timestamp",
          "index": "frameKeys array index "
        },
        "returns": {
          "_0": "lotKey"
        }
      },
      "getLotsCount(uint256)": {
        "params": {
          "frameKey": "Frame's timestamp"
        },
        "returns": {
          "_0": "lot count"
        }
      },
      "getNumberOfFrameKeys()": {
        "returns": {
          "_0": "number frames"
        }
      },
      "getOrCreateFrame(uint256)": {
        "params": {
          "timestamp": "In second."
        },
        "returns": {
          "_0": "frameTimestamp Frame's key (timestamp that indicated the beggining of a frame)."
        }
      },
      "getRewardAmount(uint256)": {
        "params": {
          "frameKey": "Frame's timestamp"
        },
        "returns": {
          "_0": "award amount"
        }
      },
      "settleLot(uint256)": {
        "params": {
          "frameKey": "Frame's timestamp"
        }
      },
      "updateLotPrice(uint256,uint256,uint256)": {
        "params": {
          "acqPrice": "New acquisition price",
          "pairPrice": "Is trading pair's price (to get correct lot key) ",
          "timestamp": "Frame's timestamp get's calculated from this value"
        }
      }
    },
    "title": "TWPM Market",
    "version": 1
  },
  "userdoc": {
    "kind": "user",
    "methods": {
      "buyLot(uint256,uint256,uint256)": {
        "notice": "Calculate amout required to approve to buy a lot"
      },
      "clcAmountToApprove(uint256,uint256,uint256)": {
        "notice": "Calculate amout required to approve to buy a lot"
      },
      "clcFrameTimestamp(uint256)": {
        "notice": "Calculate frames timestamp (beggining of frame)"
      },
      "clcFramesLeft(uint256)": {
        "notice": "Calculate how many frames there are left untill given frame in input"
      },
      "clcLotInterval(uint256)": {
        "notice": "Calculate top boundary of a lot"
      },
      "closeFrame(uint256)": {
        "notice": "Close frame"
      },
      "emptyFunds(uint256)": {
        "notice": "TODO: edit the frame fund value if that money is taken Withdraw any amount out of the contract. Only to be used in extreme cases!"
      },
      "getLot(uint256,uint256)": {
        "notice": "Get lot struct"
      },
      "getLotKey(uint256,uint256)": {
        "notice": "Get lotKey from index in lotKeys array"
      },
      "getLotsCount(uint256)": {
        "notice": "Get no. of created lots in a frame "
      },
      "getNumberOfFrameKeys()": {
        "notice": "Get number of frames"
      },
      "getOrCreateFrame(uint256)": {
        "notice": "Create a frame"
      },
      "getRewardAmount(uint256)": {
        "notice": "Get frame's award amount (accumulation of different lot taxes)Remaining tax of a lot owner get's returned after a sale (change of ownership). So the award amount isn't for sure untill the frame get's closed."
      },
      "settleLot(uint256)": {
        "notice": "Settle lot for a owner. Owner's share of the reward amount get's transfered to owner's account"
      },
      "updateFramePrices()": {
        "notice": "Update trading pair's prices in the frame"
      },
      "updateLotPrice(uint256,uint256,uint256)": {
        "notice": "Owner can update lot's price. Has to pay additional tax, or leftover tax gets' returned to him if the new price is lower"
      }
    },
    "version": 1
  }
}