{
  "contractName": "Market",
  "abi": [
    {
      "inputs": [
        {
          "internalType": "contract MarketFactory",
          "name": "_factory",
          "type": "address"
        },
        {
          "internalType": "contract IERC20",
          "name": "_token",
          "type": "address"
        },
        {
          "internalType": "contract IUniswapV2Pair",
          "name": "_uniswapPair",
          "type": "address"
        },
        {
          "internalType": "uint256",
          "name": "_period",
          "type": "uint256"
        },
        {
          "internalType": "uint256",
          "name": "_initTimestamp",
          "type": "uint256"
        },
        {
          "internalType": "uint256",
          "name": "_taxMarket",
          "type": "uint256"
        },
        {
          "internalType": "uint256",
          "name": "_feeMarket",
          "type": "uint256"
        },
        {
          "internalType": "uint256",
          "name": "_dPrice",
          "type": "uint256"
        }
      ],
      "stateMutability": "nonpayable",
      "type": "constructor"
    },
    {
      "anonymous": false,
      "inputs": [
        {
          "indexed": false,
          "internalType": "uint256",
          "name": "frameKey",
          "type": "uint256"
        }
      ],
      "name": "FrameUpdate",
      "type": "event"
    },
    {
      "anonymous": false,
      "inputs": [
        {
          "indexed": false,
          "internalType": "uint256",
          "name": "frameKey",
          "type": "uint256"
        },
        {
          "indexed": false,
          "internalType": "uint256",
          "name": "parcelKey",
          "type": "uint256"
        }
      ],
      "name": "ParcelUpdate",
      "type": "event"
    },
    {
      "inputs": [],
      "name": "accountingToken",
      "outputs": [
        {
          "internalType": "contract IERC20",
          "name": "",
          "type": "address"
        }
      ],
      "stateMutability": "view",
      "type": "function"
    },
    {
      "inputs": [],
      "name": "dPrice",
      "outputs": [
        {
          "internalType": "uint256",
          "name": "",
          "type": "uint256"
        }
      ],
      "stateMutability": "view",
      "type": "function"
    },
    {
      "inputs": [],
      "name": "factory",
      "outputs": [
        {
          "internalType": "contract MarketFactory",
          "name": "",
          "type": "address"
        }
      ],
      "stateMutability": "view",
      "type": "function"
    },
    {
      "inputs": [],
      "name": "feeMarket",
      "outputs": [
        {
          "internalType": "uint256",
          "name": "",
          "type": "uint256"
        }
      ],
      "stateMutability": "view",
      "type": "function"
    },
    {
      "inputs": [],
      "name": "feeProtocol",
      "outputs": [
        {
          "internalType": "uint256",
          "name": "",
          "type": "uint256"
        }
      ],
      "stateMutability": "view",
      "type": "function"
    },
    {
      "inputs": [
        {
          "internalType": "uint256",
          "name": "",
          "type": "uint256"
        }
      ],
      "name": "frames",
      "outputs": [
        {
          "internalType": "uint256",
          "name": "frameKey",
          "type": "uint256"
        },
        {
          "internalType": "enum Market.SFrame",
          "name": "state",
          "type": "uint8"
        },
        {
          "internalType": "uint256",
          "name": "priceAverage",
          "type": "uint256"
        },
        {
          "internalType": "uint256",
          "name": "rewardFund",
          "type": "uint256"
        },
        {
          "internalType": "uint256",
          "name": "oraclePrice0CumulativeStart",
          "type": "uint256"
        },
        {
          "internalType": "uint256",
          "name": "oraclePrice0CumulativeEnd",
          "type": "uint256"
        },
        {
          "internalType": "uint256",
          "name": "price0CumulativeEnd",
          "type": "uint256"
        },
        {
          "internalType": "uint256",
          "name": "oracleTimestampStart",
          "type": "uint256"
        },
        {
          "internalType": "uint256",
          "name": "oracleTimestampEnd",
          "type": "uint256"
        },
        {
          "internalType": "uint256",
          "name": "lastBlockNum",
          "type": "uint256"
        }
      ],
      "stateMutability": "view",
      "type": "function"
    },
    {
      "inputs": [
        {
          "internalType": "uint256",
          "name": "",
          "type": "uint256"
        }
      ],
      "name": "framesKeys",
      "outputs": [
        {
          "internalType": "uint256",
          "name": "",
          "type": "uint256"
        }
      ],
      "stateMutability": "view",
      "type": "function"
    },
    {
      "inputs": [],
      "name": "initTimestamp",
      "outputs": [
        {
          "internalType": "uint256",
          "name": "",
          "type": "uint256"
        }
      ],
      "stateMutability": "view",
      "type": "function"
    },
    {
      "inputs": [],
      "name": "ownerMarket",
      "outputs": [
        {
          "internalType": "address payable",
          "name": "",
          "type": "address"
        }
      ],
      "stateMutability": "view",
      "type": "function"
    },
    {
      "inputs": [],
      "name": "period",
      "outputs": [
        {
          "internalType": "uint256",
          "name": "",
          "type": "uint256"
        }
      ],
      "stateMutability": "view",
      "type": "function"
    },
    {
      "inputs": [],
      "name": "taxMarket",
      "outputs": [
        {
          "internalType": "uint256",
          "name": "",
          "type": "uint256"
        }
      ],
      "stateMutability": "view",
      "type": "function"
    },
    {
      "inputs": [],
      "name": "uniswapPair",
      "outputs": [
        {
          "internalType": "contract IUniswapV2Pair",
          "name": "",
          "type": "address"
        }
      ],
      "stateMutability": "view",
      "type": "function"
    },
    {
      "inputs": [
        {
          "internalType": "uint256",
          "name": "timestamp",
          "type": "uint256"
        }
      ],
      "name": "getOrCreateFrame",
      "outputs": [
        {
          "internalType": "uint256",
          "name": "",
          "type": "uint256"
        }
      ],
      "stateMutability": "nonpayable",
      "type": "function"
    },
    {
      "inputs": [
        {
          "internalType": "uint256",
          "name": "timestamp",
          "type": "uint256"
        }
      ],
      "name": "clcFrameTimestamp",
      "outputs": [
        {
          "internalType": "uint256",
          "name": "",
          "type": "uint256"
        }
      ],
      "stateMutability": "view",
      "type": "function"
    },
    {
      "inputs": [
        {
          "internalType": "uint256",
          "name": "value",
          "type": "uint256"
        }
      ],
      "name": "clcParcelInterval",
      "outputs": [
        {
          "internalType": "uint256",
          "name": "",
          "type": "uint256"
        }
      ],
      "stateMutability": "view",
      "type": "function"
    },
    {
      "inputs": [
        {
          "internalType": "uint256",
          "name": "frameKey",
          "type": "uint256"
        }
      ],
      "name": "clcFramesLeft",
      "outputs": [
        {
          "internalType": "uint256",
          "name": "",
          "type": "uint256"
        }
      ],
      "stateMutability": "view",
      "type": "function"
    },
    {
      "inputs": [
        {
          "internalType": "uint256",
          "name": "frameKey",
          "type": "uint256"
        },
        {
          "internalType": "uint256",
          "name": "parcelKey",
          "type": "uint256"
        }
      ],
      "name": "getParcel",
      "outputs": [
        {
          "components": [
            {
              "internalType": "uint256",
              "name": "parcelKey",
              "type": "uint256"
            },
            {
              "components": [
                {
                  "internalType": "address payable",
                  "name": "owner",
                  "type": "address"
                },
                {
                  "internalType": "uint256",
                  "name": "blockNum",
                  "type": "uint256"
                }
              ],
              "internalType": "struct Market.ParcelOwner[]",
              "name": "parcelOwners",
              "type": "tuple[]"
            },
            {
              "internalType": "uint256",
              "name": "acquisitionPrice",
              "type": "uint256"
            },
            {
              "internalType": "enum Market.SParcel",
              "name": "state",
              "type": "uint8"
            }
          ],
          "internalType": "struct Market.Parcel",
          "name": "",
          "type": "tuple"
        }
      ],
      "stateMutability": "view",
      "type": "function"
    },
    {
      "inputs": [
        {
          "internalType": "uint256",
          "name": "frameKey",
          "type": "uint256"
        },
        {
          "internalType": "uint256",
          "name": "parcelKey",
          "type": "uint256"
        }
      ],
      "name": "getParcelPrice",
      "outputs": [
        {
          "internalType": "uint256",
          "name": "",
          "type": "uint256"
        }
      ],
      "stateMutability": "view",
      "type": "function"
    },
    {
      "inputs": [
        {
          "internalType": "uint256",
          "name": "frameKey",
          "type": "uint256"
        }
      ],
      "name": "getParcelsCount",
      "outputs": [
        {
          "internalType": "uint256",
          "name": "",
          "type": "uint256"
        }
      ],
      "stateMutability": "view",
      "type": "function"
    },
    {
      "inputs": [
        {
          "internalType": "uint256",
          "name": "frameKey",
          "type": "uint256"
        },
        {
          "internalType": "uint256",
          "name": "index",
          "type": "uint256"
        }
      ],
      "name": "getParcelKey",
      "outputs": [
        {
          "internalType": "uint256",
          "name": "",
          "type": "uint256"
        }
      ],
      "stateMutability": "view",
      "type": "function"
    },
    {
      "inputs": [
        {
          "internalType": "uint256",
          "name": "frameKey",
          "type": "uint256"
        },
        {
          "internalType": "uint256",
          "name": "parcelKey",
          "type": "uint256"
        }
      ],
      "name": "getParcelState",
      "outputs": [
        {
          "internalType": "enum Market.SParcel",
          "name": "",
          "type": "uint8"
        }
      ],
      "stateMutability": "view",
      "type": "function"
    },
    {
      "inputs": [
        {
          "internalType": "uint256",
          "name": "frameKey",
          "type": "uint256"
        },
        {
          "internalType": "uint256",
          "name": "parcelKey",
          "type": "uint256"
        }
      ],
      "name": "getParcelOwner",
      "outputs": [
        {
          "internalType": "address",
          "name": "",
          "type": "address"
        }
      ],
      "stateMutability": "view",
      "type": "function"
    },
    {
      "inputs": [],
      "name": "getApprovedAmount",
      "outputs": [
        {
          "internalType": "uint256",
          "name": "",
          "type": "uint256"
        }
      ],
      "stateMutability": "view",
      "type": "function"
    },
    {
      "inputs": [
        {
          "internalType": "uint256",
          "name": "frameKey",
          "type": "uint256"
        }
      ],
      "name": "getRewardAmount",
      "outputs": [
        {
          "internalType": "uint256",
          "name": "",
          "type": "uint256"
        }
      ],
      "stateMutability": "view",
      "type": "function"
    },
    {
      "inputs": [
        {
          "internalType": "uint256",
          "name": "frameKey",
          "type": "uint256"
        },
        {
          "internalType": "uint256",
          "name": "parcelKey",
          "type": "uint256"
        }
      ],
      "name": "getNumberOfParcelOwners",
      "outputs": [
        {
          "internalType": "uint256",
          "name": "",
          "type": "uint256"
        }
      ],
      "stateMutability": "view",
      "type": "function"
    },
    {
      "inputs": [],
      "name": "getNumberOfFrameKeys",
      "outputs": [
        {
          "internalType": "uint256",
          "name": "",
          "type": "uint256"
        }
      ],
      "stateMutability": "view",
      "type": "function"
    },
    {
      "inputs": [
        {
          "internalType": "uint256",
          "name": "frameKey",
          "type": "uint256"
        },
        {
          "internalType": "uint256",
          "name": "parcelKey",
          "type": "uint256"
        },
        {
          "internalType": "address",
          "name": "owner",
          "type": "address"
        }
      ],
      "name": "getParcelOwnerIndex",
      "outputs": [
        {
          "internalType": "uint256",
          "name": "",
          "type": "uint256"
        }
      ],
      "stateMutability": "view",
      "type": "function"
    },
    {
      "inputs": [
        {
          "internalType": "uint256",
          "name": "frameKey",
          "type": "uint256"
        },
        {
          "internalType": "uint256",
          "name": "pairPrice",
          "type": "uint256"
        },
        {
          "internalType": "uint256",
          "name": "newSellPrice",
          "type": "uint256"
        },
        {
          "internalType": "uint256",
          "name": "timestamp",
          "type": "uint256"
        }
      ],
      "name": "AmountToApprove",
      "outputs": [
        {
          "internalType": "uint256",
          "name": "",
          "type": "uint256"
        }
      ],
      "stateMutability": "view",
      "type": "function"
    },
    {
      "inputs": [
        {
          "internalType": "uint256",
          "name": "timestamp",
          "type": "uint256"
        },
        {
          "internalType": "uint256",
          "name": "pairPrice",
          "type": "uint256"
        },
        {
          "internalType": "uint256",
          "name": "newSellPrice",
          "type": "uint256"
        }
      ],
      "name": "buyParcel",
      "outputs": [],
      "stateMutability": "payable",
      "type": "function"
    },
    {
      "inputs": [
        {
          "internalType": "uint256",
          "name": "timestamp",
          "type": "uint256"
        },
        {
          "internalType": "uint256",
          "name": "pairPrice",
          "type": "uint256"
        },
        {
          "internalType": "uint256",
          "name": "acquisitionPrice",
          "type": "uint256"
        }
      ],
      "name": "updateParcelPrice",
      "outputs": [],
      "stateMutability": "payable",
      "type": "function"
    },
    {
      "inputs": [
        {
          "internalType": "uint256",
          "name": "PriceCumulative",
          "type": "uint256"
        }
      ],
      "name": "updateFramePrices",
      "outputs": [],
      "stateMutability": "nonpayable",
      "type": "function"
    },
    {
      "inputs": [
        {
          "internalType": "uint256",
          "name": "frameKey",
          "type": "uint256"
        }
      ],
      "name": "closeFrame",
      "outputs": [],
      "stateMutability": "nonpayable",
      "type": "function"
    },
    {
      "inputs": [
        {
          "internalType": "uint256",
          "name": "frameKey",
          "type": "uint256"
        },
        {
          "internalType": "address",
          "name": "owner",
          "type": "address"
        }
      ],
      "name": "settleParcel",
      "outputs": [],
      "stateMutability": "nonpayable",
      "type": "function"
    },
    {
      "inputs": [
        {
          "internalType": "uint256",
          "name": "frameKey",
          "type": "uint256"
        },
        {
          "internalType": "uint256",
          "name": "parcelKey",
          "type": "uint256"
        },
        {
          "internalType": "address",
          "name": "owner",
          "type": "address"
        }
      ],
      "name": "clcShare",
      "outputs": [
        {
          "internalType": "uint256",
          "name": "",
          "type": "uint256"
        }
      ],
      "stateMutability": "view",
      "type": "function"
    },
    {
      "inputs": [
        {
          "internalType": "uint256",
          "name": "frameKey",
          "type": "uint256"
        },
        {
          "internalType": "uint256",
          "name": "parcelKey",
          "type": "uint256"
        },
        {
          "internalType": "address",
          "name": "owner",
          "type": "address"
        }
      ],
      "name": "clcSettleAmount",
      "outputs": [
        {
          "internalType": "uint256",
          "name": "",
          "type": "uint256"
        }
      ],
      "stateMutability": "view",
      "type": "function"
    }
  ],
  "bytecode": "0x6080604052606460095569d3c21bcecceda1000000600a553480156200002457600080fd5b506040516200439c3803806200439c83398181016040528101906200004a9190620001da565b86600160006101000a81548173ffffffffffffffffffffffffffffffffffffffff021916908373ffffffffffffffffffffffffffffffffffffffff16021790555033600260006101000a81548173ffffffffffffffffffffffffffffffffffffffff021916908373ffffffffffffffffffffffffffffffffffffffff1602179055508460038190555083600481905550826008819055508160078190555085600560006101000a81548173ffffffffffffffffffffffffffffffffffffffff021916908373ffffffffffffffffffffffffffffffffffffffff16021790555080600681905550876000806101000a81548173ffffffffffffffffffffffffffffffffffffffff021916908373ffffffffffffffffffffffffffffffffffffffff16021790555050505050505050506200038a565b6000815190506200018f8162000322565b92915050565b600081519050620001a6816200033c565b92915050565b600081519050620001bd8162000356565b92915050565b600081519050620001d48162000370565b92915050565b600080600080600080600080610100898b031215620001fe57620001fd6200031d565b5b60006200020e8b828c01620001ac565b9850506020620002218b828c016200017e565b9750506040620002348b828c0162000195565b9650506060620002478b828c01620001c3565b95505060806200025a8b828c01620001c3565b94505060a06200026d8b828c01620001c3565b93505060c0620002808b828c01620001c3565b92505060e0620002938b828c01620001c3565b9150509295985092959890939650565b6000620002b082620002f3565b9050919050565b6000620002c482620002a3565b9050919050565b6000620002d882620002a3565b9050919050565b6000620002ec82620002a3565b9050919050565b600073ffffffffffffffffffffffffffffffffffffffff82169050919050565b6000819050919050565b600080fd5b6200032d81620002b7565b81146200033957600080fd5b50565b6200034781620002cb565b81146200035357600080fd5b50565b6200036181620002df565b81146200036d57600080fd5b50565b6200037b8162000313565b81146200038757600080fd5b50565b614002806200039a6000396000f3fe6080604052600436106102045760003560e01c80635b3ad63e11610118578063ba9d1d68116100a0578063da68cf8b1161006f578063da68cf8b1461083b578063ec77fe1114610866578063ef78d4fd14610882578063f27da3ac146108ad578063fc950702146108ea57610204565b8063ba9d1d681461076b578063c45a0155146107a8578063c816841b146107d3578063c84993af146107fe57610204565b806389da88a3116100e757806389da88a31461067657806395333194146106a15780639d750e32146106bd578063a10340bc146106e8578063b5cb1c631461072e57610204565b80635b3ad63e146105a65780637358c57a146105e35780637d6ae6a01461060e5780637e9966391461064b57610204565b80633d7a7eac1161019b578063499a0fc41161016a578063499a0fc4146104995780634f3ab71f146104c4578063527eb4bc1461050157806354bc7f6c1461052c5780635619e1f51461056957610204565b80633d7a7eac146103c9578063410f07101461040657806342d3da1d14610431578063450847751461046e57610204565b806326269536116101d757806326269536146102fd5780632a0efd441461033a57806331cf77b41461036357806331e592e2146103a057610204565b8063050e8840146102095780630cbcff8f1461024657806318ff0e07146102835780631e501486146102c0575b600080fd5b34801561021557600080fd5b50610230600480360381019061022b9190613164565b610913565b60405161023d91906138d8565b60405180910390f35b34801561025257600080fd5b5061026d60048036038101906102689190613164565b610937565b60405161027a91906138d8565b60405180910390f35b34801561028f57600080fd5b506102aa60048036038101906102a59190613164565b610af2565b6040516102b791906138d8565b60405180910390f35b3480156102cc57600080fd5b506102e760048036038101906102e2919061323e565b610b4a565b6040516102f491906138d8565b60405180910390f35b34801561030957600080fd5b50610324600480360381019061031f91906131fe565b610e18565b604051610331919061377b565b60405180910390f35b34801561034657600080fd5b50610361600480360381019061035c9190613164565b610e5a565b005b34801561036f57600080fd5b5061038a600480360381019061038591906131fe565b610fb1565b60405161039791906138d8565b60405180910390f35b3480156103ac57600080fd5b506103c760048036038101906103c291906131be565b610fe9565b005b3480156103d557600080fd5b506103f060048036038101906103eb91906132e4565b61115b565b6040516103fd91906138d8565b60405180910390f35b34801561041257600080fd5b5061041b6112c1565b60405161042891906138d8565b60405180910390f35b34801561043d57600080fd5b50610458600480360381019061045391906131fe565b6112c7565b60405161046591906138b6565b60405180910390f35b34801561047a57600080fd5b50610483611417565b604051610490919061365d565b60405180910390f35b3480156104a557600080fd5b506104ae61143d565b6040516104bb91906138d8565b60405180910390f35b3480156104d057600080fd5b506104eb60048036038101906104e6919061323e565b611443565b6040516104f891906138d8565b60405180910390f35b34801561050d57600080fd5b5061051661152e565b60405161052391906138d8565b60405180910390f35b34801561053857600080fd5b50610553600480360381019061054e9190613164565b611534565b60405161056091906138d8565b60405180910390f35b34801561057557600080fd5b50610590600480360381019061058b919061323e565b611557565b60405161059d91906138d8565b60405180910390f35b3480156105b257600080fd5b506105cd60048036038101906105c89190613164565b6115a9565b6040516105da91906138d8565b60405180910390f35b3480156105ef57600080fd5b506105f8611601565b60405161060591906138d8565b60405180910390f35b34801561061a57600080fd5b5061063560048036038101906106309190613164565b611607565b60405161064291906138d8565b60405180910390f35b34801561065757600080fd5b5061066061164a565b60405161066d91906138d8565b60405180910390f35b34801561068257600080fd5b5061068b611650565b60405161069891906138d8565b60405180910390f35b6106bb60048036038101906106b69190613291565b61165d565b005b3480156106c957600080fd5b506106d2611eb1565b6040516106df91906138d8565b60405180910390f35b3480156106f457600080fd5b5061070f600480360381019061070a9190613164565b611f6a565b6040516107259a999897969594939291906138f3565b60405180910390f35b34801561073a57600080fd5b50610755600480360381019061075091906131fe565b611fcb565b60405161076291906138d8565b60405180910390f35b34801561077757600080fd5b50610792600480360381019061078d91906131fe565b612000565b60405161079f9190613642565b60405180910390f35b3480156107b457600080fd5b506107bd6120ae565b6040516107ca9190613760565b60405180910390f35b3480156107df57600080fd5b506107e86120d2565b6040516107f59190613745565b60405180910390f35b34801561080a57600080fd5b5061082560048036038101906108209190613164565b6120f8565b60405161083291906138d8565b60405180910390f35b34801561084757600080fd5b50610850612118565b60405161085d919061372a565b60405180910390f35b610880600480360381019061087b9190613291565b61213e565b005b34801561088e57600080fd5b506108976126f7565b6040516108a491906138d8565b60405180910390f35b3480156108b957600080fd5b506108d460048036038101906108cf91906131fe565b6126fd565b6040516108e191906138d8565b60405180910390f35b3480156108f657600080fd5b50610911600480360381019061090c9190613164565b61273a565b005b600c818154811061092357600080fd5b906000526020600020016000915090505481565b600060045482101561097e576040517f08c379a0000000000000000000000000000000000000000000000000000000008152600401610975906137f6565b60405180910390fd5b6000610989836115a9565b90506000600381111561099f5761099e613d65565b5b600b600083815260200190815260200160002060010160009054906101000a900460ff1660038111156109d5576109d4613d65565b5b146109e35780915050610aed565b6109ec426115a9565b811015610a2e576040517f08c379a0000000000000000000000000000000000000000000000000000000008152600401610a25906137d6565b60405180910390fd5b80600b6000838152602001908152602001600020600001819055506001600b600083815260200190815260200160002060010160006101000a81548160ff02191690836003811115610a8357610a82613d65565b5b0217905550600c8190806001815401808255809150506001900390600052602060002001600090919091909150557f163614e6e9ce9df7687928015fd2c748b69c5136db886e57f09170b251b58e8781604051610ae091906138d8565b60405180910390a1809150505b919050565b6000808211610b05576006549050610b45565b610b42600654610b34600654610b2660065487612e2790919063ffffffff16565b612e3d90919063ffffffff16565b612e5390919063ffffffff16565b90505b919050565b600080610b58858585611443565b9050610b648585610fb1565b8110610ba5576040517f08c379a0000000000000000000000000000000000000000000000000000000008152600401610b9c90613896565b60405180910390fd5b6000600b6000878152602001908152602001600020600a0160008681526020019081526020016000206040518060800160405290816000820154815260200160018201805480602002602001604051908101604052809291908181526020016000905b82821015610c9a57838290600052602060002090600202016040518060400160405290816000820160009054906101000a900473ffffffffffffffffffffffffffffffffffffffff1673ffffffffffffffffffffffffffffffffffffffff1673ffffffffffffffffffffffffffffffffffffffff16815260200160018201548152505081526020019060010190610c08565b505050508152602001600282015481526020016003820160009054906101000a900460ff166002811115610cd157610cd0613d65565b5b6002811115610ce357610ce2613d65565b5b815250509050600081602001518381518110610d0257610d01613d94565b5b60200260200101516020015190506000600b600089815260200190815260200160002060090154905060008360200151600081518110610d4557610d44613d94565b5b60200260200101516020015190506000856001610d628c8c610fb1565b610d6c9190613aeb565b1415610d7a57829050610dac565b8460200151600187610d8c91906139d9565b81518110610d9d57610d9c613d94565b5b60200260200101516020015190505b6000610dc18583612e6990919063ffffffff16565b90506000610dd88486612e6990919063ffffffff16565b90506000610e0382610df5600a5486612e3d90919063ffffffff16565b612e2790919063ffffffff16565b90508099505050505050505050509392505050565b6000600b6000848152602001908152602001600020600a01600083815260200190815260200160002060030160009054906101000a900460ff16905092915050565b6000610e65426115a9565b905043600b600083815260200190815260200160002060090181905550610eab615460610e9d60035484612e5390919063ffffffff16565b612e6990919063ffffffff16565b4211610f235781600b60008381526020019081526020016000206004018190555042600b6000838152602001908152602001600020600701819055507f163614e6e9ce9df7687928015fd2c748b69c5136db886e57f09170b251b58e8781604051610f1691906138d8565b60405180910390a1610fad565b610f3860035482612e5390919063ffffffff16565b4211610fac5781600b60008381526020019081526020016000206005018190555042600b6000838152602001908152602001600020600801819055507f163614e6e9ce9df7687928015fd2c748b69c5136db886e57f09170b251b58e8781604051610fa391906138d8565b60405180910390a15b5b5050565b6000600b6000848152602001908152602001600020600a01600083815260200190815260200160002060010180549050905092915050565b60026003811115610ffd57610ffc613d65565b5b600b600084815260200190815260200160002060010160009054906101000a900460ff16600381111561103357611032613d65565b5b14611073576040517f08c379a000000000000000000000000000000000000000000000000000000000815260040161106a90613816565b60405180910390fd5b6000611094600b600085815260200190815260200160002060020154610af2565b905060006110a3848385611557565b9050600160009054906101000a900473ffffffffffffffffffffffffffffffffffffffff1673ffffffffffffffffffffffffffffffffffffffff1663a9059cbb84836040518363ffffffff1660e01b8152600401611102929190613701565b602060405180830381600087803b15801561111c57600080fd5b505af1158015611130573d6000803e3d6000fd5b505050506040513d601f19601f820116820180604052508101906111549190613137565b5050505050565b60008061116785610af2565b90506000611186611177856115a9565b85612e6990919063ffffffff16565b905060006111b36003546111a584600a54612e3d90919063ffffffff16565b612e2790919063ffffffff16565b905060006111c089611607565b90506000611200826111f2620186a06111e46008548d612e3d90919063ffffffff16565b612e2790919063ffffffff16565b612e3d90919063ffffffff16565b9050600061122e620186a06112206008548c612e3d90919063ffffffff16565b612e2790919063ffffffff16565b9050611257600a546112498684612e3d90919063ffffffff16565b612e2790919063ffffffff16565b905061126c8183612e5390919063ffffffff16565b915060006112ad83600b60008f8152602001908152602001600020600a0160008a815260200190815260200160002060020154612e5390919063ffffffff16565b905080975050505050505050949350505050565b60075481565b6112cf613036565b600b6000848152602001908152602001600020600a0160008381526020019081526020016000206040518060800160405290816000820154815260200160018201805480602002602001604051908101604052809291908181526020016000905b828210156113c257838290600052602060002090600202016040518060400160405290816000820160009054906101000a900473ffffffffffffffffffffffffffffffffffffffff1673ffffffffffffffffffffffffffffffffffffffff1673ffffffffffffffffffffffffffffffffffffffff16815260200160018201548152505081526020019060010190611330565b505050508152602001600282015481526020016003820160009054906101000a900460ff1660028111156113f9576113f8613d65565b5b600281111561140b5761140a613d65565b5b81525050905092915050565b600260009054906101000a900473ffffffffffffffffffffffffffffffffffffffff1681565b60065481565b600080600090505b6114558585610fb1565b811015611519578273ffffffffffffffffffffffffffffffffffffffff16600b6000878152602001908152602001600020600a01600086815260200190815260200160002060010182815481106114af576114ae613d94565b5b906000526020600020906002020160000160009054906101000a900473ffffffffffffffffffffffffffffffffffffffff1673ffffffffffffffffffffffffffffffffffffffff1614156115065780915050611527565b808061151190613c8d565b91505061144b565b506115248484610fb1565b90505b9392505050565b60095481565b6000600b6000838152602001908152602001600020600b01805490509050919050565b60006115a0600a54611592600b600088815260200190815260200160002060030154611584888888610b4a565b612e3d90919063ffffffff16565b612e2790919063ffffffff16565b90509392505050565b600060045482116115be5760045490506115fc565b6115f96115ea6003546115dc60045486612e6990919063ffffffff16565b612e7f90919063ffffffff16565b83612e6990919063ffffffff16565b90505b919050565b60045481565b600061164360016116356003546116274287612e6990919063ffffffff16565b612e2790919063ffffffff16565b612e5390919063ffffffff16565b9050919050565b60085481565b6000600c80549050905090565b600061166884610937565b905060006116768285612e95565b90506116828282612000565b73ffffffffffffffffffffffffffffffffffffffff163373ffffffffffffffffffffffffffffffffffffffff1614156116f0576040517f08c379a00000000000000000000000000000000000000000000000000000000081526004016116e790613836565b60405180910390fd5b600061170d6116fe426115a9565b42612e6990919063ffffffff16565b9050600061173a60035461172c84600a54612e3d90919063ffffffff16565b612e2790919063ffffffff16565b9050600061178e600a5461178084611772620186a06117646008548d612e3d90919063ffffffff16565b612e2790919063ffffffff16565b612e3d90919063ffffffff16565b612e2790919063ffffffff16565b9050600061179b89611607565b905060006117db826117cd620186a06117bf6008548d612e3d90919063ffffffff16565b612e2790919063ffffffff16565b612e3d90919063ffffffff16565b90506117f08382612e5390919063ffffffff16565b905061182f81600b60008a8152602001908152602001600020600a01600089815260200190815260200160002060020154612e5390919063ffffffff16565b600160009054906101000a900473ffffffffffffffffffffffffffffffffffffffff1673ffffffffffffffffffffffffffffffffffffffff1663dd62ed3e33306040518363ffffffff1660e01b815260040161188c9291906136a1565b60206040518083038186803b1580156118a457600080fd5b505afa1580156118b8573d6000803e3d6000fd5b505050506040513d601f19601f820116820180604052508101906118dc9190613191565b101561191d576040517f08c379a000000000000000000000000000000000000000000000000000000000815260040161191490613856565b60405180910390fd5b600160009054906101000a900473ffffffffffffffffffffffffffffffffffffffff1673ffffffffffffffffffffffffffffffffffffffff166323b872dd333061199a85600b60008e8152602001908152602001600020600a0160008d815260200190815260200160002060020154612e5390919063ffffffff16565b6040518463ffffffff1660e01b81526004016119b8939291906136ca565b602060405180830381600087803b1580156119d257600080fd5b505af11580156119e6573d6000803e3d6000fd5b505050506040513d601f19601f82011682018060405250810190611a0a9190613137565b50611a3481600b60008a815260200190815260200160002060030154612e5390919063ffffffff16565b600b60008981526020019081526020016000206003018190555060016002811115611a6257611a61613d65565b5b600b6000898152602001908152602001600020600a01600088815260200190815260200160002060030160009054906101000a900460ff166002811115611aac57611aab613d65565b5b1415611d52576000600b6000898152602001908152602001600020600a0160008881526020019081526020016000206002015490506000611b33600a54611b2588611b17620186a0611b0960085489612e3d90919063ffffffff16565b612e2790919063ffffffff16565b612e3d90919063ffffffff16565b612e2790919063ffffffff16565b90506000611b7385611b65620186a0611b5760085488612e3d90919063ffffffff16565b612e2790919063ffffffff16565b612e3d90919063ffffffff16565b9050611b888282612e5390919063ffffffff16565b90506000611bc9600b60008d8152602001908152602001600020600a0160008c81526020019081526020016000206002015483612e5390919063ffffffff16565b90506000611bea6001611bdc8e8e610fb1565b612e6990919063ffffffff16565b9050600160009054906101000a900473ffffffffffffffffffffffffffffffffffffffff1673ffffffffffffffffffffffffffffffffffffffff1663a9059cbb600b60008f8152602001908152602001600020600a0160008e81526020019081526020016000206001018381548110611c6657611c65613d94565b5b906000526020600020906002020160000160009054906101000a900473ffffffffffffffffffffffffffffffffffffffff16846040518363ffffffff1660e01b8152600401611cb6929190613678565b602060405180830381600087803b158015611cd057600080fd5b505af1158015611ce4573d6000803e3d6000fd5b505050506040513d601f19601f82011682018060405250810190611d089190613137565b50611d3283600b60008f815260200190815260200160002060030154612e6990919063ffffffff16565b600b60008e81526020019081526020016000206003018190555050505050505b600b6000888152602001908152602001600020600a01600087815260200190815260200160002060010160405180604001604052803373ffffffffffffffffffffffffffffffffffffffff16815260200143815250908060018154018082558091505060019003906000526020600020906002020160009091909190915060008201518160000160006101000a81548173ffffffffffffffffffffffffffffffffffffffff021916908373ffffffffffffffffffffffffffffffffffffffff1602179055506020820151816001015550506001600b6000898152602001908152602001600020600a01600088815260200190815260200160002060030160006101000a81548160ff02191690836002811115611e7157611e70613d65565b5b021790555087600b6000898152602001908152602001600020600a0160008881526020019081526020016000206002018190555050505050505050505050565b600080600160009054906101000a900473ffffffffffffffffffffffffffffffffffffffff1673ffffffffffffffffffffffffffffffffffffffff1663dd62ed3e33306040518363ffffffff1660e01b8152600401611f119291906136a1565b60206040518083038186803b158015611f2957600080fd5b505afa158015611f3d573d6000803e3d6000fd5b505050506040513d601f19601f82011682018060405250810190611f619190613191565b90508091505090565b600b6020528060005260406000206000915090508060000154908060010160009054906101000a900460ff1690806002015490806003015490806004015490806005015490806006015490806007015490806008015490806009015490508a565b6000600b6000848152602001908152602001600020600a01600083815260200190815260200160002060020154905092915050565b60008061200d8484610fb1565b141561201b573090506120a8565b600b6000848152602001908152602001600020600a01600083815260200190815260200160002060010161206260016120548686610fb1565b612e6990919063ffffffff16565b8154811061207357612072613d94565b5b906000526020600020906002020160000160009054906101000a900473ffffffffffffffffffffffffffffffffffffffff1690505b92915050565b60008054906101000a900473ffffffffffffffffffffffffffffffffffffffff1681565b600560009054906101000a900473ffffffffffffffffffffffffffffffffffffffff1681565b6000600b6000838152602001908152602001600020600301549050919050565b600160009054906101000a900473ffffffffffffffffffffffffffffffffffffffff1681565b600061214984610937565b905060006121578285612e95565b90503373ffffffffffffffffffffffffffffffffffffffff1661217a8383612000565b73ffffffffffffffffffffffffffffffffffffffff161461219a57600080fd5b60006121a586611607565b905060006121c46121b5426115a9565b42612e6990919063ffffffff16565b905060006121f16003546121e384600a54612e3d90919063ffffffff16565b612e2790919063ffffffff16565b90506000612245600a5461223784612229620186a061221b6008548e612e3d90919063ffffffff16565b612e2790919063ffffffff16565b612e3d90919063ffffffff16565b612e2790919063ffffffff16565b9050600061228585612277620186a06122696008548d612e3d90919063ffffffff16565b612e2790919063ffffffff16565b612e3d90919063ffffffff16565b905061229a8282612e5390919063ffffffff16565b90506000600b6000898152602001908152602001600020600a01600088815260200190815260200160002060020154905061231b600a5461230d866122ff620186a06122f160085488612e3d90919063ffffffff16565b612e2790919063ffffffff16565b612e3d90919063ffffffff16565b612e2790919063ffffffff16565b9250600061235b8761234d620186a061233f6008548f612e3d90919063ffffffff16565b612e2790919063ffffffff16565b612e3d90919063ffffffff16565b90506123708482612e5390919063ffffffff16565b9050808311156125995761238d8184612e6990919063ffffffff16565b600160009054906101000a900473ffffffffffffffffffffffffffffffffffffffff1673ffffffffffffffffffffffffffffffffffffffff1663dd62ed3e33306040518363ffffffff1660e01b81526004016123ea9291906136a1565b60206040518083038186803b15801561240257600080fd5b505afa158015612416573d6000803e3d6000fd5b505050506040513d601f19601f8201168201806040525081019061243a9190613191565b101561247b576040517f08c379a000000000000000000000000000000000000000000000000000000000815260040161247290613856565b60405180910390fd5b600160009054906101000a900473ffffffffffffffffffffffffffffffffffffffff1673ffffffffffffffffffffffffffffffffffffffff166323b872dd33306124ce8588612e6990919063ffffffff16565b6040518463ffffffff1660e01b81526004016124ec939291906136ca565b602060405180830381600087803b15801561250657600080fd5b505af115801561251a573d6000803e3d6000fd5b505050506040513d601f19601f8201168201806040525081019061253e9190613137565b5061257a6125558285612e6990919063ffffffff16565b600b60008c815260200190815260200160002060030154612e5390919063ffffffff16565b600b60008b8152602001908152602001600020600301819055506126ba565b808310156126b957600160009054906101000a900473ffffffffffffffffffffffffffffffffffffffff1673ffffffffffffffffffffffffffffffffffffffff1663a9059cbb336125f38685612e6990919063ffffffff16565b6040518363ffffffff1660e01b8152600401612610929190613701565b602060405180830381600087803b15801561262a57600080fd5b505af115801561263e573d6000803e3d6000fd5b505050506040513d601f19601f820116820180604052508101906126629190613137565b5061269e6126798483612e6990919063ffffffff16565b600b60008c815260200190815260200160002060030154612e6990919063ffffffff16565b600b60008b8152602001908152602001600020600301819055505b5b89600b60008b8152602001908152602001600020600a0160008a815260200190815260200160002060020181905550505050505050505050505050565b60035481565b6000600b6000848152602001908152602001600020600b01828154811061272757612726613d94565b5b9060005260206000200154905092915050565b6001600381111561274e5761274d613d65565b5b600b600083815260200190815260200160002060010160009054906101000a900460ff16600381111561278457612783613d65565b5b146127c4576040517f08c379a00000000000000000000000000000000000000000000000000000000081526004016127bb906137b6565b60405180910390fd5b426127da60035483612e5390919063ffffffff16565b111561281b576040517f08c379a000000000000000000000000000000000000000000000000000000000815260040161281290613796565b60405180910390fd5b6000600b60008381526020019081526020016000206004015411158061285857506000600b60008381526020019081526020016000206005015411155b1561289d576003600b600083815260200190815260200160002060010160006101000a81548160ff0219169083600381111561289757612896613d65565b5b02179055505b600b600082815260200190815260200160002060050154600b6000838152602001908152602001600020600401541415612911576003600b600083815260200190815260200160002060010160006101000a81548160ff0219169083600381111561290b5761290a613d65565b5b02179055505b6002600b600083815260200190815260200160002060010160006101000a81548160ff0219169083600381111561294b5761294a613d65565b5b02179055506000612991600b600084815260200190815260200160002060040154600b600085815260200190815260200160002060050154612e6990919063ffffffff16565b905060006129d4600b600085815260200190815260200160002060070154600b600086815260200190815260200160002060080154612e6990919063ffffffff16565b9050612a0c6040518060200160405280847bffffffffffffffffffffffffffffffffffffffffffffffffffffffff1681525082612f86565b600001517bffffffffffffffffffffffffffffffffffffffffffffffffffffffff16600b600085815260200190815260200160002060020181905550612a77600a546070600b600087815260200190815260200160002060020154901c612e3d90919063ffffffff16565b600b600085815260200190815260200160002060020181905550612ad37406d79f82328ea3da61e066ebb2f88a0000000000006070600b600087815260200190815260200160002060020154901b612e2790919063ffffffff16565b600b6000858152602001908152602001600020600201819055506000612b2f620186a0612b21600754600b600089815260200190815260200160002060030154612e3d90919063ffffffff16565b612e2790919063ffffffff16565b90506000612b73620186a0612b65600954600b60008a815260200190815260200160002060030154612e3d90919063ffffffff16565b612e2790919063ffffffff16565b9050612bb081612ba284600b60008a815260200190815260200160002060030154612e6990919063ffffffff16565b612e6990919063ffffffff16565b600b600087815260200190815260200160002060030181905550600160009054906101000a900473ffffffffffffffffffffffffffffffffffffffff1673ffffffffffffffffffffffffffffffffffffffff1663a9059cbb600260009054906101000a900473ffffffffffffffffffffffffffffffffffffffff16846040518363ffffffff1660e01b8152600401612c49929190613678565b602060405180830381600087803b158015612c6357600080fd5b505af1158015612c77573d6000803e3d6000fd5b505050506040513d601f19601f82011682018060405250810190612c9b9190613137565b50600160009054906101000a900473ffffffffffffffffffffffffffffffffffffffff1673ffffffffffffffffffffffffffffffffffffffff1663a9059cbb60008054906101000a900473ffffffffffffffffffffffffffffffffffffffff1673ffffffffffffffffffffffffffffffffffffffff16638da5cb5b6040518163ffffffff1660e01b815260040160206040518083038186803b158015612d4057600080fd5b505afa158015612d54573d6000803e3d6000fd5b505050506040513d601f19601f82011682018060405250810190612d78919061310a565b836040518363ffffffff1660e01b8152600401612d96929190613701565b602060405180830381600087803b158015612db057600080fd5b505af1158015612dc4573d6000803e3d6000fd5b505050506040513d601f19601f82011682018060405250810190612de89190613137565b507f163614e6e9ce9df7687928015fd2c748b69c5136db886e57f09170b251b58e8785604051612e1891906138d8565b60405180910390a15050505050565b60008183612e359190613a60565b905092915050565b60008183612e4b9190613a91565b905092915050565b60008183612e6191906139d9565b905092915050565b60008183612e779190613aeb565b905092915050565b60008183612e8d9190613cd6565b905092915050565b600080612ea183610af2565b905060006002811115612eb757612eb6613d65565b5b600b6000868152602001908152602001600020600a01600083815260200190815260200160002060030160009054906101000a900460ff166002811115612f0157612f00613d65565b5b14612f0f5780915050612f80565b80600b6000868152602001908152602001600020600a01600083815260200190815260200160002060000181905550600b6000858152602001908152602001600020600b01819080600181540180825580915050600190039060005260206000200160009091909190915055809150505b92915050565b612f8e613070565b6000826dffffffffffffffffffffffffffff161415612fe2576040517f08c379a0000000000000000000000000000000000000000000000000000000008152600401612fd990613876565b60405180910390fd5b6040518060200160405280836dffffffffffffffffffffffffffff16856000015161300d9190613a2f565b7bffffffffffffffffffffffffffffffffffffffffffffffffffffffff16815250905092915050565b60405180608001604052806000815260200160608152602001600081526020016000600281111561306a57613069613d65565b5b81525090565b604051806020016040528060007bffffffffffffffffffffffffffffffffffffffffffffffffffffffff1681525090565b6000813590506130b081613f87565b92915050565b6000815190506130c581613f87565b92915050565b6000815190506130da81613f9e565b92915050565b6000813590506130ef81613fb5565b92915050565b60008151905061310481613fb5565b92915050565b6000602082840312156131205761311f613dc3565b5b600061312e848285016130b6565b91505092915050565b60006020828403121561314d5761314c613dc3565b5b600061315b848285016130cb565b91505092915050565b60006020828403121561317a57613179613dc3565b5b6000613188848285016130e0565b91505092915050565b6000602082840312156131a7576131a6613dc3565b5b60006131b5848285016130f5565b91505092915050565b600080604083850312156131d5576131d4613dc3565b5b60006131e3858286016130e0565b92505060206131f4858286016130a1565b9150509250929050565b6000806040838503121561321557613214613dc3565b5b6000613223858286016130e0565b9250506020613234858286016130e0565b9150509250929050565b60008060006060848603121561325757613256613dc3565b5b6000613265868287016130e0565b9350506020613276868287016130e0565b9250506040613287868287016130a1565b9150509250925092565b6000806000606084860312156132aa576132a9613dc3565b5b60006132b8868287016130e0565b93505060206132c9868287016130e0565b92505060406132da868287016130e0565b9150509250925092565b600080600080608085870312156132fe576132fd613dc3565b5b600061330c878288016130e0565b945050602061331d878288016130e0565b935050604061332e878288016130e0565b925050606061333f878288016130e0565b91505092959194509250565b60006133578383613592565b60408301905092915050565b61336c81613bc7565b82525050565b61337b81613b31565b82525050565b61338a81613b31565b82525050565b61339981613b1f565b82525050565b60006133aa8261399f565b6133b481856139b7565b93506133bf8361398f565b8060005b838110156133f05781516133d7888261334b565b97506133e2836139aa565b9250506001810190506133c3565b5085935050505092915050565b61340681613bd9565b82525050565b61341581613bfd565b82525050565b61342481613c21565b82525050565b61343381613c45565b82525050565b61344281613c57565b82525050565b61345181613c57565b82525050565b6000613464601a836139c8565b915061346f82613dc8565b602082019050919050565b60006134876010836139c8565b915061349282613df1565b602082019050919050565b60006134aa601a836139c8565b91506134b582613e1a565b602082019050919050565b60006134cd602c836139c8565b91506134d882613e43565b604082019050919050565b60006134f06010836139c8565b91506134fb82613e92565b602082019050919050565b6000613513601f836139c8565b915061351e82613ebb565b602082019050919050565b6000613536601c836139c8565b915061354182613ee4565b602082019050919050565b60006135596017836139c8565b915061356482613f0d565b602082019050919050565b600061357c6014836139c8565b915061358782613f36565b602082019050919050565b6040820160008201516135a86000850182613372565b5060208201516135bb6020850182613624565b50505050565b60006080830160008301516135d96000860182613624565b50602083015184820360208601526135f1828261339f565b91505060408301516136066040860182613624565b5060608301516136196060860182613439565b508091505092915050565b61362d81613bbd565b82525050565b61363c81613bbd565b82525050565b60006020820190506136576000830184613390565b92915050565b60006020820190506136726000830184613381565b92915050565b600060408201905061368d6000830185613363565b61369a6020830184613633565b9392505050565b60006040820190506136b66000830185613390565b6136c36020830184613390565b9392505050565b60006060820190506136df6000830186613390565b6136ec6020830185613390565b6136f96040830184613633565b949350505050565b60006040820190506137166000830185613390565b6137236020830184613633565b9392505050565b600060208201905061373f60008301846133fd565b92915050565b600060208201905061375a600083018461340c565b92915050565b6000602082019050613775600083018461341b565b92915050565b60006020820190506137906000830184613448565b92915050565b600060208201905081810360008301526137af81613457565b9050919050565b600060208201905081810360008301526137cf8161347a565b9050919050565b600060208201905081810360008301526137ef8161349d565b9050919050565b6000602082019050818103600083015261380f816134c0565b9050919050565b6000602082019050818103600083015261382f816134e3565b9050919050565b6000602082019050818103600083015261384f81613506565b9050919050565b6000602082019050818103600083015261386f81613529565b9050919050565b6000602082019050818103600083015261388f8161354c565b9050919050565b600060208201905081810360008301526138af8161356f565b9050919050565b600060208201905081810360008301526138d081846135c1565b905092915050565b60006020820190506138ed6000830184613633565b92915050565b600061014082019050613909600083018d613633565b613916602083018c61342a565b613923604083018b613633565b613930606083018a613633565b61393d6080830189613633565b61394a60a0830188613633565b61395760c0830187613633565b61396460e0830186613633565b613972610100830185613633565b613980610120830184613633565b9b9a5050505050505050505050565b6000819050602082019050919050565b600081519050919050565b6000602082019050919050565b600082825260208201905092915050565b600082825260208201905092915050565b60006139e482613bbd565b91506139ef83613bbd565b9250827fffffffffffffffffffffffffffffffffffffffffffffffffffffffffffffffff03821115613a2457613a23613d07565b5b828201905092915050565b6000613a3a82613b95565b9150613a4583613b95565b925082613a5557613a54613d36565b5b828204905092915050565b6000613a6b82613bbd565b9150613a7683613bbd565b925082613a8657613a85613d36565b5b828204905092915050565b6000613a9c82613bbd565b9150613aa783613bbd565b9250817fffffffffffffffffffffffffffffffffffffffffffffffffffffffffffffffff0483118215151615613ae057613adf613d07565b5b828202905092915050565b6000613af682613bbd565b9150613b0183613bbd565b925082821015613b1457613b13613d07565b5b828203905092915050565b6000613b2a82613b75565b9050919050565b6000613b3c82613b75565b9050919050565b60008115159050919050565b6000819050613b5d82613f5f565b919050565b6000819050613b7082613f73565b919050565b600073ffffffffffffffffffffffffffffffffffffffff82169050919050565b60007bffffffffffffffffffffffffffffffffffffffffffffffffffffffff82169050919050565b6000819050919050565b6000613bd282613c69565b9050919050565b6000613be482613beb565b9050919050565b6000613bf682613b75565b9050919050565b6000613c0882613c0f565b9050919050565b6000613c1a82613b75565b9050919050565b6000613c2c82613c33565b9050919050565b6000613c3e82613b75565b9050919050565b6000613c5082613b4f565b9050919050565b6000613c6282613b62565b9050919050565b6000613c7482613c7b565b9050919050565b6000613c8682613b75565b9050919050565b6000613c9882613bbd565b91507fffffffffffffffffffffffffffffffffffffffffffffffffffffffffffffffff821415613ccb57613cca613d07565b5b600182019050919050565b6000613ce182613bbd565b9150613cec83613bbd565b925082613cfc57613cfb613d36565b5b828206905092915050565b7f4e487b7100000000000000000000000000000000000000000000000000000000600052601160045260246000fd5b7f4e487b7100000000000000000000000000000000000000000000000000000000600052601260045260246000fd5b7f4e487b7100000000000000000000000000000000000000000000000000000000600052602160045260246000fd5b7f4e487b7100000000000000000000000000000000000000000000000000000000600052603260045260246000fd5b600080fd5b7f4652414d4520454e442054494d45204e4f542052454143484544000000000000600082015250565b7f4652414d45204e4f54204f50454e454400000000000000000000000000000000600082015250565b7f43414e275420435245415445204652414d4520494e2050415354000000000000600082015250565b7f54494d455354414d50204245464f524520494e495449414c2054494d4553544160008201527f4d50204f46204d41524b45540000000000000000000000000000000000000000602082015250565b7f4652414d45204e4f5420434c4f53454400000000000000000000000000000000600082015250565b7f4144445245535320414c5245414459204f574e53205448452050415243454c00600082015250565b7f415050524f56454420414d4f554e5420495320544f4f20534d414c4c00000000600082015250565b7f4669786564506f696e743a204449565f42595f5a45524f000000000000000000600082015250565b7f4f574e455220444f4553204e4f54204558495354000000000000000000000000600082015250565b60048110613f7057613f6f613d65565b5b50565b60038110613f8457613f83613d65565b5b50565b613f9081613b1f565b8114613f9b57600080fd5b50565b613fa781613b43565b8114613fb257600080fd5b50565b613fbe81613bbd565b8114613fc957600080fd5b5056fea2646970667358221220c13b55fe94b54e64fdc028b94ff19b86d6f274146409958e7d8ba13ad4c7bbc364736f6c63430008060033",
  "immutableReferences": {},
  "source": "// SPDX-License-Identifier: MIT\r\npragma solidity ^0.8.0;\r\n//pragma experimental ABIEncoderV2;\r\n\r\nimport \"./MarketFactory.sol\";\r\nimport \"@uniswap/v2-core/contracts/interfaces/IUniswapV2Pair.sol\";\r\nimport \"@uniswap/v2-periphery/contracts/libraries/UniswapV2OracleLibrary.sol\";\r\nimport \"@uniswap/lib/contracts/libraries/FixedPoint.sol\";\r\nimport \"@openzeppelin/contracts/token/ERC20/IERC20.sol\";\r\nimport \"@openzeppelin/contracts/utils/math/SafeMath.sol\";\r\n\r\n/// @title TWPM Market\r\n/// @author UniHedge\r\n/// @dev All function calls are currently implemented without side effects\r\ncontract Market {\r\n\r\n    using SafeMath for uint;\r\n    //Contract for creating markets\r\n    MarketFactory public factory;\r\n    //ERC20 token used for buyng parcels in this contract \r\n    IERC20 public accountingToken;\r\n    //Owner of this market\r\n    address payable public ownerMarket;\r\n    //Length of a frame\r\n    uint public period;\r\n    //Contract creation time\r\n    uint public initTimestamp; \r\n    //Token pair on Uniswap\r\n    IUniswapV2Pair public uniswapPair;\r\n    //Range of a parcel\r\n    uint public dPrice;\r\n    //Fee that gets to market owner\r\n    uint public feeMarket;\r\n    //Tax on parcels\r\n    uint public taxMarket;\r\n    //Protocol fee\r\n    uint public feeProtocol = 100;\r\n    //Scalar number used for calculating precentages\r\n    uint scalar = 1e24;\r\n\r\n\r\n    enum SFrame {NULL, OPENED, CLOSED, INVALID}\r\n    struct Frame {\r\n        uint frameKey;\r\n        SFrame state;\r\n        uint priceAverage;\r\n        uint rewardFund;\r\n        uint oraclePrice0CumulativeStart;\r\n        uint oraclePrice0CumulativeEnd;\r\n        uint price0CumulativeEnd;\r\n        uint oracleTimestampStart;\r\n        uint oracleTimestampEnd;\r\n        uint lastBlockNum;\r\n        mapping(uint => Parcel) parcels;\r\n        uint[] parcelKeys;\r\n    }\r\n\r\n    event FrameUpdate(uint frameKey);\r\n\r\n    mapping(uint => Frame) public frames;\r\n    uint[] public framesKeys;\r\n\r\n    struct ParcelOwner {\r\n        address payable owner;\r\n        uint blockNum;\r\n    }\r\n\r\n    enum SParcel {NULL, BOUGHT, RESOLVED}\r\n    struct Parcel {\r\n        uint parcelKey;\r\n        ParcelOwner[] parcelOwners;\r\n        uint acquisitionPrice;\r\n        SParcel state;\r\n    }\r\n\r\n    event ParcelUpdate(uint frameKey, uint parcelKey);\r\n\r\n    constructor(MarketFactory _factory, IERC20 _token, IUniswapV2Pair _uniswapPair, uint _period, uint _initTimestamp, uint _taxMarket, uint _feeMarket, uint _dPrice ) {\r\n        accountingToken = _token;\r\n        ownerMarket = payable(msg.sender);\r\n        period = _period;\r\n        initTimestamp = _initTimestamp; \r\n        taxMarket = _taxMarket;\r\n        feeMarket = _feeMarket;\r\n        uniswapPair = _uniswapPair;\r\n        dPrice = _dPrice;\r\n        factory = _factory;\r\n    }\r\n\r\n\r\n    /// @notice Create a frame\r\n    /// @param timestamp In second.\r\n    /// @return frameTimestamp Frame's key (timestamp that indicated the beggining of a frame).\r\n    function getOrCreateFrame(uint timestamp) public returns (uint){\r\n        require(timestamp >= initTimestamp, \"TIMESTAMP BEFORE INITIAL TIMESTAMP OF MARKET\");\r\n        //Get start timestamp of a frame\r\n        uint frameTimestamp = clcFrameTimestamp(timestamp);\r\n        //Check if frame exists\r\n        if (frames[frameTimestamp].state != SFrame.NULL) return frameTimestamp;\r\n        //Check if frame startParcel number is before current Parcel number\r\n        require(frameTimestamp >= clcFrameTimestamp(block.timestamp), \"CAN'T CREATE FRAME IN PAST\");\r\n        //Add frame\r\n        frames[frameTimestamp].frameKey = frameTimestamp;\r\n        frames[frameTimestamp].state = SFrame.OPENED; //check if other parameters are at zero\r\n        framesKeys.push(frameTimestamp);\r\n        emit FrameUpdate(frameTimestamp);\r\n        return frameTimestamp;\r\n    }\r\n\r\n    /// @notice Calculate frames timestamp (beggining of frame)\r\n    /// @param timestamp In seconds\r\n    /// @return frame's timestamp (key)\r\n    // function clcFrameTimestamp(uint timestamp) public view returns (uint){\r\n    //     if (timestamp <= initTimestamp) return initTimestamp;\r\n    //     return ((timestamp.sub(initTimestamp)).div(period)).mul(period).add(initTimestamp);\r\n    // }\r\n    function clcFrameTimestamp(uint timestamp) public view returns (uint){\r\n        if (timestamp <= initTimestamp) return initTimestamp;\r\n        return timestamp.sub((timestamp.sub(initTimestamp)).mod(period));\r\n    }\r\n\r\n    /// @notice Calculate bottom boundary of a parcel\r\n    /// @param value Arbitary price of market's Uniswap pair\r\n    /// @return parcel key (bottom boundary)\r\n    function clcParcelInterval(uint value) public view returns (uint){\r\n        if (value <= 0) return dPrice;\r\n        return value.div(dPrice).mul(dPrice).add(dPrice);\r\n    }\r\n\r\n    /// @notice Calculate how many frames there are left untill given frame in input\r\n    /// @param frameKey Timestamp of an arbitary frame in the future\r\n    /// @return number of frames (whole numbers: n=0,1,2...)\r\n    function clcFramesLeft(uint frameKey) public view returns (uint){                      \r\n        return (frameKey.sub(block.timestamp)).div(period).add(1);\r\n    }\r\n\r\n    /// @notice Get parcel struct\r\n    /// @param frameKey Frame's timestamp\r\n    /// @param parcelKey parcel's key \r\n    /// @return parcel struct\r\n    function getParcel(uint frameKey, uint parcelKey) public view returns (Parcel memory){                 \r\n        return frames[frameKey].parcels[parcelKey];\r\n    }\r\n\r\n    // /// @notice Get frame struct\r\n    // /// @param frameKey Frame's timestamp\r\n    // /// @return frame struct\r\n    // function getFrame(uint frameKey, uint parcelKey) public view returns (Frame memory){                 \r\n    //     return frames[frameKey];\r\n    // }\r\n\r\n    /// @notice Get current price of a parcel in a frame\r\n    /// @param frameKey Frame's timestamp\r\n    /// @param parcelKey Parcel's key \r\n    /// @return price that the current owner set\r\n    function getParcelPrice(uint frameKey, uint parcelKey) public view returns (uint){                 \r\n        return frames[frameKey].parcels[parcelKey].acquisitionPrice;\r\n    }\r\n\r\n    /// @notice Get no. of created parcels in a frame \r\n    /// @param frameKey Frame's timestamp\r\n    /// @return parcel count\r\n    function getParcelsCount(uint frameKey) public view returns (uint){                 \r\n        return frames[frameKey].parcelKeys.length;\r\n    }\r\n\r\n    /// @notice Get parcelKey from index in parcelKeys array\r\n    /// @param frameKey Frame's timestamp\r\n    /// @param index frameKeys array index \r\n    /// @return parcelKey\r\n    function getParcelKey(uint frameKey, uint index) public view returns (uint){                 \r\n        return frames[frameKey].parcelKeys[index];\r\n    }\r\n\r\n    /// @notice Get parcel's state\r\n    /// @param frameKey Frame's timestamp\r\n    /// @param parcelKey Parcel's key \r\n    /// @return state of parcel\r\n    function getParcelState(uint frameKey, uint parcelKey) public view returns (SParcel){                 \r\n        return frames[frameKey].parcels[parcelKey].state;\r\n    }\r\n\r\n    /// @notice Get parcel's owner\r\n    /// @param frameKey Frame's timestamp\r\n    /// @param parcelKey Parcel's key \r\n    /// @return parcel's owner\r\n    function getParcelOwner(uint frameKey, uint parcelKey) public view returns (address){ \r\n        if (getNumberOfParcelOwners(frameKey, parcelKey) == 0) return address(this);\r\n        return frames[frameKey].parcels[parcelKey].parcelOwners[getNumberOfParcelOwners(frameKey, parcelKey).sub(1)].owner;\r\n    }\r\n\r\n    /// @notice Get msg senders approved amount of accounting token to this contract (market)\r\n    /// @return approved amount\r\n    function getApprovedAmount() public view returns (uint) {                         \r\n        uint approvedAmount = accountingToken.allowance(msg.sender, address(this));\r\n        return approvedAmount;\r\n    }\r\n\r\n    /// @notice Get frame's award amount (accumulation of different parcel taxes)\r\n    /// @notice Remaining tax of a parcel owner get's returned after a sale (change of ownership). So the award amount isn't for sure untill the frame get's closed.\r\n    /// @param frameKey Frame's timestamp\r\n    /// @return award amount\r\n    function getRewardAmount(uint frameKey) public view returns (uint) {                         \r\n        return frames[frameKey].rewardFund;\r\n    }\r\n\r\n    /// @notice Get number of accounts that owned a specific parcel\r\n    /// @param frameKey Frame's timestamp\r\n    /// @param parcelKey Parcel's key \r\n    /// @return number of owners\r\n    function getNumberOfParcelOwners(uint frameKey, uint parcelKey) public view returns (uint){\r\n        return frames[frameKey].parcels[parcelKey].parcelOwners.length;\r\n    }\r\n\r\n    /// @notice Get number of frames\r\n    /// @return number frames\r\n    function getNumberOfFrameKeys() public view returns (uint){\r\n        return framesKeys.length ;\r\n    }\r\n\r\n    /// @notice Calculate parcel owner's index in the array of owners of the parcel\r\n    /// @param frameKey Frame's timestamp\r\n    /// @param parcelKey Parcel's key \r\n    /// @param owner Owners account address\r\n    /// @return owner's index\r\n    function getParcelOwnerIndex(uint frameKey, uint parcelKey, address owner) public view returns (uint) {   \r\n\r\n        //if (parcelCount == 0) return 0;\r\n\r\n        for (uint i=0; i< getNumberOfParcelOwners(frameKey, parcelKey); i++) {\r\n            if (frames[frameKey].parcels[parcelKey].parcelOwners[i].owner == owner) return i;\r\n        }\r\n\r\n        return getNumberOfParcelOwners(frameKey, parcelKey); \r\n    }\r\n\r\n    /// @notice Create a parcel\r\n    /// @param frameKey Frame's timestamp\r\n    /// @param pairPrice Price is the trading pair's price\r\n    /// @return parcelKey\r\n    function getOrCreateParcel(uint frameKey, uint pairPrice) internal returns(uint){\r\n\r\n        uint parcelKey = clcParcelInterval(pairPrice);\r\n\r\n        if (frames[frameKey].parcels[parcelKey].state != SParcel.NULL) return parcelKey;\r\n        \r\n        frames[frameKey].parcels[parcelKey].parcelKey = parcelKey;\r\n        frames[frameKey].parcelKeys.push(parcelKey);\r\n        return parcelKey;\r\n    }\r\n\r\n    /// @notice Calculate amout required to approve to buy a parcel\r\n    /// @param frameKey Frame's timestamp\r\n    /// @param pairPrice Value is trading pair's price (to get correct parcel key) \r\n    /// @param newSellPrice New sell price is required to calculate tax\r\n    /// @return amoun to approve\r\n    function AmountToApprove(uint frameKey, uint pairPrice, uint newSellPrice, uint timestamp) public view returns (uint) {             \r\n        uint parcelKey = clcParcelInterval(pairPrice);\r\n\r\n        uint dFrame = timestamp.sub(clcFrameTimestamp(timestamp));\r\n        uint dFrameP = scalar.mul(dFrame).div(period);\r\n\r\n        //Calculate tax from the propoed new price (newSellPrice)\r\n        uint numOfFramesLeft = clcFramesLeft(frameKey);\r\n        uint tax = newSellPrice.mul(taxMarket).div(100000).mul(numOfFramesLeft);\r\n        uint dtax = newSellPrice.mul(taxMarket).div(100000);\r\n        dtax = dtax.mul(dFrameP).div(scalar);\r\n        tax = tax.add(dtax);\r\n\r\n        uint amount = frames[frameKey].parcels[parcelKey].acquisitionPrice.add(tax);\r\n\r\n        return amount;\r\n    }\r\n\r\n    /// @notice Calculate amout required to approve to buy a parcel\r\n    /// @param timestamp Frame's timestamp get's calculated from this value\r\n    /// @param pairPrice Is trading pair's price (to get correct parcel key) \r\n    /// @param newSellPrice New sell price is required to calculate tax\r\n    function buyParcel(uint timestamp, uint pairPrice, uint newSellPrice) public payable {\r\n        uint frameKey =  getOrCreateFrame(timestamp);                          \r\n        \r\n        uint parcelKey = getOrCreateParcel(frameKey, pairPrice);\r\n\r\n        require(msg.sender != getParcelOwner(frameKey, parcelKey), \"ADDRESS ALREADY OWNS THE PARCEL\");\r\n\r\n        uint dFrame = block.timestamp.sub(clcFrameTimestamp(block.timestamp));\r\n        uint dFrameP = scalar.mul(dFrame).div(period);\r\n        uint dtax = newSellPrice.mul(taxMarket).div(100000).mul(dFrameP).div(scalar);\r\n\r\n        //Calculate tax from the proposed new price (newSellPrice)\r\n        uint numOfFramesLeft = clcFramesLeft(timestamp);\r\n        uint tax = newSellPrice.mul(taxMarket).div(100000).mul(numOfFramesLeft);\r\n        \r\n        tax = tax.add(dtax);\r\n\r\n        //Approved amount has to be at leat equal to price of the Parcel(with tax)\r\n        require(accountingToken.allowance(msg.sender, address(this)) >= frames[frameKey].parcels[parcelKey].acquisitionPrice.add(tax), \"APPROVED AMOUNT IS TOO SMALL\");\r\n        \r\n        //Transfer complete tax amount to the frame rewardFund\r\n        accountingToken.transferFrom(msg.sender, address(this), frames[frameKey].parcels[parcelKey].acquisitionPrice.add(tax));\r\n        frames[frameKey].rewardFund = frames[frameKey].rewardFund.add(tax);\r\n\r\n\r\n        //Pay the Parcel price to current owner + return tax\r\n        if (frames[frameKey].parcels[parcelKey].state == SParcel.BOUGHT) {\r\n            //Calculate tax to return. acquisitionPrice/marketTax * number_of_frames_left:\r\n            uint aPrice = frames[frameKey].parcels[parcelKey].acquisitionPrice;\r\n            uint dFrameTax = aPrice.mul(taxMarket).div(100000).mul(dFrameP).div(scalar);\r\n            uint taxToReturn = aPrice.mul(taxMarket).div(100000).mul(numOfFramesLeft);\r\n            taxToReturn = taxToReturn.add(dFrameTax);\r\n            //add acquisition price valut to left over tax\r\n            uint amount = (taxToReturn.add(frames[frameKey].parcels[parcelKey].acquisitionPrice));\r\n            //transfer funds\r\n            uint previousOwner = getNumberOfParcelOwners(frameKey, parcelKey).sub(1);\r\n            accountingToken.transfer(frames[frameKey].parcels[parcelKey].parcelOwners[previousOwner].owner, amount);\r\n            //change reward value\r\n            frames[frameKey].rewardFund = frames[frameKey].rewardFund.sub(taxToReturn);\r\n        }\r\n       \r\n        frames[frameKey].parcels[parcelKey].parcelOwners.push(ParcelOwner(payable(msg.sender), block.number));\r\n        frames[frameKey].parcels[parcelKey].state = SParcel.BOUGHT;\r\n        frames[frameKey].parcels[parcelKey].acquisitionPrice = newSellPrice;\r\n    }\r\n\r\n    /// @notice Owner can update parcel's price. Has to pay additional tax, or leftover tax gets' returned to him if the new price is lower\r\n    /// @param timestamp Frame's timestamp get's calculated from this value\r\n    /// @param pairPrice Is trading pair's price (to get correct parcel key) \r\n    /// @param acquisitionPrice New acquisition price\r\n    function updateParcelPrice(uint timestamp, uint pairPrice, uint acquisitionPrice) public payable {\r\n        uint frameKey =  getOrCreateFrame(timestamp); \r\n        uint parcelKey = getOrCreateParcel(frameKey, pairPrice); \r\n        \r\n        require(getParcelOwner(frameKey, parcelKey) == msg.sender);\r\n                      \r\n        uint numOfFramesLeft = clcFramesLeft(timestamp);\r\n\r\n        uint dFrame = block.timestamp.sub(clcFrameTimestamp(block.timestamp));\r\n        uint dFrameP = scalar.mul(dFrame).div(period);\r\n        uint dtax = acquisitionPrice.mul(taxMarket).div(100000).mul(dFrameP).div(scalar);\r\n        uint taxNew = acquisitionPrice.mul(taxMarket).div(100000).mul(numOfFramesLeft);\r\n        taxNew = taxNew.add(dtax);\r\n\r\n        uint oldPrice = frames[frameKey].parcels[parcelKey].acquisitionPrice;\r\n        dtax = oldPrice.mul(taxMarket).div(100000).mul(dFrameP).div(scalar);\r\n        uint taxOld = acquisitionPrice.mul(taxMarket).div(100000).mul(numOfFramesLeft);\r\n        taxOld = taxOld.add(dtax);\r\n\r\n        if (taxNew > taxOld) {\r\n            require(accountingToken.allowance(msg.sender, address(this)) >= (taxNew.sub(taxOld)), \"APPROVED AMOUNT IS TOO SMALL\");\r\n            //Transfer complete tax amount to the frame rewardFund\r\n            accountingToken.transferFrom(msg.sender, address(this), (taxNew.sub(taxOld)));\r\n            frames[frameKey].rewardFund = frames[frameKey].rewardFund.add(taxNew.sub(taxOld));\r\n        }\r\n        else if (taxNew < taxOld) {\r\n            accountingToken.transfer(msg.sender, taxOld.sub(taxNew));\r\n            frames[frameKey].rewardFund = frames[frameKey].rewardFund.sub(taxOld.sub(taxNew));\r\n        }\r\n        frames[frameKey].parcels[parcelKey].acquisitionPrice = acquisitionPrice;\r\n    }\r\n\r\n    /// @notice Update trading pair's prices in the frame\r\n    /// @param PriceCumulative Cumulative price\r\n    /// @dev For developement purposes the new price is added as an input\r\n    /// @dev Final version should use uniswap's oracles\r\n    function updateFramePrices(uint PriceCumulative) public {\r\n        uint frameKey = clcFrameTimestamp(block.timestamp);\r\n        frames[frameKey].lastBlockNum = block.number;\r\n        //Correct price if outside settle interval\r\n        if (block.timestamp <= ((frameKey.add(period)).sub(21600))) {\r\n            frames[frameKey].oraclePrice0CumulativeStart = PriceCumulative;\r\n            frames[frameKey].oracleTimestampStart = block.timestamp;\r\n            emit FrameUpdate(frameKey);\r\n        }\r\n        else if (block.timestamp <= frameKey.add(period)) {\r\n            frames[frameKey].oraclePrice0CumulativeEnd = PriceCumulative;\r\n            frames[frameKey].oracleTimestampEnd = block.timestamp;\r\n            emit FrameUpdate(frameKey);\r\n        }\r\n    }\r\n\r\n    /// @notice Close frame\r\n    /// @param frameKey Frame's timestamp\r\n    function closeFrame(uint frameKey) public {\r\n        //Check if frame is opened\r\n        require(frames[frameKey].state == SFrame.OPENED, \"FRAME NOT OPENED\");\r\n        //Check if frame timing is correct\r\n        require(frameKey.add(period) <= block.timestamp, \"FRAME END TIME NOT REACHED\");\r\n        //Check if frame has valid prices\r\n        if (frames[frameKey].oraclePrice0CumulativeStart <= 0 || frames[frameKey].oraclePrice0CumulativeEnd <= 0) {\r\n            frames[frameKey].state = SFrame.INVALID;\r\n        }\r\n        if (frames[frameKey].oraclePrice0CumulativeStart == frames[frameKey].oraclePrice0CumulativeEnd) {\r\n            frames[frameKey].state = SFrame.INVALID;\r\n        }\r\n        frames[frameKey].state = SFrame.CLOSED;\r\n\r\n        //UQ112x112 encoded\r\n        uint priceDiff = frames[frameKey].oraclePrice0CumulativeEnd.sub(frames[frameKey].oraclePrice0CumulativeStart);\r\n        uint timeDiff = frames[frameKey].oracleTimestampEnd.sub(frames[frameKey].oracleTimestampStart);\r\n        //Calculate time-weighted average price -- UQ112x112 encoded\r\n        frames[frameKey].priceAverage = uint(((FixedPoint.div(FixedPoint.uq112x112(uint224(priceDiff)), (uint112(timeDiff)))))._x);\r\n\r\n        //Decode to scalar value\r\n        frames[frameKey].priceAverage = (frames[frameKey].priceAverage >> 112).mul(scalar); \r\n        frames[frameKey].priceAverage = (frames[frameKey].priceAverage << 112).div(1e49);\r\n\r\n        //Subtract fees from the reward amount and send them to Owners of the market and protocol\r\n        uint marketOwnerFees = frames[frameKey].rewardFund.mul(feeMarket).div(100000);\r\n        uint protocolOwnerFees = frames[frameKey].rewardFund.mul(feeProtocol).div(100000);\r\n\r\n        frames[frameKey].rewardFund = frames[frameKey].rewardFund.sub(marketOwnerFees).sub(protocolOwnerFees);\r\n        accountingToken.transfer(ownerMarket, marketOwnerFees);\r\n        accountingToken.transfer(factory.owner(), protocolOwnerFees);\r\n\r\n        emit FrameUpdate(frameKey);\r\n    }\r\n\r\n    /// @notice Settle parcel for a owner. Owner's share of the reward amount get's transfered to owner's account\r\n    /// @param frameKey Frame's timestamp\r\n    /// @param owner Owner's address\r\n    function settleParcel(uint frameKey, address owner) public {  \r\n        //Check if frame is closed\r\n        require(frames[frameKey].state == SFrame.CLOSED, \"FRAME NOT CLOSED\");    \r\n        uint parcelKeyWin = (clcParcelInterval(frames[frameKey].priceAverage));\r\n\r\n        uint amount = clcSettleAmount(frameKey, parcelKeyWin, owner);\r\n        accountingToken.transfer(owner, amount);\r\n    }\r\n\r\n    /// @notice Calculate owner's share based on the number of blocks the account owned the parcel\r\n    /// @param frameKey Frame's timestamp\r\n    /// @param parcelKey Parcel's key\r\n    /// @param owner Owner's address\r\n    /// @return Owner's precentage\r\n    function clcShare(uint frameKey, uint parcelKey, address owner) public view returns (uint) {\r\n        uint ownerIndex = getParcelOwnerIndex(frameKey, parcelKey, owner);\r\n        require(ownerIndex < getNumberOfParcelOwners(frameKey, parcelKey), \"OWNER DOES NOT EXIST\"); \r\n\r\n        Parcel memory parcel = frames[frameKey].parcels[parcelKey];\r\n\r\n        uint ownerBlock= parcel.parcelOwners[ownerIndex].blockNum;\r\n        uint endBlock = frames[frameKey].lastBlockNum;\r\n        uint firstOwnerBlock= parcel.parcelOwners[0].blockNum;\r\n        uint nextOwnerBlock;\r\n\r\n        if (getNumberOfParcelOwners(frameKey, parcelKey)-1 == ownerIndex) nextOwnerBlock = endBlock;\r\n        else nextOwnerBlock = parcel.parcelOwners[ownerIndex + 1].blockNum;\r\n\r\n        //nextOwnerBlock = parcels[parcelIndex].parcelOwners[ownerIndex + 1].blockNum;\r\n    \r\n        uint ownerBlocks = nextOwnerBlock.sub(ownerBlock);\r\n        uint allBlocks = endBlock.sub(firstOwnerBlock);\r\n\r\n        uint share = ownerBlocks.mul(scalar).div(allBlocks);\r\n        return share;     \r\n    }\r\n\r\n    /// @notice Calculate owner's winning amount\r\n    /// @param frameKey Frame's timestamp\r\n    /// @param parcelKey Parcel's key\r\n    /// @param owner Owner's address\r\n    /// @return Owner's winnings\r\n    function clcSettleAmount(uint frameKey, uint parcelKey, address owner) public view returns (uint){\r\n        return clcShare(frameKey, parcelKey, owner).mul(frames[frameKey].rewardFund).div(scalar);\r\n    }\r\n\r\n}",
  "sourcePath": "D:/prog/UniHedge/core/contracts/Market.sol",
  "compiler": {
    "name": "solc",
    "version": "0.8.6+commit.11564f7e.Emscripten.clang"
  },
  "schemaVersion": "3.4.1",
  "updatedAt": "2021-07-27T09:03:28.955Z",
  "devdoc": {
    "author": "UniHedge",
    "details": "All function calls are currently implemented without side effects",
    "kind": "dev",
    "methods": {
      "AmountToApprove(uint256,uint256,uint256,uint256)": {
        "params": {
          "frameKey": "Frame's timestamp",
          "newSellPrice": "New sell price is required to calculate tax",
          "pairPrice": "Value is trading pair's price (to get correct parcel key) "
        },
        "returns": {
          "_0": "amoun to approve"
        }
      },
      "buyParcel(uint256,uint256,uint256)": {
        "params": {
          "newSellPrice": "New sell price is required to calculate tax",
          "pairPrice": "Is trading pair's price (to get correct parcel key) ",
          "timestamp": "Frame's timestamp get's calculated from this value"
        }
      },
      "clcFrameTimestamp(uint256)": {
        "params": {
          "timestamp": "In seconds"
        },
        "returns": {
          "_0": "frame's timestamp (key)"
        }
      },
      "clcFramesLeft(uint256)": {
        "params": {
          "frameKey": "Timestamp of an arbitary frame in the future"
        },
        "returns": {
          "_0": "number of frames (whole numbers: n=0,1,2...)"
        }
      },
      "clcParcelInterval(uint256)": {
        "params": {
          "value": "Arbitary price of market's Uniswap pair"
        },
        "returns": {
          "_0": "parcel key (bottom boundary)"
        }
      },
      "clcSettleAmount(uint256,uint256,address)": {
        "params": {
          "frameKey": "Frame's timestamp",
          "owner": "Owner's address",
          "parcelKey": "Parcel's key"
        },
        "returns": {
          "_0": "Owner's winnings"
        }
      },
      "clcShare(uint256,uint256,address)": {
        "params": {
          "frameKey": "Frame's timestamp",
          "owner": "Owner's address",
          "parcelKey": "Parcel's key"
        },
        "returns": {
          "_0": "Owner's precentage"
        }
      },
      "closeFrame(uint256)": {
        "params": {
          "frameKey": "Frame's timestamp"
        }
      },
      "getApprovedAmount()": {
        "returns": {
          "_0": "approved amount"
        }
      },
      "getNumberOfFrameKeys()": {
        "returns": {
          "_0": "number frames"
        }
      },
      "getNumberOfParcelOwners(uint256,uint256)": {
        "params": {
          "frameKey": "Frame's timestamp",
          "parcelKey": "Parcel's key "
        },
        "returns": {
          "_0": "number of owners"
        }
      },
      "getOrCreateFrame(uint256)": {
        "params": {
          "timestamp": "In second."
        },
        "returns": {
          "_0": "frameTimestamp Frame's key (timestamp that indicated the beggining of a frame)."
        }
      },
      "getParcel(uint256,uint256)": {
        "params": {
          "frameKey": "Frame's timestamp",
          "parcelKey": "parcel's key "
        },
        "returns": {
          "_0": "parcel struct"
        }
      },
      "getParcelKey(uint256,uint256)": {
        "params": {
          "frameKey": "Frame's timestamp",
          "index": "frameKeys array index "
        },
        "returns": {
          "_0": "parcelKey"
        }
      },
      "getParcelOwner(uint256,uint256)": {
        "params": {
          "frameKey": "Frame's timestamp",
          "parcelKey": "Parcel's key "
        },
        "returns": {
          "_0": "parcel's owner"
        }
      },
      "getParcelOwnerIndex(uint256,uint256,address)": {
        "params": {
          "frameKey": "Frame's timestamp",
          "owner": "Owners account address",
          "parcelKey": "Parcel's key "
        },
        "returns": {
          "_0": "owner's index"
        }
      },
      "getParcelPrice(uint256,uint256)": {
        "params": {
          "frameKey": "Frame's timestamp",
          "parcelKey": "Parcel's key "
        },
        "returns": {
          "_0": "price that the current owner set"
        }
      },
      "getParcelState(uint256,uint256)": {
        "params": {
          "frameKey": "Frame's timestamp",
          "parcelKey": "Parcel's key "
        },
        "returns": {
          "_0": "state of parcel"
        }
      },
      "getParcelsCount(uint256)": {
        "params": {
          "frameKey": "Frame's timestamp"
        },
        "returns": {
          "_0": "parcel count"
        }
      },
      "getRewardAmount(uint256)": {
        "params": {
          "frameKey": "Frame's timestamp"
        },
        "returns": {
          "_0": "award amount"
        }
      },
      "settleParcel(uint256,address)": {
        "params": {
          "frameKey": "Frame's timestamp",
          "owner": "Owner's address"
        }
      },
      "updateFramePrices(uint256)": {
        "details": "For developement purposes the new price is added as an inputFinal version should use uniswap's oracles",
        "params": {
          "PriceCumulative": "Cumulative price"
        }
      },
      "updateParcelPrice(uint256,uint256,uint256)": {
        "params": {
          "acquisitionPrice": "New acquisition price",
          "pairPrice": "Is trading pair's price (to get correct parcel key) ",
          "timestamp": "Frame's timestamp get's calculated from this value"
        }
      }
    },
    "title": "TWPM Market",
    "version": 1
  },
  "userdoc": {
    "kind": "user",
    "methods": {
      "AmountToApprove(uint256,uint256,uint256,uint256)": {
        "notice": "Calculate amout required to approve to buy a parcel"
      },
      "buyParcel(uint256,uint256,uint256)": {
        "notice": "Calculate amout required to approve to buy a parcel"
      },
      "clcFrameTimestamp(uint256)": {
        "notice": "Calculate frames timestamp (beggining of frame)"
      },
      "clcFramesLeft(uint256)": {
        "notice": "Calculate how many frames there are left untill given frame in input"
      },
      "clcParcelInterval(uint256)": {
        "notice": "Calculate bottom boundary of a parcel"
      },
      "clcSettleAmount(uint256,uint256,address)": {
        "notice": "Calculate owner's winning amount"
      },
      "clcShare(uint256,uint256,address)": {
        "notice": "Calculate owner's share based on the number of blocks the account owned the parcel"
      },
      "closeFrame(uint256)": {
        "notice": "Close frame"
      },
      "getApprovedAmount()": {
        "notice": "Get msg senders approved amount of accounting token to this contract (market)"
      },
      "getNumberOfFrameKeys()": {
        "notice": "Get number of frames"
      },
      "getNumberOfParcelOwners(uint256,uint256)": {
        "notice": "Get number of accounts that owned a specific parcel"
      },
      "getOrCreateFrame(uint256)": {
        "notice": "Create a frame"
      },
      "getParcel(uint256,uint256)": {
        "notice": "Get parcel struct"
      },
      "getParcelKey(uint256,uint256)": {
        "notice": "Get parcelKey from index in parcelKeys array"
      },
      "getParcelOwner(uint256,uint256)": {
        "notice": "Get parcel's owner"
      },
      "getParcelOwnerIndex(uint256,uint256,address)": {
        "notice": "Calculate parcel owner's index in the array of owners of the parcel"
      },
      "getParcelPrice(uint256,uint256)": {
        "notice": "Get current price of a parcel in a frame"
      },
      "getParcelState(uint256,uint256)": {
        "notice": "Get parcel's state"
      },
      "getParcelsCount(uint256)": {
        "notice": "Get no. of created parcels in a frame "
      },
      "getRewardAmount(uint256)": {
        "notice": "Get frame's award amount (accumulation of different parcel taxes)Remaining tax of a parcel owner get's returned after a sale (change of ownership). So the award amount isn't for sure untill the frame get's closed."
      },
      "settleParcel(uint256,address)": {
        "notice": "Settle parcel for a owner. Owner's share of the reward amount get's transfered to owner's account"
      },
      "updateFramePrices(uint256)": {
        "notice": "Update trading pair's prices in the frame"
      },
      "updateParcelPrice(uint256,uint256,uint256)": {
        "notice": "Owner can update parcel's price. Has to pay additional tax, or leftover tax gets' returned to him if the new price is lower"
      }
    },
    "version": 1
  }
}