{
  "contractName": "Market",
  "abi": [
    {
      "inputs": [
        {
          "internalType": "contract MarketFactory",
          "name": "_factory",
          "type": "address"
        },
        {
          "internalType": "contract IERC20",
          "name": "_token",
          "type": "address"
        },
        {
          "internalType": "contract IUniswapV2Pair",
          "name": "_uniswapPair",
          "type": "address"
        },
        {
          "internalType": "uint256",
          "name": "_period",
          "type": "uint256"
        },
        {
          "internalType": "uint256",
          "name": "_initTimestamp",
          "type": "uint256"
        },
        {
          "internalType": "uint256",
          "name": "_taxMarket",
          "type": "uint256"
        },
        {
          "internalType": "uint256",
          "name": "_feeMarket",
          "type": "uint256"
        },
        {
          "internalType": "uint256",
          "name": "_dPrice",
          "type": "uint256"
        },
        {
          "internalType": "uint256",
          "name": "_tReporting",
          "type": "uint256"
        },
        {
          "internalType": "uint256",
          "name": "_minTax",
          "type": "uint256"
        }
      ],
      "stateMutability": "nonpayable",
      "type": "constructor"
    },
    {
      "anonymous": false,
      "inputs": [
        {
          "indexed": false,
          "internalType": "uint256",
          "name": "frameKey",
          "type": "uint256"
        }
      ],
      "name": "FrameUpdate",
      "type": "event"
    },
    {
      "anonymous": false,
      "inputs": [
        {
          "indexed": false,
          "internalType": "uint256",
          "name": "frameKey",
          "type": "uint256"
        },
        {
          "indexed": false,
          "internalType": "uint256",
          "name": "lotKey",
          "type": "uint256"
        }
      ],
      "name": "LotUpdate",
      "type": "event"
    },
    {
      "inputs": [],
      "name": "accountingToken",
      "outputs": [
        {
          "internalType": "contract IERC20",
          "name": "",
          "type": "address"
        }
      ],
      "stateMutability": "view",
      "type": "function"
    },
    {
      "inputs": [],
      "name": "dPrice",
      "outputs": [
        {
          "internalType": "uint256",
          "name": "",
          "type": "uint256"
        }
      ],
      "stateMutability": "view",
      "type": "function"
    },
    {
      "inputs": [],
      "name": "factory",
      "outputs": [
        {
          "internalType": "contract MarketFactory",
          "name": "",
          "type": "address"
        }
      ],
      "stateMutability": "view",
      "type": "function"
    },
    {
      "inputs": [],
      "name": "feeMarket",
      "outputs": [
        {
          "internalType": "uint256",
          "name": "",
          "type": "uint256"
        }
      ],
      "stateMutability": "view",
      "type": "function"
    },
    {
      "inputs": [],
      "name": "feeProtocol",
      "outputs": [
        {
          "internalType": "uint256",
          "name": "",
          "type": "uint256"
        }
      ],
      "stateMutability": "view",
      "type": "function"
    },
    {
      "inputs": [
        {
          "internalType": "uint256",
          "name": "",
          "type": "uint256"
        }
      ],
      "name": "frames",
      "outputs": [
        {
          "internalType": "uint256",
          "name": "frameKey",
          "type": "uint256"
        },
        {
          "internalType": "enum Market.SFrame",
          "name": "state",
          "type": "uint8"
        },
        {
          "internalType": "uint256",
          "name": "priceAverage",
          "type": "uint256"
        },
        {
          "internalType": "uint256",
          "name": "rewardFund",
          "type": "uint256"
        },
        {
          "internalType": "uint256",
          "name": "oraclePrice0CumulativeStart",
          "type": "uint256"
        },
        {
          "internalType": "uint256",
          "name": "oraclePrice0CumulativeEnd",
          "type": "uint256"
        },
        {
          "internalType": "uint256",
          "name": "oracleTimestampStart",
          "type": "uint256"
        },
        {
          "internalType": "uint256",
          "name": "oracleTimestampEnd",
          "type": "uint256"
        },
        {
          "internalType": "uint256",
          "name": "lastBlockNum",
          "type": "uint256"
        }
      ],
      "stateMutability": "view",
      "type": "function"
    },
    {
      "inputs": [
        {
          "internalType": "uint256",
          "name": "",
          "type": "uint256"
        }
      ],
      "name": "framesKeys",
      "outputs": [
        {
          "internalType": "uint256",
          "name": "",
          "type": "uint256"
        }
      ],
      "stateMutability": "view",
      "type": "function"
    },
    {
      "inputs": [],
      "name": "initTimestamp",
      "outputs": [
        {
          "internalType": "uint256",
          "name": "",
          "type": "uint256"
        }
      ],
      "stateMutability": "view",
      "type": "function"
    },
    {
      "inputs": [],
      "name": "minTax",
      "outputs": [
        {
          "internalType": "uint256",
          "name": "",
          "type": "uint256"
        }
      ],
      "stateMutability": "view",
      "type": "function"
    },
    {
      "inputs": [],
      "name": "ownerMarket",
      "outputs": [
        {
          "internalType": "address payable",
          "name": "",
          "type": "address"
        }
      ],
      "stateMutability": "view",
      "type": "function"
    },
    {
      "inputs": [],
      "name": "period",
      "outputs": [
        {
          "internalType": "uint256",
          "name": "",
          "type": "uint256"
        }
      ],
      "stateMutability": "view",
      "type": "function"
    },
    {
      "inputs": [],
      "name": "tReporting",
      "outputs": [
        {
          "internalType": "uint256",
          "name": "",
          "type": "uint256"
        }
      ],
      "stateMutability": "view",
      "type": "function"
    },
    {
      "inputs": [],
      "name": "taxMarket",
      "outputs": [
        {
          "internalType": "uint256",
          "name": "",
          "type": "uint256"
        }
      ],
      "stateMutability": "view",
      "type": "function"
    },
    {
      "inputs": [],
      "name": "uniswapPair",
      "outputs": [
        {
          "internalType": "contract IUniswapV2Pair",
          "name": "",
          "type": "address"
        }
      ],
      "stateMutability": "view",
      "type": "function"
    },
    {
      "inputs": [
        {
          "internalType": "uint256",
          "name": "timestamp",
          "type": "uint256"
        }
      ],
      "name": "clcFrameTimestamp",
      "outputs": [
        {
          "internalType": "uint256",
          "name": "",
          "type": "uint256"
        }
      ],
      "stateMutability": "view",
      "type": "function"
    },
    {
      "inputs": [
        {
          "internalType": "uint256",
          "name": "value",
          "type": "uint256"
        }
      ],
      "name": "clcLotInterval",
      "outputs": [
        {
          "internalType": "uint256",
          "name": "",
          "type": "uint256"
        }
      ],
      "stateMutability": "view",
      "type": "function"
    },
    {
      "inputs": [
        {
          "internalType": "uint256",
          "name": "frameKey",
          "type": "uint256"
        }
      ],
      "name": "clcFramesLeft",
      "outputs": [
        {
          "internalType": "uint256",
          "name": "",
          "type": "uint256"
        }
      ],
      "stateMutability": "view",
      "type": "function"
    },
    {
      "inputs": [
        {
          "internalType": "uint256",
          "name": "frameKey",
          "type": "uint256"
        },
        {
          "internalType": "uint256",
          "name": "lotKey",
          "type": "uint256"
        }
      ],
      "name": "getLot",
      "outputs": [
        {
          "components": [
            {
              "internalType": "uint256",
              "name": "lotKey",
              "type": "uint256"
            },
            {
              "internalType": "address",
              "name": "lotOwner",
              "type": "address"
            },
            {
              "internalType": "uint256",
              "name": "acquisitionPrice",
              "type": "uint256"
            },
            {
              "internalType": "enum Market.SLot",
              "name": "state",
              "type": "uint8"
            }
          ],
          "internalType": "struct Market.Lot",
          "name": "",
          "type": "tuple"
        }
      ],
      "stateMutability": "view",
      "type": "function"
    },
    {
      "inputs": [
        {
          "internalType": "uint256",
          "name": "frameKey",
          "type": "uint256"
        }
      ],
      "name": "getLotsCount",
      "outputs": [
        {
          "internalType": "uint256",
          "name": "",
          "type": "uint256"
        }
      ],
      "stateMutability": "view",
      "type": "function"
    },
    {
      "inputs": [
        {
          "internalType": "uint256",
          "name": "frameKey",
          "type": "uint256"
        },
        {
          "internalType": "uint256",
          "name": "index",
          "type": "uint256"
        }
      ],
      "name": "getLotKey",
      "outputs": [
        {
          "internalType": "uint256",
          "name": "",
          "type": "uint256"
        }
      ],
      "stateMutability": "view",
      "type": "function"
    },
    {
      "inputs": [
        {
          "internalType": "uint256",
          "name": "frameKey",
          "type": "uint256"
        }
      ],
      "name": "getRewardAmount",
      "outputs": [
        {
          "internalType": "uint256",
          "name": "",
          "type": "uint256"
        }
      ],
      "stateMutability": "view",
      "type": "function"
    },
    {
      "inputs": [],
      "name": "getNumberOfFrameKeys",
      "outputs": [
        {
          "internalType": "uint256",
          "name": "",
          "type": "uint256"
        }
      ],
      "stateMutability": "view",
      "type": "function"
    },
    {
      "inputs": [
        {
          "internalType": "uint256",
          "name": "timestamp",
          "type": "uint256"
        }
      ],
      "name": "getOrCreateFrame",
      "outputs": [
        {
          "internalType": "uint256",
          "name": "",
          "type": "uint256"
        }
      ],
      "stateMutability": "nonpayable",
      "type": "function"
    },
    {
      "inputs": [
        {
          "internalType": "uint256",
          "name": "frameKey",
          "type": "uint256"
        },
        {
          "internalType": "uint256",
          "name": "pairPrice",
          "type": "uint256"
        },
        {
          "internalType": "uint256",
          "name": "acquisitionPrice",
          "type": "uint256"
        }
      ],
      "name": "AmountToApprove",
      "outputs": [
        {
          "internalType": "uint256",
          "name": "",
          "type": "uint256"
        }
      ],
      "stateMutability": "view",
      "type": "function"
    },
    {
      "inputs": [
        {
          "internalType": "uint256",
          "name": "timestamp",
          "type": "uint256"
        },
        {
          "internalType": "uint256",
          "name": "pairPrice",
          "type": "uint256"
        },
        {
          "internalType": "uint256",
          "name": "acquisitionPrice",
          "type": "uint256"
        }
      ],
      "name": "buyLot",
      "outputs": [],
      "stateMutability": "payable",
      "type": "function"
    },
    {
      "inputs": [
        {
          "internalType": "uint256",
          "name": "timestamp",
          "type": "uint256"
        },
        {
          "internalType": "uint256",
          "name": "pairPrice",
          "type": "uint256"
        },
        {
          "internalType": "uint256",
          "name": "acquisitionPrice",
          "type": "uint256"
        }
      ],
      "name": "updateLotPrice",
      "outputs": [],
      "stateMutability": "payable",
      "type": "function"
    },
    {
      "inputs": [],
      "name": "updateFramePrices",
      "outputs": [],
      "stateMutability": "nonpayable",
      "type": "function"
    },
    {
      "inputs": [
        {
          "internalType": "uint256",
          "name": "frameKey",
          "type": "uint256"
        }
      ],
      "name": "closeFrame",
      "outputs": [],
      "stateMutability": "payable",
      "type": "function"
    },
    {
      "inputs": [
        {
          "internalType": "uint256",
          "name": "frameKey",
          "type": "uint256"
        }
      ],
      "name": "settleLot",
      "outputs": [],
      "stateMutability": "payable",
      "type": "function"
    },
    {
      "inputs": [
        {
          "internalType": "uint256",
          "name": "amount",
          "type": "uint256"
        }
      ],
      "name": "emptyFuds",
      "outputs": [],
      "stateMutability": "payable",
      "type": "function"
    }
  ],
  "bytecode": "0x6080604052606460095569d3c21bcecceda1000000600c553480156200002457600080fd5b50604051620044c3380380620044c383398181016040528101906200004a9190620002d1565b88600160006101000a81548173ffffffffffffffffffffffffffffffffffffffff021916908373ffffffffffffffffffffffffffffffffffffffff16021790555033600260006101000a81548173ffffffffffffffffffffffffffffffffffffffff021916908373ffffffffffffffffffffffffffffffffffffffff1602179055508660038190555085600481905550846008819055508360078190555087600560006101000a81548173ffffffffffffffffffffffffffffffffffffffff021916908373ffffffffffffffffffffffffffffffffffffffff16021790555082600681905550896000806101000a81548173ffffffffffffffffffffffffffffffffffffffff021916908373ffffffffffffffffffffffffffffffffffffffff16021790555081600a8190555080600b8190555050505050505050505050620003c7565b600080fd5b600073ffffffffffffffffffffffffffffffffffffffff82169050919050565b6000620001c08262000193565b9050919050565b6000620001d482620001b3565b9050919050565b620001e681620001c7565b8114620001f257600080fd5b50565b6000815190506200020681620001db565b92915050565b60006200021982620001b3565b9050919050565b6200022b816200020c565b81146200023757600080fd5b50565b6000815190506200024b8162000220565b92915050565b60006200025e82620001b3565b9050919050565b620002708162000251565b81146200027c57600080fd5b50565b600081519050620002908162000265565b92915050565b6000819050919050565b620002ab8162000296565b8114620002b757600080fd5b50565b600081519050620002cb81620002a0565b92915050565b6000806000806000806000806000806101408b8d031215620002f857620002f76200018e565b5b6000620003088d828e01620001f5565b9a505060206200031b8d828e016200023a565b99505060406200032e8d828e016200027f565b9850506060620003418d828e01620002ba565b9750506080620003548d828e01620002ba565b96505060a0620003678d828e01620002ba565b95505060c06200037a8d828e01620002ba565b94505060e06200038d8d828e01620002ba565b935050610100620003a18d828e01620002ba565b925050610120620003b58d828e01620002ba565b9150509295989b9194979a5092959850565b6140ec80620003d76000396000f3fe6080604052600436106101cd5760003560e01c80637e996639116100f7578063c45a015511610095578063ec18e28711610064578063ec18e287146106bd578063ef78d4fd146106d9578063fc95070214610704578063ff5c86b014610720576101cd565b8063c45a0155146105ff578063c816841b1461062a578063c84993af14610655578063da68cf8b14610692576101cd565b806389da88a3116100d157806389da88a31461055c57806396b2c6f314610587578063a10340bc1461059e578063bb15d2dd146105e3576101cd565b80637e996639146104b7578063830ab119146104e2578063888bdbcd1461051f576101cd565b8063450847751161016f5780635b3ad63e1161013e5780635b3ad63e146103d55780636f1aefc3146104125780637358c57a1461044f5780637d6ae6a01461047a576101cd565b80634508477514610338578063499a0fc4146103635780634d3ee2dc1461038e578063527eb4bc146103aa576101cd565b80633c80d8ea116101ab5780633c80d8ea146102895780633d09a82a146102a55780633e16bc20146102d0578063410f07101461030d576101cd565b8063050e8840146101d25780630cbcff8f1461020f5780632a3dbdb61461024c575b600080fd5b3480156101de57600080fd5b506101f960048036038101906101f4919061320b565b61074b565b6040516102069190613247565b60405180910390f35b34801561021b57600080fd5b506102366004803603810190610231919061320b565b61076f565b6040516102439190613247565b60405180910390f35b34801561025857600080fd5b50610273600480360381019061026e9190613262565b61092a565b6040516102809190613247565b60405180910390f35b6102a3600480360381019061029e9190613262565b610aa3565b005b3480156102b157600080fd5b506102ba61134e565b6040516102c79190613247565b60405180910390f35b3480156102dc57600080fd5b506102f760048036038101906102f291906132b5565b611354565b6040516103049190613247565b60405180910390f35b34801561031957600080fd5b50610322611391565b60405161032f9190613247565b60405180910390f35b34801561034457600080fd5b5061034d611397565b60405161035a9190613336565b60405180910390f35b34801561036f57600080fd5b506103786113bd565b6040516103859190613247565b60405180910390f35b6103a860048036038101906103a3919061320b565b6113c3565b005b3480156103b657600080fd5b506103bf6116ae565b6040516103cc9190613247565b60405180910390f35b3480156103e157600080fd5b506103fc60048036038101906103f7919061320b565b6116b4565b6040516104099190613247565b60405180910390f35b34801561041e57600080fd5b50610439600480360381019061043491906132b5565b61170c565b604051610446919061344d565b60405180910390f35b34801561045b57600080fd5b506104646117f3565b6040516104719190613247565b60405180910390f35b34801561048657600080fd5b506104a1600480360381019061049c919061320b565b6117f9565b6040516104ae9190613247565b60405180910390f35b3480156104c357600080fd5b506104cc61183c565b6040516104d99190613247565b60405180910390f35b3480156104ee57600080fd5b506105096004803603810190610504919061320b565b611842565b6040516105169190613247565b60405180910390f35b34801561052b57600080fd5b506105466004803603810190610541919061320b565b611865565b6040516105539190613247565b60405180910390f35b34801561056857600080fd5b506105716118bd565b60405161057e9190613247565b60405180910390f35b34801561059357600080fd5b5061059c6118ca565b005b3480156105aa57600080fd5b506105c560048036038101906105c0919061320b565b611ad6565b6040516105da999897969594939291906134b0565b60405180910390f35b6105fd60048036038101906105f89190613262565b611b31565b005b34801561060b57600080fd5b50610614612219565b604051610621919061359c565b60405180910390f35b34801561063657600080fd5b5061063f61223d565b60405161064c91906135d8565b60405180910390f35b34801561066157600080fd5b5061067c6004803603810190610677919061320b565b612263565b6040516106899190613247565b60405180910390f35b34801561069e57600080fd5b506106a7612283565b6040516106b49190613614565b60405180910390f35b6106d760048036038101906106d2919061320b565b6122a9565b005b3480156106e557600080fd5b506106ee612504565b6040516106fb9190613247565b60405180910390f35b61071e6004803603810190610719919061320b565b61250a565b005b34801561072c57600080fd5b50610735612be7565b6040516107429190613247565b60405180910390f35b600e818154811061075b57600080fd5b906000526020600020016000915090505481565b60006004548210156107b6576040517f08c379a00000000000000000000000000000000000000000000000000000000081526004016107ad906136b2565b60405180910390fd5b60006107c1836116b4565b9050600060038111156107d7576107d6613381565b5b600d600083815260200190815260200160002060010160009054906101000a900460ff16600381111561080d5761080c613381565b5b1461081b5780915050610925565b610824426116b4565b811015610866576040517f08c379a000000000000000000000000000000000000000000000000000000000815260040161085d9061371e565b60405180910390fd5b80600d6000838152602001908152602001600020600001819055506001600d600083815260200190815260200160002060010160006101000a81548160ff021916908360038111156108bb576108ba613381565b5b0217905550600e8190806001815401808255809150506001900390600052602060002001600090919091909150557f163614e6e9ce9df7687928015fd2c748b69c5136db886e57f09170b251b58e87816040516109189190613247565b60405180910390a1809150505b919050565b60008061093684611865565b905060006109694261095b61095660035442612bed90919063ffffffff16565b6116b4565b612c0390919063ffffffff16565b9050600061099660035461098884600c54612c1990919063ffffffff16565b612c2f90919063ffffffff16565b905060006109a3886117f9565b905060006109e3826109d5620186a06109c76008548c612c1990919063ffffffff16565b612c2f90919063ffffffff16565b612c1990919063ffffffff16565b90506000610a11620186a0610a036008548b612c1990919063ffffffff16565b612c2f90919063ffffffff16565b9050610a3a600c54610a2c8684612c1990919063ffffffff16565b612c2f90919063ffffffff16565b9050610a4f8183612bed90919063ffffffff16565b91506000610a9083600d60008e815260200190815260200160002060090160008a815260200190815260200160002060020154612bed90919063ffffffff16565b9050809750505050505050509392505050565b806000610ad0620186a0610ac260085485612c1990919063ffffffff16565b612c2f90919063ffffffff16565b9050600b54811015610b17576040517f08c379a0000000000000000000000000000000000000000000000000000000008152600401610b0e9061378a565b60405180910390fd5b6000610b228661076f565b90506000610b308287612c45565b9050600d6000838152602001908152602001600020600901600082815260200190815260200160002060010160009054906101000a900473ffffffffffffffffffffffffffffffffffffffff1673ffffffffffffffffffffffffffffffffffffffff163373ffffffffffffffffffffffffffffffffffffffff161415610beb576040517f08c379a0000000000000000000000000000000000000000000000000000000008152600401610be2906137f6565b60405180910390fd5b6000610c1c42610c0e610c0960035442612bed90919063ffffffff16565b6116b4565b612c0390919063ffffffff16565b90506000610c49600354610c3b84600c54612c1990919063ffffffff16565b612c2f90919063ffffffff16565b90506000610c9d600c54610c8f84610c81620186a0610c736008548f612c1990919063ffffffff16565b612c2f90919063ffffffff16565b612c1990919063ffffffff16565b612c2f90919063ffffffff16565b90506000610caa8b6117f9565b90506000610cea82610cdc620186a0610cce6008548f612c1990919063ffffffff16565b612c2f90919063ffffffff16565b612c1990919063ffffffff16565b9050610cff8382612bed90919063ffffffff16565b9050610d3e81600d60008a8152602001908152602001600020600901600089815260200190815260200160002060020154612bed90919063ffffffff16565b600160009054906101000a900473ffffffffffffffffffffffffffffffffffffffff1673ffffffffffffffffffffffffffffffffffffffff1663dd62ed3e33306040518363ffffffff1660e01b8152600401610d9b929190613825565b60206040518083038186803b158015610db357600080fd5b505afa158015610dc7573d6000803e3d6000fd5b505050506040513d601f19601f82011682018060405250810190610deb9190613863565b1015610e2c576040517f08c379a0000000000000000000000000000000000000000000000000000000008152600401610e23906138dc565b60405180910390fd5b600160009054906101000a900473ffffffffffffffffffffffffffffffffffffffff1673ffffffffffffffffffffffffffffffffffffffff166323b872dd3330610ea985600d60008e815260200190815260200160002060090160008d815260200190815260200160002060020154612bed90919063ffffffff16565b6040518463ffffffff1660e01b8152600401610ec7939291906138fc565b602060405180830381600087803b158015610ee157600080fd5b505af1158015610ef5573d6000803e3d6000fd5b505050506040513d601f19601f82011682018060405250810190610f19919061396b565b50610f4381600d60008a815260200190815260200160002060030154612bed90919063ffffffff16565b600d60008981526020019081526020016000206003018190555060016002811115610f7157610f70613381565b5b600d6000898152602001908152602001600020600901600088815260200190815260200160002060030160009054906101000a900460ff166002811115610fbb57610fba613381565b5b141561121c576000600d600089815260200190815260200160002060090160008881526020019081526020016000206002015490506000611042600c5461103488611026620186a061101860085489612c1990919063ffffffff16565b612c2f90919063ffffffff16565b612c1990919063ffffffff16565b612c2f90919063ffffffff16565b9050600061108285611074620186a061106660085488612c1990919063ffffffff16565b612c2f90919063ffffffff16565b612c1990919063ffffffff16565b90506110978282612bed90919063ffffffff16565b905060006110d8600d60008d815260200190815260200160002060090160008c81526020019081526020016000206002015483612bed90919063ffffffff16565b9050600160009054906101000a900473ffffffffffffffffffffffffffffffffffffffff1673ffffffffffffffffffffffffffffffffffffffff1663a9059cbb600d60008e815260200190815260200160002060090160008d815260200190815260200160002060010160009054906101000a900473ffffffffffffffffffffffffffffffffffffffff16836040518363ffffffff1660e01b8152600401611181929190613998565b602060405180830381600087803b15801561119b57600080fd5b505af11580156111af573d6000803e3d6000fd5b505050506040513d601f19601f820116820180604052508101906111d3919061396b565b506111fd82600d60008e815260200190815260200160002060030154612c0390919063ffffffff16565b600d60008d815260200190815260200160002060030181905550505050505b33600d6000898152602001908152602001600020600901600088815260200190815260200160002060010160006101000a81548173ffffffffffffffffffffffffffffffffffffffff021916908373ffffffffffffffffffffffffffffffffffffffff1602179055506001600d6000898152602001908152602001600020600901600088815260200190815260200160002060030160006101000a81548160ff021916908360028111156112d3576112d2613381565b5b021790555089600d60008981526020019081526020016000206009016000888152602001908152602001600020600201819055507fd0d6f900b5096e8e38e0b13b83d7ac826d0c461a139f26a9bfbee4b4d3d1e91987876040516113389291906139c1565b60405180910390a1505050505050505050505050565b600b5481565b6000600d6000848152602001908152602001600020600a01828154811061137e5761137d6139ea565b5b9060005260206000200154905092915050565b60075481565b600260009054906101000a900473ffffffffffffffffffffffffffffffffffffffff1681565b60065481565b600260038111156113d7576113d6613381565b5b600d600083815260200190815260200160002060010160009054906101000a900460ff16600381111561140d5761140c613381565b5b1461144d576040517f08c379a000000000000000000000000000000000000000000000000000000000815260040161144490613a65565b60405180910390fd5b600061146e600d600084815260200190815260200160002060020154611865565b905060028081111561148357611482613381565b5b600d6000848152602001908152602001600020600901600083815260200190815260200160002060030160009054906101000a900460ff1660028111156114cd576114cc613381565b5b141561150e576040517f08c379a000000000000000000000000000000000000000000000000000000000815260040161150590613ad1565b60405180910390fd5b600160009054906101000a900473ffffffffffffffffffffffffffffffffffffffff1673ffffffffffffffffffffffffffffffffffffffff1663a9059cbb600d6000858152602001908152602001600020600901600084815260200190815260200160002060010160009054906101000a900473ffffffffffffffffffffffffffffffffffffffff16600d6000868152602001908152602001600020600301546040518363ffffffff1660e01b81526004016115cb929190613998565b602060405180830381600087803b1580156115e557600080fd5b505af11580156115f9573d6000803e3d6000fd5b505050506040513d601f19601f8201168201806040525081019061161d919061396b565b506002600d6000848152602001908152602001600020600901600083815260200190815260200160002060030160006101000a81548160ff0219169083600281111561166c5761166b613381565b5b02179055507fd0d6f900b5096e8e38e0b13b83d7ac826d0c461a139f26a9bfbee4b4d3d1e91982826040516116a29291906139c1565b60405180910390a15050565b60095481565b600060045482116116c9576004549050611707565b6117046116f56003546116e760045486612c0390919063ffffffff16565b612d3690919063ffffffff16565b83612c0390919063ffffffff16565b90505b919050565b61171461314f565b600d60008481526020019081526020016000206009016000838152602001908152602001600020604051806080016040529081600082015481526020016001820160009054906101000a900473ffffffffffffffffffffffffffffffffffffffff1673ffffffffffffffffffffffffffffffffffffffff1673ffffffffffffffffffffffffffffffffffffffff168152602001600282015481526020016003820160009054906101000a900460ff1660028111156117d5576117d4613381565b5b60028111156117e7576117e6613381565b5b81525050905092915050565b60045481565b600061183560016118276003546118194287612c0390919063ffffffff16565b612c2f90919063ffffffff16565b612bed90919063ffffffff16565b9050919050565b60085481565b6000600d6000838152602001908152602001600020600a01805490509050919050565b60008082116118785760065490506118b8565b6118b56006546118a760065461189960065487612c2f90919063ffffffff16565b612c1990919063ffffffff16565b612bed90919063ffffffff16565b90505b919050565b6000600e80549050905090565b6000806118d6426116b4565b905043600d60008381526020019081526020016000206008018190555061191c600a5461190e60035484612bed90919063ffffffff16565b612c0390919063ffffffff16565b421015801561194157506000600d600083815260200190815260200160002060040154145b156119f657611971600560009054906101000a900473ffffffffffffffffffffffffffffffffffffffff16612d4c565b8063ffffffff169050600d60008581526020019081526020016000206004016000600d60008781526020019081526020016000206006016000849190505583965084919050555050507f163614e6e9ce9df7687928015fd2c748b69c5136db886e57f09170b251b58e87816040516119e99190613247565b60405180910390a1611ad2565b611a1f600a54611a1160035484612bed90919063ffffffff16565b612c0390919063ffffffff16565b4210611ad157611a50600560009054906101000a900473ffffffffffffffffffffffffffffffffffffffff16612d4c565b8063ffffffff169050600d60008581526020019081526020016000206005016000600d60008781526020019081526020016000206007016000849190505583965084919050555050507f163614e6e9ce9df7687928015fd2c748b69c5136db886e57f09170b251b58e8781604051611ac89190613247565b60405180910390a15b5b5050565b600d6020528060005260406000206000915090508060000154908060010160009054906101000a900460ff16908060020154908060030154908060040154908060050154908060060154908060070154908060080154905089565b806000611b5e620186a0611b5060085485612c1990919063ffffffff16565b612c2f90919063ffffffff16565b9050600b54811015611ba5576040517f08c379a0000000000000000000000000000000000000000000000000000000008152600401611b9c9061378a565b60405180910390fd5b6000611bb08661076f565b90506000611bbe8287612c45565b90503373ffffffffffffffffffffffffffffffffffffffff16600d6000848152602001908152602001600020600901600083815260200190815260200160002060010160009054906101000a900473ffffffffffffffffffffffffffffffffffffffff1673ffffffffffffffffffffffffffffffffffffffff1614611c78576040517f08c379a0000000000000000000000000000000000000000000000000000000008152600401611c6f90613b3d565b60405180910390fd5b6000611c83886117f9565b90506000611ca2611c93426116b4565b42612c0390919063ffffffff16565b90506000611ccf600354611cc184600c54612c1990919063ffffffff16565b612c2f90919063ffffffff16565b90506000611d0f82611d01620186a0611cf36008548e612c1990919063ffffffff16565b612c2f90919063ffffffff16565b612c1990919063ffffffff16565b9050611d26600c5482612c2f90919063ffffffff16565b90506000611d54620186a0611d466008548d612c1990919063ffffffff16565b612c2f90919063ffffffff16565b9050611d698582612c1990919063ffffffff16565b9050611d7e8282612bed90919063ffffffff16565b90506000600d60008981526020019081526020016000206009016000888152602001908152602001600020600201549050611dff600c54611df186611de3620186a0611dd560085488612c1990919063ffffffff16565b612c2f90919063ffffffff16565b612c1990919063ffffffff16565b612c2f90919063ffffffff16565b92506000611e2d620186a0611e1f6008548f612c1990919063ffffffff16565b612c2f90919063ffffffff16565b9050611e428782612c1990919063ffffffff16565b9050611e578482612bed90919063ffffffff16565b90508083111561208057611e748184612c0390919063ffffffff16565b600160009054906101000a900473ffffffffffffffffffffffffffffffffffffffff1673ffffffffffffffffffffffffffffffffffffffff1663dd62ed3e33306040518363ffffffff1660e01b8152600401611ed1929190613825565b60206040518083038186803b158015611ee957600080fd5b505afa158015611efd573d6000803e3d6000fd5b505050506040513d601f19601f82011682018060405250810190611f219190613863565b1015611f62576040517f08c379a0000000000000000000000000000000000000000000000000000000008152600401611f59906138dc565b60405180910390fd5b600160009054906101000a900473ffffffffffffffffffffffffffffffffffffffff1673ffffffffffffffffffffffffffffffffffffffff166323b872dd3330611fb58588612c0390919063ffffffff16565b6040518463ffffffff1660e01b8152600401611fd3939291906138fc565b602060405180830381600087803b158015611fed57600080fd5b505af1158015612001573d6000803e3d6000fd5b505050506040513d601f19601f82011682018060405250810190612025919061396b565b5061206161203c8285612c0390919063ffffffff16565b600d60008c815260200190815260200160002060030154612bed90919063ffffffff16565b600d60008b8152602001908152602001600020600301819055506121a1565b808310156121a057600160009054906101000a900473ffffffffffffffffffffffffffffffffffffffff1673ffffffffffffffffffffffffffffffffffffffff1663a9059cbb336120da8685612c0390919063ffffffff16565b6040518363ffffffff1660e01b81526004016120f7929190613998565b602060405180830381600087803b15801561211157600080fd5b505af1158015612125573d6000803e3d6000fd5b505050506040513d601f19601f82011682018060405250810190612149919061396b565b506121856121608483612c0390919063ffffffff16565b600d60008c815260200190815260200160002060030154612c0390919063ffffffff16565b600d60008b8152602001908152602001600020600301819055505b5b8b600d60008b815260200190815260200160002060090160008a8152602001908152602001600020600201819055507fd0d6f900b5096e8e38e0b13b83d7ac826d0c461a139f26a9bfbee4b4d3d1e91989896040516122019291906139c1565b60405180910390a15050505050505050505050505050565b60008054906101000a900473ffffffffffffffffffffffffffffffffffffffff1681565b600560009054906101000a900473ffffffffffffffffffffffffffffffffffffffff1681565b6000600d6000838152602001908152602001600020600301549050919050565b600160009054906101000a900473ffffffffffffffffffffffffffffffffffffffff1681565b60008054906101000a900473ffffffffffffffffffffffffffffffffffffffff1673ffffffffffffffffffffffffffffffffffffffff16638da5cb5b6040518163ffffffff1660e01b815260040160206040518083038186803b15801561230f57600080fd5b505afa158015612323573d6000803e3d6000fd5b505050506040513d601f19601f820116820180604052508101906123479190613b89565b73ffffffffffffffffffffffffffffffffffffffff163373ffffffffffffffffffffffffffffffffffffffff16146123b4576040517f08c379a00000000000000000000000000000000000000000000000000000000081526004016123ab90613c02565b60405180910390fd5b600160009054906101000a900473ffffffffffffffffffffffffffffffffffffffff1673ffffffffffffffffffffffffffffffffffffffff1663a9059cbb60008054906101000a900473ffffffffffffffffffffffffffffffffffffffff1673ffffffffffffffffffffffffffffffffffffffff16638da5cb5b6040518163ffffffff1660e01b815260040160206040518083038186803b15801561245857600080fd5b505afa15801561246c573d6000803e3d6000fd5b505050506040513d601f19601f820116820180604052508101906124909190613b89565b836040518363ffffffff1660e01b81526004016124ae929190613998565b602060405180830381600087803b1580156124c857600080fd5b505af11580156124dc573d6000803e3d6000fd5b505050506040513d601f19601f82011682018060405250810190612500919061396b565b5050565b60035481565b6001600381111561251e5761251d613381565b5b600d600083815260200190815260200160002060010160009054906101000a900460ff16600381111561255457612553613381565b5b14612594576040517f08c379a000000000000000000000000000000000000000000000000000000000815260040161258b90613c6e565b60405180910390fd5b426125aa60035483612bed90919063ffffffff16565b11156125eb576040517f08c379a00000000000000000000000000000000000000000000000000000000081526004016125e290613cda565b60405180910390fd5b6000600d60008381526020019081526020016000206004015411158061262857506000600d60008381526020019081526020016000206005015411155b1561266d576003600d600083815260200190815260200160002060010160006101000a81548160ff0219169083600381111561266757612666613381565b5b02179055505b600d600082815260200190815260200160002060050154600d60008381526020019081526020016000206004015414156126e1576003600d600083815260200190815260200160002060010160006101000a81548160ff021916908360038111156126db576126da613381565b5b02179055505b6002600d600083815260200190815260200160002060010160006101000a81548160ff0219169083600381111561271b5761271a613381565b5b02179055506000612761600d600084815260200190815260200160002060040154600d600085815260200190815260200160002060050154612c0390919063ffffffff16565b905060006127a4600d600085815260200190815260200160002060060154600d600086815260200190815260200160002060070154612c0390919063ffffffff16565b90506127dc6040518060200160405280847bffffffffffffffffffffffffffffffffffffffffffffffffffffffff1681525082612fa7565b600001517bffffffffffffffffffffffffffffffffffffffffffffffffffffffff16600d60008581526020019081526020016000206002018190555061285a7406d79f82328ea3da61e066ebb2f88a0000000000006070600d600087815260200190815260200160002060020154901b612c2f90919063ffffffff16565b612889600c546070600d600088815260200190815260200160002060020154901c612c1990919063ffffffff16565b6128939190613d29565b600d60008581526020019081526020016000206002018190555060006128ef620186a06128e1600754600d600089815260200190815260200160002060030154612c1990919063ffffffff16565b612c2f90919063ffffffff16565b90506000612933620186a0612925600954600d60008a815260200190815260200160002060030154612c1990919063ffffffff16565b612c2f90919063ffffffff16565b90506129708161296284600d60008a815260200190815260200160002060030154612c0390919063ffffffff16565b612c0390919063ffffffff16565b600d600087815260200190815260200160002060030181905550600160009054906101000a900473ffffffffffffffffffffffffffffffffffffffff1673ffffffffffffffffffffffffffffffffffffffff1663a9059cbb600260009054906101000a900473ffffffffffffffffffffffffffffffffffffffff16846040518363ffffffff1660e01b8152600401612a09929190613da0565b602060405180830381600087803b158015612a2357600080fd5b505af1158015612a37573d6000803e3d6000fd5b505050506040513d601f19601f82011682018060405250810190612a5b919061396b565b50600160009054906101000a900473ffffffffffffffffffffffffffffffffffffffff1673ffffffffffffffffffffffffffffffffffffffff1663a9059cbb60008054906101000a900473ffffffffffffffffffffffffffffffffffffffff1673ffffffffffffffffffffffffffffffffffffffff16638da5cb5b6040518163ffffffff1660e01b815260040160206040518083038186803b158015612b0057600080fd5b505afa158015612b14573d6000803e3d6000fd5b505050506040513d601f19601f82011682018060405250810190612b389190613b89565b836040518363ffffffff1660e01b8152600401612b56929190613998565b602060405180830381600087803b158015612b7057600080fd5b505af1158015612b84573d6000803e3d6000fd5b505050506040513d601f19601f82011682018060405250810190612ba8919061396b565b507f163614e6e9ce9df7687928015fd2c748b69c5136db886e57f09170b251b58e8785604051612bd89190613247565b60405180910390a15050505050565b600a5481565b60008183612bfb9190613d29565b905092915050565b60008183612c119190613dc9565b905092915050565b60008183612c279190613dfd565b905092915050565b60008183612c3d9190613e86565b905092915050565b600080612c5183611865565b905060006002811115612c6757612c66613381565b5b600d6000868152602001908152602001600020600901600083815260200190815260200160002060030160009054906101000a900460ff166002811115612cb157612cb0613381565b5b14612cbf5780915050612d30565b80600d6000868152602001908152602001600020600901600083815260200190815260200160002060000181905550600d6000858152602001908152602001600020600a01819080600181540180825580915050600190039060005260206000200160009091909190915055809150505b92915050565b60008183612d449190613eb7565b905092915050565b6000806000612d59613057565b90508373ffffffffffffffffffffffffffffffffffffffff16635909c0d56040518163ffffffff1660e01b815260040160206040518083038186803b158015612da157600080fd5b505afa158015612db5573d6000803e3d6000fd5b505050506040513d601f19601f82011682018060405250810190612dd99190613863565b92508373ffffffffffffffffffffffffffffffffffffffff16635a3d54936040518163ffffffff1660e01b815260040160206040518083038186803b158015612e2157600080fd5b505afa158015612e35573d6000803e3d6000fd5b505050506040513d601f19601f82011682018060405250810190612e599190613863565b915060008060008673ffffffffffffffffffffffffffffffffffffffff16630902f1ac6040518163ffffffff1660e01b815260040160606040518083038186803b158015612ea657600080fd5b505afa158015612eba573d6000803e3d6000fd5b505050506040513d601f19601f82011682018060405250810190612ede9190613f6a565b9250925092508363ffffffff168163ffffffff1614612f9d5760008185612f059190613fbd565b90508063ffffffff16612f18848661306f565b600001517bffffffffffffffffffffffffffffffffffffffffffffffffffffffff16612f449190613dfd565b87612f4f9190613d29565b96508063ffffffff16612f62858561306f565b600001517bffffffffffffffffffffffffffffffffffffffffffffffffffffffff16612f8e9190613dfd565b86612f999190613d29565b9550505b5050509193909250565b612faf61319f565b6000826dffffffffffffffffffffffffffff161415613003576040517f08c379a0000000000000000000000000000000000000000000000000000000008152600401612ffa9061403d565b60405180910390fd5b6040518060200160405280836dffffffffffffffffffffffffffff16856000015161302e9190614085565b7bffffffffffffffffffffffffffffffffffffffffffffffffffffffff16815250905092915050565b60006401000000004261306a9190613eb7565b905090565b61307761319f565b6000826dffffffffffffffffffffffffffff16116130ca576040517f08c379a00000000000000000000000000000000000000000000000000000000081526004016130c19061403d565b60405180910390fd5b6040518060200160405280836dffffffffffffffffffffffffffff16607060ff16866dffffffffffffffffffffffffffff167bffffffffffffffffffffffffffffffffffffffffffffffffffffffff16901b6131269190614085565b7bffffffffffffffffffffffffffffffffffffffffffffffffffffffff16815250905092915050565b604051806080016040528060008152602001600073ffffffffffffffffffffffffffffffffffffffff168152602001600081526020016000600281111561319957613198613381565b5b81525090565b604051806020016040528060007bffffffffffffffffffffffffffffffffffffffffffffffffffffffff1681525090565b600080fd5b6000819050919050565b6131e8816131d5565b81146131f357600080fd5b50565b600081359050613205816131df565b92915050565b600060208284031215613221576132206131d0565b5b600061322f848285016131f6565b91505092915050565b613241816131d5565b82525050565b600060208201905061325c6000830184613238565b92915050565b60008060006060848603121561327b5761327a6131d0565b5b6000613289868287016131f6565b935050602061329a868287016131f6565b92505060406132ab868287016131f6565b9150509250925092565b600080604083850312156132cc576132cb6131d0565b5b60006132da858286016131f6565b92505060206132eb858286016131f6565b9150509250929050565b600073ffffffffffffffffffffffffffffffffffffffff82169050919050565b6000613320826132f5565b9050919050565b61333081613315565b82525050565b600060208201905061334b6000830184613327565b92915050565b61335a816131d5565b82525050565b600061336b826132f5565b9050919050565b61337b81613360565b82525050565b7f4e487b7100000000000000000000000000000000000000000000000000000000600052602160045260246000fd5b600381106133c1576133c0613381565b5b50565b60008190506133d2826133b0565b919050565b60006133e2826133c4565b9050919050565b6133f2816133d7565b82525050565b60808201600082015161340e6000850182613351565b5060208201516134216020850182613372565b5060408201516134346040850182613351565b50606082015161344760608501826133e9565b50505050565b600060808201905061346260008301846133f8565b92915050565b6004811061347957613478613381565b5b50565b600081905061348a82613468565b919050565b600061349a8261347c565b9050919050565b6134aa8161348f565b82525050565b6000610120820190506134c6600083018c613238565b6134d3602083018b6134a1565b6134e0604083018a613238565b6134ed6060830189613238565b6134fa6080830188613238565b61350760a0830187613238565b61351460c0830186613238565b61352160e0830185613238565b61352f610100830184613238565b9a9950505050505050505050565b6000819050919050565b600061356261355d613558846132f5565b61353d565b6132f5565b9050919050565b600061357482613547565b9050919050565b600061358682613569565b9050919050565b6135968161357b565b82525050565b60006020820190506135b1600083018461358d565b92915050565b60006135c282613569565b9050919050565b6135d2816135b7565b82525050565b60006020820190506135ed60008301846135c9565b92915050565b60006135fe82613569565b9050919050565b61360e816135f3565b82525050565b60006020820190506136296000830184613605565b92915050565b600082825260208201905092915050565b7f54494d455354414d50204245464f524520494e495449414c2054494d4553544160008201527f4d50204f46204d41524b45540000000000000000000000000000000000000000602082015250565b600061369c602c8361362f565b91506136a782613640565b604082019050919050565b600060208201905081810360008301526136cb8161368f565b9050919050565b7f43414e275420435245415445204652414d4520494e2050415354000000000000600082015250565b6000613708601a8361362f565b9150613713826136d2565b602082019050919050565b60006020820190508181036000830152613737816136fb565b9050919050565b7f505249434520495320544f4f204c4f5700000000000000000000000000000000600082015250565b600061377460108361362f565b915061377f8261373e565b602082019050919050565b600060208201905081810360008301526137a381613767565b9050919050565b7f4144445245535320414c5245414459204f574e53205448452050415243454c00600082015250565b60006137e0601f8361362f565b91506137eb826137aa565b602082019050919050565b6000602082019050818103600083015261380f816137d3565b9050919050565b61381f81613360565b82525050565b600060408201905061383a6000830185613816565b6138476020830184613816565b9392505050565b60008151905061385d816131df565b92915050565b600060208284031215613879576138786131d0565b5b60006138878482850161384e565b91505092915050565b7f415050524f56454420414d4f554e5420495320544f4f20534d414c4c00000000600082015250565b60006138c6601c8361362f565b91506138d182613890565b602082019050919050565b600060208201905081810360008301526138f5816138b9565b9050919050565b60006060820190506139116000830186613816565b61391e6020830185613816565b61392b6040830184613238565b949350505050565b60008115159050919050565b61394881613933565b811461395357600080fd5b50565b6000815190506139658161393f565b92915050565b600060208284031215613981576139806131d0565b5b600061398f84828501613956565b91505092915050565b60006040820190506139ad6000830185613816565b6139ba6020830184613238565b9392505050565b60006040820190506139d66000830185613238565b6139e36020830184613238565b9392505050565b7f4e487b7100000000000000000000000000000000000000000000000000000000600052603260045260246000fd5b7f4652414d45204e4f5420434c4f53454400000000000000000000000000000000600082015250565b6000613a4f60108361362f565b9150613a5a82613a19565b602082019050919050565b60006020820190508181036000830152613a7e81613a42565b9050919050565b7f4c4f5420414c524541445920534554544c454400000000000000000000000000600082015250565b6000613abb60138361362f565b9150613ac682613a85565b602082019050919050565b60006020820190508181036000830152613aea81613aae565b9050919050565b7f544849532041444452455353204953204e4f5420544845204f574e4552000000600082015250565b6000613b27601d8361362f565b9150613b3282613af1565b602082019050919050565b60006020820190508181036000830152613b5681613b1a565b9050919050565b613b6681613360565b8114613b7157600080fd5b50565b600081519050613b8381613b5d565b92915050565b600060208284031215613b9f57613b9e6131d0565b5b6000613bad84828501613b74565b91505092915050565b7f594f5520415245204e4f542054484520464143544f5259204f574e4552000000600082015250565b6000613bec601d8361362f565b9150613bf782613bb6565b602082019050919050565b60006020820190508181036000830152613c1b81613bdf565b9050919050565b7f4652414d45204e4f54204f50454e454400000000000000000000000000000000600082015250565b6000613c5860108361362f565b9150613c6382613c22565b602082019050919050565b60006020820190508181036000830152613c8781613c4b565b9050919050565b7f4652414d4520454e442054494d45204e4f542052454143484544000000000000600082015250565b6000613cc4601a8361362f565b9150613ccf82613c8e565b602082019050919050565b60006020820190508181036000830152613cf381613cb7565b9050919050565b7f4e487b7100000000000000000000000000000000000000000000000000000000600052601160045260246000fd5b6000613d34826131d5565b9150613d3f836131d5565b9250827fffffffffffffffffffffffffffffffffffffffffffffffffffffffffffffffff03821115613d7457613d73613cfa565b5b828201905092915050565b6000613d8a82613569565b9050919050565b613d9a81613d7f565b82525050565b6000604082019050613db56000830185613d91565b613dc26020830184613238565b9392505050565b6000613dd4826131d5565b9150613ddf836131d5565b925082821015613df257613df1613cfa565b5b828203905092915050565b6000613e08826131d5565b9150613e13836131d5565b9250817fffffffffffffffffffffffffffffffffffffffffffffffffffffffffffffffff0483118215151615613e4c57613e4b613cfa565b5b828202905092915050565b7f4e487b7100000000000000000000000000000000000000000000000000000000600052601260045260246000fd5b6000613e91826131d5565b9150613e9c836131d5565b925082613eac57613eab613e57565b5b828204905092915050565b6000613ec2826131d5565b9150613ecd836131d5565b925082613edd57613edc613e57565b5b828206905092915050565b60006dffffffffffffffffffffffffffff82169050919050565b613f0b81613ee8565b8114613f1657600080fd5b50565b600081519050613f2881613f02565b92915050565b600063ffffffff82169050919050565b613f4781613f2e565b8114613f5257600080fd5b50565b600081519050613f6481613f3e565b92915050565b600080600060608486031215613f8357613f826131d0565b5b6000613f9186828701613f19565b9350506020613fa286828701613f19565b9250506040613fb386828701613f55565b9150509250925092565b6000613fc882613f2e565b9150613fd383613f2e565b925082821015613fe657613fe5613cfa565b5b828203905092915050565b7f4669786564506f696e743a204449565f42595f5a45524f000000000000000000600082015250565b600061402760178361362f565b915061403282613ff1565b602082019050919050565b600060208201905081810360008301526140568161401a565b9050919050565b60007bffffffffffffffffffffffffffffffffffffffffffffffffffffffff82169050919050565b60006140908261405d565b915061409b8361405d565b9250826140ab576140aa613e57565b5b82820490509291505056fea264697066735822122097ce8aeebf299e8b9b8631c0a8fbbdb2054c99a8ddc20748ece0654923a663aa64736f6c63430008080033",
  "immutableReferences": {},
  "source": "// SPDX-License-Identifier: MIT\r\npragma solidity ^0.8.0;\r\n//pragma experimental ABIEncoderV2;\r\n\r\nimport \"./MarketFactory.sol\";\r\nimport \"@uniswap/v2-core/contracts/interfaces/IUniswapV2Pair.sol\";\r\nimport \"@uniswap/v2-periphery/contracts/libraries/UniswapV2OracleLibrary.sol\";\r\nimport \"@uniswap/lib/contracts/libraries/FixedPoint.sol\";\r\nimport \"@openzeppelin/contracts/token/ERC20/IERC20.sol\";\r\nimport \"@openzeppelin/contracts/utils/math/SafeMath.sol\";\r\n\r\n/// @title TWPM Market\r\n/// @author UniHedge\r\n/// @dev All function calls are currently implemented without side effects\r\ncontract Market {\r\n    //Safe math is reduntatn in version 0.8 and higher\r\n    //TODO: remove safemath and run tests that everything is ok\r\n    using SafeMath for uint;\r\n    //Contract for creating markets\r\n    MarketFactory public factory;\r\n    //ERC20 token used for buyng lots in this contract \r\n    IERC20 public accountingToken;\r\n    //Owner of this market\r\n    address payable public ownerMarket;\r\n    //Length of a frame\r\n    uint public period;\r\n    //Contract creation time\r\n    uint public initTimestamp; \r\n    //Token pair on Uniswap\r\n    IUniswapV2Pair public uniswapPair;\r\n    //Range of a lot\r\n    uint public dPrice;\r\n    //Fee that gets to market owner\r\n    uint public feeMarket;\r\n    //Tax on lots\r\n    uint public taxMarket;\r\n    //Protocol fee\r\n    uint public feeProtocol = 100;\r\n    //Reporting time for pair price\r\n    uint public tReporting;\r\n    //Minimal lot tax per frame\r\n    uint public minTax;\r\n    //Scalar number used for calculating precentages\r\n    uint scalar = 1e24;\r\n\r\n    enum SFrame {NULL, OPENED, CLOSED, INVALID}\r\n    struct Frame {\r\n        uint frameKey;\r\n        SFrame state;\r\n        uint priceAverage;\r\n        uint rewardFund;\r\n        uint oraclePrice0CumulativeStart;\r\n        uint oraclePrice0CumulativeEnd;\r\n        uint oracleTimestampStart;\r\n        uint oracleTimestampEnd;\r\n        uint lastBlockNum;\r\n        mapping(uint => Lot) lots;\r\n        uint[] lotKeys;\r\n    }\r\n\r\n    event FrameUpdate(uint frameKey);\r\n\r\n    mapping(uint => Frame) public frames;\r\n    uint[] public framesKeys;\r\n\r\n    enum SLot {NULL, BOUGHT, SETTLED}\r\n    struct Lot {\r\n        uint lotKey;\r\n        address lotOwner;\r\n        uint acquisitionPrice;\r\n        SLot state;\r\n    }\r\n\r\n    event LotUpdate(uint frameKey, uint lotKey);\r\n\r\n    constructor(MarketFactory _factory, IERC20 _token, IUniswapV2Pair _uniswapPair, uint _period, uint _initTimestamp, uint _taxMarket, uint _feeMarket, uint _dPrice, uint _tReporting, uint _minTax) {\r\n        accountingToken = _token;\r\n        ownerMarket = payable(msg.sender);\r\n        period = _period;\r\n        initTimestamp = _initTimestamp; \r\n        taxMarket = _taxMarket;\r\n        feeMarket = _feeMarket;\r\n        uniswapPair = _uniswapPair;\r\n        dPrice = _dPrice;\r\n        factory = _factory;\r\n        tReporting = _tReporting;\r\n        minTax = _minTax;\r\n    }\r\n\r\n    modifier minTaxCheck(uint acqPrice) {\r\n        uint tax = acqPrice.mul(taxMarket).div(100000);\r\n        require(tax >= minTax, \"PRICE IS TOO LOW\");\r\n        _;\r\n    }\r\n\r\n    modifier isFactoryOwner() {\r\n        require(msg.sender == factory.owner(), \"YOU ARE NOT THE FACTORY OWNER\");\r\n        _;\r\n    }\r\n\r\n\r\n    /// @notice Calculate frames timestamp (beggining of frame)\r\n    /// @param timestamp In seconds\r\n    /// @return frame's timestamp (key)\r\n    function clcFrameTimestamp(uint timestamp) public view returns (uint){\r\n        if (timestamp <= initTimestamp) return initTimestamp;\r\n        return timestamp.sub((timestamp.sub(initTimestamp)).mod(period));\r\n    }\r\n\r\n    /// @notice Calculate top boundary of a lot\r\n    /// @param value Arbitary price of market's Uniswap pair\r\n    /// @return lot key (top boundary)\r\n    function clcLotInterval(uint value) public view returns (uint){\r\n        if (value <= 0) return dPrice;\r\n        return value.div(dPrice).mul(dPrice).add(dPrice);\r\n    }\r\n\r\n    /// @notice Calculate how many frames there are left untill given frame in input\r\n    /// @param frameKey Timestamp of an arbitary frame in the future\r\n    /// @return number of frames (whole numbers: n=0,1,2...)\r\n    function clcFramesLeft(uint frameKey) public view returns (uint){                      \r\n        return (frameKey.sub(block.timestamp)).div(period).add(1);\r\n    }\r\n\r\n    /// @notice Get lot struct\r\n    /// @param frameKey Frame's timestamp\r\n    /// @param lotKey lot's key \r\n    /// @return lot struct\r\n    function getLot(uint frameKey, uint lotKey) public view returns (Lot memory){                 \r\n        return frames[frameKey].lots[lotKey];\r\n    }\r\n\r\n    /// @notice Get no. of created lots in a frame \r\n    /// @param frameKey Frame's timestamp\r\n    /// @return lot count\r\n    function getLotsCount(uint frameKey) public view returns (uint){                 \r\n        return frames[frameKey].lotKeys.length;\r\n    }\r\n\r\n    /// @notice Get lotKey from index in lotKeys array\r\n    /// @param frameKey Frame's timestamp\r\n    /// @param index frameKeys array index \r\n    /// @return lotKey\r\n    function getLotKey(uint frameKey, uint index) public view returns (uint){                 \r\n        return frames[frameKey].lotKeys[index];\r\n    }\r\n\r\n    /// @notice Get frame's award amount (accumulation of different lot taxes)\r\n    /// @notice Remaining tax of a lot owner get's returned after a sale (change of ownership). So the award amount isn't for sure untill the frame get's closed.\r\n    /// @param frameKey Frame's timestamp\r\n    /// @return award amount\r\n    function getRewardAmount(uint frameKey) public view returns (uint) {                         \r\n        return frames[frameKey].rewardFund; \r\n    }\r\n\r\n    /// @notice Get number of frames\r\n    /// @return number frames\r\n    function getNumberOfFrameKeys() public view returns (uint){\r\n        return framesKeys.length;\r\n    }\r\n\r\n    /// @notice Create a frame\r\n    /// @param timestamp In second.\r\n    /// @return frameTimestamp Frame's key (timestamp that indicated the beggining of a frame).\r\n    function getOrCreateFrame(uint timestamp) public returns (uint){\r\n        require(timestamp >= initTimestamp, \"TIMESTAMP BEFORE INITIAL TIMESTAMP OF MARKET\");\r\n        //Get start timestamp of a frame\r\n        uint frameTimestamp = clcFrameTimestamp(timestamp);\r\n        //Check if frame exists\r\n        if (frames[frameTimestamp].state != SFrame.NULL) return frameTimestamp;\r\n        //Check if frame startLot number is before current Lot number\r\n        require(frameTimestamp >= clcFrameTimestamp(block.timestamp), \"CAN'T CREATE FRAME IN PAST\");\r\n        //Add frame\r\n        frames[frameTimestamp].frameKey = frameTimestamp;\r\n        frames[frameTimestamp].state = SFrame.OPENED; //check if other parameters are at zero\r\n        framesKeys.push(frameTimestamp);\r\n        emit FrameUpdate(frameTimestamp);\r\n        return frameTimestamp;\r\n    }\r\n\r\n    /// @notice Create a lot\r\n    /// @param frameKey Frame's timestamp\r\n    /// @param pairPrice Price is the trading pair's price\r\n    /// @return lotKey\r\n    function getOrCreateLot(uint frameKey, uint pairPrice) internal returns(uint){\r\n        uint lotKey = clcLotInterval(pairPrice);\r\n        if (frames[frameKey].lots[lotKey].state != SLot.NULL) return lotKey;\r\n        frames[frameKey].lots[lotKey].lotKey = lotKey;\r\n        frames[frameKey].lotKeys.push(lotKey);\r\n        return lotKey;\r\n    }\r\n\r\n    //TODO: Run extensive tests on tax calculations\r\n    /// @notice Calculate amout required to approve to buy a lot\r\n    /// @param frameKey Frame's timestamp\r\n    /// @param pairPrice Value is trading pair's price (to get correct lot key) \r\n    /// @param acquisitionPrice New sell price is required to calculate tax\r\n    /// @return amount to approve\r\n    function AmountToApprove(uint frameKey, uint pairPrice, uint acquisitionPrice) public view returns (uint) {             \r\n        uint lotKey = clcLotInterval(pairPrice);\r\n        uint dFrame = (clcFrameTimestamp(block.timestamp.add(period))).sub(block.timestamp); \r\n        uint dFrameP = scalar.mul(dFrame).div(period);\r\n        //Calculate tax from the proposed acquisition price \r\n        uint numOfFramesLeft = clcFramesLeft(frameKey);\r\n        uint tax = acquisitionPrice.mul(taxMarket).div(100000).mul(numOfFramesLeft);\r\n        uint dtax = acquisitionPrice.mul(taxMarket).div(100000);\r\n        dtax = dtax.mul(dFrameP).div(scalar);\r\n        tax = tax.add(dtax);\r\n        uint amount = frames[frameKey].lots[lotKey].acquisitionPrice.add(tax);\r\n        return amount;\r\n    }\r\n\r\n    /// @notice Calculate amout required to approve to buy a lot\r\n    /// @param timestamp Frame's timestamp get's calculated from this value\r\n    /// @param pairPrice Is trading pair's price (to get correct lot key) \r\n    /// @param acquisitionPrice New sell price is required to calculate tax\r\n    function buyLot(uint timestamp, uint pairPrice, uint acquisitionPrice) public payable minTaxCheck(acquisitionPrice) {\r\n        //Get specified frameKey and lotKey\r\n        uint frameKey =  getOrCreateFrame(timestamp);                          \r\n        uint lotKey = getOrCreateLot(frameKey, pairPrice);\r\n        //Msg.sender shouldn't own the parcel\r\n        require(msg.sender != frames[frameKey].lots[lotKey].lotOwner, \"ADDRESS ALREADY OWNS THE PARCEL\");\r\n\r\n        //------------------------------------->Calculate tax<---------------------------------------------------------\r\n\r\n        uint dFrame = (clcFrameTimestamp(block.timestamp.add(period))).sub(block.timestamp); \r\n        uint dFrameP = scalar.mul(dFrame).div(period);\r\n        uint dtax = acquisitionPrice.mul(taxMarket).div(100000).mul(dFrameP).div(scalar);\r\n        uint numOfFramesLeft = clcFramesLeft(timestamp);\r\n        uint tax = acquisitionPrice.mul(taxMarket).div(100000).mul(numOfFramesLeft);\r\n        tax = tax.add(dtax);\r\n        \r\n        //--------------------------------------------------------------------------------------------------------------\r\n        //Approved amount has to be at leat equal to price of the Lot(with tax)\r\n        require(accountingToken.allowance(msg.sender, address(this)) >= frames[frameKey].lots[lotKey].acquisitionPrice.add(tax), \"APPROVED AMOUNT IS TOO SMALL\");\r\n        //Transfer tax amount to the market contract\r\n        accountingToken.transferFrom(msg.sender, address(this), frames[frameKey].lots[lotKey].acquisitionPrice.add(tax));\r\n        frames[frameKey].rewardFund = frames[frameKey].rewardFund.add(tax);\r\n\r\n        //Pay the Lot price to current owner + return tax\r\n        if (frames[frameKey].lots[lotKey].state == SLot.BOUGHT) {\r\n            //----------------------------->Calculate leftover tax to return to the previous owner<-------------------------\r\n            //acquisitionPrice/marketTax * number_of_frames_left:\r\n            uint aPrice = frames[frameKey].lots[lotKey].acquisitionPrice;\r\n            uint dFrameTax = aPrice.mul(taxMarket).div(100000).mul(dFrameP).div(scalar);\r\n            uint taxToReturn = aPrice.mul(taxMarket).div(100000).mul(numOfFramesLeft);\r\n            taxToReturn = taxToReturn.add(dFrameTax);\r\n            //--------------------------------------------------------------------------------------------------------------\r\n            //add acquisition price value to left over tax\r\n            uint amount = (taxToReturn.add(frames[frameKey].lots[lotKey].acquisitionPrice));\r\n            //transfer funds\r\n            accountingToken.transfer(frames[frameKey].lots[lotKey].lotOwner, amount);\r\n            //change reward value\r\n            frames[frameKey].rewardFund = frames[frameKey].rewardFund.sub(taxToReturn);\r\n        }\r\n       \r\n       //Update lotKey values\r\n        frames[frameKey].lots[lotKey].lotOwner = (payable(msg.sender));\r\n        frames[frameKey].lots[lotKey].state = SLot.BOUGHT;\r\n        frames[frameKey].lots[lotKey].acquisitionPrice = acquisitionPrice;\r\n\r\n        emit LotUpdate(frameKey, lotKey);\r\n    }\r\n\r\n    /// @notice Owner can update lot's price. Has to pay additional tax, or leftover tax gets' returned to him if the new price is lower\r\n    /// @param timestamp Frame's timestamp get's calculated from this value\r\n    /// @param pairPrice Is trading pair's price (to get correct lot key) \r\n    /// @param acquisitionPrice New acquisition price\r\n    function updateLotPrice(uint timestamp, uint pairPrice, uint acquisitionPrice) public payable minTaxCheck(acquisitionPrice) {\r\n        uint frameKey =  getOrCreateFrame(timestamp); \r\n        uint lotKey = getOrCreateLot(frameKey, pairPrice); \r\n        \r\n        require(frames[frameKey].lots[lotKey].lotOwner == msg.sender, \"THIS ADDRESS IS NOT THE OWNER\");\r\n                      \r\n        uint numOfFramesLeft = clcFramesLeft(timestamp);\r\n\r\n        uint dFrame = block.timestamp.sub(clcFrameTimestamp(block.timestamp));\r\n        uint dFrameP = scalar.mul(dFrame).div(period);\r\n        uint dtax = acquisitionPrice.mul(taxMarket).div(100000).mul(dFrameP);\r\n        dtax = dtax.div(scalar);\r\n\r\n        uint taxNew = acquisitionPrice.mul(taxMarket).div(100000);\r\n        taxNew = taxNew.mul(numOfFramesLeft);\r\n        taxNew = taxNew.add(dtax);\r\n\r\n        uint oldPrice = frames[frameKey].lots[lotKey].acquisitionPrice;\r\n        dtax = oldPrice.mul(taxMarket).div(100000).mul(dFrameP).div(scalar);\r\n        uint taxOld = acquisitionPrice.mul(taxMarket).div(100000);\r\n        taxOld = taxOld.mul(numOfFramesLeft);\r\n        taxOld = taxOld.add(dtax);\r\n\r\n        if (taxNew > taxOld) {\r\n            require(accountingToken.allowance(msg.sender, address(this)) >= (taxNew.sub(taxOld)), \"APPROVED AMOUNT IS TOO SMALL\");\r\n            //Transfer complete tax amount to the frame rewardFund\r\n            accountingToken.transferFrom(msg.sender, address(this), (taxNew.sub(taxOld)));\r\n            frames[frameKey].rewardFund = frames[frameKey].rewardFund.add(taxNew.sub(taxOld));\r\n        }\r\n        else if (taxNew < taxOld) {\r\n            accountingToken.transfer(msg.sender, taxOld.sub(taxNew));\r\n            frames[frameKey].rewardFund = frames[frameKey].rewardFund.sub(taxOld.sub(taxNew));\r\n        }\r\n        frames[frameKey].lots[lotKey].acquisitionPrice = acquisitionPrice;\r\n\r\n        emit LotUpdate(frameKey, lotKey);\r\n    }\r\n\r\n    // /// @notice Update trading pair's prices in the frame\r\n    function updateFramePrices() public {\r\n        uint tmp;\r\n        uint frameKey = clcFrameTimestamp(block.timestamp);\r\n        frames[frameKey].lastBlockNum = block.number;\r\n        //Correct price if outside settle interval\r\n        if (block.timestamp >= ((frameKey.add(period)).sub(tReporting)) && frames[frameKey].oraclePrice0CumulativeStart == 0) {\r\n            (frames[frameKey].oraclePrice0CumulativeStart, tmp, frames[frameKey].oracleTimestampStart) = UniswapV2OracleLibrary.currentCumulativePrices(address(uniswapPair));\r\n            emit FrameUpdate(frameKey);\r\n        }\r\n        else if (block.timestamp >= ((frameKey.add(period)).sub(tReporting))) {\r\n            (frames[frameKey].oraclePrice0CumulativeEnd, tmp, frames[frameKey].oracleTimestampEnd) = UniswapV2OracleLibrary.currentCumulativePrices(address(uniswapPair));\r\n            emit FrameUpdate(frameKey);\r\n        }\r\n    }\r\n\r\n    /// @notice Update trading pair's prices in the frame\r\n    // /// @param PriceCumulative Cumulative price\r\n    // /// @dev For developement purposes the new price is added as an input\r\n    // /// @dev Final version should use uniswap's oracles\r\n    // function updateFramePrices(uint PriceCumulative) public {\r\n    //     uint frameKey = clcFrameTimestamp(block.timestamp);\r\n    //     frames[frameKey].lastBlockNum = block.number;\r\n    //     //Correct price if outside settle interval\r\n    //     if (block.timestamp >= ((frameKey.add(period)).sub(tReporting)) && frames[frameKey].oraclePrice0CumulativeStart == 0) {\r\n    //         frames[frameKey].oraclePrice0CumulativeStart = PriceCumulative;\r\n    //         frames[frameKey].oracleTimestampStart = block.timestamp;\r\n    //         emit FrameUpdate(frameKey);\r\n    //     }\r\n    //     else if (block.timestamp <= frameKey.add(period) && block.timestamp >= ((frameKey.add(period)).sub(tReporting))) {\r\n    //         frames[frameKey].oraclePrice0CumulativeEnd = PriceCumulative;\r\n    //         frames[frameKey].oracleTimestampEnd = block.timestamp;\r\n    //         emit FrameUpdate(frameKey);\r\n    //     }\r\n    // }\r\n\r\n    /// @notice Close frame\r\n    /// @param frameKey Frame's timestamp\r\n    function closeFrame(uint frameKey) public payable {\r\n        //Check if frame is opened\r\n        require(frames[frameKey].state == SFrame.OPENED, \"FRAME NOT OPENED\");\r\n        //Check if frame end has been reached\r\n        require(frameKey.add(period) <= block.timestamp, \"FRAME END TIME NOT REACHED\");\r\n        //Check if frame has valid prices\r\n        if (frames[frameKey].oraclePrice0CumulativeStart <= 0 || frames[frameKey].oraclePrice0CumulativeEnd <= 0) {\r\n            frames[frameKey].state = SFrame.INVALID;\r\n        }\r\n        if (frames[frameKey].oraclePrice0CumulativeStart == frames[frameKey].oraclePrice0CumulativeEnd) {\r\n            frames[frameKey].state = SFrame.INVALID;\r\n        }\r\n        frames[frameKey].state = SFrame.CLOSED;\r\n\r\n        //UQ112x112 encoded\r\n        uint priceDiff = frames[frameKey].oraclePrice0CumulativeEnd.sub(frames[frameKey].oraclePrice0CumulativeStart);\r\n        uint timeDiff = frames[frameKey].oracleTimestampEnd.sub(frames[frameKey].oracleTimestampStart);\r\n        //Calculate time-weighted average price -- UQ112x112 encoded\r\n        frames[frameKey].priceAverage = uint(((FixedPoint.div(FixedPoint.uq112x112(uint224(priceDiff)), (uint112(timeDiff)))))._x);\r\n\r\n        //Decode to scalar value\r\n        frames[frameKey].priceAverage = (frames[frameKey].priceAverage >> 112).mul(scalar) + (frames[frameKey].priceAverage << 112).div(1e49); \r\n        //frames[frameKey].priceAverage = (frames[frameKey].priceAverage << 112).div(1e49);\r\n\r\n        //Subtract fees from the reward amount \r\n        uint marketOwnerFees = frames[frameKey].rewardFund.mul(feeMarket).div(100000);\r\n        uint protocolOwnerFees = frames[frameKey].rewardFund.mul(feeProtocol).div(100000);\r\n        frames[frameKey].rewardFund = frames[frameKey].rewardFund.sub(marketOwnerFees).sub(protocolOwnerFees);\r\n\r\n        //Transfer fees to owners\r\n        accountingToken.transfer(ownerMarket, marketOwnerFees);\r\n        accountingToken.transfer(factory.owner(), protocolOwnerFees);\r\n\r\n        emit FrameUpdate(frameKey);\r\n    }\r\n\r\n    /// @notice Settle lot for a owner. Owner's share of the reward amount get's transfered to owner's account\r\n    /// @param frameKey Frame's timestamp\r\n    function settleLot(uint frameKey) public payable {  \r\n        //Check if frame is closed\r\n        require(frames[frameKey].state == SFrame.CLOSED, \"FRAME NOT CLOSED\");    \r\n        //Calcualte the winning lot key\r\n        uint lotKeyWin = (clcLotInterval(frames[frameKey].priceAverage));\r\n        //Check if the lot is already settled\r\n        require(frames[frameKey].lots[lotKeyWin].state != SLot.SETTLED, \"LOT ALREADY SETTLED\");\r\n        //Transfer winnings to last owner \r\n        accountingToken.transfer(frames[frameKey].lots[lotKeyWin].lotOwner, frames[frameKey].rewardFund);\r\n        //State is changed to settled\r\n        frames[frameKey].lots[lotKeyWin].state = SLot.SETTLED;\r\n\r\n        emit LotUpdate(frameKey, lotKeyWin);\r\n    }\r\n\r\n    /// @notice Withdraw any amount out of the contract. Only to be used in extreme cases!\r\n    /// @param amount Amount you want to withdraw\r\n    function emptyFuds(uint amount) public payable isFactoryOwner {  \r\n        accountingToken.transfer(factory.owner(), amount);\r\n    }\r\n\r\n\r\n}",
  "sourcePath": "D:\\prog\\UniHedge\\core\\contracts\\Market.sol",
  "compiler": {
    "name": "solc",
    "version": "0.8.8+commit.dddeac2f.Emscripten.clang"
  },
  "schemaVersion": "3.4.3",
  "updatedAt": "2021-09-28T09:51:38.102Z",
  "devdoc": {
    "author": "UniHedge",
    "details": "All function calls are currently implemented without side effects",
    "kind": "dev",
    "methods": {
      "AmountToApprove(uint256,uint256,uint256)": {
        "params": {
          "acquisitionPrice": "New sell price is required to calculate tax",
          "frameKey": "Frame's timestamp",
          "pairPrice": "Value is trading pair's price (to get correct lot key) "
        },
        "returns": {
          "_0": "amount to approve"
        }
      },
      "buyLot(uint256,uint256,uint256)": {
        "params": {
          "acquisitionPrice": "New sell price is required to calculate tax",
          "pairPrice": "Is trading pair's price (to get correct lot key) ",
          "timestamp": "Frame's timestamp get's calculated from this value"
        }
      },
      "clcFrameTimestamp(uint256)": {
        "params": {
          "timestamp": "In seconds"
        },
        "returns": {
          "_0": "frame's timestamp (key)"
        }
      },
      "clcFramesLeft(uint256)": {
        "params": {
          "frameKey": "Timestamp of an arbitary frame in the future"
        },
        "returns": {
          "_0": "number of frames (whole numbers: n=0,1,2...)"
        }
      },
      "clcLotInterval(uint256)": {
        "params": {
          "value": "Arbitary price of market's Uniswap pair"
        },
        "returns": {
          "_0": "lot key (top boundary)"
        }
      },
      "closeFrame(uint256)": {
        "params": {
          "frameKey": "Frame's timestamp"
        }
      },
      "emptyFuds(uint256)": {
        "params": {
          "amount": "Amount you want to withdraw"
        }
      },
      "getLot(uint256,uint256)": {
        "params": {
          "frameKey": "Frame's timestamp",
          "lotKey": "lot's key "
        },
        "returns": {
          "_0": "lot struct"
        }
      },
      "getLotKey(uint256,uint256)": {
        "params": {
          "frameKey": "Frame's timestamp",
          "index": "frameKeys array index "
        },
        "returns": {
          "_0": "lotKey"
        }
      },
      "getLotsCount(uint256)": {
        "params": {
          "frameKey": "Frame's timestamp"
        },
        "returns": {
          "_0": "lot count"
        }
      },
      "getNumberOfFrameKeys()": {
        "returns": {
          "_0": "number frames"
        }
      },
      "getOrCreateFrame(uint256)": {
        "params": {
          "timestamp": "In second."
        },
        "returns": {
          "_0": "frameTimestamp Frame's key (timestamp that indicated the beggining of a frame)."
        }
      },
      "getRewardAmount(uint256)": {
        "params": {
          "frameKey": "Frame's timestamp"
        },
        "returns": {
          "_0": "award amount"
        }
      },
      "settleLot(uint256)": {
        "params": {
          "frameKey": "Frame's timestamp"
        }
      },
      "updateLotPrice(uint256,uint256,uint256)": {
        "params": {
          "acquisitionPrice": "New acquisition price",
          "pairPrice": "Is trading pair's price (to get correct lot key) ",
          "timestamp": "Frame's timestamp get's calculated from this value"
        }
      }
    },
    "title": "TWPM Market",
    "version": 1
  },
  "userdoc": {
    "kind": "user",
    "methods": {
      "AmountToApprove(uint256,uint256,uint256)": {
        "notice": "Calculate amout required to approve to buy a lot"
      },
      "buyLot(uint256,uint256,uint256)": {
        "notice": "Calculate amout required to approve to buy a lot"
      },
      "clcFrameTimestamp(uint256)": {
        "notice": "Calculate frames timestamp (beggining of frame)"
      },
      "clcFramesLeft(uint256)": {
        "notice": "Calculate how many frames there are left untill given frame in input"
      },
      "clcLotInterval(uint256)": {
        "notice": "Calculate top boundary of a lot"
      },
      "closeFrame(uint256)": {
        "notice": "Close frame"
      },
      "emptyFuds(uint256)": {
        "notice": "Withdraw any amount out of the contract. Only to be used in extreme cases!"
      },
      "getLot(uint256,uint256)": {
        "notice": "Get lot struct"
      },
      "getLotKey(uint256,uint256)": {
        "notice": "Get lotKey from index in lotKeys array"
      },
      "getLotsCount(uint256)": {
        "notice": "Get no. of created lots in a frame "
      },
      "getNumberOfFrameKeys()": {
        "notice": "Get number of frames"
      },
      "getOrCreateFrame(uint256)": {
        "notice": "Create a frame"
      },
      "getRewardAmount(uint256)": {
        "notice": "Get frame's award amount (accumulation of different lot taxes)Remaining tax of a lot owner get's returned after a sale (change of ownership). So the award amount isn't for sure untill the frame get's closed."
      },
      "settleLot(uint256)": {
        "notice": "Settle lot for a owner. Owner's share of the reward amount get's transfered to owner's account"
      },
      "updateLotPrice(uint256,uint256,uint256)": {
        "notice": "Owner can update lot's price. Has to pay additional tax, or leftover tax gets' returned to him if the new price is lower"
      }
    },
    "version": 1
  }
}