{
  "contractName": "Market",
  "abi": [
    {
      "inputs": [
        {
          "internalType": "contract MarketFactory",
          "name": "_factory",
          "type": "address"
        },
        {
          "internalType": "contract IERC20",
          "name": "_token",
          "type": "address"
        },
        {
          "internalType": "contract IUniswapV2Pair",
          "name": "_uniswapPair",
          "type": "address"
        },
        {
          "internalType": "uint256",
          "name": "_period",
          "type": "uint256"
        },
        {
          "internalType": "uint256",
          "name": "_initTimestamp",
          "type": "uint256"
        },
        {
          "internalType": "uint256",
          "name": "_taxMarket",
          "type": "uint256"
        },
        {
          "internalType": "uint256",
          "name": "_feeMarket",
          "type": "uint256"
        },
        {
          "internalType": "uint256",
          "name": "_dPrice",
          "type": "uint256"
        },
        {
          "internalType": "uint256",
          "name": "_tReporting",
          "type": "uint256"
        },
        {
          "internalType": "uint256",
          "name": "_minTax",
          "type": "uint256"
        }
      ],
      "stateMutability": "nonpayable",
      "type": "constructor"
    },
    {
      "anonymous": false,
      "inputs": [
        {
          "indexed": false,
          "internalType": "uint256",
          "name": "frameKey",
          "type": "uint256"
        }
      ],
      "name": "FrameUpdate",
      "type": "event"
    },
    {
      "anonymous": false,
      "inputs": [
        {
          "indexed": false,
          "internalType": "uint256",
          "name": "frameKey",
          "type": "uint256"
        },
        {
          "indexed": false,
          "internalType": "uint256",
          "name": "parcelKey",
          "type": "uint256"
        }
      ],
      "name": "ParcelUpdate",
      "type": "event"
    },
    {
      "inputs": [],
      "name": "accountingToken",
      "outputs": [
        {
          "internalType": "contract IERC20",
          "name": "",
          "type": "address"
        }
      ],
      "stateMutability": "view",
      "type": "function"
    },
    {
      "inputs": [],
      "name": "dPrice",
      "outputs": [
        {
          "internalType": "uint256",
          "name": "",
          "type": "uint256"
        }
      ],
      "stateMutability": "view",
      "type": "function"
    },
    {
      "inputs": [],
      "name": "factory",
      "outputs": [
        {
          "internalType": "contract MarketFactory",
          "name": "",
          "type": "address"
        }
      ],
      "stateMutability": "view",
      "type": "function"
    },
    {
      "inputs": [],
      "name": "feeMarket",
      "outputs": [
        {
          "internalType": "uint256",
          "name": "",
          "type": "uint256"
        }
      ],
      "stateMutability": "view",
      "type": "function"
    },
    {
      "inputs": [],
      "name": "feeProtocol",
      "outputs": [
        {
          "internalType": "uint256",
          "name": "",
          "type": "uint256"
        }
      ],
      "stateMutability": "view",
      "type": "function"
    },
    {
      "inputs": [
        {
          "internalType": "uint256",
          "name": "",
          "type": "uint256"
        }
      ],
      "name": "frames",
      "outputs": [
        {
          "internalType": "uint256",
          "name": "frameKey",
          "type": "uint256"
        },
        {
          "internalType": "enum Market.SFrame",
          "name": "state",
          "type": "uint8"
        },
        {
          "internalType": "uint256",
          "name": "priceAverage",
          "type": "uint256"
        },
        {
          "internalType": "uint256",
          "name": "rewardFund",
          "type": "uint256"
        },
        {
          "internalType": "uint256",
          "name": "oraclePrice0CumulativeStart",
          "type": "uint256"
        },
        {
          "internalType": "uint256",
          "name": "oraclePrice0CumulativeEnd",
          "type": "uint256"
        },
        {
          "internalType": "uint256",
          "name": "price0CumulativeEnd",
          "type": "uint256"
        },
        {
          "internalType": "uint256",
          "name": "oracleTimestampStart",
          "type": "uint256"
        },
        {
          "internalType": "uint256",
          "name": "oracleTimestampEnd",
          "type": "uint256"
        },
        {
          "internalType": "uint256",
          "name": "lastBlockNum",
          "type": "uint256"
        }
      ],
      "stateMutability": "view",
      "type": "function"
    },
    {
      "inputs": [
        {
          "internalType": "uint256",
          "name": "",
          "type": "uint256"
        }
      ],
      "name": "framesKeys",
      "outputs": [
        {
          "internalType": "uint256",
          "name": "",
          "type": "uint256"
        }
      ],
      "stateMutability": "view",
      "type": "function"
    },
    {
      "inputs": [],
      "name": "initTimestamp",
      "outputs": [
        {
          "internalType": "uint256",
          "name": "",
          "type": "uint256"
        }
      ],
      "stateMutability": "view",
      "type": "function"
    },
    {
      "inputs": [],
      "name": "minTax",
      "outputs": [
        {
          "internalType": "uint256",
          "name": "",
          "type": "uint256"
        }
      ],
      "stateMutability": "view",
      "type": "function"
    },
    {
      "inputs": [],
      "name": "ownerMarket",
      "outputs": [
        {
          "internalType": "address payable",
          "name": "",
          "type": "address"
        }
      ],
      "stateMutability": "view",
      "type": "function"
    },
    {
      "inputs": [],
      "name": "period",
      "outputs": [
        {
          "internalType": "uint256",
          "name": "",
          "type": "uint256"
        }
      ],
      "stateMutability": "view",
      "type": "function"
    },
    {
      "inputs": [],
      "name": "tReporting",
      "outputs": [
        {
          "internalType": "uint256",
          "name": "",
          "type": "uint256"
        }
      ],
      "stateMutability": "view",
      "type": "function"
    },
    {
      "inputs": [],
      "name": "taxMarket",
      "outputs": [
        {
          "internalType": "uint256",
          "name": "",
          "type": "uint256"
        }
      ],
      "stateMutability": "view",
      "type": "function"
    },
    {
      "inputs": [],
      "name": "uniswapPair",
      "outputs": [
        {
          "internalType": "contract IUniswapV2Pair",
          "name": "",
          "type": "address"
        }
      ],
      "stateMutability": "view",
      "type": "function"
    },
    {
      "inputs": [
        {
          "internalType": "uint256",
          "name": "timestamp",
          "type": "uint256"
        }
      ],
      "name": "getOrCreateFrame",
      "outputs": [
        {
          "internalType": "uint256",
          "name": "",
          "type": "uint256"
        }
      ],
      "stateMutability": "nonpayable",
      "type": "function"
    },
    {
      "inputs": [
        {
          "internalType": "uint256",
          "name": "timestamp",
          "type": "uint256"
        }
      ],
      "name": "clcFrameTimestamp",
      "outputs": [
        {
          "internalType": "uint256",
          "name": "",
          "type": "uint256"
        }
      ],
      "stateMutability": "view",
      "type": "function"
    },
    {
      "inputs": [
        {
          "internalType": "uint256",
          "name": "value",
          "type": "uint256"
        }
      ],
      "name": "clcParcelInterval",
      "outputs": [
        {
          "internalType": "uint256",
          "name": "",
          "type": "uint256"
        }
      ],
      "stateMutability": "view",
      "type": "function"
    },
    {
      "inputs": [
        {
          "internalType": "uint256",
          "name": "frameKey",
          "type": "uint256"
        }
      ],
      "name": "clcFramesLeft",
      "outputs": [
        {
          "internalType": "uint256",
          "name": "",
          "type": "uint256"
        }
      ],
      "stateMutability": "view",
      "type": "function"
    },
    {
      "inputs": [
        {
          "internalType": "uint256",
          "name": "frameKey",
          "type": "uint256"
        },
        {
          "internalType": "uint256",
          "name": "parcelKey",
          "type": "uint256"
        }
      ],
      "name": "getParcel",
      "outputs": [
        {
          "components": [
            {
              "internalType": "uint256",
              "name": "parcelKey",
              "type": "uint256"
            },
            {
              "components": [
                {
                  "internalType": "address payable",
                  "name": "owner",
                  "type": "address"
                },
                {
                  "internalType": "uint256",
                  "name": "blockNum",
                  "type": "uint256"
                }
              ],
              "internalType": "struct Market.ParcelOwner[]",
              "name": "parcelOwners",
              "type": "tuple[]"
            },
            {
              "internalType": "uint256",
              "name": "acquisitionPrice",
              "type": "uint256"
            },
            {
              "internalType": "enum Market.SParcel",
              "name": "state",
              "type": "uint8"
            }
          ],
          "internalType": "struct Market.Parcel",
          "name": "",
          "type": "tuple"
        }
      ],
      "stateMutability": "view",
      "type": "function"
    },
    {
      "inputs": [
        {
          "internalType": "uint256",
          "name": "frameKey",
          "type": "uint256"
        }
      ],
      "name": "getParcelsCount",
      "outputs": [
        {
          "internalType": "uint256",
          "name": "",
          "type": "uint256"
        }
      ],
      "stateMutability": "view",
      "type": "function"
    },
    {
      "inputs": [
        {
          "internalType": "uint256",
          "name": "frameKey",
          "type": "uint256"
        },
        {
          "internalType": "uint256",
          "name": "index",
          "type": "uint256"
        }
      ],
      "name": "getParcelKey",
      "outputs": [
        {
          "internalType": "uint256",
          "name": "",
          "type": "uint256"
        }
      ],
      "stateMutability": "view",
      "type": "function"
    },
    {
      "inputs": [
        {
          "internalType": "uint256",
          "name": "frameKey",
          "type": "uint256"
        },
        {
          "internalType": "uint256",
          "name": "parcelKey",
          "type": "uint256"
        }
      ],
      "name": "getParcelOwner",
      "outputs": [
        {
          "internalType": "address",
          "name": "",
          "type": "address"
        }
      ],
      "stateMutability": "view",
      "type": "function"
    },
    {
      "inputs": [
        {
          "internalType": "uint256",
          "name": "frameKey",
          "type": "uint256"
        }
      ],
      "name": "getRewardAmount",
      "outputs": [
        {
          "internalType": "uint256",
          "name": "",
          "type": "uint256"
        }
      ],
      "stateMutability": "view",
      "type": "function"
    },
    {
      "inputs": [
        {
          "internalType": "uint256",
          "name": "frameKey",
          "type": "uint256"
        },
        {
          "internalType": "uint256",
          "name": "parcelKey",
          "type": "uint256"
        }
      ],
      "name": "getNumberOfParcelOwners",
      "outputs": [
        {
          "internalType": "uint256",
          "name": "",
          "type": "uint256"
        }
      ],
      "stateMutability": "view",
      "type": "function"
    },
    {
      "inputs": [],
      "name": "getNumberOfFrameKeys",
      "outputs": [
        {
          "internalType": "uint256",
          "name": "",
          "type": "uint256"
        }
      ],
      "stateMutability": "view",
      "type": "function"
    },
    {
      "inputs": [
        {
          "internalType": "uint256",
          "name": "frameKey",
          "type": "uint256"
        },
        {
          "internalType": "uint256",
          "name": "parcelKey",
          "type": "uint256"
        },
        {
          "internalType": "address",
          "name": "owner",
          "type": "address"
        }
      ],
      "name": "getParcelOwnerIndex",
      "outputs": [
        {
          "internalType": "uint256",
          "name": "i",
          "type": "uint256"
        }
      ],
      "stateMutability": "view",
      "type": "function"
    },
    {
      "inputs": [
        {
          "internalType": "uint256",
          "name": "frameKey",
          "type": "uint256"
        },
        {
          "internalType": "uint256",
          "name": "pairPrice",
          "type": "uint256"
        },
        {
          "internalType": "uint256",
          "name": "acquisitionPrice",
          "type": "uint256"
        },
        {
          "internalType": "uint256",
          "name": "timestamp",
          "type": "uint256"
        }
      ],
      "name": "AmountToApprove",
      "outputs": [
        {
          "internalType": "uint256",
          "name": "",
          "type": "uint256"
        }
      ],
      "stateMutability": "view",
      "type": "function"
    },
    {
      "inputs": [
        {
          "internalType": "uint256",
          "name": "timestamp",
          "type": "uint256"
        },
        {
          "internalType": "uint256",
          "name": "pairPrice",
          "type": "uint256"
        },
        {
          "internalType": "uint256",
          "name": "acquisitionPrice",
          "type": "uint256"
        }
      ],
      "name": "buyParcel",
      "outputs": [],
      "stateMutability": "payable",
      "type": "function"
    },
    {
      "inputs": [
        {
          "internalType": "uint256",
          "name": "timestamp",
          "type": "uint256"
        },
        {
          "internalType": "uint256",
          "name": "pairPrice",
          "type": "uint256"
        },
        {
          "internalType": "uint256",
          "name": "acquisitionPrice",
          "type": "uint256"
        }
      ],
      "name": "updateParcelPrice",
      "outputs": [],
      "stateMutability": "payable",
      "type": "function"
    },
    {
      "inputs": [
        {
          "internalType": "uint256",
          "name": "PriceCumulative",
          "type": "uint256"
        }
      ],
      "name": "updateFramePrices",
      "outputs": [],
      "stateMutability": "nonpayable",
      "type": "function"
    },
    {
      "inputs": [
        {
          "internalType": "uint256",
          "name": "frameKey",
          "type": "uint256"
        }
      ],
      "name": "closeFrame",
      "outputs": [],
      "stateMutability": "nonpayable",
      "type": "function"
    },
    {
      "inputs": [
        {
          "internalType": "uint256",
          "name": "frameKey",
          "type": "uint256"
        }
      ],
      "name": "settleParcel",
      "outputs": [],
      "stateMutability": "nonpayable",
      "type": "function"
    }
  ],
  "bytecode": "0x6080604052606460095569d3c21bcecceda1000000600c553480156200002457600080fd5b50604051620043443803806200434483398181016040528101906200004a9190620001ea565b88600160006101000a81548173ffffffffffffffffffffffffffffffffffffffff021916908373ffffffffffffffffffffffffffffffffffffffff16021790555033600260006101000a81548173ffffffffffffffffffffffffffffffffffffffff021916908373ffffffffffffffffffffffffffffffffffffffff1602179055508660038190555085600481905550846008819055508360078190555087600560006101000a81548173ffffffffffffffffffffffffffffffffffffffff021916908373ffffffffffffffffffffffffffffffffffffffff16021790555082600681905550896000806101000a81548173ffffffffffffffffffffffffffffffffffffffff021916908373ffffffffffffffffffffffffffffffffffffffff16021790555081600a8190555080600b8190555050505050505050505050620003c7565b6000815190506200019f816200035f565b92915050565b600081519050620001b68162000379565b92915050565b600081519050620001cd8162000393565b92915050565b600081519050620001e481620003ad565b92915050565b6000806000806000806000806000806101408b8d0312156200021157620002106200035a565b5b6000620002218d828e01620001bc565b9a50506020620002348d828e016200018e565b9950506040620002478d828e01620001a5565b98505060606200025a8d828e01620001d3565b97505060806200026d8d828e01620001d3565b96505060a0620002808d828e01620001d3565b95505060c0620002938d828e01620001d3565b94505060e0620002a68d828e01620001d3565b935050610100620002ba8d828e01620001d3565b925050610120620002ce8d828e01620001d3565b9150509295989b9194979a5092959850565b6000620002ed8262000330565b9050919050565b60006200030182620002e0565b9050919050565b60006200031582620002e0565b9050919050565b60006200032982620002e0565b9050919050565b600073ffffffffffffffffffffffffffffffffffffffff82169050919050565b6000819050919050565b600080fd5b6200036a81620002f4565b81146200037657600080fd5b50565b620003848162000308565b81146200039057600080fd5b50565b6200039e816200031c565b8114620003aa57600080fd5b50565b620003b88162000350565b8114620003c457600080fd5b50565b613f6d80620003d76000396000f3fe6080604052600436106101e35760003560e01c80637b836a2b11610102578063c816841b11610095578063ef78d4fd11610064578063ef78d4fd1461076d578063f27da3ac14610798578063fc950702146107d5578063ff5c86b0146107fe576101e3565b8063c816841b146106be578063c84993af146106e9578063da68cf8b14610726578063ec77fe1114610751576101e3565b806395333194116100d157806395333194146105f4578063a10340bc14610610578063ba9d1d6814610656578063c45a015514610693576101e3565b80637b836a2b146105385780637d6ae6a0146105615780637e9966391461059e57806389da88a3146105c9576101e3565b806342d3da1d1161017a578063527eb4bc11610149578063527eb4bc1461046857806354bc7f6c146104935780635b3ad63e146104d05780637358c57a1461050d576101e3565b806342d3da1d1461039857806345084775146103d5578063499a0fc4146104005780634f3ab71f1461042b576101e3565b806331cf77b4116101b657806331cf77b4146102c85780633d09a82a146103055780633d7a7eac14610330578063410f07101461036d576101e3565b8063050e8840146101e85780630cbcff8f1461022557806318ff0e07146102625780632a0efd441461029f575b600080fd5b3480156101f457600080fd5b5061020f600480360381019061020a919061302b565b610829565b60405161021c91906137fe565b60405180910390f35b34801561023157600080fd5b5061024c6004803603810190610247919061302b565b61084d565b60405161025991906137fe565b60405180910390f35b34801561026e57600080fd5b506102896004803603810190610284919061302b565b610a08565b60405161029691906137fe565b60405180910390f35b3480156102ab57600080fd5b506102c660048036038101906102c1919061302b565b610a60565b005b3480156102d457600080fd5b506102ef60048036038101906102ea9190613085565b610c11565b6040516102fc91906137fe565b60405180910390f35b34801561031157600080fd5b5061031a610c49565b60405161032791906137fe565b60405180910390f35b34801561033c57600080fd5b506103576004803603810190610352919061316b565b610c4f565b60405161036491906137fe565b60405180910390f35b34801561037957600080fd5b50610382610db5565b60405161038f91906137fe565b60405180910390f35b3480156103a457600080fd5b506103bf60048036038101906103ba9190613085565b610dbb565b6040516103cc91906137dc565b60405180910390f35b3480156103e157600080fd5b506103ea610f0b565b6040516103f7919061353e565b60405180910390f35b34801561040c57600080fd5b50610415610f31565b60405161042291906137fe565b60405180910390f35b34801561043757600080fd5b50610452600480360381019061044d91906130c5565b610f37565b60405161045f91906137fe565b60405180910390f35b34801561047457600080fd5b5061047d611046565b60405161048a91906137fe565b60405180910390f35b34801561049f57600080fd5b506104ba60048036038101906104b5919061302b565b61104c565b6040516104c791906137fe565b60405180910390f35b3480156104dc57600080fd5b506104f760048036038101906104f2919061302b565b61106f565b60405161050491906137fe565b60405180910390f35b34801561051957600080fd5b506105226110c7565b60405161052f91906137fe565b60405180910390f35b34801561054457600080fd5b5061055f600480360381019061055a919061302b565b6110cd565b005b34801561056d57600080fd5b506105886004803603810190610583919061302b565b61148b565b60405161059591906137fe565b60405180910390f35b3480156105aa57600080fd5b506105b36114ce565b6040516105c091906137fe565b60405180910390f35b3480156105d557600080fd5b506105de6114d4565b6040516105eb91906137fe565b60405180910390f35b61060e60048036038101906106099190613118565b6114e1565b005b34801561061c57600080fd5b506106376004803603810190610632919061302b565b611dab565b60405161064d9a99989796959493929190613819565b60405180910390f35b34801561066257600080fd5b5061067d60048036038101906106789190613085565b611e0c565b60405161068a9190613523565b60405180910390f35b34801561069f57600080fd5b506106a8611eba565b6040516106b59190613641565b60405180910390f35b3480156106ca57600080fd5b506106d3611ede565b6040516106e09190613626565b60405180910390f35b3480156106f557600080fd5b50610710600480360381019061070b919061302b565b611f04565b60405161071d91906137fe565b60405180910390f35b34801561073257600080fd5b5061073b611f24565b604051610748919061360b565b60405180910390f35b61076b60048036038101906107669190613118565b611f4a565b005b34801561077957600080fd5b506107826125b8565b60405161078f91906137fe565b60405180910390f35b3480156107a457600080fd5b506107bf60048036038101906107ba9190613085565b6125be565b6040516107cc91906137fe565b60405180910390f35b3480156107e157600080fd5b506107fc60048036038101906107f7919061302b565b6125fb565b005b34801561080a57600080fd5b50610813612ce8565b60405161082091906137fe565b60405180910390f35b600e818154811061083957600080fd5b906000526020600020016000915090505481565b6000600454821015610894576040517f08c379a000000000000000000000000000000000000000000000000000000000815260040161088b906136fc565b60405180910390fd5b600061089f8361106f565b9050600060038111156108b5576108b4613c55565b5b600d600083815260200190815260200160002060010160009054906101000a900460ff1660038111156108eb576108ea613c55565b5b146108f95780915050610a03565b6109024261106f565b811015610944576040517f08c379a000000000000000000000000000000000000000000000000000000000815260040161093b9061369c565b60405180910390fd5b80600d6000838152602001908152602001600020600001819055506001600d600083815260200190815260200160002060010160006101000a81548160ff0219169083600381111561099957610998613c55565b5b0217905550600e8190806001815401808255809150506001900390600052602060002001600090919091909150557f163614e6e9ce9df7687928015fd2c748b69c5136db886e57f09170b251b58e87816040516109f691906137fe565b60405180910390a1809150505b919050565b6000808211610a1b576006549050610a5b565b610a58600654610a4a600654610a3c60065487612cee90919063ffffffff16565b612d0490919063ffffffff16565b612d1a90919063ffffffff16565b90505b919050565b6000610a6b4261106f565b905043600d600083815260200190815260200160002060090181905550610ab1600a54610aa360035484612d1a90919063ffffffff16565b612d3090919063ffffffff16565b4210158015610ad657506000600d600083815260200190815260200160002060040154145b15610b4d5781600d60008381526020019081526020016000206004018190555042600d6000838152602001908152602001600020600701819055507f163614e6e9ce9df7687928015fd2c748b69c5136db886e57f09170b251b58e8781604051610b4091906137fe565b60405180910390a1610c0d565b610b6260035482612d1a90919063ffffffff16565b4211158015610b995750610b95600a54610b8760035484612d1a90919063ffffffff16565b612d3090919063ffffffff16565b4210155b15610c0c5781600d60008381526020019081526020016000206005018190555042600d6000838152602001908152602001600020600801819055507f163614e6e9ce9df7687928015fd2c748b69c5136db886e57f09170b251b58e8781604051610c0391906137fe565b60405180910390a15b5b5050565b6000600d6000848152602001908152602001600020600a01600083815260200190815260200160002060010180549050905092915050565b600b5481565b600080610c5b85610a08565b90506000610c7a610c6b8561106f565b85612d3090919063ffffffff16565b90506000610ca7600354610c9984600c54612d0490919063ffffffff16565b612cee90919063ffffffff16565b90506000610cb48961148b565b90506000610cf482610ce6620186a0610cd86008548d612d0490919063ffffffff16565b612cee90919063ffffffff16565b612d0490919063ffffffff16565b90506000610d22620186a0610d146008548c612d0490919063ffffffff16565b612cee90919063ffffffff16565b9050610d4b600c54610d3d8684612d0490919063ffffffff16565b612cee90919063ffffffff16565b9050610d608183612d1a90919063ffffffff16565b91506000610da183600d60008f8152602001908152602001600020600a0160008a815260200190815260200160002060020154612d1a90919063ffffffff16565b905080975050505050505050949350505050565b60075481565b610dc3612efd565b600d6000848152602001908152602001600020600a0160008381526020019081526020016000206040518060800160405290816000820154815260200160018201805480602002602001604051908101604052809291908181526020016000905b82821015610eb657838290600052602060002090600202016040518060400160405290816000820160009054906101000a900473ffffffffffffffffffffffffffffffffffffffff1673ffffffffffffffffffffffffffffffffffffffff1673ffffffffffffffffffffffffffffffffffffffff16815260200160018201548152505081526020019060010190610e24565b505050508152602001600282015481526020016003820160009054906101000a900460ff166002811115610eed57610eec613c55565b5b6002811115610eff57610efe613c55565b5b81525050905092915050565b600260009054906101000a900473ffffffffffffffffffffffffffffffffffffffff1681565b60065481565b60005b610f448484610c11565b811015611004578173ffffffffffffffffffffffffffffffffffffffff16600d6000868152602001908152602001600020600a0160008581526020019081526020016000206001018281548110610f9e57610f9d613c84565b5b906000526020600020906002020160000160009054906101000a900473ffffffffffffffffffffffffffffffffffffffff1673ffffffffffffffffffffffffffffffffffffffff161415610ff15761103f565b8080610ffc90613b7d565b915050610f3a565b6040517f08c379a0000000000000000000000000000000000000000000000000000000008152600401611036906137bc565b60405180910390fd5b9392505050565b60095481565b6000600d6000838152602001908152602001600020600b01805490509050919050565b600060045482116110845760045490506110c2565b6110bf6110b06003546110a260045486612d3090919063ffffffff16565b612d4690919063ffffffff16565b83612d3090919063ffffffff16565b90505b919050565b60045481565b600260038111156110e1576110e0613c55565b5b600d600083815260200190815260200160002060010160009054906101000a900460ff16600381111561111757611116613c55565b5b14611157576040517f08c379a000000000000000000000000000000000000000000000000000000000815260040161114e9061371c565b60405180910390fd5b6000611178600d600084815260200190815260200160002060020154610a08565b90506000600d6000848152602001908152602001600020600a0160008381526020019081526020016000206040518060800160405290816000820154815260200160018201805480602002602001604051908101604052809291908181526020016000905b8282101561126f57838290600052602060002090600202016040518060400160405290816000820160009054906101000a900473ffffffffffffffffffffffffffffffffffffffff1673ffffffffffffffffffffffffffffffffffffffff1673ffffffffffffffffffffffffffffffffffffffff168152602001600182015481525050815260200190600101906111dd565b505050508152602001600282015481526020016003820160009054906101000a900460ff1660028111156112a6576112a5613c55565b5b60028111156112b8576112b7613c55565b5b8152505090506002808111156112d1576112d0613c55565b5b816060015160028111156112e8576112e7613c55565b5b1415611329576040517f08c379a00000000000000000000000000000000000000000000000000000000081526004016113209061373c565b60405180910390fd5b60006113358484610c11565b9050600160009054906101000a900473ffffffffffffffffffffffffffffffffffffffff1673ffffffffffffffffffffffffffffffffffffffff1663a9059cbb836020015161138e600185612d3090919063ffffffff16565b8151811061139f5761139e613c84565b5b602002602001015160000151600d6000888152602001908152602001600020600301546040518363ffffffff1660e01b81526004016113df929190613559565b602060405180830381600087803b1580156113f957600080fd5b505af115801561140d573d6000803e3d6000fd5b505050506040513d601f19601f820116820180604052508101906114319190612ffe565b506002600d6000868152602001908152602001600020600a01600085815260200190815260200160002060030160006101000a81548160ff021916908360028111156114805761147f613c55565b5b021790555050505050565b60006114c760016114b96003546114ab4287612d3090919063ffffffff16565b612cee90919063ffffffff16565b612d1a90919063ffffffff16565b9050919050565b60085481565b6000600e80549050905090565b80600061150e620186a061150060085485612d0490919063ffffffff16565b612cee90919063ffffffff16565b9050600b54811015611555576040517f08c379a000000000000000000000000000000000000000000000000000000000815260040161154c906136bc565b60405180910390fd5b60006115608661084d565b9050600061156e8287612d5c565b905061157a8282611e0c565b73ffffffffffffffffffffffffffffffffffffffff163373ffffffffffffffffffffffffffffffffffffffff1614156115e8576040517f08c379a00000000000000000000000000000000000000000000000000000000081526004016115df9061375c565b60405180910390fd5b60006116056115f64261106f565b42612d3090919063ffffffff16565b9050600061163260035461162484600c54612d0490919063ffffffff16565b612cee90919063ffffffff16565b90506000611686600c546116788461166a620186a061165c6008548f612d0490919063ffffffff16565b612cee90919063ffffffff16565b612d0490919063ffffffff16565b612cee90919063ffffffff16565b905060006116938b61148b565b905060006116d3826116c5620186a06116b76008548f612d0490919063ffffffff16565b612cee90919063ffffffff16565b612d0490919063ffffffff16565b90506116e88382612d1a90919063ffffffff16565b905061172781600d60008a8152602001908152602001600020600a01600089815260200190815260200160002060020154612d1a90919063ffffffff16565b600160009054906101000a900473ffffffffffffffffffffffffffffffffffffffff1673ffffffffffffffffffffffffffffffffffffffff1663dd62ed3e33306040518363ffffffff1660e01b8152600401611784929190613582565b60206040518083038186803b15801561179c57600080fd5b505afa1580156117b0573d6000803e3d6000fd5b505050506040513d601f19601f820116820180604052508101906117d49190613058565b1015611815576040517f08c379a000000000000000000000000000000000000000000000000000000000815260040161180c9061377c565b60405180910390fd5b600160009054906101000a900473ffffffffffffffffffffffffffffffffffffffff1673ffffffffffffffffffffffffffffffffffffffff166323b872dd333061189285600d60008e8152602001908152602001600020600a0160008d815260200190815260200160002060020154612d1a90919063ffffffff16565b6040518463ffffffff1660e01b81526004016118b0939291906135ab565b602060405180830381600087803b1580156118ca57600080fd5b505af11580156118de573d6000803e3d6000fd5b505050506040513d601f19601f820116820180604052508101906119029190612ffe565b5061192c81600d60008a815260200190815260200160002060030154612d1a90919063ffffffff16565b600d6000898152602001908152602001600020600301819055506001600281111561195a57611959613c55565b5b600d6000898152602001908152602001600020600a01600088815260200190815260200160002060030160009054906101000a900460ff1660028111156119a4576119a3613c55565b5b1415611c4a576000600d6000898152602001908152602001600020600a0160008881526020019081526020016000206002015490506000611a2b600c54611a1d88611a0f620186a0611a0160085489612d0490919063ffffffff16565b612cee90919063ffffffff16565b612d0490919063ffffffff16565b612cee90919063ffffffff16565b90506000611a6b85611a5d620186a0611a4f60085488612d0490919063ffffffff16565b612cee90919063ffffffff16565b612d0490919063ffffffff16565b9050611a808282612d1a90919063ffffffff16565b90506000611ac1600d60008d8152602001908152602001600020600a0160008c81526020019081526020016000206002015483612d1a90919063ffffffff16565b90506000611ae26001611ad48e8e610c11565b612d3090919063ffffffff16565b9050600160009054906101000a900473ffffffffffffffffffffffffffffffffffffffff1673ffffffffffffffffffffffffffffffffffffffff1663a9059cbb600d60008f8152602001908152602001600020600a0160008e81526020019081526020016000206001018381548110611b5e57611b5d613c84565b5b906000526020600020906002020160000160009054906101000a900473ffffffffffffffffffffffffffffffffffffffff16846040518363ffffffff1660e01b8152600401611bae929190613559565b602060405180830381600087803b158015611bc857600080fd5b505af1158015611bdc573d6000803e3d6000fd5b505050506040513d601f19601f82011682018060405250810190611c009190612ffe565b50611c2a83600d60008f815260200190815260200160002060030154612d3090919063ffffffff16565b600d60008e81526020019081526020016000206003018190555050505050505b600d6000888152602001908152602001600020600a01600087815260200190815260200160002060010160405180604001604052803373ffffffffffffffffffffffffffffffffffffffff16815260200143815250908060018154018082558091505060019003906000526020600020906002020160009091909190915060008201518160000160006101000a81548173ffffffffffffffffffffffffffffffffffffffff021916908373ffffffffffffffffffffffffffffffffffffffff1602179055506020820151816001015550506001600d6000898152602001908152602001600020600a01600088815260200190815260200160002060030160006101000a81548160ff02191690836002811115611d6957611d68613c55565b5b021790555089600d6000898152602001908152602001600020600a01600088815260200190815260200160002060020181905550505050505050505050505050565b600d6020528060005260406000206000915090508060000154908060010160009054906101000a900460ff1690806002015490806003015490806004015490806005015490806006015490806007015490806008015490806009015490508a565b600080611e198484610c11565b1415611e2757309050611eb4565b600d6000848152602001908152602001600020600a016000838152602001908152602001600020600101611e6e6001611e608686610c11565b612d3090919063ffffffff16565b81548110611e7f57611e7e613c84565b5b906000526020600020906002020160000160009054906101000a900473ffffffffffffffffffffffffffffffffffffffff1690505b92915050565b60008054906101000a900473ffffffffffffffffffffffffffffffffffffffff1681565b600560009054906101000a900473ffffffffffffffffffffffffffffffffffffffff1681565b6000600d6000838152602001908152602001600020600301549050919050565b600160009054906101000a900473ffffffffffffffffffffffffffffffffffffffff1681565b806000611f77620186a0611f6960085485612d0490919063ffffffff16565b612cee90919063ffffffff16565b9050600b54811015611fbe576040517f08c379a0000000000000000000000000000000000000000000000000000000008152600401611fb5906136bc565b60405180910390fd5b6000611fc98661084d565b90506000611fd78287612d5c565b90503373ffffffffffffffffffffffffffffffffffffffff16611ffa8383611e0c565b73ffffffffffffffffffffffffffffffffffffffff1614612050576040517f08c379a0000000000000000000000000000000000000000000000000000000008152600401612047906136dc565b60405180910390fd5b600061205b8861148b565b9050600061207a61206b4261106f565b42612d3090919063ffffffff16565b905060006120a760035461209984600c54612d0490919063ffffffff16565b612cee90919063ffffffff16565b905060006120e7826120d9620186a06120cb6008548e612d0490919063ffffffff16565b612cee90919063ffffffff16565b612d0490919063ffffffff16565b90506120fe600c5482612cee90919063ffffffff16565b9050600061212c620186a061211e6008548d612d0490919063ffffffff16565b612cee90919063ffffffff16565b90506121418582612d0490919063ffffffff16565b90506121568282612d1a90919063ffffffff16565b90506000600d6000898152602001908152602001600020600a0160008881526020019081526020016000206002015490506121d7600c546121c9866121bb620186a06121ad60085488612d0490919063ffffffff16565b612cee90919063ffffffff16565b612d0490919063ffffffff16565b612cee90919063ffffffff16565b92506000612205620186a06121f76008548f612d0490919063ffffffff16565b612cee90919063ffffffff16565b905061221a8782612d0490919063ffffffff16565b905061222f8482612d1a90919063ffffffff16565b9050808311156124585761224c8184612d3090919063ffffffff16565b600160009054906101000a900473ffffffffffffffffffffffffffffffffffffffff1673ffffffffffffffffffffffffffffffffffffffff1663dd62ed3e33306040518363ffffffff1660e01b81526004016122a9929190613582565b60206040518083038186803b1580156122c157600080fd5b505afa1580156122d5573d6000803e3d6000fd5b505050506040513d601f19601f820116820180604052508101906122f99190613058565b101561233a576040517f08c379a00000000000000000000000000000000000000000000000000000000081526004016123319061377c565b60405180910390fd5b600160009054906101000a900473ffffffffffffffffffffffffffffffffffffffff1673ffffffffffffffffffffffffffffffffffffffff166323b872dd333061238d8588612d3090919063ffffffff16565b6040518463ffffffff1660e01b81526004016123ab939291906135ab565b602060405180830381600087803b1580156123c557600080fd5b505af11580156123d9573d6000803e3d6000fd5b505050506040513d601f19601f820116820180604052508101906123fd9190612ffe565b506124396124148285612d3090919063ffffffff16565b600d60008c815260200190815260200160002060030154612d1a90919063ffffffff16565b600d60008b815260200190815260200160002060030181905550612579565b8083101561257857600160009054906101000a900473ffffffffffffffffffffffffffffffffffffffff1673ffffffffffffffffffffffffffffffffffffffff1663a9059cbb336124b28685612d3090919063ffffffff16565b6040518363ffffffff1660e01b81526004016124cf9291906135e2565b602060405180830381600087803b1580156124e957600080fd5b505af11580156124fd573d6000803e3d6000fd5b505050506040513d601f19601f820116820180604052508101906125219190612ffe565b5061255d6125388483612d3090919063ffffffff16565b600d60008c815260200190815260200160002060030154612d3090919063ffffffff16565b600d60008b8152602001908152602001600020600301819055505b5b8b600d60008b8152602001908152602001600020600a0160008a8152602001908152602001600020600201819055505050505050505050505050505050565b60035481565b6000600d6000848152602001908152602001600020600b0182815481106125e8576125e7613c84565b5b9060005260206000200154905092915050565b6001600381111561260f5761260e613c55565b5b600d600083815260200190815260200160002060010160009054906101000a900460ff16600381111561264557612644613c55565b5b14612685576040517f08c379a000000000000000000000000000000000000000000000000000000000815260040161267c9061367c565b60405180910390fd5b4261269b60035483612d1a90919063ffffffff16565b11156126dc576040517f08c379a00000000000000000000000000000000000000000000000000000000081526004016126d39061365c565b60405180910390fd5b6000600d60008381526020019081526020016000206004015411158061271957506000600d60008381526020019081526020016000206005015411155b1561275e576003600d600083815260200190815260200160002060010160006101000a81548160ff0219169083600381111561275857612757613c55565b5b02179055505b600d600082815260200190815260200160002060050154600d60008381526020019081526020016000206004015414156127d2576003600d600083815260200190815260200160002060010160006101000a81548160ff021916908360038111156127cc576127cb613c55565b5b02179055505b6002600d600083815260200190815260200160002060010160006101000a81548160ff0219169083600381111561280c5761280b613c55565b5b02179055506000612852600d600084815260200190815260200160002060040154600d600085815260200190815260200160002060050154612d3090919063ffffffff16565b90506000612895600d600085815260200190815260200160002060070154600d600086815260200190815260200160002060080154612d3090919063ffffffff16565b90506128cd6040518060200160405280847bffffffffffffffffffffffffffffffffffffffffffffffffffffffff1681525082612e4d565b600001517bffffffffffffffffffffffffffffffffffffffffffffffffffffffff16600d600085815260200190815260200160002060020181905550612938600c546070600d600087815260200190815260200160002060020154901c612d0490919063ffffffff16565b600d6000858152602001908152602001600020600201819055506129947406d79f82328ea3da61e066ebb2f88a0000000000006070600d600087815260200190815260200160002060020154901b612cee90919063ffffffff16565b600d60008581526020019081526020016000206002018190555060006129f0620186a06129e2600754600d600089815260200190815260200160002060030154612d0490919063ffffffff16565b612cee90919063ffffffff16565b90506000612a34620186a0612a26600954600d60008a815260200190815260200160002060030154612d0490919063ffffffff16565b612cee90919063ffffffff16565b9050612a7181612a6384600d60008a815260200190815260200160002060030154612d3090919063ffffffff16565b612d3090919063ffffffff16565b600d600087815260200190815260200160002060030181905550600160009054906101000a900473ffffffffffffffffffffffffffffffffffffffff1673ffffffffffffffffffffffffffffffffffffffff1663a9059cbb600260009054906101000a900473ffffffffffffffffffffffffffffffffffffffff16846040518363ffffffff1660e01b8152600401612b0a929190613559565b602060405180830381600087803b158015612b2457600080fd5b505af1158015612b38573d6000803e3d6000fd5b505050506040513d601f19601f82011682018060405250810190612b5c9190612ffe565b50600160009054906101000a900473ffffffffffffffffffffffffffffffffffffffff1673ffffffffffffffffffffffffffffffffffffffff1663a9059cbb60008054906101000a900473ffffffffffffffffffffffffffffffffffffffff1673ffffffffffffffffffffffffffffffffffffffff16638da5cb5b6040518163ffffffff1660e01b815260040160206040518083038186803b158015612c0157600080fd5b505afa158015612c15573d6000803e3d6000fd5b505050506040513d601f19601f82011682018060405250810190612c399190612fd1565b836040518363ffffffff1660e01b8152600401612c579291906135e2565b602060405180830381600087803b158015612c7157600080fd5b505af1158015612c85573d6000803e3d6000fd5b505050506040513d601f19601f82011682018060405250810190612ca99190612ffe565b507f163614e6e9ce9df7687928015fd2c748b69c5136db886e57f09170b251b58e8785604051612cd991906137fe565b60405180910390a15050505050565b600a5481565b60008183612cfc9190613986565b905092915050565b60008183612d1291906139b7565b905092915050565b60008183612d2891906138ff565b905092915050565b60008183612d3e9190613a11565b905092915050565b60008183612d549190613bc6565b905092915050565b600080612d6883610a08565b905060006002811115612d7e57612d7d613c55565b5b600d6000868152602001908152602001600020600a01600083815260200190815260200160002060030160009054906101000a900460ff166002811115612dc857612dc7613c55565b5b14612dd65780915050612e47565b80600d6000868152602001908152602001600020600a01600083815260200190815260200160002060000181905550600d6000858152602001908152602001600020600b01819080600181540180825580915050600190039060005260206000200160009091909190915055809150505b92915050565b612e55612f37565b6000826dffffffffffffffffffffffffffff161415612ea9576040517f08c379a0000000000000000000000000000000000000000000000000000000008152600401612ea09061379c565b60405180910390fd5b6040518060200160405280836dffffffffffffffffffffffffffff168560000151612ed49190613955565b7bffffffffffffffffffffffffffffffffffffffffffffffffffffffff16815250905092915050565b604051806080016040528060008152602001606081526020016000815260200160006002811115612f3157612f30613c55565b5b81525090565b604051806020016040528060007bffffffffffffffffffffffffffffffffffffffffffffffffffffffff1681525090565b600081359050612f7781613ef2565b92915050565b600081519050612f8c81613ef2565b92915050565b600081519050612fa181613f09565b92915050565b600081359050612fb681613f20565b92915050565b600081519050612fcb81613f20565b92915050565b600060208284031215612fe757612fe6613cb3565b5b6000612ff584828501612f7d565b91505092915050565b60006020828403121561301457613013613cb3565b5b600061302284828501612f92565b91505092915050565b60006020828403121561304157613040613cb3565b5b600061304f84828501612fa7565b91505092915050565b60006020828403121561306e5761306d613cb3565b5b600061307c84828501612fbc565b91505092915050565b6000806040838503121561309c5761309b613cb3565b5b60006130aa85828601612fa7565b92505060206130bb85828601612fa7565b9150509250929050565b6000806000606084860312156130de576130dd613cb3565b5b60006130ec86828701612fa7565b93505060206130fd86828701612fa7565b925050604061310e86828701612f68565b9150509250925092565b60008060006060848603121561313157613130613cb3565b5b600061313f86828701612fa7565b935050602061315086828701612fa7565b925050604061316186828701612fa7565b9150509250925092565b6000806000806080858703121561318557613184613cb3565b5b600061319387828801612fa7565b94505060206131a487828801612fa7565b93505060406131b587828801612fa7565b92505060606131c687828801612fa7565b91505092959194509250565b60006131de8383613473565b60408301905092915050565b6131f381613aed565b82525050565b61320281613a57565b82525050565b61321181613a57565b82525050565b61322081613a45565b82525050565b6000613231826138c5565b61323b81856138dd565b9350613246836138b5565b8060005b8381101561327757815161325e88826131d2565b9750613269836138d0565b92505060018101905061324a565b5085935050505092915050565b61328d81613aff565b82525050565b61329c81613b11565b82525050565b6132ab81613b23565b82525050565b6132ba81613b35565b82525050565b6132c981613b47565b82525050565b60006132dc601a836138ee565b91506132e782613cb8565b602082019050919050565b60006132ff6010836138ee565b915061330a82613ce1565b602082019050919050565b6000613322601a836138ee565b915061332d82613d0a565b602082019050919050565b60006133456010836138ee565b915061335082613d33565b602082019050919050565b6000613368601d836138ee565b915061337382613d5c565b602082019050919050565b600061338b602c836138ee565b915061339682613d85565b604082019050919050565b60006133ae6010836138ee565b91506133b982613dd4565b602082019050919050565b60006133d16016836138ee565b91506133dc82613dfd565b602082019050919050565b60006133f4601f836138ee565b91506133ff82613e26565b602082019050919050565b6000613417601c836138ee565b915061342282613e4f565b602082019050919050565b600061343a6017836138ee565b915061344582613e78565b602082019050919050565b600061345d6014836138ee565b915061346882613ea1565b602082019050919050565b60408201600082015161348960008501826131f9565b50602082015161349c6020850182613505565b50505050565b60006080830160008301516134ba6000860182613505565b50602083015184820360208601526134d28282613226565b91505060408301516134e76040860182613505565b5060608301516134fa60608601826132c0565b508091505092915050565b61350e81613ae3565b82525050565b61351d81613ae3565b82525050565b60006020820190506135386000830184613217565b92915050565b60006020820190506135536000830184613208565b92915050565b600060408201905061356e60008301856131ea565b61357b6020830184613514565b9392505050565b60006040820190506135976000830185613217565b6135a46020830184613217565b9392505050565b60006060820190506135c06000830186613217565b6135cd6020830185613217565b6135da6040830184613514565b949350505050565b60006040820190506135f76000830185613217565b6136046020830184613514565b9392505050565b60006020820190506136206000830184613284565b92915050565b600060208201905061363b6000830184613293565b92915050565b600060208201905061365660008301846132a2565b92915050565b60006020820190508181036000830152613675816132cf565b9050919050565b60006020820190508181036000830152613695816132f2565b9050919050565b600060208201905081810360008301526136b581613315565b9050919050565b600060208201905081810360008301526136d581613338565b9050919050565b600060208201905081810360008301526136f58161335b565b9050919050565b600060208201905081810360008301526137158161337e565b9050919050565b60006020820190508181036000830152613735816133a1565b9050919050565b60006020820190508181036000830152613755816133c4565b9050919050565b60006020820190508181036000830152613775816133e7565b9050919050565b600060208201905081810360008301526137958161340a565b9050919050565b600060208201905081810360008301526137b58161342d565b9050919050565b600060208201905081810360008301526137d581613450565b9050919050565b600060208201905081810360008301526137f681846134a2565b905092915050565b60006020820190506138136000830184613514565b92915050565b60006101408201905061382f600083018d613514565b61383c602083018c6132b1565b613849604083018b613514565b613856606083018a613514565b6138636080830189613514565b61387060a0830188613514565b61387d60c0830187613514565b61388a60e0830186613514565b613898610100830185613514565b6138a6610120830184613514565b9b9a5050505050505050505050565b6000819050602082019050919050565b600081519050919050565b6000602082019050919050565b600082825260208201905092915050565b600082825260208201905092915050565b600061390a82613ae3565b915061391583613ae3565b9250827fffffffffffffffffffffffffffffffffffffffffffffffffffffffffffffffff0382111561394a57613949613bf7565b5b828201905092915050565b600061396082613abb565b915061396b83613abb565b92508261397b5761397a613c26565b5b828204905092915050565b600061399182613ae3565b915061399c83613ae3565b9250826139ac576139ab613c26565b5b828204905092915050565b60006139c282613ae3565b91506139cd83613ae3565b9250817fffffffffffffffffffffffffffffffffffffffffffffffffffffffffffffffff0483118215151615613a0657613a05613bf7565b5b828202905092915050565b6000613a1c82613ae3565b9150613a2783613ae3565b925082821015613a3a57613a39613bf7565b5b828203905092915050565b6000613a5082613a9b565b9050919050565b6000613a6282613a9b565b9050919050565b60008115159050919050565b6000819050613a8382613eca565b919050565b6000819050613a9682613ede565b919050565b600073ffffffffffffffffffffffffffffffffffffffff82169050919050565b60007bffffffffffffffffffffffffffffffffffffffffffffffffffffffff82169050919050565b6000819050919050565b6000613af882613b59565b9050919050565b6000613b0a82613b59565b9050919050565b6000613b1c82613b59565b9050919050565b6000613b2e82613b59565b9050919050565b6000613b4082613a75565b9050919050565b6000613b5282613a88565b9050919050565b6000613b6482613b6b565b9050919050565b6000613b7682613a9b565b9050919050565b6000613b8882613ae3565b91507fffffffffffffffffffffffffffffffffffffffffffffffffffffffffffffffff821415613bbb57613bba613bf7565b5b600182019050919050565b6000613bd182613ae3565b9150613bdc83613ae3565b925082613bec57613beb613c26565b5b828206905092915050565b7f4e487b7100000000000000000000000000000000000000000000000000000000600052601160045260246000fd5b7f4e487b7100000000000000000000000000000000000000000000000000000000600052601260045260246000fd5b7f4e487b7100000000000000000000000000000000000000000000000000000000600052602160045260246000fd5b7f4e487b7100000000000000000000000000000000000000000000000000000000600052603260045260246000fd5b600080fd5b7f4652414d4520454e442054494d45204e4f542052454143484544000000000000600082015250565b7f4652414d45204e4f54204f50454e454400000000000000000000000000000000600082015250565b7f43414e275420435245415445204652414d4520494e2050415354000000000000600082015250565b7f505249434520495320544f4f204c4f5700000000000000000000000000000000600082015250565b7f544849532041444452455353204953204e4f5420544845204f574e4552000000600082015250565b7f54494d455354414d50204245464f524520494e495449414c2054494d4553544160008201527f4d50204f46204d41524b45540000000000000000000000000000000000000000602082015250565b7f4652414d45204e4f5420434c4f53454400000000000000000000000000000000600082015250565b7f50415243454c20414c524541445920534554544c454400000000000000000000600082015250565b7f4144445245535320414c5245414459204f574e53205448452050415243454c00600082015250565b7f415050524f56454420414d4f554e5420495320544f4f20534d414c4c00000000600082015250565b7f4669786564506f696e743a204449565f42595f5a45524f000000000000000000600082015250565b7f4f574e455220444f4553204e4f54204558495354000000000000000000000000600082015250565b60048110613edb57613eda613c55565b5b50565b60038110613eef57613eee613c55565b5b50565b613efb81613a45565b8114613f0657600080fd5b50565b613f1281613a69565b8114613f1d57600080fd5b50565b613f2981613ae3565b8114613f3457600080fd5b5056fea26469706673582212202222dc528f41f982bcfeb74a2e66e53ff9188862355bfd4129c313bab9384f0064736f6c63430008070033",
  "immutableReferences": {},
  "source": "// SPDX-License-Identifier: MIT\r\npragma solidity ^0.8.0;\r\n//pragma experimental ABIEncoderV2;\r\n\r\nimport \"./MarketFactory.sol\";\r\nimport \"@uniswap/v2-core/contracts/interfaces/IUniswapV2Pair.sol\";\r\nimport \"@uniswap/v2-periphery/contracts/libraries/UniswapV2OracleLibrary.sol\";\r\nimport \"@uniswap/lib/contracts/libraries/FixedPoint.sol\";\r\nimport \"@openzeppelin/contracts/token/ERC20/IERC20.sol\";\r\nimport \"@openzeppelin/contracts/utils/math/SafeMath.sol\";\r\n\r\n/// @title TWPM Market\r\n/// @author UniHedge\r\n/// @dev All function calls are currently implemented without side effects\r\ncontract Market {\r\n\r\n    using SafeMath for uint;\r\n    //Contract for creating markets\r\n    MarketFactory public factory;\r\n    //ERC20 token used for buyng parcels in this contract \r\n    IERC20 public accountingToken;\r\n    //Owner of this market\r\n    address payable public ownerMarket;\r\n    //Length of a frame\r\n    uint public period;\r\n    //Contract creation time\r\n    uint public initTimestamp; \r\n    //Token pair on Uniswap\r\n    IUniswapV2Pair public uniswapPair;\r\n    //Range of a parcel\r\n    uint public dPrice;\r\n    //Fee that gets to market owner\r\n    uint public feeMarket;\r\n    //Tax on parcels\r\n    uint public taxMarket;\r\n    //Protocol fee\r\n    uint public feeProtocol = 100;\r\n    //Reporting time for pair price\r\n    uint public tReporting;\r\n    //Minimal parcel tax per frame\r\n    uint public minTax;\r\n    //Scalar number used for calculating precentages\r\n    uint scalar = 1e24;\r\n\r\n    enum SFrame {NULL, OPENED, CLOSED, INVALID}\r\n    struct Frame {\r\n        uint frameKey;\r\n        SFrame state;\r\n        uint priceAverage;\r\n        uint rewardFund;\r\n        uint oraclePrice0CumulativeStart;\r\n        uint oraclePrice0CumulativeEnd;\r\n        uint price0CumulativeEnd;\r\n        uint oracleTimestampStart;\r\n        uint oracleTimestampEnd;\r\n        uint lastBlockNum;\r\n        mapping(uint => Parcel) parcels;\r\n        uint[] parcelKeys;\r\n    }\r\n\r\n    event FrameUpdate(uint frameKey);\r\n\r\n    mapping(uint => Frame) public frames;\r\n    uint[] public framesKeys;\r\n\r\n    struct ParcelOwner {\r\n        address payable owner;\r\n        uint blockNum;\r\n    }\r\n\r\n    enum SParcel {NULL, BOUGHT, SETTLED}\r\n    struct Parcel {\r\n        uint parcelKey;\r\n        ParcelOwner[] parcelOwners;\r\n        uint acquisitionPrice;\r\n        SParcel state;\r\n    }\r\n\r\n    event ParcelUpdate(uint frameKey, uint parcelKey);\r\n\r\n    constructor(MarketFactory _factory, IERC20 _token, IUniswapV2Pair _uniswapPair, uint _period, uint _initTimestamp, uint _taxMarket, uint _feeMarket, uint _dPrice, uint _tReporting, uint _minTax) {\r\n        accountingToken = _token;\r\n        ownerMarket = payable(msg.sender);\r\n        period = _period;\r\n        initTimestamp = _initTimestamp; \r\n        taxMarket = _taxMarket;\r\n        feeMarket = _feeMarket;\r\n        uniswapPair = _uniswapPair;\r\n        dPrice = _dPrice;\r\n        factory = _factory;\r\n        tReporting = _tReporting;\r\n        minTax = _minTax;\r\n    }\r\n\r\n    modifier minTaxCheck(uint acqPrice) {\r\n        uint tax = acqPrice.mul(taxMarket).div(100000);\r\n        require(tax >= minTax, \"PRICE IS TOO LOW\");\r\n        _;\r\n    }\r\n\r\n    /// @notice Create a frame\r\n    /// @param timestamp In second.\r\n    /// @return frameTimestamp Frame's key (timestamp that indicated the beggining of a frame).\r\n    function getOrCreateFrame(uint timestamp) public returns (uint){\r\n        require(timestamp >= initTimestamp, \"TIMESTAMP BEFORE INITIAL TIMESTAMP OF MARKET\");\r\n        //Get start timestamp of a frame\r\n        uint frameTimestamp = clcFrameTimestamp(timestamp);\r\n        //Check if frame exists\r\n        if (frames[frameTimestamp].state != SFrame.NULL) return frameTimestamp;\r\n        //Check if frame startParcel number is before current Parcel number\r\n        require(frameTimestamp >= clcFrameTimestamp(block.timestamp), \"CAN'T CREATE FRAME IN PAST\");\r\n        //Add frame\r\n        frames[frameTimestamp].frameKey = frameTimestamp;\r\n        frames[frameTimestamp].state = SFrame.OPENED; //check if other parameters are at zero\r\n        framesKeys.push(frameTimestamp);\r\n        emit FrameUpdate(frameTimestamp);\r\n        return frameTimestamp;\r\n    }\r\n\r\n    /// @notice Calculate frames timestamp (beggining of frame)\r\n    /// @param timestamp In seconds\r\n    /// @return frame's timestamp (key)\r\n    function clcFrameTimestamp(uint timestamp) public view returns (uint){\r\n        if (timestamp <= initTimestamp) return initTimestamp;\r\n        return timestamp.sub((timestamp.sub(initTimestamp)).mod(period));\r\n    }\r\n\r\n    /// @notice Calculate bottom boundary of a parcel\r\n    /// @param value Arbitary price of market's Uniswap pair\r\n    /// @return parcel key (bottom boundary)\r\n    function clcParcelInterval(uint value) public view returns (uint){\r\n        if (value <= 0) return dPrice;\r\n        return value.div(dPrice).mul(dPrice).add(dPrice);\r\n    }\r\n\r\n    /// @notice Calculate how many frames there are left untill given frame in input\r\n    /// @param frameKey Timestamp of an arbitary frame in the future\r\n    /// @return number of frames (whole numbers: n=0,1,2...)\r\n    function clcFramesLeft(uint frameKey) public view returns (uint){                      \r\n        return (frameKey.sub(block.timestamp)).div(period).add(1);\r\n    }\r\n\r\n    /// @notice Get parcel struct\r\n    /// @param frameKey Frame's timestamp\r\n    /// @param parcelKey parcel's key \r\n    /// @return parcel struct\r\n    function getParcel(uint frameKey, uint parcelKey) public view returns (Parcel memory){                 \r\n        return frames[frameKey].parcels[parcelKey];\r\n    }\r\n\r\n    /// @notice Get no. of created parcels in a frame \r\n    /// @param frameKey Frame's timestamp\r\n    /// @return parcel count\r\n    function getParcelsCount(uint frameKey) public view returns (uint){                 \r\n        return frames[frameKey].parcelKeys.length;\r\n    }\r\n\r\n    /// @notice Get parcelKey from index in parcelKeys array\r\n    /// @param frameKey Frame's timestamp\r\n    /// @param index frameKeys array index \r\n    /// @return parcelKey\r\n    function getParcelKey(uint frameKey, uint index) public view returns (uint){                 \r\n        return frames[frameKey].parcelKeys[index];\r\n    }\r\n\r\n    /// @notice Get parcel's owner\r\n    /// @param frameKey Frame's timestamp\r\n    /// @param parcelKey Parcel's key \r\n    /// @return parcel's owner\r\n    function getParcelOwner(uint frameKey, uint parcelKey) public view returns (address){ \r\n        if (getNumberOfParcelOwners(frameKey, parcelKey) == 0) return address(this);\r\n        return frames[frameKey].parcels[parcelKey].parcelOwners[getNumberOfParcelOwners(frameKey, parcelKey).sub(1)].owner;\r\n    }\r\n\r\n    /// @notice Get frame's award amount (accumulation of different parcel taxes)\r\n    /// @notice Remaining tax of a parcel owner get's returned after a sale (change of ownership). So the award amount isn't for sure untill the frame get's closed.\r\n    /// @param frameKey Frame's timestamp\r\n    /// @return award amount\r\n    function getRewardAmount(uint frameKey) public view returns (uint) {                         \r\n        return frames[frameKey].rewardFund; \r\n    }\r\n\r\n    /// @notice Get number of accounts that owned a specific parcel\r\n    /// @param frameKey Frame's timestamp\r\n    /// @param parcelKey Parcel's key \r\n    /// @return number of owners\r\n    function getNumberOfParcelOwners(uint frameKey, uint parcelKey) public view returns (uint){\r\n        return frames[frameKey].parcels[parcelKey].parcelOwners.length;\r\n    }\r\n\r\n    /// @notice Get number of frames\r\n    /// @return number frames\r\n    function getNumberOfFrameKeys() public view returns (uint){\r\n        return framesKeys.length ;\r\n    }\r\n\r\n    /// @notice Calculate parcel owner's index in the array of owners of the parcel\r\n    /// @param frameKey Frame's timestamp\r\n    /// @param parcelKey Parcel's key \r\n    /// @param owner Owners account address\r\n    /// @return i owner's index\r\n    function getParcelOwnerIndex(uint frameKey, uint parcelKey, address owner) public view returns (uint i) {   \r\n        for (i=0; i< getNumberOfParcelOwners(frameKey, parcelKey); i++) {\r\n            if (frames[frameKey].parcels[parcelKey].parcelOwners[i].owner == owner) return i;\r\n        }\r\n        revert(\"OWNER DOES NOT EXIST\");\r\n    }\r\n\r\n    /// @notice Create a parcel\r\n    /// @param frameKey Frame's timestamp\r\n    /// @param pairPrice Price is the trading pair's price\r\n    /// @return parcelKey\r\n    function getOrCreateParcel(uint frameKey, uint pairPrice) internal returns(uint){\r\n        uint parcelKey = clcParcelInterval(pairPrice);\r\n        if (frames[frameKey].parcels[parcelKey].state != SParcel.NULL) return parcelKey;\r\n        frames[frameKey].parcels[parcelKey].parcelKey = parcelKey;\r\n        frames[frameKey].parcelKeys.push(parcelKey);\r\n        return parcelKey;\r\n    }\r\n\r\n    /// @notice Calculate amout required to approve to buy a parcel\r\n    /// @param frameKey Frame's timestamp\r\n    /// @param pairPrice Value is trading pair's price (to get correct parcel key) \r\n    /// @param acquisitionPrice New sell price is required to calculate tax\r\n    /// @return amoun to approve\r\n    function AmountToApprove(uint frameKey, uint pairPrice, uint acquisitionPrice, uint timestamp) public view returns (uint) {             \r\n        uint parcelKey = clcParcelInterval(pairPrice);\r\n        uint dFrame = timestamp.sub(clcFrameTimestamp(timestamp));\r\n        uint dFrameP = scalar.mul(dFrame).div(period);\r\n        //Calculate tax from the propoed new price (acquisitionPrice)\r\n        uint numOfFramesLeft = clcFramesLeft(frameKey);\r\n        uint tax = acquisitionPrice.mul(taxMarket).div(100000).mul(numOfFramesLeft);\r\n        uint dtax = acquisitionPrice.mul(taxMarket).div(100000);\r\n        dtax = dtax.mul(dFrameP).div(scalar);\r\n        tax = tax.add(dtax);\r\n        uint amount = frames[frameKey].parcels[parcelKey].acquisitionPrice.add(tax);\r\n        return amount;\r\n    }\r\n\r\n    /// @notice Calculate amout required to approve to buy a parcel\r\n    /// @param timestamp Frame's timestamp get's calculated from this value\r\n    /// @param pairPrice Is trading pair's price (to get correct parcel key) \r\n    /// @param acquisitionPrice New sell price is required to calculate tax\r\n    function buyParcel(uint timestamp, uint pairPrice, uint acquisitionPrice) public payable minTaxCheck(acquisitionPrice) {\r\n        uint frameKey =  getOrCreateFrame(timestamp);                          \r\n        uint parcelKey = getOrCreateParcel(frameKey, pairPrice);\r\n        require(msg.sender != getParcelOwner(frameKey, parcelKey), \"ADDRESS ALREADY OWNS THE PARCEL\");\r\n        uint dFrame = block.timestamp.sub(clcFrameTimestamp(block.timestamp));\r\n        uint dFrameP = scalar.mul(dFrame).div(period);\r\n        uint dtax = acquisitionPrice.mul(taxMarket).div(100000).mul(dFrameP).div(scalar);\r\n        //Calculate tax from the proposed new price (acquisitionPrice)\r\n        uint numOfFramesLeft = clcFramesLeft(timestamp);\r\n        uint tax = acquisitionPrice.mul(taxMarket).div(100000).mul(numOfFramesLeft);\r\n        tax = tax.add(dtax);\r\n        //Approved amount has to be at leat equal to price of the Parcel(with tax)\r\n        require(accountingToken.allowance(msg.sender, address(this)) >= frames[frameKey].parcels[parcelKey].acquisitionPrice.add(tax), \"APPROVED AMOUNT IS TOO SMALL\");\r\n        //Transfer complete tax amount to the frame rewardFund\r\n        accountingToken.transferFrom(msg.sender, address(this), frames[frameKey].parcels[parcelKey].acquisitionPrice.add(tax));\r\n        frames[frameKey].rewardFund = frames[frameKey].rewardFund.add(tax);\r\n\r\n        //Pay the Parcel price to current owner + return tax\r\n        if (frames[frameKey].parcels[parcelKey].state == SParcel.BOUGHT) {\r\n            //Calculate tax to return. acquisitionPrice/marketTax * number_of_frames_left:\r\n            uint aPrice = frames[frameKey].parcels[parcelKey].acquisitionPrice;\r\n            uint dFrameTax = aPrice.mul(taxMarket).div(100000).mul(dFrameP).div(scalar);\r\n            uint taxToReturn = aPrice.mul(taxMarket).div(100000).mul(numOfFramesLeft);\r\n            taxToReturn = taxToReturn.add(dFrameTax);\r\n            //add acquisition price valut to left over tax\r\n            uint amount = (taxToReturn.add(frames[frameKey].parcels[parcelKey].acquisitionPrice));\r\n            //transfer funds\r\n            uint previousOwner = getNumberOfParcelOwners(frameKey, parcelKey).sub(1);\r\n            accountingToken.transfer(frames[frameKey].parcels[parcelKey].parcelOwners[previousOwner].owner, amount);\r\n            //change reward value\r\n            frames[frameKey].rewardFund = frames[frameKey].rewardFund.sub(taxToReturn);\r\n        }\r\n       \r\n        frames[frameKey].parcels[parcelKey].parcelOwners.push(ParcelOwner(payable(msg.sender), block.number));\r\n        frames[frameKey].parcels[parcelKey].state = SParcel.BOUGHT;\r\n        frames[frameKey].parcels[parcelKey].acquisitionPrice = acquisitionPrice;\r\n    }\r\n\r\n    /// @notice Owner can update parcel's price. Has to pay additional tax, or leftover tax gets' returned to him if the new price is lower\r\n    /// @param timestamp Frame's timestamp get's calculated from this value\r\n    /// @param pairPrice Is trading pair's price (to get correct parcel key) \r\n    /// @param acquisitionPrice New acquisition price\r\n    function updateParcelPrice(uint timestamp, uint pairPrice, uint acquisitionPrice) public payable minTaxCheck(acquisitionPrice) {\r\n        uint frameKey =  getOrCreateFrame(timestamp); \r\n        uint parcelKey = getOrCreateParcel(frameKey, pairPrice); \r\n        \r\n        require(getParcelOwner(frameKey, parcelKey) == msg.sender, \"THIS ADDRESS IS NOT THE OWNER\");\r\n                      \r\n        uint numOfFramesLeft = clcFramesLeft(timestamp);\r\n\r\n        uint dFrame = block.timestamp.sub(clcFrameTimestamp(block.timestamp));\r\n        uint dFrameP = scalar.mul(dFrame).div(period);\r\n        uint dtax = acquisitionPrice.mul(taxMarket).div(100000).mul(dFrameP);\r\n        dtax = dtax.div(scalar);\r\n\r\n        uint taxNew = acquisitionPrice.mul(taxMarket).div(100000);\r\n        taxNew = taxNew.mul(numOfFramesLeft);\r\n        taxNew = taxNew.add(dtax);\r\n\r\n        uint oldPrice = frames[frameKey].parcels[parcelKey].acquisitionPrice;\r\n        dtax = oldPrice.mul(taxMarket).div(100000).mul(dFrameP).div(scalar);\r\n        uint taxOld = acquisitionPrice.mul(taxMarket).div(100000);\r\n        taxOld = taxOld.mul(numOfFramesLeft);\r\n        taxOld = taxOld.add(dtax);\r\n\r\n        if (taxNew > taxOld) {\r\n            require(accountingToken.allowance(msg.sender, address(this)) >= (taxNew.sub(taxOld)), \"APPROVED AMOUNT IS TOO SMALL\");\r\n            //Transfer complete tax amount to the frame rewardFund\r\n            accountingToken.transferFrom(msg.sender, address(this), (taxNew.sub(taxOld)));\r\n            frames[frameKey].rewardFund = frames[frameKey].rewardFund.add(taxNew.sub(taxOld));\r\n        }\r\n        else if (taxNew < taxOld) {\r\n            accountingToken.transfer(msg.sender, taxOld.sub(taxNew));\r\n            frames[frameKey].rewardFund = frames[frameKey].rewardFund.sub(taxOld.sub(taxNew));\r\n        }\r\n        frames[frameKey].parcels[parcelKey].acquisitionPrice = acquisitionPrice;\r\n    }\r\n\r\n    /// @notice Update trading pair's prices in the frame\r\n    /// @param PriceCumulative Cumulative price\r\n    /// @dev For developement purposes the new price is added as an input\r\n    /// @dev Final version should use uniswap's oracles\r\n    function updateFramePrices(uint PriceCumulative) public {\r\n        uint frameKey = clcFrameTimestamp(block.timestamp);\r\n        frames[frameKey].lastBlockNum = block.number;\r\n        //Correct price if outside settle interval\r\n        if (block.timestamp >= ((frameKey.add(period)).sub(tReporting)) && frames[frameKey].oraclePrice0CumulativeStart == 0) {\r\n            frames[frameKey].oraclePrice0CumulativeStart = PriceCumulative;\r\n            frames[frameKey].oracleTimestampStart = block.timestamp;\r\n            emit FrameUpdate(frameKey);\r\n        }\r\n        else if (block.timestamp <= frameKey.add(period) && block.timestamp >= ((frameKey.add(period)).sub(tReporting))) {\r\n            frames[frameKey].oraclePrice0CumulativeEnd = PriceCumulative;\r\n            frames[frameKey].oracleTimestampEnd = block.timestamp;\r\n            emit FrameUpdate(frameKey);\r\n        }\r\n    }\r\n\r\n    /// @notice Close frame\r\n    /// @param frameKey Frame's timestamp\r\n    function closeFrame(uint frameKey) public {\r\n        //Check if frame is opened\r\n        require(frames[frameKey].state == SFrame.OPENED, \"FRAME NOT OPENED\");\r\n        //Check if frame timing is correct\r\n        require(frameKey.add(period) <= block.timestamp, \"FRAME END TIME NOT REACHED\");\r\n        //Check if frame has valid prices\r\n        if (frames[frameKey].oraclePrice0CumulativeStart <= 0 || frames[frameKey].oraclePrice0CumulativeEnd <= 0) {\r\n            frames[frameKey].state = SFrame.INVALID;\r\n        }\r\n        if (frames[frameKey].oraclePrice0CumulativeStart == frames[frameKey].oraclePrice0CumulativeEnd) {\r\n            frames[frameKey].state = SFrame.INVALID;\r\n        }\r\n        frames[frameKey].state = SFrame.CLOSED;\r\n\r\n        //UQ112x112 encoded\r\n        uint priceDiff = frames[frameKey].oraclePrice0CumulativeEnd.sub(frames[frameKey].oraclePrice0CumulativeStart);\r\n        uint timeDiff = frames[frameKey].oracleTimestampEnd.sub(frames[frameKey].oracleTimestampStart);\r\n        //Calculate time-weighted average price -- UQ112x112 encoded\r\n        frames[frameKey].priceAverage = uint(((FixedPoint.div(FixedPoint.uq112x112(uint224(priceDiff)), (uint112(timeDiff)))))._x);\r\n\r\n        //Decode to scalar value\r\n        frames[frameKey].priceAverage = (frames[frameKey].priceAverage >> 112).mul(scalar); \r\n        frames[frameKey].priceAverage = (frames[frameKey].priceAverage << 112).div(1e49);\r\n\r\n        //Subtract fees from the reward amount and send them to Owners of the market and protocol\r\n        uint marketOwnerFees = frames[frameKey].rewardFund.mul(feeMarket).div(100000);\r\n        uint protocolOwnerFees = frames[frameKey].rewardFund.mul(feeProtocol).div(100000);\r\n\r\n        frames[frameKey].rewardFund = frames[frameKey].rewardFund.sub(marketOwnerFees).sub(protocolOwnerFees);\r\n        accountingToken.transfer(ownerMarket, marketOwnerFees);\r\n        accountingToken.transfer(factory.owner(), protocolOwnerFees);\r\n\r\n        emit FrameUpdate(frameKey);\r\n    }\r\n\r\n    /// @notice Settle parcel for a owner. Owner's share of the reward amount get's transfered to owner's account\r\n    /// @param frameKey Frame's timestamp\r\n    function settleParcel(uint frameKey) public {  \r\n        //Check if frame is closed\r\n        require(frames[frameKey].state == SFrame.CLOSED, \"FRAME NOT CLOSED\");    \r\n        //Get winning parcel key\r\n        uint parcelKeyWin = (clcParcelInterval(frames[frameKey].priceAverage));\r\n        Parcel memory parcel = frames[frameKey].parcels[parcelKeyWin];\r\n        require(parcel.state != SParcel.SETTLED, \"PARCEL ALREADY SETTLED\");\r\n        //Get last owners index in the parcel owner array\r\n        uint ownerIndex = getNumberOfParcelOwners(frameKey, parcelKeyWin);\r\n        //Transfer winnings to last owner \r\n        accountingToken.transfer(parcel.parcelOwners[ownerIndex.sub(1)].owner, frames[frameKey].rewardFund);\r\n        frames[frameKey].parcels[parcelKeyWin].state = SParcel.SETTLED;\r\n    }\r\n\r\n}",
  "sourcePath": "D:/prog/UniHedge/core/contracts/Market.sol",
  "compiler": {
    "name": "solc",
    "version": "0.8.7+commit.e28d00a7.Emscripten.clang"
  },
  "schemaVersion": "3.4.1",
  "updatedAt": "2021-08-22T17:22:19.461Z",
  "devdoc": {
    "author": "UniHedge",
    "details": "All function calls are currently implemented without side effects",
    "kind": "dev",
    "methods": {
      "AmountToApprove(uint256,uint256,uint256,uint256)": {
        "params": {
          "acquisitionPrice": "New sell price is required to calculate tax",
          "frameKey": "Frame's timestamp",
          "pairPrice": "Value is trading pair's price (to get correct parcel key) "
        },
        "returns": {
          "_0": "amoun to approve"
        }
      },
      "buyParcel(uint256,uint256,uint256)": {
        "params": {
          "acquisitionPrice": "New sell price is required to calculate tax",
          "pairPrice": "Is trading pair's price (to get correct parcel key) ",
          "timestamp": "Frame's timestamp get's calculated from this value"
        }
      },
      "clcFrameTimestamp(uint256)": {
        "params": {
          "timestamp": "In seconds"
        },
        "returns": {
          "_0": "frame's timestamp (key)"
        }
      },
      "clcFramesLeft(uint256)": {
        "params": {
          "frameKey": "Timestamp of an arbitary frame in the future"
        },
        "returns": {
          "_0": "number of frames (whole numbers: n=0,1,2...)"
        }
      },
      "clcParcelInterval(uint256)": {
        "params": {
          "value": "Arbitary price of market's Uniswap pair"
        },
        "returns": {
          "_0": "parcel key (bottom boundary)"
        }
      },
      "closeFrame(uint256)": {
        "params": {
          "frameKey": "Frame's timestamp"
        }
      },
      "getNumberOfFrameKeys()": {
        "returns": {
          "_0": "number frames"
        }
      },
      "getNumberOfParcelOwners(uint256,uint256)": {
        "params": {
          "frameKey": "Frame's timestamp",
          "parcelKey": "Parcel's key "
        },
        "returns": {
          "_0": "number of owners"
        }
      },
      "getOrCreateFrame(uint256)": {
        "params": {
          "timestamp": "In second."
        },
        "returns": {
          "_0": "frameTimestamp Frame's key (timestamp that indicated the beggining of a frame)."
        }
      },
      "getParcel(uint256,uint256)": {
        "params": {
          "frameKey": "Frame's timestamp",
          "parcelKey": "parcel's key "
        },
        "returns": {
          "_0": "parcel struct"
        }
      },
      "getParcelKey(uint256,uint256)": {
        "params": {
          "frameKey": "Frame's timestamp",
          "index": "frameKeys array index "
        },
        "returns": {
          "_0": "parcelKey"
        }
      },
      "getParcelOwner(uint256,uint256)": {
        "params": {
          "frameKey": "Frame's timestamp",
          "parcelKey": "Parcel's key "
        },
        "returns": {
          "_0": "parcel's owner"
        }
      },
      "getParcelOwnerIndex(uint256,uint256,address)": {
        "params": {
          "frameKey": "Frame's timestamp",
          "owner": "Owners account address",
          "parcelKey": "Parcel's key "
        },
        "returns": {
          "i": "owner's index"
        }
      },
      "getParcelsCount(uint256)": {
        "params": {
          "frameKey": "Frame's timestamp"
        },
        "returns": {
          "_0": "parcel count"
        }
      },
      "getRewardAmount(uint256)": {
        "params": {
          "frameKey": "Frame's timestamp"
        },
        "returns": {
          "_0": "award amount"
        }
      },
      "settleParcel(uint256)": {
        "params": {
          "frameKey": "Frame's timestamp"
        }
      },
      "updateFramePrices(uint256)": {
        "details": "For developement purposes the new price is added as an inputFinal version should use uniswap's oracles",
        "params": {
          "PriceCumulative": "Cumulative price"
        }
      },
      "updateParcelPrice(uint256,uint256,uint256)": {
        "params": {
          "acquisitionPrice": "New acquisition price",
          "pairPrice": "Is trading pair's price (to get correct parcel key) ",
          "timestamp": "Frame's timestamp get's calculated from this value"
        }
      }
    },
    "title": "TWPM Market",
    "version": 1
  },
  "userdoc": {
    "kind": "user",
    "methods": {
      "AmountToApprove(uint256,uint256,uint256,uint256)": {
        "notice": "Calculate amout required to approve to buy a parcel"
      },
      "buyParcel(uint256,uint256,uint256)": {
        "notice": "Calculate amout required to approve to buy a parcel"
      },
      "clcFrameTimestamp(uint256)": {
        "notice": "Calculate frames timestamp (beggining of frame)"
      },
      "clcFramesLeft(uint256)": {
        "notice": "Calculate how many frames there are left untill given frame in input"
      },
      "clcParcelInterval(uint256)": {
        "notice": "Calculate bottom boundary of a parcel"
      },
      "closeFrame(uint256)": {
        "notice": "Close frame"
      },
      "getNumberOfFrameKeys()": {
        "notice": "Get number of frames"
      },
      "getNumberOfParcelOwners(uint256,uint256)": {
        "notice": "Get number of accounts that owned a specific parcel"
      },
      "getOrCreateFrame(uint256)": {
        "notice": "Create a frame"
      },
      "getParcel(uint256,uint256)": {
        "notice": "Get parcel struct"
      },
      "getParcelKey(uint256,uint256)": {
        "notice": "Get parcelKey from index in parcelKeys array"
      },
      "getParcelOwner(uint256,uint256)": {
        "notice": "Get parcel's owner"
      },
      "getParcelOwnerIndex(uint256,uint256,address)": {
        "notice": "Calculate parcel owner's index in the array of owners of the parcel"
      },
      "getParcelsCount(uint256)": {
        "notice": "Get no. of created parcels in a frame "
      },
      "getRewardAmount(uint256)": {
        "notice": "Get frame's award amount (accumulation of different parcel taxes)Remaining tax of a parcel owner get's returned after a sale (change of ownership). So the award amount isn't for sure untill the frame get's closed."
      },
      "settleParcel(uint256)": {
        "notice": "Settle parcel for a owner. Owner's share of the reward amount get's transfered to owner's account"
      },
      "updateFramePrices(uint256)": {
        "notice": "Update trading pair's prices in the frame"
      },
      "updateParcelPrice(uint256,uint256,uint256)": {
        "notice": "Owner can update parcel's price. Has to pay additional tax, or leftover tax gets' returned to him if the new price is lower"
      }
    },
    "version": 1
  }
}