{
  "contractName": "MarketFactory",
  "abi": [
    {
      "inputs": [
        {
          "internalType": "address",
          "name": "_uniswapFactory",
          "type": "address"
        }
      ],
      "stateMutability": "nonpayable",
      "type": "constructor"
    },
    {
      "inputs": [
        {
          "internalType": "address",
          "name": "",
          "type": "address"
        }
      ],
      "name": "markets",
      "outputs": [
        {
          "internalType": "contract Market",
          "name": "",
          "type": "address"
        }
      ],
      "stateMutability": "view",
      "type": "function"
    },
    {
      "inputs": [
        {
          "internalType": "uint256",
          "name": "",
          "type": "uint256"
        }
      ],
      "name": "marketsKeys",
      "outputs": [
        {
          "internalType": "address",
          "name": "",
          "type": "address"
        }
      ],
      "stateMutability": "view",
      "type": "function"
    },
    {
      "inputs": [],
      "name": "owner",
      "outputs": [
        {
          "internalType": "address",
          "name": "",
          "type": "address"
        }
      ],
      "stateMutability": "view",
      "type": "function"
    },
    {
      "inputs": [],
      "name": "uniswapFactory",
      "outputs": [
        {
          "internalType": "contract IUniswapV2Factory",
          "name": "",
          "type": "address"
        }
      ],
      "stateMutability": "view",
      "type": "function"
    },
    {
      "inputs": [
        {
          "internalType": "address",
          "name": "_token",
          "type": "address"
        },
        {
          "internalType": "address",
          "name": "_uniswapPair",
          "type": "address"
        },
        {
          "internalType": "uint256",
          "name": "_period",
          "type": "uint256"
        },
        {
          "internalType": "uint256",
          "name": "_initTimestamp",
          "type": "uint256"
        },
        {
          "internalType": "uint256",
          "name": "_tax",
          "type": "uint256"
        },
        {
          "internalType": "uint256",
          "name": "_fee",
          "type": "uint256"
        },
        {
          "internalType": "uint256",
          "name": "_dPrice",
          "type": "uint256"
        },
        {
          "internalType": "uint256",
          "name": "_tReporting",
          "type": "uint256"
        },
        {
          "internalType": "uint256",
          "name": "_minAcquisitionP",
          "type": "uint256"
        }
      ],
      "name": "addMarket",
      "outputs": [],
      "stateMutability": "nonpayable",
      "type": "function"
    },
    {
      "inputs": [],
      "name": "getMarketsCount",
      "outputs": [
        {
          "internalType": "uint256",
          "name": "",
          "type": "uint256"
        }
      ],
      "stateMutability": "view",
      "type": "function"
    }
  ],
  "bytecode": "0x608060405234801561001057600080fd5b50604051614f25380380614f25833981810160405281019061003291906100ce565b33600360006101000a81548173ffffffffffffffffffffffffffffffffffffffff021916908373ffffffffffffffffffffffffffffffffffffffff160217905550806000806101000a81548173ffffffffffffffffffffffffffffffffffffffff021916908373ffffffffffffffffffffffffffffffffffffffff16021790555050610149565b6000815190506100c881610132565b92915050565b6000602082840312156100e4576100e361012d565b5b60006100f2848285016100b9565b91505092915050565b60006101068261010d565b9050919050565b600073ffffffffffffffffffffffffffffffffffffffff82169050919050565b600080fd5b61013b816100fb565b811461014657600080fd5b50565b614dcd806101586000396000f3fe60806040523480156200001157600080fd5b50600436106200006a5760003560e01c806327fa35c3146200006f57806346a81c0014620000915780638bdb2afa14620000c75780638da5cb5b14620000e95780638e8f294b146200010b578063f4541da51462000141575b600080fd5b6200007962000161565b60405162000088919062000664565b60405180910390f35b620000af6004803603810190620000a99190620004b4565b6200016e565b604051620000be91906200055d565b60405180910390f35b620000d1620001ae565b604051620000e091906200057a565b60405180910390f35b620000f3620001d2565b6040516200010291906200055d565b60405180910390f35b620001296004803603810190620001239190620003a3565b620001f8565b60405162000138919062000647565b60405180910390f35b6200015f6004803603810190620001599190620003d5565b6200022b565b005b6000600280549050905090565b600281815481106200017f57600080fd5b906000526020600020016000915054906101000a900473ffffffffffffffffffffffffffffffffffffffff1681565b60008054906101000a900473ffffffffffffffffffffffffffffffffffffffff1681565b600360009054906101000a900473ffffffffffffffffffffffffffffffffffffffff1681565b60016020528060005260406000206000915054906101000a900473ffffffffffffffffffffffffffffffffffffffff1681565b6000308a8a8a8a8a8a8a8a8a604051620002459062000367565b6200025a9a9998979695949392919062000597565b604051809103906000f08015801562000277573d6000803e3d6000fd5b50905080600160008373ffffffffffffffffffffffffffffffffffffffff1673ffffffffffffffffffffffffffffffffffffffff16815260200190815260200160002060006101000a81548173ffffffffffffffffffffffffffffffffffffffff021916908373ffffffffffffffffffffffffffffffffffffffff1602179055506002819080600181540180825580915050600190039060005260206000200160009091909190916101000a81548173ffffffffffffffffffffffffffffffffffffffff021916908373ffffffffffffffffffffffffffffffffffffffff16021790555050505050505050505050565b614613806200078583390190565b600081359050620003868162000750565b92915050565b6000813590506200039d816200076a565b92915050565b600060208284031215620003bc57620003bb6200074b565b5b6000620003cc8482850162000375565b91505092915050565b60008060008060008060008060006101208a8c031215620003fb57620003fa6200074b565b5b60006200040b8c828d0162000375565b99505060206200041e8c828d0162000375565b9850506040620004318c828d016200038c565b9750506060620004448c828d016200038c565b9650506080620004578c828d016200038c565b95505060a06200046a8c828d016200038c565b94505060c06200047d8c828d016200038c565b93505060e0620004908c828d016200038c565b925050610100620004a48c828d016200038c565b9150509295985092959850929598565b600060208284031215620004cd57620004cc6200074b565b5b6000620004dd848285016200038c565b91505092915050565b620004f18162000681565b82525050565b6200050281620006bf565b82525050565b6200051381620006d3565b82525050565b6200052481620006e7565b82525050565b6200053581620006fb565b82525050565b62000546816200070f565b82525050565b6200055781620006b5565b82525050565b6000602082019050620005746000830184620004e6565b92915050565b600060208201905062000591600083018462000508565b92915050565b600061014082019050620005af600083018d6200052a565b620005be602083018c620004f7565b620005cd604083018b62000519565b620005dc606083018a6200054c565b620005eb60808301896200054c565b620005fa60a08301886200054c565b6200060960c08301876200054c565b6200061860e08301866200054c565b620006286101008301856200054c565b620006386101208301846200054c565b9b9a5050505050505050505050565b60006020820190506200065e60008301846200053b565b92915050565b60006020820190506200067b60008301846200054c565b92915050565b60006200068e8262000695565b9050919050565b600073ffffffffffffffffffffffffffffffffffffffff82169050919050565b6000819050919050565b6000620006cc8262000723565b9050919050565b6000620006e08262000723565b9050919050565b6000620006f48262000723565b9050919050565b6000620007088262000723565b9050919050565b60006200071c8262000723565b9050919050565b6000620007308262000737565b9050919050565b6000620007448262000695565b9050919050565b600080fd5b6200075b8162000681565b81146200076757600080fd5b50565b6200077581620006b5565b81146200078157600080fd5b5056fe6080604052606460095569d3c21bcecceda1000000600c553480156200002457600080fd5b50604051620046133803806200461383398181016040528101906200004a9190620001ea565b88600160006101000a81548173ffffffffffffffffffffffffffffffffffffffff021916908373ffffffffffffffffffffffffffffffffffffffff16021790555033600260006101000a81548173ffffffffffffffffffffffffffffffffffffffff021916908373ffffffffffffffffffffffffffffffffffffffff1602179055508660038190555085600481905550846008819055508360078190555087600560006101000a81548173ffffffffffffffffffffffffffffffffffffffff021916908373ffffffffffffffffffffffffffffffffffffffff16021790555082600681905550896000806101000a81548173ffffffffffffffffffffffffffffffffffffffff021916908373ffffffffffffffffffffffffffffffffffffffff16021790555081600a8190555080600b8190555050505050505050505050620003c7565b6000815190506200019f816200035f565b92915050565b600081519050620001b68162000379565b92915050565b600081519050620001cd8162000393565b92915050565b600081519050620001e481620003ad565b92915050565b6000806000806000806000806000806101408b8d0312156200021157620002106200035a565b5b6000620002218d828e01620001bc565b9a50506020620002348d828e016200018e565b9950506040620002478d828e01620001a5565b98505060606200025a8d828e01620001d3565b97505060806200026d8d828e01620001d3565b96505060a0620002808d828e01620001d3565b95505060c0620002938d828e01620001d3565b94505060e0620002a68d828e01620001d3565b935050610100620002ba8d828e01620001d3565b925050610120620002ce8d828e01620001d3565b9150509295989b9194979a5092959850565b6000620002ed8262000330565b9050919050565b60006200030182620002e0565b9050919050565b60006200031582620002e0565b9050919050565b60006200032982620002e0565b9050919050565b600073ffffffffffffffffffffffffffffffffffffffff82169050919050565b6000819050919050565b600080fd5b6200036a81620002f4565b81146200037657600080fd5b50565b620003848162000308565b81146200039057600080fd5b50565b6200039e816200031c565b8114620003aa57600080fd5b50565b620003b88162000350565b8114620003c457600080fd5b50565b61423c80620003d76000396000f3fe6080604052600436106101f95760003560e01c80637358c57a1161010d578063c45a0155116100a0578063ec77fe111161006f578063ec77fe11146107e1578063ef78d4fd146107fd578063f27da3ac14610828578063fc95070214610865578063ff5c86b01461088e576101f9565b8063c45a015514610723578063c816841b1461074e578063c84993af14610779578063da68cf8b146107b6576101f9565b806389da88a3116100dc57806389da88a3146106595780639533319414610684578063a10340bc146106a0578063ba9d1d68146106e6576101f9565b80637358c57a1461059b5780637d6ae6a0146105c65780637e9966391461060357806388d487881461062e576101f9565b8063410f0710116101905780634f3ab71f1161015f5780634f3ab71f1461047c578063527eb4bc146104b957806354bc7f6c146104e45780635619e1f5146105215780635b3ad63e1461055e576101f9565b8063410f0710146103be57806342d3da1d146103e95780634508477514610426578063499a0fc414610451576101f9565b80632a0efd44116101cc5780632a0efd44146102f257806331cf77b41461031b57806331e592e2146103585780633d7a7eac14610381576101f9565b8063050e8840146101fe5780630cbcff8f1461023b57806318ff0e07146102785780631e501486146102b5575b600080fd5b34801561020a57600080fd5b5061022560048036038101906102209190613326565b6108b9565b6040516102329190613af6565b60405180910390f35b34801561024757600080fd5b50610262600480360381019061025d9190613326565b6108dd565b60405161026f9190613af6565b60405180910390f35b34801561028457600080fd5b5061029f600480360381019061029a9190613326565b610a98565b6040516102ac9190613af6565b60405180910390f35b3480156102c157600080fd5b506102dc60048036038101906102d79190613400565b610af0565b6040516102e99190613af6565b60405180910390f35b3480156102fe57600080fd5b5061031960048036038101906103149190613326565b610cd9565b005b34801561032757600080fd5b50610342600480360381019061033d91906133c0565b610e8a565b60405161034f9190613af6565b60405180910390f35b34801561036457600080fd5b5061037f600480360381019061037a9190613380565b610ec2565b005b34801561038d57600080fd5b506103a860048036038101906103a391906134a6565b611034565b6040516103b59190613af6565b60405180910390f35b3480156103ca57600080fd5b506103d361119a565b6040516103e09190613af6565b60405180910390f35b3480156103f557600080fd5b50610410600480360381019061040b91906133c0565b6111a0565b60405161041d9190613ad4565b60405180910390f35b34801561043257600080fd5b5061043b6112f0565b6040516104489190613856565b60405180910390f35b34801561045d57600080fd5b50610466611316565b6040516104739190613af6565b60405180910390f35b34801561048857600080fd5b506104a3600480360381019061049e9190613400565b61131c565b6040516104b09190613af6565b60405180910390f35b3480156104c557600080fd5b506104ce61142b565b6040516104db9190613af6565b60405180910390f35b3480156104f057600080fd5b5061050b60048036038101906105069190613326565b611431565b6040516105189190613af6565b60405180910390f35b34801561052d57600080fd5b5061054860048036038101906105439190613400565b611454565b6040516105559190613af6565b60405180910390f35b34801561056a57600080fd5b5061058560048036038101906105809190613326565b6114a6565b6040516105929190613af6565b60405180910390f35b3480156105a757600080fd5b506105b06114fe565b6040516105bd9190613af6565b60405180910390f35b3480156105d257600080fd5b506105ed60048036038101906105e89190613326565b611504565b6040516105fa9190613af6565b60405180910390f35b34801561060f57600080fd5b50610618611547565b6040516106259190613af6565b60405180910390f35b34801561063a57600080fd5b5061064361154d565b6040516106509190613af6565b60405180910390f35b34801561066557600080fd5b5061066e611553565b60405161067b9190613af6565b60405180910390f35b61069e60048036038101906106999190613453565b611560565b005b3480156106ac57600080fd5b506106c760048036038101906106c29190613326565b611df9565b6040516106dd9a99989796959493929190613b11565b60405180910390f35b3480156106f257600080fd5b5061070d600480360381019061070891906133c0565b611e5a565b60405161071a919061383b565b60405180910390f35b34801561072f57600080fd5b50610738611f08565b6040516107459190613959565b60405180910390f35b34801561075a57600080fd5b50610763611f2c565b604051610770919061393e565b60405180910390f35b34801561078557600080fd5b506107a0600480360381019061079b9190613326565b611f52565b6040516107ad9190613af6565b60405180910390f35b3480156107c257600080fd5b506107cb611f72565b6040516107d89190613923565b60405180910390f35b6107fb60048036038101906107f69190613453565b611f98565b005b34801561080957600080fd5b506108126125cc565b60405161081f9190613af6565b60405180910390f35b34801561083457600080fd5b5061084f600480360381019061084a91906133c0565b6125d2565b60405161085c9190613af6565b60405180910390f35b34801561087157600080fd5b5061088c60048036038101906108879190613326565b61260f565b005b34801561089a57600080fd5b506108a3612cfc565b6040516108b09190613af6565b60405180910390f35b600e81815481106108c957600080fd5b906000526020600020016000915090505481565b6000600454821015610924576040517f08c379a000000000000000000000000000000000000000000000000000000000815260040161091b90613a14565b60405180910390fd5b600061092f836114a6565b90506000600381111561094557610944613f4d565b5b600d600083815260200190815260200160002060010160009054906101000a900460ff16600381111561097b5761097a613f4d565b5b146109895780915050610a93565b610992426114a6565b8110156109d4576040517f08c379a00000000000000000000000000000000000000000000000000000000081526004016109cb906139b4565b60405180910390fd5b80600d6000838152602001908152602001600020600001819055506001600d600083815260200190815260200160002060010160006101000a81548160ff02191690836003811115610a2957610a28613f4d565b5b0217905550600e8190806001815401808255809150506001900390600052602060002001600090919091909150557f163614e6e9ce9df7687928015fd2c748b69c5136db886e57f09170b251b58e8781604051610a869190613af6565b60405180910390a1809150505b919050565b6000808211610aab576006549050610aeb565b610ae8600654610ada600654610acc60065487612d0290919063ffffffff16565b612d1890919063ffffffff16565b612d2e90919063ffffffff16565b90505b919050565b600080600d60008681526020019081526020016000206009015490506000600d6000878152602001908152602001600020600a0160008681526020019081526020016000206040518060800160405290816000820154815260200160018201805480602002602001604051908101604052809291908181526020016000905b82821015610c0157838290600052602060002090600202016040518060400160405290816000820160009054906101000a900473ffffffffffffffffffffffffffffffffffffffff1673ffffffffffffffffffffffffffffffffffffffff1673ffffffffffffffffffffffffffffffffffffffff16815260200160018201548152505081526020019060010190610b6f565b505050508152602001600282015481526020016003820160009054906101000a900460ff166002811115610c3857610c37613f4d565b5b6002811115610c4a57610c49613f4d565b5b81525050905060008160200151600081518110610c6a57610c69613f7c565b5b60200260200101516020015190506000610c85888888612d44565b90506000610c9c838661302b90919063ffffffff16565b90506000610cc782610cb9600c5486612d1890919063ffffffff16565b612d0290919063ffffffff16565b90508096505050505050509392505050565b6000610ce4426114a6565b905043600d600083815260200190815260200160002060090181905550610d2a600a54610d1c60035484612d2e90919063ffffffff16565b61302b90919063ffffffff16565b4210158015610d4f57506000600d600083815260200190815260200160002060040154145b15610dc65781600d60008381526020019081526020016000206004018190555042600d6000838152602001908152602001600020600701819055507f163614e6e9ce9df7687928015fd2c748b69c5136db886e57f09170b251b58e8781604051610db99190613af6565b60405180910390a1610e86565b610ddb60035482612d2e90919063ffffffff16565b4211158015610e125750610e0e600a54610e0060035484612d2e90919063ffffffff16565b61302b90919063ffffffff16565b4210155b15610e855781600d60008381526020019081526020016000206005018190555042600d6000838152602001908152602001600020600801819055507f163614e6e9ce9df7687928015fd2c748b69c5136db886e57f09170b251b58e8781604051610e7c9190613af6565b60405180910390a15b5b5050565b6000600d6000848152602001908152602001600020600a01600083815260200190815260200160002060010180549050905092915050565b60026003811115610ed657610ed5613f4d565b5b600d600084815260200190815260200160002060010160009054906101000a900460ff166003811115610f0c57610f0b613f4d565b5b14610f4c576040517f08c379a0000000000000000000000000000000000000000000000000000000008152600401610f4390613a34565b60405180910390fd5b6000610f6d600d600085815260200190815260200160002060020154610a98565b90506000610f7c848385611454565b9050600160009054906101000a900473ffffffffffffffffffffffffffffffffffffffff1673ffffffffffffffffffffffffffffffffffffffff1663a9059cbb84836040518363ffffffff1660e01b8152600401610fdb9291906138fa565b602060405180830381600087803b158015610ff557600080fd5b505af1158015611009573d6000803e3d6000fd5b505050506040513d601f19601f8201168201806040525081019061102d91906132f9565b5050505050565b60008061104085610a98565b9050600061105f611050856114a6565b8561302b90919063ffffffff16565b9050600061108c60035461107e84600c54612d1890919063ffffffff16565b612d0290919063ffffffff16565b9050600061109989611504565b905060006110d9826110cb620186a06110bd6008548d612d1890919063ffffffff16565b612d0290919063ffffffff16565b612d1890919063ffffffff16565b90506000611107620186a06110f96008548c612d1890919063ffffffff16565b612d0290919063ffffffff16565b9050611130600c546111228684612d1890919063ffffffff16565b612d0290919063ffffffff16565b90506111458183612d2e90919063ffffffff16565b9150600061118683600d60008f8152602001908152602001600020600a0160008a815260200190815260200160002060020154612d2e90919063ffffffff16565b905080975050505050505050949350505050565b60075481565b6111a86131f8565b600d6000848152602001908152602001600020600a0160008381526020019081526020016000206040518060800160405290816000820154815260200160018201805480602002602001604051908101604052809291908181526020016000905b8282101561129b57838290600052602060002090600202016040518060400160405290816000820160009054906101000a900473ffffffffffffffffffffffffffffffffffffffff1673ffffffffffffffffffffffffffffffffffffffff1673ffffffffffffffffffffffffffffffffffffffff16815260200160018201548152505081526020019060010190611209565b505050508152602001600282015481526020016003820160009054906101000a900460ff1660028111156112d2576112d1613f4d565b5b60028111156112e4576112e3613f4d565b5b81525050905092915050565b600260009054906101000a900473ffffffffffffffffffffffffffffffffffffffff1681565b60065481565b60005b6113298484610e8a565b8110156113e9578173ffffffffffffffffffffffffffffffffffffffff16600d6000868152602001908152602001600020600a016000858152602001908152602001600020600101828154811061138357611382613f7c565b5b906000526020600020906002020160000160009054906101000a900473ffffffffffffffffffffffffffffffffffffffff1673ffffffffffffffffffffffffffffffffffffffff1614156113d657611424565b80806113e190613e75565b91505061131f565b6040517f08c379a000000000000000000000000000000000000000000000000000000000815260040161141b90613ab4565b60405180910390fd5b9392505050565b60095481565b6000600d6000838152602001908152602001600020600b01805490509050919050565b600061149d600c5461148f600d600088815260200190815260200160002060030154611481888888610af0565b612d1890919063ffffffff16565b612d0290919063ffffffff16565b90509392505050565b600060045482116114bb5760045490506114f9565b6114f66114e76003546114d96004548661302b90919063ffffffff16565b61304190919063ffffffff16565b8361302b90919063ffffffff16565b90505b919050565b60045481565b60006115406001611532600354611524428761302b90919063ffffffff16565b612d0290919063ffffffff16565b612d2e90919063ffffffff16565b9050919050565b60085481565b600b5481565b6000600e80549050905090565b600b548110156115a5576040517f08c379a000000000000000000000000000000000000000000000000000000000815260040161159c906139d4565b60405180910390fd5b60006115b0846108dd565b905060006115be8285613057565b90506115ca8282611e5a565b73ffffffffffffffffffffffffffffffffffffffff163373ffffffffffffffffffffffffffffffffffffffff161415611638576040517f08c379a000000000000000000000000000000000000000000000000000000000815260040161162f90613a54565b60405180910390fd5b6000611655611646426114a6565b4261302b90919063ffffffff16565b9050600061168260035461167484600c54612d1890919063ffffffff16565b612d0290919063ffffffff16565b905060006116d6600c546116c8846116ba620186a06116ac6008548d612d1890919063ffffffff16565b612d0290919063ffffffff16565b612d1890919063ffffffff16565b612d0290919063ffffffff16565b905060006116e389611504565b9050600061172382611715620186a06117076008548d612d1890919063ffffffff16565b612d0290919063ffffffff16565b612d1890919063ffffffff16565b90506117388382612d2e90919063ffffffff16565b905061177781600d60008a8152602001908152602001600020600a01600089815260200190815260200160002060020154612d2e90919063ffffffff16565b600160009054906101000a900473ffffffffffffffffffffffffffffffffffffffff1673ffffffffffffffffffffffffffffffffffffffff1663dd62ed3e33306040518363ffffffff1660e01b81526004016117d492919061389a565b60206040518083038186803b1580156117ec57600080fd5b505afa158015611800573d6000803e3d6000fd5b505050506040513d601f19601f820116820180604052508101906118249190613353565b1015611865576040517f08c379a000000000000000000000000000000000000000000000000000000000815260040161185c90613a74565b60405180910390fd5b600160009054906101000a900473ffffffffffffffffffffffffffffffffffffffff1673ffffffffffffffffffffffffffffffffffffffff166323b872dd33306118e285600d60008e8152602001908152602001600020600a0160008d815260200190815260200160002060020154612d2e90919063ffffffff16565b6040518463ffffffff1660e01b8152600401611900939291906138c3565b602060405180830381600087803b15801561191a57600080fd5b505af115801561192e573d6000803e3d6000fd5b505050506040513d601f19601f8201168201806040525081019061195291906132f9565b5061197c81600d60008a815260200190815260200160002060030154612d2e90919063ffffffff16565b600d600089815260200190815260200160002060030181905550600160028111156119aa576119a9613f4d565b5b600d6000898152602001908152602001600020600a01600088815260200190815260200160002060030160009054906101000a900460ff1660028111156119f4576119f3613f4d565b5b1415611c9a576000600d6000898152602001908152602001600020600a0160008881526020019081526020016000206002015490506000611a7b600c54611a6d88611a5f620186a0611a5160085489612d1890919063ffffffff16565b612d0290919063ffffffff16565b612d1890919063ffffffff16565b612d0290919063ffffffff16565b90506000611abb85611aad620186a0611a9f60085488612d1890919063ffffffff16565b612d0290919063ffffffff16565b612d1890919063ffffffff16565b9050611ad08282612d2e90919063ffffffff16565b90506000611b11600d60008d8152602001908152602001600020600a0160008c81526020019081526020016000206002015483612d2e90919063ffffffff16565b90506000611b326001611b248e8e610e8a565b61302b90919063ffffffff16565b9050600160009054906101000a900473ffffffffffffffffffffffffffffffffffffffff1673ffffffffffffffffffffffffffffffffffffffff1663a9059cbb600d60008f8152602001908152602001600020600a0160008e81526020019081526020016000206001018381548110611bae57611bad613f7c565b5b906000526020600020906002020160000160009054906101000a900473ffffffffffffffffffffffffffffffffffffffff16846040518363ffffffff1660e01b8152600401611bfe929190613871565b602060405180830381600087803b158015611c1857600080fd5b505af1158015611c2c573d6000803e3d6000fd5b505050506040513d601f19601f82011682018060405250810190611c5091906132f9565b50611c7a83600d60008f81526020019081526020016000206003015461302b90919063ffffffff16565b600d60008e81526020019081526020016000206003018190555050505050505b600d6000888152602001908152602001600020600a01600087815260200190815260200160002060010160405180604001604052803373ffffffffffffffffffffffffffffffffffffffff16815260200143815250908060018154018082558091505060019003906000526020600020906002020160009091909190915060008201518160000160006101000a81548173ffffffffffffffffffffffffffffffffffffffff021916908373ffffffffffffffffffffffffffffffffffffffff1602179055506020820151816001015550506001600d6000898152602001908152602001600020600a01600088815260200190815260200160002060030160006101000a81548160ff02191690836002811115611db957611db8613f4d565b5b021790555087600d6000898152602001908152602001600020600a0160008881526020019081526020016000206002018190555050505050505050505050565b600d6020528060005260406000206000915090508060000154908060010160009054906101000a900460ff1690806002015490806003015490806004015490806005015490806006015490806007015490806008015490806009015490508a565b600080611e678484610e8a565b1415611e7557309050611f02565b600d6000848152602001908152602001600020600a016000838152602001908152602001600020600101611ebc6001611eae8686610e8a565b61302b90919063ffffffff16565b81548110611ecd57611ecc613f7c565b5b906000526020600020906002020160000160009054906101000a900473ffffffffffffffffffffffffffffffffffffffff1690505b92915050565b60008054906101000a900473ffffffffffffffffffffffffffffffffffffffff1681565b600560009054906101000a900473ffffffffffffffffffffffffffffffffffffffff1681565b6000600d6000838152602001908152602001600020600301549050919050565b600160009054906101000a900473ffffffffffffffffffffffffffffffffffffffff1681565b600b54811015611fdd576040517f08c379a0000000000000000000000000000000000000000000000000000000008152600401611fd4906139d4565b60405180910390fd5b6000611fe8846108dd565b90506000611ff68285613057565b90503373ffffffffffffffffffffffffffffffffffffffff166120198383611e5a565b73ffffffffffffffffffffffffffffffffffffffff161461206f576040517f08c379a0000000000000000000000000000000000000000000000000000000008152600401612066906139f4565b60405180910390fd5b600061207a86611504565b9050600061209961208a426114a6565b4261302b90919063ffffffff16565b905060006120c66003546120b884600c54612d1890919063ffffffff16565b612d0290919063ffffffff16565b9050600061211a600c5461210c846120fe620186a06120f06008548e612d1890919063ffffffff16565b612d0290919063ffffffff16565b612d1890919063ffffffff16565b612d0290919063ffffffff16565b9050600061215a8561214c620186a061213e6008548d612d1890919063ffffffff16565b612d0290919063ffffffff16565b612d1890919063ffffffff16565b905061216f8282612d2e90919063ffffffff16565b90506000600d6000898152602001908152602001600020600a0160008881526020019081526020016000206002015490506121f0600c546121e2866121d4620186a06121c660085488612d1890919063ffffffff16565b612d0290919063ffffffff16565b612d1890919063ffffffff16565b612d0290919063ffffffff16565b9250600061223087612222620186a06122146008548f612d1890919063ffffffff16565b612d0290919063ffffffff16565b612d1890919063ffffffff16565b90506122458482612d2e90919063ffffffff16565b90508083111561246e57612262818461302b90919063ffffffff16565b600160009054906101000a900473ffffffffffffffffffffffffffffffffffffffff1673ffffffffffffffffffffffffffffffffffffffff1663dd62ed3e33306040518363ffffffff1660e01b81526004016122bf92919061389a565b60206040518083038186803b1580156122d757600080fd5b505afa1580156122eb573d6000803e3d6000fd5b505050506040513d601f19601f8201168201806040525081019061230f9190613353565b1015612350576040517f08c379a000000000000000000000000000000000000000000000000000000000815260040161234790613a74565b60405180910390fd5b600160009054906101000a900473ffffffffffffffffffffffffffffffffffffffff1673ffffffffffffffffffffffffffffffffffffffff166323b872dd33306123a3858861302b90919063ffffffff16565b6040518463ffffffff1660e01b81526004016123c1939291906138c3565b602060405180830381600087803b1580156123db57600080fd5b505af11580156123ef573d6000803e3d6000fd5b505050506040513d601f19601f8201168201806040525081019061241391906132f9565b5061244f61242a828561302b90919063ffffffff16565b600d60008c815260200190815260200160002060030154612d2e90919063ffffffff16565b600d60008b81526020019081526020016000206003018190555061258f565b8083101561258e57600160009054906101000a900473ffffffffffffffffffffffffffffffffffffffff1673ffffffffffffffffffffffffffffffffffffffff1663a9059cbb336124c8868561302b90919063ffffffff16565b6040518363ffffffff1660e01b81526004016124e59291906138fa565b602060405180830381600087803b1580156124ff57600080fd5b505af1158015612513573d6000803e3d6000fd5b505050506040513d601f19601f8201168201806040525081019061253791906132f9565b5061257361254e848361302b90919063ffffffff16565b600d60008c81526020019081526020016000206003015461302b90919063ffffffff16565b600d60008b8152602001908152602001600020600301819055505b5b89600d60008b8152602001908152602001600020600a0160008a815260200190815260200160002060020181905550505050505050505050505050565b60035481565b6000600d6000848152602001908152602001600020600b0182815481106125fc576125fb613f7c565b5b9060005260206000200154905092915050565b6001600381111561262357612622613f4d565b5b600d600083815260200190815260200160002060010160009054906101000a900460ff16600381111561265957612658613f4d565b5b14612699576040517f08c379a000000000000000000000000000000000000000000000000000000000815260040161269090613994565b60405180910390fd5b426126af60035483612d2e90919063ffffffff16565b11156126f0576040517f08c379a00000000000000000000000000000000000000000000000000000000081526004016126e790613974565b60405180910390fd5b6000600d60008381526020019081526020016000206004015411158061272d57506000600d60008381526020019081526020016000206005015411155b15612772576003600d600083815260200190815260200160002060010160006101000a81548160ff0219169083600381111561276c5761276b613f4d565b5b02179055505b600d600082815260200190815260200160002060050154600d60008381526020019081526020016000206004015414156127e6576003600d600083815260200190815260200160002060010160006101000a81548160ff021916908360038111156127e0576127df613f4d565b5b02179055505b6002600d600083815260200190815260200160002060010160006101000a81548160ff021916908360038111156128205761281f613f4d565b5b02179055506000612866600d600084815260200190815260200160002060040154600d60008581526020019081526020016000206005015461302b90919063ffffffff16565b905060006128a9600d600085815260200190815260200160002060070154600d60008681526020019081526020016000206008015461302b90919063ffffffff16565b90506128e16040518060200160405280847bffffffffffffffffffffffffffffffffffffffffffffffffffffffff1681525082613148565b600001517bffffffffffffffffffffffffffffffffffffffffffffffffffffffff16600d60008581526020019081526020016000206002018190555061294c600c546070600d600087815260200190815260200160002060020154901c612d1890919063ffffffff16565b600d6000858152602001908152602001600020600201819055506129a87406d79f82328ea3da61e066ebb2f88a0000000000006070600d600087815260200190815260200160002060020154901b612d0290919063ffffffff16565b600d6000858152602001908152602001600020600201819055506000612a04620186a06129f6600754600d600089815260200190815260200160002060030154612d1890919063ffffffff16565b612d0290919063ffffffff16565b90506000612a48620186a0612a3a600954600d60008a815260200190815260200160002060030154612d1890919063ffffffff16565b612d0290919063ffffffff16565b9050612a8581612a7784600d60008a81526020019081526020016000206003015461302b90919063ffffffff16565b61302b90919063ffffffff16565b600d600087815260200190815260200160002060030181905550600160009054906101000a900473ffffffffffffffffffffffffffffffffffffffff1673ffffffffffffffffffffffffffffffffffffffff1663a9059cbb600260009054906101000a900473ffffffffffffffffffffffffffffffffffffffff16846040518363ffffffff1660e01b8152600401612b1e929190613871565b602060405180830381600087803b158015612b3857600080fd5b505af1158015612b4c573d6000803e3d6000fd5b505050506040513d601f19601f82011682018060405250810190612b7091906132f9565b50600160009054906101000a900473ffffffffffffffffffffffffffffffffffffffff1673ffffffffffffffffffffffffffffffffffffffff1663a9059cbb60008054906101000a900473ffffffffffffffffffffffffffffffffffffffff1673ffffffffffffffffffffffffffffffffffffffff16638da5cb5b6040518163ffffffff1660e01b815260040160206040518083038186803b158015612c1557600080fd5b505afa158015612c29573d6000803e3d6000fd5b505050506040513d601f19601f82011682018060405250810190612c4d91906132cc565b836040518363ffffffff1660e01b8152600401612c6b9291906138fa565b602060405180830381600087803b158015612c8557600080fd5b505af1158015612c99573d6000803e3d6000fd5b505050506040513d601f19601f82011682018060405250810190612cbd91906132f9565b507f163614e6e9ce9df7687928015fd2c748b69c5136db886e57f09170b251b58e8785604051612ced9190613af6565b60405180910390a15050505050565b600a5481565b60008183612d109190613c7e565b905092915050565b60008183612d269190613caf565b905092915050565b60008183612d3c9190613bf7565b905092915050565b600080600d6000868152602001908152602001600020600a0160008581526020019081526020016000206040518060800160405290816000820154815260200160018201805480602002602001604051908101604052809291908181526020016000905b82821015612e3a57838290600052602060002090600202016040518060400160405290816000820160009054906101000a900473ffffffffffffffffffffffffffffffffffffffff1673ffffffffffffffffffffffffffffffffffffffff1673ffffffffffffffffffffffffffffffffffffffff16815260200160018201548152505081526020019060010190612da8565b505050508152602001600282015481526020016003820160009054906101000a900460ff166002811115612e7157612e70613f4d565b5b6002811115612e8357612e82613f4d565b5b8152505090506000600d60008781526020019081526020016000206009015490506000806000805b612eb58a8a610e8a565b81101561301b578773ffffffffffffffffffffffffffffffffffffffff16600d60008c8152602001908152602001600020600a0160008b81526020019081526020016000206001018281548110612f0f57612f0e613f7c565b5b906000526020600020906002020160000160009054906101000a900473ffffffffffffffffffffffffffffffffffffffff1673ffffffffffffffffffffffffffffffffffffffff1614156130085785602001518181518110612f7457612f73613f7c565b5b6020026020010151602001519350806001612f8f8c8c610e8a565b612f999190613d09565b1415612fa757849250612fe0565b8560200151612fc0600183612d2e90919063ffffffff16565b81518110612fd157612fd0613f7c565b5b60200260200101516020015192505b613005612ff6858561302b90919063ffffffff16565b83612d2e90919063ffffffff16565b91505b808061301390613e75565b915050612eab565b5080955050505050509392505050565b600081836130399190613d09565b905092915050565b6000818361304f9190613ebe565b905092915050565b60008061306383610a98565b90506000600281111561307957613078613f4d565b5b600d6000868152602001908152602001600020600a01600083815260200190815260200160002060030160009054906101000a900460ff1660028111156130c3576130c2613f4d565b5b146130d15780915050613142565b80600d6000868152602001908152602001600020600a01600083815260200190815260200160002060000181905550600d6000858152602001908152602001600020600b01819080600181540180825580915050600190039060005260206000200160009091909190915055809150505b92915050565b613150613232565b6000826dffffffffffffffffffffffffffff1614156131a4576040517f08c379a000000000000000000000000000000000000000000000000000000000815260040161319b90613a94565b60405180910390fd5b6040518060200160405280836dffffffffffffffffffffffffffff1685600001516131cf9190613c4d565b7bffffffffffffffffffffffffffffffffffffffffffffffffffffffff16815250905092915050565b60405180608001604052806000815260200160608152602001600081526020016000600281111561322c5761322b613f4d565b5b81525090565b604051806020016040528060007bffffffffffffffffffffffffffffffffffffffffffffffffffffffff1681525090565b600081359050613272816141c1565b92915050565b600081519050613287816141c1565b92915050565b60008151905061329c816141d8565b92915050565b6000813590506132b1816141ef565b92915050565b6000815190506132c6816141ef565b92915050565b6000602082840312156132e2576132e1613fab565b5b60006132f084828501613278565b91505092915050565b60006020828403121561330f5761330e613fab565b5b600061331d8482850161328d565b91505092915050565b60006020828403121561333c5761333b613fab565b5b600061334a848285016132a2565b91505092915050565b60006020828403121561336957613368613fab565b5b6000613377848285016132b7565b91505092915050565b6000806040838503121561339757613396613fab565b5b60006133a5858286016132a2565b92505060206133b685828601613263565b9150509250929050565b600080604083850312156133d7576133d6613fab565b5b60006133e5858286016132a2565b92505060206133f6858286016132a2565b9150509250929050565b60008060006060848603121561341957613418613fab565b5b6000613427868287016132a2565b9350506020613438868287016132a2565b925050604061344986828701613263565b9150509250925092565b60008060006060848603121561346c5761346b613fab565b5b600061347a868287016132a2565b935050602061348b868287016132a2565b925050604061349c868287016132a2565b9150509250925092565b600080600080608085870312156134c0576134bf613fab565b5b60006134ce878288016132a2565b94505060206134df878288016132a2565b93505060406134f0878288016132a2565b9250506060613501878288016132a2565b91505092959194509250565b6000613519838361378b565b60408301905092915050565b61352e81613de5565b82525050565b61353d81613d4f565b82525050565b61354c81613d4f565b82525050565b61355b81613d3d565b82525050565b600061356c82613bbd565b6135768185613bd5565b935061358183613bad565b8060005b838110156135b2578151613599888261350d565b97506135a483613bc8565b925050600181019050613585565b5085935050505092915050565b6135c881613df7565b82525050565b6135d781613e09565b82525050565b6135e681613e1b565b82525050565b6135f581613e2d565b82525050565b61360481613e3f565b82525050565b6000613617601a83613be6565b915061362282613fb0565b602082019050919050565b600061363a601083613be6565b915061364582613fd9565b602082019050919050565b600061365d601a83613be6565b915061366882614002565b602082019050919050565b6000613680601083613be6565b915061368b8261402b565b602082019050919050565b60006136a3601d83613be6565b91506136ae82614054565b602082019050919050565b60006136c6602c83613be6565b91506136d18261407d565b604082019050919050565b60006136e9601083613be6565b91506136f4826140cc565b602082019050919050565b600061370c601f83613be6565b9150613717826140f5565b602082019050919050565b600061372f601c83613be6565b915061373a8261411e565b602082019050919050565b6000613752601783613be6565b915061375d82614147565b602082019050919050565b6000613775601483613be6565b915061378082614170565b602082019050919050565b6040820160008201516137a16000850182613534565b5060208201516137b4602085018261381d565b50505050565b60006080830160008301516137d2600086018261381d565b50602083015184820360208601526137ea8282613561565b91505060408301516137ff604086018261381d565b50606083015161381260608601826135fb565b508091505092915050565b61382681613ddb565b82525050565b61383581613ddb565b82525050565b60006020820190506138506000830184613552565b92915050565b600060208201905061386b6000830184613543565b92915050565b60006040820190506138866000830185613525565b613893602083018461382c565b9392505050565b60006040820190506138af6000830185613552565b6138bc6020830184613552565b9392505050565b60006060820190506138d86000830186613552565b6138e56020830185613552565b6138f2604083018461382c565b949350505050565b600060408201905061390f6000830185613552565b61391c602083018461382c565b9392505050565b600060208201905061393860008301846135bf565b92915050565b600060208201905061395360008301846135ce565b92915050565b600060208201905061396e60008301846135dd565b92915050565b6000602082019050818103600083015261398d8161360a565b9050919050565b600060208201905081810360008301526139ad8161362d565b9050919050565b600060208201905081810360008301526139cd81613650565b9050919050565b600060208201905081810360008301526139ed81613673565b9050919050565b60006020820190508181036000830152613a0d81613696565b9050919050565b60006020820190508181036000830152613a2d816136b9565b9050919050565b60006020820190508181036000830152613a4d816136dc565b9050919050565b60006020820190508181036000830152613a6d816136ff565b9050919050565b60006020820190508181036000830152613a8d81613722565b9050919050565b60006020820190508181036000830152613aad81613745565b9050919050565b60006020820190508181036000830152613acd81613768565b9050919050565b60006020820190508181036000830152613aee81846137ba565b905092915050565b6000602082019050613b0b600083018461382c565b92915050565b600061014082019050613b27600083018d61382c565b613b34602083018c6135ec565b613b41604083018b61382c565b613b4e606083018a61382c565b613b5b608083018961382c565b613b6860a083018861382c565b613b7560c083018761382c565b613b8260e083018661382c565b613b9061010083018561382c565b613b9e61012083018461382c565b9b9a5050505050505050505050565b6000819050602082019050919050565b600081519050919050565b6000602082019050919050565b600082825260208201905092915050565b600082825260208201905092915050565b6000613c0282613ddb565b9150613c0d83613ddb565b9250827fffffffffffffffffffffffffffffffffffffffffffffffffffffffffffffffff03821115613c4257613c41613eef565b5b828201905092915050565b6000613c5882613db3565b9150613c6383613db3565b925082613c7357613c72613f1e565b5b828204905092915050565b6000613c8982613ddb565b9150613c9483613ddb565b925082613ca457613ca3613f1e565b5b828204905092915050565b6000613cba82613ddb565b9150613cc583613ddb565b9250817fffffffffffffffffffffffffffffffffffffffffffffffffffffffffffffffff0483118215151615613cfe57613cfd613eef565b5b828202905092915050565b6000613d1482613ddb565b9150613d1f83613ddb565b925082821015613d3257613d31613eef565b5b828203905092915050565b6000613d4882613d93565b9050919050565b6000613d5a82613d93565b9050919050565b60008115159050919050565b6000819050613d7b82614199565b919050565b6000819050613d8e826141ad565b919050565b600073ffffffffffffffffffffffffffffffffffffffff82169050919050565b60007bffffffffffffffffffffffffffffffffffffffffffffffffffffffff82169050919050565b6000819050919050565b6000613df082613e51565b9050919050565b6000613e0282613e51565b9050919050565b6000613e1482613e51565b9050919050565b6000613e2682613e51565b9050919050565b6000613e3882613d6d565b9050919050565b6000613e4a82613d80565b9050919050565b6000613e5c82613e63565b9050919050565b6000613e6e82613d93565b9050919050565b6000613e8082613ddb565b91507fffffffffffffffffffffffffffffffffffffffffffffffffffffffffffffffff821415613eb357613eb2613eef565b5b600182019050919050565b6000613ec982613ddb565b9150613ed483613ddb565b925082613ee457613ee3613f1e565b5b828206905092915050565b7f4e487b7100000000000000000000000000000000000000000000000000000000600052601160045260246000fd5b7f4e487b7100000000000000000000000000000000000000000000000000000000600052601260045260246000fd5b7f4e487b7100000000000000000000000000000000000000000000000000000000600052602160045260246000fd5b7f4e487b7100000000000000000000000000000000000000000000000000000000600052603260045260246000fd5b600080fd5b7f4652414d4520454e442054494d45204e4f542052454143484544000000000000600082015250565b7f4652414d45204e4f54204f50454e454400000000000000000000000000000000600082015250565b7f43414e275420435245415445204652414d4520494e2050415354000000000000600082015250565b7f505249434520495320544f4f204c4f5700000000000000000000000000000000600082015250565b7f544849532041444452455353204953204e4f5420544845204f574e4552000000600082015250565b7f54494d455354414d50204245464f524520494e495449414c2054494d4553544160008201527f4d50204f46204d41524b45540000000000000000000000000000000000000000602082015250565b7f4652414d45204e4f5420434c4f53454400000000000000000000000000000000600082015250565b7f4144445245535320414c5245414459204f574e53205448452050415243454c00600082015250565b7f415050524f56454420414d4f554e5420495320544f4f20534d414c4c00000000600082015250565b7f4669786564506f696e743a204449565f42595f5a45524f000000000000000000600082015250565b7f4f574e455220444f4553204e4f54204558495354000000000000000000000000600082015250565b600481106141aa576141a9613f4d565b5b50565b600381106141be576141bd613f4d565b5b50565b6141ca81613d3d565b81146141d557600080fd5b50565b6141e181613d61565b81146141ec57600080fd5b50565b6141f881613ddb565b811461420357600080fd5b5056fea2646970667358221220751ca3c2465dd7cbe67f6357f77f2e2d46b51c4da56de9caecabce0ca5f9ee4f64736f6c63430008070033a26469706673582212203703029ce4683fd5e9eeb2a538464a4462898f1f8b99f4b70a8a47059e29718764736f6c63430008070033",
  "immutableReferences": {},
  "source": "// SPDX-License-Identifier: MIT\r\npragma solidity ^0.8.0;\r\n\r\nimport \"./Market.sol\";\r\nimport \"@uniswap/v2-core/contracts/interfaces/IUniswapV2Factory.sol\";\r\nimport \"@uniswap/v2-core/contracts/interfaces/IUniswapV2Pair.sol\";\r\nimport \"@openzeppelin/contracts/token/ERC20/IERC20.sol\";\r\n\r\ncontract MarketFactory {\r\n\r\n    IUniswapV2Factory public uniswapFactory;\r\n    mapping(address => Market) public markets;\r\n    address[] public marketsKeys;\r\n    address public owner;\r\n\r\n    constructor(address _uniswapFactory) {\r\n        owner = msg.sender;\r\n        uniswapFactory = IUniswapV2Factory(_uniswapFactory);\r\n    }\r\n\r\n    function addMarket(address _token, address _uniswapPair, uint _period, uint _initTimestamp, uint _tax, uint _fee, uint _dPrice, uint _tReporting, uint _minAcquisitionP) external {\r\n        Market market = new Market(this, IERC20(_token), IUniswapV2Pair(_uniswapPair), _period, _initTimestamp, _tax, _fee, _dPrice, _tReporting, _minAcquisitionP);\r\n        markets[address(market)] = market;\r\n        marketsKeys.push(address(market));\r\n    }\r\n\r\n    function getMarketsCount() public view returns (uint){\r\n        return marketsKeys.length;\r\n    }\r\n}\r\n",
  "sourcePath": "D:/prog/UniHedge/core/contracts/MarketFactory.sol",
  "compiler": {
    "name": "solc",
    "version": "0.8.7+commit.e28d00a7.Emscripten.clang"
  },
  "schemaVersion": "3.4.1",
  "updatedAt": "2021-08-16T16:01:26.621Z",
  "devdoc": {
    "kind": "dev",
    "methods": {},
    "version": 1
  },
  "userdoc": {
    "kind": "user",
    "methods": {},
    "version": 1
  }
}