{
  "contractName": "Market",
  "abi": [
    {
      "inputs": [
        {
          "internalType": "contract MarketFactory",
          "name": "_factory",
          "type": "address"
        },
        {
          "internalType": "contract IERC20",
          "name": "_token",
          "type": "address"
        },
        {
          "internalType": "contract IUniswapV2Pair",
          "name": "_uniswapPair",
          "type": "address"
        },
        {
          "internalType": "uint256",
          "name": "_period",
          "type": "uint256"
        },
        {
          "internalType": "uint256",
          "name": "_initTimestamp",
          "type": "uint256"
        },
        {
          "internalType": "uint256",
          "name": "_taxMarket",
          "type": "uint256"
        },
        {
          "internalType": "uint256",
          "name": "_feeMarket",
          "type": "uint256"
        },
        {
          "internalType": "uint256",
          "name": "_dPrice",
          "type": "uint256"
        }
      ],
      "stateMutability": "nonpayable",
      "type": "constructor"
    },
    {
      "anonymous": false,
      "inputs": [
        {
          "indexed": false,
          "internalType": "uint256",
          "name": "frameKey",
          "type": "uint256"
        }
      ],
      "name": "FrameUpdate",
      "type": "event"
    },
    {
      "anonymous": false,
      "inputs": [
        {
          "indexed": false,
          "internalType": "uint256",
          "name": "frameKey",
          "type": "uint256"
        },
        {
          "indexed": false,
          "internalType": "uint256",
          "name": "parcelKey",
          "type": "uint256"
        }
      ],
      "name": "ParcelUpdate",
      "type": "event"
    },
    {
      "inputs": [],
      "name": "accountingToken",
      "outputs": [
        {
          "internalType": "contract IERC20",
          "name": "",
          "type": "address"
        }
      ],
      "stateMutability": "view",
      "type": "function"
    },
    {
      "inputs": [],
      "name": "dPrice",
      "outputs": [
        {
          "internalType": "uint256",
          "name": "",
          "type": "uint256"
        }
      ],
      "stateMutability": "view",
      "type": "function"
    },
    {
      "inputs": [],
      "name": "factory",
      "outputs": [
        {
          "internalType": "contract MarketFactory",
          "name": "",
          "type": "address"
        }
      ],
      "stateMutability": "view",
      "type": "function"
    },
    {
      "inputs": [],
      "name": "feeMarket",
      "outputs": [
        {
          "internalType": "uint256",
          "name": "",
          "type": "uint256"
        }
      ],
      "stateMutability": "view",
      "type": "function"
    },
    {
      "inputs": [],
      "name": "feeProtocol",
      "outputs": [
        {
          "internalType": "uint256",
          "name": "",
          "type": "uint256"
        }
      ],
      "stateMutability": "view",
      "type": "function"
    },
    {
      "inputs": [
        {
          "internalType": "uint256",
          "name": "",
          "type": "uint256"
        }
      ],
      "name": "frames",
      "outputs": [
        {
          "internalType": "uint256",
          "name": "frameKey",
          "type": "uint256"
        },
        {
          "internalType": "enum Market.SFrame",
          "name": "state",
          "type": "uint8"
        },
        {
          "internalType": "uint256",
          "name": "priceAverage",
          "type": "uint256"
        },
        {
          "internalType": "uint256",
          "name": "rewardFund",
          "type": "uint256"
        },
        {
          "internalType": "uint256",
          "name": "oraclePrice0CumulativeStart",
          "type": "uint256"
        },
        {
          "internalType": "uint256",
          "name": "oraclePrice0CumulativeEnd",
          "type": "uint256"
        },
        {
          "internalType": "uint256",
          "name": "price0CumulativeEnd",
          "type": "uint256"
        },
        {
          "internalType": "uint256",
          "name": "oracleTimestampStart",
          "type": "uint256"
        },
        {
          "internalType": "uint256",
          "name": "oracleTimestampEnd",
          "type": "uint256"
        },
        {
          "internalType": "uint256",
          "name": "lastBlockNum",
          "type": "uint256"
        }
      ],
      "stateMutability": "view",
      "type": "function"
    },
    {
      "inputs": [
        {
          "internalType": "uint256",
          "name": "",
          "type": "uint256"
        }
      ],
      "name": "framesKeys",
      "outputs": [
        {
          "internalType": "uint256",
          "name": "",
          "type": "uint256"
        }
      ],
      "stateMutability": "view",
      "type": "function"
    },
    {
      "inputs": [],
      "name": "initTimestamp",
      "outputs": [
        {
          "internalType": "uint256",
          "name": "",
          "type": "uint256"
        }
      ],
      "stateMutability": "view",
      "type": "function"
    },
    {
      "inputs": [],
      "name": "ownerMarket",
      "outputs": [
        {
          "internalType": "address payable",
          "name": "",
          "type": "address"
        }
      ],
      "stateMutability": "view",
      "type": "function"
    },
    {
      "inputs": [],
      "name": "period",
      "outputs": [
        {
          "internalType": "uint256",
          "name": "",
          "type": "uint256"
        }
      ],
      "stateMutability": "view",
      "type": "function"
    },
    {
      "inputs": [],
      "name": "taxMarket",
      "outputs": [
        {
          "internalType": "uint256",
          "name": "",
          "type": "uint256"
        }
      ],
      "stateMutability": "view",
      "type": "function"
    },
    {
      "inputs": [],
      "name": "uniswapPair",
      "outputs": [
        {
          "internalType": "contract IUniswapV2Pair",
          "name": "",
          "type": "address"
        }
      ],
      "stateMutability": "view",
      "type": "function"
    },
    {
      "inputs": [
        {
          "internalType": "uint256",
          "name": "timestamp",
          "type": "uint256"
        }
      ],
      "name": "getOrCreateFrame",
      "outputs": [
        {
          "internalType": "uint256",
          "name": "",
          "type": "uint256"
        }
      ],
      "stateMutability": "nonpayable",
      "type": "function"
    },
    {
      "inputs": [
        {
          "internalType": "uint256",
          "name": "timestamp",
          "type": "uint256"
        }
      ],
      "name": "clcFrameTimestamp",
      "outputs": [
        {
          "internalType": "uint256",
          "name": "",
          "type": "uint256"
        }
      ],
      "stateMutability": "view",
      "type": "function"
    },
    {
      "inputs": [
        {
          "internalType": "uint256",
          "name": "value",
          "type": "uint256"
        }
      ],
      "name": "clcParcelInterval",
      "outputs": [
        {
          "internalType": "uint256",
          "name": "",
          "type": "uint256"
        }
      ],
      "stateMutability": "view",
      "type": "function"
    },
    {
      "inputs": [
        {
          "internalType": "uint256",
          "name": "frameKey",
          "type": "uint256"
        }
      ],
      "name": "clcFramesLeft",
      "outputs": [
        {
          "internalType": "uint256",
          "name": "",
          "type": "uint256"
        }
      ],
      "stateMutability": "view",
      "type": "function"
    },
    {
      "inputs": [
        {
          "internalType": "uint256",
          "name": "frameKey",
          "type": "uint256"
        },
        {
          "internalType": "uint256",
          "name": "parcelKey",
          "type": "uint256"
        }
      ],
      "name": "getCurrentPrice",
      "outputs": [
        {
          "internalType": "uint256",
          "name": "",
          "type": "uint256"
        }
      ],
      "stateMutability": "view",
      "type": "function"
    },
    {
      "inputs": [],
      "name": "getApprovedAmount",
      "outputs": [
        {
          "internalType": "uint256",
          "name": "",
          "type": "uint256"
        }
      ],
      "stateMutability": "view",
      "type": "function"
    },
    {
      "inputs": [
        {
          "internalType": "uint256",
          "name": "frameKey",
          "type": "uint256"
        }
      ],
      "name": "getRewardAmount",
      "outputs": [
        {
          "internalType": "uint256",
          "name": "",
          "type": "uint256"
        }
      ],
      "stateMutability": "view",
      "type": "function"
    },
    {
      "inputs": [
        {
          "internalType": "uint256",
          "name": "frameKey",
          "type": "uint256"
        },
        {
          "internalType": "uint256",
          "name": "parcelKey",
          "type": "uint256"
        }
      ],
      "name": "getNumberOfParcelOwners",
      "outputs": [
        {
          "internalType": "uint256",
          "name": "",
          "type": "uint256"
        }
      ],
      "stateMutability": "view",
      "type": "function"
    },
    {
      "inputs": [
        {
          "internalType": "uint256",
          "name": "frameKey",
          "type": "uint256"
        },
        {
          "internalType": "uint256",
          "name": "parcelKey",
          "type": "uint256"
        },
        {
          "internalType": "address",
          "name": "owner",
          "type": "address"
        }
      ],
      "name": "getParcelOwnerIndex",
      "outputs": [
        {
          "internalType": "uint256",
          "name": "",
          "type": "uint256"
        }
      ],
      "stateMutability": "view",
      "type": "function"
    },
    {
      "inputs": [
        {
          "internalType": "uint256",
          "name": "frameKey",
          "type": "uint256"
        },
        {
          "internalType": "uint256",
          "name": "pairPrice",
          "type": "uint256"
        },
        {
          "internalType": "uint256",
          "name": "newSellPrice",
          "type": "uint256"
        }
      ],
      "name": "AmountToApprove",
      "outputs": [
        {
          "internalType": "uint256",
          "name": "",
          "type": "uint256"
        }
      ],
      "stateMutability": "view",
      "type": "function"
    },
    {
      "inputs": [
        {
          "internalType": "uint256",
          "name": "timestamp",
          "type": "uint256"
        },
        {
          "internalType": "uint256",
          "name": "pairPrice",
          "type": "uint256"
        },
        {
          "internalType": "uint256",
          "name": "newSellPrice",
          "type": "uint256"
        }
      ],
      "name": "buyParcel",
      "outputs": [],
      "stateMutability": "payable",
      "type": "function"
    },
    {
      "inputs": [
        {
          "internalType": "uint256",
          "name": "PriceCumulative",
          "type": "uint256"
        }
      ],
      "name": "updateFramePrices",
      "outputs": [],
      "stateMutability": "nonpayable",
      "type": "function"
    },
    {
      "inputs": [
        {
          "internalType": "uint256",
          "name": "frameKey",
          "type": "uint256"
        }
      ],
      "name": "closeFrame",
      "outputs": [],
      "stateMutability": "nonpayable",
      "type": "function"
    },
    {
      "inputs": [
        {
          "internalType": "uint256",
          "name": "frameKey",
          "type": "uint256"
        },
        {
          "internalType": "address",
          "name": "owner",
          "type": "address"
        }
      ],
      "name": "settleParcel",
      "outputs": [],
      "stateMutability": "nonpayable",
      "type": "function"
    },
    {
      "inputs": [
        {
          "internalType": "uint256",
          "name": "frameKey",
          "type": "uint256"
        },
        {
          "internalType": "uint256",
          "name": "parcelKey",
          "type": "uint256"
        },
        {
          "internalType": "address",
          "name": "owner",
          "type": "address"
        }
      ],
      "name": "clcShare",
      "outputs": [
        {
          "internalType": "uint256",
          "name": "",
          "type": "uint256"
        }
      ],
      "stateMutability": "view",
      "type": "function"
    },
    {
      "inputs": [
        {
          "internalType": "uint256",
          "name": "frameKey",
          "type": "uint256"
        },
        {
          "internalType": "uint256",
          "name": "parcelKey",
          "type": "uint256"
        },
        {
          "internalType": "address",
          "name": "owner",
          "type": "address"
        }
      ],
      "name": "clcSettleAmount",
      "outputs": [
        {
          "internalType": "uint256",
          "name": "",
          "type": "uint256"
        }
      ],
      "stateMutability": "view",
      "type": "function"
    }
  ],
  "bytecode": "0x6080604052606460095569d3c21bcecceda1000000600a553480156200002457600080fd5b50604051620033c3380380620033c383398181016040528101906200004a9190620001da565b86600160006101000a81548173ffffffffffffffffffffffffffffffffffffffff021916908373ffffffffffffffffffffffffffffffffffffffff16021790555033600260006101000a81548173ffffffffffffffffffffffffffffffffffffffff021916908373ffffffffffffffffffffffffffffffffffffffff1602179055508460038190555083600481905550826008819055508160078190555085600560006101000a81548173ffffffffffffffffffffffffffffffffffffffff021916908373ffffffffffffffffffffffffffffffffffffffff16021790555080600681905550876000806101000a81548173ffffffffffffffffffffffffffffffffffffffff021916908373ffffffffffffffffffffffffffffffffffffffff16021790555050505050505050506200038a565b6000815190506200018f8162000322565b92915050565b600081519050620001a6816200033c565b92915050565b600081519050620001bd8162000356565b92915050565b600081519050620001d48162000370565b92915050565b600080600080600080600080610100898b031215620001fe57620001fd6200031d565b5b60006200020e8b828c01620001ac565b9850506020620002218b828c016200017e565b9750506040620002348b828c0162000195565b9650506060620002478b828c01620001c3565b95505060806200025a8b828c01620001c3565b94505060a06200026d8b828c01620001c3565b93505060c0620002808b828c01620001c3565b92505060e0620002938b828c01620001c3565b9150509295985092959890939650565b6000620002b082620002f3565b9050919050565b6000620002c482620002a3565b9050919050565b6000620002d882620002a3565b9050919050565b6000620002ec82620002a3565b9050919050565b600073ffffffffffffffffffffffffffffffffffffffff82169050919050565b6000819050919050565b600080fd5b6200032d81620002b7565b81146200033957600080fd5b50565b6200034781620002cb565b81146200035357600080fd5b50565b6200036181620002df565b81146200036d57600080fd5b50565b6200037b8162000313565b81146200038757600080fd5b50565b613029806200039a6000396000f3fe6080604052600436106101b75760003560e01c80635619e1f5116100ec578063a10340bc1161008a578063c84993af11610064578063c84993af14610692578063da68cf8b146106cf578063ef78d4fd146106fa578063fc95070214610725576101b7565b8063a10340bc146105f6578063c45a01551461063c578063c816841b14610667576101b7565b80637d6ae6a0116100c65780637d6ae6a0146105475780637e9966391461058457806395333194146105af5780639d750e32146105cb576101b7565b80635619e1f5146104a25780635b3ad63e146104df5780637358c57a1461051c576101b7565b806331cf77b411610159578063450847751161013357806345084775146103e4578063499a0fc41461040f5780634f3ab71f1461043a578063527eb4bc14610477576101b7565b806331cf77b41461035357806331e592e214610390578063410f0710146103b9576101b7565b806318ff0e071161019557806318ff0e07146102735780631e501486146102b05780632a0efd44146102ed5780632a3dbdb614610316576101b7565b806304673368146101bc578063050e8840146101f95780630cbcff8f14610236575b600080fd5b3480156101c857600080fd5b506101e360048036038101906101de9190612537565b61074e565b6040516101f091906129cb565b60405180910390f35b34801561020557600080fd5b50610220600480360381019061021b919061249d565b610783565b60405161022d91906129cb565b60405180910390f35b34801561024257600080fd5b5061025d6004803603810190610258919061249d565b6107a7565b60405161026a91906129cb565b60405180910390f35b34801561027f57600080fd5b5061029a6004803603810190610295919061249d565b610962565b6040516102a791906129cb565b60405180910390f35b3480156102bc57600080fd5b506102d760048036038101906102d29190612577565b6109ba565b6040516102e491906129cb565b60405180910390f35b3480156102f957600080fd5b50610314600480360381019061030f919061249d565b610c88565b005b34801561032257600080fd5b5061033d600480360381019061033891906125ca565b610ddf565b60405161034a91906129cb565b60405180910390f35b34801561035f57600080fd5b5061037a60048036038101906103759190612537565b610e89565b60405161038791906129cb565b60405180910390f35b34801561039c57600080fd5b506103b760048036038101906103b291906124f7565b610ec1565b005b3480156103c557600080fd5b506103ce611033565b6040516103db91906129cb565b60405180910390f35b3480156103f057600080fd5b506103f9611039565b60405161040691906127ad565b60405180910390f35b34801561041b57600080fd5b5061042461105f565b60405161043191906129cb565b60405180910390f35b34801561044657600080fd5b50610461600480360381019061045c9190612577565b611065565b60405161046e91906129cb565b60405180910390f35b34801561048357600080fd5b5061048c611150565b60405161049991906129cb565b60405180910390f35b3480156104ae57600080fd5b506104c960048036038101906104c49190612577565b611156565b6040516104d691906129cb565b60405180910390f35b3480156104eb57600080fd5b506105066004803603810190610501919061249d565b6111a8565b60405161051391906129cb565b60405180910390f35b34801561052857600080fd5b50610531611216565b60405161053e91906129cb565b60405180910390f35b34801561055357600080fd5b5061056e6004803603810190610569919061249d565b61121c565b60405161057b91906129cb565b60405180910390f35b34801561059057600080fd5b5061059961125f565b6040516105a691906129cb565b60405180910390f35b6105c960048036038101906105c491906125ca565b611265565b005b3480156105d757600080fd5b506105e0611913565b6040516105ed91906129cb565b60405180910390f35b34801561060257600080fd5b5061061d6004803603810190610618919061249d565b6119cc565b6040516106339a999897969594939291906129e6565b60405180910390f35b34801561064857600080fd5b50610651611a2d565b60405161065e91906128b0565b60405180910390f35b34801561067357600080fd5b5061067c611a51565b6040516106899190612895565b60405180910390f35b34801561069e57600080fd5b506106b960048036038101906106b4919061249d565b611a77565b6040516106c691906129cb565b60405180910390f35b3480156106db57600080fd5b506106e4611a97565b6040516106f1919061287a565b60405180910390f35b34801561070657600080fd5b5061070f611abd565b60405161071c91906129cb565b60405180910390f35b34801561073157600080fd5b5061074c6004803603810190610747919061249d565b611ac3565b005b6000600b6000848152602001908152602001600020600a01600083815260200190815260200160002060020154905092915050565b600c818154811061079357600080fd5b906000526020600020016000915090505481565b60006004548210156107ee576040517f08c379a00000000000000000000000000000000000000000000000000000000081526004016107e59061292b565b60405180910390fd5b60006107f9836111a8565b90506000600381111561080f5761080e612dc9565b5b600b600083815260200190815260200160002060010160009054906101000a900460ff16600381111561084557610844612dc9565b5b14610853578091505061095d565b61085c426111a8565b81101561089e576040517f08c379a00000000000000000000000000000000000000000000000000000000081526004016108959061290b565b60405180910390fd5b80600b6000838152602001908152602001600020600001819055506001600b600083815260200190815260200160002060010160006101000a81548160ff021916908360038111156108f3576108f2612dc9565b5b0217905550600c8190806001815401808255809150506001900390600052602060002001600090919091909150557f163614e6e9ce9df7687928015fd2c748b69c5136db886e57f09170b251b58e878160405161095091906129cb565b60405180910390a1809150505b919050565b60008082116109755760065490506109b5565b6109b26006546109a4600654610996600654876121b090919063ffffffff16565b6121c690919063ffffffff16565b6121dc90919063ffffffff16565b90505b919050565b6000806109c8858585611065565b90506109d48585610e89565b8110610a15576040517f08c379a0000000000000000000000000000000000000000000000000000000008152600401610a0c9061298b565b60405180910390fd5b6000600b6000878152602001908152602001600020600a0160008681526020019081526020016000206040518060800160405290816000820154815260200160018201805480602002602001604051908101604052809291908181526020016000905b82821015610b0a57838290600052602060002090600202016040518060400160405290816000820160009054906101000a900473ffffffffffffffffffffffffffffffffffffffff1673ffffffffffffffffffffffffffffffffffffffff1673ffffffffffffffffffffffffffffffffffffffff16815260200160018201548152505081526020019060010190610a78565b505050508152602001600282015481526020016003820160009054906101000a900460ff166002811115610b4157610b40612dc9565b5b6002811115610b5357610b52612dc9565b5b815250509050600081602001518381518110610b7257610b71612df8565b5b60200260200101516020015190506000600b600089815260200190815260200160002060090154905060008360200151600081518110610bb557610bb4612df8565b5b60200260200101516020015190506000856001610bd28c8c610e89565b610bdc9190612ba5565b1415610bea57829050610c1c565b8460200151600187610bfc9190612a93565b81518110610c0d57610c0c612df8565b5b60200260200101516020015190505b6000610c3185836121f290919063ffffffff16565b90506000610c4884866121f290919063ffffffff16565b90506000610c7382610c65600a54866121c690919063ffffffff16565b6121b090919063ffffffff16565b90508099505050505050505050509392505050565b6000610c93426111a8565b905043600b600083815260200190815260200160002060090181905550610cd9615460610ccb600354846121dc90919063ffffffff16565b6121f290919063ffffffff16565b4211610d515781600b60008381526020019081526020016000206004018190555042600b6000838152602001908152602001600020600701819055507f163614e6e9ce9df7687928015fd2c748b69c5136db886e57f09170b251b58e8781604051610d4491906129cb565b60405180910390a1610ddb565b610d66600354826121dc90919063ffffffff16565b4211610dda5781600b60008381526020019081526020016000206005018190555042600b6000838152602001908152602001600020600801819055507f163614e6e9ce9df7687928015fd2c748b69c5136db886e57f09170b251b58e8781604051610dd191906129cb565b60405180910390a15b5b5050565b600080610deb84610962565b90506000610df88661121c565b90506000610e3882610e2a620186a0610e1c6008548a6121c690919063ffffffff16565b6121b090919063ffffffff16565b6121c690919063ffffffff16565b90506000610e7982600b60008b8152602001908152602001600020600a016000878152602001908152602001600020600201546121dc90919063ffffffff16565b9050809450505050509392505050565b6000600b6000848152602001908152602001600020600a01600083815260200190815260200160002060010180549050905092915050565b60026003811115610ed557610ed4612dc9565b5b600b600084815260200190815260200160002060010160009054906101000a900460ff166003811115610f0b57610f0a612dc9565b5b14610f4b576040517f08c379a0000000000000000000000000000000000000000000000000000000008152600401610f429061294b565b60405180910390fd5b6000610f6c600b600085815260200190815260200160002060020154610962565b90506000610f7b848385611156565b9050600160009054906101000a900473ffffffffffffffffffffffffffffffffffffffff1673ffffffffffffffffffffffffffffffffffffffff1663a9059cbb84836040518363ffffffff1660e01b8152600401610fda929190612851565b602060405180830381600087803b158015610ff457600080fd5b505af1158015611008573d6000803e3d6000fd5b505050506040513d601f19601f8201168201806040525081019061102c9190612470565b5050505050565b60075481565b600260009054906101000a900473ffffffffffffffffffffffffffffffffffffffff1681565b60065481565b600080600090505b6110778585610e89565b81101561113b578273ffffffffffffffffffffffffffffffffffffffff16600b6000878152602001908152602001600020600a01600086815260200190815260200160002060010182815481106110d1576110d0612df8565b5b906000526020600020906002020160000160009054906101000a900473ffffffffffffffffffffffffffffffffffffffff1673ffffffffffffffffffffffffffffffffffffffff1614156111285780915050611149565b808061113390612d22565b91505061106d565b506111468484610e89565b90505b9392505050565b60095481565b600061119f600a54611191600b6000888152602001908152602001600020600301546111838888886109ba565b6121c690919063ffffffff16565b6121b090919063ffffffff16565b90509392505050565b600060045482116111bd576004549050611211565b61120e6004546112006003546111f26003546111e4600454896121f290919063ffffffff16565b6121b090919063ffffffff16565b6121c690919063ffffffff16565b6121dc90919063ffffffff16565b90505b919050565b60045481565b6000611258600161124a60035461123c42876121f290919063ffffffff16565b6121b090919063ffffffff16565b6121dc90919063ffffffff16565b9050919050565b60085481565b6000611270846107a7565b9050600061127e8285612208565b9050600061128b8661121c565b905060006112cb826112bd620186a06112af6008548a6121c690919063ffffffff16565b6121b090919063ffffffff16565b6121c690919063ffffffff16565b905061130a81600b6000878152602001908152602001600020600a016000868152602001908152602001600020600201546121dc90919063ffffffff16565b600160009054906101000a900473ffffffffffffffffffffffffffffffffffffffff1673ffffffffffffffffffffffffffffffffffffffff1663dd62ed3e33306040518363ffffffff1660e01b81526004016113679291906127f1565b60206040518083038186803b15801561137f57600080fd5b505afa158015611393573d6000803e3d6000fd5b505050506040513d601f19601f820116820180604052508101906113b791906124ca565b10156113f8576040517f08c379a00000000000000000000000000000000000000000000000000000000081526004016113ef906129ab565b60405180910390fd5b600160009054906101000a900473ffffffffffffffffffffffffffffffffffffffff1673ffffffffffffffffffffffffffffffffffffffff166323b872dd333061147585600b60008b8152602001908152602001600020600a0160008a8152602001908152602001600020600201546121dc90919063ffffffff16565b6040518463ffffffff1660e01b81526004016114939392919061281a565b602060405180830381600087803b1580156114ad57600080fd5b505af11580156114c1573d6000803e3d6000fd5b505050506040513d601f19601f820116820180604052508101906114e59190612470565b5061150f81600b6000878152602001908152602001600020600301546121dc90919063ffffffff16565b600b6000868152602001908152602001600020600301819055506001600281111561153d5761153c612dc9565b5b600b6000868152602001908152602001600020600a01600085815260200190815260200160002060030160009054906101000a900460ff16600281111561158757611586612dc9565b5b14156117b75760006115f5836115e7620186a06115d9600854600b60008c8152602001908152602001600020600a0160008b8152602001908152602001600020600201546121c690919063ffffffff16565b6121b090919063ffffffff16565b6121c690919063ffffffff16565b90506000611636600b6000888152602001908152602001600020600a01600087815260200190815260200160002060020154836121dc90919063ffffffff16565b9050600160009054906101000a900473ffffffffffffffffffffffffffffffffffffffff1673ffffffffffffffffffffffffffffffffffffffff1663a9059cbb600b6000898152602001908152602001600020600a0160008881526020019081526020016000206001016116bd60016116af8b8b610e89565b6121f290919063ffffffff16565b815481106116ce576116cd612df8565b5b906000526020600020906002020160000160009054906101000a900473ffffffffffffffffffffffffffffffffffffffff16836040518363ffffffff1660e01b815260040161171e9291906127c8565b602060405180830381600087803b15801561173857600080fd5b505af115801561174c573d6000803e3d6000fd5b505050506040513d601f19601f820116820180604052508101906117709190612470565b5061179a82600b6000898152602001908152602001600020600301546121f290919063ffffffff16565b600b60008881526020019081526020016000206003018190555050505b600b6000858152602001908152602001600020600a01600084815260200190815260200160002060010160405180604001604052803373ffffffffffffffffffffffffffffffffffffffff16815260200143815250908060018154018082558091505060019003906000526020600020906002020160009091909190915060008201518160000160006101000a81548173ffffffffffffffffffffffffffffffffffffffff021916908373ffffffffffffffffffffffffffffffffffffffff1602179055506020820151816001015550506001600b6000868152602001908152602001600020600a01600085815260200190815260200160002060030160006101000a81548160ff021916908360028111156118d6576118d5612dc9565b5b021790555084600b6000868152602001908152602001600020600a0160008581526020019081526020016000206002018190555050505050505050565b600080600160009054906101000a900473ffffffffffffffffffffffffffffffffffffffff1673ffffffffffffffffffffffffffffffffffffffff1663dd62ed3e33306040518363ffffffff1660e01b81526004016119739291906127f1565b60206040518083038186803b15801561198b57600080fd5b505afa15801561199f573d6000803e3d6000fd5b505050506040513d601f19601f820116820180604052508101906119c391906124ca565b90508091505090565b600b6020528060005260406000206000915090508060000154908060010160009054906101000a900460ff1690806002015490806003015490806004015490806005015490806006015490806007015490806008015490806009015490508a565b60008054906101000a900473ffffffffffffffffffffffffffffffffffffffff1681565b600560009054906101000a900473ffffffffffffffffffffffffffffffffffffffff1681565b6000600b6000838152602001908152602001600020600301549050919050565b600160009054906101000a900473ffffffffffffffffffffffffffffffffffffffff1681565b60035481565b60016003811115611ad757611ad6612dc9565b5b600b600083815260200190815260200160002060010160009054906101000a900460ff166003811115611b0d57611b0c612dc9565b5b14611b4d576040517f08c379a0000000000000000000000000000000000000000000000000000000008152600401611b44906128eb565b60405180910390fd5b42611b63600354836121dc90919063ffffffff16565b1115611ba4576040517f08c379a0000000000000000000000000000000000000000000000000000000008152600401611b9b906128cb565b60405180910390fd5b6000600b600083815260200190815260200160002060040154111580611be157506000600b60008381526020019081526020016000206005015411155b15611c26576003600b600083815260200190815260200160002060010160006101000a81548160ff02191690836003811115611c2057611c1f612dc9565b5b02179055505b600b600082815260200190815260200160002060050154600b6000838152602001908152602001600020600401541415611c9a576003600b600083815260200190815260200160002060010160006101000a81548160ff02191690836003811115611c9457611c93612dc9565b5b02179055505b6002600b600083815260200190815260200160002060010160006101000a81548160ff02191690836003811115611cd457611cd3612dc9565b5b02179055506000611d1a600b600084815260200190815260200160002060040154600b6000858152602001908152602001600020600501546121f290919063ffffffff16565b90506000611d5d600b600085815260200190815260200160002060070154600b6000868152602001908152602001600020600801546121f290919063ffffffff16565b9050611d956040518060200160405280847bffffffffffffffffffffffffffffffffffffffffffffffffffffffff16815250826122f9565b600001517bffffffffffffffffffffffffffffffffffffffffffffffffffffffff16600b600085815260200190815260200160002060020181905550611e00600a546070600b600087815260200190815260200160002060020154901c6121c690919063ffffffff16565b600b600085815260200190815260200160002060020181905550611e5c7406d79f82328ea3da61e066ebb2f88a0000000000006070600b600087815260200190815260200160002060020154901b6121b090919063ffffffff16565b600b6000858152602001908152602001600020600201819055506000611eb8620186a0611eaa600754600b6000898152602001908152602001600020600301546121c690919063ffffffff16565b6121b090919063ffffffff16565b90506000611efc620186a0611eee600954600b60008a8152602001908152602001600020600301546121c690919063ffffffff16565b6121b090919063ffffffff16565b9050611f3981611f2b84600b60008a8152602001908152602001600020600301546121f290919063ffffffff16565b6121f290919063ffffffff16565b600b600087815260200190815260200160002060030181905550600160009054906101000a900473ffffffffffffffffffffffffffffffffffffffff1673ffffffffffffffffffffffffffffffffffffffff1663a9059cbb600260009054906101000a900473ffffffffffffffffffffffffffffffffffffffff16846040518363ffffffff1660e01b8152600401611fd29291906127c8565b602060405180830381600087803b158015611fec57600080fd5b505af1158015612000573d6000803e3d6000fd5b505050506040513d601f19601f820116820180604052508101906120249190612470565b50600160009054906101000a900473ffffffffffffffffffffffffffffffffffffffff1673ffffffffffffffffffffffffffffffffffffffff1663a9059cbb60008054906101000a900473ffffffffffffffffffffffffffffffffffffffff1673ffffffffffffffffffffffffffffffffffffffff16638da5cb5b6040518163ffffffff1660e01b815260040160206040518083038186803b1580156120c957600080fd5b505afa1580156120dd573d6000803e3d6000fd5b505050506040513d601f19601f820116820180604052508101906121019190612443565b836040518363ffffffff1660e01b815260040161211f929190612851565b602060405180830381600087803b15801561213957600080fd5b505af115801561214d573d6000803e3d6000fd5b505050506040513d601f19601f820116820180604052508101906121719190612470565b507f163614e6e9ce9df7687928015fd2c748b69c5136db886e57f09170b251b58e87856040516121a191906129cb565b60405180910390a15050505050565b600081836121be9190612b1a565b905092915050565b600081836121d49190612b4b565b905092915050565b600081836121ea9190612a93565b905092915050565b600081836122009190612ba5565b905092915050565b60008061221483610962565b90506000600281111561222a57612229612dc9565b5b600b6000868152602001908152602001600020600a01600083815260200190815260200160002060030160009054906101000a900460ff16600281111561227457612273612dc9565b5b1461228257809150506122f3565b80600b6000868152602001908152602001600020600a01600083815260200190815260200160002060000181905550600b6000858152602001908152602001600020600b01819080600181540180825580915050600190039060005260206000200160009091909190915055809150505b92915050565b6123016123a9565b6000826dffffffffffffffffffffffffffff161415612355576040517f08c379a000000000000000000000000000000000000000000000000000000000815260040161234c9061296b565b60405180910390fd5b6040518060200160405280836dffffffffffffffffffffffffffff1685600001516123809190612ae9565b7bffffffffffffffffffffffffffffffffffffffffffffffffffffffff16815250905092915050565b604051806020016040528060007bffffffffffffffffffffffffffffffffffffffffffffffffffffffff1681525090565b6000813590506123e981612fae565b92915050565b6000815190506123fe81612fae565b92915050565b60008151905061241381612fc5565b92915050565b60008135905061242881612fdc565b92915050565b60008151905061243d81612fdc565b92915050565b60006020828403121561245957612458612e27565b5b6000612467848285016123ef565b91505092915050565b60006020828403121561248657612485612e27565b5b600061249484828501612404565b91505092915050565b6000602082840312156124b3576124b2612e27565b5b60006124c184828501612419565b91505092915050565b6000602082840312156124e0576124df612e27565b5b60006124ee8482850161242e565b91505092915050565b6000806040838503121561250e5761250d612e27565b5b600061251c85828601612419565b925050602061252d858286016123da565b9150509250929050565b6000806040838503121561254e5761254d612e27565b5b600061255c85828601612419565b925050602061256d85828601612419565b9150509250929050565b6000806000606084860312156125905761258f612e27565b5b600061259e86828701612419565b93505060206125af86828701612419565b92505060406125c0868287016123da565b9150509250925092565b6000806000606084860312156125e3576125e2612e27565b5b60006125f186828701612419565b935050602061260286828701612419565b925050604061261386828701612419565b9150509250925092565b61262681612c6e565b82525050565b61263581612beb565b82525050565b61264481612bd9565b82525050565b61265381612c80565b82525050565b61266281612ca4565b82525050565b61267181612cc8565b82525050565b61268081612cec565b82525050565b6000612693601a83612a82565b915061269e82612e2c565b602082019050919050565b60006126b6601083612a82565b91506126c182612e55565b602082019050919050565b60006126d9601a83612a82565b91506126e482612e7e565b602082019050919050565b60006126fc602c83612a82565b915061270782612ea7565b604082019050919050565b600061271f601083612a82565b915061272a82612ef6565b602082019050919050565b6000612742601783612a82565b915061274d82612f1f565b602082019050919050565b6000612765601483612a82565b915061277082612f48565b602082019050919050565b6000612788601d83612a82565b915061279382612f71565b602082019050919050565b6127a781612c64565b82525050565b60006020820190506127c2600083018461262c565b92915050565b60006040820190506127dd600083018561261d565b6127ea602083018461279e565b9392505050565b6000604082019050612806600083018561263b565b612813602083018461263b565b9392505050565b600060608201905061282f600083018661263b565b61283c602083018561263b565b612849604083018461279e565b949350505050565b6000604082019050612866600083018561263b565b612873602083018461279e565b9392505050565b600060208201905061288f600083018461264a565b92915050565b60006020820190506128aa6000830184612659565b92915050565b60006020820190506128c56000830184612668565b92915050565b600060208201905081810360008301526128e481612686565b9050919050565b60006020820190508181036000830152612904816126a9565b9050919050565b60006020820190508181036000830152612924816126cc565b9050919050565b60006020820190508181036000830152612944816126ef565b9050919050565b6000602082019050818103600083015261296481612712565b9050919050565b6000602082019050818103600083015261298481612735565b9050919050565b600060208201905081810360008301526129a481612758565b9050919050565b600060208201905081810360008301526129c48161277b565b9050919050565b60006020820190506129e0600083018461279e565b92915050565b6000610140820190506129fc600083018d61279e565b612a09602083018c612677565b612a16604083018b61279e565b612a23606083018a61279e565b612a30608083018961279e565b612a3d60a083018861279e565b612a4a60c083018761279e565b612a5760e083018661279e565b612a6561010083018561279e565b612a7361012083018461279e565b9b9a5050505050505050505050565b600082825260208201905092915050565b6000612a9e82612c64565b9150612aa983612c64565b9250827fffffffffffffffffffffffffffffffffffffffffffffffffffffffffffffffff03821115612ade57612add612d6b565b5b828201905092915050565b6000612af482612c3c565b9150612aff83612c3c565b925082612b0f57612b0e612d9a565b5b828204905092915050565b6000612b2582612c64565b9150612b3083612c64565b925082612b4057612b3f612d9a565b5b828204905092915050565b6000612b5682612c64565b9150612b6183612c64565b9250817fffffffffffffffffffffffffffffffffffffffffffffffffffffffffffffffff0483118215151615612b9a57612b99612d6b565b5b828202905092915050565b6000612bb082612c64565b9150612bbb83612c64565b925082821015612bce57612bcd612d6b565b5b828203905092915050565b6000612be482612c1c565b9050919050565b6000612bf682612c1c565b9050919050565b60008115159050919050565b6000819050612c1782612f9a565b919050565b600073ffffffffffffffffffffffffffffffffffffffff82169050919050565b60007bffffffffffffffffffffffffffffffffffffffffffffffffffffffff82169050919050565b6000819050919050565b6000612c7982612cfe565b9050919050565b6000612c8b82612c92565b9050919050565b6000612c9d82612c1c565b9050919050565b6000612caf82612cb6565b9050919050565b6000612cc182612c1c565b9050919050565b6000612cd382612cda565b9050919050565b6000612ce582612c1c565b9050919050565b6000612cf782612c09565b9050919050565b6000612d0982612d10565b9050919050565b6000612d1b82612c1c565b9050919050565b6000612d2d82612c64565b91507fffffffffffffffffffffffffffffffffffffffffffffffffffffffffffffffff821415612d6057612d5f612d6b565b5b600182019050919050565b7f4e487b7100000000000000000000000000000000000000000000000000000000600052601160045260246000fd5b7f4e487b7100000000000000000000000000000000000000000000000000000000600052601260045260246000fd5b7f4e487b7100000000000000000000000000000000000000000000000000000000600052602160045260246000fd5b7f4e487b7100000000000000000000000000000000000000000000000000000000600052603260045260246000fd5b600080fd5b7f4652414d4520454e442054494d45204e4f542052454143484544000000000000600082015250565b7f4652414d45204e4f54204f50454e454400000000000000000000000000000000600082015250565b7f43414e275420435245415445204652414d4520494e2050415354000000000000600082015250565b7f54494d455354414d50204245464f524520494e495449414c2054494d4553544160008201527f4d50204f46204d41524b45540000000000000000000000000000000000000000602082015250565b7f4652414d45204e4f5420434c4f53454400000000000000000000000000000000600082015250565b7f4669786564506f696e743a204449565f42595f5a45524f000000000000000000600082015250565b7f4f574e455220444f4553204e4f54204558495354000000000000000000000000600082015250565b7f415050524f56454420414d4f554e54204953204e4f5420454e4f554748000000600082015250565b60048110612fab57612faa612dc9565b5b50565b612fb781612bd9565b8114612fc257600080fd5b50565b612fce81612bfd565b8114612fd957600080fd5b50565b612fe581612c64565b8114612ff057600080fd5b5056fea2646970667358221220110ac8580be427dcc4fce4d71a65595796c7b0d197397e8fa6f815fae0c1765c64736f6c63430008060033",
  "immutableReferences": {},
  "source": "// SPDX-License-Identifier: MIT\r\npragma solidity >=0.5.0;\r\n//pragma experimental ABIEncoderV2;\r\n\r\nimport \"./MarketFactory.sol\";\r\nimport \"@uniswap/v2-core/contracts/interfaces/IUniswapV2Pair.sol\";\r\nimport \"@uniswap/v2-periphery/contracts/libraries/UniswapV2OracleLibrary.sol\";\r\nimport \"@uniswap/lib/contracts/libraries/FixedPoint.sol\";\r\nimport \"@openzeppelin/contracts/token/ERC20/IERC20.sol\";\r\nimport \"@openzeppelin/contracts/utils/math/SafeMath.sol\";\r\n\r\n/// @title TWPM Market\r\n/// @author UniHedge\r\n/// @notice You can use this contract for only the most basic simulation\r\n/// @dev All function calls are currently implemented without side effects\r\ncontract Market {\r\n\r\n    using SafeMath for uint;\r\n    //Contract for creating markets\r\n    MarketFactory public factory;\r\n    //ERC20 token used for buyng parcels in this contract \r\n    IERC20 public accountingToken;\r\n    //Owner of this market\r\n    address payable public ownerMarket;\r\n    //Length of a frame\r\n    uint public period;\r\n    //Contract creation time\r\n    uint public initTimestamp; \r\n    //Token pair on Uniswap\r\n    IUniswapV2Pair public uniswapPair;\r\n    //Range of a parcel\r\n    uint public dPrice;\r\n    //Fee that gets to market owner\r\n    uint public feeMarket;\r\n    //Tax on parcels\r\n    uint public taxMarket;\r\n    //Protocol fee\r\n    uint public feeProtocol = 100;\r\n    //Scalar number used for calculating precentages\r\n    uint scalar = 1e24;\r\n\r\n\r\n    enum SFrame {NULL, OPENED, CLOSED, INVALID}\r\n    struct Frame {\r\n        uint frameKey;\r\n        SFrame state;\r\n        uint priceAverage;\r\n        uint rewardFund;\r\n        uint oraclePrice0CumulativeStart;\r\n        uint oraclePrice0CumulativeEnd;\r\n        uint price0CumulativeEnd;\r\n        uint oracleTimestampStart;\r\n        uint oracleTimestampEnd;\r\n        uint lastBlockNum;\r\n        mapping(uint => Parcel) parcels;\r\n        uint[] parcelKeys;\r\n    }\r\n\r\n    event FrameUpdate(uint frameKey);\r\n\r\n    mapping(uint => Frame) public frames;\r\n    uint[] public framesKeys;\r\n\r\n    struct ParcelOwner {\r\n        address payable owner;\r\n        uint blockNum;\r\n    }\r\n\r\n    enum SParcel {NULL, BOUGHT, RESOLVED}\r\n    struct Parcel {\r\n        uint parcelKey;\r\n        ParcelOwner[] parcelOwners;\r\n        uint currentPrice;\r\n        SParcel state;\r\n    }\r\n\r\n    event ParcelUpdate(uint frameKey, uint parcelKey);\r\n\r\n    constructor(MarketFactory _factory, IERC20 _token, IUniswapV2Pair _uniswapPair, uint _period, uint _initTimestamp, uint _taxMarket, uint _feeMarket, uint _dPrice ) {\r\n        accountingToken = _token;\r\n        ownerMarket = payable(msg.sender);\r\n        period = _period;\r\n        initTimestamp = _initTimestamp; \r\n        taxMarket = _taxMarket;\r\n        feeMarket = _feeMarket;\r\n        uniswapPair = _uniswapPair;\r\n        dPrice = _dPrice;\r\n        factory = _factory;\r\n    }\r\n\r\n\r\n    /// @notice Create a frame\r\n    /// @param timestamp In second.\r\n    /// @return frameTimestamp Frame's key (timestamp that indicated the beggining of a frame).\r\n    function getOrCreateFrame(uint timestamp) public returns (uint){\r\n        require(timestamp >= initTimestamp, \"TIMESTAMP BEFORE INITIAL TIMESTAMP OF MARKET\");\r\n        //Get start timestamp of a frame\r\n        uint frameTimestamp = clcFrameTimestamp(timestamp);\r\n        //Check if frame exists\r\n        if (frames[frameTimestamp].state != SFrame.NULL) return frameTimestamp;\r\n        //Check if frame startParcel number is before current Parcel number\r\n        require(frameTimestamp >= clcFrameTimestamp(block.timestamp), \"CAN'T CREATE FRAME IN PAST\");\r\n        //Add frame\r\n        frames[frameTimestamp].frameKey = frameTimestamp;\r\n        frames[frameTimestamp].state = SFrame.OPENED; //check if other parameters are at zero\r\n        framesKeys.push(frameTimestamp);\r\n        emit FrameUpdate(frameTimestamp);\r\n        return frameTimestamp;\r\n    }\r\n\r\n    /// @notice Calculate frames timestamp (beggining of frame)\r\n    /// @param timestamp In seconds\r\n    /// @return frame's timestamp (key)\r\n    function clcFrameTimestamp(uint timestamp) public view returns (uint){\r\n        if (timestamp <= initTimestamp) return initTimestamp;\r\n        return ((timestamp.sub(initTimestamp)).div(period)).mul(period).add(initTimestamp);\r\n    }\r\n\r\n    /// @notice Calculate bottom boundary of a parcel\r\n    /// @param value Arbitary price of market's Uniswap pair\r\n    /// @return parcel key (bottom boundary)\r\n    function clcParcelInterval(uint value) public view returns (uint){\r\n        if (value <= 0) return dPrice;\r\n        return value.div(dPrice).mul(dPrice).add(dPrice);\r\n    }\r\n\r\n    /// @notice Calculate how many frames there are left untill given frame in input\r\n    /// @param frameKey Timestamp of an arbitary frame in the future\r\n    /// @return number of frames (whole numbers: n=0,1,2...)\r\n    function clcFramesLeft(uint frameKey) public view returns (uint){                      \r\n        return (frameKey.sub(block.timestamp)).div(period).add(1);\r\n    }\r\n\r\n    /// @notice Get current price of a parcel in a frame\r\n    /// @param frameKey Frame's timestamp\r\n    /// @param parcelKey Parcel's key \r\n    /// @return price that the current owner set\r\n    function getCurrentPrice(uint frameKey, uint parcelKey) public view returns (uint){                 \r\n        return frames[frameKey].parcels[parcelKey].currentPrice;\r\n    }\r\n\r\n    /// @notice Get msg senders approved amount of accounting token to this contract (market)\r\n    /// @return approved amount\r\n    function getApprovedAmount() public view returns (uint) {                         \r\n        uint approvedAmount = accountingToken.allowance(msg.sender, address(this));\r\n        return approvedAmount;\r\n    }\r\n\r\n    /// @notice Get frame's award amount (accumulation of different parcel taxes)\r\n    /// @notice Remaining tax of a parcel owner get's returned after a sale (change of ownership). So the award amount isn't for sure untill the frame get's closed.\r\n    /// @param frameKey Frame's timestamp\r\n    /// @return award amount\r\n    function getRewardAmount(uint frameKey) public view returns (uint) {                         \r\n        return frames[frameKey].rewardFund;\r\n    }\r\n\r\n    /// @notice Get number of accounts that owned a specific parcel\r\n    /// @param frameKey Frame's timestamp\r\n    /// @param parcelKey Parcel's key \r\n    /// @return number of owners\r\n    function getNumberOfParcelOwners(uint frameKey, uint parcelKey) public view returns (uint){\r\n        return frames[frameKey].parcels[parcelKey].parcelOwners.length ;\r\n    }\r\n\r\n    /// @notice Calculate parcel owner's index in the array of owners of the parcel\r\n    /// @param frameKey Frame's timestamp\r\n    /// @param parcelKey Parcel's key \r\n    /// @param owner Owners account address\r\n    /// @return owner's index\r\n    function getParcelOwnerIndex(uint frameKey, uint parcelKey, address owner) public view returns (uint) {   \r\n\r\n        //if (parcelCount == 0) return 0;\r\n\r\n        for (uint i=0; i< getNumberOfParcelOwners(frameKey, parcelKey); i++) {\r\n            if (frames[frameKey].parcels[parcelKey].parcelOwners[i].owner == owner) return i;\r\n        }\r\n\r\n        return getNumberOfParcelOwners(frameKey, parcelKey); \r\n    }\r\n\r\n    /// @notice Create a parcel\r\n    /// @param frameKey Frame's timestamp\r\n    /// @param pairPrice Price is the trading pair's price\r\n    /// @return parcelKey\r\n    function getOrCreateParcel(uint frameKey, uint pairPrice) internal returns(uint){\r\n\r\n        uint parcelKey = clcParcelInterval(pairPrice);\r\n\r\n        if (frames[frameKey].parcels[parcelKey].state != SParcel.NULL) return parcelKey;\r\n        \r\n        frames[frameKey].parcels[parcelKey].parcelKey = parcelKey;\r\n        frames[frameKey].parcelKeys.push(parcelKey);\r\n        return parcelKey;\r\n    }\r\n\r\n    /// @notice Calculate amout required to approve to buy a parcel\r\n    /// @param frameKey Frame's timestamp\r\n    /// @param pairPrice Value is trading pair's price (to get correct parcel key) \r\n    /// @param newSellPrice New sell price is required to calculate tax\r\n    /// @return amoun to approve\r\n    function AmountToApprove(uint frameKey, uint pairPrice, uint newSellPrice) public view returns (uint) {             \r\n\r\n        uint parcelKey = clcParcelInterval(pairPrice);\r\n        \r\n        uint numOfFrames = clcFramesLeft(frameKey);\r\n        uint tax = newSellPrice.mul(taxMarket).div(100000).mul(numOfFrames);\r\n\r\n        uint price = frames[frameKey].parcels[parcelKey].currentPrice.add(tax);\r\n\r\n        return price;\r\n    }\r\n\r\n    /// @notice Calculate amout required to approve to buy a parcel\r\n    /// @param timestamp Frame's timestamp get's calculated from this value\r\n    /// @param pairPrice Is trading pair's price (to get correct parcel key) \r\n    /// @param newSellPrice New sell price is required to calculate tax\r\n    function buyParcel(uint timestamp, uint pairPrice, uint newSellPrice) public payable {\r\n        uint frameKey =  getOrCreateFrame(timestamp);                          \r\n        \r\n        uint parcelKey = getOrCreateParcel(frameKey, pairPrice);\r\n\r\n        //Calculate tax from the propoed new price (newSellPrice)\r\n        uint numOfFramesLeft = clcFramesLeft(timestamp);\r\n        uint tax = newSellPrice.mul(taxMarket).div(100000).mul(numOfFramesLeft);\r\n\r\n        //Approved amount has to be at leat equal to price of the Parcel(with tax)\r\n        require(accountingToken.allowance(msg.sender, address(this)) >= frames[frameKey].parcels[parcelKey].currentPrice.add(tax), \"APPROVED AMOUNT IS NOT ENOUGH\");\r\n        \r\n        //Transfer complete tax amount to the frame rewardFund\r\n        accountingToken.transferFrom(msg.sender, address(this), frames[frameKey].parcels[parcelKey].currentPrice.add(tax));\r\n        frames[frameKey].rewardFund = frames[frameKey].rewardFund.add(tax);\r\n\r\n\r\n\r\n        if (frames[frameKey].parcels[parcelKey].state == SParcel.BOUGHT) {\r\n            //Pay the Parcel price to current owner + return tax\r\n            uint oldTaxToReturn = frames[frameKey].parcels[parcelKey].currentPrice.mul(taxMarket).div(100000).mul(numOfFramesLeft);\r\n            uint amount = (oldTaxToReturn.add(frames[frameKey].parcels[parcelKey].currentPrice));\r\n            accountingToken.transfer(frames[frameKey].parcels[parcelKey].parcelOwners[getNumberOfParcelOwners(frameKey, parcelKey).sub(1)].owner, amount);\r\n            frames[frameKey].rewardFund = frames[frameKey].rewardFund.sub(oldTaxToReturn);\r\n        }\r\n       \r\n        frames[frameKey].parcels[parcelKey].parcelOwners.push(ParcelOwner(payable(msg.sender), block.number));\r\n        frames[frameKey].parcels[parcelKey].state = SParcel.BOUGHT;\r\n        frames[frameKey].parcels[parcelKey].currentPrice = newSellPrice;\r\n    }\r\n\r\n    /// @notice Update trading pair's prices in the frame\r\n    /// @param PriceCumulative Cumulative price\r\n    /// @dev For developement purposes the new price is added as an input\r\n    /// @dev Final version should use uniswap's oracles\r\n    function updateFramePrices(uint PriceCumulative) public {\r\n        uint frameKey = clcFrameTimestamp(block.timestamp);\r\n        frames[frameKey].lastBlockNum = block.number;\r\n        //Correct price if outside settle interval\r\n        if (block.timestamp <= ((frameKey.add(period)).sub(21600))) {\r\n            frames[frameKey].oraclePrice0CumulativeStart = PriceCumulative;\r\n            frames[frameKey].oracleTimestampStart = block.timestamp;\r\n            emit FrameUpdate(frameKey);\r\n        }\r\n        else if (block.timestamp <= frameKey.add(period)) {\r\n            frames[frameKey].oraclePrice0CumulativeEnd = PriceCumulative;\r\n            frames[frameKey].oracleTimestampEnd = block.timestamp;\r\n            emit FrameUpdate(frameKey);\r\n        }\r\n    }\r\n\r\n    /// @notice Close frame\r\n    /// @param frameKey Frame's timestamp\r\n    function closeFrame(uint frameKey) public {\r\n        //Check if frame is opened\r\n        require(frames[frameKey].state == SFrame.OPENED, \"FRAME NOT OPENED\");\r\n        //Check if frame timing is correct\r\n        require(frameKey.add(period) <= block.timestamp, \"FRAME END TIME NOT REACHED\");\r\n        //Check if frame has valid prices\r\n        if (frames[frameKey].oraclePrice0CumulativeStart <= 0 || frames[frameKey].oraclePrice0CumulativeEnd <= 0) {\r\n            frames[frameKey].state = SFrame.INVALID;\r\n        }\r\n        if (frames[frameKey].oraclePrice0CumulativeStart == frames[frameKey].oraclePrice0CumulativeEnd) {\r\n            frames[frameKey].state = SFrame.INVALID;\r\n        }\r\n        frames[frameKey].state = SFrame.CLOSED;\r\n\r\n        //UQ112x112 encoded\r\n        uint priceDiff = frames[frameKey].oraclePrice0CumulativeEnd.sub(frames[frameKey].oraclePrice0CumulativeStart);\r\n        uint timeDiff = frames[frameKey].oracleTimestampEnd.sub(frames[frameKey].oracleTimestampStart);\r\n        //Calculate time-weighted average price -- UQ112x112 encoded\r\n        frames[frameKey].priceAverage = uint(((FixedPoint.div(FixedPoint.uq112x112(uint224(priceDiff)), (uint112(timeDiff)))))._x);\r\n\r\n        //Decode to scalar value\r\n        frames[frameKey].priceAverage = (frames[frameKey].priceAverage >> 112).mul(scalar); \r\n        frames[frameKey].priceAverage = (frames[frameKey].priceAverage << 112).div(1e49);\r\n\r\n        //Subtract fees from the reward amount and send them to Owners of the market and protocol\r\n        uint marketOwnerFees = frames[frameKey].rewardFund.mul(feeMarket).div(100000);\r\n        uint protocolOwnerFees = frames[frameKey].rewardFund.mul(feeProtocol).div(100000);\r\n\r\n        frames[frameKey].rewardFund = frames[frameKey].rewardFund.sub(marketOwnerFees).sub(protocolOwnerFees);\r\n        accountingToken.transfer(ownerMarket, marketOwnerFees);\r\n        accountingToken.transfer(factory.owner(), protocolOwnerFees);\r\n\r\n        emit FrameUpdate(frameKey);\r\n    }\r\n\r\n    /// @notice Settle parcel for a owner. Owner's share of the reward amount get's transfered to owner's account\r\n    /// @param frameKey Frame's timestamp\r\n    /// @param owner Owner's address\r\n    function settleParcel(uint frameKey, address owner) public {  \r\n        //Check if frame is closed\r\n        require(frames[frameKey].state == SFrame.CLOSED, \"FRAME NOT CLOSED\");    \r\n        uint parcelKeyWin = (clcParcelInterval(frames[frameKey].priceAverage));\r\n\r\n        uint amount = clcSettleAmount(frameKey, parcelKeyWin, owner);\r\n        accountingToken.transfer(owner, amount);\r\n    }\r\n\r\n    /// @notice Calculate owner's share based on the number of blocks the account owned the parcel\r\n    /// @param frameKey Frame's timestamp\r\n    /// @param parcelKey Parcel's key\r\n    /// @param owner Owner's address\r\n    /// @return Owner's precentage\r\n    function clcShare(uint frameKey, uint parcelKey, address owner) public view returns (uint) {\r\n        uint ownerIndex = getParcelOwnerIndex(frameKey, parcelKey, owner);\r\n        require(ownerIndex < getNumberOfParcelOwners(frameKey, parcelKey), \"OWNER DOES NOT EXIST\"); \r\n\r\n        Parcel memory parcel = frames[frameKey].parcels[parcelKey];\r\n\r\n        uint ownerBlock= parcel.parcelOwners[ownerIndex].blockNum;\r\n        uint endBlock = frames[frameKey].lastBlockNum;\r\n        uint firstOwnerBlock= parcel.parcelOwners[0].blockNum;\r\n        uint nextOwnerBlock;\r\n\r\n        if (getNumberOfParcelOwners(frameKey, parcelKey)-1 == ownerIndex) nextOwnerBlock = endBlock;\r\n        else nextOwnerBlock = parcel.parcelOwners[ownerIndex + 1].blockNum;\r\n\r\n        //nextOwnerBlock = parcels[parcelIndex].parcelOwners[ownerIndex + 1].blockNum;\r\n    \r\n        uint ownerBlocks = nextOwnerBlock.sub(ownerBlock);\r\n        uint allBlocks = endBlock.sub(firstOwnerBlock);\r\n\r\n        uint share = ownerBlocks.mul(scalar).div(allBlocks);\r\n        return share;     \r\n    }\r\n\r\n    /// @notice Calculate owner's winning amount\r\n    /// @param frameKey Frame's timestamp\r\n    /// @param parcelKey Parcel's key\r\n    /// @param owner Owner's address\r\n    /// @return Owner's winnings\r\n    function clcSettleAmount(uint frameKey, uint parcelKey, address owner) public view returns (uint){\r\n        \r\n        return clcShare(frameKey, parcelKey, owner).mul(frames[frameKey].rewardFund).div(scalar);\r\n\r\n    }\r\n\r\n\r\n\r\n\r\n}",
  "sourcePath": "D:/prog/UniHedge/core/contracts/Market.sol",
  "compiler": {
    "name": "solc",
    "version": "0.8.6+commit.11564f7e.Emscripten.clang"
  },
  "schemaVersion": "3.4.1",
  "updatedAt": "2021-07-04T20:08:30.829Z",
  "devdoc": {
    "author": "UniHedge",
    "details": "All function calls are currently implemented without side effects",
    "kind": "dev",
    "methods": {
      "AmountToApprove(uint256,uint256,uint256)": {
        "params": {
          "frameKey": "Frame's timestamp",
          "newSellPrice": "New sell price is required to calculate tax",
          "pairPrice": "Value is trading pair's price (to get correct parcel key) "
        },
        "returns": {
          "_0": "amoun to approve"
        }
      },
      "buyParcel(uint256,uint256,uint256)": {
        "params": {
          "newSellPrice": "New sell price is required to calculate tax",
          "pairPrice": "Is trading pair's price (to get correct parcel key) ",
          "timestamp": "Frame's timestamp get's calculated from this value"
        }
      },
      "clcFrameTimestamp(uint256)": {
        "params": {
          "timestamp": "In seconds"
        },
        "returns": {
          "_0": "frame's timestamp (key)"
        }
      },
      "clcFramesLeft(uint256)": {
        "params": {
          "frameKey": "Timestamp of an arbitary frame in the future"
        },
        "returns": {
          "_0": "number of frames (whole numbers: n=0,1,2...)"
        }
      },
      "clcParcelInterval(uint256)": {
        "params": {
          "value": "Arbitary price of market's Uniswap pair"
        },
        "returns": {
          "_0": "parcel key (bottom boundary)"
        }
      },
      "clcSettleAmount(uint256,uint256,address)": {
        "params": {
          "frameKey": "Frame's timestamp",
          "owner": "Owner's address",
          "parcelKey": "Parcel's key"
        },
        "returns": {
          "_0": "Owner's winnings"
        }
      },
      "clcShare(uint256,uint256,address)": {
        "params": {
          "frameKey": "Frame's timestamp",
          "owner": "Owner's address",
          "parcelKey": "Parcel's key"
        },
        "returns": {
          "_0": "Owner's precentage"
        }
      },
      "closeFrame(uint256)": {
        "params": {
          "frameKey": "Frame's timestamp"
        }
      },
      "getApprovedAmount()": {
        "returns": {
          "_0": "approved amount"
        }
      },
      "getCurrentPrice(uint256,uint256)": {
        "params": {
          "frameKey": "Frame's timestamp",
          "parcelKey": "Parcel's key "
        },
        "returns": {
          "_0": "price that the current owner set"
        }
      },
      "getNumberOfParcelOwners(uint256,uint256)": {
        "params": {
          "frameKey": "Frame's timestamp",
          "parcelKey": "Parcel's key "
        },
        "returns": {
          "_0": "number of owners"
        }
      },
      "getOrCreateFrame(uint256)": {
        "params": {
          "timestamp": "In second."
        },
        "returns": {
          "_0": "frameTimestamp Frame's key (timestamp that indicated the beggining of a frame)."
        }
      },
      "getParcelOwnerIndex(uint256,uint256,address)": {
        "params": {
          "frameKey": "Frame's timestamp",
          "owner": "Owners account address",
          "parcelKey": "Parcel's key "
        },
        "returns": {
          "_0": "owner's index"
        }
      },
      "getRewardAmount(uint256)": {
        "params": {
          "frameKey": "Frame's timestamp"
        },
        "returns": {
          "_0": "award amount"
        }
      },
      "settleParcel(uint256,address)": {
        "params": {
          "frameKey": "Frame's timestamp",
          "owner": "Owner's address"
        }
      },
      "updateFramePrices(uint256)": {
        "details": "For developement purposes the new price is added as an inputFinal version should use uniswap's oracles",
        "params": {
          "PriceCumulative": "Cumulative price"
        }
      }
    },
    "title": "TWPM Market",
    "version": 1
  },
  "userdoc": {
    "kind": "user",
    "methods": {
      "AmountToApprove(uint256,uint256,uint256)": {
        "notice": "Calculate amout required to approve to buy a parcel"
      },
      "buyParcel(uint256,uint256,uint256)": {
        "notice": "Calculate amout required to approve to buy a parcel"
      },
      "clcFrameTimestamp(uint256)": {
        "notice": "Calculate frames timestamp (beggining of frame)"
      },
      "clcFramesLeft(uint256)": {
        "notice": "Calculate how many frames there are left untill given frame in input"
      },
      "clcParcelInterval(uint256)": {
        "notice": "Calculate bottom boundary of a parcel"
      },
      "clcSettleAmount(uint256,uint256,address)": {
        "notice": "Calculate owner's winning amount"
      },
      "clcShare(uint256,uint256,address)": {
        "notice": "Calculate owner's share based on the number of blocks the account owned the parcel"
      },
      "closeFrame(uint256)": {
        "notice": "Close frame"
      },
      "getApprovedAmount()": {
        "notice": "Get msg senders approved amount of accounting token to this contract (market)"
      },
      "getCurrentPrice(uint256,uint256)": {
        "notice": "Get current price of a parcel in a frame"
      },
      "getNumberOfParcelOwners(uint256,uint256)": {
        "notice": "Get number of accounts that owned a specific parcel"
      },
      "getOrCreateFrame(uint256)": {
        "notice": "Create a frame"
      },
      "getParcelOwnerIndex(uint256,uint256,address)": {
        "notice": "Calculate parcel owner's index in the array of owners of the parcel"
      },
      "getRewardAmount(uint256)": {
        "notice": "Get frame's award amount (accumulation of different parcel taxes)Remaining tax of a parcel owner get's returned after a sale (change of ownership). So the award amount isn't for sure untill the frame get's closed."
      },
      "settleParcel(uint256,address)": {
        "notice": "Settle parcel for a owner. Owner's share of the reward amount get's transfered to owner's account"
      },
      "updateFramePrices(uint256)": {
        "notice": "Update trading pair's prices in the frame"
      }
    },
    "notice": "You can use this contract for only the most basic simulation",
    "version": 1
  }
}