{
  "contractName": "priceOracles",
  "abi": [
    {
      "inputs": [
        {
          "internalType": "contract IUniswapV2Pair",
          "name": "uniswapPair",
          "type": "address"
        }
      ],
      "name": "getOracleAccPrice",
      "outputs": [
        {
          "components": [
            {
              "internalType": "uint256",
              "name": "oraclePriceCumulative",
              "type": "uint256"
            },
            {
              "internalType": "uint256",
              "name": "oracleTimestamp",
              "type": "uint256"
            }
          ],
          "internalType": "struct priceOracles.Frame",
          "name": "",
          "type": "tuple"
        }
      ],
      "stateMutability": "view",
      "type": "function"
    },
    {
      "inputs": [
        {
          "internalType": "uint256",
          "name": "price1",
          "type": "uint256"
        },
        {
          "internalType": "uint256",
          "name": "t1",
          "type": "uint256"
        },
        {
          "internalType": "uint256",
          "name": "price2",
          "type": "uint256"
        },
        {
          "internalType": "uint256",
          "name": "t2",
          "type": "uint256"
        }
      ],
      "name": "clcAveragePrice",
      "outputs": [
        {
          "internalType": "uint256",
          "name": "",
          "type": "uint256"
        }
      ],
      "stateMutability": "view",
      "type": "function"
    }
  ],
  "bytecode": "0x608060405269d3c21bcecceda100000060005534801561001e57600080fd5b50610b688061002e6000396000f3fe608060405234801561001057600080fd5b50600436106100365760003560e01c8063643542921461003b578063c30b96811461006b575b600080fd5b61005560048036038101906100509190610645565b61009b565b60405161006291906107e9565b60405180910390f35b610085600480360381019061008091906106f2565b6100df565b6040516100929190610804565b60405180910390f35b6100a3610591565b6100ab610591565b60006100b684610178565b8063ffffffff169050846000018560200182815250829450838152505050508192505050919050565b6000806100f586856103d390919063ffffffff16565b9050600061010c86856103d390919063ffffffff16565b905060006101466040518060200160405280857bffffffffffffffffffffffffffffffffffffffffffffffffffffffff16815250836103e9565b600001517bffffffffffffffffffffffffffffffffffffffffffffffffffffffff169050809350505050949350505050565b6000806000610185610499565b90508373ffffffffffffffffffffffffffffffffffffffff16635909c0d56040518163ffffffff1660e01b815260040160206040518083038186803b1580156101cd57600080fd5b505afa1580156101e1573d6000803e3d6000fd5b505050506040513d601f19601f8201168201806040525081019061020591906106c5565b92508373ffffffffffffffffffffffffffffffffffffffff16635a3d54936040518163ffffffff1660e01b815260040160206040518083038186803b15801561024d57600080fd5b505afa158015610261573d6000803e3d6000fd5b505050506040513d601f19601f8201168201806040525081019061028591906106c5565b915060008060008673ffffffffffffffffffffffffffffffffffffffff16630902f1ac6040518163ffffffff1660e01b815260040160606040518083038186803b1580156102d257600080fd5b505afa1580156102e6573d6000803e3d6000fd5b505050506040513d601f19601f8201168201806040525081019061030a9190610672565b9250925092508363ffffffff168163ffffffff16146103c957600081856103319190610945565b90508063ffffffff1661034484866104b1565b600001517bffffffffffffffffffffffffffffffffffffffffffffffffffffffff1661037091906108b7565b8761037b9190610830565b96508063ffffffff1661038e85856104b1565b600001517bffffffffffffffffffffffffffffffffffffffffffffffffffffffff166103ba91906108b7565b866103c59190610830565b9550505b5050509193909250565b600081836103e19190610911565b905092915050565b6103f16105ab565b6000826dffffffffffffffffffffffffffff161415610445576040517f08c379a000000000000000000000000000000000000000000000000000000000815260040161043c906107c9565b60405180910390fd5b6040518060200160405280836dffffffffffffffffffffffffffff1685600001516104709190610886565b7bffffffffffffffffffffffffffffffffffffffffffffffffffffffff16815250905092915050565b6000640100000000426104ac9190610a19565b905090565b6104b96105ab565b6000826dffffffffffffffffffffffffffff161161050c576040517f08c379a0000000000000000000000000000000000000000000000000000000008152600401610503906107c9565b60405180910390fd5b6040518060200160405280836dffffffffffffffffffffffffffff16607060ff16866dffffffffffffffffffffffffffff167bffffffffffffffffffffffffffffffffffffffffffffffffffffffff16901b6105689190610886565b7bffffffffffffffffffffffffffffffffffffffffffffffffffffffff16815250905092915050565b604051806040016040528060008152602001600081525090565b604051806020016040528060007bffffffffffffffffffffffffffffffffffffffffffffffffffffffff1681525090565b6000813590506105eb81610ad6565b92915050565b60008151905061060081610aed565b92915050565b60008135905061061581610b04565b92915050565b60008151905061062a81610b04565b92915050565b60008151905061063f81610b1b565b92915050565b60006020828403121561065b5761065a610aa8565b5b6000610669848285016105dc565b91505092915050565b60008060006060848603121561068b5761068a610aa8565b5b6000610699868287016105f1565b93505060206106aa868287016105f1565b92505060406106bb86828701610630565b9150509250925092565b6000602082840312156106db576106da610aa8565b5b60006106e98482850161061b565b91505092915050565b6000806000806080858703121561070c5761070b610aa8565b5b600061071a87828801610606565b945050602061072b87828801610606565b935050604061073c87828801610606565b925050606061074d87828801610606565b91505092959194509250565b600061076660178361081f565b915061077182610aad565b602082019050919050565b60408201600082015161079260008501826107ab565b5060208201516107a560208501826107ab565b50505050565b6107b4816109ff565b82525050565b6107c3816109ff565b82525050565b600060208201905081810360008301526107e281610759565b9050919050565b60006040820190506107fe600083018461077c565b92915050565b600060208201905061081960008301846107ba565b92915050565b600082825260208201905092915050565b600061083b826109ff565b9150610846836109ff565b9250827fffffffffffffffffffffffffffffffffffffffffffffffffffffffffffffffff0382111561087b5761087a610a4a565b5b828201905092915050565b6000610891826109d7565b915061089c836109d7565b9250826108ac576108ab610a79565b5b828204905092915050565b60006108c2826109ff565b91506108cd836109ff565b9250817fffffffffffffffffffffffffffffffffffffffffffffffffffffffffffffffff048311821515161561090657610905610a4a565b5b828202905092915050565b600061091c826109ff565b9150610927836109ff565b92508282101561093a57610939610a4a565b5b828203905092915050565b600061095082610a09565b915061095b83610a09565b92508282101561096e5761096d610a4a565b5b828203905092915050565b6000610984826109b7565b9050919050565b600061099682610979565b9050919050565b60006dffffffffffffffffffffffffffff82169050919050565b600073ffffffffffffffffffffffffffffffffffffffff82169050919050565b60007bffffffffffffffffffffffffffffffffffffffffffffffffffffffff82169050919050565b6000819050919050565b600063ffffffff82169050919050565b6000610a24826109ff565b9150610a2f836109ff565b925082610a3f57610a3e610a79565b5b828206905092915050565b7f4e487b7100000000000000000000000000000000000000000000000000000000600052601160045260246000fd5b7f4e487b7100000000000000000000000000000000000000000000000000000000600052601260045260246000fd5b600080fd5b7f4669786564506f696e743a204449565f42595f5a45524f000000000000000000600082015250565b610adf8161098b565b8114610aea57600080fd5b50565b610af68161099d565b8114610b0157600080fd5b50565b610b0d816109ff565b8114610b1857600080fd5b50565b610b2481610a09565b8114610b2f57600080fd5b5056fea26469706673582212202f7fdc47cde5a8c1c4628afc7215fcafade8d11b222e10f12adc67b67a4fbc8e64736f6c63430008070033",
  "immutableReferences": {},
  "source": "    \r\n// SPDX-License-Identifier: MIT\r\npragma solidity ^0.8.0;\r\n//pragma experimental ABIEncoderV2;\r\n\r\nimport \"@uniswap/v2-core/contracts/interfaces/IUniswapV2Pair.sol\";\r\nimport \"@uniswap/v2-periphery/contracts/libraries/UniswapV2OracleLibrary.sol\";\r\nimport \"@uniswap/lib/contracts/libraries/FixedPoint.sol\";\r\nimport \"@openzeppelin/contracts/utils/math/SafeMath.sol\";\r\n\r\ncontract priceOracles {\r\n\r\n    using SafeMath for uint;\r\n    uint scalar = 1e24;\r\n\r\n\r\n    struct Frame {\r\n        uint oraclePriceCumulative;\r\n        uint oracleTimestamp;\r\n    }\r\n\r\n    function getOracleAccPrice(IUniswapV2Pair uniswapPair) public view returns (Frame memory) {\r\n        Frame memory frame;\r\n        uint tmp;\r\n        (frame.oraclePriceCumulative, tmp, frame.oracleTimestamp) = UniswapV2OracleLibrary.currentCumulativePrices(address(uniswapPair));\r\n        return frame;\r\n    }\r\n\r\n    function clcAveragePrice(uint price1, uint t1, uint price2, uint t2) public view returns (uint) {\r\n        uint dP = price2.sub(price1);\r\n        uint dT = t2.sub(t1);\r\n        //Calculate average price UQ112x112 encoded\r\n        uint avg = uint(((FixedPoint.div(FixedPoint.uq112x112(uint224(dP)), (uint112(dT)))))._x);\r\n        //Decode to scalar value\r\n        return avg;\r\n    }\r\n\r\n}\r\n    \r\n    \r\n    \r\n",
  "sourcePath": "D:/prog/UniHedge/core/contracts/priceOracles.sol",
  "compiler": {
    "name": "solc",
    "version": "0.8.7+commit.e28d00a7.Emscripten.clang"
  },
  "schemaVersion": "3.4.1",
  "updatedAt": "2021-08-28T20:33:44.858Z",
  "devdoc": {
    "kind": "dev",
    "methods": {},
    "version": 1
  },
  "userdoc": {
    "kind": "user",
    "methods": {},
    "version": 1
  }
}