{
  "contractName": "Token",
  "abi": [
    {
      "inputs": [
        {
          "internalType": "string",
          "name": "name",
          "type": "string"
        },
        {
          "internalType": "string",
          "name": "symbol",
          "type": "string"
        },
        {
          "internalType": "uint256",
          "name": "initialSupply",
          "type": "uint256"
        }
      ],
      "stateMutability": "nonpayable",
      "type": "constructor"
    },
    {
      "anonymous": false,
      "inputs": [
        {
          "indexed": true,
          "internalType": "address",
          "name": "owner",
          "type": "address"
        },
        {
          "indexed": true,
          "internalType": "address",
          "name": "spender",
          "type": "address"
        },
        {
          "indexed": false,
          "internalType": "uint256",
          "name": "value",
          "type": "uint256"
        }
      ],
      "name": "Approval",
      "type": "event"
    },
    {
      "anonymous": false,
      "inputs": [
        {
          "indexed": true,
          "internalType": "address",
          "name": "from",
          "type": "address"
        },
        {
          "indexed": true,
          "internalType": "address",
          "name": "to",
          "type": "address"
        },
        {
          "indexed": false,
          "internalType": "uint256",
          "name": "value",
          "type": "uint256"
        }
      ],
      "name": "Transfer",
      "type": "event"
    },
    {
      "inputs": [
        {
          "internalType": "address",
          "name": "owner",
          "type": "address"
        },
        {
          "internalType": "address",
          "name": "spender",
          "type": "address"
        }
      ],
      "name": "allowance",
      "outputs": [
        {
          "internalType": "uint256",
          "name": "",
          "type": "uint256"
        }
      ],
      "stateMutability": "view",
      "type": "function",
      "constant": true
    },
    {
      "inputs": [
        {
          "internalType": "address",
          "name": "spender",
          "type": "address"
        },
        {
          "internalType": "uint256",
          "name": "amount",
          "type": "uint256"
        }
      ],
      "name": "approve",
      "outputs": [
        {
          "internalType": "bool",
          "name": "",
          "type": "bool"
        }
      ],
      "stateMutability": "nonpayable",
      "type": "function"
    },
    {
      "inputs": [
        {
          "internalType": "address",
          "name": "account",
          "type": "address"
        }
      ],
      "name": "balanceOf",
      "outputs": [
        {
          "internalType": "uint256",
          "name": "",
          "type": "uint256"
        }
      ],
      "stateMutability": "view",
      "type": "function",
      "constant": true
    },
    {
      "inputs": [],
      "name": "decimals",
      "outputs": [
        {
          "internalType": "uint8",
          "name": "",
          "type": "uint8"
        }
      ],
      "stateMutability": "view",
      "type": "function",
      "constant": true
    },
    {
      "inputs": [
        {
          "internalType": "address",
          "name": "spender",
          "type": "address"
        },
        {
          "internalType": "uint256",
          "name": "subtractedValue",
          "type": "uint256"
        }
      ],
      "name": "decreaseAllowance",
      "outputs": [
        {
          "internalType": "bool",
          "name": "",
          "type": "bool"
        }
      ],
      "stateMutability": "nonpayable",
      "type": "function"
    },
    {
      "inputs": [
        {
          "internalType": "address",
          "name": "spender",
          "type": "address"
        },
        {
          "internalType": "uint256",
          "name": "addedValue",
          "type": "uint256"
        }
      ],
      "name": "increaseAllowance",
      "outputs": [
        {
          "internalType": "bool",
          "name": "",
          "type": "bool"
        }
      ],
      "stateMutability": "nonpayable",
      "type": "function"
    },
    {
      "inputs": [],
      "name": "name",
      "outputs": [
        {
          "internalType": "string",
          "name": "",
          "type": "string"
        }
      ],
      "stateMutability": "view",
      "type": "function",
      "constant": true
    },
    {
      "inputs": [],
      "name": "symbol",
      "outputs": [
        {
          "internalType": "string",
          "name": "",
          "type": "string"
        }
      ],
      "stateMutability": "view",
      "type": "function",
      "constant": true
    },
    {
      "inputs": [],
      "name": "totalSupply",
      "outputs": [
        {
          "internalType": "uint256",
          "name": "",
          "type": "uint256"
        }
      ],
      "stateMutability": "view",
      "type": "function",
      "constant": true
    },
    {
      "inputs": [
        {
          "internalType": "address",
          "name": "recipient",
          "type": "address"
        },
        {
          "internalType": "uint256",
          "name": "amount",
          "type": "uint256"
        }
      ],
      "name": "transfer",
      "outputs": [
        {
          "internalType": "bool",
          "name": "",
          "type": "bool"
        }
      ],
      "stateMutability": "nonpayable",
      "type": "function"
    },
    {
      "inputs": [
        {
          "internalType": "address",
          "name": "sender",
          "type": "address"
        },
        {
          "internalType": "address",
          "name": "recipient",
          "type": "address"
        },
        {
          "internalType": "uint256",
          "name": "amount",
          "type": "uint256"
        }
      ],
      "name": "transferFrom",
      "outputs": [
        {
          "internalType": "bool",
          "name": "",
          "type": "bool"
        }
      ],
      "stateMutability": "nonpayable",
      "type": "function"
    },
    {
      "inputs": [],
      "name": "loadMore",
      "outputs": [],
      "stateMutability": "nonpayable",
      "type": "function"
    },
    {
      "inputs": [
        {
          "internalType": "address",
          "name": "owner",
          "type": "address"
        }
      ],
      "name": "burn",
      "outputs": [],
      "stateMutability": "nonpayable",
      "type": "function"
    }
  ],
  "bytecode": "0x60806040523480156200001157600080fd5b5060405162001ffa38038062001ffa833981810160405281019062000037919062000350565b82828160039080519060200190620000519291906200020b565b5080600490805190602001906200006a9291906200020b565b5050506200007f33826200008860201b60201c565b505050620006cf565b600073ffffffffffffffffffffffffffffffffffffffff168273ffffffffffffffffffffffffffffffffffffffff161415620000fb576040517f08c379a0000000000000000000000000000000000000000000000000000000008152600401620000f29062000422565b60405180910390fd5b6200010f600083836200020160201b60201c565b8060026000828254620001239190620004d1565b92505081905550806000808473ffffffffffffffffffffffffffffffffffffffff1673ffffffffffffffffffffffffffffffffffffffff16815260200190815260200160002060008282546200017a9190620004d1565b925050819055508173ffffffffffffffffffffffffffffffffffffffff16600073ffffffffffffffffffffffffffffffffffffffff167fddf252ad1be2c89b69c2b068fc378daa952ba7f163c4a11628f55a4df523b3ef83604051620001e1919062000444565b60405180910390a3620001fd600083836200020660201b60201c565b5050565b505050565b505050565b82805462000219906200056e565b90600052602060002090601f0160209004810192826200023d576000855562000289565b82601f106200025857805160ff191683800117855562000289565b8280016001018555821562000289579182015b82811115620002885782518255916020019190600101906200026b565b5b5090506200029891906200029c565b5090565b5b80821115620002b75760008160009055506001016200029d565b5090565b6000620002d2620002cc846200048a565b62000461565b905082815260208101848484011115620002f157620002f06200066c565b5b620002fe84828562000538565b509392505050565b600082601f8301126200031e576200031d62000667565b5b815162000330848260208601620002bb565b91505092915050565b6000815190506200034a81620006b5565b92915050565b6000806000606084860312156200036c576200036b62000676565b5b600084015167ffffffffffffffff8111156200038d576200038c62000671565b5b6200039b8682870162000306565b935050602084015167ffffffffffffffff811115620003bf57620003be62000671565b5b620003cd8682870162000306565b9250506040620003e08682870162000339565b9150509250925092565b6000620003f9601f83620004c0565b915062000406826200068c565b602082019050919050565b6200041c816200052e565b82525050565b600060208201905081810360008301526200043d81620003ea565b9050919050565b60006020820190506200045b600083018462000411565b92915050565b60006200046d62000480565b90506200047b8282620005a4565b919050565b6000604051905090565b600067ffffffffffffffff821115620004a857620004a762000638565b5b620004b3826200067b565b9050602081019050919050565b600082825260208201905092915050565b6000620004de826200052e565b9150620004eb836200052e565b9250827fffffffffffffffffffffffffffffffffffffffffffffffffffffffffffffffff03821115620005235762000522620005da565b5b828201905092915050565b6000819050919050565b60005b83811015620005585780820151818401526020810190506200053b565b8381111562000568576000848401525b50505050565b600060028204905060018216806200058757607f821691505b602082108114156200059e576200059d62000609565b5b50919050565b620005af826200067b565b810181811067ffffffffffffffff82111715620005d157620005d062000638565b5b80604052505050565b7f4e487b7100000000000000000000000000000000000000000000000000000000600052601160045260246000fd5b7f4e487b7100000000000000000000000000000000000000000000000000000000600052602260045260246000fd5b7f4e487b7100000000000000000000000000000000000000000000000000000000600052604160045260246000fd5b600080fd5b600080fd5b600080fd5b600080fd5b6000601f19601f8301169050919050565b7f45524332303a206d696e7420746f20746865207a65726f206164647265737300600082015250565b620006c0816200052e565b8114620006cc57600080fd5b50565b61191b80620006df6000396000f3fe608060405234801561001057600080fd5b50600436106100cf5760003560e01c8063395093511161008c57806395d89b411161006657806395d89b4114610214578063a457c2d714610232578063a9059cbb14610262578063dd62ed3e14610292576100cf565b8063395093511461019857806370a08231146101c857806389afcb44146101f8576100cf565b806306fdde03146100d4578063095ea7b3146100f2578063173e1d681461012257806318160ddd1461012c57806323b872dd1461014a578063313ce5671461017a575b600080fd5b6100dc6102c2565b6040516100e9919061125b565b60405180910390f35b61010c6004803603810190610107919061103c565b610354565b6040516101199190611240565b60405180910390f35b61012a610372565b005b610134610387565b60405161014191906113bd565b60405180910390f35b610164600480360381019061015f9190610fe9565b610391565b6040516101719190611240565b60405180910390f35b610182610489565b60405161018f91906113d8565b60405180910390f35b6101b260048036038101906101ad919061103c565b610492565b6040516101bf9190611240565b60405180910390f35b6101e260048036038101906101dd9190610f7c565b61053e565b6040516101ef91906113bd565b60405180910390f35b610212600480360381019061020d9190610f7c565b610586565b005b61021c61059b565b604051610229919061125b565b60405180910390f35b61024c6004803603810190610247919061103c565b61062d565b6040516102599190611240565b60405180910390f35b61027c6004803603810190610277919061103c565b610718565b6040516102899190611240565b60405180910390f35b6102ac60048036038101906102a79190610fa9565b610736565b6040516102b991906113bd565b60405180910390f35b6060600380546102d190611521565b80601f01602080910402602001604051908101604052809291908181526020018280546102fd90611521565b801561034a5780601f1061031f5761010080835404028352916020019161034a565b820191906000526020600020905b81548152906001019060200180831161032d57829003601f168201915b5050505050905090565b60006103686103616107bd565b84846107c5565b6001905092915050565b61038533683635c9adc5dea00000610990565b565b6000600254905090565b600061039e848484610af0565b6000600160008673ffffffffffffffffffffffffffffffffffffffff1673ffffffffffffffffffffffffffffffffffffffff16815260200190815260200160002060006103e96107bd565b73ffffffffffffffffffffffffffffffffffffffff1673ffffffffffffffffffffffffffffffffffffffff16815260200190815260200160002054905082811015610469576040517f08c379a0000000000000000000000000000000000000000000000000000000008152600401610460906112fd565b60405180910390fd5b61047d856104756107bd565b8584036107c5565b60019150509392505050565b60006012905090565b600061053461049f6107bd565b8484600160006104ad6107bd565b73ffffffffffffffffffffffffffffffffffffffff1673ffffffffffffffffffffffffffffffffffffffff16815260200190815260200160002060008873ffffffffffffffffffffffffffffffffffffffff1673ffffffffffffffffffffffffffffffffffffffff1681526020019081526020016000205461052f919061140f565b6107c5565b6001905092915050565b60008060008373ffffffffffffffffffffffffffffffffffffffff1673ffffffffffffffffffffffffffffffffffffffff168152602001908152602001600020549050919050565b610598816105938361053e565b610d71565b50565b6060600480546105aa90611521565b80601f01602080910402602001604051908101604052809291908181526020018280546105d690611521565b80156106235780601f106105f857610100808354040283529160200191610623565b820191906000526020600020905b81548152906001019060200180831161060657829003601f168201915b5050505050905090565b6000806001600061063c6107bd565b73ffffffffffffffffffffffffffffffffffffffff1673ffffffffffffffffffffffffffffffffffffffff16815260200190815260200160002060008573ffffffffffffffffffffffffffffffffffffffff1673ffffffffffffffffffffffffffffffffffffffff168152602001908152602001600020549050828110156106f9576040517f08c379a00000000000000000000000000000000000000000000000000000000081526004016106f09061137d565b60405180910390fd5b61070d6107046107bd565b858584036107c5565b600191505092915050565b600061072c6107256107bd565b8484610af0565b6001905092915050565b6000600160008473ffffffffffffffffffffffffffffffffffffffff1673ffffffffffffffffffffffffffffffffffffffff16815260200190815260200160002060008373ffffffffffffffffffffffffffffffffffffffff1673ffffffffffffffffffffffffffffffffffffffff16815260200190815260200160002054905092915050565b600033905090565b600073ffffffffffffffffffffffffffffffffffffffff168373ffffffffffffffffffffffffffffffffffffffff161415610835576040517f08c379a000000000000000000000000000000000000000000000000000000000815260040161082c9061135d565b60405180910390fd5b600073ffffffffffffffffffffffffffffffffffffffff168273ffffffffffffffffffffffffffffffffffffffff1614156108a5576040517f08c379a000000000000000000000000000000000000000000000000000000000815260040161089c906112bd565b60405180910390fd5b80600160008573ffffffffffffffffffffffffffffffffffffffff1673ffffffffffffffffffffffffffffffffffffffff16815260200190815260200160002060008473ffffffffffffffffffffffffffffffffffffffff1673ffffffffffffffffffffffffffffffffffffffff168152602001908152602001600020819055508173ffffffffffffffffffffffffffffffffffffffff168373ffffffffffffffffffffffffffffffffffffffff167f8c5be1e5ebec7d5bd14f71427d1e84f3dd0314c0f7b2291e5b200ac8c7c3b9258360405161098391906113bd565b60405180910390a3505050565b600073ffffffffffffffffffffffffffffffffffffffff168273ffffffffffffffffffffffffffffffffffffffff161415610a00576040517f08c379a00000000000000000000000000000000000000000000000000000000081526004016109f79061139d565b60405180910390fd5b610a0c60008383610f48565b8060026000828254610a1e919061140f565b92505081905550806000808473ffffffffffffffffffffffffffffffffffffffff1673ffffffffffffffffffffffffffffffffffffffff1681526020019081526020016000206000828254610a73919061140f565b925050819055508173ffffffffffffffffffffffffffffffffffffffff16600073ffffffffffffffffffffffffffffffffffffffff167fddf252ad1be2c89b69c2b068fc378daa952ba7f163c4a11628f55a4df523b3ef83604051610ad891906113bd565b60405180910390a3610aec60008383610f4d565b5050565b600073ffffffffffffffffffffffffffffffffffffffff168373ffffffffffffffffffffffffffffffffffffffff161415610b60576040517f08c379a0000000000000000000000000000000000000000000000000000000008152600401610b579061133d565b60405180910390fd5b600073ffffffffffffffffffffffffffffffffffffffff168273ffffffffffffffffffffffffffffffffffffffff161415610bd0576040517f08c379a0000000000000000000000000000000000000000000000000000000008152600401610bc79061127d565b60405180910390fd5b610bdb838383610f48565b60008060008573ffffffffffffffffffffffffffffffffffffffff1673ffffffffffffffffffffffffffffffffffffffff16815260200190815260200160002054905081811015610c61576040517f08c379a0000000000000000000000000000000000000000000000000000000008152600401610c58906112dd565b60405180910390fd5b8181036000808673ffffffffffffffffffffffffffffffffffffffff1673ffffffffffffffffffffffffffffffffffffffff16815260200190815260200160002081905550816000808573ffffffffffffffffffffffffffffffffffffffff1673ffffffffffffffffffffffffffffffffffffffff1681526020019081526020016000206000828254610cf4919061140f565b925050819055508273ffffffffffffffffffffffffffffffffffffffff168473ffffffffffffffffffffffffffffffffffffffff167fddf252ad1be2c89b69c2b068fc378daa952ba7f163c4a11628f55a4df523b3ef84604051610d5891906113bd565b60405180910390a3610d6b848484610f4d565b50505050565b600073ffffffffffffffffffffffffffffffffffffffff168273ffffffffffffffffffffffffffffffffffffffff161415610de1576040517f08c379a0000000000000000000000000000000000000000000000000000000008152600401610dd89061131d565b60405180910390fd5b610ded82600083610f48565b60008060008473ffffffffffffffffffffffffffffffffffffffff1673ffffffffffffffffffffffffffffffffffffffff16815260200190815260200160002054905081811015610e73576040517f08c379a0000000000000000000000000000000000000000000000000000000008152600401610e6a9061129d565b60405180910390fd5b8181036000808573ffffffffffffffffffffffffffffffffffffffff1673ffffffffffffffffffffffffffffffffffffffff168152602001908152602001600020819055508160026000828254610eca9190611465565b92505081905550600073ffffffffffffffffffffffffffffffffffffffff168373ffffffffffffffffffffffffffffffffffffffff167fddf252ad1be2c89b69c2b068fc378daa952ba7f163c4a11628f55a4df523b3ef84604051610f2f91906113bd565b60405180910390a3610f4383600084610f4d565b505050565b505050565b505050565b600081359050610f61816118b7565b92915050565b600081359050610f76816118ce565b92915050565b600060208284031215610f9257610f916115b1565b5b6000610fa084828501610f52565b91505092915050565b60008060408385031215610fc057610fbf6115b1565b5b6000610fce85828601610f52565b9250506020610fdf85828601610f52565b9150509250929050565b600080600060608486031215611002576110016115b1565b5b600061101086828701610f52565b935050602061102186828701610f52565b925050604061103286828701610f67565b9150509250925092565b60008060408385031215611053576110526115b1565b5b600061106185828601610f52565b925050602061107285828601610f67565b9150509250929050565b611085816114ab565b82525050565b6000611096826113f3565b6110a081856113fe565b93506110b08185602086016114ee565b6110b9816115b6565b840191505092915050565b60006110d16023836113fe565b91506110dc826115c7565b604082019050919050565b60006110f46022836113fe565b91506110ff82611616565b604082019050919050565b60006111176022836113fe565b915061112282611665565b604082019050919050565b600061113a6026836113fe565b9150611145826116b4565b604082019050919050565b600061115d6028836113fe565b915061116882611703565b604082019050919050565b60006111806021836113fe565b915061118b82611752565b604082019050919050565b60006111a36025836113fe565b91506111ae826117a1565b604082019050919050565b60006111c66024836113fe565b91506111d1826117f0565b604082019050919050565b60006111e96025836113fe565b91506111f48261183f565b604082019050919050565b600061120c601f836113fe565b91506112178261188e565b602082019050919050565b61122b816114d7565b82525050565b61123a816114e1565b82525050565b6000602082019050611255600083018461107c565b92915050565b60006020820190508181036000830152611275818461108b565b905092915050565b60006020820190508181036000830152611296816110c4565b9050919050565b600060208201905081810360008301526112b6816110e7565b9050919050565b600060208201905081810360008301526112d68161110a565b9050919050565b600060208201905081810360008301526112f68161112d565b9050919050565b6000602082019050818103600083015261131681611150565b9050919050565b6000602082019050818103600083015261133681611173565b9050919050565b6000602082019050818103600083015261135681611196565b9050919050565b60006020820190508181036000830152611376816111b9565b9050919050565b60006020820190508181036000830152611396816111dc565b9050919050565b600060208201905081810360008301526113b6816111ff565b9050919050565b60006020820190506113d26000830184611222565b92915050565b60006020820190506113ed6000830184611231565b92915050565b600081519050919050565b600082825260208201905092915050565b600061141a826114d7565b9150611425836114d7565b9250827fffffffffffffffffffffffffffffffffffffffffffffffffffffffffffffffff0382111561145a57611459611553565b5b828201905092915050565b6000611470826114d7565b915061147b836114d7565b92508282101561148e5761148d611553565b5b828203905092915050565b60006114a4826114b7565b9050919050565b60008115159050919050565b600073ffffffffffffffffffffffffffffffffffffffff82169050919050565b6000819050919050565b600060ff82169050919050565b60005b8381101561150c5780820151818401526020810190506114f1565b8381111561151b576000848401525b50505050565b6000600282049050600182168061153957607f821691505b6020821081141561154d5761154c611582565b5b50919050565b7f4e487b7100000000000000000000000000000000000000000000000000000000600052601160045260246000fd5b7f4e487b7100000000000000000000000000000000000000000000000000000000600052602260045260246000fd5b600080fd5b6000601f19601f8301169050919050565b7f45524332303a207472616e7366657220746f20746865207a65726f206164647260008201527f6573730000000000000000000000000000000000000000000000000000000000602082015250565b7f45524332303a206275726e20616d6f756e7420657863656564732062616c616e60008201527f6365000000000000000000000000000000000000000000000000000000000000602082015250565b7f45524332303a20617070726f766520746f20746865207a65726f20616464726560008201527f7373000000000000000000000000000000000000000000000000000000000000602082015250565b7f45524332303a207472616e7366657220616d6f756e742065786365656473206260008201527f616c616e63650000000000000000000000000000000000000000000000000000602082015250565b7f45524332303a207472616e7366657220616d6f756e742065786365656473206160008201527f6c6c6f77616e6365000000000000000000000000000000000000000000000000602082015250565b7f45524332303a206275726e2066726f6d20746865207a65726f2061646472657360008201527f7300000000000000000000000000000000000000000000000000000000000000602082015250565b7f45524332303a207472616e736665722066726f6d20746865207a65726f20616460008201527f6472657373000000000000000000000000000000000000000000000000000000602082015250565b7f45524332303a20617070726f76652066726f6d20746865207a65726f2061646460008201527f7265737300000000000000000000000000000000000000000000000000000000602082015250565b7f45524332303a2064656372656173656420616c6c6f77616e63652062656c6f7760008201527f207a65726f000000000000000000000000000000000000000000000000000000602082015250565b7f45524332303a206d696e7420746f20746865207a65726f206164647265737300600082015250565b6118c081611499565b81146118cb57600080fd5b50565b6118d7816114d7565b81146118e257600080fd5b5056fea26469706673582212205ff0f4b20ed39fd3003447089f3c28f2575a4f925a286014cb9384b4f3d2429a64736f6c63430008060033",
  "immutableReferences": {},
  "source": "// SPDX-License-Identifier: MIT\r\npragma solidity >=0.5.0;\r\nimport \"@openzeppelin/contracts/token/ERC20/ERC20.sol\";\r\n\r\ncontract Token is ERC20{\r\n\r\n    constructor(string memory name, string memory symbol, uint256 initialSupply) ERC20(name, symbol) {\r\n        _mint(msg.sender, initialSupply);\r\n    }\r\n\r\n    function loadMore() public{\r\n        _mint(msg.sender,1000e18);\r\n    }\r\n\r\n    function burn(address owner) public{\r\n        _burn(owner,balanceOf(owner));\r\n    }\r\n}",
  "sourcePath": "D:/prog/UniHedge/core/contracts/Token.sol",
  "compiler": {
    "name": "solc",
    "version": "0.8.6+commit.11564f7e.Emscripten.clang"
  },
  "schemaVersion": "3.4.1",
  "updatedAt": "2021-07-26T17:33:24.873Z",
  "networkType": "ethereum",
  "devdoc": {
    "kind": "dev",
    "methods": {
      "allowance(address,address)": {
        "details": "See {IERC20-allowance}."
      },
      "approve(address,uint256)": {
        "details": "See {IERC20-approve}. Requirements: - `spender` cannot be the zero address."
      },
      "balanceOf(address)": {
        "details": "See {IERC20-balanceOf}."
      },
      "decimals()": {
        "details": "Returns the number of decimals used to get its user representation. For example, if `decimals` equals `2`, a balance of `505` tokens should be displayed to a user as `5,05` (`505 / 10 ** 2`). Tokens usually opt for a value of 18, imitating the relationship between Ether and Wei. This is the value {ERC20} uses, unless this function is overridden; NOTE: This information is only used for _display_ purposes: it in no way affects any of the arithmetic of the contract, including {IERC20-balanceOf} and {IERC20-transfer}."
      },
      "decreaseAllowance(address,uint256)": {
        "details": "Atomically decreases the allowance granted to `spender` by the caller. This is an alternative to {approve} that can be used as a mitigation for problems described in {IERC20-approve}. Emits an {Approval} event indicating the updated allowance. Requirements: - `spender` cannot be the zero address. - `spender` must have allowance for the caller of at least `subtractedValue`."
      },
      "increaseAllowance(address,uint256)": {
        "details": "Atomically increases the allowance granted to `spender` by the caller. This is an alternative to {approve} that can be used as a mitigation for problems described in {IERC20-approve}. Emits an {Approval} event indicating the updated allowance. Requirements: - `spender` cannot be the zero address."
      },
      "name()": {
        "details": "Returns the name of the token."
      },
      "symbol()": {
        "details": "Returns the symbol of the token, usually a shorter version of the name."
      },
      "totalSupply()": {
        "details": "See {IERC20-totalSupply}."
      },
      "transfer(address,uint256)": {
        "details": "See {IERC20-transfer}. Requirements: - `recipient` cannot be the zero address. - the caller must have a balance of at least `amount`."
      },
      "transferFrom(address,address,uint256)": {
        "details": "See {IERC20-transferFrom}. Emits an {Approval} event indicating the updated allowance. This is not required by the EIP. See the note at the beginning of {ERC20}. Requirements: - `sender` and `recipient` cannot be the zero address. - `sender` must have a balance of at least `amount`. - the caller must have allowance for ``sender``'s tokens of at least `amount`."
      }
    },
    "version": 1
  },
  "userdoc": {
    "kind": "user",
    "methods": {},
    "version": 1
  }
}