{
  "_format": "hh-sol-artifact-1",
  "contractName": "Dai",
  "sourceName": "contracts/Dai.sol",
  "abi": [
    {
      "inputs": [
        {
          "internalType": "uint256",
          "name": "chainId_",
          "type": "uint256"
        }
      ],
      "stateMutability": "nonpayable",
      "type": "constructor"
    },
    {
      "anonymous": false,
      "inputs": [
        {
          "indexed": true,
          "internalType": "address",
          "name": "src",
          "type": "address"
        },
        {
          "indexed": true,
          "internalType": "address",
          "name": "guy",
          "type": "address"
        },
        {
          "indexed": false,
          "internalType": "uint256",
          "name": "wad",
          "type": "uint256"
        }
      ],
      "name": "Approval",
      "type": "event"
    },
    {
      "anonymous": false,
      "inputs": [
        {
          "indexed": true,
          "internalType": "address",
          "name": "src",
          "type": "address"
        },
        {
          "indexed": true,
          "internalType": "address",
          "name": "dst",
          "type": "address"
        },
        {
          "indexed": false,
          "internalType": "uint256",
          "name": "wad",
          "type": "uint256"
        }
      ],
      "name": "Transfer",
      "type": "event"
    },
    {
      "inputs": [],
      "name": "DOMAIN_SEPARATOR",
      "outputs": [
        {
          "internalType": "bytes32",
          "name": "",
          "type": "bytes32"
        }
      ],
      "stateMutability": "view",
      "type": "function"
    },
    {
      "inputs": [],
      "name": "PERMIT_TYPEHASH",
      "outputs": [
        {
          "internalType": "bytes32",
          "name": "",
          "type": "bytes32"
        }
      ],
      "stateMutability": "view",
      "type": "function"
    },
    {
      "inputs": [
        {
          "internalType": "address",
          "name": "",
          "type": "address"
        },
        {
          "internalType": "address",
          "name": "",
          "type": "address"
        }
      ],
      "name": "allowance",
      "outputs": [
        {
          "internalType": "uint256",
          "name": "",
          "type": "uint256"
        }
      ],
      "stateMutability": "view",
      "type": "function"
    },
    {
      "inputs": [
        {
          "internalType": "address",
          "name": "usr",
          "type": "address"
        },
        {
          "internalType": "uint256",
          "name": "wad",
          "type": "uint256"
        }
      ],
      "name": "approve",
      "outputs": [
        {
          "internalType": "bool",
          "name": "",
          "type": "bool"
        }
      ],
      "stateMutability": "nonpayable",
      "type": "function"
    },
    {
      "inputs": [
        {
          "internalType": "address",
          "name": "",
          "type": "address"
        }
      ],
      "name": "balanceOf",
      "outputs": [
        {
          "internalType": "uint256",
          "name": "",
          "type": "uint256"
        }
      ],
      "stateMutability": "view",
      "type": "function"
    },
    {
      "inputs": [
        {
          "internalType": "address",
          "name": "usr",
          "type": "address"
        },
        {
          "internalType": "uint256",
          "name": "wad",
          "type": "uint256"
        }
      ],
      "name": "burn",
      "outputs": [],
      "stateMutability": "nonpayable",
      "type": "function"
    },
    {
      "inputs": [],
      "name": "decimals",
      "outputs": [
        {
          "internalType": "uint8",
          "name": "",
          "type": "uint8"
        }
      ],
      "stateMutability": "view",
      "type": "function"
    },
    {
      "inputs": [
        {
          "internalType": "address",
          "name": "guy",
          "type": "address"
        }
      ],
      "name": "deny",
      "outputs": [],
      "stateMutability": "nonpayable",
      "type": "function"
    },
    {
      "inputs": [
        {
          "internalType": "address",
          "name": "usr",
          "type": "address"
        },
        {
          "internalType": "uint256",
          "name": "wad",
          "type": "uint256"
        }
      ],
      "name": "mint",
      "outputs": [],
      "stateMutability": "nonpayable",
      "type": "function"
    },
    {
      "inputs": [
        {
          "internalType": "address",
          "name": "src",
          "type": "address"
        },
        {
          "internalType": "address",
          "name": "dst",
          "type": "address"
        },
        {
          "internalType": "uint256",
          "name": "wad",
          "type": "uint256"
        }
      ],
      "name": "move",
      "outputs": [],
      "stateMutability": "nonpayable",
      "type": "function"
    },
    {
      "inputs": [],
      "name": "name",
      "outputs": [
        {
          "internalType": "string",
          "name": "",
          "type": "string"
        }
      ],
      "stateMutability": "view",
      "type": "function"
    },
    {
      "inputs": [
        {
          "internalType": "address",
          "name": "",
          "type": "address"
        }
      ],
      "name": "nonces",
      "outputs": [
        {
          "internalType": "uint256",
          "name": "",
          "type": "uint256"
        }
      ],
      "stateMutability": "view",
      "type": "function"
    },
    {
      "inputs": [
        {
          "internalType": "address",
          "name": "holder",
          "type": "address"
        },
        {
          "internalType": "address",
          "name": "spender",
          "type": "address"
        },
        {
          "internalType": "uint256",
          "name": "nonce",
          "type": "uint256"
        },
        {
          "internalType": "uint256",
          "name": "expiry",
          "type": "uint256"
        },
        {
          "internalType": "bool",
          "name": "allowed",
          "type": "bool"
        },
        {
          "internalType": "uint8",
          "name": "v",
          "type": "uint8"
        },
        {
          "internalType": "bytes32",
          "name": "r",
          "type": "bytes32"
        },
        {
          "internalType": "bytes32",
          "name": "s",
          "type": "bytes32"
        }
      ],
      "name": "permit",
      "outputs": [],
      "stateMutability": "nonpayable",
      "type": "function"
    },
    {
      "inputs": [
        {
          "internalType": "address",
          "name": "usr",
          "type": "address"
        },
        {
          "internalType": "uint256",
          "name": "wad",
          "type": "uint256"
        }
      ],
      "name": "pull",
      "outputs": [],
      "stateMutability": "nonpayable",
      "type": "function"
    },
    {
      "inputs": [
        {
          "internalType": "address",
          "name": "usr",
          "type": "address"
        },
        {
          "internalType": "uint256",
          "name": "wad",
          "type": "uint256"
        }
      ],
      "name": "push",
      "outputs": [],
      "stateMutability": "nonpayable",
      "type": "function"
    },
    {
      "inputs": [
        {
          "internalType": "address",
          "name": "guy",
          "type": "address"
        }
      ],
      "name": "rely",
      "outputs": [],
      "stateMutability": "nonpayable",
      "type": "function"
    },
    {
      "inputs": [],
      "name": "symbol",
      "outputs": [
        {
          "internalType": "string",
          "name": "",
          "type": "string"
        }
      ],
      "stateMutability": "view",
      "type": "function"
    },
    {
      "inputs": [],
      "name": "totalSupply",
      "outputs": [
        {
          "internalType": "uint256",
          "name": "",
          "type": "uint256"
        }
      ],
      "stateMutability": "view",
      "type": "function"
    },
    {
      "inputs": [
        {
          "internalType": "address",
          "name": "dst",
          "type": "address"
        },
        {
          "internalType": "uint256",
          "name": "wad",
          "type": "uint256"
        }
      ],
      "name": "transfer",
      "outputs": [
        {
          "internalType": "bool",
          "name": "",
          "type": "bool"
        }
      ],
      "stateMutability": "nonpayable",
      "type": "function"
    },
    {
      "inputs": [
        {
          "internalType": "address",
          "name": "src",
          "type": "address"
        },
        {
          "internalType": "address",
          "name": "dst",
          "type": "address"
        },
        {
          "internalType": "uint256",
          "name": "wad",
          "type": "uint256"
        }
      ],
      "name": "transferFrom",
      "outputs": [
        {
          "internalType": "bool",
          "name": "",
          "type": "bool"
        }
      ],
      "stateMutability": "nonpayable",
      "type": "function"
    },
    {
      "inputs": [],
      "name": "version",
      "outputs": [
        {
          "internalType": "string",
          "name": "",
          "type": "string"
        }
      ],
      "stateMutability": "view",
      "type": "function"
    },
    {
      "inputs": [
        {
          "internalType": "address",
          "name": "",
          "type": "address"
        }
      ],
      "name": "wards",
      "outputs": [
        {
          "internalType": "uint256",
          "name": "",
          "type": "uint256"
        }
      ],
      "stateMutability": "view",
      "type": "function"
    }
  ],
  "bytecode": "0x60806040523480156200001157600080fd5b50604051620022a6380380620022a6833981810160405281019062000037919062000168565b60016000803373ffffffffffffffffffffffffffffffffffffffff1673ffffffffffffffffffffffffffffffffffffffff168152602001908152602001600020819055507f8b73c3c69bb8fe3d512ecc4cf759cc79239f7b179b0ffacaa9a75d522b39400f6040518060400160405280600e81526020017f44616920537461626c65636f696e000000000000000000000000000000000000815250805190602001206040518060400160405280600181526020017f31000000000000000000000000000000000000000000000000000000000000008152508051906020012083306040516020016200012e959493929190620001c7565b604051602081830303815290604052805190602001206005819055505062000286565b60008151905062000162816200026c565b92915050565b6000602082840312156200017b57600080fd5b60006200018b8482850162000151565b91505092915050565b6200019f8162000224565b82525050565b620001b08162000238565b82525050565b620001c18162000262565b82525050565b600060a082019050620001de6000830188620001a5565b620001ed6020830187620001a5565b620001fc6040830186620001a5565b6200020b6060830185620001b6565b6200021a608083018462000194565b9695505050505050565b6000620002318262000242565b9050919050565b6000819050919050565b600073ffffffffffffffffffffffffffffffffffffffff82169050919050565b6000819050919050565b620002778162000262565b81146200028357600080fd5b50565b61201080620002966000396000f3fe608060405234801561001057600080fd5b50600436106101425760003560e01c80637ecebe00116100b8578063a9059cbb1161007c578063a9059cbb14610365578063b753a98c14610395578063bb35783b146103b1578063bf353dbb146103cd578063dd62ed3e146103fd578063f2d5d56b1461042d57610142565b80637ecebe00146102c35780638fcbaf0c146102f357806395d89b411461030f5780639c52a7f11461032d5780639dc29fac1461034957610142565b8063313ce5671161010a578063313ce567146102015780633644e5151461021f57806340c10f191461023d57806354fd4d501461025957806365fae35e1461027757806370a082311461029357610142565b806306fdde0314610147578063095ea7b31461016557806318160ddd1461019557806323b872dd146101b357806330adf81f146101e3575b600080fd5b61014f610449565b60405161015c9190611b11565b60405180910390f35b61017f600480360381019061017a919061180f565b610482565b60405161018c9190611a35565b60405180910390f35b61019d610574565b6040516101aa9190611c13565b60405180910390f35b6101cd60048036038101906101c8919061170e565b61057a565b6040516101da9190611a35565b60405180910390f35b6101eb610a29565b6040516101f89190611a50565b60405180910390f35b610209610a50565b6040516102169190611c2e565b60405180910390f35b610227610a55565b6040516102349190611a50565b60405180910390f35b6102576004803603810190610252919061180f565b610a5b565b005b610261610b63565b60405161026e9190611b11565b60405180910390f35b610291600480360381019061028c91906116a9565b610b9c565b005b6102ad60048036038101906102a891906116a9565b610c64565b6040516102ba9190611c13565b60405180910390f35b6102dd60048036038101906102d891906116a9565b610c7c565b6040516102ea9190611c13565b60405180910390f35b61030d6004803603810190610308919061175d565b610c94565b005b610317611049565b6040516103249190611b11565b60405180910390f35b610347600480360381019061034291906116a9565b611082565b005b610363600480360381019061035e919061180f565b61114a565b005b61037f600480360381019061037a919061180f565b611577565b60405161038c9190611a35565b60405180910390f35b6103af60048036038101906103aa919061180f565b61158c565b005b6103cb60048036038101906103c6919061170e565b61159c565b005b6103e760048036038101906103e291906116a9565b6115ad565b6040516103f49190611c13565b60405180910390f35b610417600480360381019061041291906116d2565b6115c5565b6040516104249190611c13565b60405180910390f35b6104476004803603810190610442919061180f565b6115ea565b005b6040518060400160405280600e81526020017f44616920537461626c65636f696e00000000000000000000000000000000000081525081565b600081600360003373ffffffffffffffffffffffffffffffffffffffff1673ffffffffffffffffffffffffffffffffffffffff16815260200190815260200160002060008573ffffffffffffffffffffffffffffffffffffffff1673ffffffffffffffffffffffffffffffffffffffff168152602001908152602001600020819055508273ffffffffffffffffffffffffffffffffffffffff163373ffffffffffffffffffffffffffffffffffffffff167f8c5be1e5ebec7d5bd14f71427d1e84f3dd0314c0f7b2291e5b200ac8c7c3b925846040516105629190611c13565b60405180910390a36001905092915050565b60015481565b600081600260008673ffffffffffffffffffffffffffffffffffffffff1673ffffffffffffffffffffffffffffffffffffffff1681526020019081526020016000205410156105fe576040517f08c379a00000000000000000000000000000000000000000000000000000000081526004016105f590611bb3565b60405180910390fd5b3373ffffffffffffffffffffffffffffffffffffffff168473ffffffffffffffffffffffffffffffffffffffff16141580156106d657507fffffffffffffffffffffffffffffffffffffffffffffffffffffffffffffffff600360008673ffffffffffffffffffffffffffffffffffffffff1673ffffffffffffffffffffffffffffffffffffffff16815260200190815260200160002060003373ffffffffffffffffffffffffffffffffffffffff1673ffffffffffffffffffffffffffffffffffffffff1681526020019081526020016000205414155b156108a15781600360008673ffffffffffffffffffffffffffffffffffffffff1673ffffffffffffffffffffffffffffffffffffffff16815260200190815260200160002060003373ffffffffffffffffffffffffffffffffffffffff1673ffffffffffffffffffffffffffffffffffffffff16815260200190815260200160002054101561079a576040517f08c379a000000000000000000000000000000000000000000000000000000000815260040161079190611bd3565b60405180910390fd5b610820600360008673ffffffffffffffffffffffffffffffffffffffff1673ffffffffffffffffffffffffffffffffffffffff16815260200190815260200160002060003373ffffffffffffffffffffffffffffffffffffffff1673ffffffffffffffffffffffffffffffffffffffff16815260200190815260200160002054836115fa565b600360008673ffffffffffffffffffffffffffffffffffffffff1673ffffffffffffffffffffffffffffffffffffffff16815260200190815260200160002060003373ffffffffffffffffffffffffffffffffffffffff1673ffffffffffffffffffffffffffffffffffffffff168152602001908152602001600020819055505b6108ea600260008673ffffffffffffffffffffffffffffffffffffffff1673ffffffffffffffffffffffffffffffffffffffff16815260200190815260200160002054836115fa565b600260008673ffffffffffffffffffffffffffffffffffffffff1673ffffffffffffffffffffffffffffffffffffffff16815260200190815260200160002081905550610976600260008573ffffffffffffffffffffffffffffffffffffffff1673ffffffffffffffffffffffffffffffffffffffff168152602001908152602001600020548361161d565b600260008573ffffffffffffffffffffffffffffffffffffffff1673ffffffffffffffffffffffffffffffffffffffff168152602001908152602001600020819055508273ffffffffffffffffffffffffffffffffffffffff168473ffffffffffffffffffffffffffffffffffffffff167fddf252ad1be2c89b69c2b068fc378daa952ba7f163c4a11628f55a4df523b3ef84604051610a169190611c13565b60405180910390a3600190509392505050565b7fea2aa0a1be11a07ed86d755c93467f4f82362b452371d1ba94d1715123511acb60001b81565b601281565b60055481565b610aa4600260008473ffffffffffffffffffffffffffffffffffffffff1673ffffffffffffffffffffffffffffffffffffffff168152602001908152602001600020548261161d565b600260008473ffffffffffffffffffffffffffffffffffffffff1673ffffffffffffffffffffffffffffffffffffffff16815260200190815260200160002081905550610af36001548261161d565b6001819055508173ffffffffffffffffffffffffffffffffffffffff16600073ffffffffffffffffffffffffffffffffffffffff167fddf252ad1be2c89b69c2b068fc378daa952ba7f163c4a11628f55a4df523b3ef83604051610b579190611c13565b60405180910390a35050565b6040518060400160405280600181526020017f310000000000000000000000000000000000000000000000000000000000000081525081565b60016000803373ffffffffffffffffffffffffffffffffffffffff1673ffffffffffffffffffffffffffffffffffffffff1681526020019081526020016000205414610c1d576040517f08c379a0000000000000000000000000000000000000000000000000000000008152600401610c1490611b53565b60405180910390fd5b60016000808373ffffffffffffffffffffffffffffffffffffffff1673ffffffffffffffffffffffffffffffffffffffff1681526020019081526020016000208190555050565b60026020528060005260406000206000915090505481565b60046020528060005260406000206000915090505481565b60006005547fea2aa0a1be11a07ed86d755c93467f4f82362b452371d1ba94d1715123511acb60001b8a8a8a8a8a604051602001610cd796959493929190611a6b565b60405160208183030381529060405280519060200120604051602001610cfe9291906119fe565b604051602081830303815290604052805190602001209050600073ffffffffffffffffffffffffffffffffffffffff168973ffffffffffffffffffffffffffffffffffffffff161415610d86576040517f08c379a0000000000000000000000000000000000000000000000000000000008152600401610d7d90611b93565b60405180910390fd5b60018185858560405160008152602001604052604051610da99493929190611acc565b6020604051602081039080840390855afa158015610dcb573d6000803e3d6000fd5b5050506020604051035173ffffffffffffffffffffffffffffffffffffffff168973ffffffffffffffffffffffffffffffffffffffff1614610e42576040517f08c379a0000000000000000000000000000000000000000000000000000000008152600401610e3990611bf3565b60405180910390fd5b6000861480610e515750854211155b610e90576040517f08c379a0000000000000000000000000000000000000000000000000000000008152600401610e8790611b33565b60405180910390fd5b600460008a73ffffffffffffffffffffffffffffffffffffffff1673ffffffffffffffffffffffffffffffffffffffff1681526020019081526020016000206000815480929190610ee090611d8c565b919050558714610f25576040517f08c379a0000000000000000000000000000000000000000000000000000000008152600401610f1c90611b73565b60405180910390fd5b600085610f33576000610f55565b7fffffffffffffffffffffffffffffffffffffffffffffffffffffffffffffffff5b905080600360008c73ffffffffffffffffffffffffffffffffffffffff1673ffffffffffffffffffffffffffffffffffffffff16815260200190815260200160002060008b73ffffffffffffffffffffffffffffffffffffffff1673ffffffffffffffffffffffffffffffffffffffff168152602001908152602001600020819055508873ffffffffffffffffffffffffffffffffffffffff168a73ffffffffffffffffffffffffffffffffffffffff167f8c5be1e5ebec7d5bd14f71427d1e84f3dd0314c0f7b2291e5b200ac8c7c3b925836040516110359190611c13565b60405180910390a350505050505050505050565b6040518060400160405280600381526020017f444149000000000000000000000000000000000000000000000000000000000081525081565b60016000803373ffffffffffffffffffffffffffffffffffffffff1673ffffffffffffffffffffffffffffffffffffffff1681526020019081526020016000205414611103576040517f08c379a00000000000000000000000000000000000000000000000000000000081526004016110fa90611b53565b60405180910390fd5b60008060008373ffffffffffffffffffffffffffffffffffffffff1673ffffffffffffffffffffffffffffffffffffffff1681526020019081526020016000208190555050565b80600260008473ffffffffffffffffffffffffffffffffffffffff1673ffffffffffffffffffffffffffffffffffffffff1681526020019081526020016000205410156111cc576040517f08c379a00000000000000000000000000000000000000000000000000000000081526004016111c390611bb3565b60405180910390fd5b3373ffffffffffffffffffffffffffffffffffffffff168273ffffffffffffffffffffffffffffffffffffffff16141580156112a457507fffffffffffffffffffffffffffffffffffffffffffffffffffffffffffffffff600360008473ffffffffffffffffffffffffffffffffffffffff1673ffffffffffffffffffffffffffffffffffffffff16815260200190815260200160002060003373ffffffffffffffffffffffffffffffffffffffff1673ffffffffffffffffffffffffffffffffffffffff1681526020019081526020016000205414155b1561146f5780600360008473ffffffffffffffffffffffffffffffffffffffff1673ffffffffffffffffffffffffffffffffffffffff16815260200190815260200160002060003373ffffffffffffffffffffffffffffffffffffffff1673ffffffffffffffffffffffffffffffffffffffff168152602001908152602001600020541015611368576040517f08c379a000000000000000000000000000000000000000000000000000000000815260040161135f90611bd3565b60405180910390fd5b6113ee600360008473ffffffffffffffffffffffffffffffffffffffff1673ffffffffffffffffffffffffffffffffffffffff16815260200190815260200160002060003373ffffffffffffffffffffffffffffffffffffffff1673ffffffffffffffffffffffffffffffffffffffff16815260200190815260200160002054826115fa565b600360008473ffffffffffffffffffffffffffffffffffffffff1673ffffffffffffffffffffffffffffffffffffffff16815260200190815260200160002060003373ffffffffffffffffffffffffffffffffffffffff1673ffffffffffffffffffffffffffffffffffffffff168152602001908152602001600020819055505b6114b8600260008473ffffffffffffffffffffffffffffffffffffffff1673ffffffffffffffffffffffffffffffffffffffff16815260200190815260200160002054826115fa565b600260008473ffffffffffffffffffffffffffffffffffffffff1673ffffffffffffffffffffffffffffffffffffffff16815260200190815260200160002081905550611507600154826115fa565b600181905550600073ffffffffffffffffffffffffffffffffffffffff168273ffffffffffffffffffffffffffffffffffffffff167fddf252ad1be2c89b69c2b068fc378daa952ba7f163c4a11628f55a4df523b3ef8360405161156b9190611c13565b60405180910390a35050565b600061158433848461057a565b905092915050565b61159733838361057a565b505050565b6115a783838361057a565b50505050565b60006020528060005260406000206000915090505481565b6003602052816000526040600020602052806000526040600020600091509150505481565b6115f582338361057a565b505050565b60008282846116099190611cc6565b915081111561161757600080fd5b92915050565b600082828461162c9190611c70565b915081101561163a57600080fd5b92915050565b60008135905061164f81611f67565b92915050565b60008135905061166481611f7e565b92915050565b60008135905061167981611f95565b92915050565b60008135905061168e81611fac565b92915050565b6000813590506116a381611fc3565b92915050565b6000602082840312156116bb57600080fd5b60006116c984828501611640565b91505092915050565b600080604083850312156116e557600080fd5b60006116f385828601611640565b925050602061170485828601611640565b9150509250929050565b60008060006060848603121561172357600080fd5b600061173186828701611640565b935050602061174286828701611640565b92505060406117538682870161167f565b9150509250925092565b600080600080600080600080610100898b03121561177a57600080fd5b60006117888b828c01611640565b98505060206117998b828c01611640565b97505060406117aa8b828c0161167f565b96505060606117bb8b828c0161167f565b95505060806117cc8b828c01611655565b94505060a06117dd8b828c01611694565b93505060c06117ee8b828c0161166a565b92505060e06117ff8b828c0161166a565b9150509295985092959890939650565b6000806040838503121561182257600080fd5b600061183085828601611640565b92505060206118418582860161167f565b9150509250929050565b61185481611cfa565b82525050565b61186381611d0c565b82525050565b61187281611d18565b82525050565b61188961188482611d18565b611dd5565b82525050565b600061189a82611c49565b6118a48185611c54565b93506118b4818560208601611d59565b6118bd81611e0e565b840191505092915050565b60006118d5601283611c54565b91506118e082611e1f565b602082019050919050565b60006118f8600283611c65565b915061190382611e48565b600282019050919050565b600061191b601283611c54565b915061192682611e71565b602082019050919050565b600061193e601183611c54565b915061194982611e9a565b602082019050919050565b6000611961601583611c54565b915061196c82611ec3565b602082019050919050565b6000611984601883611c54565b915061198f82611eec565b602082019050919050565b60006119a7601a83611c54565b91506119b282611f15565b602082019050919050565b60006119ca601283611c54565b91506119d582611f3e565b602082019050919050565b6119e981611d42565b82525050565b6119f881611d4c565b82525050565b6000611a09826118eb565b9150611a158285611878565b602082019150611a258284611878565b6020820191508190509392505050565b6000602082019050611a4a600083018461185a565b92915050565b6000602082019050611a656000830184611869565b92915050565b600060c082019050611a806000830189611869565b611a8d602083018861184b565b611a9a604083018761184b565b611aa760608301866119e0565b611ab460808301856119e0565b611ac160a083018461185a565b979650505050505050565b6000608082019050611ae16000830187611869565b611aee60208301866119ef565b611afb6040830185611869565b611b086060830184611869565b95945050505050565b60006020820190508181036000830152611b2b818461188f565b905092915050565b60006020820190508181036000830152611b4c816118c8565b9050919050565b60006020820190508181036000830152611b6c8161190e565b9050919050565b60006020820190508181036000830152611b8c81611931565b9050919050565b60006020820190508181036000830152611bac81611954565b9050919050565b60006020820190508181036000830152611bcc81611977565b9050919050565b60006020820190508181036000830152611bec8161199a565b9050919050565b60006020820190508181036000830152611c0c816119bd565b9050919050565b6000602082019050611c2860008301846119e0565b92915050565b6000602082019050611c4360008301846119ef565b92915050565b600081519050919050565b600082825260208201905092915050565b600081905092915050565b6000611c7b82611d42565b9150611c8683611d42565b9250827fffffffffffffffffffffffffffffffffffffffffffffffffffffffffffffffff03821115611cbb57611cba611ddf565b5b828201905092915050565b6000611cd182611d42565b9150611cdc83611d42565b925082821015611cef57611cee611ddf565b5b828203905092915050565b6000611d0582611d22565b9050919050565b60008115159050919050565b6000819050919050565b600073ffffffffffffffffffffffffffffffffffffffff82169050919050565b6000819050919050565b600060ff82169050919050565b60005b83811015611d77578082015181840152602081019050611d5c565b83811115611d86576000848401525b50505050565b6000611d9782611d42565b91507fffffffffffffffffffffffffffffffffffffffffffffffffffffffffffffffff821415611dca57611dc9611ddf565b5b600182019050919050565b6000819050919050565b7f4e487b7100000000000000000000000000000000000000000000000000000000600052601160045260246000fd5b6000601f19601f8301169050919050565b7f4461692f7065726d69742d657870697265640000000000000000000000000000600082015250565b7f1901000000000000000000000000000000000000000000000000000000000000600082015250565b7f4461692f6e6f742d617574686f72697a65640000000000000000000000000000600082015250565b7f4461692f696e76616c69642d6e6f6e6365000000000000000000000000000000600082015250565b7f4461692f696e76616c69642d616464726573732d300000000000000000000000600082015250565b7f4461692f696e73756666696369656e742d62616c616e63650000000000000000600082015250565b7f4461692f696e73756666696369656e742d616c6c6f77616e6365000000000000600082015250565b7f4461692f696e76616c69642d7065726d69740000000000000000000000000000600082015250565b611f7081611cfa565b8114611f7b57600080fd5b50565b611f8781611d0c565b8114611f9257600080fd5b50565b611f9e81611d18565b8114611fa957600080fd5b50565b611fb581611d42565b8114611fc057600080fd5b50565b611fcc81611d4c565b8114611fd757600080fd5b5056fea26469706673582212203953d26165858229c750d32b3d47ffdba619a44d36f567693cd6dda4b93472d764736f6c63430008040033",
  "linkReferences": {},
  "deployedLinkReferences": {}
}